{
  "abi": [
    {
      "inputs": [],
      "name": "ETH",
      "outputs": [
        {
          "internalType": "address",
          "name": "",
          "type": "address"
        }
      ],
      "stateMutability": "view",
      "type": "function"
    }
  ],
  "bytecode": {
    "object": "0x608080604052346018576094908161001e823930815050f35b600080fdfe6080806040526004361015601257600080fd5b60003560e01c638322fff214602657600080fd5b60007ffffffffffffffffffffffffffffffffffffffffffffffffffffffffffffffffc3601126059578061eeee60209252f35b600080fdfea2646970667358221220b65029862e36eb22540ecfc10cd939c618b059a40f3c9c4f121be65a571986cc64736f6c63430008140033",
    "linkReferences": {}
  },
  "methodIdentifiers": {
    "ETH()": "8322fff2"
  },
  "id": 122
}