{
  "abi": [
    {
      "inputs": [
        {
          "internalType": "contract IJBOperatorStore",
          "name": "_operatorStore",
          "type": "address"
        },
        {
          "internalType": "contract IJBProjects",
          "name": "_projects",
          "type": "address"
        },
        {
          "internalType": "contract IJBDirectory",
          "name": "_directory",
          "type": "address"
        }
      ],
      "stateMutability": "nonpayable",
      "type": "constructor"
    },
    {
      "inputs": [],
      "name": "INVALID_LOCKED_UNTIL",
      "type": "error"
    },
    {
      "inputs": [],
      "name": "INVALID_PROJECT_ID",
      "type": "error"
    },
    {
      "inputs": [],
      "name": "INVALID_SPLIT_PERCENT",
      "type": "error"
    },
    {
      "inputs": [],
      "name": "INVALID_TOTAL_PERCENT",
      "type": "error"
    },
    {
      "inputs": [],
      "name": "PREVIOUS_LOCKED_SPLITS_NOT_INCLUDED",
      "type": "error"
    },
    {
      "inputs": [],
      "name": "UNAUTHORIZED",
      "type": "error"
    },
    {
      "anonymous": false,
      "inputs": [
        {
          "indexed": true,
          "internalType": "uint256",
          "name": "projectId",
          "type": "uint256"
        },
        {
          "indexed": true,
          "internalType": "uint256",
          "name": "domain",
          "type": "uint256"
        },
        {
          "indexed": true,
          "internalType": "uint256",
          "name": "group",
          "type": "uint256"
        },
        {
          "components": [
            {
              "internalType": "bool",
              "name": "preferClaimed",
              "type": "bool"
            },
            {
              "internalType": "bool",
              "name": "preferAddToBalance",
              "type": "bool"
            },
            {
              "internalType": "uint256",
              "name": "percent",
              "type": "uint256"
            },
            {
              "internalType": "uint256",
              "name": "projectId",
              "type": "uint256"
            },
            {
              "internalType": "address payable",
              "name": "beneficiary",
              "type": "address"
            },
            {
              "internalType": "uint256",
              "name": "lockedUntil",
              "type": "uint256"
            },
            {
              "internalType": "contract IJBSplitAllocator",
              "name": "allocator",
              "type": "address"
            }
          ],
          "indexed": false,
          "internalType": "struct JBSplit",
          "name": "split",
          "type": "tuple"
        },
        {
          "indexed": false,
          "internalType": "address",
          "name": "caller",
          "type": "address"
        }
      ],
      "name": "SetSplit",
      "type": "event"
    },
    {
      "inputs": [],
      "name": "directory",
      "outputs": [
        {
          "internalType": "contract IJBDirectory",
          "name": "",
          "type": "address"
        }
      ],
      "stateMutability": "view",
      "type": "function"
    },
    {
      "inputs": [],
      "name": "operatorStore",
      "outputs": [
        {
          "internalType": "contract IJBOperatorStore",
          "name": "",
          "type": "address"
        }
      ],
      "stateMutability": "view",
      "type": "function"
    },
    {
      "inputs": [],
      "name": "projects",
      "outputs": [
        {
          "internalType": "contract IJBProjects",
          "name": "",
          "type": "address"
        }
      ],
      "stateMutability": "view",
      "type": "function"
    },
    {
      "inputs": [
        {
          "internalType": "uint256",
          "name": "_projectId",
          "type": "uint256"
        },
        {
          "internalType": "uint256",
          "name": "_domain",
          "type": "uint256"
        },
        {
          "components": [
            {
              "internalType": "uint256",
              "name": "group",
              "type": "uint256"
            },
            {
              "components": [
                {
                  "internalType": "bool",
                  "name": "preferClaimed",
                  "type": "bool"
                },
                {
                  "internalType": "bool",
                  "name": "preferAddToBalance",
                  "type": "bool"
                },
                {
                  "internalType": "uint256",
                  "name": "percent",
                  "type": "uint256"
                },
                {
                  "internalType": "uint256",
                  "name": "projectId",
                  "type": "uint256"
                },
                {
                  "internalType": "address payable",
                  "name": "beneficiary",
                  "type": "address"
                },
                {
                  "internalType": "uint256",
                  "name": "lockedUntil",
                  "type": "uint256"
                },
                {
                  "internalType": "contract IJBSplitAllocator",
                  "name": "allocator",
                  "type": "address"
                }
              ],
              "internalType": "struct JBSplit[]",
              "name": "splits",
              "type": "tuple[]"
            }
          ],
          "internalType": "struct JBGroupedSplits[]",
          "name": "_groupedSplits",
          "type": "tuple[]"
        }
      ],
      "name": "set",
      "outputs": [],
      "stateMutability": "nonpayable",
      "type": "function"
    },
    {
      "inputs": [
        {
          "internalType": "uint256",
          "name": "_projectId",
          "type": "uint256"
        },
        {
          "internalType": "uint256",
          "name": "_domain",
          "type": "uint256"
        },
        {
          "internalType": "uint256",
          "name": "_group",
          "type": "uint256"
        }
      ],
      "name": "splitsOf",
      "outputs": [
        {
          "components": [
            {
              "internalType": "bool",
              "name": "preferClaimed",
              "type": "bool"
            },
            {
              "internalType": "bool",
              "name": "preferAddToBalance",
              "type": "bool"
            },
            {
              "internalType": "uint256",
              "name": "percent",
              "type": "uint256"
            },
            {
              "internalType": "uint256",
              "name": "projectId",
              "type": "uint256"
            },
            {
              "internalType": "address payable",
              "name": "beneficiary",
              "type": "address"
            },
            {
              "internalType": "uint256",
              "name": "lockedUntil",
              "type": "uint256"
            },
            {
              "internalType": "contract IJBSplitAllocator",
              "name": "allocator",
              "type": "address"
            }
          ],
          "internalType": "struct JBSplit[]",
          "name": "",
          "type": "tuple[]"
        }
      ],
      "stateMutability": "view",
      "type": "function"
    }
  ],
  "bytecode": {
    "object": "0x60e0346100bd57601f61103c38819003918201601f19168301916001600160401b038311848410176100c2578084926060946040528339810103126100bd5780516001600160a01b03919082811681036100bd5760208201519183831683036100bd576040015192831683036100bd5760805260a05260c052604051610f6390816100d982396080518181816108a6015281816109760152610a94015260a05181818160ec0152610ad8015260c05181818161015c0152610a500152f35b600080fd5b634e487b7160e01b600052604160045260246000fdfe6080604052600436101561001257600080fd5b60003560e01c806369e11cc514610afc5780638b79543c14610ab8578063ad007d6314610a74578063c41c2f2414610a305763f2da44b61461005357600080fd5b346108065760606003193601126108065767ffffffffffffffff60443511610806573660236044350112156108065767ffffffffffffffff6044356004013511610806573660246044356004013560051b604435010111610806576040517f6352211e00000000000000000000000000000000000000000000000000000000815260043560048201526020816024816001600160a01b037f0000000000000000000000000000000000000000000000000000000000000000165afa90811561090e57600091610a11575b506040517f5dd8f6aa00000000000000000000000000000000000000000000000000000000815260043560048201526020816024816001600160a01b037f0000000000000000000000000000000000000000000000000000000000000000165afa90811561090e576000916109e2575b506001600160a01b031633141590816109ce575b8161091a575b8161084b575b506108215760005b6044356004013581106101c457005b60248160051b6044350101357fffffffffffffffffffffffffffffffffffffffffffffffffffffffffffffff9d60443536030181121561080657604435019060407fffffffffffffffffffffffffffffffffffffffffffffffffffffffffffffffdc8336030112610806576040516040810181811067ffffffffffffffff82111761080b5760405260248301358152604483013567ffffffffffffffff811161080657366043828601011215610806576024818501013561028481610c14565b946102926040519687610bd2565b818652602086019036604460e0850286840101011161080657604484820101935b604460e085028284010101851061076e575050505050826020820152516102df81602435600435610dba565b80519060005b8281106107065750505060009083519160005b8381106103365750506001935060043560005260006020526040600020602435600052602052604060002090600052602052604060002055016101b5565b60406103428288610c39565b510151156106dc5766ffffffffffffff606061035e8389610c39565b510151116106b25760406103728288610c39565b510151820180921161069c57633b9aca0082116106725760006103958288610c39565b515161066a575b60206103a88389610c39565b510151610662575b60406103bc8389610c39565b5101519060606103cc848a610c39565b51015160221b907f03fffffffffffffffffffffffffffffffffffffffc00000000000000000000006080610400868c610c39565b510151605a1b169260021b1717176004356000526001602052604060002060243560005260205260406000208460005260205260406000208260005260205260406000205560a06104518288610c39565b51015115801590610642575b156105c65765ffffffffffff60a06104758389610c39565b5101511161059c578065ffffffffffff60a06104936001948a610c39565b5101511679ffffffffffffffffffffffffffffffffffffffff00000000000060c06104be848b610c39565b51015160301b1617600435600052600260205260406000206024356000526020526040600020856000526020526040600020826000526020526040600020555b836105098289610c39565b51610563604051809260c0908051151583526020810151151560208401526040810151604084015260608101516060840152816001600160a01b039182608082015116608086015260a081015160a0860152015116910152565b3360e0820152602435907f1d65eeba667d8160993d485b4782f11eef3bc64186c6521f2a0801f816e752e761010060043592a4016102f8565b60046040517fd509b54d000000000000000000000000000000000000000000000000000000008152fd5b60019060043560005260026020526040600020602435600052602052604060002084600052602052604060002081600052602052604060002054156104fe5760043560005260026020526040600020602435600052602052604060002084600052602052604060002081600052602052600060408120556104fe565b506001600160a01b0360c06106578389610c39565b51015116151561045d565b6002176103b0565b50600161039c565b60046040517feca73610000000000000000000000000000000000000000000000000000000008152fd5b634e487b7160e01b600052601160045260246000fd5b60046040517f3b44d992000000000000000000000000000000000000000000000000000000008152fd5b60046040517fe119ba45000000000000000000000000000000000000000000000000000000008152fd5b60a06107128284610c39565b510151421080610753575b610729576001016102e5565b60046040517f19744595000000000000000000000000000000000000000000000000000000008152fd5b506107686107618284610c39565b5187610c63565b1561071d565b60e0853603126108065760405161078481610bb6565b61078d86610c2c565b815261079b60208701610c2c565b60208201526040860135604082015260608601356060820152608080870135906001600160a01b03821682036108065782015260a0808701359082015260c080870135906001600160a01b038216820361080657820152835260e094909401936020909201916102b3565b600080fd5b634e487b7160e01b600052604160045260246000fd5b60046040517f075fd2b1000000000000000000000000000000000000000000000000000000008152fd5b90506001600160a01b03604051917fc161c93f00000000000000000000000000000000000000000000000000000000835233600484015216602482015260006044820152601260648201526020816084816001600160a01b037f0000000000000000000000000000000000000000000000000000000000000000165afa90811561090e576000916108df575b5015386101ad565b610901915060203d602011610907575b6108f98183610bd2565b810190610f15565b386108d7565b503d6108ef565b6040513d6000823e3d90fd5b90506040517fc161c93f0000000000000000000000000000000000000000000000000000000081523360048201526001600160a01b03821660248201526004356044820152601260648201526020816084816001600160a01b037f0000000000000000000000000000000000000000000000000000000000000000165afa90811561090e576000916109af575b5015906101a7565b6109c8915060203d602011610907576108f98183610bd2565b386109a7565b336001600160a01b038216141591506101a1565b610a04915060203d602011610a0a575b6109fc8183610bd2565b810190610bf5565b3861018d565b503d6109f2565b610a2a915060203d602011610a0a576109fc8183610bd2565b3861011d565b346108065760006003193601126108065760206040516001600160a01b037f0000000000000000000000000000000000000000000000000000000000000000168152f35b346108065760006003193601126108065760206040516001600160a01b037f0000000000000000000000000000000000000000000000000000000000000000168152f35b346108065760006003193601126108065760206040516001600160a01b037f0000000000000000000000000000000000000000000000000000000000000000168152f35b3461080657606060031936011261080657610b1e604435602435600435610dba565b6040516020918282018383528151809152836040840192019360005b828110610b475784840385f35b9091928260e082610ba76001948a5160c0908051151583526020810151151560208401526040810151604084015260608101516060840152816001600160a01b039182608082015116608086015260a081015160a0860152015116910152565b01960191019492919094610b3a565b60e0810190811067ffffffffffffffff82111761080b57604052565b90601f601f19910116810190811067ffffffffffffffff82111761080b57604052565b9081602091031261080657516001600160a01b03811681036108065790565b67ffffffffffffffff811161080b5760051b60200190565b3590811515820361080657565b8051821015610c4d5760209160051b010190565b634e487b7160e01b600052603260045260246000fd5b80519160005b838110610c795750505050600090565b604080610c868386610c39565b510151908301511480610d5c575b80610d36575b80610d1b575b80610d02575b80610ce3575b80610cc7575b610cbe57600101610c69565b50505050600190565b5060a080610cd58386610c39565b510151908301511115610cb2565b50602080610cf18386610c39565b510151151590830151151514610cac565b50610d0d8184610c39565b515115158251151514610ca6565b50606080610d298386610c39565b5101519083015114610ca0565b5060c06001600160a01b038082610d4d8588610c39565b51015116918401511614610c9a565b5060806001600160a01b038082610d738588610c39565b51015116918401511614610c94565b60405190610d8f82610bb6565b8160c06000918281528260208201528260408201528260608201528260808201528260a08201520152565b9291600091848352602094838652604091828520818652875282852084865287528285205492610de984610c14565b95610df682519788610bd2565b848752601f19610e0586610c14565b0189825b828110610eff57505050805b858110610e285750959750505050505050565b848252600190818b528383208584528b528383208884528b528383208184528b5283832054610e55610d82565b9083808216148252838082811c16148d830152600263ffffffff82821c168784015266ffffffffffffff8260221c1660608401526001600160a01b038092605a1c1660808401528886528d528585208786528d528585208a86528d528585208386528d528585205480610ee1575b5050610ecf828b610c39565b52610eda818a610c39565b5001610e15565b65ffffffffffff811660a084015260301c1660c08201523880610ec3565b610f07610d82565b82828c010152018a90610e09565b9081602091031261080657518015158103610806579056fea2646970667358221220c1d1ec9c334f0abd299f96950c28fa9a33588ed319670d9c8e94ebdaf6b7e5ad64736f6c63430008140033",
    "linkReferences": {}
  },
  "methodIdentifiers": {
    "directory()": "c41c2f24",
    "operatorStore()": "ad007d63",
    "projects()": "8b79543c",
    "set(uint256,uint256,(uint256,(bool,bool,uint256,uint256,address,uint256,address)[])[])": "f2da44b6",
    "splitsOf(uint256,uint256,uint256)": "69e11cc5"
  },
  "id": 79
}