{
  "abi": [
    {
      "inputs": [
        {
          "internalType": "contract IJBOperatorStore",
          "name": "_operatorStore",
          "type": "address"
        },
        {
          "internalType": "contract IJBProjects",
          "name": "_projects",
          "type": "address"
        },
        {
          "internalType": "contract IJBDirectory",
          "name": "_directory",
          "type": "address"
        }
      ],
      "stateMutability": "nonpayable",
      "type": "constructor"
    },
    {
      "inputs": [],
      "name": "INVALID_LOCKED_UNTIL",
      "type": "error"
    },
    {
      "inputs": [],
      "name": "INVALID_PROJECT_ID",
      "type": "error"
    },
    {
      "inputs": [],
      "name": "INVALID_SPLIT_PERCENT",
      "type": "error"
    },
    {
      "inputs": [],
      "name": "INVALID_TOTAL_PERCENT",
      "type": "error"
    },
    {
      "inputs": [],
      "name": "PREVIOUS_LOCKED_SPLITS_NOT_INCLUDED",
      "type": "error"
    },
    {
      "inputs": [],
      "name": "UNAUTHORIZED",
      "type": "error"
    },
    {
      "anonymous": false,
      "inputs": [
        {
          "indexed": true,
          "internalType": "uint256",
          "name": "projectId",
          "type": "uint256"
        },
        {
          "indexed": true,
          "internalType": "uint256",
          "name": "domain",
          "type": "uint256"
        },
        {
          "indexed": true,
          "internalType": "uint256",
          "name": "group",
          "type": "uint256"
        },
        {
          "components": [
            {
              "internalType": "bool",
              "name": "preferClaimed",
              "type": "bool"
            },
            {
              "internalType": "bool",
              "name": "preferAddToBalance",
              "type": "bool"
            },
            {
              "internalType": "uint256",
              "name": "percent",
              "type": "uint256"
            },
            {
              "internalType": "uint256",
              "name": "projectId",
              "type": "uint256"
            },
            {
              "internalType": "address payable",
              "name": "beneficiary",
              "type": "address"
            },
            {
              "internalType": "uint256",
              "name": "lockedUntil",
              "type": "uint256"
            },
            {
              "internalType": "contract IJBSplitAllocator",
              "name": "allocator",
              "type": "address"
            }
          ],
          "indexed": false,
          "internalType": "struct JBSplit",
          "name": "split",
          "type": "tuple"
        },
        {
          "indexed": false,
          "internalType": "address",
          "name": "caller",
          "type": "address"
        }
      ],
      "name": "SetSplit",
      "type": "event"
    },
    {
      "inputs": [],
      "name": "directory",
      "outputs": [
        {
          "internalType": "contract IJBDirectory",
          "name": "",
          "type": "address"
        }
      ],
      "stateMutability": "view",
      "type": "function"
    },
    {
      "inputs": [],
      "name": "operatorStore",
      "outputs": [
        {
          "internalType": "contract IJBOperatorStore",
          "name": "",
          "type": "address"
        }
      ],
      "stateMutability": "view",
      "type": "function"
    },
    {
      "inputs": [],
      "name": "projects",
      "outputs": [
        {
          "internalType": "contract IJBProjects",
          "name": "",
          "type": "address"
        }
      ],
      "stateMutability": "view",
      "type": "function"
    },
    {
      "inputs": [
        {
          "internalType": "uint256",
          "name": "_projectId",
          "type": "uint256"
        },
        {
          "internalType": "uint256",
          "name": "_domain",
          "type": "uint256"
        },
        {
          "components": [
            {
              "internalType": "uint256",
              "name": "group",
              "type": "uint256"
            },
            {
              "components": [
                {
                  "internalType": "bool",
                  "name": "preferClaimed",
                  "type": "bool"
                },
                {
                  "internalType": "bool",
                  "name": "preferAddToBalance",
                  "type": "bool"
                },
                {
                  "internalType": "uint256",
                  "name": "percent",
                  "type": "uint256"
                },
                {
                  "internalType": "uint256",
                  "name": "projectId",
                  "type": "uint256"
                },
                {
                  "internalType": "address payable",
                  "name": "beneficiary",
                  "type": "address"
                },
                {
                  "internalType": "uint256",
                  "name": "lockedUntil",
                  "type": "uint256"
                },
                {
                  "internalType": "contract IJBSplitAllocator",
                  "name": "allocator",
                  "type": "address"
                }
              ],
              "internalType": "struct JBSplit[]",
              "name": "splits",
              "type": "tuple[]"
            }
          ],
          "internalType": "struct JBGroupedSplits[]",
          "name": "_groupedSplits",
          "type": "tuple[]"
        }
      ],
      "name": "set",
      "outputs": [],
      "stateMutability": "nonpayable",
      "type": "function"
    },
    {
      "inputs": [
        {
          "internalType": "uint256",
          "name": "_projectId",
          "type": "uint256"
        },
        {
          "internalType": "uint256",
          "name": "_domain",
          "type": "uint256"
        },
        {
          "internalType": "uint256",
          "name": "_group",
          "type": "uint256"
        }
      ],
      "name": "splitsOf",
      "outputs": [
        {
          "components": [
            {
              "internalType": "bool",
              "name": "preferClaimed",
              "type": "bool"
            },
            {
              "internalType": "bool",
              "name": "preferAddToBalance",
              "type": "bool"
            },
            {
              "internalType": "uint256",
              "name": "percent",
              "type": "uint256"
            },
            {
              "internalType": "uint256",
              "name": "projectId",
              "type": "uint256"
            },
            {
              "internalType": "address payable",
              "name": "beneficiary",
              "type": "address"
            },
            {
              "internalType": "uint256",
              "name": "lockedUntil",
              "type": "uint256"
            },
            {
              "internalType": "contract IJBSplitAllocator",
              "name": "allocator",
              "type": "address"
            }
          ],
          "internalType": "struct JBSplit[]",
          "name": "",
          "type": "tuple[]"
        }
      ],
      "stateMutability": "view",
      "type": "function"
    }
  ],
  "bytecode": {
    "object": "0x60e0346100bd57601f610e9338819003918201601f19168301916001600160401b038311848410176100c2578084926060946040528339810103126100bd5780516001600160a01b03919082811681036100bd5760208201519183831683036100bd576040015192831683036100bd5760805260a05260c052604051610dba90816100d98239608051818181610714015281816107c901526108de015260a05181818160c90152610923015260c05181818161012001526108990152f35b600080fd5b634e487b7160e01b600052604160045260246000fdfe6080604052600436101561001257600080fd5b60003560e01c806369e11cc5146109525780638b79543c1461090d578063ad007d63146108c8578063c41c2f24146108835763f2da44b61461005357600080fd5b346106a85760603660031901126106a8576001600160401b03604435116106a8573660236044350112156106a8576001600160401b0360046044350135116106a8573660246044356004013560051b6044350101116106a8576040516331a9108f60e11b815260048035908201526020816024817f00000000000000000000000000000000000000000000000000000000000000006001600160a01b03165afa90811561077c57600091610864575b50604051632eec7b5560e11b815260048035908201526020816024817f00000000000000000000000000000000000000000000000000000000000000006001600160a01b03165afa90811561077c57600091610835575b506001600160a01b03163314159081610821575b81610788575b816106d5575b506106c35760005b60443560040135811061019057005b60248160051b6044350101356062196044353603018112156106a8576044350190604060231983360301126106a857604080519081016001600160401b038111828210176106ad576040526024830135815260448301356001600160401b0381116106a8573660438286010112156106a8576024818501013561021281610a6d565b946102206040519687610a2b565b818652602086019036604460e085028684010101116106a857604484820101935b604460e08502828401010185106106105750505050508260208201525161026d81602435600435610c12565b80519060005b8281106105c05750505060009083519160005b8381106102c4575050600193506004356000526000602052604060002060243560005260205260406000209060005260205260406000205501610181565b60406102d08288610a91565b510151156105ae5766ffffffffffffff60606102ec8389610a91565b5101511161059c5760406103008288610a91565b510151820180921161058657633b9aca0082116105745760006103238288610a91565b515161056c575b60206103368389610a91565b510151610564575b604061034a8389610a91565b51015190606061035a848a610a91565b51015160221b906001605a1b600160fa1b036080610378868c610a91565b510151605a1b169260021b1717176004356000526001602052604060002060243560005260205260406000208460005260205260406000208260005260205260406000205560a06103c98288610a91565b51015115801590610544575b156104c85765ffffffffffff60a06103ed8389610a91565b510151116104b6578065ffffffffffff60a061040b6001948a610a91565b510151168260301b8360d01b0360c0610424848b610a91565b51015160301b1617600435600052600260205260406000206024356000526020526040600020856000526020526040600020826000526020526040600020555b8361046f8289610a91565b5161047d60405180926109c0565b3360e0820152602435907f1d65eeba667d8160993d485b4782f11eef3bc64186c6521f2a0801f816e752e761010060043592a401610286565b60405163d509b54d60e01b8152600490fd5b6001906004356000526002602052604060002060243560005260205260406000208460005260205260406000208160005260205260406000205415610464576004356000526002602052604060002060243560005260205260406000208460005260205260406000208160005260205260006040812055610464565b506001600160a01b0360c06105598389610a91565b5101511615156103d5565b60021761033e565b50600161032a565b604051630eca736160e41b8152600490fd5b634e487b7160e01b600052601160045260246000fd5b604051631da26cc960e11b8152600490fd5b60405163e119ba4560e01b8152600490fd5b60a06105cc8284610a91565b5101514210806105f5575b6105e357600101610273565b604051631974459560e01b8152600490fd5b5061060a6106038284610a91565b5187610abb565b156105d7565b60e0853603126106a85760405161062681610a10565b61062f86610a84565b815261063d60208701610a84565b60208201526040868101359082015260608087013590820152608080870135906001600160a01b03821682036106a85782015260a0868101359082015260c080870135906001600160a01b03821682036106a857820152835260e09490940193602090920191610241565b600080fd5b634e487b7160e01b600052604160045260246000fd5b60405163075fd2b160e01b8152600490fd5b60405163c161c93f60e01b81523360048201526001600160a01b03918216602482015260006044820152601260648201529150602090829060849082907f0000000000000000000000000000000000000000000000000000000000000000165afa90811561077c5760009161074d575b501538610179565b61076f915060203d602011610775575b6107678183610a2b565b810190610d6c565b38610745565b503d61075d565b6040513d6000823e3d90fd5b905060405163c161c93f60e01b815233600482015260018060a01b038216602482015260043560448201526012606482015260208160848160018060a01b037f0000000000000000000000000000000000000000000000000000000000000000165afa90811561077c57600091610802575b501590610173565b61081b915060203d602011610775576107678183610a2b565b386107fa565b336001600160a01b0382161415915061016d565b610857915060203d60201161085d575b61084f8183610a2b565b810190610a4e565b38610159565b503d610845565b61087d915060203d60201161085d5761084f8183610a2b565b38610102565b346106a85760003660031901126106a8576040517f00000000000000000000000000000000000000000000000000000000000000006001600160a01b03168152602090f35b346106a85760003660031901126106a8576040517f00000000000000000000000000000000000000000000000000000000000000006001600160a01b03168152602090f35b346106a85760003660031901126106a8576040517f00000000000000000000000000000000000000000000000000000000000000006001600160a01b03168152602090f35b346106a85760603660031901126106a857610974604435602435600435610c12565b6040516020918282018383528151809152836040840192019360005b82811061099d5784840385f35b9091928260e0826109b16001948a516109c0565b01960191019492919094610990565b60c09080511515835260208101511515602084015260408101516040840152606081015160608401528160018060a01b039182608082015116608086015260a081015160a0860152015116910152565b60e081019081106001600160401b038211176106ad57604052565b601f909101601f19168101906001600160401b038211908210176106ad57604052565b908160209103126106a857516001600160a01b03811681036106a85790565b6001600160401b0381116106ad5760051b60200190565b359081151582036106a857565b8051821015610aa55760209160051b010190565b634e487b7160e01b600052603260045260246000fd5b80519160005b838110610ad15750505050600090565b604080610ade8386610a91565b510151908301511480610bb4575b80610b8e575b80610b73575b80610b5a575b80610b3b575b80610b1f575b610b1657600101610ac1565b50505050600190565b5060a080610b2d8386610a91565b510151908301511115610b0a565b50602080610b498386610a91565b510151151590830151151514610b04565b50610b658184610a91565b515115158251151514610afe565b50606080610b818386610a91565b5101519083015114610af8565b5060c06001600160a01b038082610ba58588610a91565b51015116918401511614610af2565b5060806001600160a01b038082610bcb8588610a91565b51015116918401511614610aec565b60405190610be782610a10565b8160c06000918281528260208201528260408201528260608201528260808201528260a08201520152565b9291600091848352602094838652604091828520818652875282852084865287528285205492610c4184610a6d565b95610c4e82519788610a2b565b848752601f19610c5d86610a6d565b0189825b828110610d5657505050805b858110610c805750959750505050505050565b848252600190818b528383208584528b528383208884528b528383208184528b5283832054610cad610bda565b9083808216148252838082811c16148d830152600263ffffffff82821c168784015266ffffffffffffff8260221c16606084015260018060a01b038092605a1c1660808401528886528d528585208786528d528585208a86528d528585208386528d528585205480610d38575b5050610d26828b610a91565b52610d31818a610a91565b5001610c6d565b65ffffffffffff811660a084015260301c1660c08201523880610d1a565b610d5e610bda565b82828c010152018a90610c61565b908160209103126106a8575180151581036106a8579056fea2646970667358221220ae84f0773217300f7a4907fe445ef79e42be86047b0a4816835a7b96247d882764736f6c63430008110033",
    "linkReferences": {}
  },
  "methodIdentifiers": {
    "directory()": "c41c2f24",
    "operatorStore()": "ad007d63",
    "projects()": "8b79543c",
    "set(uint256,uint256,(uint256,(bool,bool,uint256,uint256,address,uint256,address)[])[])": "f2da44b6",
    "splitsOf(uint256,uint256,uint256)": "69e11cc5"
  },
  "id": 78
}