{
  "abi": [
    {
      "inputs": [],
      "stateMutability": "nonpayable",
      "type": "constructor"
    },
    {
      "inputs": [],
      "name": "ALEADY_MINTED",
      "type": "error"
    },
    {
      "inputs": [],
      "name": "APPROVAL_TO_CURRENT_OWNER",
      "type": "error"
    },
    {
      "inputs": [],
      "name": "APPROVE_TO_CALLER",
      "type": "error"
    },
    {
      "inputs": [],
      "name": "CALLER_NOT_OWNER_OR_APPROVED",
      "type": "error"
    },
    {
      "inputs": [],
      "name": "INCORRECT_OWNER",
      "type": "error"
    },
    {
      "inputs": [],
      "name": "INVALID_PAYMENT_EVENT",
      "type": "error"
    },
    {
      "inputs": [],
      "name": "INVALID_REDEMPTION_EVENT",
      "type": "error"
    },
    {
      "inputs": [],
      "name": "INVALID_REDEMPTION_METADATA",
      "type": "error"
    },
    {
      "inputs": [],
      "name": "INVALID_TOKEN_ID",
      "type": "error"
    },
    {
      "inputs": [],
      "name": "MINT_TO_ZERO",
      "type": "error"
    },
    {
      "inputs": [],
      "name": "NOT_AVAILABLE",
      "type": "error"
    },
    {
      "inputs": [],
      "name": "OVERSPENDING",
      "type": "error"
    },
    {
      "inputs": [
        {
          "internalType": "uint256",
          "name": "prod1",
          "type": "uint256"
        },
        {
          "internalType": "uint256",
          "name": "denominator",
          "type": "uint256"
        }
      ],
      "name": "PRBMath__MulDivOverflow",
      "type": "error"
    },
    {
      "inputs": [],
      "name": "PRICING_RESOLVER_CHANGES_PAUSED",
      "type": "error"
    },
    {
      "inputs": [],
      "name": "RESERVED_TOKEN_MINTING_PAUSED",
      "type": "error"
    },
    {
      "inputs": [],
      "name": "TRANSFERS_PAUSED",
      "type": "error"
    },
    {
      "inputs": [],
      "name": "TRANSFER_TO_NON_IMPLEMENTER",
      "type": "error"
    },
    {
      "inputs": [],
      "name": "TRANSFER_TO_ZERO_ADDRESS",
      "type": "error"
    },
    {
      "inputs": [],
      "name": "UNAUTHORIZED",
      "type": "error"
    },
    {
      "inputs": [],
      "name": "UNEXPECTED_TOKEN_REDEEMED",
      "type": "error"
    },
    {
      "anonymous": false,
      "inputs": [
        {
          "indexed": true,
          "internalType": "uint256",
          "name": "changeAmount",
          "type": "uint256"
        },
        {
          "indexed": true,
          "internalType": "uint256",
          "name": "newTotalCredits",
          "type": "uint256"
        },
        {
          "indexed": true,
          "internalType": "address",
          "name": "account",
          "type": "address"
        },
        {
          "indexed": false,
          "internalType": "address",
          "name": "caller",
          "type": "address"
        }
      ],
      "name": "AddCredits",
      "type": "event"
    },
    {
      "anonymous": false,
      "inputs": [
        {
          "indexed": true,
          "internalType": "uint256",
          "name": "tierId",
          "type": "uint256"
        },
        {
          "components": [
            {
              "internalType": "uint80",
              "name": "contributionFloor",
              "type": "uint80"
            },
            {
              "internalType": "uint48",
              "name": "lockedUntil",
              "type": "uint48"
            },
            {
              "internalType": "uint40",
              "name": "initialQuantity",
              "type": "uint40"
            },
            {
              "internalType": "uint16",
              "name": "votingUnits",
              "type": "uint16"
            },
            {
              "internalType": "uint16",
              "name": "reservedRate",
              "type": "uint16"
            },
            {
              "internalType": "address",
              "name": "reservedTokenBeneficiary",
              "type": "address"
            },
            {
              "internalType": "uint8",
              "name": "royaltyRate",
              "type": "uint8"
            },
            {
              "internalType": "address",
              "name": "royaltyBeneficiary",
              "type": "address"
            },
            {
              "internalType": "bytes32",
              "name": "encodedIPFSUri",
              "type": "bytes32"
            },
            {
              "internalType": "uint8",
              "name": "category",
              "type": "uint8"
            },
            {
              "internalType": "bool",
              "name": "allowManualMint",
              "type": "bool"
            },
            {
              "internalType": "bool",
              "name": "shouldUseReservedTokenBeneficiaryAsDefault",
              "type": "bool"
            },
            {
              "internalType": "bool",
              "name": "shouldUseRoyaltyBeneficiaryAsDefault",
              "type": "bool"
            },
            {
              "internalType": "bool",
              "name": "transfersPausable",
              "type": "bool"
            }
          ],
          "indexed": false,
          "internalType": "struct JB721TierParams",
          "name": "data",
          "type": "tuple"
        },
        {
          "indexed": false,
          "internalType": "address",
          "name": "caller",
          "type": "address"
        }
      ],
      "name": "AddTier",
      "type": "event"
    },
    {
      "anonymous": false,
      "inputs": [
        {
          "indexed": true,
          "internalType": "address",
          "name": "owner",
          "type": "address"
        },
        {
          "indexed": true,
          "internalType": "address",
          "name": "approved",
          "type": "address"
        },
        {
          "indexed": true,
          "internalType": "uint256",
          "name": "tokenId",
          "type": "uint256"
        }
      ],
      "name": "Approval",
      "type": "event"
    },
    {
      "anonymous": false,
      "inputs": [
        {
          "indexed": true,
          "internalType": "address",
          "name": "owner",
          "type": "address"
        },
        {
          "indexed": true,
          "internalType": "address",
          "name": "operator",
          "type": "address"
        },
        {
          "indexed": false,
          "internalType": "bool",
          "name": "approved",
          "type": "bool"
        }
      ],
      "name": "ApprovalForAll",
      "type": "event"
    },
    {
      "anonymous": false,
      "inputs": [
        {
          "indexed": true,
          "internalType": "uint256",
          "name": "tokenId",
          "type": "uint256"
        },
        {
          "indexed": true,
          "internalType": "uint256",
          "name": "tierId",
          "type": "uint256"
        },
        {
          "indexed": true,
          "internalType": "address",
          "name": "beneficiary",
          "type": "address"
        },
        {
          "indexed": false,
          "internalType": "uint256",
          "name": "totalAmountContributed",
          "type": "uint256"
        },
        {
          "indexed": false,
          "internalType": "address",
          "name": "caller",
          "type": "address"
        }
      ],
      "name": "Mint",
      "type": "event"
    },
    {
      "anonymous": false,
      "inputs": [
        {
          "indexed": true,
          "internalType": "uint256",
          "name": "tokenId",
          "type": "uint256"
        },
        {
          "indexed": true,
          "internalType": "uint256",
          "name": "tierId",
          "type": "uint256"
        },
        {
          "indexed": true,
          "internalType": "address",
          "name": "beneficiary",
          "type": "address"
        },
        {
          "indexed": false,
          "internalType": "address",
          "name": "caller",
          "type": "address"
        }
      ],
      "name": "MintReservedToken",
      "type": "event"
    },
    {
      "anonymous": false,
      "inputs": [
        {
          "indexed": true,
          "internalType": "address",
          "name": "previousOwner",
          "type": "address"
        },
        {
          "indexed": true,
          "internalType": "address",
          "name": "newOwner",
          "type": "address"
        }
      ],
      "name": "OwnershipTransferred",
      "type": "event"
    },
    {
      "anonymous": false,
      "inputs": [
        {
          "indexed": true,
          "internalType": "uint256",
          "name": "tierId",
          "type": "uint256"
        },
        {
          "indexed": false,
          "internalType": "address",
          "name": "caller",
          "type": "address"
        }
      ],
      "name": "RemoveTier",
      "type": "event"
    },
    {
      "anonymous": false,
      "inputs": [
        {
          "indexed": true,
          "internalType": "string",
          "name": "baseUri",
          "type": "string"
        },
        {
          "indexed": false,
          "internalType": "address",
          "name": "caller",
          "type": "address"
        }
      ],
      "name": "SetBaseUri",
      "type": "event"
    },
    {
      "anonymous": false,
      "inputs": [
        {
          "indexed": true,
          "internalType": "string",
          "name": "contractUri",
          "type": "string"
        },
        {
          "indexed": false,
          "internalType": "address",
          "name": "caller",
          "type": "address"
        }
      ],
      "name": "SetContractUri",
      "type": "event"
    },
    {
      "anonymous": false,
      "inputs": [
        {
          "indexed": true,
          "internalType": "address",
          "name": "beneficiary",
          "type": "address"
        },
        {
          "indexed": false,
          "internalType": "address",
          "name": "caller",
          "type": "address"
        }
      ],
      "name": "SetDefaultReservedTokenBeneficiary",
      "type": "event"
    },
    {
      "anonymous": false,
      "inputs": [
        {
          "indexed": true,
          "internalType": "uint256",
          "name": "tierId",
          "type": "uint256"
        },
        {
          "indexed": false,
          "internalType": "bytes32",
          "name": "encodedIPFSUri",
          "type": "bytes32"
        },
        {
          "indexed": false,
          "internalType": "address",
          "name": "caller",
          "type": "address"
        }
      ],
      "name": "SetEncodedIPFSUri",
      "type": "event"
    },
    {
      "anonymous": false,
      "inputs": [
        {
          "indexed": true,
          "internalType": "contract IJBTokenUriResolver",
          "name": "newResolver",
          "type": "address"
        },
        {
          "indexed": false,
          "internalType": "address",
          "name": "caller",
          "type": "address"
        }
      ],
      "name": "SetTokenUriResolver",
      "type": "event"
    },
    {
      "anonymous": false,
      "inputs": [
        {
          "indexed": true,
          "internalType": "address",
          "name": "from",
          "type": "address"
        },
        {
          "indexed": true,
          "internalType": "address",
          "name": "to",
          "type": "address"
        },
        {
          "indexed": true,
          "internalType": "uint256",
          "name": "tokenId",
          "type": "uint256"
        }
      ],
      "name": "Transfer",
      "type": "event"
    },
    {
      "anonymous": false,
      "inputs": [
        {
          "indexed": true,
          "internalType": "uint256",
          "name": "changeAmount",
          "type": "uint256"
        },
        {
          "indexed": true,
          "internalType": "uint256",
          "name": "newTotalCredits",
          "type": "uint256"
        },
        {
          "indexed": true,
          "internalType": "address",
          "name": "account",
          "type": "address"
        },
        {
          "indexed": false,
          "internalType": "address",
          "name": "caller",
          "type": "address"
        }
      ],
      "name": "UseCredits",
      "type": "event"
    },
    {
      "inputs": [
        {
          "components": [
            {
              "internalType": "uint80",
              "name": "contributionFloor",
              "type": "uint80"
            },
            {
              "internalType": "uint48",
              "name": "lockedUntil",
              "type": "uint48"
            },
            {
              "internalType": "uint40",
              "name": "initialQuantity",
              "type": "uint40"
            },
            {
              "internalType": "uint16",
              "name": "votingUnits",
              "type": "uint16"
            },
            {
              "internalType": "uint16",
              "name": "reservedRate",
              "type": "uint16"
            },
            {
              "internalType": "address",
              "name": "reservedTokenBeneficiary",
              "type": "address"
            },
            {
              "internalType": "uint8",
              "name": "royaltyRate",
              "type": "uint8"
            },
            {
              "internalType": "address",
              "name": "royaltyBeneficiary",
              "type": "address"
            },
            {
              "internalType": "bytes32",
              "name": "encodedIPFSUri",
              "type": "bytes32"
            },
            {
              "internalType": "uint8",
              "name": "category",
              "type": "uint8"
            },
            {
              "internalType": "bool",
              "name": "allowManualMint",
              "type": "bool"
            },
            {
              "internalType": "bool",
              "name": "shouldUseReservedTokenBeneficiaryAsDefault",
              "type": "bool"
            },
            {
              "internalType": "bool",
              "name": "shouldUseRoyaltyBeneficiaryAsDefault",
              "type": "bool"
            },
            {
              "internalType": "bool",
              "name": "transfersPausable",
              "type": "bool"
            }
          ],
          "internalType": "struct JB721TierParams[]",
          "name": "_tiersToAdd",
          "type": "tuple[]"
        },
        {
          "internalType": "uint256[]",
          "name": "_tierIdsToRemove",
          "type": "uint256[]"
        }
      ],
      "name": "adjustTiers",
      "outputs": [],
      "stateMutability": "nonpayable",
      "type": "function"
    },
    {
      "inputs": [
        {
          "internalType": "address",
          "name": "to",
          "type": "address"
        },
        {
          "internalType": "uint256",
          "name": "tokenId",
          "type": "uint256"
        }
      ],
      "name": "approve",
      "outputs": [],
      "stateMutability": "nonpayable",
      "type": "function"
    },
    {
      "inputs": [
        {
          "internalType": "address",
          "name": "_owner",
          "type": "address"
        }
      ],
      "name": "balanceOf",
      "outputs": [
        {
          "internalType": "uint256",
          "name": "balance",
          "type": "uint256"
        }
      ],
      "stateMutability": "view",
      "type": "function"
    },
    {
      "inputs": [],
      "name": "codeOrigin",
      "outputs": [
        {
          "internalType": "address",
          "name": "",
          "type": "address"
        }
      ],
      "stateMutability": "view",
      "type": "function"
    },
    {
      "inputs": [],
      "name": "contractURI",
      "outputs": [
        {
          "internalType": "string",
          "name": "",
          "type": "string"
        }
      ],
      "stateMutability": "view",
      "type": "function"
    },
    {
      "inputs": [
        {
          "internalType": "address",
          "name": "",
          "type": "address"
        }
      ],
      "name": "creditsOf",
      "outputs": [
        {
          "internalType": "uint256",
          "name": "",
          "type": "uint256"
        }
      ],
      "stateMutability": "view",
      "type": "function"
    },
    {
      "inputs": [
        {
          "components": [
            {
              "internalType": "address",
              "name": "payer",
              "type": "address"
            },
            {
              "internalType": "uint256",
              "name": "projectId",
              "type": "uint256"
            },
            {
              "internalType": "uint256",
              "name": "currentFundingCycleConfiguration",
              "type": "uint256"
            },
            {
              "components": [
                {
                  "internalType": "address",
                  "name": "token",
                  "type": "address"
                },
                {
                  "internalType": "uint256",
                  "name": "value",
                  "type": "uint256"
                },
                {
                  "internalType": "uint256",
                  "name": "decimals",
                  "type": "uint256"
                },
                {
                  "internalType": "uint256",
                  "name": "currency",
                  "type": "uint256"
                }
              ],
              "internalType": "struct JBTokenAmount",
              "name": "amount",
              "type": "tuple"
            },
            {
              "components": [
                {
                  "internalType": "address",
                  "name": "token",
                  "type": "address"
                },
                {
                  "internalType": "uint256",
                  "name": "value",
                  "type": "uint256"
                },
                {
                  "internalType": "uint256",
                  "name": "decimals",
                  "type": "uint256"
                },
                {
                  "internalType": "uint256",
                  "name": "currency",
                  "type": "uint256"
                }
              ],
              "internalType": "struct JBTokenAmount",
              "name": "forwardedAmount",
              "type": "tuple"
            },
            {
              "internalType": "uint256",
              "name": "projectTokenCount",
              "type": "uint256"
            },
            {
              "internalType": "address",
              "name": "beneficiary",
              "type": "address"
            },
            {
              "internalType": "bool",
              "name": "preferClaimedTokens",
              "type": "bool"
            },
            {
              "internalType": "string",
              "name": "memo",
              "type": "string"
            },
            {
              "internalType": "bytes",
              "name": "metadata",
              "type": "bytes"
            }
          ],
          "internalType": "struct JBDidPayData",
          "name": "_data",
          "type": "tuple"
        }
      ],
      "name": "didPay",
      "outputs": [],
      "stateMutability": "payable",
      "type": "function"
    },
    {
      "inputs": [
        {
          "components": [
            {
              "internalType": "address",
              "name": "holder",
              "type": "address"
            },
            {
              "internalType": "uint256",
              "name": "projectId",
              "type": "uint256"
            },
            {
              "internalType": "uint256",
              "name": "currentFundingCycleConfiguration",
              "type": "uint256"
            },
            {
              "internalType": "uint256",
              "name": "projectTokenCount",
              "type": "uint256"
            },
            {
              "components": [
                {
                  "internalType": "address",
                  "name": "token",
                  "type": "address"
                },
                {
                  "internalType": "uint256",
                  "name": "value",
                  "type": "uint256"
                },
                {
                  "internalType": "uint256",
                  "name": "decimals",
                  "type": "uint256"
                },
                {
                  "internalType": "uint256",
                  "name": "currency",
                  "type": "uint256"
                }
              ],
              "internalType": "struct JBTokenAmount",
              "name": "reclaimedAmount",
              "type": "tuple"
            },
            {
              "components": [
                {
                  "internalType": "address",
                  "name": "token",
                  "type": "address"
                },
                {
                  "internalType": "uint256",
                  "name": "value",
                  "type": "uint256"
                },
                {
                  "internalType": "uint256",
                  "name": "decimals",
                  "type": "uint256"
                },
                {
                  "internalType": "uint256",
                  "name": "currency",
                  "type": "uint256"
                }
              ],
              "internalType": "struct JBTokenAmount",
              "name": "forwardedAmount",
              "type": "tuple"
            },
            {
              "internalType": "address payable",
              "name": "beneficiary",
              "type": "address"
            },
            {
              "internalType": "string",
              "name": "memo",
              "type": "string"
            },
            {
              "internalType": "bytes",
              "name": "metadata",
              "type": "bytes"
            }
          ],
          "internalType": "struct JBDidRedeemData",
          "name": "_data",
          "type": "tuple"
        }
      ],
      "name": "didRedeem",
      "outputs": [],
      "stateMutability": "payable",
      "type": "function"
    },
    {
      "inputs": [],
      "name": "directory",
      "outputs": [
        {
          "internalType": "contract IJBDirectory",
          "name": "",
          "type": "address"
        }
      ],
      "stateMutability": "view",
      "type": "function"
    },
    {
      "inputs": [
        {
          "internalType": "uint256",
          "name": "_tokenId",
          "type": "uint256"
        }
      ],
      "name": "firstOwnerOf",
      "outputs": [
        {
          "internalType": "address",
          "name": "",
          "type": "address"
        }
      ],
      "stateMutability": "view",
      "type": "function"
    },
    {
      "inputs": [],
      "name": "fundingCycleStore",
      "outputs": [
        {
          "internalType": "contract IJBFundingCycleStore",
          "name": "",
          "type": "address"
        }
      ],
      "stateMutability": "view",
      "type": "function"
    },
    {
      "inputs": [
        {
          "internalType": "uint256",
          "name": "tokenId",
          "type": "uint256"
        }
      ],
      "name": "getApproved",
      "outputs": [
        {
          "internalType": "address",
          "name": "",
          "type": "address"
        }
      ],
      "stateMutability": "view",
      "type": "function"
    },
    {
      "inputs": [
        {
          "internalType": "uint256",
          "name": "_projectId",
          "type": "uint256"
        },
        {
          "internalType": "contract IJBDirectory",
          "name": "_directory",
          "type": "address"
        },
        {
          "internalType": "string",
          "name": "_name",
          "type": "string"
        },
        {
          "internalType": "string",
          "name": "_symbol",
          "type": "string"
        },
        {
          "internalType": "contract IJBFundingCycleStore",
          "name": "_fundingCycleStore",
          "type": "address"
        },
        {
          "internalType": "string",
          "name": "_baseUri",
          "type": "string"
        },
        {
          "internalType": "contract IJBTokenUriResolver",
          "name": "_tokenUriResolver",
          "type": "address"
        },
        {
          "internalType": "string",
          "name": "_contractUri",
          "type": "string"
        },
        {
          "components": [
            {
              "components": [
                {
                  "internalType": "uint80",
                  "name": "contributionFloor",
                  "type": "uint80"
                },
                {
                  "internalType": "uint48",
                  "name": "lockedUntil",
                  "type": "uint48"
                },
                {
                  "internalType": "uint40",
                  "name": "initialQuantity",
                  "type": "uint40"
                },
                {
                  "internalType": "uint16",
                  "name": "votingUnits",
                  "type": "uint16"
                },
                {
                  "internalType": "uint16",
                  "name": "reservedRate",
                  "type": "uint16"
                },
                {
                  "internalType": "address",
                  "name": "reservedTokenBeneficiary",
                  "type": "address"
                },
                {
                  "internalType": "uint8",
                  "name": "royaltyRate",
                  "type": "uint8"
                },
                {
                  "internalType": "address",
                  "name": "royaltyBeneficiary",
                  "type": "address"
                },
                {
                  "internalType": "bytes32",
                  "name": "encodedIPFSUri",
                  "type": "bytes32"
                },
                {
                  "internalType": "uint8",
                  "name": "category",
                  "type": "uint8"
                },
                {
                  "internalType": "bool",
                  "name": "allowManualMint",
                  "type": "bool"
                },
                {
                  "internalType": "bool",
                  "name": "shouldUseReservedTokenBeneficiaryAsDefault",
                  "type": "bool"
                },
                {
                  "internalType": "bool",
                  "name": "shouldUseRoyaltyBeneficiaryAsDefault",
                  "type": "bool"
                },
                {
                  "internalType": "bool",
                  "name": "transfersPausable",
                  "type": "bool"
                }
              ],
              "internalType": "struct JB721TierParams[]",
              "name": "tiers",
              "type": "tuple[]"
            },
            {
              "internalType": "uint256",
              "name": "currency",
              "type": "uint256"
            },
            {
              "internalType": "uint256",
              "name": "decimals",
              "type": "uint256"
            },
            {
              "internalType": "contract IJBPrices",
              "name": "prices",
              "type": "address"
            }
          ],
          "internalType": "struct JB721PricingParams",
          "name": "_pricing",
          "type": "tuple"
        },
        {
          "internalType": "contract IJBTiered721DelegateStore",
          "name": "_store",
          "type": "address"
        },
        {
          "components": [
            {
              "internalType": "bool",
              "name": "lockReservedTokenChanges",
              "type": "bool"
            },
            {
              "internalType": "bool",
              "name": "lockVotingUnitChanges",
              "type": "bool"
            },
            {
              "internalType": "bool",
              "name": "lockManualMintingChanges",
              "type": "bool"
            },
            {
              "internalType": "bool",
              "name": "preventOverspending",
              "type": "bool"
            }
          ],
          "internalType": "struct JBTiered721Flags",
          "name": "_flags",
          "type": "tuple"
        }
      ],
      "name": "initialize",
      "outputs": [],
      "stateMutability": "nonpayable",
      "type": "function"
    },
    {
      "inputs": [
        {
          "internalType": "address",
          "name": "owner",
          "type": "address"
        },
        {
          "internalType": "address",
          "name": "operator",
          "type": "address"
        }
      ],
      "name": "isApprovedForAll",
      "outputs": [
        {
          "internalType": "bool",
          "name": "",
          "type": "bool"
        }
      ],
      "stateMutability": "view",
      "type": "function"
    },
    {
      "inputs": [
        {
          "components": [
            {
              "internalType": "uint16[]",
              "name": "tierIds",
              "type": "uint16[]"
            },
            {
              "internalType": "address",
              "name": "beneficiary",
              "type": "address"
            }
          ],
          "internalType": "struct JBTiered721MintForTiersData[]",
          "name": "_mintForTiersData",
          "type": "tuple[]"
        }
      ],
      "name": "mintFor",
      "outputs": [],
      "stateMutability": "nonpayable",
      "type": "function"
    },
    {
      "inputs": [
        {
          "internalType": "uint16[]",
          "name": "_tierIds",
          "type": "uint16[]"
        },
        {
          "internalType": "address",
          "name": "_beneficiary",
          "type": "address"
        }
      ],
      "name": "mintFor",
      "outputs": [
        {
          "internalType": "uint256[]",
          "name": "tokenIds",
          "type": "uint256[]"
        }
      ],
      "stateMutability": "nonpayable",
      "type": "function"
    },
    {
      "inputs": [
        {
          "components": [
            {
              "internalType": "uint256",
              "name": "tierId",
              "type": "uint256"
            },
            {
              "internalType": "uint256",
              "name": "count",
              "type": "uint256"
            }
          ],
          "internalType": "struct JBTiered721MintReservesForTiersData[]",
          "name": "_mintReservesForTiersData",
          "type": "tuple[]"
        }
      ],
      "name": "mintReservesFor",
      "outputs": [],
      "stateMutability": "nonpayable",
      "type": "function"
    },
    {
      "inputs": [
        {
          "internalType": "uint256",
          "name": "_tierId",
          "type": "uint256"
        },
        {
          "internalType": "uint256",
          "name": "_count",
          "type": "uint256"
        }
      ],
      "name": "mintReservesFor",
      "outputs": [],
      "stateMutability": "nonpayable",
      "type": "function"
    },
    {
      "inputs": [],
      "name": "name",
      "outputs": [
        {
          "internalType": "string",
          "name": "",
          "type": "string"
        }
      ],
      "stateMutability": "view",
      "type": "function"
    },
    {
      "inputs": [],
      "name": "owner",
      "outputs": [
        {
          "internalType": "address",
          "name": "",
          "type": "address"
        }
      ],
      "stateMutability": "view",
      "type": "function"
    },
    {
      "inputs": [
        {
          "internalType": "uint256",
          "name": "tokenId",
          "type": "uint256"
        }
      ],
      "name": "ownerOf",
      "outputs": [
        {
          "internalType": "address",
          "name": "",
          "type": "address"
        }
      ],
      "stateMutability": "view",
      "type": "function"
    },
    {
      "inputs": [
        {
          "components": [
            {
              "internalType": "contract IJBPaymentTerminal",
              "name": "terminal",
              "type": "address"
            },
            {
              "internalType": "address",
              "name": "payer",
              "type": "address"
            },
            {
              "components": [
                {
                  "internalType": "address",
                  "name": "token",
                  "type": "address"
                },
                {
                  "internalType": "uint256",
                  "name": "value",
                  "type": "uint256"
                },
                {
                  "internalType": "uint256",
                  "name": "decimals",
                  "type": "uint256"
                },
                {
                  "internalType": "uint256",
                  "name": "currency",
                  "type": "uint256"
                }
              ],
              "internalType": "struct JBTokenAmount",
              "name": "amount",
              "type": "tuple"
            },
            {
              "internalType": "uint256",
              "name": "projectId",
              "type": "uint256"
            },
            {
              "internalType": "uint256",
              "name": "currentFundingCycleConfiguration",
              "type": "uint256"
            },
            {
              "internalType": "address",
              "name": "beneficiary",
              "type": "address"
            },
            {
              "internalType": "uint256",
              "name": "weight",
              "type": "uint256"
            },
            {
              "internalType": "uint256",
              "name": "reservedRate",
              "type": "uint256"
            },
            {
              "internalType": "string",
              "name": "memo",
              "type": "string"
            },
            {
              "internalType": "bytes",
              "name": "metadata",
              "type": "bytes"
            }
          ],
          "internalType": "struct JBPayParamsData",
          "name": "_data",
          "type": "tuple"
        }
      ],
      "name": "payParams",
      "outputs": [
        {
          "internalType": "uint256",
          "name": "weight",
          "type": "uint256"
        },
        {
          "internalType": "string",
          "name": "memo",
          "type": "string"
        },
        {
          "components": [
            {
              "internalType": "contract IJBPayDelegate",
              "name": "delegate",
              "type": "address"
            },
            {
              "internalType": "uint256",
              "name": "amount",
              "type": "uint256"
            }
          ],
          "internalType": "struct JBPayDelegateAllocation[]",
          "name": "delegateAllocations",
          "type": "tuple[]"
        }
      ],
      "stateMutability": "view",
      "type": "function"
    },
    {
      "inputs": [],
      "name": "prices",
      "outputs": [
        {
          "internalType": "contract IJBPrices",
          "name": "",
          "type": "address"
        }
      ],
      "stateMutability": "view",
      "type": "function"
    },
    {
      "inputs": [],
      "name": "pricingCurrency",
      "outputs": [
        {
          "internalType": "uint256",
          "name": "",
          "type": "uint256"
        }
      ],
      "stateMutability": "view",
      "type": "function"
    },
    {
      "inputs": [],
      "name": "pricingDecimals",
      "outputs": [
        {
          "internalType": "uint256",
          "name": "",
          "type": "uint256"
        }
      ],
      "stateMutability": "view",
      "type": "function"
    },
    {
      "inputs": [],
      "name": "projectId",
      "outputs": [
        {
          "internalType": "uint256",
          "name": "",
          "type": "uint256"
        }
      ],
      "stateMutability": "view",
      "type": "function"
    },
    {
      "inputs": [
        {
          "components": [
            {
              "internalType": "contract IJBPaymentTerminal",
              "name": "terminal",
              "type": "address"
            },
            {
              "internalType": "address",
              "name": "holder",
              "type": "address"
            },
            {
              "internalType": "uint256",
              "name": "projectId",
              "type": "uint256"
            },
            {
              "internalType": "uint256",
              "name": "currentFundingCycleConfiguration",
              "type": "uint256"
            },
            {
              "internalType": "uint256",
              "name": "tokenCount",
              "type": "uint256"
            },
            {
              "internalType": "uint256",
              "name": "totalSupply",
              "type": "uint256"
            },
            {
              "internalType": "uint256",
              "name": "overflow",
              "type": "uint256"
            },
            {
              "components": [
                {
                  "internalType": "address",
                  "name": "token",
                  "type": "address"
                },
                {
                  "internalType": "uint256",
                  "name": "value",
                  "type": "uint256"
                },
                {
                  "internalType": "uint256",
                  "name": "decimals",
                  "type": "uint256"
                },
                {
                  "internalType": "uint256",
                  "name": "currency",
                  "type": "uint256"
                }
              ],
              "internalType": "struct JBTokenAmount",
              "name": "reclaimAmount",
              "type": "tuple"
            },
            {
              "internalType": "bool",
              "name": "useTotalOverflow",
              "type": "bool"
            },
            {
              "internalType": "uint256",
              "name": "redemptionRate",
              "type": "uint256"
            },
            {
              "internalType": "string",
              "name": "memo",
              "type": "string"
            },
            {
              "internalType": "bytes",
              "name": "metadata",
              "type": "bytes"
            }
          ],
          "internalType": "struct JBRedeemParamsData",
          "name": "_data",
          "type": "tuple"
        }
      ],
      "name": "redeemParams",
      "outputs": [
        {
          "internalType": "uint256",
          "name": "reclaimAmount",
          "type": "uint256"
        },
        {
          "internalType": "string",
          "name": "memo",
          "type": "string"
        },
        {
          "components": [
            {
              "internalType": "contract IJBRedemptionDelegate",
              "name": "delegate",
              "type": "address"
            },
            {
              "internalType": "uint256",
              "name": "amount",
              "type": "uint256"
            }
          ],
          "internalType": "struct JBRedemptionDelegateAllocation[]",
          "name": "delegateAllocations",
          "type": "tuple[]"
        }
      ],
      "stateMutability": "view",
      "type": "function"
    },
    {
      "inputs": [
        {
          "internalType": "uint256[]",
          "name": "_tokenIds",
          "type": "uint256[]"
        },
        {
          "components": [
            {
              "internalType": "contract IJBPaymentTerminal",
              "name": "terminal",
              "type": "address"
            },
            {
              "internalType": "address",
              "name": "holder",
              "type": "address"
            },
            {
              "internalType": "uint256",
              "name": "projectId",
              "type": "uint256"
            },
            {
              "internalType": "uint256",
              "name": "currentFundingCycleConfiguration",
              "type": "uint256"
            },
            {
              "internalType": "uint256",
              "name": "tokenCount",
              "type": "uint256"
            },
            {
              "internalType": "uint256",
              "name": "totalSupply",
              "type": "uint256"
            },
            {
              "internalType": "uint256",
              "name": "overflow",
              "type": "uint256"
            },
            {
              "components": [
                {
                  "internalType": "address",
                  "name": "token",
                  "type": "address"
                },
                {
                  "internalType": "uint256",
                  "name": "value",
                  "type": "uint256"
                },
                {
                  "internalType": "uint256",
                  "name": "decimals",
                  "type": "uint256"
                },
                {
                  "internalType": "uint256",
                  "name": "currency",
                  "type": "uint256"
                }
              ],
              "internalType": "struct JBTokenAmount",
              "name": "reclaimAmount",
              "type": "tuple"
            },
            {
              "internalType": "bool",
              "name": "useTotalOverflow",
              "type": "bool"
            },
            {
              "internalType": "uint256",
              "name": "redemptionRate",
              "type": "uint256"
            },
            {
              "internalType": "string",
              "name": "memo",
              "type": "string"
            },
            {
              "internalType": "bytes",
              "name": "metadata",
              "type": "bytes"
            }
          ],
          "internalType": "struct JBRedeemParamsData",
          "name": "",
          "type": "tuple"
        }
      ],
      "name": "redemptionWeightOf",
      "outputs": [
        {
          "internalType": "uint256",
          "name": "",
          "type": "uint256"
        }
      ],
      "stateMutability": "view",
      "type": "function"
    },
    {
      "inputs": [],
      "name": "renounceOwnership",
      "outputs": [],
      "stateMutability": "nonpayable",
      "type": "function"
    },
    {
      "inputs": [
        {
          "internalType": "uint256",
          "name": "_tokenId",
          "type": "uint256"
        },
        {
          "internalType": "uint256",
          "name": "_salePrice",
          "type": "uint256"
        }
      ],
      "name": "royaltyInfo",
      "outputs": [
        {
          "internalType": "address",
          "name": "",
          "type": "address"
        },
        {
          "internalType": "uint256",
          "name": "",
          "type": "uint256"
        }
      ],
      "stateMutability": "view",
      "type": "function"
    },
    {
      "inputs": [
        {
          "internalType": "address",
          "name": "from",
          "type": "address"
        },
        {
          "internalType": "address",
          "name": "to",
          "type": "address"
        },
        {
          "internalType": "uint256",
          "name": "tokenId",
          "type": "uint256"
        }
      ],
      "name": "safeTransferFrom",
      "outputs": [],
      "stateMutability": "nonpayable",
      "type": "function"
    },
    {
      "inputs": [
        {
          "internalType": "address",
          "name": "from",
          "type": "address"
        },
        {
          "internalType": "address",
          "name": "to",
          "type": "address"
        },
        {
          "internalType": "uint256",
          "name": "tokenId",
          "type": "uint256"
        },
        {
          "internalType": "bytes",
          "name": "data",
          "type": "bytes"
        }
      ],
      "name": "safeTransferFrom",
      "outputs": [],
      "stateMutability": "nonpayable",
      "type": "function"
    },
    {
      "inputs": [
        {
          "internalType": "address",
          "name": "operator",
          "type": "address"
        },
        {
          "internalType": "bool",
          "name": "approved",
          "type": "bool"
        }
      ],
      "name": "setApprovalForAll",
      "outputs": [],
      "stateMutability": "nonpayable",
      "type": "function"
    },
    {
      "inputs": [
        {
          "internalType": "string",
          "name": "_baseUri",
          "type": "string"
        }
      ],
      "name": "setBaseUri",
      "outputs": [],
      "stateMutability": "nonpayable",
      "type": "function"
    },
    {
      "inputs": [
        {
          "internalType": "string",
          "name": "_contractUri",
          "type": "string"
        }
      ],
      "name": "setContractUri",
      "outputs": [],
      "stateMutability": "nonpayable",
      "type": "function"
    },
    {
      "inputs": [
        {
          "internalType": "address",
          "name": "_beneficiary",
          "type": "address"
        }
      ],
      "name": "setDefaultReservedTokenBeneficiary",
      "outputs": [],
      "stateMutability": "nonpayable",
      "type": "function"
    },
    {
      "inputs": [
        {
          "internalType": "uint256",
          "name": "_tierId",
          "type": "uint256"
        },
        {
          "internalType": "bytes32",
          "name": "_encodedIPFSUri",
          "type": "bytes32"
        }
      ],
      "name": "setEncodedIPFSUriOf",
      "outputs": [],
      "stateMutability": "nonpayable",
      "type": "function"
    },
    {
      "inputs": [
        {
          "internalType": "contract IJBTokenUriResolver",
          "name": "_tokenUriResolver",
          "type": "address"
        }
      ],
      "name": "setTokenUriResolver",
      "outputs": [],
      "stateMutability": "nonpayable",
      "type": "function"
    },
    {
      "inputs": [],
      "name": "store",
      "outputs": [
        {
          "internalType": "contract IJBTiered721DelegateStore",
          "name": "",
          "type": "address"
        }
      ],
      "stateMutability": "view",
      "type": "function"
    },
    {
      "inputs": [
        {
          "internalType": "bytes4",
          "name": "_interfaceId",
          "type": "bytes4"
        }
      ],
      "name": "supportsInterface",
      "outputs": [
        {
          "internalType": "bool",
          "name": "",
          "type": "bool"
        }
      ],
      "stateMutability": "view",
      "type": "function"
    },
    {
      "inputs": [],
      "name": "symbol",
      "outputs": [
        {
          "internalType": "string",
          "name": "",
          "type": "string"
        }
      ],
      "stateMutability": "view",
      "type": "function"
    },
    {
      "inputs": [
        {
          "internalType": "uint256",
          "name": "_tokenId",
          "type": "uint256"
        }
      ],
      "name": "tokenURI",
      "outputs": [
        {
          "internalType": "string",
          "name": "",
          "type": "string"
        }
      ],
      "stateMutability": "view",
      "type": "function"
    },
    {
      "inputs": [
        {
          "components": [
            {
              "internalType": "contract IJBPaymentTerminal",
              "name": "terminal",
              "type": "address"
            },
            {
              "internalType": "address",
              "name": "holder",
              "type": "address"
            },
            {
              "internalType": "uint256",
              "name": "projectId",
              "type": "uint256"
            },
            {
              "internalType": "uint256",
              "name": "currentFundingCycleConfiguration",
              "type": "uint256"
            },
            {
              "internalType": "uint256",
              "name": "tokenCount",
              "type": "uint256"
            },
            {
              "internalType": "uint256",
              "name": "totalSupply",
              "type": "uint256"
            },
            {
              "internalType": "uint256",
              "name": "overflow",
              "type": "uint256"
            },
            {
              "components": [
                {
                  "internalType": "address",
                  "name": "token",
                  "type": "address"
                },
                {
                  "internalType": "uint256",
                  "name": "value",
                  "type": "uint256"
                },
                {
                  "internalType": "uint256",
                  "name": "decimals",
                  "type": "uint256"
                },
                {
                  "internalType": "uint256",
                  "name": "currency",
                  "type": "uint256"
                }
              ],
              "internalType": "struct JBTokenAmount",
              "name": "reclaimAmount",
              "type": "tuple"
            },
            {
              "internalType": "bool",
              "name": "useTotalOverflow",
              "type": "bool"
            },
            {
              "internalType": "uint256",
              "name": "redemptionRate",
              "type": "uint256"
            },
            {
              "internalType": "string",
              "name": "memo",
              "type": "string"
            },
            {
              "internalType": "bytes",
              "name": "metadata",
              "type": "bytes"
            }
          ],
          "internalType": "struct JBRedeemParamsData",
          "name": "",
          "type": "tuple"
        }
      ],
      "name": "totalRedemptionWeight",
      "outputs": [
        {
          "internalType": "uint256",
          "name": "",
          "type": "uint256"
        }
      ],
      "stateMutability": "view",
      "type": "function"
    },
    {
      "inputs": [
        {
          "internalType": "address",
          "name": "from",
          "type": "address"
        },
        {
          "internalType": "address",
          "name": "to",
          "type": "address"
        },
        {
          "internalType": "uint256",
          "name": "tokenId",
          "type": "uint256"
        }
      ],
      "name": "transferFrom",
      "outputs": [],
      "stateMutability": "nonpayable",
      "type": "function"
    },
    {
      "inputs": [
        {
          "internalType": "address",
          "name": "newOwner",
          "type": "address"
        }
      ],
      "name": "transferOwnership",
      "outputs": [],
      "stateMutability": "nonpayable",
      "type": "function"
    }
  ],
  "bytecode": {
    "object": "0x608080604052346100655760078054336001600160a01b03198083168217909355906001600160a01b03167f8be0079c531659141344cd1fd0a4f28419497f9722a3daafe3b4186f6b6457e0600080a33090600854161760085561471d908161006b8239f35b600080fdfe608080604052600436101561001357600080fd5b600090813560e01c90816301ffc9a71461240e5750806306fdde031461238a578063081812fc1461236b578063095ea7b3146122b05780631d153ca41461228757806323b872dd1461224d5780632407497e146121a9578063245a45b51461217057806325eb91ee14611f325780632a55205a14611e755780632a596e5314611dd75780632b13c58f1461191857806336c1a93b146118715780633fafa1271461185357806342842e0e1461182b5780634ecba6251461180d578063525350ba1461176057806354c6d1f514611741578063557e7155146117185780636352211e146116e757806364640c1e146116c95780636ac6d9411461167057806370a08231146115d2578063715018a6146115865780637ba62bf91461152e5780638da5cb5b146115055780639494bf72146114e357806395d89b4114611436578063975057e71461140d578063a0bcfc7f1461135b578063a22cb465146112bc578063a51cfd181461123d578063aa4fb15b14611225578063b88d4fde146111c5578063c41c2f241461119c578063c87b56dd14611168578063ccb4807b146110b6578063d1704baf14610698578063d3419bf31461066f578063d46cf17114610547578063da9ee8b714610440578063df487e261461038d578063e8a3d485146102f7578063e985e9c5146102a35763f2fde38b1461021057600080fd5b346102a05760203660031901126102a05761022961256c565b610231614456565b6001600160a01b0381161561024c57610249906144ae565b80f35b60405162461bcd60e51b815260206004820152602660248201527f4f776e61626c653a206e6577206f776e657220697320746865207a65726f206160448201526564647265737360d01b6064820152608490fd5b80fd5b50346102a05760403660031901126102a0576102bd61256c565b60406102c7612582565b9260018060a01b0380931681526004602052209116600052602052602060ff604060002054166040519015158152f35b50346102a057806003193601126102a057600954604051630155619b60e71b8152306004820152908290829060249082906001600160a01b03165afa908115610382578261035b939261035f575b5050604051918291602083526020830190612547565b0390f35b61037b92503d8091833e6103738183612759565b8101906129c0565b3880610345565b6040513d84823e3d90fd5b50346102a05760203660031901126102a0576103a761256c565b6103af614456565b6009546001600160a01b0390811691839190833b1561043c5782916024839260405194859384926317161f7d60e01b845216978860048401525af1801561038257610424575b50507fab0014d4c7a642a02a31b303a318908c22b0fb2001f107278fc6076b4c671b656020604051338152a280f35b61042d906126a8565b6104385781386103f5565b5080fd5b8280fd5b5060031960203682011261043857600435906001600160401b03821161043c57610200908236030112610438576005543415908115916104b4575b81156104a5575b506104935761024990600401613c6d565b6040516331c57b1b60e21b8152600490fd5b90506024820135141538610482565b600654604051636e49181f60e01b815291925060209082906001600160a01b031681806104e53388600484016135ef565b03915afa90811561053c5784916104ff575b50159061047b565b90506020813d8211610534575b8161051960209383612759565b810103126105305761052a9061351e565b386104f7565b8380fd5b3d915061050c565b6040513d86823e3d90fd5b50346102a0576003196020368201811361043c57600435916001600160401b038311610530576101a090833603011261043c579161059661058f610164840184600401613a66565b3691612863565b90604051936105a4856126d1565b600192838652825b82811061064557506105fb906040516105c4816126d1565b30815284848201526105d588612eb5565b526105df87612eb5565b5061012460405196013586526060838701526060860190612547565b9084820360408601528080875193848152019601925b82811061061e5785870386f35b835180516001600160a01b0316885282015182880152604090960195928101928401610611565b8290604097959751610656816126d1565b60008152600083820152828288010152019593956105ac565b50346102a057806003193601126102a057600b546040516001600160a01b039091168152602090f35b50346102a057600319906101c0368301126102a0576024356001600160a01b0381168103610438576044356001600160401b03811161043c576106df90369060040161289a565b926064356001600160401b038111610530576106ff90369060040161289a565b91608435916001600160a01b0383168303610d3d5760a4356001600160401b038111610dba5761073390369060040161289a565b60c435926001600160a01b0384168403610f885760e4356001600160401b038111610f915761076690369060040161289a565b926001600160401b036101043511610f915760809061010435360301126110b25760405194610794866126ec565b60046101043501356001600160401b038111610f8d57366023826101043501011215610f8d5760048161010435010135906107ce8261277c565b916107dc6040519384612759565b80835260208301913660246101c084028361010435010101116110ae57602481610104350101925b60246101c0840283610104350101018410610f955750505090875250610104356024810135602088015260448101356040880152606401356001600160a01b0381169003610f91576101043560640135606087015261012435966001600160a01b0388168803610f8d57608036610143190112610f8d57604051996108888b6126ec565b610144358015158103610f88578b526101643515156101643503610f88576101643560208c01526101843515156101843503610f88576101843560408c01526101a43515156101a43503610f88576101a43560608c01526008546001600160a01b03163014610f84576009546001600160a01b0316610f84578051906001600160401b038211610f7057819061091e8c546132f1565b601f8111610f21575b50602090601f8311600114610eb8578c92610ead575b50508160011b916000199060031b1c19161789555b8051906001600160401b038211610e995781906109706001546132f1565b601f8111610e3f575b50602090601f8311600114610dc9578b92610dbe575b50508160011b916000199060031b1c1916176001555b600435600555600680546001600160a01b03199081166001600160a01b0394851617909155600a80548216928416929092179091556009805482168884161790556020860151600c556040860151600d556060860151600b805490921692169190911790558051610d41575b508051610cc4575b506001600160a01b038116610c5f575b5051928351610b0b575b829350805115801590610afe575b8015610af1575b8015610ae4575b610a5e575b82610249336144ae565b6001600160a01b0382163b15610ae0576060608484928360405195869485936365c13f1960e11b855280511515600486015260208101511515602486015260408101511515604486015201511515606484015260018060a01b03165af1801561038257610acc575b80610a54565b610ad5906126a8565b6102a0578038610ac6565b5050fd5b5060608101511515610a4f565b5060408101511515610a48565b5060208101511515610a41565b60405163229dad5f60e11b815260248101602060048301528551809152602060448301960190855b818110610b8357505050838180829703818360018060a01b0388165af1801561053c57610b61575b50610a33565b610b7c903d8086833e610b748183612759565b810190612d37565b5038610b5b565b90919660206101c06001928a51848060501b03815116825265ffffffffffff84820151168483015264ffffffffff604082015116604083015261ffff806060830151166060840152608082015116608083015260a0858060a01b0381830151169083015260ff60c081818401511690840152858060a01b0360e08301511660e08401526101008083015190840152610120908183015116908301526101408082015115159083015261016080820151151590830152610180808201511515908301526101a0809101511515908201520198019101919091610b33565b6001600160a01b0383163b156105305760405163036129cb60e61b81526001600160a01b03918216600482015290849082906024908290849088165af1801561053c57908491610cb0575b50610a29565b610cb9906126a8565b61043c578238610caa565b6001600160a01b0384163b15610d3d5784610cfb916040518093819263d67b78fd60e01b8352602060048401526024830190612547565b0381836001600160a01b0389165af18015610d3257908591610d1e575b50610a19565b610d27906126a8565b610530578338610d18565b6040513d87823e3d90fd5b8480fd5b6001600160a01b0385163b15610dba5785610d7891604051809381926331315e5960e11b8352602060048401526024830190612547565b0381836001600160a01b038a165af18015610daf57908691610d9b575b50610a11565b610da4906126a8565b610d3d578438610d95565b6040513d88823e3d90fd5b8580fd5b01519050388061098f565b60018c528b93506000805160206146a883398151915291905b601f1984168510610e24576001945083601f19811610610e0b575b505050811b016001556109a5565b015160001960f88460031b161c19169055388080610dfd565b81810151835560209485019460019093019290910190610de2565b60018c529091506000805160206146a8833981519152601f840160051c810160208510610e92575b90849392915b8d601f840160051c83018210610e8557505050610979565b8155859450600101610e6d565b5080610e67565b634e487b7160e01b8a52604160045260248afd5b01519050388061093d565b92508b805260208c20908c935b601f1984168510610f06576001945083601f19811610610eed575b505050811b018955610952565b015160001960f88460031b161c19169055388080610ee0565b81810151835560209485019460019093019290910190610ec5565b9091508b805260208c20601f840160051c810160208510610f69575b84939291908e5b601f840160051c83018210610f5b57505050610927565b81558594506001018e610f44565b5080610f3d565b634e487b7160e01b8b52604160045260248bfd5b8980fd5b600080fd5b8880fd5b8780fd5b6101c0843603126110aa57906101c0806020602494604051610fb681612707565b610fbf896128b8565b8152610fcc838a016128cc565b83820152610fdc60408a016128df565b60408201526060610fee818b016128f1565b90820152610ffe60808a016128f1565b608082015260a0611010818b01612598565b9082015260c0611021818b01612900565b9082015261103160e08a01612598565b60e0820152610100808a01359082015261012061104f818b01612900565b90820152610140611061818b0161283b565b90820152610160611073818b0161283b565b90820152610180611085818b0161283b565b908201526101a0611097818b0161283b565b9082015281520195019491925050610804565b8c80fd5b8b80fd5b8680fd5b50346102a0576110c5366127f1565b906110ce614456565b60095483906001600160a01b0316803b156104385781604051809263d67b78fd60e01b82528183816111048a8a60048401612ed6565b03925af1801561038257611154575b50508160405192839283378101600081520390207fd36dc0c1a06103fdcaf15f3f6fb797d1a97997514c78de073640c8b5005454b86020604051338152a280f35b61115d906126a8565b61043c578238611113565b50346102a05760203660031901126102a05761035b611188600435612a1e565b604051918291602083526020830190612547565b50346102a057806003193601126102a0576006546040516001600160a01b039091168152602090f35b50346102a05760803660031901126102a0576111df61256c565b6111e7612582565b606435916001600160401b03831161053057366023840112156105305761121b610249933690602481600401359101612863565b9160443591613354565b50346102a05761024961123736612611565b90612f8e565b50346102a05761125461124f36612642565b613af3565b906040519283526112716020916060838601526060850190612547565b9083820360408501528080845193848152019301945b8281106112945784840385f35b855180516001600160a01b031685528201518483015294810194604090930192600101611287565b50346102a05760403660031901126102a0576112d661256c565b60243590811515809203610f88576001600160a01b0316903382146113495733835260046020526040832082600052602052604060002060ff1981541660ff83161790556040519081527f17307eab39ab6107e8899845ad3d59bd9653f200f220920489ca2b5937696c3160203392a380f35b6040516306f8139d60e11b8152600490fd5b50346102a05761136a366127f1565b90611373614456565b60095483906001600160a01b0316803b15610438578160405180926331315e5960e11b82528183816113a98a8a60048401612ed6565b03925af18015610382576113f9575b50508160405192839283378101600081520390207f7bc9110d5de090dd59e07912d2b93a5a27ac70a60c8d8e324db4f9ee8b8b5c136020604051338152a280f35b611402906126a8565b61043c5782386113b8565b50346102a057806003193601126102a0576009546040516001600160a01b039091168152602090f35b50346102a057806003193601126102a057604051816001805490611459826132f1565b808552918181169081156114bb5750600114611480575b61035b8461118881880382612759565b80945082526020938483205b8284106114a8575050508161035b936111889282010193611470565b805485850187015292850192810161148c565b61035b96506111889450602092508593915060ff191682840152151560051b82010193611470565b50346102a0576114f236612642565b5060206114fd612c9b565b604051908152f35b50346102a057806003193601126102a0576007546040516001600160a01b039091168152602090f35b50346102a057600319906040368301126102a0576001600160401b039160043583811161043c57611563903690600401612793565b9260243590811161043c57906101e091360301126102a05760206114fd83612c1d565b50346102a057806003193601126102a05761159f614456565b600780546001600160a01b031981169091556000906001600160a01b03166000805160206146688339815191528280a380f35b50346102a057602090816003193601126102a0576115ee61256c565b600954604051633de222bb60e21b81523060048201526001600160a01b03928316602482015291849183916044918391165afa9182156116645791611637575b50604051908152f35b90508181813d831161165d575b61164e8183612759565b81010312610f8857513861162e565b503d611644565b604051903d90823e3d90fd5b50346102a05760403660031901126102a057600435906001600160401b0382116102a05761035b6116b56116a736600486016125e1565b6116af612582565b9161315f565b604051918291602083526020830190612674565b50346102a057806003193601126102a0576020600c54604051908152f35b50346102a05760203660031901126102a05760206117066004356132be565b6040516001600160a01b039091168152f35b50346102a057806003193601126102a057600a546040516001600160a01b039091168152602090f35b50346102a05760203660031901126102a0576020611706600435612922565b50346102a05760403660031901126102a057600435602435611780614456565b60095483906001600160a01b0316803b15610438578180916044604051809481936324de8d6360e11b83528960048401528860248401525af18015610382576117f9575b505060407f677da4fed654db8e604791fa2582f342e2001aa217e27f6985eb3e0f67e5a7fc918151908152336020820152a280f35b611802906126a8565b61043c5782386117c4565b50346102a057806003193601126102a0576020600d54604051908152f35b50346102a05761024961183d366125ac565b906040519261184b84612723565b858452613354565b50346102a057806003193601126102a0576020600554604051908152f35b50346102a057602080600319360112610438576001600160401b03600435818111610530576118a49036906004016125e1565b9190926118af614456565b845b8381106118bc578580f35b60059080821b860135603e1987360301811215610f915786018035601e1982360301811215610f8d57810192833593868511610f845785859101911b36038113610f8d576001936116af866119119401612d5c565b50016118b1565b5061192236612642565b903415801590611d4e575b8015611d3e575b611d2c576101c08083016119488185613a66565b91905060248092108015611cfe575b611cec576119686119709186613a66565b810190613a98565b93915050825190845b8281106119e857600954869081906001600160a01b03168688823b156119e3576119c2928492836040518096819582946386bc2be360e01b845260206004850152830190612674565b03925af18015610382576119d35750f35b6119dc906126a8565b6102a05780f35b505050fd5b6119f28186612ec2565b519081875260206002815260018060a01b03908160408a20541682611a168c612d5c565b1603611cda5784611a26856132be565b928084169384611b31575b506002611a8c93611a418861390a565b878d525260408b2080546001600160a01b0319169055858b856000805160206146888339815191528280a460095416946040518093819263b67cb04760e01b83523060048401612627565b0381875afa908115611af857600091611b04575b505190833b15610f885760646000928360405196879485936330b157e560e21b855260048501528b8401528160448401525af1918215611af857600192611ae9575b5001611979565b611af2906126a8565b38611ae2565b6040513d6000823e3d90fd5b611b249150853d8711611b2a575b611b1c8183612759565b81019061352b565b38611aa0565b503d611b12565b60095460405163b67cb04760e01b81529083169350888180611b578b3060048401612627565b0381875afa8015611af8576101a091600091611cbd575b500151611c56575b6040516308ed6c0160e41b815292848480611b958b3060048401612627565b0381845afa8015611af8578994600091611c18575b50831615611bb9575b50611a31565b809193503b15610f8857604051638cec7d3960e01b8152926000918491829084908290611bea908d600484016135ef565b03925af18015611af857611a8c938893600292611c09575b5093611bb3565b611c12906126a8565b38611c02565b91929394508582813d8311611c4f575b611c328183612759565b810103126102a057509083611c498a95949361290e565b90611baa565b503d611c28565b81600a54166005546040519182916321d1336160e11b83526004830152818d6101209485935afa8015611af857611c8f575b5050611b76565b81611cae92903d10611cb6575b611ca68183612759565b810190612efe565b503880611c88565b503d611c9c565b611cd491508a3d8c11611b2a57611b1c8183612759565b38611b6e565b60405163075fd2b160e01b8152600490fd5b604051632a84050f60e01b8152600490fd5b50611d098186613a66565b8311610d3d57602001356001600160e01b03191663b3bcbb7960e01b1415611957565b604051633efca5c360e11b8152600490fd5b5060055460208301351415611934565b50600654600554604051636e49181f60e01b81529160209183916001600160a01b03169082908190611d85903390600484016135ef565b03915afa908115610382578291611d9e575b501561192d565b90506020813d8211611dcf575b81611db860209383612759565b8101031261043857611dc99061351e565b38611d97565b3d9150611dab565b50346102a057602080600319360112610438576001600160401b036004358181116105305736602382011215610530578060040135918211610530576024906006368385831b84010111610dba57855b848110611e32578680f35b80821b83019060406023198336030112610f9157611e6f87600193604051611e59816126d1565b6044898301359283835201359283910152612f8e565b01611e27565b50346102a057604090611e8736612611565b60095484516329c5eaf560e11b815230600482015260248101939093526044830191909152909290839060649082906001600160a01b03165afa918215611f2557818093611ee1575b505061035b60405192839283612627565b915091506040823d604011611f1d575b81611efe60409383612759565b810103126102a057506020611f128261290e565b910151903880611ed0565b3d9150611ef1565b50604051903d90823e3d90fd5b50346102a05760403660031901126102a0576001600160401b0360043581811161043c573660238201121561043c57806004013591808311610530576024906101c090368383870286010111610dba578235908111610dba57611f999036906004016125e1565b611fa1614456565b806120a6575b505083611fb2578480f35b60095460405163229dad5f60e11b81526020600482015283810186905290869082906001600160a01b031660448201878701845b878b8210612082575050508383809203925af1908115610daf578691612068575b50855b8581106120175750508480f35b8061202460019284612ec2565b517f8aa4a03deb8db10032373886aa0376c918ccf36bcdb59ca4da2a807ac7ff1a046101e060405161205c818a8a88028d0101612d96565b3388820152a20161200a565b61207c91503d8088833e610b748183612759565b38612007565b919450929450808261209660019487612d96565b0193019101918993918593611fe6565b6009546001600160a01b031690813b15610f91576040516320512ba160e01b8152602060048201819052868201839052928991906001600160fb1b03841161043c5781839181836044828960051b808d8484013781010301925af180156103825761215c575b5050875b81811061211e575050611fa7565b8061212c6001928487612d70565b357f832d89d991be5351d793c20faf4b7dd44f8aa9ce39e3cb160c6317de6fbba72985604051338152a201612110565b612165906126a8565b610f9157873861210c565b50346102a05760203660031901126102a0576020906040906001600160a01b0361219861256c565b168152600e83522054604051908152f35b50346102a05760203660031901126102a0576121c361256c565b906121cc614456565b6009546001600160a01b0390811692833b1561043c57829160248392604051948593849263036129cb60e61b845216978860048401525af180156103825761223e575b50907fe7784d93cfbfa4408e19577e6cc0436f4dbb51214b70e100905dfce9def88c166020604051338152a280f35b612247906126a8565b3861220f565b50346102a05761225c366125ac565b906122678233613393565b156122755761024992613625565b60405163e5fa0e3560e01b8152600490fd5b50346102a057806003193601126102a0576008546040516001600160a01b039091168152602090f35b50346102a05760403660031901126102a0576122ca61256c565b602435906001600160a01b0380806122e1856132be565b1692169180831461235957803314159081612337575b506122755782845260036020526040842080546001600160a01b03191683179055612321836132be565b166000805160206146c88339815191528480a480f35b9050845260046020526040842033855260205260ff60408520541615386122f7565b60405163133f8be960e01b8152600490fd5b50346102a05760203660031901126102a057602061170660043561332b565b50346102a057806003193601126102a0576040518180546123aa816132f1565b808452906001908181169081156114bb57506001146123d35761035b8461118881880382612759565b93508180526020938483205b8284106123fb575050508161035b936111889282010193611470565b80548585018701529285019281016123df565b9050346104385760203660031901126104385760043563ffffffff60e01b811680910361043c57602092506306decc2d60e21b8114908115612452575b5015158152f35b63b3bcbb7960e01b8114915081156124fe575b81156124ed575b81156124dc575b81156124cb575b8115612488575b503861244b565b6380ac58cd60e01b8114915081156124ba575b81156124a9575b5038612481565b6301ffc9a760e01b149050386124a2565b635b5e139f60e01b8114915061249b565b63152a902d60e11b8114915061247a565b632b13c58f60e01b81149150612473565b63da9ee8b760e01b8114915061246c565b6371700c6960e01b81149150612465565b35906001600160e01b031982168203610f8857565b60005b8381106125375750506000910152565b8181015183820152602001612527565b9060209161256081518092818552858086019101612524565b601f01601f1916010190565b600435906001600160a01b0382168203610f8857565b602435906001600160a01b0382168203610f8857565b35906001600160a01b0382168203610f8857565b6060906003190112610f88576001600160a01b03906004358281168103610f8857916024359081168103610f88579060443590565b9181601f84011215610f88578235916001600160401b038311610f88576020808501948460051b010111610f8857565b6040906003190112610f88576004359060243590565b6001600160a01b039091168152602081019190915260400190565b60031990602081830112610f8857600435916001600160401b038311610f8857826101e092030112610f885760040190565b90815180825260208080930193019160005b828110612694575050505090565b835185529381019392810192600101612686565b6001600160401b0381116126bb57604052565b634e487b7160e01b600052604160045260246000fd5b604081019081106001600160401b038211176126bb57604052565b608081019081106001600160401b038211176126bb57604052565b6101c081019081106001600160401b038211176126bb57604052565b602081019081106001600160401b038211176126bb57604052565b606081019081106001600160401b038211176126bb57604052565b601f909101601f19168101906001600160401b038211908210176126bb57604052565b6001600160401b0381116126bb5760051b60200190565b81601f82011215610f88578035916127aa8361277c565b926127b86040519485612759565b808452602092838086019260051b820101928311610f88578301905b8282106127e2575050505090565b813581529083019083016127d4565b906020600319830112610f88576001600160401b039160043590838211610f885780602383011215610f88578160040135938411610f885760248483010111610f88576024019190565b35908115158203610f8857565b6001600160401b0381116126bb57601f01601f191660200190565b92919261286f82612848565b9161287d6040519384612759565b829481845281830111610f88578281602093846000960137010152565b9080601f83011215610f88578160206128b593359101612863565b90565b35906001600160501b0382168203610f8857565b359065ffffffffffff82168203610f8857565b359064ffffffffff82168203610f8857565b359061ffff82168203610f8857565b359060ff82168203610f8857565b51906001600160a01b0382168203610f8857565b6009546040516308ed6c0160e41b81526001600160a01b039291602090829085168180612953873060048401612627565b03915afa908115611af857600091612987575b50828116612981575060005260026020526040600020541690565b91505090565b906020823d82116129b8575b816129a060209383612759565b810103126102a057506129b29061290e565b38612966565b3d9150612993565b602081830312610f88578051906001600160401b038211610f88570181601f82011215610f885780516129f281612848565b92612a006040519485612759565b81845260208284010111610f88576128b59160208085019101612524565b60095460408051630fab094760e01b815230600482015290926020926001600160a01b03908116928481602481875afa908115612c1257600091612bdc575b501680612b8d5750835163f682eeaf60e01b815230600482015290600082602481865afa918215612b8257908491600093612b65575b50612ab4929386518080958194630c8df17160e41b83523060048401612627565b03915afa908115612b5a57600091612b2b575b5090612af46128b59392855190609160f51b85830152602282015260228152612aef8161273e565b6141fa565b93519381612b0b8693518092868087019101612524565b8201612b1f82518093868085019101612524565b01038084520182612759565b908382813d8311612b53575b612b418183612759565b810103126102a0575051612af4612ac7565b503d612b37565b84513d6000823e3d90fd5b612b7c90612ab4943d8091833e6103738183612759565b92612a93565b85513d6000823e3d90fd5b9250600091506024845180948193636d02a25560e11b835260048301525afa918215612bd25750600091612bbf575090565b6128b5913d8091833e6103738183612759565b513d6000823e3d90fd5b8581813d8311612c0b575b612bf18183612759565b8101031261043857519082821682036102a0575038612a5d565b503d612be7565b86513d6000823e3d90fd5b6020612c579160018060a01b0360095416604051808095819463051330b560e21b8352306004840152604060248401526044830190612674565b03915afa908115611af857600091612c6d575090565b906020823d8211612c93575b81612c8660209383612759565b810103126102a057505190565b3d9150612c79565b600954604051631572f24960e11b815230600482015290602090829060249082906001600160a01b03165afa908115611af857600091612c6d575090565b81601f82011215610f8857805191612cf08361277c565b92612cfe6040519485612759565b808452602092838086019260051b820101928311610f88578301905b828210612d28575050505090565b81518152908301908301612d1a565b90602082820312610f885781516001600160401b038111610f88576128b59201612cd9565b356001600160a01b0381168103610f885790565b9190811015612d805760051b0190565b634e487b7160e01b600052603260045260246000fd5b6001600160501b03612da7826128b8565b16825265ffffffffffff612dbd602083016128cc565b16602083015264ffffffffff612dd5604083016128df565b16604083015261ffff80612deb606084016128f1565b166060840152612dfd608083016128f1565b1660808301526001600160a01b0380612e1860a08401612598565b1660a084015260ff612e2c60c08401612900565b1660c0840152612e3e60e08301612598565b1660e0830152610100808201359083015261012060ff612e5f828401612900565b1690830152610140612e7281830161283b565b151590830152610160612e8681830161283b565b151590830152610180612e9a81830161283b565b151590830152612eae6101a080920161283b565b1515910152565b805115612d805760200190565b8051821015612d805760209160051b010190565b90918060409360208452816020850152848401376000828201840152601f01601f1916010190565b80916101209283910312610f88576040519182016001600160401b038111838210176126bb57604052805182526020810151602083015260408101516040830152606081015160608301526080810151608083015260a081015160a083015260c081015160c083015260e081015160018060a01b0381168103610f885760e0830152610100809101519082015290565b600a54600554604080516321d1336160e11b815260048101929092526101209594939290916001600160a01b039187908290602490829086165afa908115613154576101009697600092613137575b5050600180968192015160f51c16146131265790816000809493600954166044845180978193635d53f40760e11b83528860048401528a60248401525af193841561311b57600094613100575b5060095482516304db994760e21b8152946020929183908790841681806130558a3060048401612627565b03915afa958615612b5a576000966130c9575b5060005b87811061307e57505050505050505050565b8061308a8a9284612ec2565b51613095818a613401565b878751913383527f031e1988c95a91ec4d655ff63a8f87a80bc9daf28d95ae10ee08c0022cfb5c8b88888d1694a40161306c565b90958382813d83116130f9575b6130e08183612759565b810103126102a057506130f29061290e565b9438613068565b503d6130d6565b61311491943d8091833e610b748183612759565b923861302a565b82513d6000823e3d90fd5b8151631d2c125760e31b8152600490fd5b61314d9250803d10611cb657611ca68183612759565b3880612fdd565b83513d6000823e3d90fd5b90613168614456565b6009546040805163eaa19ab360e01b81526000196004820152606060248201526064810184905294608486019490926001600160a01b0390879082168360005b8881106132665750509060009181838160019b8c604483015203925af196871561315457600097613242575b5060005b8581106131e9575050505050505090565b6131f38189612ec2565b51906131ff8287613401565b61320a818886612d70565b359161ffff8316809303610f885788928651916000835233602084015260008051602061462883398151915288878b1694a4016131d8565b61325e91973d8091833e6132568183612759565b81019061328e565b5095386131d4565b9192509760019061ffff6132798b6128f1565b168152602080910199019101908992916131a8565b9190604083820312610f885782516001600160401b038111610f88576020916132b8918501612cd9565b92015190565b6000908152600260205260409020546001600160a01b031680156132df5790565b60405163b49aa3b560e01b8152600490fd5b90600182811c92168015613321575b602083101461330b57565b634e487b7160e01b600052602260045260246000fd5b91607f1691613300565b61333481613608565b156132df576000908152600360205260409020546001600160a01b031690565b9291906133618233613393565b156122755783613375838361337a97613625565b61394c565b1561338157565b6040516336f57c1b60e11b8152600490fd5b906001600160a01b0380806133a7846132be565b169316918383149384156133da575b5083156133c4575b50505090565b6133d09192935061332b565b16143880806133be565b909350600052600460205260406000208260005260205260ff6040600020541692386133b6565b6001600160a01b03908116801561350c5761341b83613608565b6134fa57600083815260026020526040812080546001600160a01b031916831790559161347c908483856000805160206146888339815191528180a460095416936040519063b67cb04760e01b825281806101c09485933060048401612627565b0381885afa91821561053c5784926134dd575b505051833b1561043c5790606483928360405196879485936330b157e560e21b8552600485015282602485015260448401525af190811561166457506134d25750565b6134db906126a8565b565b6134f39250803d10611b2a57611b1c8183612759565b388061348f565b604051632eb5f0c360e21b8152600490fd5b604051633904578f60e11b8152600490fd5b51908115158203610f8857565b90816101c0910312610f88576040519061354482612707565b805182526020810151602083015260408101516040830152606081015160608301526080810151608083015260a081015160a083015260c081015160c083015261359060e0820161290e565b60e083015261010080820151908301526101206135ae81830161290e565b90830152610140808201519083015261016080820151908301526101806135d681830161351e565b908301526135e86101a080920161351e565b9082015290565b9081526001600160a01b03909116602082015260400190565b6000908152600260205260409020546001600160a01b0316151590565b9161362f816132be565b6001600160a01b0392848416929184168390036138f85783169384156138e65782613730575b5061365f8161390a565b600081815260026020526040812080546001600160a01b03191686179055926136bc908286856000805160206146888339815191528880a460095416916040519063b67cb04760e01b825281806101c09485933060048401612627565b0381865afa918215610d32578592613713575b50505190803b15610530578392918360649260405197889586946330b157e560e21b86526004860152602485015260448401525af190811561166457506134d25750565b6137299250803d10611b2a57611b1c8183612759565b38806136cf565b8360095416604090815163b67cb04760e01b81526101c090818180613759893060048401612627565b0381865afa918215612b5a57906101a092916000926138c9575b5050015161384f575b81516308ed6c0160e41b81526020818061379a883060048401612627565b0381855afa90811561315457908791600091613814575b5016156137c0575b5050613655565b803b15610f88578151638cec7d3960e01b81529260009184918290849082906137ed908a600484016135ef565b03925af1908115612bd25750613805575b80806137b9565b61380e906126a8565b386137fe565b91506020823d8211613847575b8161382e60209383612759565b810103126102a05750613841879161290e565b386137b1565b3d9150613821565b85600a541660055483519182916321d1336160e11b835260048301528160246101209485935afa918215612b5a576001928392610100926000926138ac575b5050015160f41c160361377c5781516318cdaf9760e01b8152600490fd5b6138c29250803d10611cb657611ca68183612759565b388061388e565b6138df9250803d10611b2a57611b1c8183612759565b3880613773565b604051632c95542760e01b8152600490fd5b60405163a195bc5360e01b8152600490fd5b600081815260036020526040812080546001600160a01b03191690556001600160a01b03613937836132be565b166000805160206146c88339815191528280a4565b9293600093909291803b15613a5b579484916139a69660405180948193630a85bd0160e11b9788845233600485015260018060a01b0380921660248501526044840152608060648401528260209b8c976084830190612547565b0393165af1849181613a1b575b50613a0a575050503d600014613a02573d6139cd81612848565b906139db6040519283612759565b81528091833d92013e5b805191826139ff576040516336f57c1b60e11b8152600490fd5b01fd5b5060606139e5565b6001600160e01b0319161492509050565b9091508581813d8311613a54575b613a338183612759565b81010312610d3d57516001600160e01b031981168103610d3d5790386139b3565b503d613a29565b505050915050600190565b903590601e1981360301821215610f8857018035906001600160401b038211610f8857602001918136038313610f8857565b91606083830312610f8857823592613ab26020820161250f565b9260408201356001600160401b038111610f88576128b59201612793565b91908201809211613add57565b634e487b7160e01b600052601160045260246000fd5b906080820135613c5b576101c08201916024613b0f8483613a66565b9050108015613c2c575b611cec57604092835191613b2c836126d1565b6001835260005b602080821015613b6157865160209291613b4c826126d1565b60008252600081830152828701015201613b33565b505093929190613ba1611968613ba992849651613b7d816126d1565b30815260006020820152613b9086612eb5565b52613b9a85612eb5565b5087613a66565b915050612c1d565b613bb1612c9b565b613bc0818360c089013561456d565b6101808701359361271090818614613c115750848103908111613add57613c0d94613bf5613c0194613bfb9361058f9761456d565b90613ad0565b906144e5565b946101a0810190613a66565b9190565b965050959050613c0d925061058f91506101a0810190613a66565b50613c378382613a66565b602411610f8857602001356001600160e01b03191663b3bcbb7960e01b1415613b19565b6040516309f82f1b60e31b8152600490fd5b600060c082013590600c548083146000146140f35750505060808101355b61018082016001600160a01b0380613ca283612d5c565b16600052602091600e83526040938460002054958682600093613cc484612d5c565b8780613ccf89612d5c565b169116146000146140ea5750015b6000916101e08101906044613cf28383613a66565b905011806140bd575b613e1e575b50909190508115613db85715613da7570194600e939291613d619180881115613d6c5787613d2d83612d5c565b7f2fb2733fb01b76e3290fa8b695d18e026ddd19c0a265ab90e95152e57da3033687878b51933385521694840392a4612d5c565b166000525260002055565b878111613d7a575b50612d5c565b87613d8483612d5c565b6000805160206146488339815191528783888c519433865216950392a438613d74565b8551631b57826960e21b8152600490fd5b50509485819493929403613dcf575b505050505050565b858103908111613add5783613e0a9187613dea600e97612d5c565b9160008051602061464883398151915287878b51953387521694a4612d5c565b166000525260002055388080808080613dc7565b90613e2891613a66565b8193910160a08482031261043857613e4189850161250f565b50613e4e6060850161283b565b936080810135906001600160401b03821161053057019080601f8301121561043c57813592613e7c8461277c565b92613e898c519485612759565b8484528a8401918b839660051b8301019384116102a057508a809101915b8383106140a557505050508380613ff3575b613fea575b805115613d0057613ece86612d5c565b87600954168a51809463eaa19ab360e01b8252606482018760048401526060602484015285518091526084830191908d6000905b828210613fce57505050509181600081819582604483015203925af1938415613fc3576000938495613fa2575b50835193828a1693908c60005b878110613f525750505050505050503880613d00565b86600192613f608386612ec2565b51613f6b818a613401565b60008051602061462883398151915261ffff613f87868a612ec2565b5116925180613f97338c836135ef565b0390a4018d90613f3c565b909450613fb991933d8091833e6132568183612759565b9290929338613f2f565b8a513d6000823e3d90fd5b835161ffff16855289955093840193909201916001018e613f02565b60009350613ebe565b506024608088600954168b5192838092634228826f60e11b82523060048301525afa8015613fc357600090614030575b6060915001511515613eb9565b6080823d821161409d575b8161404860809383612759565b810103126102a05750606090614094828c5192614064846126ec565b61406d8161351e565b845261407a8d820161351e565b8d8501528d61408a81830161351e565b908501520161351e565b82820152614023565b3d915061403b565b81906140b0846128f1565b8152019101908a90613ea7565b506140c88282613a66565b604411610d3d578901356001600160e01b03191663b3bcbb7960e01b14613cfb565b93505091613cdd565b600b546001600160a01b03169081156141b057600d5493604d851161419c579060646020926040519485938492635268657960e11b84526004840152602483015260a089013560448301525afa918215611664578092614166575b505061416191600a0a608084013561456d565b613c8b565b9091506020823d8211614194575b8161418160209383612759565b810103126102a05750516141613861414e565b3d9150614174565b634e487b7160e01b84526011600452602484fd5b5050505050565b906141c18261277c565b6141ce6040519182612759565b82815280926141df601f199161277c565b0190602036910137565b908151811015612d80570160200190565b80511561443d57604080519091906105e081016001600160401b038111828210176126bb578352602e81526020906105c036838301376000918261423d83612eb5565b52600193805184915b81831061439c5750505060ff80941661425e816141b7565b92845b82811061437b575050508151614276816141b7565b92845b8281106143535750505081519361428f85612848565b9561429c81519788612759565b858752601f196142ab87612848565b013684890137845b8681106142c4575050505050505090565b60019082516142d28161273e565b603a81527f31323334353637383941424344454647484a4b4c4d4e5051525354555657585986820152792d30b131b232b333b434b535b6b737b838b939ba3abb3bbc3cbd60311b848201526001600160f81b03199061433e9086614336858b612ec2565b5116906141e9565b5116871a61434c828b6141e9565b53016142b3565b60019087614368600019838651030185612ec2565b51166143748288612ec2565b5201614279565b808761438960019385612ec2565b51166143958288612ec2565b5201614261565b9397919690946143ac88866141e9565b5160f81c9381945b60ff90818a168710156143fc57906143e160019261ff006143d68f8b90612ec2565b5160081b1690613ad0565b603a91828206166143f2898f612ec2565b52049501946143b4565b919550508099959298919693995b61441957506001019190614246565b9660ff6001603a9282848c06166144328483168b612ec2565b52011697048061440a565b5060405161444a81612723565b60008152600036813790565b6007546001600160a01b0316330361446a57565b606460405162461bcd60e51b815260206004820152602060248201527f4f776e61626c653a2063616c6c6572206973206e6f7420746865206f776e65726044820152fd5b600780546001600160a01b039283166001600160a01b031982168117909255909116600080516020614668833981519152600080a3565b919060001981840981840291828083109203918083039214614562576127109081831015614544577fbc01a36e2eb1c432ca57a786c226809d495182a9930be0ded288ce703afb7e9194950990828211900360fc1b910360041c170290565b6044838360405191631dcf306360e21b835260048301526024820152fd5b505061271090049150565b9091600019838309928083029283808610950394808603951461460357828510156145e557908291096001821901821680920460028082600302188083028203028083028203028083028203028083028203028083028203028092029003029360018380600003040190848311900302920304170290565b6044858460405191631dcf306360e21b835260048301526024820152fd5b505080925015614611570490565b634e487b7160e01b600052601260045260246000fdfe598baf7bf150ca2f42be9e9f8f55e81d45f5715c3ff22bf46d697fabec7f31d6e0e7c81cf67a96dd0e39bcf11521b1f4c0098cc1dbe8c30750a11d9ebfc3ed4d8be0079c531659141344cd1fd0a4f28419497f9722a3daafe3b4186f6b6457e0ddf252ad1be2c89b69c2b068fc378daa952ba7f163c4a11628f55a4df523b3efb10e2d527612073b26eecdfd717e6a320cf44b4afac2b0732d9fcbe2b7fa0cf68c5be1e5ebec7d5bd14f71427d1e84f3dd0314c0f7b2291e5b200ac8c7c3b925a2646970667358221220839c2ec6501d2bd757d2d23cb6ff0efba73fb940e008528f070e87a589a6c99764736f6c63430008110033",
    "linkReferences": {}
  },
  "methodIdentifiers": {
    "adjustTiers((uint80,uint48,uint40,uint16,uint16,address,uint8,address,bytes32,uint8,bool,bool,bool,bool)[],uint256[])": "25eb91ee",
    "approve(address,uint256)": "095ea7b3",
    "balanceOf(address)": "70a08231",
    "codeOrigin()": "1d153ca4",
    "contractURI()": "e8a3d485",
    "creditsOf(address)": "245a45b5",
    "didPay((address,uint256,uint256,(address,uint256,uint256,uint256),(address,uint256,uint256,uint256),uint256,address,bool,string,bytes))": "da9ee8b7",
    "didRedeem((address,uint256,uint256,uint256,(address,uint256,uint256,uint256),(address,uint256,uint256,uint256),address,string,bytes))": "2b13c58f",
    "directory()": "c41c2f24",
    "firstOwnerOf(uint256)": "54c6d1f5",
    "fundingCycleStore()": "557e7155",
    "getApproved(uint256)": "081812fc",
    "initialize(uint256,address,string,string,address,string,address,string,((uint80,uint48,uint40,uint16,uint16,address,uint8,address,bytes32,uint8,bool,bool,bool,bool)[],uint256,uint256,address),address,(bool,bool,bool,bool))": "d1704baf",
    "isApprovedForAll(address,address)": "e985e9c5",
    "mintFor((uint16[],address)[])": "36c1a93b",
    "mintFor(uint16[],address)": "6ac6d941",
    "mintReservesFor((uint256,uint256)[])": "2a596e53",
    "mintReservesFor(uint256,uint256)": "aa4fb15b",
    "name()": "06fdde03",
    "owner()": "8da5cb5b",
    "ownerOf(uint256)": "6352211e",
    "payParams((address,address,(address,uint256,uint256,uint256),uint256,uint256,address,uint256,uint256,string,bytes))": "d46cf171",
    "prices()": "d3419bf3",
    "pricingCurrency()": "64640c1e",
    "pricingDecimals()": "4ecba625",
    "projectId()": "3fafa127",
    "redeemParams((address,address,uint256,uint256,uint256,uint256,uint256,(address,uint256,uint256,uint256),bool,uint256,string,bytes))": "a51cfd18",
    "redemptionWeightOf(uint256[],(address,address,uint256,uint256,uint256,uint256,uint256,(address,uint256,uint256,uint256),bool,uint256,string,bytes))": "7ba62bf9",
    "renounceOwnership()": "715018a6",
    "royaltyInfo(uint256,uint256)": "2a55205a",
    "safeTransferFrom(address,address,uint256)": "42842e0e",
    "safeTransferFrom(address,address,uint256,bytes)": "b88d4fde",
    "setApprovalForAll(address,bool)": "a22cb465",
    "setBaseUri(string)": "a0bcfc7f",
    "setContractUri(string)": "ccb4807b",
    "setDefaultReservedTokenBeneficiary(address)": "df487e26",
    "setEncodedIPFSUriOf(uint256,bytes32)": "525350ba",
    "setTokenUriResolver(address)": "2407497e",
    "store()": "975057e7",
    "supportsInterface(bytes4)": "01ffc9a7",
    "symbol()": "95d89b41",
    "tokenURI(uint256)": "c87b56dd",
    "totalRedemptionWeight((address,address,uint256,uint256,uint256,uint256,uint256,(address,uint256,uint256,uint256),bool,uint256,string,bytes))": "9494bf72",
    "transferFrom(address,address,uint256)": "23b872dd",
    "transferOwnership(address)": "f2fde38b"
  },
  "id": 41
}