{
  "abi": [
    {
      "inputs": [],
      "name": "CANT_MINT_MANUALLY",
      "type": "error"
    },
    {
      "inputs": [],
      "name": "INSUFFICIENT_AMOUNT",
      "type": "error"
    },
    {
      "inputs": [],
      "name": "INSUFFICIENT_RESERVES",
      "type": "error"
    },
    {
      "inputs": [],
      "name": "INVALID_CATEGORY_SORT_ORDER",
      "type": "error"
    },
    {
      "inputs": [],
      "name": "INVALID_QUANTITY",
      "type": "error"
    },
    {
      "inputs": [],
      "name": "INVALID_TIER",
      "type": "error"
    },
    {
      "inputs": [],
      "name": "MANUAL_MINTING_NOT_ALLOWED",
      "type": "error"
    },
    {
      "inputs": [],
      "name": "MAX_TIERS_EXCEEDED",
      "type": "error"
    },
    {
      "inputs": [],
      "name": "NO_QUANTITY",
      "type": "error"
    },
    {
      "inputs": [],
      "name": "OUT",
      "type": "error"
    },
    {
      "inputs": [],
      "name": "RESERVED_RATE_NOT_ALLOWED",
      "type": "error"
    },
    {
      "inputs": [],
      "name": "TIER_REMOVED",
      "type": "error"
    },
    {
      "inputs": [],
      "name": "VOTING_UNITS_NOT_ALLOWED",
      "type": "error"
    },
    {
      "anonymous": false,
      "inputs": [
        {
          "indexed": true,
          "internalType": "address",
          "name": "nft",
          "type": "address"
        },
        {
          "indexed": false,
          "internalType": "address",
          "name": "caller",
          "type": "address"
        }
      ],
      "name": "CleanTiers",
      "type": "event"
    },
    {
      "inputs": [
        {
          "internalType": "address",
          "name": "_nft",
          "type": "address"
        },
        {
          "internalType": "address",
          "name": "_owner",
          "type": "address"
        }
      ],
      "name": "balanceOf",
      "outputs": [
        {
          "internalType": "uint256",
          "name": "balance",
          "type": "uint256"
        }
      ],
      "stateMutability": "view",
      "type": "function"
    },
    {
      "inputs": [
        {
          "internalType": "address",
          "name": "_nft",
          "type": "address"
        }
      ],
      "name": "cleanTiers",
      "outputs": [],
      "stateMutability": "nonpayable",
      "type": "function"
    },
    {
      "inputs": [
        {
          "internalType": "address",
          "name": "",
          "type": "address"
        }
      ],
      "name": "defaultReservedTokenBeneficiaryOf",
      "outputs": [
        {
          "internalType": "address",
          "name": "",
          "type": "address"
        }
      ],
      "stateMutability": "view",
      "type": "function"
    },
    {
      "inputs": [
        {
          "internalType": "address",
          "name": "",
          "type": "address"
        },
        {
          "internalType": "uint256",
          "name": "",
          "type": "uint256"
        }
      ],
      "name": "encodedIPFSUriOf",
      "outputs": [
        {
          "internalType": "bytes32",
          "name": "",
          "type": "bytes32"
        }
      ],
      "stateMutability": "view",
      "type": "function"
    },
    {
      "inputs": [
        {
          "internalType": "address",
          "name": "_nft",
          "type": "address"
        },
        {
          "internalType": "uint256",
          "name": "_tokenId",
          "type": "uint256"
        }
      ],
      "name": "encodedTierIPFSUriOf",
      "outputs": [
        {
          "internalType": "bytes32",
          "name": "",
          "type": "bytes32"
        }
      ],
      "stateMutability": "view",
      "type": "function"
    },
    {
      "inputs": [
        {
          "internalType": "address",
          "name": "_nft",
          "type": "address"
        }
      ],
      "name": "flagsOf",
      "outputs": [
        {
          "components": [
            {
              "internalType": "bool",
              "name": "lockReservedTokenChanges",
              "type": "bool"
            },
            {
              "internalType": "bool",
              "name": "lockVotingUnitChanges",
              "type": "bool"
            },
            {
              "internalType": "bool",
              "name": "lockManualMintingChanges",
              "type": "bool"
            },
            {
              "internalType": "bool",
              "name": "preventOverspending",
              "type": "bool"
            }
          ],
          "internalType": "struct JBTiered721Flags",
          "name": "",
          "type": "tuple"
        }
      ],
      "stateMutability": "view",
      "type": "function"
    },
    {
      "inputs": [
        {
          "internalType": "address",
          "name": "_nft",
          "type": "address"
        },
        {
          "internalType": "uint256",
          "name": "_tierId",
          "type": "uint256"
        }
      ],
      "name": "isTierRemoved",
      "outputs": [
        {
          "internalType": "bool",
          "name": "",
          "type": "bool"
        }
      ],
      "stateMutability": "view",
      "type": "function"
    },
    {
      "inputs": [
        {
          "internalType": "address",
          "name": "",
          "type": "address"
        }
      ],
      "name": "maxTierIdOf",
      "outputs": [
        {
          "internalType": "uint256",
          "name": "",
          "type": "uint256"
        }
      ],
      "stateMutability": "view",
      "type": "function"
    },
    {
      "inputs": [
        {
          "internalType": "address",
          "name": "",
          "type": "address"
        },
        {
          "internalType": "uint256",
          "name": "",
          "type": "uint256"
        }
      ],
      "name": "numberOfBurnedFor",
      "outputs": [
        {
          "internalType": "uint256",
          "name": "",
          "type": "uint256"
        }
      ],
      "stateMutability": "view",
      "type": "function"
    },
    {
      "inputs": [
        {
          "internalType": "address",
          "name": "_nft",
          "type": "address"
        },
        {
          "internalType": "uint256",
          "name": "_tierId",
          "type": "uint256"
        }
      ],
      "name": "numberOfReservedTokensOutstandingFor",
      "outputs": [
        {
          "internalType": "uint256",
          "name": "",
          "type": "uint256"
        }
      ],
      "stateMutability": "view",
      "type": "function"
    },
    {
      "inputs": [
        {
          "internalType": "address",
          "name": "",
          "type": "address"
        },
        {
          "internalType": "uint256",
          "name": "",
          "type": "uint256"
        }
      ],
      "name": "numberOfReservesMintedFor",
      "outputs": [
        {
          "internalType": "uint256",
          "name": "",
          "type": "uint256"
        }
      ],
      "stateMutability": "view",
      "type": "function"
    },
    {
      "inputs": [
        {
          "components": [
            {
              "internalType": "uint104",
              "name": "price",
              "type": "uint104"
            },
            {
              "internalType": "uint32",
              "name": "initialQuantity",
              "type": "uint32"
            },
            {
              "internalType": "uint32",
              "name": "votingUnits",
              "type": "uint32"
            },
            {
              "internalType": "uint16",
              "name": "reservedRate",
              "type": "uint16"
            },
            {
              "internalType": "address",
              "name": "reservedTokenBeneficiary",
              "type": "address"
            },
            {
              "internalType": "bytes32",
              "name": "encodedIPFSUri",
              "type": "bytes32"
            },
            {
              "internalType": "uint24",
              "name": "category",
              "type": "uint24"
            },
            {
              "internalType": "bool",
              "name": "allowManualMint",
              "type": "bool"
            },
            {
              "internalType": "bool",
              "name": "shouldUseReservedTokenBeneficiaryAsDefault",
              "type": "bool"
            },
            {
              "internalType": "bool",
              "name": "transfersPausable",
              "type": "bool"
            },
            {
              "internalType": "bool",
              "name": "useVotingUnits",
              "type": "bool"
            }
          ],
          "internalType": "struct JB721TierParams[]",
          "name": "_tiersToAdd",
          "type": "tuple[]"
        }
      ],
      "name": "recordAddTiers",
      "outputs": [
        {
          "internalType": "uint256[]",
          "name": "tierIds",
          "type": "uint256[]"
        }
      ],
      "stateMutability": "nonpayable",
      "type": "function"
    },
    {
      "inputs": [
        {
          "internalType": "uint256[]",
          "name": "_tokenIds",
          "type": "uint256[]"
        }
      ],
      "name": "recordBurn",
      "outputs": [],
      "stateMutability": "nonpayable",
      "type": "function"
    },
    {
      "inputs": [
        {
          "components": [
            {
              "internalType": "bool",
              "name": "lockReservedTokenChanges",
              "type": "bool"
            },
            {
              "internalType": "bool",
              "name": "lockVotingUnitChanges",
              "type": "bool"
            },
            {
              "internalType": "bool",
              "name": "lockManualMintingChanges",
              "type": "bool"
            },
            {
              "internalType": "bool",
              "name": "preventOverspending",
              "type": "bool"
            }
          ],
          "internalType": "struct JBTiered721Flags",
          "name": "_flags",
          "type": "tuple"
        }
      ],
      "name": "recordFlags",
      "outputs": [],
      "stateMutability": "nonpayable",
      "type": "function"
    },
    {
      "inputs": [
        {
          "internalType": "uint256",
          "name": "_amount",
          "type": "uint256"
        },
        {
          "internalType": "uint16[]",
          "name": "_tierIds",
          "type": "uint16[]"
        },
        {
          "internalType": "bool",
          "name": "_isManualMint",
          "type": "bool"
        }
      ],
      "name": "recordMint",
      "outputs": [
        {
          "internalType": "uint256[]",
          "name": "tokenIds",
          "type": "uint256[]"
        },
        {
          "internalType": "uint256",
          "name": "leftoverAmount",
          "type": "uint256"
        }
      ],
      "stateMutability": "nonpayable",
      "type": "function"
    },
    {
      "inputs": [
        {
          "internalType": "uint256",
          "name": "_tierId",
          "type": "uint256"
        },
        {
          "internalType": "uint256",
          "name": "_count",
          "type": "uint256"
        }
      ],
      "name": "recordMintReservesFor",
      "outputs": [
        {
          "internalType": "uint256[]",
          "name": "tokenIds",
          "type": "uint256[]"
        }
      ],
      "stateMutability": "nonpayable",
      "type": "function"
    },
    {
      "inputs": [
        {
          "internalType": "uint256[]",
          "name": "_tierIds",
          "type": "uint256[]"
        }
      ],
      "name": "recordRemoveTierIds",
      "outputs": [],
      "stateMutability": "nonpayable",
      "type": "function"
    },
    {
      "inputs": [
        {
          "internalType": "uint256",
          "name": "_tierId",
          "type": "uint256"
        },
        {
          "internalType": "bytes32",
          "name": "_encodedIPFSUri",
          "type": "bytes32"
        }
      ],
      "name": "recordSetEncodedIPFSUriOf",
      "outputs": [],
      "stateMutability": "nonpayable",
      "type": "function"
    },
    {
      "inputs": [
        {
          "internalType": "contract IJBTokenUriResolver",
          "name": "_resolver",
          "type": "address"
        }
      ],
      "name": "recordSetTokenUriResolver",
      "outputs": [],
      "stateMutability": "nonpayable",
      "type": "function"
    },
    {
      "inputs": [
        {
          "internalType": "uint256",
          "name": "_tierId",
          "type": "uint256"
        },
        {
          "internalType": "address",
          "name": "_from",
          "type": "address"
        },
        {
          "internalType": "address",
          "name": "_to",
          "type": "address"
        }
      ],
      "name": "recordTransferForTier",
      "outputs": [],
      "stateMutability": "nonpayable",
      "type": "function"
    },
    {
      "inputs": [
        {
          "internalType": "address",
          "name": "_nft",
          "type": "address"
        },
        {
          "internalType": "uint256[]",
          "name": "_tokenIds",
          "type": "uint256[]"
        }
      ],
      "name": "redemptionWeightOf",
      "outputs": [
        {
          "internalType": "uint256",
          "name": "weight",
          "type": "uint256"
        }
      ],
      "stateMutability": "view",
      "type": "function"
    },
    {
      "inputs": [
        {
          "internalType": "address",
          "name": "_nft",
          "type": "address"
        },
        {
          "internalType": "uint256",
          "name": "_tierId",
          "type": "uint256"
        }
      ],
      "name": "reservedTokenBeneficiaryOf",
      "outputs": [
        {
          "internalType": "address",
          "name": "",
          "type": "address"
        }
      ],
      "stateMutability": "view",
      "type": "function"
    },
    {
      "inputs": [
        {
          "internalType": "address",
          "name": "",
          "type": "address"
        },
        {
          "internalType": "address",
          "name": "",
          "type": "address"
        },
        {
          "internalType": "uint256",
          "name": "",
          "type": "uint256"
        }
      ],
      "name": "tierBalanceOf",
      "outputs": [
        {
          "internalType": "uint256",
          "name": "",
          "type": "uint256"
        }
      ],
      "stateMutability": "view",
      "type": "function"
    },
    {
      "inputs": [
        {
          "internalType": "uint256",
          "name": "_tokenId",
          "type": "uint256"
        }
      ],
      "name": "tierIdOfToken",
      "outputs": [
        {
          "internalType": "uint256",
          "name": "",
          "type": "uint256"
        }
      ],
      "stateMutability": "pure",
      "type": "function"
    },
    {
      "inputs": [
        {
          "internalType": "address",
          "name": "_nft",
          "type": "address"
        },
        {
          "internalType": "uint256",
          "name": "_id",
          "type": "uint256"
        },
        {
          "internalType": "bool",
          "name": "_includeResolvedUri",
          "type": "bool"
        }
      ],
      "name": "tierOf",
      "outputs": [
        {
          "components": [
            {
              "internalType": "uint256",
              "name": "id",
              "type": "uint256"
            },
            {
              "internalType": "uint256",
              "name": "price",
              "type": "uint256"
            },
            {
              "internalType": "uint256",
              "name": "remainingQuantity",
              "type": "uint256"
            },
            {
              "internalType": "uint256",
              "name": "initialQuantity",
              "type": "uint256"
            },
            {
              "internalType": "uint256",
              "name": "votingUnits",
              "type": "uint256"
            },
            {
              "internalType": "uint256",
              "name": "reservedRate",
              "type": "uint256"
            },
            {
              "internalType": "address",
              "name": "reservedTokenBeneficiary",
              "type": "address"
            },
            {
              "internalType": "bytes32",
              "name": "encodedIPFSUri",
              "type": "bytes32"
            },
            {
              "internalType": "uint256",
              "name": "category",
              "type": "uint256"
            },
            {
              "internalType": "bool",
              "name": "allowManualMint",
              "type": "bool"
            },
            {
              "internalType": "bool",
              "name": "transfersPausable",
              "type": "bool"
            },
            {
              "internalType": "string",
              "name": "resolvedUri",
              "type": "string"
            }
          ],
          "internalType": "struct JB721Tier",
          "name": "",
          "type": "tuple"
        }
      ],
      "stateMutability": "view",
      "type": "function"
    },
    {
      "inputs": [
        {
          "internalType": "address",
          "name": "_nft",
          "type": "address"
        },
        {
          "internalType": "uint256",
          "name": "_tokenId",
          "type": "uint256"
        },
        {
          "internalType": "bool",
          "name": "_includeResolvedUri",
          "type": "bool"
        }
      ],
      "name": "tierOfTokenId",
      "outputs": [
        {
          "components": [
            {
              "internalType": "uint256",
              "name": "id",
              "type": "uint256"
            },
            {
              "internalType": "uint256",
              "name": "price",
              "type": "uint256"
            },
            {
              "internalType": "uint256",
              "name": "remainingQuantity",
              "type": "uint256"
            },
            {
              "internalType": "uint256",
              "name": "initialQuantity",
              "type": "uint256"
            },
            {
              "internalType": "uint256",
              "name": "votingUnits",
              "type": "uint256"
            },
            {
              "internalType": "uint256",
              "name": "reservedRate",
              "type": "uint256"
            },
            {
              "internalType": "address",
              "name": "reservedTokenBeneficiary",
              "type": "address"
            },
            {
              "internalType": "bytes32",
              "name": "encodedIPFSUri",
              "type": "bytes32"
            },
            {
              "internalType": "uint256",
              "name": "category",
              "type": "uint256"
            },
            {
              "internalType": "bool",
              "name": "allowManualMint",
              "type": "bool"
            },
            {
              "internalType": "bool",
              "name": "transfersPausable",
              "type": "bool"
            },
            {
              "internalType": "string",
              "name": "resolvedUri",
              "type": "string"
            }
          ],
          "internalType": "struct JB721Tier",
          "name": "",
          "type": "tuple"
        }
      ],
      "stateMutability": "view",
      "type": "function"
    },
    {
      "inputs": [
        {
          "internalType": "address",
          "name": "_nft",
          "type": "address"
        },
        {
          "internalType": "address",
          "name": "_account",
          "type": "address"
        },
        {
          "internalType": "uint256",
          "name": "_tierId",
          "type": "uint256"
        }
      ],
      "name": "tierVotingUnitsOf",
      "outputs": [
        {
          "internalType": "uint256",
          "name": "",
          "type": "uint256"
        }
      ],
      "stateMutability": "view",
      "type": "function"
    },
    {
      "inputs": [
        {
          "internalType": "address",
          "name": "_nft",
          "type": "address"
        },
        {
          "internalType": "uint256[]",
          "name": "_categories",
          "type": "uint256[]"
        },
        {
          "internalType": "bool",
          "name": "_includeResolvedUri",
          "type": "bool"
        },
        {
          "internalType": "uint256",
          "name": "_startingId",
          "type": "uint256"
        },
        {
          "internalType": "uint256",
          "name": "_size",
          "type": "uint256"
        }
      ],
      "name": "tiersOf",
      "outputs": [
        {
          "components": [
            {
              "internalType": "uint256",
              "name": "id",
              "type": "uint256"
            },
            {
              "internalType": "uint256",
              "name": "price",
              "type": "uint256"
            },
            {
              "internalType": "uint256",
              "name": "remainingQuantity",
              "type": "uint256"
            },
            {
              "internalType": "uint256",
              "name": "initialQuantity",
              "type": "uint256"
            },
            {
              "internalType": "uint256",
              "name": "votingUnits",
              "type": "uint256"
            },
            {
              "internalType": "uint256",
              "name": "reservedRate",
              "type": "uint256"
            },
            {
              "internalType": "address",
              "name": "reservedTokenBeneficiary",
              "type": "address"
            },
            {
              "internalType": "bytes32",
              "name": "encodedIPFSUri",
              "type": "bytes32"
            },
            {
              "internalType": "uint256",
              "name": "category",
              "type": "uint256"
            },
            {
              "internalType": "bool",
              "name": "allowManualMint",
              "type": "bool"
            },
            {
              "internalType": "bool",
              "name": "transfersPausable",
              "type": "bool"
            },
            {
              "internalType": "string",
              "name": "resolvedUri",
              "type": "string"
            }
          ],
          "internalType": "struct JB721Tier[]",
          "name": "_tiers",
          "type": "tuple[]"
        }
      ],
      "stateMutability": "view",
      "type": "function"
    },
    {
      "inputs": [
        {
          "internalType": "address",
          "name": "",
          "type": "address"
        }
      ],
      "name": "tokenUriResolverOf",
      "outputs": [
        {
          "internalType": "contract IJBTokenUriResolver",
          "name": "",
          "type": "address"
        }
      ],
      "stateMutability": "view",
      "type": "function"
    },
    {
      "inputs": [
        {
          "internalType": "address",
          "name": "_nft",
          "type": "address"
        }
      ],
      "name": "totalRedemptionWeight",
      "outputs": [
        {
          "internalType": "uint256",
          "name": "weight",
          "type": "uint256"
        }
      ],
      "stateMutability": "view",
      "type": "function"
    },
    {
      "inputs": [
        {
          "internalType": "address",
          "name": "_nft",
          "type": "address"
        }
      ],
      "name": "totalSupply",
      "outputs": [
        {
          "internalType": "uint256",
          "name": "supply",
          "type": "uint256"
        }
      ],
      "stateMutability": "view",
      "type": "function"
    },
    {
      "inputs": [
        {
          "internalType": "address",
          "name": "_nft",
          "type": "address"
        },
        {
          "internalType": "address",
          "name": "_account",
          "type": "address"
        }
      ],
      "name": "votingUnitsOf",
      "outputs": [
        {
          "internalType": "uint256",
          "name": "units",
          "type": "uint256"
        }
      ],
      "stateMutability": "view",
      "type": "function"
    }
  ],
  "bytecode": {
    "object": "0x6080806040523461001657612b44908161001c8239f35b600080fdfe610120604052600436101561001357600080fd5b60003560e01c8063086bb19a14611dbe5780630fab094714611d83578063136e651c14611d4b578063144cc2d414611c9a57806320512ba114611c1d5780632ae5e49214611b455780632b7e6ef014611afd5780632e4d0ea814611ae457806335314b9214611a8c57806337f4465214611a4157806342f9914b14611a1e57806349bd1ac6146119e85780635f6466111461199957806364faa1591461194f5780636825bb8014611907578063845104de1461185157806386bc2be3146117745780638da5e32b14610ec8578063911c80b514610e8d5780639335557814610d495780639403a74f14610a11578063baa7e80e14610895578063bd51923c1461084d578063c2c55f9414610789578063c44a8e6d1461071b578063c8df1710146106cd578063cb827e3214610628578063d84a72c0146105d3578063e4dc2aa414610530578063eaa19ab314610250578063f1bea54f146102165763f7888aec1461017d57600080fd5b3461021157604060031936011261021157610196611f1a565b61019e611f30565b906000906001600160a01b03809116806000526020936007855260406000205492839116905b6101d357505050604051908152f35b9091926102076000199184600052600887526040600020846000528752604060002086600052875260406000205490612342565b93019190826101c4565b600080fd5b34610211576020600319360112610211576001600160a01b03610237611f1a565b1660005260076020526020604060002054604051908152f35b346102115760606003193601126102115760243567ffffffffffffffff811161021157610281903690600401611f46565b9061028a611fac565b91600435906102988161240e565b926040516102a58161216d565b60008152600060208201526000925b8084106102de576102d486866040519283926040845260408401906120ce565b9060208301520390f35b909192936102ed858386612272565b359061ffff82168203610211576103098461ffff841633612865565b61050657336000526002602052604060002061ffff83166000526020526040600020918254928961034d8560f81c8060011615159181600216151591600416151590565b5050816104fd575b506104d35763ffffffff8460881c16156104a957826cffffffffffffffffffffffffff85161161047f576103a861039961038e83612298565b61ffff8516336128d6565b63ffffffff8660681c166125a1565b156104555761043c6cffffffffffffffffffffffffff9261ffff8663ffffffff806000198160019b60681c16011661040f81889070ffffffff000000000000000000000000001970ffffffff0000000000000000000000000083549260681b169116179055565b33600052600a6020526040600020848616600052602052816040600020549360881c1603160191166129f8565b610446898b612318565b525416900394019291906102b4565b60046040517f985a45d9000000000000000000000000000000000000000000000000000000008152fd5b60046040517f2cd294cf000000000000000000000000000000000000000000000000000000008152fd5b60046040517f0de5859f000000000000000000000000000000000000000000000000000000008152fd5b60046040517f5ef25a72000000000000000000000000000000000000000000000000000000008152fd5b9050158b610355565b60046040517fd32cb5c1000000000000000000000000000000000000000000000000000000008152fd5b34610211576020806003193601126102115761054a611f1a565b6001600160a01b0360009161055d61223a565b5016806000526007835260406000205490815b61057e575050604051908152f35b90916105ca60001991836000526002865260406000208560005286526105a76040600020612298565b6105c363ffffffff91828981604084015116920151169061232c565b1690612342565b92019081610570565b34610211576020600319360112610211576004356001600160a01b0381168091036102115733600052600c60205260406000209073ffffffffffffffffffffffffffffffffffffffff19825416179055600080f35b34610211576080600319360112610211573360005260036020526040600020600435801515809103610211578154602435908115158092036102115760443591821515809303610211576064358015158091036102115762ff0000927fffffffffffffffffffffffffffffffffffffffffffffffffffffffff0000000060ff63ff00000061ff009460181b1697169116179160081b16179160101b1617179055600080f35b34610211576040600319360112610211576001600160a01b036106ee611f1a565b16600052600d6020526040600020633b9aca00602435046000526020526020604060002054604051908152f35b3461021157610785610771633b9aca0061073436611fc8565b929061073e6121e1565b50046001600160a01b038216600052600260205260406000208160005260205261076b6040600020612298565b916125ae565b60405191829160208352602083019061201e565b0390f35b34610211576060600319360112610211576004356107a5611f30565b604435906001600160a01b03908183168093036102115716806107fd575b50806107cb57005b336000526008602052604060002090600052602052604060002090600052602052604060002060018154019055600080f35b33600052600860205260406000209060005260205260406000208260005260205260406000208054801561083757600019019055826107c3565b634e487b7160e01b600052601160045260246000fd5b34610211576040600319360112610211576001600160a01b0361086e611f1a565b16600052600d60205260406000206024356000526020526020604060002054604051908152f35b34610211576040600319360112610211576004356024908135903360005260209160028352604060002082600052835260406000206108dd6108d682612298565b84336128d6565b82116109e757336000526009845260406000208360005284526040600020610906838254612342565b90556109118261240e565b9433600052600a855260406000208460005285526040600020549160005b8481106109495760405187815280610785818a018b6120ce565b815463ffffffff90818160681c1680156109d25786836109b56109c194600197966000196109bb9601916109ac838c9070ffffffff000000000000000000000000001970ffffffff0000000000000000000000000083549260681b169116179055565b60881c1661232c565b16612342565b886129f8565b6109cb828b612318565b520161092f565b85634e487b7160e01b60005260116004526000fd5b60046040517f44df3332000000000000000000000000000000000000000000000000000000008152fd5b346102115760a060031936011261021157610a2a611f1a565b60243567ffffffffffffffff811161021157610a4a903690600401611f46565b9190610a54611fac565b610a5d83612aa0565b60a052610a6b6084356121c9565b610a7860405191826121a6565b6084358152601f19610a8b6084356121c9565b0160005b818110610d32575050600090610aa361223a565b5060405193610ab18561216d565b6000855260006020860152600060805260015b15610d1d575b60006084358414610c7e5760643515610c02576064355b80151580610bf7575b15610bf157610afa87828a612865565b15610b12575b60a051610b0d9189612a18565b610ae1565b6001600160a01b0388166000526002602052604060002081600052602052610b3d6040600020612298565b90868a15928315808091610bd0575b15610b655750505050505b600160805101608052610ac4565b610b0d9490610bb0575b610b7d575b50509050610b00565b610ba891610b8c91848d6125ae565b96610b9681612309565b97610ba18289612318565b5286612318565b50868b610b74565b5062ffffff608082015116610bc98d6080519089612272565b3514610b6f565b508c610bea62ffffff60808501511691608051908a612272565b3510610b4c565b50610b57565b506084358510610aea565b87610c6b5760005b80610c4257506001600160a01b03871660005260006020526040600020600080526020526040600020545b80610ae157506001610ae1565b6001600160a01b0388166000526006602052604060002090600052602052604060002054610c35565b610c786080518984612272565b35610c0a565b50509450925050505b6084358103610d15575b506040518091602082016020835281518091526040830190602060408260051b8601019301916000905b828210610cca57505050500390f35b91936020610d05827fffffffffffffffffffffffffffffffffffffffffffffffffffffffffffffffc06001959799849503018652885161201e565b9601920192018594939192610cbb565b815281610c91565b8660805110610aca5750945092505050610c87565b602090610d3d6121e1565b82828601015201610a8f565b3461021157604060031936011261021157610d62611f1a565b610d6a611f30565b906000906001600160a01b03809116928360005260209360078552604060002054610d9361223a565b9093849316925b610da8578585604051908152f35b9091929382600052600886526040600020846000528652604060002085600052865260406000205480610e56575b60001991610e2e610e3492610e0260ff60c0880151168060011615159181600216151591600416151590565b915050600014610e3f576cffffffffffffffffffffffffff64ffffffffff6060880151165b169061234f565b90612342565b940192919083610d9a565b6cffffffffffffffffffffffffff80875116610e27565b9150610e346000199184600052600288526040600020876000528852610e2e610e826040600020612298565b949250509150610dd6565b346102115760206003193601126102115760206001600160a01b0380610eb1611f1a565b16600052600b825260406000205416604051908152f35b346102115760206003193601126102115760043567ffffffffffffffff8082116102115736602383011215610211578160040135116102115736602461016083600401350283010111610211573360005260076020526040600020549061ffff610f36826004013584612342565b1161174a57610f4433612aa0565b90610f52816004013561240e565b918361173c5760005b906000610f6661243f565b5033600052600360205260406000209160ff60405193610f8585612102565b5481811615158552818160081c1615156020860152818160101c161515604086015260181c161515606084015260005b85600401358110610ff55761078587610fd260048901358b612342565b3360005260076020526040600020556040519182916020835260208301906120ce565b61100f61100a82886004013560248a01612492565b6124b4565b633b9ac9ff63ffffffff602083015116116117125761102c61243f565b90826116a9575b6020860151151580611696575b61166c5785511580159061165f575b8061164e575b611624576040860151151580611617575b6115ed5763ffffffff602082015116156115c357611084838b612342565b9160018301831190816108375760c062ffffff916cffffffffffffffffffffffffff85511660ff63ffffffff60208801511663ffffffff60408901511661ffff60608a0151169087878b0151169160e08b01511515926101208c01511515926101408d0151151595604051986110f98a612134565b89528060208a015260408901526060880152608087015260a086015260011b179060021b1716838201523360005260026020526040600020600188016000526020526040600020906cffffffffffffffffffffffffff8151167fffffffffffffffffffffffffffffffffffffff000000000000000000000000008354161782556111bc63ffffffff602083015116839070ffffffff000000000000000000000000001970ffffffff0000000000000000000000000083549260681b169116179055565b60408101519082547cffffff000000000000000000000000000000000000000000000000000079ffffffffff000000000000000000000000000000000000000000606084015160a81b1660808401519270ffffffffffffffffffffffffffffffffff74ffffffff00000000000000000000000000000000007fff000000000000000000000000000000000000000000000000000000000000008b7effff000000000000000000000000000000000000000000000000000000000060a08a015160e81b1698015160f81b169760881b16911617179160d01b16171717905501511662ffffff60c0840151168091141590816115b9575b5061158c575b608082016001600160a01b0380825116806114f1575b50505060a0820151806114cd575b50876112fb575b50509060018092016112f4828a612318565b5201610fb5565b87805b61130857506112e2565b9197611318868498939833612a18565b62ffffff60c08b01511633600052600260205260406000208560005260205262ffffff60406000205460d01c161015806114c3575b1561143557505060028301600184011161083757600283018203611411575b3360005260056020528585604060002081815403611409575b505061083757808314908115826113e6575b6113ac575b50509560018201946000806112fe565b6000965090156113dc576000905b3360005260006020526040600020906000526020526040600020558a8061139c565b60018301906113ba565b503360005260006020526040600020816000526020526040600020541515611397565b55858d611385565b3360005260006020526040600020600184016000526020528160406000205561136c565b8099939297991580156114ba575b156114af5750506001810181116108375780830361148a575b50600182019660003360005260056020528060406000208054611480575b506112fe565b600090558d61147a565b336000526000602052604060002090600052602052600182016040600020558a61145c565b9650979095806112fe565b508c8111611443565b508c84111561134d565b33600052600d6020526040600020600185016000526020526040600020558b6112db565b6101008501511561154a575033600052600b6020526040600020918183549151168092821603611528575b5050505b8b80806112cd565b73ffffffffffffffffffffffffffffffffffffffff19161790558b808061151c565b91505033600052600160205260406000206001850160005260205260406000209073ffffffffffffffffffffffffffffffffffffffff19825416179055611520565b336000526006602052604060002062ffffff60c084015116600052602052600183016040600020556112b7565b905015158c6112b1565b60046040517ff0543188000000000000000000000000000000000000000000000000000000008152fd5b60046040517f30ec637f000000000000000000000000000000000000000000000000000000008152fd5b5060e08101511515611066565b60046040517fa75b1cd5000000000000000000000000000000000000000000000000000000008152fd5b5061ffff6060820151161515611055565b5060e0810151151561104f565b60046040517f03124006000000000000000000000000000000000000000000000000000000008152fd5b5063ffffffff6040820151161515611040565b905081600019810111610837576116cf61100a6000198401896004013560248b01612492565b9062ffffff60c090808284015116918401511611156110335760046040517f72afaf54000000000000000000000000000000000000000000000000000000008152fd5b60046040517f49016ea3000000000000000000000000000000000000000000000000000000008152fd5b61174533612a71565b610f5b565b60046040517f378d1916000000000000000000000000000000000000000000000000000000008152fd5b34610211576020806003193601126102115760043567ffffffffffffffff8111610211576117a6903690600401611f46565b919060005b8381106117b457005b633b9aca006117c4828685612272565b350433600052600a8452604060002081600052845260406000206117e88154612309565b90553360005260028452604060002090600052835260406000209063ffffffff9182815460681c1692831461083757805470ffffffff000000000000000000000000001916600193840160681b70ffffffff0000000000000000000000000016179055016117ab565b34610211576020600319360112610211576001600160a01b03611872611f1a565b6000606060405161188281612102565b828152826020820152826040820152015216600052600360205260806040600020604051906118b082612102565b5460ff81161515918281526020810160ff8360081c161515815260ff60606040840193828660101c1615158552019360181c1615158352604051938452511515602084015251151560408301525115156060820152f35b34610211576040600319360112610211576001600160a01b03611928611f1a565b16600052600960205260406000206024356000526020526020604060002054604051908152f35b346102115761078561077161196336611fc8565b919061196d6121e1565b506001600160a01b038216600052600260205260406000208160005260205261076b6040600020612298565b346102115760406003193601126102115760206119b4611f1a565b6001600160a01b036024359116600052600482526001806119d9836040600020612acf565b5160ff60405194161c16148152f35b346102115760406003193601126102115733600052600d6020526040600020600435600052602052602435604060002055600080f35b34610211576020600319360112610211576020604051633b9aca00600435048152f35b3461021157611a4f36611f77565b916001600160a01b038091166000526008602052604060002091166000526020526040600020906000526020526020604060002054604051908152f35b34610211576040600319360112610211576020611adc611aaa611f1a565b6024356001600160a01b038216600052600284526040600020816000528452611ad66040600020612298565b916128d6565b604051908152f35b34610211576020611adc611af736611f77565b91612362565b34610211576040600319360112610211576001600160a01b03611b1e611f1a565b16600052600a60205260406000206024356000526020526020604060002054604051908152f35b346102115760208060031936011261021157611b5f611f1a565b9060006001600160a01b03831692836000526007835260406000205493611b8461223a565b5060005b858110611b9a57505050604051908152f35b81600052600285526040600020936001820194856000528652611bc06040600020612298565b6cffffffffffffffffffffffffff81511663ffffffff9187611bee84604084015116858c850151169061232c565b951161083757611c1794610e2e93611c0a611c11938b8b6128d6565b9116612342565b9061234f565b92611b88565b34610211576020806003193601126102115760043567ffffffffffffffff811161021157611c4f903690600401611f46565b909160005b828110611c5d57005b80611c6b60ff928587612272565b35336000526004845260406000208160081c60005284526040600020906001938491161b815417905501611c54565b3461021157604060031936011261021157611cb3611f1a565b60243567ffffffffffffffff811161021157611cd3903690600401611f46565b6000916001600160a01b0360009416915b808510611cf657602084604051908152f35b909192611d4060019185600052602060028152604060002090633b9aca00611d1f8a888a612272565b3504600052526cffffffffffffffffffffffffff6040600020541690612342565b940193929190611ce4565b34610211576040600319360112610211576020611d72611d69611f1a565b602435906123ce565b6001600160a01b0360405191168152f35b346102115760206003193601126102115760206001600160a01b0380611da7611f1a565b16600052600c825260406000205416604051908152f35b346102115760208060031936011261021157611dd8611f1a565b90611de282612aa0565b611deb83612a71565b604051906000611dfa8361216d565b60008352816000868501525b611e4157857f4a0f854ce3c180d56f3e9eb47eb064c595bf3de0ab9af45425291e5b1bb733a8866001600160a01b03604051933385521692a2005b83611e4d848489612865565b15611e65575b611e5e919287612a18565b9081611e06565b5060018101808211610837578214611ecb576001600160a01b038616806000526000865260406000208260005286528260406000205403611eab575b50505b8083611e53565b600052600085526040600020906000528452806040600020558580611ea1565b6001600160a01b03861680600052600086526040600020826000528652604060002054611efa575b5050611ea4565b600052600085526040600020906000528452600060408120558580611ef3565b600435906001600160a01b038216820361021157565b602435906001600160a01b038216820361021157565b9181601f840112156102115782359167ffffffffffffffff8311610211576020808501948460051b01011161021157565b6003196060910112610211576001600160a01b0390600435828116810361021157916024359081168103610211579060443590565b60443590811515820361021157565b3590811515820361021157565b6003196060910112610211576004356001600160a01b038116810361021157906024359060443580151581036102115790565b60005b83811061200e5750506000910152565b8181015183820152602001611ffe565b90815181526020820151602082015260408201516040820152606082015160608201526080820151608082015260a082015160a08201526001600160a01b0360c08301511660c082015260e082015160e082015261010080830151908201526101208083015115159082015261014080830151151590820152601f19601f61016080940151936101808091850152845180918501526120c7816101a09660208888019101611ffb565b0116010190565b90815180825260208080930193019160005b8281106120ee575050505090565b8351855293810193928101926001016120e0565b6080810190811067ffffffffffffffff82111761211e57604052565b634e487b7160e01b600052604160045260246000fd5b60e0810190811067ffffffffffffffff82111761211e57604052565b610180810190811067ffffffffffffffff82111761211e57604052565b6040810190811067ffffffffffffffff82111761211e57604052565b610160810190811067ffffffffffffffff82111761211e57604052565b90601f601f19910116810190811067ffffffffffffffff82111761211e57604052565b67ffffffffffffffff811161211e5760051b60200190565b604051906121ee82612150565b606061016083600080825280602083015280604083015280848301528060808301528060a08301528060c08301528060e083015280610100830152806101208301526101408201520152565b6040519061224782612134565b8160c06000918281528260208201528260408201528260608201528260808201528260a08201520152565b91908110156122825760051b0190565b634e487b7160e01b600052603260045260246000fd5b906040516122a581612134565b60c08193546cffffffffffffffffffffffffff8116835263ffffffff808260681c1660208501528160881c16604084015264ffffffffff8160a81c16606084015262ffffff8160d01c16608084015261ffff8160e81c1660a084015260f81c910152565b60001981146108375760010190565b80518210156122825760209160051b010190565b63ffffffff918216908216039190821161083757565b9190820180921161083757565b8181029291811591840414171561083757565b916001600160a01b0380931691600093838552600860205260408520911684526020526040832081845260205260408320549182156123c8578364ffffffffff926040926123c596526002602052828220908252602052205460a81c169061234f565b90565b50505090565b6001600160a01b03809116916000908382526001602052604082209082526020528160408220541692836123c85760409293508152600b60205220541690565b90612418826121c9565b61242560405191826121a6565b828152601f1961243582946121c9565b0190602036910137565b6040519061244c82612189565b816101406000918281528260208201528260408201528260608201528260808201528260a08201528260c08201528260e082015282610100820152826101208201520152565b919081101561228257610160020190565b359063ffffffff8216820361021157565b6101608136031261021157604051906124cc82612189565b80356cffffffffffffffffffffffffff811681036102115782526124f2602082016124a3565b6020830152612503604082016124a3565b6040830152606081013561ffff8116810361021157606083015260808101356001600160a01b038116810361021157608083015260a081013560a083015260c081013562ffffff811681036102115760c083015261256360e08201611fbb565b60e0830152610100612576818301611fbb565b90830152610120612588818301611fbb565b9083015261259a610140809201611fbb565b9082015290565b9190820391821161083757565b9190926125b96121e1565b506125c484846123ce565b60c08301519092906001811615159060028116151590600416151591949060c0526cffffffffffffffffffffffffff958684511696602060e09481865263ffffffff80838901511690604090818a0151169260001461285d578c64ffffffffff60608b015116945b6001600160a01b0398891698808c8b61284f57506000995b1680600052600d83528460002084600052835262ffffff608086600020549e0151169d15928315612837575b6000931561270657505050505080518851810181811067ffffffffffffffff82111761211e578252600081529b5b81519d6101009e8f908082526126b390612150565b51528d8951905101528c5101528a51606001521688516080015261ffff16875160a00152865160c0015285510152838051015215158251610120015260c051151582516101400152815161016001525190565b600c91845252838220541691633b9aca009081810291818304149015171561282357819060248551809581937fda0544aa00000000000000000000000000000000000000000000000000000000835260048301525afa918215612817578192612772575b50509b61269e565b9091503d8083833e61278481836121a6565b8101918a5192838382031261281357825167ffffffffffffffff9384821161280f57019181601f840112156127f85782519384116127fb576127d1865195601f19601f87011601866121a6565b8385528c51918285850101116127f857506127f192918482019101611ffb565b388061276a565b80fd5b80634e487b7160e01b602492526041600452fd5b8380fd5b5080fd5b508251903d90823e3d90fd5b602482634e487b7160e01b81526011600452fd5b925080600052600c8352818560002054161592612670565b60a0015161ffff1699612644565b8c8c9461262c565b9060019283926020820151808460081c14908115916128bb575b50612892575b5060ff905191161c161490565b6001600160a01b03915016600052600460205260ff6128b5826040600020612acf565b90612885565b8351159150816128cd575b503861287f565b905015386128c6565b60a083019161ffff90818451161580156129de575b80156129c4575b6129ba576001600160a01b03600093168352600960205260408320908352602052604082205493604081019063ffffffff9182602061293489838551166125a1565b930151168092146129b057908287939251160316039080845116801561299c5782049351169081156129885706612978575b81831161297257500390565b91505090565b9061298290612309565b90612966565b602483634e487b7160e01b81526012600452fd5b602484634e487b7160e01b81526012600452fd5b5050505091505090565b5050505050600090565b506001600160a01b036129d782856123ce565b16156128f2565b5063ffffffff8060408701511690602087015116146128eb565b90633b9aca0091828102928184041490151715610837576123c591612342565b90918214612a6a576001600160a01b036000911681528060205260408120828252602052604081205480612972575060018201809211612a56575090565b80634e487b7160e01b602492526011600452fd5b5050600090565b6040906001600160a01b03600091168152806020528181208180526020522054908115612a9a57565b60019150565b6001600160a01b03166000526005602052604060002054908115612ac057565b60076020526040600020549150565b9060006020604051612ae08161216d565b828152015260081c90816000526020526040600020549060405191612b048361216d565b825260208201529056fea2646970667358221220ad1599ac3de1493887910ccaaae0e6cd6f861bea4cedbcb7d22187b25059b45f64736f6c63430008140033",
    "linkReferences": {}
  },
  "methodIdentifiers": {
    "balanceOf(address,address)": "f7888aec",
    "cleanTiers(address)": "086bb19a",
    "defaultReservedTokenBeneficiaryOf(address)": "911c80b5",
    "encodedIPFSUriOf(address,uint256)": "bd51923c",
    "encodedTierIPFSUriOf(address,uint256)": "c8df1710",
    "flagsOf(address)": "845104de",
    "isTierRemoved(address,uint256)": "5f646611",
    "maxTierIdOf(address)": "f1bea54f",
    "numberOfBurnedFor(address,uint256)": "2b7e6ef0",
    "numberOfReservedTokensOutstandingFor(address,uint256)": "35314b92",
    "numberOfReservesMintedFor(address,uint256)": "6825bb80",
    "recordAddTiers((uint104,uint32,uint32,uint16,address,bytes32,uint24,bool,bool,bool,bool)[])": "8da5e32b",
    "recordBurn(uint256[])": "86bc2be3",
    "recordFlags((bool,bool,bool,bool))": "cb827e32",
    "recordMint(uint256,uint16[],bool)": "eaa19ab3",
    "recordMintReservesFor(uint256,uint256)": "baa7e80e",
    "recordRemoveTierIds(uint256[])": "20512ba1",
    "recordSetEncodedIPFSUriOf(uint256,bytes32)": "49bd1ac6",
    "recordSetTokenUriResolver(address)": "d84a72c0",
    "recordTransferForTier(uint256,address,address)": "c2c55f94",
    "redemptionWeightOf(address,uint256[])": "144cc2d4",
    "reservedTokenBeneficiaryOf(address,uint256)": "136e651c",
    "tierBalanceOf(address,address,uint256)": "37f44652",
    "tierIdOfToken(uint256)": "42f9914b",
    "tierOf(address,uint256,bool)": "64faa159",
    "tierOfTokenId(address,uint256,bool)": "c44a8e6d",
    "tierVotingUnitsOf(address,address,uint256)": "2e4d0ea8",
    "tiersOf(address,uint256[],bool,uint256,uint256)": "9403a74f",
    "tokenUriResolverOf(address)": "0fab0947",
    "totalRedemptionWeight(address)": "2ae5e492",
    "totalSupply(address)": "e4dc2aa4",
    "votingUnitsOf(address,address)": "93355578"
  },
  "id": 41
}