{
  "abi": [
    {
      "inputs": [],
      "name": "CANT_MINT_MANUALLY",
      "type": "error"
    },
    {
      "inputs": [],
      "name": "INSUFFICIENT_AMOUNT",
      "type": "error"
    },
    {
      "inputs": [],
      "name": "INSUFFICIENT_RESERVES",
      "type": "error"
    },
    {
      "inputs": [],
      "name": "INVALID_CATEGORY",
      "type": "error"
    },
    {
      "inputs": [],
      "name": "INVALID_CATEGORY_SORT_ORDER",
      "type": "error"
    },
    {
      "inputs": [],
      "name": "INVALID_LOCKED_UNTIL",
      "type": "error"
    },
    {
      "inputs": [],
      "name": "INVALID_QUANTITY",
      "type": "error"
    },
    {
      "inputs": [],
      "name": "INVALID_ROYALTY_RATE",
      "type": "error"
    },
    {
      "inputs": [],
      "name": "INVALID_TIER",
      "type": "error"
    },
    {
      "inputs": [],
      "name": "MANUAL_MINTING_NOT_ALLOWED",
      "type": "error"
    },
    {
      "inputs": [],
      "name": "MAX_TIERS_EXCEEDED",
      "type": "error"
    },
    {
      "inputs": [],
      "name": "NO_QUANTITY",
      "type": "error"
    },
    {
      "inputs": [],
      "name": "OUT",
      "type": "error"
    },
    {
      "inputs": [
        {
          "internalType": "uint256",
          "name": "prod1",
          "type": "uint256"
        },
        {
          "internalType": "uint256",
          "name": "denominator",
          "type": "uint256"
        }
      ],
      "name": "PRBMath__MulDivOverflow",
      "type": "error"
    },
    {
      "inputs": [],
      "name": "PRICING_RESOLVER_CHANGES_LOCKED",
      "type": "error"
    },
    {
      "inputs": [],
      "name": "RESERVED_RATE_NOT_ALLOWED",
      "type": "error"
    },
    {
      "inputs": [],
      "name": "TIER_LOCKED",
      "type": "error"
    },
    {
      "inputs": [],
      "name": "TIER_REMOVED",
      "type": "error"
    },
    {
      "inputs": [],
      "name": "VOTING_UNITS_NOT_ALLOWED",
      "type": "error"
    },
    {
      "anonymous": false,
      "inputs": [
        {
          "indexed": true,
          "internalType": "address",
          "name": "nft",
          "type": "address"
        },
        {
          "indexed": false,
          "internalType": "address",
          "name": "caller",
          "type": "address"
        }
      ],
      "name": "CleanTiers",
      "type": "event"
    },
    {
      "inputs": [],
      "name": "MAX_ROYALTY_RATE",
      "outputs": [
        {
          "internalType": "uint256",
          "name": "",
          "type": "uint256"
        }
      ],
      "stateMutability": "view",
      "type": "function"
    },
    {
      "inputs": [
        {
          "internalType": "address",
          "name": "_nft",
          "type": "address"
        },
        {
          "internalType": "address",
          "name": "_owner",
          "type": "address"
        }
      ],
      "name": "balanceOf",
      "outputs": [
        {
          "internalType": "uint256",
          "name": "balance",
          "type": "uint256"
        }
      ],
      "stateMutability": "view",
      "type": "function"
    },
    {
      "inputs": [
        {
          "internalType": "address",
          "name": "",
          "type": "address"
        }
      ],
      "name": "baseUriOf",
      "outputs": [
        {
          "internalType": "string",
          "name": "",
          "type": "string"
        }
      ],
      "stateMutability": "view",
      "type": "function"
    },
    {
      "inputs": [
        {
          "internalType": "address",
          "name": "_nft",
          "type": "address"
        }
      ],
      "name": "cleanTiers",
      "outputs": [],
      "stateMutability": "nonpayable",
      "type": "function"
    },
    {
      "inputs": [
        {
          "internalType": "address",
          "name": "",
          "type": "address"
        }
      ],
      "name": "contractUriOf",
      "outputs": [
        {
          "internalType": "string",
          "name": "",
          "type": "string"
        }
      ],
      "stateMutability": "view",
      "type": "function"
    },
    {
      "inputs": [
        {
          "internalType": "address",
          "name": "",
          "type": "address"
        }
      ],
      "name": "defaultReservedTokenBeneficiaryOf",
      "outputs": [
        {
          "internalType": "address",
          "name": "",
          "type": "address"
        }
      ],
      "stateMutability": "view",
      "type": "function"
    },
    {
      "inputs": [
        {
          "internalType": "address",
          "name": "",
          "type": "address"
        }
      ],
      "name": "defaultRoyaltyBeneficiaryOf",
      "outputs": [
        {
          "internalType": "address",
          "name": "",
          "type": "address"
        }
      ],
      "stateMutability": "view",
      "type": "function"
    },
    {
      "inputs": [
        {
          "internalType": "address",
          "name": "",
          "type": "address"
        },
        {
          "internalType": "uint256",
          "name": "",
          "type": "uint256"
        }
      ],
      "name": "encodedIPFSUriOf",
      "outputs": [
        {
          "internalType": "bytes32",
          "name": "",
          "type": "bytes32"
        }
      ],
      "stateMutability": "view",
      "type": "function"
    },
    {
      "inputs": [
        {
          "internalType": "address",
          "name": "_nft",
          "type": "address"
        },
        {
          "internalType": "uint256",
          "name": "_tokenId",
          "type": "uint256"
        }
      ],
      "name": "encodedTierIPFSUriOf",
      "outputs": [
        {
          "internalType": "bytes32",
          "name": "",
          "type": "bytes32"
        }
      ],
      "stateMutability": "view",
      "type": "function"
    },
    {
      "inputs": [
        {
          "internalType": "address",
          "name": "",
          "type": "address"
        },
        {
          "internalType": "uint256",
          "name": "",
          "type": "uint256"
        }
      ],
      "name": "firstOwnerOf",
      "outputs": [
        {
          "internalType": "address",
          "name": "",
          "type": "address"
        }
      ],
      "stateMutability": "view",
      "type": "function"
    },
    {
      "inputs": [
        {
          "internalType": "address",
          "name": "_nft",
          "type": "address"
        }
      ],
      "name": "flagsOf",
      "outputs": [
        {
          "components": [
            {
              "internalType": "bool",
              "name": "lockReservedTokenChanges",
              "type": "bool"
            },
            {
              "internalType": "bool",
              "name": "lockVotingUnitChanges",
              "type": "bool"
            },
            {
              "internalType": "bool",
              "name": "lockManualMintingChanges",
              "type": "bool"
            },
            {
              "internalType": "bool",
              "name": "preventOverspending",
              "type": "bool"
            }
          ],
          "internalType": "struct JBTiered721Flags",
          "name": "",
          "type": "tuple"
        }
      ],
      "stateMutability": "view",
      "type": "function"
    },
    {
      "inputs": [
        {
          "internalType": "address",
          "name": "_nft",
          "type": "address"
        },
        {
          "internalType": "uint256",
          "name": "_tierId",
          "type": "uint256"
        }
      ],
      "name": "isTierRemoved",
      "outputs": [
        {
          "internalType": "bool",
          "name": "",
          "type": "bool"
        }
      ],
      "stateMutability": "view",
      "type": "function"
    },
    {
      "inputs": [
        {
          "internalType": "address",
          "name": "",
          "type": "address"
        }
      ],
      "name": "maxTierIdOf",
      "outputs": [
        {
          "internalType": "uint256",
          "name": "",
          "type": "uint256"
        }
      ],
      "stateMutability": "view",
      "type": "function"
    },
    {
      "inputs": [
        {
          "internalType": "address",
          "name": "",
          "type": "address"
        },
        {
          "internalType": "uint256",
          "name": "",
          "type": "uint256"
        }
      ],
      "name": "numberOfBurnedFor",
      "outputs": [
        {
          "internalType": "uint256",
          "name": "",
          "type": "uint256"
        }
      ],
      "stateMutability": "view",
      "type": "function"
    },
    {
      "inputs": [
        {
          "internalType": "address",
          "name": "_nft",
          "type": "address"
        },
        {
          "internalType": "uint256",
          "name": "_tierId",
          "type": "uint256"
        }
      ],
      "name": "numberOfReservedTokensOutstandingFor",
      "outputs": [
        {
          "internalType": "uint256",
          "name": "",
          "type": "uint256"
        }
      ],
      "stateMutability": "view",
      "type": "function"
    },
    {
      "inputs": [
        {
          "internalType": "address",
          "name": "",
          "type": "address"
        },
        {
          "internalType": "uint256",
          "name": "",
          "type": "uint256"
        }
      ],
      "name": "numberOfReservesMintedFor",
      "outputs": [
        {
          "internalType": "uint256",
          "name": "",
          "type": "uint256"
        }
      ],
      "stateMutability": "view",
      "type": "function"
    },
    {
      "inputs": [
        {
          "components": [
            {
              "internalType": "uint80",
              "name": "contributionFloor",
              "type": "uint80"
            },
            {
              "internalType": "uint48",
              "name": "lockedUntil",
              "type": "uint48"
            },
            {
              "internalType": "uint40",
              "name": "initialQuantity",
              "type": "uint40"
            },
            {
              "internalType": "uint16",
              "name": "votingUnits",
              "type": "uint16"
            },
            {
              "internalType": "uint16",
              "name": "reservedRate",
              "type": "uint16"
            },
            {
              "internalType": "address",
              "name": "reservedTokenBeneficiary",
              "type": "address"
            },
            {
              "internalType": "uint8",
              "name": "royaltyRate",
              "type": "uint8"
            },
            {
              "internalType": "address",
              "name": "royaltyBeneficiary",
              "type": "address"
            },
            {
              "internalType": "bytes32",
              "name": "encodedIPFSUri",
              "type": "bytes32"
            },
            {
              "internalType": "uint8",
              "name": "category",
              "type": "uint8"
            },
            {
              "internalType": "bool",
              "name": "allowManualMint",
              "type": "bool"
            },
            {
              "internalType": "bool",
              "name": "shouldUseReservedTokenBeneficiaryAsDefault",
              "type": "bool"
            },
            {
              "internalType": "bool",
              "name": "shouldUseRoyaltyBeneficiaryAsDefault",
              "type": "bool"
            },
            {
              "internalType": "bool",
              "name": "transfersPausable",
              "type": "bool"
            }
          ],
          "internalType": "struct JB721TierParams[]",
          "name": "_tiersToAdd",
          "type": "tuple[]"
        }
      ],
      "name": "recordAddTiers",
      "outputs": [
        {
          "internalType": "uint256[]",
          "name": "tierIds",
          "type": "uint256[]"
        }
      ],
      "stateMutability": "nonpayable",
      "type": "function"
    },
    {
      "inputs": [
        {
          "internalType": "uint256[]",
          "name": "_tokenIds",
          "type": "uint256[]"
        }
      ],
      "name": "recordBurn",
      "outputs": [],
      "stateMutability": "nonpayable",
      "type": "function"
    },
    {
      "inputs": [
        {
          "components": [
            {
              "internalType": "bool",
              "name": "lockReservedTokenChanges",
              "type": "bool"
            },
            {
              "internalType": "bool",
              "name": "lockVotingUnitChanges",
              "type": "bool"
            },
            {
              "internalType": "bool",
              "name": "lockManualMintingChanges",
              "type": "bool"
            },
            {
              "internalType": "bool",
              "name": "preventOverspending",
              "type": "bool"
            }
          ],
          "internalType": "struct JBTiered721Flags",
          "name": "_flags",
          "type": "tuple"
        }
      ],
      "name": "recordFlags",
      "outputs": [],
      "stateMutability": "nonpayable",
      "type": "function"
    },
    {
      "inputs": [
        {
          "internalType": "uint256",
          "name": "_amount",
          "type": "uint256"
        },
        {
          "internalType": "uint16[]",
          "name": "_tierIds",
          "type": "uint16[]"
        },
        {
          "internalType": "bool",
          "name": "_isManualMint",
          "type": "bool"
        }
      ],
      "name": "recordMint",
      "outputs": [
        {
          "internalType": "uint256[]",
          "name": "tokenIds",
          "type": "uint256[]"
        },
        {
          "internalType": "uint256",
          "name": "leftoverAmount",
          "type": "uint256"
        }
      ],
      "stateMutability": "nonpayable",
      "type": "function"
    },
    {
      "inputs": [
        {
          "internalType": "uint256",
          "name": "_tierId",
          "type": "uint256"
        },
        {
          "internalType": "uint256",
          "name": "_count",
          "type": "uint256"
        }
      ],
      "name": "recordMintReservesFor",
      "outputs": [
        {
          "internalType": "uint256[]",
          "name": "tokenIds",
          "type": "uint256[]"
        }
      ],
      "stateMutability": "nonpayable",
      "type": "function"
    },
    {
      "inputs": [
        {
          "internalType": "uint256[]",
          "name": "_tierIds",
          "type": "uint256[]"
        }
      ],
      "name": "recordRemoveTierIds",
      "outputs": [],
      "stateMutability": "nonpayable",
      "type": "function"
    },
    {
      "inputs": [
        {
          "internalType": "string",
          "name": "_uri",
          "type": "string"
        }
      ],
      "name": "recordSetBaseUri",
      "outputs": [],
      "stateMutability": "nonpayable",
      "type": "function"
    },
    {
      "inputs": [
        {
          "internalType": "string",
          "name": "_uri",
          "type": "string"
        }
      ],
      "name": "recordSetContractUri",
      "outputs": [],
      "stateMutability": "nonpayable",
      "type": "function"
    },
    {
      "inputs": [
        {
          "internalType": "address",
          "name": "_beneficiary",
          "type": "address"
        }
      ],
      "name": "recordSetDefaultReservedTokenBeneficiary",
      "outputs": [],
      "stateMutability": "nonpayable",
      "type": "function"
    },
    {
      "inputs": [
        {
          "internalType": "uint256",
          "name": "_tierId",
          "type": "uint256"
        },
        {
          "internalType": "bytes32",
          "name": "_encodedIPFSUri",
          "type": "bytes32"
        }
      ],
      "name": "recordSetEncodedIPFSUriOf",
      "outputs": [],
      "stateMutability": "nonpayable",
      "type": "function"
    },
    {
      "inputs": [
        {
          "internalType": "uint256",
          "name": "_tokenId",
          "type": "uint256"
        },
        {
          "internalType": "address",
          "name": "_owner",
          "type": "address"
        }
      ],
      "name": "recordSetFirstOwnerOf",
      "outputs": [],
      "stateMutability": "nonpayable",
      "type": "function"
    },
    {
      "inputs": [
        {
          "internalType": "contract IJBTokenUriResolver",
          "name": "_resolver",
          "type": "address"
        }
      ],
      "name": "recordSetTokenUriResolver",
      "outputs": [],
      "stateMutability": "nonpayable",
      "type": "function"
    },
    {
      "inputs": [
        {
          "internalType": "uint256",
          "name": "_tierId",
          "type": "uint256"
        },
        {
          "internalType": "address",
          "name": "_from",
          "type": "address"
        },
        {
          "internalType": "address",
          "name": "_to",
          "type": "address"
        }
      ],
      "name": "recordTransferForTier",
      "outputs": [],
      "stateMutability": "nonpayable",
      "type": "function"
    },
    {
      "inputs": [
        {
          "internalType": "address",
          "name": "_nft",
          "type": "address"
        },
        {
          "internalType": "uint256[]",
          "name": "_tokenIds",
          "type": "uint256[]"
        }
      ],
      "name": "redemptionWeightOf",
      "outputs": [
        {
          "internalType": "uint256",
          "name": "weight",
          "type": "uint256"
        }
      ],
      "stateMutability": "view",
      "type": "function"
    },
    {
      "inputs": [
        {
          "internalType": "address",
          "name": "_nft",
          "type": "address"
        },
        {
          "internalType": "uint256",
          "name": "_tierId",
          "type": "uint256"
        }
      ],
      "name": "reservedTokenBeneficiaryOf",
      "outputs": [
        {
          "internalType": "address",
          "name": "",
          "type": "address"
        }
      ],
      "stateMutability": "view",
      "type": "function"
    },
    {
      "inputs": [
        {
          "internalType": "address",
          "name": "_nft",
          "type": "address"
        },
        {
          "internalType": "uint256",
          "name": "_tokenId",
          "type": "uint256"
        },
        {
          "internalType": "uint256",
          "name": "_salePrice",
          "type": "uint256"
        }
      ],
      "name": "royaltyInfo",
      "outputs": [
        {
          "internalType": "address",
          "name": "receiver",
          "type": "address"
        },
        {
          "internalType": "uint256",
          "name": "royaltyAmount",
          "type": "uint256"
        }
      ],
      "stateMutability": "view",
      "type": "function"
    },
    {
      "inputs": [
        {
          "internalType": "address",
          "name": "_nft",
          "type": "address"
        },
        {
          "internalType": "uint256",
          "name": "_id",
          "type": "uint256"
        }
      ],
      "name": "tier",
      "outputs": [
        {
          "components": [
            {
              "internalType": "uint256",
              "name": "id",
              "type": "uint256"
            },
            {
              "internalType": "uint256",
              "name": "contributionFloor",
              "type": "uint256"
            },
            {
              "internalType": "uint256",
              "name": "lockedUntil",
              "type": "uint256"
            },
            {
              "internalType": "uint256",
              "name": "remainingQuantity",
              "type": "uint256"
            },
            {
              "internalType": "uint256",
              "name": "initialQuantity",
              "type": "uint256"
            },
            {
              "internalType": "uint256",
              "name": "votingUnits",
              "type": "uint256"
            },
            {
              "internalType": "uint256",
              "name": "reservedRate",
              "type": "uint256"
            },
            {
              "internalType": "address",
              "name": "reservedTokenBeneficiary",
              "type": "address"
            },
            {
              "internalType": "uint256",
              "name": "royaltyRate",
              "type": "uint256"
            },
            {
              "internalType": "address",
              "name": "royaltyBeneficiary",
              "type": "address"
            },
            {
              "internalType": "bytes32",
              "name": "encodedIPFSUri",
              "type": "bytes32"
            },
            {
              "internalType": "uint256",
              "name": "category",
              "type": "uint256"
            },
            {
              "internalType": "bool",
              "name": "allowManualMint",
              "type": "bool"
            },
            {
              "internalType": "bool",
              "name": "transfersPausable",
              "type": "bool"
            }
          ],
          "internalType": "struct JB721Tier",
          "name": "",
          "type": "tuple"
        }
      ],
      "stateMutability": "view",
      "type": "function"
    },
    {
      "inputs": [
        {
          "internalType": "address",
          "name": "",
          "type": "address"
        },
        {
          "internalType": "address",
          "name": "",
          "type": "address"
        },
        {
          "internalType": "uint256",
          "name": "",
          "type": "uint256"
        }
      ],
      "name": "tierBalanceOf",
      "outputs": [
        {
          "internalType": "uint256",
          "name": "",
          "type": "uint256"
        }
      ],
      "stateMutability": "view",
      "type": "function"
    },
    {
      "inputs": [
        {
          "internalType": "uint256",
          "name": "_tokenId",
          "type": "uint256"
        }
      ],
      "name": "tierIdOfToken",
      "outputs": [
        {
          "internalType": "uint256",
          "name": "",
          "type": "uint256"
        }
      ],
      "stateMutability": "pure",
      "type": "function"
    },
    {
      "inputs": [
        {
          "internalType": "address",
          "name": "_nft",
          "type": "address"
        },
        {
          "internalType": "uint256",
          "name": "_tokenId",
          "type": "uint256"
        }
      ],
      "name": "tierOfTokenId",
      "outputs": [
        {
          "components": [
            {
              "internalType": "uint256",
              "name": "id",
              "type": "uint256"
            },
            {
              "internalType": "uint256",
              "name": "contributionFloor",
              "type": "uint256"
            },
            {
              "internalType": "uint256",
              "name": "lockedUntil",
              "type": "uint256"
            },
            {
              "internalType": "uint256",
              "name": "remainingQuantity",
              "type": "uint256"
            },
            {
              "internalType": "uint256",
              "name": "initialQuantity",
              "type": "uint256"
            },
            {
              "internalType": "uint256",
              "name": "votingUnits",
              "type": "uint256"
            },
            {
              "internalType": "uint256",
              "name": "reservedRate",
              "type": "uint256"
            },
            {
              "internalType": "address",
              "name": "reservedTokenBeneficiary",
              "type": "address"
            },
            {
              "internalType": "uint256",
              "name": "royaltyRate",
              "type": "uint256"
            },
            {
              "internalType": "address",
              "name": "royaltyBeneficiary",
              "type": "address"
            },
            {
              "internalType": "bytes32",
              "name": "encodedIPFSUri",
              "type": "bytes32"
            },
            {
              "internalType": "uint256",
              "name": "category",
              "type": "uint256"
            },
            {
              "internalType": "bool",
              "name": "allowManualMint",
              "type": "bool"
            },
            {
              "internalType": "bool",
              "name": "transfersPausable",
              "type": "bool"
            }
          ],
          "internalType": "struct JB721Tier",
          "name": "",
          "type": "tuple"
        }
      ],
      "stateMutability": "view",
      "type": "function"
    },
    {
      "inputs": [
        {
          "internalType": "address",
          "name": "_nft",
          "type": "address"
        },
        {
          "internalType": "address",
          "name": "_account",
          "type": "address"
        },
        {
          "internalType": "uint256",
          "name": "_tierId",
          "type": "uint256"
        }
      ],
      "name": "tierVotingUnitsOf",
      "outputs": [
        {
          "internalType": "uint256",
          "name": "",
          "type": "uint256"
        }
      ],
      "stateMutability": "view",
      "type": "function"
    },
    {
      "inputs": [
        {
          "internalType": "address",
          "name": "_nft",
          "type": "address"
        },
        {
          "internalType": "uint256",
          "name": "_category",
          "type": "uint256"
        },
        {
          "internalType": "uint256",
          "name": "_startingId",
          "type": "uint256"
        },
        {
          "internalType": "uint256",
          "name": "_size",
          "type": "uint256"
        }
      ],
      "name": "tiers",
      "outputs": [
        {
          "components": [
            {
              "internalType": "uint256",
              "name": "id",
              "type": "uint256"
            },
            {
              "internalType": "uint256",
              "name": "contributionFloor",
              "type": "uint256"
            },
            {
              "internalType": "uint256",
              "name": "lockedUntil",
              "type": "uint256"
            },
            {
              "internalType": "uint256",
              "name": "remainingQuantity",
              "type": "uint256"
            },
            {
              "internalType": "uint256",
              "name": "initialQuantity",
              "type": "uint256"
            },
            {
              "internalType": "uint256",
              "name": "votingUnits",
              "type": "uint256"
            },
            {
              "internalType": "uint256",
              "name": "reservedRate",
              "type": "uint256"
            },
            {
              "internalType": "address",
              "name": "reservedTokenBeneficiary",
              "type": "address"
            },
            {
              "internalType": "uint256",
              "name": "royaltyRate",
              "type": "uint256"
            },
            {
              "internalType": "address",
              "name": "royaltyBeneficiary",
              "type": "address"
            },
            {
              "internalType": "bytes32",
              "name": "encodedIPFSUri",
              "type": "bytes32"
            },
            {
              "internalType": "uint256",
              "name": "category",
              "type": "uint256"
            },
            {
              "internalType": "bool",
              "name": "allowManualMint",
              "type": "bool"
            },
            {
              "internalType": "bool",
              "name": "transfersPausable",
              "type": "bool"
            }
          ],
          "internalType": "struct JB721Tier[]",
          "name": "_tiers",
          "type": "tuple[]"
        }
      ],
      "stateMutability": "view",
      "type": "function"
    },
    {
      "inputs": [
        {
          "internalType": "address",
          "name": "",
          "type": "address"
        }
      ],
      "name": "tokenUriResolverOf",
      "outputs": [
        {
          "internalType": "contract IJBTokenUriResolver",
          "name": "",
          "type": "address"
        }
      ],
      "stateMutability": "view",
      "type": "function"
    },
    {
      "inputs": [
        {
          "internalType": "address",
          "name": "_nft",
          "type": "address"
        }
      ],
      "name": "totalRedemptionWeight",
      "outputs": [
        {
          "internalType": "uint256",
          "name": "weight",
          "type": "uint256"
        }
      ],
      "stateMutability": "view",
      "type": "function"
    },
    {
      "inputs": [
        {
          "internalType": "address",
          "name": "_nft",
          "type": "address"
        }
      ],
      "name": "totalSupply",
      "outputs": [
        {
          "internalType": "uint256",
          "name": "supply",
          "type": "uint256"
        }
      ],
      "stateMutability": "view",
      "type": "function"
    },
    {
      "inputs": [
        {
          "internalType": "address",
          "name": "_nft",
          "type": "address"
        },
        {
          "internalType": "address",
          "name": "_account",
          "type": "address"
        }
      ],
      "name": "votingUnitsOf",
      "outputs": [
        {
          "internalType": "uint256",
          "name": "units",
          "type": "uint256"
        }
      ],
      "stateMutability": "view",
      "type": "function"
    }
  ],
  "bytecode": {
    "object": "0x608080604052346100165761375b908161001c8239f35b600080fdfe60e0604052600436101561001257600080fd5b60003560e01c8063086bb19a14612baf5780630fab094714612b74578063136e651c14612b3c578063144cc2d414612a8e57806315fa7dff14612a5357806317161f7d14612a0157806320512ba1146129235780632ae5e4921461284e5780632b7e6ef0146128065780632e4d0ea8146127ed57806335314b921461279557806337f446521461274a57806342f9914b14612727578063453b5abe14611c0657806349bd1ac614611bd0578063538bd5ea14611b905780635f64661114611b415780636262bcb214611a3d5780636825bb80146119f55780637473c9a2146117b857806379a753191461179c578063845104de146116e657806386bc2be3146116025780638cec7d39146115a25780638ed6c0101461155a578063911c80b51461151f5780639335557814611455578063aab0cd80146113ad578063b67cb04714611149578063baa7e80e14610fc6578063bd51923c14610f7e578063c2c55f9414610eba578063c8df171014610e6c578063cb827e3214610db7578063d65981a9146108f3578063d67b78fd146107b2578063d84a72c01461075d578063e4dc2aa4146106cb578063eaa19ab314610398578063f1bea54f1461035e578063f682eeaf146102835763f7888aec146101ea57600080fd5b3461027e57604060031936011261027e57610203612d2c565b61020b612d42565b906000906001600160a01b03809116806000526020936008855260406000205492839116905b61024057505050604051908152f35b90919261027460001991846000526009875260406000208460005287526040600020866000528752604060002054906130d0565b9301919082610231565b600080fd5b3461027e5760208060031936011261027e576001600160a01b036102a5612d2c565b16600052600f81526040600020906040519060009280546102c581612e50565b8085529160019180831690811561033c57506001146102ff575b6102fb856102ef81890382612efc565b60405191829182612f1f565b0390f35b6000908152838120939550925b82841061032957505050816102fb936102ef9282010193856102df565b805485850187015292850192810161030c565b60ff191686860152505050151560051b82010191506102ef816102fb856102df565b3461027e57602060031936011261027e576001600160a01b0361037f612d2c565b1660005260086020526020604060002054604051908152f35b3461027e57606060031936011261027e5760243567ffffffffffffffff811161027e576103c9903690600401612d6c565b9060443515156044350361027e576004356103e383613249565b91336000526005602052604060002084156106b55761040f9061ffff610408846133e3565b1690613642565b906000915b85831061043e576104348585604051928392604084526040840190612dd2565b9060208301520390f35b90919261045461044f8588866131f9565b6133e3565b602083015160ff90818360081c160361068c575b6001809185519084161c161461066257336000526003602052604060002061ffff8216600052602052604060002091604435604435610656575b61062c5782549164ffffffffff8360a01c1615610602578169ffffffffffffffffffff8416116105d8576104f66104e66104db86613040565b61ffff841633613432565b64ffffffffff8560781c166133d6565b156105ae5760019361059269ffffffffffffffffffff9261ffff8664ffffffffff80600019816105a59b60781c16011661056581889073ffffffffff0000000000000000000000000000001973ffffffffff00000000000000000000000000000083549260781b169116179055565b33600052600b6020526040600020848616600052602052816040600020549360a01c160316019116613565565b61059c898b6130ec565b525416906133d6565b93019190610414565b60046040517f985a45d9000000000000000000000000000000000000000000000000000000008152fd5b60046040517f2cd294cf000000000000000000000000000000000000000000000000000000008152fd5b60046040517f0de5859f000000000000000000000000000000000000000000000000000000008152fd5b60046040517f5ef25a72000000000000000000000000000000000000000000000000000000008152fd5b50825460f81c156104a2565b60046040517fd32cb5c1000000000000000000000000000000000000000000000000000000008152fd5b92503360005260056020526001806106ac61ffff84166040600020613642565b94915050610468565b634e487b7160e01b600052603260045260246000fd5b3461027e5760208060031936011261027e576106e5612d2c565b6001600160a01b0360009116806000526008835260406000205490815b610710575050604051908152f35b9091610754600019918360005260038652604060002085600052865260406000205461074d64ffffffffff9182808260781c169160a01c16613100565b16906130d0565b92019081610702565b3461027e57602060031936011261027e576004356001600160a01b03811680910361027e5733600052601060205260406000209073ffffffffffffffffffffffffffffffffffffffff19825416179055600080f35b3461027e576107c036612e06565b90336000526020916011835260406000209167ffffffffffffffff82116108dd576107eb8354612e50565b601f8111610897575b50600093601f8311600114610833575092819293600092610828575b50506000198260011b9260031b1c1916179055600080f35b013590508380610810565b90601f198316948460005282600020926000905b87821061087f575050836001959610610865575b505050811b019055005b60001960f88560031b161c1991013516905583808061085b565b80600184968294958701358155019501920190610847565b8360005284600020601f840160051c8101918685106108d3575b601f0160051c01905b8181106108c757506107f4565b600081556001016108ba565b90915081906108b1565b634e487b7160e01b600052604160045260246000fd5b3461027e57608060031936011261027e5761090c612d2c565b6044359061091981613613565b90610925606435612f74565b6109326040519182612efc565b6064358152601f19610945606435612f74565b0160005b818110610da0575060009490508015610d305761098a905b8060805261096d612ff4565b506001600160a01b03841660005260056020526040600020613642565b60805180151580610d25575b15610c275760208201518160081c03610c00575b508051608051906001809160ff84161c16036109d7575b506109cf8460805185613585565b60805261098a565b6001600160a01b0384166000526003602052604060002090600052602052610a026040600020613040565b610a0e60805185613209565b90602480351580159081610bef575b15610bc15750815169ffffffffffffffffffff1660c052602082015164ffffffffff169081610b8957505080806001600160a01b03876000955b8264ffffffffff6040860151169161ffff64ffffffffff6060880151168160808901511684841615600014610b7c576000915b60ff60c08b0151169686610aa06080518b6133f2565b99166000526012602052604060002060805160005260205261012061010060ff60e06040600020549e0151169d015115159d015115159d610ae66040518060a052612ec3565b60805160a0515260c051602060a0510152604060a0510152606060a0510152608060a051015260a0805101521660c060a05101521660e060a051015261010060a05101521661012060a051015261014060a051015261016060a051015261018060a05101526101a060a0510152610b74610b5f866130dd565b9560a051610b6d82866130ec565b52836130ec565b505b856109c1565b8260a08a01511691610a8a565b6363b0cd00908282018211610bad57506001600160a01b0387849384930195610a57565b634e487b7160e01b60005260116004526000fd5b925082610bda575b505015610b76576000608052610b76565b60ff91925060e0903592015116118680610bc9565b50813560ff60e08501511614610a1d565b610c2191506001600160a01b03841660005260056020526040600020613642565b856109aa565b82866064358103610d1d575b5060405180916020820160208352815180915260206040840192019060005b818110610c60575050500390f35b9193509160206101c082610d0f6001948851805182526020810151602083015260408101516040830152606081015160608301526080810151608083015260a081015160a083015260c081015160c08301526001600160a01b038060e08301511660e084015261010080830151908401526101209081830151169083015261014080820151908301526101608082015190830152610180808201511515908301526101a0809101511515910152565b019401910191849392610c52565b815281610c33565b506064358610610996565b5060243580610d7757506001600160a01b03821660005260006020526040600020600080526020526040600020545b8015610d6f575b61098a90610961565b506001610d66565b6001600160a01b0383166000526007602052604060002090600052602052604060002054610d5f565b602090610dab612f8c565b82828601015201610949565b3461027e57608060031936011261027e573360005260046020526040600020600435801515810361027e57610df990829060ff60ff1983541691151516179055565b60243580151580910361027e5781546044359081151580920361027e576064359081151580920361027e577fffffffffffffffffffffffffffffffffffffffffffffffffffffffff000000ff61ff0063ff00000062ff00009460181b169560081b169116179160101b1617179055600080f35b3461027e57604060031936011261027e576001600160a01b03610e8d612d2c565b1660005260126020526040600020633b9aca00602435046000526020526020604060002054604051908152f35b3461027e57606060031936011261027e57600435610ed6612d42565b604435906001600160a01b039081831680930361027e571680610f2e575b5080610efc57005b336000526009602052604060002090600052602052604060002090600052602052604060002060018154019055600080f35b336000526009602052604060002090600052602052604060002082600052602052604060002080548015610f685760001901905582610ef4565b634e487b7160e01b600052601160045260246000fd5b3461027e57604060031936011261027e576001600160a01b03610f9f612d2c565b16600052601260205260406000206024356000526020526020604060002054604051908152f35b3461027e57604060031936011261027e5760043560249081359033600052602091600383526040600020826000528352604060002061100e61100782613040565b8433613432565b821161111f5733600052600a8452604060002083600052845260406000206110378382546130d0565b905561104282613249565b9433600052600b855260406000208460005285526040600020549160005b84811061107a57604051878152806102fb818a018b612dd2565b815464ffffffffff90818160781c16801561110a5786836110ed6110f994600197966000196110f39601916110e4838c9073ffffffffff0000000000000000000000000000001973ffffffffff00000000000000000000000000000083549260781b169116179055565b60a01c16613100565b166130d0565b88613565565b611103828b6130ec565b5201611060565b85634e487b7160e01b60005260116004526000fd5b60046040517f44df3332000000000000000000000000000000000000000000000000000000008152fd5b3461027e57604060031936011261027e57611162612d2c565b61116a612f8c565b506001600160a01b038116908160005260036020526040600020633b9aca00602435046000526020526111a06040600020613040565b6111b2633b9aca006024350483613209565b9269ffffffffffffffffffff8251169364ffffffffff9182602085015116801560001461139857506000945b83604086015116936060860151169261ffff6080870151166001600160a01b03821615600014611389576000905b60c088015160ff1693602435633b9aca009004611228916133f2565b9460005260126020526040600020602435633b9aca0090046000526020526040600020549560e089015160ff16976101008a0151151599610120015115159a6040519c6112748e612ec3565b8d602435633b9aca00900481526020015260408d015260608c015260808b015260a08a015261ffff1660c08901526001600160a01b031660e08801526101008701526001600160a01b03166101208601526101408501526101608401526101808301526101a0820152604051908161138391805182526020810151602083015260408101516040830152606081015160608301526080810151608083015260a081015160a083015260c081015160c08301526001600160a01b038060e08301511660e084015261010080830151908401526101209081830151169083015261014080820151908301526101608082015190830152610180808201511515908301526101a0809101511515910152565b6101c090f35b61ffff60a0880151169061120c565b6363b0cd00908101809111610f6857946111de565b3461027e5760208060031936011261027e576001600160a01b036113cf612d2c565b16600052601181526040600020906040519060009280546113ef81612e50565b8085529160019180831690811561033c5750600114611418576102fb856102ef81890382612efc565b6000908152838120939550925b82841061144257505050816102fb936102ef9282010193856102df565b8054858501870152928501928101611425565b3461027e57604060031936011261027e5761146e612d2c565b611476612d42565b906000906001600160a01b03809116806000526020936008855260406000205492839116925b6114ab57505050604051908152f35b816000526009855260406000208360005285526040600020816000528552604060002054806114e0575b50600019018061149c565b6000199194611512611518928560005260038952604060002088600052895261ffff60406000205460c81c1690613117565b906130d0565b93906114d5565b3461027e57602060031936011261027e5760206001600160a01b0380611543612d2c565b16600052600c825260406000205416604051908152f35b3461027e57604060031936011261027e5760206001600160a01b038061157e612d2c565b16600052600e82526040600020602435600052825260406000205416604051908152f35b3461027e57604060031936011261027e576115bb612d42565b33600052600e60205260406000206004356000526020526001600160a01b036040600020911673ffffffffffffffffffffffffffffffffffffffff19825416179055600080f35b3461027e5760208060031936011261027e5760043567ffffffffffffffff811161027e57611634903690600401612d6c565b919060005b83811061164257005b633b9aca006116528286856131f9565b350433600052600b84526040600020816000528452604060002061167681546130dd565b90553360005260038452604060002090600052835260406000209064ffffffffff9182815460781c16928314610f6857805473ffffffffff0000000000000000000000000000001916600193840160781b73ffffffffff0000000000000000000000000000001617905501611639565b3461027e57602060031936011261027e576001600160a01b03611707612d2c565b6000606060405161171781612e8a565b8281528260208201528260408201520152166000526004602052608060406000206040519061174582612e8a565b5460ff81161515918281526020810160ff8360081c161515815260ff60606040840193828660101c1615158552019360181c1615158352604051938452511515602084015251151560408301525115156060820152f35b3461027e57600060031936011261027e57602060405160c88152f35b3461027e57604060031936011261027e576117d1612d2c565b6117d9612f8c565b506001600160a01b0381169081600052600360205260406000206024356000526020526118096040600020613040565b61181560243583613209565b9269ffffffffffffffffffff8251169364ffffffffff918260208501511680156000146119e057506000945b83604086015116936060860151169261ffff6080870151166001600160a01b038216156000146119d1576000905b60c088015160ff1693602435611884916133f2565b94600052601260205260406000206024356000526020526040600020549560e089015160ff16976101008a0151151599610120015115159a6040519c6118c98e612ec3565b8d60243581526020015260408d015260608c015260808b015260a08a015261ffff1660c08901526001600160a01b031660e08801526101008701526001600160a01b03166101208601526101408501526101608401526101808301526101a0820152604051908161138391805182526020810151602083015260408101516040830152606081015160608301526080810151608083015260a081015160a083015260c081015160c08301526001600160a01b038060e08301511660e084015261010080830151908401526101209081830151169083015261014080820151908301526101608082015190830152610180808201511515908301526101a0809101511515910152565b61ffff60a0880151169061186f565b6363b0cd00908101809111610f685794611841565b3461027e57604060031936011261027e576001600160a01b03611a16612d2c565b16600052600a60205260406000206024356000526020526020604060002054604051908152f35b3461027e57611a4b36612e06565b9033600052602091600f835260406000209167ffffffffffffffff82116108dd57611a768354612e50565b601f8111611afb575b50600093601f8311600114611ab25750928192936000926108285750506000198260011b9260031b1c1916179055600080f35b90601f198316948460005282600020926000905b878210611ae357505083600195961061086557505050811b019055005b80600184968294958701358155019501920190611ac6565b8360005284600020601f840160051c810191868510611b37575b601f0160051c01905b818110611b2b5750611a7f565b60008155600101611b1e565b9091508190611b15565b3461027e57604060031936011261027e576020611b5c612d2c565b6001600160a01b03602435911660005260058252600180611b81836040600020613642565b5160ff60405194161c16148152f35b3461027e57606060031936011261027e576040611bbb611bae612d2c565b6044359060243590613193565b6001600160a01b038351921682526020820152f35b3461027e57604060031936011261027e573360005260126020526040600020600435600052602052602435604060002055600080f35b3461027e57602060031936011261027e5767ffffffffffffffff806004351161027e5736602360043501121561027e57600435600401351161027e573660246101c0600435600401350260043501011161027e5733600052600860205260406000205461ffff611c7c60043560040135836130d0565b116126fd57611c8a33613613565b611c9960043560040135613249565b90826126ef5760005b906000611cad612f8c565b50336000526004602052604060002060ff60405191611ccb83612e8a565b5481811615158352818160081c1615156020840152818160101c161515604084015260181c161515606082015260005b600435600401358110611d3e576102fb86611d1b6004803501358a6130d0565b336000526008602052604060002055604051918291602083526020830190612dd2565b611d5c611d57826004356004013560246004350161327a565b6132a8565b633b9ac9ff64ffffffffff604083015116116126c557611d7a612f8c565b9060ff610120820151161561269b578261262e575b602084015115158061261d575b6125f3578351158015906125e5575b806125d4575b6125aa57604084015115158061259c575b6125725764ffffffffff604082015116156125485765ffffffffffff602082015116801515908161253e575b506125145760c860ff60c083015116116124ea57611e0c838a6130d0565b916001830183119081610f685769ffffffffffffffffffff83511665ffffffffffff60208501511680156000146124be575060ff916120a76101209260005b8764ffffffffff60408201511661ffff60608301511661ffff6080840151168960c085015116918a8a860151169364ffffffffff6101a0610140880151151597015115159760405199611e9d8b612ea6565b8a521660208901528060408901526060880152608087015260a086015260c085015260e08401526101008301528482015233600052600360205260406000206001890160005260205260018460406000209269ffffffffffffffffffff8151168454907fffffffffffffffffffffffffffffffffff0000000000000000000000000000006effffffffff00000000000000000000602085015160501b16921617178455611f8a64ffffffffff604083015116859073ffffffffff0000000000000000000000000000001973ffffffffff00000000000000000000000000000083549260781b169116179055565b606081015184547eff0000000000000000000000000000000000000000000000000000000000007affff00000000000000000000000000000000000000000000000000608085015160c81b167cffff00000000000000000000000000000000000000000000000000000060a086015160d81b167dff000000000000000000000000000000000000000000000000000000000060c087015160e81b169160e0870151946001600160a01b0378ffffffffff00000000000000000000000000000000000000007fff000000000000000000000000000000000000000000000000000000000000006101008b0151151560f81b169860a01b169116171717179160f01b16171784550151151591019060ff60ff1983541691151516179055565b01511660ff6101208401511603612492575b60a082016001600160a01b03815116806123f0575b505060e082016001600160a01b038151168061234e575b50506101008201518061232a575b5087612113575b505090600180920161210c82896130ec565b5201611cfb565b90873360005260056020528061212d8a6040600020613642565b915b61213a5750506120fa565b919690929860208401518360081c0361230b575b612159898433613585565b60ff6101208a01511633600052600360205260406000208560005260205260ff60406000205460f01c16101580612301575b15612278575050600284016001850111610f6857600284018203612254575b336000526006602052888860406000205403612248575b610f685780841490811582612225575b6121eb575b50509660018301956000805b9391929361212f565b60009950901561221b576000905b3360005260006020526040600020906000526020526040600020558a806121d6565b60018401906121f9565b5033600052600060205260406000208160005260205260406000205415156121d1565b886040600020556121c1565b336000526000602052604060002060018501600052602052816040600020556121aa565b809a9392989a1580156122f8575b156122ed575050600181018111610f68578084036122c8575b506001830197600033600052600660205280604060002054156121e257600060408120556121e2565b336000526000602052604060002090600052602052600183016040600020558a61229f565b9750989096806121e2565b508c8111612286565b508c84111561218b565b9250336000526005602052612324826040600020613642565b9261214e565b3360005260126020526040600020600185016000526020526040600020558a6120f3565b610180840151156123af575033600052600d6020526001600160a01b038060406000205416915116809103612387575b505b8a806120e5565b60406000209073ffffffffffffffffffffffffffffffffffffffff198254161790558a61237e565b905033600052600260205260406000206001850160005260205260406000209073ffffffffffffffffffffffffffffffffffffffff19825416179055612380565b61016084015115612451575033600052600c6020526001600160a01b038060406000205416915116809103612429575b505b8a806120ce565b60406000209073ffffffffffffffffffffffffffffffffffffffff198254161790558a612420565b905033600052600160205260406000206001850160005260205260406000209073ffffffffffffffffffffffffffffffffffffffff19825416179055612422565b336000526007602052604060002060ff61012084015116600052602052600183016040600020556120b9565b91826363b0ccff19810111610f68576120a76101209264ffffffffff6363b0ccff1960ff960116611e4b565b60046040517ffd912b83000000000000000000000000000000000000000000000000000000008152fd5b60046040517fd509b54d000000000000000000000000000000000000000000000000000000008152fd5b905042118a611dee565b60046040517ff0543188000000000000000000000000000000000000000000000000000000008152fd5b60046040517f30ec637f000000000000000000000000000000000000000000000000000000008152fd5b506101408101511515611dc2565b60046040517fa75b1cd5000000000000000000000000000000000000000000000000000000008152fd5b5061ffff6080820151161515611db1565b506101408101511515611dab565b60046040517f03124006000000000000000000000000000000000000000000000000000000008152fd5b5061ffff6060820151161515611d9c565b905081600019810111610f6857612658611d5760001984016004356004013560246004350161327a565b9060ff6101208201511660ff610120840151161115611d8f5760046040517f72afaf54000000000000000000000000000000000000000000000000000000008152fd5b60046040517f2b285ab8000000000000000000000000000000000000000000000000000000008152fd5b60046040517f49016ea3000000000000000000000000000000000000000000000000000000008152fd5b6126f8336135e4565b611ca2565b60046040517f378d1916000000000000000000000000000000000000000000000000000000008152fd5b3461027e57602060031936011261027e576020604051633b9aca00600435048152f35b3461027e5761275836612d9d565b916001600160a01b038091166000526009602052604060002091166000526020526040600020906000526020526020604060002054604051908152f35b3461027e57604060031936011261027e5760206127e56127b3612d2c565b6024356001600160a01b0382166000526003845260406000208160005284526127df6040600020613040565b91613432565b604051908152f35b3461027e5760206127e561280036612d9d565b9161312a565b3461027e57604060031936011261027e576001600160a01b03612827612d2c565b16600052600b60205260406000206024356000526020526020604060002054604051908152f35b3461027e5760208060031936011261027e57612868612d2c565b60006001600160a01b0382169182600052600884526040600020549261288c612ff4565b5060005b8481106128a1578584604051908152f35b816000526003865260406000209360018201948560005287526128c76040600020613040565b69ffffffffffffffffffff81511664ffffffffff91876128f4846060840151168560408501511690613100565b9511610f685761291d9461151293612910612917938b8b613432565b91166130d0565b90613117565b92612890565b3461027e5760208060031936011261027e5760043567ffffffffffffffff811161027e57612955903690600401612d6c565b60005b81811061296157005b61296c8183856131f9565b35903360005260038552604060002082600052855264ffffffffff60406000205460501c166363b0cd008101809111610f68574211156129d75760ff91336000526005865260406000208160081c60005286526040600020906001938491161b815417905501612958565b60046040517fd6e7aa22000000000000000000000000000000000000000000000000000000008152fd5b3461027e57602060031936011261027e57612a1a612d2c565b33600052600c6020526001600160a01b036040600020911673ffffffffffffffffffffffffffffffffffffffff19825416179055600080f35b3461027e57602060031936011261027e5760206001600160a01b0380612a77612d2c565b16600052600d825260406000205416604051908152f35b3461027e57604060031936011261027e57612aa7612d2c565b60243567ffffffffffffffff811161027e57612ac7903690600401612d6c565b6000916001600160a01b0360009416915b808510612aea57602084604051908152f35b909192612b3160019185600052602060038152604060002090633b9aca00612b138a888a6131f9565b35046000525269ffffffffffffffffffff60406000205416906130d0565b940193929190612ad8565b3461027e57604060031936011261027e576020612b63612b5a612d2c565b60243590613209565b6001600160a01b0360405191168152f35b3461027e57602060031936011261027e5760206001600160a01b0380612b98612d2c565b166000526010825260406000205416604051908152f35b3461027e5760208060031936011261027e57612bc9612d2c565b90612bd382613613565b90612bdd836135e4565b6000936001600160a01b038116948560005260059283855280612c04816040600020613642565b915b612c3657877f4a0f854ce3c180d56f3e9eb47eb064c595bf3de0ab9af45425291e5b1bb733a887604051338152a2005b8690868301518160081c03612d0d575b60018080855160ff85161c1603612c6a575b5090612c649185613585565b80612c06565b909380925001808211610f68578314612cc957876000526000865260406000208160005286528260406000205403612ca9575b505b8582612c64612c58565b876000526000865260406000209060005285528160406000205587612c9d565b87600052600086526040600020816000528652604060002054612ced575b50612c9f565b876000526000865260406000209060005285526000604081205587612ce7565b9150508660005283855285612d26826040600020613642565b91612c46565b600435906001600160a01b038216820361027e57565b602435906001600160a01b038216820361027e57565b35906001600160a01b038216820361027e57565b9181601f8401121561027e5782359167ffffffffffffffff831161027e576020808501948460051b01011161027e57565b600319606091011261027e576001600160a01b0390600435828116810361027e5791602435908116810361027e579060443590565b90815180825260208080930193019160005b828110612df2575050505090565b835185529381019392810192600101612de4565b90602060031983011261027e5760043567ffffffffffffffff9283821161027e578060238301121561027e57816004013593841161027e576024848301011161027e576024019190565b90600182811c92168015612e80575b6020831014612e6a57565b634e487b7160e01b600052602260045260246000fd5b91607f1691612e5f565b6080810190811067ffffffffffffffff8211176108dd57604052565b610140810190811067ffffffffffffffff8211176108dd57604052565b6101c0810190811067ffffffffffffffff8211176108dd57604052565b6040810190811067ffffffffffffffff8211176108dd57604052565b90601f601f19910116810190811067ffffffffffffffff8211176108dd57604052565b60208082528251818301819052939260005b858110612f5357505050601f19601f8460006040809697860101520116010190565b818101830151848201604001528201612f31565b3590811515820361027e57565b67ffffffffffffffff81116108dd5760051b60200190565b60405190612f9982612ec3565b816101a06000918281528260208201528260408201528260608201528260808201528260a08201528260c08201528260e082015282610100820152826101208201528261014082015282610160820152826101808201520152565b6040519061300182612ea6565b816101206000918281528260208201528260408201528260608201528260808201528260a08201528260c08201528260e0820152826101008201520152565b9060405161304d81612ea6565b61012060ff60018395805469ffffffffffffffffffff8116865264ffffffffff808260501c166020880152808260781c1660408801528160a01c16606087015261ffff808260c81c1660808801528160d81c1660a0870152838160e81c1660c0870152838160f01c1660e087015260f81c15156101008601520154161515910152565b91908201809211610f6857565b6000198114610f685760010190565b80518210156106b55760209160051b010190565b64ffffffffff9182169082160391908211610f6857565b81810292918115918404141715610f6857565b916001600160a01b03809316916000938385526009602052604085209116845260205260408320818452602052604083205491821561318d578361ffff9260409261318a96526003602052828220908252602052205460c81c1690613117565b90565b50505090565b9290633b9aca009004916131a783856133f2565b926001600160a01b03808516156131ed5761318a93949516600052600360205260406000209060005260205260ff60c06131e46040600020613040565b01511690613681565b50600094508493505050565b91908110156106b55760051b0190565b6001600160a01b038091169160009083825260016020526040822090825260205281604082205416928361318d5760409293508152600c60205220541690565b9061325382612f74565b6132606040519182612efc565b828152601f196132708294612f74565b0190602036910137565b91908110156106b5576101c0020190565b359061ffff8216820361027e57565b359060ff8216820361027e57565b6101c090818136031261027e5760405191820182811067ffffffffffffffff8211176108dd57604052803569ffffffffffffffffffff8116810361027e578252602081013565ffffffffffff8116810361027e576020830152604081013564ffffffffff8116810361027e5760408301526133256060820161328b565b60608301526133366080820161328b565b608083015261334760a08201612d58565b60a083015261335860c0820161329a565b60c083015261336960e08201612d58565b60e0830152610100808201359083015261012061338781830161329a565b90830152610140613399818301612f67565b908301526101606133ab818301612f67565b908301526101806133bd818301612f67565b908301526133cf6101a0809201612f67565b9082015290565b91908203918211610f6857565b3561ffff8116810361027e5790565b6001600160a01b038091169160009083825260026020526040822090825260205281604082205416928361318d5760409293508152600d60205220541690565b919060a082019061ffff908183511615801561354a575b8015613530575b613526576001600160a01b03600095168552600a60205260408520908552602052604084205492606081019064ffffffffff80604061349288838751166133d6565b9301511680921461351d576134ae8692826134b4955116613100565b166133d6565b908083511680156135095782049251169081156134f557066134e7575b8082116134e25761318a92506133d6565b505090565b6134f0906130dd565b6134d1565b602485634e487b7160e01b81526012600452fd5b602486634e487b7160e01b81526012600452fd5b50505050505090565b5050505050600090565b506001600160a01b036135438287613209565b1615613450565b5064ffffffffff806060860151169060408601511614613449565b90633b9aca0091828102928184041490151715610f685761318a916130d0565b909182146135dd576001600160a01b0360009116815280602052604081208282526020526040812054806135d75750600182018092116135c3575090565b80634e487b7160e01b602492526011600452fd5b91505090565b5050600090565b6040906001600160a01b0360009116815280602052818120818052602052205490811561360d57565b60019150565b6001600160a01b0316600052600660205260406000205490811561363357565b60086020526040600020549150565b906000602060405161365381612ee0565b828152015260081c9081600052602052604060002054906040519161367783612ee0565b8252602082015290565b919091600019838209928082029182808610950394808603951461371b5760c88510156136e3577f5c28f5c28f5c28f5c28f5c28f5c28f5c28f5c28f5c28f5c28f5c28f5c28f5c2993949160c8910990828211900360fd1b910360031c170290565b604485604051907f773cc18c000000000000000000000000000000000000000000000000000000008252600482015260c86024820152fd5b505060c89004915056fea2646970667358221220348a5883fc5cd15fa0faac3ecaa1f449c7f39bc3373c77b6d5ee0d0299724c2064736f6c63430008110033",
    "linkReferences": {}
  },
  "methodIdentifiers": {
    "MAX_ROYALTY_RATE()": "79a75319",
    "balanceOf(address,address)": "f7888aec",
    "baseUriOf(address)": "f682eeaf",
    "cleanTiers(address)": "086bb19a",
    "contractUriOf(address)": "aab0cd80",
    "defaultReservedTokenBeneficiaryOf(address)": "911c80b5",
    "defaultRoyaltyBeneficiaryOf(address)": "15fa7dff",
    "encodedIPFSUriOf(address,uint256)": "bd51923c",
    "encodedTierIPFSUriOf(address,uint256)": "c8df1710",
    "firstOwnerOf(address,uint256)": "8ed6c010",
    "flagsOf(address)": "845104de",
    "isTierRemoved(address,uint256)": "5f646611",
    "maxTierIdOf(address)": "f1bea54f",
    "numberOfBurnedFor(address,uint256)": "2b7e6ef0",
    "numberOfReservedTokensOutstandingFor(address,uint256)": "35314b92",
    "numberOfReservesMintedFor(address,uint256)": "6825bb80",
    "recordAddTiers((uint80,uint48,uint40,uint16,uint16,address,uint8,address,bytes32,uint8,bool,bool,bool,bool)[])": "453b5abe",
    "recordBurn(uint256[])": "86bc2be3",
    "recordFlags((bool,bool,bool,bool))": "cb827e32",
    "recordMint(uint256,uint16[],bool)": "eaa19ab3",
    "recordMintReservesFor(uint256,uint256)": "baa7e80e",
    "recordRemoveTierIds(uint256[])": "20512ba1",
    "recordSetBaseUri(string)": "6262bcb2",
    "recordSetContractUri(string)": "d67b78fd",
    "recordSetDefaultReservedTokenBeneficiary(address)": "17161f7d",
    "recordSetEncodedIPFSUriOf(uint256,bytes32)": "49bd1ac6",
    "recordSetFirstOwnerOf(uint256,address)": "8cec7d39",
    "recordSetTokenUriResolver(address)": "d84a72c0",
    "recordTransferForTier(uint256,address,address)": "c2c55f94",
    "redemptionWeightOf(address,uint256[])": "144cc2d4",
    "reservedTokenBeneficiaryOf(address,uint256)": "136e651c",
    "royaltyInfo(address,uint256,uint256)": "538bd5ea",
    "tier(address,uint256)": "7473c9a2",
    "tierBalanceOf(address,address,uint256)": "37f44652",
    "tierIdOfToken(uint256)": "42f9914b",
    "tierOfTokenId(address,uint256)": "b67cb047",
    "tierVotingUnitsOf(address,address,uint256)": "2e4d0ea8",
    "tiers(address,uint256,uint256,uint256)": "d65981a9",
    "tokenUriResolverOf(address)": "0fab0947",
    "totalRedemptionWeight(address)": "2ae5e492",
    "totalSupply(address)": "e4dc2aa4",
    "votingUnitsOf(address,address)": "93355578"
  },
  "id": 40
}