{
  "abi": [
    {
      "inputs": [],
      "name": "CANT_MINT_MANUALLY",
      "type": "error"
    },
    {
      "inputs": [],
      "name": "INSUFFICIENT_AMOUNT",
      "type": "error"
    },
    {
      "inputs": [],
      "name": "INSUFFICIENT_RESERVES",
      "type": "error"
    },
    {
      "inputs": [],
      "name": "INVALID_CATEGORY_SORT_ORDER",
      "type": "error"
    },
    {
      "inputs": [],
      "name": "INVALID_QUANTITY",
      "type": "error"
    },
    {
      "inputs": [],
      "name": "INVALID_TIER",
      "type": "error"
    },
    {
      "inputs": [],
      "name": "MANUAL_MINTING_NOT_ALLOWED",
      "type": "error"
    },
    {
      "inputs": [],
      "name": "MAX_TIERS_EXCEEDED",
      "type": "error"
    },
    {
      "inputs": [],
      "name": "NO_QUANTITY",
      "type": "error"
    },
    {
      "inputs": [],
      "name": "OUT",
      "type": "error"
    },
    {
      "inputs": [],
      "name": "RESERVED_RATE_NOT_ALLOWED",
      "type": "error"
    },
    {
      "inputs": [],
      "name": "TIER_REMOVED",
      "type": "error"
    },
    {
      "inputs": [],
      "name": "VOTING_UNITS_NOT_ALLOWED",
      "type": "error"
    },
    {
      "anonymous": false,
      "inputs": [
        {
          "indexed": true,
          "internalType": "address",
          "name": "nft",
          "type": "address"
        },
        {
          "indexed": false,
          "internalType": "address",
          "name": "caller",
          "type": "address"
        }
      ],
      "name": "CleanTiers",
      "type": "event"
    },
    {
      "inputs": [
        {
          "internalType": "address",
          "name": "_nft",
          "type": "address"
        },
        {
          "internalType": "address",
          "name": "_owner",
          "type": "address"
        }
      ],
      "name": "balanceOf",
      "outputs": [
        {
          "internalType": "uint256",
          "name": "balance",
          "type": "uint256"
        }
      ],
      "stateMutability": "view",
      "type": "function"
    },
    {
      "inputs": [
        {
          "internalType": "address",
          "name": "_nft",
          "type": "address"
        }
      ],
      "name": "cleanTiers",
      "outputs": [],
      "stateMutability": "nonpayable",
      "type": "function"
    },
    {
      "inputs": [
        {
          "internalType": "address",
          "name": "",
          "type": "address"
        }
      ],
      "name": "defaultReservedTokenBeneficiaryOf",
      "outputs": [
        {
          "internalType": "address",
          "name": "",
          "type": "address"
        }
      ],
      "stateMutability": "view",
      "type": "function"
    },
    {
      "inputs": [
        {
          "internalType": "address",
          "name": "",
          "type": "address"
        },
        {
          "internalType": "uint256",
          "name": "",
          "type": "uint256"
        }
      ],
      "name": "encodedIPFSUriOf",
      "outputs": [
        {
          "internalType": "bytes32",
          "name": "",
          "type": "bytes32"
        }
      ],
      "stateMutability": "view",
      "type": "function"
    },
    {
      "inputs": [
        {
          "internalType": "address",
          "name": "_nft",
          "type": "address"
        },
        {
          "internalType": "uint256",
          "name": "_tokenId",
          "type": "uint256"
        }
      ],
      "name": "encodedTierIPFSUriOf",
      "outputs": [
        {
          "internalType": "bytes32",
          "name": "",
          "type": "bytes32"
        }
      ],
      "stateMutability": "view",
      "type": "function"
    },
    {
      "inputs": [
        {
          "internalType": "address",
          "name": "_nft",
          "type": "address"
        }
      ],
      "name": "flagsOf",
      "outputs": [
        {
          "components": [
            {
              "internalType": "bool",
              "name": "lockReservedTokenChanges",
              "type": "bool"
            },
            {
              "internalType": "bool",
              "name": "lockVotingUnitChanges",
              "type": "bool"
            },
            {
              "internalType": "bool",
              "name": "lockManualMintingChanges",
              "type": "bool"
            },
            {
              "internalType": "bool",
              "name": "preventOverspending",
              "type": "bool"
            }
          ],
          "internalType": "struct JBTiered721Flags",
          "name": "",
          "type": "tuple"
        }
      ],
      "stateMutability": "view",
      "type": "function"
    },
    {
      "inputs": [
        {
          "internalType": "address",
          "name": "_nft",
          "type": "address"
        },
        {
          "internalType": "uint256",
          "name": "_tierId",
          "type": "uint256"
        }
      ],
      "name": "isTierRemoved",
      "outputs": [
        {
          "internalType": "bool",
          "name": "",
          "type": "bool"
        }
      ],
      "stateMutability": "view",
      "type": "function"
    },
    {
      "inputs": [
        {
          "internalType": "address",
          "name": "",
          "type": "address"
        }
      ],
      "name": "maxTierIdOf",
      "outputs": [
        {
          "internalType": "uint256",
          "name": "",
          "type": "uint256"
        }
      ],
      "stateMutability": "view",
      "type": "function"
    },
    {
      "inputs": [
        {
          "internalType": "address",
          "name": "",
          "type": "address"
        },
        {
          "internalType": "uint256",
          "name": "",
          "type": "uint256"
        }
      ],
      "name": "numberOfBurnedFor",
      "outputs": [
        {
          "internalType": "uint256",
          "name": "",
          "type": "uint256"
        }
      ],
      "stateMutability": "view",
      "type": "function"
    },
    {
      "inputs": [
        {
          "internalType": "address",
          "name": "_nft",
          "type": "address"
        },
        {
          "internalType": "uint256",
          "name": "_tierId",
          "type": "uint256"
        }
      ],
      "name": "numberOfReservedTokensOutstandingFor",
      "outputs": [
        {
          "internalType": "uint256",
          "name": "",
          "type": "uint256"
        }
      ],
      "stateMutability": "view",
      "type": "function"
    },
    {
      "inputs": [
        {
          "internalType": "address",
          "name": "",
          "type": "address"
        },
        {
          "internalType": "uint256",
          "name": "",
          "type": "uint256"
        }
      ],
      "name": "numberOfReservesMintedFor",
      "outputs": [
        {
          "internalType": "uint256",
          "name": "",
          "type": "uint256"
        }
      ],
      "stateMutability": "view",
      "type": "function"
    },
    {
      "inputs": [
        {
          "components": [
            {
              "internalType": "uint104",
              "name": "price",
              "type": "uint104"
            },
            {
              "internalType": "uint32",
              "name": "initialQuantity",
              "type": "uint32"
            },
            {
              "internalType": "uint32",
              "name": "votingUnits",
              "type": "uint32"
            },
            {
              "internalType": "uint16",
              "name": "reservedRate",
              "type": "uint16"
            },
            {
              "internalType": "address",
              "name": "reservedTokenBeneficiary",
              "type": "address"
            },
            {
              "internalType": "bytes32",
              "name": "encodedIPFSUri",
              "type": "bytes32"
            },
            {
              "internalType": "uint24",
              "name": "category",
              "type": "uint24"
            },
            {
              "internalType": "bool",
              "name": "allowManualMint",
              "type": "bool"
            },
            {
              "internalType": "bool",
              "name": "shouldUseReservedTokenBeneficiaryAsDefault",
              "type": "bool"
            },
            {
              "internalType": "bool",
              "name": "transfersPausable",
              "type": "bool"
            },
            {
              "internalType": "bool",
              "name": "useVotingUnits",
              "type": "bool"
            }
          ],
          "internalType": "struct JB721TierParams[]",
          "name": "_tiersToAdd",
          "type": "tuple[]"
        }
      ],
      "name": "recordAddTiers",
      "outputs": [
        {
          "internalType": "uint256[]",
          "name": "tierIds",
          "type": "uint256[]"
        }
      ],
      "stateMutability": "nonpayable",
      "type": "function"
    },
    {
      "inputs": [
        {
          "internalType": "uint256[]",
          "name": "_tokenIds",
          "type": "uint256[]"
        }
      ],
      "name": "recordBurn",
      "outputs": [],
      "stateMutability": "nonpayable",
      "type": "function"
    },
    {
      "inputs": [
        {
          "components": [
            {
              "internalType": "bool",
              "name": "lockReservedTokenChanges",
              "type": "bool"
            },
            {
              "internalType": "bool",
              "name": "lockVotingUnitChanges",
              "type": "bool"
            },
            {
              "internalType": "bool",
              "name": "lockManualMintingChanges",
              "type": "bool"
            },
            {
              "internalType": "bool",
              "name": "preventOverspending",
              "type": "bool"
            }
          ],
          "internalType": "struct JBTiered721Flags",
          "name": "_flags",
          "type": "tuple"
        }
      ],
      "name": "recordFlags",
      "outputs": [],
      "stateMutability": "nonpayable",
      "type": "function"
    },
    {
      "inputs": [
        {
          "internalType": "uint256",
          "name": "_amount",
          "type": "uint256"
        },
        {
          "internalType": "uint16[]",
          "name": "_tierIds",
          "type": "uint16[]"
        },
        {
          "internalType": "bool",
          "name": "_isManualMint",
          "type": "bool"
        }
      ],
      "name": "recordMint",
      "outputs": [
        {
          "internalType": "uint256[]",
          "name": "tokenIds",
          "type": "uint256[]"
        },
        {
          "internalType": "uint256",
          "name": "leftoverAmount",
          "type": "uint256"
        }
      ],
      "stateMutability": "nonpayable",
      "type": "function"
    },
    {
      "inputs": [
        {
          "internalType": "uint256",
          "name": "_tierId",
          "type": "uint256"
        },
        {
          "internalType": "uint256",
          "name": "_count",
          "type": "uint256"
        }
      ],
      "name": "recordMintReservesFor",
      "outputs": [
        {
          "internalType": "uint256[]",
          "name": "tokenIds",
          "type": "uint256[]"
        }
      ],
      "stateMutability": "nonpayable",
      "type": "function"
    },
    {
      "inputs": [
        {
          "internalType": "uint256[]",
          "name": "_tierIds",
          "type": "uint256[]"
        }
      ],
      "name": "recordRemoveTierIds",
      "outputs": [],
      "stateMutability": "nonpayable",
      "type": "function"
    },
    {
      "inputs": [
        {
          "internalType": "uint256",
          "name": "_tierId",
          "type": "uint256"
        },
        {
          "internalType": "bytes32",
          "name": "_encodedIPFSUri",
          "type": "bytes32"
        }
      ],
      "name": "recordSetEncodedIPFSUriOf",
      "outputs": [],
      "stateMutability": "nonpayable",
      "type": "function"
    },
    {
      "inputs": [
        {
          "internalType": "contract IJBTokenUriResolver",
          "name": "_resolver",
          "type": "address"
        }
      ],
      "name": "recordSetTokenUriResolver",
      "outputs": [],
      "stateMutability": "nonpayable",
      "type": "function"
    },
    {
      "inputs": [
        {
          "internalType": "uint256",
          "name": "_tierId",
          "type": "uint256"
        },
        {
          "internalType": "address",
          "name": "_from",
          "type": "address"
        },
        {
          "internalType": "address",
          "name": "_to",
          "type": "address"
        }
      ],
      "name": "recordTransferForTier",
      "outputs": [],
      "stateMutability": "nonpayable",
      "type": "function"
    },
    {
      "inputs": [
        {
          "internalType": "address",
          "name": "_nft",
          "type": "address"
        },
        {
          "internalType": "uint256[]",
          "name": "_tokenIds",
          "type": "uint256[]"
        }
      ],
      "name": "redemptionWeightOf",
      "outputs": [
        {
          "internalType": "uint256",
          "name": "weight",
          "type": "uint256"
        }
      ],
      "stateMutability": "view",
      "type": "function"
    },
    {
      "inputs": [
        {
          "internalType": "address",
          "name": "_nft",
          "type": "address"
        },
        {
          "internalType": "uint256",
          "name": "_tierId",
          "type": "uint256"
        }
      ],
      "name": "reservedTokenBeneficiaryOf",
      "outputs": [
        {
          "internalType": "address",
          "name": "",
          "type": "address"
        }
      ],
      "stateMutability": "view",
      "type": "function"
    },
    {
      "inputs": [
        {
          "internalType": "address",
          "name": "",
          "type": "address"
        },
        {
          "internalType": "address",
          "name": "",
          "type": "address"
        },
        {
          "internalType": "uint256",
          "name": "",
          "type": "uint256"
        }
      ],
      "name": "tierBalanceOf",
      "outputs": [
        {
          "internalType": "uint256",
          "name": "",
          "type": "uint256"
        }
      ],
      "stateMutability": "view",
      "type": "function"
    },
    {
      "inputs": [
        {
          "internalType": "uint256",
          "name": "_tokenId",
          "type": "uint256"
        }
      ],
      "name": "tierIdOfToken",
      "outputs": [
        {
          "internalType": "uint256",
          "name": "",
          "type": "uint256"
        }
      ],
      "stateMutability": "pure",
      "type": "function"
    },
    {
      "inputs": [
        {
          "internalType": "address",
          "name": "_nft",
          "type": "address"
        },
        {
          "internalType": "uint256",
          "name": "_id",
          "type": "uint256"
        },
        {
          "internalType": "bool",
          "name": "_includeResolvedUri",
          "type": "bool"
        }
      ],
      "name": "tierOf",
      "outputs": [
        {
          "components": [
            {
              "internalType": "uint256",
              "name": "id",
              "type": "uint256"
            },
            {
              "internalType": "uint256",
              "name": "price",
              "type": "uint256"
            },
            {
              "internalType": "uint256",
              "name": "remainingQuantity",
              "type": "uint256"
            },
            {
              "internalType": "uint256",
              "name": "initialQuantity",
              "type": "uint256"
            },
            {
              "internalType": "uint256",
              "name": "votingUnits",
              "type": "uint256"
            },
            {
              "internalType": "uint256",
              "name": "reservedRate",
              "type": "uint256"
            },
            {
              "internalType": "address",
              "name": "reservedTokenBeneficiary",
              "type": "address"
            },
            {
              "internalType": "bytes32",
              "name": "encodedIPFSUri",
              "type": "bytes32"
            },
            {
              "internalType": "uint256",
              "name": "category",
              "type": "uint256"
            },
            {
              "internalType": "bool",
              "name": "allowManualMint",
              "type": "bool"
            },
            {
              "internalType": "bool",
              "name": "transfersPausable",
              "type": "bool"
            },
            {
              "internalType": "string",
              "name": "resolvedUri",
              "type": "string"
            }
          ],
          "internalType": "struct JB721Tier",
          "name": "",
          "type": "tuple"
        }
      ],
      "stateMutability": "view",
      "type": "function"
    },
    {
      "inputs": [
        {
          "internalType": "address",
          "name": "_nft",
          "type": "address"
        },
        {
          "internalType": "uint256",
          "name": "_tokenId",
          "type": "uint256"
        },
        {
          "internalType": "bool",
          "name": "_includeResolvedUri",
          "type": "bool"
        }
      ],
      "name": "tierOfTokenId",
      "outputs": [
        {
          "components": [
            {
              "internalType": "uint256",
              "name": "id",
              "type": "uint256"
            },
            {
              "internalType": "uint256",
              "name": "price",
              "type": "uint256"
            },
            {
              "internalType": "uint256",
              "name": "remainingQuantity",
              "type": "uint256"
            },
            {
              "internalType": "uint256",
              "name": "initialQuantity",
              "type": "uint256"
            },
            {
              "internalType": "uint256",
              "name": "votingUnits",
              "type": "uint256"
            },
            {
              "internalType": "uint256",
              "name": "reservedRate",
              "type": "uint256"
            },
            {
              "internalType": "address",
              "name": "reservedTokenBeneficiary",
              "type": "address"
            },
            {
              "internalType": "bytes32",
              "name": "encodedIPFSUri",
              "type": "bytes32"
            },
            {
              "internalType": "uint256",
              "name": "category",
              "type": "uint256"
            },
            {
              "internalType": "bool",
              "name": "allowManualMint",
              "type": "bool"
            },
            {
              "internalType": "bool",
              "name": "transfersPausable",
              "type": "bool"
            },
            {
              "internalType": "string",
              "name": "resolvedUri",
              "type": "string"
            }
          ],
          "internalType": "struct JB721Tier",
          "name": "",
          "type": "tuple"
        }
      ],
      "stateMutability": "view",
      "type": "function"
    },
    {
      "inputs": [
        {
          "internalType": "address",
          "name": "_nft",
          "type": "address"
        },
        {
          "internalType": "address",
          "name": "_account",
          "type": "address"
        },
        {
          "internalType": "uint256",
          "name": "_tierId",
          "type": "uint256"
        }
      ],
      "name": "tierVotingUnitsOf",
      "outputs": [
        {
          "internalType": "uint256",
          "name": "",
          "type": "uint256"
        }
      ],
      "stateMutability": "view",
      "type": "function"
    },
    {
      "inputs": [
        {
          "internalType": "address",
          "name": "_nft",
          "type": "address"
        },
        {
          "internalType": "uint256[]",
          "name": "_categories",
          "type": "uint256[]"
        },
        {
          "internalType": "bool",
          "name": "_includeResolvedUri",
          "type": "bool"
        },
        {
          "internalType": "uint256",
          "name": "_startingId",
          "type": "uint256"
        },
        {
          "internalType": "uint256",
          "name": "_size",
          "type": "uint256"
        }
      ],
      "name": "tiersOf",
      "outputs": [
        {
          "components": [
            {
              "internalType": "uint256",
              "name": "id",
              "type": "uint256"
            },
            {
              "internalType": "uint256",
              "name": "price",
              "type": "uint256"
            },
            {
              "internalType": "uint256",
              "name": "remainingQuantity",
              "type": "uint256"
            },
            {
              "internalType": "uint256",
              "name": "initialQuantity",
              "type": "uint256"
            },
            {
              "internalType": "uint256",
              "name": "votingUnits",
              "type": "uint256"
            },
            {
              "internalType": "uint256",
              "name": "reservedRate",
              "type": "uint256"
            },
            {
              "internalType": "address",
              "name": "reservedTokenBeneficiary",
              "type": "address"
            },
            {
              "internalType": "bytes32",
              "name": "encodedIPFSUri",
              "type": "bytes32"
            },
            {
              "internalType": "uint256",
              "name": "category",
              "type": "uint256"
            },
            {
              "internalType": "bool",
              "name": "allowManualMint",
              "type": "bool"
            },
            {
              "internalType": "bool",
              "name": "transfersPausable",
              "type": "bool"
            },
            {
              "internalType": "string",
              "name": "resolvedUri",
              "type": "string"
            }
          ],
          "internalType": "struct JB721Tier[]",
          "name": "_tiers",
          "type": "tuple[]"
        }
      ],
      "stateMutability": "view",
      "type": "function"
    },
    {
      "inputs": [
        {
          "internalType": "address",
          "name": "",
          "type": "address"
        }
      ],
      "name": "tokenUriResolverOf",
      "outputs": [
        {
          "internalType": "contract IJBTokenUriResolver",
          "name": "",
          "type": "address"
        }
      ],
      "stateMutability": "view",
      "type": "function"
    },
    {
      "inputs": [
        {
          "internalType": "address",
          "name": "_nft",
          "type": "address"
        }
      ],
      "name": "totalRedemptionWeight",
      "outputs": [
        {
          "internalType": "uint256",
          "name": "weight",
          "type": "uint256"
        }
      ],
      "stateMutability": "view",
      "type": "function"
    },
    {
      "inputs": [
        {
          "internalType": "address",
          "name": "_nft",
          "type": "address"
        }
      ],
      "name": "totalSupply",
      "outputs": [
        {
          "internalType": "uint256",
          "name": "supply",
          "type": "uint256"
        }
      ],
      "stateMutability": "view",
      "type": "function"
    },
    {
      "inputs": [
        {
          "internalType": "address",
          "name": "_nft",
          "type": "address"
        },
        {
          "internalType": "address",
          "name": "_account",
          "type": "address"
        }
      ],
      "name": "votingUnitsOf",
      "outputs": [
        {
          "internalType": "uint256",
          "name": "units",
          "type": "uint256"
        }
      ],
      "stateMutability": "view",
      "type": "function"
    }
  ],
  "bytecode": {
    "object": "0x6080806040523461001657612b28908161001c8239f35b600080fdfe610120604052600436101561001357600080fd5b60003560e01c8063086bb19a14611d975780630fab094714611d5c578063136e651c14611d24578063144cc2d414611c7357806320512ba114611bf65780632ae5e49214611b1e5780632b7e6ef014611ad65780632e4d0ea814611abd57806335314b9214611a6557806337f4465214611a1a57806342f9914b146119f757806349bd1ac6146119c15780635f6466111461197257806364faa159146119285780636825bb80146118e0578063845104de1461182a57806386bc2be31461174d5780638da5e32b14610ea5578063911c80b514610e6a5780639335557814610d265780639403a74f14610a02578063baa7e80e14610886578063bd51923c1461083e578063c2c55f941461077a578063c44a8e6d1461070c578063c8df1710146106be578063cb827e3214610619578063d84a72c0146105c4578063e4dc2aa414610521578063eaa19ab314610250578063f1bea54f146102165763f7888aec1461017d57600080fd5b3461021157604060031936011261021157610196611ee5565b61019e611efb565b906000906001600160a01b03809116806000526020936007855260406000205492839116905b6101d357505050604051908152f35b90919261020760001991846000526008875260406000208460005287526040600020866000528752604060002054906122fe565b93019190826101c4565b600080fd5b34610211576020600319360112610211576001600160a01b03610237611ee5565b1660005260076020526020604060002054604051908152f35b346102115760606003193601126102115760243567ffffffffffffffff811161021157610281903690600401611f11565b9061028a611f77565b9160043590610298816123ca565b926102a1612204565b6000925b8084106102cf576102c58686604051928392604084526040840190612099565b9060208301520390f35b909192936102de85838661222e565b359061ffff82168203610211576102fa8461ffff841633612844565b6104f757336000526002602052604060002061ffff83166000526020526040600020918254928961033e8560f81c8060011615159181600216151591600416151590565b5050816104ee575b506104c45763ffffffff8460881c161561049a57826cffffffffffffffffffffffffff8516116104705761039961038a61037f83612254565b61ffff8516336128b5565b63ffffffff8660681c16612580565b156104465761042d6cffffffffffffffffffffffffff9261ffff8663ffffffff806000198160019b60681c16011661040081889070ffffffff000000000000000000000000001970ffffffff0000000000000000000000000083549260681b169116179055565b33600052600a6020526040600020848616600052602052816040600020549360881c1603160191166129d7565b610437898b6122d4565b525416900394019291906102a5565b60046040517f985a45d9000000000000000000000000000000000000000000000000000000008152fd5b60046040517f2cd294cf000000000000000000000000000000000000000000000000000000008152fd5b60046040517f0de5859f000000000000000000000000000000000000000000000000000000008152fd5b60046040517f5ef25a72000000000000000000000000000000000000000000000000000000008152fd5b9050158b610346565b60046040517fd32cb5c1000000000000000000000000000000000000000000000000000000008152fd5b34610211576020806003193601126102115761053b611ee5565b6001600160a01b0360009161054e6121cc565b5016806000526007835260406000205490815b61056f575050604051908152f35b90916105bb60001991836000526002865260406000208560005286526105986040600020612254565b6105b463ffffffff9182898160408401511692015116906122e8565b16906122fe565b92019081610561565b34610211576020600319360112610211576004356001600160a01b0381168091036102115733600052600c60205260406000209073ffffffffffffffffffffffffffffffffffffffff19825416179055600080f35b34610211576080600319360112610211573360005260036020526040600020600435801515809103610211578154602435908115158092036102115760443591821515809303610211576064358015158091036102115762ff0000927fffffffffffffffffffffffffffffffffffffffffffffffffffffffff0000000060ff63ff00000061ff009460181b1697169116179160081b16179160101b1617179055600080f35b34610211576040600319360112610211576001600160a01b036106df611ee5565b16600052600d6020526040600020633b9aca00602435046000526020526020604060002054604051908152f35b3461021157610776610762633b9aca0061072536611f93565b929061072f612173565b50046001600160a01b038216600052600260205260406000208160005260205261075c6040600020612254565b9161258d565b604051918291602083526020830190611fe9565b0390f35b3461021157606060031936011261021157600435610796611efb565b604435906001600160a01b03908183168093036102115716806107ee575b50806107bc57005b336000526008602052604060002090600052602052604060002090600052602052604060002060018154019055600080f35b33600052600860205260406000209060005260205260406000208260005260205260406000208054801561082857600019019055826107b4565b634e487b7160e01b600052601160045260246000fd5b34610211576040600319360112610211576001600160a01b0361085f611ee5565b16600052600d60205260406000206024356000526020526020604060002054604051908152f35b34610211576040600319360112610211576004356024908135903360005260209160028352604060002082600052835260406000206108ce6108c782612254565b84336128b5565b82116109d8573360005260098452604060002083600052845260406000206108f78382546122fe565b9055610902826123ca565b9433600052600a855260406000208460005285526040600020549160005b84811061093a5760405187815280610776818a018b612099565b815463ffffffff90818160681c1680156109c35786836109a66109b294600197966000196109ac96019161099d838c9070ffffffff000000000000000000000000001970ffffffff0000000000000000000000000083549260681b169116179055565b60881c166122e8565b166122fe565b886129d7565b6109bc828b6122d4565b5201610920565b85634e487b7160e01b60005260116004526000fd5b60046040517f44df3332000000000000000000000000000000000000000000000000000000008152fd5b346102115760a060031936011261021157610a1b611ee5565b60243567ffffffffffffffff811161021157610a3b903690600401611f11565b9190610a45611f77565b610a4e83612a7f565b608052610a5c60843561215b565b610a696040519182612138565b6084358152601f19610a7c60843561215b565b0160005b818110610d0f575050600090610a946121cc565b50610a9d612204565b93600060a05260015b15610cfa575b60006084358414610c5f5760643515610be4576064355b80151580610bd9575b15610bd357610adc87828a612844565b15610af4575b608051610aef91896129f7565b610ac3565b6001600160a01b0388166000526020600281526040600020908260005252610b1f6040600020612254565b90868a15928315808091610bb2575b15610b475750505050505b600160a0510160a052610aa6565b610aef9490610b92575b610b5f575b50509050610ae2565b610b8a91610b6e91848d61258d565b96610b78816122c5565b97610b8382896122d4565b52866122d4565b50868b610b56565b5062ffffff608082015116610bab8d60a051908961222e565b3514610b51565b508c610bcc62ffffff6080850151169160a051908a61222e565b3510610b2e565b50610b39565b506084358510610acc565b87610c4c5760005b80610c2457506001600160a01b03871660005260206000815260406000209060008052526040600020545b80610ac357506001610ac3565b6001600160a01b03881660005260206006815260406000209160005252604060002054610c17565b610c5960a051898461222e565b35610bec565b50509450925050505b6084358103610cf2575b5060405160209182820192808352815180945260408301938160408260051b8601019301916000955b828710610ca85785850386f35b909192938280610ce2837fffffffffffffffffffffffffffffffffffffffffffffffffffffffffffffffc08a600196030186528851611fe9565b9601920196019592919092610c9b565b815281610c72565b8660a05110610aac5750945092505050610c68565b602090610d1a612173565b82828601015201610a80565b3461021157604060031936011261021157610d3f611ee5565b610d47611efb565b906000906001600160a01b03809116928360005260209360078552604060002054610d706121cc565b9093849316925b610d85578585604051908152f35b9091929382600052600886526040600020846000528652604060002085600052865260406000205480610e33575b60001991610e0b610e1192610ddf60ff60c0880151168060011615159181600216151591600416151590565b915050600014610e1c576cffffffffffffffffffffffffff64ffffffffff6060880151165b169061230b565b906122fe565b940192919083610d77565b6cffffffffffffffffffffffffff80875116610e04565b9150610e116000199184600052600288526040600020876000528852610e0b610e5f6040600020612254565b949250509150610db3565b346102115760206003193601126102115760206001600160a01b0380610e8e611ee5565b16600052600b825260406000205416604051908152f35b346102115760206003193601126102115760043567ffffffffffffffff8082116102115736602383011215610211578160040135116102115736602461016083600401350283010111610211573360005260076020526040600020549061ffff610f138260040135846122fe565b1161172357610f2133612a7f565b90610f2f81600401356123ca565b91836117155760005b906000610f436123fb565b5033600052600360205260406000209160ff60405193610f62856120cd565b5481811615158552818160081c1615156020860152818160101c161515604086015260181c161515606084015260005b85600401358110610fd25761077687610faf60048901358b6122fe565b336000526007602052604060002055604051918291602083526020830190612099565b610fec610fe782886004013560248a01612460565b612482565b633b9ac9ff63ffffffff602083015116116116eb576110096123fb565b9082611682575b602086015115158061166f575b61164557855115801590611638575b80611627575b6115fd5760408601511515806115f0575b6115c65763ffffffff6020820151161561159c57611061838b6122fe565b9160018301831190816108285760c062ffffff916cffffffffffffffffffffffffff85511660ff63ffffffff60208801511663ffffffff60408901511661ffff60608a0151169087878b0151169160e08b01511515926101208c01511515926101408d0151151595604051986110d68a6120ff565b89528060208a015260408901526060880152608087015260a086015260011b179060021b1716838201523360005260026020526040600020600188016000526020526040600020906cffffffffffffffffffffffffff8151167fffffffffffffffffffffffffffffffffffffff0000000000000000000000000083541617825561119963ffffffff602083015116839070ffffffff000000000000000000000000001970ffffffff0000000000000000000000000083549260681b169116179055565b60408101519082547cffffff000000000000000000000000000000000000000000000000000079ffffffffff000000000000000000000000000000000000000000606084015160a81b1660808401519270ffffffffffffffffffffffffffffffffff74ffffffff00000000000000000000000000000000007fff000000000000000000000000000000000000000000000000000000000000008b7effff000000000000000000000000000000000000000000000000000000000060a08a015160e81b1698015160f81b169760881b16911617179160d01b16171717905501511662ffffff60c084015116809114159081611592575b50611565575b608082016001600160a01b0380825116806114c9575b50505060a0820151806114a5575b50876112d8575b50509060018092016112d1828a6122d4565b5201610f92565b87805b6112e557506112bf565b91976112f58684989398336129f7565b62ffffff60c08b01511633600052600260205260406000208560005260205262ffffff60406000205460d01c1610158061149b575b15611412575050600283016001840111610828576002830182036113ee575b3360005260056020528585604060002054036113e2575b61082857808314908115826113bf575b611385575b50509560018201946000806112db565b6000965090156113b5576000905b3360005260006020526040600020906000526020526040600020558a80611375565b6001830190611393565b503360005260006020526040600020816000526020526040600020541515611370565b85604060002055611360565b33600052600060205260406000206001840160005260205281604060002055611349565b809993929799158015611492575b1561148757505060018101811161082857808303611462575b506001820196600033600052600560205280604060002054156112db57600060408120556112db565b336000526000602052604060002090600052602052600182016040600020558a611439565b9650979095806112db565b508c8111611420565b508c84111561132a565b33600052600d6020526040600020600185016000526020526040600020558b6112b8565b61010085015115611523575033600052600b60205280604060002054169151168091036114fb575b505b8b80806112aa565b60406000209073ffffffffffffffffffffffffffffffffffffffff198254161790558b6114f1565b91505033600052600160205260406000206001850160005260205260406000209073ffffffffffffffffffffffffffffffffffffffff198254161790556114f3565b336000526006602052604060002062ffffff60c08401511660005260205260018301604060002055611294565b905015158c61128e565b60046040517ff0543188000000000000000000000000000000000000000000000000000000008152fd5b60046040517f30ec637f000000000000000000000000000000000000000000000000000000008152fd5b5060e08101511515611043565b60046040517fa75b1cd5000000000000000000000000000000000000000000000000000000008152fd5b5061ffff6060820151161515611032565b5060e0810151151561102c565b60046040517f03124006000000000000000000000000000000000000000000000000000000008152fd5b5063ffffffff604082015116151561101d565b905081600019810111610828576116a8610fe76000198401896004013560248b01612460565b9062ffffff60c090808284015116918401511611156110105760046040517f72afaf54000000000000000000000000000000000000000000000000000000008152fd5b60046040517f49016ea3000000000000000000000000000000000000000000000000000000008152fd5b61171e33612a50565b610f38565b60046040517f378d1916000000000000000000000000000000000000000000000000000000008152fd5b34610211576020806003193601126102115760043567ffffffffffffffff81116102115761177f903690600401611f11565b919060005b83811061178d57005b633b9aca0061179d82868561222e565b350433600052600a8452604060002081600052845260406000206117c181546122c5565b90553360005260028452604060002090600052835260406000209063ffffffff9182815460681c1692831461082857805470ffffffff000000000000000000000000001916600193840160681b70ffffffff000000000000000000000000001617905501611784565b34610211576020600319360112610211576001600160a01b0361184b611ee5565b6000606060405161185b816120cd565b82815282602082015282604082015201521660005260036020526080604060002060405190611889826120cd565b5460ff81161515918281526020810160ff8360081c161515815260ff60606040840193828660101c1615158552019360181c1615158352604051938452511515602084015251151560408301525115156060820152f35b34610211576040600319360112610211576001600160a01b03611901611ee5565b16600052600960205260406000206024356000526020526020604060002054604051908152f35b346102115761077661076261193c36611f93565b9190611946612173565b506001600160a01b038216600052600260205260406000208160005260205261075c6040600020612254565b3461021157604060031936011261021157602061198d611ee5565b6001600160a01b036024359116600052600482526001806119b2836040600020612aae565b5160ff60405194161c16148152f35b346102115760406003193601126102115733600052600d6020526040600020600435600052602052602435604060002055600080f35b34610211576020600319360112610211576020604051633b9aca00600435048152f35b3461021157611a2836611f42565b916001600160a01b038091166000526008602052604060002091166000526020526040600020906000526020526020604060002054604051908152f35b34610211576040600319360112610211576020611ab5611a83611ee5565b6024356001600160a01b038216600052600284526040600020816000528452611aaf6040600020612254565b916128b5565b604051908152f35b34610211576020611ab5611ad036611f42565b9161231e565b34610211576040600319360112610211576001600160a01b03611af7611ee5565b16600052600a60205260406000206024356000526020526020604060002054604051908152f35b346102115760208060031936011261021157611b38611ee5565b9060006001600160a01b03831692836000526007835260406000205493611b5d6121cc565b5060005b858110611b7357505050604051908152f35b81600052600285526040600020936001820194856000528652611b996040600020612254565b6cffffffffffffffffffffffffff81511663ffffffff9187611bc784604084015116858c85015116906122e8565b951161082857611bf094610e0b93611be3611bea938b8b6128b5565b91166122fe565b9061230b565b92611b61565b34610211576020806003193601126102115760043567ffffffffffffffff811161021157611c28903690600401611f11565b909160005b828110611c3657005b80611c4460ff92858761222e565b35336000526004845260406000208160081c60005284526040600020906001938491161b815417905501611c2d565b3461021157604060031936011261021157611c8c611ee5565b60243567ffffffffffffffff811161021157611cac903690600401611f11565b6000916001600160a01b0360009416915b808510611ccf57602084604051908152f35b909192611d1960019185600052602060028152604060002090633b9aca00611cf88a888a61222e565b3504600052526cffffffffffffffffffffffffff60406000205416906122fe565b940193929190611cbd565b34610211576040600319360112610211576020611d4b611d42611ee5565b6024359061238a565b6001600160a01b0360405191168152f35b346102115760206003193601126102115760206001600160a01b0380611d80611ee5565b16600052600c825260406000205416604051908152f35b346102115760208060031936011261021157611db1611ee5565b90611dbb82612a7f565b611dc483612a50565b806000611dcf612204565b925b611e0c57857f4a0f854ce3c180d56f3e9eb47eb064c595bf3de0ab9af45425291e5b1bb733a8866001600160a01b03604051933385521692a2005b83611e18848489612844565b15611e30575b611e299192876129f7565b9081611dd1565b5060018101808211610828578214611e96576001600160a01b038616806000526000865260406000208260005286528260406000205403611e76575b50505b8083611e1e565b600052600085526040600020906000528452806040600020558580611e6c565b6001600160a01b03861680600052600086526040600020826000528652604060002054611ec5575b5050611e6f565b600052600085526040600020906000528452600060408120558580611ebe565b600435906001600160a01b038216820361021157565b602435906001600160a01b038216820361021157565b9181601f840112156102115782359167ffffffffffffffff8311610211576020808501948460051b01011161021157565b6003196060910112610211576001600160a01b0390600435828116810361021157916024359081168103610211579060443590565b60443590811515820361021157565b3590811515820361021157565b6003196060910112610211576004356001600160a01b038116810361021157906024359060443580151581036102115790565b60005b838110611fd95750506000910152565b8181015183820152602001611fc9565b90815181526020820151602082015260408201516040820152606082015160608201526080820151608082015260a082015160a08201526001600160a01b0360c08301511660c082015260e082015160e082015261010080830151908201526101208083015115159082015261014080830151151590820152601f19601f6101608094015193610180809185015284518091850152612092816101a09660208888019101611fc6565b0116010190565b90815180825260208080930193019160005b8281106120b9575050505090565b8351855293810193928101926001016120ab565b6080810190811067ffffffffffffffff8211176120e957604052565b634e487b7160e01b600052604160045260246000fd5b60e0810190811067ffffffffffffffff8211176120e957604052565b610180810190811067ffffffffffffffff8211176120e957604052565b90601f601f19910116810190811067ffffffffffffffff8211176120e957604052565b67ffffffffffffffff81116120e95760051b60200190565b604051906121808261211b565b606061016083600080825280602083015280604083015280848301528060808301528060a08301528060c08301528060e083015280610100830152806101208301526101408201520152565b604051906121d9826120ff565b8160c06000918281528260208201528260408201528260608201528260808201528260a08201520152565b604051906040820182811067ffffffffffffffff8211176120e95760405260006020838281520152565b919081101561223e5760051b0190565b634e487b7160e01b600052603260045260246000fd5b90604051612261816120ff565b60c08193546cffffffffffffffffffffffffff8116835263ffffffff808260681c1660208501528160881c16604084015264ffffffffff8160a81c16606084015262ffffff8160d01c16608084015261ffff8160e81c1660a084015260f81c910152565b60001981146108285760010190565b805182101561223e5760209160051b010190565b63ffffffff918216908216039190821161082857565b9190820180921161082857565b8181029291811591840414171561082857565b916001600160a01b038093169160009383855260086020526040852091168452602052604083208184526020526040832054918215612384578364ffffffffff9260409261238196526002602052828220908252602052205460a81c169061230b565b90565b50505090565b6001600160a01b03809116916000908382526001602052604082209082526020528160408220541692836123845760409293508152600b60205220541690565b906123d48261215b565b6123e16040519182612138565b828152601f196123f1829461215b565b0190602036910137565b60405190610160820182811067ffffffffffffffff8211176120e957604052816101406000918281528260208201528260408201528260608201528260808201528260a08201528260c08201528260e082015282610100820152826101208201520152565b919081101561223e57610160020190565b359063ffffffff8216820361021157565b6101609081813603126102115760405191820182811067ffffffffffffffff8211176120e95760405280356cffffffffffffffffffffffffff811681036102115782526124d160208201612471565b60208301526124e260408201612471565b6040830152606081013561ffff8116810361021157606083015260808101356001600160a01b038116810361021157608083015260a081013560a083015260c081013562ffffff811681036102115760c083015261254260e08201611f86565b60e0830152610100612555818301611f86565b90830152610120612567818301611f86565b90830152612579610140809201611f86565b9082015290565b9190820391821161082857565b919092612598612173565b506125a3848461238a565b60c08301519092906001811615159060028116151590600416151591949060c0526cffffffffffffffffffffffffff958684511696602060e09481865263ffffffff80838901511690604090818a0151169260001461283c578c64ffffffffff60608b015116945b6001600160a01b0398891698808c8b61282e57506000995b1680600052600d83528460002084600052835262ffffff608086600020549e0151169d15928315612816575b600093156126e557505050505080518851810181811067ffffffffffffffff8211176120e9578252600081529b5b81519d6101009e8f908082526126929061211b565b51528d8951905101528c5101528a51606001521688516080015261ffff16875160a00152865160c0015285510152838051015215158251610120015260c051151582516101400152815161016001525190565b600c91845252838220541691633b9aca009081810291818304149015171561280257819060248551809581937fda0544aa00000000000000000000000000000000000000000000000000000000835260048301525afa9182156127f6578192612751575b50509b61267d565b9091503d8083833e6127638183612138565b8101918a519283838203126127f257825167ffffffffffffffff938482116127ee57019181601f840112156127d75782519384116127da576127b0865195601f19601f8701160186612138565b8385528c51918285850101116127d757506127d092918482019101611fc6565b3880612749565b80fd5b80634e487b7160e01b602492526041600452fd5b8380fd5b5080fd5b508251903d90823e3d90fd5b602482634e487b7160e01b81526011600452fd5b925080600052600c835281856000205416159261264f565b60a0015161ffff1699612623565b8c8c9461260b565b9060019283926020820151808460081c149081159161289a575b50612871575b5060ff905191161c161490565b6001600160a01b03915016600052600460205260ff612894826040600020612aae565b90612864565b8351159150816128ac575b503861285e565b905015386128a5565b60a083019161ffff90818451161580156129bd575b80156129a3575b612999576001600160a01b03600093168352600960205260408320908352602052604082205493604081019063ffffffff918260206129138983855116612580565b9301511680921461298f57908287939251160316039080845116801561297b5782049351169081156129675706612957575b81831161295157500390565b91505090565b90612961906122c5565b90612945565b602483634e487b7160e01b81526012600452fd5b602484634e487b7160e01b81526012600452fd5b5050505091505090565b5050505050600090565b506001600160a01b036129b6828561238a565b16156128d1565b5063ffffffff8060408701511690602087015116146128ca565b90633b9aca009182810292818404149015171561082857612381916122fe565b90918214612a49576001600160a01b036000911681528060205260408120828252602052604081205480612951575060018201809211612a35575090565b80634e487b7160e01b602492526011600452fd5b5050600090565b6040906001600160a01b03600091168152806020528181208180526020522054908115612a7957565b60019150565b6001600160a01b03166000526005602052604060002054908115612a9f57565b60076020526040600020549150565b90612ab7612204565b5060081c908160005260205260406000205490604051916040830183811067ffffffffffffffff8211176120e957604052825260208201529056fea264697066735822122027467e8bca36880d17969ee78129effafd94f37de8323de4dd9c937c0b4f08ae64736f6c63430008110033",
    "linkReferences": {}
  },
  "methodIdentifiers": {
    "balanceOf(address,address)": "f7888aec",
    "cleanTiers(address)": "086bb19a",
    "defaultReservedTokenBeneficiaryOf(address)": "911c80b5",
    "encodedIPFSUriOf(address,uint256)": "bd51923c",
    "encodedTierIPFSUriOf(address,uint256)": "c8df1710",
    "flagsOf(address)": "845104de",
    "isTierRemoved(address,uint256)": "5f646611",
    "maxTierIdOf(address)": "f1bea54f",
    "numberOfBurnedFor(address,uint256)": "2b7e6ef0",
    "numberOfReservedTokensOutstandingFor(address,uint256)": "35314b92",
    "numberOfReservesMintedFor(address,uint256)": "6825bb80",
    "recordAddTiers((uint104,uint32,uint32,uint16,address,bytes32,uint24,bool,bool,bool,bool)[])": "8da5e32b",
    "recordBurn(uint256[])": "86bc2be3",
    "recordFlags((bool,bool,bool,bool))": "cb827e32",
    "recordMint(uint256,uint16[],bool)": "eaa19ab3",
    "recordMintReservesFor(uint256,uint256)": "baa7e80e",
    "recordRemoveTierIds(uint256[])": "20512ba1",
    "recordSetEncodedIPFSUriOf(uint256,bytes32)": "49bd1ac6",
    "recordSetTokenUriResolver(address)": "d84a72c0",
    "recordTransferForTier(uint256,address,address)": "c2c55f94",
    "redemptionWeightOf(address,uint256[])": "144cc2d4",
    "reservedTokenBeneficiaryOf(address,uint256)": "136e651c",
    "tierBalanceOf(address,address,uint256)": "37f44652",
    "tierIdOfToken(uint256)": "42f9914b",
    "tierOf(address,uint256,bool)": "64faa159",
    "tierOfTokenId(address,uint256,bool)": "c44a8e6d",
    "tierVotingUnitsOf(address,address,uint256)": "2e4d0ea8",
    "tiersOf(address,uint256[],bool,uint256,uint256)": "9403a74f",
    "tokenUriResolverOf(address)": "0fab0947",
    "totalRedemptionWeight(address)": "2ae5e492",
    "totalSupply(address)": "e4dc2aa4",
    "votingUnitsOf(address,address)": "93355578"
  },
  "id": 40
}