{
  "abi": [
    {
      "inputs": [
        {
          "internalType": "contract IJBDirectory",
          "name": "_directory",
          "type": "address"
        }
      ],
      "stateMutability": "nonpayable",
      "type": "constructor"
    },
    {
      "inputs": [],
      "name": "CONTROLLER_UNAUTHORIZED",
      "type": "error"
    },
    {
      "inputs": [],
      "name": "INVALID_DISTRIBUTION_LIMIT",
      "type": "error"
    },
    {
      "inputs": [],
      "name": "INVALID_DISTRIBUTION_LIMIT_CURRENCY",
      "type": "error"
    },
    {
      "inputs": [],
      "name": "INVALID_OVERFLOW_ALLOWANCE",
      "type": "error"
    },
    {
      "inputs": [],
      "name": "INVALID_OVERFLOW_ALLOWANCE_CURRENCY",
      "type": "error"
    },
    {
      "anonymous": false,
      "inputs": [
        {
          "indexed": true,
          "internalType": "uint256",
          "name": "fundingCycleConfiguration",
          "type": "uint256"
        },
        {
          "indexed": true,
          "internalType": "uint256",
          "name": "projectId",
          "type": "uint256"
        },
        {
          "components": [
            {
              "internalType": "contract IJBPaymentTerminal",
              "name": "terminal",
              "type": "address"
            },
            {
              "internalType": "address",
              "name": "token",
              "type": "address"
            },
            {
              "internalType": "uint256",
              "name": "distributionLimit",
              "type": "uint256"
            },
            {
              "internalType": "uint256",
              "name": "distributionLimitCurrency",
              "type": "uint256"
            },
            {
              "internalType": "uint256",
              "name": "overflowAllowance",
              "type": "uint256"
            },
            {
              "internalType": "uint256",
              "name": "overflowAllowanceCurrency",
              "type": "uint256"
            }
          ],
          "indexed": false,
          "internalType": "struct JBFundAccessConstraints",
          "name": "constraints",
          "type": "tuple"
        },
        {
          "indexed": false,
          "internalType": "address",
          "name": "caller",
          "type": "address"
        }
      ],
      "name": "SetFundAccessConstraints",
      "type": "event"
    },
    {
      "inputs": [],
      "name": "directory",
      "outputs": [
        {
          "internalType": "contract IJBDirectory",
          "name": "",
          "type": "address"
        }
      ],
      "stateMutability": "view",
      "type": "function"
    },
    {
      "inputs": [
        {
          "internalType": "uint256",
          "name": "_projectId",
          "type": "uint256"
        },
        {
          "internalType": "uint256",
          "name": "_configuration",
          "type": "uint256"
        },
        {
          "internalType": "contract IJBPaymentTerminal",
          "name": "_terminal",
          "type": "address"
        },
        {
          "internalType": "address",
          "name": "_token",
          "type": "address"
        }
      ],
      "name": "distributionLimitOf",
      "outputs": [
        {
          "internalType": "uint256",
          "name": "",
          "type": "uint256"
        },
        {
          "internalType": "uint256",
          "name": "",
          "type": "uint256"
        }
      ],
      "stateMutability": "view",
      "type": "function"
    },
    {
      "inputs": [
        {
          "internalType": "uint256",
          "name": "_projectId",
          "type": "uint256"
        },
        {
          "internalType": "uint256",
          "name": "_configuration",
          "type": "uint256"
        },
        {
          "internalType": "contract IJBPaymentTerminal",
          "name": "_terminal",
          "type": "address"
        },
        {
          "internalType": "address",
          "name": "_token",
          "type": "address"
        }
      ],
      "name": "overflowAllowanceOf",
      "outputs": [
        {
          "internalType": "uint256",
          "name": "",
          "type": "uint256"
        },
        {
          "internalType": "uint256",
          "name": "",
          "type": "uint256"
        }
      ],
      "stateMutability": "view",
      "type": "function"
    },
    {
      "inputs": [
        {
          "internalType": "uint256",
          "name": "_projectId",
          "type": "uint256"
        },
        {
          "internalType": "uint256",
          "name": "_configuration",
          "type": "uint256"
        },
        {
          "components": [
            {
              "internalType": "contract IJBPaymentTerminal",
              "name": "terminal",
              "type": "address"
            },
            {
              "internalType": "address",
              "name": "token",
              "type": "address"
            },
            {
              "internalType": "uint256",
              "name": "distributionLimit",
              "type": "uint256"
            },
            {
              "internalType": "uint256",
              "name": "distributionLimitCurrency",
              "type": "uint256"
            },
            {
              "internalType": "uint256",
              "name": "overflowAllowance",
              "type": "uint256"
            },
            {
              "internalType": "uint256",
              "name": "overflowAllowanceCurrency",
              "type": "uint256"
            }
          ],
          "internalType": "struct JBFundAccessConstraints[]",
          "name": "_fundAccessConstraints",
          "type": "tuple[]"
        }
      ],
      "name": "setFor",
      "outputs": [],
      "stateMutability": "nonpayable",
      "type": "function"
    },
    {
      "inputs": [
        {
          "internalType": "bytes4",
          "name": "interfaceId",
          "type": "bytes4"
        }
      ],
      "name": "supportsInterface",
      "outputs": [
        {
          "internalType": "bool",
          "name": "",
          "type": "bool"
        }
      ],
      "stateMutability": "view",
      "type": "function"
    }
  ],
  "bytecode": {
    "object": "0x60a03461007057601f61088b38819003918201601f19168301916001600160401b038311848410176100755780849260209460405283398101031261007057516001600160a01b0381168103610070576080526040516107ff908161008c823960805181818160fa01526102280152f35b600080fd5b634e487b7160e01b600052604160045260246000fdfe608080604052600436101561001357600080fd5b60003560e01c90816301ffc9a7146106c15750806334002f311461019d5780637a81b5621461011e578063c41c2f24146100da5763e8db21301461005657600080fd5b346100d5576100643661073d565b92600092919252600060205260406000209060005260205260406000206001600160a01b0380921660005260205260406000209116600052602052604080600020548151907cffffffffffffffffffffffffffffffffffffffffffffffffffffffffff8116825260e81c6020820152f35b600080fd5b346100d55760006003193601126100d55760206040516001600160a01b037f0000000000000000000000000000000000000000000000000000000000000000168152f35b346100d55761012c3661073d565b92600092919252600160205260406000209060005260205260406000206001600160a01b0380921660005260205260406000209116600052602052604080600020548151907cffffffffffffffffffffffffffffffffffffffffffffffffffffffffff8116825260e81c6020820152f35b346100d55760606003193601126100d55760443567ffffffffffffffff8082116100d557366023830112156100d557808260040135116100d55736602460c0846004013502840101116100d5576040517f5dd8f6aa00000000000000000000000000000000000000000000000000000000815260043560048201526020816024816001600160a01b037f0000000000000000000000000000000000000000000000000000000000000000165afa9182156106b557600092610614575b50506001600160a01b03339116036105ea5760005b8160040135811061027b57005b7cffffffffffffffffffffffffffffffffffffffffffffffffffffffffff8060406102ae84866004013560248801610776565b0135116105c05762ffffff908160606102cf85876004013560248901610776565b0135116105965760806102ea84866004013560248801610776565b01351161056c5760a061030583856004013560248701610776565b01351161054257806040610323600193856004013560248701610776565b013561049a575b608061033e82856004013560248701610776565b01356103e8575b61035781846004013560248601610776565b60a0604051916001600160a01b0361036e82610729565b1683526001600160a01b0361038560208301610729565b166020840152604081013560408401526060810135606084015260808101356080840152013560a08201523360c0820152600435907f26f78d7903ac64ef9b38a2bf94b365f364f28efa245a6b67bcc27350f141c5f760e060243592a30161026e565b60806103fc82856004013560248701610776565b013560a061041283866004013560248801610776565b013560e81b1760043560005282602052604060002060243560005260205260406000206001600160a01b0361045761045285886004013560248a01610776565b6107b5565b1660005260205260406000206001600160a01b03610488602061048286896004013560248b01610776565b016107b5565b16600052602052604060002055610345565b60406104ae82856004013560248701610776565b013560606104c483866004013560248801610776565b013560e81b176004356000526000602052604060002060243560005260205260406000206001600160a01b0361050561045285886004013560248a01610776565b1660005260205260406000206001600160a01b03610530602061048286896004013560248b01610776565b1660005260205260406000205561032a565b60046040517fd9b93c25000000000000000000000000000000000000000000000000000000008152fd5b60046040517f57302783000000000000000000000000000000000000000000000000000000008152fd5b60046040517f9583faed000000000000000000000000000000000000000000000000000000008152fd5b60046040517fa9b8fbcf000000000000000000000000000000000000000000000000000000008152fd5b60046040517fab7f7414000000000000000000000000000000000000000000000000000000008152fd5b9091506020903d6020116106ad575b601f82017fffffffffffffffffffffffffffffffffffffffffffffffffffffffffffffffe01683019081118382101761067e576020918391604052810103126100d557516001600160a01b03811681036100d5578280610259565b7f4e487b7100000000000000000000000000000000000000000000000000000000600052604160045260246000fd5b3d9150610623565b6040513d6000823e3d90fd5b346100d55760206003193601126100d557600435907fffffffff0000000000000000000000000000000000000000000000000000000082168092036100d5577f01ffc9a700000000000000000000000000000000000000000000000000000000602092148152f35b35906001600160a01b03821682036100d557565b60031960809101126100d55760043590602435906001600160a01b039060443582811681036100d5579160643590811681036100d55790565b91908110156107865760c0020190565b7f4e487b7100000000000000000000000000000000000000000000000000000000600052603260045260246000fd5b356001600160a01b03811681036100d5579056fea2646970667358221220550c81a82b140b8793b66b29a5fbf6749a4e4254737b28bf92749e0fe6d461e464736f6c63430008140033",
    "linkReferences": {}
  },
  "methodIdentifiers": {
    "directory()": "c41c2f24",
    "distributionLimitOf(uint256,uint256,address,address)": "e8db2130",
    "overflowAllowanceOf(uint256,uint256,address,address)": "7a81b562",
    "setFor(uint256,uint256,(address,address,uint256,uint256,uint256,uint256)[])": "34002f31",
    "supportsInterface(bytes4)": "01ffc9a7"
  },
  "id": 73
}