{
  "abi": [
    {
      "inputs": [
        {
          "internalType": "contract IJBDirectory",
          "name": "_directory",
          "type": "address"
        }
      ],
      "stateMutability": "nonpayable",
      "type": "constructor"
    },
    {
      "inputs": [],
      "name": "CONTROLLER_UNAUTHORIZED",
      "type": "error"
    },
    {
      "inputs": [],
      "name": "INVALID_DISTRIBUTION_LIMIT",
      "type": "error"
    },
    {
      "inputs": [],
      "name": "INVALID_DISTRIBUTION_LIMIT_CURRENCY",
      "type": "error"
    },
    {
      "inputs": [],
      "name": "INVALID_OVERFLOW_ALLOWANCE",
      "type": "error"
    },
    {
      "inputs": [],
      "name": "INVALID_OVERFLOW_ALLOWANCE_CURRENCY",
      "type": "error"
    },
    {
      "anonymous": false,
      "inputs": [
        {
          "indexed": true,
          "internalType": "uint256",
          "name": "fundingCycleConfiguration",
          "type": "uint256"
        },
        {
          "indexed": true,
          "internalType": "uint256",
          "name": "projectId",
          "type": "uint256"
        },
        {
          "components": [
            {
              "internalType": "contract IJBPaymentTerminal",
              "name": "terminal",
              "type": "address"
            },
            {
              "internalType": "address",
              "name": "token",
              "type": "address"
            },
            {
              "internalType": "uint256",
              "name": "distributionLimit",
              "type": "uint256"
            },
            {
              "internalType": "uint256",
              "name": "distributionLimitCurrency",
              "type": "uint256"
            },
            {
              "internalType": "uint256",
              "name": "overflowAllowance",
              "type": "uint256"
            },
            {
              "internalType": "uint256",
              "name": "overflowAllowanceCurrency",
              "type": "uint256"
            }
          ],
          "indexed": false,
          "internalType": "struct JBFundAccessConstraints",
          "name": "constraints",
          "type": "tuple"
        },
        {
          "indexed": false,
          "internalType": "address",
          "name": "caller",
          "type": "address"
        }
      ],
      "name": "SetFundAccessConstraints",
      "type": "event"
    },
    {
      "inputs": [],
      "name": "directory",
      "outputs": [
        {
          "internalType": "contract IJBDirectory",
          "name": "",
          "type": "address"
        }
      ],
      "stateMutability": "view",
      "type": "function"
    },
    {
      "inputs": [
        {
          "internalType": "uint256",
          "name": "_projectId",
          "type": "uint256"
        },
        {
          "internalType": "uint256",
          "name": "_configuration",
          "type": "uint256"
        },
        {
          "internalType": "contract IJBPaymentTerminal",
          "name": "_terminal",
          "type": "address"
        },
        {
          "internalType": "address",
          "name": "_token",
          "type": "address"
        }
      ],
      "name": "distributionLimitOf",
      "outputs": [
        {
          "internalType": "uint256",
          "name": "",
          "type": "uint256"
        },
        {
          "internalType": "uint256",
          "name": "",
          "type": "uint256"
        }
      ],
      "stateMutability": "view",
      "type": "function"
    },
    {
      "inputs": [
        {
          "internalType": "uint256",
          "name": "_projectId",
          "type": "uint256"
        },
        {
          "internalType": "uint256",
          "name": "_configuration",
          "type": "uint256"
        },
        {
          "internalType": "contract IJBPaymentTerminal",
          "name": "_terminal",
          "type": "address"
        },
        {
          "internalType": "address",
          "name": "_token",
          "type": "address"
        }
      ],
      "name": "overflowAllowanceOf",
      "outputs": [
        {
          "internalType": "uint256",
          "name": "",
          "type": "uint256"
        },
        {
          "internalType": "uint256",
          "name": "",
          "type": "uint256"
        }
      ],
      "stateMutability": "view",
      "type": "function"
    },
    {
      "inputs": [
        {
          "internalType": "uint256",
          "name": "_projectId",
          "type": "uint256"
        },
        {
          "internalType": "uint256",
          "name": "_configuration",
          "type": "uint256"
        },
        {
          "components": [
            {
              "internalType": "contract IJBPaymentTerminal",
              "name": "terminal",
              "type": "address"
            },
            {
              "internalType": "address",
              "name": "token",
              "type": "address"
            },
            {
              "internalType": "uint256",
              "name": "distributionLimit",
              "type": "uint256"
            },
            {
              "internalType": "uint256",
              "name": "distributionLimitCurrency",
              "type": "uint256"
            },
            {
              "internalType": "uint256",
              "name": "overflowAllowance",
              "type": "uint256"
            },
            {
              "internalType": "uint256",
              "name": "overflowAllowanceCurrency",
              "type": "uint256"
            }
          ],
          "internalType": "struct JBFundAccessConstraints[]",
          "name": "_fundAccessConstraints",
          "type": "tuple[]"
        }
      ],
      "name": "setFor",
      "outputs": [],
      "stateMutability": "nonpayable",
      "type": "function"
    },
    {
      "inputs": [
        {
          "internalType": "bytes4",
          "name": "interfaceId",
          "type": "bytes4"
        }
      ],
      "name": "supportsInterface",
      "outputs": [
        {
          "internalType": "bool",
          "name": "",
          "type": "bool"
        }
      ],
      "stateMutability": "view",
      "type": "function"
    }
  ],
  "bytecode": {
    "object": "0x60a03461007057601f61072638819003918201601f19168301916001600160401b038311848410176100755780849260209460405283398101031261007057516001600160a01b03811681036100705760805260405161069a908161008c823960805181818160d801526101d80152f35b600080fd5b634e487b7160e01b600052604160045260246000fdfe608080604052600436101561001357600080fd5b60003560e01c90816301ffc9a7146105a75750806334002f311461016e5780637a81b56214610107578063c41c2f24146100c25763e8db21301461005657600080fd5b346100bd57610064366105f1565b926000929192526000602052604060002090600052602052604060002060018060a01b03809216600052602052604060002091166000526020526040806000205481519060018060e81b038116825260e81c6020820152f35b600080fd5b346100bd5760003660031901126100bd576040517f00000000000000000000000000000000000000000000000000000000000000006001600160a01b03168152602090f35b346100bd57610115366105f1565b926000929192526001602052604060002090600052602052604060002060018060a01b03809216600052602052604060002091166000526020526040806000205481519060018060e81b038116825260e81c6020820152f35b346100bd5760603660031901126100bd5760443567ffffffffffffffff8082116100bd57366023830112156100bd57808260040135116100bd5736602460c0846004013502840101116100bd57604051632eec7b5560e11b815260048035908201526020816024817f00000000000000000000000000000000000000000000000000000000000000006001600160a01b03165afa91821561059b57600092610531575b5050336001600160a01b039091160361051f5760005b8160040135811061023457005b6001600160e81b038060406102518460048701356024880161062a565b01351161050d5762ffffff908160606102728587600401356024890161062a565b0135116104fb57608061028d8486600401356024880161062a565b0135116104e95760a06102a88385600401356024870161062a565b0135116104d7578060406102c660019385600401356024870161062a565b0135610433575b60806102e18285600401356024870161062a565b0135610385575b6102fa8184600401356024860161062a565b60a0604051918480831b0361030e826105dd565b1683528480831b03610322602083016105dd565b166020840152604081013560408401526060810135606084015260808101356080840152013560a08201523360c0820152600435907f26f78d7903ac64ef9b38a2bf94b365f364f28efa245a6b67bcc27350f141c5f760e060243592a301610227565b60806103998285600401356024870161062a565b013560a06103af8386600401356024880161062a565b013560e81b176004356000528260205260406000206024356000526020526040600020838060a01b036103f26103ed85886004013560248a0161062a565b610650565b166000526020526040600020838060a01b03610421602061041b86896004013560248b0161062a565b01610650565b166000526020526040600020556102e8565b60406104478285600401356024870161062a565b0135606061045d8386600401356024880161062a565b013560e81b17600435600052600060205260406000206024356000526020526040600020838060a01b0361049c6103ed85886004013560248a0161062a565b166000526020526040600020838060a01b036104c5602061041b86896004013560248b0161062a565b166000526020526040600020556102cd565b60405163d9b93c2560e01b8152600490fd5b604051635730278360e01b8152600490fd5b604051639583faed60e01b8152600490fd5b60405163a9b8fbcf60e01b8152600490fd5b604051632adfdd0560e21b8152600490fd5b9091506020903d602011610593575b601f8201601f191683019081118382101761057d576020918391604052810103126100bd57516001600160a01b03811681036100bd578280610211565b634e487b7160e01b600052604160045260246000fd5b3d9150610540565b6040513d6000823e3d90fd5b346100bd5760203660031901126100bd576004359063ffffffff60e01b82168092036100bd576020916301ffc9a760e01b148152f35b35906001600160a01b03821682036100bd57565b60809060031901126100bd5760043590602435906001600160a01b039060443582811681036100bd579160643590811681036100bd5790565b919081101561063a5760c0020190565b634e487b7160e01b600052603260045260246000fd5b356001600160a01b03811681036100bd579056fea2646970667358221220fe3b19f36454ea7b016b3ac18ed2c657c5c35fcab649a1e8c861fd3f1840e03f64736f6c63430008140033",
    "linkReferences": {}
  },
  "methodIdentifiers": {
    "directory()": "c41c2f24",
    "distributionLimitOf(uint256,uint256,address,address)": "e8db2130",
    "overflowAllowanceOf(uint256,uint256,address,address)": "7a81b562",
    "setFor(uint256,uint256,(address,address,uint256,uint256,uint256,uint256)[])": "34002f31",
    "supportsInterface(bytes4)": "01ffc9a7"
  },
  "id": 75
}