{
  "abi": [
    {
      "inputs": [],
      "name": "JBDelegatesRegistry_incompatibleDelegate",
      "type": "error"
    },
    {
      "anonymous": false,
      "inputs": [
        {
          "indexed": true,
          "internalType": "address",
          "name": "_delegate",
          "type": "address"
        },
        {
          "indexed": true,
          "internalType": "address",
          "name": "_deployer",
          "type": "address"
        }
      ],
      "name": "DelegateAdded",
      "type": "event"
    },
    {
      "inputs": [
        {
          "internalType": "address",
          "name": "_deployer",
          "type": "address"
        },
        {
          "internalType": "uint256",
          "name": "_nonce",
          "type": "uint256"
        }
      ],
      "name": "addDelegate",
      "outputs": [],
      "stateMutability": "nonpayable",
      "type": "function"
    },
    {
      "inputs": [
        {
          "internalType": "address",
          "name": "_deployer",
          "type": "address"
        },
        {
          "internalType": "bytes32",
          "name": "_salt",
          "type": "bytes32"
        },
        {
          "internalType": "bytes",
          "name": "_bytecode",
          "type": "bytes"
        }
      ],
      "name": "addDelegateCreate2",
      "outputs": [],
      "stateMutability": "nonpayable",
      "type": "function"
    },
    {
      "inputs": [
        {
          "internalType": "address",
          "name": "",
          "type": "address"
        }
      ],
      "name": "deployerOf",
      "outputs": [
        {
          "internalType": "address",
          "name": "",
          "type": "address"
        }
      ],
      "stateMutability": "view",
      "type": "function"
    }
  ],
  "bytecode": {
    "object": "0x6080806040523461001657610928908161001c8239f35b600080fdfe604060808152600436101561001357600080fd5b6000803560e01c918263416dc732146104675782635bcfd2121461004757505063aceea1e41461004257600080fd5b6104d2565b34610463578060031936011261046357610103906100636104aa565b90602435806101065750517fd6000000000000000000000000000000000000000000000000000000000000006020820152602560fa1b6021820152606082901b6bffffffffffffffffffffffff191660228201527f800000000000000000000000000000000000000000000000000000000000000060368201526100f481603781015b03601f198101835282610661565b60208151910120808452610684565b80f35b607f81116101985790517fd6000000000000000000000000000000000000000000000000000000000000006020820152602560fa1b6021820152606083901b6bffffffffffffffffffffffff1916602282015260f89190911b7fff0000000000000000000000000000000000000000000000000000000000000016603682015261019381603781016100e6565b6100f4565b60ff811161024b5790517fd7000000000000000000000000000000000000000000000000000000000000006020820152602560fa1b6021820152606083901b6bffffffffffffffffffffffff191660228201527f8100000000000000000000000000000000000000000000000000000000000000603682015260f89190911b7fff0000000000000000000000000000000000000000000000000000000000000016603782015261019381603881016100e6565b61ffff918282116102ff57517fd8000000000000000000000000000000000000000000000000000000000000006020820152602560fa1b6021820152606084901b6bffffffffffffffffffffffff191660228201527f82000000000000000000000000000000000000000000000000000000000000006036820152911660f01b7fffff00000000000000000000000000000000000000000000000000000000000016603782015261019381603981016100e6565b915062ffffff908181116103b75791517fd9000000000000000000000000000000000000000000000000000000000000006020820152602560fa1b6021820152606084901b6bffffffffffffffffffffffff191660228201527f83000000000000000000000000000000000000000000000000000000000000006036820152911660e81b7fffffff000000000000000000000000000000000000000000000000000000000016603782015261019381603a81016100e6565b91517fda000000000000000000000000000000000000000000000000000000000000006020820152602560fa1b6021820152606084901b6bffffffffffffffffffffffff191660228201527f8400000000000000000000000000000000000000000000000000000000000000603682015260e09290921b7fffffffff000000000000000000000000000000000000000000000000000000001660378301525061019381603b81016100e6565b5080fd5b346104635760206003193601126104635773ffffffffffffffffffffffffffffffffffffffff91826104976104aa565b1681528060205220541660805260206080f35b6004359073ffffffffffffffffffffffffffffffffffffffff821682036104cd57565b600080fd5b346104cd5760606003193601126104cd576104eb6104aa565b67ffffffffffffffff906044358281116104cd57366023820112156104cd5780600401359283116104cd5736602484830101116104cd576105d56105ee916105f394600060206040519261054882601f19601f8401160185610661565b808452806024838601960186378301015251902060405160208101917fff0000000000000000000000000000000000000000000000000000000000000083526bffffffffffffffffffffffff198660601b16602183015260243560358301526055820152605581526105b981610645565b51902073ffffffffffffffffffffffffffffffffffffffff1690565b73ffffffffffffffffffffffffffffffffffffffff1690565b610684565b005b7f4e487b7100000000000000000000000000000000000000000000000000000000600052604160045260246000fd5b6060810190811067ffffffffffffffff82111761064057604052565b6105f5565b6080810190811067ffffffffffffffff82111761064057604052565b90601f601f19910116810190811067ffffffffffffffff82111761064057604052565b61068d8161080a565b806107fa575b8061077d575b8015610748575b1561071e5773ffffffffffffffffffffffffffffffffffffffff809116908160005260006020526040600020921691827fffffffffffffffffffffffff00000000000000000000000000000000000000008254161790557f12dade473695d73bd34e031c850d5e815fa17a42b1b5ba13ff72de2497c5e309600080a3565b60046040517f2d47a410000000000000000000000000000000000000000000000000000000008152fd5b506107528161080a565b8061076d575b80156106a05750610768816108a9565b6106a0565b5061077781610860565b15610758565b5060206000604051828101906301ffc9a760e01b82527fda9ee8b7000000000000000000000000000000000000000000000000000000006024820152602481526107c681610624565b519084617530fa6000513d826107ee575b50816107e4575b50610699565b90501515386107de565b602011159150386107d7565b5061080481610860565b15610693565b6000602091604051838101906301ffc9a760e01b80835260248201526024815261083381610624565b5191617530fa6000513d82610854575b508161084d575090565b9050151590565b60201115915038610843565b6000602091604051838101906301ffc9a760e01b82527fffffffff0000000000000000000000000000000000000000000000000000000060248201526024815261083381610624565b6000602091604051838101906301ffc9a760e01b82527f2b13c58f000000000000000000000000000000000000000000000000000000006024820152602481526108338161062456fea264697066735822122098c1ef4f8c20257087aa57a8476f2ae0bf8768325e0310405f2c82cf5fe631e564736f6c63430008140033",
    "linkReferences": {}
  },
  "methodIdentifiers": {
    "addDelegate(address,uint256)": "5bcfd212",
    "addDelegateCreate2(address,bytes32,bytes)": "aceea1e4",
    "deployerOf(address)": "416dc732"
  },
  "id": 147
}