{
  "abi": [
    {
      "inputs": [],
      "name": "JBDelegatesRegistry_incompatibleDelegate",
      "type": "error"
    },
    {
      "anonymous": false,
      "inputs": [
        {
          "indexed": true,
          "internalType": "address",
          "name": "_delegate",
          "type": "address"
        },
        {
          "indexed": true,
          "internalType": "address",
          "name": "_deployer",
          "type": "address"
        }
      ],
      "name": "DelegateAdded",
      "type": "event"
    },
    {
      "inputs": [
        {
          "internalType": "address",
          "name": "_deployer",
          "type": "address"
        },
        {
          "internalType": "uint256",
          "name": "_nonce",
          "type": "uint256"
        }
      ],
      "name": "addDelegate",
      "outputs": [],
      "stateMutability": "nonpayable",
      "type": "function"
    },
    {
      "inputs": [
        {
          "internalType": "address",
          "name": "_deployer",
          "type": "address"
        },
        {
          "internalType": "bytes32",
          "name": "_salt",
          "type": "bytes32"
        },
        {
          "internalType": "bytes",
          "name": "_bytecode",
          "type": "bytes"
        }
      ],
      "name": "addDelegateCreate2",
      "outputs": [],
      "stateMutability": "nonpayable",
      "type": "function"
    },
    {
      "inputs": [
        {
          "internalType": "address",
          "name": "",
          "type": "address"
        }
      ],
      "name": "deployerOf",
      "outputs": [
        {
          "internalType": "address",
          "name": "",
          "type": "address"
        }
      ],
      "stateMutability": "view",
      "type": "function"
    }
  ],
  "bytecode": {
    "object": "0x608080604052346100165761066e908161001c8239f35b600080fdfe604060808152600436101561001357600080fd5b6000803560e01c918263416dc7321461029d5782635bcfd2121461004757505063aceea1e41461004257600080fd5b6102ee565b346102995780600319360112610299576100c6906100636102d3565b90602435806100c9575051606b60f91b6020820152602560fa1b6021820152606082901b6001600160601b0319166022820152600160ff1b60368201526100b781603781015b03601f19810183528261042e565b60208151910120808452610450565b80f35b607f8111610122579051606b60f91b6020820152602560fa1b6021820152606083901b6001600160601b031916602282015260f89190911b6001600160f81b031916603682015261011d81603781016100a9565b6100b7565b60ff811161018057905160d760f81b6020820152602560fa1b6021820152606083901b6001600160601b0319166022820152608160f81b603682015260f89190911b6001600160f81b031916603782015261011d81603881016100a9565b61ffff918282116101df5751601b60fb1b6020820152602560fa1b6021820152606084901b6001600160601b0319166022820152604160f91b6036820152911660f01b6001600160f01b031916603782015261011d81603981016100a9565b915062ffffff9081811161024257915160d960f81b6020820152602560fa1b6021820152606084901b6001600160601b0319166022820152608360f81b6036820152911660e81b6001600160e81b031916603782015261011d81603a81016100a9565b9151606d60f91b6020820152602560fa1b6021820152606084901b6001600160601b0319166022820152602160fa1b603682015260e09290921b6001600160e01b03191660378301525061011d81603b81016100a9565b5080fd5b34610299576020366003190112610299576001600160a01b0391826102c06102d3565b1681528060205220541660805260206080f35b600435906001600160a01b03821682036102e957565b600080fd5b346102e95760603660031901126102e9576103076102d3565b67ffffffffffffffff906044358281116102e957366023820112156102e95780600401359283116102e95736602484830101116102e9576103c86103d4916103d994600060206040519261036482601f19601f840116018561042e565b8084528060248386019601863783010152519020604051602081019160ff60f81b83526bffffffffffffffffffffffff198660601b16602183015260243560358301526055820152605581526103b981610412565b5190206001600160a01b031690565b6001600160a01b031690565b610450565b005b634e487b7160e01b600052604160045260246000fd5b6060810190811067ffffffffffffffff82111761040d57604052565b6103db565b6080810190811067ffffffffffffffff82111761040d57604052565b90601f8019910116810190811067ffffffffffffffff82111761040d57604052565b61045981610582565b80610572575b8061050e575b80156104d9575b156104c7576001600160a01b03908116600081815260208190526040812080546001600160a01b03191694909316938417909255907f12dade473695d73bd34e031c850d5e815fa17a42b1b5ba13ff72de2497c5e3099080a3565b6040516302d47a4160e41b8152600490fd5b506104e381610582565b806104fe575b801561046c57506104f981610608565b61046c565b50610508816105d8565b156104e9565b5060206000604051828101906301ffc9a760e01b825263da9ee8b760e01b60248201526024815261053e816103f1565b519084617530fa6000513d82610566575b508161055c575b50610465565b9050151538610556565b6020111591503861054f565b5061057c816105d8565b1561045f565b6000602091604051838101906301ffc9a760e01b8083526024820152602481526105ab816103f1565b5191617530fa6000513d826105cc575b50816105c5575090565b9050151590565b602011159150386105bb565b6000602091604051838101906301ffc9a760e01b825263ffffffff60e01b6024820152602481526105ab816103f1565b6000602091604051838101906301ffc9a760e01b8252632b13c58f60e01b6024820152602481526105ab816103f156fea264697066735822122046055b285478ae49b049f5a28944d52e5881dee01f1f0fa33a1735ceae0ff25364736f6c63430008140033",
    "linkReferences": {}
  },
  "methodIdentifiers": {
    "addDelegate(address,uint256)": "5bcfd212",
    "addDelegateCreate2(address,bytes32,bytes)": "aceea1e4",
    "deployerOf(address)": "416dc732"
  },
  "id": 149
}