{
  "abi": [
    {
      "inputs": [
        {
          "internalType": "contract IJBOperatorStore",
          "name": "_operatorStore",
          "type": "address"
        }
      ],
      "stateMutability": "nonpayable",
      "type": "constructor"
    },
    {
      "inputs": [],
      "name": "InvalidShortString",
      "type": "error"
    },
    {
      "inputs": [
        {
          "internalType": "string",
          "name": "str",
          "type": "string"
        }
      ],
      "name": "StringTooLong",
      "type": "error"
    },
    {
      "inputs": [],
      "name": "UNAUTHORIZED",
      "type": "error"
    },
    {
      "anonymous": false,
      "inputs": [
        {
          "indexed": true,
          "internalType": "address",
          "name": "owner",
          "type": "address"
        },
        {
          "indexed": true,
          "internalType": "address",
          "name": "approved",
          "type": "address"
        },
        {
          "indexed": true,
          "internalType": "uint256",
          "name": "tokenId",
          "type": "uint256"
        }
      ],
      "name": "Approval",
      "type": "event"
    },
    {
      "anonymous": false,
      "inputs": [
        {
          "indexed": true,
          "internalType": "address",
          "name": "owner",
          "type": "address"
        },
        {
          "indexed": true,
          "internalType": "address",
          "name": "operator",
          "type": "address"
        },
        {
          "indexed": false,
          "internalType": "bool",
          "name": "approved",
          "type": "bool"
        }
      ],
      "name": "ApprovalForAll",
      "type": "event"
    },
    {
      "anonymous": false,
      "inputs": [
        {
          "indexed": true,
          "internalType": "uint256",
          "name": "projectId",
          "type": "uint256"
        },
        {
          "indexed": true,
          "internalType": "address",
          "name": "owner",
          "type": "address"
        },
        {
          "components": [
            {
              "internalType": "string",
              "name": "content",
              "type": "string"
            },
            {
              "internalType": "uint256",
              "name": "domain",
              "type": "uint256"
            }
          ],
          "indexed": false,
          "internalType": "struct JBProjectMetadata",
          "name": "metadata",
          "type": "tuple"
        },
        {
          "indexed": false,
          "internalType": "address",
          "name": "caller",
          "type": "address"
        }
      ],
      "name": "Create",
      "type": "event"
    },
    {
      "anonymous": false,
      "inputs": [
        {
          "indexed": true,
          "internalType": "address",
          "name": "delegator",
          "type": "address"
        },
        {
          "indexed": true,
          "internalType": "address",
          "name": "fromDelegate",
          "type": "address"
        },
        {
          "indexed": true,
          "internalType": "address",
          "name": "toDelegate",
          "type": "address"
        }
      ],
      "name": "DelegateChanged",
      "type": "event"
    },
    {
      "anonymous": false,
      "inputs": [
        {
          "indexed": true,
          "internalType": "address",
          "name": "delegate",
          "type": "address"
        },
        {
          "indexed": false,
          "internalType": "uint256",
          "name": "previousBalance",
          "type": "uint256"
        },
        {
          "indexed": false,
          "internalType": "uint256",
          "name": "newBalance",
          "type": "uint256"
        }
      ],
      "name": "DelegateVotesChanged",
      "type": "event"
    },
    {
      "anonymous": false,
      "inputs": [],
      "name": "EIP712DomainChanged",
      "type": "event"
    },
    {
      "anonymous": false,
      "inputs": [
        {
          "indexed": true,
          "internalType": "address",
          "name": "previousOwner",
          "type": "address"
        },
        {
          "indexed": true,
          "internalType": "address",
          "name": "newOwner",
          "type": "address"
        }
      ],
      "name": "OwnershipTransferred",
      "type": "event"
    },
    {
      "anonymous": false,
      "inputs": [
        {
          "indexed": true,
          "internalType": "uint256",
          "name": "projectId",
          "type": "uint256"
        },
        {
          "components": [
            {
              "internalType": "string",
              "name": "content",
              "type": "string"
            },
            {
              "internalType": "uint256",
              "name": "domain",
              "type": "uint256"
            }
          ],
          "indexed": false,
          "internalType": "struct JBProjectMetadata",
          "name": "metadata",
          "type": "tuple"
        },
        {
          "indexed": false,
          "internalType": "address",
          "name": "caller",
          "type": "address"
        }
      ],
      "name": "SetMetadata",
      "type": "event"
    },
    {
      "anonymous": false,
      "inputs": [
        {
          "indexed": true,
          "internalType": "contract IJBTokenUriResolver",
          "name": "resolver",
          "type": "address"
        },
        {
          "indexed": false,
          "internalType": "address",
          "name": "caller",
          "type": "address"
        }
      ],
      "name": "SetTokenUriResolver",
      "type": "event"
    },
    {
      "anonymous": false,
      "inputs": [
        {
          "indexed": true,
          "internalType": "address",
          "name": "from",
          "type": "address"
        },
        {
          "indexed": true,
          "internalType": "address",
          "name": "to",
          "type": "address"
        },
        {
          "indexed": true,
          "internalType": "uint256",
          "name": "tokenId",
          "type": "uint256"
        }
      ],
      "name": "Transfer",
      "type": "event"
    },
    {
      "inputs": [],
      "name": "CLOCK_MODE",
      "outputs": [
        {
          "internalType": "string",
          "name": "",
          "type": "string"
        }
      ],
      "stateMutability": "view",
      "type": "function"
    },
    {
      "inputs": [],
      "name": "DOMAIN_SEPARATOR",
      "outputs": [
        {
          "internalType": "bytes32",
          "name": "",
          "type": "bytes32"
        }
      ],
      "stateMutability": "view",
      "type": "function"
    },
    {
      "inputs": [
        {
          "internalType": "address",
          "name": "to",
          "type": "address"
        },
        {
          "internalType": "uint256",
          "name": "tokenId",
          "type": "uint256"
        }
      ],
      "name": "approve",
      "outputs": [],
      "stateMutability": "nonpayable",
      "type": "function"
    },
    {
      "inputs": [
        {
          "internalType": "address",
          "name": "owner",
          "type": "address"
        }
      ],
      "name": "balanceOf",
      "outputs": [
        {
          "internalType": "uint256",
          "name": "",
          "type": "uint256"
        }
      ],
      "stateMutability": "view",
      "type": "function"
    },
    {
      "inputs": [],
      "name": "clock",
      "outputs": [
        {
          "internalType": "uint48",
          "name": "",
          "type": "uint48"
        }
      ],
      "stateMutability": "view",
      "type": "function"
    },
    {
      "inputs": [],
      "name": "count",
      "outputs": [
        {
          "internalType": "uint256",
          "name": "",
          "type": "uint256"
        }
      ],
      "stateMutability": "view",
      "type": "function"
    },
    {
      "inputs": [
        {
          "internalType": "address",
          "name": "_owner",
          "type": "address"
        },
        {
          "components": [
            {
              "internalType": "string",
              "name": "content",
              "type": "string"
            },
            {
              "internalType": "uint256",
              "name": "domain",
              "type": "uint256"
            }
          ],
          "internalType": "struct JBProjectMetadata",
          "name": "_metadata",
          "type": "tuple"
        }
      ],
      "name": "createFor",
      "outputs": [
        {
          "internalType": "uint256",
          "name": "projectId",
          "type": "uint256"
        }
      ],
      "stateMutability": "nonpayable",
      "type": "function"
    },
    {
      "inputs": [
        {
          "internalType": "address",
          "name": "delegatee",
          "type": "address"
        }
      ],
      "name": "delegate",
      "outputs": [],
      "stateMutability": "nonpayable",
      "type": "function"
    },
    {
      "inputs": [
        {
          "internalType": "address",
          "name": "delegatee",
          "type": "address"
        },
        {
          "internalType": "uint256",
          "name": "nonce",
          "type": "uint256"
        },
        {
          "internalType": "uint256",
          "name": "expiry",
          "type": "uint256"
        },
        {
          "internalType": "uint8",
          "name": "v",
          "type": "uint8"
        },
        {
          "internalType": "bytes32",
          "name": "r",
          "type": "bytes32"
        },
        {
          "internalType": "bytes32",
          "name": "s",
          "type": "bytes32"
        }
      ],
      "name": "delegateBySig",
      "outputs": [],
      "stateMutability": "nonpayable",
      "type": "function"
    },
    {
      "inputs": [
        {
          "internalType": "address",
          "name": "account",
          "type": "address"
        }
      ],
      "name": "delegates",
      "outputs": [
        {
          "internalType": "address",
          "name": "",
          "type": "address"
        }
      ],
      "stateMutability": "view",
      "type": "function"
    },
    {
      "inputs": [],
      "name": "eip712Domain",
      "outputs": [
        {
          "internalType": "bytes1",
          "name": "fields",
          "type": "bytes1"
        },
        {
          "internalType": "string",
          "name": "name",
          "type": "string"
        },
        {
          "internalType": "string",
          "name": "version",
          "type": "string"
        },
        {
          "internalType": "uint256",
          "name": "chainId",
          "type": "uint256"
        },
        {
          "internalType": "address",
          "name": "verifyingContract",
          "type": "address"
        },
        {
          "internalType": "bytes32",
          "name": "salt",
          "type": "bytes32"
        },
        {
          "internalType": "uint256[]",
          "name": "extensions",
          "type": "uint256[]"
        }
      ],
      "stateMutability": "view",
      "type": "function"
    },
    {
      "inputs": [
        {
          "internalType": "uint256",
          "name": "tokenId",
          "type": "uint256"
        }
      ],
      "name": "getApproved",
      "outputs": [
        {
          "internalType": "address",
          "name": "",
          "type": "address"
        }
      ],
      "stateMutability": "view",
      "type": "function"
    },
    {
      "inputs": [
        {
          "internalType": "uint256",
          "name": "timepoint",
          "type": "uint256"
        }
      ],
      "name": "getPastTotalSupply",
      "outputs": [
        {
          "internalType": "uint256",
          "name": "",
          "type": "uint256"
        }
      ],
      "stateMutability": "view",
      "type": "function"
    },
    {
      "inputs": [
        {
          "internalType": "address",
          "name": "account",
          "type": "address"
        },
        {
          "internalType": "uint256",
          "name": "timepoint",
          "type": "uint256"
        }
      ],
      "name": "getPastVotes",
      "outputs": [
        {
          "internalType": "uint256",
          "name": "",
          "type": "uint256"
        }
      ],
      "stateMutability": "view",
      "type": "function"
    },
    {
      "inputs": [
        {
          "internalType": "address",
          "name": "account",
          "type": "address"
        }
      ],
      "name": "getVotes",
      "outputs": [
        {
          "internalType": "uint256",
          "name": "",
          "type": "uint256"
        }
      ],
      "stateMutability": "view",
      "type": "function"
    },
    {
      "inputs": [
        {
          "internalType": "address",
          "name": "owner",
          "type": "address"
        },
        {
          "internalType": "address",
          "name": "operator",
          "type": "address"
        }
      ],
      "name": "isApprovedForAll",
      "outputs": [
        {
          "internalType": "bool",
          "name": "",
          "type": "bool"
        }
      ],
      "stateMutability": "view",
      "type": "function"
    },
    {
      "inputs": [
        {
          "internalType": "uint256",
          "name": "",
          "type": "uint256"
        },
        {
          "internalType": "uint256",
          "name": "",
          "type": "uint256"
        }
      ],
      "name": "metadataContentOf",
      "outputs": [
        {
          "internalType": "string",
          "name": "",
          "type": "string"
        }
      ],
      "stateMutability": "view",
      "type": "function"
    },
    {
      "inputs": [],
      "name": "name",
      "outputs": [
        {
          "internalType": "string",
          "name": "",
          "type": "string"
        }
      ],
      "stateMutability": "view",
      "type": "function"
    },
    {
      "inputs": [
        {
          "internalType": "address",
          "name": "owner",
          "type": "address"
        }
      ],
      "name": "nonces",
      "outputs": [
        {
          "internalType": "uint256",
          "name": "",
          "type": "uint256"
        }
      ],
      "stateMutability": "view",
      "type": "function"
    },
    {
      "inputs": [],
      "name": "operatorStore",
      "outputs": [
        {
          "internalType": "contract IJBOperatorStore",
          "name": "",
          "type": "address"
        }
      ],
      "stateMutability": "view",
      "type": "function"
    },
    {
      "inputs": [],
      "name": "owner",
      "outputs": [
        {
          "internalType": "address",
          "name": "",
          "type": "address"
        }
      ],
      "stateMutability": "view",
      "type": "function"
    },
    {
      "inputs": [
        {
          "internalType": "uint256",
          "name": "tokenId",
          "type": "uint256"
        }
      ],
      "name": "ownerOf",
      "outputs": [
        {
          "internalType": "address",
          "name": "",
          "type": "address"
        }
      ],
      "stateMutability": "view",
      "type": "function"
    },
    {
      "inputs": [],
      "name": "renounceOwnership",
      "outputs": [],
      "stateMutability": "nonpayable",
      "type": "function"
    },
    {
      "inputs": [
        {
          "internalType": "address",
          "name": "from",
          "type": "address"
        },
        {
          "internalType": "address",
          "name": "to",
          "type": "address"
        },
        {
          "internalType": "uint256",
          "name": "tokenId",
          "type": "uint256"
        }
      ],
      "name": "safeTransferFrom",
      "outputs": [],
      "stateMutability": "nonpayable",
      "type": "function"
    },
    {
      "inputs": [
        {
          "internalType": "address",
          "name": "from",
          "type": "address"
        },
        {
          "internalType": "address",
          "name": "to",
          "type": "address"
        },
        {
          "internalType": "uint256",
          "name": "tokenId",
          "type": "uint256"
        },
        {
          "internalType": "bytes",
          "name": "data",
          "type": "bytes"
        }
      ],
      "name": "safeTransferFrom",
      "outputs": [],
      "stateMutability": "nonpayable",
      "type": "function"
    },
    {
      "inputs": [
        {
          "internalType": "address",
          "name": "operator",
          "type": "address"
        },
        {
          "internalType": "bool",
          "name": "approved",
          "type": "bool"
        }
      ],
      "name": "setApprovalForAll",
      "outputs": [],
      "stateMutability": "nonpayable",
      "type": "function"
    },
    {
      "inputs": [
        {
          "internalType": "uint256",
          "name": "_projectId",
          "type": "uint256"
        },
        {
          "components": [
            {
              "internalType": "string",
              "name": "content",
              "type": "string"
            },
            {
              "internalType": "uint256",
              "name": "domain",
              "type": "uint256"
            }
          ],
          "internalType": "struct JBProjectMetadata",
          "name": "_metadata",
          "type": "tuple"
        }
      ],
      "name": "setMetadataOf",
      "outputs": [],
      "stateMutability": "nonpayable",
      "type": "function"
    },
    {
      "inputs": [
        {
          "internalType": "contract IJBTokenUriResolver",
          "name": "_newResolver",
          "type": "address"
        }
      ],
      "name": "setTokenUriResolver",
      "outputs": [],
      "stateMutability": "nonpayable",
      "type": "function"
    },
    {
      "inputs": [
        {
          "internalType": "bytes4",
          "name": "_interfaceId",
          "type": "bytes4"
        }
      ],
      "name": "supportsInterface",
      "outputs": [
        {
          "internalType": "bool",
          "name": "",
          "type": "bool"
        }
      ],
      "stateMutability": "view",
      "type": "function"
    },
    {
      "inputs": [],
      "name": "symbol",
      "outputs": [
        {
          "internalType": "string",
          "name": "",
          "type": "string"
        }
      ],
      "stateMutability": "view",
      "type": "function"
    },
    {
      "inputs": [
        {
          "internalType": "uint256",
          "name": "_projectId",
          "type": "uint256"
        }
      ],
      "name": "tokenURI",
      "outputs": [
        {
          "internalType": "string",
          "name": "",
          "type": "string"
        }
      ],
      "stateMutability": "view",
      "type": "function"
    },
    {
      "inputs": [],
      "name": "tokenUriResolver",
      "outputs": [
        {
          "internalType": "contract IJBTokenUriResolver",
          "name": "",
          "type": "address"
        }
      ],
      "stateMutability": "view",
      "type": "function"
    },
    {
      "inputs": [
        {
          "internalType": "address",
          "name": "from",
          "type": "address"
        },
        {
          "internalType": "address",
          "name": "to",
          "type": "address"
        },
        {
          "internalType": "uint256",
          "name": "tokenId",
          "type": "uint256"
        }
      ],
      "name": "transferFrom",
      "outputs": [],
      "stateMutability": "nonpayable",
      "type": "function"
    },
    {
      "inputs": [
        {
          "internalType": "address",
          "name": "newOwner",
          "type": "address"
        }
      ],
      "name": "transferOwnership",
      "outputs": [],
      "stateMutability": "nonpayable",
      "type": "function"
    }
  ],
  "bytecode": {
    "object": "0x61018034620004da57601f19906001600160401b0390601f9062003c4d3881900383810186168301919085831184841017620004c45780849260409485528339602093849181010312620004da5751926001600160a01b038085168503620004da578251946200006f86620004df565b6011865284860194704a75696365626f782050726f6a6563747360781b938487528551996200009e8b620004df565b600191828c52838c0194603160f81b8652885197620000bd89620004df565b6011895285890152885190620000d382620004df565b6008825267094aa92868a849eb60c31b8683015260805287518c8111620004c45760009889548681811c91168015620004b9575b88821014620004a55790818584931162000452575b508790858311600114620003f1578b92620003e5575b5050600019600383901b1c191690851b1788555b8051928c8411620003d15784548581811c91168015620003c6575b87821014620003b25790818486959493116200035b575b5086928411600114620002fa57508892620002ee575b5050600019600383901b1c191690821b1790555b620001ad87620004fb565b95610140968752620001bf8a620006d8565b976101609889525190209161010099838b5251902094610120958087524660c0528151928301937f8b73c3c69bb8fe3d512ecc4cf759cc79239f7b179b0ffacaa9a75d522b39400f85528284015260608301524660808301523060a083015260a0825260c0820198828a10908a1117620002da5788905251902060a0523060e052600c8054336001600160a01b0319821681179092559091167f8be0079c531659141344cd1fd0a4f28419497f9722a3daafe3b4186f6b6457e08380a3600d556133bc948562000891863960805185818161071d015281816107c50152611362015260a05185612de5015260c05185612ea0015260e05185612daf01525184612e3401525183612e5a01525182610f4201525181610f6b0152f35b634e487b7160e01b85526041600452602485fd5b0151905038806200018e565b858a52868a20869590939291168a5b888282106200034457505084116200032a575b505050811b019055620001a2565b015160001960f88460031b161c191690553880806200031c565b838501518655889790950194938401930162000309565b9091929350858a52868a208480870160051c820192898810620003a8575b9187968992969594930160051c01915b8281106200039957505062000178565b8c815587965088910162000389565b9250819262000379565b634e487b7160e01b8a52602260045260248afd5b90607f169062000161565b634e487b7160e01b89526041600452602489fd5b01519050388062000132565b9086889416918c8052898d20928d5b8b8282106200043b575050841162000421575b505050811b01885562000146565b015160001960f88460031b161c1916905538808062000413565b8385015186558b9790950194938401930162000400565b9091508a8052878b208580850160051c8201928a86106200049b575b918991869594930160051c01915b8281106200048c5750506200011c565b8d81558594508991016200047c565b925081926200046e565b634e487b7160e01b8b52602260045260248bfd5b90607f169062000107565b634e487b7160e01b600052604160045260246000fd5b600080fd5b604081019081106001600160401b03821117620004c457604052565b805160209081811015620005985750601f8251116200053757808251920151908083106200052857501790565b82600019910360031b1b161790565b90604051809263305a27a960e01b82528060048301528251908160248401526000935b8285106200057e575050604492506000838284010152601f80199101168101030190fd5b84810182015186860160440152938101938593506200055a565b906001600160401b038211620004c457600654926001938481811c91168015620006cd575b83821014620006b757601f81116200067d575b5081601f841160011462000611575092829391839260009462000605575b50501b916000199060031b1c19161760065560ff90565b015192503880620005ee565b919083601f198116600660005284600020946000905b8883831062000662575050501062000648575b505050811b0160065560ff90565b015160001960f88460031b161c191690553880806200063a565b85870151885590960195948501948793509081019062000627565b600660005284601f84600020920160051c820191601f860160051c015b828110620006aa575050620005d0565b600081550185906200069a565b634e487b7160e01b600052602260045260246000fd5b90607f1690620005bd565b805160209081811015620007665750601f8251116200070557808251920151908083106200052857501790565b90604051809263305a27a960e01b82528060048301528251908160248401526000935b8285106200074c575050604492506000838284010152601f80199101168101030190fd5b848101820151868601604401529381019385935062000728565b906001600160401b038211620004c457600754926001938481811c9116801562000885575b83821014620006b757601f81116200084b575b5081601f8411600114620007df5750928293918392600094620007d3575b50501b916000199060031b1c19161760075560ff90565b015192503880620007bc565b919083601f198116600760005284600020946000905b8883831062000830575050501062000816575b505050811b0160075560ff90565b015160001960f88460031b161c1916905538808062000808565b858701518855909601959485019487935090810190620007f5565b600760005284601f84600020920160051c820191601f860160051c015b828110620008785750506200079e565b6000815501859062000868565b90607f16906200078b56fe6080604052600436101561001257600080fd5b60003560e01c806301ffc9a71461023757806306661abd1461023257806306fdde031461022d578063081812fc14610228578063095ea7b31461022357806323b872dd1461021e5780632407497e146102195780633644e51514610214578063365749751461020f57806339fbc7751461020a5780633a46b1a81461020557806342842e0e146102005780634bf5d7e9146101fb578063587cde1e146101f65780635c19a95c146101f15780636352211e146101ec578063666d87a0146101e757806370a08231146101e2578063715018a6146101dd5780637ecebe00146101d857806384b0196e146101d35780638da5cb5b146101ce5780638e539e8c146101c957806391ddadf4146101c457806395d89b41146101bf5780639ab24eb0146101ba578063a22cb465146101b5578063ad007d63146101b0578063b88d4fde146101ab578063c3cda520146101a6578063c87b56dd146101a1578063e131fc0c1461019c578063e985e9c5146101975763f2fde38b1461019257600080fd5b611642565b6115da565b6115b1565b61157e565b61144b565b6113bb565b61134c565b61125c565b611200565b61115b565b61112f565b611048565b61101f565b610f27565b610eea565b610e8c565b610e65565b610c28565b610c0a565b610be4565b610ba5565b610af3565b610acb565b6109c5565b6108e4565b610663565b610632565b6105c0565b610597565b610491565b610450565b61036d565b6102f3565b610253565b6001600160e01b031981160361024e57565b600080fd5b3461024e57602036600319011261024e5760206004356102728161023c565b63ffffffff60e01b1663aa91a66f60e01b81149081156102e2575b811561029f575b506040519015158152f35b6380ac58cd60e01b8114915081156102d1575b81156102c0575b5038610294565b6301ffc9a760e01b149050386102b9565b635b5e139f60e01b811491506102b2565b63ad007d6360e01b8114915061028d565b3461024e57600036600319011261024e576020600d54604051908152f35b60005b8381106103245750506000910152565b8181015183820152602001610314565b9060209161034d81518092818552858086019101610311565b601f01601f1916010190565b90602061036a928181520190610334565b90565b3461024e5760008060031936011261044d576040519080805461038f8161081d565b8085529160019180831690811561042357506001146103c9575b6103c5856103b9818703826108c3565b60405191829182610359565b0390f35b80809450527f290decd9548b62a8d60345a988386fc84ba6bc95484008f6362f93160ef3e5635b82841061040b5750505081016020016103b9826103c56103a9565b805460208587018101919091529093019281016103f0565b8695506103c5969350602092506103b994915060ff191682840152151560051b82010192936103a9565b80fd5b3461024e57602036600319011261024e57602061046e6004356120dc565b6040516001600160a01b039091168152f35b6001600160a01b0381160361024e57565b3461024e57604036600319011261024e576004356104ae81610480565b6024356104ba81612047565b916001600160a01b03808416908216811461051c576104ec936104e79133149081156104ee575b5061206a565b612472565b005b6001600160a01b0316600090815260056020908152604080832033845290915290205460ff169050386104e1565b60405162461bcd60e51b815260206004820152602160248201527f4552433732313a20617070726f76616c20746f2063757272656e74206f776e656044820152603960f91b6064820152608490fd5b606090600319011261024e5760043561058381610480565b9060243561059081610480565b9060443590565b3461024e576104ec6105a83661056b565b916105bb6105b6843361221a565b61211a565b612338565b3461024e57602036600319011261024e576004356105dd81610480565b6105e5611b38565b60018060a01b0316806bffffffffffffffffffffffff60a01b600f541617600f557fe7784d93cfbfa4408e19577e6cc0436f4dbb51214b70e100905dfce9def88c166020604051338152a2005b3461024e57600036600319011261024e57602061064d612dac565b604051908152f35b9081604091031261024e5790565b3461024e57604036600319011261024e576004356024356001600160401b03811161024e57610696903690600401610655565b61069f82612047565b6001600160a01b0381811633141591908261078a575b826106dc575b50506106ca576104ec916119d0565b60405163075fd2b160e01b8152600490fd5b60405163c161c93f60e01b81523360048201526001600160a01b039290921660248301526000604483015260066064830152909150602090829060849082907f0000000000000000000000000000000000000000000000000000000000000000165afa90811561078557600091610757575b501538806106bb565b610778915060203d811161077e575b61077081836108c3565b810190611b23565b3861074e565b503d610766565b61170f565b60405163c161c93f60e01b81523360048201526001600160a01b038316602482015260448101869052600660648201529092506020816084817f000000000000000000000000000000000000000000000000000000000000000087165afa908115610785576000916107ff575b5015916106b5565b610817915060203d811161077e5761077081836108c3565b386107f7565b90600182811c9216801561084d575b602083101461083757565b634e487b7160e01b600052602260045260246000fd5b91607f169161082c565b634e487b7160e01b600052604160045260246000fd5b602081019081106001600160401b0382111761088857604052565b610857565b604081019081106001600160401b0382111761088857604052565b60c081019081106001600160401b0382111761088857604052565b90601f801991011681019081106001600160401b0382111761088857604052565b3461024e57604036600319011261024e57600060043581526020600e8152604082206024358352815260408220604051838194908354906109248261081d565b948585526001928784821691826000146109a1575050600114610965575b505050610951925003836108c3565b6103c5604051928284938452830190610334565b869350819291528282205b8583106109895750506109519350820101388080610942565b80548389018501528794508693909201918101610970565b93509450505061095194915060ff191682840152151560051b820101388080610942565b3461024e57604036600319011261024e576004356109e281610480565b60243590610a0165ffffffffffff6109f94361327a565b168310611b90565b6001600160a01b0316600090815260096020526040812091610a22906132e1565b91805482938160058111610a73575b5090602094610a409284612b74565b80610a5a5750505b6040516001600160e01b039091168152f35b91610a66849293612741565b928152200154811c610a48565b94610a7d866130bf565b8603958611610ac657602095610a409385875263ffffffff80838a8a2001541690851610600014610ab45750915b91925094610a31565b929150610ac090612750565b90610aab565b6117f2565b3461024e576104ec610adc3661056b565b9060405192610aea8461086d565b6000845261217c565b3461024e57600036600319011261024e574365ffffffffffff610b154361327a565b1603610b60576103c5604051610b2a8161088d565b601d81527f6d6f64653d626c6f636b6e756d6265722666726f6d3d64656661756c74000000602082015260405191829182610359565b60405162461bcd60e51b815260206004820152601860248201527f566f7465733a2062726f6b656e20636c6f636b206d6f646500000000000000006044820152606490fd5b3461024e57602036600319011261024e576020600435610bc481610480565b60018060a01b038091166000526008825260406000205416604051908152f35b3461024e57602036600319011261024e576104ec600435610c0481610480565b33611c16565b3461024e57602036600319011261024e57602061046e600435612047565b3461024e57604036600319011261024e57600435610c4581610480565b6024356001600160401b03811161024e57610c64903690600401610655565b600d546000198114610ac6576001019081600d5560405190610c858261086d565b600082526001600160a01b038416918215610e2157610dcc8492610dad610da87fa1c6fd563bcbc3222f6031d7c26ff58cd6c701abff0bfffe652d055ce40629d494866103c59a610cfa610cf5610cf184600052600260205260018060a01b0360406000205416151590565b1590565b612292565b600082815260026020526040902054610d1c906001600160a01b031615612292565b6001600160a01b038116600090815260036020526040902060018154019055610d7281610d53846000526002602052604060002090565b80546001600160a01b0319166001600160a01b03909216919091179055565b818a60007fddf252ad1be2c89b69c2b068fc378daa952ba7f163c4a11628f55a4df523b3ef8180a4610da381612674565b612577565b6121f6565b610db78180611808565b9050610ddf575b604051918291339083611955565b0390a36040519081529081906020820190565b610e1c610dec8280611808565b90610e17610e0488600052600e602052604060002090565b6020860135600052602052604060002090565b61188e565b610dbe565b606460405162461bcd60e51b815260206004820152602060248201527f4552433732313a206d696e7420746f20746865207a65726f20616464726573736044820152fd5b3461024e57602036600319011261024e57602061064d600435610e8781610480565b611f84565b3461024e5760008060031936011261044d57610ea6611b38565b600c80546001600160a01b0319811690915581906001600160a01b03167f8be0079c531659141344cd1fd0a4f28419497f9722a3daafe3b4186f6b6457e08280a380f35b3461024e57602036600319011261024e57600435610f0781610480565b60018060a01b0316600052600b6020526020604060002054604051908152f35b3461024e5760008060031936011261044d57610fd190610f667f0000000000000000000000000000000000000000000000000000000000000000612eec565b610f8f7f0000000000000000000000000000000000000000000000000000000000000000612fe5565b9160405191610f9d8361086d565b818352604051948594600f60f81b8652610fc360209360e08589015260e0880190610334565b908682036040880152610334565b904660608601523060808601528260a086015284820360c08601528080855193848152019401925b82811061100857505050500390f35b835185528695509381019392810192600101610ff9565b3461024e57600036600319011261024e57600c546040516001600160a01b039091168152602090f35b3461024e57602036600319011261024e5761107f60043561107a65ffffffffffff6110724361327a565b168210611b90565b6132e1565b600a549060008291600584116110d6575b61109a9350612b0d565b6000816110af57505060405160008152602090f35b600a6110bc602093612741565b91526000805160206133478339815191520154811c610a48565b91926110e1816130bf565b8103908111610ac65761109a93600a835263ffffffff80836000805160206133478339815191520154169085161060001461111d575091611090565b92915061112990612750565b90611090565b3461024e57600036600319011261024e57602061114b4361327a565b65ffffffffffff60405191168152f35b3461024e5760008060031936011261044d57604051908060018054916111808361081d565b8086529282811690811561042357506001146111a6576103c5856103b9818703826108c3565b92508083527fb10e2d527612073b26eecdfd717e6a320cf44b4afac2b0732d9fcbe2b7fa0cf65b8284106111e85750505081016020016103b9826103c56103a9565b805460208587018101919091529093019281016111cd565b3461024e57602036600319011261024e5760043561121d81610480565b6001600160a01b031660009081526009602090815260409091206001600160e01b0390611249906127a8565b16604051908152f35b8015150361024e57565b3461024e57604036600319011261024e5760043561127981610480565b60243561128581611252565b6001600160a01b0382169133831461130757816112c46112d59233600052600560205260406000209060018060a01b0316600052602052604060002090565b9060ff801983541691151516179055565b604051901515815233907f17307eab39ab6107e8899845ad3d59bd9653f200f220920489ca2b5937696c3190602090a3005b60405162461bcd60e51b815260206004820152601960248201527f4552433732313a20617070726f766520746f2063616c6c6572000000000000006044820152606490fd5b3461024e57600036600319011261024e576040517f00000000000000000000000000000000000000000000000000000000000000006001600160a01b03168152602090f35b6040519061139e8261088d565b565b6001600160401b03811161088857601f01601f191660200190565b3461024e57608036600319011261024e576004356113d881610480565b6024356113e481610480565b606435916001600160401b03831161024e573660238401121561024e57826004013591611410836113a0565b9261141e60405194856108c3565b808452366024828701011161024e5760208160009260246104ec980183880137850101526044359161217c565b3461024e5760c036600319011261024e5760043561146881610480565b6064359060243560443560ff8416840361024e578042116115395761150b611534916104ec95604051906114f3826114e56020820195898b8860609194939260808201957fe48329057bfd03d55e49b547132e39cffd9c1820ad7b9d4c5307691425d15adf835260018060a01b0316602083015260408201520152565b03601f1981018452836108c3565b61150660a4359360843593519020612ec6565b612bd3565b6001600160a01b0381166000908152600b60205260409020805460018101909155909214611bd3565b611c16565b60405162461bcd60e51b815260206004820152601860248201527f566f7465733a207369676e6174757265206578706972656400000000000000006044820152606490fd5b3461024e57602036600319011261024e576103c561159d60043561171b565b604051918291602083526020830190610334565b3461024e57600036600319011261024e57600f546040516001600160a01b039091168152602090f35b3461024e57604036600319011261024e57602060ff6116366004356115fe81610480565b6024359061160b82610480565b60018060a01b03166000526005845260406000209060018060a01b0316600052602052604060002090565b54166040519015158152f35b3461024e57602036600319011261024e5760043561165f81610480565b611667611b38565b6001600160a01b039081169081156116bb57600c54826bffffffffffffffffffffffff60a01b821617600c55167f8be0079c531659141344cd1fd0a4f28419497f9722a3daafe3b4186f6b6457e0600080a3005b60405162461bcd60e51b815260206004820152602660248201527f4f776e61626c653a206e6577206f776e657220697320746865207a65726f206160448201526564647265737360d01b6064820152608490fd5b6040513d6000823e3d90fd5b600f546001600160a01b03169081156117dd57604051918291636d02a25560e11b8352600483015281602460009485935afa91821561078557809261175f57505090565b9091503d8082843e61177181846108c3565b8201916020818403126117d5578051906001600160401b0382116117d9570182601f820112156117d5578051916117a7836113a0565b936117b560405195866108c3565b8385526020848401011161044d57509061036a9160208085019101610311565b5080fd5b8280fd5b50506040516117eb8161086d565b6000815290565b634e487b7160e01b600052601160045260246000fd5b903590601e198136030182121561024e57018035906001600160401b03821161024e5760200191813603831361024e57565b90601f811161184857505050565b600091825260208220906020601f850160051c83019410611884575b601f0160051c01915b82811061187957505050565b81815560010161186d565b9092508290611864565b9092916001600160401b038111610888576118b3816118ad845461081d565b8461183a565b6000601f82116001146118ed57819293946000926118e2575b50508160011b916000199060031b1c1916179055565b0135905038806118cc565b601f1982169461190284600052602060002090565b91805b87811061193d575083600195969710611923575b505050811b019055565b0135600019600384901b60f8161c19169055388080611919565b90926020600181928686013581550194019101611905565b9291604084528135601e198336030181121561024e57820191602083359301906001600160401b03841161024e57833603821361024e5783602060a09261139e9682956040808c01528160808c0152858b0137600084848b01015201356060880152601f801991011686010194019060018060a01b03169052565b906119db8180611808565b600091848352602090600e825260408420828601358552825260408420936001600160401b03841161088857611a1b84611a15875461081d565b8761183a565b8092601f8511600114611a8c575092611a7c949281927fd07720acb527321c9d1766f359139d0e0e3551bd99fb3ca353d4f008f3aad8e6979592611a81575b50508160011b916000199060031b1c1916179055604051918291339083611955565b0390a2565b013590503880611a5a565b601f93919319851690611aa487600052602060002090565b94905b828210611b0b5750509260019285927fd07720acb527321c9d1766f359139d0e0e3551bd99fb3ca353d4f008f3aad8e69896611a7c989610611af1575b505050811b019055610dbe565b0135600019600384901b60f8161c19169055388080611ae4565b80600185978294968801358155019601930190611aa7565b9081602091031261024e575161036a81611252565b600c546001600160a01b03163303611b4c57565b606460405162461bcd60e51b815260206004820152602060248201527f4f776e61626c653a2063616c6c6572206973206e6f7420746865206f776e65726044820152fd5b15611b9757565b60405162461bcd60e51b81526020600482015260146024820152730566f7465733a20667574757265206c6f6f6b75760641b6044820152606490fd5b15611bda57565b60405162461bcd60e51b8152602060048201526014602482015273566f7465733a20696e76616c6964206e6f6e636560601b6044820152606490fd5b6001600160a01b03818116600081815260086020526040812080548685166001600160a01b0319821681179092559095931693611c7c929091869186917f3134e8a2e6d97e929a7e54011ea5485d7d196dd5f0ba4d4ef95803e8e3fc257f9080a4611f84565b918381141580611d9d575b611c92575b50505050565b80611d03575b5082611ca5575b80611c8c565b6001600160a01b0316600090815260096020526040902060008051602061336783398151915291611ce091611cda9091613211565b90611ee9565b604080516001600160e01b039384168152919092166020820152a2388080611c9f565b6001600160a01b0381166000908152600960205260409020611d2484613211565b611d3d65ffffffffffff611d374361327a565b166132e1565b6001600160e01b03918280611d51866127a8565b169116900392828411610ac65760008051602061336783398151915293611d9492611d7b92612a27565b6040805192851683529316602082015291829190820190565b0390a238611c98565b50821515611c87565b6001600160a01b038083169291908116908184141580611ea3575b611dcb5750505050565b81611e32575b505081611de0575b8080611c8c565b6001600160a01b0316600090815260096020526040902060008051602061336783398151915290611e1090611eab565b604080516001600160e01b039384168152919092166020820152a23880611dd9565b6001600160a01b03166000908152600960205260409020611e5c65ffffffffffff611d374361327a565b6001600160e01b039060001982611e72856127a8565b160192828411610ac65760008051602061336783398151915293611e9992611d7b92612a27565b0390a23880611dd1565b506001611dc1565b611ebe65ffffffffffff611d374361327a565b6001600160e01b0390600182611ed3856127a8565b1601918211610ac657611ee592612a27565b9091565b90611efd65ffffffffffff611d374361327a565b6001600160e01b03918280611f11866127a8565b16911601918211610ac657611ee592612a27565b611f3865ffffffffffff611d374361327a565b6001600160e01b03600181611f4b61275e565b1601908111610ac657611ee591612909565b611f7065ffffffffffff611d374361327a565b6001600160e01b0360001981611f4b61275e565b6001600160a01b03168015611fa457600052600360205260406000205490565b60405162461bcd60e51b815260206004820152602960248201527f4552433732313a2061646472657373207a65726f206973206e6f7420612076616044820152683634b21037bbb732b960b91b6064820152608490fd5b1561200257565b60405162461bcd60e51b815260206004820152601860248201527f4552433732313a20696e76616c696420746f6b656e20494400000000000000006044820152606490fd5b6000908152600260205260409020546001600160a01b031661036a811515611ffb565b1561207157565b60405162461bcd60e51b815260206004820152603d60248201527f4552433732313a20617070726f76652063616c6c6572206973206e6f7420746f60448201527f6b656e206f776e6572206f7220617070726f76656420666f7220616c6c0000006064820152608490fd5b6000818152600260205260409020546120ff906001600160a01b03161515611ffb565b6000908152600460205260409020546001600160a01b031690565b1561212157565b60405162461bcd60e51b815260206004820152602d60248201527f4552433732313a2063616c6c6572206973206e6f7420746f6b656e206f776e6560448201526c1c881bdc88185c1c1c9bdd9959609a1b6064820152608490fd5b9161139e9391610da8936121936105b6843361221a565b61219e838383612338565b612638565b60809060208152603260208201527f4552433732313a207472616e7366657220746f206e6f6e20455243373231526560408201527131b2b4bb32b91034b6b83632b6b2b73a32b960711b60608201520190565b156121fd57565b60405162461bcd60e51b815280612216600482016121a3565b0390fd5b6001600160a01b038061222c84612047565b169281831692848414948515612262575b5050831561224c575b50505090565b612258919293506120dc565b1614388080612246565b60009081526005602090815260408083206001600160a01b03949094168352929052205460ff169350388061223d565b1561229957565b60405162461bcd60e51b815260206004820152601c60248201527f4552433732313a20746f6b656e20616c7265616479206d696e746564000000006044820152606490fd5b156122e557565b60405162461bcd60e51b815260206004820152602560248201527f4552433732313a207472616e736665722066726f6d20696e636f72726563742060448201526437bbb732b960d91b6064820152608490fd5b61235c9261234581612047565b6001600160a01b03838116959091821686146122de565b83168015612421578461238a61139e9661238461237886612047565b6001600160a01b031690565b146122de565b6123b16123a1846000526004602052604060002090565b80546001600160a01b0319169055565b6001600160a01b038481166000908152600360209081526040808320805460001901905592881682528282208054600101905585825260029052206123f7908690610d53565b7fddf252ad1be2c89b69c2b068fc378daa952ba7f163c4a11628f55a4df523b3ef600080a46126df565b60405162461bcd60e51b8152602060048201526024808201527f4552433732313a207472616e7366657220746f20746865207a65726f206164646044820152637265737360e01b6064820152608490fd5b600082815260046020526040902080546001600160a01b0319166001600160a01b0383161790556001600160a01b03806124ab84612047565b169116907f8c5be1e5ebec7d5bd14f71427d1e84f3dd0314c0f7b2291e5b200ac8c7c3b925600080a4565b9081602091031261024e575161036a8161023c565b61036a939260809260018060a01b031682526000602083015260408201528160608201520190610334565b6001600160a01b03918216815291166020820152604081019190915260806060820181905261036a92910190610334565b3d15612572573d90612558826113a0565b9161256660405193846108c3565b82523d6000602084013e565b606090565b909190803b15612630576125a9602091600093604051948580948193630a85bd0160e11b998a845233600485016124eb565b03926001600160a01b03165af160009181612600575b506125f2576125cc612547565b805190816125ed5760405162461bcd60e51b815280612216600482016121a3565b602001fd5b6001600160e01b0319161490565b61262291925060203d8111612629575b61261a81836108c3565b8101906124d6565b90386125bf565b503d612610565b505050600190565b92909190823b1561266b576125a9926020926000604051809681958294630a85bd0160e11b9a8b85523360048601612516565b50505050600190565b61139e90612680611f25565b50506001600160a01b039081169081156126d0575b60086020527f5eff886ea0ce6ca488a3d6e336d6c0f75f46d19b42c06ce5ee98e42c96d256c754600092835260409092205481169116611da6565b6126d8611f5d565b5050612695565b61139e916001600160a01b03918216919081908315612732575b16918215612723575b60005260086020528060406000205416916000526040600020541690611da6565b61272b611f5d565b5050612702565b61273a611f25565b50506126f9565b600019810191908211610ac657565b9060018201809211610ac657565b600a5460009080612770575050600090565b80600019810111610ac657600a7fc65a7bb8d6351c1cf70c95a316cc6a92839c986682d98bc35f958f4883f9d2a79252015460201c90565b8054600091816127ba57505050600090565b600019928284810111610ac65760209181522001015460201c90565b600a5490600160401b821015610888576001820180600a5582101561282b57600a600052805160209182015190911b63ffffffff191663ffffffff919091161760008051602061334783398151915290910155565b634e487b7160e01b600052603260045260246000fd5b908154600160401b811015610888576001810180845581101561282b57600092835260209283902082519284015190931b63ffffffff191663ffffffff9290921691909117910155565b90604051604081018181106001600160401b0382111761088857604052602081935463ffffffff81168352811c910152565b156128c457565b60405162461bcd60e51b815260206004820152601b60248201527f436865636b706f696e743a2064656372656173696e67206b65797300000000006044820152606490fd5b600a5491929180156129fd576129c391818561294961294461292c602096612741565b600a6000526000805160206133478339815191520190565b61288b565b92612958845163ffffffff1690565b61296f63ffffffff918284169283911611156128bd565b612989612980865163ffffffff1690565b63ffffffff1690565b036129c7575061299e61292c6129b593612741565b9063ffffffff82549181199060201b169116179055565b01516001600160e01b031690565b9190565b90506129f891506129e56129d9611391565b63ffffffff9092168252565b6001600160e01b038716818501526127d6565b6129b5565b50612a2190612a0d6129d9611391565b6001600160e01b03841660208201526127d6565b60009190565b90929192838254801515600014612ae857926020929184612a5d612944612a506129c398612741565b8560005260206000200190565b93612a6c855163ffffffff1690565b612a8363ffffffff918284169283911611156128bd565b612a94612980875163ffffffff1690565b03612ab757506129b592612aaa61299e92612741565b9060005260206000200190565b9150506129f891612ad5612ac9611391565b63ffffffff9093168352565b6001600160e01b03881682860152612841565b5050612a2191612af9612ac9611391565b6001600160e01b0385166020830152612841565b905b828110612b1b57505090565b90918082169080831860011c8201809211610ac657600a60005263ffffffff808360008051602061334783398151915201541690851610600014612b625750915b90612b0f565b929150612b6e90612750565b90612b5c565b91905b838210612b845750505090565b9091928083169080841860011c8201809211610ac65760008581526020902082015463ffffffff9081169084161015612bc15750925b9190612b77565b939250612bcd90612750565b91612bba565b9161036a9391612be293612d2a565b919091612c0a565b60051115612bf457565b634e487b7160e01b600052602160045260246000fd5b612c1381612bea565b80612c1b5750565b612c2481612bea565b60018103612c715760405162461bcd60e51b815260206004820152601860248201527f45434453413a20696e76616c6964207369676e617475726500000000000000006044820152606490fd5b612c7a81612bea565b60028103612cc75760405162461bcd60e51b815260206004820152601f60248201527f45434453413a20696e76616c6964207369676e6174757265206c656e677468006044820152606490fd5b80612cd3600392612bea565b14612cda57565b60405162461bcd60e51b815260206004820152602260248201527f45434453413a20696e76616c6964207369676e6174757265202773272076616c604482015261756560f01b6064820152608490fd5b9291907f7fffffffffffffffffffffffffffffff5d576e7357a4501ddfe92f46681b20a08311612da05791608094939160ff602094604051948552168484015260408301526060820152600093849182805260015afa156107855781516001600160a01b03811615612d9a579190565b50600190565b50505050600090600390565b307f00000000000000000000000000000000000000000000000000000000000000006001600160a01b03161480612e9d575b15612e07577f000000000000000000000000000000000000000000000000000000000000000090565b60405160208101907f8b73c3c69bb8fe3d512ecc4cf759cc79239f7b179b0ffacaa9a75d522b39400f82527f000000000000000000000000000000000000000000000000000000000000000060408201527f000000000000000000000000000000000000000000000000000000000000000060608201524660808201523060a082015260a08152612e97816108a8565b51902090565b507f00000000000000000000000000000000000000000000000000000000000000004614612dde565b604290612ed1612dac565b906040519161190160f01b8352600283015260228201522090565b60ff8114612f2a5760ff811690601f8211612f185760405191612f0e8361088d565b8252602082015290565b604051632cd44ac360e21b8152600490fd5b50604051600654816000612f3d8361081d565b80835292600190818116908115612fc35750600114612f64575b5061036a925003826108c3565b6006600090815291507ff652222313e28459528d920b65115c16c04f3efc82aaedc97be59f3f377c0d3f5b848310612fa8575061036a935050810160200138612f57565b81935090816020925483858901015201910190918492612f8f565b90506020925061036a94915060ff191682840152151560051b82010138612f57565b60ff81146130075760ff811690601f8211612f185760405191612f0e8361088d565b5060405160075481600061301a8361081d565b80835292600190818116908115612fc35750600114613040575061036a925003826108c3565b6007600090815291507fa66cc928b5edb82af9bd49922954155ab7b0942694bea4ce44661d9a8736c6885b848310613084575061036a935050810160200138612f57565b8193509081602092548385890101520191019091849261306b565b81156130a9570490565b634e487b7160e01b600052601260045260246000fd5b80156131f9578061319261318b61318161317761316d61316361315961314f600161036a9a6000908b60801c806131ed575b508060401c806131e0575b508060201c806131d3575b508060101c806131c6575b508060081c806131b9575b508060041c806131ac575b508060021c8061319f575b50821c613198575b811c1b613148818b61309f565b0160011c90565b613148818a61309f565b613148818961309f565b613148818861309f565b613148818761309f565b613148818661309f565b613148818561309f565b809261309f565b906131ff565b810161313b565b6002915091019038613133565b6004915091019038613128565b600891509101903861311d565b6010915091019038613112565b6020915091019038613107565b60409150910190386130fc565b915050608090386130f1565b50600090565b908082101561320c575090565b905090565b6001600160e01b0390818111613225571690565b60405162461bcd60e51b815260206004820152602760248201527f53616665436173743a2076616c756520646f65736e27742066697420696e20326044820152663234206269747360c81b6064820152608490fd5b65ffffffffffff9081811161328d571690565b60405162461bcd60e51b815260206004820152602660248201527f53616665436173743a2076616c756520646f65736e27742066697420696e203460448201526538206269747360d01b6064820152608490fd5b63ffffffff908181116132f2571690565b60405162461bcd60e51b815260206004820152602660248201527f53616665436173743a2076616c756520646f65736e27742066697420696e203360448201526532206269747360d01b6064820152608490fdfec65a7bb8d6351c1cf70c95a316cc6a92839c986682d98bc35f958f4883f9d2a8dec2bacdd2f05b59de34da9b523dff8be42e5e38e818c82fdb0bae774387a724a2646970667358221220499968f7152b0e88b3e719fbdf50927535e4d841fe22c830b791af1c890eab0664736f6c63430008140033",
    "linkReferences": {}
  },
  "methodIdentifiers": {
    "CLOCK_MODE()": "4bf5d7e9",
    "DOMAIN_SEPARATOR()": "3644e515",
    "approve(address,uint256)": "095ea7b3",
    "balanceOf(address)": "70a08231",
    "clock()": "91ddadf4",
    "count()": "06661abd",
    "createFor(address,(string,uint256))": "666d87a0",
    "delegate(address)": "5c19a95c",
    "delegateBySig(address,uint256,uint256,uint8,bytes32,bytes32)": "c3cda520",
    "delegates(address)": "587cde1e",
    "eip712Domain()": "84b0196e",
    "getApproved(uint256)": "081812fc",
    "getPastTotalSupply(uint256)": "8e539e8c",
    "getPastVotes(address,uint256)": "3a46b1a8",
    "getVotes(address)": "9ab24eb0",
    "isApprovedForAll(address,address)": "e985e9c5",
    "metadataContentOf(uint256,uint256)": "39fbc775",
    "name()": "06fdde03",
    "nonces(address)": "7ecebe00",
    "operatorStore()": "ad007d63",
    "owner()": "8da5cb5b",
    "ownerOf(uint256)": "6352211e",
    "renounceOwnership()": "715018a6",
    "safeTransferFrom(address,address,uint256)": "42842e0e",
    "safeTransferFrom(address,address,uint256,bytes)": "b88d4fde",
    "setApprovalForAll(address,bool)": "a22cb465",
    "setMetadataOf(uint256,(string,uint256))": "36574975",
    "setTokenUriResolver(address)": "2407497e",
    "supportsInterface(bytes4)": "01ffc9a7",
    "symbol()": "95d89b41",
    "tokenURI(uint256)": "c87b56dd",
    "tokenUriResolver()": "e131fc0c",
    "transferFrom(address,address,uint256)": "23b872dd",
    "transferOwnership(address)": "f2fde38b"
  },
  "id": 79
}