{
  "abi": [
    {
      "inputs": [
        {
          "internalType": "contract IJBOperatorStore",
          "name": "_operatorStore",
          "type": "address"
        }
      ],
      "stateMutability": "nonpayable",
      "type": "constructor"
    },
    {
      "inputs": [],
      "name": "UNAUTHORIZED",
      "type": "error"
    },
    {
      "anonymous": false,
      "inputs": [
        {
          "indexed": true,
          "internalType": "address",
          "name": "owner",
          "type": "address"
        },
        {
          "indexed": true,
          "internalType": "address",
          "name": "approved",
          "type": "address"
        },
        {
          "indexed": true,
          "internalType": "uint256",
          "name": "tokenId",
          "type": "uint256"
        }
      ],
      "name": "Approval",
      "type": "event"
    },
    {
      "anonymous": false,
      "inputs": [
        {
          "indexed": true,
          "internalType": "address",
          "name": "owner",
          "type": "address"
        },
        {
          "indexed": true,
          "internalType": "address",
          "name": "operator",
          "type": "address"
        },
        {
          "indexed": false,
          "internalType": "bool",
          "name": "approved",
          "type": "bool"
        }
      ],
      "name": "ApprovalForAll",
      "type": "event"
    },
    {
      "anonymous": false,
      "inputs": [
        {
          "indexed": true,
          "internalType": "uint256",
          "name": "projectId",
          "type": "uint256"
        },
        {
          "indexed": true,
          "internalType": "address",
          "name": "owner",
          "type": "address"
        },
        {
          "components": [
            {
              "internalType": "string",
              "name": "content",
              "type": "string"
            },
            {
              "internalType": "uint256",
              "name": "domain",
              "type": "uint256"
            }
          ],
          "indexed": false,
          "internalType": "struct JBProjectMetadata",
          "name": "metadata",
          "type": "tuple"
        },
        {
          "indexed": false,
          "internalType": "address",
          "name": "caller",
          "type": "address"
        }
      ],
      "name": "Create",
      "type": "event"
    },
    {
      "anonymous": false,
      "inputs": [
        {
          "indexed": true,
          "internalType": "address",
          "name": "delegator",
          "type": "address"
        },
        {
          "indexed": true,
          "internalType": "address",
          "name": "fromDelegate",
          "type": "address"
        },
        {
          "indexed": true,
          "internalType": "address",
          "name": "toDelegate",
          "type": "address"
        }
      ],
      "name": "DelegateChanged",
      "type": "event"
    },
    {
      "anonymous": false,
      "inputs": [
        {
          "indexed": true,
          "internalType": "address",
          "name": "delegate",
          "type": "address"
        },
        {
          "indexed": false,
          "internalType": "uint256",
          "name": "previousBalance",
          "type": "uint256"
        },
        {
          "indexed": false,
          "internalType": "uint256",
          "name": "newBalance",
          "type": "uint256"
        }
      ],
      "name": "DelegateVotesChanged",
      "type": "event"
    },
    {
      "anonymous": false,
      "inputs": [
        {
          "indexed": true,
          "internalType": "address",
          "name": "previousOwner",
          "type": "address"
        },
        {
          "indexed": true,
          "internalType": "address",
          "name": "newOwner",
          "type": "address"
        }
      ],
      "name": "OwnershipTransferred",
      "type": "event"
    },
    {
      "anonymous": false,
      "inputs": [
        {
          "indexed": true,
          "internalType": "uint256",
          "name": "projectId",
          "type": "uint256"
        },
        {
          "components": [
            {
              "internalType": "string",
              "name": "content",
              "type": "string"
            },
            {
              "internalType": "uint256",
              "name": "domain",
              "type": "uint256"
            }
          ],
          "indexed": false,
          "internalType": "struct JBProjectMetadata",
          "name": "metadata",
          "type": "tuple"
        },
        {
          "indexed": false,
          "internalType": "address",
          "name": "caller",
          "type": "address"
        }
      ],
      "name": "SetMetadata",
      "type": "event"
    },
    {
      "anonymous": false,
      "inputs": [
        {
          "indexed": true,
          "internalType": "contract IJBTokenUriResolver",
          "name": "resolver",
          "type": "address"
        },
        {
          "indexed": false,
          "internalType": "address",
          "name": "caller",
          "type": "address"
        }
      ],
      "name": "SetTokenUriResolver",
      "type": "event"
    },
    {
      "anonymous": false,
      "inputs": [
        {
          "indexed": true,
          "internalType": "address",
          "name": "from",
          "type": "address"
        },
        {
          "indexed": true,
          "internalType": "address",
          "name": "to",
          "type": "address"
        },
        {
          "indexed": true,
          "internalType": "uint256",
          "name": "tokenId",
          "type": "uint256"
        }
      ],
      "name": "Transfer",
      "type": "event"
    },
    {
      "inputs": [],
      "name": "DOMAIN_SEPARATOR",
      "outputs": [
        {
          "internalType": "bytes32",
          "name": "",
          "type": "bytes32"
        }
      ],
      "stateMutability": "view",
      "type": "function"
    },
    {
      "inputs": [
        {
          "internalType": "address",
          "name": "to",
          "type": "address"
        },
        {
          "internalType": "uint256",
          "name": "tokenId",
          "type": "uint256"
        }
      ],
      "name": "approve",
      "outputs": [],
      "stateMutability": "nonpayable",
      "type": "function"
    },
    {
      "inputs": [
        {
          "internalType": "address",
          "name": "owner",
          "type": "address"
        }
      ],
      "name": "balanceOf",
      "outputs": [
        {
          "internalType": "uint256",
          "name": "",
          "type": "uint256"
        }
      ],
      "stateMutability": "view",
      "type": "function"
    },
    {
      "inputs": [],
      "name": "count",
      "outputs": [
        {
          "internalType": "uint256",
          "name": "",
          "type": "uint256"
        }
      ],
      "stateMutability": "view",
      "type": "function"
    },
    {
      "inputs": [
        {
          "internalType": "address",
          "name": "_owner",
          "type": "address"
        },
        {
          "components": [
            {
              "internalType": "string",
              "name": "content",
              "type": "string"
            },
            {
              "internalType": "uint256",
              "name": "domain",
              "type": "uint256"
            }
          ],
          "internalType": "struct JBProjectMetadata",
          "name": "_metadata",
          "type": "tuple"
        }
      ],
      "name": "createFor",
      "outputs": [
        {
          "internalType": "uint256",
          "name": "projectId",
          "type": "uint256"
        }
      ],
      "stateMutability": "nonpayable",
      "type": "function"
    },
    {
      "inputs": [
        {
          "internalType": "address",
          "name": "delegatee",
          "type": "address"
        }
      ],
      "name": "delegate",
      "outputs": [],
      "stateMutability": "nonpayable",
      "type": "function"
    },
    {
      "inputs": [
        {
          "internalType": "address",
          "name": "delegatee",
          "type": "address"
        },
        {
          "internalType": "uint256",
          "name": "nonce",
          "type": "uint256"
        },
        {
          "internalType": "uint256",
          "name": "expiry",
          "type": "uint256"
        },
        {
          "internalType": "uint8",
          "name": "v",
          "type": "uint8"
        },
        {
          "internalType": "bytes32",
          "name": "r",
          "type": "bytes32"
        },
        {
          "internalType": "bytes32",
          "name": "s",
          "type": "bytes32"
        }
      ],
      "name": "delegateBySig",
      "outputs": [],
      "stateMutability": "nonpayable",
      "type": "function"
    },
    {
      "inputs": [
        {
          "internalType": "address",
          "name": "account",
          "type": "address"
        }
      ],
      "name": "delegates",
      "outputs": [
        {
          "internalType": "address",
          "name": "",
          "type": "address"
        }
      ],
      "stateMutability": "view",
      "type": "function"
    },
    {
      "inputs": [
        {
          "internalType": "uint256",
          "name": "tokenId",
          "type": "uint256"
        }
      ],
      "name": "getApproved",
      "outputs": [
        {
          "internalType": "address",
          "name": "",
          "type": "address"
        }
      ],
      "stateMutability": "view",
      "type": "function"
    },
    {
      "inputs": [
        {
          "internalType": "uint256",
          "name": "blockNumber",
          "type": "uint256"
        }
      ],
      "name": "getPastTotalSupply",
      "outputs": [
        {
          "internalType": "uint256",
          "name": "",
          "type": "uint256"
        }
      ],
      "stateMutability": "view",
      "type": "function"
    },
    {
      "inputs": [
        {
          "internalType": "address",
          "name": "account",
          "type": "address"
        },
        {
          "internalType": "uint256",
          "name": "blockNumber",
          "type": "uint256"
        }
      ],
      "name": "getPastVotes",
      "outputs": [
        {
          "internalType": "uint256",
          "name": "",
          "type": "uint256"
        }
      ],
      "stateMutability": "view",
      "type": "function"
    },
    {
      "inputs": [
        {
          "internalType": "address",
          "name": "account",
          "type": "address"
        }
      ],
      "name": "getVotes",
      "outputs": [
        {
          "internalType": "uint256",
          "name": "",
          "type": "uint256"
        }
      ],
      "stateMutability": "view",
      "type": "function"
    },
    {
      "inputs": [
        {
          "internalType": "address",
          "name": "owner",
          "type": "address"
        },
        {
          "internalType": "address",
          "name": "operator",
          "type": "address"
        }
      ],
      "name": "isApprovedForAll",
      "outputs": [
        {
          "internalType": "bool",
          "name": "",
          "type": "bool"
        }
      ],
      "stateMutability": "view",
      "type": "function"
    },
    {
      "inputs": [
        {
          "internalType": "uint256",
          "name": "",
          "type": "uint256"
        },
        {
          "internalType": "uint256",
          "name": "",
          "type": "uint256"
        }
      ],
      "name": "metadataContentOf",
      "outputs": [
        {
          "internalType": "string",
          "name": "",
          "type": "string"
        }
      ],
      "stateMutability": "view",
      "type": "function"
    },
    {
      "inputs": [],
      "name": "name",
      "outputs": [
        {
          "internalType": "string",
          "name": "",
          "type": "string"
        }
      ],
      "stateMutability": "view",
      "type": "function"
    },
    {
      "inputs": [
        {
          "internalType": "address",
          "name": "owner",
          "type": "address"
        }
      ],
      "name": "nonces",
      "outputs": [
        {
          "internalType": "uint256",
          "name": "",
          "type": "uint256"
        }
      ],
      "stateMutability": "view",
      "type": "function"
    },
    {
      "inputs": [],
      "name": "operatorStore",
      "outputs": [
        {
          "internalType": "contract IJBOperatorStore",
          "name": "",
          "type": "address"
        }
      ],
      "stateMutability": "view",
      "type": "function"
    },
    {
      "inputs": [],
      "name": "owner",
      "outputs": [
        {
          "internalType": "address",
          "name": "",
          "type": "address"
        }
      ],
      "stateMutability": "view",
      "type": "function"
    },
    {
      "inputs": [
        {
          "internalType": "uint256",
          "name": "tokenId",
          "type": "uint256"
        }
      ],
      "name": "ownerOf",
      "outputs": [
        {
          "internalType": "address",
          "name": "",
          "type": "address"
        }
      ],
      "stateMutability": "view",
      "type": "function"
    },
    {
      "inputs": [],
      "name": "renounceOwnership",
      "outputs": [],
      "stateMutability": "nonpayable",
      "type": "function"
    },
    {
      "inputs": [
        {
          "internalType": "address",
          "name": "from",
          "type": "address"
        },
        {
          "internalType": "address",
          "name": "to",
          "type": "address"
        },
        {
          "internalType": "uint256",
          "name": "tokenId",
          "type": "uint256"
        }
      ],
      "name": "safeTransferFrom",
      "outputs": [],
      "stateMutability": "nonpayable",
      "type": "function"
    },
    {
      "inputs": [
        {
          "internalType": "address",
          "name": "from",
          "type": "address"
        },
        {
          "internalType": "address",
          "name": "to",
          "type": "address"
        },
        {
          "internalType": "uint256",
          "name": "tokenId",
          "type": "uint256"
        },
        {
          "internalType": "bytes",
          "name": "data",
          "type": "bytes"
        }
      ],
      "name": "safeTransferFrom",
      "outputs": [],
      "stateMutability": "nonpayable",
      "type": "function"
    },
    {
      "inputs": [
        {
          "internalType": "address",
          "name": "operator",
          "type": "address"
        },
        {
          "internalType": "bool",
          "name": "approved",
          "type": "bool"
        }
      ],
      "name": "setApprovalForAll",
      "outputs": [],
      "stateMutability": "nonpayable",
      "type": "function"
    },
    {
      "inputs": [
        {
          "internalType": "uint256",
          "name": "_projectId",
          "type": "uint256"
        },
        {
          "components": [
            {
              "internalType": "string",
              "name": "content",
              "type": "string"
            },
            {
              "internalType": "uint256",
              "name": "domain",
              "type": "uint256"
            }
          ],
          "internalType": "struct JBProjectMetadata",
          "name": "_metadata",
          "type": "tuple"
        }
      ],
      "name": "setMetadataOf",
      "outputs": [],
      "stateMutability": "nonpayable",
      "type": "function"
    },
    {
      "inputs": [
        {
          "internalType": "contract IJBTokenUriResolver",
          "name": "_newResolver",
          "type": "address"
        }
      ],
      "name": "setTokenUriResolver",
      "outputs": [],
      "stateMutability": "nonpayable",
      "type": "function"
    },
    {
      "inputs": [
        {
          "internalType": "bytes4",
          "name": "_interfaceId",
          "type": "bytes4"
        }
      ],
      "name": "supportsInterface",
      "outputs": [
        {
          "internalType": "bool",
          "name": "",
          "type": "bool"
        }
      ],
      "stateMutability": "view",
      "type": "function"
    },
    {
      "inputs": [],
      "name": "symbol",
      "outputs": [
        {
          "internalType": "string",
          "name": "",
          "type": "string"
        }
      ],
      "stateMutability": "view",
      "type": "function"
    },
    {
      "inputs": [
        {
          "internalType": "uint256",
          "name": "_projectId",
          "type": "uint256"
        }
      ],
      "name": "tokenURI",
      "outputs": [
        {
          "internalType": "string",
          "name": "",
          "type": "string"
        }
      ],
      "stateMutability": "view",
      "type": "function"
    },
    {
      "inputs": [],
      "name": "tokenUriResolver",
      "outputs": [
        {
          "internalType": "contract IJBTokenUriResolver",
          "name": "",
          "type": "address"
        }
      ],
      "stateMutability": "view",
      "type": "function"
    },
    {
      "inputs": [
        {
          "internalType": "address",
          "name": "from",
          "type": "address"
        },
        {
          "internalType": "address",
          "name": "to",
          "type": "address"
        },
        {
          "internalType": "uint256",
          "name": "tokenId",
          "type": "uint256"
        }
      ],
      "name": "transferFrom",
      "outputs": [],
      "stateMutability": "nonpayable",
      "type": "function"
    },
    {
      "inputs": [
        {
          "internalType": "address",
          "name": "newOwner",
          "type": "address"
        }
      ],
      "name": "transferOwnership",
      "outputs": [],
      "stateMutability": "nonpayable",
      "type": "function"
    }
  ],
  "bytecode": {
    "object": "0x61016034620004dd57601f6200374a38819003918201601f19168301916001600160401b03831184841017620002e557808492602094604052833981010312620004dd57516001600160a01b0381168103620004dd57604051906200006482620004e2565b60118252704a75696365626f782050726f6a6563747360781b91826020820152604051906200009382620004e2565b60018252603160f81b602083015260405193620000b085620004e2565b60118552602085015260405192620000c884620004e2565b6008845267094aa92868a849eb60c31b602085015260805283516001600160401b038111620002e557600054600181811c91168015620004d2575b6020821014620003d957601f81116200047e575b50602094601f82116001146200040657948192939495600092620003fa575b50508160011b916000199060031b1c1916176000555b82516001600160401b038111620002e557600154600181811c91168015620003ef575b6020821014620003d957601f811162000380575b506020601f8211600114620003075781929394600092620002fb575b50508160011b916000199060031b1c1916176001555b602081519101209060208151910120610100918083526101208281524660c0526040519260208401907f8b73c3c69bb8fe3d512ecc4cf759cc79239f7b179b0ffacaa9a75d522b39400f93848352604086015260608501524660808501523060a085015260a0845260c084019380851060018060401b03861117620002e557604085905251902060a0523060e052610140918252600a8054336001600160a01b0319821681179092556001600160a01b03167f8be0079c531659141344cd1fd0a4f28419497f9722a3daafe3b4186f6b6457e0600080a36000600b5561320b9384620004ff853960805184818161076d0152818161081e0152611285015260a05184612e88015260c05184612f43015260e05184612e5201525183612ed701525182612efd01525181612eb40152f35b634e487b7160e01b600052604160045260246000fd5b0151905038806200019f565b600160009081526000805160206200372a8339815191529190601f198416905b81811062000367575095836001959697106200034d575b505050811b01600155620001b5565b015160001960f88460031b161c191690553880806200033e565b9192602060018192868b01518155019401920162000327565b60016000526000805160206200372a833981519152601f830160051c81019160208410620003ce575b601f0160051c01905b818110620003c1575062000183565b60008155600101620003b2565b9091508190620003a9565b634e487b7160e01b600052602260045260246000fd5b90607f16906200016f565b01519050388062000136565b6000808052601f198316966000805160206200370a8339815191529290915b88811062000465575083600195969798106200044b575b505050811b016000556200014c565b015160001960f88460031b161c191690553880806200043c565b9192602060018192868501518155019401920162000425565b600080526000805160206200370a833981519152601f830160051c810160208410620004ca575b601f830160051c82018110620004bd57505062000117565b60008155600101620004a5565b5080620004a5565b90607f169062000103565b600080fd5b604081019081106001600160401b03821117620002e55760405256fe60806040526004361015610013575b600080fd5b60003560e01c806301ffc9a71461027f57806306661abd1461027657806306fdde031461026d578063081812fc14610264578063095ea7b31461025b57806323b872dd146102525780632407497e146102495780633644e51514610240578063365749751461023757806339fbc7751461022e5780633a46b1a81461022557806342842e0e1461021c578063587cde1e146102135780635c19a95c1461020a5780636352211e14610201578063666d87a0146101f857806370a08231146101ef578063715018a6146101e65780637ecebe00146101dd5780638da5cb5b146101d45780638e539e8c146101cb57806395d89b41146101c25780639ab24eb0146101b9578063a22cb465146101b0578063ad007d63146101a7578063b88d4fde1461019e578063c3cda52014610195578063c87b56dd1461018c578063e131fc0c14610183578063e985e9c51461017a5763f2fde38b1461017257600080fd5b61000e611589565b5061000e611520565b5061000e6114f6565b5061000e6114c2565b5061000e61138e565b5061000e6112fd565b5061000e61126e565b5061000e61117d565b5061000e611120565b5061000e61107a565b5061000e610f46565b5061000e610f1c565b5061000e610ede565b5061000e610e7f565b5061000e610e57565b5061000e610c0b565b5061000e610bec565b5061000e610bc5565b5061000e610b85565b5061000e610b5c565b5061000e610a02565b5061000e610939565b5061000e6106b2565b5061000e610680565b5061000e61060d565b5061000e6105e3565b5061000e6104dc565b5061000e61049a565b5061000e6103b6565b5061000e61033b565b5061000e61029a565b6001600160e01b031981160361000e57565b503461000e57602036600319011261000e5760206004356102ba81610288565b63ffffffff60e01b1663aa91a66f60e01b811490811561032a575b81156102e7575b506040519015158152f35b6380ac58cd60e01b811491508115610319575b8115610308575b50386102dc565b6301ffc9a760e01b14905038610301565b635b5e139f60e01b811491506102fa565b63ad007d6360e01b811491506102d5565b503461000e57600036600319011261000e576020600b54604051908152f35b60005b83811061036d5750506000910152565b818101518382015260200161035d565b906020916103968151809281855285808601910161035a565b601f01601f1916010190565b9060206103b392818152019061037d565b90565b503461000e5760008060031936011261049757604051908080546103d981610884565b8085529160019180831690811561046d5750600114610413575b61040f8561040381870382610918565b604051918291826103a2565b0390f35b80809450527f290decd9548b62a8d60345a988386fc84ba6bc95484008f6362f93160ef3e5635b8284106104555750505081016020016104038261040f6103f3565b8054602085870181019190915290930192810161043a565b86955061040f9693506020925061040394915060ff191682840152151560051b82010192936103f3565b80fd5b503461000e57602036600319011261000e5760206104b960043561200d565b6040516001600160a01b039091168152f35b6001600160a01b0381160361000e57565b503461000e57604036600319011261000e576004356104fa816104cb565b60243561050681611f78565b916001600160a01b038084169082168114610568576105389361053391331490811561053a575b50611f9b565b6123a3565b005b6001600160a01b0316600090815260056020908152604080832033845290915290205460ff1690503861052d565b60405162461bcd60e51b815260206004820152602160248201527f4552433732313a20617070726f76616c20746f2063757272656e74206f776e656044820152603960f91b6064820152608490fd5b606090600319011261000e576004356105cf816104cb565b906024356105dc816104cb565b9060443590565b503461000e576105386105f5366105b7565b91610608610603843361214b565b61204b565b612269565b503461000e57602036600319011261000e5760043561062b816104cb565b610633611aae565b60018060a01b0316806bffffffffffffffffffffffff60a01b600d541617600d557fe7784d93cfbfa4408e19577e6cc0436f4dbb51214b70e100905dfce9def88c166020604051338152a2005b503461000e57600036600319011261000e57602061069c612e4f565b604051908152f35b9081604091031261000e5790565b503461000e57604036600319011261000e576004356024356001600160401b03811161000e576106e69036906004016106a4565b6106ef82611f78565b6001600160a01b038181163314159190826107e3575b8261072c575b505061071a5761053891611938565b60405163075fd2b160e01b8152600490fd5b60405163c161c93f60e01b81523360048201526001600160a01b039290921660248301526000604483015260066064830152909150602090829060849082907f0000000000000000000000000000000000000000000000000000000000000000165afa9081156107d6575b6000916107a8575b5015388061070b565b6107c9915060203d81116107cf575b6107c18183610918565b810190611a99565b3861079f565b503d6107b7565b6107de611657565b610797565b60405163c161c93f60e01b81523360048201526001600160a01b038316602482015260448101869052600660648201529092506020816084817f000000000000000000000000000000000000000000000000000000000000000087165afa908115610877575b600091610859575b501591610705565b610871915060203d81116107cf576107c18183610918565b38610851565b61087f611657565b610849565b90600182811c921680156108b4575b602083101461089e57565b634e487b7160e01b600052602260045260246000fd5b91607f1691610893565b50634e487b7160e01b600052604160045260246000fd5b602081019081106001600160401b038211176108f057604052565b6108f86108be565b604052565b60c081019081106001600160401b038211176108f057604052565b90601f801991011681019081106001600160401b038211176108f057604052565b503461000e57604036600319011261000e57600060043581526020600c815260408220602435835281526040822090604051918381549061097982610884565b808652926001928084169081156109de57506001146109a3575b61040f86610403818a0382610918565b9080949650528483205b8284106109cb575050508161040f9361040392820101933880610993565b80548585018701529285019281016109ad565b60ff19168787015250505050151560051b82010191506104038161040f3880610993565b503461000e57604036600319011261000e57600435610a20816104cb565b6001600160a01b0316600090815260076020526040902060243543811015610b1857610a4e610a6591613130565b8254906000908260058111610aaf575b5084612bfb565b9081610a84575050602060005b6040516001600160e01b039091168152f35b610aa3610aaa91610a96602094611e99565b9060005260206000200190565b5460201c90565b610a72565b80610abf610ac592959395612fde565b90611ea8565b90610af0610ae7610add848960005260206000200190565b5463ffffffff1690565b63ffffffff1690565b63ffffffff85161015610b065750915b38610a5e565b929150610b1290611e83565b90610b00565b606460405162461bcd60e51b815260206004820152602060248201527f436865636b706f696e74733a20626c6f636b206e6f7420796574206d696e65646044820152fd5b503461000e57610538610b6e366105b7565b9060405192610b7c846108d5565b600084526120ad565b503461000e57602036600319011261000e576020600435610ba5816104cb565b60018060a01b038091166000526006825260406000205416604051908152f35b503461000e57602036600319011261000e57610538600435610be6816104cb565b33611b49565b503461000e57602036600319011261000e5760206104b9600435611f78565b503461000e57604036600319011261000e57600435610c29816104cb565b6024356001600160401b03811161000e57610c489036906004016106a4565b6001600b546000198114610e4a575b019081600b5560405190610c6a826108d5565b600082526001600160a01b038416918215610e0657610db18492610d92610d8d7fa1c6fd563bcbc3222f6031d7c26ff58cd6c701abff0bfffe652d055ce40629d4948661040f9a610cdf610cda610cd684600052600260205260018060a01b0360406000205416151590565b1590565b6121c3565b600082815260026020526040902054610d01906001600160a01b0316156121c3565b6001600160a01b038116600090815260036020526040902060018154019055610d5781610d38846000526002602052604060002090565b80546001600160a01b0319166001600160a01b03909216919091179055565b818a60007fddf252ad1be2c89b69c2b068fc378daa952ba7f163c4a11628f55a4df523b3ef8180a4610d88816125a5565b6124a8565b612127565b610d9c8180611760565b9050610dc4575b6040519182913390836118bb565b0390a36040519081529081906020820190565b610e01610dd18280611760565b90610dfc610de988600052600c602052604060002090565b6020860135600052602052604060002090565b6117e6565b610da3565b606460405162461bcd60e51b815260206004820152602060248201527f4552433732313a206d696e7420746f20746865207a65726f20616464726573736044820152fd5b610e52611749565b610c57565b503461000e57602036600319011261000e57602061069c600435610e7a816104cb565b611eb5565b503461000e5760008060031936011261049757610e9a611aae565b600a80546001600160a01b0319811690915581906001600160a01b03167f8be0079c531659141344cd1fd0a4f28419497f9722a3daafe3b4186f6b6457e08280a380f35b503461000e57602036600319011261000e57600435610efc816104cb565b60018060a01b031660005260096020526020604060002054604051908152f35b503461000e57600036600319011261000e57600a546040516001600160a01b039091168152602090f35b503461000e57602036600319011261000e576004354381101561103557610f6f610f8691613130565b600854906000908260058111610fdb575b50612b86565b80610fac575061040f60005b6040516001600160e01b0390911681529081906020820190565b610fd6610aa3610fbe61040f93611e99565b60086000526000805160206131968339815191520190565b610f92565b80610abf610feb92959395612fde565b60086000529061100d610ae76000805160206131968339815191528401610add565b63ffffffff851610156110235750915b38610f80565b92915061102f90611e83565b9061101d565b60405162461bcd60e51b815260206004820152601a60248201527f566f7465733a20626c6f636b206e6f7420796574206d696e65640000000000006044820152606490fd5b503461000e5760008060031936011261049757604051908060018054916110a083610884565b8086529282811690811561046d57506001146110c65761040f8561040381870382610918565b92508083527fb10e2d527612073b26eecdfd717e6a320cf44b4afac2b0732d9fcbe2b7fa0cf65b8284106111085750505081016020016104038261040f6103f3565b805460208587018101919091529093019281016110ed565b503461000e57602036600319011261000e5760043561113e816104cb565b6001600160a01b031660009081526007602090815260409091206001600160e01b039061116a90612818565b16604051908152f35b8015150361000e57565b503461000e57604036600319011261000e5760043561119b816104cb565b6024356111a781611173565b6001600160a01b0382169133831461122957816111e66111f79233600052600560205260406000209060018060a01b0316600052602052604060002090565b9060ff801983541691151516179055565b604051901515815233907f17307eab39ab6107e8899845ad3d59bd9653f200f220920489ca2b5937696c3190602090a3005b60405162461bcd60e51b815260206004820152601960248201527f4552433732313a20617070726f766520746f2063616c6c6572000000000000006044820152606490fd5b503461000e57600036600319011261000e576040517f00000000000000000000000000000000000000000000000000000000000000006001600160a01b03168152602090f35b60405190604082018281106001600160401b038211176108f057604052565b6020906001600160401b0381116112f0575b601f01601f19160190565b6112f86108be565b6112e5565b503461000e57608036600319011261000e5760043561131b816104cb565b602435611327816104cb565b606435916001600160401b03831161000e573660238401121561000e57826004013591611353836112d3565b926113616040519485610918565b808452366024828701011161000e57602081600092602461053898018388013785010152604435916120ad565b503461000e5760c036600319011261000e576004356113ac816104cb565b6064359060243560443560ff8416840361000e5780421161147d5761144f611478916105389560405190611437826114296020820195898b8860609194939260808201957fe48329057bfd03d55e49b547132e39cffd9c1820ad7b9d4c5307691425d15adf835260018060a01b0316602083015260408201520152565b03601f198101845283610918565b61144a60a4359360843593519020612f69565b612c68565b6001600160a01b0381166000908152600960205260409020805460018101909155909214611b06565b611b49565b60405162461bcd60e51b815260206004820152601860248201527f566f7465733a207369676e6174757265206578706972656400000000000000006044820152606490fd5b503461000e57602036600319011261000e5761040f6114e2600435611664565b60405191829160208352602083019061037d565b503461000e57600036600319011261000e57600d546040516001600160a01b039091168152602090f35b503461000e57604036600319011261000e57602060ff61157d600435611545816104cb565b60243590611552826104cb565b60018060a01b03166000526005845260406000209060018060a01b0316600052602052604060002090565b54166040519015158152f35b503461000e57602036600319011261000e576004356115a7816104cb565b6115af611aae565b6001600160a01b0390811690811561160357600a54826bffffffffffffffffffffffff60a01b821617600a55167f8be0079c531659141344cd1fd0a4f28419497f9722a3daafe3b4186f6b6457e0600080a3005b60405162461bcd60e51b815260206004820152602660248201527f4f776e61626c653a206e6577206f776e657220697320746865207a65726f206160448201526564647265737360d01b6064820152608490fd5b506040513d6000823e3d90fd5b600d546001600160a01b031690811561173457604051918291636d02a25560e11b8352600483015281602460009485935afa918215611727575b80926116a957505090565b9091503d8082843e6116bb8184610918565b82019160208184031261171f578051906001600160401b038211611723570182601f8201121561171f578051916116f1836112d3565b936116ff6040519586610918565b838552602084840101116104975750906103b3916020808501910161035a565b5080fd5b8280fd5b61172f611657565b61169e565b5050604051611742816108d5565b6000815290565b50634e487b7160e01b600052601160045260246000fd5b903590601e198136030182121561000e57018035906001600160401b03821161000e5760200191813603831361000e57565b90601f81116117a057505050565b600091825260208220906020601f850160051c830194106117dc575b601f0160051c01915b8281106117d157505050565b8181556001016117c5565b90925082906117bc565b9092916001600160401b0381116118ae575b61180c816118068454610884565b84611792565b6000601f8211600114611846578192939460009261183b575b50508160011b916000199060031b1c1916179055565b013590503880611825565b601f1982169461185b84600052602060002090565b91805b87811061189657508360019596971061187c575b505050811b019055565b0135600019600384901b60f8161c19169055388080611872565b9092602060018192868601358155019401910161185e565b6118b66108be565b6117f8565b9291604084528135601e198336030181121561000e57820191602083359301906001600160401b03841161000e57833603821361000e5783602060a0926119369682956040808c01528160808c0152858b0137600084848b01015201356060880152601f801991011686010194019060018060a01b03169052565b565b906119438180611760565b600091848352602090600c825260408420828601358552825260408420936001600160401b038411611a8c575b6119848461197e8754610884565b87611792565b8092601f85116001146119f55750926119e5949281927fd07720acb527321c9d1766f359139d0e0e3551bd99fb3ca353d4f008f3aad8e69795926119ea575b50508160011b916000199060031b1c19161790556040519182913390836118bb565b0390a2565b0135905038806119c3565b601f93919319851690611a0d87600052602060002090565b94905b828210611a745750509260019285927fd07720acb527321c9d1766f359139d0e0e3551bd99fb3ca353d4f008f3aad8e698966119e5989610611a5a575b505050811b019055610da3565b0135600019600384901b60f8161c19169055388080611a4d565b80600185978294968801358155019601930190611a10565b611a946108be565b611970565b9081602091031261000e57516103b381611173565b600a546001600160a01b03163303611ac257565b606460405162461bcd60e51b815260206004820152602060248201527f4f776e61626c653a2063616c6c6572206973206e6f7420746865206f776e65726044820152fd5b15611b0d57565b60405162461bcd60e51b8152602060048201526014602482015273566f7465733a20696e76616c6964206e6f6e636560601b6044820152606490fd5b6001600160a01b0381811660008181526006602052604080822080548786166001600160a01b03198216811790925590969592949193911691611bb391879084907f3134e8a2e6d97e929a7e54011ea5485d7d196dd5f0ba4d4ef95803e8e3fc257f8880a4611eb5565b928582141580611d1b575b611bcb575b505050505050565b829082611c3d575b50505083611be3575b8080611bc3565b611c1a611c3192611c156000805160206131b68339815191529560018060a01b03166000526007602052604060002090565b61274c565b915190815260208101919091529081906040820190565b0390a238808080611bdc565b8281526007602052206001600160e01b039081611c5982612818565b16858103908111611d0e575b611c6e43613130565b90838111611cba578392611caf926000805160206131b683398151915295611c97931691612aad565b86519184168252909216602083015281906040820190565b0390a2388181611bd3565b855162461bcd60e51b815260206004820152602760248201527f53616665436173743a2076616c756520646f65736e27742066697420696e20326044820152663234206269747360c81b6064820152608490fd5b611d16611749565b611c65565b50831515611bbe565b6001600160a01b038083169291168083141580611e7b575b611d4557505050565b80611d98575b5081611d55575050565b6001600160a01b031660009081526007602052604090206000805160206131b683398151915290611d85906126f8565b60408051928352602083019190915290a2565b60008181526007602052604090206001600160e01b0380611db883612818565b166000198101908111611e6e575b611dcf43613130565b90828111611e19576000805160206131b683398151915293611e109284611df7931691612aad565b6040805192851683529316602082015291829190820190565b0390a238611d4b565b60405162461bcd60e51b815260206004820152602760248201527f53616665436173743a2076616c756520646f65736e27742066697420696e20326044820152663234206269747360c81b6064820152608490fd5b611e76611749565b611dc6565b506001611d3c565b9060018201809211611e9157565b611936611749565b600019810191908211611e9157565b91908203918211611e9157565b6001600160a01b03168015611ed557600052600360205260406000205490565b60405162461bcd60e51b815260206004820152602960248201527f4552433732313a2061646472657373207a65726f206973206e6f7420612076616044820152683634b21037bbb732b960b91b6064820152608490fd5b15611f3357565b60405162461bcd60e51b815260206004820152601860248201527f4552433732313a20696e76616c696420746f6b656e20494400000000000000006044820152606490fd5b6000908152600260205260409020546001600160a01b03166103b3811515611f2c565b15611fa257565b60405162461bcd60e51b815260206004820152603d60248201527f4552433732313a20617070726f76652063616c6c6572206973206e6f7420746f60448201527f6b656e206f776e6572206f7220617070726f76656420666f7220616c6c0000006064820152608490fd5b600081815260026020526040902054612030906001600160a01b03161515611f2c565b6000908152600460205260409020546001600160a01b031690565b1561205257565b60405162461bcd60e51b815260206004820152602d60248201527f4552433732313a2063616c6c6572206973206e6f7420746f6b656e206f776e6560448201526c1c881bdc88185c1c1c9bdd9959609a1b6064820152608490fd5b916119369391610d8d936120c4610603843361214b565b6120cf838383612269565b612569565b60809060208152603260208201527f4552433732313a207472616e7366657220746f206e6f6e20455243373231526560408201527131b2b4bb32b91034b6b83632b6b2b73a32b960711b60608201520190565b1561212e57565b60405162461bcd60e51b815280612147600482016120d4565b0390fd5b6001600160a01b038061215d84611f78565b169281831692848414948515612193575b5050831561217d575b50505090565b6121899192935061200d565b1614388080612177565b60009081526005602090815260408083206001600160a01b03949094168352929052205460ff169350388061216e565b156121ca57565b60405162461bcd60e51b815260206004820152601c60248201527f4552433732313a20746f6b656e20616c7265616479206d696e746564000000006044820152606490fd5b1561221657565b60405162461bcd60e51b815260206004820152602560248201527f4552433732313a207472616e736665722066726f6d20696e636f72726563742060448201526437bbb732b960d91b6064820152608490fd5b61228d9261227681611f78565b6001600160a01b038381169590918216861461220f565b8316801561235257846122bb611936966122b56122a986611f78565b6001600160a01b031690565b1461220f565b6122e26122d2846000526004602052604060002090565b80546001600160a01b0319169055565b6001600160a01b03848116600090815260036020908152604080832080546000190190559288168252828220805460010190558582526002905220612328908690610d38565b7fddf252ad1be2c89b69c2b068fc378daa952ba7f163c4a11628f55a4df523b3ef600080a461264f565b60405162461bcd60e51b8152602060048201526024808201527f4552433732313a207472616e7366657220746f20746865207a65726f206164646044820152637265737360e01b6064820152608490fd5b600082815260046020526040902080546001600160a01b0319166001600160a01b0383161790556001600160a01b03806123dc84611f78565b169116907f8c5be1e5ebec7d5bd14f71427d1e84f3dd0314c0f7b2291e5b200ac8c7c3b925600080a4565b9081602091031261000e57516103b381610288565b6103b3939260809260018060a01b03168252600060208301526040820152816060820152019061037d565b6001600160a01b0391821681529116602082015260408101919091526080606082018190526103b39291019061037d565b3d156124a3573d90612489826112d3565b916124976040519384610918565b82523d6000602084013e565b606090565b909190803b15612561576124da602091600093604051948580948193630a85bd0160e11b998a8452336004850161241c565b03926001600160a01b03165af160009181612531575b50612523576124fd612478565b8051908161251e5760405162461bcd60e51b815280612147600482016120d4565b602001fd5b6001600160e01b0319161490565b61255391925060203d811161255a575b61254b8183610918565b810190612407565b90386124f0565b503d612541565b505050600190565b92909190823b1561259c576124da926020926000604051809681958294630a85bd0160e11b9a8b85523360048601612447565b50505050600190565b6001600160e01b0390816125b76127c0565b1660018101809111612642575b6125cd43613130565b838211611e1957611936936125e39216906129b0565b50506001600160a01b03908116908115612633575b60066020527f54cdd369e4e8a8515e52ca72ec816c2101831ad1f18bf44102ed171459c9b4f854600092835260409092205481169116611d24565b61263b612774565b50506125f8565b61264a611749565b6125c4565b6001600160a01b039081169081156126a0575b806119369316918215612691575b60005260066020528060406000205416916000526040600020541690611d24565b612699612774565b5050612670565b6001600160e01b03806126b16127c0565b1693600185018095116126eb575b6126c843613130565b94828111611e19576119369584936126e19216906129b0565b5050935050612662565b6126f3611749565b6126bf565b6001600160e01b0391908261270c82612818565b166001810180911161273f575b61272243613130565b91848211611e1957849283612738931691612aad565b9316921690565b612747611749565b612719565b6001600160e01b0392918361276083612818565b1690810180911161273f5761272243613130565b6001600160e01b0390816127866127c0565b1660001981019081116127b3575b61279d43613130565b90838111611e19578391826127389216906129b0565b6127bb611749565b612794565b600854600090806127d2575050600090565b60087ff3f7a9fe364faab93b216da50a3214154f22a0a2b415b23a84c8169e8b636ee2928260001981011161280b575b52015460201c90565b612813611749565b612802565b805460008161282957505050600090565b602090600019938385810111612846575b81522001015460201c90565b61284e611749565b61283a565b60085490600160401b8210156128bf575b60018201806008558210156128a9576008600052805160209182015190911b63ffffffff191663ffffffff919091161760008051602061319683398151915290910155565b634e487b7160e01b600052603260045260246000fd5b6128c76108be565b612864565b908154600160401b811015612917575b600181018084558110156128a957600092835260209283902082519284015190931b63ffffffff191663ffffffff9290921691909117910155565b61291f6108be565b6128dc565b90604051604081018181106001600160401b03821117612957575b604052602081935463ffffffff81168352811c910152565b61295f6108be565b61293f565b1561296b57565b60405162461bcd60e51b815260206004820152601760248201527f436865636b706f696e743a20696e76616c6964206b65790000000000000000006044820152606490fd5b6008549192918015612a8357612a499181856129d86129d3610fbe602096611e99565b612924565b926129e7845163ffffffff1690565b6129fe63ffffffff91828416928391161115612964565b612a0f610ae7865163ffffffff1690565b03612a4d5750612a24610fbe612a3b93611e99565b9063ffffffff82549181199060201b169116179055565b01516001600160e01b031690565b9190565b9050612a7e9150612a6b612a5f6112b4565b63ffffffff9092168252565b6001600160e01b03871681850152612853565b612a3b565b50612aa790612a93612a5f6112b4565b6001600160e01b0384166020820152612853565b60009190565b90929192838254801515600014612b6157926020929184612ae36129d3612ad6612a4998611e99565b8560005260206000200190565b93612af2855163ffffffff1690565b612b0963ffffffff91828416928391161115612964565b612b1a610ae7875163ffffffff1690565b03612b305750612a3b92610a96612a2492611e99565b915050612a7e91612b4e612b426112b4565b63ffffffff9093168352565b6001600160e01b038816828601526128cc565b5050612aa791612b72612b426112b4565b6001600160e01b03851660208301526128cc565b905b828110612b9457505090565b90918082169080831860011c8201809211612bee575b600860005263ffffffff808360008051602061319683398151915201541690851610600014612bdc5750915b90612b88565b929150612be890611e83565b90612bd6565b612bf6611749565b612baa565b91905b838210612c0b5750505090565b9091928083169080841860011c8201809211612c5b575b60008581526020902082015463ffffffff9081169084161015612c495750925b9190612bfe565b939250612c5590611e83565b91612c42565b612c63611749565b612c22565b916103b39391612c7793612dbf565b919091612c9f565b60051115612c8957565b634e487b7160e01b600052602160045260246000fd5b612ca881612c7f565b80612cb05750565b612cb981612c7f565b60018103612d065760405162461bcd60e51b815260206004820152601860248201527f45434453413a20696e76616c6964207369676e617475726500000000000000006044820152606490fd5b612d0f81612c7f565b60028103612d5c5760405162461bcd60e51b815260206004820152601f60248201527f45434453413a20696e76616c6964207369676e6174757265206c656e677468006044820152606490fd5b80612d68600392612c7f565b14612d6f57565b60405162461bcd60e51b815260206004820152602260248201527f45434453413a20696e76616c6964207369676e6174757265202773272076616c604482015261756560f01b6064820152608490fd5b9291907f7fffffffffffffffffffffffffffffff5d576e7357a4501ddfe92f46681b20a08311612e435791608094939160ff602094604051948552168484015260408301526060820152600093849182805260015afa15612e36575b81516001600160a01b03811615612e30579190565b50600190565b612e3e611657565b612e1b565b50505050600090600390565b307f00000000000000000000000000000000000000000000000000000000000000006001600160a01b03161480612f40575b15612eaa577f000000000000000000000000000000000000000000000000000000000000000090565b60405160208101907f000000000000000000000000000000000000000000000000000000000000000082527f000000000000000000000000000000000000000000000000000000000000000060408201527f000000000000000000000000000000000000000000000000000000000000000060608201524660808201523060a082015260a08152612f3a816108fd565b51902090565b507f00000000000000000000000000000000000000000000000000000000000000004614612e81565b612f71612e4f565b9060405190602082019261190160f01b84526022830152604282015260428152608081018181106001600160401b03821117612fb1575b60405251902090565b612fb96108be565b612fa8565b8115612fc8570490565b634e487b7160e01b600052601260045260246000fd5b801561311857806130b16130aa6130a061309661308c61308261307861306e60016103b39a6000908b60801c8061310c575b508060401c806130ff575b508060201c806130f2575b508060101c806130e5575b508060081c806130d8575b508060041c806130cb575b508060021c806130be575b50821c6130b7575b811c1b613067818b612fbe565b0160011c90565b613067818a612fbe565b6130678189612fbe565b6130678188612fbe565b6130678187612fbe565b6130678186612fbe565b6130678185612fbe565b8092612fbe565b9061311e565b810161305a565b6002915091019038613052565b6004915091019038613047565b600891509101903861303c565b6010915091019038613031565b6020915091019038613026565b604091509101903861301b565b91505060809038613010565b50600090565b908082101561312b575090565b905090565b63ffffffff90818111613141571690565b60405162461bcd60e51b815260206004820152602660248201527f53616665436173743a2076616c756520646f65736e27742066697420696e203360448201526532206269747360d01b6064820152608490fdfef3f7a9fe364faab93b216da50a3214154f22a0a2b415b23a84c8169e8b636ee3dec2bacdd2f05b59de34da9b523dff8be42e5e38e818c82fdb0bae774387a724a26469706673582212205b5594cb2e61f73be1fbdd350cbfdf7c7a4322cd8cd212d96eac485dd318efe764736f6c63430008110033290decd9548b62a8d60345a988386fc84ba6bc95484008f6362f93160ef3e563b10e2d527612073b26eecdfd717e6a320cf44b4afac2b0732d9fcbe2b7fa0cf6",
    "linkReferences": {}
  },
  "methodIdentifiers": {
    "DOMAIN_SEPARATOR()": "3644e515",
    "approve(address,uint256)": "095ea7b3",
    "balanceOf(address)": "70a08231",
    "count()": "06661abd",
    "createFor(address,(string,uint256))": "666d87a0",
    "delegate(address)": "5c19a95c",
    "delegateBySig(address,uint256,uint256,uint8,bytes32,bytes32)": "c3cda520",
    "delegates(address)": "587cde1e",
    "getApproved(uint256)": "081812fc",
    "getPastTotalSupply(uint256)": "8e539e8c",
    "getPastVotes(address,uint256)": "3a46b1a8",
    "getVotes(address)": "9ab24eb0",
    "isApprovedForAll(address,address)": "e985e9c5",
    "metadataContentOf(uint256,uint256)": "39fbc775",
    "name()": "06fdde03",
    "nonces(address)": "7ecebe00",
    "operatorStore()": "ad007d63",
    "owner()": "8da5cb5b",
    "ownerOf(uint256)": "6352211e",
    "renounceOwnership()": "715018a6",
    "safeTransferFrom(address,address,uint256)": "42842e0e",
    "safeTransferFrom(address,address,uint256,bytes)": "b88d4fde",
    "setApprovalForAll(address,bool)": "a22cb465",
    "setMetadataOf(uint256,(string,uint256))": "36574975",
    "setTokenUriResolver(address)": "2407497e",
    "supportsInterface(bytes4)": "01ffc9a7",
    "symbol()": "95d89b41",
    "tokenURI(uint256)": "c87b56dd",
    "tokenUriResolver()": "e131fc0c",
    "transferFrom(address,address,uint256)": "23b872dd",
    "transferOwnership(address)": "f2fde38b"
  },
  "id": 72
}