{
  "abi": [
    {
      "inputs": [
        {
          "internalType": "contract IJBOperatorStore",
          "name": "_operatorStore",
          "type": "address"
        }
      ],
      "stateMutability": "nonpayable",
      "type": "constructor"
    },
    {
      "inputs": [],
      "name": "InvalidShortString",
      "type": "error"
    },
    {
      "inputs": [
        {
          "internalType": "string",
          "name": "str",
          "type": "string"
        }
      ],
      "name": "StringTooLong",
      "type": "error"
    },
    {
      "inputs": [],
      "name": "UNAUTHORIZED",
      "type": "error"
    },
    {
      "anonymous": false,
      "inputs": [
        {
          "indexed": true,
          "internalType": "address",
          "name": "owner",
          "type": "address"
        },
        {
          "indexed": true,
          "internalType": "address",
          "name": "approved",
          "type": "address"
        },
        {
          "indexed": true,
          "internalType": "uint256",
          "name": "tokenId",
          "type": "uint256"
        }
      ],
      "name": "Approval",
      "type": "event"
    },
    {
      "anonymous": false,
      "inputs": [
        {
          "indexed": true,
          "internalType": "address",
          "name": "owner",
          "type": "address"
        },
        {
          "indexed": true,
          "internalType": "address",
          "name": "operator",
          "type": "address"
        },
        {
          "indexed": false,
          "internalType": "bool",
          "name": "approved",
          "type": "bool"
        }
      ],
      "name": "ApprovalForAll",
      "type": "event"
    },
    {
      "anonymous": false,
      "inputs": [
        {
          "indexed": true,
          "internalType": "uint256",
          "name": "projectId",
          "type": "uint256"
        },
        {
          "indexed": true,
          "internalType": "address",
          "name": "owner",
          "type": "address"
        },
        {
          "components": [
            {
              "internalType": "string",
              "name": "content",
              "type": "string"
            },
            {
              "internalType": "uint256",
              "name": "domain",
              "type": "uint256"
            }
          ],
          "indexed": false,
          "internalType": "struct JBProjectMetadata",
          "name": "metadata",
          "type": "tuple"
        },
        {
          "indexed": false,
          "internalType": "address",
          "name": "caller",
          "type": "address"
        }
      ],
      "name": "Create",
      "type": "event"
    },
    {
      "anonymous": false,
      "inputs": [
        {
          "indexed": true,
          "internalType": "address",
          "name": "delegator",
          "type": "address"
        },
        {
          "indexed": true,
          "internalType": "address",
          "name": "fromDelegate",
          "type": "address"
        },
        {
          "indexed": true,
          "internalType": "address",
          "name": "toDelegate",
          "type": "address"
        }
      ],
      "name": "DelegateChanged",
      "type": "event"
    },
    {
      "anonymous": false,
      "inputs": [
        {
          "indexed": true,
          "internalType": "address",
          "name": "delegate",
          "type": "address"
        },
        {
          "indexed": false,
          "internalType": "uint256",
          "name": "previousBalance",
          "type": "uint256"
        },
        {
          "indexed": false,
          "internalType": "uint256",
          "name": "newBalance",
          "type": "uint256"
        }
      ],
      "name": "DelegateVotesChanged",
      "type": "event"
    },
    {
      "anonymous": false,
      "inputs": [],
      "name": "EIP712DomainChanged",
      "type": "event"
    },
    {
      "anonymous": false,
      "inputs": [
        {
          "indexed": true,
          "internalType": "address",
          "name": "previousOwner",
          "type": "address"
        },
        {
          "indexed": true,
          "internalType": "address",
          "name": "newOwner",
          "type": "address"
        }
      ],
      "name": "OwnershipTransferred",
      "type": "event"
    },
    {
      "anonymous": false,
      "inputs": [
        {
          "indexed": true,
          "internalType": "uint256",
          "name": "projectId",
          "type": "uint256"
        },
        {
          "components": [
            {
              "internalType": "string",
              "name": "content",
              "type": "string"
            },
            {
              "internalType": "uint256",
              "name": "domain",
              "type": "uint256"
            }
          ],
          "indexed": false,
          "internalType": "struct JBProjectMetadata",
          "name": "metadata",
          "type": "tuple"
        },
        {
          "indexed": false,
          "internalType": "address",
          "name": "caller",
          "type": "address"
        }
      ],
      "name": "SetMetadata",
      "type": "event"
    },
    {
      "anonymous": false,
      "inputs": [
        {
          "indexed": true,
          "internalType": "contract IJBTokenUriResolver",
          "name": "resolver",
          "type": "address"
        },
        {
          "indexed": false,
          "internalType": "address",
          "name": "caller",
          "type": "address"
        }
      ],
      "name": "SetTokenUriResolver",
      "type": "event"
    },
    {
      "anonymous": false,
      "inputs": [
        {
          "indexed": true,
          "internalType": "address",
          "name": "from",
          "type": "address"
        },
        {
          "indexed": true,
          "internalType": "address",
          "name": "to",
          "type": "address"
        },
        {
          "indexed": true,
          "internalType": "uint256",
          "name": "tokenId",
          "type": "uint256"
        }
      ],
      "name": "Transfer",
      "type": "event"
    },
    {
      "inputs": [],
      "name": "CLOCK_MODE",
      "outputs": [
        {
          "internalType": "string",
          "name": "",
          "type": "string"
        }
      ],
      "stateMutability": "view",
      "type": "function"
    },
    {
      "inputs": [],
      "name": "DOMAIN_SEPARATOR",
      "outputs": [
        {
          "internalType": "bytes32",
          "name": "",
          "type": "bytes32"
        }
      ],
      "stateMutability": "view",
      "type": "function"
    },
    {
      "inputs": [
        {
          "internalType": "address",
          "name": "to",
          "type": "address"
        },
        {
          "internalType": "uint256",
          "name": "tokenId",
          "type": "uint256"
        }
      ],
      "name": "approve",
      "outputs": [],
      "stateMutability": "nonpayable",
      "type": "function"
    },
    {
      "inputs": [
        {
          "internalType": "address",
          "name": "owner",
          "type": "address"
        }
      ],
      "name": "balanceOf",
      "outputs": [
        {
          "internalType": "uint256",
          "name": "",
          "type": "uint256"
        }
      ],
      "stateMutability": "view",
      "type": "function"
    },
    {
      "inputs": [],
      "name": "clock",
      "outputs": [
        {
          "internalType": "uint48",
          "name": "",
          "type": "uint48"
        }
      ],
      "stateMutability": "view",
      "type": "function"
    },
    {
      "inputs": [],
      "name": "count",
      "outputs": [
        {
          "internalType": "uint256",
          "name": "",
          "type": "uint256"
        }
      ],
      "stateMutability": "view",
      "type": "function"
    },
    {
      "inputs": [
        {
          "internalType": "address",
          "name": "_owner",
          "type": "address"
        },
        {
          "components": [
            {
              "internalType": "string",
              "name": "content",
              "type": "string"
            },
            {
              "internalType": "uint256",
              "name": "domain",
              "type": "uint256"
            }
          ],
          "internalType": "struct JBProjectMetadata",
          "name": "_metadata",
          "type": "tuple"
        }
      ],
      "name": "createFor",
      "outputs": [
        {
          "internalType": "uint256",
          "name": "projectId",
          "type": "uint256"
        }
      ],
      "stateMutability": "nonpayable",
      "type": "function"
    },
    {
      "inputs": [
        {
          "internalType": "address",
          "name": "delegatee",
          "type": "address"
        }
      ],
      "name": "delegate",
      "outputs": [],
      "stateMutability": "nonpayable",
      "type": "function"
    },
    {
      "inputs": [
        {
          "internalType": "address",
          "name": "delegatee",
          "type": "address"
        },
        {
          "internalType": "uint256",
          "name": "nonce",
          "type": "uint256"
        },
        {
          "internalType": "uint256",
          "name": "expiry",
          "type": "uint256"
        },
        {
          "internalType": "uint8",
          "name": "v",
          "type": "uint8"
        },
        {
          "internalType": "bytes32",
          "name": "r",
          "type": "bytes32"
        },
        {
          "internalType": "bytes32",
          "name": "s",
          "type": "bytes32"
        }
      ],
      "name": "delegateBySig",
      "outputs": [],
      "stateMutability": "nonpayable",
      "type": "function"
    },
    {
      "inputs": [
        {
          "internalType": "address",
          "name": "account",
          "type": "address"
        }
      ],
      "name": "delegates",
      "outputs": [
        {
          "internalType": "address",
          "name": "",
          "type": "address"
        }
      ],
      "stateMutability": "view",
      "type": "function"
    },
    {
      "inputs": [],
      "name": "eip712Domain",
      "outputs": [
        {
          "internalType": "bytes1",
          "name": "fields",
          "type": "bytes1"
        },
        {
          "internalType": "string",
          "name": "name",
          "type": "string"
        },
        {
          "internalType": "string",
          "name": "version",
          "type": "string"
        },
        {
          "internalType": "uint256",
          "name": "chainId",
          "type": "uint256"
        },
        {
          "internalType": "address",
          "name": "verifyingContract",
          "type": "address"
        },
        {
          "internalType": "bytes32",
          "name": "salt",
          "type": "bytes32"
        },
        {
          "internalType": "uint256[]",
          "name": "extensions",
          "type": "uint256[]"
        }
      ],
      "stateMutability": "view",
      "type": "function"
    },
    {
      "inputs": [
        {
          "internalType": "uint256",
          "name": "tokenId",
          "type": "uint256"
        }
      ],
      "name": "getApproved",
      "outputs": [
        {
          "internalType": "address",
          "name": "",
          "type": "address"
        }
      ],
      "stateMutability": "view",
      "type": "function"
    },
    {
      "inputs": [
        {
          "internalType": "uint256",
          "name": "timepoint",
          "type": "uint256"
        }
      ],
      "name": "getPastTotalSupply",
      "outputs": [
        {
          "internalType": "uint256",
          "name": "",
          "type": "uint256"
        }
      ],
      "stateMutability": "view",
      "type": "function"
    },
    {
      "inputs": [
        {
          "internalType": "address",
          "name": "account",
          "type": "address"
        },
        {
          "internalType": "uint256",
          "name": "timepoint",
          "type": "uint256"
        }
      ],
      "name": "getPastVotes",
      "outputs": [
        {
          "internalType": "uint256",
          "name": "",
          "type": "uint256"
        }
      ],
      "stateMutability": "view",
      "type": "function"
    },
    {
      "inputs": [
        {
          "internalType": "address",
          "name": "account",
          "type": "address"
        }
      ],
      "name": "getVotes",
      "outputs": [
        {
          "internalType": "uint256",
          "name": "",
          "type": "uint256"
        }
      ],
      "stateMutability": "view",
      "type": "function"
    },
    {
      "inputs": [
        {
          "internalType": "address",
          "name": "owner",
          "type": "address"
        },
        {
          "internalType": "address",
          "name": "operator",
          "type": "address"
        }
      ],
      "name": "isApprovedForAll",
      "outputs": [
        {
          "internalType": "bool",
          "name": "",
          "type": "bool"
        }
      ],
      "stateMutability": "view",
      "type": "function"
    },
    {
      "inputs": [
        {
          "internalType": "uint256",
          "name": "",
          "type": "uint256"
        },
        {
          "internalType": "uint256",
          "name": "",
          "type": "uint256"
        }
      ],
      "name": "metadataContentOf",
      "outputs": [
        {
          "internalType": "string",
          "name": "",
          "type": "string"
        }
      ],
      "stateMutability": "view",
      "type": "function"
    },
    {
      "inputs": [],
      "name": "name",
      "outputs": [
        {
          "internalType": "string",
          "name": "",
          "type": "string"
        }
      ],
      "stateMutability": "view",
      "type": "function"
    },
    {
      "inputs": [
        {
          "internalType": "address",
          "name": "owner",
          "type": "address"
        }
      ],
      "name": "nonces",
      "outputs": [
        {
          "internalType": "uint256",
          "name": "",
          "type": "uint256"
        }
      ],
      "stateMutability": "view",
      "type": "function"
    },
    {
      "inputs": [],
      "name": "operatorStore",
      "outputs": [
        {
          "internalType": "contract IJBOperatorStore",
          "name": "",
          "type": "address"
        }
      ],
      "stateMutability": "view",
      "type": "function"
    },
    {
      "inputs": [],
      "name": "owner",
      "outputs": [
        {
          "internalType": "address",
          "name": "",
          "type": "address"
        }
      ],
      "stateMutability": "view",
      "type": "function"
    },
    {
      "inputs": [
        {
          "internalType": "uint256",
          "name": "tokenId",
          "type": "uint256"
        }
      ],
      "name": "ownerOf",
      "outputs": [
        {
          "internalType": "address",
          "name": "",
          "type": "address"
        }
      ],
      "stateMutability": "view",
      "type": "function"
    },
    {
      "inputs": [],
      "name": "renounceOwnership",
      "outputs": [],
      "stateMutability": "nonpayable",
      "type": "function"
    },
    {
      "inputs": [
        {
          "internalType": "address",
          "name": "from",
          "type": "address"
        },
        {
          "internalType": "address",
          "name": "to",
          "type": "address"
        },
        {
          "internalType": "uint256",
          "name": "tokenId",
          "type": "uint256"
        }
      ],
      "name": "safeTransferFrom",
      "outputs": [],
      "stateMutability": "nonpayable",
      "type": "function"
    },
    {
      "inputs": [
        {
          "internalType": "address",
          "name": "from",
          "type": "address"
        },
        {
          "internalType": "address",
          "name": "to",
          "type": "address"
        },
        {
          "internalType": "uint256",
          "name": "tokenId",
          "type": "uint256"
        },
        {
          "internalType": "bytes",
          "name": "data",
          "type": "bytes"
        }
      ],
      "name": "safeTransferFrom",
      "outputs": [],
      "stateMutability": "nonpayable",
      "type": "function"
    },
    {
      "inputs": [
        {
          "internalType": "address",
          "name": "operator",
          "type": "address"
        },
        {
          "internalType": "bool",
          "name": "approved",
          "type": "bool"
        }
      ],
      "name": "setApprovalForAll",
      "outputs": [],
      "stateMutability": "nonpayable",
      "type": "function"
    },
    {
      "inputs": [
        {
          "internalType": "uint256",
          "name": "_projectId",
          "type": "uint256"
        },
        {
          "components": [
            {
              "internalType": "string",
              "name": "content",
              "type": "string"
            },
            {
              "internalType": "uint256",
              "name": "domain",
              "type": "uint256"
            }
          ],
          "internalType": "struct JBProjectMetadata",
          "name": "_metadata",
          "type": "tuple"
        }
      ],
      "name": "setMetadataOf",
      "outputs": [],
      "stateMutability": "nonpayable",
      "type": "function"
    },
    {
      "inputs": [
        {
          "internalType": "contract IJBTokenUriResolver",
          "name": "_newResolver",
          "type": "address"
        }
      ],
      "name": "setTokenUriResolver",
      "outputs": [],
      "stateMutability": "nonpayable",
      "type": "function"
    },
    {
      "inputs": [
        {
          "internalType": "bytes4",
          "name": "_interfaceId",
          "type": "bytes4"
        }
      ],
      "name": "supportsInterface",
      "outputs": [
        {
          "internalType": "bool",
          "name": "",
          "type": "bool"
        }
      ],
      "stateMutability": "view",
      "type": "function"
    },
    {
      "inputs": [],
      "name": "symbol",
      "outputs": [
        {
          "internalType": "string",
          "name": "",
          "type": "string"
        }
      ],
      "stateMutability": "view",
      "type": "function"
    },
    {
      "inputs": [
        {
          "internalType": "uint256",
          "name": "_projectId",
          "type": "uint256"
        }
      ],
      "name": "tokenURI",
      "outputs": [
        {
          "internalType": "string",
          "name": "",
          "type": "string"
        }
      ],
      "stateMutability": "view",
      "type": "function"
    },
    {
      "inputs": [],
      "name": "tokenUriResolver",
      "outputs": [
        {
          "internalType": "contract IJBTokenUriResolver",
          "name": "",
          "type": "address"
        }
      ],
      "stateMutability": "view",
      "type": "function"
    },
    {
      "inputs": [
        {
          "internalType": "address",
          "name": "from",
          "type": "address"
        },
        {
          "internalType": "address",
          "name": "to",
          "type": "address"
        },
        {
          "internalType": "uint256",
          "name": "tokenId",
          "type": "uint256"
        }
      ],
      "name": "transferFrom",
      "outputs": [],
      "stateMutability": "nonpayable",
      "type": "function"
    },
    {
      "inputs": [
        {
          "internalType": "address",
          "name": "newOwner",
          "type": "address"
        }
      ],
      "name": "transferOwnership",
      "outputs": [],
      "stateMutability": "nonpayable",
      "type": "function"
    }
  ],
  "bytecode": {
    "object": "0x61018034620004da57601f19906001600160401b0390601f906200406b3881900383810186168301919085831184841017620004c45780849260409485528339602093849181010312620004da5751926001600160a01b038085168503620004da578251946200006f86620004df565b6011865284860194704a75696365626f782050726f6a6563747360781b938487528551996200009e8b620004df565b600191828c52838c0194603160f81b8652885197620000bd89620004df565b6011895285890152885190620000d382620004df565b6008825267094aa92868a849eb60c31b8683015260805287518c8111620004c45760009889548681811c91168015620004b9575b88821014620004a55790818584931162000452575b508790858311600114620003f1578b92620003e5575b5050600019600383901b1c191690851b1788555b8051928c8411620003d15784548581811c91168015620003c6575b87821014620003b25790818486959493116200035b575b5086928411600114620002fa57508892620002ee575b5050600019600383901b1c191690821b1790555b620001ad87620004fb565b95610140968752620001bf8a620006d8565b976101609889525190209161010099838b5251902094610120958087524660c0528151928301937f8b73c3c69bb8fe3d512ecc4cf759cc79239f7b179b0ffacaa9a75d522b39400f85528284015260608301524660808301523060a083015260a0825260c0820198828a10908a1117620002da5788905251902060a0523060e052600c8054336001600160a01b0319821681179092559091167f8be0079c531659141344cd1fd0a4f28419497f9722a3daafe3b4186f6b6457e08380a3600d556137da948562000891863960805185818161083c015281816108fd0152611503015260a051856131cf015260c0518561328a015260e051856131a00152518461321e015251836132440152518261109e015251816110c70152f35b634e487b7160e01b85526041600452602485fd5b0151905038806200018e565b858a52868a20869590939291168a5b888282106200034457505084116200032a575b505050811b019055620001a2565b015160001960f88460031b161c191690553880806200031c565b838501518655889790950194938401930162000309565b9091929350858a52868a208480870160051c820192898810620003a8575b9187968992969594930160051c01915b8281106200039957505062000178565b8c815587965088910162000389565b9250819262000379565b634e487b7160e01b8a52602260045260248afd5b90607f169062000161565b634e487b7160e01b89526041600452602489fd5b01519050388062000132565b9086889416918c8052898d20928d5b8b8282106200043b575050841162000421575b505050811b01885562000146565b015160001960f88460031b161c1916905538808062000413565b8385015186558b9790950194938401930162000400565b9091508a8052878b208580850160051c8201928a86106200049b575b918991869594930160051c01915b8281106200048c5750506200011c565b8d81558594508991016200047c565b925081926200046e565b634e487b7160e01b8b52602260045260248bfd5b90607f169062000107565b634e487b7160e01b600052604160045260246000fd5b600080fd5b604081019081106001600160401b03821117620004c457604052565b805160209081811015620005985750601f8251116200053757808251920151908083106200052857501790565b82600019910360031b1b161790565b90604051809263305a27a960e01b82528060048301528251908160248401526000935b8285106200057e575050604492506000838284010152601f80199101168101030190fd5b84810182015186860160440152938101938593506200055a565b906001600160401b038211620004c457600654926001938481811c91168015620006cd575b83821014620006b757601f81116200067d575b5081601f841160011462000611575092829391839260009462000605575b50501b916000199060031b1c19161760065560ff90565b015192503880620005ee565b919083601f198116600660005284600020946000905b8883831062000662575050501062000648575b505050811b0160065560ff90565b015160001960f88460031b161c191690553880806200063a565b85870151885590960195948501948793509081019062000627565b600660005284601f84600020920160051c820191601f860160051c015b828110620006aa575050620005d0565b600081550185906200069a565b634e487b7160e01b600052602260045260246000fd5b90607f1690620005bd565b805160209081811015620007665750601f8251116200070557808251920151908083106200052857501790565b90604051809263305a27a960e01b82528060048301528251908160248401526000935b8285106200074c575050604492506000838284010152601f80199101168101030190fd5b848101820151868601604401529381019385935062000728565b906001600160401b038211620004c457600754926001938481811c9116801562000885575b83821014620006b757601f81116200084b575b5081601f8411600114620007df5750928293918392600094620007d3575b50501b916000199060031b1c19161760075560ff90565b015192503880620007bc565b919083601f198116600760005284600020946000905b8883831062000830575050501062000816575b505050811b0160075560ff90565b015160001960f88460031b161c1916905538808062000808565b858701518855909601959485019487935090810190620007f5565b600760005284601f84600020920160051c820191601f860160051c015b828110620008785750506200079e565b6000815501859062000868565b90607f16906200078b56fe6080604052600436101561001257600080fd5b60003560e01c806301ffc9a71461023757806306661abd1461023257806306fdde031461022d578063081812fc14610228578063095ea7b31461022357806323b872dd1461021e5780632407497e146102195780633644e51514610214578063365749751461020f57806339fbc7751461020a5780633a46b1a81461020557806342842e0e146102005780634bf5d7e9146101fb578063587cde1e146101f65780635c19a95c146101f15780636352211e146101ec578063666d87a0146101e757806370a08231146101e2578063715018a6146101dd5780637ecebe00146101d857806384b0196e146101d35780638da5cb5b146101ce5780638e539e8c146101c957806391ddadf4146101c457806395d89b41146101bf5780639ab24eb0146101ba578063a22cb465146101b5578063ad007d63146101b0578063b88d4fde146101ab578063c3cda520146101a6578063c87b56dd146101a1578063e131fc0c1461019c578063e985e9c5146101975763f2fde38b1461019257600080fd5b6117de565b611774565b61174d565b61171a565b6115e3565b611552565b6114e3565b6113f2565b61139a565b6112f5565b6112c9565b6111be565b611197565b611083565b611045565b610fdc565b610fb5565b610d64565b610d46565b610d20565b610ce0565b610c2f565b610c07565b610b03565b610a21565b610750565b61071f565b6106a6565b61067d565b61053e565b6104fe565b61041b565b6103a1565b61026b565b7fffffffff0000000000000000000000000000000000000000000000000000000081160361026657565b600080fd5b346102665760206003193601126102665760207fffffffff000000000000000000000000000000000000000000000000000000006004356102ab8161023c565b167faa91a66f000000000000000000000000000000000000000000000000000000008114908115610377575b81156102e9575b506040519015158152f35b7f80ac58cd0000000000000000000000000000000000000000000000000000000081149150811561034d575b8115610323575b50386102de565b7f01ffc9a7000000000000000000000000000000000000000000000000000000009150143861031c565b7f5b5e139f0000000000000000000000000000000000000000000000000000000081149150610315565b7fad007d6300000000000000000000000000000000000000000000000000000000811491506102d7565b34610266576000600319360112610266576020600d54604051908152f35b60005b8381106103d25750506000910152565b81810151838201526020016103c2565b90601f19601f602093610400815180928187528780880191016103bf565b0116010190565b9060206104189281815201906103e2565b90565b34610266576000806003193601126104fb576040519080805461043d81610955565b808552916001918083169081156104d15750600114610477575b61047385610467818703826109fe565b60405191829182610407565b0390f35b80809450527f290decd9548b62a8d60345a988386fc84ba6bc95484008f6362f93160ef3e5635b8284106104b957505050810160200161046782610473610457565b8054602085870181019190915290930192810161049e565b8695506104739693506020925061046794915060ff191682840152151560051b8201019293610457565b80fd5b3461026657602060031936011261026657602061051c600435612346565b6001600160a01b0360405191168152f35b6001600160a01b0381160361026657565b346102665760406003193601126102665760043561055b8161052d565b602435610567816122b3565b916001600160a01b0380841680918316146105e7576105999361059491331490811561059b575b506122d5565b612749565b005b6105e191506105da906105c233916001600160a01b03166000526005602052604060002090565b906001600160a01b0316600052602052604060002090565b5460ff1690565b3861058e565b608460405162461bcd60e51b815260206004820152602160248201527f4552433732313a20617070726f76616c20746f2063757272656e74206f776e6560448201527f72000000000000000000000000000000000000000000000000000000000000006064820152fd5b6003196060910112610266576004356106698161052d565b906024356106768161052d565b9060443590565b346102665761059961068e36610651565b916106a161069c8433612492565b612388565b6125cf565b34610266576020600319360112610266576001600160a01b036004356106cb8161052d565b6106d3611d0d565b168073ffffffffffffffffffffffffffffffffffffffff19600f541617600f557fe7784d93cfbfa4408e19577e6cc0436f4dbb51214b70e100905dfce9def88c166020604051338152a2005b3461026657600060031936011261026657602061073a613196565b604051908152f35b908160409103126102665790565b346102665760406003193601126102665760043560243567ffffffffffffffff811161026657610784903690600401610742565b61078d826122b3565b6001600160a01b039081811633141591826108a9575b826107e2575b50506107b85761059991611ba5565b60046040517f075fd2b1000000000000000000000000000000000000000000000000000000008152fd5b6040517fc161c93f0000000000000000000000000000000000000000000000000000000081523360048201526001600160a01b039290921660248301526000604483015260066064830152909150602090829060849082907f0000000000000000000000000000000000000000000000000000000000000000165afa9081156108a457600091610876575b501538806107a9565b610897915060203d811161089d575b61088f81836109fe565b810190611cf8565b3861086d565b503d610885565b6118c7565b6040517fc161c93f0000000000000000000000000000000000000000000000000000000081523360048201526001600160a01b038316602482015260448101869052600660648201529092506020816084817f000000000000000000000000000000000000000000000000000000000000000087165afa9081156108a457600091610937575b5015916107a3565b61094f915060203d811161089d5761088f81836109fe565b3861092f565b90600182811c92168015610985575b602083101461096f57565b634e487b7160e01b600052602260045260246000fd5b91607f1691610964565b634e487b7160e01b600052604160045260246000fd5b6020810190811067ffffffffffffffff8211176109c157604052565b61098f565b6040810190811067ffffffffffffffff8211176109c157604052565b60c0810190811067ffffffffffffffff8211176109c157604052565b90601f601f19910116810190811067ffffffffffffffff8211176109c157604052565b3461026657604060031936011261026657600060043581526020600e815260408220602435835281526040822060405183819490835490610a6182610955565b94858552600192878482169182600014610ade575050600114610aa2575b505050610a8e925003836109fe565b6104736040519282849384528301906103e2565b869350819291528282205b858310610ac6575050610a8e9350820101388080610a7f565b80548389018501528794508693909201918101610aad565b9250945050610a8e95925060ff1991501682840152151560051b820101388080610a7f565b3461026657604060031936011261026657600435610b208161052d565b60243590610b3f65ffffffffffff610b37436136ac565b168310611d65565b6001600160a01b036000911681526009602052610b5f6040822092613729565b91805482938160058111610baf575b5090602094610b7d9284612f43565b80610b965750505b6001600160e01b0360405191168152f35b91610ba2849293612acd565b928152200154811c610b85565b94610bb9866134dc565b8603958611610c0257602095610b7d9385875263ffffffff80838a8a2001541690851610600014610bf05750915b91925094610b6e565b929150610bfc90612adc565b90610be7565b6119c4565b3461026657610599610c1836610651565b9060405192610c26846109a5565b600084526123f9565b34610266576000600319360112610266574365ffffffffffff610c51436136ac565b1603610c9c57610473604051610c66816109c6565b601d81527f6d6f64653d626c6f636b6e756d6265722666726f6d3d64656661756c74000000602082015260405191829182610407565b606460405162461bcd60e51b815260206004820152601860248201527f566f7465733a2062726f6b656e20636c6f636b206d6f646500000000000000006044820152fd5b34610266576020600319360112610266576020600435610cff8161052d565b6001600160a01b038091166000526008825260406000205416604051908152f35b3461026657602060031936011261026657610599600435610d408161052d565b33611dfb565b3461026657602060031936011261026657602061051c6004356122b3565b3461026657604060031936011261026657600435610d818161052d565b60243567ffffffffffffffff811161026657610da1903690600401610742565b600d546000198114610c02576001019081600d5560405190610dc2826109a5565b600082526001600160a01b038416918215610f7157610f1c8492610efd610ef87fa1c6fd563bcbc3222f6031d7c26ff58cd6c701abff0bfffe652d055ce40629d494866104739a610e38610e33610e2f8460005260026020526001600160a01b0360406000205416151590565b1590565b612513565b610e5e610e33610e2f8460005260026020526001600160a01b0360406000205416151590565b610e7b816001600160a01b03166000526003602052604060002090565b60018154019055610ec281610e9a846000526002602052604060002090565b906001600160a01b031673ffffffffffffffffffffffffffffffffffffffff19825416179055565b818a60007fddf252ad1be2c89b69c2b068fc378daa952ba7f163c4a11628f55a4df523b3ef8180a4610ef381612a01565b612860565b612420565b610f0781806119da565b9050610f2f575b604051918291339083611b28565b0390a36040519081529081906020820190565b610f6c610f3c82806119da565b90610f67610f5488600052600e602052604060002090565b6020860135600052602052604060002090565b611a61565b610f0e565b606460405162461bcd60e51b815260206004820152602060248201527f4552433732313a206d696e7420746f20746865207a65726f20616464726573736044820152fd5b3461026657602060031936011261026657602061073a600435610fd78161052d565b6121de565b34610266576000806003193601126104fb57610ff6611d0d565b806001600160a01b03600c5473ffffffffffffffffffffffffffffffffffffffff198116600c55167f8be0079c531659141344cd1fd0a4f28419497f9722a3daafe3b4186f6b6457e08280a380f35b34610266576020600319360112610266576001600160a01b0360043561106a8161052d565b16600052600b6020526020604060002054604051908152f35b34610266576000806003193601126104fb57611149906110c27f00000000000000000000000000000000000000000000000000000000000000006132f1565b6110eb7f0000000000000000000000000000000000000000000000000000000000000000613402565b91604051916110f9836109a5565b8183526040519485947f0f00000000000000000000000000000000000000000000000000000000000000865261113b60209360e08589015260e08801906103e2565b9086820360408801526103e2565b904660608601523060808601528260a086015284820360c08601528080855193848152019401925b82811061118057505050500390f35b835185528695509381019392810192600101611171565b346102665760006003193601126102665760206001600160a01b03600c5416604051908152f35b34610266576020600319360112610266576111f56004356111f065ffffffffffff6111e8436136ac565b168210611d65565b613729565b600a5490600082916005841161125e575b6112109350612eca565b60008161122557505060405160008152602090f35b600a611232602093612acd565b91527fc65a7bb8d6351c1cf70c95a316cc6a92839c986682d98bc35f958f4883f9d2a80154811c610b85565b9192611269816134dc565b8103908111610c025761121093600a835263ffffffff80837fc65a7bb8d6351c1cf70c95a316cc6a92839c986682d98bc35f958f4883f9d2a8015416908516106000146112b7575091611206565b9291506112c390612adc565b90611206565b346102665760006003193601126102665760206112e5436136ac565b65ffffffffffff60405191168152f35b34610266576000806003193601126104fb576040519080600180549161131a83610955565b808652928281169081156104d157506001146113405761047385610467818703826109fe565b92508083527fb10e2d527612073b26eecdfd717e6a320cf44b4afac2b0732d9fcbe2b7fa0cf65b82841061138257505050810160200161046782610473610457565b80546020858701810191909152909301928101611367565b34610266576020600319360112610266576001600160a01b036004356113bf8161052d565b16600052600960205260206001600160e01b036113df6040600020612b34565b16604051908152f35b8015150361026657565b346102665760406003193601126102665760043561140f8161052d565b60243561141b816113e8565b6001600160a01b0382169182331461149f578161145b61146d923360005260056020526040600020906001600160a01b0316600052602052604060002090565b9060ff60ff1983541691151516179055565b604051901515815233907f17307eab39ab6107e8899845ad3d59bd9653f200f220920489ca2b5937696c3190602090a3005b606460405162461bcd60e51b815260206004820152601960248201527f4552433732313a20617070726f766520746f2063616c6c6572000000000000006044820152fd5b346102665760006003193601126102665760206040516001600160a01b037f0000000000000000000000000000000000000000000000000000000000000000168152f35b60405190611534826109c6565b565b67ffffffffffffffff81116109c157601f01601f191660200190565b346102665760806003193601126102665760043561156f8161052d565b60243561157b8161052d565b6064359167ffffffffffffffff83116102665736602384011215610266578260040135916115a883611536565b926115b660405194856109fe565b808452366024828701011161026657602081600092602461059998018388013785010152604435916123f9565b346102665760c0600319360112610266576004356116008161052d565b6064359060243560443560ff84168403610266578042116116d6576116a46116d191610599956040519061168c8261167e6020820195898b886060919493926001600160a01b0360808301967fe48329057bfd03d55e49b547132e39cffd9c1820ad7b9d4c5307691425d15adf845216602083015260408201520152565b03601f1981018452836109fe565b61169f60a43593608435935190206132b0565b612fa2565b916116cb836001600160a01b0316600052600b602052604060002090815491600183019055565b14611db0565b611dfb565b606460405162461bcd60e51b815260206004820152601860248201527f566f7465733a207369676e6174757265206578706972656400000000000000006044820152fd5b34610266576020600319360112610266576104736117396004356118d3565b6040519182916020835260208301906103e2565b346102665760006003193601126102665760206001600160a01b03600f5416604051908152f35b3461026657604060031936011261026657602060ff6117d26004356117988161052d565b6001600160a01b03602435916117ad8361052d565b16600052600584526040600020906001600160a01b0316600052602052604060002090565b54166040519015158152f35b34610266576020600319360112610266576004356117fb8161052d565b611803611d0d565b6001600160a01b0380911690811561185d57600c548273ffffffffffffffffffffffffffffffffffffffff19821617600c55167f8be0079c531659141344cd1fd0a4f28419497f9722a3daafe3b4186f6b6457e0600080a3005b608460405162461bcd60e51b815260206004820152602660248201527f4f776e61626c653a206e6577206f776e657220697320746865207a65726f206160448201527f64647265737300000000000000000000000000000000000000000000000000006064820152fd5b6040513d6000823e3d90fd5b6001600160a01b03600f54169081156119af576040519182917fda0544aa000000000000000000000000000000000000000000000000000000008352600483015281602460009485935afa9182156108a457809261193057505090565b9091503d8082843e61194281846109fe565b8201916020818403126119a75780519067ffffffffffffffff82116119ab570182601f820112156119a75780519161197983611536565b9361198760405195866109fe565b838552602084840101116104fb57509061041891602080850191016103bf565b5080fd5b8280fd5b50506040516119bd816109a5565b6000815290565b634e487b7160e01b600052601160045260246000fd5b903590601e1981360301821215610266570180359067ffffffffffffffff82116102665760200191813603831361026657565b90601f8111611a1b57505050565b600091825260208220906020601f850160051c83019410611a57575b601f0160051c01915b828110611a4c57505050565b818155600101611a40565b9092508290611a37565b90929167ffffffffffffffff81116109c157611a8781611a818454610955565b84611a0d565b6000601f8211600114611ac05781929394600092611ab5575b50506000198260011b9260031b1c1916179055565b013590503880611aa0565b601f19821694611ad584600052602060002090565b91805b878110611b10575083600195969710611af6575b505050811b019055565b60001960f88560031b161c19910135169055388080611aec565b90926020600181928686013581550194019101611ad8565b9291604084528135601e1983360301811215610266578201916020833593019267ffffffffffffffff811161026657803603841361026657601f19601f8260208095826115349960a09760808e6040808201520152878d0137600086848d010152013560608a015201168601019401906001600160a01b03169052565b90611bb081806119da565b600091848352602090600e8252604084208286013585528252604084209367ffffffffffffffff84116109c157611bf184611beb8754610955565b87611a0d565b8092601f8511600114611c61575092611c51949281927fd07720acb527321c9d1766f359139d0e0e3551bd99fb3ca353d4f008f3aad8e6979592611c56575b50506000198260011b9260031b1c1916179055604051918291339083611b28565b0390a2565b013590503880611c30565b601f19859492941690611c7987600052602060002090565b94905b828210611ce05750509260019285927fd07720acb527321c9d1766f359139d0e0e3551bd99fb3ca353d4f008f3aad8e69896611c51989610611cc6575b505050811b019055610f0e565b60001960f88560031b161c19910135169055388080611cb9565b80600185978294968801358155019601930190611c7c565b908160209103126102665751610418816113e8565b6001600160a01b03600c54163303611d2157565b606460405162461bcd60e51b815260206004820152602060248201527f4f776e61626c653a2063616c6c6572206973206e6f7420746865206f776e65726044820152fd5b15611d6c57565b606460405162461bcd60e51b815260206004820152601460248201527f566f7465733a20667574757265206c6f6f6b75700000000000000000000000006044820152fd5b15611db757565b606460405162461bcd60e51b815260206004820152601460248201527f566f7465733a20696e76616c6964206e6f6e63650000000000000000000000006044820152fd5b81611e7b6001600160a01b0392838116806000526008602052604060002094611e4c81875416978897906001600160a01b031673ffffffffffffffffffffffffffffffffffffffff19825416179055565b84169586917f3134e8a2e6d97e929a7e54011ea5485d7d196dd5f0ba4d4ef95803e8e3fc257f600080a46121de565b918381141580611fc9575b611e91575b50505050565b80611f18575b5082611ea4575b80611e8b565b7fdec2bacdd2f05b59de34da9b523dff8be42e5e38e818c82fdb0bae774387a72491611eef611ee9611ef5936001600160a01b03166000526009602052604060002090565b9161362e565b90612143565b604080516001600160e01b039384168152919092166020820152a2388080611e9e565b611f35816001600160a01b03166000526009602052604060002090565b611f3e8461362e565b611f5765ffffffffffff611f51436136ac565b16613729565b6001600160e01b03918280611f6b86612b34565b169116900392828411610c02577fdec2bacdd2f05b59de34da9b523dff8be42e5e38e818c82fdb0bae774387a72493611fc092611fa792612de4565b6040805192851683529316602082015291829190820190565b0390a238611e97565b50821515611e86565b906001600160a01b03918282169281169083821415806120fd575b611ff75750505050565b81612074575b50508161200c575b8080611e8b565b61205261204d7fdec2bacdd2f05b59de34da9b523dff8be42e5e38e818c82fdb0bae774387a724926001600160a01b03166000526009602052604060002090565b612105565b604080516001600160e01b039384168152919092166020820152a23880612005565b612091906001600160a01b03166000526009602052604060002090565b6120a465ffffffffffff611f51436136ac565b6001600160e01b0390600019826120ba85612b34565b160192828411610c02577fdec2bacdd2f05b59de34da9b523dff8be42e5e38e818c82fdb0bae774387a724936120f392611fa792612de4565b0390a23880611ffd565b506001611fed565b61211865ffffffffffff611f51436136ac565b6001600160e01b039060018261212d85612b34565b1601918211610c025761213f92612de4565b9091565b9061215765ffffffffffff611f51436136ac565b6001600160e01b0391828061216b86612b34565b16911601918211610c025761213f92612de4565b61219265ffffffffffff611f51436136ac565b6001600160e01b036001816121a5612aea565b1601908111610c025761213f91612cb1565b6121ca65ffffffffffff611f51436136ac565b6001600160e01b03600019816121a5612aea565b6001600160a01b031680156121fe57600052600360205260406000205490565b608460405162461bcd60e51b815260206004820152602960248201527f4552433732313a2061646472657373207a65726f206973206e6f74206120766160448201527f6c6964206f776e657200000000000000000000000000000000000000000000006064820152fd5b1561226f57565b606460405162461bcd60e51b815260206004820152601860248201527f4552433732313a20696e76616c696420746f6b656e20494400000000000000006044820152fd5b60005260026020526001600160a01b0360406000205416610418811515612268565b156122dc57565b608460405162461bcd60e51b815260206004820152603d60248201527f4552433732313a20617070726f76652063616c6c6572206973206e6f7420746f60448201527f6b656e206f776e6572206f7220617070726f76656420666f7220616c6c0000006064820152fd5b61236e6123698260005260026020526001600160a01b0360406000205416151590565b612268565b60005260046020526001600160a01b036040600020541690565b1561238f57565b608460405162461bcd60e51b815260206004820152602d60248201527f4552433732313a2063616c6c6572206973206e6f7420746f6b656e206f776e6560448201527f72206f7220617070726f766564000000000000000000000000000000000000006064820152fd5b916115349391610ef89361241061069c8433612492565b61241b8383836125cf565b6129a4565b1561242757565b60405162461bcd60e51b815260206004820152603260248201527f4552433732313a207472616e7366657220746f206e6f6e20455243373231526560448201527f63656976657220696d706c656d656e74657200000000000000000000000000006064820152608490fd5b6001600160a01b03806124a4846122b3565b1692818316928484149485156124da575b505083156124c4575b50505090565b6124d091929350612346565b16143880806124be565b60ff929550906125099160005260056020526040600020906001600160a01b0316600052602052604060002090565b54169238806124b5565b1561251a57565b606460405162461bcd60e51b815260206004820152601c60248201527f4552433732313a20746f6b656e20616c7265616479206d696e746564000000006044820152fd5b1561256557565b608460405162461bcd60e51b815260206004820152602560248201527f4552433732313a207472616e736665722066726f6d20696e636f72726563742060448201527f6f776e65720000000000000000000000000000000000000000000000000000006064820152fd5b6125f3926125dc816122b3565b6001600160a01b038381169590918216861461255e565b831680156126e057846126216115349661261b61260f866122b3565b6001600160a01b031690565b1461255e565b612655612638846000526004602052604060002090565b73ffffffffffffffffffffffffffffffffffffffff198154169055565b612672846001600160a01b03166000526003602052604060002090565b6000198154019055612697856001600160a01b03166000526003602052604060002090565b600181540190556126b685610e9a856000526002602052604060002090565b7fddf252ad1be2c89b69c2b068fc378daa952ba7f163c4a11628f55a4df523b3ef600080a4612a6c565b608460405162461bcd60e51b8152602060048201526024808201527f4552433732313a207472616e7366657220746f20746865207a65726f2061646460448201527f72657373000000000000000000000000000000000000000000000000000000006064820152fd5b816000526004602052612783816040600020906001600160a01b031673ffffffffffffffffffffffffffffffffffffffff19825416179055565b6001600160a01b0380612795846122b3565b169116907f8c5be1e5ebec7d5bd14f71427d1e84f3dd0314c0f7b2291e5b200ac8c7c3b925600080a4565b9081602091031261026657516104188161023c565b61041893926001600160a01b0360809316825260006020830152604082015281606082015201906103e2565b909261041894936080936001600160a01b038092168452166020830152604082015281606082015201906103e2565b3d1561285b573d9061284182611536565b9161284f60405193846109fe565b82523d6000602084013e565b606090565b909190803b1561299c576128b36020916001600160a01b039360006040519586809581947f150b7a02000000000000000000000000000000000000000000000000000000009a8b845233600485016127d5565b0393165af16000918161296c575b50612946576128ce612830565b805190816129415760405162461bcd60e51b815260206004820152603260248201527f4552433732313a207472616e7366657220746f206e6f6e20455243373231526560448201527f63656976657220696d706c656d656e74657200000000000000000000000000006064820152608490fd5b602001fd5b7fffffffff00000000000000000000000000000000000000000000000000000000161490565b61298e91925060203d8111612995575b61298681836109fe565b8101906127c0565b90386128c1565b503d61297c565b505050600190565b92909190823b156129f8576128b39260209260006001600160a01b036040518097819682957f150b7a02000000000000000000000000000000000000000000000000000000009b8c85523360048601612801565b50505050600190565b61153490612a0d61217f565b50506001600160a01b03809116908115612a5d575b60086020527f5eff886ea0ce6ca488a3d6e336d6c0f75f46d19b42c06ce5ee98e42c96d256c754600092835260409092205481169116611fd2565b612a656121b7565b5050612a22565b90611534916001600160a01b0380809216928315612abe575b16918215612aaf575b60005260086020528060406000205416916000526040600020541690611fd2565b612ab76121b7565b5050612a8e565b612ac661217f565b5050612a85565b906000198201918211610c0257565b9060018201809211610c0257565b600a5460009080612afc575050600090565b80600019810111610c0257600a7fc65a7bb8d6351c1cf70c95a316cc6a92839c986682d98bc35f958f4883f9d2a79252015460201c90565b805460009181612b4657505050600090565b600019928284810111610c025760209181522001015460201c90565b600a5490680100000000000000008210156109c1576001820180600a55821015612bce57600a600052805160209182015190911b63ffffffff191663ffffffff91909116177fc65a7bb8d6351c1cf70c95a316cc6a92839c986682d98bc35f958f4883f9d2a890910155565b634e487b7160e01b600052603260045260246000fd5b908154680100000000000000008110156109c15760018101808455811015612bce57600092835260209283902082519284015190931b63ffffffff191663ffffffff9290921691909117910155565b906040516040810181811067ffffffffffffffff8211176109c157604052602081935463ffffffff81168352811c910152565b15612c6d57565b606460405162461bcd60e51b815260206004820152601b60248201527f436865636b706f696e743a2064656372656173696e67206b65797300000000006044820152fd5b600a549192918015612dba57612d80918185612d03612cfe612cd4602096612acd565b600a6000527fc65a7bb8d6351c1cf70c95a316cc6a92839c986682d98bc35f958f4883f9d2a80190565b612c33565b92612d12845163ffffffff1690565b612d2963ffffffff91828416928391161115612c66565b612d43612d3a865163ffffffff1690565b63ffffffff1690565b03612d845750612d58612cd4612d7293612acd565b9063ffffffff63ffffffff1983549260201b169116179055565b01516001600160e01b031690565b9190565b9050612db59150612da2612d96611527565b63ffffffff9092168252565b6001600160e01b03871681850152612b62565b612d72565b50612dde90612dca612d96611527565b6001600160e01b0384166020820152612b62565b60009190565b90929192838254801515600014612ea557926020929184612e1a612cfe612e0d612d8098612acd565b8560005260206000200190565b93612e29855163ffffffff1690565b612e4063ffffffff91828416928391161115612c66565b612e51612d3a875163ffffffff1690565b03612e745750612d7292612e67612d5892612acd565b9060005260206000200190565b915050612db591612e92612e86611527565b63ffffffff9093168352565b6001600160e01b03881682860152612be4565b5050612dde91612eb6612e86611527565b6001600160e01b0385166020830152612be4565b905b828110612ed857505090565b90918082169080831860011c8201809211610c0257600a60005263ffffffff80837fc65a7bb8d6351c1cf70c95a316cc6a92839c986682d98bc35f958f4883f9d2a801541690851610600014612f315750915b90612ecc565b929150612f3d90612adc565b90612f2b565b91905b838210612f535750505090565b9091928083169080841860011c8201809211610c025760008581526020902082015463ffffffff9081169084161015612f905750925b9190612f46565b939250612f9c90612adc565b91612f89565b916104189391612fb193613114565b919091612fd9565b60051115612fc357565b634e487b7160e01b600052602160045260246000fd5b612fe281612fb9565b80612fea5750565b612ff381612fb9565b600181036130405760405162461bcd60e51b815260206004820152601860248201527f45434453413a20696e76616c6964207369676e617475726500000000000000006044820152606490fd5b61304981612fb9565b600281036130965760405162461bcd60e51b815260206004820152601f60248201527f45434453413a20696e76616c6964207369676e6174757265206c656e677468006044820152606490fd5b806130a2600392612fb9565b146130a957565b60405162461bcd60e51b815260206004820152602260248201527f45434453413a20696e76616c6964207369676e6174757265202773272076616c60448201527f75650000000000000000000000000000000000000000000000000000000000006064820152608490fd5b9291907f7fffffffffffffffffffffffffffffff5d576e7357a4501ddfe92f46681b20a0831161318a5791608094939160ff602094604051948552168484015260408301526060820152600093849182805260015afa156108a45781516001600160a01b03811615613184579190565b50600190565b50505050600090600390565b6001600160a01b037f000000000000000000000000000000000000000000000000000000000000000016301480613287575b156131f1577f000000000000000000000000000000000000000000000000000000000000000090565b60405160208101907f8b73c3c69bb8fe3d512ecc4cf759cc79239f7b179b0ffacaa9a75d522b39400f82527f000000000000000000000000000000000000000000000000000000000000000060408201527f000000000000000000000000000000000000000000000000000000000000000060608201524660808201523060a082015260a08152613281816109e2565b51902090565b507f000000000000000000000000000000000000000000000000000000000000000046146131c8565b6042906132bb613196565b90604051917f19010000000000000000000000000000000000000000000000000000000000008352600283015260228201522090565b60ff81146133475760ff811690601f821161331d5760405191613313836109c6565b8252602082015290565b60046040517fb3512b0c000000000000000000000000000000000000000000000000000000008152fd5b5060405160065481600061335a83610955565b808352926001908181169081156133e05750600114613381575b50610418925003826109fe565b6006600090815291507ff652222313e28459528d920b65115c16c04f3efc82aaedc97be59f3f377c0d3f5b8483106133c55750610418935050810160200138613374565b819350908160209254838589010152019101909184926133ac565b6020935061041895925060ff1991501682840152151560051b82010138613374565b60ff81146134245760ff811690601f821161331d5760405191613313836109c6565b5060405160075481600061343783610955565b808352926001908181169081156133e0575060011461345d5750610418925003826109fe565b6007600090815291507fa66cc928b5edb82af9bd49922954155ab7b0942694bea4ce44661d9a8736c6885b8483106134a15750610418935050810160200138613374565b81935090816020925483858901015201910190918492613488565b81156134c6570490565b634e487b7160e01b600052601260045260246000fd5b801561361657806135af6135a861359e61359461358a61358061357661356c60016104189a6000908b60801c8061360a575b508060401c806135fd575b508060201c806135f0575b508060101c806135e3575b508060081c806135d6575b508060041c806135c9575b508060021c806135bc575b50821c6135b5575b811c1b613565818b6134bc565b0160011c90565b613565818a6134bc565b61356581896134bc565b61356581886134bc565b61356581876134bc565b61356581866134bc565b61356581856134bc565b80926134bc565b9061361c565b8101613558565b6002915091019038613550565b6004915091019038613545565b600891509101903861353a565b601091509101903861352f565b6020915091019038613524565b6040915091019038613519565b9150506080903861350e565b50600090565b9080821015613629575090565b905090565b6001600160e01b0390818111613642571690565b608460405162461bcd60e51b815260206004820152602760248201527f53616665436173743a2076616c756520646f65736e27742066697420696e203260448201527f32342062697473000000000000000000000000000000000000000000000000006064820152fd5b65ffffffffffff908181116136bf571690565b608460405162461bcd60e51b815260206004820152602660248201527f53616665436173743a2076616c756520646f65736e27742066697420696e203460448201527f38206269747300000000000000000000000000000000000000000000000000006064820152fd5b63ffffffff9081811161373a571690565b608460405162461bcd60e51b815260206004820152602660248201527f53616665436173743a2076616c756520646f65736e27742066697420696e203360448201527f32206269747300000000000000000000000000000000000000000000000000006064820152fdfea2646970667358221220e107615ef8fd8dd062c37385a2a5639eee13d42b5f71ead0a817dc74458b583a64736f6c63430008140033",
    "linkReferences": {}
  },
  "methodIdentifiers": {
    "CLOCK_MODE()": "4bf5d7e9",
    "DOMAIN_SEPARATOR()": "3644e515",
    "approve(address,uint256)": "095ea7b3",
    "balanceOf(address)": "70a08231",
    "clock()": "91ddadf4",
    "count()": "06661abd",
    "createFor(address,(string,uint256))": "666d87a0",
    "delegate(address)": "5c19a95c",
    "delegateBySig(address,uint256,uint256,uint8,bytes32,bytes32)": "c3cda520",
    "delegates(address)": "587cde1e",
    "eip712Domain()": "84b0196e",
    "getApproved(uint256)": "081812fc",
    "getPastTotalSupply(uint256)": "8e539e8c",
    "getPastVotes(address,uint256)": "3a46b1a8",
    "getVotes(address)": "9ab24eb0",
    "isApprovedForAll(address,address)": "e985e9c5",
    "metadataContentOf(uint256,uint256)": "39fbc775",
    "name()": "06fdde03",
    "nonces(address)": "7ecebe00",
    "operatorStore()": "ad007d63",
    "owner()": "8da5cb5b",
    "ownerOf(uint256)": "6352211e",
    "renounceOwnership()": "715018a6",
    "safeTransferFrom(address,address,uint256)": "42842e0e",
    "safeTransferFrom(address,address,uint256,bytes)": "b88d4fde",
    "setApprovalForAll(address,bool)": "a22cb465",
    "setMetadataOf(uint256,(string,uint256))": "36574975",
    "setTokenUriResolver(address)": "2407497e",
    "supportsInterface(bytes4)": "01ffc9a7",
    "symbol()": "95d89b41",
    "tokenURI(uint256)": "c87b56dd",
    "tokenUriResolver()": "e131fc0c",
    "transferFrom(address,address,uint256)": "23b872dd",
    "transferOwnership(address)": "f2fde38b"
  },
  "id": 77
}