{
  "abi": [
    {
      "inputs": [
        {
          "internalType": "contract IJBOperatorStore",
          "name": "_operatorStore",
          "type": "address"
        }
      ],
      "stateMutability": "nonpayable",
      "type": "constructor"
    },
    {
      "inputs": [],
      "name": "UNAUTHORIZED",
      "type": "error"
    },
    {
      "anonymous": false,
      "inputs": [
        {
          "indexed": true,
          "internalType": "address",
          "name": "owner",
          "type": "address"
        },
        {
          "indexed": true,
          "internalType": "address",
          "name": "approved",
          "type": "address"
        },
        {
          "indexed": true,
          "internalType": "uint256",
          "name": "tokenId",
          "type": "uint256"
        }
      ],
      "name": "Approval",
      "type": "event"
    },
    {
      "anonymous": false,
      "inputs": [
        {
          "indexed": true,
          "internalType": "address",
          "name": "owner",
          "type": "address"
        },
        {
          "indexed": true,
          "internalType": "address",
          "name": "operator",
          "type": "address"
        },
        {
          "indexed": false,
          "internalType": "bool",
          "name": "approved",
          "type": "bool"
        }
      ],
      "name": "ApprovalForAll",
      "type": "event"
    },
    {
      "anonymous": false,
      "inputs": [
        {
          "indexed": true,
          "internalType": "uint256",
          "name": "projectId",
          "type": "uint256"
        },
        {
          "indexed": true,
          "internalType": "address",
          "name": "owner",
          "type": "address"
        },
        {
          "components": [
            {
              "internalType": "string",
              "name": "content",
              "type": "string"
            },
            {
              "internalType": "uint256",
              "name": "domain",
              "type": "uint256"
            }
          ],
          "indexed": false,
          "internalType": "struct JBProjectMetadata",
          "name": "metadata",
          "type": "tuple"
        },
        {
          "indexed": false,
          "internalType": "address",
          "name": "caller",
          "type": "address"
        }
      ],
      "name": "Create",
      "type": "event"
    },
    {
      "anonymous": false,
      "inputs": [
        {
          "indexed": true,
          "internalType": "address",
          "name": "delegator",
          "type": "address"
        },
        {
          "indexed": true,
          "internalType": "address",
          "name": "fromDelegate",
          "type": "address"
        },
        {
          "indexed": true,
          "internalType": "address",
          "name": "toDelegate",
          "type": "address"
        }
      ],
      "name": "DelegateChanged",
      "type": "event"
    },
    {
      "anonymous": false,
      "inputs": [
        {
          "indexed": true,
          "internalType": "address",
          "name": "delegate",
          "type": "address"
        },
        {
          "indexed": false,
          "internalType": "uint256",
          "name": "previousBalance",
          "type": "uint256"
        },
        {
          "indexed": false,
          "internalType": "uint256",
          "name": "newBalance",
          "type": "uint256"
        }
      ],
      "name": "DelegateVotesChanged",
      "type": "event"
    },
    {
      "anonymous": false,
      "inputs": [
        {
          "indexed": true,
          "internalType": "address",
          "name": "previousOwner",
          "type": "address"
        },
        {
          "indexed": true,
          "internalType": "address",
          "name": "newOwner",
          "type": "address"
        }
      ],
      "name": "OwnershipTransferred",
      "type": "event"
    },
    {
      "anonymous": false,
      "inputs": [
        {
          "indexed": true,
          "internalType": "uint256",
          "name": "projectId",
          "type": "uint256"
        },
        {
          "components": [
            {
              "internalType": "string",
              "name": "content",
              "type": "string"
            },
            {
              "internalType": "uint256",
              "name": "domain",
              "type": "uint256"
            }
          ],
          "indexed": false,
          "internalType": "struct JBProjectMetadata",
          "name": "metadata",
          "type": "tuple"
        },
        {
          "indexed": false,
          "internalType": "address",
          "name": "caller",
          "type": "address"
        }
      ],
      "name": "SetMetadata",
      "type": "event"
    },
    {
      "anonymous": false,
      "inputs": [
        {
          "indexed": true,
          "internalType": "contract IJBTokenUriResolver",
          "name": "resolver",
          "type": "address"
        },
        {
          "indexed": false,
          "internalType": "address",
          "name": "caller",
          "type": "address"
        }
      ],
      "name": "SetTokenUriResolver",
      "type": "event"
    },
    {
      "anonymous": false,
      "inputs": [
        {
          "indexed": true,
          "internalType": "address",
          "name": "from",
          "type": "address"
        },
        {
          "indexed": true,
          "internalType": "address",
          "name": "to",
          "type": "address"
        },
        {
          "indexed": true,
          "internalType": "uint256",
          "name": "tokenId",
          "type": "uint256"
        }
      ],
      "name": "Transfer",
      "type": "event"
    },
    {
      "inputs": [],
      "name": "DOMAIN_SEPARATOR",
      "outputs": [
        {
          "internalType": "bytes32",
          "name": "",
          "type": "bytes32"
        }
      ],
      "stateMutability": "view",
      "type": "function"
    },
    {
      "inputs": [
        {
          "internalType": "address",
          "name": "to",
          "type": "address"
        },
        {
          "internalType": "uint256",
          "name": "tokenId",
          "type": "uint256"
        }
      ],
      "name": "approve",
      "outputs": [],
      "stateMutability": "nonpayable",
      "type": "function"
    },
    {
      "inputs": [
        {
          "internalType": "address",
          "name": "owner",
          "type": "address"
        }
      ],
      "name": "balanceOf",
      "outputs": [
        {
          "internalType": "uint256",
          "name": "",
          "type": "uint256"
        }
      ],
      "stateMutability": "view",
      "type": "function"
    },
    {
      "inputs": [],
      "name": "count",
      "outputs": [
        {
          "internalType": "uint256",
          "name": "",
          "type": "uint256"
        }
      ],
      "stateMutability": "view",
      "type": "function"
    },
    {
      "inputs": [
        {
          "internalType": "address",
          "name": "_owner",
          "type": "address"
        },
        {
          "components": [
            {
              "internalType": "string",
              "name": "content",
              "type": "string"
            },
            {
              "internalType": "uint256",
              "name": "domain",
              "type": "uint256"
            }
          ],
          "internalType": "struct JBProjectMetadata",
          "name": "_metadata",
          "type": "tuple"
        }
      ],
      "name": "createFor",
      "outputs": [
        {
          "internalType": "uint256",
          "name": "projectId",
          "type": "uint256"
        }
      ],
      "stateMutability": "nonpayable",
      "type": "function"
    },
    {
      "inputs": [
        {
          "internalType": "address",
          "name": "delegatee",
          "type": "address"
        }
      ],
      "name": "delegate",
      "outputs": [],
      "stateMutability": "nonpayable",
      "type": "function"
    },
    {
      "inputs": [
        {
          "internalType": "address",
          "name": "delegatee",
          "type": "address"
        },
        {
          "internalType": "uint256",
          "name": "nonce",
          "type": "uint256"
        },
        {
          "internalType": "uint256",
          "name": "expiry",
          "type": "uint256"
        },
        {
          "internalType": "uint8",
          "name": "v",
          "type": "uint8"
        },
        {
          "internalType": "bytes32",
          "name": "r",
          "type": "bytes32"
        },
        {
          "internalType": "bytes32",
          "name": "s",
          "type": "bytes32"
        }
      ],
      "name": "delegateBySig",
      "outputs": [],
      "stateMutability": "nonpayable",
      "type": "function"
    },
    {
      "inputs": [
        {
          "internalType": "address",
          "name": "account",
          "type": "address"
        }
      ],
      "name": "delegates",
      "outputs": [
        {
          "internalType": "address",
          "name": "",
          "type": "address"
        }
      ],
      "stateMutability": "view",
      "type": "function"
    },
    {
      "inputs": [
        {
          "internalType": "uint256",
          "name": "tokenId",
          "type": "uint256"
        }
      ],
      "name": "getApproved",
      "outputs": [
        {
          "internalType": "address",
          "name": "",
          "type": "address"
        }
      ],
      "stateMutability": "view",
      "type": "function"
    },
    {
      "inputs": [
        {
          "internalType": "uint256",
          "name": "blockNumber",
          "type": "uint256"
        }
      ],
      "name": "getPastTotalSupply",
      "outputs": [
        {
          "internalType": "uint256",
          "name": "",
          "type": "uint256"
        }
      ],
      "stateMutability": "view",
      "type": "function"
    },
    {
      "inputs": [
        {
          "internalType": "address",
          "name": "account",
          "type": "address"
        },
        {
          "internalType": "uint256",
          "name": "blockNumber",
          "type": "uint256"
        }
      ],
      "name": "getPastVotes",
      "outputs": [
        {
          "internalType": "uint256",
          "name": "",
          "type": "uint256"
        }
      ],
      "stateMutability": "view",
      "type": "function"
    },
    {
      "inputs": [
        {
          "internalType": "address",
          "name": "account",
          "type": "address"
        }
      ],
      "name": "getVotes",
      "outputs": [
        {
          "internalType": "uint256",
          "name": "",
          "type": "uint256"
        }
      ],
      "stateMutability": "view",
      "type": "function"
    },
    {
      "inputs": [
        {
          "internalType": "address",
          "name": "owner",
          "type": "address"
        },
        {
          "internalType": "address",
          "name": "operator",
          "type": "address"
        }
      ],
      "name": "isApprovedForAll",
      "outputs": [
        {
          "internalType": "bool",
          "name": "",
          "type": "bool"
        }
      ],
      "stateMutability": "view",
      "type": "function"
    },
    {
      "inputs": [
        {
          "internalType": "uint256",
          "name": "",
          "type": "uint256"
        },
        {
          "internalType": "uint256",
          "name": "",
          "type": "uint256"
        }
      ],
      "name": "metadataContentOf",
      "outputs": [
        {
          "internalType": "string",
          "name": "",
          "type": "string"
        }
      ],
      "stateMutability": "view",
      "type": "function"
    },
    {
      "inputs": [],
      "name": "name",
      "outputs": [
        {
          "internalType": "string",
          "name": "",
          "type": "string"
        }
      ],
      "stateMutability": "view",
      "type": "function"
    },
    {
      "inputs": [
        {
          "internalType": "address",
          "name": "owner",
          "type": "address"
        }
      ],
      "name": "nonces",
      "outputs": [
        {
          "internalType": "uint256",
          "name": "",
          "type": "uint256"
        }
      ],
      "stateMutability": "view",
      "type": "function"
    },
    {
      "inputs": [],
      "name": "operatorStore",
      "outputs": [
        {
          "internalType": "contract IJBOperatorStore",
          "name": "",
          "type": "address"
        }
      ],
      "stateMutability": "view",
      "type": "function"
    },
    {
      "inputs": [],
      "name": "owner",
      "outputs": [
        {
          "internalType": "address",
          "name": "",
          "type": "address"
        }
      ],
      "stateMutability": "view",
      "type": "function"
    },
    {
      "inputs": [
        {
          "internalType": "uint256",
          "name": "tokenId",
          "type": "uint256"
        }
      ],
      "name": "ownerOf",
      "outputs": [
        {
          "internalType": "address",
          "name": "",
          "type": "address"
        }
      ],
      "stateMutability": "view",
      "type": "function"
    },
    {
      "inputs": [],
      "name": "renounceOwnership",
      "outputs": [],
      "stateMutability": "nonpayable",
      "type": "function"
    },
    {
      "inputs": [
        {
          "internalType": "address",
          "name": "from",
          "type": "address"
        },
        {
          "internalType": "address",
          "name": "to",
          "type": "address"
        },
        {
          "internalType": "uint256",
          "name": "tokenId",
          "type": "uint256"
        }
      ],
      "name": "safeTransferFrom",
      "outputs": [],
      "stateMutability": "nonpayable",
      "type": "function"
    },
    {
      "inputs": [
        {
          "internalType": "address",
          "name": "from",
          "type": "address"
        },
        {
          "internalType": "address",
          "name": "to",
          "type": "address"
        },
        {
          "internalType": "uint256",
          "name": "tokenId",
          "type": "uint256"
        },
        {
          "internalType": "bytes",
          "name": "data",
          "type": "bytes"
        }
      ],
      "name": "safeTransferFrom",
      "outputs": [],
      "stateMutability": "nonpayable",
      "type": "function"
    },
    {
      "inputs": [
        {
          "internalType": "address",
          "name": "operator",
          "type": "address"
        },
        {
          "internalType": "bool",
          "name": "approved",
          "type": "bool"
        }
      ],
      "name": "setApprovalForAll",
      "outputs": [],
      "stateMutability": "nonpayable",
      "type": "function"
    },
    {
      "inputs": [
        {
          "internalType": "uint256",
          "name": "_projectId",
          "type": "uint256"
        },
        {
          "components": [
            {
              "internalType": "string",
              "name": "content",
              "type": "string"
            },
            {
              "internalType": "uint256",
              "name": "domain",
              "type": "uint256"
            }
          ],
          "internalType": "struct JBProjectMetadata",
          "name": "_metadata",
          "type": "tuple"
        }
      ],
      "name": "setMetadataOf",
      "outputs": [],
      "stateMutability": "nonpayable",
      "type": "function"
    },
    {
      "inputs": [
        {
          "internalType": "contract IJBTokenUriResolver",
          "name": "_newResolver",
          "type": "address"
        }
      ],
      "name": "setTokenUriResolver",
      "outputs": [],
      "stateMutability": "nonpayable",
      "type": "function"
    },
    {
      "inputs": [
        {
          "internalType": "bytes4",
          "name": "_interfaceId",
          "type": "bytes4"
        }
      ],
      "name": "supportsInterface",
      "outputs": [
        {
          "internalType": "bool",
          "name": "",
          "type": "bool"
        }
      ],
      "stateMutability": "view",
      "type": "function"
    },
    {
      "inputs": [],
      "name": "symbol",
      "outputs": [
        {
          "internalType": "string",
          "name": "",
          "type": "string"
        }
      ],
      "stateMutability": "view",
      "type": "function"
    },
    {
      "inputs": [
        {
          "internalType": "uint256",
          "name": "_projectId",
          "type": "uint256"
        }
      ],
      "name": "tokenURI",
      "outputs": [
        {
          "internalType": "string",
          "name": "",
          "type": "string"
        }
      ],
      "stateMutability": "view",
      "type": "function"
    },
    {
      "inputs": [],
      "name": "tokenUriResolver",
      "outputs": [
        {
          "internalType": "contract IJBTokenUriResolver",
          "name": "",
          "type": "address"
        }
      ],
      "stateMutability": "view",
      "type": "function"
    },
    {
      "inputs": [
        {
          "internalType": "address",
          "name": "from",
          "type": "address"
        },
        {
          "internalType": "address",
          "name": "to",
          "type": "address"
        },
        {
          "internalType": "uint256",
          "name": "tokenId",
          "type": "uint256"
        }
      ],
      "name": "transferFrom",
      "outputs": [],
      "stateMutability": "nonpayable",
      "type": "function"
    },
    {
      "inputs": [
        {
          "internalType": "address",
          "name": "newOwner",
          "type": "address"
        }
      ],
      "name": "transferOwnership",
      "outputs": [],
      "stateMutability": "nonpayable",
      "type": "function"
    }
  ],
  "bytecode": {
    "object": "0x61016034620004dd57601f6200385d38819003918201601f19168301916001600160401b03831184841017620002e557808492602094604052833981010312620004dd57516001600160a01b0381168103620004dd57604051906200006482620004e2565b60118252704a75696365626f782050726f6a6563747360781b91826020820152604051906200009382620004e2565b60018252603160f81b602083015260405193620000b085620004e2565b60118552602085015260405192620000c884620004e2565b6008845267094aa92868a849eb60c31b602085015260805283516001600160401b038111620002e557600054600181811c91168015620004d2575b6020821014620003d957601f81116200047e575b50602094601f82116001146200040657948192939495600092620003fa575b50508160011b916000199060031b1c1916176000555b82516001600160401b038111620002e557600154600181811c91168015620003ef575b6020821014620003d957601f811162000380575b506020601f8211600114620003075781929394600092620002fb575b50508160011b916000199060031b1c1916176001555b602081519101209060208151910120610100918083526101208281524660c0526040519260208401907f8b73c3c69bb8fe3d512ecc4cf759cc79239f7b179b0ffacaa9a75d522b39400f93848352604086015260608501524660808501523060a085015260a0845260c084019380851060018060401b03861117620002e557604085905251902060a0523060e052610140918252600a8054336001600160a01b0319821681179092556001600160a01b03167f8be0079c531659141344cd1fd0a4f28419497f9722a3daafe3b4186f6b6457e0600080a36000600b5561331e9384620004ff853960805184818161080c015281816108cd015261134d015260a05184612fb7015260c05184613072015260e05184612f88015251836130060152518261302c01525181612fe30152f35b634e487b7160e01b600052604160045260246000fd5b0151905038806200019f565b600160009081526000805160206200383d8339815191529190601f198416905b81811062000367575095836001959697106200034d575b505050811b01600155620001b5565b015160001960f88460031b161c191690553880806200033e565b9192602060018192868b01518155019401920162000327565b60016000526000805160206200383d833981519152601f830160051c81019160208410620003ce575b601f0160051c01905b818110620003c1575062000183565b60008155600101620003b2565b9091508190620003a9565b634e487b7160e01b600052602260045260246000fd5b90607f16906200016f565b01519050388062000136565b6000808052601f198316966000805160206200381d8339815191529290915b88811062000465575083600195969798106200044b575b505050811b016000556200014c565b015160001960f88460031b161c191690553880806200043c565b9192602060018192868501518155019401920162000425565b600080526000805160206200381d833981519152601f830160051c810160208410620004ca575b601f830160051c82018110620004bd57505062000117565b60008155600101620004a5565b5080620004a5565b90607f169062000103565b600080fd5b604081019081106001600160401b03821117620002e55760405256fe6080604052600436101561001257600080fd5b60003560e01c806301ffc9a71461020757806306661abd1461020257806306fdde03146101fd578063081812fc146101f8578063095ea7b3146101f357806323b872dd146101ee5780632407497e146101e95780633644e515146101e457806336574975146101df57806339fbc775146101da5780633a46b1a8146101d557806342842e0e146101d0578063587cde1e146101cb5780635c19a95c146101c65780636352211e146101c1578063666d87a0146101bc57806370a08231146101b7578063715018a6146101b25780637ecebe00146101ad5780638da5cb5b146101a85780638e539e8c146101a357806395d89b411461019e5780639ab24eb014610199578063a22cb46514610194578063ad007d631461018f578063b88d4fde1461018a578063c3cda52014610185578063c87b56dd14610180578063e131fc0c1461017b578063e985e9c5146101765763f2fde38b1461017157600080fd5b611639565b6115cf565b6115a8565b611575565b61143e565b6113ad565b61132d565b61123c565b6111e4565b61113f565b610fed565b610fc6565b610f88565b610f1f565b610ef8565b610ca2565b610c84565b610c5e565b610c1e565b610bf6565b610a9d565b6109d5565b610720565b6106ef565b610676565b61064d565b61050e565b6104ce565b6103eb565b610371565b61023b565b7fffffffff0000000000000000000000000000000000000000000000000000000081160361023657565b600080fd5b346102365760206003193601126102365760207fffffffff0000000000000000000000000000000000000000000000000000000060043561027b8161020c565b167faa91a66f000000000000000000000000000000000000000000000000000000008114908115610347575b81156102b9575b506040519015158152f35b7f80ac58cd0000000000000000000000000000000000000000000000000000000081149150811561031d575b81156102f3575b50386102ae565b7f01ffc9a700000000000000000000000000000000000000000000000000000000915014386102ec565b7f5b5e139f00000000000000000000000000000000000000000000000000000000811491506102e5565b7fad007d6300000000000000000000000000000000000000000000000000000000811491506102a7565b34610236576000600319360112610236576020600b54604051908152f35b60005b8381106103a25750506000910152565b8181015183820152602001610392565b90601f19601f6020936103d08151809281875287808801910161038f565b0116010190565b9060206103e89281815201906103b2565b90565b34610236576000806003193601126104cb576040519080805461040d81610925565b808552916001918083169081156104a15750600114610447575b61044385610437818703826109b2565b604051918291826103d7565b0390f35b80809450527f290decd9548b62a8d60345a988386fc84ba6bc95484008f6362f93160ef3e5635b82841061048957505050810160200161043782610443610427565b8054602085870181019190915290930192810161046e565b8695506104439693506020925061043794915060ff191682840152151560051b8201019293610427565b80fd5b346102365760206003193601126102365760206104ec6004356120b8565b6001600160a01b0360405191168152f35b6001600160a01b0381160361023657565b346102365760406003193601126102365760043561052b816104fd565b60243561053781612025565b916001600160a01b0380841680918316146105b7576105699361056491331490811561056b575b50612047565b6124bb565b005b6105b191506105aa9061059233916001600160a01b03166000526005602052604060002090565b906001600160a01b0316600052602052604060002090565b5460ff1690565b3861055e565b608460405162461bcd60e51b815260206004820152602160248201527f4552433732313a20617070726f76616c20746f2063757272656e74206f776e6560448201527f72000000000000000000000000000000000000000000000000000000000000006064820152fd5b600319606091011261023657600435610639816104fd565b90602435610646816104fd565b9060443590565b346102365761056961065e36610621565b9161067161066c8433612204565b6120fa565b612341565b34610236576020600319360112610236576001600160a01b0360043561069b816104fd565b6106a3611b6a565b168073ffffffffffffffffffffffffffffffffffffffff19600d541617600d557fe7784d93cfbfa4408e19577e6cc0436f4dbb51214b70e100905dfce9def88c166020604051338152a2005b3461023657600060031936011261023657602061070a612f7e565b604051908152f35b908160409103126102365790565b346102365760406003193601126102365760043560243567ffffffffffffffff811161023657610754903690600401610712565b61075d82612025565b6001600160a01b03908181163314159182610879575b826107b2575b50506107885761056991611a02565b60046040517f075fd2b1000000000000000000000000000000000000000000000000000000008152fd5b6040517fc161c93f0000000000000000000000000000000000000000000000000000000081523360048201526001600160a01b039290921660248301526000604483015260066064830152909150602090829060849082907f0000000000000000000000000000000000000000000000000000000000000000165afa90811561087457600091610846575b50153880610779565b610867915060203d811161086d575b61085f81836109b2565b810190611b55565b3861083d565b503d610855565b611722565b6040517fc161c93f0000000000000000000000000000000000000000000000000000000081523360048201526001600160a01b038316602482015260448101869052600660648201529092506020816084817f000000000000000000000000000000000000000000000000000000000000000087165afa90811561087457600091610907575b501591610773565b61091f915060203d811161086d5761085f81836109b2565b386108ff565b90600182811c92168015610955575b602083101461093f57565b634e487b7160e01b600052602260045260246000fd5b91607f1691610934565b634e487b7160e01b600052604160045260246000fd5b6020810190811067ffffffffffffffff82111761099157604052565b61095f565b60c0810190811067ffffffffffffffff82111761099157604052565b90601f601f19910116810190811067ffffffffffffffff82111761099157604052565b3461023657604060031936011261023657600060043581526020600c8152604082206024358352815260408220906040519183815490610a1482610925565b80865292600192808416908115610a795750600114610a3e575b61044386610437818a03826109b2565b9080949650528483205b828410610a6657505050816104439361043792820101933880610a2e565b8054858501870152928501928101610a48565b60ff19168787015250505050151560051b8201019150610437816104433880610a2e565b3461023657604060031936011261023657600435610aba816104fd565b6001600160a01b036024359116600052600760205260406000209043811015610bb257610ae9610b009161326d565b8254906000908260058111610b49575b5084612d2b565b9081610b1e575050602060005b6001600160e01b0360405191168152f35b610b3d610b4491610b30602094611f34565b9060005260206000200190565b5460201c90565b610b0d565b80610b59610b5f9295939561311b565b90611f43565b90610b8a610b81610b77848960005260206000200190565b5463ffffffff1690565b63ffffffff1690565b63ffffffff85161015610ba05750915b38610af9565b929150610bac90611f26565b90610b9a565b606460405162461bcd60e51b815260206004820152602060248201527f436865636b706f696e74733a20626c6f636b206e6f7420796574206d696e65646044820152fd5b3461023657610569610c0736610621565b9060405192610c1584610975565b6000845261216b565b34610236576020600319360112610236576020600435610c3d816104fd565b6001600160a01b038091166000526006825260406000205416604051908152f35b3461023657602060031936011261023657610569600435610c7e816104fd565b33611c0d565b346102365760206003193601126102365760206104ec600435612025565b3461023657604060031936011261023657600435610cbf816104fd565b60243567ffffffffffffffff811161023657610cdf903690600401610712565b600b546000198114610ef3576001019081600b5560405190610d0082610975565b600082526001600160a01b038416918215610eaf57610e5a8492610e3b610e367fa1c6fd563bcbc3222f6031d7c26ff58cd6c701abff0bfffe652d055ce40629d494866104439a610d76610d71610d6d8460005260026020526001600160a01b0360406000205416151590565b1590565b612285565b610d9c610d71610d6d8460005260026020526001600160a01b0360406000205416151590565b610db9816001600160a01b03166000526003602052604060002090565b60018154019055610e0081610dd8846000526002602052604060002090565b906001600160a01b031673ffffffffffffffffffffffffffffffffffffffff19825416179055565b818a60007fddf252ad1be2c89b69c2b068fc378daa952ba7f163c4a11628f55a4df523b3ef8180a4610e3181612773565b6125d2565b612192565b610e458180611835565b9050610e6d575b604051918291339083611983565b0390a36040519081529081906020820190565b610eaa610e7a8280611835565b90610ea5610e9288600052600c602052604060002090565b6020860135600052602052604060002090565b6118bc565b610e4c565b606460405162461bcd60e51b815260206004820152602060248201527f4552433732313a206d696e7420746f20746865207a65726f20616464726573736044820152fd5b61181f565b3461023657602060031936011261023657602061070a600435610f1a816104fd565b611f50565b34610236576000806003193601126104cb57610f39611b6a565b806001600160a01b03600a5473ffffffffffffffffffffffffffffffffffffffff198116600a55167f8be0079c531659141344cd1fd0a4f28419497f9722a3daafe3b4186f6b6457e08280a380f35b34610236576020600319360112610236576001600160a01b03600435610fad816104fd565b1660005260096020526020604060002054604051908152f35b346102365760006003193601126102365760206001600160a01b03600a5416604051908152f35b3461023657602060031936011261023657600435438110156110fb5761101561102c9161326d565b60085490600090826005811161108f575b50612cb2565b8061104957506001600160e01b0360005b60405191168152602090f35b61108a610b3d6110606001600160e01b0393611f34565b60086000527ff3f7a9fe364faab93b216da50a3214154f22a0a2b415b23a84c8169e8b636ee30190565b61103d565b80610b5961109f9295939561311b565b6008600052906110d3610b817ff3f7a9fe364faab93b216da50a3214154f22a0a2b415b23a84c8169e8b636ee38401610b77565b63ffffffff851610156110e95750915b38611026565b9291506110f590611f26565b906110e3565b606460405162461bcd60e51b815260206004820152601a60248201527f566f7465733a20626c6f636b206e6f7420796574206d696e65640000000000006044820152fd5b34610236576000806003193601126104cb576040519080600180549161116483610925565b808652928281169081156104a1575060011461118a5761044385610437818703826109b2565b92508083527fb10e2d527612073b26eecdfd717e6a320cf44b4afac2b0732d9fcbe2b7fa0cf65b8284106111cc57505050810160200161043782610443610427565b805460208587018101919091529093019281016111b1565b34610236576020600319360112610236576001600160a01b03600435611209816104fd565b16600052600760205260206001600160e01b03611229604060002061295c565b16604051908152f35b8015150361023657565b3461023657604060031936011261023657600435611259816104fd565b60243561126581611232565b6001600160a01b038216918233146112e957816112a56112b7923360005260056020526040600020906001600160a01b0316600052602052604060002090565b9060ff60ff1983541691151516179055565b604051901515815233907f17307eab39ab6107e8899845ad3d59bd9653f200f220920489ca2b5937696c3190602090a3005b606460405162461bcd60e51b815260206004820152601960248201527f4552433732313a20617070726f766520746f2063616c6c6572000000000000006044820152fd5b346102365760006003193601126102365760206040516001600160a01b037f0000000000000000000000000000000000000000000000000000000000000000168152f35b604051906040820182811067ffffffffffffffff82111761099157604052565b67ffffffffffffffff811161099157601f01601f191660200190565b34610236576080600319360112610236576004356113ca816104fd565b6024356113d6816104fd565b6064359167ffffffffffffffff831161023657366023840112156102365782600401359161140383611391565b9261141160405194856109b2565b8084523660248287010111610236576020816000926024610569980183880137850101526044359161216b565b346102365760c06003193601126102365760043561145b816104fd565b6064359060243560443560ff8416840361023657804211611531576114ff61152c9161056995604051906114e7826114d96020820195898b886060919493926001600160a01b0360808301967fe48329057bfd03d55e49b547132e39cffd9c1820ad7b9d4c5307691425d15adf845216602083015260408201520152565b03601f1981018452836109b2565b6114fa60a4359360843593519020613098565b612d8a565b91611526836001600160a01b03166000526009602052604060002090815491600183019055565b14611bc2565b611c0d565b606460405162461bcd60e51b815260206004820152601860248201527f566f7465733a207369676e6174757265206578706972656400000000000000006044820152fd5b346102365760206003193601126102365761044361159460043561172e565b6040519182916020835260208301906103b2565b346102365760006003193601126102365760206001600160a01b03600d5416604051908152f35b3461023657604060031936011261023657602060ff61162d6004356115f3816104fd565b6001600160a01b0360243591611608836104fd565b16600052600584526040600020906001600160a01b0316600052602052604060002090565b54166040519015158152f35b3461023657602060031936011261023657600435611656816104fd565b61165e611b6a565b6001600160a01b038091169081156116b857600a548273ffffffffffffffffffffffffffffffffffffffff19821617600a55167f8be0079c531659141344cd1fd0a4f28419497f9722a3daafe3b4186f6b6457e0600080a3005b608460405162461bcd60e51b815260206004820152602660248201527f4f776e61626c653a206e6577206f776e657220697320746865207a65726f206160448201527f64647265737300000000000000000000000000000000000000000000000000006064820152fd5b6040513d6000823e3d90fd5b6001600160a01b03600d541690811561180a576040519182917fda0544aa000000000000000000000000000000000000000000000000000000008352600483015281602460009485935afa91821561087457809261178b57505090565b9091503d8082843e61179d81846109b2565b8201916020818403126118025780519067ffffffffffffffff8211611806570182601f82011215611802578051916117d483611391565b936117e260405195866109b2565b838552602084840101116104cb5750906103e8916020808501910161038f565b5080fd5b8280fd5b505060405161181881610975565b6000815290565b634e487b7160e01b600052601160045260246000fd5b903590601e1981360301821215610236570180359067ffffffffffffffff82116102365760200191813603831361023657565b90601f811161187657505050565b600091825260208220906020601f850160051c830194106118b2575b601f0160051c01915b8281106118a757505050565b81815560010161189b565b9092508290611892565b90929167ffffffffffffffff8111610991576118e2816118dc8454610925565b84611868565b6000601f821160011461191b5781929394600092611910575b50506000198260011b9260031b1c1916179055565b0135905038806118fb565b601f1982169461193084600052602060002090565b91805b87811061196b575083600195969710611951575b505050811b019055565b60001960f88560031b161c19910135169055388080611947565b90926020600181928686013581550194019101611933565b9291604084528135601e1983360301811215610236578201916020833593019267ffffffffffffffff811161023657803603841361023657601f19601f826020809582611a009960a09760808e6040808201520152878d0137600086848d010152013560608a015201168601019401906001600160a01b03169052565b565b90611a0d8180611835565b600091848352602090600c8252604084208286013585528252604084209367ffffffffffffffff841161099157611a4e84611a488754610925565b87611868565b8092601f8511600114611abe575092611aae949281927fd07720acb527321c9d1766f359139d0e0e3551bd99fb3ca353d4f008f3aad8e6979592611ab3575b50506000198260011b9260031b1c1916179055604051918291339083611983565b0390a2565b013590503880611a8d565b601f19859492941690611ad687600052602060002090565b94905b828210611b3d5750509260019285927fd07720acb527321c9d1766f359139d0e0e3551bd99fb3ca353d4f008f3aad8e69896611aae989610611b23575b505050811b019055610e4c565b60001960f88560031b161c19910135169055388080611b16565b80600185978294968801358155019601930190611ad9565b9081602091031261023657516103e881611232565b6001600160a01b03600a54163303611b7e57565b606460405162461bcd60e51b815260206004820152602060248201527f4f776e61626c653a2063616c6c6572206973206e6f7420746865206f776e65726044820152fd5b15611bc957565b606460405162461bcd60e51b815260206004820152601460248201527f566f7465733a20696e76616c6964206e6f6e63650000000000000000000000006044820152fd5b816001600160a01b03611c8d8184169360009480865260066020526040862093611c5f81865416988996906001600160a01b031673ffffffffffffffffffffffffffffffffffffffff19825416179055565b85169687917f3134e8a2e6d97e929a7e54011ea5485d7d196dd5f0ba4d4ef95803e8e3fc257f8880a4611f50565b928482141580611e12575b611ca4575b5050505050565b81611d19575b505082611cb9575b8080611c9d565b7fdec2bacdd2f05b59de34da9b523dff8be42e5e38e818c82fdb0bae774387a72491611cfb611d00926001600160a01b03166000526007602052604060002090565b612885565b60408051928352602083019190915290a2388080611cb2565b8082604092526007602052206001600160e01b0380611d378361295c565b16858103908111610ef357611d4b4361326d565b90828111611da8577fdec2bacdd2f05b59de34da9b523dff8be42e5e38e818c82fdb0bae774387a72493611d9e9284611d85931691612bd9565b6040805192851683529316602082015291829190820190565b0390a23880611caa565b608460405162461bcd60e51b815260206004820152602760248201527f53616665436173743a2076616c756520646f65736e27742066697420696e203260448201527f32342062697473000000000000000000000000000000000000000000000000006064820152fd5b50831515611c98565b906001600160a01b0380821692168281141580611f1e575b611e3c57505050565b80611ea5575b5081611e4c575050565b611e92611e8d7fdec2bacdd2f05b59de34da9b523dff8be42e5e38e818c82fdb0bae774387a724926001600160a01b03166000526007602052604060002090565b61283f565b60408051928352602083019190915290a2565b80600052600760205260406000206001600160e01b0380611ec58361295c565b166000198101908111610ef357611edb4361326d565b90828111611da8577fdec2bacdd2f05b59de34da9b523dff8be42e5e38e818c82fdb0bae774387a72493611f159284611d85931691612bd9565b0390a238611e42565b506001611e33565b9060018201809211610ef357565b906000198201918211610ef357565b91908203918211610ef357565b6001600160a01b03168015611f7057600052600360205260406000205490565b608460405162461bcd60e51b815260206004820152602960248201527f4552433732313a2061646472657373207a65726f206973206e6f74206120766160448201527f6c6964206f776e657200000000000000000000000000000000000000000000006064820152fd5b15611fe157565b606460405162461bcd60e51b815260206004820152601860248201527f4552433732313a20696e76616c696420746f6b656e20494400000000000000006044820152fd5b60005260026020526001600160a01b03604060002054166103e8811515611fda565b1561204e57565b608460405162461bcd60e51b815260206004820152603d60248201527f4552433732313a20617070726f76652063616c6c6572206973206e6f7420746f60448201527f6b656e206f776e6572206f7220617070726f76656420666f7220616c6c0000006064820152fd5b6120e06120db8260005260026020526001600160a01b0360406000205416151590565b611fda565b60005260046020526001600160a01b036040600020541690565b1561210157565b608460405162461bcd60e51b815260206004820152602d60248201527f4552433732313a2063616c6c6572206973206e6f7420746f6b656e206f776e6560448201527f72206f7220617070726f766564000000000000000000000000000000000000006064820152fd5b91611a009391610e369361218261066c8433612204565b61218d838383612341565b612716565b1561219957565b60405162461bcd60e51b815260206004820152603260248201527f4552433732313a207472616e7366657220746f206e6f6e20455243373231526560448201527f63656976657220696d706c656d656e74657200000000000000000000000000006064820152608490fd5b6001600160a01b038061221684612025565b16928183169284841494851561224c575b50508315612236575b50505090565b612242919293506120b8565b1614388080612230565b60ff9295509061227b9160005260056020526040600020906001600160a01b0316600052602052604060002090565b5416923880612227565b1561228c57565b606460405162461bcd60e51b815260206004820152601c60248201527f4552433732313a20746f6b656e20616c7265616479206d696e746564000000006044820152fd5b156122d757565b608460405162461bcd60e51b815260206004820152602560248201527f4552433732313a207472616e736665722066726f6d20696e636f72726563742060448201527f6f776e65720000000000000000000000000000000000000000000000000000006064820152fd5b6123659261234e81612025565b6001600160a01b03838116959091821686146122d0565b831680156124525784612393611a009661238d61238186612025565b6001600160a01b031690565b146122d0565b6123c76123aa846000526004602052604060002090565b73ffffffffffffffffffffffffffffffffffffffff198154169055565b6123e4846001600160a01b03166000526003602052604060002090565b6000198154019055612409856001600160a01b03166000526003602052604060002090565b6001815401905561242885610dd8856000526002602052604060002090565b7fddf252ad1be2c89b69c2b068fc378daa952ba7f163c4a11628f55a4df523b3ef600080a46127de565b608460405162461bcd60e51b8152602060048201526024808201527f4552433732313a207472616e7366657220746f20746865207a65726f2061646460448201527f72657373000000000000000000000000000000000000000000000000000000006064820152fd5b8160005260046020526124f5816040600020906001600160a01b031673ffffffffffffffffffffffffffffffffffffffff19825416179055565b6001600160a01b038061250784612025565b169116907f8c5be1e5ebec7d5bd14f71427d1e84f3dd0314c0f7b2291e5b200ac8c7c3b925600080a4565b9081602091031261023657516103e88161020c565b6103e893926001600160a01b0360809316825260006020830152604082015281606082015201906103b2565b90926103e894936080936001600160a01b038092168452166020830152604082015281606082015201906103b2565b3d156125cd573d906125b382611391565b916125c160405193846109b2565b82523d6000602084013e565b606090565b909190803b1561270e576126256020916001600160a01b039360006040519586809581947f150b7a02000000000000000000000000000000000000000000000000000000009a8b84523360048501612547565b0393165af1600091816126de575b506126b8576126406125a2565b805190816126b35760405162461bcd60e51b815260206004820152603260248201527f4552433732313a207472616e7366657220746f206e6f6e20455243373231526560448201527f63656976657220696d706c656d656e74657200000000000000000000000000006064820152608490fd5b602001fd5b7fffffffff00000000000000000000000000000000000000000000000000000000161490565b61270091925060203d8111612707575b6126f881836109b2565b810190612532565b9038612633565b503d6126ee565b505050600190565b92909190823b1561276a576126259260209260006001600160a01b036040518097819682957f150b7a02000000000000000000000000000000000000000000000000000000009b8c85523360048601612573565b50505050600190565b611a009061277f6128ad565b50506001600160a01b038091169081156127cf575b60066020527f54cdd369e4e8a8515e52ca72ec816c2101831ad1f18bf44102ed171459c9b4f854600092835260409092205481169116611e1b565b6127d76128ea565b5050612794565b90611a00916001600160a01b0380809216928315612830575b16918215612821575b60005260066020528060406000205416916000526040600020541690611e1b565b6128296128ea565b5050612800565b6128386128ad565b50506127f7565b906001600160e01b0391826128538261295c565b1660018101809111610ef3576128684361326d565b91848211611da85784928361287e931691612bd9565b9316921690565b6001600160e01b039291836128998361295c565b16908101809111610ef3576128684361326d565b6001600160e01b0390816128bf612912565b1660018101809111610ef3576128d44361326d565b90838111611da85783918261287e921690612ad9565b6001600160e01b0390816128fc612912565b166000198101908111610ef3576128d44361326d565b60085460009080612924575050600090565b80600019810111610ef35760087ff3f7a9fe364faab93b216da50a3214154f22a0a2b415b23a84c8169e8b636ee29252015460201c90565b80546000918161296e57505050600090565b600019928284810111610ef35760209181522001015460201c90565b60085490680100000000000000008210156109915760018201806008558210156129f6576008600052805160209182015190911b63ffffffff191663ffffffff91909116177ff3f7a9fe364faab93b216da50a3214154f22a0a2b415b23a84c8169e8b636ee390910155565b634e487b7160e01b600052603260045260246000fd5b9081546801000000000000000081101561099157600181018084558110156129f657600092835260209283902082519284015190931b63ffffffff191663ffffffff9290921691909117910155565b906040516040810181811067ffffffffffffffff82111761099157604052602081935463ffffffff81168352811c910152565b15612a9557565b606460405162461bcd60e51b815260206004820152601760248201527f436865636b706f696e743a20696e76616c6964206b65790000000000000000006044820152fd5b6008549192918015612baf57612b75918185612b01612afc611060602096611f34565b612a5b565b92612b10845163ffffffff1690565b612b2763ffffffff91828416928391161115612a8e565b612b38610b81865163ffffffff1690565b03612b795750612b4d611060612b6793611f34565b9063ffffffff63ffffffff1983549260201b169116179055565b01516001600160e01b031690565b9190565b9050612baa9150612b97612b8b611371565b63ffffffff9092168252565b6001600160e01b0387168185015261298a565b612b67565b50612bd390612bbf612b8b611371565b6001600160e01b038416602082015261298a565b60009190565b90929192838254801515600014612c8d57926020929184612c0f612afc612c02612b7598611f34565b8560005260206000200190565b93612c1e855163ffffffff1690565b612c3563ffffffff91828416928391161115612a8e565b612c46610b81875163ffffffff1690565b03612c5c5750612b6792610b30612b4d92611f34565b915050612baa91612c7a612c6e611371565b63ffffffff9093168352565b6001600160e01b03881682860152612a0c565b5050612bd391612c9e612c6e611371565b6001600160e01b0385166020830152612a0c565b905b828110612cc057505090565b90918082169080831860011c8201809211610ef357600860005263ffffffff80837ff3f7a9fe364faab93b216da50a3214154f22a0a2b415b23a84c8169e8b636ee301541690851610600014612d195750915b90612cb4565b929150612d2590611f26565b90612d13565b91905b838210612d3b5750505090565b9091928083169080841860011c8201809211610ef35760008581526020902082015463ffffffff9081169084161015612d785750925b9190612d2e565b939250612d8490611f26565b91612d71565b916103e89391612d9993612efc565b919091612dc1565b60051115612dab57565b634e487b7160e01b600052602160045260246000fd5b612dca81612da1565b80612dd25750565b612ddb81612da1565b60018103612e285760405162461bcd60e51b815260206004820152601860248201527f45434453413a20696e76616c6964207369676e617475726500000000000000006044820152606490fd5b612e3181612da1565b60028103612e7e5760405162461bcd60e51b815260206004820152601f60248201527f45434453413a20696e76616c6964207369676e6174757265206c656e677468006044820152606490fd5b80612e8a600392612da1565b14612e9157565b60405162461bcd60e51b815260206004820152602260248201527f45434453413a20696e76616c6964207369676e6174757265202773272076616c60448201527f75650000000000000000000000000000000000000000000000000000000000006064820152608490fd5b9291907f7fffffffffffffffffffffffffffffff5d576e7357a4501ddfe92f46681b20a08311612f725791608094939160ff602094604051948552168484015260408301526060820152600093849182805260015afa156108745781516001600160a01b03811615612f6c579190565b50600190565b50505050600090600390565b6001600160a01b037f00000000000000000000000000000000000000000000000000000000000000001630148061306f575b15612fd9577f000000000000000000000000000000000000000000000000000000000000000090565b60405160208101907f000000000000000000000000000000000000000000000000000000000000000082527f000000000000000000000000000000000000000000000000000000000000000060408201527f000000000000000000000000000000000000000000000000000000000000000060608201524660808201523060a082015260a0815261306981610996565b51902090565b507f00000000000000000000000000000000000000000000000000000000000000004614612fb0565b6130a0612f7e565b906040519060208201927f1901000000000000000000000000000000000000000000000000000000000000845260228301526042820152604281526080810181811067ffffffffffffffff8211176109915760405251902090565b8115613105570490565b634e487b7160e01b600052601260045260246000fd5b801561325557806131ee6131e76131dd6131d36131c96131bf6131b56131ab60016103e89a6000908b60801c80613249575b508060401c8061323c575b508060201c8061322f575b508060101c80613222575b508060081c80613215575b508060041c80613208575b508060021c806131fb575b50821c6131f4575b811c1b6131a4818b6130fb565b0160011c90565b6131a4818a6130fb565b6131a481896130fb565b6131a481886130fb565b6131a481876130fb565b6131a481866130fb565b6131a481856130fb565b80926130fb565b9061325b565b8101613197565b600291509101903861318f565b6004915091019038613184565b6008915091019038613179565b601091509101903861316e565b6020915091019038613163565b6040915091019038613158565b9150506080903861314d565b50600090565b9080821015613268575090565b905090565b63ffffffff9081811161327e571690565b608460405162461bcd60e51b815260206004820152602660248201527f53616665436173743a2076616c756520646f65736e27742066697420696e203360448201527f32206269747300000000000000000000000000000000000000000000000000006064820152fdfea2646970667358221220b8fa85d98ffe1da4c28f8649aa16aaed3cb88c82b2dc80f90bca176f483d352464736f6c63430008140033290decd9548b62a8d60345a988386fc84ba6bc95484008f6362f93160ef3e563b10e2d527612073b26eecdfd717e6a320cf44b4afac2b0732d9fcbe2b7fa0cf6",
    "linkReferences": {}
  },
  "methodIdentifiers": {
    "DOMAIN_SEPARATOR()": "3644e515",
    "approve(address,uint256)": "095ea7b3",
    "balanceOf(address)": "70a08231",
    "count()": "06661abd",
    "createFor(address,(string,uint256))": "666d87a0",
    "delegate(address)": "5c19a95c",
    "delegateBySig(address,uint256,uint256,uint8,bytes32,bytes32)": "c3cda520",
    "delegates(address)": "587cde1e",
    "getApproved(uint256)": "081812fc",
    "getPastTotalSupply(uint256)": "8e539e8c",
    "getPastVotes(address,uint256)": "3a46b1a8",
    "getVotes(address)": "9ab24eb0",
    "isApprovedForAll(address,address)": "e985e9c5",
    "metadataContentOf(uint256,uint256)": "39fbc775",
    "name()": "06fdde03",
    "nonces(address)": "7ecebe00",
    "operatorStore()": "ad007d63",
    "owner()": "8da5cb5b",
    "ownerOf(uint256)": "6352211e",
    "renounceOwnership()": "715018a6",
    "safeTransferFrom(address,address,uint256)": "42842e0e",
    "safeTransferFrom(address,address,uint256,bytes)": "b88d4fde",
    "setApprovalForAll(address,bool)": "a22cb465",
    "setMetadataOf(uint256,(string,uint256))": "36574975",
    "setTokenUriResolver(address)": "2407497e",
    "supportsInterface(bytes4)": "01ffc9a7",
    "symbol()": "95d89b41",
    "tokenURI(uint256)": "c87b56dd",
    "tokenUriResolver()": "e131fc0c",
    "transferFrom(address,address,uint256)": "23b872dd",
    "transferOwnership(address)": "f2fde38b"
  },
  "id": 76
}