{
  "abi": [
    {
      "inputs": [
        {
          "internalType": "contract IJBOperatorStore",
          "name": "_operatorStore",
          "type": "address"
        },
        {
          "internalType": "contract IJBProjects",
          "name": "_projects",
          "type": "address"
        },
        {
          "internalType": "contract IJBFundingCycleStore",
          "name": "_fundingCycleStore",
          "type": "address"
        },
        {
          "internalType": "address",
          "name": "_owner",
          "type": "address"
        }
      ],
      "stateMutability": "nonpayable",
      "type": "constructor"
    },
    {
      "inputs": [],
      "name": "DUPLICATE_TERMINALS",
      "type": "error"
    },
    {
      "inputs": [],
      "name": "INVALID_PROJECT_ID_IN_DIRECTORY",
      "type": "error"
    },
    {
      "inputs": [],
      "name": "SET_CONTROLLER_NOT_ALLOWED",
      "type": "error"
    },
    {
      "inputs": [],
      "name": "SET_TERMINALS_NOT_ALLOWED",
      "type": "error"
    },
    {
      "inputs": [],
      "name": "TOKEN_NOT_ACCEPTED",
      "type": "error"
    },
    {
      "inputs": [],
      "name": "UNAUTHORIZED",
      "type": "error"
    },
    {
      "anonymous": false,
      "inputs": [
        {
          "indexed": true,
          "internalType": "uint256",
          "name": "projectId",
          "type": "uint256"
        },
        {
          "indexed": true,
          "internalType": "contract IJBPaymentTerminal",
          "name": "terminal",
          "type": "address"
        },
        {
          "indexed": false,
          "internalType": "address",
          "name": "caller",
          "type": "address"
        }
      ],
      "name": "AddTerminal",
      "type": "event"
    },
    {
      "anonymous": false,
      "inputs": [
        {
          "indexed": true,
          "internalType": "address",
          "name": "previousOwner",
          "type": "address"
        },
        {
          "indexed": true,
          "internalType": "address",
          "name": "newOwner",
          "type": "address"
        }
      ],
      "name": "OwnershipTransferred",
      "type": "event"
    },
    {
      "anonymous": false,
      "inputs": [
        {
          "indexed": true,
          "internalType": "uint256",
          "name": "projectId",
          "type": "uint256"
        },
        {
          "indexed": true,
          "internalType": "address",
          "name": "controller",
          "type": "address"
        },
        {
          "indexed": false,
          "internalType": "address",
          "name": "caller",
          "type": "address"
        }
      ],
      "name": "SetController",
      "type": "event"
    },
    {
      "anonymous": false,
      "inputs": [
        {
          "indexed": true,
          "internalType": "address",
          "name": "addr",
          "type": "address"
        },
        {
          "indexed": true,
          "internalType": "bool",
          "name": "flag",
          "type": "bool"
        },
        {
          "indexed": false,
          "internalType": "address",
          "name": "caller",
          "type": "address"
        }
      ],
      "name": "SetIsAllowedToSetFirstController",
      "type": "event"
    },
    {
      "anonymous": false,
      "inputs": [
        {
          "indexed": true,
          "internalType": "uint256",
          "name": "projectId",
          "type": "uint256"
        },
        {
          "indexed": true,
          "internalType": "address",
          "name": "token",
          "type": "address"
        },
        {
          "indexed": true,
          "internalType": "contract IJBPaymentTerminal",
          "name": "terminal",
          "type": "address"
        },
        {
          "indexed": false,
          "internalType": "address",
          "name": "caller",
          "type": "address"
        }
      ],
      "name": "SetPrimaryTerminal",
      "type": "event"
    },
    {
      "anonymous": false,
      "inputs": [
        {
          "indexed": true,
          "internalType": "uint256",
          "name": "projectId",
          "type": "uint256"
        },
        {
          "indexed": false,
          "internalType": "contract IJBPaymentTerminal[]",
          "name": "terminals",
          "type": "address[]"
        },
        {
          "indexed": false,
          "internalType": "address",
          "name": "caller",
          "type": "address"
        }
      ],
      "name": "SetTerminals",
      "type": "event"
    },
    {
      "inputs": [
        {
          "internalType": "uint256",
          "name": "",
          "type": "uint256"
        }
      ],
      "name": "controllerOf",
      "outputs": [
        {
          "internalType": "address",
          "name": "",
          "type": "address"
        }
      ],
      "stateMutability": "view",
      "type": "function"
    },
    {
      "inputs": [],
      "name": "fundingCycleStore",
      "outputs": [
        {
          "internalType": "contract IJBFundingCycleStore",
          "name": "",
          "type": "address"
        }
      ],
      "stateMutability": "view",
      "type": "function"
    },
    {
      "inputs": [
        {
          "internalType": "address",
          "name": "",
          "type": "address"
        }
      ],
      "name": "isAllowedToSetFirstController",
      "outputs": [
        {
          "internalType": "bool",
          "name": "",
          "type": "bool"
        }
      ],
      "stateMutability": "view",
      "type": "function"
    },
    {
      "inputs": [
        {
          "internalType": "uint256",
          "name": "_projectId",
          "type": "uint256"
        },
        {
          "internalType": "contract IJBPaymentTerminal",
          "name": "_terminal",
          "type": "address"
        }
      ],
      "name": "isTerminalOf",
      "outputs": [
        {
          "internalType": "bool",
          "name": "",
          "type": "bool"
        }
      ],
      "stateMutability": "view",
      "type": "function"
    },
    {
      "inputs": [],
      "name": "operatorStore",
      "outputs": [
        {
          "internalType": "contract IJBOperatorStore",
          "name": "",
          "type": "address"
        }
      ],
      "stateMutability": "view",
      "type": "function"
    },
    {
      "inputs": [],
      "name": "owner",
      "outputs": [
        {
          "internalType": "address",
          "name": "",
          "type": "address"
        }
      ],
      "stateMutability": "view",
      "type": "function"
    },
    {
      "inputs": [
        {
          "internalType": "uint256",
          "name": "_projectId",
          "type": "uint256"
        },
        {
          "internalType": "address",
          "name": "_token",
          "type": "address"
        }
      ],
      "name": "primaryTerminalOf",
      "outputs": [
        {
          "internalType": "contract IJBPaymentTerminal",
          "name": "",
          "type": "address"
        }
      ],
      "stateMutability": "view",
      "type": "function"
    },
    {
      "inputs": [],
      "name": "projects",
      "outputs": [
        {
          "internalType": "contract IJBProjects",
          "name": "",
          "type": "address"
        }
      ],
      "stateMutability": "view",
      "type": "function"
    },
    {
      "inputs": [],
      "name": "renounceOwnership",
      "outputs": [],
      "stateMutability": "nonpayable",
      "type": "function"
    },
    {
      "inputs": [
        {
          "internalType": "uint256",
          "name": "_projectId",
          "type": "uint256"
        },
        {
          "internalType": "address",
          "name": "_controller",
          "type": "address"
        }
      ],
      "name": "setControllerOf",
      "outputs": [],
      "stateMutability": "nonpayable",
      "type": "function"
    },
    {
      "inputs": [
        {
          "internalType": "address",
          "name": "_address",
          "type": "address"
        },
        {
          "internalType": "bool",
          "name": "_flag",
          "type": "bool"
        }
      ],
      "name": "setIsAllowedToSetFirstController",
      "outputs": [],
      "stateMutability": "nonpayable",
      "type": "function"
    },
    {
      "inputs": [
        {
          "internalType": "uint256",
          "name": "_projectId",
          "type": "uint256"
        },
        {
          "internalType": "address",
          "name": "_token",
          "type": "address"
        },
        {
          "internalType": "contract IJBPaymentTerminal",
          "name": "_terminal",
          "type": "address"
        }
      ],
      "name": "setPrimaryTerminalOf",
      "outputs": [],
      "stateMutability": "nonpayable",
      "type": "function"
    },
    {
      "inputs": [
        {
          "internalType": "uint256",
          "name": "_projectId",
          "type": "uint256"
        },
        {
          "internalType": "contract IJBPaymentTerminal[]",
          "name": "_terminals",
          "type": "address[]"
        }
      ],
      "name": "setTerminalsOf",
      "outputs": [],
      "stateMutability": "nonpayable",
      "type": "function"
    },
    {
      "inputs": [
        {
          "internalType": "uint256",
          "name": "_projectId",
          "type": "uint256"
        }
      ],
      "name": "terminalsOf",
      "outputs": [
        {
          "internalType": "contract IJBPaymentTerminal[]",
          "name": "",
          "type": "address[]"
        }
      ],
      "stateMutability": "view",
      "type": "function"
    },
    {
      "inputs": [
        {
          "internalType": "address",
          "name": "newOwner",
          "type": "address"
        }
      ],
      "name": "transferOwnership",
      "outputs": [],
      "stateMutability": "nonpayable",
      "type": "function"
    }
  ],
  "bytecode": {
    "object": "0x60e03461011857601f620016a338819003918201601f19168301916001600160401b0383118484101761011d57808492608094604052833981010312610118578051906001600160a01b03908183168303610118576020810151828116810361011857604082015191838316830361011857606001519283168303610118576100999360805261008e33610133565b60a05260c052610133565b60405161152890816200017b82396080518181816102770152818161072e015281816107cd01528181610b2101528181610ba701528181610e2a0152610ead015260a0518181816103670152818161044a015281816108e90152610cdc015260c0518181816104c00152818161099a01528181610f6f01526112fa0152f35b600080fd5b634e487b7160e01b600052604160045260246000fd5b600080546001600160a01b039283166001600160a01b03198216811783559216907f8be0079c531659141344cd1fd0a4f28419497f9722a3daafe3b4186f6b6457e09080a356fe6080604081815260048036101561001557600080fd5b600092833560e01c908163557e715514610f5b575080635dd8f6aa14610f2957806363d0850a14610c895780636e49181f14610c58578063714e7f32146108a8578063715018a614610860578063821b9fd8146103d257806386202650146103965780638b79543c146103525780638da5cb5b1461032a578063a1ed3175146102aa578063ad007d6314610262578063c5664e2114610226578063d17541531461017b5763f2fde38b146100c857600080fd5b34610177576020366003190112610177576100e1610fb9565b906100ea61147a565b6001600160a01b0391821692831561012557505082546001600160a01b0319811683178455166000805160206114d38339815191528380a380f35b906020608492519162461bcd60e51b8352820152602660248201527f4f776e61626c653a206e6577206f776e657220697320746865207a65726f206160448201526564647265737360d01b6064820152fd5b8280fd5b50346101775760209081600319360112610222573583526001808252828420835181548082529186528386208185019693949192879190855b81811061020657505050826101ca910383611000565b8451948186019282875251809352850195925b8281106101ea5785870386f35b83516001600160a01b03168752958101959281019284016101dd565b82546001600160a01b03168452928401929187019187016101b4565b8380fd5b50346101775760203660031901126101775760209260ff918391906001600160a01b03610251610fb9565b168252855220541690519015158152f35b5050346102a657816003193601126102a657517f00000000000000000000000000000000000000000000000000000000000000006001600160a01b03168152602090f35b5080fd5b50346101775781600319360112610177576102c3610fb9565b9160243592831515809403610326577f11207664cc48b0fa81c8674795f1d8f642960f38d5d2d305ad813093bed85fab916020916102ff61147a565b6001600160a01b0316808752938252808620805460ff191660ff871617905551338152a380f35b8480fd5b5050346102a657816003193601126102a657905490516001600160a01b039091168152602090f35b5050346102a657816003193601126102a657517f00000000000000000000000000000000000000000000000000000000000000006001600160a01b03168152602090f35b5091346103cf57816003193601126103cf57506103be6020926103b7610f9e565b9035611084565b90516001600160a01b039091168152f35b80fd5b509190346102a657806003193601126102a657602492803591908435906001600160401b0380831161085c573660238401121561085c578282013590811161085c57868301928736918360051b01011161085c5783516331a9108f60e11b81528281018690526020976001600160a01b0391898183817f000000000000000000000000000000000000000000000000000000000000000087165afa90811561079457899161082f575b5087895260038a5282878a2054163314159081610822575b8161079e575b816106ff575b506106ef5785516321d1336160e11b815284810188905261012090818184817f000000000000000000000000000000000000000000000000000000000000000088165afa9182156106e5578a926106b8575b505087895260038a5282878a20541633141590816106a6575b5061069657868852600193848a52868920600160401b851161068457805485825580861061065d575b50895289892086868b5b878110610644575091505084116105c5575b50509190808551958087019087525260608501939287905b82821061059e57338a88015288887fb648241d83df6540fc10f2acc641e4bf80a1e84e7ae2f1f6b0ad204b8fee635b8989038aa280f35b909192939485358281168091036105c15781528901948901939291830190610567565b8980fd5b885b8481106105d4575061054f565b8581019081811161063257815b8681106105ef5750506105c7565b888680610613610608858c61060d6106088a838a6112b1565b61129d565b966112b1565b169116146106225787016105e1565b8951633e3830ab60e11b81528490fd5b634e487b7160e01b8b5260118352838bfd5b8d61064e8461129d565b9301928185015501879061053d565b818b5286868d8d2092830192015b828110610679575050610533565b8c815501879061066b565b50634e487b7160e01b89526041905287fd5b85516375fef35f60e11b81528490fd5b6106b0915061142d565b51153861050a565b6106d79250803d106106de575b6106cf8183611000565b81019061120d565b38806104f1565b503d6106c5565b88513d8c823e3d90fd5b855163075fd2b160e01b81528490fd5b875163c161c93f60e01b8152338782015290841683820152604481018a9052600f6064820152905089816084817f000000000000000000000000000000000000000000000000000000000000000087165afa908115610794578991610767575b50153861049f565b61078791508a3d8c1161078d575b61077f8183611000565b810190611051565b3861075f565b503d610775565b87513d8b823e3d90fd5b9050865163c161c93f60e01b8152338682015283821683820152886044820152600f60648201528a81608481877f0000000000000000000000000000000000000000000000000000000000000000165afa9081156106e5578a91610805575b501590610499565b61081c91508b3d8d1161078d5761077f8183611000565b386107fd565b3384821614159150610493565b61084f91508a3d8c11610855575b6108478183611000565b8101906111ee565b3861047b565b503d61083d565b8580fd5b83346103cf57806003193601126103cf5761087961147a565b80546001600160a01b03198116825581906001600160a01b03166000805160206114d38339815191528280a380f35b50346101775781600319360112610177578035906108c4610f9e565b83516331a9108f60e11b8152808301849052909360209290916001600160a01b0391907f00000000000000000000000000000000000000000000000000000000000000008316908581602481855afa908115610a8b578991610c3b575b508689526003865283858a20541633148015610c13575b159081610c06575b81610b77575b81610af1575b50610ae2578482918551928380926306661abd60e01b82525afa908115610ad8579086918991610aa3575b5010610a955782516321d1336160e11b81528181018690526101209081816024817f000000000000000000000000000000000000000000000000000000000000000088165afa918215610a8b578992610a6e575b5050858852600385528483858a2054163314159182610a5f575b82610a4a575b5050610a3c57508386526003835281862080546001600160a01b031916959091169485179055513381527f7f9a7dcb234c909a09de2f344661ad9e5b24067adb97c908647c2edcbb121c309190a380f35b825163a33db4cb60e01b8152fd5b610a5591925061142d565b01511584386109eb565b858a20548516151592506109e5565b610a849250803d106106de576106cf8183611000565b38806109cb565b85513d8b823e3d90fd5b8251634a283a5360e11b8152fd5b809250868092503d8311610ad1575b610abc8183611000565b81010312610acd5785905138610977565b8780fd5b503d610ab2565b84513d8a823e3d90fd5b50825163075fd2b160e01b8152fd5b855163c161c93f60e01b815233858201529085166024820152604481018a9052600e6064820152905085816084817f000000000000000000000000000000000000000000000000000000000000000088165afa908115610a8b578991610b5a575b50153861094c565b610b719150863d881161078d5761077f8183611000565b38610b52565b9050845163c161c93f60e01b815233848201528482166024820152876044820152600e60648201528681608481887f0000000000000000000000000000000000000000000000000000000000000000165afa908115610bfc578a91610bdf575b501590610946565b610bf69150873d891161078d5761077f8183611000565b38610bd7565b86513d8c823e3d90fd5b3385821614159150610940565b5033895282865260ff858a205416801561093857508689526003865283858a20541615610938565b610c529150863d8811610855576108478183611000565b38610921565b5091346103cf57816003193601126103cf5750610c80602092610c79610f9e565b9035611182565b90519015158152f35b5034610177576060366003190112610177578035610ca5610f9e565b6044356001600160a01b038181169592949291868103610acd5782516331a9108f60e11b81528481018690526020949085816024817f000000000000000000000000000000000000000000000000000000000000000088165afa908115610de4579084918b91610f0c575b5016803314159081610e7f575b81610dfc575b50610dee57835163df21a7dd60e01b8152858180610d448a8c878401611069565b03818c5afa908115610de4578a91610dc7575b5015610db9575090610d8c7fc670a502bbb9f8a4315f95eca901a9f99b65f89a2eb5705a58050e5c00f9d672949392866112c1565b84885260028352818820951680885294825280872080546001600160a01b0319168717905551338152a480f35b8351630faa917b60e11b8152fd5b610dde9150863d881161078d5761077f8183611000565b38610d57565b85513d8c823e3d90fd5b835163075fd2b160e01b8152fd5b905084519063c161c93f60e01b825233838301526024820152896044820152601060648201528581608481877f0000000000000000000000000000000000000000000000000000000000000000165afa908115610de4578a91610e62575b501538610d23565b610e799150863d881161078d5761077f8183611000565b38610e5a565b9050845163c161c93f60e01b81523383820152816024820152876044820152601060648201528681608481887f0000000000000000000000000000000000000000000000000000000000000000165afa908115610f02578b91610ee5575b501590610d1d565b610efc9150873d891161078d5761077f8183611000565b38610edd565b86513d8d823e3d90fd5b610f239150873d8911610855576108478183611000565b38610d10565b50346101775760203660031901126101775735825260036020908152918190205490516001600160a01b039091168152f35b8490346102a657816003193601126102a6577f00000000000000000000000000000000000000000000000000000000000000006001600160a01b03168152602090f35b602435906001600160a01b0382168203610fb457565b600080fd5b600435906001600160a01b0382168203610fb457565b606081019081106001600160401b03821117610fea57604052565b634e487b7160e01b600052604160045260246000fd5b601f909101601f19168101906001600160401b03821190821017610fea57604052565b805482101561103b5760005260206000200190600090565b634e487b7160e01b600052603260045260246000fd5b90816020910312610fb457518015158103610fb45790565b6001600160a01b039091168152602081019190915260400190565b6000918183526020906002825260408085209260018060a01b03938484168752815283828720541680151580611172575b61116857508486526001948582528287205494875b8681106110dc57505050505050505090565b828952878452816110ef82878c20611023565b90549060031b1c16855163df21a7dd60e01b8152858180611114888c60048401611069565b0381855afa90811561115e578b91611141575b50611134575087016110ca565b9850505050505050505090565b6111589150863d881161078d5761077f8183611000565b38611127565b87513d8d823e3d90fd5b9550505050505090565b5061117d8187611182565b6110b5565b919060009083825260019060209082825260408085205492855b8481106111ae57509496505050505050565b8887528582526111c081848920611023565b905460039190911b1c6001600160a01b03908116908516146111e357850161119c565b509396505050505050565b90816020910312610fb457516001600160a01b0381168103610fb45790565b80916101209283910312610fb4576040519182016001600160401b03811183821017610fea57604052805182526020810151602083015260408101516040830152606081015160608301526080810151608083015260a081015160a083015260c081015160c083015260e081015160018060a01b0381168103610fb45760e0830152610100809101519082015290565b356001600160a01b0381168103610fb45790565b919081101561103b5760051b0190565b6112cb8282611182565b61140a57604080516321d1336160e11b8152600481018390526001600160a01b039391906101209081816024817f00000000000000000000000000000000000000000000000000000000000000008a165afa9182156113ff576000926113e2575b50508360005260036020528482600020541633141590816113d0575b506113c0578260005260016020528060002090815492600160401b841015610fea578561139e8560209560017f409bccc07b7cf7807930526a24318212d614c59f2dde05a017a41efee144e7c898018155611023565b9790921696879183549160031b90811b9283911b1691191617905551338152a3565b516375fef35f60e11b8152600490fd5b6113da915061142d565b511538611348565b6113f89250803d106106de576106cf8183611000565b388061132c565b83513d6000823e3d90fd5b5050565b6040519061141b82610fcf565b60006040838281528260208201520152565b6101009061143961140e565b50015161144461140e565b506040519061145282610fcf565b6001818180809460081c1614845281808260091c16146020850152600a1c1614604082015290565b6000546001600160a01b0316330361148e57565b606460405162461bcd60e51b815260206004820152602060248201527f4f776e61626c653a2063616c6c6572206973206e6f7420746865206f776e65726044820152fdfe8be0079c531659141344cd1fd0a4f28419497f9722a3daafe3b4186f6b6457e0a2646970667358221220f07c20a8528c48bec8929c3f2569559e9bd3653752e8dcdd639d904b1f2d301164736f6c63430008110033",
    "linkReferences": {}
  },
  "methodIdentifiers": {
    "controllerOf(uint256)": "5dd8f6aa",
    "fundingCycleStore()": "557e7155",
    "isAllowedToSetFirstController(address)": "c5664e21",
    "isTerminalOf(uint256,address)": "6e49181f",
    "operatorStore()": "ad007d63",
    "owner()": "8da5cb5b",
    "primaryTerminalOf(uint256,address)": "86202650",
    "projects()": "8b79543c",
    "renounceOwnership()": "715018a6",
    "setControllerOf(uint256,address)": "714e7f32",
    "setIsAllowedToSetFirstController(address,bool)": "a1ed3175",
    "setPrimaryTerminalOf(uint256,address,address)": "63d0850a",
    "setTerminalsOf(uint256,address[])": "821b9fd8",
    "terminalsOf(uint256)": "d1754153",
    "transferOwnership(address)": "f2fde38b"
  },
  "id": 70
}