{
  "abi": [
    {
      "inputs": [
        {
          "internalType": "contract IJBOperatorStore",
          "name": "_operatorStore",
          "type": "address"
        },
        {
          "internalType": "contract IJBProjects",
          "name": "_projects",
          "type": "address"
        },
        {
          "internalType": "contract IJBFundingCycleStore",
          "name": "_fundingCycleStore",
          "type": "address"
        },
        {
          "internalType": "address",
          "name": "_owner",
          "type": "address"
        }
      ],
      "stateMutability": "nonpayable",
      "type": "constructor"
    },
    {
      "inputs": [],
      "name": "DUPLICATE_TERMINALS",
      "type": "error"
    },
    {
      "inputs": [],
      "name": "INVALID_PROJECT_ID_IN_DIRECTORY",
      "type": "error"
    },
    {
      "inputs": [],
      "name": "SET_CONTROLLER_NOT_ALLOWED",
      "type": "error"
    },
    {
      "inputs": [],
      "name": "SET_TERMINALS_NOT_ALLOWED",
      "type": "error"
    },
    {
      "inputs": [],
      "name": "TOKEN_NOT_ACCEPTED",
      "type": "error"
    },
    {
      "inputs": [],
      "name": "UNAUTHORIZED",
      "type": "error"
    },
    {
      "anonymous": false,
      "inputs": [
        {
          "indexed": true,
          "internalType": "uint256",
          "name": "projectId",
          "type": "uint256"
        },
        {
          "indexed": true,
          "internalType": "contract IJBPaymentTerminal",
          "name": "terminal",
          "type": "address"
        },
        {
          "indexed": false,
          "internalType": "address",
          "name": "caller",
          "type": "address"
        }
      ],
      "name": "AddTerminal",
      "type": "event"
    },
    {
      "anonymous": false,
      "inputs": [
        {
          "indexed": true,
          "internalType": "address",
          "name": "previousOwner",
          "type": "address"
        },
        {
          "indexed": true,
          "internalType": "address",
          "name": "newOwner",
          "type": "address"
        }
      ],
      "name": "OwnershipTransferred",
      "type": "event"
    },
    {
      "anonymous": false,
      "inputs": [
        {
          "indexed": true,
          "internalType": "uint256",
          "name": "projectId",
          "type": "uint256"
        },
        {
          "indexed": true,
          "internalType": "address",
          "name": "controller",
          "type": "address"
        },
        {
          "indexed": false,
          "internalType": "address",
          "name": "caller",
          "type": "address"
        }
      ],
      "name": "SetController",
      "type": "event"
    },
    {
      "anonymous": false,
      "inputs": [
        {
          "indexed": true,
          "internalType": "address",
          "name": "addr",
          "type": "address"
        },
        {
          "indexed": true,
          "internalType": "bool",
          "name": "flag",
          "type": "bool"
        },
        {
          "indexed": false,
          "internalType": "address",
          "name": "caller",
          "type": "address"
        }
      ],
      "name": "SetIsAllowedToSetFirstController",
      "type": "event"
    },
    {
      "anonymous": false,
      "inputs": [
        {
          "indexed": true,
          "internalType": "uint256",
          "name": "projectId",
          "type": "uint256"
        },
        {
          "indexed": true,
          "internalType": "address",
          "name": "token",
          "type": "address"
        },
        {
          "indexed": true,
          "internalType": "contract IJBPaymentTerminal",
          "name": "terminal",
          "type": "address"
        },
        {
          "indexed": false,
          "internalType": "address",
          "name": "caller",
          "type": "address"
        }
      ],
      "name": "SetPrimaryTerminal",
      "type": "event"
    },
    {
      "anonymous": false,
      "inputs": [
        {
          "indexed": true,
          "internalType": "uint256",
          "name": "projectId",
          "type": "uint256"
        },
        {
          "indexed": false,
          "internalType": "contract IJBPaymentTerminal[]",
          "name": "terminals",
          "type": "address[]"
        },
        {
          "indexed": false,
          "internalType": "address",
          "name": "caller",
          "type": "address"
        }
      ],
      "name": "SetTerminals",
      "type": "event"
    },
    {
      "inputs": [
        {
          "internalType": "uint256",
          "name": "",
          "type": "uint256"
        }
      ],
      "name": "controllerOf",
      "outputs": [
        {
          "internalType": "address",
          "name": "",
          "type": "address"
        }
      ],
      "stateMutability": "view",
      "type": "function"
    },
    {
      "inputs": [],
      "name": "fundingCycleStore",
      "outputs": [
        {
          "internalType": "contract IJBFundingCycleStore",
          "name": "",
          "type": "address"
        }
      ],
      "stateMutability": "view",
      "type": "function"
    },
    {
      "inputs": [
        {
          "internalType": "address",
          "name": "",
          "type": "address"
        }
      ],
      "name": "isAllowedToSetFirstController",
      "outputs": [
        {
          "internalType": "bool",
          "name": "",
          "type": "bool"
        }
      ],
      "stateMutability": "view",
      "type": "function"
    },
    {
      "inputs": [
        {
          "internalType": "uint256",
          "name": "_projectId",
          "type": "uint256"
        },
        {
          "internalType": "contract IJBPaymentTerminal",
          "name": "_terminal",
          "type": "address"
        }
      ],
      "name": "isTerminalOf",
      "outputs": [
        {
          "internalType": "bool",
          "name": "",
          "type": "bool"
        }
      ],
      "stateMutability": "view",
      "type": "function"
    },
    {
      "inputs": [],
      "name": "operatorStore",
      "outputs": [
        {
          "internalType": "contract IJBOperatorStore",
          "name": "",
          "type": "address"
        }
      ],
      "stateMutability": "view",
      "type": "function"
    },
    {
      "inputs": [],
      "name": "owner",
      "outputs": [
        {
          "internalType": "address",
          "name": "",
          "type": "address"
        }
      ],
      "stateMutability": "view",
      "type": "function"
    },
    {
      "inputs": [
        {
          "internalType": "uint256",
          "name": "_projectId",
          "type": "uint256"
        },
        {
          "internalType": "address",
          "name": "_token",
          "type": "address"
        }
      ],
      "name": "primaryTerminalOf",
      "outputs": [
        {
          "internalType": "contract IJBPaymentTerminal",
          "name": "",
          "type": "address"
        }
      ],
      "stateMutability": "view",
      "type": "function"
    },
    {
      "inputs": [],
      "name": "projects",
      "outputs": [
        {
          "internalType": "contract IJBProjects",
          "name": "",
          "type": "address"
        }
      ],
      "stateMutability": "view",
      "type": "function"
    },
    {
      "inputs": [],
      "name": "renounceOwnership",
      "outputs": [],
      "stateMutability": "nonpayable",
      "type": "function"
    },
    {
      "inputs": [
        {
          "internalType": "uint256",
          "name": "_projectId",
          "type": "uint256"
        },
        {
          "internalType": "address",
          "name": "_controller",
          "type": "address"
        }
      ],
      "name": "setControllerOf",
      "outputs": [],
      "stateMutability": "nonpayable",
      "type": "function"
    },
    {
      "inputs": [
        {
          "internalType": "address",
          "name": "_address",
          "type": "address"
        },
        {
          "internalType": "bool",
          "name": "_flag",
          "type": "bool"
        }
      ],
      "name": "setIsAllowedToSetFirstController",
      "outputs": [],
      "stateMutability": "nonpayable",
      "type": "function"
    },
    {
      "inputs": [
        {
          "internalType": "uint256",
          "name": "_projectId",
          "type": "uint256"
        },
        {
          "internalType": "address",
          "name": "_token",
          "type": "address"
        },
        {
          "internalType": "contract IJBPaymentTerminal",
          "name": "_terminal",
          "type": "address"
        }
      ],
      "name": "setPrimaryTerminalOf",
      "outputs": [],
      "stateMutability": "nonpayable",
      "type": "function"
    },
    {
      "inputs": [
        {
          "internalType": "uint256",
          "name": "_projectId",
          "type": "uint256"
        },
        {
          "internalType": "contract IJBPaymentTerminal[]",
          "name": "_terminals",
          "type": "address[]"
        }
      ],
      "name": "setTerminalsOf",
      "outputs": [],
      "stateMutability": "nonpayable",
      "type": "function"
    },
    {
      "inputs": [
        {
          "internalType": "uint256",
          "name": "_projectId",
          "type": "uint256"
        }
      ],
      "name": "terminalsOf",
      "outputs": [
        {
          "internalType": "contract IJBPaymentTerminal[]",
          "name": "",
          "type": "address[]"
        }
      ],
      "stateMutability": "view",
      "type": "function"
    },
    {
      "inputs": [
        {
          "internalType": "address",
          "name": "newOwner",
          "type": "address"
        }
      ],
      "name": "transferOwnership",
      "outputs": [],
      "stateMutability": "nonpayable",
      "type": "function"
    }
  ],
  "bytecode": {
    "object": "0x60e0346200012357601f6200184238819003918201601f19168301916001600160401b03831184841017620001285780849260809460405283398101031262000123578051906001600160a01b039081831683036200012357602081015182811681036200012357604082015191838316830362000123576060015192831683036200012357620000a49360805262000098336200013e565b60a05260c0526200013e565b6040516116bc90816200018682396080518181816102d0015281816107c90152818161086701528181610c2801528181610cad01528181610f7c0152610fff015260a0518181816103dc015281816104b3015281816109880152610de0015260c05181818161052801528181610a66015281816110ca015261147c0152f35b600080fd5b634e487b7160e01b600052604160045260246000fd5b600080546001600160a01b039283166001600160a01b03198216811783559216907f8be0079c531659141344cd1fd0a4f28419497f9722a3daafe3b4186f6b6457e09080a356fe6080604081815260048036101561001557600080fd5b600092833560e01c908163557e7155146110ab575080635dd8f6aa1461107b57806363d0850a14610d8f5780636e49181f14610d5e578063714e7f3214610960578063715018a6146108fa578063821b9fd81461043b57806386202650146104005780638b79543c146103bc5780638da5cb5b14610396578063a1ed3175146102f8578063ad007d63146102b0578063c5664e2114610276578063d1754153146101cb5763f2fde38b146100c857600080fd5b346101c75760206003193601126101c7576100e1611109565b906100ea611614565b6001600160a01b0380921692831561014457505082548273ffffffffffffffffffffffffffffffffffffffff198216178455167f8be0079c531659141344cd1fd0a4f28419497f9722a3daafe3b4186f6b6457e08380a380f35b90602060849251917f08c379a0000000000000000000000000000000000000000000000000000000008352820152602660248201527f4f776e61626c653a206e6577206f776e657220697320746865207a65726f206160448201527f64647265737300000000000000000000000000000000000000000000000000006064820152fd5b8280fd5b50346101c75760209081600319360112610272573583526001808252828420835181548082529186528386208185019693949192879190855b818110610256575050508261021a910383611151565b8451948186019282875251809352850195925b82811061023a5785870386f35b83516001600160a01b031687529581019592810192840161022d565b82546001600160a01b0316845292840192918701918701610204565b8380fd5b50346101c75760206003193601126101c7578160209360ff926001600160a01b0361029f611109565b168252855220541690519015158152f35b5050346102f457816003193601126102f457602090516001600160a01b037f0000000000000000000000000000000000000000000000000000000000000000168152f35b5080fd5b50346101c757816003193601126101c757610311611109565b9160243592831515809403610392577f11207664cc48b0fa81c8674795f1d8f642960f38d5d2d305ad813093bed85fab916001600160a01b03602092610355611614565b169384875282528086207fffffffffffffffffffffffffffffffffffffffffffffffffffffffffffffff0081541660ff871617905551338152a380f35b8480fd5b5050346102f457816003193601126102f4576001600160a01b0360209254169051908152f35b5050346102f457816003193601126102f457602090516001600160a01b037f0000000000000000000000000000000000000000000000000000000000000000168152f35b509134610438578160031936011261043857506001600160a01b036104306020936104296110ee565b90356111d8565b915191168152f35b80fd5b509190346102f457806003193601126102f45782359060249384359067ffffffffffffffff8083116108f657366023840112156108f657828201359081116108f657868301928736918360051b0101116108f65783516331a9108f60e11b815285838201526020976001600160a01b039189818381867f0000000000000000000000000000000000000000000000000000000000000000165afa90811561082e5789916108c9575b5087895260038a5282878a20541633141590816108bc575b81610838575b8161079a575b5061078b5785516321d1336160e11b815287858201526101209081818481877f0000000000000000000000000000000000000000000000000000000000000000165afa918215610781578a92610754575b505087895260038a5282878a2054163314159081610742575b5061071a57868852600193848a528689206801000000000000000085116107085780548582558086106106e1575b50895289892086868b5b8781106106c857509150508411610631575b50509190808551958087019087525260608501939287905b82821061060a57338a88015288887fb648241d83df6540fc10f2acc641e4bf80a1e84e7ae2f1f6b0ad204b8fee635b8989038aa280f35b9091929394853582811680910361062d57815289019489019392918301906105d3565b8980fd5b885b84811061064057506105bb565b858101908181116106b657815b86811061065b575050610633565b88868061067f610674858c6106796106748a838a611434565b611420565b96611434565b1691161461068e57870161064d565b838a517f7c706156000000000000000000000000000000000000000000000000000000008152fd5b838b601185634e487b7160e01b835252fd5b8d6106d284611420565b930192818501550187906105a9565b818b5286868d8d2092830192015b8281106106fd57505061059f565b8c81550187906106ef565b5060418991634e487b7160e01b835252fd5b8386517febfde6be000000000000000000000000000000000000000000000000000000008152fd5b61074c91506115c7565b511538610571565b6107739250803d1061077a575b61076b8183611151565b81019061138e565b3880610558565b503d610761565b88513d8c823e3d90fd5b83865163075fd2b160e01b8152fd5b90508287519163c161c93f60e01b835233878401521682820152886044820152600f60648201528981608481867f0000000000000000000000000000000000000000000000000000000000000000165afa90811561082e578991610801575b501538610507565b61082191508a3d8c11610827575b6108198183611151565b8101906111c0565b386107f9565b503d61080f565b87513d8b823e3d90fd5b9050865163c161c93f60e01b8152338682015283821683820152886044820152600f60648201528a81608481877f0000000000000000000000000000000000000000000000000000000000000000165afa908115610781578a9161089f575b501590610501565b6108b691508b3d8d11610827576108198183611151565b38610897565b33848216141591506104fb565b6108e991508a3d8c116108ef575b6108e18183611151565b81019061136f565b386104e3565b503d6108d7565b8580fd5b8334610438578060031936011261043857610913611614565b806001600160a01b03815473ffffffffffffffffffffffffffffffffffffffff1981168355167f8be0079c531659141344cd1fd0a4f28419497f9722a3daafe3b4186f6b6457e08280a380f35b50346101c757816003193601126101c75780359061097c6110ee565b926001600160a01b03807f000000000000000000000000000000000000000000000000000000000000000016928251936331a9108f60e11b855285828601526020948581602481855afa908115610b79578991610d41575b508689526003865283858a20541633148015610d19575b159081610d0c575b81610c7d575b81610bf8575b50610be9578482918551928380927f06661abd0000000000000000000000000000000000000000000000000000000082525afa908115610bdf579086918991610baa575b5010610b835782516321d1336160e11b81528582820152610120908181602481877f0000000000000000000000000000000000000000000000000000000000000000165afa918215610b79578992610b5c575b5050858852600385528483858a20541691823314159283610b52575b5082610b3d575b5050610b165750907f7f9a7dcb234c909a09de2f344661ad9e5b24067adb97c908647c2edcbb121c309291848752600383528187209516948573ffffffffffffffffffffffffffffffffffffffff1982541617905551338152a380f35b82517fa33db4cb000000000000000000000000000000000000000000000000000000008152fd5b610b489192506115c7565b0151158438610ab9565b1515925038610ab2565b610b729250803d1061077a5761076b8183611151565b3880610a96565b85513d8b823e3d90fd5b82517f945074a6000000000000000000000000000000000000000000000000000000008152fd5b809250868092503d8311610bd8575b610bc38183611151565b81010312610bd45785905138610a43565b8780fd5b503d610bb9565b84513d8a823e3d90fd5b50825163075fd2b160e01b8152fd5b90508385519163c161c93f60e01b83523385840152166024820152886044820152600e60648201528581608481877f0000000000000000000000000000000000000000000000000000000000000000165afa908115610b79578991610c60575b5015386109ff565b610c779150863d8811610827576108198183611151565b38610c58565b9050845163c161c93f60e01b815233848201528482166024820152876044820152600e60648201528681608481887f0000000000000000000000000000000000000000000000000000000000000000165afa908115610d02578a91610ce5575b5015906109f9565b610cfc9150873d8911610827576108198183611151565b38610cdd565b86513d8c823e3d90fd5b33858216141591506109f3565b5033895282865260ff858a20541680156109eb57508689526003865283858a205416156109eb565b610d589150863d88116108ef576108e18183611151565b386109d4565b50913461043857816003193601126104385750610d86602092610d7f6110ee565b9035611306565b90519015158152f35b50346101c75760606003193601126101c7578035610dab6110ee565b91604435936001600160a01b0380861695868103610bd4578251936331a9108f60e11b855285818601526020948581602481877f0000000000000000000000000000000000000000000000000000000000000000165afa908115610f36579084918b9161105e575b5016803314159081610fd1575b81610f4e575b50610f405783517fdf21a7dd0000000000000000000000000000000000000000000000000000000081526001600160a01b0388168282019081526020810188905286908290819060400103818c5afa908115610f36578a91610f19575b5015610ef2575090610eb87fc670a502bbb9f8a4315f95eca901a9f99b65f89a2eb5705a58050e5c00f9d67294939286611444565b8488526002835281882095169485885282528087208673ffffffffffffffffffffffffffffffffffffffff1982541617905551338152a480f35b83517f1f5522f6000000000000000000000000000000000000000000000000000000008152fd5b610f309150863d8811610827576108198183611151565b38610e83565b85513d8c823e3d90fd5b835163075fd2b160e01b8152fd5b905084519063c161c93f60e01b825233838301526024820152896044820152601060648201528581608481877f0000000000000000000000000000000000000000000000000000000000000000165afa908115610f36578a91610fb4575b501538610e26565b610fcb9150863d8811610827576108198183611151565b38610fac565b9050845163c161c93f60e01b81523383820152816024820152876044820152601060648201528681608481887f0000000000000000000000000000000000000000000000000000000000000000165afa908115611054578b91611037575b501590610e20565b61104e9150873d8911610827576108198183611151565b3861102f565b86513d8d823e3d90fd5b6110759150873d89116108ef576108e18183611151565b38610e13565b50346101c75760206003193601126101c757816020936001600160a01b0392358152600385522054169051908152f35b8490346102f457816003193601126102f4576020906001600160a01b037f0000000000000000000000000000000000000000000000000000000000000000168152f35b602435906001600160a01b038216820361110457565b600080fd5b600435906001600160a01b038216820361110457565b6060810190811067ffffffffffffffff82111761113b57604052565b634e487b7160e01b600052604160045260246000fd5b90601f7fffffffffffffffffffffffffffffffffffffffffffffffffffffffffffffffe0910116810190811067ffffffffffffffff82111761113b57604052565b80548210156111aa5760005260206000200190600090565b634e487b7160e01b600052603260045260246000fd5b90816020910312611104575180151581036111045790565b600091818352602090600282526040808520926001600160a01b039384841687528152838287205416801515806112f6575b6112ec57508486526001948582528287205494875b86811061123157505050505050505090565b8289528784528161124482878c20611192565b90549060031b1c1685517fdf21a7dd000000000000000000000000000000000000000000000000000000008152858180611298888c60048401602090939291936001600160a01b0360408201951681520152565b0381855afa9081156112e2578b916112c5575b506112b85750870161121f565b9850505050505050505090565b6112dc9150863d8811610827576108198183611151565b386112ab565b87513d8d823e3d90fd5b9550505050505090565b506113018187611306565b61120a565b919060009083825260019060209082825260408085205492855b84811061133257509496505050505050565b88875285825261134481848920611192565b90546001600160a01b03908187169260031b1c1614611364578501611320565b509396505050505050565b9081602091031261110457516001600160a01b03811681036111045790565b809161012092839103126111045760405191820182811067ffffffffffffffff82111761113b57604052805182526020810151602083015260408101516040830152606081015160608301526080810151608083015260a081015160a083015260c081015160c083015260e08101516001600160a01b03811681036111045760e0830152610100809101519082015290565b356001600160a01b03811681036111045790565b91908110156111aa5760051b0190565b61144e8282611306565b6115a4576040918251926321d1336160e11b84528260048501526101206001600160a01b03948181602481897f0000000000000000000000000000000000000000000000000000000000000000165afa9182156115995760009261157c575b505083600052600360205284826000205416331415908161156a575b506115415782600052600160205280600020908154926801000000000000000084101561113b57856115248560209560017f409bccc07b7cf7807930526a24318212d614c59f2dde05a017a41efee144e7c898018155611192565b979092169682549060031b9188831b921b191617905551338152a3565b600490517febfde6be000000000000000000000000000000000000000000000000000000008152fd5b61157491506115c7565b5115386114c9565b6115929250803d1061077a5761076b8183611151565b38806114ad565b83513d6000823e3d90fd5b5050565b604051906115b58261111f565b60006040838281528260208201520152565b610100906115d36115a8565b5001516115de6115a8565b50604051906115ec8261111f565b6001818180809460081c1614845281808260091c16146020850152600a1c1614604082015290565b6001600160a01b0360005416330361162857565b60646040517f08c379a000000000000000000000000000000000000000000000000000000000815260206004820152602060248201527f4f776e61626c653a2063616c6c6572206973206e6f7420746865206f776e65726044820152fdfea2646970667358221220b46854962bd08b6c91416f533ee68f94d6c90e93dd7ceb4af6d85e07bcdc2af964736f6c63430008140033",
    "linkReferences": {}
  },
  "methodIdentifiers": {
    "controllerOf(uint256)": "5dd8f6aa",
    "fundingCycleStore()": "557e7155",
    "isAllowedToSetFirstController(address)": "c5664e21",
    "isTerminalOf(uint256,address)": "6e49181f",
    "operatorStore()": "ad007d63",
    "owner()": "8da5cb5b",
    "primaryTerminalOf(uint256,address)": "86202650",
    "projects()": "8b79543c",
    "renounceOwnership()": "715018a6",
    "setControllerOf(uint256,address)": "714e7f32",
    "setIsAllowedToSetFirstController(address,bool)": "a1ed3175",
    "setPrimaryTerminalOf(uint256,address,address)": "63d0850a",
    "setTerminalsOf(uint256,address[])": "821b9fd8",
    "terminalsOf(uint256)": "d1754153",
    "transferOwnership(address)": "f2fde38b"
  },
  "id": 68
}