{
  "abi": [
    {
      "inputs": [
        {
          "internalType": "string",
          "name": "_name",
          "type": "string"
        },
        {
          "internalType": "string",
          "name": "_symbol",
          "type": "string"
        },
        {
          "internalType": "uint256",
          "name": "_projectId",
          "type": "uint256"
        }
      ],
      "stateMutability": "nonpayable",
      "type": "constructor"
    },
    {
      "inputs": [],
      "name": "BAD_PROJECT",
      "type": "error"
    },
    {
      "anonymous": false,
      "inputs": [
        {
          "indexed": true,
          "internalType": "address",
          "name": "owner",
          "type": "address"
        },
        {
          "indexed": true,
          "internalType": "address",
          "name": "spender",
          "type": "address"
        },
        {
          "indexed": false,
          "internalType": "uint256",
          "name": "value",
          "type": "uint256"
        }
      ],
      "name": "Approval",
      "type": "event"
    },
    {
      "anonymous": false,
      "inputs": [
        {
          "indexed": true,
          "internalType": "address",
          "name": "delegator",
          "type": "address"
        },
        {
          "indexed": true,
          "internalType": "address",
          "name": "fromDelegate",
          "type": "address"
        },
        {
          "indexed": true,
          "internalType": "address",
          "name": "toDelegate",
          "type": "address"
        }
      ],
      "name": "DelegateChanged",
      "type": "event"
    },
    {
      "anonymous": false,
      "inputs": [
        {
          "indexed": true,
          "internalType": "address",
          "name": "delegate",
          "type": "address"
        },
        {
          "indexed": false,
          "internalType": "uint256",
          "name": "previousBalance",
          "type": "uint256"
        },
        {
          "indexed": false,
          "internalType": "uint256",
          "name": "newBalance",
          "type": "uint256"
        }
      ],
      "name": "DelegateVotesChanged",
      "type": "event"
    },
    {
      "anonymous": false,
      "inputs": [
        {
          "indexed": true,
          "internalType": "address",
          "name": "previousOwner",
          "type": "address"
        },
        {
          "indexed": true,
          "internalType": "address",
          "name": "newOwner",
          "type": "address"
        }
      ],
      "name": "OwnershipTransferred",
      "type": "event"
    },
    {
      "anonymous": false,
      "inputs": [
        {
          "indexed": true,
          "internalType": "address",
          "name": "from",
          "type": "address"
        },
        {
          "indexed": true,
          "internalType": "address",
          "name": "to",
          "type": "address"
        },
        {
          "indexed": false,
          "internalType": "uint256",
          "name": "value",
          "type": "uint256"
        }
      ],
      "name": "Transfer",
      "type": "event"
    },
    {
      "inputs": [],
      "name": "DOMAIN_SEPARATOR",
      "outputs": [
        {
          "internalType": "bytes32",
          "name": "",
          "type": "bytes32"
        }
      ],
      "stateMutability": "view",
      "type": "function"
    },
    {
      "inputs": [
        {
          "internalType": "address",
          "name": "owner",
          "type": "address"
        },
        {
          "internalType": "address",
          "name": "spender",
          "type": "address"
        }
      ],
      "name": "allowance",
      "outputs": [
        {
          "internalType": "uint256",
          "name": "",
          "type": "uint256"
        }
      ],
      "stateMutability": "view",
      "type": "function"
    },
    {
      "inputs": [
        {
          "internalType": "address",
          "name": "spender",
          "type": "address"
        },
        {
          "internalType": "uint256",
          "name": "amount",
          "type": "uint256"
        }
      ],
      "name": "approve",
      "outputs": [
        {
          "internalType": "bool",
          "name": "",
          "type": "bool"
        }
      ],
      "stateMutability": "nonpayable",
      "type": "function"
    },
    {
      "inputs": [
        {
          "internalType": "uint256",
          "name": "_projectId",
          "type": "uint256"
        },
        {
          "internalType": "address",
          "name": "_spender",
          "type": "address"
        },
        {
          "internalType": "uint256",
          "name": "_amount",
          "type": "uint256"
        }
      ],
      "name": "approve",
      "outputs": [],
      "stateMutability": "nonpayable",
      "type": "function"
    },
    {
      "inputs": [
        {
          "internalType": "address",
          "name": "_account",
          "type": "address"
        },
        {
          "internalType": "uint256",
          "name": "_projectId",
          "type": "uint256"
        }
      ],
      "name": "balanceOf",
      "outputs": [
        {
          "internalType": "uint256",
          "name": "",
          "type": "uint256"
        }
      ],
      "stateMutability": "view",
      "type": "function"
    },
    {
      "inputs": [
        {
          "internalType": "address",
          "name": "account",
          "type": "address"
        }
      ],
      "name": "balanceOf",
      "outputs": [
        {
          "internalType": "uint256",
          "name": "",
          "type": "uint256"
        }
      ],
      "stateMutability": "view",
      "type": "function"
    },
    {
      "inputs": [
        {
          "internalType": "uint256",
          "name": "_projectId",
          "type": "uint256"
        },
        {
          "internalType": "address",
          "name": "_account",
          "type": "address"
        },
        {
          "internalType": "uint256",
          "name": "_amount",
          "type": "uint256"
        }
      ],
      "name": "burn",
      "outputs": [],
      "stateMutability": "nonpayable",
      "type": "function"
    },
    {
      "inputs": [
        {
          "internalType": "address",
          "name": "account",
          "type": "address"
        },
        {
          "internalType": "uint32",
          "name": "pos",
          "type": "uint32"
        }
      ],
      "name": "checkpoints",
      "outputs": [
        {
          "components": [
            {
              "internalType": "uint32",
              "name": "fromBlock",
              "type": "uint32"
            },
            {
              "internalType": "uint224",
              "name": "votes",
              "type": "uint224"
            }
          ],
          "internalType": "struct ERC20Votes.Checkpoint",
          "name": "",
          "type": "tuple"
        }
      ],
      "stateMutability": "view",
      "type": "function"
    },
    {
      "inputs": [],
      "name": "decimals",
      "outputs": [
        {
          "internalType": "uint8",
          "name": "",
          "type": "uint8"
        }
      ],
      "stateMutability": "view",
      "type": "function"
    },
    {
      "inputs": [
        {
          "internalType": "address",
          "name": "spender",
          "type": "address"
        },
        {
          "internalType": "uint256",
          "name": "subtractedValue",
          "type": "uint256"
        }
      ],
      "name": "decreaseAllowance",
      "outputs": [
        {
          "internalType": "bool",
          "name": "",
          "type": "bool"
        }
      ],
      "stateMutability": "nonpayable",
      "type": "function"
    },
    {
      "inputs": [
        {
          "internalType": "address",
          "name": "delegatee",
          "type": "address"
        }
      ],
      "name": "delegate",
      "outputs": [],
      "stateMutability": "nonpayable",
      "type": "function"
    },
    {
      "inputs": [
        {
          "internalType": "address",
          "name": "delegatee",
          "type": "address"
        },
        {
          "internalType": "uint256",
          "name": "nonce",
          "type": "uint256"
        },
        {
          "internalType": "uint256",
          "name": "expiry",
          "type": "uint256"
        },
        {
          "internalType": "uint8",
          "name": "v",
          "type": "uint8"
        },
        {
          "internalType": "bytes32",
          "name": "r",
          "type": "bytes32"
        },
        {
          "internalType": "bytes32",
          "name": "s",
          "type": "bytes32"
        }
      ],
      "name": "delegateBySig",
      "outputs": [],
      "stateMutability": "nonpayable",
      "type": "function"
    },
    {
      "inputs": [
        {
          "internalType": "address",
          "name": "account",
          "type": "address"
        }
      ],
      "name": "delegates",
      "outputs": [
        {
          "internalType": "address",
          "name": "",
          "type": "address"
        }
      ],
      "stateMutability": "view",
      "type": "function"
    },
    {
      "inputs": [
        {
          "internalType": "uint256",
          "name": "blockNumber",
          "type": "uint256"
        }
      ],
      "name": "getPastTotalSupply",
      "outputs": [
        {
          "internalType": "uint256",
          "name": "",
          "type": "uint256"
        }
      ],
      "stateMutability": "view",
      "type": "function"
    },
    {
      "inputs": [
        {
          "internalType": "address",
          "name": "account",
          "type": "address"
        },
        {
          "internalType": "uint256",
          "name": "blockNumber",
          "type": "uint256"
        }
      ],
      "name": "getPastVotes",
      "outputs": [
        {
          "internalType": "uint256",
          "name": "",
          "type": "uint256"
        }
      ],
      "stateMutability": "view",
      "type": "function"
    },
    {
      "inputs": [
        {
          "internalType": "address",
          "name": "account",
          "type": "address"
        }
      ],
      "name": "getVotes",
      "outputs": [
        {
          "internalType": "uint256",
          "name": "",
          "type": "uint256"
        }
      ],
      "stateMutability": "view",
      "type": "function"
    },
    {
      "inputs": [
        {
          "internalType": "address",
          "name": "spender",
          "type": "address"
        },
        {
          "internalType": "uint256",
          "name": "addedValue",
          "type": "uint256"
        }
      ],
      "name": "increaseAllowance",
      "outputs": [
        {
          "internalType": "bool",
          "name": "",
          "type": "bool"
        }
      ],
      "stateMutability": "nonpayable",
      "type": "function"
    },
    {
      "inputs": [
        {
          "internalType": "uint256",
          "name": "_projectId",
          "type": "uint256"
        },
        {
          "internalType": "address",
          "name": "_account",
          "type": "address"
        },
        {
          "internalType": "uint256",
          "name": "_amount",
          "type": "uint256"
        }
      ],
      "name": "mint",
      "outputs": [],
      "stateMutability": "nonpayable",
      "type": "function"
    },
    {
      "inputs": [],
      "name": "name",
      "outputs": [
        {
          "internalType": "string",
          "name": "",
          "type": "string"
        }
      ],
      "stateMutability": "view",
      "type": "function"
    },
    {
      "inputs": [
        {
          "internalType": "address",
          "name": "owner",
          "type": "address"
        }
      ],
      "name": "nonces",
      "outputs": [
        {
          "internalType": "uint256",
          "name": "",
          "type": "uint256"
        }
      ],
      "stateMutability": "view",
      "type": "function"
    },
    {
      "inputs": [
        {
          "internalType": "address",
          "name": "account",
          "type": "address"
        }
      ],
      "name": "numCheckpoints",
      "outputs": [
        {
          "internalType": "uint32",
          "name": "",
          "type": "uint32"
        }
      ],
      "stateMutability": "view",
      "type": "function"
    },
    {
      "inputs": [],
      "name": "owner",
      "outputs": [
        {
          "internalType": "address",
          "name": "",
          "type": "address"
        }
      ],
      "stateMutability": "view",
      "type": "function"
    },
    {
      "inputs": [
        {
          "internalType": "address",
          "name": "owner",
          "type": "address"
        },
        {
          "internalType": "address",
          "name": "spender",
          "type": "address"
        },
        {
          "internalType": "uint256",
          "name": "value",
          "type": "uint256"
        },
        {
          "internalType": "uint256",
          "name": "deadline",
          "type": "uint256"
        },
        {
          "internalType": "uint8",
          "name": "v",
          "type": "uint8"
        },
        {
          "internalType": "bytes32",
          "name": "r",
          "type": "bytes32"
        },
        {
          "internalType": "bytes32",
          "name": "s",
          "type": "bytes32"
        }
      ],
      "name": "permit",
      "outputs": [],
      "stateMutability": "nonpayable",
      "type": "function"
    },
    {
      "inputs": [],
      "name": "projectId",
      "outputs": [
        {
          "internalType": "uint256",
          "name": "",
          "type": "uint256"
        }
      ],
      "stateMutability": "view",
      "type": "function"
    },
    {
      "inputs": [],
      "name": "renounceOwnership",
      "outputs": [],
      "stateMutability": "nonpayable",
      "type": "function"
    },
    {
      "inputs": [],
      "name": "symbol",
      "outputs": [
        {
          "internalType": "string",
          "name": "",
          "type": "string"
        }
      ],
      "stateMutability": "view",
      "type": "function"
    },
    {
      "inputs": [],
      "name": "totalSupply",
      "outputs": [
        {
          "internalType": "uint256",
          "name": "",
          "type": "uint256"
        }
      ],
      "stateMutability": "view",
      "type": "function"
    },
    {
      "inputs": [
        {
          "internalType": "uint256",
          "name": "_projectId",
          "type": "uint256"
        }
      ],
      "name": "totalSupply",
      "outputs": [
        {
          "internalType": "uint256",
          "name": "",
          "type": "uint256"
        }
      ],
      "stateMutability": "view",
      "type": "function"
    },
    {
      "inputs": [
        {
          "internalType": "address",
          "name": "to",
          "type": "address"
        },
        {
          "internalType": "uint256",
          "name": "amount",
          "type": "uint256"
        }
      ],
      "name": "transfer",
      "outputs": [
        {
          "internalType": "bool",
          "name": "",
          "type": "bool"
        }
      ],
      "stateMutability": "nonpayable",
      "type": "function"
    },
    {
      "inputs": [
        {
          "internalType": "uint256",
          "name": "_projectId",
          "type": "uint256"
        },
        {
          "internalType": "address",
          "name": "_to",
          "type": "address"
        },
        {
          "internalType": "uint256",
          "name": "_amount",
          "type": "uint256"
        }
      ],
      "name": "transfer",
      "outputs": [],
      "stateMutability": "nonpayable",
      "type": "function"
    },
    {
      "inputs": [
        {
          "internalType": "uint256",
          "name": "_projectId",
          "type": "uint256"
        },
        {
          "internalType": "address",
          "name": "_from",
          "type": "address"
        },
        {
          "internalType": "address",
          "name": "_to",
          "type": "address"
        },
        {
          "internalType": "uint256",
          "name": "_amount",
          "type": "uint256"
        }
      ],
      "name": "transferFrom",
      "outputs": [],
      "stateMutability": "nonpayable",
      "type": "function"
    },
    {
      "inputs": [
        {
          "internalType": "address",
          "name": "from",
          "type": "address"
        },
        {
          "internalType": "address",
          "name": "to",
          "type": "address"
        },
        {
          "internalType": "uint256",
          "name": "amount",
          "type": "uint256"
        }
      ],
      "name": "transferFrom",
      "outputs": [
        {
          "internalType": "bool",
          "name": "",
          "type": "bool"
        }
      ],
      "stateMutability": "nonpayable",
      "type": "function"
    },
    {
      "inputs": [
        {
          "internalType": "address",
          "name": "newOwner",
          "type": "address"
        }
      ],
      "name": "transferOwnership",
      "outputs": [],
      "stateMutability": "nonpayable",
      "type": "function"
    }
  ],
  "bytecode": {
    "object": "0x610160604081815234620004705762002cd3803803809162000022828662000475565b84398201606083820312620004705782516001600160401b0392908381116200047057826200005391860162000499565b9060209283860151858111620004705782916200007291880162000499565b95015192815192828401848110878211176200037d57835260019081855282850191603160f81b835281518881116200037d5760038054918383811c9316801562000465575b878410146200044f57601f9283811162000404575b5080878482116001146200039f5760009162000393575b5060001982841b1c191690841b1781555b8a51918a83116200037d5760049b8c548581811c9116801562000372575b898210146200035d5782811162000312575b5087918411600114620002a7579383949184926000956200029b575b50501b92600019911b1c19161788555b82815191012093519020918360e052610100968388524660a0528151928301937f8b73c3c69bb8fe3d512ecc4cf759cc79239f7b179b0ffacaa9a75d522b39400f958686528385015260608401524660808401523060a084015260a0835260c0830196838810908811176200028657508590525190206080523060c052610120908152600a8054336001600160a01b0319821681179092556001600160a01b03167f8be0079c531659141344cd1fd0a4f28419497f9722a3daafe3b4186f6b6457e0600080a36101409182526127c29384620005118539608051846123ae015260a05184612469015260c0518461237f015260e051846123fd01525183612423015251826123da01525181818161048c0152818161072a015281816108f701528181610a2601528181610d2901526113f50152f35b604190634e487b7160e01b6000525260246000fd5b01519350388062000141565b9190601f198416928d60005284896000209460005b8b89838310620002fa5750505010620002df575b50505050811b01885562000151565b01519060f884600019921b161c1916905538808080620002d0565b868601518955909701969485019488935001620002bc565b8d600052886000208380870160051c8201928b881062000353575b0160051c019086905b8281106200034657505062000125565b6000815501869062000336565b925081926200032d565b60228e634e487b7160e01b6000525260246000fd5b90607f169062000113565b634e487b7160e01b600052604160045260246000fd5b905085015138620000e4565b859250601f1982169084600052896000209160005b8b828210620003ed5750508311620003d4575b5050811b018155620000f5565b87015160001983861b60f8161c191690553880620003c7565b838b015185558996909401939283019201620003b4565b82600052876000208480840160051c8201928a851062000445575b0160051c019085905b82811062000438575050620000cd565b6000815501859062000428565b925081926200041f565b634e487b7160e01b600052602260045260246000fd5b92607f1692620000b8565b600080fd5b601f909101601f19168101906001600160401b038211908210176200037d57604052565b919080601f8401121562000470578251906001600160401b0382116200037d5760405191602091620004d5601f8301601f191684018562000475565b818452828287010111620004705760005b818110620004fc57508260009394955001015290565b8581018301518482018401528201620004e656fe6080604052600436101561001257600080fd5b60003560e01c8062fdd58e1461022657806306fdde0314610221578063095ea7b31461021c57806318160ddd146102175780631c0f12b61461021257806323b872dd1461020d578063313ce567146102085780633644e5151461020357806339509351146101fe5780633a46b1a8146101f95780633fafa127146101f4578063587cde1e146101ef5780635c19a95c146101ea5780636fcfff45146101e557806370a08231146101e0578063715018a6146101db5780637ecebe00146101d6578063836a1040146101d15780638cb0a511146101cc5780638da5cb5b146101c75780638e539e8c146101c257806395d89b41146101bd5780639ab24eb0146101b85780639eea5f66146101b3578063a457c2d7146101ae578063a9059cbb146101a9578063bd85b039146101a4578063c3cda5201461019f578063d505accf1461019a578063dd62ed3e14610195578063f1127ed814610190578063f2fde38b1461018b5763f8548e361461018657600080fd5b6113e3565b6112fe565b61127c565b61121f565b6110db565b610fac565b610f6e565b610f48565b610e76565b610d0f565b610ca5565b610be2565b610a91565b610a6a565b610a14565b6108dd565b610879565b610810565b6107f2565b6107aa565b610788565b61074d565b610712565b6105cf565b610570565b610555565b610539565b610500565b61045d565b61043f565b61040e565b6102e4565b61025c565b600435906001600160a01b038216820361024157565b600080fd5b602435906001600160a01b038216820361024157565b3461024157604060031936011261024157602061029461027a61022b565b6001600160a01b0316600052600060205260406000205490565b604051908152f35b60208082528251818301819052939260005b8581106102d057505050601f19601f8460006040809697860101520116010190565b8181018301518482016040015282016102ae565b346102415760008060031936011261040b5760405190806003549060019180831c92808216928315610401575b60209283861085146103ed5785885260208801949081156103ae5750600114610355575b61035187610345818903826114e4565b6040519182918261029c565b0390f35b600360005294509192917fc2575a0e9e593c00f959f8c92f12db2869c3395a3b0502d05e2516446f71f85b5b83861061039d5750505091019050610345826103513880610335565b805485870152948201948101610381565b7fffffffffffffffffffffffffffffffffffffffffffffffffffffffffffffff001685525050505090151560051b019050610345826103513880610335565b602482634e487b7160e01b81526022600452fd5b93607f1693610311565b80fd5b346102415760406003193601126102415761043461042a61022b565b60243590336117fa565b602060405160018152f35b34610241576000600319360112610241576020600254604051908152f35b3461024157608060031936011261024157610476610246565b604435906001600160a01b0382168203610241577f000000000000000000000000000000000000000000000000000000000000000080151590816104f3575b506104c9576104c79160643591611507565b005b60046040517fcdceed00000000000000000000000000000000000000000000000000000000008152fd5b90506004351415386104b5565b3461024157606060031936011261024157602061052f61051e61022b565b610526610246565b60443591611507565b6040519015158152f35b3461024157600060031936011261024157602060405160128152f35b34610241576000600319360112610241576020610294612375565b346102415760406003193601126102415761058961022b565b3360005260016020526105b3816040600020906001600160a01b0316600052602052604060002090565b5460243581018091116105ca5761043491336117fa565b6115b7565b34610241576040600319360112610241576105e861022b565b6001600160a01b03602435916105ff4384106119d7565b1660005260086020526040600020805491600083600581116106c1575b50905b83821061067057505081610645575050602060005b6001600160e01b0360405191168152f35b61066461066b916106576020946119bb565b9060005260206000200190565b5460201c90565b610634565b909261067c8185612512565b908263ffffffff6106a1610697858860005260206000200190565b5463ffffffff1690565b1611156106b15750925b9061061f565b93506106bc906115cd565b6106ab565b806106d16106d792969396612527565b906119ca565b908263ffffffff6106f2610697858860005260206000200190565b1611156107025750925b3861061c565b935061070d906115cd565b6106fc565b346102415760006003193601126102415760206040517f00000000000000000000000000000000000000000000000000000000000000008152f35b346102415760206003193601126102415760206001600160a01b038061077161022b565b166000526007825260406000205416604051908152f35b34610241576020600319360112610241576104c76107a461022b565b33611c00565b34610241576020600319360112610241576001600160a01b036107cb61022b565b16600052600860205260206107e46040600020546126f7565b63ffffffff60405191168152f35b3461024157602060031936011261024157602061029461027a61022b565b346102415760008060031936011261040b5761082a611439565b806001600160a01b03600a5473ffffffffffffffffffffffffffffffffffffffff198116600a55167f8be0079c531659141344cd1fd0a4f28419497f9722a3daafe3b4186f6b6457e08280a380f35b34610241576020600319360112610241576001600160a01b0361089a61022b565b1660005260056020526020604060002054604051908152f35b600319606091011261024157600435906024356001600160a01b0381168103610241579060443590565b34610241576108eb366108b3565b90916108f5611439565b7f00000000000000000000000000000000000000000000000000000000000000008015159182610a09575b50506104c9576001600160a01b0382169182156109c557816109ab916104c79461095461094f846002546115db565b600255565b610971826001600160a01b03166000526000602052604060002090565b8054840190556040518381526000907fddf252ad1be2c89b69c2b068fc378daa952ba7f163c4a11628f55a4df523b3ef90602090a3611b4f565b6109c06001600160e01b036002541115611a6d565b611f47565b606460405162461bcd60e51b815260206004820152601f60248201527f45524332303a206d696e7420746f20746865207a65726f2061646472657373006044820152fd5b141590503880610920565b3461024157610a22366108b3565b90917f00000000000000000000000000000000000000000000000000000000000000008015159182610a5f575b50506104c9576104c791336117fa565b141590503880610a4f565b346102415760006003193601126102415760206001600160a01b03600a5416604051908152f35b3461024157602060031936011261024157600435610ab04382106119d7565b6009549060008260058111610b7b575b50905b828210610b18578280610add575060405160008152602090f35b61066b610664610aee6020936119bb565b60096000527f6e1540171b6c0c960b71a7020d9f60077f6af931a8bbf590da0223dacf75c7af0190565b9091610b248184612512565b6009600052908263ffffffff610b5b7f6e1540171b6c0c960b71a7020d9f60077f6af931a8bbf590da0223dacf75c7af8501610697565b161115610b6b5750915b90610ac3565b9250610b76906115cd565b610b65565b806106d1610b8b92959395612527565b6009600052908263ffffffff610bc27f6e1540171b6c0c960b71a7020d9f60077f6af931a8bbf590da0223dacf75c7af8501610697565b161115610bd25750915b38610ac0565b9250610bdd906115cd565b610bcc565b346102415760008060031936011261040b5760405190806004549060019180831c92808216928315610c9b575b60209283861085146103ed5785885260208801949081156103ae5750600114610c425761035187610345818903826114e4565b600460005294509192917f8a35acfbc15ff81a39ae7d344fd709f28e8600b4aa8c65c6b64bfe7fe36bd19b5b838610610c8a5750505091019050610345826103513880610335565b805485870152948201948101610c6e565b93607f1693610c0f565b34610241576020600319360112610241576001600160a01b03610cc661022b565b16600052600860205260406000208054908115600014610cee57505060405160008152602090f35b60001982019182116105ca57602091610d069161196b565b5054811c610634565b3461024157610d1d366108b3565b9091610d27611439565b7f00000000000000000000000000000000000000000000000000000000000000008015159182610e6b575b50506104c9576001600160a01b038216918215610e0157818160006104c79583610d92610dfc966001600160a01b03166000526000602052604060002090565b54610d9f82821015611ade565b03610dbd846001600160a01b03166000526000602052604060002090565b55610dcb8460025403600255565b6040518481527fddf252ad1be2c89b69c2b068fc378daa952ba7f163c4a11628f55a4df523b3ef90602090a3611b9a565b612022565b608460405162461bcd60e51b815260206004820152602160248201527f45524332303a206275726e2066726f6d20746865207a65726f2061646472657360448201527f73000000000000000000000000000000000000000000000000000000000000006064820152fd5b141590503880610d52565b3461024157604060031936011261024157610e8f61022b565b60243590336000526001602052610ebd816040600020906001600160a01b0316600052602052604060002090565b5491808310610ede57610ed2920390336117fa565b60405160018152602090f35b608460405162461bcd60e51b815260206004820152602560248201527f45524332303a2064656372656173656420616c6c6f77616e63652062656c6f7760448201527f207a65726f0000000000000000000000000000000000000000000000000000006064820152fd5b3461024157604060031936011261024157610434610f6461022b565b60243590336116ca565b34610241576020600319360112610241576020600254604051908152f35b6064359060ff8216820361024157565b6084359060ff8216820361024157565b346102415760c060031936011261024157610fc561022b565b60443590602435610fd4610f8c565b9280421161109757611065611092916104c7956040519061104d8261103f6020820195898b886060919493926001600160a01b0360808301967fe48329057bfd03d55e49b547132e39cffd9c1820ad7b9d4c5307691425d15adf845216602083015260408201520152565b03601f1981018452836114e4565b61106060a435936084359351902061248f565b612171565b9161108c836001600160a01b03166000526005602052604060002090815491600183019055565b14611a22565b611c00565b606460405162461bcd60e51b815260206004820152601d60248201527f4552433230566f7465733a207369676e617475726520657870697265640000006044820152fd5b346102415760e0600319360112610241576110f461022b565b6110fc610246565b604435906064359261110c610f9c565b938042116111db576111c36111d69161103f6104c7976111b061114b876001600160a01b03166000526005602052604060002090815491600183019055565b9360405193849160208301968c8c8c8a91959493909260a09360c08401977f6e71edae12b1b97f4d1f60370fef10105fa2faae0126114a169c64845d6126c985526001600160a01b038092166020860152166040840152606083015260808201520152565b61106060c4359360a4359351902061248f565b6001600160a01b03808416911614612126565b6117fa565b606460405162461bcd60e51b815260206004820152601d60248201527f45524332305065726d69743a206578706972656420646561646c696e650000006044820152fd5b3461024157604060031936011261024157602061127361123d61022b565b6001600160a01b0361124d610246565b9116600052600183526040600020906001600160a01b0316600052602052604060002090565b54604051908152f35b346102415760406003193601126102415761129561022b565b63ffffffff60243581811681036102415760206112ec6112e66001600160e01b03936001600160a01b036040976000868a516112d0816114a7565b828152015216600052600884528660002061196b565b50611999565b84519381511684520151166020820152f35b346102415760206003193601126102415761131761022b565b61131f611439565b6001600160a01b0380911690811561137957600a548273ffffffffffffffffffffffffffffffffffffffff19821617600a55167f8be0079c531659141344cd1fd0a4f28419497f9722a3daafe3b4186f6b6457e0600080a3005b608460405162461bcd60e51b815260206004820152602660248201527f4f776e61626c653a206e6577206f776e657220697320746865207a65726f206160448201527f64647265737300000000000000000000000000000000000000000000000000006064820152fd5b34610241576113f1366108b3565b90917f0000000000000000000000000000000000000000000000000000000000000000801515918261142e575b50506104c9576104c791336116ca565b14159050388061141e565b6001600160a01b03600a5416330361144d57565b606460405162461bcd60e51b815260206004820152602060248201527f4f776e61626c653a2063616c6c6572206973206e6f7420746865206f776e65726044820152fd5b634e487b7160e01b600052604160045260246000fd5b6040810190811067ffffffffffffffff8211176114c357604052565b611491565b60c0810190811067ffffffffffffffff8211176114c357604052565b90601f601f19910116810190811067ffffffffffffffff8211176114c357604052565b91906001600160a01b038316600052600160205261153c336040600020906001600160a01b0316600052602052604060002090565b54926000198403611557575b61155293506116ca565b600190565b8284106115735761156e83611552950333836117fa565b611548565b606460405162461bcd60e51b815260206004820152601d60248201527f45524332303a20696e73756666696369656e7420616c6c6f77616e63650000006044820152fd5b634e487b7160e01b600052601160045260246000fd5b90600182018092116105ca57565b919082018092116105ca57565b156115ef57565b608460405162461bcd60e51b815260206004820152602360248201527f45524332303a207472616e7366657220746f20746865207a65726f206164647260448201527f65737300000000000000000000000000000000000000000000000000000000006064820152fd5b1561166057565b608460405162461bcd60e51b815260206004820152602660248201527f45524332303a207472616e7366657220616d6f756e742065786365656473206260448201527f616c616e636500000000000000000000000000000000000000000000000000006064820152fd5b91906001600160a01b039283811680156117905761178e948316906116f08215156115e8565b8461170e846001600160a01b03166000526000602052604060002090565b5461171b82821015611659565b03611739846001600160a01b03166000526000602052604060002090565b55611757846001600160a01b03166000526000602052604060002090565b8054860190556040518581527fddf252ad1be2c89b69c2b068fc378daa952ba7f163c4a11628f55a4df523b3ef90602090a3611bcc565b565b608460405162461bcd60e51b815260206004820152602560248201527f45524332303a207472616e736665722066726f6d20746865207a65726f20616460448201527f64726573730000000000000000000000000000000000000000000000000000006064820152fd5b906001600160a01b03918281169283156118f557821693841561188b57806118757f8c5be1e5ebec7d5bd14f71427d1e84f3dd0314c0f7b2291e5b200ac8c7c3b9259461185d611886956001600160a01b03166000526001602052604060002090565b906001600160a01b0316600052602052604060002090565b556040519081529081906020820190565b0390a3565b608460405162461bcd60e51b815260206004820152602260248201527f45524332303a20617070726f766520746f20746865207a65726f20616464726560448201527f73730000000000000000000000000000000000000000000000000000000000006064820152fd5b608460405162461bcd60e51b8152602060048201526024808201527f45524332303a20617070726f76652066726f6d20746865207a65726f2061646460448201527f72657373000000000000000000000000000000000000000000000000000000006064820152fd5b6040519061178e826114a7565b80548210156119835760005260206000200190600090565b634e487b7160e01b600052603260045260246000fd5b906040516119a6816114a7565b602081935463ffffffff81168352811c910152565b9060001982019182116105ca57565b919082039182116105ca57565b156119de57565b606460405162461bcd60e51b815260206004820152601f60248201527f4552433230566f7465733a20626c6f636b206e6f7420796574206d696e6564006044820152fd5b15611a2957565b606460405162461bcd60e51b815260206004820152601960248201527f4552433230566f7465733a20696e76616c6964206e6f6e6365000000000000006044820152fd5b15611a7457565b608460405162461bcd60e51b815260206004820152603060248201527f4552433230566f7465733a20746f74616c20737570706c79207269736b73206f60448201527f766572666c6f77696e6720766f746573000000000000000000000000000000006064820152fd5b15611ae557565b608460405162461bcd60e51b815260206004820152602260248201527f45524332303a206275726e20616d6f756e7420657863656564732062616c616e60448201527f63650000000000000000000000000000000000000000000000000000000000006064820152fd5b60076020527f6d5257204ebe7d88fd91ae87941cb2dd9d8062b64ae5a2bd2d28ec40b9fbf6df546001600160a01b039182166000908152604090205461178e93929081169116611c7b565b9061178e916001600160a01b038091166000526007602052806040600020541690600080526040600020541690611c7b565b9061178e92916001600160a01b03809116600052600760205280806040600020541692166000526040600020541690611c7b565b61178e916001600160a01b038092166000928184526007602052806040852054168092856020527f3134e8a2e6d97e929a7e54011ea5485d7d196dd5f0ba4d4ef95803e8e3fc257f604087205496600760205260408120948716948573ffffffffffffffffffffffffffffffffffffffff1982541617905580a45b91906001600160a01b0380821693168381141580611e73575b611c9f575b50505050565b80611d12575b5082611cb2575b80611c99565b7fdec2bacdd2f05b59de34da9b523dff8be42e5e38e818c82fdb0bae774387a72491611cf4611cf9926001600160a01b03166000526008602052604060002090565b612079565b60408051928352602083019190915290a2388080611cac565b8060005260086020527fdec2bacdd2f05b59de34da9b523dff8be42e5e38e818c82fdb0bae774387a7246040600020805480159182600014611e4c57611d5661195e565b6000815260006020820152915b611d86611d7a60208501516001600160e01b031690565b6001600160e01b031690565b92611d918985612772565b94159081611e35575b5015611de957611db9611dd392610657611db387612679565b936119bb565b9063ffffffff63ffffffff1983549260201b169116179055565b604080519182526020820192909252a238611ca5565b50611e3090611df7436126f7565b90611e2b611e0486612679565b611e1b611e0f61195e565b63ffffffff9095168552565b6001600160e01b03166020840152565b611ee8565b611dd3565b5163ffffffff16905063ffffffff16431438611d9a565b611e6d611e68611e5b846119bb565b8360005260206000200190565b611999565b91611d63565b50821515611c94565b60095490680100000000000000008210156114c3576001820180600955821015611983576009600052805160209182015190911b63ffffffff191663ffffffff91909116177f6e1540171b6c0c960b71a7020d9f60077f6af931a8bbf590da0223dacf75c7af90910155565b8054680100000000000000008110156114c357611f0a9160018201815561196b565b611f3157815160209283015190921b63ffffffff191663ffffffff92909216919091179055565b634e487b7160e01b600052600060045260246000fd5b6009549091811591821561200e57611f5d61195e565b60008152600060208201525b611f8a611f83611d7a60208401516001600160e01b031690565b958661277f565b93159081611ff7575b5015611fb25761178e90611db9610aee611fac86612679565b926119bb565b5061178e611fbf436126f7565b611ff2611fcb85612679565b611fe2611fd661195e565b63ffffffff9094168452565b6001600160e01b03166020830152565b611e7c565b5163ffffffff16905063ffffffff16431438611f93565b61201d611e68610aee836119bb565b611f69565b600954909181159182156120655761203861195e565b60008152600060208201525b611f8a61205e611d7a60208401516001600160e01b031690565b9586612772565b612074611e68610aee836119bb565b612044565b9091815491821592836000146121055761209161195e565b60008152600060208201525b6120be6120b7611d7a60208401516001600160e01b031690565b968761277f565b941590816120ee575b50156120e057611db961178e92610657611db387612679565b5061178e90611df7436126f7565b5163ffffffff16905063ffffffff164314386120c7565b612121611e68612114836119bb565b8460005260206000200190565b61209d565b1561212d57565b606460405162461bcd60e51b815260206004820152601e60248201527f45524332305065726d69743a20696e76616c6964207369676e617475726500006044820152fd5b916121889391612180936122e6565b9190916121ab565b90565b6005111561219557565b634e487b7160e01b600052602160045260246000fd5b6121b48161218b565b806121bc5750565b6121c58161218b565b600181036122125760405162461bcd60e51b815260206004820152601860248201527f45434453413a20696e76616c6964207369676e617475726500000000000000006044820152606490fd5b61221b8161218b565b600281036122685760405162461bcd60e51b815260206004820152601f60248201527f45434453413a20696e76616c6964207369676e6174757265206c656e677468006044820152606490fd5b8061227460039261218b565b1461227b57565b60405162461bcd60e51b815260206004820152602260248201527f45434453413a20696e76616c6964207369676e6174757265202773272076616c60448201527f75650000000000000000000000000000000000000000000000000000000000006064820152608490fd5b9291907f7fffffffffffffffffffffffffffffff5d576e7357a4501ddfe92f46681b20a083116123695791608094939160ff602094604051948552168484015260408301526060820152600093849182805260015afa1561235c5781516001600160a01b03811615612356579190565b50600190565b50604051903d90823e3d90fd5b50505050600090600390565b6001600160a01b037f000000000000000000000000000000000000000000000000000000000000000016301480612466575b156123d0577f000000000000000000000000000000000000000000000000000000000000000090565b60405160208101907f000000000000000000000000000000000000000000000000000000000000000082527f000000000000000000000000000000000000000000000000000000000000000060408201527f000000000000000000000000000000000000000000000000000000000000000060608201524660808201523060a082015260a08152612460816114c8565b51902090565b507f000000000000000000000000000000000000000000000000000000000000000046146123a7565b612497612375565b906040519060208201927f1901000000000000000000000000000000000000000000000000000000000000845260228301526042820152604281526080810181811067ffffffffffffffff8211176114c35760405251902090565b81156124fc570490565b634e487b7160e01b600052601260045260246000fd5b90808216911860011c81018091116105ca5790565b801561266157806125fa6125f36125e96125df6125d56125cb6125c16125b760016121889a6000908b60801c80612655575b508060401c80612648575b508060201c8061263b575b508060101c8061262e575b508060081c80612621575b508060041c80612614575b508060021c80612607575b50821c612600575b811c1b6125b0818b6124f2565b0160011c90565b6125b0818a6124f2565b6125b081896124f2565b6125b081886124f2565b6125b081876124f2565b6125b081866124f2565b6125b081856124f2565b80926124f2565b90612667565b81016125a3565b600291509101903861259b565b6004915091019038612590565b6008915091019038612585565b601091509101903861257a565b602091509101903861256f565b6040915091019038612564565b91505060809038612559565b50600090565b9080821015612674575090565b905090565b6001600160e01b039081811161268d571690565b608460405162461bcd60e51b815260206004820152602760248201527f53616665436173743a2076616c756520646f65736e27742066697420696e203260448201527f32342062697473000000000000000000000000000000000000000000000000006064820152fd5b63ffffffff90818111612708571690565b608460405162461bcd60e51b815260206004820152602660248201527f53616665436173743a2076616c756520646f65736e27742066697420696e203360448201527f32206269747300000000000000000000000000000000000000000000000000006064820152fd5b9081039081116105ca5790565b9081018091116105ca579056fea2646970667358221220784f563afa1b6b8adac469f1794c5e2bff78e52a415657641f87c2910b4f561b64736f6c63430008140033",
    "linkReferences": {}
  },
  "methodIdentifiers": {
    "DOMAIN_SEPARATOR()": "3644e515",
    "allowance(address,address)": "dd62ed3e",
    "approve(address,uint256)": "095ea7b3",
    "approve(uint256,address,uint256)": "8cb0a511",
    "balanceOf(address)": "70a08231",
    "balanceOf(address,uint256)": "00fdd58e",
    "burn(uint256,address,uint256)": "9eea5f66",
    "checkpoints(address,uint32)": "f1127ed8",
    "decimals()": "313ce567",
    "decreaseAllowance(address,uint256)": "a457c2d7",
    "delegate(address)": "5c19a95c",
    "delegateBySig(address,uint256,uint256,uint8,bytes32,bytes32)": "c3cda520",
    "delegates(address)": "587cde1e",
    "getPastTotalSupply(uint256)": "8e539e8c",
    "getPastVotes(address,uint256)": "3a46b1a8",
    "getVotes(address)": "9ab24eb0",
    "increaseAllowance(address,uint256)": "39509351",
    "mint(uint256,address,uint256)": "836a1040",
    "name()": "06fdde03",
    "nonces(address)": "7ecebe00",
    "numCheckpoints(address)": "6fcfff45",
    "owner()": "8da5cb5b",
    "permit(address,address,uint256,uint256,uint8,bytes32,bytes32)": "d505accf",
    "projectId()": "3fafa127",
    "renounceOwnership()": "715018a6",
    "symbol()": "95d89b41",
    "totalSupply()": "18160ddd",
    "totalSupply(uint256)": "bd85b039",
    "transfer(address,uint256)": "a9059cbb",
    "transfer(uint256,address,uint256)": "f8548e36",
    "transferFrom(address,address,uint256)": "23b872dd",
    "transferFrom(uint256,address,address,uint256)": "1c0f12b6",
    "transferOwnership(address)": "f2fde38b"
  },
  "id": 77
}