{
  "abi": [
    {
      "inputs": [
        {
          "internalType": "string",
          "name": "_name",
          "type": "string"
        },
        {
          "internalType": "string",
          "name": "_symbol",
          "type": "string"
        },
        {
          "internalType": "uint256",
          "name": "_projectId",
          "type": "uint256"
        }
      ],
      "stateMutability": "nonpayable",
      "type": "constructor"
    },
    {
      "inputs": [],
      "name": "BAD_PROJECT",
      "type": "error"
    },
    {
      "inputs": [],
      "name": "InvalidShortString",
      "type": "error"
    },
    {
      "inputs": [
        {
          "internalType": "string",
          "name": "str",
          "type": "string"
        }
      ],
      "name": "StringTooLong",
      "type": "error"
    },
    {
      "anonymous": false,
      "inputs": [
        {
          "indexed": true,
          "internalType": "address",
          "name": "owner",
          "type": "address"
        },
        {
          "indexed": true,
          "internalType": "address",
          "name": "spender",
          "type": "address"
        },
        {
          "indexed": false,
          "internalType": "uint256",
          "name": "value",
          "type": "uint256"
        }
      ],
      "name": "Approval",
      "type": "event"
    },
    {
      "anonymous": false,
      "inputs": [
        {
          "indexed": true,
          "internalType": "address",
          "name": "delegator",
          "type": "address"
        },
        {
          "indexed": true,
          "internalType": "address",
          "name": "fromDelegate",
          "type": "address"
        },
        {
          "indexed": true,
          "internalType": "address",
          "name": "toDelegate",
          "type": "address"
        }
      ],
      "name": "DelegateChanged",
      "type": "event"
    },
    {
      "anonymous": false,
      "inputs": [
        {
          "indexed": true,
          "internalType": "address",
          "name": "delegate",
          "type": "address"
        },
        {
          "indexed": false,
          "internalType": "uint256",
          "name": "previousBalance",
          "type": "uint256"
        },
        {
          "indexed": false,
          "internalType": "uint256",
          "name": "newBalance",
          "type": "uint256"
        }
      ],
      "name": "DelegateVotesChanged",
      "type": "event"
    },
    {
      "anonymous": false,
      "inputs": [],
      "name": "EIP712DomainChanged",
      "type": "event"
    },
    {
      "anonymous": false,
      "inputs": [
        {
          "indexed": true,
          "internalType": "address",
          "name": "previousOwner",
          "type": "address"
        },
        {
          "indexed": true,
          "internalType": "address",
          "name": "newOwner",
          "type": "address"
        }
      ],
      "name": "OwnershipTransferred",
      "type": "event"
    },
    {
      "anonymous": false,
      "inputs": [
        {
          "indexed": true,
          "internalType": "address",
          "name": "from",
          "type": "address"
        },
        {
          "indexed": true,
          "internalType": "address",
          "name": "to",
          "type": "address"
        },
        {
          "indexed": false,
          "internalType": "uint256",
          "name": "value",
          "type": "uint256"
        }
      ],
      "name": "Transfer",
      "type": "event"
    },
    {
      "inputs": [],
      "name": "CLOCK_MODE",
      "outputs": [
        {
          "internalType": "string",
          "name": "",
          "type": "string"
        }
      ],
      "stateMutability": "view",
      "type": "function"
    },
    {
      "inputs": [],
      "name": "DOMAIN_SEPARATOR",
      "outputs": [
        {
          "internalType": "bytes32",
          "name": "",
          "type": "bytes32"
        }
      ],
      "stateMutability": "view",
      "type": "function"
    },
    {
      "inputs": [
        {
          "internalType": "address",
          "name": "owner",
          "type": "address"
        },
        {
          "internalType": "address",
          "name": "spender",
          "type": "address"
        }
      ],
      "name": "allowance",
      "outputs": [
        {
          "internalType": "uint256",
          "name": "",
          "type": "uint256"
        }
      ],
      "stateMutability": "view",
      "type": "function"
    },
    {
      "inputs": [
        {
          "internalType": "address",
          "name": "spender",
          "type": "address"
        },
        {
          "internalType": "uint256",
          "name": "amount",
          "type": "uint256"
        }
      ],
      "name": "approve",
      "outputs": [
        {
          "internalType": "bool",
          "name": "",
          "type": "bool"
        }
      ],
      "stateMutability": "nonpayable",
      "type": "function"
    },
    {
      "inputs": [
        {
          "internalType": "uint256",
          "name": "_projectId",
          "type": "uint256"
        },
        {
          "internalType": "address",
          "name": "_spender",
          "type": "address"
        },
        {
          "internalType": "uint256",
          "name": "_amount",
          "type": "uint256"
        }
      ],
      "name": "approve",
      "outputs": [],
      "stateMutability": "nonpayable",
      "type": "function"
    },
    {
      "inputs": [
        {
          "internalType": "address",
          "name": "_account",
          "type": "address"
        },
        {
          "internalType": "uint256",
          "name": "_projectId",
          "type": "uint256"
        }
      ],
      "name": "balanceOf",
      "outputs": [
        {
          "internalType": "uint256",
          "name": "",
          "type": "uint256"
        }
      ],
      "stateMutability": "view",
      "type": "function"
    },
    {
      "inputs": [
        {
          "internalType": "address",
          "name": "account",
          "type": "address"
        }
      ],
      "name": "balanceOf",
      "outputs": [
        {
          "internalType": "uint256",
          "name": "",
          "type": "uint256"
        }
      ],
      "stateMutability": "view",
      "type": "function"
    },
    {
      "inputs": [
        {
          "internalType": "uint256",
          "name": "_projectId",
          "type": "uint256"
        },
        {
          "internalType": "address",
          "name": "_account",
          "type": "address"
        },
        {
          "internalType": "uint256",
          "name": "_amount",
          "type": "uint256"
        }
      ],
      "name": "burn",
      "outputs": [],
      "stateMutability": "nonpayable",
      "type": "function"
    },
    {
      "inputs": [
        {
          "internalType": "address",
          "name": "account",
          "type": "address"
        },
        {
          "internalType": "uint32",
          "name": "pos",
          "type": "uint32"
        }
      ],
      "name": "checkpoints",
      "outputs": [
        {
          "components": [
            {
              "internalType": "uint32",
              "name": "fromBlock",
              "type": "uint32"
            },
            {
              "internalType": "uint224",
              "name": "votes",
              "type": "uint224"
            }
          ],
          "internalType": "struct ERC20Votes.Checkpoint",
          "name": "",
          "type": "tuple"
        }
      ],
      "stateMutability": "view",
      "type": "function"
    },
    {
      "inputs": [],
      "name": "clock",
      "outputs": [
        {
          "internalType": "uint48",
          "name": "",
          "type": "uint48"
        }
      ],
      "stateMutability": "view",
      "type": "function"
    },
    {
      "inputs": [],
      "name": "decimals",
      "outputs": [
        {
          "internalType": "uint8",
          "name": "",
          "type": "uint8"
        }
      ],
      "stateMutability": "view",
      "type": "function"
    },
    {
      "inputs": [
        {
          "internalType": "address",
          "name": "spender",
          "type": "address"
        },
        {
          "internalType": "uint256",
          "name": "subtractedValue",
          "type": "uint256"
        }
      ],
      "name": "decreaseAllowance",
      "outputs": [
        {
          "internalType": "bool",
          "name": "",
          "type": "bool"
        }
      ],
      "stateMutability": "nonpayable",
      "type": "function"
    },
    {
      "inputs": [
        {
          "internalType": "address",
          "name": "delegatee",
          "type": "address"
        }
      ],
      "name": "delegate",
      "outputs": [],
      "stateMutability": "nonpayable",
      "type": "function"
    },
    {
      "inputs": [
        {
          "internalType": "address",
          "name": "delegatee",
          "type": "address"
        },
        {
          "internalType": "uint256",
          "name": "nonce",
          "type": "uint256"
        },
        {
          "internalType": "uint256",
          "name": "expiry",
          "type": "uint256"
        },
        {
          "internalType": "uint8",
          "name": "v",
          "type": "uint8"
        },
        {
          "internalType": "bytes32",
          "name": "r",
          "type": "bytes32"
        },
        {
          "internalType": "bytes32",
          "name": "s",
          "type": "bytes32"
        }
      ],
      "name": "delegateBySig",
      "outputs": [],
      "stateMutability": "nonpayable",
      "type": "function"
    },
    {
      "inputs": [
        {
          "internalType": "address",
          "name": "account",
          "type": "address"
        }
      ],
      "name": "delegates",
      "outputs": [
        {
          "internalType": "address",
          "name": "",
          "type": "address"
        }
      ],
      "stateMutability": "view",
      "type": "function"
    },
    {
      "inputs": [],
      "name": "eip712Domain",
      "outputs": [
        {
          "internalType": "bytes1",
          "name": "fields",
          "type": "bytes1"
        },
        {
          "internalType": "string",
          "name": "name",
          "type": "string"
        },
        {
          "internalType": "string",
          "name": "version",
          "type": "string"
        },
        {
          "internalType": "uint256",
          "name": "chainId",
          "type": "uint256"
        },
        {
          "internalType": "address",
          "name": "verifyingContract",
          "type": "address"
        },
        {
          "internalType": "bytes32",
          "name": "salt",
          "type": "bytes32"
        },
        {
          "internalType": "uint256[]",
          "name": "extensions",
          "type": "uint256[]"
        }
      ],
      "stateMutability": "view",
      "type": "function"
    },
    {
      "inputs": [
        {
          "internalType": "uint256",
          "name": "timepoint",
          "type": "uint256"
        }
      ],
      "name": "getPastTotalSupply",
      "outputs": [
        {
          "internalType": "uint256",
          "name": "",
          "type": "uint256"
        }
      ],
      "stateMutability": "view",
      "type": "function"
    },
    {
      "inputs": [
        {
          "internalType": "address",
          "name": "account",
          "type": "address"
        },
        {
          "internalType": "uint256",
          "name": "timepoint",
          "type": "uint256"
        }
      ],
      "name": "getPastVotes",
      "outputs": [
        {
          "internalType": "uint256",
          "name": "",
          "type": "uint256"
        }
      ],
      "stateMutability": "view",
      "type": "function"
    },
    {
      "inputs": [
        {
          "internalType": "address",
          "name": "account",
          "type": "address"
        }
      ],
      "name": "getVotes",
      "outputs": [
        {
          "internalType": "uint256",
          "name": "",
          "type": "uint256"
        }
      ],
      "stateMutability": "view",
      "type": "function"
    },
    {
      "inputs": [
        {
          "internalType": "address",
          "name": "spender",
          "type": "address"
        },
        {
          "internalType": "uint256",
          "name": "addedValue",
          "type": "uint256"
        }
      ],
      "name": "increaseAllowance",
      "outputs": [
        {
          "internalType": "bool",
          "name": "",
          "type": "bool"
        }
      ],
      "stateMutability": "nonpayable",
      "type": "function"
    },
    {
      "inputs": [
        {
          "internalType": "uint256",
          "name": "_projectId",
          "type": "uint256"
        },
        {
          "internalType": "address",
          "name": "_account",
          "type": "address"
        },
        {
          "internalType": "uint256",
          "name": "_amount",
          "type": "uint256"
        }
      ],
      "name": "mint",
      "outputs": [],
      "stateMutability": "nonpayable",
      "type": "function"
    },
    {
      "inputs": [],
      "name": "name",
      "outputs": [
        {
          "internalType": "string",
          "name": "",
          "type": "string"
        }
      ],
      "stateMutability": "view",
      "type": "function"
    },
    {
      "inputs": [
        {
          "internalType": "address",
          "name": "owner",
          "type": "address"
        }
      ],
      "name": "nonces",
      "outputs": [
        {
          "internalType": "uint256",
          "name": "",
          "type": "uint256"
        }
      ],
      "stateMutability": "view",
      "type": "function"
    },
    {
      "inputs": [
        {
          "internalType": "address",
          "name": "account",
          "type": "address"
        }
      ],
      "name": "numCheckpoints",
      "outputs": [
        {
          "internalType": "uint32",
          "name": "",
          "type": "uint32"
        }
      ],
      "stateMutability": "view",
      "type": "function"
    },
    {
      "inputs": [],
      "name": "owner",
      "outputs": [
        {
          "internalType": "address",
          "name": "",
          "type": "address"
        }
      ],
      "stateMutability": "view",
      "type": "function"
    },
    {
      "inputs": [
        {
          "internalType": "address",
          "name": "owner",
          "type": "address"
        },
        {
          "internalType": "address",
          "name": "spender",
          "type": "address"
        },
        {
          "internalType": "uint256",
          "name": "value",
          "type": "uint256"
        },
        {
          "internalType": "uint256",
          "name": "deadline",
          "type": "uint256"
        },
        {
          "internalType": "uint8",
          "name": "v",
          "type": "uint8"
        },
        {
          "internalType": "bytes32",
          "name": "r",
          "type": "bytes32"
        },
        {
          "internalType": "bytes32",
          "name": "s",
          "type": "bytes32"
        }
      ],
      "name": "permit",
      "outputs": [],
      "stateMutability": "nonpayable",
      "type": "function"
    },
    {
      "inputs": [],
      "name": "projectId",
      "outputs": [
        {
          "internalType": "uint256",
          "name": "",
          "type": "uint256"
        }
      ],
      "stateMutability": "view",
      "type": "function"
    },
    {
      "inputs": [],
      "name": "renounceOwnership",
      "outputs": [],
      "stateMutability": "nonpayable",
      "type": "function"
    },
    {
      "inputs": [],
      "name": "symbol",
      "outputs": [
        {
          "internalType": "string",
          "name": "",
          "type": "string"
        }
      ],
      "stateMutability": "view",
      "type": "function"
    },
    {
      "inputs": [],
      "name": "totalSupply",
      "outputs": [
        {
          "internalType": "uint256",
          "name": "",
          "type": "uint256"
        }
      ],
      "stateMutability": "view",
      "type": "function"
    },
    {
      "inputs": [
        {
          "internalType": "uint256",
          "name": "_projectId",
          "type": "uint256"
        }
      ],
      "name": "totalSupply",
      "outputs": [
        {
          "internalType": "uint256",
          "name": "",
          "type": "uint256"
        }
      ],
      "stateMutability": "view",
      "type": "function"
    },
    {
      "inputs": [
        {
          "internalType": "address",
          "name": "to",
          "type": "address"
        },
        {
          "internalType": "uint256",
          "name": "amount",
          "type": "uint256"
        }
      ],
      "name": "transfer",
      "outputs": [
        {
          "internalType": "bool",
          "name": "",
          "type": "bool"
        }
      ],
      "stateMutability": "nonpayable",
      "type": "function"
    },
    {
      "inputs": [
        {
          "internalType": "uint256",
          "name": "_projectId",
          "type": "uint256"
        },
        {
          "internalType": "address",
          "name": "_to",
          "type": "address"
        },
        {
          "internalType": "uint256",
          "name": "_amount",
          "type": "uint256"
        }
      ],
      "name": "transfer",
      "outputs": [],
      "stateMutability": "nonpayable",
      "type": "function"
    },
    {
      "inputs": [
        {
          "internalType": "uint256",
          "name": "_projectId",
          "type": "uint256"
        },
        {
          "internalType": "address",
          "name": "_from",
          "type": "address"
        },
        {
          "internalType": "address",
          "name": "_to",
          "type": "address"
        },
        {
          "internalType": "uint256",
          "name": "_amount",
          "type": "uint256"
        }
      ],
      "name": "transferFrom",
      "outputs": [],
      "stateMutability": "nonpayable",
      "type": "function"
    },
    {
      "inputs": [
        {
          "internalType": "address",
          "name": "from",
          "type": "address"
        },
        {
          "internalType": "address",
          "name": "to",
          "type": "address"
        },
        {
          "internalType": "uint256",
          "name": "amount",
          "type": "uint256"
        }
      ],
      "name": "transferFrom",
      "outputs": [
        {
          "internalType": "bool",
          "name": "",
          "type": "bool"
        }
      ],
      "stateMutability": "nonpayable",
      "type": "function"
    },
    {
      "inputs": [
        {
          "internalType": "address",
          "name": "newOwner",
          "type": "address"
        }
      ],
      "name": "transferOwnership",
      "outputs": [],
      "stateMutability": "nonpayable",
      "type": "function"
    }
  ],
  "bytecode": {
    "object": "0x61018060408181523462000495576200326280380380916200002282866200049a565b84398201606083820312620004955782516001600160401b03929083811162000495578262000053918601620004e3565b90602092838601518581116200049557829162000072918801620004e3565b9501519281519082820182811087821117620003a057835260019283835281830193603160f81b85528551888111620003a05760038054918383811c931680156200048a575b868410146200047457601f9283811162000429575b508086848211600114620003c257600091620003b6575b5060001982841b1c191690841b1781555b8a51918a8311620003a05760049b8c548581811c9116801562000395575b88821014620003805782811162000335575b5086918411600114620002ca57938394918492600095620002be575b50501b92600019911b1c19161788555b6200015c856200053e565b936101209485526200016e84620006e3565b95610140968752838151910120938460e0525190209761010098808a524660a0528251938401947f8b73c3c69bb8fe3d512ecc4cf759cc79239f7b179b0ffacaa9a75d522b39400f86528385015260608401524660808401523060a084015260a0835260c083019783891090891117620002a957508690525190206080523060c052600c8054336001600160a01b0319821681179092556001600160a01b03167f8be0079c531659141344cd1fd0a4f28419497f9722a3daafe3b4186f6b6457e0600080a3610160928352612a2794856200083b863960805185612461015260a0518561251c015260c0518561242b015260e051856124b0015251846124d601525183610ab301525182610adc015251818181610484015281816107100152818161098401528181610ba201528181610e4e01526114c70152f35b604190634e487b7160e01b6000525260246000fd5b01519350388062000141565b9190601f198416928d60005284886000209460005b8a898383106200031d575050501062000302575b50505050811b01885562000151565b01519060f884600019921b161c1916905538808080620002f3565b868601518955909701969485019488935001620002df565b8d600052876000208380870160051c8201928a881062000376575b0160051c019086905b8281106200036957505062000125565b6000815501869062000359565b9250819262000350565b60228e634e487b7160e01b6000525260246000fd5b90607f169062000113565b634e487b7160e01b600052604160045260246000fd5b905089015138620000e4565b60008481528881208794509190601f198416908a8e5b83831062000411575050508311620003f8575b5050811b018155620000f5565b8b015160001983861b60f8161c191690553880620003eb565b840151855589969094019392830192018a8e620003d8565b82600052866000208480840160051c8201928985106200046a575b0160051c019085905b8281106200045d575050620000cd565b600081550185906200044d565b9250819262000444565b634e487b7160e01b600052602260045260246000fd5b92607f1692620000b8565b600080fd5b601f909101601f19168101906001600160401b03821190821017620003a057604052565b60005b838110620004d25750506000910152565b8181015183820152602001620004c1565b81601f82011215620004955780516001600160401b038111620003a057604051926200051a601f8301601f1916602001856200049a565b8184526020828401011162000495576200053b9160208085019101620004be565b90565b80516020919082811015620005be575090601f8251116200057c57808251920151908083106200056d57501790565b82600019910360031b1b161790565b604490620005b09260405193849263305a27a960e01b845280600485015282519283918260248701528686019101620004be565b601f01601f19168101030190fd5b6001600160401b038111620003a0576005928354926001938481811c91168015620006d8575b838210146200047457601f8111620006a1575b5081601f84116001146200063757509282939183926000946200062b575b50501b916000199060031b1c191617905560ff90565b01519250388062000615565b919083601f1981168760005284600020946000905b888383106200068657505050106200066c575b505050811b01905560ff90565b015160001960f88460031b161c191690553880806200065f565b8587015188559096019594850194879350908101906200064c565b8560005284601f846000209201871c820191601f8601881c015b828110620006cb575050620005f7565b60008155018590620006bb565b90607f1690620005e4565b805160209081811015620007105750601f8251116200057c57808251920151908083106200056d57501790565b906001600160401b038211620003a057600654926001938481811c911680156200082f575b838210146200047457601f8111620007f5575b5081601f84116001146200078957509282939183926000946200077d575b50501b916000199060031b1c19161760065560ff90565b01519250388062000766565b919083601f198116600660005284600020946000905b88838310620007da5750505010620007c0575b505050811b0160065560ff90565b015160001960f88460031b161c19169055388080620007b2565b8587015188559096019594850194879350908101906200079f565b600660005284601f84600020920160051c820191601f860160051c015b8281106200082257505062000748565b6000815501859062000812565b90607f16906200073556fe6080604052600436101561001257600080fd5b60003560e01c8062fdd58e1461025657806306fdde0314610251578063095ea7b31461024c57806318160ddd146102475780631c0f12b61461024257806323b872dd1461023d578063313ce567146102385780633644e51514610233578063395093511461022e5780633a46b1a8146102295780633fafa127146102245780634bf5d7e91461021f578063587cde1e1461021a5780635c19a95c146102155780636fcfff451461021057806370a082311461020b578063715018a6146102065780637ecebe0014610201578063836a1040146101fc57806384b0196e146101f75780638cb0a511146101f25780638da5cb5b146101ed5780638e539e8c146101e857806391ddadf4146101e357806395d89b41146101de5780639ab24eb0146101d95780639eea5f66146101d4578063a457c2d7146101cf578063a9059cbb146101ca578063bd85b039146101c5578063c3cda520146101c0578063d505accf146101bb578063dd62ed3e146101b6578063f1127ed8146101b1578063f2fde38b146101ac5763f8548e36146101a757600080fd5b6114b5565b6113ec565b611365565b61130d565b6111c7565b61109c565b61105e565b611038565b610f7e565b610e34565b610dd2565b610d2b565b610cff565b610c0f565b610be6565b610b90565b610a98565b61096a565b610906565b6108a8565b61088a565b610842565b610820565b6107e5565b610733565b6106f8565b6105a7565b61054f565b610534565b610518565b6104df565b610455565b610437565b610406565b610321565b61028c565b600435906001600160a01b038216820361027157565b600080fd5b602435906001600160a01b038216820361027157565b346102715760403660031901126102715760206102c56102aa61025b565b6001600160a01b031660009081526020819052604090205490565b604051908152f35b919082519283825260005b8481106102f9575050826000602080949584010152601f8019910116010190565b6020818301810151848301820152016102d8565b90602061031e9281815201906102cd565b90565b346102715760008060031936011261040357604051908060035461034481611563565b808552916001918083169081156103d9575060011461037e575b61037a8561036e8187038261160c565b6040519182918261030d565b0390f35b9250600383527fc2575a0e9e593c00f959f8c92f12db2869c3395a3b0502d05e2516446f71f85b5b8284106103c157505050810160200161036e8261037a61035e565b805460208587018101919091529093019281016103a6565b86955061037a9693506020925061036e94915060ff191682840152151560051b820101929361035e565b80fd5b346102715760403660031901126102715761042c61042261025b565b60243590336118c0565b602060405160018152f35b34610271576000366003190112610271576020600254604051908152f35b346102715760803660031901126102715761046e610276565b604435906001600160a01b0382168203610271577f000000000000000000000000000000000000000000000000000000000000000080151590816104d2575b506104c1576104bf916064359161162e565b005b60405162cdceed60e81b8152600490fd5b90506004351415386104ad565b3461027157606036600319011261027157602061050e6104fd61025b565b610505610276565b6044359161162e565b6040519015158152f35b3461027157600036600319011261027157602060405160128152f35b346102715760003660031901126102715760206102c5612428565b346102715760403660031901126102715761056861025b565b3360009081526001602090815260408083206001600160a01b038516845290915290205460243581018091116105a25761042c91336118c0565b6116ce565b34610271576040366003190112610271576105c061025b565b602435906105df65ffffffffffff6105d74361290b565b168310611a99565b6001600160a01b03166000908152600a60205260408120805492909183600581116106a7575b50905b8382106106565750508161062f575050602060005b6040516001600160e01b039091168152f35b61064a61065191602093600019019060005260206000200190565b5460201c90565b61061d565b9092610662818561273b565b908263ffffffff61068761067d858860005260206000200190565b5463ffffffff1690565b1611156106975750925b90610608565b93506106a2906116e4565b610691565b806106b76106bd92969396612750565b90611ae5565b908263ffffffff6106d861067d858860005260206000200190565b1611156106e85750925b38610605565b93506106f3906116e4565b6106e2565b346102715760003660031901126102715760206040517f00000000000000000000000000000000000000000000000000000000000000008152f35b34610271576000366003190112610271574365ffffffffffff6107554361290b565b16036107a05761037a60405161076a816115b3565b601d81527f6d6f64653d626c6f636b6e756d6265722666726f6d3d64656661756c7400000060208201526040519182918261030d565b60405162461bcd60e51b815260206004820152601d60248201527f4552433230566f7465733a2062726f6b656e20636c6f636b206d6f64650000006044820152606490fd5b346102715760203660031901126102715760206001600160a01b038061080961025b565b166000526009825260406000205416604051908152f35b34610271576020366003190112610271576104bf61083c61025b565b33611cc5565b34610271576020366003190112610271576001600160a01b0361086361025b565b16600052600a602052602061087c604060002054612972565b63ffffffff60405191168152f35b346102715760203660031901126102715760206102c56102aa61025b565b3461027157600080600319360112610403576108c261150b565b600c80546001600160a01b0319811690915581906001600160a01b03167f8be0079c531659141344cd1fd0a4f28419497f9722a3daafe3b4186f6b6457e08280a380f35b34610271576020366003190112610271576001600160a01b0361092761025b565b1660005260076020526020604060002054604051908152f35b606090600319011261027157600435906024356001600160a01b0381168103610271579060443590565b346102715761097836610940565b909161098261150b565b7f00000000000000000000000000000000000000000000000000000000000000008015159182610a8d575b50506104c1576001600160a01b038216918215610a485781610a2d916104bf946109e16109dc846002546116f2565b600255565b6001600160a01b038216600090815260208181526040808320805487019055518581527fddf252ad1be2c89b69c2b068fc378daa952ba7f163c4a11628f55a4df523b3ef9190a3611bfa565b600254610a43906001600160e01b031015611b3e565b612016565b60405162461bcd60e51b815260206004820152601f60248201527f45524332303a206d696e7420746f20746865207a65726f2061646472657373006044820152606490fd5b1415905038806109ad565b346102715760008060031936011261040357610b4290610ad77f0000000000000000000000000000000000000000000000000000000000000000612568565b610b007f0000000000000000000000000000000000000000000000000000000000000000612661565b9160405191610b0e836115d4565b818352604051948594600f60f81b8652610b3460209360e08589015260e08801906102cd565b9086820360408801526102cd565b904660608601523060808601528260a086015284820360c08601528080855193848152019401925b828110610b7957505050500390f35b835185528695509381019392810192600101610b6a565b3461027157610b9e36610940565b90917f00000000000000000000000000000000000000000000000000000000000000008015159182610bdb575b50506104c1576104bf91336118c0565b141590503880610bcb565b3461027157600036600319011261027157600c546040516001600160a01b039091168152602090f35b3461027157602036600319011261027157600435610c3e65ffffffffffff610c364361290b565b168210611a99565b600b549060008260058111610cbc575b50905b828210610c7d578280610c6b575060405160008152602090f35b61065161064a60209260001901612218565b9091610c89818461273b565b908263ffffffff610c9c61067d85612218565b161115610cac5750915b90610c51565b9250610cb7906116e4565b610ca6565b806106b7610ccc92959395612750565b908263ffffffff610cdf61067d85612218565b161115610cef5750915b38610c4e565b9250610cfa906116e4565b610ce9565b34610271576000366003190112610271576020610d1b4361290b565b65ffffffffffff60405191168152f35b3461027157600080600319360112610403576040519080600454610d4e81611563565b808552916001918083169081156103d95750600114610d775761037a8561036e8187038261160c565b9250600483527f8a35acfbc15ff81a39ae7d344fd709f28e8600b4aa8c65c6b64bfe7fe36bd19b5b828410610dba57505050810160200161036e8261037a61035e565b80546020858701810191909152909301928101610d9f565b34610271576020366003190112610271576001600160a01b03610df361025b565b16600052600a602052604060002080548015600014610e1a57505060405160008152602090f35b602091610e2b916000190190611a49565b5054811c61061d565b3461027157610e4236610940565b9091610e4c61150b565b7f00000000000000000000000000000000000000000000000000000000000000008015159182610f73575b50506104c1576001600160a01b038216918215610f2457818160006104bf9583610eb6610f1f9660018060a01b03166000526000602052604060002090565b54610ec382821015611ba3565b03610ee08460018060a01b03166000526000602052604060002090565b55610eee8460025403600255565b6040518481527fddf252ad1be2c89b69c2b068fc378daa952ba7f163c4a11628f55a4df523b3ef90602090a3611c45565b612106565b60405162461bcd60e51b815260206004820152602160248201527f45524332303a206275726e2066726f6d20746865207a65726f206164647265736044820152607360f81b6064820152608490fd5b141590503880610e77565b3461027157604036600319011261027157610f9761025b565b60243590336000526001602052610fc48160406000209060018060a01b0316600052602052604060002090565b5491808310610fe557610fd9920390336118c0565b60405160018152602090f35b60405162461bcd60e51b815260206004820152602560248201527f45524332303a2064656372656173656420616c6c6f77616e63652062656c6f77604482015264207a65726f60d81b6064820152608490fd5b346102715760403660031901126102715761042c61105461025b565b60243590336117b2565b34610271576020366003190112610271576020600254604051908152f35b6064359060ff8216820361027157565b6084359060ff8216820361027157565b346102715760c0366003190112610271576110b561025b565b604435906024356110c461107c565b928042116111825761115461117d916104bf956040519061113c8261112e6020820195898b8860609194939260808201957fe48329057bfd03d55e49b547132e39cffd9c1820ad7b9d4c5307691425d15adf835260018060a01b0316602083015260408201520152565b03601f19810184528361160c565b61114f60a4359360843593519020612542565b612242565b6001600160a01b0381166000908152600760205260409020805460018101909155909214611af2565b611cc5565b60405162461bcd60e51b815260206004820152601d60248201527f4552433230566f7465733a207369676e617475726520657870697265640000006044820152606490fd5b346102715760e0366003190112610271576111e061025b565b6111e8610276565b60443590606435926111f861108c565b938042116112c8576112b06112c39161112e6104bf9761129d6112368760018060a01b03166000526007602052604060002090815491600183019055565b604080517f6e71edae12b1b97f4d1f60370fef10105fa2faae0126114a169c64845d6126c9602082019081526001600160a01b03808c1693830193909352918b166060820152608081018c905260a081019290925260c082019590955292839060e0820190565b61114f60c4359360a43593519020612542565b6001600160a01b038381169116146119f0565b6118c0565b60405162461bcd60e51b815260206004820152601d60248201527f45524332305065726d69743a206578706972656420646561646c696e650000006044820152606490fd5b3461027157604036600319011261027157602061135c61132b61025b565b611333610276565b6001600160a01b0391821660009081526001855260408082209290931681526020919091522090565b54604051908152f35b346102715760403660031901126102715761137e61025b565b63ffffffff6024358181168103610271576113c86113ce916040946000602087516113a8816115b3565b82815201526001600160a01b03166000908152600a602052859020611a49565b50611a77565b8251815190921682526020908101516001600160e01b031690820152f35b346102715760203660031901126102715761140561025b565b61140d61150b565b6001600160a01b0390811690811561146157600c54826bffffffffffffffffffffffff60a01b821617600c55167f8be0079c531659141344cd1fd0a4f28419497f9722a3daafe3b4186f6b6457e0600080a3005b60405162461bcd60e51b815260206004820152602660248201527f4f776e61626c653a206e6577206f776e657220697320746865207a65726f206160448201526564647265737360d01b6064820152608490fd5b34610271576114c336610940565b90917f00000000000000000000000000000000000000000000000000000000000000008015159182611500575b50506104c1576104bf91336117b2565b1415905038806114f0565b600c546001600160a01b0316330361151f57565b606460405162461bcd60e51b815260206004820152602060248201527f4f776e61626c653a2063616c6c6572206973206e6f7420746865206f776e65726044820152fd5b90600182811c92168015611593575b602083101461157d57565b634e487b7160e01b600052602260045260246000fd5b91607f1691611572565b634e487b7160e01b600052604160045260246000fd5b6040810190811067ffffffffffffffff8211176115cf57604052565b61159d565b6020810190811067ffffffffffffffff8211176115cf57604052565b60c0810190811067ffffffffffffffff8211176115cf57604052565b90601f8019910116810190811067ffffffffffffffff8211176115cf57604052565b6001600160a01b03811660009081526001602081815260408084203385529091529091205493929190840161166d575b61166893506117b2565b600190565b8284106116895761168483611668950333836118c0565b61165e565b60405162461bcd60e51b815260206004820152601d60248201527f45524332303a20696e73756666696369656e7420616c6c6f77616e63650000006044820152606490fd5b634e487b7160e01b600052601160045260246000fd5b90600182018092116105a257565b919082018092116105a257565b1561170657565b60405162461bcd60e51b815260206004820152602360248201527f45524332303a207472616e7366657220746f20746865207a65726f206164647260448201526265737360e81b6064820152608490fd5b1561175e57565b60405162461bcd60e51b815260206004820152602660248201527f45524332303a207472616e7366657220616d6f756e7420657863656564732062604482015265616c616e636560d01b6064820152608490fd5b6001600160a01b03929190838116801561186d5761186b948316906117d88215156116ff565b6001600160a01b03831660009081526020819052604090208590546117ff82821015611757565b0361181c8460018060a01b03166000526000602052604060002090565b556001600160a01b0384166000908152602081815260409182902080548801905590518681527fddf252ad1be2c89b69c2b068fc378daa952ba7f163c4a11628f55a4df523b3ef9190a3611c93565b565b60405162461bcd60e51b815260206004820152602560248201527f45524332303a207472616e736665722066726f6d20746865207a65726f206164604482015264647265737360d81b6064820152608490fd5b6001600160a01b03808216929190831561199f57821693841561194f57806119397f8c5be1e5ebec7d5bd14f71427d1e84f3dd0314c0f7b2291e5b200ac8c7c3b9259461192261194a9560018060a01b03166000526001602052604060002090565b9060018060a01b0316600052602052604060002090565b556040519081529081906020820190565b0390a3565b60405162461bcd60e51b815260206004820152602260248201527f45524332303a20617070726f766520746f20746865207a65726f206164647265604482015261737360f01b6064820152608490fd5b60405162461bcd60e51b8152602060048201526024808201527f45524332303a20617070726f76652066726f6d20746865207a65726f206164646044820152637265737360e01b6064820152608490fd5b156119f757565b60405162461bcd60e51b815260206004820152601e60248201527f45524332305065726d69743a20696e76616c6964207369676e617475726500006044820152606490fd5b6040519061186b826115b3565b8054821015611a615760005260206000200190600090565b634e487b7160e01b600052603260045260246000fd5b90604051611a84816115b3565b602081935463ffffffff81168352811c910152565b15611aa057565b60405162461bcd60e51b815260206004820152601960248201527f4552433230566f7465733a20667574757265206c6f6f6b7570000000000000006044820152606490fd5b919082039182116105a257565b15611af957565b60405162461bcd60e51b815260206004820152601960248201527f4552433230566f7465733a20696e76616c6964206e6f6e6365000000000000006044820152606490fd5b15611b4557565b60405162461bcd60e51b815260206004820152603060248201527f4552433230566f7465733a20746f74616c20737570706c79207269736b73206f60448201526f766572666c6f77696e6720766f74657360801b6064820152608490fd5b15611baa57565b60405162461bcd60e51b815260206004820152602260248201527f45524332303a206275726e20616d6f756e7420657863656564732062616c616e604482015261636560f01b6064820152608490fd5b60096020527fec8156718a8372b1db44bb411437d0870f3e3790d4a08526d024ce1b0b668f6b546001600160a01b039182166000908152604090205461186b93929081169116611d39565b6001600160a01b039081166000908152600960205260408120549080527fec8156718a8372b1db44bb411437d0870f3e3790d4a08526d024ce1b0b668f6b5461186b93929081169116611d39565b6001600160a01b0390811660009081526009602052604080822054938316825290205461186b93929082169116611d39565b61186b9160018060a01b038092166000928184526009602052806040852054168092856020527f3134e8a2e6d97e929a7e54011ea5485d7d196dd5f0ba4d4ef95803e8e3fc257f60408720549660096020526040812094871694856bffffffffffffffffffffffff60a01b82541617905580a45b6001600160a01b03808316939291168084141580611f4c575b611d5d575b50505050565b80611dcb575b5082611d70575b80611d57565b6001600160a01b03166000908152600a602052604090207fdec2bacdd2f05b59de34da9b523dff8be42e5e38e818c82fdb0bae774387a72491611db29161215f565b60408051928352602083019190915290a2388080611d6a565b80600052600a6020527fdec2bacdd2f05b59de34da9b523dff8be42e5e38e818c82fdb0bae774387a7246040600020805480159182600014611f2957611e0f611a3c565b6000815260006020820152915b6020830151611e3b906001600160e01b03165b6001600160e01b031690565b92611e4689856129d7565b94159081611f06575b5015611ea457611e77611e8e92611e65866128a2565b92600019019060005260206000200190565b9063ffffffff82549181199060201b169116179055565b604080519182526020820192909252a238611d63565b50611f0190611ec8611ec3611eb84361290b565b65ffffffffffff1690565b612972565b90611efc611ed5866128a2565b611eec611ee0611a3c565b63ffffffff9095168552565b6001600160e01b03166020840152565b611fbc565b611e8e565b5163ffffffff16905063ffffffff611f20611eb84361290b565b91161438611e4f565b611f46611f4160001984018360005260206000200190565b611a77565b91611e1c565b50821515611d52565b600b5490600160401b8210156115cf576001820180600b55821015611a6157600b600052805160209182015190911b63ffffffff191663ffffffff91909116177f0175b7a638427703f0dbe7bb9bbf987a2551717b34e79f33b5b1008d1fa01db990910155565b8054600160401b8110156115cf57611fd991600182018155611a49565b61200057815160209283015190921b63ffffffff191663ffffffff92909216919091179055565b634e487b7160e01b600052600060045260246000fd5b600b54909181159182156120f15761202c611a3c565b60008152600060208201525b602081015161205a90612053906001600160e01b0316611e2f565b95866129e4565b931590816120ce575b50156120835761186b90611e77612079856128a2565b9160001901612218565b5061186b612096611ec3611eb84361290b565b6120c96120a2856128a2565b6120b96120ad611a3c565b63ffffffff9094168452565b6001600160e01b03166020830152565b611f55565b5163ffffffff16905063ffffffff6120e8611eb84361290b565b91161438612063565b612101611f416000198301612218565b612038565b600b549091811591821561214a5761211c611a3c565b60008152600060208201525b602081015161205a90612143906001600160e01b0316611e2f565b95866129d7565b61215a611f416000198301612218565b612128565b9091815491821592836000146121fb57612177611a3c565b60008152600060208201525b60208101516121a59061219e906001600160e01b0316611e2f565b96876129e4565b941590816121d8575b50156121c457611e7761186b92611e65866128a2565b5061186b90611ec8611ec3611eb84361290b565b5163ffffffff16905063ffffffff6121f2611eb84361290b565b911614386121ae565b612213611f4160001983018460005260206000200190565b612183565b600b6000527f0175b7a638427703f0dbe7bb9bbf987a2551717b34e79f33b5b1008d1fa01db90190565b9161031e939161225193612399565b919091612279565b6005111561226357565b634e487b7160e01b600052602160045260246000fd5b61228281612259565b8061228a5750565b61229381612259565b600181036122e05760405162461bcd60e51b815260206004820152601860248201527f45434453413a20696e76616c6964207369676e617475726500000000000000006044820152606490fd5b6122e981612259565b600281036123365760405162461bcd60e51b815260206004820152601f60248201527f45434453413a20696e76616c6964207369676e6174757265206c656e677468006044820152606490fd5b80612342600392612259565b1461234957565b60405162461bcd60e51b815260206004820152602260248201527f45434453413a20696e76616c6964207369676e6174757265202773272076616c604482015261756560f01b6064820152608490fd5b9291907f7fffffffffffffffffffffffffffffff5d576e7357a4501ddfe92f46681b20a0831161241c5791608094939160ff602094604051948552168484015260408301526060820152600093849182805260015afa1561240f5781516001600160a01b03811615612409579190565b50600190565b50604051903d90823e3d90fd5b50505050600090600390565b307f00000000000000000000000000000000000000000000000000000000000000006001600160a01b03161480612519575b15612483577f000000000000000000000000000000000000000000000000000000000000000090565b60405160208101907f8b73c3c69bb8fe3d512ecc4cf759cc79239f7b179b0ffacaa9a75d522b39400f82527f000000000000000000000000000000000000000000000000000000000000000060408201527f000000000000000000000000000000000000000000000000000000000000000060608201524660808201523060a082015260a08152612513816115f0565b51902090565b507f0000000000000000000000000000000000000000000000000000000000000000461461245a565b60429061254d612428565b906040519161190160f01b8352600283015260228201522090565b60ff81146125a65760ff811690601f8211612594576040519161258a836115b3565b8252602082015290565b604051632cd44ac360e21b8152600490fd5b506040516005548160006125b983611563565b8083529260019081811690811561263f57506001146125e0575b5061031e9250038261160c565b6005600090815291507f036b6384b5eca791c62761152d0c79bb0604c104a5fb6f4eb0703f3154bb3db05b848310612624575061031e9350508101602001386125d3565b8193509081602092548385890101520191019091849261260b565b90506020925061031e94915060ff191682840152151560051b820101386125d3565b60ff81146126835760ff811690601f8211612594576040519161258a836115b3565b5060405160065481600061269683611563565b8083529260019081811690811561263f57506001146126bc575061031e9250038261160c565b6006600090815291507ff652222313e28459528d920b65115c16c04f3efc82aaedc97be59f3f377c0d3f5b848310612700575061031e9350508101602001386125d3565b819350908160209254838589010152019101909184926126e7565b8115612725570490565b634e487b7160e01b600052601260045260246000fd5b90808216911860011c81018091116105a25790565b801561288a578061282361281c6128126128086127fe6127f46127ea6127e0600161031e9a6000908b60801c8061287e575b508060401c80612871575b508060201c80612864575b508060101c80612857575b508060081c8061284a575b508060041c8061283d575b508060021c80612830575b50821c612829575b811c1b6127d9818b61271b565b0160011c90565b6127d9818a61271b565b6127d9818961271b565b6127d9818861271b565b6127d9818761271b565b6127d9818661271b565b6127d9818561271b565b809261271b565b90612890565b81016127cc565b60029150910190386127c4565b60049150910190386127b9565b60089150910190386127ae565b60109150910190386127a3565b6020915091019038612798565b604091509101903861278d565b91505060809038612782565b50600090565b908082101561289d575090565b905090565b6001600160e01b03908181116128b6571690565b60405162461bcd60e51b815260206004820152602760248201527f53616665436173743a2076616c756520646f65736e27742066697420696e20326044820152663234206269747360c81b6064820152608490fd5b65ffffffffffff9081811161291e571690565b60405162461bcd60e51b815260206004820152602660248201527f53616665436173743a2076616c756520646f65736e27742066697420696e203460448201526538206269747360d01b6064820152608490fd5b63ffffffff90818111612983571690565b60405162461bcd60e51b815260206004820152602660248201527f53616665436173743a2076616c756520646f65736e27742066697420696e203360448201526532206269747360d01b6064820152608490fd5b9081039081116105a25790565b9081018091116105a2579056fea26469706673582212201a52f470aa644ae3b98778c88e48379a1604cc423ea80d8b5fe4a35703efdb9c64736f6c63430008140033",
    "linkReferences": {}
  },
  "methodIdentifiers": {
    "CLOCK_MODE()": "4bf5d7e9",
    "DOMAIN_SEPARATOR()": "3644e515",
    "allowance(address,address)": "dd62ed3e",
    "approve(address,uint256)": "095ea7b3",
    "approve(uint256,address,uint256)": "8cb0a511",
    "balanceOf(address)": "70a08231",
    "balanceOf(address,uint256)": "00fdd58e",
    "burn(uint256,address,uint256)": "9eea5f66",
    "checkpoints(address,uint32)": "f1127ed8",
    "clock()": "91ddadf4",
    "decimals()": "313ce567",
    "decreaseAllowance(address,uint256)": "a457c2d7",
    "delegate(address)": "5c19a95c",
    "delegateBySig(address,uint256,uint256,uint8,bytes32,bytes32)": "c3cda520",
    "delegates(address)": "587cde1e",
    "eip712Domain()": "84b0196e",
    "getPastTotalSupply(uint256)": "8e539e8c",
    "getPastVotes(address,uint256)": "3a46b1a8",
    "getVotes(address)": "9ab24eb0",
    "increaseAllowance(address,uint256)": "39509351",
    "mint(uint256,address,uint256)": "836a1040",
    "name()": "06fdde03",
    "nonces(address)": "7ecebe00",
    "numCheckpoints(address)": "6fcfff45",
    "owner()": "8da5cb5b",
    "permit(address,address,uint256,uint256,uint8,bytes32,bytes32)": "d505accf",
    "projectId()": "3fafa127",
    "renounceOwnership()": "715018a6",
    "symbol()": "95d89b41",
    "totalSupply()": "18160ddd",
    "totalSupply(uint256)": "bd85b039",
    "transfer(address,uint256)": "a9059cbb",
    "transfer(uint256,address,uint256)": "f8548e36",
    "transferFrom(address,address,uint256)": "23b872dd",
    "transferFrom(uint256,address,address,uint256)": "1c0f12b6",
    "transferOwnership(address)": "f2fde38b"
  },
  "id": 82
}