{
  "abi": [
    {
      "inputs": [
        {
          "internalType": "string",
          "name": "_name",
          "type": "string"
        },
        {
          "internalType": "string",
          "name": "_symbol",
          "type": "string"
        },
        {
          "internalType": "uint256",
          "name": "_projectId",
          "type": "uint256"
        }
      ],
      "stateMutability": "nonpayable",
      "type": "constructor"
    },
    {
      "inputs": [],
      "name": "BAD_PROJECT",
      "type": "error"
    },
    {
      "anonymous": false,
      "inputs": [
        {
          "indexed": true,
          "internalType": "address",
          "name": "owner",
          "type": "address"
        },
        {
          "indexed": true,
          "internalType": "address",
          "name": "spender",
          "type": "address"
        },
        {
          "indexed": false,
          "internalType": "uint256",
          "name": "value",
          "type": "uint256"
        }
      ],
      "name": "Approval",
      "type": "event"
    },
    {
      "anonymous": false,
      "inputs": [
        {
          "indexed": true,
          "internalType": "address",
          "name": "delegator",
          "type": "address"
        },
        {
          "indexed": true,
          "internalType": "address",
          "name": "fromDelegate",
          "type": "address"
        },
        {
          "indexed": true,
          "internalType": "address",
          "name": "toDelegate",
          "type": "address"
        }
      ],
      "name": "DelegateChanged",
      "type": "event"
    },
    {
      "anonymous": false,
      "inputs": [
        {
          "indexed": true,
          "internalType": "address",
          "name": "delegate",
          "type": "address"
        },
        {
          "indexed": false,
          "internalType": "uint256",
          "name": "previousBalance",
          "type": "uint256"
        },
        {
          "indexed": false,
          "internalType": "uint256",
          "name": "newBalance",
          "type": "uint256"
        }
      ],
      "name": "DelegateVotesChanged",
      "type": "event"
    },
    {
      "anonymous": false,
      "inputs": [
        {
          "indexed": true,
          "internalType": "address",
          "name": "previousOwner",
          "type": "address"
        },
        {
          "indexed": true,
          "internalType": "address",
          "name": "newOwner",
          "type": "address"
        }
      ],
      "name": "OwnershipTransferred",
      "type": "event"
    },
    {
      "anonymous": false,
      "inputs": [
        {
          "indexed": true,
          "internalType": "address",
          "name": "from",
          "type": "address"
        },
        {
          "indexed": true,
          "internalType": "address",
          "name": "to",
          "type": "address"
        },
        {
          "indexed": false,
          "internalType": "uint256",
          "name": "value",
          "type": "uint256"
        }
      ],
      "name": "Transfer",
      "type": "event"
    },
    {
      "inputs": [],
      "name": "DOMAIN_SEPARATOR",
      "outputs": [
        {
          "internalType": "bytes32",
          "name": "",
          "type": "bytes32"
        }
      ],
      "stateMutability": "view",
      "type": "function"
    },
    {
      "inputs": [
        {
          "internalType": "address",
          "name": "owner",
          "type": "address"
        },
        {
          "internalType": "address",
          "name": "spender",
          "type": "address"
        }
      ],
      "name": "allowance",
      "outputs": [
        {
          "internalType": "uint256",
          "name": "",
          "type": "uint256"
        }
      ],
      "stateMutability": "view",
      "type": "function"
    },
    {
      "inputs": [
        {
          "internalType": "address",
          "name": "spender",
          "type": "address"
        },
        {
          "internalType": "uint256",
          "name": "amount",
          "type": "uint256"
        }
      ],
      "name": "approve",
      "outputs": [
        {
          "internalType": "bool",
          "name": "",
          "type": "bool"
        }
      ],
      "stateMutability": "nonpayable",
      "type": "function"
    },
    {
      "inputs": [
        {
          "internalType": "uint256",
          "name": "_projectId",
          "type": "uint256"
        },
        {
          "internalType": "address",
          "name": "_spender",
          "type": "address"
        },
        {
          "internalType": "uint256",
          "name": "_amount",
          "type": "uint256"
        }
      ],
      "name": "approve",
      "outputs": [],
      "stateMutability": "nonpayable",
      "type": "function"
    },
    {
      "inputs": [
        {
          "internalType": "address",
          "name": "_account",
          "type": "address"
        },
        {
          "internalType": "uint256",
          "name": "_projectId",
          "type": "uint256"
        }
      ],
      "name": "balanceOf",
      "outputs": [
        {
          "internalType": "uint256",
          "name": "",
          "type": "uint256"
        }
      ],
      "stateMutability": "view",
      "type": "function"
    },
    {
      "inputs": [
        {
          "internalType": "address",
          "name": "account",
          "type": "address"
        }
      ],
      "name": "balanceOf",
      "outputs": [
        {
          "internalType": "uint256",
          "name": "",
          "type": "uint256"
        }
      ],
      "stateMutability": "view",
      "type": "function"
    },
    {
      "inputs": [
        {
          "internalType": "uint256",
          "name": "_projectId",
          "type": "uint256"
        },
        {
          "internalType": "address",
          "name": "_account",
          "type": "address"
        },
        {
          "internalType": "uint256",
          "name": "_amount",
          "type": "uint256"
        }
      ],
      "name": "burn",
      "outputs": [],
      "stateMutability": "nonpayable",
      "type": "function"
    },
    {
      "inputs": [
        {
          "internalType": "address",
          "name": "account",
          "type": "address"
        },
        {
          "internalType": "uint32",
          "name": "pos",
          "type": "uint32"
        }
      ],
      "name": "checkpoints",
      "outputs": [
        {
          "components": [
            {
              "internalType": "uint32",
              "name": "fromBlock",
              "type": "uint32"
            },
            {
              "internalType": "uint224",
              "name": "votes",
              "type": "uint224"
            }
          ],
          "internalType": "struct ERC20Votes.Checkpoint",
          "name": "",
          "type": "tuple"
        }
      ],
      "stateMutability": "view",
      "type": "function"
    },
    {
      "inputs": [],
      "name": "decimals",
      "outputs": [
        {
          "internalType": "uint8",
          "name": "",
          "type": "uint8"
        }
      ],
      "stateMutability": "view",
      "type": "function"
    },
    {
      "inputs": [
        {
          "internalType": "address",
          "name": "spender",
          "type": "address"
        },
        {
          "internalType": "uint256",
          "name": "subtractedValue",
          "type": "uint256"
        }
      ],
      "name": "decreaseAllowance",
      "outputs": [
        {
          "internalType": "bool",
          "name": "",
          "type": "bool"
        }
      ],
      "stateMutability": "nonpayable",
      "type": "function"
    },
    {
      "inputs": [
        {
          "internalType": "address",
          "name": "delegatee",
          "type": "address"
        }
      ],
      "name": "delegate",
      "outputs": [],
      "stateMutability": "nonpayable",
      "type": "function"
    },
    {
      "inputs": [
        {
          "internalType": "address",
          "name": "delegatee",
          "type": "address"
        },
        {
          "internalType": "uint256",
          "name": "nonce",
          "type": "uint256"
        },
        {
          "internalType": "uint256",
          "name": "expiry",
          "type": "uint256"
        },
        {
          "internalType": "uint8",
          "name": "v",
          "type": "uint8"
        },
        {
          "internalType": "bytes32",
          "name": "r",
          "type": "bytes32"
        },
        {
          "internalType": "bytes32",
          "name": "s",
          "type": "bytes32"
        }
      ],
      "name": "delegateBySig",
      "outputs": [],
      "stateMutability": "nonpayable",
      "type": "function"
    },
    {
      "inputs": [
        {
          "internalType": "address",
          "name": "account",
          "type": "address"
        }
      ],
      "name": "delegates",
      "outputs": [
        {
          "internalType": "address",
          "name": "",
          "type": "address"
        }
      ],
      "stateMutability": "view",
      "type": "function"
    },
    {
      "inputs": [
        {
          "internalType": "uint256",
          "name": "blockNumber",
          "type": "uint256"
        }
      ],
      "name": "getPastTotalSupply",
      "outputs": [
        {
          "internalType": "uint256",
          "name": "",
          "type": "uint256"
        }
      ],
      "stateMutability": "view",
      "type": "function"
    },
    {
      "inputs": [
        {
          "internalType": "address",
          "name": "account",
          "type": "address"
        },
        {
          "internalType": "uint256",
          "name": "blockNumber",
          "type": "uint256"
        }
      ],
      "name": "getPastVotes",
      "outputs": [
        {
          "internalType": "uint256",
          "name": "",
          "type": "uint256"
        }
      ],
      "stateMutability": "view",
      "type": "function"
    },
    {
      "inputs": [
        {
          "internalType": "address",
          "name": "account",
          "type": "address"
        }
      ],
      "name": "getVotes",
      "outputs": [
        {
          "internalType": "uint256",
          "name": "",
          "type": "uint256"
        }
      ],
      "stateMutability": "view",
      "type": "function"
    },
    {
      "inputs": [
        {
          "internalType": "address",
          "name": "spender",
          "type": "address"
        },
        {
          "internalType": "uint256",
          "name": "addedValue",
          "type": "uint256"
        }
      ],
      "name": "increaseAllowance",
      "outputs": [
        {
          "internalType": "bool",
          "name": "",
          "type": "bool"
        }
      ],
      "stateMutability": "nonpayable",
      "type": "function"
    },
    {
      "inputs": [
        {
          "internalType": "uint256",
          "name": "_projectId",
          "type": "uint256"
        },
        {
          "internalType": "address",
          "name": "_account",
          "type": "address"
        },
        {
          "internalType": "uint256",
          "name": "_amount",
          "type": "uint256"
        }
      ],
      "name": "mint",
      "outputs": [],
      "stateMutability": "nonpayable",
      "type": "function"
    },
    {
      "inputs": [],
      "name": "name",
      "outputs": [
        {
          "internalType": "string",
          "name": "",
          "type": "string"
        }
      ],
      "stateMutability": "view",
      "type": "function"
    },
    {
      "inputs": [
        {
          "internalType": "address",
          "name": "owner",
          "type": "address"
        }
      ],
      "name": "nonces",
      "outputs": [
        {
          "internalType": "uint256",
          "name": "",
          "type": "uint256"
        }
      ],
      "stateMutability": "view",
      "type": "function"
    },
    {
      "inputs": [
        {
          "internalType": "address",
          "name": "account",
          "type": "address"
        }
      ],
      "name": "numCheckpoints",
      "outputs": [
        {
          "internalType": "uint32",
          "name": "",
          "type": "uint32"
        }
      ],
      "stateMutability": "view",
      "type": "function"
    },
    {
      "inputs": [],
      "name": "owner",
      "outputs": [
        {
          "internalType": "address",
          "name": "",
          "type": "address"
        }
      ],
      "stateMutability": "view",
      "type": "function"
    },
    {
      "inputs": [
        {
          "internalType": "address",
          "name": "owner",
          "type": "address"
        },
        {
          "internalType": "address",
          "name": "spender",
          "type": "address"
        },
        {
          "internalType": "uint256",
          "name": "value",
          "type": "uint256"
        },
        {
          "internalType": "uint256",
          "name": "deadline",
          "type": "uint256"
        },
        {
          "internalType": "uint8",
          "name": "v",
          "type": "uint8"
        },
        {
          "internalType": "bytes32",
          "name": "r",
          "type": "bytes32"
        },
        {
          "internalType": "bytes32",
          "name": "s",
          "type": "bytes32"
        }
      ],
      "name": "permit",
      "outputs": [],
      "stateMutability": "nonpayable",
      "type": "function"
    },
    {
      "inputs": [],
      "name": "projectId",
      "outputs": [
        {
          "internalType": "uint256",
          "name": "",
          "type": "uint256"
        }
      ],
      "stateMutability": "view",
      "type": "function"
    },
    {
      "inputs": [],
      "name": "renounceOwnership",
      "outputs": [],
      "stateMutability": "nonpayable",
      "type": "function"
    },
    {
      "inputs": [],
      "name": "symbol",
      "outputs": [
        {
          "internalType": "string",
          "name": "",
          "type": "string"
        }
      ],
      "stateMutability": "view",
      "type": "function"
    },
    {
      "inputs": [],
      "name": "totalSupply",
      "outputs": [
        {
          "internalType": "uint256",
          "name": "",
          "type": "uint256"
        }
      ],
      "stateMutability": "view",
      "type": "function"
    },
    {
      "inputs": [
        {
          "internalType": "uint256",
          "name": "_projectId",
          "type": "uint256"
        }
      ],
      "name": "totalSupply",
      "outputs": [
        {
          "internalType": "uint256",
          "name": "",
          "type": "uint256"
        }
      ],
      "stateMutability": "view",
      "type": "function"
    },
    {
      "inputs": [
        {
          "internalType": "address",
          "name": "to",
          "type": "address"
        },
        {
          "internalType": "uint256",
          "name": "amount",
          "type": "uint256"
        }
      ],
      "name": "transfer",
      "outputs": [
        {
          "internalType": "bool",
          "name": "",
          "type": "bool"
        }
      ],
      "stateMutability": "nonpayable",
      "type": "function"
    },
    {
      "inputs": [
        {
          "internalType": "uint256",
          "name": "_projectId",
          "type": "uint256"
        },
        {
          "internalType": "address",
          "name": "_to",
          "type": "address"
        },
        {
          "internalType": "uint256",
          "name": "_amount",
          "type": "uint256"
        }
      ],
      "name": "transfer",
      "outputs": [],
      "stateMutability": "nonpayable",
      "type": "function"
    },
    {
      "inputs": [
        {
          "internalType": "uint256",
          "name": "_projectId",
          "type": "uint256"
        },
        {
          "internalType": "address",
          "name": "_from",
          "type": "address"
        },
        {
          "internalType": "address",
          "name": "_to",
          "type": "address"
        },
        {
          "internalType": "uint256",
          "name": "_amount",
          "type": "uint256"
        }
      ],
      "name": "transferFrom",
      "outputs": [],
      "stateMutability": "nonpayable",
      "type": "function"
    },
    {
      "inputs": [
        {
          "internalType": "address",
          "name": "from",
          "type": "address"
        },
        {
          "internalType": "address",
          "name": "to",
          "type": "address"
        },
        {
          "internalType": "uint256",
          "name": "amount",
          "type": "uint256"
        }
      ],
      "name": "transferFrom",
      "outputs": [
        {
          "internalType": "bool",
          "name": "",
          "type": "bool"
        }
      ],
      "stateMutability": "nonpayable",
      "type": "function"
    },
    {
      "inputs": [
        {
          "internalType": "address",
          "name": "newOwner",
          "type": "address"
        }
      ],
      "name": "transferOwnership",
      "outputs": [],
      "stateMutability": "nonpayable",
      "type": "function"
    }
  ],
  "bytecode": {
    "object": "0x610160604081815234620004705762002bef803803809162000022828662000475565b84398201606083820312620004705782516001600160401b0392908381116200047057826200005391860162000499565b9060209283860151858111620004705782916200007291880162000499565b95015192815192828401848110878211176200037d57835260019081855282850191603160f81b835281518881116200037d5760038054918383811c9316801562000465575b878410146200044f57601f9283811162000404575b5080878482116001146200039f5760009162000393575b5060001982841b1c191690841b1781555b8a51918a83116200037d5760049b8c548581811c9116801562000372575b898210146200035d5782811162000312575b5087918411600114620002a7579383949184926000956200029b575b50501b92600019911b1c19161788555b82815191012093519020918360e052610100968388524660a0528151928301937f8b73c3c69bb8fe3d512ecc4cf759cc79239f7b179b0ffacaa9a75d522b39400f958686528385015260608401524660808401523060a084015260a0835260c0830196838810908811176200028657508590525190206080523060c052610120908152600a8054336001600160a01b0319821681179092556001600160a01b03167f8be0079c531659141344cd1fd0a4f28419497f9722a3daafe3b4186f6b6457e0600080a36101409182526126de9384620005118539608051846122da015260a05184612395015260c051846122a4015260e051846123290152518361234f015251826123060152518181816104f4015281816107830152818161094c01528181610a7301528181610d5701526113d90152f35b604190634e487b7160e01b6000525260246000fd5b01519350388062000141565b9190601f198416928d60005284896000209460005b8b89838310620002fa5750505010620002df575b50505050811b01885562000151565b01519060f884600019921b161c1916905538808080620002d0565b868601518955909701969485019488935001620002bc565b8d600052886000208380870160051c8201928b881062000353575b0160051c019086905b8281106200034657505062000125565b6000815501869062000336565b925081926200032d565b60228e634e487b7160e01b6000525260246000fd5b90607f169062000113565b634e487b7160e01b600052604160045260246000fd5b905085015138620000e4565b859250601f1982169084600052896000209160005b8b828210620003ed5750508311620003d4575b5050811b018155620000f5565b87015160001983861b60f8161c191690553880620003c7565b838b015185558996909401939283019201620003b4565b82600052876000208480840160051c8201928a851062000445575b0160051c019085905b82811062000438575050620000cd565b6000815501859062000428565b925081926200041f565b634e487b7160e01b600052602260045260246000fd5b92607f1692620000b8565b600080fd5b601f909101601f19168101906001600160401b038211908210176200037d57604052565b919080601f8401121562000470578251906001600160401b0382116200037d5760405191602091620004d5601f8301601f191684018562000475565b818452828287010111620004705760005b818110620004fc57508260009394955001015290565b8581018301518482018401528201620004e656fe60806040526004361015610013575b600080fd5b60003560e01c8062fdd58e146102a657806306fdde031461029d578063095ea7b31461029457806318160ddd1461028b5780631c0f12b61461028257806323b872dd14610279578063313ce567146102705780633644e51514610267578063395093511461025e5780633a46b1a8146102555780633fafa1271461024c578063587cde1e146102435780635c19a95c1461023a5780636fcfff451461023157806370a0823114610228578063715018a61461021f5780637ecebe0014610216578063836a10401461020d5780638cb0a511146102045780638da5cb5b146101fb5780638e539e8c146101f257806395d89b41146101e95780639ab24eb0146101e05780639eea5f66146101d7578063a457c2d7146101ce578063a9059cbb146101c5578063bd85b039146101bc578063c3cda520146101b3578063d505accf146101aa578063dd62ed3e146101a1578063f1127ed814610198578063f2fde38b1461018f5763f8548e361461018757600080fd5b61000e6113c6565b5061000e6112fc565b5061000e611274565b5061000e61121b565b5061000e6110d4565b5061000e610fa8565b5061000e610f69565b5061000e610f42565b5061000e610e87565b5061000e610d3c565b5061000e610cc1565b5061000e610bfd565b5061000e610ae1565b5061000e610ab7565b5061000e610a60565b5061000e610931565b5061000e6108cc565b5061000e61086d565b5061000e61084e565b5061000e610805565b5061000e6107e2565b5061000e6107a6565b5061000e61076a565b5061000e610624565b5061000e6105c2565b5061000e6105a6565b5061000e610589565b5061000e61054f565b5061000e6104c4565b5061000e6104a5565b5061000e610473565b5061000e610366565b5061000e6102db565b600435906001600160a01b038216820361000e57565b602435906001600160a01b038216820361000e57565b503461000e57604036600319011261000e5760206103156102fa6102af565b6001600160a01b031660009081526020819052604090205490565b604051908152f35b6020808252825181830181905290939260005b82811061035257505060409293506000838284010152601f8019910116010190565b818101860151848201604001528501610330565b503461000e576000806003193601126104705760405190806003549060019180831c92808216928315610466575b602092838610851461045257858852602088019490811561043157506001146103d8575b6103d4876103c8818903826114d1565b6040519182918261031d565b0390f35b600360005294509192917fc2575a0e9e593c00f959f8c92f12db2869c3395a3b0502d05e2516446f71f85b5b83861061042057505050910190506103c8826103d438806103b8565b805485870152948201948101610404565b60ff191685525050505090151560051b0190506103c8826103d438806103b8565b634e487b7160e01b82526022600452602482fd5b93607f1693610394565b80fd5b503461000e57604036600319011261000e5761049a6104906102af565b602435903361178e565b602060405160018152f35b503461000e57600036600319011261000e576020600254604051908152f35b503461000e57608036600319011261000e576104de6102c5565b604435906001600160a01b038216820361000e577f00000000000000000000000000000000000000000000000000000000000000008015159081610542575b506105315761052f91606435916114f3565b005b60405162cdceed60e81b8152600490fd5b905060043514153861051d565b503461000e57606036600319011261000e57602061057f61056e6102af565b6105766102c5565b604435916114f3565b6040519015158152f35b503461000e57600036600319011261000e57602060405160128152f35b503461000e57600036600319011261000e5760206103156122a1565b503461000e57604036600319011261000e5761049a6105df6102af565b3360009081526001602090815260408083206001600160a01b0385168452909152902054906024358201809211610617575b3361178e565b61061f611593565b610611565b503461000e57604036600319011261000e5761063e6102af565b6024359061064d438310611937565b6001600160a01b0316600090815260086020526040812080549290918360058111610719575b50905b8382106106c85750508161069d575050602060005b6040516001600160e01b039091168152f35b6106bc6106c3916106af60209461191b565b9060005260206000200190565b5460201c90565b61068b565b90926106d48185612431565b908263ffffffff6106f96106ef858860005260206000200190565b5463ffffffff1690565b1611156107095750925b90610676565b9350610714906115aa565b610703565b8061072961072f9296939661244e565b9061192a565b908263ffffffff61074a6106ef858860005260206000200190565b16111561075a5750925b38610673565b9350610765906115aa565b610754565b503461000e57600036600319011261000e5760206040517f00000000000000000000000000000000000000000000000000000000000000008152f35b503461000e57602036600319011261000e5760206001600160a01b03806107cb6102af565b166000526007825260406000205416604051908152f35b503461000e57602036600319011261000e5761052f6107ff6102af565b33611b56565b503461000e57602036600319011261000e576001600160a01b036108276102af565b1660005260086020526020610840604060002054612609565b63ffffffff60405191168152f35b503461000e57602036600319011261000e5760206103156102fa6102af565b503461000e576000806003193601126104705761088861141d565b600a80546001600160a01b0319811690915581906001600160a01b03167f8be0079c531659141344cd1fd0a4f28419497f9722a3daafe3b4186f6b6457e08280a380f35b503461000e57602036600319011261000e576001600160a01b036108ee6102af565b1660005260056020526020604060002054604051908152f35b606090600319011261000e57600435906024356001600160a01b038116810361000e579060443590565b503461000e5761094036610907565b909161094a61141d565b7f00000000000000000000000000000000000000000000000000000000000000008015159182610a55575b5050610531576001600160a01b038216918215610a1057816109f59161052f946109a96109a4846002546115c2565b600255565b6001600160a01b038216600090815260208181526040808320805487019055518581527fddf252ad1be2c89b69c2b068fc378daa952ba7f163c4a11628f55a4df523b3ef9190a3611a8b565b600254610a0b906001600160e01b0310156119cf565b611e8a565b60405162461bcd60e51b815260206004820152601f60248201527f45524332303a206d696e7420746f20746865207a65726f2061646472657373006044820152606490fd5b141590503880610975565b503461000e57610a6f36610907565b90917f00000000000000000000000000000000000000000000000000000000000000008015159182610aac575b50506105315761052f913361178e565b141590503880610a9c565b503461000e57600036600319011261000e57600a546040516001600160a01b039091168152602090f35b503461000e57602036600319011261000e57600435610b01438210611937565b6009549060008260058111610ba8575b50905b828210610b57578280610b2e575060405160008152602090f35b6106c36106bc610b3f60209361191b565b60096000526000805160206126898339815191520190565b9091610b638184612431565b6009600052908263ffffffff610b8860008051602061268983398151915285016106ef565b161115610b985750915b90610b14565b9250610ba3906115aa565b610b92565b80610729610bb89295939561244e565b6009600052908263ffffffff610bdd60008051602061268983398151915285016106ef565b161115610bed5750915b38610b11565b9250610bf8906115aa565b610be7565b503461000e576000806003193601126104705760405190806004549060019180831c92808216928315610cb7575b60209283861085146104525785885260208801949081156104315750600114610c5e576103d4876103c8818903826114d1565b600460005294509192917f8a35acfbc15ff81a39ae7d344fd709f28e8600b4aa8c65c6b64bfe7fe36bd19b5b838610610ca657505050910190506103c8826103d438806103b8565b805485870152948201948101610c8a565b93607f1693610c2b565b503461000e57602036600319011261000e576001600160a01b03610ce36102af565b16600052600860205260406000205460008115600014610d0b57505060405160008152602090f35b6020916040610d2692206000198201918211610d2f576118cb565b5054811c61068b565b610d37611593565b6118cb565b503461000e57610d4b36610907565b9091610d5561141d565b7f00000000000000000000000000000000000000000000000000000000000000008015159182610e7c575b5050610531576001600160a01b038216918215610e2d578181600061052f9583610dbf610e289660018060a01b03166000526000602052604060002090565b54610dcc82821015611a34565b03610de98460018060a01b03166000526000602052604060002090565b55610df78460025403600255565b6040518481527fddf252ad1be2c89b69c2b068fc378daa952ba7f163c4a11628f55a4df523b3ef90602090a3611ad6565b611f66565b60405162461bcd60e51b815260206004820152602160248201527f45524332303a206275726e2066726f6d20746865207a65726f206164647265736044820152607360f81b6064820152608490fd5b141590503880610d80565b503461000e57604036600319011261000e57610ea16102af565b60243590336000526001602052610ece8160406000209060018060a01b0316600052602052604060002090565b5491808310610eef57610ee39203903361178e565b60405160018152602090f35b60405162461bcd60e51b815260206004820152602560248201527f45524332303a2064656372656173656420616c6c6f77616e63652062656c6f77604482015264207a65726f60d81b6064820152608490fd5b503461000e57604036600319011261000e5761049a610f5f6102af565b6024359033611682565b503461000e57602036600319011261000e576020600254604051908152f35b6064359060ff8216820361000e57565b6084359060ff8216820361000e57565b503461000e5760c036600319011261000e57610fc26102af565b60443590602435610fd1610f88565b9280421161108f5761106161108a9161052f95604051906110498261103b6020820195898b8860609194939260808201957fe48329057bfd03d55e49b547132e39cffd9c1820ad7b9d4c5307691425d15adf835260018060a01b0316602083015260408201520152565b03601f1981018452836114d1565b61105c60a43593608435935190206123bb565b6120b8565b6001600160a01b0381166000908152600560205260409020805460018101909155909214611983565b611b56565b60405162461bcd60e51b815260206004820152601d60248201527f4552433230566f7465733a207369676e617475726520657870697265640000006044820152606490fd5b503461000e5760e036600319011261000e576110ee6102af565b6110f66102c5565b6044359060643592611106610f98565b938042116111d6576111be6111d19161103b61052f976111ab6111448760018060a01b03166000526005602052604060002090815491600183019055565b604080517f6e71edae12b1b97f4d1f60370fef10105fa2faae0126114a169c64845d6126c9602082019081526001600160a01b03808c1693830193909352918b166060820152608081018c905260a081019290925260c082019590955292839060e0820190565b61105c60c4359360a435935190206123bb565b6001600160a01b0383811691161461206c565b61178e565b60405162461bcd60e51b815260206004820152601d60248201527f45524332305065726d69743a206578706972656420646561646c696e650000006044820152606490fd5b503461000e57604036600319011261000e57602061126b61123a6102af565b6112426102c5565b6001600160a01b0391821660009081526001855260408082209290931681526020919091522090565b54604051908152f35b503461000e57604036600319011261000e5761128e6102af565b63ffffffff602435818116810361000e576112d86112de916040946000602087516112b88161148c565b82815201526001600160a01b0316600090815260086020528590206118cb565b506118f9565b8251815190921682526020908101516001600160e01b031690820152f35b503461000e57602036600319011261000e576113166102af565b61131e61141d565b6001600160a01b0390811690811561137257600a54826bffffffffffffffffffffffff60a01b821617600a55167f8be0079c531659141344cd1fd0a4f28419497f9722a3daafe3b4186f6b6457e0600080a3005b60405162461bcd60e51b815260206004820152602660248201527f4f776e61626c653a206e6577206f776e657220697320746865207a65726f206160448201526564647265737360d01b6064820152608490fd5b503461000e576113d536610907565b90917f00000000000000000000000000000000000000000000000000000000000000008015159182611412575b50506105315761052f9133611682565b141590503880611402565b600a546001600160a01b0316330361143157565b606460405162461bcd60e51b815260206004820152602060248201527f4f776e61626c653a2063616c6c6572206973206e6f7420746865206f776e65726044820152fd5b50634e487b7160e01b600052604160045260246000fd5b6040810190811067ffffffffffffffff8211176114a857604052565b6114b0611475565b604052565b60c0810190811067ffffffffffffffff8211176114a857604052565b90601f8019910116810190811067ffffffffffffffff8211176114a857604052565b6001600160a01b038116600090815260016020818152604080842033855290915290912054939291908401611532575b61152d9350611682565b600190565b82841061154e576115498361152d9503338361178e565b611523565b60405162461bcd60e51b815260206004820152601d60248201527f45524332303a20696e73756666696369656e7420616c6c6f77616e63650000006044820152606490fd5b50634e487b7160e01b600052601160045260246000fd5b90600182018092116115b857565b6115c0611593565b565b919082018092116115b857565b156115d657565b60405162461bcd60e51b815260206004820152602360248201527f45524332303a207472616e7366657220746f20746865207a65726f206164647260448201526265737360e81b6064820152608490fd5b1561162e57565b60405162461bcd60e51b815260206004820152602660248201527f45524332303a207472616e7366657220616d6f756e7420657863656564732062604482015265616c616e636560d01b6064820152608490fd5b6001600160a01b03929190838116801561173b576115c0948316906116a88215156115cf565b6001600160a01b03831660009081526020819052604090208590546116cf82821015611627565b036116ec8460018060a01b03166000526000602052604060002090565b556001600160a01b0384166000908152602081815260409182902080548801905590518681527fddf252ad1be2c89b69c2b068fc378daa952ba7f163c4a11628f55a4df523b3ef9190a3611b24565b60405162461bcd60e51b815260206004820152602560248201527f45524332303a207472616e736665722066726f6d20746865207a65726f206164604482015264647265737360d81b6064820152608490fd5b6001600160a01b03808216929190831561186d57821693841561181d57806118077f8c5be1e5ebec7d5bd14f71427d1e84f3dd0314c0f7b2291e5b200ac8c7c3b925946117f06118189560018060a01b03166000526001602052604060002090565b9060018060a01b0316600052602052604060002090565b556040519081529081906020820190565b0390a3565b60405162461bcd60e51b815260206004820152602260248201527f45524332303a20617070726f766520746f20746865207a65726f206164647265604482015261737360f01b6064820152608490fd5b60405162461bcd60e51b8152602060048201526024808201527f45524332303a20617070726f76652066726f6d20746865207a65726f206164646044820152637265737360e01b6064820152608490fd5b604051906115c08261148c565b80548210156118e35760005260206000200190600090565b634e487b7160e01b600052603260045260246000fd5b906040516119068161148c565b602081935463ffffffff81168352811c910152565b6000198101919082116115b857565b919082039182116115b857565b1561193e57565b60405162461bcd60e51b815260206004820152601f60248201527f4552433230566f7465733a20626c6f636b206e6f7420796574206d696e6564006044820152606490fd5b1561198a57565b60405162461bcd60e51b815260206004820152601960248201527f4552433230566f7465733a20696e76616c6964206e6f6e6365000000000000006044820152606490fd5b156119d657565b60405162461bcd60e51b815260206004820152603060248201527f4552433230566f7465733a20746f74616c20737570706c79207269736b73206f60448201526f766572666c6f77696e6720766f74657360801b6064820152608490fd5b15611a3b57565b60405162461bcd60e51b815260206004820152602260248201527f45524332303a206275726e20616d6f756e7420657863656564732062616c616e604482015261636560f01b6064820152608490fd5b60076020527f6d5257204ebe7d88fd91ae87941cb2dd9d8062b64ae5a2bd2d28ec40b9fbf6df546001600160a01b03918216600090815260409020546115c093929081169116611bca565b6001600160a01b039081166000908152600760205260408120549080527f6d5257204ebe7d88fd91ae87941cb2dd9d8062b64ae5a2bd2d28ec40b9fbf6df546115c093929081169116611bca565b6001600160a01b039081166000908152600760205260408082205493831682529020546115c093929082169116611bca565b6115c09160018060a01b038092166000928184526007602052806040852054168092856020527f3134e8a2e6d97e929a7e54011ea5485d7d196dd5f0ba4d4ef95803e8e3fc257f60408720549660076020526040812094871694856bffffffffffffffffffffffff60a01b82541617905580a45b6001600160a01b03808316939291168084141580611db6575b611bee575b50505050565b80611c5c575b5082611c01575b80611be8565b6001600160a01b031660009081526008602052604090207fdec2bacdd2f05b59de34da9b523dff8be42e5e38e818c82fdb0bae774387a72491611c4391611fbe565b60408051928352602083019190915290a2388080611bfb565b8060005260086020527fdec2bacdd2f05b59de34da9b523dff8be42e5e38e818c82fdb0bae774387a7246040600020805480159182600014611d8f57611ca06118be565b6000815260006020820152915b6020830151611ccc906001600160e01b03165b6001600160e01b031690565b92611cd7898561266e565b94159081611d78575b5015611d2c57611cff611d16926106af611cf9876125a0565b9361191b565b9063ffffffff82549181199060201b169116179055565b604080519182526020820192909252a238611bf4565b50611d7390611d3a43612609565b90611d6e611d47866125a0565b611d5e611d526118be565b63ffffffff9095168552565b6001600160e01b03166020840152565b611e22565b611d16565b5163ffffffff16905063ffffffff16431438611ce0565b611db0611dab611d9e8461191b565b8360005260206000200190565b6118f9565b91611cad565b50821515611be3565b60095490600160401b821015611e15575b60018201806009558210156118e3576009600052805160209182015190911b63ffffffff191663ffffffff919091161760008051602061268983398151915290910155565b611e1d611475565b611dd0565b8054611e4091600160401b821015611e7d575b6001820181556118cb565b611e6757815160209283015190921b63ffffffff191663ffffffff92909216919091179055565b634e487b7160e01b600052600060045260246000fd5b611e85611475565b611e35565b60095490918115918215611f5257611ea06118be565b60008152600060208201525b6020810151611ece90611ec7906001600160e01b0316611cc0565b958661267b565b93159081611f3b575b5015611ef6576115c090611cff610b3f611ef0866125a0565b9261191b565b506115c0611f0343612609565b611f36611f0f856125a0565b611f26611f1a6118be565b63ffffffff9094168452565b6001600160e01b03166020830152565b611dbf565b5163ffffffff16905063ffffffff16431438611ed7565b611f61611dab610b3f8361191b565b611eac565b60095490918115918215611faa57611f7c6118be565b60008152600060208201525b6020810151611ece90611fa3906001600160e01b0316611cc0565b958661266e565b611fb9611dab610b3f8361191b565b611f88565b90918154918215928360001461204b57611fd66118be565b60008152600060208201525b602081015161200490611ffd906001600160e01b0316611cc0565b968761267b565b94159081612034575b501561202657611cff6115c0926106af611cf9876125a0565b506115c090611d3a43612609565b5163ffffffff16905063ffffffff1643143861200d565b612067611dab61205a8361191b565b8460005260206000200190565b611fe2565b1561207357565b60405162461bcd60e51b815260206004820152601e60248201527f45524332305065726d69743a20696e76616c6964207369676e617475726500006044820152606490fd5b916120cf93916120c793612212565b9190916120f2565b90565b600511156120dc57565b634e487b7160e01b600052602160045260246000fd5b6120fb816120d2565b806121035750565b61210c816120d2565b600181036121595760405162461bcd60e51b815260206004820152601860248201527f45434453413a20696e76616c6964207369676e617475726500000000000000006044820152606490fd5b612162816120d2565b600281036121af5760405162461bcd60e51b815260206004820152601f60248201527f45434453413a20696e76616c6964207369676e6174757265206c656e677468006044820152606490fd5b806121bb6003926120d2565b146121c257565b60405162461bcd60e51b815260206004820152602260248201527f45434453413a20696e76616c6964207369676e6174757265202773272076616c604482015261756560f01b6064820152608490fd5b9291907f7fffffffffffffffffffffffffffffff5d576e7357a4501ddfe92f46681b20a083116122955791608094939160ff602094604051948552168484015260408301526060820152600093849182805260015afa156122885781516001600160a01b03811615612282579190565b50600190565b50604051903d90823e3d90fd5b50505050600090600390565b307f00000000000000000000000000000000000000000000000000000000000000006001600160a01b03161480612392575b156122fc577f000000000000000000000000000000000000000000000000000000000000000090565b60405160208101907f000000000000000000000000000000000000000000000000000000000000000082527f000000000000000000000000000000000000000000000000000000000000000060408201527f000000000000000000000000000000000000000000000000000000000000000060608201524660808201523060a082015260a0815261238c816114b5565b51902090565b507f000000000000000000000000000000000000000000000000000000000000000046146122d3565b6123c36122a1565b9060405190602082019261190160f01b845260228301526042820152604281526080810181811067ffffffffffffffff821117612404575b60405251902090565b61240c611475565b6123fb565b811561241b570490565b634e487b7160e01b600052601260045260246000fd5b90808216911860011c81018091116124465790565b6120cf611593565b8015612588578061252161251a6125106125066124fc6124f26124e86124de60016120cf9a6000908b60801c8061257c575b508060401c8061256f575b508060201c80612562575b508060101c80612555575b508060081c80612548575b508060041c8061253b575b508060021c8061252e575b50821c612527575b811c1b6124d7818b612411565b0160011c90565b6124d7818a612411565b6124d78189612411565b6124d78188612411565b6124d78187612411565b6124d78186612411565b6124d78185612411565b8092612411565b9061258e565b81016124ca565b60029150910190386124c2565b60049150910190386124b7565b60089150910190386124ac565b60109150910190386124a1565b6020915091019038612496565b604091509101903861248b565b91505060809038612480565b50600090565b908082101561259b575090565b905090565b6001600160e01b03908181116125b4571690565b60405162461bcd60e51b815260206004820152602760248201527f53616665436173743a2076616c756520646f65736e27742066697420696e20326044820152663234206269747360c81b6064820152608490fd5b63ffffffff9081811161261a571690565b60405162461bcd60e51b815260206004820152602660248201527f53616665436173743a2076616c756520646f65736e27742066697420696e203360448201526532206269747360d01b6064820152608490fd5b9081039081116124465790565b908101809111612446579056fe6e1540171b6c0c960b71a7020d9f60077f6af931a8bbf590da0223dacf75c7afa2646970667358221220bc4ae27130c94ef0cf65951375cbf02f28ff23eaba0ea2c43f63779462facc0964736f6c63430008110033",
    "linkReferences": {}
  },
  "methodIdentifiers": {
    "DOMAIN_SEPARATOR()": "3644e515",
    "allowance(address,address)": "dd62ed3e",
    "approve(address,uint256)": "095ea7b3",
    "approve(uint256,address,uint256)": "8cb0a511",
    "balanceOf(address)": "70a08231",
    "balanceOf(address,uint256)": "00fdd58e",
    "burn(uint256,address,uint256)": "9eea5f66",
    "checkpoints(address,uint32)": "f1127ed8",
    "decimals()": "313ce567",
    "decreaseAllowance(address,uint256)": "a457c2d7",
    "delegate(address)": "5c19a95c",
    "delegateBySig(address,uint256,uint256,uint8,bytes32,bytes32)": "c3cda520",
    "delegates(address)": "587cde1e",
    "getPastTotalSupply(uint256)": "8e539e8c",
    "getPastVotes(address,uint256)": "3a46b1a8",
    "getVotes(address)": "9ab24eb0",
    "increaseAllowance(address,uint256)": "39509351",
    "mint(uint256,address,uint256)": "836a1040",
    "name()": "06fdde03",
    "nonces(address)": "7ecebe00",
    "numCheckpoints(address)": "6fcfff45",
    "owner()": "8da5cb5b",
    "permit(address,address,uint256,uint256,uint8,bytes32,bytes32)": "d505accf",
    "projectId()": "3fafa127",
    "renounceOwnership()": "715018a6",
    "symbol()": "95d89b41",
    "totalSupply()": "18160ddd",
    "totalSupply(uint256)": "bd85b039",
    "transfer(address,uint256)": "a9059cbb",
    "transfer(uint256,address,uint256)": "f8548e36",
    "transferFrom(address,address,uint256)": "23b872dd",
    "transferFrom(uint256,address,address,uint256)": "1c0f12b6",
    "transferOwnership(address)": "f2fde38b"
  },
  "id": 79
}