{
  "abi": [
    {
      "inputs": [
        {
          "internalType": "string",
          "name": "_name",
          "type": "string"
        },
        {
          "internalType": "string",
          "name": "_symbol",
          "type": "string"
        },
        {
          "internalType": "uint256",
          "name": "_projectId",
          "type": "uint256"
        }
      ],
      "stateMutability": "nonpayable",
      "type": "constructor"
    },
    {
      "inputs": [],
      "name": "BAD_PROJECT",
      "type": "error"
    },
    {
      "inputs": [],
      "name": "InvalidShortString",
      "type": "error"
    },
    {
      "inputs": [
        {
          "internalType": "string",
          "name": "str",
          "type": "string"
        }
      ],
      "name": "StringTooLong",
      "type": "error"
    },
    {
      "anonymous": false,
      "inputs": [
        {
          "indexed": true,
          "internalType": "address",
          "name": "owner",
          "type": "address"
        },
        {
          "indexed": true,
          "internalType": "address",
          "name": "spender",
          "type": "address"
        },
        {
          "indexed": false,
          "internalType": "uint256",
          "name": "value",
          "type": "uint256"
        }
      ],
      "name": "Approval",
      "type": "event"
    },
    {
      "anonymous": false,
      "inputs": [
        {
          "indexed": true,
          "internalType": "address",
          "name": "delegator",
          "type": "address"
        },
        {
          "indexed": true,
          "internalType": "address",
          "name": "fromDelegate",
          "type": "address"
        },
        {
          "indexed": true,
          "internalType": "address",
          "name": "toDelegate",
          "type": "address"
        }
      ],
      "name": "DelegateChanged",
      "type": "event"
    },
    {
      "anonymous": false,
      "inputs": [
        {
          "indexed": true,
          "internalType": "address",
          "name": "delegate",
          "type": "address"
        },
        {
          "indexed": false,
          "internalType": "uint256",
          "name": "previousBalance",
          "type": "uint256"
        },
        {
          "indexed": false,
          "internalType": "uint256",
          "name": "newBalance",
          "type": "uint256"
        }
      ],
      "name": "DelegateVotesChanged",
      "type": "event"
    },
    {
      "anonymous": false,
      "inputs": [],
      "name": "EIP712DomainChanged",
      "type": "event"
    },
    {
      "anonymous": false,
      "inputs": [
        {
          "indexed": true,
          "internalType": "address",
          "name": "previousOwner",
          "type": "address"
        },
        {
          "indexed": true,
          "internalType": "address",
          "name": "newOwner",
          "type": "address"
        }
      ],
      "name": "OwnershipTransferred",
      "type": "event"
    },
    {
      "anonymous": false,
      "inputs": [
        {
          "indexed": true,
          "internalType": "address",
          "name": "from",
          "type": "address"
        },
        {
          "indexed": true,
          "internalType": "address",
          "name": "to",
          "type": "address"
        },
        {
          "indexed": false,
          "internalType": "uint256",
          "name": "value",
          "type": "uint256"
        }
      ],
      "name": "Transfer",
      "type": "event"
    },
    {
      "inputs": [],
      "name": "CLOCK_MODE",
      "outputs": [
        {
          "internalType": "string",
          "name": "",
          "type": "string"
        }
      ],
      "stateMutability": "view",
      "type": "function"
    },
    {
      "inputs": [],
      "name": "DOMAIN_SEPARATOR",
      "outputs": [
        {
          "internalType": "bytes32",
          "name": "",
          "type": "bytes32"
        }
      ],
      "stateMutability": "view",
      "type": "function"
    },
    {
      "inputs": [
        {
          "internalType": "address",
          "name": "owner",
          "type": "address"
        },
        {
          "internalType": "address",
          "name": "spender",
          "type": "address"
        }
      ],
      "name": "allowance",
      "outputs": [
        {
          "internalType": "uint256",
          "name": "",
          "type": "uint256"
        }
      ],
      "stateMutability": "view",
      "type": "function"
    },
    {
      "inputs": [
        {
          "internalType": "address",
          "name": "spender",
          "type": "address"
        },
        {
          "internalType": "uint256",
          "name": "amount",
          "type": "uint256"
        }
      ],
      "name": "approve",
      "outputs": [
        {
          "internalType": "bool",
          "name": "",
          "type": "bool"
        }
      ],
      "stateMutability": "nonpayable",
      "type": "function"
    },
    {
      "inputs": [
        {
          "internalType": "uint256",
          "name": "_projectId",
          "type": "uint256"
        },
        {
          "internalType": "address",
          "name": "_spender",
          "type": "address"
        },
        {
          "internalType": "uint256",
          "name": "_amount",
          "type": "uint256"
        }
      ],
      "name": "approve",
      "outputs": [],
      "stateMutability": "nonpayable",
      "type": "function"
    },
    {
      "inputs": [
        {
          "internalType": "address",
          "name": "_account",
          "type": "address"
        },
        {
          "internalType": "uint256",
          "name": "_projectId",
          "type": "uint256"
        }
      ],
      "name": "balanceOf",
      "outputs": [
        {
          "internalType": "uint256",
          "name": "",
          "type": "uint256"
        }
      ],
      "stateMutability": "view",
      "type": "function"
    },
    {
      "inputs": [
        {
          "internalType": "address",
          "name": "account",
          "type": "address"
        }
      ],
      "name": "balanceOf",
      "outputs": [
        {
          "internalType": "uint256",
          "name": "",
          "type": "uint256"
        }
      ],
      "stateMutability": "view",
      "type": "function"
    },
    {
      "inputs": [
        {
          "internalType": "uint256",
          "name": "_projectId",
          "type": "uint256"
        },
        {
          "internalType": "address",
          "name": "_account",
          "type": "address"
        },
        {
          "internalType": "uint256",
          "name": "_amount",
          "type": "uint256"
        }
      ],
      "name": "burn",
      "outputs": [],
      "stateMutability": "nonpayable",
      "type": "function"
    },
    {
      "inputs": [
        {
          "internalType": "address",
          "name": "account",
          "type": "address"
        },
        {
          "internalType": "uint32",
          "name": "pos",
          "type": "uint32"
        }
      ],
      "name": "checkpoints",
      "outputs": [
        {
          "components": [
            {
              "internalType": "uint32",
              "name": "fromBlock",
              "type": "uint32"
            },
            {
              "internalType": "uint224",
              "name": "votes",
              "type": "uint224"
            }
          ],
          "internalType": "struct ERC20Votes.Checkpoint",
          "name": "",
          "type": "tuple"
        }
      ],
      "stateMutability": "view",
      "type": "function"
    },
    {
      "inputs": [],
      "name": "clock",
      "outputs": [
        {
          "internalType": "uint48",
          "name": "",
          "type": "uint48"
        }
      ],
      "stateMutability": "view",
      "type": "function"
    },
    {
      "inputs": [],
      "name": "decimals",
      "outputs": [
        {
          "internalType": "uint8",
          "name": "",
          "type": "uint8"
        }
      ],
      "stateMutability": "view",
      "type": "function"
    },
    {
      "inputs": [
        {
          "internalType": "address",
          "name": "spender",
          "type": "address"
        },
        {
          "internalType": "uint256",
          "name": "subtractedValue",
          "type": "uint256"
        }
      ],
      "name": "decreaseAllowance",
      "outputs": [
        {
          "internalType": "bool",
          "name": "",
          "type": "bool"
        }
      ],
      "stateMutability": "nonpayable",
      "type": "function"
    },
    {
      "inputs": [
        {
          "internalType": "address",
          "name": "delegatee",
          "type": "address"
        }
      ],
      "name": "delegate",
      "outputs": [],
      "stateMutability": "nonpayable",
      "type": "function"
    },
    {
      "inputs": [
        {
          "internalType": "address",
          "name": "delegatee",
          "type": "address"
        },
        {
          "internalType": "uint256",
          "name": "nonce",
          "type": "uint256"
        },
        {
          "internalType": "uint256",
          "name": "expiry",
          "type": "uint256"
        },
        {
          "internalType": "uint8",
          "name": "v",
          "type": "uint8"
        },
        {
          "internalType": "bytes32",
          "name": "r",
          "type": "bytes32"
        },
        {
          "internalType": "bytes32",
          "name": "s",
          "type": "bytes32"
        }
      ],
      "name": "delegateBySig",
      "outputs": [],
      "stateMutability": "nonpayable",
      "type": "function"
    },
    {
      "inputs": [
        {
          "internalType": "address",
          "name": "account",
          "type": "address"
        }
      ],
      "name": "delegates",
      "outputs": [
        {
          "internalType": "address",
          "name": "",
          "type": "address"
        }
      ],
      "stateMutability": "view",
      "type": "function"
    },
    {
      "inputs": [],
      "name": "eip712Domain",
      "outputs": [
        {
          "internalType": "bytes1",
          "name": "fields",
          "type": "bytes1"
        },
        {
          "internalType": "string",
          "name": "name",
          "type": "string"
        },
        {
          "internalType": "string",
          "name": "version",
          "type": "string"
        },
        {
          "internalType": "uint256",
          "name": "chainId",
          "type": "uint256"
        },
        {
          "internalType": "address",
          "name": "verifyingContract",
          "type": "address"
        },
        {
          "internalType": "bytes32",
          "name": "salt",
          "type": "bytes32"
        },
        {
          "internalType": "uint256[]",
          "name": "extensions",
          "type": "uint256[]"
        }
      ],
      "stateMutability": "view",
      "type": "function"
    },
    {
      "inputs": [
        {
          "internalType": "uint256",
          "name": "timepoint",
          "type": "uint256"
        }
      ],
      "name": "getPastTotalSupply",
      "outputs": [
        {
          "internalType": "uint256",
          "name": "",
          "type": "uint256"
        }
      ],
      "stateMutability": "view",
      "type": "function"
    },
    {
      "inputs": [
        {
          "internalType": "address",
          "name": "account",
          "type": "address"
        },
        {
          "internalType": "uint256",
          "name": "timepoint",
          "type": "uint256"
        }
      ],
      "name": "getPastVotes",
      "outputs": [
        {
          "internalType": "uint256",
          "name": "",
          "type": "uint256"
        }
      ],
      "stateMutability": "view",
      "type": "function"
    },
    {
      "inputs": [
        {
          "internalType": "address",
          "name": "account",
          "type": "address"
        }
      ],
      "name": "getVotes",
      "outputs": [
        {
          "internalType": "uint256",
          "name": "",
          "type": "uint256"
        }
      ],
      "stateMutability": "view",
      "type": "function"
    },
    {
      "inputs": [
        {
          "internalType": "address",
          "name": "spender",
          "type": "address"
        },
        {
          "internalType": "uint256",
          "name": "addedValue",
          "type": "uint256"
        }
      ],
      "name": "increaseAllowance",
      "outputs": [
        {
          "internalType": "bool",
          "name": "",
          "type": "bool"
        }
      ],
      "stateMutability": "nonpayable",
      "type": "function"
    },
    {
      "inputs": [
        {
          "internalType": "uint256",
          "name": "_projectId",
          "type": "uint256"
        },
        {
          "internalType": "address",
          "name": "_account",
          "type": "address"
        },
        {
          "internalType": "uint256",
          "name": "_amount",
          "type": "uint256"
        }
      ],
      "name": "mint",
      "outputs": [],
      "stateMutability": "nonpayable",
      "type": "function"
    },
    {
      "inputs": [],
      "name": "name",
      "outputs": [
        {
          "internalType": "string",
          "name": "",
          "type": "string"
        }
      ],
      "stateMutability": "view",
      "type": "function"
    },
    {
      "inputs": [
        {
          "internalType": "address",
          "name": "owner",
          "type": "address"
        }
      ],
      "name": "nonces",
      "outputs": [
        {
          "internalType": "uint256",
          "name": "",
          "type": "uint256"
        }
      ],
      "stateMutability": "view",
      "type": "function"
    },
    {
      "inputs": [
        {
          "internalType": "address",
          "name": "account",
          "type": "address"
        }
      ],
      "name": "numCheckpoints",
      "outputs": [
        {
          "internalType": "uint32",
          "name": "",
          "type": "uint32"
        }
      ],
      "stateMutability": "view",
      "type": "function"
    },
    {
      "inputs": [],
      "name": "owner",
      "outputs": [
        {
          "internalType": "address",
          "name": "",
          "type": "address"
        }
      ],
      "stateMutability": "view",
      "type": "function"
    },
    {
      "inputs": [
        {
          "internalType": "address",
          "name": "owner",
          "type": "address"
        },
        {
          "internalType": "address",
          "name": "spender",
          "type": "address"
        },
        {
          "internalType": "uint256",
          "name": "value",
          "type": "uint256"
        },
        {
          "internalType": "uint256",
          "name": "deadline",
          "type": "uint256"
        },
        {
          "internalType": "uint8",
          "name": "v",
          "type": "uint8"
        },
        {
          "internalType": "bytes32",
          "name": "r",
          "type": "bytes32"
        },
        {
          "internalType": "bytes32",
          "name": "s",
          "type": "bytes32"
        }
      ],
      "name": "permit",
      "outputs": [],
      "stateMutability": "nonpayable",
      "type": "function"
    },
    {
      "inputs": [],
      "name": "projectId",
      "outputs": [
        {
          "internalType": "uint256",
          "name": "",
          "type": "uint256"
        }
      ],
      "stateMutability": "view",
      "type": "function"
    },
    {
      "inputs": [],
      "name": "renounceOwnership",
      "outputs": [],
      "stateMutability": "nonpayable",
      "type": "function"
    },
    {
      "inputs": [],
      "name": "symbol",
      "outputs": [
        {
          "internalType": "string",
          "name": "",
          "type": "string"
        }
      ],
      "stateMutability": "view",
      "type": "function"
    },
    {
      "inputs": [],
      "name": "totalSupply",
      "outputs": [
        {
          "internalType": "uint256",
          "name": "",
          "type": "uint256"
        }
      ],
      "stateMutability": "view",
      "type": "function"
    },
    {
      "inputs": [
        {
          "internalType": "uint256",
          "name": "_projectId",
          "type": "uint256"
        }
      ],
      "name": "totalSupply",
      "outputs": [
        {
          "internalType": "uint256",
          "name": "",
          "type": "uint256"
        }
      ],
      "stateMutability": "view",
      "type": "function"
    },
    {
      "inputs": [
        {
          "internalType": "address",
          "name": "to",
          "type": "address"
        },
        {
          "internalType": "uint256",
          "name": "amount",
          "type": "uint256"
        }
      ],
      "name": "transfer",
      "outputs": [
        {
          "internalType": "bool",
          "name": "",
          "type": "bool"
        }
      ],
      "stateMutability": "nonpayable",
      "type": "function"
    },
    {
      "inputs": [
        {
          "internalType": "uint256",
          "name": "_projectId",
          "type": "uint256"
        },
        {
          "internalType": "address",
          "name": "_to",
          "type": "address"
        },
        {
          "internalType": "uint256",
          "name": "_amount",
          "type": "uint256"
        }
      ],
      "name": "transfer",
      "outputs": [],
      "stateMutability": "nonpayable",
      "type": "function"
    },
    {
      "inputs": [
        {
          "internalType": "uint256",
          "name": "_projectId",
          "type": "uint256"
        },
        {
          "internalType": "address",
          "name": "_from",
          "type": "address"
        },
        {
          "internalType": "address",
          "name": "_to",
          "type": "address"
        },
        {
          "internalType": "uint256",
          "name": "_amount",
          "type": "uint256"
        }
      ],
      "name": "transferFrom",
      "outputs": [],
      "stateMutability": "nonpayable",
      "type": "function"
    },
    {
      "inputs": [
        {
          "internalType": "address",
          "name": "from",
          "type": "address"
        },
        {
          "internalType": "address",
          "name": "to",
          "type": "address"
        },
        {
          "internalType": "uint256",
          "name": "amount",
          "type": "uint256"
        }
      ],
      "name": "transferFrom",
      "outputs": [
        {
          "internalType": "bool",
          "name": "",
          "type": "bool"
        }
      ],
      "stateMutability": "nonpayable",
      "type": "function"
    },
    {
      "inputs": [
        {
          "internalType": "address",
          "name": "newOwner",
          "type": "address"
        }
      ],
      "name": "transferOwnership",
      "outputs": [],
      "stateMutability": "nonpayable",
      "type": "function"
    }
  ],
  "bytecode": {
    "object": "0x6101806040818152346200049557620034ee80380380916200002282866200049a565b84398201606083820312620004955782516001600160401b03929083811162000495578262000053918601620004e3565b90602092838601518581116200049557829162000072918801620004e3565b9501519281519082820182811087821117620003a057835260019283835281830193603160f81b85528551888111620003a05760038054918383811c931680156200048a575b868410146200047457601f9283811162000429575b508086848211600114620003c257600091620003b6575b5060001982841b1c191690841b1781555b8a51918a8311620003a05760049b8c548581811c9116801562000395575b88821014620003805782811162000335575b5086918411600114620002ca57938394918492600095620002be575b50501b92600019911b1c19161788555b6200015c856200053e565b936101209485526200016e84620006e3565b95610140968752838151910120938460e0525190209761010098808a524660a0528251938401947f8b73c3c69bb8fe3d512ecc4cf759cc79239f7b179b0ffacaa9a75d522b39400f86528385015260608401524660808401523060a084015260a0835260c083019783891090891117620002a957508690525190206080523060c052600c8054336001600160a01b0319821681179092556001600160a01b03167f8be0079c531659141344cd1fd0a4f28419497f9722a3daafe3b4186f6b6457e0600080a3610160928352612cb394856200083b863960805185612679015260a05185612734015260c0518561264a015260e051856126c8015251846126ee01525183610ae301525182610b0c0152518181816104830152818161072d015281816109ab01528181610bee01528181610f0101526115cd0152f35b604190634e487b7160e01b6000525260246000fd5b01519350388062000141565b9190601f198416928d60005284886000209460005b8a898383106200031d575050501062000302575b50505050811b01885562000151565b01519060f884600019921b161c1916905538808080620002f3565b868601518955909701969485019488935001620002df565b8d600052876000208380870160051c8201928a881062000376575b0160051c019086905b8281106200036957505062000125565b6000815501869062000359565b9250819262000350565b60228e634e487b7160e01b6000525260246000fd5b90607f169062000113565b634e487b7160e01b600052604160045260246000fd5b905089015138620000e4565b60008481528881208794509190601f198416908a8e5b83831062000411575050508311620003f8575b5050811b018155620000f5565b8b015160001983861b60f8161c191690553880620003eb565b840151855589969094019392830192018a8e620003d8565b82600052866000208480840160051c8201928985106200046a575b0160051c019085905b8281106200045d575050620000cd565b600081550185906200044d565b9250819262000444565b634e487b7160e01b600052602260045260246000fd5b92607f1692620000b8565b600080fd5b601f909101601f19168101906001600160401b03821190821017620003a057604052565b60005b838110620004d25750506000910152565b8181015183820152602001620004c1565b81601f82011215620004955780516001600160401b038111620003a057604051926200051a601f8301601f1916602001856200049a565b8184526020828401011162000495576200053b9160208085019101620004be565b90565b80516020919082811015620005be575090601f8251116200057c57808251920151908083106200056d57501790565b82600019910360031b1b161790565b604490620005b09260405193849263305a27a960e01b845280600485015282519283918260248701528686019101620004be565b601f01601f19168101030190fd5b6001600160401b038111620003a0576005928354926001938481811c91168015620006d8575b838210146200047457601f8111620006a1575b5081601f84116001146200063757509282939183926000946200062b575b50501b916000199060031b1c191617905560ff90565b01519250388062000615565b919083601f1981168760005284600020946000905b888383106200068657505050106200066c575b505050811b01905560ff90565b015160001960f88460031b161c191690553880806200065f565b8587015188559096019594850194879350908101906200064c565b8560005284601f846000209201871c820191601f8601881c015b828110620006cb575050620005f7565b60008155018590620006bb565b90607f1690620005e4565b805160209081811015620007105750601f8251116200057c57808251920151908083106200056d57501790565b906001600160401b038211620003a057600654926001938481811c911680156200082f575b838210146200047457601f8111620007f5575b5081601f84116001146200078957509282939183926000946200077d575b50501b916000199060031b1c19161760065560ff90565b01519250388062000766565b919083601f198116600660005284600020946000905b88838310620007da5750505010620007c0575b505050811b0160065560ff90565b015160001960f88460031b161c19169055388080620007b2565b8587015188559096019594850194879350908101906200079f565b600660005284601f84600020920160051c820191601f860160051c015b8281106200082257505062000748565b6000815501859062000812565b90607f16906200073556fe6080604052600436101561001257600080fd5b60003560e01c8062fdd58e1461025657806306fdde0314610251578063095ea7b31461024c57806318160ddd146102475780631c0f12b61461024257806323b872dd1461023d578063313ce567146102385780633644e51514610233578063395093511461022e5780633a46b1a8146102295780633fafa127146102245780634bf5d7e91461021f578063587cde1e1461021a5780635c19a95c146102155780636fcfff451461021057806370a082311461020b578063715018a6146102065780637ecebe0014610201578063836a1040146101fc57806384b0196e146101f75780638cb0a511146101f25780638da5cb5b146101ed5780638e539e8c146101e857806391ddadf4146101e357806395d89b41146101de5780639ab24eb0146101d95780639eea5f66146101d4578063a457c2d7146101cf578063a9059cbb146101ca578063bd85b039146101c5578063c3cda520146101c0578063d505accf146101bb578063dd62ed3e146101b6578063f1127ed8146101b1578063f2fde38b146101ac5763f8548e36146101a757600080fd5b6115bb565b6114d6565b611454565b6113f7565b6112b3565b611184565b611146565b611120565b61104e565b610ee7565b610e85565b610dde565b610db2565b610c59565b610c32565b610bdc565b610ac8565b610991565b61092d565b6108c4565b6108a6565b61085e565b61083c565b610801565b610750565b610715565b6105c6565b610567565b61054c565b610530565b6104f7565b610454565b610436565b610405565b610320565b61028c565b600435906001600160a01b038216820361027157565b600080fd5b602435906001600160a01b038216820361027157565b346102715760406003193601126102715760206102c46102aa61025b565b6001600160a01b0316600052600060205260406000205490565b604051908152f35b919082519283825260005b8481106102f8575050601f19601f8460006020809697860101520116010190565b6020818301810151848301820152016102d7565b90602061031d9281815201906102cc565b90565b346102715760008060031936011261040257604051908060035461034381611669565b808552916001918083169081156103d8575060011461037d575b6103798561036d81870382611712565b6040519182918261030c565b0390f35b9250600383527fc2575a0e9e593c00f959f8c92f12db2869c3395a3b0502d05e2516446f71f85b5b8284106103c057505050810160200161036d8261037961035d565b805460208587018101919091529093019281016103a5565b8695506103799693506020925061036d94915060ff191682840152151560051b820101929361035d565b80fd5b346102715760406003193601126102715761042b61042161025b565b6024359033611a28565b602060405160018152f35b34610271576000600319360112610271576020600254604051908152f35b346102715760806003193601126102715761046d610276565b604435906001600160a01b0382168203610271577f000000000000000000000000000000000000000000000000000000000000000080151590816104ea575b506104c0576104be9160643591611735565b005b60046040517fcdceed00000000000000000000000000000000000000000000000000000000008152fd5b90506004351415386104ac565b3461027157606060031936011261027157602061052661051561025b565b61051d610276565b60443591611735565b6040519015158152f35b3461027157600060031936011261027157602060405160128152f35b346102715760006003193601126102715760206102c4612640565b346102715760406003193601126102715761058061025b565b3360005260016020526105aa816040600020906001600160a01b0316600052602052604060002090565b5460243581018091116105c15761042b9133611a28565b6117e5565b34610271576040600319360112610271576105df61025b565b6001600160a01b036024359161060665ffffffffffff6105fe43612b6b565b168410611c34565b16600052600a6020526040600020805491600083600581116106c4575b50905b8382106106735750508161064c575050602060005b6001600160e01b0360405191168152f35b61066761066e91600019602094019060005260206000200190565b5460201c90565b61063b565b909261067f8185612986565b908263ffffffff6106a461069a858860005260206000200190565b5463ffffffff1690565b1611156106b45750925b90610626565b93506106bf906117fb565b6106ae565b806106d46106da9296939661299b565b90611c7f565b908263ffffffff6106f561069a858860005260206000200190565b1611156107055750925b38610623565b9350610710906117fb565b6106ff565b346102715760006003193601126102715760206040517f00000000000000000000000000000000000000000000000000000000000000008152f35b34610271576000600319360112610271574365ffffffffffff61077243612b6b565b16036107bd57610379604051610787816116b9565b601d81527f6d6f64653d626c6f636b6e756d6265722666726f6d3d64656661756c7400000060208201526040519182918261030c565b606460405162461bcd60e51b815260206004820152601d60248201527f4552433230566f7465733a2062726f6b656e20636c6f636b206d6f64650000006044820152fd5b346102715760206003193601126102715760206001600160a01b038061082561025b565b166000526009825260406000205416604051908152f35b34610271576020600319360112610271576104be61085861025b565b33611e6a565b34610271576020600319360112610271576001600160a01b0361087f61025b565b16600052600a6020526020610898604060002054612be8565b63ffffffff60405191168152f35b346102715760206003193601126102715760206102c46102aa61025b565b3461027157600080600319360112610402576108de611611565b806001600160a01b03600c5473ffffffffffffffffffffffffffffffffffffffff198116600c55167f8be0079c531659141344cd1fd0a4f28419497f9722a3daafe3b4186f6b6457e08280a380f35b34610271576020600319360112610271576001600160a01b0361094e61025b565b1660005260076020526020604060002054604051908152f35b600319606091011261027157600435906024356001600160a01b0381168103610271579060443590565b346102715761099f36610967565b90916109a9611611565b7f00000000000000000000000000000000000000000000000000000000000000008015159182610abd575b50506104c0576001600160a01b038216918215610a795781610a5f916104be94610a08610a0384600254611809565b600255565b610a25826001600160a01b03166000526000602052604060002090565b8054840190556040518381526000907fddf252ad1be2c89b69c2b068fc378daa952ba7f163c4a11628f55a4df523b3ef90602090a3611db9565b610a746001600160e01b036002541115611cd7565b6121d8565b606460405162461bcd60e51b815260206004820152601f60248201527f45524332303a206d696e7420746f20746865207a65726f2061646472657373006044820152fd5b1415905038806109d4565b346102715760008060031936011261040257610b8e90610b077f000000000000000000000000000000000000000000000000000000000000000061279b565b610b307f00000000000000000000000000000000000000000000000000000000000000006128ac565b9160405191610b3e836116da565b8183526040519485947f0f000000000000000000000000000000000000000000000000000000000000008652610b8060209360e08589015260e08801906102cc565b9086820360408801526102cc565b904660608601523060808601528260a086015284820360c08601528080855193848152019401925b828110610bc557505050500390f35b835185528695509381019392810192600101610bb6565b3461027157610bea36610967565b90917f00000000000000000000000000000000000000000000000000000000000000008015159182610c27575b50506104c0576104be9133611a28565b141590503880610c17565b346102715760006003193601126102715760206001600160a01b03600c5416604051908152f35b3461027157602060031936011261027157600435610c8865ffffffffffff610c8043612b6b565b168210611c34565b600b549060008260058111610d4b575b50905b828210610ce8578280610cb5575060405160008152602090f35b600b60005260209061066e907f0175b7a638427703f0dbe7bb9bbf987a2551717b34e79f33b5b1008d1fa01db801610667565b9091610cf48184612986565b600b600052908263ffffffff610d2b7f0175b7a638427703f0dbe7bb9bbf987a2551717b34e79f33b5b1008d1fa01db9850161069a565b161115610d3b5750915b90610c9b565b9250610d46906117fb565b610d35565b806106d4610d5b9295939561299b565b600b600052908263ffffffff610d927f0175b7a638427703f0dbe7bb9bbf987a2551717b34e79f33b5b1008d1fa01db9850161069a565b161115610da25750915b38610c98565b9250610dad906117fb565b610d9c565b34610271576000600319360112610271576020610dce43612b6b565b65ffffffffffff60405191168152f35b3461027157600080600319360112610402576040519080600454610e0181611669565b808552916001918083169081156103d85750600114610e2a576103798561036d81870382611712565b9250600483527f8a35acfbc15ff81a39ae7d344fd709f28e8600b4aa8c65c6b64bfe7fe36bd19b5b828410610e6d57505050810160200161036d8261037961035d565b80546020858701810191909152909301928101610e52565b34610271576020600319360112610271576001600160a01b03610ea661025b565b16600052600a602052604060002080548015600014610ecd57505060405160008152602090f35b602091600019610ede920190611be4565b5054811c61063b565b3461027157610ef536610967565b9091610eff611611565b7f00000000000000000000000000000000000000000000000000000000000000008015159182611043575b50506104c0576001600160a01b038216918215610fd957818160006104be9583610f6a610fd4966001600160a01b03166000526000602052604060002090565b54610f7782821015611d48565b03610f95846001600160a01b03166000526000602052604060002090565b55610fa38460025403600255565b6040518481527fddf252ad1be2c89b69c2b068fc378daa952ba7f163c4a11628f55a4df523b3ef90602090a3611e04565b61230c565b608460405162461bcd60e51b815260206004820152602160248201527f45524332303a206275726e2066726f6d20746865207a65726f2061646472657360448201527f73000000000000000000000000000000000000000000000000000000000000006064820152fd5b141590503880610f2a565b346102715760406003193601126102715761106761025b565b60243590336000526001602052611095816040600020906001600160a01b0316600052602052604060002090565b54918083106110b6576110aa92039033611a28565b60405160018152602090f35b608460405162461bcd60e51b815260206004820152602560248201527f45524332303a2064656372656173656420616c6c6f77616e63652062656c6f7760448201527f207a65726f0000000000000000000000000000000000000000000000000000006064820152fd5b346102715760406003193601126102715761042b61113c61025b565b60243590336118f8565b34610271576020600319360112610271576020600254604051908152f35b6064359060ff8216820361027157565b6084359060ff8216820361027157565b346102715760c06003193601126102715761119d61025b565b604435906024356111ac611164565b9280421161126f5761123d61126a916104be9560405190611225826112176020820195898b886060919493926001600160a01b0360808301967fe48329057bfd03d55e49b547132e39cffd9c1820ad7b9d4c5307691425d15adf845216602083015260408201520152565b03601f198101845283611712565b61123860a435936084359351902061275a565b61243f565b91611264836001600160a01b03166000526007602052604060002090815491600183019055565b14611c8c565b611e6a565b606460405162461bcd60e51b815260206004820152601d60248201527f4552433230566f7465733a207369676e617475726520657870697265640000006044820152fd5b346102715760e0600319360112610271576112cc61025b565b6112d4610276565b60443590606435926112e4611174565b938042116113b35761139b6113ae916112176104be97611388611323876001600160a01b03166000526007602052604060002090815491600183019055565b9360405193849160208301968c8c8c8a91959493909260a09360c08401977f6e71edae12b1b97f4d1f60370fef10105fa2faae0126114a169c64845d6126c985526001600160a01b038092166020860152166040840152606083015260808201520152565b61123860c4359360a4359351902061275a565b6001600160a01b03808416911614611b8c565b611a28565b606460405162461bcd60e51b815260206004820152601d60248201527f45524332305065726d69743a206578706972656420646561646c696e650000006044820152fd5b3461027157604060031936011261027157602061144b61141561025b565b6001600160a01b03611425610276565b9116600052600183526040600020906001600160a01b0316600052602052604060002090565b54604051908152f35b346102715760406003193601126102715761146d61025b565b63ffffffff60243581811681036102715760206114c46114be6001600160e01b03936001600160a01b036040976000868a516114a8816116b9565b828152015216600052600a845286600020611be4565b50611c12565b84519381511684520151166020820152f35b34610271576020600319360112610271576114ef61025b565b6114f7611611565b6001600160a01b0380911690811561155157600c548273ffffffffffffffffffffffffffffffffffffffff19821617600c55167f8be0079c531659141344cd1fd0a4f28419497f9722a3daafe3b4186f6b6457e0600080a3005b608460405162461bcd60e51b815260206004820152602660248201527f4f776e61626c653a206e6577206f776e657220697320746865207a65726f206160448201527f64647265737300000000000000000000000000000000000000000000000000006064820152fd5b34610271576115c936610967565b90917f00000000000000000000000000000000000000000000000000000000000000008015159182611606575b50506104c0576104be91336118f8565b1415905038806115f6565b6001600160a01b03600c5416330361162557565b606460405162461bcd60e51b815260206004820152602060248201527f4f776e61626c653a2063616c6c6572206973206e6f7420746865206f776e65726044820152fd5b90600182811c92168015611699575b602083101461168357565b634e487b7160e01b600052602260045260246000fd5b91607f1691611678565b634e487b7160e01b600052604160045260246000fd5b6040810190811067ffffffffffffffff8211176116d557604052565b6116a3565b6020810190811067ffffffffffffffff8211176116d557604052565b60c0810190811067ffffffffffffffff8211176116d557604052565b90601f601f19910116810190811067ffffffffffffffff8211176116d557604052565b91906001600160a01b038316600052600160205261176a336040600020906001600160a01b0316600052602052604060002090565b54926000198403611785575b61178093506118f8565b600190565b8284106117a15761179c8361178095033383611a28565b611776565b606460405162461bcd60e51b815260206004820152601d60248201527f45524332303a20696e73756666696369656e7420616c6c6f77616e63650000006044820152fd5b634e487b7160e01b600052601160045260246000fd5b90600182018092116105c157565b919082018092116105c157565b1561181d57565b608460405162461bcd60e51b815260206004820152602360248201527f45524332303a207472616e7366657220746f20746865207a65726f206164647260448201527f65737300000000000000000000000000000000000000000000000000000000006064820152fd5b1561188e57565b608460405162461bcd60e51b815260206004820152602660248201527f45524332303a207472616e7366657220616d6f756e742065786365656473206260448201527f616c616e636500000000000000000000000000000000000000000000000000006064820152fd5b91906001600160a01b039283811680156119be576119bc9483169061191e821515611816565b8461193c846001600160a01b03166000526000602052604060002090565b5461194982821015611887565b03611967846001600160a01b03166000526000602052604060002090565b55611985846001600160a01b03166000526000602052604060002090565b8054860190556040518581527fddf252ad1be2c89b69c2b068fc378daa952ba7f163c4a11628f55a4df523b3ef90602090a3611e36565b565b608460405162461bcd60e51b815260206004820152602560248201527f45524332303a207472616e736665722066726f6d20746865207a65726f20616460448201527f64726573730000000000000000000000000000000000000000000000000000006064820152fd5b906001600160a01b0391828116928315611b23578216938415611ab95780611aa37f8c5be1e5ebec7d5bd14f71427d1e84f3dd0314c0f7b2291e5b200ac8c7c3b92594611a8b611ab4956001600160a01b03166000526001602052604060002090565b906001600160a01b0316600052602052604060002090565b556040519081529081906020820190565b0390a3565b608460405162461bcd60e51b815260206004820152602260248201527f45524332303a20617070726f766520746f20746865207a65726f20616464726560448201527f73730000000000000000000000000000000000000000000000000000000000006064820152fd5b608460405162461bcd60e51b8152602060048201526024808201527f45524332303a20617070726f76652066726f6d20746865207a65726f2061646460448201527f72657373000000000000000000000000000000000000000000000000000000006064820152fd5b15611b9357565b606460405162461bcd60e51b815260206004820152601e60248201527f45524332305065726d69743a20696e76616c6964207369676e617475726500006044820152fd5b604051906119bc826116b9565b8054821015611bfc5760005260206000200190600090565b634e487b7160e01b600052603260045260246000fd5b90604051611c1f816116b9565b602081935463ffffffff81168352811c910152565b15611c3b57565b606460405162461bcd60e51b815260206004820152601960248201527f4552433230566f7465733a20667574757265206c6f6f6b7570000000000000006044820152fd5b919082039182116105c157565b15611c9357565b606460405162461bcd60e51b815260206004820152601960248201527f4552433230566f7465733a20696e76616c6964206e6f6e6365000000000000006044820152fd5b15611cde57565b608460405162461bcd60e51b815260206004820152603060248201527f4552433230566f7465733a20746f74616c20737570706c79207269736b73206f60448201527f766572666c6f77696e6720766f746573000000000000000000000000000000006064820152fd5b15611d4f57565b608460405162461bcd60e51b815260206004820152602260248201527f45524332303a206275726e20616d6f756e7420657863656564732062616c616e60448201527f63650000000000000000000000000000000000000000000000000000000000006064820152fd5b60096020527fec8156718a8372b1db44bb411437d0870f3e3790d4a08526d024ce1b0b668f6b546001600160a01b03918216600090815260409020546119bc93929081169116611ee5565b906119bc916001600160a01b038091166000526009602052806040600020541690600080526040600020541690611ee5565b906119bc92916001600160a01b03809116600052600960205280806040600020541692166000526040600020541690611ee5565b6119bc916001600160a01b038092166000928184526009602052806040852054168092856020527f3134e8a2e6d97e929a7e54011ea5485d7d196dd5f0ba4d4ef95803e8e3fc257f604087205496600960205260408120948716948573ffffffffffffffffffffffffffffffffffffffff1982541617905580a45b91906001600160a01b0380821693168381141580612104575b611f09575b50505050565b80611f7c575b5082611f1c575b80611f03565b7fdec2bacdd2f05b59de34da9b523dff8be42e5e38e818c82fdb0bae774387a72491611f5e611f63926001600160a01b0316600052600a602052604060002090565b612384565b60408051928352602083019190915290a2388080611f16565b80600052600a6020527fdec2bacdd2f05b59de34da9b523dff8be42e5e38e818c82fdb0bae774387a72460406000208054801591826000146120e157611fc0611bd7565b6000815260006020820152915b611ff0611fe460208501516001600160e01b031690565b6001600160e01b031690565b92611ffb8985612c63565b941590816120be575b501561205c5761202c6120469260001961201d87612aed565b93019060005260206000200190565b9063ffffffff63ffffffff1983549260201b169116179055565b604080519182526020820192909252a238611f0f565b506120b99061208061207b61207043612b6b565b65ffffffffffff1690565b612be8565b906120b461208d86612aed565b6120a4612098611bd7565b63ffffffff9095168552565b6001600160e01b03166020840152565b612179565b612046565b5163ffffffff16905063ffffffff6120d861207043612b6b565b91161438612004565b6120fe6120f960001984018360005260206000200190565b611c12565b91611fcd565b50821515611efe565b600b5490680100000000000000008210156116d5576001820180600b55821015611bfc57600b600052805160209182015190911b63ffffffff191663ffffffff91909116177f0175b7a638427703f0dbe7bb9bbf987a2551717b34e79f33b5b1008d1fa01db990910155565b8054680100000000000000008110156116d55761219b91600182018155611be4565b6121c257815160209283015190921b63ffffffff191663ffffffff92909216919091179055565b634e487b7160e01b600052600060045260246000fd5b600b54909181159182156122d7576121ee611bd7565b60008152600060208201525b61221b612214611fe460208401516001600160e01b031690565b9586612c70565b931590816122b4575b5015612269576119bc9061202c60001961223d86612aed565b9201600b6000527f0175b7a638427703f0dbe7bb9bbf987a2551717b34e79f33b5b1008d1fa01db90190565b506119bc61227c61207b61207043612b6b565b6122af61228885612aed565b61229f612293611bd7565b63ffffffff9094168452565b6001600160e01b03166020830152565b61210d565b5163ffffffff16905063ffffffff6122ce61207043612b6b565b91161438612224565b600b6000526123077f0175b7a638427703f0dbe7bb9bbf987a2551717b34e79f33b5b1008d1fa01db88201611c12565b6121fa565b600b549091811591821561234f57612322611bd7565b60008152600060208201525b61221b612348611fe460208401516001600160e01b031690565b9586612c63565b600b60005261237f7f0175b7a638427703f0dbe7bb9bbf987a2551717b34e79f33b5b1008d1fa01db88201611c12565b61232e565b9091815491821592836000146124225761239c611bd7565b60008152600060208201525b6123c96123c2611fe460208401516001600160e01b031690565b9687612c70565b941590816123ff575b50156123eb5761202c6119bc9260001961201d87612aed565b506119bc9061208061207b61207043612b6b565b5163ffffffff16905063ffffffff61241961207043612b6b565b911614386123d2565b61243a6120f960001983018460005260206000200190565b6123a8565b9161031d939161244e936125b1565b919091612476565b6005111561246057565b634e487b7160e01b600052602160045260246000fd5b61247f81612456565b806124875750565b61249081612456565b600181036124dd5760405162461bcd60e51b815260206004820152601860248201527f45434453413a20696e76616c6964207369676e617475726500000000000000006044820152606490fd5b6124e681612456565b600281036125335760405162461bcd60e51b815260206004820152601f60248201527f45434453413a20696e76616c6964207369676e6174757265206c656e677468006044820152606490fd5b8061253f600392612456565b1461254657565b60405162461bcd60e51b815260206004820152602260248201527f45434453413a20696e76616c6964207369676e6174757265202773272076616c60448201527f75650000000000000000000000000000000000000000000000000000000000006064820152608490fd5b9291907f7fffffffffffffffffffffffffffffff5d576e7357a4501ddfe92f46681b20a083116126345791608094939160ff602094604051948552168484015260408301526060820152600093849182805260015afa156126275781516001600160a01b03811615612621579190565b50600190565b50604051903d90823e3d90fd5b50505050600090600390565b6001600160a01b037f000000000000000000000000000000000000000000000000000000000000000016301480612731575b1561269b577f000000000000000000000000000000000000000000000000000000000000000090565b60405160208101907f8b73c3c69bb8fe3d512ecc4cf759cc79239f7b179b0ffacaa9a75d522b39400f82527f000000000000000000000000000000000000000000000000000000000000000060408201527f000000000000000000000000000000000000000000000000000000000000000060608201524660808201523060a082015260a0815261272b816116f6565b51902090565b507f00000000000000000000000000000000000000000000000000000000000000004614612672565b604290612765612640565b90604051917f19010000000000000000000000000000000000000000000000000000000000008352600283015260228201522090565b60ff81146127f15760ff811690601f82116127c757604051916127bd836116b9565b8252602082015290565b60046040517fb3512b0c000000000000000000000000000000000000000000000000000000008152fd5b5060405160055481600061280483611669565b8083529260019081811690811561288a575060011461282b575b5061031d92500382611712565b6005600090815291507f036b6384b5eca791c62761152d0c79bb0604c104a5fb6f4eb0703f3154bb3db05b84831061286f575061031d93505081016020013861281e565b81935090816020925483858901015201910190918492612856565b6020935061031d95925060ff1991501682840152151560051b8201013861281e565b60ff81146128ce5760ff811690601f82116127c757604051916127bd836116b9565b506040516006548160006128e183611669565b8083529260019081811690811561288a5750600114612907575061031d92500382611712565b6006600090815291507ff652222313e28459528d920b65115c16c04f3efc82aaedc97be59f3f377c0d3f5b84831061294b575061031d93505081016020013861281e565b81935090816020925483858901015201910190918492612932565b8115612970570490565b634e487b7160e01b600052601260045260246000fd5b90808216911860011c81018091116105c15790565b8015612ad55780612a6e612a67612a5d612a53612a49612a3f612a35612a2b600161031d9a6000908b60801c80612ac9575b508060401c80612abc575b508060201c80612aaf575b508060101c80612aa2575b508060081c80612a95575b508060041c80612a88575b508060021c80612a7b575b50821c612a74575b811c1b612a24818b612966565b0160011c90565b612a24818a612966565b612a248189612966565b612a248188612966565b612a248187612966565b612a248186612966565b612a248185612966565b8092612966565b90612adb565b8101612a17565b6002915091019038612a0f565b6004915091019038612a04565b60089150910190386129f9565b60109150910190386129ee565b60209150910190386129e3565b60409150910190386129d8565b915050608090386129cd565b50600090565b9080821015612ae8575090565b905090565b6001600160e01b0390818111612b01571690565b608460405162461bcd60e51b815260206004820152602760248201527f53616665436173743a2076616c756520646f65736e27742066697420696e203260448201527f32342062697473000000000000000000000000000000000000000000000000006064820152fd5b65ffffffffffff90818111612b7e571690565b608460405162461bcd60e51b815260206004820152602660248201527f53616665436173743a2076616c756520646f65736e27742066697420696e203460448201527f38206269747300000000000000000000000000000000000000000000000000006064820152fd5b63ffffffff90818111612bf9571690565b608460405162461bcd60e51b815260206004820152602660248201527f53616665436173743a2076616c756520646f65736e27742066697420696e203360448201527f32206269747300000000000000000000000000000000000000000000000000006064820152fd5b9081039081116105c15790565b9081018091116105c1579056fea26469706673582212205e3f619f3b41d340b57f6d46730ac8de5d3be107261b1f84a3bebfc44776886064736f6c63430008140033",
    "linkReferences": {}
  },
  "methodIdentifiers": {
    "CLOCK_MODE()": "4bf5d7e9",
    "DOMAIN_SEPARATOR()": "3644e515",
    "allowance(address,address)": "dd62ed3e",
    "approve(address,uint256)": "095ea7b3",
    "approve(uint256,address,uint256)": "8cb0a511",
    "balanceOf(address)": "70a08231",
    "balanceOf(address,uint256)": "00fdd58e",
    "burn(uint256,address,uint256)": "9eea5f66",
    "checkpoints(address,uint32)": "f1127ed8",
    "clock()": "91ddadf4",
    "decimals()": "313ce567",
    "decreaseAllowance(address,uint256)": "a457c2d7",
    "delegate(address)": "5c19a95c",
    "delegateBySig(address,uint256,uint256,uint8,bytes32,bytes32)": "c3cda520",
    "delegates(address)": "587cde1e",
    "eip712Domain()": "84b0196e",
    "getPastTotalSupply(uint256)": "8e539e8c",
    "getPastVotes(address,uint256)": "3a46b1a8",
    "getVotes(address)": "9ab24eb0",
    "increaseAllowance(address,uint256)": "39509351",
    "mint(uint256,address,uint256)": "836a1040",
    "name()": "06fdde03",
    "nonces(address)": "7ecebe00",
    "numCheckpoints(address)": "6fcfff45",
    "owner()": "8da5cb5b",
    "permit(address,address,uint256,uint256,uint8,bytes32,bytes32)": "d505accf",
    "projectId()": "3fafa127",
    "renounceOwnership()": "715018a6",
    "symbol()": "95d89b41",
    "totalSupply()": "18160ddd",
    "totalSupply(uint256)": "bd85b039",
    "transfer(address,uint256)": "a9059cbb",
    "transfer(uint256,address,uint256)": "f8548e36",
    "transferFrom(address,address,uint256)": "23b872dd",
    "transferFrom(uint256,address,address,uint256)": "1c0f12b6",
    "transferOwnership(address)": "f2fde38b"
  },
  "id": 80
}