{
  "abi": [
    {
      "inputs": [
        {
          "internalType": "contract IJBOperatorStore",
          "name": "_operatorStore",
          "type": "address"
        },
        {
          "internalType": "contract IJBProjects",
          "name": "_projects",
          "type": "address"
        },
        {
          "internalType": "contract IJBDirectory",
          "name": "_directory",
          "type": "address"
        },
        {
          "internalType": "contract IJBFundingCycleStore",
          "name": "_fundingCycleStore",
          "type": "address"
        }
      ],
      "stateMutability": "nonpayable",
      "type": "constructor"
    },
    {
      "inputs": [],
      "name": "ALREADY_SET",
      "type": "error"
    },
    {
      "inputs": [],
      "name": "CONTROLLER_UNAUTHORIZED",
      "type": "error"
    },
    {
      "inputs": [],
      "name": "EMPTY_NAME",
      "type": "error"
    },
    {
      "inputs": [],
      "name": "EMPTY_SYMBOL",
      "type": "error"
    },
    {
      "inputs": [],
      "name": "EMPTY_TOKEN",
      "type": "error"
    },
    {
      "inputs": [],
      "name": "INSUFFICIENT_FUNDS",
      "type": "error"
    },
    {
      "inputs": [],
      "name": "INSUFFICIENT_UNCLAIMED_TOKENS",
      "type": "error"
    },
    {
      "inputs": [],
      "name": "OVERFLOW_ALERT",
      "type": "error"
    },
    {
      "inputs": [],
      "name": "PROJECT_ALREADY_HAS_TOKEN",
      "type": "error"
    },
    {
      "inputs": [],
      "name": "RECIPIENT_ZERO_ADDRESS",
      "type": "error"
    },
    {
      "inputs": [],
      "name": "TOKENS_MUST_HAVE_18_DECIMALS",
      "type": "error"
    },
    {
      "inputs": [],
      "name": "TOKEN_NOT_FOUND",
      "type": "error"
    },
    {
      "inputs": [],
      "name": "TRANSFERS_PAUSED",
      "type": "error"
    },
    {
      "inputs": [],
      "name": "UNAUTHORIZED",
      "type": "error"
    },
    {
      "anonymous": false,
      "inputs": [
        {
          "indexed": true,
          "internalType": "address",
          "name": "holder",
          "type": "address"
        },
        {
          "indexed": true,
          "internalType": "uint256",
          "name": "projectId",
          "type": "uint256"
        },
        {
          "indexed": false,
          "internalType": "uint256",
          "name": "amount",
          "type": "uint256"
        },
        {
          "indexed": false,
          "internalType": "uint256",
          "name": "initialUnclaimedBalance",
          "type": "uint256"
        },
        {
          "indexed": false,
          "internalType": "uint256",
          "name": "initialClaimedBalance",
          "type": "uint256"
        },
        {
          "indexed": false,
          "internalType": "bool",
          "name": "preferClaimedTokens",
          "type": "bool"
        },
        {
          "indexed": false,
          "internalType": "address",
          "name": "caller",
          "type": "address"
        }
      ],
      "name": "Burn",
      "type": "event"
    },
    {
      "anonymous": false,
      "inputs": [
        {
          "indexed": true,
          "internalType": "address",
          "name": "holder",
          "type": "address"
        },
        {
          "indexed": true,
          "internalType": "uint256",
          "name": "projectId",
          "type": "uint256"
        },
        {
          "indexed": false,
          "internalType": "uint256",
          "name": "initialUnclaimedBalance",
          "type": "uint256"
        },
        {
          "indexed": false,
          "internalType": "uint256",
          "name": "amount",
          "type": "uint256"
        },
        {
          "indexed": false,
          "internalType": "address",
          "name": "caller",
          "type": "address"
        }
      ],
      "name": "Claim",
      "type": "event"
    },
    {
      "anonymous": false,
      "inputs": [
        {
          "indexed": true,
          "internalType": "uint256",
          "name": "projectId",
          "type": "uint256"
        },
        {
          "indexed": true,
          "internalType": "contract IJBToken",
          "name": "token",
          "type": "address"
        },
        {
          "indexed": false,
          "internalType": "string",
          "name": "name",
          "type": "string"
        },
        {
          "indexed": false,
          "internalType": "string",
          "name": "symbol",
          "type": "string"
        },
        {
          "indexed": false,
          "internalType": "address",
          "name": "caller",
          "type": "address"
        }
      ],
      "name": "Issue",
      "type": "event"
    },
    {
      "anonymous": false,
      "inputs": [
        {
          "indexed": true,
          "internalType": "address",
          "name": "holder",
          "type": "address"
        },
        {
          "indexed": true,
          "internalType": "uint256",
          "name": "projectId",
          "type": "uint256"
        },
        {
          "indexed": false,
          "internalType": "uint256",
          "name": "amount",
          "type": "uint256"
        },
        {
          "indexed": false,
          "internalType": "bool",
          "name": "tokensWereClaimed",
          "type": "bool"
        },
        {
          "indexed": false,
          "internalType": "bool",
          "name": "preferClaimedTokens",
          "type": "bool"
        },
        {
          "indexed": false,
          "internalType": "address",
          "name": "caller",
          "type": "address"
        }
      ],
      "name": "Mint",
      "type": "event"
    },
    {
      "anonymous": false,
      "inputs": [
        {
          "indexed": true,
          "internalType": "uint256",
          "name": "projectId",
          "type": "uint256"
        },
        {
          "indexed": true,
          "internalType": "contract IJBToken",
          "name": "newToken",
          "type": "address"
        },
        {
          "indexed": false,
          "internalType": "address",
          "name": "caller",
          "type": "address"
        }
      ],
      "name": "Set",
      "type": "event"
    },
    {
      "anonymous": false,
      "inputs": [
        {
          "indexed": true,
          "internalType": "address",
          "name": "holder",
          "type": "address"
        },
        {
          "indexed": true,
          "internalType": "uint256",
          "name": "projectId",
          "type": "uint256"
        },
        {
          "indexed": true,
          "internalType": "address",
          "name": "recipient",
          "type": "address"
        },
        {
          "indexed": false,
          "internalType": "uint256",
          "name": "amount",
          "type": "uint256"
        },
        {
          "indexed": false,
          "internalType": "address",
          "name": "caller",
          "type": "address"
        }
      ],
      "name": "Transfer",
      "type": "event"
    },
    {
      "inputs": [
        {
          "internalType": "address",
          "name": "_holder",
          "type": "address"
        },
        {
          "internalType": "uint256",
          "name": "_projectId",
          "type": "uint256"
        }
      ],
      "name": "balanceOf",
      "outputs": [
        {
          "internalType": "uint256",
          "name": "balance",
          "type": "uint256"
        }
      ],
      "stateMutability": "view",
      "type": "function"
    },
    {
      "inputs": [
        {
          "internalType": "address",
          "name": "_holder",
          "type": "address"
        },
        {
          "internalType": "uint256",
          "name": "_projectId",
          "type": "uint256"
        },
        {
          "internalType": "uint256",
          "name": "_amount",
          "type": "uint256"
        },
        {
          "internalType": "bool",
          "name": "_preferClaimedTokens",
          "type": "bool"
        }
      ],
      "name": "burnFrom",
      "outputs": [],
      "stateMutability": "nonpayable",
      "type": "function"
    },
    {
      "inputs": [
        {
          "internalType": "address",
          "name": "_holder",
          "type": "address"
        },
        {
          "internalType": "uint256",
          "name": "_projectId",
          "type": "uint256"
        },
        {
          "internalType": "uint256",
          "name": "_amount",
          "type": "uint256"
        }
      ],
      "name": "claimFor",
      "outputs": [],
      "stateMutability": "nonpayable",
      "type": "function"
    },
    {
      "inputs": [],
      "name": "directory",
      "outputs": [
        {
          "internalType": "contract IJBDirectory",
          "name": "",
          "type": "address"
        }
      ],
      "stateMutability": "view",
      "type": "function"
    },
    {
      "inputs": [],
      "name": "fundingCycleStore",
      "outputs": [
        {
          "internalType": "contract IJBFundingCycleStore",
          "name": "",
          "type": "address"
        }
      ],
      "stateMutability": "view",
      "type": "function"
    },
    {
      "inputs": [
        {
          "internalType": "uint256",
          "name": "_projectId",
          "type": "uint256"
        },
        {
          "internalType": "string",
          "name": "_name",
          "type": "string"
        },
        {
          "internalType": "string",
          "name": "_symbol",
          "type": "string"
        }
      ],
      "name": "issueFor",
      "outputs": [
        {
          "internalType": "contract IJBToken",
          "name": "token",
          "type": "address"
        }
      ],
      "stateMutability": "nonpayable",
      "type": "function"
    },
    {
      "inputs": [
        {
          "internalType": "address",
          "name": "_holder",
          "type": "address"
        },
        {
          "internalType": "uint256",
          "name": "_projectId",
          "type": "uint256"
        },
        {
          "internalType": "uint256",
          "name": "_amount",
          "type": "uint256"
        },
        {
          "internalType": "bool",
          "name": "_preferClaimedTokens",
          "type": "bool"
        }
      ],
      "name": "mintFor",
      "outputs": [],
      "stateMutability": "nonpayable",
      "type": "function"
    },
    {
      "inputs": [],
      "name": "operatorStore",
      "outputs": [
        {
          "internalType": "contract IJBOperatorStore",
          "name": "",
          "type": "address"
        }
      ],
      "stateMutability": "view",
      "type": "function"
    },
    {
      "inputs": [],
      "name": "projects",
      "outputs": [
        {
          "internalType": "contract IJBProjects",
          "name": "",
          "type": "address"
        }
      ],
      "stateMutability": "view",
      "type": "function"
    },
    {
      "inputs": [
        {
          "internalType": "uint256",
          "name": "_projectId",
          "type": "uint256"
        },
        {
          "internalType": "contract IJBToken",
          "name": "_token",
          "type": "address"
        }
      ],
      "name": "setFor",
      "outputs": [],
      "stateMutability": "nonpayable",
      "type": "function"
    },
    {
      "inputs": [
        {
          "internalType": "uint256",
          "name": "",
          "type": "uint256"
        }
      ],
      "name": "tokenOf",
      "outputs": [
        {
          "internalType": "contract IJBToken",
          "name": "",
          "type": "address"
        }
      ],
      "stateMutability": "view",
      "type": "function"
    },
    {
      "inputs": [
        {
          "internalType": "uint256",
          "name": "_projectId",
          "type": "uint256"
        }
      ],
      "name": "totalSupplyOf",
      "outputs": [
        {
          "internalType": "uint256",
          "name": "totalSupply",
          "type": "uint256"
        }
      ],
      "stateMutability": "view",
      "type": "function"
    },
    {
      "inputs": [
        {
          "internalType": "address",
          "name": "_holder",
          "type": "address"
        },
        {
          "internalType": "uint256",
          "name": "_projectId",
          "type": "uint256"
        },
        {
          "internalType": "address",
          "name": "_recipient",
          "type": "address"
        },
        {
          "internalType": "uint256",
          "name": "_amount",
          "type": "uint256"
        }
      ],
      "name": "transferFrom",
      "outputs": [],
      "stateMutability": "nonpayable",
      "type": "function"
    },
    {
      "inputs": [
        {
          "internalType": "address",
          "name": "",
          "type": "address"
        },
        {
          "internalType": "uint256",
          "name": "",
          "type": "uint256"
        }
      ],
      "name": "unclaimedBalanceOf",
      "outputs": [
        {
          "internalType": "uint256",
          "name": "",
          "type": "uint256"
        }
      ],
      "stateMutability": "view",
      "type": "function"
    },
    {
      "inputs": [
        {
          "internalType": "uint256",
          "name": "",
          "type": "uint256"
        }
      ],
      "name": "unclaimedTotalSupplyOf",
      "outputs": [
        {
          "internalType": "uint256",
          "name": "",
          "type": "uint256"
        }
      ],
      "stateMutability": "view",
      "type": "function"
    }
  ],
  "bytecode": {
    "object": "0x6101003461011b57601f620044f138819003918201601f19168301916001600160401b038311848410176101205780849260809460405283398101031261011b5780516001600160a01b039190828116810361011b57602082015191838316830361011b57604081015190848216820361011b5760600151938416840361011b5760805260a05260c05260e0526040516143ba908162000137823960805181818161014b015281816103560152610b79015260a05181818161039c015281816106a10152818161074b01528181610a0701528181610a9e01528181611080015281816111170152818161138c0152611421015260c05181818161083001528181610e720152610eed015260e05181818161044201526114950152f35b600080fd5b634e487b7160e01b600052604160045260246000fdfe608060408181526004803610156200001657600080fd5b600092833560e01c908162fdd58e1462001532575080631412884f14620015095780635287af3714620014c4578063557e7155146200147e5780636607955d14620011cc57806375b0d9cd14620011a1578063831d7fac1462000ea15780638b79543c1462000e5b578063906ebd0f1462000b3e578063a7f2a70b14620007ae578063ac689bcd14620003cb578063ad007d631462000385578063c41c2f24146200033f578063ceddd3e4146200010c5763ea78803f14620000d757600080fd5b346200010857602036600319011262000108573582526020828152918190205490516001600160a01b039091168152f35b8280fd5b50903462000108576200011f3662001647565b8451632eec7b5560e11b8152808701849052929591946001600160a01b039493909260209182816024817f00000000000000000000000000000000000000000000000000000000000000008b165afa90811562000335578a9162000301575b508633911603620002f3578290888a528983528987868220541683620002e8575b83156200028e57803b156200028a57865163020da84160e61b81528381018c81526001600160a01b038a166020820152604081018c90529091839183919082908490829060600103925af18015620002805762000264575b50505b6001600160e01b036200020d8a62001741565b11620002565750835196875215159086015215159084015233606084015216907f5dd3ead325af435e56bc762b40de54c96de6071938d18a26414245807591d86f90608090a380f35b8451633062f38960e11b8152fd5b6200026f90620016b2565b6200027c578938620001f7565b8980fd5b87513d84823e3d90fd5b5080fd5b5050868616808b5260028452858b208a8c528452620002b189878d20546200171d565b908b5260028452858b208a8c528452858b205560018352620002d788868c20546200171d565b898b5260018452858b2055620001fa565b80151593506200019f565b8351632adfdd0560e21b8152fd5b620003269150833d85116200032d575b6200031d8183620016fa565b81019062001803565b386200017e565b503d62000311565b85513d8c823e3d90fd5b5050346200028a57816003193601126200028a57517f00000000000000000000000000000000000000000000000000000000000000006001600160a01b03168152602090f35b5050346200028a57816003193601126200028a57517f00000000000000000000000000000000000000000000000000000000000000006001600160a01b03168152602090f35b509034620001085760803660031901126200010857620003ea62001630565b6001600160a01b036044358181169460243594929391869003620007a9578360643592169384331415806200071d575b8062000672575b620006635783516321d1336160e11b815282810187905261012080826024817f000000000000000000000000000000000000000000000000000000000000000087165afa91821562000659578a9262000596575b50506101009150620004866200186d565b50015190620004946200186d565b50836001808085600a1c1614918291815190620004b182620016dd565b80808860081c161482528060209760091c1614868201520152620005885786156200057a5784885260028252838820868952825283882054908184116200056c575090827fae47e55abe3902569528abe4272b889079230a248aec0659a2939a90354982c6949392868a5260028352848a20888b52835203838920558688526002815282882086895281526200054b82848a20546200171d565b87895260028252838920878a5282528389205582519182523390820152a480f35b84516383fc8b2d60e01b8152fd5b835163c6587bab60e01b8152fd5b83516318cdaf9760e01b8152fd5b9080925081813d831162000651575b620005b18183620016fa565b810103126200027c57855191820182811067ffffffffffffffff8211176200063c57865280518252602081015160208301528581015186830152606081015160608301526080810151608083015260a081015160a083015260c081015160c083015260e081015192831683036200027c576101009260e0830152828091015190820152388062000475565b604185634e487b7160e01b6000525260246000fd5b503d620005a5565b86513d8c823e3d90fd5b50825163075fd2b160e01b8152fd5b50835163c161c93f60e01b815233838201526024810186905260006044820152600c60648201526020816084817f000000000000000000000000000000000000000000000000000000000000000086165afa9081156200071257600091620006dd575b501562000421565b62000703915060203d81116200070a575b620006fa8183620016fa565b81019062001853565b38620006d5565b503d620006ee565b85513d6000823e3d90fd5b50835163c161c93f60e01b81523383820152856024820152866044820152600c6064820152602081608481857f0000000000000000000000000000000000000000000000000000000000000000165afa908115620007125760009162000786575b50156200041a565b620007a2915060203d81116200070a57620006fa8183620016fa565b386200077e565b600080fd5b50913462000b3b57606036600319011262000b3b5782356024359367ffffffffffffffff9485811162000b3757620007ea903690830162001681565b909160443587811162000b335762000806903690830162001681565b87516331a9108f60e11b8152808401879052602099929391926001600160a01b0392918b816024817f000000000000000000000000000000000000000000000000000000000000000088165afa90811562000b29579084918b9162000b07575b501680331415908162000a70575b81620009d8575b50620009c9578515620009ba578315620009ab57878952888b52828a8a2054166200099c57895191612af690818401928484109084111762000989575090888b620008ed8e86956200188f873960608552620008dd8c8c606088019162001824565b9085820390860152888a62001824565b920152039088f080156200097f57927f1b1705bef26552c8f314c5eb80e9c84f02876c2f7f30a7f9ad5cafd17d5fa6da949262000971928a99989795169988888c9a52808d5220886bffffffffffffffffffffffff60a01b82541617905562000963895195869560608752606087019162001824565b918483038c86015262001824565b33878301520390a351908152f35b88513d89823e3d90fd5b634e487b7160e01b8b526041905260248afd5b5088516329518c2b60e21b8152fd5b50885163571431a760e01b8152fd5b5088516392bf449d60e01b8152fd5b50885163075fd2b160e01b8152fd5b90508a519063c161c93f60e01b82523384830152602482015260006044820152600760648201528b81608481877f0000000000000000000000000000000000000000000000000000000000000000165afa90811562000a655760009162000a43575b5015386200087b565b62000a5e91508c8d3d106200070a57620006fa8183620016fa565b3862000a3a565b8b513d6000823e3d90fd5b90508a5163c161c93f60e01b81523384820152816024820152896044820152600760648201528c81608481887f0000000000000000000000000000000000000000000000000000000000000000165afa90811562000afc5760009162000ada575b50159062000874565b62000af591508d803d106200070a57620006fa8183620016fa565b3862000ad1565b8c513d6000823e3d90fd5b62000b2291508d803d106200032d576200031d8183620016fa565b3862000866565b8b513d8c823e3d90fd5b8580fd5b8380fd5b80fd5b509034620001085762000b513662001647565b90919492845194632eec7b5560e11b86528685870152602060018060a01b039681816024818b7f0000000000000000000000000000000000000000000000000000000000000000165afa90811562000e51578a9162000e2f575b50873391160362000e1f5787895288815286828a20541696831696878a5260028252828a20898b528252828a205496811560001462000d9a578a945b62000bf389876200171d565b881162000d8b57908b929183928762000d4f575b8c848b038d8162000cf7575b5050508362000c67575b5050505050907fbe100da6adaa492f7ba1b0de916ae2606126ec7b044d7aa8ec74971a607ceecd9560a095949392825195865285015283015215156060820152336080820152a380f35b803b1562000cf3578651634f752fb360e11b81529283018d81526001600160a01b03909216602083015260408201939093529091839183919082908490829060600103925af1801562000ce95762000cc3575b80808062000c1d565b62000cd490969594939296620016b2565b62000ce55790919293883862000cba565b8880fd5b84513d84823e3d90fd5b8480fd5b62000d3b9281895260028a528a8920818a528a5262000d1a838c8b205462001845565b91895260028a528a8920908952895289882055600188528887205462001845565b8d865260018752878620558c388d62000c13565b9250871562000d71578887101562000d6a57865b9262000c07565b8862000d63565b888a101562000d84578989039262000c07565b8362000d63565b508351631cf2628760e31b8152fd5b8351627eeac760e11b81526001600160a01b038616828201908152602081018c90528490829081906040010381865afa90811562000e15578c9162000de2575b509462000be7565b90508381813d831162000e0d575b62000dfc8183620016fa565b81010312620007a957513862000dda565b503d62000df0565b85513d8e823e3d90fd5b8151632adfdd0560e21b81528690fd5b62000e4a9150823d84116200032d576200031d8183620016fa565b3862000bab565b83513d8c823e3d90fd5b5050346200028a57816003193601126200028a57517f00000000000000000000000000000000000000000000000000000000000000006001600160a01b03168152602090f35b503462000108578160031936011262000108576001600160a01b0360243581811693833593909185900362000b335781516331a9108f60e11b81528181018590526020939084816024817f000000000000000000000000000000000000000000000000000000000000000086165afa9081156200119757908291899162001175575b5016803314159081620010e9575b8162001051575b5062001042578515620010335784875286845282872054166200102557815163313ce56760e01b815283818381895afa9081156200101b57879162000fd8575b5060ff601291160362000fca575082855284825280852080546001600160a01b03191685179055513381527ff2b3bb02e24e3ecd8d6fbce63d308207ce06307b9f7ba575bef710e1e70ac60e9190a380f35b9051632b70e32560e21b8152fd5b90508381813d831162001013575b62000ff28183620016fa565b810103126200100f575160ff811681036200100f5760ff62000f78565b8680fd5b503d62000fe6565b83513d89823e3d90fd5b90516397f9d95760e01b8152fd5b5090516324679e7b60e01b8152fd5b50905163075fd2b160e01b8152fd5b905083519063c161c93f60e01b82523384830152602482015260006044820152600860648201528481608481857f0000000000000000000000000000000000000000000000000000000000000000165afa908115620010de57600091620010bc575b50153862000f38565b620010d79150853d87116200070a57620006fa8183620016fa565b38620010b3565b84513d6000823e3d90fd5b9050835163c161c93f60e01b81523384820152816024820152866044820152600860648201528581608481867f0000000000000000000000000000000000000000000000000000000000000000165afa908115620007125760009162001153575b50159062000f31565b6200116e9150863d88116200070a57620006fa8183620016fa565b386200114a565b620011909150863d88116200032d576200031d8183620016fa565b3862000f23565b84513d8a823e3d90fd5b50913462000b3b57602036600319011262000b3b5750620011c56020923562001741565b9051908152f35b5034620001085760603660031901126200010857620011ea62001630565b602435926001600160a01b038281169360443591903386141580620013f3575b806200135e575b62001350578688526020918883528489205416948515620013415786895260028352848920888a52835284892054958487106200133157908991888352600285528683208a845285528588038784205560018552868320868154039055803b156200010857865163020da84160e61b81529384018a81526001600160a01b03909216602083015260408201869052839182908490829060600103925af180156200119757620012f2575b50825193845283015233908201527fe718784128df3c3d45fbd6519133fee450494f7cdb2b53830a5087cd47f9808290606090a380f35b916060939197620013257fe718784128df3c3d45fbd6519133fee450494f7cdb2b53830a5087cd47f980829694620016b2565b979193509193620012bb565b85516383fc8b2d60e01b81528390fd5b5083516339e231e760e11b8152fd5b835163075fd2b160e01b8152fd5b50835163c161c93f60e01b81523382820152866024820152886044820152600b6064820152602081608481867f0000000000000000000000000000000000000000000000000000000000000000165afa908115620013e9578991620013c6575b501562001211565b620013e2915060203d81116200070a57620006fa8183620016fa565b38620013be565b85513d8b823e3d90fd5b50835163c161c93f60e01b81523382820152866024820152876044820152600b6064820152602081608481867f0000000000000000000000000000000000000000000000000000000000000000165afa908115620013e95789916200145b575b50156200120a565b62001477915060203d81116200070a57620006fa8183620016fa565b3862001453565b5050346200028a57816003193601126200028a57517f00000000000000000000000000000000000000000000000000000000000000006001600160a01b03168152602090f35b5050346200028a57806003193601126200028a5760209181906001600160a01b03620014ef62001630565b168152600284528181206024358252845220549051908152f35b503462000108576020366003190112620001085760209282913581526001845220549051908152f35b9390503462000b3b578260031936011262000b3b576200155162001630565b936024359460018060a01b03938482168452602096879260028452878620828752845287862054968685528887205416928362001592575b84888a51908152f35b627eeac760e11b86526001600160a01b0390911690850190815260208101919091528391908290819060400103915afa91821562001625578092620015ec575b5050620015df916200171d565b3880848180808062001589565b9091508482813d83116200161d575b620016078183620016fa565b8101031262000b3b575051620015df38620015d2565b503d620015fb565b8451903d90823e3d90fd5b600435906001600160a01b0382168203620007a957565b6080906003190112620007a9576004356001600160a01b0381168103620007a9579060243590604435906064358015158103620007a95790565b9181601f84011215620007a95782359167ffffffffffffffff8311620007a95760208381860195010111620007a957565b67ffffffffffffffff8111620016c757604052565b634e487b7160e01b600052604160045260246000fd5b6060810190811067ffffffffffffffff821117620016c757604052565b90601f8019910116810190811067ffffffffffffffff821117620016c757604052565b919082018092116200172b57565b634e487b7160e01b600052601160045260246000fd5b90600082815260206001815260408220549382825260018060a01b03604084205416908162001771575b50505050565b918093959260246040518094819363bd85b03960e01b835260048301525afa928315620017f8578593620017ba575b5050620017af9293506200171d565b90388080806200176b565b9080929350813d8311620017f0575b620017d58183620016fa565b8101031262000b3757620017af9293505190839238620017a0565b503d620017c9565b6040513d87823e3d90fd5b90816020910312620007a957516001600160a01b0381168103620007a95790565b908060209392818452848401376000828201840152601f01601f1916010190565b919082039182116200172b57565b90816020910312620007a957518015158103620007a95790565b604051906200187c82620016dd565b6000604083828152826020820152015256fe610160604081815234620004705762002af6803803809162000022828662000475565b84398201606083820312620004705782516001600160401b0392908381116200047057826200005391860162000499565b9060209283860151858111620004705782916200007291880162000499565b95015192815192828401848110878211176200037d57835260019081855282850191603160f81b835281518881116200037d5760038054918383811c9316801562000465575b878410146200044f57601f9283811162000404575b5080878482116001146200039f5760009162000393575b5060001982841b1c191690841b1781555b8a51918a83116200037d5760049b8c548581811c9116801562000372575b898210146200035d5782811162000312575b5087918411600114620002a7579383949184926000956200029b575b50501b92600019911b1c19161788555b82815191012093519020918360e052610100968388524660a0528151928301937f8b73c3c69bb8fe3d512ecc4cf759cc79239f7b179b0ffacaa9a75d522b39400f958686528385015260608401524660808401523060a084015260a0835260c0830196838810908811176200028657508590525190206080523060c052610120908152600a8054336001600160a01b0319821681179092556001600160a01b03167f8be0079c531659141344cd1fd0a4f28419497f9722a3daafe3b4186f6b6457e0600080a36101409182526125e59384620005118539608051846121f7015260a051846122b2015260c051846121c1015260e051846122460152518361226c01525182612223015251818181610470015281816106f4015281816108b6015281816109dc01528181610cab01526113240152f35b604190634e487b7160e01b6000525260246000fd5b01519350388062000141565b9190601f198416928d60005284896000209460005b8b89838310620002fa5750505010620002df575b50505050811b01885562000151565b01519060f884600019921b161c1916905538808080620002d0565b868601518955909701969485019488935001620002bc565b8d600052886000208380870160051c8201928b881062000353575b0160051c019086905b8281106200034657505062000125565b6000815501869062000336565b925081926200032d565b60228e634e487b7160e01b6000525260246000fd5b90607f169062000113565b634e487b7160e01b600052604160045260246000fd5b905085015138620000e4565b859250601f1982169084600052896000209160005b8b828210620003ed5750508311620003d4575b5050811b018155620000f5565b87015160001983861b60f8161c191690553880620003c7565b838b015185558996909401939283019201620003b4565b82600052876000208480840160051c8201928a851062000445575b0160051c019085905b82811062000438575050620000cd565b6000815501859062000428565b925081926200041f565b634e487b7160e01b600052602260045260246000fd5b92607f1692620000b8565b600080fd5b601f909101601f19168101906001600160401b038211908210176200037d57604052565b919080601f8401121562000470578251906001600160401b0382116200037d5760405191602091620004d5601f8301601f191684018562000475565b818452828287010111620004705760005b818110620004fc57508260009394955001015290565b8581018301518482018401528201620004e656fe6080604052600436101561001257600080fd5b60003560e01c8062fdd58e1461022657806306fdde0314610221578063095ea7b31461021c57806318160ddd146102175780631c0f12b61461021257806323b872dd1461020d578063313ce567146102085780633644e5151461020357806339509351146101fe5780633a46b1a8146101f95780633fafa127146101f4578063587cde1e146101ef5780635c19a95c146101ea5780636fcfff45146101e557806370a08231146101e0578063715018a6146101db5780637ecebe00146101d6578063836a1040146101d15780638cb0a511146101cc5780638da5cb5b146101c75780638e539e8c146101c257806395d89b41146101bd5780639ab24eb0146101b85780639eea5f66146101b3578063a457c2d7146101ae578063a9059cbb146101a9578063bd85b039146101a4578063c3cda5201461019f578063d505accf1461019a578063dd62ed3e14610195578063f1127ed814610190578063f2fde38b1461018b5763f8548e361461018657600080fd5b611312565b611249565b6111c2565b61116a565b611024565b610ef9565b610ebb565b610e95565b610ddb565b610c91565b610c27565b610b64565b610a49565b610a20565b6109ca565b61089c565b610838565b6107da565b6107bc565b610774565b610752565b610717565b6106dc565b610593565b61053b565b610520565b610504565b6104cb565b610441565b610423565b6103f2565b6102e6565b61025c565b600435906001600160a01b038216820361024157565b600080fd5b602435906001600160a01b038216820361024157565b3461024157604036600319011261024157602061029561027a61022b565b6001600160a01b031660009081526020819052604090205490565b604051908152f35b6020808252825181830181905290939260005b8281106102d257505060409293506000838284010152601f8019910116010190565b8181018601518482016040015285016102b0565b34610241576000806003193601126103ef5760405190806003549060019180831c928082169283156103e5575b60209283861085146103d15785885260208801949081156103b05750600114610357575b6103538761034781890382611413565b6040519182918261029d565b0390f35b600360005294509192917fc2575a0e9e593c00f959f8c92f12db2869c3395a3b0502d05e2516446f71f85b5b83861061039f5750505091019050610347826103533880610337565b805485870152948201948101610383565b60ff191685525050505090151560051b019050610347826103533880610337565b634e487b7160e01b82526022600452602482fd5b93607f1693610313565b80fd5b346102415760403660031901126102415761041861040e61022b565b60243590336116c7565b602060405160018152f35b34610241576000366003190112610241576020600254604051908152f35b346102415760803660031901126102415761045a610246565b604435906001600160a01b0382168203610241577f000000000000000000000000000000000000000000000000000000000000000080151590816104be575b506104ad576104ab9160643591611435565b005b60405162cdceed60e81b8152600490fd5b9050600435141538610499565b346102415760603660031901126102415760206104fa6104e961022b565b6104f1610246565b60443591611435565b6040519015158152f35b3461024157600036600319011261024157602060405160128152f35b346102415760003660031901126102415760206102956121be565b346102415760403660031901126102415761055461022b565b3360009081526001602090815260408083206001600160a01b0385168452909152902054602435810180911161058e5761041891336116c7565b6114d5565b34610241576040366003190112610241576105ac61022b565b602435906105bb438310611870565b6001600160a01b031660009081526008602052604081208054929091836005811161068b575b50905b8382106106365750508161060b575050602060005b6040516001600160e01b039091168152f35b61062a6106319161061d602094611854565b9060005260206000200190565b5460201c90565b6105f9565b90926106428185612340565b90818363ffffffff61066861065e848960005260206000200190565b5463ffffffff1690565b161115610679575050925b906105e4565b90945061068691506114eb565b610673565b8061069b6106a192969396612355565b90611863565b908263ffffffff6106bc61065e858860005260206000200190565b1611156106cc5750925b386105e1565b93506106d7906114eb565b6106c6565b346102415760003660031901126102415760206040517f00000000000000000000000000000000000000000000000000000000000000008152f35b346102415760203660031901126102415760206001600160a01b038061073b61022b565b166000526007825260406000205416604051908152f35b34610241576020366003190112610241576104ab61076e61022b565b33611a8f565b34610241576020366003190112610241576001600160a01b0361079561022b565b16600052600860205260206107ae604060002054612510565b63ffffffff60405191168152f35b3461024157602036600319011261024157602061029561027a61022b565b34610241576000806003193601126103ef576107f4611368565b600a80546001600160a01b0319811690915581906001600160a01b03167f8be0079c531659141344cd1fd0a4f28419497f9722a3daafe3b4186f6b6457e08280a380f35b34610241576020366003190112610241576001600160a01b0361085961022b565b1660005260056020526020604060002054604051908152f35b606090600319011261024157600435906024356001600160a01b0381168103610241579060443590565b34610241576108aa36610872565b90916108b4611368565b7f000000000000000000000000000000000000000000000000000000000000000080151591826109bf575b50506104ad576001600160a01b03821691821561097a578161095f916104ab9461091361090e846002546114f9565b600255565b6001600160a01b038216600090815260208181526040808320805487019055518581527fddf252ad1be2c89b69c2b068fc378daa952ba7f163c4a11628f55a4df523b3ef9190a36119c4565b600254610975906001600160e01b031015611908565b611da7565b60405162461bcd60e51b815260206004820152601f60248201527f45524332303a206d696e7420746f20746865207a65726f2061646472657373006044820152606490fd5b1415905038806108df565b34610241576109d836610872565b90917f00000000000000000000000000000000000000000000000000000000000000008015159182610a15575b50506104ad576104ab91336116c7565b141590503880610a05565b3461024157600036600319011261024157600a546040516001600160a01b039091168152602090f35b3461024157602036600319011261024157600435610a68438210611870565b6009549060008260058111610b0f575b50905b828210610abe578280610a95575060405160008152602090f35b61063161062a610aa6602093611854565b60096000526000805160206125908339815191520190565b9091610aca8184612340565b6009600052908263ffffffff610aef600080516020612590833981519152850161065e565b161115610aff5750915b90610a7b565b9250610b0a906114eb565b610af9565b8061069b610b1f92959395612355565b6009600052908263ffffffff610b44600080516020612590833981519152850161065e565b161115610b545750915b38610a78565b9250610b5f906114eb565b610b4e565b34610241576000806003193601126103ef5760405190806004549060019180831c92808216928315610c1d575b60209283861085146103d15785885260208801949081156103b05750600114610bc4576103538761034781890382611413565b600460005294509192917f8a35acfbc15ff81a39ae7d344fd709f28e8600b4aa8c65c6b64bfe7fe36bd19b5b838610610c0c5750505091019050610347826103533880610337565b805485870152948201948101610bf0565b93607f1693610b91565b34610241576020366003190112610241576001600160a01b03610c4861022b565b16600052600860205260406000208054908115600014610c7057505060405160008152602090f35b600019820191821161058e57602091610c8891611804565b5054811c6105f9565b3461024157610c9f36610872565b9091610ca9611368565b7f00000000000000000000000000000000000000000000000000000000000000008015159182610dd0575b50506104ad576001600160a01b038216918215610d8157818160006104ab9583610d13610d7c9660018060a01b03166000526000602052604060002090565b54610d208282101561196d565b03610d3d8460018060a01b03166000526000602052604060002090565b55610d4b8460025403600255565b6040518481527fddf252ad1be2c89b69c2b068fc378daa952ba7f163c4a11628f55a4df523b3ef90602090a3611a0f565b611e83565b60405162461bcd60e51b815260206004820152602160248201527f45524332303a206275726e2066726f6d20746865207a65726f206164647265736044820152607360f81b6064820152608490fd5b141590503880610cd4565b3461024157604036600319011261024157610df461022b565b60243590336000526001602052610e218160406000209060018060a01b0316600052602052604060002090565b5491808310610e4257610e36920390336116c7565b60405160018152602090f35b60405162461bcd60e51b815260206004820152602560248201527f45524332303a2064656372656173656420616c6c6f77616e63652062656c6f77604482015264207a65726f60d81b6064820152608490fd5b3461024157604036600319011261024157610418610eb161022b565b60243590336115b9565b34610241576020366003190112610241576020600254604051908152f35b6064359060ff8216820361024157565b6084359060ff8216820361024157565b346102415760c036600319011261024157610f1261022b565b60443590602435610f21610ed9565b92804211610fdf57610fb1610fda916104ab9560405190610f9982610f8b6020820195898b8860609194939260808201957fe48329057bfd03d55e49b547132e39cffd9c1820ad7b9d4c5307691425d15adf835260018060a01b0316602083015260408201520152565b03601f198101845283611413565b610fac60a43593608435935190206122d8565b611fd5565b6001600160a01b03811660009081526005602052604090208054600181019091559092146118bc565b611a8f565b60405162461bcd60e51b815260206004820152601d60248201527f4552433230566f7465733a207369676e617475726520657870697265640000006044820152606490fd5b346102415760e03660031901126102415761103d61022b565b611045610246565b6044359060643592611055610ee9565b938042116111255761110d61112091610f8b6104ab976110fa6110938760018060a01b03166000526005602052604060002090815491600183019055565b604080517f6e71edae12b1b97f4d1f60370fef10105fa2faae0126114a169c64845d6126c9602082019081526001600160a01b03808c1693830193909352918b166060820152608081018c905260a081019290925260c082019590955292839060e0820190565b610fac60c4359360a435935190206122d8565b6001600160a01b03838116911614611f89565b6116c7565b60405162461bcd60e51b815260206004820152601d60248201527f45524332305065726d69743a206578706972656420646561646c696e650000006044820152606490fd5b346102415760403660031901126102415760206111b961118861022b565b611190610246565b6001600160a01b0391821660009081526001855260408082209290931681526020919091522090565b54604051908152f35b34610241576040366003190112610241576111db61022b565b63ffffffff60243581811681036102415761122561122b91604094600060208751611205816113d6565b82815201526001600160a01b031660009081526008602052859020611804565b50611832565b8251815190921682526020908101516001600160e01b031690820152f35b346102415760203660031901126102415761126261022b565b61126a611368565b6001600160a01b039081169081156112be57600a54826bffffffffffffffffffffffff60a01b821617600a55167f8be0079c531659141344cd1fd0a4f28419497f9722a3daafe3b4186f6b6457e0600080a3005b60405162461bcd60e51b815260206004820152602660248201527f4f776e61626c653a206e6577206f776e657220697320746865207a65726f206160448201526564647265737360d01b6064820152608490fd5b346102415761132036610872565b90917f0000000000000000000000000000000000000000000000000000000000000000801515918261135d575b50506104ad576104ab91336115b9565b14159050388061134d565b600a546001600160a01b0316330361137c57565b606460405162461bcd60e51b815260206004820152602060248201527f4f776e61626c653a2063616c6c6572206973206e6f7420746865206f776e65726044820152fd5b634e487b7160e01b600052604160045260246000fd5b6040810190811067ffffffffffffffff8211176113f257604052565b6113c0565b60c0810190811067ffffffffffffffff8211176113f257604052565b90601f8019910116810190811067ffffffffffffffff8211176113f257604052565b6001600160a01b038116600090815260016020818152604080842033855290915290912054939291908401611474575b61146f93506115b9565b600190565b8284106114905761148b8361146f950333836116c7565b611465565b60405162461bcd60e51b815260206004820152601d60248201527f45524332303a20696e73756666696369656e7420616c6c6f77616e63650000006044820152606490fd5b634e487b7160e01b600052601160045260246000fd5b906001820180921161058e57565b9190820180921161058e57565b1561150d57565b60405162461bcd60e51b815260206004820152602360248201527f45524332303a207472616e7366657220746f20746865207a65726f206164647260448201526265737360e81b6064820152608490fd5b1561156557565b60405162461bcd60e51b815260206004820152602660248201527f45524332303a207472616e7366657220616d6f756e7420657863656564732062604482015265616c616e636560d01b6064820152608490fd5b6001600160a01b03929190838116801561167457611672948316906115df821515611506565b6001600160a01b03831660009081526020819052604090208590546116068282101561155e565b036116238460018060a01b03166000526000602052604060002090565b556001600160a01b0384166000908152602081815260409182902080548801905590518681527fddf252ad1be2c89b69c2b068fc378daa952ba7f163c4a11628f55a4df523b3ef9190a3611a5d565b565b60405162461bcd60e51b815260206004820152602560248201527f45524332303a207472616e736665722066726f6d20746865207a65726f206164604482015264647265737360d81b6064820152608490fd5b6001600160a01b0380821692919083156117a657821693841561175657806117407f8c5be1e5ebec7d5bd14f71427d1e84f3dd0314c0f7b2291e5b200ac8c7c3b925946117296117519560018060a01b03166000526001602052604060002090565b9060018060a01b0316600052602052604060002090565b556040519081529081906020820190565b0390a3565b60405162461bcd60e51b815260206004820152602260248201527f45524332303a20617070726f766520746f20746865207a65726f206164647265604482015261737360f01b6064820152608490fd5b60405162461bcd60e51b8152602060048201526024808201527f45524332303a20617070726f76652066726f6d20746865207a65726f206164646044820152637265737360e01b6064820152608490fd5b60405190611672826113d6565b805482101561181c5760005260206000200190600090565b634e487b7160e01b600052603260045260246000fd5b9060405161183f816113d6565b602081935463ffffffff81168352811c910152565b60001981019190821161058e57565b9190820391821161058e57565b1561187757565b60405162461bcd60e51b815260206004820152601f60248201527f4552433230566f7465733a20626c6f636b206e6f7420796574206d696e6564006044820152606490fd5b156118c357565b60405162461bcd60e51b815260206004820152601960248201527f4552433230566f7465733a20696e76616c6964206e6f6e6365000000000000006044820152606490fd5b1561190f57565b60405162461bcd60e51b815260206004820152603060248201527f4552433230566f7465733a20746f74616c20737570706c79207269736b73206f60448201526f766572666c6f77696e6720766f74657360801b6064820152608490fd5b1561197457565b60405162461bcd60e51b815260206004820152602260248201527f45524332303a206275726e20616d6f756e7420657863656564732062616c616e604482015261636560f01b6064820152608490fd5b60076020527f6d5257204ebe7d88fd91ae87941cb2dd9d8062b64ae5a2bd2d28ec40b9fbf6df546001600160a01b039182166000908152604090205461167293929081169116611b03565b6001600160a01b039081166000908152600760205260408120549080527f6d5257204ebe7d88fd91ae87941cb2dd9d8062b64ae5a2bd2d28ec40b9fbf6df5461167293929081169116611b03565b6001600160a01b0390811660009081526007602052604080822054938316825290205461167293929082169116611b03565b6116729160018060a01b038092166000928184526007602052806040852054168092856020527f3134e8a2e6d97e929a7e54011ea5485d7d196dd5f0ba4d4ef95803e8e3fc257f60408720549660076020526040812094871694856bffffffffffffffffffffffff60a01b82541617905580a45b6001600160a01b03808316939291168084141580611cef575b611b27575b50505050565b80611b95575b5082611b3a575b80611b21565b6001600160a01b031660009081526008602052604090207fdec2bacdd2f05b59de34da9b523dff8be42e5e38e818c82fdb0bae774387a72491611b7c91611edb565b60408051928352602083019190915290a2388080611b34565b8060005260086020527fdec2bacdd2f05b59de34da9b523dff8be42e5e38e818c82fdb0bae774387a7246040600020805480159182600014611cc857611bd96117f7565b6000815260006020820152915b6020830151611c05906001600160e01b03165b6001600160e01b031690565b92611c108985612575565b94159081611cb1575b5015611c6557611c38611c4f9261061d611c32876124a7565b93611854565b9063ffffffff82549181199060201b169116179055565b604080519182526020820192909252a238611b2d565b50611cac90611c7343612510565b90611ca7611c80866124a7565b611c97611c8b6117f7565b63ffffffff9095168552565b6001600160e01b03166020840152565b611d4d565b611c4f565b5163ffffffff16905063ffffffff16431438611c19565b611ce9611ce4611cd784611854565b8360005260206000200190565b611832565b91611be6565b50821515611b1c565b60095490600160401b8210156113f257600182018060095582101561181c576009600052805160209182015190911b63ffffffff191663ffffffff919091161760008051602061259083398151915290910155565b8054600160401b8110156113f257611d6a91600182018155611804565b611d9157815160209283015190921b63ffffffff191663ffffffff92909216919091179055565b634e487b7160e01b600052600060045260246000fd5b60095490918115918215611e6f57611dbd6117f7565b60008152600060208201525b6020810151611deb90611de4906001600160e01b0316611bf9565b9586612582565b93159081611e58575b5015611e135761167290611c38610aa6611e0d866124a7565b92611854565b50611672611e2043612510565b611e53611e2c856124a7565b611e43611e376117f7565b63ffffffff9094168452565b6001600160e01b03166020830152565b611cf8565b5163ffffffff16905063ffffffff16431438611df4565b611e7e611ce4610aa683611854565b611dc9565b60095490918115918215611ec757611e996117f7565b60008152600060208201525b6020810151611deb90611ec0906001600160e01b0316611bf9565b9586612575565b611ed6611ce4610aa683611854565b611ea5565b909181549182159283600014611f6857611ef36117f7565b60008152600060208201525b6020810151611f2190611f1a906001600160e01b0316611bf9565b9687612582565b94159081611f51575b5015611f4357611c386116729261061d611c32876124a7565b5061167290611c7343612510565b5163ffffffff16905063ffffffff16431438611f2a565b611f84611ce4611f7783611854565b8460005260206000200190565b611eff565b15611f9057565b60405162461bcd60e51b815260206004820152601e60248201527f45524332305065726d69743a20696e76616c6964207369676e617475726500006044820152606490fd5b91611fec9391611fe49361212f565b91909161200f565b90565b60051115611ff957565b634e487b7160e01b600052602160045260246000fd5b61201881611fef565b806120205750565b61202981611fef565b600181036120765760405162461bcd60e51b815260206004820152601860248201527f45434453413a20696e76616c6964207369676e617475726500000000000000006044820152606490fd5b61207f81611fef565b600281036120cc5760405162461bcd60e51b815260206004820152601f60248201527f45434453413a20696e76616c6964207369676e6174757265206c656e677468006044820152606490fd5b806120d8600392611fef565b146120df57565b60405162461bcd60e51b815260206004820152602260248201527f45434453413a20696e76616c6964207369676e6174757265202773272076616c604482015261756560f01b6064820152608490fd5b9291907f7fffffffffffffffffffffffffffffff5d576e7357a4501ddfe92f46681b20a083116121b25791608094939160ff602094604051948552168484015260408301526060820152600093849182805260015afa156121a55781516001600160a01b0381161561219f579190565b50600190565b50604051903d90823e3d90fd5b50505050600090600390565b307f00000000000000000000000000000000000000000000000000000000000000006001600160a01b031614806122af575b15612219577f000000000000000000000000000000000000000000000000000000000000000090565b60405160208101907f000000000000000000000000000000000000000000000000000000000000000082527f000000000000000000000000000000000000000000000000000000000000000060408201527f000000000000000000000000000000000000000000000000000000000000000060608201524660808201523060a082015260a081526122a9816113f7565b51902090565b507f000000000000000000000000000000000000000000000000000000000000000046146121f0565b6122e06121be565b9060405190602082019261190160f01b845260228301526042820152604281526080810181811067ffffffffffffffff8211176113f25760405251902090565b811561232a570490565b634e487b7160e01b600052601260045260246000fd5b90808216911860011c810180911161058e5790565b801561248f578061242861242161241761240d6124036123f96123ef6123e56001611fec9a6000908b60801c80612483575b508060401c80612476575b508060201c80612469575b508060101c8061245c575b508060081c8061244f575b508060041c80612442575b508060021c80612435575b50821c61242e575b811c1b6123de818b612320565b0160011c90565b6123de818a612320565b6123de8189612320565b6123de8188612320565b6123de8187612320565b6123de8186612320565b6123de8185612320565b8092612320565b90612495565b81016123d1565b60029150910190386123c9565b60049150910190386123be565b60089150910190386123b3565b60109150910190386123a8565b602091509101903861239d565b6040915091019038612392565b91505060809038612387565b50600090565b90808210156124a2575090565b905090565b6001600160e01b03908181116124bb571690565b60405162461bcd60e51b815260206004820152602760248201527f53616665436173743a2076616c756520646f65736e27742066697420696e20326044820152663234206269747360c81b6064820152608490fd5b63ffffffff90818111612521571690565b60405162461bcd60e51b815260206004820152602660248201527f53616665436173743a2076616c756520646f65736e27742066697420696e203360448201526532206269747360d01b6064820152608490fd5b90810390811161058e5790565b90810180911161058e579056fe6e1540171b6c0c960b71a7020d9f60077f6af931a8bbf590da0223dacf75c7afa2646970667358221220150cd88c26365a4eb72ba18f3c94997e4e18a5672665acc32c3fa7b1b9721fd864736f6c63430008120033a2646970667358221220ae3aae7f89612f2ce570e735afd25043ea31cc60a2404141ef643dc692c76de664736f6c63430008120033",
    "linkReferences": {}
  },
  "methodIdentifiers": {
    "balanceOf(address,uint256)": "00fdd58e",
    "burnFrom(address,uint256,uint256,bool)": "906ebd0f",
    "claimFor(address,uint256,uint256)": "6607955d",
    "directory()": "c41c2f24",
    "fundingCycleStore()": "557e7155",
    "issueFor(uint256,string,string)": "a7f2a70b",
    "mintFor(address,uint256,uint256,bool)": "ceddd3e4",
    "operatorStore()": "ad007d63",
    "projects()": "8b79543c",
    "setFor(uint256,address)": "831d7fac",
    "tokenOf(uint256)": "ea78803f",
    "totalSupplyOf(uint256)": "75b0d9cd",
    "transferFrom(address,uint256,address,uint256)": "ac689bcd",
    "unclaimedBalanceOf(address,uint256)": "5287af37",
    "unclaimedTotalSupplyOf(uint256)": "1412884f"
  },
  "id": 79
}