{
  "abi": [
    {
      "inputs": [
        {
          "internalType": "contract IJBOperatorStore",
          "name": "_operatorStore",
          "type": "address"
        },
        {
          "internalType": "contract IJBProjects",
          "name": "_projects",
          "type": "address"
        },
        {
          "internalType": "contract IJBDirectory",
          "name": "_directory",
          "type": "address"
        },
        {
          "internalType": "contract IJBFundingCycleStore",
          "name": "_fundingCycleStore",
          "type": "address"
        }
      ],
      "stateMutability": "nonpayable",
      "type": "constructor"
    },
    {
      "inputs": [],
      "name": "ALREADY_SET",
      "type": "error"
    },
    {
      "inputs": [],
      "name": "CONTROLLER_UNAUTHORIZED",
      "type": "error"
    },
    {
      "inputs": [],
      "name": "EMPTY_NAME",
      "type": "error"
    },
    {
      "inputs": [],
      "name": "EMPTY_SYMBOL",
      "type": "error"
    },
    {
      "inputs": [],
      "name": "EMPTY_TOKEN",
      "type": "error"
    },
    {
      "inputs": [],
      "name": "INSUFFICIENT_FUNDS",
      "type": "error"
    },
    {
      "inputs": [],
      "name": "INSUFFICIENT_UNCLAIMED_TOKENS",
      "type": "error"
    },
    {
      "inputs": [],
      "name": "OVERFLOW_ALERT",
      "type": "error"
    },
    {
      "inputs": [],
      "name": "PROJECT_ALREADY_HAS_TOKEN",
      "type": "error"
    },
    {
      "inputs": [],
      "name": "RECIPIENT_ZERO_ADDRESS",
      "type": "error"
    },
    {
      "inputs": [],
      "name": "TOKENS_MUST_HAVE_18_DECIMALS",
      "type": "error"
    },
    {
      "inputs": [],
      "name": "TOKEN_NOT_FOUND",
      "type": "error"
    },
    {
      "inputs": [],
      "name": "TRANSFERS_PAUSED",
      "type": "error"
    },
    {
      "inputs": [],
      "name": "UNAUTHORIZED",
      "type": "error"
    },
    {
      "anonymous": false,
      "inputs": [
        {
          "indexed": true,
          "internalType": "address",
          "name": "holder",
          "type": "address"
        },
        {
          "indexed": true,
          "internalType": "uint256",
          "name": "projectId",
          "type": "uint256"
        },
        {
          "indexed": false,
          "internalType": "uint256",
          "name": "amount",
          "type": "uint256"
        },
        {
          "indexed": false,
          "internalType": "uint256",
          "name": "initialUnclaimedBalance",
          "type": "uint256"
        },
        {
          "indexed": false,
          "internalType": "uint256",
          "name": "initialClaimedBalance",
          "type": "uint256"
        },
        {
          "indexed": false,
          "internalType": "bool",
          "name": "preferClaimedTokens",
          "type": "bool"
        },
        {
          "indexed": false,
          "internalType": "address",
          "name": "caller",
          "type": "address"
        }
      ],
      "name": "Burn",
      "type": "event"
    },
    {
      "anonymous": false,
      "inputs": [
        {
          "indexed": true,
          "internalType": "address",
          "name": "holder",
          "type": "address"
        },
        {
          "indexed": true,
          "internalType": "uint256",
          "name": "projectId",
          "type": "uint256"
        },
        {
          "indexed": false,
          "internalType": "uint256",
          "name": "initialUnclaimedBalance",
          "type": "uint256"
        },
        {
          "indexed": false,
          "internalType": "uint256",
          "name": "amount",
          "type": "uint256"
        },
        {
          "indexed": false,
          "internalType": "address",
          "name": "caller",
          "type": "address"
        }
      ],
      "name": "Claim",
      "type": "event"
    },
    {
      "anonymous": false,
      "inputs": [
        {
          "indexed": true,
          "internalType": "uint256",
          "name": "projectId",
          "type": "uint256"
        },
        {
          "indexed": true,
          "internalType": "contract IJBToken",
          "name": "token",
          "type": "address"
        },
        {
          "indexed": false,
          "internalType": "string",
          "name": "name",
          "type": "string"
        },
        {
          "indexed": false,
          "internalType": "string",
          "name": "symbol",
          "type": "string"
        },
        {
          "indexed": false,
          "internalType": "address",
          "name": "caller",
          "type": "address"
        }
      ],
      "name": "Issue",
      "type": "event"
    },
    {
      "anonymous": false,
      "inputs": [
        {
          "indexed": true,
          "internalType": "address",
          "name": "holder",
          "type": "address"
        },
        {
          "indexed": true,
          "internalType": "uint256",
          "name": "projectId",
          "type": "uint256"
        },
        {
          "indexed": false,
          "internalType": "uint256",
          "name": "amount",
          "type": "uint256"
        },
        {
          "indexed": false,
          "internalType": "bool",
          "name": "tokensWereClaimed",
          "type": "bool"
        },
        {
          "indexed": false,
          "internalType": "bool",
          "name": "preferClaimedTokens",
          "type": "bool"
        },
        {
          "indexed": false,
          "internalType": "address",
          "name": "caller",
          "type": "address"
        }
      ],
      "name": "Mint",
      "type": "event"
    },
    {
      "anonymous": false,
      "inputs": [
        {
          "indexed": true,
          "internalType": "uint256",
          "name": "projectId",
          "type": "uint256"
        },
        {
          "indexed": true,
          "internalType": "contract IJBToken",
          "name": "newToken",
          "type": "address"
        },
        {
          "indexed": false,
          "internalType": "address",
          "name": "caller",
          "type": "address"
        }
      ],
      "name": "Set",
      "type": "event"
    },
    {
      "anonymous": false,
      "inputs": [
        {
          "indexed": true,
          "internalType": "address",
          "name": "holder",
          "type": "address"
        },
        {
          "indexed": true,
          "internalType": "uint256",
          "name": "projectId",
          "type": "uint256"
        },
        {
          "indexed": true,
          "internalType": "address",
          "name": "recipient",
          "type": "address"
        },
        {
          "indexed": false,
          "internalType": "uint256",
          "name": "amount",
          "type": "uint256"
        },
        {
          "indexed": false,
          "internalType": "address",
          "name": "caller",
          "type": "address"
        }
      ],
      "name": "Transfer",
      "type": "event"
    },
    {
      "inputs": [
        {
          "internalType": "address",
          "name": "_holder",
          "type": "address"
        },
        {
          "internalType": "uint256",
          "name": "_projectId",
          "type": "uint256"
        }
      ],
      "name": "balanceOf",
      "outputs": [
        {
          "internalType": "uint256",
          "name": "balance",
          "type": "uint256"
        }
      ],
      "stateMutability": "view",
      "type": "function"
    },
    {
      "inputs": [
        {
          "internalType": "address",
          "name": "_holder",
          "type": "address"
        },
        {
          "internalType": "uint256",
          "name": "_projectId",
          "type": "uint256"
        },
        {
          "internalType": "uint256",
          "name": "_amount",
          "type": "uint256"
        },
        {
          "internalType": "bool",
          "name": "_preferClaimedTokens",
          "type": "bool"
        }
      ],
      "name": "burnFrom",
      "outputs": [],
      "stateMutability": "nonpayable",
      "type": "function"
    },
    {
      "inputs": [
        {
          "internalType": "address",
          "name": "_holder",
          "type": "address"
        },
        {
          "internalType": "uint256",
          "name": "_projectId",
          "type": "uint256"
        },
        {
          "internalType": "uint256",
          "name": "_amount",
          "type": "uint256"
        }
      ],
      "name": "claimFor",
      "outputs": [],
      "stateMutability": "nonpayable",
      "type": "function"
    },
    {
      "inputs": [],
      "name": "directory",
      "outputs": [
        {
          "internalType": "contract IJBDirectory",
          "name": "",
          "type": "address"
        }
      ],
      "stateMutability": "view",
      "type": "function"
    },
    {
      "inputs": [],
      "name": "fundingCycleStore",
      "outputs": [
        {
          "internalType": "contract IJBFundingCycleStore",
          "name": "",
          "type": "address"
        }
      ],
      "stateMutability": "view",
      "type": "function"
    },
    {
      "inputs": [
        {
          "internalType": "uint256",
          "name": "_projectId",
          "type": "uint256"
        },
        {
          "internalType": "string",
          "name": "_name",
          "type": "string"
        },
        {
          "internalType": "string",
          "name": "_symbol",
          "type": "string"
        }
      ],
      "name": "issueFor",
      "outputs": [
        {
          "internalType": "contract IJBToken",
          "name": "token",
          "type": "address"
        }
      ],
      "stateMutability": "nonpayable",
      "type": "function"
    },
    {
      "inputs": [
        {
          "internalType": "address",
          "name": "_holder",
          "type": "address"
        },
        {
          "internalType": "uint256",
          "name": "_projectId",
          "type": "uint256"
        },
        {
          "internalType": "uint256",
          "name": "_amount",
          "type": "uint256"
        },
        {
          "internalType": "bool",
          "name": "_preferClaimedTokens",
          "type": "bool"
        }
      ],
      "name": "mintFor",
      "outputs": [],
      "stateMutability": "nonpayable",
      "type": "function"
    },
    {
      "inputs": [],
      "name": "operatorStore",
      "outputs": [
        {
          "internalType": "contract IJBOperatorStore",
          "name": "",
          "type": "address"
        }
      ],
      "stateMutability": "view",
      "type": "function"
    },
    {
      "inputs": [],
      "name": "projects",
      "outputs": [
        {
          "internalType": "contract IJBProjects",
          "name": "",
          "type": "address"
        }
      ],
      "stateMutability": "view",
      "type": "function"
    },
    {
      "inputs": [
        {
          "internalType": "uint256",
          "name": "_projectId",
          "type": "uint256"
        },
        {
          "internalType": "contract IJBToken",
          "name": "_token",
          "type": "address"
        }
      ],
      "name": "setFor",
      "outputs": [],
      "stateMutability": "nonpayable",
      "type": "function"
    },
    {
      "inputs": [
        {
          "internalType": "uint256",
          "name": "",
          "type": "uint256"
        }
      ],
      "name": "tokenOf",
      "outputs": [
        {
          "internalType": "contract IJBToken",
          "name": "",
          "type": "address"
        }
      ],
      "stateMutability": "view",
      "type": "function"
    },
    {
      "inputs": [
        {
          "internalType": "uint256",
          "name": "_projectId",
          "type": "uint256"
        }
      ],
      "name": "totalSupplyOf",
      "outputs": [
        {
          "internalType": "uint256",
          "name": "totalSupply",
          "type": "uint256"
        }
      ],
      "stateMutability": "view",
      "type": "function"
    },
    {
      "inputs": [
        {
          "internalType": "address",
          "name": "_holder",
          "type": "address"
        },
        {
          "internalType": "uint256",
          "name": "_projectId",
          "type": "uint256"
        },
        {
          "internalType": "address",
          "name": "_recipient",
          "type": "address"
        },
        {
          "internalType": "uint256",
          "name": "_amount",
          "type": "uint256"
        }
      ],
      "name": "transferFrom",
      "outputs": [],
      "stateMutability": "nonpayable",
      "type": "function"
    },
    {
      "inputs": [
        {
          "internalType": "address",
          "name": "",
          "type": "address"
        },
        {
          "internalType": "uint256",
          "name": "",
          "type": "uint256"
        }
      ],
      "name": "unclaimedBalanceOf",
      "outputs": [
        {
          "internalType": "uint256",
          "name": "",
          "type": "uint256"
        }
      ],
      "stateMutability": "view",
      "type": "function"
    },
    {
      "inputs": [
        {
          "internalType": "uint256",
          "name": "",
          "type": "uint256"
        }
      ],
      "name": "unclaimedTotalSupplyOf",
      "outputs": [
        {
          "internalType": "uint256",
          "name": "",
          "type": "uint256"
        }
      ],
      "stateMutability": "view",
      "type": "function"
    }
  ],
  "bytecode": {
    "object": "0x6101003461011b57601f620049ab38819003918201601f19168301916001600160401b038311848410176101205780849260809460405283398101031261011b5780516001600160a01b039190828116810361011b57602082015191838316830361011b57604081015190848216820361011b5760600151938416840361011b5760805260a05260c05260e0526040516148749081620001378239608051818181610163015281816103d80152610cdd015260a05181818161041e0152818161077a0152818161082301528181610b5101528181610be8015281816112dc015281816113730152818161163001526116c5015260c05181818161091f0152818161104601526110ce015260e0518181816104d101526117440152f35b600080fd5b634e487b7160e01b600052604160045260246000fdfe608060408181526004803610156200001657600080fd5b600092833560e01c908162fdd58e14620017d5575080631412884f14620017ac5780635287af371462001768578063557e715514620017225780636607955d146200142857806375b0d9cd14620013fd578063831d7fac146200106a5780638b79543c1462001024578063906ebd0f1462000c88578063a7f2a70b1462000886578063ac689bcd1462000442578063ad007d6314620003fc578063c41c2f2414620003b6578063ceddd3e4146200010b5763ea78803f14620000d757600080fd5b34620001075760206003193601126200010757816020936001600160a01b03923581528085522054169051908152f35b8280fd5b50903462000107576200011e3662001909565b8491949593929551937f5dd8f6aa00000000000000000000000000000000000000000000000000000000855286818601526020906001600160a01b039582816024818a7f0000000000000000000000000000000000000000000000000000000000000000165afa908115620003ac578a9162000378575b50863391160362000351578290888a52898352898786822054168362000346575b8315620002ec57803b15620002e85786517f836a10400000000000000000000000000000000000000000000000000000000081528381018c81526001600160a01b038a166020820152604081018c90529091839183919082908490829060600103925af18015620002de57620002c2575b50505b7bffffffffffffffffffffffffffffffffffffffffffffffffffffffff620002528a62001a04565b116200029b5750835196875215159086015215159084015233606084015216907f5dd3ead325af435e56bc762b40de54c96de6071938d18a26414245807591d86f90608090a380f35b84517f60c5e712000000000000000000000000000000000000000000000000000000008152fd5b620002cd9062001974565b620002da57893862000227565b8980fd5b87513d84823e3d90fd5b5080fd5b5050868616808b5260028452858b208a8c5284526200030f89878d2054620019e0565b908b5260028452858b208a8c528452858b2055600183526200033588868c2054620019e0565b898b5260018452858b20556200022a565b8015159350620001b6565b83517fab7f7414000000000000000000000000000000000000000000000000000000008152fd5b6200039d9150833d8511620003a4575b620003948183620019bc565b81019062001ae0565b3862000195565b503d62000388565b85513d8c823e3d90fd5b505034620002e85781600319360112620002e857602090516001600160a01b037f0000000000000000000000000000000000000000000000000000000000000000168152f35b505034620002e85781600319360112620002e857602090516001600160a01b037f0000000000000000000000000000000000000000000000000000000000000000168152f35b50903462000107576080600319360112620001075762000461620018f2565b9160243591604435936001600160a01b03928386168096036200088157836064359216938433141580620007f5575b806200074b575b6200073c5783517f43a266c200000000000000000000000000000000000000000000000000000000815286838201526101208082602481867f0000000000000000000000000000000000000000000000000000000000000000165afa91821562000732578a926200066f575b505061010091506200051462001b4a565b500151906200052262001b4a565b50836001808085600a1c16149182918151906200053f826200199f565b80808860081c161482528060209760091c16148682015201526200064857861562000621578488526002825283882086895282528388205490818411620005fa575090827fae47e55abe3902569528abe4272b889079230a248aec0659a2939a90354982c6949392868a5260028352848a20888b5283520383892055868852600281528288208689528152620005d982848a2054620019e0565b87895260028252838920878a5282528389205582519182523390820152a480f35b84517f83fc8b2d000000000000000000000000000000000000000000000000000000008152fd5b83517fc6587bab000000000000000000000000000000000000000000000000000000008152fd5b83517f18cdaf97000000000000000000000000000000000000000000000000000000008152fd5b9080925081813d83116200072a575b6200068a8183620019bc565b81010312620002da57855191820182811067ffffffffffffffff8211176200071557865280518252602081015160208301528581015186830152606081015160608301526080810151608083015260a081015160a083015260c081015160c083015260e08101519283168303620002da576101009260e0830152828091015190820152388062000503565b604185634e487b7160e01b6000525260246000fd5b503d6200067e565b86513d8c823e3d90fd5b50825163075fd2b160e01b8152fd5b50835163c161c93f60e01b8152338382015285602482015260006044820152600c6064820152602081608481857f0000000000000000000000000000000000000000000000000000000000000000165afa908115620007ea57600091620007b5575b501562000497565b620007db915060203d8111620007e2575b620007d28183620019bc565b81019062001b30565b38620007ad565b503d620007c6565b85513d6000823e3d90fd5b50835163c161c93f60e01b81523383820152856024820152866044820152600c6064820152602081608481857f0000000000000000000000000000000000000000000000000000000000000000165afa908115620007ea576000916200085e575b501562000490565b6200087a915060203d8111620007e257620007d28183620019bc565b3862000856565b600080fd5b50913462000c8557606060031936011262000c855782356024359367ffffffffffffffff9485811162000c8157620008c2903690830162001943565b909160443587811162000c7d57620008de903690830162001943565b90918751907f6352211e00000000000000000000000000000000000000000000000000000000825286818301526020996001600160a01b03928b81602481877f0000000000000000000000000000000000000000000000000000000000000000165afa90811562000c73579084918b9162000c51575b501680331415908162000bba575b8162000b22575b5062000b1357851562000aeb57831562000ac357878952888b52828a8a20541662000a9b57895191612cd390818401928484109084111762000a88575090888b620009db8e869562001b6c873960608552620009cb8c8c606088019162001b01565b9085820390860152888a62001b01565b920152039088f0801562000a7e57927f1b1705bef26552c8f314c5eb80e9c84f02876c2f7f30a7f9ad5cafd17d5fa6da949262000a70928a99989795169988888c9a52808d5220887fffffffffffffffffffffffff000000000000000000000000000000000000000082541617905562000a62895195869560608752606087019162001b01565b918483038c86015262001b01565b33878301520390a351908152f35b88513d89823e3d90fd5b8a6041602492634e487b7160e01b835252fd5b5088517fa54630ac000000000000000000000000000000000000000000000000000000008152fd5b5088517f571431a7000000000000000000000000000000000000000000000000000000008152fd5b5088517f92bf449d000000000000000000000000000000000000000000000000000000008152fd5b50885163075fd2b160e01b8152fd5b90508a519063c161c93f60e01b82523384830152602482015260006044820152600760648201528b81608481877f0000000000000000000000000000000000000000000000000000000000000000165afa90811562000baf5760009162000b8d575b50153862000969565b62000ba891508c8d3d10620007e257620007d28183620019bc565b3862000b84565b8b513d6000823e3d90fd5b90508a5163c161c93f60e01b81523384820152816024820152896044820152600760648201528c81608481887f0000000000000000000000000000000000000000000000000000000000000000165afa90811562000c465760009162000c24575b50159062000962565b62000c3f91508d803d10620007e257620007d28183620019bc565b3862000c1b565b8c513d6000823e3d90fd5b62000c6c91508d803d10620003a457620003948183620019bc565b3862000954565b8b513d8c823e3d90fd5b8580fd5b8380fd5b80fd5b509034620001075762000c9b3662001909565b909194928451947f5dd8f6aa000000000000000000000000000000000000000000000000000000008652868587015260206001600160a01b039681816024818b7f0000000000000000000000000000000000000000000000000000000000000000165afa9081156200101a578a9162000ff8575b50873391160362000fd05787895288815286828a20541696831696878a5260028252828a20898b528252828a205496811560001462000f32578a945b62000d578987620019e0565b881162000f0a57908b929183928762000ece575b8c848b038d8162000e76575b5050508362000dcb575b5050505050907fbe100da6adaa492f7ba1b0de916ae2606126ec7b044d7aa8ec74971a607ceecd9560a095949392825195865285015283015215156060820152336080820152a380f35b803b1562000e72578c85809462000e288a51978896879586947f9eea5f6600000000000000000000000000000000000000000000000000000000865285016001600160a01b03604092959493606083019683521660208201520152565b03925af1801562000e685762000e42575b80808062000d81565b62000e539096959493929662001974565b62000e645790919293883862000e39565b8880fd5b84513d84823e3d90fd5b8480fd5b62000eba9281895260028a528a8920818a528a5262000e99838c8b205462001b22565b91895260028a528a8920908952895289882055600188528887205462001b22565b8d865260018752878620558c388d62000d77565b9250871562000ef0578887101562000ee957865b9262000d6b565b8862000ee2565b888a101562000f03578989039262000d6b565b8362000ee2565b5083517fe7931438000000000000000000000000000000000000000000000000000000008152fd5b83517efdd58e0000000000000000000000000000000000000000000000000000000081526001600160a01b038616828201908152602081018c90528490829081906040010381865afa90811562000fc6578c9162000f93575b509462000d4b565b90508381813d831162000fbe575b62000fad8183620019bc565b810103126200088157513862000f8b565b503d62000fa1565b85513d8e823e3d90fd5b8582517fab7f7414000000000000000000000000000000000000000000000000000000008152fd5b620010139150823d8411620003a457620003948183620019bc565b3862000d0f565b83513d8c823e3d90fd5b505034620002e85781600319360112620002e857602090516001600160a01b037f0000000000000000000000000000000000000000000000000000000000000000168152f35b50346200010757816003193601126200010757803590602435926001600160a01b039182851680950362000c7d578151927f6352211e00000000000000000000000000000000000000000000000000000000845284828501526020938481602481857f0000000000000000000000000000000000000000000000000000000000000000165afa908115620013f3579082918991620013d1575b501680331415908162001345575b81620012ad575b506200129e578515620012765784875286845282872054166200124f5781517f313ce56700000000000000000000000000000000000000000000000000000000815283818381895afa9081156200124557879162001202575b5060ff6012911603620011db5750907ff2b3bb02e24e3ecd8d6fbce63d308207ce06307b9f7ba575bef710e1e70ac60e91838652858252808620857fffffffffffffffffffffffff000000000000000000000000000000000000000082541617905551338152a380f35b90517fadc38c94000000000000000000000000000000000000000000000000000000008152fd5b90508381813d83116200123d575b6200121c8183620019bc565b8101031262001239575160ff81168103620012395760ff62001171565b8680fd5b503d62001210565b83513d89823e3d90fd5b90517f97f9d957000000000000000000000000000000000000000000000000000000008152fd5b5090517f24679e7b000000000000000000000000000000000000000000000000000000008152fd5b50905163075fd2b160e01b8152fd5b905083519063c161c93f60e01b82523384830152602482015260006044820152600860648201528481608481857f0000000000000000000000000000000000000000000000000000000000000000165afa9081156200133a5760009162001318575b50153862001118565b620013339150853d8711620007e257620007d28183620019bc565b386200130f565b84513d6000823e3d90fd5b9050835163c161c93f60e01b81523384820152816024820152866044820152600860648201528581608481867f0000000000000000000000000000000000000000000000000000000000000000165afa908115620007ea57600091620013af575b50159062001111565b620013ca9150863d8811620007e257620007d28183620019bc565b38620013a6565b620013ec9150863d8811620003a457620003948183620019bc565b3862001103565b84513d8a823e3d90fd5b50913462000c8557602060031936011262000c855750620014216020923562001a04565b9051908152f35b503462000107576060600319360112620001075762001446620018f2565b602435926044356001600160a01b0380841694853314158062001697575b8062001602575b620015f4578688526020918883528489205416948515620015cc5786895260028352848920888a5283528489205495848710620015a457908991888352600285528683208a845285528588038784205560018552868320868154039055803b15620001075786517f836a10400000000000000000000000000000000000000000000000000000000081529384018a81526001600160a01b03909216602083015260408201869052839182908490829060600103925af18015620013f35762001565575b50825193845283015233908201527fe718784128df3c3d45fbd6519133fee450494f7cdb2b53830a5087cd47f9808290606090a380f35b916060939197620015987fe718784128df3c3d45fbd6519133fee450494f7cdb2b53830a5087cd47f98082969462001974565b9791935091936200152e565b8286517f83fc8b2d000000000000000000000000000000000000000000000000000000008152fd5b5083517f73c463ce000000000000000000000000000000000000000000000000000000008152fd5b835163075fd2b160e01b8152fd5b50835163c161c93f60e01b81523382820152866024820152886044820152600b6064820152602081608481867f0000000000000000000000000000000000000000000000000000000000000000165afa9081156200168d5789916200166a575b50156200146b565b62001686915060203d8111620007e257620007d28183620019bc565b3862001662565b85513d8b823e3d90fd5b50835163c161c93f60e01b81523382820152866024820152876044820152600b6064820152602081608481867f0000000000000000000000000000000000000000000000000000000000000000165afa9081156200168d578991620016ff575b501562001464565b6200171b915060203d8111620007e257620007d28183620019bc565b38620016f7565b505034620002e85781600319360112620002e857602090516001600160a01b037f0000000000000000000000000000000000000000000000000000000000000000168152f35b505034620002e85780600319360112620002e857806020926001600160a01b0362001792620018f2565b168152600284528181206024358252845220549051908152f35b503462000107576020600319360112620001075760209282913581526001845220549051908152f35b9390503462000c85578260031936011262000c8557620017f4620018f2565b93602435946001600160a01b03938482168452602096879260028452878620828752845287862054968685528887205416928362001836575b84888a51908152f35b62001880869493859384937efdd58e0000000000000000000000000000000000000000000000000000000085528401602090939291936001600160a01b0360408201951681520152565b03915afa918215620018e7578092620018ae575b5050620018a191620019e0565b388084818080806200182d565b9091508482813d8311620018df575b620018c98183620019bc565b8101031262000c85575051620018a13862001894565b503d620018bd565b8451903d90823e3d90fd5b600435906001600160a01b03821682036200088157565b600319608091011262000881576004356001600160a01b038116810362000881579060243590604435906064358015158103620008815790565b9181601f84011215620008815782359167ffffffffffffffff83116200088157602083818601950101116200088157565b67ffffffffffffffff81116200198957604052565b634e487b7160e01b600052604160045260246000fd5b6060810190811067ffffffffffffffff8211176200198957604052565b90601f601f19910116810190811067ffffffffffffffff8211176200198957604052565b91908201809211620019ee57565b634e487b7160e01b600052601160045260246000fd5b9060008281526020600181526040822054938282526001600160a01b03604084205416908162001a35575b50505050565b91809395926024604051809481937fbd85b03900000000000000000000000000000000000000000000000000000000835260048301525afa92831562001ad557859362001a97575b505062001a8c929350620019e0565b903880808062001a2f565b9080929350813d831162001acd575b62001ab28183620019bc565b8101031262000c815762001a8c929350519083923862001a7d565b503d62001aa6565b6040513d87823e3d90fd5b908160209103126200088157516001600160a01b0381168103620008815790565b601f8260209493601f19938186528686013760008582860101520116010190565b91908203918211620019ee57565b908160209103126200088157518015158103620008815790565b6040519062001b59826200199f565b6000604083828152826020820152015256fe610160604081815234620004705762002cd3803803809162000022828662000475565b84398201606083820312620004705782516001600160401b0392908381116200047057826200005391860162000499565b9060209283860151858111620004705782916200007291880162000499565b95015192815192828401848110878211176200037d57835260019081855282850191603160f81b835281518881116200037d5760038054918383811c9316801562000465575b878410146200044f57601f9283811162000404575b5080878482116001146200039f5760009162000393575b5060001982841b1c191690841b1781555b8a51918a83116200037d5760049b8c548581811c9116801562000372575b898210146200035d5782811162000312575b5087918411600114620002a7579383949184926000956200029b575b50501b92600019911b1c19161788555b82815191012093519020918360e052610100968388524660a0528151928301937f8b73c3c69bb8fe3d512ecc4cf759cc79239f7b179b0ffacaa9a75d522b39400f958686528385015260608401524660808401523060a084015260a0835260c0830196838810908811176200028657508590525190206080523060c052610120908152600a8054336001600160a01b0319821681179092556001600160a01b03167f8be0079c531659141344cd1fd0a4f28419497f9722a3daafe3b4186f6b6457e0600080a36101409182526127c29384620005118539608051846123ae015260a05184612469015260c0518461237f015260e051846123fd01525183612423015251826123da01525181818161048c0152818161072a015281816108f701528181610a2601528181610d2901526113f50152f35b604190634e487b7160e01b6000525260246000fd5b01519350388062000141565b9190601f198416928d60005284896000209460005b8b89838310620002fa5750505010620002df575b50505050811b01885562000151565b01519060f884600019921b161c1916905538808080620002d0565b868601518955909701969485019488935001620002bc565b8d600052886000208380870160051c8201928b881062000353575b0160051c019086905b8281106200034657505062000125565b6000815501869062000336565b925081926200032d565b60228e634e487b7160e01b6000525260246000fd5b90607f169062000113565b634e487b7160e01b600052604160045260246000fd5b905085015138620000e4565b859250601f1982169084600052896000209160005b8b828210620003ed5750508311620003d4575b5050811b018155620000f5565b87015160001983861b60f8161c191690553880620003c7565b838b015185558996909401939283019201620003b4565b82600052876000208480840160051c8201928a851062000445575b0160051c019085905b82811062000438575050620000cd565b6000815501859062000428565b925081926200041f565b634e487b7160e01b600052602260045260246000fd5b92607f1692620000b8565b600080fd5b601f909101601f19168101906001600160401b038211908210176200037d57604052565b919080601f8401121562000470578251906001600160401b0382116200037d5760405191602091620004d5601f8301601f191684018562000475565b818452828287010111620004705760005b818110620004fc57508260009394955001015290565b8581018301518482018401528201620004e656fe6080604052600436101561001257600080fd5b60003560e01c8062fdd58e1461022657806306fdde0314610221578063095ea7b31461021c57806318160ddd146102175780631c0f12b61461021257806323b872dd1461020d578063313ce567146102085780633644e5151461020357806339509351146101fe5780633a46b1a8146101f95780633fafa127146101f4578063587cde1e146101ef5780635c19a95c146101ea5780636fcfff45146101e557806370a08231146101e0578063715018a6146101db5780637ecebe00146101d6578063836a1040146101d15780638cb0a511146101cc5780638da5cb5b146101c75780638e539e8c146101c257806395d89b41146101bd5780639ab24eb0146101b85780639eea5f66146101b3578063a457c2d7146101ae578063a9059cbb146101a9578063bd85b039146101a4578063c3cda5201461019f578063d505accf1461019a578063dd62ed3e14610195578063f1127ed814610190578063f2fde38b1461018b5763f8548e361461018657600080fd5b6113e3565b6112fe565b61127c565b61121f565b6110db565b610fac565b610f6e565b610f48565b610e76565b610d0f565b610ca5565b610be2565b610a91565b610a6a565b610a14565b6108dd565b610879565b610810565b6107f2565b6107aa565b610788565b61074d565b610712565b6105cf565b610570565b610555565b610539565b610500565b61045d565b61043f565b61040e565b6102e4565b61025c565b600435906001600160a01b038216820361024157565b600080fd5b602435906001600160a01b038216820361024157565b3461024157604060031936011261024157602061029461027a61022b565b6001600160a01b0316600052600060205260406000205490565b604051908152f35b60208082528251818301819052939260005b8581106102d057505050601f19601f8460006040809697860101520116010190565b8181018301518482016040015282016102ae565b346102415760008060031936011261040b5760405190806003549060019180831c92808216928315610401575b60209283861085146103ed5785885260208801949081156103ae5750600114610355575b61035187610345818903826114e4565b6040519182918261029c565b0390f35b600360005294509192917fc2575a0e9e593c00f959f8c92f12db2869c3395a3b0502d05e2516446f71f85b5b83861061039d5750505091019050610345826103513880610335565b805485870152948201948101610381565b7fffffffffffffffffffffffffffffffffffffffffffffffffffffffffffffff001685525050505090151560051b019050610345826103513880610335565b602482634e487b7160e01b81526022600452fd5b93607f1693610311565b80fd5b346102415760406003193601126102415761043461042a61022b565b60243590336117fa565b602060405160018152f35b34610241576000600319360112610241576020600254604051908152f35b3461024157608060031936011261024157610476610246565b604435906001600160a01b0382168203610241577f000000000000000000000000000000000000000000000000000000000000000080151590816104f3575b506104c9576104c79160643591611507565b005b60046040517fcdceed00000000000000000000000000000000000000000000000000000000008152fd5b90506004351415386104b5565b3461024157606060031936011261024157602061052f61051e61022b565b610526610246565b60443591611507565b6040519015158152f35b3461024157600060031936011261024157602060405160128152f35b34610241576000600319360112610241576020610294612375565b346102415760406003193601126102415761058961022b565b3360005260016020526105b3816040600020906001600160a01b0316600052602052604060002090565b5460243581018091116105ca5761043491336117fa565b6115b7565b34610241576040600319360112610241576105e861022b565b6001600160a01b03602435916105ff4384106119d7565b1660005260086020526040600020805491600083600581116106c1575b50905b83821061067057505081610645575050602060005b6001600160e01b0360405191168152f35b61066461066b916106576020946119bb565b9060005260206000200190565b5460201c90565b610634565b909261067c8185612512565b908263ffffffff6106a1610697858860005260206000200190565b5463ffffffff1690565b1611156106b15750925b9061061f565b93506106bc906115cd565b6106ab565b806106d16106d792969396612527565b906119ca565b908263ffffffff6106f2610697858860005260206000200190565b1611156107025750925b3861061c565b935061070d906115cd565b6106fc565b346102415760006003193601126102415760206040517f00000000000000000000000000000000000000000000000000000000000000008152f35b346102415760206003193601126102415760206001600160a01b038061077161022b565b166000526007825260406000205416604051908152f35b34610241576020600319360112610241576104c76107a461022b565b33611c00565b34610241576020600319360112610241576001600160a01b036107cb61022b565b16600052600860205260206107e46040600020546126f7565b63ffffffff60405191168152f35b3461024157602060031936011261024157602061029461027a61022b565b346102415760008060031936011261040b5761082a611439565b806001600160a01b03600a5473ffffffffffffffffffffffffffffffffffffffff198116600a55167f8be0079c531659141344cd1fd0a4f28419497f9722a3daafe3b4186f6b6457e08280a380f35b34610241576020600319360112610241576001600160a01b0361089a61022b565b1660005260056020526020604060002054604051908152f35b600319606091011261024157600435906024356001600160a01b0381168103610241579060443590565b34610241576108eb366108b3565b90916108f5611439565b7f00000000000000000000000000000000000000000000000000000000000000008015159182610a09575b50506104c9576001600160a01b0382169182156109c557816109ab916104c79461095461094f846002546115db565b600255565b610971826001600160a01b03166000526000602052604060002090565b8054840190556040518381526000907fddf252ad1be2c89b69c2b068fc378daa952ba7f163c4a11628f55a4df523b3ef90602090a3611b4f565b6109c06001600160e01b036002541115611a6d565b611f47565b606460405162461bcd60e51b815260206004820152601f60248201527f45524332303a206d696e7420746f20746865207a65726f2061646472657373006044820152fd5b141590503880610920565b3461024157610a22366108b3565b90917f00000000000000000000000000000000000000000000000000000000000000008015159182610a5f575b50506104c9576104c791336117fa565b141590503880610a4f565b346102415760006003193601126102415760206001600160a01b03600a5416604051908152f35b3461024157602060031936011261024157600435610ab04382106119d7565b6009549060008260058111610b7b575b50905b828210610b18578280610add575060405160008152602090f35b61066b610664610aee6020936119bb565b60096000527f6e1540171b6c0c960b71a7020d9f60077f6af931a8bbf590da0223dacf75c7af0190565b9091610b248184612512565b6009600052908263ffffffff610b5b7f6e1540171b6c0c960b71a7020d9f60077f6af931a8bbf590da0223dacf75c7af8501610697565b161115610b6b5750915b90610ac3565b9250610b76906115cd565b610b65565b806106d1610b8b92959395612527565b6009600052908263ffffffff610bc27f6e1540171b6c0c960b71a7020d9f60077f6af931a8bbf590da0223dacf75c7af8501610697565b161115610bd25750915b38610ac0565b9250610bdd906115cd565b610bcc565b346102415760008060031936011261040b5760405190806004549060019180831c92808216928315610c9b575b60209283861085146103ed5785885260208801949081156103ae5750600114610c425761035187610345818903826114e4565b600460005294509192917f8a35acfbc15ff81a39ae7d344fd709f28e8600b4aa8c65c6b64bfe7fe36bd19b5b838610610c8a5750505091019050610345826103513880610335565b805485870152948201948101610c6e565b93607f1693610c0f565b34610241576020600319360112610241576001600160a01b03610cc661022b565b16600052600860205260406000208054908115600014610cee57505060405160008152602090f35b60001982019182116105ca57602091610d069161196b565b5054811c610634565b3461024157610d1d366108b3565b9091610d27611439565b7f00000000000000000000000000000000000000000000000000000000000000008015159182610e6b575b50506104c9576001600160a01b038216918215610e0157818160006104c79583610d92610dfc966001600160a01b03166000526000602052604060002090565b54610d9f82821015611ade565b03610dbd846001600160a01b03166000526000602052604060002090565b55610dcb8460025403600255565b6040518481527fddf252ad1be2c89b69c2b068fc378daa952ba7f163c4a11628f55a4df523b3ef90602090a3611b9a565b612022565b608460405162461bcd60e51b815260206004820152602160248201527f45524332303a206275726e2066726f6d20746865207a65726f2061646472657360448201527f73000000000000000000000000000000000000000000000000000000000000006064820152fd5b141590503880610d52565b3461024157604060031936011261024157610e8f61022b565b60243590336000526001602052610ebd816040600020906001600160a01b0316600052602052604060002090565b5491808310610ede57610ed2920390336117fa565b60405160018152602090f35b608460405162461bcd60e51b815260206004820152602560248201527f45524332303a2064656372656173656420616c6c6f77616e63652062656c6f7760448201527f207a65726f0000000000000000000000000000000000000000000000000000006064820152fd5b3461024157604060031936011261024157610434610f6461022b565b60243590336116ca565b34610241576020600319360112610241576020600254604051908152f35b6064359060ff8216820361024157565b6084359060ff8216820361024157565b346102415760c060031936011261024157610fc561022b565b60443590602435610fd4610f8c565b9280421161109757611065611092916104c7956040519061104d8261103f6020820195898b886060919493926001600160a01b0360808301967fe48329057bfd03d55e49b547132e39cffd9c1820ad7b9d4c5307691425d15adf845216602083015260408201520152565b03601f1981018452836114e4565b61106060a435936084359351902061248f565b612171565b9161108c836001600160a01b03166000526005602052604060002090815491600183019055565b14611a22565b611c00565b606460405162461bcd60e51b815260206004820152601d60248201527f4552433230566f7465733a207369676e617475726520657870697265640000006044820152fd5b346102415760e0600319360112610241576110f461022b565b6110fc610246565b604435906064359261110c610f9c565b938042116111db576111c36111d69161103f6104c7976111b061114b876001600160a01b03166000526005602052604060002090815491600183019055565b9360405193849160208301968c8c8c8a91959493909260a09360c08401977f6e71edae12b1b97f4d1f60370fef10105fa2faae0126114a169c64845d6126c985526001600160a01b038092166020860152166040840152606083015260808201520152565b61106060c4359360a4359351902061248f565b6001600160a01b03808416911614612126565b6117fa565b606460405162461bcd60e51b815260206004820152601d60248201527f45524332305065726d69743a206578706972656420646561646c696e650000006044820152fd5b3461024157604060031936011261024157602061127361123d61022b565b6001600160a01b0361124d610246565b9116600052600183526040600020906001600160a01b0316600052602052604060002090565b54604051908152f35b346102415760406003193601126102415761129561022b565b63ffffffff60243581811681036102415760206112ec6112e66001600160e01b03936001600160a01b036040976000868a516112d0816114a7565b828152015216600052600884528660002061196b565b50611999565b84519381511684520151166020820152f35b346102415760206003193601126102415761131761022b565b61131f611439565b6001600160a01b0380911690811561137957600a548273ffffffffffffffffffffffffffffffffffffffff19821617600a55167f8be0079c531659141344cd1fd0a4f28419497f9722a3daafe3b4186f6b6457e0600080a3005b608460405162461bcd60e51b815260206004820152602660248201527f4f776e61626c653a206e6577206f776e657220697320746865207a65726f206160448201527f64647265737300000000000000000000000000000000000000000000000000006064820152fd5b34610241576113f1366108b3565b90917f0000000000000000000000000000000000000000000000000000000000000000801515918261142e575b50506104c9576104c791336116ca565b14159050388061141e565b6001600160a01b03600a5416330361144d57565b606460405162461bcd60e51b815260206004820152602060248201527f4f776e61626c653a2063616c6c6572206973206e6f7420746865206f776e65726044820152fd5b634e487b7160e01b600052604160045260246000fd5b6040810190811067ffffffffffffffff8211176114c357604052565b611491565b60c0810190811067ffffffffffffffff8211176114c357604052565b90601f601f19910116810190811067ffffffffffffffff8211176114c357604052565b91906001600160a01b038316600052600160205261153c336040600020906001600160a01b0316600052602052604060002090565b54926000198403611557575b61155293506116ca565b600190565b8284106115735761156e83611552950333836117fa565b611548565b606460405162461bcd60e51b815260206004820152601d60248201527f45524332303a20696e73756666696369656e7420616c6c6f77616e63650000006044820152fd5b634e487b7160e01b600052601160045260246000fd5b90600182018092116105ca57565b919082018092116105ca57565b156115ef57565b608460405162461bcd60e51b815260206004820152602360248201527f45524332303a207472616e7366657220746f20746865207a65726f206164647260448201527f65737300000000000000000000000000000000000000000000000000000000006064820152fd5b1561166057565b608460405162461bcd60e51b815260206004820152602660248201527f45524332303a207472616e7366657220616d6f756e742065786365656473206260448201527f616c616e636500000000000000000000000000000000000000000000000000006064820152fd5b91906001600160a01b039283811680156117905761178e948316906116f08215156115e8565b8461170e846001600160a01b03166000526000602052604060002090565b5461171b82821015611659565b03611739846001600160a01b03166000526000602052604060002090565b55611757846001600160a01b03166000526000602052604060002090565b8054860190556040518581527fddf252ad1be2c89b69c2b068fc378daa952ba7f163c4a11628f55a4df523b3ef90602090a3611bcc565b565b608460405162461bcd60e51b815260206004820152602560248201527f45524332303a207472616e736665722066726f6d20746865207a65726f20616460448201527f64726573730000000000000000000000000000000000000000000000000000006064820152fd5b906001600160a01b03918281169283156118f557821693841561188b57806118757f8c5be1e5ebec7d5bd14f71427d1e84f3dd0314c0f7b2291e5b200ac8c7c3b9259461185d611886956001600160a01b03166000526001602052604060002090565b906001600160a01b0316600052602052604060002090565b556040519081529081906020820190565b0390a3565b608460405162461bcd60e51b815260206004820152602260248201527f45524332303a20617070726f766520746f20746865207a65726f20616464726560448201527f73730000000000000000000000000000000000000000000000000000000000006064820152fd5b608460405162461bcd60e51b8152602060048201526024808201527f45524332303a20617070726f76652066726f6d20746865207a65726f2061646460448201527f72657373000000000000000000000000000000000000000000000000000000006064820152fd5b6040519061178e826114a7565b80548210156119835760005260206000200190600090565b634e487b7160e01b600052603260045260246000fd5b906040516119a6816114a7565b602081935463ffffffff81168352811c910152565b9060001982019182116105ca57565b919082039182116105ca57565b156119de57565b606460405162461bcd60e51b815260206004820152601f60248201527f4552433230566f7465733a20626c6f636b206e6f7420796574206d696e6564006044820152fd5b15611a2957565b606460405162461bcd60e51b815260206004820152601960248201527f4552433230566f7465733a20696e76616c6964206e6f6e6365000000000000006044820152fd5b15611a7457565b608460405162461bcd60e51b815260206004820152603060248201527f4552433230566f7465733a20746f74616c20737570706c79207269736b73206f60448201527f766572666c6f77696e6720766f746573000000000000000000000000000000006064820152fd5b15611ae557565b608460405162461bcd60e51b815260206004820152602260248201527f45524332303a206275726e20616d6f756e7420657863656564732062616c616e60448201527f63650000000000000000000000000000000000000000000000000000000000006064820152fd5b60076020527f6d5257204ebe7d88fd91ae87941cb2dd9d8062b64ae5a2bd2d28ec40b9fbf6df546001600160a01b039182166000908152604090205461178e93929081169116611c7b565b9061178e916001600160a01b038091166000526007602052806040600020541690600080526040600020541690611c7b565b9061178e92916001600160a01b03809116600052600760205280806040600020541692166000526040600020541690611c7b565b61178e916001600160a01b038092166000928184526007602052806040852054168092856020527f3134e8a2e6d97e929a7e54011ea5485d7d196dd5f0ba4d4ef95803e8e3fc257f604087205496600760205260408120948716948573ffffffffffffffffffffffffffffffffffffffff1982541617905580a45b91906001600160a01b0380821693168381141580611e73575b611c9f575b50505050565b80611d12575b5082611cb2575b80611c99565b7fdec2bacdd2f05b59de34da9b523dff8be42e5e38e818c82fdb0bae774387a72491611cf4611cf9926001600160a01b03166000526008602052604060002090565b612079565b60408051928352602083019190915290a2388080611cac565b8060005260086020527fdec2bacdd2f05b59de34da9b523dff8be42e5e38e818c82fdb0bae774387a7246040600020805480159182600014611e4c57611d5661195e565b6000815260006020820152915b611d86611d7a60208501516001600160e01b031690565b6001600160e01b031690565b92611d918985612772565b94159081611e35575b5015611de957611db9611dd392610657611db387612679565b936119bb565b9063ffffffff63ffffffff1983549260201b169116179055565b604080519182526020820192909252a238611ca5565b50611e3090611df7436126f7565b90611e2b611e0486612679565b611e1b611e0f61195e565b63ffffffff9095168552565b6001600160e01b03166020840152565b611ee8565b611dd3565b5163ffffffff16905063ffffffff16431438611d9a565b611e6d611e68611e5b846119bb565b8360005260206000200190565b611999565b91611d63565b50821515611c94565b60095490680100000000000000008210156114c3576001820180600955821015611983576009600052805160209182015190911b63ffffffff191663ffffffff91909116177f6e1540171b6c0c960b71a7020d9f60077f6af931a8bbf590da0223dacf75c7af90910155565b8054680100000000000000008110156114c357611f0a9160018201815561196b565b611f3157815160209283015190921b63ffffffff191663ffffffff92909216919091179055565b634e487b7160e01b600052600060045260246000fd5b6009549091811591821561200e57611f5d61195e565b60008152600060208201525b611f8a611f83611d7a60208401516001600160e01b031690565b958661277f565b93159081611ff7575b5015611fb25761178e90611db9610aee611fac86612679565b926119bb565b5061178e611fbf436126f7565b611ff2611fcb85612679565b611fe2611fd661195e565b63ffffffff9094168452565b6001600160e01b03166020830152565b611e7c565b5163ffffffff16905063ffffffff16431438611f93565b61201d611e68610aee836119bb565b611f69565b600954909181159182156120655761203861195e565b60008152600060208201525b611f8a61205e611d7a60208401516001600160e01b031690565b9586612772565b612074611e68610aee836119bb565b612044565b9091815491821592836000146121055761209161195e565b60008152600060208201525b6120be6120b7611d7a60208401516001600160e01b031690565b968761277f565b941590816120ee575b50156120e057611db961178e92610657611db387612679565b5061178e90611df7436126f7565b5163ffffffff16905063ffffffff164314386120c7565b612121611e68612114836119bb565b8460005260206000200190565b61209d565b1561212d57565b606460405162461bcd60e51b815260206004820152601e60248201527f45524332305065726d69743a20696e76616c6964207369676e617475726500006044820152fd5b916121889391612180936122e6565b9190916121ab565b90565b6005111561219557565b634e487b7160e01b600052602160045260246000fd5b6121b48161218b565b806121bc5750565b6121c58161218b565b600181036122125760405162461bcd60e51b815260206004820152601860248201527f45434453413a20696e76616c6964207369676e617475726500000000000000006044820152606490fd5b61221b8161218b565b600281036122685760405162461bcd60e51b815260206004820152601f60248201527f45434453413a20696e76616c6964207369676e6174757265206c656e677468006044820152606490fd5b8061227460039261218b565b1461227b57565b60405162461bcd60e51b815260206004820152602260248201527f45434453413a20696e76616c6964207369676e6174757265202773272076616c60448201527f75650000000000000000000000000000000000000000000000000000000000006064820152608490fd5b9291907f7fffffffffffffffffffffffffffffff5d576e7357a4501ddfe92f46681b20a083116123695791608094939160ff602094604051948552168484015260408301526060820152600093849182805260015afa1561235c5781516001600160a01b03811615612356579190565b50600190565b50604051903d90823e3d90fd5b50505050600090600390565b6001600160a01b037f000000000000000000000000000000000000000000000000000000000000000016301480612466575b156123d0577f000000000000000000000000000000000000000000000000000000000000000090565b60405160208101907f000000000000000000000000000000000000000000000000000000000000000082527f000000000000000000000000000000000000000000000000000000000000000060408201527f000000000000000000000000000000000000000000000000000000000000000060608201524660808201523060a082015260a08152612460816114c8565b51902090565b507f000000000000000000000000000000000000000000000000000000000000000046146123a7565b612497612375565b906040519060208201927f1901000000000000000000000000000000000000000000000000000000000000845260228301526042820152604281526080810181811067ffffffffffffffff8211176114c35760405251902090565b81156124fc570490565b634e487b7160e01b600052601260045260246000fd5b90808216911860011c81018091116105ca5790565b801561266157806125fa6125f36125e96125df6125d56125cb6125c16125b760016121889a6000908b60801c80612655575b508060401c80612648575b508060201c8061263b575b508060101c8061262e575b508060081c80612621575b508060041c80612614575b508060021c80612607575b50821c612600575b811c1b6125b0818b6124f2565b0160011c90565b6125b0818a6124f2565b6125b081896124f2565b6125b081886124f2565b6125b081876124f2565b6125b081866124f2565b6125b081856124f2565b80926124f2565b90612667565b81016125a3565b600291509101903861259b565b6004915091019038612590565b6008915091019038612585565b601091509101903861257a565b602091509101903861256f565b6040915091019038612564565b91505060809038612559565b50600090565b9080821015612674575090565b905090565b6001600160e01b039081811161268d571690565b608460405162461bcd60e51b815260206004820152602760248201527f53616665436173743a2076616c756520646f65736e27742066697420696e203260448201527f32342062697473000000000000000000000000000000000000000000000000006064820152fd5b63ffffffff90818111612708571690565b608460405162461bcd60e51b815260206004820152602660248201527f53616665436173743a2076616c756520646f65736e27742066697420696e203360448201527f32206269747300000000000000000000000000000000000000000000000000006064820152fd5b9081039081116105ca5790565b9081018091116105ca579056fea2646970667358221220784f563afa1b6b8adac469f1794c5e2bff78e52a415657641f87c2910b4f561b64736f6c63430008140033a264697066735822122064c02d72954a99d68813a31c37207d1aa89a8bb2f89273f9bef7314731a7e4f664736f6c63430008140033",
    "linkReferences": {}
  },
  "methodIdentifiers": {
    "balanceOf(address,uint256)": "00fdd58e",
    "burnFrom(address,uint256,uint256,bool)": "906ebd0f",
    "claimFor(address,uint256,uint256)": "6607955d",
    "directory()": "c41c2f24",
    "fundingCycleStore()": "557e7155",
    "issueFor(uint256,string,string)": "a7f2a70b",
    "mintFor(address,uint256,uint256,bool)": "ceddd3e4",
    "operatorStore()": "ad007d63",
    "projects()": "8b79543c",
    "setFor(uint256,address)": "831d7fac",
    "tokenOf(uint256)": "ea78803f",
    "totalSupplyOf(uint256)": "75b0d9cd",
    "transferFrom(address,uint256,address,uint256)": "ac689bcd",
    "unclaimedBalanceOf(address,uint256)": "5287af37",
    "unclaimedTotalSupplyOf(uint256)": "1412884f"
  },
  "id": 78
}