{
  "abi": [
    {
      "inputs": [
        {
          "internalType": "contract IJBOperatorStore",
          "name": "_operatorStore",
          "type": "address"
        },
        {
          "internalType": "contract IJBProjects",
          "name": "_projects",
          "type": "address"
        },
        {
          "internalType": "contract IJBDirectory",
          "name": "_directory",
          "type": "address"
        },
        {
          "internalType": "contract IJBFundingCycleStore",
          "name": "_fundingCycleStore",
          "type": "address"
        },
        {
          "internalType": "contract IJBTokenStore",
          "name": "_tokenStore",
          "type": "address"
        },
        {
          "internalType": "contract IJBSplitsStore",
          "name": "_splitsStore",
          "type": "address"
        }
      ],
      "stateMutability": "nonpayable",
      "type": "constructor"
    },
    {
      "inputs": [],
      "name": "BURN_PAUSED_AND_SENDER_NOT_VALID_TERMINAL_DELEGATE",
      "type": "error"
    },
    {
      "inputs": [],
      "name": "CANT_MIGRATE_TO_CURRENT_CONTROLLER",
      "type": "error"
    },
    {
      "inputs": [],
      "name": "FUNDING_CYCLE_ALREADY_LAUNCHED",
      "type": "error"
    },
    {
      "inputs": [],
      "name": "INVALID_BALLOT_REDEMPTION_RATE",
      "type": "error"
    },
    {
      "inputs": [],
      "name": "INVALID_DISTRIBUTION_LIMIT",
      "type": "error"
    },
    {
      "inputs": [],
      "name": "INVALID_DISTRIBUTION_LIMIT_CURRENCY",
      "type": "error"
    },
    {
      "inputs": [],
      "name": "INVALID_OVERFLOW_ALLOWANCE",
      "type": "error"
    },
    {
      "inputs": [],
      "name": "INVALID_OVERFLOW_ALLOWANCE_CURRENCY",
      "type": "error"
    },
    {
      "inputs": [],
      "name": "INVALID_REDEMPTION_RATE",
      "type": "error"
    },
    {
      "inputs": [],
      "name": "INVALID_RESERVED_RATE",
      "type": "error"
    },
    {
      "inputs": [],
      "name": "MIGRATION_NOT_ALLOWED",
      "type": "error"
    },
    {
      "inputs": [],
      "name": "MINT_NOT_ALLOWED_AND_NOT_TERMINAL_DELEGATE",
      "type": "error"
    },
    {
      "inputs": [],
      "name": "NOT_CURRENT_CONTROLLER",
      "type": "error"
    },
    {
      "inputs": [],
      "name": "NO_BURNABLE_TOKENS",
      "type": "error"
    },
    {
      "inputs": [],
      "name": "OVERFLOW_ALERT",
      "type": "error"
    },
    {
      "inputs": [
        {
          "internalType": "uint256",
          "name": "prod1",
          "type": "uint256"
        },
        {
          "internalType": "uint256",
          "name": "denominator",
          "type": "uint256"
        }
      ],
      "name": "PRBMath__MulDivOverflow",
      "type": "error"
    },
    {
      "inputs": [],
      "name": "UNAUTHORIZED",
      "type": "error"
    },
    {
      "inputs": [],
      "name": "ZERO_TOKENS_TO_MINT",
      "type": "error"
    },
    {
      "anonymous": false,
      "inputs": [
        {
          "indexed": true,
          "internalType": "address",
          "name": "holder",
          "type": "address"
        },
        {
          "indexed": true,
          "internalType": "uint256",
          "name": "projectId",
          "type": "uint256"
        },
        {
          "indexed": false,
          "internalType": "uint256",
          "name": "tokenCount",
          "type": "uint256"
        },
        {
          "indexed": false,
          "internalType": "string",
          "name": "memo",
          "type": "string"
        },
        {
          "indexed": false,
          "internalType": "address",
          "name": "caller",
          "type": "address"
        }
      ],
      "name": "BurnTokens",
      "type": "event"
    },
    {
      "anonymous": false,
      "inputs": [
        {
          "indexed": true,
          "internalType": "uint256",
          "name": "fundingCycleConfiguration",
          "type": "uint256"
        },
        {
          "indexed": true,
          "internalType": "uint256",
          "name": "fundingCycleNumber",
          "type": "uint256"
        },
        {
          "indexed": true,
          "internalType": "uint256",
          "name": "projectId",
          "type": "uint256"
        },
        {
          "indexed": false,
          "internalType": "address",
          "name": "beneficiary",
          "type": "address"
        },
        {
          "indexed": false,
          "internalType": "uint256",
          "name": "tokenCount",
          "type": "uint256"
        },
        {
          "indexed": false,
          "internalType": "uint256",
          "name": "beneficiaryTokenCount",
          "type": "uint256"
        },
        {
          "indexed": false,
          "internalType": "string",
          "name": "memo",
          "type": "string"
        },
        {
          "indexed": false,
          "internalType": "address",
          "name": "caller",
          "type": "address"
        }
      ],
      "name": "DistributeReservedTokens",
      "type": "event"
    },
    {
      "anonymous": false,
      "inputs": [
        {
          "indexed": true,
          "internalType": "uint256",
          "name": "projectId",
          "type": "uint256"
        },
        {
          "indexed": true,
          "internalType": "uint256",
          "name": "domain",
          "type": "uint256"
        },
        {
          "indexed": true,
          "internalType": "uint256",
          "name": "group",
          "type": "uint256"
        },
        {
          "components": [
            {
              "internalType": "bool",
              "name": "preferClaimed",
              "type": "bool"
            },
            {
              "internalType": "bool",
              "name": "preferAddToBalance",
              "type": "bool"
            },
            {
              "internalType": "uint256",
              "name": "percent",
              "type": "uint256"
            },
            {
              "internalType": "uint256",
              "name": "projectId",
              "type": "uint256"
            },
            {
              "internalType": "address payable",
              "name": "beneficiary",
              "type": "address"
            },
            {
              "internalType": "uint256",
              "name": "lockedUntil",
              "type": "uint256"
            },
            {
              "internalType": "contract IJBSplitAllocator",
              "name": "allocator",
              "type": "address"
            }
          ],
          "indexed": false,
          "internalType": "struct JBSplit",
          "name": "split",
          "type": "tuple"
        },
        {
          "indexed": false,
          "internalType": "uint256",
          "name": "tokenCount",
          "type": "uint256"
        },
        {
          "indexed": false,
          "internalType": "address",
          "name": "caller",
          "type": "address"
        }
      ],
      "name": "DistributeToReservedTokenSplit",
      "type": "event"
    },
    {
      "anonymous": false,
      "inputs": [
        {
          "indexed": false,
          "internalType": "uint256",
          "name": "configuration",
          "type": "uint256"
        },
        {
          "indexed": false,
          "internalType": "uint256",
          "name": "projectId",
          "type": "uint256"
        },
        {
          "indexed": false,
          "internalType": "string",
          "name": "memo",
          "type": "string"
        },
        {
          "indexed": false,
          "internalType": "address",
          "name": "caller",
          "type": "address"
        }
      ],
      "name": "LaunchFundingCycles",
      "type": "event"
    },
    {
      "anonymous": false,
      "inputs": [
        {
          "indexed": false,
          "internalType": "uint256",
          "name": "configuration",
          "type": "uint256"
        },
        {
          "indexed": false,
          "internalType": "uint256",
          "name": "projectId",
          "type": "uint256"
        },
        {
          "indexed": false,
          "internalType": "string",
          "name": "memo",
          "type": "string"
        },
        {
          "indexed": false,
          "internalType": "address",
          "name": "caller",
          "type": "address"
        }
      ],
      "name": "LaunchProject",
      "type": "event"
    },
    {
      "anonymous": false,
      "inputs": [
        {
          "indexed": true,
          "internalType": "uint256",
          "name": "projectId",
          "type": "uint256"
        },
        {
          "indexed": false,
          "internalType": "contract IJBMigratable",
          "name": "to",
          "type": "address"
        },
        {
          "indexed": false,
          "internalType": "address",
          "name": "caller",
          "type": "address"
        }
      ],
      "name": "Migrate",
      "type": "event"
    },
    {
      "anonymous": false,
      "inputs": [
        {
          "indexed": true,
          "internalType": "address",
          "name": "beneficiary",
          "type": "address"
        },
        {
          "indexed": true,
          "internalType": "uint256",
          "name": "projectId",
          "type": "uint256"
        },
        {
          "indexed": false,
          "internalType": "uint256",
          "name": "tokenCount",
          "type": "uint256"
        },
        {
          "indexed": false,
          "internalType": "uint256",
          "name": "beneficiaryTokenCount",
          "type": "uint256"
        },
        {
          "indexed": false,
          "internalType": "string",
          "name": "memo",
          "type": "string"
        },
        {
          "indexed": false,
          "internalType": "uint256",
          "name": "reservedRate",
          "type": "uint256"
        },
        {
          "indexed": false,
          "internalType": "address",
          "name": "caller",
          "type": "address"
        }
      ],
      "name": "MintTokens",
      "type": "event"
    },
    {
      "anonymous": false,
      "inputs": [
        {
          "indexed": true,
          "internalType": "uint256",
          "name": "projectId",
          "type": "uint256"
        },
        {
          "indexed": false,
          "internalType": "address",
          "name": "from",
          "type": "address"
        },
        {
          "indexed": false,
          "internalType": "address",
          "name": "caller",
          "type": "address"
        }
      ],
      "name": "PrepMigration",
      "type": "event"
    },
    {
      "anonymous": false,
      "inputs": [
        {
          "indexed": false,
          "internalType": "uint256",
          "name": "configuration",
          "type": "uint256"
        },
        {
          "indexed": false,
          "internalType": "uint256",
          "name": "projectId",
          "type": "uint256"
        },
        {
          "indexed": false,
          "internalType": "string",
          "name": "memo",
          "type": "string"
        },
        {
          "indexed": false,
          "internalType": "address",
          "name": "caller",
          "type": "address"
        }
      ],
      "name": "ReconfigureFundingCycles",
      "type": "event"
    },
    {
      "anonymous": false,
      "inputs": [
        {
          "indexed": true,
          "internalType": "uint256",
          "name": "fundingCycleConfiguration",
          "type": "uint256"
        },
        {
          "indexed": true,
          "internalType": "uint256",
          "name": "fundingCycleNumber",
          "type": "uint256"
        },
        {
          "indexed": true,
          "internalType": "uint256",
          "name": "projectId",
          "type": "uint256"
        },
        {
          "components": [
            {
              "internalType": "contract IJBPaymentTerminal",
              "name": "terminal",
              "type": "address"
            },
            {
              "internalType": "address",
              "name": "token",
              "type": "address"
            },
            {
              "internalType": "uint256",
              "name": "distributionLimit",
              "type": "uint256"
            },
            {
              "internalType": "uint256",
              "name": "distributionLimitCurrency",
              "type": "uint256"
            },
            {
              "internalType": "uint256",
              "name": "overflowAllowance",
              "type": "uint256"
            },
            {
              "internalType": "uint256",
              "name": "overflowAllowanceCurrency",
              "type": "uint256"
            }
          ],
          "indexed": false,
          "internalType": "struct JBFundAccessConstraints",
          "name": "constraints",
          "type": "tuple"
        },
        {
          "indexed": false,
          "internalType": "address",
          "name": "caller",
          "type": "address"
        }
      ],
      "name": "SetFundAccessConstraints",
      "type": "event"
    },
    {
      "inputs": [
        {
          "internalType": "address",
          "name": "_holder",
          "type": "address"
        },
        {
          "internalType": "uint256",
          "name": "_projectId",
          "type": "uint256"
        },
        {
          "internalType": "uint256",
          "name": "_tokenCount",
          "type": "uint256"
        },
        {
          "internalType": "string",
          "name": "_memo",
          "type": "string"
        },
        {
          "internalType": "bool",
          "name": "_preferClaimedTokens",
          "type": "bool"
        }
      ],
      "name": "burnTokensOf",
      "outputs": [],
      "stateMutability": "nonpayable",
      "type": "function"
    },
    {
      "inputs": [
        {
          "internalType": "uint256",
          "name": "_projectId",
          "type": "uint256"
        }
      ],
      "name": "currentFundingCycleOf",
      "outputs": [
        {
          "components": [
            {
              "internalType": "uint256",
              "name": "number",
              "type": "uint256"
            },
            {
              "internalType": "uint256",
              "name": "configuration",
              "type": "uint256"
            },
            {
              "internalType": "uint256",
              "name": "basedOn",
              "type": "uint256"
            },
            {
              "internalType": "uint256",
              "name": "start",
              "type": "uint256"
            },
            {
              "internalType": "uint256",
              "name": "duration",
              "type": "uint256"
            },
            {
              "internalType": "uint256",
              "name": "weight",
              "type": "uint256"
            },
            {
              "internalType": "uint256",
              "name": "discountRate",
              "type": "uint256"
            },
            {
              "internalType": "contract IJBFundingCycleBallot",
              "name": "ballot",
              "type": "address"
            },
            {
              "internalType": "uint256",
              "name": "metadata",
              "type": "uint256"
            }
          ],
          "internalType": "struct JBFundingCycle",
          "name": "fundingCycle",
          "type": "tuple"
        },
        {
          "components": [
            {
              "components": [
                {
                  "internalType": "bool",
                  "name": "allowSetTerminals",
                  "type": "bool"
                },
                {
                  "internalType": "bool",
                  "name": "allowSetController",
                  "type": "bool"
                },
                {
                  "internalType": "bool",
                  "name": "pauseTransfers",
                  "type": "bool"
                }
              ],
              "internalType": "struct JBGlobalFundingCycleMetadata",
              "name": "global",
              "type": "tuple"
            },
            {
              "internalType": "uint256",
              "name": "reservedRate",
              "type": "uint256"
            },
            {
              "internalType": "uint256",
              "name": "redemptionRate",
              "type": "uint256"
            },
            {
              "internalType": "uint256",
              "name": "ballotRedemptionRate",
              "type": "uint256"
            },
            {
              "internalType": "bool",
              "name": "pausePay",
              "type": "bool"
            },
            {
              "internalType": "bool",
              "name": "pauseDistributions",
              "type": "bool"
            },
            {
              "internalType": "bool",
              "name": "pauseRedeem",
              "type": "bool"
            },
            {
              "internalType": "bool",
              "name": "pauseBurn",
              "type": "bool"
            },
            {
              "internalType": "bool",
              "name": "allowMinting",
              "type": "bool"
            },
            {
              "internalType": "bool",
              "name": "allowTerminalMigration",
              "type": "bool"
            },
            {
              "internalType": "bool",
              "name": "allowControllerMigration",
              "type": "bool"
            },
            {
              "internalType": "bool",
              "name": "holdFees",
              "type": "bool"
            },
            {
              "internalType": "bool",
              "name": "preferClaimedTokenOverride",
              "type": "bool"
            },
            {
              "internalType": "bool",
              "name": "useTotalOverflowForRedemptions",
              "type": "bool"
            },
            {
              "internalType": "bool",
              "name": "useDataSourceForPay",
              "type": "bool"
            },
            {
              "internalType": "bool",
              "name": "useDataSourceForRedeem",
              "type": "bool"
            },
            {
              "internalType": "address",
              "name": "dataSource",
              "type": "address"
            },
            {
              "internalType": "uint256",
              "name": "metadata",
              "type": "uint256"
            }
          ],
          "internalType": "struct JBFundingCycleMetadata",
          "name": "metadata",
          "type": "tuple"
        }
      ],
      "stateMutability": "view",
      "type": "function"
    },
    {
      "inputs": [],
      "name": "directory",
      "outputs": [
        {
          "internalType": "contract IJBDirectory",
          "name": "",
          "type": "address"
        }
      ],
      "stateMutability": "view",
      "type": "function"
    },
    {
      "inputs": [
        {
          "internalType": "uint256",
          "name": "_projectId",
          "type": "uint256"
        },
        {
          "internalType": "string",
          "name": "_memo",
          "type": "string"
        }
      ],
      "name": "distributeReservedTokensOf",
      "outputs": [
        {
          "internalType": "uint256",
          "name": "",
          "type": "uint256"
        }
      ],
      "stateMutability": "nonpayable",
      "type": "function"
    },
    {
      "inputs": [
        {
          "internalType": "uint256",
          "name": "_projectId",
          "type": "uint256"
        },
        {
          "internalType": "uint256",
          "name": "_configuration",
          "type": "uint256"
        },
        {
          "internalType": "contract IJBPaymentTerminal",
          "name": "_terminal",
          "type": "address"
        },
        {
          "internalType": "address",
          "name": "_token",
          "type": "address"
        }
      ],
      "name": "distributionLimitOf",
      "outputs": [
        {
          "internalType": "uint256",
          "name": "",
          "type": "uint256"
        },
        {
          "internalType": "uint256",
          "name": "",
          "type": "uint256"
        }
      ],
      "stateMutability": "view",
      "type": "function"
    },
    {
      "inputs": [],
      "name": "fundingCycleStore",
      "outputs": [
        {
          "internalType": "contract IJBFundingCycleStore",
          "name": "",
          "type": "address"
        }
      ],
      "stateMutability": "view",
      "type": "function"
    },
    {
      "inputs": [
        {
          "internalType": "uint256",
          "name": "_projectId",
          "type": "uint256"
        },
        {
          "internalType": "uint256",
          "name": "_configuration",
          "type": "uint256"
        }
      ],
      "name": "getFundingCycleOf",
      "outputs": [
        {
          "components": [
            {
              "internalType": "uint256",
              "name": "number",
              "type": "uint256"
            },
            {
              "internalType": "uint256",
              "name": "configuration",
              "type": "uint256"
            },
            {
              "internalType": "uint256",
              "name": "basedOn",
              "type": "uint256"
            },
            {
              "internalType": "uint256",
              "name": "start",
              "type": "uint256"
            },
            {
              "internalType": "uint256",
              "name": "duration",
              "type": "uint256"
            },
            {
              "internalType": "uint256",
              "name": "weight",
              "type": "uint256"
            },
            {
              "internalType": "uint256",
              "name": "discountRate",
              "type": "uint256"
            },
            {
              "internalType": "contract IJBFundingCycleBallot",
              "name": "ballot",
              "type": "address"
            },
            {
              "internalType": "uint256",
              "name": "metadata",
              "type": "uint256"
            }
          ],
          "internalType": "struct JBFundingCycle",
          "name": "fundingCycle",
          "type": "tuple"
        },
        {
          "components": [
            {
              "components": [
                {
                  "internalType": "bool",
                  "name": "allowSetTerminals",
                  "type": "bool"
                },
                {
                  "internalType": "bool",
                  "name": "allowSetController",
                  "type": "bool"
                },
                {
                  "internalType": "bool",
                  "name": "pauseTransfers",
                  "type": "bool"
                }
              ],
              "internalType": "struct JBGlobalFundingCycleMetadata",
              "name": "global",
              "type": "tuple"
            },
            {
              "internalType": "uint256",
              "name": "reservedRate",
              "type": "uint256"
            },
            {
              "internalType": "uint256",
              "name": "redemptionRate",
              "type": "uint256"
            },
            {
              "internalType": "uint256",
              "name": "ballotRedemptionRate",
              "type": "uint256"
            },
            {
              "internalType": "bool",
              "name": "pausePay",
              "type": "bool"
            },
            {
              "internalType": "bool",
              "name": "pauseDistributions",
              "type": "bool"
            },
            {
              "internalType": "bool",
              "name": "pauseRedeem",
              "type": "bool"
            },
            {
              "internalType": "bool",
              "name": "pauseBurn",
              "type": "bool"
            },
            {
              "internalType": "bool",
              "name": "allowMinting",
              "type": "bool"
            },
            {
              "internalType": "bool",
              "name": "allowTerminalMigration",
              "type": "bool"
            },
            {
              "internalType": "bool",
              "name": "allowControllerMigration",
              "type": "bool"
            },
            {
              "internalType": "bool",
              "name": "holdFees",
              "type": "bool"
            },
            {
              "internalType": "bool",
              "name": "preferClaimedTokenOverride",
              "type": "bool"
            },
            {
              "internalType": "bool",
              "name": "useTotalOverflowForRedemptions",
              "type": "bool"
            },
            {
              "internalType": "bool",
              "name": "useDataSourceForPay",
              "type": "bool"
            },
            {
              "internalType": "bool",
              "name": "useDataSourceForRedeem",
              "type": "bool"
            },
            {
              "internalType": "address",
              "name": "dataSource",
              "type": "address"
            },
            {
              "internalType": "uint256",
              "name": "metadata",
              "type": "uint256"
            }
          ],
          "internalType": "struct JBFundingCycleMetadata",
          "name": "metadata",
          "type": "tuple"
        }
      ],
      "stateMutability": "view",
      "type": "function"
    },
    {
      "inputs": [
        {
          "internalType": "uint256",
          "name": "_projectId",
          "type": "uint256"
        }
      ],
      "name": "latestConfiguredFundingCycleOf",
      "outputs": [
        {
          "components": [
            {
              "internalType": "uint256",
              "name": "number",
              "type": "uint256"
            },
            {
              "internalType": "uint256",
              "name": "configuration",
              "type": "uint256"
            },
            {
              "internalType": "uint256",
              "name": "basedOn",
              "type": "uint256"
            },
            {
              "internalType": "uint256",
              "name": "start",
              "type": "uint256"
            },
            {
              "internalType": "uint256",
              "name": "duration",
              "type": "uint256"
            },
            {
              "internalType": "uint256",
              "name": "weight",
              "type": "uint256"
            },
            {
              "internalType": "uint256",
              "name": "discountRate",
              "type": "uint256"
            },
            {
              "internalType": "contract IJBFundingCycleBallot",
              "name": "ballot",
              "type": "address"
            },
            {
              "internalType": "uint256",
              "name": "metadata",
              "type": "uint256"
            }
          ],
          "internalType": "struct JBFundingCycle",
          "name": "fundingCycle",
          "type": "tuple"
        },
        {
          "components": [
            {
              "components": [
                {
                  "internalType": "bool",
                  "name": "allowSetTerminals",
                  "type": "bool"
                },
                {
                  "internalType": "bool",
                  "name": "allowSetController",
                  "type": "bool"
                },
                {
                  "internalType": "bool",
                  "name": "pauseTransfers",
                  "type": "bool"
                }
              ],
              "internalType": "struct JBGlobalFundingCycleMetadata",
              "name": "global",
              "type": "tuple"
            },
            {
              "internalType": "uint256",
              "name": "reservedRate",
              "type": "uint256"
            },
            {
              "internalType": "uint256",
              "name": "redemptionRate",
              "type": "uint256"
            },
            {
              "internalType": "uint256",
              "name": "ballotRedemptionRate",
              "type": "uint256"
            },
            {
              "internalType": "bool",
              "name": "pausePay",
              "type": "bool"
            },
            {
              "internalType": "bool",
              "name": "pauseDistributions",
              "type": "bool"
            },
            {
              "internalType": "bool",
              "name": "pauseRedeem",
              "type": "bool"
            },
            {
              "internalType": "bool",
              "name": "pauseBurn",
              "type": "bool"
            },
            {
              "internalType": "bool",
              "name": "allowMinting",
              "type": "bool"
            },
            {
              "internalType": "bool",
              "name": "allowTerminalMigration",
              "type": "bool"
            },
            {
              "internalType": "bool",
              "name": "allowControllerMigration",
              "type": "bool"
            },
            {
              "internalType": "bool",
              "name": "holdFees",
              "type": "bool"
            },
            {
              "internalType": "bool",
              "name": "preferClaimedTokenOverride",
              "type": "bool"
            },
            {
              "internalType": "bool",
              "name": "useTotalOverflowForRedemptions",
              "type": "bool"
            },
            {
              "internalType": "bool",
              "name": "useDataSourceForPay",
              "type": "bool"
            },
            {
              "internalType": "bool",
              "name": "useDataSourceForRedeem",
              "type": "bool"
            },
            {
              "internalType": "address",
              "name": "dataSource",
              "type": "address"
            },
            {
              "internalType": "uint256",
              "name": "metadata",
              "type": "uint256"
            }
          ],
          "internalType": "struct JBFundingCycleMetadata",
          "name": "metadata",
          "type": "tuple"
        },
        {
          "internalType": "enum JBBallotState",
          "name": "ballotState",
          "type": "uint8"
        }
      ],
      "stateMutability": "view",
      "type": "function"
    },
    {
      "inputs": [
        {
          "internalType": "uint256",
          "name": "_projectId",
          "type": "uint256"
        },
        {
          "components": [
            {
              "internalType": "uint256",
              "name": "duration",
              "type": "uint256"
            },
            {
              "internalType": "uint256",
              "name": "weight",
              "type": "uint256"
            },
            {
              "internalType": "uint256",
              "name": "discountRate",
              "type": "uint256"
            },
            {
              "internalType": "contract IJBFundingCycleBallot",
              "name": "ballot",
              "type": "address"
            }
          ],
          "internalType": "struct JBFundingCycleData",
          "name": "_data",
          "type": "tuple"
        },
        {
          "components": [
            {
              "components": [
                {
                  "internalType": "bool",
                  "name": "allowSetTerminals",
                  "type": "bool"
                },
                {
                  "internalType": "bool",
                  "name": "allowSetController",
                  "type": "bool"
                },
                {
                  "internalType": "bool",
                  "name": "pauseTransfers",
                  "type": "bool"
                }
              ],
              "internalType": "struct JBGlobalFundingCycleMetadata",
              "name": "global",
              "type": "tuple"
            },
            {
              "internalType": "uint256",
              "name": "reservedRate",
              "type": "uint256"
            },
            {
              "internalType": "uint256",
              "name": "redemptionRate",
              "type": "uint256"
            },
            {
              "internalType": "uint256",
              "name": "ballotRedemptionRate",
              "type": "uint256"
            },
            {
              "internalType": "bool",
              "name": "pausePay",
              "type": "bool"
            },
            {
              "internalType": "bool",
              "name": "pauseDistributions",
              "type": "bool"
            },
            {
              "internalType": "bool",
              "name": "pauseRedeem",
              "type": "bool"
            },
            {
              "internalType": "bool",
              "name": "pauseBurn",
              "type": "bool"
            },
            {
              "internalType": "bool",
              "name": "allowMinting",
              "type": "bool"
            },
            {
              "internalType": "bool",
              "name": "allowTerminalMigration",
              "type": "bool"
            },
            {
              "internalType": "bool",
              "name": "allowControllerMigration",
              "type": "bool"
            },
            {
              "internalType": "bool",
              "name": "holdFees",
              "type": "bool"
            },
            {
              "internalType": "bool",
              "name": "preferClaimedTokenOverride",
              "type": "bool"
            },
            {
              "internalType": "bool",
              "name": "useTotalOverflowForRedemptions",
              "type": "bool"
            },
            {
              "internalType": "bool",
              "name": "useDataSourceForPay",
              "type": "bool"
            },
            {
              "internalType": "bool",
              "name": "useDataSourceForRedeem",
              "type": "bool"
            },
            {
              "internalType": "address",
              "name": "dataSource",
              "type": "address"
            },
            {
              "internalType": "uint256",
              "name": "metadata",
              "type": "uint256"
            }
          ],
          "internalType": "struct JBFundingCycleMetadata",
          "name": "_metadata",
          "type": "tuple"
        },
        {
          "internalType": "uint256",
          "name": "_mustStartAtOrAfter",
          "type": "uint256"
        },
        {
          "components": [
            {
              "internalType": "uint256",
              "name": "group",
              "type": "uint256"
            },
            {
              "components": [
                {
                  "internalType": "bool",
                  "name": "preferClaimed",
                  "type": "bool"
                },
                {
                  "internalType": "bool",
                  "name": "preferAddToBalance",
                  "type": "bool"
                },
                {
                  "internalType": "uint256",
                  "name": "percent",
                  "type": "uint256"
                },
                {
                  "internalType": "uint256",
                  "name": "projectId",
                  "type": "uint256"
                },
                {
                  "internalType": "address payable",
                  "name": "beneficiary",
                  "type": "address"
                },
                {
                  "internalType": "uint256",
                  "name": "lockedUntil",
                  "type": "uint256"
                },
                {
                  "internalType": "contract IJBSplitAllocator",
                  "name": "allocator",
                  "type": "address"
                }
              ],
              "internalType": "struct JBSplit[]",
              "name": "splits",
              "type": "tuple[]"
            }
          ],
          "internalType": "struct JBGroupedSplits[]",
          "name": "_groupedSplits",
          "type": "tuple[]"
        },
        {
          "components": [
            {
              "internalType": "contract IJBPaymentTerminal",
              "name": "terminal",
              "type": "address"
            },
            {
              "internalType": "address",
              "name": "token",
              "type": "address"
            },
            {
              "internalType": "uint256",
              "name": "distributionLimit",
              "type": "uint256"
            },
            {
              "internalType": "uint256",
              "name": "distributionLimitCurrency",
              "type": "uint256"
            },
            {
              "internalType": "uint256",
              "name": "overflowAllowance",
              "type": "uint256"
            },
            {
              "internalType": "uint256",
              "name": "overflowAllowanceCurrency",
              "type": "uint256"
            }
          ],
          "internalType": "struct JBFundAccessConstraints[]",
          "name": "_fundAccessConstraints",
          "type": "tuple[]"
        },
        {
          "internalType": "contract IJBPaymentTerminal[]",
          "name": "_terminals",
          "type": "address[]"
        },
        {
          "internalType": "string",
          "name": "_memo",
          "type": "string"
        }
      ],
      "name": "launchFundingCyclesFor",
      "outputs": [
        {
          "internalType": "uint256",
          "name": "configuration",
          "type": "uint256"
        }
      ],
      "stateMutability": "nonpayable",
      "type": "function"
    },
    {
      "inputs": [
        {
          "internalType": "address",
          "name": "_owner",
          "type": "address"
        },
        {
          "components": [
            {
              "internalType": "string",
              "name": "content",
              "type": "string"
            },
            {
              "internalType": "uint256",
              "name": "domain",
              "type": "uint256"
            }
          ],
          "internalType": "struct JBProjectMetadata",
          "name": "_projectMetadata",
          "type": "tuple"
        },
        {
          "components": [
            {
              "internalType": "uint256",
              "name": "duration",
              "type": "uint256"
            },
            {
              "internalType": "uint256",
              "name": "weight",
              "type": "uint256"
            },
            {
              "internalType": "uint256",
              "name": "discountRate",
              "type": "uint256"
            },
            {
              "internalType": "contract IJBFundingCycleBallot",
              "name": "ballot",
              "type": "address"
            }
          ],
          "internalType": "struct JBFundingCycleData",
          "name": "_data",
          "type": "tuple"
        },
        {
          "components": [
            {
              "components": [
                {
                  "internalType": "bool",
                  "name": "allowSetTerminals",
                  "type": "bool"
                },
                {
                  "internalType": "bool",
                  "name": "allowSetController",
                  "type": "bool"
                },
                {
                  "internalType": "bool",
                  "name": "pauseTransfers",
                  "type": "bool"
                }
              ],
              "internalType": "struct JBGlobalFundingCycleMetadata",
              "name": "global",
              "type": "tuple"
            },
            {
              "internalType": "uint256",
              "name": "reservedRate",
              "type": "uint256"
            },
            {
              "internalType": "uint256",
              "name": "redemptionRate",
              "type": "uint256"
            },
            {
              "internalType": "uint256",
              "name": "ballotRedemptionRate",
              "type": "uint256"
            },
            {
              "internalType": "bool",
              "name": "pausePay",
              "type": "bool"
            },
            {
              "internalType": "bool",
              "name": "pauseDistributions",
              "type": "bool"
            },
            {
              "internalType": "bool",
              "name": "pauseRedeem",
              "type": "bool"
            },
            {
              "internalType": "bool",
              "name": "pauseBurn",
              "type": "bool"
            },
            {
              "internalType": "bool",
              "name": "allowMinting",
              "type": "bool"
            },
            {
              "internalType": "bool",
              "name": "allowTerminalMigration",
              "type": "bool"
            },
            {
              "internalType": "bool",
              "name": "allowControllerMigration",
              "type": "bool"
            },
            {
              "internalType": "bool",
              "name": "holdFees",
              "type": "bool"
            },
            {
              "internalType": "bool",
              "name": "preferClaimedTokenOverride",
              "type": "bool"
            },
            {
              "internalType": "bool",
              "name": "useTotalOverflowForRedemptions",
              "type": "bool"
            },
            {
              "internalType": "bool",
              "name": "useDataSourceForPay",
              "type": "bool"
            },
            {
              "internalType": "bool",
              "name": "useDataSourceForRedeem",
              "type": "bool"
            },
            {
              "internalType": "address",
              "name": "dataSource",
              "type": "address"
            },
            {
              "internalType": "uint256",
              "name": "metadata",
              "type": "uint256"
            }
          ],
          "internalType": "struct JBFundingCycleMetadata",
          "name": "_metadata",
          "type": "tuple"
        },
        {
          "internalType": "uint256",
          "name": "_mustStartAtOrAfter",
          "type": "uint256"
        },
        {
          "components": [
            {
              "internalType": "uint256",
              "name": "group",
              "type": "uint256"
            },
            {
              "components": [
                {
                  "internalType": "bool",
                  "name": "preferClaimed",
                  "type": "bool"
                },
                {
                  "internalType": "bool",
                  "name": "preferAddToBalance",
                  "type": "bool"
                },
                {
                  "internalType": "uint256",
                  "name": "percent",
                  "type": "uint256"
                },
                {
                  "internalType": "uint256",
                  "name": "projectId",
                  "type": "uint256"
                },
                {
                  "internalType": "address payable",
                  "name": "beneficiary",
                  "type": "address"
                },
                {
                  "internalType": "uint256",
                  "name": "lockedUntil",
                  "type": "uint256"
                },
                {
                  "internalType": "contract IJBSplitAllocator",
                  "name": "allocator",
                  "type": "address"
                }
              ],
              "internalType": "struct JBSplit[]",
              "name": "splits",
              "type": "tuple[]"
            }
          ],
          "internalType": "struct JBGroupedSplits[]",
          "name": "_groupedSplits",
          "type": "tuple[]"
        },
        {
          "components": [
            {
              "internalType": "contract IJBPaymentTerminal",
              "name": "terminal",
              "type": "address"
            },
            {
              "internalType": "address",
              "name": "token",
              "type": "address"
            },
            {
              "internalType": "uint256",
              "name": "distributionLimit",
              "type": "uint256"
            },
            {
              "internalType": "uint256",
              "name": "distributionLimitCurrency",
              "type": "uint256"
            },
            {
              "internalType": "uint256",
              "name": "overflowAllowance",
              "type": "uint256"
            },
            {
              "internalType": "uint256",
              "name": "overflowAllowanceCurrency",
              "type": "uint256"
            }
          ],
          "internalType": "struct JBFundAccessConstraints[]",
          "name": "_fundAccessConstraints",
          "type": "tuple[]"
        },
        {
          "internalType": "contract IJBPaymentTerminal[]",
          "name": "_terminals",
          "type": "address[]"
        },
        {
          "internalType": "string",
          "name": "_memo",
          "type": "string"
        }
      ],
      "name": "launchProjectFor",
      "outputs": [
        {
          "internalType": "uint256",
          "name": "projectId",
          "type": "uint256"
        }
      ],
      "stateMutability": "nonpayable",
      "type": "function"
    },
    {
      "inputs": [
        {
          "internalType": "uint256",
          "name": "_projectId",
          "type": "uint256"
        },
        {
          "internalType": "contract IJBMigratable",
          "name": "_to",
          "type": "address"
        }
      ],
      "name": "migrate",
      "outputs": [],
      "stateMutability": "nonpayable",
      "type": "function"
    },
    {
      "inputs": [
        {
          "internalType": "uint256",
          "name": "_projectId",
          "type": "uint256"
        },
        {
          "internalType": "uint256",
          "name": "_tokenCount",
          "type": "uint256"
        },
        {
          "internalType": "address",
          "name": "_beneficiary",
          "type": "address"
        },
        {
          "internalType": "string",
          "name": "_memo",
          "type": "string"
        },
        {
          "internalType": "bool",
          "name": "_preferClaimedTokens",
          "type": "bool"
        },
        {
          "internalType": "bool",
          "name": "_useReservedRate",
          "type": "bool"
        }
      ],
      "name": "mintTokensOf",
      "outputs": [
        {
          "internalType": "uint256",
          "name": "beneficiaryTokenCount",
          "type": "uint256"
        }
      ],
      "stateMutability": "nonpayable",
      "type": "function"
    },
    {
      "inputs": [],
      "name": "operatorStore",
      "outputs": [
        {
          "internalType": "contract IJBOperatorStore",
          "name": "",
          "type": "address"
        }
      ],
      "stateMutability": "view",
      "type": "function"
    },
    {
      "inputs": [
        {
          "internalType": "uint256",
          "name": "_projectId",
          "type": "uint256"
        },
        {
          "internalType": "uint256",
          "name": "_configuration",
          "type": "uint256"
        },
        {
          "internalType": "contract IJBPaymentTerminal",
          "name": "_terminal",
          "type": "address"
        },
        {
          "internalType": "address",
          "name": "_token",
          "type": "address"
        }
      ],
      "name": "overflowAllowanceOf",
      "outputs": [
        {
          "internalType": "uint256",
          "name": "",
          "type": "uint256"
        },
        {
          "internalType": "uint256",
          "name": "",
          "type": "uint256"
        }
      ],
      "stateMutability": "view",
      "type": "function"
    },
    {
      "inputs": [
        {
          "internalType": "uint256",
          "name": "_projectId",
          "type": "uint256"
        },
        {
          "internalType": "address",
          "name": "_from",
          "type": "address"
        }
      ],
      "name": "prepForMigrationOf",
      "outputs": [],
      "stateMutability": "nonpayable",
      "type": "function"
    },
    {
      "inputs": [],
      "name": "projects",
      "outputs": [
        {
          "internalType": "contract IJBProjects",
          "name": "",
          "type": "address"
        }
      ],
      "stateMutability": "view",
      "type": "function"
    },
    {
      "inputs": [
        {
          "internalType": "uint256",
          "name": "_projectId",
          "type": "uint256"
        }
      ],
      "name": "queuedFundingCycleOf",
      "outputs": [
        {
          "components": [
            {
              "internalType": "uint256",
              "name": "number",
              "type": "uint256"
            },
            {
              "internalType": "uint256",
              "name": "configuration",
              "type": "uint256"
            },
            {
              "internalType": "uint256",
              "name": "basedOn",
              "type": "uint256"
            },
            {
              "internalType": "uint256",
              "name": "start",
              "type": "uint256"
            },
            {
              "internalType": "uint256",
              "name": "duration",
              "type": "uint256"
            },
            {
              "internalType": "uint256",
              "name": "weight",
              "type": "uint256"
            },
            {
              "internalType": "uint256",
              "name": "discountRate",
              "type": "uint256"
            },
            {
              "internalType": "contract IJBFundingCycleBallot",
              "name": "ballot",
              "type": "address"
            },
            {
              "internalType": "uint256",
              "name": "metadata",
              "type": "uint256"
            }
          ],
          "internalType": "struct JBFundingCycle",
          "name": "fundingCycle",
          "type": "tuple"
        },
        {
          "components": [
            {
              "components": [
                {
                  "internalType": "bool",
                  "name": "allowSetTerminals",
                  "type": "bool"
                },
                {
                  "internalType": "bool",
                  "name": "allowSetController",
                  "type": "bool"
                },
                {
                  "internalType": "bool",
                  "name": "pauseTransfers",
                  "type": "bool"
                }
              ],
              "internalType": "struct JBGlobalFundingCycleMetadata",
              "name": "global",
              "type": "tuple"
            },
            {
              "internalType": "uint256",
              "name": "reservedRate",
              "type": "uint256"
            },
            {
              "internalType": "uint256",
              "name": "redemptionRate",
              "type": "uint256"
            },
            {
              "internalType": "uint256",
              "name": "ballotRedemptionRate",
              "type": "uint256"
            },
            {
              "internalType": "bool",
              "name": "pausePay",
              "type": "bool"
            },
            {
              "internalType": "bool",
              "name": "pauseDistributions",
              "type": "bool"
            },
            {
              "internalType": "bool",
              "name": "pauseRedeem",
              "type": "bool"
            },
            {
              "internalType": "bool",
              "name": "pauseBurn",
              "type": "bool"
            },
            {
              "internalType": "bool",
              "name": "allowMinting",
              "type": "bool"
            },
            {
              "internalType": "bool",
              "name": "allowTerminalMigration",
              "type": "bool"
            },
            {
              "internalType": "bool",
              "name": "allowControllerMigration",
              "type": "bool"
            },
            {
              "internalType": "bool",
              "name": "holdFees",
              "type": "bool"
            },
            {
              "internalType": "bool",
              "name": "preferClaimedTokenOverride",
              "type": "bool"
            },
            {
              "internalType": "bool",
              "name": "useTotalOverflowForRedemptions",
              "type": "bool"
            },
            {
              "internalType": "bool",
              "name": "useDataSourceForPay",
              "type": "bool"
            },
            {
              "internalType": "bool",
              "name": "useDataSourceForRedeem",
              "type": "bool"
            },
            {
              "internalType": "address",
              "name": "dataSource",
              "type": "address"
            },
            {
              "internalType": "uint256",
              "name": "metadata",
              "type": "uint256"
            }
          ],
          "internalType": "struct JBFundingCycleMetadata",
          "name": "metadata",
          "type": "tuple"
        }
      ],
      "stateMutability": "view",
      "type": "function"
    },
    {
      "inputs": [
        {
          "internalType": "uint256",
          "name": "_projectId",
          "type": "uint256"
        },
        {
          "components": [
            {
              "internalType": "uint256",
              "name": "duration",
              "type": "uint256"
            },
            {
              "internalType": "uint256",
              "name": "weight",
              "type": "uint256"
            },
            {
              "internalType": "uint256",
              "name": "discountRate",
              "type": "uint256"
            },
            {
              "internalType": "contract IJBFundingCycleBallot",
              "name": "ballot",
              "type": "address"
            }
          ],
          "internalType": "struct JBFundingCycleData",
          "name": "_data",
          "type": "tuple"
        },
        {
          "components": [
            {
              "components": [
                {
                  "internalType": "bool",
                  "name": "allowSetTerminals",
                  "type": "bool"
                },
                {
                  "internalType": "bool",
                  "name": "allowSetController",
                  "type": "bool"
                },
                {
                  "internalType": "bool",
                  "name": "pauseTransfers",
                  "type": "bool"
                }
              ],
              "internalType": "struct JBGlobalFundingCycleMetadata",
              "name": "global",
              "type": "tuple"
            },
            {
              "internalType": "uint256",
              "name": "reservedRate",
              "type": "uint256"
            },
            {
              "internalType": "uint256",
              "name": "redemptionRate",
              "type": "uint256"
            },
            {
              "internalType": "uint256",
              "name": "ballotRedemptionRate",
              "type": "uint256"
            },
            {
              "internalType": "bool",
              "name": "pausePay",
              "type": "bool"
            },
            {
              "internalType": "bool",
              "name": "pauseDistributions",
              "type": "bool"
            },
            {
              "internalType": "bool",
              "name": "pauseRedeem",
              "type": "bool"
            },
            {
              "internalType": "bool",
              "name": "pauseBurn",
              "type": "bool"
            },
            {
              "internalType": "bool",
              "name": "allowMinting",
              "type": "bool"
            },
            {
              "internalType": "bool",
              "name": "allowTerminalMigration",
              "type": "bool"
            },
            {
              "internalType": "bool",
              "name": "allowControllerMigration",
              "type": "bool"
            },
            {
              "internalType": "bool",
              "name": "holdFees",
              "type": "bool"
            },
            {
              "internalType": "bool",
              "name": "preferClaimedTokenOverride",
              "type": "bool"
            },
            {
              "internalType": "bool",
              "name": "useTotalOverflowForRedemptions",
              "type": "bool"
            },
            {
              "internalType": "bool",
              "name": "useDataSourceForPay",
              "type": "bool"
            },
            {
              "internalType": "bool",
              "name": "useDataSourceForRedeem",
              "type": "bool"
            },
            {
              "internalType": "address",
              "name": "dataSource",
              "type": "address"
            },
            {
              "internalType": "uint256",
              "name": "metadata",
              "type": "uint256"
            }
          ],
          "internalType": "struct JBFundingCycleMetadata",
          "name": "_metadata",
          "type": "tuple"
        },
        {
          "internalType": "uint256",
          "name": "_mustStartAtOrAfter",
          "type": "uint256"
        },
        {
          "components": [
            {
              "internalType": "uint256",
              "name": "group",
              "type": "uint256"
            },
            {
              "components": [
                {
                  "internalType": "bool",
                  "name": "preferClaimed",
                  "type": "bool"
                },
                {
                  "internalType": "bool",
                  "name": "preferAddToBalance",
                  "type": "bool"
                },
                {
                  "internalType": "uint256",
                  "name": "percent",
                  "type": "uint256"
                },
                {
                  "internalType": "uint256",
                  "name": "projectId",
                  "type": "uint256"
                },
                {
                  "internalType": "address payable",
                  "name": "beneficiary",
                  "type": "address"
                },
                {
                  "internalType": "uint256",
                  "name": "lockedUntil",
                  "type": "uint256"
                },
                {
                  "internalType": "contract IJBSplitAllocator",
                  "name": "allocator",
                  "type": "address"
                }
              ],
              "internalType": "struct JBSplit[]",
              "name": "splits",
              "type": "tuple[]"
            }
          ],
          "internalType": "struct JBGroupedSplits[]",
          "name": "_groupedSplits",
          "type": "tuple[]"
        },
        {
          "components": [
            {
              "internalType": "contract IJBPaymentTerminal",
              "name": "terminal",
              "type": "address"
            },
            {
              "internalType": "address",
              "name": "token",
              "type": "address"
            },
            {
              "internalType": "uint256",
              "name": "distributionLimit",
              "type": "uint256"
            },
            {
              "internalType": "uint256",
              "name": "distributionLimitCurrency",
              "type": "uint256"
            },
            {
              "internalType": "uint256",
              "name": "overflowAllowance",
              "type": "uint256"
            },
            {
              "internalType": "uint256",
              "name": "overflowAllowanceCurrency",
              "type": "uint256"
            }
          ],
          "internalType": "struct JBFundAccessConstraints[]",
          "name": "_fundAccessConstraints",
          "type": "tuple[]"
        },
        {
          "internalType": "string",
          "name": "_memo",
          "type": "string"
        }
      ],
      "name": "reconfigureFundingCyclesOf",
      "outputs": [
        {
          "internalType": "uint256",
          "name": "configuration",
          "type": "uint256"
        }
      ],
      "stateMutability": "nonpayable",
      "type": "function"
    },
    {
      "inputs": [
        {
          "internalType": "uint256",
          "name": "",
          "type": "uint256"
        }
      ],
      "name": "reservedTokenBalanceOf",
      "outputs": [
        {
          "internalType": "uint256",
          "name": "",
          "type": "uint256"
        }
      ],
      "stateMutability": "view",
      "type": "function"
    },
    {
      "inputs": [],
      "name": "splitsStore",
      "outputs": [
        {
          "internalType": "contract IJBSplitsStore",
          "name": "",
          "type": "address"
        }
      ],
      "stateMutability": "view",
      "type": "function"
    },
    {
      "inputs": [
        {
          "internalType": "bytes4",
          "name": "_interfaceId",
          "type": "bytes4"
        }
      ],
      "name": "supportsInterface",
      "outputs": [
        {
          "internalType": "bool",
          "name": "",
          "type": "bool"
        }
      ],
      "stateMutability": "view",
      "type": "function"
    },
    {
      "inputs": [],
      "name": "tokenStore",
      "outputs": [
        {
          "internalType": "contract IJBTokenStore",
          "name": "",
          "type": "address"
        }
      ],
      "stateMutability": "view",
      "type": "function"
    },
    {
      "inputs": [
        {
          "internalType": "uint256",
          "name": "_projectId",
          "type": "uint256"
        }
      ],
      "name": "totalOutstandingTokensOf",
      "outputs": [
        {
          "internalType": "uint256",
          "name": "",
          "type": "uint256"
        }
      ],
      "stateMutability": "view",
      "type": "function"
    }
  ],
  "bytecode": {
    "object": "0x610140346200027457601f620057b638819003918201601f19168301916001600160401b03831184841017620002795780849260c094604052833981010312620002745780516001600160a01b0391828216820362000274576020810151918383168303620002745760408201519284841684036200027457606083015191858316830362000274576080840151938685168503620002745760a001519586168603620002745760805260a05261012092835260c05260e052610100918252604051906155269283620002908439608051838181611aa701528181612234015281816122f60152818161296c01528181612a090152818161310c015281816131aa015281816151600152615205015260a0518381816103cb0152818161100e01528181611d5601528181611e5c0152818161261e015281816133e1015281816148120152614e95015260c05183818161076a0152818161142d01528181611b3901528181611e06015281816124a5015281816125af015281816126f501528181612b6401528181612e82015281816132cd0152818161345d0152818161386a015261479d015260e05183818161026d015281816120200152818161256b01528181612ed9015281816148c601528181614b0201528181614b6e0152614c400152518281816107ab015281816108320152818161146e015281816114f301528181612adb015281816138ab0152818161393201526149d30152518181816101f601528181611049015281816110910152818161171c0152818161178801528181611eb00152818161214f0152818161266a01528181612e020152818161349c015281816134e501528181613b570152613bc50152f35b600080fd5b634e487b7160e01b600052604160045260246000fdfe608080604052600436101561001357600080fd5b600090813560e01c90816301ffc9a714613e9e57508063111d861b1461330d57806312b37b14146132675780631665bc0f14612d885780631f51045314612aff5780632bdfe00414612abb5780633e8c615b14612a94578063405b84fa146125d3578063557e71551461258f578063619306301461254b5780637a81b562146124e55780638776c499146124585780638ae9c07b14611d7a5780638b79543c14611d36578063a40bb9c714611acb578063ad007d6314611a87578063b3c5267314610e3d578063badbdf281461031e578063bdd504d7146102f4578063c18f2d311461021a578063c41c2f24146101d6578063e867c59c146101855763e8db21301461011e57600080fd5b346101825760409061012f366142af565b9492849291945281602052828220908252602052206001600160a01b0380921660005260205260406000209116600052602052604080600020548151906001600160e81b038116825260e81c6020820152f35b80fd5b5034610182576040600319360112610182576024359067ffffffffffffffff82116101825760206101ce6101c66101bf3660048701614265565b3691614200565b60043561477e565b604051908152f35b503461018257806003193601126101825760206040516001600160a01b037f0000000000000000000000000000000000000000000000000000000000000000168152f35b5034610182576020908160031936011261018257600435604051907f75b0d9cd00000000000000000000000000000000000000000000000000000000825280600483015283826024816001600160a01b037f0000000000000000000000000000000000000000000000000000000000000000165afa9182156102e95783926102b3575b50826040916101ce9452600285522054906144ad565b9091508381813d83116102e2575b6102cb8183614065565b810103126102dd5751906101ce61029d565b600080fd5b503d6102c1565b6040513d85823e3d90fd5b50346101825760206003193601126101825760406020916004358152600283522054604051908152f35b5034610182576103a06003193601126101825760806023193601126101825761028060a3193601126101825767ffffffffffffffff9061034435828111610e395761036d903690600401613fd1565b9261036435818111610e35576103879036906004016142e8565b92909161038435908111610e31576103a3903690600401614265565b9590946040516331a9108f60e11b815260043560048201526020816024816001600160a01b037f0000000000000000000000000000000000000000000000000000000000000000165afa918215610e255761042295949261041a94926104139291610df6575b5060043590615108565b36916144f1565b9236916140ca565b6000936127106101043511610dcc576127106101243511610da2576127106101443511610d785760405161045581614048565b606060a319360112610d745760405161046d8161402c565b60a4358015158103610c3a57815260c435151560c43503610bf35760c435602082015260e435151560e43503610bf35760e43560408201528082526101043560208301526101243560408301526101443560608301526101643515156101643503610bf3576101643560808301526101843515156101843503610bf3576101843560a08301526101a4358015158103610c3a5760c08301526101c43515156101c43503610bf3576101c43560e08301526101e4358015158103610c3a57610100830152610204358015158103610c3a57610120830152610224358015158103610c3a57610140830152610244358015158103610c3a57610160830152610264358015158103610c3a57610180830152610284358015158103610c3a576101a08301526102a43515156102a43503610bf3576102a4356101c08301526102c43515156102c43503610bf3576102c4356101e08301526001600160a01b036102e435166102e43503610bf3576102e4356102008301526103043561022083015286908051610d6b575b6020810151610d60575b60400151610d58575b61271061012435810311610d4457606082015161271003906127108211610d3057906102209160018260381b610124356127100360281b6101043560181b8460081b17171717916080850151610cfd575b505060a0830151610cec575b60c0830151610cdb575b60e0830151610cca575b610100830151610cb9575b610120830151610ca8575b610140830151610c97575b610160830151610c86575b610180830151610c74575b6101a0830151610c62575b6101c0830151610c50575b6101e0830151610c3e575b7e0ffffffffffffffffffffffffffffffffffffffff00000000000000000000061020084015160541b161791015160f41b17926040519363a249d42560e01b855260043560048601526024356024860152604435604486015260643560648601526084356001600160a01b038116809103610c3a57608486015260a48501526103243560c48501526101208460e481896001600160a01b037f0000000000000000000000000000000000000000000000000000000000000000165af1938415610b27578694610bf7575b506020840151906001600160a01b037f0000000000000000000000000000000000000000000000000000000000000000163b15610bf35790869060405192839163796d225b60e11b83526064830190600435600485015260248401526060604484015281518091526084830190602060848260051b86010193019185905b828210610b32575050505081900381836001600160a01b037f0000000000000000000000000000000000000000000000000000000000000000165af18015610b2757610b14575b50845b8251811015610ab55761087581846150de565b51906001600160e81b03604083015111610a8b5762ffffff606083015111610a61576001600160e81b03608083015111610a375762ffffff60a083015111610a0d578160406001930151806109b3575b50608081015180610959575b50602086015186519060a0604051936001600160a01b0381511685526001600160a01b036020820151166020860152604081015160408601526060810151606086015260808101516080860152015160a08401523360c08401527f8a1c80ab9ab05d6bf02096dd94aa2fa05a9de212e793835a50dd5ffe8d8cbab860e060043594a401610862565b60a082015160e81b176004358952836020526040892060208801518a52602052604089206001600160a01b0383511660005260205260406000206001600160a01b03602084015116600052602052604060002055386108d1565b606082015160e81b176004358952886020526040892060208801518a52602052604089206001600160a01b0383511660005260205260406000206001600160a01b03602084015116600052602052604060002055386108c5565b60046040517fd9b93c25000000000000000000000000000000000000000000000000000000008152fd5b60046040517f57302783000000000000000000000000000000000000000000000000000000008152fd5b60046040517f9583faed000000000000000000000000000000000000000000000000000000008152fd5b60046040517fa9b8fbcf000000000000000000000000000000000000000000000000000000008152fd5b6020827f1a08ad37c93969a586fd0605d240c17113b20a9c9ac3847595d0ab425225f6af878388015192610b03604051928392868452600435888501526080604085015260808401916144d0565b3360608301520390a1604051908152f35b610b2090959195614002565b933861085f565b6040513d88823e3d90fd5b929550929093608319908203018252845160206060816040850193805186520151936040838201528451809452019201908c905b808210610b87575050506020806001929601920192019285938b9593610818565b909192602060e082610be8600194885160c0908051151583526020810151151560208401526040810151604084015260608101516060840152816001600160a01b039182608082015116608086015260a081015160a0860152015116910152565b019401920190610b66565b8680fd5b909350610120903d61012011610c32575b610c128282614065565b610120818381010312610bf357610c2b9181019061441a565b923861079a565b3d9150610c08565b8780fd5b6a0800000000000000000000176106d0565b6a0400000000000000000000176106c5565b6a0200000000000000000000176106ba565b6a0100000000000000000000176106af565b6980000000000000000000176106a4565b694000000000000000000017610699565b69200000000000000000001761068e565b691000000000000000000017610683565b690800000000000000000017610678565b69040000000000000000001761066e565b690200000000000000000017610664565b6901000000000000000001925060381b90610124356127100360281b906101043560181b9060081b171717173880610658565b602488634e487b7160e01b81526011600452fd5b602487634e487b7160e01b81526011600452fd5b600417610607565b6002909117906105fe565b600191506105f4565b8580fd5b60046040517fddbf1bc6000000000000000000000000000000000000000000000000000000008152fd5b60046040517f9db9ee93000000000000000000000000000000000000000000000000000000008152fd5b60046040517f56232895000000000000000000000000000000000000000000000000000000008152fd5b610e18915060203d602011610e1e575b610e108183614065565b810190614745565b38610409565b503d610e06565b604051903d90823e3d90fd5b8480fd5b8380fd5b5080fd5b503461018257600319906103e08236011261018257610e5a6140b4565b9167ffffffffffffffff60243511610e3957604090602435360301126101825760807fffffffffffffffffffffffffffffffffffffffffffffffffffffffffffffffbc3601126101825761028060c319360112610182576103643567ffffffffffffffff8111610e3957610ed2903690600401613fd1565b92906103843567ffffffffffffffff8111610e3557610ef59036906004016142e8565b91906103a43567ffffffffffffffff8111610d7457610f1890369060040161419a565b9167ffffffffffffffff6103c43511610d7457610f3b366103c435600401614247565b966001600160a01b03604051967f666d87a000000000000000000000000000000000000000000000000000000000885216600487015260406024870152602435600401357fffffffffffffffffffffffffffffffffffffffffffffffffffffffffffffffdd602435360301811215610c3a576024350167ffffffffffffffff600482013511610c3a57600481013536036024820113610c3a578680610ff66020936040604484015260848301906024600482013591016144d0565b602480350135606483015203818a6001600160a01b037f0000000000000000000000000000000000000000000000000000000000000000165af1958615611a7c578796611a48575b506001600160a01b037f0000000000000000000000000000000000000000000000000000000000000000163b15610bf3576040516338a73f9960e11b8152600481018790523060248201528781604481837f00000000000000000000000000000000000000000000000000000000000000006001600160a01b03165af180156117e757908891611a34575b50506110e392916110db9136916144f1565b9336916140ca565b906000956127106101243511610dcc576127106101443511610da2576127106101643511610d785760405161111781614048565b606060c319360112610c3a5760405161112f8161402c565b60c43580151581036118fa57815260e435151560e435036118b35760e435602082015261010435151561010435036118b3576101043560408201528082526101243560208301526101443560408301526101643560608301526101843580151581036118fa5760808301526101a43515156101a435036118b3576101a43560a08301526101c43515156101c435036118b3576101c43560c08301526101e43515156101e435036118b3576101e43560e08301526102043580151581036118fa576101008301526102243580151581036118fa576101208301526102443580151581036118fa576101408301526102643580151581036118fa576101608301526102843580151581036118fa576101808301526102a43580151581036118fa576101a08301526102c43515156102c435036118b3576102c4356101c08301526102e43515156102e435036118b3576102e4356101e08301526001600160a01b03610304351661030435036118b357610304356102008301526103243561022083015288908051611a2b575b6020810151611a20575b60400151611a18575b61271061014435810311611a04576060820151612710039061271082116119f057906102209160018260381b610144356127100360281b6101243560181b8460081b171717179160808501516119bd575b505060a08301516119ac575b60c083015161199b575b60e083015161198a575b610100830151611979575b610120830151611968575b610140830151611957575b610160830151611946575b610180830151611934575b6101a0830151611922575b6101c0830151611910575b6101e08301516118fe575b7e0ffffffffffffffffffffffffffffffffffffffff00000000000000000000061020084015160541b161791015160f41b17936040519463a249d42560e01b865286600487015260443560248701526064356044870152608435606487015260a4356001600160a01b0381168091036118fa57608487015260a48601526103443560c48601526101208560e4818b6001600160a01b037f0000000000000000000000000000000000000000000000000000000000000000165af19485156117e75788956118b7575b506020850151906001600160a01b037f0000000000000000000000000000000000000000000000000000000000000000163b156118b35790889060405192839163796d225b60e11b835260648301908a600485015260248401526060604484015281518091526084830190602060848260051b86010193019185905b8282106117f2575050505081900381836001600160a01b037f0000000000000000000000000000000000000000000000000000000000000000165af180156117e7576117d4575b50865b83518110156116be5761153681856150de565b51906001600160e81b0380604084015111610a8b5762ffffff9081606085015111610a6157608084015111610a375760a083015111610a0d5786826040600194015180611666575b5060808101518061160e575b5060208801517f8a1c80ab9ab05d6bf02096dd94aa2fa05a9de212e793835a50dd5ffe8d8cbab860e08a519360a0604051916001600160a01b0381511683526001600160a01b036020820151166020840152604081015160408401526060810151606084015260808101516080840152015160a08201523360c0820152a401611523565b60a082015160e81b17828c528460205260408c2060208a01518d5260205260408c206001600160a01b0383511660005260205260406000206001600160a01b036020840151166000526020526040600020553861158a565b606082015160e81b17828c528b60205260408c2060208a01518d5260205260408c206001600160a01b0383511660005260205260406000206001600160a01b036020840151166000526020526040600020553861157e565b508490866020860151938051611712575b6020847ff3e6948ba8b32d557363ea08470121c47c0127659aed09320812174d373afef2878661170760405192839286339285614712565b0390a1604051908152f35b6001600160a01b037f0000000000000000000000000000000000000000000000000000000000000000163b15610e39578161177b91604051809381927f821b9fd80000000000000000000000000000000000000000000000000000000083528860048401614685565b0381836001600160a01b037f0000000000000000000000000000000000000000000000000000000000000000165af180156117c957156116cf576117bf8291614002565b61018257806116cf565b6040513d84823e3d90fd5b6117e090979197614002565b9538611520565b6040513d8a823e3d90fd5b9295509290936083199082030182528c85516020606081604086019380518752015194604083820152855180945201930191905b808210611847575050506020806001929601920192019285938d95936114d9565b909192602060e0826118a8600194885160c0908051151583526020810151151560208401526040810151604084015260608101516060840152816001600160a01b039182608082015116608086015260a081015160a0860152015116910152565b019401920190611826565b8880fd5b909450610120903d610120116118f2575b6118d28282614065565b6101208183810103126118b3576118eb9181019061441a565b933861145d565b3d91506118c8565b8980fd5b6a080000000000000000000017611395565b6a04000000000000000000001761138a565b6a02000000000000000000001761137f565b6a010000000000000000000017611374565b698000000000000000000017611369565b69400000000000000000001761135e565b692000000000000000000017611353565b691000000000000000000017611348565b69080000000000000000001761133d565b690400000000000000000017611333565b690200000000000000000017611329565b6901000000000000000001925060381b90610144356127100360281b906101243560181b9060081b17171717388061131d565b60248a634e487b7160e01b81526011600452fd5b602489634e487b7160e01b81526011600452fd5b6004176112cc565b6002909117906112c3565b600191506112b9565b611a3d90614002565b610bf35786386110c9565b9095506020813d602011611a74575b81611a6460209383614065565b810103126102dd5751943861103e565b3d9150611a57565b6040513d89823e3d90fd5b503461018257806003193601126101825760206040516001600160a01b037f0000000000000000000000000000000000000000000000000000000000000000168152f35b503461018257604060031936011261018257611ae5614319565b50611aee61438f565b50604051907f669e48aa000000000000000000000000000000000000000000000000000000008252600435600483015260243560248301526101209081836044816001600160a01b037f0000000000000000000000000000000000000000000000000000000000000000165afa928315611d29578193611ce9575b6103a084611ce785611b7a83615278565b90611be26040518095805182526020810151602083015260408101516040830152606081015160608301526080810151608083015260a081015160a083015260c081015160c08301526001600160a01b0360e08201511660e083015261010080910151910152565b83019061026090604081518051151585526020810151151560208601520151151560408401526020810151606084015260408101516080840152606081015160a08401526080810151151560c084015260a0810151151560e084015260c081015115159061010091828501526001600160a01b0360e082015115159261012093848701528201511515926101409384870152820151151592610160938487015282015115159261018093848701528201511515926101a093848701528201511515926101c093848701528201511515926101e0938487015282015115159261020093848701528201511515926102209384870152820151166102408501520151910152565bf35b909250813d8311611d22575b611cff8183614065565b81019282828503126101825750611d1c6103a093611ce79261441a565b92611b69565b503d611cf5565b50604051903d90823e3d90fd5b503461018257806003193601126101825760206040516001600160a01b037f0000000000000000000000000000000000000000000000000000000000000000168152f35b50346101825760c0600319360112610182576001600160a01b0360443516604435036102dd5760643567ffffffffffffffff8111610e3957611dc0903690600401614265565b611dc8614293565b60a435151560a435036102dd5783926024351561242e57604051916321d1336160e11b83526004356004840152610120836024816001600160a01b037f0000000000000000000000000000000000000000000000000000000000000000165afa928315610b275786936123f0575b506040516331a9108f60e11b815260043560048201526020816024816001600160a01b037f0000000000000000000000000000000000000000000000000000000000000000165afa908115611a7c5787916123d1575b50604051636e49181f60e01b815260048035908201523360248201526020816044817f00000000000000000000000000000000000000000000000000000000000000006001600160a01b03165afa9081156117e7578891612397575b50801561237d575b159081612369575b816122b3575b816121f2575b506121c857600180610100850151604c1c1614158061212b575b80612110575b6120e65760a435156120df5761ffff61010084015160181c16925b8115156001036120ca57505b612710808403611ffb575b5050611f859060209583611fcf575b50604051936024358552858786015260a0604086015260a08501916144d0565b9060608301523360808301527fe6fee9c572244c0c2238c3112ac12d411750a7ee00eeebd32521c3e5a666c14b60043592806001600160a01b0360443516930390a3604051908152f35b611ff36040611fe088602435614771565b92600435815260028a52209182546144ad565b905538611f65565b9094508281039081116120b65761201586916024356153e1565b946001600160a01b037f00000000000000000000000000000000000000000000000000000000000000001690813b156120b2576040516333b774f960e21b8152604480356001600160a01b031660048084019190915235602483015281018890529015156064820152919082908183816084810103925af18015610b275761209e575b80611f56565b6120a88691614002565b610e315738612098565b8280fd5b602486634e487b7160e01b81526011600452fd5b600191506101008291015160501c1614611f4b565b8592611f3f565b60046040517f9d0ca8fd000000000000000000000000000000000000000000000000000000008152fd5b506001600160a01b0361010084015160541c16331415611f24565b50604051636e49181f60e01b815260048035908201523360248201526020816044817f00000000000000000000000000000000000000000000000000000000000000006001600160a01b03165afa908115611a7c57879161218e575b5015611f1e565b90506020813d6020116121c0575b816121a960209383614065565b81010312610bf3576121ba90614764565b38612187565b3d915061219c565b60046040517f075fd2b1000000000000000000000000000000000000000000000000000000008152fd5b90506001600160a01b036040519163c161c93f60e01b835233600484015216602482015260006044820152600960648201526020816084816001600160a01b037f0000000000000000000000000000000000000000000000000000000000000000165afa9081156122a75760009161226d575b501538611f04565b906020823d60201161229f575b8161228760209383614065565b81010312610182575061229990614764565b38612265565b3d915061227a565b6040513d6000823e3d90fd5b905060405163c161c93f60e01b81523360048201526001600160a01b03821660248201526004356044820152600960648201526020816084816001600160a01b037f0000000000000000000000000000000000000000000000000000000000000000165afa9081156122a75760009161232f575b501590611efe565b906020823d602011612361575b8161234960209383614065565b81010312610182575061235b90614764565b38612327565b3d915061233c565b336001600160a01b03821614159150611ef8565b506001600160a01b0361010085015160541c163314611ef0565b90506020813d6020116123c9575b816123b260209383614065565b81010312610c3a576123c390614764565b38611ee8565b3d91506123a5565b6123ea915060203d602011610e1e57610e108183614065565b38611e8c565b9092506101203d61012011612427575b61240a8183614065565b810161012082820312610bf3576124209161441a565b9138611e36565b503d612400565b60046040517f9fd13e54000000000000000000000000000000000000000000000000000000008152fd5b503461018257602060031936011261018257612472614319565b5061247b61438f565b50604051906321d1336160e11b825260043560048301526101209081836024816001600160a01b037f0000000000000000000000000000000000000000000000000000000000000000165afa928315611d29578193611ce9576103a084611ce785611b7a83615278565b5034610182576040906124f7366142af565b949284929194526001602052828220908252602052206001600160a01b0380921660005260205260406000209116600052602052604080600020548151906001600160e81b038116825260e81c6020820152f35b503461018257806003193601126101825760206040516001600160a01b037f0000000000000000000000000000000000000000000000000000000000000000168152f35b503461018257806003193601126101825760206040516001600160a01b037f0000000000000000000000000000000000000000000000000000000000000000168152f35b50346101825760406003193601126101825760043560248035906001600160a01b0390818316809303610e3157604051916331a9108f60e11b835284600484015260209283818481857f0000000000000000000000000000000000000000000000000000000000000000165afa8015611a7c5782918891612a77575b50168033141590816129da575b8161293c575b506121c857807f000000000000000000000000000000000000000000000000000000000000000016906040517f5dd8f6aa00000000000000000000000000000000000000000000000000000000815286600482015284818581865afa9081156117e757889161291f575b5081309116036128f55760405180916321d1336160e11b825287600483015281856101209384937f0000000000000000000000000000000000000000000000000000000000000000165afa9182156117e75788926128b6575b5050600161010081920151604e1c160361288c578591858352600284526040832054612840575b50833b15610e39576040517f3e8c615b00000000000000000000000000000000000000000000000000000000815260048101869052306024820152828160448183895af19081156102e957839161282c575b5050803b15610e39576040516338a73f9960e11b8152600481018690526001600160a01b03851660248201529082908290604490829084905af180156117c957612818575b50507f01f954abace731a88ab86e71186040cc2be49fe517ea06bc0d24f25b82b834569160409182519182523390820152a280f35b61282190614002565b610e355783386127e3565b61283590614002565b610e3957813861279e565b6040519192508382019067ffffffffffffffff8211838310176128785750869291612871916040528381528661477e565b503861274c565b634e487b7160e01b60005260416004526000fd5b60046040517f46ace3f9000000000000000000000000000000000000000000000000000000008152fd5b908092503d83116128ee575b6128cc8183614065565b81019181830312610c3a576101006128e7600193849361441a565b9250612725565b503d6128c2565b60046040517fe0a0a87d000000000000000000000000000000000000000000000000000000008152fd5b6129369150853d8711610e1e57610e108183614065565b386126cc565b90506040519063c161c93f60e01b82523360048301528382015260006044820152600360648201528381608481857f0000000000000000000000000000000000000000000000000000000000000000165afa9081156122a7576000916129a5575b501538612662565b908482813d83116129d3575b6129bb8183614065565b8101031261018257506129cd90614764565b3861299d565b503d6129b1565b905060405163c161c93f60e01b81523360048201528184820152866044820152600360648201528481608481867f0000000000000000000000000000000000000000000000000000000000000000165afa9081156122a757600091612a42575b50159061265c565b908582813d8311612a70575b612a588183614065565b810103126101825750612a6a90614764565b38612a3a565b503d612a4e565b612a8e9150853d8711610e1e57610e108183614065565b3861264f565b5034610182576040600319360112610182576024356001600160a01b038116036102dd5780f35b503461018257806003193601126101825760206040516001600160a01b037f0000000000000000000000000000000000000000000000000000000000000000168152f35b503461018257602060031936011261018257612b19614319565b50612b2261438f565b506040517febc8ca1f00000000000000000000000000000000000000000000000000000000815260043560048201526101409081816024816001600160a01b037f0000000000000000000000000000000000000000000000000000000000000000165afa9081156102e95783928492612d3d575b5050612d13612ba483615278565b612c0b6040518095805182526020810151602083015260408101516040830152606081015160608301526080810151608083015260a081015160a083015260c081015160c08301526001600160a01b0360e08201511660e083015261010080910151910152565b61012084019061026090604081518051151585526020810151151560208601520151151560408401526020810151606084015260408101516080840152606081015160a08401526080810151151560c084015260a0810151151560e084015260c081015115159061010091828501526001600160a01b0360e082015115159261012093848701528201511515926101409384870152820151151592610160938487015282015115159261018093848701528201511515926101a093848701528201511515926101c093848701528201511515926101e0938487015282015115159261020093848701528201511515926102209384870152820151166102408501520151910152565b6003811015612d29576103c092506103a0820152f35b602483634e487b7160e01b81526021600452fd5b91509150803d8211612d81575b612d548184614065565b820190828203126120b257612d6c610120918361441a565b9101519060038210156120b257903880612b96565b503d612d4a565b50346101825760a060031936011261018257612da26140b4565b6024359060443560643567ffffffffffffffff8111610e3157612dcc612e31913690600401614265565b612dd7939193614293565b604051636e49181f60e01b808252600482018990523360248301526020956001600160a01b039493927f00000000000000000000000000000000000000000000000000000000000000008616918890829081906044820190565b0381855afa90811561325c578c91613223575b501580613217575b80613179575b806130da575b6121c85785156130b0578a604051916321d1336160e11b83528b600484015261012080846024818b7f0000000000000000000000000000000000000000000000000000000000000000165afa9081156102e9578a948e9492613068575b5050600161010081920151604b1c16149384612fef575b50505050612fc5578890837f000000000000000000000000000000000000000000000000000000000000000016803b156120b2576040517f906ebd0f0000000000000000000000000000000000000000000000000000000081526001600160a01b038a166004820152602481018b905260448101879052911515606483015282908290608490829084905af180156117c957612fb1575b50507fdf04e13ee4fcd48a81ab2fd114757093740a3efa9b6475d86e05878b4c59d07994612fa2916060604051968796875286015260608501916144d0565b9433604084015216930390a380f35b612fba90614002565b610c3a578738612f63565b60046040517f78a48718000000000000000000000000000000000000000000000000000000008152fd5b6040519081526004810192909252336024830152909250829060449082905afa90811561305d578a91613028575b501585893880612ecc565b90508581813d8311613056575b61303f8183614065565b810103126118fa5761305090614764565b3861301d565b503d613035565b6040513d8c823e3d90fd5b9350935050823d84116130a9575b6130808184614065565b820192828403126130a55760018061010061309e8f95968d9761441a565b9250612eb5565b8c80fd5b503d613076565b60046040517f7b38547b000000000000000000000000000000000000000000000000000000008152fd5b5060405163c161c93f60e01b8152336004820152858a16602482015260006044820152600a60648201528781608481897f0000000000000000000000000000000000000000000000000000000000000000165afa9081156122a757600091613144575b5015612e58565b908882813d8311613172575b61315a8183614065565b81010312610182575061316c90614764565b3861313d565b503d613150565b5060405163c161c93f60e01b8152336004820152858a1660248201528a6044820152600a60648201528781608481897f0000000000000000000000000000000000000000000000000000000000000000165afa9081156122a7576000916131e2575b5015612e52565b908882813d8311613210575b6131f88183614065565b81010312610182575061320a90614764565b386131db565b503d6131ee565b50848916331415612e4c565b90508781813d8311613255575b61323a8183614065565b810103126132515761324b90614764565b38612e44565b8b80fd5b503d613230565b6040513d8e823e3d90fd5b503461018257602060031936011261018257613281614319565b5061328a61438f565b50604051907f5c55007800000000000000000000000000000000000000000000000000000000825260043560048301526101209081836024816001600160a01b037f0000000000000000000000000000000000000000000000000000000000000000165afa928315611d29578193611ce9576103a084611ce785611b7a83615278565b5034610182576103c06003193601126101825760806023193601126101825761028060a3193601126101825767ffffffffffffffff9061034435828111610e395761335c903690600401613fd1565b9061036435848111610e355736602382011215610e35576133879036906024816004013591016140ca565b9061038435858111610e31576133a190369060040161419a565b946103a435908111610e31576133bb903690600401614247565b926040516331a9108f60e11b815260043560048201526020816024816001600160a01b037f0000000000000000000000000000000000000000000000000000000000000000165afa908115610b27579061341f918791610df6575060043590615108565b6040517f2cee6deb00000000000000000000000000000000000000000000000000000000815260043560048201526020816024816001600160a01b037f0000000000000000000000000000000000000000000000000000000000000000165afa908115610b27578691613e6c575b50613e42576001600160a01b037f0000000000000000000000000000000000000000000000000000000000000000163b15610e31576040516338a73f9960e11b815260048035908201523060248201528581604481837f00000000000000000000000000000000000000000000000000000000000000006001600160a01b03165af18015610b2757613e2b575b50906135279136916144f1565b916000946127106101043511610dcc576127106101243511610da2576127106101443511610d785760405161355b81614048565b606060a319360112610bf3576040516135738161402c565b60a43580151581036118b357815260c435151560c43503610c3a5760c435602082015260e435151560e43503610c3a5760e43560408201528082526101043560208301526101243560408301526101443560608301526101643580151581036118b35760808301526101843515156101843503610c3a576101843560a08301526101a43515156101a43503610c3a576101a43560c08301526101c43515156101c43503610c3a576101c43560e08301526101e43580151581036118b3576101008301526102043580151581036118b3576101208301526102243580151581036118b3576101408301526102443580151581036118b3576101608301526102643580151581036118b3576101808301526102843580151581036118b3576101a08301526102a43580151581036118b3576101c08301526102c43515156102c43503610c3a576102c4356101e08301526001600160a01b036102e435166102e43503610c3a576102e4356102008301526103043561022083015287908051613e22575b6020810151613e17575b60400151613e0f575b61271061012435810311610d3057606082015161271003906127108211611a0457906102209160018260381b610124356127100360281b6101043560181b8460081b17171717916080850151613ddc575b505060a0830151613dcb575b60c0830151613dba575b60e0830151613da9575b610100830151613d98575b610120830151613d87575b610140830151613d76575b610160830151613d65575b610180830151613d53575b6101a0830151613d41575b6101c0830151613d2f575b6101e0830151613d1d575b7e0ffffffffffffffffffffffffffffffffffffffff00000000000000000000061020084015160541b161791015160f41b17936040519463a249d42560e01b865260043560048701526024356024870152604435604487015260643560648701526084356001600160a01b0381168091036118b357608487015260a48601526103243560c48601526101208560e4818a6001600160a01b037f0000000000000000000000000000000000000000000000000000000000000000165af1948515611a7c578795613cda575b506020850151906001600160a01b037f0000000000000000000000000000000000000000000000000000000000000000163b15610c3a5790879060405192839163796d225b60e11b83526064830190600435600485015260248401526060604484015281518091526084830190602060848260051b86010193019185905b828210613c19575050505081900381836001600160a01b037f0000000000000000000000000000000000000000000000000000000000000000165af18015611a7c57613c06575b50855b8351811015613b045761397581856150de565b51906001600160e81b0380604084015111610a8b5762ffffff9081606085015111610a6157608084015111610a375760a083015111610a0d57816040600193015180613aaa575b50608081015180613a50575b50602087015187519060a0604051936001600160a01b0381511685526001600160a01b036020820151166020860152604081015160408601526060810151606086015260808101516080860152015160a08401523360c08401527f8a1c80ab9ab05d6bf02096dd94aa2fa05a9de212e793835a50dd5ffe8d8cbab860e060043594a401613962565b60a082015160e81b176004358a528360205260408a2060208901518b5260205260408a206001600160a01b0383511660005260205260406000206001600160a01b03602084015116600052602052604060002055386139c8565b606082015160e81b176004358a528960205260408a2060208901518b5260205260408a206001600160a01b0383511660005260205260406000206001600160a01b03602084015116600052602052604060002055386139bc565b50846020850151918051613b4d575b6020837f8621c3692c18d8ddd4cd26457d6a3e1d916e7001c4243a6c8dfa862a7e10a8236117078760405191829133906004358785614712565b6001600160a01b037f0000000000000000000000000000000000000000000000000000000000000000163b15610e395781613bb891604051809381927f821b9fd800000000000000000000000000000000000000000000000000000000835260043560048401614685565b0381836001600160a01b037f0000000000000000000000000000000000000000000000000000000000000000165af180156117c95715613b1357613bfc8291614002565b6101825780613b13565b613c1290969196614002565b943861395f565b929550929093608319908203018252845160206060816040850193805186520151936040838201528451809452019201908d905b808210613c6e575050506020806001929601920192019285938c9593613918565b909192602060e082613ccf600194885160c0908051151583526020810151151560208401526040810151604084015260608101516060840152816001600160a01b039182608082015116608086015260a081015160a0860152015116910152565b019401920190613c4d565b909450610120903d61012011613d15575b613cf58282614065565b610120818381010312610c3a57613d0e9181019061441a565b933861389a565b3d9150613ceb565b6a0800000000000000000000176137d0565b6a0400000000000000000000176137c5565b6a0200000000000000000000176137ba565b6a0100000000000000000000176137af565b6980000000000000000000176137a4565b694000000000000000000017613799565b69200000000000000000001761378e565b691000000000000000000017613783565b690800000000000000000017613778565b69040000000000000000001761376e565b690200000000000000000017613764565b6901000000000000000001925060381b90610124356127100360281b906101043560181b9060081b171717173880613758565b600417613707565b6002909117906136fe565b600191506136f4565b94613e3a613527939296614002565b94909161351a565b60046040517fffd0bc12000000000000000000000000000000000000000000000000000000008152fd5b90506020813d602011613e96575b81613e8760209383614065565b81010312610d7457513861348d565b3d9150613e7a565b905034610e39576020600319360112610e39576004357fffffffff0000000000000000000000000000000000000000000000000000000081168091036120b257602092507fc0213860000000000000000000000000000000000000000000000000000000008114908115613fa7575b8115613f7d575b8115613f53575b8115613f29575b5015158152f35b7f01ffc9a70000000000000000000000000000000000000000000000000000000091501438613f22565b7fad007d630000000000000000000000000000000000000000000000000000000081149150613f1b565b7f3e8c615b0000000000000000000000000000000000000000000000000000000081149150613f14565b7f7c5a29e60000000000000000000000000000000000000000000000000000000081149150613f0d565b9181601f840112156102dd5782359167ffffffffffffffff83116102dd576020808501948460051b0101116102dd57565b67ffffffffffffffff811161401657604052565b634e487b7160e01b600052604160045260246000fd5b6060810190811067ffffffffffffffff82111761401657604052565b610240810190811067ffffffffffffffff82111761401657604052565b90601f601f19910116810190811067ffffffffffffffff82111761401657604052565b67ffffffffffffffff81116140165760051b60200190565b35906001600160a01b03821682036102dd57565b600435906001600160a01b03821682036102dd57565b9291926140d682614088565b6040946140e586519283614065565b819584835260208093019160c08096028501948186116102dd57925b8584106141115750505050505050565b86848303126102dd578251908782019082821067ffffffffffffffff83111761418557889287928652614143876140a0565b81526141508388016140a0565b838201528587013586820152606080880135908201526080808801359082015260a08088013590820152815201930192614101565b60246000634e487b7160e01b81526041600452fd5b81601f820112156102dd578035916141b183614088565b926141bf6040519485614065565b808452602092838086019260051b8201019283116102dd578301905b8282106141e9575050505090565b8380916141f5846140a0565b8152019101906141db565b92919267ffffffffffffffff8211614016576040519161422a6020601f19601f8401160184614065565b8294818452818301116102dd578281602093846000960137010152565b9080601f830112156102dd5781602061426293359101614200565b90565b9181601f840112156102dd5782359167ffffffffffffffff83116102dd57602083818601950101116102dd57565b6084359081151582036102dd57565b359081151582036102dd57565b60031960809101126102dd5760043590602435906001600160a01b039060443582811681036102dd579160643590811681036102dd5790565b9181601f840112156102dd5782359167ffffffffffffffff83116102dd5760208085019460c085020101116102dd57565b60405190610120820182811067ffffffffffffffff82111761401657604052816101006000918281528260208201528260408201528260608201528260808201528260a08201528260c08201528260e08201520152565b6040519061437d8261402c565b60006040838281528260208201520152565b6040519061439c82614048565b816143a5614370565b81526102206000918260208201528260408201528260608201528260808201528260a08201528260c08201528260e08201528261010082015282610120820152826101408201528261016082015282610180820152826101a0820152826101c0820152826101e0820152826102008201520152565b80929161012091829103126102dd5760405190810181811067ffffffffffffffff821117614016576040528092805182526020810151602083015260408101516040830152606081015160608301526080810151608083015260a081015160a083015260c081015160c083015260e08101516001600160a01b03811681036102dd5760e083015261010080910151910152565b919082018092116144ba57565b634e487b7160e01b600052601160045260246000fd5b601f8260209493601f19938186528686013760008582860101520116010190565b929190926144fe84614088565b9060409461450e86519384614065565b829581845260208094019160051b8301928584116102dd5780925b8484106145395750505050505050565b67ffffffffffffffff84358181116102dd5783019084828a03126102dd57845191858301838110838211176141855786528035835288810135908282116102dd570189601f820112156102dd5780359061459282614088565b9261459f88519485614065565b8284528a8401908b60e0809502840101928d84116102dd57918d979593918d8098969401915b8383106145e357505050505083809550820152815201930192614529565b91849698508094919395979903126102dd57895185810181811084821117614185578b52614610846142a2565b81528d61461e8186016142a2565b908201528a8401358b82015260608085013590820152608091828501356001600160a01b039384821682036102dd5783015260a0808601359083015260c0918286013593841684036102dd578f9293889482015281520192018d979593918d9795936145c5565b9060609160408101918152602092816040858094015285518094520193019160005b8281106146b5575050505090565b83516001600160a01b0316855293810193928101926001016146a7565b919082519283825260005b8481106146fe575050601f19601f8460006020809697860101520116010190565b6020818301810151848301820152016146dd565b9261473e906060936001600160a01b0393979697865260208601526080604086015260808501906146d2565b9416910152565b908160209103126102dd57516001600160a01b03811681036102dd5790565b519081151582036102dd57565b919082039182116144ba57565b6040516321d1336160e11b8152600481018290529291610120846024817f00000000000000000000000000000000000000000000000000000000000000006001600160a01b03165afa9384156122a75760009461509d575b508160005260026020526040600020549360006040812055604051916331a9108f60e11b83528360048401526020836024816001600160a01b037f0000000000000000000000000000000000000000000000000000000000000000165afa9283156122a75760009361507c575b5060008661497c57506000925b836148bc575b6001600160a01b03906148b17fb12d7a78048433f69fe6d30145bf08aad8e82985b96e4db6d5c6a7e94d57086e9360208601519551966040519485941684528a6020850152604084015260a0606084015260a08301906146d2565b3360808301520390a4565b6001600160a01b037f00000000000000000000000000000000000000000000000000000000000000001690813b156102dd57600080926084604051809581936333b774f960e21b83526001600160a01b03871660048401528b60248401528a60448401528160648401525af180156122a7577fb12d7a78048433f69fe6d30145bf08aad8e82985b96e4db6d5c6a7e94d57086e936001600160a01b03936148b19261496d575b509350509050614856565b61497690614002565b38614962565b9160208197949296970151968492604051927f69e11cc50000000000000000000000000000000000000000000000000000000084528760048501528960248501526002604485015285846064816001600160a01b037f0000000000000000000000000000000000000000000000000000000000000000165afa938415610b27578694614f1a575b50855b8451811015614f0a578a89614a1b83886150de565b51614a2a60408201518c615482565b80614ac9575b917f990c1da5d280602f972ae3c429b6dc66a66569875205cc6e67f14e0b3fc4d2ac6101206001969593600295614ab6604051809360c0908051151583526020810151151560208401526040810151604084015260608101516060840152816001600160a01b039182608082015116608086015260a081015160a0860152015116910152565b60e082015233610100820152a401614a06565b98915091506001600160a01b0360c0830151161515600014614e67576001600160a01b0360c0830151165b825115156001600160a01b037f0000000000000000000000000000000000000000000000000000000000000000163b15614e41576040516333b774f960e21b81526001600160a01b039092166004830152602482018d9052604482018a905215156064820152898180608481010381836001600160a01b037f0000000000000000000000000000000000000000000000000000000000000000165af1801561305d578c928f94928b92614e58575b506001600160a01b0360c08401511680614bfd575b506101206001969593614bee600296947f990c1da5d280602f972ae3c429b6dc66a66569875205cc6e67f14e0b3fc4d2ac94614771565b9c939550939596505050614a30565b929450925050604051907fea78803f0000000000000000000000000000000000000000000000000000000082528c60048301526020826024816001600160a01b037f0000000000000000000000000000000000000000000000000000000000000000165afa918215614e4d578b92614e05575b50604051918260c081011067ffffffffffffffff60c085011117614df157906001600160a01b0383928f9460c00160405216825260208201908b82526040830192601284526060810194855260808101600281528760a0830152823b15614ded57610184928f95949260a0614d8c9188946040519a8b998a987f9d740bfa000000000000000000000000000000000000000000000000000000008a526001600160a01b0385511660048b01525160248a0152516044890152516064880152516084870152015160a485019060c0908051151583526020810151151560208401526040810151604084015260608101516060840152816001600160a01b039182608082015116608086015260a081015160a0860152015116910152565b5af1801561305d577f990c1da5d280602f972ae3c429b6dc66a66569875205cc6e67f14e0b3fc4d2ac8f92600196958f938d60029761012094614bee93614dde575b5094509496505093959650614bb7565b614de790614002565b38614dce565b8e80fd5b60248c634e487b7160e01b81526041600452fd5b9091506020813d602011614e45575b81614e2160209383614065565b81010312614e4157516001600160a01b0381168103614e41579038614c70565b8a80fd5b3d9150614e14565b6040513d8d823e3d90fd5b614e6190614002565b38614ba2565b60608201518015614eea57604051906331a9108f60e11b825260048201526020816024816001600160a01b037f0000000000000000000000000000000000000000000000000000000000000000165afa90811561305d578a91614ecb575b50614af4565b614ee4915060203d602011610e1e57610e108183614065565b38614ec5565b506001600160a01b03608083015116801515600003614af4575033614af4565b5094509497509591905092614850565b9093503d8087833e614f2c8183614065565b6020828281010312610bf35781519067ffffffffffffffff8211610c3a57808301601f838501011215610c3a578183015190614f6782614088565b93614f756040519586614065565b8285526020850193828201602060e08602838501010111614e4157602081830101945b602060e0860283850101018610614fb6575050505050509238614a03565b60e0868585010312613251576040518060e081011067ffffffffffffffff60e0830111176150685760e08101604052614fee87614764565b8152614ffc60208801614764565b6020820152604087015160408201526060808801519082015260808701516001600160a01b038116810361506457608082015260a0808801519082015260c080880151906001600160a01b0382168203614ded57820152815260e09590950194602001614f98565b8d80fd5b60248d634e487b7160e01b81526041600452fd5b61509691935060203d602011610e1e57610e108183614065565b9138614843565b6101209491943d610120116150d7575b6150b78183614065565b810191610120828403126101825750906150d09161441a565b92386147d6565b503d6150ad565b80518210156150f25760209160051b010190565b634e487b7160e01b600052603260045260246000fd5b6001600160a01b038091168033141592836151d3575b508261512d575b50506121c857565b602091925060846040518094819363c161c93f60e01b8352336004840152602483015260006044830152600160648301527f0000000000000000000000000000000000000000000000000000000000000000165afa9081156122a75760009161519a575b50153880615125565b906020823d82116151cb575b816151b360209383614065565b8101031261018257506151c590614764565b38615191565b3d91506151a6565b9092506040519063c161c93f60e01b8252336004830152836024830152604482015260016064820152602081608481857f0000000000000000000000000000000000000000000000000000000000000000165afa9081156122a75760009161523f575b5015913861511e565b906020823d8211615270575b8161525860209383614065565b81010312610182575061526a90614764565b38615236565b3d915061524b565b61528061438f565b50615289614370565b5061010080910180519161529b614370565b50604051926152a98461402c565b600180828180809560081c1614875281808260091c16146020880152600a1c1614604085015282519161ffff61271090808560281c168203908282116144ba5780875160381c1683039283116144ba5760ff9651956040519861530b8a614048565b895260181c1660208801526040870152606086015281808460481c1614608086015281808460491c161460a0860152818084604a1c161460c0860152818084604b1c161460e0860152818084604c1c161490850152808083604d1c1614610120850152808083604e1c1614610140850152808083604f1c161461016085015280808360501c161461018085015280808360511c16146101a085015280808360521c16146101c0850152808260531c16146101e08401526001600160a01b038160541c1661020084015260f41c1661022082015290565b919060001981840981840291828083109203918083039214615477576127109081831015615440577fbc01a36e2eb1c432ca57a786c226809d495182a9930be0ded288ce703afb7e9194950990828211900360fc1b910360041c170290565b60448383604051917f773cc18c00000000000000000000000000000000000000000000000000000000835260048301526024820152fd5b505061271090049150565b9190600019818409818402918280831092039180830392146154e357633b9aca009081831015615440577f88f2cfb83100cb4e69e7c79c58b316e597157d372fb9787e8e47ce423a2e9c6d94950990828211900360f71b910360091c170290565b5050633b9aca009004915056fea2646970667358221220f4f31dc4b8b8ab6508092d8d67398bfc8f1e73e8b84eaf26e02ba90dea1094c864736f6c63430008110033",
    "linkReferences": {}
  },
  "methodIdentifiers": {
    "burnTokensOf(address,uint256,uint256,string,bool)": "1665bc0f",
    "currentFundingCycleOf(uint256)": "8776c499",
    "directory()": "c41c2f24",
    "distributeReservedTokensOf(uint256,string)": "e867c59c",
    "distributionLimitOf(uint256,uint256,address,address)": "e8db2130",
    "fundingCycleStore()": "557e7155",
    "getFundingCycleOf(uint256,uint256)": "a40bb9c7",
    "latestConfiguredFundingCycleOf(uint256)": "1f510453",
    "launchFundingCyclesFor(uint256,(uint256,uint256,uint256,address),((bool,bool,bool),uint256,uint256,uint256,bool,bool,bool,bool,bool,bool,bool,bool,bool,bool,bool,bool,address,uint256),uint256,(uint256,(bool,bool,uint256,uint256,address,uint256,address)[])[],(address,address,uint256,uint256,uint256,uint256)[],address[],string)": "111d861b",
    "launchProjectFor(address,(string,uint256),(uint256,uint256,uint256,address),((bool,bool,bool),uint256,uint256,uint256,bool,bool,bool,bool,bool,bool,bool,bool,bool,bool,bool,bool,address,uint256),uint256,(uint256,(bool,bool,uint256,uint256,address,uint256,address)[])[],(address,address,uint256,uint256,uint256,uint256)[],address[],string)": "b3c52673",
    "migrate(uint256,address)": "405b84fa",
    "mintTokensOf(uint256,uint256,address,string,bool,bool)": "8ae9c07b",
    "operatorStore()": "ad007d63",
    "overflowAllowanceOf(uint256,uint256,address,address)": "7a81b562",
    "prepForMigrationOf(uint256,address)": "3e8c615b",
    "projects()": "8b79543c",
    "queuedFundingCycleOf(uint256)": "12b37b14",
    "reconfigureFundingCyclesOf(uint256,(uint256,uint256,uint256,address),((bool,bool,bool),uint256,uint256,uint256,bool,bool,bool,bool,bool,bool,bool,bool,bool,bool,bool,bool,address,uint256),uint256,(uint256,(bool,bool,uint256,uint256,address,uint256,address)[])[],(address,address,uint256,uint256,uint256,uint256)[],string)": "badbdf28",
    "reservedTokenBalanceOf(uint256)": "bdd504d7",
    "splitsStore()": "2bdfe004",
    "supportsInterface(bytes4)": "01ffc9a7",
    "tokenStore()": "61930630",
    "totalOutstandingTokensOf(uint256)": "c18f2d31"
  },
  "id": 66
}