{
  "abi": [
    {
      "inputs": [
        {
          "internalType": "contract IJBOperatorStore",
          "name": "_operatorStore",
          "type": "address"
        },
        {
          "internalType": "contract IJBProjects",
          "name": "_projects",
          "type": "address"
        },
        {
          "internalType": "contract IJBDirectory",
          "name": "_directory",
          "type": "address"
        },
        {
          "internalType": "contract IJBFundingCycleStore",
          "name": "_fundingCycleStore",
          "type": "address"
        },
        {
          "internalType": "contract IJBTokenStore",
          "name": "_tokenStore",
          "type": "address"
        },
        {
          "internalType": "contract IJBSplitsStore",
          "name": "_splitsStore",
          "type": "address"
        }
      ],
      "stateMutability": "nonpayable",
      "type": "constructor"
    },
    {
      "inputs": [],
      "name": "BURN_PAUSED_AND_SENDER_NOT_VALID_TERMINAL_DELEGATE",
      "type": "error"
    },
    {
      "inputs": [],
      "name": "CANT_MIGRATE_TO_CURRENT_CONTROLLER",
      "type": "error"
    },
    {
      "inputs": [],
      "name": "FUNDING_CYCLE_ALREADY_LAUNCHED",
      "type": "error"
    },
    {
      "inputs": [],
      "name": "INVALID_BALLOT_REDEMPTION_RATE",
      "type": "error"
    },
    {
      "inputs": [],
      "name": "INVALID_DISTRIBUTION_LIMIT",
      "type": "error"
    },
    {
      "inputs": [],
      "name": "INVALID_DISTRIBUTION_LIMIT_CURRENCY",
      "type": "error"
    },
    {
      "inputs": [],
      "name": "INVALID_OVERFLOW_ALLOWANCE",
      "type": "error"
    },
    {
      "inputs": [],
      "name": "INVALID_OVERFLOW_ALLOWANCE_CURRENCY",
      "type": "error"
    },
    {
      "inputs": [],
      "name": "INVALID_REDEMPTION_RATE",
      "type": "error"
    },
    {
      "inputs": [],
      "name": "INVALID_RESERVED_RATE",
      "type": "error"
    },
    {
      "inputs": [],
      "name": "MIGRATION_NOT_ALLOWED",
      "type": "error"
    },
    {
      "inputs": [],
      "name": "MINT_NOT_ALLOWED_AND_NOT_TERMINAL_DELEGATE",
      "type": "error"
    },
    {
      "inputs": [],
      "name": "NOT_CURRENT_CONTROLLER",
      "type": "error"
    },
    {
      "inputs": [],
      "name": "NO_BURNABLE_TOKENS",
      "type": "error"
    },
    {
      "inputs": [],
      "name": "OVERFLOW_ALERT",
      "type": "error"
    },
    {
      "inputs": [
        {
          "internalType": "uint256",
          "name": "prod1",
          "type": "uint256"
        },
        {
          "internalType": "uint256",
          "name": "denominator",
          "type": "uint256"
        }
      ],
      "name": "PRBMath__MulDivOverflow",
      "type": "error"
    },
    {
      "inputs": [],
      "name": "UNAUTHORIZED",
      "type": "error"
    },
    {
      "inputs": [],
      "name": "ZERO_TOKENS_TO_MINT",
      "type": "error"
    },
    {
      "anonymous": false,
      "inputs": [
        {
          "indexed": true,
          "internalType": "address",
          "name": "holder",
          "type": "address"
        },
        {
          "indexed": true,
          "internalType": "uint256",
          "name": "projectId",
          "type": "uint256"
        },
        {
          "indexed": false,
          "internalType": "uint256",
          "name": "tokenCount",
          "type": "uint256"
        },
        {
          "indexed": false,
          "internalType": "string",
          "name": "memo",
          "type": "string"
        },
        {
          "indexed": false,
          "internalType": "address",
          "name": "caller",
          "type": "address"
        }
      ],
      "name": "BurnTokens",
      "type": "event"
    },
    {
      "anonymous": false,
      "inputs": [
        {
          "indexed": true,
          "internalType": "uint256",
          "name": "fundingCycleConfiguration",
          "type": "uint256"
        },
        {
          "indexed": true,
          "internalType": "uint256",
          "name": "fundingCycleNumber",
          "type": "uint256"
        },
        {
          "indexed": true,
          "internalType": "uint256",
          "name": "projectId",
          "type": "uint256"
        },
        {
          "indexed": false,
          "internalType": "address",
          "name": "beneficiary",
          "type": "address"
        },
        {
          "indexed": false,
          "internalType": "uint256",
          "name": "tokenCount",
          "type": "uint256"
        },
        {
          "indexed": false,
          "internalType": "uint256",
          "name": "beneficiaryTokenCount",
          "type": "uint256"
        },
        {
          "indexed": false,
          "internalType": "string",
          "name": "memo",
          "type": "string"
        },
        {
          "indexed": false,
          "internalType": "address",
          "name": "caller",
          "type": "address"
        }
      ],
      "name": "DistributeReservedTokens",
      "type": "event"
    },
    {
      "anonymous": false,
      "inputs": [
        {
          "indexed": true,
          "internalType": "uint256",
          "name": "projectId",
          "type": "uint256"
        },
        {
          "indexed": true,
          "internalType": "uint256",
          "name": "domain",
          "type": "uint256"
        },
        {
          "indexed": true,
          "internalType": "uint256",
          "name": "group",
          "type": "uint256"
        },
        {
          "components": [
            {
              "internalType": "bool",
              "name": "preferClaimed",
              "type": "bool"
            },
            {
              "internalType": "bool",
              "name": "preferAddToBalance",
              "type": "bool"
            },
            {
              "internalType": "uint256",
              "name": "percent",
              "type": "uint256"
            },
            {
              "internalType": "uint256",
              "name": "projectId",
              "type": "uint256"
            },
            {
              "internalType": "address payable",
              "name": "beneficiary",
              "type": "address"
            },
            {
              "internalType": "uint256",
              "name": "lockedUntil",
              "type": "uint256"
            },
            {
              "internalType": "contract IJBSplitAllocator",
              "name": "allocator",
              "type": "address"
            }
          ],
          "indexed": false,
          "internalType": "struct JBSplit",
          "name": "split",
          "type": "tuple"
        },
        {
          "indexed": false,
          "internalType": "uint256",
          "name": "tokenCount",
          "type": "uint256"
        },
        {
          "indexed": false,
          "internalType": "address",
          "name": "caller",
          "type": "address"
        }
      ],
      "name": "DistributeToReservedTokenSplit",
      "type": "event"
    },
    {
      "anonymous": false,
      "inputs": [
        {
          "indexed": false,
          "internalType": "uint256",
          "name": "configuration",
          "type": "uint256"
        },
        {
          "indexed": false,
          "internalType": "uint256",
          "name": "projectId",
          "type": "uint256"
        },
        {
          "indexed": false,
          "internalType": "string",
          "name": "memo",
          "type": "string"
        },
        {
          "indexed": false,
          "internalType": "address",
          "name": "caller",
          "type": "address"
        }
      ],
      "name": "LaunchFundingCycles",
      "type": "event"
    },
    {
      "anonymous": false,
      "inputs": [
        {
          "indexed": false,
          "internalType": "uint256",
          "name": "configuration",
          "type": "uint256"
        },
        {
          "indexed": false,
          "internalType": "uint256",
          "name": "projectId",
          "type": "uint256"
        },
        {
          "indexed": false,
          "internalType": "string",
          "name": "memo",
          "type": "string"
        },
        {
          "indexed": false,
          "internalType": "address",
          "name": "caller",
          "type": "address"
        }
      ],
      "name": "LaunchProject",
      "type": "event"
    },
    {
      "anonymous": false,
      "inputs": [
        {
          "indexed": true,
          "internalType": "uint256",
          "name": "projectId",
          "type": "uint256"
        },
        {
          "indexed": false,
          "internalType": "contract IJBMigratable",
          "name": "to",
          "type": "address"
        },
        {
          "indexed": false,
          "internalType": "address",
          "name": "caller",
          "type": "address"
        }
      ],
      "name": "Migrate",
      "type": "event"
    },
    {
      "anonymous": false,
      "inputs": [
        {
          "indexed": true,
          "internalType": "address",
          "name": "beneficiary",
          "type": "address"
        },
        {
          "indexed": true,
          "internalType": "uint256",
          "name": "projectId",
          "type": "uint256"
        },
        {
          "indexed": false,
          "internalType": "uint256",
          "name": "tokenCount",
          "type": "uint256"
        },
        {
          "indexed": false,
          "internalType": "uint256",
          "name": "beneficiaryTokenCount",
          "type": "uint256"
        },
        {
          "indexed": false,
          "internalType": "string",
          "name": "memo",
          "type": "string"
        },
        {
          "indexed": false,
          "internalType": "uint256",
          "name": "reservedRate",
          "type": "uint256"
        },
        {
          "indexed": false,
          "internalType": "address",
          "name": "caller",
          "type": "address"
        }
      ],
      "name": "MintTokens",
      "type": "event"
    },
    {
      "anonymous": false,
      "inputs": [
        {
          "indexed": true,
          "internalType": "uint256",
          "name": "projectId",
          "type": "uint256"
        },
        {
          "indexed": false,
          "internalType": "address",
          "name": "from",
          "type": "address"
        },
        {
          "indexed": false,
          "internalType": "address",
          "name": "caller",
          "type": "address"
        }
      ],
      "name": "PrepMigration",
      "type": "event"
    },
    {
      "anonymous": false,
      "inputs": [
        {
          "indexed": false,
          "internalType": "uint256",
          "name": "configuration",
          "type": "uint256"
        },
        {
          "indexed": false,
          "internalType": "uint256",
          "name": "projectId",
          "type": "uint256"
        },
        {
          "indexed": false,
          "internalType": "string",
          "name": "memo",
          "type": "string"
        },
        {
          "indexed": false,
          "internalType": "address",
          "name": "caller",
          "type": "address"
        }
      ],
      "name": "ReconfigureFundingCycles",
      "type": "event"
    },
    {
      "anonymous": false,
      "inputs": [
        {
          "indexed": true,
          "internalType": "uint256",
          "name": "fundingCycleConfiguration",
          "type": "uint256"
        },
        {
          "indexed": true,
          "internalType": "uint256",
          "name": "fundingCycleNumber",
          "type": "uint256"
        },
        {
          "indexed": true,
          "internalType": "uint256",
          "name": "projectId",
          "type": "uint256"
        },
        {
          "components": [
            {
              "internalType": "contract IJBPaymentTerminal",
              "name": "terminal",
              "type": "address"
            },
            {
              "internalType": "address",
              "name": "token",
              "type": "address"
            },
            {
              "internalType": "uint256",
              "name": "distributionLimit",
              "type": "uint256"
            },
            {
              "internalType": "uint256",
              "name": "distributionLimitCurrency",
              "type": "uint256"
            },
            {
              "internalType": "uint256",
              "name": "overflowAllowance",
              "type": "uint256"
            },
            {
              "internalType": "uint256",
              "name": "overflowAllowanceCurrency",
              "type": "uint256"
            }
          ],
          "indexed": false,
          "internalType": "struct JBFundAccessConstraints",
          "name": "constraints",
          "type": "tuple"
        },
        {
          "indexed": false,
          "internalType": "address",
          "name": "caller",
          "type": "address"
        }
      ],
      "name": "SetFundAccessConstraints",
      "type": "event"
    },
    {
      "inputs": [
        {
          "internalType": "address",
          "name": "_holder",
          "type": "address"
        },
        {
          "internalType": "uint256",
          "name": "_projectId",
          "type": "uint256"
        },
        {
          "internalType": "uint256",
          "name": "_tokenCount",
          "type": "uint256"
        },
        {
          "internalType": "string",
          "name": "_memo",
          "type": "string"
        },
        {
          "internalType": "bool",
          "name": "_preferClaimedTokens",
          "type": "bool"
        }
      ],
      "name": "burnTokensOf",
      "outputs": [],
      "stateMutability": "nonpayable",
      "type": "function"
    },
    {
      "inputs": [
        {
          "internalType": "uint256",
          "name": "_projectId",
          "type": "uint256"
        }
      ],
      "name": "currentFundingCycleOf",
      "outputs": [
        {
          "components": [
            {
              "internalType": "uint256",
              "name": "number",
              "type": "uint256"
            },
            {
              "internalType": "uint256",
              "name": "configuration",
              "type": "uint256"
            },
            {
              "internalType": "uint256",
              "name": "basedOn",
              "type": "uint256"
            },
            {
              "internalType": "uint256",
              "name": "start",
              "type": "uint256"
            },
            {
              "internalType": "uint256",
              "name": "duration",
              "type": "uint256"
            },
            {
              "internalType": "uint256",
              "name": "weight",
              "type": "uint256"
            },
            {
              "internalType": "uint256",
              "name": "discountRate",
              "type": "uint256"
            },
            {
              "internalType": "contract IJBFundingCycleBallot",
              "name": "ballot",
              "type": "address"
            },
            {
              "internalType": "uint256",
              "name": "metadata",
              "type": "uint256"
            }
          ],
          "internalType": "struct JBFundingCycle",
          "name": "fundingCycle",
          "type": "tuple"
        },
        {
          "components": [
            {
              "components": [
                {
                  "internalType": "bool",
                  "name": "allowSetTerminals",
                  "type": "bool"
                },
                {
                  "internalType": "bool",
                  "name": "allowSetController",
                  "type": "bool"
                },
                {
                  "internalType": "bool",
                  "name": "pauseTransfers",
                  "type": "bool"
                }
              ],
              "internalType": "struct JBGlobalFundingCycleMetadata",
              "name": "global",
              "type": "tuple"
            },
            {
              "internalType": "uint256",
              "name": "reservedRate",
              "type": "uint256"
            },
            {
              "internalType": "uint256",
              "name": "redemptionRate",
              "type": "uint256"
            },
            {
              "internalType": "uint256",
              "name": "ballotRedemptionRate",
              "type": "uint256"
            },
            {
              "internalType": "bool",
              "name": "pausePay",
              "type": "bool"
            },
            {
              "internalType": "bool",
              "name": "pauseDistributions",
              "type": "bool"
            },
            {
              "internalType": "bool",
              "name": "pauseRedeem",
              "type": "bool"
            },
            {
              "internalType": "bool",
              "name": "pauseBurn",
              "type": "bool"
            },
            {
              "internalType": "bool",
              "name": "allowMinting",
              "type": "bool"
            },
            {
              "internalType": "bool",
              "name": "allowTerminalMigration",
              "type": "bool"
            },
            {
              "internalType": "bool",
              "name": "allowControllerMigration",
              "type": "bool"
            },
            {
              "internalType": "bool",
              "name": "holdFees",
              "type": "bool"
            },
            {
              "internalType": "bool",
              "name": "preferClaimedTokenOverride",
              "type": "bool"
            },
            {
              "internalType": "bool",
              "name": "useTotalOverflowForRedemptions",
              "type": "bool"
            },
            {
              "internalType": "bool",
              "name": "useDataSourceForPay",
              "type": "bool"
            },
            {
              "internalType": "bool",
              "name": "useDataSourceForRedeem",
              "type": "bool"
            },
            {
              "internalType": "address",
              "name": "dataSource",
              "type": "address"
            },
            {
              "internalType": "uint256",
              "name": "metadata",
              "type": "uint256"
            }
          ],
          "internalType": "struct JBFundingCycleMetadata",
          "name": "metadata",
          "type": "tuple"
        }
      ],
      "stateMutability": "view",
      "type": "function"
    },
    {
      "inputs": [],
      "name": "directory",
      "outputs": [
        {
          "internalType": "contract IJBDirectory",
          "name": "",
          "type": "address"
        }
      ],
      "stateMutability": "view",
      "type": "function"
    },
    {
      "inputs": [
        {
          "internalType": "uint256",
          "name": "_projectId",
          "type": "uint256"
        },
        {
          "internalType": "string",
          "name": "_memo",
          "type": "string"
        }
      ],
      "name": "distributeReservedTokensOf",
      "outputs": [
        {
          "internalType": "uint256",
          "name": "",
          "type": "uint256"
        }
      ],
      "stateMutability": "nonpayable",
      "type": "function"
    },
    {
      "inputs": [
        {
          "internalType": "uint256",
          "name": "_projectId",
          "type": "uint256"
        },
        {
          "internalType": "uint256",
          "name": "_configuration",
          "type": "uint256"
        },
        {
          "internalType": "contract IJBPaymentTerminal",
          "name": "_terminal",
          "type": "address"
        },
        {
          "internalType": "address",
          "name": "_token",
          "type": "address"
        }
      ],
      "name": "distributionLimitOf",
      "outputs": [
        {
          "internalType": "uint256",
          "name": "",
          "type": "uint256"
        },
        {
          "internalType": "uint256",
          "name": "",
          "type": "uint256"
        }
      ],
      "stateMutability": "view",
      "type": "function"
    },
    {
      "inputs": [],
      "name": "fundingCycleStore",
      "outputs": [
        {
          "internalType": "contract IJBFundingCycleStore",
          "name": "",
          "type": "address"
        }
      ],
      "stateMutability": "view",
      "type": "function"
    },
    {
      "inputs": [
        {
          "internalType": "uint256",
          "name": "_projectId",
          "type": "uint256"
        },
        {
          "internalType": "uint256",
          "name": "_configuration",
          "type": "uint256"
        }
      ],
      "name": "getFundingCycleOf",
      "outputs": [
        {
          "components": [
            {
              "internalType": "uint256",
              "name": "number",
              "type": "uint256"
            },
            {
              "internalType": "uint256",
              "name": "configuration",
              "type": "uint256"
            },
            {
              "internalType": "uint256",
              "name": "basedOn",
              "type": "uint256"
            },
            {
              "internalType": "uint256",
              "name": "start",
              "type": "uint256"
            },
            {
              "internalType": "uint256",
              "name": "duration",
              "type": "uint256"
            },
            {
              "internalType": "uint256",
              "name": "weight",
              "type": "uint256"
            },
            {
              "internalType": "uint256",
              "name": "discountRate",
              "type": "uint256"
            },
            {
              "internalType": "contract IJBFundingCycleBallot",
              "name": "ballot",
              "type": "address"
            },
            {
              "internalType": "uint256",
              "name": "metadata",
              "type": "uint256"
            }
          ],
          "internalType": "struct JBFundingCycle",
          "name": "fundingCycle",
          "type": "tuple"
        },
        {
          "components": [
            {
              "components": [
                {
                  "internalType": "bool",
                  "name": "allowSetTerminals",
                  "type": "bool"
                },
                {
                  "internalType": "bool",
                  "name": "allowSetController",
                  "type": "bool"
                },
                {
                  "internalType": "bool",
                  "name": "pauseTransfers",
                  "type": "bool"
                }
              ],
              "internalType": "struct JBGlobalFundingCycleMetadata",
              "name": "global",
              "type": "tuple"
            },
            {
              "internalType": "uint256",
              "name": "reservedRate",
              "type": "uint256"
            },
            {
              "internalType": "uint256",
              "name": "redemptionRate",
              "type": "uint256"
            },
            {
              "internalType": "uint256",
              "name": "ballotRedemptionRate",
              "type": "uint256"
            },
            {
              "internalType": "bool",
              "name": "pausePay",
              "type": "bool"
            },
            {
              "internalType": "bool",
              "name": "pauseDistributions",
              "type": "bool"
            },
            {
              "internalType": "bool",
              "name": "pauseRedeem",
              "type": "bool"
            },
            {
              "internalType": "bool",
              "name": "pauseBurn",
              "type": "bool"
            },
            {
              "internalType": "bool",
              "name": "allowMinting",
              "type": "bool"
            },
            {
              "internalType": "bool",
              "name": "allowTerminalMigration",
              "type": "bool"
            },
            {
              "internalType": "bool",
              "name": "allowControllerMigration",
              "type": "bool"
            },
            {
              "internalType": "bool",
              "name": "holdFees",
              "type": "bool"
            },
            {
              "internalType": "bool",
              "name": "preferClaimedTokenOverride",
              "type": "bool"
            },
            {
              "internalType": "bool",
              "name": "useTotalOverflowForRedemptions",
              "type": "bool"
            },
            {
              "internalType": "bool",
              "name": "useDataSourceForPay",
              "type": "bool"
            },
            {
              "internalType": "bool",
              "name": "useDataSourceForRedeem",
              "type": "bool"
            },
            {
              "internalType": "address",
              "name": "dataSource",
              "type": "address"
            },
            {
              "internalType": "uint256",
              "name": "metadata",
              "type": "uint256"
            }
          ],
          "internalType": "struct JBFundingCycleMetadata",
          "name": "metadata",
          "type": "tuple"
        }
      ],
      "stateMutability": "view",
      "type": "function"
    },
    {
      "inputs": [
        {
          "internalType": "uint256",
          "name": "_projectId",
          "type": "uint256"
        }
      ],
      "name": "latestConfiguredFundingCycleOf",
      "outputs": [
        {
          "components": [
            {
              "internalType": "uint256",
              "name": "number",
              "type": "uint256"
            },
            {
              "internalType": "uint256",
              "name": "configuration",
              "type": "uint256"
            },
            {
              "internalType": "uint256",
              "name": "basedOn",
              "type": "uint256"
            },
            {
              "internalType": "uint256",
              "name": "start",
              "type": "uint256"
            },
            {
              "internalType": "uint256",
              "name": "duration",
              "type": "uint256"
            },
            {
              "internalType": "uint256",
              "name": "weight",
              "type": "uint256"
            },
            {
              "internalType": "uint256",
              "name": "discountRate",
              "type": "uint256"
            },
            {
              "internalType": "contract IJBFundingCycleBallot",
              "name": "ballot",
              "type": "address"
            },
            {
              "internalType": "uint256",
              "name": "metadata",
              "type": "uint256"
            }
          ],
          "internalType": "struct JBFundingCycle",
          "name": "fundingCycle",
          "type": "tuple"
        },
        {
          "components": [
            {
              "components": [
                {
                  "internalType": "bool",
                  "name": "allowSetTerminals",
                  "type": "bool"
                },
                {
                  "internalType": "bool",
                  "name": "allowSetController",
                  "type": "bool"
                },
                {
                  "internalType": "bool",
                  "name": "pauseTransfers",
                  "type": "bool"
                }
              ],
              "internalType": "struct JBGlobalFundingCycleMetadata",
              "name": "global",
              "type": "tuple"
            },
            {
              "internalType": "uint256",
              "name": "reservedRate",
              "type": "uint256"
            },
            {
              "internalType": "uint256",
              "name": "redemptionRate",
              "type": "uint256"
            },
            {
              "internalType": "uint256",
              "name": "ballotRedemptionRate",
              "type": "uint256"
            },
            {
              "internalType": "bool",
              "name": "pausePay",
              "type": "bool"
            },
            {
              "internalType": "bool",
              "name": "pauseDistributions",
              "type": "bool"
            },
            {
              "internalType": "bool",
              "name": "pauseRedeem",
              "type": "bool"
            },
            {
              "internalType": "bool",
              "name": "pauseBurn",
              "type": "bool"
            },
            {
              "internalType": "bool",
              "name": "allowMinting",
              "type": "bool"
            },
            {
              "internalType": "bool",
              "name": "allowTerminalMigration",
              "type": "bool"
            },
            {
              "internalType": "bool",
              "name": "allowControllerMigration",
              "type": "bool"
            },
            {
              "internalType": "bool",
              "name": "holdFees",
              "type": "bool"
            },
            {
              "internalType": "bool",
              "name": "preferClaimedTokenOverride",
              "type": "bool"
            },
            {
              "internalType": "bool",
              "name": "useTotalOverflowForRedemptions",
              "type": "bool"
            },
            {
              "internalType": "bool",
              "name": "useDataSourceForPay",
              "type": "bool"
            },
            {
              "internalType": "bool",
              "name": "useDataSourceForRedeem",
              "type": "bool"
            },
            {
              "internalType": "address",
              "name": "dataSource",
              "type": "address"
            },
            {
              "internalType": "uint256",
              "name": "metadata",
              "type": "uint256"
            }
          ],
          "internalType": "struct JBFundingCycleMetadata",
          "name": "metadata",
          "type": "tuple"
        },
        {
          "internalType": "enum JBBallotState",
          "name": "ballotState",
          "type": "uint8"
        }
      ],
      "stateMutability": "view",
      "type": "function"
    },
    {
      "inputs": [
        {
          "internalType": "uint256",
          "name": "_projectId",
          "type": "uint256"
        },
        {
          "components": [
            {
              "internalType": "uint256",
              "name": "duration",
              "type": "uint256"
            },
            {
              "internalType": "uint256",
              "name": "weight",
              "type": "uint256"
            },
            {
              "internalType": "uint256",
              "name": "discountRate",
              "type": "uint256"
            },
            {
              "internalType": "contract IJBFundingCycleBallot",
              "name": "ballot",
              "type": "address"
            }
          ],
          "internalType": "struct JBFundingCycleData",
          "name": "_data",
          "type": "tuple"
        },
        {
          "components": [
            {
              "components": [
                {
                  "internalType": "bool",
                  "name": "allowSetTerminals",
                  "type": "bool"
                },
                {
                  "internalType": "bool",
                  "name": "allowSetController",
                  "type": "bool"
                },
                {
                  "internalType": "bool",
                  "name": "pauseTransfers",
                  "type": "bool"
                }
              ],
              "internalType": "struct JBGlobalFundingCycleMetadata",
              "name": "global",
              "type": "tuple"
            },
            {
              "internalType": "uint256",
              "name": "reservedRate",
              "type": "uint256"
            },
            {
              "internalType": "uint256",
              "name": "redemptionRate",
              "type": "uint256"
            },
            {
              "internalType": "uint256",
              "name": "ballotRedemptionRate",
              "type": "uint256"
            },
            {
              "internalType": "bool",
              "name": "pausePay",
              "type": "bool"
            },
            {
              "internalType": "bool",
              "name": "pauseDistributions",
              "type": "bool"
            },
            {
              "internalType": "bool",
              "name": "pauseRedeem",
              "type": "bool"
            },
            {
              "internalType": "bool",
              "name": "pauseBurn",
              "type": "bool"
            },
            {
              "internalType": "bool",
              "name": "allowMinting",
              "type": "bool"
            },
            {
              "internalType": "bool",
              "name": "allowTerminalMigration",
              "type": "bool"
            },
            {
              "internalType": "bool",
              "name": "allowControllerMigration",
              "type": "bool"
            },
            {
              "internalType": "bool",
              "name": "holdFees",
              "type": "bool"
            },
            {
              "internalType": "bool",
              "name": "preferClaimedTokenOverride",
              "type": "bool"
            },
            {
              "internalType": "bool",
              "name": "useTotalOverflowForRedemptions",
              "type": "bool"
            },
            {
              "internalType": "bool",
              "name": "useDataSourceForPay",
              "type": "bool"
            },
            {
              "internalType": "bool",
              "name": "useDataSourceForRedeem",
              "type": "bool"
            },
            {
              "internalType": "address",
              "name": "dataSource",
              "type": "address"
            },
            {
              "internalType": "uint256",
              "name": "metadata",
              "type": "uint256"
            }
          ],
          "internalType": "struct JBFundingCycleMetadata",
          "name": "_metadata",
          "type": "tuple"
        },
        {
          "internalType": "uint256",
          "name": "_mustStartAtOrAfter",
          "type": "uint256"
        },
        {
          "components": [
            {
              "internalType": "uint256",
              "name": "group",
              "type": "uint256"
            },
            {
              "components": [
                {
                  "internalType": "bool",
                  "name": "preferClaimed",
                  "type": "bool"
                },
                {
                  "internalType": "bool",
                  "name": "preferAddToBalance",
                  "type": "bool"
                },
                {
                  "internalType": "uint256",
                  "name": "percent",
                  "type": "uint256"
                },
                {
                  "internalType": "uint256",
                  "name": "projectId",
                  "type": "uint256"
                },
                {
                  "internalType": "address payable",
                  "name": "beneficiary",
                  "type": "address"
                },
                {
                  "internalType": "uint256",
                  "name": "lockedUntil",
                  "type": "uint256"
                },
                {
                  "internalType": "contract IJBSplitAllocator",
                  "name": "allocator",
                  "type": "address"
                }
              ],
              "internalType": "struct JBSplit[]",
              "name": "splits",
              "type": "tuple[]"
            }
          ],
          "internalType": "struct JBGroupedSplits[]",
          "name": "_groupedSplits",
          "type": "tuple[]"
        },
        {
          "components": [
            {
              "internalType": "contract IJBPaymentTerminal",
              "name": "terminal",
              "type": "address"
            },
            {
              "internalType": "address",
              "name": "token",
              "type": "address"
            },
            {
              "internalType": "uint256",
              "name": "distributionLimit",
              "type": "uint256"
            },
            {
              "internalType": "uint256",
              "name": "distributionLimitCurrency",
              "type": "uint256"
            },
            {
              "internalType": "uint256",
              "name": "overflowAllowance",
              "type": "uint256"
            },
            {
              "internalType": "uint256",
              "name": "overflowAllowanceCurrency",
              "type": "uint256"
            }
          ],
          "internalType": "struct JBFundAccessConstraints[]",
          "name": "_fundAccessConstraints",
          "type": "tuple[]"
        },
        {
          "internalType": "contract IJBPaymentTerminal[]",
          "name": "_terminals",
          "type": "address[]"
        },
        {
          "internalType": "string",
          "name": "_memo",
          "type": "string"
        }
      ],
      "name": "launchFundingCyclesFor",
      "outputs": [
        {
          "internalType": "uint256",
          "name": "configuration",
          "type": "uint256"
        }
      ],
      "stateMutability": "nonpayable",
      "type": "function"
    },
    {
      "inputs": [
        {
          "internalType": "address",
          "name": "_owner",
          "type": "address"
        },
        {
          "components": [
            {
              "internalType": "string",
              "name": "content",
              "type": "string"
            },
            {
              "internalType": "uint256",
              "name": "domain",
              "type": "uint256"
            }
          ],
          "internalType": "struct JBProjectMetadata",
          "name": "_projectMetadata",
          "type": "tuple"
        },
        {
          "components": [
            {
              "internalType": "uint256",
              "name": "duration",
              "type": "uint256"
            },
            {
              "internalType": "uint256",
              "name": "weight",
              "type": "uint256"
            },
            {
              "internalType": "uint256",
              "name": "discountRate",
              "type": "uint256"
            },
            {
              "internalType": "contract IJBFundingCycleBallot",
              "name": "ballot",
              "type": "address"
            }
          ],
          "internalType": "struct JBFundingCycleData",
          "name": "_data",
          "type": "tuple"
        },
        {
          "components": [
            {
              "components": [
                {
                  "internalType": "bool",
                  "name": "allowSetTerminals",
                  "type": "bool"
                },
                {
                  "internalType": "bool",
                  "name": "allowSetController",
                  "type": "bool"
                },
                {
                  "internalType": "bool",
                  "name": "pauseTransfers",
                  "type": "bool"
                }
              ],
              "internalType": "struct JBGlobalFundingCycleMetadata",
              "name": "global",
              "type": "tuple"
            },
            {
              "internalType": "uint256",
              "name": "reservedRate",
              "type": "uint256"
            },
            {
              "internalType": "uint256",
              "name": "redemptionRate",
              "type": "uint256"
            },
            {
              "internalType": "uint256",
              "name": "ballotRedemptionRate",
              "type": "uint256"
            },
            {
              "internalType": "bool",
              "name": "pausePay",
              "type": "bool"
            },
            {
              "internalType": "bool",
              "name": "pauseDistributions",
              "type": "bool"
            },
            {
              "internalType": "bool",
              "name": "pauseRedeem",
              "type": "bool"
            },
            {
              "internalType": "bool",
              "name": "pauseBurn",
              "type": "bool"
            },
            {
              "internalType": "bool",
              "name": "allowMinting",
              "type": "bool"
            },
            {
              "internalType": "bool",
              "name": "allowTerminalMigration",
              "type": "bool"
            },
            {
              "internalType": "bool",
              "name": "allowControllerMigration",
              "type": "bool"
            },
            {
              "internalType": "bool",
              "name": "holdFees",
              "type": "bool"
            },
            {
              "internalType": "bool",
              "name": "preferClaimedTokenOverride",
              "type": "bool"
            },
            {
              "internalType": "bool",
              "name": "useTotalOverflowForRedemptions",
              "type": "bool"
            },
            {
              "internalType": "bool",
              "name": "useDataSourceForPay",
              "type": "bool"
            },
            {
              "internalType": "bool",
              "name": "useDataSourceForRedeem",
              "type": "bool"
            },
            {
              "internalType": "address",
              "name": "dataSource",
              "type": "address"
            },
            {
              "internalType": "uint256",
              "name": "metadata",
              "type": "uint256"
            }
          ],
          "internalType": "struct JBFundingCycleMetadata",
          "name": "_metadata",
          "type": "tuple"
        },
        {
          "internalType": "uint256",
          "name": "_mustStartAtOrAfter",
          "type": "uint256"
        },
        {
          "components": [
            {
              "internalType": "uint256",
              "name": "group",
              "type": "uint256"
            },
            {
              "components": [
                {
                  "internalType": "bool",
                  "name": "preferClaimed",
                  "type": "bool"
                },
                {
                  "internalType": "bool",
                  "name": "preferAddToBalance",
                  "type": "bool"
                },
                {
                  "internalType": "uint256",
                  "name": "percent",
                  "type": "uint256"
                },
                {
                  "internalType": "uint256",
                  "name": "projectId",
                  "type": "uint256"
                },
                {
                  "internalType": "address payable",
                  "name": "beneficiary",
                  "type": "address"
                },
                {
                  "internalType": "uint256",
                  "name": "lockedUntil",
                  "type": "uint256"
                },
                {
                  "internalType": "contract IJBSplitAllocator",
                  "name": "allocator",
                  "type": "address"
                }
              ],
              "internalType": "struct JBSplit[]",
              "name": "splits",
              "type": "tuple[]"
            }
          ],
          "internalType": "struct JBGroupedSplits[]",
          "name": "_groupedSplits",
          "type": "tuple[]"
        },
        {
          "components": [
            {
              "internalType": "contract IJBPaymentTerminal",
              "name": "terminal",
              "type": "address"
            },
            {
              "internalType": "address",
              "name": "token",
              "type": "address"
            },
            {
              "internalType": "uint256",
              "name": "distributionLimit",
              "type": "uint256"
            },
            {
              "internalType": "uint256",
              "name": "distributionLimitCurrency",
              "type": "uint256"
            },
            {
              "internalType": "uint256",
              "name": "overflowAllowance",
              "type": "uint256"
            },
            {
              "internalType": "uint256",
              "name": "overflowAllowanceCurrency",
              "type": "uint256"
            }
          ],
          "internalType": "struct JBFundAccessConstraints[]",
          "name": "_fundAccessConstraints",
          "type": "tuple[]"
        },
        {
          "internalType": "contract IJBPaymentTerminal[]",
          "name": "_terminals",
          "type": "address[]"
        },
        {
          "internalType": "string",
          "name": "_memo",
          "type": "string"
        }
      ],
      "name": "launchProjectFor",
      "outputs": [
        {
          "internalType": "uint256",
          "name": "projectId",
          "type": "uint256"
        }
      ],
      "stateMutability": "nonpayable",
      "type": "function"
    },
    {
      "inputs": [
        {
          "internalType": "uint256",
          "name": "_projectId",
          "type": "uint256"
        },
        {
          "internalType": "contract IJBMigratable",
          "name": "_to",
          "type": "address"
        }
      ],
      "name": "migrate",
      "outputs": [],
      "stateMutability": "nonpayable",
      "type": "function"
    },
    {
      "inputs": [
        {
          "internalType": "uint256",
          "name": "_projectId",
          "type": "uint256"
        },
        {
          "internalType": "uint256",
          "name": "_tokenCount",
          "type": "uint256"
        },
        {
          "internalType": "address",
          "name": "_beneficiary",
          "type": "address"
        },
        {
          "internalType": "string",
          "name": "_memo",
          "type": "string"
        },
        {
          "internalType": "bool",
          "name": "_preferClaimedTokens",
          "type": "bool"
        },
        {
          "internalType": "bool",
          "name": "_useReservedRate",
          "type": "bool"
        }
      ],
      "name": "mintTokensOf",
      "outputs": [
        {
          "internalType": "uint256",
          "name": "beneficiaryTokenCount",
          "type": "uint256"
        }
      ],
      "stateMutability": "nonpayable",
      "type": "function"
    },
    {
      "inputs": [],
      "name": "operatorStore",
      "outputs": [
        {
          "internalType": "contract IJBOperatorStore",
          "name": "",
          "type": "address"
        }
      ],
      "stateMutability": "view",
      "type": "function"
    },
    {
      "inputs": [
        {
          "internalType": "uint256",
          "name": "_projectId",
          "type": "uint256"
        },
        {
          "internalType": "uint256",
          "name": "_configuration",
          "type": "uint256"
        },
        {
          "internalType": "contract IJBPaymentTerminal",
          "name": "_terminal",
          "type": "address"
        },
        {
          "internalType": "address",
          "name": "_token",
          "type": "address"
        }
      ],
      "name": "overflowAllowanceOf",
      "outputs": [
        {
          "internalType": "uint256",
          "name": "",
          "type": "uint256"
        },
        {
          "internalType": "uint256",
          "name": "",
          "type": "uint256"
        }
      ],
      "stateMutability": "view",
      "type": "function"
    },
    {
      "inputs": [
        {
          "internalType": "uint256",
          "name": "_projectId",
          "type": "uint256"
        },
        {
          "internalType": "address",
          "name": "_from",
          "type": "address"
        }
      ],
      "name": "prepForMigrationOf",
      "outputs": [],
      "stateMutability": "nonpayable",
      "type": "function"
    },
    {
      "inputs": [],
      "name": "projects",
      "outputs": [
        {
          "internalType": "contract IJBProjects",
          "name": "",
          "type": "address"
        }
      ],
      "stateMutability": "view",
      "type": "function"
    },
    {
      "inputs": [
        {
          "internalType": "uint256",
          "name": "_projectId",
          "type": "uint256"
        }
      ],
      "name": "queuedFundingCycleOf",
      "outputs": [
        {
          "components": [
            {
              "internalType": "uint256",
              "name": "number",
              "type": "uint256"
            },
            {
              "internalType": "uint256",
              "name": "configuration",
              "type": "uint256"
            },
            {
              "internalType": "uint256",
              "name": "basedOn",
              "type": "uint256"
            },
            {
              "internalType": "uint256",
              "name": "start",
              "type": "uint256"
            },
            {
              "internalType": "uint256",
              "name": "duration",
              "type": "uint256"
            },
            {
              "internalType": "uint256",
              "name": "weight",
              "type": "uint256"
            },
            {
              "internalType": "uint256",
              "name": "discountRate",
              "type": "uint256"
            },
            {
              "internalType": "contract IJBFundingCycleBallot",
              "name": "ballot",
              "type": "address"
            },
            {
              "internalType": "uint256",
              "name": "metadata",
              "type": "uint256"
            }
          ],
          "internalType": "struct JBFundingCycle",
          "name": "fundingCycle",
          "type": "tuple"
        },
        {
          "components": [
            {
              "components": [
                {
                  "internalType": "bool",
                  "name": "allowSetTerminals",
                  "type": "bool"
                },
                {
                  "internalType": "bool",
                  "name": "allowSetController",
                  "type": "bool"
                },
                {
                  "internalType": "bool",
                  "name": "pauseTransfers",
                  "type": "bool"
                }
              ],
              "internalType": "struct JBGlobalFundingCycleMetadata",
              "name": "global",
              "type": "tuple"
            },
            {
              "internalType": "uint256",
              "name": "reservedRate",
              "type": "uint256"
            },
            {
              "internalType": "uint256",
              "name": "redemptionRate",
              "type": "uint256"
            },
            {
              "internalType": "uint256",
              "name": "ballotRedemptionRate",
              "type": "uint256"
            },
            {
              "internalType": "bool",
              "name": "pausePay",
              "type": "bool"
            },
            {
              "internalType": "bool",
              "name": "pauseDistributions",
              "type": "bool"
            },
            {
              "internalType": "bool",
              "name": "pauseRedeem",
              "type": "bool"
            },
            {
              "internalType": "bool",
              "name": "pauseBurn",
              "type": "bool"
            },
            {
              "internalType": "bool",
              "name": "allowMinting",
              "type": "bool"
            },
            {
              "internalType": "bool",
              "name": "allowTerminalMigration",
              "type": "bool"
            },
            {
              "internalType": "bool",
              "name": "allowControllerMigration",
              "type": "bool"
            },
            {
              "internalType": "bool",
              "name": "holdFees",
              "type": "bool"
            },
            {
              "internalType": "bool",
              "name": "preferClaimedTokenOverride",
              "type": "bool"
            },
            {
              "internalType": "bool",
              "name": "useTotalOverflowForRedemptions",
              "type": "bool"
            },
            {
              "internalType": "bool",
              "name": "useDataSourceForPay",
              "type": "bool"
            },
            {
              "internalType": "bool",
              "name": "useDataSourceForRedeem",
              "type": "bool"
            },
            {
              "internalType": "address",
              "name": "dataSource",
              "type": "address"
            },
            {
              "internalType": "uint256",
              "name": "metadata",
              "type": "uint256"
            }
          ],
          "internalType": "struct JBFundingCycleMetadata",
          "name": "metadata",
          "type": "tuple"
        }
      ],
      "stateMutability": "view",
      "type": "function"
    },
    {
      "inputs": [
        {
          "internalType": "uint256",
          "name": "_projectId",
          "type": "uint256"
        },
        {
          "components": [
            {
              "internalType": "uint256",
              "name": "duration",
              "type": "uint256"
            },
            {
              "internalType": "uint256",
              "name": "weight",
              "type": "uint256"
            },
            {
              "internalType": "uint256",
              "name": "discountRate",
              "type": "uint256"
            },
            {
              "internalType": "contract IJBFundingCycleBallot",
              "name": "ballot",
              "type": "address"
            }
          ],
          "internalType": "struct JBFundingCycleData",
          "name": "_data",
          "type": "tuple"
        },
        {
          "components": [
            {
              "components": [
                {
                  "internalType": "bool",
                  "name": "allowSetTerminals",
                  "type": "bool"
                },
                {
                  "internalType": "bool",
                  "name": "allowSetController",
                  "type": "bool"
                },
                {
                  "internalType": "bool",
                  "name": "pauseTransfers",
                  "type": "bool"
                }
              ],
              "internalType": "struct JBGlobalFundingCycleMetadata",
              "name": "global",
              "type": "tuple"
            },
            {
              "internalType": "uint256",
              "name": "reservedRate",
              "type": "uint256"
            },
            {
              "internalType": "uint256",
              "name": "redemptionRate",
              "type": "uint256"
            },
            {
              "internalType": "uint256",
              "name": "ballotRedemptionRate",
              "type": "uint256"
            },
            {
              "internalType": "bool",
              "name": "pausePay",
              "type": "bool"
            },
            {
              "internalType": "bool",
              "name": "pauseDistributions",
              "type": "bool"
            },
            {
              "internalType": "bool",
              "name": "pauseRedeem",
              "type": "bool"
            },
            {
              "internalType": "bool",
              "name": "pauseBurn",
              "type": "bool"
            },
            {
              "internalType": "bool",
              "name": "allowMinting",
              "type": "bool"
            },
            {
              "internalType": "bool",
              "name": "allowTerminalMigration",
              "type": "bool"
            },
            {
              "internalType": "bool",
              "name": "allowControllerMigration",
              "type": "bool"
            },
            {
              "internalType": "bool",
              "name": "holdFees",
              "type": "bool"
            },
            {
              "internalType": "bool",
              "name": "preferClaimedTokenOverride",
              "type": "bool"
            },
            {
              "internalType": "bool",
              "name": "useTotalOverflowForRedemptions",
              "type": "bool"
            },
            {
              "internalType": "bool",
              "name": "useDataSourceForPay",
              "type": "bool"
            },
            {
              "internalType": "bool",
              "name": "useDataSourceForRedeem",
              "type": "bool"
            },
            {
              "internalType": "address",
              "name": "dataSource",
              "type": "address"
            },
            {
              "internalType": "uint256",
              "name": "metadata",
              "type": "uint256"
            }
          ],
          "internalType": "struct JBFundingCycleMetadata",
          "name": "_metadata",
          "type": "tuple"
        },
        {
          "internalType": "uint256",
          "name": "_mustStartAtOrAfter",
          "type": "uint256"
        },
        {
          "components": [
            {
              "internalType": "uint256",
              "name": "group",
              "type": "uint256"
            },
            {
              "components": [
                {
                  "internalType": "bool",
                  "name": "preferClaimed",
                  "type": "bool"
                },
                {
                  "internalType": "bool",
                  "name": "preferAddToBalance",
                  "type": "bool"
                },
                {
                  "internalType": "uint256",
                  "name": "percent",
                  "type": "uint256"
                },
                {
                  "internalType": "uint256",
                  "name": "projectId",
                  "type": "uint256"
                },
                {
                  "internalType": "address payable",
                  "name": "beneficiary",
                  "type": "address"
                },
                {
                  "internalType": "uint256",
                  "name": "lockedUntil",
                  "type": "uint256"
                },
                {
                  "internalType": "contract IJBSplitAllocator",
                  "name": "allocator",
                  "type": "address"
                }
              ],
              "internalType": "struct JBSplit[]",
              "name": "splits",
              "type": "tuple[]"
            }
          ],
          "internalType": "struct JBGroupedSplits[]",
          "name": "_groupedSplits",
          "type": "tuple[]"
        },
        {
          "components": [
            {
              "internalType": "contract IJBPaymentTerminal",
              "name": "terminal",
              "type": "address"
            },
            {
              "internalType": "address",
              "name": "token",
              "type": "address"
            },
            {
              "internalType": "uint256",
              "name": "distributionLimit",
              "type": "uint256"
            },
            {
              "internalType": "uint256",
              "name": "distributionLimitCurrency",
              "type": "uint256"
            },
            {
              "internalType": "uint256",
              "name": "overflowAllowance",
              "type": "uint256"
            },
            {
              "internalType": "uint256",
              "name": "overflowAllowanceCurrency",
              "type": "uint256"
            }
          ],
          "internalType": "struct JBFundAccessConstraints[]",
          "name": "_fundAccessConstraints",
          "type": "tuple[]"
        },
        {
          "internalType": "string",
          "name": "_memo",
          "type": "string"
        }
      ],
      "name": "reconfigureFundingCyclesOf",
      "outputs": [
        {
          "internalType": "uint256",
          "name": "configuration",
          "type": "uint256"
        }
      ],
      "stateMutability": "nonpayable",
      "type": "function"
    },
    {
      "inputs": [
        {
          "internalType": "uint256",
          "name": "",
          "type": "uint256"
        }
      ],
      "name": "reservedTokenBalanceOf",
      "outputs": [
        {
          "internalType": "uint256",
          "name": "",
          "type": "uint256"
        }
      ],
      "stateMutability": "view",
      "type": "function"
    },
    {
      "inputs": [],
      "name": "splitsStore",
      "outputs": [
        {
          "internalType": "contract IJBSplitsStore",
          "name": "",
          "type": "address"
        }
      ],
      "stateMutability": "view",
      "type": "function"
    },
    {
      "inputs": [
        {
          "internalType": "bytes4",
          "name": "_interfaceId",
          "type": "bytes4"
        }
      ],
      "name": "supportsInterface",
      "outputs": [
        {
          "internalType": "bool",
          "name": "",
          "type": "bool"
        }
      ],
      "stateMutability": "view",
      "type": "function"
    },
    {
      "inputs": [],
      "name": "tokenStore",
      "outputs": [
        {
          "internalType": "contract IJBTokenStore",
          "name": "",
          "type": "address"
        }
      ],
      "stateMutability": "view",
      "type": "function"
    },
    {
      "inputs": [
        {
          "internalType": "uint256",
          "name": "_projectId",
          "type": "uint256"
        }
      ],
      "name": "totalOutstandingTokensOf",
      "outputs": [
        {
          "internalType": "uint256",
          "name": "",
          "type": "uint256"
        }
      ],
      "stateMutability": "view",
      "type": "function"
    }
  ],
  "bytecode": {
    "object": "0x610140346200027457601f6200503238819003918201601f19168301916001600160401b03831184841017620002795780849260c094604052833981010312620002745780516001600160a01b0391828216820362000274576020810151918383168303620002745760408201519284841684036200027457606083015191858316830362000274576080840151938685168503620002745760a001519586168603620002745760805260a05261012092835260c05260e05261010091825260405190614da292836200029084396080518381816117fd01528181611df301528181611eb3015281816124b30152818161255001528181612a9901528181612b38015281816149f60152614a9b015260a0518381816103a901528181610e350152818161193d01528181611a44015281816121c701528181612d500152818161414401526146d8015260c0518381816107300152818161123c01528181611879015281816119ee015281816120450152818161214c015281816122860152818161268b0152818161285901528181612c3b01528181612db3015281816131ae01526140d8015260e05183818161024a01528181611c0701528181612107015281816128b0015281816141f5015281816143c00152818161442c01526144ec015251828181610771015281816107fa0152818161127d0152818161130401528181612618015281816131ef0152818161327801526142de0152518181816101e901528181610e7001528181610ec80152818161151e0152818161157101528181611aa801528181611d3101528181612214015281816127d901528181612df201528181612e4b0152818161348e01526134e30152f35b600080fd5b634e487b7160e01b600052604160045260246000fdfe608080604052600436101561001357600080fd5b600090813560e01c90816301ffc9a71461371e57508063111d861b14612c8357806312b37b1414612bf65780631665bc0f146127605780631f510453146126475780632bdfe004146126025780633e8c615b146125db578063405b84fa1461217b578063557e71551461213657806361930630146120f15780637a81b5621461208d5780638776c499146120005780638ae9c07b1461196c5780638b79543c14611927578063a40bb9c71461182c578063ad007d63146117e7578063b3c5267314610cc8578063badbdf2814610303578063bdd504d7146102d9578063c18f2d3114610218578063c41c2f24146101d3578063e867c59c146101835763e8db21301461011e57600080fd5b346101805760409061012f36613bef565b94928492919452816020528282209082526020522060018060a01b03809216600052602052604060002091166000526020526040806000205481519060018060e81b038116825260e81c6020820152f35b80fd5b503461018057604036600319011261018057602435906001600160401b0382116101805760206101cb6101c36101bc3660048701613ba6565b36916139e2565b6004356140b9565b604051908152f35b50346101805780600319360112610180576040517f00000000000000000000000000000000000000000000000000000000000000006001600160a01b03168152602090f35b50346101805760209081600319360112610180576040516375b0d9cd60e01b81526004803590820181905283826024817f00000000000000000000000000000000000000000000000000000000000000006001600160a01b03165afa9182156102ce578392610298575b50826040916101cb945260028552205490613de9565b9091508381813d83116102c7575b6102b0818361384b565b810103126102c25751906101cb610282565b600080fd5b503d6102a6565b6040513d85823e3d90fd5b50346101805760203660031901126101805760406020916004358152600283522054604051908152f35b5034610180576103a0366003190112610180576080366023190112610180576102803660a3190112610180576001600160401b039061034435828111610cc4576103519036906004016137bb565b9261036435818111610cc05761036b903690600401613c28565b92909161038435908111610cbc57610387903690600401613ba6565b6040516331a9108f60e11b8152600480359082015290969195906020816024817f00000000000000000000000000000000000000000000000000000000000000006001600160a01b03165afa918215610cb05761040895949261040094926103f99291610c81575b506004359061499e565b3691613e2d565b9236916138ad565b6000936127106101043511610c6f576127106101243511610c5d576127106101443511610c4b5760405161043b8161382f565b60603660a3190112610c475760405161045381613814565b60a4358015158103610b5357815260c435151560c43503610b0c5760c435602082015260e435151560e43503610b0c5760e43560408201528082526101043560208301526101243560408301526101443560608301526101643515156101643503610b0c576101643560808301526101843515156101843503610b0c576101843560a08301526101a4358015158103610b535760c08301526101c43515156101c43503610b0c576101c43560e08301526101e4358015158103610b5357610100830152610204358015158103610b5357610120830152610224358015158103610b5357610140830152610244358015158103610b5357610160830152610264358015158103610b5357610180830152610284358015158103610b53576101a08301526102a43515156102a43503610b0c576102a4356101c08301526102c43515156102c43503610b0c576102c4356101e08301526102e4356001600160a01b0381169003610b0c576102e4356102008301526103043561022083015286908051610c3e575b6020810151610c33575b60400151610c2b575b61271061012435810311610c1757606082015161271003906127108211610c0357906102209160018260381b610124356127100360281b6101043560181b8460081b17171717916080850151610bd0575b505060a0830151610bc5575b60c0830151610bba575b60e0830151610baf575b610100830151610ba4575b610120830151610b99575b610140830151610b8e575b610160830151610b83575b610180830151610b78575b6101a0830151610b6d575b6101c0830151610b62575b6101e0830151610b57575b600160541b600160f41b0361020084015160541b161791015160f41b17926040519363a249d42560e01b8552600435600486015260243560248601526044356044860152606435606486015260843560018060a01b038116809103610b5357608486015260a48501526103243560c48501526101208460e481897f00000000000000000000000000000000000000000000000000000000000000006001600160a01b03165af1938415610a8b578694610b10575b506020840151907f00000000000000000000000000000000000000000000000000000000000000006001600160a01b03163b15610b0c5790869060405192839163796d225b60e11b83526064830190600435600485015260248401526060604484015281518091526084830190602060848260051b86010193019185905b828210610a965750505090829003905081837f00000000000000000000000000000000000000000000000000000000000000006001600160a01b03165af18015610a8b57610a78575b50845b8251811015610a19576108458184614924565b5160408101519091906001600160e81b0310610a075762ffffff6060830151116109f55760808201516001600160e81b03106109e35762ffffff60a0830151116109d15781604060019301518061097b575b50608081015180610925575b50602086015186519060a0604051938680831b0381511685528680831b036020820151166020860152604081015160408601526060810151606086015260808101516080860152015160a08401523360c08401527f8a1c80ab9ab05d6bf02096dd94aa2fa05a9de212e793835a50dd5ffe8d8cbab860e060043594a401610832565b60a082015160e81b176004358952836020526040892060208801518a5260205260408920848060a01b038351166000526020526040600020848060a01b03602084015116600052602052604060002055386108a3565b606082015160e81b176004358952886020526040892060208801518a5260205260408920848060a01b038351166000526020526040600020848060a01b0360208401511660005260205260406000205538610897565b60405163d9b93c2560e01b8152600490fd5b604051635730278360e01b8152600490fd5b604051639583faed60e01b8152600490fd5b60405163a9b8fbcf60e01b8152600490fd5b6020827f1a08ad37c93969a586fd0605d240c17113b20a9c9ac3847595d0ab425225f6af878388015192610a6760405192839286845260043588850152608060408501526080840191613e0c565b3360608301520390a1604051908152f35b610a84909591956137eb565b933861082f565b6040513d88823e3d90fd5b92955092909350608319868203018252845160206060816040850193805186520151936040838201528451809452019201908c905b808210610aec575050506020806001929601920192019285938b95936107e6565b909192602060e082610b01600194885161494e565b019401920190610acb565b8680fd5b909350610120903d61012011610b4b575b610b2b828261384b565b610120818381010312610b0c57610b4491810190613d58565b9238610768565b3d9150610b21565b8780fd5b600160531b176106b4565b600160521b176106a9565b600160511b1761069e565b600160501b17610693565b6001604f1b17610688565b6001604e1b1761067d565b6001604d1b17610672565b6001604c1b17610667565b6001604b1b1761065c565b6001604a1b17610652565b600160491b17610648565b6901000000000000000001925060381b90610124356127100360281b906101043560181b9060081b17171717388061063c565b634e487b7160e01b88526011600452602488fd5b634e487b7160e01b87526011600452602487fd5b6004176105eb565b6002909117906105e2565b600191506105d8565b8580fd5b604051636edf8de360e11b8152600490fd5b604051639db9ee9360e01b8152600490fd5b604051635623289560e01b8152600490fd5b610ca3915060203d602011610ca9575b610c9b818361384b565b810190614080565b386103ef565b503d610c91565b604051903d90823e3d90fd5b8480fd5b8380fd5b5080fd5b503461018057600319906103e03683011261018057610ce5613897565b916001600160401b0360243511610cc45760409060243536030112610180576080366043190112610180576102803660c319011261018057610364356001600160401b038111610cc457610d3d9036906004016137bb565b9290610384356001600160401b038111610cc057610d5f903690600401613c28565b91906103a4356001600160401b038111610c4757610d8190369060040161397c565b916001600160401b036103c43511610c4757610da3366103c435600401613a28565b96604051956303336c3d60e51b875260018060a01b031660048701526040602487015260243560040135602219602435360301811215610b5357602435016001600160401b03600482013511610b5357600481013536036024820113610b53578680610e25602093604060448401526084830190602460048201359101613e0c565b602480350135606483015203818a7f00000000000000000000000000000000000000000000000000000000000000006001600160a01b03165af19586156117dc5787966117a8575b507f00000000000000000000000000000000000000000000000000000000000000006001600160a01b03163b15610b0c576040516338a73f9960e11b8152600481018790523060248201528781604481836001600160a01b037f0000000000000000000000000000000000000000000000000000000000000000165af180156115d857908891611794575b5050610f129291610f0a913691613e2d565b9336916138ad565b906000956127106101243511610c6f576127106101443511610c5d576127106101643511610c4b57604051610f468161382f565b60603660c3190112610b5357604051610f5e81613814565b60c43580151581036116a057815260e435151560e435036116595760e43560208201526101043515156101043503611659576101043560408201528082526101243560208301526101443560408301526101643560608301526101843580151581036116a05760808301526101a43515156101a43503611659576101a43560a08301526101c43515156101c43503611659576101c43560c08301526101e43515156101e43503611659576101e43560e08301526102043580151581036116a0576101008301526102243580151581036116a0576101208301526102443580151581036116a0576101408301526102643580151581036116a0576101608301526102843580151581036116a0576101808301526102a43580151581036116a0576101a08301526102c43515156102c43503611659576102c4356101c08301526102e43515156102e43503611659576102e4356101e0830152610304356001600160a01b03811690036116595761030435610200830152610324356102208301528890805161178b575b6020810151611780575b60400151611778575b612710610144358103116117645760608201516127100390612710821161175057906102209160018260381b610144356127100360281b6101243560181b8460081b1717171791608085015161171d575b505060a0830151611712575b60c0830151611707575b60e08301516116fc575b6101008301516116f1575b6101208301516116e6575b6101408301516116db575b6101608301516116d0575b6101808301516116c5575b6101a08301516116ba575b6101c08301516116af575b6101e08301516116a4575b600160541b600160f41b0361020084015160541b161791015160f41b17936040519463a249d42560e01b865286600487015260443560248701526064356044870152608435606487015260a43560018060a01b0381168091036116a057608487015260a48601526103443560c48601526101208560e4818b7f00000000000000000000000000000000000000000000000000000000000000006001600160a01b03165af19485156115d857889561165d575b506020850151907f00000000000000000000000000000000000000000000000000000000000000006001600160a01b03163b156116595790889060405192839163796d225b60e11b835260648301908a600485015260248401526060604484015281518091526084830190602060848260051b86010193019185905b8282106115e35750505090829003905081837f00000000000000000000000000000000000000000000000000000000000000006001600160a01b03165af180156115d8576115c5575b50865b83518110156114c85761134f8185614924565b519060018060e81b0380604084015111610a075762ffffff90816060850151116109f5576080840151116109e35760a0830151116109d15786826040600194015180611474575b50608081015180611420575b5060208801517f8a1c80ab9ab05d6bf02096dd94aa2fa05a9de212e793835a50dd5ffe8d8cbab860e08a519360a0604051918980831b0381511683528980831b036020820151166020840152604081015160408401526060810151606084015260808101516080840152015160a08201523360c0820152a40161133c565b60a082015160e81b17828c528460205260408c2060208a01518d5260205260408c20858060a01b038351166000526020526040600020858060a01b03602084015116600052602052604060002055386113a2565b606082015160e81b17828c528b60205260408c2060208a01518d5260205260408c20858060a01b038351166000526020526040600020858060a01b0360208401511660005260205260406000205538611396565b50849086602086015193805161151c575b6020847ff3e6948ba8b32d557363ea08470121c47c0127659aed09320812174d373afef287866115116040519283928633928561404d565b0390a1604051908152f35b7f00000000000000000000000000000000000000000000000000000000000000006001600160a01b03163b15610cc4578161156c916040518093819263104373fb60e31b83528860048401613fc0565b0381837f00000000000000000000000000000000000000000000000000000000000000006001600160a01b03165af180156115ba57156114d9576115b082916137eb565b61018057806114d9565b6040513d84823e3d90fd5b6115d1909791976137eb565b9538611339565b6040513d8a823e3d90fd5b929550929093506083198682030182528c85516020606081604086019380518752015194604083820152855180945201930191905b808210611639575050506020806001929601920192019285938d95936112f0565b909192602060e08261164e600194885161494e565b019401920190611618565b8880fd5b909450610120903d61012011611698575b611678828261384b565b6101208183810103126116595761169191810190613d58565b9338611274565b3d915061166e565b8980fd5b600160531b176111c2565b600160521b176111b7565b600160511b176111ac565b600160501b176111a1565b6001604f1b17611196565b6001604e1b1761118b565b6001604d1b17611180565b6001604c1b17611175565b6001604b1b1761116a565b6001604a1b17611160565b600160491b17611156565b6901000000000000000001925060381b90610144356127100360281b906101243560181b9060081b17171717388061114a565b634e487b7160e01b8a52601160045260248afd5b634e487b7160e01b89526011600452602489fd5b6004176110f9565b6002909117906110f0565b600191506110e6565b61179d906137eb565b610b0c578638610ef8565b9095506020813d6020116117d4575b816117c46020938361384b565b810103126102c257519438610e6d565b3d91506117b7565b6040513d89823e3d90fd5b50346101805780600319360112610180576040517f00000000000000000000000000000000000000000000000000000000000000006001600160a01b03168152602090f35b503461018057604036600319011261018057611846613c58565b5061184f613ccd565b5060405163334f245560e11b815260048035908201526024803590820152906101209081836044817f00000000000000000000000000000000000000000000000000000000000000006001600160a01b03165afa92831561191a5781936118da575b6103a0846118d8856118c283614b0e565b906118d06040518095613a46565b830190613aa4565bf35b909250813d8311611913575b6118f0818361384b565b8101928282850312610180575061190d6103a0936118d892613d58565b926118b1565b503d6118e6565b50604051903d90823e3d90fd5b50346101805780600319360112610180576040517f00000000000000000000000000000000000000000000000000000000000000006001600160a01b03168152602090f35b50346101805760c0366003190112610180576044356001600160a01b03811690036102c2576064356001600160401b038111610cc4576119b0903690600401613ba6565b6119b8613bd3565b60a435151560a435036102c257839260243515611fee576040516321d1336160e11b8152600480359082015291610120836024817f00000000000000000000000000000000000000000000000000000000000000006001600160a01b03165afa928315610a8b578693611fb0575b506040516331a9108f60e11b815260048035908201526020816024817f00000000000000000000000000000000000000000000000000000000000000006001600160a01b03165afa9081156117dc578791611f91575b50604051636e49181f60e01b815260048035908201523360248201526020816044816001600160a01b037f0000000000000000000000000000000000000000000000000000000000000000165afa9081156115d8578891611f57575b508015611f3a575b159081611f26575b81611e72575b81611db4575b50611da257600180610100850151604c1c16141580611d05575b80611ce7575b611cd55760a43515611cce5761ffff61010084015160181c16925b811515600103611cb957505b612710808403611bea575b5050611b759060209583611bbe575b50604051936024358552858786015260a0604086015260a0850191613e0c565b9060608301523360808301527fe6fee9c572244c0c2238c3112ac12d411750a7ee00eeebd32521c3e5a666c14b600435928060018060a01b0360443516930390a3604051908152f35b611be26040611bcf886024356140ac565b92600435815260028a5220918254613de9565b905538611b55565b909450828103908111611ca557611c048691602435614c76565b947f00000000000000000000000000000000000000000000000000000000000000006001600160a01b031690813b15611ca1576040516333b774f960e21b8152604480356001600160a01b031660048084019190915235602483015281018890529015156064820152919082908183816084810103925af18015610a8b57611c8d575b80611b46565b611c9786916137eb565b610cbc5738611c87565b8280fd5b634e487b7160e01b86526011600452602486fd5b600191506101008291015160501c1614611b3b565b8592611b2f565b604051639d0ca8fd60e01b8152600490fd5b506101008301513360549190911c6001600160a01b03161415611b14565b50604051636e49181f60e01b815260048035908201523360248201526020816044816001600160a01b037f0000000000000000000000000000000000000000000000000000000000000000165afa9081156117dc578791611d68575b5015611b0e565b90506020813d602011611d9a575b81611d836020938361384b565b81010312610b0c57611d949061409f565b38611d61565b3d9150611d76565b60405163075fd2b160e01b8152600490fd5b60405163c161c93f60e01b81523360048201526001600160a01b03918216602482015260006044820152600960648201529150602090829060849082907f0000000000000000000000000000000000000000000000000000000000000000165afa908115611e6657600091611e2c575b501538611af4565b906020823d602011611e5e575b81611e466020938361384b565b810103126101805750611e589061409f565b38611e24565b3d9150611e39565b6040513d6000823e3d90fd5b905060405163c161c93f60e01b815233600482015260018060a01b038216602482015260043560448201526009606482015260208160848160018060a01b037f0000000000000000000000000000000000000000000000000000000000000000165afa908115611e6657600091611eec575b501590611aee565b906020823d602011611f1e575b81611f066020938361384b565b810103126101805750611f189061409f565b38611ee4565b3d9150611ef9565b336001600160a01b03821614159150611ae8565b506101008401513360549190911c6001600160a01b031614611ae0565b90506020813d602011611f89575b81611f726020938361384b565b81010312610b5357611f839061409f565b38611ad8565b3d9150611f65565b611faa915060203d602011610ca957610c9b818361384b565b38611a7c565b9092506101203d61012011611fe7575b611fca818361384b565b810161012082820312610b0c57611fe091613d58565b9138611a26565b503d611fc0565b6040516327f44f9560e21b8152600490fd5b50346101805760203660031901126101805761201a613c58565b50612023613ccd565b506040516321d1336160e11b81526004803590820152906101209081836024817f00000000000000000000000000000000000000000000000000000000000000006001600160a01b03165afa92831561191a5781936118da576103a0846118d8856118c283614b0e565b50346101805760409061209f36613bef565b9492849291945260016020528282209082526020522060018060a01b03809216600052602052604060002091166000526020526040806000205481519060018060e81b038116825260e81c6020820152f35b50346101805780600319360112610180576040517f00000000000000000000000000000000000000000000000000000000000000006001600160a01b03168152602090f35b50346101805780600319360112610180576040517f00000000000000000000000000000000000000000000000000000000000000006001600160a01b03168152602090f35b5034610180576040366003190112610180576004356001600160a01b0360248035828116929190839003610cbc576040516331a9108f60e11b81526004810185905260209290838184817f000000000000000000000000000000000000000000000000000000000000000086165afa80156117dc57829188916125be575b5016803314159081612521575b81612483575b50611da257807f00000000000000000000000000000000000000000000000000000000000000001690604051632eec7b5560e11b815286600482015284818581865afa9081156115d8578891612466575b5081309116036124545760405180916321d1336160e11b825287600483015281856101209384937f0000000000000000000000000000000000000000000000000000000000000000165afa9182156115d8578892612415575b5050600161010081920151604e1c16036124035785918583526002845260408320546123b8575b50833b15610cc457604051633e8c615b60e01b815260048101869052306024820152828160448183895af19081156102ce5783916123a4575b5050803b15610cc4576040516338a73f9960e11b8152600481018690526001600160a01b03851660248201529082908290604490829084905af180156115ba57612390575b50507f01f954abace731a88ab86e71186040cc2be49fe517ea06bc0d24f25b82b834569160409182519182523390820152a280f35b612399906137eb565b610cc057833861235b565b6123ad906137eb565b610cc4578138612316565b604051919250838201906001600160401b038211838310176123ef57508692916123e891604052838152866140b9565b50386122dd565b634e487b7160e01b60009081526041600452fd5b6040516346ace3f960e01b8152600490fd5b908092503d831161244d575b61242b818361384b565b81019181830312610b53576101006124466001938493613d58565b92506122b6565b503d612421565b60405163e0a0a87d60e01b8152600490fd5b61247d9150853d8711610ca957610c9b818361384b565b3861225d565b90506040519063c161c93f60e01b82523360048301528382015260006044820152600360648201528381608481857f0000000000000000000000000000000000000000000000000000000000000000165afa908115611e66576000916124ec575b50153861220c565b908482813d831161251a575b612502818361384b565b8101031261018057506125149061409f565b386124e4565b503d6124f8565b905060405163c161c93f60e01b81523360048201528184820152866044820152600360648201528481608481867f0000000000000000000000000000000000000000000000000000000000000000165afa908115611e6657600091612589575b501590612206565b908582813d83116125b7575b61259f818361384b565b8101031261018057506125b19061409f565b38612581565b503d612595565b6125d59150853d8711610ca957610c9b818361384b565b386121f9565b5034610180576040366003190112610180576024356001600160a01b038116036102c25780f35b50346101805780600319360112610180576040517f00000000000000000000000000000000000000000000000000000000000000006001600160a01b03168152602090f35b503461018057602036600319011261018057612661613c58565b5061266a613ccd565b5060405163ebc8ca1f60e01b815260048035908201526101409081816024817f00000000000000000000000000000000000000000000000000000000000000006001600160a01b03165afa9081156102ce5783928492612715575b50506126eb6126d383614b0e565b6126e06040518095613a46565b610120840190613aa4565b6003811015612701576103c092506103a0820152f35b634e487b7160e01b83526021600452602483fd5b91509150803d8211612759575b61272c818461384b565b82019082820312611ca1576127446101209183613d58565b910151906003821015611ca1579038806126c5565b503d612722565b50346101805760a03660031901126101805761277a613897565b602435906044356064356001600160401b038111610cbc576127a3612808913690600401613ba6565b6127ae939193613bd3565b604051636e49181f60e01b808252600482018990523360248301526020956001600160a01b039493927f00000000000000000000000000000000000000000000000000000000000000008616918890829081906044820190565b0381855afa908115612beb578c91612bb2575b501580612ba6575b80612b07575b80612a68575b611da2578515612a56578a604051916321d1336160e11b83528b600484015261012080846024818b7f0000000000000000000000000000000000000000000000000000000000000000165afa9081156102ce578a948e9492612a0e575b5050600161010081920151604b1c16149384612995575b50505050612983578890837f000000000000000000000000000000000000000000000000000000000000000016803b15611ca15760405163906ebd0f60e01b81526001600160a01b038a166004820152602481018b905260448101879052911515606483015282908290608490829084905af180156115ba5761296f575b50507fdf04e13ee4fcd48a81ab2fd114757093740a3efa9b6475d86e05878b4c59d0799461296091606060405196879687528601526060850191613e0c565b9433604084015216930390a380f35b612978906137eb565b610b53578738612921565b604051630f1490e360e31b8152600490fd5b6040519081526004810192909252336024830152909250829060449082905afa908115612a03578a916129ce575b5015858938806128a3565b90508581813d83116129fc575b6129e5818361384b565b810103126116a0576129f69061409f565b386129c3565b503d6129db565b6040513d8c823e3d90fd5b9350935050823d8411612a4f575b612a26818461384b565b82019282840312612a4b57600180610100612a448f95968d97613d58565b925061288c565b8c80fd5b503d612a1c565b604051637b38547b60e01b8152600490fd5b5060405163c161c93f60e01b8152336004820152898616602482015260006044820152600a606482015287816084817f00000000000000000000000000000000000000000000000000000000000000008a165afa908115611e6657600091612ad2575b501561282f565b908882813d8311612b00575b612ae8818361384b565b810103126101805750612afa9061409f565b38612acb565b503d612ade565b5060405163c161c93f60e01b81523360048201528986166024820152604481018b9052600a606482015287816084817f00000000000000000000000000000000000000000000000000000000000000008a165afa908115611e6657600091612b71575b5015612829565b908882813d8311612b9f575b612b87818361384b565b810103126101805750612b999061409f565b38612b6a565b503d612b7d565b50848916331415612823565b90508781813d8311612be4575b612bc9818361384b565b81010312612be057612bda9061409f565b3861281b565b8b80fd5b503d612bbf565b6040513d8e823e3d90fd5b503461018057602036600319011261018057612c10613c58565b50612c19613ccd565b50604051630b8aa00f60e31b81526004803590820152906101209081836024817f00000000000000000000000000000000000000000000000000000000000000006001600160a01b03165afa92831561191a5781936118da576103a0846118d8856118c283614b0e565b5034610180576103c0366003190112610180576080366023190112610180576102803660a3190112610180576001600160401b039061034435828111610cc457612cd19036906004016137bb565b9061036435848111610cc05736602382011215610cc057612cfc9036906024816004013591016138ad565b9061038435858111610cbc57612d1690369060040161397c565b946103a435908111610cbc57612d30903690600401613a28565b6040516331a9108f60e11b815260048035908201529093906020816024817f00000000000000000000000000000000000000000000000000000000000000006001600160a01b03165afa908115610a8b5790612d96918791610c8157506004359061499e565b604051632cee6deb60e01b815260048035908201526020816024817f00000000000000000000000000000000000000000000000000000000000000006001600160a01b03165afa908115610a8b5786916136ec575b506136d7577f00000000000000000000000000000000000000000000000000000000000000006001600160a01b03163b15610cbc576040516338a73f9960e11b815260048035908201523060248201528581604481836001600160a01b037f0000000000000000000000000000000000000000000000000000000000000000165af18015610a8b576136c0575b5090612e85913691613e2d565b916000946127106101043511610c6f576127106101243511610c5d576127106101443511610c4b57604051612eb98161382f565b60603660a3190112610b0c57604051612ed181613814565b60a435801515810361165957815260c435151560c43503610b535760c435602082015260e435151560e43503610b535760e43560408201528082526101043560208301526101243560408301526101443560608301526101643580151581036116595760808301526101843515156101843503610b53576101843560a08301526101a43515156101a43503610b53576101a43560c08301526101c43515156101c43503610b53576101c43560e08301526101e43580151581036116595761010083015261020435801515810361165957610120830152610224358015158103611659576101408301526102443580151581036116595761016083015261026435801515810361165957610180830152610284358015158103611659576101a08301526102a43515156102a43503610b53576102a4356101c08301526102c43515156102c43503610b53576102c4356101e08301526102e4356001600160a01b0381169003610b53576102e43561020083015261030435610220830152879080516136b7575b60208101516136ac575b604001516136a4575b61271061012435810311610c035760608201516127100390612710821161176457906102209160018260381b610124356127100360281b6101043560181b8460081b17171717916080850151613671575b505060a0830151613666575b60c083015161365b575b60e0830151613650575b610100830151613645575b61012083015161363a575b61014083015161362f575b610160830151613624575b610180830151613619575b6101a083015161360e575b6101c0830151613603575b6101e08301516135f8575b600160541b600160f41b0361020084015160541b161791015160f41b17936040519463a249d42560e01b8652600435600487015260243560248701526044356044870152606435606487015260843560018060a01b03811680910361165957608487015260a48601526103243560c48601526101208560e4818a7f00000000000000000000000000000000000000000000000000000000000000006001600160a01b03165af19485156117dc5787956135b5575b506020850151907f00000000000000000000000000000000000000000000000000000000000000006001600160a01b03163b15610b535790879060405192839163796d225b60e11b83526064830190600435600485015260248401526060604484015281518091526084830190602060848260051b86010193019185905b82821061353f5750505090829003905081837f00000000000000000000000000000000000000000000000000000000000000006001600160a01b03165af180156117dc5761352c575b50855b8351811015613443576132c38185614924565b519060018060e81b0380604084015111610a075762ffffff90816060850151116109f5576080840151116109e35760a0830151116109d1578160406001930151806133ed575b50608081015180613397575b50602087015187519060a0604051938680831b0381511685528680831b036020820151166020860152604081015160408601526060810151606086015260808101516080860152015160a08401523360c08401527f8a1c80ab9ab05d6bf02096dd94aa2fa05a9de212e793835a50dd5ffe8d8cbab860e060043594a4016132b0565b60a082015160e81b176004358a528360205260408a2060208901518b5260205260408a20848060a01b038351166000526020526040600020848060a01b0360208401511660005260205260406000205538613315565b606082015160e81b176004358a528960205260408a2060208901518b5260205260408a20848060a01b038351166000526020526040600020848060a01b0360208401511660005260205260406000205538613309565b5084602085015191805161348c575b6020837f8621c3692c18d8ddd4cd26457d6a3e1d916e7001c4243a6c8dfa862a7e10a823611511876040519182913390600435878561404d565b7f00000000000000000000000000000000000000000000000000000000000000006001600160a01b03163b15610cc457816134de916040518093819263104373fb60e31b835260043560048401613fc0565b0381837f00000000000000000000000000000000000000000000000000000000000000006001600160a01b03165af180156115ba57156134525761352282916137eb565b6101805780613452565b613538909691966137eb565b94386132ad565b92955092909350608319868203018252845160206060816040850193805186520151936040838201528451809452019201908d905b808210613595575050506020806001929601920192019285938c9593613264565b909192602060e0826135aa600194885161494e565b019401920190613574565b909450610120903d610120116135f0575b6135d0828261384b565b610120818381010312610b53576135e991810190613d58565b93386131e6565b3d91506135c6565b600160531b17613132565b600160521b17613127565b600160511b1761311c565b600160501b17613111565b6001604f1b17613106565b6001604e1b176130fb565b6001604d1b176130f0565b6001604c1b176130e5565b6001604b1b176130da565b6001604a1b176130d0565b600160491b176130c6565b6901000000000000000001925060381b90610124356127100360281b906101043560181b9060081b1717171738806130ba565b600417613069565b600290911790613060565b60019150613056565b946136cf612e859392966137eb565b949091612e78565b60405160016217a1f760e11b03198152600490fd5b90506020813d602011613716575b816137076020938361384b565b81010312610c47575138612deb565b3d91506136fa565b905034610cc4576020366003190112610cc45760043563ffffffff60e01b8116809103611ca1576020925063060109c360e51b81149081156137aa575b8115613799575b8115613788575b8115613777575b5015158152f35b6301ffc9a760e01b14905038613770565b63ad007d6360e01b81149150613769565b633e8c615b60e01b81149150613762565b633e2d14f360e11b8114915061375b565b9181601f840112156102c2578235916001600160401b0383116102c2576020808501948460051b0101116102c257565b6001600160401b0381116137fe57604052565b634e487b7160e01b600052604160045260246000fd5b606081019081106001600160401b038211176137fe57604052565b61024081019081106001600160401b038211176137fe57604052565b90601f801991011681019081106001600160401b038211176137fe57604052565b6001600160401b0381116137fe5760051b60200190565b35906001600160a01b03821682036102c257565b600435906001600160a01b03821682036102c257565b9291926138b98261386c565b6040946138c88651928361384b565b819584835260208093019160c08096028501948186116102c257925b8584106138f45750505050505050565b86848303126102c257825190878201908282106001600160401b038311176139675788928792865261392587613883565b8152613932838801613883565b838201528587013586820152606080880135908201526080808801359082015260a080880135908201528152019301926138e4565b60246000634e487b7160e01b81526041600452fd5b81601f820112156102c2578035916139938361386c565b926139a1604051948561384b565b808452602092838086019260051b8201019283116102c2578301905b8282106139cb575050505090565b8380916139d784613883565b8152019101906139bd565b9291926001600160401b0382116137fe5760405191613a0b601f8201601f19166020018461384b565b8294818452818301116102c2578281602093846000960137010152565b9080601f830112156102c257816020613a43933591016139e2565b90565b805182526020810151602083015260408101516040830152606081015160608301526080810151608083015260a081015160a083015260c081015160c083015260018060a01b0360e08201511660e083015261010080910151910152565b61026090604081518051151585526020810151151560208601520151151560408401526020810151606084015260408101516080840152606081015160a08401526080810151151560c084015260a0810151151560e084015260c0810151151590610100918285015260e081015115159161012092838601528101511515916101409283860152810151151591610160928386015281015115159161018092838601528101511515916101a092838601528101511515916101c092838601528101511515916101e092838601528101511515916102009283860152810151151591610220928386015260018060a01b0390820151166102408501520151910152565b9181601f840112156102c2578235916001600160401b0383116102c257602083818601950101116102c257565b6084359081151582036102c257565b359081151582036102c257565b60809060031901126102c25760043590602435906001600160a01b039060443582811681036102c2579160643590811681036102c25790565b9181601f840112156102c2578235916001600160401b0383116102c25760208085019460c085020101116102c257565b6040519061012082018281106001600160401b038211176137fe57604052816101006000918281528260208201528260408201528260608201528260808201528260a08201528260c08201528260e08201520152565b60405190613cbb82613814565b60006040838281528260208201520152565b60405190613cda8261382f565b81613ce3613cae565b81526102206000918260208201528260408201528260608201528260808201528260a08201528260c08201528260e08201528261010082015282610120820152826101408201528261016082015282610180820152826101a0820152826101c0820152826101e0820152826102008201520152565b80929161012091829103126102c2576040519081018181106001600160401b038211176137fe576040528092805182526020810151602083015260408101516040830152606081015160608301526080810151608083015260a081015160a083015260c081015160c083015260e081015160018060a01b03811681036102c25760e083015261010080910151910152565b91908201809211613df657565b634e487b7160e01b600052601160045260246000fd5b908060209392818452848401376000828201840152601f01601f1916010190565b92919092613e3a8461386c565b90604094613e4a8651938461384b565b829581845260208094019160051b8301928584116102c25780925b848410613e755750505050505050565b6001600160401b0384358181116102c25783019084828a03126102c257845191858301838110838211176139675786528035835288810135908282116102c2570189601f820112156102c257803590613ecd8261386c565b92613eda8851948561384b565b8284528a8401908b60e0809502840101928d84116102c257918d979593918d8098969401915b838310613f1e57505050505083809550820152815201930192613e65565b91849698508094919395979903126102c257895185810181811084821117613967578b52613f4b84613be2565b81528d613f59818601613be2565b90820152838b01358b820152606080850135908201526001600160a01b03916080808601359084821682036102c25783015260a0808601359083015260c0918286013593841684036102c2578f9293889482015281520192018d979593918d979593613f00565b9060609160408101918152602092816040858094015285518094520193019160005b828110613ff0575050505090565b83516001600160a01b031685529381019392810192600101613fe2565b919082519283825260005b848110614039575050826000602080949584010152601f8019910116010190565b602081830181015184830182015201614018565b92606092614070929695968552602085015260806040850152608084019061400d565b6001600160a01b03909416910152565b908160209103126102c257516001600160a01b03811681036102c25790565b519081151582036102c257565b91908203918211613df657565b6040516321d1336160e11b8152600481018290529291610120846024817f00000000000000000000000000000000000000000000000000000000000000006001600160a01b03165afa938415611e66576000946148e3575b5060008281526002602090815260408083208054939055516331a9108f60e11b81526004810185905291959190816024817f00000000000000000000000000000000000000000000000000000000000000006001600160a01b03165afa908115611e66576000916148c4575b506000866142a3575060005b806141f3575b7fb12d7a78048433f69fe6d30145bf08aad8e82985b96e4db6d5c6a7e94d57086e916141e8602085015194519560405193849360018060a01b031684528a6020850152604084015260a0606084015260a083019061400d565b3360808301520390a4565b7f00000000000000000000000000000000000000000000000000000000000000006001600160a01b031691823b156102c257600080936084604051809681936333b774f960e21b835260018060a01b03871660048401528b60248401528760448401528160648401525af1928315611e66577fb12d7a78048433f69fe6d30145bf08aad8e82985b96e4db6d5c6a7e94d57086e93614294575b50915061418f565b61429d906137eb565b3861428c565b60208301516040516369e11cc560e01b81526004810187905260248101829052600260448201529097929692949193859391929085846064817f00000000000000000000000000000000000000000000000000000000000000006001600160a01b03165afa938415610a8b578694614764575b50855b8451811015614755578a8961432e8388614924565b5161433d60408201518c614cfe565b80614390575b917f990c1da5d280602f972ae3c429b6dc66a66569875205cc6e67f14e0b3fc4d2ac610120600196959360029561437d604051809361494e565b60e082015233610100820152a401614319565b60c082015190999193509091506001600160a01b0316156146b05760c08201516001600160a01b03165b825115157f00000000000000000000000000000000000000000000000000000000000000006001600160a01b03163b1561468a576040516333b774f960e21b81526001600160a01b039092166004830152602482018d9052604482018a905215156064820152898180608481010381837f00000000000000000000000000000000000000000000000000000000000000006001600160a01b03165af18015612a03578c928f94928b926146a1575b5060c08301516001600160a01b0316806144c3575b5061012060019695936144b4600296947f990c1da5d280602f972ae3c429b6dc66a66569875205cc6e67f14e0b3fc4d2ac946140ac565b9c939550939596505050614343565b9294509250506040519063ea78803f60e01b82528c600483015260208260248160018060a01b037f0000000000000000000000000000000000000000000000000000000000000000165afa918215614696578b9261464e575b50604051918260c08101106001600160401b0360c08501111761463a5790829160c08f940160405260018060a01b0316825260208201908b82526040830192601284526060810194855260808101600281528760a0830152823b1561463657604051634eba05fd60e11b815282516001600160a01b031660048201529351602485015293516044840152935160648301529151608482015260a0909201518b9183916101849183918591906145d59060a485019061494e565b5af18015612a03577f990c1da5d280602f972ae3c429b6dc66a66569875205cc6e67f14e0b3fc4d2ac8f92600196958f938d600297610120946144b493614627575b509450949650509395965061447d565b614630906137eb565b38614617565b8e80fd5b634e487b7160e01b8c52604160045260248cfd5b9091506020813d60201161468e575b8161466a6020938361384b565b8101031261468a57516001600160a01b038116810361468a57903861451c565b8a80fd5b3d915061465d565b6040513d8d823e3d90fd5b6146aa906137eb565b38614468565b60608201518015614735576040516331a9108f60e11b815260048101919091526020816024817f00000000000000000000000000000000000000000000000000000000000000006001600160a01b03165afa908115612a03578a91614716575b506143ba565b61472f915060203d602011610ca957610c9b818361384b565b38614710565b5060808201516001600160a01b03168015156000036143ba5750336143ba565b50945094975095919050614189565b9093503d8087833e614776818361384b565b6020828281010312610b0c578151906001600160401b038211610b5357808301601f838501011215610b535781830151906147b08261386c565b936147be604051958661384b565b8285526020850193828201602060e0860283850101011161468a57602081830101945b602060e08602838501010186106147ff575050505050509238614316565b60e0868585010312612be0576040518060e08101106001600160401b0360e0830111176148b05760e081016040526148368761409f565b81526148446020880161409f565b6020820152604087810151908201526060808801519082015260808701516001600160a01b03811681036148ac57608082015260a0878101519082015260c080880151906001600160a01b038216820361463657820152815260e095909501946020016147e1565b8d80fd5b634e487b7160e01b8d52604160045260248dfd5b6148dd915060203d602011610ca957610c9b818361384b565b3861417d565b6101209491943d6101201161491d575b6148fd818361384b565b8101916101208284031261018057509061491691613d58565b9238614111565b503d6148f3565b80518210156149385760209160051b010190565b634e487b7160e01b600052603260045260246000fd5b60c09080511515835260208101511515602084015260408101516040840152606081015160608401528160018060a01b039182608082015116608086015260a081015160a0860152015116910152565b6001600160a01b03908116338114159283614a69575b50826149c3575b5050611da257565b602091925060846040518094819363c161c93f60e01b8352336004840152602483015260006044830152600160648301527f0000000000000000000000000000000000000000000000000000000000000000165afa908115611e6657600091614a30575b501538806149bb565b906020823d8211614a61575b81614a496020938361384b565b810103126101805750614a5b9061409f565b38614a27565b3d9150614a3c565b9092506040519063c161c93f60e01b8252336004830152836024830152604482015260016064820152602081608481857f0000000000000000000000000000000000000000000000000000000000000000165afa908115611e6657600091614ad5575b501591386149b4565b906020823d8211614b06575b81614aee6020938361384b565b810103126101805750614b009061409f565b38614acc565b3d9150614ae1565b614b16613ccd565b50614b1f613cae565b50610100809101805191614b31613cae565b5060405192614b3f84613814565b600180828180809560081c1614875281808260091c16146020880152600a1c1614604085015282519161ffff61271090808560281c16820390828211613df65780875160381c168303928311613df65760ff96519560405198614ba18a61382f565b895260181c1660208801526040870152606086015281808460481c1614608086015281808460491c161460a0860152818084604a1c161460c0860152818084604b1c161460e0860152818084604c1c161490850152808083604d1c1614610120850152808083604e1c1614610140850152808083604f1c161461016085015280808360501c161461018085015280808360511c16146101a085015280808360521c16146101c0850152808260531c16146101e084015260018060a01b038160541c1661020084015260f41c1661022082015290565b919060001981840981840291828083109203918083039214614cf3576127109081831015614cd5577fbc01a36e2eb1c432ca57a786c226809d495182a9930be0ded288ce703afb7e9194950990828211900360fc1b910360041c170290565b6044838360405191631dcf306360e21b835260048301526024820152fd5b505061271090049150565b919060001981840981840291828083109203918083039214614d5f57633b9aca009081831015614cd5577f88f2cfb83100cb4e69e7c79c58b316e597157d372fb9787e8e47ce423a2e9c6d94950990828211900360f71b910360091c170290565b5050633b9aca009004915056fea2646970667358221220298e45824bea380fead05ed4602d63852cd8875b47f9cca6de7e3f2eef9c260164736f6c63430008110033",
    "linkReferences": {}
  },
  "methodIdentifiers": {
    "burnTokensOf(address,uint256,uint256,string,bool)": "1665bc0f",
    "currentFundingCycleOf(uint256)": "8776c499",
    "directory()": "c41c2f24",
    "distributeReservedTokensOf(uint256,string)": "e867c59c",
    "distributionLimitOf(uint256,uint256,address,address)": "e8db2130",
    "fundingCycleStore()": "557e7155",
    "getFundingCycleOf(uint256,uint256)": "a40bb9c7",
    "latestConfiguredFundingCycleOf(uint256)": "1f510453",
    "launchFundingCyclesFor(uint256,(uint256,uint256,uint256,address),((bool,bool,bool),uint256,uint256,uint256,bool,bool,bool,bool,bool,bool,bool,bool,bool,bool,bool,bool,address,uint256),uint256,(uint256,(bool,bool,uint256,uint256,address,uint256,address)[])[],(address,address,uint256,uint256,uint256,uint256)[],address[],string)": "111d861b",
    "launchProjectFor(address,(string,uint256),(uint256,uint256,uint256,address),((bool,bool,bool),uint256,uint256,uint256,bool,bool,bool,bool,bool,bool,bool,bool,bool,bool,bool,bool,address,uint256),uint256,(uint256,(bool,bool,uint256,uint256,address,uint256,address)[])[],(address,address,uint256,uint256,uint256,uint256)[],address[],string)": "b3c52673",
    "migrate(uint256,address)": "405b84fa",
    "mintTokensOf(uint256,uint256,address,string,bool,bool)": "8ae9c07b",
    "operatorStore()": "ad007d63",
    "overflowAllowanceOf(uint256,uint256,address,address)": "7a81b562",
    "prepForMigrationOf(uint256,address)": "3e8c615b",
    "projects()": "8b79543c",
    "queuedFundingCycleOf(uint256)": "12b37b14",
    "reconfigureFundingCyclesOf(uint256,(uint256,uint256,uint256,address),((bool,bool,bool),uint256,uint256,uint256,bool,bool,bool,bool,bool,bool,bool,bool,bool,bool,bool,bool,address,uint256),uint256,(uint256,(bool,bool,uint256,uint256,address,uint256,address)[])[],(address,address,uint256,uint256,uint256,uint256)[],string)": "badbdf28",
    "reservedTokenBalanceOf(uint256)": "bdd504d7",
    "splitsStore()": "2bdfe004",
    "supportsInterface(bytes4)": "01ffc9a7",
    "tokenStore()": "61930630",
    "totalOutstandingTokensOf(uint256)": "c18f2d31"
  },
  "id": 67
}