{
  "abi": [
    {
      "inputs": [
        {
          "internalType": "contract IJBOperatorStore",
          "name": "_operatorStore",
          "type": "address"
        },
        {
          "internalType": "contract IJBProjects",
          "name": "_projects",
          "type": "address"
        },
        {
          "internalType": "contract IJBDirectory",
          "name": "_directory",
          "type": "address"
        },
        {
          "internalType": "contract IJBFundingCycleStore",
          "name": "_fundingCycleStore",
          "type": "address"
        },
        {
          "internalType": "contract IJBTokenStore",
          "name": "_tokenStore",
          "type": "address"
        },
        {
          "internalType": "contract IJBSplitsStore",
          "name": "_splitsStore",
          "type": "address"
        },
        {
          "internalType": "contract IJBFundAccessConstraintsStore",
          "name": "_fundAccessConstraintsStore",
          "type": "address"
        }
      ],
      "stateMutability": "nonpayable",
      "type": "constructor"
    },
    {
      "inputs": [],
      "name": "BURN_PAUSED_AND_SENDER_NOT_VALID_TERMINAL_DELEGATE",
      "type": "error"
    },
    {
      "inputs": [],
      "name": "CANT_MIGRATE_TO_CURRENT_CONTROLLER",
      "type": "error"
    },
    {
      "inputs": [],
      "name": "FUNDING_CYCLE_ALREADY_LAUNCHED",
      "type": "error"
    },
    {
      "inputs": [],
      "name": "INVALID_BALLOT_REDEMPTION_RATE",
      "type": "error"
    },
    {
      "inputs": [],
      "name": "INVALID_REDEMPTION_RATE",
      "type": "error"
    },
    {
      "inputs": [],
      "name": "INVALID_RESERVED_RATE",
      "type": "error"
    },
    {
      "inputs": [],
      "name": "MIGRATION_NOT_ALLOWED",
      "type": "error"
    },
    {
      "inputs": [],
      "name": "MINT_NOT_ALLOWED_AND_NOT_TERMINAL_DELEGATE",
      "type": "error"
    },
    {
      "inputs": [],
      "name": "NOT_CURRENT_CONTROLLER",
      "type": "error"
    },
    {
      "inputs": [],
      "name": "NO_BURNABLE_TOKENS",
      "type": "error"
    },
    {
      "inputs": [],
      "name": "OVERFLOW_ALERT",
      "type": "error"
    },
    {
      "inputs": [
        {
          "internalType": "uint256",
          "name": "prod1",
          "type": "uint256"
        },
        {
          "internalType": "uint256",
          "name": "denominator",
          "type": "uint256"
        }
      ],
      "name": "PRBMath__MulDivOverflow",
      "type": "error"
    },
    {
      "inputs": [],
      "name": "UNAUTHORIZED",
      "type": "error"
    },
    {
      "inputs": [],
      "name": "ZERO_TOKENS_TO_MINT",
      "type": "error"
    },
    {
      "anonymous": false,
      "inputs": [
        {
          "indexed": true,
          "internalType": "address",
          "name": "holder",
          "type": "address"
        },
        {
          "indexed": true,
          "internalType": "uint256",
          "name": "projectId",
          "type": "uint256"
        },
        {
          "indexed": false,
          "internalType": "uint256",
          "name": "tokenCount",
          "type": "uint256"
        },
        {
          "indexed": false,
          "internalType": "string",
          "name": "memo",
          "type": "string"
        },
        {
          "indexed": false,
          "internalType": "address",
          "name": "caller",
          "type": "address"
        }
      ],
      "name": "BurnTokens",
      "type": "event"
    },
    {
      "anonymous": false,
      "inputs": [
        {
          "indexed": true,
          "internalType": "uint256",
          "name": "fundingCycleConfiguration",
          "type": "uint256"
        },
        {
          "indexed": true,
          "internalType": "uint256",
          "name": "fundingCycleNumber",
          "type": "uint256"
        },
        {
          "indexed": true,
          "internalType": "uint256",
          "name": "projectId",
          "type": "uint256"
        },
        {
          "indexed": false,
          "internalType": "address",
          "name": "beneficiary",
          "type": "address"
        },
        {
          "indexed": false,
          "internalType": "uint256",
          "name": "tokenCount",
          "type": "uint256"
        },
        {
          "indexed": false,
          "internalType": "uint256",
          "name": "beneficiaryTokenCount",
          "type": "uint256"
        },
        {
          "indexed": false,
          "internalType": "string",
          "name": "memo",
          "type": "string"
        },
        {
          "indexed": false,
          "internalType": "address",
          "name": "caller",
          "type": "address"
        }
      ],
      "name": "DistributeReservedTokens",
      "type": "event"
    },
    {
      "anonymous": false,
      "inputs": [
        {
          "indexed": true,
          "internalType": "uint256",
          "name": "projectId",
          "type": "uint256"
        },
        {
          "indexed": true,
          "internalType": "uint256",
          "name": "domain",
          "type": "uint256"
        },
        {
          "indexed": true,
          "internalType": "uint256",
          "name": "group",
          "type": "uint256"
        },
        {
          "components": [
            {
              "internalType": "bool",
              "name": "preferClaimed",
              "type": "bool"
            },
            {
              "internalType": "bool",
              "name": "preferAddToBalance",
              "type": "bool"
            },
            {
              "internalType": "uint256",
              "name": "percent",
              "type": "uint256"
            },
            {
              "internalType": "uint256",
              "name": "projectId",
              "type": "uint256"
            },
            {
              "internalType": "address payable",
              "name": "beneficiary",
              "type": "address"
            },
            {
              "internalType": "uint256",
              "name": "lockedUntil",
              "type": "uint256"
            },
            {
              "internalType": "contract IJBSplitAllocator",
              "name": "allocator",
              "type": "address"
            }
          ],
          "indexed": false,
          "internalType": "struct JBSplit",
          "name": "split",
          "type": "tuple"
        },
        {
          "indexed": false,
          "internalType": "uint256",
          "name": "tokenCount",
          "type": "uint256"
        },
        {
          "indexed": false,
          "internalType": "address",
          "name": "caller",
          "type": "address"
        }
      ],
      "name": "DistributeToReservedTokenSplit",
      "type": "event"
    },
    {
      "anonymous": false,
      "inputs": [
        {
          "indexed": false,
          "internalType": "uint256",
          "name": "configuration",
          "type": "uint256"
        },
        {
          "indexed": false,
          "internalType": "uint256",
          "name": "projectId",
          "type": "uint256"
        },
        {
          "indexed": false,
          "internalType": "string",
          "name": "memo",
          "type": "string"
        },
        {
          "indexed": false,
          "internalType": "address",
          "name": "caller",
          "type": "address"
        }
      ],
      "name": "LaunchFundingCycles",
      "type": "event"
    },
    {
      "anonymous": false,
      "inputs": [
        {
          "indexed": false,
          "internalType": "uint256",
          "name": "configuration",
          "type": "uint256"
        },
        {
          "indexed": false,
          "internalType": "uint256",
          "name": "projectId",
          "type": "uint256"
        },
        {
          "indexed": false,
          "internalType": "string",
          "name": "memo",
          "type": "string"
        },
        {
          "indexed": false,
          "internalType": "address",
          "name": "caller",
          "type": "address"
        }
      ],
      "name": "LaunchProject",
      "type": "event"
    },
    {
      "anonymous": false,
      "inputs": [
        {
          "indexed": true,
          "internalType": "uint256",
          "name": "projectId",
          "type": "uint256"
        },
        {
          "indexed": false,
          "internalType": "contract IJBMigratable",
          "name": "to",
          "type": "address"
        },
        {
          "indexed": false,
          "internalType": "address",
          "name": "caller",
          "type": "address"
        }
      ],
      "name": "Migrate",
      "type": "event"
    },
    {
      "anonymous": false,
      "inputs": [
        {
          "indexed": true,
          "internalType": "address",
          "name": "beneficiary",
          "type": "address"
        },
        {
          "indexed": true,
          "internalType": "uint256",
          "name": "projectId",
          "type": "uint256"
        },
        {
          "indexed": false,
          "internalType": "uint256",
          "name": "tokenCount",
          "type": "uint256"
        },
        {
          "indexed": false,
          "internalType": "uint256",
          "name": "beneficiaryTokenCount",
          "type": "uint256"
        },
        {
          "indexed": false,
          "internalType": "string",
          "name": "memo",
          "type": "string"
        },
        {
          "indexed": false,
          "internalType": "uint256",
          "name": "reservedRate",
          "type": "uint256"
        },
        {
          "indexed": false,
          "internalType": "address",
          "name": "caller",
          "type": "address"
        }
      ],
      "name": "MintTokens",
      "type": "event"
    },
    {
      "anonymous": false,
      "inputs": [
        {
          "indexed": true,
          "internalType": "uint256",
          "name": "projectId",
          "type": "uint256"
        },
        {
          "indexed": false,
          "internalType": "address",
          "name": "from",
          "type": "address"
        },
        {
          "indexed": false,
          "internalType": "address",
          "name": "caller",
          "type": "address"
        }
      ],
      "name": "PrepMigration",
      "type": "event"
    },
    {
      "anonymous": false,
      "inputs": [
        {
          "indexed": false,
          "internalType": "uint256",
          "name": "configuration",
          "type": "uint256"
        },
        {
          "indexed": false,
          "internalType": "uint256",
          "name": "projectId",
          "type": "uint256"
        },
        {
          "indexed": false,
          "internalType": "string",
          "name": "memo",
          "type": "string"
        },
        {
          "indexed": false,
          "internalType": "address",
          "name": "caller",
          "type": "address"
        }
      ],
      "name": "ReconfigureFundingCycles",
      "type": "event"
    },
    {
      "inputs": [
        {
          "internalType": "address",
          "name": "_holder",
          "type": "address"
        },
        {
          "internalType": "uint256",
          "name": "_projectId",
          "type": "uint256"
        },
        {
          "internalType": "uint256",
          "name": "_tokenCount",
          "type": "uint256"
        },
        {
          "internalType": "string",
          "name": "_memo",
          "type": "string"
        },
        {
          "internalType": "bool",
          "name": "_preferClaimedTokens",
          "type": "bool"
        }
      ],
      "name": "burnTokensOf",
      "outputs": [],
      "stateMutability": "nonpayable",
      "type": "function"
    },
    {
      "inputs": [
        {
          "internalType": "uint256",
          "name": "_projectId",
          "type": "uint256"
        }
      ],
      "name": "currentFundingCycleOf",
      "outputs": [
        {
          "components": [
            {
              "internalType": "uint256",
              "name": "number",
              "type": "uint256"
            },
            {
              "internalType": "uint256",
              "name": "configuration",
              "type": "uint256"
            },
            {
              "internalType": "uint256",
              "name": "basedOn",
              "type": "uint256"
            },
            {
              "internalType": "uint256",
              "name": "start",
              "type": "uint256"
            },
            {
              "internalType": "uint256",
              "name": "duration",
              "type": "uint256"
            },
            {
              "internalType": "uint256",
              "name": "weight",
              "type": "uint256"
            },
            {
              "internalType": "uint256",
              "name": "discountRate",
              "type": "uint256"
            },
            {
              "internalType": "contract IJBFundingCycleBallot",
              "name": "ballot",
              "type": "address"
            },
            {
              "internalType": "uint256",
              "name": "metadata",
              "type": "uint256"
            }
          ],
          "internalType": "struct JBFundingCycle",
          "name": "fundingCycle",
          "type": "tuple"
        },
        {
          "components": [
            {
              "components": [
                {
                  "internalType": "bool",
                  "name": "allowSetTerminals",
                  "type": "bool"
                },
                {
                  "internalType": "bool",
                  "name": "allowSetController",
                  "type": "bool"
                },
                {
                  "internalType": "bool",
                  "name": "pauseTransfers",
                  "type": "bool"
                }
              ],
              "internalType": "struct JBGlobalFundingCycleMetadata",
              "name": "global",
              "type": "tuple"
            },
            {
              "internalType": "uint256",
              "name": "reservedRate",
              "type": "uint256"
            },
            {
              "internalType": "uint256",
              "name": "redemptionRate",
              "type": "uint256"
            },
            {
              "internalType": "uint256",
              "name": "ballotRedemptionRate",
              "type": "uint256"
            },
            {
              "internalType": "bool",
              "name": "pausePay",
              "type": "bool"
            },
            {
              "internalType": "bool",
              "name": "pauseDistributions",
              "type": "bool"
            },
            {
              "internalType": "bool",
              "name": "pauseRedeem",
              "type": "bool"
            },
            {
              "internalType": "bool",
              "name": "pauseBurn",
              "type": "bool"
            },
            {
              "internalType": "bool",
              "name": "allowMinting",
              "type": "bool"
            },
            {
              "internalType": "bool",
              "name": "allowTerminalMigration",
              "type": "bool"
            },
            {
              "internalType": "bool",
              "name": "allowControllerMigration",
              "type": "bool"
            },
            {
              "internalType": "bool",
              "name": "holdFees",
              "type": "bool"
            },
            {
              "internalType": "bool",
              "name": "preferClaimedTokenOverride",
              "type": "bool"
            },
            {
              "internalType": "bool",
              "name": "useTotalOverflowForRedemptions",
              "type": "bool"
            },
            {
              "internalType": "bool",
              "name": "useDataSourceForPay",
              "type": "bool"
            },
            {
              "internalType": "bool",
              "name": "useDataSourceForRedeem",
              "type": "bool"
            },
            {
              "internalType": "address",
              "name": "dataSource",
              "type": "address"
            },
            {
              "internalType": "uint256",
              "name": "metadata",
              "type": "uint256"
            }
          ],
          "internalType": "struct JBFundingCycleMetadata",
          "name": "metadata",
          "type": "tuple"
        }
      ],
      "stateMutability": "view",
      "type": "function"
    },
    {
      "inputs": [],
      "name": "directory",
      "outputs": [
        {
          "internalType": "contract IJBDirectory",
          "name": "",
          "type": "address"
        }
      ],
      "stateMutability": "view",
      "type": "function"
    },
    {
      "inputs": [
        {
          "internalType": "uint256",
          "name": "_projectId",
          "type": "uint256"
        },
        {
          "internalType": "string",
          "name": "_memo",
          "type": "string"
        }
      ],
      "name": "distributeReservedTokensOf",
      "outputs": [
        {
          "internalType": "uint256",
          "name": "",
          "type": "uint256"
        }
      ],
      "stateMutability": "nonpayable",
      "type": "function"
    },
    {
      "inputs": [],
      "name": "fundAccessConstraintsStore",
      "outputs": [
        {
          "internalType": "contract IJBFundAccessConstraintsStore",
          "name": "",
          "type": "address"
        }
      ],
      "stateMutability": "view",
      "type": "function"
    },
    {
      "inputs": [],
      "name": "fundingCycleStore",
      "outputs": [
        {
          "internalType": "contract IJBFundingCycleStore",
          "name": "",
          "type": "address"
        }
      ],
      "stateMutability": "view",
      "type": "function"
    },
    {
      "inputs": [
        {
          "internalType": "uint256",
          "name": "_projectId",
          "type": "uint256"
        },
        {
          "internalType": "uint256",
          "name": "_configuration",
          "type": "uint256"
        }
      ],
      "name": "getFundingCycleOf",
      "outputs": [
        {
          "components": [
            {
              "internalType": "uint256",
              "name": "number",
              "type": "uint256"
            },
            {
              "internalType": "uint256",
              "name": "configuration",
              "type": "uint256"
            },
            {
              "internalType": "uint256",
              "name": "basedOn",
              "type": "uint256"
            },
            {
              "internalType": "uint256",
              "name": "start",
              "type": "uint256"
            },
            {
              "internalType": "uint256",
              "name": "duration",
              "type": "uint256"
            },
            {
              "internalType": "uint256",
              "name": "weight",
              "type": "uint256"
            },
            {
              "internalType": "uint256",
              "name": "discountRate",
              "type": "uint256"
            },
            {
              "internalType": "contract IJBFundingCycleBallot",
              "name": "ballot",
              "type": "address"
            },
            {
              "internalType": "uint256",
              "name": "metadata",
              "type": "uint256"
            }
          ],
          "internalType": "struct JBFundingCycle",
          "name": "fundingCycle",
          "type": "tuple"
        },
        {
          "components": [
            {
              "components": [
                {
                  "internalType": "bool",
                  "name": "allowSetTerminals",
                  "type": "bool"
                },
                {
                  "internalType": "bool",
                  "name": "allowSetController",
                  "type": "bool"
                },
                {
                  "internalType": "bool",
                  "name": "pauseTransfers",
                  "type": "bool"
                }
              ],
              "internalType": "struct JBGlobalFundingCycleMetadata",
              "name": "global",
              "type": "tuple"
            },
            {
              "internalType": "uint256",
              "name": "reservedRate",
              "type": "uint256"
            },
            {
              "internalType": "uint256",
              "name": "redemptionRate",
              "type": "uint256"
            },
            {
              "internalType": "uint256",
              "name": "ballotRedemptionRate",
              "type": "uint256"
            },
            {
              "internalType": "bool",
              "name": "pausePay",
              "type": "bool"
            },
            {
              "internalType": "bool",
              "name": "pauseDistributions",
              "type": "bool"
            },
            {
              "internalType": "bool",
              "name": "pauseRedeem",
              "type": "bool"
            },
            {
              "internalType": "bool",
              "name": "pauseBurn",
              "type": "bool"
            },
            {
              "internalType": "bool",
              "name": "allowMinting",
              "type": "bool"
            },
            {
              "internalType": "bool",
              "name": "allowTerminalMigration",
              "type": "bool"
            },
            {
              "internalType": "bool",
              "name": "allowControllerMigration",
              "type": "bool"
            },
            {
              "internalType": "bool",
              "name": "holdFees",
              "type": "bool"
            },
            {
              "internalType": "bool",
              "name": "preferClaimedTokenOverride",
              "type": "bool"
            },
            {
              "internalType": "bool",
              "name": "useTotalOverflowForRedemptions",
              "type": "bool"
            },
            {
              "internalType": "bool",
              "name": "useDataSourceForPay",
              "type": "bool"
            },
            {
              "internalType": "bool",
              "name": "useDataSourceForRedeem",
              "type": "bool"
            },
            {
              "internalType": "address",
              "name": "dataSource",
              "type": "address"
            },
            {
              "internalType": "uint256",
              "name": "metadata",
              "type": "uint256"
            }
          ],
          "internalType": "struct JBFundingCycleMetadata",
          "name": "metadata",
          "type": "tuple"
        }
      ],
      "stateMutability": "view",
      "type": "function"
    },
    {
      "inputs": [
        {
          "internalType": "uint256",
          "name": "_projectId",
          "type": "uint256"
        }
      ],
      "name": "latestConfiguredFundingCycleOf",
      "outputs": [
        {
          "components": [
            {
              "internalType": "uint256",
              "name": "number",
              "type": "uint256"
            },
            {
              "internalType": "uint256",
              "name": "configuration",
              "type": "uint256"
            },
            {
              "internalType": "uint256",
              "name": "basedOn",
              "type": "uint256"
            },
            {
              "internalType": "uint256",
              "name": "start",
              "type": "uint256"
            },
            {
              "internalType": "uint256",
              "name": "duration",
              "type": "uint256"
            },
            {
              "internalType": "uint256",
              "name": "weight",
              "type": "uint256"
            },
            {
              "internalType": "uint256",
              "name": "discountRate",
              "type": "uint256"
            },
            {
              "internalType": "contract IJBFundingCycleBallot",
              "name": "ballot",
              "type": "address"
            },
            {
              "internalType": "uint256",
              "name": "metadata",
              "type": "uint256"
            }
          ],
          "internalType": "struct JBFundingCycle",
          "name": "fundingCycle",
          "type": "tuple"
        },
        {
          "components": [
            {
              "components": [
                {
                  "internalType": "bool",
                  "name": "allowSetTerminals",
                  "type": "bool"
                },
                {
                  "internalType": "bool",
                  "name": "allowSetController",
                  "type": "bool"
                },
                {
                  "internalType": "bool",
                  "name": "pauseTransfers",
                  "type": "bool"
                }
              ],
              "internalType": "struct JBGlobalFundingCycleMetadata",
              "name": "global",
              "type": "tuple"
            },
            {
              "internalType": "uint256",
              "name": "reservedRate",
              "type": "uint256"
            },
            {
              "internalType": "uint256",
              "name": "redemptionRate",
              "type": "uint256"
            },
            {
              "internalType": "uint256",
              "name": "ballotRedemptionRate",
              "type": "uint256"
            },
            {
              "internalType": "bool",
              "name": "pausePay",
              "type": "bool"
            },
            {
              "internalType": "bool",
              "name": "pauseDistributions",
              "type": "bool"
            },
            {
              "internalType": "bool",
              "name": "pauseRedeem",
              "type": "bool"
            },
            {
              "internalType": "bool",
              "name": "pauseBurn",
              "type": "bool"
            },
            {
              "internalType": "bool",
              "name": "allowMinting",
              "type": "bool"
            },
            {
              "internalType": "bool",
              "name": "allowTerminalMigration",
              "type": "bool"
            },
            {
              "internalType": "bool",
              "name": "allowControllerMigration",
              "type": "bool"
            },
            {
              "internalType": "bool",
              "name": "holdFees",
              "type": "bool"
            },
            {
              "internalType": "bool",
              "name": "preferClaimedTokenOverride",
              "type": "bool"
            },
            {
              "internalType": "bool",
              "name": "useTotalOverflowForRedemptions",
              "type": "bool"
            },
            {
              "internalType": "bool",
              "name": "useDataSourceForPay",
              "type": "bool"
            },
            {
              "internalType": "bool",
              "name": "useDataSourceForRedeem",
              "type": "bool"
            },
            {
              "internalType": "address",
              "name": "dataSource",
              "type": "address"
            },
            {
              "internalType": "uint256",
              "name": "metadata",
              "type": "uint256"
            }
          ],
          "internalType": "struct JBFundingCycleMetadata",
          "name": "metadata",
          "type": "tuple"
        },
        {
          "internalType": "enum JBBallotState",
          "name": "ballotState",
          "type": "uint8"
        }
      ],
      "stateMutability": "view",
      "type": "function"
    },
    {
      "inputs": [
        {
          "internalType": "uint256",
          "name": "_projectId",
          "type": "uint256"
        },
        {
          "components": [
            {
              "internalType": "uint256",
              "name": "duration",
              "type": "uint256"
            },
            {
              "internalType": "uint256",
              "name": "weight",
              "type": "uint256"
            },
            {
              "internalType": "uint256",
              "name": "discountRate",
              "type": "uint256"
            },
            {
              "internalType": "contract IJBFundingCycleBallot",
              "name": "ballot",
              "type": "address"
            }
          ],
          "internalType": "struct JBFundingCycleData",
          "name": "_data",
          "type": "tuple"
        },
        {
          "components": [
            {
              "components": [
                {
                  "internalType": "bool",
                  "name": "allowSetTerminals",
                  "type": "bool"
                },
                {
                  "internalType": "bool",
                  "name": "allowSetController",
                  "type": "bool"
                },
                {
                  "internalType": "bool",
                  "name": "pauseTransfers",
                  "type": "bool"
                }
              ],
              "internalType": "struct JBGlobalFundingCycleMetadata",
              "name": "global",
              "type": "tuple"
            },
            {
              "internalType": "uint256",
              "name": "reservedRate",
              "type": "uint256"
            },
            {
              "internalType": "uint256",
              "name": "redemptionRate",
              "type": "uint256"
            },
            {
              "internalType": "uint256",
              "name": "ballotRedemptionRate",
              "type": "uint256"
            },
            {
              "internalType": "bool",
              "name": "pausePay",
              "type": "bool"
            },
            {
              "internalType": "bool",
              "name": "pauseDistributions",
              "type": "bool"
            },
            {
              "internalType": "bool",
              "name": "pauseRedeem",
              "type": "bool"
            },
            {
              "internalType": "bool",
              "name": "pauseBurn",
              "type": "bool"
            },
            {
              "internalType": "bool",
              "name": "allowMinting",
              "type": "bool"
            },
            {
              "internalType": "bool",
              "name": "allowTerminalMigration",
              "type": "bool"
            },
            {
              "internalType": "bool",
              "name": "allowControllerMigration",
              "type": "bool"
            },
            {
              "internalType": "bool",
              "name": "holdFees",
              "type": "bool"
            },
            {
              "internalType": "bool",
              "name": "preferClaimedTokenOverride",
              "type": "bool"
            },
            {
              "internalType": "bool",
              "name": "useTotalOverflowForRedemptions",
              "type": "bool"
            },
            {
              "internalType": "bool",
              "name": "useDataSourceForPay",
              "type": "bool"
            },
            {
              "internalType": "bool",
              "name": "useDataSourceForRedeem",
              "type": "bool"
            },
            {
              "internalType": "address",
              "name": "dataSource",
              "type": "address"
            },
            {
              "internalType": "uint256",
              "name": "metadata",
              "type": "uint256"
            }
          ],
          "internalType": "struct JBFundingCycleMetadata",
          "name": "_metadata",
          "type": "tuple"
        },
        {
          "internalType": "uint256",
          "name": "_mustStartAtOrAfter",
          "type": "uint256"
        },
        {
          "components": [
            {
              "internalType": "uint256",
              "name": "group",
              "type": "uint256"
            },
            {
              "components": [
                {
                  "internalType": "bool",
                  "name": "preferClaimed",
                  "type": "bool"
                },
                {
                  "internalType": "bool",
                  "name": "preferAddToBalance",
                  "type": "bool"
                },
                {
                  "internalType": "uint256",
                  "name": "percent",
                  "type": "uint256"
                },
                {
                  "internalType": "uint256",
                  "name": "projectId",
                  "type": "uint256"
                },
                {
                  "internalType": "address payable",
                  "name": "beneficiary",
                  "type": "address"
                },
                {
                  "internalType": "uint256",
                  "name": "lockedUntil",
                  "type": "uint256"
                },
                {
                  "internalType": "contract IJBSplitAllocator",
                  "name": "allocator",
                  "type": "address"
                }
              ],
              "internalType": "struct JBSplit[]",
              "name": "splits",
              "type": "tuple[]"
            }
          ],
          "internalType": "struct JBGroupedSplits[]",
          "name": "_groupedSplits",
          "type": "tuple[]"
        },
        {
          "components": [
            {
              "internalType": "contract IJBPaymentTerminal",
              "name": "terminal",
              "type": "address"
            },
            {
              "internalType": "address",
              "name": "token",
              "type": "address"
            },
            {
              "internalType": "uint256",
              "name": "distributionLimit",
              "type": "uint256"
            },
            {
              "internalType": "uint256",
              "name": "distributionLimitCurrency",
              "type": "uint256"
            },
            {
              "internalType": "uint256",
              "name": "overflowAllowance",
              "type": "uint256"
            },
            {
              "internalType": "uint256",
              "name": "overflowAllowanceCurrency",
              "type": "uint256"
            }
          ],
          "internalType": "struct JBFundAccessConstraints[]",
          "name": "_fundAccessConstraints",
          "type": "tuple[]"
        },
        {
          "internalType": "contract IJBPaymentTerminal[]",
          "name": "_terminals",
          "type": "address[]"
        },
        {
          "internalType": "string",
          "name": "_memo",
          "type": "string"
        }
      ],
      "name": "launchFundingCyclesFor",
      "outputs": [
        {
          "internalType": "uint256",
          "name": "configuration",
          "type": "uint256"
        }
      ],
      "stateMutability": "nonpayable",
      "type": "function"
    },
    {
      "inputs": [
        {
          "internalType": "address",
          "name": "_owner",
          "type": "address"
        },
        {
          "components": [
            {
              "internalType": "string",
              "name": "content",
              "type": "string"
            },
            {
              "internalType": "uint256",
              "name": "domain",
              "type": "uint256"
            }
          ],
          "internalType": "struct JBProjectMetadata",
          "name": "_projectMetadata",
          "type": "tuple"
        },
        {
          "components": [
            {
              "internalType": "uint256",
              "name": "duration",
              "type": "uint256"
            },
            {
              "internalType": "uint256",
              "name": "weight",
              "type": "uint256"
            },
            {
              "internalType": "uint256",
              "name": "discountRate",
              "type": "uint256"
            },
            {
              "internalType": "contract IJBFundingCycleBallot",
              "name": "ballot",
              "type": "address"
            }
          ],
          "internalType": "struct JBFundingCycleData",
          "name": "_data",
          "type": "tuple"
        },
        {
          "components": [
            {
              "components": [
                {
                  "internalType": "bool",
                  "name": "allowSetTerminals",
                  "type": "bool"
                },
                {
                  "internalType": "bool",
                  "name": "allowSetController",
                  "type": "bool"
                },
                {
                  "internalType": "bool",
                  "name": "pauseTransfers",
                  "type": "bool"
                }
              ],
              "internalType": "struct JBGlobalFundingCycleMetadata",
              "name": "global",
              "type": "tuple"
            },
            {
              "internalType": "uint256",
              "name": "reservedRate",
              "type": "uint256"
            },
            {
              "internalType": "uint256",
              "name": "redemptionRate",
              "type": "uint256"
            },
            {
              "internalType": "uint256",
              "name": "ballotRedemptionRate",
              "type": "uint256"
            },
            {
              "internalType": "bool",
              "name": "pausePay",
              "type": "bool"
            },
            {
              "internalType": "bool",
              "name": "pauseDistributions",
              "type": "bool"
            },
            {
              "internalType": "bool",
              "name": "pauseRedeem",
              "type": "bool"
            },
            {
              "internalType": "bool",
              "name": "pauseBurn",
              "type": "bool"
            },
            {
              "internalType": "bool",
              "name": "allowMinting",
              "type": "bool"
            },
            {
              "internalType": "bool",
              "name": "allowTerminalMigration",
              "type": "bool"
            },
            {
              "internalType": "bool",
              "name": "allowControllerMigration",
              "type": "bool"
            },
            {
              "internalType": "bool",
              "name": "holdFees",
              "type": "bool"
            },
            {
              "internalType": "bool",
              "name": "preferClaimedTokenOverride",
              "type": "bool"
            },
            {
              "internalType": "bool",
              "name": "useTotalOverflowForRedemptions",
              "type": "bool"
            },
            {
              "internalType": "bool",
              "name": "useDataSourceForPay",
              "type": "bool"
            },
            {
              "internalType": "bool",
              "name": "useDataSourceForRedeem",
              "type": "bool"
            },
            {
              "internalType": "address",
              "name": "dataSource",
              "type": "address"
            },
            {
              "internalType": "uint256",
              "name": "metadata",
              "type": "uint256"
            }
          ],
          "internalType": "struct JBFundingCycleMetadata",
          "name": "_metadata",
          "type": "tuple"
        },
        {
          "internalType": "uint256",
          "name": "_mustStartAtOrAfter",
          "type": "uint256"
        },
        {
          "components": [
            {
              "internalType": "uint256",
              "name": "group",
              "type": "uint256"
            },
            {
              "components": [
                {
                  "internalType": "bool",
                  "name": "preferClaimed",
                  "type": "bool"
                },
                {
                  "internalType": "bool",
                  "name": "preferAddToBalance",
                  "type": "bool"
                },
                {
                  "internalType": "uint256",
                  "name": "percent",
                  "type": "uint256"
                },
                {
                  "internalType": "uint256",
                  "name": "projectId",
                  "type": "uint256"
                },
                {
                  "internalType": "address payable",
                  "name": "beneficiary",
                  "type": "address"
                },
                {
                  "internalType": "uint256",
                  "name": "lockedUntil",
                  "type": "uint256"
                },
                {
                  "internalType": "contract IJBSplitAllocator",
                  "name": "allocator",
                  "type": "address"
                }
              ],
              "internalType": "struct JBSplit[]",
              "name": "splits",
              "type": "tuple[]"
            }
          ],
          "internalType": "struct JBGroupedSplits[]",
          "name": "_groupedSplits",
          "type": "tuple[]"
        },
        {
          "components": [
            {
              "internalType": "contract IJBPaymentTerminal",
              "name": "terminal",
              "type": "address"
            },
            {
              "internalType": "address",
              "name": "token",
              "type": "address"
            },
            {
              "internalType": "uint256",
              "name": "distributionLimit",
              "type": "uint256"
            },
            {
              "internalType": "uint256",
              "name": "distributionLimitCurrency",
              "type": "uint256"
            },
            {
              "internalType": "uint256",
              "name": "overflowAllowance",
              "type": "uint256"
            },
            {
              "internalType": "uint256",
              "name": "overflowAllowanceCurrency",
              "type": "uint256"
            }
          ],
          "internalType": "struct JBFundAccessConstraints[]",
          "name": "_fundAccessConstraints",
          "type": "tuple[]"
        },
        {
          "internalType": "contract IJBPaymentTerminal[]",
          "name": "_terminals",
          "type": "address[]"
        },
        {
          "internalType": "string",
          "name": "_memo",
          "type": "string"
        }
      ],
      "name": "launchProjectFor",
      "outputs": [
        {
          "internalType": "uint256",
          "name": "projectId",
          "type": "uint256"
        }
      ],
      "stateMutability": "nonpayable",
      "type": "function"
    },
    {
      "inputs": [
        {
          "internalType": "uint256",
          "name": "_projectId",
          "type": "uint256"
        },
        {
          "internalType": "contract IJBMigratable",
          "name": "_to",
          "type": "address"
        }
      ],
      "name": "migrate",
      "outputs": [],
      "stateMutability": "nonpayable",
      "type": "function"
    },
    {
      "inputs": [
        {
          "internalType": "uint256",
          "name": "_projectId",
          "type": "uint256"
        },
        {
          "internalType": "uint256",
          "name": "_tokenCount",
          "type": "uint256"
        },
        {
          "internalType": "address",
          "name": "_beneficiary",
          "type": "address"
        },
        {
          "internalType": "string",
          "name": "_memo",
          "type": "string"
        },
        {
          "internalType": "bool",
          "name": "_preferClaimedTokens",
          "type": "bool"
        },
        {
          "internalType": "bool",
          "name": "_useReservedRate",
          "type": "bool"
        }
      ],
      "name": "mintTokensOf",
      "outputs": [
        {
          "internalType": "uint256",
          "name": "beneficiaryTokenCount",
          "type": "uint256"
        }
      ],
      "stateMutability": "nonpayable",
      "type": "function"
    },
    {
      "inputs": [],
      "name": "operatorStore",
      "outputs": [
        {
          "internalType": "contract IJBOperatorStore",
          "name": "",
          "type": "address"
        }
      ],
      "stateMutability": "view",
      "type": "function"
    },
    {
      "inputs": [
        {
          "internalType": "uint256",
          "name": "_projectId",
          "type": "uint256"
        },
        {
          "internalType": "address",
          "name": "_from",
          "type": "address"
        }
      ],
      "name": "prepForMigrationOf",
      "outputs": [],
      "stateMutability": "nonpayable",
      "type": "function"
    },
    {
      "inputs": [],
      "name": "projects",
      "outputs": [
        {
          "internalType": "contract IJBProjects",
          "name": "",
          "type": "address"
        }
      ],
      "stateMutability": "view",
      "type": "function"
    },
    {
      "inputs": [
        {
          "internalType": "uint256",
          "name": "_projectId",
          "type": "uint256"
        }
      ],
      "name": "queuedFundingCycleOf",
      "outputs": [
        {
          "components": [
            {
              "internalType": "uint256",
              "name": "number",
              "type": "uint256"
            },
            {
              "internalType": "uint256",
              "name": "configuration",
              "type": "uint256"
            },
            {
              "internalType": "uint256",
              "name": "basedOn",
              "type": "uint256"
            },
            {
              "internalType": "uint256",
              "name": "start",
              "type": "uint256"
            },
            {
              "internalType": "uint256",
              "name": "duration",
              "type": "uint256"
            },
            {
              "internalType": "uint256",
              "name": "weight",
              "type": "uint256"
            },
            {
              "internalType": "uint256",
              "name": "discountRate",
              "type": "uint256"
            },
            {
              "internalType": "contract IJBFundingCycleBallot",
              "name": "ballot",
              "type": "address"
            },
            {
              "internalType": "uint256",
              "name": "metadata",
              "type": "uint256"
            }
          ],
          "internalType": "struct JBFundingCycle",
          "name": "fundingCycle",
          "type": "tuple"
        },
        {
          "components": [
            {
              "components": [
                {
                  "internalType": "bool",
                  "name": "allowSetTerminals",
                  "type": "bool"
                },
                {
                  "internalType": "bool",
                  "name": "allowSetController",
                  "type": "bool"
                },
                {
                  "internalType": "bool",
                  "name": "pauseTransfers",
                  "type": "bool"
                }
              ],
              "internalType": "struct JBGlobalFundingCycleMetadata",
              "name": "global",
              "type": "tuple"
            },
            {
              "internalType": "uint256",
              "name": "reservedRate",
              "type": "uint256"
            },
            {
              "internalType": "uint256",
              "name": "redemptionRate",
              "type": "uint256"
            },
            {
              "internalType": "uint256",
              "name": "ballotRedemptionRate",
              "type": "uint256"
            },
            {
              "internalType": "bool",
              "name": "pausePay",
              "type": "bool"
            },
            {
              "internalType": "bool",
              "name": "pauseDistributions",
              "type": "bool"
            },
            {
              "internalType": "bool",
              "name": "pauseRedeem",
              "type": "bool"
            },
            {
              "internalType": "bool",
              "name": "pauseBurn",
              "type": "bool"
            },
            {
              "internalType": "bool",
              "name": "allowMinting",
              "type": "bool"
            },
            {
              "internalType": "bool",
              "name": "allowTerminalMigration",
              "type": "bool"
            },
            {
              "internalType": "bool",
              "name": "allowControllerMigration",
              "type": "bool"
            },
            {
              "internalType": "bool",
              "name": "holdFees",
              "type": "bool"
            },
            {
              "internalType": "bool",
              "name": "preferClaimedTokenOverride",
              "type": "bool"
            },
            {
              "internalType": "bool",
              "name": "useTotalOverflowForRedemptions",
              "type": "bool"
            },
            {
              "internalType": "bool",
              "name": "useDataSourceForPay",
              "type": "bool"
            },
            {
              "internalType": "bool",
              "name": "useDataSourceForRedeem",
              "type": "bool"
            },
            {
              "internalType": "address",
              "name": "dataSource",
              "type": "address"
            },
            {
              "internalType": "uint256",
              "name": "metadata",
              "type": "uint256"
            }
          ],
          "internalType": "struct JBFundingCycleMetadata",
          "name": "metadata",
          "type": "tuple"
        }
      ],
      "stateMutability": "view",
      "type": "function"
    },
    {
      "inputs": [
        {
          "internalType": "uint256",
          "name": "_projectId",
          "type": "uint256"
        },
        {
          "components": [
            {
              "internalType": "uint256",
              "name": "duration",
              "type": "uint256"
            },
            {
              "internalType": "uint256",
              "name": "weight",
              "type": "uint256"
            },
            {
              "internalType": "uint256",
              "name": "discountRate",
              "type": "uint256"
            },
            {
              "internalType": "contract IJBFundingCycleBallot",
              "name": "ballot",
              "type": "address"
            }
          ],
          "internalType": "struct JBFundingCycleData",
          "name": "_data",
          "type": "tuple"
        },
        {
          "components": [
            {
              "components": [
                {
                  "internalType": "bool",
                  "name": "allowSetTerminals",
                  "type": "bool"
                },
                {
                  "internalType": "bool",
                  "name": "allowSetController",
                  "type": "bool"
                },
                {
                  "internalType": "bool",
                  "name": "pauseTransfers",
                  "type": "bool"
                }
              ],
              "internalType": "struct JBGlobalFundingCycleMetadata",
              "name": "global",
              "type": "tuple"
            },
            {
              "internalType": "uint256",
              "name": "reservedRate",
              "type": "uint256"
            },
            {
              "internalType": "uint256",
              "name": "redemptionRate",
              "type": "uint256"
            },
            {
              "internalType": "uint256",
              "name": "ballotRedemptionRate",
              "type": "uint256"
            },
            {
              "internalType": "bool",
              "name": "pausePay",
              "type": "bool"
            },
            {
              "internalType": "bool",
              "name": "pauseDistributions",
              "type": "bool"
            },
            {
              "internalType": "bool",
              "name": "pauseRedeem",
              "type": "bool"
            },
            {
              "internalType": "bool",
              "name": "pauseBurn",
              "type": "bool"
            },
            {
              "internalType": "bool",
              "name": "allowMinting",
              "type": "bool"
            },
            {
              "internalType": "bool",
              "name": "allowTerminalMigration",
              "type": "bool"
            },
            {
              "internalType": "bool",
              "name": "allowControllerMigration",
              "type": "bool"
            },
            {
              "internalType": "bool",
              "name": "holdFees",
              "type": "bool"
            },
            {
              "internalType": "bool",
              "name": "preferClaimedTokenOverride",
              "type": "bool"
            },
            {
              "internalType": "bool",
              "name": "useTotalOverflowForRedemptions",
              "type": "bool"
            },
            {
              "internalType": "bool",
              "name": "useDataSourceForPay",
              "type": "bool"
            },
            {
              "internalType": "bool",
              "name": "useDataSourceForRedeem",
              "type": "bool"
            },
            {
              "internalType": "address",
              "name": "dataSource",
              "type": "address"
            },
            {
              "internalType": "uint256",
              "name": "metadata",
              "type": "uint256"
            }
          ],
          "internalType": "struct JBFundingCycleMetadata",
          "name": "_metadata",
          "type": "tuple"
        },
        {
          "internalType": "uint256",
          "name": "_mustStartAtOrAfter",
          "type": "uint256"
        },
        {
          "components": [
            {
              "internalType": "uint256",
              "name": "group",
              "type": "uint256"
            },
            {
              "components": [
                {
                  "internalType": "bool",
                  "name": "preferClaimed",
                  "type": "bool"
                },
                {
                  "internalType": "bool",
                  "name": "preferAddToBalance",
                  "type": "bool"
                },
                {
                  "internalType": "uint256",
                  "name": "percent",
                  "type": "uint256"
                },
                {
                  "internalType": "uint256",
                  "name": "projectId",
                  "type": "uint256"
                },
                {
                  "internalType": "address payable",
                  "name": "beneficiary",
                  "type": "address"
                },
                {
                  "internalType": "uint256",
                  "name": "lockedUntil",
                  "type": "uint256"
                },
                {
                  "internalType": "contract IJBSplitAllocator",
                  "name": "allocator",
                  "type": "address"
                }
              ],
              "internalType": "struct JBSplit[]",
              "name": "splits",
              "type": "tuple[]"
            }
          ],
          "internalType": "struct JBGroupedSplits[]",
          "name": "_groupedSplits",
          "type": "tuple[]"
        },
        {
          "components": [
            {
              "internalType": "contract IJBPaymentTerminal",
              "name": "terminal",
              "type": "address"
            },
            {
              "internalType": "address",
              "name": "token",
              "type": "address"
            },
            {
              "internalType": "uint256",
              "name": "distributionLimit",
              "type": "uint256"
            },
            {
              "internalType": "uint256",
              "name": "distributionLimitCurrency",
              "type": "uint256"
            },
            {
              "internalType": "uint256",
              "name": "overflowAllowance",
              "type": "uint256"
            },
            {
              "internalType": "uint256",
              "name": "overflowAllowanceCurrency",
              "type": "uint256"
            }
          ],
          "internalType": "struct JBFundAccessConstraints[]",
          "name": "_fundAccessConstraints",
          "type": "tuple[]"
        },
        {
          "internalType": "string",
          "name": "_memo",
          "type": "string"
        }
      ],
      "name": "reconfigureFundingCyclesOf",
      "outputs": [
        {
          "internalType": "uint256",
          "name": "configuration",
          "type": "uint256"
        }
      ],
      "stateMutability": "nonpayable",
      "type": "function"
    },
    {
      "inputs": [
        {
          "internalType": "uint256",
          "name": "",
          "type": "uint256"
        }
      ],
      "name": "reservedTokenBalanceOf",
      "outputs": [
        {
          "internalType": "uint256",
          "name": "",
          "type": "uint256"
        }
      ],
      "stateMutability": "view",
      "type": "function"
    },
    {
      "inputs": [],
      "name": "splitsStore",
      "outputs": [
        {
          "internalType": "contract IJBSplitsStore",
          "name": "",
          "type": "address"
        }
      ],
      "stateMutability": "view",
      "type": "function"
    },
    {
      "inputs": [
        {
          "internalType": "bytes4",
          "name": "_interfaceId",
          "type": "bytes4"
        }
      ],
      "name": "supportsInterface",
      "outputs": [
        {
          "internalType": "bool",
          "name": "",
          "type": "bool"
        }
      ],
      "stateMutability": "view",
      "type": "function"
    },
    {
      "inputs": [],
      "name": "tokenStore",
      "outputs": [
        {
          "internalType": "contract IJBTokenStore",
          "name": "",
          "type": "address"
        }
      ],
      "stateMutability": "view",
      "type": "function"
    },
    {
      "inputs": [
        {
          "internalType": "uint256",
          "name": "_projectId",
          "type": "uint256"
        }
      ],
      "name": "totalOutstandingTokensOf",
      "outputs": [
        {
          "internalType": "uint256",
          "name": "",
          "type": "uint256"
        }
      ],
      "stateMutability": "view",
      "type": "function"
    }
  ],
  "bytecode": {
    "object": "0x61016034620002bb57601f62004d4d38819003918201601f19168301916001600160401b03831184841017620002c05780849260e094604052833981010312620002bb5780516001600160a01b03908181168103620002bb576020830151908282168203620002bb576040840151918383168303620002bb576060850151908482168203620002bb576080860151928584168403620002bb5760a0870151968688168803620002bb5760c001519586168603620002bb5760805260a05261014092835260c05260e05261010092835261012091825260405191614a769384620002d785396080518481816115fb01528181611c4101528181611d01015281816122ac015281816123490152818161289601528181612935015281816146ca015261476f015260a05184818161033a01528181610cf1015281816117800152818161188701528181611fc001528181612b4d01528181613e9d0152614400015260c0518481816106b4015281816110e2015281816116770152818161183101528181611ea201528181611f450152818161207f015281816124840152818161265201528181612a3801528181612bb001528181612f9e0152613e2c015260e0518481816101dc01528181611a4a01528181611f00015281816126a901528181613f46015281816141100152818161417c015261423c0152518381816106f50152818161077e01528181611123015281816111aa0152818161241101528181612fdf01528181613068015261402f0152518281816107bd0152818161083a015281816111e9015281816112640152818161173b015281816130a7015261312401525181818161017b01528181610d2c01528181610d84015281816112ec0152818161133f015281816118eb01528181611b700152818161200d015281816125d201528181612bef01528181612c48015281816131a301526131f80152f35b600080fd5b634e487b7160e01b600052604160045260246000fdfe608080604052600436101561001357600080fd5b600090813560e01c90816301ffc9a71461349e57508063111d861b14612a8057806312b37b14146129f35780631665bc0f146125595780631f510453146124405780632bdfe004146123fb5780633e8c615b146123d4578063405b84fa14611f74578063557e715514611f2f5780636193063014611eea5780638776c49914611e5d5780638ae9c07b146117af5780638b79543c1461176a578063a29a681414611725578063a40bb9c71461162a578063ad007d63146115e5578063b3c5267314610b85578063badbdf2814610295578063bdd504d71461026b578063c18f2d31146101aa578063c41c2f24146101655763e867c59c1461011357600080fd5b3461016257604036600319011261016257602435906001600160401b03821161016257602061015a61015261014b3660048701613952565b369161378e565b600435613e0d565b604051908152f35b80fd5b50346101625780600319360112610162576040517f00000000000000000000000000000000000000000000000000000000000000006001600160a01b03168152602090f35b50346101625760209081600319360112610162576040516375b0d9cd60e01b81526004803590820181905283826024817f00000000000000000000000000000000000000000000000000000000000000006001600160a01b03165afa91821561026057839261022a575b508260409161015a945260028552205490613b3a565b9091508381813d8311610259575b610242818361361d565b8101031261025457519061015a610214565b600080fd5b503d610238565b6040513d85823e3d90fd5b50346101625760203660031901126101625760406020916004358152600283522054604051908152f35b5034610162576103a0366003190112610162576080366023190112610162576102803660a3190112610162576001600160401b0361034435818111610949576102e290369060040161353b565b9161036435818111610b81576102fc90369060040161399b565b92909161038435908111610b7d57610318903690600401613952565b6040516331a9108f60e11b8152600480359082015291969095916020816024817f00000000000000000000000000000000000000000000000000000000000000006001600160a01b03165afa918215610b7157610399959492610391949261038a9291610b42575b5060043590614672565b3691613b7e565b92369161367f565b60006127106101043511610b30576127106101243511610b1e576127106101443511610b0c576040516103cb816135e6565b60603660a3190112610b08576040516103e3816135cb565b60a4358015158103610a1457815260c435151560c435036109495760c435602082015260e435151560e435036109495760e4356040820152808252610104356020830152610124356040830152610144356060830152610164351515610164350361094957610164356080830152610184358015158103610a145760a08301526101a4358015158103610a145760c08301526101c4358015158103610a145760e08301526101e4358015158103610a1457610100830152610204358015158103610a1457610120830152610224358015158103610a1457610140830152610244358015158103610a1457610160830152610264358015158103610a1457610180830152610284358015158103610a14576101a08301526102a43515156102a43503610949576102a4356101c08301526102c43515156102c43503610949576102c4356101e08301526102e4356001600160a01b0381169003610949576102e4356102008301526103043561022083015282908051610aff575b6020810151610af4575b60400151610aec575b61271061012435810311610ad857606082015161271003906127108211610ac457906102209160018260381b610124356127100360281b6101043560181b8460081b17171717916080850151610a91575b505060a0830151610a86575b60c0830151610a7b575b60e0830151610a70575b610100830151610a65575b610120830151610a5a575b610140830151610a4f575b610160830151610a44575b610180830151610a39575b6101a0830151610a2e575b6101c0830151610a23575b6101e0830151610a18575b600160541b600160f41b0361020084015160541b161791015160f41b17926040519363a249d42560e01b8552600435600486015260243560248601526044356044860152606435606486015260843560018060a01b038116809103610a1457608486015260a48501526103243560c48501526101208460e481857f00000000000000000000000000000000000000000000000000000000000000006001600160a01b03165af19384156108e25782946109d2575b506020840151907f00000000000000000000000000000000000000000000000000000000000000006001600160a01b03163b156109495790829060405192839163796d225b60e11b83526064830190600435600485015260248401526060604484015281518091526084830190602060848260051b86010193019185905b82821061095c5750505090829003905081837f00000000000000000000000000000000000000000000000000000000000000006001600160a01b03165af180156108e25761094d575b50602083015190917f00000000000000000000000000000000000000000000000000000000000000006001600160a01b03163b1561094957908260405180936334002f3160e01b8252606482019360043560048401526024830152606060448301528051809452602060848301910193835b8181106108ed575092935090915081900381837f00000000000000000000000000000000000000000000000000000000000000006001600160a01b03165af180156108e2576108ce575b6020847f1a08ad37c93969a586fd0605d240c17113b20a9c9ac3847595d0ab425225f6af8783870151926108bd60405192839286845260043588850152608060408501526080840191613b5d565b3360608301520390a1604051908152f35b6108d8829161356b565b610162578061086f565b6040513d84823e3d90fd5b92509250602060c060019260a087518580831b0381511683528580831b03858201511685840152604081015160408401526060810151606084015260808101516080840152015160a08201520194019101928592859294610825565b8280fd5b6109569061356b565b386107b3565b929550929093506083198682030182528451602060608160408501938051865201519360408382015284518094520192019088905b8082106109b25750505060208060019296019201920192859387959361076a565b909192602060e0826109c76001948851614622565b019401920190610991565b9093506101203d61012011610a0d575b6109ec818361361d565b6101208282810103126109495790610a0691810190613aba565b92386106ec565b503d6109e2565b8380fd5b600160531b17610638565b600160521b1761062d565b600160511b17610622565b600160501b17610617565b6001604f1b1761060c565b6001604e1b17610601565b6001604d1b176105f6565b6001604c1b176105eb565b6001604b1b176105e0565b6001604a1b176105d6565b600160491b176105cc565b6901000000000000000001925060381b90610124356127100360281b906101043560181b9060081b1717171738806105c0565b634e487b7160e01b84526011600452602484fd5b634e487b7160e01b83526011600452602483fd5b60041761056f565b600290911790610566565b6001915061055c565b5080fd5b604051636edf8de360e11b8152600490fd5b604051639db9ee9360e01b8152600490fd5b604051635623289560e01b8152600490fd5b610b64915060203d602011610b6a575b610b5c818361361d565b810190613dd4565b38610380565b503d610b52565b604051903d90823e3d90fd5b8580fd5b8480fd5b5034610162576003196103e036820112610b0857610ba1613669565b906001600160401b03602435116109495760409060243536030112610b08576080366043190112610b08576102803660c3190112610b0857610364356001600160401b03811161094957610bf990369060040161353b565b9092610384356001600160401b038111610b0857610c1b90369060040161399b565b906001600160401b036103a4351161094957610c3d366103a435600401613728565b956001600160401b036103c43511610a1457610c5f366103c4356004016137d4565b94604051966303336c3d60e51b885260018060a01b031660048801526040602488015260243560040135602219602435360301811215610b7d57602435016001600160401b03600482013511610b7d57600481013536036024820113610b7d578780610ce1602093604060448401526084830190602460048201359101613b5d565b60248035013560648301520381887f00000000000000000000000000000000000000000000000000000000000000006001600160a01b03165af19687156115da5785976115a6575b507f00000000000000000000000000000000000000000000000000000000000000006001600160a01b03163b15610b81576040516338a73f9960e11b8152600481018890523060248201528581604481836001600160a01b037f0000000000000000000000000000000000000000000000000000000000000000165af1801561159b57908691611587575b5050610dc69291610391913691613b7e565b60006127106101243511610b30576127106101443511610b1e576127106101643511610b0c57604051610df8816135e6565b60603660c3190112610b0857604051610e10816135cb565b60c4358015158103610a1457815260e435151560e435036109495760e4356020820152610104351515610104350361094957610104356040820152808252610124356020830152610144356040830152610164356060830152610184358015158103610a145760808301526101a43515156101a43503610949576101a43560a08301526101c4358015158103610a145760c08301526101e4358015158103610a145760e0830152610204358015158103610a1457610100830152610224358015158103610a1457610120830152610244358015158103610a1457610140830152610264358015158103610a1457610160830152610284358015158103610a14576101808301526102a4358015158103610a14576101a08301526102c43515156102c43503610949576102c4356101c08301526102e43515156102e43503610949576102e4356101e0830152610304356001600160a01b03811690036109495761030435610200830152610324356102208301528290805161157e575b6020810151611573575b6040015161156b575b61271061014435810311610ad857606082015161271003906127108211610ac457906102209160018260381b610144356127100360281b6101243560181b8460081b17171717916080850151611538575b505060a083015161152d575b60c0830151611522575b60e0830151611517575b61010083015161150c575b610120830151611501575b6101408301516114f6575b6101608301516114eb575b6101808301516114e0575b6101a08301516114d5575b6101c08301516114ca575b6101e08301516114bf575b600160541b600160f41b0361020084015160541b161791015160f41b17926040519363a249d42560e01b855287600486015260443560248601526064356044860152608435606486015260a43560018060a01b038116809103610a1457608486015260a48501526103443560c48501526101208460e481857f00000000000000000000000000000000000000000000000000000000000000006001600160a01b03165af19384156108e257829461147d575b506020840151907f00000000000000000000000000000000000000000000000000000000000000006001600160a01b03163b156109495790829060405192839163796d225b60e11b835260648301908b600485015260248401526060604484015281518091526084830190602060848260051b86010193019185905b8282106114075750505090829003905081837f00000000000000000000000000000000000000000000000000000000000000006001600160a01b03165af180156108e2576113f8575b50602083015190917f00000000000000000000000000000000000000000000000000000000000000006001600160a01b03163b1561094957908260405180936334002f3160e01b825260648201938a60048401526024830152606060448301528051809452602060848301910193835b81811061139c575092935090915081900381837f00000000000000000000000000000000000000000000000000000000000000006001600160a01b03165af180156108e257611388575b5050602001519380516112ea575b6020847ff3e6948ba8b32d557363ea08470121c47c0127659aed09320812174d373afef287866112df60405192839286339285613da1565b0390a1604051908152f35b7f00000000000000000000000000000000000000000000000000000000000000006001600160a01b03163b15610b08578161133a916040518093819263104373fb60e31b83528860048401613d14565b0381837f00000000000000000000000000000000000000000000000000000000000000006001600160a01b03165af180156108e257156112a75761137e829161356b565b61016257806112a7565b611392829161356b565b6101625780611299565b92509250602060c060019260a087518580831b0381511683528580831b03858201511685840152604081015160408401526060810151606084015260808101516080840152015160a0820152019401910192859285929461124f565b6114019061356b565b386111df565b929550929093506083198682030182528451602060608160408501938051865201519360408382015284518094520192019088905b80821061145d57505050602080600192960192019201928593879593611196565b909192602060e0826114726001948851614622565b01940192019061143c565b9093506101203d610120116114b8575b611497818361361d565b61012082828101031261094957906114b191810190613aba565b923861111a565b503d61148d565b600160531b17611068565b600160521b1761105d565b600160511b17611052565b600160501b17611047565b6001604f1b1761103c565b6001604e1b17611031565b6001604d1b17611026565b6001604c1b1761101b565b6001604b1b17611010565b6001604a1b17611006565b600160491b17610ffc565b6901000000000000000001925060381b90610144356127100360281b906101243560181b9060081b171717173880610ff0565b600417610f9f565b600290911790610f96565b60019150610f8c565b6115909061356b565b610b81578438610db4565b6040513d88823e3d90fd5b9096506020813d6020116115d2575b816115c26020938361361d565b8101031261025457519538610d29565b3d91506115b5565b6040513d87823e3d90fd5b50346101625780600319360112610162576040517f00000000000000000000000000000000000000000000000000000000000000006001600160a01b03168152602090f35b5034610162576040366003190112610162576116446139cb565b5061164d613a2f565b5060405163334f245560e11b815260048035908201526024803590820152906101209081836044817f00000000000000000000000000000000000000000000000000000000000000006001600160a01b03165afa9283156117185781936116d8575b6103a0846116d6856116c0836147e2565b906116ce60405180956137f2565b830190613850565bf35b909250813d8311611711575b6116ee818361361d565b8101928282850312610162575061170b6103a0936116d692613aba565b926116af565b503d6116e4565b50604051903d90823e3d90fd5b50346101625780600319360112610162576040517f00000000000000000000000000000000000000000000000000000000000000006001600160a01b03168152602090f35b50346101625780600319360112610162576040517f00000000000000000000000000000000000000000000000000000000000000006001600160a01b03168152602090f35b50346101625760c0366003190112610162576044356001600160a01b0381169003610254576064356001600160401b038111610b08576117f3903690600401613952565b6117fb61397f565b60a435151560a4350361025457839260243515611e4b576040516321d1336160e11b8152600480359082015291610120836024817f00000000000000000000000000000000000000000000000000000000000000006001600160a01b03165afa92831561159b578693611e0d575b506040516331a9108f60e11b815260048035908201526020816024817f00000000000000000000000000000000000000000000000000000000000000006001600160a01b03165afa908115611be5578791611dee575b50604051636e49181f60e01b815260048035908201523360248201526020816044816001600160a01b037f0000000000000000000000000000000000000000000000000000000000000000165afa908115611de3578891611da5575b508015611d88575b159081611d74575b81611cc0575b81611c02575b50611bf057600180610100850151604c1c16141580611b44575b80611b26575b611b145760a43515611b0d5761ffff61010084015160181c16925b811515600103611af857505b612710808403611a2d575b50506119b89060209583611a01575b50604051936024358552858786015260a0604086015260a0850191613b5d565b9060608301523360808301527fe6fee9c572244c0c2238c3112ac12d411750a7ee00eeebd32521c3e5a666c14b600435928060018060a01b0360443516930390a3604051908152f35b611a256040611a1288602435613e00565b92600435815260028a5220918254613b3a565b905538611998565b909450828103908111611ae457611a47869160243561494a565b947f00000000000000000000000000000000000000000000000000000000000000006001600160a01b031690813b15610949576040516333b774f960e21b8152604480356001600160a01b031660048084019190915235602483015281018890529015156064820152919082908183816084810103925af1801561159b57611ad0575b80611989565b611ada869161356b565b610b815738611aca565b634e487b7160e01b86526011600452602486fd5b600191506101008291015160501c161461197e565b8592611972565b604051639d0ca8fd60e01b8152600490fd5b506101008301513360549190911c6001600160a01b03161415611957565b50604051636e49181f60e01b815260048035908201523360248201526020816044816001600160a01b037f0000000000000000000000000000000000000000000000000000000000000000165afa908115611be5578791611ba7575b5015611951565b90506020813d602011611bdd575b81611bc26020938361361d565b81010312611bd957611bd390613df3565b38611ba0565b8680fd5b3d9150611bb5565b6040513d89823e3d90fd5b60405163075fd2b160e01b8152600490fd5b60405163c161c93f60e01b81523360048201526001600160a01b03918216602482015260006044820152600960648201529150602090829060849082907f0000000000000000000000000000000000000000000000000000000000000000165afa908115611cb457600091611c7a575b501538611937565b906020823d602011611cac575b81611c946020938361361d565b810103126101625750611ca690613df3565b38611c72565b3d9150611c87565b6040513d6000823e3d90fd5b905060405163c161c93f60e01b815233600482015260018060a01b038216602482015260043560448201526009606482015260208160848160018060a01b037f0000000000000000000000000000000000000000000000000000000000000000165afa908115611cb457600091611d3a575b501590611931565b906020823d602011611d6c575b81611d546020938361361d565b810103126101625750611d6690613df3565b38611d32565b3d9150611d47565b336001600160a01b0382161415915061192b565b506101008401513360549190911c6001600160a01b031614611923565b90506020813d602011611ddb575b81611dc06020938361361d565b81010312611dd757611dd190613df3565b3861191b565b8780fd5b3d9150611db3565b6040513d8a823e3d90fd5b611e07915060203d602011610b6a57610b5c818361361d565b386118bf565b9092506101203d61012011611e44575b611e27818361361d565b810161012082820312611bd957611e3d91613aba565b9138611869565b503d611e1d565b6040516327f44f9560e21b8152600490fd5b503461016257602036600319011261016257611e776139cb565b50611e80613a2f565b506040516321d1336160e11b81526004803590820152906101209081836024817f00000000000000000000000000000000000000000000000000000000000000006001600160a01b03165afa9283156117185781936116d8576103a0846116d6856116c0836147e2565b50346101625780600319360112610162576040517f00000000000000000000000000000000000000000000000000000000000000006001600160a01b03168152602090f35b50346101625780600319360112610162576040517f00000000000000000000000000000000000000000000000000000000000000006001600160a01b03168152602090f35b5034610162576040366003190112610162576004356001600160a01b0360248035828116929190839003610b81576040516331a9108f60e11b81526004810185905260209290838184817f000000000000000000000000000000000000000000000000000000000000000086165afa8015611be557829188916123b7575b501680331415908161231a575b8161227c575b50611bf057807f00000000000000000000000000000000000000000000000000000000000000001690604051632eec7b5560e11b815286600482015284818581865afa908115611de357889161225f575b50813091160361224d5760405180916321d1336160e11b825287600483015281856101209384937f0000000000000000000000000000000000000000000000000000000000000000165afa918215611de357889261220e575b5050600161010081920151604e1c16036121fc5785918583526002845260408320546121b1575b50833b15610b0857604051633e8c615b60e01b815260048101869052306024820152828160448183895af190811561026057839161219d575b5050803b15610b08576040516338a73f9960e11b8152600481018690526001600160a01b03851660248201529082908290604490829084905af180156108e257612189575b50507f01f954abace731a88ab86e71186040cc2be49fe517ea06bc0d24f25b82b834569160409182519182523390820152a280f35b6121929061356b565b610a14578338612154565b6121a69061356b565b610b0857813861210f565b604051919250838201906001600160401b038211838310176121e857508692916121e19160405283815286613e0d565b50386120d6565b634e487b7160e01b60009081526041600452fd5b6040516346ace3f960e01b8152600490fd5b908092503d8311612246575b612224818361361d565b81019181830312611dd75761010061223f6001938493613aba565b92506120af565b503d61221a565b60405163e0a0a87d60e01b8152600490fd5b6122769150853d8711610b6a57610b5c818361361d565b38612056565b90506040519063c161c93f60e01b82523360048301528382015260006044820152600360648201528381608481857f0000000000000000000000000000000000000000000000000000000000000000165afa908115611cb4576000916122e5575b501538612005565b908482813d8311612313575b6122fb818361361d565b81010312610162575061230d90613df3565b386122dd565b503d6122f1565b905060405163c161c93f60e01b81523360048201528184820152866044820152600360648201528481608481867f0000000000000000000000000000000000000000000000000000000000000000165afa908115611cb457600091612382575b501590611fff565b908582813d83116123b0575b612398818361361d565b8101031261016257506123aa90613df3565b3861237a565b503d61238e565b6123ce9150853d8711610b6a57610b5c818361361d565b38611ff2565b5034610162576040366003190112610162576024356001600160a01b038116036102545780f35b50346101625780600319360112610162576040517f00000000000000000000000000000000000000000000000000000000000000006001600160a01b03168152602090f35b50346101625760203660031901126101625761245a6139cb565b50612463613a2f565b5060405163ebc8ca1f60e01b815260048035908201526101409081816024817f00000000000000000000000000000000000000000000000000000000000000006001600160a01b03165afa908115610260578392849261250e575b50506124e46124cc836147e2565b6124d960405180956137f2565b610120840190613850565b60038110156124fa576103c092506103a0820152f35b634e487b7160e01b83526021600452602483fd5b91509150803d8211612552575b612525818461361d565b820190828203126109495761253d6101209183613aba565b910151906003821015610949579038806124be565b503d61251b565b50346101625760a036600319011261016257612573613669565b602435906044356064356001600160401b038111610b815761259c612601913690600401613952565b6125a793919361397f565b604051636e49181f60e01b808252600482018990523360248301526020956001600160a01b039493927f00000000000000000000000000000000000000000000000000000000000000008616918890829081906044820190565b0381855afa9081156129e8578c916129af575b5015806129a3575b80612904575b80612865575b611bf0578515612853578a604051916321d1336160e11b83528b600484015261012080846024818b7f0000000000000000000000000000000000000000000000000000000000000000165afa908115610260578a948e949261280b575b5050600161010081920151604b1c1614938461278e575b5050505061277c578890837f000000000000000000000000000000000000000000000000000000000000000016803b156109495760405163906ebd0f60e01b81526001600160a01b038a166004820152602481018b905260448101879052911515606483015282908290608490829084905af180156108e257612768575b50507fdf04e13ee4fcd48a81ab2fd114757093740a3efa9b6475d86e05878b4c59d0799461275991606060405196879687528601526060850191613b5d565b9433604084015216930390a380f35b6127719061356b565b611dd757873861271a565b604051630f1490e360e31b8152600490fd5b6040519081526004810192909252336024830152909250829060449082905afa908115612800578a916127c7575b50158589388061269c565b90508581813d83116127f9575b6127de818361361d565b810103126127f5576127ef90613df3565b386127bc565b8980fd5b503d6127d4565b6040513d8c823e3d90fd5b9350935050823d841161284c575b612823818461361d565b82019282840312612848576001806101006128418f95968d97613aba565b9250612685565b8c80fd5b503d612819565b604051637b38547b60e01b8152600490fd5b5060405163c161c93f60e01b8152336004820152898616602482015260006044820152600a606482015287816084817f00000000000000000000000000000000000000000000000000000000000000008a165afa908115611cb4576000916128cf575b5015612628565b908882813d83116128fd575b6128e5818361361d565b8101031261016257506128f790613df3565b386128c8565b503d6128db565b5060405163c161c93f60e01b81523360048201528986166024820152604481018b9052600a606482015287816084817f00000000000000000000000000000000000000000000000000000000000000008a165afa908115611cb45760009161296e575b5015612622565b908882813d831161299c575b612984818361361d565b81010312610162575061299690613df3565b38612967565b503d61297a565b5084891633141561261c565b90508781813d83116129e1575b6129c6818361361d565b810103126129dd576129d790613df3565b38612614565b8b80fd5b503d6129bc565b6040513d8e823e3d90fd5b503461016257602036600319011261016257612a0d6139cb565b50612a16613a2f565b50604051630b8aa00f60e31b81526004803590820152906101209081836024817f00000000000000000000000000000000000000000000000000000000000000006001600160a01b03165afa9283156117185781936116d8576103a0846116d6856116c0836147e2565b5034610162576103c0366003190112610162576080366023190112610162576102803660a3190112610162576001600160401b036103443581811161094957612acd90369060040161353b565b929061036435838111610949573660238201121561094957612af990369060248160040135910161367f565b9061038435848111610a1457612b13903690600401613728565b936103a435908111610a1457612b2d9036906004016137d4565b6040516331a9108f60e11b815260048035908201529095906020816024817f00000000000000000000000000000000000000000000000000000000000000006001600160a01b03165afa9081156115da5790612b93918691610b42575060043590614672565b604051632cee6deb60e01b815260048035908201526020816024817f00000000000000000000000000000000000000000000000000000000000000006001600160a01b03165afa9081156115da57859161346c575b50613457577f00000000000000000000000000000000000000000000000000000000000000006001600160a01b03163b15610a14576040516338a73f9960e11b815260048035908201523060248201528481604481836001600160a01b037f0000000000000000000000000000000000000000000000000000000000000000165af180156115da57613440575b5090612c82913691613b7e565b9060006127106101043511610b30576127106101243511610b1e576127106101443511610b0c57604051612cb5816135e6565b60603660a3190112610b0857604051612ccd816135cb565b60a4358015158103610a1457815260c435151560c435036109495760c435602082015260e435151560e435036109495760e4356040820152808252610104356020830152610124356040830152610144356060830152610164358015158103610a145760808301526101843515156101843503610949576101843560a08301526101a4358015158103610a145760c08301526101c4358015158103610a145760e08301526101e4358015158103610a1457610100830152610204358015158103610a1457610120830152610224358015158103610a1457610140830152610244358015158103610a1457610160830152610264358015158103610a1457610180830152610284358015158103610a14576101a08301526102a43515156102a43503610949576102a4356101c08301526102c43515156102c43503610949576102c4356101e08301526102e4356001600160a01b0381169003610949576102e4356102008301526103043561022083015282908051613437575b602081015161342c575b60400151613424575b61271061012435810311610ad857606082015161271003906127108211610ac457906102209160018260381b610124356127100360281b6101043560181b8460081b171717179160808501516133f1575b505060a08301516133e6575b60c08301516133db575b60e08301516133d0575b6101008301516133c5575b6101208301516133ba575b6101408301516133af575b6101608301516133a4575b610180830151613399575b6101a083015161338e575b6101c0830151613383575b6101e0830151613378575b600160541b600160f41b0361020084015160541b161791015160f41b17926040519363a249d42560e01b8552600435600486015260243560248601526044356044860152606435606486015260843560018060a01b038116809103610a1457608486015260a48501526103243560c48501526101208460e481857f00000000000000000000000000000000000000000000000000000000000000006001600160a01b03165af19384156108e2578294613336575b506020840151907f00000000000000000000000000000000000000000000000000000000000000006001600160a01b03163b156109495790829060405192839163796d225b60e11b83526064830190600435600485015260248401526060604484015281518091526084830190602060848260051b86010193019185905b8282106132c05750505090829003905081837f00000000000000000000000000000000000000000000000000000000000000006001600160a01b03165af180156108e2576132b1575b50602083015190917f00000000000000000000000000000000000000000000000000000000000000006001600160a01b03163b1561094957908260405180936334002f3160e01b8252606482019360043560048401526024830152606060448301528051809452602060848301910193835b818110613255575092935090915081900381837f00000000000000000000000000000000000000000000000000000000000000006001600160a01b03165af180156108e257613241575b5050602001519180516131a1575b6020837f8621c3692c18d8ddd4cd26457d6a3e1d916e7001c4243a6c8dfa862a7e10a8236112df8760405191829133906004358785613da1565b7f00000000000000000000000000000000000000000000000000000000000000006001600160a01b03163b15610b0857816131f3916040518093819263104373fb60e31b835260043560048401613d14565b0381837f00000000000000000000000000000000000000000000000000000000000000006001600160a01b03165af180156108e2571561316757613237829161356b565b6101625780613167565b61324b829161356b565b6101625780613159565b92509250602060c060019260a087518580831b0381511683528580831b03858201511685840152604081015160408401526060810151606084015260808101516080840152015160a0820152019401910192859285929461310f565b6132ba9061356b565b3861309d565b929550929093506083198682030182528451602060608160408501938051865201519360408382015284518094520192019088905b80821061331657505050602080600192960192019201928593879593613054565b909192602060e08261332b6001948851614622565b0194019201906132f5565b9093506101203d61012011613371575b613350818361361d565b610120828281010312610949579061336a91810190613aba565b9238612fd6565b503d613346565b600160531b17612f22565b600160521b17612f17565b600160511b17612f0c565b600160501b17612f01565b6001604f1b17612ef6565b6001604e1b17612eeb565b6001604d1b17612ee0565b6001604c1b17612ed5565b6001604b1b17612eca565b6001604a1b17612ec0565b600160491b17612eb6565b6901000000000000000001925060381b90610124356127100360281b906101043560181b9060081b171717173880612eaa565b600417612e59565b600290911790612e50565b60019150612e46565b9361344f612c8293929561356b565b939091612c75565b60405160016217a1f760e11b03198152600490fd5b90506020813d602011613496575b816134876020938361361d565b81010312610b81575138612be8565b3d915061347a565b905034610b08576020366003190112610b085760043563ffffffff60e01b81168091036109495760209250630232efb760e61b811490811561352a575b8115613519575b8115613508575b81156134f7575b5015158152f35b6301ffc9a760e01b149050386134f0565b63ad007d6360e01b811491506134e9565b633e8c615b60e01b811491506134e2565b633e2d14f360e11b811491506134db565b9181601f84011215610254578235916001600160401b038311610254576020808501948460051b01011161025457565b6001600160401b03811161357e57604052565b634e487b7160e01b600052604160045260246000fd5b60c081019081106001600160401b0382111761357e57604052565b61012081019081106001600160401b0382111761357e57604052565b606081019081106001600160401b0382111761357e57604052565b61024081019081106001600160401b0382111761357e57604052565b60e081019081106001600160401b0382111761357e57604052565b90601f801991011681019081106001600160401b0382111761357e57604052565b6001600160401b03811161357e5760051b60200190565b35906001600160a01b038216820361025457565b600435906001600160a01b038216820361025457565b92919261368b8261363e565b60409461369a8651928361361d565b819584835260208093019160c080960285019481861161025457925b8584106136c65750505050505050565b86848303126102545784879184516136dd81613594565b6136e687613655565b81526136f3838801613655565b838201528587013586820152606080880135908201526080808801359082015260a080880135908201528152019301926136b6565b81601f820112156102545780359161373f8361363e565b9261374d604051948561361d565b808452602092838086019260051b820101928311610254578301905b828210613777575050505090565b83809161378384613655565b815201910190613769565b9291926001600160401b03821161357e57604051916137b7601f8201601f19166020018461361d565b829481845281830111610254578281602093846000960137010152565b9080601f83011215610254578160206137ef9335910161378e565b90565b805182526020810151602083015260408101516040830152606081015160608301526080810151608083015260a081015160a083015260c081015160c083015260018060a01b0360e08201511660e083015261010080910151910152565b61026090604081518051151585526020810151151560208601520151151560408401526020810151606084015260408101516080840152606081015160a08401526080810151151560c084015260a0810151151560e084015260c0810151151590610100918285015260e081015115159161012092838601528101511515916101409283860152810151151591610160928386015281015115159161018092838601528101511515916101a092838601528101511515916101c092838601528101511515916101e092838601528101511515916102009283860152810151151591610220928386015260018060a01b0390820151166102408501520151910152565b9181601f84011215610254578235916001600160401b038311610254576020838186019501011161025457565b60843590811515820361025457565b3590811515820361025457565b9181601f84011215610254578235916001600160401b0383116102545760208085019460c0850201011161025457565b604051906139d8826135af565b816101006000918281528260208201528260408201528260608201528260808201528260a08201528260c08201528260e08201520152565b60405190613a1d826135cb565b60006040838281528260208201520152565b60405190613a3c826135e6565b81613a45613a10565b81526102206000918260208201528260408201528260608201528260808201528260a08201528260c08201528260e08201528261010082015282610120820152826101408201528261016082015282610180820152826101a0820152826101c0820152826101e0820152826102008201520152565b91908261012091031261025457604051613ad3816135af565b8092805182526020810151602083015260408101516040830152606081015160608301526080810151608083015260a081015160a083015260c081015160c083015260e081015160018060a01b03811681036102545760e083015261010080910151910152565b91908201809211613b4757565b634e487b7160e01b600052601160045260246000fd5b908060209392818452848401376000828201840152601f01601f1916010190565b9291613b898261363e565b91604094613b998651948561361d565b839582855260208095019260051b8201938085116102545782935b858510613bc45750505050505050565b6001600160401b0385358181116102545785019084828503126102545784519185830183811083821117613cff5786528035835289810135918211610254570183601f82011215610254578035613c1a8161363e565b91613c278751938461361d565b8183528a83018b60e08094028301019187831161025457918c80969492979593015b818110613c655750505083809550820152815201940193613bb4565b9180949650828998929496980312610254578851613c8281613602565b613c8b8361398e565b81528d613c9981850161398e565b90820152828a01358a820152606080840135908201526001600160a01b03916080808501359084821682036102545783015260a0808501359083015260c091828501359384168403610254578f929387948201528152019101918c959391969492613c49565b60246000634e487b7160e01b81526041600452fd5b9060609160408101918152602092816040858094015285518094520193019160005b828110613d44575050505090565b83516001600160a01b031685529381019392810192600101613d36565b919082519283825260005b848110613d8d575050826000602080949584010152601f8019910116010190565b602081830181015184830182015201613d6c565b92606092613dc49296959685526020850152608060408501526080840190613d61565b6001600160a01b03909416910152565b9081602091031261025457516001600160a01b03811681036102545790565b5190811515820361025457565b91908203918211613b4757565b6040516321d1336160e11b8152600481018290529291610120846024817f00000000000000000000000000000000000000000000000000000000000000006001600160a01b03165afa938415611cb4576000946145e1575b508160005260026020526040600020936000855495556040516331a9108f60e11b815283600482015260208160248160018060a01b037f0000000000000000000000000000000000000000000000000000000000000000165afa908115611cb4576000916145c2575b50600086613ff4575060005b80613f44575b7fb12d7a78048433f69fe6d30145bf08aad8e82985b96e4db6d5c6a7e94d57086e91613f39602085015194519560405193849360018060a01b031684528a6020850152604084015260a0606084015260a0830190613d61565b3360808301520390a4565b7f00000000000000000000000000000000000000000000000000000000000000006001600160a01b031691823b1561025457600080936084604051809681936333b774f960e21b835260018060a01b03871660048401528b60248401528760448401528160648401525af1928315611cb4577fb12d7a78048433f69fe6d30145bf08aad8e82985b96e4db6d5c6a7e94d57086e93613fe5575b509150613ee0565b613fee9061356b565b38613fdd565b60208301516040516369e11cc560e01b81526004810187905260248101829052600260448201529097929692949193859391929085846064817f00000000000000000000000000000000000000000000000000000000000000006001600160a01b03165afa93841561159b57869461448c575b50855b845181101561447d578a8960208360051b8801015161408d60408201518c6149d2565b806140e0575b917f990c1da5d280602f972ae3c429b6dc66a66569875205cc6e67f14e0b3fc4d2ac61012060019695936002956140cd6040518093614622565b60e082015233610100820152a40161406a565b60c082015190999193509091506001600160a01b0316156143d85760c08201516001600160a01b03165b825115157f00000000000000000000000000000000000000000000000000000000000000006001600160a01b03163b156143b2576040516333b774f960e21b81526001600160a01b039092166004830152602482018d9052604482018a905215156064820152898180608481010381837f00000000000000000000000000000000000000000000000000000000000000006001600160a01b03165af18015612800578c928f94928b926143c9575b5060c08301516001600160a01b031680614213575b506101206001969593614204600296947f990c1da5d280602f972ae3c429b6dc66a66569875205cc6e67f14e0b3fc4d2ac94613e00565b9c939550939596505050614093565b9294509250506040519063ea78803f60e01b82528c600483015260208260248160018060a01b037f0000000000000000000000000000000000000000000000000000000000000000165afa9182156143be57908d92918c92614374575b506040519161427e83613594565b60018060a01b0316825260208201908b82526040830192601284526060810194855260808101600281528760a0830152823b1561437057604051634eba05fd60e11b815282516001600160a01b031660048201529351602485015293516044840152935160648301529151608482015260a0909201518b91839161018491839185919061430f9060a4850190614622565b5af18015612800577f990c1da5d280602f972ae3c429b6dc66a66569875205cc6e67f14e0b3fc4d2ac8f92600196958f938d6002976101209461420493614361575b50945094965050939596506141cd565b61436a9061356b565b38614351565b8e80fd5b915091506020813d6020116143b6575b816143916020938361361d565b810103126143b257516001600160a01b03811681036143b2578c9138614270565b8a80fd5b3d9150614384565b6040513d8d823e3d90fd5b6143d29061356b565b386141b8565b6060820151801561445d576040516331a9108f60e11b815260048101919091526020816024817f00000000000000000000000000000000000000000000000000000000000000006001600160a01b03165afa908115612800578a9161443e575b5061410a565b614457915060203d602011610b6a57610b5c818361361d565b38614438565b5060808201516001600160a01b031680151560000361410a57503361410a565b50945094975095919050613eda565b9093503d8087833e61449e818361361d565b6020828281010312611bd9578151906001600160401b038211611dd757808301601f838501011215611dd75781830151906144d88261363e565b936144e6604051958661361d565b8285526020850193828201602060e086028385010101116143b257602081830101945b602060e0860283850101018610614527575050505050509238614067565b60e08685850103126129dd5760405161453f81613602565b61454887613df3565b815261455660208801613df3565b6020820152604087810151908201526060808801519082015260808701516001600160a01b03811681036145be57608082015260a0878101519082015260c08701516001600160a01b03811681036145be5760c0820152815260e09590950194602001614509565b8d80fd5b6145db915060203d602011610b6a57610b5c818361361d565b38613ece565b6101209491943d6101201161461b575b6145fb818361361d565b8101916101208284031261016257509061461491613aba565b9238613e65565b503d6145f1565b60c09080511515835260208101511515602084015260408101516040840152606081015160608401528160018060a01b039182608082015116608086015260a081015160a0860152015116910152565b6001600160a01b0390811633811415928361473d575b5082614697575b5050611bf057565b602091925060846040518094819363c161c93f60e01b8352336004840152602483015260006044830152600160648301527f0000000000000000000000000000000000000000000000000000000000000000165afa908115611cb457600091614704575b5015388061468f565b906020823d8211614735575b8161471d6020938361361d565b81010312610162575061472f90613df3565b386146fb565b3d9150614710565b9092506040519063c161c93f60e01b8252336004830152836024830152604482015260016064820152602081608481857f0000000000000000000000000000000000000000000000000000000000000000165afa908115611cb4576000916147a9575b50159138614688565b906020823d82116147da575b816147c26020938361361d565b8101031261016257506147d490613df3565b386147a0565b3d91506147b5565b6147ea613a2f565b506147f3613a10565b50610100809101805191614805613a10565b5060405192614813846135cb565b600180828180809560081c1614875281808260091c16146020880152600a1c1614604085015282519161ffff61271090808560281c16820390828211613b475780875160381c168303928311613b475760ff965195604051986148758a6135e6565b895260181c1660208801526040870152606086015281808460481c1614608086015281808460491c161460a0860152818084604a1c161460c0860152818084604b1c161460e0860152818084604c1c161490850152808083604d1c1614610120850152808083604e1c1614610140850152808083604f1c161461016085015280808360501c161461018085015280808360511c16146101a085015280808360521c16146101c0850152808260531c16146101e084015260018060a01b038160541c1661020084015260f41c1661022082015290565b9190600019818409818402918280831092039180830392146149c75761271090818310156149a9577fbc01a36e2eb1c432ca57a786c226809d495182a9930be0ded288ce703afb7e9194950990828211900360fc1b910360041c170290565b6044838360405191631dcf306360e21b835260048301526024820152fd5b505061271090049150565b919060001981840981840291828083109203918083039214614a3357633b9aca0090818310156149a9577f88f2cfb83100cb4e69e7c79c58b316e597157d372fb9787e8e47ce423a2e9c6d94950990828211900360f71b910360091c170290565b5050633b9aca009004915056fea264697066735822122034427cc9541da3a1bcb1fef93c284120eb23716e671e334c7465292a4908c12464736f6c63430008140033",
    "linkReferences": {}
  },
  "methodIdentifiers": {
    "burnTokensOf(address,uint256,uint256,string,bool)": "1665bc0f",
    "currentFundingCycleOf(uint256)": "8776c499",
    "directory()": "c41c2f24",
    "distributeReservedTokensOf(uint256,string)": "e867c59c",
    "fundAccessConstraintsStore()": "a29a6814",
    "fundingCycleStore()": "557e7155",
    "getFundingCycleOf(uint256,uint256)": "a40bb9c7",
    "latestConfiguredFundingCycleOf(uint256)": "1f510453",
    "launchFundingCyclesFor(uint256,(uint256,uint256,uint256,address),((bool,bool,bool),uint256,uint256,uint256,bool,bool,bool,bool,bool,bool,bool,bool,bool,bool,bool,bool,address,uint256),uint256,(uint256,(bool,bool,uint256,uint256,address,uint256,address)[])[],(address,address,uint256,uint256,uint256,uint256)[],address[],string)": "111d861b",
    "launchProjectFor(address,(string,uint256),(uint256,uint256,uint256,address),((bool,bool,bool),uint256,uint256,uint256,bool,bool,bool,bool,bool,bool,bool,bool,bool,bool,bool,bool,address,uint256),uint256,(uint256,(bool,bool,uint256,uint256,address,uint256,address)[])[],(address,address,uint256,uint256,uint256,uint256)[],address[],string)": "b3c52673",
    "migrate(uint256,address)": "405b84fa",
    "mintTokensOf(uint256,uint256,address,string,bool,bool)": "8ae9c07b",
    "operatorStore()": "ad007d63",
    "prepForMigrationOf(uint256,address)": "3e8c615b",
    "projects()": "8b79543c",
    "queuedFundingCycleOf(uint256)": "12b37b14",
    "reconfigureFundingCyclesOf(uint256,(uint256,uint256,uint256,address),((bool,bool,bool),uint256,uint256,uint256,bool,bool,bool,bool,bool,bool,bool,bool,bool,bool,bool,bool,address,uint256),uint256,(uint256,(bool,bool,uint256,uint256,address,uint256,address)[])[],(address,address,uint256,uint256,uint256,uint256)[],string)": "badbdf28",
    "reservedTokenBalanceOf(uint256)": "bdd504d7",
    "splitsStore()": "2bdfe004",
    "supportsInterface(bytes4)": "01ffc9a7",
    "tokenStore()": "61930630",
    "totalOutstandingTokensOf(uint256)": "c18f2d31"
  },
  "id": 71
}