{
  "abi": [
    {
      "inputs": [
        {
          "internalType": "contract IJBOperatorStore",
          "name": "_operatorStore",
          "type": "address"
        },
        {
          "internalType": "contract IJBProjects",
          "name": "_projects",
          "type": "address"
        },
        {
          "internalType": "contract IJBDirectory",
          "name": "_directory",
          "type": "address"
        },
        {
          "internalType": "contract IJBFundingCycleStore",
          "name": "_fundingCycleStore",
          "type": "address"
        },
        {
          "internalType": "contract IJBTokenStore",
          "name": "_tokenStore",
          "type": "address"
        },
        {
          "internalType": "contract IJBSplitsStore",
          "name": "_splitsStore",
          "type": "address"
        },
        {
          "internalType": "contract IJBFundAccessConstraintsStore",
          "name": "_fundAccessConstraintsStore",
          "type": "address"
        }
      ],
      "stateMutability": "nonpayable",
      "type": "constructor"
    },
    {
      "inputs": [],
      "name": "BURN_PAUSED_AND_SENDER_NOT_VALID_TERMINAL_DELEGATE",
      "type": "error"
    },
    {
      "inputs": [],
      "name": "CANT_MIGRATE_TO_CURRENT_CONTROLLER",
      "type": "error"
    },
    {
      "inputs": [],
      "name": "FUNDING_CYCLE_ALREADY_LAUNCHED",
      "type": "error"
    },
    {
      "inputs": [],
      "name": "INVALID_BALLOT_REDEMPTION_RATE",
      "type": "error"
    },
    {
      "inputs": [],
      "name": "INVALID_REDEMPTION_RATE",
      "type": "error"
    },
    {
      "inputs": [],
      "name": "INVALID_RESERVED_RATE",
      "type": "error"
    },
    {
      "inputs": [],
      "name": "MIGRATION_NOT_ALLOWED",
      "type": "error"
    },
    {
      "inputs": [],
      "name": "MINT_NOT_ALLOWED_AND_NOT_TERMINAL_DELEGATE",
      "type": "error"
    },
    {
      "inputs": [],
      "name": "NOT_CURRENT_CONTROLLER",
      "type": "error"
    },
    {
      "inputs": [],
      "name": "NO_BURNABLE_TOKENS",
      "type": "error"
    },
    {
      "inputs": [],
      "name": "OVERFLOW_ALERT",
      "type": "error"
    },
    {
      "inputs": [
        {
          "internalType": "uint256",
          "name": "prod1",
          "type": "uint256"
        },
        {
          "internalType": "uint256",
          "name": "denominator",
          "type": "uint256"
        }
      ],
      "name": "PRBMath__MulDivOverflow",
      "type": "error"
    },
    {
      "inputs": [],
      "name": "UNAUTHORIZED",
      "type": "error"
    },
    {
      "inputs": [],
      "name": "ZERO_TOKENS_TO_MINT",
      "type": "error"
    },
    {
      "anonymous": false,
      "inputs": [
        {
          "indexed": true,
          "internalType": "address",
          "name": "holder",
          "type": "address"
        },
        {
          "indexed": true,
          "internalType": "uint256",
          "name": "projectId",
          "type": "uint256"
        },
        {
          "indexed": false,
          "internalType": "uint256",
          "name": "tokenCount",
          "type": "uint256"
        },
        {
          "indexed": false,
          "internalType": "string",
          "name": "memo",
          "type": "string"
        },
        {
          "indexed": false,
          "internalType": "address",
          "name": "caller",
          "type": "address"
        }
      ],
      "name": "BurnTokens",
      "type": "event"
    },
    {
      "anonymous": false,
      "inputs": [
        {
          "indexed": true,
          "internalType": "uint256",
          "name": "fundingCycleConfiguration",
          "type": "uint256"
        },
        {
          "indexed": true,
          "internalType": "uint256",
          "name": "fundingCycleNumber",
          "type": "uint256"
        },
        {
          "indexed": true,
          "internalType": "uint256",
          "name": "projectId",
          "type": "uint256"
        },
        {
          "indexed": false,
          "internalType": "address",
          "name": "beneficiary",
          "type": "address"
        },
        {
          "indexed": false,
          "internalType": "uint256",
          "name": "tokenCount",
          "type": "uint256"
        },
        {
          "indexed": false,
          "internalType": "uint256",
          "name": "beneficiaryTokenCount",
          "type": "uint256"
        },
        {
          "indexed": false,
          "internalType": "string",
          "name": "memo",
          "type": "string"
        },
        {
          "indexed": false,
          "internalType": "address",
          "name": "caller",
          "type": "address"
        }
      ],
      "name": "DistributeReservedTokens",
      "type": "event"
    },
    {
      "anonymous": false,
      "inputs": [
        {
          "indexed": true,
          "internalType": "uint256",
          "name": "projectId",
          "type": "uint256"
        },
        {
          "indexed": true,
          "internalType": "uint256",
          "name": "domain",
          "type": "uint256"
        },
        {
          "indexed": true,
          "internalType": "uint256",
          "name": "group",
          "type": "uint256"
        },
        {
          "components": [
            {
              "internalType": "bool",
              "name": "preferClaimed",
              "type": "bool"
            },
            {
              "internalType": "bool",
              "name": "preferAddToBalance",
              "type": "bool"
            },
            {
              "internalType": "uint256",
              "name": "percent",
              "type": "uint256"
            },
            {
              "internalType": "uint256",
              "name": "projectId",
              "type": "uint256"
            },
            {
              "internalType": "address payable",
              "name": "beneficiary",
              "type": "address"
            },
            {
              "internalType": "uint256",
              "name": "lockedUntil",
              "type": "uint256"
            },
            {
              "internalType": "contract IJBSplitAllocator",
              "name": "allocator",
              "type": "address"
            }
          ],
          "indexed": false,
          "internalType": "struct JBSplit",
          "name": "split",
          "type": "tuple"
        },
        {
          "indexed": false,
          "internalType": "uint256",
          "name": "tokenCount",
          "type": "uint256"
        },
        {
          "indexed": false,
          "internalType": "address",
          "name": "caller",
          "type": "address"
        }
      ],
      "name": "DistributeToReservedTokenSplit",
      "type": "event"
    },
    {
      "anonymous": false,
      "inputs": [
        {
          "indexed": false,
          "internalType": "uint256",
          "name": "configuration",
          "type": "uint256"
        },
        {
          "indexed": false,
          "internalType": "uint256",
          "name": "projectId",
          "type": "uint256"
        },
        {
          "indexed": false,
          "internalType": "string",
          "name": "memo",
          "type": "string"
        },
        {
          "indexed": false,
          "internalType": "address",
          "name": "caller",
          "type": "address"
        }
      ],
      "name": "LaunchFundingCycles",
      "type": "event"
    },
    {
      "anonymous": false,
      "inputs": [
        {
          "indexed": false,
          "internalType": "uint256",
          "name": "configuration",
          "type": "uint256"
        },
        {
          "indexed": false,
          "internalType": "uint256",
          "name": "projectId",
          "type": "uint256"
        },
        {
          "indexed": false,
          "internalType": "string",
          "name": "memo",
          "type": "string"
        },
        {
          "indexed": false,
          "internalType": "address",
          "name": "caller",
          "type": "address"
        }
      ],
      "name": "LaunchProject",
      "type": "event"
    },
    {
      "anonymous": false,
      "inputs": [
        {
          "indexed": true,
          "internalType": "uint256",
          "name": "projectId",
          "type": "uint256"
        },
        {
          "indexed": false,
          "internalType": "contract IJBMigratable",
          "name": "to",
          "type": "address"
        },
        {
          "indexed": false,
          "internalType": "address",
          "name": "caller",
          "type": "address"
        }
      ],
      "name": "Migrate",
      "type": "event"
    },
    {
      "anonymous": false,
      "inputs": [
        {
          "indexed": true,
          "internalType": "address",
          "name": "beneficiary",
          "type": "address"
        },
        {
          "indexed": true,
          "internalType": "uint256",
          "name": "projectId",
          "type": "uint256"
        },
        {
          "indexed": false,
          "internalType": "uint256",
          "name": "tokenCount",
          "type": "uint256"
        },
        {
          "indexed": false,
          "internalType": "uint256",
          "name": "beneficiaryTokenCount",
          "type": "uint256"
        },
        {
          "indexed": false,
          "internalType": "string",
          "name": "memo",
          "type": "string"
        },
        {
          "indexed": false,
          "internalType": "uint256",
          "name": "reservedRate",
          "type": "uint256"
        },
        {
          "indexed": false,
          "internalType": "address",
          "name": "caller",
          "type": "address"
        }
      ],
      "name": "MintTokens",
      "type": "event"
    },
    {
      "anonymous": false,
      "inputs": [
        {
          "indexed": true,
          "internalType": "uint256",
          "name": "projectId",
          "type": "uint256"
        },
        {
          "indexed": false,
          "internalType": "address",
          "name": "from",
          "type": "address"
        },
        {
          "indexed": false,
          "internalType": "address",
          "name": "caller",
          "type": "address"
        }
      ],
      "name": "PrepMigration",
      "type": "event"
    },
    {
      "anonymous": false,
      "inputs": [
        {
          "indexed": false,
          "internalType": "uint256",
          "name": "configuration",
          "type": "uint256"
        },
        {
          "indexed": false,
          "internalType": "uint256",
          "name": "projectId",
          "type": "uint256"
        },
        {
          "indexed": false,
          "internalType": "string",
          "name": "memo",
          "type": "string"
        },
        {
          "indexed": false,
          "internalType": "address",
          "name": "caller",
          "type": "address"
        }
      ],
      "name": "ReconfigureFundingCycles",
      "type": "event"
    },
    {
      "inputs": [
        {
          "internalType": "address",
          "name": "_holder",
          "type": "address"
        },
        {
          "internalType": "uint256",
          "name": "_projectId",
          "type": "uint256"
        },
        {
          "internalType": "uint256",
          "name": "_tokenCount",
          "type": "uint256"
        },
        {
          "internalType": "string",
          "name": "_memo",
          "type": "string"
        },
        {
          "internalType": "bool",
          "name": "_preferClaimedTokens",
          "type": "bool"
        }
      ],
      "name": "burnTokensOf",
      "outputs": [],
      "stateMutability": "nonpayable",
      "type": "function"
    },
    {
      "inputs": [
        {
          "internalType": "uint256",
          "name": "_projectId",
          "type": "uint256"
        }
      ],
      "name": "currentFundingCycleOf",
      "outputs": [
        {
          "components": [
            {
              "internalType": "uint256",
              "name": "number",
              "type": "uint256"
            },
            {
              "internalType": "uint256",
              "name": "configuration",
              "type": "uint256"
            },
            {
              "internalType": "uint256",
              "name": "basedOn",
              "type": "uint256"
            },
            {
              "internalType": "uint256",
              "name": "start",
              "type": "uint256"
            },
            {
              "internalType": "uint256",
              "name": "duration",
              "type": "uint256"
            },
            {
              "internalType": "uint256",
              "name": "weight",
              "type": "uint256"
            },
            {
              "internalType": "uint256",
              "name": "discountRate",
              "type": "uint256"
            },
            {
              "internalType": "contract IJBFundingCycleBallot",
              "name": "ballot",
              "type": "address"
            },
            {
              "internalType": "uint256",
              "name": "metadata",
              "type": "uint256"
            }
          ],
          "internalType": "struct JBFundingCycle",
          "name": "fundingCycle",
          "type": "tuple"
        },
        {
          "components": [
            {
              "components": [
                {
                  "internalType": "bool",
                  "name": "allowSetTerminals",
                  "type": "bool"
                },
                {
                  "internalType": "bool",
                  "name": "allowSetController",
                  "type": "bool"
                },
                {
                  "internalType": "bool",
                  "name": "pauseTransfers",
                  "type": "bool"
                }
              ],
              "internalType": "struct JBGlobalFundingCycleMetadata",
              "name": "global",
              "type": "tuple"
            },
            {
              "internalType": "uint256",
              "name": "reservedRate",
              "type": "uint256"
            },
            {
              "internalType": "uint256",
              "name": "redemptionRate",
              "type": "uint256"
            },
            {
              "internalType": "uint256",
              "name": "ballotRedemptionRate",
              "type": "uint256"
            },
            {
              "internalType": "bool",
              "name": "pausePay",
              "type": "bool"
            },
            {
              "internalType": "bool",
              "name": "pauseDistributions",
              "type": "bool"
            },
            {
              "internalType": "bool",
              "name": "pauseRedeem",
              "type": "bool"
            },
            {
              "internalType": "bool",
              "name": "pauseBurn",
              "type": "bool"
            },
            {
              "internalType": "bool",
              "name": "allowMinting",
              "type": "bool"
            },
            {
              "internalType": "bool",
              "name": "allowTerminalMigration",
              "type": "bool"
            },
            {
              "internalType": "bool",
              "name": "allowControllerMigration",
              "type": "bool"
            },
            {
              "internalType": "bool",
              "name": "holdFees",
              "type": "bool"
            },
            {
              "internalType": "bool",
              "name": "preferClaimedTokenOverride",
              "type": "bool"
            },
            {
              "internalType": "bool",
              "name": "useTotalOverflowForRedemptions",
              "type": "bool"
            },
            {
              "internalType": "bool",
              "name": "useDataSourceForPay",
              "type": "bool"
            },
            {
              "internalType": "bool",
              "name": "useDataSourceForRedeem",
              "type": "bool"
            },
            {
              "internalType": "address",
              "name": "dataSource",
              "type": "address"
            },
            {
              "internalType": "uint256",
              "name": "metadata",
              "type": "uint256"
            }
          ],
          "internalType": "struct JBFundingCycleMetadata",
          "name": "metadata",
          "type": "tuple"
        }
      ],
      "stateMutability": "view",
      "type": "function"
    },
    {
      "inputs": [],
      "name": "directory",
      "outputs": [
        {
          "internalType": "contract IJBDirectory",
          "name": "",
          "type": "address"
        }
      ],
      "stateMutability": "view",
      "type": "function"
    },
    {
      "inputs": [
        {
          "internalType": "uint256",
          "name": "_projectId",
          "type": "uint256"
        },
        {
          "internalType": "string",
          "name": "_memo",
          "type": "string"
        }
      ],
      "name": "distributeReservedTokensOf",
      "outputs": [
        {
          "internalType": "uint256",
          "name": "",
          "type": "uint256"
        }
      ],
      "stateMutability": "nonpayable",
      "type": "function"
    },
    {
      "inputs": [],
      "name": "fundAccessConstraintsStore",
      "outputs": [
        {
          "internalType": "contract IJBFundAccessConstraintsStore",
          "name": "",
          "type": "address"
        }
      ],
      "stateMutability": "view",
      "type": "function"
    },
    {
      "inputs": [],
      "name": "fundingCycleStore",
      "outputs": [
        {
          "internalType": "contract IJBFundingCycleStore",
          "name": "",
          "type": "address"
        }
      ],
      "stateMutability": "view",
      "type": "function"
    },
    {
      "inputs": [
        {
          "internalType": "uint256",
          "name": "_projectId",
          "type": "uint256"
        },
        {
          "internalType": "uint256",
          "name": "_configuration",
          "type": "uint256"
        }
      ],
      "name": "getFundingCycleOf",
      "outputs": [
        {
          "components": [
            {
              "internalType": "uint256",
              "name": "number",
              "type": "uint256"
            },
            {
              "internalType": "uint256",
              "name": "configuration",
              "type": "uint256"
            },
            {
              "internalType": "uint256",
              "name": "basedOn",
              "type": "uint256"
            },
            {
              "internalType": "uint256",
              "name": "start",
              "type": "uint256"
            },
            {
              "internalType": "uint256",
              "name": "duration",
              "type": "uint256"
            },
            {
              "internalType": "uint256",
              "name": "weight",
              "type": "uint256"
            },
            {
              "internalType": "uint256",
              "name": "discountRate",
              "type": "uint256"
            },
            {
              "internalType": "contract IJBFundingCycleBallot",
              "name": "ballot",
              "type": "address"
            },
            {
              "internalType": "uint256",
              "name": "metadata",
              "type": "uint256"
            }
          ],
          "internalType": "struct JBFundingCycle",
          "name": "fundingCycle",
          "type": "tuple"
        },
        {
          "components": [
            {
              "components": [
                {
                  "internalType": "bool",
                  "name": "allowSetTerminals",
                  "type": "bool"
                },
                {
                  "internalType": "bool",
                  "name": "allowSetController",
                  "type": "bool"
                },
                {
                  "internalType": "bool",
                  "name": "pauseTransfers",
                  "type": "bool"
                }
              ],
              "internalType": "struct JBGlobalFundingCycleMetadata",
              "name": "global",
              "type": "tuple"
            },
            {
              "internalType": "uint256",
              "name": "reservedRate",
              "type": "uint256"
            },
            {
              "internalType": "uint256",
              "name": "redemptionRate",
              "type": "uint256"
            },
            {
              "internalType": "uint256",
              "name": "ballotRedemptionRate",
              "type": "uint256"
            },
            {
              "internalType": "bool",
              "name": "pausePay",
              "type": "bool"
            },
            {
              "internalType": "bool",
              "name": "pauseDistributions",
              "type": "bool"
            },
            {
              "internalType": "bool",
              "name": "pauseRedeem",
              "type": "bool"
            },
            {
              "internalType": "bool",
              "name": "pauseBurn",
              "type": "bool"
            },
            {
              "internalType": "bool",
              "name": "allowMinting",
              "type": "bool"
            },
            {
              "internalType": "bool",
              "name": "allowTerminalMigration",
              "type": "bool"
            },
            {
              "internalType": "bool",
              "name": "allowControllerMigration",
              "type": "bool"
            },
            {
              "internalType": "bool",
              "name": "holdFees",
              "type": "bool"
            },
            {
              "internalType": "bool",
              "name": "preferClaimedTokenOverride",
              "type": "bool"
            },
            {
              "internalType": "bool",
              "name": "useTotalOverflowForRedemptions",
              "type": "bool"
            },
            {
              "internalType": "bool",
              "name": "useDataSourceForPay",
              "type": "bool"
            },
            {
              "internalType": "bool",
              "name": "useDataSourceForRedeem",
              "type": "bool"
            },
            {
              "internalType": "address",
              "name": "dataSource",
              "type": "address"
            },
            {
              "internalType": "uint256",
              "name": "metadata",
              "type": "uint256"
            }
          ],
          "internalType": "struct JBFundingCycleMetadata",
          "name": "metadata",
          "type": "tuple"
        }
      ],
      "stateMutability": "view",
      "type": "function"
    },
    {
      "inputs": [
        {
          "internalType": "uint256",
          "name": "_projectId",
          "type": "uint256"
        }
      ],
      "name": "latestConfiguredFundingCycleOf",
      "outputs": [
        {
          "components": [
            {
              "internalType": "uint256",
              "name": "number",
              "type": "uint256"
            },
            {
              "internalType": "uint256",
              "name": "configuration",
              "type": "uint256"
            },
            {
              "internalType": "uint256",
              "name": "basedOn",
              "type": "uint256"
            },
            {
              "internalType": "uint256",
              "name": "start",
              "type": "uint256"
            },
            {
              "internalType": "uint256",
              "name": "duration",
              "type": "uint256"
            },
            {
              "internalType": "uint256",
              "name": "weight",
              "type": "uint256"
            },
            {
              "internalType": "uint256",
              "name": "discountRate",
              "type": "uint256"
            },
            {
              "internalType": "contract IJBFundingCycleBallot",
              "name": "ballot",
              "type": "address"
            },
            {
              "internalType": "uint256",
              "name": "metadata",
              "type": "uint256"
            }
          ],
          "internalType": "struct JBFundingCycle",
          "name": "fundingCycle",
          "type": "tuple"
        },
        {
          "components": [
            {
              "components": [
                {
                  "internalType": "bool",
                  "name": "allowSetTerminals",
                  "type": "bool"
                },
                {
                  "internalType": "bool",
                  "name": "allowSetController",
                  "type": "bool"
                },
                {
                  "internalType": "bool",
                  "name": "pauseTransfers",
                  "type": "bool"
                }
              ],
              "internalType": "struct JBGlobalFundingCycleMetadata",
              "name": "global",
              "type": "tuple"
            },
            {
              "internalType": "uint256",
              "name": "reservedRate",
              "type": "uint256"
            },
            {
              "internalType": "uint256",
              "name": "redemptionRate",
              "type": "uint256"
            },
            {
              "internalType": "uint256",
              "name": "ballotRedemptionRate",
              "type": "uint256"
            },
            {
              "internalType": "bool",
              "name": "pausePay",
              "type": "bool"
            },
            {
              "internalType": "bool",
              "name": "pauseDistributions",
              "type": "bool"
            },
            {
              "internalType": "bool",
              "name": "pauseRedeem",
              "type": "bool"
            },
            {
              "internalType": "bool",
              "name": "pauseBurn",
              "type": "bool"
            },
            {
              "internalType": "bool",
              "name": "allowMinting",
              "type": "bool"
            },
            {
              "internalType": "bool",
              "name": "allowTerminalMigration",
              "type": "bool"
            },
            {
              "internalType": "bool",
              "name": "allowControllerMigration",
              "type": "bool"
            },
            {
              "internalType": "bool",
              "name": "holdFees",
              "type": "bool"
            },
            {
              "internalType": "bool",
              "name": "preferClaimedTokenOverride",
              "type": "bool"
            },
            {
              "internalType": "bool",
              "name": "useTotalOverflowForRedemptions",
              "type": "bool"
            },
            {
              "internalType": "bool",
              "name": "useDataSourceForPay",
              "type": "bool"
            },
            {
              "internalType": "bool",
              "name": "useDataSourceForRedeem",
              "type": "bool"
            },
            {
              "internalType": "address",
              "name": "dataSource",
              "type": "address"
            },
            {
              "internalType": "uint256",
              "name": "metadata",
              "type": "uint256"
            }
          ],
          "internalType": "struct JBFundingCycleMetadata",
          "name": "metadata",
          "type": "tuple"
        },
        {
          "internalType": "enum JBBallotState",
          "name": "ballotState",
          "type": "uint8"
        }
      ],
      "stateMutability": "view",
      "type": "function"
    },
    {
      "inputs": [
        {
          "internalType": "uint256",
          "name": "_projectId",
          "type": "uint256"
        },
        {
          "components": [
            {
              "internalType": "uint256",
              "name": "duration",
              "type": "uint256"
            },
            {
              "internalType": "uint256",
              "name": "weight",
              "type": "uint256"
            },
            {
              "internalType": "uint256",
              "name": "discountRate",
              "type": "uint256"
            },
            {
              "internalType": "contract IJBFundingCycleBallot",
              "name": "ballot",
              "type": "address"
            }
          ],
          "internalType": "struct JBFundingCycleData",
          "name": "_data",
          "type": "tuple"
        },
        {
          "components": [
            {
              "components": [
                {
                  "internalType": "bool",
                  "name": "allowSetTerminals",
                  "type": "bool"
                },
                {
                  "internalType": "bool",
                  "name": "allowSetController",
                  "type": "bool"
                },
                {
                  "internalType": "bool",
                  "name": "pauseTransfers",
                  "type": "bool"
                }
              ],
              "internalType": "struct JBGlobalFundingCycleMetadata",
              "name": "global",
              "type": "tuple"
            },
            {
              "internalType": "uint256",
              "name": "reservedRate",
              "type": "uint256"
            },
            {
              "internalType": "uint256",
              "name": "redemptionRate",
              "type": "uint256"
            },
            {
              "internalType": "uint256",
              "name": "ballotRedemptionRate",
              "type": "uint256"
            },
            {
              "internalType": "bool",
              "name": "pausePay",
              "type": "bool"
            },
            {
              "internalType": "bool",
              "name": "pauseDistributions",
              "type": "bool"
            },
            {
              "internalType": "bool",
              "name": "pauseRedeem",
              "type": "bool"
            },
            {
              "internalType": "bool",
              "name": "pauseBurn",
              "type": "bool"
            },
            {
              "internalType": "bool",
              "name": "allowMinting",
              "type": "bool"
            },
            {
              "internalType": "bool",
              "name": "allowTerminalMigration",
              "type": "bool"
            },
            {
              "internalType": "bool",
              "name": "allowControllerMigration",
              "type": "bool"
            },
            {
              "internalType": "bool",
              "name": "holdFees",
              "type": "bool"
            },
            {
              "internalType": "bool",
              "name": "preferClaimedTokenOverride",
              "type": "bool"
            },
            {
              "internalType": "bool",
              "name": "useTotalOverflowForRedemptions",
              "type": "bool"
            },
            {
              "internalType": "bool",
              "name": "useDataSourceForPay",
              "type": "bool"
            },
            {
              "internalType": "bool",
              "name": "useDataSourceForRedeem",
              "type": "bool"
            },
            {
              "internalType": "address",
              "name": "dataSource",
              "type": "address"
            },
            {
              "internalType": "uint256",
              "name": "metadata",
              "type": "uint256"
            }
          ],
          "internalType": "struct JBFundingCycleMetadata",
          "name": "_metadata",
          "type": "tuple"
        },
        {
          "internalType": "uint256",
          "name": "_mustStartAtOrAfter",
          "type": "uint256"
        },
        {
          "components": [
            {
              "internalType": "uint256",
              "name": "group",
              "type": "uint256"
            },
            {
              "components": [
                {
                  "internalType": "bool",
                  "name": "preferClaimed",
                  "type": "bool"
                },
                {
                  "internalType": "bool",
                  "name": "preferAddToBalance",
                  "type": "bool"
                },
                {
                  "internalType": "uint256",
                  "name": "percent",
                  "type": "uint256"
                },
                {
                  "internalType": "uint256",
                  "name": "projectId",
                  "type": "uint256"
                },
                {
                  "internalType": "address payable",
                  "name": "beneficiary",
                  "type": "address"
                },
                {
                  "internalType": "uint256",
                  "name": "lockedUntil",
                  "type": "uint256"
                },
                {
                  "internalType": "contract IJBSplitAllocator",
                  "name": "allocator",
                  "type": "address"
                }
              ],
              "internalType": "struct JBSplit[]",
              "name": "splits",
              "type": "tuple[]"
            }
          ],
          "internalType": "struct JBGroupedSplits[]",
          "name": "_groupedSplits",
          "type": "tuple[]"
        },
        {
          "components": [
            {
              "internalType": "contract IJBPaymentTerminal",
              "name": "terminal",
              "type": "address"
            },
            {
              "internalType": "address",
              "name": "token",
              "type": "address"
            },
            {
              "internalType": "uint256",
              "name": "distributionLimit",
              "type": "uint256"
            },
            {
              "internalType": "uint256",
              "name": "distributionLimitCurrency",
              "type": "uint256"
            },
            {
              "internalType": "uint256",
              "name": "overflowAllowance",
              "type": "uint256"
            },
            {
              "internalType": "uint256",
              "name": "overflowAllowanceCurrency",
              "type": "uint256"
            }
          ],
          "internalType": "struct JBFundAccessConstraints[]",
          "name": "_fundAccessConstraints",
          "type": "tuple[]"
        },
        {
          "internalType": "contract IJBPaymentTerminal[]",
          "name": "_terminals",
          "type": "address[]"
        },
        {
          "internalType": "string",
          "name": "_memo",
          "type": "string"
        }
      ],
      "name": "launchFundingCyclesFor",
      "outputs": [
        {
          "internalType": "uint256",
          "name": "configuration",
          "type": "uint256"
        }
      ],
      "stateMutability": "nonpayable",
      "type": "function"
    },
    {
      "inputs": [
        {
          "internalType": "address",
          "name": "_owner",
          "type": "address"
        },
        {
          "components": [
            {
              "internalType": "string",
              "name": "content",
              "type": "string"
            },
            {
              "internalType": "uint256",
              "name": "domain",
              "type": "uint256"
            }
          ],
          "internalType": "struct JBProjectMetadata",
          "name": "_projectMetadata",
          "type": "tuple"
        },
        {
          "components": [
            {
              "internalType": "uint256",
              "name": "duration",
              "type": "uint256"
            },
            {
              "internalType": "uint256",
              "name": "weight",
              "type": "uint256"
            },
            {
              "internalType": "uint256",
              "name": "discountRate",
              "type": "uint256"
            },
            {
              "internalType": "contract IJBFundingCycleBallot",
              "name": "ballot",
              "type": "address"
            }
          ],
          "internalType": "struct JBFundingCycleData",
          "name": "_data",
          "type": "tuple"
        },
        {
          "components": [
            {
              "components": [
                {
                  "internalType": "bool",
                  "name": "allowSetTerminals",
                  "type": "bool"
                },
                {
                  "internalType": "bool",
                  "name": "allowSetController",
                  "type": "bool"
                },
                {
                  "internalType": "bool",
                  "name": "pauseTransfers",
                  "type": "bool"
                }
              ],
              "internalType": "struct JBGlobalFundingCycleMetadata",
              "name": "global",
              "type": "tuple"
            },
            {
              "internalType": "uint256",
              "name": "reservedRate",
              "type": "uint256"
            },
            {
              "internalType": "uint256",
              "name": "redemptionRate",
              "type": "uint256"
            },
            {
              "internalType": "uint256",
              "name": "ballotRedemptionRate",
              "type": "uint256"
            },
            {
              "internalType": "bool",
              "name": "pausePay",
              "type": "bool"
            },
            {
              "internalType": "bool",
              "name": "pauseDistributions",
              "type": "bool"
            },
            {
              "internalType": "bool",
              "name": "pauseRedeem",
              "type": "bool"
            },
            {
              "internalType": "bool",
              "name": "pauseBurn",
              "type": "bool"
            },
            {
              "internalType": "bool",
              "name": "allowMinting",
              "type": "bool"
            },
            {
              "internalType": "bool",
              "name": "allowTerminalMigration",
              "type": "bool"
            },
            {
              "internalType": "bool",
              "name": "allowControllerMigration",
              "type": "bool"
            },
            {
              "internalType": "bool",
              "name": "holdFees",
              "type": "bool"
            },
            {
              "internalType": "bool",
              "name": "preferClaimedTokenOverride",
              "type": "bool"
            },
            {
              "internalType": "bool",
              "name": "useTotalOverflowForRedemptions",
              "type": "bool"
            },
            {
              "internalType": "bool",
              "name": "useDataSourceForPay",
              "type": "bool"
            },
            {
              "internalType": "bool",
              "name": "useDataSourceForRedeem",
              "type": "bool"
            },
            {
              "internalType": "address",
              "name": "dataSource",
              "type": "address"
            },
            {
              "internalType": "uint256",
              "name": "metadata",
              "type": "uint256"
            }
          ],
          "internalType": "struct JBFundingCycleMetadata",
          "name": "_metadata",
          "type": "tuple"
        },
        {
          "internalType": "uint256",
          "name": "_mustStartAtOrAfter",
          "type": "uint256"
        },
        {
          "components": [
            {
              "internalType": "uint256",
              "name": "group",
              "type": "uint256"
            },
            {
              "components": [
                {
                  "internalType": "bool",
                  "name": "preferClaimed",
                  "type": "bool"
                },
                {
                  "internalType": "bool",
                  "name": "preferAddToBalance",
                  "type": "bool"
                },
                {
                  "internalType": "uint256",
                  "name": "percent",
                  "type": "uint256"
                },
                {
                  "internalType": "uint256",
                  "name": "projectId",
                  "type": "uint256"
                },
                {
                  "internalType": "address payable",
                  "name": "beneficiary",
                  "type": "address"
                },
                {
                  "internalType": "uint256",
                  "name": "lockedUntil",
                  "type": "uint256"
                },
                {
                  "internalType": "contract IJBSplitAllocator",
                  "name": "allocator",
                  "type": "address"
                }
              ],
              "internalType": "struct JBSplit[]",
              "name": "splits",
              "type": "tuple[]"
            }
          ],
          "internalType": "struct JBGroupedSplits[]",
          "name": "_groupedSplits",
          "type": "tuple[]"
        },
        {
          "components": [
            {
              "internalType": "contract IJBPaymentTerminal",
              "name": "terminal",
              "type": "address"
            },
            {
              "internalType": "address",
              "name": "token",
              "type": "address"
            },
            {
              "internalType": "uint256",
              "name": "distributionLimit",
              "type": "uint256"
            },
            {
              "internalType": "uint256",
              "name": "distributionLimitCurrency",
              "type": "uint256"
            },
            {
              "internalType": "uint256",
              "name": "overflowAllowance",
              "type": "uint256"
            },
            {
              "internalType": "uint256",
              "name": "overflowAllowanceCurrency",
              "type": "uint256"
            }
          ],
          "internalType": "struct JBFundAccessConstraints[]",
          "name": "_fundAccessConstraints",
          "type": "tuple[]"
        },
        {
          "internalType": "contract IJBPaymentTerminal[]",
          "name": "_terminals",
          "type": "address[]"
        },
        {
          "internalType": "string",
          "name": "_memo",
          "type": "string"
        }
      ],
      "name": "launchProjectFor",
      "outputs": [
        {
          "internalType": "uint256",
          "name": "projectId",
          "type": "uint256"
        }
      ],
      "stateMutability": "nonpayable",
      "type": "function"
    },
    {
      "inputs": [
        {
          "internalType": "uint256",
          "name": "_projectId",
          "type": "uint256"
        },
        {
          "internalType": "contract IJBMigratable",
          "name": "_to",
          "type": "address"
        }
      ],
      "name": "migrate",
      "outputs": [],
      "stateMutability": "nonpayable",
      "type": "function"
    },
    {
      "inputs": [
        {
          "internalType": "uint256",
          "name": "_projectId",
          "type": "uint256"
        },
        {
          "internalType": "uint256",
          "name": "_tokenCount",
          "type": "uint256"
        },
        {
          "internalType": "address",
          "name": "_beneficiary",
          "type": "address"
        },
        {
          "internalType": "string",
          "name": "_memo",
          "type": "string"
        },
        {
          "internalType": "bool",
          "name": "_preferClaimedTokens",
          "type": "bool"
        },
        {
          "internalType": "bool",
          "name": "_useReservedRate",
          "type": "bool"
        }
      ],
      "name": "mintTokensOf",
      "outputs": [
        {
          "internalType": "uint256",
          "name": "beneficiaryTokenCount",
          "type": "uint256"
        }
      ],
      "stateMutability": "nonpayable",
      "type": "function"
    },
    {
      "inputs": [],
      "name": "operatorStore",
      "outputs": [
        {
          "internalType": "contract IJBOperatorStore",
          "name": "",
          "type": "address"
        }
      ],
      "stateMutability": "view",
      "type": "function"
    },
    {
      "inputs": [
        {
          "internalType": "uint256",
          "name": "_projectId",
          "type": "uint256"
        },
        {
          "internalType": "address",
          "name": "_from",
          "type": "address"
        }
      ],
      "name": "prepForMigrationOf",
      "outputs": [],
      "stateMutability": "nonpayable",
      "type": "function"
    },
    {
      "inputs": [],
      "name": "projects",
      "outputs": [
        {
          "internalType": "contract IJBProjects",
          "name": "",
          "type": "address"
        }
      ],
      "stateMutability": "view",
      "type": "function"
    },
    {
      "inputs": [
        {
          "internalType": "uint256",
          "name": "_projectId",
          "type": "uint256"
        }
      ],
      "name": "queuedFundingCycleOf",
      "outputs": [
        {
          "components": [
            {
              "internalType": "uint256",
              "name": "number",
              "type": "uint256"
            },
            {
              "internalType": "uint256",
              "name": "configuration",
              "type": "uint256"
            },
            {
              "internalType": "uint256",
              "name": "basedOn",
              "type": "uint256"
            },
            {
              "internalType": "uint256",
              "name": "start",
              "type": "uint256"
            },
            {
              "internalType": "uint256",
              "name": "duration",
              "type": "uint256"
            },
            {
              "internalType": "uint256",
              "name": "weight",
              "type": "uint256"
            },
            {
              "internalType": "uint256",
              "name": "discountRate",
              "type": "uint256"
            },
            {
              "internalType": "contract IJBFundingCycleBallot",
              "name": "ballot",
              "type": "address"
            },
            {
              "internalType": "uint256",
              "name": "metadata",
              "type": "uint256"
            }
          ],
          "internalType": "struct JBFundingCycle",
          "name": "fundingCycle",
          "type": "tuple"
        },
        {
          "components": [
            {
              "components": [
                {
                  "internalType": "bool",
                  "name": "allowSetTerminals",
                  "type": "bool"
                },
                {
                  "internalType": "bool",
                  "name": "allowSetController",
                  "type": "bool"
                },
                {
                  "internalType": "bool",
                  "name": "pauseTransfers",
                  "type": "bool"
                }
              ],
              "internalType": "struct JBGlobalFundingCycleMetadata",
              "name": "global",
              "type": "tuple"
            },
            {
              "internalType": "uint256",
              "name": "reservedRate",
              "type": "uint256"
            },
            {
              "internalType": "uint256",
              "name": "redemptionRate",
              "type": "uint256"
            },
            {
              "internalType": "uint256",
              "name": "ballotRedemptionRate",
              "type": "uint256"
            },
            {
              "internalType": "bool",
              "name": "pausePay",
              "type": "bool"
            },
            {
              "internalType": "bool",
              "name": "pauseDistributions",
              "type": "bool"
            },
            {
              "internalType": "bool",
              "name": "pauseRedeem",
              "type": "bool"
            },
            {
              "internalType": "bool",
              "name": "pauseBurn",
              "type": "bool"
            },
            {
              "internalType": "bool",
              "name": "allowMinting",
              "type": "bool"
            },
            {
              "internalType": "bool",
              "name": "allowTerminalMigration",
              "type": "bool"
            },
            {
              "internalType": "bool",
              "name": "allowControllerMigration",
              "type": "bool"
            },
            {
              "internalType": "bool",
              "name": "holdFees",
              "type": "bool"
            },
            {
              "internalType": "bool",
              "name": "preferClaimedTokenOverride",
              "type": "bool"
            },
            {
              "internalType": "bool",
              "name": "useTotalOverflowForRedemptions",
              "type": "bool"
            },
            {
              "internalType": "bool",
              "name": "useDataSourceForPay",
              "type": "bool"
            },
            {
              "internalType": "bool",
              "name": "useDataSourceForRedeem",
              "type": "bool"
            },
            {
              "internalType": "address",
              "name": "dataSource",
              "type": "address"
            },
            {
              "internalType": "uint256",
              "name": "metadata",
              "type": "uint256"
            }
          ],
          "internalType": "struct JBFundingCycleMetadata",
          "name": "metadata",
          "type": "tuple"
        }
      ],
      "stateMutability": "view",
      "type": "function"
    },
    {
      "inputs": [
        {
          "internalType": "uint256",
          "name": "_projectId",
          "type": "uint256"
        },
        {
          "components": [
            {
              "internalType": "uint256",
              "name": "duration",
              "type": "uint256"
            },
            {
              "internalType": "uint256",
              "name": "weight",
              "type": "uint256"
            },
            {
              "internalType": "uint256",
              "name": "discountRate",
              "type": "uint256"
            },
            {
              "internalType": "contract IJBFundingCycleBallot",
              "name": "ballot",
              "type": "address"
            }
          ],
          "internalType": "struct JBFundingCycleData",
          "name": "_data",
          "type": "tuple"
        },
        {
          "components": [
            {
              "components": [
                {
                  "internalType": "bool",
                  "name": "allowSetTerminals",
                  "type": "bool"
                },
                {
                  "internalType": "bool",
                  "name": "allowSetController",
                  "type": "bool"
                },
                {
                  "internalType": "bool",
                  "name": "pauseTransfers",
                  "type": "bool"
                }
              ],
              "internalType": "struct JBGlobalFundingCycleMetadata",
              "name": "global",
              "type": "tuple"
            },
            {
              "internalType": "uint256",
              "name": "reservedRate",
              "type": "uint256"
            },
            {
              "internalType": "uint256",
              "name": "redemptionRate",
              "type": "uint256"
            },
            {
              "internalType": "uint256",
              "name": "ballotRedemptionRate",
              "type": "uint256"
            },
            {
              "internalType": "bool",
              "name": "pausePay",
              "type": "bool"
            },
            {
              "internalType": "bool",
              "name": "pauseDistributions",
              "type": "bool"
            },
            {
              "internalType": "bool",
              "name": "pauseRedeem",
              "type": "bool"
            },
            {
              "internalType": "bool",
              "name": "pauseBurn",
              "type": "bool"
            },
            {
              "internalType": "bool",
              "name": "allowMinting",
              "type": "bool"
            },
            {
              "internalType": "bool",
              "name": "allowTerminalMigration",
              "type": "bool"
            },
            {
              "internalType": "bool",
              "name": "allowControllerMigration",
              "type": "bool"
            },
            {
              "internalType": "bool",
              "name": "holdFees",
              "type": "bool"
            },
            {
              "internalType": "bool",
              "name": "preferClaimedTokenOverride",
              "type": "bool"
            },
            {
              "internalType": "bool",
              "name": "useTotalOverflowForRedemptions",
              "type": "bool"
            },
            {
              "internalType": "bool",
              "name": "useDataSourceForPay",
              "type": "bool"
            },
            {
              "internalType": "bool",
              "name": "useDataSourceForRedeem",
              "type": "bool"
            },
            {
              "internalType": "address",
              "name": "dataSource",
              "type": "address"
            },
            {
              "internalType": "uint256",
              "name": "metadata",
              "type": "uint256"
            }
          ],
          "internalType": "struct JBFundingCycleMetadata",
          "name": "_metadata",
          "type": "tuple"
        },
        {
          "internalType": "uint256",
          "name": "_mustStartAtOrAfter",
          "type": "uint256"
        },
        {
          "components": [
            {
              "internalType": "uint256",
              "name": "group",
              "type": "uint256"
            },
            {
              "components": [
                {
                  "internalType": "bool",
                  "name": "preferClaimed",
                  "type": "bool"
                },
                {
                  "internalType": "bool",
                  "name": "preferAddToBalance",
                  "type": "bool"
                },
                {
                  "internalType": "uint256",
                  "name": "percent",
                  "type": "uint256"
                },
                {
                  "internalType": "uint256",
                  "name": "projectId",
                  "type": "uint256"
                },
                {
                  "internalType": "address payable",
                  "name": "beneficiary",
                  "type": "address"
                },
                {
                  "internalType": "uint256",
                  "name": "lockedUntil",
                  "type": "uint256"
                },
                {
                  "internalType": "contract IJBSplitAllocator",
                  "name": "allocator",
                  "type": "address"
                }
              ],
              "internalType": "struct JBSplit[]",
              "name": "splits",
              "type": "tuple[]"
            }
          ],
          "internalType": "struct JBGroupedSplits[]",
          "name": "_groupedSplits",
          "type": "tuple[]"
        },
        {
          "components": [
            {
              "internalType": "contract IJBPaymentTerminal",
              "name": "terminal",
              "type": "address"
            },
            {
              "internalType": "address",
              "name": "token",
              "type": "address"
            },
            {
              "internalType": "uint256",
              "name": "distributionLimit",
              "type": "uint256"
            },
            {
              "internalType": "uint256",
              "name": "distributionLimitCurrency",
              "type": "uint256"
            },
            {
              "internalType": "uint256",
              "name": "overflowAllowance",
              "type": "uint256"
            },
            {
              "internalType": "uint256",
              "name": "overflowAllowanceCurrency",
              "type": "uint256"
            }
          ],
          "internalType": "struct JBFundAccessConstraints[]",
          "name": "_fundAccessConstraints",
          "type": "tuple[]"
        },
        {
          "internalType": "string",
          "name": "_memo",
          "type": "string"
        }
      ],
      "name": "reconfigureFundingCyclesOf",
      "outputs": [
        {
          "internalType": "uint256",
          "name": "configuration",
          "type": "uint256"
        }
      ],
      "stateMutability": "nonpayable",
      "type": "function"
    },
    {
      "inputs": [
        {
          "internalType": "uint256",
          "name": "",
          "type": "uint256"
        }
      ],
      "name": "reservedTokenBalanceOf",
      "outputs": [
        {
          "internalType": "uint256",
          "name": "",
          "type": "uint256"
        }
      ],
      "stateMutability": "view",
      "type": "function"
    },
    {
      "inputs": [],
      "name": "splitsStore",
      "outputs": [
        {
          "internalType": "contract IJBSplitsStore",
          "name": "",
          "type": "address"
        }
      ],
      "stateMutability": "view",
      "type": "function"
    },
    {
      "inputs": [
        {
          "internalType": "bytes4",
          "name": "_interfaceId",
          "type": "bytes4"
        }
      ],
      "name": "supportsInterface",
      "outputs": [
        {
          "internalType": "bool",
          "name": "",
          "type": "bool"
        }
      ],
      "stateMutability": "view",
      "type": "function"
    },
    {
      "inputs": [],
      "name": "tokenStore",
      "outputs": [
        {
          "internalType": "contract IJBTokenStore",
          "name": "",
          "type": "address"
        }
      ],
      "stateMutability": "view",
      "type": "function"
    },
    {
      "inputs": [
        {
          "internalType": "uint256",
          "name": "_projectId",
          "type": "uint256"
        }
      ],
      "name": "totalOutstandingTokensOf",
      "outputs": [
        {
          "internalType": "uint256",
          "name": "",
          "type": "uint256"
        }
      ],
      "stateMutability": "view",
      "type": "function"
    }
  ],
  "bytecode": {
    "object": "0x61016034620002bb57601f6200545038819003918201601f19168301916001600160401b03831184841017620002c05780849260e094604052833981010312620002bb5780516001600160a01b03908181168103620002bb576020830151908282168203620002bb576040840151918383168303620002bb576060850151908482168203620002bb576080860151928584168403620002bb5760a0870151968688168803620002bb5760c001519586168603620002bb5760805260a05261014092835260c05260e052610100928352610120918252604051916151799384620002d7853960805184818161182e0152818161200a015281816120cc015281816126eb0152818161278801528181612e8f01528181612f2d01528181614db30152614e58015260a05184818161035a01528181610e5f01528181611b2101528181611c270152818161239d01528181613164015281816144e40152614b3d015260c0518481816106ec01528181611268015281816118c001528181611bd10152818161228a0152818161232e01528181612474015281816128e301528181612c0101528181613050015281816131e0015281816135e60152614471015260e0518481816101fd01528181611deb015281816122ea01528181612c5801528181614598015281816147d30152818161483f015261491101525183818161072d015281816107b4015281816112a90152818161132e0152818161285a01528181613627015281816136ae01526146a50152518281816107f30152818161086d0152818161136d015281816113e501528181611add015281816136ed015261376701525181818161018601528181610e9a01528181610ee20152818161146d015281816114d901528181611c7b01528181611f16015281816123e901528181612b810152818161321f01528181613268015281816137e601526138540152f35b600080fd5b634e487b7160e01b600052604160045260246000fdfe608080604052600436101561001357600080fd5b600090813560e01c90816301ffc9a714613b9e57508063111d861b1461309057806312b37b1414612fea5780631665bc0f14612b075780631f5104531461287e5780632bdfe0041461283a5780633e8c615b14612813578063405b84fa14612352578063557e71551461230e57806361930630146122ca5780638776c4991461223d5780638ae9c07b14611b455780638b79543c14611b01578063a29a681414611abd578063a40bb9c714611852578063ad007d631461180e578063b3c5267314610c8f578063badbdf28146102ae578063bdd504d714610284578063c18f2d31146101aa578063c41c2f24146101665763e867c59c1461011357600080fd5b34610163576040600319360112610163576024359067ffffffffffffffff821161016357602061015b61015361014c3660048701613f93565b3691613f2e565b600435614452565b604051908152f35b80fd5b503461016357806003193601126101635760206040516001600160a01b037f0000000000000000000000000000000000000000000000000000000000000000168152f35b5034610163576020908160031936011261016357600435604051907f75b0d9cd00000000000000000000000000000000000000000000000000000000825280600483015283826024816001600160a01b037f0000000000000000000000000000000000000000000000000000000000000000165afa918215610279578392610243575b508260409161015b94526002855220549061417e565b9091508381813d8311610272575b61025b8183613dba565b8101031261026d57519061015b61022d565b600080fd5b503d610251565b6040513d85823e3d90fd5b50346101635760206003193601126101635760406020916004358152600283522054604051908152f35b5034610163576103a06003193601126101635760806023193601126101635761028060a3193601126101635767ffffffffffffffff6103443581811161097a576102fc903690600401613cd1565b9161036435818111610c8b57610316903690600401613fdd565b92909161038435908111610c8757610332903690600401613f93565b9490956040516331a9108f60e11b815260043560048201526020816024816001600160a01b037f0000000000000000000000000000000000000000000000000000000000000000165afa918215610c7b576103b19594926103a994926103a29291610c4c575b5060043590614d5b565b36916141c2565b923691613e1f565b60006127106101043511610c22576127106101243511610bf8576127106101443511610bce576040516103e381613d81565b606060a319360112610bca576040516103fb81613d65565b60a4358015158103610a9057815260c435151560c4350361097a5760c435602082015260e435151560e4350361097a5760e4356040820152808252610104356020830152610124356040830152610144356060830152610164351515610164350361097a57610164356080830152610184358015158103610a905760a08301526101a4358015158103610a905760c08301526101c4358015158103610a905760e08301526101e4358015158103610a9057610100830152610204358015158103610a9057610120830152610224358015158103610a9057610140830152610244358015158103610a9057610160830152610264358015158103610a9057610180830152610284358015158103610a90576101a08301526102a43515156102a4350361097a576102a4356101c08301526102c43515156102c4350361097a576102c4356101e08301526001600160a01b036102e435166102e4350361097a576102e4356102008301526103043561022083015282908051610bc1575b6020810151610bb6575b60400151610bae575b61271061012435810311610b9a57606082015161271003906127108211610b8657906102209160018260381b610124356127100360281b6101043560181b8460081b17171717916080850151610b53575b505060a0830151610b42575b60c0830151610b31575b60e0830151610b20575b610100830151610b0f575b610120830151610afe575b610140830151610aed575b610160830151610adc575b610180830151610aca575b6101a0830151610ab8575b6101c0830151610aa6575b6101e0830151610a94575b7e0ffffffffffffffffffffffffffffffffffffffff00000000000000000000061020084015160541b161791015160f41b17926040519363a249d42560e01b855260043560048601526024356024860152604435604486015260643560648601526084356001600160a01b038116809103610a9057608486015260a48501526103243560c48501526101208460e481856001600160a01b037f0000000000000000000000000000000000000000000000000000000000000000165af193841561090d578294610a4e575b506020840151906001600160a01b037f0000000000000000000000000000000000000000000000000000000000000000163b1561097a5790829060405192839163796d225b60e11b83526064830190600435600485015260248401526060604484015281518091526084830190602060848260051b86010193019185905b82821061098d575050505081900381836001600160a01b037f0000000000000000000000000000000000000000000000000000000000000000165af1801561090d5761097e575b50906020830151906001600160a01b037f0000000000000000000000000000000000000000000000000000000000000000163b1561097a57908260405180936334002f3160e01b8252606482019360043560048401526024830152606060448301528051809452602060848301910193835b818110610918575050819293500381836001600160a01b037f0000000000000000000000000000000000000000000000000000000000000000165af1801561090d576108f9575b6020847f1a08ad37c93969a586fd0605d240c17113b20a9c9ac3847595d0ab425225f6af8783870151926108e8604051928392868452600435888501526080604085015260808401916141a1565b3360608301520390a1604051908152f35b6109038291613d02565b610163578061089a565b6040513d84823e3d90fd5b92509250602060c060019260a087516001600160a01b0381511683526001600160a01b03858201511685840152604081015160408401526060810151606084015260808101516080840152015160a08201520194019101928592859294610853565b8280fd5b61098790613d02565b386107e1565b9295509290936083199082030182528451602060608160408501938051865201519360408382015284518094520192019088905b8082106109e25750505060208060019296019201920192859387959361079a565b909192602060e082610a43600194885160c0908051151583526020810151151560208401526040810151604084015260608101516060840152816001600160a01b039182608082015116608086015260a081015160a0860152015116910152565b0194019201906109c1565b9093506101203d61012011610a89575b610a688183613dba565b61012082828101031261097a5790610a82918101906140fd565b923861071c565b503d610a5e565b8380fd5b6a080000000000000000000017610652565b6a040000000000000000000017610647565b6a02000000000000000000001761063c565b6a010000000000000000000017610631565b698000000000000000000017610626565b69400000000000000000001761061b565b692000000000000000000017610610565b691000000000000000000017610605565b6908000000000000000000176105fa565b6904000000000000000000176105f0565b6902000000000000000000176105e6565b6901000000000000000001925060381b90610124356127100360281b906101043560181b9060081b1717171738806105da565b602484634e487b7160e01b81526011600452fd5b602483634e487b7160e01b81526011600452fd5b600417610589565b600290911790610580565b60019150610576565b5080fd5b60046040517fddbf1bc6000000000000000000000000000000000000000000000000000000008152fd5b60046040517f9db9ee93000000000000000000000000000000000000000000000000000000008152fd5b60046040517f56232895000000000000000000000000000000000000000000000000000000008152fd5b610c6e915060203d602011610c74575b610c668183613dba565b810190614419565b38610398565b503d610c5c565b604051903d90823e3d90fd5b8580fd5b8480fd5b5034610163576003196103e081360112610bca57610cab613e09565b9067ffffffffffffffff6024351161097a5760409060243536030112610bca5760807fffffffffffffffffffffffffffffffffffffffffffffffffffffffffffffffbc360112610bca5761028060c319360112610bca576103643567ffffffffffffffff811161097a57610d23903690600401613cd1565b90926103843567ffffffffffffffff8111610bca57610d46903690600401613fdd565b9067ffffffffffffffff6103a4351161097a57610d69366103a435600401613ec8565b9567ffffffffffffffff6103c43511610a9057610d8c366103c435600401613f75565b946001600160a01b03604051977f666d87a000000000000000000000000000000000000000000000000000000000895216600488015260406024880152602435600401357fffffffffffffffffffffffffffffffffffffffffffffffffffffffffffffffdd602435360301811215610c87576024350167ffffffffffffffff600482013511610c8757600481013536036024820113610c87578780610e476020936040604484015260848301906024600482013591016141a1565b60248035013560648301520381886001600160a01b037f0000000000000000000000000000000000000000000000000000000000000000165af19687156118035785976117cf575b506001600160a01b037f0000000000000000000000000000000000000000000000000000000000000000163b15610c8b576040516338a73f9960e11b8152600481018890523060248201528581604481837f00000000000000000000000000000000000000000000000000000000000000006001600160a01b03165af180156117c4579086916117b0575b5050610f2c92916103a99136916141c2565b60006127106101243511610c22576127106101443511610bf8576127106101643511610bce57604051610f5e81613d81565b606060c319360112610bca57604051610f7681613d65565b60c4358015158103610a9057815260e435151560e4350361097a5760e4356020820152610104351515610104350361097a57610104356040820152808252610124356020830152610144356040830152610164356060830152610184358015158103610a905760808301526101a43515156101a4350361097a576101a43560a08301526101c4358015158103610a905760c08301526101e4358015158103610a905760e0830152610204358015158103610a9057610100830152610224358015158103610a9057610120830152610244358015158103610a9057610140830152610264358015158103610a9057610160830152610284358015158103610a90576101808301526102a4358015158103610a90576101a08301526102c43515156102c4350361097a576102c4356101c08301526102e43515156102e4350361097a576102e4356101e08301526001600160a01b036103043516610304350361097a576103043561020083015261032435610220830152829080516117a7575b602081015161179c575b60400151611794575b61271061014435810311610b9a57606082015161271003906127108211610b8657906102209160018260381b610144356127100360281b6101243560181b8460081b17171717916080850151611761575b505060a0830151611750575b60c083015161173f575b60e083015161172e575b61010083015161171d575b61012083015161170c575b6101408301516116fb575b6101608301516116ea575b6101808301516116d8575b6101a08301516116c6575b6101c08301516116b4575b6101e08301516116a2575b7e0ffffffffffffffffffffffffffffffffffffffff00000000000000000000061020084015160541b161791015160f41b17926040519363a249d42560e01b855287600486015260443560248601526064356044860152608435606486015260a4356001600160a01b038116809103610a9057608486015260a48501526103443560c48501526101208460e481856001600160a01b037f0000000000000000000000000000000000000000000000000000000000000000165af193841561090d578294611660575b506020840151906001600160a01b037f0000000000000000000000000000000000000000000000000000000000000000163b1561097a5790829060405192839163796d225b60e11b835260648301908b600485015260248401526060604484015281518091526084830190602060848260051b86010193019185905b82821061159f575050505081900381836001600160a01b037f0000000000000000000000000000000000000000000000000000000000000000165af1801561090d57611590575b50906020830151906001600160a01b037f0000000000000000000000000000000000000000000000000000000000000000163b1561097a57908260405180936334002f3160e01b825260648201938a60048401526024830152606060448301528051809452602060848301910193835b81811061152e575050819293500381836001600160a01b037f0000000000000000000000000000000000000000000000000000000000000000165af1801561090d5761151a575b505060200151938051611463575b6020847ff3e6948ba8b32d557363ea08470121c47c0127659aed09320812174d373afef28786611458604051928392863392856143e6565b0390a1604051908152f35b6001600160a01b037f0000000000000000000000000000000000000000000000000000000000000000163b15610bca57816114cc91604051809381927f821b9fd80000000000000000000000000000000000000000000000000000000083528860048401614359565b0381836001600160a01b037f0000000000000000000000000000000000000000000000000000000000000000165af1801561090d5715611420576115108291613d02565b6101635780611420565b6115248291613d02565b6101635780611412565b92509250602060c060019260a087516001600160a01b0381511683526001600160a01b03858201511685840152604081015160408401526060810151606084015260808101516080840152015160a082015201940191019285928592946113cb565b61159990613d02565b3861135b565b9295509290936083199082030182528451602060608160408501938051865201519360408382015284518094520192019088905b8082106115f457505050602080600192960192019201928593879593611314565b909192602060e082611655600194885160c0908051151583526020810151151560208401526040810151604084015260608101516060840152816001600160a01b039182608082015116608086015260a081015160a0860152015116910152565b0194019201906115d3565b9093506101203d6101201161169b575b61167a8183613dba565b61012082828101031261097a5790611694918101906140fd565b9238611298565b503d611670565b6a0800000000000000000000176111d0565b6a0400000000000000000000176111c5565b6a0200000000000000000000176111ba565b6a0100000000000000000000176111af565b6980000000000000000000176111a4565b694000000000000000000017611199565b69200000000000000000001761118e565b691000000000000000000017611183565b690800000000000000000017611178565b69040000000000000000001761116e565b690200000000000000000017611164565b6901000000000000000001925060381b90610144356127100360281b906101243560181b9060081b171717173880611158565b600417611107565b6002909117906110fe565b600191506110f4565b6117b990613d02565b610c8b578438610f1a565b6040513d88823e3d90fd5b9096506020813d6020116117fb575b816117eb60209383613dba565b8101031261026d57519538610e8f565b3d91506117de565b6040513d87823e3d90fd5b503461016357806003193601126101635760206040516001600160a01b037f0000000000000000000000000000000000000000000000000000000000000000168152f35b50346101635760406003193601126101635761186c61400e565b50611875614072565b50604051907f669e48aa000000000000000000000000000000000000000000000000000000008252600435600483015260243560248301526101209081836044816001600160a01b037f0000000000000000000000000000000000000000000000000000000000000000165afa928315611ab0578193611a70575b6103a084611a6e8561190183614ecb565b906119696040518095805182526020810151602083015260408101516040830152606081015160608301526080810151608083015260a081015160a083015260c081015160c08301526001600160a01b0360e08201511660e083015261010080910151910152565b83019061026090604081518051151585526020810151151560208601520151151560408401526020810151606084015260408101516080840152606081015160a08401526080810151151560c084015260a0810151151560e084015260c081015115159061010091828501526001600160a01b0360e082015115159261012093848701528201511515926101409384870152820151151592610160938487015282015115159261018093848701528201511515926101a093848701528201511515926101c093848701528201511515926101e0938487015282015115159261020093848701528201511515926102209384870152820151166102408501520151910152565bf35b909250813d8311611aa9575b611a868183613dba565b81019282828503126101635750611aa36103a093611a6e926140fd565b926118f0565b503d611a7c565b50604051903d90823e3d90fd5b503461016357806003193601126101635760206040516001600160a01b037f0000000000000000000000000000000000000000000000000000000000000000168152f35b503461016357806003193601126101635760206040516001600160a01b037f0000000000000000000000000000000000000000000000000000000000000000168152f35b50346101635760c0600319360112610163576001600160a01b03604435166044350361026d5760643567ffffffffffffffff8111610bca57611b8b903690600401613f93565b611b93613fc1565b60a435151560a4350361026d5783926024351561221357604051916321d1336160e11b83526004356004840152610120836024816001600160a01b037f0000000000000000000000000000000000000000000000000000000000000000165afa9283156117c45786936121d5575b506040516331a9108f60e11b815260043560048201526020816024816001600160a01b037f0000000000000000000000000000000000000000000000000000000000000000165afa908115611f935787916121b6575b50604051636e49181f60e01b815260048035908201523360248201526020816044817f00000000000000000000000000000000000000000000000000000000000000006001600160a01b03165afa9081156121ab57889161216d575b508015612153575b15908161213f575b81612089575b81611fc8575b50611f9e57600180610100850151604c1c16141580611ef2575b80611ed7575b611ead5760a43515611ea65761ffff61010084015160181c16925b811515600103611e9157505b612710808403611dc6575b5050611d509060209583611d9a575b50604051936024358552858786015260a0604086015260a08501916141a1565b9060608301523360808301527fe6fee9c572244c0c2238c3112ac12d411750a7ee00eeebd32521c3e5a666c14b60043592806001600160a01b0360443516930390a3604051908152f35b611dbe6040611dab88602435614445565b92600435815260028a522091825461417e565b905538611d30565b909450828103908111611e7d57611de08691602435615034565b946001600160a01b037f00000000000000000000000000000000000000000000000000000000000000001690813b1561097a576040516333b774f960e21b8152604480356001600160a01b031660048084019190915235602483015281018890529015156064820152919082908183816084810103925af180156117c457611e69575b80611d21565b611e738691613d02565b610c8b5738611e63565b602486634e487b7160e01b81526011600452fd5b600191506101008291015160501c1614611d16565b8592611d0a565b60046040517f9d0ca8fd000000000000000000000000000000000000000000000000000000008152fd5b506001600160a01b0361010084015160541c16331415611cef565b50604051636e49181f60e01b815260048035908201523360248201526020816044817f00000000000000000000000000000000000000000000000000000000000000006001600160a01b03165afa908115611f93578791611f55575b5015611ce9565b90506020813d602011611f8b575b81611f7060209383613dba565b81010312611f8757611f8190614438565b38611f4e565b8680fd5b3d9150611f63565b6040513d89823e3d90fd5b60046040517f075fd2b1000000000000000000000000000000000000000000000000000000008152fd5b90506001600160a01b036040519163c161c93f60e01b835233600484015216602482015260006044820152600960648201526020816084816001600160a01b037f0000000000000000000000000000000000000000000000000000000000000000165afa90811561207d57600091612043575b501538611ccf565b906020823d602011612075575b8161205d60209383613dba565b81010312610163575061206f90614438565b3861203b565b3d9150612050565b6040513d6000823e3d90fd5b905060405163c161c93f60e01b81523360048201526001600160a01b03821660248201526004356044820152600960648201526020816084816001600160a01b037f0000000000000000000000000000000000000000000000000000000000000000165afa90811561207d57600091612105575b501590611cc9565b906020823d602011612137575b8161211f60209383613dba565b81010312610163575061213190614438565b386120fd565b3d9150612112565b336001600160a01b03821614159150611cc3565b506001600160a01b0361010085015160541c163314611cbb565b90506020813d6020116121a3575b8161218860209383613dba565b8101031261219f5761219990614438565b38611cb3565b8780fd5b3d915061217b565b6040513d8a823e3d90fd5b6121cf915060203d602011610c7457610c668183613dba565b38611c57565b9092506101203d6101201161220c575b6121ef8183613dba565b810161012082820312611f8757612205916140fd565b9138611c01565b503d6121e5565b60046040517f9fd13e54000000000000000000000000000000000000000000000000000000008152fd5b50346101635760206003193601126101635761225761400e565b50612260614072565b50604051906321d1336160e11b825260043560048301526101209081836024816001600160a01b037f0000000000000000000000000000000000000000000000000000000000000000165afa928315611ab0578193611a70576103a084611a6e8561190183614ecb565b503461016357806003193601126101635760206040516001600160a01b037f0000000000000000000000000000000000000000000000000000000000000000168152f35b503461016357806003193601126101635760206040516001600160a01b037f0000000000000000000000000000000000000000000000000000000000000000168152f35b50346101635760406003193601126101635760043560248035906001600160a01b0390818316809303610c8b57604051916331a9108f60e11b835284600484015260209283818481857f0000000000000000000000000000000000000000000000000000000000000000165afa8015611f9357829188916127f6575b5016803314159081612759575b816126bb575b50611f9e57807f000000000000000000000000000000000000000000000000000000000000000016906040517f5dd8f6aa00000000000000000000000000000000000000000000000000000000815286600482015284818581865afa9081156121ab57889161269e575b5081309116036126745760405180916321d1336160e11b825287600483015281856101209384937f0000000000000000000000000000000000000000000000000000000000000000165afa9182156121ab578892612635575b5050600161010081920151604e1c160361260b5785918583526002845260408320546125bf575b50833b15610bca576040517f3e8c615b00000000000000000000000000000000000000000000000000000000815260048101869052306024820152828160448183895af19081156102795783916125ab575b5050803b15610bca576040516338a73f9960e11b8152600481018690526001600160a01b03851660248201529082908290604490829084905af1801561090d57612597575b50507f01f954abace731a88ab86e71186040cc2be49fe517ea06bc0d24f25b82b834569160409182519182523390820152a280f35b6125a090613d02565b610a90578338612562565b6125b490613d02565b610bca57813861251d565b6040519192508382019067ffffffffffffffff8211838310176125f757508692916125f09160405283815286614452565b50386124cb565b634e487b7160e01b60005260416004526000fd5b60046040517f46ace3f9000000000000000000000000000000000000000000000000000000008152fd5b908092503d831161266d575b61264b8183613dba565b8101918183031261219f5761010061266660019384936140fd565b92506124a4565b503d612641565b60046040517fe0a0a87d000000000000000000000000000000000000000000000000000000008152fd5b6126b59150853d8711610c7457610c668183613dba565b3861244b565b90506040519063c161c93f60e01b82523360048301528382015260006044820152600360648201528381608481857f0000000000000000000000000000000000000000000000000000000000000000165afa90811561207d57600091612724575b5015386123e1565b908482813d8311612752575b61273a8183613dba565b81010312610163575061274c90614438565b3861271c565b503d612730565b905060405163c161c93f60e01b81523360048201528184820152866044820152600360648201528481608481867f0000000000000000000000000000000000000000000000000000000000000000165afa90811561207d576000916127c1575b5015906123db565b908582813d83116127ef575b6127d78183613dba565b8101031261016357506127e990614438565b386127b9565b503d6127cd565b61280d9150853d8711610c7457610c668183613dba565b386123ce565b5034610163576040600319360112610163576024356001600160a01b0381160361026d5780f35b503461016357806003193601126101635760206040516001600160a01b037f0000000000000000000000000000000000000000000000000000000000000000168152f35b50346101635760206003193601126101635761289861400e565b506128a1614072565b506040517febc8ca1f00000000000000000000000000000000000000000000000000000000815260043560048201526101409081816024816001600160a01b037f0000000000000000000000000000000000000000000000000000000000000000165afa9081156102795783928492612abc575b5050612a9261292383614ecb565b61298a6040518095805182526020810151602083015260408101516040830152606081015160608301526080810151608083015260a081015160a083015260c081015160c08301526001600160a01b0360e08201511660e083015261010080910151910152565b61012084019061026090604081518051151585526020810151151560208601520151151560408401526020810151606084015260408101516080840152606081015160a08401526080810151151560c084015260a0810151151560e084015260c081015115159061010091828501526001600160a01b0360e082015115159261012093848701528201511515926101409384870152820151151592610160938487015282015115159261018093848701528201511515926101a093848701528201511515926101c093848701528201511515926101e0938487015282015115159261020093848701528201511515926102209384870152820151166102408501520151910152565b6003811015612aa8576103c092506103a0820152f35b602483634e487b7160e01b81526021600452fd5b91509150803d8211612b00575b612ad38184613dba565b8201908282031261097a57612aeb61012091836140fd565b91015190600382101561097a57903880612915565b503d612ac9565b50346101635760a060031936011261016357612b21613e09565b6024359060443560643567ffffffffffffffff8111610c8b57612b4b612bb0913690600401613f93565b612b56939193613fc1565b604051636e49181f60e01b808252600482018990523360248301526020956001600160a01b039493927f00000000000000000000000000000000000000000000000000000000000000008616918890829081906044820190565b0381855afa908115612fdf578c91612fa6575b501580612f9a575b80612efc575b80612e5d575b611f9e578515612e33578a604051916321d1336160e11b83528b600484015261012080846024818b7f0000000000000000000000000000000000000000000000000000000000000000165afa908115610279578a948e9492612deb575b5050600161010081920151604b1c16149384612d6e575b50505050612d44578890837f000000000000000000000000000000000000000000000000000000000000000016803b1561097a576040517f906ebd0f0000000000000000000000000000000000000000000000000000000081526001600160a01b038a166004820152602481018b905260448101879052911515606483015282908290608490829084905af1801561090d57612d30575b50507fdf04e13ee4fcd48a81ab2fd114757093740a3efa9b6475d86e05878b4c59d07994612d21916060604051968796875286015260608501916141a1565b9433604084015216930390a380f35b612d3990613d02565b61219f578738612ce2565b60046040517f78a48718000000000000000000000000000000000000000000000000000000008152fd5b6040519081526004810192909252336024830152909250829060449082905afa908115612de0578a91612da7575b501585893880612c4b565b90508581813d8311612dd9575b612dbe8183613dba565b81010312612dd557612dcf90614438565b38612d9c565b8980fd5b503d612db4565b6040513d8c823e3d90fd5b9350935050823d8411612e2c575b612e038184613dba565b82019282840312612e2857600180610100612e218f95968d976140fd565b9250612c34565b8c80fd5b503d612df9565b60046040517f7b38547b000000000000000000000000000000000000000000000000000000008152fd5b5060405163c161c93f60e01b8152336004820152858a16602482015260006044820152600a60648201528781608481897f0000000000000000000000000000000000000000000000000000000000000000165afa90811561207d57600091612ec7575b5015612bd7565b908882813d8311612ef5575b612edd8183613dba565b810103126101635750612eef90614438565b38612ec0565b503d612ed3565b5060405163c161c93f60e01b8152336004820152858a1660248201528a6044820152600a60648201528781608481897f0000000000000000000000000000000000000000000000000000000000000000165afa90811561207d57600091612f65575b5015612bd1565b908882813d8311612f93575b612f7b8183613dba565b810103126101635750612f8d90614438565b38612f5e565b503d612f71565b50848916331415612bcb565b90508781813d8311612fd8575b612fbd8183613dba565b81010312612fd457612fce90614438565b38612bc3565b8b80fd5b503d612fb3565b6040513d8e823e3d90fd5b50346101635760206003193601126101635761300461400e565b5061300d614072565b50604051907f5c55007800000000000000000000000000000000000000000000000000000000825260043560048301526101209081836024816001600160a01b037f0000000000000000000000000000000000000000000000000000000000000000165afa928315611ab0578193611a70576103a084611a6e8561190183614ecb565b5034610163576103c06003193601126101635760806023193601126101635761028060a3193601126101635767ffffffffffffffff6103443581811161097a576130de903690600401613cd1565b92906103643583811161097a573660238201121561097a5761310a903690602481600401359101613e1f565b9061038435848111610a9057613124903690600401613ec8565b936103a435908111610a905761313e903690600401613f75565b946040516331a9108f60e11b815260043560048201526020816024816001600160a01b037f0000000000000000000000000000000000000000000000000000000000000000165afa90811561180357906131a2918691610c4c575060043590614d5b565b6040517f2cee6deb00000000000000000000000000000000000000000000000000000000815260043560048201526020816024816001600160a01b037f0000000000000000000000000000000000000000000000000000000000000000165afa908115611803578591613b6c575b50613b42576001600160a01b037f0000000000000000000000000000000000000000000000000000000000000000163b15610a90576040516338a73f9960e11b815260048035908201523060248201528481604481837f00000000000000000000000000000000000000000000000000000000000000006001600160a01b03165af1801561180357613b2b575b50906132aa9136916141c2565b9060006127106101043511610c22576127106101243511610bf8576127106101443511610bce576040516132dd81613d81565b606060a319360112610bca576040516132f581613d65565b60a4358015158103610a9057815260c435151560c4350361097a5760c435602082015260e435151560e4350361097a5760e4356040820152808252610104356020830152610124356040830152610144356060830152610164358015158103610a90576080830152610184351515610184350361097a576101843560a08301526101a4358015158103610a905760c08301526101c4358015158103610a905760e08301526101e4358015158103610a9057610100830152610204358015158103610a9057610120830152610224358015158103610a9057610140830152610244358015158103610a9057610160830152610264358015158103610a9057610180830152610284358015158103610a90576101a08301526102a43515156102a4350361097a576102a4356101c08301526102c43515156102c4350361097a576102c4356101e08301526001600160a01b036102e435166102e4350361097a576102e4356102008301526103043561022083015282908051613b22575b6020810151613b17575b60400151613b0f575b61271061012435810311610b9a57606082015161271003906127108211610b8657906102209160018260381b610124356127100360281b6101043560181b8460081b17171717916080850151613adc575b505060a0830151613acb575b60c0830151613aba575b60e0830151613aa9575b610100830151613a98575b610120830151613a87575b610140830151613a76575b610160830151613a65575b610180830151613a53575b6101a0830151613a41575b6101c0830151613a2f575b6101e0830151613a1d575b7e0ffffffffffffffffffffffffffffffffffffffff00000000000000000000061020084015160541b161791015160f41b17926040519363a249d42560e01b855260043560048601526024356024860152604435604486015260643560648601526084356001600160a01b038116809103610a9057608486015260a48501526103243560c48501526101208460e481856001600160a01b037f0000000000000000000000000000000000000000000000000000000000000000165af193841561090d5782946139db575b506020840151906001600160a01b037f0000000000000000000000000000000000000000000000000000000000000000163b1561097a5790829060405192839163796d225b60e11b83526064830190600435600485015260248401526060604484015281518091526084830190602060848260051b86010193019185905b82821061391a575050505081900381836001600160a01b037f0000000000000000000000000000000000000000000000000000000000000000165af1801561090d5761390b575b50906020830151906001600160a01b037f0000000000000000000000000000000000000000000000000000000000000000163b1561097a57908260405180936334002f3160e01b8252606482019360043560048401526024830152606060448301528051809452602060848301910193835b8181106138a9575050819293500381836001600160a01b037f0000000000000000000000000000000000000000000000000000000000000000165af1801561090d57613895575b5050602001519180516137dc575b6020837f8621c3692c18d8ddd4cd26457d6a3e1d916e7001c4243a6c8dfa862a7e10a82361145887604051918291339060043587856143e6565b6001600160a01b037f0000000000000000000000000000000000000000000000000000000000000000163b15610bca578161384791604051809381927f821b9fd800000000000000000000000000000000000000000000000000000000835260043560048401614359565b0381836001600160a01b037f0000000000000000000000000000000000000000000000000000000000000000165af1801561090d57156137a25761388b8291613d02565b61016357806137a2565b61389f8291613d02565b6101635780613794565b92509250602060c060019260a087516001600160a01b0381511683526001600160a01b03858201511685840152604081015160408401526060810151606084015260808101516080840152015160a0820152019401910192859285929461374d565b61391490613d02565b386136db565b9295509290936083199082030182528451602060608160408501938051865201519360408382015284518094520192019088905b80821061396f57505050602080600192960192019201928593879593613694565b909192602060e0826139d0600194885160c0908051151583526020810151151560208401526040810151604084015260608101516060840152816001600160a01b039182608082015116608086015260a081015160a0860152015116910152565b01940192019061394e565b9093506101203d61012011613a16575b6139f58183613dba565b61012082828101031261097a5790613a0f918101906140fd565b9238613616565b503d6139eb565b6a08000000000000000000001761354c565b6a040000000000000000000017613541565b6a020000000000000000000017613536565b6a01000000000000000000001761352b565b698000000000000000000017613520565b694000000000000000000017613515565b69200000000000000000001761350a565b6910000000000000000000176134ff565b6908000000000000000000176134f4565b6904000000000000000000176134ea565b6902000000000000000000176134e0565b6901000000000000000001925060381b90610124356127100360281b906101043560181b9060081b1717171738806134d4565b600417613483565b60029091179061347a565b60019150613470565b93613b3a6132aa939295613d02565b93909161329d565b60046040517fffd0bc12000000000000000000000000000000000000000000000000000000008152fd5b90506020813d602011613b96575b81613b8760209383613dba565b81010312610c8b575138613210565b3d9150613b7a565b905034610bca576020600319360112610bca576004357fffffffff00000000000000000000000000000000000000000000000000000000811680910361097a57602092507f8cbbedc0000000000000000000000000000000000000000000000000000000008114908115613ca7575b8115613c7d575b8115613c53575b8115613c29575b5015158152f35b7f01ffc9a70000000000000000000000000000000000000000000000000000000091501438613c22565b7fad007d630000000000000000000000000000000000000000000000000000000081149150613c1b565b7f3e8c615b0000000000000000000000000000000000000000000000000000000081149150613c14565b7f7c5a29e60000000000000000000000000000000000000000000000000000000081149150613c0d565b9181601f8401121561026d5782359167ffffffffffffffff831161026d576020808501948460051b01011161026d57565b67ffffffffffffffff8111613d1657604052565b634e487b7160e01b600052604160045260246000fd5b60c0810190811067ffffffffffffffff821117613d1657604052565b610120810190811067ffffffffffffffff821117613d1657604052565b6060810190811067ffffffffffffffff821117613d1657604052565b610240810190811067ffffffffffffffff821117613d1657604052565b60e0810190811067ffffffffffffffff821117613d1657604052565b90601f601f19910116810190811067ffffffffffffffff821117613d1657604052565b67ffffffffffffffff8111613d165760051b60200190565b35906001600160a01b038216820361026d57565b600435906001600160a01b038216820361026d57565b929192613e2b82613ddd565b604094613e3a86519283613dba565b819584835260208093019160c080960285019481861161026d57925b858410613e665750505050505050565b868483031261026d578487918451613e7d81613d2c565b613e8687613df5565b8152613e93838801613df5565b838201528587013586820152606080880135908201526080808801359082015260a08088013590820152815201930192613e56565b81601f8201121561026d57803591613edf83613ddd565b92613eed6040519485613dba565b808452602092838086019260051b82010192831161026d578301905b828210613f17575050505090565b838091613f2384613df5565b815201910190613f09565b92919267ffffffffffffffff8211613d165760405191613f586020601f19601f8401160184613dba565b82948184528183011161026d578281602093846000960137010152565b9080601f8301121561026d57816020613f9093359101613f2e565b90565b9181601f8401121561026d5782359167ffffffffffffffff831161026d576020838186019501011161026d57565b60843590811515820361026d57565b3590811515820361026d57565b9181601f8401121561026d5782359167ffffffffffffffff831161026d5760208085019460c0850201011161026d57565b6040519061401b82613d48565b816101006000918281528260208201528260408201528260608201528260808201528260a08201528260c08201528260e08201520152565b6040519061406082613d65565b60006040838281528260208201520152565b6040519061407f82613d81565b81614088614053565b81526102206000918260208201528260408201528260608201528260808201528260a08201528260c08201528260e08201528261010082015282610120820152826101408201528261016082015282610180820152826101a0820152826101c0820152826101e0820152826102008201520152565b91908261012091031261026d5760405161411681613d48565b8092805182526020810151602083015260408101516040830152606081015160608301526080810151608083015260a081015160a083015260c081015160c083015260e08101516001600160a01b038116810361026d5760e083015261010080910151910152565b9190820180921161418b57565b634e487b7160e01b600052601160045260246000fd5b601f8260209493601f19938186528686013760008582860101520116010190565b92916141cd82613ddd565b916040946141dd86519485613dba565b839582855260208095019260051b82019380851161026d5782935b8585106142085750505050505050565b67ffffffffffffffff853581811161026d57850190848285031261026d5784519185830183811083821117614344578652803583528981013591821161026d570183601f8201121561026d57803561425f81613ddd565b9161426c87519384613dba565b8183528a83018b60e08094028301019187831161026d57918c80969492979593015b8181106142aa57505050838095508201528152019401936141f8565b918094965082899892949698031261026d5788516142c781613d9e565b6142d083613fd0565b81528d6142de818501613fd0565b90820152898301358a82015260608084013590820152608091828401356001600160a01b0393848216820361026d5783015260a0808501359083015260c09182850135938416840361026d578f929387948201528152019101918c95939196949261428e565b60246000634e487b7160e01b81526041600452fd5b9060609160408101918152602092816040858094015285518094520193019160005b828110614389575050505090565b83516001600160a01b03168552938101939281019260010161437b565b919082519283825260005b8481106143d2575050601f19601f8460006020809697860101520116010190565b6020818301810151848301820152016143b1565b92614412906060936001600160a01b0393979697865260208601526080604086015260808501906143a6565b9416910152565b9081602091031261026d57516001600160a01b038116810361026d5790565b5190811515820361026d57565b9190820391821161418b57565b6040516321d1336160e11b8152600481018290529291610120846024817f00000000000000000000000000000000000000000000000000000000000000006001600160a01b03165afa93841561207d57600094614d1a575b50816000526002602052604060002093600085549555604051916331a9108f60e11b83528360048401526020836024816001600160a01b037f0000000000000000000000000000000000000000000000000000000000000000165afa92831561207d57600093614cf9575b5060008661464e57506000925b8361458e575b6001600160a01b03906145837fb12d7a78048433f69fe6d30145bf08aad8e82985b96e4db6d5c6a7e94d57086e9360208601519551966040519485941684528a6020850152604084015260a0606084015260a08301906143a6565b3360808301520390a4565b6001600160a01b037f00000000000000000000000000000000000000000000000000000000000000001690813b1561026d57600080926084604051809581936333b774f960e21b83526001600160a01b03871660048401528b60248401528a60448401528160648401525af1801561207d577fb12d7a78048433f69fe6d30145bf08aad8e82985b96e4db6d5c6a7e94d57086e936001600160a01b03936145839261463f575b509350509050614528565b61464890613d02565b38614634565b9160208197949296970151968492604051927f69e11cc50000000000000000000000000000000000000000000000000000000084528760048501528960248501526002604485015285846064816001600160a01b037f0000000000000000000000000000000000000000000000000000000000000000165afa9384156117c4578694614bc2575b50855b8451811015614bb2578a8960208360051b880101516146fb60408201518c6150d5565b8061479a575b917f990c1da5d280602f972ae3c429b6dc66a66569875205cc6e67f14e0b3fc4d2ac6101206001969593600295614787604051809360c0908051151583526020810151151560208401526040810151604084015260608101516060840152816001600160a01b039182608082015116608086015260a081015160a0860152015116910152565b60e082015233610100820152a4016146d8565b98915091506001600160a01b0360c0830151161515600014614b0f576001600160a01b0360c0830151165b825115156001600160a01b037f0000000000000000000000000000000000000000000000000000000000000000163b15614ae9576040516333b774f960e21b81526001600160a01b039092166004830152602482018d9052604482018a905215156064820152898180608481010381836001600160a01b037f0000000000000000000000000000000000000000000000000000000000000000165af18015612de0578c928f94928b92614b00575b506001600160a01b0360c084015116806148ce575b5061012060019695936148bf600296947f990c1da5d280602f972ae3c429b6dc66a66569875205cc6e67f14e0b3fc4d2ac94614445565b9c939550939596505050614701565b929450925050604051907fea78803f0000000000000000000000000000000000000000000000000000000082528c60048301526020826024816001600160a01b037f0000000000000000000000000000000000000000000000000000000000000000165afa918215614af557908d92918c92614aab575b506001600160a01b036040519261495b84613d2c565b16825260208201908b82526040830192601284526060810194855260808101600281528760a0830152823b15614aa757610184928f95949260a0614a469188946040519a8b998a987f9d740bfa000000000000000000000000000000000000000000000000000000008a526001600160a01b0385511660048b01525160248a0152516044890152516064880152516084870152015160a485019060c0908051151583526020810151151560208401526040810151604084015260608101516060840152816001600160a01b039182608082015116608086015260a081015160a0860152015116910152565b5af18015612de0577f990c1da5d280602f972ae3c429b6dc66a66569875205cc6e67f14e0b3fc4d2ac8f92600196958f938d600297610120946148bf93614a98575b5094509496505093959650614888565b614aa190613d02565b38614a88565b8e80fd5b915091506020813d602011614aed575b81614ac860209383613dba565b81010312614ae957516001600160a01b0381168103614ae9578c9138614945565b8a80fd5b3d9150614abb565b6040513d8d823e3d90fd5b614b0990613d02565b38614873565b60608201518015614b9257604051906331a9108f60e11b825260048201526020816024816001600160a01b037f0000000000000000000000000000000000000000000000000000000000000000165afa908115612de0578a91614b73575b506147c5565b614b8c915060203d602011610c7457610c668183613dba565b38614b6d565b506001600160a01b036080830151168015156000036147c55750336147c5565b5094509497509591905092614522565b9093503d8087833e614bd48183613dba565b6020828281010312611f875781519067ffffffffffffffff821161219f57808301601f83850101121561219f578183015190614c0f82613ddd565b93614c1d6040519586613dba565b8285526020850193828201602060e08602838501010111614ae957602081830101945b602060e0860283850101018610614c5e5750505050505092386146d5565b60e0868585010312612fd457604051614c7681613d9e565b614c7f87614438565b8152614c8d60208801614438565b6020820152604087015160408201526060808801519082015260808701516001600160a01b0381168103614cf557608082015260a0808801519082015260c08701516001600160a01b0381168103614cf55760c0820152815260e09590950194602001614c40565b8d80fd5b614d1391935060203d602011610c7457610c668183613dba565b9138614515565b6101209491943d61012011614d54575b614d348183613dba565b81019161012082840312610163575090614d4d916140fd565b92386144aa565b503d614d2a565b6001600160a01b03809116803314159283614e26575b5082614d80575b5050611f9e57565b602091925060846040518094819363c161c93f60e01b8352336004840152602483015260006044830152600160648301527f0000000000000000000000000000000000000000000000000000000000000000165afa90811561207d57600091614ded575b50153880614d78565b906020823d8211614e1e575b81614e0660209383613dba565b810103126101635750614e1890614438565b38614de4565b3d9150614df9565b9092506040519063c161c93f60e01b8252336004830152836024830152604482015260016064820152602081608481857f0000000000000000000000000000000000000000000000000000000000000000165afa90811561207d57600091614e92575b50159138614d71565b906020823d8211614ec3575b81614eab60209383613dba565b810103126101635750614ebd90614438565b38614e89565b3d9150614e9e565b614ed3614072565b50614edc614053565b50610100809101805191614eee614053565b5060405192614efc84613d65565b600180828180809560081c1614875281808260091c16146020880152600a1c1614604085015282519161ffff61271090808560281c1682039082821161418b5780875160381c16830392831161418b5760ff96519560405198614f5e8a613d81565b895260181c1660208801526040870152606086015281808460481c1614608086015281808460491c161460a0860152818084604a1c161460c0860152818084604b1c161460e0860152818084604c1c161490850152808083604d1c1614610120850152808083604e1c1614610140850152808083604f1c161461016085015280808360501c161461018085015280808360511c16146101a085015280808360521c16146101c0850152808260531c16146101e08401526001600160a01b038160541c1661020084015260f41c1661022082015290565b9190600019818409818402918280831092039180830392146150ca576127109081831015615093577fbc01a36e2eb1c432ca57a786c226809d495182a9930be0ded288ce703afb7e9194950990828211900360fc1b910360041c170290565b60448383604051917f773cc18c00000000000000000000000000000000000000000000000000000000835260048301526024820152fd5b505061271090049150565b91906000198184098184029182808310920391808303921461513657633b9aca009081831015615093577f88f2cfb83100cb4e69e7c79c58b316e597157d372fb9787e8e47ce423a2e9c6d94950990828211900360f71b910360091c170290565b5050633b9aca009004915056fea2646970667358221220db5e9d0c25db512cf01c73eae4f14965d512b2c8957eae0d09ad572f2496bfb664736f6c63430008140033",
    "linkReferences": {}
  },
  "methodIdentifiers": {
    "burnTokensOf(address,uint256,uint256,string,bool)": "1665bc0f",
    "currentFundingCycleOf(uint256)": "8776c499",
    "directory()": "c41c2f24",
    "distributeReservedTokensOf(uint256,string)": "e867c59c",
    "fundAccessConstraintsStore()": "a29a6814",
    "fundingCycleStore()": "557e7155",
    "getFundingCycleOf(uint256,uint256)": "a40bb9c7",
    "latestConfiguredFundingCycleOf(uint256)": "1f510453",
    "launchFundingCyclesFor(uint256,(uint256,uint256,uint256,address),((bool,bool,bool),uint256,uint256,uint256,bool,bool,bool,bool,bool,bool,bool,bool,bool,bool,bool,bool,address,uint256),uint256,(uint256,(bool,bool,uint256,uint256,address,uint256,address)[])[],(address,address,uint256,uint256,uint256,uint256)[],address[],string)": "111d861b",
    "launchProjectFor(address,(string,uint256),(uint256,uint256,uint256,address),((bool,bool,bool),uint256,uint256,uint256,bool,bool,bool,bool,bool,bool,bool,bool,bool,bool,bool,bool,address,uint256),uint256,(uint256,(bool,bool,uint256,uint256,address,uint256,address)[])[],(address,address,uint256,uint256,uint256,uint256)[],address[],string)": "b3c52673",
    "migrate(uint256,address)": "405b84fa",
    "mintTokensOf(uint256,uint256,address,string,bool,bool)": "8ae9c07b",
    "operatorStore()": "ad007d63",
    "prepForMigrationOf(uint256,address)": "3e8c615b",
    "projects()": "8b79543c",
    "queuedFundingCycleOf(uint256)": "12b37b14",
    "reconfigureFundingCyclesOf(uint256,(uint256,uint256,uint256,address),((bool,bool,bool),uint256,uint256,uint256,bool,bool,bool,bool,bool,bool,bool,bool,bool,bool,bool,bool,address,uint256),uint256,(uint256,(bool,bool,uint256,uint256,address,uint256,address)[])[],(address,address,uint256,uint256,uint256,uint256)[],string)": "badbdf28",
    "reservedTokenBalanceOf(uint256)": "bdd504d7",
    "splitsStore()": "2bdfe004",
    "supportsInterface(bytes4)": "01ffc9a7",
    "tokenStore()": "61930630",
    "totalOutstandingTokensOf(uint256)": "c18f2d31"
  },
  "id": 64
}