{
  "abi": [
    {
      "inputs": [],
      "name": "ALEADY_MINTED",
      "type": "error"
    },
    {
      "inputs": [],
      "name": "APPROVAL_TO_CURRENT_OWNER",
      "type": "error"
    },
    {
      "inputs": [],
      "name": "APPROVE_TO_CALLER",
      "type": "error"
    },
    {
      "inputs": [],
      "name": "BLOCK_NOT_YET_MINED",
      "type": "error"
    },
    {
      "inputs": [],
      "name": "CALLER_NOT_OWNER_OR_APPROVED",
      "type": "error"
    },
    {
      "inputs": [],
      "name": "DELEGATE_ADDRESS_ZERO",
      "type": "error"
    },
    {
      "inputs": [],
      "name": "GAME_ISNT_OVER_YET",
      "type": "error"
    },
    {
      "inputs": [],
      "name": "INCORRECT_OWNER",
      "type": "error"
    },
    {
      "inputs": [],
      "name": "INVALID_PAYMENT_EVENT",
      "type": "error"
    },
    {
      "inputs": [],
      "name": "INVALID_REDEMPTION_EVENT",
      "type": "error"
    },
    {
      "inputs": [],
      "name": "INVALID_REDEMPTION_METADATA",
      "type": "error"
    },
    {
      "inputs": [],
      "name": "INVALID_REDEMPTION_WEIGHTS",
      "type": "error"
    },
    {
      "inputs": [],
      "name": "INVALID_TIER_ID",
      "type": "error"
    },
    {
      "inputs": [],
      "name": "INVALID_TOKEN_ID",
      "type": "error"
    },
    {
      "inputs": [],
      "name": "MINT_TO_ZERO",
      "type": "error"
    },
    {
      "inputs": [],
      "name": "NOTHING_TO_CLAIM",
      "type": "error"
    },
    {
      "inputs": [],
      "name": "NOTHING_TO_MINT",
      "type": "error"
    },
    {
      "inputs": [],
      "name": "NOT_AVAILABLE",
      "type": "error"
    },
    {
      "inputs": [],
      "name": "OVERSPENDING",
      "type": "error"
    },
    {
      "inputs": [
        {
          "internalType": "uint256",
          "name": "prod1",
          "type": "uint256"
        },
        {
          "internalType": "uint256",
          "name": "denominator",
          "type": "uint256"
        }
      ],
      "name": "PRBMath__MulDivOverflow",
      "type": "error"
    },
    {
      "inputs": [],
      "name": "PRICING_RESOLVER_CHANGES_PAUSED",
      "type": "error"
    },
    {
      "inputs": [],
      "name": "RESERVED_TOKEN_MINTING_PAUSED",
      "type": "error"
    },
    {
      "inputs": [],
      "name": "TRANSFERS_PAUSED",
      "type": "error"
    },
    {
      "inputs": [],
      "name": "TRANSFER_TO_NON_IMPLEMENTER",
      "type": "error"
    },
    {
      "inputs": [],
      "name": "TRANSFER_TO_ZERO_ADDRESS",
      "type": "error"
    },
    {
      "inputs": [],
      "name": "UNAUTHORIZED",
      "type": "error"
    },
    {
      "inputs": [],
      "name": "UNEXPECTED_TOKEN_REDEEMED",
      "type": "error"
    },
    {
      "inputs": [],
      "name": "WRONG_CURRENCY",
      "type": "error"
    },
    {
      "anonymous": false,
      "inputs": [
        {
          "indexed": true,
          "internalType": "uint256",
          "name": "changeAmount",
          "type": "uint256"
        },
        {
          "indexed": true,
          "internalType": "uint256",
          "name": "newTotalCredits",
          "type": "uint256"
        },
        {
          "indexed": true,
          "internalType": "address",
          "name": "account",
          "type": "address"
        },
        {
          "indexed": false,
          "internalType": "address",
          "name": "caller",
          "type": "address"
        }
      ],
      "name": "AddCredits",
      "type": "event"
    },
    {
      "anonymous": false,
      "inputs": [
        {
          "indexed": true,
          "internalType": "uint256",
          "name": "tierId",
          "type": "uint256"
        },
        {
          "components": [
            {
              "internalType": "uint80",
              "name": "contributionFloor",
              "type": "uint80"
            },
            {
              "internalType": "uint48",
              "name": "lockedUntil",
              "type": "uint48"
            },
            {
              "internalType": "uint40",
              "name": "initialQuantity",
              "type": "uint40"
            },
            {
              "internalType": "uint16",
              "name": "votingUnits",
              "type": "uint16"
            },
            {
              "internalType": "uint16",
              "name": "reservedRate",
              "type": "uint16"
            },
            {
              "internalType": "address",
              "name": "reservedTokenBeneficiary",
              "type": "address"
            },
            {
              "internalType": "uint8",
              "name": "royaltyRate",
              "type": "uint8"
            },
            {
              "internalType": "address",
              "name": "royaltyBeneficiary",
              "type": "address"
            },
            {
              "internalType": "bytes32",
              "name": "encodedIPFSUri",
              "type": "bytes32"
            },
            {
              "internalType": "uint8",
              "name": "category",
              "type": "uint8"
            },
            {
              "internalType": "bool",
              "name": "allowManualMint",
              "type": "bool"
            },
            {
              "internalType": "bool",
              "name": "shouldUseReservedTokenBeneficiaryAsDefault",
              "type": "bool"
            },
            {
              "internalType": "bool",
              "name": "shouldUseRoyaltyBeneficiaryAsDefault",
              "type": "bool"
            },
            {
              "internalType": "bool",
              "name": "transfersPausable",
              "type": "bool"
            }
          ],
          "indexed": false,
          "internalType": "struct JB721TierParams",
          "name": "data",
          "type": "tuple"
        },
        {
          "indexed": false,
          "internalType": "address",
          "name": "caller",
          "type": "address"
        }
      ],
      "name": "AddTier",
      "type": "event"
    },
    {
      "anonymous": false,
      "inputs": [
        {
          "indexed": true,
          "internalType": "address",
          "name": "owner",
          "type": "address"
        },
        {
          "indexed": true,
          "internalType": "address",
          "name": "approved",
          "type": "address"
        },
        {
          "indexed": true,
          "internalType": "uint256",
          "name": "tokenId",
          "type": "uint256"
        }
      ],
      "name": "Approval",
      "type": "event"
    },
    {
      "anonymous": false,
      "inputs": [
        {
          "indexed": true,
          "internalType": "address",
          "name": "owner",
          "type": "address"
        },
        {
          "indexed": true,
          "internalType": "address",
          "name": "operator",
          "type": "address"
        },
        {
          "indexed": false,
          "internalType": "bool",
          "name": "approved",
          "type": "bool"
        }
      ],
      "name": "ApprovalForAll",
      "type": "event"
    },
    {
      "anonymous": false,
      "inputs": [
        {
          "indexed": true,
          "internalType": "address",
          "name": "delegator",
          "type": "address"
        },
        {
          "indexed": true,
          "internalType": "address",
          "name": "fromDelegate",
          "type": "address"
        },
        {
          "indexed": true,
          "internalType": "address",
          "name": "toDelegate",
          "type": "address"
        }
      ],
      "name": "DelegateChanged",
      "type": "event"
    },
    {
      "anonymous": false,
      "inputs": [
        {
          "indexed": true,
          "internalType": "uint256",
          "name": "tokenId",
          "type": "uint256"
        },
        {
          "indexed": true,
          "internalType": "uint256",
          "name": "tierId",
          "type": "uint256"
        },
        {
          "indexed": true,
          "internalType": "address",
          "name": "beneficiary",
          "type": "address"
        },
        {
          "indexed": false,
          "internalType": "uint256",
          "name": "totalAmountContributed",
          "type": "uint256"
        },
        {
          "indexed": false,
          "internalType": "address",
          "name": "caller",
          "type": "address"
        }
      ],
      "name": "Mint",
      "type": "event"
    },
    {
      "anonymous": false,
      "inputs": [
        {
          "indexed": true,
          "internalType": "uint256",
          "name": "tokenId",
          "type": "uint256"
        },
        {
          "indexed": true,
          "internalType": "uint256",
          "name": "tierId",
          "type": "uint256"
        },
        {
          "indexed": true,
          "internalType": "address",
          "name": "beneficiary",
          "type": "address"
        },
        {
          "indexed": false,
          "internalType": "address",
          "name": "caller",
          "type": "address"
        }
      ],
      "name": "MintReservedToken",
      "type": "event"
    },
    {
      "anonymous": false,
      "inputs": [
        {
          "indexed": true,
          "internalType": "address",
          "name": "previousOwner",
          "type": "address"
        },
        {
          "indexed": true,
          "internalType": "address",
          "name": "newOwner",
          "type": "address"
        }
      ],
      "name": "OwnershipTransferred",
      "type": "event"
    },
    {
      "anonymous": false,
      "inputs": [
        {
          "indexed": true,
          "internalType": "uint256",
          "name": "tierId",
          "type": "uint256"
        },
        {
          "indexed": false,
          "internalType": "address",
          "name": "caller",
          "type": "address"
        }
      ],
      "name": "RemoveTier",
      "type": "event"
    },
    {
      "anonymous": false,
      "inputs": [
        {
          "indexed": true,
          "internalType": "string",
          "name": "baseUri",
          "type": "string"
        },
        {
          "indexed": false,
          "internalType": "address",
          "name": "caller",
          "type": "address"
        }
      ],
      "name": "SetBaseUri",
      "type": "event"
    },
    {
      "anonymous": false,
      "inputs": [
        {
          "indexed": true,
          "internalType": "string",
          "name": "contractUri",
          "type": "string"
        },
        {
          "indexed": false,
          "internalType": "address",
          "name": "caller",
          "type": "address"
        }
      ],
      "name": "SetContractUri",
      "type": "event"
    },
    {
      "anonymous": false,
      "inputs": [
        {
          "indexed": true,
          "internalType": "address",
          "name": "beneficiary",
          "type": "address"
        },
        {
          "indexed": false,
          "internalType": "address",
          "name": "caller",
          "type": "address"
        }
      ],
      "name": "SetDefaultReservedTokenBeneficiary",
      "type": "event"
    },
    {
      "anonymous": false,
      "inputs": [
        {
          "indexed": true,
          "internalType": "uint256",
          "name": "tierId",
          "type": "uint256"
        },
        {
          "indexed": false,
          "internalType": "bytes32",
          "name": "encodedIPFSUri",
          "type": "bytes32"
        },
        {
          "indexed": false,
          "internalType": "address",
          "name": "caller",
          "type": "address"
        }
      ],
      "name": "SetEncodedIPFSUri",
      "type": "event"
    },
    {
      "anonymous": false,
      "inputs": [
        {
          "indexed": true,
          "internalType": "contract IJBTokenUriResolver",
          "name": "newResolver",
          "type": "address"
        },
        {
          "indexed": false,
          "internalType": "address",
          "name": "caller",
          "type": "address"
        }
      ],
      "name": "SetTokenUriResolver",
      "type": "event"
    },
    {
      "anonymous": false,
      "inputs": [
        {
          "indexed": true,
          "internalType": "address",
          "name": "delegator",
          "type": "address"
        },
        {
          "indexed": true,
          "internalType": "address",
          "name": "fromDelegate",
          "type": "address"
        },
        {
          "indexed": true,
          "internalType": "address",
          "name": "toDelegate",
          "type": "address"
        },
        {
          "indexed": false,
          "internalType": "uint256",
          "name": "tierId",
          "type": "uint256"
        },
        {
          "indexed": false,
          "internalType": "address",
          "name": "caller",
          "type": "address"
        }
      ],
      "name": "TierDelegateChanged",
      "type": "event"
    },
    {
      "anonymous": false,
      "inputs": [
        {
          "indexed": true,
          "internalType": "address",
          "name": "delegate",
          "type": "address"
        },
        {
          "indexed": true,
          "internalType": "uint256",
          "name": "tierId",
          "type": "uint256"
        },
        {
          "indexed": false,
          "internalType": "uint256",
          "name": "previousBalance",
          "type": "uint256"
        },
        {
          "indexed": false,
          "internalType": "uint256",
          "name": "newBalance",
          "type": "uint256"
        },
        {
          "indexed": false,
          "internalType": "address",
          "name": "caller",
          "type": "address"
        }
      ],
      "name": "TierDelegateVotesChanged",
      "type": "event"
    },
    {
      "anonymous": false,
      "inputs": [
        {
          "indexed": true,
          "internalType": "address",
          "name": "from",
          "type": "address"
        },
        {
          "indexed": true,
          "internalType": "address",
          "name": "to",
          "type": "address"
        },
        {
          "indexed": true,
          "internalType": "uint256",
          "name": "tokenId",
          "type": "uint256"
        }
      ],
      "name": "Transfer",
      "type": "event"
    },
    {
      "anonymous": false,
      "inputs": [
        {
          "indexed": true,
          "internalType": "uint256",
          "name": "changeAmount",
          "type": "uint256"
        },
        {
          "indexed": true,
          "internalType": "uint256",
          "name": "newTotalCredits",
          "type": "uint256"
        },
        {
          "indexed": true,
          "internalType": "address",
          "name": "account",
          "type": "address"
        },
        {
          "indexed": false,
          "internalType": "address",
          "name": "caller",
          "type": "address"
        }
      ],
      "name": "UseCredits",
      "type": "event"
    },
    {
      "inputs": [],
      "name": "TOTAL_REDEMPTION_WEIGHT",
      "outputs": [
        {
          "internalType": "uint256",
          "name": "",
          "type": "uint256"
        }
      ],
      "stateMutability": "view",
      "type": "function"
    },
    {
      "inputs": [
        {
          "components": [
            {
              "internalType": "uint80",
              "name": "contributionFloor",
              "type": "uint80"
            },
            {
              "internalType": "uint48",
              "name": "lockedUntil",
              "type": "uint48"
            },
            {
              "internalType": "uint40",
              "name": "initialQuantity",
              "type": "uint40"
            },
            {
              "internalType": "uint16",
              "name": "votingUnits",
              "type": "uint16"
            },
            {
              "internalType": "uint16",
              "name": "reservedRate",
              "type": "uint16"
            },
            {
              "internalType": "address",
              "name": "reservedTokenBeneficiary",
              "type": "address"
            },
            {
              "internalType": "uint8",
              "name": "royaltyRate",
              "type": "uint8"
            },
            {
              "internalType": "address",
              "name": "royaltyBeneficiary",
              "type": "address"
            },
            {
              "internalType": "bytes32",
              "name": "encodedIPFSUri",
              "type": "bytes32"
            },
            {
              "internalType": "uint8",
              "name": "category",
              "type": "uint8"
            },
            {
              "internalType": "bool",
              "name": "allowManualMint",
              "type": "bool"
            },
            {
              "internalType": "bool",
              "name": "shouldUseReservedTokenBeneficiaryAsDefault",
              "type": "bool"
            },
            {
              "internalType": "bool",
              "name": "shouldUseRoyaltyBeneficiaryAsDefault",
              "type": "bool"
            },
            {
              "internalType": "bool",
              "name": "transfersPausable",
              "type": "bool"
            }
          ],
          "internalType": "struct JB721TierParams[]",
          "name": "_tiersToAdd",
          "type": "tuple[]"
        },
        {
          "internalType": "uint256[]",
          "name": "_tierIdsToRemove",
          "type": "uint256[]"
        }
      ],
      "name": "adjustTiers",
      "outputs": [],
      "stateMutability": "nonpayable",
      "type": "function"
    },
    {
      "inputs": [
        {
          "internalType": "address",
          "name": "to",
          "type": "address"
        },
        {
          "internalType": "uint256",
          "name": "tokenId",
          "type": "uint256"
        }
      ],
      "name": "approve",
      "outputs": [],
      "stateMutability": "nonpayable",
      "type": "function"
    },
    {
      "inputs": [
        {
          "internalType": "address",
          "name": "_owner",
          "type": "address"
        }
      ],
      "name": "balanceOf",
      "outputs": [
        {
          "internalType": "uint256",
          "name": "balance",
          "type": "uint256"
        }
      ],
      "stateMutability": "view",
      "type": "function"
    },
    {
      "inputs": [],
      "name": "codeOrigin",
      "outputs": [
        {
          "internalType": "address",
          "name": "",
          "type": "address"
        }
      ],
      "stateMutability": "view",
      "type": "function"
    },
    {
      "inputs": [],
      "name": "contractURI",
      "outputs": [
        {
          "internalType": "string",
          "name": "",
          "type": "string"
        }
      ],
      "stateMutability": "view",
      "type": "function"
    },
    {
      "inputs": [
        {
          "internalType": "address",
          "name": "",
          "type": "address"
        }
      ],
      "name": "creditsOf",
      "outputs": [
        {
          "internalType": "uint256",
          "name": "",
          "type": "uint256"
        }
      ],
      "stateMutability": "view",
      "type": "function"
    },
    {
      "inputs": [
        {
          "components": [
            {
              "internalType": "address",
              "name": "payer",
              "type": "address"
            },
            {
              "internalType": "uint256",
              "name": "projectId",
              "type": "uint256"
            },
            {
              "internalType": "uint256",
              "name": "currentFundingCycleConfiguration",
              "type": "uint256"
            },
            {
              "components": [
                {
                  "internalType": "address",
                  "name": "token",
                  "type": "address"
                },
                {
                  "internalType": "uint256",
                  "name": "value",
                  "type": "uint256"
                },
                {
                  "internalType": "uint256",
                  "name": "decimals",
                  "type": "uint256"
                },
                {
                  "internalType": "uint256",
                  "name": "currency",
                  "type": "uint256"
                }
              ],
              "internalType": "struct JBTokenAmount",
              "name": "amount",
              "type": "tuple"
            },
            {
              "components": [
                {
                  "internalType": "address",
                  "name": "token",
                  "type": "address"
                },
                {
                  "internalType": "uint256",
                  "name": "value",
                  "type": "uint256"
                },
                {
                  "internalType": "uint256",
                  "name": "decimals",
                  "type": "uint256"
                },
                {
                  "internalType": "uint256",
                  "name": "currency",
                  "type": "uint256"
                }
              ],
              "internalType": "struct JBTokenAmount",
              "name": "forwardedAmount",
              "type": "tuple"
            },
            {
              "internalType": "uint256",
              "name": "projectTokenCount",
              "type": "uint256"
            },
            {
              "internalType": "address",
              "name": "beneficiary",
              "type": "address"
            },
            {
              "internalType": "bool",
              "name": "preferClaimedTokens",
              "type": "bool"
            },
            {
              "internalType": "string",
              "name": "memo",
              "type": "string"
            },
            {
              "internalType": "bytes",
              "name": "metadata",
              "type": "bytes"
            }
          ],
          "internalType": "struct JBDidPayData",
          "name": "_data",
          "type": "tuple"
        }
      ],
      "name": "didPay",
      "outputs": [],
      "stateMutability": "payable",
      "type": "function"
    },
    {
      "inputs": [
        {
          "components": [
            {
              "internalType": "address",
              "name": "holder",
              "type": "address"
            },
            {
              "internalType": "uint256",
              "name": "projectId",
              "type": "uint256"
            },
            {
              "internalType": "uint256",
              "name": "currentFundingCycleConfiguration",
              "type": "uint256"
            },
            {
              "internalType": "uint256",
              "name": "projectTokenCount",
              "type": "uint256"
            },
            {
              "components": [
                {
                  "internalType": "address",
                  "name": "token",
                  "type": "address"
                },
                {
                  "internalType": "uint256",
                  "name": "value",
                  "type": "uint256"
                },
                {
                  "internalType": "uint256",
                  "name": "decimals",
                  "type": "uint256"
                },
                {
                  "internalType": "uint256",
                  "name": "currency",
                  "type": "uint256"
                }
              ],
              "internalType": "struct JBTokenAmount",
              "name": "reclaimedAmount",
              "type": "tuple"
            },
            {
              "components": [
                {
                  "internalType": "address",
                  "name": "token",
                  "type": "address"
                },
                {
                  "internalType": "uint256",
                  "name": "value",
                  "type": "uint256"
                },
                {
                  "internalType": "uint256",
                  "name": "decimals",
                  "type": "uint256"
                },
                {
                  "internalType": "uint256",
                  "name": "currency",
                  "type": "uint256"
                }
              ],
              "internalType": "struct JBTokenAmount",
              "name": "forwardedAmount",
              "type": "tuple"
            },
            {
              "internalType": "address payable",
              "name": "beneficiary",
              "type": "address"
            },
            {
              "internalType": "string",
              "name": "memo",
              "type": "string"
            },
            {
              "internalType": "bytes",
              "name": "metadata",
              "type": "bytes"
            }
          ],
          "internalType": "struct JBDidRedeemData",
          "name": "_data",
          "type": "tuple"
        }
      ],
      "name": "didRedeem",
      "outputs": [],
      "stateMutability": "payable",
      "type": "function"
    },
    {
      "inputs": [],
      "name": "directory",
      "outputs": [
        {
          "internalType": "contract IJBDirectory",
          "name": "",
          "type": "address"
        }
      ],
      "stateMutability": "view",
      "type": "function"
    },
    {
      "inputs": [
        {
          "internalType": "uint256",
          "name": "_tokenId",
          "type": "uint256"
        }
      ],
      "name": "firstOwnerOf",
      "outputs": [
        {
          "internalType": "address",
          "name": "",
          "type": "address"
        }
      ],
      "stateMutability": "view",
      "type": "function"
    },
    {
      "inputs": [],
      "name": "fundingCycleStore",
      "outputs": [
        {
          "internalType": "contract IJBFundingCycleStore",
          "name": "",
          "type": "address"
        }
      ],
      "stateMutability": "view",
      "type": "function"
    },
    {
      "inputs": [
        {
          "internalType": "uint256",
          "name": "tokenId",
          "type": "uint256"
        }
      ],
      "name": "getApproved",
      "outputs": [
        {
          "internalType": "address",
          "name": "",
          "type": "address"
        }
      ],
      "stateMutability": "view",
      "type": "function"
    },
    {
      "inputs": [
        {
          "internalType": "uint256",
          "name": "_tier",
          "type": "uint256"
        },
        {
          "internalType": "uint256",
          "name": "_blockNumber",
          "type": "uint256"
        }
      ],
      "name": "getPastTierTotalVotes",
      "outputs": [
        {
          "internalType": "uint256",
          "name": "",
          "type": "uint256"
        }
      ],
      "stateMutability": "view",
      "type": "function"
    },
    {
      "inputs": [
        {
          "internalType": "address",
          "name": "_account",
          "type": "address"
        },
        {
          "internalType": "uint256",
          "name": "_tier",
          "type": "uint256"
        },
        {
          "internalType": "uint256",
          "name": "_blockNumber",
          "type": "uint256"
        }
      ],
      "name": "getPastTierVotes",
      "outputs": [
        {
          "internalType": "uint256",
          "name": "",
          "type": "uint256"
        }
      ],
      "stateMutability": "view",
      "type": "function"
    },
    {
      "inputs": [
        {
          "internalType": "address",
          "name": "_account",
          "type": "address"
        },
        {
          "internalType": "uint256",
          "name": "_tier",
          "type": "uint256"
        }
      ],
      "name": "getTierDelegate",
      "outputs": [
        {
          "internalType": "address",
          "name": "",
          "type": "address"
        }
      ],
      "stateMutability": "view",
      "type": "function"
    },
    {
      "inputs": [
        {
          "internalType": "uint256",
          "name": "_tier",
          "type": "uint256"
        }
      ],
      "name": "getTierTotalVotes",
      "outputs": [
        {
          "internalType": "uint256",
          "name": "",
          "type": "uint256"
        }
      ],
      "stateMutability": "view",
      "type": "function"
    },
    {
      "inputs": [
        {
          "internalType": "address",
          "name": "_account",
          "type": "address"
        },
        {
          "internalType": "uint256",
          "name": "_tier",
          "type": "uint256"
        }
      ],
      "name": "getTierVotes",
      "outputs": [
        {
          "internalType": "uint256",
          "name": "",
          "type": "uint256"
        }
      ],
      "stateMutability": "view",
      "type": "function"
    },
    {
      "inputs": [
        {
          "internalType": "uint256",
          "name": "_projectId",
          "type": "uint256"
        },
        {
          "internalType": "contract IJBDirectory",
          "name": "_directory",
          "type": "address"
        },
        {
          "internalType": "string",
          "name": "_name",
          "type": "string"
        },
        {
          "internalType": "string",
          "name": "_symbol",
          "type": "string"
        },
        {
          "internalType": "contract IJBFundingCycleStore",
          "name": "_fundingCycleStore",
          "type": "address"
        },
        {
          "internalType": "string",
          "name": "_baseUri",
          "type": "string"
        },
        {
          "internalType": "contract IJBTokenUriResolver",
          "name": "_tokenUriResolver",
          "type": "address"
        },
        {
          "internalType": "string",
          "name": "_contractUri",
          "type": "string"
        },
        {
          "components": [
            {
              "components": [
                {
                  "internalType": "uint80",
                  "name": "contributionFloor",
                  "type": "uint80"
                },
                {
                  "internalType": "uint48",
                  "name": "lockedUntil",
                  "type": "uint48"
                },
                {
                  "internalType": "uint40",
                  "name": "initialQuantity",
                  "type": "uint40"
                },
                {
                  "internalType": "uint16",
                  "name": "votingUnits",
                  "type": "uint16"
                },
                {
                  "internalType": "uint16",
                  "name": "reservedRate",
                  "type": "uint16"
                },
                {
                  "internalType": "address",
                  "name": "reservedTokenBeneficiary",
                  "type": "address"
                },
                {
                  "internalType": "uint8",
                  "name": "royaltyRate",
                  "type": "uint8"
                },
                {
                  "internalType": "address",
                  "name": "royaltyBeneficiary",
                  "type": "address"
                },
                {
                  "internalType": "bytes32",
                  "name": "encodedIPFSUri",
                  "type": "bytes32"
                },
                {
                  "internalType": "uint8",
                  "name": "category",
                  "type": "uint8"
                },
                {
                  "internalType": "bool",
                  "name": "allowManualMint",
                  "type": "bool"
                },
                {
                  "internalType": "bool",
                  "name": "shouldUseReservedTokenBeneficiaryAsDefault",
                  "type": "bool"
                },
                {
                  "internalType": "bool",
                  "name": "shouldUseRoyaltyBeneficiaryAsDefault",
                  "type": "bool"
                },
                {
                  "internalType": "bool",
                  "name": "transfersPausable",
                  "type": "bool"
                }
              ],
              "internalType": "struct JB721TierParams[]",
              "name": "tiers",
              "type": "tuple[]"
            },
            {
              "internalType": "uint256",
              "name": "currency",
              "type": "uint256"
            },
            {
              "internalType": "uint256",
              "name": "decimals",
              "type": "uint256"
            },
            {
              "internalType": "contract IJBPrices",
              "name": "prices",
              "type": "address"
            }
          ],
          "internalType": "struct JB721PricingParams",
          "name": "_pricing",
          "type": "tuple"
        },
        {
          "internalType": "contract IJBTiered721DelegateStore",
          "name": "_store",
          "type": "address"
        },
        {
          "components": [
            {
              "internalType": "bool",
              "name": "lockReservedTokenChanges",
              "type": "bool"
            },
            {
              "internalType": "bool",
              "name": "lockVotingUnitChanges",
              "type": "bool"
            },
            {
              "internalType": "bool",
              "name": "lockManualMintingChanges",
              "type": "bool"
            },
            {
              "internalType": "bool",
              "name": "preventOverspending",
              "type": "bool"
            }
          ],
          "internalType": "struct JBTiered721Flags",
          "name": "_flags",
          "type": "tuple"
        }
      ],
      "name": "initialize",
      "outputs": [],
      "stateMutability": "nonpayable",
      "type": "function"
    },
    {
      "inputs": [
        {
          "internalType": "address",
          "name": "owner",
          "type": "address"
        },
        {
          "internalType": "address",
          "name": "operator",
          "type": "address"
        }
      ],
      "name": "isApprovedForAll",
      "outputs": [
        {
          "internalType": "bool",
          "name": "",
          "type": "bool"
        }
      ],
      "stateMutability": "view",
      "type": "function"
    },
    {
      "inputs": [
        {
          "components": [
            {
              "internalType": "uint16[]",
              "name": "tierIds",
              "type": "uint16[]"
            },
            {
              "internalType": "address",
              "name": "beneficiary",
              "type": "address"
            }
          ],
          "internalType": "struct JBTiered721MintForTiersData[]",
          "name": "_mintForTiersData",
          "type": "tuple[]"
        }
      ],
      "name": "mintFor",
      "outputs": [],
      "stateMutability": "nonpayable",
      "type": "function"
    },
    {
      "inputs": [
        {
          "internalType": "uint16[]",
          "name": "_tierIds",
          "type": "uint16[]"
        },
        {
          "internalType": "address",
          "name": "_beneficiary",
          "type": "address"
        }
      ],
      "name": "mintFor",
      "outputs": [
        {
          "internalType": "uint256[]",
          "name": "tokenIds",
          "type": "uint256[]"
        }
      ],
      "stateMutability": "nonpayable",
      "type": "function"
    },
    {
      "inputs": [
        {
          "components": [
            {
              "internalType": "uint256",
              "name": "tierId",
              "type": "uint256"
            },
            {
              "internalType": "uint256",
              "name": "count",
              "type": "uint256"
            }
          ],
          "internalType": "struct JBTiered721MintReservesForTiersData[]",
          "name": "_mintReservesForTiersData",
          "type": "tuple[]"
        }
      ],
      "name": "mintReservesFor",
      "outputs": [],
      "stateMutability": "nonpayable",
      "type": "function"
    },
    {
      "inputs": [
        {
          "internalType": "uint256",
          "name": "_tierId",
          "type": "uint256"
        },
        {
          "internalType": "uint256",
          "name": "_count",
          "type": "uint256"
        }
      ],
      "name": "mintReservesFor",
      "outputs": [],
      "stateMutability": "nonpayable",
      "type": "function"
    },
    {
      "inputs": [],
      "name": "name",
      "outputs": [
        {
          "internalType": "string",
          "name": "",
          "type": "string"
        }
      ],
      "stateMutability": "view",
      "type": "function"
    },
    {
      "inputs": [],
      "name": "owner",
      "outputs": [
        {
          "internalType": "address",
          "name": "",
          "type": "address"
        }
      ],
      "stateMutability": "view",
      "type": "function"
    },
    {
      "inputs": [
        {
          "internalType": "uint256",
          "name": "tokenId",
          "type": "uint256"
        }
      ],
      "name": "ownerOf",
      "outputs": [
        {
          "internalType": "address",
          "name": "",
          "type": "address"
        }
      ],
      "stateMutability": "view",
      "type": "function"
    },
    {
      "inputs": [
        {
          "components": [
            {
              "internalType": "contract IJBPaymentTerminal",
              "name": "terminal",
              "type": "address"
            },
            {
              "internalType": "address",
              "name": "payer",
              "type": "address"
            },
            {
              "components": [
                {
                  "internalType": "address",
                  "name": "token",
                  "type": "address"
                },
                {
                  "internalType": "uint256",
                  "name": "value",
                  "type": "uint256"
                },
                {
                  "internalType": "uint256",
                  "name": "decimals",
                  "type": "uint256"
                },
                {
                  "internalType": "uint256",
                  "name": "currency",
                  "type": "uint256"
                }
              ],
              "internalType": "struct JBTokenAmount",
              "name": "amount",
              "type": "tuple"
            },
            {
              "internalType": "uint256",
              "name": "projectId",
              "type": "uint256"
            },
            {
              "internalType": "uint256",
              "name": "currentFundingCycleConfiguration",
              "type": "uint256"
            },
            {
              "internalType": "address",
              "name": "beneficiary",
              "type": "address"
            },
            {
              "internalType": "uint256",
              "name": "weight",
              "type": "uint256"
            },
            {
              "internalType": "uint256",
              "name": "reservedRate",
              "type": "uint256"
            },
            {
              "internalType": "string",
              "name": "memo",
              "type": "string"
            },
            {
              "internalType": "bytes",
              "name": "metadata",
              "type": "bytes"
            }
          ],
          "internalType": "struct JBPayParamsData",
          "name": "_data",
          "type": "tuple"
        }
      ],
      "name": "payParams",
      "outputs": [
        {
          "internalType": "uint256",
          "name": "weight",
          "type": "uint256"
        },
        {
          "internalType": "string",
          "name": "memo",
          "type": "string"
        },
        {
          "components": [
            {
              "internalType": "contract IJBPayDelegate",
              "name": "delegate",
              "type": "address"
            },
            {
              "internalType": "uint256",
              "name": "amount",
              "type": "uint256"
            }
          ],
          "internalType": "struct JBPayDelegateAllocation[]",
          "name": "delegateAllocations",
          "type": "tuple[]"
        }
      ],
      "stateMutability": "view",
      "type": "function"
    },
    {
      "inputs": [],
      "name": "prices",
      "outputs": [
        {
          "internalType": "contract IJBPrices",
          "name": "",
          "type": "address"
        }
      ],
      "stateMutability": "view",
      "type": "function"
    },
    {
      "inputs": [],
      "name": "pricingCurrency",
      "outputs": [
        {
          "internalType": "uint256",
          "name": "",
          "type": "uint256"
        }
      ],
      "stateMutability": "view",
      "type": "function"
    },
    {
      "inputs": [],
      "name": "pricingDecimals",
      "outputs": [
        {
          "internalType": "uint256",
          "name": "",
          "type": "uint256"
        }
      ],
      "stateMutability": "view",
      "type": "function"
    },
    {
      "inputs": [],
      "name": "projectId",
      "outputs": [
        {
          "internalType": "uint256",
          "name": "",
          "type": "uint256"
        }
      ],
      "stateMutability": "view",
      "type": "function"
    },
    {
      "inputs": [
        {
          "components": [
            {
              "internalType": "contract IJBPaymentTerminal",
              "name": "terminal",
              "type": "address"
            },
            {
              "internalType": "address",
              "name": "holder",
              "type": "address"
            },
            {
              "internalType": "uint256",
              "name": "projectId",
              "type": "uint256"
            },
            {
              "internalType": "uint256",
              "name": "currentFundingCycleConfiguration",
              "type": "uint256"
            },
            {
              "internalType": "uint256",
              "name": "tokenCount",
              "type": "uint256"
            },
            {
              "internalType": "uint256",
              "name": "totalSupply",
              "type": "uint256"
            },
            {
              "internalType": "uint256",
              "name": "overflow",
              "type": "uint256"
            },
            {
              "components": [
                {
                  "internalType": "address",
                  "name": "token",
                  "type": "address"
                },
                {
                  "internalType": "uint256",
                  "name": "value",
                  "type": "uint256"
                },
                {
                  "internalType": "uint256",
                  "name": "decimals",
                  "type": "uint256"
                },
                {
                  "internalType": "uint256",
                  "name": "currency",
                  "type": "uint256"
                }
              ],
              "internalType": "struct JBTokenAmount",
              "name": "reclaimAmount",
              "type": "tuple"
            },
            {
              "internalType": "bool",
              "name": "useTotalOverflow",
              "type": "bool"
            },
            {
              "internalType": "uint256",
              "name": "redemptionRate",
              "type": "uint256"
            },
            {
              "internalType": "string",
              "name": "memo",
              "type": "string"
            },
            {
              "internalType": "bytes",
              "name": "metadata",
              "type": "bytes"
            }
          ],
          "internalType": "struct JBRedeemParamsData",
          "name": "_data",
          "type": "tuple"
        }
      ],
      "name": "redeemParams",
      "outputs": [
        {
          "internalType": "uint256",
          "name": "reclaimAmount",
          "type": "uint256"
        },
        {
          "internalType": "string",
          "name": "memo",
          "type": "string"
        },
        {
          "components": [
            {
              "internalType": "contract IJBRedemptionDelegate",
              "name": "delegate",
              "type": "address"
            },
            {
              "internalType": "uint256",
              "name": "amount",
              "type": "uint256"
            }
          ],
          "internalType": "struct JBRedemptionDelegateAllocation[]",
          "name": "delegateAllocations",
          "type": "tuple[]"
        }
      ],
      "stateMutability": "view",
      "type": "function"
    },
    {
      "inputs": [
        {
          "internalType": "uint256",
          "name": "_tokenId",
          "type": "uint256"
        }
      ],
      "name": "redemptionWeightOf",
      "outputs": [
        {
          "internalType": "uint256",
          "name": "",
          "type": "uint256"
        }
      ],
      "stateMutability": "view",
      "type": "function"
    },
    {
      "inputs": [
        {
          "internalType": "uint256[]",
          "name": "_tokenIds",
          "type": "uint256[]"
        },
        {
          "components": [
            {
              "internalType": "contract IJBPaymentTerminal",
              "name": "terminal",
              "type": "address"
            },
            {
              "internalType": "address",
              "name": "holder",
              "type": "address"
            },
            {
              "internalType": "uint256",
              "name": "projectId",
              "type": "uint256"
            },
            {
              "internalType": "uint256",
              "name": "currentFundingCycleConfiguration",
              "type": "uint256"
            },
            {
              "internalType": "uint256",
              "name": "tokenCount",
              "type": "uint256"
            },
            {
              "internalType": "uint256",
              "name": "totalSupply",
              "type": "uint256"
            },
            {
              "internalType": "uint256",
              "name": "overflow",
              "type": "uint256"
            },
            {
              "components": [
                {
                  "internalType": "address",
                  "name": "token",
                  "type": "address"
                },
                {
                  "internalType": "uint256",
                  "name": "value",
                  "type": "uint256"
                },
                {
                  "internalType": "uint256",
                  "name": "decimals",
                  "type": "uint256"
                },
                {
                  "internalType": "uint256",
                  "name": "currency",
                  "type": "uint256"
                }
              ],
              "internalType": "struct JBTokenAmount",
              "name": "reclaimAmount",
              "type": "tuple"
            },
            {
              "internalType": "bool",
              "name": "useTotalOverflow",
              "type": "bool"
            },
            {
              "internalType": "uint256",
              "name": "redemptionRate",
              "type": "uint256"
            },
            {
              "internalType": "string",
              "name": "memo",
              "type": "string"
            },
            {
              "internalType": "bytes",
              "name": "metadata",
              "type": "bytes"
            }
          ],
          "internalType": "struct JBRedeemParamsData",
          "name": "",
          "type": "tuple"
        }
      ],
      "name": "redemptionWeightOf",
      "outputs": [
        {
          "internalType": "uint256",
          "name": "cumulativeWeight",
          "type": "uint256"
        }
      ],
      "stateMutability": "view",
      "type": "function"
    },
    {
      "inputs": [],
      "name": "renounceOwnership",
      "outputs": [],
      "stateMutability": "nonpayable",
      "type": "function"
    },
    {
      "inputs": [
        {
          "internalType": "uint256",
          "name": "_tokenId",
          "type": "uint256"
        },
        {
          "internalType": "uint256",
          "name": "_salePrice",
          "type": "uint256"
        }
      ],
      "name": "royaltyInfo",
      "outputs": [
        {
          "internalType": "address",
          "name": "",
          "type": "address"
        },
        {
          "internalType": "uint256",
          "name": "",
          "type": "uint256"
        }
      ],
      "stateMutability": "view",
      "type": "function"
    },
    {
      "inputs": [
        {
          "internalType": "address",
          "name": "from",
          "type": "address"
        },
        {
          "internalType": "address",
          "name": "to",
          "type": "address"
        },
        {
          "internalType": "uint256",
          "name": "tokenId",
          "type": "uint256"
        }
      ],
      "name": "safeTransferFrom",
      "outputs": [],
      "stateMutability": "nonpayable",
      "type": "function"
    },
    {
      "inputs": [
        {
          "internalType": "address",
          "name": "from",
          "type": "address"
        },
        {
          "internalType": "address",
          "name": "to",
          "type": "address"
        },
        {
          "internalType": "uint256",
          "name": "tokenId",
          "type": "uint256"
        },
        {
          "internalType": "bytes",
          "name": "data",
          "type": "bytes"
        }
      ],
      "name": "safeTransferFrom",
      "outputs": [],
      "stateMutability": "nonpayable",
      "type": "function"
    },
    {
      "inputs": [
        {
          "internalType": "address",
          "name": "operator",
          "type": "address"
        },
        {
          "internalType": "bool",
          "name": "approved",
          "type": "bool"
        }
      ],
      "name": "setApprovalForAll",
      "outputs": [],
      "stateMutability": "nonpayable",
      "type": "function"
    },
    {
      "inputs": [
        {
          "internalType": "string",
          "name": "_baseUri",
          "type": "string"
        }
      ],
      "name": "setBaseUri",
      "outputs": [],
      "stateMutability": "nonpayable",
      "type": "function"
    },
    {
      "inputs": [
        {
          "internalType": "string",
          "name": "_contractUri",
          "type": "string"
        }
      ],
      "name": "setContractUri",
      "outputs": [],
      "stateMutability": "nonpayable",
      "type": "function"
    },
    {
      "inputs": [
        {
          "internalType": "address",
          "name": "_beneficiary",
          "type": "address"
        }
      ],
      "name": "setDefaultReservedTokenBeneficiary",
      "outputs": [],
      "stateMutability": "nonpayable",
      "type": "function"
    },
    {
      "inputs": [
        {
          "internalType": "uint256",
          "name": "_tierId",
          "type": "uint256"
        },
        {
          "internalType": "bytes32",
          "name": "_encodedIPFSUri",
          "type": "bytes32"
        }
      ],
      "name": "setEncodedIPFSUriOf",
      "outputs": [],
      "stateMutability": "nonpayable",
      "type": "function"
    },
    {
      "inputs": [
        {
          "internalType": "address",
          "name": "_delegatee",
          "type": "address"
        },
        {
          "internalType": "uint256",
          "name": "_tierId",
          "type": "uint256"
        }
      ],
      "name": "setTierDelegate",
      "outputs": [],
      "stateMutability": "nonpayable",
      "type": "function"
    },
    {
      "inputs": [
        {
          "components": [
            {
              "internalType": "address",
              "name": "delegatee",
              "type": "address"
            },
            {
              "internalType": "uint256",
              "name": "tierId",
              "type": "uint256"
            }
          ],
          "internalType": "struct JBTiered721SetTierDelegatesData[]",
          "name": "_setTierDelegatesData",
          "type": "tuple[]"
        }
      ],
      "name": "setTierDelegates",
      "outputs": [],
      "stateMutability": "nonpayable",
      "type": "function"
    },
    {
      "inputs": [
        {
          "components": [
            {
              "internalType": "uint256",
              "name": "id",
              "type": "uint256"
            },
            {
              "internalType": "uint256",
              "name": "redemptionWeight",
              "type": "uint256"
            }
          ],
          "internalType": "struct DefifaTierRedemptionWeight[]",
          "name": "_tierWeights",
          "type": "tuple[]"
        }
      ],
      "name": "setTierRedemptionWeights",
      "outputs": [],
      "stateMutability": "nonpayable",
      "type": "function"
    },
    {
      "inputs": [
        {
          "internalType": "contract IJBTokenUriResolver",
          "name": "_tokenUriResolver",
          "type": "address"
        }
      ],
      "name": "setTokenUriResolver",
      "outputs": [],
      "stateMutability": "nonpayable",
      "type": "function"
    },
    {
      "inputs": [],
      "name": "store",
      "outputs": [
        {
          "internalType": "contract IJBTiered721DelegateStore",
          "name": "",
          "type": "address"
        }
      ],
      "stateMutability": "view",
      "type": "function"
    },
    {
      "inputs": [
        {
          "internalType": "bytes4",
          "name": "_interfaceId",
          "type": "bytes4"
        }
      ],
      "name": "supportsInterface",
      "outputs": [
        {
          "internalType": "bool",
          "name": "",
          "type": "bool"
        }
      ],
      "stateMutability": "view",
      "type": "function"
    },
    {
      "inputs": [],
      "name": "symbol",
      "outputs": [
        {
          "internalType": "string",
          "name": "",
          "type": "string"
        }
      ],
      "stateMutability": "view",
      "type": "function"
    },
    {
      "inputs": [],
      "name": "tierRedemptionWeights",
      "outputs": [
        {
          "internalType": "uint256[128]",
          "name": "",
          "type": "uint256[128]"
        }
      ],
      "stateMutability": "view",
      "type": "function"
    },
    {
      "inputs": [
        {
          "internalType": "uint256",
          "name": "_tokenId",
          "type": "uint256"
        }
      ],
      "name": "tokenURI",
      "outputs": [
        {
          "internalType": "string",
          "name": "",
          "type": "string"
        }
      ],
      "stateMutability": "view",
      "type": "function"
    },
    {
      "inputs": [
        {
          "components": [
            {
              "internalType": "contract IJBPaymentTerminal",
              "name": "terminal",
              "type": "address"
            },
            {
              "internalType": "address",
              "name": "holder",
              "type": "address"
            },
            {
              "internalType": "uint256",
              "name": "projectId",
              "type": "uint256"
            },
            {
              "internalType": "uint256",
              "name": "currentFundingCycleConfiguration",
              "type": "uint256"
            },
            {
              "internalType": "uint256",
              "name": "tokenCount",
              "type": "uint256"
            },
            {
              "internalType": "uint256",
              "name": "totalSupply",
              "type": "uint256"
            },
            {
              "internalType": "uint256",
              "name": "overflow",
              "type": "uint256"
            },
            {
              "components": [
                {
                  "internalType": "address",
                  "name": "token",
                  "type": "address"
                },
                {
                  "internalType": "uint256",
                  "name": "value",
                  "type": "uint256"
                },
                {
                  "internalType": "uint256",
                  "name": "decimals",
                  "type": "uint256"
                },
                {
                  "internalType": "uint256",
                  "name": "currency",
                  "type": "uint256"
                }
              ],
              "internalType": "struct JBTokenAmount",
              "name": "reclaimAmount",
              "type": "tuple"
            },
            {
              "internalType": "bool",
              "name": "useTotalOverflow",
              "type": "bool"
            },
            {
              "internalType": "uint256",
              "name": "redemptionRate",
              "type": "uint256"
            },
            {
              "internalType": "string",
              "name": "memo",
              "type": "string"
            },
            {
              "internalType": "bytes",
              "name": "metadata",
              "type": "bytes"
            }
          ],
          "internalType": "struct JBRedeemParamsData",
          "name": "",
          "type": "tuple"
        }
      ],
      "name": "totalRedemptionWeight",
      "outputs": [
        {
          "internalType": "uint256",
          "name": "",
          "type": "uint256"
        }
      ],
      "stateMutability": "view",
      "type": "function"
    },
    {
      "inputs": [
        {
          "internalType": "address",
          "name": "from",
          "type": "address"
        },
        {
          "internalType": "address",
          "name": "to",
          "type": "address"
        },
        {
          "internalType": "uint256",
          "name": "tokenId",
          "type": "uint256"
        }
      ],
      "name": "transferFrom",
      "outputs": [],
      "stateMutability": "nonpayable",
      "type": "function"
    },
    {
      "inputs": [
        {
          "internalType": "address",
          "name": "newOwner",
          "type": "address"
        }
      ],
      "name": "transferOwnership",
      "outputs": [],
      "stateMutability": "nonpayable",
      "type": "function"
    }
  ],
  "bytecode": {
    "object": "0x608080604052346100665760078054336001600160a01b03198083168217909355906001600160a01b03167f8be0079c531659141344cd1fd0a4f28419497f9722a3daafe3b4186f6b6457e0600080a330906008541617600855615edf90816200006c8239f35b600080fdfe60806040526004361015610013575b600080fd5b60003560e01c806301ffc9a71461047357806306fdde031461046a578063081812fc14610461578063095ea7b3146104585780631d153ca41461044f57806323b872dd146104465780632407497e1461043d578063245a45b51461043457806325eb91ee1461042b5780632a55205a146104225780632a596e53146104195780632b13c58f146104105780632f4415001461040757806336c1a93b146103fe5780633fafa127146103f557806342842e0e146103ec5780634ecba625146103e35780634f228e11146103da578063525350ba146103d157806354c6d1f5146103c8578063557e7155146103bf5780636352211e146103b6578063640abacd146103ad57806364640c1e146103a45780636ac6d9411461039b57806370a0823114610392578063715018a6146103895780637ba62bf91461038057806382732b6d146103775780638da5cb5b1461036e5780639494bf721461036557806394c5c5ca1461035c57806395d89b4114610353578063975057e71461034a5780639df4546814610341578063a0bcfc7f14610338578063a22cb4651461032f578063a51cfd1814610326578063aa4fb15b1461031d578063ab951e3914610314578063b88d4fde1461030b578063c41c2f2414610302578063c74b13d9146102f9578063c87b56dd146102f0578063ca323efe146102e7578063ccb4807b146102de578063d1704baf146102d5578063d31cc52c146102cc578063d3419bf3146102c3578063d40e7146146102ba578063d46cf171146102b1578063da9ee8b7146102a8578063df487e261461029f578063e8a3d48514610296578063e985e9c51461028d5763f2fde38b1461028557600080fd5b61000e612594565b5061000e61253b565b5061000e6124a4565b5061000e6123e9565b5061000e6122fd565b5061000e612241565b5061000e612186565b5061000e61215c565b5061000e61212d565b5061000e612063565b5061000e611cfe565b5061000e611caa565b5061000e611c76565b5061000e611bc4565b5061000e611b9a565b5061000e611b32565b5061000e611aa6565b5061000e611a86565b5061000e6119fb565b5061000e611957565b5061000e611887565b5061000e6117b7565b5061000e61178d565b5061000e611707565b5061000e6116cb565b5061000e6116ad565b5061000e611683565b5061000e611636565b5061000e6115df565b5061000e611534565b5061000e611493565b5061000e61143e565b5061000e6113e4565b5061000e6113c4565b5061000e6113a5565b5061000e61137b565b5061000e61135c565b5061000e611299565b5061000e611272565b5061000e611253565b5061000e61120a565b5061000e6111eb565b5061000e61113f565b5061000e6110ac565b5061000e610bdf565b5061000e610b21565b5061000e610a75565b5061000e6109e7565b5061000e610979565b5061000e610867565b5061000e610832565b5061000e6107dc565b5061000e610731565b5061000e6106e2565b5061000e610605565b5061000e61048e565b6001600160e01b031981160361000e57565b503461000e57602036600319011261000e576104dd6004356104af8161047c565b63ffffffff60e01b166306decc2d60e21b81149081156104e1575b5060405190151581529081906020820190565b0390f35b63b3bcbb7960e01b81149150811561058d575b811561057c575b811561056b575b811561055a575b8115610517575b50386104ca565b6380ac58cd60e01b811491508115610549575b8115610538575b5038610510565b6301ffc9a760e01b14905038610531565b635b5e139f60e01b8114915061052a565b63152a902d60e11b81149150610509565b632b13c58f60e01b81149150610502565b63da9ee8b760e01b811491506104fb565b6371700c6960e01b811491506104f4565b600091031261000e57565b60005b8381106105bc5750506000910152565b81810151838201526020016105ac565b906020916105e5815180928185528580860191016105a9565b601f01601f1916010190565b9060206106029281815201906105cc565b90565b503461000e576000806003193601126106c057604051818054610627816141f7565b80845290600190818116908115610698575060011461065d575b6104dd8461065181880382610fd0565b604051918291826105f1565b93508180526020938483205b82841061068557505050816104dd936106519282010193610641565b8054858501870152928501928101610669565b6104dd96506106519450602092508593915060ff191682840152151560051b82010193610641565b80fd5b6001600160a01b031690565b6001600160a01b03909116815260200190565b503461000e57602036600319011261000e576020610701600435614231565b6040516001600160a01b039091168152f35b6001600160a01b0381160361000e57565b359061072f82610713565b565b503461000e57604036600319011261000e5760043561074f81610713565b6024356001600160a01b0380610764836141c4565b1680918416146107ca5780331415908161079b575b506107895761078791614c5a565b005b60405163e5fa0e3560e01b8152600490fd5b905060005260046020526107c46107c06107b9336040600020610962565b5460ff1690565b1590565b38610779565b60405163133f8be960e01b8152600490fd5b503461000e57600036600319011261000e576008546040516001600160a01b039091168152602090f35b606090600319011261000e5760043561081e81610713565b9060243561082b81610713565b9060443590565b503461000e5761084136610806565b9061084c8233614299565b1561078957610787926149fb565b60c4359061072f82610713565b503461000e57600060203660031901126106c05760043561088781610713565b61088f615837565b6009546001600160a01b03908116803b1561092a5783604051809263036129cb60e61b82528183816108c489600483016106cf565b03925af1801561091d575b6108fc575b50600080516020615dea83398151915290604051921691806108f633826106cf565b0390a280f35b92610916600080516020615dea8339815191529294610f43565b92906108d4565b610925612807565b6108cf565b8380fd5b6001600160a01b0316600090815260106020526040902090565b6001600160a01b03166000908152600f6020526040902090565b9060018060a01b0316600052602052604060002090565b503461000e57602036600319011261000e5760043561099781610713565b60018060a01b0316600052600e6020526020604060002054604051908152f35b9181601f8401121561000e578235916001600160401b03831161000e576020808501948460051b01011161000e57565b503461000e57604036600319011261000e576004356001600160401b0380821161000e573660238301121561000e5781600401359181831161000e573660246101c085028301011161000e5760243591821161000e5761078792610a5160249336906004016109b7565b939092016139d9565b6001600160a01b039091168152602081019190915260400190565b503461000e5760408060031936011261000e5760648160018060a01b03600954168151928380926329c5eaf560e11b8252306004830152600435602483015260243560448301525afa918215610b14575b6000918293610adf575b506104dd905192839283610a5a565b81610b059294506104dd93503d8511610b0d575b610afd8183610fd0565b8101906132d3565b929091610ad0565b503d610af3565b610b1c612807565b610ac6565b503461000e5760208060031936011261000e57600435906001600160401b039081831161000e573660238401121561000e57826004013591821161000e57602490600693368385871b8301011161000e5760005b848110610b7e57005b600190610ba0610b943687848b1b870101611066565b85815191015190613de3565b01610b75565b90816101e091031261000e5790565b602060031982011261000e57600435906001600160401b03821161000e5761060291600401610ba6565b50610be936610bb5565b3415801590610ea1575b8015610e91575b610e7f5760a0810135908115610e6d576101c081016024610c1b8284612626565b9050108015610e35575b610e2357610c36610c3e9183612626565b81019061274e565b9150508051610c88610c59610c54600a546106c3565b6106c3565b93600554604095865180916321d1336160e11b825261012092839181806004998a988983019190602083019252565b03915afa918215610e16575b600092610de9575b505051149460005b848110610cd0578787610cb688614163565b610cbc57005b610ccb6107879160925461290c565b609255565b610cda818761272c565b51610cff610cf2826000526002602052604060002090565b546001600160a01b031690565b610d0b610c5486612fc0565b6001600160a01b0390911603610dd957908188610d296001946147ce565b610d35575b5001610ca4565b610d9290610d47610c546009546106c3565b87865180926342f9914b60e01b82528180610d6c602097889683019190602083019252565b03915afa918215610dcc575b600092610d9f575b50506000526093602052604060002090565b8054600101905538610d2e565b610dbe9250803d10610dc5575b610db68183610fd0565b810190612bbc565b3880610d80565b503d610dac565b610dd4612807565b610d78565b825163075fd2b160e01b81528590fd5b610e089250803d10610e0f575b610e008183610fd0565b810190612793565b3880610c9c565b503d610df6565b610e1e612807565b610c94565b604051632a84050f60e01b8152600490fd5b50610e49610e438284612626565b90612658565b63b3bcbb7960e01b916001600160e01b031991610e659161267a565b161415610c25565b604051637691472960e01b8152600490fd5b604051633efca5c360e11b8152600490fd5b5060055460208201351415610bfa565b50610ed66020610eb5610c546006546106c3565b600554906040518080958194636e49181f60e01b8352339060048401612fa7565b03915afa908115610f1f575b600091610ef1575b5015610bf3565b610f12915060203d8111610f18575b610f0a8183610fd0565b810190612f92565b38610eea565b503d610f00565b610f27612807565b610ee2565b50634e487b7160e01b600052604160045260246000fd5b6001600160401b038111610f5657604052565b610f5e610f2c565b604052565b604081019081106001600160401b03821117610f5657604052565b608081019081106001600160401b03821117610f5657604052565b61100081019081106001600160401b03821117610f5657604052565b606081019081106001600160401b03821117610f5657604052565b601f909101601f19168101906001600160401b03821190821017610f5657604052565b604051906101c082016001600160401b03811183821017610f5657604052565b6040519061072f82610f63565b6040519061012082016001600160401b03811183821017610f5657604052565b6020906001600160401b038111611059575b60051b0190565b611061610f2c565b611052565b919082604091031261000e57604080519081016001600160401b0381118282101761109f575b6040526020808294803584520135910152565b6110a7610f2c565b61108c565b503461000e5760208060031936011261000e57600435906001600160401b03821161000e573660238301121561000e578160040135916110eb83611040565b916040936110fb85519485610fd0565b80845260248285019160061b8401019236841161000e57602401905b8382106111275761078785612d89565b8286916111343685611066565b815201910190611117565b503461000e5760208060031936011261000e576001600160401b039060043582811161000e576111739036906004016109b7565b919061117d615837565b60005b83811061118957005b60059080821b830135603e198436030181121561000e5783018035601e198236030181121561000e5781019283359388851161000e5786859101911b3603811361000e576001936111de876111e49401612fc0565b91613fdc565b5001611180565b503461000e57600036600319011261000e576020600554604051908152f35b503461000e5761078761121c36610806565b60405192909190602084016001600160401b03811185821017611246575b6040526000845261425a565b61124e610f2c565b61123a565b503461000e57600036600319011261000e576020600d54604051908152f35b503461000e57602036600319011261000e576020611291600435612c27565b604051908152f35b503461000e57604036600319011261000e576004356024356112b9615837565b6009546001600160a01b0316803b1561000e577f677da4fed654db8e604791fa2582f342e2001aa217e27f6985eb3e0f67e5a7fc91600080611331936044604051809481936324de8d6360e11b83528a60048401528760248401525af1801561134f575b611336575b50604051918291339083612fa7565b0390a2005b8061134361134992610f43565b8061059e565b38611322565b611357612807565b61131d565b503461000e57602036600319011261000e57602061070160043561322b565b503461000e57600036600319011261000e57600a546040516001600160a01b039091168152602090f35b503461000e57602036600319011261000e5760206107016004356141c4565b503461000e57600036600319011261000e576020604051633b9aca008152f35b503461000e57600036600319011261000e576020600c54604051908152f35b6020908160408183019282815285518094520193019160005b82811061142a575050505090565b83518552938101939281019260010161141c565b503461000e57604036600319011261000e576004356001600160401b03811161000e576114876114756104dd9236906004016109b7565b6024359161148283610713565b613fdc565b60405191829182611403565b503461000e57602036600319011261000e576104dd6004356114b481610713565b600954604051633de222bb60e21b81523060048201526001600160a01b0392831660248201529160209183916044918391165afa908115611527575b600091611509575b506040519081529081906020820190565b611521915060203d8111610dc557610db68183610fd0565b386114f8565b61152f612807565b6114f0565b503461000e576000806003193601126106c05761154f615837565b600780546001600160a01b0319811690915581906001600160a01b0316600080516020615e0a8339815191528280a380f35b81601f8201121561000e5780359161159883611040565b926115a66040519485610fd0565b808452602092838086019260051b82010192831161000e578301905b8282106115d0575050505090565b813581529083019083016115c2565b503461000e57604036600319011261000e576001600160401b0360043581811161000e57611611903690600401611581565b9060243590811161000e57602091611630611291923690600401610ba6565b50612b6d565b503461000e57604036600319011261000e57602060043561165681610713565b60018060a01b03809116600052600f82526040600020602435600052825260406000205416604051908152f35b503461000e57600036600319011261000e576007546040516001600160a01b039091168152602090f35b503461000e576116bc36610bb5565b506020604051633b9aca008152f35b503461000e57602036600319011261000e576004356000526011602052602060018060e01b036116fe6040600020615aab565b16604051908152f35b503461000e576000806003193601126106c05760405181600180549061172c826141f7565b808552918181169081156106985750600114611752576104dd8461065181880382610fd0565b80945082526020938483205b82841061177a57505050816104dd936106519282010193610641565b805485850187015292850192810161175e565b503461000e57600036600319011261000e576009546040516001600160a01b039091168152602090f35b503461000e57600036600319011261000e576040516117d581610f99565b611000809136903760405160126000825b60808210611827575050506117fa81610f99565b60405190600090825b6080831061181057505050f35b600190825181526020809101920192019190611803565b60016020819285548152019301910190916117e6565b90602060031983011261000e576001600160401b03916004359083821161000e578060238301121561000e57816004013593841161000e576024848301011161000e576024019190565b503461000e576118963661183d565b61189e615837565b600954600091906001600160a01b0316803b1561193e578260405180926331315e5960e11b82528183816118d6888b60048401613da6565b03925af18015611931575b61191e575b506118f19192613dce565b7f7bc9110d5de090dd59e07912d2b93a5a27ac70a60c8d8e324db4f9ee8b8b5c136020604051338152a280f35b9161192b6118f193610f43565b916118e6565b611939612807565b6118e1565b8280fd5b8015150361000e57565b359061072f82611942565b503461000e57604036600319011261000e5760043561197581610713565b60243561198181611942565b6001600160a01b038216913383146119e9576119aa903360005260046020526040600020610962565b9015159060ff1981541660ff83161790556040519081527f17307eab39ab6107e8899845ad3d59bd9653f200f220920489ca2b5937696c3160203392a3005b6040516306f8139d60e11b8152600490fd5b503461000e57611a12611a0d36610bb5565b612919565b604092919280519384938452611a3460209160608387015260608601906105cc565b90848203838601528080855193848152019401926000905b838210611a595786860387f35b845180516001600160a01b0316875283015186840152879650948501949382019360019190910190611a4c565b503461000e57604036600319011261000e57610787602435600435613de3565b503461000e57604036600319011261000e57610787600435611ac781610713565b6024359033613052565b6020906001600160401b038111611aee575b601f01601f19160190565b611af6610f2c565b611ae3565b929192611b0782611ad1565b91611b156040519384610fd0565b82948184528183011161000e578281602093846000960137010152565b503461000e57608036600319011261000e57600435611b5081610713565b602435611b5c81610713565b606435916001600160401b03831161000e573660238401121561000e57611b90610787933690602481600401359101611afb565b916044359161425a565b503461000e57600036600319011261000e576006546040516001600160a01b039091168152602090f35b503461000e5760208060031936011261000e57600435906001600160401b03821161000e573660238301121561000e57816004013591611c0383611040565b91604093611c1385519485610fd0565b80845260248285019160061b8401019236841161000e57602401905b838210611c3f5761078785612fca565b858236031261000e578286918251611c5681610f63565b8435611c6181610713565b81528285013583820152815201910190611c2f565b503461000e57602036600319011261000e576104dd611c96600435613350565b6040519182916020835260208301906105cc565b503461000e57604036600319011261000e57600435611cc881610713565b6001600160a01b03166000908152601060209081526040808320602435845282529091206001600160e01b03906116fe90615aab565b503461000e57611d0d3661183d565b611d15615837565b600954600091906001600160a01b0316803b1561193e5782604051809263d67b78fd60e01b8252818381611d4d888b60048401613da6565b03925af18015611da8575b611d95575b50611d689192613dce565b7fd36dc0c1a06103fdcaf15f3f6fb797d1a97997514c78de073640c8b5005454b86020604051338152a280f35b91611da2611d6893610f43565b91611d5d565b611db0612807565b611d58565b6024359061072f82610713565b9080601f8301121561000e5781602061060293359101611afb565b6084359061072f82610713565b35906001600160501b038216820361000e57565b359065ffffffffffff8216820361000e57565b359064ffffffffff8216820361000e57565b61ffff81160361000e57565b359061072f82611e23565b359060ff8216820361000e57565b919091608090818185031261000e576040805192611e6584610f7e565b929485939083356001600160401b03811161000e57840181601f8201121561000e57803590611e9382611040565b92611ea086519485610fd0565b82845260209485850191866101c08096028501019381851161000e578701925b848410611ef35750505092875250505080830135908401528082013590830152606090611eee908201610724565b910152565b858483031261000e57878691611f07610ff3565b611f1087611dea565b8152611f1d838801611dfe565b83820152611f2c8c8801611e11565b8c8201526060611f3d818901611e2f565b90820152611f4c868801611e2f565b8682015260a0611f5d818901610724565b9082015260c0611f6e818901611e3a565b9082015260e0611f7f818901610724565b908201526101008088013590820152610120611f9c818901611e3a565b90820152610140611fae81890161194c565b90820152610160611fc081890161194c565b90820152610180611fd281890161194c565b908201526101a0611fe481890161194c565b90820152815201930192611ec0565b610124359061072f82610713565b60809061014319011261000e576040519061201b82610f7e565b816101443561202981611942565b81526101643561203881611942565b60208201526101843561204a81611942565b604082015260606101a4359161205f83611942565b0152565b503461000e576101c036600319011261000e5761207e611db5565b6001600160401b03906044359082821161000e576120a160049236908401611dc2565b60643584811161000e576120b89036908501611dc2565b6120c0611ddd565b60a43586811161000e576120d79036908701611dc2565b6120df61085a565b9160e43588811161000e576120f79036908901611dc2565b936101043598891161000e576121136107879936908a01611e48565b9561211c611ff3565b9761212636612001565b993561368e565b503461000e57604036600319011261000e576004356000526011602052602061129160243560406000206158c6565b503461000e57600036600319011261000e57600b546040516001600160a01b039091168152602090f35b503461000e57606036600319011261000e576004356121a481610713565b60018060a01b031660005260106020526040600020602435600052602052602061129160443560406000206158c6565b919082526121ee60209160608385015260608401906105cc565b90604092838184039101528080855193848152019401926000905b83821061221857505050505090565b845180516001600160a01b03168752830151868401529485019493820193600190910190612209565b503461000e576020600319818136011261000e57600435906001600160401b03821161000e576101a090823603011261000e5761228f612288610164830183600401612626565b3691611afb565b6040519061229c82610f63565b6001825260005b8481106122e75750906104dd916101249460006122be611013565b308152918201526122ce83612712565b526122d882612712565b506040519485940135846121d4565b84906122f16126a6565b828286010152016122a3565b5060031960203682011261000e57600435906001600160401b03821161000e5761020090823603011261000e57600554341590811591612371575b8115612362575b506123505761078790600401615123565b6040516331c57b1b60e21b8152600490fd5b9050602482013514153861233f565b9050612381610c546006546106c3565b60206040518092636e49181f60e01b825281806123a2338860048401612fa7565b03915afa9081156123dc575b6000916123be575b501590612338565b6123d6915060203d8111610f1857610f0a8183610fd0565b386123b6565b6123e4612807565b6123ae565b503461000e57602036600319011261000e5760043561240781610713565b61240f615837565b6009546001600160a01b0390811691823b1561000e576000916024839260405194859384926317161f7d60e01b845216968760048401525af18015612497575b612484575b507fab0014d4c7a642a02a31b303a318908c22b0fb2001f107278fc6076b4c671b656040518061133133826106cf565b8061134361249192610f43565b38612454565b61249f612807565b61244f565b503461000e576000806003193601126106c057600954604051630155619b60e71b81523060048201526104dd92918290829060249082906001600160a01b03165afa91821561252e575b809261250b575b50506040519182916020835260208301906105cc565b61252792503d8091833e61251f8183610fd0565b8101906132f2565b38806124f5565b612536612807565b6124ee565b503461000e57604036600319011261000e57602060ff61258860043561256081610713565b6024359061256d82610713565b6001600160a01b031660009081526004855260409020610962565b54166040519015158152f35b503461000e57602036600319011261000e576004356125b281610713565b6125ba615837565b6001600160a01b038116156125d2576107879061588f565b60405162461bcd60e51b815260206004820152602660248201527f4f776e61626c653a206e6577206f776e657220697320746865207a65726f206160448201526564647265737360d01b6064820152608490fd5b903590601e198136030182121561000e57018035906001600160401b03821161000e5760200191813603831361000e57565b9060241161000e5760200190600490565b9060441161000e5760400190600490565b6001600160e01b0319903581811693926004811061269757505050565b60040360031b82901b16169150565b604051906126b382610f63565b60006020838281520152565b604051906126cc82610f63565b600182528160005b602090818110156126f6576020916126ea6126a6565b908285010152016126d4565b505050565b50634e487b7160e01b600052603260045260246000fd5b602090805115612720570190565b6127286126fb565b0190565b6020918151811015612741575b60051b010190565b6127496126fb565b612739565b9160608383031261000e57823592602081013561276a8161047c565b9260408201356001600160401b03811161000e576106029201611581565b519061072f82610713565b908161012091031261000e576127a7611020565b90805182526020810151602083015260408101516040830152606081015160608301526080810151608083015260a081015160a083015260c081015160c08301526127f460e08201612788565b60e0830152610100809101519082015290565b506040513d6000823e3d90fd5b519061072f82611942565b90816101c091031261000e57612833610ff3565b90805182526020810151602083015260408101516040830152606081015160608301526080810151608083015260a081015160a083015260c081015160c083015261288060e08201612788565b60e0830152610100808201519083015261012061289e818301612788565b90830152610140808201519083015261016080820151908301526101806128c6818301612814565b908301526128d86101a0809201612814565b9082015290565b50634e487b7160e01b600052601160045260246000fd5b906001820180921161290457565b61072f6128df565b9190820180921161290457565b9060009060006080840135612b5b576101c09283850193602461293c8688612626565b9050108015612b29575b610e23576129526126bf565b94612987610c36612961611013565b3081529260209387858201526129768a612712565b5261298089612712565b5089612626565b95915050612999610c54600a546106c3565b92604089815180966321d1336160e11b825261012097889181806129c98860049801358883019190602083019252565b03915afa968715612b1c575b8597612afd575b5050600180965114612a285750505050505050612288612a18612a2492612a12612a0c60925460c08a013561290c565b91612b6d565b90615d3d565b946101a0810190612626565b9190565b959996939291908451948397612a42610c546009546106c3565b915b878a10612a675750505050505050505050612288816101a0612a24930190612626565b9091929394959697899d88612a9b88612a81859e8761272c565b5189518093819263b67cb04760e01b8352308b8401610a5a565b03818a5afa908115612af0575b8a91612ac3575b500151019d01989796959493929190612a44565b612ae39150893d8b11612ae9575b612adb8183610fd0565b81019061281f565b38612aaf565b503d612ad1565b612af8612807565b612aa8565b612b14929750803d10610e0f57610e008183610fd0565b9438806129dc565b612b24612807565b6129d5565b50612b37610e438688612626565b63b3bcbb7960e01b916001600160e01b031991612b539161267a565b161415612946565b6040516309f82f1b60e31b8152600490fd5b9060009180516000915b818310612b8357505050565b909193600190612b9c612b96878561272c565b51612c27565b8101809111612baf575b94019190612b77565b612bb76128df565b612ba6565b9081602091031261000e575190565b60001981019190821161290457565b9190820391821161290457565b6080811015612bfa575b60120190600090565b612c026126fb565b612bf1565b8115612c11570490565b634e487b7160e01b600052601260045260246000fd5b612c5a6020612c3a610c546009546106c3565b92604051809381926342f9914b60e01b8352600483019190602083019252565b0381855afa908115612d7c575b600091612d5e575b50604051633a39e4d160e11b81526101c092839082908180612c95873060048401610a5a565b03915afa928315612d51575b600093612d32575b5050612cc9612cbf612cba83612bcb565b612be7565b90549060031b1c90565b908115612d2a576080830190612ce760608351950194855190612bda565b15612d2157612d14612d0361060295612d1b9451905190612bda565b916000526093602052604060002090565b549061290c565b90612c07565b50505050600090565b505050600090565b612d49929350803d10612ae957612adb8183610fd0565b903880612ca9565b612d59612807565b612ca1565b612d76915060203d8111610dc557610db68183610fd0565b38612c6f565b612d84612807565b612c67565b612dd290612d95615837565b612da3610c54600a546106c3565b90600554604092835180916321d1336160e11b8252610120928391818060049a8b988983019190602083019252565b03915afa918215612f54575b600092612f37575b50505110612f2957612df6612f61565b612e04610c546009546106c3565b825163f1bea54f60e01b815290602090819083908180612e26308b83016106cf565b03915afa918215612f1c575b600092612efd575b50909160009181519183945b838610612e6e5750505050633b9aca00915011612e61575050565b51636ff44e9760e01b8152fd5b9091929381612e7d878561272c565b515111612eed57612ee1600191612ecd86612e988a8861272c565b510151612eb2612cba612eab8c8a61272c565b5151612bcb565b90919082549060031b600019811b9283911b16911916179055565b85612ed8898761272c565b5101519061290c565b95019493929190612e46565b865163148e14dd60e21b81528890fd5b81612f159293503d8411610dc557610db68183610fd0565b9038612e3a565b612f24612807565b612e32565b50516303e08a3560e61b8152fd5b612f4d9250803d10610e0f57610e008183610fd0565b3880612de6565b612f5c612807565b612dde565b60125b60928110612f6f5750565b60008155600101612f64565b818110612f86575050565b60008155600101612f7b565b9081602091031261000e575161060281611942565b9081526001600160a01b03909116602082015260400190565b3561060281610713565b805190612fd56126a6565b5060005b828110612fe557505050565b612fef818361272c565b5180519091906001600160a01b03908116156130215782602061301b9260019551169101519033613052565b01612fd9565b6040516314f4c13d60e21b8152600490fd5b80546001600160a01b0319166001600160a01b03909216919091179055565b6001600160a01b039081166000818152600f6020908152604080832087845282528220805461072f9793969395939490841693909291829190613096908790613033565b8086168585600080516020615e4a8339815191528b80a460095416926064604051809581936305c9a1d560e31b835230600484015260248301528960448301525afa95861561310c575b956130ed575b505061313a565b613104929550803d10610dc557610db68183610fd0565b9238806130e6565b613114612807565b6130e0565b90815260208101919091526001600160a01b03909116604082015260600190565b91926001600160a01b0380831693919291908116808514801561320e575b613206578591816131bd575b50505082613173575b50505050565b600080516020615e8a8339815191529161318f6131a09261092e565b856000526020526040600020615a83565b6131b1604051928392339184613119565b0390a33880808061316d565b6131c69061092e565b82600052602052600080516020615e8a8339815191526131ea8560406000206159db565b6131fb604051928392339184613119565b0390a3833880613164565b505050505050565b508315613158565b9081602091031261000e575161060281610713565b6009546040516308ed6c0160e41b81526001600160a01b03929160209082908516818061325c873060048401610a5a565b03915afa9081156132c6575b600091613298575b50828116613292575061328d906000526002602052604060002090565b541690565b91505090565b6132b9915060203d81116132bf575b6132b18183610fd0565b810190613216565b38613270565b503d6132a7565b6132ce612807565b613268565b919082604091031261000e57602082516132ec81610713565b92015190565b60208183031261000e578051906001600160401b03821161000e570181601f8201121561000e57805161332481611ad1565b926133326040519485610fd0565b8184526020828401011161000e5761060291602080850191016105a9565b61335e610c546009546106c3565b604051630fab094760e01b8152909160209182818061338030600483016106cf565b0381875afa9081156134e7575b6000916134ca575b506001600160a01b031680613472575060405163f682eeaf60e01b815261060293918390600083806133ca30600483016106cf565b0381875afa928315613465575b600093613448575b5061340192936040518080958194630c8df17160e41b83523060048401610a5a565b03915afa92831561343b575b60009361341c575b505061547d565b613433929350803d10610dc557610db68183610fd0565b903880613415565b613443612807565b61340d565b61345f90613401943d8091833e61251f8183610fd0565b926133df565b61346d612807565b6133d7565b604051636d02a25560e11b8152600481019290925290925060009150829060249082905afa9081156134bd575b6000916134aa575090565b610602913d8091833e61251f8183610fd0565b6134c5612807565b61349f565b6134e19150833d85116132bf576132b18183610fd0565b38613395565b6134ef612807565b61338d565b81601f8201121561000e5780519161350b83611040565b926135196040519485610fd0565b808452602092838086019260051b82010192831161000e578301905b828210613543575050505090565b81518152908301908301613535565b9060208282031261000e5781516001600160401b03811161000e5761060292016134f4565b60208082019080835283518092528060408094019401926000905b8382106135a157505050505090565b9091929394836101c060019261368189516135c483825160018060501b03169052565b8085015165ffffffffffff16838601528087015164ffffffffff168388015260608181015161ffff169084015260808181015161ffff169084015260a0818101516001600160a01b03169084015260c08181015160ff169084015260e0818101516001600160a01b03169084015261010081810151908401526101208082015160ff16908401526101408181015115159084015261016081810151151590840152610180818101511515908401526101a090810151151590830152565b0196019493920190613592565b90929998969391979594996136a7610c546008546106c3565b301461000e5760018060a01b0398896136c4610c546009546106c3565b1661000e576136f8946136d693614dce565b600a80546001600160a01b0319166001600160a01b0392909216919091179055565b600980546001600160a01b0319166001600160a01b0386161790556137206020840151600c55565b60409661372f88850151600d55565b61376161373f60608601516106c3565b600b80546001600160a01b0319166001600160a01b0392909216919091179055565b805161397a575b50805161391b575b508381166138bc575b50518051613859575b5082511515801561384c575b8015613840575b8015613833575b6137ae575b5050505061072f3361588f565b1691823b1561000e57516365c13f1960e11b815281511515600482015260208201511515602482015260408201511515604482015260609091015115156064820152906000908290608490829084905af18015613826575b613813575b8080806137a1565b8061134361382092610f43565b3861380b565b61382e612807565b613806565b506060830151151561379c565b50828401511515613795565b506020830151151561378e565b60006138789186518093819263229dad5f60e11b835260048301613577565b0381838787165af180156138af575b15613782576138a8903d806000833e6138a08183610fd0565b810190613552565b5038613782565b6138b7612807565b613887565b838316803b1561000e57865163036129cb60e61b81529160009183918290849082906138eb90600483016106cf565b03925af1801561390e575b15613779578061134361390892610f43565b38613779565b613916612807565b6138f6565b848416803b1561000e57875163d67b78fd60e01b815291600091839182908490829061394a90600483016105f1565b03925af1801561396d575b15613770578061134361396792610f43565b38613770565b613975612807565b613955565b858516803b1561000e5788516331315e5960e11b81529160009183918290849082906139a990600483016105f1565b03925af180156139cc575b1561376857806113436139c692610f43565b38613768565b6139d4612807565b6139b4565b9190926139e4615837565b80613ac9575b5050816139f5575050565b613a03610c546009546106c3565b9160409060008251809563229dad5f60e11b8252818381613a28878a60048401613d26565b03925af1938415613abc575b600094613aa1575b5060005b818110613a4e575050505050565b80613a5b6001928761272c565b517f8aa4a03deb8db10032373886aa0376c918ccf36bcdb59ca4da2a807ac7ff1a04613a98613a8b84878a613d64565b8751918291339083613d82565b0390a201613a40565b613ab591943d8091833e6138a08183610fd0565b9238613a3c565b613ac4612807565b613a34565b613ad7610c546009546106c3565b90813b1561000e576040916000835180926320512ba160e01b8252818381613b03888b60048401613b8b565b03925af18015613b7e575b613b6b575b5060005b818110613b255750506139ea565b80613b336001928487613bb4565b357f832d89d991be5351d793c20faf4b7dd44f8aa9ce39e3cb160c6317de6fbba729855180613b6233826106cf565b0390a201613b17565b80611343613b7892610f43565b38613b13565b613b86612807565b613b0e565b602080825281018390526001600160fb1b03831161000e5760409260051b809284830137010190565b9190811015613bc45760051b0190565b6110616126fb565b9061072f91613beb82613bde83611dea565b6001600160501b03169052565b613c09613bfa60208301611dfe565b65ffffffffffff166020840152565b613c26613c1860408301611e11565b64ffffffffff166040840152565b613c40613c3560608301611e2f565b61ffff166060840152565b613c5a613c4f60808301611e2f565b61ffff166080840152565b613c79613c6960a08301610724565b6001600160a01b031660a0840152565b613c92613c8860c08301611e3a565b60ff1660c0840152565b613cb1613ca160e08301610724565b6001600160a01b031660e0840152565b6101008082013590830152613cd6610120613ccd818401611e3a565b60ff1690840152565b613cef610140613ce781840161194c565b151590840152565b613d00610160613ce781840161194c565b613d11610180613ce781840161194c565b613d1f6101a080920161194c565b1515910152565b602080825281018390526040019160005b818110613d445750505090565b90919280613d5460019286613bcc565b6101c09081019401929101613d37565b916101c091811015613d7557020190565b613d7d6126fb565b020190565b9092916101c090613d98836101e0810196613bcc565b6001600160a01b0316910152565b90918060409360208452816020850152848401376000828201840152601f01601f1916010190565b81604051928392833781016000815203902090565b613df1610c54600a546106c3565b90613e4f60ff610100613e2860055495604096875180926321d1336160e11b82528180610120968795600483019190602083019252565b03915afa918215613fcf575b600092613fb2575b5050015160f41c1660018091811c161490565b613fa157613e61610c546009546106c3565b8251635d53f40760e11b8152600481018390526024810185905292906000908490604490829084905af1928315613f94575b600093613f79575b50613eaa610c546009546106c3565b926020825180956304db994760e21b82528180613ecb883060048401610a5a565b03915afa938415613f6c575b600094613f4c575b5060005b858110613ef257505050505050565b80613eff6001928461272c565b51613f0a8188614307565b858551917f031e1988c95a91ec4d655ff63a8f87a80bc9daf28d95ae10ee08c0022cfb5c8b858060a01b038a169380613f4333826106cf565b0390a401613ee3565b613f6591945060203d81116132bf576132b18183610fd0565b9238613edf565b613f74612807565b613ed7565b613f8d91933d8091833e6138a08183610fd0565b9138613e9b565b613f9c612807565b613e93565b8151631d2c125760e31b8152600490fd5b613fc89250803d10610e0f57610e008183610fd0565b3880613e3c565b613fd7612807565b613e34565b91613fe5615837565b613ff3610c546009546106c3565b9260409060008251809663eaa19ab360e01b82528183816140188a88600484016140fe565b03925af19485156140c7575b6000956140a3575b5060005b84811061403f57505050505090565b8061404c6001928861272c565b516140578187614307565b61ffff61406d614068848a88613bb4565b614159565b86516000815233602082015260a086901b8690038916939190921691600080516020615dca83398151915290604090a401614030565b6140bf91953d8091833e6140b78183610fd0565b8101906140d4565b50933861402c565b6140cf612807565b614024565b919060408382031261000e5782516001600160401b03811161000e576020916132ec9185016134f4565b929160608401906000198552806020926060848801525260808501929160005b82811061413357505050506040600191930152565b90919293828060019261ffff883561414a81611e23565b1681520195019392910161411e565b3561060281611e23565b6009546001600160a01b0316803b1561000e576040516386bc2be360e01b815291600091839182908490829061419c9060048301611403565b03925af180156141b7575b6141ae5750565b61072f90610f43565b6141bf612807565b6141a7565b6000908152600260205260409020546001600160a01b031680156141e55790565b60405163b49aa3b560e01b8152600490fd5b90600182811c92168015614227575b602083101461421157565b634e487b7160e01b600052602260045260246000fd5b91607f1691614206565b61423a816147b1565b156141e5576000908152600360205260409020546001600160a01b031690565b9291906142678233614299565b15610789578361427b8383614280976149fb565b614d12565b1561428757565b6040516336f57c1b60e11b8152600490fd5b6001600160a01b03806142ab846141c4565b1692818316928484149485156142e1575b505083156142cb575b50505090565b6142d791929350614231565b16143880806142c5565b60ff929550906142fd9160005260046020526040600020610962565b54169238806142bc565b9091906001600160a01b03811690811561444457614324846147b1565b614432578360009281845260026020526143418360408620613033565b83600080516020615e2a8339815191528180a4614386614365610c546009546106c3565b946040519063b67cb04760e01b825281806101c09485933060048401610a5a565b0381895afa918215614425575b8492614408575b50505193803b1561193e576040516330b157e560e21b81526004810195909552600060248601526001600160a01b039190911660448501529192918290606490829084905af180156143fb575b6143ee5750565b8061134361072f92610f43565b614403612807565b6143e7565b61441e9250803d10612ae957612adb8183610fd0565b388061439a565b61442d612807565b614393565b604051632eb5f0c360e21b8152600490fd5b604051633904578f60e11b8152600490fd5b61448990614468610c546009546106c3565b926040519063b67cb04760e01b825281806101c09586933060048401610a5a565b0381875afa928315614536575b600093614517575b50508151833b1561000e576040516330b157e560e21b815260048101919091526001600160a01b038216602482015260006044820181905261072f948290606490829084905af1801561450a575b6144f7575b50614633565b8061134361450492610f43565b386144f1565b614512612807565b6144ec565b61452e929350803d10612ae957612adb8183610fd0565b90388061449e565b61453e612807565b614496565b9061457791614556610c546009546106c3565b936040519063b67cb04760e01b825281806101c09687933060048401610a5a565b0381885afa938415614626575b600094614607575b50508251843b1561000e576040516330b157e560e21b815260048101919091526001600160a01b0382811660248301528316604482015261072f946000908290606490829084905af180156145fa575b6145e7575b506146b3565b806113436145f492610f43565b386145e1565b614602612807565b6145dc565b61461e929450803d10612ae957612adb8183610fd0565b91388061458c565b61462e612807565b614584565b6001600160a01b039081169081156126f65760a083015191826146565750505050565b6146aa935191600091838352601160205261467485604085206159db565b50508252600f60205260408220838352602052604081818420541692808052600f6020528181208582526020522054169061313a565b3880808061316d565b6001600160a01b039190821690811561316d5760a084015192836146d9575b5050505050565b604061471b95519382841615614725575b6000908152600f60205281812085825260205261470c83838320541694610948565b8582526020522054169061313a565b38808080806146d2565b84600052601160205261473b86836000206159db565b50506146ea565b9061072f92916000828152601160205261475f8460408320615a83565b506001600160a01b03916040915083831615614796575b808052600f60205281812085825260205261470c83838320541694610948565b84815260116020526147aa868383206159db565b5050614776565b6000908152600260205260409020546001600160a01b0316151590565b6147d7816141c4565b6001600160a01b038082169291908361482d575b5081600061072f946147fc83614c18565b82825260026020526040822080546001600160a01b0319169055600080516020615e2a8339815191528280a4614456565b61483b610c546009546106c3565b906148826101a060405163b67cb04760e01b81526101c0908181806148648b3060048401610a5a565b0381895afa9182156149ee575b6000926149d1575b50500151151590565b614956575b6040516308ed6c0160e41b8152602081806148a6883060048401610a5a565b0381865afa908115614949575b60009161492b575b50166147eb5792833b1561000e576000839161072f95826040518092638cec7d3960e01b82528183816148f28b8b60048401612fa7565b03925af1801561491e575b61490b575b509450506147eb565b8061134361491892610f43565b38614902565b614926612807565b6148fd565b614943915060203d81116132bf576132b18183610fd0565b386148bb565b614951612807565b6148b3565b61498f614967610c54600a546106c3565b60055460405180926321d1336160e11b82528180610120968795600483019190602083019252565b03915afa80156149c4575b6149a6575b5050614887565b816149bc92903d10610e0f57610e008183610fd0565b50388061499f565b6149cc612807565b61499a565b6149e79250803d10612ae957612adb8183610fd0565b3880614879565b6149f6612807565b614871565b9190614a06826141c4565b6001600160a01b0380851694918116859003614c0657808316908115614bf45785614a6b575b50839061072f95614a3c83614c18565b826000526002602052614a53856040600020613033565b600080516020615e2a833981519152600080a4614543565b614a79610c546009546106c3565b90614aa26101a060405163b67cb04760e01b81526101c0908181806148648d3060048401610a5a565b614b75575b6040516308ed6c0160e41b815260208180614ac68a3060048401610a5a565b0381865afa908115614b68575b600091614b4a575b5016614a2c5790813b1561000e5761072f95859260006040518092638cec7d3960e01b8252818381614b118b8b60048401612fa7565b03925af18015614b3d575b614b2a575b50955090614a2c565b80611343614b3792610f43565b38614b21565b614b45612807565b614b1c565b614b62915060203d81116132bf576132b18183610fd0565b38614adb565b614b70612807565b614ad3565b614bb360ff610100614b8e614967610c54600a546106c3565b03915afa918215614be7575b600092614bca575b5050015160f41c1660018091161490565b15614aa7576040516318cdaf9760e01b8152600490fd5b614be09250803d10610e0f57610e008183610fd0565b3880614ba2565b614bef612807565b614b9a565b604051632c95542760e01b8152600490fd5b60405163a195bc5360e01b8152600490fd5b600081815260036020526040812080546001600160a01b03191690556001600160a01b03614c45836141c4565b16600080516020615e6a8339815191528280a4565b816000526003602052614c71816040600020613033565b6001600160a01b0380614c83846141c4565b16911690600080516020615e6a833981519152600080a4565b9081602091031261000e57516106028161047c565b6001600160a01b039182168152911660208201526040810191909152608060608201819052610602929101906105cc565b3d15614d0d573d90614cf382611ad1565b91614d016040519384610fd0565b82523d6000602084013e565b606090565b92909190823b15614dc557614d45926020926000604051809681958294630a85bd0160e11b9a8b85523360048601614cb1565b03926001600160a01b03165af160009181614d95575b50614d8757614d68614ce2565b80519081614d82576040516336f57c1b60e11b8152600490fd5b602001fd5b6001600160e01b0319161490565b614db791925060203d8111614dbe575b614daf8183610fd0565b810190614c9c565b9038614d5b565b503d614da5565b50505050600190565b82519193909290916001600160401b038111614f00575b600091614dfb82614df685546141f7565b614f0d565b60209081601f8411600114614e6e57509282614e3c93614e41969361072f9998968492614e63575b50508160011b916000199060031b1c1916179055614f8b565b600555565b600680546001600160a01b0319166001600160a01b0392909216919091179055565b015190503880614e23565b600080529190601f1984167f290decd9548b62a8d60345a988386fc84ba6bc95484008f6362f93160ef3e5639386905b828210614ee857505093614e41969361072f9998969360019383614e3c9810614ecf575b505050811b019055614f8b565b015160001960f88460031b161c19169055388080614ec2565b80600186978294978701518155019601940190614e9e565b614f08610f2c565b614de5565b90601f8211614f1a575050565b61072f91600080526020600020906020601f840160051c83019310614f47575b601f0160051c0190612f7b565b9091508190614f3a565b90601f8211614f5e575050565b61072f9160016000526020600020906020601f840160051c83019310614f4757601f0160051c0190612f7b565b80519091906001600160401b038111615071575b600190614fb581614fb084546141f7565b614f51565b602080601f8311600114614ff0575081929394600092614fe5575b5050600019600383901b1c191690821b179055565b015190503880614fd0565b6001600052601f198316959091907fb10e2d527612073b26eecdfd717e6a320cf44b4afac2b0732d9fcbe2b7fa0cf6926000905b88821061505a5750508385969710615041575b505050811b019055565b015160001960f88460031b161c19169055388080615037565b808785968294968601518155019501930190615024565b615079610f2c565b614f9f565b9160a08383031261000e57823592602091828201359360408301356150a28161047c565b936060840135936080810135906001600160401b03821161000e57019180601f8401121561000e5782356150d581611040565b936150e36040519586610fd0565b818552838086019260051b82010192831161000e578301905b82821061510a575050505090565b838091833561511881611e23565b8152019101906150fc565b600c5460c082013503615330576101e0810160446151418284612626565b905011806152f9575b615152575050565b61515f6151679183612626565b81019061507e565b9492509250508251156152e75760808101359161519161518a6101808401612fc0565b8585615392565b6152d557806151a05750505050565b6001600160a01b0316916151c86151c16151b986612712565b5161ffff1690565b61ffff1690565b916151d7600092865190612c07565b92855195835b8785106151ed575050505061316d565b85906151ff6151c16151b9888661272c565b84036152bd575b61520f89612bcb565b86108061529c575b15615231576001916152289161290c565b945b01936151dd565b6152729161526b916152668a6152618861525261524d8c612fc0565b610948565b90600052602052604060002090565b613033565b61290c565b8388614742565b60016000948786615285610c5488612fc0565b600080516020615e4a8339815191528280a461522a565b508361ffff6152b66151b96152b08a6128f6565b8761272c565b1614615217565b92506152cf6151c16151b9878561272c565b92615206565b604051631b57826960e21b8152600490fd5b604051633d04bd1f60e01b8152600490fd5b5061530d6153078284612626565b90612669565b639f65abb760e01b916001600160e01b0319916153299161267a565b161461514a565b6040516301e73e1760e61b8152600490fd5b929190606084019084526020906060828601528251809152816080860193019160005b82811061537a57505050506040600091930152565b835161ffff1685529381019392810192600101615365565b9291926153a3610c546009546106c3565b6040805163eaa19ab360e01b8152956000949192859088908183816153cc888b60048401615342565b03925af18015615470575b85978691615450575b50968051955b8681106153f65750505050505050565b806154036001928461272c565b5161540e8186614307565b61ffff61541e6151b9848961272c565b16875191600080516020615dca833981519152858060a01b03881693806154478d339083612fa7565b0390a4016153e6565b90506154679197503d8087833e6140b78183610fd0565b969096386153e0565b615478612807565b6153d7565b90610602906154ab604051602092609160f51b848301526022820152602281526154a681610fb5565b6155a6565b9260405193816154c486935180928680870191016105a9565b82016154d8825180938680850191016105a9565b01038084520182610fd0565b604051602081016001600160401b0381118282101761550d575b60405260008152906000368137565b615515610f2c565b6154fe565b604051906105e082016001600160401b03811183821017615548575b604052602e82526105c0366020840137565b615550610f2c565b615536565b9061555f82611040565b61556c6040519182610fd0565b828152809261557d601f1991611040565b0190602036910137565b90602091805182101561559957010190565b6155a16126fb565b010190565b908151156156cb576155b661551a565b91600090816155c485612712565b5260019181519181925b8084106155f457505050506155ea6155ef9161060293946156d5565b615718565b61575f565b9091929461562561561f61561961560b8987615587565b516001600160f81b03191690565b60f81c90565b60ff1690565b9184925b60ff908982891686101561568a576001929161565e61565861561f6156518a6156649661272c565b5160ff1690565b60081b90565b9061290c565b6156818b61567988603a95868606169261272c565b9060ff169052565b04930192615629565b50919594935050809691965b6156a45750600101926155ce565b9460ff6001603a926156c183858b06166156798d8685169061272c565b0116950480615696565b90506106026154e4565b9060ff809116906156e582615555565b9260005b8381106156f7575050505090565b80836157056001938561272c565b5116615711828861272c565b52016156e9565b90815161572481615555565b9060005b818110615736575090925050565b60019060ff61574c60001983895103018861272c565b5116615758828661272c565b5201615728565b805161576a81611ad1565b9160409061577a82519485610fd0565b828452601f1961578984611ad1565b016020903682870137600092835b8581106157a75750505050505090565b60019082516157b581610fb5565b603a81527f31323334353637383941424344454647484a4b4c4d4e5051525354555657585985820152792d30b131b232b333b434b535b6b737b838b939ba3abb3bbc3cbd60311b848201526001600160f81b0319906158229060ff61581a858a61272c565b511690615587565b5116861a615830828a615587565b5301615797565b6007546001600160a01b0316330361584b57565b606460405162461bcd60e51b815260206004820152602060248201527f4f776e61626c653a2063616c6c6572206973206e6f7420746865206f776e65726044820152fd5b600780546001600160a01b039283166001600160a01b031982168117909255909116600080516020615e0a833981519152600080a3565b9043811015615997576158d890615cd8565b815490600063ffffffff8092165b83821061592f575050508061590657505060005b6001600160e01b031690565b61592a9161591661592392612bcb565b9060005260206000200190565b5460201c90565b6158fa565b909192808316906001818518811c830180931161598a575b86600052838684602060002001541611600014615969575050925b91906158e6565b90949350810180911161597d575b91615962565b6159856128df565b615977565b6159926128df565b615947565b606460405162461bcd60e51b815260206004820152602060248201527f436865636b706f696e74733a20626c6f636b206e6f7420796574206d696e65646044820152fd5b6001600160e01b039291836159ef83615aab565b16908103908111615a76575b615a0443615cd8565b91848211615a2157849283615a1a931691615bd3565b9316921690565b60405162461bcd60e51b815260206004820152602760248201527f53616665436173743a2076616c756520646f65736e27742066697420696e20326044820152663234206269747360c81b6064820152608490fd5b615a7e6128df565b6159fb565b6001600160e01b03929183615a9783615aab565b16908101809111615a7657615a0443615cd8565b8054600081615abc57505050600090565b602090600019938385810111615ad9575b81522001015460201c90565b615ae16128df565b615acd565b9063ffffffff82549181199060201b169116179055565b805461072f9291600160401b821015615b5e575b60018201808255821015615b51575b6000526020600020019063ffffffff81511663ffffffff19835416178255602060018060e01b039101511690615ae6565b615b596126fb565b615b20565b615b66610f2c565b615b11565b90604051615b7881610f63565b602081935463ffffffff81168352811c910152565b15615b9457565b60405162461bcd60e51b8152602060048201526017602482015276436865636b706f696e743a20696e76616c6964206b657960481b6044820152606490fd5b90929192838254801515600014615cad57926020929184615c0e615c09615bfc612a2498612bcb565b8560005260206000200190565b615b6b565b93615c1d855163ffffffff1690565b615c3463ffffffff91828416928391161115615b8d565b615c4e615c45875163ffffffff1690565b63ffffffff1690565b03615c775750615c6992615916615c6492612bcb565b615ae6565b01516001600160e01b031690565b915050615ca891615c95615c89611013565b63ffffffff9093168352565b6001600160e01b03881682860152615afd565b615c69565b5050615cd291615cbe615c89611013565b6001600160e01b0385166020830152615afd565b60009190565b63ffffffff90818111615ce9571690565b60405162461bcd60e51b815260206004820152602660248201527f53616665436173743a2076616c756520646f65736e27742066697420696e203360448201526532206269747360d01b6064820152608490fd5b919060001981840981840291828083109203918083039214615dbc57633b9aca009081831015615d9e577f88f2cfb83100cb4e69e7c79c58b316e597157d372fb9787e8e47ce423a2e9c6d94950990828211900360f71b910360091c170290565b6044838360405191631dcf306360e21b835260048301526024820152fd5b5050633b9aca009004915056fe598baf7bf150ca2f42be9e9f8f55e81d45f5715c3ff22bf46d697fabec7f31d6e7784d93cfbfa4408e19577e6cc0436f4dbb51214b70e100905dfce9def88c168be0079c531659141344cd1fd0a4f28419497f9722a3daafe3b4186f6b6457e0ddf252ad1be2c89b69c2b068fc378daa952ba7f163c4a11628f55a4df523b3ef3134e8a2e6d97e929a7e54011ea5485d7d196dd5f0ba4d4ef95803e8e3fc257f8c5be1e5ebec7d5bd14f71427d1e84f3dd0314c0f7b2291e5b200ac8c7c3b925ed0c1e94c302bdbbd8bbd6a4fb7c3ed335c2292407cd816eadd075d019d0ce04a264697066735822122041872466492b1d8ef4fd1d241f6cd23f174ba0ad863c03357964e81ae8d8a99e64736f6c63430008110033",
    "linkReferences": {}
  },
  "methodIdentifiers": {
    "TOTAL_REDEMPTION_WEIGHT()": "640abacd",
    "adjustTiers((uint80,uint48,uint40,uint16,uint16,address,uint8,address,bytes32,uint8,bool,bool,bool,bool)[],uint256[])": "25eb91ee",
    "approve(address,uint256)": "095ea7b3",
    "balanceOf(address)": "70a08231",
    "codeOrigin()": "1d153ca4",
    "contractURI()": "e8a3d485",
    "creditsOf(address)": "245a45b5",
    "didPay((address,uint256,uint256,(address,uint256,uint256,uint256),(address,uint256,uint256,uint256),uint256,address,bool,string,bytes))": "da9ee8b7",
    "didRedeem((address,uint256,uint256,uint256,(address,uint256,uint256,uint256),(address,uint256,uint256,uint256),address,string,bytes))": "2b13c58f",
    "directory()": "c41c2f24",
    "firstOwnerOf(uint256)": "54c6d1f5",
    "fundingCycleStore()": "557e7155",
    "getApproved(uint256)": "081812fc",
    "getPastTierTotalVotes(uint256,uint256)": "d31cc52c",
    "getPastTierVotes(address,uint256,uint256)": "d40e7146",
    "getTierDelegate(address,uint256)": "82732b6d",
    "getTierTotalVotes(uint256)": "94c5c5ca",
    "getTierVotes(address,uint256)": "ca323efe",
    "initialize(uint256,address,string,string,address,string,address,string,((uint80,uint48,uint40,uint16,uint16,address,uint8,address,bytes32,uint8,bool,bool,bool,bool)[],uint256,uint256,address),address,(bool,bool,bool,bool))": "d1704baf",
    "isApprovedForAll(address,address)": "e985e9c5",
    "mintFor((uint16[],address)[])": "36c1a93b",
    "mintFor(uint16[],address)": "6ac6d941",
    "mintReservesFor((uint256,uint256)[])": "2a596e53",
    "mintReservesFor(uint256,uint256)": "aa4fb15b",
    "name()": "06fdde03",
    "owner()": "8da5cb5b",
    "ownerOf(uint256)": "6352211e",
    "payParams((address,address,(address,uint256,uint256,uint256),uint256,uint256,address,uint256,uint256,string,bytes))": "d46cf171",
    "prices()": "d3419bf3",
    "pricingCurrency()": "64640c1e",
    "pricingDecimals()": "4ecba625",
    "projectId()": "3fafa127",
    "redeemParams((address,address,uint256,uint256,uint256,uint256,uint256,(address,uint256,uint256,uint256),bool,uint256,string,bytes))": "a51cfd18",
    "redemptionWeightOf(uint256)": "4f228e11",
    "redemptionWeightOf(uint256[],(address,address,uint256,uint256,uint256,uint256,uint256,(address,uint256,uint256,uint256),bool,uint256,string,bytes))": "7ba62bf9",
    "renounceOwnership()": "715018a6",
    "royaltyInfo(uint256,uint256)": "2a55205a",
    "safeTransferFrom(address,address,uint256)": "42842e0e",
    "safeTransferFrom(address,address,uint256,bytes)": "b88d4fde",
    "setApprovalForAll(address,bool)": "a22cb465",
    "setBaseUri(string)": "a0bcfc7f",
    "setContractUri(string)": "ccb4807b",
    "setDefaultReservedTokenBeneficiary(address)": "df487e26",
    "setEncodedIPFSUriOf(uint256,bytes32)": "525350ba",
    "setTierDelegate(address,uint256)": "ab951e39",
    "setTierDelegates((address,uint256)[])": "c74b13d9",
    "setTierRedemptionWeights((uint256,uint256)[])": "2f441500",
    "setTokenUriResolver(address)": "2407497e",
    "store()": "975057e7",
    "supportsInterface(bytes4)": "01ffc9a7",
    "symbol()": "95d89b41",
    "tierRedemptionWeights()": "9df45468",
    "tokenURI(uint256)": "c87b56dd",
    "totalRedemptionWeight((address,address,uint256,uint256,uint256,uint256,uint256,(address,uint256,uint256,uint256),bool,uint256,string,bytes))": "9494bf72",
    "transferFrom(address,address,uint256)": "23b872dd",
    "transferOwnership(address)": "f2fde38b"
  },
  "id": 0
}