{
  "abi": [
    {
      "inputs": [
        {
          "internalType": "contract IERC20",
          "name": "_defifaToken",
          "type": "address"
        },
        {
          "internalType": "contract IERC20",
          "name": "_baseProtocolToken",
          "type": "address"
        }
      ],
      "stateMutability": "nonpayable",
      "type": "constructor"
    },
    {
      "inputs": [],
      "name": "ALEADY_MINTED",
      "type": "error"
    },
    {
      "inputs": [],
      "name": "APPROVAL_TO_CURRENT_OWNER",
      "type": "error"
    },
    {
      "inputs": [],
      "name": "APPROVE_TO_CALLER",
      "type": "error"
    },
    {
      "inputs": [],
      "name": "BAD_TIER_ORDER",
      "type": "error"
    },
    {
      "inputs": [],
      "name": "CALLER_NOT_OWNER_OR_APPROVED",
      "type": "error"
    },
    {
      "inputs": [],
      "name": "DELEGATE_ADDRESS_ZERO",
      "type": "error"
    },
    {
      "inputs": [],
      "name": "DELEGATE_CHANGES_UNAVAILABLE_IN_THIS_PHASE",
      "type": "error"
    },
    {
      "inputs": [],
      "name": "GAME_ISNT_SCORING_YET",
      "type": "error"
    },
    {
      "inputs": [],
      "name": "INCORRECT_OWNER",
      "type": "error"
    },
    {
      "inputs": [],
      "name": "INVALID_PAYMENT_EVENT",
      "type": "error"
    },
    {
      "inputs": [],
      "name": "INVALID_REDEMPTION_EVENT",
      "type": "error"
    },
    {
      "inputs": [],
      "name": "INVALID_REDEMPTION_METADATA",
      "type": "error"
    },
    {
      "inputs": [],
      "name": "INVALID_REDEMPTION_WEIGHTS",
      "type": "error"
    },
    {
      "inputs": [],
      "name": "INVALID_TIER_ID",
      "type": "error"
    },
    {
      "inputs": [],
      "name": "INVALID_TOKEN_ID",
      "type": "error"
    },
    {
      "inputs": [],
      "name": "MINT_TO_ZERO",
      "type": "error"
    },
    {
      "inputs": [],
      "name": "NOTHING_TO_CLAIM",
      "type": "error"
    },
    {
      "inputs": [],
      "name": "NOTHING_TO_MINT",
      "type": "error"
    },
    {
      "inputs": [],
      "name": "NO_CONTEST",
      "type": "error"
    },
    {
      "inputs": [],
      "name": "OVERSPENDING",
      "type": "error"
    },
    {
      "inputs": [
        {
          "internalType": "uint256",
          "name": "prod1",
          "type": "uint256"
        },
        {
          "internalType": "uint256",
          "name": "denominator",
          "type": "uint256"
        }
      ],
      "name": "PRBMath__MulDivOverflow",
      "type": "error"
    },
    {
      "inputs": [],
      "name": "REDEMPTION_WEIGHTS_ALREADY_SET",
      "type": "error"
    },
    {
      "inputs": [],
      "name": "RESERVED_TOKEN_MINTING_PAUSED",
      "type": "error"
    },
    {
      "inputs": [],
      "name": "TRANSFERS_PAUSED",
      "type": "error"
    },
    {
      "inputs": [],
      "name": "TRANSFER_TO_NON_IMPLEMENTER",
      "type": "error"
    },
    {
      "inputs": [],
      "name": "TRANSFER_TO_ZERO_ADDRESS",
      "type": "error"
    },
    {
      "inputs": [],
      "name": "UNAUTHORIZED",
      "type": "error"
    },
    {
      "inputs": [
        {
          "internalType": "uint256",
          "name": "_tokenId",
          "type": "uint256"
        }
      ],
      "name": "UNAUTHORIZED_TOKEN",
      "type": "error"
    },
    {
      "inputs": [],
      "name": "UNEXPECTED_TOKEN_REDEEMED",
      "type": "error"
    },
    {
      "inputs": [],
      "name": "WRONG_CURRENCY",
      "type": "error"
    },
    {
      "anonymous": false,
      "inputs": [
        {
          "indexed": true,
          "internalType": "address",
          "name": "owner",
          "type": "address"
        },
        {
          "indexed": true,
          "internalType": "address",
          "name": "approved",
          "type": "address"
        },
        {
          "indexed": true,
          "internalType": "uint256",
          "name": "tokenId",
          "type": "uint256"
        }
      ],
      "name": "Approval",
      "type": "event"
    },
    {
      "anonymous": false,
      "inputs": [
        {
          "indexed": true,
          "internalType": "address",
          "name": "owner",
          "type": "address"
        },
        {
          "indexed": true,
          "internalType": "address",
          "name": "operator",
          "type": "address"
        },
        {
          "indexed": false,
          "internalType": "bool",
          "name": "approved",
          "type": "bool"
        }
      ],
      "name": "ApprovalForAll",
      "type": "event"
    },
    {
      "anonymous": false,
      "inputs": [
        {
          "indexed": true,
          "internalType": "address",
          "name": "beneficiary",
          "type": "address"
        },
        {
          "indexed": false,
          "internalType": "uint256",
          "name": "defifaTokenAmount",
          "type": "uint256"
        },
        {
          "indexed": false,
          "internalType": "uint256",
          "name": "baseProtocolTokenAmount",
          "type": "uint256"
        },
        {
          "indexed": false,
          "internalType": "address",
          "name": "caller",
          "type": "address"
        }
      ],
      "name": "ClaimedTokens",
      "type": "event"
    },
    {
      "anonymous": false,
      "inputs": [
        {
          "indexed": true,
          "internalType": "address",
          "name": "delegator",
          "type": "address"
        },
        {
          "indexed": true,
          "internalType": "address",
          "name": "fromDelegate",
          "type": "address"
        },
        {
          "indexed": true,
          "internalType": "address",
          "name": "toDelegate",
          "type": "address"
        }
      ],
      "name": "DelegateChanged",
      "type": "event"
    },
    {
      "anonymous": false,
      "inputs": [
        {
          "indexed": true,
          "internalType": "uint256",
          "name": "tokenId",
          "type": "uint256"
        },
        {
          "indexed": true,
          "internalType": "uint256",
          "name": "tierId",
          "type": "uint256"
        },
        {
          "indexed": true,
          "internalType": "address",
          "name": "beneficiary",
          "type": "address"
        },
        {
          "indexed": false,
          "internalType": "uint256",
          "name": "totalAmountContributed",
          "type": "uint256"
        },
        {
          "indexed": false,
          "internalType": "address",
          "name": "caller",
          "type": "address"
        }
      ],
      "name": "Mint",
      "type": "event"
    },
    {
      "anonymous": false,
      "inputs": [
        {
          "indexed": true,
          "internalType": "uint256",
          "name": "tokenId",
          "type": "uint256"
        },
        {
          "indexed": true,
          "internalType": "uint256",
          "name": "tierId",
          "type": "uint256"
        },
        {
          "indexed": true,
          "internalType": "address",
          "name": "beneficiary",
          "type": "address"
        },
        {
          "indexed": false,
          "internalType": "address",
          "name": "caller",
          "type": "address"
        }
      ],
      "name": "MintReservedToken",
      "type": "event"
    },
    {
      "anonymous": false,
      "inputs": [
        {
          "indexed": true,
          "internalType": "address",
          "name": "previousOwner",
          "type": "address"
        },
        {
          "indexed": true,
          "internalType": "address",
          "name": "newOwner",
          "type": "address"
        }
      ],
      "name": "OwnershipTransferred",
      "type": "event"
    },
    {
      "anonymous": false,
      "inputs": [
        {
          "indexed": true,
          "internalType": "address",
          "name": "delegate",
          "type": "address"
        },
        {
          "indexed": true,
          "internalType": "uint256",
          "name": "tierId",
          "type": "uint256"
        },
        {
          "indexed": false,
          "internalType": "uint256",
          "name": "previousBalance",
          "type": "uint256"
        },
        {
          "indexed": false,
          "internalType": "uint256",
          "name": "newBalance",
          "type": "uint256"
        },
        {
          "indexed": false,
          "internalType": "address",
          "name": "caller",
          "type": "address"
        }
      ],
      "name": "TierDelegateAttestationsChanged",
      "type": "event"
    },
    {
      "anonymous": false,
      "inputs": [
        {
          "components": [
            {
              "internalType": "uint256",
              "name": "id",
              "type": "uint256"
            },
            {
              "internalType": "uint256",
              "name": "redemptionWeight",
              "type": "uint256"
            }
          ],
          "indexed": false,
          "internalType": "struct DefifaTierRedemptionWeight[]",
          "name": "_tierWeights",
          "type": "tuple[]"
        },
        {
          "indexed": false,
          "internalType": "address",
          "name": "caller",
          "type": "address"
        }
      ],
      "name": "TierRedemptionWeightsSet",
      "type": "event"
    },
    {
      "anonymous": false,
      "inputs": [
        {
          "indexed": true,
          "internalType": "address",
          "name": "from",
          "type": "address"
        },
        {
          "indexed": true,
          "internalType": "address",
          "name": "to",
          "type": "address"
        },
        {
          "indexed": true,
          "internalType": "uint256",
          "name": "tokenId",
          "type": "uint256"
        }
      ],
      "name": "Transfer",
      "type": "event"
    },
    {
      "inputs": [],
      "name": "TOTAL_REDEMPTION_WEIGHT",
      "outputs": [
        {
          "internalType": "uint256",
          "name": "",
          "type": "uint256"
        }
      ],
      "stateMutability": "view",
      "type": "function"
    },
    {
      "inputs": [],
      "name": "amountRedeemed",
      "outputs": [
        {
          "internalType": "uint256",
          "name": "",
          "type": "uint256"
        }
      ],
      "stateMutability": "view",
      "type": "function"
    },
    {
      "inputs": [
        {
          "internalType": "address",
          "name": "to",
          "type": "address"
        },
        {
          "internalType": "uint256",
          "name": "tokenId",
          "type": "uint256"
        }
      ],
      "name": "approve",
      "outputs": [],
      "stateMutability": "nonpayable",
      "type": "function"
    },
    {
      "inputs": [
        {
          "internalType": "address",
          "name": "_owner",
          "type": "address"
        }
      ],
      "name": "balanceOf",
      "outputs": [
        {
          "internalType": "uint256",
          "name": "balance",
          "type": "uint256"
        }
      ],
      "stateMutability": "view",
      "type": "function"
    },
    {
      "inputs": [],
      "name": "baseProtocolToken",
      "outputs": [
        {
          "internalType": "contract IERC20",
          "name": "",
          "type": "address"
        }
      ],
      "stateMutability": "view",
      "type": "function"
    },
    {
      "inputs": [],
      "name": "baseURI",
      "outputs": [
        {
          "internalType": "string",
          "name": "",
          "type": "string"
        }
      ],
      "stateMutability": "view",
      "type": "function"
    },
    {
      "inputs": [],
      "name": "codeOrigin",
      "outputs": [
        {
          "internalType": "address",
          "name": "",
          "type": "address"
        }
      ],
      "stateMutability": "view",
      "type": "function"
    },
    {
      "inputs": [],
      "name": "contractURI",
      "outputs": [
        {
          "internalType": "string",
          "name": "",
          "type": "string"
        }
      ],
      "stateMutability": "view",
      "type": "function"
    },
    {
      "inputs": [],
      "name": "defaultAttestationDelegate",
      "outputs": [
        {
          "internalType": "address",
          "name": "",
          "type": "address"
        }
      ],
      "stateMutability": "view",
      "type": "function"
    },
    {
      "inputs": [],
      "name": "defifaToken",
      "outputs": [
        {
          "internalType": "contract IERC20",
          "name": "",
          "type": "address"
        }
      ],
      "stateMutability": "view",
      "type": "function"
    },
    {
      "inputs": [
        {
          "components": [
            {
              "internalType": "address",
              "name": "payer",
              "type": "address"
            },
            {
              "internalType": "uint256",
              "name": "projectId",
              "type": "uint256"
            },
            {
              "internalType": "uint256",
              "name": "currentFundingCycleConfiguration",
              "type": "uint256"
            },
            {
              "components": [
                {
                  "internalType": "address",
                  "name": "token",
                  "type": "address"
                },
                {
                  "internalType": "uint256",
                  "name": "value",
                  "type": "uint256"
                },
                {
                  "internalType": "uint256",
                  "name": "decimals",
                  "type": "uint256"
                },
                {
                  "internalType": "uint256",
                  "name": "currency",
                  "type": "uint256"
                }
              ],
              "internalType": "struct JBTokenAmount",
              "name": "amount",
              "type": "tuple"
            },
            {
              "components": [
                {
                  "internalType": "address",
                  "name": "token",
                  "type": "address"
                },
                {
                  "internalType": "uint256",
                  "name": "value",
                  "type": "uint256"
                },
                {
                  "internalType": "uint256",
                  "name": "decimals",
                  "type": "uint256"
                },
                {
                  "internalType": "uint256",
                  "name": "currency",
                  "type": "uint256"
                }
              ],
              "internalType": "struct JBTokenAmount",
              "name": "forwardedAmount",
              "type": "tuple"
            },
            {
              "internalType": "uint256",
              "name": "projectTokenCount",
              "type": "uint256"
            },
            {
              "internalType": "address",
              "name": "beneficiary",
              "type": "address"
            },
            {
              "internalType": "bool",
              "name": "preferClaimedTokens",
              "type": "bool"
            },
            {
              "internalType": "string",
              "name": "memo",
              "type": "string"
            },
            {
              "internalType": "bytes",
              "name": "metadata",
              "type": "bytes"
            }
          ],
          "internalType": "struct JBDidPayData",
          "name": "_data",
          "type": "tuple"
        }
      ],
      "name": "didPay",
      "outputs": [],
      "stateMutability": "payable",
      "type": "function"
    },
    {
      "inputs": [
        {
          "components": [
            {
              "internalType": "address",
              "name": "holder",
              "type": "address"
            },
            {
              "internalType": "uint256",
              "name": "projectId",
              "type": "uint256"
            },
            {
              "internalType": "uint256",
              "name": "currentFundingCycleConfiguration",
              "type": "uint256"
            },
            {
              "internalType": "uint256",
              "name": "projectTokenCount",
              "type": "uint256"
            },
            {
              "components": [
                {
                  "internalType": "address",
                  "name": "token",
                  "type": "address"
                },
                {
                  "internalType": "uint256",
                  "name": "value",
                  "type": "uint256"
                },
                {
                  "internalType": "uint256",
                  "name": "decimals",
                  "type": "uint256"
                },
                {
                  "internalType": "uint256",
                  "name": "currency",
                  "type": "uint256"
                }
              ],
              "internalType": "struct JBTokenAmount",
              "name": "reclaimedAmount",
              "type": "tuple"
            },
            {
              "components": [
                {
                  "internalType": "address",
                  "name": "token",
                  "type": "address"
                },
                {
                  "internalType": "uint256",
                  "name": "value",
                  "type": "uint256"
                },
                {
                  "internalType": "uint256",
                  "name": "decimals",
                  "type": "uint256"
                },
                {
                  "internalType": "uint256",
                  "name": "currency",
                  "type": "uint256"
                }
              ],
              "internalType": "struct JBTokenAmount",
              "name": "forwardedAmount",
              "type": "tuple"
            },
            {
              "internalType": "address payable",
              "name": "beneficiary",
              "type": "address"
            },
            {
              "internalType": "string",
              "name": "memo",
              "type": "string"
            },
            {
              "internalType": "bytes",
              "name": "metadata",
              "type": "bytes"
            }
          ],
          "internalType": "struct JBDidRedeemData",
          "name": "_data",
          "type": "tuple"
        }
      ],
      "name": "didRedeem",
      "outputs": [],
      "stateMutability": "payable",
      "type": "function"
    },
    {
      "inputs": [],
      "name": "directory",
      "outputs": [
        {
          "internalType": "contract IJBDirectory",
          "name": "",
          "type": "address"
        }
      ],
      "stateMutability": "view",
      "type": "function"
    },
    {
      "inputs": [
        {
          "internalType": "uint256",
          "name": "_tokenId",
          "type": "uint256"
        }
      ],
      "name": "firstOwnerOf",
      "outputs": [
        {
          "internalType": "address",
          "name": "",
          "type": "address"
        }
      ],
      "stateMutability": "view",
      "type": "function"
    },
    {
      "inputs": [],
      "name": "fundingCycleStore",
      "outputs": [
        {
          "internalType": "contract IJBFundingCycleStore",
          "name": "",
          "type": "address"
        }
      ],
      "stateMutability": "view",
      "type": "function"
    },
    {
      "inputs": [],
      "name": "gamePhaseReporter",
      "outputs": [
        {
          "internalType": "contract IDefifaGamePhaseReporter",
          "name": "",
          "type": "address"
        }
      ],
      "stateMutability": "view",
      "type": "function"
    },
    {
      "inputs": [],
      "name": "gamePotReporter",
      "outputs": [
        {
          "internalType": "contract IDefifaGamePotReporter",
          "name": "",
          "type": "address"
        }
      ],
      "stateMutability": "view",
      "type": "function"
    },
    {
      "inputs": [
        {
          "internalType": "uint256",
          "name": "tokenId",
          "type": "uint256"
        }
      ],
      "name": "getApproved",
      "outputs": [
        {
          "internalType": "address",
          "name": "",
          "type": "address"
        }
      ],
      "stateMutability": "view",
      "type": "function"
    },
    {
      "inputs": [
        {
          "internalType": "address",
          "name": "_account",
          "type": "address"
        },
        {
          "internalType": "uint256",
          "name": "_tier",
          "type": "uint256"
        },
        {
          "internalType": "uint256",
          "name": "_blockNumber",
          "type": "uint256"
        }
      ],
      "name": "getPastTierAttestationUnitsOf",
      "outputs": [
        {
          "internalType": "uint256",
          "name": "",
          "type": "uint256"
        }
      ],
      "stateMutability": "view",
      "type": "function"
    },
    {
      "inputs": [
        {
          "internalType": "uint256",
          "name": "_tier",
          "type": "uint256"
        },
        {
          "internalType": "uint256",
          "name": "_blockNumber",
          "type": "uint256"
        }
      ],
      "name": "getPastTierTotalAttestationUnitsOf",
      "outputs": [
        {
          "internalType": "uint256",
          "name": "",
          "type": "uint256"
        }
      ],
      "stateMutability": "view",
      "type": "function"
    },
    {
      "inputs": [
        {
          "internalType": "address",
          "name": "_account",
          "type": "address"
        },
        {
          "internalType": "uint256",
          "name": "_tier",
          "type": "uint256"
        }
      ],
      "name": "getTierAttestationUnitsOf",
      "outputs": [
        {
          "internalType": "uint256",
          "name": "",
          "type": "uint256"
        }
      ],
      "stateMutability": "view",
      "type": "function"
    },
    {
      "inputs": [
        {
          "internalType": "address",
          "name": "_account",
          "type": "address"
        },
        {
          "internalType": "uint256",
          "name": "_tier",
          "type": "uint256"
        }
      ],
      "name": "getTierDelegateOf",
      "outputs": [
        {
          "internalType": "address",
          "name": "",
          "type": "address"
        }
      ],
      "stateMutability": "view",
      "type": "function"
    },
    {
      "inputs": [
        {
          "internalType": "uint256",
          "name": "_tier",
          "type": "uint256"
        }
      ],
      "name": "getTierTotalAttestationUnitsOf",
      "outputs": [
        {
          "internalType": "uint256",
          "name": "",
          "type": "uint256"
        }
      ],
      "stateMutability": "view",
      "type": "function"
    },
    {
      "inputs": [
        {
          "internalType": "uint256",
          "name": "_gameId",
          "type": "uint256"
        },
        {
          "internalType": "contract IJBDirectory",
          "name": "_directory",
          "type": "address"
        },
        {
          "internalType": "string",
          "name": "_name",
          "type": "string"
        },
        {
          "internalType": "string",
          "name": "_symbol",
          "type": "string"
        },
        {
          "internalType": "contract IJBFundingCycleStore",
          "name": "_fundingCycleStore",
          "type": "address"
        },
        {
          "internalType": "string",
          "name": "_baseUri",
          "type": "string"
        },
        {
          "internalType": "contract IJB721TokenUriResolver",
          "name": "_tokenUriResolver",
          "type": "address"
        },
        {
          "internalType": "string",
          "name": "_contractUri",
          "type": "string"
        },
        {
          "components": [
            {
              "internalType": "uint104",
              "name": "price",
              "type": "uint104"
            },
            {
              "internalType": "uint32",
              "name": "initialQuantity",
              "type": "uint32"
            },
            {
              "internalType": "uint32",
              "name": "votingUnits",
              "type": "uint32"
            },
            {
              "internalType": "uint16",
              "name": "reservedRate",
              "type": "uint16"
            },
            {
              "internalType": "address",
              "name": "reservedTokenBeneficiary",
              "type": "address"
            },
            {
              "internalType": "bytes32",
              "name": "encodedIPFSUri",
              "type": "bytes32"
            },
            {
              "internalType": "uint24",
              "name": "category",
              "type": "uint24"
            },
            {
              "internalType": "bool",
              "name": "allowManualMint",
              "type": "bool"
            },
            {
              "internalType": "bool",
              "name": "shouldUseReservedTokenBeneficiaryAsDefault",
              "type": "bool"
            },
            {
              "internalType": "bool",
              "name": "transfersPausable",
              "type": "bool"
            },
            {
              "internalType": "bool",
              "name": "useVotingUnits",
              "type": "bool"
            }
          ],
          "internalType": "struct JB721TierParams[]",
          "name": "_tiers",
          "type": "tuple[]"
        },
        {
          "internalType": "uint48",
          "name": "_currency",
          "type": "uint48"
        },
        {
          "internalType": "contract IJBTiered721DelegateStore",
          "name": "_store",
          "type": "address"
        },
        {
          "internalType": "contract IDefifaGamePhaseReporter",
          "name": "_gamePhaseReporter",
          "type": "address"
        },
        {
          "internalType": "contract IDefifaGamePotReporter",
          "name": "_gamePotReporter",
          "type": "address"
        },
        {
          "internalType": "address",
          "name": "_defaultAttestationDelegate",
          "type": "address"
        },
        {
          "internalType": "string[]",
          "name": "_tierNames",
          "type": "string[]"
        }
      ],
      "name": "initialize",
      "outputs": [],
      "stateMutability": "nonpayable",
      "type": "function"
    },
    {
      "inputs": [
        {
          "internalType": "address",
          "name": "owner",
          "type": "address"
        },
        {
          "internalType": "address",
          "name": "operator",
          "type": "address"
        }
      ],
      "name": "isApprovedForAll",
      "outputs": [
        {
          "internalType": "bool",
          "name": "",
          "type": "bool"
        }
      ],
      "stateMutability": "view",
      "type": "function"
    },
    {
      "inputs": [
        {
          "components": [
            {
              "internalType": "uint256",
              "name": "tierId",
              "type": "uint256"
            },
            {
              "internalType": "uint256",
              "name": "count",
              "type": "uint256"
            }
          ],
          "internalType": "struct JBTiered721MintReservesForTiersData[]",
          "name": "_mintReservesForTiersData",
          "type": "tuple[]"
        }
      ],
      "name": "mintReservesFor",
      "outputs": [],
      "stateMutability": "nonpayable",
      "type": "function"
    },
    {
      "inputs": [
        {
          "internalType": "uint256",
          "name": "_tierId",
          "type": "uint256"
        },
        {
          "internalType": "uint256",
          "name": "_count",
          "type": "uint256"
        }
      ],
      "name": "mintReservesFor",
      "outputs": [],
      "stateMutability": "nonpayable",
      "type": "function"
    },
    {
      "inputs": [],
      "name": "name",
      "outputs": [
        {
          "internalType": "string",
          "name": "",
          "type": "string"
        }
      ],
      "stateMutability": "view",
      "type": "function"
    },
    {
      "inputs": [],
      "name": "owner",
      "outputs": [
        {
          "internalType": "address",
          "name": "",
          "type": "address"
        }
      ],
      "stateMutability": "view",
      "type": "function"
    },
    {
      "inputs": [
        {
          "internalType": "uint256",
          "name": "tokenId",
          "type": "uint256"
        }
      ],
      "name": "ownerOf",
      "outputs": [
        {
          "internalType": "address",
          "name": "",
          "type": "address"
        }
      ],
      "stateMutability": "view",
      "type": "function"
    },
    {
      "inputs": [
        {
          "components": [
            {
              "internalType": "contract IJBPaymentTerminal",
              "name": "terminal",
              "type": "address"
            },
            {
              "internalType": "address",
              "name": "payer",
              "type": "address"
            },
            {
              "components": [
                {
                  "internalType": "address",
                  "name": "token",
                  "type": "address"
                },
                {
                  "internalType": "uint256",
                  "name": "value",
                  "type": "uint256"
                },
                {
                  "internalType": "uint256",
                  "name": "decimals",
                  "type": "uint256"
                },
                {
                  "internalType": "uint256",
                  "name": "currency",
                  "type": "uint256"
                }
              ],
              "internalType": "struct JBTokenAmount",
              "name": "amount",
              "type": "tuple"
            },
            {
              "internalType": "uint256",
              "name": "projectId",
              "type": "uint256"
            },
            {
              "internalType": "uint256",
              "name": "currentFundingCycleConfiguration",
              "type": "uint256"
            },
            {
              "internalType": "address",
              "name": "beneficiary",
              "type": "address"
            },
            {
              "internalType": "uint256",
              "name": "weight",
              "type": "uint256"
            },
            {
              "internalType": "uint256",
              "name": "reservedRate",
              "type": "uint256"
            },
            {
              "internalType": "string",
              "name": "memo",
              "type": "string"
            },
            {
              "internalType": "bytes",
              "name": "metadata",
              "type": "bytes"
            }
          ],
          "internalType": "struct JBPayParamsData",
          "name": "_data",
          "type": "tuple"
        }
      ],
      "name": "payParams",
      "outputs": [
        {
          "internalType": "uint256",
          "name": "weight",
          "type": "uint256"
        },
        {
          "internalType": "string",
          "name": "memo",
          "type": "string"
        },
        {
          "components": [
            {
              "internalType": "contract IJBPayDelegate",
              "name": "delegate",
              "type": "address"
            },
            {
              "internalType": "uint256",
              "name": "amount",
              "type": "uint256"
            }
          ],
          "internalType": "struct JBPayDelegateAllocation[]",
          "name": "delegateAllocations",
          "type": "tuple[]"
        }
      ],
      "stateMutability": "view",
      "type": "function"
    },
    {
      "inputs": [],
      "name": "pricingCurrency",
      "outputs": [
        {
          "internalType": "uint256",
          "name": "",
          "type": "uint256"
        }
      ],
      "stateMutability": "view",
      "type": "function"
    },
    {
      "inputs": [],
      "name": "projectId",
      "outputs": [
        {
          "internalType": "uint256",
          "name": "",
          "type": "uint256"
        }
      ],
      "stateMutability": "view",
      "type": "function"
    },
    {
      "inputs": [
        {
          "components": [
            {
              "internalType": "contract IJBPaymentTerminal",
              "name": "terminal",
              "type": "address"
            },
            {
              "internalType": "address",
              "name": "holder",
              "type": "address"
            },
            {
              "internalType": "uint256",
              "name": "projectId",
              "type": "uint256"
            },
            {
              "internalType": "uint256",
              "name": "currentFundingCycleConfiguration",
              "type": "uint256"
            },
            {
              "internalType": "uint256",
              "name": "tokenCount",
              "type": "uint256"
            },
            {
              "internalType": "uint256",
              "name": "totalSupply",
              "type": "uint256"
            },
            {
              "internalType": "uint256",
              "name": "overflow",
              "type": "uint256"
            },
            {
              "components": [
                {
                  "internalType": "address",
                  "name": "token",
                  "type": "address"
                },
                {
                  "internalType": "uint256",
                  "name": "value",
                  "type": "uint256"
                },
                {
                  "internalType": "uint256",
                  "name": "decimals",
                  "type": "uint256"
                },
                {
                  "internalType": "uint256",
                  "name": "currency",
                  "type": "uint256"
                }
              ],
              "internalType": "struct JBTokenAmount",
              "name": "reclaimAmount",
              "type": "tuple"
            },
            {
              "internalType": "bool",
              "name": "useTotalOverflow",
              "type": "bool"
            },
            {
              "internalType": "uint256",
              "name": "redemptionRate",
              "type": "uint256"
            },
            {
              "internalType": "string",
              "name": "memo",
              "type": "string"
            },
            {
              "internalType": "bytes",
              "name": "metadata",
              "type": "bytes"
            }
          ],
          "internalType": "struct JBRedeemParamsData",
          "name": "_data",
          "type": "tuple"
        }
      ],
      "name": "redeemParams",
      "outputs": [
        {
          "internalType": "uint256",
          "name": "reclaimAmount",
          "type": "uint256"
        },
        {
          "internalType": "string",
          "name": "memo",
          "type": "string"
        },
        {
          "components": [
            {
              "internalType": "contract IJBRedemptionDelegate",
              "name": "delegate",
              "type": "address"
            },
            {
              "internalType": "uint256",
              "name": "amount",
              "type": "uint256"
            }
          ],
          "internalType": "struct JBRedemptionDelegateAllocation[]",
          "name": "delegateAllocations",
          "type": "tuple[]"
        }
      ],
      "stateMutability": "view",
      "type": "function"
    },
    {
      "inputs": [],
      "name": "redemptionWeightIsSet",
      "outputs": [
        {
          "internalType": "bool",
          "name": "",
          "type": "bool"
        }
      ],
      "stateMutability": "view",
      "type": "function"
    },
    {
      "inputs": [
        {
          "internalType": "uint256",
          "name": "_tokenId",
          "type": "uint256"
        }
      ],
      "name": "redemptionWeightOf",
      "outputs": [
        {
          "internalType": "uint256",
          "name": "",
          "type": "uint256"
        }
      ],
      "stateMutability": "view",
      "type": "function"
    },
    {
      "inputs": [
        {
          "internalType": "uint256[]",
          "name": "_tokenIds",
          "type": "uint256[]"
        },
        {
          "components": [
            {
              "internalType": "contract IJBPaymentTerminal",
              "name": "terminal",
              "type": "address"
            },
            {
              "internalType": "address",
              "name": "holder",
              "type": "address"
            },
            {
              "internalType": "uint256",
              "name": "projectId",
              "type": "uint256"
            },
            {
              "internalType": "uint256",
              "name": "currentFundingCycleConfiguration",
              "type": "uint256"
            },
            {
              "internalType": "uint256",
              "name": "tokenCount",
              "type": "uint256"
            },
            {
              "internalType": "uint256",
              "name": "totalSupply",
              "type": "uint256"
            },
            {
              "internalType": "uint256",
              "name": "overflow",
              "type": "uint256"
            },
            {
              "components": [
                {
                  "internalType": "address",
                  "name": "token",
                  "type": "address"
                },
                {
                  "internalType": "uint256",
                  "name": "value",
                  "type": "uint256"
                },
                {
                  "internalType": "uint256",
                  "name": "decimals",
                  "type": "uint256"
                },
                {
                  "internalType": "uint256",
                  "name": "currency",
                  "type": "uint256"
                }
              ],
              "internalType": "struct JBTokenAmount",
              "name": "reclaimAmount",
              "type": "tuple"
            },
            {
              "internalType": "bool",
              "name": "useTotalOverflow",
              "type": "bool"
            },
            {
              "internalType": "uint256",
              "name": "redemptionRate",
              "type": "uint256"
            },
            {
              "internalType": "string",
              "name": "memo",
              "type": "string"
            },
            {
              "internalType": "bytes",
              "name": "metadata",
              "type": "bytes"
            }
          ],
          "internalType": "struct JBRedeemParamsData",
          "name": "",
          "type": "tuple"
        }
      ],
      "name": "redemptionWeightOf",
      "outputs": [
        {
          "internalType": "uint256",
          "name": "cumulativeWeight",
          "type": "uint256"
        }
      ],
      "stateMutability": "view",
      "type": "function"
    },
    {
      "inputs": [],
      "name": "renounceOwnership",
      "outputs": [],
      "stateMutability": "nonpayable",
      "type": "function"
    },
    {
      "inputs": [
        {
          "internalType": "address",
          "name": "from",
          "type": "address"
        },
        {
          "internalType": "address",
          "name": "to",
          "type": "address"
        },
        {
          "internalType": "uint256",
          "name": "tokenId",
          "type": "uint256"
        }
      ],
      "name": "safeTransferFrom",
      "outputs": [],
      "stateMutability": "nonpayable",
      "type": "function"
    },
    {
      "inputs": [
        {
          "internalType": "address",
          "name": "from",
          "type": "address"
        },
        {
          "internalType": "address",
          "name": "to",
          "type": "address"
        },
        {
          "internalType": "uint256",
          "name": "tokenId",
          "type": "uint256"
        },
        {
          "internalType": "bytes",
          "name": "data",
          "type": "bytes"
        }
      ],
      "name": "safeTransferFrom",
      "outputs": [],
      "stateMutability": "nonpayable",
      "type": "function"
    },
    {
      "inputs": [
        {
          "internalType": "address",
          "name": "operator",
          "type": "address"
        },
        {
          "internalType": "bool",
          "name": "approved",
          "type": "bool"
        }
      ],
      "name": "setApprovalForAll",
      "outputs": [],
      "stateMutability": "nonpayable",
      "type": "function"
    },
    {
      "inputs": [
        {
          "internalType": "address",
          "name": "_delegatee",
          "type": "address"
        },
        {
          "internalType": "uint256",
          "name": "_tierId",
          "type": "uint256"
        }
      ],
      "name": "setTierDelegateTo",
      "outputs": [],
      "stateMutability": "nonpayable",
      "type": "function"
    },
    {
      "inputs": [
        {
          "components": [
            {
              "internalType": "address",
              "name": "delegatee",
              "type": "address"
            },
            {
              "internalType": "uint256",
              "name": "tierId",
              "type": "uint256"
            }
          ],
          "internalType": "struct JBTiered721SetTierDelegatesData[]",
          "name": "_setTierDelegatesData",
          "type": "tuple[]"
        }
      ],
      "name": "setTierDelegatesTo",
      "outputs": [],
      "stateMutability": "nonpayable",
      "type": "function"
    },
    {
      "inputs": [
        {
          "components": [
            {
              "internalType": "uint256",
              "name": "id",
              "type": "uint256"
            },
            {
              "internalType": "uint256",
              "name": "redemptionWeight",
              "type": "uint256"
            }
          ],
          "internalType": "struct DefifaTierRedemptionWeight[]",
          "name": "_tierWeights",
          "type": "tuple[]"
        }
      ],
      "name": "setTierRedemptionWeightsTo",
      "outputs": [],
      "stateMutability": "nonpayable",
      "type": "function"
    },
    {
      "inputs": [],
      "name": "store",
      "outputs": [
        {
          "internalType": "contract IJBTiered721DelegateStore",
          "name": "",
          "type": "address"
        }
      ],
      "stateMutability": "view",
      "type": "function"
    },
    {
      "inputs": [
        {
          "internalType": "bytes4",
          "name": "_interfaceId",
          "type": "bytes4"
        }
      ],
      "name": "supportsInterface",
      "outputs": [
        {
          "internalType": "bool",
          "name": "",
          "type": "bool"
        }
      ],
      "stateMutability": "view",
      "type": "function"
    },
    {
      "inputs": [],
      "name": "symbol",
      "outputs": [
        {
          "internalType": "string",
          "name": "",
          "type": "string"
        }
      ],
      "stateMutability": "view",
      "type": "function"
    },
    {
      "inputs": [
        {
          "internalType": "uint256",
          "name": "_tierId",
          "type": "uint256"
        }
      ],
      "name": "tierNameOf",
      "outputs": [
        {
          "internalType": "string",
          "name": "",
          "type": "string"
        }
      ],
      "stateMutability": "view",
      "type": "function"
    },
    {
      "inputs": [],
      "name": "tierRedemptionWeights",
      "outputs": [
        {
          "internalType": "uint256[128]",
          "name": "",
          "type": "uint256[128]"
        }
      ],
      "stateMutability": "view",
      "type": "function"
    },
    {
      "inputs": [],
      "name": "tokenAllocations",
      "outputs": [
        {
          "internalType": "uint256",
          "name": "defifaTokenAllocation",
          "type": "uint256"
        },
        {
          "internalType": "uint256",
          "name": "baseProtocolTokenAllocation",
          "type": "uint256"
        }
      ],
      "stateMutability": "view",
      "type": "function"
    },
    {
      "inputs": [
        {
          "internalType": "uint256",
          "name": "_tokenId",
          "type": "uint256"
        }
      ],
      "name": "tokenURI",
      "outputs": [
        {
          "internalType": "string",
          "name": "",
          "type": "string"
        }
      ],
      "stateMutability": "view",
      "type": "function"
    },
    {
      "inputs": [
        {
          "internalType": "uint256[]",
          "name": "_tokenIds",
          "type": "uint256[]"
        }
      ],
      "name": "tokensClaimableFor",
      "outputs": [
        {
          "internalType": "uint256",
          "name": "defifaTokenAmount",
          "type": "uint256"
        },
        {
          "internalType": "uint256",
          "name": "baseProtocolTokenAmount",
          "type": "uint256"
        }
      ],
      "stateMutability": "view",
      "type": "function"
    },
    {
      "inputs": [
        {
          "internalType": "uint256",
          "name": "",
          "type": "uint256"
        }
      ],
      "name": "tokensRedeemedFrom",
      "outputs": [
        {
          "internalType": "uint256",
          "name": "",
          "type": "uint256"
        }
      ],
      "stateMutability": "view",
      "type": "function"
    },
    {
      "inputs": [
        {
          "components": [
            {
              "internalType": "contract IJBPaymentTerminal",
              "name": "terminal",
              "type": "address"
            },
            {
              "internalType": "address",
              "name": "holder",
              "type": "address"
            },
            {
              "internalType": "uint256",
              "name": "projectId",
              "type": "uint256"
            },
            {
              "internalType": "uint256",
              "name": "currentFundingCycleConfiguration",
              "type": "uint256"
            },
            {
              "internalType": "uint256",
              "name": "tokenCount",
              "type": "uint256"
            },
            {
              "internalType": "uint256",
              "name": "totalSupply",
              "type": "uint256"
            },
            {
              "internalType": "uint256",
              "name": "overflow",
              "type": "uint256"
            },
            {
              "components": [
                {
                  "internalType": "address",
                  "name": "token",
                  "type": "address"
                },
                {
                  "internalType": "uint256",
                  "name": "value",
                  "type": "uint256"
                },
                {
                  "internalType": "uint256",
                  "name": "decimals",
                  "type": "uint256"
                },
                {
                  "internalType": "uint256",
                  "name": "currency",
                  "type": "uint256"
                }
              ],
              "internalType": "struct JBTokenAmount",
              "name": "reclaimAmount",
              "type": "tuple"
            },
            {
              "internalType": "bool",
              "name": "useTotalOverflow",
              "type": "bool"
            },
            {
              "internalType": "uint256",
              "name": "redemptionRate",
              "type": "uint256"
            },
            {
              "internalType": "string",
              "name": "memo",
              "type": "string"
            },
            {
              "internalType": "bytes",
              "name": "metadata",
              "type": "bytes"
            }
          ],
          "internalType": "struct JBRedeemParamsData",
          "name": "",
          "type": "tuple"
        }
      ],
      "name": "totalRedemptionWeight",
      "outputs": [
        {
          "internalType": "uint256",
          "name": "",
          "type": "uint256"
        }
      ],
      "stateMutability": "view",
      "type": "function"
    },
    {
      "inputs": [
        {
          "internalType": "address",
          "name": "from",
          "type": "address"
        },
        {
          "internalType": "address",
          "name": "to",
          "type": "address"
        },
        {
          "internalType": "uint256",
          "name": "tokenId",
          "type": "uint256"
        }
      ],
      "name": "transferFrom",
      "outputs": [],
      "stateMutability": "nonpayable",
      "type": "function"
    },
    {
      "inputs": [
        {
          "internalType": "address",
          "name": "newOwner",
          "type": "address"
        }
      ],
      "name": "transferOwnership",
      "outputs": [],
      "stateMutability": "nonpayable",
      "type": "function"
    }
  ],
  "bytecode": {
    "object": "0x60e0346200011457601f62005ec438819003918201601f19168301916001600160401b038311848410176200011957808492604094855283398101031262000114576200005a602062000052836200012f565b92016200012f565b60078054336001600160a01b0319821681179092556040519391906001600160a01b03167f8be0079c531659141344cd1fd0a4f28419497f9722a3daafe3b4186f6b6457e0600080a33060c05260805260a052615d7f908162000145823960805181818161128e0152818161274f01528181612d0501528181614364015261449c015260a0518181816107f7015281816126df01528181612d5b015281816143b801526144e7015260c0518181816108f901526135fc0152f35b600080fd5b634e487b7160e01b600052604160045260246000fd5b51906001600160a01b0382168203620001145756fe6080604052600436101561001257600080fd5b60003560e01c806301ffc9a71461039757806306fdde031461039257806307405b241461038d578063081812fc14610388578063095ea7b3146103835780631417f9f61461037e5780631baabc3e146103795780631d153ca41461037457806323b872dd1461036f57806327f6e9791461036a5780632a596e53146103655780632b13c58f146103605780633900c6f91461035b5780633b2b8a78146103565780633fafa1271461035157806342842e0e1461034c5780634f228e111461034757806354c6d1f514610342578063557e71551461033d5780636352211e14610338578063640abacd1461033357806364640c1e1461032e5780636c0360eb1461032957806370a0823114610324578063715018a61461031f5780637245d80c1461031a578063743682b5146103155780637ba62bf9146103105780637f9898871461030b5780638da5cb5b1461030657806392eb1641146103015780639494bf72146102fc57806395d89b41146102f7578063975057e7146102f25780639c8c6cd5146102ed5780639df45468146102e8578063a0b6490c146102e3578063a22cb465146102de578063a51cfd18146102d9578063a8c15f4a146102d4578063aa4fb15b146102cf578063b88d4fde146102ca578063c3c69a96146102c5578063c41c2f24146102c0578063c87b56dd146102bb578063c90f5126146102b6578063cb7043f7146102b1578063d46cf171146102ac578063d9119f5f146102a7578063da9ee8b7146102a2578063e8a3d4851461029d578063e985e9c514610298578063ea1c1b2514610293578063f2fde38b1461028e578063f7623b81146102895763fadd72b71461028457600080fd5b6121eb565b612191565b612100565b6120b3565b61204b565b611fa4565b611ebd565b611e8f565b611dd4565b611d2f565b611c7e565b611b87565b611b5e565b611b02565b611a9b565b611a7c565b611a59565b6119cf565b611920565b6118f7565b611872565b611826565b6117fd565b611758565b611737565b61170c565b6116e3565b6116ba565b611664565b6115da565b6115b1565b611553565b6114c1565b61141a565b6113c2565b61139f565b611381565b611358565b61133a565b611314565b6112db565b6112bd565b611278565b61117e565b610a56565b610999565b61097b565b610954565b6108e3565b610826565b6107e1565b610742565b610712565b610634565b610529565b6103b3565b6001600160e01b03198116036103ae57565b600080fd5b346103ae5760203660031901126103ae576104016004356103d38161039c565b63ffffffff60e01b1663f6de42df60e01b8114908115610405575b5060405190151581529081906020820190565b0390f35b63fbb38e0360e01b8114915081156104b1575b81156104a0575b811561048f575b811561047e575b811561043b575b50386103ee565b6380ac58cd60e01b81149150811561046d575b811561045c575b5038610434565b6301ffc9a760e01b14905038610455565b635b5e139f60e01b8114915061044e565b63152a902d60e11b8114915061042d565b632b13c58f60e01b81149150610426565b63da9ee8b760e01b8114915061041f565b6371700c6960e01b81149150610418565b60009103126103ae57565b60005b8381106104e05750506000910152565b81810151838201526020016104d0565b90602091610509815180928185528580860191016104cd565b601f01601f1916010190565b9060206105269281815201906104f0565b90565b346103ae57600080600319360112610605576040519080805461054b816113e0565b808552916001918083169081156105db5750600114610581575b6104018561057581870382610e0f565b60405191829182610515565b80809450527f290decd9548b62a8d60345a988386fc84ba6bc95484008f6362f93160ef3e5635b8284106105c357505050810160200161057582610401610565565b805460208587018101919091529093019281016105a8565b8695506104019693506020925061057594915060ff191682840152151560051b8201019293610565565b80fd5b6001600160a01b038116036103ae57565b6101a4359061062782610608565b565b359061062782610608565b346103ae5760403660031901126103ae5760043561065181610608565b60905461069990602090610675906001600160a01b03165b6001600160a01b031690565b60055490604051808095819463038ab08560e11b8352600483019190602083019252565b03915afa801561070d576001916000916106df575b506106b8816128c9565b036106cd576106cb90602435903361400e565b005b60405163f331f3c160e01b8152600490fd5b610700915060203d8111610706575b6106f88183610e0f565b8101906128b1565b386106ae565b503d6106ee565b6122c0565b346103ae5760203660031901126103ae5760206107306004356145b3565b6040516001600160a01b039091168152f35b346103ae5760403660031901126103ae5760043561075f81610608565b6024356001600160a01b038061077483614580565b1680918416146107cf578033141590816107a9575b50610797576106cb91614f11565b60405163e5fa0e3560e01b8152600490fd5b600090815260046020908152604080832033845290915290205460ff1615905038610789565b60405163133f8be960e01b8152600490fd5b346103ae5760003660031901126103ae576040517f00000000000000000000000000000000000000000000000000000000000000006001600160a01b03168152602090f35b346103ae576020806003193601126103ae576000906004358252608d81526040822090604051918381549061085a826113e0565b808652926001928084169081156108bf5750600114610884575b61040186610575818a0382610e0f565b9080949650528483205b8284106108ac57505050816104019361057592820101933880610874565b805485850187015292850192810161088e565b60ff19168787015250505050151560051b8201019150610575816104013880610874565b346103ae5760003660031901126103ae576040517f00000000000000000000000000000000000000000000000000000000000000006001600160a01b03168152602090f35b60609060031901126103ae5760043561094081610608565b9060243561094d81610608565b9060443590565b346103ae5761096236610928565b9061096d823361462a565b15610797576106cb92614cb3565b346103ae5760003660031901126103ae576020609754604051908152f35b346103ae576020806003193601126103ae57600435906001600160401b03908183116103ae57366023840112156103ae5782600401359182116103ae57602490600693368385871b830101116103ae5760005b8481106109f557005b600190610a17610a0b3687848b1b8701016121c3565b858151910151906138cf565b016109ec565b90816101e09103126103ae5790565b60206003198201126103ae57600435906001600160401b0382116103ae5761052691600401610a1d565b610a5f36610a2c565b3415801590610d0b575b8015610cfb575b610ce95760a08101358015610cd7576101c082016024610a9082856127a2565b9050108015610c9f575b610c8d57610aab610ab391846127a2565b810190612877565b8051609054919493509150610ad0906001600160a01b0316610669565b6005546040805163038ab08560e11b8152600480820193909352919392602092908390829060249082905afa801561070d578591600091610c70575b50610b16816128c9565b149360005b848110610b5b575050505050610b3083614293565b610b3657005b6106cb92610b51610b4c610b56936097546123ad565b609755565b613efe565b614319565b610b658189612370565b5190610b8b610b7e836000526002602052604060002090565b546001600160a01b031690565b610b976106698c613efe565b6001600160a01b0390911603610c60578487610bb284614ad4565b610bc2575b506001915001610b1b565b608e54610bfb9390610bdc906001600160a01b0316610669565b86516342f9914b60e01b81528681019283529485928391829160200190565b03915afa91821561070d57600192610c2691600091610c33575b506000526098602052604060002090565b8054600101905584610bb7565b610c539150873d8911610c59575b610c4b8183610e0f565b8101906122b1565b38610c15565b503d610c41565b835163075fd2b160e01b81528390fd5b610c879150843d8611610706576106f88183610e0f565b38610b0c565b604051632a84050f60e01b8152600490fd5b50610cb3610cad82856127a2565b906127d4565b63f6de42df60e01b916001600160e01b031991610ccf916127f6565b161415610a9a565b604051637691472960e01b8152600490fd5b604051633efca5c360e11b8152600490fd5b5060055460208201351415610a70565b50600654610d5590602090610d28906001600160a01b0316610669565b600554604051636e49181f60e01b8152600481019190915233602482015292839190829081906044820190565b03915afa90811561070d57600091610d6f575b5015610a69565b610d90915060203d8111610d96575b610d888183610e0f565b810190613ee9565b38610d68565b503d610d7e565b6024359061062782610608565b634e487b7160e01b600052604160045260246000fd5b604081019081106001600160401b03821117610ddb57604052565b610daa565b6001600160401b038111610ddb57604052565b61100081019081106001600160401b03821117610ddb57604052565b90601f801991011681019081106001600160401b03821117610ddb57604052565b6040519061016082018281106001600160401b03821117610ddb57604052565b6040519061062782610dc0565b6040519061018082018281106001600160401b03821117610ddb57604052565b6040519061012082018281106001600160401b03821117610ddb57604052565b6001600160401b038111610ddb57601f01601f191660200190565b929192610ec482610e9d565b91610ed26040519384610e0f565b8294818452818301116103ae578281602093846000960137010152565b9080601f830112156103ae5781602061052693359101610eb8565b6084359061062782610608565b60c4359061062782610608565b6001600160401b038111610ddb5760051b60200190565b35906cffffffffffffffffffffffffff821682036103ae57565b359063ffffffff821682036103ae57565b359061ffff821682036103ae57565b359062ffffff821682036103ae57565b801515036103ae57565b359061062782610f85565b81601f820112156103ae57803590610fb182610f24565b92604090610fc182519586610e0f565b8385526020918286019183610160809702860101948186116103ae578401925b858410610ff2575050505050505090565b86848303126103ae57848791611006610e30565b61100f87610f3b565b815261101c838801610f55565b8382015261102b868801610f55565b86820152606061103c818901610f66565b90820152608061104d818901610629565b9082015260a0808801359082015260c0611068818901610f75565b9082015260e0611079818901610f8f565b9082015261010061108b818901610f8f565b9082015261012061109d818901610f8f565b908201526101406110af818901610f8f565b90820152815201930192610fe1565b610124359065ffffffffffff821682036103ae57565b610144359061062782610608565b610164359061062782610608565b610184359061062782610608565b9080601f830112156103ae5781359061111682610f24565b926111246040519485610e0f565b828452602092838086019160051b830101928084116103ae57848301915b8483106111525750505050505090565b82356001600160401b0381116103ae57869161117384848094890101610eef565b815201920191611142565b346103ae576101e03660031901126103ae57611198610d9d565b6044356001600160401b03918282116103ae576111ba60049236908401610eef565b6064358481116103ae576111d19036908501610eef565b6111d9610f0a565b60a4358681116103ae576111f09036908701610eef565b6111f8610f17565b60e4358881116103ae5761120f9036908901610eef565b610104358981116103ae576112279036908a01610f9a565b916112306110be565b936112396110d4565b956112426110e2565b9761124b6110f0565b99611254610619565b9b6101c4359e8f116103ae576112716106cb9f8f903691016110fe565b9d356135e3565b346103ae5760003660031901126103ae576040517f00000000000000000000000000000000000000000000000000000000000000006001600160a01b03168152602090f35b346103ae5760003660031901126103ae576020600554604051908152f35b346103ae576112e936610928565b6040519160208301938385106001600160401b03861117610ddb576106cb94604052600084526145eb565b346103ae5760203660031901126103ae57602061133260043561252f565b604051908152f35b346103ae5760203660031901126103ae57602061073060043561227d565b346103ae5760003660031901126103ae57608f546040516001600160a01b039091168152602090f35b346103ae5760203660031901126103ae576020610730600435614580565b346103ae5760003660031901126103ae576020604051670de0b6b3a76400008152f35b346103ae5760003660031901126103ae576020609254604051908152f35b90600182811c92168015611410575b60208310146113fa57565b634e487b7160e01b600052602260045260246000fd5b91607f16916113ef565b346103ae5760008060031936011261060557604051908060945461143d816113e0565b808552916001918083169081156105db5750600114611466576104018561057581870382610e0f565b9250609483527f7047a3cc0a76edcee45792ca71527c753f6167484f14b94c4a3bd2997516725c5b8284106114a957505050810160200161057582610401610565565b8054602085870181019190915290930192810161148e565b346103ae5760203660031901126103ae576004356114de81610608565b608e54604051633de222bb60e21b81523060048201526001600160a01b0392831660248201529160209183916044918391165afa801561070d5761040191600091611535575b506040519081529081906020820190565b61154d915060203d8111610c5957610c4b8183610e0f565b38611524565b346103ae576000806003193601126106055761156d615745565b600780546001600160a01b0319811690915581906001600160a01b03167f8be0079c531659141344cd1fd0a4f28419497f9722a3daafe3b4186f6b6457e08280a380f35b346103ae5760003660031901126103ae576091546040516001600160a01b039091168152602090f35b346103ae5760203660031901126103ae5760043560005260986020526020604060002054604051908152f35b81601f820112156103ae5780359161161d83610f24565b9261162b6040519485610e0f565b808452602092838086019260051b8201019283116103ae578301905b828210611655575050505090565b81358152908301908301611647565b346103ae5760403660031901126103ae576001600160401b036004358181116103ae57611695903690600401611606565b906024359081116103ae576020916116b4611332923690600401610a1d565b506123ba565b346103ae5760003660031901126103ae576096546040516001600160a01b039091168152602090f35b346103ae5760003660031901126103ae576007546040516001600160a01b039091168152602090f35b346103ae5760003660031901126103ae57611725612686565b60408051928352602083019190915290f35b346103ae5761174536610a2c565b506020604051670de0b6b3a76400008152f35b346103ae57600080600319360112610605576040519080600180549161177d836113e0565b808652928281169081156105db57506001146117a3576104018561057581870382610e0f565b92508083527fb10e2d527612073b26eecdfd717e6a320cf44b4afac2b0732d9fcbe2b7fa0cf65b8284106117e557505050810160200161057582610401610565565b805460208587018101919091529093019281016117ca565b346103ae5760003660031901126103ae57608e546040516001600160a01b039091168152602090f35b346103ae5760403660031901126103ae57602060043561184581610608565b60018060a01b03809116600052608882526040600020602435600052825260406000205416604051908152f35b346103ae5760003660031901126103ae5760405161188f81610df3565b611000809136903760405160086000825b608082106118e1575050506118b481610df3565b60405190600090825b608083106118ca57505050f35b6001908251815260208091019201920191906118bd565b60016020819285548152019301910190916118a0565b346103ae5760003660031901126103ae576090546040516001600160a01b039091168152602090f35b346103ae5760403660031901126103ae5760043561193d81610608565b60243561194981610f85565b6001600160a01b038216913383146119bd573360009081526004602090815260408083206001600160a01b039094168352929052209015159060ff1981541660ff83161790556040519081527f17307eab39ab6107e8899845ad3d59bd9653f200f220920489ca2b5937696c3160203392a3005b6040516306f8139d60e11b8152600490fd5b346103ae576119e56119e036610a2c565b6128e9565b604092919280519384938452611a0760209160608387015260608601906104f0565b90848203838601528080855193848152019401926000905b838210611a2c5786860387f35b845180516001600160a01b0316875283015186840152879650948501949382019360019190910190611a1f565b346103ae5760003660031901126103ae57602060ff609354166040519015158152f35b346103ae5760403660031901126103ae576106cb6024356004356138cf565b346103ae5760803660031901126103ae57600435611ab881610608565b602435611ac481610608565b606435916001600160401b0383116103ae57366023840112156103ae57611af86106cb933690602481600401359101610eb8565b91604435916145eb565b346103ae5760403660031901126103ae57600435611b1f81610608565b6001600160a01b03166000908152608960209081526040808320602435845282529091206001600160e01b0390611b55906159a9565b16604051908152f35b346103ae5760003660031901126103ae576006546040516001600160a01b039091168152602090f35b346103ae5760203660031901126103ae57608e54611bad906001600160a01b0316610669565b604051630fab094760e01b815230600482015290602090829060249082905afa90811561070d57600091611c50575b50604051635e703e7160e01b81523060048083019190915235602482015290600090829060449082906001600160a01b03165afa801561070d5761040191600091611c2f575b5060405191829182610515565b611c4a913d8091833e611c428183610e0f565b810190612323565b38611c22565b611c71915060203d8111611c77575b611c698183610e0f565b8101906122cc565b38611bdc565b503d611c5f565b346103ae576020806003193601126103ae57600435906001600160401b0382116103ae57366023830112156103ae57816004013591611cbc83610f24565b91604093611ccc85519485610e0f565b80845260248285019160061b840101923684116103ae57602401905b838210611cf8576106cb85613f08565b85823603126103ae578286918251611d0f81610dc0565b8435611d1a81610608565b81528285013583820152815201910190611ce8565b346103ae5760203660031901126103ae576004356001600160401b0381116103ae57611d62611725913690600401611606565b612c13565b91908252611d8160209160608385015260608401906104f0565b90604092838184039101528080855193848152019401926000905b838210611dab57505050505090565b845180516001600160a01b03168752830151868401529485019493820193600190910190611d9c565b346103ae57602060031981813601126103ae57600435906001600160401b0382116103ae576101a09082360301126103ae57611e21611e1a6101648301836004016127a2565b3691610eb8565b60405190611e2e82610dc0565b6001825260005b848110611e7957509061040191610124946000611e50610e50565b30815291820152611e608361235e565b52611e6a8261235e565b50604051948594013584611d67565b8490611e83612822565b82828601015201611e35565b346103ae5760403660031901126103ae57600435600052608a602052602061133260243560406000206157e6565b6003196020368201126103ae57600435906001600160401b0382116103ae576102009082360301126103ae57600554341590811591611f30575b8115611f21575b50611f0f576106cb9060040161527d565b6040516331c57b1b60e21b8152600490fd5b90506024820135141538611efe565b600654909150611f48906001600160a01b0316610669565b604051636e49181f60e01b81526004810183905233602482015290602090829060449082905afa90811561070d57600091611f86575b501590611ef7565b611f9e915060203d8111610d9657610d888183610e0f565b38611f7e565b346103ae57600080600319360112610605576040519080609554611fc7816113e0565b808552916001918083169081156105db5750600114611ff0576104018561057581870382610e0f565b9250609583527f947035e97d0f7e1937f791bc189f60c984ceaaa7a8494fc67f9f8f4de8ccf2c65b82841061203357505050810160200161057582610401610565565b80546020858701810191909152909301928101612018565b346103ae5760403660031901126103ae57602060ff6120a760043561206f81610608565b6024359061207c82610608565b60018060a01b03166000526004845260406000209060018060a01b0316600052602052604060002090565b54166040519015158152f35b346103ae5760603660031901126103ae576004356120d081610608565b60018060a01b031660005260896020526040600020602435600052602052602061133260443560406000206157e6565b346103ae5760203660031901126103ae5760043561211d81610608565b612125615745565b6001600160a01b0381161561213d576106cb9061579d565b60405162461bcd60e51b815260206004820152602660248201527f4f776e61626c653a206e6577206f776e657220697320746865207a65726f206160448201526564647265737360d01b6064820152608490fd5b346103ae5760203660031901126103ae57600435600052608a602052602060018060e01b03611b5560406000206159a9565b91908260409103126103ae576040516121db81610dc0565b6020808294803584520135910152565b346103ae576020806003193601126103ae57600435906001600160401b0382116103ae57366023830112156103ae5781600401359161222983610f24565b9160409361223985519485610e0f565b80845260248285019160061b840101923684116103ae57602401905b838210612265576106cb85613ba7565b82869161227236856121c3565b815201910190612255565b6000908152608c60205260409020546001600160a01b03908116806122ac575060026020526040600020541690565b905090565b908160209103126103ae575190565b6040513d6000823e3d90fd5b908160209103126103ae575161052681610608565b81601f820112156103ae5780516122f781610e9d565b926123056040519485610e0f565b818452602082840101116103ae5761052691602080850191016104cd565b906020828203126103ae5781516001600160401b0381116103ae5761052692016122e1565b634e487b7160e01b600052603260045260246000fd5b80511561236b5760200190565b612348565b805182101561236b5760209160051b010190565b634e487b7160e01b600052601160045260246000fd5b90600182018092116123a857565b612384565b919082018092116123a857565b9060009180516000915b8183106123d057505050565b9091936123e66123e08684612370565b5161252f565b81018091116123a8579360010191906123c4565b519061062782610608565b519061062782610f85565b6020818303126103ae5780516001600160401b03918282116103ae5701610180818403126103ae57612440610e5d565b92815184526020820151602085015260408201516040850152606082015160608501526080820151608085015260a082015160a085015261248360c083016123fa565b60c085015260e082015160e085015261010080830151908501526101206124ab818401612405565b908501526101406124bd818401612405565b9085015261016092838301519081116103ae576124da92016122e1565b9082015290565b6000198101919082116123a857565b919082039182116123a857565b608081101561236b5760080190600090565b8115612519570490565b634e487b7160e01b600052601260045260246000fd5b608e5461256b9060209061254b906001600160a01b0316610669565b92604051809381926342f9914b60e01b8352600483019190602083019252565b0381855afa90811561070d57600091612668575b506040516364faa15960e01b8152306004820152602481018290526000604482018190529092839060649082905afa91821561070d57600092612645575b506125dc6125d26125cd836124e1565b6124fd565b90549060031b1c90565b90811561263d5760608301906125fa604083519501948551906124f0565b15612634576126276126166105269561262e94519051906124f0565b916000526098602052604060002090565b54906123ad565b9061250f565b50505050600090565b505050600090565b61266191923d8091833e6126598183610e0f565b810190612410565b90386125bd565b612680915060203d8111610c5957610c4b8183610e0f565b3861257f565b608b54608081901c91906fffffffffffffffffffffffffffffffff166000811561272957505b91600081156126b9575090565b6040516370a0823160e01b81523060048201529091506020816024816001600160a01b037f0000000000000000000000000000000000000000000000000000000000000000165afa91821561070d5791612711575090565b610526915060203d8111610c5957610c4b8183610e0f565b6040516370a0823160e01b81523060048201529091506020816024816001600160a01b037f0000000000000000000000000000000000000000000000000000000000000000165afa91821561070d5791612784575b506126ac565b61279c915060203d8111610c5957610c4b8183610e0f565b3861277e565b903590601e19813603018212156103ae57018035906001600160401b0382116103ae576020019181360383136103ae57565b906024116103ae5760200190600490565b906044116103ae5760400190600490565b6001600160e01b0319903581811693926004811061281357505050565b60040360031b82901b16169150565b6040519061282f82610dc0565b60006020838281520152565b6040519061284882610dc0565b600182528160005b6020908181101561287257602091612866612822565b90828501015201612850565b505050565b916060838303126103ae5782359260208101356128938161039c565b9260408201356001600160401b0381116103ae576105269201611606565b908160209103126103ae575160078110156103ae5790565b600711156128d357565b634e487b7160e01b600052602160045260246000fd5b90600090816080840135612b73576101c0840190602461290983876127a2565b9050108015612b41575b610c8d5761291f61283b565b93612954610aab61292e610e50565b3081529460209584878201526129438961235e565b5261294d8861235e565b50886127a2565b6090549095925061296e91506001600160a01b0316610669565b91604088838251809663038ab08560e11b825281806129998760049701358783019190602083019252565b03915afa94851561070d578395612b22575b506129b5856128c9565b600194858114908115612b0d575b8115612af8575b8115612ae4575b50612a1557505050505050611e1a612a05612a11926129ff6129f960975460c08a01356123ad565b916123ba565b90615c10565b946101a08101906127a2565b9190565b9498959291908351938296612a34610669608e5460018060a01b031690565b915b868910612a5857505050505050505050611e1a816101a0612a119301906127a2565b90919293949596979b612aa09086612a708f85612370565b51875163c44a8e6d60e01b8152308782019081526020810192909252600060408301529384918291606090910190565b0381885afa91821561070d578a9289918991612aca575b500151019c019796959493929190612a36565b612ade91503d808b833e6126598183610e0f565b38612ab7565b60059150612af1816128c9565b14386129d1565b9050612b03816128c9565b60068114906129ca565b9050612b18816128c9565b60028114906129c3565b612b3a919550843d8611610706576106f88183610e0f565b93386129ab565b50612b4f610cad83876127a2565b63f6de42df60e01b916001600160e01b031991612b6b916127f6565b161415612913565b6040516309f82f1b60e31b8152600490fd5b908160609103126103ae5780519160406020830151612ba381610608565b92015190565b6040519061018082018281106001600160401b03821117610ddb57604052606061016083600080825280602083015280604083015280848301528060808301528060a08301528060c08301528060e083015280610100830152806101208301526101408201520152565b90612c1c612686565b8193911580612ee5575b612ed957609154612c3f906001600160a01b0316610669565b9060055490604095865194635a6fd84360e11b865260049460608780612c75888a83016020600191939293604081019481520152565b0381845afa94851561070d57612cb097600096612ea7575b50895180926379572fb760e11b8252818060209b8c958c83019190602083019252565b03915afa801561070d57612ccd91600091612e8a575b50856124f0565b612dc357505085516370a0823160e01b8082523085830190815290949193509091506001600160a01b039085908490819003602001817f000000000000000000000000000000000000000000000000000000000000000085165afa93841561070d57612d57948694600091612da6575b509751908152309281019283529384928391829160200190565b03917f0000000000000000000000000000000000000000000000000000000000000000165afa91821561070d57600092612d9057505090565b6105269250803d10610c5957610c4b8183610e0f565b612dbd9150853d8711610c5957610c4b8183610e0f565b38612d3d565b939194909296845190612dd4612ba9565b50608e5460009687959091612df1906001600160a01b0316610669565b915b848710612e28575050505050505090612e1c6105269392612e226097549184612e1c848b6123ad565b91615ca4565b966123ad565b90919293949597612e3f906000612a708b85612370565b0381885afa90811561070d5788612e6492600194600091612e71575b500151906123ad565b9801959493929190612df3565b612e84913d8091833e6126598183610e0f565b38612e5b565b612ea19150883d8a11610c5957610c4b8183610e0f565b38612cc6565b612ec991965060603d8111612ed2575b612ec18183610e0f565b810190612b85565b50509438612c8d565b503d612eb7565b50509050600090600090565b508015612c26565b601f8111612ef9575050565b6000908180527f290decd9548b62a8d60345a988386fc84ba6bc95484008f6362f93160ef3e563906020601f850160051c83019410612f53575b601f0160051c01915b828110612f4857505050565b818155600101612f3c565b9092508290612f33565b601f8111612f69575050565b600090609482527f7047a3cc0a76edcee45792ca71527c753f6167484f14b94c4a3bd2997516725c906020601f850160051c83019410612fc4575b601f0160051c01915b828110612fb957505050565b818155600101612fad565b9092508290612fa4565b601f8111612fda575050565b600090609582527f947035e97d0f7e1937f791bc189f60c984ceaaa7a8494fc67f9f8f4de8ccf2c6906020601f850160051c83019410613035575b601f0160051c01915b82811061302a57505050565b81815560010161301e565b9092508290613015565b90601f821161304c575050565b6001916000908382527fb10e2d527612073b26eecdfd717e6a320cf44b4afac2b0732d9fcbe2b7fa0cf6906020601f850160051c830194106130a9575b601f0160051c01915b82811061309f5750505050565b8181558301613092565b9092508290613089565b90601f81116130c157505050565b600091825260208220906020601f850160051c830194106130fd575b601f0160051c01915b8281106130f257505050565b8181556001016130e6565b90925082906130dd565b9081516001600160401b038111610ddb5761312c816131276094546113e0565b612f5d565b602080601f8311600114613168575081929360009261315d575b50508160011b916000199060031b1c191617609455565b015190503880613146565b90601f1983169461319b60946000527f7047a3cc0a76edcee45792ca71527c753f6167484f14b94c4a3bd2997516725c90565b926000905b8782106131d85750508360019596106131bf575b505050811b01609455565b015160001960f88460031b161c191690553880806131b4565b806001859682949686015181550195019301906131a0565b9081516001600160401b038111610ddb57613215816132106095546113e0565b612fce565b602080601f83116001146132515750819293600092613246575b50508160011b916000199060031b1c191617609555565b01519050388061322f565b90601f1983169461328460956000527f947035e97d0f7e1937f791bc189f60c984ceaaa7a8494fc67f9f8f4de8ccf2c690565b926000905b8782106132c15750508360019596106132a8575b505050811b01609555565b015160001960f88460031b161c1916905538808061329d565b80600185968294968601518155019501930190613289565b9081516001600160401b038111610ddb57600190613300816132fb84546113e0565b61303f565b602080601f831160011461333b575081929394600092613330575b5050600019600383901b1c191690821b179055565b01519050388061331b565b90601f1983169561336e60016000527fb10e2d527612073b26eecdfd717e6a320cf44b4afac2b0732d9fcbe2b7fa0cf690565b926000905b8882106133a95750508385969710613390575b505050811b019055565b015160001960f88460031b161c19169055388080613386565b808785968294968601518155019501930190613373565b91909182516001600160401b038111610ddb576133e7816133e184546113e0565b846130b3565b602080601f8311600114613423575081929394600092613418575b50508160011b916000199060031b1c1916179055565b015190503880613402565b90601f1983169561343985600052602060002090565b926000905b88821061345c5750508360019596971061339057505050811b019055565b8060018596829496860151815501950193019061343e565b81601f820112156103ae5780519161348b83610f24565b926134996040519485610e0f565b808452602092838086019260051b8201019283116103ae578301905b8282106134c3575050505090565b815181529083019083016134b5565b906020828203126103ae5781516001600160401b0381116103ae576105269201613474565b60208082019080835283518092528060408094019401926000905b83821061352157505050505090565b9091929394836101606001926135d6895161354b8382516cffffffffffffffffffffffffff169052565b8085015163ffffffff16838601528087015163ffffffff168388015260608181015161ffff16908401526080818101516001600160a01b03169084015260a0818101519084015260c08082015162ffffff169084015260e081810151151590840152610100818101511515908401526101208181015115159084015261014090810151151590830152565b0196019493920190613512565b90929c95999b9394979a9196989c60018060a01b039d8e7f00000000000000000000000000000000000000000000000000000000000000001630146103ae57608e548f90613639906001600160a01b0316610669565b166103ae5761369f8e6136826136df9961366565ffffffffffff966136fc9e6136c29b6136a59a6150a7565b60018060a01b03166001600160601b0360a01b608f541617608f55565b60018060a01b03166001600160601b0360a01b608e541617608e55565b16609255565b60018060a01b03166001600160601b0360a01b6090541617609055565b60018060a01b03166001600160601b0360a01b6091541617609155565b60018060a01b03166001600160601b0360a01b6096541617609655565b8051613839575b50805161382a575b508381166137be575b506000916137399183604051958680958194638da5e32b60e01b8352600483016134f7565b0393165af1801561070d5761379b575b5080519060005b828110613763575050506106273361579d565b8061379561377360019385612370565b516137906137808461239a565b600052608d602052604060002090565b6133c0565b01613750565b6137b7903d806000833e6137af8183610e0f565b8101906134d2565b5038613749565b91838116803b156103ae5760405163036129cb60e61b81526001600160a01b039490941660048501526000908490602490829084905af191821561070d5760009361373993613811575b50915091613714565b8061381e61382492610de0565b806104c2565b38613808565b613833906131f0565b3861370b565b61384290613107565b38613703565b90816101209103126103ae5761385c610e7d565b90805182526020810151602083015260408101516040830152606081015160608301526080810151608083015260a081015160a083015260c081015160c08301526138a960e082016123fa565b60e0830152610100809101519082015290565b818102929181159184041417156123a857565b608f549091906138e7906001600160a01b0316610669565b600554604080516321d1336160e11b81526004810192909252939161012091908290829060249082905afa91821561070d5761393f9260ff9261010092600092613b7a575b5050015160f41c1660018091811c161490565b613b6957608e54613958906001600160a01b0316610669565b83516304db994760e21b8152306004820152602481018390529290602090849060449082905afa92831561070d57600093613b49575b506001600160a01b03838116600090815260886020526040902090919082906139c790610b7e9086905b90600052602052604060002090565b1615613b19575b608e546139e3906001600160a01b0316610669565b8551635d53f40760e11b8152600481018590526024810183905292906000908490604490829084905af192831561070d57600093613afe575b5060005b828110613aaf575050608e5460009150613a42906001600160a01b0316610669565b94516364faa15960e01b8152306004820152602481018490526000604482015294859060649082905afa90811561070d576080613a909261062796600091613a96575b5001519051906138bc565b916140dd565b613aa9913d8091833e6126598183610e0f565b38613a85565b80613abc60019286612370565b51613ac781896146a2565b88513381528489169188917f031e1988c95a91ec4d655ff63a8f87a80bc9daf28d95ae10ee08c0022cfb5c8b90602090a401613a20565b613b1291933d8091833e6137af8183610e0f565b9138613a1c565b6096546001600160a01b03168381841615613b3e57613b39915b8661400e565b6139ce565b613b39915085613b33565b613b6291935060203d8111611c7757611c698183610e0f565b913861398e565b8251631d2c125760e31b8152600490fd5b613b999250803d10613ba0575b613b918183610e0f565b810190613848565b388061392c565b503d613b87565b613baf615745565b609054613bc4906001600160a01b0316610669565b6005546040805163038ab08560e11b81526004808201939093529092602091908290829060249082905afa90811561070d57600091613e6f575b50613c08816128c9565b60038103613e5f5760935460ff16613e4f57613c23816128c9565b60068114908115613e3b575b50613e2c57608e8054613c4a906001600160a01b0316610669565b845163f1bea54f60e01b81523085820190815290939182918591908290819060200103915afa92831561070d57600093613e0d575b509091600091865191613c90612ba9565b5083945b838610613d075750505050670de0b6b3a7640000915011613cf957507f84aed921cbe73f57f53b582881a8c761484c5bd2881d96558dbc9a20e100a21e91613cf491613ce8600160ff196093541617609355565b51918291339083613e8c565b0390a1565b9051636ff44e9760e01b8152fd5b90919293613d5f6000613d23610669855460018060a01b031690565b613d2d898d612370565b51518b516364faa15960e01b815230818d01908152602081019290925260006040830152938492918391829160600190565b03915afa90811561070d57600091613df4575b50610100810151613de45783815111613de457600191613dc4613dd892613dab6125cd898f8d613da191612370565b51015192516124e1565b90919082549060031b91821b91600019901b1916179055565b85613dcf898d612370565b510151906123ad565b95019493929190613c94565b885163148e14dd60e21b81528890fd5b613e07913d8091833e6126598183610e0f565b38613d72565b81613e259294503d8511610c5957610c4b8183610e0f565b9138613c7f565b509051636fb8407560e01b8152fd5b60059150613e48816128c9565b1438613c2f565b8351633810140760e01b81528390fd5b83516301e7228160e11b81528390fd5b613e869150823d8411610706576106f88183610e0f565b38613bfe565b90929192604080830190808452825180925260608401916020809401916000905b85838310613ec85750505050509360018060a01b0316910152565b84518051875281015181870152948101949093019260019190910190613ead565b908160209103126103ae575161052681610f85565b3561052681610608565b609054613f1d906001600160a01b0316610669565b6005546040805163038ab08560e11b8152600480820193909352939290916020918290869060249082905afa94851561070d57600095613fef575b50613f62856128c9565b6001809503613fe157835193613f76612822565b5060005b858110613f8a5750505050505050565b613f948183612370565b518051613fa9906001600160a01b0316610669565b15613fd157805190850151889291613fcb91906001600160a01b03163361400e565b01613f7a565b85516314f4c13d60e21b81528490fd5b825163f331f3c160e01b8152fd5b614007919550823d8411610706576106f88183610e0f565b9338613f58565b6001600160a01b0390811660008181526088602090815260408083208784528252822080548686166001600160a01b03198216811790925592969195919491939282169291869184847f3134e8a2e6d97e929a7e54011ea5485d7d196dd5f0ba4d4ef95803e8e3fc257f8b80a4608e5416916064604051809481936305c9a1d560e31b835230600484015260248301528860448301525afa94851561070d5761062796956140be575b505061416e565b6140d5929550803d10610c5957610c4b8183610e0f565b9238806140b7565b9061062792916000828152608a6020526140fa84604083206158e7565b506001600160a01b03916040915083831615614153575b80805260886020528181208582526020526141448383832054169460018060a01b03166000526088602052604060002090565b8582526020522054169061416e565b848152608a60205261416786838320615981565b5050614111565b91926001600160a01b0380831693919291908116808514801561428b575b61428357859181614216575b505050826141a7575b50505050565b6001600160a01b031660009081526089602052604090207f26abcd0483bf852c577c9beff4daa5920a203234050413150a0aa946fb598bfa916141f5918560005260205260406000206158e7565b6040805192835260208301919091523390820152606090a3388080806141a1565b6001600160a01b03166000908152608960205260409020826000526020527f26abcd0483bf852c577c9beff4daa5920a203234050413150a0aa946fb598bfa614263856040600020615981565b6040805192835260208301919091523390820152606090a3833880614198565b505050505050565b50831561418c565b608e546001600160a01b0316803b156103ae5760405180926386bc2be360e01b8252602482016020908160048501528251809152816044850193019160005b82811061430257505050509181600081819503925af1801561070d576142f55750565b8061381e61062792610de0565b8351855287955093810193928101926001016142d2565b90608b5415614473575b61432c90612c13565b60405163a9059cbb60e01b8082526001600160a01b0385811660048401526024830185905292949093909160209190828160448160007f00000000000000000000000000000000000000000000000000000000000000008a165af1801561070d57614456575b506040519485526001600160a01b038316600486015260248501869052818560448160007f000000000000000000000000000000000000000000000000000000000000000089165af191821561070d577fa183a623ac9e87a7002f8ccdd81b014fd2212a1a62a3059e097db62cb2df52c99561443393614438575b505060408051918252602082019690965233958101959095529116929081906060820190565b0390a2565b8161444e92903d10610d9657610d888183610e0f565b50388061440d565b61446c90833d8511610d9657610d888183610e0f565b5038614392565b6040516370a0823160e01b8082523060048301526001600160a01b0392916020919082816024817f000000000000000000000000000000000000000000000000000000000000000089165afa91821561070d578391600093614561575b5060405190815230600482015294859060249082907f0000000000000000000000000000000000000000000000000000000000000000165afa801561070d5761432c9461453d93600092614544575b505060801b6fffffffffffffffffffffffffffffffff191617608b55565b9050614323565b61455a9250803d10610c5957610c4b8183610e0f565b388061451f565b614579919350823d8411610c5957610c4b8183610e0f565b91386144d0565b6000908152600260205260409020546001600160a01b031680156145a15790565b60405163b49aa3b560e01b8152600490fd5b6000818152600260205260409020546001600160a01b0316156145a1576000908152600360205260409020546001600160a01b031690565b9291906145f8823361462a565b15610797578361460c838361461197614cb3565b614feb565b1561461857565b6040516336f57c1b60e11b8152600490fd5b6001600160a01b038061463c84614580565b169281831692848414948515614672575b5050831561465c575b50505090565b614668919293506145b3565b1614388080614656565b60009081526004602090815260408083206001600160a01b03949094168352929052205460ff169350388061464d565b9091906001600160a01b038116908115614800576000848152600260205260409020546001600160a01b03166147ee57600084815260026020526040812080546001600160a01b0319166001600160a01b038416179055918490837fddf252ad1be2c89b69c2b068fc378daa952ba7f163c4a11628f55a4df523b3ef8180a4608e5461476b90839061473c906001600160a01b0316610669565b60405163c44a8e6d60e01b81523060048201526024810197909752600060448801529591829081906064820190565b0381885afa90811561070d5783916147d4575b505193803b156147d0576040516330b157e560e21b81526004810195909552600060248601526001600160a01b039190911660448501529192918290606490829084905af1801561070d576142f55750565b8280fd5b6147e891503d8085833e6126598183610e0f565b3861477e565b604051632eb5f0c360e21b8152600490fd5b604051633904578f60e11b8152600490fd5b608e546148609392919061482e906001600160a01b0316610669565b60405163c44a8e6d60e01b81523060048201526024810193909352600060448401819052948590849081906064820190565b0381845afa92831561070d5785936148e3575b508251813b156148df576040516330b157e560e21b815260048101919091526001600160a01b0383166024820152600060448201529394908490606490829084905af192831561070d57610627936148cc575b506149ee565b8061381e6148d992610de0565b386148c6565b8580fd5b6148f89193503d8087833e6126598183610e0f565b9138614873565b608e5461494e949392919061491c906001600160a01b0316610669565b60405163c44a8e6d60e01b81523060048201526024810194909452600060448501819052958690859081906064820190565b0381845afa93841561070d5786946149d2575b508351813b156149ce576040516330b157e560e21b815260048101919091526001600160a01b038381166024830152841660448201529495908590606490829084905af193841561070d57610627946149bb575b50614a5a565b8061381e6149c892610de0565b386149b5565b8680fd5b6149e79194503d8088833e6126598183610e0f565b9238614961565b6001600160a01b0390811691821561287257610627926080825192015192600091838352608a602052614a248560408520615981565b5050825260886020526040822083835260205260408181842054169280805260886020528181208582526020522054169061416e565b6001600160a01b03929083169182156141a157610627936040608084519401519482841615614ab7575b6000908152608860208181528383208784528152838320546001600160a01b039096168352526040812093831693614144565b84600052608a602052614acd8683600020615981565b5050614a84565b614add81614580565b6001600160a01b038116919082614b42575b81600061062794614aff83614ebd565b82825260026020526040822080546001600160a01b03191690557fddf252ad1be2c89b69c2b068fc378daa952ba7f163c4a11628f55a4df523b3ef8280a4614812565b608e54614b57906001600160a01b0316610669565b60405163c44a8e6d60e01b8152306004820152602481018490526000604482018190529091829060649082905afa90811561070d57614ba49161014091600091614c9a575b500151151590565b614c15575b81600061062794614bca610669610b7e85600052608c602052604060002090565b15614bd9575b94505050614aef565b614c1084614bf185600052608c602052604060002090565b80546001600160a01b0319166001600160a01b03909216919091179055565b614bd0565b608f54614c589390614c2f906001600160a01b0316610669565b9060055460405180936321d1336160e11b82528180610120998a95600483019190602083019252565b03915afa90811561070d57610627958593600093614c7c575b505094505050614ba9565b81614c9292903d10613ba057613b918183610e0f565b503880614c71565b614cad913d8091833e6126598183610e0f565b38614b9c565b9190614cbe82614580565b6001600160a01b0380851694918116859003614eab578216938415614e995780614d43575b610627948491614cf283614ebd565b600083815260026020526040902080546001600160a01b0319166001600160a01b0387161790557fddf252ad1be2c89b69c2b068fc378daa952ba7f163c4a11628f55a4df523b3ef600080a46148ff565b608e54614d58906001600160a01b0316610669565b60405163c44a8e6d60e01b8152306004820152602481018690526000604482018190529091829060649082905afa90811561070d57614da49161014091600091614c9a57500151151590565b614df5575b610627948491614dc9610669610b7e85600052608c602052604060002090565b15614dd8575b91509450614ce3565b614df084614bf185600052608c602052604060002090565b614dcf565b608f54614e3690614e0e906001600160a01b0316610669565b60055460405180926321d1336160e11b82528180610120968795600483019190602083019252565b03915afa91821561070d57614e659260ff9261010092600092614e7c575b5050015160f41c1660018091161490565b15614da9576040516318cdaf9760e01b8152600490fd5b614e929250803d10613ba057613b918183610e0f565b3880614e54565b604051632c95542760e01b8152600490fd5b60405163a195bc5360e01b8152600490fd5b600081815260036020526040812080546001600160a01b03191690556001600160a01b03614eea83614580565b167f8c5be1e5ebec7d5bd14f71427d1e84f3dd0314c0f7b2291e5b200ac8c7c3b9258280a4565b600082815260036020526040902080546001600160a01b0319166001600160a01b0383161790556001600160a01b0380614f4a84614580565b169116907f8c5be1e5ebec7d5bd14f71427d1e84f3dd0314c0f7b2291e5b200ac8c7c3b925600080a4565b908160209103126103ae57516105268161039c565b6001600160a01b039182168152911660208201526040810191909152608060608201819052610526929101906104f0565b3d15614fe6573d90614fcc82610e9d565b91614fda6040519384610e0f565b82523d6000602084013e565b606090565b92909190823b1561509e5761501e926020926000604051809681958294630a85bd0160e11b9a8b85523360048601614f8a565b03926001600160a01b03165af16000918161506e575b5061506057615041614fbb565b8051908161505b576040516336f57c1b60e11b8152600490fd5b602001fd5b6001600160e01b0319161490565b61509091925060203d8111615097575b6150888183610e0f565b810190614f75565b9038615034565b503d61507e565b50505050600190565b9192909280516001600160401b038111610ddb576000916150d1826150cc85546113e0565b612eed565b60209081601f841160011461513f575092826151129361511796936106279998968492615134575b50508160011b916000199060031b1c19161790556132d9565b600555565b60018060a01b03166001600160601b0360a01b6006541617600655565b0151905038806150f9565b600080529190601f1984167f290decd9548b62a8d60345a988386fc84ba6bc95484008f6362f93160ef3e5639386905b8282106151b9575050936151179693610627999896936001938361511298106151a0575b505050811b0190556132d9565b015160001960f88460031b161c19169055388080615193565b8060018697829497870151815501960194019061516f565b9160a0838303126103ae57823592602091828201359360408301356151f58161039c565b93606084013561520481610608565b936080810135906001600160401b0382116103ae57019180601f840112156103ae57823561523181610f24565b9361523f6040519586610e0f565b818552838086019260051b8201019283116103ae578301905b828210615266575050505090565b83809161527284610f66565b815201910190615258565b9060925460c0830135036155b8576101e08201604461529c82856127a2565b90501180615581575b6152ae57509050565b6152bb6152c391846127a2565b8101906151d1565b6001600160a01b03918216969450925090508415615554575b815115615542576000808091845197825b89811061532f57505050505050615317929350608061530f6101808401613efe565b920135615644565b61531d57565b604051631b57826960e21b8152600490fd5b8988615350615349615341858c612370565b5161ffff1690565b61ffff1690565b8503615475575b90615386610b7e866139b861536c8b96613efe565b6001600160a01b0316600090815260886020526040902090565b88808616918b8315948515809661546a575b6153ac575b505050505050506001016152ed565b879a9697916153bb8b926124e1565b83109283615444575b5050506000146153ee57505050506001916153de916123ad565b935b905084388088818b8f61539d565b615415955083615437575b50505061541f575b83613a908761540f8c613efe565b936123ad565b60016000936153e0565b615432848461542d8c613efe565b61400e565b615401565b16141590503888816153f9565b61ffff9293506154609161545a6153419261239a565b90612370565b1614888d8b6153c4565b508383161515615398565b505093509061548a6153496153418689612370565b106155305761549f6153496153418588612370565b608e549091906154b7906001600160a01b0316610669565b6040516364faa15960e01b815230600482015260248101849052600060448201819052909591869060649082905afa94851561070d578a615386610b7e866139b8608061536c9b8f97600091615517575b5001519a505050505090615357565b61552a913d8091833e6126598183610e0f565b38615508565b604051639fda363d60e01b8152600490fd5b604051633d04bd1f60e01b8152600490fd5b6096549094506001600160a01b031680851615615572575b936152dc565b5061557c82613efe565b61556c565b5061559561558f82856127a2565b906127e5565b63f6de42df60e01b916001600160e01b0319916155b1916127f6565b16146152a5565b6040516301e73e1760e61b8152600490fd5b91906040838203126103ae5782516001600160401b0381116103ae57602091612ba3918501613474565b929190606084019084526020906060828601528251809152816080860193019160005b82811061562c57505050506040600091930152565b835161ffff1685529381019392810192600101615617565b608e5492939261565c906001600160a01b0316610669565b6040805163eaa19ab360e01b815295600094919285908890818381615685888b600484016155f4565b03925af1801561070d578597869161571d575b50968051955b8681106156ae5750505050505050565b806156bb60019284612370565b516156c681866146a2565b61ffff6156d66153418489612370565b88518a815233602082015260a086901b86900388169391909216917f598baf7bf150ca2f42be9e9f8f55e81d45f5715c3ff22bf46d697fabec7f31d690604090a40161569e565b905061573c9197503d8087833e6157348183610e0f565b8101906155ca565b96909638615698565b6007546001600160a01b0316330361575957565b606460405162461bcd60e51b815260206004820152602060248201527f4f776e61626c653a2063616c6c6572206973206e6f7420746865206f776e65726044820152fd5b600780546001600160a01b039283166001600160a01b0319821681179092559091167f8be0079c531659141344cd1fd0a4f28419497f9722a3daafe3b4186f6b6457e0600080a3565b90438110156158a3576157f890615bab565b815490600063ffffffff8092165b83821061584f575050508061582657505060005b6001600160e01b031690565b61584a91615836615843926124e1565b9060005260206000200190565b5460201c90565b61581a565b9091928083169080841860011c82018092116123a8578560005282856158808460206000200163ffffffff90541690565b1611156158915750925b9190615806565b93925061589d9061239a565b9161588a565b606460405162461bcd60e51b815260206004820152602060248201527f436865636b706f696e74733a20626c6f636b206e6f7420796574206d696e65646044820152fd5b6001600160e01b039291836158fb836159a9565b169081018091116123a85761590f43615bab565b9184821161592c57849283615925931691615a94565b9316921690565b60405162461bcd60e51b815260206004820152602760248201527f53616665436173743a2076616c756520646f65736e27742066697420696e20326044820152663234206269747360c81b6064820152608490fd5b6001600160e01b03929183615995836159a9565b169081039081116123a85761590f43615bab565b8054600091816159bb57505050600090565b6000199282848101116123a85760209181522001015460201c90565b90815468010000000000000000811015610ddb576001810180845581101561236b57600092835260209283902082519284015190931b63ffffffff191663ffffffff9290921691909117910155565b90604051615a3381610dc0565b602081935463ffffffff81168352811c910152565b15615a4f57565b60405162461bcd60e51b815260206004820152601b60248201527f436865636b706f696e743a2064656372656173696e67206b65797300000000006044820152606490fd5b90929192838254801515600014615b8057926020929184615acf615aca615abd612a11986124e1565b8560005260206000200190565b615a26565b93615ade855163ffffffff1690565b615af563ffffffff91828416928391161115615a48565b615b0f615b06875163ffffffff1690565b63ffffffff1690565b03615b4a5750615b3c92615836615b25926124e1565b9063ffffffff82549181199060201b169116179055565b01516001600160e01b031690565b915050615b7b91615b68615b5c610e50565b63ffffffff9093168352565b6001600160e01b038816828601526159d7565b615b3c565b5050615ba591615b91615b5c610e50565b6001600160e01b03851660208301526159d7565b60009190565b63ffffffff90818111615bbc571690565b60405162461bcd60e51b815260206004820152602660248201527f53616665436173743a2076616c756520646f65736e27742066697420696e203360448201526532206269747360d01b6064820152608490fd5b919060001981840981840291828083109203918083039214615c9357670de0b6b3a76400009081831015615c75577faccb18165bd6fe31ae1cf318dc5b51eee0e1ba569b88cd74c1773b91fac1066994950990828211900360ee1b910360121c170290565b6044838360405191631dcf306360e21b835260048301526024820152fd5b5050670de0b6b3a764000090049150565b90916000198383099280830292838086109503948086039514615d3c5782851015615d1c57908291096001821901821680920460028082600302188083028203028083028203028083028203028083028203028083028203028092029003029360018380600003040190848311900302920304170290565b604051631dcf306360e21b81526004810186905260248101849052604490fd5b505090610526925061250f56fea26469706673582212203db33ac41c3a08d4a4d287ccf7f5c3fd13785bfa76819be9826678269670202b64736f6c63430008140033",
    "linkReferences": {}
  },
  "methodIdentifiers": {
    "TOTAL_REDEMPTION_WEIGHT()": "640abacd",
    "amountRedeemed()": "27f6e979",
    "approve(address,uint256)": "095ea7b3",
    "balanceOf(address)": "70a08231",
    "baseProtocolToken()": "1417f9f6",
    "baseURI()": "6c0360eb",
    "codeOrigin()": "1d153ca4",
    "contractURI()": "e8a3d485",
    "defaultAttestationDelegate()": "7f989887",
    "defifaToken()": "3b2b8a78",
    "didPay((address,uint256,uint256,(address,uint256,uint256,uint256),(address,uint256,uint256,uint256),uint256,address,bool,string,bytes))": "da9ee8b7",
    "didRedeem((address,uint256,uint256,uint256,(address,uint256,uint256,uint256),(address,uint256,uint256,uint256),address,string,bytes))": "2b13c58f",
    "directory()": "c41c2f24",
    "firstOwnerOf(uint256)": "54c6d1f5",
    "fundingCycleStore()": "557e7155",
    "gamePhaseReporter()": "a0b6490c",
    "gamePotReporter()": "7245d80c",
    "getApproved(uint256)": "081812fc",
    "getPastTierAttestationUnitsOf(address,uint256,uint256)": "ea1c1b25",
    "getPastTierTotalAttestationUnitsOf(uint256,uint256)": "d9119f5f",
    "getTierAttestationUnitsOf(address,uint256)": "c3c69a96",
    "getTierDelegateOf(address,uint256)": "9c8c6cd5",
    "getTierTotalAttestationUnitsOf(uint256)": "f7623b81",
    "initialize(uint256,address,string,string,address,string,address,string,(uint104,uint32,uint32,uint16,address,bytes32,uint24,bool,bool,bool,bool)[],uint48,address,address,address,address,string[])": "3900c6f9",
    "isApprovedForAll(address,address)": "e985e9c5",
    "mintReservesFor((uint256,uint256)[])": "2a596e53",
    "mintReservesFor(uint256,uint256)": "aa4fb15b",
    "name()": "06fdde03",
    "owner()": "8da5cb5b",
    "ownerOf(uint256)": "6352211e",
    "payParams((address,address,(address,uint256,uint256,uint256),uint256,uint256,address,uint256,uint256,string,bytes))": "d46cf171",
    "pricingCurrency()": "64640c1e",
    "projectId()": "3fafa127",
    "redeemParams((address,address,uint256,uint256,uint256,uint256,uint256,(address,uint256,uint256,uint256),bool,uint256,string,bytes))": "a51cfd18",
    "redemptionWeightIsSet()": "a8c15f4a",
    "redemptionWeightOf(uint256)": "4f228e11",
    "redemptionWeightOf(uint256[],(address,address,uint256,uint256,uint256,uint256,uint256,(address,uint256,uint256,uint256),bool,uint256,string,bytes))": "7ba62bf9",
    "renounceOwnership()": "715018a6",
    "safeTransferFrom(address,address,uint256)": "42842e0e",
    "safeTransferFrom(address,address,uint256,bytes)": "b88d4fde",
    "setApprovalForAll(address,bool)": "a22cb465",
    "setTierDelegateTo(address,uint256)": "07405b24",
    "setTierDelegatesTo((address,uint256)[])": "c90f5126",
    "setTierRedemptionWeightsTo((uint256,uint256)[])": "fadd72b7",
    "store()": "975057e7",
    "supportsInterface(bytes4)": "01ffc9a7",
    "symbol()": "95d89b41",
    "tierNameOf(uint256)": "1baabc3e",
    "tierRedemptionWeights()": "9df45468",
    "tokenAllocations()": "92eb1641",
    "tokenURI(uint256)": "c87b56dd",
    "tokensClaimableFor(uint256[])": "cb7043f7",
    "tokensRedeemedFrom(uint256)": "743682b5",
    "totalRedemptionWeight((address,address,uint256,uint256,uint256,uint256,uint256,(address,uint256,uint256,uint256),bool,uint256,string,bytes))": "9494bf72",
    "transferFrom(address,address,uint256)": "23b872dd",
    "transferOwnership(address)": "f2fde38b"
  },
  "id": 0
}