{
  "abi": [
    {
      "inputs": [],
      "stateMutability": "nonpayable",
      "type": "constructor"
    },
    {
      "inputs": [],
      "name": "ALEADY_MINTED",
      "type": "error"
    },
    {
      "inputs": [],
      "name": "APPROVAL_TO_CURRENT_OWNER",
      "type": "error"
    },
    {
      "inputs": [],
      "name": "APPROVE_TO_CALLER",
      "type": "error"
    },
    {
      "inputs": [],
      "name": "BLOCK_NOT_YET_MINED",
      "type": "error"
    },
    {
      "inputs": [],
      "name": "CALLER_NOT_OWNER_OR_APPROVED",
      "type": "error"
    },
    {
      "inputs": [],
      "name": "DELEGATE_ADDRESS_ZERO",
      "type": "error"
    },
    {
      "inputs": [],
      "name": "GAME_ISNT_OVER_YET",
      "type": "error"
    },
    {
      "inputs": [],
      "name": "INCORRECT_OWNER",
      "type": "error"
    },
    {
      "inputs": [],
      "name": "INVALID_PAYMENT_EVENT",
      "type": "error"
    },
    {
      "inputs": [],
      "name": "INVALID_REDEMPTION_EVENT",
      "type": "error"
    },
    {
      "inputs": [],
      "name": "INVALID_REDEMPTION_METADATA",
      "type": "error"
    },
    {
      "inputs": [],
      "name": "INVALID_REDEMPTION_WEIGHTS",
      "type": "error"
    },
    {
      "inputs": [],
      "name": "INVALID_TIER_ID",
      "type": "error"
    },
    {
      "inputs": [],
      "name": "INVALID_TOKEN_ID",
      "type": "error"
    },
    {
      "inputs": [],
      "name": "MINT_TO_ZERO",
      "type": "error"
    },
    {
      "inputs": [],
      "name": "NOTHING_TO_CLAIM",
      "type": "error"
    },
    {
      "inputs": [],
      "name": "NOTHING_TO_MINT",
      "type": "error"
    },
    {
      "inputs": [],
      "name": "NOT_AVAILABLE",
      "type": "error"
    },
    {
      "inputs": [],
      "name": "OVERSPENDING",
      "type": "error"
    },
    {
      "inputs": [
        {
          "internalType": "uint256",
          "name": "prod1",
          "type": "uint256"
        },
        {
          "internalType": "uint256",
          "name": "denominator",
          "type": "uint256"
        }
      ],
      "name": "PRBMath__MulDivOverflow",
      "type": "error"
    },
    {
      "inputs": [],
      "name": "PRICING_RESOLVER_CHANGES_PAUSED",
      "type": "error"
    },
    {
      "inputs": [],
      "name": "RESERVED_TOKEN_MINTING_PAUSED",
      "type": "error"
    },
    {
      "inputs": [],
      "name": "TRANSFERS_PAUSED",
      "type": "error"
    },
    {
      "inputs": [],
      "name": "TRANSFER_TO_NON_IMPLEMENTER",
      "type": "error"
    },
    {
      "inputs": [],
      "name": "TRANSFER_TO_ZERO_ADDRESS",
      "type": "error"
    },
    {
      "inputs": [],
      "name": "UNAUTHORIZED",
      "type": "error"
    },
    {
      "inputs": [],
      "name": "UNEXPECTED_TOKEN_REDEEMED",
      "type": "error"
    },
    {
      "inputs": [],
      "name": "WRONG_CURRENCY",
      "type": "error"
    },
    {
      "anonymous": false,
      "inputs": [
        {
          "indexed": true,
          "internalType": "uint256",
          "name": "tierId",
          "type": "uint256"
        },
        {
          "components": [
            {
              "internalType": "uint80",
              "name": "contributionFloor",
              "type": "uint80"
            },
            {
              "internalType": "uint48",
              "name": "lockedUntil",
              "type": "uint48"
            },
            {
              "internalType": "uint40",
              "name": "initialQuantity",
              "type": "uint40"
            },
            {
              "internalType": "uint16",
              "name": "votingUnits",
              "type": "uint16"
            },
            {
              "internalType": "uint16",
              "name": "reservedRate",
              "type": "uint16"
            },
            {
              "internalType": "address",
              "name": "reservedTokenBeneficiary",
              "type": "address"
            },
            {
              "internalType": "uint8",
              "name": "royaltyRate",
              "type": "uint8"
            },
            {
              "internalType": "address",
              "name": "royaltyBeneficiary",
              "type": "address"
            },
            {
              "internalType": "bytes32",
              "name": "encodedIPFSUri",
              "type": "bytes32"
            },
            {
              "internalType": "uint8",
              "name": "category",
              "type": "uint8"
            },
            {
              "internalType": "bool",
              "name": "allowManualMint",
              "type": "bool"
            },
            {
              "internalType": "bool",
              "name": "shouldUseReservedTokenBeneficiaryAsDefault",
              "type": "bool"
            },
            {
              "internalType": "bool",
              "name": "shouldUseRoyaltyBeneficiaryAsDefault",
              "type": "bool"
            },
            {
              "internalType": "bool",
              "name": "transfersPausable",
              "type": "bool"
            }
          ],
          "indexed": false,
          "internalType": "struct JB721TierParams",
          "name": "data",
          "type": "tuple"
        },
        {
          "indexed": false,
          "internalType": "address",
          "name": "caller",
          "type": "address"
        }
      ],
      "name": "AddTier",
      "type": "event"
    },
    {
      "anonymous": false,
      "inputs": [
        {
          "indexed": true,
          "internalType": "address",
          "name": "owner",
          "type": "address"
        },
        {
          "indexed": true,
          "internalType": "address",
          "name": "approved",
          "type": "address"
        },
        {
          "indexed": true,
          "internalType": "uint256",
          "name": "tokenId",
          "type": "uint256"
        }
      ],
      "name": "Approval",
      "type": "event"
    },
    {
      "anonymous": false,
      "inputs": [
        {
          "indexed": true,
          "internalType": "address",
          "name": "owner",
          "type": "address"
        },
        {
          "indexed": true,
          "internalType": "address",
          "name": "operator",
          "type": "address"
        },
        {
          "indexed": false,
          "internalType": "bool",
          "name": "approved",
          "type": "bool"
        }
      ],
      "name": "ApprovalForAll",
      "type": "event"
    },
    {
      "anonymous": false,
      "inputs": [
        {
          "indexed": true,
          "internalType": "address",
          "name": "delegator",
          "type": "address"
        },
        {
          "indexed": true,
          "internalType": "address",
          "name": "fromDelegate",
          "type": "address"
        },
        {
          "indexed": true,
          "internalType": "address",
          "name": "toDelegate",
          "type": "address"
        }
      ],
      "name": "DelegateChanged",
      "type": "event"
    },
    {
      "anonymous": false,
      "inputs": [
        {
          "indexed": true,
          "internalType": "uint256",
          "name": "tokenId",
          "type": "uint256"
        },
        {
          "indexed": true,
          "internalType": "uint256",
          "name": "tierId",
          "type": "uint256"
        },
        {
          "indexed": true,
          "internalType": "address",
          "name": "beneficiary",
          "type": "address"
        },
        {
          "indexed": false,
          "internalType": "uint256",
          "name": "totalAmountContributed",
          "type": "uint256"
        },
        {
          "indexed": false,
          "internalType": "address",
          "name": "caller",
          "type": "address"
        }
      ],
      "name": "Mint",
      "type": "event"
    },
    {
      "anonymous": false,
      "inputs": [
        {
          "indexed": true,
          "internalType": "uint256",
          "name": "tokenId",
          "type": "uint256"
        },
        {
          "indexed": true,
          "internalType": "uint256",
          "name": "tierId",
          "type": "uint256"
        },
        {
          "indexed": true,
          "internalType": "address",
          "name": "beneficiary",
          "type": "address"
        },
        {
          "indexed": false,
          "internalType": "address",
          "name": "caller",
          "type": "address"
        }
      ],
      "name": "MintReservedToken",
      "type": "event"
    },
    {
      "anonymous": false,
      "inputs": [
        {
          "indexed": true,
          "internalType": "address",
          "name": "previousOwner",
          "type": "address"
        },
        {
          "indexed": true,
          "internalType": "address",
          "name": "newOwner",
          "type": "address"
        }
      ],
      "name": "OwnershipTransferred",
      "type": "event"
    },
    {
      "anonymous": false,
      "inputs": [
        {
          "indexed": true,
          "internalType": "uint256",
          "name": "tierId",
          "type": "uint256"
        },
        {
          "indexed": false,
          "internalType": "address",
          "name": "caller",
          "type": "address"
        }
      ],
      "name": "RemoveTier",
      "type": "event"
    },
    {
      "anonymous": false,
      "inputs": [
        {
          "indexed": true,
          "internalType": "string",
          "name": "baseUri",
          "type": "string"
        },
        {
          "indexed": false,
          "internalType": "address",
          "name": "caller",
          "type": "address"
        }
      ],
      "name": "SetBaseUri",
      "type": "event"
    },
    {
      "anonymous": false,
      "inputs": [
        {
          "indexed": true,
          "internalType": "string",
          "name": "contractUri",
          "type": "string"
        },
        {
          "indexed": false,
          "internalType": "address",
          "name": "caller",
          "type": "address"
        }
      ],
      "name": "SetContractUri",
      "type": "event"
    },
    {
      "anonymous": false,
      "inputs": [
        {
          "indexed": true,
          "internalType": "address",
          "name": "beneficiary",
          "type": "address"
        },
        {
          "indexed": false,
          "internalType": "address",
          "name": "caller",
          "type": "address"
        }
      ],
      "name": "SetDefaultReservedTokenBeneficiary",
      "type": "event"
    },
    {
      "anonymous": false,
      "inputs": [
        {
          "indexed": true,
          "internalType": "uint256",
          "name": "tierId",
          "type": "uint256"
        },
        {
          "indexed": false,
          "internalType": "bytes32",
          "name": "encodedIPFSUri",
          "type": "bytes32"
        },
        {
          "indexed": false,
          "internalType": "address",
          "name": "caller",
          "type": "address"
        }
      ],
      "name": "SetEncodedIPFSUri",
      "type": "event"
    },
    {
      "anonymous": false,
      "inputs": [
        {
          "indexed": true,
          "internalType": "contract IJBTokenUriResolver",
          "name": "newResolver",
          "type": "address"
        },
        {
          "indexed": false,
          "internalType": "address",
          "name": "caller",
          "type": "address"
        }
      ],
      "name": "SetTokenUriResolver",
      "type": "event"
    },
    {
      "anonymous": false,
      "inputs": [
        {
          "indexed": true,
          "internalType": "address",
          "name": "delegator",
          "type": "address"
        },
        {
          "indexed": true,
          "internalType": "address",
          "name": "fromDelegate",
          "type": "address"
        },
        {
          "indexed": true,
          "internalType": "address",
          "name": "toDelegate",
          "type": "address"
        },
        {
          "indexed": false,
          "internalType": "uint256",
          "name": "tierId",
          "type": "uint256"
        },
        {
          "indexed": false,
          "internalType": "address",
          "name": "caller",
          "type": "address"
        }
      ],
      "name": "TierDelegateChanged",
      "type": "event"
    },
    {
      "anonymous": false,
      "inputs": [
        {
          "indexed": true,
          "internalType": "address",
          "name": "delegate",
          "type": "address"
        },
        {
          "indexed": true,
          "internalType": "uint256",
          "name": "tierId",
          "type": "uint256"
        },
        {
          "indexed": false,
          "internalType": "uint256",
          "name": "previousBalance",
          "type": "uint256"
        },
        {
          "indexed": false,
          "internalType": "uint256",
          "name": "newBalance",
          "type": "uint256"
        },
        {
          "indexed": false,
          "internalType": "address",
          "name": "caller",
          "type": "address"
        }
      ],
      "name": "TierDelegateVotesChanged",
      "type": "event"
    },
    {
      "anonymous": false,
      "inputs": [
        {
          "indexed": true,
          "internalType": "address",
          "name": "from",
          "type": "address"
        },
        {
          "indexed": true,
          "internalType": "address",
          "name": "to",
          "type": "address"
        },
        {
          "indexed": true,
          "internalType": "uint256",
          "name": "tokenId",
          "type": "uint256"
        }
      ],
      "name": "Transfer",
      "type": "event"
    },
    {
      "inputs": [],
      "name": "TOTAL_REDEMPTION_WEIGHT",
      "outputs": [
        {
          "internalType": "uint256",
          "name": "",
          "type": "uint256"
        }
      ],
      "stateMutability": "view",
      "type": "function"
    },
    {
      "inputs": [
        {
          "internalType": "address",
          "name": "to",
          "type": "address"
        },
        {
          "internalType": "uint256",
          "name": "tokenId",
          "type": "uint256"
        }
      ],
      "name": "approve",
      "outputs": [],
      "stateMutability": "nonpayable",
      "type": "function"
    },
    {
      "inputs": [
        {
          "internalType": "address",
          "name": "_owner",
          "type": "address"
        }
      ],
      "name": "balanceOf",
      "outputs": [
        {
          "internalType": "uint256",
          "name": "balance",
          "type": "uint256"
        }
      ],
      "stateMutability": "view",
      "type": "function"
    },
    {
      "inputs": [],
      "name": "codeOrigin",
      "outputs": [
        {
          "internalType": "address",
          "name": "",
          "type": "address"
        }
      ],
      "stateMutability": "view",
      "type": "function"
    },
    {
      "inputs": [],
      "name": "contractURI",
      "outputs": [
        {
          "internalType": "string",
          "name": "",
          "type": "string"
        }
      ],
      "stateMutability": "view",
      "type": "function"
    },
    {
      "inputs": [
        {
          "components": [
            {
              "internalType": "address",
              "name": "payer",
              "type": "address"
            },
            {
              "internalType": "uint256",
              "name": "projectId",
              "type": "uint256"
            },
            {
              "internalType": "uint256",
              "name": "currentFundingCycleConfiguration",
              "type": "uint256"
            },
            {
              "components": [
                {
                  "internalType": "address",
                  "name": "token",
                  "type": "address"
                },
                {
                  "internalType": "uint256",
                  "name": "value",
                  "type": "uint256"
                },
                {
                  "internalType": "uint256",
                  "name": "decimals",
                  "type": "uint256"
                },
                {
                  "internalType": "uint256",
                  "name": "currency",
                  "type": "uint256"
                }
              ],
              "internalType": "struct JBTokenAmount",
              "name": "amount",
              "type": "tuple"
            },
            {
              "components": [
                {
                  "internalType": "address",
                  "name": "token",
                  "type": "address"
                },
                {
                  "internalType": "uint256",
                  "name": "value",
                  "type": "uint256"
                },
                {
                  "internalType": "uint256",
                  "name": "decimals",
                  "type": "uint256"
                },
                {
                  "internalType": "uint256",
                  "name": "currency",
                  "type": "uint256"
                }
              ],
              "internalType": "struct JBTokenAmount",
              "name": "forwardedAmount",
              "type": "tuple"
            },
            {
              "internalType": "uint256",
              "name": "projectTokenCount",
              "type": "uint256"
            },
            {
              "internalType": "address",
              "name": "beneficiary",
              "type": "address"
            },
            {
              "internalType": "bool",
              "name": "preferClaimedTokens",
              "type": "bool"
            },
            {
              "internalType": "string",
              "name": "memo",
              "type": "string"
            },
            {
              "internalType": "bytes",
              "name": "metadata",
              "type": "bytes"
            }
          ],
          "internalType": "struct JBDidPayData",
          "name": "_data",
          "type": "tuple"
        }
      ],
      "name": "didPay",
      "outputs": [],
      "stateMutability": "payable",
      "type": "function"
    },
    {
      "inputs": [
        {
          "components": [
            {
              "internalType": "address",
              "name": "holder",
              "type": "address"
            },
            {
              "internalType": "uint256",
              "name": "projectId",
              "type": "uint256"
            },
            {
              "internalType": "uint256",
              "name": "currentFundingCycleConfiguration",
              "type": "uint256"
            },
            {
              "internalType": "uint256",
              "name": "projectTokenCount",
              "type": "uint256"
            },
            {
              "components": [
                {
                  "internalType": "address",
                  "name": "token",
                  "type": "address"
                },
                {
                  "internalType": "uint256",
                  "name": "value",
                  "type": "uint256"
                },
                {
                  "internalType": "uint256",
                  "name": "decimals",
                  "type": "uint256"
                },
                {
                  "internalType": "uint256",
                  "name": "currency",
                  "type": "uint256"
                }
              ],
              "internalType": "struct JBTokenAmount",
              "name": "reclaimedAmount",
              "type": "tuple"
            },
            {
              "components": [
                {
                  "internalType": "address",
                  "name": "token",
                  "type": "address"
                },
                {
                  "internalType": "uint256",
                  "name": "value",
                  "type": "uint256"
                },
                {
                  "internalType": "uint256",
                  "name": "decimals",
                  "type": "uint256"
                },
                {
                  "internalType": "uint256",
                  "name": "currency",
                  "type": "uint256"
                }
              ],
              "internalType": "struct JBTokenAmount",
              "name": "forwardedAmount",
              "type": "tuple"
            },
            {
              "internalType": "address payable",
              "name": "beneficiary",
              "type": "address"
            },
            {
              "internalType": "string",
              "name": "memo",
              "type": "string"
            },
            {
              "internalType": "bytes",
              "name": "metadata",
              "type": "bytes"
            }
          ],
          "internalType": "struct JBDidRedeemData",
          "name": "_data",
          "type": "tuple"
        }
      ],
      "name": "didRedeem",
      "outputs": [],
      "stateMutability": "payable",
      "type": "function"
    },
    {
      "inputs": [],
      "name": "directory",
      "outputs": [
        {
          "internalType": "contract IJBDirectory",
          "name": "",
          "type": "address"
        }
      ],
      "stateMutability": "view",
      "type": "function"
    },
    {
      "inputs": [
        {
          "internalType": "uint256",
          "name": "_tokenId",
          "type": "uint256"
        }
      ],
      "name": "firstOwnerOf",
      "outputs": [
        {
          "internalType": "address",
          "name": "",
          "type": "address"
        }
      ],
      "stateMutability": "view",
      "type": "function"
    },
    {
      "inputs": [],
      "name": "fundingCycleStore",
      "outputs": [
        {
          "internalType": "contract IJBFundingCycleStore",
          "name": "",
          "type": "address"
        }
      ],
      "stateMutability": "view",
      "type": "function"
    },
    {
      "inputs": [
        {
          "internalType": "uint256",
          "name": "tokenId",
          "type": "uint256"
        }
      ],
      "name": "getApproved",
      "outputs": [
        {
          "internalType": "address",
          "name": "",
          "type": "address"
        }
      ],
      "stateMutability": "view",
      "type": "function"
    },
    {
      "inputs": [
        {
          "internalType": "uint256",
          "name": "_tier",
          "type": "uint256"
        },
        {
          "internalType": "uint256",
          "name": "_blockNumber",
          "type": "uint256"
        }
      ],
      "name": "getPastTierTotalVotes",
      "outputs": [
        {
          "internalType": "uint256",
          "name": "",
          "type": "uint256"
        }
      ],
      "stateMutability": "view",
      "type": "function"
    },
    {
      "inputs": [
        {
          "internalType": "address",
          "name": "_account",
          "type": "address"
        },
        {
          "internalType": "uint256",
          "name": "_tier",
          "type": "uint256"
        },
        {
          "internalType": "uint256",
          "name": "_blockNumber",
          "type": "uint256"
        }
      ],
      "name": "getPastTierVotes",
      "outputs": [
        {
          "internalType": "uint256",
          "name": "",
          "type": "uint256"
        }
      ],
      "stateMutability": "view",
      "type": "function"
    },
    {
      "inputs": [
        {
          "internalType": "address",
          "name": "_account",
          "type": "address"
        },
        {
          "internalType": "uint256",
          "name": "_tier",
          "type": "uint256"
        }
      ],
      "name": "getTierDelegate",
      "outputs": [
        {
          "internalType": "address",
          "name": "",
          "type": "address"
        }
      ],
      "stateMutability": "view",
      "type": "function"
    },
    {
      "inputs": [
        {
          "internalType": "uint256",
          "name": "_tier",
          "type": "uint256"
        }
      ],
      "name": "getTierTotalVotes",
      "outputs": [
        {
          "internalType": "uint256",
          "name": "",
          "type": "uint256"
        }
      ],
      "stateMutability": "view",
      "type": "function"
    },
    {
      "inputs": [
        {
          "internalType": "address",
          "name": "_account",
          "type": "address"
        },
        {
          "internalType": "uint256",
          "name": "_tier",
          "type": "uint256"
        }
      ],
      "name": "getTierVotes",
      "outputs": [
        {
          "internalType": "uint256",
          "name": "",
          "type": "uint256"
        }
      ],
      "stateMutability": "view",
      "type": "function"
    },
    {
      "inputs": [
        {
          "internalType": "uint256",
          "name": "_projectId",
          "type": "uint256"
        },
        {
          "internalType": "contract IJBDirectory",
          "name": "_directory",
          "type": "address"
        },
        {
          "internalType": "string",
          "name": "_name",
          "type": "string"
        },
        {
          "internalType": "string",
          "name": "_symbol",
          "type": "string"
        },
        {
          "internalType": "contract IJBFundingCycleStore",
          "name": "_fundingCycleStore",
          "type": "address"
        },
        {
          "internalType": "string",
          "name": "_baseUri",
          "type": "string"
        },
        {
          "internalType": "contract IJBTokenUriResolver",
          "name": "_tokenUriResolver",
          "type": "address"
        },
        {
          "internalType": "string",
          "name": "_contractUri",
          "type": "string"
        },
        {
          "components": [
            {
              "components": [
                {
                  "internalType": "uint80",
                  "name": "contributionFloor",
                  "type": "uint80"
                },
                {
                  "internalType": "uint48",
                  "name": "lockedUntil",
                  "type": "uint48"
                },
                {
                  "internalType": "uint40",
                  "name": "initialQuantity",
                  "type": "uint40"
                },
                {
                  "internalType": "uint16",
                  "name": "votingUnits",
                  "type": "uint16"
                },
                {
                  "internalType": "uint16",
                  "name": "reservedRate",
                  "type": "uint16"
                },
                {
                  "internalType": "address",
                  "name": "reservedTokenBeneficiary",
                  "type": "address"
                },
                {
                  "internalType": "uint8",
                  "name": "royaltyRate",
                  "type": "uint8"
                },
                {
                  "internalType": "address",
                  "name": "royaltyBeneficiary",
                  "type": "address"
                },
                {
                  "internalType": "bytes32",
                  "name": "encodedIPFSUri",
                  "type": "bytes32"
                },
                {
                  "internalType": "uint8",
                  "name": "category",
                  "type": "uint8"
                },
                {
                  "internalType": "bool",
                  "name": "allowManualMint",
                  "type": "bool"
                },
                {
                  "internalType": "bool",
                  "name": "shouldUseReservedTokenBeneficiaryAsDefault",
                  "type": "bool"
                },
                {
                  "internalType": "bool",
                  "name": "shouldUseRoyaltyBeneficiaryAsDefault",
                  "type": "bool"
                },
                {
                  "internalType": "bool",
                  "name": "transfersPausable",
                  "type": "bool"
                }
              ],
              "internalType": "struct JB721TierParams[]",
              "name": "tiers",
              "type": "tuple[]"
            },
            {
              "internalType": "uint256",
              "name": "currency",
              "type": "uint256"
            },
            {
              "internalType": "uint256",
              "name": "decimals",
              "type": "uint256"
            },
            {
              "internalType": "contract IJBPrices",
              "name": "prices",
              "type": "address"
            }
          ],
          "internalType": "struct JB721PricingParams",
          "name": "_pricing",
          "type": "tuple"
        },
        {
          "internalType": "contract IJBTiered721DelegateStore",
          "name": "_store",
          "type": "address"
        },
        {
          "components": [
            {
              "internalType": "bool",
              "name": "lockReservedTokenChanges",
              "type": "bool"
            },
            {
              "internalType": "bool",
              "name": "lockVotingUnitChanges",
              "type": "bool"
            },
            {
              "internalType": "bool",
              "name": "lockManualMintingChanges",
              "type": "bool"
            },
            {
              "internalType": "bool",
              "name": "preventOverspending",
              "type": "bool"
            }
          ],
          "internalType": "struct JBTiered721Flags",
          "name": "_flags",
          "type": "tuple"
        }
      ],
      "name": "initialize",
      "outputs": [],
      "stateMutability": "nonpayable",
      "type": "function"
    },
    {
      "inputs": [
        {
          "internalType": "address",
          "name": "owner",
          "type": "address"
        },
        {
          "internalType": "address",
          "name": "operator",
          "type": "address"
        }
      ],
      "name": "isApprovedForAll",
      "outputs": [
        {
          "internalType": "bool",
          "name": "",
          "type": "bool"
        }
      ],
      "stateMutability": "view",
      "type": "function"
    },
    {
      "inputs": [
        {
          "components": [
            {
              "internalType": "uint256",
              "name": "tierId",
              "type": "uint256"
            },
            {
              "internalType": "uint256",
              "name": "count",
              "type": "uint256"
            }
          ],
          "internalType": "struct JBTiered721MintReservesForTiersData[]",
          "name": "_mintReservesForTiersData",
          "type": "tuple[]"
        }
      ],
      "name": "mintReservesFor",
      "outputs": [],
      "stateMutability": "nonpayable",
      "type": "function"
    },
    {
      "inputs": [
        {
          "internalType": "uint256",
          "name": "_tierId",
          "type": "uint256"
        },
        {
          "internalType": "uint256",
          "name": "_count",
          "type": "uint256"
        }
      ],
      "name": "mintReservesFor",
      "outputs": [],
      "stateMutability": "nonpayable",
      "type": "function"
    },
    {
      "inputs": [],
      "name": "name",
      "outputs": [
        {
          "internalType": "string",
          "name": "",
          "type": "string"
        }
      ],
      "stateMutability": "view",
      "type": "function"
    },
    {
      "inputs": [],
      "name": "owner",
      "outputs": [
        {
          "internalType": "address",
          "name": "",
          "type": "address"
        }
      ],
      "stateMutability": "view",
      "type": "function"
    },
    {
      "inputs": [
        {
          "internalType": "uint256",
          "name": "tokenId",
          "type": "uint256"
        }
      ],
      "name": "ownerOf",
      "outputs": [
        {
          "internalType": "address",
          "name": "",
          "type": "address"
        }
      ],
      "stateMutability": "view",
      "type": "function"
    },
    {
      "inputs": [
        {
          "components": [
            {
              "internalType": "contract IJBPaymentTerminal",
              "name": "terminal",
              "type": "address"
            },
            {
              "internalType": "address",
              "name": "payer",
              "type": "address"
            },
            {
              "components": [
                {
                  "internalType": "address",
                  "name": "token",
                  "type": "address"
                },
                {
                  "internalType": "uint256",
                  "name": "value",
                  "type": "uint256"
                },
                {
                  "internalType": "uint256",
                  "name": "decimals",
                  "type": "uint256"
                },
                {
                  "internalType": "uint256",
                  "name": "currency",
                  "type": "uint256"
                }
              ],
              "internalType": "struct JBTokenAmount",
              "name": "amount",
              "type": "tuple"
            },
            {
              "internalType": "uint256",
              "name": "projectId",
              "type": "uint256"
            },
            {
              "internalType": "uint256",
              "name": "currentFundingCycleConfiguration",
              "type": "uint256"
            },
            {
              "internalType": "address",
              "name": "beneficiary",
              "type": "address"
            },
            {
              "internalType": "uint256",
              "name": "weight",
              "type": "uint256"
            },
            {
              "internalType": "uint256",
              "name": "reservedRate",
              "type": "uint256"
            },
            {
              "internalType": "string",
              "name": "memo",
              "type": "string"
            },
            {
              "internalType": "bytes",
              "name": "metadata",
              "type": "bytes"
            }
          ],
          "internalType": "struct JBPayParamsData",
          "name": "_data",
          "type": "tuple"
        }
      ],
      "name": "payParams",
      "outputs": [
        {
          "internalType": "uint256",
          "name": "weight",
          "type": "uint256"
        },
        {
          "internalType": "string",
          "name": "memo",
          "type": "string"
        },
        {
          "components": [
            {
              "internalType": "contract IJBPayDelegate",
              "name": "delegate",
              "type": "address"
            },
            {
              "internalType": "uint256",
              "name": "amount",
              "type": "uint256"
            }
          ],
          "internalType": "struct JBPayDelegateAllocation[]",
          "name": "delegateAllocations",
          "type": "tuple[]"
        }
      ],
      "stateMutability": "view",
      "type": "function"
    },
    {
      "inputs": [],
      "name": "pricingCurrency",
      "outputs": [
        {
          "internalType": "uint256",
          "name": "",
          "type": "uint256"
        }
      ],
      "stateMutability": "view",
      "type": "function"
    },
    {
      "inputs": [],
      "name": "projectId",
      "outputs": [
        {
          "internalType": "uint256",
          "name": "",
          "type": "uint256"
        }
      ],
      "stateMutability": "view",
      "type": "function"
    },
    {
      "inputs": [
        {
          "components": [
            {
              "internalType": "contract IJBPaymentTerminal",
              "name": "terminal",
              "type": "address"
            },
            {
              "internalType": "address",
              "name": "holder",
              "type": "address"
            },
            {
              "internalType": "uint256",
              "name": "projectId",
              "type": "uint256"
            },
            {
              "internalType": "uint256",
              "name": "currentFundingCycleConfiguration",
              "type": "uint256"
            },
            {
              "internalType": "uint256",
              "name": "tokenCount",
              "type": "uint256"
            },
            {
              "internalType": "uint256",
              "name": "totalSupply",
              "type": "uint256"
            },
            {
              "internalType": "uint256",
              "name": "overflow",
              "type": "uint256"
            },
            {
              "components": [
                {
                  "internalType": "address",
                  "name": "token",
                  "type": "address"
                },
                {
                  "internalType": "uint256",
                  "name": "value",
                  "type": "uint256"
                },
                {
                  "internalType": "uint256",
                  "name": "decimals",
                  "type": "uint256"
                },
                {
                  "internalType": "uint256",
                  "name": "currency",
                  "type": "uint256"
                }
              ],
              "internalType": "struct JBTokenAmount",
              "name": "reclaimAmount",
              "type": "tuple"
            },
            {
              "internalType": "bool",
              "name": "useTotalOverflow",
              "type": "bool"
            },
            {
              "internalType": "uint256",
              "name": "redemptionRate",
              "type": "uint256"
            },
            {
              "internalType": "string",
              "name": "memo",
              "type": "string"
            },
            {
              "internalType": "bytes",
              "name": "metadata",
              "type": "bytes"
            }
          ],
          "internalType": "struct JBRedeemParamsData",
          "name": "_data",
          "type": "tuple"
        }
      ],
      "name": "redeemParams",
      "outputs": [
        {
          "internalType": "uint256",
          "name": "reclaimAmount",
          "type": "uint256"
        },
        {
          "internalType": "string",
          "name": "memo",
          "type": "string"
        },
        {
          "components": [
            {
              "internalType": "contract IJBRedemptionDelegate",
              "name": "delegate",
              "type": "address"
            },
            {
              "internalType": "uint256",
              "name": "amount",
              "type": "uint256"
            }
          ],
          "internalType": "struct JBRedemptionDelegateAllocation[]",
          "name": "delegateAllocations",
          "type": "tuple[]"
        }
      ],
      "stateMutability": "view",
      "type": "function"
    },
    {
      "inputs": [
        {
          "internalType": "uint256",
          "name": "_tokenId",
          "type": "uint256"
        }
      ],
      "name": "redemptionWeightOf",
      "outputs": [
        {
          "internalType": "uint256",
          "name": "",
          "type": "uint256"
        }
      ],
      "stateMutability": "view",
      "type": "function"
    },
    {
      "inputs": [
        {
          "internalType": "uint256[]",
          "name": "_tokenIds",
          "type": "uint256[]"
        },
        {
          "components": [
            {
              "internalType": "contract IJBPaymentTerminal",
              "name": "terminal",
              "type": "address"
            },
            {
              "internalType": "address",
              "name": "holder",
              "type": "address"
            },
            {
              "internalType": "uint256",
              "name": "projectId",
              "type": "uint256"
            },
            {
              "internalType": "uint256",
              "name": "currentFundingCycleConfiguration",
              "type": "uint256"
            },
            {
              "internalType": "uint256",
              "name": "tokenCount",
              "type": "uint256"
            },
            {
              "internalType": "uint256",
              "name": "totalSupply",
              "type": "uint256"
            },
            {
              "internalType": "uint256",
              "name": "overflow",
              "type": "uint256"
            },
            {
              "components": [
                {
                  "internalType": "address",
                  "name": "token",
                  "type": "address"
                },
                {
                  "internalType": "uint256",
                  "name": "value",
                  "type": "uint256"
                },
                {
                  "internalType": "uint256",
                  "name": "decimals",
                  "type": "uint256"
                },
                {
                  "internalType": "uint256",
                  "name": "currency",
                  "type": "uint256"
                }
              ],
              "internalType": "struct JBTokenAmount",
              "name": "reclaimAmount",
              "type": "tuple"
            },
            {
              "internalType": "bool",
              "name": "useTotalOverflow",
              "type": "bool"
            },
            {
              "internalType": "uint256",
              "name": "redemptionRate",
              "type": "uint256"
            },
            {
              "internalType": "string",
              "name": "memo",
              "type": "string"
            },
            {
              "internalType": "bytes",
              "name": "metadata",
              "type": "bytes"
            }
          ],
          "internalType": "struct JBRedeemParamsData",
          "name": "",
          "type": "tuple"
        }
      ],
      "name": "redemptionWeightOf",
      "outputs": [
        {
          "internalType": "uint256",
          "name": "cumulativeWeight",
          "type": "uint256"
        }
      ],
      "stateMutability": "view",
      "type": "function"
    },
    {
      "inputs": [],
      "name": "renounceOwnership",
      "outputs": [],
      "stateMutability": "nonpayable",
      "type": "function"
    },
    {
      "inputs": [
        {
          "internalType": "uint256",
          "name": "_tokenId",
          "type": "uint256"
        },
        {
          "internalType": "uint256",
          "name": "_salePrice",
          "type": "uint256"
        }
      ],
      "name": "royaltyInfo",
      "outputs": [
        {
          "internalType": "address",
          "name": "",
          "type": "address"
        },
        {
          "internalType": "uint256",
          "name": "",
          "type": "uint256"
        }
      ],
      "stateMutability": "view",
      "type": "function"
    },
    {
      "inputs": [
        {
          "internalType": "address",
          "name": "from",
          "type": "address"
        },
        {
          "internalType": "address",
          "name": "to",
          "type": "address"
        },
        {
          "internalType": "uint256",
          "name": "tokenId",
          "type": "uint256"
        }
      ],
      "name": "safeTransferFrom",
      "outputs": [],
      "stateMutability": "nonpayable",
      "type": "function"
    },
    {
      "inputs": [
        {
          "internalType": "address",
          "name": "from",
          "type": "address"
        },
        {
          "internalType": "address",
          "name": "to",
          "type": "address"
        },
        {
          "internalType": "uint256",
          "name": "tokenId",
          "type": "uint256"
        },
        {
          "internalType": "bytes",
          "name": "data",
          "type": "bytes"
        }
      ],
      "name": "safeTransferFrom",
      "outputs": [],
      "stateMutability": "nonpayable",
      "type": "function"
    },
    {
      "inputs": [
        {
          "internalType": "address",
          "name": "operator",
          "type": "address"
        },
        {
          "internalType": "bool",
          "name": "approved",
          "type": "bool"
        }
      ],
      "name": "setApprovalForAll",
      "outputs": [],
      "stateMutability": "nonpayable",
      "type": "function"
    },
    {
      "inputs": [
        {
          "internalType": "string",
          "name": "_baseUri",
          "type": "string"
        }
      ],
      "name": "setBaseUri",
      "outputs": [],
      "stateMutability": "pure",
      "type": "function"
    },
    {
      "inputs": [
        {
          "internalType": "string",
          "name": "_contractUri",
          "type": "string"
        }
      ],
      "name": "setContractUri",
      "outputs": [],
      "stateMutability": "pure",
      "type": "function"
    },
    {
      "inputs": [
        {
          "internalType": "address",
          "name": "_delegatee",
          "type": "address"
        },
        {
          "internalType": "uint256",
          "name": "_tierId",
          "type": "uint256"
        }
      ],
      "name": "setTierDelegate",
      "outputs": [],
      "stateMutability": "nonpayable",
      "type": "function"
    },
    {
      "inputs": [
        {
          "components": [
            {
              "internalType": "address",
              "name": "delegatee",
              "type": "address"
            },
            {
              "internalType": "uint256",
              "name": "tierId",
              "type": "uint256"
            }
          ],
          "internalType": "struct JBTiered721SetTierDelegatesData[]",
          "name": "_setTierDelegatesData",
          "type": "tuple[]"
        }
      ],
      "name": "setTierDelegates",
      "outputs": [],
      "stateMutability": "nonpayable",
      "type": "function"
    },
    {
      "inputs": [
        {
          "components": [
            {
              "internalType": "uint256",
              "name": "id",
              "type": "uint256"
            },
            {
              "internalType": "uint256",
              "name": "redemptionWeight",
              "type": "uint256"
            }
          ],
          "internalType": "struct DefifaTierRedemptionWeight[]",
          "name": "_tierWeights",
          "type": "tuple[]"
        }
      ],
      "name": "setTierRedemptionWeights",
      "outputs": [],
      "stateMutability": "nonpayable",
      "type": "function"
    },
    {
      "inputs": [
        {
          "internalType": "contract IJBTokenUriResolver",
          "name": "_tokenUriResolver",
          "type": "address"
        }
      ],
      "name": "setTokenUriResolver",
      "outputs": [],
      "stateMutability": "pure",
      "type": "function"
    },
    {
      "inputs": [],
      "name": "store",
      "outputs": [
        {
          "internalType": "contract IJBTiered721DelegateStore",
          "name": "",
          "type": "address"
        }
      ],
      "stateMutability": "view",
      "type": "function"
    },
    {
      "inputs": [
        {
          "internalType": "bytes4",
          "name": "_interfaceId",
          "type": "bytes4"
        }
      ],
      "name": "supportsInterface",
      "outputs": [
        {
          "internalType": "bool",
          "name": "",
          "type": "bool"
        }
      ],
      "stateMutability": "view",
      "type": "function"
    },
    {
      "inputs": [],
      "name": "symbol",
      "outputs": [
        {
          "internalType": "string",
          "name": "",
          "type": "string"
        }
      ],
      "stateMutability": "view",
      "type": "function"
    },
    {
      "inputs": [],
      "name": "tierRedemptionWeights",
      "outputs": [
        {
          "internalType": "uint256[128]",
          "name": "",
          "type": "uint256[128]"
        }
      ],
      "stateMutability": "view",
      "type": "function"
    },
    {
      "inputs": [
        {
          "internalType": "uint256",
          "name": "_tokenId",
          "type": "uint256"
        }
      ],
      "name": "tokenURI",
      "outputs": [
        {
          "internalType": "string",
          "name": "",
          "type": "string"
        }
      ],
      "stateMutability": "view",
      "type": "function"
    },
    {
      "inputs": [
        {
          "components": [
            {
              "internalType": "contract IJBPaymentTerminal",
              "name": "terminal",
              "type": "address"
            },
            {
              "internalType": "address",
              "name": "holder",
              "type": "address"
            },
            {
              "internalType": "uint256",
              "name": "projectId",
              "type": "uint256"
            },
            {
              "internalType": "uint256",
              "name": "currentFundingCycleConfiguration",
              "type": "uint256"
            },
            {
              "internalType": "uint256",
              "name": "tokenCount",
              "type": "uint256"
            },
            {
              "internalType": "uint256",
              "name": "totalSupply",
              "type": "uint256"
            },
            {
              "internalType": "uint256",
              "name": "overflow",
              "type": "uint256"
            },
            {
              "components": [
                {
                  "internalType": "address",
                  "name": "token",
                  "type": "address"
                },
                {
                  "internalType": "uint256",
                  "name": "value",
                  "type": "uint256"
                },
                {
                  "internalType": "uint256",
                  "name": "decimals",
                  "type": "uint256"
                },
                {
                  "internalType": "uint256",
                  "name": "currency",
                  "type": "uint256"
                }
              ],
              "internalType": "struct JBTokenAmount",
              "name": "reclaimAmount",
              "type": "tuple"
            },
            {
              "internalType": "bool",
              "name": "useTotalOverflow",
              "type": "bool"
            },
            {
              "internalType": "uint256",
              "name": "redemptionRate",
              "type": "uint256"
            },
            {
              "internalType": "string",
              "name": "memo",
              "type": "string"
            },
            {
              "internalType": "bytes",
              "name": "metadata",
              "type": "bytes"
            }
          ],
          "internalType": "struct JBRedeemParamsData",
          "name": "",
          "type": "tuple"
        }
      ],
      "name": "totalRedemptionWeight",
      "outputs": [
        {
          "internalType": "uint256",
          "name": "",
          "type": "uint256"
        }
      ],
      "stateMutability": "view",
      "type": "function"
    },
    {
      "inputs": [
        {
          "internalType": "address",
          "name": "from",
          "type": "address"
        },
        {
          "internalType": "address",
          "name": "to",
          "type": "address"
        },
        {
          "internalType": "uint256",
          "name": "tokenId",
          "type": "uint256"
        }
      ],
      "name": "transferFrom",
      "outputs": [],
      "stateMutability": "nonpayable",
      "type": "function"
    },
    {
      "inputs": [
        {
          "internalType": "address",
          "name": "newOwner",
          "type": "address"
        }
      ],
      "name": "transferOwnership",
      "outputs": [],
      "stateMutability": "nonpayable",
      "type": "function"
    }
  ],
  "bytecode": {
    "object": "0x608080604052346100665760078054336001600160a01b03198083168217909355906001600160a01b03167f8be0079c531659141344cd1fd0a4f28419497f9722a3daafe3b4186f6b6457e0600080a33090608d541617608d5561582390816200006c8239f35b600080fdfe60806040526004361015610013575b600080fd5b60003560e01c806301ffc9a7146103ca57806306fdde03146103c1578063081812fc146103b8578063095ea7b3146103af5780631d153ca4146103a657806323b872dd1461039d5780632407497e146103945780632a55205a1461038b5780632a596e53146103825780632b13c58f146103795780632f441500146103705780633fafa1271461036757806342842e0e1461035e5780634f228e111461035557806354c6d1f51461034c578063557e7155146103435780636352211e1461033a578063640abacd1461033157806364640c1e1461032857806370a082311461031f578063715018a6146103165780637ba62bf91461030d57806382732b6d146103045780638da5cb5b146102fb5780639494bf72146102f257806394c5c5ca146102e957806395d89b41146102e0578063975057e7146102d75780639df45468146102ce578063a0bcfc7f14610274578063a22cb465146102c5578063a51cfd18146102bc578063aa4fb15b146102b3578063ab951e39146102aa578063b88d4fde146102a1578063c41c2f2414610298578063c74b13d91461028f578063c87b56dd14610286578063ca323efe1461027d578063ccb4807b14610274578063d1704baf1461026b578063d31cc52c14610262578063d40e714614610259578063d46cf17114610250578063da9ee8b714610247578063e8a3d4851461023e578063e985e9c5146102355763f2fde38b1461022d57600080fd5b61000e612254565b5061000e6121e9565b5061000e612144565b5061000e61201d565b5061000e611f60565b5061000e611ea4565b5061000e611e75565b5061000e611dab565b5061000e6115a3565b5061000e611a93565b5061000e61194c565b5061000e611899565b5061000e611871565b5061000e611808565b5061000e61177b565b5061000e61175b565b5061000e6116d0565b5061000e611601565b5061000e61151d565b5061000e6114f5565b5061000e61144f565b5061000e611412565b5061000e6113f4565b5061000e6113cc565b5061000e61137e565b5061000e611326565b5061000e61126b565b5061000e6111b3565b5061000e611194565b5061000e611174565b5061000e611155565b5061000e61112d565b5061000e61110e565b5061000e6110e7565b5061000e61109f565b5061000e611080565b5061000e610fec565b5061000e610a7b565b5061000e6109bb565b5061000e6108e7565b5061000e6108ca565b5061000e610895565b5061000e610841565b5061000e610753565b5061000e610705565b5061000e610625565b5061000e6103e5565b6001600160e01b031981160361000e57565b503461000e57602060031936011261000e5761044e6001600160e01b031960043561040f816103d3565b167f7e7145bb000000000000000000000000000000000000000000000000000000008114908115610452575b5060405190151581529081906020820190565b0390f35b63b3bcbb7960e01b811491508115610594575b811561056a575b8115610540575b8115610516575b8115610488575b503861043b565b7f80ac58cd000000000000000000000000000000000000000000000000000000008114915081156104ec575b81156104c2575b5038610481565b7f01ffc9a700000000000000000000000000000000000000000000000000000000915014386104bb565b7f5b5e139f00000000000000000000000000000000000000000000000000000000811491506104b4565b7f2a55205a000000000000000000000000000000000000000000000000000000008114915061047a565b7f2b13c58f0000000000000000000000000000000000000000000000000000000081149150610473565b7fda9ee8b7000000000000000000000000000000000000000000000000000000008114915061046c565b7f71700c690000000000000000000000000000000000000000000000000000000081149150610465565b600091031261000e57565b60005b8381106105dc5750506000910152565b81810151838201526020016105cc565b90601f19601f60209361060a815180928187528780880191016105c9565b0116010190565b9060206106229281815201906105ec565b90565b503461000e57600080600319360112610702576040519080805461064881613bd0565b808552916001918083169081156106d8575060011461067e575b61044e8561067281870382610f0c565b60405191829182610611565b80809450527f290decd9548b62a8d60345a988386fc84ba6bc95484008f6362f93160ef3e5635b8284106106c05750505081016020016106728261044e610662565b805460208587018101919091529093019281016106a5565b86955061044e9693506020925061067294915060ff191682840152151560051b8201019293610662565b80fd5b503461000e57602060031936011261000e576020610724600435613c0a565b6001600160a01b0360405191168152f35b6001600160a01b0381160361000e57565b359061075182610735565b565b503461000e57604060031936011261000e5760043561077181610735565b6024356001600160a01b038061078683613b86565b168091841614610817578033141590816107d5575b506107ab576107a991614765565b005b60046040517fe5fa0e35000000000000000000000000000000000000000000000000000000008152fd5b9050600052600460205261081161080d610806336040600020906001600160a01b0316600052602052604060002090565b5460ff1690565b1590565b3861079b565b60046040517f133f8be9000000000000000000000000000000000000000000000000000000008152fd5b503461000e57600060031936011261000e5760206001600160a01b03608d5416604051908152f35b600319606091011261000e5760043561088181610735565b9060243561088e81610735565b9060443590565b503461000e576108a436610869565b906108af8233613ca0565b156107ab576107a992614442565b60c4359061075182610735565b503461000e57602060031936011261000e576107a9600435610735565b503461000e5760408060031936011261000e576064816001600160a01b03608e54168151928380927f538bd5ea000000000000000000000000000000000000000000000000000000008252306004830152600435602483015260243560448301525afa9182156109ae575b6000918293610979575b50516001600160a01b039190911681526020810191909152604090f35b8161099f92945061044e93503d85116109a7575b6109978183610f0c565b810190612420565b92909161095c565b503d61098d565b6109b661235b565b610952565b503461000e5760208060031936011261000e576004359067ffffffffffffffff9081831161000e573660238401121561000e57826004013591821161000e57602490600693368385871b8301011161000e5760005b848110610a1957005b600190610a3b610a2f3687848b1b870101610fa5565b85815191015190613463565b01610a10565b90816101e091031261000e5790565b602060031982011261000e576004359067ffffffffffffffff821161000e5761062291600401610a41565b50610a8536610a50565b3415801590610dc8575b8015610db8575b610d8e5760a0810135908115610d64576101c081016024610ab782846127e3565b9050108015610d2e575b610d0457610ad2610ada91836127e3565b8101906128d7565b9150508051610b32610b03610af7608f546001600160a01b031690565b6001600160a01b031690565b93600554604095865180916321d1336160e11b825261012092839181806004998a988983019190602083019252565b03915afa918215610cf7575b600092610cca575b505051149460005b848110610b7a578787610b6088613ad9565b610b6657005b610b756107a9916088546124ce565b608855565b610b84818761247f565b51610ba9610b9c826000526002602052604060002090565b546001600160a01b031690565b6001600160a01b03610bbd610af7876133db565b911603610ca257908188610bd26001946141c7565b610bde575b5001610b4e565b610c5b90610bf7610af7608e546001600160a01b031690565b87865180927f42f9914b0000000000000000000000000000000000000000000000000000000082528180610c35602097889683019190602083019252565b03915afa918215610c95575b600092610c68575b50506000526089602052604060002090565b8054600101905538610bd7565b610c879250803d10610c8e575b610c7f8183610f0c565b81019061243f565b3880610c49565b503d610c75565b610c9d61235b565b610c41565b8483517f075fd2b1000000000000000000000000000000000000000000000000000000008152fd5b610ce99250803d10610cf0575b610ce18183610f0c565b810190612912565b3880610b46565b503d610cd7565b610cff61235b565b610b3e565b60046040517f2a84050f000000000000000000000000000000000000000000000000000000008152fd5b5063b3bcbb7960e01b6001600160e01b0319610d5c610d56610d5085876127e3565b90612834565b90612856565b161415610ac1565b60046040517f76914729000000000000000000000000000000000000000000000000000000008152fd5b60046040517f7df94b86000000000000000000000000000000000000000000000000000000008152fd5b5060055460208201351415610a96565b50610e296020610de3610af76006546001600160a01b031690565b6005546040517f6e49181f000000000000000000000000000000000000000000000000000000008152600481019190915233602482015292839190829081906044820190565b03915afa908115610e72575b600091610e44575b5015610a8f565b610e65915060203d8111610e6b575b610e5d8183610f0c565b8101906133c6565b38610e3d565b503d610e53565b610e7a61235b565b610e35565b50634e487b7160e01b600052604160045260246000fd5b6040810190811067ffffffffffffffff821117610eb257604052565b610eba610e7f565b604052565b6080810190811067ffffffffffffffff821117610eb257604052565b67ffffffffffffffff8111610eb257604052565b611000810190811067ffffffffffffffff821117610eb257604052565b90601f601f19910116810190811067ffffffffffffffff821117610eb257604052565b604051906101c0820182811067ffffffffffffffff821117610eb257604052565b6040519061075182610e96565b60405190610120820182811067ffffffffffffffff821117610eb257604052565b60209067ffffffffffffffff8111610f98575b60051b0190565b610fa0610e7f565b610f91565b919082604091031261000e576040516040810181811067ffffffffffffffff821117610fdf575b6040526020808294803584520135910152565b610fe7610e7f565b610fcc565b503461000e5760208060031936011261000e576004359067ffffffffffffffff821161000e573660238301121561000e5781600401359161102c83610f7e565b9160409361103c85519485610f0c565b80845260248285019160061b8401019236841161000e57602401905b838210611068576107a985613139565b8286916110753685610fa5565b815201910190611058565b503461000e57600060031936011261000e576020600554604051908152f35b503461000e576107a96110b136610869565b90604051926020840184811067ffffffffffffffff8211176110da575b60405260008452613c49565b6110e2610e7f565b6110ce565b503461000e57602060031936011261000e576020611106600435612651565b604051908152f35b503461000e57602060031936011261000e576020610724600435612388565b503461000e57600060031936011261000e5760206001600160a01b03608f5416604051908152f35b503461000e57602060031936011261000e576020610724600435613b86565b503461000e57600060031936011261000e576020604051633b9aca008152f35b503461000e57600060031936011261000e576020609054604051908152f35b503461000e57602060031936011261000e5761044e6004356111d481610735565b60206001600160a01b03604481608e54169360405194859384927ff7888aec0000000000000000000000000000000000000000000000000000000084523060048501521660248301525afa90811561125e575b600091611240575b506040519081529081906020820190565b611258915060203d8111610c8e57610c7f8183610f0c565b3861122f565b61126661235b565b611227565b503461000e57600080600319360112610702576112866151f2565b806001600160a01b036007546001600160a01b03198116600755167f8be0079c531659141344cd1fd0a4f28419497f9722a3daafe3b4186f6b6457e08280a380f35b81601f8201121561000e578035916112df83610f7e565b926112ed6040519485610f0c565b808452602092838086019260051b82010192831161000e578301905b828210611317575050505090565b81358152908301908301611309565b503461000e57604060031936011261000e5767ffffffffffffffff60043581811161000e576113599036906004016112c8565b9060243590811161000e57602091611378611106923690600401610a41565b506124db565b503461000e57604060031936011261000e57602060043561139e81610735565b6001600160a01b03809116600052608a82526040600020602435600052825260406000205416604051908152f35b503461000e57600060031936011261000e5760206001600160a01b0360075416604051908152f35b503461000e5761140336610a50565b506020604051633b9aca008152f35b503461000e57602060031936011261000e57600435600052608c60205260206001600160e01b036114466040600020615485565b16604051908152f35b503461000e57600080600319360112610702576040519080600180549161147583613bd0565b808652928281169081156106d8575060011461149b5761044e8561067281870382610f0c565b92508083527fb10e2d527612073b26eecdfd717e6a320cf44b4afac2b0732d9fcbe2b7fa0cf65b8284106114dd5750505081016020016106728261044e610662565b805460208587018101919091529093019281016114c2565b503461000e57600060031936011261000e5760206001600160a01b03608e5416604051908152f35b503461000e57600060031936011261000e5760405161153b81610eef565b611000809136903760405160086000825b6080821061158d5750505061156081610eef565b60405190600090825b6080831061157657505050f35b600190825181526020809101920192019190611569565b600160208192855481520193019101909161154c565b503461000e57602060031936011261000e5760043567ffffffffffffffff80821161000e573660238301121561000e57816004013590811161000e573691016024011161000e57005b8015150361000e57565b3590610751826115ec565b503461000e57604060031936011261000e5760043561161f81610735565b60243561162b816115ec565b6001600160a01b038216918233146116a657611667903360005260046020526040600020906001600160a01b0316600052602052604060002090565b9015159060ff1981541660ff83161790556040519081527f17307eab39ab6107e8899845ad3d59bd9653f200f220920489ca2b5937696c3160203392a3005b60046040517f0df0273a000000000000000000000000000000000000000000000000000000008152fd5b503461000e576116e76116e236610a50565b612986565b60409291928051938493845261170960209160608387015260608601906105ec565b90848203838601528080855193848152019401926000905b83821061172e5786860387f35b845180516001600160a01b0316875283015186840152879650948501949382019360019190910190611721565b503461000e57604060031936011261000e576107a9602435600435613463565b503461000e57604060031936011261000e576107a960043561179c81610735565b6024359033613822565b601f19601f60209267ffffffffffffffff81116117c4575b01160190565b6117cc610e7f565b6117be565b9291926117dd826117a6565b916117eb6040519384610f0c565b82948184528183011161000e578281602093846000960137010152565b503461000e57608060031936011261000e5760043561182681610735565b60243561183281610735565b6064359167ffffffffffffffff831161000e573660238401121561000e576118676107a99336906024816004013591016117d1565b9160443591613c49565b503461000e57600060031936011261000e5760206001600160a01b0360065416604051908152f35b503461000e5760208060031936011261000e576004359067ffffffffffffffff821161000e573660238301121561000e578160040135916118d983610f7e565b916040936118e985519485610f0c565b80845260248285019160061b8401019236841161000e57602401905b838210611915576107a9856133e5565b858236031261000e57828691825161192c81610e96565b843561193781610735565b81528285013583820152815201910190611905565b503461000e57602060031936011261000e5761044e611976610af7608e546001600160a01b031690565b6040517f0fab094700000000000000000000000000000000000000000000000000000000815230600482015290602090829060249082905afa908115611a86575b600091611a58575b50600060405180927fda0544aa000000000000000000000000000000000000000000000000000000008252816001600160a01b0381611a08600435600483019190602083019252565b0392165afa908115611a4b575b600091611a2a575b5060405191829182610611565b611a45913d8091833e611a3d8183610f0c565b8101906122fc565b38611a1d565b611a5361235b565b611a15565b611a79915060203d8111611a7f575b611a718183610f0c565b810190612373565b386119bf565b503d611a67565b611a8e61235b565b6119b7565b503461000e57604060031936011261000e576001600160a01b03600435611ab981610735565b16600052608b602052604060002060243560005260205260206001600160e01b036114466040600020615485565b6024359061075182610735565b9080601f8301121561000e57816020610622933591016117d1565b6084359061075182610735565b359069ffffffffffffffffffff8216820361000e57565b359065ffffffffffff8216820361000e57565b359064ffffffffff8216820361000e57565b359061ffff8216820361000e57565b359060ff8216820361000e57565b919091608090818185031261000e576040805192611b9284610ebf565b8395833567ffffffffffffffff811161000e57840181601f8201121561000e57803590611bbe82610f7e565b92611bcb86519485610f0c565b82845260209485850191866101c08096028501019381851161000e578701925b848410611c1e5750505092875250505080830135908401528082013590830152606090611c19908201610746565b910152565b858483031261000e57878691611c32610f2f565b611c3b87611b1c565b8152611c48838801611b33565b83820152611c578c8801611b46565b8c8201526060611c68818901611b58565b90820152611c77868801611b58565b8682015260a0611c88818901610746565b9082015260c0611c99818901611b67565b9082015260e0611caa818901610746565b908201526101008088013590820152610120611cc7818901611b67565b90820152610140611cd98189016115f6565b90820152610160611ceb8189016115f6565b90820152610180611cfd8189016115f6565b908201526101a0611d0f8189016115f6565b90820152815201930192611beb565b610124359061075182610735565b7ffffffffffffffffffffffffffffffffffffffffffffffffffffffffffffffebc608091011261000e5760405190611d6382610ebf565b8161014435611d71816115ec565b815261016435611d80816115ec565b602082015261018435611d92816115ec565b604082015260606101a43591611da7836115ec565b0152565b503461000e576101c060031936011261000e57611dc6611ae7565b60443567ffffffffffffffff9182821161000e57611de960049236908401611af4565b60643584811161000e57611e009036908501611af4565b611e08611b0f565b60a43586811161000e57611e1f9036908701611af4565b611e276108bd565b9160e43588811161000e57611e3f9036908901611af4565b936101043598891161000e57611e5b6107a99936908a01611b75565b95611e64611d1e565b97611e6e36611d2c565b9935612d9d565b503461000e57604060031936011261000e57600435600052608c60205260206111066024356040600020615292565b503461000e57606060031936011261000e576001600160a01b03600435611eca81610735565b16600052608b602052604060002060243560005260205260206111066044356040600020615292565b91908252611f0d60209160608385015260608401906105ec565b90604092838184039101528080855193848152019401926000905b838210611f3757505050505090565b845180516001600160a01b03168752830151868401529485019493820193600190910190611f28565b503461000e576020600319818136011261000e576004359067ffffffffffffffff821161000e576101a090823603011261000e57611faf611fa86101648301836004016127e3565b36916117d1565b60405190611fbc82610e96565b6001825260005b84811061200757509061044e91610124946000611fde610f50565b30815291820152611fee83612465565b52611ff882612465565b50604051948594013584611ef3565b8490612011612882565b82828601015201611fc3565b5060031960208136011261000e576004359067ffffffffffffffff821161000e5761020090823603011261000e576005543415908115916120aa575b811561209b575b50612071576107a990600401614cb6565b60046040517fc715ec6c000000000000000000000000000000000000000000000000000000008152fd5b90506024820135141538612060565b90506120c1610af76006546001600160a01b031690565b6040517f6e49181f0000000000000000000000000000000000000000000000000000000081526004810183905233602482015290602090829060449082905afa908115612137575b600091612119575b501590612059565b612131915060203d8111610e6b57610e5d8183610f0c565b38612111565b61213f61235b565b612109565b503461000e576000806003193601126107025780602461044e926001600160a01b03608e5416604051928380927faab0cd800000000000000000000000000000000000000000000000000000000082523060048301525afa9182156121dc575b80926121c1575b50506040519182916020835260208301906105ec565b6121d592503d8091833e611a3d8183610f0c565b38806121ab565b6121e461235b565b6121a4565b503461000e57604060031936011261000e57602060ff61224860043561220e81610735565b6001600160a01b036024359161222383610735565b16600052600484526040600020906001600160a01b0316600052602052604060002090565b54166040519015158152f35b503461000e57602060031936011261000e5760043561227281610735565b61227a6151f2565b6001600160a01b03811615612292576107a99061524a565b608460405162461bcd60e51b815260206004820152602660248201527f4f776e61626c653a206e6577206f776e657220697320746865207a65726f206160448201527f64647265737300000000000000000000000000000000000000000000000000006064820152fd5b60208183031261000e5780519067ffffffffffffffff821161000e570181601f8201121561000e57805161232f816117a6565b9261233d6040519485610f0c565b8184526020828401011161000e5761062291602080850191016105c9565b506040513d6000823e3d90fd5b519061075182610735565b9081602091031261000e575161062281610735565b608e546040516308ed6c0160e41b8152306004820152602481018390526001600160a01b0392916020908290604490829087165afa908115612413575b6000916123f5575b508281166123ef57506123ea906000526002602052604060002090565b541690565b91505090565b61240d915060203d8111611a7f57611a718183610f0c565b386123cd565b61241b61235b565b6123c5565b919082604091031261000e576020825161243981610735565b92015190565b9081602091031261000e575190565b50634e487b7160e01b600052603260045260246000fd5b602090805115612473570190565b61247b61244e565b0190565b6020918151811015612494575b60051b010190565b61249c61244e565b61248c565b50634e487b7160e01b600052601160045260246000fd5b90600182018092116124c657565b6107516124a1565b919082018092116124c657565b9060009180516000915b8183106124f157505050565b90919360019061250a612504878561247f565b51612651565b810180911161251d575b940191906124e5565b6125256124a1565b612514565b5190610751826115ec565b90816101c091031261000e57612549610f2f565b90805182526020810151602083015260408101516040830152606081015160608301526080810151608083015260a081015160a083015260c081015160c083015261259660e08201612368565b60e083015261010080820151908301526101206125b4818301612368565b90830152610140808201519083015261016080820151908301526101806125dc81830161252a565b908301526125ee6101a080920161252a565b9082015290565b9060001982019182116124c657565b919082039182116124c657565b6080811015612624575b60080190600090565b61262c61244e565b61261b565b811561263b570490565b634e487b7160e01b600052601260045260246000fd5b6126a4602061266b610af7608e546001600160a01b031690565b92604051809381927f42f9914b000000000000000000000000000000000000000000000000000000008352600483019190602083019252565b0381855afa9081156127d6575b6000916127b8575b50604051633a39e4d160e11b8152306004820152602481018290526101c0928390829060449082905afa9283156127ab575b60009361277c575b5050612713612709612704836125f5565b612611565b90549060031b1c90565b90811561277457608083019061273160608351950194855190612604565b1561276b5761275e61274d610622956127659451905190612604565b916000526089602052604060002090565b54906124ce565b90612631565b50505050600090565b505050600090565b61279c929350803d106127a4575b6127948183610f0c565b810190612535565b9038806126f3565b503d61278a565b6127b361235b565b6126eb565b6127d0915060203d8111610c8e57610c7f8183610f0c565b386126b9565b6127de61235b565b6126b1565b9035907fffffffffffffffffffffffffffffffffffffffffffffffffffffffffffffffe18136030182121561000e570180359067ffffffffffffffff821161000e5760200191813603831361000e57565b9060241161000e5760200190600490565b9060441161000e5760400190600490565b6001600160e01b0319903581811693926004811061287357505050565b60040360031b82901b16169150565b6040519061288f82610e96565b60006020838281520152565b604051906128a882610e96565b600182528160005b602090818110156128d2576020916128c6612882565b908285010152016128b0565b505050565b9160608383031261000e5782359260208101356128f3816103d3565b92604082013567ffffffffffffffff811161000e5761062292016112c8565b908161012091031261000e57612926610f5d565b90805182526020810151602083015260408101516040830152606081015160608301526080810151608083015260a081015160a083015260c081015160c083015261297360e08201612368565b60e0830152610100809101519082015290565b9060009060006080840135612bd4576101c0928385019360246129a986886127e3565b9050108015612baa575b610d04576129bf61289b565b946129f4610ad26129ce610f50565b3081529260209387858201526129e38a612465565b526129ed89612465565b50896127e3565b95915050612a0d610af7608f546001600160a01b031690565b92604089815180966321d1336160e11b82526101209788918180612a3d8860049801358883019190602083019252565b03915afa968715612b9d575b8597612b7e575b5050600180965114612a9c5750505050505050611fa8612a8c612a9892612a86612a8060885460c08a01356124ce565b916124db565b90615748565b946101a08101906127e3565b9190565b959996939291908451948397612abd610af7608e546001600160a01b031690565b915b878a10612ae25750505050505050505050611fa8816101a0612a989301906127e3565b9091929394959697899d88612b2c88612afc859e8761247f565b5189518093819263b67cb04760e01b8352308b8401602090939291936001600160a01b0360408201951681520152565b03818a5afa908115612b71575b8a91612b54575b500151019d01989796959493929190612abf565b612b6b9150893d8b116127a4576127948183610f0c565b38612b40565b612b7961235b565b612b39565b612b95929750803d10610cf057610ce18183610f0c565b943880612a50565b612ba561235b565b612a49565b5063b3bcbb7960e01b6001600160e01b0319612bcc610d56610d50898b6127e3565b1614156129b3565b60046040517f4fc178d8000000000000000000000000000000000000000000000000000000008152fd5b81601f8201121561000e57805191612c1583610f7e565b92612c236040519485610f0c565b808452602092838086019260051b82010192831161000e578301905b828210612c4d575050505090565b81518152908301908301612c3f565b9060208282031261000e57815167ffffffffffffffff811161000e576106229201612bfe565b60208082019080835283518092528060408094019401926000905b838210612cac57505050505090565b9091929394836101c0600192612d908951612cd383825169ffffffffffffffffffff169052565b8085015165ffffffffffff16838601528087015164ffffffffff168388015260608181015161ffff169084015260808181015161ffff169084015260a0818101516001600160a01b03169084015260c08181015160ff169084015260e0818101516001600160a01b03169084015261010081810151908401526101208082015160ff16908401526101408181015115159084015261016081810151151590840152610180818101511515908401526101a090810151151590830152565b0196019493920190612c9d565b909298979694939198612dbb610af7608d546001600160a01b031690565b301461000e576001600160a01b03998a612de0610af7608e546001600160a01b031690565b1661000e57612e0e94612df293614930565b6001600160a01b03166001600160a01b0319608f541617608f55565b612e2e856001600160a01b03166001600160a01b0319608e541617608e55565b612e3b6020850151609055565b80516130c1575b508051613049575b50838116612fce575b50518051612f51575b50825115158015612f44575b8015612f37575b8015612f2a575b612e87575b5050506107513361524a565b16803b1561000e57604080517fcb827e320000000000000000000000000000000000000000000000000000000081528351151560048201526020840151151560248201529083015115156044820152606090920151151560648301526000908290608490829084905af18015612f1d575b612f04575b8080612e7b565b80612f11612f1792610edb565b806105be565b38612efd565b612f2561235b565b612ef8565b5060608301511515612e76565b5060408301511515612e6f565b5060208301511515612e68565b6000612f8a91604051809381927f453b5abe00000000000000000000000000000000000000000000000000000000835260048301612c82565b0381838787165af18015612fc1575b15612e5c57612fba903d806000833e612fb28183610f0c565b810190612c5c565b5038612e5c565b612fc961235b565b612f99565b838316803b1561000e576040517fd84a72c00000000000000000000000000000000000000000000000000000000081526001600160a01b039290921660048301526000908290602490829084905af1801561303c575b15612e535780612f1161303692610edb565b38612e53565b61304461235b565b613024565b848416803b1561000e576130916000929183926040519485809481937fd67b78fd00000000000000000000000000000000000000000000000000000000835260048301610611565b03925af180156130b4575b15612e4a5780612f116130ae92610edb565b38612e4a565b6130bc61235b565b61309c565b858516803b1561000e576131096000929183926040519485809481937f6262bcb200000000000000000000000000000000000000000000000000000000835260048301610611565b03925af1801561312c575b15612e425780612f1161312692610edb565b38612e42565b61313461235b565b613114565b613189906131456151f2565b61315a610af7608f546001600160a01b031690565b90600554604092835180916321d1336160e11b8252610120928391818060049a8b988983019190602083019252565b03915afa918215613375575b600092613358575b50505110613331576131ad613382565b6131c2610af7608e546001600160a01b031690565b82517ff1bea54f0000000000000000000000000000000000000000000000000000000081523085820190815290916020918291849182908190850103915afa918215613324575b600092613305575b50909160009181519183945b83861061325e5750505050633b9aca00915011613238575050565b517f6ff44e97000000000000000000000000000000000000000000000000000000008152fd5b909192938161326d878561247f565b5151116132dd576132d16001916132bd866132888a8861247f565b5101516132a261270461329b8c8a61247f565b51516125f5565b90919082549060031b600019811b9283911b16911916179055565b856132c8898761247f565b510151906124ce565b9501949392919061321d565b8787517f52385374000000000000000000000000000000000000000000000000000000008152fd5b8161331d9293503d8411610c8e57610c7f8183610f0c565b9038613211565b61332c61235b565b613209565b50517ff8228d40000000000000000000000000000000000000000000000000000000008152fd5b61336e9250803d10610cf057610ce18183610f0c565b388061319d565b61337d61235b565b613195565b60085b608881106133905750565b60008155600101613385565b8181106133a7575050565b6000815560010161339c565b818102929181159184041417156124c657565b9081602091031261000e5751610622816115ec565b3561062281610735565b8051906133f0612882565b5060005b82811061340057505050565b61340a818361247f565b51906001600160a01b038083511615613439578260206134339260019551169101519033613822565b016133f4565b60046040517f53d304f4000000000000000000000000000000000000000000000000000000008152fd5b91909161347b610af7608f546001600160a01b031690565b906134d960ff6101006134b260055495604096875180926321d1336160e11b82528180610120968795600483019190602083019252565b03915afa918215613815575b6000926137f8575b5050015160f41c1660018091811c161490565b6137cf576134f2610af7608e546001600160a01b031690565b82517f136e651c000000000000000000000000000000000000000000000000000000008152306004820152602481018390529490602090869060449082905afa9485156137c2575b6000956137a2575b50613576610b9c83613567886001600160a01b0316600052608a602052604060002090565b90600052602052604060002090565b6001600160a01b0391828216159081613733575b61359f610af7608e546001600160a01b031690565b86517fbaa7e80e000000000000000000000000000000000000000000000000000000008152600481018790526024810183905294906000908690604490829084905af1948515613726575b60009561370b575b5060005b8281106136bc5750505095610751959661361b610af7608e546001600160a01b031690565b9551633a39e4d160e11b8152306004820152602481018690526101c0968790829060449082905afa9687156136af575b600097613681575b5050916020916136739493156000146136795750945b01519051906133b3565b9161391a565b905094613669565b613673959492975060209391816136a392903d106127a4576127948183610f0c565b96919394819350613653565b6136b761235b565b61364b565b808a886136cb6001948a61247f565b516136d68184613d21565b8b51338152928616927f031e1988c95a91ec4d655ff63a8f87a80bc9daf28d95ae10ee08c0022cfb5c8b90602090a4016135f6565b61371f91953d8091833e612fb28183610f0c565b93386135f2565b61372e61235b565b6135ea565b6137738861375887613567836001600160a01b0316600052608a602052604060002090565b906001600160a01b03166001600160a01b0319825416179055565b8388166000817f3134e8a2e6d97e929a7e54011ea5485d7d196dd5f0ba4d4ef95803e8e3fc257f8280a461358a565b6137bb91955060203d8111611a7f57611a718183610f0c565b9338613542565b6137ca61235b565b61353a565b600482517fe96092b8000000000000000000000000000000000000000000000000000000008152fd5b61380e9250803d10610cf057610ce18183610f0c565b38806134c6565b61381d61235b565b6134be565b6001600160a01b039081166000818152608a602090815260408083208784528252822080548686166001600160a01b03198216179091556107519692959294929390831692909190819080861685857f3134e8a2e6d97e929a7e54011ea5485d7d196dd5f0ba4d4ef95803e8e3fc257f8b80a4608e5416926064604051809581937f2e4d0ea800000000000000000000000000000000000000000000000000000000835230600484015260248301528960448301525afa95861561390d575b956138ee575b50506139ab565b613905929550803d10610c8e57610c7f8183610f0c565b9238806138e7565b61391561235b565b6138e1565b9061075192916000828152608c60205261393784604083206153a0565b505060406001600160a01b039182841615613990575b808052608a602052818120858252602052613981838383205416946001600160a01b0316600052608a602052604060002090565b858252602052205416906139ab565b848152608c6020526139a48683832061545d565b505061394d565b9192906001600160a01b03928382169381168481148015613ad1575b613ac957859181613a56575b505050826139e2575b50505050565b7fed0c1e94c302bdbbd8bbd6a4fb7c3ed335c2292407cd816eadd075d019d0ce0491613a24613a35926001600160a01b0316600052608b602052604060002090565b8560005260205260406000206153a0565b6040805192835260208301919091523390820152606090a3388080806139dc565b613a73906001600160a01b0316600052608b602052604060002090565b826000526020527fed0c1e94c302bdbbd8bbd6a4fb7c3ed335c2292407cd816eadd075d019d0ce04613aa985604060002061545d565b6040805192835260208301919091523390820152606090a38338806139d3565b505050505050565b5083156139c7565b6001600160a01b03608e5416803b1561000e5760405180927f86bc2be3000000000000000000000000000000000000000000000000000000008252602482016020908160048501528251809152816044850193019160005b828110613b6f57505050509181600081819503925af18015613b62575b613b555750565b80612f1161075192610edb565b613b6a61235b565b613b4e565b835185528795509381019392810192600101613b31565b60005260026020526001600160a01b03604060002054168015613ba65790565b60046040517fb49aa3b5000000000000000000000000000000000000000000000000000000008152fd5b90600182811c92168015613c00575b6020831014613bea57565b634e487b7160e01b600052602260045260246000fd5b91607f1691613bdf565b613c2a8160005260026020526001600160a01b0360406000205416151590565b15613ba65760005260036020526001600160a01b036040600020541690565b929190613c568233613ca0565b156107ab5783613c6a8383613c6f97614442565b614843565b15613c7657565b60046040517f6deaf836000000000000000000000000000000000000000000000000000000008152fd5b6001600160a01b0380613cb284613b86565b169281831692848414948515613ce8575b50508315613cd2575b50505090565b613cde91929350613c0a565b1614388080613ccc565b60ff92955090613d179160005260046020526040600020906001600160a01b0316600052602052604060002090565b5416923880613cc3565b9190916001600160a01b038116908115613eb157613d558460005260026020526001600160a01b0360406000205416151590565b613e8757836000928184526002602052613d888360408620906001600160a01b03166001600160a01b0319825416179055565b837fddf252ad1be2c89b69c2b068fc378daa952ba7f163c4a11628f55a4df523b3ef8180a4613df2613dc5610af7608e546001600160a01b031690565b60405163b67cb04760e01b81523060048201526024810196909652946101c0918290829081906044820190565b0381895afa918215613e7a575b8492613e5d575b50505193803b15613e59576040516330b157e560e21b81526004810195909552600060248601526001600160a01b039190911660448501529192918290606490829084905af18015613b6257613b555750565b8280fd5b613e739250803d106127a4576127948183610f0c565b3880613e06565b613e8261235b565b613dff565b60046040517fbad7c30c000000000000000000000000000000000000000000000000000000008152fd5b60046040517f7208af1e000000000000000000000000000000000000000000000000000000008152fd5b613f2190613ef4610af7608e546001600160a01b031690565b60405163b67cb04760e01b81523060048201526024810194909452926101c0928390829081906044820190565b0381875afa928315613fce575b600093613faf575b50508151833b1561000e576040516330b157e560e21b815260048101919091526001600160a01b0382166024820152600060448201819052610751948290606490829084905af18015613fa2575b613f8f575b506140de565b80612f11613f9c92610edb565b38613f89565b613faa61235b565b613f84565b613fc6929350803d106127a4576127948183610f0c565b903880613f36565b613fd661235b565b613f2e565b9061402291613ff5610af7608e546001600160a01b031690565b60405163b67cb04760e01b81523060048201526024810195909552936101c0938490829081906044820190565b0381885afa9384156140d1575b6000946140b2575b50508251843b1561000e576040516330b157e560e21b815260048101919091526001600160a01b03828116602483015283166044820152610751946000908290606490829084905af180156140a5575b614092575b5061414a565b80612f1161409f92610edb565b3861408c565b6140ad61235b565b614087565b6140c9929450803d106127a4576127948183610f0c565b913880614037565b6140d961235b565b61402f565b6001600160a01b038091169182156128d2576107519260a0825192015192600091838352608c602052614114856040852061545d565b50508252608a60205260408220838352602052604081818420541692808052608a602052818120858252602052205416906139ab565b916001600160a01b038093169182156139dc5761075193604060a0845194015194828416156141aa575b6000908152608a602052818120858252602052613981838383205416946001600160a01b0316600052608a602052604060002090565b84600052608c6020526141c0868360002061545d565b5050614174565b6141d081613b86565b906001600160a01b03918281169283614238575b50816000610751946141f58361470f565b8282526002602052604082206001600160a01b031981541690557fddf252ad1be2c89b69c2b068fc378daa952ba7f163c4a11628f55a4df523b3ef8280a4613edb565b61424d610af7608e546001600160a01b031690565b60405163b67cb04760e01b81523060048201526024810185905290919061429c906101a0906101c090818180604481015b0381895afa918215614435575b600092614418575b50500151151590565b614396575b6040516308ed6c0160e41b815230600482015260248101859052602081604481865afa908115614389575b60009161436b575b50166141e45792833b1561000e576040517f8cec7d39000000000000000000000000000000000000000000000000000000008152600481018490526001600160a01b0383166024820152610751948492600092909183908290604490829084905af1801561435e575b61434b575b509450506141e4565b80612f1161435892610edb565b38614342565b61436661235b565b61433d565b614383915060203d8111611a7f57611a718183610f0c565b386142d4565b61439161235b565b6142cc565b6143d66143ae610af7608f546001600160a01b031690565b60055460405180926321d1336160e11b82528180610120968795600483019190602083019252565b03915afa801561440b575b6143ed575b50506142a1565b8161440392903d10610cf057610ce18183610f0c565b5038806143e6565b61441361235b565b6143e1565b61442e9250803d106127a4576127948183610f0c565b3880614293565b61443d61235b565b61428b565b919061444d82613b86565b6001600160a01b03808516949181168590036146e5578083169081156146bb57856144da575b508390610751956144838361470f565b8260005260026020526144b0856040600020906001600160a01b03166001600160a01b0319825416179055565b7fddf252ad1be2c89b69c2b068fc378daa952ba7f163c4a11628f55a4df523b3ef600080a4613fdb565b6144ef610af7608e546001600160a01b031690565b60405163b67cb04760e01b815230600482015260248101879052909190614524906101a0906101c0908181806044810161427e565b61461d575b6040516308ed6c0160e41b815230600482015260248101879052602081604481865afa908115614610575b6000916145f2575b50166144735790813b1561000e576040517f8cec7d39000000000000000000000000000000000000000000000000000000008152600481018690526001600160a01b03841660248201526107519686939091906000908290604490829084905af180156145e5575b6145d2575b50955090614473565b80612f116145df92610edb565b386145c9565b6145ed61235b565b6145c4565b61460a915060203d8111611a7f57611a718183610f0c565b3861455c565b61461861235b565b614554565b61466260ff61010061463d6143ae610af7608f546001600160a01b031690565b03915afa9182156146ae575b600092614691575b5050015160f41c1660018091161490565b156145295760046040517f18cdaf97000000000000000000000000000000000000000000000000000000008152fd5b6146a79250803d10610cf057610ce18183610f0c565b3880614651565b6146b661235b565b614649565b60046040517f2c955427000000000000000000000000000000000000000000000000000000008152fd5b60046040517fa195bc53000000000000000000000000000000000000000000000000000000008152fd5b80600052600360205260406000206001600160a01b0319815416905560006001600160a01b0361473e83613b86565b167f8c5be1e5ebec7d5bd14f71427d1e84f3dd0314c0f7b2291e5b200ac8c7c3b9258280a4565b816000526003602052614792816040600020906001600160a01b03166001600160a01b0319825416179055565b6001600160a01b03806147a484613b86565b169116907f8c5be1e5ebec7d5bd14f71427d1e84f3dd0314c0f7b2291e5b200ac8c7c3b925600080a4565b9081602091031261000e5751610622816103d3565b909261062294936080936001600160a01b038092168452166020830152604082015281606082015201906105ec565b3d1561483e573d90614824826117a6565b916148326040519384610f0c565b82523d6000602084013e565b606090565b92909190823b15614927576148979260209260006001600160a01b036040518097819682957f150b7a02000000000000000000000000000000000000000000000000000000009b8c855233600486016147e4565b0393165af1600091816148f7575b506148e9576148b2614813565b805190816148e45760046040517f6deaf836000000000000000000000000000000000000000000000000000000008152fd5b602001fd5b6001600160e01b0319161490565b61491991925060203d8111614920575b6149118183610f0c565b8101906147cf565b90386148a5565b503d614907565b50505050600190565b91929092805167ffffffffffffffff8111614a5a575b60009161495c826149578554613bd0565b614a67565b60209081601f84116001146149c85750928261499c936149a1969361075199989684926149bd575b50506000198260011b9260031b1c1916179055614b1d565b600555565b6001600160a01b03166001600160a01b03196006541617600655565b015190503880614984565b600080529190601f1984167f290decd9548b62a8d60345a988386fc84ba6bc95484008f6362f93160ef3e5639386905b828210614a42575050936149a19693610751999896936001938361499c9810614a29575b505050811b019055614b1d565b015160001960f88460031b161c19169055388080614a1c565b806001869782949787015181550196019401906149f8565b614a62610e7f565b614946565b90601f8211614a74575050565b61075191600080527f290decd9548b62a8d60345a988386fc84ba6bc95484008f6362f93160ef3e563906020601f840160051c83019310614abd575b601f0160051c019061339c565b9091508190614ab0565b90601f8211614ad4575050565b6107519160016000527fb10e2d527612073b26eecdfd717e6a320cf44b4afac2b0732d9fcbe2b7fa0cf6906020601f840160051c83019310614abd57601f0160051c019061339c565b90815167ffffffffffffffff8111614c05575b600190614b4681614b418454613bd0565b614ac7565b602080601f8311600114614b80575081929394600092614b75575b505060001982841b9260031b1c1916179055565b015190503880614b61565b90601f19831695614bb360016000527fb10e2d527612073b26eecdfd717e6a320cf44b4afac2b0732d9fcbe2b7fa0cf690565b926000905b888210614bee5750508385969710614bd5575b505050811b019055565b015160001960f88460031b161c19169055388080614bcb565b808785968294968601518155019501930190614bb8565b614c0d610e7f565b614b30565b9160a08383031261000e5782359260209182820135936040830135614c36816103d3565b9360608401359360808101359067ffffffffffffffff821161000e57019180601f8401121561000e578235614c6a81610f7e565b93614c786040519586610f0c565b818552838086019260051b82010192831161000e578301905b828210614c9f575050505090565b838091614cab84611b58565b815201910190614c91565b9060905460c083013503615025576101e082016044614cd582856127e3565b90501180614fdd575b614ce757509050565b614cf4614cfc91846127e3565b810190614c12565b959350915050835115614fb3576000908015614fac576001600160a01b03915016925b600093848095835192825b848110614d83575050505050614d539293506080614d4b61018084016133db565b9201356150ca565b614d5957565b60046040517f6d5e09a4000000000000000000000000000000000000000000000000000000008152fd5b614da2614d9b614d93838961247f565b5161ffff1690565b61ffff1690565b8303614eed575b88614dd6610b9c85613567614dbd8c6133db565b6001600160a01b0316600052608a602052604060002090565b6001600160a01b03898186168015928b8b85158096614ee2575b614e05575b5050505050505050600101614d2a565b91888b809897969593614e1c9b9e9a9b8d966125f5565b83109283614ebc575b505050600014614e535750505050505050600191614e42916124ce565b935b90508838808981808b8b614df5565b91848792819594614e829b9792614eaf575b5050614e96575b505050600014614e8c57613673915085936124ce565b6001600093614e44565b61367391936124ce565b614ea2614ea7936133db565b613822565b8b8488614e6c565b8816141590503880614e65565b61ffff929350614ed891614ed2614d93926124b8565b9061247f565b1614878f8e614e25565b508287161515614df0565b97509050614f01614d9b614d93898761247f565b9060a0614f64614f1c610af7608e546001600160a01b031690565b614f29614d938c8a61247f565b6040518092633a39e4d160e11b825281806101c0968795306004840190929161ffff6020916001600160a01b03604085019616845216910152565b03915afa918215614f9f575b600092614f82575b5050015197614da9565b614f989250803d106127a4576127948183610f0c565b3880614f78565b614fa761235b565b614f70565b5092614d1f565b60046040517f3d04bd1f000000000000000000000000000000000000000000000000000000008152fd5b507f7e7145bb000000000000000000000000000000000000000000000000000000006001600160e01b031961501e610d5661501885886127e3565b90612845565b1614614cde565b60046040517f79cf85c0000000000000000000000000000000000000000000000000000000008152fd5b919060408382031261000e57825167ffffffffffffffff811161000e57602091612439918501612bfe565b929190606084019084526020906060828601528251809152816080860193019160005b8281106150b257505050506040600091930152565b835161ffff168552938101939281019260010161509d565b9291926150e2610af7608e546001600160a01b031690565b9160409081519586947feaa19ab30000000000000000000000000000000000000000000000000000000086526000958691818381615124888b6004840161507a565b03925af180156151e5575b859786916151bd575b50968051955b86811061514e5750505050505050565b8061515b6001928461247f565b516151668186613d21565b61ffff615176614d93848961247f565b88518a81523360208201526001600160a01b0388169391909216917f598baf7bf150ca2f42be9e9f8f55e81d45f5715c3ff22bf46d697fabec7f31d690604090a40161513e565b90506151dc9197503d8087833e6151d48183610f0c565b81019061504f565b96909638615138565b6151ed61235b565b61512f565b6001600160a01b0360075416330361520657565b606460405162461bcd60e51b815260206004820152602060248201527f4f776e61626c653a2063616c6c6572206973206e6f7420746865206f776e65726044820152fd5b600754906001600160a01b0380911691826001600160a01b0319821617600755167f8be0079c531659141344cd1fd0a4f28419497f9722a3daafe3b4186f6b6457e0600080a3565b904381101561535c576152a4906156cd565b90805491600063ffffffff8092165b8482106152fa57505050816152ca57506000919050565b6152ef6152f6916152e26001600160e01b03946125f5565b9060005260206000200190565b5460201c90565b1690565b9091938083169080841860011c820180921161534f575b84600052828661532c8460206000200163ffffffff90541690565b16111561533d5750935b91906152b3565b949250615349906124b8565b91615336565b6153576124a1565b615311565b606460405162461bcd60e51b815260206004820152602060248201527f436865636b706f696e74733a20626c6f636b206e6f7420796574206d696e65646044820152fd5b6001600160e01b039291836153b483615485565b16908101809111615450575b6153c9436156cd565b918482116153e6578492836153df9316916155b3565b9316921690565b608460405162461bcd60e51b815260206004820152602760248201527f53616665436173743a2076616c756520646f65736e27742066697420696e203260448201527f32342062697473000000000000000000000000000000000000000000000000006064820152fd5b6154586124a1565b6153c0565b6001600160e01b0392918361547183615485565b16908103908111615450576153c9436156cd565b805460008161549657505050600090565b6020906000199383858101116154b3575b81522001015460201c90565b6154bb6124a1565b6154a7565b906001600160e01b0360206107519380549068010000000000000000821015615539575b6001820180825582101561552c575b60005281600020019263ffffffff81511663ffffffff1985541617845501511663ffffffff63ffffffff1983549260201b169116179055565b61553461244e565b6154f3565b615541610e7f565b6154e4565b9060405161555381610e96565b602081935463ffffffff81168352811c910152565b1561556f57565b606460405162461bcd60e51b815260206004820152601760248201527f436865636b706f696e743a20696e76616c6964206b65790000000000000000006044820152fd5b909291928382548015156000146156a2579260209291846155ee6155e96155dc612a98986125f5565b8560005260206000200190565b615546565b936155fd855163ffffffff1690565b61561463ffffffff91828416928391161115615568565b61562e615625875163ffffffff1690565b63ffffffff1690565b0361566c575061565e926152e2615644926125f5565b9063ffffffff63ffffffff1983549260201b169116179055565b01516001600160e01b031690565b91505061569d9161568a61567e610f50565b63ffffffff9093168352565b6001600160e01b038816828601526154c0565b61565e565b50506156c7916156b361567e610f50565b6001600160e01b03851660208301526154c0565b60009190565b63ffffffff908181116156de571690565b608460405162461bcd60e51b815260206004820152602660248201527f53616665436173743a2076616c756520646f65736e27742066697420696e203360448201527f32206269747300000000000000000000000000000000000000000000000000006064820152fd5b9190600019818409818402918280831092039180830392146157e057633b9aca0090818310156157a9577f88f2cfb83100cb4e69e7c79c58b316e597157d372fb9787e8e47ce423a2e9c6d94950990828211900360f71b910360091c170290565b60448383604051917f773cc18c00000000000000000000000000000000000000000000000000000000835260048301526024820152fd5b5050633b9aca009004915056fea264697066735822122009f08677f075263c79b3a6a0bd08b4a6b1c8811e959e46a2315fe122e70f939264736f6c63430008110033",
    "linkReferences": {}
  },
  "methodIdentifiers": {
    "TOTAL_REDEMPTION_WEIGHT()": "640abacd",
    "approve(address,uint256)": "095ea7b3",
    "balanceOf(address)": "70a08231",
    "codeOrigin()": "1d153ca4",
    "contractURI()": "e8a3d485",
    "didPay((address,uint256,uint256,(address,uint256,uint256,uint256),(address,uint256,uint256,uint256),uint256,address,bool,string,bytes))": "da9ee8b7",
    "didRedeem((address,uint256,uint256,uint256,(address,uint256,uint256,uint256),(address,uint256,uint256,uint256),address,string,bytes))": "2b13c58f",
    "directory()": "c41c2f24",
    "firstOwnerOf(uint256)": "54c6d1f5",
    "fundingCycleStore()": "557e7155",
    "getApproved(uint256)": "081812fc",
    "getPastTierTotalVotes(uint256,uint256)": "d31cc52c",
    "getPastTierVotes(address,uint256,uint256)": "d40e7146",
    "getTierDelegate(address,uint256)": "82732b6d",
    "getTierTotalVotes(uint256)": "94c5c5ca",
    "getTierVotes(address,uint256)": "ca323efe",
    "initialize(uint256,address,string,string,address,string,address,string,((uint80,uint48,uint40,uint16,uint16,address,uint8,address,bytes32,uint8,bool,bool,bool,bool)[],uint256,uint256,address),address,(bool,bool,bool,bool))": "d1704baf",
    "isApprovedForAll(address,address)": "e985e9c5",
    "mintReservesFor((uint256,uint256)[])": "2a596e53",
    "mintReservesFor(uint256,uint256)": "aa4fb15b",
    "name()": "06fdde03",
    "owner()": "8da5cb5b",
    "ownerOf(uint256)": "6352211e",
    "payParams((address,address,(address,uint256,uint256,uint256),uint256,uint256,address,uint256,uint256,string,bytes))": "d46cf171",
    "pricingCurrency()": "64640c1e",
    "projectId()": "3fafa127",
    "redeemParams((address,address,uint256,uint256,uint256,uint256,uint256,(address,uint256,uint256,uint256),bool,uint256,string,bytes))": "a51cfd18",
    "redemptionWeightOf(uint256)": "4f228e11",
    "redemptionWeightOf(uint256[],(address,address,uint256,uint256,uint256,uint256,uint256,(address,uint256,uint256,uint256),bool,uint256,string,bytes))": "7ba62bf9",
    "renounceOwnership()": "715018a6",
    "royaltyInfo(uint256,uint256)": "2a55205a",
    "safeTransferFrom(address,address,uint256)": "42842e0e",
    "safeTransferFrom(address,address,uint256,bytes)": "b88d4fde",
    "setApprovalForAll(address,bool)": "a22cb465",
    "setBaseUri(string)": "a0bcfc7f",
    "setContractUri(string)": "ccb4807b",
    "setTierDelegate(address,uint256)": "ab951e39",
    "setTierDelegates((address,uint256)[])": "c74b13d9",
    "setTierRedemptionWeights((uint256,uint256)[])": "2f441500",
    "setTokenUriResolver(address)": "2407497e",
    "store()": "975057e7",
    "supportsInterface(bytes4)": "01ffc9a7",
    "symbol()": "95d89b41",
    "tierRedemptionWeights()": "9df45468",
    "tokenURI(uint256)": "c87b56dd",
    "totalRedemptionWeight((address,address,uint256,uint256,uint256,uint256,uint256,(address,uint256,uint256,uint256),bool,uint256,string,bytes))": "9494bf72",
    "transferFrom(address,address,uint256)": "23b872dd",
    "transferOwnership(address)": "f2fde38b"
  },
  "id": 0
}