{
  "abi": [
    {
      "inputs": [],
      "stateMutability": "nonpayable",
      "type": "constructor"
    },
    {
      "inputs": [],
      "name": "ALEADY_MINTED",
      "type": "error"
    },
    {
      "inputs": [],
      "name": "APPROVAL_TO_CURRENT_OWNER",
      "type": "error"
    },
    {
      "inputs": [],
      "name": "APPROVE_TO_CALLER",
      "type": "error"
    },
    {
      "inputs": [],
      "name": "BAD_TIER_ORDER",
      "type": "error"
    },
    {
      "inputs": [],
      "name": "CALLER_NOT_OWNER_OR_APPROVED",
      "type": "error"
    },
    {
      "inputs": [],
      "name": "DELEGATE_ADDRESS_ZERO",
      "type": "error"
    },
    {
      "inputs": [],
      "name": "DELEGATE_CHANGES_UNAVAILABLE_IN_THIS_PHASE",
      "type": "error"
    },
    {
      "inputs": [],
      "name": "GAME_ISNT_SCORING_YET",
      "type": "error"
    },
    {
      "inputs": [],
      "name": "INCORRECT_OWNER",
      "type": "error"
    },
    {
      "inputs": [],
      "name": "INVALID_PAYMENT_EVENT",
      "type": "error"
    },
    {
      "inputs": [],
      "name": "INVALID_REDEMPTION_EVENT",
      "type": "error"
    },
    {
      "inputs": [],
      "name": "INVALID_REDEMPTION_METADATA",
      "type": "error"
    },
    {
      "inputs": [],
      "name": "INVALID_REDEMPTION_WEIGHTS",
      "type": "error"
    },
    {
      "inputs": [],
      "name": "INVALID_TIER_ID",
      "type": "error"
    },
    {
      "inputs": [],
      "name": "INVALID_TOKEN_ID",
      "type": "error"
    },
    {
      "inputs": [],
      "name": "MINT_TO_ZERO",
      "type": "error"
    },
    {
      "inputs": [],
      "name": "NOTHING_TO_CLAIM",
      "type": "error"
    },
    {
      "inputs": [],
      "name": "NOTHING_TO_MINT",
      "type": "error"
    },
    {
      "inputs": [],
      "name": "NO_CONTEST",
      "type": "error"
    },
    {
      "inputs": [],
      "name": "OVERSPENDING",
      "type": "error"
    },
    {
      "inputs": [
        {
          "internalType": "uint256",
          "name": "prod1",
          "type": "uint256"
        },
        {
          "internalType": "uint256",
          "name": "denominator",
          "type": "uint256"
        }
      ],
      "name": "PRBMath__MulDivOverflow",
      "type": "error"
    },
    {
      "inputs": [],
      "name": "REDEMPTION_WEIGHTS_ALREADY_SET",
      "type": "error"
    },
    {
      "inputs": [],
      "name": "RESERVED_TOKEN_MINTING_PAUSED",
      "type": "error"
    },
    {
      "inputs": [],
      "name": "TRANSFERS_PAUSED",
      "type": "error"
    },
    {
      "inputs": [],
      "name": "TRANSFER_TO_NON_IMPLEMENTER",
      "type": "error"
    },
    {
      "inputs": [],
      "name": "TRANSFER_TO_ZERO_ADDRESS",
      "type": "error"
    },
    {
      "inputs": [],
      "name": "UNAUTHORIZED",
      "type": "error"
    },
    {
      "inputs": [
        {
          "internalType": "uint256",
          "name": "_tokenId",
          "type": "uint256"
        }
      ],
      "name": "UNAUTHORIZED_TOKEN",
      "type": "error"
    },
    {
      "inputs": [],
      "name": "UNEXPECTED_TOKEN_REDEEMED",
      "type": "error"
    },
    {
      "inputs": [],
      "name": "WRONG_CURRENCY",
      "type": "error"
    },
    {
      "anonymous": false,
      "inputs": [
        {
          "indexed": true,
          "internalType": "address",
          "name": "owner",
          "type": "address"
        },
        {
          "indexed": true,
          "internalType": "address",
          "name": "approved",
          "type": "address"
        },
        {
          "indexed": true,
          "internalType": "uint256",
          "name": "tokenId",
          "type": "uint256"
        }
      ],
      "name": "Approval",
      "type": "event"
    },
    {
      "anonymous": false,
      "inputs": [
        {
          "indexed": true,
          "internalType": "address",
          "name": "owner",
          "type": "address"
        },
        {
          "indexed": true,
          "internalType": "address",
          "name": "operator",
          "type": "address"
        },
        {
          "indexed": false,
          "internalType": "bool",
          "name": "approved",
          "type": "bool"
        }
      ],
      "name": "ApprovalForAll",
      "type": "event"
    },
    {
      "anonymous": false,
      "inputs": [
        {
          "indexed": true,
          "internalType": "address",
          "name": "delegator",
          "type": "address"
        },
        {
          "indexed": true,
          "internalType": "address",
          "name": "fromDelegate",
          "type": "address"
        },
        {
          "indexed": true,
          "internalType": "address",
          "name": "toDelegate",
          "type": "address"
        }
      ],
      "name": "DelegateChanged",
      "type": "event"
    },
    {
      "anonymous": false,
      "inputs": [
        {
          "indexed": true,
          "internalType": "uint256",
          "name": "tokenId",
          "type": "uint256"
        },
        {
          "indexed": true,
          "internalType": "uint256",
          "name": "tierId",
          "type": "uint256"
        },
        {
          "indexed": true,
          "internalType": "address",
          "name": "beneficiary",
          "type": "address"
        },
        {
          "indexed": false,
          "internalType": "uint256",
          "name": "totalAmountContributed",
          "type": "uint256"
        },
        {
          "indexed": false,
          "internalType": "address",
          "name": "caller",
          "type": "address"
        }
      ],
      "name": "Mint",
      "type": "event"
    },
    {
      "anonymous": false,
      "inputs": [
        {
          "indexed": true,
          "internalType": "uint256",
          "name": "tokenId",
          "type": "uint256"
        },
        {
          "indexed": true,
          "internalType": "uint256",
          "name": "tierId",
          "type": "uint256"
        },
        {
          "indexed": true,
          "internalType": "address",
          "name": "beneficiary",
          "type": "address"
        },
        {
          "indexed": false,
          "internalType": "address",
          "name": "caller",
          "type": "address"
        }
      ],
      "name": "MintReservedToken",
      "type": "event"
    },
    {
      "anonymous": false,
      "inputs": [
        {
          "indexed": true,
          "internalType": "address",
          "name": "previousOwner",
          "type": "address"
        },
        {
          "indexed": true,
          "internalType": "address",
          "name": "newOwner",
          "type": "address"
        }
      ],
      "name": "OwnershipTransferred",
      "type": "event"
    },
    {
      "anonymous": false,
      "inputs": [
        {
          "indexed": true,
          "internalType": "address",
          "name": "delegate",
          "type": "address"
        },
        {
          "indexed": true,
          "internalType": "uint256",
          "name": "tierId",
          "type": "uint256"
        },
        {
          "indexed": false,
          "internalType": "uint256",
          "name": "previousBalance",
          "type": "uint256"
        },
        {
          "indexed": false,
          "internalType": "uint256",
          "name": "newBalance",
          "type": "uint256"
        },
        {
          "indexed": false,
          "internalType": "address",
          "name": "caller",
          "type": "address"
        }
      ],
      "name": "TierDelegateVotesChanged",
      "type": "event"
    },
    {
      "anonymous": false,
      "inputs": [
        {
          "indexed": true,
          "internalType": "address",
          "name": "from",
          "type": "address"
        },
        {
          "indexed": true,
          "internalType": "address",
          "name": "to",
          "type": "address"
        },
        {
          "indexed": true,
          "internalType": "uint256",
          "name": "tokenId",
          "type": "uint256"
        }
      ],
      "name": "Transfer",
      "type": "event"
    },
    {
      "inputs": [],
      "name": "TOTAL_REDEMPTION_WEIGHT",
      "outputs": [
        {
          "internalType": "uint256",
          "name": "",
          "type": "uint256"
        }
      ],
      "stateMutability": "view",
      "type": "function"
    },
    {
      "inputs": [
        {
          "internalType": "address",
          "name": "to",
          "type": "address"
        },
        {
          "internalType": "uint256",
          "name": "tokenId",
          "type": "uint256"
        }
      ],
      "name": "approve",
      "outputs": [],
      "stateMutability": "nonpayable",
      "type": "function"
    },
    {
      "inputs": [
        {
          "internalType": "address",
          "name": "_owner",
          "type": "address"
        }
      ],
      "name": "balanceOf",
      "outputs": [
        {
          "internalType": "uint256",
          "name": "balance",
          "type": "uint256"
        }
      ],
      "stateMutability": "view",
      "type": "function"
    },
    {
      "inputs": [],
      "name": "baseURI",
      "outputs": [
        {
          "internalType": "string",
          "name": "",
          "type": "string"
        }
      ],
      "stateMutability": "view",
      "type": "function"
    },
    {
      "inputs": [],
      "name": "codeOrigin",
      "outputs": [
        {
          "internalType": "address",
          "name": "",
          "type": "address"
        }
      ],
      "stateMutability": "view",
      "type": "function"
    },
    {
      "inputs": [],
      "name": "contractURI",
      "outputs": [
        {
          "internalType": "string",
          "name": "",
          "type": "string"
        }
      ],
      "stateMutability": "view",
      "type": "function"
    },
    {
      "inputs": [],
      "name": "defaultVotingDelegate",
      "outputs": [
        {
          "internalType": "address",
          "name": "",
          "type": "address"
        }
      ],
      "stateMutability": "view",
      "type": "function"
    },
    {
      "inputs": [
        {
          "components": [
            {
              "internalType": "address",
              "name": "payer",
              "type": "address"
            },
            {
              "internalType": "uint256",
              "name": "projectId",
              "type": "uint256"
            },
            {
              "internalType": "uint256",
              "name": "currentFundingCycleConfiguration",
              "type": "uint256"
            },
            {
              "components": [
                {
                  "internalType": "address",
                  "name": "token",
                  "type": "address"
                },
                {
                  "internalType": "uint256",
                  "name": "value",
                  "type": "uint256"
                },
                {
                  "internalType": "uint256",
                  "name": "decimals",
                  "type": "uint256"
                },
                {
                  "internalType": "uint256",
                  "name": "currency",
                  "type": "uint256"
                }
              ],
              "internalType": "struct JBTokenAmount",
              "name": "amount",
              "type": "tuple"
            },
            {
              "components": [
                {
                  "internalType": "address",
                  "name": "token",
                  "type": "address"
                },
                {
                  "internalType": "uint256",
                  "name": "value",
                  "type": "uint256"
                },
                {
                  "internalType": "uint256",
                  "name": "decimals",
                  "type": "uint256"
                },
                {
                  "internalType": "uint256",
                  "name": "currency",
                  "type": "uint256"
                }
              ],
              "internalType": "struct JBTokenAmount",
              "name": "forwardedAmount",
              "type": "tuple"
            },
            {
              "internalType": "uint256",
              "name": "projectTokenCount",
              "type": "uint256"
            },
            {
              "internalType": "address",
              "name": "beneficiary",
              "type": "address"
            },
            {
              "internalType": "bool",
              "name": "preferClaimedTokens",
              "type": "bool"
            },
            {
              "internalType": "string",
              "name": "memo",
              "type": "string"
            },
            {
              "internalType": "bytes",
              "name": "metadata",
              "type": "bytes"
            }
          ],
          "internalType": "struct JBDidPayData",
          "name": "_data",
          "type": "tuple"
        }
      ],
      "name": "didPay",
      "outputs": [],
      "stateMutability": "payable",
      "type": "function"
    },
    {
      "inputs": [
        {
          "components": [
            {
              "internalType": "address",
              "name": "holder",
              "type": "address"
            },
            {
              "internalType": "uint256",
              "name": "projectId",
              "type": "uint256"
            },
            {
              "internalType": "uint256",
              "name": "currentFundingCycleConfiguration",
              "type": "uint256"
            },
            {
              "internalType": "uint256",
              "name": "projectTokenCount",
              "type": "uint256"
            },
            {
              "components": [
                {
                  "internalType": "address",
                  "name": "token",
                  "type": "address"
                },
                {
                  "internalType": "uint256",
                  "name": "value",
                  "type": "uint256"
                },
                {
                  "internalType": "uint256",
                  "name": "decimals",
                  "type": "uint256"
                },
                {
                  "internalType": "uint256",
                  "name": "currency",
                  "type": "uint256"
                }
              ],
              "internalType": "struct JBTokenAmount",
              "name": "reclaimedAmount",
              "type": "tuple"
            },
            {
              "components": [
                {
                  "internalType": "address",
                  "name": "token",
                  "type": "address"
                },
                {
                  "internalType": "uint256",
                  "name": "value",
                  "type": "uint256"
                },
                {
                  "internalType": "uint256",
                  "name": "decimals",
                  "type": "uint256"
                },
                {
                  "internalType": "uint256",
                  "name": "currency",
                  "type": "uint256"
                }
              ],
              "internalType": "struct JBTokenAmount",
              "name": "forwardedAmount",
              "type": "tuple"
            },
            {
              "internalType": "address payable",
              "name": "beneficiary",
              "type": "address"
            },
            {
              "internalType": "string",
              "name": "memo",
              "type": "string"
            },
            {
              "internalType": "bytes",
              "name": "metadata",
              "type": "bytes"
            }
          ],
          "internalType": "struct JBDidRedeemData",
          "name": "_data",
          "type": "tuple"
        }
      ],
      "name": "didRedeem",
      "outputs": [],
      "stateMutability": "payable",
      "type": "function"
    },
    {
      "inputs": [],
      "name": "directory",
      "outputs": [
        {
          "internalType": "contract IJBDirectory",
          "name": "",
          "type": "address"
        }
      ],
      "stateMutability": "view",
      "type": "function"
    },
    {
      "inputs": [
        {
          "internalType": "uint256",
          "name": "_tokenId",
          "type": "uint256"
        }
      ],
      "name": "firstOwnerOf",
      "outputs": [
        {
          "internalType": "address",
          "name": "",
          "type": "address"
        }
      ],
      "stateMutability": "view",
      "type": "function"
    },
    {
      "inputs": [],
      "name": "fundingCycleStore",
      "outputs": [
        {
          "internalType": "contract IJBFundingCycleStore",
          "name": "",
          "type": "address"
        }
      ],
      "stateMutability": "view",
      "type": "function"
    },
    {
      "inputs": [],
      "name": "gamePhaseReporter",
      "outputs": [
        {
          "internalType": "contract IDefifaGamePhaseReporter",
          "name": "",
          "type": "address"
        }
      ],
      "stateMutability": "view",
      "type": "function"
    },
    {
      "inputs": [],
      "name": "gamePotReporter",
      "outputs": [
        {
          "internalType": "contract IDefifaGamePotReporter",
          "name": "",
          "type": "address"
        }
      ],
      "stateMutability": "view",
      "type": "function"
    },
    {
      "inputs": [
        {
          "internalType": "uint256",
          "name": "tokenId",
          "type": "uint256"
        }
      ],
      "name": "getApproved",
      "outputs": [
        {
          "internalType": "address",
          "name": "",
          "type": "address"
        }
      ],
      "stateMutability": "view",
      "type": "function"
    },
    {
      "inputs": [
        {
          "internalType": "uint256",
          "name": "_tier",
          "type": "uint256"
        },
        {
          "internalType": "uint256",
          "name": "_blockNumber",
          "type": "uint256"
        }
      ],
      "name": "getPastTierTotalVotes",
      "outputs": [
        {
          "internalType": "uint256",
          "name": "",
          "type": "uint256"
        }
      ],
      "stateMutability": "view",
      "type": "function"
    },
    {
      "inputs": [
        {
          "internalType": "address",
          "name": "_account",
          "type": "address"
        },
        {
          "internalType": "uint256",
          "name": "_tier",
          "type": "uint256"
        },
        {
          "internalType": "uint256",
          "name": "_blockNumber",
          "type": "uint256"
        }
      ],
      "name": "getPastTierVotes",
      "outputs": [
        {
          "internalType": "uint256",
          "name": "",
          "type": "uint256"
        }
      ],
      "stateMutability": "view",
      "type": "function"
    },
    {
      "inputs": [
        {
          "internalType": "address",
          "name": "_account",
          "type": "address"
        },
        {
          "internalType": "uint256",
          "name": "_tier",
          "type": "uint256"
        }
      ],
      "name": "getTierDelegate",
      "outputs": [
        {
          "internalType": "address",
          "name": "",
          "type": "address"
        }
      ],
      "stateMutability": "view",
      "type": "function"
    },
    {
      "inputs": [
        {
          "internalType": "uint256",
          "name": "_tier",
          "type": "uint256"
        }
      ],
      "name": "getTierTotalVotes",
      "outputs": [
        {
          "internalType": "uint256",
          "name": "",
          "type": "uint256"
        }
      ],
      "stateMutability": "view",
      "type": "function"
    },
    {
      "inputs": [
        {
          "internalType": "address",
          "name": "_account",
          "type": "address"
        },
        {
          "internalType": "uint256",
          "name": "_tier",
          "type": "uint256"
        }
      ],
      "name": "getTierVotes",
      "outputs": [
        {
          "internalType": "uint256",
          "name": "",
          "type": "uint256"
        }
      ],
      "stateMutability": "view",
      "type": "function"
    },
    {
      "inputs": [
        {
          "internalType": "uint256",
          "name": "_gameId",
          "type": "uint256"
        },
        {
          "internalType": "contract IJBDirectory",
          "name": "_directory",
          "type": "address"
        },
        {
          "internalType": "string",
          "name": "_name",
          "type": "string"
        },
        {
          "internalType": "string",
          "name": "_symbol",
          "type": "string"
        },
        {
          "internalType": "contract IJBFundingCycleStore",
          "name": "_fundingCycleStore",
          "type": "address"
        },
        {
          "internalType": "string",
          "name": "_baseUri",
          "type": "string"
        },
        {
          "internalType": "contract IJBTokenUriResolver",
          "name": "_tokenUriResolver",
          "type": "address"
        },
        {
          "internalType": "string",
          "name": "_contractUri",
          "type": "string"
        },
        {
          "components": [
            {
              "internalType": "uint104",
              "name": "price",
              "type": "uint104"
            },
            {
              "internalType": "uint32",
              "name": "initialQuantity",
              "type": "uint32"
            },
            {
              "internalType": "uint32",
              "name": "votingUnits",
              "type": "uint32"
            },
            {
              "internalType": "uint16",
              "name": "reservedRate",
              "type": "uint16"
            },
            {
              "internalType": "address",
              "name": "reservedTokenBeneficiary",
              "type": "address"
            },
            {
              "internalType": "bytes32",
              "name": "encodedIPFSUri",
              "type": "bytes32"
            },
            {
              "internalType": "uint24",
              "name": "category",
              "type": "uint24"
            },
            {
              "internalType": "bool",
              "name": "allowManualMint",
              "type": "bool"
            },
            {
              "internalType": "bool",
              "name": "shouldUseReservedTokenBeneficiaryAsDefault",
              "type": "bool"
            },
            {
              "internalType": "bool",
              "name": "transfersPausable",
              "type": "bool"
            },
            {
              "internalType": "bool",
              "name": "useVotingUnits",
              "type": "bool"
            }
          ],
          "internalType": "struct JB721TierParams[]",
          "name": "_tiers",
          "type": "tuple[]"
        },
        {
          "internalType": "uint48",
          "name": "_currency",
          "type": "uint48"
        },
        {
          "internalType": "contract IJBTiered721DelegateStore",
          "name": "_store",
          "type": "address"
        },
        {
          "components": [
            {
              "internalType": "bool",
              "name": "lockReservedTokenChanges",
              "type": "bool"
            },
            {
              "internalType": "bool",
              "name": "lockVotingUnitChanges",
              "type": "bool"
            },
            {
              "internalType": "bool",
              "name": "lockManualMintingChanges",
              "type": "bool"
            },
            {
              "internalType": "bool",
              "name": "preventOverspending",
              "type": "bool"
            }
          ],
          "internalType": "struct JBTiered721Flags",
          "name": "_flags",
          "type": "tuple"
        },
        {
          "internalType": "contract IDefifaGamePhaseReporter",
          "name": "_gamePhaseReporter",
          "type": "address"
        },
        {
          "internalType": "contract IDefifaGamePotReporter",
          "name": "_gamePotReporter",
          "type": "address"
        },
        {
          "internalType": "address",
          "name": "_defaultVotingDelegate",
          "type": "address"
        }
      ],
      "name": "initialize",
      "outputs": [],
      "stateMutability": "nonpayable",
      "type": "function"
    },
    {
      "inputs": [
        {
          "internalType": "address",
          "name": "owner",
          "type": "address"
        },
        {
          "internalType": "address",
          "name": "operator",
          "type": "address"
        }
      ],
      "name": "isApprovedForAll",
      "outputs": [
        {
          "internalType": "bool",
          "name": "",
          "type": "bool"
        }
      ],
      "stateMutability": "view",
      "type": "function"
    },
    {
      "inputs": [
        {
          "components": [
            {
              "internalType": "uint256",
              "name": "tierId",
              "type": "uint256"
            },
            {
              "internalType": "uint256",
              "name": "count",
              "type": "uint256"
            }
          ],
          "internalType": "struct JBTiered721MintReservesForTiersData[]",
          "name": "_mintReservesForTiersData",
          "type": "tuple[]"
        }
      ],
      "name": "mintReservesFor",
      "outputs": [],
      "stateMutability": "nonpayable",
      "type": "function"
    },
    {
      "inputs": [
        {
          "internalType": "uint256",
          "name": "_tierId",
          "type": "uint256"
        },
        {
          "internalType": "uint256",
          "name": "_count",
          "type": "uint256"
        }
      ],
      "name": "mintReservesFor",
      "outputs": [],
      "stateMutability": "nonpayable",
      "type": "function"
    },
    {
      "inputs": [],
      "name": "name",
      "outputs": [
        {
          "internalType": "string",
          "name": "",
          "type": "string"
        }
      ],
      "stateMutability": "view",
      "type": "function"
    },
    {
      "inputs": [],
      "name": "owner",
      "outputs": [
        {
          "internalType": "address",
          "name": "",
          "type": "address"
        }
      ],
      "stateMutability": "view",
      "type": "function"
    },
    {
      "inputs": [
        {
          "internalType": "uint256",
          "name": "tokenId",
          "type": "uint256"
        }
      ],
      "name": "ownerOf",
      "outputs": [
        {
          "internalType": "address",
          "name": "",
          "type": "address"
        }
      ],
      "stateMutability": "view",
      "type": "function"
    },
    {
      "inputs": [
        {
          "components": [
            {
              "internalType": "contract IJBPaymentTerminal",
              "name": "terminal",
              "type": "address"
            },
            {
              "internalType": "address",
              "name": "payer",
              "type": "address"
            },
            {
              "components": [
                {
                  "internalType": "address",
                  "name": "token",
                  "type": "address"
                },
                {
                  "internalType": "uint256",
                  "name": "value",
                  "type": "uint256"
                },
                {
                  "internalType": "uint256",
                  "name": "decimals",
                  "type": "uint256"
                },
                {
                  "internalType": "uint256",
                  "name": "currency",
                  "type": "uint256"
                }
              ],
              "internalType": "struct JBTokenAmount",
              "name": "amount",
              "type": "tuple"
            },
            {
              "internalType": "uint256",
              "name": "projectId",
              "type": "uint256"
            },
            {
              "internalType": "uint256",
              "name": "currentFundingCycleConfiguration",
              "type": "uint256"
            },
            {
              "internalType": "address",
              "name": "beneficiary",
              "type": "address"
            },
            {
              "internalType": "uint256",
              "name": "weight",
              "type": "uint256"
            },
            {
              "internalType": "uint256",
              "name": "reservedRate",
              "type": "uint256"
            },
            {
              "internalType": "string",
              "name": "memo",
              "type": "string"
            },
            {
              "internalType": "bytes",
              "name": "metadata",
              "type": "bytes"
            }
          ],
          "internalType": "struct JBPayParamsData",
          "name": "_data",
          "type": "tuple"
        }
      ],
      "name": "payParams",
      "outputs": [
        {
          "internalType": "uint256",
          "name": "weight",
          "type": "uint256"
        },
        {
          "internalType": "string",
          "name": "memo",
          "type": "string"
        },
        {
          "components": [
            {
              "internalType": "contract IJBPayDelegate",
              "name": "delegate",
              "type": "address"
            },
            {
              "internalType": "uint256",
              "name": "amount",
              "type": "uint256"
            }
          ],
          "internalType": "struct JBPayDelegateAllocation[]",
          "name": "delegateAllocations",
          "type": "tuple[]"
        }
      ],
      "stateMutability": "view",
      "type": "function"
    },
    {
      "inputs": [],
      "name": "pricingCurrency",
      "outputs": [
        {
          "internalType": "uint256",
          "name": "",
          "type": "uint256"
        }
      ],
      "stateMutability": "view",
      "type": "function"
    },
    {
      "inputs": [],
      "name": "projectId",
      "outputs": [
        {
          "internalType": "uint256",
          "name": "",
          "type": "uint256"
        }
      ],
      "stateMutability": "view",
      "type": "function"
    },
    {
      "inputs": [
        {
          "components": [
            {
              "internalType": "contract IJBPaymentTerminal",
              "name": "terminal",
              "type": "address"
            },
            {
              "internalType": "address",
              "name": "holder",
              "type": "address"
            },
            {
              "internalType": "uint256",
              "name": "projectId",
              "type": "uint256"
            },
            {
              "internalType": "uint256",
              "name": "currentFundingCycleConfiguration",
              "type": "uint256"
            },
            {
              "internalType": "uint256",
              "name": "tokenCount",
              "type": "uint256"
            },
            {
              "internalType": "uint256",
              "name": "totalSupply",
              "type": "uint256"
            },
            {
              "internalType": "uint256",
              "name": "overflow",
              "type": "uint256"
            },
            {
              "components": [
                {
                  "internalType": "address",
                  "name": "token",
                  "type": "address"
                },
                {
                  "internalType": "uint256",
                  "name": "value",
                  "type": "uint256"
                },
                {
                  "internalType": "uint256",
                  "name": "decimals",
                  "type": "uint256"
                },
                {
                  "internalType": "uint256",
                  "name": "currency",
                  "type": "uint256"
                }
              ],
              "internalType": "struct JBTokenAmount",
              "name": "reclaimAmount",
              "type": "tuple"
            },
            {
              "internalType": "bool",
              "name": "useTotalOverflow",
              "type": "bool"
            },
            {
              "internalType": "uint256",
              "name": "redemptionRate",
              "type": "uint256"
            },
            {
              "internalType": "string",
              "name": "memo",
              "type": "string"
            },
            {
              "internalType": "bytes",
              "name": "metadata",
              "type": "bytes"
            }
          ],
          "internalType": "struct JBRedeemParamsData",
          "name": "_data",
          "type": "tuple"
        }
      ],
      "name": "redeemParams",
      "outputs": [
        {
          "internalType": "uint256",
          "name": "reclaimAmount",
          "type": "uint256"
        },
        {
          "internalType": "string",
          "name": "memo",
          "type": "string"
        },
        {
          "components": [
            {
              "internalType": "contract IJBRedemptionDelegate",
              "name": "delegate",
              "type": "address"
            },
            {
              "internalType": "uint256",
              "name": "amount",
              "type": "uint256"
            }
          ],
          "internalType": "struct JBRedemptionDelegateAllocation[]",
          "name": "delegateAllocations",
          "type": "tuple[]"
        }
      ],
      "stateMutability": "view",
      "type": "function"
    },
    {
      "inputs": [],
      "name": "redemptionWeightIsSet",
      "outputs": [
        {
          "internalType": "bool",
          "name": "",
          "type": "bool"
        }
      ],
      "stateMutability": "view",
      "type": "function"
    },
    {
      "inputs": [
        {
          "internalType": "uint256",
          "name": "_tokenId",
          "type": "uint256"
        }
      ],
      "name": "redemptionWeightOf",
      "outputs": [
        {
          "internalType": "uint256",
          "name": "",
          "type": "uint256"
        }
      ],
      "stateMutability": "view",
      "type": "function"
    },
    {
      "inputs": [
        {
          "internalType": "uint256[]",
          "name": "_tokenIds",
          "type": "uint256[]"
        },
        {
          "components": [
            {
              "internalType": "contract IJBPaymentTerminal",
              "name": "terminal",
              "type": "address"
            },
            {
              "internalType": "address",
              "name": "holder",
              "type": "address"
            },
            {
              "internalType": "uint256",
              "name": "projectId",
              "type": "uint256"
            },
            {
              "internalType": "uint256",
              "name": "currentFundingCycleConfiguration",
              "type": "uint256"
            },
            {
              "internalType": "uint256",
              "name": "tokenCount",
              "type": "uint256"
            },
            {
              "internalType": "uint256",
              "name": "totalSupply",
              "type": "uint256"
            },
            {
              "internalType": "uint256",
              "name": "overflow",
              "type": "uint256"
            },
            {
              "components": [
                {
                  "internalType": "address",
                  "name": "token",
                  "type": "address"
                },
                {
                  "internalType": "uint256",
                  "name": "value",
                  "type": "uint256"
                },
                {
                  "internalType": "uint256",
                  "name": "decimals",
                  "type": "uint256"
                },
                {
                  "internalType": "uint256",
                  "name": "currency",
                  "type": "uint256"
                }
              ],
              "internalType": "struct JBTokenAmount",
              "name": "reclaimAmount",
              "type": "tuple"
            },
            {
              "internalType": "bool",
              "name": "useTotalOverflow",
              "type": "bool"
            },
            {
              "internalType": "uint256",
              "name": "redemptionRate",
              "type": "uint256"
            },
            {
              "internalType": "string",
              "name": "memo",
              "type": "string"
            },
            {
              "internalType": "bytes",
              "name": "metadata",
              "type": "bytes"
            }
          ],
          "internalType": "struct JBRedeemParamsData",
          "name": "",
          "type": "tuple"
        }
      ],
      "name": "redemptionWeightOf",
      "outputs": [
        {
          "internalType": "uint256",
          "name": "cumulativeWeight",
          "type": "uint256"
        }
      ],
      "stateMutability": "view",
      "type": "function"
    },
    {
      "inputs": [],
      "name": "renounceOwnership",
      "outputs": [],
      "stateMutability": "nonpayable",
      "type": "function"
    },
    {
      "inputs": [
        {
          "internalType": "address",
          "name": "from",
          "type": "address"
        },
        {
          "internalType": "address",
          "name": "to",
          "type": "address"
        },
        {
          "internalType": "uint256",
          "name": "tokenId",
          "type": "uint256"
        }
      ],
      "name": "safeTransferFrom",
      "outputs": [],
      "stateMutability": "nonpayable",
      "type": "function"
    },
    {
      "inputs": [
        {
          "internalType": "address",
          "name": "from",
          "type": "address"
        },
        {
          "internalType": "address",
          "name": "to",
          "type": "address"
        },
        {
          "internalType": "uint256",
          "name": "tokenId",
          "type": "uint256"
        },
        {
          "internalType": "bytes",
          "name": "data",
          "type": "bytes"
        }
      ],
      "name": "safeTransferFrom",
      "outputs": [],
      "stateMutability": "nonpayable",
      "type": "function"
    },
    {
      "inputs": [
        {
          "internalType": "address",
          "name": "operator",
          "type": "address"
        },
        {
          "internalType": "bool",
          "name": "approved",
          "type": "bool"
        }
      ],
      "name": "setApprovalForAll",
      "outputs": [],
      "stateMutability": "nonpayable",
      "type": "function"
    },
    {
      "inputs": [
        {
          "internalType": "address",
          "name": "_delegatee",
          "type": "address"
        },
        {
          "internalType": "uint256",
          "name": "_tierId",
          "type": "uint256"
        }
      ],
      "name": "setTierDelegate",
      "outputs": [],
      "stateMutability": "nonpayable",
      "type": "function"
    },
    {
      "inputs": [
        {
          "components": [
            {
              "internalType": "address",
              "name": "delegatee",
              "type": "address"
            },
            {
              "internalType": "uint256",
              "name": "tierId",
              "type": "uint256"
            }
          ],
          "internalType": "struct JBTiered721SetTierDelegatesData[]",
          "name": "_setTierDelegatesData",
          "type": "tuple[]"
        }
      ],
      "name": "setTierDelegates",
      "outputs": [],
      "stateMutability": "nonpayable",
      "type": "function"
    },
    {
      "inputs": [
        {
          "components": [
            {
              "internalType": "uint256",
              "name": "id",
              "type": "uint256"
            },
            {
              "internalType": "uint256",
              "name": "redemptionWeight",
              "type": "uint256"
            }
          ],
          "internalType": "struct DefifaTierRedemptionWeight[]",
          "name": "_tierWeights",
          "type": "tuple[]"
        }
      ],
      "name": "setTierRedemptionWeights",
      "outputs": [],
      "stateMutability": "nonpayable",
      "type": "function"
    },
    {
      "inputs": [],
      "name": "store",
      "outputs": [
        {
          "internalType": "contract IJBTiered721DelegateStore",
          "name": "",
          "type": "address"
        }
      ],
      "stateMutability": "view",
      "type": "function"
    },
    {
      "inputs": [
        {
          "internalType": "bytes4",
          "name": "_interfaceId",
          "type": "bytes4"
        }
      ],
      "name": "supportsInterface",
      "outputs": [
        {
          "internalType": "bool",
          "name": "",
          "type": "bool"
        }
      ],
      "stateMutability": "view",
      "type": "function"
    },
    {
      "inputs": [],
      "name": "symbol",
      "outputs": [
        {
          "internalType": "string",
          "name": "",
          "type": "string"
        }
      ],
      "stateMutability": "view",
      "type": "function"
    },
    {
      "inputs": [],
      "name": "tierRedemptionWeights",
      "outputs": [
        {
          "internalType": "uint256[128]",
          "name": "",
          "type": "uint256[128]"
        }
      ],
      "stateMutability": "view",
      "type": "function"
    },
    {
      "inputs": [
        {
          "internalType": "uint256",
          "name": "_tokenId",
          "type": "uint256"
        }
      ],
      "name": "tokenURI",
      "outputs": [
        {
          "internalType": "string",
          "name": "",
          "type": "string"
        }
      ],
      "stateMutability": "view",
      "type": "function"
    },
    {
      "inputs": [
        {
          "components": [
            {
              "internalType": "contract IJBPaymentTerminal",
              "name": "terminal",
              "type": "address"
            },
            {
              "internalType": "address",
              "name": "holder",
              "type": "address"
            },
            {
              "internalType": "uint256",
              "name": "projectId",
              "type": "uint256"
            },
            {
              "internalType": "uint256",
              "name": "currentFundingCycleConfiguration",
              "type": "uint256"
            },
            {
              "internalType": "uint256",
              "name": "tokenCount",
              "type": "uint256"
            },
            {
              "internalType": "uint256",
              "name": "totalSupply",
              "type": "uint256"
            },
            {
              "internalType": "uint256",
              "name": "overflow",
              "type": "uint256"
            },
            {
              "components": [
                {
                  "internalType": "address",
                  "name": "token",
                  "type": "address"
                },
                {
                  "internalType": "uint256",
                  "name": "value",
                  "type": "uint256"
                },
                {
                  "internalType": "uint256",
                  "name": "decimals",
                  "type": "uint256"
                },
                {
                  "internalType": "uint256",
                  "name": "currency",
                  "type": "uint256"
                }
              ],
              "internalType": "struct JBTokenAmount",
              "name": "reclaimAmount",
              "type": "tuple"
            },
            {
              "internalType": "bool",
              "name": "useTotalOverflow",
              "type": "bool"
            },
            {
              "internalType": "uint256",
              "name": "redemptionRate",
              "type": "uint256"
            },
            {
              "internalType": "string",
              "name": "memo",
              "type": "string"
            },
            {
              "internalType": "bytes",
              "name": "metadata",
              "type": "bytes"
            }
          ],
          "internalType": "struct JBRedeemParamsData",
          "name": "",
          "type": "tuple"
        }
      ],
      "name": "totalRedemptionWeight",
      "outputs": [
        {
          "internalType": "uint256",
          "name": "",
          "type": "uint256"
        }
      ],
      "stateMutability": "view",
      "type": "function"
    },
    {
      "inputs": [
        {
          "internalType": "address",
          "name": "from",
          "type": "address"
        },
        {
          "internalType": "address",
          "name": "to",
          "type": "address"
        },
        {
          "internalType": "uint256",
          "name": "tokenId",
          "type": "uint256"
        }
      ],
      "name": "transferFrom",
      "outputs": [],
      "stateMutability": "nonpayable",
      "type": "function"
    },
    {
      "inputs": [
        {
          "internalType": "address",
          "name": "newOwner",
          "type": "address"
        }
      ],
      "name": "transferOwnership",
      "outputs": [],
      "stateMutability": "nonpayable",
      "type": "function"
    }
  ],
  "bytecode": {
    "object": "0x60a0806040523461006e5760078054336001600160a01b0319821681179092556001600160a01b03167f8be0079c531659141344cd1fd0a4f28419497f9722a3daafe3b4186f6b6457e0600080a3306080526157dd90816200007482396080518181816107f001526130bf0152f35b600080fdfe6080604052600436101561001257600080fd5b60003560e01c806301ffc9a71461032757806306fdde0314610322578063081812fc1461031d578063095ea7b314610318578063174e3e05146103135780631d153ca41461030e57806323b872dd146103095780632a596e53146103045780632b13c58f146102ff5780632f441500146102fa5780633fafa127146102f557806342842e0e146102f05780634f228e11146102eb57806354c6d1f5146102e6578063557e7155146102e15780636352211e146102dc578063640abacd146102d757806364640c1e146102d25780636c0360eb146102cd57806370a08231146102c8578063715018a6146102c35780637245d80c146102be578063795e9c9d146102b95780637ba62bf9146102b457806382732b6d146102af5780638da5cb5b146102aa5780639494bf72146102a557806394c5c5ca146102a057806395d89b411461029b578063975057e7146102965780639df4546814610291578063a0b6490c1461028c578063a22cb46514610287578063a51cfd1814610282578063a8c15f4a1461027d578063aa4fb15b14610278578063ab951e3914610273578063b88d4fde1461026e578063c41c2f2414610269578063c74b13d914610264578063c87b56dd1461025f578063ca323efe1461025a578063d31cc52c14610255578063d40e714614610250578063d46cf1711461024b578063da9ee8b714610246578063e8a3d48514610241578063e985e9c51461023c5763f2fde38b1461023757600080fd5b6121cd565b612163565b6120bc565b611fa4565b611ee8565b611e2d565b611dff565b611dac565b611c82565b611bd0565b611ba9565b611b41565b611a6c565b611a4d565b611a2a565b6119a0565b6118d2565b6118ab565b611826565b6117ff565b61175a565b61171e565b611701565b6116da565b61168d565b611636565b6114ed565b6111de565b611182565b6110d9565b611032565b610fda565b610fbb565b610f9d565b610f76565b610f58565b610f32565b610ef8565b610eda565b610e47565b610926565b610867565b610840565b6107d0565b6107a9565b6106bc565b610661565b610582565b610343565b6001600160e01b031981160361033e57565b600080fd5b3461033e57602060031936011261033e576103926001600160e01b031960043561036c8161032c565b1663d720022d60e01b8114908115610396575b5060405190151581529081906020820190565b0390f35b7ffbb38e03000000000000000000000000000000000000000000000000000000008114915081156104f1575b81156104c7575b811561049d575b8115610473575b81156103e5575b503861037f565b7f80ac58cd00000000000000000000000000000000000000000000000000000000811491508115610449575b811561041f575b50386103de565b7f01ffc9a70000000000000000000000000000000000000000000000000000000091501438610418565b7f5b5e139f0000000000000000000000000000000000000000000000000000000081149150610411565b7f2a55205a00000000000000000000000000000000000000000000000000000000811491506103d7565b7f2b13c58f00000000000000000000000000000000000000000000000000000000811491506103d0565b7fda9ee8b700000000000000000000000000000000000000000000000000000000811491506103c9565b7f71700c6900000000000000000000000000000000000000000000000000000000811491506103c2565b600091031261033e57565b60005b8381106105395750506000910152565b8181015183820152602001610529565b90601f19601f60209361056781518092818752878088019101610526565b0116010190565b90602061057f928181520190610549565b90565b3461033e5760008060031936011261065e57604051908080546105a481610ff8565b8085529160019180831690811561063457506001146105da575b610392856105ce81870382610d74565b6040519182918261056e565b80809450527f290decd9548b62a8d60345a988386fc84ba6bc95484008f6362f93160ef3e5635b82841061061c5750505081016020016105ce826103926105be565b80546020858701810191909152909301928101610601565b869550610392969350602092506105ce94915060ff191682840152151560051b82010192936105be565b80fd5b3461033e57602060031936011261033e57602061067f600435613f21565b6001600160a01b0360405191168152f35b6001600160a01b0381160361033e57565b61022435906106af82610690565b565b35906106af82610690565b3461033e57604060031936011261033e576004356106d981610690565b6024356001600160a01b03806106ee83613ed7565b16809184161461077f5780331415908161073d575b506107135761071191614929565b005b60046040517fe5fa0e35000000000000000000000000000000000000000000000000000000008152fd5b9050600052600460205261077961077561076e336040600020906001600160a01b0316600052602052604060002090565b5460ff1690565b1590565b38610703565b60046040517f133f8be9000000000000000000000000000000000000000000000000000000008152fd5b3461033e57600060031936011261033e5760206001600160a01b0360975416604051908152f35b3461033e57600060031936011261033e5760206040516001600160a01b037f0000000000000000000000000000000000000000000000000000000000000000168152f35b600319606091011261033e5760043561082c81610690565b9060243561083981610690565b9060443590565b3461033e5761084e36610814565b906108598233613fb7565b15610713576107119261467c565b3461033e5760208060031936011261033e576004359067ffffffffffffffff9081831161033e573660238401121561033e57826004013591821161033e57602490600693368385871b8301011161033e5760005b8481106108c457005b6001906108e66108da3687848b1b870101610e1f565b85815191015190613874565b016108bb565b90816101e091031261033e5790565b602060031982011261033e576004359067ffffffffffffffff821161033e5761057f916004016108ec565b61092f366108fb565b3415801590610c63575b8015610c53575b610c295760a0810135908115610bff576101c0810160246109618284612694565b9050108015610bc9575b610b9f5761097c6109849183612694565b810190612788565b9150508051916109ab61099f6091546001600160a01b031690565b6001600160a01b031690565b926005549360408051809263038ab08560e11b8252602093849181806109da60049c8d83019190602083019252565b03915afa8015610b4557600391600091610b72575b506109f9816127db565b149560005b848110610a2a578888610a1089613e38565b610a1657005b610a2561071191608a546123a3565b608a55565b610a348188612366565b5190610a5a610a4d836000526002602052604060002090565b546001600160a01b031690565b6001600160a01b03610a6e61099f8a6136a7565b911603610b4a578489610a80846144a2565b610a90575b5060019150016109fe565b610ae092610aa961099f608f546001600160a01b031690565b865180809681947f42f9914b0000000000000000000000000000000000000000000000000000000083528983019190602083019252565b03915afa918215610b4557600192610b0b91600091610b18575b50600052608b602052604060002090565b8054600101905584610a85565b610b389150873d8911610b3e575b610b308183610d74565b8101906122a6565b38610afa565b503d610b26565b6122b5565b8284517f075fd2b1000000000000000000000000000000000000000000000000000000008152fd5b610b929150843d8611610b98575b610b8a8183610d74565b8101906127c3565b386109ef565b503d610b80565b60046040517f2a84050f000000000000000000000000000000000000000000000000000000008152fd5b5063d720022d60e01b6001600160e01b0319610bf7610bf1610beb8587612694565b906126e5565b90612707565b16141561096b565b60046040517f76914729000000000000000000000000000000000000000000000000000000008152fd5b60046040517f7df94b86000000000000000000000000000000000000000000000000000000008152fd5b5060055460208201351415610940565b50610cc46020610c7e61099f6006546001600160a01b031690565b6005546040517f6e49181f000000000000000000000000000000000000000000000000000000008152600481019190915233602482015292839190829081906044820190565b03915afa908115610b4557600091610cde575b5015610939565b610cff915060203d8111610d05575b610cf78183610d74565b810190613692565b38610cd7565b503d610ced565b634e487b7160e01b600052604160045260246000fd5b6040810190811067ffffffffffffffff821117610d3e57604052565b610d0c565b67ffffffffffffffff8111610d3e57604052565b611000810190811067ffffffffffffffff821117610d3e57604052565b90601f601f19910116810190811067ffffffffffffffff821117610d3e57604052565b60405190610160820182811067ffffffffffffffff821117610d3e57604052565b604051906106af82610d22565b60405190610180820182811067ffffffffffffffff821117610d3e57604052565b60405190610120820182811067ffffffffffffffff821117610d3e57604052565b67ffffffffffffffff8111610d3e5760051b60200190565b919082604091031261033e57604051610e3781610d22565b6020808294803584520135910152565b3461033e5760208060031936011261033e576004359067ffffffffffffffff821161033e573660238301121561033e57816004013591610e8683610e07565b91604093610e9685519485610d74565b80845260248285019160061b8401019236841161033e57602401905b838210610ec257610711856133c1565b828691610ecf3685610e1f565b815201910190610eb2565b3461033e57600060031936011261033e576020600554604051908152f35b3461033e57610f0636610814565b60405191602083019383851067ffffffffffffffff861117610d3e576107119460405260008452613f60565b3461033e57602060031936011261033e576020610f50600435612526565b604051908152f35b3461033e57602060031936011261033e57602061067f600435612274565b3461033e57600060031936011261033e5760206001600160a01b0360905416604051908152f35b3461033e57602060031936011261033e57602061067f600435613ed7565b3461033e57600060031936011261033e576020604051633b9aca008152f35b3461033e57600060031936011261033e576020609354604051908152f35b90600182811c92168015611028575b602083101461101257565b634e487b7160e01b600052602260045260246000fd5b91607f1691611007565b3461033e5760008060031936011261065e57604051908060955461105581610ff8565b80855291600191808316908115610634575060011461107e57610392856105ce81870382610d74565b9250609583527f947035e97d0f7e1937f791bc189f60c984ceaaa7a8494fc67f9f8f4de8ccf2c65b8284106110c15750505081016020016105ce826103926105be565b805460208587018101919091529093019281016110a6565b3461033e57602060031936011261033e576004356110f681610690565b60206001600160a01b03604481608f54169360405194859384927ff7888aec0000000000000000000000000000000000000000000000000000000084523060048501521660248301525afa8015610b455761039291600091611164575b506040519081529081906020820190565b61117c915060203d8111610b3e57610b308183610d74565b38611153565b3461033e5760008060031936011261065e5761119c61520c565b806001600160a01b036007546001600160a01b03198116600755167f8be0079c531659141344cd1fd0a4f28419497f9722a3daafe3b4186f6b6457e08280a380f35b3461033e57600060031936011261033e5760206001600160a01b0360925416604051908152f35b602435906106af82610690565b67ffffffffffffffff8111610d3e57601f01601f191660200190565b92919261123a82611212565b916112486040519384610d74565b82948184528183011161033e578281602093846000960137010152565b9080601f8301121561033e5781602061057f9335910161122e565b608435906106af82610690565b60c435906106af82610690565b35906cffffffffffffffffffffffffff8216820361033e57565b359063ffffffff8216820361033e57565b359061ffff8216820361033e57565b359062ffffff8216820361033e57565b8015150361033e57565b35906106af826112e4565b81601f8201121561033e5780359061131082610e07565b9260409061132082519586610d74565b83855260209182860191836101608097028601019481861161033e578401925b858410611351575050505050505090565b868483031261033e57848791611365610d97565b61136e8761129a565b815261137b8388016112b4565b8382015261138a8688016112b4565b86820152606061139b8189016112c5565b9082015260806113ac8189016106b1565b9082015260a0808801359082015260c06113c78189016112d4565b9082015260e06113d88189016112ee565b908201526101006113ea8189016112ee565b908201526101206113fc8189016112ee565b9082015261014061140e8189016112ee565b90820152815201930192611340565b610124359065ffffffffffff8216820361033e57565b61014435906106af82610690565b7ffffffffffffffffffffffffffffffffffffffffffffffffffffffffffffffe9c608091011261033e57604051906080820182811067ffffffffffffffff821117610d3e576040528161016435611497816112e4565b8152610184356114a6816112e4565b60208201526101a4356114b8816112e4565b604082015260606101c435916114cd836112e4565b0152565b6101e435906106af82610690565b61020435906106af82610690565b3461033e5761024060031936011261033e57611507611205565b60443567ffffffffffffffff9182821161033e5761152a60049236908401611265565b60643584811161033e576115419036908501611265565b611549611280565b60a43586811161033e576115609036908701611265565b61156861128d565b60e43588811161033e5761157f9036908901611265565b6101043598891161033e5761159a6107119936908a016112f9565b916115a361141d565b936115ac611433565b956115b636611441565b976115bf6114d1565b996115c86114df565b9b6115d16106a1565b9d356130a4565b81601f8201121561033e578035916115ef83610e07565b926115fd6040519485610d74565b808452602092838086019260051b82010192831161033e578301905b828210611627575050505090565b81358152908301908301611619565b3461033e57604060031936011261033e5767ffffffffffffffff60043581811161033e576116689036906004016115d8565b9060243590811161033e57602091611687610f509236906004016108ec565b506123b0565b3461033e57604060031936011261033e5760206004356116ac81610690565b6001600160a01b03809116600052608c82526040600020602435600052825260406000205416604051908152f35b3461033e57600060031936011261033e5760206001600160a01b0360075416604051908152f35b3461033e5761170f366108fb565b506020604051633b9aca008152f35b3461033e57602060031936011261033e57600435600052608e60205260206001600160e01b036117516040600020615483565b16604051908152f35b3461033e5760008060031936011261065e576040519080600180549161177f83610ff8565b8086529282811690811561063457506001146117a557610392856105ce81870382610d74565b92508083527fb10e2d527612073b26eecdfd717e6a320cf44b4afac2b0732d9fcbe2b7fa0cf65b8284106117e75750505081016020016105ce826103926105be565b805460208587018101919091529093019281016117cc565b3461033e57600060031936011261033e5760206001600160a01b03608f5416604051908152f35b3461033e57600060031936011261033e5760405161184381610d57565b6110008091369037604051600a6000825b608082106118955750505061186881610d57565b60405190600090825b6080831061187e57505050f35b600190825181526020809101920192019190611871565b6001602081928554815201930191019091611854565b3461033e57600060031936011261033e5760206001600160a01b0360915416604051908152f35b3461033e57604060031936011261033e576004356118ef81610690565b6024356118fb816112e4565b6001600160a01b0382169182331461197657611937903360005260046020526040600020906001600160a01b0316600052602052604060002090565b9015159060ff1981541660ff83161790556040519081527f17307eab39ab6107e8899845ad3d59bd9653f200f220920489ca2b5937696c3160203392a3005b60046040517f0df0273a000000000000000000000000000000000000000000000000000000008152fd5b3461033e576119b66119b1366108fb565b6127fb565b6040929192805193849384526119d86020916060838701526060860190610549565b90848203838601528080855193848152019401926000905b8382106119fd5786860387f35b845180516001600160a01b03168752830151868401528796509485019493820193600191909101906119f0565b3461033e57600060031936011261033e57602060ff609454166040519015158152f35b3461033e57604060031936011261033e57610711602435600435613874565b3461033e57604060031936011261033e57600435611a8981610690565b611ac76020611aa361099f6091546001600160a01b031690565b60055490604051808095819463038ab08560e11b8352600483019190602083019252565b03915afa8015610b4557600191600091611b23575b50611ae6816127db565b03611af957610711906024359033613b91565b60046040517ff331f3c1000000000000000000000000000000000000000000000000000000008152fd5b611b3b915060203d8111610b9857610b8a8183610d74565b38611adc565b3461033e57608060031936011261033e57600435611b5e81610690565b602435611b6a81610690565b6064359167ffffffffffffffff831161033e573660238401121561033e57611b9f61071193369060248160040135910161122e565b9160443591613f60565b3461033e57600060031936011261033e5760206001600160a01b0360065416604051908152f35b3461033e5760208060031936011261033e576004359067ffffffffffffffff821161033e573660238301121561033e57816004013591611c0f83610e07565b91604093611c1f85519485610d74565b80845260248285019160061b8401019236841161033e57602401905b838210611c4b57610711856136b1565b858236031261033e578286918251611c6281610d22565b8435611c6d81610690565b81528285013583820152815201910190611c3b565b3461033e57602060031936011261033e57611ca861099f608f546001600160a01b031690565b6040517f0fab094700000000000000000000000000000000000000000000000000000000815230600482015290602090829060249082905afa908115610b4557600091611d7e575b50600060405180927fda0544aa000000000000000000000000000000000000000000000000000000008252816001600160a01b0381611d39600435600483019190602083019252565b0392165afa8015610b455761039291600091611d5d575b506040519182918261056e565b611d78913d8091833e611d708183610d74565b810190612318565b38611d50565b611d9f915060203d8111611da5575b611d978183610d74565b8101906122c1565b38611cf0565b503d611d8d565b3461033e57604060031936011261033e576001600160a01b03600435611dd181610690565b16600052608d602052604060002060243560005260205260206001600160e01b036117516040600020615483565b3461033e57604060031936011261033e57600435600052608e6020526020610f5060243560406000206152ac565b3461033e57606060031936011261033e576001600160a01b03600435611e5281610690565b16600052608d60205260406000206024356000526020526020610f5060443560406000206152ac565b91908252611e956020916060838501526060840190610549565b90604092838184039101528080855193848152019401926000905b838210611ebf57505050505090565b845180516001600160a01b03168752830151868401529485019493820193600190910190611eb0565b3461033e576020600319818136011261033e576004359067ffffffffffffffff821161033e576101a090823603011261033e57611f36611f2f610164830183600401612694565b369161122e565b60405190611f4382610d22565b6001825260005b848110611f8e57509061039291610124946000611f65610db8565b30815291820152611f7583612354565b52611f7f82612354565b50604051948594013584611e7b565b8490611f98612733565b82828601015201611f4a565b60031960208136011261033e576004359067ffffffffffffffff821161033e5761020090823603011261033e57600554341590811591612030575b8115612021575b50611ff75761071190600401614cca565b60046040517fc715ec6c000000000000000000000000000000000000000000000000000000008152fd5b90506024820135141538611fe6565b905061204761099f6006546001600160a01b031690565b6040517f6e49181f0000000000000000000000000000000000000000000000000000000081526004810183905233602482015290602090829060449082905afa908115610b455760009161209e575b501590611fdf565b6120b6915060203d8111610d0557610cf78183610d74565b38612096565b3461033e5760008060031936011261065e5760405190806096546120df81610ff8565b80855291600191808316908115610634575060011461210857610392856105ce81870382610d74565b9250609683527f6aa7ec8ac2a999a90ce6c78668dffe4e487e2576a97ca366ec81ecb335af90d05b82841061214b5750505081016020016105ce826103926105be565b80546020858701810191909152909301928101612130565b3461033e57604060031936011261033e57602060ff6121c160043561218781610690565b6001600160a01b036024359161219c83610690565b16600052600484526040600020906001600160a01b0316600052602052604060002090565b54166040519015158152f35b3461033e57602060031936011261033e576004356121ea81610690565b6121f261520c565b6001600160a01b0381161561220a5761071190615264565b608460405162461bcd60e51b815260206004820152602660248201527f4f776e61626c653a206e6577206f776e657220697320746865207a65726f206160448201527f64647265737300000000000000000000000000000000000000000000000000006064820152fd5b60005260086020526001600160a01b038060406000205416806122a1575060026020526040600020541690565b905090565b9081602091031261033e575190565b6040513d6000823e3d90fd5b9081602091031261033e575161057f81610690565b81601f8201121561033e5780516122ec81611212565b926122fa6040519485610d74565b8184526020828401011161033e5761057f9160208085019101610526565b9060208282031261033e57815167ffffffffffffffff811161033e5761057f92016122d6565b634e487b7160e01b600052603260045260246000fd5b8051156123615760200190565b61233e565b80518210156123615760209160051b010190565b634e487b7160e01b600052601160045260246000fd5b906001820180921161239e57565b61237a565b9190820180921161239e57565b9060009180516000915b8183106123c657505050565b9091936123dc6123d68684612366565b51612526565b810180911161239e579360010191906123ba565b51906106af82610690565b51906106af826112e4565b60208183031261033e57805167ffffffffffffffff9182821161033e57016101808184031261033e57612437610dc5565b92815184526020820151602085015260408201516040850152606082015160608501526080820151608085015260a082015160a085015261247a60c083016123f0565b60c085015260e082015160e085015261010080830151908501526101206124a28184016123fb565b908501526101406124b48184016123fb565b90850152610160928383015190811161033e576124d192016122d6565b9082015290565b90600019820191821161239e57565b9190820391821161239e57565b608081101561236157600a0190600090565b8115612510570490565b634e487b7160e01b600052601260045260246000fd5b612579602061254061099f608f546001600160a01b031690565b92604051809381927f42f9914b000000000000000000000000000000000000000000000000000000008352600483019190602083019252565b0381855afa908115610b4557600091612676575b506040516364faa15960e01b8152306004820152602481018290526000604482018190529092839060649082905afa918215610b4557600092612653575b506125ea6125e06125db836124d8565b6124f4565b90549060031b1c90565b90811561264b576060830190612608604083519501948551906124e7565b156126425761263561262461057f9561263c94519051906124e7565b91600052608b602052604060002090565b54906123a3565b90612506565b50505050600090565b505050600090565b61266f91923d8091833e6126678183610d74565b810190612406565b90386125cb565b61268e915060203d8111610b3e57610b308183610d74565b3861258d565b9035907fffffffffffffffffffffffffffffffffffffffffffffffffffffffffffffffe18136030182121561033e570180359067ffffffffffffffff821161033e5760200191813603831361033e57565b9060241161033e5760200190600490565b9060441161033e5760400190600490565b6001600160e01b0319903581811693926004811061272457505050565b60040360031b82901b16169150565b6040519061274082610d22565b60006020838281520152565b6040519061275982610d22565b600182528160005b6020908181101561278357602091612777612733565b90828501015201612761565b505050565b9160608383031261033e5782359260208101356127a48161032c565b92604082013567ffffffffffffffff811161033e5761057f92016115d8565b9081602091031261033e5751600681101561033e5790565b600611156127e557565b634e487b7160e01b600052602160045260246000fd5b90600090816080840135612a8b576101c0840190602461281b8387612694565b9050108015612a61575b610b9f5761283161274c565b9361286661097c612840610db8565b30815294602095848782015261285589612354565b5261285f88612354565b5088612694565b9491505061287f61099f6091546001600160a01b031690565b91604088838251809663038ab08560e11b825281806128aa8760049701358783019190602083019252565b03915afa948515610b45578395612a42575b506128c6856127db565b60019481868214918215612a2a575b8215612a12575b82156129fe575b505061292857505050505050611f2f6129186129249261291261290c608a5460c08a01356123a3565b916123b0565b90615702565b946101a0810190612694565b9190565b949895929190835193829661294861099f608f546001600160a01b031690565b915b86891061296c57505050505050505050611f2f816101a0612924930190612694565b90919293949596979b6129ba90866129848f85612366565b5187518094819263c44a8e6d60e01b83523089840160409060009294936001600160a01b03606083019616825260208201520152565b0381885afa918215610b45578a92899189916129e4575b500151019c01979695949392919061294a565b6129f891503d808b833e6126678183610d74565b386129d1565b909150612a0a816127db565b1481386128e3565b809250612a1f91506127db565b8160058214916128dc565b809250612a3791506127db565b8160028214916128d5565b612a5a919550843d8611610b9857610b8a8183610d74565b93386128bc565b5063d720022d60e01b6001600160e01b0319612a83610bf1610beb868a612694565b161415612825565b60046040517f4fc178d8000000000000000000000000000000000000000000000000000000008152fd5b601f8111612ac1575050565b6000908180527f290decd9548b62a8d60345a988386fc84ba6bc95484008f6362f93160ef3e563906020601f850160051c83019410612b1b575b601f0160051c01915b828110612b1057505050565b818155600101612b04565b9092508290612afb565b601f8111612b31575050565b600090609582527f947035e97d0f7e1937f791bc189f60c984ceaaa7a8494fc67f9f8f4de8ccf2c6906020601f850160051c83019410612b8c575b601f0160051c01915b828110612b8157505050565b818155600101612b75565b9092508290612b6c565b601f8111612ba2575050565b600090609682527f6aa7ec8ac2a999a90ce6c78668dffe4e487e2576a97ca366ec81ecb335af90d0906020601f850160051c83019410612bfd575b601f0160051c01915b828110612bf257505050565b818155600101612be6565b9092508290612bdd565b90601f8211612c14575050565b6001916000908382527fb10e2d527612073b26eecdfd717e6a320cf44b4afac2b0732d9fcbe2b7fa0cf6906020601f850160051c83019410612c71575b601f0160051c01915b828110612c675750505050565b8181558301612c5a565b9092508290612c51565b90815167ffffffffffffffff8111610d3e57612ca181612c9c609554610ff8565b612b25565b602080601f8311600114612cdc5750819293600092612cd1575b50506000198260011b9260031b1c191617609555565b015190503880612cbb565b90601f19831694612d0f60956000527f947035e97d0f7e1937f791bc189f60c984ceaaa7a8494fc67f9f8f4de8ccf2c690565b926000905b878210612d4c575050836001959610612d33575b505050811b01609555565b015160001960f88460031b161c19169055388080612d28565b80600185968294968601518155019501930190612d14565b90815167ffffffffffffffff8111610d3e57612d8a81612d85609654610ff8565b612b96565b602080601f8311600114612dc55750819293600092612dba575b50506000198260011b9260031b1c191617609655565b015190503880612da4565b90601f19831694612df860966000527f6aa7ec8ac2a999a90ce6c78668dffe4e487e2576a97ca366ec81ecb335af90d090565b926000905b878210612e35575050836001959610612e1c575b505050811b01609655565b015160001960f88460031b161c19169055388080612e11565b80600185968294968601518155019501930190612dfd565b90815167ffffffffffffffff8111610d3e57600190612e7581612e708454610ff8565b612c07565b602080601f8311600114612eaf575081929394600092612ea4575b505060001982841b9260031b1c1916179055565b015190503880612e90565b90601f19831695612ee260016000527fb10e2d527612073b26eecdfd717e6a320cf44b4afac2b0732d9fcbe2b7fa0cf690565b926000905b888210612f1d5750508385969710612f04575b505050811b019055565b015160001960f88460031b161c19169055388080612efa565b808785968294968601518155019501930190612ee7565b81601f8201121561033e57805191612f4b83610e07565b92612f596040519485610d74565b808452602092838086019260051b82010192831161033e578301905b828210612f83575050505090565b81518152908301908301612f75565b9060208282031261033e57815167ffffffffffffffff811161033e5761057f9201612f34565b60208082019080835283518092528060408094019401926000905b838210612fe257505050505090565b909192939483610160600192613097895161300c8382516cffffffffffffffffffffffffff169052565b8085015163ffffffff16838601528087015163ffffffff168388015260608181015161ffff16908401526080818101516001600160a01b03169084015260a0818101519084015260c08082015162ffffff169084015260e081810151151590840152610100818101511515908401526101208181015115159084015261014090810151151590830152565b0196019493920190612fd3565b929096989a9b919d959d9c9394979c6001600160a01b039b8c7f000000000000000000000000000000000000000000000000000000000000000016301461033e578c6130fb61099f608f546001600160a01b031690565b1661033e5761313f61319d976131236131659565ffffffffffff956131b99d6131819a614af4565b6001600160a01b03166001600160a01b03196090541617609055565b61315f8c6001600160a01b03166001600160a01b0319608f541617608f55565b16609355565b6001600160a01b03166001600160a01b03196091541617609155565b6001600160a01b03166001600160a01b03196092541617609255565b6001600160a01b03166001600160a01b03196097541617609755565b80516133b2575b5080516133a3575b5081851661332b575b61320f94501691604051907f8da5e32b0000000000000000000000000000000000000000000000000000000082528180600096879360048301612fb8565b038183875af18015610b4557613309575b508051151580156132fc575b80156132ef575b80156132e2575b61324b575b5050506106af33615264565b813b156132de57604080517fcb827e3200000000000000000000000000000000000000000000000000000000815282511515600482015260208301511515602482015290820151151560448201526060909101511515606482015291908290608490829084905af18015610b45576132c5575b808061323f565b806132d26132d892610d43565b8061051b565b386132be565b8280fd5b506060810151151561323a565b5060408101511515613233565b506020810151151561322c565b613324903d8086833e61331c8183610d74565b810190612f92565b5038613220565b818116803b1561033e576040517fd84a72c00000000000000000000000000000000000000000000000000000000081526001600160a01b039690961660048701526000908690602490829084905af1948515610b455761320f95613390575b506131d1565b806132d261339d92610d43565b3861338a565b6133ac90612d64565b386131c8565b6133bb90612c7b565b386131c0565b6133c961520c565b6133de61099f6091546001600160a01b031690565b600554916040918251809163038ab08560e11b82526020928391818061340d60049a8b83019190602083019252565b03915afa908115610b4557600091613675575b5061342a816127db565b6003810361364c5760945460ff1661362357613445816127db565b846005821491821561360f575b50506135e75761346d61099f608f546001600160a01b031690565b9080845180937ff1bea54f00000000000000000000000000000000000000000000000000000000825281806134b4308b83019190916001600160a01b036020820193169052565b03915afa918215610b45576000926135c8575b50909160009181519183945b8386106135245750505050633b9aca009150116134fe5750506106af600160ff196094541617609455565b517f6ff44e97000000000000000000000000000000000000000000000000000000008152fd5b90919293816135338785612366565b5151116135a0576135946001916135808661354e8a88612366565b5101516135686125db6135618c8a612366565b51516124d8565b90919060001983549160031b92831b921b1916179055565b8561358b8987612366565b510151906123a3565b950194939291906134d3565b8787517f52385374000000000000000000000000000000000000000000000000000000008152fd5b816135e09293503d8411610b3e57610b308183610d74565b90386134c7565b5050517f6fb84075000000000000000000000000000000000000000000000000000000008152fd5b90915061361b816127db565b148438613452565b505050517f38101407000000000000000000000000000000000000000000000000000000008152fd5b505050517f03ce4502000000000000000000000000000000000000000000000000000000008152fd5b61368c9150823d8411610b9857610b8a8183610d74565b38613420565b9081602091031261033e575161057f816112e4565b3561057f81610690565b6136c661099f6091546001600160a01b031690565b6005546040805163038ab08560e11b8152600480820193909352939290916020918290869060249082905afa948515610b45576000956137ce575b5061370b856127db565b60018095036137a75783519361371f612733565b5060005b8581106137335750505050505050565b61373d8183612366565b5161375261099f82516001600160a01b031690565b1561377f5790613779828661376f8b95516001600160a01b031690565b9101519033613b91565b01613723565b8386517f53d304f4000000000000000000000000000000000000000000000000000000008152fd5b82517ff331f3c1000000000000000000000000000000000000000000000000000000008152fd5b6137e6919550823d8411610b9857610b8a8183610d74565b9338613701565b908161012091031261033e57613801610de6565b90805182526020810151602083015260408101516040830152606081015160608301526080810151608083015260a081015160a083015260c081015160c083015261384e60e082016123f0565b60e0830152610100809101519082015290565b8181029291811591840414171561239e57565b9061388a61099f6090546001600160a01b031690565b916138b960055493604094855180926321d1336160e11b82528180610120968795600483019190602083019252565b03915afa918215610b45576138ea9260ff9261010092600092613b64575b5050015160f41c1660018091811c161490565b613b3b5761390361099f608f546001600160a01b031690565b83517f136e651c000000000000000000000000000000000000000000000000000000008152306004820152602481018390529290602090849060449082905afa928315610b4557600093613b1b575b506001600160a01b039081613990610a4d85613981886001600160a01b0316600052608c602052604060002090565b90600052602052604060002090565b1615613afa575b6139ac61099f608f546001600160a01b031690565b85517fbaa7e80e000000000000000000000000000000000000000000000000000000008152600481018590526024810183905292906000908490604490829084905af1928315610b4557600093613adf575b5060005b828110613a90575050506000613a2361099f608f546001600160a01b031690565b94516364faa15960e01b8152306004820152602481018490526000604482015294859060649082905afa908115610b45576080613a71926106af96600091613a77575b500151905190613861565b91613c79565b613a8a913d8091833e6126678183610d74565b38613a66565b80613a9d60019286612366565b51613aa88189614038565b88513381528489169188917f031e1988c95a91ec4d655ff63a8f87a80bc9daf28d95ae10ee08c0022cfb5c8b90602090a401613a02565b613af391933d8091833e61331c8183610d74565b91386139fe565b613b1683613b106097546001600160a01b031690565b86613b91565b613997565b613b3491935060203d8111611da557611d978183610d74565b9138613952565b600483517fe96092b8000000000000000000000000000000000000000000000000000000008152fd5b613b839250803d10613b8a575b613b7b8183610d74565b8101906137ed565b38806138d7565b503d613b71565b6001600160a01b039081166000818152608c602090815260408083208784528252822080548686166001600160a01b03198216811790925592969195919491939282169291869184847f3134e8a2e6d97e929a7e54011ea5485d7d196dd5f0ba4d4ef95803e8e3fc257f8b80a4608f5416916064604051809481937f2e4d0ea800000000000000000000000000000000000000000000000000000000835230600484015260248301528860448301525afa948515610b45576106af9695613c5a575b5050613d0a565b613c71929550803d10610b3e57610b308183610d74565b923880613c53565b906106af92916000828152608e602052613c9684604083206153ac565b505060406001600160a01b039182841615613cef575b808052608c602052818120858252602052613ce0838383205416946001600160a01b0316600052608c602052604060002090565b85825260205220541690613d0a565b848152608e602052613d038683832061545b565b5050613cac565b9192906001600160a01b03928382169381168481148015613e30575b613e2857859181613db5575b50505082613d41575b50505050565b7fed0c1e94c302bdbbd8bbd6a4fb7c3ed335c2292407cd816eadd075d019d0ce0491613d83613d94926001600160a01b0316600052608d602052604060002090565b8560005260205260406000206153ac565b6040805192835260208301919091523390820152606090a338808080613d3b565b613dd2906001600160a01b0316600052608d602052604060002090565b826000526020527fed0c1e94c302bdbbd8bbd6a4fb7c3ed335c2292407cd816eadd075d019d0ce04613e0885604060002061545b565b6040805192835260208301919091523390820152606090a3833880613d32565b505050505050565b508315613d26565b6001600160a01b03608f5416803b1561033e5760405180927f86bc2be3000000000000000000000000000000000000000000000000000000008252602482016020908160048501528251809152816044850193019160005b828110613ec057505050509181600081819503925af18015610b4557613eb35750565b806132d26106af92610d43565b835185528795509381019392810192600101613e90565b60005260026020526001600160a01b03604060002054168015613ef75790565b60046040517fb49aa3b5000000000000000000000000000000000000000000000000000000008152fd5b613f418160005260026020526001600160a01b0360406000205416151590565b15613ef75760005260036020526001600160a01b036040600020541690565b929190613f6d8233613fb7565b156107135783613f818383613f869761467c565b614a07565b15613f8d57565b60046040517f6deaf836000000000000000000000000000000000000000000000000000000008152fd5b6001600160a01b0380613fc984613ed7565b169281831692848414948515613fff575b50508315613fe9575b50505090565b613ff591929350613f21565b1614388080613fe3565b60ff9295509061402e9160005260046020526040600020906001600160a01b0316600052602052604060002090565b5416923880613fda565b9190916001600160a01b0381169081156141b55761406c8460005260026020526001600160a01b0360406000205416151590565b61418b5783600092818452600260205261409f8360408620906001600160a01b03166001600160a01b0319825416179055565b837fddf252ad1be2c89b69c2b068fc378daa952ba7f163c4a11628f55a4df523b3ef8180a461410c826140dd61099f608f546001600160a01b031690565b60405163c44a8e6d60e01b81523060048201526024810197909752600060448801529591829081906064820190565b0381885afa908115610b45578391614171575b505193803b156132de576040516330b157e560e21b81526004810195909552600060248601526001600160a01b039190911660448501529192918290606490829084905af18015610b4557613eb35750565b61418591503d8085833e6126678183610d74565b3861411f565b60046040517fbad7c30c000000000000000000000000000000000000000000000000000000008152fd5b60046040517f7208af1e000000000000000000000000000000000000000000000000000000008152fd5b9061422c92916141fa61099f608f546001600160a01b031690565b60405163c44a8e6d60e01b81523060048201526024810193909352600060448401819052948590849081906064820190565b0381845afa928315610b455785936142af575b508251813b156142ab576040516330b157e560e21b815260048101919091526001600160a01b0383166024820152600060448201529394908490606490829084905af1928315610b45576106af93614298575b506143b9565b806132d26142a592610d43565b38614292565b8580fd5b6142c49193503d8087833e6126678183610d74565b913861423f565b906143199392916142e761099f608f546001600160a01b031690565b60405163c44a8e6d60e01b81523060048201526024810194909452600060448501819052958690859081906064820190565b0381845afa938415610b4557869461439d575b508351813b15614399576040516330b157e560e21b815260048101919091526001600160a01b038381166024830152841660448201529495908590606490829084905af1938415610b45576106af94614386575b50614425565b806132d261439392610d43565b38614380565b8680fd5b6143b29194503d8088833e6126678183610d74565b923861432c565b6001600160a01b03809116918215612783576106af926080825192015192600091838352608e6020526143ef856040852061545b565b50508252608c60205260408220838352602052604081818420541692808052608c60205281812085825260205220541690613d0a565b916001600160a01b03809316918215613d3b576106af936040608084519401519482841615614485575b6000908152608c602052818120858252602052613ce0838383205416946001600160a01b0316600052608c602052604060002090565b84600052608e60205261449b868360002061545b565b505061444f565b6144ab81613ed7565b906001600160a01b0382169182614510575b8160006106af946144cd836148d3565b8282526002602052604082206001600160a01b031981541690557fddf252ad1be2c89b69c2b068fc378daa952ba7f163c4a11628f55a4df523b3ef8280a46141df565b61452561099f608f546001600160a01b031690565b60405163c44a8e6d60e01b8152306004820152602481018490526000604482018190529091829060649082905afa908115610b45576145729161014091600091614663575b500151151590565b6145df575b8160006106af9461459861099f610a4d856000526008602052604060002090565b156145a7575b945050506144bd565b6145da846145bf856000526008602052604060002090565b906001600160a01b03166001600160a01b0319825416179055565b61459e565b614621926145f861099f6090546001600160a01b031690565b9060055460405180936321d1336160e11b82528180610120998a95600483019190602083019252565b03915afa908115610b45576106af958593600093614645575b505094505050614577565b8161465b92903d10613b8a57613b7b8183610d74565b50388061463a565b614676913d8091833e6126678183610d74565b3861456a565b919061468782613ed7565b6001600160a01b03808516949181168590036148a957821693841561487f5780614712575b6106af9484916146bb836148d3565b8260005260026020526146e8856040600020906001600160a01b03166001600160a01b0319825416179055565b7fddf252ad1be2c89b69c2b068fc378daa952ba7f163c4a11628f55a4df523b3ef600080a46142cb565b61472761099f608f546001600160a01b031690565b60405163c44a8e6d60e01b8152306004820152602481018690526000604482018190529091829060649082905afa908115610b4557614773916101409160009161466357500151151590565b6147c4575b6106af94849161479861099f610a4d856000526008602052604060002090565b156147a7575b915094506146ac565b6147bf846145bf856000526008602052604060002090565b61479e565b6148046147dc61099f6090546001600160a01b031690565b60055460405180926321d1336160e11b82528180610120968795600483019190602083019252565b03915afa918215610b45576148339260ff9261010092600092614862575b5050015160f41c1660018091161490565b156147785760046040517f18cdaf97000000000000000000000000000000000000000000000000000000008152fd5b6148789250803d10613b8a57613b7b8183610d74565b3880614822565b60046040517f2c955427000000000000000000000000000000000000000000000000000000008152fd5b60046040517fa195bc53000000000000000000000000000000000000000000000000000000008152fd5b80600052600360205260406000206001600160a01b0319815416905560006001600160a01b0361490283613ed7565b167f8c5be1e5ebec7d5bd14f71427d1e84f3dd0314c0f7b2291e5b200ac8c7c3b9258280a4565b816000526003602052614956816040600020906001600160a01b03166001600160a01b0319825416179055565b6001600160a01b038061496884613ed7565b169116907f8c5be1e5ebec7d5bd14f71427d1e84f3dd0314c0f7b2291e5b200ac8c7c3b925600080a4565b9081602091031261033e575161057f8161032c565b909261057f94936080936001600160a01b03809216845216602083015260408201528160608201520190610549565b3d15614a02573d906149e882611212565b916149f66040519384610d74565b82523d6000602084013e565b606090565b92909190823b15614aeb57614a5b9260209260006001600160a01b036040518097819682957f150b7a02000000000000000000000000000000000000000000000000000000009b8c855233600486016149a8565b0393165af160009181614abb575b50614aad57614a766149d7565b80519081614aa85760046040517f6deaf836000000000000000000000000000000000000000000000000000000008152fd5b602001fd5b6001600160e01b0319161490565b614add91925060203d8111614ae4575b614ad58183610d74565b810190614993565b9038614a69565b503d614acb565b50505050600190565b91929092805167ffffffffffffffff8111610d3e57600091614b1f82614b1a8554610ff8565b612ab5565b60209081601f8411600114614b8b57509282614b5f93614b6496936106af9998968492614b80575b50506000198260011b9260031b1c1916179055612e4d565b600555565b6001600160a01b03166001600160a01b03196006541617600655565b015190503880614b47565b600080529190601f1984167f290decd9548b62a8d60345a988386fc84ba6bc95484008f6362f93160ef3e5639386905b828210614c0557505093614b6496936106af9998969360019383614b5f9810614bec575b505050811b019055612e4d565b015160001960f88460031b161c19169055388080614bdf565b80600186978294978701518155019601940190614bbb565b9160a08383031261033e5782359260209182820135936040830135614c418161032c565b936060840135614c5081610690565b9360808101359067ffffffffffffffff821161033e57019180601f8401121561033e578235614c7e81610e07565b93614c8c6040519586610d74565b818552838086019260051b82010192831161033e578301905b828210614cb3575050505090565b838091614cbf846112c5565b815201910190614ca5565b9060935460c083013503615047576101e082016044614ce98285612694565b90501180615018575b614cfb57509050565b614d08614d109184612694565b810190614c1d565b9250949250506001600160a01b03809416938415614fe6575b815115614fbc576000808091845197825b898110614d9457505050505050614d649293506080614d5c61018084016136a7565b9201356150f2565b614d6a57565b60046040517f6d5e09a4000000000000000000000000000000000000000000000000000000008152fd5b8988614db5614dae614da6858c612366565b5161ffff1690565b61ffff1690565b8503614ed9575b90614dea610a4d86613981614dd18b966136a7565b6001600160a01b0316600052608c602052604060002090565b88808616918b83159485158096614ece575b614e10575b50505050505050600101614d3a565b879a969791614e1f8b926124d8565b83109283614ea8575b505050600014614e525750505050600191614e42916123a3565b935b905084388088818b8f614e01565b614e79955083614e9b575b505050614e83575b83613a7187614e738c6136a7565b936123a3565b6001600093614e44565b614e968484614e918c6136a7565b613b91565b614e65565b1614159050388881614e5d565b61ffff929350614ec491614ebe614da692612390565b90612366565b1614888d8b614e28565b508383161515614dfc565b5050935090614eee614dae614da68689612366565b10614f9257614f03614dae614da68588612366565b90614f1961099f608f546001600160a01b031690565b6040516364faa15960e01b815230600482015260248101849052600060448201819052909591869060649082905afa948515610b45578a614dea610a4d866139816080614dd19b8f97600091614f79575b5001519a505050505090614dbc565b614f8c913d8091833e6126678183610d74565b38614f6a565b60046040517f9fda363d000000000000000000000000000000000000000000000000000000008152fd5b60046040517f3d04bd1f000000000000000000000000000000000000000000000000000000008152fd5b9350614ffa6097546001600160a01b031690565b80851615615009575b93614d29565b50615013826136a7565b615003565b5063d720022d60e01b6001600160e01b0319615040610bf161503a8588612694565b906126f6565b1614614cf2565b60046040517f79cf85c0000000000000000000000000000000000000000000000000000000008152fd5b919060408382031261033e57825167ffffffffffffffff811161033e5760209161509c918501612f34565b92015190565b929190606084019084526020906060828601528251809152816080860193019160005b8281106150da57505050506040600091930152565b835161ffff16855293810193928101926001016150c5565b92919261510a61099f608f546001600160a01b031690565b9160409081519586947feaa19ab3000000000000000000000000000000000000000000000000000000008652600095869181838161514c888b600484016150a2565b03925af18015610b4557859786916151e4575b50968051955b8681106151755750505050505050565b8061518260019284612366565b5161518d8186614038565b61ffff61519d614da68489612366565b88518a81523360208201526001600160a01b0388169391909216917f598baf7bf150ca2f42be9e9f8f55e81d45f5715c3ff22bf46d697fabec7f31d690604090a401615165565b90506152039197503d8087833e6151fb8183610d74565b810190615071565b9690963861515f565b6001600160a01b0360075416330361522057565b606460405162461bcd60e51b815260206004820152602060248201527f4f776e61626c653a2063616c6c6572206973206e6f7420746865206f776e65726044820152fd5b600754906001600160a01b0380911691826001600160a01b0319821617600755167f8be0079c531659141344cd1fd0a4f28419497f9722a3daafe3b4186f6b6457e0600080a3565b9043811015615368576152be90615687565b90805491600063ffffffff8092165b84821061531457505050816152e457506000919050565b615309615310916152fc6001600160e01b03946124d8565b9060005260206000200190565b5460201c90565b1690565b9091938083169080841860011c820180921161239e578460005282866153458460206000200163ffffffff90541690565b1611156153565750935b91906152cd565b94925061536290612390565b9161534f565b606460405162461bcd60e51b815260206004820152602060248201527f436865636b706f696e74733a20626c6f636b206e6f7420796574206d696e65646044820152fd5b6001600160e01b039291836153c083615483565b1690810180911161239e576153d443615687565b918482116153f1578492836153ea93169161556d565b9316921690565b608460405162461bcd60e51b815260206004820152602760248201527f53616665436173743a2076616c756520646f65736e27742066697420696e203260448201527f32342062697473000000000000000000000000000000000000000000000000006064820152fd5b6001600160e01b0392918361546f83615483565b1690810390811161239e576153d443615687565b80546000918161549557505050600090565b60001992828481011161239e5760209181522001015460201c90565b90815468010000000000000000811015610d3e576001810180845581101561236157600092835260209283902082519284015190931b63ffffffff191663ffffffff9290921691909117910155565b9060405161550d81610d22565b602081935463ffffffff81168352811c910152565b1561552957565b606460405162461bcd60e51b815260206004820152601760248201527f436865636b706f696e743a20696e76616c6964206b65790000000000000000006044820152fd5b9092919283825480151560001461565c579260209291846155a86155a3615596612924986124d8565b8560005260206000200190565b615500565b936155b7855163ffffffff1690565b6155ce63ffffffff91828416928391161115615522565b6155e86155df875163ffffffff1690565b63ffffffff1690565b036156265750615618926152fc6155fe926124d8565b9063ffffffff63ffffffff1983549260201b169116179055565b01516001600160e01b031690565b91505061565791615644615638610db8565b63ffffffff9093168352565b6001600160e01b038816828601526154b1565b615618565b50506156819161566d615638610db8565b6001600160e01b03851660208301526154b1565b60009190565b63ffffffff90818111615698571690565b608460405162461bcd60e51b815260206004820152602660248201527f53616665436173743a2076616c756520646f65736e27742066697420696e203360448201527f32206269747300000000000000000000000000000000000000000000000000006064820152fd5b91906000198184098184029182808310920391808303921461579a57633b9aca009081831015615763577f88f2cfb83100cb4e69e7c79c58b316e597157d372fb9787e8e47ce423a2e9c6d94950990828211900360f71b910360091c170290565b60448383604051917f773cc18c00000000000000000000000000000000000000000000000000000000835260048301526024820152fd5b5050633b9aca009004915056fea2646970667358221220cc2890416c68679a361900c63ad335dc7e1262881a31d2930ddac6925536ebde64736f6c63430008140033",
    "linkReferences": {}
  },
  "methodIdentifiers": {
    "TOTAL_REDEMPTION_WEIGHT()": "640abacd",
    "approve(address,uint256)": "095ea7b3",
    "balanceOf(address)": "70a08231",
    "baseURI()": "6c0360eb",
    "codeOrigin()": "1d153ca4",
    "contractURI()": "e8a3d485",
    "defaultVotingDelegate()": "174e3e05",
    "didPay((address,uint256,uint256,(address,uint256,uint256,uint256),(address,uint256,uint256,uint256),uint256,address,bool,string,bytes))": "da9ee8b7",
    "didRedeem((address,uint256,uint256,uint256,(address,uint256,uint256,uint256),(address,uint256,uint256,uint256),address,string,bytes))": "2b13c58f",
    "directory()": "c41c2f24",
    "firstOwnerOf(uint256)": "54c6d1f5",
    "fundingCycleStore()": "557e7155",
    "gamePhaseReporter()": "a0b6490c",
    "gamePotReporter()": "7245d80c",
    "getApproved(uint256)": "081812fc",
    "getPastTierTotalVotes(uint256,uint256)": "d31cc52c",
    "getPastTierVotes(address,uint256,uint256)": "d40e7146",
    "getTierDelegate(address,uint256)": "82732b6d",
    "getTierTotalVotes(uint256)": "94c5c5ca",
    "getTierVotes(address,uint256)": "ca323efe",
    "initialize(uint256,address,string,string,address,string,address,string,(uint104,uint32,uint32,uint16,address,bytes32,uint24,bool,bool,bool,bool)[],uint48,address,(bool,bool,bool,bool),address,address,address)": "795e9c9d",
    "isApprovedForAll(address,address)": "e985e9c5",
    "mintReservesFor((uint256,uint256)[])": "2a596e53",
    "mintReservesFor(uint256,uint256)": "aa4fb15b",
    "name()": "06fdde03",
    "owner()": "8da5cb5b",
    "ownerOf(uint256)": "6352211e",
    "payParams((address,address,(address,uint256,uint256,uint256),uint256,uint256,address,uint256,uint256,string,bytes))": "d46cf171",
    "pricingCurrency()": "64640c1e",
    "projectId()": "3fafa127",
    "redeemParams((address,address,uint256,uint256,uint256,uint256,uint256,(address,uint256,uint256,uint256),bool,uint256,string,bytes))": "a51cfd18",
    "redemptionWeightIsSet()": "a8c15f4a",
    "redemptionWeightOf(uint256)": "4f228e11",
    "redemptionWeightOf(uint256[],(address,address,uint256,uint256,uint256,uint256,uint256,(address,uint256,uint256,uint256),bool,uint256,string,bytes))": "7ba62bf9",
    "renounceOwnership()": "715018a6",
    "safeTransferFrom(address,address,uint256)": "42842e0e",
    "safeTransferFrom(address,address,uint256,bytes)": "b88d4fde",
    "setApprovalForAll(address,bool)": "a22cb465",
    "setTierDelegate(address,uint256)": "ab951e39",
    "setTierDelegates((address,uint256)[])": "c74b13d9",
    "setTierRedemptionWeights((uint256,uint256)[])": "2f441500",
    "store()": "975057e7",
    "supportsInterface(bytes4)": "01ffc9a7",
    "symbol()": "95d89b41",
    "tierRedemptionWeights()": "9df45468",
    "tokenURI(uint256)": "c87b56dd",
    "totalRedemptionWeight((address,address,uint256,uint256,uint256,uint256,uint256,(address,uint256,uint256,uint256),bool,uint256,string,bytes))": "9494bf72",
    "transferFrom(address,address,uint256)": "23b872dd",
    "transferOwnership(address)": "f2fde38b"
  },
  "id": 0
}