{
  "abi": [
    {
      "inputs": [],
      "stateMutability": "nonpayable",
      "type": "constructor"
    },
    {
      "inputs": [],
      "name": "ALEADY_MINTED",
      "type": "error"
    },
    {
      "inputs": [],
      "name": "APPROVAL_TO_CURRENT_OWNER",
      "type": "error"
    },
    {
      "inputs": [],
      "name": "APPROVE_TO_CALLER",
      "type": "error"
    },
    {
      "inputs": [],
      "name": "BAD_TIER_ORDER",
      "type": "error"
    },
    {
      "inputs": [],
      "name": "CALLER_NOT_OWNER_OR_APPROVED",
      "type": "error"
    },
    {
      "inputs": [],
      "name": "DELEGATE_ADDRESS_ZERO",
      "type": "error"
    },
    {
      "inputs": [],
      "name": "DELEGATE_CHANGES_UNAVAILABLE_IN_THIS_PHASE",
      "type": "error"
    },
    {
      "inputs": [],
      "name": "GAME_ISNT_SCORING_YET",
      "type": "error"
    },
    {
      "inputs": [],
      "name": "INCORRECT_OWNER",
      "type": "error"
    },
    {
      "inputs": [],
      "name": "INVALID_PAYMENT_EVENT",
      "type": "error"
    },
    {
      "inputs": [],
      "name": "INVALID_REDEMPTION_EVENT",
      "type": "error"
    },
    {
      "inputs": [],
      "name": "INVALID_REDEMPTION_METADATA",
      "type": "error"
    },
    {
      "inputs": [],
      "name": "INVALID_REDEMPTION_WEIGHTS",
      "type": "error"
    },
    {
      "inputs": [],
      "name": "INVALID_TIER_ID",
      "type": "error"
    },
    {
      "inputs": [],
      "name": "INVALID_TOKEN_ID",
      "type": "error"
    },
    {
      "inputs": [],
      "name": "MINT_TO_ZERO",
      "type": "error"
    },
    {
      "inputs": [],
      "name": "NOTHING_TO_CLAIM",
      "type": "error"
    },
    {
      "inputs": [],
      "name": "NOTHING_TO_MINT",
      "type": "error"
    },
    {
      "inputs": [],
      "name": "NO_CONTEST",
      "type": "error"
    },
    {
      "inputs": [],
      "name": "OVERSPENDING",
      "type": "error"
    },
    {
      "inputs": [
        {
          "internalType": "uint256",
          "name": "prod1",
          "type": "uint256"
        },
        {
          "internalType": "uint256",
          "name": "denominator",
          "type": "uint256"
        }
      ],
      "name": "PRBMath__MulDivOverflow",
      "type": "error"
    },
    {
      "inputs": [],
      "name": "REDEMPTION_WEIGHTS_ALREADY_SET",
      "type": "error"
    },
    {
      "inputs": [],
      "name": "RESERVED_TOKEN_MINTING_PAUSED",
      "type": "error"
    },
    {
      "inputs": [],
      "name": "TRANSFERS_PAUSED",
      "type": "error"
    },
    {
      "inputs": [],
      "name": "TRANSFER_TO_NON_IMPLEMENTER",
      "type": "error"
    },
    {
      "inputs": [],
      "name": "TRANSFER_TO_ZERO_ADDRESS",
      "type": "error"
    },
    {
      "inputs": [],
      "name": "UNAUTHORIZED",
      "type": "error"
    },
    {
      "inputs": [
        {
          "internalType": "uint256",
          "name": "_tokenId",
          "type": "uint256"
        }
      ],
      "name": "UNAUTHORIZED_TOKEN",
      "type": "error"
    },
    {
      "inputs": [],
      "name": "UNEXPECTED_TOKEN_REDEEMED",
      "type": "error"
    },
    {
      "inputs": [],
      "name": "WRONG_CURRENCY",
      "type": "error"
    },
    {
      "anonymous": false,
      "inputs": [
        {
          "indexed": true,
          "internalType": "address",
          "name": "owner",
          "type": "address"
        },
        {
          "indexed": true,
          "internalType": "address",
          "name": "approved",
          "type": "address"
        },
        {
          "indexed": true,
          "internalType": "uint256",
          "name": "tokenId",
          "type": "uint256"
        }
      ],
      "name": "Approval",
      "type": "event"
    },
    {
      "anonymous": false,
      "inputs": [
        {
          "indexed": true,
          "internalType": "address",
          "name": "owner",
          "type": "address"
        },
        {
          "indexed": true,
          "internalType": "address",
          "name": "operator",
          "type": "address"
        },
        {
          "indexed": false,
          "internalType": "bool",
          "name": "approved",
          "type": "bool"
        }
      ],
      "name": "ApprovalForAll",
      "type": "event"
    },
    {
      "anonymous": false,
      "inputs": [
        {
          "indexed": true,
          "internalType": "address",
          "name": "delegator",
          "type": "address"
        },
        {
          "indexed": true,
          "internalType": "address",
          "name": "fromDelegate",
          "type": "address"
        },
        {
          "indexed": true,
          "internalType": "address",
          "name": "toDelegate",
          "type": "address"
        }
      ],
      "name": "DelegateChanged",
      "type": "event"
    },
    {
      "anonymous": false,
      "inputs": [
        {
          "indexed": true,
          "internalType": "uint256",
          "name": "tokenId",
          "type": "uint256"
        },
        {
          "indexed": true,
          "internalType": "uint256",
          "name": "tierId",
          "type": "uint256"
        },
        {
          "indexed": true,
          "internalType": "address",
          "name": "beneficiary",
          "type": "address"
        },
        {
          "indexed": false,
          "internalType": "uint256",
          "name": "totalAmountContributed",
          "type": "uint256"
        },
        {
          "indexed": false,
          "internalType": "address",
          "name": "caller",
          "type": "address"
        }
      ],
      "name": "Mint",
      "type": "event"
    },
    {
      "anonymous": false,
      "inputs": [
        {
          "indexed": true,
          "internalType": "uint256",
          "name": "tokenId",
          "type": "uint256"
        },
        {
          "indexed": true,
          "internalType": "uint256",
          "name": "tierId",
          "type": "uint256"
        },
        {
          "indexed": true,
          "internalType": "address",
          "name": "beneficiary",
          "type": "address"
        },
        {
          "indexed": false,
          "internalType": "address",
          "name": "caller",
          "type": "address"
        }
      ],
      "name": "MintReservedToken",
      "type": "event"
    },
    {
      "anonymous": false,
      "inputs": [
        {
          "indexed": true,
          "internalType": "address",
          "name": "previousOwner",
          "type": "address"
        },
        {
          "indexed": true,
          "internalType": "address",
          "name": "newOwner",
          "type": "address"
        }
      ],
      "name": "OwnershipTransferred",
      "type": "event"
    },
    {
      "anonymous": false,
      "inputs": [
        {
          "indexed": true,
          "internalType": "address",
          "name": "delegate",
          "type": "address"
        },
        {
          "indexed": true,
          "internalType": "uint256",
          "name": "tierId",
          "type": "uint256"
        },
        {
          "indexed": false,
          "internalType": "uint256",
          "name": "previousBalance",
          "type": "uint256"
        },
        {
          "indexed": false,
          "internalType": "uint256",
          "name": "newBalance",
          "type": "uint256"
        },
        {
          "indexed": false,
          "internalType": "address",
          "name": "caller",
          "type": "address"
        }
      ],
      "name": "TierDelegateAttestationsChanged",
      "type": "event"
    },
    {
      "anonymous": false,
      "inputs": [
        {
          "indexed": true,
          "internalType": "address",
          "name": "from",
          "type": "address"
        },
        {
          "indexed": true,
          "internalType": "address",
          "name": "to",
          "type": "address"
        },
        {
          "indexed": true,
          "internalType": "uint256",
          "name": "tokenId",
          "type": "uint256"
        }
      ],
      "name": "Transfer",
      "type": "event"
    },
    {
      "inputs": [],
      "name": "TOTAL_REDEMPTION_WEIGHT",
      "outputs": [
        {
          "internalType": "uint256",
          "name": "",
          "type": "uint256"
        }
      ],
      "stateMutability": "view",
      "type": "function"
    },
    {
      "inputs": [],
      "name": "amountRedeemed",
      "outputs": [
        {
          "internalType": "uint256",
          "name": "",
          "type": "uint256"
        }
      ],
      "stateMutability": "view",
      "type": "function"
    },
    {
      "inputs": [
        {
          "internalType": "address",
          "name": "to",
          "type": "address"
        },
        {
          "internalType": "uint256",
          "name": "tokenId",
          "type": "uint256"
        }
      ],
      "name": "approve",
      "outputs": [],
      "stateMutability": "nonpayable",
      "type": "function"
    },
    {
      "inputs": [
        {
          "internalType": "address",
          "name": "_owner",
          "type": "address"
        }
      ],
      "name": "balanceOf",
      "outputs": [
        {
          "internalType": "uint256",
          "name": "balance",
          "type": "uint256"
        }
      ],
      "stateMutability": "view",
      "type": "function"
    },
    {
      "inputs": [],
      "name": "baseURI",
      "outputs": [
        {
          "internalType": "string",
          "name": "",
          "type": "string"
        }
      ],
      "stateMutability": "view",
      "type": "function"
    },
    {
      "inputs": [],
      "name": "codeOrigin",
      "outputs": [
        {
          "internalType": "address",
          "name": "",
          "type": "address"
        }
      ],
      "stateMutability": "view",
      "type": "function"
    },
    {
      "inputs": [],
      "name": "contractURI",
      "outputs": [
        {
          "internalType": "string",
          "name": "",
          "type": "string"
        }
      ],
      "stateMutability": "view",
      "type": "function"
    },
    {
      "inputs": [],
      "name": "defaultAttestationDelegate",
      "outputs": [
        {
          "internalType": "address",
          "name": "",
          "type": "address"
        }
      ],
      "stateMutability": "view",
      "type": "function"
    },
    {
      "inputs": [
        {
          "components": [
            {
              "internalType": "address",
              "name": "payer",
              "type": "address"
            },
            {
              "internalType": "uint256",
              "name": "projectId",
              "type": "uint256"
            },
            {
              "internalType": "uint256",
              "name": "currentFundingCycleConfiguration",
              "type": "uint256"
            },
            {
              "components": [
                {
                  "internalType": "address",
                  "name": "token",
                  "type": "address"
                },
                {
                  "internalType": "uint256",
                  "name": "value",
                  "type": "uint256"
                },
                {
                  "internalType": "uint256",
                  "name": "decimals",
                  "type": "uint256"
                },
                {
                  "internalType": "uint256",
                  "name": "currency",
                  "type": "uint256"
                }
              ],
              "internalType": "struct JBTokenAmount",
              "name": "amount",
              "type": "tuple"
            },
            {
              "components": [
                {
                  "internalType": "address",
                  "name": "token",
                  "type": "address"
                },
                {
                  "internalType": "uint256",
                  "name": "value",
                  "type": "uint256"
                },
                {
                  "internalType": "uint256",
                  "name": "decimals",
                  "type": "uint256"
                },
                {
                  "internalType": "uint256",
                  "name": "currency",
                  "type": "uint256"
                }
              ],
              "internalType": "struct JBTokenAmount",
              "name": "forwardedAmount",
              "type": "tuple"
            },
            {
              "internalType": "uint256",
              "name": "projectTokenCount",
              "type": "uint256"
            },
            {
              "internalType": "address",
              "name": "beneficiary",
              "type": "address"
            },
            {
              "internalType": "bool",
              "name": "preferClaimedTokens",
              "type": "bool"
            },
            {
              "internalType": "string",
              "name": "memo",
              "type": "string"
            },
            {
              "internalType": "bytes",
              "name": "metadata",
              "type": "bytes"
            }
          ],
          "internalType": "struct JBDidPayData",
          "name": "_data",
          "type": "tuple"
        }
      ],
      "name": "didPay",
      "outputs": [],
      "stateMutability": "payable",
      "type": "function"
    },
    {
      "inputs": [
        {
          "components": [
            {
              "internalType": "address",
              "name": "holder",
              "type": "address"
            },
            {
              "internalType": "uint256",
              "name": "projectId",
              "type": "uint256"
            },
            {
              "internalType": "uint256",
              "name": "currentFundingCycleConfiguration",
              "type": "uint256"
            },
            {
              "internalType": "uint256",
              "name": "projectTokenCount",
              "type": "uint256"
            },
            {
              "components": [
                {
                  "internalType": "address",
                  "name": "token",
                  "type": "address"
                },
                {
                  "internalType": "uint256",
                  "name": "value",
                  "type": "uint256"
                },
                {
                  "internalType": "uint256",
                  "name": "decimals",
                  "type": "uint256"
                },
                {
                  "internalType": "uint256",
                  "name": "currency",
                  "type": "uint256"
                }
              ],
              "internalType": "struct JBTokenAmount",
              "name": "reclaimedAmount",
              "type": "tuple"
            },
            {
              "components": [
                {
                  "internalType": "address",
                  "name": "token",
                  "type": "address"
                },
                {
                  "internalType": "uint256",
                  "name": "value",
                  "type": "uint256"
                },
                {
                  "internalType": "uint256",
                  "name": "decimals",
                  "type": "uint256"
                },
                {
                  "internalType": "uint256",
                  "name": "currency",
                  "type": "uint256"
                }
              ],
              "internalType": "struct JBTokenAmount",
              "name": "forwardedAmount",
              "type": "tuple"
            },
            {
              "internalType": "address payable",
              "name": "beneficiary",
              "type": "address"
            },
            {
              "internalType": "string",
              "name": "memo",
              "type": "string"
            },
            {
              "internalType": "bytes",
              "name": "metadata",
              "type": "bytes"
            }
          ],
          "internalType": "struct JBDidRedeemData",
          "name": "_data",
          "type": "tuple"
        }
      ],
      "name": "didRedeem",
      "outputs": [],
      "stateMutability": "payable",
      "type": "function"
    },
    {
      "inputs": [],
      "name": "directory",
      "outputs": [
        {
          "internalType": "contract IJBDirectory",
          "name": "",
          "type": "address"
        }
      ],
      "stateMutability": "view",
      "type": "function"
    },
    {
      "inputs": [
        {
          "internalType": "uint256",
          "name": "_tokenId",
          "type": "uint256"
        }
      ],
      "name": "firstOwnerOf",
      "outputs": [
        {
          "internalType": "address",
          "name": "",
          "type": "address"
        }
      ],
      "stateMutability": "view",
      "type": "function"
    },
    {
      "inputs": [],
      "name": "fundingCycleStore",
      "outputs": [
        {
          "internalType": "contract IJBFundingCycleStore",
          "name": "",
          "type": "address"
        }
      ],
      "stateMutability": "view",
      "type": "function"
    },
    {
      "inputs": [],
      "name": "gamePhaseReporter",
      "outputs": [
        {
          "internalType": "contract IDefifaGamePhaseReporter",
          "name": "",
          "type": "address"
        }
      ],
      "stateMutability": "view",
      "type": "function"
    },
    {
      "inputs": [],
      "name": "gamePotReporter",
      "outputs": [
        {
          "internalType": "contract IDefifaGamePotReporter",
          "name": "",
          "type": "address"
        }
      ],
      "stateMutability": "view",
      "type": "function"
    },
    {
      "inputs": [
        {
          "internalType": "uint256",
          "name": "tokenId",
          "type": "uint256"
        }
      ],
      "name": "getApproved",
      "outputs": [
        {
          "internalType": "address",
          "name": "",
          "type": "address"
        }
      ],
      "stateMutability": "view",
      "type": "function"
    },
    {
      "inputs": [
        {
          "internalType": "address",
          "name": "_account",
          "type": "address"
        },
        {
          "internalType": "uint256",
          "name": "_tier",
          "type": "uint256"
        },
        {
          "internalType": "uint256",
          "name": "_blockNumber",
          "type": "uint256"
        }
      ],
      "name": "getPastTierAttestationUnitsOf",
      "outputs": [
        {
          "internalType": "uint256",
          "name": "",
          "type": "uint256"
        }
      ],
      "stateMutability": "view",
      "type": "function"
    },
    {
      "inputs": [
        {
          "internalType": "uint256",
          "name": "_tier",
          "type": "uint256"
        },
        {
          "internalType": "uint256",
          "name": "_blockNumber",
          "type": "uint256"
        }
      ],
      "name": "getPastTierTotalAttestationUnitsOf",
      "outputs": [
        {
          "internalType": "uint256",
          "name": "",
          "type": "uint256"
        }
      ],
      "stateMutability": "view",
      "type": "function"
    },
    {
      "inputs": [
        {
          "internalType": "address",
          "name": "_account",
          "type": "address"
        },
        {
          "internalType": "uint256",
          "name": "_tier",
          "type": "uint256"
        }
      ],
      "name": "getTierAttestationUnitsOf",
      "outputs": [
        {
          "internalType": "uint256",
          "name": "",
          "type": "uint256"
        }
      ],
      "stateMutability": "view",
      "type": "function"
    },
    {
      "inputs": [
        {
          "internalType": "address",
          "name": "_account",
          "type": "address"
        },
        {
          "internalType": "uint256",
          "name": "_tier",
          "type": "uint256"
        }
      ],
      "name": "getTierDelegateOf",
      "outputs": [
        {
          "internalType": "address",
          "name": "",
          "type": "address"
        }
      ],
      "stateMutability": "view",
      "type": "function"
    },
    {
      "inputs": [
        {
          "internalType": "uint256",
          "name": "_tier",
          "type": "uint256"
        }
      ],
      "name": "getTierTotalAttestationUnitsOf",
      "outputs": [
        {
          "internalType": "uint256",
          "name": "",
          "type": "uint256"
        }
      ],
      "stateMutability": "view",
      "type": "function"
    },
    {
      "inputs": [
        {
          "internalType": "uint256",
          "name": "_gameId",
          "type": "uint256"
        },
        {
          "internalType": "contract IJBDirectory",
          "name": "_directory",
          "type": "address"
        },
        {
          "internalType": "string",
          "name": "_name",
          "type": "string"
        },
        {
          "internalType": "string",
          "name": "_symbol",
          "type": "string"
        },
        {
          "internalType": "contract IJBFundingCycleStore",
          "name": "_fundingCycleStore",
          "type": "address"
        },
        {
          "internalType": "string",
          "name": "_baseUri",
          "type": "string"
        },
        {
          "internalType": "contract IJB721TokenUriResolver",
          "name": "_tokenUriResolver",
          "type": "address"
        },
        {
          "internalType": "string",
          "name": "_contractUri",
          "type": "string"
        },
        {
          "components": [
            {
              "internalType": "uint104",
              "name": "price",
              "type": "uint104"
            },
            {
              "internalType": "uint32",
              "name": "initialQuantity",
              "type": "uint32"
            },
            {
              "internalType": "uint32",
              "name": "votingUnits",
              "type": "uint32"
            },
            {
              "internalType": "uint16",
              "name": "reservedRate",
              "type": "uint16"
            },
            {
              "internalType": "address",
              "name": "reservedTokenBeneficiary",
              "type": "address"
            },
            {
              "internalType": "bytes32",
              "name": "encodedIPFSUri",
              "type": "bytes32"
            },
            {
              "internalType": "uint24",
              "name": "category",
              "type": "uint24"
            },
            {
              "internalType": "bool",
              "name": "allowManualMint",
              "type": "bool"
            },
            {
              "internalType": "bool",
              "name": "shouldUseReservedTokenBeneficiaryAsDefault",
              "type": "bool"
            },
            {
              "internalType": "bool",
              "name": "transfersPausable",
              "type": "bool"
            },
            {
              "internalType": "bool",
              "name": "useVotingUnits",
              "type": "bool"
            }
          ],
          "internalType": "struct JB721TierParams[]",
          "name": "_tiers",
          "type": "tuple[]"
        },
        {
          "internalType": "uint48",
          "name": "_currency",
          "type": "uint48"
        },
        {
          "internalType": "contract IJBTiered721DelegateStore",
          "name": "_store",
          "type": "address"
        },
        {
          "internalType": "contract IDefifaGamePhaseReporter",
          "name": "_gamePhaseReporter",
          "type": "address"
        },
        {
          "internalType": "contract IDefifaGamePotReporter",
          "name": "_gamePotReporter",
          "type": "address"
        },
        {
          "internalType": "address",
          "name": "_defaultAttestationDelegate",
          "type": "address"
        },
        {
          "internalType": "string[]",
          "name": "_tierNames",
          "type": "string[]"
        }
      ],
      "name": "initialize",
      "outputs": [],
      "stateMutability": "nonpayable",
      "type": "function"
    },
    {
      "inputs": [
        {
          "internalType": "address",
          "name": "owner",
          "type": "address"
        },
        {
          "internalType": "address",
          "name": "operator",
          "type": "address"
        }
      ],
      "name": "isApprovedForAll",
      "outputs": [
        {
          "internalType": "bool",
          "name": "",
          "type": "bool"
        }
      ],
      "stateMutability": "view",
      "type": "function"
    },
    {
      "inputs": [
        {
          "components": [
            {
              "internalType": "uint256",
              "name": "tierId",
              "type": "uint256"
            },
            {
              "internalType": "uint256",
              "name": "count",
              "type": "uint256"
            }
          ],
          "internalType": "struct JBTiered721MintReservesForTiersData[]",
          "name": "_mintReservesForTiersData",
          "type": "tuple[]"
        }
      ],
      "name": "mintReservesFor",
      "outputs": [],
      "stateMutability": "nonpayable",
      "type": "function"
    },
    {
      "inputs": [
        {
          "internalType": "uint256",
          "name": "_tierId",
          "type": "uint256"
        },
        {
          "internalType": "uint256",
          "name": "_count",
          "type": "uint256"
        }
      ],
      "name": "mintReservesFor",
      "outputs": [],
      "stateMutability": "nonpayable",
      "type": "function"
    },
    {
      "inputs": [],
      "name": "name",
      "outputs": [
        {
          "internalType": "string",
          "name": "",
          "type": "string"
        }
      ],
      "stateMutability": "view",
      "type": "function"
    },
    {
      "inputs": [],
      "name": "owner",
      "outputs": [
        {
          "internalType": "address",
          "name": "",
          "type": "address"
        }
      ],
      "stateMutability": "view",
      "type": "function"
    },
    {
      "inputs": [
        {
          "internalType": "uint256",
          "name": "tokenId",
          "type": "uint256"
        }
      ],
      "name": "ownerOf",
      "outputs": [
        {
          "internalType": "address",
          "name": "",
          "type": "address"
        }
      ],
      "stateMutability": "view",
      "type": "function"
    },
    {
      "inputs": [
        {
          "components": [
            {
              "internalType": "contract IJBPaymentTerminal",
              "name": "terminal",
              "type": "address"
            },
            {
              "internalType": "address",
              "name": "payer",
              "type": "address"
            },
            {
              "components": [
                {
                  "internalType": "address",
                  "name": "token",
                  "type": "address"
                },
                {
                  "internalType": "uint256",
                  "name": "value",
                  "type": "uint256"
                },
                {
                  "internalType": "uint256",
                  "name": "decimals",
                  "type": "uint256"
                },
                {
                  "internalType": "uint256",
                  "name": "currency",
                  "type": "uint256"
                }
              ],
              "internalType": "struct JBTokenAmount",
              "name": "amount",
              "type": "tuple"
            },
            {
              "internalType": "uint256",
              "name": "projectId",
              "type": "uint256"
            },
            {
              "internalType": "uint256",
              "name": "currentFundingCycleConfiguration",
              "type": "uint256"
            },
            {
              "internalType": "address",
              "name": "beneficiary",
              "type": "address"
            },
            {
              "internalType": "uint256",
              "name": "weight",
              "type": "uint256"
            },
            {
              "internalType": "uint256",
              "name": "reservedRate",
              "type": "uint256"
            },
            {
              "internalType": "string",
              "name": "memo",
              "type": "string"
            },
            {
              "internalType": "bytes",
              "name": "metadata",
              "type": "bytes"
            }
          ],
          "internalType": "struct JBPayParamsData",
          "name": "_data",
          "type": "tuple"
        }
      ],
      "name": "payParams",
      "outputs": [
        {
          "internalType": "uint256",
          "name": "weight",
          "type": "uint256"
        },
        {
          "internalType": "string",
          "name": "memo",
          "type": "string"
        },
        {
          "components": [
            {
              "internalType": "contract IJBPayDelegate",
              "name": "delegate",
              "type": "address"
            },
            {
              "internalType": "uint256",
              "name": "amount",
              "type": "uint256"
            }
          ],
          "internalType": "struct JBPayDelegateAllocation[]",
          "name": "delegateAllocations",
          "type": "tuple[]"
        }
      ],
      "stateMutability": "view",
      "type": "function"
    },
    {
      "inputs": [],
      "name": "pricingCurrency",
      "outputs": [
        {
          "internalType": "uint256",
          "name": "",
          "type": "uint256"
        }
      ],
      "stateMutability": "view",
      "type": "function"
    },
    {
      "inputs": [],
      "name": "projectId",
      "outputs": [
        {
          "internalType": "uint256",
          "name": "",
          "type": "uint256"
        }
      ],
      "stateMutability": "view",
      "type": "function"
    },
    {
      "inputs": [
        {
          "components": [
            {
              "internalType": "contract IJBPaymentTerminal",
              "name": "terminal",
              "type": "address"
            },
            {
              "internalType": "address",
              "name": "holder",
              "type": "address"
            },
            {
              "internalType": "uint256",
              "name": "projectId",
              "type": "uint256"
            },
            {
              "internalType": "uint256",
              "name": "currentFundingCycleConfiguration",
              "type": "uint256"
            },
            {
              "internalType": "uint256",
              "name": "tokenCount",
              "type": "uint256"
            },
            {
              "internalType": "uint256",
              "name": "totalSupply",
              "type": "uint256"
            },
            {
              "internalType": "uint256",
              "name": "overflow",
              "type": "uint256"
            },
            {
              "components": [
                {
                  "internalType": "address",
                  "name": "token",
                  "type": "address"
                },
                {
                  "internalType": "uint256",
                  "name": "value",
                  "type": "uint256"
                },
                {
                  "internalType": "uint256",
                  "name": "decimals",
                  "type": "uint256"
                },
                {
                  "internalType": "uint256",
                  "name": "currency",
                  "type": "uint256"
                }
              ],
              "internalType": "struct JBTokenAmount",
              "name": "reclaimAmount",
              "type": "tuple"
            },
            {
              "internalType": "bool",
              "name": "useTotalOverflow",
              "type": "bool"
            },
            {
              "internalType": "uint256",
              "name": "redemptionRate",
              "type": "uint256"
            },
            {
              "internalType": "string",
              "name": "memo",
              "type": "string"
            },
            {
              "internalType": "bytes",
              "name": "metadata",
              "type": "bytes"
            }
          ],
          "internalType": "struct JBRedeemParamsData",
          "name": "_data",
          "type": "tuple"
        }
      ],
      "name": "redeemParams",
      "outputs": [
        {
          "internalType": "uint256",
          "name": "reclaimAmount",
          "type": "uint256"
        },
        {
          "internalType": "string",
          "name": "memo",
          "type": "string"
        },
        {
          "components": [
            {
              "internalType": "contract IJBRedemptionDelegate",
              "name": "delegate",
              "type": "address"
            },
            {
              "internalType": "uint256",
              "name": "amount",
              "type": "uint256"
            }
          ],
          "internalType": "struct JBRedemptionDelegateAllocation[]",
          "name": "delegateAllocations",
          "type": "tuple[]"
        }
      ],
      "stateMutability": "view",
      "type": "function"
    },
    {
      "inputs": [],
      "name": "redemptionWeightIsSet",
      "outputs": [
        {
          "internalType": "bool",
          "name": "",
          "type": "bool"
        }
      ],
      "stateMutability": "view",
      "type": "function"
    },
    {
      "inputs": [
        {
          "internalType": "uint256",
          "name": "_tokenId",
          "type": "uint256"
        }
      ],
      "name": "redemptionWeightOf",
      "outputs": [
        {
          "internalType": "uint256",
          "name": "",
          "type": "uint256"
        }
      ],
      "stateMutability": "view",
      "type": "function"
    },
    {
      "inputs": [
        {
          "internalType": "uint256[]",
          "name": "_tokenIds",
          "type": "uint256[]"
        },
        {
          "components": [
            {
              "internalType": "contract IJBPaymentTerminal",
              "name": "terminal",
              "type": "address"
            },
            {
              "internalType": "address",
              "name": "holder",
              "type": "address"
            },
            {
              "internalType": "uint256",
              "name": "projectId",
              "type": "uint256"
            },
            {
              "internalType": "uint256",
              "name": "currentFundingCycleConfiguration",
              "type": "uint256"
            },
            {
              "internalType": "uint256",
              "name": "tokenCount",
              "type": "uint256"
            },
            {
              "internalType": "uint256",
              "name": "totalSupply",
              "type": "uint256"
            },
            {
              "internalType": "uint256",
              "name": "overflow",
              "type": "uint256"
            },
            {
              "components": [
                {
                  "internalType": "address",
                  "name": "token",
                  "type": "address"
                },
                {
                  "internalType": "uint256",
                  "name": "value",
                  "type": "uint256"
                },
                {
                  "internalType": "uint256",
                  "name": "decimals",
                  "type": "uint256"
                },
                {
                  "internalType": "uint256",
                  "name": "currency",
                  "type": "uint256"
                }
              ],
              "internalType": "struct JBTokenAmount",
              "name": "reclaimAmount",
              "type": "tuple"
            },
            {
              "internalType": "bool",
              "name": "useTotalOverflow",
              "type": "bool"
            },
            {
              "internalType": "uint256",
              "name": "redemptionRate",
              "type": "uint256"
            },
            {
              "internalType": "string",
              "name": "memo",
              "type": "string"
            },
            {
              "internalType": "bytes",
              "name": "metadata",
              "type": "bytes"
            }
          ],
          "internalType": "struct JBRedeemParamsData",
          "name": "",
          "type": "tuple"
        }
      ],
      "name": "redemptionWeightOf",
      "outputs": [
        {
          "internalType": "uint256",
          "name": "cumulativeWeight",
          "type": "uint256"
        }
      ],
      "stateMutability": "view",
      "type": "function"
    },
    {
      "inputs": [],
      "name": "renounceOwnership",
      "outputs": [],
      "stateMutability": "nonpayable",
      "type": "function"
    },
    {
      "inputs": [
        {
          "internalType": "address",
          "name": "from",
          "type": "address"
        },
        {
          "internalType": "address",
          "name": "to",
          "type": "address"
        },
        {
          "internalType": "uint256",
          "name": "tokenId",
          "type": "uint256"
        }
      ],
      "name": "safeTransferFrom",
      "outputs": [],
      "stateMutability": "nonpayable",
      "type": "function"
    },
    {
      "inputs": [
        {
          "internalType": "address",
          "name": "from",
          "type": "address"
        },
        {
          "internalType": "address",
          "name": "to",
          "type": "address"
        },
        {
          "internalType": "uint256",
          "name": "tokenId",
          "type": "uint256"
        },
        {
          "internalType": "bytes",
          "name": "data",
          "type": "bytes"
        }
      ],
      "name": "safeTransferFrom",
      "outputs": [],
      "stateMutability": "nonpayable",
      "type": "function"
    },
    {
      "inputs": [
        {
          "internalType": "address",
          "name": "operator",
          "type": "address"
        },
        {
          "internalType": "bool",
          "name": "approved",
          "type": "bool"
        }
      ],
      "name": "setApprovalForAll",
      "outputs": [],
      "stateMutability": "nonpayable",
      "type": "function"
    },
    {
      "inputs": [
        {
          "internalType": "address",
          "name": "_delegatee",
          "type": "address"
        },
        {
          "internalType": "uint256",
          "name": "_tierId",
          "type": "uint256"
        }
      ],
      "name": "setTierDelegateTo",
      "outputs": [],
      "stateMutability": "nonpayable",
      "type": "function"
    },
    {
      "inputs": [
        {
          "components": [
            {
              "internalType": "address",
              "name": "delegatee",
              "type": "address"
            },
            {
              "internalType": "uint256",
              "name": "tierId",
              "type": "uint256"
            }
          ],
          "internalType": "struct JBTiered721SetTierDelegatesData[]",
          "name": "_setTierDelegatesData",
          "type": "tuple[]"
        }
      ],
      "name": "setTierDelegatesTo",
      "outputs": [],
      "stateMutability": "nonpayable",
      "type": "function"
    },
    {
      "inputs": [
        {
          "components": [
            {
              "internalType": "uint256",
              "name": "id",
              "type": "uint256"
            },
            {
              "internalType": "uint256",
              "name": "redemptionWeight",
              "type": "uint256"
            }
          ],
          "internalType": "struct DefifaTierRedemptionWeight[]",
          "name": "_tierWeights",
          "type": "tuple[]"
        }
      ],
      "name": "setTierRedemptionWeightsTo",
      "outputs": [],
      "stateMutability": "nonpayable",
      "type": "function"
    },
    {
      "inputs": [],
      "name": "store",
      "outputs": [
        {
          "internalType": "contract IJBTiered721DelegateStore",
          "name": "",
          "type": "address"
        }
      ],
      "stateMutability": "view",
      "type": "function"
    },
    {
      "inputs": [
        {
          "internalType": "bytes4",
          "name": "_interfaceId",
          "type": "bytes4"
        }
      ],
      "name": "supportsInterface",
      "outputs": [
        {
          "internalType": "bool",
          "name": "",
          "type": "bool"
        }
      ],
      "stateMutability": "view",
      "type": "function"
    },
    {
      "inputs": [],
      "name": "symbol",
      "outputs": [
        {
          "internalType": "string",
          "name": "",
          "type": "string"
        }
      ],
      "stateMutability": "view",
      "type": "function"
    },
    {
      "inputs": [
        {
          "internalType": "uint256",
          "name": "_tierId",
          "type": "uint256"
        }
      ],
      "name": "tierNameOf",
      "outputs": [
        {
          "internalType": "string",
          "name": "",
          "type": "string"
        }
      ],
      "stateMutability": "view",
      "type": "function"
    },
    {
      "inputs": [],
      "name": "tierRedemptionWeights",
      "outputs": [
        {
          "internalType": "uint256[128]",
          "name": "",
          "type": "uint256[128]"
        }
      ],
      "stateMutability": "view",
      "type": "function"
    },
    {
      "inputs": [
        {
          "internalType": "uint256",
          "name": "_tokenId",
          "type": "uint256"
        }
      ],
      "name": "tokenURI",
      "outputs": [
        {
          "internalType": "string",
          "name": "",
          "type": "string"
        }
      ],
      "stateMutability": "view",
      "type": "function"
    },
    {
      "inputs": [
        {
          "internalType": "uint256",
          "name": "",
          "type": "uint256"
        }
      ],
      "name": "tokensRedeemedFrom",
      "outputs": [
        {
          "internalType": "uint256",
          "name": "",
          "type": "uint256"
        }
      ],
      "stateMutability": "view",
      "type": "function"
    },
    {
      "inputs": [
        {
          "components": [
            {
              "internalType": "contract IJBPaymentTerminal",
              "name": "terminal",
              "type": "address"
            },
            {
              "internalType": "address",
              "name": "holder",
              "type": "address"
            },
            {
              "internalType": "uint256",
              "name": "projectId",
              "type": "uint256"
            },
            {
              "internalType": "uint256",
              "name": "currentFundingCycleConfiguration",
              "type": "uint256"
            },
            {
              "internalType": "uint256",
              "name": "tokenCount",
              "type": "uint256"
            },
            {
              "internalType": "uint256",
              "name": "totalSupply",
              "type": "uint256"
            },
            {
              "internalType": "uint256",
              "name": "overflow",
              "type": "uint256"
            },
            {
              "components": [
                {
                  "internalType": "address",
                  "name": "token",
                  "type": "address"
                },
                {
                  "internalType": "uint256",
                  "name": "value",
                  "type": "uint256"
                },
                {
                  "internalType": "uint256",
                  "name": "decimals",
                  "type": "uint256"
                },
                {
                  "internalType": "uint256",
                  "name": "currency",
                  "type": "uint256"
                }
              ],
              "internalType": "struct JBTokenAmount",
              "name": "reclaimAmount",
              "type": "tuple"
            },
            {
              "internalType": "bool",
              "name": "useTotalOverflow",
              "type": "bool"
            },
            {
              "internalType": "uint256",
              "name": "redemptionRate",
              "type": "uint256"
            },
            {
              "internalType": "string",
              "name": "memo",
              "type": "string"
            },
            {
              "internalType": "bytes",
              "name": "metadata",
              "type": "bytes"
            }
          ],
          "internalType": "struct JBRedeemParamsData",
          "name": "",
          "type": "tuple"
        }
      ],
      "name": "totalRedemptionWeight",
      "outputs": [
        {
          "internalType": "uint256",
          "name": "",
          "type": "uint256"
        }
      ],
      "stateMutability": "view",
      "type": "function"
    },
    {
      "inputs": [
        {
          "internalType": "address",
          "name": "from",
          "type": "address"
        },
        {
          "internalType": "address",
          "name": "to",
          "type": "address"
        },
        {
          "internalType": "uint256",
          "name": "tokenId",
          "type": "uint256"
        }
      ],
      "name": "transferFrom",
      "outputs": [],
      "stateMutability": "nonpayable",
      "type": "function"
    },
    {
      "inputs": [
        {
          "internalType": "address",
          "name": "newOwner",
          "type": "address"
        }
      ],
      "name": "transferOwnership",
      "outputs": [],
      "stateMutability": "nonpayable",
      "type": "function"
    }
  ],
  "bytecode": {
    "object": "0x60a0806040523461006e5760078054336001600160a01b0319821681179092556001600160a01b03167f8be0079c531659141344cd1fd0a4f28419497f9722a3daafe3b4186f6b6457e0600080a330608052615aa090816200007482396080518181816109ac01526132fc0152f35b600080fdfe6080604052600436101561001257600080fd5b60003560e01c806301ffc9a71461035757806306fdde031461035257806307405b241461034d578063081812fc14610348578063095ea7b3146103435780631baabc3e1461033e5780631d153ca41461033957806323b872dd1461033457806327f6e9791461032f5780632a596e531461032a5780632b13c58f146103255780633900c6f9146103205780633fafa1271461031b57806342842e0e146103165780634f228e111461031157806354c6d1f51461030c578063557e7155146103075780636352211e14610302578063640abacd146102fd57806364640c1e146102f85780636c0360eb146102f357806370a08231146102ee578063715018a6146102e95780637245d80c146102e4578063743682b5146102df5780637ba62bf9146102da5780637f989887146102d55780638da5cb5b146102d05780639494bf72146102cb57806395d89b41146102c6578063975057e7146102c15780639c8c6cd5146102bc5780639df45468146102b7578063a0b6490c146102b2578063a22cb465146102ad578063a51cfd18146102a8578063a8c15f4a146102a3578063aa4fb15b1461029e578063b88d4fde14610299578063c3c69a9614610294578063c41c2f241461028f578063c87b56dd1461028a578063c90f512614610285578063d46cf17114610280578063d9119f5f1461027b578063da9ee8b714610276578063e8a3d48514610271578063e985e9c51461026c578063ea1c1b2514610267578063f2fde38b14610262578063f7623b811461025d5763fadd72b71461025857600080fd5b61231f565b6122c4565b61221d565b6121cf565b612165565b6120be565b611fa6565b611f78565b611ebc565b611d9d565b611c74565b611c4d565b611bf1565b611b89565b611b6a565b611b47565b611abd565b6119ef565b6119c8565b611943565b6118f6565b6118cf565b61182a565b611809565b6117e2565b6117bb565b611764565b6116da565b6116b3565b611657565b6115ae565b611507565b6114af565b61148c565b61146e565b611447565b611429565b611403565b6113c9565b6113ab565b6112b0565b610b00565b610a41565b610a23565b6109fc565b61098c565b6108cf565b6107e4565b6107b5565b6106bd565b6105b2565b610373565b6001600160e01b031981160361036e57565b600080fd5b3461036e57602060031936011261036e576103c26001600160e01b031960043561039c8161035c565b1663807964e760e01b81149081156103c6575b5060405190151581529081906020820190565b0390f35b7ffbb38e0300000000000000000000000000000000000000000000000000000000811491508115610521575b81156104f7575b81156104cd575b81156104a3575b8115610415575b50386103af565b7f80ac58cd00000000000000000000000000000000000000000000000000000000811491508115610479575b811561044f575b503861040e565b7f01ffc9a70000000000000000000000000000000000000000000000000000000091501438610448565b7f5b5e139f0000000000000000000000000000000000000000000000000000000081149150610441565b7f2a55205a0000000000000000000000000000000000000000000000000000000081149150610407565b7f2b13c58f0000000000000000000000000000000000000000000000000000000081149150610400565b7fda9ee8b700000000000000000000000000000000000000000000000000000000811491506103f9565b7f71700c6900000000000000000000000000000000000000000000000000000000811491506103f2565b600091031261036e57565b60005b8381106105695750506000910152565b8181015183820152602001610559565b90601f19601f60209361059781518092818752878088019101610556565b0116010190565b9060206105af928181520190610579565b90565b3461036e5760008060031936011261068e57604051908080546105d4816114cd565b80855291600191808316908115610664575060011461060a575b6103c2856105fe81870382610f39565b6040519182918261059e565b80809450527f290decd9548b62a8d60345a988386fc84ba6bc95484008f6362f93160ef3e5635b82841061064c5750505081016020016105fe826103c26105ee565b80546020858701810191909152909301928101610631565b8695506103c2969350602092506105fe94915060ff191682840152151560051b82010192936105ee565b80fd5b6001600160a01b0381160361036e57565b6101a435906106b082610691565b565b35906106b082610691565b3461036e57604060031936011261036e576004356106da81610691565b61072460206107006106f4608f546001600160a01b031690565b6001600160a01b031690565b60055490604051808095819463038ab08560e11b8352600483019190602083019252565b03915afa80156107b057600191600091610782575b5061074381612919565b0361075857610756906024359033613e48565b005b60046040517ff331f3c1000000000000000000000000000000000000000000000000000000008152fd5b6107a3915060203d81116107a9575b61079b8183610f39565b810190612901565b38610739565b503d610791565b6123f3565b3461036e57602060031936011261036e5760206107d36004356141d8565b6001600160a01b0360405191168152f35b3461036e57604060031936011261036e5760043561080181610691565b6024356001600160a01b03806108168361418e565b1680918416146108a557803314159081610863575b506108395761075691614be4565b60046040517fe5fa0e35000000000000000000000000000000000000000000000000000000008152fd5b9050600052600460205261089f61089b610894336040600020906001600160a01b0316600052602052604060002090565b5460ff1690565b1590565b3861082b565b60046040517f133f8be9000000000000000000000000000000000000000000000000000000008152fd5b3461036e5760208060031936011261036e5760009060043582526009815260408220906040519183815490610903826114cd565b80865292600192808416908115610968575060011461092d575b6103c2866105fe818a0382610f39565b9080949650528483205b82841061095557505050816103c2936105fe9282010193388061091d565b8054858501870152928501928101610937565b60ff19168787015250505050151560051b82010191506105fe816103c2388061091d565b3461036e57600060031936011261036e5760206040516001600160a01b037f0000000000000000000000000000000000000000000000000000000000000000168152f35b600319606091011261036e576004356109e881610691565b906024356109f581610691565b9060443590565b3461036e57610a0a366109d0565b90610a15823361426e565b156108395761075692614937565b3461036e57600060031936011261036e576020609654604051908152f35b3461036e5760208060031936011261036e576004359067ffffffffffffffff9081831161036e573660238401121561036e57826004013591821161036e57602490600693368385871b8301011161036e5760005b848110610a9e57005b600190610ac0610ab43687848b1b8701016122f7565b858151910151906135fb565b01610a95565b90816101e091031261036e5790565b602060031982011261036e576004359067ffffffffffffffff821161036e576105af91600401610ac6565b610b0936610ad5565b3415801590610e1b575b8015610e0b575b610de15760a0810135908115610db7576101c081016024610b3b82846127d2565b9050108015610d81575b610d5757610b56610b5e91836127d2565b8101906128c6565b915050805191610b796106f4608f546001600160a01b031690565b926005549360408051809263038ab08560e11b825260209384918180610ba860049c8d83019190602083019252565b03915afa80156107b0578791600091610d3a575b50610bc681612919565b149560005b848110610bf7578888610bdd896140ef565b610be357005b610bf2610756916096546124e1565b609655565b610c0181886124a4565b5190610c27610c1a836000526002602052604060002090565b546001600160a01b031690565b6001600160a01b03610c3b6106f48a613d02565b911603610d12578489610c4d8461475d565b610c5d575b506001915001610bcb565b610cad92610c766106f4608d546001600160a01b031690565b865180809681947f42f9914b0000000000000000000000000000000000000000000000000000000083528983019190602083019252565b03915afa9182156107b057600192610cd891600091610ce5575b506000526097602052604060002090565b8054600101905584610c52565b610d059150873d8911610d0b575b610cfd8183610f39565b8101906123e4565b38610cc7565b503d610cf3565b8284517f075fd2b1000000000000000000000000000000000000000000000000000000008152fd5b610d519150843d86116107a95761079b8183610f39565b38610bbc565b60046040517f2a84050f000000000000000000000000000000000000000000000000000000008152fd5b5063807964e760e01b6001600160e01b0319610daf610da9610da385876127d2565b90612823565b90612845565b161415610b45565b60046040517f76914729000000000000000000000000000000000000000000000000000000008152fd5b60046040517f7df94b86000000000000000000000000000000000000000000000000000000008152fd5b5060055460208201351415610b1a565b50610e7c6020610e366106f46006546001600160a01b031690565b6005546040517f6e49181f000000000000000000000000000000000000000000000000000000008152600481019190915233602482015292839190829081906044820190565b03915afa9081156107b057600091610e96575b5015610b13565b610eb7915060203d8111610ebd575b610eaf8183610f39565b810190613ced565b38610e8f565b503d610ea5565b602435906106b082610691565b634e487b7160e01b600052604160045260246000fd5b6040810190811067ffffffffffffffff821117610f0357604052565b610ed1565b67ffffffffffffffff8111610f0357604052565b611000810190811067ffffffffffffffff821117610f0357604052565b90601f601f19910116810190811067ffffffffffffffff821117610f0357604052565b60405190610160820182811067ffffffffffffffff821117610f0357604052565b604051906106b082610ee7565b60405190610180820182811067ffffffffffffffff821117610f0357604052565b60405190610120820182811067ffffffffffffffff821117610f0357604052565b67ffffffffffffffff8111610f0357601f01601f191660200190565b929192610ff482610fcc565b916110026040519384610f39565b82948184528183011161036e578281602093846000960137010152565b9080601f8301121561036e578160206105af93359101610fe8565b608435906106b082610691565b60c435906106b082610691565b67ffffffffffffffff8111610f035760051b60200190565b35906cffffffffffffffffffffffffff8216820361036e57565b359063ffffffff8216820361036e57565b359061ffff8216820361036e57565b359062ffffff8216820361036e57565b8015150361036e57565b35906106b0826110b6565b81601f8201121561036e578035906110e282611054565b926040906110f282519586610f39565b83855260209182860191836101608097028601019481861161036e578401925b858410611123575050505050505090565b868483031261036e57848791611137610f5c565b6111408761106c565b815261114d838801611086565b8382015261115c868801611086565b86820152606061116d818901611097565b90820152608061117e8189016106b2565b9082015260a0808801359082015260c06111998189016110a6565b9082015260e06111aa8189016110c0565b908201526101006111bc8189016110c0565b908201526101206111ce8189016110c0565b908201526101406111e08189016110c0565b90820152815201930192611112565b610124359065ffffffffffff8216820361036e57565b61014435906106b082610691565b61016435906106b082610691565b61018435906106b082610691565b9080601f8301121561036e5781359061124782611054565b926112556040519485610f39565b828452602092838086019160051b8301019280841161036e57848301915b8483106112835750505050505090565b823567ffffffffffffffff811161036e5786916112a58484809489010161101f565b815201920191611273565b3461036e576101e060031936011261036e576112ca610ec4565b60443567ffffffffffffffff9182821161036e576112ed6004923690840161101f565b60643584811161036e57611304903690850161101f565b61130c61103a565b60a43586811161036e57611323903690870161101f565b61132b611047565b60e43588811161036e57611342903690890161101f565b6101043589811161036e5761135a9036908a016110cb565b916113636111ef565b9361136c611205565b95611375611213565b9761137e611221565b996113876106a2565b9b6101c4359e8f1161036e576113a46107569f8f9036910161122f565b9d356132e2565b3461036e57600060031936011261036e576020600554604051908152f35b3461036e576113d7366109d0565b60405191602083019383851067ffffffffffffffff861117610f03576107569460405260008452614217565b3461036e57602060031936011261036e576020611421600435612664565b604051908152f35b3461036e57602060031936011261036e5760206107d36004356123b2565b3461036e57600060031936011261036e5760206001600160a01b03608e5416604051908152f35b3461036e57602060031936011261036e5760206107d360043561418e565b3461036e57600060031936011261036e576020604051670de0b6b3a76400008152f35b3461036e57600060031936011261036e576020609154604051908152f35b90600182811c921680156114fd575b60208310146114e757565b634e487b7160e01b600052602260045260246000fd5b91607f16916114dc565b3461036e5760008060031936011261068e57604051908060935461152a816114cd565b808552916001918083169081156106645750600114611553576103c2856105fe81870382610f39565b9250609383527f28da5ca8143bfa5e9f642e58e5e87bef0a2eb0c00bcd4efdd01050293f5fac915b8284106115965750505081016020016105fe826103c26105ee565b8054602085870181019190915290930192810161157b565b3461036e57602060031936011261036e576004356115cb81610691565b60206001600160a01b03604481608d54169360405194859384927ff7888aec0000000000000000000000000000000000000000000000000000000084523060048501521660248301525afa80156107b0576103c291600091611639575b506040519081529081906020820190565b611651915060203d8111610d0b57610cfd8183610f39565b38611628565b3461036e5760008060031936011261068e576116716154c7565b806001600160a01b036007546001600160a01b03198116600755167f8be0079c531659141344cd1fd0a4f28419497f9722a3daafe3b4186f6b6457e08280a380f35b3461036e57600060031936011261036e5760206001600160a01b0360905416604051908152f35b3461036e57602060031936011261036e5760043560005260976020526020604060002054604051908152f35b81601f8201121561036e5780359161171d83611054565b9261172b6040519485610f39565b808452602092838086019260051b82010192831161036e578301905b828210611755575050505090565b81358152908301908301611747565b3461036e57604060031936011261036e5767ffffffffffffffff60043581811161036e57611796903690600401611706565b9060243590811161036e576020916117b5611421923690600401610ac6565b506124ee565b3461036e57600060031936011261036e5760206001600160a01b0360955416604051908152f35b3461036e57600060031936011261036e5760206001600160a01b0360075416604051908152f35b3461036e5761181736610ad5565b506020604051670de0b6b3a76400008152f35b3461036e5760008060031936011261068e576040519080600180549161184f836114cd565b808652928281169081156106645750600114611875576103c2856105fe81870382610f39565b92508083527fb10e2d527612073b26eecdfd717e6a320cf44b4afac2b0732d9fcbe2b7fa0cf65b8284106118b75750505081016020016105fe826103c26105ee565b8054602085870181019190915290930192810161189c565b3461036e57600060031936011261036e5760206001600160a01b03608d5416604051908152f35b3461036e57604060031936011261036e57602060043561191581610691565b6001600160a01b03809116600052608a82526040600020602435600052825260406000205416604051908152f35b3461036e57600060031936011261036e5760405161196081610f1c565b6110008091369037604051600a6000825b608082106119b25750505061198581610f1c565b60405190600090825b6080831061199b57505050f35b60019082518152602080910192019201919061198e565b6001602081928554815201930191019091611971565b3461036e57600060031936011261036e5760206001600160a01b03608f5416604051908152f35b3461036e57604060031936011261036e57600435611a0c81610691565b602435611a18816110b6565b6001600160a01b03821691823314611a9357611a54903360005260046020526040600020906001600160a01b0316600052602052604060002090565b9015159060ff1981541660ff83161790556040519081527f17307eab39ab6107e8899845ad3d59bd9653f200f220920489ca2b5937696c3160203392a3005b60046040517f0df0273a000000000000000000000000000000000000000000000000000000008152fd5b3461036e57611ad3611ace36610ad5565b612939565b604092919280519384938452611af56020916060838701526060860190610579565b90848203838601528080855193848152019401926000905b838210611b1a5786860387f35b845180516001600160a01b0316875283015186840152879650948501949382019360019190910190611b0d565b3461036e57600060031936011261036e57602060ff609254166040519015158152f35b3461036e57604060031936011261036e576107566024356004356135fb565b3461036e57608060031936011261036e57600435611ba681610691565b602435611bb281610691565b6064359167ffffffffffffffff831161036e573660238401121561036e57611be7610756933690602481600401359101610fe8565b9160443591614217565b3461036e57604060031936011261036e576001600160a01b03600435611c1681610691565b16600052608b602052604060002060243560005260205260206001600160e01b03611c44604060002061573e565b16604051908152f35b3461036e57600060031936011261036e5760206001600160a01b0360065416604051908152f35b3461036e57602060031936011261036e57611c9a6106f4608d546001600160a01b031690565b6040517f0fab094700000000000000000000000000000000000000000000000000000000815230600482015290602090829060249082905afa9081156107b057600091611d6f575b506040517f5e703e710000000000000000000000000000000000000000000000000000000081523060048083019190915235602482015290600090829060449082906001600160a01b03165afa80156107b0576103c291600091611d4e575b506040519182918261059e565b611d69913d8091833e611d618183610f39565b810190612456565b38611d41565b611d90915060203d8111611d96575b611d888183610f39565b8101906123ff565b38611ce2565b503d611d7e565b3461036e5760208060031936011261036e576004359067ffffffffffffffff821161036e573660238301121561036e57816004013591611ddc83611054565b91604093611dec85519485610f39565b80845260248285019160061b8401019236841161036e57602401905b838210611e185761075685613d0c565b858236031261036e578286918251611e2f81610ee7565b8435611e3a81610691565b81528285013583820152815201910190611e08565b91908252611e696020916060838501526060840190610579565b90604092838184039101528080855193848152019401926000905b838210611e9357505050505090565b845180516001600160a01b03168752830151868401529485019493820193600190910190611e84565b3461036e576020600319818136011261036e576004359067ffffffffffffffff821161036e576101a090823603011261036e57611f0a611f036101648301836004016127d2565b3691610fe8565b60405190611f1782610ee7565b6001825260005b848110611f625750906103c291610124946000611f39610f7d565b30815291820152611f4983612492565b52611f5382612492565b50604051948594013584611e4f565b8490611f6c612871565b82828601015201611f1e565b3461036e57604060031936011261036e57600435600052608c60205260206114216024356040600020615567565b60031960208136011261036e576004359067ffffffffffffffff821161036e5761020090823603011261036e57600554341590811591612032575b8115612023575b50611ff95761075690600401614f85565b60046040517fc715ec6c000000000000000000000000000000000000000000000000000000008152fd5b90506024820135141538611fe8565b90506120496106f46006546001600160a01b031690565b6040517f6e49181f0000000000000000000000000000000000000000000000000000000081526004810183905233602482015290602090829060449082905afa9081156107b0576000916120a0575b501590611fe1565b6120b8915060203d8111610ebd57610eaf8183610f39565b38612098565b3461036e5760008060031936011261068e5760405190806094546120e1816114cd565b80855291600191808316908115610664575060011461210a576103c2856105fe81870382610f39565b9250609483527f7047a3cc0a76edcee45792ca71527c753f6167484f14b94c4a3bd2997516725c5b82841061214d5750505081016020016105fe826103c26105ee565b80546020858701810191909152909301928101612132565b3461036e57604060031936011261036e57602060ff6121c360043561218981610691565b6001600160a01b036024359161219e83610691565b16600052600484526040600020906001600160a01b0316600052602052604060002090565b54166040519015158152f35b3461036e57606060031936011261036e576001600160a01b036004356121f481610691565b16600052608b602052604060002060243560005260205260206114216044356040600020615567565b3461036e57602060031936011261036e5760043561223a81610691565b6122426154c7565b6001600160a01b0381161561225a576107569061551f565b608460405162461bcd60e51b815260206004820152602660248201527f4f776e61626c653a206e6577206f776e657220697320746865207a65726f206160448201527f64647265737300000000000000000000000000000000000000000000000000006064820152fd5b3461036e57602060031936011261036e57600435600052608c60205260206001600160e01b03611c44604060002061573e565b919082604091031261036e5760405161230f81610ee7565b6020808294803584520135910152565b3461036e5760208060031936011261036e576004359067ffffffffffffffff821161036e573660238301121561036e5781600401359161235e83611054565b9160409361236e85519485610f39565b80845260248285019160061b8401019236841161036e57602401905b83821061239a5761075685613927565b8286916123a736856122f7565b81520191019061238a565b60005260086020526001600160a01b038060406000205416806123df575060026020526040600020541690565b905090565b9081602091031261036e575190565b6040513d6000823e3d90fd5b9081602091031261036e57516105af81610691565b81601f8201121561036e57805161242a81610fcc565b926124386040519485610f39565b8184526020828401011161036e576105af9160208085019101610556565b9060208282031261036e57815167ffffffffffffffff811161036e576105af9201612414565b634e487b7160e01b600052603260045260246000fd5b80511561249f5760200190565b61247c565b805182101561249f5760209160051b010190565b634e487b7160e01b600052601160045260246000fd5b90600182018092116124dc57565b6124b8565b919082018092116124dc57565b9060009180516000915b81831061250457505050565b90919361251a61251486846124a4565b51612664565b81018091116124dc579360010191906124f8565b51906106b082610691565b51906106b0826110b6565b60208183031261036e57805167ffffffffffffffff9182821161036e57016101808184031261036e57612575610f8a565b92815184526020820151602085015260408201516040850152606082015160608501526080820151608085015260a082015160a08501526125b860c0830161252e565b60c085015260e082015160e085015261010080830151908501526101206125e0818401612539565b908501526101406125f2818401612539565b90850152610160928383015190811161036e5761260f9201612414565b9082015290565b9060001982019182116124dc57565b919082039182116124dc57565b608081101561249f57600a0190600090565b811561264e570490565b634e487b7160e01b600052601260045260246000fd5b6126b7602061267e6106f4608d546001600160a01b031690565b92604051809381927f42f9914b000000000000000000000000000000000000000000000000000000008352600483019190602083019252565b0381855afa9081156107b0576000916127b4575b506040516364faa15960e01b8152306004820152602481018290526000604482018190529092839060649082905afa9182156107b057600092612791575b5061272861271e61271983612616565b612632565b90549060031b1c90565b90811561278957606083019061274660408351950194855190612625565b15612780576127736127626105af9561277a9451905190612625565b916000526097602052604060002090565b54906124e1565b90612644565b50505050600090565b505050600090565b6127ad91923d8091833e6127a58183610f39565b810190612544565b9038612709565b6127cc915060203d8111610d0b57610cfd8183610f39565b386126cb565b9035907fffffffffffffffffffffffffffffffffffffffffffffffffffffffffffffffe18136030182121561036e570180359067ffffffffffffffff821161036e5760200191813603831361036e57565b9060241161036e5760200190600490565b9060441161036e5760400190600490565b6001600160e01b0319903581811693926004811061286257505050565b60040360031b82901b16169150565b6040519061287e82610ee7565b60006020838281520152565b6040519061289782610ee7565b600182528160005b602090818110156128c1576020916128b5612871565b9082850101520161289f565b505050565b9160608383031261036e5782359260208101356128e28161035c565b92604082013567ffffffffffffffff811161036e576105af9201611706565b9081602091031261036e5751600781101561036e5790565b6007111561292357565b634e487b7160e01b600052602160045260246000fd5b90600090816080840135612bc1576101c0840190602461295983876127d2565b9050108015612b97575b610d575761296f61288a565b936129a4610b5661297e610f7d565b30815294602095848782015261299389612492565b5261299d88612492565b50886127d2565b949150506129bd6106f4608f546001600160a01b031690565b91604088838251809663038ab08560e11b825281806129e88760049701358783019190602083019252565b03915afa9485156107b0578395612b78575b50612a0485612919565b600194858114908115612b63575b8115612b4e575b8115612b3a575b50612a6457505050505050611f03612a54612a6092612a4e612a4860965460c08a01356124e1565b916124ee565b906159bd565b946101a08101906127d2565b9190565b9498959291908351938296612a846106f4608d546001600160a01b031690565b915b868910612aa857505050505050505050611f03816101a0612a609301906127d2565b90919293949596979b612af69086612ac08f856124a4565b5187518094819263c44a8e6d60e01b83523089840160409060009294936001600160a01b03606083019616825260208201520152565b0381885afa9182156107b0578a9289918991612b20575b500151019c019796959493929190612a86565b612b3491503d808b833e6127a58183610f39565b38612b0d565b60059150612b4781612919565b1438612a20565b9050612b5981612919565b6006811490612a19565b9050612b6e81612919565b6002811490612a12565b612b90919550843d86116107a95761079b8183610f39565b93386129fa565b5063807964e760e01b6001600160e01b0319612bb9610da9610da3868a6127d2565b161415612963565b60046040517f4fc178d8000000000000000000000000000000000000000000000000000000008152fd5b601f8111612bf7575050565b6000908180527f290decd9548b62a8d60345a988386fc84ba6bc95484008f6362f93160ef3e563906020601f850160051c83019410612c51575b601f0160051c01915b828110612c4657505050565b818155600101612c3a565b9092508290612c31565b601f8111612c67575050565b600090609382527f28da5ca8143bfa5e9f642e58e5e87bef0a2eb0c00bcd4efdd01050293f5fac91906020601f850160051c83019410612cc2575b601f0160051c01915b828110612cb757505050565b818155600101612cab565b9092508290612ca2565b601f8111612cd8575050565b600090609482527f7047a3cc0a76edcee45792ca71527c753f6167484f14b94c4a3bd2997516725c906020601f850160051c83019410612d33575b601f0160051c01915b828110612d2857505050565b818155600101612d1c565b9092508290612d13565b90601f8211612d4a575050565b6001916000908382527fb10e2d527612073b26eecdfd717e6a320cf44b4afac2b0732d9fcbe2b7fa0cf6906020601f850160051c83019410612da7575b601f0160051c01915b828110612d9d5750505050565b8181558301612d90565b9092508290612d87565b90601f8111612dbf57505050565b600091825260208220906020601f850160051c83019410612dfb575b601f0160051c01915b828110612df057505050565b818155600101612de4565b9092508290612ddb565b90815167ffffffffffffffff8111610f0357612e2b81612e266093546114cd565b612c5b565b602080601f8311600114612e665750819293600092612e5b575b50506000198260011b9260031b1c191617609355565b015190503880612e45565b90601f19831694612e9960936000527f28da5ca8143bfa5e9f642e58e5e87bef0a2eb0c00bcd4efdd01050293f5fac9190565b926000905b878210612ed6575050836001959610612ebd575b505050811b01609355565b015160001960f88460031b161c19169055388080612eb2565b80600185968294968601518155019501930190612e9e565b90815167ffffffffffffffff8111610f0357612f1481612f0f6094546114cd565b612ccc565b602080601f8311600114612f4f5750819293600092612f44575b50506000198260011b9260031b1c191617609455565b015190503880612f2e565b90601f19831694612f8260946000527f7047a3cc0a76edcee45792ca71527c753f6167484f14b94c4a3bd2997516725c90565b926000905b878210612fbf575050836001959610612fa6575b505050811b01609455565b015160001960f88460031b161c19169055388080612f9b565b80600185968294968601518155019501930190612f87565b90815167ffffffffffffffff8111610f0357600190612fff81612ffa84546114cd565b612d3d565b602080601f831160011461303957508192939460009261302e575b505060001982841b9260031b1c1916179055565b01519050388061301a565b90601f1983169561306c60016000527fb10e2d527612073b26eecdfd717e6a320cf44b4afac2b0732d9fcbe2b7fa0cf690565b926000905b8882106130a7575050838596971061308e575b505050811b019055565b015160001960f88460031b161c19169055388080613084565b808785968294968601518155019501930190613071565b919091825167ffffffffffffffff8111610f03576130e6816130e084546114cd565b84612db1565b602080601f8311600114613121575081929394600092613116575b50506000198260011b9260031b1c1916179055565b015190503880613101565b90601f1983169561313785600052602060002090565b926000905b88821061315a5750508360019596971061308e57505050811b019055565b8060018596829496860151815501950193019061313c565b81601f8201121561036e5780519161318983611054565b926131976040519485610f39565b808452602092838086019260051b82010192831161036e578301905b8282106131c1575050505090565b815181529083019083016131b3565b9060208282031261036e57815167ffffffffffffffff811161036e576105af9201613172565b60208082019080835283518092528060408094019401926000905b83821061322057505050505090565b9091929394836101606001926132d5895161324a8382516cffffffffffffffffffffffffff169052565b8085015163ffffffff16838601528087015163ffffffff168388015260608181015161ffff16908401526080818101516001600160a01b03169084015260a0818101519084015260c08082015162ffffff169084015260e081810151151590840152610100818101511515908401526101208181015115159084015261014090810151151590830152565b0196019493920190613211565b90929c95999b9394979a9196989c6001600160a01b039d8e7f000000000000000000000000000000000000000000000000000000000000000016301461036e578e6133386106f4608d546001600160a01b031690565b1661036e5761339c8e6133806133da9961336465ffffffffffff966133f69e6133be9b6133a29a614daf565b6001600160a01b03166001600160a01b0319608e541617608e55565b6001600160a01b03166001600160a01b0319608d541617608d55565b16609155565b6001600160a01b03166001600160a01b0319608f541617608f55565b6001600160a01b03166001600160a01b03196090541617609055565b6001600160a01b03166001600160a01b03196095541617609555565b8051613565575b508051613556575b508381166134d1575b5060009161344c91836040519586809581947f8da5e32b000000000000000000000000000000000000000000000000000000008352600483016131f6565b0393165af180156107b0576134ae575b5080519060005b828110613476575050506106b03361551f565b806134a8613486600193856124a4565b516134a3613493846124ce565b6000526009602052604060002090565b6130be565b01613463565b6134ca903d806000833e6134c28183610f39565b8101906131d0565b503861345c565b91838116803b1561036e576040517fd84a72c00000000000000000000000000000000000000000000000000000000081526001600160a01b039490941660048501526000908490602490829084905af19182156107b05760009361344c9361353d575b5091509161340e565b8061354a61355092610f08565b8061054b565b38613534565b61355f90612eee565b38613405565b61356e90612e05565b386133fd565b908161012091031261036e57613588610fab565b90805182526020810151602083015260408101516040830152606081015160608301526080810151608083015260a081015160a083015260c081015160c08301526135d560e0820161252e565b60e0830152610100809101519082015290565b818102929181159184041417156124dc57565b906136116106f4608e546001600160a01b031690565b9161364060055493604094855180926321d1336160e11b82528180610120968795600483019190602083019252565b03915afa9182156107b0576136719260ff92610100926000926138fa575b5050015160f41c1660018091811c161490565b6138d15761368a6106f4608d546001600160a01b031690565b83517f136e651c000000000000000000000000000000000000000000000000000000008152306004820152602481018390529290602090849060449082905afa9283156107b0576000936138b1575b506001600160a01b039081613717610c1a85613708886001600160a01b0316600052608a602052604060002090565b90600052602052604060002090565b1615613881575b6137336106f4608d546001600160a01b031690565b85517fbaa7e80e000000000000000000000000000000000000000000000000000000008152600481018590526024810183905292906000908490604490829084905af19283156107b057600093613866575b5060005b8281106138175750505060006137aa6106f4608d546001600160a01b031690565b94516364faa15960e01b8152306004820152602481018490526000604482015294859060649082905afa9081156107b05760806137f8926106b0966000916137fe575b5001519051906135e8565b91613f30565b613811913d8091833e6127a58183610f39565b386137ed565b80613824600192866124a4565b5161382f81896142ef565b88513381528489169188917f031e1988c95a91ec4d655ff63a8f87a80bc9daf28d95ae10ee08c0022cfb5c8b90602090a401613789565b61387a91933d8091833e6134c28183610f39565b9138613785565b6095546001600160a01b031683818416156138a6576138a1915b86613e48565b61371e565b6138a191508561389b565b6138ca91935060203d8111611d9657611d888183610f39565b91386136d9565b600483517fe96092b8000000000000000000000000000000000000000000000000000000008152fd5b6139199250803d10613920575b6139118183610f39565b810190613574565b388061365e565b503d613907565b61392f6154c7565b6139446106f4608f546001600160a01b031690565b600554916040918251809163038ab08560e11b82526020928391818061397360049a8b83019190602083019252565b03915afa9081156107b057600091613c65575b5061399081612919565b60038103613c3c5760925460ff16613c13576139ab81612919565b60068114908115613bff575b50613bd757608d906139d36106f483546001600160a01b031690565b9281855180957ff1bea54f0000000000000000000000000000000000000000000000000000000082528180613a1a308c83019190916001600160a01b036020820193169052565b03915afa9384156107b057600094613bb8575b50919290600092805192613a3f613c82565b5084955b848710613a99575050505050670de0b6b3a7640000915011613a735750506106b0600160ff196092541617609255565b517f6ff44e97000000000000000000000000000000000000000000000000000000008152fd5b9091929394613af36000613ab76106f485546001600160a01b031690565b613ac18a886124a4565b51518b516364faa15960e01b815230818f01908152602081019290925260006040830152938492918391829160600190565b03915afa9081156107b057600091613b9f575b50610100810151613b775783815111613b7757600191613b56613b6a92613b3e6127198a613b348e8c6124a4565b5101519251612616565b90919060001983549160031b92831b921b1916179055565b86613b618a886124a4565b510151906124e1565b9601959493929190613a43565b8989517f52385374000000000000000000000000000000000000000000000000000000008152fd5b613bb2913d8091833e6127a58183610f39565b38613b06565b613bd0919450823d8411610d0b57610cfd8183610f39565b9238613a2d565b5050517f6fb84075000000000000000000000000000000000000000000000000000000008152fd5b60059150613c0c81612919565b14386139b7565b505050517f38101407000000000000000000000000000000000000000000000000000000008152fd5b505050517f03ce4502000000000000000000000000000000000000000000000000000000008152fd5b613c7c9150823d84116107a95761079b8183610f39565b38613986565b60405190610180820182811067ffffffffffffffff821117610f0357604052606061016083600080825280602083015280604083015280848301528060808301528060a08301528060c08301528060e083015280610100830152806101208301526101408201520152565b9081602091031261036e57516105af816110b6565b356105af81610691565b613d216106f4608f546001600160a01b031690565b6005546040805163038ab08560e11b8152600480820193909352939290916020918290869060249082905afa9485156107b057600095613e29575b50613d6685612919565b6001809503613e0257835193613d7a612871565b5060005b858110613d8e5750505050505050565b613d9881836124a4565b51613dad6106f482516001600160a01b031690565b15613dda5790613dd48286613dca8b95516001600160a01b031690565b9101519033613e48565b01613d7e565b8386517f53d304f4000000000000000000000000000000000000000000000000000000008152fd5b82517ff331f3c1000000000000000000000000000000000000000000000000000000008152fd5b613e41919550823d84116107a95761079b8183610f39565b9338613d5c565b6001600160a01b039081166000818152608a602090815260408083208784528252822080548686166001600160a01b03198216811790925592969195919491939282169291869184847f3134e8a2e6d97e929a7e54011ea5485d7d196dd5f0ba4d4ef95803e8e3fc257f8b80a4608d5416916064604051809481937f2e4d0ea800000000000000000000000000000000000000000000000000000000835230600484015260248301528860448301525afa9485156107b0576106b09695613f11575b5050613fc1565b613f28929550803d10610d0b57610cfd8183610f39565b923880613f0a565b906106b092916000828152608c602052613f4d8460408320615667565b505060406001600160a01b039182841615613fa6575b808052608a602052818120858252602052613f97838383205416946001600160a01b0316600052608a602052604060002090565b85825260205220541690613fc1565b848152608c602052613fba86838320615716565b5050613f63565b9192906001600160a01b039283821693811684811480156140e7575b6140df5785918161406c575b50505082613ff8575b50505050565b7f26abcd0483bf852c577c9beff4daa5920a203234050413150a0aa946fb598bfa9161403a61404b926001600160a01b0316600052608b602052604060002090565b856000526020526040600020615667565b6040805192835260208301919091523390820152606090a338808080613ff2565b614089906001600160a01b0316600052608b602052604060002090565b826000526020527f26abcd0483bf852c577c9beff4daa5920a203234050413150a0aa946fb598bfa6140bf856040600020615716565b6040805192835260208301919091523390820152606090a3833880613fe9565b505050505050565b508315613fdd565b6001600160a01b03608d5416803b1561036e5760405180927f86bc2be3000000000000000000000000000000000000000000000000000000008252602482016020908160048501528251809152816044850193019160005b82811061417757505050509181600081819503925af180156107b05761416a5750565b8061354a6106b092610f08565b835185528795509381019392810192600101614147565b60005260026020526001600160a01b036040600020541680156141ae5790565b60046040517fb49aa3b5000000000000000000000000000000000000000000000000000000008152fd5b6141f88160005260026020526001600160a01b0360406000205416151590565b156141ae5760005260036020526001600160a01b036040600020541690565b929190614224823361426e565b156108395783614238838361423d97614937565b614cc2565b1561424457565b60046040517f6deaf836000000000000000000000000000000000000000000000000000000008152fd5b6001600160a01b03806142808461418e565b1692818316928484149485156142b6575b505083156142a0575b50505090565b6142ac919293506141d8565b161438808061429a565b60ff929550906142e59160005260046020526040600020906001600160a01b0316600052602052604060002090565b5416923880614291565b9190916001600160a01b038116908115614470576143238460005260026020526001600160a01b0360406000205416151590565b614446578360009281845260026020526143568360408620906001600160a01b03166001600160a01b0319825416179055565b837fddf252ad1be2c89b69c2b068fc378daa952ba7f163c4a11628f55a4df523b3ef8180a46143c3826143946106f4608d546001600160a01b031690565b60405163c44a8e6d60e01b81523060048201526024810197909752600060448801529591829081906064820190565b0381885afa9081156107b057839161442c575b505193803b15614428576040516330b157e560e21b81526004810195909552600060248601526001600160a01b039190911660448501529192918290606490829084905af180156107b05761416a5750565b8280fd5b61444091503d8085833e6127a58183610f39565b386143d6565b60046040517fbad7c30c000000000000000000000000000000000000000000000000000000008152fd5b60046040517f7208af1e000000000000000000000000000000000000000000000000000000008152fd5b906144e792916144b56106f4608d546001600160a01b031690565b60405163c44a8e6d60e01b81523060048201526024810193909352600060448401819052948590849081906064820190565b0381845afa9283156107b057859361456a575b508251813b15614566576040516330b157e560e21b815260048101919091526001600160a01b0383166024820152600060448201529394908490606490829084905af19283156107b0576106b093614553575b50614674565b8061354a61456092610f08565b3861454d565b8580fd5b61457f9193503d8087833e6127a58183610f39565b91386144fa565b906145d49392916145a26106f4608d546001600160a01b031690565b60405163c44a8e6d60e01b81523060048201526024810194909452600060448501819052958690859081906064820190565b0381845afa9384156107b0578694614658575b508351813b15614654576040516330b157e560e21b815260048101919091526001600160a01b038381166024830152841660448201529495908590606490829084905af19384156107b0576106b094614641575b506146e0565b8061354a61464e92610f08565b3861463b565b8680fd5b61466d9194503d8088833e6127a58183610f39565b92386145e7565b6001600160a01b038091169182156128c1576106b0926080825192015192600091838352608c6020526146aa8560408520615716565b50508252608a60205260408220838352602052604081818420541692808052608a60205281812085825260205220541690613fc1565b916001600160a01b03809316918215613ff2576106b0936040608084519401519482841615614740575b6000908152608a602052818120858252602052613f97838383205416946001600160a01b0316600052608a602052604060002090565b84600052608c6020526147568683600020615716565b505061470a565b6147668161418e565b906001600160a01b03821691826147cb575b8160006106b09461478883614b8e565b8282526002602052604082206001600160a01b031981541690557fddf252ad1be2c89b69c2b068fc378daa952ba7f163c4a11628f55a4df523b3ef8280a461449a565b6147e06106f4608d546001600160a01b031690565b60405163c44a8e6d60e01b8152306004820152602481018490526000604482018190529091829060649082905afa9081156107b05761482d916101409160009161491e575b500151151590565b61489a575b8160006106b0946148536106f4610c1a856000526008602052604060002090565b15614862575b94505050614778565b6148958461487a856000526008602052604060002090565b906001600160a01b03166001600160a01b0319825416179055565b614859565b6148dc926148b36106f4608e546001600160a01b031690565b9060055460405180936321d1336160e11b82528180610120998a95600483019190602083019252565b03915afa9081156107b0576106b0958593600093614900575b505094505050614832565b8161491692903d10613920576139118183610f39565b5038806148f5565b614931913d8091833e6127a58183610f39565b38614825565b91906149428261418e565b6001600160a01b0380851694918116859003614b64578216938415614b3a57806149cd575b6106b094849161497683614b8e565b8260005260026020526149a3856040600020906001600160a01b03166001600160a01b0319825416179055565b7fddf252ad1be2c89b69c2b068fc378daa952ba7f163c4a11628f55a4df523b3ef600080a4614586565b6149e26106f4608d546001600160a01b031690565b60405163c44a8e6d60e01b8152306004820152602481018690526000604482018190529091829060649082905afa9081156107b057614a2e916101409160009161491e57500151151590565b614a7f575b6106b0948491614a536106f4610c1a856000526008602052604060002090565b15614a62575b91509450614967565b614a7a8461487a856000526008602052604060002090565b614a59565b614abf614a976106f4608e546001600160a01b031690565b60055460405180926321d1336160e11b82528180610120968795600483019190602083019252565b03915afa9182156107b057614aee9260ff9261010092600092614b1d575b5050015160f41c1660018091161490565b15614a335760046040517f18cdaf97000000000000000000000000000000000000000000000000000000008152fd5b614b339250803d10613920576139118183610f39565b3880614add565b60046040517f2c955427000000000000000000000000000000000000000000000000000000008152fd5b60046040517fa195bc53000000000000000000000000000000000000000000000000000000008152fd5b80600052600360205260406000206001600160a01b0319815416905560006001600160a01b03614bbd8361418e565b167f8c5be1e5ebec7d5bd14f71427d1e84f3dd0314c0f7b2291e5b200ac8c7c3b9258280a4565b816000526003602052614c11816040600020906001600160a01b03166001600160a01b0319825416179055565b6001600160a01b0380614c238461418e565b169116907f8c5be1e5ebec7d5bd14f71427d1e84f3dd0314c0f7b2291e5b200ac8c7c3b925600080a4565b9081602091031261036e57516105af8161035c565b90926105af94936080936001600160a01b03809216845216602083015260408201528160608201520190610579565b3d15614cbd573d90614ca382610fcc565b91614cb16040519384610f39565b82523d6000602084013e565b606090565b92909190823b15614da657614d169260209260006001600160a01b036040518097819682957f150b7a02000000000000000000000000000000000000000000000000000000009b8c85523360048601614c63565b0393165af160009181614d76575b50614d6857614d31614c92565b80519081614d635760046040517f6deaf836000000000000000000000000000000000000000000000000000000008152fd5b602001fd5b6001600160e01b0319161490565b614d9891925060203d8111614d9f575b614d908183610f39565b810190614c4e565b9038614d24565b503d614d86565b50505050600190565b91929092805167ffffffffffffffff8111610f0357600091614dda82614dd585546114cd565b612beb565b60209081601f8411600114614e4657509282614e1a93614e1f96936106b09998968492614e3b575b50506000198260011b9260031b1c1916179055612fd7565b600555565b6001600160a01b03166001600160a01b03196006541617600655565b015190503880614e02565b600080529190601f1984167f290decd9548b62a8d60345a988386fc84ba6bc95484008f6362f93160ef3e5639386905b828210614ec057505093614e1f96936106b09998969360019383614e1a9810614ea7575b505050811b019055612fd7565b015160001960f88460031b161c19169055388080614e9a565b80600186978294978701518155019601940190614e76565b9160a08383031261036e5782359260209182820135936040830135614efc8161035c565b936060840135614f0b81610691565b9360808101359067ffffffffffffffff821161036e57019180601f8401121561036e578235614f3981611054565b93614f476040519586610f39565b818552838086019260051b82010192831161036e578301905b828210614f6e575050505090565b838091614f7a84611097565b815201910190614f60565b9060915460c083013503615302576101e082016044614fa482856127d2565b905011806152d3575b614fb657509050565b614fc3614fcb91846127d2565b810190614ed8565b9250949250506001600160a01b038094169384156152a1575b815115615277576000808091845197825b89811061504f5750505050505061501f92935060806150176101808401613d02565b9201356153ad565b61502557565b60046040517f6d5e09a4000000000000000000000000000000000000000000000000000000008152fd5b8988615070615069615061858c6124a4565b5161ffff1690565b61ffff1690565b8503615194575b906150a5610c1a8661370861508c8b96613d02565b6001600160a01b0316600052608a602052604060002090565b88808616918b83159485158096615189575b6150cb575b50505050505050600101614ff5565b879a9697916150da8b92612616565b83109283615163575b50505060001461510d57505050506001916150fd916124e1565b935b905084388088818b8f6150bc565b615134955083615156575b50505061513e575b836137f88761512e8c613d02565b936124e1565b60016000936150ff565b615151848461514c8c613d02565b613e48565b615120565b1614159050388881615118565b61ffff92935061517f91615179615061926124ce565b906124a4565b1614888d8b6150e3565b5083831615156150b7565b50509350906151a961506961506186896124a4565b1061524d576151be61506961506185886124a4565b906151d46106f4608d546001600160a01b031690565b6040516364faa15960e01b815230600482015260248101849052600060448201819052909591869060649082905afa9485156107b0578a6150a5610c1a86613708608061508c9b8f97600091615234575b5001519a505050505090615077565b615247913d8091833e6127a58183610f39565b38615225565b60046040517f9fda363d000000000000000000000000000000000000000000000000000000008152fd5b60046040517f3d04bd1f000000000000000000000000000000000000000000000000000000008152fd5b93506152b56095546001600160a01b031690565b808516156152c4575b93614fe4565b506152ce82613d02565b6152be565b5063807964e760e01b6001600160e01b03196152fb610da96152f585886127d2565b90612834565b1614614fad565b60046040517f79cf85c0000000000000000000000000000000000000000000000000000000008152fd5b919060408382031261036e57825167ffffffffffffffff811161036e57602091615357918501613172565b92015190565b929190606084019084526020906060828601528251809152816080860193019160005b82811061539557505050506040600091930152565b835161ffff1685529381019392810192600101615380565b9291926153c56106f4608d546001600160a01b031690565b9160409081519586947feaa19ab30000000000000000000000000000000000000000000000000000000086526000958691818381615407888b6004840161535d565b03925af180156107b0578597869161549f575b50968051955b8681106154305750505050505050565b8061543d600192846124a4565b5161544881866142ef565b61ffff61545861506184896124a4565b88518a81523360208201526001600160a01b0388169391909216917f598baf7bf150ca2f42be9e9f8f55e81d45f5715c3ff22bf46d697fabec7f31d690604090a401615420565b90506154be9197503d8087833e6154b68183610f39565b81019061532c565b9690963861541a565b6001600160a01b036007541633036154db57565b606460405162461bcd60e51b815260206004820152602060248201527f4f776e61626c653a2063616c6c6572206973206e6f7420746865206f776e65726044820152fd5b600754906001600160a01b0380911691826001600160a01b0319821617600755167f8be0079c531659141344cd1fd0a4f28419497f9722a3daafe3b4186f6b6457e0600080a3565b90438110156156235761557990615942565b90805491600063ffffffff8092165b8482106155cf575050508161559f57506000919050565b6155c46155cb916155b76001600160e01b0394612616565b9060005260206000200190565b5460201c90565b1690565b9091938083169080841860011c82018092116124dc578460005282866156008460206000200163ffffffff90541690565b1611156156115750935b9190615588565b94925061561d906124ce565b9161560a565b606460405162461bcd60e51b815260206004820152602060248201527f436865636b706f696e74733a20626c6f636b206e6f7420796574206d696e65646044820152fd5b6001600160e01b0392918361567b8361573e565b169081018091116124dc5761568f43615942565b918482116156ac578492836156a5931691615828565b9316921690565b608460405162461bcd60e51b815260206004820152602760248201527f53616665436173743a2076616c756520646f65736e27742066697420696e203260448201527f32342062697473000000000000000000000000000000000000000000000000006064820152fd5b6001600160e01b0392918361572a8361573e565b169081039081116124dc5761568f43615942565b80546000918161575057505050600090565b6000199282848101116124dc5760209181522001015460201c90565b90815468010000000000000000811015610f03576001810180845581101561249f57600092835260209283902082519284015190931b63ffffffff191663ffffffff9290921691909117910155565b906040516157c881610ee7565b602081935463ffffffff81168352811c910152565b156157e457565b606460405162461bcd60e51b815260206004820152601760248201527f436865636b706f696e743a20696e76616c6964206b65790000000000000000006044820152fd5b909291928382548015156000146159175792602092918461586361585e615851612a6098612616565b8560005260206000200190565b6157bb565b93615872855163ffffffff1690565b61588963ffffffff918284169283911611156157dd565b6158a361589a875163ffffffff1690565b63ffffffff1690565b036158e157506158d3926155b76158b992612616565b9063ffffffff63ffffffff1983549260201b169116179055565b01516001600160e01b031690565b915050615912916158ff6158f3610f7d565b63ffffffff9093168352565b6001600160e01b0388168286015261576c565b6158d3565b505061593c916159286158f3610f7d565b6001600160e01b038516602083015261576c565b60009190565b63ffffffff90818111615953571690565b608460405162461bcd60e51b815260206004820152602660248201527f53616665436173743a2076616c756520646f65736e27742066697420696e203360448201527f32206269747300000000000000000000000000000000000000000000000000006064820152fd5b919060001981840981840291828083109203918083039214615a5957670de0b6b3a76400009081831015615a22577faccb18165bd6fe31ae1cf318dc5b51eee0e1ba569b88cd74c1773b91fac1066994950990828211900360ee1b910360121c170290565b60448383604051917f773cc18c00000000000000000000000000000000000000000000000000000000835260048301526024820152fd5b5050670de0b6b3a76400009004915056fea26469706673582212200c15ac3686933f2f247776b01435fadc1e40ab814cebcf4dedcea4fa8b47123a64736f6c63430008140033",
    "linkReferences": {}
  },
  "methodIdentifiers": {
    "TOTAL_REDEMPTION_WEIGHT()": "640abacd",
    "amountRedeemed()": "27f6e979",
    "approve(address,uint256)": "095ea7b3",
    "balanceOf(address)": "70a08231",
    "baseURI()": "6c0360eb",
    "codeOrigin()": "1d153ca4",
    "contractURI()": "e8a3d485",
    "defaultAttestationDelegate()": "7f989887",
    "didPay((address,uint256,uint256,(address,uint256,uint256,uint256),(address,uint256,uint256,uint256),uint256,address,bool,string,bytes))": "da9ee8b7",
    "didRedeem((address,uint256,uint256,uint256,(address,uint256,uint256,uint256),(address,uint256,uint256,uint256),address,string,bytes))": "2b13c58f",
    "directory()": "c41c2f24",
    "firstOwnerOf(uint256)": "54c6d1f5",
    "fundingCycleStore()": "557e7155",
    "gamePhaseReporter()": "a0b6490c",
    "gamePotReporter()": "7245d80c",
    "getApproved(uint256)": "081812fc",
    "getPastTierAttestationUnitsOf(address,uint256,uint256)": "ea1c1b25",
    "getPastTierTotalAttestationUnitsOf(uint256,uint256)": "d9119f5f",
    "getTierAttestationUnitsOf(address,uint256)": "c3c69a96",
    "getTierDelegateOf(address,uint256)": "9c8c6cd5",
    "getTierTotalAttestationUnitsOf(uint256)": "f7623b81",
    "initialize(uint256,address,string,string,address,string,address,string,(uint104,uint32,uint32,uint16,address,bytes32,uint24,bool,bool,bool,bool)[],uint48,address,address,address,address,string[])": "3900c6f9",
    "isApprovedForAll(address,address)": "e985e9c5",
    "mintReservesFor((uint256,uint256)[])": "2a596e53",
    "mintReservesFor(uint256,uint256)": "aa4fb15b",
    "name()": "06fdde03",
    "owner()": "8da5cb5b",
    "ownerOf(uint256)": "6352211e",
    "payParams((address,address,(address,uint256,uint256,uint256),uint256,uint256,address,uint256,uint256,string,bytes))": "d46cf171",
    "pricingCurrency()": "64640c1e",
    "projectId()": "3fafa127",
    "redeemParams((address,address,uint256,uint256,uint256,uint256,uint256,(address,uint256,uint256,uint256),bool,uint256,string,bytes))": "a51cfd18",
    "redemptionWeightIsSet()": "a8c15f4a",
    "redemptionWeightOf(uint256)": "4f228e11",
    "redemptionWeightOf(uint256[],(address,address,uint256,uint256,uint256,uint256,uint256,(address,uint256,uint256,uint256),bool,uint256,string,bytes))": "7ba62bf9",
    "renounceOwnership()": "715018a6",
    "safeTransferFrom(address,address,uint256)": "42842e0e",
    "safeTransferFrom(address,address,uint256,bytes)": "b88d4fde",
    "setApprovalForAll(address,bool)": "a22cb465",
    "setTierDelegateTo(address,uint256)": "07405b24",
    "setTierDelegatesTo((address,uint256)[])": "c90f5126",
    "setTierRedemptionWeightsTo((uint256,uint256)[])": "fadd72b7",
    "store()": "975057e7",
    "supportsInterface(bytes4)": "01ffc9a7",
    "symbol()": "95d89b41",
    "tierNameOf(uint256)": "1baabc3e",
    "tierRedemptionWeights()": "9df45468",
    "tokenURI(uint256)": "c87b56dd",
    "tokensRedeemedFrom(uint256)": "743682b5",
    "totalRedemptionWeight((address,address,uint256,uint256,uint256,uint256,uint256,(address,uint256,uint256,uint256),bool,uint256,string,bytes))": "9494bf72",
    "transferFrom(address,address,uint256)": "23b872dd",
    "transferOwnership(address)": "f2fde38b"
  },
  "id": 0
}