{
  "abi": [
    {
      "inputs": [],
      "stateMutability": "nonpayable",
      "type": "constructor"
    },
    {
      "inputs": [],
      "name": "ALEADY_MINTED",
      "type": "error"
    },
    {
      "inputs": [],
      "name": "APPROVAL_TO_CURRENT_OWNER",
      "type": "error"
    },
    {
      "inputs": [],
      "name": "APPROVE_TO_CALLER",
      "type": "error"
    },
    {
      "inputs": [],
      "name": "BAD_TIER_ORDER",
      "type": "error"
    },
    {
      "inputs": [],
      "name": "CALLER_NOT_OWNER_OR_APPROVED",
      "type": "error"
    },
    {
      "inputs": [],
      "name": "DELEGATE_ADDRESS_ZERO",
      "type": "error"
    },
    {
      "inputs": [],
      "name": "DELEGATE_CHANGES_UNAVAILABLE_IN_THIS_PHASE",
      "type": "error"
    },
    {
      "inputs": [],
      "name": "GAME_ISNT_SCORING_YET",
      "type": "error"
    },
    {
      "inputs": [],
      "name": "INCORRECT_OWNER",
      "type": "error"
    },
    {
      "inputs": [],
      "name": "INVALID_PAYMENT_EVENT",
      "type": "error"
    },
    {
      "inputs": [],
      "name": "INVALID_REDEMPTION_EVENT",
      "type": "error"
    },
    {
      "inputs": [],
      "name": "INVALID_REDEMPTION_METADATA",
      "type": "error"
    },
    {
      "inputs": [],
      "name": "INVALID_REDEMPTION_WEIGHTS",
      "type": "error"
    },
    {
      "inputs": [],
      "name": "INVALID_TIER_ID",
      "type": "error"
    },
    {
      "inputs": [],
      "name": "INVALID_TOKEN_ID",
      "type": "error"
    },
    {
      "inputs": [],
      "name": "MINT_TO_ZERO",
      "type": "error"
    },
    {
      "inputs": [],
      "name": "NOTHING_TO_CLAIM",
      "type": "error"
    },
    {
      "inputs": [],
      "name": "NOTHING_TO_MINT",
      "type": "error"
    },
    {
      "inputs": [],
      "name": "NO_CONTEST",
      "type": "error"
    },
    {
      "inputs": [],
      "name": "OVERSPENDING",
      "type": "error"
    },
    {
      "inputs": [
        {
          "internalType": "uint256",
          "name": "prod1",
          "type": "uint256"
        },
        {
          "internalType": "uint256",
          "name": "denominator",
          "type": "uint256"
        }
      ],
      "name": "PRBMath__MulDivOverflow",
      "type": "error"
    },
    {
      "inputs": [],
      "name": "REDEMPTION_WEIGHTS_ALREADY_SET",
      "type": "error"
    },
    {
      "inputs": [],
      "name": "RESERVED_TOKEN_MINTING_PAUSED",
      "type": "error"
    },
    {
      "inputs": [],
      "name": "TRANSFERS_PAUSED",
      "type": "error"
    },
    {
      "inputs": [],
      "name": "TRANSFER_TO_NON_IMPLEMENTER",
      "type": "error"
    },
    {
      "inputs": [],
      "name": "TRANSFER_TO_ZERO_ADDRESS",
      "type": "error"
    },
    {
      "inputs": [],
      "name": "UNAUTHORIZED",
      "type": "error"
    },
    {
      "inputs": [
        {
          "internalType": "uint256",
          "name": "_tokenId",
          "type": "uint256"
        }
      ],
      "name": "UNAUTHORIZED_TOKEN",
      "type": "error"
    },
    {
      "inputs": [],
      "name": "UNEXPECTED_TOKEN_REDEEMED",
      "type": "error"
    },
    {
      "inputs": [],
      "name": "WRONG_CURRENCY",
      "type": "error"
    },
    {
      "anonymous": false,
      "inputs": [
        {
          "indexed": true,
          "internalType": "address",
          "name": "owner",
          "type": "address"
        },
        {
          "indexed": true,
          "internalType": "address",
          "name": "approved",
          "type": "address"
        },
        {
          "indexed": true,
          "internalType": "uint256",
          "name": "tokenId",
          "type": "uint256"
        }
      ],
      "name": "Approval",
      "type": "event"
    },
    {
      "anonymous": false,
      "inputs": [
        {
          "indexed": true,
          "internalType": "address",
          "name": "owner",
          "type": "address"
        },
        {
          "indexed": true,
          "internalType": "address",
          "name": "operator",
          "type": "address"
        },
        {
          "indexed": false,
          "internalType": "bool",
          "name": "approved",
          "type": "bool"
        }
      ],
      "name": "ApprovalForAll",
      "type": "event"
    },
    {
      "anonymous": false,
      "inputs": [
        {
          "indexed": true,
          "internalType": "address",
          "name": "delegator",
          "type": "address"
        },
        {
          "indexed": true,
          "internalType": "address",
          "name": "fromDelegate",
          "type": "address"
        },
        {
          "indexed": true,
          "internalType": "address",
          "name": "toDelegate",
          "type": "address"
        }
      ],
      "name": "DelegateChanged",
      "type": "event"
    },
    {
      "anonymous": false,
      "inputs": [
        {
          "indexed": true,
          "internalType": "uint256",
          "name": "tokenId",
          "type": "uint256"
        },
        {
          "indexed": true,
          "internalType": "uint256",
          "name": "tierId",
          "type": "uint256"
        },
        {
          "indexed": true,
          "internalType": "address",
          "name": "beneficiary",
          "type": "address"
        },
        {
          "indexed": false,
          "internalType": "uint256",
          "name": "totalAmountContributed",
          "type": "uint256"
        },
        {
          "indexed": false,
          "internalType": "address",
          "name": "caller",
          "type": "address"
        }
      ],
      "name": "Mint",
      "type": "event"
    },
    {
      "anonymous": false,
      "inputs": [
        {
          "indexed": true,
          "internalType": "uint256",
          "name": "tokenId",
          "type": "uint256"
        },
        {
          "indexed": true,
          "internalType": "uint256",
          "name": "tierId",
          "type": "uint256"
        },
        {
          "indexed": true,
          "internalType": "address",
          "name": "beneficiary",
          "type": "address"
        },
        {
          "indexed": false,
          "internalType": "address",
          "name": "caller",
          "type": "address"
        }
      ],
      "name": "MintReservedToken",
      "type": "event"
    },
    {
      "anonymous": false,
      "inputs": [
        {
          "indexed": true,
          "internalType": "address",
          "name": "previousOwner",
          "type": "address"
        },
        {
          "indexed": true,
          "internalType": "address",
          "name": "newOwner",
          "type": "address"
        }
      ],
      "name": "OwnershipTransferred",
      "type": "event"
    },
    {
      "anonymous": false,
      "inputs": [
        {
          "indexed": true,
          "internalType": "address",
          "name": "delegate",
          "type": "address"
        },
        {
          "indexed": true,
          "internalType": "uint256",
          "name": "tierId",
          "type": "uint256"
        },
        {
          "indexed": false,
          "internalType": "uint256",
          "name": "previousBalance",
          "type": "uint256"
        },
        {
          "indexed": false,
          "internalType": "uint256",
          "name": "newBalance",
          "type": "uint256"
        },
        {
          "indexed": false,
          "internalType": "address",
          "name": "caller",
          "type": "address"
        }
      ],
      "name": "TierDelegateVotesChanged",
      "type": "event"
    },
    {
      "anonymous": false,
      "inputs": [
        {
          "indexed": true,
          "internalType": "address",
          "name": "from",
          "type": "address"
        },
        {
          "indexed": true,
          "internalType": "address",
          "name": "to",
          "type": "address"
        },
        {
          "indexed": true,
          "internalType": "uint256",
          "name": "tokenId",
          "type": "uint256"
        }
      ],
      "name": "Transfer",
      "type": "event"
    },
    {
      "inputs": [],
      "name": "TOTAL_REDEMPTION_WEIGHT",
      "outputs": [
        {
          "internalType": "uint256",
          "name": "",
          "type": "uint256"
        }
      ],
      "stateMutability": "view",
      "type": "function"
    },
    {
      "inputs": [],
      "name": "amountRedeemed",
      "outputs": [
        {
          "internalType": "uint256",
          "name": "",
          "type": "uint256"
        }
      ],
      "stateMutability": "view",
      "type": "function"
    },
    {
      "inputs": [
        {
          "internalType": "address",
          "name": "to",
          "type": "address"
        },
        {
          "internalType": "uint256",
          "name": "tokenId",
          "type": "uint256"
        }
      ],
      "name": "approve",
      "outputs": [],
      "stateMutability": "nonpayable",
      "type": "function"
    },
    {
      "inputs": [
        {
          "internalType": "address",
          "name": "_owner",
          "type": "address"
        }
      ],
      "name": "balanceOf",
      "outputs": [
        {
          "internalType": "uint256",
          "name": "balance",
          "type": "uint256"
        }
      ],
      "stateMutability": "view",
      "type": "function"
    },
    {
      "inputs": [],
      "name": "baseURI",
      "outputs": [
        {
          "internalType": "string",
          "name": "",
          "type": "string"
        }
      ],
      "stateMutability": "view",
      "type": "function"
    },
    {
      "inputs": [],
      "name": "codeOrigin",
      "outputs": [
        {
          "internalType": "address",
          "name": "",
          "type": "address"
        }
      ],
      "stateMutability": "view",
      "type": "function"
    },
    {
      "inputs": [],
      "name": "contractURI",
      "outputs": [
        {
          "internalType": "string",
          "name": "",
          "type": "string"
        }
      ],
      "stateMutability": "view",
      "type": "function"
    },
    {
      "inputs": [],
      "name": "defaultVotingDelegate",
      "outputs": [
        {
          "internalType": "address",
          "name": "",
          "type": "address"
        }
      ],
      "stateMutability": "view",
      "type": "function"
    },
    {
      "inputs": [
        {
          "components": [
            {
              "internalType": "address",
              "name": "payer",
              "type": "address"
            },
            {
              "internalType": "uint256",
              "name": "projectId",
              "type": "uint256"
            },
            {
              "internalType": "uint256",
              "name": "currentFundingCycleConfiguration",
              "type": "uint256"
            },
            {
              "components": [
                {
                  "internalType": "address",
                  "name": "token",
                  "type": "address"
                },
                {
                  "internalType": "uint256",
                  "name": "value",
                  "type": "uint256"
                },
                {
                  "internalType": "uint256",
                  "name": "decimals",
                  "type": "uint256"
                },
                {
                  "internalType": "uint256",
                  "name": "currency",
                  "type": "uint256"
                }
              ],
              "internalType": "struct JBTokenAmount",
              "name": "amount",
              "type": "tuple"
            },
            {
              "components": [
                {
                  "internalType": "address",
                  "name": "token",
                  "type": "address"
                },
                {
                  "internalType": "uint256",
                  "name": "value",
                  "type": "uint256"
                },
                {
                  "internalType": "uint256",
                  "name": "decimals",
                  "type": "uint256"
                },
                {
                  "internalType": "uint256",
                  "name": "currency",
                  "type": "uint256"
                }
              ],
              "internalType": "struct JBTokenAmount",
              "name": "forwardedAmount",
              "type": "tuple"
            },
            {
              "internalType": "uint256",
              "name": "projectTokenCount",
              "type": "uint256"
            },
            {
              "internalType": "address",
              "name": "beneficiary",
              "type": "address"
            },
            {
              "internalType": "bool",
              "name": "preferClaimedTokens",
              "type": "bool"
            },
            {
              "internalType": "string",
              "name": "memo",
              "type": "string"
            },
            {
              "internalType": "bytes",
              "name": "metadata",
              "type": "bytes"
            }
          ],
          "internalType": "struct JBDidPayData",
          "name": "_data",
          "type": "tuple"
        }
      ],
      "name": "didPay",
      "outputs": [],
      "stateMutability": "payable",
      "type": "function"
    },
    {
      "inputs": [
        {
          "components": [
            {
              "internalType": "address",
              "name": "holder",
              "type": "address"
            },
            {
              "internalType": "uint256",
              "name": "projectId",
              "type": "uint256"
            },
            {
              "internalType": "uint256",
              "name": "currentFundingCycleConfiguration",
              "type": "uint256"
            },
            {
              "internalType": "uint256",
              "name": "projectTokenCount",
              "type": "uint256"
            },
            {
              "components": [
                {
                  "internalType": "address",
                  "name": "token",
                  "type": "address"
                },
                {
                  "internalType": "uint256",
                  "name": "value",
                  "type": "uint256"
                },
                {
                  "internalType": "uint256",
                  "name": "decimals",
                  "type": "uint256"
                },
                {
                  "internalType": "uint256",
                  "name": "currency",
                  "type": "uint256"
                }
              ],
              "internalType": "struct JBTokenAmount",
              "name": "reclaimedAmount",
              "type": "tuple"
            },
            {
              "components": [
                {
                  "internalType": "address",
                  "name": "token",
                  "type": "address"
                },
                {
                  "internalType": "uint256",
                  "name": "value",
                  "type": "uint256"
                },
                {
                  "internalType": "uint256",
                  "name": "decimals",
                  "type": "uint256"
                },
                {
                  "internalType": "uint256",
                  "name": "currency",
                  "type": "uint256"
                }
              ],
              "internalType": "struct JBTokenAmount",
              "name": "forwardedAmount",
              "type": "tuple"
            },
            {
              "internalType": "address payable",
              "name": "beneficiary",
              "type": "address"
            },
            {
              "internalType": "string",
              "name": "memo",
              "type": "string"
            },
            {
              "internalType": "bytes",
              "name": "metadata",
              "type": "bytes"
            }
          ],
          "internalType": "struct JBDidRedeemData",
          "name": "_data",
          "type": "tuple"
        }
      ],
      "name": "didRedeem",
      "outputs": [],
      "stateMutability": "payable",
      "type": "function"
    },
    {
      "inputs": [],
      "name": "directory",
      "outputs": [
        {
          "internalType": "contract IJBDirectory",
          "name": "",
          "type": "address"
        }
      ],
      "stateMutability": "view",
      "type": "function"
    },
    {
      "inputs": [
        {
          "internalType": "uint256",
          "name": "_tokenId",
          "type": "uint256"
        }
      ],
      "name": "firstOwnerOf",
      "outputs": [
        {
          "internalType": "address",
          "name": "",
          "type": "address"
        }
      ],
      "stateMutability": "view",
      "type": "function"
    },
    {
      "inputs": [],
      "name": "fundingCycleStore",
      "outputs": [
        {
          "internalType": "contract IJBFundingCycleStore",
          "name": "",
          "type": "address"
        }
      ],
      "stateMutability": "view",
      "type": "function"
    },
    {
      "inputs": [],
      "name": "gamePhaseReporter",
      "outputs": [
        {
          "internalType": "contract IDefifaGamePhaseReporter",
          "name": "",
          "type": "address"
        }
      ],
      "stateMutability": "view",
      "type": "function"
    },
    {
      "inputs": [],
      "name": "gamePotReporter",
      "outputs": [
        {
          "internalType": "contract IDefifaGamePotReporter",
          "name": "",
          "type": "address"
        }
      ],
      "stateMutability": "view",
      "type": "function"
    },
    {
      "inputs": [
        {
          "internalType": "uint256",
          "name": "tokenId",
          "type": "uint256"
        }
      ],
      "name": "getApproved",
      "outputs": [
        {
          "internalType": "address",
          "name": "",
          "type": "address"
        }
      ],
      "stateMutability": "view",
      "type": "function"
    },
    {
      "inputs": [
        {
          "internalType": "uint256",
          "name": "_tier",
          "type": "uint256"
        },
        {
          "internalType": "uint256",
          "name": "_blockNumber",
          "type": "uint256"
        }
      ],
      "name": "getPastTierTotalVotes",
      "outputs": [
        {
          "internalType": "uint256",
          "name": "",
          "type": "uint256"
        }
      ],
      "stateMutability": "view",
      "type": "function"
    },
    {
      "inputs": [
        {
          "internalType": "address",
          "name": "_account",
          "type": "address"
        },
        {
          "internalType": "uint256",
          "name": "_tier",
          "type": "uint256"
        },
        {
          "internalType": "uint256",
          "name": "_blockNumber",
          "type": "uint256"
        }
      ],
      "name": "getPastTierVotes",
      "outputs": [
        {
          "internalType": "uint256",
          "name": "",
          "type": "uint256"
        }
      ],
      "stateMutability": "view",
      "type": "function"
    },
    {
      "inputs": [
        {
          "internalType": "address",
          "name": "_account",
          "type": "address"
        },
        {
          "internalType": "uint256",
          "name": "_tier",
          "type": "uint256"
        }
      ],
      "name": "getTierDelegate",
      "outputs": [
        {
          "internalType": "address",
          "name": "",
          "type": "address"
        }
      ],
      "stateMutability": "view",
      "type": "function"
    },
    {
      "inputs": [
        {
          "internalType": "uint256",
          "name": "_tier",
          "type": "uint256"
        }
      ],
      "name": "getTierTotalVotes",
      "outputs": [
        {
          "internalType": "uint256",
          "name": "",
          "type": "uint256"
        }
      ],
      "stateMutability": "view",
      "type": "function"
    },
    {
      "inputs": [
        {
          "internalType": "address",
          "name": "_account",
          "type": "address"
        },
        {
          "internalType": "uint256",
          "name": "_tier",
          "type": "uint256"
        }
      ],
      "name": "getTierVotes",
      "outputs": [
        {
          "internalType": "uint256",
          "name": "",
          "type": "uint256"
        }
      ],
      "stateMutability": "view",
      "type": "function"
    },
    {
      "inputs": [
        {
          "internalType": "uint256",
          "name": "_gameId",
          "type": "uint256"
        },
        {
          "internalType": "contract IJBDirectory",
          "name": "_directory",
          "type": "address"
        },
        {
          "internalType": "string",
          "name": "_name",
          "type": "string"
        },
        {
          "internalType": "string",
          "name": "_symbol",
          "type": "string"
        },
        {
          "internalType": "contract IJBFundingCycleStore",
          "name": "_fundingCycleStore",
          "type": "address"
        },
        {
          "internalType": "string",
          "name": "_baseUri",
          "type": "string"
        },
        {
          "internalType": "contract IJBTokenUriResolver",
          "name": "_tokenUriResolver",
          "type": "address"
        },
        {
          "internalType": "string",
          "name": "_contractUri",
          "type": "string"
        },
        {
          "components": [
            {
              "internalType": "uint104",
              "name": "price",
              "type": "uint104"
            },
            {
              "internalType": "uint32",
              "name": "initialQuantity",
              "type": "uint32"
            },
            {
              "internalType": "uint32",
              "name": "votingUnits",
              "type": "uint32"
            },
            {
              "internalType": "uint16",
              "name": "reservedRate",
              "type": "uint16"
            },
            {
              "internalType": "address",
              "name": "reservedTokenBeneficiary",
              "type": "address"
            },
            {
              "internalType": "bytes32",
              "name": "encodedIPFSUri",
              "type": "bytes32"
            },
            {
              "internalType": "uint24",
              "name": "category",
              "type": "uint24"
            },
            {
              "internalType": "bool",
              "name": "allowManualMint",
              "type": "bool"
            },
            {
              "internalType": "bool",
              "name": "shouldUseReservedTokenBeneficiaryAsDefault",
              "type": "bool"
            },
            {
              "internalType": "bool",
              "name": "transfersPausable",
              "type": "bool"
            },
            {
              "internalType": "bool",
              "name": "useVotingUnits",
              "type": "bool"
            }
          ],
          "internalType": "struct JB721TierParams[]",
          "name": "_tiers",
          "type": "tuple[]"
        },
        {
          "internalType": "uint48",
          "name": "_currency",
          "type": "uint48"
        },
        {
          "internalType": "contract IJBTiered721DelegateStore",
          "name": "_store",
          "type": "address"
        },
        {
          "components": [
            {
              "internalType": "bool",
              "name": "lockReservedTokenChanges",
              "type": "bool"
            },
            {
              "internalType": "bool",
              "name": "lockVotingUnitChanges",
              "type": "bool"
            },
            {
              "internalType": "bool",
              "name": "lockManualMintingChanges",
              "type": "bool"
            },
            {
              "internalType": "bool",
              "name": "preventOverspending",
              "type": "bool"
            }
          ],
          "internalType": "struct JBTiered721Flags",
          "name": "_flags",
          "type": "tuple"
        },
        {
          "internalType": "contract IDefifaGamePhaseReporter",
          "name": "_gamePhaseReporter",
          "type": "address"
        },
        {
          "internalType": "contract IDefifaGamePotReporter",
          "name": "_gamePotReporter",
          "type": "address"
        },
        {
          "internalType": "address",
          "name": "_defaultVotingDelegate",
          "type": "address"
        }
      ],
      "name": "initialize",
      "outputs": [],
      "stateMutability": "nonpayable",
      "type": "function"
    },
    {
      "inputs": [
        {
          "internalType": "address",
          "name": "owner",
          "type": "address"
        },
        {
          "internalType": "address",
          "name": "operator",
          "type": "address"
        }
      ],
      "name": "isApprovedForAll",
      "outputs": [
        {
          "internalType": "bool",
          "name": "",
          "type": "bool"
        }
      ],
      "stateMutability": "view",
      "type": "function"
    },
    {
      "inputs": [
        {
          "components": [
            {
              "internalType": "uint256",
              "name": "tierId",
              "type": "uint256"
            },
            {
              "internalType": "uint256",
              "name": "count",
              "type": "uint256"
            }
          ],
          "internalType": "struct JBTiered721MintReservesForTiersData[]",
          "name": "_mintReservesForTiersData",
          "type": "tuple[]"
        }
      ],
      "name": "mintReservesFor",
      "outputs": [],
      "stateMutability": "nonpayable",
      "type": "function"
    },
    {
      "inputs": [
        {
          "internalType": "uint256",
          "name": "_tierId",
          "type": "uint256"
        },
        {
          "internalType": "uint256",
          "name": "_count",
          "type": "uint256"
        }
      ],
      "name": "mintReservesFor",
      "outputs": [],
      "stateMutability": "nonpayable",
      "type": "function"
    },
    {
      "inputs": [],
      "name": "name",
      "outputs": [
        {
          "internalType": "string",
          "name": "",
          "type": "string"
        }
      ],
      "stateMutability": "view",
      "type": "function"
    },
    {
      "inputs": [],
      "name": "owner",
      "outputs": [
        {
          "internalType": "address",
          "name": "",
          "type": "address"
        }
      ],
      "stateMutability": "view",
      "type": "function"
    },
    {
      "inputs": [
        {
          "internalType": "uint256",
          "name": "tokenId",
          "type": "uint256"
        }
      ],
      "name": "ownerOf",
      "outputs": [
        {
          "internalType": "address",
          "name": "",
          "type": "address"
        }
      ],
      "stateMutability": "view",
      "type": "function"
    },
    {
      "inputs": [
        {
          "components": [
            {
              "internalType": "contract IJBPaymentTerminal",
              "name": "terminal",
              "type": "address"
            },
            {
              "internalType": "address",
              "name": "payer",
              "type": "address"
            },
            {
              "components": [
                {
                  "internalType": "address",
                  "name": "token",
                  "type": "address"
                },
                {
                  "internalType": "uint256",
                  "name": "value",
                  "type": "uint256"
                },
                {
                  "internalType": "uint256",
                  "name": "decimals",
                  "type": "uint256"
                },
                {
                  "internalType": "uint256",
                  "name": "currency",
                  "type": "uint256"
                }
              ],
              "internalType": "struct JBTokenAmount",
              "name": "amount",
              "type": "tuple"
            },
            {
              "internalType": "uint256",
              "name": "projectId",
              "type": "uint256"
            },
            {
              "internalType": "uint256",
              "name": "currentFundingCycleConfiguration",
              "type": "uint256"
            },
            {
              "internalType": "address",
              "name": "beneficiary",
              "type": "address"
            },
            {
              "internalType": "uint256",
              "name": "weight",
              "type": "uint256"
            },
            {
              "internalType": "uint256",
              "name": "reservedRate",
              "type": "uint256"
            },
            {
              "internalType": "string",
              "name": "memo",
              "type": "string"
            },
            {
              "internalType": "bytes",
              "name": "metadata",
              "type": "bytes"
            }
          ],
          "internalType": "struct JBPayParamsData",
          "name": "_data",
          "type": "tuple"
        }
      ],
      "name": "payParams",
      "outputs": [
        {
          "internalType": "uint256",
          "name": "weight",
          "type": "uint256"
        },
        {
          "internalType": "string",
          "name": "memo",
          "type": "string"
        },
        {
          "components": [
            {
              "internalType": "contract IJBPayDelegate",
              "name": "delegate",
              "type": "address"
            },
            {
              "internalType": "uint256",
              "name": "amount",
              "type": "uint256"
            }
          ],
          "internalType": "struct JBPayDelegateAllocation[]",
          "name": "delegateAllocations",
          "type": "tuple[]"
        }
      ],
      "stateMutability": "view",
      "type": "function"
    },
    {
      "inputs": [],
      "name": "pricingCurrency",
      "outputs": [
        {
          "internalType": "uint256",
          "name": "",
          "type": "uint256"
        }
      ],
      "stateMutability": "view",
      "type": "function"
    },
    {
      "inputs": [],
      "name": "projectId",
      "outputs": [
        {
          "internalType": "uint256",
          "name": "",
          "type": "uint256"
        }
      ],
      "stateMutability": "view",
      "type": "function"
    },
    {
      "inputs": [
        {
          "components": [
            {
              "internalType": "contract IJBPaymentTerminal",
              "name": "terminal",
              "type": "address"
            },
            {
              "internalType": "address",
              "name": "holder",
              "type": "address"
            },
            {
              "internalType": "uint256",
              "name": "projectId",
              "type": "uint256"
            },
            {
              "internalType": "uint256",
              "name": "currentFundingCycleConfiguration",
              "type": "uint256"
            },
            {
              "internalType": "uint256",
              "name": "tokenCount",
              "type": "uint256"
            },
            {
              "internalType": "uint256",
              "name": "totalSupply",
              "type": "uint256"
            },
            {
              "internalType": "uint256",
              "name": "overflow",
              "type": "uint256"
            },
            {
              "components": [
                {
                  "internalType": "address",
                  "name": "token",
                  "type": "address"
                },
                {
                  "internalType": "uint256",
                  "name": "value",
                  "type": "uint256"
                },
                {
                  "internalType": "uint256",
                  "name": "decimals",
                  "type": "uint256"
                },
                {
                  "internalType": "uint256",
                  "name": "currency",
                  "type": "uint256"
                }
              ],
              "internalType": "struct JBTokenAmount",
              "name": "reclaimAmount",
              "type": "tuple"
            },
            {
              "internalType": "bool",
              "name": "useTotalOverflow",
              "type": "bool"
            },
            {
              "internalType": "uint256",
              "name": "redemptionRate",
              "type": "uint256"
            },
            {
              "internalType": "string",
              "name": "memo",
              "type": "string"
            },
            {
              "internalType": "bytes",
              "name": "metadata",
              "type": "bytes"
            }
          ],
          "internalType": "struct JBRedeemParamsData",
          "name": "_data",
          "type": "tuple"
        }
      ],
      "name": "redeemParams",
      "outputs": [
        {
          "internalType": "uint256",
          "name": "reclaimAmount",
          "type": "uint256"
        },
        {
          "internalType": "string",
          "name": "memo",
          "type": "string"
        },
        {
          "components": [
            {
              "internalType": "contract IJBRedemptionDelegate",
              "name": "delegate",
              "type": "address"
            },
            {
              "internalType": "uint256",
              "name": "amount",
              "type": "uint256"
            }
          ],
          "internalType": "struct JBRedemptionDelegateAllocation[]",
          "name": "delegateAllocations",
          "type": "tuple[]"
        }
      ],
      "stateMutability": "view",
      "type": "function"
    },
    {
      "inputs": [],
      "name": "redemptionWeightIsSet",
      "outputs": [
        {
          "internalType": "bool",
          "name": "",
          "type": "bool"
        }
      ],
      "stateMutability": "view",
      "type": "function"
    },
    {
      "inputs": [
        {
          "internalType": "uint256",
          "name": "_tokenId",
          "type": "uint256"
        }
      ],
      "name": "redemptionWeightOf",
      "outputs": [
        {
          "internalType": "uint256",
          "name": "",
          "type": "uint256"
        }
      ],
      "stateMutability": "view",
      "type": "function"
    },
    {
      "inputs": [
        {
          "internalType": "uint256[]",
          "name": "_tokenIds",
          "type": "uint256[]"
        },
        {
          "components": [
            {
              "internalType": "contract IJBPaymentTerminal",
              "name": "terminal",
              "type": "address"
            },
            {
              "internalType": "address",
              "name": "holder",
              "type": "address"
            },
            {
              "internalType": "uint256",
              "name": "projectId",
              "type": "uint256"
            },
            {
              "internalType": "uint256",
              "name": "currentFundingCycleConfiguration",
              "type": "uint256"
            },
            {
              "internalType": "uint256",
              "name": "tokenCount",
              "type": "uint256"
            },
            {
              "internalType": "uint256",
              "name": "totalSupply",
              "type": "uint256"
            },
            {
              "internalType": "uint256",
              "name": "overflow",
              "type": "uint256"
            },
            {
              "components": [
                {
                  "internalType": "address",
                  "name": "token",
                  "type": "address"
                },
                {
                  "internalType": "uint256",
                  "name": "value",
                  "type": "uint256"
                },
                {
                  "internalType": "uint256",
                  "name": "decimals",
                  "type": "uint256"
                },
                {
                  "internalType": "uint256",
                  "name": "currency",
                  "type": "uint256"
                }
              ],
              "internalType": "struct JBTokenAmount",
              "name": "reclaimAmount",
              "type": "tuple"
            },
            {
              "internalType": "bool",
              "name": "useTotalOverflow",
              "type": "bool"
            },
            {
              "internalType": "uint256",
              "name": "redemptionRate",
              "type": "uint256"
            },
            {
              "internalType": "string",
              "name": "memo",
              "type": "string"
            },
            {
              "internalType": "bytes",
              "name": "metadata",
              "type": "bytes"
            }
          ],
          "internalType": "struct JBRedeemParamsData",
          "name": "",
          "type": "tuple"
        }
      ],
      "name": "redemptionWeightOf",
      "outputs": [
        {
          "internalType": "uint256",
          "name": "cumulativeWeight",
          "type": "uint256"
        }
      ],
      "stateMutability": "view",
      "type": "function"
    },
    {
      "inputs": [],
      "name": "renounceOwnership",
      "outputs": [],
      "stateMutability": "nonpayable",
      "type": "function"
    },
    {
      "inputs": [
        {
          "internalType": "address",
          "name": "from",
          "type": "address"
        },
        {
          "internalType": "address",
          "name": "to",
          "type": "address"
        },
        {
          "internalType": "uint256",
          "name": "tokenId",
          "type": "uint256"
        }
      ],
      "name": "safeTransferFrom",
      "outputs": [],
      "stateMutability": "nonpayable",
      "type": "function"
    },
    {
      "inputs": [
        {
          "internalType": "address",
          "name": "from",
          "type": "address"
        },
        {
          "internalType": "address",
          "name": "to",
          "type": "address"
        },
        {
          "internalType": "uint256",
          "name": "tokenId",
          "type": "uint256"
        },
        {
          "internalType": "bytes",
          "name": "data",
          "type": "bytes"
        }
      ],
      "name": "safeTransferFrom",
      "outputs": [],
      "stateMutability": "nonpayable",
      "type": "function"
    },
    {
      "inputs": [
        {
          "internalType": "address",
          "name": "operator",
          "type": "address"
        },
        {
          "internalType": "bool",
          "name": "approved",
          "type": "bool"
        }
      ],
      "name": "setApprovalForAll",
      "outputs": [],
      "stateMutability": "nonpayable",
      "type": "function"
    },
    {
      "inputs": [
        {
          "internalType": "address",
          "name": "_delegatee",
          "type": "address"
        },
        {
          "internalType": "uint256",
          "name": "_tierId",
          "type": "uint256"
        }
      ],
      "name": "setTierDelegate",
      "outputs": [],
      "stateMutability": "nonpayable",
      "type": "function"
    },
    {
      "inputs": [
        {
          "components": [
            {
              "internalType": "address",
              "name": "delegatee",
              "type": "address"
            },
            {
              "internalType": "uint256",
              "name": "tierId",
              "type": "uint256"
            }
          ],
          "internalType": "struct JBTiered721SetTierDelegatesData[]",
          "name": "_setTierDelegatesData",
          "type": "tuple[]"
        }
      ],
      "name": "setTierDelegates",
      "outputs": [],
      "stateMutability": "nonpayable",
      "type": "function"
    },
    {
      "inputs": [
        {
          "components": [
            {
              "internalType": "uint256",
              "name": "id",
              "type": "uint256"
            },
            {
              "internalType": "uint256",
              "name": "redemptionWeight",
              "type": "uint256"
            }
          ],
          "internalType": "struct DefifaTierRedemptionWeight[]",
          "name": "_tierWeights",
          "type": "tuple[]"
        }
      ],
      "name": "setTierRedemptionWeights",
      "outputs": [],
      "stateMutability": "nonpayable",
      "type": "function"
    },
    {
      "inputs": [],
      "name": "store",
      "outputs": [
        {
          "internalType": "contract IJBTiered721DelegateStore",
          "name": "",
          "type": "address"
        }
      ],
      "stateMutability": "view",
      "type": "function"
    },
    {
      "inputs": [
        {
          "internalType": "bytes4",
          "name": "_interfaceId",
          "type": "bytes4"
        }
      ],
      "name": "supportsInterface",
      "outputs": [
        {
          "internalType": "bool",
          "name": "",
          "type": "bool"
        }
      ],
      "stateMutability": "view",
      "type": "function"
    },
    {
      "inputs": [],
      "name": "symbol",
      "outputs": [
        {
          "internalType": "string",
          "name": "",
          "type": "string"
        }
      ],
      "stateMutability": "view",
      "type": "function"
    },
    {
      "inputs": [],
      "name": "tierRedemptionWeights",
      "outputs": [
        {
          "internalType": "uint256[128]",
          "name": "",
          "type": "uint256[128]"
        }
      ],
      "stateMutability": "view",
      "type": "function"
    },
    {
      "inputs": [
        {
          "internalType": "uint256",
          "name": "_tokenId",
          "type": "uint256"
        }
      ],
      "name": "tokenURI",
      "outputs": [
        {
          "internalType": "string",
          "name": "",
          "type": "string"
        }
      ],
      "stateMutability": "view",
      "type": "function"
    },
    {
      "inputs": [
        {
          "internalType": "uint256",
          "name": "",
          "type": "uint256"
        }
      ],
      "name": "tokensRedeemedFrom",
      "outputs": [
        {
          "internalType": "uint256",
          "name": "",
          "type": "uint256"
        }
      ],
      "stateMutability": "view",
      "type": "function"
    },
    {
      "inputs": [
        {
          "components": [
            {
              "internalType": "contract IJBPaymentTerminal",
              "name": "terminal",
              "type": "address"
            },
            {
              "internalType": "address",
              "name": "holder",
              "type": "address"
            },
            {
              "internalType": "uint256",
              "name": "projectId",
              "type": "uint256"
            },
            {
              "internalType": "uint256",
              "name": "currentFundingCycleConfiguration",
              "type": "uint256"
            },
            {
              "internalType": "uint256",
              "name": "tokenCount",
              "type": "uint256"
            },
            {
              "internalType": "uint256",
              "name": "totalSupply",
              "type": "uint256"
            },
            {
              "internalType": "uint256",
              "name": "overflow",
              "type": "uint256"
            },
            {
              "components": [
                {
                  "internalType": "address",
                  "name": "token",
                  "type": "address"
                },
                {
                  "internalType": "uint256",
                  "name": "value",
                  "type": "uint256"
                },
                {
                  "internalType": "uint256",
                  "name": "decimals",
                  "type": "uint256"
                },
                {
                  "internalType": "uint256",
                  "name": "currency",
                  "type": "uint256"
                }
              ],
              "internalType": "struct JBTokenAmount",
              "name": "reclaimAmount",
              "type": "tuple"
            },
            {
              "internalType": "bool",
              "name": "useTotalOverflow",
              "type": "bool"
            },
            {
              "internalType": "uint256",
              "name": "redemptionRate",
              "type": "uint256"
            },
            {
              "internalType": "string",
              "name": "memo",
              "type": "string"
            },
            {
              "internalType": "bytes",
              "name": "metadata",
              "type": "bytes"
            }
          ],
          "internalType": "struct JBRedeemParamsData",
          "name": "",
          "type": "tuple"
        }
      ],
      "name": "totalRedemptionWeight",
      "outputs": [
        {
          "internalType": "uint256",
          "name": "",
          "type": "uint256"
        }
      ],
      "stateMutability": "view",
      "type": "function"
    },
    {
      "inputs": [
        {
          "internalType": "address",
          "name": "from",
          "type": "address"
        },
        {
          "internalType": "address",
          "name": "to",
          "type": "address"
        },
        {
          "internalType": "uint256",
          "name": "tokenId",
          "type": "uint256"
        }
      ],
      "name": "transferFrom",
      "outputs": [],
      "stateMutability": "nonpayable",
      "type": "function"
    },
    {
      "inputs": [
        {
          "internalType": "address",
          "name": "newOwner",
          "type": "address"
        }
      ],
      "name": "transferOwnership",
      "outputs": [],
      "stateMutability": "nonpayable",
      "type": "function"
    }
  ],
  "bytecode": {
    "object": "0x60a0806040523461006e5760078054336001600160a01b0319821681179092556001600160a01b03167f8be0079c531659141344cd1fd0a4f28419497f9722a3daafe3b4186f6b6457e0600080a330608052615851908162000074823960805181818161081001526131290152f35b600080fdfe6080604052600436101561001257600080fd5b60003560e01c806301ffc9a71461034757806306fdde0314610342578063081812fc1461033d578063095ea7b314610338578063174e3e05146103335780631d153ca41461032e57806323b872dd1461032957806327f6e979146103245780632a596e531461031f5780632b13c58f1461031a5780632f441500146103155780633fafa1271461031057806342842e0e1461030b5780634f228e111461030657806354c6d1f514610301578063557e7155146102fc5780636352211e146102f7578063640abacd146102f257806364640c1e146102ed5780636c0360eb146102e857806370a08231146102e3578063715018a6146102de5780637245d80c146102d9578063743682b5146102d4578063795e9c9d146102cf5780637ba62bf9146102ca57806382732b6d146102c55780638da5cb5b146102c05780639494bf72146102bb57806394c5c5ca146102b657806395d89b41146102b1578063975057e7146102ac5780639df45468146102a7578063a0b6490c146102a2578063a22cb4651461029d578063a51cfd1814610298578063a8c15f4a14610293578063aa4fb15b1461028e578063ab951e3914610289578063b88d4fde14610284578063c41c2f241461027f578063c74b13d91461027a578063c87b56dd14610275578063ca323efe14610270578063d31cc52c1461026b578063d40e714614610266578063d46cf17114610261578063da9ee8b71461025c578063e8a3d48514610257578063e985e9c5146102525763f2fde38b1461024d57600080fd5b61223f565b6121d5565b61212e565b612016565b611f5a565b611e9f565b611e71565b611e1e565b611cf4565b611c42565b611c1b565b611bb3565b611ade565b611abf565b611a9c565b611a12565b611944565b61191d565b611898565b611871565b6117cc565b611790565b61176f565b611748565b6116fb565b6116a4565b61155b565b611247565b611220565b6111c4565b61111b565b611074565b61101c565b610ff9565b610fdb565b610fb4565b610f96565b610f70565b610f36565b610f18565b610e85565b610964565b6108a5565b610887565b610860565b6107f0565b6107c9565b6106dc565b610681565b6105a2565b610363565b6001600160e01b031981160361035e57565b600080fd5b3461035e57602060031936011261035e576103b26001600160e01b031960043561038c8161034c565b166384e069e160e01b81149081156103b6575b5060405190151581529081906020820190565b0390f35b7ffbb38e0300000000000000000000000000000000000000000000000000000000811491508115610511575b81156104e7575b81156104bd575b8115610493575b8115610405575b503861039f565b7f80ac58cd00000000000000000000000000000000000000000000000000000000811491508115610469575b811561043f575b50386103fe565b7f01ffc9a70000000000000000000000000000000000000000000000000000000091501438610438565b7f5b5e139f0000000000000000000000000000000000000000000000000000000081149150610431565b7f2a55205a00000000000000000000000000000000000000000000000000000000811491506103f7565b7f2b13c58f00000000000000000000000000000000000000000000000000000000811491506103f0565b7fda9ee8b700000000000000000000000000000000000000000000000000000000811491506103e9565b7f71700c6900000000000000000000000000000000000000000000000000000000811491506103e2565b600091031261035e57565b60005b8381106105595750506000910152565b8181015183820152602001610549565b90601f19601f60209361058781518092818752878088019101610546565b0116010190565b90602061059f928181520190610569565b90565b3461035e5760008060031936011261067e57604051908080546105c48161103a565b8085529160019180831690811561065457506001146105fa575b6103b2856105ee81870382610db2565b6040519182918261058e565b80809450527f290decd9548b62a8d60345a988386fc84ba6bc95484008f6362f93160ef3e5635b82841061063c5750505081016020016105ee826103b26105de565b80546020858701810191909152909301928101610621565b8695506103b2969350602092506105ee94915060ff191682840152151560051b82010192936105de565b80fd5b3461035e57602060031936011261035e57602061069f600435613f8d565b6001600160a01b0360405191168152f35b6001600160a01b0381160361035e57565b61022435906106cf826106b0565b565b35906106cf826106b0565b3461035e57604060031936011261035e576004356106f9816106b0565b6024356001600160a01b038061070e83613f43565b16809184161461079f5780331415908161075d575b506107335761073191614995565b005b60046040517fe5fa0e35000000000000000000000000000000000000000000000000000000008152fd5b9050600052600460205261079961079561078e336040600020906001600160a01b0316600052602052604060002090565b5460ff1690565b1590565b38610723565b60046040517f133f8be9000000000000000000000000000000000000000000000000000000008152fd5b3461035e57600060031936011261035e5760206001600160a01b0360945416604051908152f35b3461035e57600060031936011261035e5760206040516001600160a01b037f0000000000000000000000000000000000000000000000000000000000000000168152f35b600319606091011261035e5760043561084c816106b0565b90602435610859816106b0565b9060443590565b3461035e5761086e36610834565b906108798233614023565b1561073357610731926146e8565b3461035e57600060031936011261035e576020609554604051908152f35b3461035e5760208060031936011261035e576004359067ffffffffffffffff9081831161035e573660238401121561035e57826004013591821161035e57602490600693368385871b8301011161035e5760005b84811061090257005b6001906109246109183687848b1b870101610e5d565b858151910151906138e0565b016108f9565b90816101e091031261035e5790565b602060031982011261035e576004359067ffffffffffffffff821161035e5761059f9160040161092a565b61096d36610939565b3415801590610ca1575b8015610c91575b610c675760a0810135908115610c3d576101c08101602461099f8284612706565b9050108015610c07575b610bdd576109ba6109c29183612706565b8101906127fa565b9150508051916109e96109dd608e546001600160a01b031690565b6001600160a01b031690565b926005549360408051809263038ab08560e11b825260209384918180610a1860049c8d83019190602083019252565b03915afa8015610b8357600391600091610bb0575b50610a378161284d565b149560005b848110610a68578888610a4e89613ea4565b610a5457005b610a6361073191609554612415565b609555565b610a7281886123d8565b5190610a98610a8b836000526002602052604060002090565b546001600160a01b031690565b6001600160a01b03610aac6109dd8a613713565b911603610b88578489610abe8461450e565b610ace575b506001915001610a3c565b610b1e92610ae76109dd608c546001600160a01b031690565b865180809681947f42f9914b0000000000000000000000000000000000000000000000000000000083528983019190602083019252565b03915afa918215610b8357600192610b4991600091610b56575b506000526096602052604060002090565b8054600101905584610ac3565b610b769150873d8911610b7c575b610b6e8183610db2565b810190612318565b38610b38565b503d610b64565b612327565b8284517f075fd2b1000000000000000000000000000000000000000000000000000000008152fd5b610bd09150843d8611610bd6575b610bc88183610db2565b810190612835565b38610a2d565b503d610bbe565b60046040517f2a84050f000000000000000000000000000000000000000000000000000000008152fd5b506384e069e160e01b6001600160e01b0319610c35610c2f610c298587612706565b90612757565b90612779565b1614156109a9565b60046040517f76914729000000000000000000000000000000000000000000000000000000008152fd5b60046040517f7df94b86000000000000000000000000000000000000000000000000000000008152fd5b506005546020820135141561097e565b50610d026020610cbc6109dd6006546001600160a01b031690565b6005546040517f6e49181f000000000000000000000000000000000000000000000000000000008152600481019190915233602482015292839190829081906044820190565b03915afa908115610b8357600091610d1c575b5015610977565b610d3d915060203d8111610d43575b610d358183610db2565b8101906136fe565b38610d15565b503d610d2b565b634e487b7160e01b600052604160045260246000fd5b6040810190811067ffffffffffffffff821117610d7c57604052565b610d4a565b67ffffffffffffffff8111610d7c57604052565b611000810190811067ffffffffffffffff821117610d7c57604052565b90601f601f19910116810190811067ffffffffffffffff821117610d7c57604052565b60405190610160820182811067ffffffffffffffff821117610d7c57604052565b604051906106cf82610d60565b60405190610180820182811067ffffffffffffffff821117610d7c57604052565b60405190610120820182811067ffffffffffffffff821117610d7c57604052565b67ffffffffffffffff8111610d7c5760051b60200190565b919082604091031261035e57604051610e7581610d60565b6020808294803584520135910152565b3461035e5760208060031936011261035e576004359067ffffffffffffffff821161035e573660238301121561035e57816004013591610ec483610e45565b91604093610ed485519485610db2565b80845260248285019160061b8401019236841161035e57602401905b838210610f00576107318561342b565b828691610f0d3685610e5d565b815201910190610ef0565b3461035e57600060031936011261035e576020600554604051908152f35b3461035e57610f4436610834565b60405191602083019383851067ffffffffffffffff861117610d7c576107319460405260008452613fcc565b3461035e57602060031936011261035e576020610f8e600435612598565b604051908152f35b3461035e57602060031936011261035e57602061069f6004356122e6565b3461035e57600060031936011261035e5760206001600160a01b03608d5416604051908152f35b3461035e57602060031936011261035e57602061069f600435613f43565b3461035e57600060031936011261035e576020604051670de0b6b3a76400008152f35b3461035e57600060031936011261035e576020609054604051908152f35b90600182811c9216801561106a575b602083101461105457565b634e487b7160e01b600052602260045260246000fd5b91607f1691611049565b3461035e5760008060031936011261067e5760405190806092546110978161103a565b8085529160019180831690811561065457506001146110c0576103b2856105ee81870382610db2565b9250609283527f6e452848784197f00927d379e3db9e69a5131d2269f862bfcd05a0b38f6abf7f5b8284106111035750505081016020016105ee826103b26105de565b805460208587018101919091529093019281016110e8565b3461035e57602060031936011261035e57600435611138816106b0565b60206001600160a01b03604481608c54169360405194859384927ff7888aec0000000000000000000000000000000000000000000000000000000084523060048501521660248301525afa8015610b83576103b2916000916111a6575b506040519081529081906020820190565b6111be915060203d8111610b7c57610b6e8183610db2565b38611195565b3461035e5760008060031936011261067e576111de615278565b806001600160a01b036007546001600160a01b03198116600755167f8be0079c531659141344cd1fd0a4f28419497f9722a3daafe3b4186f6b6457e08280a380f35b3461035e57600060031936011261035e5760206001600160a01b03608f5416604051908152f35b3461035e57602060031936011261035e5760043560005260966020526020604060002054604051908152f35b602435906106cf826106b0565b67ffffffffffffffff8111610d7c57601f01601f191660200190565b9291926112a882611280565b916112b66040519384610db2565b82948184528183011161035e578281602093846000960137010152565b9080601f8301121561035e5781602061059f9335910161129c565b608435906106cf826106b0565b60c435906106cf826106b0565b35906cffffffffffffffffffffffffff8216820361035e57565b359063ffffffff8216820361035e57565b359061ffff8216820361035e57565b359062ffffff8216820361035e57565b8015150361035e57565b35906106cf82611352565b81601f8201121561035e5780359061137e82610e45565b9260409061138e82519586610db2565b83855260209182860191836101608097028601019481861161035e578401925b8584106113bf575050505050505090565b868483031261035e578487916113d3610dd5565b6113dc87611308565b81526113e9838801611322565b838201526113f8868801611322565b868201526060611409818901611333565b90820152608061141a8189016106d1565b9082015260a0808801359082015260c0611435818901611342565b9082015260e061144681890161135c565b9082015261010061145881890161135c565b9082015261012061146a81890161135c565b9082015261014061147c81890161135c565b908201528152019301926113ae565b610124359065ffffffffffff8216820361035e57565b61014435906106cf826106b0565b7ffffffffffffffffffffffffffffffffffffffffffffffffffffffffffffffe9c608091011261035e57604051906080820182811067ffffffffffffffff821117610d7c57604052816101643561150581611352565b81526101843561151481611352565b60208201526101a43561152681611352565b604082015260606101c4359161153b83611352565b0152565b6101e435906106cf826106b0565b61020435906106cf826106b0565b3461035e5761024060031936011261035e57611575611273565b60443567ffffffffffffffff9182821161035e57611598600492369084016112d3565b60643584811161035e576115af90369085016112d3565b6115b76112ee565b60a43586811161035e576115ce90369087016112d3565b6115d66112fb565b60e43588811161035e576115ed90369089016112d3565b6101043598891161035e576116086107319936908a01611367565b9161161161148b565b9361161a6114a1565b95611624366114af565b9761162d61153f565b9961163661154d565b9b61163f6106c1565b9d3561310e565b81601f8201121561035e5780359161165d83610e45565b9261166b6040519485610db2565b808452602092838086019260051b82010192831161035e578301905b828210611695575050505090565b81358152908301908301611687565b3461035e57604060031936011261035e5767ffffffffffffffff60043581811161035e576116d6903690600401611646565b9060243590811161035e576020916116f5610f8e92369060040161092a565b50612422565b3461035e57604060031936011261035e57602060043561171a816106b0565b6001600160a01b03809116600052608982526040600020602435600052825260406000205416604051908152f35b3461035e57600060031936011261035e5760206001600160a01b0360075416604051908152f35b3461035e5761177d36610939565b506020604051670de0b6b3a76400008152f35b3461035e57602060031936011261035e57600435600052608b60205260206001600160e01b036117c360406000206154ef565b16604051908152f35b3461035e5760008060031936011261067e57604051908060018054916117f18361103a565b808652928281169081156106545750600114611817576103b2856105ee81870382610db2565b92508083527fb10e2d527612073b26eecdfd717e6a320cf44b4afac2b0732d9fcbe2b7fa0cf65b8284106118595750505081016020016105ee826103b26105de565b8054602085870181019190915290930192810161183e565b3461035e57600060031936011261035e5760206001600160a01b03608c5416604051908152f35b3461035e57600060031936011261035e576040516118b581610d95565b611000809136903760405160096000825b60808210611907575050506118da81610d95565b60405190600090825b608083106118f057505050f35b6001908251815260208091019201920191906118e3565b60016020819285548152019301910190916118c6565b3461035e57600060031936011261035e5760206001600160a01b03608e5416604051908152f35b3461035e57604060031936011261035e57600435611961816106b0565b60243561196d81611352565b6001600160a01b038216918233146119e8576119a9903360005260046020526040600020906001600160a01b0316600052602052604060002090565b9015159060ff1981541660ff83161790556040519081527f17307eab39ab6107e8899845ad3d59bd9653f200f220920489ca2b5937696c3160203392a3005b60046040517f0df0273a000000000000000000000000000000000000000000000000000000008152fd5b3461035e57611a28611a2336610939565b61286d565b604092919280519384938452611a4a6020916060838701526060860190610569565b90848203838601528080855193848152019401926000905b838210611a6f5786860387f35b845180516001600160a01b0316875283015186840152879650948501949382019360019190910190611a62565b3461035e57600060031936011261035e57602060ff609154166040519015158152f35b3461035e57604060031936011261035e576107316024356004356138e0565b3461035e57604060031936011261035e57600435611afb816106b0565b611b396020611b156109dd608e546001600160a01b031690565b60055490604051808095819463038ab08560e11b8352600483019190602083019252565b03915afa8015610b8357600191600091611b95575b50611b588161284d565b03611b6b57610731906024359033613bfd565b60046040517ff331f3c1000000000000000000000000000000000000000000000000000000008152fd5b611bad915060203d8111610bd657610bc88183610db2565b38611b4e565b3461035e57608060031936011261035e57600435611bd0816106b0565b602435611bdc816106b0565b6064359167ffffffffffffffff831161035e573660238401121561035e57611c1161073193369060248160040135910161129c565b9160443591613fcc565b3461035e57600060031936011261035e5760206001600160a01b0360065416604051908152f35b3461035e5760208060031936011261035e576004359067ffffffffffffffff821161035e573660238301121561035e57816004013591611c8183610e45565b91604093611c9185519485610db2565b80845260248285019160061b8401019236841161035e57602401905b838210611cbd576107318561371d565b858236031261035e578286918251611cd481610d60565b8435611cdf816106b0565b81528285013583820152815201910190611cad565b3461035e57602060031936011261035e57611d1a6109dd608c546001600160a01b031690565b6040517f0fab094700000000000000000000000000000000000000000000000000000000815230600482015290602090829060249082905afa908115610b8357600091611df0575b50600060405180927fda0544aa000000000000000000000000000000000000000000000000000000008252816001600160a01b0381611dab600435600483019190602083019252565b0392165afa8015610b83576103b291600091611dcf575b506040519182918261058e565b611dea913d8091833e611de28183610db2565b81019061238a565b38611dc2565b611e11915060203d8111611e17575b611e098183610db2565b810190612333565b38611d62565b503d611dff565b3461035e57604060031936011261035e576001600160a01b03600435611e43816106b0565b16600052608a602052604060002060243560005260205260206001600160e01b036117c360406000206154ef565b3461035e57604060031936011261035e57600435600052608b6020526020610f8e6024356040600020615318565b3461035e57606060031936011261035e576001600160a01b03600435611ec4816106b0565b16600052608a60205260406000206024356000526020526020610f8e6044356040600020615318565b91908252611f076020916060838501526060840190610569565b90604092838184039101528080855193848152019401926000905b838210611f3157505050505090565b845180516001600160a01b03168752830151868401529485019493820193600190910190611f22565b3461035e576020600319818136011261035e576004359067ffffffffffffffff821161035e576101a090823603011261035e57611fa8611fa1610164830183600401612706565b369161129c565b60405190611fb582610d60565b6001825260005b8481106120005750906103b291610124946000611fd7610df6565b30815291820152611fe7836123c6565b52611ff1826123c6565b50604051948594013584611eed565b849061200a6127a5565b82828601015201611fbc565b60031960208136011261035e576004359067ffffffffffffffff821161035e5761020090823603011261035e576005543415908115916120a2575b8115612093575b506120695761073190600401614d36565b60046040517fc715ec6c000000000000000000000000000000000000000000000000000000008152fd5b90506024820135141538612058565b90506120b96109dd6006546001600160a01b031690565b6040517f6e49181f0000000000000000000000000000000000000000000000000000000081526004810183905233602482015290602090829060449082905afa908115610b8357600091612110575b501590612051565b612128915060203d8111610d4357610d358183610db2565b38612108565b3461035e5760008060031936011261067e5760405190806093546121518161103a565b80855291600191808316908115610654575060011461217a576103b2856105ee81870382610db2565b9250609383527f28da5ca8143bfa5e9f642e58e5e87bef0a2eb0c00bcd4efdd01050293f5fac915b8284106121bd5750505081016020016105ee826103b26105de565b805460208587018101919091529093019281016121a2565b3461035e57604060031936011261035e57602060ff6122336004356121f9816106b0565b6001600160a01b036024359161220e836106b0565b16600052600484526040600020906001600160a01b0316600052602052604060002090565b54166040519015158152f35b3461035e57602060031936011261035e5760043561225c816106b0565b612264615278565b6001600160a01b0381161561227c57610731906152d0565b608460405162461bcd60e51b815260206004820152602660248201527f4f776e61626c653a206e6577206f776e657220697320746865207a65726f206160448201527f64647265737300000000000000000000000000000000000000000000000000006064820152fd5b60005260086020526001600160a01b03806040600020541680612313575060026020526040600020541690565b905090565b9081602091031261035e575190565b6040513d6000823e3d90fd5b9081602091031261035e575161059f816106b0565b81601f8201121561035e57805161235e81611280565b9261236c6040519485610db2565b8184526020828401011161035e5761059f9160208085019101610546565b9060208282031261035e57815167ffffffffffffffff811161035e5761059f9201612348565b634e487b7160e01b600052603260045260246000fd5b8051156123d35760200190565b6123b0565b80518210156123d35760209160051b010190565b634e487b7160e01b600052601160045260246000fd5b906001820180921161241057565b6123ec565b9190820180921161241057565b9060009180516000915b81831061243857505050565b90919361244e61244886846123d8565b51612598565b81018091116124105793600101919061242c565b51906106cf826106b0565b51906106cf82611352565b60208183031261035e57805167ffffffffffffffff9182821161035e57016101808184031261035e576124a9610e03565b92815184526020820151602085015260408201516040850152606082015160608501526080820151608085015260a082015160a08501526124ec60c08301612462565b60c085015260e082015160e0850152610100808301519085015261012061251481840161246d565b9085015261014061252681840161246d565b90850152610160928383015190811161035e576125439201612348565b9082015290565b90600019820191821161241057565b9190820391821161241057565b60808110156123d35760090190600090565b8115612582570490565b634e487b7160e01b600052601260045260246000fd5b6125eb60206125b26109dd608c546001600160a01b031690565b92604051809381927f42f9914b000000000000000000000000000000000000000000000000000000008352600483019190602083019252565b0381855afa908115610b83576000916126e8575b506040516364faa15960e01b8152306004820152602481018290526000604482018190529092839060649082905afa918215610b83576000926126c5575b5061265c61265261264d8361254a565b612566565b90549060031b1c90565b9081156126bd57606083019061267a60408351950194855190612559565b156126b4576126a761269661059f956126ae9451905190612559565b916000526096602052604060002090565b5490612415565b90612578565b50505050600090565b505050600090565b6126e191923d8091833e6126d98183610db2565b810190612478565b903861263d565b612700915060203d8111610b7c57610b6e8183610db2565b386125ff565b9035907fffffffffffffffffffffffffffffffffffffffffffffffffffffffffffffffe18136030182121561035e570180359067ffffffffffffffff821161035e5760200191813603831361035e57565b9060241161035e5760200190600490565b9060441161035e5760400190600490565b6001600160e01b0319903581811693926004811061279657505050565b60040360031b82901b16169150565b604051906127b282610d60565b60006020838281520152565b604051906127cb82610d60565b600182528160005b602090818110156127f5576020916127e96127a5565b908285010152016127d3565b505050565b9160608383031261035e5782359260208101356128168161034c565b92604082013567ffffffffffffffff811161035e5761059f9201611646565b9081602091031261035e5751600781101561035e5790565b6007111561285757565b634e487b7160e01b600052602160045260246000fd5b90600090816080840135612af5576101c0840190602461288d8387612706565b9050108015612acb575b610bdd576128a36127be565b936128d86109ba6128b2610df6565b3081529460209584878201526128c7896123c6565b526128d1886123c6565b5088612706565b949150506128f16109dd608e546001600160a01b031690565b91604088838251809663038ab08560e11b8252818061291c8760049701358783019190602083019252565b03915afa948515610b83578395612aac575b506129388561284d565b600194858114908115612a97575b8115612a82575b8115612a6e575b5061299857505050505050611fa16129886129949261298261297c60955460c08a0135612415565b91612422565b9061576e565b946101a0810190612706565b9190565b94989592919083519382966129b86109dd608c546001600160a01b031690565b915b8689106129dc57505050505050505050611fa1816101a0612994930190612706565b90919293949596979b612a2a90866129f48f856123d8565b5187518094819263c44a8e6d60e01b83523089840160409060009294936001600160a01b03606083019616825260208201520152565b0381885afa918215610b83578a9289918991612a54575b500151019c0197969594939291906129ba565b612a6891503d808b833e6126d98183610db2565b38612a41565b60059150612a7b8161284d565b1438612954565b9050612a8d8161284d565b600681149061294d565b9050612aa28161284d565b6002811490612946565b612ac4919550843d8611610bd657610bc88183610db2565b933861292e565b506384e069e160e01b6001600160e01b0319612aed610c2f610c29868a612706565b161415612897565b60046040517f4fc178d8000000000000000000000000000000000000000000000000000000008152fd5b601f8111612b2b575050565b6000908180527f290decd9548b62a8d60345a988386fc84ba6bc95484008f6362f93160ef3e563906020601f850160051c83019410612b85575b601f0160051c01915b828110612b7a57505050565b818155600101612b6e565b9092508290612b65565b601f8111612b9b575050565b600090609282527f6e452848784197f00927d379e3db9e69a5131d2269f862bfcd05a0b38f6abf7f906020601f850160051c83019410612bf6575b601f0160051c01915b828110612beb57505050565b818155600101612bdf565b9092508290612bd6565b601f8111612c0c575050565b600090609382527f28da5ca8143bfa5e9f642e58e5e87bef0a2eb0c00bcd4efdd01050293f5fac91906020601f850160051c83019410612c67575b601f0160051c01915b828110612c5c57505050565b818155600101612c50565b9092508290612c47565b90601f8211612c7e575050565b6001916000908382527fb10e2d527612073b26eecdfd717e6a320cf44b4afac2b0732d9fcbe2b7fa0cf6906020601f850160051c83019410612cdb575b601f0160051c01915b828110612cd15750505050565b8181558301612cc4565b9092508290612cbb565b90815167ffffffffffffffff8111610d7c57612d0b81612d0660925461103a565b612b8f565b602080601f8311600114612d465750819293600092612d3b575b50506000198260011b9260031b1c191617609255565b015190503880612d25565b90601f19831694612d7960926000527f6e452848784197f00927d379e3db9e69a5131d2269f862bfcd05a0b38f6abf7f90565b926000905b878210612db6575050836001959610612d9d575b505050811b01609255565b015160001960f88460031b161c19169055388080612d92565b80600185968294968601518155019501930190612d7e565b90815167ffffffffffffffff8111610d7c57612df481612def60935461103a565b612c00565b602080601f8311600114612e2f5750819293600092612e24575b50506000198260011b9260031b1c191617609355565b015190503880612e0e565b90601f19831694612e6260936000527f28da5ca8143bfa5e9f642e58e5e87bef0a2eb0c00bcd4efdd01050293f5fac9190565b926000905b878210612e9f575050836001959610612e86575b505050811b01609355565b015160001960f88460031b161c19169055388080612e7b565b80600185968294968601518155019501930190612e67565b90815167ffffffffffffffff8111610d7c57600190612edf81612eda845461103a565b612c71565b602080601f8311600114612f19575081929394600092612f0e575b505060001982841b9260031b1c1916179055565b015190503880612efa565b90601f19831695612f4c60016000527fb10e2d527612073b26eecdfd717e6a320cf44b4afac2b0732d9fcbe2b7fa0cf690565b926000905b888210612f875750508385969710612f6e575b505050811b019055565b015160001960f88460031b161c19169055388080612f64565b808785968294968601518155019501930190612f51565b81601f8201121561035e57805191612fb583610e45565b92612fc36040519485610db2565b808452602092838086019260051b82010192831161035e578301905b828210612fed575050505090565b81518152908301908301612fdf565b9060208282031261035e57815167ffffffffffffffff811161035e5761059f9201612f9e565b60208082019080835283518092528060408094019401926000905b83821061304c57505050505090565b90919293948361016060019261310189516130768382516cffffffffffffffffffffffffff169052565b8085015163ffffffff16838601528087015163ffffffff168388015260608181015161ffff16908401526080818101516001600160a01b03169084015260a0818101519084015260c08082015162ffffff169084015260e081810151151590840152610100818101511515908401526101208181015115159084015261014090810151151590830152565b019601949392019061303d565b929096989a9b919d959d9c9394979c6001600160a01b039b8c7f000000000000000000000000000000000000000000000000000000000000000016301461035e578c6131656109dd608c546001600160a01b031690565b1661035e576131a96132079761318d6131cf9565ffffffffffff956132239d6131eb9a614b60565b6001600160a01b03166001600160a01b0319608d541617608d55565b6131c98c6001600160a01b03166001600160a01b0319608c541617608c55565b16609055565b6001600160a01b03166001600160a01b0319608e541617608e55565b6001600160a01b03166001600160a01b0319608f541617608f55565b6001600160a01b03166001600160a01b03196094541617609455565b805161341c575b50805161340d575b50818516613395575b61327994501691604051907f8da5e32b0000000000000000000000000000000000000000000000000000000082528180600096879360048301613022565b038183875af18015610b8357613373575b50805115158015613366575b8015613359575b801561334c575b6132b5575b5050506106cf336152d0565b813b1561334857604080517fcb827e3200000000000000000000000000000000000000000000000000000000815282511515600482015260208301511515602482015290820151151560448201526060909101511515606482015291908290608490829084905af18015610b835761332f575b80806132a9565b8061333c61334292610d81565b8061053b565b38613328565b8280fd5b50606081015115156132a4565b506040810151151561329d565b5060208101511515613296565b61338e903d8086833e6133868183610db2565b810190612ffc565b503861328a565b818116803b1561035e576040517fd84a72c00000000000000000000000000000000000000000000000000000000081526001600160a01b039690961660048701526000908690602490829084905af1948515610b8357613279956133fa575b5061323b565b8061333c61340792610d81565b386133f4565b61341690612dce565b38613232565b61342590612ce5565b3861322a565b613433615278565b6134486109dd608e546001600160a01b031690565b600554916040918251809163038ab08560e11b82526020928391818061347760049a8b83019190602083019252565b03915afa908115610b83576000916136e1575b506134948161284d565b600381036136b85760915460ff1661368f576134af8161284d565b6006811490811561367b575b50613653576134d56109dd608c546001600160a01b031690565b9080845180937ff1bea54f000000000000000000000000000000000000000000000000000000008252818061351c308b83019190916001600160a01b036020820193169052565b03915afa918215610b8357600092613634575b50909160009181519183945b8386106135905750505050670de0b6b3a764000091501161356a5750506106cf600160ff196091541617609155565b517f6ff44e97000000000000000000000000000000000000000000000000000000008152fd5b909192938161359f87856123d8565b51511161360c576136006001916135ec866135ba8a886123d8565b5101516135d461264d6135cd8c8a6123d8565b515161254a565b90919060001983549160031b92831b921b1916179055565b856135f789876123d8565b51015190612415565b9501949392919061353b565b8787517f52385374000000000000000000000000000000000000000000000000000000008152fd5b8161364c9293503d8411610b7c57610b6e8183610db2565b903861352f565b5050517f6fb84075000000000000000000000000000000000000000000000000000000008152fd5b600591506136888161284d565b14386134bb565b505050517f38101407000000000000000000000000000000000000000000000000000000008152fd5b505050517f03ce4502000000000000000000000000000000000000000000000000000000008152fd5b6136f89150823d8411610bd657610bc88183610db2565b3861348a565b9081602091031261035e575161059f81611352565b3561059f816106b0565b6137326109dd608e546001600160a01b031690565b6005546040805163038ab08560e11b8152600480820193909352939290916020918290869060249082905afa948515610b835760009561383a575b506137778561284d565b60018095036138135783519361378b6127a5565b5060005b85811061379f5750505050505050565b6137a981836123d8565b516137be6109dd82516001600160a01b031690565b156137eb57906137e582866137db8b95516001600160a01b031690565b9101519033613bfd565b0161378f565b8386517f53d304f4000000000000000000000000000000000000000000000000000000008152fd5b82517ff331f3c1000000000000000000000000000000000000000000000000000000008152fd5b613852919550823d8411610bd657610bc88183610db2565b933861376d565b908161012091031261035e5761386d610e24565b90805182526020810151602083015260408101516040830152606081015160608301526080810151608083015260a081015160a083015260c081015160c08301526138ba60e08201612462565b60e0830152610100809101519082015290565b8181029291811591840414171561241057565b906138f66109dd608d546001600160a01b031690565b9161392560055493604094855180926321d1336160e11b82528180610120968795600483019190602083019252565b03915afa918215610b83576139569260ff9261010092600092613bd0575b5050015160f41c1660018091811c161490565b613ba75761396f6109dd608c546001600160a01b031690565b83517f136e651c000000000000000000000000000000000000000000000000000000008152306004820152602481018390529290602090849060449082905afa928315610b8357600093613b87575b506001600160a01b0390816139fc610a8b856139ed886001600160a01b03166000526089602052604060002090565b90600052602052604060002090565b1615613b66575b613a186109dd608c546001600160a01b031690565b85517fbaa7e80e000000000000000000000000000000000000000000000000000000008152600481018590526024810183905292906000908490604490829084905af1928315610b8357600093613b4b575b5060005b828110613afc575050506000613a8f6109dd608c546001600160a01b031690565b94516364faa15960e01b8152306004820152602481018490526000604482015294859060649082905afa908115610b83576080613add926106cf96600091613ae3575b5001519051906138cd565b91613ce5565b613af6913d8091833e6126d98183610db2565b38613ad2565b80613b09600192866123d8565b51613b1481896140a4565b88513381528489169188917f031e1988c95a91ec4d655ff63a8f87a80bc9daf28d95ae10ee08c0022cfb5c8b90602090a401613a6e565b613b5f91933d8091833e6133868183610db2565b9138613a6a565b613b8283613b7c6094546001600160a01b031690565b86613bfd565b613a03565b613ba091935060203d8111611e1757611e098183610db2565b91386139be565b600483517fe96092b8000000000000000000000000000000000000000000000000000000008152fd5b613bef9250803d10613bf6575b613be78183610db2565b810190613859565b3880613943565b503d613bdd565b6001600160a01b0390811660008181526089602090815260408083208784528252822080548686166001600160a01b03198216811790925592969195919491939282169291869184847f3134e8a2e6d97e929a7e54011ea5485d7d196dd5f0ba4d4ef95803e8e3fc257f8b80a4608c5416916064604051809481937f2e4d0ea800000000000000000000000000000000000000000000000000000000835230600484015260248301528860448301525afa948515610b83576106cf9695613cc6575b5050613d76565b613cdd929550803d10610b7c57610b6e8183610db2565b923880613cbf565b906106cf92916000828152608b602052613d028460408320615418565b505060406001600160a01b039182841615613d5b575b8080526089602052818120858252602052613d4c838383205416946001600160a01b03166000526089602052604060002090565b85825260205220541690613d76565b848152608b602052613d6f868383206154c7565b5050613d18565b9192906001600160a01b03928382169381168481148015613e9c575b613e9457859181613e21575b50505082613dad575b50505050565b7fed0c1e94c302bdbbd8bbd6a4fb7c3ed335c2292407cd816eadd075d019d0ce0491613def613e00926001600160a01b0316600052608a602052604060002090565b856000526020526040600020615418565b6040805192835260208301919091523390820152606090a338808080613da7565b613e3e906001600160a01b0316600052608a602052604060002090565b826000526020527fed0c1e94c302bdbbd8bbd6a4fb7c3ed335c2292407cd816eadd075d019d0ce04613e748560406000206154c7565b6040805192835260208301919091523390820152606090a3833880613d9e565b505050505050565b508315613d92565b6001600160a01b03608c5416803b1561035e5760405180927f86bc2be3000000000000000000000000000000000000000000000000000000008252602482016020908160048501528251809152816044850193019160005b828110613f2c57505050509181600081819503925af18015610b8357613f1f5750565b8061333c6106cf92610d81565b835185528795509381019392810192600101613efc565b60005260026020526001600160a01b03604060002054168015613f635790565b60046040517fb49aa3b5000000000000000000000000000000000000000000000000000000008152fd5b613fad8160005260026020526001600160a01b0360406000205416151590565b15613f635760005260036020526001600160a01b036040600020541690565b929190613fd98233614023565b156107335783613fed8383613ff2976146e8565b614a73565b15613ff957565b60046040517f6deaf836000000000000000000000000000000000000000000000000000000008152fd5b6001600160a01b038061403584613f43565b16928183169284841494851561406b575b50508315614055575b50505090565b61406191929350613f8d565b161438808061404f565b60ff9295509061409a9160005260046020526040600020906001600160a01b0316600052602052604060002090565b5416923880614046565b9190916001600160a01b038116908115614221576140d88460005260026020526001600160a01b0360406000205416151590565b6141f75783600092818452600260205261410b8360408620906001600160a01b03166001600160a01b0319825416179055565b837fddf252ad1be2c89b69c2b068fc378daa952ba7f163c4a11628f55a4df523b3ef8180a4614178826141496109dd608c546001600160a01b031690565b60405163c44a8e6d60e01b81523060048201526024810197909752600060448801529591829081906064820190565b0381885afa908115610b835783916141dd575b505193803b15613348576040516330b157e560e21b81526004810195909552600060248601526001600160a01b039190911660448501529192918290606490829084905af18015610b8357613f1f5750565b6141f191503d8085833e6126d98183610db2565b3861418b565b60046040517fbad7c30c000000000000000000000000000000000000000000000000000000008152fd5b60046040517f7208af1e000000000000000000000000000000000000000000000000000000008152fd5b9061429892916142666109dd608c546001600160a01b031690565b60405163c44a8e6d60e01b81523060048201526024810193909352600060448401819052948590849081906064820190565b0381845afa928315610b8357859361431b575b508251813b15614317576040516330b157e560e21b815260048101919091526001600160a01b0383166024820152600060448201529394908490606490829084905af1928315610b83576106cf93614304575b50614425565b8061333c61431192610d81565b386142fe565b8580fd5b6143309193503d8087833e6126d98183610db2565b91386142ab565b906143859392916143536109dd608c546001600160a01b031690565b60405163c44a8e6d60e01b81523060048201526024810194909452600060448501819052958690859081906064820190565b0381845afa938415610b83578694614409575b508351813b15614405576040516330b157e560e21b815260048101919091526001600160a01b038381166024830152841660448201529495908590606490829084905af1938415610b83576106cf946143f2575b50614491565b8061333c6143ff92610d81565b386143ec565b8680fd5b61441e9194503d8088833e6126d98183610db2565b9238614398565b6001600160a01b038091169182156127f5576106cf926080825192015192600091838352608b60205261445b85604085206154c7565b50508252608960205260408220838352602052604081818420541692808052608960205281812085825260205220541690613d76565b916001600160a01b03809316918215613da7576106cf9360406080845194015194828416156144f1575b60009081526089602052818120858252602052613d4c838383205416946001600160a01b03166000526089602052604060002090565b84600052608b60205261450786836000206154c7565b50506144bb565b61451781613f43565b906001600160a01b038216918261457c575b8160006106cf946145398361493f565b8282526002602052604082206001600160a01b031981541690557fddf252ad1be2c89b69c2b068fc378daa952ba7f163c4a11628f55a4df523b3ef8280a461424b565b6145916109dd608c546001600160a01b031690565b60405163c44a8e6d60e01b8152306004820152602481018490526000604482018190529091829060649082905afa908115610b83576145de91610140916000916146cf575b500151151590565b61464b575b8160006106cf946146046109dd610a8b856000526008602052604060002090565b15614613575b94505050614529565b6146468461462b856000526008602052604060002090565b906001600160a01b03166001600160a01b0319825416179055565b61460a565b61468d926146646109dd608d546001600160a01b031690565b9060055460405180936321d1336160e11b82528180610120998a95600483019190602083019252565b03915afa908115610b83576106cf9585936000936146b1575b5050945050506145e3565b816146c792903d10613bf657613be78183610db2565b5038806146a6565b6146e2913d8091833e6126d98183610db2565b386145d6565b91906146f382613f43565b6001600160a01b03808516949181168590036149155782169384156148eb578061477e575b6106cf9484916147278361493f565b826000526002602052614754856040600020906001600160a01b03166001600160a01b0319825416179055565b7fddf252ad1be2c89b69c2b068fc378daa952ba7f163c4a11628f55a4df523b3ef600080a4614337565b6147936109dd608c546001600160a01b031690565b60405163c44a8e6d60e01b8152306004820152602481018690526000604482018190529091829060649082905afa908115610b83576147df91610140916000916146cf57500151151590565b614830575b6106cf9484916148046109dd610a8b856000526008602052604060002090565b15614813575b91509450614718565b61482b8461462b856000526008602052604060002090565b61480a565b6148706148486109dd608d546001600160a01b031690565b60055460405180926321d1336160e11b82528180610120968795600483019190602083019252565b03915afa918215610b835761489f9260ff92610100926000926148ce575b5050015160f41c1660018091161490565b156147e45760046040517f18cdaf97000000000000000000000000000000000000000000000000000000008152fd5b6148e49250803d10613bf657613be78183610db2565b388061488e565b60046040517f2c955427000000000000000000000000000000000000000000000000000000008152fd5b60046040517fa195bc53000000000000000000000000000000000000000000000000000000008152fd5b80600052600360205260406000206001600160a01b0319815416905560006001600160a01b0361496e83613f43565b167f8c5be1e5ebec7d5bd14f71427d1e84f3dd0314c0f7b2291e5b200ac8c7c3b9258280a4565b8160005260036020526149c2816040600020906001600160a01b03166001600160a01b0319825416179055565b6001600160a01b03806149d484613f43565b169116907f8c5be1e5ebec7d5bd14f71427d1e84f3dd0314c0f7b2291e5b200ac8c7c3b925600080a4565b9081602091031261035e575161059f8161034c565b909261059f94936080936001600160a01b03809216845216602083015260408201528160608201520190610569565b3d15614a6e573d90614a5482611280565b91614a626040519384610db2565b82523d6000602084013e565b606090565b92909190823b15614b5757614ac79260209260006001600160a01b036040518097819682957f150b7a02000000000000000000000000000000000000000000000000000000009b8c85523360048601614a14565b0393165af160009181614b27575b50614b1957614ae2614a43565b80519081614b145760046040517f6deaf836000000000000000000000000000000000000000000000000000000008152fd5b602001fd5b6001600160e01b0319161490565b614b4991925060203d8111614b50575b614b418183610db2565b8101906149ff565b9038614ad5565b503d614b37565b50505050600190565b91929092805167ffffffffffffffff8111610d7c57600091614b8b82614b86855461103a565b612b1f565b60209081601f8411600114614bf757509282614bcb93614bd096936106cf9998968492614bec575b50506000198260011b9260031b1c1916179055612eb7565b600555565b6001600160a01b03166001600160a01b03196006541617600655565b015190503880614bb3565b600080529190601f1984167f290decd9548b62a8d60345a988386fc84ba6bc95484008f6362f93160ef3e5639386905b828210614c7157505093614bd096936106cf9998969360019383614bcb9810614c58575b505050811b019055612eb7565b015160001960f88460031b161c19169055388080614c4b565b80600186978294978701518155019601940190614c27565b9160a08383031261035e5782359260209182820135936040830135614cad8161034c565b936060840135614cbc816106b0565b9360808101359067ffffffffffffffff821161035e57019180601f8401121561035e578235614cea81610e45565b93614cf86040519586610db2565b818552838086019260051b82010192831161035e578301905b828210614d1f575050505090565b838091614d2b84611333565b815201910190614d11565b9060905460c0830135036150b3576101e082016044614d558285612706565b90501180615084575b614d6757509050565b614d74614d7c9184612706565b810190614c89565b9250949250506001600160a01b03809416938415615052575b815115615028576000808091845197825b898110614e0057505050505050614dd09293506080614dc86101808401613713565b92013561515e565b614dd657565b60046040517f6d5e09a4000000000000000000000000000000000000000000000000000000008152fd5b8988614e21614e1a614e12858c6123d8565b5161ffff1690565b61ffff1690565b8503614f45575b90614e56610a8b866139ed614e3d8b96613713565b6001600160a01b03166000526089602052604060002090565b88808616918b83159485158096614f3a575b614e7c575b50505050505050600101614da6565b879a969791614e8b8b9261254a565b83109283614f14575b505050600014614ebe5750505050600191614eae91612415565b935b905084388088818b8f614e6d565b614ee5955083614f07575b505050614eef575b83613add87614edf8c613713565b93612415565b6001600093614eb0565b614f028484614efd8c613713565b613bfd565b614ed1565b1614159050388881614ec9565b61ffff929350614f3091614f2a614e1292612402565b906123d8565b1614888d8b614e94565b508383161515614e68565b5050935090614f5a614e1a614e1286896123d8565b10614ffe57614f6f614e1a614e1285886123d8565b90614f856109dd608c546001600160a01b031690565b6040516364faa15960e01b815230600482015260248101849052600060448201819052909591869060649082905afa948515610b83578a614e56610a8b866139ed6080614e3d9b8f97600091614fe5575b5001519a505050505090614e28565b614ff8913d8091833e6126d98183610db2565b38614fd6565b60046040517f9fda363d000000000000000000000000000000000000000000000000000000008152fd5b60046040517f3d04bd1f000000000000000000000000000000000000000000000000000000008152fd5b93506150666094546001600160a01b031690565b80851615615075575b93614d95565b5061507f82613713565b61506f565b506384e069e160e01b6001600160e01b03196150ac610c2f6150a68588612706565b90612768565b1614614d5e565b60046040517f79cf85c0000000000000000000000000000000000000000000000000000000008152fd5b919060408382031261035e57825167ffffffffffffffff811161035e57602091615108918501612f9e565b92015190565b929190606084019084526020906060828601528251809152816080860193019160005b82811061514657505050506040600091930152565b835161ffff1685529381019392810192600101615131565b9291926151766109dd608c546001600160a01b031690565b9160409081519586947feaa19ab300000000000000000000000000000000000000000000000000000000865260009586918183816151b8888b6004840161510e565b03925af18015610b835785978691615250575b50968051955b8681106151e15750505050505050565b806151ee600192846123d8565b516151f981866140a4565b61ffff615209614e1284896123d8565b88518a81523360208201526001600160a01b0388169391909216917f598baf7bf150ca2f42be9e9f8f55e81d45f5715c3ff22bf46d697fabec7f31d690604090a4016151d1565b905061526f9197503d8087833e6152678183610db2565b8101906150dd565b969096386151cb565b6001600160a01b0360075416330361528c57565b606460405162461bcd60e51b815260206004820152602060248201527f4f776e61626c653a2063616c6c6572206973206e6f7420746865206f776e65726044820152fd5b600754906001600160a01b0380911691826001600160a01b0319821617600755167f8be0079c531659141344cd1fd0a4f28419497f9722a3daafe3b4186f6b6457e0600080a3565b90438110156153d45761532a906156f3565b90805491600063ffffffff8092165b848210615380575050508161535057506000919050565b61537561537c916153686001600160e01b039461254a565b9060005260206000200190565b5460201c90565b1690565b9091938083169080841860011c8201809211612410578460005282866153b18460206000200163ffffffff90541690565b1611156153c25750935b9190615339565b9492506153ce90612402565b916153bb565b606460405162461bcd60e51b815260206004820152602060248201527f436865636b706f696e74733a20626c6f636b206e6f7420796574206d696e65646044820152fd5b6001600160e01b0392918361542c836154ef565b1690810180911161241057615440436156f3565b9184821161545d578492836154569316916155d9565b9316921690565b608460405162461bcd60e51b815260206004820152602760248201527f53616665436173743a2076616c756520646f65736e27742066697420696e203260448201527f32342062697473000000000000000000000000000000000000000000000000006064820152fd5b6001600160e01b039291836154db836154ef565b1690810390811161241057615440436156f3565b80546000918161550157505050600090565b6000199282848101116124105760209181522001015460201c90565b90815468010000000000000000811015610d7c57600181018084558110156123d357600092835260209283902082519284015190931b63ffffffff191663ffffffff9290921691909117910155565b9060405161557981610d60565b602081935463ffffffff81168352811c910152565b1561559557565b606460405162461bcd60e51b815260206004820152601760248201527f436865636b706f696e743a20696e76616c6964206b65790000000000000000006044820152fd5b909291928382548015156000146156c85792602092918461561461560f6156026129949861254a565b8560005260206000200190565b61556c565b93615623855163ffffffff1690565b61563a63ffffffff9182841692839116111561558e565b61565461564b875163ffffffff1690565b63ffffffff1690565b0361569257506156849261536861566a9261254a565b9063ffffffff63ffffffff1983549260201b169116179055565b01516001600160e01b031690565b9150506156c3916156b06156a4610df6565b63ffffffff9093168352565b6001600160e01b0388168286015261551d565b615684565b50506156ed916156d96156a4610df6565b6001600160e01b038516602083015261551d565b60009190565b63ffffffff90818111615704571690565b608460405162461bcd60e51b815260206004820152602660248201527f53616665436173743a2076616c756520646f65736e27742066697420696e203360448201527f32206269747300000000000000000000000000000000000000000000000000006064820152fd5b91906000198184098184029182808310920391808303921461580a57670de0b6b3a764000090818310156157d3577faccb18165bd6fe31ae1cf318dc5b51eee0e1ba569b88cd74c1773b91fac1066994950990828211900360ee1b910360121c170290565b60448383604051917f773cc18c00000000000000000000000000000000000000000000000000000000835260048301526024820152fd5b5050670de0b6b3a76400009004915056fea2646970667358221220e3b4b42ad9aab3c461d5e202bb32a3e266b85804be872c2add8e5f35d9d215e864736f6c63430008140033",
    "linkReferences": {}
  },
  "methodIdentifiers": {
    "TOTAL_REDEMPTION_WEIGHT()": "640abacd",
    "amountRedeemed()": "27f6e979",
    "approve(address,uint256)": "095ea7b3",
    "balanceOf(address)": "70a08231",
    "baseURI()": "6c0360eb",
    "codeOrigin()": "1d153ca4",
    "contractURI()": "e8a3d485",
    "defaultVotingDelegate()": "174e3e05",
    "didPay((address,uint256,uint256,(address,uint256,uint256,uint256),(address,uint256,uint256,uint256),uint256,address,bool,string,bytes))": "da9ee8b7",
    "didRedeem((address,uint256,uint256,uint256,(address,uint256,uint256,uint256),(address,uint256,uint256,uint256),address,string,bytes))": "2b13c58f",
    "directory()": "c41c2f24",
    "firstOwnerOf(uint256)": "54c6d1f5",
    "fundingCycleStore()": "557e7155",
    "gamePhaseReporter()": "a0b6490c",
    "gamePotReporter()": "7245d80c",
    "getApproved(uint256)": "081812fc",
    "getPastTierTotalVotes(uint256,uint256)": "d31cc52c",
    "getPastTierVotes(address,uint256,uint256)": "d40e7146",
    "getTierDelegate(address,uint256)": "82732b6d",
    "getTierTotalVotes(uint256)": "94c5c5ca",
    "getTierVotes(address,uint256)": "ca323efe",
    "initialize(uint256,address,string,string,address,string,address,string,(uint104,uint32,uint32,uint16,address,bytes32,uint24,bool,bool,bool,bool)[],uint48,address,(bool,bool,bool,bool),address,address,address)": "795e9c9d",
    "isApprovedForAll(address,address)": "e985e9c5",
    "mintReservesFor((uint256,uint256)[])": "2a596e53",
    "mintReservesFor(uint256,uint256)": "aa4fb15b",
    "name()": "06fdde03",
    "owner()": "8da5cb5b",
    "ownerOf(uint256)": "6352211e",
    "payParams((address,address,(address,uint256,uint256,uint256),uint256,uint256,address,uint256,uint256,string,bytes))": "d46cf171",
    "pricingCurrency()": "64640c1e",
    "projectId()": "3fafa127",
    "redeemParams((address,address,uint256,uint256,uint256,uint256,uint256,(address,uint256,uint256,uint256),bool,uint256,string,bytes))": "a51cfd18",
    "redemptionWeightIsSet()": "a8c15f4a",
    "redemptionWeightOf(uint256)": "4f228e11",
    "redemptionWeightOf(uint256[],(address,address,uint256,uint256,uint256,uint256,uint256,(address,uint256,uint256,uint256),bool,uint256,string,bytes))": "7ba62bf9",
    "renounceOwnership()": "715018a6",
    "safeTransferFrom(address,address,uint256)": "42842e0e",
    "safeTransferFrom(address,address,uint256,bytes)": "b88d4fde",
    "setApprovalForAll(address,bool)": "a22cb465",
    "setTierDelegate(address,uint256)": "ab951e39",
    "setTierDelegates((address,uint256)[])": "c74b13d9",
    "setTierRedemptionWeights((uint256,uint256)[])": "2f441500",
    "store()": "975057e7",
    "supportsInterface(bytes4)": "01ffc9a7",
    "symbol()": "95d89b41",
    "tierRedemptionWeights()": "9df45468",
    "tokenURI(uint256)": "c87b56dd",
    "tokensRedeemedFrom(uint256)": "743682b5",
    "totalRedemptionWeight((address,address,uint256,uint256,uint256,uint256,uint256,(address,uint256,uint256,uint256),bool,uint256,string,bytes))": "9494bf72",
    "transferFrom(address,address,uint256)": "23b872dd",
    "transferOwnership(address)": "f2fde38b"
  },
  "id": 0
}