{
  "abi": [
    {
      "inputs": [],
      "stateMutability": "nonpayable",
      "type": "constructor"
    },
    {
      "inputs": [],
      "name": "ALEADY_MINTED",
      "type": "error"
    },
    {
      "inputs": [],
      "name": "APPROVAL_TO_CURRENT_OWNER",
      "type": "error"
    },
    {
      "inputs": [],
      "name": "APPROVE_TO_CALLER",
      "type": "error"
    },
    {
      "inputs": [],
      "name": "BAD_TIER_ORDER",
      "type": "error"
    },
    {
      "inputs": [],
      "name": "CALLER_NOT_OWNER_OR_APPROVED",
      "type": "error"
    },
    {
      "inputs": [],
      "name": "DELEGATE_ADDRESS_ZERO",
      "type": "error"
    },
    {
      "inputs": [],
      "name": "DELEGATE_CHANGES_UNAVAILABLE_IN_THIS_PHASE",
      "type": "error"
    },
    {
      "inputs": [],
      "name": "GAME_ISNT_SCORING_YET",
      "type": "error"
    },
    {
      "inputs": [],
      "name": "INCORRECT_OWNER",
      "type": "error"
    },
    {
      "inputs": [],
      "name": "INVALID_PAYMENT_EVENT",
      "type": "error"
    },
    {
      "inputs": [],
      "name": "INVALID_REDEMPTION_EVENT",
      "type": "error"
    },
    {
      "inputs": [],
      "name": "INVALID_REDEMPTION_METADATA",
      "type": "error"
    },
    {
      "inputs": [],
      "name": "INVALID_REDEMPTION_WEIGHTS",
      "type": "error"
    },
    {
      "inputs": [],
      "name": "INVALID_TIER_ID",
      "type": "error"
    },
    {
      "inputs": [],
      "name": "INVALID_TOKEN_ID",
      "type": "error"
    },
    {
      "inputs": [],
      "name": "MINT_TO_ZERO",
      "type": "error"
    },
    {
      "inputs": [],
      "name": "NOTHING_TO_CLAIM",
      "type": "error"
    },
    {
      "inputs": [],
      "name": "NOTHING_TO_MINT",
      "type": "error"
    },
    {
      "inputs": [],
      "name": "NO_CONTEST",
      "type": "error"
    },
    {
      "inputs": [],
      "name": "OVERSPENDING",
      "type": "error"
    },
    {
      "inputs": [
        {
          "internalType": "uint256",
          "name": "prod1",
          "type": "uint256"
        },
        {
          "internalType": "uint256",
          "name": "denominator",
          "type": "uint256"
        }
      ],
      "name": "PRBMath__MulDivOverflow",
      "type": "error"
    },
    {
      "inputs": [],
      "name": "REDEMPTION_WEIGHTS_ALREADY_SET",
      "type": "error"
    },
    {
      "inputs": [],
      "name": "RESERVED_TOKEN_MINTING_PAUSED",
      "type": "error"
    },
    {
      "inputs": [],
      "name": "TRANSFERS_PAUSED",
      "type": "error"
    },
    {
      "inputs": [],
      "name": "TRANSFER_TO_NON_IMPLEMENTER",
      "type": "error"
    },
    {
      "inputs": [],
      "name": "TRANSFER_TO_ZERO_ADDRESS",
      "type": "error"
    },
    {
      "inputs": [],
      "name": "UNAUTHORIZED",
      "type": "error"
    },
    {
      "inputs": [
        {
          "internalType": "uint256",
          "name": "_tokenId",
          "type": "uint256"
        }
      ],
      "name": "UNAUTHORIZED_TOKEN",
      "type": "error"
    },
    {
      "inputs": [],
      "name": "UNEXPECTED_TOKEN_REDEEMED",
      "type": "error"
    },
    {
      "inputs": [],
      "name": "WRONG_CURRENCY",
      "type": "error"
    },
    {
      "anonymous": false,
      "inputs": [
        {
          "indexed": true,
          "internalType": "address",
          "name": "owner",
          "type": "address"
        },
        {
          "indexed": true,
          "internalType": "address",
          "name": "approved",
          "type": "address"
        },
        {
          "indexed": true,
          "internalType": "uint256",
          "name": "tokenId",
          "type": "uint256"
        }
      ],
      "name": "Approval",
      "type": "event"
    },
    {
      "anonymous": false,
      "inputs": [
        {
          "indexed": true,
          "internalType": "address",
          "name": "owner",
          "type": "address"
        },
        {
          "indexed": true,
          "internalType": "address",
          "name": "operator",
          "type": "address"
        },
        {
          "indexed": false,
          "internalType": "bool",
          "name": "approved",
          "type": "bool"
        }
      ],
      "name": "ApprovalForAll",
      "type": "event"
    },
    {
      "anonymous": false,
      "inputs": [
        {
          "indexed": true,
          "internalType": "address",
          "name": "delegator",
          "type": "address"
        },
        {
          "indexed": true,
          "internalType": "address",
          "name": "fromDelegate",
          "type": "address"
        },
        {
          "indexed": true,
          "internalType": "address",
          "name": "toDelegate",
          "type": "address"
        }
      ],
      "name": "DelegateChanged",
      "type": "event"
    },
    {
      "anonymous": false,
      "inputs": [
        {
          "indexed": true,
          "internalType": "uint256",
          "name": "tokenId",
          "type": "uint256"
        },
        {
          "indexed": true,
          "internalType": "uint256",
          "name": "tierId",
          "type": "uint256"
        },
        {
          "indexed": true,
          "internalType": "address",
          "name": "beneficiary",
          "type": "address"
        },
        {
          "indexed": false,
          "internalType": "uint256",
          "name": "totalAmountContributed",
          "type": "uint256"
        },
        {
          "indexed": false,
          "internalType": "address",
          "name": "caller",
          "type": "address"
        }
      ],
      "name": "Mint",
      "type": "event"
    },
    {
      "anonymous": false,
      "inputs": [
        {
          "indexed": true,
          "internalType": "uint256",
          "name": "tokenId",
          "type": "uint256"
        },
        {
          "indexed": true,
          "internalType": "uint256",
          "name": "tierId",
          "type": "uint256"
        },
        {
          "indexed": true,
          "internalType": "address",
          "name": "beneficiary",
          "type": "address"
        },
        {
          "indexed": false,
          "internalType": "address",
          "name": "caller",
          "type": "address"
        }
      ],
      "name": "MintReservedToken",
      "type": "event"
    },
    {
      "anonymous": false,
      "inputs": [
        {
          "indexed": true,
          "internalType": "address",
          "name": "previousOwner",
          "type": "address"
        },
        {
          "indexed": true,
          "internalType": "address",
          "name": "newOwner",
          "type": "address"
        }
      ],
      "name": "OwnershipTransferred",
      "type": "event"
    },
    {
      "anonymous": false,
      "inputs": [
        {
          "indexed": true,
          "internalType": "address",
          "name": "delegate",
          "type": "address"
        },
        {
          "indexed": true,
          "internalType": "uint256",
          "name": "tierId",
          "type": "uint256"
        },
        {
          "indexed": false,
          "internalType": "uint256",
          "name": "previousBalance",
          "type": "uint256"
        },
        {
          "indexed": false,
          "internalType": "uint256",
          "name": "newBalance",
          "type": "uint256"
        },
        {
          "indexed": false,
          "internalType": "address",
          "name": "caller",
          "type": "address"
        }
      ],
      "name": "TierDelegateVotesChanged",
      "type": "event"
    },
    {
      "anonymous": false,
      "inputs": [
        {
          "indexed": true,
          "internalType": "address",
          "name": "from",
          "type": "address"
        },
        {
          "indexed": true,
          "internalType": "address",
          "name": "to",
          "type": "address"
        },
        {
          "indexed": true,
          "internalType": "uint256",
          "name": "tokenId",
          "type": "uint256"
        }
      ],
      "name": "Transfer",
      "type": "event"
    },
    {
      "inputs": [],
      "name": "TOTAL_REDEMPTION_WEIGHT",
      "outputs": [
        {
          "internalType": "uint256",
          "name": "",
          "type": "uint256"
        }
      ],
      "stateMutability": "view",
      "type": "function"
    },
    {
      "inputs": [
        {
          "internalType": "address",
          "name": "to",
          "type": "address"
        },
        {
          "internalType": "uint256",
          "name": "tokenId",
          "type": "uint256"
        }
      ],
      "name": "approve",
      "outputs": [],
      "stateMutability": "nonpayable",
      "type": "function"
    },
    {
      "inputs": [
        {
          "internalType": "address",
          "name": "_owner",
          "type": "address"
        }
      ],
      "name": "balanceOf",
      "outputs": [
        {
          "internalType": "uint256",
          "name": "balance",
          "type": "uint256"
        }
      ],
      "stateMutability": "view",
      "type": "function"
    },
    {
      "inputs": [],
      "name": "baseURI",
      "outputs": [
        {
          "internalType": "string",
          "name": "",
          "type": "string"
        }
      ],
      "stateMutability": "view",
      "type": "function"
    },
    {
      "inputs": [],
      "name": "codeOrigin",
      "outputs": [
        {
          "internalType": "address",
          "name": "",
          "type": "address"
        }
      ],
      "stateMutability": "view",
      "type": "function"
    },
    {
      "inputs": [],
      "name": "contractURI",
      "outputs": [
        {
          "internalType": "string",
          "name": "",
          "type": "string"
        }
      ],
      "stateMutability": "view",
      "type": "function"
    },
    {
      "inputs": [],
      "name": "defaultVotingDelegate",
      "outputs": [
        {
          "internalType": "address",
          "name": "",
          "type": "address"
        }
      ],
      "stateMutability": "view",
      "type": "function"
    },
    {
      "inputs": [
        {
          "components": [
            {
              "internalType": "address",
              "name": "payer",
              "type": "address"
            },
            {
              "internalType": "uint256",
              "name": "projectId",
              "type": "uint256"
            },
            {
              "internalType": "uint256",
              "name": "currentFundingCycleConfiguration",
              "type": "uint256"
            },
            {
              "components": [
                {
                  "internalType": "address",
                  "name": "token",
                  "type": "address"
                },
                {
                  "internalType": "uint256",
                  "name": "value",
                  "type": "uint256"
                },
                {
                  "internalType": "uint256",
                  "name": "decimals",
                  "type": "uint256"
                },
                {
                  "internalType": "uint256",
                  "name": "currency",
                  "type": "uint256"
                }
              ],
              "internalType": "struct JBTokenAmount",
              "name": "amount",
              "type": "tuple"
            },
            {
              "components": [
                {
                  "internalType": "address",
                  "name": "token",
                  "type": "address"
                },
                {
                  "internalType": "uint256",
                  "name": "value",
                  "type": "uint256"
                },
                {
                  "internalType": "uint256",
                  "name": "decimals",
                  "type": "uint256"
                },
                {
                  "internalType": "uint256",
                  "name": "currency",
                  "type": "uint256"
                }
              ],
              "internalType": "struct JBTokenAmount",
              "name": "forwardedAmount",
              "type": "tuple"
            },
            {
              "internalType": "uint256",
              "name": "projectTokenCount",
              "type": "uint256"
            },
            {
              "internalType": "address",
              "name": "beneficiary",
              "type": "address"
            },
            {
              "internalType": "bool",
              "name": "preferClaimedTokens",
              "type": "bool"
            },
            {
              "internalType": "string",
              "name": "memo",
              "type": "string"
            },
            {
              "internalType": "bytes",
              "name": "metadata",
              "type": "bytes"
            }
          ],
          "internalType": "struct JBDidPayData",
          "name": "_data",
          "type": "tuple"
        }
      ],
      "name": "didPay",
      "outputs": [],
      "stateMutability": "payable",
      "type": "function"
    },
    {
      "inputs": [
        {
          "components": [
            {
              "internalType": "address",
              "name": "holder",
              "type": "address"
            },
            {
              "internalType": "uint256",
              "name": "projectId",
              "type": "uint256"
            },
            {
              "internalType": "uint256",
              "name": "currentFundingCycleConfiguration",
              "type": "uint256"
            },
            {
              "internalType": "uint256",
              "name": "projectTokenCount",
              "type": "uint256"
            },
            {
              "components": [
                {
                  "internalType": "address",
                  "name": "token",
                  "type": "address"
                },
                {
                  "internalType": "uint256",
                  "name": "value",
                  "type": "uint256"
                },
                {
                  "internalType": "uint256",
                  "name": "decimals",
                  "type": "uint256"
                },
                {
                  "internalType": "uint256",
                  "name": "currency",
                  "type": "uint256"
                }
              ],
              "internalType": "struct JBTokenAmount",
              "name": "reclaimedAmount",
              "type": "tuple"
            },
            {
              "components": [
                {
                  "internalType": "address",
                  "name": "token",
                  "type": "address"
                },
                {
                  "internalType": "uint256",
                  "name": "value",
                  "type": "uint256"
                },
                {
                  "internalType": "uint256",
                  "name": "decimals",
                  "type": "uint256"
                },
                {
                  "internalType": "uint256",
                  "name": "currency",
                  "type": "uint256"
                }
              ],
              "internalType": "struct JBTokenAmount",
              "name": "forwardedAmount",
              "type": "tuple"
            },
            {
              "internalType": "address payable",
              "name": "beneficiary",
              "type": "address"
            },
            {
              "internalType": "string",
              "name": "memo",
              "type": "string"
            },
            {
              "internalType": "bytes",
              "name": "metadata",
              "type": "bytes"
            }
          ],
          "internalType": "struct JBDidRedeemData",
          "name": "_data",
          "type": "tuple"
        }
      ],
      "name": "didRedeem",
      "outputs": [],
      "stateMutability": "payable",
      "type": "function"
    },
    {
      "inputs": [],
      "name": "directory",
      "outputs": [
        {
          "internalType": "contract IJBDirectory",
          "name": "",
          "type": "address"
        }
      ],
      "stateMutability": "view",
      "type": "function"
    },
    {
      "inputs": [
        {
          "internalType": "uint256",
          "name": "_tokenId",
          "type": "uint256"
        }
      ],
      "name": "firstOwnerOf",
      "outputs": [
        {
          "internalType": "address",
          "name": "",
          "type": "address"
        }
      ],
      "stateMutability": "view",
      "type": "function"
    },
    {
      "inputs": [],
      "name": "fundingCycleStore",
      "outputs": [
        {
          "internalType": "contract IJBFundingCycleStore",
          "name": "",
          "type": "address"
        }
      ],
      "stateMutability": "view",
      "type": "function"
    },
    {
      "inputs": [],
      "name": "gamePhaseReporter",
      "outputs": [
        {
          "internalType": "contract IDefifaGamePhaseReporter",
          "name": "",
          "type": "address"
        }
      ],
      "stateMutability": "view",
      "type": "function"
    },
    {
      "inputs": [
        {
          "internalType": "uint256",
          "name": "tokenId",
          "type": "uint256"
        }
      ],
      "name": "getApproved",
      "outputs": [
        {
          "internalType": "address",
          "name": "",
          "type": "address"
        }
      ],
      "stateMutability": "view",
      "type": "function"
    },
    {
      "inputs": [
        {
          "internalType": "uint256",
          "name": "_tier",
          "type": "uint256"
        },
        {
          "internalType": "uint256",
          "name": "_blockNumber",
          "type": "uint256"
        }
      ],
      "name": "getPastTierTotalVotes",
      "outputs": [
        {
          "internalType": "uint256",
          "name": "",
          "type": "uint256"
        }
      ],
      "stateMutability": "view",
      "type": "function"
    },
    {
      "inputs": [
        {
          "internalType": "address",
          "name": "_account",
          "type": "address"
        },
        {
          "internalType": "uint256",
          "name": "_tier",
          "type": "uint256"
        },
        {
          "internalType": "uint256",
          "name": "_blockNumber",
          "type": "uint256"
        }
      ],
      "name": "getPastTierVotes",
      "outputs": [
        {
          "internalType": "uint256",
          "name": "",
          "type": "uint256"
        }
      ],
      "stateMutability": "view",
      "type": "function"
    },
    {
      "inputs": [
        {
          "internalType": "address",
          "name": "_account",
          "type": "address"
        },
        {
          "internalType": "uint256",
          "name": "_tier",
          "type": "uint256"
        }
      ],
      "name": "getTierDelegate",
      "outputs": [
        {
          "internalType": "address",
          "name": "",
          "type": "address"
        }
      ],
      "stateMutability": "view",
      "type": "function"
    },
    {
      "inputs": [
        {
          "internalType": "uint256",
          "name": "_tier",
          "type": "uint256"
        }
      ],
      "name": "getTierTotalVotes",
      "outputs": [
        {
          "internalType": "uint256",
          "name": "",
          "type": "uint256"
        }
      ],
      "stateMutability": "view",
      "type": "function"
    },
    {
      "inputs": [
        {
          "internalType": "address",
          "name": "_account",
          "type": "address"
        },
        {
          "internalType": "uint256",
          "name": "_tier",
          "type": "uint256"
        }
      ],
      "name": "getTierVotes",
      "outputs": [
        {
          "internalType": "uint256",
          "name": "",
          "type": "uint256"
        }
      ],
      "stateMutability": "view",
      "type": "function"
    },
    {
      "inputs": [
        {
          "internalType": "uint256",
          "name": "_gameId",
          "type": "uint256"
        },
        {
          "internalType": "contract IJBDirectory",
          "name": "_directory",
          "type": "address"
        },
        {
          "internalType": "string",
          "name": "_name",
          "type": "string"
        },
        {
          "internalType": "string",
          "name": "_symbol",
          "type": "string"
        },
        {
          "internalType": "contract IJBFundingCycleStore",
          "name": "_fundingCycleStore",
          "type": "address"
        },
        {
          "internalType": "string",
          "name": "_baseUri",
          "type": "string"
        },
        {
          "internalType": "contract IJBTokenUriResolver",
          "name": "_tokenUriResolver",
          "type": "address"
        },
        {
          "internalType": "string",
          "name": "_contractUri",
          "type": "string"
        },
        {
          "components": [
            {
              "internalType": "uint104",
              "name": "price",
              "type": "uint104"
            },
            {
              "internalType": "uint32",
              "name": "initialQuantity",
              "type": "uint32"
            },
            {
              "internalType": "uint32",
              "name": "votingUnits",
              "type": "uint32"
            },
            {
              "internalType": "uint16",
              "name": "reservedRate",
              "type": "uint16"
            },
            {
              "internalType": "address",
              "name": "reservedTokenBeneficiary",
              "type": "address"
            },
            {
              "internalType": "bytes32",
              "name": "encodedIPFSUri",
              "type": "bytes32"
            },
            {
              "internalType": "uint24",
              "name": "category",
              "type": "uint24"
            },
            {
              "internalType": "bool",
              "name": "allowManualMint",
              "type": "bool"
            },
            {
              "internalType": "bool",
              "name": "shouldUseReservedTokenBeneficiaryAsDefault",
              "type": "bool"
            },
            {
              "internalType": "bool",
              "name": "transfersPausable",
              "type": "bool"
            },
            {
              "internalType": "bool",
              "name": "useVotingUnits",
              "type": "bool"
            }
          ],
          "internalType": "struct JB721TierParams[]",
          "name": "_tiers",
          "type": "tuple[]"
        },
        {
          "internalType": "uint48",
          "name": "_currency",
          "type": "uint48"
        },
        {
          "internalType": "contract IJBTiered721DelegateStore",
          "name": "_store",
          "type": "address"
        },
        {
          "components": [
            {
              "internalType": "bool",
              "name": "lockReservedTokenChanges",
              "type": "bool"
            },
            {
              "internalType": "bool",
              "name": "lockVotingUnitChanges",
              "type": "bool"
            },
            {
              "internalType": "bool",
              "name": "lockManualMintingChanges",
              "type": "bool"
            },
            {
              "internalType": "bool",
              "name": "preventOverspending",
              "type": "bool"
            }
          ],
          "internalType": "struct JBTiered721Flags",
          "name": "_flags",
          "type": "tuple"
        },
        {
          "internalType": "contract IDefifaGamePhaseReporter",
          "name": "_gamePhaseReporter",
          "type": "address"
        },
        {
          "internalType": "address",
          "name": "_defaultVotingDelegate",
          "type": "address"
        }
      ],
      "name": "initialize",
      "outputs": [],
      "stateMutability": "nonpayable",
      "type": "function"
    },
    {
      "inputs": [
        {
          "internalType": "address",
          "name": "owner",
          "type": "address"
        },
        {
          "internalType": "address",
          "name": "operator",
          "type": "address"
        }
      ],
      "name": "isApprovedForAll",
      "outputs": [
        {
          "internalType": "bool",
          "name": "",
          "type": "bool"
        }
      ],
      "stateMutability": "view",
      "type": "function"
    },
    {
      "inputs": [
        {
          "components": [
            {
              "internalType": "uint256",
              "name": "tierId",
              "type": "uint256"
            },
            {
              "internalType": "uint256",
              "name": "count",
              "type": "uint256"
            }
          ],
          "internalType": "struct JBTiered721MintReservesForTiersData[]",
          "name": "_mintReservesForTiersData",
          "type": "tuple[]"
        }
      ],
      "name": "mintReservesFor",
      "outputs": [],
      "stateMutability": "nonpayable",
      "type": "function"
    },
    {
      "inputs": [
        {
          "internalType": "uint256",
          "name": "_tierId",
          "type": "uint256"
        },
        {
          "internalType": "uint256",
          "name": "_count",
          "type": "uint256"
        }
      ],
      "name": "mintReservesFor",
      "outputs": [],
      "stateMutability": "nonpayable",
      "type": "function"
    },
    {
      "inputs": [],
      "name": "name",
      "outputs": [
        {
          "internalType": "string",
          "name": "",
          "type": "string"
        }
      ],
      "stateMutability": "view",
      "type": "function"
    },
    {
      "inputs": [],
      "name": "owner",
      "outputs": [
        {
          "internalType": "address",
          "name": "",
          "type": "address"
        }
      ],
      "stateMutability": "view",
      "type": "function"
    },
    {
      "inputs": [
        {
          "internalType": "uint256",
          "name": "tokenId",
          "type": "uint256"
        }
      ],
      "name": "ownerOf",
      "outputs": [
        {
          "internalType": "address",
          "name": "",
          "type": "address"
        }
      ],
      "stateMutability": "view",
      "type": "function"
    },
    {
      "inputs": [
        {
          "components": [
            {
              "internalType": "contract IJBPaymentTerminal",
              "name": "terminal",
              "type": "address"
            },
            {
              "internalType": "address",
              "name": "payer",
              "type": "address"
            },
            {
              "components": [
                {
                  "internalType": "address",
                  "name": "token",
                  "type": "address"
                },
                {
                  "internalType": "uint256",
                  "name": "value",
                  "type": "uint256"
                },
                {
                  "internalType": "uint256",
                  "name": "decimals",
                  "type": "uint256"
                },
                {
                  "internalType": "uint256",
                  "name": "currency",
                  "type": "uint256"
                }
              ],
              "internalType": "struct JBTokenAmount",
              "name": "amount",
              "type": "tuple"
            },
            {
              "internalType": "uint256",
              "name": "projectId",
              "type": "uint256"
            },
            {
              "internalType": "uint256",
              "name": "currentFundingCycleConfiguration",
              "type": "uint256"
            },
            {
              "internalType": "address",
              "name": "beneficiary",
              "type": "address"
            },
            {
              "internalType": "uint256",
              "name": "weight",
              "type": "uint256"
            },
            {
              "internalType": "uint256",
              "name": "reservedRate",
              "type": "uint256"
            },
            {
              "internalType": "string",
              "name": "memo",
              "type": "string"
            },
            {
              "internalType": "bytes",
              "name": "metadata",
              "type": "bytes"
            }
          ],
          "internalType": "struct JBPayParamsData",
          "name": "_data",
          "type": "tuple"
        }
      ],
      "name": "payParams",
      "outputs": [
        {
          "internalType": "uint256",
          "name": "weight",
          "type": "uint256"
        },
        {
          "internalType": "string",
          "name": "memo",
          "type": "string"
        },
        {
          "components": [
            {
              "internalType": "contract IJBPayDelegate",
              "name": "delegate",
              "type": "address"
            },
            {
              "internalType": "uint256",
              "name": "amount",
              "type": "uint256"
            }
          ],
          "internalType": "struct JBPayDelegateAllocation[]",
          "name": "delegateAllocations",
          "type": "tuple[]"
        }
      ],
      "stateMutability": "view",
      "type": "function"
    },
    {
      "inputs": [],
      "name": "pricingCurrency",
      "outputs": [
        {
          "internalType": "uint256",
          "name": "",
          "type": "uint256"
        }
      ],
      "stateMutability": "view",
      "type": "function"
    },
    {
      "inputs": [],
      "name": "projectId",
      "outputs": [
        {
          "internalType": "uint256",
          "name": "",
          "type": "uint256"
        }
      ],
      "stateMutability": "view",
      "type": "function"
    },
    {
      "inputs": [
        {
          "components": [
            {
              "internalType": "contract IJBPaymentTerminal",
              "name": "terminal",
              "type": "address"
            },
            {
              "internalType": "address",
              "name": "holder",
              "type": "address"
            },
            {
              "internalType": "uint256",
              "name": "projectId",
              "type": "uint256"
            },
            {
              "internalType": "uint256",
              "name": "currentFundingCycleConfiguration",
              "type": "uint256"
            },
            {
              "internalType": "uint256",
              "name": "tokenCount",
              "type": "uint256"
            },
            {
              "internalType": "uint256",
              "name": "totalSupply",
              "type": "uint256"
            },
            {
              "internalType": "uint256",
              "name": "overflow",
              "type": "uint256"
            },
            {
              "components": [
                {
                  "internalType": "address",
                  "name": "token",
                  "type": "address"
                },
                {
                  "internalType": "uint256",
                  "name": "value",
                  "type": "uint256"
                },
                {
                  "internalType": "uint256",
                  "name": "decimals",
                  "type": "uint256"
                },
                {
                  "internalType": "uint256",
                  "name": "currency",
                  "type": "uint256"
                }
              ],
              "internalType": "struct JBTokenAmount",
              "name": "reclaimAmount",
              "type": "tuple"
            },
            {
              "internalType": "bool",
              "name": "useTotalOverflow",
              "type": "bool"
            },
            {
              "internalType": "uint256",
              "name": "redemptionRate",
              "type": "uint256"
            },
            {
              "internalType": "string",
              "name": "memo",
              "type": "string"
            },
            {
              "internalType": "bytes",
              "name": "metadata",
              "type": "bytes"
            }
          ],
          "internalType": "struct JBRedeemParamsData",
          "name": "_data",
          "type": "tuple"
        }
      ],
      "name": "redeemParams",
      "outputs": [
        {
          "internalType": "uint256",
          "name": "reclaimAmount",
          "type": "uint256"
        },
        {
          "internalType": "string",
          "name": "memo",
          "type": "string"
        },
        {
          "components": [
            {
              "internalType": "contract IJBRedemptionDelegate",
              "name": "delegate",
              "type": "address"
            },
            {
              "internalType": "uint256",
              "name": "amount",
              "type": "uint256"
            }
          ],
          "internalType": "struct JBRedemptionDelegateAllocation[]",
          "name": "delegateAllocations",
          "type": "tuple[]"
        }
      ],
      "stateMutability": "view",
      "type": "function"
    },
    {
      "inputs": [],
      "name": "redemptionWeightIsSet",
      "outputs": [
        {
          "internalType": "bool",
          "name": "",
          "type": "bool"
        }
      ],
      "stateMutability": "view",
      "type": "function"
    },
    {
      "inputs": [
        {
          "internalType": "uint256",
          "name": "_tokenId",
          "type": "uint256"
        }
      ],
      "name": "redemptionWeightOf",
      "outputs": [
        {
          "internalType": "uint256",
          "name": "",
          "type": "uint256"
        }
      ],
      "stateMutability": "view",
      "type": "function"
    },
    {
      "inputs": [
        {
          "internalType": "uint256[]",
          "name": "_tokenIds",
          "type": "uint256[]"
        },
        {
          "components": [
            {
              "internalType": "contract IJBPaymentTerminal",
              "name": "terminal",
              "type": "address"
            },
            {
              "internalType": "address",
              "name": "holder",
              "type": "address"
            },
            {
              "internalType": "uint256",
              "name": "projectId",
              "type": "uint256"
            },
            {
              "internalType": "uint256",
              "name": "currentFundingCycleConfiguration",
              "type": "uint256"
            },
            {
              "internalType": "uint256",
              "name": "tokenCount",
              "type": "uint256"
            },
            {
              "internalType": "uint256",
              "name": "totalSupply",
              "type": "uint256"
            },
            {
              "internalType": "uint256",
              "name": "overflow",
              "type": "uint256"
            },
            {
              "components": [
                {
                  "internalType": "address",
                  "name": "token",
                  "type": "address"
                },
                {
                  "internalType": "uint256",
                  "name": "value",
                  "type": "uint256"
                },
                {
                  "internalType": "uint256",
                  "name": "decimals",
                  "type": "uint256"
                },
                {
                  "internalType": "uint256",
                  "name": "currency",
                  "type": "uint256"
                }
              ],
              "internalType": "struct JBTokenAmount",
              "name": "reclaimAmount",
              "type": "tuple"
            },
            {
              "internalType": "bool",
              "name": "useTotalOverflow",
              "type": "bool"
            },
            {
              "internalType": "uint256",
              "name": "redemptionRate",
              "type": "uint256"
            },
            {
              "internalType": "string",
              "name": "memo",
              "type": "string"
            },
            {
              "internalType": "bytes",
              "name": "metadata",
              "type": "bytes"
            }
          ],
          "internalType": "struct JBRedeemParamsData",
          "name": "",
          "type": "tuple"
        }
      ],
      "name": "redemptionWeightOf",
      "outputs": [
        {
          "internalType": "uint256",
          "name": "cumulativeWeight",
          "type": "uint256"
        }
      ],
      "stateMutability": "view",
      "type": "function"
    },
    {
      "inputs": [],
      "name": "renounceOwnership",
      "outputs": [],
      "stateMutability": "nonpayable",
      "type": "function"
    },
    {
      "inputs": [
        {
          "internalType": "address",
          "name": "from",
          "type": "address"
        },
        {
          "internalType": "address",
          "name": "to",
          "type": "address"
        },
        {
          "internalType": "uint256",
          "name": "tokenId",
          "type": "uint256"
        }
      ],
      "name": "safeTransferFrom",
      "outputs": [],
      "stateMutability": "nonpayable",
      "type": "function"
    },
    {
      "inputs": [
        {
          "internalType": "address",
          "name": "from",
          "type": "address"
        },
        {
          "internalType": "address",
          "name": "to",
          "type": "address"
        },
        {
          "internalType": "uint256",
          "name": "tokenId",
          "type": "uint256"
        },
        {
          "internalType": "bytes",
          "name": "data",
          "type": "bytes"
        }
      ],
      "name": "safeTransferFrom",
      "outputs": [],
      "stateMutability": "nonpayable",
      "type": "function"
    },
    {
      "inputs": [
        {
          "internalType": "address",
          "name": "operator",
          "type": "address"
        },
        {
          "internalType": "bool",
          "name": "approved",
          "type": "bool"
        }
      ],
      "name": "setApprovalForAll",
      "outputs": [],
      "stateMutability": "nonpayable",
      "type": "function"
    },
    {
      "inputs": [
        {
          "internalType": "address",
          "name": "_delegatee",
          "type": "address"
        },
        {
          "internalType": "uint256",
          "name": "_tierId",
          "type": "uint256"
        }
      ],
      "name": "setTierDelegate",
      "outputs": [],
      "stateMutability": "nonpayable",
      "type": "function"
    },
    {
      "inputs": [
        {
          "components": [
            {
              "internalType": "address",
              "name": "delegatee",
              "type": "address"
            },
            {
              "internalType": "uint256",
              "name": "tierId",
              "type": "uint256"
            }
          ],
          "internalType": "struct JBTiered721SetTierDelegatesData[]",
          "name": "_setTierDelegatesData",
          "type": "tuple[]"
        }
      ],
      "name": "setTierDelegates",
      "outputs": [],
      "stateMutability": "nonpayable",
      "type": "function"
    },
    {
      "inputs": [
        {
          "components": [
            {
              "internalType": "uint256",
              "name": "id",
              "type": "uint256"
            },
            {
              "internalType": "uint256",
              "name": "redemptionWeight",
              "type": "uint256"
            }
          ],
          "internalType": "struct DefifaTierRedemptionWeight[]",
          "name": "_tierWeights",
          "type": "tuple[]"
        }
      ],
      "name": "setTierRedemptionWeights",
      "outputs": [],
      "stateMutability": "nonpayable",
      "type": "function"
    },
    {
      "inputs": [],
      "name": "store",
      "outputs": [
        {
          "internalType": "contract IJBTiered721DelegateStore",
          "name": "",
          "type": "address"
        }
      ],
      "stateMutability": "view",
      "type": "function"
    },
    {
      "inputs": [
        {
          "internalType": "bytes4",
          "name": "_interfaceId",
          "type": "bytes4"
        }
      ],
      "name": "supportsInterface",
      "outputs": [
        {
          "internalType": "bool",
          "name": "",
          "type": "bool"
        }
      ],
      "stateMutability": "view",
      "type": "function"
    },
    {
      "inputs": [],
      "name": "symbol",
      "outputs": [
        {
          "internalType": "string",
          "name": "",
          "type": "string"
        }
      ],
      "stateMutability": "view",
      "type": "function"
    },
    {
      "inputs": [],
      "name": "tierRedemptionWeights",
      "outputs": [
        {
          "internalType": "uint256[128]",
          "name": "",
          "type": "uint256[128]"
        }
      ],
      "stateMutability": "view",
      "type": "function"
    },
    {
      "inputs": [
        {
          "internalType": "uint256",
          "name": "_tokenId",
          "type": "uint256"
        }
      ],
      "name": "tokenURI",
      "outputs": [
        {
          "internalType": "string",
          "name": "",
          "type": "string"
        }
      ],
      "stateMutability": "view",
      "type": "function"
    },
    {
      "inputs": [
        {
          "components": [
            {
              "internalType": "contract IJBPaymentTerminal",
              "name": "terminal",
              "type": "address"
            },
            {
              "internalType": "address",
              "name": "holder",
              "type": "address"
            },
            {
              "internalType": "uint256",
              "name": "projectId",
              "type": "uint256"
            },
            {
              "internalType": "uint256",
              "name": "currentFundingCycleConfiguration",
              "type": "uint256"
            },
            {
              "internalType": "uint256",
              "name": "tokenCount",
              "type": "uint256"
            },
            {
              "internalType": "uint256",
              "name": "totalSupply",
              "type": "uint256"
            },
            {
              "internalType": "uint256",
              "name": "overflow",
              "type": "uint256"
            },
            {
              "components": [
                {
                  "internalType": "address",
                  "name": "token",
                  "type": "address"
                },
                {
                  "internalType": "uint256",
                  "name": "value",
                  "type": "uint256"
                },
                {
                  "internalType": "uint256",
                  "name": "decimals",
                  "type": "uint256"
                },
                {
                  "internalType": "uint256",
                  "name": "currency",
                  "type": "uint256"
                }
              ],
              "internalType": "struct JBTokenAmount",
              "name": "reclaimAmount",
              "type": "tuple"
            },
            {
              "internalType": "bool",
              "name": "useTotalOverflow",
              "type": "bool"
            },
            {
              "internalType": "uint256",
              "name": "redemptionRate",
              "type": "uint256"
            },
            {
              "internalType": "string",
              "name": "memo",
              "type": "string"
            },
            {
              "internalType": "bytes",
              "name": "metadata",
              "type": "bytes"
            }
          ],
          "internalType": "struct JBRedeemParamsData",
          "name": "",
          "type": "tuple"
        }
      ],
      "name": "totalRedemptionWeight",
      "outputs": [
        {
          "internalType": "uint256",
          "name": "",
          "type": "uint256"
        }
      ],
      "stateMutability": "view",
      "type": "function"
    },
    {
      "inputs": [
        {
          "internalType": "address",
          "name": "from",
          "type": "address"
        },
        {
          "internalType": "address",
          "name": "to",
          "type": "address"
        },
        {
          "internalType": "uint256",
          "name": "tokenId",
          "type": "uint256"
        }
      ],
      "name": "transferFrom",
      "outputs": [],
      "stateMutability": "nonpayable",
      "type": "function"
    },
    {
      "inputs": [
        {
          "internalType": "address",
          "name": "newOwner",
          "type": "address"
        }
      ],
      "name": "transferOwnership",
      "outputs": [],
      "stateMutability": "nonpayable",
      "type": "function"
    }
  ],
  "bytecode": {
    "object": "0x60a0806040523461006e5760078054336001600160a01b0319821681179092556001600160a01b03167f8be0079c531659141344cd1fd0a4f28419497f9722a3daafe3b4186f6b6457e0600080a33060805261576e90816200007482396080518181816107e0015261306f0152f35b600080fdfe6080604052600436101561001257600080fd5b60003560e01c806301ffc9a71461031757806306fdde0314610312578063081812fc1461030d578063095ea7b314610308578063174e3e05146103035780631d153ca4146102fe57806323b872dd146102f957806325bccd66146102f45780632a596e53146102ef5780632b13c58f146102ea5780632f441500146102e55780633fafa127146102e057806342842e0e146102db5780634f228e11146102d657806354c6d1f5146102d1578063557e7155146102cc5780636352211e146102c7578063640abacd146102c257806364640c1e146102bd5780636c0360eb146102b857806370a08231146102b3578063715018a6146102ae5780637ba62bf9146102a957806382732b6d146102a45780638da5cb5b1461029f5780639494bf721461029a57806394c5c5ca1461029557806395d89b4114610290578063975057e71461028b5780639df4546814610286578063a0b6490c14610281578063a22cb4651461027c578063a51cfd1814610277578063a8c15f4a14610272578063aa4fb15b1461026d578063ab951e3914610268578063b88d4fde14610263578063c41c2f241461025e578063c74b13d914610259578063c87b56dd14610254578063ca323efe1461024f578063d31cc52c1461024a578063d40e714614610245578063d46cf17114610240578063da9ee8b71461023b578063e8a3d48514610236578063e985e9c5146102315763f2fde38b1461022c57600080fd5b612180565b612116565b61206f565b611f57565b611e9b565b611de0565b611db2565b611d5f565b611c35565b611b83565b611b5c565b611af4565b611a1f565b611a00565b6119dd565b611953565b611885565b61185e565b6117d9565b6117b2565b61170d565b6116d1565b6116b4565b61168d565b611640565b6115e9565b61152f565b611486565b6113df565b611387565b611368565b61134a565b611323565b611305565b6112df565b6112a5565b611287565b6111f4565b610de6565b610d27565b610c44565b610830565b6107c0565b610799565b6106ac565b610651565b610572565b610333565b6001600160e01b031981160361032e57565b600080fd5b3461032e57602060031936011261032e576103826001600160e01b031960043561035c8161031c565b16637cc3c5ed60e11b8114908115610386575b5060405190151581529081906020820190565b0390f35b7ffbb38e03000000000000000000000000000000000000000000000000000000008114915081156104e1575b81156104b7575b811561048d575b8115610463575b81156103d5575b503861036f565b7f80ac58cd00000000000000000000000000000000000000000000000000000000811491508115610439575b811561040f575b50386103ce565b7f01ffc9a70000000000000000000000000000000000000000000000000000000091501438610408565b7f5b5e139f0000000000000000000000000000000000000000000000000000000081149150610401565b7f2a55205a00000000000000000000000000000000000000000000000000000000811491506103c7565b7f2b13c58f00000000000000000000000000000000000000000000000000000000811491506103c0565b7fda9ee8b700000000000000000000000000000000000000000000000000000000811491506103b9565b7f71700c6900000000000000000000000000000000000000000000000000000000811491506103b2565b600091031261032e57565b60005b8381106105295750506000910152565b8181015183820152602001610519565b90601f19601f60209361055781518092818752878088019101610516565b0116010190565b90602061056f928181520190610539565b90565b3461032e5760008060031936011261064e5760405190808054610594816113a5565b8085529160019180831690811561062457506001146105ca575b610382856105be818703826108cc565b6040519182918261055e565b80809450527f290decd9548b62a8d60345a988386fc84ba6bc95484008f6362f93160ef3e5635b82841061060c5750505081016020016105be826103826105ae565b805460208587018101919091529093019281016105f1565b869550610382969350602092506105be94915060ff191682840152151560051b82010192936105ae565b80fd5b3461032e57602060031936011261032e57602061066f600435613eb2565b6001600160a01b0360405191168152f35b6001600160a01b0381160361032e57565b610204359061069f82610680565b565b359061069f82610680565b3461032e57604060031936011261032e576004356106c981610680565b6024356001600160a01b03806106de83613e68565b16809184161461076f5780331415908161072d575b5061070357610701916148ba565b005b60046040517fe5fa0e35000000000000000000000000000000000000000000000000000000008152fd5b9050600052600460205261076961076561075e336040600020906001600160a01b0316600052602052604060002090565b5460ff1690565b1590565b386106f3565b60046040517f133f8be9000000000000000000000000000000000000000000000000000000008152fd5b3461032e57600060031936011261032e5760206001600160a01b0360965416604051908152f35b3461032e57600060031936011261032e5760206040516001600160a01b037f0000000000000000000000000000000000000000000000000000000000000000168152f35b600319606091011261032e5760043561081c81610680565b9060243561082981610680565b9060443590565b3461032e5761083e36610804565b906108498233613f48565b15610703576107019261460d565b6024359061069f82610680565b634e487b7160e01b600052604160045260246000fd5b6040810190811067ffffffffffffffff82111761089657604052565b610864565b67ffffffffffffffff811161089657604052565b611000810190811067ffffffffffffffff82111761089657604052565b90601f601f19910116810190811067ffffffffffffffff82111761089657604052565b60405190610160820182811067ffffffffffffffff82111761089657604052565b6040519061069f8261087a565b60405190610180820182811067ffffffffffffffff82111761089657604052565b60405190610120820182811067ffffffffffffffff82111761089657604052565b67ffffffffffffffff811161089657601f01601f191660200190565b9291926109878261095f565b9161099560405193846108cc565b82948184528183011161032e578281602093846000960137010152565b9080601f8301121561032e5781602061056f9335910161097b565b6084359061069f82610680565b60c4359061069f82610680565b67ffffffffffffffff81116108965760051b60200190565b35906cffffffffffffffffffffffffff8216820361032e57565b359063ffffffff8216820361032e57565b359061ffff8216820361032e57565b359062ffffff8216820361032e57565b8015150361032e57565b359061069f82610a49565b81601f8201121561032e57803590610a75826109e7565b92604090610a85825195866108cc565b83855260209182860191836101608097028601019481861161032e578401925b858410610ab6575050505050505090565b868483031261032e57848791610aca6108ef565b610ad3876109ff565b8152610ae0838801610a19565b83820152610aef868801610a19565b868201526060610b00818901610a2a565b908201526080610b118189016106a1565b9082015260a0808801359082015260c0610b2c818901610a39565b9082015260e0610b3d818901610a53565b90820152610100610b4f818901610a53565b90820152610120610b61818901610a53565b90820152610140610b73818901610a53565b90820152815201930192610aa5565b610124359065ffffffffffff8216820361032e57565b610144359061069f82610680565b7ffffffffffffffffffffffffffffffffffffffffffffffffffffffffffffffe9c608091011261032e57604051906080820182811067ffffffffffffffff821117610896576040528161016435610bfc81610a49565b815261018435610c0b81610a49565b60208201526101a435610c1d81610a49565b604082015260606101c43591610c3283610a49565b0152565b6101e4359061069f82610680565b3461032e5761022060031936011261032e57610c5e610857565b60443567ffffffffffffffff9182821161032e57610c81600492369084016109b2565b60643584811161032e57610c9890369085016109b2565b610ca06109cd565b60a43586811161032e57610cb790369087016109b2565b610cbf6109da565b60e43588811161032e57610cd690369089016109b2565b906101043598891161032e57610cf26107019936908a01610a5e565b92610cfb610b82565b94610d04610b98565b96610d0e36610ba6565b98610d17610c36565b9a610d20610691565b9c35613057565b3461032e5760208060031936011261032e576004359067ffffffffffffffff9081831161032e573660238401121561032e57826004013591821161032e57602490600693368385871b8301011161032e5760005b848110610d8457005b600190610da6610d9a3687848b1b8701016111cc565b85815191015190613805565b01610d7b565b90816101e091031261032e5790565b602060031982011261032e576004359067ffffffffffffffff821161032e5761056f91600401610dac565b610def36610dbb565b3415801590611123575b8015611113575b6110e95760a08101359081156110bf576101c081016024610e218284612647565b9050108015611089575b61105f57610e3c610e449183612647565b81019061273b565b915050805191610e6b610e5f6091546001600160a01b031690565b6001600160a01b031690565b926005549360408051809263038ab08560e11b825260209384918180610e9a60049c8d83019190602083019252565b03915afa801561100557600391600091611032575b50610eb98161278e565b149560005b848110610eea578888610ed089613dc9565b610ed657005b610ee561070191608a54612356565b608a55565b610ef48188612319565b5190610f1a610f0d836000526002602052604060002090565b546001600160a01b031690565b6001600160a01b03610f2e610e5f8a613638565b91160361100a578489610f4084614433565b610f50575b506001915001610ebe565b610fa092610f69610e5f608f546001600160a01b031690565b865180809681947f42f9914b0000000000000000000000000000000000000000000000000000000083528983019190602083019252565b03915afa91821561100557600192610fcb91600091610fd8575b50600052608b602052604060002090565b8054600101905584610f45565b610ff89150873d8911610ffe575b610ff081836108cc565b810190612259565b38610fba565b503d610fe6565b612268565b8284517f075fd2b1000000000000000000000000000000000000000000000000000000008152fd5b6110529150843d8611611058575b61104a81836108cc565b810190612776565b38610eaf565b503d611040565b60046040517f2a84050f000000000000000000000000000000000000000000000000000000008152fd5b50637cc3c5ed60e11b6001600160e01b03196110b76110b16110ab8587612647565b90612698565b906126ba565b161415610e2b565b60046040517f76914729000000000000000000000000000000000000000000000000000000008152fd5b60046040517f7df94b86000000000000000000000000000000000000000000000000000000008152fd5b5060055460208201351415610e00565b50611184602061113e610e5f6006546001600160a01b031690565b6005546040517f6e49181f000000000000000000000000000000000000000000000000000000008152600481019190915233602482015292839190829081906044820190565b03915afa9081156110055760009161119e575b5015610df9565b6111bf915060203d81116111c5575b6111b781836108cc565b810190613623565b38611197565b503d6111ad565b919082604091031261032e576040516111e48161087a565b6020808294803584520135910152565b3461032e5760208060031936011261032e576004359067ffffffffffffffff821161032e573660238301121561032e57816004013591611233836109e7565b91604093611243855194856108cc565b80845260248285019160061b8401019236841161032e57602401905b83821061126f5761070185613352565b82869161127c36856111cc565b81520191019061125f565b3461032e57600060031936011261032e576020600554604051908152f35b3461032e576112b336610804565b60405191602083019383851067ffffffffffffffff861117610896576107019460405260008452613ef1565b3461032e57602060031936011261032e5760206112fd6004356124d9565b604051908152f35b3461032e57602060031936011261032e57602061066f600435612227565b3461032e57600060031936011261032e5760206001600160a01b0360905416604051908152f35b3461032e57602060031936011261032e57602061066f600435613e68565b3461032e57600060031936011261032e576020604051633b9aca008152f35b3461032e57600060031936011261032e576020609254604051908152f35b90600182811c921680156113d5575b60208310146113bf57565b634e487b7160e01b600052602260045260246000fd5b91607f16916113b4565b3461032e5760008060031936011261064e576040519080609454611402816113a5565b80855291600191808316908115610624575060011461142b57610382856105be818703826108cc565b9250609483527f7047a3cc0a76edcee45792ca71527c753f6167484f14b94c4a3bd2997516725c5b82841061146e5750505081016020016105be826103826105ae565b80546020858701810191909152909301928101611453565b3461032e57602060031936011261032e576004356114a381610680565b60206001600160a01b03604481608f54169360405194859384927ff7888aec0000000000000000000000000000000000000000000000000000000084523060048501521660248301525afa80156110055761038291600091611511575b506040519081529081906020820190565b611529915060203d8111610ffe57610ff081836108cc565b38611500565b3461032e5760008060031936011261064e5761154961519d565b806001600160a01b036007546001600160a01b03198116600755167f8be0079c531659141344cd1fd0a4f28419497f9722a3daafe3b4186f6b6457e08280a380f35b81601f8201121561032e578035916115a2836109e7565b926115b060405194856108cc565b808452602092838086019260051b82010192831161032e578301905b8282106115da575050505090565b813581529083019083016115cc565b3461032e57604060031936011261032e5767ffffffffffffffff60043581811161032e5761161b90369060040161158b565b9060243590811161032e5760209161163a6112fd923690600401610dac565b50612363565b3461032e57604060031936011261032e57602060043561165f81610680565b6001600160a01b03809116600052608c82526040600020602435600052825260406000205416604051908152f35b3461032e57600060031936011261032e5760206001600160a01b0360075416604051908152f35b3461032e576116c236610dbb565b506020604051633b9aca008152f35b3461032e57602060031936011261032e57600435600052608e60205260206001600160e01b036117046040600020615414565b16604051908152f35b3461032e5760008060031936011261064e5760405190806001805491611732836113a5565b80865292828116908115610624575060011461175857610382856105be818703826108cc565b92508083527fb10e2d527612073b26eecdfd717e6a320cf44b4afac2b0732d9fcbe2b7fa0cf65b82841061179a5750505081016020016105be826103826105ae565b8054602085870181019190915290930192810161177f565b3461032e57600060031936011261032e5760206001600160a01b03608f5416604051908152f35b3461032e57600060031936011261032e576040516117f6816108af565b6110008091369037604051600a6000825b608082106118485750505061181b816108af565b60405190600090825b6080831061183157505050f35b600190825181526020809101920192019190611824565b6001602081928554815201930191019091611807565b3461032e57600060031936011261032e5760206001600160a01b0360915416604051908152f35b3461032e57604060031936011261032e576004356118a281610680565b6024356118ae81610a49565b6001600160a01b03821691823314611929576118ea903360005260046020526040600020906001600160a01b0316600052602052604060002090565b9015159060ff1981541660ff83161790556040519081527f17307eab39ab6107e8899845ad3d59bd9653f200f220920489ca2b5937696c3160203392a3005b60046040517f0df0273a000000000000000000000000000000000000000000000000000000008152fd5b3461032e5761196961196436610dbb565b6127ae565b60409291928051938493845261198b6020916060838701526060860190610539565b90848203838601528080855193848152019401926000905b8382106119b05786860387f35b845180516001600160a01b03168752830151868401528796509485019493820193600191909101906119a3565b3461032e57600060031936011261032e57602060ff609354166040519015158152f35b3461032e57604060031936011261032e57610701602435600435613805565b3461032e57604060031936011261032e57600435611a3c81610680565b611a7a6020611a56610e5f6091546001600160a01b031690565b60055490604051808095819463038ab08560e11b8352600483019190602083019252565b03915afa801561100557600191600091611ad6575b50611a998161278e565b03611aac57610701906024359033613b22565b60046040517ff331f3c1000000000000000000000000000000000000000000000000000000008152fd5b611aee915060203d81116110585761104a81836108cc565b38611a8f565b3461032e57608060031936011261032e57600435611b1181610680565b602435611b1d81610680565b6064359167ffffffffffffffff831161032e573660238401121561032e57611b5261070193369060248160040135910161097b565b9160443591613ef1565b3461032e57600060031936011261032e5760206001600160a01b0360065416604051908152f35b3461032e5760208060031936011261032e576004359067ffffffffffffffff821161032e573660238301121561032e57816004013591611bc2836109e7565b91604093611bd2855194856108cc565b80845260248285019160061b8401019236841161032e57602401905b838210611bfe5761070185613642565b858236031261032e578286918251611c158161087a565b8435611c2081610680565b81528285013583820152815201910190611bee565b3461032e57602060031936011261032e57611c5b610e5f608f546001600160a01b031690565b6040517f0fab094700000000000000000000000000000000000000000000000000000000815230600482015290602090829060249082905afa90811561100557600091611d31575b50600060405180927fda0544aa000000000000000000000000000000000000000000000000000000008252816001600160a01b0381611cec600435600483019190602083019252565b0392165afa80156110055761038291600091611d10575b506040519182918261055e565b611d2b913d8091833e611d2381836108cc565b8101906122cb565b38611d03565b611d52915060203d8111611d58575b611d4a81836108cc565b810190612274565b38611ca3565b503d611d40565b3461032e57604060031936011261032e576001600160a01b03600435611d8481610680565b16600052608d602052604060002060243560005260205260206001600160e01b036117046040600020615414565b3461032e57604060031936011261032e57600435600052608e60205260206112fd602435604060002061523d565b3461032e57606060031936011261032e576001600160a01b03600435611e0581610680565b16600052608d602052604060002060243560005260205260206112fd604435604060002061523d565b91908252611e486020916060838501526060840190610539565b90604092838184039101528080855193848152019401926000905b838210611e7257505050505090565b845180516001600160a01b03168752830151868401529485019493820193600190910190611e63565b3461032e576020600319818136011261032e576004359067ffffffffffffffff821161032e576101a090823603011261032e57611ee9611ee2610164830183600401612647565b369161097b565b60405190611ef68261087a565b6001825260005b848110611f4157509061038291610124946000611f18610910565b30815291820152611f2883612307565b52611f3282612307565b50604051948594013584611e2e565b8490611f4b6126e6565b82828601015201611efd565b60031960208136011261032e576004359067ffffffffffffffff821161032e5761020090823603011261032e57600554341590811591611fe3575b8115611fd4575b50611faa5761070190600401614c5b565b60046040517fc715ec6c000000000000000000000000000000000000000000000000000000008152fd5b90506024820135141538611f99565b9050611ffa610e5f6006546001600160a01b031690565b6040517f6e49181f0000000000000000000000000000000000000000000000000000000081526004810183905233602482015290602090829060449082905afa90811561100557600091612051575b501590611f92565b612069915060203d81116111c5576111b781836108cc565b38612049565b3461032e5760008060031936011261064e576040519080609554612092816113a5565b8085529160019180831690811561062457506001146120bb57610382856105be818703826108cc565b9250609583527f947035e97d0f7e1937f791bc189f60c984ceaaa7a8494fc67f9f8f4de8ccf2c65b8284106120fe5750505081016020016105be826103826105ae565b805460208587018101919091529093019281016120e3565b3461032e57604060031936011261032e57602060ff61217460043561213a81610680565b6001600160a01b036024359161214f83610680565b16600052600484526040600020906001600160a01b0316600052602052604060002090565b54166040519015158152f35b3461032e57602060031936011261032e5760043561219d81610680565b6121a561519d565b6001600160a01b038116156121bd57610701906151f5565b608460405162461bcd60e51b815260206004820152602660248201527f4f776e61626c653a206e6577206f776e657220697320746865207a65726f206160448201527f64647265737300000000000000000000000000000000000000000000000000006064820152fd5b60005260086020526001600160a01b03806040600020541680612254575060026020526040600020541690565b905090565b9081602091031261032e575190565b6040513d6000823e3d90fd5b9081602091031261032e575161056f81610680565b81601f8201121561032e57805161229f8161095f565b926122ad60405194856108cc565b8184526020828401011161032e5761056f9160208085019101610516565b9060208282031261032e57815167ffffffffffffffff811161032e5761056f9201612289565b634e487b7160e01b600052603260045260246000fd5b8051156123145760200190565b6122f1565b80518210156123145760209160051b010190565b634e487b7160e01b600052601160045260246000fd5b906001820180921161235157565b61232d565b9190820180921161235157565b9060009180516000915b81831061237957505050565b90919361238f6123898684612319565b516124d9565b81018091116123515793600101919061236d565b519061069f82610680565b519061069f82610a49565b60208183031261032e57805167ffffffffffffffff9182821161032e57016101808184031261032e576123ea61091d565b92815184526020820151602085015260408201516040850152606082015160608501526080820151608085015260a082015160a085015261242d60c083016123a3565b60c085015260e082015160e085015261010080830151908501526101206124558184016123ae565b908501526101406124678184016123ae565b90850152610160928383015190811161032e576124849201612289565b9082015290565b90600019820191821161235157565b9190820391821161235157565b608081101561231457600a0190600090565b81156124c3570490565b634e487b7160e01b600052601260045260246000fd5b61252c60206124f3610e5f608f546001600160a01b031690565b92604051809381927f42f9914b000000000000000000000000000000000000000000000000000000008352600483019190602083019252565b0381855afa90811561100557600091612629575b506040516364faa15960e01b8152306004820152602481018290526000604482018190529092839060649082905afa91821561100557600092612606575b5061259d61259361258e8361248b565b6124a7565b90549060031b1c90565b9081156125fe5760608301906125bb6040835195019485519061249a565b156125f5576125e86125d761056f956125ef945190519061249a565b91600052608b602052604060002090565b5490612356565b906124b9565b50505050600090565b505050600090565b61262291923d8091833e61261a81836108cc565b8101906123b9565b903861257e565b612641915060203d8111610ffe57610ff081836108cc565b38612540565b9035907fffffffffffffffffffffffffffffffffffffffffffffffffffffffffffffffe18136030182121561032e570180359067ffffffffffffffff821161032e5760200191813603831361032e57565b9060241161032e5760200190600490565b9060441161032e5760400190600490565b6001600160e01b031990358181169392600481106126d757505050565b60040360031b82901b16169150565b604051906126f38261087a565b60006020838281520152565b6040519061270c8261087a565b600182528160005b602090818110156127365760209161272a6126e6565b90828501015201612714565b505050565b9160608383031261032e5782359260208101356127578161031c565b92604082013567ffffffffffffffff811161032e5761056f920161158b565b9081602091031261032e5751600681101561032e5790565b6006111561279857565b634e487b7160e01b600052602160045260246000fd5b90600090816080840135612a3e576101c084019060246127ce8387612647565b9050108015612a14575b61105f576127e46126ff565b93612819610e3c6127f3610910565b30815294602095848782015261280889612307565b5261281288612307565b5088612647565b94915050612832610e5f6091546001600160a01b031690565b91604088838251809663038ab08560e11b8252818061285d8760049701358783019190602083019252565b03915afa9485156110055783956129f5575b506128798561278e565b600194818682149182156129dd575b82156129c5575b82156129b1575b50506128db57505050505050611ee26128cb6128d7926128c56128bf608a5460c08a0135612356565b91612363565b90615693565b946101a0810190612647565b9190565b94989592919083519382966128fb610e5f608f546001600160a01b031690565b915b86891061291f57505050505050505050611ee2816101a06128d7930190612647565b90919293949596979b61296d90866129378f85612319565b5187518094819263c44a8e6d60e01b83523089840160409060009294936001600160a01b03606083019616825260208201520152565b0381885afa918215611005578a9289918991612997575b500151019c0197969594939291906128fd565b6129ab91503d808b833e61261a81836108cc565b38612984565b9091506129bd8161278e565b148138612896565b8092506129d2915061278e565b81600582149161288f565b8092506129ea915061278e565b816002821491612888565b612a0d919550843d86116110585761104a81836108cc565b933861286f565b50637cc3c5ed60e11b6001600160e01b0319612a366110b16110ab868a612647565b1614156127d8565b60046040517f4fc178d8000000000000000000000000000000000000000000000000000000008152fd5b601f8111612a74575050565b6000908180527f290decd9548b62a8d60345a988386fc84ba6bc95484008f6362f93160ef3e563906020601f850160051c83019410612ace575b601f0160051c01915b828110612ac357505050565b818155600101612ab7565b9092508290612aae565b601f8111612ae4575050565b600090609482527f7047a3cc0a76edcee45792ca71527c753f6167484f14b94c4a3bd2997516725c906020601f850160051c83019410612b3f575b601f0160051c01915b828110612b3457505050565b818155600101612b28565b9092508290612b1f565b601f8111612b55575050565b600090609582527f947035e97d0f7e1937f791bc189f60c984ceaaa7a8494fc67f9f8f4de8ccf2c6906020601f850160051c83019410612bb0575b601f0160051c01915b828110612ba557505050565b818155600101612b99565b9092508290612b90565b90601f8211612bc7575050565b6001916000908382527fb10e2d527612073b26eecdfd717e6a320cf44b4afac2b0732d9fcbe2b7fa0cf6906020601f850160051c83019410612c24575b601f0160051c01915b828110612c1a5750505050565b8181558301612c0d565b9092508290612c04565b90815167ffffffffffffffff811161089657612c5481612c4f6094546113a5565b612ad8565b602080601f8311600114612c8f5750819293600092612c84575b50506000198260011b9260031b1c191617609455565b015190503880612c6e565b90601f19831694612cc260946000527f7047a3cc0a76edcee45792ca71527c753f6167484f14b94c4a3bd2997516725c90565b926000905b878210612cff575050836001959610612ce6575b505050811b01609455565b015160001960f88460031b161c19169055388080612cdb565b80600185968294968601518155019501930190612cc7565b90815167ffffffffffffffff811161089657612d3d81612d386095546113a5565b612b49565b602080601f8311600114612d785750819293600092612d6d575b50506000198260011b9260031b1c191617609555565b015190503880612d57565b90601f19831694612dab60956000527f947035e97d0f7e1937f791bc189f60c984ceaaa7a8494fc67f9f8f4de8ccf2c690565b926000905b878210612de8575050836001959610612dcf575b505050811b01609555565b015160001960f88460031b161c19169055388080612dc4565b80600185968294968601518155019501930190612db0565b90815167ffffffffffffffff811161089657600190612e2881612e2384546113a5565b612bba565b602080601f8311600114612e62575081929394600092612e57575b505060001982841b9260031b1c1916179055565b015190503880612e43565b90601f19831695612e9560016000527fb10e2d527612073b26eecdfd717e6a320cf44b4afac2b0732d9fcbe2b7fa0cf690565b926000905b888210612ed05750508385969710612eb7575b505050811b019055565b015160001960f88460031b161c19169055388080612ead565b808785968294968601518155019501930190612e9a565b81601f8201121561032e57805191612efe836109e7565b92612f0c60405194856108cc565b808452602092838086019260051b82010192831161032e578301905b828210612f36575050505090565b81518152908301908301612f28565b9060208282031261032e57815167ffffffffffffffff811161032e5761056f9201612ee7565b60208082019080835283518092528060408094019401926000905b838210612f9557505050505090565b90919293948361016060019261304a8951612fbf8382516cffffffffffffffffffffffffff169052565b8085015163ffffffff16838601528087015163ffffffff168388015260608181015161ffff16908401526080818101516001600160a01b03169084015260a0818101519084015260c08082015162ffffff169084015260e081810151151590840152610100818101511515908401526101208181015115159084015261014090810151151590830152565b0196019493920190612f86565b93959c9496979b92919099986001600160a01b039a8b7f000000000000000000000000000000000000000000000000000000000000000016301461032e578b6130ab610e5f608f546001600160a01b031690565b1661032e5761314a976130d06131129565ffffffffffff956130ec9461312e9a614a85565b6001600160a01b03166001600160a01b03196090541617609055565b61310c8a6001600160a01b03166001600160a01b0319608f541617608f55565b16609255565b6001600160a01b03166001600160a01b03196091541617609155565b6001600160a01b03166001600160a01b03196096541617609655565b8051613343575b508051613334575b508185166132bc575b6131a094501691604051907f8da5e32b0000000000000000000000000000000000000000000000000000000082528180600096879360048301612f6b565b038183875af180156110055761329a575b5080511515801561328d575b8015613280575b8015613273575b6131dc575b50505061069f336151f5565b813b1561326f57604080517fcb827e3200000000000000000000000000000000000000000000000000000000815282511515600482015260208301511515602482015290820151151560448201526060909101511515606482015291908290608490829084905af1801561100557613256575b80806131d0565b806132636132699261089b565b8061050b565b3861324f565b8280fd5b50606081015115156131cb565b50604081015115156131c4565b50602081015115156131bd565b6132b5903d8086833e6132ad81836108cc565b810190612f45565b50386131b1565b818116803b1561032e576040517fd84a72c00000000000000000000000000000000000000000000000000000000081526001600160a01b039690961660048701526000908690602490829084905af1948515611005576131a095613321575b50613162565b8061326361332e9261089b565b3861331b565b61333d90612d17565b38613159565b61334c90612c2e565b38613151565b61335a61519d565b61336f610e5f6091546001600160a01b031690565b600554916040918251809163038ab08560e11b82526020928391818061339e60049a8b83019190602083019252565b03915afa90811561100557600091613606575b506133bb8161278e565b600381036135dd5760935460ff166135b4576133d68161278e565b84600582149182156135a0575b5050613578576133fe610e5f608f546001600160a01b031690565b9080845180937ff1bea54f0000000000000000000000000000000000000000000000000000000082528180613445308b83019190916001600160a01b036020820193169052565b03915afa91821561100557600092613559575b50909160009181519183945b8386106134b55750505050633b9aca0091501161348f57505061069f600160ff196093541617609355565b517f6ff44e97000000000000000000000000000000000000000000000000000000008152fd5b90919293816134c48785612319565b51511161353157613525600191613511866134df8a88612319565b5101516134f961258e6134f28c8a612319565b515161248b565b90919060001983549160031b92831b921b1916179055565b8561351c8987612319565b51015190612356565b95019493929190613464565b8787517f52385374000000000000000000000000000000000000000000000000000000008152fd5b816135719293503d8411610ffe57610ff081836108cc565b9038613458565b5050517f6fb84075000000000000000000000000000000000000000000000000000000008152fd5b9091506135ac8161278e565b1484386133e3565b505050517f38101407000000000000000000000000000000000000000000000000000000008152fd5b505050517f03ce4502000000000000000000000000000000000000000000000000000000008152fd5b61361d9150823d84116110585761104a81836108cc565b386133b1565b9081602091031261032e575161056f81610a49565b3561056f81610680565b613657610e5f6091546001600160a01b031690565b6005546040805163038ab08560e11b8152600480820193909352939290916020918290869060249082905afa9485156110055760009561375f575b5061369c8561278e565b6001809503613738578351936136b06126e6565b5060005b8581106136c45750505050505050565b6136ce8183612319565b516136e3610e5f82516001600160a01b031690565b15613710579061370a82866137008b95516001600160a01b031690565b9101519033613b22565b016136b4565b8386517f53d304f4000000000000000000000000000000000000000000000000000000008152fd5b82517ff331f3c1000000000000000000000000000000000000000000000000000000008152fd5b613777919550823d84116110585761104a81836108cc565b9338613692565b908161012091031261032e5761379261093e565b90805182526020810151602083015260408101516040830152606081015160608301526080810151608083015260a081015160a083015260c081015160c08301526137df60e082016123a3565b60e0830152610100809101519082015290565b8181029291811591840414171561235157565b9061381b610e5f6090546001600160a01b031690565b9161384a60055493604094855180926321d1336160e11b82528180610120968795600483019190602083019252565b03915afa9182156110055761387b9260ff9261010092600092613af5575b5050015160f41c1660018091811c161490565b613acc57613894610e5f608f546001600160a01b031690565b83517f136e651c000000000000000000000000000000000000000000000000000000008152306004820152602481018390529290602090849060449082905afa92831561100557600093613aac575b506001600160a01b039081613921610f0d85613912886001600160a01b0316600052608c602052604060002090565b90600052602052604060002090565b1615613a8b575b61393d610e5f608f546001600160a01b031690565b85517fbaa7e80e000000000000000000000000000000000000000000000000000000008152600481018590526024810183905292906000908490604490829084905af192831561100557600093613a70575b5060005b828110613a215750505060006139b4610e5f608f546001600160a01b031690565b94516364faa15960e01b8152306004820152602481018490526000604482015294859060649082905afa908115611005576080613a029261069f96600091613a08575b5001519051906137f2565b91613c0a565b613a1b913d8091833e61261a81836108cc565b386139f7565b80613a2e60019286612319565b51613a398189613fc9565b88513381528489169188917f031e1988c95a91ec4d655ff63a8f87a80bc9daf28d95ae10ee08c0022cfb5c8b90602090a401613993565b613a8491933d8091833e6132ad81836108cc565b913861398f565b613aa783613aa16096546001600160a01b031690565b86613b22565b613928565b613ac591935060203d8111611d5857611d4a81836108cc565b91386138e3565b600483517fe96092b8000000000000000000000000000000000000000000000000000000008152fd5b613b149250803d10613b1b575b613b0c81836108cc565b81019061377e565b3880613868565b503d613b02565b6001600160a01b039081166000818152608c602090815260408083208784528252822080548686166001600160a01b03198216811790925592969195919491939282169291869184847f3134e8a2e6d97e929a7e54011ea5485d7d196dd5f0ba4d4ef95803e8e3fc257f8b80a4608f5416916064604051809481937f2e4d0ea800000000000000000000000000000000000000000000000000000000835230600484015260248301528860448301525afa9485156110055761069f9695613beb575b5050613c9b565b613c02929550803d10610ffe57610ff081836108cc565b923880613be4565b9061069f92916000828152608e602052613c27846040832061533d565b505060406001600160a01b039182841615613c80575b808052608c602052818120858252602052613c71838383205416946001600160a01b0316600052608c602052604060002090565b85825260205220541690613c9b565b848152608e602052613c94868383206153ec565b5050613c3d565b9192906001600160a01b03928382169381168481148015613dc1575b613db957859181613d46575b50505082613cd2575b50505050565b7fed0c1e94c302bdbbd8bbd6a4fb7c3ed335c2292407cd816eadd075d019d0ce0491613d14613d25926001600160a01b0316600052608d602052604060002090565b85600052602052604060002061533d565b6040805192835260208301919091523390820152606090a338808080613ccc565b613d63906001600160a01b0316600052608d602052604060002090565b826000526020527fed0c1e94c302bdbbd8bbd6a4fb7c3ed335c2292407cd816eadd075d019d0ce04613d998560406000206153ec565b6040805192835260208301919091523390820152606090a3833880613cc3565b505050505050565b508315613cb7565b6001600160a01b03608f5416803b1561032e5760405180927f86bc2be3000000000000000000000000000000000000000000000000000000008252602482016020908160048501528251809152816044850193019160005b828110613e5157505050509181600081819503925af1801561100557613e445750565b8061326361069f9261089b565b835185528795509381019392810192600101613e21565b60005260026020526001600160a01b03604060002054168015613e885790565b60046040517fb49aa3b5000000000000000000000000000000000000000000000000000000008152fd5b613ed28160005260026020526001600160a01b0360406000205416151590565b15613e885760005260036020526001600160a01b036040600020541690565b929190613efe8233613f48565b156107035783613f128383613f179761460d565b614998565b15613f1e57565b60046040517f6deaf836000000000000000000000000000000000000000000000000000000008152fd5b6001600160a01b0380613f5a84613e68565b169281831692848414948515613f90575b50508315613f7a575b50505090565b613f8691929350613eb2565b1614388080613f74565b60ff92955090613fbf9160005260046020526040600020906001600160a01b0316600052602052604060002090565b5416923880613f6b565b9190916001600160a01b03811690811561414657613ffd8460005260026020526001600160a01b0360406000205416151590565b61411c578360009281845260026020526140308360408620906001600160a01b03166001600160a01b0319825416179055565b837fddf252ad1be2c89b69c2b068fc378daa952ba7f163c4a11628f55a4df523b3ef8180a461409d8261406e610e5f608f546001600160a01b031690565b60405163c44a8e6d60e01b81523060048201526024810197909752600060448801529591829081906064820190565b0381885afa908115611005578391614102575b505193803b1561326f576040516330b157e560e21b81526004810195909552600060248601526001600160a01b039190911660448501529192918290606490829084905af1801561100557613e445750565b61411691503d8085833e61261a81836108cc565b386140b0565b60046040517fbad7c30c000000000000000000000000000000000000000000000000000000008152fd5b60046040517f7208af1e000000000000000000000000000000000000000000000000000000008152fd5b906141bd929161418b610e5f608f546001600160a01b031690565b60405163c44a8e6d60e01b81523060048201526024810193909352600060448401819052948590849081906064820190565b0381845afa928315611005578593614240575b508251813b1561423c576040516330b157e560e21b815260048101919091526001600160a01b0383166024820152600060448201529394908490606490829084905af19283156110055761069f93614229575b5061434a565b806132636142369261089b565b38614223565b8580fd5b6142559193503d8087833e61261a81836108cc565b91386141d0565b906142aa939291614278610e5f608f546001600160a01b031690565b60405163c44a8e6d60e01b81523060048201526024810194909452600060448501819052958690859081906064820190565b0381845afa93841561100557869461432e575b508351813b1561432a576040516330b157e560e21b815260048101919091526001600160a01b038381166024830152841660448201529495908590606490829084905af19384156110055761069f94614317575b506143b6565b806132636143249261089b565b38614311565b8680fd5b6143439194503d8088833e61261a81836108cc565b92386142bd565b6001600160a01b038091169182156127365761069f926080825192015192600091838352608e60205261438085604085206153ec565b50508252608c60205260408220838352602052604081818420541692808052608c60205281812085825260205220541690613c9b565b916001600160a01b03809316918215613ccc5761069f936040608084519401519482841615614416575b6000908152608c602052818120858252602052613c71838383205416946001600160a01b0316600052608c602052604060002090565b84600052608e60205261442c86836000206153ec565b50506143e0565b61443c81613e68565b906001600160a01b03821691826144a1575b81600061069f9461445e83614864565b8282526002602052604082206001600160a01b031981541690557fddf252ad1be2c89b69c2b068fc378daa952ba7f163c4a11628f55a4df523b3ef8280a4614170565b6144b6610e5f608f546001600160a01b031690565b60405163c44a8e6d60e01b8152306004820152602481018490526000604482018190529091829060649082905afa9081156110055761450391610140916000916145f4575b500151151590565b614570575b81600061069f94614529610e5f610f0d856000526008602052604060002090565b15614538575b9450505061444e565b61456b84614550856000526008602052604060002090565b906001600160a01b03166001600160a01b0319825416179055565b61452f565b6145b292614589610e5f6090546001600160a01b031690565b9060055460405180936321d1336160e11b82528180610120998a95600483019190602083019252565b03915afa9081156110055761069f9585936000936145d6575b505094505050614508565b816145ec92903d10613b1b57613b0c81836108cc565b5038806145cb565b614607913d8091833e61261a81836108cc565b386144fb565b919061461882613e68565b6001600160a01b038085169491811685900361483a57821693841561481057806146a3575b61069f94849161464c83614864565b826000526002602052614679856040600020906001600160a01b03166001600160a01b0319825416179055565b7fddf252ad1be2c89b69c2b068fc378daa952ba7f163c4a11628f55a4df523b3ef600080a461425c565b6146b8610e5f608f546001600160a01b031690565b60405163c44a8e6d60e01b8152306004820152602481018690526000604482018190529091829060649082905afa9081156110055761470491610140916000916145f457500151151590565b614755575b61069f948491614729610e5f610f0d856000526008602052604060002090565b15614738575b9150945061463d565b61475084614550856000526008602052604060002090565b61472f565b61479561476d610e5f6090546001600160a01b031690565b60055460405180926321d1336160e11b82528180610120968795600483019190602083019252565b03915afa918215611005576147c49260ff92610100926000926147f3575b5050015160f41c1660018091161490565b156147095760046040517f18cdaf97000000000000000000000000000000000000000000000000000000008152fd5b6148099250803d10613b1b57613b0c81836108cc565b38806147b3565b60046040517f2c955427000000000000000000000000000000000000000000000000000000008152fd5b60046040517fa195bc53000000000000000000000000000000000000000000000000000000008152fd5b80600052600360205260406000206001600160a01b0319815416905560006001600160a01b0361489383613e68565b167f8c5be1e5ebec7d5bd14f71427d1e84f3dd0314c0f7b2291e5b200ac8c7c3b9258280a4565b8160005260036020526148e7816040600020906001600160a01b03166001600160a01b0319825416179055565b6001600160a01b03806148f984613e68565b169116907f8c5be1e5ebec7d5bd14f71427d1e84f3dd0314c0f7b2291e5b200ac8c7c3b925600080a4565b9081602091031261032e575161056f8161031c565b909261056f94936080936001600160a01b03809216845216602083015260408201528160608201520190610539565b3d15614993573d906149798261095f565b9161498760405193846108cc565b82523d6000602084013e565b606090565b92909190823b15614a7c576149ec9260209260006001600160a01b036040518097819682957f150b7a02000000000000000000000000000000000000000000000000000000009b8c85523360048601614939565b0393165af160009181614a4c575b50614a3e57614a07614968565b80519081614a395760046040517f6deaf836000000000000000000000000000000000000000000000000000000008152fd5b602001fd5b6001600160e01b0319161490565b614a6e91925060203d8111614a75575b614a6681836108cc565b810190614924565b90386149fa565b503d614a5c565b50505050600190565b91929092805167ffffffffffffffff811161089657600091614ab082614aab85546113a5565b612a68565b60209081601f8411600114614b1c57509282614af093614af5969361069f9998968492614b11575b50506000198260011b9260031b1c1916179055612e00565b600555565b6001600160a01b03166001600160a01b03196006541617600655565b015190503880614ad8565b600080529190601f1984167f290decd9548b62a8d60345a988386fc84ba6bc95484008f6362f93160ef3e5639386905b828210614b9657505093614af5969361069f9998969360019383614af09810614b7d575b505050811b019055612e00565b015160001960f88460031b161c19169055388080614b70565b80600186978294978701518155019601940190614b4c565b9160a08383031261032e5782359260209182820135936040830135614bd28161031c565b936060840135614be181610680565b9360808101359067ffffffffffffffff821161032e57019180601f8401121561032e578235614c0f816109e7565b93614c1d60405195866108cc565b818552838086019260051b82010192831161032e578301905b828210614c44575050505090565b838091614c5084610a2a565b815201910190614c36565b9060925460c083013503614fd8576101e082016044614c7a8285612647565b90501180614fa9575b614c8c57509050565b614c99614ca19184612647565b810190614bae565b9250949250506001600160a01b03809416938415614f77575b815115614f4d576000808091845197825b898110614d2557505050505050614cf59293506080614ced6101808401613638565b920135615083565b614cfb57565b60046040517f6d5e09a4000000000000000000000000000000000000000000000000000000008152fd5b8988614d46614d3f614d37858c612319565b5161ffff1690565b61ffff1690565b8503614e6a575b90614d7b610f0d86613912614d628b96613638565b6001600160a01b0316600052608c602052604060002090565b88808616918b83159485158096614e5f575b614da1575b50505050505050600101614ccb565b879a969791614db08b9261248b565b83109283614e39575b505050600014614de35750505050600191614dd391612356565b935b905084388088818b8f614d92565b614e0a955083614e2c575b505050614e14575b83613a0287614e048c613638565b93612356565b6001600093614dd5565b614e278484614e228c613638565b613b22565b614df6565b1614159050388881614dee565b61ffff929350614e5591614e4f614d3792612343565b90612319565b1614888d8b614db9565b508383161515614d8d565b5050935090614e7f614d3f614d378689612319565b10614f2357614e94614d3f614d378588612319565b90614eaa610e5f608f546001600160a01b031690565b6040516364faa15960e01b815230600482015260248101849052600060448201819052909591869060649082905afa948515611005578a614d7b610f0d866139126080614d629b8f97600091614f0a575b5001519a505050505090614d4d565b614f1d913d8091833e61261a81836108cc565b38614efb565b60046040517f9fda363d000000000000000000000000000000000000000000000000000000008152fd5b60046040517f3d04bd1f000000000000000000000000000000000000000000000000000000008152fd5b9350614f8b6096546001600160a01b031690565b80851615614f9a575b93614cba565b50614fa482613638565b614f94565b50637cc3c5ed60e11b6001600160e01b0319614fd16110b1614fcb8588612647565b906126a9565b1614614c83565b60046040517f79cf85c0000000000000000000000000000000000000000000000000000000008152fd5b919060408382031261032e57825167ffffffffffffffff811161032e5760209161502d918501612ee7565b92015190565b929190606084019084526020906060828601528251809152816080860193019160005b82811061506b57505050506040600091930152565b835161ffff1685529381019392810192600101615056565b92919261509b610e5f608f546001600160a01b031690565b9160409081519586947feaa19ab300000000000000000000000000000000000000000000000000000000865260009586918183816150dd888b60048401615033565b03925af180156110055785978691615175575b50968051955b8681106151065750505050505050565b8061511360019284612319565b5161511e8186613fc9565b61ffff61512e614d378489612319565b88518a81523360208201526001600160a01b0388169391909216917f598baf7bf150ca2f42be9e9f8f55e81d45f5715c3ff22bf46d697fabec7f31d690604090a4016150f6565b90506151949197503d8087833e61518c81836108cc565b810190615002565b969096386150f0565b6001600160a01b036007541633036151b157565b606460405162461bcd60e51b815260206004820152602060248201527f4f776e61626c653a2063616c6c6572206973206e6f7420746865206f776e65726044820152fd5b600754906001600160a01b0380911691826001600160a01b0319821617600755167f8be0079c531659141344cd1fd0a4f28419497f9722a3daafe3b4186f6b6457e0600080a3565b90438110156152f95761524f90615618565b90805491600063ffffffff8092165b8482106152a5575050508161527557506000919050565b61529a6152a19161528d6001600160e01b039461248b565b9060005260206000200190565b5460201c90565b1690565b9091938083169080841860011c8201809211612351578460005282866152d68460206000200163ffffffff90541690565b1611156152e75750935b919061525e565b9492506152f390612343565b916152e0565b606460405162461bcd60e51b815260206004820152602060248201527f436865636b706f696e74733a20626c6f636b206e6f7420796574206d696e65646044820152fd5b6001600160e01b0392918361535183615414565b169081018091116123515761536543615618565b918482116153825784928361537b9316916154fe565b9316921690565b608460405162461bcd60e51b815260206004820152602760248201527f53616665436173743a2076616c756520646f65736e27742066697420696e203260448201527f32342062697473000000000000000000000000000000000000000000000000006064820152fd5b6001600160e01b0392918361540083615414565b169081039081116123515761536543615618565b80546000918161542657505050600090565b6000199282848101116123515760209181522001015460201c90565b90815468010000000000000000811015610896576001810180845581101561231457600092835260209283902082519284015190931b63ffffffff191663ffffffff9290921691909117910155565b9060405161549e8161087a565b602081935463ffffffff81168352811c910152565b156154ba57565b606460405162461bcd60e51b815260206004820152601760248201527f436865636b706f696e743a20696e76616c6964206b65790000000000000000006044820152fd5b909291928382548015156000146155ed579260209291846155396155346155276128d79861248b565b8560005260206000200190565b615491565b93615548855163ffffffff1690565b61555f63ffffffff918284169283911611156154b3565b615579615570875163ffffffff1690565b63ffffffff1690565b036155b757506155a99261528d61558f9261248b565b9063ffffffff63ffffffff1983549260201b169116179055565b01516001600160e01b031690565b9150506155e8916155d56155c9610910565b63ffffffff9093168352565b6001600160e01b03881682860152615442565b6155a9565b5050615612916155fe6155c9610910565b6001600160e01b0385166020830152615442565b60009190565b63ffffffff90818111615629571690565b608460405162461bcd60e51b815260206004820152602660248201527f53616665436173743a2076616c756520646f65736e27742066697420696e203360448201527f32206269747300000000000000000000000000000000000000000000000000006064820152fd5b91906000198184098184029182808310920391808303921461572b57633b9aca0090818310156156f4577f88f2cfb83100cb4e69e7c79c58b316e597157d372fb9787e8e47ce423a2e9c6d94950990828211900360f71b910360091c170290565b60448383604051917f773cc18c00000000000000000000000000000000000000000000000000000000835260048301526024820152fd5b5050633b9aca009004915056fea2646970667358221220fe7d0361b320b6eaf72029bcc48575bdcfe617ded567fad28f3793ca830366ef64736f6c63430008140033",
    "linkReferences": {}
  },
  "methodIdentifiers": {
    "TOTAL_REDEMPTION_WEIGHT()": "640abacd",
    "approve(address,uint256)": "095ea7b3",
    "balanceOf(address)": "70a08231",
    "baseURI()": "6c0360eb",
    "codeOrigin()": "1d153ca4",
    "contractURI()": "e8a3d485",
    "defaultVotingDelegate()": "174e3e05",
    "didPay((address,uint256,uint256,(address,uint256,uint256,uint256),(address,uint256,uint256,uint256),uint256,address,bool,string,bytes))": "da9ee8b7",
    "didRedeem((address,uint256,uint256,uint256,(address,uint256,uint256,uint256),(address,uint256,uint256,uint256),address,string,bytes))": "2b13c58f",
    "directory()": "c41c2f24",
    "firstOwnerOf(uint256)": "54c6d1f5",
    "fundingCycleStore()": "557e7155",
    "gamePhaseReporter()": "a0b6490c",
    "getApproved(uint256)": "081812fc",
    "getPastTierTotalVotes(uint256,uint256)": "d31cc52c",
    "getPastTierVotes(address,uint256,uint256)": "d40e7146",
    "getTierDelegate(address,uint256)": "82732b6d",
    "getTierTotalVotes(uint256)": "94c5c5ca",
    "getTierVotes(address,uint256)": "ca323efe",
    "initialize(uint256,address,string,string,address,string,address,string,(uint104,uint32,uint32,uint16,address,bytes32,uint24,bool,bool,bool,bool)[],uint48,address,(bool,bool,bool,bool),address,address)": "25bccd66",
    "isApprovedForAll(address,address)": "e985e9c5",
    "mintReservesFor((uint256,uint256)[])": "2a596e53",
    "mintReservesFor(uint256,uint256)": "aa4fb15b",
    "name()": "06fdde03",
    "owner()": "8da5cb5b",
    "ownerOf(uint256)": "6352211e",
    "payParams((address,address,(address,uint256,uint256,uint256),uint256,uint256,address,uint256,uint256,string,bytes))": "d46cf171",
    "pricingCurrency()": "64640c1e",
    "projectId()": "3fafa127",
    "redeemParams((address,address,uint256,uint256,uint256,uint256,uint256,(address,uint256,uint256,uint256),bool,uint256,string,bytes))": "a51cfd18",
    "redemptionWeightIsSet()": "a8c15f4a",
    "redemptionWeightOf(uint256)": "4f228e11",
    "redemptionWeightOf(uint256[],(address,address,uint256,uint256,uint256,uint256,uint256,(address,uint256,uint256,uint256),bool,uint256,string,bytes))": "7ba62bf9",
    "renounceOwnership()": "715018a6",
    "safeTransferFrom(address,address,uint256)": "42842e0e",
    "safeTransferFrom(address,address,uint256,bytes)": "b88d4fde",
    "setApprovalForAll(address,bool)": "a22cb465",
    "setTierDelegate(address,uint256)": "ab951e39",
    "setTierDelegates((address,uint256)[])": "c74b13d9",
    "setTierRedemptionWeights((uint256,uint256)[])": "2f441500",
    "store()": "975057e7",
    "supportsInterface(bytes4)": "01ffc9a7",
    "symbol()": "95d89b41",
    "tierRedemptionWeights()": "9df45468",
    "tokenURI(uint256)": "c87b56dd",
    "totalRedemptionWeight((address,address,uint256,uint256,uint256,uint256,uint256,(address,uint256,uint256,uint256),bool,uint256,string,bytes))": "9494bf72",
    "transferFrom(address,address,uint256)": "23b872dd",
    "transferOwnership(address)": "f2fde38b"
  },
  "id": 0
}