{
  "abi": [
    {
      "inputs": [],
      "stateMutability": "nonpayable",
      "type": "constructor"
    },
    {
      "inputs": [],
      "name": "ALEADY_MINTED",
      "type": "error"
    },
    {
      "inputs": [],
      "name": "APPROVAL_TO_CURRENT_OWNER",
      "type": "error"
    },
    {
      "inputs": [],
      "name": "APPROVE_TO_CALLER",
      "type": "error"
    },
    {
      "inputs": [],
      "name": "BAD_TIER_ORDER",
      "type": "error"
    },
    {
      "inputs": [],
      "name": "BLOCK_NOT_YET_MINED",
      "type": "error"
    },
    {
      "inputs": [],
      "name": "CALLER_NOT_OWNER_OR_APPROVED",
      "type": "error"
    },
    {
      "inputs": [],
      "name": "DELEGATE_ADDRESS_ZERO",
      "type": "error"
    },
    {
      "inputs": [],
      "name": "GAME_ISNT_OVER_YET",
      "type": "error"
    },
    {
      "inputs": [],
      "name": "INCORRECT_OWNER",
      "type": "error"
    },
    {
      "inputs": [],
      "name": "INVALID_PAYMENT_EVENT",
      "type": "error"
    },
    {
      "inputs": [],
      "name": "INVALID_REDEMPTION_EVENT",
      "type": "error"
    },
    {
      "inputs": [],
      "name": "INVALID_REDEMPTION_METADATA",
      "type": "error"
    },
    {
      "inputs": [],
      "name": "INVALID_REDEMPTION_WEIGHTS",
      "type": "error"
    },
    {
      "inputs": [],
      "name": "INVALID_TIER_ID",
      "type": "error"
    },
    {
      "inputs": [],
      "name": "INVALID_TOKEN_ID",
      "type": "error"
    },
    {
      "inputs": [],
      "name": "MINT_TO_ZERO",
      "type": "error"
    },
    {
      "inputs": [],
      "name": "NOTHING_TO_CLAIM",
      "type": "error"
    },
    {
      "inputs": [],
      "name": "NOTHING_TO_MINT",
      "type": "error"
    },
    {
      "inputs": [],
      "name": "NOT_AVAILABLE",
      "type": "error"
    },
    {
      "inputs": [],
      "name": "NO_CONTEST",
      "type": "error"
    },
    {
      "inputs": [],
      "name": "OVERSPENDING",
      "type": "error"
    },
    {
      "inputs": [
        {
          "internalType": "uint256",
          "name": "prod1",
          "type": "uint256"
        },
        {
          "internalType": "uint256",
          "name": "denominator",
          "type": "uint256"
        }
      ],
      "name": "PRBMath__MulDivOverflow",
      "type": "error"
    },
    {
      "inputs": [],
      "name": "PRICING_RESOLVER_CHANGES_PAUSED",
      "type": "error"
    },
    {
      "inputs": [],
      "name": "REDEMPTION_WEIGHTS_ALREADY_SET",
      "type": "error"
    },
    {
      "inputs": [],
      "name": "RESERVED_TOKEN_MINTING_PAUSED",
      "type": "error"
    },
    {
      "inputs": [],
      "name": "TRANSFERS_PAUSED",
      "type": "error"
    },
    {
      "inputs": [],
      "name": "TRANSFER_TO_NON_IMPLEMENTER",
      "type": "error"
    },
    {
      "inputs": [],
      "name": "TRANSFER_TO_ZERO_ADDRESS",
      "type": "error"
    },
    {
      "inputs": [],
      "name": "UNAUTHORIZED",
      "type": "error"
    },
    {
      "inputs": [
        {
          "internalType": "uint256",
          "name": "_tokenId",
          "type": "uint256"
        }
      ],
      "name": "UNAUTHORIZED_TOKEN",
      "type": "error"
    },
    {
      "inputs": [],
      "name": "UNEXPECTED_TOKEN_REDEEMED",
      "type": "error"
    },
    {
      "inputs": [],
      "name": "WRONG_CURRENCY",
      "type": "error"
    },
    {
      "anonymous": false,
      "inputs": [
        {
          "indexed": true,
          "internalType": "address",
          "name": "owner",
          "type": "address"
        },
        {
          "indexed": true,
          "internalType": "address",
          "name": "approved",
          "type": "address"
        },
        {
          "indexed": true,
          "internalType": "uint256",
          "name": "tokenId",
          "type": "uint256"
        }
      ],
      "name": "Approval",
      "type": "event"
    },
    {
      "anonymous": false,
      "inputs": [
        {
          "indexed": true,
          "internalType": "address",
          "name": "owner",
          "type": "address"
        },
        {
          "indexed": true,
          "internalType": "address",
          "name": "operator",
          "type": "address"
        },
        {
          "indexed": false,
          "internalType": "bool",
          "name": "approved",
          "type": "bool"
        }
      ],
      "name": "ApprovalForAll",
      "type": "event"
    },
    {
      "anonymous": false,
      "inputs": [
        {
          "indexed": true,
          "internalType": "address",
          "name": "delegator",
          "type": "address"
        },
        {
          "indexed": true,
          "internalType": "address",
          "name": "fromDelegate",
          "type": "address"
        },
        {
          "indexed": true,
          "internalType": "address",
          "name": "toDelegate",
          "type": "address"
        }
      ],
      "name": "DelegateChanged",
      "type": "event"
    },
    {
      "anonymous": false,
      "inputs": [
        {
          "indexed": true,
          "internalType": "uint256",
          "name": "tokenId",
          "type": "uint256"
        },
        {
          "indexed": true,
          "internalType": "uint256",
          "name": "tierId",
          "type": "uint256"
        },
        {
          "indexed": true,
          "internalType": "address",
          "name": "beneficiary",
          "type": "address"
        },
        {
          "indexed": false,
          "internalType": "uint256",
          "name": "totalAmountContributed",
          "type": "uint256"
        },
        {
          "indexed": false,
          "internalType": "address",
          "name": "caller",
          "type": "address"
        }
      ],
      "name": "Mint",
      "type": "event"
    },
    {
      "anonymous": false,
      "inputs": [
        {
          "indexed": true,
          "internalType": "uint256",
          "name": "tokenId",
          "type": "uint256"
        },
        {
          "indexed": true,
          "internalType": "uint256",
          "name": "tierId",
          "type": "uint256"
        },
        {
          "indexed": true,
          "internalType": "address",
          "name": "beneficiary",
          "type": "address"
        },
        {
          "indexed": false,
          "internalType": "address",
          "name": "caller",
          "type": "address"
        }
      ],
      "name": "MintReservedToken",
      "type": "event"
    },
    {
      "anonymous": false,
      "inputs": [
        {
          "indexed": true,
          "internalType": "address",
          "name": "previousOwner",
          "type": "address"
        },
        {
          "indexed": true,
          "internalType": "address",
          "name": "newOwner",
          "type": "address"
        }
      ],
      "name": "OwnershipTransferred",
      "type": "event"
    },
    {
      "anonymous": false,
      "inputs": [
        {
          "indexed": true,
          "internalType": "address",
          "name": "delegate",
          "type": "address"
        },
        {
          "indexed": true,
          "internalType": "uint256",
          "name": "tierId",
          "type": "uint256"
        },
        {
          "indexed": false,
          "internalType": "uint256",
          "name": "previousBalance",
          "type": "uint256"
        },
        {
          "indexed": false,
          "internalType": "uint256",
          "name": "newBalance",
          "type": "uint256"
        },
        {
          "indexed": false,
          "internalType": "address",
          "name": "caller",
          "type": "address"
        }
      ],
      "name": "TierDelegateVotesChanged",
      "type": "event"
    },
    {
      "anonymous": false,
      "inputs": [
        {
          "indexed": true,
          "internalType": "address",
          "name": "from",
          "type": "address"
        },
        {
          "indexed": true,
          "internalType": "address",
          "name": "to",
          "type": "address"
        },
        {
          "indexed": true,
          "internalType": "uint256",
          "name": "tokenId",
          "type": "uint256"
        }
      ],
      "name": "Transfer",
      "type": "event"
    },
    {
      "inputs": [],
      "name": "TOTAL_REDEMPTION_WEIGHT",
      "outputs": [
        {
          "internalType": "uint256",
          "name": "",
          "type": "uint256"
        }
      ],
      "stateMutability": "view",
      "type": "function"
    },
    {
      "inputs": [
        {
          "internalType": "address",
          "name": "to",
          "type": "address"
        },
        {
          "internalType": "uint256",
          "name": "tokenId",
          "type": "uint256"
        }
      ],
      "name": "approve",
      "outputs": [],
      "stateMutability": "nonpayable",
      "type": "function"
    },
    {
      "inputs": [
        {
          "internalType": "address",
          "name": "_owner",
          "type": "address"
        }
      ],
      "name": "balanceOf",
      "outputs": [
        {
          "internalType": "uint256",
          "name": "balance",
          "type": "uint256"
        }
      ],
      "stateMutability": "view",
      "type": "function"
    },
    {
      "inputs": [],
      "name": "baseURI",
      "outputs": [
        {
          "internalType": "string",
          "name": "",
          "type": "string"
        }
      ],
      "stateMutability": "view",
      "type": "function"
    },
    {
      "inputs": [],
      "name": "codeOrigin",
      "outputs": [
        {
          "internalType": "address",
          "name": "",
          "type": "address"
        }
      ],
      "stateMutability": "view",
      "type": "function"
    },
    {
      "inputs": [],
      "name": "contractURI",
      "outputs": [
        {
          "internalType": "string",
          "name": "",
          "type": "string"
        }
      ],
      "stateMutability": "view",
      "type": "function"
    },
    {
      "inputs": [
        {
          "components": [
            {
              "internalType": "address",
              "name": "payer",
              "type": "address"
            },
            {
              "internalType": "uint256",
              "name": "projectId",
              "type": "uint256"
            },
            {
              "internalType": "uint256",
              "name": "currentFundingCycleConfiguration",
              "type": "uint256"
            },
            {
              "components": [
                {
                  "internalType": "address",
                  "name": "token",
                  "type": "address"
                },
                {
                  "internalType": "uint256",
                  "name": "value",
                  "type": "uint256"
                },
                {
                  "internalType": "uint256",
                  "name": "decimals",
                  "type": "uint256"
                },
                {
                  "internalType": "uint256",
                  "name": "currency",
                  "type": "uint256"
                }
              ],
              "internalType": "struct JBTokenAmount",
              "name": "amount",
              "type": "tuple"
            },
            {
              "components": [
                {
                  "internalType": "address",
                  "name": "token",
                  "type": "address"
                },
                {
                  "internalType": "uint256",
                  "name": "value",
                  "type": "uint256"
                },
                {
                  "internalType": "uint256",
                  "name": "decimals",
                  "type": "uint256"
                },
                {
                  "internalType": "uint256",
                  "name": "currency",
                  "type": "uint256"
                }
              ],
              "internalType": "struct JBTokenAmount",
              "name": "forwardedAmount",
              "type": "tuple"
            },
            {
              "internalType": "uint256",
              "name": "projectTokenCount",
              "type": "uint256"
            },
            {
              "internalType": "address",
              "name": "beneficiary",
              "type": "address"
            },
            {
              "internalType": "bool",
              "name": "preferClaimedTokens",
              "type": "bool"
            },
            {
              "internalType": "string",
              "name": "memo",
              "type": "string"
            },
            {
              "internalType": "bytes",
              "name": "metadata",
              "type": "bytes"
            }
          ],
          "internalType": "struct JBDidPayData",
          "name": "_data",
          "type": "tuple"
        }
      ],
      "name": "didPay",
      "outputs": [],
      "stateMutability": "payable",
      "type": "function"
    },
    {
      "inputs": [
        {
          "components": [
            {
              "internalType": "address",
              "name": "holder",
              "type": "address"
            },
            {
              "internalType": "uint256",
              "name": "projectId",
              "type": "uint256"
            },
            {
              "internalType": "uint256",
              "name": "currentFundingCycleConfiguration",
              "type": "uint256"
            },
            {
              "internalType": "uint256",
              "name": "projectTokenCount",
              "type": "uint256"
            },
            {
              "components": [
                {
                  "internalType": "address",
                  "name": "token",
                  "type": "address"
                },
                {
                  "internalType": "uint256",
                  "name": "value",
                  "type": "uint256"
                },
                {
                  "internalType": "uint256",
                  "name": "decimals",
                  "type": "uint256"
                },
                {
                  "internalType": "uint256",
                  "name": "currency",
                  "type": "uint256"
                }
              ],
              "internalType": "struct JBTokenAmount",
              "name": "reclaimedAmount",
              "type": "tuple"
            },
            {
              "components": [
                {
                  "internalType": "address",
                  "name": "token",
                  "type": "address"
                },
                {
                  "internalType": "uint256",
                  "name": "value",
                  "type": "uint256"
                },
                {
                  "internalType": "uint256",
                  "name": "decimals",
                  "type": "uint256"
                },
                {
                  "internalType": "uint256",
                  "name": "currency",
                  "type": "uint256"
                }
              ],
              "internalType": "struct JBTokenAmount",
              "name": "forwardedAmount",
              "type": "tuple"
            },
            {
              "internalType": "address payable",
              "name": "beneficiary",
              "type": "address"
            },
            {
              "internalType": "string",
              "name": "memo",
              "type": "string"
            },
            {
              "internalType": "bytes",
              "name": "metadata",
              "type": "bytes"
            }
          ],
          "internalType": "struct JBDidRedeemData",
          "name": "_data",
          "type": "tuple"
        }
      ],
      "name": "didRedeem",
      "outputs": [],
      "stateMutability": "payable",
      "type": "function"
    },
    {
      "inputs": [],
      "name": "directory",
      "outputs": [
        {
          "internalType": "contract IJBDirectory",
          "name": "",
          "type": "address"
        }
      ],
      "stateMutability": "view",
      "type": "function"
    },
    {
      "inputs": [
        {
          "internalType": "uint256",
          "name": "_tokenId",
          "type": "uint256"
        }
      ],
      "name": "firstOwnerOf",
      "outputs": [
        {
          "internalType": "address",
          "name": "",
          "type": "address"
        }
      ],
      "stateMutability": "view",
      "type": "function"
    },
    {
      "inputs": [],
      "name": "fundingCycleStore",
      "outputs": [
        {
          "internalType": "contract IJBFundingCycleStore",
          "name": "",
          "type": "address"
        }
      ],
      "stateMutability": "view",
      "type": "function"
    },
    {
      "inputs": [
        {
          "internalType": "uint256",
          "name": "tokenId",
          "type": "uint256"
        }
      ],
      "name": "getApproved",
      "outputs": [
        {
          "internalType": "address",
          "name": "",
          "type": "address"
        }
      ],
      "stateMutability": "view",
      "type": "function"
    },
    {
      "inputs": [
        {
          "internalType": "uint256",
          "name": "_tier",
          "type": "uint256"
        },
        {
          "internalType": "uint256",
          "name": "_blockNumber",
          "type": "uint256"
        }
      ],
      "name": "getPastTierTotalVotes",
      "outputs": [
        {
          "internalType": "uint256",
          "name": "",
          "type": "uint256"
        }
      ],
      "stateMutability": "view",
      "type": "function"
    },
    {
      "inputs": [
        {
          "internalType": "address",
          "name": "_account",
          "type": "address"
        },
        {
          "internalType": "uint256",
          "name": "_tier",
          "type": "uint256"
        },
        {
          "internalType": "uint256",
          "name": "_blockNumber",
          "type": "uint256"
        }
      ],
      "name": "getPastTierVotes",
      "outputs": [
        {
          "internalType": "uint256",
          "name": "",
          "type": "uint256"
        }
      ],
      "stateMutability": "view",
      "type": "function"
    },
    {
      "inputs": [
        {
          "internalType": "address",
          "name": "_account",
          "type": "address"
        },
        {
          "internalType": "uint256",
          "name": "_tier",
          "type": "uint256"
        }
      ],
      "name": "getTierDelegate",
      "outputs": [
        {
          "internalType": "address",
          "name": "",
          "type": "address"
        }
      ],
      "stateMutability": "view",
      "type": "function"
    },
    {
      "inputs": [
        {
          "internalType": "uint256",
          "name": "_tier",
          "type": "uint256"
        }
      ],
      "name": "getTierTotalVotes",
      "outputs": [
        {
          "internalType": "uint256",
          "name": "",
          "type": "uint256"
        }
      ],
      "stateMutability": "view",
      "type": "function"
    },
    {
      "inputs": [
        {
          "internalType": "address",
          "name": "_account",
          "type": "address"
        },
        {
          "internalType": "uint256",
          "name": "_tier",
          "type": "uint256"
        }
      ],
      "name": "getTierVotes",
      "outputs": [
        {
          "internalType": "uint256",
          "name": "",
          "type": "uint256"
        }
      ],
      "stateMutability": "view",
      "type": "function"
    },
    {
      "inputs": [
        {
          "internalType": "uint256",
          "name": "_gameId",
          "type": "uint256"
        },
        {
          "internalType": "contract IJBDirectory",
          "name": "_directory",
          "type": "address"
        },
        {
          "internalType": "string",
          "name": "_name",
          "type": "string"
        },
        {
          "internalType": "string",
          "name": "_symbol",
          "type": "string"
        },
        {
          "internalType": "contract IJBFundingCycleStore",
          "name": "_fundingCycleStore",
          "type": "address"
        },
        {
          "internalType": "string",
          "name": "_baseUri",
          "type": "string"
        },
        {
          "internalType": "contract IJBTokenUriResolver",
          "name": "_tokenUriResolver",
          "type": "address"
        },
        {
          "internalType": "string",
          "name": "_contractUri",
          "type": "string"
        },
        {
          "components": [
            {
              "internalType": "uint104",
              "name": "price",
              "type": "uint104"
            },
            {
              "internalType": "uint32",
              "name": "initialQuantity",
              "type": "uint32"
            },
            {
              "internalType": "uint32",
              "name": "votingUnits",
              "type": "uint32"
            },
            {
              "internalType": "uint16",
              "name": "reservedRate",
              "type": "uint16"
            },
            {
              "internalType": "address",
              "name": "reservedTokenBeneficiary",
              "type": "address"
            },
            {
              "internalType": "bytes32",
              "name": "encodedIPFSUri",
              "type": "bytes32"
            },
            {
              "internalType": "uint24",
              "name": "category",
              "type": "uint24"
            },
            {
              "internalType": "bool",
              "name": "allowManualMint",
              "type": "bool"
            },
            {
              "internalType": "bool",
              "name": "shouldUseReservedTokenBeneficiaryAsDefault",
              "type": "bool"
            },
            {
              "internalType": "bool",
              "name": "transfersPausable",
              "type": "bool"
            },
            {
              "internalType": "bool",
              "name": "useVotingUnits",
              "type": "bool"
            }
          ],
          "internalType": "struct JB721TierParams[]",
          "name": "_tiers",
          "type": "tuple[]"
        },
        {
          "internalType": "uint48",
          "name": "_currency",
          "type": "uint48"
        },
        {
          "internalType": "contract IJBTiered721DelegateStore",
          "name": "_store",
          "type": "address"
        },
        {
          "components": [
            {
              "internalType": "bool",
              "name": "lockReservedTokenChanges",
              "type": "bool"
            },
            {
              "internalType": "bool",
              "name": "lockVotingUnitChanges",
              "type": "bool"
            },
            {
              "internalType": "bool",
              "name": "lockManualMintingChanges",
              "type": "bool"
            },
            {
              "internalType": "bool",
              "name": "preventOverspending",
              "type": "bool"
            }
          ],
          "internalType": "struct JBTiered721Flags",
          "name": "_flags",
          "type": "tuple"
        },
        {
          "internalType": "contract IDefifaNoContestReporter",
          "name": "_noContestReporter",
          "type": "address"
        }
      ],
      "name": "initialize",
      "outputs": [],
      "stateMutability": "nonpayable",
      "type": "function"
    },
    {
      "inputs": [
        {
          "internalType": "address",
          "name": "owner",
          "type": "address"
        },
        {
          "internalType": "address",
          "name": "operator",
          "type": "address"
        }
      ],
      "name": "isApprovedForAll",
      "outputs": [
        {
          "internalType": "bool",
          "name": "",
          "type": "bool"
        }
      ],
      "stateMutability": "view",
      "type": "function"
    },
    {
      "inputs": [
        {
          "components": [
            {
              "internalType": "uint256",
              "name": "tierId",
              "type": "uint256"
            },
            {
              "internalType": "uint256",
              "name": "count",
              "type": "uint256"
            }
          ],
          "internalType": "struct JBTiered721MintReservesForTiersData[]",
          "name": "_mintReservesForTiersData",
          "type": "tuple[]"
        }
      ],
      "name": "mintReservesFor",
      "outputs": [],
      "stateMutability": "nonpayable",
      "type": "function"
    },
    {
      "inputs": [
        {
          "internalType": "uint256",
          "name": "_tierId",
          "type": "uint256"
        },
        {
          "internalType": "uint256",
          "name": "_count",
          "type": "uint256"
        }
      ],
      "name": "mintReservesFor",
      "outputs": [],
      "stateMutability": "nonpayable",
      "type": "function"
    },
    {
      "inputs": [],
      "name": "name",
      "outputs": [
        {
          "internalType": "string",
          "name": "",
          "type": "string"
        }
      ],
      "stateMutability": "view",
      "type": "function"
    },
    {
      "inputs": [],
      "name": "noContestReporter",
      "outputs": [
        {
          "internalType": "contract IDefifaNoContestReporter",
          "name": "",
          "type": "address"
        }
      ],
      "stateMutability": "view",
      "type": "function"
    },
    {
      "inputs": [],
      "name": "owner",
      "outputs": [
        {
          "internalType": "address",
          "name": "",
          "type": "address"
        }
      ],
      "stateMutability": "view",
      "type": "function"
    },
    {
      "inputs": [
        {
          "internalType": "uint256",
          "name": "tokenId",
          "type": "uint256"
        }
      ],
      "name": "ownerOf",
      "outputs": [
        {
          "internalType": "address",
          "name": "",
          "type": "address"
        }
      ],
      "stateMutability": "view",
      "type": "function"
    },
    {
      "inputs": [
        {
          "components": [
            {
              "internalType": "contract IJBPaymentTerminal",
              "name": "terminal",
              "type": "address"
            },
            {
              "internalType": "address",
              "name": "payer",
              "type": "address"
            },
            {
              "components": [
                {
                  "internalType": "address",
                  "name": "token",
                  "type": "address"
                },
                {
                  "internalType": "uint256",
                  "name": "value",
                  "type": "uint256"
                },
                {
                  "internalType": "uint256",
                  "name": "decimals",
                  "type": "uint256"
                },
                {
                  "internalType": "uint256",
                  "name": "currency",
                  "type": "uint256"
                }
              ],
              "internalType": "struct JBTokenAmount",
              "name": "amount",
              "type": "tuple"
            },
            {
              "internalType": "uint256",
              "name": "projectId",
              "type": "uint256"
            },
            {
              "internalType": "uint256",
              "name": "currentFundingCycleConfiguration",
              "type": "uint256"
            },
            {
              "internalType": "address",
              "name": "beneficiary",
              "type": "address"
            },
            {
              "internalType": "uint256",
              "name": "weight",
              "type": "uint256"
            },
            {
              "internalType": "uint256",
              "name": "reservedRate",
              "type": "uint256"
            },
            {
              "internalType": "string",
              "name": "memo",
              "type": "string"
            },
            {
              "internalType": "bytes",
              "name": "metadata",
              "type": "bytes"
            }
          ],
          "internalType": "struct JBPayParamsData",
          "name": "_data",
          "type": "tuple"
        }
      ],
      "name": "payParams",
      "outputs": [
        {
          "internalType": "uint256",
          "name": "weight",
          "type": "uint256"
        },
        {
          "internalType": "string",
          "name": "memo",
          "type": "string"
        },
        {
          "components": [
            {
              "internalType": "contract IJBPayDelegate",
              "name": "delegate",
              "type": "address"
            },
            {
              "internalType": "uint256",
              "name": "amount",
              "type": "uint256"
            }
          ],
          "internalType": "struct JBPayDelegateAllocation[]",
          "name": "delegateAllocations",
          "type": "tuple[]"
        }
      ],
      "stateMutability": "view",
      "type": "function"
    },
    {
      "inputs": [],
      "name": "pricingCurrency",
      "outputs": [
        {
          "internalType": "uint256",
          "name": "",
          "type": "uint256"
        }
      ],
      "stateMutability": "view",
      "type": "function"
    },
    {
      "inputs": [],
      "name": "projectId",
      "outputs": [
        {
          "internalType": "uint256",
          "name": "",
          "type": "uint256"
        }
      ],
      "stateMutability": "view",
      "type": "function"
    },
    {
      "inputs": [
        {
          "components": [
            {
              "internalType": "contract IJBPaymentTerminal",
              "name": "terminal",
              "type": "address"
            },
            {
              "internalType": "address",
              "name": "holder",
              "type": "address"
            },
            {
              "internalType": "uint256",
              "name": "projectId",
              "type": "uint256"
            },
            {
              "internalType": "uint256",
              "name": "currentFundingCycleConfiguration",
              "type": "uint256"
            },
            {
              "internalType": "uint256",
              "name": "tokenCount",
              "type": "uint256"
            },
            {
              "internalType": "uint256",
              "name": "totalSupply",
              "type": "uint256"
            },
            {
              "internalType": "uint256",
              "name": "overflow",
              "type": "uint256"
            },
            {
              "components": [
                {
                  "internalType": "address",
                  "name": "token",
                  "type": "address"
                },
                {
                  "internalType": "uint256",
                  "name": "value",
                  "type": "uint256"
                },
                {
                  "internalType": "uint256",
                  "name": "decimals",
                  "type": "uint256"
                },
                {
                  "internalType": "uint256",
                  "name": "currency",
                  "type": "uint256"
                }
              ],
              "internalType": "struct JBTokenAmount",
              "name": "reclaimAmount",
              "type": "tuple"
            },
            {
              "internalType": "bool",
              "name": "useTotalOverflow",
              "type": "bool"
            },
            {
              "internalType": "uint256",
              "name": "redemptionRate",
              "type": "uint256"
            },
            {
              "internalType": "string",
              "name": "memo",
              "type": "string"
            },
            {
              "internalType": "bytes",
              "name": "metadata",
              "type": "bytes"
            }
          ],
          "internalType": "struct JBRedeemParamsData",
          "name": "_data",
          "type": "tuple"
        }
      ],
      "name": "redeemParams",
      "outputs": [
        {
          "internalType": "uint256",
          "name": "reclaimAmount",
          "type": "uint256"
        },
        {
          "internalType": "string",
          "name": "memo",
          "type": "string"
        },
        {
          "components": [
            {
              "internalType": "contract IJBRedemptionDelegate",
              "name": "delegate",
              "type": "address"
            },
            {
              "internalType": "uint256",
              "name": "amount",
              "type": "uint256"
            }
          ],
          "internalType": "struct JBRedemptionDelegateAllocation[]",
          "name": "delegateAllocations",
          "type": "tuple[]"
        }
      ],
      "stateMutability": "view",
      "type": "function"
    },
    {
      "inputs": [],
      "name": "redemptionWeightIsSet",
      "outputs": [
        {
          "internalType": "bool",
          "name": "",
          "type": "bool"
        }
      ],
      "stateMutability": "view",
      "type": "function"
    },
    {
      "inputs": [
        {
          "internalType": "uint256",
          "name": "_tokenId",
          "type": "uint256"
        }
      ],
      "name": "redemptionWeightOf",
      "outputs": [
        {
          "internalType": "uint256",
          "name": "",
          "type": "uint256"
        }
      ],
      "stateMutability": "view",
      "type": "function"
    },
    {
      "inputs": [
        {
          "internalType": "uint256[]",
          "name": "_tokenIds",
          "type": "uint256[]"
        },
        {
          "components": [
            {
              "internalType": "contract IJBPaymentTerminal",
              "name": "terminal",
              "type": "address"
            },
            {
              "internalType": "address",
              "name": "holder",
              "type": "address"
            },
            {
              "internalType": "uint256",
              "name": "projectId",
              "type": "uint256"
            },
            {
              "internalType": "uint256",
              "name": "currentFundingCycleConfiguration",
              "type": "uint256"
            },
            {
              "internalType": "uint256",
              "name": "tokenCount",
              "type": "uint256"
            },
            {
              "internalType": "uint256",
              "name": "totalSupply",
              "type": "uint256"
            },
            {
              "internalType": "uint256",
              "name": "overflow",
              "type": "uint256"
            },
            {
              "components": [
                {
                  "internalType": "address",
                  "name": "token",
                  "type": "address"
                },
                {
                  "internalType": "uint256",
                  "name": "value",
                  "type": "uint256"
                },
                {
                  "internalType": "uint256",
                  "name": "decimals",
                  "type": "uint256"
                },
                {
                  "internalType": "uint256",
                  "name": "currency",
                  "type": "uint256"
                }
              ],
              "internalType": "struct JBTokenAmount",
              "name": "reclaimAmount",
              "type": "tuple"
            },
            {
              "internalType": "bool",
              "name": "useTotalOverflow",
              "type": "bool"
            },
            {
              "internalType": "uint256",
              "name": "redemptionRate",
              "type": "uint256"
            },
            {
              "internalType": "string",
              "name": "memo",
              "type": "string"
            },
            {
              "internalType": "bytes",
              "name": "metadata",
              "type": "bytes"
            }
          ],
          "internalType": "struct JBRedeemParamsData",
          "name": "",
          "type": "tuple"
        }
      ],
      "name": "redemptionWeightOf",
      "outputs": [
        {
          "internalType": "uint256",
          "name": "cumulativeWeight",
          "type": "uint256"
        }
      ],
      "stateMutability": "view",
      "type": "function"
    },
    {
      "inputs": [],
      "name": "renounceOwnership",
      "outputs": [],
      "stateMutability": "nonpayable",
      "type": "function"
    },
    {
      "inputs": [
        {
          "internalType": "address",
          "name": "from",
          "type": "address"
        },
        {
          "internalType": "address",
          "name": "to",
          "type": "address"
        },
        {
          "internalType": "uint256",
          "name": "tokenId",
          "type": "uint256"
        }
      ],
      "name": "safeTransferFrom",
      "outputs": [],
      "stateMutability": "nonpayable",
      "type": "function"
    },
    {
      "inputs": [
        {
          "internalType": "address",
          "name": "from",
          "type": "address"
        },
        {
          "internalType": "address",
          "name": "to",
          "type": "address"
        },
        {
          "internalType": "uint256",
          "name": "tokenId",
          "type": "uint256"
        },
        {
          "internalType": "bytes",
          "name": "data",
          "type": "bytes"
        }
      ],
      "name": "safeTransferFrom",
      "outputs": [],
      "stateMutability": "nonpayable",
      "type": "function"
    },
    {
      "inputs": [
        {
          "internalType": "address",
          "name": "operator",
          "type": "address"
        },
        {
          "internalType": "bool",
          "name": "approved",
          "type": "bool"
        }
      ],
      "name": "setApprovalForAll",
      "outputs": [],
      "stateMutability": "nonpayable",
      "type": "function"
    },
    {
      "inputs": [
        {
          "internalType": "address",
          "name": "_delegatee",
          "type": "address"
        },
        {
          "internalType": "uint256",
          "name": "_tierId",
          "type": "uint256"
        }
      ],
      "name": "setTierDelegate",
      "outputs": [],
      "stateMutability": "nonpayable",
      "type": "function"
    },
    {
      "inputs": [
        {
          "components": [
            {
              "internalType": "address",
              "name": "delegatee",
              "type": "address"
            },
            {
              "internalType": "uint256",
              "name": "tierId",
              "type": "uint256"
            }
          ],
          "internalType": "struct JBTiered721SetTierDelegatesData[]",
          "name": "_setTierDelegatesData",
          "type": "tuple[]"
        }
      ],
      "name": "setTierDelegates",
      "outputs": [],
      "stateMutability": "nonpayable",
      "type": "function"
    },
    {
      "inputs": [
        {
          "components": [
            {
              "internalType": "uint256",
              "name": "id",
              "type": "uint256"
            },
            {
              "internalType": "uint256",
              "name": "redemptionWeight",
              "type": "uint256"
            }
          ],
          "internalType": "struct DefifaTierRedemptionWeight[]",
          "name": "_tierWeights",
          "type": "tuple[]"
        }
      ],
      "name": "setTierRedemptionWeights",
      "outputs": [],
      "stateMutability": "nonpayable",
      "type": "function"
    },
    {
      "inputs": [],
      "name": "store",
      "outputs": [
        {
          "internalType": "contract IJBTiered721DelegateStore",
          "name": "",
          "type": "address"
        }
      ],
      "stateMutability": "view",
      "type": "function"
    },
    {
      "inputs": [
        {
          "internalType": "bytes4",
          "name": "_interfaceId",
          "type": "bytes4"
        }
      ],
      "name": "supportsInterface",
      "outputs": [
        {
          "internalType": "bool",
          "name": "",
          "type": "bool"
        }
      ],
      "stateMutability": "view",
      "type": "function"
    },
    {
      "inputs": [],
      "name": "symbol",
      "outputs": [
        {
          "internalType": "string",
          "name": "",
          "type": "string"
        }
      ],
      "stateMutability": "view",
      "type": "function"
    },
    {
      "inputs": [],
      "name": "tierRedemptionWeights",
      "outputs": [
        {
          "internalType": "uint256[128]",
          "name": "",
          "type": "uint256[128]"
        }
      ],
      "stateMutability": "view",
      "type": "function"
    },
    {
      "inputs": [
        {
          "internalType": "uint256",
          "name": "_tokenId",
          "type": "uint256"
        }
      ],
      "name": "tokenURI",
      "outputs": [
        {
          "internalType": "string",
          "name": "",
          "type": "string"
        }
      ],
      "stateMutability": "view",
      "type": "function"
    },
    {
      "inputs": [
        {
          "components": [
            {
              "internalType": "contract IJBPaymentTerminal",
              "name": "terminal",
              "type": "address"
            },
            {
              "internalType": "address",
              "name": "holder",
              "type": "address"
            },
            {
              "internalType": "uint256",
              "name": "projectId",
              "type": "uint256"
            },
            {
              "internalType": "uint256",
              "name": "currentFundingCycleConfiguration",
              "type": "uint256"
            },
            {
              "internalType": "uint256",
              "name": "tokenCount",
              "type": "uint256"
            },
            {
              "internalType": "uint256",
              "name": "totalSupply",
              "type": "uint256"
            },
            {
              "internalType": "uint256",
              "name": "overflow",
              "type": "uint256"
            },
            {
              "components": [
                {
                  "internalType": "address",
                  "name": "token",
                  "type": "address"
                },
                {
                  "internalType": "uint256",
                  "name": "value",
                  "type": "uint256"
                },
                {
                  "internalType": "uint256",
                  "name": "decimals",
                  "type": "uint256"
                },
                {
                  "internalType": "uint256",
                  "name": "currency",
                  "type": "uint256"
                }
              ],
              "internalType": "struct JBTokenAmount",
              "name": "reclaimAmount",
              "type": "tuple"
            },
            {
              "internalType": "bool",
              "name": "useTotalOverflow",
              "type": "bool"
            },
            {
              "internalType": "uint256",
              "name": "redemptionRate",
              "type": "uint256"
            },
            {
              "internalType": "string",
              "name": "memo",
              "type": "string"
            },
            {
              "internalType": "bytes",
              "name": "metadata",
              "type": "bytes"
            }
          ],
          "internalType": "struct JBRedeemParamsData",
          "name": "",
          "type": "tuple"
        }
      ],
      "name": "totalRedemptionWeight",
      "outputs": [
        {
          "internalType": "uint256",
          "name": "",
          "type": "uint256"
        }
      ],
      "stateMutability": "view",
      "type": "function"
    },
    {
      "inputs": [
        {
          "internalType": "address",
          "name": "from",
          "type": "address"
        },
        {
          "internalType": "address",
          "name": "to",
          "type": "address"
        },
        {
          "internalType": "uint256",
          "name": "tokenId",
          "type": "uint256"
        }
      ],
      "name": "transferFrom",
      "outputs": [],
      "stateMutability": "nonpayable",
      "type": "function"
    },
    {
      "inputs": [
        {
          "internalType": "address",
          "name": "newOwner",
          "type": "address"
        }
      ],
      "name": "transferOwnership",
      "outputs": [],
      "stateMutability": "nonpayable",
      "type": "function"
    }
  ],
  "bytecode": {
    "object": "0x60a0806040523461006e5760078054336001600160a01b0319821681179092556001600160a01b03167f8be0079c531659141344cd1fd0a4f28419497f9722a3daafe3b4186f6b6457e0600080a330608052615680908162000074823960805181818161079b01526130690152f35b600080fdfe6080604052600436101561001257600080fd5b60003560e01c806301ffc9a71461030757806306fdde0314610302578063081812fc146102fd578063095ea7b3146102f85780631d153ca4146102f357806323b872dd146102ee5780632a596e53146102e95780632b13c58f146102e45780632f441500146102df5780633fafa127146102da57806342842e0e146102d55780634f228e11146102d057806354c6d1f5146102cb578063557e7155146102c65780636352211e146102c1578063640abacd146102bc57806364640c1e146102b75780636c0360eb146102b257806370a08231146102ad578063715018a6146102a85780637ba62bf9146102a357806382732b6d1461029e5780638da5cb5b146102995780639494bf721461029457806394c5c5ca1461028f57806395d89b411461028a578063975057e7146102855780639df4546814610280578063a22cb4651461027b578063a51cfd1814610276578063a8c15f4a14610271578063aa1623ea1461026c578063aa4fb15b14610267578063ab951e3914610262578063b88d4fde1461025d578063c41c2f2414610258578063c74b13d914610253578063c87b56dd1461024e578063ca323efe14610249578063d31cc52c14610244578063d40e71461461023f578063d46cf1711461023a578063da9ee8b714610235578063e8a3d48514610230578063e985e9c51461022b578063f2fde38b146102265763f78c488b1461022157600080fd5b6120cc565b611db3565b611d49565b611ca2565b611b8a565b611ace565b611a13565b6119e5565b611992565b611868565b6117b6565b61178f565b611727565b6116aa565b61168b565b611664565b611641565b6115b7565b6114e9565b61144f565b611428565b611383565b611347565b61132a565b611303565b6112b6565b61125f565b6111a5565b6110fc565b611055565b610ffd565b610fde565b610fc0565b610f99565b610f7b565b610f55565b610f1b565b610efd565b610e6a565b6108d1565b610812565b6107eb565b61077b565b61068e565b610641565b610562565b610323565b6001600160e01b031981160361031e57565b600080fd5b3461031e57602060031936011261031e5761038b6001600160e01b031960043561034c8161030c565b167f36595ad400000000000000000000000000000000000000000000000000000000811490811561038f575b5060405190151581529081906020820190565b0390f35b63fbb38e0360e01b8114915081156104d1575b81156104a7575b811561047d575b8115610453575b81156103c5575b5038610378565b7f80ac58cd00000000000000000000000000000000000000000000000000000000811491508115610429575b81156103ff575b50386103be565b7f01ffc9a700000000000000000000000000000000000000000000000000000000915014386103f8565b7f5b5e139f00000000000000000000000000000000000000000000000000000000811491506103f1565b7f2a55205a00000000000000000000000000000000000000000000000000000000811491506103b7565b7f2b13c58f00000000000000000000000000000000000000000000000000000000811491506103b0565b7fda9ee8b700000000000000000000000000000000000000000000000000000000811491506103a9565b7f71700c6900000000000000000000000000000000000000000000000000000000811491506103a2565b600091031261031e57565b60005b8381106105195750506000910152565b8181015183820152602001610509565b90601f19601f60209361054781518092818752878088019101610506565b0116010190565b90602061055f928181520190610529565b90565b3461031e5760008060031936011261063e57604051908080546105848161101b565b8085529160019180831690811561061457506001146105ba575b61038b856105ae81870382610d97565b6040519182918261054e565b80809450527f290decd9548b62a8d60345a988386fc84ba6bc95484008f6362f93160ef3e5635b8284106105fc5750505081016020016105ae8261038b61059e565b805460208587018101919091529093019281016105e1565b86955061038b969350602092506105ae94915060ff191682840152151560051b820101929361059e565b80fd5b3461031e57602060031936011261031e57602061065f600435613de1565b6001600160a01b0360405191168152f35b6001600160a01b0381160361031e57565b359061068c82610670565b565b3461031e57604060031936011261031e576004356106ab81610670565b6024356001600160a01b03806106c083613d97565b1680918416146107515780331415908161070f575b506106e5576106e3916147ce565b005b60046040517fe5fa0e35000000000000000000000000000000000000000000000000000000008152fd5b9050600052600460205261074b610747610740336040600020906001600160a01b0316600052602052604060002090565b5460ff1690565b1590565b386106d5565b60046040517f133f8be9000000000000000000000000000000000000000000000000000000008152fd5b3461031e57600060031936011261031e5760206040516001600160a01b037f0000000000000000000000000000000000000000000000000000000000000000168152f35b600319606091011261031e576004356107d781610670565b906024356107e481610670565b9060443590565b3461031e576107f9366107bf565b906108048233613e77565b156106e5576106e392614521565b3461031e5760208060031936011261031e576004359067ffffffffffffffff9081831161031e573660238401121561031e57826004013591821161031e57602490600693368385871b8301011161031e5760005b84811061086f57005b6001906108916108853687848b1b870101610e42565b858151910151906136d1565b01610866565b90816101e091031261031e5790565b602060031982011261031e576004359067ffffffffffffffff821161031e5761055f91600401610897565b6108da366108a6565b3415801590610c96575b8015610c86575b610c5c5760a0810135908115610c32576101c08101602461090c82846125c6565b9050108015610bfc575b610bd25761092761092f91836125c6565b8101906126ba565b91505080516109556109496090546001600160a01b031690565b6001600160a01b031690565b906005549360409283516321d1336160e11b815261012090818160049481806109858d8983019190602083019252565b03915afa908115610af257600392600092610ba5575b505051149586610b1f575b5060005b8381106109d65787876109bc88613cf8565b6109c257005b6109d16106e391608a546122d5565b608a55565b6109e08187612298565b5190610a066109f9836000526002602052604060002090565b546001600160a01b031690565b6001600160a01b03610a1a61094987613636565b911603610af75787610a2b83614362565b610a3a575b60019150016109aa565b610a8e610a52610949608f546001600160a01b031690565b92875180947f42f9914b000000000000000000000000000000000000000000000000000000008252818060209586958a83019190602083019252565b03915afa8015610af257600193610ab992600092610ac5575b5050600052608b602052604060002090565b80546001019055610a30565b610ae49250803d10610aeb575b610adc8183610d97565b8101906121d8565b3880610aa7565b503d610ad2565b6121e7565b8286517f075fd2b1000000000000000000000000000000000000000000000000000000008152fd5b610b5b919650602090610b3d6109496091546001600160a01b031690565b865180809581946367cb9c9960e01b83528c83019190602083019252565b03915afa908115610af257600091610b77575b501594386109a6565b610b98915060203d8111610b9e575b610b908183610d97565b810190612769565b38610b6e565b503d610b86565b610bc49250803d10610bcb575b610bbc8183610d97565b8101906126f5565b388061099b565b503d610bb2565b60046040517f2a84050f000000000000000000000000000000000000000000000000000000008152fd5b5063fbb38e0360e01b6001600160e01b0319610c2a610c24610c1e85876125c6565b90612617565b90612639565b161415610916565b60046040517f76914729000000000000000000000000000000000000000000000000000000008152fd5b60046040517f7df94b86000000000000000000000000000000000000000000000000000000008152fd5b50600554602082013514156108eb565b50610cf76020610cb16109496006546001600160a01b031690565b6005546040517f6e49181f000000000000000000000000000000000000000000000000000000008152600481019190915233602482015292839190829081906044820190565b03915afa908115610af257600091610d11575b50156108e4565b610d29915060203d8111610b9e57610b908183610d97565b38610d0a565b634e487b7160e01b600052604160045260246000fd5b6040810190811067ffffffffffffffff821117610d6157604052565b610d2f565b67ffffffffffffffff8111610d6157604052565b611000810190811067ffffffffffffffff821117610d6157604052565b90601f601f19910116810190811067ffffffffffffffff821117610d6157604052565b6040519061068c82610d45565b60405190610160820182811067ffffffffffffffff821117610d6157604052565b60405190610180820182811067ffffffffffffffff821117610d6157604052565b60405190610120820182811067ffffffffffffffff821117610d6157604052565b67ffffffffffffffff8111610d615760051b60200190565b919082604091031261031e57604051610e5a81610d45565b6020808294803584520135910152565b3461031e5760208060031936011261031e576004359067ffffffffffffffff821161031e573660238301121561031e57816004013591610ea983610e2a565b91604093610eb985519485610d97565b80845260248285019160061b8401019236841161031e57602401905b838210610ee5576106e38561332c565b828691610ef23685610e42565b815201910190610ed5565b3461031e57600060031936011261031e576020600554604051908152f35b3461031e57610f29366107bf565b60405191602083019383851067ffffffffffffffff861117610d61576106e39460405260008452613e20565b3461031e57602060031936011261031e576020610f73600435612458565b604051908152f35b3461031e57602060031936011261031e57602061065f6004356121a6565b3461031e57600060031936011261031e5760206001600160a01b0360905416604051908152f35b3461031e57602060031936011261031e57602061065f600435613d97565b3461031e57600060031936011261031e576020604051633b9aca008152f35b3461031e57600060031936011261031e576020609254604051908152f35b90600182811c9216801561104b575b602083101461103557565b634e487b7160e01b600052602260045260246000fd5b91607f169161102a565b3461031e5760008060031936011261063e5760405190806094546110788161101b565b8085529160019180831690811561061457506001146110a15761038b856105ae81870382610d97565b9250609483527f7047a3cc0a76edcee45792ca71527c753f6167484f14b94c4a3bd2997516725c5b8284106110e45750505081016020016105ae8261038b61059e565b805460208587018101919091529093019281016110c9565b3461031e57602060031936011261031e5760043561111981610670565b60206001600160a01b03604481608f54169360405194859384927ff7888aec0000000000000000000000000000000000000000000000000000000084523060048501521660248301525afa8015610af25761038b91600091611187575b506040519081529081906020820190565b61119f915060203d8111610aeb57610adc8183610d97565b38611176565b3461031e5760008060031936011261063e576111bf6150af565b806001600160a01b036007546001600160a01b03198116600755167f8be0079c531659141344cd1fd0a4f28419497f9722a3daafe3b4186f6b6457e08280a380f35b81601f8201121561031e5780359161121883610e2a565b926112266040519485610d97565b808452602092838086019260051b82010192831161031e578301905b828210611250575050505090565b81358152908301908301611242565b3461031e57604060031936011261031e5767ffffffffffffffff60043581811161031e57611291903690600401611201565b9060243590811161031e576020916112b0610f73923690600401610897565b506122e2565b3461031e57604060031936011261031e5760206004356112d581610670565b6001600160a01b03809116600052608c82526040600020602435600052825260406000205416604051908152f35b3461031e57600060031936011261031e5760206001600160a01b0360075416604051908152f35b3461031e57611338366108a6565b506020604051633b9aca008152f35b3461031e57602060031936011261031e57600435600052608e60205260206001600160e01b0361137a6040600020615326565b16604051908152f35b3461031e5760008060031936011261063e57604051908060018054916113a88361101b565b8086529282811690811561061457506001146113ce5761038b856105ae81870382610d97565b92508083527fb10e2d527612073b26eecdfd717e6a320cf44b4afac2b0732d9fcbe2b7fa0cf65b8284106114105750505081016020016105ae8261038b61059e565b805460208587018101919091529093019281016113f5565b3461031e57600060031936011261031e5760206001600160a01b03608f5416604051908152f35b3461031e57600060031936011261031e5760405161146c81610d7a565b6110008091369037604051600a6000825b608082106114be5750505061149181610d7a565b60405190600090825b608083106114a757505050f35b60019082518152602080910192019201919061149a565b600160208192855481520193019101909161147d565b8015150361031e57565b359061068c826114d4565b3461031e57604060031936011261031e5760043561150681610670565b602435611512816114d4565b6001600160a01b0382169182331461158d5761154e903360005260046020526040600020906001600160a01b0316600052602052604060002090565b9015159060ff1981541660ff83161790556040519081527f17307eab39ab6107e8899845ad3d59bd9653f200f220920489ca2b5937696c3160203392a3005b60046040517f0df0273a000000000000000000000000000000000000000000000000000000008152fd5b3461031e576115cd6115c8366108a6565b61277e565b6040929192805193849384526115ef6020916060838701526060860190610529565b90848203838601528080855193848152019401926000905b8382106116145786860387f35b845180516001600160a01b0316875283015186840152879650948501949382019360019190910190611607565b3461031e57600060031936011261031e57602060ff609354166040519015158152f35b3461031e57600060031936011261031e5760206001600160a01b0360915416604051908152f35b3461031e57604060031936011261031e576106e36024356004356136d1565b3461031e57604060031936011261031e576106e36004356116ca81610670565b6024359033613a51565b67ffffffffffffffff8111610d6157601f01601f191660200190565b9291926116fc826116d4565b9161170a6040519384610d97565b82948184528183011161031e578281602093846000960137010152565b3461031e57608060031936011261031e5760043561174481610670565b60243561175081610670565b6064359167ffffffffffffffff831161031e573660238401121561031e576117856106e39336906024816004013591016116f0565b9160443591613e20565b3461031e57600060031936011261031e5760206001600160a01b0360065416604051908152f35b3461031e5760208060031936011261031e576004359067ffffffffffffffff821161031e573660238301121561031e578160040135916117f583610e2a565b9160409361180585519485610d97565b80845260248285019160061b8401019236841161031e57602401905b838210611831576106e385613640565b858236031261031e57828691825161184881610d45565b843561185381610670565b81528285013583820152815201910190611821565b3461031e57602060031936011261031e5761188e610949608f546001600160a01b031690565b6040517f0fab094700000000000000000000000000000000000000000000000000000000815230600482015290602090829060249082905afa908115610af257600091611964575b50600060405180927fda0544aa000000000000000000000000000000000000000000000000000000008252816001600160a01b038161191f600435600483019190602083019252565b0392165afa8015610af25761038b91600091611943575b506040519182918261054e565b61195e913d8091833e6119568183610d97565b81019061224a565b38611936565b611985915060203d811161198b575b61197d8183610d97565b8101906121f3565b386118d6565b503d611973565b3461031e57604060031936011261031e576001600160a01b036004356119b781610670565b16600052608d602052604060002060243560005260205260206001600160e01b0361137a6040600020615326565b3461031e57604060031936011261031e57600435600052608e6020526020610f73602435604060002061514f565b3461031e57606060031936011261031e576001600160a01b03600435611a3881610670565b16600052608d60205260406000206024356000526020526020610f73604435604060002061514f565b91908252611a7b6020916060838501526060840190610529565b90604092838184039101528080855193848152019401926000905b838210611aa557505050505090565b845180516001600160a01b03168752830151868401529485019493820193600190910190611a96565b3461031e576020600319818136011261031e576004359067ffffffffffffffff821161031e576101a090823603011261031e57611b1c611b156101648301836004016125c6565b36916116f0565b60405190611b2982610d45565b6001825260005b848110611b7457509061038b91610124946000611b4b610dba565b30815291820152611b5b83612286565b52611b6582612286565b50604051948594013584611a61565b8490611b7e612665565b82828601015201611b30565b60031960208136011261031e576004359067ffffffffffffffff821161031e5761020090823603011261031e57600554341590811591611c16575b8115611c07575b50611bdd576106e390600401614b6f565b60046040517fc715ec6c000000000000000000000000000000000000000000000000000000008152fd5b90506024820135141538611bcc565b9050611c2d6109496006546001600160a01b031690565b6040517f6e49181f0000000000000000000000000000000000000000000000000000000081526004810183905233602482015290602090829060449082905afa908115610af257600091611c84575b501590611bc5565b611c9c915060203d8111610b9e57610b908183610d97565b38611c7c565b3461031e5760008060031936011261063e576040519080609554611cc58161101b565b808552916001918083169081156106145750600114611cee5761038b856105ae81870382610d97565b9250609583527f947035e97d0f7e1937f791bc189f60c984ceaaa7a8494fc67f9f8f4de8ccf2c65b828410611d315750505081016020016105ae8261038b61059e565b80546020858701810191909152909301928101611d16565b3461031e57604060031936011261031e57602060ff611da7600435611d6d81610670565b6001600160a01b0360243591611d8283610670565b16600052600484526040600020906001600160a01b0316600052602052604060002090565b54166040519015158152f35b3461031e57602060031936011261031e57600435611dd081610670565b611dd86150af565b6001600160a01b03811615611df0576106e390615107565b608460405162461bcd60e51b815260206004820152602660248201527f4f776e61626c653a206e6577206f776e657220697320746865207a65726f206160448201527f64647265737300000000000000000000000000000000000000000000000000006064820152fd5b6024359061068c82610670565b9080601f8301121561031e5781602061055f933591016116f0565b6084359061068c82610670565b60c4359061068c82610670565b35906cffffffffffffffffffffffffff8216820361031e57565b359063ffffffff8216820361031e57565b359061ffff8216820361031e57565b359062ffffff8216820361031e57565b81601f8201121561031e57803590611efd82610e2a565b92604090611f0d82519586610d97565b83855260209182860191836101608097028601019481861161031e578401925b858410611f3e575050505050505090565b868483031261031e57848791611f52610dc7565b611f5b87611e9c565b8152611f68838801611eb6565b83820152611f77868801611eb6565b868201526060611f88818901611ec7565b908201526080611f99818901610681565b9082015260a0808801359082015260c0611fb4818901611ed6565b9082015260e0611fc58189016114de565b90820152610100611fd78189016114de565b90820152610120611fe98189016114de565b90820152610140611ffb8189016114de565b90820152815201930192611f2d565b610124359065ffffffffffff8216820361031e57565b610144359061068c82610670565b7ffffffffffffffffffffffffffffffffffffffffffffffffffffffffffffffe9c608091011261031e57604051906080820182811067ffffffffffffffff821117610d61576040528161016435612084816114d4565b815261018435612093816114d4565b60208201526101a4356120a5816114d4565b604082015260606101c435916120ba836114d4565b0152565b6101e4359061068c82610670565b3461031e5761020060031936011261031e576120e6611e5a565b60443567ffffffffffffffff9182821161031e5761210960049236908401611e67565b60643584811161031e576121209036908501611e67565b612128611e82565b60a43586811161031e5761213f9036908701611e67565b612147611e8f565b60e43588811161031e5761215e9036908901611e67565b916101043598891161031e5761217a6106e39936908a01611ee6565b9361218361200a565b9561218c612020565b976121963661202e565b9961219f6120be565b9b35613053565b60005260086020526001600160a01b038060406000205416806121d3575060026020526040600020541690565b905090565b9081602091031261031e575190565b6040513d6000823e3d90fd5b9081602091031261031e575161055f81610670565b81601f8201121561031e57805161221e816116d4565b9261222c6040519485610d97565b8184526020828401011161031e5761055f9160208085019101610506565b9060208282031261031e57815167ffffffffffffffff811161031e5761055f9201612208565b634e487b7160e01b600052603260045260246000fd5b8051156122935760200190565b612270565b80518210156122935760209160051b010190565b634e487b7160e01b600052601160045260246000fd5b90600182018092116122d057565b6122ac565b919082018092116122d057565b9060009180516000915b8183106122f857505050565b90919361230e6123088684612298565b51612458565b81018091116122d0579360010191906122ec565b519061068c82610670565b519061068c826114d4565b60208183031261031e57805167ffffffffffffffff9182821161031e57016101808184031261031e57612369610de8565b92815184526020820151602085015260408201516040850152606082015160608501526080820151608085015260a082015160a08501526123ac60c08301612322565b60c085015260e082015160e085015261010080830151908501526101206123d481840161232d565b908501526101406123e681840161232d565b90850152610160928383015190811161031e576124039201612208565b9082015290565b9060001982019182116122d057565b919082039182116122d057565b608081101561229357600a0190600090565b8115612442570490565b634e487b7160e01b600052601260045260246000fd5b6124ab6020612472610949608f546001600160a01b031690565b92604051809381927f42f9914b000000000000000000000000000000000000000000000000000000008352600483019190602083019252565b0381855afa908115610af2576000916125a8575b506040516364faa15960e01b8152306004820152602481018290526000604482018190529092839060649082905afa918215610af257600092612585575b5061251c61251261250d8361240a565b612426565b90549060031b1c90565b90811561257d57606083019061253a60408351950194855190612419565b156125745761256761255661055f9561256e9451905190612419565b91600052608b602052604060002090565b54906122d5565b90612438565b50505050600090565b505050600090565b6125a191923d8091833e6125998183610d97565b810190612338565b90386124fd565b6125c0915060203d8111610aeb57610adc8183610d97565b386124bf565b9035907fffffffffffffffffffffffffffffffffffffffffffffffffffffffffffffffe18136030182121561031e570180359067ffffffffffffffff821161031e5760200191813603831361031e57565b9060241161031e5760200190600490565b9060441161031e5760400190600490565b6001600160e01b0319903581811693926004811061265657505050565b60040360031b82901b16169150565b6040519061267282610d45565b60006020838281520152565b6040519061268b82610d45565b600182528160005b602090818110156126b5576020916126a9612665565b90828501015201612693565b505050565b9160608383031261031e5782359260208101356126d68161030c565b92604082013567ffffffffffffffff811161031e5761055f9201611201565b908161012091031261031e57612709610e09565b90805182526020810151602083015260408101516040830152606081015160608301526080810151608083015260a081015160a083015260c081015160c083015261275660e08201612322565b60e0830152610100809101519082015290565b9081602091031261031e575161055f816114d4565b90600090816080840135612a3a576101c0840190602461279e83876125c6565b9050108015612a10575b610bd2576127b461267e565b936127e96109276127c3610dba565b3081529460209584878201526127d889612286565b526127e288612286565b50886125c6565b949150506128026109496090546001600160a01b031690565b916040808901359381516321d1336160e11b815261012090818160049481806128328c8983019190602083019252565b03915afa918215610af25785926129f3575b505051846001968783149283156129e8575b508215612979575b50506128a357505050505050611b1561289361289f9261288d612887608a5460c08a01356122d5565b916122e2565b906155a5565b946101a08101906125c6565b9190565b94989592919083519382966128c3610949608f546001600160a01b031690565b915b8689106128e757505050505050505050611b15816101a061289f9301906125c6565b90919293949596979b61293590866128ff8f85612298565b5187518094819263c44a8e6d60e01b83523089840160409060009294936001600160a01b03606083019616825260208201520152565b0381885afa918215610af2578a928991899161295f575b500151019c0197969594939291906128c5565b61297391503d808b833e6125998183610d97565b3861294c565b6129b192506129936109496091546001600160a01b031690565b855180809581946367cb9c9960e01b83528883019190602083019252565b03915afa908115610af25784916129cb575b50843861285e565b6129e29150853d8711610b9e57610b908183610d97565b386129c3565b600214925038612856565b612a099250803d10610bcb57610bbc8183610d97565b3880612844565b5063fbb38e0360e01b6001600160e01b0319612a32610c24610c1e868a6125c6565b1614156127a8565b60046040517f4fc178d8000000000000000000000000000000000000000000000000000000008152fd5b601f8111612a70575050565b6000908180527f290decd9548b62a8d60345a988386fc84ba6bc95484008f6362f93160ef3e563906020601f850160051c83019410612aca575b601f0160051c01915b828110612abf57505050565b818155600101612ab3565b9092508290612aaa565b601f8111612ae0575050565b600090609482527f7047a3cc0a76edcee45792ca71527c753f6167484f14b94c4a3bd2997516725c906020601f850160051c83019410612b3b575b601f0160051c01915b828110612b3057505050565b818155600101612b24565b9092508290612b1b565b601f8111612b51575050565b600090609582527f947035e97d0f7e1937f791bc189f60c984ceaaa7a8494fc67f9f8f4de8ccf2c6906020601f850160051c83019410612bac575b601f0160051c01915b828110612ba157505050565b818155600101612b95565b9092508290612b8c565b90601f8211612bc3575050565b6001916000908382527fb10e2d527612073b26eecdfd717e6a320cf44b4afac2b0732d9fcbe2b7fa0cf6906020601f850160051c83019410612c20575b601f0160051c01915b828110612c165750505050565b8181558301612c09565b9092508290612c00565b90815167ffffffffffffffff8111610d6157612c5081612c4b60945461101b565b612ad4565b602080601f8311600114612c8b5750819293600092612c80575b50506000198260011b9260031b1c191617609455565b015190503880612c6a565b90601f19831694612cbe60946000527f7047a3cc0a76edcee45792ca71527c753f6167484f14b94c4a3bd2997516725c90565b926000905b878210612cfb575050836001959610612ce2575b505050811b01609455565b015160001960f88460031b161c19169055388080612cd7565b80600185968294968601518155019501930190612cc3565b90815167ffffffffffffffff8111610d6157612d3981612d3460955461101b565b612b45565b602080601f8311600114612d745750819293600092612d69575b50506000198260011b9260031b1c191617609555565b015190503880612d53565b90601f19831694612da760956000527f947035e97d0f7e1937f791bc189f60c984ceaaa7a8494fc67f9f8f4de8ccf2c690565b926000905b878210612de4575050836001959610612dcb575b505050811b01609555565b015160001960f88460031b161c19169055388080612dc0565b80600185968294968601518155019501930190612dac565b90815167ffffffffffffffff8111610d6157600190612e2481612e1f845461101b565b612bb6565b602080601f8311600114612e5e575081929394600092612e53575b505060001982841b9260031b1c1916179055565b015190503880612e3f565b90601f19831695612e9160016000527fb10e2d527612073b26eecdfd717e6a320cf44b4afac2b0732d9fcbe2b7fa0cf690565b926000905b888210612ecc5750508385969710612eb3575b505050811b019055565b015160001960f88460031b161c19169055388080612ea9565b808785968294968601518155019501930190612e96565b81601f8201121561031e57805191612efa83610e2a565b92612f086040519485610d97565b808452602092838086019260051b82010192831161031e578301905b828210612f32575050505090565b81518152908301908301612f24565b9060208282031261031e57815167ffffffffffffffff811161031e5761055f9201612ee3565b60208082019080835283518092528060408094019401926000905b838210612f9157505050505090565b9091929394836101606001926130468951612fbb8382516cffffffffffffffffffffffffff169052565b8085015163ffffffff16838601528087015163ffffffff168388015260608181015161ffff16908401526080818101516001600160a01b03169084015260a0818101519084015260c08082015162ffffff169084015260e081810151151590840152610100818101511515908401526101208181015115159084015261014090810151151590830152565b0196019493920190612f82565b94959b9398909a99979a6001600160a01b03998a7f000000000000000000000000000000000000000000000000000000000000000016301461031e578a6130a5610949608f546001600160a01b031690565b1661031e576130c66131089565ffffffffffff956130e2946131249a614999565b6001600160a01b03166001600160a01b03196090541617609055565b613102886001600160a01b03166001600160a01b0319608f541617608f55565b16609255565b6001600160a01b03166001600160a01b03196091541617609155565b805161331d575b50805161330e575b50818516613296575b61317a94501691604051907f8da5e32b0000000000000000000000000000000000000000000000000000000082528180600096879360048301612f67565b038183875af18015610af257613274575b50805115158015613267575b801561325a575b801561324d575b6131b6575b50505061068c33615107565b813b1561324957604080517fcb827e3200000000000000000000000000000000000000000000000000000000815282511515600482015260208301511515602482015290820151151560448201526060909101511515606482015291908290608490829084905af18015610af257613230575b80806131aa565b8061323d61324392610d66565b806104fb565b38613229565b8280fd5b50606081015115156131a5565b506040810151151561319e565b5060208101511515613197565b61328f903d8086833e6132878183610d97565b810190612f41565b503861318b565b818116803b1561031e576040517fd84a72c00000000000000000000000000000000000000000000000000000000081526001600160a01b039690961660048701526000908690602490829084905af1948515610af25761317a956132fb575b5061313c565b8061323d61330892610d66565b386132f5565b61331790612d13565b38613133565b61332690612c2a565b3861312b565b6133346150af565b6133496109496090546001600160a01b031690565b906005549060409182516321d1336160e11b81526101209081816004978180613379888c83019190602083019252565b03915afa908115610af257600392600092613619575b505051106135f15760935460ff166135c9576133dd906133ba6109496091546001600160a01b031690565b90845180926367cb9c9960e01b8252818060209687958b83019190602083019252565b03915afa908115610af2576000916135ac575b506135845761340a610949608f546001600160a01b031690565b9080845180937ff1bea54f0000000000000000000000000000000000000000000000000000000082528180613451308b83019190916001600160a01b036020820193169052565b03915afa918215610af257600092613565575b50909160009181519183945b8386106134c15750505050633b9aca0091501161349b57505061068c600160ff196093541617609355565b517f6ff44e97000000000000000000000000000000000000000000000000000000008152fd5b90919293816134d08785612298565b51511161353d5761353160019161351d866134eb8a88612298565b51015161350561250d6134fe8c8a612298565b515161240a565b90919060001983549160031b92831b921b1916179055565b856135288987612298565b510151906122d5565b95019493929190613470565b8787517f52385374000000000000000000000000000000000000000000000000000000008152fd5b8161357d9293503d8411610aeb57610adc8183610d97565b9038613464565b5050517f6fb84075000000000000000000000000000000000000000000000000000000008152fd5b6135c39150823d8411610b9e57610b908183610d97565b386133f0565b5050517f38101407000000000000000000000000000000000000000000000000000000008152fd5b5050517ff8228d40000000000000000000000000000000000000000000000000000000008152fd5b61362f9250803d10610bcb57610bbc8183610d97565b388061338f565b3561055f81610670565b80519061364b612665565b5060005b82811061365b57505050565b6136658183612298565b51906001600160a01b0380835116156136945782602061368e9260019551169101519033613a51565b0161364f565b60046040517f53d304f4000000000000000000000000000000000000000000000000000000008152fd5b818102929181159184041417156122d057565b906136e76109496090546001600160a01b031690565b9161371660055493604094855180926321d1336160e11b82528180610120968795600483019190602083019252565b03915afa918215610af2576137479260ff9261010092600092613a34575b5050015160f41c1660018091811c161490565b613a0b57613760610949608f546001600160a01b031690565b83517f136e651c0000000000000000000000000000000000000000000000000000000081523060048201526024810183905290602090829060449082905afa908115610af2576000916139ed575b506137e26109f9836137d3846001600160a01b0316600052608c602052604060002090565b90600052602052604060002090565b6001600160a01b039182821615948561397e575b61380b610949608f546001600160a01b031690565b87517fbaa7e80e000000000000000000000000000000000000000000000000000000008152600481018790526024810183905294906000908690604490829084905af1948515610af257600095613963575b5060005b828110613914575050506000613882610949608f546001600160a01b031690565b96516364faa15960e01b8152306004820152602481018690526000604482015296879060649082905afa948515610af25761068c966000966138ec575b50916020916138de9493156000146138e45750945b01519051906136be565b91613b39565b9050946138d4565b916139096020936138de969593983d8091833e6125998183610d97565b9691939450916138bf565b8061392160019288612298565b5161392c8187613ef8565b8a51338152848716918a917f031e1988c95a91ec4d655ff63a8f87a80bc9daf28d95ae10ee08c0022cfb5c8b90602090a401613861565b61397791953d8091833e6132878183610d97565b933861385d565b6139be826139a3876137d3836001600160a01b0316600052608c602052604060002090565b906001600160a01b03166001600160a01b0319825416179055565b8382166000817f3134e8a2e6d97e929a7e54011ea5485d7d196dd5f0ba4d4ef95803e8e3fc257f8280a46137f6565b613a05915060203d811161198b5761197d8183610d97565b386137ae565b600483517fe96092b8000000000000000000000000000000000000000000000000000000008152fd5b613a4a9250803d10610bcb57610bbc8183610d97565b3880613734565b6001600160a01b039081166000818152608c602090815260408083208784528252822080548686166001600160a01b03198216811790925592969195919491939282169291869184847f3134e8a2e6d97e929a7e54011ea5485d7d196dd5f0ba4d4ef95803e8e3fc257f8b80a4608f5416916064604051809481937f2e4d0ea800000000000000000000000000000000000000000000000000000000835230600484015260248301528860448301525afa948515610af25761068c9695613b1a575b5050613bca565b613b31929550803d10610aeb57610adc8183610d97565b923880613b13565b9061068c92916000828152608e602052613b56846040832061524f565b505060406001600160a01b039182841615613baf575b808052608c602052818120858252602052613ba0838383205416946001600160a01b0316600052608c602052604060002090565b85825260205220541690613bca565b848152608e602052613bc3868383206152fe565b5050613b6c565b9192906001600160a01b03928382169381168481148015613cf0575b613ce857859181613c75575b50505082613c01575b50505050565b7fed0c1e94c302bdbbd8bbd6a4fb7c3ed335c2292407cd816eadd075d019d0ce0491613c43613c54926001600160a01b0316600052608d602052604060002090565b85600052602052604060002061524f565b6040805192835260208301919091523390820152606090a338808080613bfb565b613c92906001600160a01b0316600052608d602052604060002090565b826000526020527fed0c1e94c302bdbbd8bbd6a4fb7c3ed335c2292407cd816eadd075d019d0ce04613cc88560406000206152fe565b6040805192835260208301919091523390820152606090a3833880613bf2565b505050505050565b508315613be6565b6001600160a01b03608f5416803b1561031e5760405180927f86bc2be3000000000000000000000000000000000000000000000000000000008252602482016020908160048501528251809152816044850193019160005b828110613d8057505050509181600081819503925af18015610af257613d735750565b8061323d61068c92610d66565b835185528795509381019392810192600101613d50565b60005260026020526001600160a01b03604060002054168015613db75790565b60046040517fb49aa3b5000000000000000000000000000000000000000000000000000000008152fd5b613e018160005260026020526001600160a01b0360406000205416151590565b15613db75760005260036020526001600160a01b036040600020541690565b929190613e2d8233613e77565b156106e55783613e418383613e4697614521565b6148ac565b15613e4d57565b60046040517f6deaf836000000000000000000000000000000000000000000000000000000008152fd5b6001600160a01b0380613e8984613d97565b169281831692848414948515613ebf575b50508315613ea9575b50505090565b613eb591929350613de1565b1614388080613ea3565b60ff92955090613eee9160005260046020526040600020906001600160a01b0316600052602052604060002090565b5416923880613e9a565b9190916001600160a01b03811690811561407557613f2c8460005260026020526001600160a01b0360406000205416151590565b61404b57836000928184526002602052613f5f8360408620906001600160a01b03166001600160a01b0319825416179055565b837fddf252ad1be2c89b69c2b068fc378daa952ba7f163c4a11628f55a4df523b3ef8180a4613fcc82613f9d610949608f546001600160a01b031690565b60405163c44a8e6d60e01b81523060048201526024810197909752600060448801529591829081906064820190565b0381885afa908115610af2578391614031575b505193803b15613249576040516330b157e560e21b81526004810195909552600060248601526001600160a01b039190911660448501529192918290606490829084905af18015610af257613d735750565b61404591503d8085833e6125998183610d97565b38613fdf565b60046040517fbad7c30c000000000000000000000000000000000000000000000000000000008152fd5b60046040517f7208af1e000000000000000000000000000000000000000000000000000000008152fd5b906140ec92916140ba610949608f546001600160a01b031690565b60405163c44a8e6d60e01b81523060048201526024810193909352600060448401819052948590849081906064820190565b0381845afa928315610af257859361416f575b508251813b1561416b576040516330b157e560e21b815260048101919091526001600160a01b0383166024820152600060448201529394908490606490829084905af1928315610af25761068c93614158575b50614279565b8061323d61416592610d66565b38614152565b8580fd5b6141849193503d8087833e6125998183610d97565b91386140ff565b906141d99392916141a7610949608f546001600160a01b031690565b60405163c44a8e6d60e01b81523060048201526024810194909452600060448501819052958690859081906064820190565b0381845afa938415610af257869461425d575b508351813b15614259576040516330b157e560e21b815260048101919091526001600160a01b038381166024830152841660448201529495908590606490829084905af1938415610af25761068c94614246575b506142e5565b8061323d61425392610d66565b38614240565b8680fd5b6142729194503d8088833e6125998183610d97565b92386141ec565b6001600160a01b038091169182156126b55761068c926080825192015192600091838352608e6020526142af85604085206152fe565b50508252608c60205260408220838352602052604081818420541692808052608c60205281812085825260205220541690613bca565b916001600160a01b03809316918215613bfb5761068c936040608084519401519482841615614345575b6000908152608c602052818120858252602052613ba0838383205416946001600160a01b0316600052608c602052604060002090565b84600052608e60205261435b86836000206152fe565b505061430f565b61436b81613d97565b906001600160a01b03821691826143d0575b81600061068c9461438d83614778565b8282526002602052604082206001600160a01b031981541690557fddf252ad1be2c89b69c2b068fc378daa952ba7f163c4a11628f55a4df523b3ef8280a461409f565b6143e5610949608f546001600160a01b031690565b60405163c44a8e6d60e01b8152306004820152602481018490526000604482018190529091829060649082905afa908115610af2576144329161014091600091614508575b500151151590565b614484575b81600061068c946144586109496109f9856000526008602052604060002090565b15614467575b9450505061437d565b61447f846139a3856000526008602052604060002090565b61445e565b6144c69261449d6109496090546001600160a01b031690565b9060055460405180936321d1336160e11b82528180610120998a95600483019190602083019252565b03915afa908115610af25761068c9585936000936144ea575b505094505050614437565b8161450092903d10610bcb57610bbc8183610d97565b5038806144df565b61451b913d8091833e6125998183610d97565b3861442a565b919061452c82613d97565b6001600160a01b038085169491811685900361474e57821693841561472457806145b7575b61068c94849161456083614778565b82600052600260205261458d856040600020906001600160a01b03166001600160a01b0319825416179055565b7fddf252ad1be2c89b69c2b068fc378daa952ba7f163c4a11628f55a4df523b3ef600080a461418b565b6145cc610949608f546001600160a01b031690565b60405163c44a8e6d60e01b8152306004820152602481018690526000604482018190529091829060649082905afa908115610af257614618916101409160009161450857500151151590565b614669575b61068c94849161463d6109496109f9856000526008602052604060002090565b1561464c575b91509450614551565b614664846139a3856000526008602052604060002090565b614643565b6146a96146816109496090546001600160a01b031690565b60055460405180926321d1336160e11b82528180610120968795600483019190602083019252565b03915afa918215610af2576146d89260ff9261010092600092614707575b5050015160f41c1660018091161490565b1561461d5760046040517f18cdaf97000000000000000000000000000000000000000000000000000000008152fd5b61471d9250803d10610bcb57610bbc8183610d97565b38806146c7565b60046040517f2c955427000000000000000000000000000000000000000000000000000000008152fd5b60046040517fa195bc53000000000000000000000000000000000000000000000000000000008152fd5b80600052600360205260406000206001600160a01b0319815416905560006001600160a01b036147a783613d97565b167f8c5be1e5ebec7d5bd14f71427d1e84f3dd0314c0f7b2291e5b200ac8c7c3b9258280a4565b8160005260036020526147fb816040600020906001600160a01b03166001600160a01b0319825416179055565b6001600160a01b038061480d84613d97565b169116907f8c5be1e5ebec7d5bd14f71427d1e84f3dd0314c0f7b2291e5b200ac8c7c3b925600080a4565b9081602091031261031e575161055f8161030c565b909261055f94936080936001600160a01b03809216845216602083015260408201528160608201520190610529565b3d156148a7573d9061488d826116d4565b9161489b6040519384610d97565b82523d6000602084013e565b606090565b92909190823b15614990576149009260209260006001600160a01b036040518097819682957f150b7a02000000000000000000000000000000000000000000000000000000009b8c8552336004860161484d565b0393165af160009181614960575b506149525761491b61487c565b8051908161494d5760046040517f6deaf836000000000000000000000000000000000000000000000000000000008152fd5b602001fd5b6001600160e01b0319161490565b61498291925060203d8111614989575b61497a8183610d97565b810190614838565b903861490e565b503d614970565b50505050600190565b91929092805167ffffffffffffffff8111610d61576000916149c4826149bf855461101b565b612a64565b60209081601f8411600114614a3057509282614a0493614a09969361068c9998968492614a25575b50506000198260011b9260031b1c1916179055612dfc565b600555565b6001600160a01b03166001600160a01b03196006541617600655565b0151905038806149ec565b600080529190601f1984167f290decd9548b62a8d60345a988386fc84ba6bc95484008f6362f93160ef3e5639386905b828210614aaa57505093614a09969361068c9998969360019383614a049810614a91575b505050811b019055612dfc565b015160001960f88460031b161c19169055388080614a84565b80600186978294978701518155019601940190614a60565b9160a08383031261031e5782359260209182820135936040830135614ae68161030c565b936060840135614af581610670565b9360808101359067ffffffffffffffff821161031e57019180601f8401121561031e578235614b2381610e2a565b93614b316040519586610d97565b818552838086019260051b82010192831161031e578301905b828210614b58575050505090565b838091614b6484611ec7565b815201910190614b4a565b60925460c082013503614eea576101e081016044614b8d82846125c6565b90501180614ea2575b614b9e575050565b614bab614bb391836125c6565b810190614ac2565b93509150506001600160a01b0380911690825115614e78576000808091855194828115908115905b888110614c375750505050505050505090614c07916080614bff6101808401613636565b920135614f95565b614c0d57565b60046040517f6d5e09a4000000000000000000000000000000000000000000000000000000008152fd5b8a614c57614c50614c48848e612298565b5161ffff1690565b61ffff1690565b8603614d7a575b614c8b6109f9876137d3614c728c95613636565b6001600160a01b0316600052608c602052604060002090565b8b8b8587614d6f575b614ca5575b50505050600101614bdb565b9388809392614cb6839c969761240a565b83109283614d49575b505050600014614ce4575050600191614cd7916122d5565b955b905086388b8b614c99565b614d1093508d82888780614d3d575b614d24575b5050508985600014614d1a576138de915087936122d5565b6001600095614cd9565b6138de91936122d5565b614d30614d3593613636565b613a51565b8d8288614cf8565b508d8416811415614cf3565b61ffff929350614d6591614d5f614c48926122c2565b90612298565b1614828e8b614cbf565b508b83161515614c94565b5093909550614d8f614c50614c48868c612298565b10614e4e57614e0294614da8614c50614c48868c612298565b9360008a614dce614c4884614dc8610949608f546001600160a01b031690565b93612298565b6040516364faa15960e01b815230600482015261ffff90911660248201526000604482015298899190829081906064820190565b03915afa8015610af257614c8b6109f9876137d38f94608090614c729d600091614e35575b5001519b5050505050614c5e565b614e48913d8091833e6125998183610d97565b38614e27565b60046040517f9fda363d000000000000000000000000000000000000000000000000000000008152fd5b60046040517f3d04bd1f000000000000000000000000000000000000000000000000000000008152fd5b507f36595ad4000000000000000000000000000000000000000000000000000000006001600160e01b0319614ee3610c24614edd85876125c6565b90612628565b1614614b96565b60046040517f79cf85c0000000000000000000000000000000000000000000000000000000008152fd5b919060408382031261031e57825167ffffffffffffffff811161031e57602091614f3f918501612ee3565b92015190565b929190606084019084526020906060828601528251809152816080860193019160005b828110614f7d57505050506040600091930152565b835161ffff1685529381019392810192600101614f68565b929192614fad610949608f546001600160a01b031690565b9160409081519586947feaa19ab30000000000000000000000000000000000000000000000000000000086526000958691818381614fef888b60048401614f45565b03925af18015610af25785978691615087575b50968051955b8681106150185750505050505050565b8061502560019284612298565b516150308186613ef8565b61ffff615040614c488489612298565b88518a81523360208201526001600160a01b0388169391909216917f598baf7bf150ca2f42be9e9f8f55e81d45f5715c3ff22bf46d697fabec7f31d690604090a401615008565b90506150a69197503d8087833e61509e8183610d97565b810190614f14565b96909638615002565b6001600160a01b036007541633036150c357565b606460405162461bcd60e51b815260206004820152602060248201527f4f776e61626c653a2063616c6c6572206973206e6f7420746865206f776e65726044820152fd5b600754906001600160a01b0380911691826001600160a01b0319821617600755167f8be0079c531659141344cd1fd0a4f28419497f9722a3daafe3b4186f6b6457e0600080a3565b904381101561520b576151619061552a565b90805491600063ffffffff8092165b8482106151b7575050508161518757506000919050565b6151ac6151b39161519f6001600160e01b039461240a565b9060005260206000200190565b5460201c90565b1690565b9091938083169080841860011c82018092116122d0578460005282866151e88460206000200163ffffffff90541690565b1611156151f95750935b9190615170565b949250615205906122c2565b916151f2565b606460405162461bcd60e51b815260206004820152602060248201527f436865636b706f696e74733a20626c6f636b206e6f7420796574206d696e65646044820152fd5b6001600160e01b0392918361526383615326565b169081018091116122d0576152774361552a565b918482116152945784928361528d931691615410565b9316921690565b608460405162461bcd60e51b815260206004820152602760248201527f53616665436173743a2076616c756520646f65736e27742066697420696e203260448201527f32342062697473000000000000000000000000000000000000000000000000006064820152fd5b6001600160e01b0392918361531283615326565b169081039081116122d0576152774361552a565b80546000918161533857505050600090565b6000199282848101116122d05760209181522001015460201c90565b90815468010000000000000000811015610d61576001810180845581101561229357600092835260209283902082519284015190931b63ffffffff191663ffffffff9290921691909117910155565b906040516153b081610d45565b602081935463ffffffff81168352811c910152565b156153cc57565b606460405162461bcd60e51b815260206004820152601760248201527f436865636b706f696e743a20696e76616c6964206b65790000000000000000006044820152fd5b909291928382548015156000146154ff5792602092918461544b61544661543961289f9861240a565b8560005260206000200190565b6153a3565b9361545a855163ffffffff1690565b61547163ffffffff918284169283911611156153c5565b61548b615482875163ffffffff1690565b63ffffffff1690565b036154c957506154bb9261519f6154a19261240a565b9063ffffffff63ffffffff1983549260201b169116179055565b01516001600160e01b031690565b9150506154fa916154e76154db610dba565b63ffffffff9093168352565b6001600160e01b03881682860152615354565b6154bb565b5050615524916155106154db610dba565b6001600160e01b0385166020830152615354565b60009190565b63ffffffff9081811161553b571690565b608460405162461bcd60e51b815260206004820152602660248201527f53616665436173743a2076616c756520646f65736e27742066697420696e203360448201527f32206269747300000000000000000000000000000000000000000000000000006064820152fd5b91906000198184098184029182808310920391808303921461563d57633b9aca009081831015615606577f88f2cfb83100cb4e69e7c79c58b316e597157d372fb9787e8e47ce423a2e9c6d94950990828211900360f71b910360091c170290565b60448383604051917f773cc18c00000000000000000000000000000000000000000000000000000000835260048301526024820152fd5b5050633b9aca009004915056fea26469706673582212206b10fc6a17aeeb096600041e26a7c10d012370deb4449cf6eb0244031498169c64736f6c63430008140033",
    "linkReferences": {}
  },
  "methodIdentifiers": {
    "TOTAL_REDEMPTION_WEIGHT()": "640abacd",
    "approve(address,uint256)": "095ea7b3",
    "balanceOf(address)": "70a08231",
    "baseURI()": "6c0360eb",
    "codeOrigin()": "1d153ca4",
    "contractURI()": "e8a3d485",
    "didPay((address,uint256,uint256,(address,uint256,uint256,uint256),(address,uint256,uint256,uint256),uint256,address,bool,string,bytes))": "da9ee8b7",
    "didRedeem((address,uint256,uint256,uint256,(address,uint256,uint256,uint256),(address,uint256,uint256,uint256),address,string,bytes))": "2b13c58f",
    "directory()": "c41c2f24",
    "firstOwnerOf(uint256)": "54c6d1f5",
    "fundingCycleStore()": "557e7155",
    "getApproved(uint256)": "081812fc",
    "getPastTierTotalVotes(uint256,uint256)": "d31cc52c",
    "getPastTierVotes(address,uint256,uint256)": "d40e7146",
    "getTierDelegate(address,uint256)": "82732b6d",
    "getTierTotalVotes(uint256)": "94c5c5ca",
    "getTierVotes(address,uint256)": "ca323efe",
    "initialize(uint256,address,string,string,address,string,address,string,(uint104,uint32,uint32,uint16,address,bytes32,uint24,bool,bool,bool,bool)[],uint48,address,(bool,bool,bool,bool),address)": "f78c488b",
    "isApprovedForAll(address,address)": "e985e9c5",
    "mintReservesFor((uint256,uint256)[])": "2a596e53",
    "mintReservesFor(uint256,uint256)": "aa4fb15b",
    "name()": "06fdde03",
    "noContestReporter()": "aa1623ea",
    "owner()": "8da5cb5b",
    "ownerOf(uint256)": "6352211e",
    "payParams((address,address,(address,uint256,uint256,uint256),uint256,uint256,address,uint256,uint256,string,bytes))": "d46cf171",
    "pricingCurrency()": "64640c1e",
    "projectId()": "3fafa127",
    "redeemParams((address,address,uint256,uint256,uint256,uint256,uint256,(address,uint256,uint256,uint256),bool,uint256,string,bytes))": "a51cfd18",
    "redemptionWeightIsSet()": "a8c15f4a",
    "redemptionWeightOf(uint256)": "4f228e11",
    "redemptionWeightOf(uint256[],(address,address,uint256,uint256,uint256,uint256,uint256,(address,uint256,uint256,uint256),bool,uint256,string,bytes))": "7ba62bf9",
    "renounceOwnership()": "715018a6",
    "safeTransferFrom(address,address,uint256)": "42842e0e",
    "safeTransferFrom(address,address,uint256,bytes)": "b88d4fde",
    "setApprovalForAll(address,bool)": "a22cb465",
    "setTierDelegate(address,uint256)": "ab951e39",
    "setTierDelegates((address,uint256)[])": "c74b13d9",
    "setTierRedemptionWeights((uint256,uint256)[])": "2f441500",
    "store()": "975057e7",
    "supportsInterface(bytes4)": "01ffc9a7",
    "symbol()": "95d89b41",
    "tierRedemptionWeights()": "9df45468",
    "tokenURI(uint256)": "c87b56dd",
    "totalRedemptionWeight((address,address,uint256,uint256,uint256,uint256,uint256,(address,uint256,uint256,uint256),bool,uint256,string,bytes))": "9494bf72",
    "transferFrom(address,address,uint256)": "23b872dd",
    "transferOwnership(address)": "f2fde38b"
  },
  "id": 0
}