{
  "abi": [
    {
      "inputs": [],
      "stateMutability": "nonpayable",
      "type": "constructor"
    },
    {
      "inputs": [],
      "name": "ALEADY_MINTED",
      "type": "error"
    },
    {
      "inputs": [],
      "name": "APPROVAL_TO_CURRENT_OWNER",
      "type": "error"
    },
    {
      "inputs": [],
      "name": "APPROVE_TO_CALLER",
      "type": "error"
    },
    {
      "inputs": [],
      "name": "BAD_TIER_ORDER",
      "type": "error"
    },
    {
      "inputs": [],
      "name": "BLOCK_NOT_YET_MINED",
      "type": "error"
    },
    {
      "inputs": [],
      "name": "CALLER_NOT_OWNER_OR_APPROVED",
      "type": "error"
    },
    {
      "inputs": [],
      "name": "DELEGATE_ADDRESS_ZERO",
      "type": "error"
    },
    {
      "inputs": [],
      "name": "GAME_ISNT_OVER_YET",
      "type": "error"
    },
    {
      "inputs": [],
      "name": "INCORRECT_OWNER",
      "type": "error"
    },
    {
      "inputs": [],
      "name": "INVALID_PAYMENT_EVENT",
      "type": "error"
    },
    {
      "inputs": [],
      "name": "INVALID_REDEMPTION_EVENT",
      "type": "error"
    },
    {
      "inputs": [],
      "name": "INVALID_REDEMPTION_METADATA",
      "type": "error"
    },
    {
      "inputs": [],
      "name": "INVALID_REDEMPTION_WEIGHTS",
      "type": "error"
    },
    {
      "inputs": [],
      "name": "INVALID_TIER_ID",
      "type": "error"
    },
    {
      "inputs": [],
      "name": "INVALID_TOKEN_ID",
      "type": "error"
    },
    {
      "inputs": [],
      "name": "MINT_TO_ZERO",
      "type": "error"
    },
    {
      "inputs": [],
      "name": "NOTHING_TO_CLAIM",
      "type": "error"
    },
    {
      "inputs": [],
      "name": "NOTHING_TO_MINT",
      "type": "error"
    },
    {
      "inputs": [],
      "name": "NOT_AVAILABLE",
      "type": "error"
    },
    {
      "inputs": [],
      "name": "NO_CONTEST",
      "type": "error"
    },
    {
      "inputs": [],
      "name": "OVERSPENDING",
      "type": "error"
    },
    {
      "inputs": [
        {
          "internalType": "uint256",
          "name": "prod1",
          "type": "uint256"
        },
        {
          "internalType": "uint256",
          "name": "denominator",
          "type": "uint256"
        }
      ],
      "name": "PRBMath__MulDivOverflow",
      "type": "error"
    },
    {
      "inputs": [],
      "name": "PRICING_RESOLVER_CHANGES_PAUSED",
      "type": "error"
    },
    {
      "inputs": [],
      "name": "REDEMPTION_WEIGHTS_ALREADY_SET",
      "type": "error"
    },
    {
      "inputs": [],
      "name": "RESERVED_TOKEN_MINTING_PAUSED",
      "type": "error"
    },
    {
      "inputs": [],
      "name": "TRANSFERS_PAUSED",
      "type": "error"
    },
    {
      "inputs": [],
      "name": "TRANSFER_TO_NON_IMPLEMENTER",
      "type": "error"
    },
    {
      "inputs": [],
      "name": "TRANSFER_TO_ZERO_ADDRESS",
      "type": "error"
    },
    {
      "inputs": [],
      "name": "UNAUTHORIZED",
      "type": "error"
    },
    {
      "inputs": [
        {
          "internalType": "uint256",
          "name": "_tokenId",
          "type": "uint256"
        }
      ],
      "name": "UNAUTHORIZED_TOKEN",
      "type": "error"
    },
    {
      "inputs": [],
      "name": "UNEXPECTED_TOKEN_REDEEMED",
      "type": "error"
    },
    {
      "inputs": [],
      "name": "WRONG_CURRENCY",
      "type": "error"
    },
    {
      "anonymous": false,
      "inputs": [
        {
          "indexed": true,
          "internalType": "address",
          "name": "owner",
          "type": "address"
        },
        {
          "indexed": true,
          "internalType": "address",
          "name": "approved",
          "type": "address"
        },
        {
          "indexed": true,
          "internalType": "uint256",
          "name": "tokenId",
          "type": "uint256"
        }
      ],
      "name": "Approval",
      "type": "event"
    },
    {
      "anonymous": false,
      "inputs": [
        {
          "indexed": true,
          "internalType": "address",
          "name": "owner",
          "type": "address"
        },
        {
          "indexed": true,
          "internalType": "address",
          "name": "operator",
          "type": "address"
        },
        {
          "indexed": false,
          "internalType": "bool",
          "name": "approved",
          "type": "bool"
        }
      ],
      "name": "ApprovalForAll",
      "type": "event"
    },
    {
      "anonymous": false,
      "inputs": [
        {
          "indexed": true,
          "internalType": "address",
          "name": "delegator",
          "type": "address"
        },
        {
          "indexed": true,
          "internalType": "address",
          "name": "fromDelegate",
          "type": "address"
        },
        {
          "indexed": true,
          "internalType": "address",
          "name": "toDelegate",
          "type": "address"
        }
      ],
      "name": "DelegateChanged",
      "type": "event"
    },
    {
      "anonymous": false,
      "inputs": [
        {
          "indexed": true,
          "internalType": "uint256",
          "name": "tokenId",
          "type": "uint256"
        },
        {
          "indexed": true,
          "internalType": "uint256",
          "name": "tierId",
          "type": "uint256"
        },
        {
          "indexed": true,
          "internalType": "address",
          "name": "beneficiary",
          "type": "address"
        },
        {
          "indexed": false,
          "internalType": "uint256",
          "name": "totalAmountContributed",
          "type": "uint256"
        },
        {
          "indexed": false,
          "internalType": "address",
          "name": "caller",
          "type": "address"
        }
      ],
      "name": "Mint",
      "type": "event"
    },
    {
      "anonymous": false,
      "inputs": [
        {
          "indexed": true,
          "internalType": "uint256",
          "name": "tokenId",
          "type": "uint256"
        },
        {
          "indexed": true,
          "internalType": "uint256",
          "name": "tierId",
          "type": "uint256"
        },
        {
          "indexed": true,
          "internalType": "address",
          "name": "beneficiary",
          "type": "address"
        },
        {
          "indexed": false,
          "internalType": "address",
          "name": "caller",
          "type": "address"
        }
      ],
      "name": "MintReservedToken",
      "type": "event"
    },
    {
      "anonymous": false,
      "inputs": [
        {
          "indexed": true,
          "internalType": "address",
          "name": "previousOwner",
          "type": "address"
        },
        {
          "indexed": true,
          "internalType": "address",
          "name": "newOwner",
          "type": "address"
        }
      ],
      "name": "OwnershipTransferred",
      "type": "event"
    },
    {
      "anonymous": false,
      "inputs": [
        {
          "indexed": true,
          "internalType": "address",
          "name": "delegate",
          "type": "address"
        },
        {
          "indexed": true,
          "internalType": "uint256",
          "name": "tierId",
          "type": "uint256"
        },
        {
          "indexed": false,
          "internalType": "uint256",
          "name": "previousBalance",
          "type": "uint256"
        },
        {
          "indexed": false,
          "internalType": "uint256",
          "name": "newBalance",
          "type": "uint256"
        },
        {
          "indexed": false,
          "internalType": "address",
          "name": "caller",
          "type": "address"
        }
      ],
      "name": "TierDelegateVotesChanged",
      "type": "event"
    },
    {
      "anonymous": false,
      "inputs": [
        {
          "indexed": true,
          "internalType": "address",
          "name": "from",
          "type": "address"
        },
        {
          "indexed": true,
          "internalType": "address",
          "name": "to",
          "type": "address"
        },
        {
          "indexed": true,
          "internalType": "uint256",
          "name": "tokenId",
          "type": "uint256"
        }
      ],
      "name": "Transfer",
      "type": "event"
    },
    {
      "inputs": [],
      "name": "TOTAL_REDEMPTION_WEIGHT",
      "outputs": [
        {
          "internalType": "uint256",
          "name": "",
          "type": "uint256"
        }
      ],
      "stateMutability": "view",
      "type": "function"
    },
    {
      "inputs": [
        {
          "internalType": "address",
          "name": "to",
          "type": "address"
        },
        {
          "internalType": "uint256",
          "name": "tokenId",
          "type": "uint256"
        }
      ],
      "name": "approve",
      "outputs": [],
      "stateMutability": "nonpayable",
      "type": "function"
    },
    {
      "inputs": [
        {
          "internalType": "address",
          "name": "_owner",
          "type": "address"
        }
      ],
      "name": "balanceOf",
      "outputs": [
        {
          "internalType": "uint256",
          "name": "balance",
          "type": "uint256"
        }
      ],
      "stateMutability": "view",
      "type": "function"
    },
    {
      "inputs": [],
      "name": "baseURI",
      "outputs": [
        {
          "internalType": "string",
          "name": "",
          "type": "string"
        }
      ],
      "stateMutability": "view",
      "type": "function"
    },
    {
      "inputs": [],
      "name": "codeOrigin",
      "outputs": [
        {
          "internalType": "address",
          "name": "",
          "type": "address"
        }
      ],
      "stateMutability": "view",
      "type": "function"
    },
    {
      "inputs": [],
      "name": "contractURI",
      "outputs": [
        {
          "internalType": "string",
          "name": "",
          "type": "string"
        }
      ],
      "stateMutability": "view",
      "type": "function"
    },
    {
      "inputs": [
        {
          "components": [
            {
              "internalType": "address",
              "name": "payer",
              "type": "address"
            },
            {
              "internalType": "uint256",
              "name": "projectId",
              "type": "uint256"
            },
            {
              "internalType": "uint256",
              "name": "currentFundingCycleConfiguration",
              "type": "uint256"
            },
            {
              "components": [
                {
                  "internalType": "address",
                  "name": "token",
                  "type": "address"
                },
                {
                  "internalType": "uint256",
                  "name": "value",
                  "type": "uint256"
                },
                {
                  "internalType": "uint256",
                  "name": "decimals",
                  "type": "uint256"
                },
                {
                  "internalType": "uint256",
                  "name": "currency",
                  "type": "uint256"
                }
              ],
              "internalType": "struct JBTokenAmount",
              "name": "amount",
              "type": "tuple"
            },
            {
              "components": [
                {
                  "internalType": "address",
                  "name": "token",
                  "type": "address"
                },
                {
                  "internalType": "uint256",
                  "name": "value",
                  "type": "uint256"
                },
                {
                  "internalType": "uint256",
                  "name": "decimals",
                  "type": "uint256"
                },
                {
                  "internalType": "uint256",
                  "name": "currency",
                  "type": "uint256"
                }
              ],
              "internalType": "struct JBTokenAmount",
              "name": "forwardedAmount",
              "type": "tuple"
            },
            {
              "internalType": "uint256",
              "name": "projectTokenCount",
              "type": "uint256"
            },
            {
              "internalType": "address",
              "name": "beneficiary",
              "type": "address"
            },
            {
              "internalType": "bool",
              "name": "preferClaimedTokens",
              "type": "bool"
            },
            {
              "internalType": "string",
              "name": "memo",
              "type": "string"
            },
            {
              "internalType": "bytes",
              "name": "metadata",
              "type": "bytes"
            }
          ],
          "internalType": "struct JBDidPayData",
          "name": "_data",
          "type": "tuple"
        }
      ],
      "name": "didPay",
      "outputs": [],
      "stateMutability": "payable",
      "type": "function"
    },
    {
      "inputs": [
        {
          "components": [
            {
              "internalType": "address",
              "name": "holder",
              "type": "address"
            },
            {
              "internalType": "uint256",
              "name": "projectId",
              "type": "uint256"
            },
            {
              "internalType": "uint256",
              "name": "currentFundingCycleConfiguration",
              "type": "uint256"
            },
            {
              "internalType": "uint256",
              "name": "projectTokenCount",
              "type": "uint256"
            },
            {
              "components": [
                {
                  "internalType": "address",
                  "name": "token",
                  "type": "address"
                },
                {
                  "internalType": "uint256",
                  "name": "value",
                  "type": "uint256"
                },
                {
                  "internalType": "uint256",
                  "name": "decimals",
                  "type": "uint256"
                },
                {
                  "internalType": "uint256",
                  "name": "currency",
                  "type": "uint256"
                }
              ],
              "internalType": "struct JBTokenAmount",
              "name": "reclaimedAmount",
              "type": "tuple"
            },
            {
              "components": [
                {
                  "internalType": "address",
                  "name": "token",
                  "type": "address"
                },
                {
                  "internalType": "uint256",
                  "name": "value",
                  "type": "uint256"
                },
                {
                  "internalType": "uint256",
                  "name": "decimals",
                  "type": "uint256"
                },
                {
                  "internalType": "uint256",
                  "name": "currency",
                  "type": "uint256"
                }
              ],
              "internalType": "struct JBTokenAmount",
              "name": "forwardedAmount",
              "type": "tuple"
            },
            {
              "internalType": "address payable",
              "name": "beneficiary",
              "type": "address"
            },
            {
              "internalType": "string",
              "name": "memo",
              "type": "string"
            },
            {
              "internalType": "bytes",
              "name": "metadata",
              "type": "bytes"
            }
          ],
          "internalType": "struct JBDidRedeemData",
          "name": "_data",
          "type": "tuple"
        }
      ],
      "name": "didRedeem",
      "outputs": [],
      "stateMutability": "payable",
      "type": "function"
    },
    {
      "inputs": [],
      "name": "directory",
      "outputs": [
        {
          "internalType": "contract IJBDirectory",
          "name": "",
          "type": "address"
        }
      ],
      "stateMutability": "view",
      "type": "function"
    },
    {
      "inputs": [
        {
          "internalType": "uint256",
          "name": "_tokenId",
          "type": "uint256"
        }
      ],
      "name": "firstOwnerOf",
      "outputs": [
        {
          "internalType": "address",
          "name": "",
          "type": "address"
        }
      ],
      "stateMutability": "view",
      "type": "function"
    },
    {
      "inputs": [],
      "name": "fundingCycleStore",
      "outputs": [
        {
          "internalType": "contract IJBFundingCycleStore",
          "name": "",
          "type": "address"
        }
      ],
      "stateMutability": "view",
      "type": "function"
    },
    {
      "inputs": [
        {
          "internalType": "uint256",
          "name": "tokenId",
          "type": "uint256"
        }
      ],
      "name": "getApproved",
      "outputs": [
        {
          "internalType": "address",
          "name": "",
          "type": "address"
        }
      ],
      "stateMutability": "view",
      "type": "function"
    },
    {
      "inputs": [
        {
          "internalType": "uint256",
          "name": "_tier",
          "type": "uint256"
        },
        {
          "internalType": "uint256",
          "name": "_blockNumber",
          "type": "uint256"
        }
      ],
      "name": "getPastTierTotalVotes",
      "outputs": [
        {
          "internalType": "uint256",
          "name": "",
          "type": "uint256"
        }
      ],
      "stateMutability": "view",
      "type": "function"
    },
    {
      "inputs": [
        {
          "internalType": "address",
          "name": "_account",
          "type": "address"
        },
        {
          "internalType": "uint256",
          "name": "_tier",
          "type": "uint256"
        },
        {
          "internalType": "uint256",
          "name": "_blockNumber",
          "type": "uint256"
        }
      ],
      "name": "getPastTierVotes",
      "outputs": [
        {
          "internalType": "uint256",
          "name": "",
          "type": "uint256"
        }
      ],
      "stateMutability": "view",
      "type": "function"
    },
    {
      "inputs": [
        {
          "internalType": "address",
          "name": "_account",
          "type": "address"
        },
        {
          "internalType": "uint256",
          "name": "_tier",
          "type": "uint256"
        }
      ],
      "name": "getTierDelegate",
      "outputs": [
        {
          "internalType": "address",
          "name": "",
          "type": "address"
        }
      ],
      "stateMutability": "view",
      "type": "function"
    },
    {
      "inputs": [
        {
          "internalType": "uint256",
          "name": "_tier",
          "type": "uint256"
        }
      ],
      "name": "getTierTotalVotes",
      "outputs": [
        {
          "internalType": "uint256",
          "name": "",
          "type": "uint256"
        }
      ],
      "stateMutability": "view",
      "type": "function"
    },
    {
      "inputs": [
        {
          "internalType": "address",
          "name": "_account",
          "type": "address"
        },
        {
          "internalType": "uint256",
          "name": "_tier",
          "type": "uint256"
        }
      ],
      "name": "getTierVotes",
      "outputs": [
        {
          "internalType": "uint256",
          "name": "",
          "type": "uint256"
        }
      ],
      "stateMutability": "view",
      "type": "function"
    },
    {
      "inputs": [
        {
          "internalType": "uint256",
          "name": "_gameId",
          "type": "uint256"
        },
        {
          "internalType": "contract IJBDirectory",
          "name": "_directory",
          "type": "address"
        },
        {
          "internalType": "string",
          "name": "_name",
          "type": "string"
        },
        {
          "internalType": "string",
          "name": "_symbol",
          "type": "string"
        },
        {
          "internalType": "contract IJBFundingCycleStore",
          "name": "_fundingCycleStore",
          "type": "address"
        },
        {
          "internalType": "string",
          "name": "_baseUri",
          "type": "string"
        },
        {
          "internalType": "contract IJBTokenUriResolver",
          "name": "_tokenUriResolver",
          "type": "address"
        },
        {
          "internalType": "string",
          "name": "_contractUri",
          "type": "string"
        },
        {
          "components": [
            {
              "internalType": "uint104",
              "name": "price",
              "type": "uint104"
            },
            {
              "internalType": "uint32",
              "name": "initialQuantity",
              "type": "uint32"
            },
            {
              "internalType": "uint32",
              "name": "votingUnits",
              "type": "uint32"
            },
            {
              "internalType": "uint16",
              "name": "reservedRate",
              "type": "uint16"
            },
            {
              "internalType": "address",
              "name": "reservedTokenBeneficiary",
              "type": "address"
            },
            {
              "internalType": "bytes32",
              "name": "encodedIPFSUri",
              "type": "bytes32"
            },
            {
              "internalType": "uint24",
              "name": "category",
              "type": "uint24"
            },
            {
              "internalType": "bool",
              "name": "allowManualMint",
              "type": "bool"
            },
            {
              "internalType": "bool",
              "name": "shouldUseReservedTokenBeneficiaryAsDefault",
              "type": "bool"
            },
            {
              "internalType": "bool",
              "name": "transfersPausable",
              "type": "bool"
            },
            {
              "internalType": "bool",
              "name": "useVotingUnits",
              "type": "bool"
            }
          ],
          "internalType": "struct JB721TierParams[]",
          "name": "_tiers",
          "type": "tuple[]"
        },
        {
          "internalType": "uint48",
          "name": "_currency",
          "type": "uint48"
        },
        {
          "internalType": "contract IJBTiered721DelegateStore",
          "name": "_store",
          "type": "address"
        },
        {
          "components": [
            {
              "internalType": "bool",
              "name": "lockReservedTokenChanges",
              "type": "bool"
            },
            {
              "internalType": "bool",
              "name": "lockVotingUnitChanges",
              "type": "bool"
            },
            {
              "internalType": "bool",
              "name": "lockManualMintingChanges",
              "type": "bool"
            },
            {
              "internalType": "bool",
              "name": "preventOverspending",
              "type": "bool"
            }
          ],
          "internalType": "struct JBTiered721Flags",
          "name": "_flags",
          "type": "tuple"
        },
        {
          "internalType": "contract IDefifaNoContestReporter",
          "name": "_noContestReporter",
          "type": "address"
        }
      ],
      "name": "initialize",
      "outputs": [],
      "stateMutability": "nonpayable",
      "type": "function"
    },
    {
      "inputs": [
        {
          "internalType": "address",
          "name": "owner",
          "type": "address"
        },
        {
          "internalType": "address",
          "name": "operator",
          "type": "address"
        }
      ],
      "name": "isApprovedForAll",
      "outputs": [
        {
          "internalType": "bool",
          "name": "",
          "type": "bool"
        }
      ],
      "stateMutability": "view",
      "type": "function"
    },
    {
      "inputs": [
        {
          "components": [
            {
              "internalType": "uint256",
              "name": "tierId",
              "type": "uint256"
            },
            {
              "internalType": "uint256",
              "name": "count",
              "type": "uint256"
            }
          ],
          "internalType": "struct JBTiered721MintReservesForTiersData[]",
          "name": "_mintReservesForTiersData",
          "type": "tuple[]"
        }
      ],
      "name": "mintReservesFor",
      "outputs": [],
      "stateMutability": "nonpayable",
      "type": "function"
    },
    {
      "inputs": [
        {
          "internalType": "uint256",
          "name": "_tierId",
          "type": "uint256"
        },
        {
          "internalType": "uint256",
          "name": "_count",
          "type": "uint256"
        }
      ],
      "name": "mintReservesFor",
      "outputs": [],
      "stateMutability": "nonpayable",
      "type": "function"
    },
    {
      "inputs": [],
      "name": "name",
      "outputs": [
        {
          "internalType": "string",
          "name": "",
          "type": "string"
        }
      ],
      "stateMutability": "view",
      "type": "function"
    },
    {
      "inputs": [],
      "name": "noContestReporter",
      "outputs": [
        {
          "internalType": "contract IDefifaNoContestReporter",
          "name": "",
          "type": "address"
        }
      ],
      "stateMutability": "view",
      "type": "function"
    },
    {
      "inputs": [],
      "name": "owner",
      "outputs": [
        {
          "internalType": "address",
          "name": "",
          "type": "address"
        }
      ],
      "stateMutability": "view",
      "type": "function"
    },
    {
      "inputs": [
        {
          "internalType": "uint256",
          "name": "tokenId",
          "type": "uint256"
        }
      ],
      "name": "ownerOf",
      "outputs": [
        {
          "internalType": "address",
          "name": "",
          "type": "address"
        }
      ],
      "stateMutability": "view",
      "type": "function"
    },
    {
      "inputs": [
        {
          "components": [
            {
              "internalType": "contract IJBPaymentTerminal",
              "name": "terminal",
              "type": "address"
            },
            {
              "internalType": "address",
              "name": "payer",
              "type": "address"
            },
            {
              "components": [
                {
                  "internalType": "address",
                  "name": "token",
                  "type": "address"
                },
                {
                  "internalType": "uint256",
                  "name": "value",
                  "type": "uint256"
                },
                {
                  "internalType": "uint256",
                  "name": "decimals",
                  "type": "uint256"
                },
                {
                  "internalType": "uint256",
                  "name": "currency",
                  "type": "uint256"
                }
              ],
              "internalType": "struct JBTokenAmount",
              "name": "amount",
              "type": "tuple"
            },
            {
              "internalType": "uint256",
              "name": "projectId",
              "type": "uint256"
            },
            {
              "internalType": "uint256",
              "name": "currentFundingCycleConfiguration",
              "type": "uint256"
            },
            {
              "internalType": "address",
              "name": "beneficiary",
              "type": "address"
            },
            {
              "internalType": "uint256",
              "name": "weight",
              "type": "uint256"
            },
            {
              "internalType": "uint256",
              "name": "reservedRate",
              "type": "uint256"
            },
            {
              "internalType": "string",
              "name": "memo",
              "type": "string"
            },
            {
              "internalType": "bytes",
              "name": "metadata",
              "type": "bytes"
            }
          ],
          "internalType": "struct JBPayParamsData",
          "name": "_data",
          "type": "tuple"
        }
      ],
      "name": "payParams",
      "outputs": [
        {
          "internalType": "uint256",
          "name": "weight",
          "type": "uint256"
        },
        {
          "internalType": "string",
          "name": "memo",
          "type": "string"
        },
        {
          "components": [
            {
              "internalType": "contract IJBPayDelegate",
              "name": "delegate",
              "type": "address"
            },
            {
              "internalType": "uint256",
              "name": "amount",
              "type": "uint256"
            }
          ],
          "internalType": "struct JBPayDelegateAllocation[]",
          "name": "delegateAllocations",
          "type": "tuple[]"
        }
      ],
      "stateMutability": "view",
      "type": "function"
    },
    {
      "inputs": [],
      "name": "pricingCurrency",
      "outputs": [
        {
          "internalType": "uint256",
          "name": "",
          "type": "uint256"
        }
      ],
      "stateMutability": "view",
      "type": "function"
    },
    {
      "inputs": [],
      "name": "projectId",
      "outputs": [
        {
          "internalType": "uint256",
          "name": "",
          "type": "uint256"
        }
      ],
      "stateMutability": "view",
      "type": "function"
    },
    {
      "inputs": [
        {
          "components": [
            {
              "internalType": "contract IJBPaymentTerminal",
              "name": "terminal",
              "type": "address"
            },
            {
              "internalType": "address",
              "name": "holder",
              "type": "address"
            },
            {
              "internalType": "uint256",
              "name": "projectId",
              "type": "uint256"
            },
            {
              "internalType": "uint256",
              "name": "currentFundingCycleConfiguration",
              "type": "uint256"
            },
            {
              "internalType": "uint256",
              "name": "tokenCount",
              "type": "uint256"
            },
            {
              "internalType": "uint256",
              "name": "totalSupply",
              "type": "uint256"
            },
            {
              "internalType": "uint256",
              "name": "overflow",
              "type": "uint256"
            },
            {
              "components": [
                {
                  "internalType": "address",
                  "name": "token",
                  "type": "address"
                },
                {
                  "internalType": "uint256",
                  "name": "value",
                  "type": "uint256"
                },
                {
                  "internalType": "uint256",
                  "name": "decimals",
                  "type": "uint256"
                },
                {
                  "internalType": "uint256",
                  "name": "currency",
                  "type": "uint256"
                }
              ],
              "internalType": "struct JBTokenAmount",
              "name": "reclaimAmount",
              "type": "tuple"
            },
            {
              "internalType": "bool",
              "name": "useTotalOverflow",
              "type": "bool"
            },
            {
              "internalType": "uint256",
              "name": "redemptionRate",
              "type": "uint256"
            },
            {
              "internalType": "string",
              "name": "memo",
              "type": "string"
            },
            {
              "internalType": "bytes",
              "name": "metadata",
              "type": "bytes"
            }
          ],
          "internalType": "struct JBRedeemParamsData",
          "name": "_data",
          "type": "tuple"
        }
      ],
      "name": "redeemParams",
      "outputs": [
        {
          "internalType": "uint256",
          "name": "reclaimAmount",
          "type": "uint256"
        },
        {
          "internalType": "string",
          "name": "memo",
          "type": "string"
        },
        {
          "components": [
            {
              "internalType": "contract IJBRedemptionDelegate",
              "name": "delegate",
              "type": "address"
            },
            {
              "internalType": "uint256",
              "name": "amount",
              "type": "uint256"
            }
          ],
          "internalType": "struct JBRedemptionDelegateAllocation[]",
          "name": "delegateAllocations",
          "type": "tuple[]"
        }
      ],
      "stateMutability": "view",
      "type": "function"
    },
    {
      "inputs": [],
      "name": "redemptionWeightIsSet",
      "outputs": [
        {
          "internalType": "bool",
          "name": "",
          "type": "bool"
        }
      ],
      "stateMutability": "view",
      "type": "function"
    },
    {
      "inputs": [
        {
          "internalType": "uint256",
          "name": "_tokenId",
          "type": "uint256"
        }
      ],
      "name": "redemptionWeightOf",
      "outputs": [
        {
          "internalType": "uint256",
          "name": "",
          "type": "uint256"
        }
      ],
      "stateMutability": "view",
      "type": "function"
    },
    {
      "inputs": [
        {
          "internalType": "uint256[]",
          "name": "_tokenIds",
          "type": "uint256[]"
        },
        {
          "components": [
            {
              "internalType": "contract IJBPaymentTerminal",
              "name": "terminal",
              "type": "address"
            },
            {
              "internalType": "address",
              "name": "holder",
              "type": "address"
            },
            {
              "internalType": "uint256",
              "name": "projectId",
              "type": "uint256"
            },
            {
              "internalType": "uint256",
              "name": "currentFundingCycleConfiguration",
              "type": "uint256"
            },
            {
              "internalType": "uint256",
              "name": "tokenCount",
              "type": "uint256"
            },
            {
              "internalType": "uint256",
              "name": "totalSupply",
              "type": "uint256"
            },
            {
              "internalType": "uint256",
              "name": "overflow",
              "type": "uint256"
            },
            {
              "components": [
                {
                  "internalType": "address",
                  "name": "token",
                  "type": "address"
                },
                {
                  "internalType": "uint256",
                  "name": "value",
                  "type": "uint256"
                },
                {
                  "internalType": "uint256",
                  "name": "decimals",
                  "type": "uint256"
                },
                {
                  "internalType": "uint256",
                  "name": "currency",
                  "type": "uint256"
                }
              ],
              "internalType": "struct JBTokenAmount",
              "name": "reclaimAmount",
              "type": "tuple"
            },
            {
              "internalType": "bool",
              "name": "useTotalOverflow",
              "type": "bool"
            },
            {
              "internalType": "uint256",
              "name": "redemptionRate",
              "type": "uint256"
            },
            {
              "internalType": "string",
              "name": "memo",
              "type": "string"
            },
            {
              "internalType": "bytes",
              "name": "metadata",
              "type": "bytes"
            }
          ],
          "internalType": "struct JBRedeemParamsData",
          "name": "",
          "type": "tuple"
        }
      ],
      "name": "redemptionWeightOf",
      "outputs": [
        {
          "internalType": "uint256",
          "name": "cumulativeWeight",
          "type": "uint256"
        }
      ],
      "stateMutability": "view",
      "type": "function"
    },
    {
      "inputs": [],
      "name": "renounceOwnership",
      "outputs": [],
      "stateMutability": "nonpayable",
      "type": "function"
    },
    {
      "inputs": [
        {
          "internalType": "address",
          "name": "from",
          "type": "address"
        },
        {
          "internalType": "address",
          "name": "to",
          "type": "address"
        },
        {
          "internalType": "uint256",
          "name": "tokenId",
          "type": "uint256"
        }
      ],
      "name": "safeTransferFrom",
      "outputs": [],
      "stateMutability": "nonpayable",
      "type": "function"
    },
    {
      "inputs": [
        {
          "internalType": "address",
          "name": "from",
          "type": "address"
        },
        {
          "internalType": "address",
          "name": "to",
          "type": "address"
        },
        {
          "internalType": "uint256",
          "name": "tokenId",
          "type": "uint256"
        },
        {
          "internalType": "bytes",
          "name": "data",
          "type": "bytes"
        }
      ],
      "name": "safeTransferFrom",
      "outputs": [],
      "stateMutability": "nonpayable",
      "type": "function"
    },
    {
      "inputs": [
        {
          "internalType": "address",
          "name": "operator",
          "type": "address"
        },
        {
          "internalType": "bool",
          "name": "approved",
          "type": "bool"
        }
      ],
      "name": "setApprovalForAll",
      "outputs": [],
      "stateMutability": "nonpayable",
      "type": "function"
    },
    {
      "inputs": [
        {
          "internalType": "address",
          "name": "_delegatee",
          "type": "address"
        },
        {
          "internalType": "uint256",
          "name": "_tierId",
          "type": "uint256"
        }
      ],
      "name": "setTierDelegate",
      "outputs": [],
      "stateMutability": "nonpayable",
      "type": "function"
    },
    {
      "inputs": [
        {
          "components": [
            {
              "internalType": "address",
              "name": "delegatee",
              "type": "address"
            },
            {
              "internalType": "uint256",
              "name": "tierId",
              "type": "uint256"
            }
          ],
          "internalType": "struct JBTiered721SetTierDelegatesData[]",
          "name": "_setTierDelegatesData",
          "type": "tuple[]"
        }
      ],
      "name": "setTierDelegates",
      "outputs": [],
      "stateMutability": "nonpayable",
      "type": "function"
    },
    {
      "inputs": [
        {
          "components": [
            {
              "internalType": "uint256",
              "name": "id",
              "type": "uint256"
            },
            {
              "internalType": "uint256",
              "name": "redemptionWeight",
              "type": "uint256"
            }
          ],
          "internalType": "struct DefifaTierRedemptionWeight[]",
          "name": "_tierWeights",
          "type": "tuple[]"
        }
      ],
      "name": "setTierRedemptionWeights",
      "outputs": [],
      "stateMutability": "nonpayable",
      "type": "function"
    },
    {
      "inputs": [],
      "name": "store",
      "outputs": [
        {
          "internalType": "contract IJBTiered721DelegateStore",
          "name": "",
          "type": "address"
        }
      ],
      "stateMutability": "view",
      "type": "function"
    },
    {
      "inputs": [
        {
          "internalType": "bytes4",
          "name": "_interfaceId",
          "type": "bytes4"
        }
      ],
      "name": "supportsInterface",
      "outputs": [
        {
          "internalType": "bool",
          "name": "",
          "type": "bool"
        }
      ],
      "stateMutability": "view",
      "type": "function"
    },
    {
      "inputs": [],
      "name": "symbol",
      "outputs": [
        {
          "internalType": "string",
          "name": "",
          "type": "string"
        }
      ],
      "stateMutability": "view",
      "type": "function"
    },
    {
      "inputs": [],
      "name": "tierRedemptionWeights",
      "outputs": [
        {
          "internalType": "uint256[128]",
          "name": "",
          "type": "uint256[128]"
        }
      ],
      "stateMutability": "view",
      "type": "function"
    },
    {
      "inputs": [
        {
          "internalType": "uint256",
          "name": "_tokenId",
          "type": "uint256"
        }
      ],
      "name": "tokenURI",
      "outputs": [
        {
          "internalType": "string",
          "name": "",
          "type": "string"
        }
      ],
      "stateMutability": "view",
      "type": "function"
    },
    {
      "inputs": [
        {
          "components": [
            {
              "internalType": "contract IJBPaymentTerminal",
              "name": "terminal",
              "type": "address"
            },
            {
              "internalType": "address",
              "name": "holder",
              "type": "address"
            },
            {
              "internalType": "uint256",
              "name": "projectId",
              "type": "uint256"
            },
            {
              "internalType": "uint256",
              "name": "currentFundingCycleConfiguration",
              "type": "uint256"
            },
            {
              "internalType": "uint256",
              "name": "tokenCount",
              "type": "uint256"
            },
            {
              "internalType": "uint256",
              "name": "totalSupply",
              "type": "uint256"
            },
            {
              "internalType": "uint256",
              "name": "overflow",
              "type": "uint256"
            },
            {
              "components": [
                {
                  "internalType": "address",
                  "name": "token",
                  "type": "address"
                },
                {
                  "internalType": "uint256",
                  "name": "value",
                  "type": "uint256"
                },
                {
                  "internalType": "uint256",
                  "name": "decimals",
                  "type": "uint256"
                },
                {
                  "internalType": "uint256",
                  "name": "currency",
                  "type": "uint256"
                }
              ],
              "internalType": "struct JBTokenAmount",
              "name": "reclaimAmount",
              "type": "tuple"
            },
            {
              "internalType": "bool",
              "name": "useTotalOverflow",
              "type": "bool"
            },
            {
              "internalType": "uint256",
              "name": "redemptionRate",
              "type": "uint256"
            },
            {
              "internalType": "string",
              "name": "memo",
              "type": "string"
            },
            {
              "internalType": "bytes",
              "name": "metadata",
              "type": "bytes"
            }
          ],
          "internalType": "struct JBRedeemParamsData",
          "name": "",
          "type": "tuple"
        }
      ],
      "name": "totalRedemptionWeight",
      "outputs": [
        {
          "internalType": "uint256",
          "name": "",
          "type": "uint256"
        }
      ],
      "stateMutability": "view",
      "type": "function"
    },
    {
      "inputs": [
        {
          "internalType": "address",
          "name": "from",
          "type": "address"
        },
        {
          "internalType": "address",
          "name": "to",
          "type": "address"
        },
        {
          "internalType": "uint256",
          "name": "tokenId",
          "type": "uint256"
        }
      ],
      "name": "transferFrom",
      "outputs": [],
      "stateMutability": "nonpayable",
      "type": "function"
    },
    {
      "inputs": [
        {
          "internalType": "address",
          "name": "newOwner",
          "type": "address"
        }
      ],
      "name": "transferOwnership",
      "outputs": [],
      "stateMutability": "nonpayable",
      "type": "function"
    }
  ],
  "bytecode": {
    "object": "0x60a0806040523461006e5760078054336001600160a01b0319821681179092556001600160a01b03167f8be0079c531659141344cd1fd0a4f28419497f9722a3daafe3b4186f6b6457e0600080a3306080526159f4908162000074823960805181818161085701526132840152f35b600080fdfe60806040526004361015610013575b600080fd5b60003560e01c806301ffc9a7146103bf57806306fdde03146103b6578063081812fc146103ad578063095ea7b3146103a45780631d153ca41461039b57806323b872dd146103925780632a596e53146103895780632b13c58f146103805780632f441500146103775780633fafa1271461036e57806342842e0e146103655780634f228e111461035c57806354c6d1f514610353578063557e71551461034a5780636352211e14610341578063640abacd1461033857806364640c1e1461032f5780636c0360eb1461032657806370a082311461031d578063715018a6146103145780637ba62bf91461030b57806382732b6d146103025780638da5cb5b146102f95780639494bf72146102f057806394c5c5ca146102e757806395d89b41146102de578063975057e7146102d55780639df45468146102cc578063a22cb465146102c3578063a51cfd18146102ba578063a8c15f4a146102b1578063aa1623ea146102a8578063aa4fb15b1461029f578063ab951e3914610296578063b88d4fde1461028d578063c41c2f2414610284578063c74b13d91461027b578063c87b56dd14610272578063ca323efe14610269578063d31cc52c14610260578063d40e714614610257578063d46cf1711461024e578063da9ee8b714610245578063e8a3d4851461023c578063e985e9c514610233578063f2fde38b1461022a5763f78c488b1461022257600080fd5b61000e612273565b5061000e611f4b565b5061000e611ee0565b5061000e611e38565b5061000e611d11565b5061000e611c54565b5061000e611b98565b5061000e611b69565b5061000e611b15565b5061000e6119ce565b5061000e61191b565b5061000e6118f3565b5061000e61188a565b5061000e6117fd565b5061000e6117dd565b5061000e6117b5565b5061000e611791565b5061000e611706565b5061000e611637565b5061000e61159c565b5061000e611574565b5061000e6114ce565b5061000e611491565b5061000e611473565b5061000e61144b565b5061000e6113fd565b5061000e6113a5565b5061000e6112ea565b5061000e611232565b5061000e61118a565b5061000e611131565b5061000e611111565b5061000e6110f2565b5061000e6110ca565b5061000e6110ab565b5061000e611084565b5061000e61103c565b5061000e61101d565b5061000e610f89565b5061000e61098f565b5061000e6108cf565b5061000e6108a7565b5061000e610836565b5061000e610748565b5061000e6106fa565b5061000e61061a565b5061000e6103da565b6001600160e01b031981160361000e57565b503461000e57602060031936011261000e576104436001600160e01b0319600435610404816103c8565b167f36595ad4000000000000000000000000000000000000000000000000000000008114908115610447575b5060405190151581529081906020820190565b0390f35b63fbb38e0360e01b811491508115610589575b811561055f575b8115610535575b811561050b575b811561047d575b5038610430565b7f80ac58cd000000000000000000000000000000000000000000000000000000008114915081156104e1575b81156104b7575b5038610476565b7f01ffc9a700000000000000000000000000000000000000000000000000000000915014386104b0565b7f5b5e139f00000000000000000000000000000000000000000000000000000000811491506104a9565b7f2a55205a000000000000000000000000000000000000000000000000000000008114915061046f565b7f2b13c58f0000000000000000000000000000000000000000000000000000000081149150610468565b7fda9ee8b70000000000000000000000000000000000000000000000000000000081149150610461565b7f71700c69000000000000000000000000000000000000000000000000000000008114915061045a565b600091031261000e57565b60005b8381106105d15750506000910152565b81810151838201526020016105c1565b90601f19601f6020936105ff815180928187528780880191016105be565b0116010190565b9060206106179281815201906105e1565b90565b503461000e576000806003193601126106f7576040519080805461063d81611150565b808552916001918083169081156106cd5750600114610673575b6104438561066781870382610e88565b60405191829182610606565b80809450527f290decd9548b62a8d60345a988386fc84ba6bc95484008f6362f93160ef3e5635b8284106106b557505050810160200161066782610443610657565b8054602085870181019190915290930192810161069a565b8695506104439693506020925061066794915060ff191682840152151560051b8201019293610657565b80fd5b503461000e57602060031936011261000e5760206107196004356140b4565b6001600160a01b0360405191168152f35b6001600160a01b0381160361000e57565b35906107468261072a565b565b503461000e57604060031936011261000e576004356107668161072a565b6024356001600160a01b038061077b8361406a565b16809184161461080c578033141590816107ca575b506107a05761079e91614ac8565b005b60046040517fe5fa0e35000000000000000000000000000000000000000000000000000000008152fd5b905060005260046020526108066108026107fb336040600020906001600160a01b0316600052602052604060002090565b5460ff1690565b1590565b38610790565b60046040517f133f8be9000000000000000000000000000000000000000000000000000000008152fd5b503461000e57600060031936011261000e5760206040516001600160a01b037f0000000000000000000000000000000000000000000000000000000000000000168152f35b600319606091011261000e576004356108938161072a565b906024356108a08161072a565b9060443590565b503461000e576108b63661087b565b906108c1823361414a565b156107a05761079e9261482c565b503461000e5760208060031936011261000e576004359067ffffffffffffffff9081831161000e573660238401121561000e57826004013591821161000e57602490600693368385871b8301011161000e5760005b84811061092d57005b60019061094f6109433687848b1b870101610f42565b8581519101519061394a565b01610924565b90816101e091031261000e5790565b602060031982011261000e576004359067ffffffffffffffff821161000e5761061791600401610955565b5061099936610964565b3415801590610d70575b8015610d60575b610d365760a0810135908115610d0c576101c0810160246109cb82846127c3565b9050108015610cd6575b610cac576109e66109ee91836127c3565b8101906128b7565b9150508051610a14610a086090546001600160a01b031690565b6001600160a01b031690565b600554604080516321d1336160e11b8152600480820184905292969293600391610120918290829060249082905afa918215610c9f575b600092610c72575b505051149586610bde575b5060005b848110610a8e578787610a7488613fbd565b610a7a57005b610a8961079e91608a54612499565b608a55565b610a98818761244a565b51610abd610ab0826000526002602052604060002090565b546001600160a01b031690565b6001600160a01b03610ad1610a08876138c2565b911603610bb657908188610ae6600194614679565b610af2575b5001610a62565b610b6f90610b0b610a08608f546001600160a01b031690565b87865180927f42f9914b0000000000000000000000000000000000000000000000000000000082528180610b49602097889683019190602083019252565b03915afa918215610ba9575b600092610b7c575b5050600052608b602052604060002090565b8054600101905538610aeb565b610b9b9250803d10610ba2575b610b938183610e88565b810190612380565b3880610b5d565b503d610b89565b610bb161238f565b610b55565b8483517f075fd2b1000000000000000000000000000000000000000000000000000000008152fd5b610c1a919650602090610bfc610a086091546001600160a01b031690565b885180809581946367cb9c9960e01b83528983019190602083019252565b03915afa908115610c65575b600091610c37575b50159438610a5e565b610c58915060203d8111610c5e575b610c508183610e88565b810190612966565b38610c2e565b503d610c46565b610c6d61238f565b610c26565b610c919250803d10610c98575b610c898183610e88565b8101906128f2565b3880610a53565b503d610c7f565b610ca761238f565b610a4b565b60046040517f2a84050f000000000000000000000000000000000000000000000000000000008152fd5b5063fbb38e0360e01b6001600160e01b0319610d04610cfe610cf885876127c3565b90612814565b90612836565b1614156109d5565b60046040517f76914729000000000000000000000000000000000000000000000000000000008152fd5b60046040517f7df94b86000000000000000000000000000000000000000000000000000000008152fd5b50600554602082013514156109aa565b50610dd16020610d8b610a086006546001600160a01b031690565b6005546040517f6e49181f000000000000000000000000000000000000000000000000000000008152600481019190915233602482015292839190829081906044820190565b03915afa908115610e0a575b600091610dec575b50156109a3565b610e04915060203d8111610c5e57610c508183610e88565b38610de5565b610e1261238f565b610ddd565b50634e487b7160e01b600052604160045260246000fd5b6040810190811067ffffffffffffffff821117610e4a57604052565b610e52610e17565b604052565b67ffffffffffffffff8111610e4a57604052565b611000810190811067ffffffffffffffff821117610e4a57604052565b90601f601f19910116810190811067ffffffffffffffff821117610e4a57604052565b6040519061074682610e2e565b60405190610160820182811067ffffffffffffffff821117610e4a57604052565b60405190610180820182811067ffffffffffffffff821117610e4a57604052565b60405190610120820182811067ffffffffffffffff821117610e4a57604052565b60209067ffffffffffffffff8111610f35575b60051b0190565b610f3d610e17565b610f2e565b919082604091031261000e576040516040810181811067ffffffffffffffff821117610f7c575b6040526020808294803584520135910152565b610f84610e17565b610f69565b503461000e5760208060031936011261000e576004359067ffffffffffffffff821161000e573660238301121561000e57816004013591610fc983610f1b565b91604093610fd985519485610e88565b80845260248285019160061b8401019236841161000e57602401905b8382106110055761079e85613571565b8286916110123685610f42565b815201910190610ff5565b503461000e57600060031936011261000e576020600554604051908152f35b503461000e5761079e61104e3661087b565b90604051926020840184811067ffffffffffffffff821117611077575b604052600084526140f3565b61107f610e17565b61106b565b503461000e57602060031936011261000e5760206110a3600435612639565b604051908152f35b503461000e57602060031936011261000e57602061071960043561234e565b503461000e57600060031936011261000e5760206001600160a01b0360905416604051908152f35b503461000e57602060031936011261000e57602061071960043561406a565b503461000e57600060031936011261000e576020604051633b9aca008152f35b503461000e57600060031936011261000e576020609254604051908152f35b90600182811c92168015611180575b602083101461116a57565b634e487b7160e01b600052602260045260246000fd5b91607f169161115f565b503461000e576000806003193601126106f75760405190806094546111ae81611150565b808552916001918083169081156106cd57506001146111d7576104438561066781870382610e88565b9250609483527f7047a3cc0a76edcee45792ca71527c753f6167484f14b94c4a3bd2997516725c5b82841061121a57505050810160200161066782610443610657565b805460208587018101919091529093019281016111ff565b503461000e57602060031936011261000e576104436004356112538161072a565b60206001600160a01b03604481608f54169360405194859384927ff7888aec0000000000000000000000000000000000000000000000000000000084523060048501521660248301525afa9081156112dd575b6000916112bf575b506040519081529081906020820190565b6112d7915060203d8111610ba257610b938183610e88565b386112ae565b6112e561238f565b6112a6565b503461000e576000806003193601126106f7576113056153c3565b806001600160a01b036007546001600160a01b03198116600755167f8be0079c531659141344cd1fd0a4f28419497f9722a3daafe3b4186f6b6457e08280a380f35b81601f8201121561000e5780359161135e83610f1b565b9261136c6040519485610e88565b808452602092838086019260051b82010192831161000e578301905b828210611396575050505090565b81358152908301908301611388565b503461000e57604060031936011261000e5767ffffffffffffffff60043581811161000e576113d8903690600401611347565b9060243590811161000e576020916113f76110a3923690600401610955565b506124a6565b503461000e57604060031936011261000e57602060043561141d8161072a565b6001600160a01b03809116600052608c82526040600020602435600052825260406000205416604051908152f35b503461000e57600060031936011261000e5760206001600160a01b0360075416604051908152f35b503461000e5761148236610964565b506020604051633b9aca008152f35b503461000e57602060031936011261000e57600435600052608e60205260206001600160e01b036114c56040600020615656565b16604051908152f35b503461000e576000806003193601126106f757604051908060018054916114f483611150565b808652928281169081156106cd575060011461151a576104438561066781870382610e88565b92508083527fb10e2d527612073b26eecdfd717e6a320cf44b4afac2b0732d9fcbe2b7fa0cf65b82841061155c57505050810160200161066782610443610657565b80546020858701810191909152909301928101611541565b503461000e57600060031936011261000e5760206001600160a01b03608f5416604051908152f35b503461000e57600060031936011261000e576040516115ba81610e6b565b6110008091369037604051600a6000825b6080821061160c575050506115df81610e6b565b60405190600090825b608083106115f557505050f35b6001908251815260208091019201920191906115e8565b60016020819285548152019301910190916115cb565b8015150361000e57565b359061074682611622565b503461000e57604060031936011261000e576004356116558161072a565b60243561166181611622565b6001600160a01b038216918233146116dc5761169d903360005260046020526040600020906001600160a01b0316600052602052604060002090565b9015159060ff1981541660ff83161790556040519081527f17307eab39ab6107e8899845ad3d59bd9653f200f220920489ca2b5937696c3160203392a3005b60046040517f0df0273a000000000000000000000000000000000000000000000000000000008152fd5b503461000e5761171d61171836610964565b61297b565b60409291928051938493845261173f60209160608387015260608601906105e1565b90848203838601528080855193848152019401926000905b8382106117645786860387f35b845180516001600160a01b0316875283015186840152879650948501949382019360019190910190611757565b503461000e57600060031936011261000e57602060ff609354166040519015158152f35b503461000e57600060031936011261000e5760206001600160a01b0360915416604051908152f35b503461000e57604060031936011261000e5761079e60243560043561394a565b503461000e57604060031936011261000e5761079e60043561181e8161072a565b6024359033613d06565b601f19601f60209267ffffffffffffffff8111611846575b01160190565b61184e610e17565b611840565b92919261185f82611828565b9161186d6040519384610e88565b82948184528183011161000e578281602093846000960137010152565b503461000e57608060031936011261000e576004356118a88161072a565b6024356118b48161072a565b6064359167ffffffffffffffff831161000e573660238401121561000e576118e961079e933690602481600401359101611853565b91604435916140f3565b503461000e57600060031936011261000e5760206001600160a01b0360065416604051908152f35b503461000e5760208060031936011261000e576004359067ffffffffffffffff821161000e573660238301121561000e5781600401359161195b83610f1b565b9160409361196b85519485610e88565b80845260248285019160061b8401019236841161000e57602401905b8382106119975761079e856138cc565b858236031261000e5782869182516119ae81610e2e565b84356119b98161072a565b81528285013583820152815201910190611987565b503461000e57602060031936011261000e576104436119f8610a08608f546001600160a01b031690565b6040517f0fab094700000000000000000000000000000000000000000000000000000000815230600482015290602090829060249082905afa908115611b08575b600091611ada575b50600060405180927fda0544aa000000000000000000000000000000000000000000000000000000008252816001600160a01b0381611a8a600435600483019190602083019252565b0392165afa908115611acd575b600091611aac575b5060405191829182610606565b611ac7913d8091833e611abf8183610e88565b8101906123f3565b38611a9f565b611ad561238f565b611a97565b611afb915060203d8111611b01575b611af38183610e88565b81019061239c565b38611a41565b503d611ae9565b611b1061238f565b611a39565b503461000e57604060031936011261000e576001600160a01b03600435611b3b8161072a565b16600052608d602052604060002060243560005260205260206001600160e01b036114c56040600020615656565b503461000e57604060031936011261000e57600435600052608e60205260206110a36024356040600020615463565b503461000e57606060031936011261000e576001600160a01b03600435611bbe8161072a565b16600052608d602052604060002060243560005260205260206110a36044356040600020615463565b91908252611c0160209160608385015260608401906105e1565b90604092838184039101528080855193848152019401926000905b838210611c2b57505050505090565b845180516001600160a01b03168752830151868401529485019493820193600190910190611c1c565b503461000e576020600319818136011261000e576004359067ffffffffffffffff821161000e576101a090823603011261000e57611ca3611c9c6101648301836004016127c3565b3691611853565b60405190611cb082610e2e565b6001825260005b848110611cfb57509061044391610124946000611cd2610eab565b30815291820152611ce283612430565b52611cec82612430565b50604051948594013584611be7565b8490611d05612862565b82828601015201611cb7565b5060031960208136011261000e576004359067ffffffffffffffff821161000e5761020090823603011261000e57600554341590811591611d9e575b8115611d8f575b50611d655761079e90600401614e77565b60046040517fc715ec6c000000000000000000000000000000000000000000000000000000008152fd5b90506024820135141538611d54565b9050611db5610a086006546001600160a01b031690565b6040517f6e49181f0000000000000000000000000000000000000000000000000000000081526004810183905233602482015290602090829060449082905afa908115611e2b575b600091611e0d575b501590611d4d565b611e25915060203d8111610c5e57610c508183610e88565b38611e05565b611e3361238f565b611dfd565b503461000e576000806003193601126106f7576040519080609554611e5c81611150565b808552916001918083169081156106cd5750600114611e85576104438561066781870382610e88565b9250609583527f947035e97d0f7e1937f791bc189f60c984ceaaa7a8494fc67f9f8f4de8ccf2c65b828410611ec857505050810160200161066782610443610657565b80546020858701810191909152909301928101611ead565b503461000e57604060031936011261000e57602060ff611f3f600435611f058161072a565b6001600160a01b0360243591611f1a8361072a565b16600052600484526040600020906001600160a01b0316600052602052604060002090565b54166040519015158152f35b503461000e57602060031936011261000e57600435611f698161072a565b611f716153c3565b6001600160a01b03811615611f895761079e9061541b565b608460405162461bcd60e51b815260206004820152602660248201527f4f776e61626c653a206e6577206f776e657220697320746865207a65726f206160448201527f64647265737300000000000000000000000000000000000000000000000000006064820152fd5b602435906107468261072a565b9080601f8301121561000e5781602061061793359101611853565b608435906107468261072a565b60c435906107468261072a565b35906cffffffffffffffffffffffffff8216820361000e57565b359063ffffffff8216820361000e57565b359061ffff8216820361000e57565b359062ffffff8216820361000e57565b81601f8201121561000e5780359061209682610f1b565b926040906120a682519586610e88565b83855260209182860191836101608097028601019481861161000e578401925b8584106120d7575050505050505090565b868483031261000e578487916120eb610eb8565b6120f487612035565b815261210183880161204f565b8382015261211086880161204f565b868201526060612121818901612060565b90820152608061213281890161073b565b9082015260a0808801359082015260c061214d81890161206f565b9082015260e061215e81890161162c565b9082015261010061217081890161162c565b9082015261012061218281890161162c565b9082015261014061219481890161162c565b908201528152019301926120c6565b610124359065ffffffffffff8216820361000e57565b61014435906107468261072a565b7ffffffffffffffffffffffffffffffffffffffffffffffffffffffffffffffe9c608091011261000e57604051906080820182811067ffffffffffffffff821117612258575b604052816101643561221e81611622565b81526101843561222d81611622565b60208201526101a43561223f81611622565b604082015260606101c4359161225483611622565b0152565b612260610e17565b61220d565b6101e435906107468261072a565b503461000e5761020060031936011261000e5761228e611ff3565b60443567ffffffffffffffff9182821161000e576122b160049236908401612000565b60643584811161000e576122c89036908501612000565b6122d061201b565b60a43586811161000e576122e79036908701612000565b6122ef612028565b60e43588811161000e576123069036908901612000565b916101043598891161000e5761232261079e9936908a0161207f565b9361232b6121a3565b956123346121b9565b9761233e366121c7565b99612347612265565b9b3561326e565b60005260086020526001600160a01b0380604060002054168061237b575060026020526040600020541690565b905090565b9081602091031261000e575190565b506040513d6000823e3d90fd5b9081602091031261000e57516106178161072a565b81601f8201121561000e5780516123c781611828565b926123d56040519485610e88565b8184526020828401011161000e5761061791602080850191016105be565b9060208282031261000e57815167ffffffffffffffff811161000e5761061792016123b1565b50634e487b7160e01b600052603260045260246000fd5b60209080511561243e570190565b612446612419565b0190565b602091815181101561245f575b60051b010190565b612467612419565b612457565b50634e487b7160e01b600052601160045260246000fd5b906001820180921161249157565b61074661246c565b9190820180921161249157565b9060009180516000915b8183106124bc57505050565b9091936001906124d56124cf878561244a565b51612639565b81018091116124e8575b940191906124b0565b6124f061246c565b6124df565b51906107468261072a565b519061074682611622565b60208183031261000e57805167ffffffffffffffff9182821161000e57016101808184031261000e5761253c610ed9565b92815184526020820151602085015260408201516040850152606082015160608501526080820151608085015260a082015160a085015261257f60c083016124f5565b60c085015260e082015160e085015261010080830151908501526101206125a7818401612500565b908501526101406125b9818401612500565b90850152610160928383015190811161000e576125d692016123b1565b9082015290565b90600019820191821161249157565b9190820391821161249157565b608081101561260c575b600a0190600090565b612614612419565b612603565b8115612623570490565b634e487b7160e01b600052601260045260246000fd5b61268c6020612653610a08608f546001600160a01b031690565b92604051809381927f42f9914b000000000000000000000000000000000000000000000000000000008352600483019190602083019252565b0381855afa9081156127b6575b600091612798575b506040516364faa15960e01b8152306004820152602481018290526000604482018190529092839060649082905afa91821561278b575b600092612768575b506126ff6126f56126f0836125dd565b6125f9565b90549060031b1c90565b90811561276057606083019061271d604083519501948551906125ec565b156127575761274a6127396106179561275194519051906125ec565b91600052608b602052604060002090565b5490612499565b90612619565b50505050600090565b505050600090565b61278491923d8091833e61277c8183610e88565b81019061250b565b90386126e0565b61279361238f565b6126d8565b6127b0915060203d8111610ba257610b938183610e88565b386126a1565b6127be61238f565b612699565b9035907fffffffffffffffffffffffffffffffffffffffffffffffffffffffffffffffe18136030182121561000e570180359067ffffffffffffffff821161000e5760200191813603831361000e57565b9060241161000e5760200190600490565b9060441161000e5760400190600490565b6001600160e01b0319903581811693926004811061285357505050565b60040360031b82901b16169150565b6040519061286f82610e2e565b60006020838281520152565b6040519061288882610e2e565b600182528160005b602090818110156128b2576020916128a6612862565b90828501015201612890565b505050565b9160608383031261000e5782359260208101356128d3816103c8565b92604082013567ffffffffffffffff811161000e576106179201611347565b908161012091031261000e57612906610efa565b90805182526020810151602083015260408101516040830152606081015160608301526080810151608083015260a081015160a083015260c081015160c083015261295360e082016124f5565b60e0830152610100809101519082015290565b9081602091031261000e575161061781611622565b90600090816080840135612c5e576101c0840190602461299b83876127c3565b9050108015612c34575b610cac576129b161287b565b936129e66109e66129c0610eab565b3081529460209584878201526129d589612430565b526129df88612430565b50886127c3565b949150506129ff610a086090546001600160a01b031690565b916040808901359381516321d1336160e11b81526101209081816004948180612a2f8c8983019190602083019252565b03915afa918215612c27575b8592612c0a575b50505184600196878314928315612bff575b508215612b82575b5050612aa157505050505050611c9c612a91612a9d92612a8b612a85608a5460c08a0135612499565b916124a6565b90615919565b946101a08101906127c3565b9190565b9498959291908351938296612ac1610a08608f546001600160a01b031690565b915b868910612ae557505050505050505050611c9c816101a0612a9d9301906127c3565b90919293949596889c87612b3488612afe859d8761244a565b5189518093819263c44a8e6d60e01b8352308b840160409060009294936001600160a01b03606083019616825260208201520152565b03818a5afa908115612b75575b8991612b5b575b500151019c019796959493929190612ac3565b612b6f91503d808b833e61277c8183610e88565b38612b48565b612b7d61238f565b612b41565b612bba9250612b9c610a086091546001600160a01b031690565b855180809581946367cb9c9960e01b83528883019190602083019252565b03915afa908115612bf2575b8491612bd5575b508438612a5c565b612bec9150853d8711610c5e57610c508183610e88565b38612bcd565b612bfa61238f565b612bc6565b600214925038612a54565b612c209250803d10610c9857610c898183610e88565b3880612a42565b612c2f61238f565b612a3b565b5063fbb38e0360e01b6001600160e01b0319612c56610cfe610cf8868a6127c3565b1614156129a5565b60046040517f4fc178d8000000000000000000000000000000000000000000000000000000008152fd5b600a5b608a8110612c965750565b60008155600101612c8b565b818110612cad575050565b60008155600101612ca2565b90601f8211612cc6575050565b61074691600080527f290decd9548b62a8d60345a988386fc84ba6bc95484008f6362f93160ef3e563906020601f840160051c83019310612d0f575b601f0160051c0190612ca2565b9091508190612d02565b90601f8211612d26575050565b6107469160946000527f7047a3cc0a76edcee45792ca71527c753f6167484f14b94c4a3bd2997516725c906020601f840160051c83019310612d0f57601f0160051c0190612ca2565b90601f8211612d7c575050565b6107469160956000527f947035e97d0f7e1937f791bc189f60c984ceaaa7a8494fc67f9f8f4de8ccf2c6906020601f840160051c83019310612d0f57601f0160051c0190612ca2565b90601f8211612dd2575050565b6107469160016000527fb10e2d527612073b26eecdfd717e6a320cf44b4afac2b0732d9fcbe2b7fa0cf6906020601f840160051c83019310612d0f57601f0160051c0190612ca2565b90815167ffffffffffffffff8111612f05575b612e4281612e3d609454611150565b612d19565b602080601f8311600114612e7d5750819293600092612e72575b50506000198260011b9260031b1c191617609455565b015190503880612e5c565b90601f19831694612eb060946000527f7047a3cc0a76edcee45792ca71527c753f6167484f14b94c4a3bd2997516725c90565b926000905b878210612eed575050836001959610612ed4575b505050811b01609455565b015160001960f88460031b161c19169055388080612ec9565b80600185968294968601518155019501930190612eb5565b612f0d610e17565b612e2e565b90815167ffffffffffffffff8111612ffc575b612f3981612f34609554611150565b612d6f565b602080601f8311600114612f745750819293600092612f69575b50506000198260011b9260031b1c191617609555565b015190503880612f53565b90601f19831694612fa760956000527f947035e97d0f7e1937f791bc189f60c984ceaaa7a8494fc67f9f8f4de8ccf2c690565b926000905b878210612fe4575050836001959610612fcb575b505050811b01609555565b015160001960f88460031b161c19169055388080612fc0565b80600185968294968601518155019501930190612fac565b613004610e17565b612f25565b90815167ffffffffffffffff81116130f1575b6001906130328161302d8454611150565b612dc5565b602080601f831160011461306c575081929394600092613061575b505060001982841b9260031b1c1916179055565b01519050388061304d565b90601f1983169561309f60016000527fb10e2d527612073b26eecdfd717e6a320cf44b4afac2b0732d9fcbe2b7fa0cf690565b926000905b8882106130da57505083859697106130c1575b505050811b019055565b015160001960f88460031b161c191690553880806130b7565b8087859682949686015181550195019301906130a4565b6130f9610e17565b61301c565b81601f8201121561000e5780519161311583610f1b565b926131236040519485610e88565b808452602092838086019260051b82010192831161000e578301905b82821061314d575050505090565b8151815290830190830161313f565b9060208282031261000e57815167ffffffffffffffff811161000e5761061792016130fe565b60208082019080835283518092528060408094019401926000905b8382106131ac57505050505090565b90919293948361016060019261326189516131d68382516cffffffffffffffffffffffffff169052565b8085015163ffffffff16838601528087015163ffffffff168388015260608181015161ffff16908401526080818101516001600160a01b03169084015260a0818101519084015260c08082015162ffffff169084015260e081810151151590840152610100818101511515908401526101208181015115159084015261014090810151151590830152565b019601949392019061319d565b94959b9398909a99979a6001600160a01b03998a7f000000000000000000000000000000000000000000000000000000000000000016301461000e578a6132c0610a08608f546001600160a01b031690565b1661000e576132e16133239565ffffffffffff956132fd9461333f9a614c93565b6001600160a01b03166001600160a01b03196090541617609055565b61331d886001600160a01b03166001600160a01b0319608f541617608f55565b16609255565b6001600160a01b03166001600160a01b03196091541617609155565b8051613562575b508051613553575b508185166134cd575b61339594501691604051907f8da5e32b0000000000000000000000000000000000000000000000000000000082528180600096879360048301613182565b038183875af180156134c0575b61349e575b50805115158015613491575b8015613484575b8015613477575b6133d2575b5050506107463361541b565b813b1561347357604080517fcb827e3200000000000000000000000000000000000000000000000000000000815282511515600482015260208301511515602482015290820151151560448201526060909101511515606482015291908290608490829084905af18015613466575b61344d575b80806133c6565b8061345a61346092610e57565b806105b3565b38613446565b61346e61238f565b613441565b8280fd5b50606081015115156133c1565b50604081015115156133ba565b50602081015115156133b3565b6134b9903d8086833e6134b18183610e88565b81019061315c565b50386133a7565b6134c861238f565b6133a2565b81811694853b1561000e576040517fd84a72c00000000000000000000000000000000000000000000000000000000081526001600160a01b03919091166004820152613395956000908290602490829084905af18015613546575b613533575b50613357565b8061345a61354092610e57565b3861352d565b61354e61238f565b613528565b61355c90612f12565b3861334e565b61356b90612e1b565b38613346565b6135796153c3565b61358e610a086090546001600160a01b031690565b9060055490604091600383516321d1336160e11b815261012090818160049881806135c0898d83019190602083019252565b03915afa9182156138a2575b600092613885575b5050511061385d5760935460ff1661383557613622906135ff610a086091546001600160a01b031690565b90845180926367cb9c9960e01b8252818060209687958b83019190602083019252565b03915afa908115613828575b60009161380b575b506137e357613643612c88565b613658610a08608f546001600160a01b031690565b9080845180937ff1bea54f000000000000000000000000000000000000000000000000000000008252818061369f308b83019190916001600160a01b036020820193169052565b03915afa9182156137d6575b6000926137b7575b50909160009181519183945b8386106137105750505050633b9aca009150116136ea575050610746600160ff196093541617609355565b517f6ff44e97000000000000000000000000000000000000000000000000000000008152fd5b909192938161371f878561244a565b51511161378f5761378360019161376f8661373a8a8861244a565b5101516137546126f061374d8c8a61244a565b51516125dd565b90919082549060031b600019811b9283911b16911916179055565b8561377a898761244a565b51015190612499565b950194939291906136bf565b8787517f52385374000000000000000000000000000000000000000000000000000000008152fd5b816137cf9293503d8411610ba257610b938183610e88565b90386136b3565b6137de61238f565b6136ab565b5050517f6fb84075000000000000000000000000000000000000000000000000000000008152fd5b6138229150823d8411610c5e57610c508183610e88565b38613636565b61383061238f565b61362e565b5050517f38101407000000000000000000000000000000000000000000000000000000008152fd5b5050517ff8228d40000000000000000000000000000000000000000000000000000000008152fd5b61389b9250803d10610c9857610c898183610e88565b38806135d4565b6138aa61238f565b6135cc565b8181029291811591840414171561249157565b356106178161072a565b8051906138d7612862565b5060005b8281106138e757505050565b6138f1818361244a565b51906001600160a01b0380835116156139205782602061391a9260019551169101519033613d06565b016138db565b60046040517f53d304f4000000000000000000000000000000000000000000000000000000008152fd5b919091613962610a086090546001600160a01b031690565b906139c060ff61010061399960055495604096875180926321d1336160e11b82528180610120968795600483019190602083019252565b03915afa918215613cf9575b600092613cdc575b5050015160f41c1660018091811c161490565b613cb3576139d9610a08608f546001600160a01b031690565b82517f136e651c000000000000000000000000000000000000000000000000000000008152306004820152602481018390529490602090869060449082905afa948515613ca6575b600095613c86575b50613a5d610ab083613a4e886001600160a01b0316600052608c602052604060002090565b90600052602052604060002090565b6001600160a01b0391828216159081613c17575b613a86610a08608f546001600160a01b031690565b86517fbaa7e80e000000000000000000000000000000000000000000000000000000008152600481018790526024810183905294906000908690604490829084905af1948515613c0a575b600095613bef575b5060005b828110613ba0575050509561074695966000613b04610a08608f546001600160a01b031690565b96516364faa15960e01b8152306004820152602481018790526000604482015296879060649082905afa958615613b93575b600096613b6b575b5091602091613b5d949315600014613b635750945b01519051906138af565b91613dfe565b905094613b53565b91613b88602093613b5d969593983d8091833e61277c8183610e88565b969193945091613b3e565b613b9b61238f565b613b36565b808a88613baf6001948a61244a565b51613bba81846141cb565b8b51338152928616927f031e1988c95a91ec4d655ff63a8f87a80bc9daf28d95ae10ee08c0022cfb5c8b90602090a401613add565b613c0391953d8091833e6134b18183610e88565b9338613ad9565b613c1261238f565b613ad1565b613c5788613c3c87613a4e836001600160a01b0316600052608c602052604060002090565b906001600160a01b03166001600160a01b0319825416179055565b8388166000817f3134e8a2e6d97e929a7e54011ea5485d7d196dd5f0ba4d4ef95803e8e3fc257f8280a4613a71565b613c9f91955060203d8111611b0157611af38183610e88565b9338613a29565b613cae61238f565b613a21565b600482517fe96092b8000000000000000000000000000000000000000000000000000000008152fd5b613cf29250803d10610c9857610c898183610e88565b38806139ad565b613d0161238f565b6139a5565b6001600160a01b039081166000818152608c602090815260408083208784528252822080548686166001600160a01b03198216179091556107469692959294929390831692909190819080861685857f3134e8a2e6d97e929a7e54011ea5485d7d196dd5f0ba4d4ef95803e8e3fc257f8b80a4608f5416926064604051809581937f2e4d0ea800000000000000000000000000000000000000000000000000000000835230600484015260248301528960448301525afa958615613df1575b95613dd2575b5050613e8f565b613de9929550803d10610ba257610b938183610e88565b923880613dcb565b613df961238f565b613dc5565b9061074692916000828152608e602052613e1b8460408320615571565b505060406001600160a01b039182841615613e74575b808052608c602052818120858252602052613e65838383205416946001600160a01b0316600052608c602052604060002090565b85825260205220541690613e8f565b848152608e602052613e888683832061562e565b5050613e31565b9192906001600160a01b03928382169381168481148015613fb5575b613fad57859181613f3a575b50505082613ec6575b50505050565b7fed0c1e94c302bdbbd8bbd6a4fb7c3ed335c2292407cd816eadd075d019d0ce0491613f08613f19926001600160a01b0316600052608d602052604060002090565b856000526020526040600020615571565b6040805192835260208301919091523390820152606090a338808080613ec0565b613f57906001600160a01b0316600052608d602052604060002090565b826000526020527fed0c1e94c302bdbbd8bbd6a4fb7c3ed335c2292407cd816eadd075d019d0ce04613f8d85604060002061562e565b6040805192835260208301919091523390820152606090a3833880613eb7565b505050505050565b508315613eab565b6001600160a01b03608f5416803b1561000e5760405180927f86bc2be3000000000000000000000000000000000000000000000000000000008252602482016020908160048501528251809152816044850193019160005b82811061405357505050509181600081819503925af18015614046575b6140395750565b8061345a61074692610e57565b61404e61238f565b614032565b835185528795509381019392810192600101614015565b60005260026020526001600160a01b0360406000205416801561408a5790565b60046040517fb49aa3b5000000000000000000000000000000000000000000000000000000008152fd5b6140d48160005260026020526001600160a01b0360406000205416151590565b1561408a5760005260036020526001600160a01b036040600020541690565b929190614100823361414a565b156107a0578361411483836141199761482c565b614ba6565b1561412057565b60046040517f6deaf836000000000000000000000000000000000000000000000000000000008152fd5b6001600160a01b038061415c8461406a565b169281831692848414948515614192575b5050831561417c575b50505090565b614188919293506140b4565b1614388080614176565b60ff929550906141c19160005260046020526040600020906001600160a01b0316600052602052604060002090565b541692388061416d565b9190916001600160a01b038116908115614356576141ff8460005260026020526001600160a01b0360406000205416151590565b61432c578360009281845260026020526142328360408620906001600160a01b03166001600160a01b0319825416179055565b837fddf252ad1be2c89b69c2b068fc378daa952ba7f163c4a11628f55a4df523b3ef8180a461429f82614270610a08608f546001600160a01b031690565b60405163c44a8e6d60e01b81523060048201526024810197909752600060448801529591829081906064820190565b0381885afa90811561431f575b8391614305575b505193803b15613473576040516330b157e560e21b81526004810195909552600060248601526001600160a01b039190911660448501529192918290606490829084905af18015614046576140395750565b61431991503d8085833e61277c8183610e88565b386142b3565b61432761238f565b6142ac565b60046040517fbad7c30c000000000000000000000000000000000000000000000000000000008152fd5b60046040517f7208af1e000000000000000000000000000000000000000000000000000000008152fd5b906143cd929161439b610a08608f546001600160a01b031690565b60405163c44a8e6d60e01b81523060048201526024810193909352600060448401819052948590849081906064820190565b0381845afa92831561447a575b859361445e575b508251813b1561445a576040516330b157e560e21b815260048101919091526001600160a01b038316602482015260006044820152939461074694918290606490829084905af1801561444d575b61443a575b50614590565b8061345a61444792610e57565b38614434565b61445561238f565b61442f565b8580fd5b6144739193503d8087833e61277c8183610e88565b91386143e1565b61448261238f565b6143da565b906144d59392916144a3610a08608f546001600160a01b031690565b60405163c44a8e6d60e01b81523060048201526024810194909452600060448501819052958690859081906064820190565b0381845afa938415614583575b8694614567575b508351813b15614563576040516330b157e560e21b815260048101919091526001600160a01b03838116602483015284166044820152949561074695918290606490829084905af18015614556575b614543575b506145fc565b8061345a61455092610e57565b3861453d565b61455e61238f565b614538565b8680fd5b61457c9194503d8088833e61277c8183610e88565b92386144e9565b61458b61238f565b6144e2565b6001600160a01b038091169182156128b257610746926080825192015192600091838352608e6020526145c6856040852061562e565b50508252608c60205260408220838352602052604081818420541692808052608c60205281812085825260205220541690613e8f565b916001600160a01b03809316918215613ec05761074693604060808451940151948284161561465c575b6000908152608c602052818120858252602052613e65838383205416946001600160a01b0316600052608c602052604060002090565b84600052608e602052614672868360002061562e565b5050614626565b610746906146868161406a565b8160006001600160a01b038316806146e5575b6146a283614a72565b8282526002602052604082206001600160a01b031981541690557fddf252ad1be2c89b69c2b068fc378daa952ba7f163c4a11628f55a4df523b3ef8280a4614380565b614744610140614700610a08608f546001600160a01b031690565b60405163c44a8e6d60e01b81523060048201526024810187905260006044820152908590829060649082905afa90811561481f575b8591614806575b500151151590565b614784575b614763610a08610ab0856000526008602052604060002090565b6146995761477f84613c3c856000526008602052604060002090565b614699565b6147c461479c610a086090546001600160a01b031690565b60055460405180926321d1336160e11b82528180610120968795600483019190602083019252565b03915afa80156147f9575b6147db575b5050614749565b816147f192903d10610c9857610c898183610e88565b5038806147d4565b61480161238f565b6147cf565b614819913d8091833e61277c8183610e88565b3861473c565b61482761238f565b614735565b91906148378261406a565b6001600160a01b0380851694918116859003614a48578216938415614a1e57806148c2575b61074694849161486b83614a72565b826000526002602052614898856040600020906001600160a01b03166001600160a01b0319825416179055565b7fddf252ad1be2c89b69c2b068fc378daa952ba7f163c4a11628f55a4df523b3ef600080a4614487565b6149226101406148dd610a08608f546001600160a01b031690565b60405163c44a8e6d60e01b8152306004820152602481018890526000604482018190529091829060649082905afa908115614a11575b60009161480657500151151590565b614973575b610746948491614947610a08610ab0856000526008602052604060002090565b15614956575b9150945061485c565b61496e84613c3c856000526008602052604060002090565b61494d565b6149b860ff61010061499361479c610a086090546001600160a01b031690565b03915afa918215614a04575b6000926149e7575b5050015160f41c1660018091161490565b156149275760046040517f18cdaf97000000000000000000000000000000000000000000000000000000008152fd5b6149fd9250803d10610c9857610c898183610e88565b38806149a7565b614a0c61238f565b61499f565b614a1961238f565b614913565b60046040517f2c955427000000000000000000000000000000000000000000000000000000008152fd5b60046040517fa195bc53000000000000000000000000000000000000000000000000000000008152fd5b80600052600360205260406000206001600160a01b0319815416905560006001600160a01b03614aa18361406a565b167f8c5be1e5ebec7d5bd14f71427d1e84f3dd0314c0f7b2291e5b200ac8c7c3b9258280a4565b816000526003602052614af5816040600020906001600160a01b03166001600160a01b0319825416179055565b6001600160a01b0380614b078461406a565b169116907f8c5be1e5ebec7d5bd14f71427d1e84f3dd0314c0f7b2291e5b200ac8c7c3b925600080a4565b9081602091031261000e5751610617816103c8565b909261061794936080936001600160a01b038092168452166020830152604082015281606082015201906105e1565b3d15614ba1573d90614b8782611828565b91614b956040519384610e88565b82523d6000602084013e565b606090565b92909190823b15614c8a57614bfa9260209260006001600160a01b036040518097819682957f150b7a02000000000000000000000000000000000000000000000000000000009b8c85523360048601614b47565b0393165af160009181614c5a575b50614c4c57614c15614b76565b80519081614c475760046040517f6deaf836000000000000000000000000000000000000000000000000000000008152fd5b602001fd5b6001600160e01b0319161490565b614c7c91925060203d8111614c83575b614c748183610e88565b810190614b32565b9038614c08565b503d614c6a565b50505050600190565b91929092805167ffffffffffffffff8111614dbd575b600091614cbf82614cba8554611150565b612cb9565b60209081601f8411600114614d2b57509282614cff93614d0496936107469998968492614d20575b50506000198260011b9260031b1c1916179055613009565b600555565b6001600160a01b03166001600160a01b03196006541617600655565b015190503880614ce7565b600080529190601f1984167f290decd9548b62a8d60345a988386fc84ba6bc95484008f6362f93160ef3e5639386905b828210614da557505093614d0496936107469998969360019383614cff9810614d8c575b505050811b019055613009565b015160001960f88460031b161c19169055388080614d7f565b80600186978294978701518155019601940190614d5b565b614dc5610e17565b614ca9565b9160a08383031261000e5782359260209182820135936040830135614dee816103c8565b936060840135614dfd8161072a565b9360808101359067ffffffffffffffff821161000e57019180601f8401121561000e578235614e2b81610f1b565b93614e396040519586610e88565b818552838086019260051b82010192831161000e578301905b828210614e60575050505090565b838091614e6c84612060565b815201910190614e52565b60925460c0820135036151f0576101e081016044614e9582846127c3565b905011806151a8575b614ea6575050565b614eb3614ebb91836127c3565b810190614dca565b93509150506001600160a01b0380911682511561517e5760008081928551835b818110614f35575050505050505090614f05916080614efd61018084016138c2565b92013561529b565b614f0b57565b60046040517f6d5e09a4000000000000000000000000000000000000000000000000000000008152fd5b88614f55614f4e614f46848c61244a565b5161ffff1690565b61ffff1690565b8503615072575b614f89610ab086613a4e614f708b956138c2565b6001600160a01b0316600052608c602052604060002090565b8415158515615067575b614fa2575b5050600101614edb565b85908a82614fb3879a95969a6125dd565b8a109182615042575b505015614fdc575050600191614fd191612499565b945b90508538614f98565b61500993508b828780151581615036575b61501d575b508a915050861561501357613b5d91508693612499565b6001600094614fd3565b613b5d9193612499565b61502961502e936138c2565b613d06565b8b8287614ff2565b508c8416811415614fed565b61ffff919250614f4661505e916150588d612483565b9061244a565b1614828c614fbc565b508881161515614f93565b5092909450615087614f4e614f46858a61244a565b1061515457614f70938288614f89610ab08a613a4e608061510c6150b3614f4e614f4660009d8761244a565b9a8b946150d8614f468b6150d2610a08608f546001600160a01b031690565b9361244a565b6040516364faa15960e01b815230600482015261ffff90911660248201526000604482015292839190829081906064820190565b03915afa908115615147575b60009161512e575b5001519a5050505050614f5c565b615141913d8091833e61277c8183610e88565b38615120565b61514f61238f565b615118565b60046040517f9fda363d000000000000000000000000000000000000000000000000000000008152fd5b60046040517f3d04bd1f000000000000000000000000000000000000000000000000000000008152fd5b507f36595ad4000000000000000000000000000000000000000000000000000000006001600160e01b03196151e9610cfe6151e385876127c3565b90612825565b1614614e9e565b60046040517f79cf85c0000000000000000000000000000000000000000000000000000000008152fd5b919060408382031261000e57825167ffffffffffffffff811161000e576020916152459185016130fe565b92015190565b929190606084019084526020906060828601528251809152816080860193019160005b82811061528357505050506040600091930152565b835161ffff168552938101939281019260010161526e565b9291926152b3610a08608f546001600160a01b031690565b9160409081519586947feaa19ab300000000000000000000000000000000000000000000000000000000865260009586918183816152f5888b6004840161524b565b03925af180156153b6575b8597869161538e575b50968051955b86811061531f5750505050505050565b8061532c6001928461244a565b5161533781866141cb565b61ffff615347614f46848961244a565b88518a81523360208201526001600160a01b0388169391909216917f598baf7bf150ca2f42be9e9f8f55e81d45f5715c3ff22bf46d697fabec7f31d690604090a40161530f565b90506153ad9197503d8087833e6153a58183610e88565b81019061521a565b96909638615309565b6153be61238f565b615300565b6001600160a01b036007541633036153d757565b606460405162461bcd60e51b815260206004820152602060248201527f4f776e61626c653a2063616c6c6572206973206e6f7420746865206f776e65726044820152fd5b600754906001600160a01b0380911691826001600160a01b0319821617600755167f8be0079c531659141344cd1fd0a4f28419497f9722a3daafe3b4186f6b6457e0600080a3565b904381101561552d576154759061589e565b90805491600063ffffffff8092165b8482106154cb575050508161549b57506000919050565b6154c06154c7916154b36001600160e01b03946125dd565b9060005260206000200190565b5460201c90565b1690565b9091938083169080841860011c8201809211615520575b8460005282866154fd8460206000200163ffffffff90541690565b16111561550e5750935b9190615484565b94925061551a90612483565b91615507565b61552861246c565b6154e2565b606460405162461bcd60e51b815260206004820152602060248201527f436865636b706f696e74733a20626c6f636b206e6f7420796574206d696e65646044820152fd5b6001600160e01b0392918361558583615656565b16908101809111615621575b61559a4361589e565b918482116155b7578492836155b0931691615784565b9316921690565b608460405162461bcd60e51b815260206004820152602760248201527f53616665436173743a2076616c756520646f65736e27742066697420696e203260448201527f32342062697473000000000000000000000000000000000000000000000000006064820152fd5b61562961246c565b615591565b6001600160e01b0392918361564283615656565b169081039081116156215761559a4361589e565b805460008161566757505050600090565b602090600019938385810111615684575b81522001015460201c90565b61568c61246c565b615678565b906001600160e01b036020610746938054906801000000000000000082101561570a575b600182018082558210156156fd575b60005281600020019263ffffffff81511663ffffffff1985541617845501511663ffffffff63ffffffff1983549260201b169116179055565b615705612419565b6156c4565b615712610e17565b6156b5565b9060405161572481610e2e565b602081935463ffffffff81168352811c910152565b1561574057565b606460405162461bcd60e51b815260206004820152601760248201527f436865636b706f696e743a20696e76616c6964206b65790000000000000000006044820152fd5b90929192838254801515600014615873579260209291846157bf6157ba6157ad612a9d986125dd565b8560005260206000200190565b615717565b936157ce855163ffffffff1690565b6157e563ffffffff91828416928391161115615739565b6157ff6157f6875163ffffffff1690565b63ffffffff1690565b0361583d575061582f926154b3615815926125dd565b9063ffffffff63ffffffff1983549260201b169116179055565b01516001600160e01b031690565b91505061586e9161585b61584f610eab565b63ffffffff9093168352565b6001600160e01b03881682860152615691565b61582f565b50506158989161588461584f610eab565b6001600160e01b0385166020830152615691565b60009190565b63ffffffff908181116158af571690565b608460405162461bcd60e51b815260206004820152602660248201527f53616665436173743a2076616c756520646f65736e27742066697420696e203360448201527f32206269747300000000000000000000000000000000000000000000000000006064820152fd5b9190600019818409818402918280831092039180830392146159b157633b9aca00908183101561597a577f88f2cfb83100cb4e69e7c79c58b316e597157d372fb9787e8e47ce423a2e9c6d94950990828211900360f71b910360091c170290565b60448383604051917f773cc18c00000000000000000000000000000000000000000000000000000000835260048301526024820152fd5b5050633b9aca009004915056fea2646970667358221220b810e31db86954ae30d49aec5e7a6e7e6754b6e09c158f78c918f7ab8a896d8b64736f6c63430008110033",
    "linkReferences": {}
  },
  "methodIdentifiers": {
    "TOTAL_REDEMPTION_WEIGHT()": "640abacd",
    "approve(address,uint256)": "095ea7b3",
    "balanceOf(address)": "70a08231",
    "baseURI()": "6c0360eb",
    "codeOrigin()": "1d153ca4",
    "contractURI()": "e8a3d485",
    "didPay((address,uint256,uint256,(address,uint256,uint256,uint256),(address,uint256,uint256,uint256),uint256,address,bool,string,bytes))": "da9ee8b7",
    "didRedeem((address,uint256,uint256,uint256,(address,uint256,uint256,uint256),(address,uint256,uint256,uint256),address,string,bytes))": "2b13c58f",
    "directory()": "c41c2f24",
    "firstOwnerOf(uint256)": "54c6d1f5",
    "fundingCycleStore()": "557e7155",
    "getApproved(uint256)": "081812fc",
    "getPastTierTotalVotes(uint256,uint256)": "d31cc52c",
    "getPastTierVotes(address,uint256,uint256)": "d40e7146",
    "getTierDelegate(address,uint256)": "82732b6d",
    "getTierTotalVotes(uint256)": "94c5c5ca",
    "getTierVotes(address,uint256)": "ca323efe",
    "initialize(uint256,address,string,string,address,string,address,string,(uint104,uint32,uint32,uint16,address,bytes32,uint24,bool,bool,bool,bool)[],uint48,address,(bool,bool,bool,bool),address)": "f78c488b",
    "isApprovedForAll(address,address)": "e985e9c5",
    "mintReservesFor((uint256,uint256)[])": "2a596e53",
    "mintReservesFor(uint256,uint256)": "aa4fb15b",
    "name()": "06fdde03",
    "noContestReporter()": "aa1623ea",
    "owner()": "8da5cb5b",
    "ownerOf(uint256)": "6352211e",
    "payParams((address,address,(address,uint256,uint256,uint256),uint256,uint256,address,uint256,uint256,string,bytes))": "d46cf171",
    "pricingCurrency()": "64640c1e",
    "projectId()": "3fafa127",
    "redeemParams((address,address,uint256,uint256,uint256,uint256,uint256,(address,uint256,uint256,uint256),bool,uint256,string,bytes))": "a51cfd18",
    "redemptionWeightIsSet()": "a8c15f4a",
    "redemptionWeightOf(uint256)": "4f228e11",
    "redemptionWeightOf(uint256[],(address,address,uint256,uint256,uint256,uint256,uint256,(address,uint256,uint256,uint256),bool,uint256,string,bytes))": "7ba62bf9",
    "renounceOwnership()": "715018a6",
    "safeTransferFrom(address,address,uint256)": "42842e0e",
    "safeTransferFrom(address,address,uint256,bytes)": "b88d4fde",
    "setApprovalForAll(address,bool)": "a22cb465",
    "setTierDelegate(address,uint256)": "ab951e39",
    "setTierDelegates((address,uint256)[])": "c74b13d9",
    "setTierRedemptionWeights((uint256,uint256)[])": "2f441500",
    "store()": "975057e7",
    "supportsInterface(bytes4)": "01ffc9a7",
    "symbol()": "95d89b41",
    "tierRedemptionWeights()": "9df45468",
    "tokenURI(uint256)": "c87b56dd",
    "totalRedemptionWeight((address,address,uint256,uint256,uint256,uint256,uint256,(address,uint256,uint256,uint256),bool,uint256,string,bytes))": "9494bf72",
    "transferFrom(address,address,uint256)": "23b872dd",
    "transferOwnership(address)": "f2fde38b"
  },
  "id": 0
}