{
  "abi": [
    {
      "inputs": [],
      "stateMutability": "nonpayable",
      "type": "constructor"
    },
    {
      "inputs": [],
      "name": "ALEADY_MINTED",
      "type": "error"
    },
    {
      "inputs": [],
      "name": "APPROVAL_TO_CURRENT_OWNER",
      "type": "error"
    },
    {
      "inputs": [],
      "name": "APPROVE_TO_CALLER",
      "type": "error"
    },
    {
      "inputs": [],
      "name": "BLOCK_NOT_YET_MINED",
      "type": "error"
    },
    {
      "inputs": [],
      "name": "CALLER_NOT_OWNER_OR_APPROVED",
      "type": "error"
    },
    {
      "inputs": [],
      "name": "DELEGATE_ADDRESS_ZERO",
      "type": "error"
    },
    {
      "inputs": [],
      "name": "GAME_ISNT_OVER_YET",
      "type": "error"
    },
    {
      "inputs": [],
      "name": "INCORRECT_OWNER",
      "type": "error"
    },
    {
      "inputs": [],
      "name": "INVALID_PAYMENT_EVENT",
      "type": "error"
    },
    {
      "inputs": [],
      "name": "INVALID_REDEMPTION_EVENT",
      "type": "error"
    },
    {
      "inputs": [],
      "name": "INVALID_REDEMPTION_METADATA",
      "type": "error"
    },
    {
      "inputs": [],
      "name": "INVALID_REDEMPTION_WEIGHTS",
      "type": "error"
    },
    {
      "inputs": [],
      "name": "INVALID_TIER_ID",
      "type": "error"
    },
    {
      "inputs": [],
      "name": "INVALID_TOKEN_ID",
      "type": "error"
    },
    {
      "inputs": [],
      "name": "MINT_TO_ZERO",
      "type": "error"
    },
    {
      "inputs": [],
      "name": "NOTHING_TO_CLAIM",
      "type": "error"
    },
    {
      "inputs": [],
      "name": "NOTHING_TO_MINT",
      "type": "error"
    },
    {
      "inputs": [],
      "name": "NOT_AVAILABLE",
      "type": "error"
    },
    {
      "inputs": [],
      "name": "OVERSPENDING",
      "type": "error"
    },
    {
      "inputs": [
        {
          "internalType": "uint256",
          "name": "prod1",
          "type": "uint256"
        },
        {
          "internalType": "uint256",
          "name": "denominator",
          "type": "uint256"
        }
      ],
      "name": "PRBMath__MulDivOverflow",
      "type": "error"
    },
    {
      "inputs": [],
      "name": "PRICING_RESOLVER_CHANGES_PAUSED",
      "type": "error"
    },
    {
      "inputs": [],
      "name": "REDEMPTION_WEIGHTS_ALREADY_SET",
      "type": "error"
    },
    {
      "inputs": [],
      "name": "RESERVED_TOKEN_MINTING_PAUSED",
      "type": "error"
    },
    {
      "inputs": [],
      "name": "TRANSFERS_PAUSED",
      "type": "error"
    },
    {
      "inputs": [],
      "name": "TRANSFER_TO_NON_IMPLEMENTER",
      "type": "error"
    },
    {
      "inputs": [],
      "name": "TRANSFER_TO_ZERO_ADDRESS",
      "type": "error"
    },
    {
      "inputs": [],
      "name": "UNAUTHORIZED",
      "type": "error"
    },
    {
      "inputs": [],
      "name": "UNEXPECTED_TOKEN_REDEEMED",
      "type": "error"
    },
    {
      "inputs": [],
      "name": "WRONG_CURRENCY",
      "type": "error"
    },
    {
      "anonymous": false,
      "inputs": [
        {
          "indexed": true,
          "internalType": "uint256",
          "name": "tierId",
          "type": "uint256"
        },
        {
          "components": [
            {
              "internalType": "uint80",
              "name": "contributionFloor",
              "type": "uint80"
            },
            {
              "internalType": "uint48",
              "name": "lockedUntil",
              "type": "uint48"
            },
            {
              "internalType": "uint40",
              "name": "initialQuantity",
              "type": "uint40"
            },
            {
              "internalType": "uint16",
              "name": "votingUnits",
              "type": "uint16"
            },
            {
              "internalType": "uint16",
              "name": "reservedRate",
              "type": "uint16"
            },
            {
              "internalType": "address",
              "name": "reservedTokenBeneficiary",
              "type": "address"
            },
            {
              "internalType": "uint8",
              "name": "royaltyRate",
              "type": "uint8"
            },
            {
              "internalType": "address",
              "name": "royaltyBeneficiary",
              "type": "address"
            },
            {
              "internalType": "bytes32",
              "name": "encodedIPFSUri",
              "type": "bytes32"
            },
            {
              "internalType": "uint8",
              "name": "category",
              "type": "uint8"
            },
            {
              "internalType": "bool",
              "name": "allowManualMint",
              "type": "bool"
            },
            {
              "internalType": "bool",
              "name": "shouldUseReservedTokenBeneficiaryAsDefault",
              "type": "bool"
            },
            {
              "internalType": "bool",
              "name": "shouldUseRoyaltyBeneficiaryAsDefault",
              "type": "bool"
            },
            {
              "internalType": "bool",
              "name": "transfersPausable",
              "type": "bool"
            }
          ],
          "indexed": false,
          "internalType": "struct JB721TierParams",
          "name": "data",
          "type": "tuple"
        },
        {
          "indexed": false,
          "internalType": "address",
          "name": "caller",
          "type": "address"
        }
      ],
      "name": "AddTier",
      "type": "event"
    },
    {
      "anonymous": false,
      "inputs": [
        {
          "indexed": true,
          "internalType": "address",
          "name": "owner",
          "type": "address"
        },
        {
          "indexed": true,
          "internalType": "address",
          "name": "approved",
          "type": "address"
        },
        {
          "indexed": true,
          "internalType": "uint256",
          "name": "tokenId",
          "type": "uint256"
        }
      ],
      "name": "Approval",
      "type": "event"
    },
    {
      "anonymous": false,
      "inputs": [
        {
          "indexed": true,
          "internalType": "address",
          "name": "owner",
          "type": "address"
        },
        {
          "indexed": true,
          "internalType": "address",
          "name": "operator",
          "type": "address"
        },
        {
          "indexed": false,
          "internalType": "bool",
          "name": "approved",
          "type": "bool"
        }
      ],
      "name": "ApprovalForAll",
      "type": "event"
    },
    {
      "anonymous": false,
      "inputs": [
        {
          "indexed": true,
          "internalType": "address",
          "name": "delegator",
          "type": "address"
        },
        {
          "indexed": true,
          "internalType": "address",
          "name": "fromDelegate",
          "type": "address"
        },
        {
          "indexed": true,
          "internalType": "address",
          "name": "toDelegate",
          "type": "address"
        }
      ],
      "name": "DelegateChanged",
      "type": "event"
    },
    {
      "anonymous": false,
      "inputs": [
        {
          "indexed": true,
          "internalType": "uint256",
          "name": "tokenId",
          "type": "uint256"
        },
        {
          "indexed": true,
          "internalType": "uint256",
          "name": "tierId",
          "type": "uint256"
        },
        {
          "indexed": true,
          "internalType": "address",
          "name": "beneficiary",
          "type": "address"
        },
        {
          "indexed": false,
          "internalType": "uint256",
          "name": "totalAmountContributed",
          "type": "uint256"
        },
        {
          "indexed": false,
          "internalType": "address",
          "name": "caller",
          "type": "address"
        }
      ],
      "name": "Mint",
      "type": "event"
    },
    {
      "anonymous": false,
      "inputs": [
        {
          "indexed": true,
          "internalType": "uint256",
          "name": "tokenId",
          "type": "uint256"
        },
        {
          "indexed": true,
          "internalType": "uint256",
          "name": "tierId",
          "type": "uint256"
        },
        {
          "indexed": true,
          "internalType": "address",
          "name": "beneficiary",
          "type": "address"
        },
        {
          "indexed": false,
          "internalType": "address",
          "name": "caller",
          "type": "address"
        }
      ],
      "name": "MintReservedToken",
      "type": "event"
    },
    {
      "anonymous": false,
      "inputs": [
        {
          "indexed": true,
          "internalType": "address",
          "name": "previousOwner",
          "type": "address"
        },
        {
          "indexed": true,
          "internalType": "address",
          "name": "newOwner",
          "type": "address"
        }
      ],
      "name": "OwnershipTransferred",
      "type": "event"
    },
    {
      "anonymous": false,
      "inputs": [
        {
          "indexed": true,
          "internalType": "uint256",
          "name": "tierId",
          "type": "uint256"
        },
        {
          "indexed": false,
          "internalType": "address",
          "name": "caller",
          "type": "address"
        }
      ],
      "name": "RemoveTier",
      "type": "event"
    },
    {
      "anonymous": false,
      "inputs": [
        {
          "indexed": true,
          "internalType": "string",
          "name": "baseUri",
          "type": "string"
        },
        {
          "indexed": false,
          "internalType": "address",
          "name": "caller",
          "type": "address"
        }
      ],
      "name": "SetBaseUri",
      "type": "event"
    },
    {
      "anonymous": false,
      "inputs": [
        {
          "indexed": true,
          "internalType": "string",
          "name": "contractUri",
          "type": "string"
        },
        {
          "indexed": false,
          "internalType": "address",
          "name": "caller",
          "type": "address"
        }
      ],
      "name": "SetContractUri",
      "type": "event"
    },
    {
      "anonymous": false,
      "inputs": [
        {
          "indexed": true,
          "internalType": "address",
          "name": "beneficiary",
          "type": "address"
        },
        {
          "indexed": false,
          "internalType": "address",
          "name": "caller",
          "type": "address"
        }
      ],
      "name": "SetDefaultReservedTokenBeneficiary",
      "type": "event"
    },
    {
      "anonymous": false,
      "inputs": [
        {
          "indexed": true,
          "internalType": "uint256",
          "name": "tierId",
          "type": "uint256"
        },
        {
          "indexed": false,
          "internalType": "bytes32",
          "name": "encodedIPFSUri",
          "type": "bytes32"
        },
        {
          "indexed": false,
          "internalType": "address",
          "name": "caller",
          "type": "address"
        }
      ],
      "name": "SetEncodedIPFSUri",
      "type": "event"
    },
    {
      "anonymous": false,
      "inputs": [
        {
          "indexed": true,
          "internalType": "contract IJBTokenUriResolver",
          "name": "newResolver",
          "type": "address"
        },
        {
          "indexed": false,
          "internalType": "address",
          "name": "caller",
          "type": "address"
        }
      ],
      "name": "SetTokenUriResolver",
      "type": "event"
    },
    {
      "anonymous": false,
      "inputs": [
        {
          "indexed": true,
          "internalType": "address",
          "name": "delegator",
          "type": "address"
        },
        {
          "indexed": true,
          "internalType": "address",
          "name": "fromDelegate",
          "type": "address"
        },
        {
          "indexed": true,
          "internalType": "address",
          "name": "toDelegate",
          "type": "address"
        },
        {
          "indexed": false,
          "internalType": "uint256",
          "name": "tierId",
          "type": "uint256"
        },
        {
          "indexed": false,
          "internalType": "address",
          "name": "caller",
          "type": "address"
        }
      ],
      "name": "TierDelegateChanged",
      "type": "event"
    },
    {
      "anonymous": false,
      "inputs": [
        {
          "indexed": true,
          "internalType": "address",
          "name": "delegate",
          "type": "address"
        },
        {
          "indexed": true,
          "internalType": "uint256",
          "name": "tierId",
          "type": "uint256"
        },
        {
          "indexed": false,
          "internalType": "uint256",
          "name": "previousBalance",
          "type": "uint256"
        },
        {
          "indexed": false,
          "internalType": "uint256",
          "name": "newBalance",
          "type": "uint256"
        },
        {
          "indexed": false,
          "internalType": "address",
          "name": "caller",
          "type": "address"
        }
      ],
      "name": "TierDelegateVotesChanged",
      "type": "event"
    },
    {
      "anonymous": false,
      "inputs": [
        {
          "indexed": true,
          "internalType": "address",
          "name": "from",
          "type": "address"
        },
        {
          "indexed": true,
          "internalType": "address",
          "name": "to",
          "type": "address"
        },
        {
          "indexed": true,
          "internalType": "uint256",
          "name": "tokenId",
          "type": "uint256"
        }
      ],
      "name": "Transfer",
      "type": "event"
    },
    {
      "inputs": [],
      "name": "TOTAL_REDEMPTION_WEIGHT",
      "outputs": [
        {
          "internalType": "uint256",
          "name": "",
          "type": "uint256"
        }
      ],
      "stateMutability": "view",
      "type": "function"
    },
    {
      "inputs": [
        {
          "internalType": "address",
          "name": "to",
          "type": "address"
        },
        {
          "internalType": "uint256",
          "name": "tokenId",
          "type": "uint256"
        }
      ],
      "name": "approve",
      "outputs": [],
      "stateMutability": "nonpayable",
      "type": "function"
    },
    {
      "inputs": [
        {
          "internalType": "address",
          "name": "_owner",
          "type": "address"
        }
      ],
      "name": "balanceOf",
      "outputs": [
        {
          "internalType": "uint256",
          "name": "balance",
          "type": "uint256"
        }
      ],
      "stateMutability": "view",
      "type": "function"
    },
    {
      "inputs": [],
      "name": "codeOrigin",
      "outputs": [
        {
          "internalType": "address",
          "name": "",
          "type": "address"
        }
      ],
      "stateMutability": "view",
      "type": "function"
    },
    {
      "inputs": [],
      "name": "contractURI",
      "outputs": [
        {
          "internalType": "string",
          "name": "",
          "type": "string"
        }
      ],
      "stateMutability": "view",
      "type": "function"
    },
    {
      "inputs": [
        {
          "components": [
            {
              "internalType": "address",
              "name": "payer",
              "type": "address"
            },
            {
              "internalType": "uint256",
              "name": "projectId",
              "type": "uint256"
            },
            {
              "internalType": "uint256",
              "name": "currentFundingCycleConfiguration",
              "type": "uint256"
            },
            {
              "components": [
                {
                  "internalType": "address",
                  "name": "token",
                  "type": "address"
                },
                {
                  "internalType": "uint256",
                  "name": "value",
                  "type": "uint256"
                },
                {
                  "internalType": "uint256",
                  "name": "decimals",
                  "type": "uint256"
                },
                {
                  "internalType": "uint256",
                  "name": "currency",
                  "type": "uint256"
                }
              ],
              "internalType": "struct JBTokenAmount",
              "name": "amount",
              "type": "tuple"
            },
            {
              "components": [
                {
                  "internalType": "address",
                  "name": "token",
                  "type": "address"
                },
                {
                  "internalType": "uint256",
                  "name": "value",
                  "type": "uint256"
                },
                {
                  "internalType": "uint256",
                  "name": "decimals",
                  "type": "uint256"
                },
                {
                  "internalType": "uint256",
                  "name": "currency",
                  "type": "uint256"
                }
              ],
              "internalType": "struct JBTokenAmount",
              "name": "forwardedAmount",
              "type": "tuple"
            },
            {
              "internalType": "uint256",
              "name": "projectTokenCount",
              "type": "uint256"
            },
            {
              "internalType": "address",
              "name": "beneficiary",
              "type": "address"
            },
            {
              "internalType": "bool",
              "name": "preferClaimedTokens",
              "type": "bool"
            },
            {
              "internalType": "string",
              "name": "memo",
              "type": "string"
            },
            {
              "internalType": "bytes",
              "name": "metadata",
              "type": "bytes"
            }
          ],
          "internalType": "struct JBDidPayData",
          "name": "_data",
          "type": "tuple"
        }
      ],
      "name": "didPay",
      "outputs": [],
      "stateMutability": "payable",
      "type": "function"
    },
    {
      "inputs": [
        {
          "components": [
            {
              "internalType": "address",
              "name": "holder",
              "type": "address"
            },
            {
              "internalType": "uint256",
              "name": "projectId",
              "type": "uint256"
            },
            {
              "internalType": "uint256",
              "name": "currentFundingCycleConfiguration",
              "type": "uint256"
            },
            {
              "internalType": "uint256",
              "name": "projectTokenCount",
              "type": "uint256"
            },
            {
              "components": [
                {
                  "internalType": "address",
                  "name": "token",
                  "type": "address"
                },
                {
                  "internalType": "uint256",
                  "name": "value",
                  "type": "uint256"
                },
                {
                  "internalType": "uint256",
                  "name": "decimals",
                  "type": "uint256"
                },
                {
                  "internalType": "uint256",
                  "name": "currency",
                  "type": "uint256"
                }
              ],
              "internalType": "struct JBTokenAmount",
              "name": "reclaimedAmount",
              "type": "tuple"
            },
            {
              "components": [
                {
                  "internalType": "address",
                  "name": "token",
                  "type": "address"
                },
                {
                  "internalType": "uint256",
                  "name": "value",
                  "type": "uint256"
                },
                {
                  "internalType": "uint256",
                  "name": "decimals",
                  "type": "uint256"
                },
                {
                  "internalType": "uint256",
                  "name": "currency",
                  "type": "uint256"
                }
              ],
              "internalType": "struct JBTokenAmount",
              "name": "forwardedAmount",
              "type": "tuple"
            },
            {
              "internalType": "address payable",
              "name": "beneficiary",
              "type": "address"
            },
            {
              "internalType": "string",
              "name": "memo",
              "type": "string"
            },
            {
              "internalType": "bytes",
              "name": "metadata",
              "type": "bytes"
            }
          ],
          "internalType": "struct JBDidRedeemData",
          "name": "_data",
          "type": "tuple"
        }
      ],
      "name": "didRedeem",
      "outputs": [],
      "stateMutability": "payable",
      "type": "function"
    },
    {
      "inputs": [],
      "name": "directory",
      "outputs": [
        {
          "internalType": "contract IJBDirectory",
          "name": "",
          "type": "address"
        }
      ],
      "stateMutability": "view",
      "type": "function"
    },
    {
      "inputs": [
        {
          "internalType": "uint256",
          "name": "_tokenId",
          "type": "uint256"
        }
      ],
      "name": "firstOwnerOf",
      "outputs": [
        {
          "internalType": "address",
          "name": "",
          "type": "address"
        }
      ],
      "stateMutability": "view",
      "type": "function"
    },
    {
      "inputs": [],
      "name": "fundingCycleStore",
      "outputs": [
        {
          "internalType": "contract IJBFundingCycleStore",
          "name": "",
          "type": "address"
        }
      ],
      "stateMutability": "view",
      "type": "function"
    },
    {
      "inputs": [
        {
          "internalType": "uint256",
          "name": "tokenId",
          "type": "uint256"
        }
      ],
      "name": "getApproved",
      "outputs": [
        {
          "internalType": "address",
          "name": "",
          "type": "address"
        }
      ],
      "stateMutability": "view",
      "type": "function"
    },
    {
      "inputs": [
        {
          "internalType": "uint256",
          "name": "_tier",
          "type": "uint256"
        },
        {
          "internalType": "uint256",
          "name": "_blockNumber",
          "type": "uint256"
        }
      ],
      "name": "getPastTierTotalVotes",
      "outputs": [
        {
          "internalType": "uint256",
          "name": "",
          "type": "uint256"
        }
      ],
      "stateMutability": "view",
      "type": "function"
    },
    {
      "inputs": [
        {
          "internalType": "address",
          "name": "_account",
          "type": "address"
        },
        {
          "internalType": "uint256",
          "name": "_tier",
          "type": "uint256"
        },
        {
          "internalType": "uint256",
          "name": "_blockNumber",
          "type": "uint256"
        }
      ],
      "name": "getPastTierVotes",
      "outputs": [
        {
          "internalType": "uint256",
          "name": "",
          "type": "uint256"
        }
      ],
      "stateMutability": "view",
      "type": "function"
    },
    {
      "inputs": [
        {
          "internalType": "address",
          "name": "_account",
          "type": "address"
        },
        {
          "internalType": "uint256",
          "name": "_tier",
          "type": "uint256"
        }
      ],
      "name": "getTierDelegate",
      "outputs": [
        {
          "internalType": "address",
          "name": "",
          "type": "address"
        }
      ],
      "stateMutability": "view",
      "type": "function"
    },
    {
      "inputs": [
        {
          "internalType": "uint256",
          "name": "_tier",
          "type": "uint256"
        }
      ],
      "name": "getTierTotalVotes",
      "outputs": [
        {
          "internalType": "uint256",
          "name": "",
          "type": "uint256"
        }
      ],
      "stateMutability": "view",
      "type": "function"
    },
    {
      "inputs": [
        {
          "internalType": "address",
          "name": "_account",
          "type": "address"
        },
        {
          "internalType": "uint256",
          "name": "_tier",
          "type": "uint256"
        }
      ],
      "name": "getTierVotes",
      "outputs": [
        {
          "internalType": "uint256",
          "name": "",
          "type": "uint256"
        }
      ],
      "stateMutability": "view",
      "type": "function"
    },
    {
      "inputs": [
        {
          "internalType": "uint256",
          "name": "_projectId",
          "type": "uint256"
        },
        {
          "internalType": "contract IJBDirectory",
          "name": "_directory",
          "type": "address"
        },
        {
          "internalType": "string",
          "name": "_name",
          "type": "string"
        },
        {
          "internalType": "string",
          "name": "_symbol",
          "type": "string"
        },
        {
          "internalType": "contract IJBFundingCycleStore",
          "name": "_fundingCycleStore",
          "type": "address"
        },
        {
          "internalType": "string",
          "name": "_baseUri",
          "type": "string"
        },
        {
          "internalType": "contract IJBTokenUriResolver",
          "name": "_tokenUriResolver",
          "type": "address"
        },
        {
          "internalType": "string",
          "name": "_contractUri",
          "type": "string"
        },
        {
          "components": [
            {
              "components": [
                {
                  "internalType": "uint80",
                  "name": "contributionFloor",
                  "type": "uint80"
                },
                {
                  "internalType": "uint48",
                  "name": "lockedUntil",
                  "type": "uint48"
                },
                {
                  "internalType": "uint40",
                  "name": "initialQuantity",
                  "type": "uint40"
                },
                {
                  "internalType": "uint16",
                  "name": "votingUnits",
                  "type": "uint16"
                },
                {
                  "internalType": "uint16",
                  "name": "reservedRate",
                  "type": "uint16"
                },
                {
                  "internalType": "address",
                  "name": "reservedTokenBeneficiary",
                  "type": "address"
                },
                {
                  "internalType": "uint8",
                  "name": "royaltyRate",
                  "type": "uint8"
                },
                {
                  "internalType": "address",
                  "name": "royaltyBeneficiary",
                  "type": "address"
                },
                {
                  "internalType": "bytes32",
                  "name": "encodedIPFSUri",
                  "type": "bytes32"
                },
                {
                  "internalType": "uint8",
                  "name": "category",
                  "type": "uint8"
                },
                {
                  "internalType": "bool",
                  "name": "allowManualMint",
                  "type": "bool"
                },
                {
                  "internalType": "bool",
                  "name": "shouldUseReservedTokenBeneficiaryAsDefault",
                  "type": "bool"
                },
                {
                  "internalType": "bool",
                  "name": "shouldUseRoyaltyBeneficiaryAsDefault",
                  "type": "bool"
                },
                {
                  "internalType": "bool",
                  "name": "transfersPausable",
                  "type": "bool"
                }
              ],
              "internalType": "struct JB721TierParams[]",
              "name": "tiers",
              "type": "tuple[]"
            },
            {
              "internalType": "uint256",
              "name": "currency",
              "type": "uint256"
            },
            {
              "internalType": "uint256",
              "name": "decimals",
              "type": "uint256"
            },
            {
              "internalType": "contract IJBPrices",
              "name": "prices",
              "type": "address"
            }
          ],
          "internalType": "struct JB721PricingParams",
          "name": "_pricing",
          "type": "tuple"
        },
        {
          "internalType": "contract IJBTiered721DelegateStore",
          "name": "_store",
          "type": "address"
        },
        {
          "components": [
            {
              "internalType": "bool",
              "name": "lockReservedTokenChanges",
              "type": "bool"
            },
            {
              "internalType": "bool",
              "name": "lockVotingUnitChanges",
              "type": "bool"
            },
            {
              "internalType": "bool",
              "name": "lockManualMintingChanges",
              "type": "bool"
            },
            {
              "internalType": "bool",
              "name": "preventOverspending",
              "type": "bool"
            }
          ],
          "internalType": "struct JBTiered721Flags",
          "name": "_flags",
          "type": "tuple"
        }
      ],
      "name": "initialize",
      "outputs": [],
      "stateMutability": "nonpayable",
      "type": "function"
    },
    {
      "inputs": [
        {
          "internalType": "address",
          "name": "owner",
          "type": "address"
        },
        {
          "internalType": "address",
          "name": "operator",
          "type": "address"
        }
      ],
      "name": "isApprovedForAll",
      "outputs": [
        {
          "internalType": "bool",
          "name": "",
          "type": "bool"
        }
      ],
      "stateMutability": "view",
      "type": "function"
    },
    {
      "inputs": [
        {
          "components": [
            {
              "internalType": "uint256",
              "name": "tierId",
              "type": "uint256"
            },
            {
              "internalType": "uint256",
              "name": "count",
              "type": "uint256"
            }
          ],
          "internalType": "struct JBTiered721MintReservesForTiersData[]",
          "name": "_mintReservesForTiersData",
          "type": "tuple[]"
        }
      ],
      "name": "mintReservesFor",
      "outputs": [],
      "stateMutability": "nonpayable",
      "type": "function"
    },
    {
      "inputs": [
        {
          "internalType": "uint256",
          "name": "_tierId",
          "type": "uint256"
        },
        {
          "internalType": "uint256",
          "name": "_count",
          "type": "uint256"
        }
      ],
      "name": "mintReservesFor",
      "outputs": [],
      "stateMutability": "nonpayable",
      "type": "function"
    },
    {
      "inputs": [],
      "name": "name",
      "outputs": [
        {
          "internalType": "string",
          "name": "",
          "type": "string"
        }
      ],
      "stateMutability": "view",
      "type": "function"
    },
    {
      "inputs": [],
      "name": "owner",
      "outputs": [
        {
          "internalType": "address",
          "name": "",
          "type": "address"
        }
      ],
      "stateMutability": "view",
      "type": "function"
    },
    {
      "inputs": [
        {
          "internalType": "uint256",
          "name": "tokenId",
          "type": "uint256"
        }
      ],
      "name": "ownerOf",
      "outputs": [
        {
          "internalType": "address",
          "name": "",
          "type": "address"
        }
      ],
      "stateMutability": "view",
      "type": "function"
    },
    {
      "inputs": [
        {
          "components": [
            {
              "internalType": "contract IJBPaymentTerminal",
              "name": "terminal",
              "type": "address"
            },
            {
              "internalType": "address",
              "name": "payer",
              "type": "address"
            },
            {
              "components": [
                {
                  "internalType": "address",
                  "name": "token",
                  "type": "address"
                },
                {
                  "internalType": "uint256",
                  "name": "value",
                  "type": "uint256"
                },
                {
                  "internalType": "uint256",
                  "name": "decimals",
                  "type": "uint256"
                },
                {
                  "internalType": "uint256",
                  "name": "currency",
                  "type": "uint256"
                }
              ],
              "internalType": "struct JBTokenAmount",
              "name": "amount",
              "type": "tuple"
            },
            {
              "internalType": "uint256",
              "name": "projectId",
              "type": "uint256"
            },
            {
              "internalType": "uint256",
              "name": "currentFundingCycleConfiguration",
              "type": "uint256"
            },
            {
              "internalType": "address",
              "name": "beneficiary",
              "type": "address"
            },
            {
              "internalType": "uint256",
              "name": "weight",
              "type": "uint256"
            },
            {
              "internalType": "uint256",
              "name": "reservedRate",
              "type": "uint256"
            },
            {
              "internalType": "string",
              "name": "memo",
              "type": "string"
            },
            {
              "internalType": "bytes",
              "name": "metadata",
              "type": "bytes"
            }
          ],
          "internalType": "struct JBPayParamsData",
          "name": "_data",
          "type": "tuple"
        }
      ],
      "name": "payParams",
      "outputs": [
        {
          "internalType": "uint256",
          "name": "weight",
          "type": "uint256"
        },
        {
          "internalType": "string",
          "name": "memo",
          "type": "string"
        },
        {
          "components": [
            {
              "internalType": "contract IJBPayDelegate",
              "name": "delegate",
              "type": "address"
            },
            {
              "internalType": "uint256",
              "name": "amount",
              "type": "uint256"
            }
          ],
          "internalType": "struct JBPayDelegateAllocation[]",
          "name": "delegateAllocations",
          "type": "tuple[]"
        }
      ],
      "stateMutability": "view",
      "type": "function"
    },
    {
      "inputs": [],
      "name": "pricingCurrency",
      "outputs": [
        {
          "internalType": "uint256",
          "name": "",
          "type": "uint256"
        }
      ],
      "stateMutability": "view",
      "type": "function"
    },
    {
      "inputs": [],
      "name": "projectId",
      "outputs": [
        {
          "internalType": "uint256",
          "name": "",
          "type": "uint256"
        }
      ],
      "stateMutability": "view",
      "type": "function"
    },
    {
      "inputs": [
        {
          "components": [
            {
              "internalType": "contract IJBPaymentTerminal",
              "name": "terminal",
              "type": "address"
            },
            {
              "internalType": "address",
              "name": "holder",
              "type": "address"
            },
            {
              "internalType": "uint256",
              "name": "projectId",
              "type": "uint256"
            },
            {
              "internalType": "uint256",
              "name": "currentFundingCycleConfiguration",
              "type": "uint256"
            },
            {
              "internalType": "uint256",
              "name": "tokenCount",
              "type": "uint256"
            },
            {
              "internalType": "uint256",
              "name": "totalSupply",
              "type": "uint256"
            },
            {
              "internalType": "uint256",
              "name": "overflow",
              "type": "uint256"
            },
            {
              "components": [
                {
                  "internalType": "address",
                  "name": "token",
                  "type": "address"
                },
                {
                  "internalType": "uint256",
                  "name": "value",
                  "type": "uint256"
                },
                {
                  "internalType": "uint256",
                  "name": "decimals",
                  "type": "uint256"
                },
                {
                  "internalType": "uint256",
                  "name": "currency",
                  "type": "uint256"
                }
              ],
              "internalType": "struct JBTokenAmount",
              "name": "reclaimAmount",
              "type": "tuple"
            },
            {
              "internalType": "bool",
              "name": "useTotalOverflow",
              "type": "bool"
            },
            {
              "internalType": "uint256",
              "name": "redemptionRate",
              "type": "uint256"
            },
            {
              "internalType": "string",
              "name": "memo",
              "type": "string"
            },
            {
              "internalType": "bytes",
              "name": "metadata",
              "type": "bytes"
            }
          ],
          "internalType": "struct JBRedeemParamsData",
          "name": "_data",
          "type": "tuple"
        }
      ],
      "name": "redeemParams",
      "outputs": [
        {
          "internalType": "uint256",
          "name": "reclaimAmount",
          "type": "uint256"
        },
        {
          "internalType": "string",
          "name": "memo",
          "type": "string"
        },
        {
          "components": [
            {
              "internalType": "contract IJBRedemptionDelegate",
              "name": "delegate",
              "type": "address"
            },
            {
              "internalType": "uint256",
              "name": "amount",
              "type": "uint256"
            }
          ],
          "internalType": "struct JBRedemptionDelegateAllocation[]",
          "name": "delegateAllocations",
          "type": "tuple[]"
        }
      ],
      "stateMutability": "view",
      "type": "function"
    },
    {
      "inputs": [],
      "name": "redemptionWeightIsSet",
      "outputs": [
        {
          "internalType": "bool",
          "name": "",
          "type": "bool"
        }
      ],
      "stateMutability": "view",
      "type": "function"
    },
    {
      "inputs": [
        {
          "internalType": "uint256",
          "name": "_tokenId",
          "type": "uint256"
        }
      ],
      "name": "redemptionWeightOf",
      "outputs": [
        {
          "internalType": "uint256",
          "name": "",
          "type": "uint256"
        }
      ],
      "stateMutability": "view",
      "type": "function"
    },
    {
      "inputs": [
        {
          "internalType": "uint256[]",
          "name": "_tokenIds",
          "type": "uint256[]"
        },
        {
          "components": [
            {
              "internalType": "contract IJBPaymentTerminal",
              "name": "terminal",
              "type": "address"
            },
            {
              "internalType": "address",
              "name": "holder",
              "type": "address"
            },
            {
              "internalType": "uint256",
              "name": "projectId",
              "type": "uint256"
            },
            {
              "internalType": "uint256",
              "name": "currentFundingCycleConfiguration",
              "type": "uint256"
            },
            {
              "internalType": "uint256",
              "name": "tokenCount",
              "type": "uint256"
            },
            {
              "internalType": "uint256",
              "name": "totalSupply",
              "type": "uint256"
            },
            {
              "internalType": "uint256",
              "name": "overflow",
              "type": "uint256"
            },
            {
              "components": [
                {
                  "internalType": "address",
                  "name": "token",
                  "type": "address"
                },
                {
                  "internalType": "uint256",
                  "name": "value",
                  "type": "uint256"
                },
                {
                  "internalType": "uint256",
                  "name": "decimals",
                  "type": "uint256"
                },
                {
                  "internalType": "uint256",
                  "name": "currency",
                  "type": "uint256"
                }
              ],
              "internalType": "struct JBTokenAmount",
              "name": "reclaimAmount",
              "type": "tuple"
            },
            {
              "internalType": "bool",
              "name": "useTotalOverflow",
              "type": "bool"
            },
            {
              "internalType": "uint256",
              "name": "redemptionRate",
              "type": "uint256"
            },
            {
              "internalType": "string",
              "name": "memo",
              "type": "string"
            },
            {
              "internalType": "bytes",
              "name": "metadata",
              "type": "bytes"
            }
          ],
          "internalType": "struct JBRedeemParamsData",
          "name": "",
          "type": "tuple"
        }
      ],
      "name": "redemptionWeightOf",
      "outputs": [
        {
          "internalType": "uint256",
          "name": "cumulativeWeight",
          "type": "uint256"
        }
      ],
      "stateMutability": "view",
      "type": "function"
    },
    {
      "inputs": [],
      "name": "renounceOwnership",
      "outputs": [],
      "stateMutability": "nonpayable",
      "type": "function"
    },
    {
      "inputs": [
        {
          "internalType": "uint256",
          "name": "_tokenId",
          "type": "uint256"
        },
        {
          "internalType": "uint256",
          "name": "_salePrice",
          "type": "uint256"
        }
      ],
      "name": "royaltyInfo",
      "outputs": [
        {
          "internalType": "address",
          "name": "",
          "type": "address"
        },
        {
          "internalType": "uint256",
          "name": "",
          "type": "uint256"
        }
      ],
      "stateMutability": "view",
      "type": "function"
    },
    {
      "inputs": [
        {
          "internalType": "address",
          "name": "from",
          "type": "address"
        },
        {
          "internalType": "address",
          "name": "to",
          "type": "address"
        },
        {
          "internalType": "uint256",
          "name": "tokenId",
          "type": "uint256"
        }
      ],
      "name": "safeTransferFrom",
      "outputs": [],
      "stateMutability": "nonpayable",
      "type": "function"
    },
    {
      "inputs": [
        {
          "internalType": "address",
          "name": "from",
          "type": "address"
        },
        {
          "internalType": "address",
          "name": "to",
          "type": "address"
        },
        {
          "internalType": "uint256",
          "name": "tokenId",
          "type": "uint256"
        },
        {
          "internalType": "bytes",
          "name": "data",
          "type": "bytes"
        }
      ],
      "name": "safeTransferFrom",
      "outputs": [],
      "stateMutability": "nonpayable",
      "type": "function"
    },
    {
      "inputs": [
        {
          "internalType": "address",
          "name": "operator",
          "type": "address"
        },
        {
          "internalType": "bool",
          "name": "approved",
          "type": "bool"
        }
      ],
      "name": "setApprovalForAll",
      "outputs": [],
      "stateMutability": "nonpayable",
      "type": "function"
    },
    {
      "inputs": [
        {
          "internalType": "string",
          "name": "_baseUri",
          "type": "string"
        }
      ],
      "name": "setBaseUri",
      "outputs": [],
      "stateMutability": "pure",
      "type": "function"
    },
    {
      "inputs": [
        {
          "internalType": "string",
          "name": "_contractUri",
          "type": "string"
        }
      ],
      "name": "setContractUri",
      "outputs": [],
      "stateMutability": "pure",
      "type": "function"
    },
    {
      "inputs": [
        {
          "internalType": "address",
          "name": "_delegatee",
          "type": "address"
        },
        {
          "internalType": "uint256",
          "name": "_tierId",
          "type": "uint256"
        }
      ],
      "name": "setTierDelegate",
      "outputs": [],
      "stateMutability": "nonpayable",
      "type": "function"
    },
    {
      "inputs": [
        {
          "components": [
            {
              "internalType": "address",
              "name": "delegatee",
              "type": "address"
            },
            {
              "internalType": "uint256",
              "name": "tierId",
              "type": "uint256"
            }
          ],
          "internalType": "struct JBTiered721SetTierDelegatesData[]",
          "name": "_setTierDelegatesData",
          "type": "tuple[]"
        }
      ],
      "name": "setTierDelegates",
      "outputs": [],
      "stateMutability": "nonpayable",
      "type": "function"
    },
    {
      "inputs": [
        {
          "components": [
            {
              "internalType": "uint256",
              "name": "id",
              "type": "uint256"
            },
            {
              "internalType": "uint256",
              "name": "redemptionWeight",
              "type": "uint256"
            }
          ],
          "internalType": "struct DefifaTierRedemptionWeight[]",
          "name": "_tierWeights",
          "type": "tuple[]"
        }
      ],
      "name": "setTierRedemptionWeights",
      "outputs": [],
      "stateMutability": "nonpayable",
      "type": "function"
    },
    {
      "inputs": [
        {
          "internalType": "contract IJBTokenUriResolver",
          "name": "_tokenUriResolver",
          "type": "address"
        }
      ],
      "name": "setTokenUriResolver",
      "outputs": [],
      "stateMutability": "pure",
      "type": "function"
    },
    {
      "inputs": [],
      "name": "store",
      "outputs": [
        {
          "internalType": "contract IJBTiered721DelegateStore",
          "name": "",
          "type": "address"
        }
      ],
      "stateMutability": "view",
      "type": "function"
    },
    {
      "inputs": [
        {
          "internalType": "bytes4",
          "name": "_interfaceId",
          "type": "bytes4"
        }
      ],
      "name": "supportsInterface",
      "outputs": [
        {
          "internalType": "bool",
          "name": "",
          "type": "bool"
        }
      ],
      "stateMutability": "view",
      "type": "function"
    },
    {
      "inputs": [],
      "name": "symbol",
      "outputs": [
        {
          "internalType": "string",
          "name": "",
          "type": "string"
        }
      ],
      "stateMutability": "view",
      "type": "function"
    },
    {
      "inputs": [],
      "name": "tierRedemptionWeights",
      "outputs": [
        {
          "internalType": "uint256[128]",
          "name": "",
          "type": "uint256[128]"
        }
      ],
      "stateMutability": "view",
      "type": "function"
    },
    {
      "inputs": [
        {
          "internalType": "uint256",
          "name": "_tokenId",
          "type": "uint256"
        }
      ],
      "name": "tokenURI",
      "outputs": [
        {
          "internalType": "string",
          "name": "",
          "type": "string"
        }
      ],
      "stateMutability": "view",
      "type": "function"
    },
    {
      "inputs": [
        {
          "components": [
            {
              "internalType": "contract IJBPaymentTerminal",
              "name": "terminal",
              "type": "address"
            },
            {
              "internalType": "address",
              "name": "holder",
              "type": "address"
            },
            {
              "internalType": "uint256",
              "name": "projectId",
              "type": "uint256"
            },
            {
              "internalType": "uint256",
              "name": "currentFundingCycleConfiguration",
              "type": "uint256"
            },
            {
              "internalType": "uint256",
              "name": "tokenCount",
              "type": "uint256"
            },
            {
              "internalType": "uint256",
              "name": "totalSupply",
              "type": "uint256"
            },
            {
              "internalType": "uint256",
              "name": "overflow",
              "type": "uint256"
            },
            {
              "components": [
                {
                  "internalType": "address",
                  "name": "token",
                  "type": "address"
                },
                {
                  "internalType": "uint256",
                  "name": "value",
                  "type": "uint256"
                },
                {
                  "internalType": "uint256",
                  "name": "decimals",
                  "type": "uint256"
                },
                {
                  "internalType": "uint256",
                  "name": "currency",
                  "type": "uint256"
                }
              ],
              "internalType": "struct JBTokenAmount",
              "name": "reclaimAmount",
              "type": "tuple"
            },
            {
              "internalType": "bool",
              "name": "useTotalOverflow",
              "type": "bool"
            },
            {
              "internalType": "uint256",
              "name": "redemptionRate",
              "type": "uint256"
            },
            {
              "internalType": "string",
              "name": "memo",
              "type": "string"
            },
            {
              "internalType": "bytes",
              "name": "metadata",
              "type": "bytes"
            }
          ],
          "internalType": "struct JBRedeemParamsData",
          "name": "",
          "type": "tuple"
        }
      ],
      "name": "totalRedemptionWeight",
      "outputs": [
        {
          "internalType": "uint256",
          "name": "",
          "type": "uint256"
        }
      ],
      "stateMutability": "view",
      "type": "function"
    },
    {
      "inputs": [
        {
          "internalType": "address",
          "name": "from",
          "type": "address"
        },
        {
          "internalType": "address",
          "name": "to",
          "type": "address"
        },
        {
          "internalType": "uint256",
          "name": "tokenId",
          "type": "uint256"
        }
      ],
      "name": "transferFrom",
      "outputs": [],
      "stateMutability": "nonpayable",
      "type": "function"
    },
    {
      "inputs": [
        {
          "internalType": "address",
          "name": "newOwner",
          "type": "address"
        }
      ],
      "name": "transferOwnership",
      "outputs": [],
      "stateMutability": "nonpayable",
      "type": "function"
    }
  ],
  "bytecode": {
    "object": "0x608080604052346100665760078054336001600160a01b03198083168217909355906001600160a01b03167f8be0079c531659141344cd1fd0a4f28419497f9722a3daafe3b4186f6b6457e0600080a33090608d541617608d5561589c90816200006c8239f35b600080fdfe60806040526004361015610013575b600080fd5b60003560e01c806301ffc9a7146103de57806306fdde03146103d5578063081812fc146103cc578063095ea7b3146103c35780631d153ca4146103ba57806323b872dd146103b15780632407497e146103a85780632a55205a1461039f5780632a596e53146103965780632b13c58f1461038d5780632f441500146103845780633fafa1271461037b57806342842e0e146103725780634f228e111461036957806354c6d1f514610360578063557e7155146103575780636352211e1461034e578063640abacd1461034557806364640c1e1461033c57806370a0823114610333578063715018a61461032a5780637ba62bf91461032157806382732b6d146103185780638da5cb5b1461030f5780639494bf721461030657806394c5c5ca146102fd57806395d89b41146102f4578063975057e7146102eb5780639df45468146102e2578063a0bcfc7f1461027f578063a22cb465146102d9578063a51cfd18146102d0578063a8c15f4a146102c7578063aa4fb15b146102be578063ab951e39146102b5578063b88d4fde146102ac578063c41c2f24146102a3578063c74b13d91461029a578063c87b56dd14610291578063ca323efe14610288578063ccb4807b1461027f578063d1704baf14610276578063d31cc52c1461026d578063d40e714614610264578063d46cf1711461025b578063da9ee8b714610252578063e8a3d48514610249578063e985e9c5146102405763f2fde38b1461023857600080fd5b61000e61228c565b5061000e612221565b5061000e61217c565b5061000e612055565b5061000e611f98565b5061000e611edc565b5061000e611ead565b5061000e611de3565b5061000e6115b7565b5061000e611acb565b5061000e611984565b5061000e6118d1565b5061000e6118a9565b5061000e611840565b5061000e6117b3565b5061000e611793565b5061000e61176f565b5061000e6116e4565b5061000e611615565b5061000e611531565b5061000e611509565b5061000e611463565b5061000e611426565b5061000e611408565b5061000e6113e0565b5061000e611392565b5061000e61133a565b5061000e61127f565b5061000e6111c7565b5061000e6111a8565b5061000e611188565b5061000e611169565b5061000e611141565b5061000e611122565b5061000e6110fb565b5061000e6110b3565b5061000e611094565b5061000e611000565b5061000e610a8f565b5061000e6109cf565b5061000e6108fb565b5061000e6108de565b5061000e6108a9565b5061000e610855565b5061000e610767565b5061000e610719565b5061000e610639565b5061000e6103f9565b6001600160e01b031981160361000e57565b503461000e57602060031936011261000e576104626001600160e01b0319600435610423816103e7565b167fd6b01af1000000000000000000000000000000000000000000000000000000008114908115610466575b5060405190151581529081906020820190565b0390f35b63b3bcbb7960e01b8114915081156105a8575b811561057e575b8115610554575b811561052a575b811561049c575b503861044f565b7f80ac58cd00000000000000000000000000000000000000000000000000000000811491508115610500575b81156104d6575b5038610495565b7f01ffc9a700000000000000000000000000000000000000000000000000000000915014386104cf565b7f5b5e139f00000000000000000000000000000000000000000000000000000000811491506104c8565b7f2a55205a000000000000000000000000000000000000000000000000000000008114915061048e565b7f2b13c58f0000000000000000000000000000000000000000000000000000000081149150610487565b7fda9ee8b70000000000000000000000000000000000000000000000000000000081149150610480565b7f71700c690000000000000000000000000000000000000000000000000000000081149150610479565b600091031261000e57565b60005b8381106105f05750506000910152565b81810151838201526020016105e0565b90601f19601f60209361061e815180928187528780880191016105dd565b0116010190565b906020610636928181520190610600565b90565b503461000e57600080600319360112610716576040519080805461065c81613c49565b808552916001918083169081156106ec5750600114610692575b6104628561068681870382610f20565b60405191829182610625565b80809450527f290decd9548b62a8d60345a988386fc84ba6bc95484008f6362f93160ef3e5635b8284106106d457505050810160200161068682610462610676565b805460208587018101919091529093019281016106b9565b8695506104629693506020925061068694915060ff191682840152151560051b8201019293610676565b80fd5b503461000e57602060031936011261000e576020610738600435613c83565b6001600160a01b0360405191168152f35b6001600160a01b0381160361000e57565b359061076582610749565b565b503461000e57604060031936011261000e5760043561078581610749565b6024356001600160a01b038061079a83613bff565b16809184161461082b578033141590816107e9575b506107bf576107bd916147de565b005b60046040517fe5fa0e35000000000000000000000000000000000000000000000000000000008152fd5b9050600052600460205261082561082161081a336040600020906001600160a01b0316600052602052604060002090565b5460ff1690565b1590565b386107af565b60046040517f133f8be9000000000000000000000000000000000000000000000000000000008152fd5b503461000e57600060031936011261000e5760206001600160a01b03608d5416604051908152f35b600319606091011261000e5760043561089581610749565b906024356108a281610749565b9060443590565b503461000e576108b83661087d565b906108c38233613d19565b156107bf576107bd926144bb565b60c4359061076582610749565b503461000e57602060031936011261000e576107bd600435610749565b503461000e5760408060031936011261000e576064816001600160a01b03608e54168151928380927f538bd5ea000000000000000000000000000000000000000000000000000000008252306004830152600435602483015260243560448301525afa9182156109c2575b600091829361098d575b50516001600160a01b039190911681526020810191909152604090f35b816109b392945061046293503d85116109bb575b6109ab8183610f20565b810190612458565b929091610970565b503d6109a1565b6109ca612393565b610966565b503461000e5760208060031936011261000e576004359067ffffffffffffffff9081831161000e573660238401121561000e57826004013591821161000e57602490600693368385871b8301011161000e5760005b848110610a2d57005b600190610a4f610a433687848b1b870101610fb9565b858151910151906134dc565b01610a24565b90816101e091031261000e5790565b602060031982011261000e576004359067ffffffffffffffff821161000e5761063691600401610a55565b50610a9936610a64565b3415801590610ddc575b8015610dcc575b610da25760a0810135908115610d78576101c081016024610acb828461281b565b9050108015610d42575b610d1857610ae6610aee918361281b565b81019061290f565b9150508051610b46610b17610b0b608f546001600160a01b031690565b6001600160a01b031690565b93600554604095865180916321d1336160e11b825261012092839181806004998a988983019190602083019252565b03915afa918215610d0b575b600092610cde575b505051149460005b848110610b8e578787610b7488613b52565b610b7a57005b610b896107bd91608854612506565b608855565b610b9881876124b7565b51610bbd610bb0826000526002602052604060002090565b546001600160a01b031690565b6001600160a01b03610bd1610b0b87613454565b911603610cb657908188610be6600194614240565b610bf2575b5001610b62565b610c6f90610c0b610b0b608e546001600160a01b031690565b87865180927f42f9914b0000000000000000000000000000000000000000000000000000000082528180610c49602097889683019190602083019252565b03915afa918215610ca9575b600092610c7c575b50506000526089602052604060002090565b8054600101905538610beb565b610c9b9250803d10610ca2575b610c938183610f20565b810190612477565b3880610c5d565b503d610c89565b610cb1612393565b610c55565b8483517f075fd2b1000000000000000000000000000000000000000000000000000000008152fd5b610cfd9250803d10610d04575b610cf58183610f20565b81019061294a565b3880610b5a565b503d610ceb565b610d13612393565b610b52565b60046040517f2a84050f000000000000000000000000000000000000000000000000000000008152fd5b5063b3bcbb7960e01b6001600160e01b0319610d70610d6a610d64858761281b565b9061286c565b9061288e565b161415610ad5565b60046040517f76914729000000000000000000000000000000000000000000000000000000008152fd5b60046040517f7df94b86000000000000000000000000000000000000000000000000000000008152fd5b5060055460208201351415610aaa565b50610e3d6020610df7610b0b6006546001600160a01b031690565b6005546040517f6e49181f000000000000000000000000000000000000000000000000000000008152600481019190915233602482015292839190829081906044820190565b03915afa908115610e86575b600091610e58575b5015610aa3565b610e79915060203d8111610e7f575b610e718183610f20565b81019061343f565b38610e51565b503d610e67565b610e8e612393565b610e49565b50634e487b7160e01b600052604160045260246000fd5b6040810190811067ffffffffffffffff821117610ec657604052565b610ece610e93565b604052565b6080810190811067ffffffffffffffff821117610ec657604052565b67ffffffffffffffff8111610ec657604052565b611000810190811067ffffffffffffffff821117610ec657604052565b90601f601f19910116810190811067ffffffffffffffff821117610ec657604052565b604051906101c0820182811067ffffffffffffffff821117610ec657604052565b6040519061076582610eaa565b60405190610120820182811067ffffffffffffffff821117610ec657604052565b60209067ffffffffffffffff8111610fac575b60051b0190565b610fb4610e93565b610fa5565b919082604091031261000e576040516040810181811067ffffffffffffffff821117610ff3575b6040526020808294803584520135910152565b610ffb610e93565b610fe0565b503461000e5760208060031936011261000e576004359067ffffffffffffffff821161000e573660238301121561000e5781600401359161104083610f92565b9160409361105085519485610f20565b80845260248285019160061b8401019236841161000e57602401905b83821061107c576107bd85613171565b8286916110893685610fb9565b81520191019061106c565b503461000e57600060031936011261000e576020600554604051908152f35b503461000e576107bd6110c53661087d565b90604051926020840184811067ffffffffffffffff8211176110ee575b60405260008452613cc2565b6110f6610e93565b6110e2565b503461000e57602060031936011261000e57602061111a600435612689565b604051908152f35b503461000e57602060031936011261000e5760206107386004356123c0565b503461000e57600060031936011261000e5760206001600160a01b03608f5416604051908152f35b503461000e57602060031936011261000e576020610738600435613bff565b503461000e57600060031936011261000e576020604051633b9aca008152f35b503461000e57600060031936011261000e576020609054604051908152f35b503461000e57602060031936011261000e576104626004356111e881610749565b60206001600160a01b03604481608e54169360405194859384927ff7888aec0000000000000000000000000000000000000000000000000000000084523060048501521660248301525afa908115611272575b600091611254575b506040519081529081906020820190565b61126c915060203d8111610ca257610c938183610f20565b38611243565b61127a612393565b61123b565b503461000e576000806003193601126107165761129a61526b565b806001600160a01b036007546001600160a01b03198116600755167f8be0079c531659141344cd1fd0a4f28419497f9722a3daafe3b4186f6b6457e08280a380f35b81601f8201121561000e578035916112f383610f92565b926113016040519485610f20565b808452602092838086019260051b82010192831161000e578301905b82821061132b575050505090565b8135815290830190830161131d565b503461000e57604060031936011261000e5767ffffffffffffffff60043581811161000e5761136d9036906004016112dc565b9060243590811161000e5760209161138c61111a923690600401610a55565b50612513565b503461000e57604060031936011261000e5760206004356113b281610749565b6001600160a01b03809116600052608a82526040600020602435600052825260406000205416604051908152f35b503461000e57600060031936011261000e5760206001600160a01b0360075416604051908152f35b503461000e5761141736610a64565b506020604051633b9aca008152f35b503461000e57602060031936011261000e57600435600052608c60205260206001600160e01b0361145a60406000206154fe565b16604051908152f35b503461000e57600080600319360112610716576040519080600180549161148983613c49565b808652928281169081156106ec57506001146114af576104628561068681870382610f20565b92508083527fb10e2d527612073b26eecdfd717e6a320cf44b4afac2b0732d9fcbe2b7fa0cf65b8284106114f157505050810160200161068682610462610676565b805460208587018101919091529093019281016114d6565b503461000e57600060031936011261000e5760206001600160a01b03608e5416604051908152f35b503461000e57600060031936011261000e5760405161154f81610f03565b611000809136903760405160086000825b608082106115a15750505061157481610f03565b60405190600090825b6080831061158a57505050f35b60019082518152602080910192019201919061157d565b6001602081928554815201930191019091611560565b503461000e57602060031936011261000e5760043567ffffffffffffffff80821161000e573660238301121561000e57816004013590811161000e573691016024011161000e57005b8015150361000e57565b359061076582611600565b503461000e57604060031936011261000e5760043561163381610749565b60243561163f81611600565b6001600160a01b038216918233146116ba5761167b903360005260046020526040600020906001600160a01b0316600052602052604060002090565b9015159060ff1981541660ff83161790556040519081527f17307eab39ab6107e8899845ad3d59bd9653f200f220920489ca2b5937696c3160203392a3005b60046040517f0df0273a000000000000000000000000000000000000000000000000000000008152fd5b503461000e576116fb6116f636610a64565b6129be565b60409291928051938493845261171d6020916060838701526060860190610600565b90848203838601528080855193848152019401926000905b8382106117425786860387f35b845180516001600160a01b0316875283015186840152879650948501949382019360019190910190611735565b503461000e57600060031936011261000e57602060ff609154166040519015158152f35b503461000e57604060031936011261000e576107bd6024356004356134dc565b503461000e57604060031936011261000e576107bd6004356117d481610749565b602435903361389b565b601f19601f60209267ffffffffffffffff81116117fc575b01160190565b611804610e93565b6117f6565b929192611815826117de565b916118236040519384610f20565b82948184528183011161000e578281602093846000960137010152565b503461000e57608060031936011261000e5760043561185e81610749565b60243561186a81610749565b6064359167ffffffffffffffff831161000e573660238401121561000e5761189f6107bd933690602481600401359101611809565b9160443591613cc2565b503461000e57600060031936011261000e5760206001600160a01b0360065416604051908152f35b503461000e5760208060031936011261000e576004359067ffffffffffffffff821161000e573660238301121561000e5781600401359161191183610f92565b9160409361192185519485610f20565b80845260248285019160061b8401019236841161000e57602401905b83821061194d576107bd8561345e565b858236031261000e57828691825161196481610eaa565b843561196f81610749565b8152828501358382015281520191019061193d565b503461000e57602060031936011261000e576104626119ae610b0b608e546001600160a01b031690565b6040517f0fab094700000000000000000000000000000000000000000000000000000000815230600482015290602090829060249082905afa908115611abe575b600091611a90575b50600060405180927fda0544aa000000000000000000000000000000000000000000000000000000008252816001600160a01b0381611a40600435600483019190602083019252565b0392165afa908115611a83575b600091611a62575b5060405191829182610625565b611a7d913d8091833e611a758183610f20565b810190612334565b38611a55565b611a8b612393565b611a4d565b611ab1915060203d8111611ab7575b611aa98183610f20565b8101906123ab565b386119f7565b503d611a9f565b611ac6612393565b6119ef565b503461000e57604060031936011261000e576001600160a01b03600435611af181610749565b16600052608b602052604060002060243560005260205260206001600160e01b0361145a60406000206154fe565b6024359061076582610749565b9080601f8301121561000e5781602061063693359101611809565b6084359061076582610749565b359069ffffffffffffffffffff8216820361000e57565b359065ffffffffffff8216820361000e57565b359064ffffffffff8216820361000e57565b359061ffff8216820361000e57565b359060ff8216820361000e57565b919091608090818185031261000e576040805192611bca84610ed3565b8395833567ffffffffffffffff811161000e57840181601f8201121561000e57803590611bf682610f92565b92611c0386519485610f20565b82845260209485850191866101c08096028501019381851161000e578701925b848410611c565750505092875250505080830135908401528082013590830152606090611c5190820161075a565b910152565b858483031261000e57878691611c6a610f43565b611c7387611b54565b8152611c80838801611b6b565b83820152611c8f8c8801611b7e565b8c8201526060611ca0818901611b90565b90820152611caf868801611b90565b8682015260a0611cc081890161075a565b9082015260c0611cd1818901611b9f565b9082015260e0611ce281890161075a565b908201526101008088013590820152610120611cff818901611b9f565b90820152610140611d1181890161160a565b90820152610160611d2381890161160a565b90820152610180611d3581890161160a565b908201526101a0611d4781890161160a565b90820152815201930192611c23565b610124359061076582610749565b7ffffffffffffffffffffffffffffffffffffffffffffffffffffffffffffffebc608091011261000e5760405190611d9b82610ed3565b8161014435611da981611600565b815261016435611db881611600565b602082015261018435611dca81611600565b604082015260606101a43591611ddf83611600565b0152565b503461000e576101c060031936011261000e57611dfe611b1f565b60443567ffffffffffffffff9182821161000e57611e2160049236908401611b2c565b60643584811161000e57611e389036908501611b2c565b611e40611b47565b60a43586811161000e57611e579036908701611b2c565b611e5f6108d1565b9160e43588811161000e57611e779036908901611b2c565b936101043598891161000e57611e936107bd9936908a01611bad565b95611e9c611d56565b97611ea636611d64565b9935612dd5565b503461000e57604060031936011261000e57600435600052608c602052602061111a602435604060002061530b565b503461000e57606060031936011261000e576001600160a01b03600435611f0281610749565b16600052608b6020526040600020602435600052602052602061111a604435604060002061530b565b91908252611f456020916060838501526060840190610600565b90604092838184039101528080855193848152019401926000905b838210611f6f57505050505090565b845180516001600160a01b03168752830151868401529485019493820193600190910190611f60565b503461000e576020600319818136011261000e576004359067ffffffffffffffff821161000e576101a090823603011261000e57611fe7611fe061016483018360040161281b565b3691611809565b60405190611ff482610eaa565b6001825260005b84811061203f57509061046291610124946000612016610f64565b308152918201526120268361249d565b526120308261249d565b50604051948594013584611f2b565b84906120496128ba565b82828601015201611ffb565b5060031960208136011261000e576004359067ffffffffffffffff821161000e5761020090823603011261000e576005543415908115916120e2575b81156120d3575b506120a9576107bd90600401614d2f565b60046040517fc715ec6c000000000000000000000000000000000000000000000000000000008152fd5b90506024820135141538612098565b90506120f9610b0b6006546001600160a01b031690565b6040517f6e49181f0000000000000000000000000000000000000000000000000000000081526004810183905233602482015290602090829060449082905afa90811561216f575b600091612151575b501590612091565b612169915060203d8111610e7f57610e718183610f20565b38612149565b612177612393565b612141565b503461000e5760008060031936011261071657806024610462926001600160a01b03608e5416604051928380927faab0cd800000000000000000000000000000000000000000000000000000000082523060048301525afa918215612214575b80926121f9575b5050604051918291602083526020830190610600565b61220d92503d8091833e611a758183610f20565b38806121e3565b61221c612393565b6121dc565b503461000e57604060031936011261000e57602060ff61228060043561224681610749565b6001600160a01b036024359161225b83610749565b16600052600484526040600020906001600160a01b0316600052602052604060002090565b54166040519015158152f35b503461000e57602060031936011261000e576004356122aa81610749565b6122b261526b565b6001600160a01b038116156122ca576107bd906152c3565b608460405162461bcd60e51b815260206004820152602660248201527f4f776e61626c653a206e6577206f776e657220697320746865207a65726f206160448201527f64647265737300000000000000000000000000000000000000000000000000006064820152fd5b60208183031261000e5780519067ffffffffffffffff821161000e570181601f8201121561000e578051612367816117de565b926123756040519485610f20565b8184526020828401011161000e5761063691602080850191016105dd565b506040513d6000823e3d90fd5b519061076582610749565b9081602091031261000e575161063681610749565b608e546040516308ed6c0160e41b8152306004820152602481018390526001600160a01b0392916020908290604490829087165afa90811561244b575b60009161242d575b508281166124275750612422906000526002602052604060002090565b541690565b91505090565b612445915060203d8111611ab757611aa98183610f20565b38612405565b612453612393565b6123fd565b919082604091031261000e576020825161247181610749565b92015190565b9081602091031261000e575190565b50634e487b7160e01b600052603260045260246000fd5b6020908051156124ab570190565b6124b3612486565b0190565b60209181518110156124cc575b60051b010190565b6124d4612486565b6124c4565b50634e487b7160e01b600052601160045260246000fd5b90600182018092116124fe57565b6107656124d9565b919082018092116124fe57565b9060009180516000915b81831061252957505050565b90919360019061254261253c87856124b7565b51612689565b8101809111612555575b9401919061251d565b61255d6124d9565b61254c565b519061076582611600565b90816101c091031261000e57612581610f43565b90805182526020810151602083015260408101516040830152606081015160608301526080810151608083015260a081015160a083015260c081015160c08301526125ce60e082016123a0565b60e083015261010080820151908301526101206125ec8183016123a0565b9083015261014080820151908301526101608082015190830152610180612614818301612562565b908301526126266101a0809201612562565b9082015290565b9060001982019182116124fe57565b919082039182116124fe57565b608081101561265c575b60080190600090565b612664612486565b612653565b8115612673570490565b634e487b7160e01b600052601260045260246000fd5b6126dc60206126a3610b0b608e546001600160a01b031690565b92604051809381927f42f9914b000000000000000000000000000000000000000000000000000000008352600483019190602083019252565b0381855afa90811561280e575b6000916127f0575b50604051633a39e4d160e11b8152306004820152602481018290526101c0928390829060449082905afa9283156127e3575b6000936127b4575b505061274b61274161273c8361262d565b612649565b90549060031b1c90565b9081156127ac5760808301906127696060835195019485519061263c565b156127a3576127966127856106369561279d945190519061263c565b916000526089602052604060002090565b5490612506565b90612669565b50505050600090565b505050600090565b6127d4929350803d106127dc575b6127cc8183610f20565b81019061256d565b90388061272b565b503d6127c2565b6127eb612393565b612723565b612808915060203d8111610ca257610c938183610f20565b386126f1565b612816612393565b6126e9565b9035907fffffffffffffffffffffffffffffffffffffffffffffffffffffffffffffffe18136030182121561000e570180359067ffffffffffffffff821161000e5760200191813603831361000e57565b9060241161000e5760200190600490565b9060441161000e5760400190600490565b6001600160e01b031990358181169392600481106128ab57505050565b60040360031b82901b16169150565b604051906128c782610eaa565b60006020838281520152565b604051906128e082610eaa565b600182528160005b6020908181101561290a576020916128fe6128ba565b908285010152016128e8565b505050565b9160608383031261000e57823592602081013561292b816103e7565b92604082013567ffffffffffffffff811161000e5761063692016112dc565b908161012091031261000e5761295e610f71565b90805182526020810151602083015260408101516040830152606081015160608301526080810151608083015260a081015160a083015260c081015160c08301526129ab60e082016123a0565b60e0830152610100809101519082015290565b9060009060006080840135612c0c576101c0928385019360246129e1868861281b565b9050108015612be2575b610d18576129f76128d3565b94612a2c610ae6612a06610f64565b308152926020938785820152612a1b8a61249d565b52612a258961249d565b508961281b565b95915050612a45610b0b608f546001600160a01b031690565b92604089815180966321d1336160e11b82526101209788918180612a758860049801358883019190602083019252565b03915afa968715612bd5575b8597612bb6575b5050600180965114612ad45750505050505050611fe0612ac4612ad092612abe612ab860885460c08a0135612506565b91612513565b906157c1565b946101a081019061281b565b9190565b959996939291908451948397612af5610b0b608e546001600160a01b031690565b915b878a10612b1a5750505050505050505050611fe0816101a0612ad093019061281b565b9091929394959697899d88612b6488612b34859e876124b7565b5189518093819263b67cb04760e01b8352308b8401602090939291936001600160a01b0360408201951681520152565b03818a5afa908115612ba9575b8a91612b8c575b500151019d01989796959493929190612af7565b612ba39150893d8b116127dc576127cc8183610f20565b38612b78565b612bb1612393565b612b71565b612bcd929750803d10610d0457610cf58183610f20565b943880612a88565b612bdd612393565b612a81565b5063b3bcbb7960e01b6001600160e01b0319612c04610d6a610d64898b61281b565b1614156129eb565b60046040517f4fc178d8000000000000000000000000000000000000000000000000000000008152fd5b81601f8201121561000e57805191612c4d83610f92565b92612c5b6040519485610f20565b808452602092838086019260051b82010192831161000e578301905b828210612c85575050505090565b81518152908301908301612c77565b9060208282031261000e57815167ffffffffffffffff811161000e576106369201612c36565b60208082019080835283518092528060408094019401926000905b838210612ce457505050505090565b9091929394836101c0600192612dc88951612d0b83825169ffffffffffffffffffff169052565b8085015165ffffffffffff16838601528087015164ffffffffff168388015260608181015161ffff169084015260808181015161ffff169084015260a0818101516001600160a01b03169084015260c08181015160ff169084015260e0818101516001600160a01b03169084015261010081810151908401526101208082015160ff16908401526101408181015115159084015261016081810151151590840152610180818101511515908401526101a090810151151590830152565b0196019493920190612cd5565b909298979694939198612df3610b0b608d546001600160a01b031690565b301461000e576001600160a01b03998a612e18610b0b608e546001600160a01b031690565b1661000e57612e4694612e2a936149a9565b6001600160a01b03166001600160a01b0319608f541617608f55565b612e66856001600160a01b03166001600160a01b0319608e541617608e55565b612e736020850151609055565b80516130f9575b508051613081575b50838116613006575b50518051612f89575b50825115158015612f7c575b8015612f6f575b8015612f62575b612ebf575b505050610765336152c3565b16803b1561000e57604080517fcb827e320000000000000000000000000000000000000000000000000000000081528351151560048201526020840151151560248201529083015115156044820152606090920151151560648301526000908290608490829084905af18015612f55575b612f3c575b8080612eb3565b80612f49612f4f92610eef565b806105d2565b38612f35565b612f5d612393565b612f30565b5060608301511515612eae565b5060408301511515612ea7565b5060208301511515612ea0565b6000612fc291604051809381927f453b5abe00000000000000000000000000000000000000000000000000000000835260048301612cba565b0381838787165af18015612ff9575b15612e9457612ff2903d806000833e612fea8183610f20565b810190612c94565b5038612e94565b613001612393565b612fd1565b838316803b1561000e576040517fd84a72c00000000000000000000000000000000000000000000000000000000081526001600160a01b039290921660048301526000908290602490829084905af18015613074575b15612e8b5780612f4961306e92610eef565b38612e8b565b61307c612393565b61305c565b848416803b1561000e576130c96000929183926040519485809481937fd67b78fd00000000000000000000000000000000000000000000000000000000835260048301610625565b03925af180156130ec575b15612e825780612f496130e692610eef565b38612e82565b6130f4612393565b6130d4565b858516803b1561000e576131416000929183926040519485809481937f6262bcb200000000000000000000000000000000000000000000000000000000835260048301610625565b03925af18015613164575b15612e7a5780612f4961315e92610eef565b38612e7a565b61316c612393565b61314c565b6131c19061317d61526b565b613192610b0b608f546001600160a01b031690565b90600554604092835180916321d1336160e11b8252610120928391818060049a8b988983019190602083019252565b03915afa9182156133ee575b6000926133d1575b505051106133aa5760915460ff16613383576131ef6133fb565b613204610b0b608e546001600160a01b031690565b82517ff1bea54f0000000000000000000000000000000000000000000000000000000081523085820190815290916020918291849182908190850103915afa918215613376575b600092613357575b50909160009181519183945b8386106132b05750505050633b9aca0091501161328a575050610765600160ff196091541617609155565b517f6ff44e97000000000000000000000000000000000000000000000000000000008152fd5b90919293816132bf87856124b7565b51511161332f5761332360019161330f866132da8a886124b7565b5101516132f461273c6132ed8c8a6124b7565b515161262d565b90919082549060031b600019811b9283911b16911916179055565b8561331a89876124b7565b51015190612506565b9501949392919061325f565b8787517f52385374000000000000000000000000000000000000000000000000000000008152fd5b8161336f9293503d8411610ca257610c938183610f20565b9038613253565b61337e612393565b61324b565b50517f38101407000000000000000000000000000000000000000000000000000000008152fd5b50517ff8228d40000000000000000000000000000000000000000000000000000000008152fd5b6133e79250803d10610d0457610cf58183610f20565b38806131d5565b6133f6612393565b6131cd565b60085b608881106134095750565b600081556001016133fe565b818110613420575050565b60008155600101613415565b818102929181159184041417156124fe57565b9081602091031261000e575161063681611600565b3561063681610749565b8051906134696128ba565b5060005b82811061347957505050565b61348381836124b7565b51906001600160a01b0380835116156134b2578260206134ac926001955116910151903361389b565b0161346d565b60046040517f53d304f4000000000000000000000000000000000000000000000000000000008152fd5b9190916134f4610b0b608f546001600160a01b031690565b9061355260ff61010061352b60055495604096875180926321d1336160e11b82528180610120968795600483019190602083019252565b03915afa91821561388e575b600092613871575b5050015160f41c1660018091811c161490565b6138485761356b610b0b608e546001600160a01b031690565b82517f136e651c000000000000000000000000000000000000000000000000000000008152306004820152602481018390529490602090869060449082905afa94851561383b575b60009561381b575b506135ef610bb0836135e0886001600160a01b0316600052608a602052604060002090565b90600052602052604060002090565b6001600160a01b03918282161590816137ac575b613618610b0b608e546001600160a01b031690565b86517fbaa7e80e000000000000000000000000000000000000000000000000000000008152600481018790526024810183905294906000908690604490829084905af194851561379f575b600095613784575b5060005b82811061373557505050956107659596613694610b0b608e546001600160a01b031690565b9551633a39e4d160e11b8152306004820152602481018690526101c0968790829060449082905afa968715613728575b6000976136fa575b5050916020916136ec9493156000146136f25750945b015190519061342c565b91613993565b9050946136e2565b6136ec9594929750602093918161371c92903d106127dc576127cc8183610f20565b969193948193506136cc565b613730612393565b6136c4565b808a886137446001948a6124b7565b5161374f8184613d9a565b8b51338152928616927f031e1988c95a91ec4d655ff63a8f87a80bc9daf28d95ae10ee08c0022cfb5c8b90602090a40161366f565b61379891953d8091833e612fea8183610f20565b933861366b565b6137a7612393565b613663565b6137ec886137d1876135e0836001600160a01b0316600052608a602052604060002090565b906001600160a01b03166001600160a01b0319825416179055565b8388166000817f3134e8a2e6d97e929a7e54011ea5485d7d196dd5f0ba4d4ef95803e8e3fc257f8280a4613603565b61383491955060203d8111611ab757611aa98183610f20565b93386135bb565b613843612393565b6135b3565b600482517fe96092b8000000000000000000000000000000000000000000000000000000008152fd5b6138879250803d10610d0457610cf58183610f20565b388061353f565b613896612393565b613537565b6001600160a01b039081166000818152608a602090815260408083208784528252822080548686166001600160a01b03198216179091556107659692959294929390831692909190819080861685857f3134e8a2e6d97e929a7e54011ea5485d7d196dd5f0ba4d4ef95803e8e3fc257f8b80a4608e5416926064604051809581937f2e4d0ea800000000000000000000000000000000000000000000000000000000835230600484015260248301528960448301525afa958615613986575b95613967575b5050613a24565b61397e929550803d10610ca257610c938183610f20565b923880613960565b61398e612393565b61395a565b9061076592916000828152608c6020526139b08460408320615419565b505060406001600160a01b039182841615613a09575b808052608a6020528181208582526020526139fa838383205416946001600160a01b0316600052608a602052604060002090565b85825260205220541690613a24565b848152608c602052613a1d868383206154d6565b50506139c6565b9192906001600160a01b03928382169381168481148015613b4a575b613b4257859181613acf575b50505082613a5b575b50505050565b7fed0c1e94c302bdbbd8bbd6a4fb7c3ed335c2292407cd816eadd075d019d0ce0491613a9d613aae926001600160a01b0316600052608b602052604060002090565b856000526020526040600020615419565b6040805192835260208301919091523390820152606090a338808080613a55565b613aec906001600160a01b0316600052608b602052604060002090565b826000526020527fed0c1e94c302bdbbd8bbd6a4fb7c3ed335c2292407cd816eadd075d019d0ce04613b228560406000206154d6565b6040805192835260208301919091523390820152606090a3833880613a4c565b505050505050565b508315613a40565b6001600160a01b03608e5416803b1561000e5760405180927f86bc2be3000000000000000000000000000000000000000000000000000000008252602482016020908160048501528251809152816044850193019160005b828110613be857505050509181600081819503925af18015613bdb575b613bce5750565b80612f4961076592610eef565b613be3612393565b613bc7565b835185528795509381019392810192600101613baa565b60005260026020526001600160a01b03604060002054168015613c1f5790565b60046040517fb49aa3b5000000000000000000000000000000000000000000000000000000008152fd5b90600182811c92168015613c79575b6020831014613c6357565b634e487b7160e01b600052602260045260246000fd5b91607f1691613c58565b613ca38160005260026020526001600160a01b0360406000205416151590565b15613c1f5760005260036020526001600160a01b036040600020541690565b929190613ccf8233613d19565b156107bf5783613ce38383613ce8976144bb565b6148bc565b15613cef57565b60046040517f6deaf836000000000000000000000000000000000000000000000000000000008152fd5b6001600160a01b0380613d2b84613bff565b169281831692848414948515613d61575b50508315613d4b575b50505090565b613d5791929350613c83565b1614388080613d45565b60ff92955090613d909160005260046020526040600020906001600160a01b0316600052602052604060002090565b5416923880613d3c565b9190916001600160a01b038116908115613f2a57613dce8460005260026020526001600160a01b0360406000205416151590565b613f0057836000928184526002602052613e018360408620906001600160a01b03166001600160a01b0319825416179055565b837fddf252ad1be2c89b69c2b068fc378daa952ba7f163c4a11628f55a4df523b3ef8180a4613e6b613e3e610b0b608e546001600160a01b031690565b60405163b67cb04760e01b81523060048201526024810196909652946101c0918290829081906044820190565b0381895afa918215613ef3575b8492613ed6575b50505193803b15613ed2576040516330b157e560e21b81526004810195909552600060248601526001600160a01b039190911660448501529192918290606490829084905af18015613bdb57613bce5750565b8280fd5b613eec9250803d106127dc576127cc8183610f20565b3880613e7f565b613efb612393565b613e78565b60046040517fbad7c30c000000000000000000000000000000000000000000000000000000008152fd5b60046040517f7208af1e000000000000000000000000000000000000000000000000000000008152fd5b613f9a90613f6d610b0b608e546001600160a01b031690565b60405163b67cb04760e01b81523060048201526024810194909452926101c0928390829081906044820190565b0381875afa928315614047575b600093614028575b50508151833b1561000e576040516330b157e560e21b815260048101919091526001600160a01b0382166024820152600060448201819052610765948290606490829084905af1801561401b575b614008575b50614157565b80612f4961401592610eef565b38614002565b614023612393565b613ffd565b61403f929350803d106127dc576127cc8183610f20565b903880613faf565b61404f612393565b613fa7565b9061409b9161406e610b0b608e546001600160a01b031690565b60405163b67cb04760e01b81523060048201526024810195909552936101c0938490829081906044820190565b0381885afa93841561414a575b60009461412b575b50508251843b1561000e576040516330b157e560e21b815260048101919091526001600160a01b03828116602483015283166044820152610765946000908290606490829084905af1801561411e575b61410b575b506141c3565b80612f4961411892610eef565b38614105565b614126612393565b614100565b614142929450803d106127dc576127cc8183610f20565b9138806140b0565b614152612393565b6140a8565b6001600160a01b0380911691821561290a576107659260a0825192015192600091838352608c60205261418d85604085206154d6565b50508252608a60205260408220838352602052604081818420541692808052608a60205281812085825260205220541690613a24565b916001600160a01b03809316918215613a555761076593604060a084519401519482841615614223575b6000908152608a6020528181208582526020526139fa838383205416946001600160a01b0316600052608a602052604060002090565b84600052608c60205261423986836000206154d6565b50506141ed565b61424981613bff565b906001600160a01b039182811692836142b1575b508160006107659461426e83614788565b8282526002602052604082206001600160a01b031981541690557fddf252ad1be2c89b69c2b068fc378daa952ba7f163c4a11628f55a4df523b3ef8280a4613f54565b6142c6610b0b608e546001600160a01b031690565b60405163b67cb04760e01b815230600482015260248101859052909190614315906101a0906101c090818180604481015b0381895afa9182156144ae575b600092614491575b50500151151590565b61440f575b6040516308ed6c0160e41b815230600482015260248101859052602081604481865afa908115614402575b6000916143e4575b501661425d5792833b1561000e576040517f8cec7d39000000000000000000000000000000000000000000000000000000008152600481018490526001600160a01b0383166024820152610765948492600092909183908290604490829084905af180156143d7575b6143c4575b5094505061425d565b80612f496143d192610eef565b386143bb565b6143df612393565b6143b6565b6143fc915060203d8111611ab757611aa98183610f20565b3861434d565b61440a612393565b614345565b61444f614427610b0b608f546001600160a01b031690565b60055460405180926321d1336160e11b82528180610120968795600483019190602083019252565b03915afa8015614484575b614466575b505061431a565b8161447c92903d10610d0457610cf58183610f20565b50388061445f565b61448c612393565b61445a565b6144a79250803d106127dc576127cc8183610f20565b388061430c565b6144b6612393565b614304565b91906144c682613bff565b6001600160a01b038085169491811685900361475e578083169081156147345785614553575b508390610765956144fc83614788565b826000526002602052614529856040600020906001600160a01b03166001600160a01b0319825416179055565b7fddf252ad1be2c89b69c2b068fc378daa952ba7f163c4a11628f55a4df523b3ef600080a4614054565b614568610b0b608e546001600160a01b031690565b60405163b67cb04760e01b81523060048201526024810187905290919061459d906101a0906101c090818180604481016142f7565b614696575b6040516308ed6c0160e41b815230600482015260248101879052602081604481865afa908115614689575b60009161466b575b50166144ec5790813b1561000e576040517f8cec7d39000000000000000000000000000000000000000000000000000000008152600481018690526001600160a01b03841660248201526107659686939091906000908290604490829084905af1801561465e575b61464b575b509550906144ec565b80612f4961465892610eef565b38614642565b614666612393565b61463d565b614683915060203d8111611ab757611aa98183610f20565b386145d5565b614691612393565b6145cd565b6146db60ff6101006146b6614427610b0b608f546001600160a01b031690565b03915afa918215614727575b60009261470a575b5050015160f41c1660018091161490565b156145a25760046040517f18cdaf97000000000000000000000000000000000000000000000000000000008152fd5b6147209250803d10610d0457610cf58183610f20565b38806146ca565b61472f612393565b6146c2565b60046040517f2c955427000000000000000000000000000000000000000000000000000000008152fd5b60046040517fa195bc53000000000000000000000000000000000000000000000000000000008152fd5b80600052600360205260406000206001600160a01b0319815416905560006001600160a01b036147b783613bff565b167f8c5be1e5ebec7d5bd14f71427d1e84f3dd0314c0f7b2291e5b200ac8c7c3b9258280a4565b81600052600360205261480b816040600020906001600160a01b03166001600160a01b0319825416179055565b6001600160a01b038061481d84613bff565b169116907f8c5be1e5ebec7d5bd14f71427d1e84f3dd0314c0f7b2291e5b200ac8c7c3b925600080a4565b9081602091031261000e5751610636816103e7565b909261063694936080936001600160a01b03809216845216602083015260408201528160608201520190610600565b3d156148b7573d9061489d826117de565b916148ab6040519384610f20565b82523d6000602084013e565b606090565b92909190823b156149a0576149109260209260006001600160a01b036040518097819682957f150b7a02000000000000000000000000000000000000000000000000000000009b8c8552336004860161485d565b0393165af160009181614970575b506149625761492b61488c565b8051908161495d5760046040517f6deaf836000000000000000000000000000000000000000000000000000000008152fd5b602001fd5b6001600160e01b0319161490565b61499291925060203d8111614999575b61498a8183610f20565b810190614848565b903861491e565b503d614980565b50505050600190565b91929092805167ffffffffffffffff8111614ad3575b6000916149d5826149d08554613c49565b614ae0565b60209081601f8411600114614a4157509282614a1593614a1a96936107659998968492614a36575b50506000198260011b9260031b1c1916179055614b96565b600555565b6001600160a01b03166001600160a01b03196006541617600655565b0151905038806149fd565b600080529190601f1984167f290decd9548b62a8d60345a988386fc84ba6bc95484008f6362f93160ef3e5639386905b828210614abb57505093614a1a96936107659998969360019383614a159810614aa2575b505050811b019055614b96565b015160001960f88460031b161c19169055388080614a95565b80600186978294978701518155019601940190614a71565b614adb610e93565b6149bf565b90601f8211614aed575050565b61076591600080527f290decd9548b62a8d60345a988386fc84ba6bc95484008f6362f93160ef3e563906020601f840160051c83019310614b36575b601f0160051c0190613415565b9091508190614b29565b90601f8211614b4d575050565b6107659160016000527fb10e2d527612073b26eecdfd717e6a320cf44b4afac2b0732d9fcbe2b7fa0cf6906020601f840160051c83019310614b3657601f0160051c0190613415565b90815167ffffffffffffffff8111614c7e575b600190614bbf81614bba8454613c49565b614b40565b602080601f8311600114614bf9575081929394600092614bee575b505060001982841b9260031b1c1916179055565b015190503880614bda565b90601f19831695614c2c60016000527fb10e2d527612073b26eecdfd717e6a320cf44b4afac2b0732d9fcbe2b7fa0cf690565b926000905b888210614c675750508385969710614c4e575b505050811b019055565b015160001960f88460031b161c19169055388080614c44565b808785968294968601518155019501930190614c31565b614c86610e93565b614ba9565b9160a08383031261000e5782359260209182820135936040830135614caf816103e7565b9360608401359360808101359067ffffffffffffffff821161000e57019180601f8401121561000e578235614ce381610f92565b93614cf16040519586610f20565b818552838086019260051b82010192831161000e578301905b828210614d18575050505090565b838091614d2484611b90565b815201910190614d0a565b9060905460c08301350361509e576101e082016044614d4e828561281b565b90501180615056575b614d6057509050565b614d6d614d75918461281b565b810190614c8b565b95935091505083511561502c576000908015615025576001600160a01b03915016925b600093848095835192825b848110614dfc575050505050614dcc9293506080614dc46101808401613454565b920135615143565b614dd257565b60046040517f6d5e09a4000000000000000000000000000000000000000000000000000000008152fd5b614e1b614e14614e0c83896124b7565b5161ffff1690565b61ffff1690565b8303614f66575b88614e4f610bb0856135e0614e368c613454565b6001600160a01b0316600052608a602052604060002090565b6001600160a01b03898186168015928b8b85158096614f5b575b614e7e575b5050505050505050600101614da3565b91888b809897969593614e959b9e9a9b8d9661262d565b83109283614f35575b505050600014614ecc5750505050505050600191614ebb91612506565b935b90508838808981808b8b614e6e565b91848792819594614efb9b9792614f28575b5050614f0f575b505050600014614f05576136ec91508593612506565b6001600093614ebd565b6136ec9193612506565b614f1b614f2093613454565b61389b565b8b8488614ee5565b8816141590503880614ede565b61ffff929350614f5191614f4b614e0c926124f0565b906124b7565b1614878f8e614e9e565b508287161515614e69565b97509050614f7a614e14614e0c89876124b7565b9060a0614fdd614f95610b0b608e546001600160a01b031690565b614fa2614e0c8c8a6124b7565b6040518092633a39e4d160e11b825281806101c0968795306004840190929161ffff6020916001600160a01b03604085019616845216910152565b03915afa918215615018575b600092614ffb575b5050015197614e22565b6150119250803d106127dc576127cc8183610f20565b3880614ff1565b615020612393565b614fe9565b5092614d98565b60046040517f3d04bd1f000000000000000000000000000000000000000000000000000000008152fd5b507fd6b01af1000000000000000000000000000000000000000000000000000000006001600160e01b0319615097610d6a615091858861281b565b9061287d565b1614614d57565b60046040517f79cf85c0000000000000000000000000000000000000000000000000000000008152fd5b919060408382031261000e57825167ffffffffffffffff811161000e57602091612471918501612c36565b929190606084019084526020906060828601528251809152816080860193019160005b82811061512b57505050506040600091930152565b835161ffff1685529381019392810192600101615116565b92919261515b610b0b608e546001600160a01b031690565b9160409081519586947feaa19ab3000000000000000000000000000000000000000000000000000000008652600095869181838161519d888b600484016150f3565b03925af1801561525e575b85978691615236575b50968051955b8681106151c75750505050505050565b806151d4600192846124b7565b516151df8186613d9a565b61ffff6151ef614e0c84896124b7565b88518a81523360208201526001600160a01b0388169391909216917f598baf7bf150ca2f42be9e9f8f55e81d45f5715c3ff22bf46d697fabec7f31d690604090a4016151b7565b90506152559197503d8087833e61524d8183610f20565b8101906150c8565b969096386151b1565b615266612393565b6151a8565b6001600160a01b0360075416330361527f57565b606460405162461bcd60e51b815260206004820152602060248201527f4f776e61626c653a2063616c6c6572206973206e6f7420746865206f776e65726044820152fd5b600754906001600160a01b0380911691826001600160a01b0319821617600755167f8be0079c531659141344cd1fd0a4f28419497f9722a3daafe3b4186f6b6457e0600080a3565b90438110156153d55761531d90615746565b90805491600063ffffffff8092165b848210615373575050508161534357506000919050565b61536861536f9161535b6001600160e01b039461262d565b9060005260206000200190565b5460201c90565b1690565b9091938083169080841860011c82018092116153c8575b8460005282866153a58460206000200163ffffffff90541690565b1611156153b65750935b919061532c565b9492506153c2906124f0565b916153af565b6153d06124d9565b61538a565b606460405162461bcd60e51b815260206004820152602060248201527f436865636b706f696e74733a20626c6f636b206e6f7420796574206d696e65646044820152fd5b6001600160e01b0392918361542d836154fe565b169081018091116154c9575b61544243615746565b9184821161545f5784928361545893169161562c565b9316921690565b608460405162461bcd60e51b815260206004820152602760248201527f53616665436173743a2076616c756520646f65736e27742066697420696e203260448201527f32342062697473000000000000000000000000000000000000000000000000006064820152fd5b6154d16124d9565b615439565b6001600160e01b039291836154ea836154fe565b169081039081116154c95761544243615746565b805460008161550f57505050600090565b60209060001993838581011161552c575b81522001015460201c90565b6155346124d9565b615520565b906001600160e01b03602061076593805490680100000000000000008210156155b2575b600182018082558210156155a5575b60005281600020019263ffffffff81511663ffffffff1985541617845501511663ffffffff63ffffffff1983549260201b169116179055565b6155ad612486565b61556c565b6155ba610e93565b61555d565b906040516155cc81610eaa565b602081935463ffffffff81168352811c910152565b156155e857565b606460405162461bcd60e51b815260206004820152601760248201527f436865636b706f696e743a20696e76616c6964206b65790000000000000000006044820152fd5b9092919283825480151560001461571b57926020929184615667615662615655612ad09861262d565b8560005260206000200190565b6155bf565b93615676855163ffffffff1690565b61568d63ffffffff918284169283911611156155e1565b6156a761569e875163ffffffff1690565b63ffffffff1690565b036156e557506156d79261535b6156bd9261262d565b9063ffffffff63ffffffff1983549260201b169116179055565b01516001600160e01b031690565b915050615716916157036156f7610f64565b63ffffffff9093168352565b6001600160e01b03881682860152615539565b6156d7565b50506157409161572c6156f7610f64565b6001600160e01b0385166020830152615539565b60009190565b63ffffffff90818111615757571690565b608460405162461bcd60e51b815260206004820152602660248201527f53616665436173743a2076616c756520646f65736e27742066697420696e203360448201527f32206269747300000000000000000000000000000000000000000000000000006064820152fd5b91906000198184098184029182808310920391808303921461585957633b9aca009081831015615822577f88f2cfb83100cb4e69e7c79c58b316e597157d372fb9787e8e47ce423a2e9c6d94950990828211900360f71b910360091c170290565b60448383604051917f773cc18c00000000000000000000000000000000000000000000000000000000835260048301526024820152fd5b5050633b9aca009004915056fea264697066735822122046e416e339db804f257b053a4c464bbafdd17ca1a9dd4245a5b982597641af4964736f6c63430008110033",
    "linkReferences": {}
  },
  "methodIdentifiers": {
    "TOTAL_REDEMPTION_WEIGHT()": "640abacd",
    "approve(address,uint256)": "095ea7b3",
    "balanceOf(address)": "70a08231",
    "codeOrigin()": "1d153ca4",
    "contractURI()": "e8a3d485",
    "didPay((address,uint256,uint256,(address,uint256,uint256,uint256),(address,uint256,uint256,uint256),uint256,address,bool,string,bytes))": "da9ee8b7",
    "didRedeem((address,uint256,uint256,uint256,(address,uint256,uint256,uint256),(address,uint256,uint256,uint256),address,string,bytes))": "2b13c58f",
    "directory()": "c41c2f24",
    "firstOwnerOf(uint256)": "54c6d1f5",
    "fundingCycleStore()": "557e7155",
    "getApproved(uint256)": "081812fc",
    "getPastTierTotalVotes(uint256,uint256)": "d31cc52c",
    "getPastTierVotes(address,uint256,uint256)": "d40e7146",
    "getTierDelegate(address,uint256)": "82732b6d",
    "getTierTotalVotes(uint256)": "94c5c5ca",
    "getTierVotes(address,uint256)": "ca323efe",
    "initialize(uint256,address,string,string,address,string,address,string,((uint80,uint48,uint40,uint16,uint16,address,uint8,address,bytes32,uint8,bool,bool,bool,bool)[],uint256,uint256,address),address,(bool,bool,bool,bool))": "d1704baf",
    "isApprovedForAll(address,address)": "e985e9c5",
    "mintReservesFor((uint256,uint256)[])": "2a596e53",
    "mintReservesFor(uint256,uint256)": "aa4fb15b",
    "name()": "06fdde03",
    "owner()": "8da5cb5b",
    "ownerOf(uint256)": "6352211e",
    "payParams((address,address,(address,uint256,uint256,uint256),uint256,uint256,address,uint256,uint256,string,bytes))": "d46cf171",
    "pricingCurrency()": "64640c1e",
    "projectId()": "3fafa127",
    "redeemParams((address,address,uint256,uint256,uint256,uint256,uint256,(address,uint256,uint256,uint256),bool,uint256,string,bytes))": "a51cfd18",
    "redemptionWeightIsSet()": "a8c15f4a",
    "redemptionWeightOf(uint256)": "4f228e11",
    "redemptionWeightOf(uint256[],(address,address,uint256,uint256,uint256,uint256,uint256,(address,uint256,uint256,uint256),bool,uint256,string,bytes))": "7ba62bf9",
    "renounceOwnership()": "715018a6",
    "royaltyInfo(uint256,uint256)": "2a55205a",
    "safeTransferFrom(address,address,uint256)": "42842e0e",
    "safeTransferFrom(address,address,uint256,bytes)": "b88d4fde",
    "setApprovalForAll(address,bool)": "a22cb465",
    "setBaseUri(string)": "a0bcfc7f",
    "setContractUri(string)": "ccb4807b",
    "setTierDelegate(address,uint256)": "ab951e39",
    "setTierDelegates((address,uint256)[])": "c74b13d9",
    "setTierRedemptionWeights((uint256,uint256)[])": "2f441500",
    "setTokenUriResolver(address)": "2407497e",
    "store()": "975057e7",
    "supportsInterface(bytes4)": "01ffc9a7",
    "symbol()": "95d89b41",
    "tierRedemptionWeights()": "9df45468",
    "tokenURI(uint256)": "c87b56dd",
    "totalRedemptionWeight((address,address,uint256,uint256,uint256,uint256,uint256,(address,uint256,uint256,uint256),bool,uint256,string,bytes))": "9494bf72",
    "transferFrom(address,address,uint256)": "23b872dd",
    "transferOwnership(address)": "f2fde38b"
  },
  "id": 0
}