{
  "abi": [
    {
      "inputs": [],
      "stateMutability": "nonpayable",
      "type": "constructor"
    },
    {
      "inputs": [],
      "name": "ALEADY_MINTED",
      "type": "error"
    },
    {
      "inputs": [],
      "name": "APPROVAL_TO_CURRENT_OWNER",
      "type": "error"
    },
    {
      "inputs": [],
      "name": "APPROVE_TO_CALLER",
      "type": "error"
    },
    {
      "inputs": [],
      "name": "BLOCK_NOT_YET_MINED",
      "type": "error"
    },
    {
      "inputs": [],
      "name": "CALLER_NOT_OWNER_OR_APPROVED",
      "type": "error"
    },
    {
      "inputs": [],
      "name": "DELEGATE_ADDRESS_ZERO",
      "type": "error"
    },
    {
      "inputs": [],
      "name": "GAME_ISNT_OVER_YET",
      "type": "error"
    },
    {
      "inputs": [],
      "name": "INCORRECT_OWNER",
      "type": "error"
    },
    {
      "inputs": [],
      "name": "INVALID_PAYMENT_EVENT",
      "type": "error"
    },
    {
      "inputs": [],
      "name": "INVALID_REDEMPTION_EVENT",
      "type": "error"
    },
    {
      "inputs": [],
      "name": "INVALID_REDEMPTION_METADATA",
      "type": "error"
    },
    {
      "inputs": [],
      "name": "INVALID_REDEMPTION_WEIGHTS",
      "type": "error"
    },
    {
      "inputs": [],
      "name": "INVALID_TIER_ID",
      "type": "error"
    },
    {
      "inputs": [],
      "name": "INVALID_TOKEN_ID",
      "type": "error"
    },
    {
      "inputs": [],
      "name": "MINT_TO_ZERO",
      "type": "error"
    },
    {
      "inputs": [],
      "name": "NOTHING_TO_CLAIM",
      "type": "error"
    },
    {
      "inputs": [],
      "name": "NOTHING_TO_MINT",
      "type": "error"
    },
    {
      "inputs": [],
      "name": "NOT_AVAILABLE",
      "type": "error"
    },
    {
      "inputs": [],
      "name": "OVERSPENDING",
      "type": "error"
    },
    {
      "inputs": [
        {
          "internalType": "uint256",
          "name": "prod1",
          "type": "uint256"
        },
        {
          "internalType": "uint256",
          "name": "denominator",
          "type": "uint256"
        }
      ],
      "name": "PRBMath__MulDivOverflow",
      "type": "error"
    },
    {
      "inputs": [],
      "name": "PRICING_RESOLVER_CHANGES_PAUSED",
      "type": "error"
    },
    {
      "inputs": [],
      "name": "RESERVED_TOKEN_MINTING_PAUSED",
      "type": "error"
    },
    {
      "inputs": [],
      "name": "TRANSFERS_PAUSED",
      "type": "error"
    },
    {
      "inputs": [],
      "name": "TRANSFER_TO_NON_IMPLEMENTER",
      "type": "error"
    },
    {
      "inputs": [],
      "name": "TRANSFER_TO_ZERO_ADDRESS",
      "type": "error"
    },
    {
      "inputs": [],
      "name": "UNAUTHORIZED",
      "type": "error"
    },
    {
      "inputs": [],
      "name": "UNEXPECTED_TOKEN_REDEEMED",
      "type": "error"
    },
    {
      "inputs": [],
      "name": "WRONG_CURRENCY",
      "type": "error"
    },
    {
      "anonymous": false,
      "inputs": [
        {
          "indexed": true,
          "internalType": "uint256",
          "name": "tierId",
          "type": "uint256"
        },
        {
          "components": [
            {
              "internalType": "uint80",
              "name": "contributionFloor",
              "type": "uint80"
            },
            {
              "internalType": "uint48",
              "name": "lockedUntil",
              "type": "uint48"
            },
            {
              "internalType": "uint40",
              "name": "initialQuantity",
              "type": "uint40"
            },
            {
              "internalType": "uint16",
              "name": "votingUnits",
              "type": "uint16"
            },
            {
              "internalType": "uint16",
              "name": "reservedRate",
              "type": "uint16"
            },
            {
              "internalType": "address",
              "name": "reservedTokenBeneficiary",
              "type": "address"
            },
            {
              "internalType": "uint8",
              "name": "royaltyRate",
              "type": "uint8"
            },
            {
              "internalType": "address",
              "name": "royaltyBeneficiary",
              "type": "address"
            },
            {
              "internalType": "bytes32",
              "name": "encodedIPFSUri",
              "type": "bytes32"
            },
            {
              "internalType": "uint8",
              "name": "category",
              "type": "uint8"
            },
            {
              "internalType": "bool",
              "name": "allowManualMint",
              "type": "bool"
            },
            {
              "internalType": "bool",
              "name": "shouldUseReservedTokenBeneficiaryAsDefault",
              "type": "bool"
            },
            {
              "internalType": "bool",
              "name": "shouldUseRoyaltyBeneficiaryAsDefault",
              "type": "bool"
            },
            {
              "internalType": "bool",
              "name": "transfersPausable",
              "type": "bool"
            }
          ],
          "indexed": false,
          "internalType": "struct JB721TierParams",
          "name": "data",
          "type": "tuple"
        },
        {
          "indexed": false,
          "internalType": "address",
          "name": "caller",
          "type": "address"
        }
      ],
      "name": "AddTier",
      "type": "event"
    },
    {
      "anonymous": false,
      "inputs": [
        {
          "indexed": true,
          "internalType": "address",
          "name": "owner",
          "type": "address"
        },
        {
          "indexed": true,
          "internalType": "address",
          "name": "approved",
          "type": "address"
        },
        {
          "indexed": true,
          "internalType": "uint256",
          "name": "tokenId",
          "type": "uint256"
        }
      ],
      "name": "Approval",
      "type": "event"
    },
    {
      "anonymous": false,
      "inputs": [
        {
          "indexed": true,
          "internalType": "address",
          "name": "owner",
          "type": "address"
        },
        {
          "indexed": true,
          "internalType": "address",
          "name": "operator",
          "type": "address"
        },
        {
          "indexed": false,
          "internalType": "bool",
          "name": "approved",
          "type": "bool"
        }
      ],
      "name": "ApprovalForAll",
      "type": "event"
    },
    {
      "anonymous": false,
      "inputs": [
        {
          "indexed": true,
          "internalType": "address",
          "name": "delegator",
          "type": "address"
        },
        {
          "indexed": true,
          "internalType": "address",
          "name": "fromDelegate",
          "type": "address"
        },
        {
          "indexed": true,
          "internalType": "address",
          "name": "toDelegate",
          "type": "address"
        }
      ],
      "name": "DelegateChanged",
      "type": "event"
    },
    {
      "anonymous": false,
      "inputs": [
        {
          "indexed": true,
          "internalType": "uint256",
          "name": "tokenId",
          "type": "uint256"
        },
        {
          "indexed": true,
          "internalType": "uint256",
          "name": "tierId",
          "type": "uint256"
        },
        {
          "indexed": true,
          "internalType": "address",
          "name": "beneficiary",
          "type": "address"
        },
        {
          "indexed": false,
          "internalType": "uint256",
          "name": "totalAmountContributed",
          "type": "uint256"
        },
        {
          "indexed": false,
          "internalType": "address",
          "name": "caller",
          "type": "address"
        }
      ],
      "name": "Mint",
      "type": "event"
    },
    {
      "anonymous": false,
      "inputs": [
        {
          "indexed": true,
          "internalType": "uint256",
          "name": "tokenId",
          "type": "uint256"
        },
        {
          "indexed": true,
          "internalType": "uint256",
          "name": "tierId",
          "type": "uint256"
        },
        {
          "indexed": true,
          "internalType": "address",
          "name": "beneficiary",
          "type": "address"
        },
        {
          "indexed": false,
          "internalType": "address",
          "name": "caller",
          "type": "address"
        }
      ],
      "name": "MintReservedToken",
      "type": "event"
    },
    {
      "anonymous": false,
      "inputs": [
        {
          "indexed": true,
          "internalType": "address",
          "name": "previousOwner",
          "type": "address"
        },
        {
          "indexed": true,
          "internalType": "address",
          "name": "newOwner",
          "type": "address"
        }
      ],
      "name": "OwnershipTransferred",
      "type": "event"
    },
    {
      "anonymous": false,
      "inputs": [
        {
          "indexed": true,
          "internalType": "uint256",
          "name": "tierId",
          "type": "uint256"
        },
        {
          "indexed": false,
          "internalType": "address",
          "name": "caller",
          "type": "address"
        }
      ],
      "name": "RemoveTier",
      "type": "event"
    },
    {
      "anonymous": false,
      "inputs": [
        {
          "indexed": true,
          "internalType": "string",
          "name": "baseUri",
          "type": "string"
        },
        {
          "indexed": false,
          "internalType": "address",
          "name": "caller",
          "type": "address"
        }
      ],
      "name": "SetBaseUri",
      "type": "event"
    },
    {
      "anonymous": false,
      "inputs": [
        {
          "indexed": true,
          "internalType": "string",
          "name": "contractUri",
          "type": "string"
        },
        {
          "indexed": false,
          "internalType": "address",
          "name": "caller",
          "type": "address"
        }
      ],
      "name": "SetContractUri",
      "type": "event"
    },
    {
      "anonymous": false,
      "inputs": [
        {
          "indexed": true,
          "internalType": "address",
          "name": "beneficiary",
          "type": "address"
        },
        {
          "indexed": false,
          "internalType": "address",
          "name": "caller",
          "type": "address"
        }
      ],
      "name": "SetDefaultReservedTokenBeneficiary",
      "type": "event"
    },
    {
      "anonymous": false,
      "inputs": [
        {
          "indexed": true,
          "internalType": "uint256",
          "name": "tierId",
          "type": "uint256"
        },
        {
          "indexed": false,
          "internalType": "bytes32",
          "name": "encodedIPFSUri",
          "type": "bytes32"
        },
        {
          "indexed": false,
          "internalType": "address",
          "name": "caller",
          "type": "address"
        }
      ],
      "name": "SetEncodedIPFSUri",
      "type": "event"
    },
    {
      "anonymous": false,
      "inputs": [
        {
          "indexed": true,
          "internalType": "contract IJBTokenUriResolver",
          "name": "newResolver",
          "type": "address"
        },
        {
          "indexed": false,
          "internalType": "address",
          "name": "caller",
          "type": "address"
        }
      ],
      "name": "SetTokenUriResolver",
      "type": "event"
    },
    {
      "anonymous": false,
      "inputs": [
        {
          "indexed": true,
          "internalType": "address",
          "name": "delegator",
          "type": "address"
        },
        {
          "indexed": true,
          "internalType": "address",
          "name": "fromDelegate",
          "type": "address"
        },
        {
          "indexed": true,
          "internalType": "address",
          "name": "toDelegate",
          "type": "address"
        },
        {
          "indexed": false,
          "internalType": "uint256",
          "name": "tierId",
          "type": "uint256"
        },
        {
          "indexed": false,
          "internalType": "address",
          "name": "caller",
          "type": "address"
        }
      ],
      "name": "TierDelegateChanged",
      "type": "event"
    },
    {
      "anonymous": false,
      "inputs": [
        {
          "indexed": true,
          "internalType": "address",
          "name": "delegate",
          "type": "address"
        },
        {
          "indexed": true,
          "internalType": "uint256",
          "name": "tierId",
          "type": "uint256"
        },
        {
          "indexed": false,
          "internalType": "uint256",
          "name": "previousBalance",
          "type": "uint256"
        },
        {
          "indexed": false,
          "internalType": "uint256",
          "name": "newBalance",
          "type": "uint256"
        },
        {
          "indexed": false,
          "internalType": "address",
          "name": "caller",
          "type": "address"
        }
      ],
      "name": "TierDelegateVotesChanged",
      "type": "event"
    },
    {
      "anonymous": false,
      "inputs": [
        {
          "indexed": true,
          "internalType": "address",
          "name": "from",
          "type": "address"
        },
        {
          "indexed": true,
          "internalType": "address",
          "name": "to",
          "type": "address"
        },
        {
          "indexed": true,
          "internalType": "uint256",
          "name": "tokenId",
          "type": "uint256"
        }
      ],
      "name": "Transfer",
      "type": "event"
    },
    {
      "inputs": [],
      "name": "TOTAL_REDEMPTION_WEIGHT",
      "outputs": [
        {
          "internalType": "uint256",
          "name": "",
          "type": "uint256"
        }
      ],
      "stateMutability": "view",
      "type": "function"
    },
    {
      "inputs": [
        {
          "internalType": "address",
          "name": "to",
          "type": "address"
        },
        {
          "internalType": "uint256",
          "name": "tokenId",
          "type": "uint256"
        }
      ],
      "name": "approve",
      "outputs": [],
      "stateMutability": "nonpayable",
      "type": "function"
    },
    {
      "inputs": [
        {
          "internalType": "address",
          "name": "owner",
          "type": "address"
        }
      ],
      "name": "balanceOf",
      "outputs": [
        {
          "internalType": "uint256",
          "name": "balance",
          "type": "uint256"
        }
      ],
      "stateMutability": "view",
      "type": "function"
    },
    {
      "inputs": [],
      "name": "codeOrigin",
      "outputs": [
        {
          "internalType": "address",
          "name": "",
          "type": "address"
        }
      ],
      "stateMutability": "view",
      "type": "function"
    },
    {
      "inputs": [
        {
          "components": [
            {
              "internalType": "address",
              "name": "payer",
              "type": "address"
            },
            {
              "internalType": "uint256",
              "name": "projectId",
              "type": "uint256"
            },
            {
              "internalType": "uint256",
              "name": "currentFundingCycleConfiguration",
              "type": "uint256"
            },
            {
              "components": [
                {
                  "internalType": "address",
                  "name": "token",
                  "type": "address"
                },
                {
                  "internalType": "uint256",
                  "name": "value",
                  "type": "uint256"
                },
                {
                  "internalType": "uint256",
                  "name": "decimals",
                  "type": "uint256"
                },
                {
                  "internalType": "uint256",
                  "name": "currency",
                  "type": "uint256"
                }
              ],
              "internalType": "struct JBTokenAmount",
              "name": "amount",
              "type": "tuple"
            },
            {
              "components": [
                {
                  "internalType": "address",
                  "name": "token",
                  "type": "address"
                },
                {
                  "internalType": "uint256",
                  "name": "value",
                  "type": "uint256"
                },
                {
                  "internalType": "uint256",
                  "name": "decimals",
                  "type": "uint256"
                },
                {
                  "internalType": "uint256",
                  "name": "currency",
                  "type": "uint256"
                }
              ],
              "internalType": "struct JBTokenAmount",
              "name": "forwardedAmount",
              "type": "tuple"
            },
            {
              "internalType": "uint256",
              "name": "projectTokenCount",
              "type": "uint256"
            },
            {
              "internalType": "address",
              "name": "beneficiary",
              "type": "address"
            },
            {
              "internalType": "bool",
              "name": "preferClaimedTokens",
              "type": "bool"
            },
            {
              "internalType": "string",
              "name": "memo",
              "type": "string"
            },
            {
              "internalType": "bytes",
              "name": "metadata",
              "type": "bytes"
            }
          ],
          "internalType": "struct JBDidPayData",
          "name": "_data",
          "type": "tuple"
        }
      ],
      "name": "didPay",
      "outputs": [],
      "stateMutability": "payable",
      "type": "function"
    },
    {
      "inputs": [
        {
          "components": [
            {
              "internalType": "address",
              "name": "holder",
              "type": "address"
            },
            {
              "internalType": "uint256",
              "name": "projectId",
              "type": "uint256"
            },
            {
              "internalType": "uint256",
              "name": "currentFundingCycleConfiguration",
              "type": "uint256"
            },
            {
              "internalType": "uint256",
              "name": "projectTokenCount",
              "type": "uint256"
            },
            {
              "components": [
                {
                  "internalType": "address",
                  "name": "token",
                  "type": "address"
                },
                {
                  "internalType": "uint256",
                  "name": "value",
                  "type": "uint256"
                },
                {
                  "internalType": "uint256",
                  "name": "decimals",
                  "type": "uint256"
                },
                {
                  "internalType": "uint256",
                  "name": "currency",
                  "type": "uint256"
                }
              ],
              "internalType": "struct JBTokenAmount",
              "name": "reclaimedAmount",
              "type": "tuple"
            },
            {
              "components": [
                {
                  "internalType": "address",
                  "name": "token",
                  "type": "address"
                },
                {
                  "internalType": "uint256",
                  "name": "value",
                  "type": "uint256"
                },
                {
                  "internalType": "uint256",
                  "name": "decimals",
                  "type": "uint256"
                },
                {
                  "internalType": "uint256",
                  "name": "currency",
                  "type": "uint256"
                }
              ],
              "internalType": "struct JBTokenAmount",
              "name": "forwardedAmount",
              "type": "tuple"
            },
            {
              "internalType": "address payable",
              "name": "beneficiary",
              "type": "address"
            },
            {
              "internalType": "string",
              "name": "memo",
              "type": "string"
            },
            {
              "internalType": "bytes",
              "name": "metadata",
              "type": "bytes"
            }
          ],
          "internalType": "struct JBDidRedeemData",
          "name": "_data",
          "type": "tuple"
        }
      ],
      "name": "didRedeem",
      "outputs": [],
      "stateMutability": "payable",
      "type": "function"
    },
    {
      "inputs": [],
      "name": "directory",
      "outputs": [
        {
          "internalType": "contract IJBDirectory",
          "name": "",
          "type": "address"
        }
      ],
      "stateMutability": "view",
      "type": "function"
    },
    {
      "inputs": [
        {
          "internalType": "uint256",
          "name": "_tokenId",
          "type": "uint256"
        }
      ],
      "name": "firstOwnerOf",
      "outputs": [
        {
          "internalType": "address",
          "name": "",
          "type": "address"
        }
      ],
      "stateMutability": "view",
      "type": "function"
    },
    {
      "inputs": [],
      "name": "fundingCycleStore",
      "outputs": [
        {
          "internalType": "contract IJBFundingCycleStore",
          "name": "",
          "type": "address"
        }
      ],
      "stateMutability": "view",
      "type": "function"
    },
    {
      "inputs": [
        {
          "internalType": "uint256",
          "name": "tokenId",
          "type": "uint256"
        }
      ],
      "name": "getApproved",
      "outputs": [
        {
          "internalType": "address",
          "name": "",
          "type": "address"
        }
      ],
      "stateMutability": "view",
      "type": "function"
    },
    {
      "inputs": [
        {
          "internalType": "uint256",
          "name": "_tier",
          "type": "uint256"
        },
        {
          "internalType": "uint256",
          "name": "_blockNumber",
          "type": "uint256"
        }
      ],
      "name": "getPastTierTotalVotes",
      "outputs": [
        {
          "internalType": "uint256",
          "name": "",
          "type": "uint256"
        }
      ],
      "stateMutability": "view",
      "type": "function"
    },
    {
      "inputs": [
        {
          "internalType": "address",
          "name": "_account",
          "type": "address"
        },
        {
          "internalType": "uint256",
          "name": "_tier",
          "type": "uint256"
        },
        {
          "internalType": "uint256",
          "name": "_blockNumber",
          "type": "uint256"
        }
      ],
      "name": "getPastTierVotes",
      "outputs": [
        {
          "internalType": "uint256",
          "name": "",
          "type": "uint256"
        }
      ],
      "stateMutability": "view",
      "type": "function"
    },
    {
      "inputs": [
        {
          "internalType": "address",
          "name": "_account",
          "type": "address"
        },
        {
          "internalType": "uint256",
          "name": "_tier",
          "type": "uint256"
        }
      ],
      "name": "getTierDelegate",
      "outputs": [
        {
          "internalType": "address",
          "name": "",
          "type": "address"
        }
      ],
      "stateMutability": "view",
      "type": "function"
    },
    {
      "inputs": [
        {
          "internalType": "uint256",
          "name": "_tier",
          "type": "uint256"
        }
      ],
      "name": "getTierTotalVotes",
      "outputs": [
        {
          "internalType": "uint256",
          "name": "",
          "type": "uint256"
        }
      ],
      "stateMutability": "view",
      "type": "function"
    },
    {
      "inputs": [
        {
          "internalType": "address",
          "name": "_account",
          "type": "address"
        },
        {
          "internalType": "uint256",
          "name": "_tier",
          "type": "uint256"
        }
      ],
      "name": "getTierVotes",
      "outputs": [
        {
          "internalType": "uint256",
          "name": "",
          "type": "uint256"
        }
      ],
      "stateMutability": "view",
      "type": "function"
    },
    {
      "inputs": [
        {
          "internalType": "uint256",
          "name": "_projectId",
          "type": "uint256"
        },
        {
          "internalType": "contract IJBDirectory",
          "name": "_directory",
          "type": "address"
        },
        {
          "internalType": "string",
          "name": "_name",
          "type": "string"
        },
        {
          "internalType": "string",
          "name": "_symbol",
          "type": "string"
        },
        {
          "internalType": "contract IJBFundingCycleStore",
          "name": "_fundingCycleStore",
          "type": "address"
        },
        {
          "internalType": "string",
          "name": "_baseUri",
          "type": "string"
        },
        {
          "internalType": "contract IJBTokenUriResolver",
          "name": "_tokenUriResolver",
          "type": "address"
        },
        {
          "internalType": "string",
          "name": "_contractUri",
          "type": "string"
        },
        {
          "components": [
            {
              "components": [
                {
                  "internalType": "uint80",
                  "name": "contributionFloor",
                  "type": "uint80"
                },
                {
                  "internalType": "uint48",
                  "name": "lockedUntil",
                  "type": "uint48"
                },
                {
                  "internalType": "uint40",
                  "name": "initialQuantity",
                  "type": "uint40"
                },
                {
                  "internalType": "uint16",
                  "name": "votingUnits",
                  "type": "uint16"
                },
                {
                  "internalType": "uint16",
                  "name": "reservedRate",
                  "type": "uint16"
                },
                {
                  "internalType": "address",
                  "name": "reservedTokenBeneficiary",
                  "type": "address"
                },
                {
                  "internalType": "uint8",
                  "name": "royaltyRate",
                  "type": "uint8"
                },
                {
                  "internalType": "address",
                  "name": "royaltyBeneficiary",
                  "type": "address"
                },
                {
                  "internalType": "bytes32",
                  "name": "encodedIPFSUri",
                  "type": "bytes32"
                },
                {
                  "internalType": "uint8",
                  "name": "category",
                  "type": "uint8"
                },
                {
                  "internalType": "bool",
                  "name": "allowManualMint",
                  "type": "bool"
                },
                {
                  "internalType": "bool",
                  "name": "shouldUseReservedTokenBeneficiaryAsDefault",
                  "type": "bool"
                },
                {
                  "internalType": "bool",
                  "name": "shouldUseRoyaltyBeneficiaryAsDefault",
                  "type": "bool"
                },
                {
                  "internalType": "bool",
                  "name": "transfersPausable",
                  "type": "bool"
                }
              ],
              "internalType": "struct JB721TierParams[]",
              "name": "tiers",
              "type": "tuple[]"
            },
            {
              "internalType": "uint256",
              "name": "currency",
              "type": "uint256"
            },
            {
              "internalType": "uint256",
              "name": "decimals",
              "type": "uint256"
            },
            {
              "internalType": "contract IJBPrices",
              "name": "prices",
              "type": "address"
            }
          ],
          "internalType": "struct JB721PricingParams",
          "name": "_pricing",
          "type": "tuple"
        },
        {
          "internalType": "contract IJBTiered721DelegateStore",
          "name": "_store",
          "type": "address"
        },
        {
          "components": [
            {
              "internalType": "bool",
              "name": "lockReservedTokenChanges",
              "type": "bool"
            },
            {
              "internalType": "bool",
              "name": "lockVotingUnitChanges",
              "type": "bool"
            },
            {
              "internalType": "bool",
              "name": "lockManualMintingChanges",
              "type": "bool"
            },
            {
              "internalType": "bool",
              "name": "preventOverspending",
              "type": "bool"
            }
          ],
          "internalType": "struct JBTiered721Flags",
          "name": "_flags",
          "type": "tuple"
        }
      ],
      "name": "initialize",
      "outputs": [],
      "stateMutability": "nonpayable",
      "type": "function"
    },
    {
      "inputs": [
        {
          "internalType": "address",
          "name": "owner",
          "type": "address"
        },
        {
          "internalType": "address",
          "name": "operator",
          "type": "address"
        }
      ],
      "name": "isApprovedForAll",
      "outputs": [
        {
          "internalType": "bool",
          "name": "",
          "type": "bool"
        }
      ],
      "stateMutability": "view",
      "type": "function"
    },
    {
      "inputs": [
        {
          "components": [
            {
              "internalType": "uint256",
              "name": "tierId",
              "type": "uint256"
            },
            {
              "internalType": "uint256",
              "name": "count",
              "type": "uint256"
            }
          ],
          "internalType": "struct JBTiered721MintReservesForTiersData[]",
          "name": "_mintReservesForTiersData",
          "type": "tuple[]"
        }
      ],
      "name": "mintReservesFor",
      "outputs": [],
      "stateMutability": "nonpayable",
      "type": "function"
    },
    {
      "inputs": [
        {
          "internalType": "uint256",
          "name": "_tierId",
          "type": "uint256"
        },
        {
          "internalType": "uint256",
          "name": "_count",
          "type": "uint256"
        }
      ],
      "name": "mintReservesFor",
      "outputs": [],
      "stateMutability": "nonpayable",
      "type": "function"
    },
    {
      "inputs": [],
      "name": "name",
      "outputs": [
        {
          "internalType": "string",
          "name": "",
          "type": "string"
        }
      ],
      "stateMutability": "view",
      "type": "function"
    },
    {
      "inputs": [],
      "name": "owner",
      "outputs": [
        {
          "internalType": "address",
          "name": "",
          "type": "address"
        }
      ],
      "stateMutability": "view",
      "type": "function"
    },
    {
      "inputs": [
        {
          "internalType": "uint256",
          "name": "tokenId",
          "type": "uint256"
        }
      ],
      "name": "ownerOf",
      "outputs": [
        {
          "internalType": "address",
          "name": "",
          "type": "address"
        }
      ],
      "stateMutability": "view",
      "type": "function"
    },
    {
      "inputs": [
        {
          "components": [
            {
              "internalType": "contract IJBPaymentTerminal",
              "name": "terminal",
              "type": "address"
            },
            {
              "internalType": "address",
              "name": "payer",
              "type": "address"
            },
            {
              "components": [
                {
                  "internalType": "address",
                  "name": "token",
                  "type": "address"
                },
                {
                  "internalType": "uint256",
                  "name": "value",
                  "type": "uint256"
                },
                {
                  "internalType": "uint256",
                  "name": "decimals",
                  "type": "uint256"
                },
                {
                  "internalType": "uint256",
                  "name": "currency",
                  "type": "uint256"
                }
              ],
              "internalType": "struct JBTokenAmount",
              "name": "amount",
              "type": "tuple"
            },
            {
              "internalType": "uint256",
              "name": "projectId",
              "type": "uint256"
            },
            {
              "internalType": "uint256",
              "name": "currentFundingCycleConfiguration",
              "type": "uint256"
            },
            {
              "internalType": "address",
              "name": "beneficiary",
              "type": "address"
            },
            {
              "internalType": "uint256",
              "name": "weight",
              "type": "uint256"
            },
            {
              "internalType": "uint256",
              "name": "reservedRate",
              "type": "uint256"
            },
            {
              "internalType": "string",
              "name": "memo",
              "type": "string"
            },
            {
              "internalType": "bytes",
              "name": "metadata",
              "type": "bytes"
            }
          ],
          "internalType": "struct JBPayParamsData",
          "name": "_data",
          "type": "tuple"
        }
      ],
      "name": "payParams",
      "outputs": [
        {
          "internalType": "uint256",
          "name": "weight",
          "type": "uint256"
        },
        {
          "internalType": "string",
          "name": "memo",
          "type": "string"
        },
        {
          "components": [
            {
              "internalType": "contract IJBPayDelegate",
              "name": "delegate",
              "type": "address"
            },
            {
              "internalType": "uint256",
              "name": "amount",
              "type": "uint256"
            }
          ],
          "internalType": "struct JBPayDelegateAllocation[]",
          "name": "delegateAllocations",
          "type": "tuple[]"
        }
      ],
      "stateMutability": "view",
      "type": "function"
    },
    {
      "inputs": [],
      "name": "pricingCurrency",
      "outputs": [
        {
          "internalType": "uint256",
          "name": "",
          "type": "uint256"
        }
      ],
      "stateMutability": "view",
      "type": "function"
    },
    {
      "inputs": [],
      "name": "projectId",
      "outputs": [
        {
          "internalType": "uint256",
          "name": "",
          "type": "uint256"
        }
      ],
      "stateMutability": "view",
      "type": "function"
    },
    {
      "inputs": [
        {
          "components": [
            {
              "internalType": "contract IJBPaymentTerminal",
              "name": "terminal",
              "type": "address"
            },
            {
              "internalType": "address",
              "name": "holder",
              "type": "address"
            },
            {
              "internalType": "uint256",
              "name": "projectId",
              "type": "uint256"
            },
            {
              "internalType": "uint256",
              "name": "currentFundingCycleConfiguration",
              "type": "uint256"
            },
            {
              "internalType": "uint256",
              "name": "tokenCount",
              "type": "uint256"
            },
            {
              "internalType": "uint256",
              "name": "totalSupply",
              "type": "uint256"
            },
            {
              "internalType": "uint256",
              "name": "overflow",
              "type": "uint256"
            },
            {
              "components": [
                {
                  "internalType": "address",
                  "name": "token",
                  "type": "address"
                },
                {
                  "internalType": "uint256",
                  "name": "value",
                  "type": "uint256"
                },
                {
                  "internalType": "uint256",
                  "name": "decimals",
                  "type": "uint256"
                },
                {
                  "internalType": "uint256",
                  "name": "currency",
                  "type": "uint256"
                }
              ],
              "internalType": "struct JBTokenAmount",
              "name": "reclaimAmount",
              "type": "tuple"
            },
            {
              "internalType": "bool",
              "name": "useTotalOverflow",
              "type": "bool"
            },
            {
              "internalType": "uint256",
              "name": "redemptionRate",
              "type": "uint256"
            },
            {
              "internalType": "string",
              "name": "memo",
              "type": "string"
            },
            {
              "internalType": "bytes",
              "name": "metadata",
              "type": "bytes"
            }
          ],
          "internalType": "struct JBRedeemParamsData",
          "name": "_data",
          "type": "tuple"
        }
      ],
      "name": "redeemParams",
      "outputs": [
        {
          "internalType": "uint256",
          "name": "reclaimAmount",
          "type": "uint256"
        },
        {
          "internalType": "string",
          "name": "memo",
          "type": "string"
        },
        {
          "components": [
            {
              "internalType": "contract IJBRedemptionDelegate",
              "name": "delegate",
              "type": "address"
            },
            {
              "internalType": "uint256",
              "name": "amount",
              "type": "uint256"
            }
          ],
          "internalType": "struct JBRedemptionDelegateAllocation[]",
          "name": "delegateAllocations",
          "type": "tuple[]"
        }
      ],
      "stateMutability": "view",
      "type": "function"
    },
    {
      "inputs": [
        {
          "internalType": "uint256",
          "name": "_tokenId",
          "type": "uint256"
        }
      ],
      "name": "redemptionWeightOf",
      "outputs": [
        {
          "internalType": "uint256",
          "name": "",
          "type": "uint256"
        }
      ],
      "stateMutability": "view",
      "type": "function"
    },
    {
      "inputs": [
        {
          "internalType": "uint256[]",
          "name": "_tokenIds",
          "type": "uint256[]"
        },
        {
          "components": [
            {
              "internalType": "contract IJBPaymentTerminal",
              "name": "terminal",
              "type": "address"
            },
            {
              "internalType": "address",
              "name": "holder",
              "type": "address"
            },
            {
              "internalType": "uint256",
              "name": "projectId",
              "type": "uint256"
            },
            {
              "internalType": "uint256",
              "name": "currentFundingCycleConfiguration",
              "type": "uint256"
            },
            {
              "internalType": "uint256",
              "name": "tokenCount",
              "type": "uint256"
            },
            {
              "internalType": "uint256",
              "name": "totalSupply",
              "type": "uint256"
            },
            {
              "internalType": "uint256",
              "name": "overflow",
              "type": "uint256"
            },
            {
              "components": [
                {
                  "internalType": "address",
                  "name": "token",
                  "type": "address"
                },
                {
                  "internalType": "uint256",
                  "name": "value",
                  "type": "uint256"
                },
                {
                  "internalType": "uint256",
                  "name": "decimals",
                  "type": "uint256"
                },
                {
                  "internalType": "uint256",
                  "name": "currency",
                  "type": "uint256"
                }
              ],
              "internalType": "struct JBTokenAmount",
              "name": "reclaimAmount",
              "type": "tuple"
            },
            {
              "internalType": "bool",
              "name": "useTotalOverflow",
              "type": "bool"
            },
            {
              "internalType": "uint256",
              "name": "redemptionRate",
              "type": "uint256"
            },
            {
              "internalType": "string",
              "name": "memo",
              "type": "string"
            },
            {
              "internalType": "bytes",
              "name": "metadata",
              "type": "bytes"
            }
          ],
          "internalType": "struct JBRedeemParamsData",
          "name": "",
          "type": "tuple"
        }
      ],
      "name": "redemptionWeightOf",
      "outputs": [
        {
          "internalType": "uint256",
          "name": "cumulativeWeight",
          "type": "uint256"
        }
      ],
      "stateMutability": "view",
      "type": "function"
    },
    {
      "inputs": [],
      "name": "renounceOwnership",
      "outputs": [],
      "stateMutability": "nonpayable",
      "type": "function"
    },
    {
      "inputs": [
        {
          "internalType": "uint256",
          "name": "_tokenId",
          "type": "uint256"
        },
        {
          "internalType": "uint256",
          "name": "_salePrice",
          "type": "uint256"
        }
      ],
      "name": "royaltyInfo",
      "outputs": [
        {
          "internalType": "address",
          "name": "",
          "type": "address"
        },
        {
          "internalType": "uint256",
          "name": "",
          "type": "uint256"
        }
      ],
      "stateMutability": "view",
      "type": "function"
    },
    {
      "inputs": [
        {
          "internalType": "address",
          "name": "from",
          "type": "address"
        },
        {
          "internalType": "address",
          "name": "to",
          "type": "address"
        },
        {
          "internalType": "uint256",
          "name": "tokenId",
          "type": "uint256"
        }
      ],
      "name": "safeTransferFrom",
      "outputs": [],
      "stateMutability": "nonpayable",
      "type": "function"
    },
    {
      "inputs": [
        {
          "internalType": "address",
          "name": "from",
          "type": "address"
        },
        {
          "internalType": "address",
          "name": "to",
          "type": "address"
        },
        {
          "internalType": "uint256",
          "name": "tokenId",
          "type": "uint256"
        },
        {
          "internalType": "bytes",
          "name": "data",
          "type": "bytes"
        }
      ],
      "name": "safeTransferFrom",
      "outputs": [],
      "stateMutability": "nonpayable",
      "type": "function"
    },
    {
      "inputs": [
        {
          "internalType": "address",
          "name": "operator",
          "type": "address"
        },
        {
          "internalType": "bool",
          "name": "approved",
          "type": "bool"
        }
      ],
      "name": "setApprovalForAll",
      "outputs": [],
      "stateMutability": "nonpayable",
      "type": "function"
    },
    {
      "inputs": [
        {
          "internalType": "string",
          "name": "_baseUri",
          "type": "string"
        }
      ],
      "name": "setBaseUri",
      "outputs": [],
      "stateMutability": "pure",
      "type": "function"
    },
    {
      "inputs": [
        {
          "internalType": "string",
          "name": "_contractUri",
          "type": "string"
        }
      ],
      "name": "setContractUri",
      "outputs": [],
      "stateMutability": "pure",
      "type": "function"
    },
    {
      "inputs": [
        {
          "internalType": "address",
          "name": "_delegatee",
          "type": "address"
        },
        {
          "internalType": "uint256",
          "name": "_tierId",
          "type": "uint256"
        }
      ],
      "name": "setTierDelegate",
      "outputs": [],
      "stateMutability": "nonpayable",
      "type": "function"
    },
    {
      "inputs": [
        {
          "components": [
            {
              "internalType": "address",
              "name": "delegatee",
              "type": "address"
            },
            {
              "internalType": "uint256",
              "name": "tierId",
              "type": "uint256"
            }
          ],
          "internalType": "struct JBTiered721SetTierDelegatesData[]",
          "name": "_setTierDelegatesData",
          "type": "tuple[]"
        }
      ],
      "name": "setTierDelegates",
      "outputs": [],
      "stateMutability": "nonpayable",
      "type": "function"
    },
    {
      "inputs": [
        {
          "components": [
            {
              "internalType": "uint256",
              "name": "id",
              "type": "uint256"
            },
            {
              "internalType": "uint256",
              "name": "redemptionWeight",
              "type": "uint256"
            }
          ],
          "internalType": "struct DefifaTierRedemptionWeight[]",
          "name": "_tierWeights",
          "type": "tuple[]"
        }
      ],
      "name": "setTierRedemptionWeights",
      "outputs": [],
      "stateMutability": "nonpayable",
      "type": "function"
    },
    {
      "inputs": [
        {
          "internalType": "contract IJBTokenUriResolver",
          "name": "_tokenUriResolver",
          "type": "address"
        }
      ],
      "name": "setTokenUriResolver",
      "outputs": [],
      "stateMutability": "pure",
      "type": "function"
    },
    {
      "inputs": [],
      "name": "store",
      "outputs": [
        {
          "internalType": "contract IJBTiered721DelegateStore",
          "name": "",
          "type": "address"
        }
      ],
      "stateMutability": "view",
      "type": "function"
    },
    {
      "inputs": [
        {
          "internalType": "bytes4",
          "name": "_interfaceId",
          "type": "bytes4"
        }
      ],
      "name": "supportsInterface",
      "outputs": [
        {
          "internalType": "bool",
          "name": "",
          "type": "bool"
        }
      ],
      "stateMutability": "view",
      "type": "function"
    },
    {
      "inputs": [],
      "name": "symbol",
      "outputs": [
        {
          "internalType": "string",
          "name": "",
          "type": "string"
        }
      ],
      "stateMutability": "view",
      "type": "function"
    },
    {
      "inputs": [],
      "name": "tierRedemptionWeights",
      "outputs": [
        {
          "internalType": "uint256[128]",
          "name": "",
          "type": "uint256[128]"
        }
      ],
      "stateMutability": "view",
      "type": "function"
    },
    {
      "inputs": [
        {
          "internalType": "uint256",
          "name": "tokenId",
          "type": "uint256"
        }
      ],
      "name": "tokenURI",
      "outputs": [
        {
          "internalType": "string",
          "name": "",
          "type": "string"
        }
      ],
      "stateMutability": "view",
      "type": "function"
    },
    {
      "inputs": [
        {
          "components": [
            {
              "internalType": "contract IJBPaymentTerminal",
              "name": "terminal",
              "type": "address"
            },
            {
              "internalType": "address",
              "name": "holder",
              "type": "address"
            },
            {
              "internalType": "uint256",
              "name": "projectId",
              "type": "uint256"
            },
            {
              "internalType": "uint256",
              "name": "currentFundingCycleConfiguration",
              "type": "uint256"
            },
            {
              "internalType": "uint256",
              "name": "tokenCount",
              "type": "uint256"
            },
            {
              "internalType": "uint256",
              "name": "totalSupply",
              "type": "uint256"
            },
            {
              "internalType": "uint256",
              "name": "overflow",
              "type": "uint256"
            },
            {
              "components": [
                {
                  "internalType": "address",
                  "name": "token",
                  "type": "address"
                },
                {
                  "internalType": "uint256",
                  "name": "value",
                  "type": "uint256"
                },
                {
                  "internalType": "uint256",
                  "name": "decimals",
                  "type": "uint256"
                },
                {
                  "internalType": "uint256",
                  "name": "currency",
                  "type": "uint256"
                }
              ],
              "internalType": "struct JBTokenAmount",
              "name": "reclaimAmount",
              "type": "tuple"
            },
            {
              "internalType": "bool",
              "name": "useTotalOverflow",
              "type": "bool"
            },
            {
              "internalType": "uint256",
              "name": "redemptionRate",
              "type": "uint256"
            },
            {
              "internalType": "string",
              "name": "memo",
              "type": "string"
            },
            {
              "internalType": "bytes",
              "name": "metadata",
              "type": "bytes"
            }
          ],
          "internalType": "struct JBRedeemParamsData",
          "name": "",
          "type": "tuple"
        }
      ],
      "name": "totalRedemptionWeight",
      "outputs": [
        {
          "internalType": "uint256",
          "name": "",
          "type": "uint256"
        }
      ],
      "stateMutability": "view",
      "type": "function"
    },
    {
      "inputs": [
        {
          "internalType": "address",
          "name": "from",
          "type": "address"
        },
        {
          "internalType": "address",
          "name": "to",
          "type": "address"
        },
        {
          "internalType": "uint256",
          "name": "tokenId",
          "type": "uint256"
        }
      ],
      "name": "transferFrom",
      "outputs": [],
      "stateMutability": "nonpayable",
      "type": "function"
    },
    {
      "inputs": [
        {
          "internalType": "address",
          "name": "newOwner",
          "type": "address"
        }
      ],
      "name": "transferOwnership",
      "outputs": [],
      "stateMutability": "nonpayable",
      "type": "function"
    }
  ],
  "bytecode": {
    "object": "0x608080604052346100655760078054336001600160a01b03198083168217909355906001600160a01b03167f8be0079c531659141344cd1fd0a4f28419497f9722a3daafe3b4186f6b6457e0600080a33090608d541617608d55614cb5908161006b8239f35b600080fdfe60806040526004361015610013575b600080fd5b60003560e01c806301ffc9a7146103b657806306fdde03146103ad578063081812fc146103a4578063095ea7b31461039b5780631d153ca41461039257806323b872dd146103895780632407497e146103805780632a55205a146103775780632a596e531461036e5780632b13c58f146103655780632f4415001461035c5780633fafa1271461035357806342842e0e1461034a5780634f228e111461034157806354c6d1f514610338578063557e71551461032f5780636352211e14610326578063640abacd1461031d57806364640c1e1461031457806370a082311461030b578063715018a6146103025780637ba62bf9146102f957806382732b6d146102f05780638da5cb5b146102e75780639494bf72146102de57806394c5c5ca146102d557806395d89b41146102cc578063975057e7146102c35780639df45468146102ba578063a0bcfc7f14610260578063a22cb465146102b1578063a51cfd18146102a8578063aa4fb15b1461029f578063ab951e3914610296578063b88d4fde1461028d578063c41c2f2414610284578063c74b13d91461027b578063c87b56dd14610272578063ca323efe14610269578063ccb4807b14610260578063d1704baf14610257578063d31cc52c1461024e578063d40e714614610245578063d46cf1711461023c578063da9ee8b714610233578063e985e9c51461022a5763f2fde38b1461022257600080fd5b61000e611d6f565b5061000e611d16565b5061000e611c2a565b5061000e611b6e565b5061000e611ab3565b5061000e611a84565b5061000e6119ba565b5061000e6112f1565b5061000e6116c0565b5061000e61166d565b5061000e6115bb565b5061000e611591565b5061000e611529565b5061000e61149d565b5061000e61147d565b5061000e6113f2565b5061000e61134e565b5061000e61126b565b5061000e611241565b5061000e6111bb565b5061000e61117f565b5061000e611161565b5061000e611137565b5061000e6110ea565b5061000e611093565b5061000e610fe8565b5061000e610fc0565b5061000e610fa1565b5061000e610f81565b5061000e610f62565b5061000e610f38565b5061000e610f19565b5061000e610ef2565b5061000e610ea9565b5061000e610e8a565b5061000e610df7565b5061000e61092a565b5061000e61086c565b5061000e6107c0565b5061000e610788565b5061000e610753565b5061000e6106fd565b5061000e610652565b5061000e610603565b5061000e610526565b5061000e6103d1565b6001600160e01b031981160361000e57565b503461000e57602036600319011261000e5761043c6004356103f2816103bf565b63ffffffff60e01b1663b3bcbb7960e01b81149081156104b6575b81156104a5575b8115610494575b8115610483575b8115610440575b5060405190151581529081906020820190565b0390f35b6380ac58cd60e01b811491508115610472575b8115610461575b5038610429565b6301ffc9a760e01b1490503861045a565b635b5e139f60e01b81149150610453565b63152a902d60e11b81149150610422565b632b13c58f60e01b8114915061041b565b63da9ee8b760e01b81149150610414565b6371700c6960e01b8114915061040d565b600091031261000e57565b919082519283825260005b8481106104fe575050826000602080949584010152601f8019910116010190565b6020818301810151848301820152016104dd565b9060206105239281815201906104d2565b90565b503461000e576000806003193601126105e157604051818054610548816133c7565b808452906001908181169081156105b9575060011461057e575b61043c8461057281880382610d1b565b60405191829182610512565b93508180526020938483205b8284106105a6575050508161043c936105729282010193610562565b805485850187015292850192810161058a565b61043c96506105729450602092508593915060ff191682840152151560051b82010193610562565b80fd5b6001600160a01b031690565b6001600160a01b03909116815260200190565b503461000e57602036600319011261000e576020610622600435613401565b6040516001600160a01b039091168152f35b6001600160a01b0381160361000e57565b359061065082610634565b565b503461000e57604036600319011261000e5760043561067081610634565b6024356001600160a01b038061068583613394565b1680918416146106eb578033141590816106bc575b506106aa576106a891613d65565b005b60405163e5fa0e3560e01b8152600490fd5b905060005260046020526106e56106e16106da3360406000206123cb565b5460ff1690565b1590565b3861069a565b60405163133f8be960e01b8152600490fd5b503461000e57600036600319011261000e57608d546040516001600160a01b039091168152602090f35b606090600319011261000e5760043561073f81610634565b9060243561074c81610634565b9060443590565b503461000e5761076236610727565b9061076d8233613464565b156106aa576106a892613b06565b60c4359061065082610634565b503461000e57602036600319011261000e576106a8600435610634565b6001600160a01b039091168152602081019190915260400190565b503461000e5760408060031936011261000e5760648160018060a01b03608e54168151928380926329c5eaf560e11b8252306004830152600435602483015260243560448301525afa91821561085f575b600091829361082a575b5061043c9051928392836107a5565b8161085092945061043c93503d8511610858575b6108488183610d1b565b81019061249f565b92909161081b565b503d61083e565b610867611fe2565b610811565b503461000e5760208060031936011261000e57600435906001600160401b039081831161000e573660238401121561000e57826004013591821161000e57602490600693368385871b8301011161000e5760005b8481106108c957005b6001906108eb6108df3687848b1b870101610db1565b85815191015190612dff565b016108c0565b90816101e091031261000e5790565b602060031982011261000e57600435906001600160401b03821161000e57610523916004016108f1565b5061093436610900565b3415801590610bec575b8015610bdc575b610bca5760a0810135908115610bb8576101c0810160246109668284611e01565b9050108015610b80575b610b6e576109816109899183611e01565b810190611f29565b91505080516109d36109a461099f608f546105e4565b6105e4565b93600554604095865180916321d1336160e11b825261012092839181806004998a988983019190602083019252565b03915afa918215610b61575b600092610b34575b505051149460005b848110610a1b578787610a0188613300565b610a0757005b610a166106a8916088546120e7565b608855565b610a258187611f07565b51610a4a610a3d826000526002602052604060002090565b546001600160a01b031690565b610a5661099f86612d8c565b6001600160a01b0390911603610b2457908188610a746001946138d9565b610a80575b50016109ef565b610add90610a9261099f608e546105e4565b87865180926342f9914b60e01b82528180610ab7602097889683019190602083019252565b03915afa918215610b17575b600092610aea575b50506000526089602052604060002090565b8054600101905538610a79565b610b099250803d10610b10575b610b018183610d1b565b8101906124be565b3880610acb565b503d610af7565b610b1f611fe2565b610ac3565b825163075fd2b160e01b81528590fd5b610b539250803d10610b5a575b610b4b8183610d1b565b810190611f6e565b38806109e7565b503d610b41565b610b69611fe2565b6109df565b604051632a84050f60e01b8152600490fd5b50610b94610b8e8284611e01565b90611e33565b63b3bcbb7960e01b916001600160e01b031991610bb091611e55565b161415610970565b604051637691472960e01b8152600490fd5b604051633efca5c360e11b8152600490fd5b5060055460208201351415610945565b50610c216020610c0061099f6006546105e4565b600554906040518080958194636e49181f60e01b8352339060048401612d73565b03915afa908115610c6a575b600091610c3c575b501561093e565b610c5d915060203d8111610c63575b610c558183610d1b565b810190612d5e565b38610c35565b503d610c4b565b610c72611fe2565b610c2d565b50634e487b7160e01b600052604160045260246000fd5b604081019081106001600160401b03821117610ca957604052565b610cb1610c77565b604052565b608081019081106001600160401b03821117610ca957604052565b6001600160401b038111610ca957604052565b61100081019081106001600160401b03821117610ca957604052565b602081019081106001600160401b03821117610ca957604052565b601f909101601f19168101906001600160401b03821190821017610ca957604052565b604051906101c082016001600160401b03811183821017610ca957604052565b6040519061065082610c8e565b6040519061012082016001600160401b03811183821017610ca957604052565b6020906001600160401b038111610da4575b60051b0190565b610dac610c77565b610d9d565b919082604091031261000e57604080519081016001600160401b03811182821017610dea575b6040526020808294803584520135910152565b610df2610c77565b610dd7565b503461000e5760208060031936011261000e57600435906001600160401b03821161000e573660238301121561000e57816004013591610e3683610d8b565b91604093610e4685519485610d1b565b80845260248285019160061b8401019236841161000e57602401905b838210610e72576106a885612b55565b828691610e7f3685610db1565b815201910190610e62565b503461000e57600036600319011261000e576020600554604051908152f35b503461000e576106a8610ebb36610727565b60405192909190602084016001600160401b03811185821017610ee5575b60405260008452613425565b610eed610c77565b610ed9565b503461000e57602036600319011261000e576020610f11600435612529565b604051908152f35b503461000e57602036600319011261000e5760206106226004356123f7565b503461000e57600036600319011261000e57608f546040516001600160a01b039091168152602090f35b503461000e57602036600319011261000e576020610622600435613394565b503461000e57600036600319011261000e576020604051633b9aca008152f35b503461000e57600036600319011261000e576020609054604051908152f35b503461000e57602036600319011261000e57610fdd600435610634565b602060405160008152f35b503461000e576000806003193601126105e157611003614653565b600780546001600160a01b0319811690915581906001600160a01b0316600080516020614be08339815191528280a380f35b81601f8201121561000e5780359161104c83610d8b565b9261105a6040519485610d1b565b808452602092838086019260051b82010192831161000e578301905b828210611084575050505090565b81358152908301908301611076565b503461000e57604036600319011261000e576001600160401b0360043581811161000e576110c5903690600401611035565b9060243590811161000e576020916110e4610f119236906004016108f1565b50612348565b503461000e57604036600319011261000e57602060043561110a81610634565b60018060a01b03809116600052608a82526040600020602435600052825260406000205416604051908152f35b503461000e57600036600319011261000e576007546040516001600160a01b039091168152602090f35b503461000e5761117036610900565b506020604051633b9aca008152f35b503461000e57602036600319011261000e57600435600052608c602052602060018060e01b036111b260406000206148c1565b16604051908152f35b503461000e576000806003193601126105e1576040518160018054906111e0826133c7565b808552918181169081156105b957506001146112065761043c8461057281880382610d1b565b80945082526020938483205b82841061122e575050508161043c936105729282010193610562565b8054858501870152928501928101611212565b503461000e57600036600319011261000e57608e546040516001600160a01b039091168152602090f35b503461000e57600036600319011261000e5760405161128981610ce4565b611000809136903760405160086000825b608082106112db575050506112ae81610ce4565b60405190600090825b608083106112c457505050f35b6001908251815260208091019201920191906112b7565b600160208192855481520193019101909161129a565b503461000e57602036600319011261000e576004356001600160401b0380821161000e573660238301121561000e57816004013590811161000e573691016024011161000e57005b8015150361000e57565b359061065082611339565b503461000e57604036600319011261000e5760043561136c81610634565b60243561137881611339565b6001600160a01b038216913383146113e0576113a19033600052600460205260406000206123cb565b9015159060ff1981541660ff83161790556040519081527f17307eab39ab6107e8899845ad3d59bd9653f200f220920489ca2b5937696c3160203392a3005b6040516306f8139d60e11b8152600490fd5b503461000e5761140961140436610900565b6120f4565b60409291928051938493845261142b60209160608387015260608601906104d2565b90848203838601528080855193848152019401926000905b8382106114505786860387f35b845180516001600160a01b0316875283015186840152879650948501949382019360019190910190611443565b503461000e57604036600319011261000e576106a8602435600435612dff565b503461000e57604036600319011261000e576106a86004356114be81610634565b60243590336130be565b6020906001600160401b0381116114e5575b601f01601f19160190565b6114ed610c77565b6114da565b9291926114fe826114c8565b9161150c6040519384610d1b565b82948184528183011161000e578281602093846000960137010152565b503461000e57608036600319011261000e5760043561154781610634565b60243561155381610634565b606435916001600160401b03831161000e573660238401121561000e576115876106a89336906024816004013591016114f2565b9160443591613425565b503461000e57600036600319011261000e576006546040516001600160a01b039091168152602090f35b503461000e5760208060031936011261000e57600435906001600160401b03821161000e573660238301121561000e578160040135916115fa83610d8b565b9160409361160a85519485610d1b565b80845260248285019160061b8401019236841161000e57602401905b838210611636576106a885612d96565b858236031261000e57828691825161164d81610c8e565b843561165881610634565b81528285013583820152815201910190611626565b503461000e57602036600319011261000e5761168a600435613da7565b600060405161169881610d00565b5261043c6040516116a881610d00565b600081526040519182916020835260208301906104d2565b503461000e57604036600319011261000e576004356116de81610634565b6001600160a01b03166000908152608b60209081526040808320602435845282529091206001600160e01b03906111b2906148c1565b6024359061065082610634565b9080601f8301121561000e57816020610523933591016114f2565b6084359061065082610634565b35906001600160501b038216820361000e57565b359065ffffffffffff8216820361000e57565b359064ffffffffff8216820361000e57565b359061ffff8216820361000e57565b359060ff8216820361000e57565b919091608090818185031261000e5760408051926117bc84610cb6565b929485939083356001600160401b03811161000e57840181601f8201121561000e578035906117ea82610d8b565b926117f786519485610d1b565b82845260209485850191866101c08096028501019381851161000e578701925b84841061184a5750505092875250505080830135908401528082013590830152606090611845908201610645565b910152565b858483031261000e5787869161185e610d3e565b61186787611749565b815261187483880161175d565b838201526118838c8801611770565b8c8201526060611894818901611782565b908201526118a3868801611782565b8682015260a06118b4818901610645565b9082015260c06118c5818901611791565b9082015260e06118d6818901610645565b9082015261010080880135908201526101206118f3818901611791565b90820152610140611905818901611343565b90820152610160611917818901611343565b90820152610180611929818901611343565b908201526101a061193b818901611343565b90820152815201930192611817565b610124359061065082610634565b60809061014319011261000e576040519061197282610cb6565b816101443561198081611339565b81526101643561198f81611339565b6020820152610184356119a181611339565b604082015260606101a435916119b683611339565b0152565b503461000e576101c036600319011261000e576119d5611714565b6001600160401b03906044359082821161000e576119f860049236908401611721565b60643584811161000e57611a0f9036908501611721565b611a1761173c565b60a43586811161000e57611a2e9036908701611721565b611a3661077b565b9160e43588811161000e57611a4e9036908901611721565b936101043598891161000e57611a6a6106a89936908a0161179f565b95611a7361194a565b97611a7d36611958565b9935612844565b503461000e57604036600319011261000e57600435600052608c6020526020610f1160243560406000206146e2565b503461000e57606036600319011261000e57600435611ad181610634565b60018060a01b0316600052608b60205260406000206024356000526020526020610f1160443560406000206146e2565b91908252611b1b60209160608385015260608401906104d2565b90604092838184039101528080855193848152019401926000905b838210611b4557505050505090565b845180516001600160a01b03168752830151868401529485019493820193600190910190611b36565b503461000e576020600319818136011261000e57600435906001600160401b03821161000e576101a090823603011261000e57611bbc611bb5610164830183600401611e01565b36916114f2565b60405190611bc982610c8e565b6001825260005b848110611c1457509061043c91610124946000611beb610d5e565b30815291820152611bfb83611eed565b52611c0582611eed565b50604051948594013584611b01565b8490611c1e611e81565b82828601015201611bd0565b5060031960203682011261000e57600435906001600160401b03821161000e5761020090823603011261000e57600554341590811591611c9e575b8115611c8f575b50611c7d576106a89060040161423c565b6040516331c57b1b60e21b8152600490fd5b90506024820135141538611c6c565b9050611cae61099f6006546105e4565b60206040518092636e49181f60e01b82528180611ccf338860048401612d73565b03915afa908115611d09575b600091611ceb575b501590611c65565b611d03915060203d8111610c6357610c558183610d1b565b38611ce3565b611d11611fe2565b611cdb565b503461000e57604036600319011261000e57602060ff611d63600435611d3b81610634565b60243590611d4882610634565b6001600160a01b0316600090815260048552604090206123cb565b54166040519015158152f35b503461000e57602036600319011261000e57600435611d8d81610634565b611d95614653565b6001600160a01b03811615611dad576106a8906146ab565b60405162461bcd60e51b815260206004820152602660248201527f4f776e61626c653a206e6577206f776e657220697320746865207a65726f206160448201526564647265737360d01b6064820152608490fd5b903590601e198136030182121561000e57018035906001600160401b03821161000e5760200191813603831361000e57565b9060241161000e5760200190600490565b9060441161000e5760400190600490565b6001600160e01b03199035818116939260048110611e7257505050565b60040360031b82901b16169150565b60405190611e8e82610c8e565b60006020838281520152565b60405190611ea782610c8e565b600182528160005b60209081811015611ed157602091611ec5611e81565b90828501015201611eaf565b505050565b50634e487b7160e01b600052603260045260246000fd5b602090805115611efb570190565b611f03611ed6565b0190565b6020918151811015611f1c575b60051b010190565b611f24611ed6565b611f14565b9160608383031261000e578235926020810135611f45816103bf565b9260408201356001600160401b03811161000e576105239201611035565b519061065082610634565b908161012091031261000e57611f82610d6b565b90805182526020810151602083015260408101516040830152606081015160608301526080810151608083015260a081015160a083015260c081015160c0830152611fcf60e08201611f63565b60e0830152610100809101519082015290565b506040513d6000823e3d90fd5b519061065082611339565b90816101c091031261000e5761200e610d3e565b90805182526020810151602083015260408101516040830152606081015160608301526080810151608083015260a081015160a083015260c081015160c083015261205b60e08201611f63565b60e08301526101008082015190830152610120612079818301611f63565b90830152610140808201519083015261016080820151908301526101806120a1818301611fef565b908301526120b36101a0809201611fef565b9082015290565b50634e487b7160e01b600052601160045260246000fd5b90600182018092116120df57565b6106506120ba565b919082018092116120df57565b9060009060006080840135612336576101c0928385019360246121178688611e01565b9050108015612304575b610b6e5761212d611e9a565b9461216261098161213c610d5e565b3081529260209387858201526121518a611eed565b5261215b89611eed565b5089611e01565b9591505061217461099f608f546105e4565b92604089815180966321d1336160e11b825261012097889181806121a48860049801358883019190602083019252565b03915afa9687156122f7575b85976122d8575b50506001809651146122035750505050505050611bb56121f36121ff926121ed6121e760885460c08a01356120e7565b91612348565b90614b53565b946101a0810190611e01565b9190565b95999693929190845194839761221d61099f608e546105e4565b915b878a106122425750505050505050505050611bb5816101a06121ff930190611e01565b9091929394959697899d886122768861225c859e87611f07565b5189518093819263b67cb04760e01b8352308b84016107a5565b03818a5afa9081156122cb575b8a9161229e575b500151019d0198979695949392919061221f565b6122be9150893d8b116122c4575b6122b68183610d1b565b810190611ffa565b3861228a565b503d6122ac565b6122d3611fe2565b612283565b6122ef929750803d10610b5a57610b4b8183610d1b565b9438806121b7565b6122ff611fe2565b6121b0565b50612312610b8e8688611e01565b63b3bcbb7960e01b916001600160e01b03199161232e91611e55565b161415612121565b6040516309f82f1b60e31b8152600490fd5b9060009180516000915b81831061235e57505050565b9091936001906123776123718785611f07565b51612529565b810180911161238a575b94019190612352565b6123926120ba565b612381565b6001600160a01b03166000908152608a6020526040902090565b6001600160a01b03166000908152608b6020526040902090565b9060018060a01b0316600052602052604060002090565b9081602091031261000e575161052381610634565b608e546040516308ed6c0160e41b81526001600160a01b0392916020908290851681806124288730600484016107a5565b03915afa908115612492575b600091612464575b5082811661245e5750612459906000526002602052604060002090565b541690565b91505090565b612485915060203d811161248b575b61247d8183610d1b565b8101906123e2565b3861243c565b503d612473565b61249a611fe2565b612434565b919082604091031261000e57602082516124b881610634565b92015190565b9081602091031261000e575190565b6000198101919082116120df57565b919082039182116120df57565b60808110156124fc575b60080190600090565b612504611ed6565b6124f3565b8115612513570490565b634e487b7160e01b600052601260045260246000fd5b61255c602061253c61099f608e546105e4565b92604051809381926342f9914b60e01b8352600483019190602083019252565b0381855afa90811561267e575b600091612660575b50604051633a39e4d160e11b81526101c0928390829081806125978730600484016107a5565b03915afa928315612653575b600093612634575b50506125cb6125c16125bc836124cd565b6124e9565b90549060031b1c90565b90811561262c5760808301906125e9606083519501948551906124dc565b15612623576126166126056105239561261d94519051906124dc565b916000526089602052604060002090565b54906120e7565b90612509565b50505050600090565b505050600090565b61264b929350803d106122c4576122b68183610d1b565b9038806125ab565b61265b611fe2565b6125a3565b612678915060203d8111610b1057610b018183610d1b565b38612571565b612686611fe2565b612569565b80546001600160a01b0319166001600160a01b03909216919091179055565b81601f8201121561000e578051916126c183610d8b565b926126cf6040519485610d1b565b808452602092838086019260051b82010192831161000e578301905b8282106126f9575050505090565b815181529083019083016126eb565b9060208282031261000e5781516001600160401b03811161000e5761052392016126aa565b60208082019080835283518092528060408094019401926000905b83821061275757505050505090565b9091929394836101c0600192612837895161277a83825160018060501b03169052565b8085015165ffffffffffff16838601528087015164ffffffffff168388015260608181015161ffff169084015260808181015161ffff169084015260a0818101516001600160a01b03169084015260c08181015160ff169084015260e0818101516001600160a01b03169084015261010081810151908401526101208082015160ff16908401526101408181015115159084015261016081810151151590840152610180818101511515908401526101a090810151151590830152565b0196019493920190612748565b90929897969493919861285b61099f608d546105e4565b301461000e5760018060a01b03998a61287861099f608e546105e4565b1661000e576128ac9461288a93613ee9565b608f80546001600160a01b0319166001600160a01b0392909216919091179055565b608e80546001600160a01b0319166001600160a01b0387161790556128d46020850151609055565b8051612af5575b508051612a95575b50838116612a35575b505180516129d1575b508251151580156129c4575b80156129b7575b80156129aa575b612920575b505050610650336146ab565b16803b1561000e57604080516365c13f1960e11b81528351151560048201526020840151151560248201529083015115156044820152606090920151151560648301526000908290608490829084905af1801561299d575b612984575b8080612914565b8061299161299792610cd1565b806104c7565b3861297d565b6129a5611fe2565b612978565b506060830151151561290f565b5060408301511515612908565b5060208301511515612901565b60006129f1916040518093819263229dad5f60e11b83526004830161272d565b0381838787165af18015612a28575b156128f557612a21903d806000833e612a198183610d1b565b810190612708565b50386128f5565b612a30611fe2565b612a00565b838316803b1561000e5760405163036129cb60e61b8152916000918391829084908290612a6590600483016105f0565b03925af18015612a88575b156128ec5780612991612a8292610cd1565b386128ec565b612a90611fe2565b612a70565b848416803b1561000e5760405163d67b78fd60e01b8152916000918391829084908290612ac59060048301610512565b03925af18015612ae8575b156128e35780612991612ae292610cd1565b386128e3565b612af0611fe2565b612ad0565b858516803b1561000e576040516331315e5960e11b8152916000918391829084908290612b259060048301610512565b03925af18015612b48575b156128db5780612991612b4292610cd1565b386128db565b612b50611fe2565b612b30565b612b9e90612b61614653565b612b6f61099f608f546105e4565b90600554604092835180916321d1336160e11b8252610120928391818060049a8b988983019190602083019252565b03915afa918215612d20575b600092612d03575b50505110612cf557612bc2612d2d565b612bd061099f608e546105e4565b825163f1bea54f60e01b815290602090819083908180612bf2308b83016105f0565b03915afa918215612ce8575b600092612cc9575b50909160009181519183945b838610612c3a5750505050633b9aca00915011612c2d575050565b51636ff44e9760e01b8152fd5b9091929381612c498785611f07565b515111612cb957612cad600191612c9986612c648a88611f07565b510151612c7e6125bc612c778c8a611f07565b51516124cd565b90919082549060031b600019811b9283911b16911916179055565b85612ca48987611f07565b510151906120e7565b95019493929190612c12565b865163148e14dd60e21b81528890fd5b81612ce19293503d8411610b1057610b018183610d1b565b9038612c06565b612cf0611fe2565b612bfe565b50516303e08a3560e61b8152fd5b612d199250803d10610b5a57610b4b8183610d1b565b3880612bb2565b612d28611fe2565b612baa565b60085b60888110612d3b5750565b60008155600101612d30565b818110612d52575050565b60008155600101612d47565b9081602091031261000e575161052381611339565b9081526001600160a01b03909116602082015260400190565b3561052381610634565b805190612da1611e81565b5060005b828110612db157505050565b612dbb8183611f07565b5180519091906001600160a01b0390811615612ded57826020612de792600195511691015190336130be565b01612da5565b6040516314f4c13d60e21b8152600490fd5b9190612e0f61099f608f546105e4565b92612e6d60ff610100612e4660055497604098895180926321d1336160e11b82528180610120968795600483019190602083019252565b03915afa9182156130b1575b600092613094575b5050015160f41c1660018091811c161490565b61308357612e7f61099f608e546105e4565b8451635d53f40760e11b8152600481018390526024810184905294906000908690604490829084905af1948515613076575b60009561305b575b50612ec861099f608e546105e4565b926020825180956304db994760e21b82528180612ee98830600484016107a5565b03915afa93841561304e575b60009461302e575b5060005b818110612fd457505082939450602090612f3984612f3485612f25612f8a98612397565b90600052602052604060002090565b61268b565b612f4761099f608e546105e4565b9051633a39e4d160e11b81526101c091829082908180612f6b8930600484016107a5565b03915afa918215612fc7575b600092612faa575b505001519083613185565b6001600160a01b0316600081600080516020614c208339815191528280a4565b612fc09250803d106122c4576122b68183610d1b565b3880612f7f565b612fcf611fe2565b612f77565b80612fe160019289611f07565b51612fec81886134d2565b858551917f031e1988c95a91ec4d655ff63a8f87a80bc9daf28d95ae10ee08c0022cfb5c8b858060a01b038a16938061302533826105f0565b0390a401612f01565b61304791945060203d811161248b5761247d8183610d1b565b9238612efd565b613056611fe2565b612ef5565b61306f91953d8091833e612a198183610d1b565b9338612eb9565b61307e611fe2565b612eb1565b8351631d2c125760e31b8152600490fd5b6130aa9250803d10610b5a57610b4b8183610d1b565b3880612e5a565b6130b9611fe2565b612e52565b6001600160a01b039081166000818152608a60209081526040808320878452825282208054610650979396939593949084169390929182919061310290879061268b565b8086168585600080516020614c208339815191528b80a4608e5416926064604051809581936305c9a1d560e31b835230600484015260248301528960448301525afa958615613178575b95613159575b5050613224565b613170929550803d10610b1057610b018183610d1b565b923880613152565b613180611fe2565b61314c565b9061065092916000828152608c6020526131a284604083206147f1565b506001600160a01b039160409150838316156131e8575b808052608a6020528181208582526020526131d983838320541694612397565b85825260205220541690613224565b848152608c6020526131fc86838320614899565b50506131b9565b90815260208101919091526001600160a01b03909116604082015260600190565b91926001600160a01b038083169391929190811680851480156132f8575b6132f0578591816132a7575b5050508261325d575b50505050565b600080516020614c608339815191529161327961328a926123b1565b8560005260205260406000206147f1565b61329b604051928392339184613203565b0390a338808080613257565b6132b0906123b1565b82600052602052600080516020614c608339815191526132d4856040600020614899565b6132e5604051928392339184613203565b0390a383388061324e565b505050505050565b508315613242565b608e546001600160a01b0316803b1561000e5760405180926386bc2be360e01b8252602482016020908160048501528251809152816044850193019160005b82811061337d57505050509181600081819503925af18015613370575b6133635750565b8061299161065092610cd1565b613378611fe2565b61335c565b83518552879550938101939281019260010161333f565b6000908152600260205260409020546001600160a01b031680156133b55790565b60405163b49aa3b560e01b8152600490fd5b90600182811c921680156133f7575b60208310146133e157565b634e487b7160e01b600052602260045260246000fd5b91607f16916133d6565b61340a81613da7565b6000908152600360205260409020546001600160a01b031690565b9291906134328233613464565b156106aa5783613446838361344b97613b06565b613e2d565b1561345257565b6040516336f57c1b60e11b8152600490fd5b6001600160a01b038061347684613394565b1692818316928484149485156134ac575b50508315613496575b50505090565b6134a291929350613401565b1614388080613490565b60ff929550906134c891600052600460205260406000206123cb565b5416923880613487565b9091906001600160a01b0381169081156135f8576134ef846138bc565b6135e65783600092818452600260205261350c836040862061268b565b83600080516020614c008339815191528180a461355161353061099f608e546105e4565b946040519063b67cb04760e01b825281806101c094859330600484016107a5565b0381895afa9182156135d9575b84926135bc575b50505193803b156135b8576040516330b157e560e21b81526004810195909552600060248601526001600160a01b039190911660448501529192918290606490829084905af18015613370576133635750565b8280fd5b6135d29250803d106122c4576122b68183610d1b565b3880613565565b6135e1611fe2565b61355e565b604051632eb5f0c360e21b8152600490fd5b604051633904578f60e11b8152600490fd5b61363d9061361c61099f608e546105e4565b926040519063b67cb04760e01b825281806101c095869330600484016107a5565b0381875afa9283156136ea575b6000936136cb575b50508151833b1561000e576040516330b157e560e21b815260048101919091526001600160a01b0382166024820152600060448201819052610650948290606490829084905af180156136be575b6136ab575b506137e7565b806129916136b892610cd1565b386136a5565b6136c6611fe2565b6136a0565b6136e2929350803d106122c4576122b68183610d1b565b903880613652565b6136f2611fe2565b61364a565b9061372b9161370a61099f608e546105e4565b936040519063b67cb04760e01b825281806101c096879330600484016107a5565b0381885afa9384156137da575b6000946137bb575b50508251843b1561000e576040516330b157e560e21b815260048101919091526001600160a01b03828116602483015283166044820152610650946000908290606490829084905af180156137ae575b61379b575b50613853565b806129916137a892610cd1565b38613795565b6137b6611fe2565b613790565b6137d2929450803d106122c4576122b68183610d1b565b913880613740565b6137e2611fe2565b613738565b6001600160a01b03908116918215611ed1576106509260a0825192015192600091838352608c60205261381d8560408520614899565b50508252608a60205260408220838352602052604081818420541692808052608a60205281812085825260205220541690613224565b6001600160a01b03929083169182156132575761065093604060a08451940151948284161561389f575b6000908152608a6020528181208582526020526131d983838320541694612397565b84600052608c6020526138b58683600020614899565b505061387d565b6000908152600260205260409020546001600160a01b0316151590565b6138e281613394565b6001600160a01b0380821692919083613938575b508160006106509461390783613d23565b82825260026020526040822080546001600160a01b0319169055600080516020614c008339815191528280a461360a565b61394661099f608e546105e4565b9061398d6101a060405163b67cb04760e01b81526101c09081818061396f8b30600484016107a5565b0381895afa918215613af9575b600092613adc575b50500151151590565b613a61575b6040516308ed6c0160e41b8152602081806139b18830600484016107a5565b0381865afa908115613a54575b600091613a36575b50166138f65792833b1561000e576000839161065095826040518092638cec7d3960e01b82528183816139fd8b8b60048401612d73565b03925af18015613a29575b613a16575b509450506138f6565b80612991613a2392610cd1565b38613a0d565b613a31611fe2565b613a08565b613a4e915060203d811161248b5761247d8183610d1b565b386139c6565b613a5c611fe2565b6139be565b613a9a613a7261099f608f546105e4565b60055460405180926321d1336160e11b82528180610120968795600483019190602083019252565b03915afa8015613acf575b613ab1575b5050613992565b81613ac792903d10610b5a57610b4b8183610d1b565b503880613aaa565b613ad7611fe2565b613aa5565b613af29250803d106122c4576122b68183610d1b565b3880613984565b613b01611fe2565b61397c565b9190613b1182613394565b6001600160a01b0380851694918116859003613d1157808316908115613cff5785613b76575b50839061065095613b4783613d23565b826000526002602052613b5e85604060002061268b565b600080516020614c00833981519152600080a46136f7565b613b8461099f608e546105e4565b90613bad6101a060405163b67cb04760e01b81526101c09081818061396f8d30600484016107a5565b613c80575b6040516308ed6c0160e41b815260208180613bd18a30600484016107a5565b0381865afa908115613c73575b600091613c55575b5016613b375790813b1561000e5761065095859260006040518092638cec7d3960e01b8252818381613c1c8b8b60048401612d73565b03925af18015613c48575b613c35575b50955090613b37565b80612991613c4292610cd1565b38613c2c565b613c50611fe2565b613c27565b613c6d915060203d811161248b5761247d8183610d1b565b38613be6565b613c7b611fe2565b613bde565b613cbe60ff610100613c99613a7261099f608f546105e4565b03915afa918215613cf2575b600092613cd5575b5050015160f41c1660018091161490565b15613bb2576040516318cdaf9760e01b8152600490fd5b613ceb9250803d10610b5a57610b4b8183610d1b565b3880613cad565b613cfa611fe2565b613ca5565b604051632c95542760e01b8152600490fd5b60405163a195bc5360e01b8152600490fd5b600081815260036020526040812080546001600160a01b03191690556001600160a01b03613d5083613394565b16600080516020614c408339815191528280a4565b816000526003602052613d7c81604060002061268b565b6001600160a01b0380613d8e84613394565b16911690600080516020614c40833981519152600080a4565b613db0906138bc565b156133b557565b9081602091031261000e5751610523816103bf565b6001600160a01b039182168152911660208201526040810191909152608060608201819052610523929101906104d2565b3d15613e28573d90613e0e826114c8565b91613e1c6040519384610d1b565b82523d6000602084013e565b606090565b92909190823b15613ee057613e60926020926000604051809681958294630a85bd0160e11b9a8b85523360048601613dcc565b03926001600160a01b03165af160009181613eb0575b50613ea257613e83613dfd565b80519081613e9d576040516336f57c1b60e11b8152600490fd5b602001fd5b6001600160e01b0319161490565b613ed291925060203d8111613ed9575b613eca8183610d1b565b810190613db7565b9038613e76565b503d613ec0565b50505050600190565b82519193909290916001600160401b03811161401b575b600091613f1682613f1185546133c7565b614028565b60209081601f8411600114613f8957509282613f5793613f5c96936106509998968492613f7e575b50508160011b916000199060031b1c19161790556140a6565b600555565b600680546001600160a01b0319166001600160a01b0392909216919091179055565b015190503880613f3e565b600080529190601f1984167f290decd9548b62a8d60345a988386fc84ba6bc95484008f6362f93160ef3e5639386905b82821061400357505093613f5c96936106509998969360019383613f579810613fea575b505050811b0190556140a6565b015160001960f88460031b161c19169055388080613fdd565b80600186978294978701518155019601940190613fb9565b614023610c77565b613f00565b90601f8211614035575050565b61065091600080526020600020906020601f840160051c83019310614062575b601f0160051c0190612d47565b9091508190614055565b90601f8211614079575050565b6106509160016000526020600020906020601f840160051c8301931061406257601f0160051c0190612d47565b80519091906001600160401b03811161418c575b6001906140d0816140cb84546133c7565b61406c565b602080601f831160011461410b575081929394600092614100575b5050600019600383901b1c191690821b179055565b0151905038806140eb565b6001600052601f198316959091907fb10e2d527612073b26eecdfd717e6a320cf44b4afac2b0732d9fcbe2b7fa0cf6926000905b888210614175575050838596971061415c575b505050811b019055565b015160001960f88460031b161c19169055388080614152565b80878596829496860151815501950193019061413f565b614194610c77565b6140ba565b9160a08383031261000e57823592602091828201359360408301356141bd816103bf565b936060840135936080810135906001600160401b03821161000e57019180601f8401121561000e5782356141f081610d8b565b936141fe6040519586610d1b565b818552838086019260051b82010192831161000e578301905b828210614225575050505090565b83809161423184611782565b815201910190614217565b60905460c0820135036144c2576101e08101604461425a8284611e01565b9050118061448b575b61426b575050565b6142786142809183611e01565b810190614199565b949350915050825115614479576142a861429d6101808401612d8c565b84608085013561454e565b61446757806142b657505050565b6001600160a01b0316906142de6142d76142cf85611eed565b5161ffff1690565b61ffff1690565b906000908192855195835b8785106142fa575050505050505050565b61430a6142d76142cf8785611f07565b83036143b6575b859061431c896124cd565b861080614395575b1561433e57600191614335916120e7565b945b01936142e9565b61436b916143649161435f8a612f3488612f2561435a8c612d8c565b612397565b6120e7565b8388613185565b6001600094878661437e61099f88612d8c565b600080516020614c208339815191528280a4614337565b508361ffff6143af6142cf6143a98a6120d1565b87611f07565b1614614324565b945090506143ca6142d76142cf8584611f07565b90602061441f6143de61099f608e546105e4565b6143eb6142cf8886611f07565b604051633a39e4d160e11b815230600482015261ffff90911660248201526101c09290918391839190829081906044820190565b03915afa91821561445a575b60009261443d575b5050015194614311565b6144539250803d106122c4576122b68183610d1b565b3880614433565b614462611fe2565b61442b565b604051631b57826960e21b8152600490fd5b604051633d04bd1f60e01b8152600490fd5b5061449f6144998284611e01565b90611e44565b634b69489f60e11b916001600160e01b0319916144bb91611e55565b1614614263565b6040516301e73e1760e61b8152600490fd5b919060408382031261000e5782516001600160401b03811161000e576020916124b89185016126aa565b929190606084019084526020906060828601528251809152816080860193019160005b82811061453657505050506040600091930152565b835161ffff1685529381019392810192600101614521565b92919261455f61099f608e546105e4565b6040805163eaa19ab360e01b815295600094919285908890818381614588888b600484016144fe565b03925af18015614646575b8597869161461e575b50968051955b8681106145b25750505050505050565b806145bf60019284611f07565b516145ca81866134d2565b61ffff6145da6142cf8489611f07565b168751917f598baf7bf150ca2f42be9e9f8f55e81d45f5715c3ff22bf46d697fabec7f31d6858060a01b03881693806146158d339083612d73565b0390a4016145a2565b905061463d9197503d8087833e6146358183610d1b565b8101906144d4565b9690963861459c565b61464e611fe2565b614593565b6007546001600160a01b0316330361466757565b606460405162461bcd60e51b815260206004820152602060248201527f4f776e61626c653a2063616c6c6572206973206e6f7420746865206f776e65726044820152fd5b600780546001600160a01b039283166001600160a01b031982168117909255909116600080516020614be0833981519152600080a3565b90438110156147ad576146f490614aee565b815490600063ffffffff8092165b83821061474b575050508061472257505060005b6001600160e01b031690565b6147469161473261473f926124cd565b9060005260206000200190565b5460201c90565b614716565b9091928083169080841860011c82018092116147a0575b85600052828561477d8460206000200163ffffffff90541690565b16111561478e5750925b9190614702565b93925061479a906120d1565b91614787565b6147a86120ba565b614762565b606460405162461bcd60e51b815260206004820152602060248201527f436865636b706f696e74733a20626c6f636b206e6f7420796574206d696e65646044820152fd5b6001600160e01b03929183614805836148c1565b1690810180911161488c575b61481a43614aee565b91848211614837578492836148309316916149e9565b9316921690565b60405162461bcd60e51b815260206004820152602760248201527f53616665436173743a2076616c756520646f65736e27742066697420696e20326044820152663234206269747360c81b6064820152608490fd5b6148946120ba565b614811565b6001600160e01b039291836148ad836148c1565b1690810390811161488c5761481a43614aee565b80546000816148d257505050600090565b6020906000199383858101116148ef575b81522001015460201c90565b6148f76120ba565b6148e3565b9063ffffffff82549181199060201b169116179055565b80546106509291600160401b821015614974575b60018201808255821015614967575b6000526020600020019063ffffffff81511663ffffffff19835416178255602060018060e01b0391015116906148fc565b61496f611ed6565b614936565b61497c610c77565b614927565b9060405161498e81610c8e565b602081935463ffffffff81168352811c910152565b156149aa57565b60405162461bcd60e51b8152602060048201526017602482015276436865636b706f696e743a20696e76616c6964206b657960481b6044820152606490fd5b90929192838254801515600014614ac357926020929184614a24614a1f614a126121ff986124cd565b8560005260206000200190565b614981565b93614a33855163ffffffff1690565b614a4a63ffffffff918284169283911611156149a3565b614a64614a5b875163ffffffff1690565b63ffffffff1690565b03614a8d5750614a7f92614732614a7a926124cd565b6148fc565b01516001600160e01b031690565b915050614abe91614aab614a9f610d5e565b63ffffffff9093168352565b6001600160e01b03881682860152614913565b614a7f565b5050614ae891614ad4614a9f610d5e565b6001600160e01b0385166020830152614913565b60009190565b63ffffffff90818111614aff571690565b60405162461bcd60e51b815260206004820152602660248201527f53616665436173743a2076616c756520646f65736e27742066697420696e203360448201526532206269747360d01b6064820152608490fd5b919060001981840981840291828083109203918083039214614bd257633b9aca009081831015614bb4577f88f2cfb83100cb4e69e7c79c58b316e597157d372fb9787e8e47ce423a2e9c6d94950990828211900360f71b910360091c170290565b6044838360405191631dcf306360e21b835260048301526024820152fd5b5050633b9aca009004915056fe8be0079c531659141344cd1fd0a4f28419497f9722a3daafe3b4186f6b6457e0ddf252ad1be2c89b69c2b068fc378daa952ba7f163c4a11628f55a4df523b3ef3134e8a2e6d97e929a7e54011ea5485d7d196dd5f0ba4d4ef95803e8e3fc257f8c5be1e5ebec7d5bd14f71427d1e84f3dd0314c0f7b2291e5b200ac8c7c3b925ed0c1e94c302bdbbd8bbd6a4fb7c3ed335c2292407cd816eadd075d019d0ce04a2646970667358221220c96702b9c78574a01cf996be450d2e27d6867ba2b02187d81f9a0ac43f23f1c564736f6c63430008110033",
    "linkReferences": {}
  },
  "methodIdentifiers": {
    "TOTAL_REDEMPTION_WEIGHT()": "640abacd",
    "approve(address,uint256)": "095ea7b3",
    "balanceOf(address)": "70a08231",
    "codeOrigin()": "1d153ca4",
    "didPay((address,uint256,uint256,(address,uint256,uint256,uint256),(address,uint256,uint256,uint256),uint256,address,bool,string,bytes))": "da9ee8b7",
    "didRedeem((address,uint256,uint256,uint256,(address,uint256,uint256,uint256),(address,uint256,uint256,uint256),address,string,bytes))": "2b13c58f",
    "directory()": "c41c2f24",
    "firstOwnerOf(uint256)": "54c6d1f5",
    "fundingCycleStore()": "557e7155",
    "getApproved(uint256)": "081812fc",
    "getPastTierTotalVotes(uint256,uint256)": "d31cc52c",
    "getPastTierVotes(address,uint256,uint256)": "d40e7146",
    "getTierDelegate(address,uint256)": "82732b6d",
    "getTierTotalVotes(uint256)": "94c5c5ca",
    "getTierVotes(address,uint256)": "ca323efe",
    "initialize(uint256,address,string,string,address,string,address,string,((uint80,uint48,uint40,uint16,uint16,address,uint8,address,bytes32,uint8,bool,bool,bool,bool)[],uint256,uint256,address),address,(bool,bool,bool,bool))": "d1704baf",
    "isApprovedForAll(address,address)": "e985e9c5",
    "mintReservesFor((uint256,uint256)[])": "2a596e53",
    "mintReservesFor(uint256,uint256)": "aa4fb15b",
    "name()": "06fdde03",
    "owner()": "8da5cb5b",
    "ownerOf(uint256)": "6352211e",
    "payParams((address,address,(address,uint256,uint256,uint256),uint256,uint256,address,uint256,uint256,string,bytes))": "d46cf171",
    "pricingCurrency()": "64640c1e",
    "projectId()": "3fafa127",
    "redeemParams((address,address,uint256,uint256,uint256,uint256,uint256,(address,uint256,uint256,uint256),bool,uint256,string,bytes))": "a51cfd18",
    "redemptionWeightOf(uint256)": "4f228e11",
    "redemptionWeightOf(uint256[],(address,address,uint256,uint256,uint256,uint256,uint256,(address,uint256,uint256,uint256),bool,uint256,string,bytes))": "7ba62bf9",
    "renounceOwnership()": "715018a6",
    "royaltyInfo(uint256,uint256)": "2a55205a",
    "safeTransferFrom(address,address,uint256)": "42842e0e",
    "safeTransferFrom(address,address,uint256,bytes)": "b88d4fde",
    "setApprovalForAll(address,bool)": "a22cb465",
    "setBaseUri(string)": "a0bcfc7f",
    "setContractUri(string)": "ccb4807b",
    "setTierDelegate(address,uint256)": "ab951e39",
    "setTierDelegates((address,uint256)[])": "c74b13d9",
    "setTierRedemptionWeights((uint256,uint256)[])": "2f441500",
    "setTokenUriResolver(address)": "2407497e",
    "store()": "975057e7",
    "supportsInterface(bytes4)": "01ffc9a7",
    "symbol()": "95d89b41",
    "tierRedemptionWeights()": "9df45468",
    "tokenURI(uint256)": "c87b56dd",
    "totalRedemptionWeight((address,address,uint256,uint256,uint256,uint256,uint256,(address,uint256,uint256,uint256),bool,uint256,string,bytes))": "9494bf72",
    "transferFrom(address,address,uint256)": "23b872dd",
    "transferOwnership(address)": "f2fde38b"
  },
  "id": 0
}