{
  "abi": [
    {
      "inputs": [],
      "stateMutability": "nonpayable",
      "type": "constructor"
    },
    {
      "inputs": [],
      "name": "ALEADY_MINTED",
      "type": "error"
    },
    {
      "inputs": [],
      "name": "APPROVAL_TO_CURRENT_OWNER",
      "type": "error"
    },
    {
      "inputs": [],
      "name": "APPROVE_TO_CALLER",
      "type": "error"
    },
    {
      "inputs": [],
      "name": "BLOCK_NOT_YET_MINED",
      "type": "error"
    },
    {
      "inputs": [],
      "name": "CALLER_NOT_OWNER_OR_APPROVED",
      "type": "error"
    },
    {
      "inputs": [],
      "name": "DELEGATE_ADDRESS_ZERO",
      "type": "error"
    },
    {
      "inputs": [],
      "name": "GAME_ISNT_OVER_YET",
      "type": "error"
    },
    {
      "inputs": [],
      "name": "INCORRECT_OWNER",
      "type": "error"
    },
    {
      "inputs": [],
      "name": "INVALID_PAYMENT_EVENT",
      "type": "error"
    },
    {
      "inputs": [],
      "name": "INVALID_REDEMPTION_EVENT",
      "type": "error"
    },
    {
      "inputs": [],
      "name": "INVALID_REDEMPTION_METADATA",
      "type": "error"
    },
    {
      "inputs": [],
      "name": "INVALID_REDEMPTION_WEIGHTS",
      "type": "error"
    },
    {
      "inputs": [],
      "name": "INVALID_TIER_ID",
      "type": "error"
    },
    {
      "inputs": [],
      "name": "INVALID_TOKEN_ID",
      "type": "error"
    },
    {
      "inputs": [],
      "name": "MINT_TO_ZERO",
      "type": "error"
    },
    {
      "inputs": [],
      "name": "NOTHING_TO_CLAIM",
      "type": "error"
    },
    {
      "inputs": [],
      "name": "NOTHING_TO_MINT",
      "type": "error"
    },
    {
      "inputs": [],
      "name": "NOT_AVAILABLE",
      "type": "error"
    },
    {
      "inputs": [],
      "name": "OVERSPENDING",
      "type": "error"
    },
    {
      "inputs": [
        {
          "internalType": "uint256",
          "name": "prod1",
          "type": "uint256"
        },
        {
          "internalType": "uint256",
          "name": "denominator",
          "type": "uint256"
        }
      ],
      "name": "PRBMath__MulDivOverflow",
      "type": "error"
    },
    {
      "inputs": [],
      "name": "PRICING_RESOLVER_CHANGES_PAUSED",
      "type": "error"
    },
    {
      "inputs": [],
      "name": "REDEMPTION_WEIGHTS_ALREADY_SET",
      "type": "error"
    },
    {
      "inputs": [],
      "name": "RESERVED_TOKEN_MINTING_PAUSED",
      "type": "error"
    },
    {
      "inputs": [],
      "name": "TRANSFERS_PAUSED",
      "type": "error"
    },
    {
      "inputs": [],
      "name": "TRANSFER_TO_NON_IMPLEMENTER",
      "type": "error"
    },
    {
      "inputs": [],
      "name": "TRANSFER_TO_ZERO_ADDRESS",
      "type": "error"
    },
    {
      "inputs": [],
      "name": "UNAUTHORIZED",
      "type": "error"
    },
    {
      "inputs": [
        {
          "internalType": "uint256",
          "name": "_tokenId",
          "type": "uint256"
        }
      ],
      "name": "UNAUTHORIZED_TOKEN",
      "type": "error"
    },
    {
      "inputs": [],
      "name": "UNEXPECTED_TOKEN_REDEEMED",
      "type": "error"
    },
    {
      "inputs": [],
      "name": "WRONG_CURRENCY",
      "type": "error"
    },
    {
      "anonymous": false,
      "inputs": [
        {
          "indexed": true,
          "internalType": "address",
          "name": "owner",
          "type": "address"
        },
        {
          "indexed": true,
          "internalType": "address",
          "name": "approved",
          "type": "address"
        },
        {
          "indexed": true,
          "internalType": "uint256",
          "name": "tokenId",
          "type": "uint256"
        }
      ],
      "name": "Approval",
      "type": "event"
    },
    {
      "anonymous": false,
      "inputs": [
        {
          "indexed": true,
          "internalType": "address",
          "name": "owner",
          "type": "address"
        },
        {
          "indexed": true,
          "internalType": "address",
          "name": "operator",
          "type": "address"
        },
        {
          "indexed": false,
          "internalType": "bool",
          "name": "approved",
          "type": "bool"
        }
      ],
      "name": "ApprovalForAll",
      "type": "event"
    },
    {
      "anonymous": false,
      "inputs": [
        {
          "indexed": true,
          "internalType": "address",
          "name": "delegator",
          "type": "address"
        },
        {
          "indexed": true,
          "internalType": "address",
          "name": "fromDelegate",
          "type": "address"
        },
        {
          "indexed": true,
          "internalType": "address",
          "name": "toDelegate",
          "type": "address"
        }
      ],
      "name": "DelegateChanged",
      "type": "event"
    },
    {
      "anonymous": false,
      "inputs": [
        {
          "indexed": true,
          "internalType": "uint256",
          "name": "tokenId",
          "type": "uint256"
        },
        {
          "indexed": true,
          "internalType": "uint256",
          "name": "tierId",
          "type": "uint256"
        },
        {
          "indexed": true,
          "internalType": "address",
          "name": "beneficiary",
          "type": "address"
        },
        {
          "indexed": false,
          "internalType": "uint256",
          "name": "totalAmountContributed",
          "type": "uint256"
        },
        {
          "indexed": false,
          "internalType": "address",
          "name": "caller",
          "type": "address"
        }
      ],
      "name": "Mint",
      "type": "event"
    },
    {
      "anonymous": false,
      "inputs": [
        {
          "indexed": true,
          "internalType": "uint256",
          "name": "tokenId",
          "type": "uint256"
        },
        {
          "indexed": true,
          "internalType": "uint256",
          "name": "tierId",
          "type": "uint256"
        },
        {
          "indexed": true,
          "internalType": "address",
          "name": "beneficiary",
          "type": "address"
        },
        {
          "indexed": false,
          "internalType": "address",
          "name": "caller",
          "type": "address"
        }
      ],
      "name": "MintReservedToken",
      "type": "event"
    },
    {
      "anonymous": false,
      "inputs": [
        {
          "indexed": true,
          "internalType": "address",
          "name": "previousOwner",
          "type": "address"
        },
        {
          "indexed": true,
          "internalType": "address",
          "name": "newOwner",
          "type": "address"
        }
      ],
      "name": "OwnershipTransferred",
      "type": "event"
    },
    {
      "anonymous": false,
      "inputs": [
        {
          "indexed": true,
          "internalType": "address",
          "name": "delegate",
          "type": "address"
        },
        {
          "indexed": true,
          "internalType": "uint256",
          "name": "tierId",
          "type": "uint256"
        },
        {
          "indexed": false,
          "internalType": "uint256",
          "name": "previousBalance",
          "type": "uint256"
        },
        {
          "indexed": false,
          "internalType": "uint256",
          "name": "newBalance",
          "type": "uint256"
        },
        {
          "indexed": false,
          "internalType": "address",
          "name": "caller",
          "type": "address"
        }
      ],
      "name": "TierDelegateVotesChanged",
      "type": "event"
    },
    {
      "anonymous": false,
      "inputs": [
        {
          "indexed": true,
          "internalType": "address",
          "name": "from",
          "type": "address"
        },
        {
          "indexed": true,
          "internalType": "address",
          "name": "to",
          "type": "address"
        },
        {
          "indexed": true,
          "internalType": "uint256",
          "name": "tokenId",
          "type": "uint256"
        }
      ],
      "name": "Transfer",
      "type": "event"
    },
    {
      "inputs": [],
      "name": "TOTAL_REDEMPTION_WEIGHT",
      "outputs": [
        {
          "internalType": "uint256",
          "name": "",
          "type": "uint256"
        }
      ],
      "stateMutability": "view",
      "type": "function"
    },
    {
      "inputs": [
        {
          "internalType": "address",
          "name": "to",
          "type": "address"
        },
        {
          "internalType": "uint256",
          "name": "tokenId",
          "type": "uint256"
        }
      ],
      "name": "approve",
      "outputs": [],
      "stateMutability": "nonpayable",
      "type": "function"
    },
    {
      "inputs": [
        {
          "internalType": "address",
          "name": "_owner",
          "type": "address"
        }
      ],
      "name": "balanceOf",
      "outputs": [
        {
          "internalType": "uint256",
          "name": "balance",
          "type": "uint256"
        }
      ],
      "stateMutability": "view",
      "type": "function"
    },
    {
      "inputs": [],
      "name": "baseURI",
      "outputs": [
        {
          "internalType": "string",
          "name": "",
          "type": "string"
        }
      ],
      "stateMutability": "view",
      "type": "function"
    },
    {
      "inputs": [],
      "name": "codeOrigin",
      "outputs": [
        {
          "internalType": "address",
          "name": "",
          "type": "address"
        }
      ],
      "stateMutability": "view",
      "type": "function"
    },
    {
      "inputs": [],
      "name": "contractURI",
      "outputs": [
        {
          "internalType": "string",
          "name": "",
          "type": "string"
        }
      ],
      "stateMutability": "view",
      "type": "function"
    },
    {
      "inputs": [
        {
          "components": [
            {
              "internalType": "address",
              "name": "payer",
              "type": "address"
            },
            {
              "internalType": "uint256",
              "name": "projectId",
              "type": "uint256"
            },
            {
              "internalType": "uint256",
              "name": "currentFundingCycleConfiguration",
              "type": "uint256"
            },
            {
              "components": [
                {
                  "internalType": "address",
                  "name": "token",
                  "type": "address"
                },
                {
                  "internalType": "uint256",
                  "name": "value",
                  "type": "uint256"
                },
                {
                  "internalType": "uint256",
                  "name": "decimals",
                  "type": "uint256"
                },
                {
                  "internalType": "uint256",
                  "name": "currency",
                  "type": "uint256"
                }
              ],
              "internalType": "struct JBTokenAmount",
              "name": "amount",
              "type": "tuple"
            },
            {
              "components": [
                {
                  "internalType": "address",
                  "name": "token",
                  "type": "address"
                },
                {
                  "internalType": "uint256",
                  "name": "value",
                  "type": "uint256"
                },
                {
                  "internalType": "uint256",
                  "name": "decimals",
                  "type": "uint256"
                },
                {
                  "internalType": "uint256",
                  "name": "currency",
                  "type": "uint256"
                }
              ],
              "internalType": "struct JBTokenAmount",
              "name": "forwardedAmount",
              "type": "tuple"
            },
            {
              "internalType": "uint256",
              "name": "projectTokenCount",
              "type": "uint256"
            },
            {
              "internalType": "address",
              "name": "beneficiary",
              "type": "address"
            },
            {
              "internalType": "bool",
              "name": "preferClaimedTokens",
              "type": "bool"
            },
            {
              "internalType": "string",
              "name": "memo",
              "type": "string"
            },
            {
              "internalType": "bytes",
              "name": "metadata",
              "type": "bytes"
            }
          ],
          "internalType": "struct JBDidPayData",
          "name": "_data",
          "type": "tuple"
        }
      ],
      "name": "didPay",
      "outputs": [],
      "stateMutability": "payable",
      "type": "function"
    },
    {
      "inputs": [
        {
          "components": [
            {
              "internalType": "address",
              "name": "holder",
              "type": "address"
            },
            {
              "internalType": "uint256",
              "name": "projectId",
              "type": "uint256"
            },
            {
              "internalType": "uint256",
              "name": "currentFundingCycleConfiguration",
              "type": "uint256"
            },
            {
              "internalType": "uint256",
              "name": "projectTokenCount",
              "type": "uint256"
            },
            {
              "components": [
                {
                  "internalType": "address",
                  "name": "token",
                  "type": "address"
                },
                {
                  "internalType": "uint256",
                  "name": "value",
                  "type": "uint256"
                },
                {
                  "internalType": "uint256",
                  "name": "decimals",
                  "type": "uint256"
                },
                {
                  "internalType": "uint256",
                  "name": "currency",
                  "type": "uint256"
                }
              ],
              "internalType": "struct JBTokenAmount",
              "name": "reclaimedAmount",
              "type": "tuple"
            },
            {
              "components": [
                {
                  "internalType": "address",
                  "name": "token",
                  "type": "address"
                },
                {
                  "internalType": "uint256",
                  "name": "value",
                  "type": "uint256"
                },
                {
                  "internalType": "uint256",
                  "name": "decimals",
                  "type": "uint256"
                },
                {
                  "internalType": "uint256",
                  "name": "currency",
                  "type": "uint256"
                }
              ],
              "internalType": "struct JBTokenAmount",
              "name": "forwardedAmount",
              "type": "tuple"
            },
            {
              "internalType": "address payable",
              "name": "beneficiary",
              "type": "address"
            },
            {
              "internalType": "string",
              "name": "memo",
              "type": "string"
            },
            {
              "internalType": "bytes",
              "name": "metadata",
              "type": "bytes"
            }
          ],
          "internalType": "struct JBDidRedeemData",
          "name": "_data",
          "type": "tuple"
        }
      ],
      "name": "didRedeem",
      "outputs": [],
      "stateMutability": "payable",
      "type": "function"
    },
    {
      "inputs": [],
      "name": "directory",
      "outputs": [
        {
          "internalType": "contract IJBDirectory",
          "name": "",
          "type": "address"
        }
      ],
      "stateMutability": "view",
      "type": "function"
    },
    {
      "inputs": [
        {
          "internalType": "uint256",
          "name": "_tokenId",
          "type": "uint256"
        }
      ],
      "name": "firstOwnerOf",
      "outputs": [
        {
          "internalType": "address",
          "name": "",
          "type": "address"
        }
      ],
      "stateMutability": "view",
      "type": "function"
    },
    {
      "inputs": [],
      "name": "fundingCycleStore",
      "outputs": [
        {
          "internalType": "contract IJBFundingCycleStore",
          "name": "",
          "type": "address"
        }
      ],
      "stateMutability": "view",
      "type": "function"
    },
    {
      "inputs": [
        {
          "internalType": "uint256",
          "name": "tokenId",
          "type": "uint256"
        }
      ],
      "name": "getApproved",
      "outputs": [
        {
          "internalType": "address",
          "name": "",
          "type": "address"
        }
      ],
      "stateMutability": "view",
      "type": "function"
    },
    {
      "inputs": [
        {
          "internalType": "uint256",
          "name": "_tier",
          "type": "uint256"
        },
        {
          "internalType": "uint256",
          "name": "_blockNumber",
          "type": "uint256"
        }
      ],
      "name": "getPastTierTotalVotes",
      "outputs": [
        {
          "internalType": "uint256",
          "name": "",
          "type": "uint256"
        }
      ],
      "stateMutability": "view",
      "type": "function"
    },
    {
      "inputs": [
        {
          "internalType": "address",
          "name": "_account",
          "type": "address"
        },
        {
          "internalType": "uint256",
          "name": "_tier",
          "type": "uint256"
        },
        {
          "internalType": "uint256",
          "name": "_blockNumber",
          "type": "uint256"
        }
      ],
      "name": "getPastTierVotes",
      "outputs": [
        {
          "internalType": "uint256",
          "name": "",
          "type": "uint256"
        }
      ],
      "stateMutability": "view",
      "type": "function"
    },
    {
      "inputs": [
        {
          "internalType": "address",
          "name": "_account",
          "type": "address"
        },
        {
          "internalType": "uint256",
          "name": "_tier",
          "type": "uint256"
        }
      ],
      "name": "getTierDelegate",
      "outputs": [
        {
          "internalType": "address",
          "name": "",
          "type": "address"
        }
      ],
      "stateMutability": "view",
      "type": "function"
    },
    {
      "inputs": [
        {
          "internalType": "uint256",
          "name": "_tier",
          "type": "uint256"
        }
      ],
      "name": "getTierTotalVotes",
      "outputs": [
        {
          "internalType": "uint256",
          "name": "",
          "type": "uint256"
        }
      ],
      "stateMutability": "view",
      "type": "function"
    },
    {
      "inputs": [
        {
          "internalType": "address",
          "name": "_account",
          "type": "address"
        },
        {
          "internalType": "uint256",
          "name": "_tier",
          "type": "uint256"
        }
      ],
      "name": "getTierVotes",
      "outputs": [
        {
          "internalType": "uint256",
          "name": "",
          "type": "uint256"
        }
      ],
      "stateMutability": "view",
      "type": "function"
    },
    {
      "inputs": [
        {
          "internalType": "uint256",
          "name": "_projectId",
          "type": "uint256"
        },
        {
          "internalType": "contract IJBDirectory",
          "name": "_directory",
          "type": "address"
        },
        {
          "internalType": "string",
          "name": "_name",
          "type": "string"
        },
        {
          "internalType": "string",
          "name": "_symbol",
          "type": "string"
        },
        {
          "internalType": "contract IJBFundingCycleStore",
          "name": "_fundingCycleStore",
          "type": "address"
        },
        {
          "internalType": "string",
          "name": "_baseUri",
          "type": "string"
        },
        {
          "internalType": "contract IJBTokenUriResolver",
          "name": "_tokenUriResolver",
          "type": "address"
        },
        {
          "internalType": "string",
          "name": "_contractUri",
          "type": "string"
        },
        {
          "components": [
            {
              "components": [
                {
                  "internalType": "uint104",
                  "name": "price",
                  "type": "uint104"
                },
                {
                  "internalType": "uint32",
                  "name": "initialQuantity",
                  "type": "uint32"
                },
                {
                  "internalType": "uint32",
                  "name": "votingUnits",
                  "type": "uint32"
                },
                {
                  "internalType": "uint16",
                  "name": "reservedRate",
                  "type": "uint16"
                },
                {
                  "internalType": "address",
                  "name": "reservedTokenBeneficiary",
                  "type": "address"
                },
                {
                  "internalType": "bytes32",
                  "name": "encodedIPFSUri",
                  "type": "bytes32"
                },
                {
                  "internalType": "uint24",
                  "name": "category",
                  "type": "uint24"
                },
                {
                  "internalType": "bool",
                  "name": "allowManualMint",
                  "type": "bool"
                },
                {
                  "internalType": "bool",
                  "name": "shouldUseReservedTokenBeneficiaryAsDefault",
                  "type": "bool"
                },
                {
                  "internalType": "bool",
                  "name": "transfersPausable",
                  "type": "bool"
                },
                {
                  "internalType": "bool",
                  "name": "useVotingUnits",
                  "type": "bool"
                }
              ],
              "internalType": "struct JB721TierParams[]",
              "name": "tiers",
              "type": "tuple[]"
            },
            {
              "internalType": "uint48",
              "name": "currency",
              "type": "uint48"
            },
            {
              "internalType": "uint48",
              "name": "decimals",
              "type": "uint48"
            },
            {
              "internalType": "contract IJBPrices",
              "name": "prices",
              "type": "address"
            }
          ],
          "internalType": "struct JB721PricingParams",
          "name": "_pricing",
          "type": "tuple"
        },
        {
          "internalType": "contract IJBTiered721DelegateStore",
          "name": "_store",
          "type": "address"
        },
        {
          "components": [
            {
              "internalType": "bool",
              "name": "lockReservedTokenChanges",
              "type": "bool"
            },
            {
              "internalType": "bool",
              "name": "lockVotingUnitChanges",
              "type": "bool"
            },
            {
              "internalType": "bool",
              "name": "lockManualMintingChanges",
              "type": "bool"
            },
            {
              "internalType": "bool",
              "name": "preventOverspending",
              "type": "bool"
            }
          ],
          "internalType": "struct JBTiered721Flags",
          "name": "_flags",
          "type": "tuple"
        }
      ],
      "name": "initialize",
      "outputs": [],
      "stateMutability": "nonpayable",
      "type": "function"
    },
    {
      "inputs": [
        {
          "internalType": "address",
          "name": "owner",
          "type": "address"
        },
        {
          "internalType": "address",
          "name": "operator",
          "type": "address"
        }
      ],
      "name": "isApprovedForAll",
      "outputs": [
        {
          "internalType": "bool",
          "name": "",
          "type": "bool"
        }
      ],
      "stateMutability": "view",
      "type": "function"
    },
    {
      "inputs": [
        {
          "components": [
            {
              "internalType": "uint256",
              "name": "tierId",
              "type": "uint256"
            },
            {
              "internalType": "uint256",
              "name": "count",
              "type": "uint256"
            }
          ],
          "internalType": "struct JBTiered721MintReservesForTiersData[]",
          "name": "_mintReservesForTiersData",
          "type": "tuple[]"
        }
      ],
      "name": "mintReservesFor",
      "outputs": [],
      "stateMutability": "nonpayable",
      "type": "function"
    },
    {
      "inputs": [
        {
          "internalType": "uint256",
          "name": "_tierId",
          "type": "uint256"
        },
        {
          "internalType": "uint256",
          "name": "_count",
          "type": "uint256"
        }
      ],
      "name": "mintReservesFor",
      "outputs": [],
      "stateMutability": "nonpayable",
      "type": "function"
    },
    {
      "inputs": [],
      "name": "name",
      "outputs": [
        {
          "internalType": "string",
          "name": "",
          "type": "string"
        }
      ],
      "stateMutability": "view",
      "type": "function"
    },
    {
      "inputs": [],
      "name": "owner",
      "outputs": [
        {
          "internalType": "address",
          "name": "",
          "type": "address"
        }
      ],
      "stateMutability": "view",
      "type": "function"
    },
    {
      "inputs": [
        {
          "internalType": "uint256",
          "name": "tokenId",
          "type": "uint256"
        }
      ],
      "name": "ownerOf",
      "outputs": [
        {
          "internalType": "address",
          "name": "",
          "type": "address"
        }
      ],
      "stateMutability": "view",
      "type": "function"
    },
    {
      "inputs": [
        {
          "components": [
            {
              "internalType": "contract IJBPaymentTerminal",
              "name": "terminal",
              "type": "address"
            },
            {
              "internalType": "address",
              "name": "payer",
              "type": "address"
            },
            {
              "components": [
                {
                  "internalType": "address",
                  "name": "token",
                  "type": "address"
                },
                {
                  "internalType": "uint256",
                  "name": "value",
                  "type": "uint256"
                },
                {
                  "internalType": "uint256",
                  "name": "decimals",
                  "type": "uint256"
                },
                {
                  "internalType": "uint256",
                  "name": "currency",
                  "type": "uint256"
                }
              ],
              "internalType": "struct JBTokenAmount",
              "name": "amount",
              "type": "tuple"
            },
            {
              "internalType": "uint256",
              "name": "projectId",
              "type": "uint256"
            },
            {
              "internalType": "uint256",
              "name": "currentFundingCycleConfiguration",
              "type": "uint256"
            },
            {
              "internalType": "address",
              "name": "beneficiary",
              "type": "address"
            },
            {
              "internalType": "uint256",
              "name": "weight",
              "type": "uint256"
            },
            {
              "internalType": "uint256",
              "name": "reservedRate",
              "type": "uint256"
            },
            {
              "internalType": "string",
              "name": "memo",
              "type": "string"
            },
            {
              "internalType": "bytes",
              "name": "metadata",
              "type": "bytes"
            }
          ],
          "internalType": "struct JBPayParamsData",
          "name": "_data",
          "type": "tuple"
        }
      ],
      "name": "payParams",
      "outputs": [
        {
          "internalType": "uint256",
          "name": "weight",
          "type": "uint256"
        },
        {
          "internalType": "string",
          "name": "memo",
          "type": "string"
        },
        {
          "components": [
            {
              "internalType": "contract IJBPayDelegate",
              "name": "delegate",
              "type": "address"
            },
            {
              "internalType": "uint256",
              "name": "amount",
              "type": "uint256"
            }
          ],
          "internalType": "struct JBPayDelegateAllocation[]",
          "name": "delegateAllocations",
          "type": "tuple[]"
        }
      ],
      "stateMutability": "view",
      "type": "function"
    },
    {
      "inputs": [],
      "name": "pricingCurrency",
      "outputs": [
        {
          "internalType": "uint256",
          "name": "",
          "type": "uint256"
        }
      ],
      "stateMutability": "view",
      "type": "function"
    },
    {
      "inputs": [],
      "name": "projectId",
      "outputs": [
        {
          "internalType": "uint256",
          "name": "",
          "type": "uint256"
        }
      ],
      "stateMutability": "view",
      "type": "function"
    },
    {
      "inputs": [
        {
          "components": [
            {
              "internalType": "contract IJBPaymentTerminal",
              "name": "terminal",
              "type": "address"
            },
            {
              "internalType": "address",
              "name": "holder",
              "type": "address"
            },
            {
              "internalType": "uint256",
              "name": "projectId",
              "type": "uint256"
            },
            {
              "internalType": "uint256",
              "name": "currentFundingCycleConfiguration",
              "type": "uint256"
            },
            {
              "internalType": "uint256",
              "name": "tokenCount",
              "type": "uint256"
            },
            {
              "internalType": "uint256",
              "name": "totalSupply",
              "type": "uint256"
            },
            {
              "internalType": "uint256",
              "name": "overflow",
              "type": "uint256"
            },
            {
              "components": [
                {
                  "internalType": "address",
                  "name": "token",
                  "type": "address"
                },
                {
                  "internalType": "uint256",
                  "name": "value",
                  "type": "uint256"
                },
                {
                  "internalType": "uint256",
                  "name": "decimals",
                  "type": "uint256"
                },
                {
                  "internalType": "uint256",
                  "name": "currency",
                  "type": "uint256"
                }
              ],
              "internalType": "struct JBTokenAmount",
              "name": "reclaimAmount",
              "type": "tuple"
            },
            {
              "internalType": "bool",
              "name": "useTotalOverflow",
              "type": "bool"
            },
            {
              "internalType": "uint256",
              "name": "redemptionRate",
              "type": "uint256"
            },
            {
              "internalType": "string",
              "name": "memo",
              "type": "string"
            },
            {
              "internalType": "bytes",
              "name": "metadata",
              "type": "bytes"
            }
          ],
          "internalType": "struct JBRedeemParamsData",
          "name": "_data",
          "type": "tuple"
        }
      ],
      "name": "redeemParams",
      "outputs": [
        {
          "internalType": "uint256",
          "name": "reclaimAmount",
          "type": "uint256"
        },
        {
          "internalType": "string",
          "name": "memo",
          "type": "string"
        },
        {
          "components": [
            {
              "internalType": "contract IJBRedemptionDelegate",
              "name": "delegate",
              "type": "address"
            },
            {
              "internalType": "uint256",
              "name": "amount",
              "type": "uint256"
            }
          ],
          "internalType": "struct JBRedemptionDelegateAllocation[]",
          "name": "delegateAllocations",
          "type": "tuple[]"
        }
      ],
      "stateMutability": "view",
      "type": "function"
    },
    {
      "inputs": [],
      "name": "redemptionWeightIsSet",
      "outputs": [
        {
          "internalType": "bool",
          "name": "",
          "type": "bool"
        }
      ],
      "stateMutability": "view",
      "type": "function"
    },
    {
      "inputs": [
        {
          "internalType": "uint256",
          "name": "_tokenId",
          "type": "uint256"
        }
      ],
      "name": "redemptionWeightOf",
      "outputs": [
        {
          "internalType": "uint256",
          "name": "",
          "type": "uint256"
        }
      ],
      "stateMutability": "view",
      "type": "function"
    },
    {
      "inputs": [
        {
          "internalType": "uint256[]",
          "name": "_tokenIds",
          "type": "uint256[]"
        },
        {
          "components": [
            {
              "internalType": "contract IJBPaymentTerminal",
              "name": "terminal",
              "type": "address"
            },
            {
              "internalType": "address",
              "name": "holder",
              "type": "address"
            },
            {
              "internalType": "uint256",
              "name": "projectId",
              "type": "uint256"
            },
            {
              "internalType": "uint256",
              "name": "currentFundingCycleConfiguration",
              "type": "uint256"
            },
            {
              "internalType": "uint256",
              "name": "tokenCount",
              "type": "uint256"
            },
            {
              "internalType": "uint256",
              "name": "totalSupply",
              "type": "uint256"
            },
            {
              "internalType": "uint256",
              "name": "overflow",
              "type": "uint256"
            },
            {
              "components": [
                {
                  "internalType": "address",
                  "name": "token",
                  "type": "address"
                },
                {
                  "internalType": "uint256",
                  "name": "value",
                  "type": "uint256"
                },
                {
                  "internalType": "uint256",
                  "name": "decimals",
                  "type": "uint256"
                },
                {
                  "internalType": "uint256",
                  "name": "currency",
                  "type": "uint256"
                }
              ],
              "internalType": "struct JBTokenAmount",
              "name": "reclaimAmount",
              "type": "tuple"
            },
            {
              "internalType": "bool",
              "name": "useTotalOverflow",
              "type": "bool"
            },
            {
              "internalType": "uint256",
              "name": "redemptionRate",
              "type": "uint256"
            },
            {
              "internalType": "string",
              "name": "memo",
              "type": "string"
            },
            {
              "internalType": "bytes",
              "name": "metadata",
              "type": "bytes"
            }
          ],
          "internalType": "struct JBRedeemParamsData",
          "name": "",
          "type": "tuple"
        }
      ],
      "name": "redemptionWeightOf",
      "outputs": [
        {
          "internalType": "uint256",
          "name": "cumulativeWeight",
          "type": "uint256"
        }
      ],
      "stateMutability": "view",
      "type": "function"
    },
    {
      "inputs": [],
      "name": "renounceOwnership",
      "outputs": [],
      "stateMutability": "nonpayable",
      "type": "function"
    },
    {
      "inputs": [
        {
          "internalType": "address",
          "name": "from",
          "type": "address"
        },
        {
          "internalType": "address",
          "name": "to",
          "type": "address"
        },
        {
          "internalType": "uint256",
          "name": "tokenId",
          "type": "uint256"
        }
      ],
      "name": "safeTransferFrom",
      "outputs": [],
      "stateMutability": "nonpayable",
      "type": "function"
    },
    {
      "inputs": [
        {
          "internalType": "address",
          "name": "from",
          "type": "address"
        },
        {
          "internalType": "address",
          "name": "to",
          "type": "address"
        },
        {
          "internalType": "uint256",
          "name": "tokenId",
          "type": "uint256"
        },
        {
          "internalType": "bytes",
          "name": "data",
          "type": "bytes"
        }
      ],
      "name": "safeTransferFrom",
      "outputs": [],
      "stateMutability": "nonpayable",
      "type": "function"
    },
    {
      "inputs": [
        {
          "internalType": "address",
          "name": "operator",
          "type": "address"
        },
        {
          "internalType": "bool",
          "name": "approved",
          "type": "bool"
        }
      ],
      "name": "setApprovalForAll",
      "outputs": [],
      "stateMutability": "nonpayable",
      "type": "function"
    },
    {
      "inputs": [
        {
          "internalType": "address",
          "name": "_delegatee",
          "type": "address"
        },
        {
          "internalType": "uint256",
          "name": "_tierId",
          "type": "uint256"
        }
      ],
      "name": "setTierDelegate",
      "outputs": [],
      "stateMutability": "nonpayable",
      "type": "function"
    },
    {
      "inputs": [
        {
          "components": [
            {
              "internalType": "address",
              "name": "delegatee",
              "type": "address"
            },
            {
              "internalType": "uint256",
              "name": "tierId",
              "type": "uint256"
            }
          ],
          "internalType": "struct JBTiered721SetTierDelegatesData[]",
          "name": "_setTierDelegatesData",
          "type": "tuple[]"
        }
      ],
      "name": "setTierDelegates",
      "outputs": [],
      "stateMutability": "nonpayable",
      "type": "function"
    },
    {
      "inputs": [
        {
          "components": [
            {
              "internalType": "uint256",
              "name": "id",
              "type": "uint256"
            },
            {
              "internalType": "uint256",
              "name": "redemptionWeight",
              "type": "uint256"
            }
          ],
          "internalType": "struct DefifaTierRedemptionWeight[]",
          "name": "_tierWeights",
          "type": "tuple[]"
        }
      ],
      "name": "setTierRedemptionWeights",
      "outputs": [],
      "stateMutability": "nonpayable",
      "type": "function"
    },
    {
      "inputs": [],
      "name": "store",
      "outputs": [
        {
          "internalType": "contract IJBTiered721DelegateStore",
          "name": "",
          "type": "address"
        }
      ],
      "stateMutability": "view",
      "type": "function"
    },
    {
      "inputs": [
        {
          "internalType": "bytes4",
          "name": "_interfaceId",
          "type": "bytes4"
        }
      ],
      "name": "supportsInterface",
      "outputs": [
        {
          "internalType": "bool",
          "name": "",
          "type": "bool"
        }
      ],
      "stateMutability": "view",
      "type": "function"
    },
    {
      "inputs": [],
      "name": "symbol",
      "outputs": [
        {
          "internalType": "string",
          "name": "",
          "type": "string"
        }
      ],
      "stateMutability": "view",
      "type": "function"
    },
    {
      "inputs": [],
      "name": "tierRedemptionWeights",
      "outputs": [
        {
          "internalType": "uint256[128]",
          "name": "",
          "type": "uint256[128]"
        }
      ],
      "stateMutability": "view",
      "type": "function"
    },
    {
      "inputs": [
        {
          "internalType": "uint256",
          "name": "_tokenId",
          "type": "uint256"
        }
      ],
      "name": "tokenURI",
      "outputs": [
        {
          "internalType": "string",
          "name": "",
          "type": "string"
        }
      ],
      "stateMutability": "view",
      "type": "function"
    },
    {
      "inputs": [
        {
          "components": [
            {
              "internalType": "contract IJBPaymentTerminal",
              "name": "terminal",
              "type": "address"
            },
            {
              "internalType": "address",
              "name": "holder",
              "type": "address"
            },
            {
              "internalType": "uint256",
              "name": "projectId",
              "type": "uint256"
            },
            {
              "internalType": "uint256",
              "name": "currentFundingCycleConfiguration",
              "type": "uint256"
            },
            {
              "internalType": "uint256",
              "name": "tokenCount",
              "type": "uint256"
            },
            {
              "internalType": "uint256",
              "name": "totalSupply",
              "type": "uint256"
            },
            {
              "internalType": "uint256",
              "name": "overflow",
              "type": "uint256"
            },
            {
              "components": [
                {
                  "internalType": "address",
                  "name": "token",
                  "type": "address"
                },
                {
                  "internalType": "uint256",
                  "name": "value",
                  "type": "uint256"
                },
                {
                  "internalType": "uint256",
                  "name": "decimals",
                  "type": "uint256"
                },
                {
                  "internalType": "uint256",
                  "name": "currency",
                  "type": "uint256"
                }
              ],
              "internalType": "struct JBTokenAmount",
              "name": "reclaimAmount",
              "type": "tuple"
            },
            {
              "internalType": "bool",
              "name": "useTotalOverflow",
              "type": "bool"
            },
            {
              "internalType": "uint256",
              "name": "redemptionRate",
              "type": "uint256"
            },
            {
              "internalType": "string",
              "name": "memo",
              "type": "string"
            },
            {
              "internalType": "bytes",
              "name": "metadata",
              "type": "bytes"
            }
          ],
          "internalType": "struct JBRedeemParamsData",
          "name": "",
          "type": "tuple"
        }
      ],
      "name": "totalRedemptionWeight",
      "outputs": [
        {
          "internalType": "uint256",
          "name": "",
          "type": "uint256"
        }
      ],
      "stateMutability": "view",
      "type": "function"
    },
    {
      "inputs": [
        {
          "internalType": "address",
          "name": "from",
          "type": "address"
        },
        {
          "internalType": "address",
          "name": "to",
          "type": "address"
        },
        {
          "internalType": "uint256",
          "name": "tokenId",
          "type": "uint256"
        }
      ],
      "name": "transferFrom",
      "outputs": [],
      "stateMutability": "nonpayable",
      "type": "function"
    },
    {
      "inputs": [
        {
          "internalType": "address",
          "name": "newOwner",
          "type": "address"
        }
      ],
      "name": "transferOwnership",
      "outputs": [],
      "stateMutability": "nonpayable",
      "type": "function"
    }
  ],
  "bytecode": {
    "object": "0x608080604052346100665760078054336001600160a01b03198083168217909355906001600160a01b03167f8be0079c531659141344cd1fd0a4f28419497f9722a3daafe3b4186f6b6457e0600080a33090608e541617608e556157cd90816200006c8239f35b600080fdfe60806040526004361015610013575b600080fd5b60003560e01c806301ffc9a7146103ab57806306fdde03146103a2578063081812fc14610399578063095ea7b3146103905780631d153ca41461038757806323b872dd1461037e5780632a596e53146103755780632b13c58f1461036c5780632f441500146103635780633fafa1271461035a57806342842e0e146103515780634f228e111461034857806354c6d1f51461033f578063557e7155146103365780636352211e1461032d578063640abacd1461032457806364640c1e1461031b5780636c0360eb1461031257806370a0823114610309578063715018a6146103005780637ba62bf9146102f757806382732b6d146102ee5780638da5cb5b146102e55780639494bf72146102dc57806394c5c5ca146102d357806395d89b41146102ca578063975057e7146102c15780639df45468146102b8578063a11606a8146102af578063a22cb465146102a6578063a51cfd181461029d578063a8c15f4a14610294578063aa4fb15b1461028b578063ab951e3914610282578063b88d4fde14610279578063c41c2f2414610270578063c74b13d914610267578063c87b56dd1461025e578063ca323efe14610255578063d31cc52c1461024c578063d40e714614610243578063d46cf1711461023a578063da9ee8b714610231578063e8a3d48514610228578063e985e9c51461021f5763f2fde38b1461021757600080fd5b61000e612203565b5061000e612198565b5061000e6120f0565b5061000e611fc9565b5061000e611f0c565b5061000e611e50565b5061000e611e21565b5061000e611dcd565b5061000e611c86565b5061000e611bd3565b5061000e611bab565b5061000e611b42565b5061000e611b17565b5061000e611af7565b5061000e611ad3565b5061000e611a48565b5061000e611979565b5061000e6118af565b5061000e611503565b5061000e6114db565b5061000e611435565b5061000e6113f8565b5061000e6113da565b5061000e6113b2565b5061000e611364565b5061000e61130c565b5061000e611251565b5061000e611199565b5061000e6110f1565b5061000e611098565b5061000e611078565b5061000e611059565b5061000e611031565b5061000e611012565b5061000e610feb565b5061000e610fa3565b5061000e610f84565b5061000e610ef0565b5061000e61095e565b5061000e61089e565b5061000e610876565b5061000e610822565b5061000e610734565b5061000e6106e6565b5061000e610606565b5061000e6103c6565b6001600160e01b031981160361000e57565b503461000e57602060031936011261000e5761042f6001600160e01b03196004356103f0816103b4565b167fcad5371d000000000000000000000000000000000000000000000000000000008114908115610433575b5060405190151581529081906020820190565b0390f35b63fbb38e0360e01b811491508115610575575b811561054b575b8115610521575b81156104f7575b8115610469575b503861041c565b7f80ac58cd000000000000000000000000000000000000000000000000000000008114915081156104cd575b81156104a3575b5038610462565b7f01ffc9a7000000000000000000000000000000000000000000000000000000009150143861049c565b7f5b5e139f0000000000000000000000000000000000000000000000000000000081149150610495565b7f2a55205a000000000000000000000000000000000000000000000000000000008114915061045b565b7f2b13c58f0000000000000000000000000000000000000000000000000000000081149150610454565b7fda9ee8b7000000000000000000000000000000000000000000000000000000008114915061044d565b7f71700c690000000000000000000000000000000000000000000000000000000081149150610446565b600091031261000e57565b60005b8381106105bd5750506000910152565b81810151838201526020016105ad565b90601f19601f6020936105eb815180928187528780880191016105aa565b0116010190565b9060206106039281815201906105cd565b90565b503461000e576000806003193601126106e35760405190808054610629816110b7565b808552916001918083169081156106b9575060011461065f575b61042f8561065381870382610def565b604051918291826105f2565b80809450527f290decd9548b62a8d60345a988386fc84ba6bc95484008f6362f93160ef3e5635b8284106106a15750505081016020016106538261042f610643565b80546020858701810191909152909301928101610686565b86955061042f9693506020925061065394915060ff191682840152151560051b8201019293610643565b80fd5b503461000e57602060031936011261000e576020610705600435613ea6565b6001600160a01b0360405191168152f35b6001600160a01b0381160361000e57565b359061073282610716565b565b503461000e57604060031936011261000e5760043561075281610716565b6024356001600160a01b038061076783613e5c565b1680918416146107f8578033141590816107b6575b5061078c5761078a916148be565b005b60046040517fe5fa0e35000000000000000000000000000000000000000000000000000000008152fd5b905060005260046020526107f26107ee6107e7336040600020906001600160a01b0316600052602052604060002090565b5460ff1690565b1590565b3861077c565b60046040517f133f8be9000000000000000000000000000000000000000000000000000000008152fd5b503461000e57600060031936011261000e5760206001600160a01b03608e5416604051908152f35b600319606091011261000e5760043561086281610716565b9060243561086f81610716565b9060443590565b503461000e576108853661084a565b906108908233613f3c565b1561078c5761078a92614622565b503461000e5760208060031936011261000e576004359067ffffffffffffffff9081831161000e573660238401121561000e57826004013591821161000e57602490600693368385871b8301011161000e5760005b8481106108fc57005b60019061091e6109123687848b1b870101610ea9565b8581519101519061373c565b016108f3565b90816101e091031261000e5790565b602060031982011261000e576004359067ffffffffffffffff821161000e5761060391600401610924565b5061096836610933565b3415801590610cab575b8015610c9b575b610c715760a0810135908115610c47576101c08101602461099a8284612720565b9050108015610c11575b610be7576109b56109bd9183612720565b810190612814565b9150508051610a156109e66109da6090546001600160a01b031690565b6001600160a01b031690565b93600554604095865180916321d1336160e11b825261012092839181806004998a988983019190602083019252565b03915afa918215610bda575b600092610bad575b505051149460005b848110610a5d578787610a4388613daf565b610a4957005b610a5861078a916089546123f6565b608955565b610a6781876123a7565b51610a8c610a7f826000526002602052604060002090565b546001600160a01b031690565b6001600160a01b03610aa06109da876136b4565b911603610b8557908188610ab560019461446f565b610ac1575b5001610a31565b610b3e90610ada6109da608f546001600160a01b031690565b87865180927f42f9914b0000000000000000000000000000000000000000000000000000000082528180610b18602097889683019190602083019252565b03915afa918215610b78575b600092610b4b575b5050600052608a602052604060002090565b8054600101905538610aba565b610b6a9250803d10610b71575b610b628183610def565b8101906122dd565b3880610b2c565b503d610b58565b610b806122ec565b610b24565b8483517f075fd2b1000000000000000000000000000000000000000000000000000000008152fd5b610bcc9250803d10610bd3575b610bc48183610def565b81019061284f565b3880610a29565b503d610bba565b610be26122ec565b610a21565b60046040517f2a84050f000000000000000000000000000000000000000000000000000000008152fd5b5063fbb38e0360e01b6001600160e01b0319610c3f610c39610c338587612720565b90612771565b90612793565b1614156109a4565b60046040517f76914729000000000000000000000000000000000000000000000000000000008152fd5b60046040517f7df94b86000000000000000000000000000000000000000000000000000000008152fd5b5060055460208201351415610979565b50610d0c6020610cc66109da6006546001600160a01b031690565b6005546040517f6e49181f000000000000000000000000000000000000000000000000000000008152600481019190915233602482015292839190829081906044820190565b03915afa908115610d55575b600091610d27575b5015610972565b610d48915060203d8111610d4e575b610d408183610def565b81019061369f565b38610d20565b503d610d36565b610d5d6122ec565b610d18565b50634e487b7160e01b600052604160045260246000fd5b6080810190811067ffffffffffffffff821117610d9557604052565b610d9d610d62565b604052565b6040810190811067ffffffffffffffff821117610d9557604052565b67ffffffffffffffff8111610d9557604052565b611000810190811067ffffffffffffffff821117610d9557604052565b90601f601f19910116810190811067ffffffffffffffff821117610d9557604052565b60405190610160820182811067ffffffffffffffff821117610d9557604052565b6040519061073282610da2565b60405190610180820182811067ffffffffffffffff821117610d9557604052565b60405190610120820182811067ffffffffffffffff821117610d9557604052565b60209067ffffffffffffffff8111610e9c575b60051b0190565b610ea4610d62565b610e95565b919082604091031261000e576040516040810181811067ffffffffffffffff821117610ee3575b6040526020808294803584520135910152565b610eeb610d62565b610ed0565b503461000e5760208060031936011261000e576004359067ffffffffffffffff821161000e573660238301121561000e57816004013591610f3083610e82565b91604093610f4085519485610def565b80845260248285019160061b8401019236841161000e57602401905b838210610f6c5761078a85613402565b828691610f793685610ea9565b815201910190610f5c565b503461000e57600060031936011261000e576020600554604051908152f35b503461000e5761078a610fb53661084a565b90604051926020840184811067ffffffffffffffff821117610fde575b60405260008452613ee5565b610fe6610d62565b610fd2565b503461000e57602060031936011261000e57602061100a600435612596565b604051908152f35b503461000e57602060031936011261000e5760206107056004356122ab565b503461000e57600060031936011261000e5760206001600160a01b0360905416604051908152f35b503461000e57602060031936011261000e576020610705600435613e5c565b503461000e57600060031936011261000e576020604051633b9aca008152f35b503461000e57600060031936011261000e576020609154604051908152f35b90600182811c921680156110e7575b60208310146110d157565b634e487b7160e01b600052602260045260246000fd5b91607f16916110c6565b503461000e576000806003193601126106e3576040519080609354611115816110b7565b808552916001918083169081156106b9575060011461113e5761042f8561065381870382610def565b9250609383527f28da5ca8143bfa5e9f642e58e5e87bef0a2eb0c00bcd4efdd01050293f5fac915b8284106111815750505081016020016106538261042f610643565b80546020858701810191909152909301928101611166565b503461000e57602060031936011261000e5761042f6004356111ba81610716565b60206001600160a01b03604481608f54169360405194859384927ff7888aec0000000000000000000000000000000000000000000000000000000084523060048501521660248301525afa908115611244575b600091611226575b506040519081529081906020820190565b61123e915060203d8111610b7157610b628183610def565b38611215565b61124c6122ec565b61120d565b503461000e576000806003193601126106e35761126c61519c565b806001600160a01b036007546001600160a01b03198116600755167f8be0079c531659141344cd1fd0a4f28419497f9722a3daafe3b4186f6b6457e08280a380f35b81601f8201121561000e578035916112c583610e82565b926112d36040519485610def565b808452602092838086019260051b82010192831161000e578301905b8282106112fd575050505090565b813581529083019083016112ef565b503461000e57604060031936011261000e5767ffffffffffffffff60043581811161000e5761133f9036906004016112ae565b9060243590811161000e5760209161135e61100a923690600401610924565b50612403565b503461000e57604060031936011261000e57602060043561138481610716565b6001600160a01b03809116600052608b82526040600020602435600052825260406000205416604051908152f35b503461000e57600060031936011261000e5760206001600160a01b0360075416604051908152f35b503461000e576113e936610933565b506020604051633b9aca008152f35b503461000e57602060031936011261000e57600435600052608d60205260206001600160e01b0361142c604060002061542f565b16604051908152f35b503461000e576000806003193601126106e3576040519080600180549161145b836110b7565b808652928281169081156106b957506001146114815761042f8561065381870382610def565b92508083527fb10e2d527612073b26eecdfd717e6a320cf44b4afac2b0732d9fcbe2b7fa0cf65b8284106114c35750505081016020016106538261042f610643565b805460208587018101919091529093019281016114a8565b503461000e57600060031936011261000e5760206001600160a01b03608f5416604051908152f35b503461000e57600060031936011261000e5760405161152181610dd2565b611000809136903760405160096000825b608082106115735750505061154681610dd2565b60405190600090825b6080831061155c57505050f35b60019082518152602080910192019201919061154f565b6001602081928554815201930191019091611532565b6024359061073282610716565b601f19601f60209267ffffffffffffffff81116115b4575b01160190565b6115bc610d62565b6115ae565b9291926115cd82611596565b916115db6040519384610def565b82948184528183011161000e578281602093846000960137010152565b9080601f8301121561000e57816020610603933591016115c1565b6084359061073282610716565b60c4359061073282610716565b35906cffffffffffffffffffffffffff8216820361000e57565b359063ffffffff8216820361000e57565b359061ffff8216820361000e57565b359062ffffff8216820361000e57565b8015150361000e57565b359061073282611677565b359065ffffffffffff8216820361000e57565b919091608090818185031261000e5760408051926116bc84610d79565b8395833567ffffffffffffffff811161000e57840181601f8201121561000e578035906116e882610e82565b926116f586519485610def565b82845260209485850191866101608096028501019381851161000e578701925b848410611758575050505050509261175392606094928593875261173a81840161168c565b9087015261174981830161168c565b9086015201610727565b910152565b858483031261000e5787869161176c610e12565b6117758761162d565b8152611782838801611647565b838201526117918c8801611647565b8c82015260606117a2818901611658565b908201526117b1868801610727565b8682015260a0808801359082015260c06117cc818901611667565b9082015260e06117dd818901611681565b908201526101006117ef818901611681565b90820152610120611801818901611681565b90820152610140611813818901611681565b90820152815201930192611715565b610124359061073282610716565b7ffffffffffffffffffffffffffffffffffffffffffffffffffffffffffffffebc608091011261000e576040519061186782610d79565b816101443561187581611677565b81526101643561188481611677565b60208201526101843561189681611677565b604082015260606101a435916118ab83611677565b0152565b503461000e576101c060031936011261000e576118ca611589565b60443567ffffffffffffffff9182821161000e576118ed600492369084016115f8565b60643584811161000e5761190490369085016115f8565b61190c611613565b60a43586811161000e5761192390369087016115f8565b61192b611620565b9160e43588811161000e5761194390369089016115f8565b936101043598891161000e5761195f61078a9936908a0161169f565b95611968611822565b9761197236611830565b993561311c565b503461000e57604060031936011261000e5760043561199781610716565b6024356119a381611677565b6001600160a01b03821691823314611a1e576119df903360005260046020526040600020906001600160a01b0316600052602052604060002090565b9015159060ff1981541660ff83161790556040519081527f17307eab39ab6107e8899845ad3d59bd9653f200f220920489ca2b5937696c3160203392a3005b60046040517f0df0273a000000000000000000000000000000000000000000000000000000008152fd5b503461000e57611a5f611a5a36610933565b6128c3565b604092919280519384938452611a8160209160608387015260608601906105cd565b90848203838601528080855193848152019401926000905b838210611aa65786860387f35b845180516001600160a01b0316875283015186840152879650948501949382019360019190910190611a99565b503461000e57600060031936011261000e57602060ff609254166040519015158152f35b503461000e57604060031936011261000e5761078a60243560043561373c565b503461000e57604060031936011261000e5761078a600435611b3881610716565b6024359033613af8565b503461000e57608060031936011261000e57600435611b6081610716565b602435611b6c81610716565b6064359167ffffffffffffffff831161000e573660238401121561000e57611ba161078a9336906024816004013591016115c1565b9160443591613ee5565b503461000e57600060031936011261000e5760206001600160a01b0360065416604051908152f35b503461000e5760208060031936011261000e576004359067ffffffffffffffff821161000e573660238301121561000e57816004013591611c1383610e82565b91604093611c2385519485610def565b80845260248285019160061b8401019236841161000e57602401905b838210611c4f5761078a856136be565b858236031261000e578286918251611c6681610da2565b8435611c7181610716565b81528285013583820152815201910190611c3f565b503461000e57602060031936011261000e5761042f611cb06109da608f546001600160a01b031690565b6040517f0fab094700000000000000000000000000000000000000000000000000000000815230600482015290602090829060249082905afa908115611dc0575b600091611d92575b50600060405180927fda0544aa000000000000000000000000000000000000000000000000000000008252816001600160a01b0381611d42600435600483019190602083019252565b0392165afa908115611d85575b600091611d64575b50604051918291826105f2565b611d7f913d8091833e611d778183610def565b810190612350565b38611d57565b611d8d6122ec565b611d4f565b611db3915060203d8111611db9575b611dab8183610def565b8101906122f9565b38611cf9565b503d611da1565b611dc86122ec565b611cf1565b503461000e57604060031936011261000e576001600160a01b03600435611df381610716565b16600052608c602052604060002060243560005260205260206001600160e01b0361142c604060002061542f565b503461000e57604060031936011261000e57600435600052608d602052602061100a602435604060002061523c565b503461000e57606060031936011261000e576001600160a01b03600435611e7681610716565b16600052608c6020526040600020602435600052602052602061100a604435604060002061523c565b91908252611eb960209160608385015260608401906105cd565b90604092838184039101528080855193848152019401926000905b838210611ee357505050505090565b845180516001600160a01b03168752830151868401529485019493820193600190910190611ed4565b503461000e576020600319818136011261000e576004359067ffffffffffffffff821161000e576101a090823603011261000e57611f5b611f54610164830183600401612720565b36916115c1565b60405190611f6882610da2565b6001825260005b848110611fb357509061042f91610124946000611f8a610e33565b30815291820152611f9a8361238d565b52611fa48261238d565b50604051948594013584611e9f565b8490611fbd6127bf565b82828601015201611f6f565b5060031960208136011261000e576004359067ffffffffffffffff821161000e5761020090823603011261000e57600554341590811591612056575b8115612047575b5061201d5761078a90600401614c64565b60046040517fc715ec6c000000000000000000000000000000000000000000000000000000008152fd5b9050602482013514153861200c565b905061206d6109da6006546001600160a01b031690565b6040517f6e49181f0000000000000000000000000000000000000000000000000000000081526004810183905233602482015290602090829060449082905afa9081156120e3575b6000916120c5575b501590612005565b6120dd915060203d8111610d4e57610d408183610def565b386120bd565b6120eb6122ec565b6120b5565b503461000e576000806003193601126106e3576040519080609454612114816110b7565b808552916001918083169081156106b9575060011461213d5761042f8561065381870382610def565b9250609483527f7047a3cc0a76edcee45792ca71527c753f6167484f14b94c4a3bd2997516725c5b8284106121805750505081016020016106538261042f610643565b80546020858701810191909152909301928101612165565b503461000e57604060031936011261000e57602060ff6121f76004356121bd81610716565b6001600160a01b03602435916121d283610716565b16600052600484526040600020906001600160a01b0316600052602052604060002090565b54166040519015158152f35b503461000e57602060031936011261000e5760043561222181610716565b61222961519c565b6001600160a01b038116156122415761078a906151f4565b608460405162461bcd60e51b815260206004820152602660248201527f4f776e61626c653a206e6577206f776e657220697320746865207a65726f206160448201527f64647265737300000000000000000000000000000000000000000000000000006064820152fd5b60005260086020526001600160a01b038060406000205416806122d8575060026020526040600020541690565b905090565b9081602091031261000e575190565b506040513d6000823e3d90fd5b9081602091031261000e575161060381610716565b81601f8201121561000e57805161232481611596565b926123326040519485610def565b8184526020828401011161000e5761060391602080850191016105aa565b9060208282031261000e57815167ffffffffffffffff811161000e57610603920161230e565b50634e487b7160e01b600052603260045260246000fd5b60209080511561239b570190565b6123a3612376565b0190565b60209181518110156123bc575b60051b010190565b6123c4612376565b6123b4565b50634e487b7160e01b600052601160045260246000fd5b90600182018092116123ee57565b6107326123c9565b919082018092116123ee57565b9060009180516000915b81831061241957505050565b90919360019061243261242c87856123a7565b51612596565b8101809111612445575b9401919061240d565b61244d6123c9565b61243c565b519061073282610716565b519061073282611677565b60208183031261000e57805167ffffffffffffffff9182821161000e57016101808184031261000e57612499610e40565b92815184526020820151602085015260408201516040850152606082015160608501526080820151608085015260a082015160a08501526124dc60c08301612452565b60c085015260e082015160e0850152610100808301519085015261012061250481840161245d565b9085015261014061251681840161245d565b90850152610160928383015190811161000e57612533920161230e565b9082015290565b9060001982019182116123ee57565b919082039182116123ee57565b6080811015612569575b60090190600090565b612571612376565b612560565b8115612580570490565b634e487b7160e01b600052601260045260246000fd5b6125e960206125b06109da608f546001600160a01b031690565b92604051809381927f42f9914b000000000000000000000000000000000000000000000000000000008352600483019190602083019252565b0381855afa908115612713575b6000916126f5575b506040516364faa15960e01b8152306004820152602481018290526000604482018190529092839060649082905afa9182156126e8575b6000926126c5575b5061265c61265261264d8361253a565b612556565b90549060031b1c90565b9081156126bd57606083019061267a60408351950194855190612549565b156126b4576126a7612696610603956126ae9451905190612549565b91600052608a602052604060002090565b54906123f6565b90612576565b50505050600090565b505050600090565b6126e191923d8091833e6126d98183610def565b810190612468565b903861263d565b6126f06122ec565b612635565b61270d915060203d8111610b7157610b628183610def565b386125fe565b61271b6122ec565b6125f6565b9035907fffffffffffffffffffffffffffffffffffffffffffffffffffffffffffffffe18136030182121561000e570180359067ffffffffffffffff821161000e5760200191813603831361000e57565b9060241161000e5760200190600490565b9060441161000e5760400190600490565b6001600160e01b031990358181169392600481106127b057505050565b60040360031b82901b16169150565b604051906127cc82610da2565b60006020838281520152565b604051906127e582610da2565b600182528160005b6020908181101561280f576020916128036127bf565b908285010152016127ed565b505050565b9160608383031261000e578235926020810135612830816103b4565b92604082013567ffffffffffffffff811161000e5761060392016112ae565b908161012091031261000e57612863610e61565b90805182526020810151602083015260408101516040830152606081015160608301526080810151608083015260a081015160a083015260c081015160c08301526128b060e08201612452565b60e0830152610100809101519082015290565b90600090816080840135612b0c576101c084019060246128e38387612720565b9050108015612ae2575b610be7576128f96127d8565b9361292e6109b5612908610e33565b30815294602095848782015261291d8961238d565b526129278861238d565b5088612720565b949150506129476109da6090546001600160a01b031690565b91604088815180956321d1336160e11b825261012096879181806129778860049801358883019190602083019252565b03915afa958615612ad5575b8496612ab6575b50506001809551146129d557505050505050611f546129c56129d1926129bf6129b960895460c08a01356123f6565b91612403565b906156f2565b946101a0810190612720565b9190565b94989592919083519382966129f56109da608f546001600160a01b031690565b915b868910612a1957505050505050505050611f54816101a06129d1930190612720565b90919293949596889c87612a6888612a32859d876123a7565b5189518093819263c44a8e6d60e01b8352308b840160409060009294936001600160a01b03606083019616825260208201520152565b03818a5afa908115612aa9575b8991612a8f575b500151019c0197969594939291906129f7565b612aa391503d808b833e6126d98183610def565b38612a7c565b612ab16122ec565b612a75565b612acd929650803d10610bd357610bc48183610def565b93388061298a565b612add6122ec565b612983565b5063fbb38e0360e01b6001600160e01b0319612b04610c39610c33868a612720565b1614156128ed565b60046040517f4fc178d8000000000000000000000000000000000000000000000000000000008152fd5b60095b60898110612b445750565b60008155600101612b39565b818110612b5b575050565b60008155600101612b50565b90601f8211612b74575050565b61073291600080527f290decd9548b62a8d60345a988386fc84ba6bc95484008f6362f93160ef3e563906020601f840160051c83019310612bbd575b601f0160051c0190612b50565b9091508190612bb0565b90601f8211612bd4575050565b6107329160936000527f28da5ca8143bfa5e9f642e58e5e87bef0a2eb0c00bcd4efdd01050293f5fac91906020601f840160051c83019310612bbd57601f0160051c0190612b50565b90601f8211612c2a575050565b6107329160946000527f7047a3cc0a76edcee45792ca71527c753f6167484f14b94c4a3bd2997516725c906020601f840160051c83019310612bbd57601f0160051c0190612b50565b90601f8211612c80575050565b6107329160016000527fb10e2d527612073b26eecdfd717e6a320cf44b4afac2b0732d9fcbe2b7fa0cf6906020601f840160051c83019310612bbd57601f0160051c0190612b50565b90815167ffffffffffffffff8111612db3575b612cf081612ceb6093546110b7565b612bc7565b602080601f8311600114612d2b5750819293600092612d20575b50506000198260011b9260031b1c191617609355565b015190503880612d0a565b90601f19831694612d5e60936000527f28da5ca8143bfa5e9f642e58e5e87bef0a2eb0c00bcd4efdd01050293f5fac9190565b926000905b878210612d9b575050836001959610612d82575b505050811b01609355565b015160001960f88460031b161c19169055388080612d77565b80600185968294968601518155019501930190612d63565b612dbb610d62565b612cdc565b90815167ffffffffffffffff8111612eaa575b612de781612de26094546110b7565b612c1d565b602080601f8311600114612e225750819293600092612e17575b50506000198260011b9260031b1c191617609455565b015190503880612e01565b90601f19831694612e5560946000527f7047a3cc0a76edcee45792ca71527c753f6167484f14b94c4a3bd2997516725c90565b926000905b878210612e92575050836001959610612e79575b505050811b01609455565b015160001960f88460031b161c19169055388080612e6e565b80600185968294968601518155019501930190612e5a565b612eb2610d62565b612dd3565b90815167ffffffffffffffff8111612f9f575b600190612ee081612edb84546110b7565b612c73565b602080601f8311600114612f1a575081929394600092612f0f575b505060001982841b9260031b1c1916179055565b015190503880612efb565b90601f19831695612f4d60016000527fb10e2d527612073b26eecdfd717e6a320cf44b4afac2b0732d9fcbe2b7fa0cf690565b926000905b888210612f885750508385969710612f6f575b505050811b019055565b015160001960f88460031b161c19169055388080612f65565b808785968294968601518155019501930190612f52565b612fa7610d62565b612eca565b81601f8201121561000e57805191612fc383610e82565b92612fd16040519485610def565b808452602092838086019260051b82010192831161000e578301905b828210612ffb575050505090565b81518152908301908301612fed565b9060208282031261000e57815167ffffffffffffffff811161000e576106039201612fac565b60208082019080835283518092528060408094019401926000905b83821061305a57505050505090565b90919293948361016060019261310f89516130848382516cffffffffffffffffffffffffff169052565b8085015163ffffffff16838601528087015163ffffffff168388015260608181015161ffff16908401526080818101516001600160a01b03169084015260a0818101519084015260c08082015162ffffff169084015260e081810151151590840152610100818101511515908401526101208181015115159084015261014090810151151590830152565b019601949392019061304b565b90929897969493919861313a6109da608e546001600160a01b031690565b301461000e576001600160a01b03998a61315f6109da608f546001600160a01b031690565b1661000e5761318d9461317193614a89565b6001600160a01b03166001600160a01b03196090541617609055565b6131ad856001600160a01b03166001600160a01b0319608f541617608f55565b6131d66131d16131c6602087015165ffffffffffff1690565b65ffffffffffff1690565b609155565b80516133f3575b5080516133e4575b50838116613369575b505180516132ec575b508251151580156132df575b80156132d2575b80156132c5575b613222575b505050610732336151f4565b16803b1561000e57604080517fcb827e320000000000000000000000000000000000000000000000000000000081528351151560048201526020840151151560248201529083015115156044820152606090920151151560648301526000908290608490829084905af180156132b8575b61329f575b8080613216565b806132ac6132b292610dbe565b8061059f565b38613298565b6132c06122ec565b613293565b5060608301511515613211565b506040830151151561320a565b5060208301511515613203565b600061332591604051809381927f8da5e32b00000000000000000000000000000000000000000000000000000000835260048301613030565b0381838787165af1801561335c575b156131f757613355903d806000833e61334d8183610def565b81019061300a565b50386131f7565b6133646122ec565b613334565b838316803b1561000e576040517fd84a72c00000000000000000000000000000000000000000000000000000000081526001600160a01b039290921660048301526000908290602490829084905af180156133d7575b156131ee57806132ac6133d192610dbe565b386131ee565b6133df6122ec565b6133bf565b6133ed90612dc0565b386131e5565b6133fc90612cc9565b386131dd565b6134529061340e61519c565b6134236109da6090546001600160a01b031690565b90600554604092835180916321d1336160e11b8252610120928391818060049a8b988983019190602083019252565b03915afa91821561367f575b600092613662575b5050511061363b5760925460ff1661361457613480612b36565b6134956109da608f546001600160a01b031690565b82517ff1bea54f0000000000000000000000000000000000000000000000000000000081523085820190815290916020918291849182908190850103915afa918215613607575b6000926135e8575b50909160009181519183945b8386106135415750505050633b9aca0091501161351b575050610732600160ff196092541617609255565b517f6ff44e97000000000000000000000000000000000000000000000000000000008152fd5b909192938161355087856123a7565b5151116135c0576135b46001916135a08661356b8a886123a7565b51015161358561264d61357e8c8a6123a7565b515161253a565b90919082549060031b600019811b9283911b16911916179055565b856135ab89876123a7565b510151906123f6565b950194939291906134f0565b8787517f52385374000000000000000000000000000000000000000000000000000000008152fd5b816136009293503d8411610b7157610b628183610def565b90386134e4565b61360f6122ec565b6134dc565b50517f38101407000000000000000000000000000000000000000000000000000000008152fd5b50517ff8228d40000000000000000000000000000000000000000000000000000000008152fd5b6136789250803d10610bd357610bc48183610def565b3880613466565b6136876122ec565b61345e565b818102929181159184041417156123ee57565b9081602091031261000e575161060381611677565b3561060381610716565b8051906136c96127bf565b5060005b8281106136d957505050565b6136e381836123a7565b51906001600160a01b0380835116156137125782602061370c9260019551169101519033613af8565b016136cd565b60046040517f53d304f4000000000000000000000000000000000000000000000000000000008152fd5b9190916137546109da6090546001600160a01b031690565b906137b260ff61010061378b60055495604096875180926321d1336160e11b82528180610120968795600483019190602083019252565b03915afa918215613aeb575b600092613ace575b5050015160f41c1660018091811c161490565b613aa5576137cb6109da608f546001600160a01b031690565b82517f136e651c000000000000000000000000000000000000000000000000000000008152306004820152602481018390529490602090869060449082905afa948515613a98575b600095613a78575b5061384f610a7f83613840886001600160a01b0316600052608b602052604060002090565b90600052602052604060002090565b6001600160a01b0391828216159081613a09575b6138786109da608f546001600160a01b031690565b86517fbaa7e80e000000000000000000000000000000000000000000000000000000008152600481018790526024810183905294906000908690604490829084905af19485156139fc575b6000956139e1575b5060005b8281106139925750505095610732959660006138f66109da608f546001600160a01b031690565b96516364faa15960e01b8152306004820152602481018790526000604482015296879060649082905afa958615613985575b60009661395d575b509160209161394f9493156000146139555750945b015190519061368c565b91613bf0565b905094613945565b9161397a60209361394f969593983d8091833e6126d98183610def565b969193945091613930565b61398d6122ec565b613928565b808a886139a16001948a6123a7565b516139ac8184613fbd565b8b51338152928616927f031e1988c95a91ec4d655ff63a8f87a80bc9daf28d95ae10ee08c0022cfb5c8b90602090a4016138cf565b6139f591953d8091833e61334d8183610def565b93386138cb565b613a046122ec565b6138c3565b613a4988613a2e87613840836001600160a01b0316600052608b602052604060002090565b906001600160a01b03166001600160a01b0319825416179055565b8388166000817f3134e8a2e6d97e929a7e54011ea5485d7d196dd5f0ba4d4ef95803e8e3fc257f8280a4613863565b613a9191955060203d8111611db957611dab8183610def565b933861381b565b613aa06122ec565b613813565b600482517fe96092b8000000000000000000000000000000000000000000000000000000008152fd5b613ae49250803d10610bd357610bc48183610def565b388061379f565b613af36122ec565b613797565b6001600160a01b039081166000818152608b602090815260408083208784528252822080548686166001600160a01b03198216179091556107329692959294929390831692909190819080861685857f3134e8a2e6d97e929a7e54011ea5485d7d196dd5f0ba4d4ef95803e8e3fc257f8b80a4608f5416926064604051809581937f2e4d0ea800000000000000000000000000000000000000000000000000000000835230600484015260248301528960448301525afa958615613be3575b95613bc4575b5050613c81565b613bdb929550803d10610b7157610b628183610def565b923880613bbd565b613beb6122ec565b613bb7565b9061073292916000828152608d602052613c0d846040832061534a565b505060406001600160a01b039182841615613c66575b808052608b602052818120858252602052613c57838383205416946001600160a01b0316600052608b602052604060002090565b85825260205220541690613c81565b848152608d602052613c7a86838320615407565b5050613c23565b9192906001600160a01b03928382169381168481148015613da7575b613d9f57859181613d2c575b50505082613cb8575b50505050565b7fed0c1e94c302bdbbd8bbd6a4fb7c3ed335c2292407cd816eadd075d019d0ce0491613cfa613d0b926001600160a01b0316600052608c602052604060002090565b85600052602052604060002061534a565b6040805192835260208301919091523390820152606090a338808080613cb2565b613d49906001600160a01b0316600052608c602052604060002090565b826000526020527fed0c1e94c302bdbbd8bbd6a4fb7c3ed335c2292407cd816eadd075d019d0ce04613d7f856040600020615407565b6040805192835260208301919091523390820152606090a3833880613ca9565b505050505050565b508315613c9d565b6001600160a01b03608f5416803b1561000e5760405180927f86bc2be3000000000000000000000000000000000000000000000000000000008252602482016020908160048501528251809152816044850193019160005b828110613e4557505050509181600081819503925af18015613e38575b613e2b5750565b806132ac61073292610dbe565b613e406122ec565b613e24565b835185528795509381019392810192600101613e07565b60005260026020526001600160a01b03604060002054168015613e7c5790565b60046040517fb49aa3b5000000000000000000000000000000000000000000000000000000008152fd5b613ec68160005260026020526001600160a01b0360406000205416151590565b15613e7c5760005260036020526001600160a01b036040600020541690565b929190613ef28233613f3c565b1561078c5783613f068383613f0b97614622565b61499c565b15613f1257565b60046040517f6deaf836000000000000000000000000000000000000000000000000000000008152fd5b6001600160a01b0380613f4e84613e5c565b169281831692848414948515613f84575b50508315613f6e575b50505090565b613f7a91929350613ea6565b1614388080613f68565b60ff92955090613fb39160005260046020526040600020906001600160a01b0316600052602052604060002090565b5416923880613f5f565b9190916001600160a01b03811690811561414c57613ff18460005260026020526001600160a01b0360406000205416151590565b614122578360009281845260026020526140248360408620906001600160a01b03166001600160a01b0319825416179055565b837fddf252ad1be2c89b69c2b068fc378daa952ba7f163c4a11628f55a4df523b3ef8180a4614091826140626109da608f546001600160a01b031690565b60405163c44a8e6d60e01b81523060048201526024810197909752600060448801529591829081906064820190565b0381885afa908115614115575b83916140fb575b505193803b156140f7576040516330b157e560e21b81526004810195909552600060248601526001600160a01b039190911660448501529192918290606490829084905af18015613e3857613e2b5750565b8280fd5b61410f91503d8085833e6126d98183610def565b386140a5565b61411d6122ec565b61409e565b60046040517fbad7c30c000000000000000000000000000000000000000000000000000000008152fd5b60046040517f7208af1e000000000000000000000000000000000000000000000000000000008152fd5b906141c392916141916109da608f546001600160a01b031690565b60405163c44a8e6d60e01b81523060048201526024810193909352600060448401819052948590849081906064820190565b0381845afa928315614270575b8593614254575b508251813b15614250576040516330b157e560e21b815260048101919091526001600160a01b038316602482015260006044820152939461073294918290606490829084905af18015614243575b614230575b50614386565b806132ac61423d92610dbe565b3861422a565b61424b6122ec565b614225565b8580fd5b6142699193503d8087833e6126d98183610def565b91386141d7565b6142786122ec565b6141d0565b906142cb9392916142996109da608f546001600160a01b031690565b60405163c44a8e6d60e01b81523060048201526024810194909452600060448501819052958690859081906064820190565b0381845afa938415614379575b869461435d575b508351813b15614359576040516330b157e560e21b815260048101919091526001600160a01b03838116602483015284166044820152949561073295918290606490829084905af1801561434c575b614339575b506143f2565b806132ac61434692610dbe565b38614333565b6143546122ec565b61432e565b8680fd5b6143729194503d8088833e6126d98183610def565b92386142df565b6143816122ec565b6142d8565b6001600160a01b0380911691821561280f57610732926080825192015192600091838352608d6020526143bc8560408520615407565b50508252608b60205260408220838352602052604081818420541692808052608b60205281812085825260205220541690613c81565b916001600160a01b03809316918215613cb257610732936040608084519401519482841615614452575b6000908152608b602052818120858252602052613c57838383205416946001600160a01b0316600052608b602052604060002090565b84600052608d6020526144688683600020615407565b505061441c565b6107329061447c81613e5c565b8160006001600160a01b038316806144db575b61449883614868565b8282526002602052604082206001600160a01b031981541690557fddf252ad1be2c89b69c2b068fc378daa952ba7f163c4a11628f55a4df523b3ef8280a4614176565b61453a6101406144f66109da608f546001600160a01b031690565b60405163c44a8e6d60e01b81523060048201526024810187905260006044820152908590829060649082905afa908115614615575b85916145fc575b500151151590565b61457a575b6145596109da610a7f856000526008602052604060002090565b61448f5761457584613a2e856000526008602052604060002090565b61448f565b6145ba6145926109da6090546001600160a01b031690565b60055460405180926321d1336160e11b82528180610120968795600483019190602083019252565b03915afa80156145ef575b6145d1575b505061453f565b816145e792903d10610bd357610bc48183610def565b5038806145ca565b6145f76122ec565b6145c5565b61460f913d8091833e6126d98183610def565b38614532565b61461d6122ec565b61452b565b919061462d82613e5c565b6001600160a01b038085169491811685900361483e57821693841561481457806146b8575b61073294849161466183614868565b82600052600260205261468e856040600020906001600160a01b03166001600160a01b0319825416179055565b7fddf252ad1be2c89b69c2b068fc378daa952ba7f163c4a11628f55a4df523b3ef600080a461427d565b6147186101406146d36109da608f546001600160a01b031690565b60405163c44a8e6d60e01b8152306004820152602481018890526000604482018190529091829060649082905afa908115614807575b6000916145fc57500151151590565b614769575b61073294849161473d6109da610a7f856000526008602052604060002090565b1561474c575b91509450614652565b61476484613a2e856000526008602052604060002090565b614743565b6147ae60ff6101006147896145926109da6090546001600160a01b031690565b03915afa9182156147fa575b6000926147dd575b5050015160f41c1660018091161490565b1561471d5760046040517f18cdaf97000000000000000000000000000000000000000000000000000000008152fd5b6147f39250803d10610bd357610bc48183610def565b388061479d565b6148026122ec565b614795565b61480f6122ec565b614709565b60046040517f2c955427000000000000000000000000000000000000000000000000000000008152fd5b60046040517fa195bc53000000000000000000000000000000000000000000000000000000008152fd5b80600052600360205260406000206001600160a01b0319815416905560006001600160a01b0361489783613e5c565b167f8c5be1e5ebec7d5bd14f71427d1e84f3dd0314c0f7b2291e5b200ac8c7c3b9258280a4565b8160005260036020526148eb816040600020906001600160a01b03166001600160a01b0319825416179055565b6001600160a01b03806148fd84613e5c565b169116907f8c5be1e5ebec7d5bd14f71427d1e84f3dd0314c0f7b2291e5b200ac8c7c3b925600080a4565b9081602091031261000e5751610603816103b4565b909261060394936080936001600160a01b038092168452166020830152604082015281606082015201906105cd565b3d15614997573d9061497d82611596565b9161498b6040519384610def565b82523d6000602084013e565b606090565b92909190823b15614a80576149f09260209260006001600160a01b036040518097819682957f150b7a02000000000000000000000000000000000000000000000000000000009b8c8552336004860161493d565b0393165af160009181614a50575b50614a4257614a0b61496c565b80519081614a3d5760046040517f6deaf836000000000000000000000000000000000000000000000000000000008152fd5b602001fd5b6001600160e01b0319161490565b614a7291925060203d8111614a79575b614a6a8183610def565b810190614928565b90386149fe565b503d614a60565b50505050600190565b91929092805167ffffffffffffffff8111614bb3575b600091614ab582614ab085546110b7565b612b67565b60209081601f8411600114614b2157509282614af593614afa96936107329998968492614b16575b50506000198260011b9260031b1c1916179055612eb7565b600555565b6001600160a01b03166001600160a01b03196006541617600655565b015190503880614add565b600080529190601f1984167f290decd9548b62a8d60345a988386fc84ba6bc95484008f6362f93160ef3e5639386905b828210614b9b57505093614afa96936107329998969360019383614af59810614b82575b505050811b019055612eb7565b015160001960f88460031b161c19169055388080614b75565b80600186978294978701518155019601940190614b51565b614bbb610d62565b614a9f565b9160a08383031261000e5782359260209182820135936040830135614be4816103b4565b9360608401359360808101359067ffffffffffffffff821161000e57019180601f8401121561000e578235614c1881610e82565b93614c266040519586610def565b818552838086019260051b82010192831161000e578301905b828210614c4d575050505090565b838091614c5984611658565b815201910190614c3f565b9060915460c083013503614fc9576101e082016044614c838285612720565b90501180614f81575b614c9557509050565b614ca2614caa9184612720565b810190614bc0565b959350915050835115614f57576000908015614f50576001600160a01b03915016925b600093848095835192825b848110614d31575050505050614d019293506080614cf961018084016136b4565b920135615074565b614d0757565b60046040517f6d5e09a4000000000000000000000000000000000000000000000000000000008152fd5b614d50614d49614d4183896123a7565b5161ffff1690565b61ffff1690565b8303614e9b575b88614d84610a7f85613840614d6b8c6136b4565b6001600160a01b0316600052608b602052604060002090565b6001600160a01b03898186168015928b8b85158096614e90575b614db3575b5050505050505050600101614cd8565b91888b809897969593614dca9b9e9a9b8d9661253a565b83109283614e6a575b505050600014614e015750505050505050600191614df0916123f6565b935b90508838808981808b8b614da3565b91848792819594614e309b9792614e5d575b5050614e44575b505050600014614e3a5761394f915085936123f6565b6001600093614df2565b61394f91936123f6565b614e50614e55936136b4565b613af8565b8b8488614e1a565b8816141590503880614e13565b61ffff929350614e8691614e80614d41926123e0565b906123a7565b1614878f8e614dd3565b508287161515614d9e565b97509050614eaf614d49614d4189876123a7565b906080614f0d6000614ecc6109da608f546001600160a01b031690565b614ed9614d418d8b6123a7565b6040516364faa15960e01b815230600482015261ffff90911660248201526000604482015292839190829081906064820190565b03915afa908115614f43575b600091614f2a575b50015197614d57565b614f3d913d8091833e6126d98183610def565b38614f21565b614f4b6122ec565b614f19565b5092614ccd565b60046040517f3d04bd1f000000000000000000000000000000000000000000000000000000008152fd5b507fcad5371d000000000000000000000000000000000000000000000000000000006001600160e01b0319614fc2610c39614fbc8588612720565b90612782565b1614614c8c565b60046040517f79cf85c0000000000000000000000000000000000000000000000000000000008152fd5b919060408382031261000e57825167ffffffffffffffff811161000e5760209161501e918501612fac565b92015190565b929190606084019084526020906060828601528251809152816080860193019160005b82811061505c57505050506040600091930152565b835161ffff1685529381019392810192600101615047565b92919261508c6109da608f546001600160a01b031690565b9160409081519586947feaa19ab300000000000000000000000000000000000000000000000000000000865260009586918183816150ce888b60048401615024565b03925af1801561518f575b85978691615167575b50968051955b8681106150f85750505050505050565b80615105600192846123a7565b516151108186613fbd565b61ffff615120614d4184896123a7565b88518a81523360208201526001600160a01b0388169391909216917f598baf7bf150ca2f42be9e9f8f55e81d45f5715c3ff22bf46d697fabec7f31d690604090a4016150e8565b90506151869197503d8087833e61517e8183610def565b810190614ff3565b969096386150e2565b6151976122ec565b6150d9565b6001600160a01b036007541633036151b057565b606460405162461bcd60e51b815260206004820152602060248201527f4f776e61626c653a2063616c6c6572206973206e6f7420746865206f776e65726044820152fd5b600754906001600160a01b0380911691826001600160a01b0319821617600755167f8be0079c531659141344cd1fd0a4f28419497f9722a3daafe3b4186f6b6457e0600080a3565b90438110156153065761524e90615677565b90805491600063ffffffff8092165b8482106152a4575050508161527457506000919050565b6152996152a09161528c6001600160e01b039461253a565b9060005260206000200190565b5460201c90565b1690565b9091938083169080841860011c82018092116152f9575b8460005282866152d68460206000200163ffffffff90541690565b1611156152e75750935b919061525d565b9492506152f3906123e0565b916152e0565b6153016123c9565b6152bb565b606460405162461bcd60e51b815260206004820152602060248201527f436865636b706f696e74733a20626c6f636b206e6f7420796574206d696e65646044820152fd5b6001600160e01b0392918361535e8361542f565b169081018091116153fa575b61537343615677565b918482116153905784928361538993169161555d565b9316921690565b608460405162461bcd60e51b815260206004820152602760248201527f53616665436173743a2076616c756520646f65736e27742066697420696e203260448201527f32342062697473000000000000000000000000000000000000000000000000006064820152fd5b6154026123c9565b61536a565b6001600160e01b0392918361541b8361542f565b169081039081116153fa5761537343615677565b805460008161544057505050600090565b60209060001993838581011161545d575b81522001015460201c90565b6154656123c9565b615451565b906001600160e01b03602061073293805490680100000000000000008210156154e3575b600182018082558210156154d6575b60005281600020019263ffffffff81511663ffffffff1985541617845501511663ffffffff63ffffffff1983549260201b169116179055565b6154de612376565b61549d565b6154eb610d62565b61548e565b906040516154fd81610da2565b602081935463ffffffff81168352811c910152565b1561551957565b606460405162461bcd60e51b815260206004820152601760248201527f436865636b706f696e743a20696e76616c6964206b65790000000000000000006044820152fd5b9092919283825480151560001461564c579260209291846155986155936155866129d19861253a565b8560005260206000200190565b6154f0565b936155a7855163ffffffff1690565b6155be63ffffffff91828416928391161115615512565b6155d86155cf875163ffffffff1690565b63ffffffff1690565b0361561657506156089261528c6155ee9261253a565b9063ffffffff63ffffffff1983549260201b169116179055565b01516001600160e01b031690565b91505061564791615634615628610e33565b63ffffffff9093168352565b6001600160e01b0388168286015261546a565b615608565b50506156719161565d615628610e33565b6001600160e01b038516602083015261546a565b60009190565b63ffffffff90818111615688571690565b608460405162461bcd60e51b815260206004820152602660248201527f53616665436173743a2076616c756520646f65736e27742066697420696e203360448201527f32206269747300000000000000000000000000000000000000000000000000006064820152fd5b91906000198184098184029182808310920391808303921461578a57633b9aca009081831015615753577f88f2cfb83100cb4e69e7c79c58b316e597157d372fb9787e8e47ce423a2e9c6d94950990828211900360f71b910360091c170290565b60448383604051917f773cc18c00000000000000000000000000000000000000000000000000000000835260048301526024820152fd5b5050633b9aca009004915056fea2646970667358221220469adb3999cd9d251c12f6029ae1c40c47b2ad60743707032c85b000a26f38d764736f6c63430008110033",
    "linkReferences": {}
  },
  "methodIdentifiers": {
    "TOTAL_REDEMPTION_WEIGHT()": "640abacd",
    "approve(address,uint256)": "095ea7b3",
    "balanceOf(address)": "70a08231",
    "baseURI()": "6c0360eb",
    "codeOrigin()": "1d153ca4",
    "contractURI()": "e8a3d485",
    "didPay((address,uint256,uint256,(address,uint256,uint256,uint256),(address,uint256,uint256,uint256),uint256,address,bool,string,bytes))": "da9ee8b7",
    "didRedeem((address,uint256,uint256,uint256,(address,uint256,uint256,uint256),(address,uint256,uint256,uint256),address,string,bytes))": "2b13c58f",
    "directory()": "c41c2f24",
    "firstOwnerOf(uint256)": "54c6d1f5",
    "fundingCycleStore()": "557e7155",
    "getApproved(uint256)": "081812fc",
    "getPastTierTotalVotes(uint256,uint256)": "d31cc52c",
    "getPastTierVotes(address,uint256,uint256)": "d40e7146",
    "getTierDelegate(address,uint256)": "82732b6d",
    "getTierTotalVotes(uint256)": "94c5c5ca",
    "getTierVotes(address,uint256)": "ca323efe",
    "initialize(uint256,address,string,string,address,string,address,string,((uint104,uint32,uint32,uint16,address,bytes32,uint24,bool,bool,bool,bool)[],uint48,uint48,address),address,(bool,bool,bool,bool))": "a11606a8",
    "isApprovedForAll(address,address)": "e985e9c5",
    "mintReservesFor((uint256,uint256)[])": "2a596e53",
    "mintReservesFor(uint256,uint256)": "aa4fb15b",
    "name()": "06fdde03",
    "owner()": "8da5cb5b",
    "ownerOf(uint256)": "6352211e",
    "payParams((address,address,(address,uint256,uint256,uint256),uint256,uint256,address,uint256,uint256,string,bytes))": "d46cf171",
    "pricingCurrency()": "64640c1e",
    "projectId()": "3fafa127",
    "redeemParams((address,address,uint256,uint256,uint256,uint256,uint256,(address,uint256,uint256,uint256),bool,uint256,string,bytes))": "a51cfd18",
    "redemptionWeightIsSet()": "a8c15f4a",
    "redemptionWeightOf(uint256)": "4f228e11",
    "redemptionWeightOf(uint256[],(address,address,uint256,uint256,uint256,uint256,uint256,(address,uint256,uint256,uint256),bool,uint256,string,bytes))": "7ba62bf9",
    "renounceOwnership()": "715018a6",
    "safeTransferFrom(address,address,uint256)": "42842e0e",
    "safeTransferFrom(address,address,uint256,bytes)": "b88d4fde",
    "setApprovalForAll(address,bool)": "a22cb465",
    "setTierDelegate(address,uint256)": "ab951e39",
    "setTierDelegates((address,uint256)[])": "c74b13d9",
    "setTierRedemptionWeights((uint256,uint256)[])": "2f441500",
    "store()": "975057e7",
    "supportsInterface(bytes4)": "01ffc9a7",
    "symbol()": "95d89b41",
    "tierRedemptionWeights()": "9df45468",
    "tokenURI(uint256)": "c87b56dd",
    "totalRedemptionWeight((address,address,uint256,uint256,uint256,uint256,uint256,(address,uint256,uint256,uint256),bool,uint256,string,bytes))": "9494bf72",
    "transferFrom(address,address,uint256)": "23b872dd",
    "transferOwnership(address)": "f2fde38b"
  },
  "id": 0
}