{
  "abi": [
    {
      "inputs": [],
      "stateMutability": "nonpayable",
      "type": "constructor"
    },
    {
      "inputs": [],
      "name": "ALEADY_MINTED",
      "type": "error"
    },
    {
      "inputs": [],
      "name": "APPROVAL_TO_CURRENT_OWNER",
      "type": "error"
    },
    {
      "inputs": [],
      "name": "APPROVE_TO_CALLER",
      "type": "error"
    },
    {
      "inputs": [],
      "name": "BLOCK_NOT_YET_MINED",
      "type": "error"
    },
    {
      "inputs": [],
      "name": "CALLER_NOT_OWNER_OR_APPROVED",
      "type": "error"
    },
    {
      "inputs": [],
      "name": "DELEGATE_ADDRESS_ZERO",
      "type": "error"
    },
    {
      "inputs": [],
      "name": "GAME_ISNT_OVER_YET",
      "type": "error"
    },
    {
      "inputs": [],
      "name": "INCORRECT_OWNER",
      "type": "error"
    },
    {
      "inputs": [],
      "name": "INVALID_PAYMENT_EVENT",
      "type": "error"
    },
    {
      "inputs": [],
      "name": "INVALID_REDEMPTION_EVENT",
      "type": "error"
    },
    {
      "inputs": [],
      "name": "INVALID_REDEMPTION_METADATA",
      "type": "error"
    },
    {
      "inputs": [],
      "name": "INVALID_REDEMPTION_WEIGHTS",
      "type": "error"
    },
    {
      "inputs": [],
      "name": "INVALID_TIER_ID",
      "type": "error"
    },
    {
      "inputs": [],
      "name": "INVALID_TOKEN_ID",
      "type": "error"
    },
    {
      "inputs": [],
      "name": "MINT_TO_ZERO",
      "type": "error"
    },
    {
      "inputs": [],
      "name": "NOTHING_TO_CLAIM",
      "type": "error"
    },
    {
      "inputs": [],
      "name": "NOTHING_TO_MINT",
      "type": "error"
    },
    {
      "inputs": [],
      "name": "NOT_AVAILABLE",
      "type": "error"
    },
    {
      "inputs": [],
      "name": "OVERSPENDING",
      "type": "error"
    },
    {
      "inputs": [
        {
          "internalType": "uint256",
          "name": "prod1",
          "type": "uint256"
        },
        {
          "internalType": "uint256",
          "name": "denominator",
          "type": "uint256"
        }
      ],
      "name": "PRBMath__MulDivOverflow",
      "type": "error"
    },
    {
      "inputs": [],
      "name": "PRICING_RESOLVER_CHANGES_PAUSED",
      "type": "error"
    },
    {
      "inputs": [],
      "name": "REDEMPTION_WEIGHTS_ALREADY_SET",
      "type": "error"
    },
    {
      "inputs": [],
      "name": "RESERVED_TOKEN_MINTING_PAUSED",
      "type": "error"
    },
    {
      "inputs": [],
      "name": "TRANSFERS_PAUSED",
      "type": "error"
    },
    {
      "inputs": [],
      "name": "TRANSFER_TO_NON_IMPLEMENTER",
      "type": "error"
    },
    {
      "inputs": [],
      "name": "TRANSFER_TO_ZERO_ADDRESS",
      "type": "error"
    },
    {
      "inputs": [],
      "name": "UNAUTHORIZED",
      "type": "error"
    },
    {
      "inputs": [
        {
          "internalType": "uint256",
          "name": "_tokenId",
          "type": "uint256"
        }
      ],
      "name": "UNAUTHORIZED_TOKEN",
      "type": "error"
    },
    {
      "inputs": [],
      "name": "UNEXPECTED_TOKEN_REDEEMED",
      "type": "error"
    },
    {
      "inputs": [],
      "name": "WRONG_CURRENCY",
      "type": "error"
    },
    {
      "anonymous": false,
      "inputs": [
        {
          "indexed": true,
          "internalType": "address",
          "name": "owner",
          "type": "address"
        },
        {
          "indexed": true,
          "internalType": "address",
          "name": "approved",
          "type": "address"
        },
        {
          "indexed": true,
          "internalType": "uint256",
          "name": "tokenId",
          "type": "uint256"
        }
      ],
      "name": "Approval",
      "type": "event"
    },
    {
      "anonymous": false,
      "inputs": [
        {
          "indexed": true,
          "internalType": "address",
          "name": "owner",
          "type": "address"
        },
        {
          "indexed": true,
          "internalType": "address",
          "name": "operator",
          "type": "address"
        },
        {
          "indexed": false,
          "internalType": "bool",
          "name": "approved",
          "type": "bool"
        }
      ],
      "name": "ApprovalForAll",
      "type": "event"
    },
    {
      "anonymous": false,
      "inputs": [
        {
          "indexed": true,
          "internalType": "address",
          "name": "delegator",
          "type": "address"
        },
        {
          "indexed": true,
          "internalType": "address",
          "name": "fromDelegate",
          "type": "address"
        },
        {
          "indexed": true,
          "internalType": "address",
          "name": "toDelegate",
          "type": "address"
        }
      ],
      "name": "DelegateChanged",
      "type": "event"
    },
    {
      "anonymous": false,
      "inputs": [
        {
          "indexed": true,
          "internalType": "uint256",
          "name": "tokenId",
          "type": "uint256"
        },
        {
          "indexed": true,
          "internalType": "uint256",
          "name": "tierId",
          "type": "uint256"
        },
        {
          "indexed": true,
          "internalType": "address",
          "name": "beneficiary",
          "type": "address"
        },
        {
          "indexed": false,
          "internalType": "uint256",
          "name": "totalAmountContributed",
          "type": "uint256"
        },
        {
          "indexed": false,
          "internalType": "address",
          "name": "caller",
          "type": "address"
        }
      ],
      "name": "Mint",
      "type": "event"
    },
    {
      "anonymous": false,
      "inputs": [
        {
          "indexed": true,
          "internalType": "uint256",
          "name": "tokenId",
          "type": "uint256"
        },
        {
          "indexed": true,
          "internalType": "uint256",
          "name": "tierId",
          "type": "uint256"
        },
        {
          "indexed": true,
          "internalType": "address",
          "name": "beneficiary",
          "type": "address"
        },
        {
          "indexed": false,
          "internalType": "address",
          "name": "caller",
          "type": "address"
        }
      ],
      "name": "MintReservedToken",
      "type": "event"
    },
    {
      "anonymous": false,
      "inputs": [
        {
          "indexed": true,
          "internalType": "address",
          "name": "previousOwner",
          "type": "address"
        },
        {
          "indexed": true,
          "internalType": "address",
          "name": "newOwner",
          "type": "address"
        }
      ],
      "name": "OwnershipTransferred",
      "type": "event"
    },
    {
      "anonymous": false,
      "inputs": [
        {
          "indexed": true,
          "internalType": "address",
          "name": "delegate",
          "type": "address"
        },
        {
          "indexed": true,
          "internalType": "uint256",
          "name": "tierId",
          "type": "uint256"
        },
        {
          "indexed": false,
          "internalType": "uint256",
          "name": "previousBalance",
          "type": "uint256"
        },
        {
          "indexed": false,
          "internalType": "uint256",
          "name": "newBalance",
          "type": "uint256"
        },
        {
          "indexed": false,
          "internalType": "address",
          "name": "caller",
          "type": "address"
        }
      ],
      "name": "TierDelegateVotesChanged",
      "type": "event"
    },
    {
      "anonymous": false,
      "inputs": [
        {
          "indexed": true,
          "internalType": "address",
          "name": "from",
          "type": "address"
        },
        {
          "indexed": true,
          "internalType": "address",
          "name": "to",
          "type": "address"
        },
        {
          "indexed": true,
          "internalType": "uint256",
          "name": "tokenId",
          "type": "uint256"
        }
      ],
      "name": "Transfer",
      "type": "event"
    },
    {
      "inputs": [],
      "name": "TOTAL_REDEMPTION_WEIGHT",
      "outputs": [
        {
          "internalType": "uint256",
          "name": "",
          "type": "uint256"
        }
      ],
      "stateMutability": "view",
      "type": "function"
    },
    {
      "inputs": [
        {
          "internalType": "address",
          "name": "to",
          "type": "address"
        },
        {
          "internalType": "uint256",
          "name": "tokenId",
          "type": "uint256"
        }
      ],
      "name": "approve",
      "outputs": [],
      "stateMutability": "nonpayable",
      "type": "function"
    },
    {
      "inputs": [
        {
          "internalType": "address",
          "name": "_owner",
          "type": "address"
        }
      ],
      "name": "balanceOf",
      "outputs": [
        {
          "internalType": "uint256",
          "name": "balance",
          "type": "uint256"
        }
      ],
      "stateMutability": "view",
      "type": "function"
    },
    {
      "inputs": [],
      "name": "baseURI",
      "outputs": [
        {
          "internalType": "string",
          "name": "",
          "type": "string"
        }
      ],
      "stateMutability": "view",
      "type": "function"
    },
    {
      "inputs": [],
      "name": "codeOrigin",
      "outputs": [
        {
          "internalType": "address",
          "name": "",
          "type": "address"
        }
      ],
      "stateMutability": "view",
      "type": "function"
    },
    {
      "inputs": [],
      "name": "contractURI",
      "outputs": [
        {
          "internalType": "string",
          "name": "",
          "type": "string"
        }
      ],
      "stateMutability": "view",
      "type": "function"
    },
    {
      "inputs": [
        {
          "components": [
            {
              "internalType": "address",
              "name": "payer",
              "type": "address"
            },
            {
              "internalType": "uint256",
              "name": "projectId",
              "type": "uint256"
            },
            {
              "internalType": "uint256",
              "name": "currentFundingCycleConfiguration",
              "type": "uint256"
            },
            {
              "components": [
                {
                  "internalType": "address",
                  "name": "token",
                  "type": "address"
                },
                {
                  "internalType": "uint256",
                  "name": "value",
                  "type": "uint256"
                },
                {
                  "internalType": "uint256",
                  "name": "decimals",
                  "type": "uint256"
                },
                {
                  "internalType": "uint256",
                  "name": "currency",
                  "type": "uint256"
                }
              ],
              "internalType": "struct JBTokenAmount",
              "name": "amount",
              "type": "tuple"
            },
            {
              "components": [
                {
                  "internalType": "address",
                  "name": "token",
                  "type": "address"
                },
                {
                  "internalType": "uint256",
                  "name": "value",
                  "type": "uint256"
                },
                {
                  "internalType": "uint256",
                  "name": "decimals",
                  "type": "uint256"
                },
                {
                  "internalType": "uint256",
                  "name": "currency",
                  "type": "uint256"
                }
              ],
              "internalType": "struct JBTokenAmount",
              "name": "forwardedAmount",
              "type": "tuple"
            },
            {
              "internalType": "uint256",
              "name": "projectTokenCount",
              "type": "uint256"
            },
            {
              "internalType": "address",
              "name": "beneficiary",
              "type": "address"
            },
            {
              "internalType": "bool",
              "name": "preferClaimedTokens",
              "type": "bool"
            },
            {
              "internalType": "string",
              "name": "memo",
              "type": "string"
            },
            {
              "internalType": "bytes",
              "name": "metadata",
              "type": "bytes"
            }
          ],
          "internalType": "struct JBDidPayData",
          "name": "_data",
          "type": "tuple"
        }
      ],
      "name": "didPay",
      "outputs": [],
      "stateMutability": "payable",
      "type": "function"
    },
    {
      "inputs": [
        {
          "components": [
            {
              "internalType": "address",
              "name": "holder",
              "type": "address"
            },
            {
              "internalType": "uint256",
              "name": "projectId",
              "type": "uint256"
            },
            {
              "internalType": "uint256",
              "name": "currentFundingCycleConfiguration",
              "type": "uint256"
            },
            {
              "internalType": "uint256",
              "name": "projectTokenCount",
              "type": "uint256"
            },
            {
              "components": [
                {
                  "internalType": "address",
                  "name": "token",
                  "type": "address"
                },
                {
                  "internalType": "uint256",
                  "name": "value",
                  "type": "uint256"
                },
                {
                  "internalType": "uint256",
                  "name": "decimals",
                  "type": "uint256"
                },
                {
                  "internalType": "uint256",
                  "name": "currency",
                  "type": "uint256"
                }
              ],
              "internalType": "struct JBTokenAmount",
              "name": "reclaimedAmount",
              "type": "tuple"
            },
            {
              "components": [
                {
                  "internalType": "address",
                  "name": "token",
                  "type": "address"
                },
                {
                  "internalType": "uint256",
                  "name": "value",
                  "type": "uint256"
                },
                {
                  "internalType": "uint256",
                  "name": "decimals",
                  "type": "uint256"
                },
                {
                  "internalType": "uint256",
                  "name": "currency",
                  "type": "uint256"
                }
              ],
              "internalType": "struct JBTokenAmount",
              "name": "forwardedAmount",
              "type": "tuple"
            },
            {
              "internalType": "address payable",
              "name": "beneficiary",
              "type": "address"
            },
            {
              "internalType": "string",
              "name": "memo",
              "type": "string"
            },
            {
              "internalType": "bytes",
              "name": "metadata",
              "type": "bytes"
            }
          ],
          "internalType": "struct JBDidRedeemData",
          "name": "_data",
          "type": "tuple"
        }
      ],
      "name": "didRedeem",
      "outputs": [],
      "stateMutability": "payable",
      "type": "function"
    },
    {
      "inputs": [],
      "name": "directory",
      "outputs": [
        {
          "internalType": "contract IJBDirectory",
          "name": "",
          "type": "address"
        }
      ],
      "stateMutability": "view",
      "type": "function"
    },
    {
      "inputs": [
        {
          "internalType": "uint256",
          "name": "_tokenId",
          "type": "uint256"
        }
      ],
      "name": "firstOwnerOf",
      "outputs": [
        {
          "internalType": "address",
          "name": "",
          "type": "address"
        }
      ],
      "stateMutability": "view",
      "type": "function"
    },
    {
      "inputs": [],
      "name": "fundingCycleStore",
      "outputs": [
        {
          "internalType": "contract IJBFundingCycleStore",
          "name": "",
          "type": "address"
        }
      ],
      "stateMutability": "view",
      "type": "function"
    },
    {
      "inputs": [
        {
          "internalType": "uint256",
          "name": "tokenId",
          "type": "uint256"
        }
      ],
      "name": "getApproved",
      "outputs": [
        {
          "internalType": "address",
          "name": "",
          "type": "address"
        }
      ],
      "stateMutability": "view",
      "type": "function"
    },
    {
      "inputs": [
        {
          "internalType": "uint256",
          "name": "_tier",
          "type": "uint256"
        },
        {
          "internalType": "uint256",
          "name": "_blockNumber",
          "type": "uint256"
        }
      ],
      "name": "getPastTierTotalVotes",
      "outputs": [
        {
          "internalType": "uint256",
          "name": "",
          "type": "uint256"
        }
      ],
      "stateMutability": "view",
      "type": "function"
    },
    {
      "inputs": [
        {
          "internalType": "address",
          "name": "_account",
          "type": "address"
        },
        {
          "internalType": "uint256",
          "name": "_tier",
          "type": "uint256"
        },
        {
          "internalType": "uint256",
          "name": "_blockNumber",
          "type": "uint256"
        }
      ],
      "name": "getPastTierVotes",
      "outputs": [
        {
          "internalType": "uint256",
          "name": "",
          "type": "uint256"
        }
      ],
      "stateMutability": "view",
      "type": "function"
    },
    {
      "inputs": [
        {
          "internalType": "address",
          "name": "_account",
          "type": "address"
        },
        {
          "internalType": "uint256",
          "name": "_tier",
          "type": "uint256"
        }
      ],
      "name": "getTierDelegate",
      "outputs": [
        {
          "internalType": "address",
          "name": "",
          "type": "address"
        }
      ],
      "stateMutability": "view",
      "type": "function"
    },
    {
      "inputs": [
        {
          "internalType": "uint256",
          "name": "_tier",
          "type": "uint256"
        }
      ],
      "name": "getTierTotalVotes",
      "outputs": [
        {
          "internalType": "uint256",
          "name": "",
          "type": "uint256"
        }
      ],
      "stateMutability": "view",
      "type": "function"
    },
    {
      "inputs": [
        {
          "internalType": "address",
          "name": "_account",
          "type": "address"
        },
        {
          "internalType": "uint256",
          "name": "_tier",
          "type": "uint256"
        }
      ],
      "name": "getTierVotes",
      "outputs": [
        {
          "internalType": "uint256",
          "name": "",
          "type": "uint256"
        }
      ],
      "stateMutability": "view",
      "type": "function"
    },
    {
      "inputs": [
        {
          "internalType": "uint256",
          "name": "_gameId",
          "type": "uint256"
        },
        {
          "internalType": "contract IJBDirectory",
          "name": "_directory",
          "type": "address"
        },
        {
          "internalType": "string",
          "name": "_name",
          "type": "string"
        },
        {
          "internalType": "string",
          "name": "_symbol",
          "type": "string"
        },
        {
          "internalType": "contract IJBFundingCycleStore",
          "name": "_fundingCycleStore",
          "type": "address"
        },
        {
          "internalType": "string",
          "name": "_baseUri",
          "type": "string"
        },
        {
          "internalType": "contract IJBTokenUriResolver",
          "name": "_tokenUriResolver",
          "type": "address"
        },
        {
          "internalType": "string",
          "name": "_contractUri",
          "type": "string"
        },
        {
          "components": [
            {
              "internalType": "uint104",
              "name": "price",
              "type": "uint104"
            },
            {
              "internalType": "uint32",
              "name": "initialQuantity",
              "type": "uint32"
            },
            {
              "internalType": "uint32",
              "name": "votingUnits",
              "type": "uint32"
            },
            {
              "internalType": "uint16",
              "name": "reservedRate",
              "type": "uint16"
            },
            {
              "internalType": "address",
              "name": "reservedTokenBeneficiary",
              "type": "address"
            },
            {
              "internalType": "bytes32",
              "name": "encodedIPFSUri",
              "type": "bytes32"
            },
            {
              "internalType": "uint24",
              "name": "category",
              "type": "uint24"
            },
            {
              "internalType": "bool",
              "name": "allowManualMint",
              "type": "bool"
            },
            {
              "internalType": "bool",
              "name": "shouldUseReservedTokenBeneficiaryAsDefault",
              "type": "bool"
            },
            {
              "internalType": "bool",
              "name": "transfersPausable",
              "type": "bool"
            },
            {
              "internalType": "bool",
              "name": "useVotingUnits",
              "type": "bool"
            }
          ],
          "internalType": "struct JB721TierParams[]",
          "name": "_tiers",
          "type": "tuple[]"
        },
        {
          "internalType": "uint48",
          "name": "_currency",
          "type": "uint48"
        },
        {
          "internalType": "contract IJBTiered721DelegateStore",
          "name": "_store",
          "type": "address"
        },
        {
          "components": [
            {
              "internalType": "bool",
              "name": "lockReservedTokenChanges",
              "type": "bool"
            },
            {
              "internalType": "bool",
              "name": "lockVotingUnitChanges",
              "type": "bool"
            },
            {
              "internalType": "bool",
              "name": "lockManualMintingChanges",
              "type": "bool"
            },
            {
              "internalType": "bool",
              "name": "preventOverspending",
              "type": "bool"
            }
          ],
          "internalType": "struct JBTiered721Flags",
          "name": "_flags",
          "type": "tuple"
        }
      ],
      "name": "initialize",
      "outputs": [],
      "stateMutability": "nonpayable",
      "type": "function"
    },
    {
      "inputs": [
        {
          "internalType": "address",
          "name": "owner",
          "type": "address"
        },
        {
          "internalType": "address",
          "name": "operator",
          "type": "address"
        }
      ],
      "name": "isApprovedForAll",
      "outputs": [
        {
          "internalType": "bool",
          "name": "",
          "type": "bool"
        }
      ],
      "stateMutability": "view",
      "type": "function"
    },
    {
      "inputs": [
        {
          "components": [
            {
              "internalType": "uint256",
              "name": "tierId",
              "type": "uint256"
            },
            {
              "internalType": "uint256",
              "name": "count",
              "type": "uint256"
            }
          ],
          "internalType": "struct JBTiered721MintReservesForTiersData[]",
          "name": "_mintReservesForTiersData",
          "type": "tuple[]"
        }
      ],
      "name": "mintReservesFor",
      "outputs": [],
      "stateMutability": "nonpayable",
      "type": "function"
    },
    {
      "inputs": [
        {
          "internalType": "uint256",
          "name": "_tierId",
          "type": "uint256"
        },
        {
          "internalType": "uint256",
          "name": "_count",
          "type": "uint256"
        }
      ],
      "name": "mintReservesFor",
      "outputs": [],
      "stateMutability": "nonpayable",
      "type": "function"
    },
    {
      "inputs": [],
      "name": "name",
      "outputs": [
        {
          "internalType": "string",
          "name": "",
          "type": "string"
        }
      ],
      "stateMutability": "view",
      "type": "function"
    },
    {
      "inputs": [],
      "name": "owner",
      "outputs": [
        {
          "internalType": "address",
          "name": "",
          "type": "address"
        }
      ],
      "stateMutability": "view",
      "type": "function"
    },
    {
      "inputs": [
        {
          "internalType": "uint256",
          "name": "tokenId",
          "type": "uint256"
        }
      ],
      "name": "ownerOf",
      "outputs": [
        {
          "internalType": "address",
          "name": "",
          "type": "address"
        }
      ],
      "stateMutability": "view",
      "type": "function"
    },
    {
      "inputs": [
        {
          "components": [
            {
              "internalType": "contract IJBPaymentTerminal",
              "name": "terminal",
              "type": "address"
            },
            {
              "internalType": "address",
              "name": "payer",
              "type": "address"
            },
            {
              "components": [
                {
                  "internalType": "address",
                  "name": "token",
                  "type": "address"
                },
                {
                  "internalType": "uint256",
                  "name": "value",
                  "type": "uint256"
                },
                {
                  "internalType": "uint256",
                  "name": "decimals",
                  "type": "uint256"
                },
                {
                  "internalType": "uint256",
                  "name": "currency",
                  "type": "uint256"
                }
              ],
              "internalType": "struct JBTokenAmount",
              "name": "amount",
              "type": "tuple"
            },
            {
              "internalType": "uint256",
              "name": "projectId",
              "type": "uint256"
            },
            {
              "internalType": "uint256",
              "name": "currentFundingCycleConfiguration",
              "type": "uint256"
            },
            {
              "internalType": "address",
              "name": "beneficiary",
              "type": "address"
            },
            {
              "internalType": "uint256",
              "name": "weight",
              "type": "uint256"
            },
            {
              "internalType": "uint256",
              "name": "reservedRate",
              "type": "uint256"
            },
            {
              "internalType": "string",
              "name": "memo",
              "type": "string"
            },
            {
              "internalType": "bytes",
              "name": "metadata",
              "type": "bytes"
            }
          ],
          "internalType": "struct JBPayParamsData",
          "name": "_data",
          "type": "tuple"
        }
      ],
      "name": "payParams",
      "outputs": [
        {
          "internalType": "uint256",
          "name": "weight",
          "type": "uint256"
        },
        {
          "internalType": "string",
          "name": "memo",
          "type": "string"
        },
        {
          "components": [
            {
              "internalType": "contract IJBPayDelegate",
              "name": "delegate",
              "type": "address"
            },
            {
              "internalType": "uint256",
              "name": "amount",
              "type": "uint256"
            }
          ],
          "internalType": "struct JBPayDelegateAllocation[]",
          "name": "delegateAllocations",
          "type": "tuple[]"
        }
      ],
      "stateMutability": "view",
      "type": "function"
    },
    {
      "inputs": [],
      "name": "pricingCurrency",
      "outputs": [
        {
          "internalType": "uint256",
          "name": "",
          "type": "uint256"
        }
      ],
      "stateMutability": "view",
      "type": "function"
    },
    {
      "inputs": [],
      "name": "projectId",
      "outputs": [
        {
          "internalType": "uint256",
          "name": "",
          "type": "uint256"
        }
      ],
      "stateMutability": "view",
      "type": "function"
    },
    {
      "inputs": [
        {
          "components": [
            {
              "internalType": "contract IJBPaymentTerminal",
              "name": "terminal",
              "type": "address"
            },
            {
              "internalType": "address",
              "name": "holder",
              "type": "address"
            },
            {
              "internalType": "uint256",
              "name": "projectId",
              "type": "uint256"
            },
            {
              "internalType": "uint256",
              "name": "currentFundingCycleConfiguration",
              "type": "uint256"
            },
            {
              "internalType": "uint256",
              "name": "tokenCount",
              "type": "uint256"
            },
            {
              "internalType": "uint256",
              "name": "totalSupply",
              "type": "uint256"
            },
            {
              "internalType": "uint256",
              "name": "overflow",
              "type": "uint256"
            },
            {
              "components": [
                {
                  "internalType": "address",
                  "name": "token",
                  "type": "address"
                },
                {
                  "internalType": "uint256",
                  "name": "value",
                  "type": "uint256"
                },
                {
                  "internalType": "uint256",
                  "name": "decimals",
                  "type": "uint256"
                },
                {
                  "internalType": "uint256",
                  "name": "currency",
                  "type": "uint256"
                }
              ],
              "internalType": "struct JBTokenAmount",
              "name": "reclaimAmount",
              "type": "tuple"
            },
            {
              "internalType": "bool",
              "name": "useTotalOverflow",
              "type": "bool"
            },
            {
              "internalType": "uint256",
              "name": "redemptionRate",
              "type": "uint256"
            },
            {
              "internalType": "string",
              "name": "memo",
              "type": "string"
            },
            {
              "internalType": "bytes",
              "name": "metadata",
              "type": "bytes"
            }
          ],
          "internalType": "struct JBRedeemParamsData",
          "name": "_data",
          "type": "tuple"
        }
      ],
      "name": "redeemParams",
      "outputs": [
        {
          "internalType": "uint256",
          "name": "reclaimAmount",
          "type": "uint256"
        },
        {
          "internalType": "string",
          "name": "memo",
          "type": "string"
        },
        {
          "components": [
            {
              "internalType": "contract IJBRedemptionDelegate",
              "name": "delegate",
              "type": "address"
            },
            {
              "internalType": "uint256",
              "name": "amount",
              "type": "uint256"
            }
          ],
          "internalType": "struct JBRedemptionDelegateAllocation[]",
          "name": "delegateAllocations",
          "type": "tuple[]"
        }
      ],
      "stateMutability": "view",
      "type": "function"
    },
    {
      "inputs": [],
      "name": "redemptionWeightIsSet",
      "outputs": [
        {
          "internalType": "bool",
          "name": "",
          "type": "bool"
        }
      ],
      "stateMutability": "view",
      "type": "function"
    },
    {
      "inputs": [
        {
          "internalType": "uint256",
          "name": "_tokenId",
          "type": "uint256"
        }
      ],
      "name": "redemptionWeightOf",
      "outputs": [
        {
          "internalType": "uint256",
          "name": "",
          "type": "uint256"
        }
      ],
      "stateMutability": "view",
      "type": "function"
    },
    {
      "inputs": [
        {
          "internalType": "uint256[]",
          "name": "_tokenIds",
          "type": "uint256[]"
        },
        {
          "components": [
            {
              "internalType": "contract IJBPaymentTerminal",
              "name": "terminal",
              "type": "address"
            },
            {
              "internalType": "address",
              "name": "holder",
              "type": "address"
            },
            {
              "internalType": "uint256",
              "name": "projectId",
              "type": "uint256"
            },
            {
              "internalType": "uint256",
              "name": "currentFundingCycleConfiguration",
              "type": "uint256"
            },
            {
              "internalType": "uint256",
              "name": "tokenCount",
              "type": "uint256"
            },
            {
              "internalType": "uint256",
              "name": "totalSupply",
              "type": "uint256"
            },
            {
              "internalType": "uint256",
              "name": "overflow",
              "type": "uint256"
            },
            {
              "components": [
                {
                  "internalType": "address",
                  "name": "token",
                  "type": "address"
                },
                {
                  "internalType": "uint256",
                  "name": "value",
                  "type": "uint256"
                },
                {
                  "internalType": "uint256",
                  "name": "decimals",
                  "type": "uint256"
                },
                {
                  "internalType": "uint256",
                  "name": "currency",
                  "type": "uint256"
                }
              ],
              "internalType": "struct JBTokenAmount",
              "name": "reclaimAmount",
              "type": "tuple"
            },
            {
              "internalType": "bool",
              "name": "useTotalOverflow",
              "type": "bool"
            },
            {
              "internalType": "uint256",
              "name": "redemptionRate",
              "type": "uint256"
            },
            {
              "internalType": "string",
              "name": "memo",
              "type": "string"
            },
            {
              "internalType": "bytes",
              "name": "metadata",
              "type": "bytes"
            }
          ],
          "internalType": "struct JBRedeemParamsData",
          "name": "",
          "type": "tuple"
        }
      ],
      "name": "redemptionWeightOf",
      "outputs": [
        {
          "internalType": "uint256",
          "name": "cumulativeWeight",
          "type": "uint256"
        }
      ],
      "stateMutability": "view",
      "type": "function"
    },
    {
      "inputs": [],
      "name": "renounceOwnership",
      "outputs": [],
      "stateMutability": "nonpayable",
      "type": "function"
    },
    {
      "inputs": [
        {
          "internalType": "address",
          "name": "from",
          "type": "address"
        },
        {
          "internalType": "address",
          "name": "to",
          "type": "address"
        },
        {
          "internalType": "uint256",
          "name": "tokenId",
          "type": "uint256"
        }
      ],
      "name": "safeTransferFrom",
      "outputs": [],
      "stateMutability": "nonpayable",
      "type": "function"
    },
    {
      "inputs": [
        {
          "internalType": "address",
          "name": "from",
          "type": "address"
        },
        {
          "internalType": "address",
          "name": "to",
          "type": "address"
        },
        {
          "internalType": "uint256",
          "name": "tokenId",
          "type": "uint256"
        },
        {
          "internalType": "bytes",
          "name": "data",
          "type": "bytes"
        }
      ],
      "name": "safeTransferFrom",
      "outputs": [],
      "stateMutability": "nonpayable",
      "type": "function"
    },
    {
      "inputs": [
        {
          "internalType": "address",
          "name": "operator",
          "type": "address"
        },
        {
          "internalType": "bool",
          "name": "approved",
          "type": "bool"
        }
      ],
      "name": "setApprovalForAll",
      "outputs": [],
      "stateMutability": "nonpayable",
      "type": "function"
    },
    {
      "inputs": [
        {
          "internalType": "address",
          "name": "_delegatee",
          "type": "address"
        },
        {
          "internalType": "uint256",
          "name": "_tierId",
          "type": "uint256"
        }
      ],
      "name": "setTierDelegate",
      "outputs": [],
      "stateMutability": "nonpayable",
      "type": "function"
    },
    {
      "inputs": [
        {
          "components": [
            {
              "internalType": "address",
              "name": "delegatee",
              "type": "address"
            },
            {
              "internalType": "uint256",
              "name": "tierId",
              "type": "uint256"
            }
          ],
          "internalType": "struct JBTiered721SetTierDelegatesData[]",
          "name": "_setTierDelegatesData",
          "type": "tuple[]"
        }
      ],
      "name": "setTierDelegates",
      "outputs": [],
      "stateMutability": "nonpayable",
      "type": "function"
    },
    {
      "inputs": [
        {
          "components": [
            {
              "internalType": "uint256",
              "name": "id",
              "type": "uint256"
            },
            {
              "internalType": "uint256",
              "name": "redemptionWeight",
              "type": "uint256"
            }
          ],
          "internalType": "struct DefifaTierRedemptionWeight[]",
          "name": "_tierWeights",
          "type": "tuple[]"
        }
      ],
      "name": "setTierRedemptionWeights",
      "outputs": [],
      "stateMutability": "nonpayable",
      "type": "function"
    },
    {
      "inputs": [],
      "name": "store",
      "outputs": [
        {
          "internalType": "contract IJBTiered721DelegateStore",
          "name": "",
          "type": "address"
        }
      ],
      "stateMutability": "view",
      "type": "function"
    },
    {
      "inputs": [
        {
          "internalType": "bytes4",
          "name": "_interfaceId",
          "type": "bytes4"
        }
      ],
      "name": "supportsInterface",
      "outputs": [
        {
          "internalType": "bool",
          "name": "",
          "type": "bool"
        }
      ],
      "stateMutability": "view",
      "type": "function"
    },
    {
      "inputs": [],
      "name": "symbol",
      "outputs": [
        {
          "internalType": "string",
          "name": "",
          "type": "string"
        }
      ],
      "stateMutability": "view",
      "type": "function"
    },
    {
      "inputs": [],
      "name": "tierRedemptionWeights",
      "outputs": [
        {
          "internalType": "uint256[128]",
          "name": "",
          "type": "uint256[128]"
        }
      ],
      "stateMutability": "view",
      "type": "function"
    },
    {
      "inputs": [
        {
          "internalType": "uint256",
          "name": "_tokenId",
          "type": "uint256"
        }
      ],
      "name": "tokenURI",
      "outputs": [
        {
          "internalType": "string",
          "name": "",
          "type": "string"
        }
      ],
      "stateMutability": "view",
      "type": "function"
    },
    {
      "inputs": [
        {
          "components": [
            {
              "internalType": "contract IJBPaymentTerminal",
              "name": "terminal",
              "type": "address"
            },
            {
              "internalType": "address",
              "name": "holder",
              "type": "address"
            },
            {
              "internalType": "uint256",
              "name": "projectId",
              "type": "uint256"
            },
            {
              "internalType": "uint256",
              "name": "currentFundingCycleConfiguration",
              "type": "uint256"
            },
            {
              "internalType": "uint256",
              "name": "tokenCount",
              "type": "uint256"
            },
            {
              "internalType": "uint256",
              "name": "totalSupply",
              "type": "uint256"
            },
            {
              "internalType": "uint256",
              "name": "overflow",
              "type": "uint256"
            },
            {
              "components": [
                {
                  "internalType": "address",
                  "name": "token",
                  "type": "address"
                },
                {
                  "internalType": "uint256",
                  "name": "value",
                  "type": "uint256"
                },
                {
                  "internalType": "uint256",
                  "name": "decimals",
                  "type": "uint256"
                },
                {
                  "internalType": "uint256",
                  "name": "currency",
                  "type": "uint256"
                }
              ],
              "internalType": "struct JBTokenAmount",
              "name": "reclaimAmount",
              "type": "tuple"
            },
            {
              "internalType": "bool",
              "name": "useTotalOverflow",
              "type": "bool"
            },
            {
              "internalType": "uint256",
              "name": "redemptionRate",
              "type": "uint256"
            },
            {
              "internalType": "string",
              "name": "memo",
              "type": "string"
            },
            {
              "internalType": "bytes",
              "name": "metadata",
              "type": "bytes"
            }
          ],
          "internalType": "struct JBRedeemParamsData",
          "name": "",
          "type": "tuple"
        }
      ],
      "name": "totalRedemptionWeight",
      "outputs": [
        {
          "internalType": "uint256",
          "name": "",
          "type": "uint256"
        }
      ],
      "stateMutability": "view",
      "type": "function"
    },
    {
      "inputs": [
        {
          "internalType": "address",
          "name": "from",
          "type": "address"
        },
        {
          "internalType": "address",
          "name": "to",
          "type": "address"
        },
        {
          "internalType": "uint256",
          "name": "tokenId",
          "type": "uint256"
        }
      ],
      "name": "transferFrom",
      "outputs": [],
      "stateMutability": "nonpayable",
      "type": "function"
    },
    {
      "inputs": [
        {
          "internalType": "address",
          "name": "newOwner",
          "type": "address"
        }
      ],
      "name": "transferOwnership",
      "outputs": [],
      "stateMutability": "nonpayable",
      "type": "function"
    }
  ],
  "bytecode": {
    "object": "0x60a0806040523461006e5760078054336001600160a01b0319821681179092556001600160a01b03167f8be0079c531659141344cd1fd0a4f28419497f9722a3daafe3b4186f6b6457e0600080a33060805261576b908162000074823960805181818161084301526130fd0152f35b600080fdfe60806040526004361015610013575b600080fd5b60003560e01c806301ffc9a7146103ab57806306fdde03146103a2578063081812fc14610399578063095ea7b3146103905780631d153ca41461038757806323b872dd1461037e5780632a596e53146103755780632b13c58f1461036c5780632f441500146103635780633fafa1271461035a57806342842e0e146103515780634f228e111461034857806354c6d1f51461033f578063557e7155146103365780636352211e1461032d578063640abacd1461032457806364640c1e1461031b5780636c0360eb1461031257806370a0823114610309578063715018a6146103005780637ba62bf9146102f757806382732b6d146102ee5780638da5cb5b146102e55780639494bf72146102dc57806394c5c5ca146102d357806395d89b41146102ca578063975057e7146102c15780639df45468146102b8578063a22cb465146102af578063a51cfd18146102a6578063a8c15f4a1461029d578063aa4fb15b14610294578063ab951e391461028b578063b88d4fde14610282578063c41c2f2414610279578063c722368614610270578063c74b13d914610267578063c87b56dd1461025e578063ca323efe14610255578063d31cc52c1461024c578063d40e714614610243578063d46cf1711461023a578063da9ee8b714610231578063e8a3d48514610228578063e985e9c51461021f5763f2fde38b1461021757600080fd5b61000e6121d0565b5061000e612165565b5061000e6120bd565b5061000e611f96565b5061000e611ed9565b5061000e611e1d565b5061000e611dee565b5061000e611d9a565b5061000e611c53565b5061000e611ba0565b5061000e611acd565b5061000e611833565b5061000e6117ca565b5061000e61173d565b5061000e61171d565b5061000e6116f9565b5061000e61166e565b5061000e61159f565b5061000e611504565b5061000e6114dc565b5061000e611436565b5061000e6113f9565b5061000e6113db565b5061000e6113b3565b5061000e611365565b5061000e61130d565b5061000e611252565b5061000e61119a565b5061000e6110f2565b5061000e611099565b5061000e611079565b5061000e61105a565b5061000e611032565b5061000e611013565b5061000e610fec565b5061000e610fa4565b5061000e610f85565b5061000e610ef1565b5061000e61097b565b5061000e6108bb565b5061000e610893565b5061000e610822565b5061000e610734565b5061000e6106e6565b5061000e610606565b5061000e6103c6565b6001600160e01b031981160361000e57565b503461000e57602060031936011261000e5761042f6001600160e01b03196004356103f0816103b4565b167face10733000000000000000000000000000000000000000000000000000000008114908115610433575b5060405190151581529081906020820190565b0390f35b63fbb38e0360e01b811491508115610575575b811561054b575b8115610521575b81156104f7575b8115610469575b503861041c565b7f80ac58cd000000000000000000000000000000000000000000000000000000008114915081156104cd575b81156104a3575b5038610462565b7f01ffc9a7000000000000000000000000000000000000000000000000000000009150143861049c565b7f5b5e139f0000000000000000000000000000000000000000000000000000000081149150610495565b7f2a55205a000000000000000000000000000000000000000000000000000000008114915061045b565b7f2b13c58f0000000000000000000000000000000000000000000000000000000081149150610454565b7fda9ee8b7000000000000000000000000000000000000000000000000000000008114915061044d565b7f71700c690000000000000000000000000000000000000000000000000000000081149150610446565b600091031261000e57565b60005b8381106105bd5750506000910152565b81810151838201526020016105ad565b90601f19601f6020936105eb815180928187528780880191016105aa565b0116010190565b9060206106039281815201906105cd565b90565b503461000e576000806003193601126106e35760405190808054610629816110b8565b808552916001918083169081156106b9575060011461065f575b61042f8561065381870382610df0565b604051918291826105f2565b80809450527f290decd9548b62a8d60345a988386fc84ba6bc95484008f6362f93160ef3e5635b8284106106a15750505081016020016106538261042f610643565b80546020858701810191909152909301928101610686565b86955061042f9693506020925061065394915060ff191682840152151560051b8201019293610643565b80fd5b503461000e57602060031936011261000e576020610705600435613e68565b6001600160a01b0360405191168152f35b6001600160a01b0381160361000e57565b359061073282610716565b565b503461000e57604060031936011261000e5760043561075281610716565b6024356001600160a01b038061076783613e1e565b1680918416146107f8578033141590816107b6575b5061078c5761078a91614880565b005b60046040517fe5fa0e35000000000000000000000000000000000000000000000000000000008152fd5b905060005260046020526107f26107ee6107e7336040600020906001600160a01b0316600052602052604060002090565b5460ff1690565b1590565b3861077c565b60046040517f133f8be9000000000000000000000000000000000000000000000000000000008152fd5b503461000e57600060031936011261000e5760206040516001600160a01b037f0000000000000000000000000000000000000000000000000000000000000000168152f35b600319606091011261000e5760043561087f81610716565b9060243561088c81610716565b9060443590565b503461000e576108a236610867565b906108ad8233613efe565b1561078c5761078a926145e4565b503461000e5760208060031936011261000e576004359067ffffffffffffffff9081831161000e573660238401121561000e57826004013591821161000e57602490600693368385871b8301011161000e5760005b84811061091957005b60019061093b61092f3687848b1b870101610eaa565b858151910151906136fe565b01610910565b90816101e091031261000e5790565b602060031982011261000e576004359067ffffffffffffffff821161000e5761060391600401610941565b5061098536610950565b3415801590610cc8575b8015610cb8575b610c8e5760a0810135908115610c64576101c0810160246109b782846126ed565b9050108015610c2e575b610c04576109d26109da91836126ed565b8101906127e1565b9150508051610a32610a036109f7608f546001600160a01b031690565b6001600160a01b031690565b93600554604095865180916321d1336160e11b825261012092839181806004998a988983019190602083019252565b03915afa918215610bf7575b600092610bca575b505051149460005b848110610a7a578787610a6088613d71565b610a6657005b610a7561078a916089546123c3565b608955565b610a848187612374565b51610aa9610a9c826000526002602052604060002090565b546001600160a01b031690565b6001600160a01b03610abd6109f787613676565b911603610ba257908188610ad2600194614431565b610ade575b5001610a4e565b610b5b90610af76109f7608e546001600160a01b031690565b87865180927f42f9914b0000000000000000000000000000000000000000000000000000000082528180610b35602097889683019190602083019252565b03915afa918215610b95575b600092610b68575b5050600052608a602052604060002090565b8054600101905538610ad7565b610b879250803d10610b8e575b610b7f8183610df0565b8101906122aa565b3880610b49565b503d610b75565b610b9d6122b9565b610b41565b8483517f075fd2b1000000000000000000000000000000000000000000000000000000008152fd5b610be99250803d10610bf0575b610be18183610df0565b81019061281c565b3880610a46565b503d610bd7565b610bff6122b9565b610a3e565b60046040517f2a84050f000000000000000000000000000000000000000000000000000000008152fd5b5063fbb38e0360e01b6001600160e01b0319610c5c610c56610c5085876126ed565b9061273e565b90612760565b1614156109c1565b60046040517f76914729000000000000000000000000000000000000000000000000000000008152fd5b60046040517f7df94b86000000000000000000000000000000000000000000000000000000008152fd5b5060055460208201351415610996565b50610d296020610ce36109f76006546001600160a01b031690565b6005546040517f6e49181f000000000000000000000000000000000000000000000000000000008152600481019190915233602482015292839190829081906044820190565b03915afa908115610d72575b600091610d44575b501561098f565b610d65915060203d8111610d6b575b610d5d8183610df0565b810190613661565b38610d3d565b503d610d53565b610d7a6122b9565b610d35565b50634e487b7160e01b600052604160045260246000fd5b6040810190811067ffffffffffffffff821117610db257604052565b610dba610d7f565b604052565b67ffffffffffffffff8111610db257604052565b611000810190811067ffffffffffffffff821117610db257604052565b90601f601f19910116810190811067ffffffffffffffff821117610db257604052565b60405190610160820182811067ffffffffffffffff821117610db257604052565b6040519061073282610d96565b60405190610180820182811067ffffffffffffffff821117610db257604052565b60405190610120820182811067ffffffffffffffff821117610db257604052565b60209067ffffffffffffffff8111610e9d575b60051b0190565b610ea5610d7f565b610e96565b919082604091031261000e576040516040810181811067ffffffffffffffff821117610ee4575b6040526020808294803584520135910152565b610eec610d7f565b610ed1565b503461000e5760208060031936011261000e576004359067ffffffffffffffff821161000e573660238301121561000e57816004013591610f3183610e83565b91604093610f4185519485610df0565b80845260248285019160061b8401019236841161000e57602401905b838210610f6d5761078a856133c4565b828691610f7a3685610eaa565b815201910190610f5d565b503461000e57600060031936011261000e576020600554604051908152f35b503461000e5761078a610fb636610867565b90604051926020840184811067ffffffffffffffff821117610fdf575b60405260008452613ea7565b610fe7610d7f565b610fd3565b503461000e57602060031936011261000e57602061100b600435612563565b604051908152f35b503461000e57602060031936011261000e576020610705600435612278565b503461000e57600060031936011261000e5760206001600160a01b03608f5416604051908152f35b503461000e57602060031936011261000e576020610705600435613e1e565b503461000e57600060031936011261000e576020604051633b9aca008152f35b503461000e57600060031936011261000e576020609054604051908152f35b90600182811c921680156110e8575b60208310146110d257565b634e487b7160e01b600052602260045260246000fd5b91607f16916110c7565b503461000e576000806003193601126106e3576040519080609254611116816110b8565b808552916001918083169081156106b9575060011461113f5761042f8561065381870382610df0565b9250609283527f6e452848784197f00927d379e3db9e69a5131d2269f862bfcd05a0b38f6abf7f5b8284106111825750505081016020016106538261042f610643565b80546020858701810191909152909301928101611167565b503461000e57602060031936011261000e5761042f6004356111bb81610716565b60206001600160a01b03604481608e54169360405194859384927ff7888aec0000000000000000000000000000000000000000000000000000000084523060048501521660248301525afa908115611245575b600091611227575b506040519081529081906020820190565b61123f915060203d8111610b8e57610b7f8183610df0565b38611216565b61124d6122b9565b61120e565b503461000e576000806003193601126106e35761126d61513a565b806001600160a01b036007546001600160a01b03198116600755167f8be0079c531659141344cd1fd0a4f28419497f9722a3daafe3b4186f6b6457e08280a380f35b81601f8201121561000e578035916112c683610e83565b926112d46040519485610df0565b808452602092838086019260051b82010192831161000e578301905b8282106112fe575050505090565b813581529083019083016112f0565b503461000e57604060031936011261000e5767ffffffffffffffff60043581811161000e576113409036906004016112af565b9060243590811161000e5760209161135f61100b923690600401610941565b506123d0565b503461000e57604060031936011261000e57602060043561138581610716565b6001600160a01b03809116600052608b82526040600020602435600052825260406000205416604051908152f35b503461000e57600060031936011261000e5760206001600160a01b0360075416604051908152f35b503461000e576113ea36610950565b506020604051633b9aca008152f35b503461000e57602060031936011261000e57600435600052608d60205260206001600160e01b0361142d60406000206153cd565b16604051908152f35b503461000e576000806003193601126106e3576040519080600180549161145c836110b8565b808652928281169081156106b957506001146114825761042f8561065381870382610df0565b92508083527fb10e2d527612073b26eecdfd717e6a320cf44b4afac2b0732d9fcbe2b7fa0cf65b8284106114c45750505081016020016106538261042f610643565b805460208587018101919091529093019281016114a9565b503461000e57600060031936011261000e5760206001600160a01b03608e5416604051908152f35b503461000e57600060031936011261000e5760405161152281610dd3565b611000809136903760405160096000825b608082106115745750505061154781610dd3565b60405190600090825b6080831061155d57505050f35b600190825181526020809101920192019190611550565b6001602081928554815201930191019091611533565b8015150361000e57565b35906107328261158a565b503461000e57604060031936011261000e576004356115bd81610716565b6024356115c98161158a565b6001600160a01b0382169182331461164457611605903360005260046020526040600020906001600160a01b0316600052602052604060002090565b9015159060ff1981541660ff83161790556040519081527f17307eab39ab6107e8899845ad3d59bd9653f200f220920489ca2b5937696c3160203392a3005b60046040517f0df0273a000000000000000000000000000000000000000000000000000000008152fd5b503461000e5761168561168036610950565b612890565b6040929192805193849384526116a760209160608387015260608601906105cd565b90848203838601528080855193848152019401926000905b8382106116cc5786860387f35b845180516001600160a01b03168752830151868401528796509485019493820193600191909101906116bf565b503461000e57600060031936011261000e57602060ff609154166040519015158152f35b503461000e57604060031936011261000e5761078a6024356004356136fe565b503461000e57604060031936011261000e5761078a60043561175e81610716565b6024359033613aba565b601f19601f60209267ffffffffffffffff8111611786575b01160190565b61178e610d7f565b611780565b92919261179f82611768565b916117ad6040519384610df0565b82948184528183011161000e578281602093846000960137010152565b503461000e57608060031936011261000e576004356117e881610716565b6024356117f481610716565b6064359167ffffffffffffffff831161000e573660238401121561000e5761182961078a933690602481600401359101611793565b9160443591613ea7565b503461000e57600060031936011261000e5760206001600160a01b0360065416604051908152f35b6024359061073282610716565b9080601f8301121561000e5781602061060393359101611793565b6084359061073282610716565b60c4359061073282610716565b35906cffffffffffffffffffffffffff8216820361000e57565b359063ffffffff8216820361000e57565b359061ffff8216820361000e57565b359062ffffff8216820361000e57565b81601f8201121561000e578035906118fe82610e83565b9260409061190e82519586610df0565b83855260209182860191836101608097028601019481861161000e578401925b85841061193f575050505050505090565b868483031261000e57848791611953610e13565b61195c8761189d565b81526119698388016118b7565b838201526119788688016118b7565b8682015260606119898189016118c8565b90820152608061199a818901610727565b9082015260a0808801359082015260c06119b58189016118d7565b9082015260e06119c6818901611594565b908201526101006119d8818901611594565b908201526101206119ea818901611594565b908201526101406119fc818901611594565b9082015281520193019261192e565b610124359065ffffffffffff8216820361000e57565b610144359061073282610716565b7ffffffffffffffffffffffffffffffffffffffffffffffffffffffffffffffe9c608091011261000e57604051906080820182811067ffffffffffffffff821117611ac0575b6040528161016435611a868161158a565b815261018435611a958161158a565b60208201526101a435611aa78161158a565b604082015260606101c43591611abc8361158a565b0152565b611ac8610d7f565b611a75565b503461000e576101e060031936011261000e57611ae861185b565b60443567ffffffffffffffff9182821161000e57611b0b60049236908401611868565b60643584811161000e57611b229036908501611868565b611b2a611883565b60a43586811161000e57611b419036908701611868565b611b49611890565b9060e43588811161000e57611b619036908901611868565b926101043598891161000e57611b7d61078a9936908a016118e7565b94611b86611a0b565b96611b8f611a21565b98611b9936611a2f565b9a356130e9565b503461000e5760208060031936011261000e576004359067ffffffffffffffff821161000e573660238301121561000e57816004013591611be083610e83565b91604093611bf085519485610df0565b80845260248285019160061b8401019236841161000e57602401905b838210611c1c5761078a85613680565b858236031261000e578286918251611c3381610d96565b8435611c3e81610716565b81528285013583820152815201910190611c0c565b503461000e57602060031936011261000e5761042f611c7d6109f7608e546001600160a01b031690565b6040517f0fab094700000000000000000000000000000000000000000000000000000000815230600482015290602090829060249082905afa908115611d8d575b600091611d5f575b50600060405180927fda0544aa000000000000000000000000000000000000000000000000000000008252816001600160a01b0381611d0f600435600483019190602083019252565b0392165afa908115611d52575b600091611d31575b50604051918291826105f2565b611d4c913d8091833e611d448183610df0565b81019061231d565b38611d24565b611d5a6122b9565b611d1c565b611d80915060203d8111611d86575b611d788183610df0565b8101906122c6565b38611cc6565b503d611d6e565b611d956122b9565b611cbe565b503461000e57604060031936011261000e576001600160a01b03600435611dc081610716565b16600052608c602052604060002060243560005260205260206001600160e01b0361142d60406000206153cd565b503461000e57604060031936011261000e57600435600052608d602052602061100b60243560406000206151da565b503461000e57606060031936011261000e576001600160a01b03600435611e4381610716565b16600052608c6020526040600020602435600052602052602061100b60443560406000206151da565b91908252611e8660209160608385015260608401906105cd565b90604092838184039101528080855193848152019401926000905b838210611eb057505050505090565b845180516001600160a01b03168752830151868401529485019493820193600190910190611ea1565b503461000e576020600319818136011261000e576004359067ffffffffffffffff821161000e576101a090823603011261000e57611f28611f216101648301836004016126ed565b3691611793565b60405190611f3582610d96565b6001825260005b848110611f8057509061042f91610124946000611f57610e34565b30815291820152611f678361235a565b52611f718261235a565b50604051948594013584611e6c565b8490611f8a61278c565b82828601015201611f3c565b5060031960208136011261000e576004359067ffffffffffffffff821161000e5761020090823603011261000e57600554341590811591612023575b8115612014575b50611fea5761078a90600401614c2f565b60046040517fc715ec6c000000000000000000000000000000000000000000000000000000008152fd5b90506024820135141538611fd9565b905061203a6109f76006546001600160a01b031690565b6040517f6e49181f0000000000000000000000000000000000000000000000000000000081526004810183905233602482015290602090829060449082905afa9081156120b0575b600091612092575b501590611fd2565b6120aa915060203d8111610d6b57610d5d8183610df0565b3861208a565b6120b86122b9565b612082565b503461000e576000806003193601126106e35760405190806093546120e1816110b8565b808552916001918083169081156106b9575060011461210a5761042f8561065381870382610df0565b9250609383527f28da5ca8143bfa5e9f642e58e5e87bef0a2eb0c00bcd4efdd01050293f5fac915b82841061214d5750505081016020016106538261042f610643565b80546020858701810191909152909301928101612132565b503461000e57604060031936011261000e57602060ff6121c460043561218a81610716565b6001600160a01b036024359161219f83610716565b16600052600484526040600020906001600160a01b0316600052602052604060002090565b54166040519015158152f35b503461000e57602060031936011261000e576004356121ee81610716565b6121f661513a565b6001600160a01b0381161561220e5761078a90615192565b608460405162461bcd60e51b815260206004820152602660248201527f4f776e61626c653a206e6577206f776e657220697320746865207a65726f206160448201527f64647265737300000000000000000000000000000000000000000000000000006064820152fd5b60005260086020526001600160a01b038060406000205416806122a5575060026020526040600020541690565b905090565b9081602091031261000e575190565b506040513d6000823e3d90fd5b9081602091031261000e575161060381610716565b81601f8201121561000e5780516122f181611768565b926122ff6040519485610df0565b8184526020828401011161000e5761060391602080850191016105aa565b9060208282031261000e57815167ffffffffffffffff811161000e5761060392016122db565b50634e487b7160e01b600052603260045260246000fd5b602090805115612368570190565b612370612343565b0190565b6020918151811015612389575b60051b010190565b612391612343565b612381565b50634e487b7160e01b600052601160045260246000fd5b90600182018092116123bb57565b610732612396565b919082018092116123bb57565b9060009180516000915b8183106123e657505050565b9091936001906123ff6123f98785612374565b51612563565b8101809111612412575b940191906123da565b61241a612396565b612409565b519061073282610716565b51906107328261158a565b60208183031261000e57805167ffffffffffffffff9182821161000e57016101808184031261000e57612466610e41565b92815184526020820151602085015260408201516040850152606082015160608501526080820151608085015260a082015160a08501526124a960c0830161241f565b60c085015260e082015160e085015261010080830151908501526101206124d181840161242a565b908501526101406124e381840161242a565b90850152610160928383015190811161000e5761250092016122db565b9082015290565b9060001982019182116123bb57565b919082039182116123bb57565b6080811015612536575b60090190600090565b61253e612343565b61252d565b811561254d570490565b634e487b7160e01b600052601260045260246000fd5b6125b6602061257d6109f7608e546001600160a01b031690565b92604051809381927f42f9914b000000000000000000000000000000000000000000000000000000008352600483019190602083019252565b0381855afa9081156126e0575b6000916126c2575b506040516364faa15960e01b8152306004820152602481018290526000604482018190529092839060649082905afa9182156126b5575b600092612692575b5061262961261f61261a83612507565b612523565b90549060031b1c90565b90811561268a57606083019061264760408351950194855190612516565b15612681576126746126636106039561267b9451905190612516565b91600052608a602052604060002090565b54906123c3565b90612543565b50505050600090565b505050600090565b6126ae91923d8091833e6126a68183610df0565b810190612435565b903861260a565b6126bd6122b9565b612602565b6126da915060203d8111610b8e57610b7f8183610df0565b386125cb565b6126e86122b9565b6125c3565b9035907fffffffffffffffffffffffffffffffffffffffffffffffffffffffffffffffe18136030182121561000e570180359067ffffffffffffffff821161000e5760200191813603831361000e57565b9060241161000e5760200190600490565b9060441161000e5760400190600490565b6001600160e01b0319903581811693926004811061277d57505050565b60040360031b82901b16169150565b6040519061279982610d96565b60006020838281520152565b604051906127b282610d96565b600182528160005b602090818110156127dc576020916127d061278c565b908285010152016127ba565b505050565b9160608383031261000e5782359260208101356127fd816103b4565b92604082013567ffffffffffffffff811161000e5761060392016112af565b908161012091031261000e57612830610e62565b90805182526020810151602083015260408101516040830152606081015160608301526080810151608083015260a081015160a083015260c081015160c083015261287d60e0820161241f565b60e0830152610100809101519082015290565b90600090816080840135612ad9576101c084019060246128b083876126ed565b9050108015612aaf575b610c04576128c66127a5565b936128fb6109d26128d5610e34565b3081529460209584878201526128ea8961235a565b526128f48861235a565b50886126ed565b949150506129146109f7608f546001600160a01b031690565b91604088815180956321d1336160e11b825261012096879181806129448860049801358883019190602083019252565b03915afa958615612aa2575b8496612a83575b50506001809551146129a257505050505050611f2161299261299e9261298c61298660895460c08a01356123c3565b916123d0565b90615690565b946101a08101906126ed565b9190565b94989592919083519382966129c26109f7608e546001600160a01b031690565b915b8689106129e657505050505050505050611f21816101a061299e9301906126ed565b90919293949596889c87612a35886129ff859d87612374565b5189518093819263c44a8e6d60e01b8352308b840160409060009294936001600160a01b03606083019616825260208201520152565b03818a5afa908115612a76575b8991612a5c575b500151019c0197969594939291906129c4565b612a7091503d808b833e6126a68183610df0565b38612a49565b612a7e6122b9565b612a42565b612a9a929650803d10610bf057610be18183610df0565b933880612957565b612aaa6122b9565b612950565b5063fbb38e0360e01b6001600160e01b0319612ad1610c56610c50868a6126ed565b1614156128ba565b60046040517f4fc178d8000000000000000000000000000000000000000000000000000000008152fd5b60095b60898110612b115750565b60008155600101612b06565b818110612b28575050565b60008155600101612b1d565b90601f8211612b41575050565b61073291600080527f290decd9548b62a8d60345a988386fc84ba6bc95484008f6362f93160ef3e563906020601f840160051c83019310612b8a575b601f0160051c0190612b1d565b9091508190612b7d565b90601f8211612ba1575050565b6107329160926000527f6e452848784197f00927d379e3db9e69a5131d2269f862bfcd05a0b38f6abf7f906020601f840160051c83019310612b8a57601f0160051c0190612b1d565b90601f8211612bf7575050565b6107329160936000527f28da5ca8143bfa5e9f642e58e5e87bef0a2eb0c00bcd4efdd01050293f5fac91906020601f840160051c83019310612b8a57601f0160051c0190612b1d565b90601f8211612c4d575050565b6107329160016000527fb10e2d527612073b26eecdfd717e6a320cf44b4afac2b0732d9fcbe2b7fa0cf6906020601f840160051c83019310612b8a57601f0160051c0190612b1d565b90815167ffffffffffffffff8111612d80575b612cbd81612cb86092546110b8565b612b94565b602080601f8311600114612cf85750819293600092612ced575b50506000198260011b9260031b1c191617609255565b015190503880612cd7565b90601f19831694612d2b60926000527f6e452848784197f00927d379e3db9e69a5131d2269f862bfcd05a0b38f6abf7f90565b926000905b878210612d68575050836001959610612d4f575b505050811b01609255565b015160001960f88460031b161c19169055388080612d44565b80600185968294968601518155019501930190612d30565b612d88610d7f565b612ca9565b90815167ffffffffffffffff8111612e77575b612db481612daf6093546110b8565b612bea565b602080601f8311600114612def5750819293600092612de4575b50506000198260011b9260031b1c191617609355565b015190503880612dce565b90601f19831694612e2260936000527f28da5ca8143bfa5e9f642e58e5e87bef0a2eb0c00bcd4efdd01050293f5fac9190565b926000905b878210612e5f575050836001959610612e46575b505050811b01609355565b015160001960f88460031b161c19169055388080612e3b565b80600185968294968601518155019501930190612e27565b612e7f610d7f565b612da0565b90815167ffffffffffffffff8111612f6c575b600190612ead81612ea884546110b8565b612c40565b602080601f8311600114612ee7575081929394600092612edc575b505060001982841b9260031b1c1916179055565b015190503880612ec8565b90601f19831695612f1a60016000527fb10e2d527612073b26eecdfd717e6a320cf44b4afac2b0732d9fcbe2b7fa0cf690565b926000905b888210612f555750508385969710612f3c575b505050811b019055565b015160001960f88460031b161c19169055388080612f32565b808785968294968601518155019501930190612f1f565b612f74610d7f565b612e97565b81601f8201121561000e57805191612f9083610e83565b92612f9e6040519485610df0565b808452602092838086019260051b82010192831161000e578301905b828210612fc8575050505090565b81518152908301908301612fba565b9060208282031261000e57815167ffffffffffffffff811161000e576106039201612f79565b60208082019080835283518092528060408094019401926000905b83821061302757505050505090565b9091929394836101606001926130dc89516130518382516cffffffffffffffffffffffffff169052565b8085015163ffffffff16838601528087015163ffffffff168388015260608181015161ffff16908401526080818101516001600160a01b03169084015260a0818101519084015260c08082015162ffffff169084015260e081810151151590840152610100818101511515908401526101208181015115159084015261014090810151151590830152565b0196019493920190613018565b99989192939695966001600160a01b039a8b7f000000000000000000000000000000000000000000000000000000000000000016301461000e578b6131396109f7608e546001600160a01b031690565b1661000e576131999565ffffffffffff956131739461315793614a4b565b6001600160a01b03166001600160a01b0319608f541617608f55565b613193886001600160a01b03166001600160a01b0319608e541617608e55565b16609055565b80516133b5575b5080516133a6575b5083811661332b575b5080516132ae575b508251151580156132a1575b8015613294575b8015613287575b6131e4575b50505061073233615192565b16803b1561000e57604080517fcb827e320000000000000000000000000000000000000000000000000000000081528351151560048201526020840151151560248201529083015115156044820152606090920151151560648301526000908290608490829084905af1801561327a575b613261575b80806131d8565b8061326e61327492610dbf565b8061059f565b3861325a565b6132826122b9565b613255565b50606083015115156131d3565b50604083015115156131cc565b50602083015115156131c5565b60006132e791604051809381927f8da5e32b00000000000000000000000000000000000000000000000000000000835260048301612ffd565b0381838787165af1801561331e575b156131b957613317903d806000833e61330f8183610df0565b810190612fd7565b50386131b9565b6133266122b9565b6132f6565b838316803b1561000e576040517fd84a72c00000000000000000000000000000000000000000000000000000000081526001600160a01b039290921660048301526000908290602490829084905af18015613399575b156131b1578061326e61339392610dbf565b386131b1565b6133a16122b9565b613381565b6133af90612d8d565b386131a8565b6133be90612c96565b386131a0565b613414906133d061513a565b6133e56109f7608f546001600160a01b031690565b90600554604092835180916321d1336160e11b8252610120928391818060049a8b988983019190602083019252565b03915afa918215613641575b600092613624575b505051106135fd5760915460ff166135d657613442612b03565b6134576109f7608e546001600160a01b031690565b82517ff1bea54f0000000000000000000000000000000000000000000000000000000081523085820190815290916020918291849182908190850103915afa9182156135c9575b6000926135aa575b50909160009181519183945b8386106135035750505050633b9aca009150116134dd575050610732600160ff196091541617609155565b517f6ff44e97000000000000000000000000000000000000000000000000000000008152fd5b90919293816135128785612374565b515111613582576135766001916135628661352d8a88612374565b51015161354761261a6135408c8a612374565b5151612507565b90919082549060031b600019811b9283911b16911916179055565b8561356d8987612374565b510151906123c3565b950194939291906134b2565b8787517f52385374000000000000000000000000000000000000000000000000000000008152fd5b816135c29293503d8411610b8e57610b7f8183610df0565b90386134a6565b6135d16122b9565b61349e565b50517f38101407000000000000000000000000000000000000000000000000000000008152fd5b50517ff8228d40000000000000000000000000000000000000000000000000000000008152fd5b61363a9250803d10610bf057610be18183610df0565b3880613428565b6136496122b9565b613420565b818102929181159184041417156123bb57565b9081602091031261000e57516106038161158a565b3561060381610716565b80519061368b61278c565b5060005b82811061369b57505050565b6136a58183612374565b51906001600160a01b0380835116156136d4578260206136ce9260019551169101519033613aba565b0161368f565b60046040517f53d304f4000000000000000000000000000000000000000000000000000000008152fd5b9190916137166109f7608f546001600160a01b031690565b9061377460ff61010061374d60055495604096875180926321d1336160e11b82528180610120968795600483019190602083019252565b03915afa918215613aad575b600092613a90575b5050015160f41c1660018091811c161490565b613a675761378d6109f7608e546001600160a01b031690565b82517f136e651c000000000000000000000000000000000000000000000000000000008152306004820152602481018390529490602090869060449082905afa948515613a5a575b600095613a3a575b50613811610a9c83613802886001600160a01b0316600052608b602052604060002090565b90600052602052604060002090565b6001600160a01b03918282161590816139cb575b61383a6109f7608e546001600160a01b031690565b86517fbaa7e80e000000000000000000000000000000000000000000000000000000008152600481018790526024810183905294906000908690604490829084905af19485156139be575b6000956139a3575b5060005b8281106139545750505095610732959660006138b86109f7608e546001600160a01b031690565b96516364faa15960e01b8152306004820152602481018790526000604482015296879060649082905afa958615613947575b60009661391f575b50916020916139119493156000146139175750945b015190519061364e565b91613bb2565b905094613907565b9161393c602093613911969593983d8091833e6126a68183610df0565b9691939450916138f2565b61394f6122b9565b6138ea565b808a886139636001948a612374565b5161396e8184613f7f565b8b51338152928616927f031e1988c95a91ec4d655ff63a8f87a80bc9daf28d95ae10ee08c0022cfb5c8b90602090a401613891565b6139b791953d8091833e61330f8183610df0565b933861388d565b6139c66122b9565b613885565b613a0b886139f087613802836001600160a01b0316600052608b602052604060002090565b906001600160a01b03166001600160a01b0319825416179055565b8388166000817f3134e8a2e6d97e929a7e54011ea5485d7d196dd5f0ba4d4ef95803e8e3fc257f8280a4613825565b613a5391955060203d8111611d8657611d788183610df0565b93386137dd565b613a626122b9565b6137d5565b600482517fe96092b8000000000000000000000000000000000000000000000000000000008152fd5b613aa69250803d10610bf057610be18183610df0565b3880613761565b613ab56122b9565b613759565b6001600160a01b039081166000818152608b602090815260408083208784528252822080548686166001600160a01b03198216179091556107329692959294929390831692909190819080861685857f3134e8a2e6d97e929a7e54011ea5485d7d196dd5f0ba4d4ef95803e8e3fc257f8b80a4608e5416926064604051809581937f2e4d0ea800000000000000000000000000000000000000000000000000000000835230600484015260248301528960448301525afa958615613ba5575b95613b86575b5050613c43565b613b9d929550803d10610b8e57610b7f8183610df0565b923880613b7f565b613bad6122b9565b613b79565b9061073292916000828152608d602052613bcf84604083206152e8565b505060406001600160a01b039182841615613c28575b808052608b602052818120858252602052613c19838383205416946001600160a01b0316600052608b602052604060002090565b85825260205220541690613c43565b848152608d602052613c3c868383206153a5565b5050613be5565b9192906001600160a01b03928382169381168481148015613d69575b613d6157859181613cee575b50505082613c7a575b50505050565b7fed0c1e94c302bdbbd8bbd6a4fb7c3ed335c2292407cd816eadd075d019d0ce0491613cbc613ccd926001600160a01b0316600052608c602052604060002090565b8560005260205260406000206152e8565b6040805192835260208301919091523390820152606090a338808080613c74565b613d0b906001600160a01b0316600052608c602052604060002090565b826000526020527fed0c1e94c302bdbbd8bbd6a4fb7c3ed335c2292407cd816eadd075d019d0ce04613d418560406000206153a5565b6040805192835260208301919091523390820152606090a3833880613c6b565b505050505050565b508315613c5f565b6001600160a01b03608e5416803b1561000e5760405180927f86bc2be3000000000000000000000000000000000000000000000000000000008252602482016020908160048501528251809152816044850193019160005b828110613e0757505050509181600081819503925af18015613dfa575b613ded5750565b8061326e61073292610dbf565b613e026122b9565b613de6565b835185528795509381019392810192600101613dc9565b60005260026020526001600160a01b03604060002054168015613e3e5790565b60046040517fb49aa3b5000000000000000000000000000000000000000000000000000000008152fd5b613e888160005260026020526001600160a01b0360406000205416151590565b15613e3e5760005260036020526001600160a01b036040600020541690565b929190613eb48233613efe565b1561078c5783613ec88383613ecd976145e4565b61495e565b15613ed457565b60046040517f6deaf836000000000000000000000000000000000000000000000000000000008152fd5b6001600160a01b0380613f1084613e1e565b169281831692848414948515613f46575b50508315613f30575b50505090565b613f3c91929350613e68565b1614388080613f2a565b60ff92955090613f759160005260046020526040600020906001600160a01b0316600052602052604060002090565b5416923880613f21565b9190916001600160a01b03811690811561410e57613fb38460005260026020526001600160a01b0360406000205416151590565b6140e457836000928184526002602052613fe68360408620906001600160a01b03166001600160a01b0319825416179055565b837fddf252ad1be2c89b69c2b068fc378daa952ba7f163c4a11628f55a4df523b3ef8180a4614053826140246109f7608e546001600160a01b031690565b60405163c44a8e6d60e01b81523060048201526024810197909752600060448801529591829081906064820190565b0381885afa9081156140d7575b83916140bd575b505193803b156140b9576040516330b157e560e21b81526004810195909552600060248601526001600160a01b039190911660448501529192918290606490829084905af18015613dfa57613ded5750565b8280fd5b6140d191503d8085833e6126a68183610df0565b38614067565b6140df6122b9565b614060565b60046040517fbad7c30c000000000000000000000000000000000000000000000000000000008152fd5b60046040517f7208af1e000000000000000000000000000000000000000000000000000000008152fd5b9061418592916141536109f7608e546001600160a01b031690565b60405163c44a8e6d60e01b81523060048201526024810193909352600060448401819052948590849081906064820190565b0381845afa928315614232575b8593614216575b508251813b15614212576040516330b157e560e21b815260048101919091526001600160a01b038316602482015260006044820152939461073294918290606490829084905af18015614205575b6141f2575b50614348565b8061326e6141ff92610dbf565b386141ec565b61420d6122b9565b6141e7565b8580fd5b61422b9193503d8087833e6126a68183610df0565b9138614199565b61423a6122b9565b614192565b9061428d93929161425b6109f7608e546001600160a01b031690565b60405163c44a8e6d60e01b81523060048201526024810194909452600060448501819052958690859081906064820190565b0381845afa93841561433b575b869461431f575b508351813b1561431b576040516330b157e560e21b815260048101919091526001600160a01b03838116602483015284166044820152949561073295918290606490829084905af1801561430e575b6142fb575b506143b4565b8061326e61430892610dbf565b386142f5565b6143166122b9565b6142f0565b8680fd5b6143349194503d8088833e6126a68183610df0565b92386142a1565b6143436122b9565b61429a565b6001600160a01b038091169182156127dc57610732926080825192015192600091838352608d60205261437e85604085206153a5565b50508252608b60205260408220838352602052604081818420541692808052608b60205281812085825260205220541690613c43565b916001600160a01b03809316918215613c7457610732936040608084519401519482841615614414575b6000908152608b602052818120858252602052613c19838383205416946001600160a01b0316600052608b602052604060002090565b84600052608d60205261442a86836000206153a5565b50506143de565b6107329061443e81613e1e565b8160006001600160a01b0383168061449d575b61445a8361482a565b8282526002602052604082206001600160a01b031981541690557fddf252ad1be2c89b69c2b068fc378daa952ba7f163c4a11628f55a4df523b3ef8280a4614138565b6144fc6101406144b86109f7608e546001600160a01b031690565b60405163c44a8e6d60e01b81523060048201526024810187905260006044820152908590829060649082905afa9081156145d7575b85916145be575b500151151590565b61453c575b61451b6109f7610a9c856000526008602052604060002090565b61445157614537846139f0856000526008602052604060002090565b614451565b61457c6145546109f7608f546001600160a01b031690565b60055460405180926321d1336160e11b82528180610120968795600483019190602083019252565b03915afa80156145b1575b614593575b5050614501565b816145a992903d10610bf057610be18183610df0565b50388061458c565b6145b96122b9565b614587565b6145d1913d8091833e6126a68183610df0565b386144f4565b6145df6122b9565b6144ed565b91906145ef82613e1e565b6001600160a01b03808516949181168590036148005782169384156147d6578061467a575b6107329484916146238361482a565b826000526002602052614650856040600020906001600160a01b03166001600160a01b0319825416179055565b7fddf252ad1be2c89b69c2b068fc378daa952ba7f163c4a11628f55a4df523b3ef600080a461423f565b6146da6101406146956109f7608e546001600160a01b031690565b60405163c44a8e6d60e01b8152306004820152602481018890526000604482018190529091829060649082905afa9081156147c9575b6000916145be57500151151590565b61472b575b6107329484916146ff6109f7610a9c856000526008602052604060002090565b1561470e575b91509450614614565b614726846139f0856000526008602052604060002090565b614705565b61477060ff61010061474b6145546109f7608f546001600160a01b031690565b03915afa9182156147bc575b60009261479f575b5050015160f41c1660018091161490565b156146df5760046040517f18cdaf97000000000000000000000000000000000000000000000000000000008152fd5b6147b59250803d10610bf057610be18183610df0565b388061475f565b6147c46122b9565b614757565b6147d16122b9565b6146cb565b60046040517f2c955427000000000000000000000000000000000000000000000000000000008152fd5b60046040517fa195bc53000000000000000000000000000000000000000000000000000000008152fd5b80600052600360205260406000206001600160a01b0319815416905560006001600160a01b0361485983613e1e565b167f8c5be1e5ebec7d5bd14f71427d1e84f3dd0314c0f7b2291e5b200ac8c7c3b9258280a4565b8160005260036020526148ad816040600020906001600160a01b03166001600160a01b0319825416179055565b6001600160a01b03806148bf84613e1e565b169116907f8c5be1e5ebec7d5bd14f71427d1e84f3dd0314c0f7b2291e5b200ac8c7c3b925600080a4565b9081602091031261000e5751610603816103b4565b909261060394936080936001600160a01b038092168452166020830152604082015281606082015201906105cd565b3d15614959573d9061493f82611768565b9161494d6040519384610df0565b82523d6000602084013e565b606090565b92909190823b15614a42576149b29260209260006001600160a01b036040518097819682957f150b7a02000000000000000000000000000000000000000000000000000000009b8c855233600486016148ff565b0393165af160009181614a12575b50614a04576149cd61492e565b805190816149ff5760046040517f6deaf836000000000000000000000000000000000000000000000000000000008152fd5b602001fd5b6001600160e01b0319161490565b614a3491925060203d8111614a3b575b614a2c8183610df0565b8101906148ea565b90386149c0565b503d614a22565b50505050600190565b91929092805167ffffffffffffffff8111614b75575b600091614a7782614a7285546110b8565b612b34565b60209081601f8411600114614ae357509282614ab793614abc96936107329998968492614ad8575b50506000198260011b9260031b1c1916179055612e84565b600555565b6001600160a01b03166001600160a01b03196006541617600655565b015190503880614a9f565b600080529190601f1984167f290decd9548b62a8d60345a988386fc84ba6bc95484008f6362f93160ef3e5639386905b828210614b5d57505093614abc96936107329998969360019383614ab79810614b44575b505050811b019055612e84565b015160001960f88460031b161c19169055388080614b37565b80600186978294978701518155019601940190614b13565b614b7d610d7f565b614a61565b9160a08383031261000e5782359260209182820135936040830135614ba6816103b4565b936060840135614bb581610716565b9360808101359067ffffffffffffffff821161000e57019180601f8401121561000e578235614be381610e83565b93614bf16040519586610df0565b818552838086019260051b82010192831161000e578301905b828210614c18575050505090565b838091614c24846118c8565b815201910190614c0a565b9060905460c083013503614f67576101e082016044614c4e82856126ed565b90501180614f1f575b614c6057509050565b614c6d614c7591846126ed565b810190614b82565b9250949250506001600160a01b0380941693815115614ef5576000808196845193838215918215915b878110614cfa575050505050505050614cca9293506080614cc26101808401613676565b920135615012565b614cd057565b60046040517f6d5e09a4000000000000000000000000000000000000000000000000000000008152fd5b614d19614d12614d0a838c612374565b5161ffff1690565b61ffff1690565b8603614e3b575b8b614d4d610a9c88613802614d348f613676565b6001600160a01b0316600052608b602052604060002090565b8b8b8b8789614e30575b614d69575b5050505050600101614c9e565b948a80949392614d7b839e9798612507565b83109283614e0a575b505050600014614dab57505050600191614d9d916123c3565b965b90508b388b8b8b614d5c565b9361391191614dd595848b8a80614dfe575b614de5575b50505087600014614ddf575088936123c3565b6001600096614d9f565b936123c3565b614df1614df693613676565b613aba565b8e848b614dc2565b50898416811415614dbd565b61ffff929350614e2691614e20614d0a926123ad565b90612374565b1614838e8d614d84565b508684161515614d57565b9450889a50614e50614d12614d0a878b612374565b94856080614eb060008c614e7c614d0a87614e766109f7608e546001600160a01b031690565b93612374565b6040516364faa15960e01b815230600482015261ffff90911660248201526000604482015292839190829081906064820190565b03915afa908115614ee8575b600091614ecf575b5001519c5050614d20565b614ee2913d8091833e6126a68183610df0565b38614ec4565b614ef06122b9565b614ebc565b60046040517f3d04bd1f000000000000000000000000000000000000000000000000000000008152fd5b507face10733000000000000000000000000000000000000000000000000000000006001600160e01b0319614f60610c56614f5a85886126ed565b9061274f565b1614614c57565b60046040517f79cf85c0000000000000000000000000000000000000000000000000000000008152fd5b919060408382031261000e57825167ffffffffffffffff811161000e57602091614fbc918501612f79565b92015190565b929190606084019084526020906060828601528251809152816080860193019160005b828110614ffa57505050506040600091930152565b835161ffff1685529381019392810192600101614fe5565b92919261502a6109f7608e546001600160a01b031690565b9160409081519586947feaa19ab3000000000000000000000000000000000000000000000000000000008652600095869181838161506c888b60048401614fc2565b03925af1801561512d575b85978691615105575b50968051955b8681106150965750505050505050565b806150a360019284612374565b516150ae8186613f7f565b61ffff6150be614d0a8489612374565b88518a81523360208201526001600160a01b0388169391909216917f598baf7bf150ca2f42be9e9f8f55e81d45f5715c3ff22bf46d697fabec7f31d690604090a401615086565b90506151249197503d8087833e61511c8183610df0565b810190614f91565b96909638615080565b6151356122b9565b615077565b6001600160a01b0360075416330361514e57565b606460405162461bcd60e51b815260206004820152602060248201527f4f776e61626c653a2063616c6c6572206973206e6f7420746865206f776e65726044820152fd5b600754906001600160a01b0380911691826001600160a01b0319821617600755167f8be0079c531659141344cd1fd0a4f28419497f9722a3daafe3b4186f6b6457e0600080a3565b90438110156152a4576151ec90615615565b90805491600063ffffffff8092165b848210615242575050508161521257506000919050565b61523761523e9161522a6001600160e01b0394612507565b9060005260206000200190565b5460201c90565b1690565b9091938083169080841860011c8201809211615297575b8460005282866152748460206000200163ffffffff90541690565b1611156152855750935b91906151fb565b949250615291906123ad565b9161527e565b61529f612396565b615259565b606460405162461bcd60e51b815260206004820152602060248201527f436865636b706f696e74733a20626c6f636b206e6f7420796574206d696e65646044820152fd5b6001600160e01b039291836152fc836153cd565b16908101809111615398575b61531143615615565b9184821161532e578492836153279316916154fb565b9316921690565b608460405162461bcd60e51b815260206004820152602760248201527f53616665436173743a2076616c756520646f65736e27742066697420696e203260448201527f32342062697473000000000000000000000000000000000000000000000000006064820152fd5b6153a0612396565b615308565b6001600160e01b039291836153b9836153cd565b169081039081116153985761531143615615565b80546000816153de57505050600090565b6020906000199383858101116153fb575b81522001015460201c90565b615403612396565b6153ef565b906001600160e01b0360206107329380549068010000000000000000821015615481575b60018201808255821015615474575b60005281600020019263ffffffff81511663ffffffff1985541617845501511663ffffffff63ffffffff1983549260201b169116179055565b61547c612343565b61543b565b615489610d7f565b61542c565b9060405161549b81610d96565b602081935463ffffffff81168352811c910152565b156154b757565b606460405162461bcd60e51b815260206004820152601760248201527f436865636b706f696e743a20696e76616c6964206b65790000000000000000006044820152fd5b909291928382548015156000146155ea5792602092918461553661553161552461299e98612507565b8560005260206000200190565b61548e565b93615545855163ffffffff1690565b61555c63ffffffff918284169283911611156154b0565b61557661556d875163ffffffff1690565b63ffffffff1690565b036155b457506155a69261522a61558c92612507565b9063ffffffff63ffffffff1983549260201b169116179055565b01516001600160e01b031690565b9150506155e5916155d26155c6610e34565b63ffffffff9093168352565b6001600160e01b03881682860152615408565b6155a6565b505061560f916155fb6155c6610e34565b6001600160e01b0385166020830152615408565b60009190565b63ffffffff90818111615626571690565b608460405162461bcd60e51b815260206004820152602660248201527f53616665436173743a2076616c756520646f65736e27742066697420696e203360448201527f32206269747300000000000000000000000000000000000000000000000000006064820152fd5b91906000198184098184029182808310920391808303921461572857633b9aca0090818310156156f1577f88f2cfb83100cb4e69e7c79c58b316e597157d372fb9787e8e47ce423a2e9c6d94950990828211900360f71b910360091c170290565b60448383604051917f773cc18c00000000000000000000000000000000000000000000000000000000835260048301526024820152fd5b5050633b9aca009004915056fea26469706673582212204c1f57fe986d1a2e706ea8e62f9b731f0a94797cc1b2ce96ca6d419c572419f264736f6c63430008110033",
    "linkReferences": {}
  },
  "methodIdentifiers": {
    "TOTAL_REDEMPTION_WEIGHT()": "640abacd",
    "approve(address,uint256)": "095ea7b3",
    "balanceOf(address)": "70a08231",
    "baseURI()": "6c0360eb",
    "codeOrigin()": "1d153ca4",
    "contractURI()": "e8a3d485",
    "didPay((address,uint256,uint256,(address,uint256,uint256,uint256),(address,uint256,uint256,uint256),uint256,address,bool,string,bytes))": "da9ee8b7",
    "didRedeem((address,uint256,uint256,uint256,(address,uint256,uint256,uint256),(address,uint256,uint256,uint256),address,string,bytes))": "2b13c58f",
    "directory()": "c41c2f24",
    "firstOwnerOf(uint256)": "54c6d1f5",
    "fundingCycleStore()": "557e7155",
    "getApproved(uint256)": "081812fc",
    "getPastTierTotalVotes(uint256,uint256)": "d31cc52c",
    "getPastTierVotes(address,uint256,uint256)": "d40e7146",
    "getTierDelegate(address,uint256)": "82732b6d",
    "getTierTotalVotes(uint256)": "94c5c5ca",
    "getTierVotes(address,uint256)": "ca323efe",
    "initialize(uint256,address,string,string,address,string,address,string,(uint104,uint32,uint32,uint16,address,bytes32,uint24,bool,bool,bool,bool)[],uint48,address,(bool,bool,bool,bool))": "c7223686",
    "isApprovedForAll(address,address)": "e985e9c5",
    "mintReservesFor((uint256,uint256)[])": "2a596e53",
    "mintReservesFor(uint256,uint256)": "aa4fb15b",
    "name()": "06fdde03",
    "owner()": "8da5cb5b",
    "ownerOf(uint256)": "6352211e",
    "payParams((address,address,(address,uint256,uint256,uint256),uint256,uint256,address,uint256,uint256,string,bytes))": "d46cf171",
    "pricingCurrency()": "64640c1e",
    "projectId()": "3fafa127",
    "redeemParams((address,address,uint256,uint256,uint256,uint256,uint256,(address,uint256,uint256,uint256),bool,uint256,string,bytes))": "a51cfd18",
    "redemptionWeightIsSet()": "a8c15f4a",
    "redemptionWeightOf(uint256)": "4f228e11",
    "redemptionWeightOf(uint256[],(address,address,uint256,uint256,uint256,uint256,uint256,(address,uint256,uint256,uint256),bool,uint256,string,bytes))": "7ba62bf9",
    "renounceOwnership()": "715018a6",
    "safeTransferFrom(address,address,uint256)": "42842e0e",
    "safeTransferFrom(address,address,uint256,bytes)": "b88d4fde",
    "setApprovalForAll(address,bool)": "a22cb465",
    "setTierDelegate(address,uint256)": "ab951e39",
    "setTierDelegates((address,uint256)[])": "c74b13d9",
    "setTierRedemptionWeights((uint256,uint256)[])": "2f441500",
    "store()": "975057e7",
    "supportsInterface(bytes4)": "01ffc9a7",
    "symbol()": "95d89b41",
    "tierRedemptionWeights()": "9df45468",
    "tokenURI(uint256)": "c87b56dd",
    "totalRedemptionWeight((address,address,uint256,uint256,uint256,uint256,uint256,(address,uint256,uint256,uint256),bool,uint256,string,bytes))": "9494bf72",
    "transferFrom(address,address,uint256)": "23b872dd",
    "transferOwnership(address)": "f2fde38b"
  },
  "id": 0
}