{
  "abi": [
    {
      "inputs": [],
      "name": "ALEADY_MINTED",
      "type": "error"
    },
    {
      "inputs": [],
      "name": "APPROVAL_TO_CURRENT_OWNER",
      "type": "error"
    },
    {
      "inputs": [],
      "name": "APPROVE_TO_CALLER",
      "type": "error"
    },
    {
      "inputs": [],
      "name": "BLOCK_NOT_YET_MINED",
      "type": "error"
    },
    {
      "inputs": [],
      "name": "CALLER_NOT_OWNER_OR_APPROVED",
      "type": "error"
    },
    {
      "inputs": [],
      "name": "DELEGATE_ADDRESS_ZERO",
      "type": "error"
    },
    {
      "inputs": [],
      "name": "GAME_ISNT_OVER_YET",
      "type": "error"
    },
    {
      "inputs": [],
      "name": "INCORRECT_OWNER",
      "type": "error"
    },
    {
      "inputs": [],
      "name": "INVALID_PAYMENT_EVENT",
      "type": "error"
    },
    {
      "inputs": [],
      "name": "INVALID_REDEMPTION_EVENT",
      "type": "error"
    },
    {
      "inputs": [],
      "name": "INVALID_REDEMPTION_METADATA",
      "type": "error"
    },
    {
      "inputs": [],
      "name": "INVALID_REDEMPTION_WEIGHTS",
      "type": "error"
    },
    {
      "inputs": [],
      "name": "INVALID_TIER_ID",
      "type": "error"
    },
    {
      "inputs": [],
      "name": "INVALID_TOKEN_ID",
      "type": "error"
    },
    {
      "inputs": [],
      "name": "MINT_TO_ZERO",
      "type": "error"
    },
    {
      "inputs": [],
      "name": "NOTHING_TO_CLAIM",
      "type": "error"
    },
    {
      "inputs": [],
      "name": "NOTHING_TO_MINT",
      "type": "error"
    },
    {
      "inputs": [],
      "name": "NOT_AVAILABLE",
      "type": "error"
    },
    {
      "inputs": [],
      "name": "OVERSPENDING",
      "type": "error"
    },
    {
      "inputs": [
        {
          "internalType": "uint256",
          "name": "prod1",
          "type": "uint256"
        },
        {
          "internalType": "uint256",
          "name": "denominator",
          "type": "uint256"
        }
      ],
      "name": "PRBMath__MulDivOverflow",
      "type": "error"
    },
    {
      "inputs": [],
      "name": "PRICING_RESOLVER_CHANGES_PAUSED",
      "type": "error"
    },
    {
      "inputs": [],
      "name": "RESERVED_TOKEN_MINTING_PAUSED",
      "type": "error"
    },
    {
      "inputs": [],
      "name": "TRANSFERS_PAUSED",
      "type": "error"
    },
    {
      "inputs": [],
      "name": "TRANSFER_TO_NON_IMPLEMENTER",
      "type": "error"
    },
    {
      "inputs": [],
      "name": "TRANSFER_TO_ZERO_ADDRESS",
      "type": "error"
    },
    {
      "inputs": [],
      "name": "UNAUTHORIZED",
      "type": "error"
    },
    {
      "inputs": [],
      "name": "UNEXPECTED_TOKEN_REDEEMED",
      "type": "error"
    },
    {
      "inputs": [],
      "name": "WRONG_CURRENCY",
      "type": "error"
    },
    {
      "anonymous": false,
      "inputs": [
        {
          "indexed": true,
          "internalType": "uint256",
          "name": "changeAmount",
          "type": "uint256"
        },
        {
          "indexed": true,
          "internalType": "uint256",
          "name": "newTotalCredits",
          "type": "uint256"
        },
        {
          "indexed": true,
          "internalType": "address",
          "name": "account",
          "type": "address"
        },
        {
          "indexed": false,
          "internalType": "address",
          "name": "caller",
          "type": "address"
        }
      ],
      "name": "AddCredits",
      "type": "event"
    },
    {
      "anonymous": false,
      "inputs": [
        {
          "indexed": true,
          "internalType": "uint256",
          "name": "tierId",
          "type": "uint256"
        },
        {
          "components": [
            {
              "internalType": "uint80",
              "name": "contributionFloor",
              "type": "uint80"
            },
            {
              "internalType": "uint48",
              "name": "lockedUntil",
              "type": "uint48"
            },
            {
              "internalType": "uint40",
              "name": "initialQuantity",
              "type": "uint40"
            },
            {
              "internalType": "uint16",
              "name": "votingUnits",
              "type": "uint16"
            },
            {
              "internalType": "uint16",
              "name": "reservedRate",
              "type": "uint16"
            },
            {
              "internalType": "address",
              "name": "reservedTokenBeneficiary",
              "type": "address"
            },
            {
              "internalType": "uint8",
              "name": "royaltyRate",
              "type": "uint8"
            },
            {
              "internalType": "address",
              "name": "royaltyBeneficiary",
              "type": "address"
            },
            {
              "internalType": "bytes32",
              "name": "encodedIPFSUri",
              "type": "bytes32"
            },
            {
              "internalType": "uint8",
              "name": "category",
              "type": "uint8"
            },
            {
              "internalType": "bool",
              "name": "allowManualMint",
              "type": "bool"
            },
            {
              "internalType": "bool",
              "name": "shouldUseReservedTokenBeneficiaryAsDefault",
              "type": "bool"
            },
            {
              "internalType": "bool",
              "name": "shouldUseRoyaltyBeneficiaryAsDefault",
              "type": "bool"
            },
            {
              "internalType": "bool",
              "name": "transfersPausable",
              "type": "bool"
            }
          ],
          "indexed": false,
          "internalType": "struct JB721TierParams",
          "name": "data",
          "type": "tuple"
        },
        {
          "indexed": false,
          "internalType": "address",
          "name": "caller",
          "type": "address"
        }
      ],
      "name": "AddTier",
      "type": "event"
    },
    {
      "anonymous": false,
      "inputs": [
        {
          "indexed": true,
          "internalType": "address",
          "name": "owner",
          "type": "address"
        },
        {
          "indexed": true,
          "internalType": "address",
          "name": "approved",
          "type": "address"
        },
        {
          "indexed": true,
          "internalType": "uint256",
          "name": "tokenId",
          "type": "uint256"
        }
      ],
      "name": "Approval",
      "type": "event"
    },
    {
      "anonymous": false,
      "inputs": [
        {
          "indexed": true,
          "internalType": "address",
          "name": "owner",
          "type": "address"
        },
        {
          "indexed": true,
          "internalType": "address",
          "name": "operator",
          "type": "address"
        },
        {
          "indexed": false,
          "internalType": "bool",
          "name": "approved",
          "type": "bool"
        }
      ],
      "name": "ApprovalForAll",
      "type": "event"
    },
    {
      "anonymous": false,
      "inputs": [
        {
          "indexed": true,
          "internalType": "address",
          "name": "delegator",
          "type": "address"
        },
        {
          "indexed": true,
          "internalType": "address",
          "name": "fromDelegate",
          "type": "address"
        },
        {
          "indexed": true,
          "internalType": "address",
          "name": "toDelegate",
          "type": "address"
        }
      ],
      "name": "DelegateChanged",
      "type": "event"
    },
    {
      "anonymous": false,
      "inputs": [
        {
          "indexed": true,
          "internalType": "uint256",
          "name": "tokenId",
          "type": "uint256"
        },
        {
          "indexed": true,
          "internalType": "uint256",
          "name": "tierId",
          "type": "uint256"
        },
        {
          "indexed": true,
          "internalType": "address",
          "name": "beneficiary",
          "type": "address"
        },
        {
          "indexed": false,
          "internalType": "uint256",
          "name": "totalAmountContributed",
          "type": "uint256"
        },
        {
          "indexed": false,
          "internalType": "address",
          "name": "caller",
          "type": "address"
        }
      ],
      "name": "Mint",
      "type": "event"
    },
    {
      "anonymous": false,
      "inputs": [
        {
          "indexed": true,
          "internalType": "uint256",
          "name": "tokenId",
          "type": "uint256"
        },
        {
          "indexed": true,
          "internalType": "uint256",
          "name": "tierId",
          "type": "uint256"
        },
        {
          "indexed": true,
          "internalType": "address",
          "name": "beneficiary",
          "type": "address"
        },
        {
          "indexed": false,
          "internalType": "address",
          "name": "caller",
          "type": "address"
        }
      ],
      "name": "MintReservedToken",
      "type": "event"
    },
    {
      "anonymous": false,
      "inputs": [
        {
          "indexed": true,
          "internalType": "address",
          "name": "previousOwner",
          "type": "address"
        },
        {
          "indexed": true,
          "internalType": "address",
          "name": "newOwner",
          "type": "address"
        }
      ],
      "name": "OwnershipTransferred",
      "type": "event"
    },
    {
      "anonymous": false,
      "inputs": [
        {
          "indexed": true,
          "internalType": "uint256",
          "name": "tierId",
          "type": "uint256"
        },
        {
          "indexed": false,
          "internalType": "address",
          "name": "caller",
          "type": "address"
        }
      ],
      "name": "RemoveTier",
      "type": "event"
    },
    {
      "anonymous": false,
      "inputs": [
        {
          "indexed": true,
          "internalType": "string",
          "name": "baseUri",
          "type": "string"
        },
        {
          "indexed": false,
          "internalType": "address",
          "name": "caller",
          "type": "address"
        }
      ],
      "name": "SetBaseUri",
      "type": "event"
    },
    {
      "anonymous": false,
      "inputs": [
        {
          "indexed": true,
          "internalType": "string",
          "name": "contractUri",
          "type": "string"
        },
        {
          "indexed": false,
          "internalType": "address",
          "name": "caller",
          "type": "address"
        }
      ],
      "name": "SetContractUri",
      "type": "event"
    },
    {
      "anonymous": false,
      "inputs": [
        {
          "indexed": true,
          "internalType": "address",
          "name": "beneficiary",
          "type": "address"
        },
        {
          "indexed": false,
          "internalType": "address",
          "name": "caller",
          "type": "address"
        }
      ],
      "name": "SetDefaultReservedTokenBeneficiary",
      "type": "event"
    },
    {
      "anonymous": false,
      "inputs": [
        {
          "indexed": true,
          "internalType": "uint256",
          "name": "tierId",
          "type": "uint256"
        },
        {
          "indexed": false,
          "internalType": "bytes32",
          "name": "encodedIPFSUri",
          "type": "bytes32"
        },
        {
          "indexed": false,
          "internalType": "address",
          "name": "caller",
          "type": "address"
        }
      ],
      "name": "SetEncodedIPFSUri",
      "type": "event"
    },
    {
      "anonymous": false,
      "inputs": [
        {
          "indexed": true,
          "internalType": "contract IJBTokenUriResolver",
          "name": "newResolver",
          "type": "address"
        },
        {
          "indexed": false,
          "internalType": "address",
          "name": "caller",
          "type": "address"
        }
      ],
      "name": "SetTokenUriResolver",
      "type": "event"
    },
    {
      "anonymous": false,
      "inputs": [
        {
          "indexed": true,
          "internalType": "address",
          "name": "delegator",
          "type": "address"
        },
        {
          "indexed": true,
          "internalType": "address",
          "name": "fromDelegate",
          "type": "address"
        },
        {
          "indexed": true,
          "internalType": "address",
          "name": "toDelegate",
          "type": "address"
        },
        {
          "indexed": false,
          "internalType": "uint256",
          "name": "tierId",
          "type": "uint256"
        },
        {
          "indexed": false,
          "internalType": "address",
          "name": "caller",
          "type": "address"
        }
      ],
      "name": "TierDelegateChanged",
      "type": "event"
    },
    {
      "anonymous": false,
      "inputs": [
        {
          "indexed": true,
          "internalType": "address",
          "name": "delegate",
          "type": "address"
        },
        {
          "indexed": true,
          "internalType": "uint256",
          "name": "tierId",
          "type": "uint256"
        },
        {
          "indexed": false,
          "internalType": "uint256",
          "name": "previousBalance",
          "type": "uint256"
        },
        {
          "indexed": false,
          "internalType": "uint256",
          "name": "newBalance",
          "type": "uint256"
        },
        {
          "indexed": false,
          "internalType": "address",
          "name": "caller",
          "type": "address"
        }
      ],
      "name": "TierDelegateVotesChanged",
      "type": "event"
    },
    {
      "anonymous": false,
      "inputs": [
        {
          "indexed": true,
          "internalType": "address",
          "name": "from",
          "type": "address"
        },
        {
          "indexed": true,
          "internalType": "address",
          "name": "to",
          "type": "address"
        },
        {
          "indexed": true,
          "internalType": "uint256",
          "name": "tokenId",
          "type": "uint256"
        }
      ],
      "name": "Transfer",
      "type": "event"
    },
    {
      "anonymous": false,
      "inputs": [
        {
          "indexed": true,
          "internalType": "uint256",
          "name": "changeAmount",
          "type": "uint256"
        },
        {
          "indexed": true,
          "internalType": "uint256",
          "name": "newTotalCredits",
          "type": "uint256"
        },
        {
          "indexed": true,
          "internalType": "address",
          "name": "account",
          "type": "address"
        },
        {
          "indexed": false,
          "internalType": "address",
          "name": "caller",
          "type": "address"
        }
      ],
      "name": "UseCredits",
      "type": "event"
    },
    {
      "inputs": [],
      "name": "TOTAL_REDEMPTION_WEIGHT",
      "outputs": [
        {
          "internalType": "uint256",
          "name": "",
          "type": "uint256"
        }
      ],
      "stateMutability": "view",
      "type": "function"
    },
    {
      "inputs": [
        {
          "components": [
            {
              "internalType": "uint80",
              "name": "contributionFloor",
              "type": "uint80"
            },
            {
              "internalType": "uint48",
              "name": "lockedUntil",
              "type": "uint48"
            },
            {
              "internalType": "uint40",
              "name": "initialQuantity",
              "type": "uint40"
            },
            {
              "internalType": "uint16",
              "name": "votingUnits",
              "type": "uint16"
            },
            {
              "internalType": "uint16",
              "name": "reservedRate",
              "type": "uint16"
            },
            {
              "internalType": "address",
              "name": "reservedTokenBeneficiary",
              "type": "address"
            },
            {
              "internalType": "uint8",
              "name": "royaltyRate",
              "type": "uint8"
            },
            {
              "internalType": "address",
              "name": "royaltyBeneficiary",
              "type": "address"
            },
            {
              "internalType": "bytes32",
              "name": "encodedIPFSUri",
              "type": "bytes32"
            },
            {
              "internalType": "uint8",
              "name": "category",
              "type": "uint8"
            },
            {
              "internalType": "bool",
              "name": "allowManualMint",
              "type": "bool"
            },
            {
              "internalType": "bool",
              "name": "shouldUseReservedTokenBeneficiaryAsDefault",
              "type": "bool"
            },
            {
              "internalType": "bool",
              "name": "shouldUseRoyaltyBeneficiaryAsDefault",
              "type": "bool"
            },
            {
              "internalType": "bool",
              "name": "transfersPausable",
              "type": "bool"
            }
          ],
          "internalType": "struct JB721TierParams[]",
          "name": "_tiersToAdd",
          "type": "tuple[]"
        },
        {
          "internalType": "uint256[]",
          "name": "_tierIdsToRemove",
          "type": "uint256[]"
        }
      ],
      "name": "adjustTiers",
      "outputs": [],
      "stateMutability": "nonpayable",
      "type": "function"
    },
    {
      "inputs": [
        {
          "internalType": "address",
          "name": "to",
          "type": "address"
        },
        {
          "internalType": "uint256",
          "name": "tokenId",
          "type": "uint256"
        }
      ],
      "name": "approve",
      "outputs": [],
      "stateMutability": "nonpayable",
      "type": "function"
    },
    {
      "inputs": [
        {
          "internalType": "address",
          "name": "_owner",
          "type": "address"
        }
      ],
      "name": "balanceOf",
      "outputs": [
        {
          "internalType": "uint256",
          "name": "balance",
          "type": "uint256"
        }
      ],
      "stateMutability": "view",
      "type": "function"
    },
    {
      "inputs": [],
      "name": "codeOrigin",
      "outputs": [
        {
          "internalType": "address",
          "name": "",
          "type": "address"
        }
      ],
      "stateMutability": "view",
      "type": "function"
    },
    {
      "inputs": [],
      "name": "contractURI",
      "outputs": [
        {
          "internalType": "string",
          "name": "",
          "type": "string"
        }
      ],
      "stateMutability": "view",
      "type": "function"
    },
    {
      "inputs": [
        {
          "internalType": "address",
          "name": "",
          "type": "address"
        }
      ],
      "name": "creditsOf",
      "outputs": [
        {
          "internalType": "uint256",
          "name": "",
          "type": "uint256"
        }
      ],
      "stateMutability": "view",
      "type": "function"
    },
    {
      "inputs": [
        {
          "components": [
            {
              "internalType": "address",
              "name": "payer",
              "type": "address"
            },
            {
              "internalType": "uint256",
              "name": "projectId",
              "type": "uint256"
            },
            {
              "internalType": "uint256",
              "name": "currentFundingCycleConfiguration",
              "type": "uint256"
            },
            {
              "components": [
                {
                  "internalType": "address",
                  "name": "token",
                  "type": "address"
                },
                {
                  "internalType": "uint256",
                  "name": "value",
                  "type": "uint256"
                },
                {
                  "internalType": "uint256",
                  "name": "decimals",
                  "type": "uint256"
                },
                {
                  "internalType": "uint256",
                  "name": "currency",
                  "type": "uint256"
                }
              ],
              "internalType": "struct JBTokenAmount",
              "name": "amount",
              "type": "tuple"
            },
            {
              "components": [
                {
                  "internalType": "address",
                  "name": "token",
                  "type": "address"
                },
                {
                  "internalType": "uint256",
                  "name": "value",
                  "type": "uint256"
                },
                {
                  "internalType": "uint256",
                  "name": "decimals",
                  "type": "uint256"
                },
                {
                  "internalType": "uint256",
                  "name": "currency",
                  "type": "uint256"
                }
              ],
              "internalType": "struct JBTokenAmount",
              "name": "forwardedAmount",
              "type": "tuple"
            },
            {
              "internalType": "uint256",
              "name": "projectTokenCount",
              "type": "uint256"
            },
            {
              "internalType": "address",
              "name": "beneficiary",
              "type": "address"
            },
            {
              "internalType": "bool",
              "name": "preferClaimedTokens",
              "type": "bool"
            },
            {
              "internalType": "string",
              "name": "memo",
              "type": "string"
            },
            {
              "internalType": "bytes",
              "name": "metadata",
              "type": "bytes"
            }
          ],
          "internalType": "struct JBDidPayData",
          "name": "_data",
          "type": "tuple"
        }
      ],
      "name": "didPay",
      "outputs": [],
      "stateMutability": "payable",
      "type": "function"
    },
    {
      "inputs": [
        {
          "components": [
            {
              "internalType": "address",
              "name": "holder",
              "type": "address"
            },
            {
              "internalType": "uint256",
              "name": "projectId",
              "type": "uint256"
            },
            {
              "internalType": "uint256",
              "name": "currentFundingCycleConfiguration",
              "type": "uint256"
            },
            {
              "internalType": "uint256",
              "name": "projectTokenCount",
              "type": "uint256"
            },
            {
              "components": [
                {
                  "internalType": "address",
                  "name": "token",
                  "type": "address"
                },
                {
                  "internalType": "uint256",
                  "name": "value",
                  "type": "uint256"
                },
                {
                  "internalType": "uint256",
                  "name": "decimals",
                  "type": "uint256"
                },
                {
                  "internalType": "uint256",
                  "name": "currency",
                  "type": "uint256"
                }
              ],
              "internalType": "struct JBTokenAmount",
              "name": "reclaimedAmount",
              "type": "tuple"
            },
            {
              "components": [
                {
                  "internalType": "address",
                  "name": "token",
                  "type": "address"
                },
                {
                  "internalType": "uint256",
                  "name": "value",
                  "type": "uint256"
                },
                {
                  "internalType": "uint256",
                  "name": "decimals",
                  "type": "uint256"
                },
                {
                  "internalType": "uint256",
                  "name": "currency",
                  "type": "uint256"
                }
              ],
              "internalType": "struct JBTokenAmount",
              "name": "forwardedAmount",
              "type": "tuple"
            },
            {
              "internalType": "address payable",
              "name": "beneficiary",
              "type": "address"
            },
            {
              "internalType": "string",
              "name": "memo",
              "type": "string"
            },
            {
              "internalType": "bytes",
              "name": "metadata",
              "type": "bytes"
            }
          ],
          "internalType": "struct JBDidRedeemData",
          "name": "_data",
          "type": "tuple"
        }
      ],
      "name": "didRedeem",
      "outputs": [],
      "stateMutability": "payable",
      "type": "function"
    },
    {
      "inputs": [],
      "name": "directory",
      "outputs": [
        {
          "internalType": "contract IJBDirectory",
          "name": "",
          "type": "address"
        }
      ],
      "stateMutability": "view",
      "type": "function"
    },
    {
      "inputs": [
        {
          "internalType": "uint256",
          "name": "_tokenId",
          "type": "uint256"
        }
      ],
      "name": "firstOwnerOf",
      "outputs": [
        {
          "internalType": "address",
          "name": "",
          "type": "address"
        }
      ],
      "stateMutability": "view",
      "type": "function"
    },
    {
      "inputs": [],
      "name": "fundingCycleStore",
      "outputs": [
        {
          "internalType": "contract IJBFundingCycleStore",
          "name": "",
          "type": "address"
        }
      ],
      "stateMutability": "view",
      "type": "function"
    },
    {
      "inputs": [
        {
          "internalType": "uint256",
          "name": "tokenId",
          "type": "uint256"
        }
      ],
      "name": "getApproved",
      "outputs": [
        {
          "internalType": "address",
          "name": "",
          "type": "address"
        }
      ],
      "stateMutability": "view",
      "type": "function"
    },
    {
      "inputs": [
        {
          "internalType": "uint256",
          "name": "_tier",
          "type": "uint256"
        },
        {
          "internalType": "uint256",
          "name": "_blockNumber",
          "type": "uint256"
        }
      ],
      "name": "getPastTierTotalVotes",
      "outputs": [
        {
          "internalType": "uint256",
          "name": "",
          "type": "uint256"
        }
      ],
      "stateMutability": "view",
      "type": "function"
    },
    {
      "inputs": [
        {
          "internalType": "address",
          "name": "_account",
          "type": "address"
        },
        {
          "internalType": "uint256",
          "name": "_tier",
          "type": "uint256"
        },
        {
          "internalType": "uint256",
          "name": "_blockNumber",
          "type": "uint256"
        }
      ],
      "name": "getPastTierVotes",
      "outputs": [
        {
          "internalType": "uint256",
          "name": "",
          "type": "uint256"
        }
      ],
      "stateMutability": "view",
      "type": "function"
    },
    {
      "inputs": [
        {
          "internalType": "address",
          "name": "_account",
          "type": "address"
        },
        {
          "internalType": "uint256",
          "name": "_tier",
          "type": "uint256"
        }
      ],
      "name": "getTierDelegate",
      "outputs": [
        {
          "internalType": "address",
          "name": "",
          "type": "address"
        }
      ],
      "stateMutability": "view",
      "type": "function"
    },
    {
      "inputs": [
        {
          "internalType": "uint256",
          "name": "_tier",
          "type": "uint256"
        }
      ],
      "name": "getTierTotalVotes",
      "outputs": [
        {
          "internalType": "uint256",
          "name": "",
          "type": "uint256"
        }
      ],
      "stateMutability": "view",
      "type": "function"
    },
    {
      "inputs": [
        {
          "internalType": "address",
          "name": "_account",
          "type": "address"
        },
        {
          "internalType": "uint256",
          "name": "_tier",
          "type": "uint256"
        }
      ],
      "name": "getTierVotes",
      "outputs": [
        {
          "internalType": "uint256",
          "name": "",
          "type": "uint256"
        }
      ],
      "stateMutability": "view",
      "type": "function"
    },
    {
      "inputs": [
        {
          "internalType": "uint256",
          "name": "_projectId",
          "type": "uint256"
        },
        {
          "internalType": "contract IJBDirectory",
          "name": "_directory",
          "type": "address"
        },
        {
          "internalType": "string",
          "name": "_name",
          "type": "string"
        },
        {
          "internalType": "string",
          "name": "_symbol",
          "type": "string"
        },
        {
          "internalType": "contract IJBFundingCycleStore",
          "name": "_fundingCycleStore",
          "type": "address"
        },
        {
          "internalType": "string",
          "name": "_baseUri",
          "type": "string"
        },
        {
          "internalType": "contract IJBTokenUriResolver",
          "name": "_tokenUriResolver",
          "type": "address"
        },
        {
          "internalType": "string",
          "name": "_contractUri",
          "type": "string"
        },
        {
          "components": [
            {
              "components": [
                {
                  "internalType": "uint80",
                  "name": "contributionFloor",
                  "type": "uint80"
                },
                {
                  "internalType": "uint48",
                  "name": "lockedUntil",
                  "type": "uint48"
                },
                {
                  "internalType": "uint40",
                  "name": "initialQuantity",
                  "type": "uint40"
                },
                {
                  "internalType": "uint16",
                  "name": "votingUnits",
                  "type": "uint16"
                },
                {
                  "internalType": "uint16",
                  "name": "reservedRate",
                  "type": "uint16"
                },
                {
                  "internalType": "address",
                  "name": "reservedTokenBeneficiary",
                  "type": "address"
                },
                {
                  "internalType": "uint8",
                  "name": "royaltyRate",
                  "type": "uint8"
                },
                {
                  "internalType": "address",
                  "name": "royaltyBeneficiary",
                  "type": "address"
                },
                {
                  "internalType": "bytes32",
                  "name": "encodedIPFSUri",
                  "type": "bytes32"
                },
                {
                  "internalType": "uint8",
                  "name": "category",
                  "type": "uint8"
                },
                {
                  "internalType": "bool",
                  "name": "allowManualMint",
                  "type": "bool"
                },
                {
                  "internalType": "bool",
                  "name": "shouldUseReservedTokenBeneficiaryAsDefault",
                  "type": "bool"
                },
                {
                  "internalType": "bool",
                  "name": "shouldUseRoyaltyBeneficiaryAsDefault",
                  "type": "bool"
                },
                {
                  "internalType": "bool",
                  "name": "transfersPausable",
                  "type": "bool"
                }
              ],
              "internalType": "struct JB721TierParams[]",
              "name": "tiers",
              "type": "tuple[]"
            },
            {
              "internalType": "uint256",
              "name": "currency",
              "type": "uint256"
            },
            {
              "internalType": "uint256",
              "name": "decimals",
              "type": "uint256"
            },
            {
              "internalType": "contract IJBPrices",
              "name": "prices",
              "type": "address"
            }
          ],
          "internalType": "struct JB721PricingParams",
          "name": "_pricing",
          "type": "tuple"
        },
        {
          "internalType": "contract IJBTiered721DelegateStore",
          "name": "_store",
          "type": "address"
        },
        {
          "components": [
            {
              "internalType": "bool",
              "name": "lockReservedTokenChanges",
              "type": "bool"
            },
            {
              "internalType": "bool",
              "name": "lockVotingUnitChanges",
              "type": "bool"
            },
            {
              "internalType": "bool",
              "name": "lockManualMintingChanges",
              "type": "bool"
            },
            {
              "internalType": "bool",
              "name": "preventOverspending",
              "type": "bool"
            }
          ],
          "internalType": "struct JBTiered721Flags",
          "name": "_flags",
          "type": "tuple"
        }
      ],
      "name": "initialize",
      "outputs": [],
      "stateMutability": "nonpayable",
      "type": "function"
    },
    {
      "inputs": [
        {
          "internalType": "address",
          "name": "owner",
          "type": "address"
        },
        {
          "internalType": "address",
          "name": "operator",
          "type": "address"
        }
      ],
      "name": "isApprovedForAll",
      "outputs": [
        {
          "internalType": "bool",
          "name": "",
          "type": "bool"
        }
      ],
      "stateMutability": "view",
      "type": "function"
    },
    {
      "inputs": [
        {
          "components": [
            {
              "internalType": "uint16[]",
              "name": "tierIds",
              "type": "uint16[]"
            },
            {
              "internalType": "address",
              "name": "beneficiary",
              "type": "address"
            }
          ],
          "internalType": "struct JBTiered721MintForTiersData[]",
          "name": "_mintForTiersData",
          "type": "tuple[]"
        }
      ],
      "name": "mintFor",
      "outputs": [],
      "stateMutability": "nonpayable",
      "type": "function"
    },
    {
      "inputs": [
        {
          "internalType": "uint16[]",
          "name": "_tierIds",
          "type": "uint16[]"
        },
        {
          "internalType": "address",
          "name": "_beneficiary",
          "type": "address"
        }
      ],
      "name": "mintFor",
      "outputs": [
        {
          "internalType": "uint256[]",
          "name": "tokenIds",
          "type": "uint256[]"
        }
      ],
      "stateMutability": "nonpayable",
      "type": "function"
    },
    {
      "inputs": [
        {
          "components": [
            {
              "internalType": "uint256",
              "name": "tierId",
              "type": "uint256"
            },
            {
              "internalType": "uint256",
              "name": "count",
              "type": "uint256"
            }
          ],
          "internalType": "struct JBTiered721MintReservesForTiersData[]",
          "name": "_mintReservesForTiersData",
          "type": "tuple[]"
        }
      ],
      "name": "mintReservesFor",
      "outputs": [],
      "stateMutability": "nonpayable",
      "type": "function"
    },
    {
      "inputs": [
        {
          "internalType": "uint256",
          "name": "_tierId",
          "type": "uint256"
        },
        {
          "internalType": "uint256",
          "name": "_count",
          "type": "uint256"
        }
      ],
      "name": "mintReservesFor",
      "outputs": [],
      "stateMutability": "nonpayable",
      "type": "function"
    },
    {
      "inputs": [],
      "name": "name",
      "outputs": [
        {
          "internalType": "string",
          "name": "",
          "type": "string"
        }
      ],
      "stateMutability": "view",
      "type": "function"
    },
    {
      "inputs": [],
      "name": "owner",
      "outputs": [
        {
          "internalType": "address",
          "name": "",
          "type": "address"
        }
      ],
      "stateMutability": "view",
      "type": "function"
    },
    {
      "inputs": [
        {
          "internalType": "uint256",
          "name": "tokenId",
          "type": "uint256"
        }
      ],
      "name": "ownerOf",
      "outputs": [
        {
          "internalType": "address",
          "name": "",
          "type": "address"
        }
      ],
      "stateMutability": "view",
      "type": "function"
    },
    {
      "inputs": [
        {
          "components": [
            {
              "internalType": "contract IJBPaymentTerminal",
              "name": "terminal",
              "type": "address"
            },
            {
              "internalType": "address",
              "name": "payer",
              "type": "address"
            },
            {
              "components": [
                {
                  "internalType": "address",
                  "name": "token",
                  "type": "address"
                },
                {
                  "internalType": "uint256",
                  "name": "value",
                  "type": "uint256"
                },
                {
                  "internalType": "uint256",
                  "name": "decimals",
                  "type": "uint256"
                },
                {
                  "internalType": "uint256",
                  "name": "currency",
                  "type": "uint256"
                }
              ],
              "internalType": "struct JBTokenAmount",
              "name": "amount",
              "type": "tuple"
            },
            {
              "internalType": "uint256",
              "name": "projectId",
              "type": "uint256"
            },
            {
              "internalType": "uint256",
              "name": "currentFundingCycleConfiguration",
              "type": "uint256"
            },
            {
              "internalType": "address",
              "name": "beneficiary",
              "type": "address"
            },
            {
              "internalType": "uint256",
              "name": "weight",
              "type": "uint256"
            },
            {
              "internalType": "uint256",
              "name": "reservedRate",
              "type": "uint256"
            },
            {
              "internalType": "string",
              "name": "memo",
              "type": "string"
            },
            {
              "internalType": "bytes",
              "name": "metadata",
              "type": "bytes"
            }
          ],
          "internalType": "struct JBPayParamsData",
          "name": "_data",
          "type": "tuple"
        }
      ],
      "name": "payParams",
      "outputs": [
        {
          "internalType": "uint256",
          "name": "weight",
          "type": "uint256"
        },
        {
          "internalType": "string",
          "name": "memo",
          "type": "string"
        },
        {
          "components": [
            {
              "internalType": "contract IJBPayDelegate",
              "name": "delegate",
              "type": "address"
            },
            {
              "internalType": "uint256",
              "name": "amount",
              "type": "uint256"
            }
          ],
          "internalType": "struct JBPayDelegateAllocation[]",
          "name": "delegateAllocations",
          "type": "tuple[]"
        }
      ],
      "stateMutability": "view",
      "type": "function"
    },
    {
      "inputs": [],
      "name": "prices",
      "outputs": [
        {
          "internalType": "contract IJBPrices",
          "name": "",
          "type": "address"
        }
      ],
      "stateMutability": "view",
      "type": "function"
    },
    {
      "inputs": [],
      "name": "pricingCurrency",
      "outputs": [
        {
          "internalType": "uint256",
          "name": "",
          "type": "uint256"
        }
      ],
      "stateMutability": "view",
      "type": "function"
    },
    {
      "inputs": [],
      "name": "pricingDecimals",
      "outputs": [
        {
          "internalType": "uint256",
          "name": "",
          "type": "uint256"
        }
      ],
      "stateMutability": "view",
      "type": "function"
    },
    {
      "inputs": [],
      "name": "projectId",
      "outputs": [
        {
          "internalType": "uint256",
          "name": "",
          "type": "uint256"
        }
      ],
      "stateMutability": "view",
      "type": "function"
    },
    {
      "inputs": [
        {
          "components": [
            {
              "internalType": "contract IJBPaymentTerminal",
              "name": "terminal",
              "type": "address"
            },
            {
              "internalType": "address",
              "name": "holder",
              "type": "address"
            },
            {
              "internalType": "uint256",
              "name": "projectId",
              "type": "uint256"
            },
            {
              "internalType": "uint256",
              "name": "currentFundingCycleConfiguration",
              "type": "uint256"
            },
            {
              "internalType": "uint256",
              "name": "tokenCount",
              "type": "uint256"
            },
            {
              "internalType": "uint256",
              "name": "totalSupply",
              "type": "uint256"
            },
            {
              "internalType": "uint256",
              "name": "overflow",
              "type": "uint256"
            },
            {
              "components": [
                {
                  "internalType": "address",
                  "name": "token",
                  "type": "address"
                },
                {
                  "internalType": "uint256",
                  "name": "value",
                  "type": "uint256"
                },
                {
                  "internalType": "uint256",
                  "name": "decimals",
                  "type": "uint256"
                },
                {
                  "internalType": "uint256",
                  "name": "currency",
                  "type": "uint256"
                }
              ],
              "internalType": "struct JBTokenAmount",
              "name": "reclaimAmount",
              "type": "tuple"
            },
            {
              "internalType": "bool",
              "name": "useTotalOverflow",
              "type": "bool"
            },
            {
              "internalType": "uint256",
              "name": "redemptionRate",
              "type": "uint256"
            },
            {
              "internalType": "string",
              "name": "memo",
              "type": "string"
            },
            {
              "internalType": "bytes",
              "name": "metadata",
              "type": "bytes"
            }
          ],
          "internalType": "struct JBRedeemParamsData",
          "name": "_data",
          "type": "tuple"
        }
      ],
      "name": "redeemParams",
      "outputs": [
        {
          "internalType": "uint256",
          "name": "reclaimAmount",
          "type": "uint256"
        },
        {
          "internalType": "string",
          "name": "memo",
          "type": "string"
        },
        {
          "components": [
            {
              "internalType": "contract IJBRedemptionDelegate",
              "name": "delegate",
              "type": "address"
            },
            {
              "internalType": "uint256",
              "name": "amount",
              "type": "uint256"
            }
          ],
          "internalType": "struct JBRedemptionDelegateAllocation[]",
          "name": "delegateAllocations",
          "type": "tuple[]"
        }
      ],
      "stateMutability": "view",
      "type": "function"
    },
    {
      "inputs": [
        {
          "internalType": "uint256",
          "name": "_tokenId",
          "type": "uint256"
        }
      ],
      "name": "redemptionWeightOf",
      "outputs": [
        {
          "internalType": "uint256",
          "name": "",
          "type": "uint256"
        }
      ],
      "stateMutability": "view",
      "type": "function"
    },
    {
      "inputs": [
        {
          "internalType": "uint256[]",
          "name": "_tokenIds",
          "type": "uint256[]"
        },
        {
          "components": [
            {
              "internalType": "contract IJBPaymentTerminal",
              "name": "terminal",
              "type": "address"
            },
            {
              "internalType": "address",
              "name": "holder",
              "type": "address"
            },
            {
              "internalType": "uint256",
              "name": "projectId",
              "type": "uint256"
            },
            {
              "internalType": "uint256",
              "name": "currentFundingCycleConfiguration",
              "type": "uint256"
            },
            {
              "internalType": "uint256",
              "name": "tokenCount",
              "type": "uint256"
            },
            {
              "internalType": "uint256",
              "name": "totalSupply",
              "type": "uint256"
            },
            {
              "internalType": "uint256",
              "name": "overflow",
              "type": "uint256"
            },
            {
              "components": [
                {
                  "internalType": "address",
                  "name": "token",
                  "type": "address"
                },
                {
                  "internalType": "uint256",
                  "name": "value",
                  "type": "uint256"
                },
                {
                  "internalType": "uint256",
                  "name": "decimals",
                  "type": "uint256"
                },
                {
                  "internalType": "uint256",
                  "name": "currency",
                  "type": "uint256"
                }
              ],
              "internalType": "struct JBTokenAmount",
              "name": "reclaimAmount",
              "type": "tuple"
            },
            {
              "internalType": "bool",
              "name": "useTotalOverflow",
              "type": "bool"
            },
            {
              "internalType": "uint256",
              "name": "redemptionRate",
              "type": "uint256"
            },
            {
              "internalType": "string",
              "name": "memo",
              "type": "string"
            },
            {
              "internalType": "bytes",
              "name": "metadata",
              "type": "bytes"
            }
          ],
          "internalType": "struct JBRedeemParamsData",
          "name": "",
          "type": "tuple"
        }
      ],
      "name": "redemptionWeightOf",
      "outputs": [
        {
          "internalType": "uint256",
          "name": "cumulativeWeight",
          "type": "uint256"
        }
      ],
      "stateMutability": "view",
      "type": "function"
    },
    {
      "inputs": [],
      "name": "renounceOwnership",
      "outputs": [],
      "stateMutability": "nonpayable",
      "type": "function"
    },
    {
      "inputs": [
        {
          "internalType": "uint256",
          "name": "_tokenId",
          "type": "uint256"
        },
        {
          "internalType": "uint256",
          "name": "_salePrice",
          "type": "uint256"
        }
      ],
      "name": "royaltyInfo",
      "outputs": [
        {
          "internalType": "address",
          "name": "",
          "type": "address"
        },
        {
          "internalType": "uint256",
          "name": "",
          "type": "uint256"
        }
      ],
      "stateMutability": "view",
      "type": "function"
    },
    {
      "inputs": [
        {
          "internalType": "address",
          "name": "from",
          "type": "address"
        },
        {
          "internalType": "address",
          "name": "to",
          "type": "address"
        },
        {
          "internalType": "uint256",
          "name": "tokenId",
          "type": "uint256"
        }
      ],
      "name": "safeTransferFrom",
      "outputs": [],
      "stateMutability": "nonpayable",
      "type": "function"
    },
    {
      "inputs": [
        {
          "internalType": "address",
          "name": "from",
          "type": "address"
        },
        {
          "internalType": "address",
          "name": "to",
          "type": "address"
        },
        {
          "internalType": "uint256",
          "name": "tokenId",
          "type": "uint256"
        },
        {
          "internalType": "bytes",
          "name": "data",
          "type": "bytes"
        }
      ],
      "name": "safeTransferFrom",
      "outputs": [],
      "stateMutability": "nonpayable",
      "type": "function"
    },
    {
      "inputs": [
        {
          "internalType": "address",
          "name": "operator",
          "type": "address"
        },
        {
          "internalType": "bool",
          "name": "approved",
          "type": "bool"
        }
      ],
      "name": "setApprovalForAll",
      "outputs": [],
      "stateMutability": "nonpayable",
      "type": "function"
    },
    {
      "inputs": [
        {
          "internalType": "string",
          "name": "_baseUri",
          "type": "string"
        }
      ],
      "name": "setBaseUri",
      "outputs": [],
      "stateMutability": "nonpayable",
      "type": "function"
    },
    {
      "inputs": [
        {
          "internalType": "string",
          "name": "_contractUri",
          "type": "string"
        }
      ],
      "name": "setContractUri",
      "outputs": [],
      "stateMutability": "nonpayable",
      "type": "function"
    },
    {
      "inputs": [
        {
          "internalType": "address",
          "name": "_beneficiary",
          "type": "address"
        }
      ],
      "name": "setDefaultReservedTokenBeneficiary",
      "outputs": [],
      "stateMutability": "nonpayable",
      "type": "function"
    },
    {
      "inputs": [
        {
          "internalType": "uint256",
          "name": "_tierId",
          "type": "uint256"
        },
        {
          "internalType": "bytes32",
          "name": "_encodedIPFSUri",
          "type": "bytes32"
        }
      ],
      "name": "setEncodedIPFSUriOf",
      "outputs": [],
      "stateMutability": "nonpayable",
      "type": "function"
    },
    {
      "inputs": [
        {
          "internalType": "address",
          "name": "_delegatee",
          "type": "address"
        },
        {
          "internalType": "uint256",
          "name": "_tierId",
          "type": "uint256"
        }
      ],
      "name": "setTierDelegate",
      "outputs": [],
      "stateMutability": "nonpayable",
      "type": "function"
    },
    {
      "inputs": [
        {
          "components": [
            {
              "internalType": "address",
              "name": "delegatee",
              "type": "address"
            },
            {
              "internalType": "uint256",
              "name": "tierId",
              "type": "uint256"
            }
          ],
          "internalType": "struct JBTiered721SetTierDelegatesData[]",
          "name": "_setTierDelegatesData",
          "type": "tuple[]"
        }
      ],
      "name": "setTierDelegates",
      "outputs": [],
      "stateMutability": "nonpayable",
      "type": "function"
    },
    {
      "inputs": [
        {
          "components": [
            {
              "internalType": "uint256",
              "name": "id",
              "type": "uint256"
            },
            {
              "internalType": "uint256",
              "name": "redemptionWeight",
              "type": "uint256"
            }
          ],
          "internalType": "struct DefifaTierRedemptionWeight[]",
          "name": "_tierWeights",
          "type": "tuple[]"
        }
      ],
      "name": "setTierRedemptionWeights",
      "outputs": [],
      "stateMutability": "nonpayable",
      "type": "function"
    },
    {
      "inputs": [
        {
          "internalType": "contract IJBTokenUriResolver",
          "name": "_tokenUriResolver",
          "type": "address"
        }
      ],
      "name": "setTokenUriResolver",
      "outputs": [],
      "stateMutability": "nonpayable",
      "type": "function"
    },
    {
      "inputs": [],
      "name": "store",
      "outputs": [
        {
          "internalType": "contract IJBTiered721DelegateStore",
          "name": "",
          "type": "address"
        }
      ],
      "stateMutability": "view",
      "type": "function"
    },
    {
      "inputs": [
        {
          "internalType": "bytes4",
          "name": "_interfaceId",
          "type": "bytes4"
        }
      ],
      "name": "supportsInterface",
      "outputs": [
        {
          "internalType": "bool",
          "name": "",
          "type": "bool"
        }
      ],
      "stateMutability": "view",
      "type": "function"
    },
    {
      "inputs": [],
      "name": "symbol",
      "outputs": [
        {
          "internalType": "string",
          "name": "",
          "type": "string"
        }
      ],
      "stateMutability": "view",
      "type": "function"
    },
    {
      "inputs": [],
      "name": "tierRedemptionWeights",
      "outputs": [
        {
          "internalType": "uint256[128]",
          "name": "",
          "type": "uint256[128]"
        }
      ],
      "stateMutability": "view",
      "type": "function"
    },
    {
      "inputs": [
        {
          "internalType": "uint256",
          "name": "_tokenId",
          "type": "uint256"
        }
      ],
      "name": "tokenURI",
      "outputs": [
        {
          "internalType": "string",
          "name": "",
          "type": "string"
        }
      ],
      "stateMutability": "view",
      "type": "function"
    },
    {
      "inputs": [
        {
          "components": [
            {
              "internalType": "contract IJBPaymentTerminal",
              "name": "terminal",
              "type": "address"
            },
            {
              "internalType": "address",
              "name": "holder",
              "type": "address"
            },
            {
              "internalType": "uint256",
              "name": "projectId",
              "type": "uint256"
            },
            {
              "internalType": "uint256",
              "name": "currentFundingCycleConfiguration",
              "type": "uint256"
            },
            {
              "internalType": "uint256",
              "name": "tokenCount",
              "type": "uint256"
            },
            {
              "internalType": "uint256",
              "name": "totalSupply",
              "type": "uint256"
            },
            {
              "internalType": "uint256",
              "name": "overflow",
              "type": "uint256"
            },
            {
              "components": [
                {
                  "internalType": "address",
                  "name": "token",
                  "type": "address"
                },
                {
                  "internalType": "uint256",
                  "name": "value",
                  "type": "uint256"
                },
                {
                  "internalType": "uint256",
                  "name": "decimals",
                  "type": "uint256"
                },
                {
                  "internalType": "uint256",
                  "name": "currency",
                  "type": "uint256"
                }
              ],
              "internalType": "struct JBTokenAmount",
              "name": "reclaimAmount",
              "type": "tuple"
            },
            {
              "internalType": "bool",
              "name": "useTotalOverflow",
              "type": "bool"
            },
            {
              "internalType": "uint256",
              "name": "redemptionRate",
              "type": "uint256"
            },
            {
              "internalType": "string",
              "name": "memo",
              "type": "string"
            },
            {
              "internalType": "bytes",
              "name": "metadata",
              "type": "bytes"
            }
          ],
          "internalType": "struct JBRedeemParamsData",
          "name": "",
          "type": "tuple"
        }
      ],
      "name": "totalRedemptionWeight",
      "outputs": [
        {
          "internalType": "uint256",
          "name": "",
          "type": "uint256"
        }
      ],
      "stateMutability": "view",
      "type": "function"
    },
    {
      "inputs": [
        {
          "internalType": "address",
          "name": "from",
          "type": "address"
        },
        {
          "internalType": "address",
          "name": "to",
          "type": "address"
        },
        {
          "internalType": "uint256",
          "name": "tokenId",
          "type": "uint256"
        }
      ],
      "name": "transferFrom",
      "outputs": [],
      "stateMutability": "nonpayable",
      "type": "function"
    },
    {
      "inputs": [
        {
          "internalType": "address",
          "name": "newOwner",
          "type": "address"
        }
      ],
      "name": "transferOwnership",
      "outputs": [],
      "stateMutability": "nonpayable",
      "type": "function"
    }
  ],
  "bytecode": {
    "object": "0x608080604052346100665760078054336001600160a01b03198083168217909355906001600160a01b03167f8be0079c531659141344cd1fd0a4f28419497f9722a3daafe3b4186f6b6457e0600080a330906008541617600855615bb190816200006c8239f35b600080fdfe6080604052600436101561001257600080fd5b60003560e01c806301ffc9a71461039757806306fdde0314610392578063081812fc1461038d578063095ea7b3146103885780631d153ca41461038357806323b872dd1461037e5780632407497e14610379578063245a45b51461037457806325eb91ee1461036f5780632a55205a1461036a5780632a596e53146103655780632b13c58f146103605780632f4415001461035b57806336c1a93b146103565780633fafa1271461035157806342842e0e1461034c5780634ecba625146103475780634f228e1114610342578063525350ba1461033d57806354c6d1f514610338578063557e7155146103335780636352211e1461032e578063640abacd1461032957806364640c1e146103245780636ac6d9411461031f57806370a082311461031a578063715018a6146103155780637ba62bf91461031057806382732b6d1461030b5780638da5cb5b146103065780639494bf721461030157806394c5c5ca146102fc57806395d89b41146102f7578063975057e7146102f25780639df45468146102ed578063a0bcfc7f146102e8578063a22cb465146102e3578063a51cfd18146102de578063aa4fb15b146102d9578063ab951e39146102d4578063b88d4fde146102cf578063c41c2f24146102ca578063c74b13d9146102c5578063c87b56dd146102c0578063ca323efe146102bb578063ccb4807b146102b6578063d1704baf146102b1578063d31cc52c146102ac578063d3419bf3146102a7578063d40e7146146102a2578063d46cf1711461029d578063da9ee8b714610298578063df487e2614610293578063e8a3d4851461028e578063e985e9c5146102895763f2fde38b1461028457600080fd5b6123e8565b612380565b6122f8565b612249565b612162565b6120a7565b611fed565b611fc4565b611f96565b611ece565b611b78565b611b25565b611af2565b611a41565b611a18565b6119b1565b611935565b611916565b61188c565b6117dd565b61171c565b61164e565b611625565b611580565b611545565b611528565b6114ff565b6114b3565b61145d565b6113a1565b61130f565b6112bb565b611262565b611243565b611225565b6111fc565b6111de565b61111f565b6110f9565b6110db565b6110b3565b611095565b610fea565b610f58565b610aa7565b6109ea565b61093f565b6108cd565b610860565b610780565b61074c565b6106f7565b610656565b610608565b610529565b6103b3565b6001600160e01b03198116036103ae57565b600080fd5b346103ae5760203660031901126103ae576104016004356103d38161039c565b63ffffffff60e01b166306decc2d60e21b8114908115610405575b5060405190151581529081906020820190565b0390f35b63b3bcbb7960e01b8114915081156104b1575b81156104a0575b811561048f575b811561047e575b811561043b575b50386103ee565b6380ac58cd60e01b81149150811561046d575b811561045c575b5038610434565b6301ffc9a760e01b14905038610455565b635b5e139f60e01b8114915061044e565b63152a902d60e11b8114915061042d565b632b13c58f60e01b81149150610426565b63da9ee8b760e01b8114915061041f565b6371700c6960e01b81149150610418565b60009103126103ae57565b60005b8381106104e05750506000910152565b81810151838201526020016104d0565b90602091610509815180928185528580860191016104cd565b601f01601f1916010190565b9060206105269281815201906104f0565b90565b346103ae57600080600319360112610605576040519080805461054b81613f1f565b808552916001918083169081156105db5750600114610581575b6104018561057581870382610eab565b60405191829182610515565b80809450527f290decd9548b62a8d60345a988386fc84ba6bc95484008f6362f93160ef3e5635b8284106105c357505050810160200161057582610401610565565b805460208587018101919091529093019281016105a8565b8695506104019693506020925061057594915060ff191682840152151560051b8201019293610565565b80fd5b346103ae5760203660031901126103ae576020610626600435613f59565b6040516001600160a01b039091168152f35b6001600160a01b038116036103ae57565b359061065482610638565b565b346103ae5760403660031901126103ae5760043561067381610638565b6024356001600160a01b038061068883613eec565b1680918416146106e5578033141590816106bf575b506106ad576106ab916149f9565b005b60405163e5fa0e3560e01b8152600490fd5b600090815260046020908152604080832033845290915290205460ff161590503861069d565b60405163133f8be960e01b8152600490fd5b346103ae5760003660031901126103ae576008546040516001600160a01b039091168152602090f35b60609060031901126103ae5760043561073881610638565b9060243561074581610638565b9060443590565b346103ae5761075a36610720565b906107658233613fd0565b156106ad576106ab92614754565b60c4359061065482610638565b346103ae57600060203660031901126106055760043561079f81610638565b6107a761562c565b6009546001600160a01b03908116803b1561085c5760405163036129cb60e61b81526001600160a01b03841660048201529084908290602490829084905af1801561085757610824575b506040513381529116907fe7784d93cfbfa4408e19577e6cc0436f4dbb51214b70e100905dfce9def88c1690602090a280f35b926108507fe7784d93cfbfa4408e19577e6cc0436f4dbb51214b70e100905dfce9def88c169294610e0b565b92906107f1565b612643565b8380fd5b346103ae5760203660031901126103ae5760043561087d81610638565b60018060a01b0316600052600e6020526020604060002054604051908152f35b9181601f840112156103ae578235916001600160401b0383116103ae576020808501948460051b0101116103ae57565b346103ae5760403660031901126103ae576004356001600160401b038082116103ae57366023830112156103ae578160040135918183116103ae573660246101c08502830101116103ae576024359182116103ae576106ab92610936602493369060040161089d565b93909201613744565b346103ae576040806003193601126103ae5760648160018060a01b03600954168151928380926329c5eaf560e11b8252306004830152600435602483015260243560448301525afa9182156108575760009182936109b5575b50516001600160a01b039190911681526020810191909152604090f35b816109db92945061040193503d85116109e3575b6109d38183610eab565b8101906130b8565b929091610998565b503d6109c9565b346103ae576020806003193601126103ae57600435906001600160401b03908183116103ae57366023840112156103ae5782600401359182116103ae57602490600693368385871b830101116103ae5760005b848110610a4657005b600190610a68610a5c3687848b1b870101610f30565b85815191015190613b2a565b01610a3d565b90816101e09103126103ae5790565b60206003198201126103ae57600435906001600160401b0382116103ae5761052691600401610a6e565b610ab036610a7d565b3415801590610d63575b8015610d53575b610d415760a0810135908115610d2f576101c081016024610ae28284612479565b9050108015610cf7575b610ce557610afd610b059183612479565b81019061258a565b8051600a549193509150610b29906001600160a01b03165b6001600160a01b031690565b9060055493604092835180916321d1336160e11b82526101209283918180610b5a60049c8d83019190602083019252565b03915afa908115610857578792600092610cb8575b505051149460005b838110610ba3578787610b8988613e99565b610b8f57005b610b9e6106ab91609254612743565b609255565b610bad8187612576565b5190610bd3610bc6836000526002602052604060002090565b546001600160a01b031690565b610bdf610b1d86612da2565b6001600160a01b0390911603610ca85787610bf983614531565b610c08575b6001915001610b77565b600954610c4490610c21906001600160a01b0316610b1d565b92875180946342f9914b60e01b8252818060209586958a83019190602083019252565b03915afa801561085757600193610c6f92600092610c7b575b50506000526093602052604060002090565b80546001019055610bfe565b610c9a9250803d10610ca1575b610c928183610eab565b8101906129e9565b3880610c5d565b503d610c88565b855163075fd2b160e01b81528390fd5b610cd79250803d10610cde575b610ccf8183610eab565b8101906125cf565b3880610b6f565b503d610cc5565b604051632a84050f60e01b8152600490fd5b50610d0b610d058284612479565b906124ab565b63b3bcbb7960e01b916001600160e01b031991610d27916124cd565b161415610aec565b604051637691472960e01b8152600490fd5b604051633efca5c360e11b8152600490fd5b5060055460208201351415610ac1565b50600654610dad90602090610d80906001600160a01b0316610b1d565b600554604051636e49181f60e01b8152600481019190915233602482015292839190829081906044820190565b03915afa90811561085757600091610dc7575b5015610aba565b610de8915060203d8111610dee575b610de08183610eab565b810190612d8d565b38610dc0565b503d610dd6565b634e487b7160e01b600052604160045260246000fd5b6001600160401b038111610e1e57604052565b610df5565b604081019081106001600160401b03821117610e1e57604052565b608081019081106001600160401b03821117610e1e57604052565b602081019081106001600160401b03821117610e1e57604052565b61100081019081106001600160401b03821117610e1e57604052565b606081019081106001600160401b03821117610e1e57604052565b90601f801991011681019081106001600160401b03821117610e1e57604052565b604051906101c082018281106001600160401b03821117610e1e57604052565b6040519061065482610e23565b6040519061012082018281106001600160401b03821117610e1e57604052565b6001600160401b038111610e1e5760051b60200190565b91908260409103126103ae57604051610f4881610e23565b6020808294803584520135910152565b346103ae576020806003193601126103ae57600435906001600160401b0382116103ae57366023830112156103ae57816004013591610f9683610f19565b91604093610fa685519485610eab565b80845260248285019160061b840101923684116103ae57602401905b838210610fd2576106ab85612b95565b828691610fdf3685610f30565b815201910190610fc2565b346103ae576020806003193601126103ae576001600160401b03906004358281116103ae5761101d90369060040161089d565b919061102761562c565b60005b83811061103357005b60059080821b830135603e19843603018112156103ae5783018035601e19823603018112156103ae578101928335938885116103ae5786859101911b360381136103ae576001936110888761108e9401612da2565b91613d07565b500161102a565b346103ae5760003660031901126103ae576020600554604051908152f35b346103ae576106ab6110c436610720565b90604051926110d284610e59565b60008452613f91565b346103ae5760003660031901126103ae576020600d54604051908152f35b346103ae5760203660031901126103ae576020611117600435612a46565b604051908152f35b346103ae5760403660031901126103ae5760043560243561113e61562c565b6009546001600160a01b031690813b156103ae57600080926044604051809581936324de8d6360e11b83528860048401528660248401525af1908115610857577f677da4fed654db8e604791fa2582f342e2001aa217e27f6985eb3e0f67e5a7fc926111c0926111c5575b506040805191825233602083015290918291820190565b0390a2005b806111d26111d892610e0b565b806104c2565b386111a9565b346103ae5760203660031901126103ae57602061062660043561301e565b346103ae5760003660031901126103ae57600a546040516001600160a01b039091168152602090f35b346103ae5760203660031901126103ae576020610626600435613eec565b346103ae5760003660031901126103ae576020604051633b9aca008152f35b346103ae5760003660031901126103ae576020600c54604051908152f35b6020908160408183019282815285518094520193019160005b8281106112a7575050505090565b835185529381019392810192600101611299565b346103ae5760403660031901126103ae576004356001600160401b0381116103ae576113036112f161040192369060040161089d565b602435916112fe83610638565b613d07565b60405191829182611280565b346103ae5760203660031901126103ae5760043561132c81610638565b600954604051633de222bb60e21b81523060048201526001600160a01b0392831660248201529160209183916044918391165afa80156108575761040191600091611383575b506040519081529081906020820190565b61139b915060203d8111610ca157610c928183610eab565b38611372565b346103ae57600080600319360112610605576113bb61562c565b600780546001600160a01b0319811690915581906001600160a01b03167f8be0079c531659141344cd1fd0a4f28419497f9722a3daafe3b4186f6b6457e08280a380f35b81601f820112156103ae5780359161141683610f19565b926114246040519485610eab565b808452602092838086019260051b8201019283116103ae578301905b82821061144e575050505090565b81358152908301908301611440565b346103ae5760403660031901126103ae576001600160401b036004358181116103ae5761148e9036906004016113ff565b906024359081116103ae576020916114ad611117923690600401610a6e565b506129a9565b346103ae5760403660031901126103ae5760206004356114d281610638565b60018060a01b03809116600052600f82526040600020602435600052825260406000205416604051908152f35b346103ae5760003660031901126103ae576007546040516001600160a01b039091168152602090f35b346103ae5761153636610a7d565b506020604051633b9aca008152f35b346103ae5760203660031901126103ae576004356000526011602052602060018060e01b036115776040600020615888565b16604051908152f35b346103ae5760008060031936011261060557604051908060018054916115a583613f1f565b808652928281169081156105db57506001146115cb576104018561057581870382610eab565b92508083527fb10e2d527612073b26eecdfd717e6a320cf44b4afac2b0732d9fcbe2b7fa0cf65b82841061160d57505050810160200161057582610401610565565b805460208587018101919091529093019281016115f2565b346103ae5760003660031901126103ae576009546040516001600160a01b039091168152602090f35b346103ae5760003660031901126103ae5760405161166b81610e74565b611000809136903760405160126000825b608082106116bd5750505061169081610e74565b60405190600090825b608083106116a657505050f35b600190825181526020809101920192019190611699565b600160208192855481520193019101909161167c565b9060206003198301126103ae576004356001600160401b03928382116103ae57806023830112156103ae5781600401359384116103ae57602484830101116103ae576024019190565b346103ae5761172a366116d3565b61173261562c565b600954600091906001600160a01b0316803b156117c4578260405180926331315e5960e11b825281838161176a888b60048401613aed565b03925af18015610857576117b1575b506117849192613b15565b7f7bc9110d5de090dd59e07912d2b93a5a27ac70a60c8d8e324db4f9ee8b8b5c136020604051338152a280f35b916117be61178493610e0b565b91611779565b8280fd5b801515036103ae57565b3590610654826117c8565b346103ae5760403660031901126103ae576004356117fa81610638565b602435611806816117c8565b6001600160a01b0382169133831461187a573360009081526004602090815260408083206001600160a01b039094168352929052209015159060ff1981541660ff83161790556040519081527f17307eab39ab6107e8899845ad3d59bd9653f200f220920489ca2b5937696c3160203392a3005b6040516306f8139d60e11b8152600490fd5b346103ae576118a261189d36610a7d565b612750565b6040929192805193849384526118c460209160608387015260608601906104f0565b90848203838601528080855193848152019401926000905b8382106118e95786860387f35b845180516001600160a01b03168752830151868401528796509485019493820193600191909101906118dc565b346103ae5760403660031901126103ae576106ab602435600435613b2a565b346103ae5760403660031901126103ae576106ab60043561195581610638565b6024359033612e15565b6001600160401b038111610e1e57601f01601f191660200190565b9291926119868261195f565b916119946040519384610eab565b8294818452818301116103ae578281602093846000960137010152565b346103ae5760803660031901126103ae576004356119ce81610638565b6024356119da81610638565b606435916001600160401b0383116103ae57366023840112156103ae57611a0e6106ab93369060248160040135910161197a565b9160443591613f91565b346103ae5760003660031901126103ae576006546040516001600160a01b039091168152602090f35b346103ae576020806003193601126103ae57600435906001600160401b0382116103ae57366023830112156103ae57816004013591611a7f83610f19565b91604093611a8f85519485610eab565b80845260248285019160061b840101923684116103ae57602401905b838210611abb576106ab85612dac565b85823603126103ae578286918251611ad281610e23565b8435611add81610638565b81528285013583820152815201910190611aab565b346103ae5760203660031901126103ae57610401611b11600435613135565b6040519182916020835260208301906104f0565b346103ae5760403660031901126103ae57600435611b4281610638565b6001600160a01b03166000908152601060209081526040808320602435845282529091206001600160e01b039061157790615888565b346103ae57611b86366116d3565b611b8e61562c565b600954600091906001600160a01b0316803b156117c45782604051809263d67b78fd60e01b8252818381611bc6888b60048401613aed565b03925af1801561085757611c0d575b50611be09192613b15565b7fd36dc0c1a06103fdcaf15f3f6fb797d1a97997514c78de073640c8b5005454b86020604051338152a280f35b91611c1a611be093610e0b565b91611bd5565b6024359061065482610638565b9080601f830112156103ae578160206105269335910161197a565b6084359061065482610638565b359069ffffffffffffffffffff821682036103ae57565b359065ffffffffffff821682036103ae57565b359064ffffffffff821682036103ae57565b61ffff8116036103ae57565b359061065482611c91565b359060ff821682036103ae57565b91909160809081818503126103ae576040805192611cd384610e3e565b839583356001600160401b0381116103ae57840181601f820112156103ae57803590611cfe82610f19565b92611d0b86519485610eab565b82845260209485850191866101c0809602850101938185116103ae578701925b848410611d5e5750505092875250505080830135908401528082013590830152606090611d59908201610649565b910152565b85848303126103ae57878691611d72610ecc565b611d7b87611c55565b8152611d88838801611c6c565b83820152611d978c8801611c7f565b8c8201526060611da8818901611c9d565b90820152611db7868801611c9d565b8682015260a0611dc8818901610649565b9082015260c0611dd9818901611ca8565b9082015260e0611dea818901610649565b908201526101008088013590820152610120611e07818901611ca8565b90820152610140611e198189016117d2565b90820152610160611e2b8189016117d2565b90820152610180611e3d8189016117d2565b908201526101a0611e4f8189016117d2565b90820152815201930192611d2b565b610124359061065482610638565b6080906101431901126103ae5760405190611e8682610e3e565b8161014435611e94816117c8565b815261016435611ea3816117c8565b602082015261018435611eb5816117c8565b604082015260606101a43591611eca836117c8565b0152565b346103ae576101c03660031901126103ae57611ee8611c20565b6044356001600160401b03918282116103ae57611f0a60049236908401611c2d565b6064358481116103ae57611f219036908501611c2d565b611f29611c48565b60a4358681116103ae57611f409036908701611c2d565b611f48610773565b9160e4358881116103ae57611f609036908901611c2d565b93610104359889116103ae57611f7c6106ab9936908a01611cb6565b95611f85611e5e565b97611f8f36611e6c565b9935613442565b346103ae5760403660031901126103ae576004356000526011602052602061111760243560406000206156cd565b346103ae5760003660031901126103ae57600b546040516001600160a01b039091168152602090f35b346103ae5760603660031901126103ae5760043561200a81610638565b60018060a01b031660005260106020526040600020602435600052602052602061111760443560406000206156cd565b9190825261205460209160608385015260608401906104f0565b90604092838184039101528080855193848152019401926000905b83821061207e57505050505090565b845180516001600160a01b0316875283015186840152948501949382019360019091019061206f565b346103ae57602060031981813601126103ae57600435906001600160401b0382116103ae576101a09082360301126103ae576120f46120ed610164830183600401612479565b369161197a565b6040519061210182610e23565b6001825260005b84811061214c57509061040191610124946000612123610eec565b3081529182015261213383612564565b5261213d82612564565b5060405194859401358461203a565b84906121566124f9565b82828601015201612108565b6003196020368201126103ae57600435906001600160401b0382116103ae576102009082360301126103ae576005543415908115916121d5575b81156121c6575b506121b4576106ab90600401614f00565b6040516331c57b1b60e21b8152600490fd5b905060248201351415386121a3565b6006549091506121ed906001600160a01b0316610b1d565b604051636e49181f60e01b81526004810183905233602482015290602090829060449082905afa9081156108575760009161222b575b50159061219c565b612243915060203d8111610dee57610de08183610eab565b38612223565b346103ae5760203660031901126103ae5760043561226681610638565b61226e61562c565b6009546001600160a01b0390811691823b156103ae576000916024839260405194859384926317161f7d60e01b845216968760048401525af18015610857576122e5575b506040513381527fab0014d4c7a642a02a31b303a318908c22b0fb2001f107278fc6076b4c671b659080602081016111c0565b806111d26122f292610e0b565b386122b2565b346103ae5760008060031936011261060557600954604051630155619b60e71b8152306004820152908290829060249082906001600160a01b03165afa9081156108575782610401939261235d575b50506040519182916020835260208301906104f0565b61237992503d8091833e6123718183610eab565b8101906130d7565b3880612347565b346103ae5760403660031901126103ae57602060ff6123dc6004356123a481610638565b602435906123b182610638565b60018060a01b03166000526004845260406000209060018060a01b0316600052602052604060002090565b54166040519015158152f35b346103ae5760203660031901126103ae5760043561240581610638565b61240d61562c565b6001600160a01b03811615612425576106ab90615684565b60405162461bcd60e51b815260206004820152602660248201527f4f776e61626c653a206e6577206f776e657220697320746865207a65726f206160448201526564647265737360d01b6064820152608490fd5b903590601e19813603018212156103ae57018035906001600160401b0382116103ae576020019181360383136103ae57565b906024116103ae5760200190600490565b906044116103ae5760400190600490565b6001600160e01b031990358181169392600481106124ea57505050565b60040360031b82901b16169150565b6040519061250682610e23565b60006020838281520152565b6040519061251f82610e23565b600182528160005b602090818110156125495760209161253d6124f9565b90828501015201612527565b505050565b634e487b7160e01b600052603260045260246000fd5b8051156125715760200190565b61254e565b80518210156125715760209160051b010190565b916060838303126103ae5782359260208101356125a68161039c565b9260408201356001600160401b0381116103ae5761052692016113ff565b519061065482610638565b90816101209103126103ae576125e3610ef9565b90805182526020810151602083015260408101516040830152606081015160608301526080810151608083015260a081015160a083015260c081015160c083015261263060e082016125c4565b60e0830152610100809101519082015290565b6040513d6000823e3d90fd5b5190610654826117c8565b90816101c09103126103ae5761266e610ecc565b90805182526020810151602083015260408101516040830152606081015160608301526080810151608083015260a081015160a083015260c081015160c08301526126bb60e082016125c4565b60e083015261010080820151908301526101206126d98183016125c4565b908301526101408082015190830152610160808201519083015261018061270181830161264f565b908301526127136101a080920161264f565b9082015290565b634e487b7160e01b600052601160045260246000fd5b906001820180921161273e57565b61271a565b9190820180921161273e57565b9060009060006080840135612997576101c0928385019360246127738688612479565b9050108015612965575b610ce557612789612512565b946127be610afd612798610eec565b3081529260209387858201526127ad8a612564565b526127b789612564565b5089612479565b600a54909692506127d891506001600160a01b0316610b1d565b92604089815180966321d1336160e11b825261012097889181806128088860049801358883019190602083019252565b03915afa968715610857578597612946575b505060018096511461286657505050505050506120ed6128566128629261285061284a60925460c08a0135612743565b916129a9565b90615aef565b946101a0810190612479565b9190565b959996939291908451948397612886610b1d60095460018060a01b031690565b915b878a106128ab57505050505050505050506120ed816101a0612862930190612479565b9091929394959697989c6128ee90868f6128c59085612576565b51875163b67cb04760e01b81523087820190815260208101929092529384918291604090910190565b0381885afa918215610857578b928a918a91612919575b500151019d01989796959493929190612888565b6129399150893d8b1161293f575b6129318183610eab565b81019061265a565b38612905565b503d612927565b61295d929750803d10610cde57610ccf8183610eab565b94388061281a565b50612973610d058688612479565b63b3bcbb7960e01b916001600160e01b03199161298f916124cd565b16141561277d565b6040516309f82f1b60e31b8152600490fd5b9060009180516000915b8183106129bf57505050565b9091936129d56129cf8684612576565b51612a46565b810180911161273e579360010191906129b3565b908160209103126103ae575190565b60001981019190821161273e57565b9190820391821161273e57565b60808110156125715760120190600090565b8115612a30570490565b634e487b7160e01b600052601260045260246000fd5b600954612a8290602090612a62906001600160a01b0316610b1d565b92604051809381926342f9914b60e01b8352600483019190602083019252565b0381855afa90811561085757600091612b77575b50604051633a39e4d160e11b8152306004820152602481018290526101c0928390829060449082905afa92831561085757600093612b58575b5050612aef612ae5612ae0836129f8565b612a14565b90549060031b1c90565b908115612b50576080830190612b0d60608351950194855190612a07565b15612b4757612b3a612b2961052695612b419451905190612a07565b916000526093602052604060002090565b5490612743565b90612a26565b50505050600090565b505050600090565b612b6f929350803d1061293f576129318183610eab565b903880612acf565b612b8f915060203d8111610ca157610c928183610eab565b38612a96565b612b9d61562c565b600a54612bb2906001600160a01b0316610b1d565b60055491604091825180916321d1336160e11b82526101209283918180612be260049a8b83019190602083019252565b03915afa908115610857578592600092612d3f575b50505110612d3157612c07612d5c565b600954612c1c906001600160a01b0316610b1d565b825163f1bea54f60e01b81523085820190815290916020918291849182908190850103915afa91821561085757600092612d12575b50909160009181519183945b838610612c855750505050633b9aca00915011612c78575050565b51636ff44e9760e01b8152fd5b9091929381612c948785612576565b515111612d0257612cf6600191612ce286612caf8a88612576565b510151612cc9612ae0612cc28c8a612576565b51516129f8565b90919082549060031b91821b91600019901b1916179055565b85612ced8987612576565b51015190612743565b95019493929190612c5d565b865163148e14dd60e21b81528890fd5b81612d2a9293503d8411610ca157610c928183610eab565b9038612c51565b50516303e08a3560e61b8152fd5b612d559250803d10610cde57610ccf8183610eab565b3880612bf7565b60125b60928110612d6a5750565b60008155600101612d5f565b818110612d81575050565b60008155600101612d76565b908160209103126103ae5751610526816117c8565b3561052681610638565b805190612db76124f9565b5060005b828110612dc757505050565b612dd18183612576565b5180519091906001600160a01b0390811615612e0357826020612dfd9260019551169101519033612e15565b01612dbb565b6040516314f4c13d60e21b8152600490fd5b6001600160a01b039081166000818152600f602090815260408083208784528252822080548686166001600160a01b03198216811790925592969195919491939282169291869184847f3134e8a2e6d97e929a7e54011ea5485d7d196dd5f0ba4d4ef95803e8e3fc257f8b80a460095416916064604051809481936305c9a1d560e31b835230600484015260248301528860448301525afa948515610857576106549695612ec5575b5050612ee4565b612edc929550803d10610ca157610c928183610eab565b923880612ebe565b91926001600160a01b03808316939192919081168085148015613001575b612ff957859181612f8c575b50505082612f1d575b50505050565b6001600160a01b031660009081526010602052604090207fed0c1e94c302bdbbd8bbd6a4fb7c3ed335c2292407cd816eadd075d019d0ce0491612f6b91856000526020526040600020615860565b6040805192835260208301919091523390820152606090a338808080612f17565b6001600160a01b03166000908152601060205260409020826000526020527fed0c1e94c302bdbbd8bbd6a4fb7c3ed335c2292407cd816eadd075d019d0ce04612fd98560406000206157c6565b6040805192835260208301919091523390820152606090a3833880612f0e565b505050505050565b508315612f02565b908160209103126103ae575161052681610638565b6009546040516308ed6c0160e41b8152306004820152602481018390526001600160a01b0392916020908290604490829087165afa9081156108575760009161308a575b50828116613084575061307f906000526002602052604060002090565b541690565b91505090565b6130ab915060203d81116130b1575b6130a38183610eab565b810190613009565b38613062565b503d613099565b91908260409103126103ae57602082516130d181610638565b92015190565b6020818303126103ae578051906001600160401b0382116103ae570181601f820112156103ae5780516131098161195f565b926131176040519485610eab565b818452602082840101116103ae5761052691602080850191016104cd565b60095461314a906001600160a01b0316610b1d565b604051630fab094760e01b8152306004820152602092908381602481865afa90811561085757600091613287575b506001600160a01b03168061323d575060405163f682eeaf60e01b8152306004820152600081602481865afa918215610857576131e5938592600094613222575b50604051630c8df17160e41b815230600482015260248101929092529093849190829081906044820190565b03915afa9182156108575761052693600093613203575b50506152a9565b61321a929350803d10610ca157610c928183610eab565b9038806131fc565b61323691943d8091833e6123718183610eab565b92386131b9565b604051636d02a25560e11b8152600481019290925290925060009150829060249082905afa90811561085757600091613274575090565b610526913d8091833e6123718183610eab565b61329e9150843d86116130b1576130a38183610eab565b38613178565b81601f820112156103ae578051916132bb83610f19565b926132c96040519485610eab565b808452602092838086019260051b8201019283116103ae578301905b8282106132f3575050505090565b815181529083019083016132e5565b906020828203126103ae5781516001600160401b0381116103ae5761052692016132a4565b60208082019080835283518092528060408094019401926000905b83821061335157505050505090565b9091929394836101c0600192613435895161337883825169ffffffffffffffffffff169052565b8085015165ffffffffffff16838601528087015164ffffffffff168388015260608181015161ffff169084015260808181015161ffff169084015260a0818101516001600160a01b03169084015260c08181015160ff169084015260e0818101516001600160a01b03169084015261010081810151908401526101208082015160ff16908401526101408181015115159084015261016081810151151590840152610180818101511515908401526101a090810151151590830152565b0196019493920190613342565b9092999896939197959499613461610b1d60085460018060a01b031690565b30146103ae576009546001600160a01b0399908a90613481908216610b1d565b166103ae576134b59461349393614b8f565b60018060a01b03166bffffffffffffffffffffffff60a01b600a541617600a55565b600980546001600160a01b0319166001600160a01b0386161790556134dd6020840151600c55565b6040966134ec88850151600d55565b6060840151600b80546001600160a01b0319166001600160a01b0390921691909117905580516136f3575b5080516136a2575b5083811661364f575b505180516135fa575b508251151580156135ed575b80156135e1575b80156135d4575b61355d575b5050505061065433615684565b1691823b156103ae57516365c13f1960e11b815281511515600482015260208201511515602482015260408201511515604482015260609091015115156064820152906000908290608490829084905af18015610857576135c1575b808080613550565b806111d26135ce92610e0b565b386135b9565b506060830151151561354b565b50828401511515613544565b506020830151151561353d565b60006136199186518093819263229dad5f60e11b835260048301613327565b0381838787165af18015610857571561353157613648903d806000833e6136408183610eab565b810190613302565b5038613531565b838316803b156103ae57865163036129cb60e61b81526001600160a01b039290921660048301526000908290602490829084905af18015610857571561352857806111d261369c92610e0b565b38613528565b848416803b156103ae57875163d67b78fd60e01b81529160009183918290849082906136d19060048301610515565b03925af18015610857571561351f57806111d26136ed92610e0b565b3861351f565b858516803b156103ae5788516331315e5960e11b81529160009183918290849082906137229060048301610515565b03925af18015610857571561351757806111d261373e92610e0b565b38613517565b91909261374f61562c565b8061382d575b505081613760575050565b600954613775906001600160a01b0316610b1d565b9160409060008251809563229dad5f60e11b825281838161379a878a60048401613a7a565b03925af193841561085757600094613812575b5060005b8181106137bf575050505050565b806137cc60019287612576565b517f8aa4a03deb8db10032373886aa0376c918ccf36bcdb59ca4da2a807ac7ff1a046138096137fc84878a613ab8565b8751918291339083613ac9565b0390a2016137b1565b61382691943d8091833e6136408183610eab565b92386137ad565b600954613842906001600160a01b0316610b1d565b90813b156103ae576040916000835180926320512ba160e01b825281838161386e888b600484016138e4565b03925af18015610857576138d1575b5060005b81811061388f575050613755565b8061389d600192848761390d565b84513381529035907f832d89d991be5351d793c20faf4b7dd44f8aa9ce39e3cb160c6317de6fbba72990602090a201613881565b806111d26138de92610e0b565b3861387d565b602080825281018390526001600160fb1b0383116103ae5760409260051b809284830137010190565b91908110156125715760051b0190565b906106549161393f8261392f83611c55565b69ffffffffffffffffffff169052565b61395d61394e60208301611c6c565b65ffffffffffff166020840152565b61397a61396c60408301611c7f565b64ffffffffff166040840152565b61399461398960608301611c9d565b61ffff166060840152565b6139ae6139a360808301611c9d565b61ffff166080840152565b6139cd6139bd60a08301610649565b6001600160a01b031660a0840152565b6139e66139dc60c08301611ca8565b60ff1660c0840152565b613a056139f560e08301610649565b6001600160a01b031660e0840152565b6101008082013590830152613a2a610120613a21818401611ca8565b60ff1690840152565b613a43610140613a3b8184016117d2565b151590840152565b613a54610160613a3b8184016117d2565b613a65610180613a3b8184016117d2565b613a736101a08092016117d2565b1515910152565b602080825281018390526040019160005b818110613a985750505090565b90919280613aa86001928661391d565b6101c09081019401929101613a8b565b9190811015612571576101c0020190565b9092916101c090613adf836101e081019661391d565b6001600160a01b0316910152565b90918060409360208452816020850152848401376000828201840152601f01601f1916010190565b81604051928392833781016000815203902090565b600a54613b3f906001600160a01b0316610b1d565b600554604080516321d1336160e11b81526004810192909252929161012091908290829060249082905afa91821561085757613b979260ff9261010092600092613cea575b5050015160f41c1660018091811c161490565b613cd957600954613bb0906001600160a01b0316610b1d565b8251635d53f40760e11b8152600481018390526024810185905292906000908490604490829084905af192831561085757600093613cbe575b50600954613bff906001600160a01b0316610b1d565b81516304db994760e21b8152306004820152602481018490529390602090859060449082905afa93841561085757600094613c9e575b5060005b858110613c4857505050505050565b80613c5560019284612576565b51613c608188614048565b845133815260a084901b84900388169187917f031e1988c95a91ec4d655ff63a8f87a80bc9daf28d95ae10ee08c0022cfb5c8b90602090a401613c39565b613cb791945060203d81116130b1576130a38183610eab565b9238613c35565b613cd291933d8091833e6136408183610eab565b9138613be9565b8151631d2c125760e31b8152600490fd5b613d009250803d10610cde57610ccf8183610eab565b3880613b84565b91613d1061562c565b600954613d25906001600160a01b0316610b1d565b9260409060008251809663eaa19ab360e01b8252818381613d4a8a8860048401613e34565b03925af194851561085757600095613de6575b5060005b848110613d7057505050505090565b80613d7d60019288612576565b51613d888187614048565b61ffff613d9e613d99848a8861390d565b613e8f565b86516000815233602082015260a086901b86900389169391909216917f598baf7bf150ca2f42be9e9f8f55e81d45f5715c3ff22bf46d697fabec7f31d690604090a401613d61565b613e0291953d8091833e613dfa8183610eab565b810190613e0a565b509338613d5d565b91906040838203126103ae5782516001600160401b0381116103ae576020916130d19185016132a4565b929160608401906000198552806020926060848801525260808501929160005b828110613e6957505050506040600191930152565b90919293828060019261ffff8835613e8081611c91565b16815201950193929101613e54565b3561052681611c91565b6009546001600160a01b0316803b156103ae576040516386bc2be360e01b8152916000918391829084908290613ed29060048301611280565b03925af1801561085757613ee35750565b61065490610e0b565b6000908152600260205260409020546001600160a01b03168015613f0d5790565b60405163b49aa3b560e01b8152600490fd5b90600182811c92168015613f4f575b6020831014613f3957565b634e487b7160e01b600052602260045260246000fd5b91607f1691613f2e565b6000818152600260205260409020546001600160a01b031615613f0d576000908152600360205260409020546001600160a01b031690565b929190613f9e8233613fd0565b156106ad5783613fb28383613fb797614754565b614ad3565b15613fbe57565b6040516336f57c1b60e11b8152600490fd5b6001600160a01b0380613fe284613eec565b169281831692848414948515614018575b50508315614002575b50505090565b61400e91929350613f59565b1614388080613ffc565b60009081526004602090815260408083206001600160a01b03949094168352929052205460ff1693503880613ff3565b9091906001600160a01b0381169081156141af576000848152600260205260409020546001600160a01b031661419d57600084815260026020526040812080546001600160a01b0319166001600160a01b038416179055918490837fddf252ad1be2c89b69c2b068fc378daa952ba7f163c4a11628f55a4df523b3ef8180a460095461410d906140e0906001600160a01b0316610b1d565b60405163b67cb04760e01b81523060048201526024810196909652946101c0918290829081906044820190565b0381895afa918215610857578492614180575b50505193803b156117c4576040516330b157e560e21b81526004810195909552600060248601526001600160a01b039190911660448501529192918290606490829084905af18015610857576141735750565b806111d261065492610e0b565b6141969250803d1061293f576129318183610eab565b3880614120565b604051632eb5f0c360e21b8152600490fd5b604051633904578f60e11b8152600490fd5b60095461420891906141db906001600160a01b0316610b1d565b60405163b67cb04760e01b81523060048201526024810194909452926101c0928390829081906044820190565b0381875afa9283156108575760009361428a575b5050815192803b156103ae576040516330b157e560e21b815260048101949094526001600160a01b0382166024850152600060448501819052908490606490829084905af19283156108575761065493614277575b50614393565b806111d261428492610e0b565b38614271565b6142a1929350803d1061293f576129318183610eab565b90388061421c565b6009546142f19291906142c4906001600160a01b0316610b1d565b60405163b67cb04760e01b81523060048201526024810195909552936101c0938490829081906044820190565b0381885afa93841561085757600094614374575b5050825193803b156103ae576040516330b157e560e21b815260048101959095526001600160a01b038281166024870152831660448601526000908590606490829084905af19384156108575761065494614361575b50614413565b806111d261436e92610e0b565b3861435b565b61438b929450803d1061293f576129318183610eab565b913880614305565b6001600160a01b039081169081156125495760a083015191826143b65750505050565b61440a93519160009183835260116020526143d485604085206157c6565b50508252600f60205260408220838352602052604081818420541692808052600f60205281812085825260205220541690612ee4565b38808080612f17565b6001600160a01b0391908216908115612f175760a08401519283614439575b5050505050565b604061448895519382841615614492575b6000908152600f60208181528383208784528152838320546001600160a01b0390961683525260408120938316935b85825260205220541690612ee4565b3880808080614432565b8460005260116020526144a886836000206157c6565b505061444a565b906106549291600082815260116020526144cc8460408320615860565b506001600160a01b03916040915083831615614516575b808052600f6020528181208582526020526144798383832054169460018060a01b0316600052600f602052604060002090565b848152601160205261452a868383206157c6565b50506144e3565b61453a81613eec565b6001600160a01b03808216929190836145a2575b508160006106549461455f836149a5565b82825260026020526040822080546001600160a01b03191690557fddf252ad1be2c89b69c2b068fc378daa952ba7f163c4a11628f55a4df523b3ef8280a46141c1565b6009546145b7906001600160a01b0316610b1d565b60405163b67cb04760e01b8152306004820152602481018590529091906101c08082604481875afa8015610857576145fe926101a092600092614737575b50500151151590565b6146c2575b6040516308ed6c0160e41b815230600482015260248101859052602081604481865afa908115610857576000916146a4575b501661454e57803b156103ae57604051638cec7d3960e01b8152600481018490526001600160a01b0383166024820152906000908290604490829084905af1801561085757610654948492600092614691575b5094505061454e565b806111d261469e92610e0b565b38614688565b6146bc915060203d81116130b1576130a38183610eab565b38614635565b600a54614703906146db906001600160a01b0316610b1d565b60055460405180926321d1336160e11b82528180610120968795600483019190602083019252565b03915afa801561085757614719575b5050614603565b8161472f92903d10610cde57610ccf8183610eab565b503880614712565b61474d9250803d1061293f576129318183610eab565b38806145f5565b919061475f82613eec565b6001600160a01b0393908482169085168190036149935784831694851561498157816147e7575b50610654948491614796836149a5565b600083815260026020526040902080546001600160a01b0319166001600160a01b0387161790557fddf252ad1be2c89b69c2b068fc378daa952ba7f163c4a11628f55a4df523b3ef600080a46142a9565b6009546147fc906001600160a01b0316610b1d565b60405163b67cb04760e01b8152306004820152602481018790529091906101c08082604481875afa801561085757614842926101a0926000926147375750500151151590565b614905575b6040516308ed6c0160e41b815230600482015260248101879052602081604481865afa908115610857576000916148e7575b50166147865794853b156103ae57604051638cec7d3960e01b8152600481018690526001600160a01b0384166024820152956000908790604490829084905af1918215610857576106549686936148d4575b50915094614786565b806111d26148e192610e0b565b386148cb565b6148ff915060203d81116130b1576130a38183610eab565b38614879565b600a5461491e906146db906001600160a01b0316610b1d565b03915afa9182156108575761494d9260ff9261010092600092614964575b5050015160f41c1660018091161490565b15614847576040516318cdaf9760e01b8152600490fd5b61497a9250803d10610cde57610ccf8183610eab565b388061493c565b604051632c95542760e01b8152600490fd5b60405163a195bc5360e01b8152600490fd5b600081815260036020526040812080546001600160a01b03191690556001600160a01b036149d283613eec565b167f8c5be1e5ebec7d5bd14f71427d1e84f3dd0314c0f7b2291e5b200ac8c7c3b9258280a4565b600082815260036020526040902080546001600160a01b0319166001600160a01b0383161790556001600160a01b0380614a3284613eec565b169116907f8c5be1e5ebec7d5bd14f71427d1e84f3dd0314c0f7b2291e5b200ac8c7c3b925600080a4565b908160209103126103ae57516105268161039c565b6001600160a01b039182168152911660208201526040810191909152608060608201819052610526929101906104f0565b3d15614ace573d90614ab48261195f565b91614ac26040519384610eab565b82523d6000602084013e565b606090565b92909190823b15614b8657614b06926020926000604051809681958294630a85bd0160e11b9a8b85523360048601614a72565b03926001600160a01b03165af160009181614b56575b50614b4857614b29614aa3565b80519081614b43576040516336f57c1b60e11b8152600490fd5b602001fd5b6001600160e01b0319161490565b614b7891925060203d8111614b7f575b614b708183610eab565b810190614a5d565b9038614b1c565b503d614b66565b50505050600190565b9192909280516001600160401b038111610e1e57600091614bb982614bb48554613f1f565b614cbe565b60209081601f8411600114614c2c57509282614bfa93614bff96936106549998968492614c21575b50508160011b916000199060031b1c1916179055614d74565b600555565b60018060a01b03166bffffffffffffffffffffffff60a01b6006541617600655565b015190503880614be1565b600080529190601f1984167f290decd9548b62a8d60345a988386fc84ba6bc95484008f6362f93160ef3e5639386905b828210614ca657505093614bff96936106549998969360019383614bfa9810614c8d575b505050811b019055614d74565b015160001960f88460031b161c19169055388080614c80565b80600186978294978701518155019601940190614c5c565b90601f8211614ccb575050565b61065491600080527f290decd9548b62a8d60345a988386fc84ba6bc95484008f6362f93160ef3e563906020601f840160051c83019310614d14575b601f0160051c0190612d76565b9091508190614d07565b90601f8211614d2b575050565b6106549160016000527fb10e2d527612073b26eecdfd717e6a320cf44b4afac2b0732d9fcbe2b7fa0cf6906020601f840160051c83019310614d1457601f0160051c0190612d76565b9081516001600160401b038111610e1e57600190614d9b81614d968454613f1f565b614d1e565b602080601f8311600114614dd6575081929394600092614dcb575b5050600019600383901b1c191690821b179055565b015190503880614db6565b90601f19831695614e0960016000527fb10e2d527612073b26eecdfd717e6a320cf44b4afac2b0732d9fcbe2b7fa0cf690565b926000905b888210614e445750508385969710614e2b575b505050811b019055565b015160001960f88460031b161c19169055388080614e21565b808785968294968601518155019501930190614e0e565b9160a0838303126103ae5782359260209182820135936040830135614e7f8161039c565b936060840135936080810135906001600160401b0382116103ae57019180601f840112156103ae578235614eb281610f19565b93614ec06040519586610eab565b818552838086019260051b8201019283116103ae578301905b828210614ee7575050505090565b8380918335614ef581611c91565b815201910190614ed9565b600c5460c08201350361514e576101e081016044614f1e8284612479565b90501180615117575b614f2f575050565b614f3c614f449183612479565b810190614e5b565b94925092505082511561510557608081013591614f6e614f676101808401612da2565b85856151b0565b6150f35780614f7d5750505050565b6001600160a01b031691614fa5614f9e614f9686612564565b5161ffff1690565b61ffff1690565b91614fb4600092865190612a26565b92855195835b878510614fca5750505050612f17565b8590614fdc614f9e614f968886612576565b84036150db575b614fec896129f8565b8610806150ba575b1561500e5760019161500591612743565b945b0193614fba565b61507e91615077916150728a6150538861504461502a8c612da2565b6001600160a01b03166000908152600f6020526040902090565b90600052602052604060002090565b80546001600160a01b0319166001600160a01b03909216919091179055565b612743565b83886144af565b60016000948786615091610b1d88612da2565b7f3134e8a2e6d97e929a7e54011ea5485d7d196dd5f0ba4d4ef95803e8e3fc257f8280a4615007565b508361ffff6150d4614f966150ce8a612730565b87612576565b1614614ff4565b92506150ed614f9e614f968785612576565b92614fe3565b604051631b57826960e21b8152600490fd5b604051633d04bd1f60e01b8152600490fd5b5061512b6151258284612479565b906124bc565b639f65abb760e01b916001600160e01b031991615147916124cd565b1614614f27565b6040516301e73e1760e61b8152600490fd5b929190606084019084526020906060828601528251809152816080860193019160005b82811061519857505050506040600091930152565b835161ffff1685529381019392810192600101615183565b6009549293926151c8906001600160a01b0316610b1d565b6040805163eaa19ab360e01b8152956000949192859088908183816151f1888b60048401615160565b03925af180156108575785978691615289575b50968051955b86811061521a5750505050505050565b8061522760019284612576565b516152328186614048565b61ffff615242614f968489612576565b88518a815233602082015260a086901b86900388169391909216917f598baf7bf150ca2f42be9e9f8f55e81d45f5715c3ff22bf46d697fabec7f31d690604090a40161520a565b90506152a09197503d8087833e613dfa8183610eab565b96909638615204565b90610526906152d7604051602092609160f51b848301526022820152602281526152d281610e90565b615398565b9260405193816152f086935180928680870191016104cd565b8201615304825180938680850191016104cd565b01038084520182610eab565b60405161531c81610e59565b60008152906000368137565b604051906105e082018281106001600160401b03821117610e1e57604052602e82526105c0366020840137565b9061535f82610f19565b61536c6040519182610eab565b828152809261537d601f1991610f19565b0190602036910137565b908151811015612571570160200190565b908151156154bd576153a8615328565b91600090816153b685612564565b5260019181519181925b8084106153e657505050506153dc6153e19161052693946154c7565b61550a565b615551565b9091929461541761541161540b6153fd8987615387565b516001600160f81b03191690565b60f81c90565b60ff1690565b9184925b60ff908982891686101561547c576001929161545061544a6154116154438a61545696612576565b5160ff1690565b60081b90565b90612743565b6154738b61546b88603a958686061692612576565b9060ff169052565b0493019261541b565b50919594935050809691965b6154965750600101926153c0565b9460ff6001603a926154b383858b061661546b8d86851690612576565b0116950480615488565b9050610526615310565b9060ff809116906154d782615355565b9260005b8381106154e9575050505090565b80836154f760019385612576565b51166155038288612576565b52016154db565b90815161551681615355565b9060005b818110615528575090925050565b60019060ff61553e600019838951030188612576565b511661554a8286612576565b520161551a565b805161555c8161195f565b9160409061556c82519485610eab565b828452601f1961557b8461195f565b016020903682870137600092835b8581106155995750505050505090565b60019082516155a781610e90565b603a81527f31323334353637383941424344454647484a4b4c4d4e50515253545556575859858201527f5a6162636465666768696a6b6d6e6f707172737475767778797a000000000000848201526001600160f81b0319906156179060ff61560f858a612576565b511690615387565b5116861a615625828a615387565b5301615589565b6007546001600160a01b0316330361564057565b606460405162461bcd60e51b815260206004820152602060248201527f4f776e61626c653a2063616c6c6572206973206e6f7420746865206f776e65726044820152fd5b600780546001600160a01b039283166001600160a01b0319821681179092559091167f8be0079c531659141344cd1fd0a4f28419497f9722a3daafe3b4186f6b6457e0600080a3565b9043811015615782576156df90615a8a565b815490600063ffffffff8092165b838210615736575050508061570d57505060005b6001600160e01b031690565b6157319161571d61572a926129f8565b9060005260206000200190565b5460201c90565b615701565b909192808316906001818518811c830180931161273e578660005283868460206000200154161160001461576f575050925b91906156ed565b90949350810180911161273e5791615768565b606460405162461bcd60e51b815260206004820152602060248201527f436865636b706f696e74733a20626c6f636b206e6f7420796574206d696e65646044820152fd5b6001600160e01b039291836157da83615888565b1690810390811161273e576157ee43615a8a565b9184821161580b57849283615804931691615973565b9316921690565b60405162461bcd60e51b815260206004820152602760248201527f53616665436173743a2076616c756520646f65736e27742066697420696e20326044820152663234206269747360c81b6064820152608490fd5b6001600160e01b0392918361587483615888565b1690810180911161273e576157ee43615a8a565b80546000918161589a57505050600090565b60001992828481011161273e5760209181522001015460201c90565b90815468010000000000000000811015610e1e576001810180845581101561257157600092835260209283902082519284015190931b63ffffffff191663ffffffff9290921691909117910155565b9060405161591281610e23565b602081935463ffffffff81168352811c910152565b1561592e57565b60405162461bcd60e51b815260206004820152601760248201527f436865636b706f696e743a20696e76616c6964206b65790000000000000000006044820152606490fd5b90929192838254801515600014615a5f579260209291846159ae6159a961599c612862986129f8565b8560005260206000200190565b615905565b936159bd855163ffffffff1690565b6159d463ffffffff91828416928391161115615927565b6159ee6159e5875163ffffffff1690565b63ffffffff1690565b03615a295750615a1b9261571d615a04926129f8565b9063ffffffff82549181199060201b169116179055565b01516001600160e01b031690565b915050615a5a91615a47615a3b610eec565b63ffffffff9093168352565b6001600160e01b038816828601526158b6565b615a1b565b5050615a8491615a70615a3b610eec565b6001600160e01b03851660208301526158b6565b60009190565b63ffffffff90818111615a9b571690565b60405162461bcd60e51b815260206004820152602660248201527f53616665436173743a2076616c756520646f65736e27742066697420696e203360448201526532206269747360d01b6064820152608490fd5b919060001981840981840291828083109203918083039214615b6e57633b9aca009081831015615b50577f88f2cfb83100cb4e69e7c79c58b316e597157d372fb9787e8e47ce423a2e9c6d94950990828211900360f71b910360091c170290565b6044838360405191631dcf306360e21b835260048301526024820152fd5b5050633b9aca009004915056fea2646970667358221220ca03f3807997cdd7b15c2c3f25e831429f4f73257111fcd283b4bd47a5b5eb7064736f6c63430008120033",
    "linkReferences": {}
  },
  "methodIdentifiers": {
    "TOTAL_REDEMPTION_WEIGHT()": "640abacd",
    "adjustTiers((uint80,uint48,uint40,uint16,uint16,address,uint8,address,bytes32,uint8,bool,bool,bool,bool)[],uint256[])": "25eb91ee",
    "approve(address,uint256)": "095ea7b3",
    "balanceOf(address)": "70a08231",
    "codeOrigin()": "1d153ca4",
    "contractURI()": "e8a3d485",
    "creditsOf(address)": "245a45b5",
    "didPay((address,uint256,uint256,(address,uint256,uint256,uint256),(address,uint256,uint256,uint256),uint256,address,bool,string,bytes))": "da9ee8b7",
    "didRedeem((address,uint256,uint256,uint256,(address,uint256,uint256,uint256),(address,uint256,uint256,uint256),address,string,bytes))": "2b13c58f",
    "directory()": "c41c2f24",
    "firstOwnerOf(uint256)": "54c6d1f5",
    "fundingCycleStore()": "557e7155",
    "getApproved(uint256)": "081812fc",
    "getPastTierTotalVotes(uint256,uint256)": "d31cc52c",
    "getPastTierVotes(address,uint256,uint256)": "d40e7146",
    "getTierDelegate(address,uint256)": "82732b6d",
    "getTierTotalVotes(uint256)": "94c5c5ca",
    "getTierVotes(address,uint256)": "ca323efe",
    "initialize(uint256,address,string,string,address,string,address,string,((uint80,uint48,uint40,uint16,uint16,address,uint8,address,bytes32,uint8,bool,bool,bool,bool)[],uint256,uint256,address),address,(bool,bool,bool,bool))": "d1704baf",
    "isApprovedForAll(address,address)": "e985e9c5",
    "mintFor((uint16[],address)[])": "36c1a93b",
    "mintFor(uint16[],address)": "6ac6d941",
    "mintReservesFor((uint256,uint256)[])": "2a596e53",
    "mintReservesFor(uint256,uint256)": "aa4fb15b",
    "name()": "06fdde03",
    "owner()": "8da5cb5b",
    "ownerOf(uint256)": "6352211e",
    "payParams((address,address,(address,uint256,uint256,uint256),uint256,uint256,address,uint256,uint256,string,bytes))": "d46cf171",
    "prices()": "d3419bf3",
    "pricingCurrency()": "64640c1e",
    "pricingDecimals()": "4ecba625",
    "projectId()": "3fafa127",
    "redeemParams((address,address,uint256,uint256,uint256,uint256,uint256,(address,uint256,uint256,uint256),bool,uint256,string,bytes))": "a51cfd18",
    "redemptionWeightOf(uint256)": "4f228e11",
    "redemptionWeightOf(uint256[],(address,address,uint256,uint256,uint256,uint256,uint256,(address,uint256,uint256,uint256),bool,uint256,string,bytes))": "7ba62bf9",
    "renounceOwnership()": "715018a6",
    "royaltyInfo(uint256,uint256)": "2a55205a",
    "safeTransferFrom(address,address,uint256)": "42842e0e",
    "safeTransferFrom(address,address,uint256,bytes)": "b88d4fde",
    "setApprovalForAll(address,bool)": "a22cb465",
    "setBaseUri(string)": "a0bcfc7f",
    "setContractUri(string)": "ccb4807b",
    "setDefaultReservedTokenBeneficiary(address)": "df487e26",
    "setEncodedIPFSUriOf(uint256,bytes32)": "525350ba",
    "setTierDelegate(address,uint256)": "ab951e39",
    "setTierDelegates((address,uint256)[])": "c74b13d9",
    "setTierRedemptionWeights((uint256,uint256)[])": "2f441500",
    "setTokenUriResolver(address)": "2407497e",
    "store()": "975057e7",
    "supportsInterface(bytes4)": "01ffc9a7",
    "symbol()": "95d89b41",
    "tierRedemptionWeights()": "9df45468",
    "tokenURI(uint256)": "c87b56dd",
    "totalRedemptionWeight((address,address,uint256,uint256,uint256,uint256,uint256,(address,uint256,uint256,uint256),bool,uint256,string,bytes))": "9494bf72",
    "transferFrom(address,address,uint256)": "23b872dd",
    "transferOwnership(address)": "f2fde38b"
  },
  "id": 0
}