{
  "abi": [
    {
      "inputs": [],
      "stateMutability": "nonpayable",
      "type": "constructor"
    },
    {
      "inputs": [],
      "name": "ALEADY_MINTED",
      "type": "error"
    },
    {
      "inputs": [],
      "name": "APPROVAL_TO_CURRENT_OWNER",
      "type": "error"
    },
    {
      "inputs": [],
      "name": "APPROVE_TO_CALLER",
      "type": "error"
    },
    {
      "inputs": [],
      "name": "BAD_TIER_ORDER",
      "type": "error"
    },
    {
      "inputs": [],
      "name": "BLOCK_NOT_YET_MINED",
      "type": "error"
    },
    {
      "inputs": [],
      "name": "CALLER_NOT_OWNER_OR_APPROVED",
      "type": "error"
    },
    {
      "inputs": [],
      "name": "DELEGATE_ADDRESS_ZERO",
      "type": "error"
    },
    {
      "inputs": [],
      "name": "GAME_ISNT_SCORING_YET",
      "type": "error"
    },
    {
      "inputs": [],
      "name": "INCORRECT_OWNER",
      "type": "error"
    },
    {
      "inputs": [],
      "name": "INVALID_PAYMENT_EVENT",
      "type": "error"
    },
    {
      "inputs": [],
      "name": "INVALID_REDEMPTION_EVENT",
      "type": "error"
    },
    {
      "inputs": [],
      "name": "INVALID_REDEMPTION_METADATA",
      "type": "error"
    },
    {
      "inputs": [],
      "name": "INVALID_REDEMPTION_WEIGHTS",
      "type": "error"
    },
    {
      "inputs": [],
      "name": "INVALID_TIER_ID",
      "type": "error"
    },
    {
      "inputs": [],
      "name": "INVALID_TOKEN_ID",
      "type": "error"
    },
    {
      "inputs": [],
      "name": "MINT_TO_ZERO",
      "type": "error"
    },
    {
      "inputs": [],
      "name": "NOTHING_TO_CLAIM",
      "type": "error"
    },
    {
      "inputs": [],
      "name": "NOTHING_TO_MINT",
      "type": "error"
    },
    {
      "inputs": [],
      "name": "NOT_AVAILABLE",
      "type": "error"
    },
    {
      "inputs": [],
      "name": "NO_CONTEST",
      "type": "error"
    },
    {
      "inputs": [],
      "name": "OVERSPENDING",
      "type": "error"
    },
    {
      "inputs": [
        {
          "internalType": "uint256",
          "name": "prod1",
          "type": "uint256"
        },
        {
          "internalType": "uint256",
          "name": "denominator",
          "type": "uint256"
        }
      ],
      "name": "PRBMath__MulDivOverflow",
      "type": "error"
    },
    {
      "inputs": [],
      "name": "PRICING_RESOLVER_CHANGES_PAUSED",
      "type": "error"
    },
    {
      "inputs": [],
      "name": "REDEMPTION_WEIGHTS_ALREADY_SET",
      "type": "error"
    },
    {
      "inputs": [],
      "name": "RESERVED_TOKEN_MINTING_PAUSED",
      "type": "error"
    },
    {
      "inputs": [],
      "name": "TRANSFERS_PAUSED",
      "type": "error"
    },
    {
      "inputs": [],
      "name": "TRANSFER_TO_NON_IMPLEMENTER",
      "type": "error"
    },
    {
      "inputs": [],
      "name": "TRANSFER_TO_ZERO_ADDRESS",
      "type": "error"
    },
    {
      "inputs": [],
      "name": "UNAUTHORIZED",
      "type": "error"
    },
    {
      "inputs": [
        {
          "internalType": "uint256",
          "name": "_tokenId",
          "type": "uint256"
        }
      ],
      "name": "UNAUTHORIZED_TOKEN",
      "type": "error"
    },
    {
      "inputs": [],
      "name": "UNEXPECTED_TOKEN_REDEEMED",
      "type": "error"
    },
    {
      "inputs": [],
      "name": "WRONG_CURRENCY",
      "type": "error"
    },
    {
      "anonymous": false,
      "inputs": [
        {
          "indexed": true,
          "internalType": "address",
          "name": "owner",
          "type": "address"
        },
        {
          "indexed": true,
          "internalType": "address",
          "name": "approved",
          "type": "address"
        },
        {
          "indexed": true,
          "internalType": "uint256",
          "name": "tokenId",
          "type": "uint256"
        }
      ],
      "name": "Approval",
      "type": "event"
    },
    {
      "anonymous": false,
      "inputs": [
        {
          "indexed": true,
          "internalType": "address",
          "name": "owner",
          "type": "address"
        },
        {
          "indexed": true,
          "internalType": "address",
          "name": "operator",
          "type": "address"
        },
        {
          "indexed": false,
          "internalType": "bool",
          "name": "approved",
          "type": "bool"
        }
      ],
      "name": "ApprovalForAll",
      "type": "event"
    },
    {
      "anonymous": false,
      "inputs": [
        {
          "indexed": true,
          "internalType": "address",
          "name": "delegator",
          "type": "address"
        },
        {
          "indexed": true,
          "internalType": "address",
          "name": "fromDelegate",
          "type": "address"
        },
        {
          "indexed": true,
          "internalType": "address",
          "name": "toDelegate",
          "type": "address"
        }
      ],
      "name": "DelegateChanged",
      "type": "event"
    },
    {
      "anonymous": false,
      "inputs": [
        {
          "indexed": true,
          "internalType": "uint256",
          "name": "tokenId",
          "type": "uint256"
        },
        {
          "indexed": true,
          "internalType": "uint256",
          "name": "tierId",
          "type": "uint256"
        },
        {
          "indexed": true,
          "internalType": "address",
          "name": "beneficiary",
          "type": "address"
        },
        {
          "indexed": false,
          "internalType": "uint256",
          "name": "totalAmountContributed",
          "type": "uint256"
        },
        {
          "indexed": false,
          "internalType": "address",
          "name": "caller",
          "type": "address"
        }
      ],
      "name": "Mint",
      "type": "event"
    },
    {
      "anonymous": false,
      "inputs": [
        {
          "indexed": true,
          "internalType": "uint256",
          "name": "tokenId",
          "type": "uint256"
        },
        {
          "indexed": true,
          "internalType": "uint256",
          "name": "tierId",
          "type": "uint256"
        },
        {
          "indexed": true,
          "internalType": "address",
          "name": "beneficiary",
          "type": "address"
        },
        {
          "indexed": false,
          "internalType": "address",
          "name": "caller",
          "type": "address"
        }
      ],
      "name": "MintReservedToken",
      "type": "event"
    },
    {
      "anonymous": false,
      "inputs": [
        {
          "indexed": true,
          "internalType": "address",
          "name": "previousOwner",
          "type": "address"
        },
        {
          "indexed": true,
          "internalType": "address",
          "name": "newOwner",
          "type": "address"
        }
      ],
      "name": "OwnershipTransferred",
      "type": "event"
    },
    {
      "anonymous": false,
      "inputs": [
        {
          "indexed": true,
          "internalType": "address",
          "name": "delegate",
          "type": "address"
        },
        {
          "indexed": true,
          "internalType": "uint256",
          "name": "tierId",
          "type": "uint256"
        },
        {
          "indexed": false,
          "internalType": "uint256",
          "name": "previousBalance",
          "type": "uint256"
        },
        {
          "indexed": false,
          "internalType": "uint256",
          "name": "newBalance",
          "type": "uint256"
        },
        {
          "indexed": false,
          "internalType": "address",
          "name": "caller",
          "type": "address"
        }
      ],
      "name": "TierDelegateVotesChanged",
      "type": "event"
    },
    {
      "anonymous": false,
      "inputs": [
        {
          "indexed": true,
          "internalType": "address",
          "name": "from",
          "type": "address"
        },
        {
          "indexed": true,
          "internalType": "address",
          "name": "to",
          "type": "address"
        },
        {
          "indexed": true,
          "internalType": "uint256",
          "name": "tokenId",
          "type": "uint256"
        }
      ],
      "name": "Transfer",
      "type": "event"
    },
    {
      "inputs": [],
      "name": "TOTAL_REDEMPTION_WEIGHT",
      "outputs": [
        {
          "internalType": "uint256",
          "name": "",
          "type": "uint256"
        }
      ],
      "stateMutability": "view",
      "type": "function"
    },
    {
      "inputs": [
        {
          "internalType": "address",
          "name": "to",
          "type": "address"
        },
        {
          "internalType": "uint256",
          "name": "tokenId",
          "type": "uint256"
        }
      ],
      "name": "approve",
      "outputs": [],
      "stateMutability": "nonpayable",
      "type": "function"
    },
    {
      "inputs": [
        {
          "internalType": "address",
          "name": "_owner",
          "type": "address"
        }
      ],
      "name": "balanceOf",
      "outputs": [
        {
          "internalType": "uint256",
          "name": "balance",
          "type": "uint256"
        }
      ],
      "stateMutability": "view",
      "type": "function"
    },
    {
      "inputs": [],
      "name": "baseURI",
      "outputs": [
        {
          "internalType": "string",
          "name": "",
          "type": "string"
        }
      ],
      "stateMutability": "view",
      "type": "function"
    },
    {
      "inputs": [],
      "name": "codeOrigin",
      "outputs": [
        {
          "internalType": "address",
          "name": "",
          "type": "address"
        }
      ],
      "stateMutability": "view",
      "type": "function"
    },
    {
      "inputs": [],
      "name": "contractURI",
      "outputs": [
        {
          "internalType": "string",
          "name": "",
          "type": "string"
        }
      ],
      "stateMutability": "view",
      "type": "function"
    },
    {
      "inputs": [
        {
          "components": [
            {
              "internalType": "address",
              "name": "payer",
              "type": "address"
            },
            {
              "internalType": "uint256",
              "name": "projectId",
              "type": "uint256"
            },
            {
              "internalType": "uint256",
              "name": "currentFundingCycleConfiguration",
              "type": "uint256"
            },
            {
              "components": [
                {
                  "internalType": "address",
                  "name": "token",
                  "type": "address"
                },
                {
                  "internalType": "uint256",
                  "name": "value",
                  "type": "uint256"
                },
                {
                  "internalType": "uint256",
                  "name": "decimals",
                  "type": "uint256"
                },
                {
                  "internalType": "uint256",
                  "name": "currency",
                  "type": "uint256"
                }
              ],
              "internalType": "struct JBTokenAmount",
              "name": "amount",
              "type": "tuple"
            },
            {
              "components": [
                {
                  "internalType": "address",
                  "name": "token",
                  "type": "address"
                },
                {
                  "internalType": "uint256",
                  "name": "value",
                  "type": "uint256"
                },
                {
                  "internalType": "uint256",
                  "name": "decimals",
                  "type": "uint256"
                },
                {
                  "internalType": "uint256",
                  "name": "currency",
                  "type": "uint256"
                }
              ],
              "internalType": "struct JBTokenAmount",
              "name": "forwardedAmount",
              "type": "tuple"
            },
            {
              "internalType": "uint256",
              "name": "projectTokenCount",
              "type": "uint256"
            },
            {
              "internalType": "address",
              "name": "beneficiary",
              "type": "address"
            },
            {
              "internalType": "bool",
              "name": "preferClaimedTokens",
              "type": "bool"
            },
            {
              "internalType": "string",
              "name": "memo",
              "type": "string"
            },
            {
              "internalType": "bytes",
              "name": "metadata",
              "type": "bytes"
            }
          ],
          "internalType": "struct JBDidPayData",
          "name": "_data",
          "type": "tuple"
        }
      ],
      "name": "didPay",
      "outputs": [],
      "stateMutability": "payable",
      "type": "function"
    },
    {
      "inputs": [
        {
          "components": [
            {
              "internalType": "address",
              "name": "holder",
              "type": "address"
            },
            {
              "internalType": "uint256",
              "name": "projectId",
              "type": "uint256"
            },
            {
              "internalType": "uint256",
              "name": "currentFundingCycleConfiguration",
              "type": "uint256"
            },
            {
              "internalType": "uint256",
              "name": "projectTokenCount",
              "type": "uint256"
            },
            {
              "components": [
                {
                  "internalType": "address",
                  "name": "token",
                  "type": "address"
                },
                {
                  "internalType": "uint256",
                  "name": "value",
                  "type": "uint256"
                },
                {
                  "internalType": "uint256",
                  "name": "decimals",
                  "type": "uint256"
                },
                {
                  "internalType": "uint256",
                  "name": "currency",
                  "type": "uint256"
                }
              ],
              "internalType": "struct JBTokenAmount",
              "name": "reclaimedAmount",
              "type": "tuple"
            },
            {
              "components": [
                {
                  "internalType": "address",
                  "name": "token",
                  "type": "address"
                },
                {
                  "internalType": "uint256",
                  "name": "value",
                  "type": "uint256"
                },
                {
                  "internalType": "uint256",
                  "name": "decimals",
                  "type": "uint256"
                },
                {
                  "internalType": "uint256",
                  "name": "currency",
                  "type": "uint256"
                }
              ],
              "internalType": "struct JBTokenAmount",
              "name": "forwardedAmount",
              "type": "tuple"
            },
            {
              "internalType": "address payable",
              "name": "beneficiary",
              "type": "address"
            },
            {
              "internalType": "string",
              "name": "memo",
              "type": "string"
            },
            {
              "internalType": "bytes",
              "name": "metadata",
              "type": "bytes"
            }
          ],
          "internalType": "struct JBDidRedeemData",
          "name": "_data",
          "type": "tuple"
        }
      ],
      "name": "didRedeem",
      "outputs": [],
      "stateMutability": "payable",
      "type": "function"
    },
    {
      "inputs": [],
      "name": "directory",
      "outputs": [
        {
          "internalType": "contract IJBDirectory",
          "name": "",
          "type": "address"
        }
      ],
      "stateMutability": "view",
      "type": "function"
    },
    {
      "inputs": [
        {
          "internalType": "uint256",
          "name": "_tokenId",
          "type": "uint256"
        }
      ],
      "name": "firstOwnerOf",
      "outputs": [
        {
          "internalType": "address",
          "name": "",
          "type": "address"
        }
      ],
      "stateMutability": "view",
      "type": "function"
    },
    {
      "inputs": [],
      "name": "fundingCycleStore",
      "outputs": [
        {
          "internalType": "contract IJBFundingCycleStore",
          "name": "",
          "type": "address"
        }
      ],
      "stateMutability": "view",
      "type": "function"
    },
    {
      "inputs": [],
      "name": "gamePhaseReporter",
      "outputs": [
        {
          "internalType": "contract IDefifaGamePhaseReporter",
          "name": "",
          "type": "address"
        }
      ],
      "stateMutability": "view",
      "type": "function"
    },
    {
      "inputs": [
        {
          "internalType": "uint256",
          "name": "tokenId",
          "type": "uint256"
        }
      ],
      "name": "getApproved",
      "outputs": [
        {
          "internalType": "address",
          "name": "",
          "type": "address"
        }
      ],
      "stateMutability": "view",
      "type": "function"
    },
    {
      "inputs": [
        {
          "internalType": "uint256",
          "name": "_tier",
          "type": "uint256"
        },
        {
          "internalType": "uint256",
          "name": "_blockNumber",
          "type": "uint256"
        }
      ],
      "name": "getPastTierTotalVotes",
      "outputs": [
        {
          "internalType": "uint256",
          "name": "",
          "type": "uint256"
        }
      ],
      "stateMutability": "view",
      "type": "function"
    },
    {
      "inputs": [
        {
          "internalType": "address",
          "name": "_account",
          "type": "address"
        },
        {
          "internalType": "uint256",
          "name": "_tier",
          "type": "uint256"
        },
        {
          "internalType": "uint256",
          "name": "_blockNumber",
          "type": "uint256"
        }
      ],
      "name": "getPastTierVotes",
      "outputs": [
        {
          "internalType": "uint256",
          "name": "",
          "type": "uint256"
        }
      ],
      "stateMutability": "view",
      "type": "function"
    },
    {
      "inputs": [
        {
          "internalType": "address",
          "name": "_account",
          "type": "address"
        },
        {
          "internalType": "uint256",
          "name": "_tier",
          "type": "uint256"
        }
      ],
      "name": "getTierDelegate",
      "outputs": [
        {
          "internalType": "address",
          "name": "",
          "type": "address"
        }
      ],
      "stateMutability": "view",
      "type": "function"
    },
    {
      "inputs": [
        {
          "internalType": "uint256",
          "name": "_tier",
          "type": "uint256"
        }
      ],
      "name": "getTierTotalVotes",
      "outputs": [
        {
          "internalType": "uint256",
          "name": "",
          "type": "uint256"
        }
      ],
      "stateMutability": "view",
      "type": "function"
    },
    {
      "inputs": [
        {
          "internalType": "address",
          "name": "_account",
          "type": "address"
        },
        {
          "internalType": "uint256",
          "name": "_tier",
          "type": "uint256"
        }
      ],
      "name": "getTierVotes",
      "outputs": [
        {
          "internalType": "uint256",
          "name": "",
          "type": "uint256"
        }
      ],
      "stateMutability": "view",
      "type": "function"
    },
    {
      "inputs": [
        {
          "internalType": "uint256",
          "name": "_gameId",
          "type": "uint256"
        },
        {
          "internalType": "contract IJBDirectory",
          "name": "_directory",
          "type": "address"
        },
        {
          "internalType": "string",
          "name": "_name",
          "type": "string"
        },
        {
          "internalType": "string",
          "name": "_symbol",
          "type": "string"
        },
        {
          "internalType": "contract IJBFundingCycleStore",
          "name": "_fundingCycleStore",
          "type": "address"
        },
        {
          "internalType": "string",
          "name": "_baseUri",
          "type": "string"
        },
        {
          "internalType": "contract IJBTokenUriResolver",
          "name": "_tokenUriResolver",
          "type": "address"
        },
        {
          "internalType": "string",
          "name": "_contractUri",
          "type": "string"
        },
        {
          "components": [
            {
              "internalType": "uint104",
              "name": "price",
              "type": "uint104"
            },
            {
              "internalType": "uint32",
              "name": "initialQuantity",
              "type": "uint32"
            },
            {
              "internalType": "uint32",
              "name": "votingUnits",
              "type": "uint32"
            },
            {
              "internalType": "uint16",
              "name": "reservedRate",
              "type": "uint16"
            },
            {
              "internalType": "address",
              "name": "reservedTokenBeneficiary",
              "type": "address"
            },
            {
              "internalType": "bytes32",
              "name": "encodedIPFSUri",
              "type": "bytes32"
            },
            {
              "internalType": "uint24",
              "name": "category",
              "type": "uint24"
            },
            {
              "internalType": "bool",
              "name": "allowManualMint",
              "type": "bool"
            },
            {
              "internalType": "bool",
              "name": "shouldUseReservedTokenBeneficiaryAsDefault",
              "type": "bool"
            },
            {
              "internalType": "bool",
              "name": "transfersPausable",
              "type": "bool"
            },
            {
              "internalType": "bool",
              "name": "useVotingUnits",
              "type": "bool"
            }
          ],
          "internalType": "struct JB721TierParams[]",
          "name": "_tiers",
          "type": "tuple[]"
        },
        {
          "internalType": "uint48",
          "name": "_currency",
          "type": "uint48"
        },
        {
          "internalType": "contract IJBTiered721DelegateStore",
          "name": "_store",
          "type": "address"
        },
        {
          "components": [
            {
              "internalType": "bool",
              "name": "lockReservedTokenChanges",
              "type": "bool"
            },
            {
              "internalType": "bool",
              "name": "lockVotingUnitChanges",
              "type": "bool"
            },
            {
              "internalType": "bool",
              "name": "lockManualMintingChanges",
              "type": "bool"
            },
            {
              "internalType": "bool",
              "name": "preventOverspending",
              "type": "bool"
            }
          ],
          "internalType": "struct JBTiered721Flags",
          "name": "_flags",
          "type": "tuple"
        },
        {
          "internalType": "contract IDefifaGamePhaseReporter",
          "name": "_gamePhaseReporter",
          "type": "address"
        }
      ],
      "name": "initialize",
      "outputs": [],
      "stateMutability": "nonpayable",
      "type": "function"
    },
    {
      "inputs": [
        {
          "internalType": "address",
          "name": "owner",
          "type": "address"
        },
        {
          "internalType": "address",
          "name": "operator",
          "type": "address"
        }
      ],
      "name": "isApprovedForAll",
      "outputs": [
        {
          "internalType": "bool",
          "name": "",
          "type": "bool"
        }
      ],
      "stateMutability": "view",
      "type": "function"
    },
    {
      "inputs": [
        {
          "components": [
            {
              "internalType": "uint256",
              "name": "tierId",
              "type": "uint256"
            },
            {
              "internalType": "uint256",
              "name": "count",
              "type": "uint256"
            }
          ],
          "internalType": "struct JBTiered721MintReservesForTiersData[]",
          "name": "_mintReservesForTiersData",
          "type": "tuple[]"
        }
      ],
      "name": "mintReservesFor",
      "outputs": [],
      "stateMutability": "nonpayable",
      "type": "function"
    },
    {
      "inputs": [
        {
          "internalType": "uint256",
          "name": "_tierId",
          "type": "uint256"
        },
        {
          "internalType": "uint256",
          "name": "_count",
          "type": "uint256"
        }
      ],
      "name": "mintReservesFor",
      "outputs": [],
      "stateMutability": "nonpayable",
      "type": "function"
    },
    {
      "inputs": [],
      "name": "name",
      "outputs": [
        {
          "internalType": "string",
          "name": "",
          "type": "string"
        }
      ],
      "stateMutability": "view",
      "type": "function"
    },
    {
      "inputs": [],
      "name": "owner",
      "outputs": [
        {
          "internalType": "address",
          "name": "",
          "type": "address"
        }
      ],
      "stateMutability": "view",
      "type": "function"
    },
    {
      "inputs": [
        {
          "internalType": "uint256",
          "name": "tokenId",
          "type": "uint256"
        }
      ],
      "name": "ownerOf",
      "outputs": [
        {
          "internalType": "address",
          "name": "",
          "type": "address"
        }
      ],
      "stateMutability": "view",
      "type": "function"
    },
    {
      "inputs": [
        {
          "components": [
            {
              "internalType": "contract IJBPaymentTerminal",
              "name": "terminal",
              "type": "address"
            },
            {
              "internalType": "address",
              "name": "payer",
              "type": "address"
            },
            {
              "components": [
                {
                  "internalType": "address",
                  "name": "token",
                  "type": "address"
                },
                {
                  "internalType": "uint256",
                  "name": "value",
                  "type": "uint256"
                },
                {
                  "internalType": "uint256",
                  "name": "decimals",
                  "type": "uint256"
                },
                {
                  "internalType": "uint256",
                  "name": "currency",
                  "type": "uint256"
                }
              ],
              "internalType": "struct JBTokenAmount",
              "name": "amount",
              "type": "tuple"
            },
            {
              "internalType": "uint256",
              "name": "projectId",
              "type": "uint256"
            },
            {
              "internalType": "uint256",
              "name": "currentFundingCycleConfiguration",
              "type": "uint256"
            },
            {
              "internalType": "address",
              "name": "beneficiary",
              "type": "address"
            },
            {
              "internalType": "uint256",
              "name": "weight",
              "type": "uint256"
            },
            {
              "internalType": "uint256",
              "name": "reservedRate",
              "type": "uint256"
            },
            {
              "internalType": "string",
              "name": "memo",
              "type": "string"
            },
            {
              "internalType": "bytes",
              "name": "metadata",
              "type": "bytes"
            }
          ],
          "internalType": "struct JBPayParamsData",
          "name": "_data",
          "type": "tuple"
        }
      ],
      "name": "payParams",
      "outputs": [
        {
          "internalType": "uint256",
          "name": "weight",
          "type": "uint256"
        },
        {
          "internalType": "string",
          "name": "memo",
          "type": "string"
        },
        {
          "components": [
            {
              "internalType": "contract IJBPayDelegate",
              "name": "delegate",
              "type": "address"
            },
            {
              "internalType": "uint256",
              "name": "amount",
              "type": "uint256"
            }
          ],
          "internalType": "struct JBPayDelegateAllocation[]",
          "name": "delegateAllocations",
          "type": "tuple[]"
        }
      ],
      "stateMutability": "view",
      "type": "function"
    },
    {
      "inputs": [],
      "name": "pricingCurrency",
      "outputs": [
        {
          "internalType": "uint256",
          "name": "",
          "type": "uint256"
        }
      ],
      "stateMutability": "view",
      "type": "function"
    },
    {
      "inputs": [],
      "name": "projectId",
      "outputs": [
        {
          "internalType": "uint256",
          "name": "",
          "type": "uint256"
        }
      ],
      "stateMutability": "view",
      "type": "function"
    },
    {
      "inputs": [
        {
          "components": [
            {
              "internalType": "contract IJBPaymentTerminal",
              "name": "terminal",
              "type": "address"
            },
            {
              "internalType": "address",
              "name": "holder",
              "type": "address"
            },
            {
              "internalType": "uint256",
              "name": "projectId",
              "type": "uint256"
            },
            {
              "internalType": "uint256",
              "name": "currentFundingCycleConfiguration",
              "type": "uint256"
            },
            {
              "internalType": "uint256",
              "name": "tokenCount",
              "type": "uint256"
            },
            {
              "internalType": "uint256",
              "name": "totalSupply",
              "type": "uint256"
            },
            {
              "internalType": "uint256",
              "name": "overflow",
              "type": "uint256"
            },
            {
              "components": [
                {
                  "internalType": "address",
                  "name": "token",
                  "type": "address"
                },
                {
                  "internalType": "uint256",
                  "name": "value",
                  "type": "uint256"
                },
                {
                  "internalType": "uint256",
                  "name": "decimals",
                  "type": "uint256"
                },
                {
                  "internalType": "uint256",
                  "name": "currency",
                  "type": "uint256"
                }
              ],
              "internalType": "struct JBTokenAmount",
              "name": "reclaimAmount",
              "type": "tuple"
            },
            {
              "internalType": "bool",
              "name": "useTotalOverflow",
              "type": "bool"
            },
            {
              "internalType": "uint256",
              "name": "redemptionRate",
              "type": "uint256"
            },
            {
              "internalType": "string",
              "name": "memo",
              "type": "string"
            },
            {
              "internalType": "bytes",
              "name": "metadata",
              "type": "bytes"
            }
          ],
          "internalType": "struct JBRedeemParamsData",
          "name": "_data",
          "type": "tuple"
        }
      ],
      "name": "redeemParams",
      "outputs": [
        {
          "internalType": "uint256",
          "name": "reclaimAmount",
          "type": "uint256"
        },
        {
          "internalType": "string",
          "name": "memo",
          "type": "string"
        },
        {
          "components": [
            {
              "internalType": "contract IJBRedemptionDelegate",
              "name": "delegate",
              "type": "address"
            },
            {
              "internalType": "uint256",
              "name": "amount",
              "type": "uint256"
            }
          ],
          "internalType": "struct JBRedemptionDelegateAllocation[]",
          "name": "delegateAllocations",
          "type": "tuple[]"
        }
      ],
      "stateMutability": "view",
      "type": "function"
    },
    {
      "inputs": [],
      "name": "redemptionWeightIsSet",
      "outputs": [
        {
          "internalType": "bool",
          "name": "",
          "type": "bool"
        }
      ],
      "stateMutability": "view",
      "type": "function"
    },
    {
      "inputs": [
        {
          "internalType": "uint256",
          "name": "_tokenId",
          "type": "uint256"
        }
      ],
      "name": "redemptionWeightOf",
      "outputs": [
        {
          "internalType": "uint256",
          "name": "",
          "type": "uint256"
        }
      ],
      "stateMutability": "view",
      "type": "function"
    },
    {
      "inputs": [
        {
          "internalType": "uint256[]",
          "name": "_tokenIds",
          "type": "uint256[]"
        },
        {
          "components": [
            {
              "internalType": "contract IJBPaymentTerminal",
              "name": "terminal",
              "type": "address"
            },
            {
              "internalType": "address",
              "name": "holder",
              "type": "address"
            },
            {
              "internalType": "uint256",
              "name": "projectId",
              "type": "uint256"
            },
            {
              "internalType": "uint256",
              "name": "currentFundingCycleConfiguration",
              "type": "uint256"
            },
            {
              "internalType": "uint256",
              "name": "tokenCount",
              "type": "uint256"
            },
            {
              "internalType": "uint256",
              "name": "totalSupply",
              "type": "uint256"
            },
            {
              "internalType": "uint256",
              "name": "overflow",
              "type": "uint256"
            },
            {
              "components": [
                {
                  "internalType": "address",
                  "name": "token",
                  "type": "address"
                },
                {
                  "internalType": "uint256",
                  "name": "value",
                  "type": "uint256"
                },
                {
                  "internalType": "uint256",
                  "name": "decimals",
                  "type": "uint256"
                },
                {
                  "internalType": "uint256",
                  "name": "currency",
                  "type": "uint256"
                }
              ],
              "internalType": "struct JBTokenAmount",
              "name": "reclaimAmount",
              "type": "tuple"
            },
            {
              "internalType": "bool",
              "name": "useTotalOverflow",
              "type": "bool"
            },
            {
              "internalType": "uint256",
              "name": "redemptionRate",
              "type": "uint256"
            },
            {
              "internalType": "string",
              "name": "memo",
              "type": "string"
            },
            {
              "internalType": "bytes",
              "name": "metadata",
              "type": "bytes"
            }
          ],
          "internalType": "struct JBRedeemParamsData",
          "name": "",
          "type": "tuple"
        }
      ],
      "name": "redemptionWeightOf",
      "outputs": [
        {
          "internalType": "uint256",
          "name": "cumulativeWeight",
          "type": "uint256"
        }
      ],
      "stateMutability": "view",
      "type": "function"
    },
    {
      "inputs": [],
      "name": "renounceOwnership",
      "outputs": [],
      "stateMutability": "nonpayable",
      "type": "function"
    },
    {
      "inputs": [
        {
          "internalType": "address",
          "name": "from",
          "type": "address"
        },
        {
          "internalType": "address",
          "name": "to",
          "type": "address"
        },
        {
          "internalType": "uint256",
          "name": "tokenId",
          "type": "uint256"
        }
      ],
      "name": "safeTransferFrom",
      "outputs": [],
      "stateMutability": "nonpayable",
      "type": "function"
    },
    {
      "inputs": [
        {
          "internalType": "address",
          "name": "from",
          "type": "address"
        },
        {
          "internalType": "address",
          "name": "to",
          "type": "address"
        },
        {
          "internalType": "uint256",
          "name": "tokenId",
          "type": "uint256"
        },
        {
          "internalType": "bytes",
          "name": "data",
          "type": "bytes"
        }
      ],
      "name": "safeTransferFrom",
      "outputs": [],
      "stateMutability": "nonpayable",
      "type": "function"
    },
    {
      "inputs": [
        {
          "internalType": "address",
          "name": "operator",
          "type": "address"
        },
        {
          "internalType": "bool",
          "name": "approved",
          "type": "bool"
        }
      ],
      "name": "setApprovalForAll",
      "outputs": [],
      "stateMutability": "nonpayable",
      "type": "function"
    },
    {
      "inputs": [
        {
          "internalType": "address",
          "name": "_delegatee",
          "type": "address"
        },
        {
          "internalType": "uint256",
          "name": "_tierId",
          "type": "uint256"
        }
      ],
      "name": "setTierDelegate",
      "outputs": [],
      "stateMutability": "nonpayable",
      "type": "function"
    },
    {
      "inputs": [
        {
          "components": [
            {
              "internalType": "address",
              "name": "delegatee",
              "type": "address"
            },
            {
              "internalType": "uint256",
              "name": "tierId",
              "type": "uint256"
            }
          ],
          "internalType": "struct JBTiered721SetTierDelegatesData[]",
          "name": "_setTierDelegatesData",
          "type": "tuple[]"
        }
      ],
      "name": "setTierDelegates",
      "outputs": [],
      "stateMutability": "nonpayable",
      "type": "function"
    },
    {
      "inputs": [
        {
          "components": [
            {
              "internalType": "uint256",
              "name": "id",
              "type": "uint256"
            },
            {
              "internalType": "uint256",
              "name": "redemptionWeight",
              "type": "uint256"
            }
          ],
          "internalType": "struct DefifaTierRedemptionWeight[]",
          "name": "_tierWeights",
          "type": "tuple[]"
        }
      ],
      "name": "setTierRedemptionWeights",
      "outputs": [],
      "stateMutability": "nonpayable",
      "type": "function"
    },
    {
      "inputs": [],
      "name": "store",
      "outputs": [
        {
          "internalType": "contract IJBTiered721DelegateStore",
          "name": "",
          "type": "address"
        }
      ],
      "stateMutability": "view",
      "type": "function"
    },
    {
      "inputs": [
        {
          "internalType": "bytes4",
          "name": "_interfaceId",
          "type": "bytes4"
        }
      ],
      "name": "supportsInterface",
      "outputs": [
        {
          "internalType": "bool",
          "name": "",
          "type": "bool"
        }
      ],
      "stateMutability": "view",
      "type": "function"
    },
    {
      "inputs": [],
      "name": "symbol",
      "outputs": [
        {
          "internalType": "string",
          "name": "",
          "type": "string"
        }
      ],
      "stateMutability": "view",
      "type": "function"
    },
    {
      "inputs": [],
      "name": "tierRedemptionWeights",
      "outputs": [
        {
          "internalType": "uint256[128]",
          "name": "",
          "type": "uint256[128]"
        }
      ],
      "stateMutability": "view",
      "type": "function"
    },
    {
      "inputs": [
        {
          "internalType": "uint256",
          "name": "_tokenId",
          "type": "uint256"
        }
      ],
      "name": "tokenURI",
      "outputs": [
        {
          "internalType": "string",
          "name": "",
          "type": "string"
        }
      ],
      "stateMutability": "view",
      "type": "function"
    },
    {
      "inputs": [
        {
          "components": [
            {
              "internalType": "contract IJBPaymentTerminal",
              "name": "terminal",
              "type": "address"
            },
            {
              "internalType": "address",
              "name": "holder",
              "type": "address"
            },
            {
              "internalType": "uint256",
              "name": "projectId",
              "type": "uint256"
            },
            {
              "internalType": "uint256",
              "name": "currentFundingCycleConfiguration",
              "type": "uint256"
            },
            {
              "internalType": "uint256",
              "name": "tokenCount",
              "type": "uint256"
            },
            {
              "internalType": "uint256",
              "name": "totalSupply",
              "type": "uint256"
            },
            {
              "internalType": "uint256",
              "name": "overflow",
              "type": "uint256"
            },
            {
              "components": [
                {
                  "internalType": "address",
                  "name": "token",
                  "type": "address"
                },
                {
                  "internalType": "uint256",
                  "name": "value",
                  "type": "uint256"
                },
                {
                  "internalType": "uint256",
                  "name": "decimals",
                  "type": "uint256"
                },
                {
                  "internalType": "uint256",
                  "name": "currency",
                  "type": "uint256"
                }
              ],
              "internalType": "struct JBTokenAmount",
              "name": "reclaimAmount",
              "type": "tuple"
            },
            {
              "internalType": "bool",
              "name": "useTotalOverflow",
              "type": "bool"
            },
            {
              "internalType": "uint256",
              "name": "redemptionRate",
              "type": "uint256"
            },
            {
              "internalType": "string",
              "name": "memo",
              "type": "string"
            },
            {
              "internalType": "bytes",
              "name": "metadata",
              "type": "bytes"
            }
          ],
          "internalType": "struct JBRedeemParamsData",
          "name": "",
          "type": "tuple"
        }
      ],
      "name": "totalRedemptionWeight",
      "outputs": [
        {
          "internalType": "uint256",
          "name": "",
          "type": "uint256"
        }
      ],
      "stateMutability": "view",
      "type": "function"
    },
    {
      "inputs": [
        {
          "internalType": "address",
          "name": "from",
          "type": "address"
        },
        {
          "internalType": "address",
          "name": "to",
          "type": "address"
        },
        {
          "internalType": "uint256",
          "name": "tokenId",
          "type": "uint256"
        }
      ],
      "name": "transferFrom",
      "outputs": [],
      "stateMutability": "nonpayable",
      "type": "function"
    },
    {
      "inputs": [
        {
          "internalType": "address",
          "name": "newOwner",
          "type": "address"
        }
      ],
      "name": "transferOwnership",
      "outputs": [],
      "stateMutability": "nonpayable",
      "type": "function"
    }
  ],
  "bytecode": {
    "object": "0x60a0806040523461006e5760078054336001600160a01b0319821681179092556001600160a01b03167f8be0079c531659141344cd1fd0a4f28419497f9722a3daafe3b4186f6b6457e0600080a3306080526155d2908162000074823960805181818161079b0152612f740152f35b600080fdfe6080604052600436101561001257600080fd5b60003560e01c806301ffc9a71461030757806306fdde0314610302578063081812fc146102fd578063095ea7b3146102f85780631d153ca4146102f357806323b872dd146102ee5780632a596e53146102e95780632b13c58f146102e45780632f441500146102df5780633fafa127146102da57806342842e0e146102d55780634f228e11146102d057806354c6d1f5146102cb578063557e7155146102c65780636352211e146102c1578063640abacd146102bc57806364640c1e146102b75780636c0360eb146102b257806370a08231146102ad578063715018a6146102a85780637ba62bf9146102a357806382732b6d1461029e5780638da5cb5b146102995780639494bf721461029457806394c5c5ca1461028f57806395d89b411461028a578063975057e7146102855780639df4546814610280578063a0b6490c1461027b578063a22cb46514610276578063a51cfd1814610271578063a8c15f4a1461026c578063aa4fb15b14610267578063ab951e3914610262578063b88d4fde1461025d578063c41c2f2414610258578063c74b13d914610253578063c87b56dd1461024e578063ca323efe14610249578063d31cc52c14610244578063d40e71461461023f578063d46cf1711461023a578063da9ee8b714610235578063e8a3d48514610230578063e985e9c51461022b578063f2fde38b146102265763f78c488b1461022157600080fd5b612054565b611d3b565b611cd1565b611c2a565b611b12565b611a56565b61199b565b61196d565b61191a565b6117f0565b61173e565b611717565b6116af565b611632565b611613565b6115f0565b611566565b611498565b61145c565b6113d7565b6113b0565b61130b565b6112cf565b6112b2565b61128b565b61123e565b6111e7565b61112d565b611084565b610fdd565b610f85565b610f66565b610f48565b610f21565b610f03565b610edd565b610ea3565b610e85565b610df2565b6108d1565b610812565b6107eb565b61077b565b61068e565b610641565b610562565b610323565b6001600160e01b031981160361031e57565b600080fd5b3461031e57602060031936011261031e576103726001600160e01b031960043561034c8161030c565b16631e7c981960e11b8114908115610376575b5060405190151581529081906020820190565b0390f35b7ffbb38e03000000000000000000000000000000000000000000000000000000008114915081156104d1575b81156104a7575b811561047d575b8115610453575b81156103c5575b503861035f565b7f80ac58cd00000000000000000000000000000000000000000000000000000000811491508115610429575b81156103ff575b50386103be565b7f01ffc9a700000000000000000000000000000000000000000000000000000000915014386103f8565b7f5b5e139f00000000000000000000000000000000000000000000000000000000811491506103f1565b7f2a55205a00000000000000000000000000000000000000000000000000000000811491506103b7565b7f2b13c58f00000000000000000000000000000000000000000000000000000000811491506103b0565b7fda9ee8b700000000000000000000000000000000000000000000000000000000811491506103a9565b7f71700c6900000000000000000000000000000000000000000000000000000000811491506103a2565b600091031261031e57565b60005b8381106105195750506000910152565b8181015183820152602001610509565b90601f19601f60209361054781518092818752878088019101610506565b0116010190565b90602061055f928181520190610529565b90565b3461031e5760008060031936011261063e576040519080805461058481610fa3565b8085529160019180831690811561061457506001146105ba575b610372856105ae81870382610d1f565b6040519182918261054e565b80809450527f290decd9548b62a8d60345a988386fc84ba6bc95484008f6362f93160ef3e5635b8284106105fc5750505081016020016105ae8261037261059e565b805460208587018101919091529093019281016105e1565b869550610372969350602092506105ae94915060ff191682840152151560051b820101929361059e565b80fd5b3461031e57602060031936011261031e57602061065f600435613d4c565b6001600160a01b0360405191168152f35b6001600160a01b0381160361031e57565b359061068c82610670565b565b3461031e57604060031936011261031e576004356106ab81610670565b6024356001600160a01b03806106c083613d02565b1680918416146107515780331415908161070f575b506106e5576106e391614739565b005b60046040517fe5fa0e35000000000000000000000000000000000000000000000000000000008152fd5b9050600052600460205261074b610747610740336040600020906001600160a01b0316600052602052604060002090565b5460ff1690565b1590565b386106d5565b60046040517f133f8be9000000000000000000000000000000000000000000000000000000008152fd5b3461031e57600060031936011261031e5760206040516001600160a01b037f0000000000000000000000000000000000000000000000000000000000000000168152f35b600319606091011261031e576004356107d781610670565b906024356107e481610670565b9060443590565b3461031e576107f9366107bf565b906108048233613de2565b156106e5576106e39261448c565b3461031e5760208060031936011261031e576004359067ffffffffffffffff9081831161031e573660238401121561031e57826004013591821161031e57602490600693368385871b8301011161031e5760005b84811061086f57005b6001906108916108853687848b1b870101610dca565b8581519101519061362c565b01610866565b90816101e091031261031e5790565b602060031982011261031e576004359067ffffffffffffffff821161031e5761055f91600401610897565b6108da366108a6565b3415801590610c0e575b8015610bfe575b610bd45760a0810135908115610baa576101c08101602461090c828461254e565b9050108015610b74575b610b4a5761092761092f918361254e565b810190612642565b91505080519161095661094a6091546001600160a01b031690565b6001600160a01b031690565b926005549360408051809263038ab08560e11b82526020938491818061098560049c8d83019190602083019252565b03915afa8015610af057600391600091610b1d575b506109a481612695565b149560005b8481106109d55788886109bb89613c63565b6109c157005b6109d06106e391608a5461225d565b608a55565b6109df8188612220565b5190610a056109f8836000526002602052604060002090565b546001600160a01b031690565b6001600160a01b03610a1961094a8a61351d565b911603610af5578489610a2b846142cd565b610a3b575b5060019150016109a9565b610a8b92610a5461094a608f546001600160a01b031690565b865180809681947f42f9914b0000000000000000000000000000000000000000000000000000000083528983019190602083019252565b03915afa918215610af057600192610ab691600091610ac3575b50600052608b602052604060002090565b8054600101905584610a30565b610ae39150873d8911610ae9575b610adb8183610d1f565b810190612160565b38610aa5565b503d610ad1565b61216f565b8284517f075fd2b1000000000000000000000000000000000000000000000000000000008152fd5b610b3d9150843d8611610b43575b610b358183610d1f565b81019061267d565b3861099a565b503d610b2b565b60046040517f2a84050f000000000000000000000000000000000000000000000000000000008152fd5b50631e7c981960e11b6001600160e01b0319610ba2610b9c610b96858761254e565b9061259f565b906125c1565b161415610916565b60046040517f76914729000000000000000000000000000000000000000000000000000000008152fd5b60046040517f7df94b86000000000000000000000000000000000000000000000000000000008152fd5b50600554602082013514156108eb565b50610c6f6020610c2961094a6006546001600160a01b031690565b6005546040517f6e49181f000000000000000000000000000000000000000000000000000000008152600481019190915233602482015292839190829081906044820190565b03915afa908115610af057600091610c89575b50156108e4565b610caa915060203d8111610cb0575b610ca28183610d1f565b810190613508565b38610c82565b503d610c98565b634e487b7160e01b600052604160045260246000fd5b6040810190811067ffffffffffffffff821117610ce957604052565b610cb7565b67ffffffffffffffff8111610ce957604052565b611000810190811067ffffffffffffffff821117610ce957604052565b90601f601f19910116810190811067ffffffffffffffff821117610ce957604052565b6040519061068c82610ccd565b60405190610160820182811067ffffffffffffffff821117610ce957604052565b60405190610180820182811067ffffffffffffffff821117610ce957604052565b60405190610120820182811067ffffffffffffffff821117610ce957604052565b67ffffffffffffffff8111610ce95760051b60200190565b919082604091031261031e57604051610de281610ccd565b6020808294803584520135910152565b3461031e5760208060031936011261031e576004359067ffffffffffffffff821161031e573660238301121561031e57816004013591610e3183610db2565b91604093610e4185519485610d1f565b80845260248285019160061b8401019236841161031e57602401905b838210610e6d576106e385613237565b828691610e7a3685610dca565b815201910190610e5d565b3461031e57600060031936011261031e576020600554604051908152f35b3461031e57610eb1366107bf565b60405191602083019383851067ffffffffffffffff861117610ce9576106e39460405260008452613d8b565b3461031e57602060031936011261031e576020610efb6004356123e0565b604051908152f35b3461031e57602060031936011261031e57602061065f60043561212e565b3461031e57600060031936011261031e5760206001600160a01b0360905416604051908152f35b3461031e57602060031936011261031e57602061065f600435613d02565b3461031e57600060031936011261031e576020604051633b9aca008152f35b3461031e57600060031936011261031e576020609254604051908152f35b90600182811c92168015610fd3575b6020831014610fbd57565b634e487b7160e01b600052602260045260246000fd5b91607f1691610fb2565b3461031e5760008060031936011261063e57604051908060945461100081610fa3565b80855291600191808316908115610614575060011461102957610372856105ae81870382610d1f565b9250609483527f7047a3cc0a76edcee45792ca71527c753f6167484f14b94c4a3bd2997516725c5b82841061106c5750505081016020016105ae8261037261059e565b80546020858701810191909152909301928101611051565b3461031e57602060031936011261031e576004356110a181610670565b60206001600160a01b03604481608f54169360405194859384927ff7888aec0000000000000000000000000000000000000000000000000000000084523060048501521660248301525afa8015610af0576103729160009161110f575b506040519081529081906020820190565b611127915060203d8111610ae957610adb8183610d1f565b386110fe565b3461031e5760008060031936011261063e57611147615001565b806001600160a01b036007546001600160a01b03198116600755167f8be0079c531659141344cd1fd0a4f28419497f9722a3daafe3b4186f6b6457e08280a380f35b81601f8201121561031e578035916111a083610db2565b926111ae6040519485610d1f565b808452602092838086019260051b82010192831161031e578301905b8282106111d8575050505090565b813581529083019083016111ca565b3461031e57604060031936011261031e5767ffffffffffffffff60043581811161031e57611219903690600401611189565b9060243590811161031e57602091611238610efb923690600401610897565b5061226a565b3461031e57604060031936011261031e57602060043561125d81610670565b6001600160a01b03809116600052608c82526040600020602435600052825260406000205416604051908152f35b3461031e57600060031936011261031e5760206001600160a01b0360075416604051908152f35b3461031e576112c0366108a6565b506020604051633b9aca008152f35b3461031e57602060031936011261031e57600435600052608e60205260206001600160e01b036113026040600020615278565b16604051908152f35b3461031e5760008060031936011261063e576040519080600180549161133083610fa3565b80865292828116908115610614575060011461135657610372856105ae81870382610d1f565b92508083527fb10e2d527612073b26eecdfd717e6a320cf44b4afac2b0732d9fcbe2b7fa0cf65b8284106113985750505081016020016105ae8261037261059e565b8054602085870181019190915290930192810161137d565b3461031e57600060031936011261031e5760206001600160a01b03608f5416604051908152f35b3461031e57600060031936011261031e576040516113f481610d02565b6110008091369037604051600a6000825b608082106114465750505061141981610d02565b60405190600090825b6080831061142f57505050f35b600190825181526020809101920192019190611422565b6001602081928554815201930191019091611405565b3461031e57600060031936011261031e5760206001600160a01b0360915416604051908152f35b8015150361031e57565b359061068c82611483565b3461031e57604060031936011261031e576004356114b581610670565b6024356114c181611483565b6001600160a01b0382169182331461153c576114fd903360005260046020526040600020906001600160a01b0316600052602052604060002090565b9015159060ff1981541660ff83161790556040519081527f17307eab39ab6107e8899845ad3d59bd9653f200f220920489ca2b5937696c3160203392a3005b60046040517f0df0273a000000000000000000000000000000000000000000000000000000008152fd5b3461031e5761157c611577366108a6565b6126b5565b60409291928051938493845261159e6020916060838701526060860190610529565b90848203838601528080855193848152019401926000905b8382106115c35786860387f35b845180516001600160a01b03168752830151868401528796509485019493820193600191909101906115b6565b3461031e57600060031936011261031e57602060ff609354166040519015158152f35b3461031e57604060031936011261031e576106e360243560043561362c565b3461031e57604060031936011261031e576106e360043561165281610670565b60243590336139bc565b67ffffffffffffffff8111610ce957601f01601f191660200190565b9291926116848261165c565b916116926040519384610d1f565b82948184528183011161031e578281602093846000960137010152565b3461031e57608060031936011261031e576004356116cc81610670565b6024356116d881610670565b6064359167ffffffffffffffff831161031e573660238401121561031e5761170d6106e3933690602481600401359101611678565b9160443591613d8b565b3461031e57600060031936011261031e5760206001600160a01b0360065416604051908152f35b3461031e5760208060031936011261031e576004359067ffffffffffffffff821161031e573660238301121561031e5781600401359161177d83610db2565b9160409361178d85519485610d1f565b80845260248285019160061b8401019236841161031e57602401905b8382106117b9576106e385613527565b858236031261031e5782869182516117d081610ccd565b84356117db81610670565b815282850135838201528152019101906117a9565b3461031e57602060031936011261031e5761181661094a608f546001600160a01b031690565b6040517f0fab094700000000000000000000000000000000000000000000000000000000815230600482015290602090829060249082905afa908115610af0576000916118ec575b50600060405180927fda0544aa000000000000000000000000000000000000000000000000000000008252816001600160a01b03816118a7600435600483019190602083019252565b0392165afa8015610af057610372916000916118cb575b506040519182918261054e565b6118e6913d8091833e6118de8183610d1f565b8101906121d2565b386118be565b61190d915060203d8111611913575b6119058183610d1f565b81019061217b565b3861185e565b503d6118fb565b3461031e57604060031936011261031e576001600160a01b0360043561193f81610670565b16600052608d602052604060002060243560005260205260206001600160e01b036113026040600020615278565b3461031e57604060031936011261031e57600435600052608e6020526020610efb60243560406000206150a1565b3461031e57606060031936011261031e576001600160a01b036004356119c081610670565b16600052608d60205260406000206024356000526020526020610efb60443560406000206150a1565b91908252611a036020916060838501526060840190610529565b90604092838184039101528080855193848152019401926000905b838210611a2d57505050505090565b845180516001600160a01b03168752830151868401529485019493820193600190910190611a1e565b3461031e576020600319818136011261031e576004359067ffffffffffffffff821161031e576101a090823603011261031e57611aa4611a9d61016483018360040161254e565b3691611678565b60405190611ab182610ccd565b6001825260005b848110611afc57509061037291610124946000611ad3610d42565b30815291820152611ae38361220e565b52611aed8261220e565b506040519485940135846119e9565b8490611b066125ed565b82828601015201611ab8565b60031960208136011261031e576004359067ffffffffffffffff821161031e5761020090823603011261031e57600554341590811591611b9e575b8115611b8f575b50611b65576106e390600401614ada565b60046040517fc715ec6c000000000000000000000000000000000000000000000000000000008152fd5b90506024820135141538611b54565b9050611bb561094a6006546001600160a01b031690565b6040517f6e49181f0000000000000000000000000000000000000000000000000000000081526004810183905233602482015290602090829060449082905afa908115610af057600091611c0c575b501590611b4d565b611c24915060203d8111610cb057610ca28183610d1f565b38611c04565b3461031e5760008060031936011261063e576040519080609554611c4d81610fa3565b808552916001918083169081156106145750600114611c7657610372856105ae81870382610d1f565b9250609583527f947035e97d0f7e1937f791bc189f60c984ceaaa7a8494fc67f9f8f4de8ccf2c65b828410611cb95750505081016020016105ae8261037261059e565b80546020858701810191909152909301928101611c9e565b3461031e57604060031936011261031e57602060ff611d2f600435611cf581610670565b6001600160a01b0360243591611d0a83610670565b16600052600484526040600020906001600160a01b0316600052602052604060002090565b54166040519015158152f35b3461031e57602060031936011261031e57600435611d5881610670565b611d60615001565b6001600160a01b03811615611d78576106e390615059565b608460405162461bcd60e51b815260206004820152602660248201527f4f776e61626c653a206e6577206f776e657220697320746865207a65726f206160448201527f64647265737300000000000000000000000000000000000000000000000000006064820152fd5b6024359061068c82610670565b9080601f8301121561031e5781602061055f93359101611678565b6084359061068c82610670565b60c4359061068c82610670565b35906cffffffffffffffffffffffffff8216820361031e57565b359063ffffffff8216820361031e57565b359061ffff8216820361031e57565b359062ffffff8216820361031e57565b81601f8201121561031e57803590611e8582610db2565b92604090611e9582519586610d1f565b83855260209182860191836101608097028601019481861161031e578401925b858410611ec6575050505050505090565b868483031261031e57848791611eda610d4f565b611ee387611e24565b8152611ef0838801611e3e565b83820152611eff868801611e3e565b868201526060611f10818901611e4f565b908201526080611f21818901610681565b9082015260a0808801359082015260c0611f3c818901611e5e565b9082015260e0611f4d81890161148d565b90820152610100611f5f81890161148d565b90820152610120611f7181890161148d565b90820152610140611f8381890161148d565b90820152815201930192611eb5565b610124359065ffffffffffff8216820361031e57565b610144359061068c82610670565b7ffffffffffffffffffffffffffffffffffffffffffffffffffffffffffffffe9c608091011261031e57604051906080820182811067ffffffffffffffff821117610ce957604052816101643561200c81611483565b81526101843561201b81611483565b60208201526101a43561202d81611483565b604082015260606101c4359161204283611483565b0152565b6101e4359061068c82610670565b3461031e5761020060031936011261031e5761206e611de2565b60443567ffffffffffffffff9182821161031e5761209160049236908401611def565b60643584811161031e576120a89036908501611def565b6120b0611e0a565b60a43586811161031e576120c79036908701611def565b6120cf611e17565b60e43588811161031e576120e69036908901611def565b916101043598891161031e576121026106e39936908a01611e6e565b9361210b611f92565b95612114611fa8565b9761211e36611fb6565b99612127612046565b9b35612f5e565b60005260086020526001600160a01b0380604060002054168061215b575060026020526040600020541690565b905090565b9081602091031261031e575190565b6040513d6000823e3d90fd5b9081602091031261031e575161055f81610670565b81601f8201121561031e5780516121a68161165c565b926121b46040519485610d1f565b8184526020828401011161031e5761055f9160208085019101610506565b9060208282031261031e57815167ffffffffffffffff811161031e5761055f9201612190565b634e487b7160e01b600052603260045260246000fd5b80511561221b5760200190565b6121f8565b805182101561221b5760209160051b010190565b634e487b7160e01b600052601160045260246000fd5b906001820180921161225857565b612234565b9190820180921161225857565b9060009180516000915b81831061228057505050565b9091936122966122908684612220565b516123e0565b810180911161225857936001019190612274565b519061068c82610670565b519061068c82611483565b60208183031261031e57805167ffffffffffffffff9182821161031e57016101808184031261031e576122f1610d70565b92815184526020820151602085015260408201516040850152606082015160608501526080820151608085015260a082015160a085015261233460c083016122aa565b60c085015260e082015160e0850152610100808301519085015261012061235c8184016122b5565b9085015261014061236e8184016122b5565b90850152610160928383015190811161031e5761238b9201612190565b9082015290565b90600019820191821161225857565b9190820391821161225857565b608081101561221b57600a0190600090565b81156123ca570490565b634e487b7160e01b600052601260045260246000fd5b61243360206123fa61094a608f546001600160a01b031690565b92604051809381927f42f9914b000000000000000000000000000000000000000000000000000000008352600483019190602083019252565b0381855afa908115610af057600091612530575b506040516364faa15960e01b8152306004820152602481018290526000604482018190529092839060649082905afa918215610af05760009261250d575b506124a461249a61249583612392565b6123ae565b90549060031b1c90565b9081156125055760608301906124c2604083519501948551906123a1565b156124fc576124ef6124de61055f956124f694519051906123a1565b91600052608b602052604060002090565b549061225d565b906123c0565b50505050600090565b505050600090565b61252991923d8091833e6125218183610d1f565b8101906122c0565b9038612485565b612548915060203d8111610ae957610adb8183610d1f565b38612447565b9035907fffffffffffffffffffffffffffffffffffffffffffffffffffffffffffffffe18136030182121561031e570180359067ffffffffffffffff821161031e5760200191813603831361031e57565b9060241161031e5760200190600490565b9060441161031e5760400190600490565b6001600160e01b031990358181169392600481106125de57505050565b60040360031b82901b16169150565b604051906125fa82610ccd565b60006020838281520152565b6040519061261382610ccd565b600182528160005b6020908181101561263d576020916126316125ed565b9082850101520161261b565b505050565b9160608383031261031e57823592602081013561265e8161030c565b92604082013567ffffffffffffffff811161031e5761055f9201611189565b9081602091031261031e5751600681101561031e5790565b6006111561269f57565b634e487b7160e01b600052602160045260246000fd5b90600090816080840135612945576101c084019060246126d5838761254e565b905010801561291b575b610b4a576126eb612606565b936127206109276126fa610d42565b30815294602095848782015261270f8961220e565b526127198861220e565b508861254e565b9491505061273961094a6091546001600160a01b031690565b91604088838251809663038ab08560e11b825281806127648760049701358783019190602083019252565b03915afa948515610af05783956128fc575b5061278085612695565b600194818682149182156128e4575b82156128cc575b82156128b8575b50506127e257505050505050611a9d6127d26127de926127cc6127c6608a5460c08a013561225d565b9161226a565b906154f7565b946101a081019061254e565b9190565b949895929190835193829661280261094a608f546001600160a01b031690565b915b86891061282657505050505050505050611a9d816101a06127de93019061254e565b90919293949596979b612874908661283e8f85612220565b5187518094819263c44a8e6d60e01b83523089840160409060009294936001600160a01b03606083019616825260208201520152565b0381885afa918215610af0578a928991899161289e575b500151019c019796959493929190612804565b6128b291503d808b833e6125218183610d1f565b3861288b565b9091506128c481612695565b14813861279d565b8092506128d99150612695565b816005821491612796565b8092506128f19150612695565b81600282149161278f565b612914919550843d8611610b4357610b358183610d1f565b9338612776565b50631e7c981960e11b6001600160e01b031961293d610b9c610b96868a61254e565b1614156126df565b60046040517f4fc178d8000000000000000000000000000000000000000000000000000000008152fd5b601f811161297b575050565b6000908180527f290decd9548b62a8d60345a988386fc84ba6bc95484008f6362f93160ef3e563906020601f850160051c830194106129d5575b601f0160051c01915b8281106129ca57505050565b8181556001016129be565b90925082906129b5565b601f81116129eb575050565b600090609482527f7047a3cc0a76edcee45792ca71527c753f6167484f14b94c4a3bd2997516725c906020601f850160051c83019410612a46575b601f0160051c01915b828110612a3b57505050565b818155600101612a2f565b9092508290612a26565b601f8111612a5c575050565b600090609582527f947035e97d0f7e1937f791bc189f60c984ceaaa7a8494fc67f9f8f4de8ccf2c6906020601f850160051c83019410612ab7575b601f0160051c01915b828110612aac57505050565b818155600101612aa0565b9092508290612a97565b90601f8211612ace575050565b6001916000908382527fb10e2d527612073b26eecdfd717e6a320cf44b4afac2b0732d9fcbe2b7fa0cf6906020601f850160051c83019410612b2b575b601f0160051c01915b828110612b215750505050565b8181558301612b14565b9092508290612b0b565b90815167ffffffffffffffff8111610ce957612b5b81612b56609454610fa3565b6129df565b602080601f8311600114612b965750819293600092612b8b575b50506000198260011b9260031b1c191617609455565b015190503880612b75565b90601f19831694612bc960946000527f7047a3cc0a76edcee45792ca71527c753f6167484f14b94c4a3bd2997516725c90565b926000905b878210612c06575050836001959610612bed575b505050811b01609455565b015160001960f88460031b161c19169055388080612be2565b80600185968294968601518155019501930190612bce565b90815167ffffffffffffffff8111610ce957612c4481612c3f609554610fa3565b612a50565b602080601f8311600114612c7f5750819293600092612c74575b50506000198260011b9260031b1c191617609555565b015190503880612c5e565b90601f19831694612cb260956000527f947035e97d0f7e1937f791bc189f60c984ceaaa7a8494fc67f9f8f4de8ccf2c690565b926000905b878210612cef575050836001959610612cd6575b505050811b01609555565b015160001960f88460031b161c19169055388080612ccb565b80600185968294968601518155019501930190612cb7565b90815167ffffffffffffffff8111610ce957600190612d2f81612d2a8454610fa3565b612ac1565b602080601f8311600114612d69575081929394600092612d5e575b505060001982841b9260031b1c1916179055565b015190503880612d4a565b90601f19831695612d9c60016000527fb10e2d527612073b26eecdfd717e6a320cf44b4afac2b0732d9fcbe2b7fa0cf690565b926000905b888210612dd75750508385969710612dbe575b505050811b019055565b015160001960f88460031b161c19169055388080612db4565b808785968294968601518155019501930190612da1565b81601f8201121561031e57805191612e0583610db2565b92612e136040519485610d1f565b808452602092838086019260051b82010192831161031e578301905b828210612e3d575050505090565b81518152908301908301612e2f565b9060208282031261031e57815167ffffffffffffffff811161031e5761055f9201612dee565b60208082019080835283518092528060408094019401926000905b838210612e9c57505050505090565b909192939483610160600192612f518951612ec68382516cffffffffffffffffffffffffff169052565b8085015163ffffffff16838601528087015163ffffffff168388015260608181015161ffff16908401526080818101516001600160a01b03169084015260a0818101519084015260c08082015162ffffff169084015260e081810151151590840152610100818101511515908401526101208181015115159084015261014090810151151590830152565b0196019493920190612e8d565b94959b9398909a99979a6001600160a01b03998a7f000000000000000000000000000000000000000000000000000000000000000016301461031e578a612fb061094a608f546001600160a01b031690565b1661031e57612fd16130139565ffffffffffff95612fed9461302f9a614904565b6001600160a01b03166001600160a01b03196090541617609055565b61300d886001600160a01b03166001600160a01b0319608f541617608f55565b16609255565b6001600160a01b03166001600160a01b03196091541617609155565b8051613228575b508051613219575b508185166131a1575b61308594501691604051907f8da5e32b0000000000000000000000000000000000000000000000000000000082528180600096879360048301612e72565b038183875af18015610af05761317f575b50805115158015613172575b8015613165575b8015613158575b6130c1575b50505061068c33615059565b813b1561315457604080517fcb827e3200000000000000000000000000000000000000000000000000000000815282511515600482015260208301511515602482015290820151151560448201526060909101511515606482015291908290608490829084905af18015610af05761313b575b80806130b5565b8061314861314e92610cee565b806104fb565b38613134565b8280fd5b50606081015115156130b0565b50604081015115156130a9565b50602081015115156130a2565b61319a903d8086833e6131928183610d1f565b810190612e4c565b5038613096565b818116803b1561031e576040517fd84a72c00000000000000000000000000000000000000000000000000000000081526001600160a01b039690961660048701526000908690602490829084905af1948515610af05761308595613206575b50613047565b8061314861321392610cee565b38613200565b61322290612c1e565b3861303e565b61323190612b35565b38613036565b61323f615001565b61325461094a6091546001600160a01b031690565b600554916040918251809163038ab08560e11b82526020928391818061328360049a8b83019190602083019252565b03915afa908115610af0576000916134eb575b506132a081612695565b600381036134c25760935460ff16613499576132bb81612695565b8460058214918215613485575b505061345d576132e361094a608f546001600160a01b031690565b9080845180937ff1bea54f000000000000000000000000000000000000000000000000000000008252818061332a308b83019190916001600160a01b036020820193169052565b03915afa918215610af05760009261343e575b50909160009181519183945b83861061339a5750505050633b9aca0091501161337457505061068c600160ff196093541617609355565b517f6ff44e97000000000000000000000000000000000000000000000000000000008152fd5b90919293816133a98785612220565b5151116134165761340a6001916133f6866133c48a88612220565b5101516133de6124956133d78c8a612220565b5151612392565b90919060001983549160031b92831b921b1916179055565b856134018987612220565b5101519061225d565b95019493929190613349565b8787517f52385374000000000000000000000000000000000000000000000000000000008152fd5b816134569293503d8411610ae957610adb8183610d1f565b903861333d565b5050517f6fb84075000000000000000000000000000000000000000000000000000000008152fd5b90915061349181612695565b1484386132c8565b505050517f38101407000000000000000000000000000000000000000000000000000000008152fd5b505050517f03ce4502000000000000000000000000000000000000000000000000000000008152fd5b6135029150823d8411610b4357610b358183610d1f565b38613296565b9081602091031261031e575161055f81611483565b3561055f81610670565b8051906135326125ed565b5060005b82811061354257505050565b61354c8183612220565b51906001600160a01b03808351161561357b5782602061357592600195511691015190336139bc565b01613536565b60046040517f53d304f4000000000000000000000000000000000000000000000000000000008152fd5b908161012091031261031e576135b9610d91565b90805182526020810151602083015260408101516040830152606081015160608301526080810151608083015260a081015160a083015260c081015160c083015261360660e082016122aa565b60e0830152610100809101519082015290565b8181029291811591840414171561225857565b9061364261094a6090546001600160a01b031690565b9161367160055493604094855180926321d1336160e11b82528180610120968795600483019190602083019252565b03915afa918215610af0576136a29260ff926101009260009261398f575b5050015160f41c1660018091811c161490565b613966576136bb61094a608f546001600160a01b031690565b83517f136e651c0000000000000000000000000000000000000000000000000000000081523060048201526024810183905290602090829060449082905afa908115610af057600091613948575b5061373d6109f88361372e846001600160a01b0316600052608c602052604060002090565b90600052602052604060002090565b6001600160a01b03918282161594856138d9575b61376661094a608f546001600160a01b031690565b87517fbaa7e80e000000000000000000000000000000000000000000000000000000008152600481018790526024810183905294906000908690604490829084905af1948515610af0576000956138be575b5060005b82811061386f5750505060006137dd61094a608f546001600160a01b031690565b96516364faa15960e01b8152306004820152602481018690526000604482015296879060649082905afa948515610af05761068c96600096613847575b509160209161383994931560001461383f5750945b0151905190613619565b91613aa4565b90509461382f565b91613864602093613839969593983d8091833e6125218183610d1f565b96919394509161381a565b8061387c60019288612220565b516138878187613e63565b8a51338152848716918a917f031e1988c95a91ec4d655ff63a8f87a80bc9daf28d95ae10ee08c0022cfb5c8b90602090a4016137bc565b6138d291953d8091833e6131928183610d1f565b93386137b8565b613919826138fe8761372e836001600160a01b0316600052608c602052604060002090565b906001600160a01b03166001600160a01b0319825416179055565b8382166000817f3134e8a2e6d97e929a7e54011ea5485d7d196dd5f0ba4d4ef95803e8e3fc257f8280a4613751565b613960915060203d8111611913576119058183610d1f565b38613709565b600483517fe96092b8000000000000000000000000000000000000000000000000000000008152fd5b6139ae9250803d106139b5575b6139a68183610d1f565b8101906135a5565b388061368f565b503d61399c565b6001600160a01b039081166000818152608c602090815260408083208784528252822080548686166001600160a01b03198216811790925592969195919491939282169291869184847f3134e8a2e6d97e929a7e54011ea5485d7d196dd5f0ba4d4ef95803e8e3fc257f8b80a4608f5416916064604051809481937f2e4d0ea800000000000000000000000000000000000000000000000000000000835230600484015260248301528860448301525afa948515610af05761068c9695613a85575b5050613b35565b613a9c929550803d10610ae957610adb8183610d1f565b923880613a7e565b9061068c92916000828152608e602052613ac184604083206151a1565b505060406001600160a01b039182841615613b1a575b808052608c602052818120858252602052613b0b838383205416946001600160a01b0316600052608c602052604060002090565b85825260205220541690613b35565b848152608e602052613b2e86838320615250565b5050613ad7565b9192906001600160a01b03928382169381168481148015613c5b575b613c5357859181613be0575b50505082613b6c575b50505050565b7fed0c1e94c302bdbbd8bbd6a4fb7c3ed335c2292407cd816eadd075d019d0ce0491613bae613bbf926001600160a01b0316600052608d602052604060002090565b8560005260205260406000206151a1565b6040805192835260208301919091523390820152606090a338808080613b66565b613bfd906001600160a01b0316600052608d602052604060002090565b826000526020527fed0c1e94c302bdbbd8bbd6a4fb7c3ed335c2292407cd816eadd075d019d0ce04613c33856040600020615250565b6040805192835260208301919091523390820152606090a3833880613b5d565b505050505050565b508315613b51565b6001600160a01b03608f5416803b1561031e5760405180927f86bc2be3000000000000000000000000000000000000000000000000000000008252602482016020908160048501528251809152816044850193019160005b828110613ceb57505050509181600081819503925af18015610af057613cde5750565b8061314861068c92610cee565b835185528795509381019392810192600101613cbb565b60005260026020526001600160a01b03604060002054168015613d225790565b60046040517fb49aa3b5000000000000000000000000000000000000000000000000000000008152fd5b613d6c8160005260026020526001600160a01b0360406000205416151590565b15613d225760005260036020526001600160a01b036040600020541690565b929190613d988233613de2565b156106e55783613dac8383613db19761448c565b614817565b15613db857565b60046040517f6deaf836000000000000000000000000000000000000000000000000000000008152fd5b6001600160a01b0380613df484613d02565b169281831692848414948515613e2a575b50508315613e14575b50505090565b613e2091929350613d4c565b1614388080613e0e565b60ff92955090613e599160005260046020526040600020906001600160a01b0316600052602052604060002090565b5416923880613e05565b9190916001600160a01b038116908115613fe057613e978460005260026020526001600160a01b0360406000205416151590565b613fb657836000928184526002602052613eca8360408620906001600160a01b03166001600160a01b0319825416179055565b837fddf252ad1be2c89b69c2b068fc378daa952ba7f163c4a11628f55a4df523b3ef8180a4613f3782613f0861094a608f546001600160a01b031690565b60405163c44a8e6d60e01b81523060048201526024810197909752600060448801529591829081906064820190565b0381885afa908115610af0578391613f9c575b505193803b15613154576040516330b157e560e21b81526004810195909552600060248601526001600160a01b039190911660448501529192918290606490829084905af18015610af057613cde5750565b613fb091503d8085833e6125218183610d1f565b38613f4a565b60046040517fbad7c30c000000000000000000000000000000000000000000000000000000008152fd5b60046040517f7208af1e000000000000000000000000000000000000000000000000000000008152fd5b90614057929161402561094a608f546001600160a01b031690565b60405163c44a8e6d60e01b81523060048201526024810193909352600060448401819052948590849081906064820190565b0381845afa928315610af05785936140da575b508251813b156140d6576040516330b157e560e21b815260048101919091526001600160a01b0383166024820152600060448201529394908490606490829084905af1928315610af05761068c936140c3575b506141e4565b806131486140d092610cee565b386140bd565b8580fd5b6140ef9193503d8087833e6125218183610d1f565b913861406a565b9061414493929161411261094a608f546001600160a01b031690565b60405163c44a8e6d60e01b81523060048201526024810194909452600060448501819052958690859081906064820190565b0381845afa938415610af05786946141c8575b508351813b156141c4576040516330b157e560e21b815260048101919091526001600160a01b038381166024830152841660448201529495908590606490829084905af1938415610af05761068c946141b1575b50614250565b806131486141be92610cee565b386141ab565b8680fd5b6141dd9194503d8088833e6125218183610d1f565b9238614157565b6001600160a01b0380911691821561263d5761068c926080825192015192600091838352608e60205261421a8560408520615250565b50508252608c60205260408220838352602052604081818420541692808052608c60205281812085825260205220541690613b35565b916001600160a01b03809316918215613b665761068c9360406080845194015194828416156142b0575b6000908152608c602052818120858252602052613b0b838383205416946001600160a01b0316600052608c602052604060002090565b84600052608e6020526142c68683600020615250565b505061427a565b6142d681613d02565b906001600160a01b038216918261433b575b81600061068c946142f8836146e3565b8282526002602052604082206001600160a01b031981541690557fddf252ad1be2c89b69c2b068fc378daa952ba7f163c4a11628f55a4df523b3ef8280a461400a565b61435061094a608f546001600160a01b031690565b60405163c44a8e6d60e01b8152306004820152602481018490526000604482018190529091829060649082905afa908115610af05761439d9161014091600091614473575b500151151590565b6143ef575b81600061068c946143c361094a6109f8856000526008602052604060002090565b156143d2575b945050506142e8565b6143ea846138fe856000526008602052604060002090565b6143c9565b6144319261440861094a6090546001600160a01b031690565b9060055460405180936321d1336160e11b82528180610120998a95600483019190602083019252565b03915afa908115610af05761068c958593600093614455575b5050945050506143a2565b8161446b92903d106139b5576139a68183610d1f565b50388061444a565b614486913d8091833e6125218183610d1f565b38614395565b919061449782613d02565b6001600160a01b03808516949181168590036146b957821693841561468f5780614522575b61068c9484916144cb836146e3565b8260005260026020526144f8856040600020906001600160a01b03166001600160a01b0319825416179055565b7fddf252ad1be2c89b69c2b068fc378daa952ba7f163c4a11628f55a4df523b3ef600080a46140f6565b61453761094a608f546001600160a01b031690565b60405163c44a8e6d60e01b8152306004820152602481018690526000604482018190529091829060649082905afa908115610af057614583916101409160009161447357500151151590565b6145d4575b61068c9484916145a861094a6109f8856000526008602052604060002090565b156145b7575b915094506144bc565b6145cf846138fe856000526008602052604060002090565b6145ae565b6146146145ec61094a6090546001600160a01b031690565b60055460405180926321d1336160e11b82528180610120968795600483019190602083019252565b03915afa918215610af0576146439260ff9261010092600092614672575b5050015160f41c1660018091161490565b156145885760046040517f18cdaf97000000000000000000000000000000000000000000000000000000008152fd5b6146889250803d106139b5576139a68183610d1f565b3880614632565b60046040517f2c955427000000000000000000000000000000000000000000000000000000008152fd5b60046040517fa195bc53000000000000000000000000000000000000000000000000000000008152fd5b80600052600360205260406000206001600160a01b0319815416905560006001600160a01b0361471283613d02565b167f8c5be1e5ebec7d5bd14f71427d1e84f3dd0314c0f7b2291e5b200ac8c7c3b9258280a4565b816000526003602052614766816040600020906001600160a01b03166001600160a01b0319825416179055565b6001600160a01b038061477884613d02565b169116907f8c5be1e5ebec7d5bd14f71427d1e84f3dd0314c0f7b2291e5b200ac8c7c3b925600080a4565b9081602091031261031e575161055f8161030c565b909261055f94936080936001600160a01b03809216845216602083015260408201528160608201520190610529565b3d15614812573d906147f88261165c565b916148066040519384610d1f565b82523d6000602084013e565b606090565b92909190823b156148fb5761486b9260209260006001600160a01b036040518097819682957f150b7a02000000000000000000000000000000000000000000000000000000009b8c855233600486016147b8565b0393165af1600091816148cb575b506148bd576148866147e7565b805190816148b85760046040517f6deaf836000000000000000000000000000000000000000000000000000000008152fd5b602001fd5b6001600160e01b0319161490565b6148ed91925060203d81116148f4575b6148e58183610d1f565b8101906147a3565b9038614879565b503d6148db565b50505050600190565b91929092805167ffffffffffffffff8111610ce95760009161492f8261492a8554610fa3565b61296f565b60209081601f841160011461499b5750928261496f93614974969361068c9998968492614990575b50506000198260011b9260031b1c1916179055612d07565b600555565b6001600160a01b03166001600160a01b03196006541617600655565b015190503880614957565b600080529190601f1984167f290decd9548b62a8d60345a988386fc84ba6bc95484008f6362f93160ef3e5639386905b828210614a1557505093614974969361068c999896936001938361496f98106149fc575b505050811b019055612d07565b015160001960f88460031b161c191690553880806149ef565b806001869782949787015181550196019401906149cb565b9160a08383031261031e5782359260209182820135936040830135614a518161030c565b936060840135614a6081610670565b9360808101359067ffffffffffffffff821161031e57019180601f8401121561031e578235614a8e81610db2565b93614a9c6040519586610d1f565b818552838086019260051b82010192831161031e578301905b828210614ac3575050505090565b838091614acf84611e4f565b815201910190614ab5565b60925460c082013503614e3c576101e081016044614af8828461254e565b90501180614e0d575b614b09575050565b614b16614b1e918361254e565b810190614a2d565b93509150506001600160a01b0380911690825115614de3576000808091855194828115908115905b888110614ba25750505050505050505090614b72916080614b6a610180840161351d565b920135614ee7565b614b7857565b60046040517f6d5e09a4000000000000000000000000000000000000000000000000000000008152fd5b8a614bc2614bbb614bb3848e612220565b5161ffff1690565b61ffff1690565b8603614ce5575b614bf66109f88761372e614bdd8c9561351d565b6001600160a01b0316600052608c602052604060002090565b8b8b8587614cda575b614c10575b50505050600101614b46565b9388809392614c21839c9697612392565b83109283614cb4575b505050600014614c4f575050600191614c429161225d565b955b905086388b8b614c04565b614c7b93508d82888780614ca8575b614c8f575b5050508985600014614c85576138399150879361225d565b6001600095614c44565b613839919361225d565b614c9b614ca09361351d565b6139bc565b8d8288614c63565b508d8416811415614c5e565b61ffff929350614cd091614cca614bb39261224a565b90612220565b1614828e8b614c2a565b508b83161515614bff565b5093909550614cfa614bbb614bb3868c612220565b10614db957614d6d94614d13614bbb614bb3868c612220565b9360008a614d39614bb384614d3361094a608f546001600160a01b031690565b93612220565b6040516364faa15960e01b815230600482015261ffff90911660248201526000604482015298899190829081906064820190565b03915afa8015610af057614bf66109f88761372e8f94608090614bdd9d600091614da0575b5001519b5050505050614bc9565b614db3913d8091833e6125218183610d1f565b38614d92565b60046040517f9fda363d000000000000000000000000000000000000000000000000000000008152fd5b60046040517f3d04bd1f000000000000000000000000000000000000000000000000000000008152fd5b50631e7c981960e11b6001600160e01b0319614e35610b9c614e2f858761254e565b906125b0565b1614614b01565b60046040517f79cf85c0000000000000000000000000000000000000000000000000000000008152fd5b919060408382031261031e57825167ffffffffffffffff811161031e57602091614e91918501612dee565b92015190565b929190606084019084526020906060828601528251809152816080860193019160005b828110614ecf57505050506040600091930152565b835161ffff1685529381019392810192600101614eba565b929192614eff61094a608f546001600160a01b031690565b9160409081519586947feaa19ab30000000000000000000000000000000000000000000000000000000086526000958691818381614f41888b60048401614e97565b03925af18015610af05785978691614fd9575b50968051955b868110614f6a5750505050505050565b80614f7760019284612220565b51614f828186613e63565b61ffff614f92614bb38489612220565b88518a81523360208201526001600160a01b0388169391909216917f598baf7bf150ca2f42be9e9f8f55e81d45f5715c3ff22bf46d697fabec7f31d690604090a401614f5a565b9050614ff89197503d8087833e614ff08183610d1f565b810190614e66565b96909638614f54565b6001600160a01b0360075416330361501557565b606460405162461bcd60e51b815260206004820152602060248201527f4f776e61626c653a2063616c6c6572206973206e6f7420746865206f776e65726044820152fd5b600754906001600160a01b0380911691826001600160a01b0319821617600755167f8be0079c531659141344cd1fd0a4f28419497f9722a3daafe3b4186f6b6457e0600080a3565b904381101561515d576150b39061547c565b90805491600063ffffffff8092165b84821061510957505050816150d957506000919050565b6150fe615105916150f16001600160e01b0394612392565b9060005260206000200190565b5460201c90565b1690565b9091938083169080841860011c82018092116122585784600052828661513a8460206000200163ffffffff90541690565b16111561514b5750935b91906150c2565b9492506151579061224a565b91615144565b606460405162461bcd60e51b815260206004820152602060248201527f436865636b706f696e74733a20626c6f636b206e6f7420796574206d696e65646044820152fd5b6001600160e01b039291836151b583615278565b16908101809111612258576151c94361547c565b918482116151e6578492836151df931691615362565b9316921690565b608460405162461bcd60e51b815260206004820152602760248201527f53616665436173743a2076616c756520646f65736e27742066697420696e203260448201527f32342062697473000000000000000000000000000000000000000000000000006064820152fd5b6001600160e01b0392918361526483615278565b16908103908111612258576151c94361547c565b80546000918161528a57505050600090565b6000199282848101116122585760209181522001015460201c90565b90815468010000000000000000811015610ce9576001810180845581101561221b57600092835260209283902082519284015190931b63ffffffff191663ffffffff9290921691909117910155565b9060405161530281610ccd565b602081935463ffffffff81168352811c910152565b1561531e57565b606460405162461bcd60e51b815260206004820152601760248201527f436865636b706f696e743a20696e76616c6964206b65790000000000000000006044820152fd5b909291928382548015156000146154515792602092918461539d61539861538b6127de98612392565b8560005260206000200190565b6152f5565b936153ac855163ffffffff1690565b6153c363ffffffff91828416928391161115615317565b6153dd6153d4875163ffffffff1690565b63ffffffff1690565b0361541b575061540d926150f16153f392612392565b9063ffffffff63ffffffff1983549260201b169116179055565b01516001600160e01b031690565b91505061544c9161543961542d610d42565b63ffffffff9093168352565b6001600160e01b038816828601526152a6565b61540d565b50506154769161546261542d610d42565b6001600160e01b03851660208301526152a6565b60009190565b63ffffffff9081811161548d571690565b608460405162461bcd60e51b815260206004820152602660248201527f53616665436173743a2076616c756520646f65736e27742066697420696e203360448201527f32206269747300000000000000000000000000000000000000000000000000006064820152fd5b91906000198184098184029182808310920391808303921461558f57633b9aca009081831015615558577f88f2cfb83100cb4e69e7c79c58b316e597157d372fb9787e8e47ce423a2e9c6d94950990828211900360f71b910360091c170290565b60448383604051917f773cc18c00000000000000000000000000000000000000000000000000000000835260048301526024820152fd5b5050633b9aca009004915056fea264697066735822122036231d9246386e7b4e66bcd7c9ad929f2ff9b7b65f15a358e372f367f562543264736f6c63430008140033",
    "linkReferences": {}
  },
  "methodIdentifiers": {
    "TOTAL_REDEMPTION_WEIGHT()": "640abacd",
    "approve(address,uint256)": "095ea7b3",
    "balanceOf(address)": "70a08231",
    "baseURI()": "6c0360eb",
    "codeOrigin()": "1d153ca4",
    "contractURI()": "e8a3d485",
    "didPay((address,uint256,uint256,(address,uint256,uint256,uint256),(address,uint256,uint256,uint256),uint256,address,bool,string,bytes))": "da9ee8b7",
    "didRedeem((address,uint256,uint256,uint256,(address,uint256,uint256,uint256),(address,uint256,uint256,uint256),address,string,bytes))": "2b13c58f",
    "directory()": "c41c2f24",
    "firstOwnerOf(uint256)": "54c6d1f5",
    "fundingCycleStore()": "557e7155",
    "gamePhaseReporter()": "a0b6490c",
    "getApproved(uint256)": "081812fc",
    "getPastTierTotalVotes(uint256,uint256)": "d31cc52c",
    "getPastTierVotes(address,uint256,uint256)": "d40e7146",
    "getTierDelegate(address,uint256)": "82732b6d",
    "getTierTotalVotes(uint256)": "94c5c5ca",
    "getTierVotes(address,uint256)": "ca323efe",
    "initialize(uint256,address,string,string,address,string,address,string,(uint104,uint32,uint32,uint16,address,bytes32,uint24,bool,bool,bool,bool)[],uint48,address,(bool,bool,bool,bool),address)": "f78c488b",
    "isApprovedForAll(address,address)": "e985e9c5",
    "mintReservesFor((uint256,uint256)[])": "2a596e53",
    "mintReservesFor(uint256,uint256)": "aa4fb15b",
    "name()": "06fdde03",
    "owner()": "8da5cb5b",
    "ownerOf(uint256)": "6352211e",
    "payParams((address,address,(address,uint256,uint256,uint256),uint256,uint256,address,uint256,uint256,string,bytes))": "d46cf171",
    "pricingCurrency()": "64640c1e",
    "projectId()": "3fafa127",
    "redeemParams((address,address,uint256,uint256,uint256,uint256,uint256,(address,uint256,uint256,uint256),bool,uint256,string,bytes))": "a51cfd18",
    "redemptionWeightIsSet()": "a8c15f4a",
    "redemptionWeightOf(uint256)": "4f228e11",
    "redemptionWeightOf(uint256[],(address,address,uint256,uint256,uint256,uint256,uint256,(address,uint256,uint256,uint256),bool,uint256,string,bytes))": "7ba62bf9",
    "renounceOwnership()": "715018a6",
    "safeTransferFrom(address,address,uint256)": "42842e0e",
    "safeTransferFrom(address,address,uint256,bytes)": "b88d4fde",
    "setApprovalForAll(address,bool)": "a22cb465",
    "setTierDelegate(address,uint256)": "ab951e39",
    "setTierDelegates((address,uint256)[])": "c74b13d9",
    "setTierRedemptionWeights((uint256,uint256)[])": "2f441500",
    "store()": "975057e7",
    "supportsInterface(bytes4)": "01ffc9a7",
    "symbol()": "95d89b41",
    "tierRedemptionWeights()": "9df45468",
    "tokenURI(uint256)": "c87b56dd",
    "totalRedemptionWeight((address,address,uint256,uint256,uint256,uint256,uint256,(address,uint256,uint256,uint256),bool,uint256,string,bytes))": "9494bf72",
    "transferFrom(address,address,uint256)": "23b872dd",
    "transferOwnership(address)": "f2fde38b"
  },
  "id": 0
}