{
  "abi": [
    {
      "inputs": [],
      "stateMutability": "nonpayable",
      "type": "constructor"
    },
    {
      "inputs": [],
      "name": "ALEADY_MINTED",
      "type": "error"
    },
    {
      "inputs": [],
      "name": "APPROVAL_TO_CURRENT_OWNER",
      "type": "error"
    },
    {
      "inputs": [],
      "name": "APPROVE_TO_CALLER",
      "type": "error"
    },
    {
      "inputs": [],
      "name": "BAD_TIER_ORDER",
      "type": "error"
    },
    {
      "inputs": [],
      "name": "CALLER_NOT_OWNER_OR_APPROVED",
      "type": "error"
    },
    {
      "inputs": [],
      "name": "DELEGATE_ADDRESS_ZERO",
      "type": "error"
    },
    {
      "inputs": [],
      "name": "DELEGATE_CHANGES_UNAVAILABLE_IN_THIS_PHASE",
      "type": "error"
    },
    {
      "inputs": [],
      "name": "GAME_ISNT_SCORING_YET",
      "type": "error"
    },
    {
      "inputs": [],
      "name": "INCORRECT_OWNER",
      "type": "error"
    },
    {
      "inputs": [],
      "name": "INVALID_PAYMENT_EVENT",
      "type": "error"
    },
    {
      "inputs": [],
      "name": "INVALID_REDEMPTION_EVENT",
      "type": "error"
    },
    {
      "inputs": [],
      "name": "INVALID_REDEMPTION_METADATA",
      "type": "error"
    },
    {
      "inputs": [],
      "name": "INVALID_REDEMPTION_WEIGHTS",
      "type": "error"
    },
    {
      "inputs": [],
      "name": "INVALID_TIER_ID",
      "type": "error"
    },
    {
      "inputs": [],
      "name": "INVALID_TOKEN_ID",
      "type": "error"
    },
    {
      "inputs": [],
      "name": "MINT_TO_ZERO",
      "type": "error"
    },
    {
      "inputs": [],
      "name": "NOTHING_TO_CLAIM",
      "type": "error"
    },
    {
      "inputs": [],
      "name": "NOTHING_TO_MINT",
      "type": "error"
    },
    {
      "inputs": [],
      "name": "NO_CONTEST",
      "type": "error"
    },
    {
      "inputs": [],
      "name": "OVERSPENDING",
      "type": "error"
    },
    {
      "inputs": [
        {
          "internalType": "uint256",
          "name": "prod1",
          "type": "uint256"
        },
        {
          "internalType": "uint256",
          "name": "denominator",
          "type": "uint256"
        }
      ],
      "name": "PRBMath__MulDivOverflow",
      "type": "error"
    },
    {
      "inputs": [],
      "name": "REDEMPTION_WEIGHTS_ALREADY_SET",
      "type": "error"
    },
    {
      "inputs": [],
      "name": "RESERVED_TOKEN_MINTING_PAUSED",
      "type": "error"
    },
    {
      "inputs": [],
      "name": "TRANSFERS_PAUSED",
      "type": "error"
    },
    {
      "inputs": [],
      "name": "TRANSFER_TO_NON_IMPLEMENTER",
      "type": "error"
    },
    {
      "inputs": [],
      "name": "TRANSFER_TO_ZERO_ADDRESS",
      "type": "error"
    },
    {
      "inputs": [],
      "name": "UNAUTHORIZED",
      "type": "error"
    },
    {
      "inputs": [
        {
          "internalType": "uint256",
          "name": "_tokenId",
          "type": "uint256"
        }
      ],
      "name": "UNAUTHORIZED_TOKEN",
      "type": "error"
    },
    {
      "inputs": [],
      "name": "UNEXPECTED_TOKEN_REDEEMED",
      "type": "error"
    },
    {
      "inputs": [],
      "name": "WRONG_CURRENCY",
      "type": "error"
    },
    {
      "anonymous": false,
      "inputs": [
        {
          "indexed": true,
          "internalType": "address",
          "name": "owner",
          "type": "address"
        },
        {
          "indexed": true,
          "internalType": "address",
          "name": "approved",
          "type": "address"
        },
        {
          "indexed": true,
          "internalType": "uint256",
          "name": "tokenId",
          "type": "uint256"
        }
      ],
      "name": "Approval",
      "type": "event"
    },
    {
      "anonymous": false,
      "inputs": [
        {
          "indexed": true,
          "internalType": "address",
          "name": "owner",
          "type": "address"
        },
        {
          "indexed": true,
          "internalType": "address",
          "name": "operator",
          "type": "address"
        },
        {
          "indexed": false,
          "internalType": "bool",
          "name": "approved",
          "type": "bool"
        }
      ],
      "name": "ApprovalForAll",
      "type": "event"
    },
    {
      "anonymous": false,
      "inputs": [
        {
          "indexed": true,
          "internalType": "address",
          "name": "delegator",
          "type": "address"
        },
        {
          "indexed": true,
          "internalType": "address",
          "name": "fromDelegate",
          "type": "address"
        },
        {
          "indexed": true,
          "internalType": "address",
          "name": "toDelegate",
          "type": "address"
        }
      ],
      "name": "DelegateChanged",
      "type": "event"
    },
    {
      "anonymous": false,
      "inputs": [
        {
          "indexed": true,
          "internalType": "uint256",
          "name": "tokenId",
          "type": "uint256"
        },
        {
          "indexed": true,
          "internalType": "uint256",
          "name": "tierId",
          "type": "uint256"
        },
        {
          "indexed": true,
          "internalType": "address",
          "name": "beneficiary",
          "type": "address"
        },
        {
          "indexed": false,
          "internalType": "uint256",
          "name": "totalAmountContributed",
          "type": "uint256"
        },
        {
          "indexed": false,
          "internalType": "address",
          "name": "caller",
          "type": "address"
        }
      ],
      "name": "Mint",
      "type": "event"
    },
    {
      "anonymous": false,
      "inputs": [
        {
          "indexed": true,
          "internalType": "uint256",
          "name": "tokenId",
          "type": "uint256"
        },
        {
          "indexed": true,
          "internalType": "uint256",
          "name": "tierId",
          "type": "uint256"
        },
        {
          "indexed": true,
          "internalType": "address",
          "name": "beneficiary",
          "type": "address"
        },
        {
          "indexed": false,
          "internalType": "address",
          "name": "caller",
          "type": "address"
        }
      ],
      "name": "MintReservedToken",
      "type": "event"
    },
    {
      "anonymous": false,
      "inputs": [
        {
          "indexed": true,
          "internalType": "address",
          "name": "previousOwner",
          "type": "address"
        },
        {
          "indexed": true,
          "internalType": "address",
          "name": "newOwner",
          "type": "address"
        }
      ],
      "name": "OwnershipTransferred",
      "type": "event"
    },
    {
      "anonymous": false,
      "inputs": [
        {
          "indexed": true,
          "internalType": "address",
          "name": "delegate",
          "type": "address"
        },
        {
          "indexed": true,
          "internalType": "uint256",
          "name": "tierId",
          "type": "uint256"
        },
        {
          "indexed": false,
          "internalType": "uint256",
          "name": "previousBalance",
          "type": "uint256"
        },
        {
          "indexed": false,
          "internalType": "uint256",
          "name": "newBalance",
          "type": "uint256"
        },
        {
          "indexed": false,
          "internalType": "address",
          "name": "caller",
          "type": "address"
        }
      ],
      "name": "TierDelegateVotesChanged",
      "type": "event"
    },
    {
      "anonymous": false,
      "inputs": [
        {
          "indexed": true,
          "internalType": "address",
          "name": "from",
          "type": "address"
        },
        {
          "indexed": true,
          "internalType": "address",
          "name": "to",
          "type": "address"
        },
        {
          "indexed": true,
          "internalType": "uint256",
          "name": "tokenId",
          "type": "uint256"
        }
      ],
      "name": "Transfer",
      "type": "event"
    },
    {
      "inputs": [],
      "name": "TOTAL_REDEMPTION_WEIGHT",
      "outputs": [
        {
          "internalType": "uint256",
          "name": "",
          "type": "uint256"
        }
      ],
      "stateMutability": "view",
      "type": "function"
    },
    {
      "inputs": [],
      "name": "amountRedeemed",
      "outputs": [
        {
          "internalType": "uint256",
          "name": "",
          "type": "uint256"
        }
      ],
      "stateMutability": "view",
      "type": "function"
    },
    {
      "inputs": [
        {
          "internalType": "address",
          "name": "to",
          "type": "address"
        },
        {
          "internalType": "uint256",
          "name": "tokenId",
          "type": "uint256"
        }
      ],
      "name": "approve",
      "outputs": [],
      "stateMutability": "nonpayable",
      "type": "function"
    },
    {
      "inputs": [
        {
          "internalType": "address",
          "name": "_owner",
          "type": "address"
        }
      ],
      "name": "balanceOf",
      "outputs": [
        {
          "internalType": "uint256",
          "name": "balance",
          "type": "uint256"
        }
      ],
      "stateMutability": "view",
      "type": "function"
    },
    {
      "inputs": [],
      "name": "baseURI",
      "outputs": [
        {
          "internalType": "string",
          "name": "",
          "type": "string"
        }
      ],
      "stateMutability": "view",
      "type": "function"
    },
    {
      "inputs": [],
      "name": "codeOrigin",
      "outputs": [
        {
          "internalType": "address",
          "name": "",
          "type": "address"
        }
      ],
      "stateMutability": "view",
      "type": "function"
    },
    {
      "inputs": [],
      "name": "contractURI",
      "outputs": [
        {
          "internalType": "string",
          "name": "",
          "type": "string"
        }
      ],
      "stateMutability": "view",
      "type": "function"
    },
    {
      "inputs": [],
      "name": "defaultVotingDelegate",
      "outputs": [
        {
          "internalType": "address",
          "name": "",
          "type": "address"
        }
      ],
      "stateMutability": "view",
      "type": "function"
    },
    {
      "inputs": [
        {
          "components": [
            {
              "internalType": "address",
              "name": "payer",
              "type": "address"
            },
            {
              "internalType": "uint256",
              "name": "projectId",
              "type": "uint256"
            },
            {
              "internalType": "uint256",
              "name": "currentFundingCycleConfiguration",
              "type": "uint256"
            },
            {
              "components": [
                {
                  "internalType": "address",
                  "name": "token",
                  "type": "address"
                },
                {
                  "internalType": "uint256",
                  "name": "value",
                  "type": "uint256"
                },
                {
                  "internalType": "uint256",
                  "name": "decimals",
                  "type": "uint256"
                },
                {
                  "internalType": "uint256",
                  "name": "currency",
                  "type": "uint256"
                }
              ],
              "internalType": "struct JBTokenAmount",
              "name": "amount",
              "type": "tuple"
            },
            {
              "components": [
                {
                  "internalType": "address",
                  "name": "token",
                  "type": "address"
                },
                {
                  "internalType": "uint256",
                  "name": "value",
                  "type": "uint256"
                },
                {
                  "internalType": "uint256",
                  "name": "decimals",
                  "type": "uint256"
                },
                {
                  "internalType": "uint256",
                  "name": "currency",
                  "type": "uint256"
                }
              ],
              "internalType": "struct JBTokenAmount",
              "name": "forwardedAmount",
              "type": "tuple"
            },
            {
              "internalType": "uint256",
              "name": "projectTokenCount",
              "type": "uint256"
            },
            {
              "internalType": "address",
              "name": "beneficiary",
              "type": "address"
            },
            {
              "internalType": "bool",
              "name": "preferClaimedTokens",
              "type": "bool"
            },
            {
              "internalType": "string",
              "name": "memo",
              "type": "string"
            },
            {
              "internalType": "bytes",
              "name": "metadata",
              "type": "bytes"
            }
          ],
          "internalType": "struct JBDidPayData",
          "name": "_data",
          "type": "tuple"
        }
      ],
      "name": "didPay",
      "outputs": [],
      "stateMutability": "payable",
      "type": "function"
    },
    {
      "inputs": [
        {
          "components": [
            {
              "internalType": "address",
              "name": "holder",
              "type": "address"
            },
            {
              "internalType": "uint256",
              "name": "projectId",
              "type": "uint256"
            },
            {
              "internalType": "uint256",
              "name": "currentFundingCycleConfiguration",
              "type": "uint256"
            },
            {
              "internalType": "uint256",
              "name": "projectTokenCount",
              "type": "uint256"
            },
            {
              "components": [
                {
                  "internalType": "address",
                  "name": "token",
                  "type": "address"
                },
                {
                  "internalType": "uint256",
                  "name": "value",
                  "type": "uint256"
                },
                {
                  "internalType": "uint256",
                  "name": "decimals",
                  "type": "uint256"
                },
                {
                  "internalType": "uint256",
                  "name": "currency",
                  "type": "uint256"
                }
              ],
              "internalType": "struct JBTokenAmount",
              "name": "reclaimedAmount",
              "type": "tuple"
            },
            {
              "components": [
                {
                  "internalType": "address",
                  "name": "token",
                  "type": "address"
                },
                {
                  "internalType": "uint256",
                  "name": "value",
                  "type": "uint256"
                },
                {
                  "internalType": "uint256",
                  "name": "decimals",
                  "type": "uint256"
                },
                {
                  "internalType": "uint256",
                  "name": "currency",
                  "type": "uint256"
                }
              ],
              "internalType": "struct JBTokenAmount",
              "name": "forwardedAmount",
              "type": "tuple"
            },
            {
              "internalType": "address payable",
              "name": "beneficiary",
              "type": "address"
            },
            {
              "internalType": "string",
              "name": "memo",
              "type": "string"
            },
            {
              "internalType": "bytes",
              "name": "metadata",
              "type": "bytes"
            }
          ],
          "internalType": "struct JBDidRedeemData",
          "name": "_data",
          "type": "tuple"
        }
      ],
      "name": "didRedeem",
      "outputs": [],
      "stateMutability": "payable",
      "type": "function"
    },
    {
      "inputs": [],
      "name": "directory",
      "outputs": [
        {
          "internalType": "contract IJBDirectory",
          "name": "",
          "type": "address"
        }
      ],
      "stateMutability": "view",
      "type": "function"
    },
    {
      "inputs": [
        {
          "internalType": "uint256",
          "name": "_tokenId",
          "type": "uint256"
        }
      ],
      "name": "firstOwnerOf",
      "outputs": [
        {
          "internalType": "address",
          "name": "",
          "type": "address"
        }
      ],
      "stateMutability": "view",
      "type": "function"
    },
    {
      "inputs": [],
      "name": "fundingCycleStore",
      "outputs": [
        {
          "internalType": "contract IJBFundingCycleStore",
          "name": "",
          "type": "address"
        }
      ],
      "stateMutability": "view",
      "type": "function"
    },
    {
      "inputs": [],
      "name": "gamePhaseReporter",
      "outputs": [
        {
          "internalType": "contract IDefifaGamePhaseReporter",
          "name": "",
          "type": "address"
        }
      ],
      "stateMutability": "view",
      "type": "function"
    },
    {
      "inputs": [],
      "name": "gamePotReporter",
      "outputs": [
        {
          "internalType": "contract IDefifaGamePotReporter",
          "name": "",
          "type": "address"
        }
      ],
      "stateMutability": "view",
      "type": "function"
    },
    {
      "inputs": [
        {
          "internalType": "uint256",
          "name": "tokenId",
          "type": "uint256"
        }
      ],
      "name": "getApproved",
      "outputs": [
        {
          "internalType": "address",
          "name": "",
          "type": "address"
        }
      ],
      "stateMutability": "view",
      "type": "function"
    },
    {
      "inputs": [
        {
          "internalType": "uint256",
          "name": "_tier",
          "type": "uint256"
        },
        {
          "internalType": "uint256",
          "name": "_blockNumber",
          "type": "uint256"
        }
      ],
      "name": "getPastTierTotalVotes",
      "outputs": [
        {
          "internalType": "uint256",
          "name": "",
          "type": "uint256"
        }
      ],
      "stateMutability": "view",
      "type": "function"
    },
    {
      "inputs": [
        {
          "internalType": "address",
          "name": "_account",
          "type": "address"
        },
        {
          "internalType": "uint256",
          "name": "_tier",
          "type": "uint256"
        },
        {
          "internalType": "uint256",
          "name": "_blockNumber",
          "type": "uint256"
        }
      ],
      "name": "getPastTierVotes",
      "outputs": [
        {
          "internalType": "uint256",
          "name": "",
          "type": "uint256"
        }
      ],
      "stateMutability": "view",
      "type": "function"
    },
    {
      "inputs": [
        {
          "internalType": "address",
          "name": "_account",
          "type": "address"
        },
        {
          "internalType": "uint256",
          "name": "_tier",
          "type": "uint256"
        }
      ],
      "name": "getTierDelegate",
      "outputs": [
        {
          "internalType": "address",
          "name": "",
          "type": "address"
        }
      ],
      "stateMutability": "view",
      "type": "function"
    },
    {
      "inputs": [
        {
          "internalType": "uint256",
          "name": "_tier",
          "type": "uint256"
        }
      ],
      "name": "getTierTotalVotes",
      "outputs": [
        {
          "internalType": "uint256",
          "name": "",
          "type": "uint256"
        }
      ],
      "stateMutability": "view",
      "type": "function"
    },
    {
      "inputs": [
        {
          "internalType": "address",
          "name": "_account",
          "type": "address"
        },
        {
          "internalType": "uint256",
          "name": "_tier",
          "type": "uint256"
        }
      ],
      "name": "getTierVotes",
      "outputs": [
        {
          "internalType": "uint256",
          "name": "",
          "type": "uint256"
        }
      ],
      "stateMutability": "view",
      "type": "function"
    },
    {
      "inputs": [
        {
          "internalType": "uint256",
          "name": "_gameId",
          "type": "uint256"
        },
        {
          "internalType": "contract IJBDirectory",
          "name": "_directory",
          "type": "address"
        },
        {
          "internalType": "string",
          "name": "_name",
          "type": "string"
        },
        {
          "internalType": "string",
          "name": "_symbol",
          "type": "string"
        },
        {
          "internalType": "contract IJBFundingCycleStore",
          "name": "_fundingCycleStore",
          "type": "address"
        },
        {
          "internalType": "string",
          "name": "_baseUri",
          "type": "string"
        },
        {
          "internalType": "contract IJBTokenUriResolver",
          "name": "_tokenUriResolver",
          "type": "address"
        },
        {
          "internalType": "string",
          "name": "_contractUri",
          "type": "string"
        },
        {
          "components": [
            {
              "internalType": "uint104",
              "name": "price",
              "type": "uint104"
            },
            {
              "internalType": "uint32",
              "name": "initialQuantity",
              "type": "uint32"
            },
            {
              "internalType": "uint32",
              "name": "votingUnits",
              "type": "uint32"
            },
            {
              "internalType": "uint16",
              "name": "reservedRate",
              "type": "uint16"
            },
            {
              "internalType": "address",
              "name": "reservedTokenBeneficiary",
              "type": "address"
            },
            {
              "internalType": "bytes32",
              "name": "encodedIPFSUri",
              "type": "bytes32"
            },
            {
              "internalType": "uint24",
              "name": "category",
              "type": "uint24"
            },
            {
              "internalType": "bool",
              "name": "allowManualMint",
              "type": "bool"
            },
            {
              "internalType": "bool",
              "name": "shouldUseReservedTokenBeneficiaryAsDefault",
              "type": "bool"
            },
            {
              "internalType": "bool",
              "name": "transfersPausable",
              "type": "bool"
            },
            {
              "internalType": "bool",
              "name": "useVotingUnits",
              "type": "bool"
            }
          ],
          "internalType": "struct JB721TierParams[]",
          "name": "_tiers",
          "type": "tuple[]"
        },
        {
          "internalType": "uint48",
          "name": "_currency",
          "type": "uint48"
        },
        {
          "internalType": "contract IJBTiered721DelegateStore",
          "name": "_store",
          "type": "address"
        },
        {
          "internalType": "contract IDefifaGamePhaseReporter",
          "name": "_gamePhaseReporter",
          "type": "address"
        },
        {
          "internalType": "contract IDefifaGamePotReporter",
          "name": "_gamePotReporter",
          "type": "address"
        },
        {
          "internalType": "address",
          "name": "_defaultVotingDelegate",
          "type": "address"
        },
        {
          "internalType": "string[]",
          "name": "_tierNames",
          "type": "string[]"
        }
      ],
      "name": "initialize",
      "outputs": [],
      "stateMutability": "nonpayable",
      "type": "function"
    },
    {
      "inputs": [
        {
          "internalType": "address",
          "name": "owner",
          "type": "address"
        },
        {
          "internalType": "address",
          "name": "operator",
          "type": "address"
        }
      ],
      "name": "isApprovedForAll",
      "outputs": [
        {
          "internalType": "bool",
          "name": "",
          "type": "bool"
        }
      ],
      "stateMutability": "view",
      "type": "function"
    },
    {
      "inputs": [
        {
          "components": [
            {
              "internalType": "uint256",
              "name": "tierId",
              "type": "uint256"
            },
            {
              "internalType": "uint256",
              "name": "count",
              "type": "uint256"
            }
          ],
          "internalType": "struct JBTiered721MintReservesForTiersData[]",
          "name": "_mintReservesForTiersData",
          "type": "tuple[]"
        }
      ],
      "name": "mintReservesFor",
      "outputs": [],
      "stateMutability": "nonpayable",
      "type": "function"
    },
    {
      "inputs": [
        {
          "internalType": "uint256",
          "name": "_tierId",
          "type": "uint256"
        },
        {
          "internalType": "uint256",
          "name": "_count",
          "type": "uint256"
        }
      ],
      "name": "mintReservesFor",
      "outputs": [],
      "stateMutability": "nonpayable",
      "type": "function"
    },
    {
      "inputs": [],
      "name": "name",
      "outputs": [
        {
          "internalType": "string",
          "name": "",
          "type": "string"
        }
      ],
      "stateMutability": "view",
      "type": "function"
    },
    {
      "inputs": [],
      "name": "owner",
      "outputs": [
        {
          "internalType": "address",
          "name": "",
          "type": "address"
        }
      ],
      "stateMutability": "view",
      "type": "function"
    },
    {
      "inputs": [
        {
          "internalType": "uint256",
          "name": "tokenId",
          "type": "uint256"
        }
      ],
      "name": "ownerOf",
      "outputs": [
        {
          "internalType": "address",
          "name": "",
          "type": "address"
        }
      ],
      "stateMutability": "view",
      "type": "function"
    },
    {
      "inputs": [
        {
          "components": [
            {
              "internalType": "contract IJBPaymentTerminal",
              "name": "terminal",
              "type": "address"
            },
            {
              "internalType": "address",
              "name": "payer",
              "type": "address"
            },
            {
              "components": [
                {
                  "internalType": "address",
                  "name": "token",
                  "type": "address"
                },
                {
                  "internalType": "uint256",
                  "name": "value",
                  "type": "uint256"
                },
                {
                  "internalType": "uint256",
                  "name": "decimals",
                  "type": "uint256"
                },
                {
                  "internalType": "uint256",
                  "name": "currency",
                  "type": "uint256"
                }
              ],
              "internalType": "struct JBTokenAmount",
              "name": "amount",
              "type": "tuple"
            },
            {
              "internalType": "uint256",
              "name": "projectId",
              "type": "uint256"
            },
            {
              "internalType": "uint256",
              "name": "currentFundingCycleConfiguration",
              "type": "uint256"
            },
            {
              "internalType": "address",
              "name": "beneficiary",
              "type": "address"
            },
            {
              "internalType": "uint256",
              "name": "weight",
              "type": "uint256"
            },
            {
              "internalType": "uint256",
              "name": "reservedRate",
              "type": "uint256"
            },
            {
              "internalType": "string",
              "name": "memo",
              "type": "string"
            },
            {
              "internalType": "bytes",
              "name": "metadata",
              "type": "bytes"
            }
          ],
          "internalType": "struct JBPayParamsData",
          "name": "_data",
          "type": "tuple"
        }
      ],
      "name": "payParams",
      "outputs": [
        {
          "internalType": "uint256",
          "name": "weight",
          "type": "uint256"
        },
        {
          "internalType": "string",
          "name": "memo",
          "type": "string"
        },
        {
          "components": [
            {
              "internalType": "contract IJBPayDelegate",
              "name": "delegate",
              "type": "address"
            },
            {
              "internalType": "uint256",
              "name": "amount",
              "type": "uint256"
            }
          ],
          "internalType": "struct JBPayDelegateAllocation[]",
          "name": "delegateAllocations",
          "type": "tuple[]"
        }
      ],
      "stateMutability": "view",
      "type": "function"
    },
    {
      "inputs": [],
      "name": "pricingCurrency",
      "outputs": [
        {
          "internalType": "uint256",
          "name": "",
          "type": "uint256"
        }
      ],
      "stateMutability": "view",
      "type": "function"
    },
    {
      "inputs": [],
      "name": "projectId",
      "outputs": [
        {
          "internalType": "uint256",
          "name": "",
          "type": "uint256"
        }
      ],
      "stateMutability": "view",
      "type": "function"
    },
    {
      "inputs": [
        {
          "components": [
            {
              "internalType": "contract IJBPaymentTerminal",
              "name": "terminal",
              "type": "address"
            },
            {
              "internalType": "address",
              "name": "holder",
              "type": "address"
            },
            {
              "internalType": "uint256",
              "name": "projectId",
              "type": "uint256"
            },
            {
              "internalType": "uint256",
              "name": "currentFundingCycleConfiguration",
              "type": "uint256"
            },
            {
              "internalType": "uint256",
              "name": "tokenCount",
              "type": "uint256"
            },
            {
              "internalType": "uint256",
              "name": "totalSupply",
              "type": "uint256"
            },
            {
              "internalType": "uint256",
              "name": "overflow",
              "type": "uint256"
            },
            {
              "components": [
                {
                  "internalType": "address",
                  "name": "token",
                  "type": "address"
                },
                {
                  "internalType": "uint256",
                  "name": "value",
                  "type": "uint256"
                },
                {
                  "internalType": "uint256",
                  "name": "decimals",
                  "type": "uint256"
                },
                {
                  "internalType": "uint256",
                  "name": "currency",
                  "type": "uint256"
                }
              ],
              "internalType": "struct JBTokenAmount",
              "name": "reclaimAmount",
              "type": "tuple"
            },
            {
              "internalType": "bool",
              "name": "useTotalOverflow",
              "type": "bool"
            },
            {
              "internalType": "uint256",
              "name": "redemptionRate",
              "type": "uint256"
            },
            {
              "internalType": "string",
              "name": "memo",
              "type": "string"
            },
            {
              "internalType": "bytes",
              "name": "metadata",
              "type": "bytes"
            }
          ],
          "internalType": "struct JBRedeemParamsData",
          "name": "_data",
          "type": "tuple"
        }
      ],
      "name": "redeemParams",
      "outputs": [
        {
          "internalType": "uint256",
          "name": "reclaimAmount",
          "type": "uint256"
        },
        {
          "internalType": "string",
          "name": "memo",
          "type": "string"
        },
        {
          "components": [
            {
              "internalType": "contract IJBRedemptionDelegate",
              "name": "delegate",
              "type": "address"
            },
            {
              "internalType": "uint256",
              "name": "amount",
              "type": "uint256"
            }
          ],
          "internalType": "struct JBRedemptionDelegateAllocation[]",
          "name": "delegateAllocations",
          "type": "tuple[]"
        }
      ],
      "stateMutability": "view",
      "type": "function"
    },
    {
      "inputs": [],
      "name": "redemptionWeightIsSet",
      "outputs": [
        {
          "internalType": "bool",
          "name": "",
          "type": "bool"
        }
      ],
      "stateMutability": "view",
      "type": "function"
    },
    {
      "inputs": [
        {
          "internalType": "uint256",
          "name": "_tokenId",
          "type": "uint256"
        }
      ],
      "name": "redemptionWeightOf",
      "outputs": [
        {
          "internalType": "uint256",
          "name": "",
          "type": "uint256"
        }
      ],
      "stateMutability": "view",
      "type": "function"
    },
    {
      "inputs": [
        {
          "internalType": "uint256[]",
          "name": "_tokenIds",
          "type": "uint256[]"
        },
        {
          "components": [
            {
              "internalType": "contract IJBPaymentTerminal",
              "name": "terminal",
              "type": "address"
            },
            {
              "internalType": "address",
              "name": "holder",
              "type": "address"
            },
            {
              "internalType": "uint256",
              "name": "projectId",
              "type": "uint256"
            },
            {
              "internalType": "uint256",
              "name": "currentFundingCycleConfiguration",
              "type": "uint256"
            },
            {
              "internalType": "uint256",
              "name": "tokenCount",
              "type": "uint256"
            },
            {
              "internalType": "uint256",
              "name": "totalSupply",
              "type": "uint256"
            },
            {
              "internalType": "uint256",
              "name": "overflow",
              "type": "uint256"
            },
            {
              "components": [
                {
                  "internalType": "address",
                  "name": "token",
                  "type": "address"
                },
                {
                  "internalType": "uint256",
                  "name": "value",
                  "type": "uint256"
                },
                {
                  "internalType": "uint256",
                  "name": "decimals",
                  "type": "uint256"
                },
                {
                  "internalType": "uint256",
                  "name": "currency",
                  "type": "uint256"
                }
              ],
              "internalType": "struct JBTokenAmount",
              "name": "reclaimAmount",
              "type": "tuple"
            },
            {
              "internalType": "bool",
              "name": "useTotalOverflow",
              "type": "bool"
            },
            {
              "internalType": "uint256",
              "name": "redemptionRate",
              "type": "uint256"
            },
            {
              "internalType": "string",
              "name": "memo",
              "type": "string"
            },
            {
              "internalType": "bytes",
              "name": "metadata",
              "type": "bytes"
            }
          ],
          "internalType": "struct JBRedeemParamsData",
          "name": "",
          "type": "tuple"
        }
      ],
      "name": "redemptionWeightOf",
      "outputs": [
        {
          "internalType": "uint256",
          "name": "cumulativeWeight",
          "type": "uint256"
        }
      ],
      "stateMutability": "view",
      "type": "function"
    },
    {
      "inputs": [],
      "name": "renounceOwnership",
      "outputs": [],
      "stateMutability": "nonpayable",
      "type": "function"
    },
    {
      "inputs": [
        {
          "internalType": "address",
          "name": "from",
          "type": "address"
        },
        {
          "internalType": "address",
          "name": "to",
          "type": "address"
        },
        {
          "internalType": "uint256",
          "name": "tokenId",
          "type": "uint256"
        }
      ],
      "name": "safeTransferFrom",
      "outputs": [],
      "stateMutability": "nonpayable",
      "type": "function"
    },
    {
      "inputs": [
        {
          "internalType": "address",
          "name": "from",
          "type": "address"
        },
        {
          "internalType": "address",
          "name": "to",
          "type": "address"
        },
        {
          "internalType": "uint256",
          "name": "tokenId",
          "type": "uint256"
        },
        {
          "internalType": "bytes",
          "name": "data",
          "type": "bytes"
        }
      ],
      "name": "safeTransferFrom",
      "outputs": [],
      "stateMutability": "nonpayable",
      "type": "function"
    },
    {
      "inputs": [
        {
          "internalType": "address",
          "name": "operator",
          "type": "address"
        },
        {
          "internalType": "bool",
          "name": "approved",
          "type": "bool"
        }
      ],
      "name": "setApprovalForAll",
      "outputs": [],
      "stateMutability": "nonpayable",
      "type": "function"
    },
    {
      "inputs": [
        {
          "internalType": "address",
          "name": "_delegatee",
          "type": "address"
        },
        {
          "internalType": "uint256",
          "name": "_tierId",
          "type": "uint256"
        }
      ],
      "name": "setTierDelegate",
      "outputs": [],
      "stateMutability": "nonpayable",
      "type": "function"
    },
    {
      "inputs": [
        {
          "components": [
            {
              "internalType": "address",
              "name": "delegatee",
              "type": "address"
            },
            {
              "internalType": "uint256",
              "name": "tierId",
              "type": "uint256"
            }
          ],
          "internalType": "struct JBTiered721SetTierDelegatesData[]",
          "name": "_setTierDelegatesData",
          "type": "tuple[]"
        }
      ],
      "name": "setTierDelegates",
      "outputs": [],
      "stateMutability": "nonpayable",
      "type": "function"
    },
    {
      "inputs": [
        {
          "components": [
            {
              "internalType": "uint256",
              "name": "id",
              "type": "uint256"
            },
            {
              "internalType": "uint256",
              "name": "redemptionWeight",
              "type": "uint256"
            }
          ],
          "internalType": "struct DefifaTierRedemptionWeight[]",
          "name": "_tierWeights",
          "type": "tuple[]"
        }
      ],
      "name": "setTierRedemptionWeights",
      "outputs": [],
      "stateMutability": "nonpayable",
      "type": "function"
    },
    {
      "inputs": [],
      "name": "store",
      "outputs": [
        {
          "internalType": "contract IJBTiered721DelegateStore",
          "name": "",
          "type": "address"
        }
      ],
      "stateMutability": "view",
      "type": "function"
    },
    {
      "inputs": [
        {
          "internalType": "bytes4",
          "name": "_interfaceId",
          "type": "bytes4"
        }
      ],
      "name": "supportsInterface",
      "outputs": [
        {
          "internalType": "bool",
          "name": "",
          "type": "bool"
        }
      ],
      "stateMutability": "view",
      "type": "function"
    },
    {
      "inputs": [],
      "name": "symbol",
      "outputs": [
        {
          "internalType": "string",
          "name": "",
          "type": "string"
        }
      ],
      "stateMutability": "view",
      "type": "function"
    },
    {
      "inputs": [
        {
          "internalType": "uint256",
          "name": "_tierId",
          "type": "uint256"
        }
      ],
      "name": "tierNameOf",
      "outputs": [
        {
          "internalType": "string",
          "name": "",
          "type": "string"
        }
      ],
      "stateMutability": "view",
      "type": "function"
    },
    {
      "inputs": [],
      "name": "tierRedemptionWeights",
      "outputs": [
        {
          "internalType": "uint256[128]",
          "name": "",
          "type": "uint256[128]"
        }
      ],
      "stateMutability": "view",
      "type": "function"
    },
    {
      "inputs": [
        {
          "internalType": "uint256",
          "name": "_tokenId",
          "type": "uint256"
        }
      ],
      "name": "tokenURI",
      "outputs": [
        {
          "internalType": "string",
          "name": "",
          "type": "string"
        }
      ],
      "stateMutability": "view",
      "type": "function"
    },
    {
      "inputs": [
        {
          "internalType": "uint256",
          "name": "",
          "type": "uint256"
        }
      ],
      "name": "tokensRedeemedFrom",
      "outputs": [
        {
          "internalType": "uint256",
          "name": "",
          "type": "uint256"
        }
      ],
      "stateMutability": "view",
      "type": "function"
    },
    {
      "inputs": [
        {
          "components": [
            {
              "internalType": "contract IJBPaymentTerminal",
              "name": "terminal",
              "type": "address"
            },
            {
              "internalType": "address",
              "name": "holder",
              "type": "address"
            },
            {
              "internalType": "uint256",
              "name": "projectId",
              "type": "uint256"
            },
            {
              "internalType": "uint256",
              "name": "currentFundingCycleConfiguration",
              "type": "uint256"
            },
            {
              "internalType": "uint256",
              "name": "tokenCount",
              "type": "uint256"
            },
            {
              "internalType": "uint256",
              "name": "totalSupply",
              "type": "uint256"
            },
            {
              "internalType": "uint256",
              "name": "overflow",
              "type": "uint256"
            },
            {
              "components": [
                {
                  "internalType": "address",
                  "name": "token",
                  "type": "address"
                },
                {
                  "internalType": "uint256",
                  "name": "value",
                  "type": "uint256"
                },
                {
                  "internalType": "uint256",
                  "name": "decimals",
                  "type": "uint256"
                },
                {
                  "internalType": "uint256",
                  "name": "currency",
                  "type": "uint256"
                }
              ],
              "internalType": "struct JBTokenAmount",
              "name": "reclaimAmount",
              "type": "tuple"
            },
            {
              "internalType": "bool",
              "name": "useTotalOverflow",
              "type": "bool"
            },
            {
              "internalType": "uint256",
              "name": "redemptionRate",
              "type": "uint256"
            },
            {
              "internalType": "string",
              "name": "memo",
              "type": "string"
            },
            {
              "internalType": "bytes",
              "name": "metadata",
              "type": "bytes"
            }
          ],
          "internalType": "struct JBRedeemParamsData",
          "name": "",
          "type": "tuple"
        }
      ],
      "name": "totalRedemptionWeight",
      "outputs": [
        {
          "internalType": "uint256",
          "name": "",
          "type": "uint256"
        }
      ],
      "stateMutability": "view",
      "type": "function"
    },
    {
      "inputs": [
        {
          "internalType": "address",
          "name": "from",
          "type": "address"
        },
        {
          "internalType": "address",
          "name": "to",
          "type": "address"
        },
        {
          "internalType": "uint256",
          "name": "tokenId",
          "type": "uint256"
        }
      ],
      "name": "transferFrom",
      "outputs": [],
      "stateMutability": "nonpayable",
      "type": "function"
    },
    {
      "inputs": [
        {
          "internalType": "address",
          "name": "newOwner",
          "type": "address"
        }
      ],
      "name": "transferOwnership",
      "outputs": [],
      "stateMutability": "nonpayable",
      "type": "function"
    }
  ],
  "bytecode": {
    "object": "0x60a0806040523461006e5760078054336001600160a01b0319821681179092556001600160a01b03167f8be0079c531659141344cd1fd0a4f28419497f9722a3daafe3b4186f6b6457e0600080a330608052615aa190816200007482396080518181816108dd01526132fd0152f35b600080fdfe6080604052600436101561001257600080fd5b60003560e01c806301ffc9a71461035757806306fdde0314610352578063081812fc1461034d578063095ea7b314610348578063174e3e05146103435780631baabc3e1461033e5780631d153ca41461033957806323b872dd1461033457806327f6e9791461032f5780632a596e531461032a5780632b13c58f146103255780632f441500146103205780633900c6f91461031b5780633fafa1271461031657806342842e0e146103115780634f228e111461030c57806354c6d1f514610307578063557e7155146103025780636352211e146102fd578063640abacd146102f857806364640c1e146102f35780636c0360eb146102ee57806370a08231146102e9578063715018a6146102e45780637245d80c146102df578063743682b5146102da5780637ba62bf9146102d557806382732b6d146102d05780638da5cb5b146102cb5780639494bf72146102c657806394c5c5ca146102c157806395d89b41146102bc578063975057e7146102b75780639df45468146102b2578063a0b6490c146102ad578063a22cb465146102a8578063a51cfd18146102a3578063a8c15f4a1461029e578063aa4fb15b14610299578063ab951e3914610294578063b88d4fde1461028f578063c41c2f241461028a578063c74b13d914610285578063c87b56dd14610280578063ca323efe1461027b578063d31cc52c14610276578063d40e714614610271578063d46cf1711461026c578063da9ee8b714610267578063e8a3d48514610262578063e985e9c51461025d5763f2fde38b1461025857600080fd5b61230c565b6122a2565b6121fb565b6120e3565b612027565b611f6c565b611f3e565b611eeb565b611dc1565b611d0f565b611ce8565b611c80565b611bab565b611b8c565b611b69565b611adf565b611a11565b6119ea565b611965565b61193e565b611899565b61185d565b61183c565b611815565b6117c8565b611771565b6116e7565b6116c0565b611664565b6115bb565b611514565b6114bc565b611499565b61147b565b611454565b611436565b611410565b6113d6565b6113b8565b6112bd565b610f51565b610a31565b610972565b610954565b61092d565b6108bd565b610800565b6107d9565b6106ec565b610691565b6105b2565b610373565b6001600160e01b031981160361036e57565b600080fd5b3461036e57602060031936011261036e576103c26001600160e01b031960043561039c8161035c565b1663df148fbb60e01b81149081156103c6575b5060405190151581529081906020820190565b0390f35b7ffbb38e0300000000000000000000000000000000000000000000000000000000811491508115610521575b81156104f7575b81156104cd575b81156104a3575b8115610415575b50386103af565b7f80ac58cd00000000000000000000000000000000000000000000000000000000811491508115610479575b811561044f575b503861040e565b7f01ffc9a70000000000000000000000000000000000000000000000000000000091501438610448565b7f5b5e139f0000000000000000000000000000000000000000000000000000000081149150610441565b7f2a55205a0000000000000000000000000000000000000000000000000000000081149150610407565b7f2b13c58f0000000000000000000000000000000000000000000000000000000081149150610400565b7fda9ee8b700000000000000000000000000000000000000000000000000000000811491506103f9565b7f71700c6900000000000000000000000000000000000000000000000000000000811491506103f2565b600091031261036e57565b60005b8381106105695750506000910152565b8181015183820152602001610559565b90601f19601f60209361059781518092818752878088019101610556565b0116010190565b9060206105af928181520190610579565b90565b3461036e5760008060031936011261068e57604051908080546105d4816114da565b80855291600191808316908115610664575060011461060a575b6103c2856105fe81870382610e7e565b6040519182918261059e565b80809450527f290decd9548b62a8d60345a988386fc84ba6bc95484008f6362f93160ef3e5635b82841061064c5750505081016020016105fe826103c26105ee565b80546020858701810191909152909301928101610631565b8695506103c2969350602092506105fe94915060ff191682840152151560051b82010192936105ee565b80fd5b3461036e57602060031936011261036e5760206106af6004356141d9565b6001600160a01b0360405191168152f35b6001600160a01b0381160361036e57565b6101a435906106df826106c0565b565b35906106df826106c0565b3461036e57604060031936011261036e57600435610709816106c0565b6024356001600160a01b038061071e8361418f565b1680918416146107af5780331415908161076d575b506107435761074191614be5565b005b60046040517fe5fa0e35000000000000000000000000000000000000000000000000000000008152fd5b905060005260046020526107a96107a561079e336040600020906001600160a01b0316600052602052604060002090565b5460ff1690565b1590565b38610733565b60046040517f133f8be9000000000000000000000000000000000000000000000000000000008152fd5b3461036e57600060031936011261036e5760206001600160a01b0360955416604051908152f35b3461036e5760208060031936011261036e5760009060043582526009815260408220906040519183815490610834826114da565b80865292600192808416908115610899575060011461085e575b6103c2866105fe818a0382610e7e565b9080949650528483205b82841061088657505050816103c2936105fe9282010193388061084e565b8054858501870152928501928101610868565b60ff19168787015250505050151560051b82010191506105fe816103c2388061084e565b3461036e57600060031936011261036e5760206040516001600160a01b037f0000000000000000000000000000000000000000000000000000000000000000168152f35b600319606091011261036e57600435610919816106c0565b90602435610926816106c0565b9060443590565b3461036e5761093b36610901565b90610946823361426f565b156107435761074192614938565b3461036e57600060031936011261036e576020609654604051908152f35b3461036e5760208060031936011261036e576004359067ffffffffffffffff9081831161036e573660238401121561036e57826004013591821161036e57602490600693368385871b8301011161036e5760005b8481106109cf57005b6001906109f16109e53687848b1b870101610f29565b858151910151906135fc565b016109c6565b90816101e091031261036e5790565b602060031982011261036e576004359067ffffffffffffffff821161036e576105af916004016109f7565b610a3a36610a06565b3415801590610d6d575b8015610d5d575b610d335760a0810135908115610d09576101c081016024610a6c82846127d3565b9050108015610cd3575b610ca957610a87610a8f91836127d3565b8101906128c7565b915050805191610ab6610aaa608f546001600160a01b031690565b6001600160a01b031690565b926005549360408051809263038ab08560e11b825260209384918180610ae560049c8d83019190602083019252565b03915afa8015610c4f578791600091610c7c575b50610b038161291a565b149560005b848110610b34578888610b1a896140f0565b610b2057005b610b2f610741916096546124e2565b609655565b610b3e81886124a5565b5190610b64610b57836000526002602052604060002090565b546001600160a01b031690565b6001600160a01b03610b78610aaa8a613d03565b911603610c54578489610b8a8461475e565b610b9a575b506001915001610b08565b610bea92610bb3610aaa608d546001600160a01b031690565b865180809681947f42f9914b0000000000000000000000000000000000000000000000000000000083528983019190602083019252565b03915afa918215610c4f57600192610c1591600091610c22575b506000526097602052604060002090565b8054600101905584610b8f565b610c429150873d8911610c48575b610c3a8183610e7e565b8101906123e5565b38610c04565b503d610c30565b6123f4565b8284517f075fd2b1000000000000000000000000000000000000000000000000000000008152fd5b610c9c9150843d8611610ca2575b610c948183610e7e565b810190612902565b38610af9565b503d610c8a565b60046040517f2a84050f000000000000000000000000000000000000000000000000000000008152fd5b5063df148fbb60e01b6001600160e01b0319610d01610cfb610cf585876127d3565b90612824565b90612846565b161415610a76565b60046040517f76914729000000000000000000000000000000000000000000000000000000008152fd5b60046040517f7df94b86000000000000000000000000000000000000000000000000000000008152fd5b5060055460208201351415610a4b565b50610dce6020610d88610aaa6006546001600160a01b031690565b6005546040517f6e49181f000000000000000000000000000000000000000000000000000000008152600481019190915233602482015292839190829081906044820190565b03915afa908115610c4f57600091610de8575b5015610a44565b610e09915060203d8111610e0f575b610e018183610e7e565b810190613cee565b38610de1565b503d610df7565b634e487b7160e01b600052604160045260246000fd5b6040810190811067ffffffffffffffff821117610e4857604052565b610e16565b67ffffffffffffffff8111610e4857604052565b611000810190811067ffffffffffffffff821117610e4857604052565b90601f601f19910116810190811067ffffffffffffffff821117610e4857604052565b60405190610160820182811067ffffffffffffffff821117610e4857604052565b604051906106df82610e2c565b60405190610180820182811067ffffffffffffffff821117610e4857604052565b60405190610120820182811067ffffffffffffffff821117610e4857604052565b67ffffffffffffffff8111610e485760051b60200190565b919082604091031261036e57604051610f4181610e2c565b6020808294803584520135910152565b3461036e5760208060031936011261036e576004359067ffffffffffffffff821161036e573660238301121561036e57816004013591610f9083610f11565b91604093610fa085519485610e7e565b80845260248285019160061b8401019236841161036e57602401905b838210610fcc5761074185613928565b828691610fd93685610f29565b815201910190610fbc565b602435906106df826106c0565b67ffffffffffffffff8111610e4857601f01601f191660200190565b92919261101982610ff1565b916110276040519384610e7e565b82948184528183011161036e578281602093846000960137010152565b9080601f8301121561036e578160206105af9335910161100d565b608435906106df826106c0565b60c435906106df826106c0565b35906cffffffffffffffffffffffffff8216820361036e57565b359063ffffffff8216820361036e57565b359061ffff8216820361036e57565b359062ffffff8216820361036e57565b8015150361036e57565b35906106df826110c3565b81601f8201121561036e578035906110ef82610f11565b926040906110ff82519586610e7e565b83855260209182860191836101608097028601019481861161036e578401925b858410611130575050505050505090565b868483031261036e57848791611144610ea1565b61114d87611079565b815261115a838801611093565b83820152611169868801611093565b86820152606061117a8189016110a4565b90820152608061118b8189016106e1565b9082015260a0808801359082015260c06111a68189016110b3565b9082015260e06111b78189016110cd565b908201526101006111c98189016110cd565b908201526101206111db8189016110cd565b908201526101406111ed8189016110cd565b9082015281520193019261111f565b610124359065ffffffffffff8216820361036e57565b61014435906106df826106c0565b61016435906106df826106c0565b61018435906106df826106c0565b9080601f8301121561036e5781359061125482610f11565b926112626040519485610e7e565b828452602092838086019160051b8301019280841161036e57848301915b8483106112905750505050505090565b823567ffffffffffffffff811161036e5786916112b284848094890101611044565b815201920191611280565b3461036e576101e060031936011261036e576112d7610fe4565b60443567ffffffffffffffff9182821161036e576112fa60049236908401611044565b60643584811161036e576113119036908501611044565b61131961105f565b60a43586811161036e576113309036908701611044565b61133861106c565b60e43588811161036e5761134f9036908901611044565b6101043589811161036e576113679036908a016110d8565b916113706111fc565b93611379611212565b95611382611220565b9761138b61122e565b996113946106d1565b9b6101c4359e8f1161036e576113b16107419f8f9036910161123c565b9d356132e3565b3461036e57600060031936011261036e576020600554604051908152f35b3461036e576113e436610901565b60405191602083019383851067ffffffffffffffff861117610e48576107419460405260008452614218565b3461036e57602060031936011261036e57602061142e600435612665565b604051908152f35b3461036e57602060031936011261036e5760206106af6004356123b3565b3461036e57600060031936011261036e5760206001600160a01b03608e5416604051908152f35b3461036e57602060031936011261036e5760206106af60043561418f565b3461036e57600060031936011261036e576020604051670de0b6b3a76400008152f35b3461036e57600060031936011261036e576020609154604051908152f35b90600182811c9216801561150a575b60208310146114f457565b634e487b7160e01b600052602260045260246000fd5b91607f16916114e9565b3461036e5760008060031936011261068e576040519080609354611537816114da565b808552916001918083169081156106645750600114611560576103c2856105fe81870382610e7e565b9250609383527f28da5ca8143bfa5e9f642e58e5e87bef0a2eb0c00bcd4efdd01050293f5fac915b8284106115a35750505081016020016105fe826103c26105ee565b80546020858701810191909152909301928101611588565b3461036e57602060031936011261036e576004356115d8816106c0565b60206001600160a01b03604481608d54169360405194859384927ff7888aec0000000000000000000000000000000000000000000000000000000084523060048501521660248301525afa8015610c4f576103c291600091611646575b506040519081529081906020820190565b61165e915060203d8111610c4857610c3a8183610e7e565b38611635565b3461036e5760008060031936011261068e5761167e6154c8565b806001600160a01b036007546001600160a01b03198116600755167f8be0079c531659141344cd1fd0a4f28419497f9722a3daafe3b4186f6b6457e08280a380f35b3461036e57600060031936011261036e5760206001600160a01b0360905416604051908152f35b3461036e57602060031936011261036e5760043560005260976020526020604060002054604051908152f35b81601f8201121561036e5780359161172a83610f11565b926117386040519485610e7e565b808452602092838086019260051b82010192831161036e578301905b828210611762575050505090565b81358152908301908301611754565b3461036e57604060031936011261036e5767ffffffffffffffff60043581811161036e576117a3903690600401611713565b9060243590811161036e576020916117c261142e9236906004016109f7565b506124ef565b3461036e57604060031936011261036e5760206004356117e7816106c0565b6001600160a01b03809116600052608a82526040600020602435600052825260406000205416604051908152f35b3461036e57600060031936011261036e5760206001600160a01b0360075416604051908152f35b3461036e5761184a36610a06565b506020604051670de0b6b3a76400008152f35b3461036e57602060031936011261036e57600435600052608c60205260206001600160e01b03611890604060002061573f565b16604051908152f35b3461036e5760008060031936011261068e57604051908060018054916118be836114da565b8086529282811690811561066457506001146118e4576103c2856105fe81870382610e7e565b92508083527fb10e2d527612073b26eecdfd717e6a320cf44b4afac2b0732d9fcbe2b7fa0cf65b8284106119265750505081016020016105fe826103c26105ee565b8054602085870181019190915290930192810161190b565b3461036e57600060031936011261036e5760206001600160a01b03608d5416604051908152f35b3461036e57600060031936011261036e5760405161198281610e61565b6110008091369037604051600a6000825b608082106119d4575050506119a781610e61565b60405190600090825b608083106119bd57505050f35b6001908251815260208091019201920191906119b0565b6001602081928554815201930191019091611993565b3461036e57600060031936011261036e5760206001600160a01b03608f5416604051908152f35b3461036e57604060031936011261036e57600435611a2e816106c0565b602435611a3a816110c3565b6001600160a01b03821691823314611ab557611a76903360005260046020526040600020906001600160a01b0316600052602052604060002090565b9015159060ff1981541660ff83161790556040519081527f17307eab39ab6107e8899845ad3d59bd9653f200f220920489ca2b5937696c3160203392a3005b60046040517f0df0273a000000000000000000000000000000000000000000000000000000008152fd5b3461036e57611af5611af036610a06565b61293a565b604092919280519384938452611b176020916060838701526060860190610579565b90848203838601528080855193848152019401926000905b838210611b3c5786860387f35b845180516001600160a01b0316875283015186840152879650948501949382019360019190910190611b2f565b3461036e57600060031936011261036e57602060ff609254166040519015158152f35b3461036e57604060031936011261036e576107416024356004356135fc565b3461036e57604060031936011261036e57600435611bc8816106c0565b611c066020611be2610aaa608f546001600160a01b031690565b60055490604051808095819463038ab08560e11b8352600483019190602083019252565b03915afa8015610c4f57600191600091611c62575b50611c258161291a565b03611c3857610741906024359033613e49565b60046040517ff331f3c1000000000000000000000000000000000000000000000000000000008152fd5b611c7a915060203d8111610ca257610c948183610e7e565b38611c1b565b3461036e57608060031936011261036e57600435611c9d816106c0565b602435611ca9816106c0565b6064359167ffffffffffffffff831161036e573660238401121561036e57611cde61074193369060248160040135910161100d565b9160443591614218565b3461036e57600060031936011261036e5760206001600160a01b0360065416604051908152f35b3461036e5760208060031936011261036e576004359067ffffffffffffffff821161036e573660238301121561036e57816004013591611d4e83610f11565b91604093611d5e85519485610e7e565b80845260248285019160061b8401019236841161036e57602401905b838210611d8a5761074185613d0d565b858236031261036e578286918251611da181610e2c565b8435611dac816106c0565b81528285013583820152815201910190611d7a565b3461036e57602060031936011261036e57611de7610aaa608d546001600160a01b031690565b6040517f0fab094700000000000000000000000000000000000000000000000000000000815230600482015290602090829060249082905afa908115610c4f57600091611ebd575b50600060405180927fda0544aa000000000000000000000000000000000000000000000000000000008252816001600160a01b0381611e78600435600483019190602083019252565b0392165afa8015610c4f576103c291600091611e9c575b506040519182918261059e565b611eb7913d8091833e611eaf8183610e7e565b810190612457565b38611e8f565b611ede915060203d8111611ee4575b611ed68183610e7e565b810190612400565b38611e2f565b503d611ecc565b3461036e57604060031936011261036e576001600160a01b03600435611f10816106c0565b16600052608b602052604060002060243560005260205260206001600160e01b03611890604060002061573f565b3461036e57604060031936011261036e57600435600052608c602052602061142e6024356040600020615568565b3461036e57606060031936011261036e576001600160a01b03600435611f91816106c0565b16600052608b6020526040600020602435600052602052602061142e6044356040600020615568565b91908252611fd46020916060838501526060840190610579565b90604092838184039101528080855193848152019401926000905b838210611ffe57505050505090565b845180516001600160a01b03168752830151868401529485019493820193600190910190611fef565b3461036e576020600319818136011261036e576004359067ffffffffffffffff821161036e576101a090823603011261036e5761207561206e6101648301836004016127d3565b369161100d565b6040519061208282610e2c565b6001825260005b8481106120cd5750906103c2916101249460006120a4610ec2565b308152918201526120b483612493565b526120be82612493565b50604051948594013584611fba565b84906120d7612872565b82828601015201612089565b60031960208136011261036e576004359067ffffffffffffffff821161036e5761020090823603011261036e5760055434159081159161216f575b8115612160575b506121365761074190600401614f86565b60046040517fc715ec6c000000000000000000000000000000000000000000000000000000008152fd5b90506024820135141538612125565b9050612186610aaa6006546001600160a01b031690565b6040517f6e49181f0000000000000000000000000000000000000000000000000000000081526004810183905233602482015290602090829060449082905afa908115610c4f576000916121dd575b50159061211e565b6121f5915060203d8111610e0f57610e018183610e7e565b386121d5565b3461036e5760008060031936011261068e57604051908060945461221e816114da565b808552916001918083169081156106645750600114612247576103c2856105fe81870382610e7e565b9250609483527f7047a3cc0a76edcee45792ca71527c753f6167484f14b94c4a3bd2997516725c5b82841061228a5750505081016020016105fe826103c26105ee565b8054602085870181019190915290930192810161226f565b3461036e57604060031936011261036e57602060ff6123006004356122c6816106c0565b6001600160a01b03602435916122db836106c0565b16600052600484526040600020906001600160a01b0316600052602052604060002090565b54166040519015158152f35b3461036e57602060031936011261036e57600435612329816106c0565b6123316154c8565b6001600160a01b038116156123495761074190615520565b608460405162461bcd60e51b815260206004820152602660248201527f4f776e61626c653a206e6577206f776e657220697320746865207a65726f206160448201527f64647265737300000000000000000000000000000000000000000000000000006064820152fd5b60005260086020526001600160a01b038060406000205416806123e0575060026020526040600020541690565b905090565b9081602091031261036e575190565b6040513d6000823e3d90fd5b9081602091031261036e57516105af816106c0565b81601f8201121561036e57805161242b81610ff1565b926124396040519485610e7e565b8184526020828401011161036e576105af9160208085019101610556565b9060208282031261036e57815167ffffffffffffffff811161036e576105af9201612415565b634e487b7160e01b600052603260045260246000fd5b8051156124a05760200190565b61247d565b80518210156124a05760209160051b010190565b634e487b7160e01b600052601160045260246000fd5b90600182018092116124dd57565b6124b9565b919082018092116124dd57565b9060009180516000915b81831061250557505050565b90919361251b61251586846124a5565b51612665565b81018091116124dd579360010191906124f9565b51906106df826106c0565b51906106df826110c3565b60208183031261036e57805167ffffffffffffffff9182821161036e57016101808184031261036e57612576610ecf565b92815184526020820151602085015260408201516040850152606082015160608501526080820151608085015260a082015160a08501526125b960c0830161252f565b60c085015260e082015160e085015261010080830151908501526101206125e181840161253a565b908501526101406125f381840161253a565b90850152610160928383015190811161036e576126109201612415565b9082015290565b9060001982019182116124dd57565b919082039182116124dd57565b60808110156124a057600a0190600090565b811561264f570490565b634e487b7160e01b600052601260045260246000fd5b6126b8602061267f610aaa608d546001600160a01b031690565b92604051809381927f42f9914b000000000000000000000000000000000000000000000000000000008352600483019190602083019252565b0381855afa908115610c4f576000916127b5575b506040516364faa15960e01b8152306004820152602481018290526000604482018190529092839060649082905afa918215610c4f57600092612792575b5061272961271f61271a83612617565b612633565b90549060031b1c90565b90811561278a57606083019061274760408351950194855190612626565b15612781576127746127636105af9561277b9451905190612626565b916000526097602052604060002090565b54906124e2565b90612645565b50505050600090565b505050600090565b6127ae91923d8091833e6127a68183610e7e565b810190612545565b903861270a565b6127cd915060203d8111610c4857610c3a8183610e7e565b386126cc565b9035907fffffffffffffffffffffffffffffffffffffffffffffffffffffffffffffffe18136030182121561036e570180359067ffffffffffffffff821161036e5760200191813603831361036e57565b9060241161036e5760200190600490565b9060441161036e5760400190600490565b6001600160e01b0319903581811693926004811061286357505050565b60040360031b82901b16169150565b6040519061287f82610e2c565b60006020838281520152565b6040519061289882610e2c565b600182528160005b602090818110156128c2576020916128b6612872565b908285010152016128a0565b505050565b9160608383031261036e5782359260208101356128e38161035c565b92604082013567ffffffffffffffff811161036e576105af9201611713565b9081602091031261036e5751600781101561036e5790565b6007111561292457565b634e487b7160e01b600052602160045260246000fd5b90600090816080840135612bc2576101c0840190602461295a83876127d3565b9050108015612b98575b610ca95761297061288b565b936129a5610a8761297f610ec2565b30815294602095848782015261299489612493565b5261299e88612493565b50886127d3565b949150506129be610aaa608f546001600160a01b031690565b91604088838251809663038ab08560e11b825281806129e98760049701358783019190602083019252565b03915afa948515610c4f578395612b79575b50612a058561291a565b600194858114908115612b64575b8115612b4f575b8115612b3b575b50612a655750505050505061206e612a55612a6192612a4f612a4960965460c08a01356124e2565b916124ef565b906159be565b946101a08101906127d3565b9190565b9498959291908351938296612a85610aaa608d546001600160a01b031690565b915b868910612aa95750505050505050505061206e816101a0612a619301906127d3565b90919293949596979b612af79086612ac18f856124a5565b5187518094819263c44a8e6d60e01b83523089840160409060009294936001600160a01b03606083019616825260208201520152565b0381885afa918215610c4f578a9289918991612b21575b500151019c019796959493929190612a87565b612b3591503d808b833e6127a68183610e7e565b38612b0e565b60059150612b488161291a565b1438612a21565b9050612b5a8161291a565b6006811490612a1a565b9050612b6f8161291a565b6002811490612a13565b612b91919550843d8611610ca257610c948183610e7e565b93386129fb565b5063df148fbb60e01b6001600160e01b0319612bba610cfb610cf5868a6127d3565b161415612964565b60046040517f4fc178d8000000000000000000000000000000000000000000000000000000008152fd5b601f8111612bf8575050565b6000908180527f290decd9548b62a8d60345a988386fc84ba6bc95484008f6362f93160ef3e563906020601f850160051c83019410612c52575b601f0160051c01915b828110612c4757505050565b818155600101612c3b565b9092508290612c32565b601f8111612c68575050565b600090609382527f28da5ca8143bfa5e9f642e58e5e87bef0a2eb0c00bcd4efdd01050293f5fac91906020601f850160051c83019410612cc3575b601f0160051c01915b828110612cb857505050565b818155600101612cac565b9092508290612ca3565b601f8111612cd9575050565b600090609482527f7047a3cc0a76edcee45792ca71527c753f6167484f14b94c4a3bd2997516725c906020601f850160051c83019410612d34575b601f0160051c01915b828110612d2957505050565b818155600101612d1d565b9092508290612d14565b90601f8211612d4b575050565b6001916000908382527fb10e2d527612073b26eecdfd717e6a320cf44b4afac2b0732d9fcbe2b7fa0cf6906020601f850160051c83019410612da8575b601f0160051c01915b828110612d9e5750505050565b8181558301612d91565b9092508290612d88565b90601f8111612dc057505050565b600091825260208220906020601f850160051c83019410612dfc575b601f0160051c01915b828110612df157505050565b818155600101612de5565b9092508290612ddc565b90815167ffffffffffffffff8111610e4857612e2c81612e276093546114da565b612c5c565b602080601f8311600114612e675750819293600092612e5c575b50506000198260011b9260031b1c191617609355565b015190503880612e46565b90601f19831694612e9a60936000527f28da5ca8143bfa5e9f642e58e5e87bef0a2eb0c00bcd4efdd01050293f5fac9190565b926000905b878210612ed7575050836001959610612ebe575b505050811b01609355565b015160001960f88460031b161c19169055388080612eb3565b80600185968294968601518155019501930190612e9f565b90815167ffffffffffffffff8111610e4857612f1581612f106094546114da565b612ccd565b602080601f8311600114612f505750819293600092612f45575b50506000198260011b9260031b1c191617609455565b015190503880612f2f565b90601f19831694612f8360946000527f7047a3cc0a76edcee45792ca71527c753f6167484f14b94c4a3bd2997516725c90565b926000905b878210612fc0575050836001959610612fa7575b505050811b01609455565b015160001960f88460031b161c19169055388080612f9c565b80600185968294968601518155019501930190612f88565b90815167ffffffffffffffff8111610e485760019061300081612ffb84546114da565b612d3e565b602080601f831160011461303a57508192939460009261302f575b505060001982841b9260031b1c1916179055565b01519050388061301b565b90601f1983169561306d60016000527fb10e2d527612073b26eecdfd717e6a320cf44b4afac2b0732d9fcbe2b7fa0cf690565b926000905b8882106130a8575050838596971061308f575b505050811b019055565b015160001960f88460031b161c19169055388080613085565b808785968294968601518155019501930190613072565b919091825167ffffffffffffffff8111610e48576130e7816130e184546114da565b84612db2565b602080601f8311600114613122575081929394600092613117575b50506000198260011b9260031b1c1916179055565b015190503880613102565b90601f1983169561313885600052602060002090565b926000905b88821061315b5750508360019596971061308f57505050811b019055565b8060018596829496860151815501950193019061313d565b81601f8201121561036e5780519161318a83610f11565b926131986040519485610e7e565b808452602092838086019260051b82010192831161036e578301905b8282106131c2575050505090565b815181529083019083016131b4565b9060208282031261036e57815167ffffffffffffffff811161036e576105af9201613173565b60208082019080835283518092528060408094019401926000905b83821061322157505050505090565b9091929394836101606001926132d6895161324b8382516cffffffffffffffffffffffffff169052565b8085015163ffffffff16838601528087015163ffffffff168388015260608181015161ffff16908401526080818101516001600160a01b03169084015260a0818101519084015260c08082015162ffffff169084015260e081810151151590840152610100818101511515908401526101208181015115159084015261014090810151151590830152565b0196019493920190613212565b90929c95999b9394979a9196989c6001600160a01b039d8e7f000000000000000000000000000000000000000000000000000000000000000016301461036e578e613339610aaa608d546001600160a01b031690565b1661036e5761339d8e6133816133db9961336565ffffffffffff966133f79e6133bf9b6133a39a614db0565b6001600160a01b03166001600160a01b0319608e541617608e55565b6001600160a01b03166001600160a01b0319608d541617608d55565b16609155565b6001600160a01b03166001600160a01b0319608f541617608f55565b6001600160a01b03166001600160a01b03196090541617609055565b6001600160a01b03166001600160a01b03196095541617609555565b8051613566575b508051613557575b508381166134d2575b5060009161344d91836040519586809581947f8da5e32b000000000000000000000000000000000000000000000000000000008352600483016131f7565b0393165af18015610c4f576134af575b5080519060005b828110613477575050506106df33615520565b806134a9613487600193856124a5565b516134a4613494846124cf565b6000526009602052604060002090565b6130bf565b01613464565b6134cb903d806000833e6134c38183610e7e565b8101906131d1565b503861345d565b91838116803b1561036e576040517fd84a72c00000000000000000000000000000000000000000000000000000000081526001600160a01b039490941660048501526000908490602490829084905af1918215610c4f5760009361344d9361353e575b5091509161340f565b8061354b61355192610e4d565b8061054b565b38613535565b61356090612eef565b38613406565b61356f90612e06565b386133fe565b908161012091031261036e57613589610ef0565b90805182526020810151602083015260408101516040830152606081015160608301526080810151608083015260a081015160a083015260c081015160c08301526135d660e0820161252f565b60e0830152610100809101519082015290565b818102929181159184041417156124dd57565b90613612610aaa608e546001600160a01b031690565b9161364160055493604094855180926321d1336160e11b82528180610120968795600483019190602083019252565b03915afa918215610c4f576136729260ff92610100926000926138fb575b5050015160f41c1660018091811c161490565b6138d25761368b610aaa608d546001600160a01b031690565b83517f136e651c000000000000000000000000000000000000000000000000000000008152306004820152602481018390529290602090849060449082905afa928315610c4f576000936138b2575b506001600160a01b039081613718610b5785613709886001600160a01b0316600052608a602052604060002090565b90600052602052604060002090565b1615613882575b613734610aaa608d546001600160a01b031690565b85517fbaa7e80e000000000000000000000000000000000000000000000000000000008152600481018590526024810183905292906000908490604490829084905af1928315610c4f57600093613867575b5060005b8281106138185750505060006137ab610aaa608d546001600160a01b031690565b94516364faa15960e01b8152306004820152602481018490526000604482015294859060649082905afa908115610c4f5760806137f9926106df966000916137ff575b5001519051906135e9565b91613f31565b613812913d8091833e6127a68183610e7e565b386137ee565b80613825600192866124a5565b5161383081896142f0565b88513381528489169188917f031e1988c95a91ec4d655ff63a8f87a80bc9daf28d95ae10ee08c0022cfb5c8b90602090a40161378a565b61387b91933d8091833e6134c38183610e7e565b9138613786565b6095546001600160a01b031683818416156138a7576138a2915b86613e49565b61371f565b6138a291508561389c565b6138cb91935060203d8111611ee457611ed68183610e7e565b91386136da565b600483517fe96092b8000000000000000000000000000000000000000000000000000000008152fd5b61391a9250803d10613921575b6139128183610e7e565b810190613575565b388061365f565b503d613908565b6139306154c8565b613945610aaa608f546001600160a01b031690565b600554916040918251809163038ab08560e11b82526020928391818061397460049a8b83019190602083019252565b03915afa908115610c4f57600091613c66575b506139918161291a565b60038103613c3d5760925460ff16613c14576139ac8161291a565b60068114908115613c00575b50613bd857608d906139d4610aaa83546001600160a01b031690565b9281855180957ff1bea54f0000000000000000000000000000000000000000000000000000000082528180613a1b308c83019190916001600160a01b036020820193169052565b03915afa938415610c4f57600094613bb9575b50919290600092805192613a40613c83565b5084955b848710613a9a575050505050670de0b6b3a7640000915011613a745750506106df600160ff196092541617609255565b517f6ff44e97000000000000000000000000000000000000000000000000000000008152fd5b9091929394613af46000613ab8610aaa85546001600160a01b031690565b613ac28a886124a5565b51518b516364faa15960e01b815230818f01908152602081019290925260006040830152938492918391829160600190565b03915afa908115610c4f57600091613ba0575b50610100810151613b785783815111613b7857600191613b57613b6b92613b3f61271a8a613b358e8c6124a5565b5101519251612617565b90919060001983549160031b92831b921b1916179055565b86613b628a886124a5565b510151906124e2565b9601959493929190613a44565b8989517f52385374000000000000000000000000000000000000000000000000000000008152fd5b613bb3913d8091833e6127a68183610e7e565b38613b07565b613bd1919450823d8411610c4857610c3a8183610e7e565b9238613a2e565b5050517f6fb84075000000000000000000000000000000000000000000000000000000008152fd5b60059150613c0d8161291a565b14386139b8565b505050517f38101407000000000000000000000000000000000000000000000000000000008152fd5b505050517f03ce4502000000000000000000000000000000000000000000000000000000008152fd5b613c7d9150823d8411610ca257610c948183610e7e565b38613987565b60405190610180820182811067ffffffffffffffff821117610e4857604052606061016083600080825280602083015280604083015280848301528060808301528060a08301528060c08301528060e083015280610100830152806101208301526101408201520152565b9081602091031261036e57516105af816110c3565b356105af816106c0565b613d22610aaa608f546001600160a01b031690565b6005546040805163038ab08560e11b8152600480820193909352939290916020918290869060249082905afa948515610c4f57600095613e2a575b50613d678561291a565b6001809503613e0357835193613d7b612872565b5060005b858110613d8f5750505050505050565b613d9981836124a5565b51613dae610aaa82516001600160a01b031690565b15613ddb5790613dd58286613dcb8b95516001600160a01b031690565b9101519033613e49565b01613d7f565b8386517f53d304f4000000000000000000000000000000000000000000000000000000008152fd5b82517ff331f3c1000000000000000000000000000000000000000000000000000000008152fd5b613e42919550823d8411610ca257610c948183610e7e565b9338613d5d565b6001600160a01b039081166000818152608a602090815260408083208784528252822080548686166001600160a01b03198216811790925592969195919491939282169291869184847f3134e8a2e6d97e929a7e54011ea5485d7d196dd5f0ba4d4ef95803e8e3fc257f8b80a4608d5416916064604051809481937f2e4d0ea800000000000000000000000000000000000000000000000000000000835230600484015260248301528860448301525afa948515610c4f576106df9695613f12575b5050613fc2565b613f29929550803d10610c4857610c3a8183610e7e565b923880613f0b565b906106df92916000828152608c602052613f4e8460408320615668565b505060406001600160a01b039182841615613fa7575b808052608a602052818120858252602052613f98838383205416946001600160a01b0316600052608a602052604060002090565b85825260205220541690613fc2565b848152608c602052613fbb86838320615717565b5050613f64565b9192906001600160a01b039283821693811684811480156140e8575b6140e05785918161406d575b50505082613ff9575b50505050565b7fed0c1e94c302bdbbd8bbd6a4fb7c3ed335c2292407cd816eadd075d019d0ce049161403b61404c926001600160a01b0316600052608b602052604060002090565b856000526020526040600020615668565b6040805192835260208301919091523390820152606090a338808080613ff3565b61408a906001600160a01b0316600052608b602052604060002090565b826000526020527fed0c1e94c302bdbbd8bbd6a4fb7c3ed335c2292407cd816eadd075d019d0ce046140c0856040600020615717565b6040805192835260208301919091523390820152606090a3833880613fea565b505050505050565b508315613fde565b6001600160a01b03608d5416803b1561036e5760405180927f86bc2be3000000000000000000000000000000000000000000000000000000008252602482016020908160048501528251809152816044850193019160005b82811061417857505050509181600081819503925af18015610c4f5761416b5750565b8061354b6106df92610e4d565b835185528795509381019392810192600101614148565b60005260026020526001600160a01b036040600020541680156141af5790565b60046040517fb49aa3b5000000000000000000000000000000000000000000000000000000008152fd5b6141f98160005260026020526001600160a01b0360406000205416151590565b156141af5760005260036020526001600160a01b036040600020541690565b929190614225823361426f565b156107435783614239838361423e97614938565b614cc3565b1561424557565b60046040517f6deaf836000000000000000000000000000000000000000000000000000000008152fd5b6001600160a01b03806142818461418f565b1692818316928484149485156142b7575b505083156142a1575b50505090565b6142ad919293506141d9565b161438808061429b565b60ff929550906142e69160005260046020526040600020906001600160a01b0316600052602052604060002090565b5416923880614292565b9190916001600160a01b038116908115614471576143248460005260026020526001600160a01b0360406000205416151590565b614447578360009281845260026020526143578360408620906001600160a01b03166001600160a01b0319825416179055565b837fddf252ad1be2c89b69c2b068fc378daa952ba7f163c4a11628f55a4df523b3ef8180a46143c482614395610aaa608d546001600160a01b031690565b60405163c44a8e6d60e01b81523060048201526024810197909752600060448801529591829081906064820190565b0381885afa908115610c4f57839161442d575b505193803b15614429576040516330b157e560e21b81526004810195909552600060248601526001600160a01b039190911660448501529192918290606490829084905af18015610c4f5761416b5750565b8280fd5b61444191503d8085833e6127a68183610e7e565b386143d7565b60046040517fbad7c30c000000000000000000000000000000000000000000000000000000008152fd5b60046040517f7208af1e000000000000000000000000000000000000000000000000000000008152fd5b906144e892916144b6610aaa608d546001600160a01b031690565b60405163c44a8e6d60e01b81523060048201526024810193909352600060448401819052948590849081906064820190565b0381845afa928315610c4f57859361456b575b508251813b15614567576040516330b157e560e21b815260048101919091526001600160a01b0383166024820152600060448201529394908490606490829084905af1928315610c4f576106df93614554575b50614675565b8061354b61456192610e4d565b3861454e565b8580fd5b6145809193503d8087833e6127a68183610e7e565b91386144fb565b906145d59392916145a3610aaa608d546001600160a01b031690565b60405163c44a8e6d60e01b81523060048201526024810194909452600060448501819052958690859081906064820190565b0381845afa938415610c4f578694614659575b508351813b15614655576040516330b157e560e21b815260048101919091526001600160a01b038381166024830152841660448201529495908590606490829084905af1938415610c4f576106df94614642575b506146e1565b8061354b61464f92610e4d565b3861463c565b8680fd5b61466e9194503d8088833e6127a68183610e7e565b92386145e8565b6001600160a01b038091169182156128c2576106df926080825192015192600091838352608c6020526146ab8560408520615717565b50508252608a60205260408220838352602052604081818420541692808052608a60205281812085825260205220541690613fc2565b916001600160a01b03809316918215613ff3576106df936040608084519401519482841615614741575b6000908152608a602052818120858252602052613f98838383205416946001600160a01b0316600052608a602052604060002090565b84600052608c6020526147578683600020615717565b505061470b565b6147678161418f565b906001600160a01b03821691826147cc575b8160006106df9461478983614b8f565b8282526002602052604082206001600160a01b031981541690557fddf252ad1be2c89b69c2b068fc378daa952ba7f163c4a11628f55a4df523b3ef8280a461449b565b6147e1610aaa608d546001600160a01b031690565b60405163c44a8e6d60e01b8152306004820152602481018490526000604482018190529091829060649082905afa908115610c4f5761482e916101409160009161491f575b500151151590565b61489b575b8160006106df94614854610aaa610b57856000526008602052604060002090565b15614863575b94505050614779565b6148968461487b856000526008602052604060002090565b906001600160a01b03166001600160a01b0319825416179055565b61485a565b6148dd926148b4610aaa608e546001600160a01b031690565b9060055460405180936321d1336160e11b82528180610120998a95600483019190602083019252565b03915afa908115610c4f576106df958593600093614901575b505094505050614833565b8161491792903d10613921576139128183610e7e565b5038806148f6565b614932913d8091833e6127a68183610e7e565b38614826565b91906149438261418f565b6001600160a01b0380851694918116859003614b65578216938415614b3b57806149ce575b6106df94849161497783614b8f565b8260005260026020526149a4856040600020906001600160a01b03166001600160a01b0319825416179055565b7fddf252ad1be2c89b69c2b068fc378daa952ba7f163c4a11628f55a4df523b3ef600080a4614587565b6149e3610aaa608d546001600160a01b031690565b60405163c44a8e6d60e01b8152306004820152602481018690526000604482018190529091829060649082905afa908115610c4f57614a2f916101409160009161491f57500151151590565b614a80575b6106df948491614a54610aaa610b57856000526008602052604060002090565b15614a63575b91509450614968565b614a7b8461487b856000526008602052604060002090565b614a5a565b614ac0614a98610aaa608e546001600160a01b031690565b60055460405180926321d1336160e11b82528180610120968795600483019190602083019252565b03915afa918215610c4f57614aef9260ff9261010092600092614b1e575b5050015160f41c1660018091161490565b15614a345760046040517f18cdaf97000000000000000000000000000000000000000000000000000000008152fd5b614b349250803d10613921576139128183610e7e565b3880614ade565b60046040517f2c955427000000000000000000000000000000000000000000000000000000008152fd5b60046040517fa195bc53000000000000000000000000000000000000000000000000000000008152fd5b80600052600360205260406000206001600160a01b0319815416905560006001600160a01b03614bbe8361418f565b167f8c5be1e5ebec7d5bd14f71427d1e84f3dd0314c0f7b2291e5b200ac8c7c3b9258280a4565b816000526003602052614c12816040600020906001600160a01b03166001600160a01b0319825416179055565b6001600160a01b0380614c248461418f565b169116907f8c5be1e5ebec7d5bd14f71427d1e84f3dd0314c0f7b2291e5b200ac8c7c3b925600080a4565b9081602091031261036e57516105af8161035c565b90926105af94936080936001600160a01b03809216845216602083015260408201528160608201520190610579565b3d15614cbe573d90614ca482610ff1565b91614cb26040519384610e7e565b82523d6000602084013e565b606090565b92909190823b15614da757614d179260209260006001600160a01b036040518097819682957f150b7a02000000000000000000000000000000000000000000000000000000009b8c85523360048601614c64565b0393165af160009181614d77575b50614d6957614d32614c93565b80519081614d645760046040517f6deaf836000000000000000000000000000000000000000000000000000000008152fd5b602001fd5b6001600160e01b0319161490565b614d9991925060203d8111614da0575b614d918183610e7e565b810190614c4f565b9038614d25565b503d614d87565b50505050600190565b91929092805167ffffffffffffffff8111610e4857600091614ddb82614dd685546114da565b612bec565b60209081601f8411600114614e4757509282614e1b93614e2096936106df9998968492614e3c575b50506000198260011b9260031b1c1916179055612fd8565b600555565b6001600160a01b03166001600160a01b03196006541617600655565b015190503880614e03565b600080529190601f1984167f290decd9548b62a8d60345a988386fc84ba6bc95484008f6362f93160ef3e5639386905b828210614ec157505093614e2096936106df9998969360019383614e1b9810614ea8575b505050811b019055612fd8565b015160001960f88460031b161c19169055388080614e9b565b80600186978294978701518155019601940190614e77565b9160a08383031261036e5782359260209182820135936040830135614efd8161035c565b936060840135614f0c816106c0565b9360808101359067ffffffffffffffff821161036e57019180601f8401121561036e578235614f3a81610f11565b93614f486040519586610e7e565b818552838086019260051b82010192831161036e578301905b828210614f6f575050505090565b838091614f7b846110a4565b815201910190614f61565b9060915460c083013503615303576101e082016044614fa582856127d3565b905011806152d4575b614fb757509050565b614fc4614fcc91846127d3565b810190614ed9565b9250949250506001600160a01b038094169384156152a2575b815115615278576000808091845197825b8981106150505750505050505061502092935060806150186101808401613d03565b9201356153ae565b61502657565b60046040517f6d5e09a4000000000000000000000000000000000000000000000000000000008152fd5b898861507161506a615062858c6124a5565b5161ffff1690565b61ffff1690565b8503615195575b906150a6610b578661370961508d8b96613d03565b6001600160a01b0316600052608a602052604060002090565b88808616918b8315948515809661518a575b6150cc575b50505050505050600101614ff6565b879a9697916150db8b92612617565b83109283615164575b50505060001461510e57505050506001916150fe916124e2565b935b905084388088818b8f6150bd565b615135955083615157575b50505061513f575b836137f98761512f8c613d03565b936124e2565b6001600093615100565b615152848461514d8c613d03565b613e49565b615121565b1614159050388881615119565b61ffff9293506151809161517a615062926124cf565b906124a5565b1614888d8b6150e4565b5083831615156150b8565b50509350906151aa61506a61506286896124a5565b1061524e576151bf61506a61506285886124a5565b906151d5610aaa608d546001600160a01b031690565b6040516364faa15960e01b815230600482015260248101849052600060448201819052909591869060649082905afa948515610c4f578a6150a6610b5786613709608061508d9b8f97600091615235575b5001519a505050505090615078565b615248913d8091833e6127a68183610e7e565b38615226565b60046040517f9fda363d000000000000000000000000000000000000000000000000000000008152fd5b60046040517f3d04bd1f000000000000000000000000000000000000000000000000000000008152fd5b93506152b66095546001600160a01b031690565b808516156152c5575b93614fe5565b506152cf82613d03565b6152bf565b5063df148fbb60e01b6001600160e01b03196152fc610cfb6152f685886127d3565b90612835565b1614614fae565b60046040517f79cf85c0000000000000000000000000000000000000000000000000000000008152fd5b919060408382031261036e57825167ffffffffffffffff811161036e57602091615358918501613173565b92015190565b929190606084019084526020906060828601528251809152816080860193019160005b82811061539657505050506040600091930152565b835161ffff1685529381019392810192600101615381565b9291926153c6610aaa608d546001600160a01b031690565b9160409081519586947feaa19ab30000000000000000000000000000000000000000000000000000000086526000958691818381615408888b6004840161535e565b03925af18015610c4f57859786916154a0575b50968051955b8681106154315750505050505050565b8061543e600192846124a5565b5161544981866142f0565b61ffff61545961506284896124a5565b88518a81523360208201526001600160a01b0388169391909216917f598baf7bf150ca2f42be9e9f8f55e81d45f5715c3ff22bf46d697fabec7f31d690604090a401615421565b90506154bf9197503d8087833e6154b78183610e7e565b81019061532d565b9690963861541b565b6001600160a01b036007541633036154dc57565b606460405162461bcd60e51b815260206004820152602060248201527f4f776e61626c653a2063616c6c6572206973206e6f7420746865206f776e65726044820152fd5b600754906001600160a01b0380911691826001600160a01b0319821617600755167f8be0079c531659141344cd1fd0a4f28419497f9722a3daafe3b4186f6b6457e0600080a3565b90438110156156245761557a90615943565b90805491600063ffffffff8092165b8482106155d057505050816155a057506000919050565b6155c56155cc916155b86001600160e01b0394612617565b9060005260206000200190565b5460201c90565b1690565b9091938083169080841860011c82018092116124dd578460005282866156018460206000200163ffffffff90541690565b1611156156125750935b9190615589565b94925061561e906124cf565b9161560b565b606460405162461bcd60e51b815260206004820152602060248201527f436865636b706f696e74733a20626c6f636b206e6f7420796574206d696e65646044820152fd5b6001600160e01b0392918361567c8361573f565b169081018091116124dd5761569043615943565b918482116156ad578492836156a6931691615829565b9316921690565b608460405162461bcd60e51b815260206004820152602760248201527f53616665436173743a2076616c756520646f65736e27742066697420696e203260448201527f32342062697473000000000000000000000000000000000000000000000000006064820152fd5b6001600160e01b0392918361572b8361573f565b169081039081116124dd5761569043615943565b80546000918161575157505050600090565b6000199282848101116124dd5760209181522001015460201c90565b90815468010000000000000000811015610e4857600181018084558110156124a057600092835260209283902082519284015190931b63ffffffff191663ffffffff9290921691909117910155565b906040516157c981610e2c565b602081935463ffffffff81168352811c910152565b156157e557565b606460405162461bcd60e51b815260206004820152601760248201527f436865636b706f696e743a20696e76616c6964206b65790000000000000000006044820152fd5b909291928382548015156000146159185792602092918461586461585f615852612a6198612617565b8560005260206000200190565b6157bc565b93615873855163ffffffff1690565b61588a63ffffffff918284169283911611156157de565b6158a461589b875163ffffffff1690565b63ffffffff1690565b036158e257506158d4926155b86158ba92612617565b9063ffffffff63ffffffff1983549260201b169116179055565b01516001600160e01b031690565b915050615913916159006158f4610ec2565b63ffffffff9093168352565b6001600160e01b0388168286015261576d565b6158d4565b505061593d916159296158f4610ec2565b6001600160e01b038516602083015261576d565b60009190565b63ffffffff90818111615954571690565b608460405162461bcd60e51b815260206004820152602660248201527f53616665436173743a2076616c756520646f65736e27742066697420696e203360448201527f32206269747300000000000000000000000000000000000000000000000000006064820152fd5b919060001981840981840291828083109203918083039214615a5a57670de0b6b3a76400009081831015615a23577faccb18165bd6fe31ae1cf318dc5b51eee0e1ba569b88cd74c1773b91fac1066994950990828211900360ee1b910360121c170290565b60448383604051917f773cc18c00000000000000000000000000000000000000000000000000000000835260048301526024820152fd5b5050670de0b6b3a76400009004915056fea26469706673582212200c035e81d76ac4c9a2ba533c7c1b4adf6272bc767701be12340567c5243c8bd164736f6c63430008140033",
    "linkReferences": {}
  },
  "methodIdentifiers": {
    "TOTAL_REDEMPTION_WEIGHT()": "640abacd",
    "amountRedeemed()": "27f6e979",
    "approve(address,uint256)": "095ea7b3",
    "balanceOf(address)": "70a08231",
    "baseURI()": "6c0360eb",
    "codeOrigin()": "1d153ca4",
    "contractURI()": "e8a3d485",
    "defaultVotingDelegate()": "174e3e05",
    "didPay((address,uint256,uint256,(address,uint256,uint256,uint256),(address,uint256,uint256,uint256),uint256,address,bool,string,bytes))": "da9ee8b7",
    "didRedeem((address,uint256,uint256,uint256,(address,uint256,uint256,uint256),(address,uint256,uint256,uint256),address,string,bytes))": "2b13c58f",
    "directory()": "c41c2f24",
    "firstOwnerOf(uint256)": "54c6d1f5",
    "fundingCycleStore()": "557e7155",
    "gamePhaseReporter()": "a0b6490c",
    "gamePotReporter()": "7245d80c",
    "getApproved(uint256)": "081812fc",
    "getPastTierTotalVotes(uint256,uint256)": "d31cc52c",
    "getPastTierVotes(address,uint256,uint256)": "d40e7146",
    "getTierDelegate(address,uint256)": "82732b6d",
    "getTierTotalVotes(uint256)": "94c5c5ca",
    "getTierVotes(address,uint256)": "ca323efe",
    "initialize(uint256,address,string,string,address,string,address,string,(uint104,uint32,uint32,uint16,address,bytes32,uint24,bool,bool,bool,bool)[],uint48,address,address,address,address,string[])": "3900c6f9",
    "isApprovedForAll(address,address)": "e985e9c5",
    "mintReservesFor((uint256,uint256)[])": "2a596e53",
    "mintReservesFor(uint256,uint256)": "aa4fb15b",
    "name()": "06fdde03",
    "owner()": "8da5cb5b",
    "ownerOf(uint256)": "6352211e",
    "payParams((address,address,(address,uint256,uint256,uint256),uint256,uint256,address,uint256,uint256,string,bytes))": "d46cf171",
    "pricingCurrency()": "64640c1e",
    "projectId()": "3fafa127",
    "redeemParams((address,address,uint256,uint256,uint256,uint256,uint256,(address,uint256,uint256,uint256),bool,uint256,string,bytes))": "a51cfd18",
    "redemptionWeightIsSet()": "a8c15f4a",
    "redemptionWeightOf(uint256)": "4f228e11",
    "redemptionWeightOf(uint256[],(address,address,uint256,uint256,uint256,uint256,uint256,(address,uint256,uint256,uint256),bool,uint256,string,bytes))": "7ba62bf9",
    "renounceOwnership()": "715018a6",
    "safeTransferFrom(address,address,uint256)": "42842e0e",
    "safeTransferFrom(address,address,uint256,bytes)": "b88d4fde",
    "setApprovalForAll(address,bool)": "a22cb465",
    "setTierDelegate(address,uint256)": "ab951e39",
    "setTierDelegates((address,uint256)[])": "c74b13d9",
    "setTierRedemptionWeights((uint256,uint256)[])": "2f441500",
    "store()": "975057e7",
    "supportsInterface(bytes4)": "01ffc9a7",
    "symbol()": "95d89b41",
    "tierNameOf(uint256)": "1baabc3e",
    "tierRedemptionWeights()": "9df45468",
    "tokenURI(uint256)": "c87b56dd",
    "tokensRedeemedFrom(uint256)": "743682b5",
    "totalRedemptionWeight((address,address,uint256,uint256,uint256,uint256,uint256,(address,uint256,uint256,uint256),bool,uint256,string,bytes))": "9494bf72",
    "transferFrom(address,address,uint256)": "23b872dd",
    "transferOwnership(address)": "f2fde38b"
  },
  "id": 0
}