{
  "abi": [
    {
      "inputs": [
        {
          "internalType": "contract IERC20",
          "name": "_defifaToken",
          "type": "address"
        },
        {
          "internalType": "contract IERC20",
          "name": "_baseProtocolToken",
          "type": "address"
        }
      ],
      "stateMutability": "nonpayable",
      "type": "constructor"
    },
    {
      "inputs": [],
      "name": "ALEADY_MINTED",
      "type": "error"
    },
    {
      "inputs": [],
      "name": "APPROVAL_TO_CURRENT_OWNER",
      "type": "error"
    },
    {
      "inputs": [],
      "name": "APPROVE_TO_CALLER",
      "type": "error"
    },
    {
      "inputs": [],
      "name": "BAD_TIER_ORDER",
      "type": "error"
    },
    {
      "inputs": [],
      "name": "CALLER_NOT_OWNER_OR_APPROVED",
      "type": "error"
    },
    {
      "inputs": [],
      "name": "DELEGATE_ADDRESS_ZERO",
      "type": "error"
    },
    {
      "inputs": [],
      "name": "DELEGATE_CHANGES_UNAVAILABLE_IN_THIS_PHASE",
      "type": "error"
    },
    {
      "inputs": [],
      "name": "GAME_ISNT_SCORING_YET",
      "type": "error"
    },
    {
      "inputs": [],
      "name": "INCORRECT_OWNER",
      "type": "error"
    },
    {
      "inputs": [],
      "name": "INVALID_PAYMENT_EVENT",
      "type": "error"
    },
    {
      "inputs": [],
      "name": "INVALID_REDEMPTION_EVENT",
      "type": "error"
    },
    {
      "inputs": [],
      "name": "INVALID_REDEMPTION_METADATA",
      "type": "error"
    },
    {
      "inputs": [],
      "name": "INVALID_REDEMPTION_WEIGHTS",
      "type": "error"
    },
    {
      "inputs": [],
      "name": "INVALID_TIER_ID",
      "type": "error"
    },
    {
      "inputs": [],
      "name": "INVALID_TOKEN_ID",
      "type": "error"
    },
    {
      "inputs": [],
      "name": "MINT_TO_ZERO",
      "type": "error"
    },
    {
      "inputs": [],
      "name": "NOTHING_TO_CLAIM",
      "type": "error"
    },
    {
      "inputs": [],
      "name": "NOTHING_TO_MINT",
      "type": "error"
    },
    {
      "inputs": [],
      "name": "NO_CONTEST",
      "type": "error"
    },
    {
      "inputs": [],
      "name": "OVERSPENDING",
      "type": "error"
    },
    {
      "inputs": [
        {
          "internalType": "uint256",
          "name": "prod1",
          "type": "uint256"
        },
        {
          "internalType": "uint256",
          "name": "denominator",
          "type": "uint256"
        }
      ],
      "name": "PRBMath__MulDivOverflow",
      "type": "error"
    },
    {
      "inputs": [],
      "name": "REDEMPTION_WEIGHTS_ALREADY_SET",
      "type": "error"
    },
    {
      "inputs": [],
      "name": "RESERVED_TOKEN_MINTING_PAUSED",
      "type": "error"
    },
    {
      "inputs": [],
      "name": "TRANSFERS_PAUSED",
      "type": "error"
    },
    {
      "inputs": [],
      "name": "TRANSFER_TO_NON_IMPLEMENTER",
      "type": "error"
    },
    {
      "inputs": [],
      "name": "TRANSFER_TO_ZERO_ADDRESS",
      "type": "error"
    },
    {
      "inputs": [],
      "name": "UNAUTHORIZED",
      "type": "error"
    },
    {
      "inputs": [
        {
          "internalType": "uint256",
          "name": "_tokenId",
          "type": "uint256"
        }
      ],
      "name": "UNAUTHORIZED_TOKEN",
      "type": "error"
    },
    {
      "inputs": [],
      "name": "UNEXPECTED_TOKEN_REDEEMED",
      "type": "error"
    },
    {
      "inputs": [],
      "name": "WRONG_CURRENCY",
      "type": "error"
    },
    {
      "anonymous": false,
      "inputs": [
        {
          "indexed": true,
          "internalType": "address",
          "name": "owner",
          "type": "address"
        },
        {
          "indexed": true,
          "internalType": "address",
          "name": "approved",
          "type": "address"
        },
        {
          "indexed": true,
          "internalType": "uint256",
          "name": "tokenId",
          "type": "uint256"
        }
      ],
      "name": "Approval",
      "type": "event"
    },
    {
      "anonymous": false,
      "inputs": [
        {
          "indexed": true,
          "internalType": "address",
          "name": "owner",
          "type": "address"
        },
        {
          "indexed": true,
          "internalType": "address",
          "name": "operator",
          "type": "address"
        },
        {
          "indexed": false,
          "internalType": "bool",
          "name": "approved",
          "type": "bool"
        }
      ],
      "name": "ApprovalForAll",
      "type": "event"
    },
    {
      "anonymous": false,
      "inputs": [
        {
          "indexed": true,
          "internalType": "address",
          "name": "delegator",
          "type": "address"
        },
        {
          "indexed": true,
          "internalType": "address",
          "name": "fromDelegate",
          "type": "address"
        },
        {
          "indexed": true,
          "internalType": "address",
          "name": "toDelegate",
          "type": "address"
        }
      ],
      "name": "DelegateChanged",
      "type": "event"
    },
    {
      "anonymous": false,
      "inputs": [
        {
          "indexed": true,
          "internalType": "uint256",
          "name": "tokenId",
          "type": "uint256"
        },
        {
          "indexed": true,
          "internalType": "uint256",
          "name": "tierId",
          "type": "uint256"
        },
        {
          "indexed": true,
          "internalType": "address",
          "name": "beneficiary",
          "type": "address"
        },
        {
          "indexed": false,
          "internalType": "uint256",
          "name": "totalAmountContributed",
          "type": "uint256"
        },
        {
          "indexed": false,
          "internalType": "address",
          "name": "caller",
          "type": "address"
        }
      ],
      "name": "Mint",
      "type": "event"
    },
    {
      "anonymous": false,
      "inputs": [
        {
          "indexed": true,
          "internalType": "uint256",
          "name": "tokenId",
          "type": "uint256"
        },
        {
          "indexed": true,
          "internalType": "uint256",
          "name": "tierId",
          "type": "uint256"
        },
        {
          "indexed": true,
          "internalType": "address",
          "name": "beneficiary",
          "type": "address"
        },
        {
          "indexed": false,
          "internalType": "address",
          "name": "caller",
          "type": "address"
        }
      ],
      "name": "MintReservedToken",
      "type": "event"
    },
    {
      "anonymous": false,
      "inputs": [
        {
          "indexed": true,
          "internalType": "address",
          "name": "previousOwner",
          "type": "address"
        },
        {
          "indexed": true,
          "internalType": "address",
          "name": "newOwner",
          "type": "address"
        }
      ],
      "name": "OwnershipTransferred",
      "type": "event"
    },
    {
      "anonymous": false,
      "inputs": [
        {
          "indexed": true,
          "internalType": "address",
          "name": "delegate",
          "type": "address"
        },
        {
          "indexed": true,
          "internalType": "uint256",
          "name": "tierId",
          "type": "uint256"
        },
        {
          "indexed": false,
          "internalType": "uint256",
          "name": "previousBalance",
          "type": "uint256"
        },
        {
          "indexed": false,
          "internalType": "uint256",
          "name": "newBalance",
          "type": "uint256"
        },
        {
          "indexed": false,
          "internalType": "address",
          "name": "caller",
          "type": "address"
        }
      ],
      "name": "TierDelegateAttestationsChanged",
      "type": "event"
    },
    {
      "anonymous": false,
      "inputs": [
        {
          "indexed": true,
          "internalType": "address",
          "name": "from",
          "type": "address"
        },
        {
          "indexed": true,
          "internalType": "address",
          "name": "to",
          "type": "address"
        },
        {
          "indexed": true,
          "internalType": "uint256",
          "name": "tokenId",
          "type": "uint256"
        }
      ],
      "name": "Transfer",
      "type": "event"
    },
    {
      "inputs": [],
      "name": "TOTAL_REDEMPTION_WEIGHT",
      "outputs": [
        {
          "internalType": "uint256",
          "name": "",
          "type": "uint256"
        }
      ],
      "stateMutability": "view",
      "type": "function"
    },
    {
      "inputs": [],
      "name": "amountRedeemed",
      "outputs": [
        {
          "internalType": "uint256",
          "name": "",
          "type": "uint256"
        }
      ],
      "stateMutability": "view",
      "type": "function"
    },
    {
      "inputs": [
        {
          "internalType": "address",
          "name": "to",
          "type": "address"
        },
        {
          "internalType": "uint256",
          "name": "tokenId",
          "type": "uint256"
        }
      ],
      "name": "approve",
      "outputs": [],
      "stateMutability": "nonpayable",
      "type": "function"
    },
    {
      "inputs": [
        {
          "internalType": "address",
          "name": "_owner",
          "type": "address"
        }
      ],
      "name": "balanceOf",
      "outputs": [
        {
          "internalType": "uint256",
          "name": "balance",
          "type": "uint256"
        }
      ],
      "stateMutability": "view",
      "type": "function"
    },
    {
      "inputs": [],
      "name": "baseProtocolToken",
      "outputs": [
        {
          "internalType": "contract IERC20",
          "name": "",
          "type": "address"
        }
      ],
      "stateMutability": "view",
      "type": "function"
    },
    {
      "inputs": [],
      "name": "baseURI",
      "outputs": [
        {
          "internalType": "string",
          "name": "",
          "type": "string"
        }
      ],
      "stateMutability": "view",
      "type": "function"
    },
    {
      "inputs": [],
      "name": "codeOrigin",
      "outputs": [
        {
          "internalType": "address",
          "name": "",
          "type": "address"
        }
      ],
      "stateMutability": "view",
      "type": "function"
    },
    {
      "inputs": [],
      "name": "contractURI",
      "outputs": [
        {
          "internalType": "string",
          "name": "",
          "type": "string"
        }
      ],
      "stateMutability": "view",
      "type": "function"
    },
    {
      "inputs": [],
      "name": "defaultAttestationDelegate",
      "outputs": [
        {
          "internalType": "address",
          "name": "",
          "type": "address"
        }
      ],
      "stateMutability": "view",
      "type": "function"
    },
    {
      "inputs": [],
      "name": "defifaToken",
      "outputs": [
        {
          "internalType": "contract IERC20",
          "name": "",
          "type": "address"
        }
      ],
      "stateMutability": "view",
      "type": "function"
    },
    {
      "inputs": [
        {
          "components": [
            {
              "internalType": "address",
              "name": "payer",
              "type": "address"
            },
            {
              "internalType": "uint256",
              "name": "projectId",
              "type": "uint256"
            },
            {
              "internalType": "uint256",
              "name": "currentFundingCycleConfiguration",
              "type": "uint256"
            },
            {
              "components": [
                {
                  "internalType": "address",
                  "name": "token",
                  "type": "address"
                },
                {
                  "internalType": "uint256",
                  "name": "value",
                  "type": "uint256"
                },
                {
                  "internalType": "uint256",
                  "name": "decimals",
                  "type": "uint256"
                },
                {
                  "internalType": "uint256",
                  "name": "currency",
                  "type": "uint256"
                }
              ],
              "internalType": "struct JBTokenAmount",
              "name": "amount",
              "type": "tuple"
            },
            {
              "components": [
                {
                  "internalType": "address",
                  "name": "token",
                  "type": "address"
                },
                {
                  "internalType": "uint256",
                  "name": "value",
                  "type": "uint256"
                },
                {
                  "internalType": "uint256",
                  "name": "decimals",
                  "type": "uint256"
                },
                {
                  "internalType": "uint256",
                  "name": "currency",
                  "type": "uint256"
                }
              ],
              "internalType": "struct JBTokenAmount",
              "name": "forwardedAmount",
              "type": "tuple"
            },
            {
              "internalType": "uint256",
              "name": "projectTokenCount",
              "type": "uint256"
            },
            {
              "internalType": "address",
              "name": "beneficiary",
              "type": "address"
            },
            {
              "internalType": "bool",
              "name": "preferClaimedTokens",
              "type": "bool"
            },
            {
              "internalType": "string",
              "name": "memo",
              "type": "string"
            },
            {
              "internalType": "bytes",
              "name": "metadata",
              "type": "bytes"
            }
          ],
          "internalType": "struct JBDidPayData",
          "name": "_data",
          "type": "tuple"
        }
      ],
      "name": "didPay",
      "outputs": [],
      "stateMutability": "payable",
      "type": "function"
    },
    {
      "inputs": [
        {
          "components": [
            {
              "internalType": "address",
              "name": "holder",
              "type": "address"
            },
            {
              "internalType": "uint256",
              "name": "projectId",
              "type": "uint256"
            },
            {
              "internalType": "uint256",
              "name": "currentFundingCycleConfiguration",
              "type": "uint256"
            },
            {
              "internalType": "uint256",
              "name": "projectTokenCount",
              "type": "uint256"
            },
            {
              "components": [
                {
                  "internalType": "address",
                  "name": "token",
                  "type": "address"
                },
                {
                  "internalType": "uint256",
                  "name": "value",
                  "type": "uint256"
                },
                {
                  "internalType": "uint256",
                  "name": "decimals",
                  "type": "uint256"
                },
                {
                  "internalType": "uint256",
                  "name": "currency",
                  "type": "uint256"
                }
              ],
              "internalType": "struct JBTokenAmount",
              "name": "reclaimedAmount",
              "type": "tuple"
            },
            {
              "components": [
                {
                  "internalType": "address",
                  "name": "token",
                  "type": "address"
                },
                {
                  "internalType": "uint256",
                  "name": "value",
                  "type": "uint256"
                },
                {
                  "internalType": "uint256",
                  "name": "decimals",
                  "type": "uint256"
                },
                {
                  "internalType": "uint256",
                  "name": "currency",
                  "type": "uint256"
                }
              ],
              "internalType": "struct JBTokenAmount",
              "name": "forwardedAmount",
              "type": "tuple"
            },
            {
              "internalType": "address payable",
              "name": "beneficiary",
              "type": "address"
            },
            {
              "internalType": "string",
              "name": "memo",
              "type": "string"
            },
            {
              "internalType": "bytes",
              "name": "metadata",
              "type": "bytes"
            }
          ],
          "internalType": "struct JBDidRedeemData",
          "name": "_data",
          "type": "tuple"
        }
      ],
      "name": "didRedeem",
      "outputs": [],
      "stateMutability": "payable",
      "type": "function"
    },
    {
      "inputs": [],
      "name": "directory",
      "outputs": [
        {
          "internalType": "contract IJBDirectory",
          "name": "",
          "type": "address"
        }
      ],
      "stateMutability": "view",
      "type": "function"
    },
    {
      "inputs": [
        {
          "internalType": "uint256",
          "name": "_tokenId",
          "type": "uint256"
        }
      ],
      "name": "firstOwnerOf",
      "outputs": [
        {
          "internalType": "address",
          "name": "",
          "type": "address"
        }
      ],
      "stateMutability": "view",
      "type": "function"
    },
    {
      "inputs": [],
      "name": "fundingCycleStore",
      "outputs": [
        {
          "internalType": "contract IJBFundingCycleStore",
          "name": "",
          "type": "address"
        }
      ],
      "stateMutability": "view",
      "type": "function"
    },
    {
      "inputs": [],
      "name": "gamePhaseReporter",
      "outputs": [
        {
          "internalType": "contract IDefifaGamePhaseReporter",
          "name": "",
          "type": "address"
        }
      ],
      "stateMutability": "view",
      "type": "function"
    },
    {
      "inputs": [],
      "name": "gamePotReporter",
      "outputs": [
        {
          "internalType": "contract IDefifaGamePotReporter",
          "name": "",
          "type": "address"
        }
      ],
      "stateMutability": "view",
      "type": "function"
    },
    {
      "inputs": [
        {
          "internalType": "uint256",
          "name": "tokenId",
          "type": "uint256"
        }
      ],
      "name": "getApproved",
      "outputs": [
        {
          "internalType": "address",
          "name": "",
          "type": "address"
        }
      ],
      "stateMutability": "view",
      "type": "function"
    },
    {
      "inputs": [
        {
          "internalType": "address",
          "name": "_account",
          "type": "address"
        },
        {
          "internalType": "uint256",
          "name": "_tier",
          "type": "uint256"
        },
        {
          "internalType": "uint256",
          "name": "_blockNumber",
          "type": "uint256"
        }
      ],
      "name": "getPastTierAttestationUnitsOf",
      "outputs": [
        {
          "internalType": "uint256",
          "name": "",
          "type": "uint256"
        }
      ],
      "stateMutability": "view",
      "type": "function"
    },
    {
      "inputs": [
        {
          "internalType": "uint256",
          "name": "_tier",
          "type": "uint256"
        },
        {
          "internalType": "uint256",
          "name": "_blockNumber",
          "type": "uint256"
        }
      ],
      "name": "getPastTierTotalAttestationUnitsOf",
      "outputs": [
        {
          "internalType": "uint256",
          "name": "",
          "type": "uint256"
        }
      ],
      "stateMutability": "view",
      "type": "function"
    },
    {
      "inputs": [
        {
          "internalType": "address",
          "name": "_account",
          "type": "address"
        },
        {
          "internalType": "uint256",
          "name": "_tier",
          "type": "uint256"
        }
      ],
      "name": "getTierAttestationUnitsOf",
      "outputs": [
        {
          "internalType": "uint256",
          "name": "",
          "type": "uint256"
        }
      ],
      "stateMutability": "view",
      "type": "function"
    },
    {
      "inputs": [
        {
          "internalType": "address",
          "name": "_account",
          "type": "address"
        },
        {
          "internalType": "uint256",
          "name": "_tier",
          "type": "uint256"
        }
      ],
      "name": "getTierDelegateOf",
      "outputs": [
        {
          "internalType": "address",
          "name": "",
          "type": "address"
        }
      ],
      "stateMutability": "view",
      "type": "function"
    },
    {
      "inputs": [
        {
          "internalType": "uint256",
          "name": "_tier",
          "type": "uint256"
        }
      ],
      "name": "getTierTotalAttestationUnitsOf",
      "outputs": [
        {
          "internalType": "uint256",
          "name": "",
          "type": "uint256"
        }
      ],
      "stateMutability": "view",
      "type": "function"
    },
    {
      "inputs": [
        {
          "internalType": "uint256",
          "name": "_gameId",
          "type": "uint256"
        },
        {
          "internalType": "contract IJBDirectory",
          "name": "_directory",
          "type": "address"
        },
        {
          "internalType": "string",
          "name": "_name",
          "type": "string"
        },
        {
          "internalType": "string",
          "name": "_symbol",
          "type": "string"
        },
        {
          "internalType": "contract IJBFundingCycleStore",
          "name": "_fundingCycleStore",
          "type": "address"
        },
        {
          "internalType": "string",
          "name": "_baseUri",
          "type": "string"
        },
        {
          "internalType": "contract IJB721TokenUriResolver",
          "name": "_tokenUriResolver",
          "type": "address"
        },
        {
          "internalType": "string",
          "name": "_contractUri",
          "type": "string"
        },
        {
          "components": [
            {
              "internalType": "uint104",
              "name": "price",
              "type": "uint104"
            },
            {
              "internalType": "uint32",
              "name": "initialQuantity",
              "type": "uint32"
            },
            {
              "internalType": "uint32",
              "name": "votingUnits",
              "type": "uint32"
            },
            {
              "internalType": "uint16",
              "name": "reservedRate",
              "type": "uint16"
            },
            {
              "internalType": "address",
              "name": "reservedTokenBeneficiary",
              "type": "address"
            },
            {
              "internalType": "bytes32",
              "name": "encodedIPFSUri",
              "type": "bytes32"
            },
            {
              "internalType": "uint24",
              "name": "category",
              "type": "uint24"
            },
            {
              "internalType": "bool",
              "name": "allowManualMint",
              "type": "bool"
            },
            {
              "internalType": "bool",
              "name": "shouldUseReservedTokenBeneficiaryAsDefault",
              "type": "bool"
            },
            {
              "internalType": "bool",
              "name": "transfersPausable",
              "type": "bool"
            },
            {
              "internalType": "bool",
              "name": "useVotingUnits",
              "type": "bool"
            }
          ],
          "internalType": "struct JB721TierParams[]",
          "name": "_tiers",
          "type": "tuple[]"
        },
        {
          "internalType": "uint48",
          "name": "_currency",
          "type": "uint48"
        },
        {
          "internalType": "contract IJBTiered721DelegateStore",
          "name": "_store",
          "type": "address"
        },
        {
          "internalType": "contract IDefifaGamePhaseReporter",
          "name": "_gamePhaseReporter",
          "type": "address"
        },
        {
          "internalType": "contract IDefifaGamePotReporter",
          "name": "_gamePotReporter",
          "type": "address"
        },
        {
          "internalType": "address",
          "name": "_defaultAttestationDelegate",
          "type": "address"
        },
        {
          "internalType": "string[]",
          "name": "_tierNames",
          "type": "string[]"
        }
      ],
      "name": "initialize",
      "outputs": [],
      "stateMutability": "nonpayable",
      "type": "function"
    },
    {
      "inputs": [
        {
          "internalType": "address",
          "name": "owner",
          "type": "address"
        },
        {
          "internalType": "address",
          "name": "operator",
          "type": "address"
        }
      ],
      "name": "isApprovedForAll",
      "outputs": [
        {
          "internalType": "bool",
          "name": "",
          "type": "bool"
        }
      ],
      "stateMutability": "view",
      "type": "function"
    },
    {
      "inputs": [
        {
          "components": [
            {
              "internalType": "uint256",
              "name": "tierId",
              "type": "uint256"
            },
            {
              "internalType": "uint256",
              "name": "count",
              "type": "uint256"
            }
          ],
          "internalType": "struct JBTiered721MintReservesForTiersData[]",
          "name": "_mintReservesForTiersData",
          "type": "tuple[]"
        }
      ],
      "name": "mintReservesFor",
      "outputs": [],
      "stateMutability": "nonpayable",
      "type": "function"
    },
    {
      "inputs": [
        {
          "internalType": "uint256",
          "name": "_tierId",
          "type": "uint256"
        },
        {
          "internalType": "uint256",
          "name": "_count",
          "type": "uint256"
        }
      ],
      "name": "mintReservesFor",
      "outputs": [],
      "stateMutability": "nonpayable",
      "type": "function"
    },
    {
      "inputs": [],
      "name": "name",
      "outputs": [
        {
          "internalType": "string",
          "name": "",
          "type": "string"
        }
      ],
      "stateMutability": "view",
      "type": "function"
    },
    {
      "inputs": [],
      "name": "owner",
      "outputs": [
        {
          "internalType": "address",
          "name": "",
          "type": "address"
        }
      ],
      "stateMutability": "view",
      "type": "function"
    },
    {
      "inputs": [
        {
          "internalType": "uint256",
          "name": "tokenId",
          "type": "uint256"
        }
      ],
      "name": "ownerOf",
      "outputs": [
        {
          "internalType": "address",
          "name": "",
          "type": "address"
        }
      ],
      "stateMutability": "view",
      "type": "function"
    },
    {
      "inputs": [
        {
          "components": [
            {
              "internalType": "contract IJBPaymentTerminal",
              "name": "terminal",
              "type": "address"
            },
            {
              "internalType": "address",
              "name": "payer",
              "type": "address"
            },
            {
              "components": [
                {
                  "internalType": "address",
                  "name": "token",
                  "type": "address"
                },
                {
                  "internalType": "uint256",
                  "name": "value",
                  "type": "uint256"
                },
                {
                  "internalType": "uint256",
                  "name": "decimals",
                  "type": "uint256"
                },
                {
                  "internalType": "uint256",
                  "name": "currency",
                  "type": "uint256"
                }
              ],
              "internalType": "struct JBTokenAmount",
              "name": "amount",
              "type": "tuple"
            },
            {
              "internalType": "uint256",
              "name": "projectId",
              "type": "uint256"
            },
            {
              "internalType": "uint256",
              "name": "currentFundingCycleConfiguration",
              "type": "uint256"
            },
            {
              "internalType": "address",
              "name": "beneficiary",
              "type": "address"
            },
            {
              "internalType": "uint256",
              "name": "weight",
              "type": "uint256"
            },
            {
              "internalType": "uint256",
              "name": "reservedRate",
              "type": "uint256"
            },
            {
              "internalType": "string",
              "name": "memo",
              "type": "string"
            },
            {
              "internalType": "bytes",
              "name": "metadata",
              "type": "bytes"
            }
          ],
          "internalType": "struct JBPayParamsData",
          "name": "_data",
          "type": "tuple"
        }
      ],
      "name": "payParams",
      "outputs": [
        {
          "internalType": "uint256",
          "name": "weight",
          "type": "uint256"
        },
        {
          "internalType": "string",
          "name": "memo",
          "type": "string"
        },
        {
          "components": [
            {
              "internalType": "contract IJBPayDelegate",
              "name": "delegate",
              "type": "address"
            },
            {
              "internalType": "uint256",
              "name": "amount",
              "type": "uint256"
            }
          ],
          "internalType": "struct JBPayDelegateAllocation[]",
          "name": "delegateAllocations",
          "type": "tuple[]"
        }
      ],
      "stateMutability": "view",
      "type": "function"
    },
    {
      "inputs": [],
      "name": "pricingCurrency",
      "outputs": [
        {
          "internalType": "uint256",
          "name": "",
          "type": "uint256"
        }
      ],
      "stateMutability": "view",
      "type": "function"
    },
    {
      "inputs": [],
      "name": "projectId",
      "outputs": [
        {
          "internalType": "uint256",
          "name": "",
          "type": "uint256"
        }
      ],
      "stateMutability": "view",
      "type": "function"
    },
    {
      "inputs": [
        {
          "components": [
            {
              "internalType": "contract IJBPaymentTerminal",
              "name": "terminal",
              "type": "address"
            },
            {
              "internalType": "address",
              "name": "holder",
              "type": "address"
            },
            {
              "internalType": "uint256",
              "name": "projectId",
              "type": "uint256"
            },
            {
              "internalType": "uint256",
              "name": "currentFundingCycleConfiguration",
              "type": "uint256"
            },
            {
              "internalType": "uint256",
              "name": "tokenCount",
              "type": "uint256"
            },
            {
              "internalType": "uint256",
              "name": "totalSupply",
              "type": "uint256"
            },
            {
              "internalType": "uint256",
              "name": "overflow",
              "type": "uint256"
            },
            {
              "components": [
                {
                  "internalType": "address",
                  "name": "token",
                  "type": "address"
                },
                {
                  "internalType": "uint256",
                  "name": "value",
                  "type": "uint256"
                },
                {
                  "internalType": "uint256",
                  "name": "decimals",
                  "type": "uint256"
                },
                {
                  "internalType": "uint256",
                  "name": "currency",
                  "type": "uint256"
                }
              ],
              "internalType": "struct JBTokenAmount",
              "name": "reclaimAmount",
              "type": "tuple"
            },
            {
              "internalType": "bool",
              "name": "useTotalOverflow",
              "type": "bool"
            },
            {
              "internalType": "uint256",
              "name": "redemptionRate",
              "type": "uint256"
            },
            {
              "internalType": "string",
              "name": "memo",
              "type": "string"
            },
            {
              "internalType": "bytes",
              "name": "metadata",
              "type": "bytes"
            }
          ],
          "internalType": "struct JBRedeemParamsData",
          "name": "_data",
          "type": "tuple"
        }
      ],
      "name": "redeemParams",
      "outputs": [
        {
          "internalType": "uint256",
          "name": "reclaimAmount",
          "type": "uint256"
        },
        {
          "internalType": "string",
          "name": "memo",
          "type": "string"
        },
        {
          "components": [
            {
              "internalType": "contract IJBRedemptionDelegate",
              "name": "delegate",
              "type": "address"
            },
            {
              "internalType": "uint256",
              "name": "amount",
              "type": "uint256"
            }
          ],
          "internalType": "struct JBRedemptionDelegateAllocation[]",
          "name": "delegateAllocations",
          "type": "tuple[]"
        }
      ],
      "stateMutability": "view",
      "type": "function"
    },
    {
      "inputs": [],
      "name": "redemptionWeightIsSet",
      "outputs": [
        {
          "internalType": "bool",
          "name": "",
          "type": "bool"
        }
      ],
      "stateMutability": "view",
      "type": "function"
    },
    {
      "inputs": [
        {
          "internalType": "uint256",
          "name": "_tokenId",
          "type": "uint256"
        }
      ],
      "name": "redemptionWeightOf",
      "outputs": [
        {
          "internalType": "uint256",
          "name": "",
          "type": "uint256"
        }
      ],
      "stateMutability": "view",
      "type": "function"
    },
    {
      "inputs": [
        {
          "internalType": "uint256[]",
          "name": "_tokenIds",
          "type": "uint256[]"
        },
        {
          "components": [
            {
              "internalType": "contract IJBPaymentTerminal",
              "name": "terminal",
              "type": "address"
            },
            {
              "internalType": "address",
              "name": "holder",
              "type": "address"
            },
            {
              "internalType": "uint256",
              "name": "projectId",
              "type": "uint256"
            },
            {
              "internalType": "uint256",
              "name": "currentFundingCycleConfiguration",
              "type": "uint256"
            },
            {
              "internalType": "uint256",
              "name": "tokenCount",
              "type": "uint256"
            },
            {
              "internalType": "uint256",
              "name": "totalSupply",
              "type": "uint256"
            },
            {
              "internalType": "uint256",
              "name": "overflow",
              "type": "uint256"
            },
            {
              "components": [
                {
                  "internalType": "address",
                  "name": "token",
                  "type": "address"
                },
                {
                  "internalType": "uint256",
                  "name": "value",
                  "type": "uint256"
                },
                {
                  "internalType": "uint256",
                  "name": "decimals",
                  "type": "uint256"
                },
                {
                  "internalType": "uint256",
                  "name": "currency",
                  "type": "uint256"
                }
              ],
              "internalType": "struct JBTokenAmount",
              "name": "reclaimAmount",
              "type": "tuple"
            },
            {
              "internalType": "bool",
              "name": "useTotalOverflow",
              "type": "bool"
            },
            {
              "internalType": "uint256",
              "name": "redemptionRate",
              "type": "uint256"
            },
            {
              "internalType": "string",
              "name": "memo",
              "type": "string"
            },
            {
              "internalType": "bytes",
              "name": "metadata",
              "type": "bytes"
            }
          ],
          "internalType": "struct JBRedeemParamsData",
          "name": "",
          "type": "tuple"
        }
      ],
      "name": "redemptionWeightOf",
      "outputs": [
        {
          "internalType": "uint256",
          "name": "cumulativeWeight",
          "type": "uint256"
        }
      ],
      "stateMutability": "view",
      "type": "function"
    },
    {
      "inputs": [],
      "name": "renounceOwnership",
      "outputs": [],
      "stateMutability": "nonpayable",
      "type": "function"
    },
    {
      "inputs": [
        {
          "internalType": "address",
          "name": "from",
          "type": "address"
        },
        {
          "internalType": "address",
          "name": "to",
          "type": "address"
        },
        {
          "internalType": "uint256",
          "name": "tokenId",
          "type": "uint256"
        }
      ],
      "name": "safeTransferFrom",
      "outputs": [],
      "stateMutability": "nonpayable",
      "type": "function"
    },
    {
      "inputs": [
        {
          "internalType": "address",
          "name": "from",
          "type": "address"
        },
        {
          "internalType": "address",
          "name": "to",
          "type": "address"
        },
        {
          "internalType": "uint256",
          "name": "tokenId",
          "type": "uint256"
        },
        {
          "internalType": "bytes",
          "name": "data",
          "type": "bytes"
        }
      ],
      "name": "safeTransferFrom",
      "outputs": [],
      "stateMutability": "nonpayable",
      "type": "function"
    },
    {
      "inputs": [
        {
          "internalType": "address",
          "name": "operator",
          "type": "address"
        },
        {
          "internalType": "bool",
          "name": "approved",
          "type": "bool"
        }
      ],
      "name": "setApprovalForAll",
      "outputs": [],
      "stateMutability": "nonpayable",
      "type": "function"
    },
    {
      "inputs": [
        {
          "internalType": "address",
          "name": "_delegatee",
          "type": "address"
        },
        {
          "internalType": "uint256",
          "name": "_tierId",
          "type": "uint256"
        }
      ],
      "name": "setTierDelegateTo",
      "outputs": [],
      "stateMutability": "nonpayable",
      "type": "function"
    },
    {
      "inputs": [
        {
          "components": [
            {
              "internalType": "address",
              "name": "delegatee",
              "type": "address"
            },
            {
              "internalType": "uint256",
              "name": "tierId",
              "type": "uint256"
            }
          ],
          "internalType": "struct JBTiered721SetTierDelegatesData[]",
          "name": "_setTierDelegatesData",
          "type": "tuple[]"
        }
      ],
      "name": "setTierDelegatesTo",
      "outputs": [],
      "stateMutability": "nonpayable",
      "type": "function"
    },
    {
      "inputs": [
        {
          "components": [
            {
              "internalType": "uint256",
              "name": "id",
              "type": "uint256"
            },
            {
              "internalType": "uint256",
              "name": "redemptionWeight",
              "type": "uint256"
            }
          ],
          "internalType": "struct DefifaTierRedemptionWeight[]",
          "name": "_tierWeights",
          "type": "tuple[]"
        }
      ],
      "name": "setTierRedemptionWeightsTo",
      "outputs": [],
      "stateMutability": "nonpayable",
      "type": "function"
    },
    {
      "inputs": [],
      "name": "store",
      "outputs": [
        {
          "internalType": "contract IJBTiered721DelegateStore",
          "name": "",
          "type": "address"
        }
      ],
      "stateMutability": "view",
      "type": "function"
    },
    {
      "inputs": [
        {
          "internalType": "bytes4",
          "name": "_interfaceId",
          "type": "bytes4"
        }
      ],
      "name": "supportsInterface",
      "outputs": [
        {
          "internalType": "bool",
          "name": "",
          "type": "bool"
        }
      ],
      "stateMutability": "view",
      "type": "function"
    },
    {
      "inputs": [],
      "name": "symbol",
      "outputs": [
        {
          "internalType": "string",
          "name": "",
          "type": "string"
        }
      ],
      "stateMutability": "view",
      "type": "function"
    },
    {
      "inputs": [
        {
          "internalType": "uint256",
          "name": "_tierId",
          "type": "uint256"
        }
      ],
      "name": "tierNameOf",
      "outputs": [
        {
          "internalType": "string",
          "name": "",
          "type": "string"
        }
      ],
      "stateMutability": "view",
      "type": "function"
    },
    {
      "inputs": [],
      "name": "tierRedemptionWeights",
      "outputs": [
        {
          "internalType": "uint256[128]",
          "name": "",
          "type": "uint256[128]"
        }
      ],
      "stateMutability": "view",
      "type": "function"
    },
    {
      "inputs": [],
      "name": "tokenAllocations",
      "outputs": [
        {
          "internalType": "uint256",
          "name": "defifaTokenAllocation",
          "type": "uint256"
        },
        {
          "internalType": "uint256",
          "name": "baseProtocolTokenAllocation",
          "type": "uint256"
        }
      ],
      "stateMutability": "view",
      "type": "function"
    },
    {
      "inputs": [
        {
          "internalType": "uint256",
          "name": "_tokenId",
          "type": "uint256"
        }
      ],
      "name": "tokenURI",
      "outputs": [
        {
          "internalType": "string",
          "name": "",
          "type": "string"
        }
      ],
      "stateMutability": "view",
      "type": "function"
    },
    {
      "inputs": [
        {
          "internalType": "uint256[]",
          "name": "_tokenIds",
          "type": "uint256[]"
        }
      ],
      "name": "tokensClaimableFor",
      "outputs": [
        {
          "internalType": "uint256",
          "name": "defifaTokenAmount",
          "type": "uint256"
        },
        {
          "internalType": "uint256",
          "name": "baseProtocolTokenAmount",
          "type": "uint256"
        }
      ],
      "stateMutability": "view",
      "type": "function"
    },
    {
      "inputs": [
        {
          "internalType": "uint256",
          "name": "",
          "type": "uint256"
        }
      ],
      "name": "tokensRedeemedFrom",
      "outputs": [
        {
          "internalType": "uint256",
          "name": "",
          "type": "uint256"
        }
      ],
      "stateMutability": "view",
      "type": "function"
    },
    {
      "inputs": [
        {
          "components": [
            {
              "internalType": "contract IJBPaymentTerminal",
              "name": "terminal",
              "type": "address"
            },
            {
              "internalType": "address",
              "name": "holder",
              "type": "address"
            },
            {
              "internalType": "uint256",
              "name": "projectId",
              "type": "uint256"
            },
            {
              "internalType": "uint256",
              "name": "currentFundingCycleConfiguration",
              "type": "uint256"
            },
            {
              "internalType": "uint256",
              "name": "tokenCount",
              "type": "uint256"
            },
            {
              "internalType": "uint256",
              "name": "totalSupply",
              "type": "uint256"
            },
            {
              "internalType": "uint256",
              "name": "overflow",
              "type": "uint256"
            },
            {
              "components": [
                {
                  "internalType": "address",
                  "name": "token",
                  "type": "address"
                },
                {
                  "internalType": "uint256",
                  "name": "value",
                  "type": "uint256"
                },
                {
                  "internalType": "uint256",
                  "name": "decimals",
                  "type": "uint256"
                },
                {
                  "internalType": "uint256",
                  "name": "currency",
                  "type": "uint256"
                }
              ],
              "internalType": "struct JBTokenAmount",
              "name": "reclaimAmount",
              "type": "tuple"
            },
            {
              "internalType": "bool",
              "name": "useTotalOverflow",
              "type": "bool"
            },
            {
              "internalType": "uint256",
              "name": "redemptionRate",
              "type": "uint256"
            },
            {
              "internalType": "string",
              "name": "memo",
              "type": "string"
            },
            {
              "internalType": "bytes",
              "name": "metadata",
              "type": "bytes"
            }
          ],
          "internalType": "struct JBRedeemParamsData",
          "name": "",
          "type": "tuple"
        }
      ],
      "name": "totalRedemptionWeight",
      "outputs": [
        {
          "internalType": "uint256",
          "name": "",
          "type": "uint256"
        }
      ],
      "stateMutability": "view",
      "type": "function"
    },
    {
      "inputs": [
        {
          "internalType": "address",
          "name": "from",
          "type": "address"
        },
        {
          "internalType": "address",
          "name": "to",
          "type": "address"
        },
        {
          "internalType": "uint256",
          "name": "tokenId",
          "type": "uint256"
        }
      ],
      "name": "transferFrom",
      "outputs": [],
      "stateMutability": "nonpayable",
      "type": "function"
    },
    {
      "inputs": [
        {
          "internalType": "address",
          "name": "newOwner",
          "type": "address"
        }
      ],
      "name": "transferOwnership",
      "outputs": [],
      "stateMutability": "nonpayable",
      "type": "function"
    }
  ],
  "bytecode": {
    "object": "0x60e0346200011457601f6200647f38819003918201601f19168301916001600160401b038311848410176200011957808492604094855283398101031262000114576200005a602062000052836200012f565b92016200012f565b60078054336001600160a01b0319821681179092556040519391906001600160a01b03167f8be0079c531659141344cd1fd0a4f28419497f9722a3daafe3b4186f6b6457e0600080a33060c05260805260a05261633a9081620001458239608051818181611462015281816129d20152818161300401528181614785015261487b015260a05181818161092f0152818161296201528181613059015281816147ec01526148c6015260c051818181610a3001526138fa0152f35b600080fd5b634e487b7160e01b600052604160045260246000fd5b51906001600160a01b0382168203620001145756fe6080604052600436101561001257600080fd5b60003560e01c806301ffc9a71461039757806306fdde031461039257806307405b241461038d578063081812fc14610388578063095ea7b3146103835780631417f9f61461037e5780631baabc3e146103795780631d153ca41461037457806323b872dd1461036f57806327f6e9791461036a5780632a596e53146103655780632b13c58f146103605780633900c6f91461035b5780633b2b8a78146103565780633fafa1271461035157806342842e0e1461034c5780634f228e111461034757806354c6d1f514610342578063557e71551461033d5780636352211e14610338578063640abacd1461033357806364640c1e1461032e5780636c0360eb1461032957806370a0823114610324578063715018a61461031f5780637245d80c1461031a578063743682b5146103155780637ba62bf9146103105780637f9898871461030b5780638da5cb5b1461030657806392eb1641146103015780639494bf72146102fc57806395d89b41146102f7578063975057e7146102f25780639c8c6cd5146102ed5780639df45468146102e8578063a0b6490c146102e3578063a22cb465146102de578063a51cfd18146102d9578063a8c15f4a146102d4578063aa4fb15b146102cf578063b88d4fde146102ca578063c3c69a96146102c5578063c41c2f24146102c0578063c87b56dd146102bb578063c90f5126146102b6578063cb7043f7146102b1578063d46cf171146102ac578063d9119f5f146102a7578063da9ee8b7146102a2578063e8a3d4851461029d578063e985e9c514610298578063ea1c1b2514610293578063f2fde38b1461028e578063f7623b81146102895763fadd72b71461028457600080fd5b61245e565b612403565b61235c565b61230e565b6122a4565b6121fd565b6120e5565b6120b7565b611ffb565b611f55565b611ea3565b611d7a565b611d53565b611cf7565b611c8f565b611c70565b611c4d565b611bc3565b611af5565b611ace565b611a49565b6119fc565b6119d5565b611930565b61190f565b6118e4565b6118bd565b611896565b61183f565b6117b5565b61178e565b611732565b611689565b6115e2565b61158a565b611567565b611549565b611522565b611504565b6114de565b6114a4565b611486565b611442565b611347565b610b84565b610ac5565b610aa7565b610a80565b610a10565b610953565b61090f565b610824565b6107f5565b6106fd565b6105f2565b6103b3565b6001600160e01b03198116036103ae57565b600080fd5b346103ae5760206003193601126103ae576104026001600160e01b03196004356103dc8161039c565b1663f6de42df60e01b8114908115610406575b5060405190151581529081906020820190565b0390f35b7ffbb38e0300000000000000000000000000000000000000000000000000000000811491508115610561575b8115610537575b811561050d575b81156104e3575b8115610455575b50386103ef565b7f80ac58cd000000000000000000000000000000000000000000000000000000008114915081156104b9575b811561048f575b503861044e565b7f01ffc9a70000000000000000000000000000000000000000000000000000000091501438610488565b7f5b5e139f0000000000000000000000000000000000000000000000000000000081149150610481565b7f2a55205a0000000000000000000000000000000000000000000000000000000081149150610447565b7f2b13c58f0000000000000000000000000000000000000000000000000000000081149150610440565b7fda9ee8b70000000000000000000000000000000000000000000000000000000081149150610439565b7f71700c690000000000000000000000000000000000000000000000000000000081149150610432565b60009103126103ae57565b60005b8381106105a95750506000910152565b8181015183820152602001610599565b90601f19601f6020936105d781518092818752878088019101610596565b0116010190565b9060206105ef9281815201906105b9565b90565b346103ae576000806003193601126106ce5760405190808054610614816115a8565b808552916001918083169081156106a4575060011461064a575b6104028561063e81870382610fd0565b604051918291826105de565b80809450527f290decd9548b62a8d60345a988386fc84ba6bc95484008f6362f93160ef3e5635b82841061068c57505050810160200161063e8261040261062e565b80546020858701810191909152909301928101610671565b8695506104029693506020925061063e94915060ff191682840152151560051b820101929361062e565b80fd5b6001600160a01b038116036103ae57565b6101a435906106f0826106d1565b565b35906106f0826106d1565b346103ae5760406003193601126103ae5760043561071a816106d1565b61076460206107406107346090546001600160a01b031690565b6001600160a01b031690565b60055490604051808095819463038ab08560e11b8352600483019190602083019252565b03915afa80156107f0576001916000916107c2575b5061078381612b74565b03610798576107969060243590336143db565b005b60046040517ff331f3c1000000000000000000000000000000000000000000000000000000008152fd5b6107e3915060203d81116107e9575b6107db8183610fd0565b810190612b5c565b38610779565b503d6107d1565b612532565b346103ae5760206003193601126103ae5760206108136004356149ba565b6001600160a01b0360405191168152f35b346103ae5760406003193601126103ae57600435610841816106d1565b6024356001600160a01b038061085683614970565b1680918416146108e5578033141590816108a3575b5061087957610796916153c6565b60046040517fe5fa0e35000000000000000000000000000000000000000000000000000000008152fd5b905060005260046020526108df6108db6108d4336040600020906001600160a01b0316600052602052604060002090565b5460ff1690565b1590565b3861086b565b60046040517f133f8be9000000000000000000000000000000000000000000000000000000008152fd5b346103ae5760006003193601126103ae5760206040516001600160a01b037f0000000000000000000000000000000000000000000000000000000000000000168152f35b346103ae576020806003193601126103ae576000906004358252608d815260408220906040519183815490610987826115a8565b808652926001928084169081156109ec57506001146109b1575b6104028661063e818a0382610fd0565b9080949650528483205b8284106109d957505050816104029361063e928201019338806109a1565b80548585018701529285019281016109bb565b60ff19168787015250505050151560051b820101915061063e8161040238806109a1565b346103ae5760006003193601126103ae5760206040516001600160a01b037f0000000000000000000000000000000000000000000000000000000000000000168152f35b60031960609101126103ae57600435610a6c816106d1565b90602435610a79816106d1565b9060443590565b346103ae57610a8e36610a54565b90610a998233614a50565b156108795761079692615119565b346103ae5760006003193601126103ae576020609754604051908152f35b346103ae576020806003193601126103ae576004359067ffffffffffffffff908183116103ae57366023840112156103ae5782600401359182116103ae57602490600693368385871b830101116103ae5760005b848110610b2257005b600190610b44610b383687848b1b870101612436565b85815191015190613bf9565b01610b19565b90816101e09103126103ae5790565b60206003198201126103ae576004359067ffffffffffffffff82116103ae576105ef91600401610b4a565b610b8d36610b59565b3415801590610eb2575b8015610ea2575b610e785760a08101358015610e4e576101c082016024610bbe8285612a2d565b9050108015610e18575b610dee57610bd9610be19184612a2d565b810190612b21565b929150508151610bfc6107346090546001600160a01b031690565b906005549160408051809263038ab08560e11b825260209384918180610c2b60049a8b83019190602083019252565b03915afa80156107f0578591600091610dd1575b50610c4981612b74565b149360005b848110610c8e575050505050610c6383614682565b610c6957005b61079692610c84610c7f610c8993609754612620565b609755565b614295565b614721565b610c9881896125e3565b5190610cbe610cb1836000526002602052604060002090565b546001600160a01b031690565b6001600160a01b03610cd26107348d614295565b911603610da9578487610ce484614f3f565b610cf4575b506001915001610c4e565b610d4492610d0d610734608e546001600160a01b031690565b865180809681947f42f9914b0000000000000000000000000000000000000000000000000000000083528983019190602083019252565b03915afa9182156107f057600192610d6f91600091610d7c575b506000526098602052604060002090565b8054600101905584610ce9565b610d9c9150873d8911610da2575b610d948183610fd0565b810190612523565b38610d5e565b503d610d8a565b8284517f075fd2b1000000000000000000000000000000000000000000000000000000008152fd5b610de89150843d86116107e9576107db8183610fd0565b38610c3f565b60046040517f2a84050f000000000000000000000000000000000000000000000000000000008152fd5b5063f6de42df60e01b6001600160e01b0319610e46610e40610e3a8588612a2d565b90612a7e565b90612aa0565b161415610bc8565b60046040517f76914729000000000000000000000000000000000000000000000000000000008152fd5b60046040517f7df94b86000000000000000000000000000000000000000000000000000000008152fd5b5060055460208201351415610b9e565b50610f136020610ecd6107346006546001600160a01b031690565b6005546040517f6e49181f000000000000000000000000000000000000000000000000000000008152600481019190915233602482015292839190829081906044820190565b03915afa9081156107f057600091610f2d575b5015610b97565b610f4e915060203d8111610f54575b610f468183610fd0565b810190614280565b38610f26565b503d610f3c565b602435906106f0826106d1565b634e487b7160e01b600052604160045260246000fd5b6040810190811067ffffffffffffffff821117610f9a57604052565b610f68565b67ffffffffffffffff8111610f9a57604052565b611000810190811067ffffffffffffffff821117610f9a57604052565b90601f601f19910116810190811067ffffffffffffffff821117610f9a57604052565b60405190610160820182811067ffffffffffffffff821117610f9a57604052565b604051906106f082610f7e565b60405190610180820182811067ffffffffffffffff821117610f9a57604052565b60405190610120820182811067ffffffffffffffff821117610f9a57604052565b67ffffffffffffffff8111610f9a57601f01601f191660200190565b92919261108b82611063565b916110996040519384610fd0565b8294818452818301116103ae578281602093846000960137010152565b9080601f830112156103ae578160206105ef9335910161107f565b608435906106f0826106d1565b60c435906106f0826106d1565b67ffffffffffffffff8111610f9a5760051b60200190565b35906cffffffffffffffffffffffffff821682036103ae57565b359063ffffffff821682036103ae57565b359061ffff821682036103ae57565b359062ffffff821682036103ae57565b801515036103ae57565b35906106f08261114d565b81601f820112156103ae57803590611179826110eb565b9260409061118982519586610fd0565b8385526020918286019183610160809702860101948186116103ae578401925b8584106111ba575050505050505090565b86848303126103ae578487916111ce610ff3565b6111d787611103565b81526111e483880161111d565b838201526111f386880161111d565b86820152606061120481890161112e565b9082015260806112158189016106f2565b9082015260a0808801359082015260c061123081890161113d565b9082015260e0611241818901611157565b90820152610100611253818901611157565b90820152610120611265818901611157565b90820152610140611277818901611157565b908201528152019301926111a9565b610124359065ffffffffffff821682036103ae57565b61014435906106f0826106d1565b61016435906106f0826106d1565b61018435906106f0826106d1565b9080601f830112156103ae578135906112de826110eb565b926112ec6040519485610fd0565b828452602092838086019160051b830101928084116103ae57848301915b84831061131a5750505050505090565b823567ffffffffffffffff81116103ae57869161133c848480948901016110b6565b81520192019161130a565b346103ae576101e06003193601126103ae57611361610f5b565b60443567ffffffffffffffff918282116103ae57611384600492369084016110b6565b6064358481116103ae5761139b90369085016110b6565b6113a36110d1565b60a4358681116103ae576113ba90369087016110b6565b6113c26110de565b60e4358881116103ae576113d990369089016110b6565b610104358981116103ae576113f19036908a01611162565b916113fa611286565b9361140361129c565b9561140c6112aa565b976114156112b8565b9961141e6106e2565b9b6101c4359e8f116103ae5761143b6107969f8f903691016112c6565b9d356138e0565b346103ae5760006003193601126103ae5760206040516001600160a01b037f0000000000000000000000000000000000000000000000000000000000000000168152f35b346103ae5760006003193601126103ae576020600554604051908152f35b346103ae576114b236610a54565b60405191602083019383851067ffffffffffffffff861117610f9a5761079694604052600084526149f9565b346103ae5760206003193601126103ae5760206114fc6004356127a3565b604051908152f35b346103ae5760206003193601126103ae5760206108136004356124f1565b346103ae5760006003193601126103ae5760206001600160a01b03608f5416604051908152f35b346103ae5760206003193601126103ae576020610813600435614970565b346103ae5760006003193601126103ae576020604051670de0b6b3a76400008152f35b346103ae5760006003193601126103ae576020609254604051908152f35b90600182811c921680156115d8575b60208310146115c257565b634e487b7160e01b600052602260045260246000fd5b91607f16916115b7565b346103ae576000806003193601126106ce576040519080609454611605816115a8565b808552916001918083169081156106a4575060011461162e576104028561063e81870382610fd0565b9250609483527f7047a3cc0a76edcee45792ca71527c753f6167484f14b94c4a3bd2997516725c5b82841061167157505050810160200161063e8261040261062e565b80546020858701810191909152909301928101611656565b346103ae5760206003193601126103ae576004356116a6816106d1565b60206001600160a01b03604481608e54169360405194859384927ff7888aec0000000000000000000000000000000000000000000000000000000084523060048501521660248301525afa80156107f05761040291600091611714575b506040519081529081906020820190565b61172c915060203d8111610da257610d948183610fd0565b38611703565b346103ae576000806003193601126106ce5761174c615ca3565b806001600160a01b036007546001600160a01b03198116600755167f8be0079c531659141344cd1fd0a4f28419497f9722a3daafe3b4186f6b6457e08280a380f35b346103ae5760006003193601126103ae5760206001600160a01b0360915416604051908152f35b346103ae5760206003193601126103ae5760043560005260986020526020604060002054604051908152f35b81601f820112156103ae578035916117f8836110eb565b926118066040519485610fd0565b808452602092838086019260051b8201019283116103ae578301905b828210611830575050505090565b81358152908301908301611822565b346103ae5760406003193601126103ae5767ffffffffffffffff6004358181116103ae576118719036906004016117e1565b906024359081116103ae576020916118906114fc923690600401610b4a565b5061262d565b346103ae5760006003193601126103ae5760206001600160a01b0360965416604051908152f35b346103ae5760006003193601126103ae5760206001600160a01b0360075416604051908152f35b346103ae5760006003193601126103ae576118fd612911565b60408051928352602083019190915290f35b346103ae5761191d36610b59565b506020604051670de0b6b3a76400008152f35b346103ae576000806003193601126106ce5760405190806001805491611955836115a8565b808652928281169081156106a4575060011461197b576104028561063e81870382610fd0565b92508083527fb10e2d527612073b26eecdfd717e6a320cf44b4afac2b0732d9fcbe2b7fa0cf65b8284106119bd57505050810160200161063e8261040261062e565b805460208587018101919091529093019281016119a2565b346103ae5760006003193601126103ae5760206001600160a01b03608e5416604051908152f35b346103ae5760406003193601126103ae576020600435611a1b816106d1565b6001600160a01b03809116600052608882526040600020602435600052825260406000205416604051908152f35b346103ae5760006003193601126103ae57604051611a6681610fb3565b611000809136903760405160086000825b60808210611ab857505050611a8b81610fb3565b60405190600090825b60808310611aa157505050f35b600190825181526020809101920192019190611a94565b6001602081928554815201930191019091611a77565b346103ae5760006003193601126103ae5760206001600160a01b0360905416604051908152f35b346103ae5760406003193601126103ae57600435611b12816106d1565b602435611b1e8161114d565b6001600160a01b03821691823314611b9957611b5a903360005260046020526040600020906001600160a01b0316600052602052604060002090565b9015159060ff1981541660ff83161790556040519081527f17307eab39ab6107e8899845ad3d59bd9653f200f220920489ca2b5937696c3160203392a3005b60046040517f0df0273a000000000000000000000000000000000000000000000000000000008152fd5b346103ae57611bd9611bd436610b59565b612b94565b604092919280519384938452611bfb60209160608387015260608601906105b9565b90848203838601528080855193848152019401926000905b838210611c205786860387f35b845180516001600160a01b0316875283015186840152879650948501949382019360019190910190611c13565b346103ae5760006003193601126103ae57602060ff609354166040519015158152f35b346103ae5760406003193601126103ae57610796602435600435613bf9565b346103ae5760806003193601126103ae57600435611cac816106d1565b602435611cb8816106d1565b6064359167ffffffffffffffff83116103ae57366023840112156103ae57611ced61079693369060248160040135910161107f565b91604435916149f9565b346103ae5760406003193601126103ae576001600160a01b03600435611d1c816106d1565b166000526089602052604060002060243560005260205260206001600160e01b03611d4a6040600020615f1a565b16604051908152f35b346103ae5760006003193601126103ae5760206001600160a01b0360065416604051908152f35b346103ae5760206003193601126103ae57611da0610734608e546001600160a01b031690565b6040517f0fab094700000000000000000000000000000000000000000000000000000000815230600482015290602090829060249082905afa9081156107f057600091611e75575b506040517f5e703e710000000000000000000000000000000000000000000000000000000081523060048083019190915235602482015290600090829060449082906001600160a01b03165afa80156107f05761040291600091611e54575b50604051918291826105de565b611e6f913d8091833e611e678183610fd0565b810190612595565b38611e47565b611e96915060203d8111611e9c575b611e8e8183610fd0565b81019061253e565b38611de8565b503d611e84565b346103ae576020806003193601126103ae576004359067ffffffffffffffff82116103ae57366023830112156103ae57816004013591611ee2836110eb565b91604093611ef285519485610fd0565b80845260248285019160061b840101923684116103ae57602401905b838210611f1e576107968561429f565b85823603126103ae578286918251611f3581610f7e565b8435611f40816106d1565b81528285013583820152815201910190611f0e565b346103ae5760206003193601126103ae5760043567ffffffffffffffff81116103ae57611f896118fd9136906004016117e1565b612ed5565b91908252611fa860209160608385015260608401906105b9565b90604092838184039101528080855193848152019401926000905b838210611fd257505050505090565b845180516001600160a01b03168752830151868401529485019493820193600190910190611fc3565b346103ae57602060031981813601126103ae576004359067ffffffffffffffff82116103ae576101a09082360301126103ae57612049612042610164830183600401612a2d565b369161107f565b6040519061205682610f7e565b6001825260005b8481106120a157509061040291610124946000612078611014565b30815291820152612088836125d1565b52612092826125d1565b50604051948594013584611f8e565b84906120ab612acc565b8282860101520161205d565b346103ae5760406003193601126103ae57600435600052608a60205260206114fc6024356040600020615d43565b6003196020813601126103ae576004359067ffffffffffffffff82116103ae576102009082360301126103ae57600554341590811591612171575b8115612162575b506121385761079690600401615767565b60046040517fc715ec6c000000000000000000000000000000000000000000000000000000008152fd5b90506024820135141538612127565b90506121886107346006546001600160a01b031690565b6040517f6e49181f0000000000000000000000000000000000000000000000000000000081526004810183905233602482015290602090829060449082905afa9081156107f0576000916121df575b501590612120565b6121f7915060203d8111610f5457610f468183610fd0565b386121d7565b346103ae576000806003193601126106ce576040519080609554612220816115a8565b808552916001918083169081156106a45750600114612249576104028561063e81870382610fd0565b9250609583527f947035e97d0f7e1937f791bc189f60c984ceaaa7a8494fc67f9f8f4de8ccf2c65b82841061228c57505050810160200161063e8261040261062e565b80546020858701810191909152909301928101612271565b346103ae5760406003193601126103ae57602060ff6123026004356122c8816106d1565b6001600160a01b03602435916122dd836106d1565b16600052600484526040600020906001600160a01b0316600052602052604060002090565b54166040519015158152f35b346103ae5760606003193601126103ae576001600160a01b03600435612333816106d1565b166000526089602052604060002060243560005260205260206114fc6044356040600020615d43565b346103ae5760206003193601126103ae57600435612379816106d1565b612381615ca3565b6001600160a01b038116156123995761079690615cfb565b608460405162461bcd60e51b815260206004820152602660248201527f4f776e61626c653a206e6577206f776e657220697320746865207a65726f206160448201527f64647265737300000000000000000000000000000000000000000000000000006064820152fd5b346103ae5760206003193601126103ae57600435600052608a60205260206001600160e01b03611d4a6040600020615f1a565b91908260409103126103ae5760405161244e81610f7e565b6020808294803584520135910152565b346103ae576020806003193601126103ae576004359067ffffffffffffffff82116103ae57366023830112156103ae5781600401359161249d836110eb565b916040936124ad85519485610fd0565b80845260248285019160061b840101923684116103ae57602401905b8382106124d95761079685613f25565b8286916124e63685612436565b8152019101906124c9565b600052608c6020526001600160a01b0380604060002054168061251e575060026020526040600020541690565b905090565b908160209103126103ae575190565b6040513d6000823e3d90fd5b908160209103126103ae57516105ef816106d1565b81601f820112156103ae57805161256981611063565b926125776040519485610fd0565b818452602082840101116103ae576105ef9160208085019101610596565b906020828203126103ae57815167ffffffffffffffff81116103ae576105ef9201612553565b634e487b7160e01b600052603260045260246000fd5b8051156125de5760200190565b6125bb565b80518210156125de5760209160051b010190565b634e487b7160e01b600052601160045260246000fd5b906001820180921161261b57565b6125f7565b9190820180921161261b57565b9060009180516000915b81831061264357505050565b90919361265961265386846125e3565b516127a3565b810180911161261b57936001019190612637565b51906106f0826106d1565b51906106f08261114d565b6020818303126103ae57805167ffffffffffffffff918282116103ae5701610180818403126103ae576126b4611021565b92815184526020820151602085015260408201516040850152606082015160608501526080820151608085015260a082015160a08501526126f760c0830161266d565b60c085015260e082015160e0850152610100808301519085015261012061271f818401612678565b90850152610140612731818401612678565b9085015261016092838301519081116103ae5761274e9201612553565b9082015290565b90600019820191821161261b57565b9190820391821161261b57565b60808110156125de5760080190600090565b811561278d570490565b634e487b7160e01b600052601260045260246000fd5b6127f660206127bd610734608e546001600160a01b031690565b92604051809381927f42f9914b000000000000000000000000000000000000000000000000000000008352600483019190602083019252565b0381855afa9081156107f0576000916128f3575b506040516364faa15960e01b8152306004820152602481018290526000604482018190529092839060649082905afa9182156107f0576000926128d0575b5061286761285d61285883612755565b612771565b90549060031b1c90565b9081156128c857606083019061288560408351950194855190612764565b156128bf576128b26128a16105ef956128b99451905190612764565b916000526098602052604060002090565b5490612620565b90612783565b50505050600090565b505050600090565b6128ec91923d8091833e6128e48183610fd0565b810190612683565b9038612848565b61290b915060203d8111610da257610d948183610fd0565b3861280a565b608b54608081901c91906fffffffffffffffffffffffffffffffff16600081156129b457505b9160008115612944575090565b6040516370a0823160e01b81523060048201529091506020816024817f00000000000000000000000000000000000000000000000000000000000000006001600160a01b03165afa9182156107f0579161299c575090565b6105ef915060203d8111610da257610d948183610fd0565b6040516370a0823160e01b81523060048201529091506020816024817f00000000000000000000000000000000000000000000000000000000000000006001600160a01b03165afa9182156107f05791612a0f575b50612937565b612a27915060203d8111610da257610d948183610fd0565b38612a09565b9035907fffffffffffffffffffffffffffffffffffffffffffffffffffffffffffffffe1813603018212156103ae570180359067ffffffffffffffff82116103ae576020019181360383136103ae57565b906024116103ae5760200190600490565b906044116103ae5760400190600490565b6001600160e01b03199035818116939260048110612abd57505050565b60040360031b82901b16169150565b60405190612ad982610f7e565b60006020838281520152565b60405190612af282610f7e565b600182528160005b60209081811015612b1c57602091612b10612acc565b90828501015201612afa565b505050565b916060838303126103ae578235926020810135612b3d8161039c565b92604082013567ffffffffffffffff81116103ae576105ef92016117e1565b908160209103126103ae575160078110156103ae5790565b60071115612b7e57565b634e487b7160e01b600052602160045260246000fd5b90600090816080840135612e1c576101c08401906024612bb48387612a2d565b9050108015612df2575b610dee57612bca612ae5565b93612bff610bd9612bd9611014565b308152946020958487820152612bee896125d1565b52612bf8886125d1565b5088612a2d565b94915050612c186107346090546001600160a01b031690565b91604088838251809663038ab08560e11b82528180612c438760049701358783019190602083019252565b03915afa9485156107f0578395612dd3575b50612c5f85612b74565b600194858114908115612dbe575b8115612da9575b8115612d95575b50612cbf57505050505050612042612caf612cbb92612ca9612ca360975460c08a0135612620565b9161262d565b90616199565b946101a0810190612a2d565b9190565b9498959291908351938296612cdf610734608e546001600160a01b031690565b915b868910612d0357505050505050505050612042816101a0612cbb930190612a2d565b90919293949596979b612d519086612d1b8f856125e3565b5187518094819263c44a8e6d60e01b83523089840160409060009294936001600160a01b03606083019616825260208201520152565b0381885afa9182156107f0578a9289918991612d7b575b500151019c019796959493929190612ce1565b612d8f91503d808b833e6128e48183610fd0565b38612d68565b60059150612da281612b74565b1438612c7b565b9050612db481612b74565b6006811490612c74565b9050612dc981612b74565b6002811490612c6d565b612deb919550843d86116107e9576107db8183610fd0565b9338612c55565b5063f6de42df60e01b6001600160e01b0319612e14610e40610e3a868a612a2d565b161415612bbe565b60046040517f4fc178d8000000000000000000000000000000000000000000000000000000008152fd5b908160609103126103ae5780519160406020830151612e64816106d1565b92015190565b60405190610180820182811067ffffffffffffffff821117610f9a57604052606061016083600080825280602083015280604083015280848301528060808301528060a08301528060c08301528060e083015280610100830152806101208301526101408201520152565b90612ede612911565b81939115806131e1575b6131d557612f016107346091546001600160a01b031690565b90600554906040958651947fb4dfb08600000000000000000000000000000000000000000000000000000000865260049460608780612f50888a83016020600191939293604081019481520152565b0381845afa9485156107f057612fa4976000966131a3575b50895180927ff2ae5f6e000000000000000000000000000000000000000000000000000000008252818060209b8c958c83019190602083019252565b03915afa80156107f057612fc191600091613186575b5085612764565b6130c1575050505083516370a0823160e01b9182825281612ff4308383019190916001600160a01b036020820193169052565b0384836001600160a01b039281847f0000000000000000000000000000000000000000000000000000000000000000165afa9384156107f0576130559486946000916130a4575b509751908152309281019283529384928391829160200190565b03917f0000000000000000000000000000000000000000000000000000000000000000165afa9182156107f05760009261308e57505090565b6105ef9250803d10610da257610d948183610fd0565b6130bb9150853d8711610da257610d948183610fd0565b3861303b565b9391949092968451906130d2612e6a565b5060009586946130ed610734608e546001600160a01b031690565b915b8487106131245750505050505050906131186105ef939261311e6097549184613118848b612620565b91616246565b96612620565b9091929394959761313b906000612d1b8b856125e3565b0381885afa9081156107f057886131609260019460009161316d575b50015190612620565b98019594939291906130ef565b613180913d8091833e6128e48183610fd0565b38613157565b61319d9150883d8a11610da257610d948183610fd0565b38612fba565b6131c591965060603d81116131ce575b6131bd8183610fd0565b810190612e46565b50509438612f68565b503d6131b3565b50509050600090600090565b508015612ee8565b601f81116131f5575050565b6000908180527f290decd9548b62a8d60345a988386fc84ba6bc95484008f6362f93160ef3e563906020601f850160051c8301941061324f575b601f0160051c01915b82811061324457505050565b818155600101613238565b909250829061322f565b601f8111613265575050565b600090609482527f7047a3cc0a76edcee45792ca71527c753f6167484f14b94c4a3bd2997516725c906020601f850160051c830194106132c0575b601f0160051c01915b8281106132b557505050565b8181556001016132a9565b90925082906132a0565b601f81116132d6575050565b600090609582527f947035e97d0f7e1937f791bc189f60c984ceaaa7a8494fc67f9f8f4de8ccf2c6906020601f850160051c83019410613331575b601f0160051c01915b82811061332657505050565b81815560010161331a565b9092508290613311565b90601f8211613348575050565b6001916000908382527fb10e2d527612073b26eecdfd717e6a320cf44b4afac2b0732d9fcbe2b7fa0cf6906020601f850160051c830194106133a5575b601f0160051c01915b82811061339b5750505050565b818155830161338e565b9092508290613385565b90601f81116133bd57505050565b600091825260208220906020601f850160051c830194106133f9575b601f0160051c01915b8281106133ee57505050565b8181556001016133e2565b90925082906133d9565b90815167ffffffffffffffff8111610f9a57613429816134246094546115a8565b613259565b602080601f83116001146134645750819293600092613459575b50506000198260011b9260031b1c191617609455565b015190503880613443565b90601f1983169461349760946000527f7047a3cc0a76edcee45792ca71527c753f6167484f14b94c4a3bd2997516725c90565b926000905b8782106134d45750508360019596106134bb575b505050811b01609455565b015160001960f88460031b161c191690553880806134b0565b8060018596829496860151815501950193019061349c565b90815167ffffffffffffffff8111610f9a576135128161350d6095546115a8565b6132ca565b602080601f831160011461354d5750819293600092613542575b50506000198260011b9260031b1c191617609555565b01519050388061352c565b90601f1983169461358060956000527f947035e97d0f7e1937f791bc189f60c984ceaaa7a8494fc67f9f8f4de8ccf2c690565b926000905b8782106135bd5750508360019596106135a4575b505050811b01609555565b015160001960f88460031b161c19169055388080613599565b80600185968294968601518155019501930190613585565b90815167ffffffffffffffff8111610f9a576001906135fd816135f884546115a8565b61333b565b602080601f831160011461363757508192939460009261362c575b505060001982841b9260031b1c1916179055565b015190503880613618565b90601f1983169561366a60016000527fb10e2d527612073b26eecdfd717e6a320cf44b4afac2b0732d9fcbe2b7fa0cf690565b926000905b8882106136a5575050838596971061368c575b505050811b019055565b015160001960f88460031b161c19169055388080613682565b80878596829496860151815501950193019061366f565b919091825167ffffffffffffffff8111610f9a576136e4816136de84546115a8565b846133af565b602080601f831160011461371f575081929394600092613714575b50506000198260011b9260031b1c1916179055565b0151905038806136ff565b90601f1983169561373585600052602060002090565b926000905b8882106137585750508360019596971061368c57505050811b019055565b8060018596829496860151815501950193019061373a565b81601f820112156103ae57805191613787836110eb565b926137956040519485610fd0565b808452602092838086019260051b8201019283116103ae578301905b8282106137bf575050505090565b815181529083019083016137b1565b906020828203126103ae57815167ffffffffffffffff81116103ae576105ef9201613770565b60208082019080835283518092528060408094019401926000905b83821061381e57505050505090565b9091929394836101606001926138d389516138488382516cffffffffffffffffffffffffff169052565b8085015163ffffffff16838601528087015163ffffffff168388015260608181015161ffff16908401526080818101516001600160a01b03169084015260a0818101519084015260c08082015162ffffff169084015260e081810151151590840152610100818101511515908401526101208181015115159084015261014090810151151590830152565b019601949392019061380f565b90929c95999b9394979a9196989c6001600160a01b039d8e7f00000000000000000000000000000000000000000000000000000000000000001630146103ae578e613936610734608e546001600160a01b031690565b166103ae5761399a8e61397e6139d89961396265ffffffffffff966139f49e6139bc9b6139a09a615591565b6001600160a01b03166001600160a01b0319608f541617608f55565b6001600160a01b03166001600160a01b0319608e541617608e55565b16609255565b6001600160a01b03166001600160a01b03196090541617609055565b6001600160a01b03166001600160a01b03196091541617609155565b6001600160a01b03166001600160a01b03196096541617609655565b8051613b63575b508051613b54575b50838116613acf575b50600091613a4a91836040519586809581947f8da5e32b000000000000000000000000000000000000000000000000000000008352600483016137f4565b0393165af180156107f057613aac575b5080519060005b828110613a74575050506106f033615cfb565b80613aa6613a84600193856125e3565b51613aa1613a918461260d565b600052608d602052604060002090565b6136bc565b01613a61565b613ac8903d806000833e613ac08183610fd0565b8101906137ce565b5038613a5a565b91838116803b156103ae576040517fd84a72c00000000000000000000000000000000000000000000000000000000081526001600160a01b039490941660048501526000908490602490829084905af19182156107f057600093613a4a93613b3b575b50915091613a0c565b80613b48613b4e92610f9f565b8061058b565b38613b32565b613b5d906134ec565b38613a03565b613b6c90613403565b386139fb565b90816101209103126103ae57613b86611042565b90805182526020810151602083015260408101516040830152606081015160608301526080810151608083015260a081015160a083015260c081015160c0830152613bd360e0820161266d565b60e0830152610100809101519082015290565b8181029291811591840414171561261b57565b90613c0f610734608f546001600160a01b031690565b91613c3e60055493604094855180926321d1336160e11b82528180610120968795600483019190602083019252565b03915afa9182156107f057613c6f9260ff9261010092600092613ef8575b5050015160f41c1660018091811c161490565b613ecf57613c88610734608e546001600160a01b031690565b83517f136e651c000000000000000000000000000000000000000000000000000000008152306004820152602481018390529290602090849060449082905afa9283156107f057600093613eaf575b506001600160a01b039081613d15610cb185613d06886001600160a01b03166000526088602052604060002090565b90600052602052604060002090565b1615613e7f575b613d31610734608e546001600160a01b031690565b85517fbaa7e80e000000000000000000000000000000000000000000000000000000008152600481018590526024810183905292906000908490604490829084905af19283156107f057600093613e64575b5060005b828110613e15575050506000613da8610734608e546001600160a01b031690565b94516364faa15960e01b8152306004820152602481018490526000604482015294859060649082905afa9081156107f0576080613df6926106f096600091613dfc575b500151905190613be6565b916144c3565b613e0f913d8091833e6128e48183610fd0565b38613deb565b80613e22600192866125e3565b51613e2d8189614ad1565b88513381528489169188917f031e1988c95a91ec4d655ff63a8f87a80bc9daf28d95ae10ee08c0022cfb5c8b90602090a401613d87565b613e7891933d8091833e613ac08183610fd0565b9138613d83565b6096546001600160a01b03168381841615613ea457613e9f915b866143db565b613d1c565b613e9f915085613e99565b613ec891935060203d8111611e9c57611e8e8183610fd0565b9138613cd7565b600483517fe96092b8000000000000000000000000000000000000000000000000000000008152fd5b613f179250803d10613f1e575b613f0f8183610fd0565b810190613b72565b3880613c5c565b503d613f05565b613f2d615ca3565b613f426107346090546001600160a01b031690565b600554916040918251809163038ab08560e11b825260209283918180613f7160049a8b83019190602083019252565b03915afa9081156107f057600091614263575b50613f8e81612b74565b6003810361423a5760935460ff1661421157613fa981612b74565b600681149081156141fd575b506141d557608e90613fd161073483546001600160a01b031690565b9281855180957ff1bea54f0000000000000000000000000000000000000000000000000000000082528180614018308c83019190916001600160a01b036020820193169052565b03915afa9384156107f0576000946141b6575b5091929060009280519261403d612e6a565b5084955b848710614097575050505050670de0b6b3a76400009150116140715750506106f0600160ff196093541617609355565b517f6ff44e97000000000000000000000000000000000000000000000000000000008152fd5b90919293946140f160006140b561073485546001600160a01b031690565b6140bf8a886125e3565b51518b516364faa15960e01b815230818f01908152602081019290925260006040830152938492918391829160600190565b03915afa9081156107f05760009161419d575b506101008101516141755783815111614175576001916141546141689261413c6128588a6141328e8c6125e3565b5101519251612755565b90919060001983549160031b92831b921b1916179055565b8661415f8a886125e3565b51015190612620565b9601959493929190614041565b8989517f52385374000000000000000000000000000000000000000000000000000000008152fd5b6141b0913d8091833e6128e48183610fd0565b38614104565b6141ce919450823d8411610da257610d948183610fd0565b923861402b565b5050517f6fb84075000000000000000000000000000000000000000000000000000000008152fd5b6005915061420a81612b74565b1438613fb5565b505050517f38101407000000000000000000000000000000000000000000000000000000008152fd5b505050517f03ce4502000000000000000000000000000000000000000000000000000000008152fd5b61427a9150823d84116107e9576107db8183610fd0565b38613f84565b908160209103126103ae57516105ef8161114d565b356105ef816106d1565b6142b46107346090546001600160a01b031690565b6005546040805163038ab08560e11b8152600480820193909352939290916020918290869060249082905afa9485156107f0576000956143bc575b506142f985612b74565b60018095036143955783519361430d612acc565b5060005b8581106143215750505050505050565b61432b81836125e3565b5161434061073482516001600160a01b031690565b1561436d5790614367828661435d8b95516001600160a01b031690565b91015190336143db565b01614311565b8386517f53d304f4000000000000000000000000000000000000000000000000000000008152fd5b82517ff331f3c1000000000000000000000000000000000000000000000000000000008152fd5b6143d4919550823d84116107e9576107db8183610fd0565b93386142ef565b6001600160a01b0390811660008181526088602090815260408083208784528252822080548686166001600160a01b03198216811790925592969195919491939282169291869184847f3134e8a2e6d97e929a7e54011ea5485d7d196dd5f0ba4d4ef95803e8e3fc257f8b80a4608e5416916064604051809481937f2e4d0ea800000000000000000000000000000000000000000000000000000000835230600484015260248301528860448301525afa9485156107f0576106f096956144a4575b5050614554565b6144bb929550803d10610da257610d948183610fd0565b92388061449d565b906106f092916000828152608a6020526144e08460408320615e43565b505060406001600160a01b039182841615614539575b808052608860205281812085825260205261452a838383205416946001600160a01b03166000526088602052604060002090565b85825260205220541690614554565b848152608a60205261454d86838320615ef2565b50506144f6565b9192906001600160a01b0392838216938116848114801561467a575b614672578591816145ff575b5050508261458b575b50505050565b7f26abcd0483bf852c577c9beff4daa5920a203234050413150a0aa946fb598bfa916145cd6145de926001600160a01b03166000526089602052604060002090565b856000526020526040600020615e43565b6040805192835260208301919091523390820152606090a338808080614585565b61461c906001600160a01b03166000526089602052604060002090565b826000526020527f26abcd0483bf852c577c9beff4daa5920a203234050413150a0aa946fb598bfa614652856040600020615ef2565b6040805192835260208301919091523390820152606090a383388061457c565b505050505050565b508315614570565b6001600160a01b03608e5416803b156103ae5760405180927f86bc2be3000000000000000000000000000000000000000000000000000000008252602482016020908160048501528251809152816044850193019160005b82811061470a57505050509181600081819503925af180156107f0576146fd5750565b80613b486106f092610f9f565b8351855287955093810193928101926001016146da565b90608b5415614852575b61473490612ed5565b6040517fa9059cbb000000000000000000000000000000000000000000000000000000008082526001600160a01b0385811660048401526024830194909452602094909391929190858460448160007f000000000000000000000000000000000000000000000000000000000000000087165af180156107f0576147e8958795600092614835575b5060405196879586948593845260048401602090939291936001600160a01b0360408201951681520152565b03927f0000000000000000000000000000000000000000000000000000000000000000165af180156107f05761481c575050565b8161483292903d10610f5457610f468183610fd0565b50565b61484b90873d8911610f5457610f468183610fd0565b50386147bc565b6040516370a0823160e01b808252306004830152602092916001600160a01b03919084816024817f000000000000000000000000000000000000000000000000000000000000000087165afa9182156107f0578591600093614951575b5060405190815230600482015292839060249082907f0000000000000000000000000000000000000000000000000000000000000000165afa9384156107f0576147349461492d937fffffffffffffffffffffffffffffffff0000000000000000000000000000000092600092614934575b505060801b1617608b55565b905061472b565b61494a9250803d10610da257610d948183610fd0565b3880614921565b614969919350823d8411610da257610d948183610fd0565b91386148af565b60005260026020526001600160a01b036040600020541680156149905790565b60046040517fb49aa3b5000000000000000000000000000000000000000000000000000000008152fd5b6149da8160005260026020526001600160a01b0360406000205416151590565b156149905760005260036020526001600160a01b036040600020541690565b929190614a068233614a50565b156108795783614a1a8383614a1f97615119565b6154a4565b15614a2657565b60046040517f6deaf836000000000000000000000000000000000000000000000000000000008152fd5b6001600160a01b0380614a6284614970565b169281831692848414948515614a98575b50508315614a82575b50505090565b614a8e919293506149ba565b1614388080614a7c565b60ff92955090614ac79160005260046020526040600020906001600160a01b0316600052602052604060002090565b5416923880614a73565b9190916001600160a01b038116908115614c5257614b058460005260026020526001600160a01b0360406000205416151590565b614c2857836000928184526002602052614b388360408620906001600160a01b03166001600160a01b0319825416179055565b837fddf252ad1be2c89b69c2b068fc378daa952ba7f163c4a11628f55a4df523b3ef8180a4614ba582614b76610734608e546001600160a01b031690565b60405163c44a8e6d60e01b81523060048201526024810197909752600060448801529591829081906064820190565b0381885afa9081156107f0578391614c0e575b505193803b15614c0a576040516330b157e560e21b81526004810195909552600060248601526001600160a01b039190911660448501529192918290606490829084905af180156107f0576146fd5750565b8280fd5b614c2291503d8085833e6128e48183610fd0565b38614bb8565b60046040517fbad7c30c000000000000000000000000000000000000000000000000000000008152fd5b60046040517f7208af1e000000000000000000000000000000000000000000000000000000008152fd5b90614cc99291614c97610734608e546001600160a01b031690565b60405163c44a8e6d60e01b81523060048201526024810193909352600060448401819052948590849081906064820190565b0381845afa9283156107f0578593614d4c575b508251813b15614d48576040516330b157e560e21b815260048101919091526001600160a01b0383166024820152600060448201529394908490606490829084905af19283156107f0576106f093614d35575b50614e56565b80613b48614d4292610f9f565b38614d2f565b8580fd5b614d619193503d8087833e6128e48183610fd0565b9138614cdc565b90614db6939291614d84610734608e546001600160a01b031690565b60405163c44a8e6d60e01b81523060048201526024810194909452600060448501819052958690859081906064820190565b0381845afa9384156107f0578694614e3a575b508351813b15614e36576040516330b157e560e21b815260048101919091526001600160a01b038381166024830152841660448201529495908590606490829084905af19384156107f0576106f094614e23575b50614ec2565b80613b48614e3092610f9f565b38614e1d565b8680fd5b614e4f9194503d8088833e6128e48183610fd0565b9238614dc9565b6001600160a01b03809116918215612b1c576106f0926080825192015192600091838352608a602052614e8c8560408520615ef2565b50508252608860205260408220838352602052604081818420541692808052608860205281812085825260205220541690614554565b916001600160a01b03809316918215614585576106f0936040608084519401519482841615614f22575b6000908152608860205281812085825260205261452a838383205416946001600160a01b03166000526088602052604060002090565b84600052608a602052614f388683600020615ef2565b5050614eec565b614f4881614970565b906001600160a01b0382169182614fad575b8160006106f094614f6a83615370565b8282526002602052604082206001600160a01b031981541690557fddf252ad1be2c89b69c2b068fc378daa952ba7f163c4a11628f55a4df523b3ef8280a4614c7c565b614fc2610734608e546001600160a01b031690565b60405163c44a8e6d60e01b8152306004820152602481018490526000604482018190529091829060649082905afa9081156107f05761500f9161014091600091615100575b500151151590565b61507c575b8160006106f094615035610734610cb185600052608c602052604060002090565b15615044575b94505050614f5a565b6150778461505c85600052608c602052604060002090565b906001600160a01b03166001600160a01b0319825416179055565b61503b565b6150be92615095610734608f546001600160a01b031690565b9060055460405180936321d1336160e11b82528180610120998a95600483019190602083019252565b03915afa9081156107f0576106f09585936000936150e2575b505094505050615014565b816150f892903d10613f1e57613f0f8183610fd0565b5038806150d7565b615113913d8091833e6128e48183610fd0565b38615007565b919061512482614970565b6001600160a01b038085169491811685900361534657821693841561531c57806151af575b6106f094849161515883615370565b826000526002602052615185856040600020906001600160a01b03166001600160a01b0319825416179055565b7fddf252ad1be2c89b69c2b068fc378daa952ba7f163c4a11628f55a4df523b3ef600080a4614d68565b6151c4610734608e546001600160a01b031690565b60405163c44a8e6d60e01b8152306004820152602481018690526000604482018190529091829060649082905afa9081156107f057615210916101409160009161510057500151151590565b615261575b6106f0948491615235610734610cb185600052608c602052604060002090565b15615244575b91509450615149565b61525c8461505c85600052608c602052604060002090565b61523b565b6152a1615279610734608f546001600160a01b031690565b60055460405180926321d1336160e11b82528180610120968795600483019190602083019252565b03915afa9182156107f0576152d09260ff92610100926000926152ff575b5050015160f41c1660018091161490565b156152155760046040517f18cdaf97000000000000000000000000000000000000000000000000000000008152fd5b6153159250803d10613f1e57613f0f8183610fd0565b38806152bf565b60046040517f2c955427000000000000000000000000000000000000000000000000000000008152fd5b60046040517fa195bc53000000000000000000000000000000000000000000000000000000008152fd5b80600052600360205260406000206001600160a01b0319815416905560006001600160a01b0361539f83614970565b167f8c5be1e5ebec7d5bd14f71427d1e84f3dd0314c0f7b2291e5b200ac8c7c3b9258280a4565b8160005260036020526153f3816040600020906001600160a01b03166001600160a01b0319825416179055565b6001600160a01b038061540584614970565b169116907f8c5be1e5ebec7d5bd14f71427d1e84f3dd0314c0f7b2291e5b200ac8c7c3b925600080a4565b908160209103126103ae57516105ef8161039c565b90926105ef94936080936001600160a01b038092168452166020830152604082015281606082015201906105b9565b3d1561549f573d9061548582611063565b916154936040519384610fd0565b82523d6000602084013e565b606090565b92909190823b15615588576154f89260209260006001600160a01b036040518097819682957f150b7a02000000000000000000000000000000000000000000000000000000009b8c85523360048601615445565b0393165af160009181615558575b5061554a57615513615474565b805190816155455760046040517f6deaf836000000000000000000000000000000000000000000000000000000008152fd5b602001fd5b6001600160e01b0319161490565b61557a91925060203d8111615581575b6155728183610fd0565b810190615430565b9038615506565b503d615568565b50505050600190565b91929092805167ffffffffffffffff8111610f9a576000916155bc826155b785546115a8565b6131e9565b60209081601f8411600114615628575092826155fc9361560196936106f0999896849261561d575b50506000198260011b9260031b1c19161790556135d5565b600555565b6001600160a01b03166001600160a01b03196006541617600655565b0151905038806155e4565b600080529190601f1984167f290decd9548b62a8d60345a988386fc84ba6bc95484008f6362f93160ef3e5639386905b8282106156a25750509361560196936106f099989693600193836155fc9810615689575b505050811b0190556135d5565b015160001960f88460031b161c1916905538808061567c565b80600186978294978701518155019601940190615658565b9160a0838303126103ae57823592602091828201359360408301356156de8161039c565b9360608401356156ed816106d1565b9360808101359067ffffffffffffffff82116103ae57019180601f840112156103ae57823561571b816110eb565b936157296040519586610fd0565b818552838086019260051b8201019283116103ae578301905b828210615750575050505090565b83809161575c8461112e565b815201910190615742565b9060925460c083013503615ae4576101e0820160446157868285612a2d565b90501180615ab5575b61579857509050565b6157a56157ad9184612a2d565b8101906156ba565b9250949250506001600160a01b03809416938415615a83575b815115615a59576000808091845197825b8981106158315750505050505061580192935060806157f96101808401614295565b920135615b89565b61580757565b60046040517f6d5e09a4000000000000000000000000000000000000000000000000000000008152fd5b898861585261584b615843858c6125e3565b5161ffff1690565b61ffff1690565b8503615976575b90615887610cb186613d0661586e8b96614295565b6001600160a01b03166000526088602052604060002090565b88808616918b8315948515809661596b575b6158ad575b505050505050506001016157d7565b879a9697916158bc8b92612755565b83109283615945575b5050506000146158ef57505050506001916158df91612620565b935b905084388088818b8f61589e565b615916955083615938575b505050615920575b83613df6876159108c614295565b93612620565b60016000936158e1565b615933848461592e8c614295565b6143db565b615902565b16141590503888816158fa565b61ffff9293506159619161595b6158439261260d565b906125e3565b1614888d8b6158c5565b508383161515615899565b505093509061598b61584b61584386896125e3565b10615a2f576159a061584b61584385886125e3565b906159b6610734608e546001600160a01b031690565b6040516364faa15960e01b815230600482015260248101849052600060448201819052909591869060649082905afa9485156107f0578a615887610cb186613d06608061586e9b8f97600091615a16575b5001519a505050505090615859565b615a29913d8091833e6128e48183610fd0565b38615a07565b60046040517f9fda363d000000000000000000000000000000000000000000000000000000008152fd5b60046040517f3d04bd1f000000000000000000000000000000000000000000000000000000008152fd5b9350615a976096546001600160a01b031690565b80851615615aa6575b936157c6565b50615ab082614295565b615aa0565b5063f6de42df60e01b6001600160e01b0319615add610e40615ad78588612a2d565b90612a8f565b161461578f565b60046040517f79cf85c0000000000000000000000000000000000000000000000000000000008152fd5b91906040838203126103ae57825167ffffffffffffffff81116103ae57602091612e64918501613770565b929190606084019084526020906060828601528251809152816080860193019160005b828110615b7157505050506040600091930152565b835161ffff1685529381019392810192600101615b5c565b929192615ba1610734608e546001600160a01b031690565b9160409081519586947feaa19ab30000000000000000000000000000000000000000000000000000000086526000958691818381615be3888b60048401615b39565b03925af180156107f05785978691615c7b575b50968051955b868110615c0c5750505050505050565b80615c19600192846125e3565b51615c248186614ad1565b61ffff615c3461584384896125e3565b88518a81523360208201526001600160a01b0388169391909216917f598baf7bf150ca2f42be9e9f8f55e81d45f5715c3ff22bf46d697fabec7f31d690604090a401615bfc565b9050615c9a9197503d8087833e615c928183610fd0565b810190615b0e565b96909638615bf6565b6001600160a01b03600754163303615cb757565b606460405162461bcd60e51b815260206004820152602060248201527f4f776e61626c653a2063616c6c6572206973206e6f7420746865206f776e65726044820152fd5b600754906001600160a01b0380911691826001600160a01b0319821617600755167f8be0079c531659141344cd1fd0a4f28419497f9722a3daafe3b4186f6b6457e0600080a3565b9043811015615dff57615d559061611e565b90805491600063ffffffff8092165b848210615dab5750505081615d7b57506000919050565b615da0615da791615d936001600160e01b0394612755565b9060005260206000200190565b5460201c90565b1690565b9091938083169080841860011c820180921161261b57846000528286615ddc8460206000200163ffffffff90541690565b161115615ded5750935b9190615d64565b949250615df99061260d565b91615de6565b606460405162461bcd60e51b815260206004820152602060248201527f436865636b706f696e74733a20626c6f636b206e6f7420796574206d696e65646044820152fd5b6001600160e01b03929183615e5783615f1a565b1690810180911161261b57615e6b4361611e565b91848211615e8857849283615e81931691616004565b9316921690565b608460405162461bcd60e51b815260206004820152602760248201527f53616665436173743a2076616c756520646f65736e27742066697420696e203260448201527f32342062697473000000000000000000000000000000000000000000000000006064820152fd5b6001600160e01b03929183615f0683615f1a565b1690810390811161261b57615e6b4361611e565b805460009181615f2c57505050600090565b60001992828481011161261b5760209181522001015460201c90565b90815468010000000000000000811015610f9a57600181018084558110156125de57600092835260209283902082519284015190931b63ffffffff191663ffffffff9290921691909117910155565b90604051615fa481610f7e565b602081935463ffffffff81168352811c910152565b15615fc057565b606460405162461bcd60e51b815260206004820152601b60248201527f436865636b706f696e743a2064656372656173696e67206b65797300000000006044820152fd5b909291928382548015156000146160f35792602092918461603f61603a61602d612cbb98612755565b8560005260206000200190565b615f97565b9361604e855163ffffffff1690565b61606563ffffffff91828416928391161115615fb9565b61607f616076875163ffffffff1690565b63ffffffff1690565b036160bd57506160af92615d9361609592612755565b9063ffffffff63ffffffff1983549260201b169116179055565b01516001600160e01b031690565b9150506160ee916160db6160cf611014565b63ffffffff9093168352565b6001600160e01b03881682860152615f48565b6160af565b5050616118916161046160cf611014565b6001600160e01b0385166020830152615f48565b60009190565b63ffffffff9081811161612f571690565b608460405162461bcd60e51b815260206004820152602660248201527f53616665436173743a2076616c756520646f65736e27742066697420696e203360448201527f32206269747300000000000000000000000000000000000000000000000000006064820152fd5b91906000198184098184029182808310920391808303921461623557670de0b6b3a764000090818310156161fe577faccb18165bd6fe31ae1cf318dc5b51eee0e1ba569b88cd74c1773b91fac1066994950990828211900360ee1b910360121c170290565b60448383604051917f773cc18c00000000000000000000000000000000000000000000000000000000835260048301526024820152fd5b5050670de0b6b3a764000090049150565b909160001983830992808302928380861095039480860395146162f757828510156162be57908291096001821901821680920460028082600302188083028203028083028203028083028203028083028203028083028203028092029003029360018380600003040190848311900302920304170290565b6040517f773cc18c0000000000000000000000000000000000000000000000000000000081526004810186905260248101849052604490fd5b5050906105ef925061278356fea2646970667358221220f619c6df014b0fe9fae6c5120836237b7e4b85aea41c91dfceaca1cf9ce9483064736f6c63430008140033",
    "linkReferences": {}
  },
  "methodIdentifiers": {
    "TOTAL_REDEMPTION_WEIGHT()": "640abacd",
    "amountRedeemed()": "27f6e979",
    "approve(address,uint256)": "095ea7b3",
    "balanceOf(address)": "70a08231",
    "baseProtocolToken()": "1417f9f6",
    "baseURI()": "6c0360eb",
    "codeOrigin()": "1d153ca4",
    "contractURI()": "e8a3d485",
    "defaultAttestationDelegate()": "7f989887",
    "defifaToken()": "3b2b8a78",
    "didPay((address,uint256,uint256,(address,uint256,uint256,uint256),(address,uint256,uint256,uint256),uint256,address,bool,string,bytes))": "da9ee8b7",
    "didRedeem((address,uint256,uint256,uint256,(address,uint256,uint256,uint256),(address,uint256,uint256,uint256),address,string,bytes))": "2b13c58f",
    "directory()": "c41c2f24",
    "firstOwnerOf(uint256)": "54c6d1f5",
    "fundingCycleStore()": "557e7155",
    "gamePhaseReporter()": "a0b6490c",
    "gamePotReporter()": "7245d80c",
    "getApproved(uint256)": "081812fc",
    "getPastTierAttestationUnitsOf(address,uint256,uint256)": "ea1c1b25",
    "getPastTierTotalAttestationUnitsOf(uint256,uint256)": "d9119f5f",
    "getTierAttestationUnitsOf(address,uint256)": "c3c69a96",
    "getTierDelegateOf(address,uint256)": "9c8c6cd5",
    "getTierTotalAttestationUnitsOf(uint256)": "f7623b81",
    "initialize(uint256,address,string,string,address,string,address,string,(uint104,uint32,uint32,uint16,address,bytes32,uint24,bool,bool,bool,bool)[],uint48,address,address,address,address,string[])": "3900c6f9",
    "isApprovedForAll(address,address)": "e985e9c5",
    "mintReservesFor((uint256,uint256)[])": "2a596e53",
    "mintReservesFor(uint256,uint256)": "aa4fb15b",
    "name()": "06fdde03",
    "owner()": "8da5cb5b",
    "ownerOf(uint256)": "6352211e",
    "payParams((address,address,(address,uint256,uint256,uint256),uint256,uint256,address,uint256,uint256,string,bytes))": "d46cf171",
    "pricingCurrency()": "64640c1e",
    "projectId()": "3fafa127",
    "redeemParams((address,address,uint256,uint256,uint256,uint256,uint256,(address,uint256,uint256,uint256),bool,uint256,string,bytes))": "a51cfd18",
    "redemptionWeightIsSet()": "a8c15f4a",
    "redemptionWeightOf(uint256)": "4f228e11",
    "redemptionWeightOf(uint256[],(address,address,uint256,uint256,uint256,uint256,uint256,(address,uint256,uint256,uint256),bool,uint256,string,bytes))": "7ba62bf9",
    "renounceOwnership()": "715018a6",
    "safeTransferFrom(address,address,uint256)": "42842e0e",
    "safeTransferFrom(address,address,uint256,bytes)": "b88d4fde",
    "setApprovalForAll(address,bool)": "a22cb465",
    "setTierDelegateTo(address,uint256)": "07405b24",
    "setTierDelegatesTo((address,uint256)[])": "c90f5126",
    "setTierRedemptionWeightsTo((uint256,uint256)[])": "fadd72b7",
    "store()": "975057e7",
    "supportsInterface(bytes4)": "01ffc9a7",
    "symbol()": "95d89b41",
    "tierNameOf(uint256)": "1baabc3e",
    "tierRedemptionWeights()": "9df45468",
    "tokenAllocations()": "92eb1641",
    "tokenURI(uint256)": "c87b56dd",
    "tokensClaimableFor(uint256[])": "cb7043f7",
    "tokensRedeemedFrom(uint256)": "743682b5",
    "totalRedemptionWeight((address,address,uint256,uint256,uint256,uint256,uint256,(address,uint256,uint256,uint256),bool,uint256,string,bytes))": "9494bf72",
    "transferFrom(address,address,uint256)": "23b872dd",
    "transferOwnership(address)": "f2fde38b"
  },
  "id": 0
}