{
  "abi": [
    {
      "inputs": [],
      "stateMutability": "nonpayable",
      "type": "constructor"
    },
    {
      "inputs": [],
      "name": "ALEADY_MINTED",
      "type": "error"
    },
    {
      "inputs": [],
      "name": "APPROVAL_TO_CURRENT_OWNER",
      "type": "error"
    },
    {
      "inputs": [],
      "name": "APPROVE_TO_CALLER",
      "type": "error"
    },
    {
      "inputs": [],
      "name": "BLOCK_NOT_YET_MINED",
      "type": "error"
    },
    {
      "inputs": [],
      "name": "CALLER_NOT_OWNER_OR_APPROVED",
      "type": "error"
    },
    {
      "inputs": [],
      "name": "DELEGATE_ADDRESS_ZERO",
      "type": "error"
    },
    {
      "inputs": [],
      "name": "GAME_ISNT_OVER_YET",
      "type": "error"
    },
    {
      "inputs": [],
      "name": "INCORRECT_OWNER",
      "type": "error"
    },
    {
      "inputs": [],
      "name": "INVALID_PAYMENT_EVENT",
      "type": "error"
    },
    {
      "inputs": [],
      "name": "INVALID_REDEMPTION_EVENT",
      "type": "error"
    },
    {
      "inputs": [],
      "name": "INVALID_REDEMPTION_METADATA",
      "type": "error"
    },
    {
      "inputs": [],
      "name": "INVALID_REDEMPTION_WEIGHTS",
      "type": "error"
    },
    {
      "inputs": [],
      "name": "INVALID_TIER_ID",
      "type": "error"
    },
    {
      "inputs": [],
      "name": "INVALID_TOKEN_ID",
      "type": "error"
    },
    {
      "inputs": [],
      "name": "MINT_TO_ZERO",
      "type": "error"
    },
    {
      "inputs": [],
      "name": "NOTHING_TO_CLAIM",
      "type": "error"
    },
    {
      "inputs": [],
      "name": "NOTHING_TO_MINT",
      "type": "error"
    },
    {
      "inputs": [],
      "name": "NOT_AVAILABLE",
      "type": "error"
    },
    {
      "inputs": [],
      "name": "OVERSPENDING",
      "type": "error"
    },
    {
      "inputs": [
        {
          "internalType": "uint256",
          "name": "prod1",
          "type": "uint256"
        },
        {
          "internalType": "uint256",
          "name": "denominator",
          "type": "uint256"
        }
      ],
      "name": "PRBMath__MulDivOverflow",
      "type": "error"
    },
    {
      "inputs": [],
      "name": "PRICING_RESOLVER_CHANGES_PAUSED",
      "type": "error"
    },
    {
      "inputs": [],
      "name": "RESERVED_TOKEN_MINTING_PAUSED",
      "type": "error"
    },
    {
      "inputs": [],
      "name": "TRANSFERS_PAUSED",
      "type": "error"
    },
    {
      "inputs": [],
      "name": "TRANSFER_TO_NON_IMPLEMENTER",
      "type": "error"
    },
    {
      "inputs": [],
      "name": "TRANSFER_TO_ZERO_ADDRESS",
      "type": "error"
    },
    {
      "inputs": [],
      "name": "UNAUTHORIZED",
      "type": "error"
    },
    {
      "inputs": [],
      "name": "UNEXPECTED_TOKEN_REDEEMED",
      "type": "error"
    },
    {
      "inputs": [],
      "name": "WRONG_CURRENCY",
      "type": "error"
    },
    {
      "anonymous": false,
      "inputs": [
        {
          "indexed": true,
          "internalType": "uint256",
          "name": "tierId",
          "type": "uint256"
        },
        {
          "components": [
            {
              "internalType": "uint80",
              "name": "contributionFloor",
              "type": "uint80"
            },
            {
              "internalType": "uint48",
              "name": "lockedUntil",
              "type": "uint48"
            },
            {
              "internalType": "uint40",
              "name": "initialQuantity",
              "type": "uint40"
            },
            {
              "internalType": "uint16",
              "name": "votingUnits",
              "type": "uint16"
            },
            {
              "internalType": "uint16",
              "name": "reservedRate",
              "type": "uint16"
            },
            {
              "internalType": "address",
              "name": "reservedTokenBeneficiary",
              "type": "address"
            },
            {
              "internalType": "uint8",
              "name": "royaltyRate",
              "type": "uint8"
            },
            {
              "internalType": "address",
              "name": "royaltyBeneficiary",
              "type": "address"
            },
            {
              "internalType": "bytes32",
              "name": "encodedIPFSUri",
              "type": "bytes32"
            },
            {
              "internalType": "uint8",
              "name": "category",
              "type": "uint8"
            },
            {
              "internalType": "bool",
              "name": "allowManualMint",
              "type": "bool"
            },
            {
              "internalType": "bool",
              "name": "shouldUseReservedTokenBeneficiaryAsDefault",
              "type": "bool"
            },
            {
              "internalType": "bool",
              "name": "shouldUseRoyaltyBeneficiaryAsDefault",
              "type": "bool"
            },
            {
              "internalType": "bool",
              "name": "transfersPausable",
              "type": "bool"
            }
          ],
          "indexed": false,
          "internalType": "struct JB721TierParams",
          "name": "data",
          "type": "tuple"
        },
        {
          "indexed": false,
          "internalType": "address",
          "name": "caller",
          "type": "address"
        }
      ],
      "name": "AddTier",
      "type": "event"
    },
    {
      "anonymous": false,
      "inputs": [
        {
          "indexed": true,
          "internalType": "address",
          "name": "owner",
          "type": "address"
        },
        {
          "indexed": true,
          "internalType": "address",
          "name": "approved",
          "type": "address"
        },
        {
          "indexed": true,
          "internalType": "uint256",
          "name": "tokenId",
          "type": "uint256"
        }
      ],
      "name": "Approval",
      "type": "event"
    },
    {
      "anonymous": false,
      "inputs": [
        {
          "indexed": true,
          "internalType": "address",
          "name": "owner",
          "type": "address"
        },
        {
          "indexed": true,
          "internalType": "address",
          "name": "operator",
          "type": "address"
        },
        {
          "indexed": false,
          "internalType": "bool",
          "name": "approved",
          "type": "bool"
        }
      ],
      "name": "ApprovalForAll",
      "type": "event"
    },
    {
      "anonymous": false,
      "inputs": [
        {
          "indexed": true,
          "internalType": "address",
          "name": "delegator",
          "type": "address"
        },
        {
          "indexed": true,
          "internalType": "address",
          "name": "fromDelegate",
          "type": "address"
        },
        {
          "indexed": true,
          "internalType": "address",
          "name": "toDelegate",
          "type": "address"
        }
      ],
      "name": "DelegateChanged",
      "type": "event"
    },
    {
      "anonymous": false,
      "inputs": [
        {
          "indexed": true,
          "internalType": "uint256",
          "name": "tokenId",
          "type": "uint256"
        },
        {
          "indexed": true,
          "internalType": "uint256",
          "name": "tierId",
          "type": "uint256"
        },
        {
          "indexed": true,
          "internalType": "address",
          "name": "beneficiary",
          "type": "address"
        },
        {
          "indexed": false,
          "internalType": "uint256",
          "name": "totalAmountContributed",
          "type": "uint256"
        },
        {
          "indexed": false,
          "internalType": "address",
          "name": "caller",
          "type": "address"
        }
      ],
      "name": "Mint",
      "type": "event"
    },
    {
      "anonymous": false,
      "inputs": [
        {
          "indexed": true,
          "internalType": "uint256",
          "name": "tokenId",
          "type": "uint256"
        },
        {
          "indexed": true,
          "internalType": "uint256",
          "name": "tierId",
          "type": "uint256"
        },
        {
          "indexed": true,
          "internalType": "address",
          "name": "beneficiary",
          "type": "address"
        },
        {
          "indexed": false,
          "internalType": "address",
          "name": "caller",
          "type": "address"
        }
      ],
      "name": "MintReservedToken",
      "type": "event"
    },
    {
      "anonymous": false,
      "inputs": [
        {
          "indexed": true,
          "internalType": "address",
          "name": "previousOwner",
          "type": "address"
        },
        {
          "indexed": true,
          "internalType": "address",
          "name": "newOwner",
          "type": "address"
        }
      ],
      "name": "OwnershipTransferred",
      "type": "event"
    },
    {
      "anonymous": false,
      "inputs": [
        {
          "indexed": true,
          "internalType": "uint256",
          "name": "tierId",
          "type": "uint256"
        },
        {
          "indexed": false,
          "internalType": "address",
          "name": "caller",
          "type": "address"
        }
      ],
      "name": "RemoveTier",
      "type": "event"
    },
    {
      "anonymous": false,
      "inputs": [
        {
          "indexed": true,
          "internalType": "string",
          "name": "baseUri",
          "type": "string"
        },
        {
          "indexed": false,
          "internalType": "address",
          "name": "caller",
          "type": "address"
        }
      ],
      "name": "SetBaseUri",
      "type": "event"
    },
    {
      "anonymous": false,
      "inputs": [
        {
          "indexed": true,
          "internalType": "string",
          "name": "contractUri",
          "type": "string"
        },
        {
          "indexed": false,
          "internalType": "address",
          "name": "caller",
          "type": "address"
        }
      ],
      "name": "SetContractUri",
      "type": "event"
    },
    {
      "anonymous": false,
      "inputs": [
        {
          "indexed": true,
          "internalType": "address",
          "name": "beneficiary",
          "type": "address"
        },
        {
          "indexed": false,
          "internalType": "address",
          "name": "caller",
          "type": "address"
        }
      ],
      "name": "SetDefaultReservedTokenBeneficiary",
      "type": "event"
    },
    {
      "anonymous": false,
      "inputs": [
        {
          "indexed": true,
          "internalType": "uint256",
          "name": "tierId",
          "type": "uint256"
        },
        {
          "indexed": false,
          "internalType": "bytes32",
          "name": "encodedIPFSUri",
          "type": "bytes32"
        },
        {
          "indexed": false,
          "internalType": "address",
          "name": "caller",
          "type": "address"
        }
      ],
      "name": "SetEncodedIPFSUri",
      "type": "event"
    },
    {
      "anonymous": false,
      "inputs": [
        {
          "indexed": true,
          "internalType": "contract IJBTokenUriResolver",
          "name": "newResolver",
          "type": "address"
        },
        {
          "indexed": false,
          "internalType": "address",
          "name": "caller",
          "type": "address"
        }
      ],
      "name": "SetTokenUriResolver",
      "type": "event"
    },
    {
      "anonymous": false,
      "inputs": [
        {
          "indexed": true,
          "internalType": "address",
          "name": "delegator",
          "type": "address"
        },
        {
          "indexed": true,
          "internalType": "address",
          "name": "fromDelegate",
          "type": "address"
        },
        {
          "indexed": true,
          "internalType": "address",
          "name": "toDelegate",
          "type": "address"
        },
        {
          "indexed": false,
          "internalType": "uint256",
          "name": "tierId",
          "type": "uint256"
        },
        {
          "indexed": false,
          "internalType": "address",
          "name": "caller",
          "type": "address"
        }
      ],
      "name": "TierDelegateChanged",
      "type": "event"
    },
    {
      "anonymous": false,
      "inputs": [
        {
          "indexed": true,
          "internalType": "address",
          "name": "delegate",
          "type": "address"
        },
        {
          "indexed": true,
          "internalType": "uint256",
          "name": "tierId",
          "type": "uint256"
        },
        {
          "indexed": false,
          "internalType": "uint256",
          "name": "previousBalance",
          "type": "uint256"
        },
        {
          "indexed": false,
          "internalType": "uint256",
          "name": "newBalance",
          "type": "uint256"
        },
        {
          "indexed": false,
          "internalType": "address",
          "name": "caller",
          "type": "address"
        }
      ],
      "name": "TierDelegateVotesChanged",
      "type": "event"
    },
    {
      "anonymous": false,
      "inputs": [
        {
          "indexed": true,
          "internalType": "address",
          "name": "from",
          "type": "address"
        },
        {
          "indexed": true,
          "internalType": "address",
          "name": "to",
          "type": "address"
        },
        {
          "indexed": true,
          "internalType": "uint256",
          "name": "tokenId",
          "type": "uint256"
        }
      ],
      "name": "Transfer",
      "type": "event"
    },
    {
      "inputs": [],
      "name": "TOTAL_REDEMPTION_WEIGHT",
      "outputs": [
        {
          "internalType": "uint256",
          "name": "",
          "type": "uint256"
        }
      ],
      "stateMutability": "view",
      "type": "function"
    },
    {
      "inputs": [
        {
          "internalType": "address",
          "name": "to",
          "type": "address"
        },
        {
          "internalType": "uint256",
          "name": "tokenId",
          "type": "uint256"
        }
      ],
      "name": "approve",
      "outputs": [],
      "stateMutability": "nonpayable",
      "type": "function"
    },
    {
      "inputs": [
        {
          "internalType": "address",
          "name": "owner",
          "type": "address"
        }
      ],
      "name": "balanceOf",
      "outputs": [
        {
          "internalType": "uint256",
          "name": "balance",
          "type": "uint256"
        }
      ],
      "stateMutability": "view",
      "type": "function"
    },
    {
      "inputs": [],
      "name": "codeOrigin",
      "outputs": [
        {
          "internalType": "address",
          "name": "",
          "type": "address"
        }
      ],
      "stateMutability": "view",
      "type": "function"
    },
    {
      "inputs": [
        {
          "components": [
            {
              "internalType": "address",
              "name": "payer",
              "type": "address"
            },
            {
              "internalType": "uint256",
              "name": "projectId",
              "type": "uint256"
            },
            {
              "internalType": "uint256",
              "name": "currentFundingCycleConfiguration",
              "type": "uint256"
            },
            {
              "components": [
                {
                  "internalType": "address",
                  "name": "token",
                  "type": "address"
                },
                {
                  "internalType": "uint256",
                  "name": "value",
                  "type": "uint256"
                },
                {
                  "internalType": "uint256",
                  "name": "decimals",
                  "type": "uint256"
                },
                {
                  "internalType": "uint256",
                  "name": "currency",
                  "type": "uint256"
                }
              ],
              "internalType": "struct JBTokenAmount",
              "name": "amount",
              "type": "tuple"
            },
            {
              "components": [
                {
                  "internalType": "address",
                  "name": "token",
                  "type": "address"
                },
                {
                  "internalType": "uint256",
                  "name": "value",
                  "type": "uint256"
                },
                {
                  "internalType": "uint256",
                  "name": "decimals",
                  "type": "uint256"
                },
                {
                  "internalType": "uint256",
                  "name": "currency",
                  "type": "uint256"
                }
              ],
              "internalType": "struct JBTokenAmount",
              "name": "forwardedAmount",
              "type": "tuple"
            },
            {
              "internalType": "uint256",
              "name": "projectTokenCount",
              "type": "uint256"
            },
            {
              "internalType": "address",
              "name": "beneficiary",
              "type": "address"
            },
            {
              "internalType": "bool",
              "name": "preferClaimedTokens",
              "type": "bool"
            },
            {
              "internalType": "string",
              "name": "memo",
              "type": "string"
            },
            {
              "internalType": "bytes",
              "name": "metadata",
              "type": "bytes"
            }
          ],
          "internalType": "struct JBDidPayData",
          "name": "_data",
          "type": "tuple"
        }
      ],
      "name": "didPay",
      "outputs": [],
      "stateMutability": "payable",
      "type": "function"
    },
    {
      "inputs": [
        {
          "components": [
            {
              "internalType": "address",
              "name": "holder",
              "type": "address"
            },
            {
              "internalType": "uint256",
              "name": "projectId",
              "type": "uint256"
            },
            {
              "internalType": "uint256",
              "name": "currentFundingCycleConfiguration",
              "type": "uint256"
            },
            {
              "internalType": "uint256",
              "name": "projectTokenCount",
              "type": "uint256"
            },
            {
              "components": [
                {
                  "internalType": "address",
                  "name": "token",
                  "type": "address"
                },
                {
                  "internalType": "uint256",
                  "name": "value",
                  "type": "uint256"
                },
                {
                  "internalType": "uint256",
                  "name": "decimals",
                  "type": "uint256"
                },
                {
                  "internalType": "uint256",
                  "name": "currency",
                  "type": "uint256"
                }
              ],
              "internalType": "struct JBTokenAmount",
              "name": "reclaimedAmount",
              "type": "tuple"
            },
            {
              "components": [
                {
                  "internalType": "address",
                  "name": "token",
                  "type": "address"
                },
                {
                  "internalType": "uint256",
                  "name": "value",
                  "type": "uint256"
                },
                {
                  "internalType": "uint256",
                  "name": "decimals",
                  "type": "uint256"
                },
                {
                  "internalType": "uint256",
                  "name": "currency",
                  "type": "uint256"
                }
              ],
              "internalType": "struct JBTokenAmount",
              "name": "forwardedAmount",
              "type": "tuple"
            },
            {
              "internalType": "address payable",
              "name": "beneficiary",
              "type": "address"
            },
            {
              "internalType": "string",
              "name": "memo",
              "type": "string"
            },
            {
              "internalType": "bytes",
              "name": "metadata",
              "type": "bytes"
            }
          ],
          "internalType": "struct JBDidRedeemData",
          "name": "_data",
          "type": "tuple"
        }
      ],
      "name": "didRedeem",
      "outputs": [],
      "stateMutability": "payable",
      "type": "function"
    },
    {
      "inputs": [],
      "name": "directory",
      "outputs": [
        {
          "internalType": "contract IJBDirectory",
          "name": "",
          "type": "address"
        }
      ],
      "stateMutability": "view",
      "type": "function"
    },
    {
      "inputs": [
        {
          "internalType": "uint256",
          "name": "_tokenId",
          "type": "uint256"
        }
      ],
      "name": "firstOwnerOf",
      "outputs": [
        {
          "internalType": "address",
          "name": "",
          "type": "address"
        }
      ],
      "stateMutability": "view",
      "type": "function"
    },
    {
      "inputs": [],
      "name": "fundingCycleStore",
      "outputs": [
        {
          "internalType": "contract IJBFundingCycleStore",
          "name": "",
          "type": "address"
        }
      ],
      "stateMutability": "view",
      "type": "function"
    },
    {
      "inputs": [
        {
          "internalType": "uint256",
          "name": "tokenId",
          "type": "uint256"
        }
      ],
      "name": "getApproved",
      "outputs": [
        {
          "internalType": "address",
          "name": "",
          "type": "address"
        }
      ],
      "stateMutability": "view",
      "type": "function"
    },
    {
      "inputs": [
        {
          "internalType": "uint256",
          "name": "_tier",
          "type": "uint256"
        },
        {
          "internalType": "uint256",
          "name": "_blockNumber",
          "type": "uint256"
        }
      ],
      "name": "getPastTierTotalVotes",
      "outputs": [
        {
          "internalType": "uint256",
          "name": "",
          "type": "uint256"
        }
      ],
      "stateMutability": "view",
      "type": "function"
    },
    {
      "inputs": [
        {
          "internalType": "address",
          "name": "_account",
          "type": "address"
        },
        {
          "internalType": "uint256",
          "name": "_tier",
          "type": "uint256"
        },
        {
          "internalType": "uint256",
          "name": "_blockNumber",
          "type": "uint256"
        }
      ],
      "name": "getPastTierVotes",
      "outputs": [
        {
          "internalType": "uint256",
          "name": "",
          "type": "uint256"
        }
      ],
      "stateMutability": "view",
      "type": "function"
    },
    {
      "inputs": [
        {
          "internalType": "address",
          "name": "_account",
          "type": "address"
        },
        {
          "internalType": "uint256",
          "name": "_tier",
          "type": "uint256"
        }
      ],
      "name": "getTierDelegate",
      "outputs": [
        {
          "internalType": "address",
          "name": "",
          "type": "address"
        }
      ],
      "stateMutability": "view",
      "type": "function"
    },
    {
      "inputs": [
        {
          "internalType": "uint256",
          "name": "_tier",
          "type": "uint256"
        }
      ],
      "name": "getTierTotalVotes",
      "outputs": [
        {
          "internalType": "uint256",
          "name": "",
          "type": "uint256"
        }
      ],
      "stateMutability": "view",
      "type": "function"
    },
    {
      "inputs": [
        {
          "internalType": "address",
          "name": "_account",
          "type": "address"
        },
        {
          "internalType": "uint256",
          "name": "_tier",
          "type": "uint256"
        }
      ],
      "name": "getTierVotes",
      "outputs": [
        {
          "internalType": "uint256",
          "name": "",
          "type": "uint256"
        }
      ],
      "stateMutability": "view",
      "type": "function"
    },
    {
      "inputs": [
        {
          "internalType": "uint256",
          "name": "_projectId",
          "type": "uint256"
        },
        {
          "internalType": "contract IJBDirectory",
          "name": "_directory",
          "type": "address"
        },
        {
          "internalType": "string",
          "name": "_name",
          "type": "string"
        },
        {
          "internalType": "string",
          "name": "_symbol",
          "type": "string"
        },
        {
          "internalType": "contract IJBFundingCycleStore",
          "name": "_fundingCycleStore",
          "type": "address"
        },
        {
          "internalType": "string",
          "name": "_baseUri",
          "type": "string"
        },
        {
          "internalType": "contract IJBTokenUriResolver",
          "name": "_tokenUriResolver",
          "type": "address"
        },
        {
          "internalType": "string",
          "name": "_contractUri",
          "type": "string"
        },
        {
          "components": [
            {
              "components": [
                {
                  "internalType": "uint80",
                  "name": "contributionFloor",
                  "type": "uint80"
                },
                {
                  "internalType": "uint48",
                  "name": "lockedUntil",
                  "type": "uint48"
                },
                {
                  "internalType": "uint40",
                  "name": "initialQuantity",
                  "type": "uint40"
                },
                {
                  "internalType": "uint16",
                  "name": "votingUnits",
                  "type": "uint16"
                },
                {
                  "internalType": "uint16",
                  "name": "reservedRate",
                  "type": "uint16"
                },
                {
                  "internalType": "address",
                  "name": "reservedTokenBeneficiary",
                  "type": "address"
                },
                {
                  "internalType": "uint8",
                  "name": "royaltyRate",
                  "type": "uint8"
                },
                {
                  "internalType": "address",
                  "name": "royaltyBeneficiary",
                  "type": "address"
                },
                {
                  "internalType": "bytes32",
                  "name": "encodedIPFSUri",
                  "type": "bytes32"
                },
                {
                  "internalType": "uint8",
                  "name": "category",
                  "type": "uint8"
                },
                {
                  "internalType": "bool",
                  "name": "allowManualMint",
                  "type": "bool"
                },
                {
                  "internalType": "bool",
                  "name": "shouldUseReservedTokenBeneficiaryAsDefault",
                  "type": "bool"
                },
                {
                  "internalType": "bool",
                  "name": "shouldUseRoyaltyBeneficiaryAsDefault",
                  "type": "bool"
                },
                {
                  "internalType": "bool",
                  "name": "transfersPausable",
                  "type": "bool"
                }
              ],
              "internalType": "struct JB721TierParams[]",
              "name": "tiers",
              "type": "tuple[]"
            },
            {
              "internalType": "uint256",
              "name": "currency",
              "type": "uint256"
            },
            {
              "internalType": "uint256",
              "name": "decimals",
              "type": "uint256"
            },
            {
              "internalType": "contract IJBPrices",
              "name": "prices",
              "type": "address"
            }
          ],
          "internalType": "struct JB721PricingParams",
          "name": "_pricing",
          "type": "tuple"
        },
        {
          "internalType": "contract IJBTiered721DelegateStore",
          "name": "_store",
          "type": "address"
        },
        {
          "components": [
            {
              "internalType": "bool",
              "name": "lockReservedTokenChanges",
              "type": "bool"
            },
            {
              "internalType": "bool",
              "name": "lockVotingUnitChanges",
              "type": "bool"
            },
            {
              "internalType": "bool",
              "name": "lockManualMintingChanges",
              "type": "bool"
            },
            {
              "internalType": "bool",
              "name": "preventOverspending",
              "type": "bool"
            }
          ],
          "internalType": "struct JBTiered721Flags",
          "name": "_flags",
          "type": "tuple"
        }
      ],
      "name": "initialize",
      "outputs": [],
      "stateMutability": "nonpayable",
      "type": "function"
    },
    {
      "inputs": [
        {
          "internalType": "address",
          "name": "owner",
          "type": "address"
        },
        {
          "internalType": "address",
          "name": "operator",
          "type": "address"
        }
      ],
      "name": "isApprovedForAll",
      "outputs": [
        {
          "internalType": "bool",
          "name": "",
          "type": "bool"
        }
      ],
      "stateMutability": "view",
      "type": "function"
    },
    {
      "inputs": [
        {
          "components": [
            {
              "internalType": "uint256",
              "name": "tierId",
              "type": "uint256"
            },
            {
              "internalType": "uint256",
              "name": "count",
              "type": "uint256"
            }
          ],
          "internalType": "struct JBTiered721MintReservesForTiersData[]",
          "name": "_mintReservesForTiersData",
          "type": "tuple[]"
        }
      ],
      "name": "mintReservesFor",
      "outputs": [],
      "stateMutability": "nonpayable",
      "type": "function"
    },
    {
      "inputs": [
        {
          "internalType": "uint256",
          "name": "_tierId",
          "type": "uint256"
        },
        {
          "internalType": "uint256",
          "name": "_count",
          "type": "uint256"
        }
      ],
      "name": "mintReservesFor",
      "outputs": [],
      "stateMutability": "nonpayable",
      "type": "function"
    },
    {
      "inputs": [],
      "name": "name",
      "outputs": [
        {
          "internalType": "string",
          "name": "",
          "type": "string"
        }
      ],
      "stateMutability": "view",
      "type": "function"
    },
    {
      "inputs": [],
      "name": "owner",
      "outputs": [
        {
          "internalType": "address",
          "name": "",
          "type": "address"
        }
      ],
      "stateMutability": "view",
      "type": "function"
    },
    {
      "inputs": [
        {
          "internalType": "uint256",
          "name": "tokenId",
          "type": "uint256"
        }
      ],
      "name": "ownerOf",
      "outputs": [
        {
          "internalType": "address",
          "name": "",
          "type": "address"
        }
      ],
      "stateMutability": "view",
      "type": "function"
    },
    {
      "inputs": [
        {
          "components": [
            {
              "internalType": "contract IJBPaymentTerminal",
              "name": "terminal",
              "type": "address"
            },
            {
              "internalType": "address",
              "name": "payer",
              "type": "address"
            },
            {
              "components": [
                {
                  "internalType": "address",
                  "name": "token",
                  "type": "address"
                },
                {
                  "internalType": "uint256",
                  "name": "value",
                  "type": "uint256"
                },
                {
                  "internalType": "uint256",
                  "name": "decimals",
                  "type": "uint256"
                },
                {
                  "internalType": "uint256",
                  "name": "currency",
                  "type": "uint256"
                }
              ],
              "internalType": "struct JBTokenAmount",
              "name": "amount",
              "type": "tuple"
            },
            {
              "internalType": "uint256",
              "name": "projectId",
              "type": "uint256"
            },
            {
              "internalType": "uint256",
              "name": "currentFundingCycleConfiguration",
              "type": "uint256"
            },
            {
              "internalType": "address",
              "name": "beneficiary",
              "type": "address"
            },
            {
              "internalType": "uint256",
              "name": "weight",
              "type": "uint256"
            },
            {
              "internalType": "uint256",
              "name": "reservedRate",
              "type": "uint256"
            },
            {
              "internalType": "string",
              "name": "memo",
              "type": "string"
            },
            {
              "internalType": "bytes",
              "name": "metadata",
              "type": "bytes"
            }
          ],
          "internalType": "struct JBPayParamsData",
          "name": "_data",
          "type": "tuple"
        }
      ],
      "name": "payParams",
      "outputs": [
        {
          "internalType": "uint256",
          "name": "weight",
          "type": "uint256"
        },
        {
          "internalType": "string",
          "name": "memo",
          "type": "string"
        },
        {
          "components": [
            {
              "internalType": "contract IJBPayDelegate",
              "name": "delegate",
              "type": "address"
            },
            {
              "internalType": "uint256",
              "name": "amount",
              "type": "uint256"
            }
          ],
          "internalType": "struct JBPayDelegateAllocation[]",
          "name": "delegateAllocations",
          "type": "tuple[]"
        }
      ],
      "stateMutability": "view",
      "type": "function"
    },
    {
      "inputs": [],
      "name": "pricingCurrency",
      "outputs": [
        {
          "internalType": "uint256",
          "name": "",
          "type": "uint256"
        }
      ],
      "stateMutability": "view",
      "type": "function"
    },
    {
      "inputs": [],
      "name": "projectId",
      "outputs": [
        {
          "internalType": "uint256",
          "name": "",
          "type": "uint256"
        }
      ],
      "stateMutability": "view",
      "type": "function"
    },
    {
      "inputs": [
        {
          "components": [
            {
              "internalType": "contract IJBPaymentTerminal",
              "name": "terminal",
              "type": "address"
            },
            {
              "internalType": "address",
              "name": "holder",
              "type": "address"
            },
            {
              "internalType": "uint256",
              "name": "projectId",
              "type": "uint256"
            },
            {
              "internalType": "uint256",
              "name": "currentFundingCycleConfiguration",
              "type": "uint256"
            },
            {
              "internalType": "uint256",
              "name": "tokenCount",
              "type": "uint256"
            },
            {
              "internalType": "uint256",
              "name": "totalSupply",
              "type": "uint256"
            },
            {
              "internalType": "uint256",
              "name": "overflow",
              "type": "uint256"
            },
            {
              "components": [
                {
                  "internalType": "address",
                  "name": "token",
                  "type": "address"
                },
                {
                  "internalType": "uint256",
                  "name": "value",
                  "type": "uint256"
                },
                {
                  "internalType": "uint256",
                  "name": "decimals",
                  "type": "uint256"
                },
                {
                  "internalType": "uint256",
                  "name": "currency",
                  "type": "uint256"
                }
              ],
              "internalType": "struct JBTokenAmount",
              "name": "reclaimAmount",
              "type": "tuple"
            },
            {
              "internalType": "bool",
              "name": "useTotalOverflow",
              "type": "bool"
            },
            {
              "internalType": "uint256",
              "name": "redemptionRate",
              "type": "uint256"
            },
            {
              "internalType": "string",
              "name": "memo",
              "type": "string"
            },
            {
              "internalType": "bytes",
              "name": "metadata",
              "type": "bytes"
            }
          ],
          "internalType": "struct JBRedeemParamsData",
          "name": "_data",
          "type": "tuple"
        }
      ],
      "name": "redeemParams",
      "outputs": [
        {
          "internalType": "uint256",
          "name": "reclaimAmount",
          "type": "uint256"
        },
        {
          "internalType": "string",
          "name": "memo",
          "type": "string"
        },
        {
          "components": [
            {
              "internalType": "contract IJBRedemptionDelegate",
              "name": "delegate",
              "type": "address"
            },
            {
              "internalType": "uint256",
              "name": "amount",
              "type": "uint256"
            }
          ],
          "internalType": "struct JBRedemptionDelegateAllocation[]",
          "name": "delegateAllocations",
          "type": "tuple[]"
        }
      ],
      "stateMutability": "view",
      "type": "function"
    },
    {
      "inputs": [
        {
          "internalType": "uint256",
          "name": "_tokenId",
          "type": "uint256"
        }
      ],
      "name": "redemptionWeightOf",
      "outputs": [
        {
          "internalType": "uint256",
          "name": "",
          "type": "uint256"
        }
      ],
      "stateMutability": "view",
      "type": "function"
    },
    {
      "inputs": [
        {
          "internalType": "uint256[]",
          "name": "_tokenIds",
          "type": "uint256[]"
        },
        {
          "components": [
            {
              "internalType": "contract IJBPaymentTerminal",
              "name": "terminal",
              "type": "address"
            },
            {
              "internalType": "address",
              "name": "holder",
              "type": "address"
            },
            {
              "internalType": "uint256",
              "name": "projectId",
              "type": "uint256"
            },
            {
              "internalType": "uint256",
              "name": "currentFundingCycleConfiguration",
              "type": "uint256"
            },
            {
              "internalType": "uint256",
              "name": "tokenCount",
              "type": "uint256"
            },
            {
              "internalType": "uint256",
              "name": "totalSupply",
              "type": "uint256"
            },
            {
              "internalType": "uint256",
              "name": "overflow",
              "type": "uint256"
            },
            {
              "components": [
                {
                  "internalType": "address",
                  "name": "token",
                  "type": "address"
                },
                {
                  "internalType": "uint256",
                  "name": "value",
                  "type": "uint256"
                },
                {
                  "internalType": "uint256",
                  "name": "decimals",
                  "type": "uint256"
                },
                {
                  "internalType": "uint256",
                  "name": "currency",
                  "type": "uint256"
                }
              ],
              "internalType": "struct JBTokenAmount",
              "name": "reclaimAmount",
              "type": "tuple"
            },
            {
              "internalType": "bool",
              "name": "useTotalOverflow",
              "type": "bool"
            },
            {
              "internalType": "uint256",
              "name": "redemptionRate",
              "type": "uint256"
            },
            {
              "internalType": "string",
              "name": "memo",
              "type": "string"
            },
            {
              "internalType": "bytes",
              "name": "metadata",
              "type": "bytes"
            }
          ],
          "internalType": "struct JBRedeemParamsData",
          "name": "",
          "type": "tuple"
        }
      ],
      "name": "redemptionWeightOf",
      "outputs": [
        {
          "internalType": "uint256",
          "name": "cumulativeWeight",
          "type": "uint256"
        }
      ],
      "stateMutability": "view",
      "type": "function"
    },
    {
      "inputs": [],
      "name": "renounceOwnership",
      "outputs": [],
      "stateMutability": "nonpayable",
      "type": "function"
    },
    {
      "inputs": [
        {
          "internalType": "uint256",
          "name": "_tokenId",
          "type": "uint256"
        },
        {
          "internalType": "uint256",
          "name": "_salePrice",
          "type": "uint256"
        }
      ],
      "name": "royaltyInfo",
      "outputs": [
        {
          "internalType": "address",
          "name": "",
          "type": "address"
        },
        {
          "internalType": "uint256",
          "name": "",
          "type": "uint256"
        }
      ],
      "stateMutability": "view",
      "type": "function"
    },
    {
      "inputs": [
        {
          "internalType": "address",
          "name": "from",
          "type": "address"
        },
        {
          "internalType": "address",
          "name": "to",
          "type": "address"
        },
        {
          "internalType": "uint256",
          "name": "tokenId",
          "type": "uint256"
        }
      ],
      "name": "safeTransferFrom",
      "outputs": [],
      "stateMutability": "nonpayable",
      "type": "function"
    },
    {
      "inputs": [
        {
          "internalType": "address",
          "name": "from",
          "type": "address"
        },
        {
          "internalType": "address",
          "name": "to",
          "type": "address"
        },
        {
          "internalType": "uint256",
          "name": "tokenId",
          "type": "uint256"
        },
        {
          "internalType": "bytes",
          "name": "data",
          "type": "bytes"
        }
      ],
      "name": "safeTransferFrom",
      "outputs": [],
      "stateMutability": "nonpayable",
      "type": "function"
    },
    {
      "inputs": [
        {
          "internalType": "address",
          "name": "operator",
          "type": "address"
        },
        {
          "internalType": "bool",
          "name": "approved",
          "type": "bool"
        }
      ],
      "name": "setApprovalForAll",
      "outputs": [],
      "stateMutability": "nonpayable",
      "type": "function"
    },
    {
      "inputs": [
        {
          "internalType": "string",
          "name": "_baseUri",
          "type": "string"
        }
      ],
      "name": "setBaseUri",
      "outputs": [],
      "stateMutability": "pure",
      "type": "function"
    },
    {
      "inputs": [
        {
          "internalType": "string",
          "name": "_contractUri",
          "type": "string"
        }
      ],
      "name": "setContractUri",
      "outputs": [],
      "stateMutability": "pure",
      "type": "function"
    },
    {
      "inputs": [
        {
          "internalType": "address",
          "name": "_delegatee",
          "type": "address"
        },
        {
          "internalType": "uint256",
          "name": "_tierId",
          "type": "uint256"
        }
      ],
      "name": "setTierDelegate",
      "outputs": [],
      "stateMutability": "nonpayable",
      "type": "function"
    },
    {
      "inputs": [
        {
          "components": [
            {
              "internalType": "address",
              "name": "delegatee",
              "type": "address"
            },
            {
              "internalType": "uint256",
              "name": "tierId",
              "type": "uint256"
            }
          ],
          "internalType": "struct JBTiered721SetTierDelegatesData[]",
          "name": "_setTierDelegatesData",
          "type": "tuple[]"
        }
      ],
      "name": "setTierDelegates",
      "outputs": [],
      "stateMutability": "nonpayable",
      "type": "function"
    },
    {
      "inputs": [
        {
          "components": [
            {
              "internalType": "uint256",
              "name": "id",
              "type": "uint256"
            },
            {
              "internalType": "uint256",
              "name": "redemptionWeight",
              "type": "uint256"
            }
          ],
          "internalType": "struct DefifaTierRedemptionWeight[]",
          "name": "_tierWeights",
          "type": "tuple[]"
        }
      ],
      "name": "setTierRedemptionWeights",
      "outputs": [],
      "stateMutability": "nonpayable",
      "type": "function"
    },
    {
      "inputs": [
        {
          "internalType": "contract IJBTokenUriResolver",
          "name": "_tokenUriResolver",
          "type": "address"
        }
      ],
      "name": "setTokenUriResolver",
      "outputs": [],
      "stateMutability": "pure",
      "type": "function"
    },
    {
      "inputs": [],
      "name": "store",
      "outputs": [
        {
          "internalType": "contract IJBTiered721DelegateStore",
          "name": "",
          "type": "address"
        }
      ],
      "stateMutability": "view",
      "type": "function"
    },
    {
      "inputs": [
        {
          "internalType": "bytes4",
          "name": "_interfaceId",
          "type": "bytes4"
        }
      ],
      "name": "supportsInterface",
      "outputs": [
        {
          "internalType": "bool",
          "name": "",
          "type": "bool"
        }
      ],
      "stateMutability": "view",
      "type": "function"
    },
    {
      "inputs": [],
      "name": "symbol",
      "outputs": [
        {
          "internalType": "string",
          "name": "",
          "type": "string"
        }
      ],
      "stateMutability": "view",
      "type": "function"
    },
    {
      "inputs": [],
      "name": "tierRedemptionWeights",
      "outputs": [
        {
          "internalType": "uint256[128]",
          "name": "",
          "type": "uint256[128]"
        }
      ],
      "stateMutability": "view",
      "type": "function"
    },
    {
      "inputs": [
        {
          "internalType": "uint256",
          "name": "tokenId",
          "type": "uint256"
        }
      ],
      "name": "tokenURI",
      "outputs": [
        {
          "internalType": "string",
          "name": "",
          "type": "string"
        }
      ],
      "stateMutability": "view",
      "type": "function"
    },
    {
      "inputs": [
        {
          "components": [
            {
              "internalType": "contract IJBPaymentTerminal",
              "name": "terminal",
              "type": "address"
            },
            {
              "internalType": "address",
              "name": "holder",
              "type": "address"
            },
            {
              "internalType": "uint256",
              "name": "projectId",
              "type": "uint256"
            },
            {
              "internalType": "uint256",
              "name": "currentFundingCycleConfiguration",
              "type": "uint256"
            },
            {
              "internalType": "uint256",
              "name": "tokenCount",
              "type": "uint256"
            },
            {
              "internalType": "uint256",
              "name": "totalSupply",
              "type": "uint256"
            },
            {
              "internalType": "uint256",
              "name": "overflow",
              "type": "uint256"
            },
            {
              "components": [
                {
                  "internalType": "address",
                  "name": "token",
                  "type": "address"
                },
                {
                  "internalType": "uint256",
                  "name": "value",
                  "type": "uint256"
                },
                {
                  "internalType": "uint256",
                  "name": "decimals",
                  "type": "uint256"
                },
                {
                  "internalType": "uint256",
                  "name": "currency",
                  "type": "uint256"
                }
              ],
              "internalType": "struct JBTokenAmount",
              "name": "reclaimAmount",
              "type": "tuple"
            },
            {
              "internalType": "bool",
              "name": "useTotalOverflow",
              "type": "bool"
            },
            {
              "internalType": "uint256",
              "name": "redemptionRate",
              "type": "uint256"
            },
            {
              "internalType": "string",
              "name": "memo",
              "type": "string"
            },
            {
              "internalType": "bytes",
              "name": "metadata",
              "type": "bytes"
            }
          ],
          "internalType": "struct JBRedeemParamsData",
          "name": "",
          "type": "tuple"
        }
      ],
      "name": "totalRedemptionWeight",
      "outputs": [
        {
          "internalType": "uint256",
          "name": "",
          "type": "uint256"
        }
      ],
      "stateMutability": "view",
      "type": "function"
    },
    {
      "inputs": [
        {
          "internalType": "address",
          "name": "from",
          "type": "address"
        },
        {
          "internalType": "address",
          "name": "to",
          "type": "address"
        },
        {
          "internalType": "uint256",
          "name": "tokenId",
          "type": "uint256"
        }
      ],
      "name": "transferFrom",
      "outputs": [],
      "stateMutability": "nonpayable",
      "type": "function"
    },
    {
      "inputs": [
        {
          "internalType": "address",
          "name": "newOwner",
          "type": "address"
        }
      ],
      "name": "transferOwnership",
      "outputs": [],
      "stateMutability": "nonpayable",
      "type": "function"
    }
  ],
  "bytecode": {
    "object": "0x608080604052346100655760078054336001600160a01b03198083168217909355906001600160a01b03167f8be0079c531659141344cd1fd0a4f28419497f9722a3daafe3b4186f6b6457e0600080a33090608d541617608d556151a0908161006b8239f35b600080fdfe6080604052600436101561001257600080fd5b60003560e01c806301ffc9a71461030257806306fdde03146102fd578063081812fc146102f8578063095ea7b3146102f35780631d153ca4146102ee57806323b872dd146102e95780632407497e146102e45780632a55205a146102df5780632a596e53146102da5780632b13c58f146102d55780632f441500146102d05780633fafa127146102cb57806342842e0e146102c65780634f228e11146102c157806354c6d1f5146102bc578063557e7155146102b75780636352211e146102b2578063640abacd146102ad57806364640c1e146102a857806370a08231146102a3578063715018a61461029e5780637ba62bf91461029957806382732b6d146102945780638da5cb5b1461028f5780639494bf721461028a57806394c5c5ca1461028557806395d89b4114610280578063975057e71461027b5780639df4546814610276578063a0bcfc7f14610244578063a22cb46514610271578063a51cfd181461026c578063aa4fb15b14610267578063ab951e3914610262578063b88d4fde1461025d578063c41c2f2414610258578063c74b13d914610253578063c87b56dd1461024e578063ca323efe14610249578063ccb4807b14610244578063d1704baf1461023f578063d31cc52c1461023a578063d40e714614610235578063d46cf17114610230578063da9ee8b71461022b578063e985e9c5146102265763f2fde38b1461022157600080fd5b611e75565b611e0b565b611cf3565b611c37565b611b7c565b611b4e565b611a85565b61138a565b61176e565b61171c565b61166a565b611643565b6115db565b61155e565b61153f565b6114b5565b6113e7565b611305565b6112de565b611239565b6111fd565b6111e0565b6111b9565b61116c565b611115565b61105b565b611034565b611016565b610ff7565b610fd9565b610fb2565b610f94565b610f6e565b610f46565b610f28565b610e95565b610967565b6108a8565b6107de565b6107c2565b61078e565b61073b565b61064e565b610601565b610522565b61031e565b6001600160e01b031981160361031957565b600080fd5b34610319576020600319360112610319576103896001600160e01b031960043561034781610307565b1663b3bcbb7960e01b8114908115610499575b811561046f575b8115610445575b811561041b575b811561038d575b5060405190151581529081906020820190565b0390f35b7f80ac58cd000000000000000000000000000000000000000000000000000000008114915081156103f1575b81156103c7575b5038610376565b7f01ffc9a700000000000000000000000000000000000000000000000000000000915014386103c0565b7f5b5e139f00000000000000000000000000000000000000000000000000000000811491506103b9565b7f2a55205a000000000000000000000000000000000000000000000000000000008114915061036f565b7f2b13c58f0000000000000000000000000000000000000000000000000000000081149150610368565b7fda9ee8b70000000000000000000000000000000000000000000000000000000081149150610361565b7f71700c69000000000000000000000000000000000000000000000000000000008114915061035a565b600091031261031957565b919082519283825260005b8481106104fa575050601f19601f8460006020809697860101520116010190565b6020818301810151848301820152016104d9565b90602061051f9281815201906104ce565b90565b34610319576000806003193601126105fe576040519080805461054481613667565b808552916001918083169081156105d4575060011461057a575b6103898561056e81870382610de3565b6040519182918261050e565b80809450527f290decd9548b62a8d60345a988386fc84ba6bc95484008f6362f93160ef3e5635b8284106105bc57505050810160200161056e8261038961055e565b805460208587018101919091529093019281016105a1565b8695506103899693506020925061056e94915060ff191682840152151560051b820101929361055e565b80fd5b3461031957602060031936011261031957602061061f6004356136a1565b6001600160a01b0360405191168152f35b6001600160a01b0381160361031957565b359061064c82610630565b565b346103195760406003193601126103195760043561066b81610630565b6024356001600160a01b03806106808361361d565b168091841614610711578033141590816106cf575b506106a5576106a391614149565b005b60046040517fe5fa0e35000000000000000000000000000000000000000000000000000000008152fd5b9050600052600460205261070b610707610700336040600020906001600160a01b0316600052602052604060002090565b5460ff1690565b1590565b38610695565b60046040517f133f8be9000000000000000000000000000000000000000000000000000000008152fd5b346103195760006003193601126103195760206001600160a01b03608d5416604051908152f35b60031960609101126103195760043561077a81610630565b9060243561078781610630565b9060443590565b346103195761079c36610762565b906107a7823361371b565b156106a5576106a392613e3c565b60c4359061064c82610630565b34610319576020600319360112610319576106a3600435610630565b3461031957604080600319360112610319576064816001600160a01b03608e54168151928380927f538bd5ea000000000000000000000000000000000000000000000000000000008252306004830152600435602483015260243560448301525afa9182156108a357600091829361086e575b50516001600160a01b039190911681526020810191909152604090f35b8161089492945061038993503d851161089c575b61088c8183610de3565b810190612572565b929091610851565b503d610882565b612106565b3461031957602080600319360112610319576004359067ffffffffffffffff90818311610319573660238401121561031957826004013591821161031957602490600693368385871b830101116103195760005b84811061090557005b60019061092761091b3687848b1b870101610e6d565b85815191015190612f53565b016108fc565b90816101e09103126103195790565b6020600319820112610319576004359067ffffffffffffffff82116103195761051f9160040161092d565b6109703661093c565b3415801590610c9a575b8015610c8a575b610c605760a0810135908115610c36576101c0810160246109a28284611f1c565b9050108015610c00575b610bd6576109bd6109c59183611f1c565b81019061204c565b91505080516109eb6109df608f546001600160a01b031690565b6001600160a01b031690565b9060055493604092835180916321d1336160e11b82526101209283918180610a1c60049c8d83019190602083019252565b03915afa9081156108a3578792600092610ba9575b505051149460005b838110610a65578787610a4b8861357e565b610a5157005b610a606106a391608854612206565b608855565b610a6f8187612038565b5190610a95610a88836000526002602052604060002090565b546001600160a01b031690565b6001600160a01b03610aa96109df87612ecb565b911603610b815787610aba83613c01565b610ac9575b6001915001610a39565b610b1d610ae16109df608e546001600160a01b031690565b92875180947f42f9914b000000000000000000000000000000000000000000000000000000008252818060209586958a83019190602083019252565b03915afa80156108a357600193610b4892600092610b54575b50506000526089602052604060002090565b80546001019055610abf565b610b739250803d10610b7a575b610b6b8183610de3565b810190612591565b3880610b36565b503d610b61565b8286517f075fd2b1000000000000000000000000000000000000000000000000000000008152fd5b610bc89250803d10610bcf575b610bc08183610de3565b810190612092565b3880610a31565b503d610bb6565b60046040517f2a84050f000000000000000000000000000000000000000000000000000000008152fd5b5063b3bcbb7960e01b6001600160e01b0319610c2e610c28610c228587611f1c565b90611f6d565b90611f8f565b1614156109ac565b60046040517f76914729000000000000000000000000000000000000000000000000000000008152fd5b60046040517f7df94b86000000000000000000000000000000000000000000000000000000008152fd5b5060055460208201351415610981565b50610cfb6020610cb56109df6006546001600160a01b031690565b6005546040517f6e49181f000000000000000000000000000000000000000000000000000000008152600481019190915233602482015292839190829081906044820190565b03915afa9081156108a357600091610d15575b501561097a565b610d36915060203d8111610d3c575b610d2e8183610de3565b810190612eb6565b38610d0e565b503d610d24565b634e487b7160e01b600052604160045260246000fd5b6040810190811067ffffffffffffffff821117610d7557604052565b610d43565b6080810190811067ffffffffffffffff821117610d7557604052565b67ffffffffffffffff8111610d7557604052565b6020810190811067ffffffffffffffff821117610d7557604052565b611000810190811067ffffffffffffffff821117610d7557604052565b90601f601f19910116810190811067ffffffffffffffff821117610d7557604052565b604051906101c0820182811067ffffffffffffffff821117610d7557604052565b6040519061064c82610d59565b60405190610120820182811067ffffffffffffffff821117610d7557604052565b67ffffffffffffffff8111610d755760051b60200190565b919082604091031261031957604051610e8581610d59565b6020808294803584520135910152565b3461031957602080600319360112610319576004359067ffffffffffffffff8211610319573660238301121561031957816004013591610ed483610e55565b91604093610ee485519485610de3565b80845260248285019160061b8401019236841161031957602401905b838210610f10576106a385612c49565b828691610f1d3685610e6d565b815201910190610f00565b34610319576000600319360112610319576020600554604051908152f35b34610319576106a3610f5736610762565b9060405192610f6584610daa565b600084526136c4565b34610319576020600319360112610319576020610f8c6004356125ee565b604051908152f35b3461031957602060031936011261031957602061061f6004356124d8565b346103195760006003193601126103195760206001600160a01b03608f5416604051908152f35b3461031957602060031936011261031957602061061f60043561361d565b34610319576000600319360112610319576020604051633b9aca008152f35b34610319576000600319360112610319576020609054604051908152f35b3461031957602060031936011261031957611050600435610630565b602060405160008152f35b34610319576000806003193601126105fe57611075614bcf565b806001600160a01b036007546001600160a01b03198116600755167f8be0079c531659141344cd1fd0a4f28419497f9722a3daafe3b4186f6b6457e08280a380f35b81601f82011215610319578035916110ce83610e55565b926110dc6040519485610de3565b808452602092838086019260051b820101928311610319578301905b828210611106575050505090565b813581529083019083016110f8565b346103195760406003193601126103195767ffffffffffffffff600435818111610319576111479036906004016110b7565b9060243590811161031957602091611166610f8c92369060040161092d565b50612483565b3461031957604060031936011261031957602060043561118b81610630565b6001600160a01b03809116600052608a82526040600020602435600052825260406000205416604051908152f35b346103195760006003193601126103195760206001600160a01b0360075416604051908152f35b34610319576111ee3661093c565b506020604051633b9aca008152f35b3461031957602060031936011261031957600435600052608c60205260206001600160e01b036112306040600020614e46565b16604051908152f35b34610319576000806003193601126105fe576040519080600180549161125e83613667565b808652928281169081156105d45750600114611284576103898561056e81870382610de3565b92508083527fb10e2d527612073b26eecdfd717e6a320cf44b4afac2b0732d9fcbe2b7fa0cf65b8284106112c657505050810160200161056e8261038961055e565b805460208587018101919091529093019281016112ab565b346103195760006003193601126103195760206001600160a01b03608e5416604051908152f35b346103195760006003193601126103195760405161132281610dc6565b611000809136903760405160086000825b608082106113745750505061134781610dc6565b60405190600090825b6080831061135d57505050f35b600190825181526020809101920192019190611350565b6001602081928554815201930191019091611333565b346103195760206003193601126103195760043567ffffffffffffffff8082116103195736602383011215610319578160040135908111610319573691016024011161031957005b8015150361031957565b359061064c826113d2565b346103195760406003193601126103195760043561140481610630565b602435611410816113d2565b6001600160a01b0382169182331461148b5761144c903360005260046020526040600020906001600160a01b0316600052602052604060002090565b9015159060ff1981541660ff83161790556040519081527f17307eab39ab6107e8899845ad3d59bd9653f200f220920489ca2b5937696c3160203392a3005b60046040517f0df0273a000000000000000000000000000000000000000000000000000000008152fd5b34610319576114cb6114c63661093c565b612213565b6040929192805193849384526114ed60209160608387015260608601906104ce565b90848203838601528080855193848152019401926000905b8382106115125786860387f35b845180516001600160a01b0316875283015186840152879650948501949382019360019190910190611505565b34610319576040600319360112610319576106a3602435600435612f53565b34610319576040600319360112610319576106a360043561157e81610630565b60243590336132d7565b67ffffffffffffffff8111610d7557601f01601f191660200190565b9291926115b082611588565b916115be6040519384610de3565b829481845281830111610319578281602093846000960137010152565b34610319576080600319360112610319576004356115f881610630565b60243561160481610630565b6064359167ffffffffffffffff83116103195736602384011215610319576116396106a39336906024816004013591016115a4565b91604435916136c4565b346103195760006003193601126103195760206001600160a01b0360065416604051908152f35b3461031957602080600319360112610319576004359067ffffffffffffffff82116103195736602383011215610319578160040135916116a983610e55565b916040936116b985519485610de3565b80845260248285019160061b8401019236841161031957602401905b8382106116e5576106a385612ed5565b85823603126103195782869182516116fc81610d59565b843561170781610630565b815282850135838201528152019101906116d5565b34610319576020600319360112610319576117386004356141b3565b600060405161174681610daa565b5261038960405161175681610daa565b600081526040519182916020835260208301906104ce565b34610319576040600319360112610319576001600160a01b0360043561179381610630565b16600052608b602052604060002060243560005260205260206001600160e01b036112306040600020614e46565b6024359061064c82610630565b9080601f830112156103195781602061051f933591016115a4565b6084359061064c82610630565b359069ffffffffffffffffffff8216820361031957565b359065ffffffffffff8216820361031957565b359064ffffffffff8216820361031957565b359061ffff8216820361031957565b359060ff8216820361031957565b919091608090818185031261031957604080519261186c84610d7a565b8395833567ffffffffffffffff811161031957840181601f820112156103195780359061189882610e55565b926118a586519485610de3565b82845260209485850191866101c080960285010193818511610319578701925b8484106118f857505050928752505050808301359084015280820135908301526060906118f3908201610641565b910152565b85848303126103195787869161190c610e06565b611915876117f6565b815261192283880161180d565b838201526119318c8801611820565b8c8201526060611942818901611832565b90820152611951868801611832565b8682015260a0611962818901610641565b9082015260c0611973818901611841565b9082015260e0611984818901610641565b9082015261010080880135908201526101206119a1818901611841565b908201526101406119b38189016113dc565b908201526101606119c58189016113dc565b908201526101806119d78189016113dc565b908201526101a06119e98189016113dc565b908201528152019301926118c5565b610124359061064c82610630565b7ffffffffffffffffffffffffffffffffffffffffffffffffffffffffffffffebc60809101126103195760405190611a3d82610d7a565b8161014435611a4b816113d2565b815261016435611a5a816113d2565b602082015261018435611a6c816113d2565b604082015260606101a43591611a81836113d2565b0152565b34610319576101c060031936011261031957611a9f6117c1565b60443567ffffffffffffffff9182821161031957611ac2600492369084016117ce565b60643584811161031957611ad990369085016117ce565b611ae16117e9565b60a43586811161031957611af890369087016117ce565b611b006107b5565b9160e43588811161031957611b1890369089016117ce565b936101043598891161031957611b346106a39936908a0161184f565b95611b3d6119f8565b97611b4736611a06565b99356128f3565b3461031957604060031936011261031957600435600052608c6020526020610f8c6024356040600020614c6f565b34610319576060600319360112610319576001600160a01b03600435611ba181610630565b16600052608b60205260406000206024356000526020526020610f8c6044356040600020614c6f565b91908252611be460209160608385015260608401906104ce565b90604092838184039101528080855193848152019401926000905b838210611c0e57505050505090565b845180516001600160a01b03168752830151868401529485019493820193600190910190611bff565b346103195760206003198181360112610319576004359067ffffffffffffffff8211610319576101a090823603011261031957611c85611c7e610164830183600401611f1c565b36916115a4565b60405190611c9282610d59565b6001825260005b848110611cdd57509061038991610124946000611cb4610e27565b30815291820152611cc483612026565b52611cce82612026565b50604051948594013584611bca565b8490611ce7611fbb565b82828601015201611c99565b600319602081360112610319576004359067ffffffffffffffff82116103195761020090823603011261031957600554341590811591611d7f575b8115611d70575b50611d46576106a3906004016146a5565b60046040517fc715ec6c000000000000000000000000000000000000000000000000000000008152fd5b90506024820135141538611d35565b9050611d966109df6006546001600160a01b031690565b6040517f6e49181f0000000000000000000000000000000000000000000000000000000081526004810183905233602482015290602090829060449082905afa9081156108a357600091611ded575b501590611d2e565b611e05915060203d8111610d3c57610d2e8183610de3565b38611de5565b3461031957604060031936011261031957602060ff611e69600435611e2f81610630565b6001600160a01b0360243591611e4483610630565b16600052600484526040600020906001600160a01b0316600052602052604060002090565b54166040519015158152f35b3461031957602060031936011261031957600435611e9281610630565b611e9a614bcf565b6001600160a01b03811615611eb2576106a390614c27565b608460405162461bcd60e51b815260206004820152602660248201527f4f776e61626c653a206e6577206f776e657220697320746865207a65726f206160448201527f64647265737300000000000000000000000000000000000000000000000000006064820152fd5b9035907fffffffffffffffffffffffffffffffffffffffffffffffffffffffffffffffe181360301821215610319570180359067ffffffffffffffff82116103195760200191813603831361031957565b906024116103195760200190600490565b906044116103195760400190600490565b6001600160e01b03199035818116939260048110611fac57505050565b60040360031b82901b16169150565b60405190611fc882610d59565b60006020838281520152565b60405190611fe182610d59565b600182528160005b6020908181101561200b57602091611fff611fbb565b90828501015201611fe9565b505050565b634e487b7160e01b600052603260045260246000fd5b8051156120335760200190565b612010565b80518210156120335760209160051b010190565b9160608383031261031957823592602081013561206881610307565b92604082013567ffffffffffffffff81116103195761051f92016110b7565b519061064c82610630565b9081610120910312610319576120a6610e34565b90805182526020810151602083015260408101516040830152606081015160608301526080810151608083015260a081015160a083015260c081015160c08301526120f360e08201612087565b60e0830152610100809101519082015290565b6040513d6000823e3d90fd5b519061064c826113d2565b90816101c091031261031957612131610e06565b90805182526020810151602083015260408101516040830152606081015160608301526080810151608083015260a081015160a083015260c081015160c083015261217e60e08201612087565b60e0830152610100808201519083015261012061219c818301612087565b90830152610140808201519083015261016080820151908301526101806121c4818301612112565b908301526121d66101a0809201612112565b9082015290565b634e487b7160e01b600052601160045260246000fd5b906001820180921161220157565b6121dd565b9190820180921161220157565b9060009060006080840135612459576101c0928385019360246122368688611f1c565b905010801561242f575b610bd65761224c611fd4565b946122816109bd61225b610e27565b3081529260209387858201526122708a612026565b5261227a89612026565b5089611f1c565b9591505061229a6109df608f546001600160a01b031690565b92604089815180966321d1336160e11b825261012097889181806122ca8860049801358883019190602083019252565b03915afa9687156108a3578597612410575b50506001809651146123285750505050505050611c7e6123186123249261231261230c60885460c08a0135612206565b91612483565b906150c5565b946101a0810190611f1c565b9190565b9599969392919084519483976123496109df608e546001600160a01b031690565b915b878a1061236e5750505050505050505050611c7e816101a0612324930190611f1c565b9091929394959697989c6123b890868f6123889085612038565b5187518094819263b67cb04760e01b835230898401602090939291936001600160a01b0360408201951681520152565b0381885afa9182156108a3578b928a918a916123e3575b500151019d0198979695949392919061234b565b6124039150893d8b11612409575b6123fb8183610de3565b81019061211d565b386123cf565b503d6123f1565b612427929750803d10610bcf57610bc08183610de3565b9438806122dc565b5063b3bcbb7960e01b6001600160e01b0319612451610c28610c22898b611f1c565b161415612240565b60046040517f4fc178d8000000000000000000000000000000000000000000000000000000008152fd5b9060009180516000915b81831061249957505050565b9091936124af6124a98684612038565b516125ee565b81018091116122015793600101919061248d565b90816020910312610319575161051f81610630565b608e546040516308ed6c0160e41b8152306004820152602481018390526001600160a01b0392916020908290604490829087165afa9081156108a357600091612544575b5082811661253e5750612539906000526002602052604060002090565b541690565b91505090565b612565915060203d811161256b575b61255d8183610de3565b8101906124c3565b3861251c565b503d612553565b9190826040910312610319576020825161258b81610630565b92015190565b90816020910312610319575190565b90600019820191821161220157565b9190820391821161220157565b60808110156120335760080190600090565b81156125d8570490565b634e487b7160e01b600052601260045260246000fd5b61264160206126086109df608e546001600160a01b031690565b92604051809381927f42f9914b000000000000000000000000000000000000000000000000000000008352600483019190602083019252565b0381855afa9081156108a357600091612736575b50604051633a39e4d160e11b8152306004820152602481018290526101c0928390829060449082905afa9283156108a357600093612717575b50506126ae6126a461269f836125a0565b6125bc565b90549060031b1c90565b90811561270f5760808301906126cc606083519501948551906125af565b15612706576126f96126e861051f9561270094519051906125af565b916000526089602052604060002090565b5490612206565b906125ce565b50505050600090565b505050600090565b61272e929350803d10612409576123fb8183610de3565b90388061268e565b61274e915060203d8111610b7a57610b6b8183610de3565b38612655565b81601f820112156103195780519161276b83610e55565b926127796040519485610de3565b808452602092838086019260051b820101928311610319578301905b8282106127a3575050505090565b81518152908301908301612795565b9060208282031261031957815167ffffffffffffffff81116103195761051f9201612754565b60208082019080835283518092528060408094019401926000905b83821061280257505050505090565b9091929394836101c06001926128e6895161282983825169ffffffffffffffffffff169052565b8085015165ffffffffffff16838601528087015164ffffffffff168388015260608181015161ffff169084015260808181015161ffff169084015260a0818101516001600160a01b03169084015260c08181015160ff169084015260e0818101516001600160a01b03169084015261010081810151908401526101208082015160ff16908401526101408181015115159084015261016081810151151590840152610180818101511515908401526101a090810151151590830152565b01960194939201906127f3565b9092989796949391986129116109df608d546001600160a01b031690565b3014610319576001600160a01b03998a6129366109df608e546001600160a01b031690565b1661031957612964946129489361433b565b6001600160a01b03166001600160a01b0319608f541617608f55565b612984856001600160a01b03166001600160a01b0319608e541617608e55565b6129916020850151609055565b8051612bdf575b508051612b75575b50838116612b08575b50518051612a99575b50825115158015612a8c575b8015612a7f575b8015612a72575b6129dd575b50505061064c33614c27565b16803b1561031957604080517fcb827e320000000000000000000000000000000000000000000000000000000081528351151560048201526020840151151560248201529083015115156044820152606090920151151560648301526000908290608490829084905af180156108a357612a59575b80806129d1565b80612a66612a6c92610d96565b806104c3565b38612a52565b50606083015115156129cc565b50604083015115156129c5565b50602083015115156129be565b6000612ad291604051809381927f453b5abe000000000000000000000000000000000000000000000000000000008352600483016127d8565b0381838787165af180156108a357156129b257612b01903d806000833e612af98183610de3565b8101906127b2565b50386129b2565b838316803b15610319576040517fd84a72c00000000000000000000000000000000000000000000000000000000081526001600160a01b039290921660048301526000908290602490829084905af180156108a357156129a95780612a66612b6f92610d96565b386129a9565b848416803b1561031957612bbd6000929183926040519485809481937fd67b78fd0000000000000000000000000000000000000000000000000000000083526004830161050e565b03925af180156108a357156129a05780612a66612bd992610d96565b386129a0565b858516803b1561031957612c276000929183926040519485809481937f6262bcb20000000000000000000000000000000000000000000000000000000083526004830161050e565b03925af180156108a357156129985780612a66612c4392610d96565b38612998565b612c51614bcf565b612c666109df608f546001600160a01b031690565b60055491604091825180916321d1336160e11b82526101209283918180612c9660049a8b83019190602083019252565b03915afa9081156108a3578592600092612e55575b50505110612e2e57612cbb612e72565b612cd06109df608e546001600160a01b031690565b82517ff1bea54f0000000000000000000000000000000000000000000000000000000081523085820190815290916020918291849182908190850103915afa9182156108a357600092612e0f575b50909160009181519183945b838610612d6b5750505050633b9aca00915011612d45575050565b517f6ff44e97000000000000000000000000000000000000000000000000000000008152fd5b9091929381612d7a8785612038565b515111612de757612ddb600191612dc786612d958a88612038565b510151612daf61269f612da88c8a612038565b51516125a0565b90919060001983549160031b92831b921b1916179055565b85612dd28987612038565b51015190612206565b95019493929190612d2a565b8787517f52385374000000000000000000000000000000000000000000000000000000008152fd5b81612e279293503d8411610b7a57610b6b8183610de3565b9038612d1e565b50517ff8228d40000000000000000000000000000000000000000000000000000000008152fd5b612e6b9250803d10610bcf57610bc08183610de3565b3880612cab565b60085b60888110612e805750565b60008155600101612e75565b818110612e97575050565b60008155600101612e8c565b8181029291811591840414171561220157565b90816020910312610319575161051f816113d2565b3561051f81610630565b805190612ee0611fbb565b5060005b828110612ef057505050565b612efa8183612038565b51906001600160a01b038083511615612f2957826020612f2392600195511691015190336132d7565b01612ee4565b60046040517f53d304f4000000000000000000000000000000000000000000000000000000008152fd5b612f686109df608f546001600160a01b031690565b90612f9760055492604093845180926321d1336160e11b82528180610120968795600483019190602083019252565b03915afa9182156108a357612fc89260ff92610100926000926132ba575b5050015160f41c1660018091811c161490565b61329157612fe16109df608e546001600160a01b031690565b82517f136e651c0000000000000000000000000000000000000000000000000000000081523060048201526024810183905290602090829060449082905afa9081156108a357600091613273575b50613063610a8883613054846001600160a01b0316600052608a602052604060002090565b90600052602052604060002090565b6001600160a01b0391828216159586613204575b61308c6109df608e546001600160a01b031690565b86517fbaa7e80e000000000000000000000000000000000000000000000000000000008152600481018790526024810183905294906000908690604490829084905af19485156108a3576000956131e9575b5060005b82811061319a575050506131016109df608e546001600160a01b031690565b9451633a39e4d160e11b8152306004820152602481018590526101c09690958790879060449082905afa9586156108a35761064c9760009761316c575b50509160209161315e9493156000146131645750945b0151905190612ea3565b916133bf565b905094613154565b61315e9594929750602093918161318e92903d10612409576123fb8183610de3565b9691939481935061313e565b806131a760019288612038565b516131b2818761379c565b8951338152848716918a917f031e1988c95a91ec4d655ff63a8f87a80bc9daf28d95ae10ee08c0022cfb5c8b90602090a4016130e2565b6131fd91953d8091833e612af98183610de3565b93386130de565b6132448261322987613054836001600160a01b0316600052608a602052604060002090565b906001600160a01b03166001600160a01b0319825416179055565b8382166000817f3134e8a2e6d97e929a7e54011ea5485d7d196dd5f0ba4d4ef95803e8e3fc257f8280a4613077565b61328b915060203d811161256b5761255d8183610de3565b3861302f565b600482517fe96092b8000000000000000000000000000000000000000000000000000000008152fd5b6132d09250803d10610bcf57610bc08183610de3565b3880612fb5565b6001600160a01b039081166000818152608a602090815260408083208784528252822080548686166001600160a01b03198216811790925592969195919491939282169291869184847f3134e8a2e6d97e929a7e54011ea5485d7d196dd5f0ba4d4ef95803e8e3fc257f8b80a4608e5416916064604051809481937f2e4d0ea800000000000000000000000000000000000000000000000000000000835230600484015260248301528860448301525afa9485156108a35761064c96956133a0575b5050613450565b6133b7929550803d10610b7a57610b6b8183610de3565b923880613399565b9061064c92916000828152608c6020526133dc8460408320614d6f565b505060406001600160a01b039182841615613435575b808052608a602052818120858252602052613426838383205416946001600160a01b0316600052608a602052604060002090565b85825260205220541690613450565b848152608c60205261344986838320614e1e565b50506133f2565b9192906001600160a01b03928382169381168481148015613576575b61356e578591816134fb575b50505082613487575b50505050565b7fed0c1e94c302bdbbd8bbd6a4fb7c3ed335c2292407cd816eadd075d019d0ce04916134c96134da926001600160a01b0316600052608b602052604060002090565b856000526020526040600020614d6f565b6040805192835260208301919091523390820152606090a338808080613481565b613518906001600160a01b0316600052608b602052604060002090565b826000526020527fed0c1e94c302bdbbd8bbd6a4fb7c3ed335c2292407cd816eadd075d019d0ce0461354e856040600020614e1e565b6040805192835260208301919091523390820152606090a3833880613478565b505050505050565b50831561346c565b6001600160a01b03608e5416803b156103195760405180927f86bc2be3000000000000000000000000000000000000000000000000000000008252602482016020908160048501528251809152816044850193019160005b82811061360657505050509181600081819503925af180156108a3576135f95750565b80612a6661064c92610d96565b8351855287955093810193928101926001016135d6565b60005260026020526001600160a01b0360406000205416801561363d5790565b60046040517fb49aa3b5000000000000000000000000000000000000000000000000000000008152fd5b90600182811c92168015613697575b602083101461368157565b634e487b7160e01b600052602260045260246000fd5b91607f1691613676565b6136aa816141b3565b60005260036020526001600160a01b036040600020541690565b9291906136d1823361371b565b156106a557836136e583836136ea97613e3c565b61424e565b156136f157565b60046040517f6deaf836000000000000000000000000000000000000000000000000000000008152fd5b6001600160a01b038061372d8461361d565b169281831692848414948515613763575b5050831561374d575b50505090565b613759919293506136a1565b1614388080613747565b60ff929550906137929160005260046020526040600020906001600160a01b0316600052602052604060002090565b541692388061373e565b9190916001600160a01b03811690811561391e576137d08460005260026020526001600160a01b0360406000205416151590565b6138f4578360009281845260026020526138038360408620906001600160a01b03166001600160a01b0319825416179055565b837fddf252ad1be2c89b69c2b068fc378daa952ba7f163c4a11628f55a4df523b3ef8180a461386d6138406109df608e546001600160a01b031690565b60405163b67cb04760e01b81523060048201526024810196909652946101c0918290829081906044820190565b0381895afa9182156108a35784926138d7575b50505193803b156138d3576040516330b157e560e21b81526004810195909552600060248601526001600160a01b039190911660448501529192918290606490829084905af180156108a3576135f95750565b8280fd5b6138ed9250803d10612409576123fb8183610de3565b3880613880565b60046040517fbad7c30c000000000000000000000000000000000000000000000000000000008152fd5b60046040517f7208af1e000000000000000000000000000000000000000000000000000000008152fd5b61398e906139616109df608e546001600160a01b031690565b60405163b67cb04760e01b81523060048201526024810194909452926101c0928390829081906044820190565b0381875afa9283156108a357600093613a10575b5050815192803b15610319576040516330b157e560e21b815260048101949094526001600160a01b0382166024850152600060448501819052908490606490829084905af19283156108a35761064c936139fd575b50613b18565b80612a66613a0a92610d96565b386139f7565b613a27929350803d10612409576123fb8183610de3565b9038806139a2565b90613a7691613a496109df608e546001600160a01b031690565b60405163b67cb04760e01b81523060048201526024810195909552936101c0938490829081906044820190565b0381885afa9384156108a357600094613af9575b5050825193803b15610319576040516330b157e560e21b815260048101959095526001600160a01b038281166024870152831660448601526000908590606490829084905af19384156108a35761064c94613ae6575b50613b84565b80612a66613af392610d96565b38613ae0565b613b10929450803d10612409576123fb8183610de3565b913880613a8a565b6001600160a01b0380911691821561200b5761064c9260a0825192015192600091838352608c602052613b4e8560408520614e1e565b50508252608a60205260408220838352602052604081818420541692808052608a60205281812085825260205220541690613450565b916001600160a01b038093169182156134815761064c93604060a084519401519482841615613be4575b6000908152608a602052818120858252602052613426838383205416946001600160a01b0316600052608a602052604060002090565b84600052608c602052613bfa8683600020614e1e565b5050613bae565b613c0a8161361d565b906001600160a01b03918281169283613c72575b5081600061064c94613c2f836140f3565b8282526002602052604082206001600160a01b031981541690557fddf252ad1be2c89b69c2b068fc378daa952ba7f163c4a11628f55a4df523b3ef8280a4613948565b613c876109df608e546001600160a01b031690565b60405163b67cb04760e01b8152306004820152602481018590529091906101c08082604481875afa80156108a357613cce926101a092600092613e1f575b50500151151590565b613dab575b6040516308ed6c0160e41b815230600482015260248101859052602081604481865afa9081156108a357600091613d8d575b5016613c1e57803b15610319576040517f8cec7d39000000000000000000000000000000000000000000000000000000008152600481018490526001600160a01b0383166024820152906000908290604490829084905af180156108a35761064c948492600092613d7a575b50945050613c1e565b80612a66613d8792610d96565b38613d71565b613da5915060203d811161256b5761255d8183610de3565b38613d05565b613deb613dc36109df608f546001600160a01b031690565b60055460405180926321d1336160e11b82528180610120968795600483019190602083019252565b03915afa80156108a357613e01575b5050613cd3565b81613e1792903d10610bcf57610bc08183610de3565b503880613dfa565b613e359250803d10612409576123fb8183610de3565b3880613cc5565b9190613e478261361d565b926001600160a01b03809481831691829116036140c95784831694851561409f5781613ed5575b5061064c948491613e7e836140f3565b826000526002602052613eab856040600020906001600160a01b03166001600160a01b0319825416179055565b7fddf252ad1be2c89b69c2b068fc378daa952ba7f163c4a11628f55a4df523b3ef600080a4613a2f565b613eea6109df608e546001600160a01b031690565b60405163b67cb04760e01b8152306004820152602481018790529091906101c08082604481875afa80156108a357613f30926101a092600092613e1f5750500151151590565b61400c575b6040516308ed6c0160e41b815230600482015260248101879052602081604481865afa9081156108a357600091613fee575b5016613e6e5794853b15610319576040517f8cec7d39000000000000000000000000000000000000000000000000000000008152600481018690526001600160a01b0384166024820152956000908790604490829084905af19182156108a35761064c968693613fdb575b50915094613e6e565b80612a66613fe892610d96565b38613fd2565b614006915060203d811161256b5761255d8183610de3565b38613f67565b614024613dc36109df608f546001600160a01b031690565b03915afa9182156108a3576140539260ff9261010092600092614082575b5050015160f41c1660018091161490565b15613f355760046040517f18cdaf97000000000000000000000000000000000000000000000000000000008152fd5b6140989250803d10610bcf57610bc08183610de3565b3880614042565b60046040517f2c955427000000000000000000000000000000000000000000000000000000008152fd5b60046040517fa195bc53000000000000000000000000000000000000000000000000000000008152fd5b80600052600360205260406000206001600160a01b0319815416905560006001600160a01b036141228361361d565b167f8c5be1e5ebec7d5bd14f71427d1e84f3dd0314c0f7b2291e5b200ac8c7c3b9258280a4565b816000526003602052614176816040600020906001600160a01b03166001600160a01b0319825416179055565b6001600160a01b03806141888461361d565b169116907f8c5be1e5ebec7d5bd14f71427d1e84f3dd0314c0f7b2291e5b200ac8c7c3b925600080a4565b6141d39060005260026020526001600160a01b0360406000205416151590565b1561363d57565b90816020910312610319575161051f81610307565b909261051f94936080936001600160a01b038092168452166020830152604082015281606082015201906104ce565b3d15614249573d9061422f82611588565b9161423d6040519384610de3565b82523d6000602084013e565b606090565b92909190823b15614332576142a29260209260006001600160a01b036040518097819682957f150b7a02000000000000000000000000000000000000000000000000000000009b8c855233600486016141ef565b0393165af160009181614302575b506142f4576142bd61421e565b805190816142ef5760046040517f6deaf836000000000000000000000000000000000000000000000000000000008152fd5b602001fd5b6001600160e01b0319161490565b61432491925060203d811161432b575b61431c8183610de3565b8101906141da565b90386142b0565b503d614312565b50505050600190565b91929092805167ffffffffffffffff8111610d7557600091614366826143618554613667565b614464565b60209081601f84116001146143d2575092826143a6936143ab969361064c99989684926143c7575b50506000198260011b9260031b1c191617905561451a565b600555565b6001600160a01b03166001600160a01b03196006541617600655565b01519050388061438e565b600080529190601f1984167f290decd9548b62a8d60345a988386fc84ba6bc95484008f6362f93160ef3e5639386905b82821061444c575050936143ab969361064c99989693600193836143a69810614433575b505050811b01905561451a565b015160001960f88460031b161c19169055388080614426565b80600186978294978701518155019601940190614402565b90601f8211614471575050565b61064c91600080527f290decd9548b62a8d60345a988386fc84ba6bc95484008f6362f93160ef3e563906020601f840160051c830193106144ba575b601f0160051c0190612e8c565b90915081906144ad565b90601f82116144d1575050565b61064c9160016000527fb10e2d527612073b26eecdfd717e6a320cf44b4afac2b0732d9fcbe2b7fa0cf6906020601f840160051c830193106144ba57601f0160051c0190612e8c565b90815167ffffffffffffffff8111610d75576001906145428161453d8454613667565b6144c4565b602080601f831160011461457c575081929394600092614571575b505060001982841b9260031b1c1916179055565b01519050388061455d565b90601f198316956145af60016000527fb10e2d527612073b26eecdfd717e6a320cf44b4afac2b0732d9fcbe2b7fa0cf690565b926000905b8882106145ea57505083859697106145d1575b505050811b019055565b015160001960f88460031b161c191690553880806145c7565b8087859682949686015181550195019301906145b4565b9160a083830312610319578235926020918282013593604083013561462581610307565b9360608401359360808101359067ffffffffffffffff821161031957019180601f8401121561031957823561465981610e55565b936146676040519586610de3565b818552838086019260051b820101928311610319578301905b82821061468e575050505090565b83809161469a84611832565b815201910190614680565b60905460c082013503614a10576101e0810160446146c38284611f1c565b905011806149c8575b6146d4575050565b6146e16146e99183611f1c565b810190614601565b935091505081511561499e576000908015614998576001600160a01b039150165b61472861472161471984612026565b5161ffff1690565b61ffff1690565b60008091845193825b85811061478a575050505050509061475a9160806147526101808401612ecb565b920135614ab5565b61476057565b60046040517f6d5e09a4000000000000000000000000000000000000000000000000000000008152fd5b61479a614721614719838a612038565b83036148e6575b846147ce610a88856130546147b58d612ecb565b6001600160a01b0316600052608a602052604060002090565b6001600160a01b038a8186168015928c8c851580966148db575b6147fd575b5050505050505050600101614731565b91888b8098979695936148149b9e9a9b8d966125a0565b831092836148b4575b50505060001461484b575050505050505060019161483a91612206565b935b90508438808a81808c8c6147ed565b9184879281959461487a9b97926148a7575b505061488e575b5050506000146148845761315e91508593612206565b600160009361483c565b61315e9193612206565b61489a61489f93612ecb565b6132d7565b8c8488614864565b881614159050388061485d565b61ffff9293506148d0916148ca614719926121f3565b90612038565b16148f88908e61481d565b5082871615156147e8565b935090506148fa6147216147198588612038565b9061495b6149136109df608e546001600160a01b031690565b614920614719878a612038565b6040518092633a39e4d160e11b825281806101c0968795306004840190929161ffff6020916001600160a01b03604085019616845216910152565b03915afa9081156108a35760209260009261497b575b50500151936147a1565b6149919250803d10612409576123fb8183610de3565b3880614971565b5061470a565b60046040517f3d04bd1f000000000000000000000000000000000000000000000000000000008152fd5b507f96d2913e000000000000000000000000000000000000000000000000000000006001600160e01b0319614a09610c28614a038587611f1c565b90611f7e565b16146146cc565b60046040517f79cf85c0000000000000000000000000000000000000000000000000000000008152fd5b919060408382031261031957825167ffffffffffffffff81116103195760209161258b918501612754565b929190606084019084526020906060828601528251809152816080860193019160005b828110614a9d57505050506040600091930152565b835161ffff1685529381019392810192600101614a88565b929192614acd6109df608e546001600160a01b031690565b9160409081519586947feaa19ab30000000000000000000000000000000000000000000000000000000086526000958691818381614b0f888b60048401614a65565b03925af180156108a35785978691614ba7575b50968051955b868110614b385750505050505050565b80614b4560019284612038565b51614b50818661379c565b61ffff614b606147198489612038565b88518a81523360208201526001600160a01b0388169391909216917f598baf7bf150ca2f42be9e9f8f55e81d45f5715c3ff22bf46d697fabec7f31d690604090a401614b28565b9050614bc69197503d8087833e614bbe8183610de3565b810190614a3a565b96909638614b22565b6001600160a01b03600754163303614be357565b606460405162461bcd60e51b815260206004820152602060248201527f4f776e61626c653a2063616c6c6572206973206e6f7420746865206f776e65726044820152fd5b600754906001600160a01b0380911691826001600160a01b0319821617600755167f8be0079c531659141344cd1fd0a4f28419497f9722a3daafe3b4186f6b6457e0600080a3565b9043811015614d2b57614c819061504a565b90805491600063ffffffff8092165b848210614cd75750505081614ca757506000919050565b614ccc614cd391614cbf6001600160e01b03946125a0565b9060005260206000200190565b5460201c90565b1690565b9091938083169080841860011c820180921161220157846000528286614d088460206000200163ffffffff90541690565b161115614d195750935b9190614c90565b949250614d25906121f3565b91614d12565b606460405162461bcd60e51b815260206004820152602060248201527f436865636b706f696e74733a20626c6f636b206e6f7420796574206d696e65646044820152fd5b6001600160e01b03929183614d8383614e46565b1690810180911161220157614d974361504a565b91848211614db457849283614dad931691614f30565b9316921690565b608460405162461bcd60e51b815260206004820152602760248201527f53616665436173743a2076616c756520646f65736e27742066697420696e203260448201527f32342062697473000000000000000000000000000000000000000000000000006064820152fd5b6001600160e01b03929183614e3283614e46565b1690810390811161220157614d974361504a565b805460009181614e5857505050600090565b6000199282848101116122015760209181522001015460201c90565b90815468010000000000000000811015610d75576001810180845581101561203357600092835260209283902082519284015190931b63ffffffff191663ffffffff9290921691909117910155565b90604051614ed081610d59565b602081935463ffffffff81168352811c910152565b15614eec57565b606460405162461bcd60e51b815260206004820152601760248201527f436865636b706f696e743a20696e76616c6964206b65790000000000000000006044820152fd5b9092919283825480151560001461501f57926020929184614f6b614f66614f59612324986125a0565b8560005260206000200190565b614ec3565b93614f7a855163ffffffff1690565b614f9163ffffffff91828416928391161115614ee5565b614fab614fa2875163ffffffff1690565b63ffffffff1690565b03614fe95750614fdb92614cbf614fc1926125a0565b9063ffffffff63ffffffff1983549260201b169116179055565b01516001600160e01b031690565b91505061501a91615007614ffb610e27565b63ffffffff9093168352565b6001600160e01b03881682860152614e74565b614fdb565b505061504491615030614ffb610e27565b6001600160e01b0385166020830152614e74565b60009190565b63ffffffff9081811161505b571690565b608460405162461bcd60e51b815260206004820152602660248201527f53616665436173743a2076616c756520646f65736e27742066697420696e203360448201527f32206269747300000000000000000000000000000000000000000000000000006064820152fd5b91906000198184098184029182808310920391808303921461515d57633b9aca009081831015615126577f88f2cfb83100cb4e69e7c79c58b316e597157d372fb9787e8e47ce423a2e9c6d94950990828211900360f71b910360091c170290565b60448383604051917f773cc18c00000000000000000000000000000000000000000000000000000000835260048301526024820152fd5b5050633b9aca009004915056fea26469706673582212204d696a5ad18c5815a7d2ad03c466cd1c6c32cd84fc64509613198d5ad6636a1b64736f6c63430008120033",
    "linkReferences": {}
  },
  "methodIdentifiers": {
    "TOTAL_REDEMPTION_WEIGHT()": "640abacd",
    "approve(address,uint256)": "095ea7b3",
    "balanceOf(address)": "70a08231",
    "codeOrigin()": "1d153ca4",
    "didPay((address,uint256,uint256,(address,uint256,uint256,uint256),(address,uint256,uint256,uint256),uint256,address,bool,string,bytes))": "da9ee8b7",
    "didRedeem((address,uint256,uint256,uint256,(address,uint256,uint256,uint256),(address,uint256,uint256,uint256),address,string,bytes))": "2b13c58f",
    "directory()": "c41c2f24",
    "firstOwnerOf(uint256)": "54c6d1f5",
    "fundingCycleStore()": "557e7155",
    "getApproved(uint256)": "081812fc",
    "getPastTierTotalVotes(uint256,uint256)": "d31cc52c",
    "getPastTierVotes(address,uint256,uint256)": "d40e7146",
    "getTierDelegate(address,uint256)": "82732b6d",
    "getTierTotalVotes(uint256)": "94c5c5ca",
    "getTierVotes(address,uint256)": "ca323efe",
    "initialize(uint256,address,string,string,address,string,address,string,((uint80,uint48,uint40,uint16,uint16,address,uint8,address,bytes32,uint8,bool,bool,bool,bool)[],uint256,uint256,address),address,(bool,bool,bool,bool))": "d1704baf",
    "isApprovedForAll(address,address)": "e985e9c5",
    "mintReservesFor((uint256,uint256)[])": "2a596e53",
    "mintReservesFor(uint256,uint256)": "aa4fb15b",
    "name()": "06fdde03",
    "owner()": "8da5cb5b",
    "ownerOf(uint256)": "6352211e",
    "payParams((address,address,(address,uint256,uint256,uint256),uint256,uint256,address,uint256,uint256,string,bytes))": "d46cf171",
    "pricingCurrency()": "64640c1e",
    "projectId()": "3fafa127",
    "redeemParams((address,address,uint256,uint256,uint256,uint256,uint256,(address,uint256,uint256,uint256),bool,uint256,string,bytes))": "a51cfd18",
    "redemptionWeightOf(uint256)": "4f228e11",
    "redemptionWeightOf(uint256[],(address,address,uint256,uint256,uint256,uint256,uint256,(address,uint256,uint256,uint256),bool,uint256,string,bytes))": "7ba62bf9",
    "renounceOwnership()": "715018a6",
    "royaltyInfo(uint256,uint256)": "2a55205a",
    "safeTransferFrom(address,address,uint256)": "42842e0e",
    "safeTransferFrom(address,address,uint256,bytes)": "b88d4fde",
    "setApprovalForAll(address,bool)": "a22cb465",
    "setBaseUri(string)": "a0bcfc7f",
    "setContractUri(string)": "ccb4807b",
    "setTierDelegate(address,uint256)": "ab951e39",
    "setTierDelegates((address,uint256)[])": "c74b13d9",
    "setTierRedemptionWeights((uint256,uint256)[])": "2f441500",
    "setTokenUriResolver(address)": "2407497e",
    "store()": "975057e7",
    "supportsInterface(bytes4)": "01ffc9a7",
    "symbol()": "95d89b41",
    "tierRedemptionWeights()": "9df45468",
    "tokenURI(uint256)": "c87b56dd",
    "totalRedemptionWeight((address,address,uint256,uint256,uint256,uint256,uint256,(address,uint256,uint256,uint256),bool,uint256,string,bytes))": "9494bf72",
    "transferFrom(address,address,uint256)": "23b872dd",
    "transferOwnership(address)": "f2fde38b"
  },
  "id": 0
}