{
  "abi": [
    {
      "inputs": [],
      "stateMutability": "nonpayable",
      "type": "constructor"
    },
    {
      "inputs": [],
      "name": "ALEADY_MINTED",
      "type": "error"
    },
    {
      "inputs": [],
      "name": "APPROVAL_TO_CURRENT_OWNER",
      "type": "error"
    },
    {
      "inputs": [],
      "name": "APPROVE_TO_CALLER",
      "type": "error"
    },
    {
      "inputs": [],
      "name": "BAD_TIER_ORDER",
      "type": "error"
    },
    {
      "inputs": [],
      "name": "BLOCK_NOT_YET_MINED",
      "type": "error"
    },
    {
      "inputs": [],
      "name": "CALLER_NOT_OWNER_OR_APPROVED",
      "type": "error"
    },
    {
      "inputs": [],
      "name": "DELEGATE_ADDRESS_ZERO",
      "type": "error"
    },
    {
      "inputs": [],
      "name": "GAME_ISNT_SCORING_YET",
      "type": "error"
    },
    {
      "inputs": [],
      "name": "INCORRECT_OWNER",
      "type": "error"
    },
    {
      "inputs": [],
      "name": "INVALID_PAYMENT_EVENT",
      "type": "error"
    },
    {
      "inputs": [],
      "name": "INVALID_REDEMPTION_EVENT",
      "type": "error"
    },
    {
      "inputs": [],
      "name": "INVALID_REDEMPTION_METADATA",
      "type": "error"
    },
    {
      "inputs": [],
      "name": "INVALID_REDEMPTION_WEIGHTS",
      "type": "error"
    },
    {
      "inputs": [],
      "name": "INVALID_TIER_ID",
      "type": "error"
    },
    {
      "inputs": [],
      "name": "INVALID_TOKEN_ID",
      "type": "error"
    },
    {
      "inputs": [],
      "name": "MINT_TO_ZERO",
      "type": "error"
    },
    {
      "inputs": [],
      "name": "NOTHING_TO_CLAIM",
      "type": "error"
    },
    {
      "inputs": [],
      "name": "NOTHING_TO_MINT",
      "type": "error"
    },
    {
      "inputs": [],
      "name": "NOT_AVAILABLE",
      "type": "error"
    },
    {
      "inputs": [],
      "name": "NO_CONTEST",
      "type": "error"
    },
    {
      "inputs": [],
      "name": "OVERSPENDING",
      "type": "error"
    },
    {
      "inputs": [
        {
          "internalType": "uint256",
          "name": "prod1",
          "type": "uint256"
        },
        {
          "internalType": "uint256",
          "name": "denominator",
          "type": "uint256"
        }
      ],
      "name": "PRBMath__MulDivOverflow",
      "type": "error"
    },
    {
      "inputs": [],
      "name": "PRICING_RESOLVER_CHANGES_PAUSED",
      "type": "error"
    },
    {
      "inputs": [],
      "name": "REDEMPTION_WEIGHTS_ALREADY_SET",
      "type": "error"
    },
    {
      "inputs": [],
      "name": "RESERVED_TOKEN_MINTING_PAUSED",
      "type": "error"
    },
    {
      "inputs": [],
      "name": "TRANSFERS_PAUSED",
      "type": "error"
    },
    {
      "inputs": [],
      "name": "TRANSFER_TO_NON_IMPLEMENTER",
      "type": "error"
    },
    {
      "inputs": [],
      "name": "TRANSFER_TO_ZERO_ADDRESS",
      "type": "error"
    },
    {
      "inputs": [],
      "name": "UNAUTHORIZED",
      "type": "error"
    },
    {
      "inputs": [
        {
          "internalType": "uint256",
          "name": "_tokenId",
          "type": "uint256"
        }
      ],
      "name": "UNAUTHORIZED_TOKEN",
      "type": "error"
    },
    {
      "inputs": [],
      "name": "UNEXPECTED_TOKEN_REDEEMED",
      "type": "error"
    },
    {
      "inputs": [],
      "name": "WRONG_CURRENCY",
      "type": "error"
    },
    {
      "anonymous": false,
      "inputs": [
        {
          "indexed": true,
          "internalType": "address",
          "name": "owner",
          "type": "address"
        },
        {
          "indexed": true,
          "internalType": "address",
          "name": "approved",
          "type": "address"
        },
        {
          "indexed": true,
          "internalType": "uint256",
          "name": "tokenId",
          "type": "uint256"
        }
      ],
      "name": "Approval",
      "type": "event"
    },
    {
      "anonymous": false,
      "inputs": [
        {
          "indexed": true,
          "internalType": "address",
          "name": "owner",
          "type": "address"
        },
        {
          "indexed": true,
          "internalType": "address",
          "name": "operator",
          "type": "address"
        },
        {
          "indexed": false,
          "internalType": "bool",
          "name": "approved",
          "type": "bool"
        }
      ],
      "name": "ApprovalForAll",
      "type": "event"
    },
    {
      "anonymous": false,
      "inputs": [
        {
          "indexed": true,
          "internalType": "address",
          "name": "delegator",
          "type": "address"
        },
        {
          "indexed": true,
          "internalType": "address",
          "name": "fromDelegate",
          "type": "address"
        },
        {
          "indexed": true,
          "internalType": "address",
          "name": "toDelegate",
          "type": "address"
        }
      ],
      "name": "DelegateChanged",
      "type": "event"
    },
    {
      "anonymous": false,
      "inputs": [
        {
          "indexed": true,
          "internalType": "uint256",
          "name": "tokenId",
          "type": "uint256"
        },
        {
          "indexed": true,
          "internalType": "uint256",
          "name": "tierId",
          "type": "uint256"
        },
        {
          "indexed": true,
          "internalType": "address",
          "name": "beneficiary",
          "type": "address"
        },
        {
          "indexed": false,
          "internalType": "uint256",
          "name": "totalAmountContributed",
          "type": "uint256"
        },
        {
          "indexed": false,
          "internalType": "address",
          "name": "caller",
          "type": "address"
        }
      ],
      "name": "Mint",
      "type": "event"
    },
    {
      "anonymous": false,
      "inputs": [
        {
          "indexed": true,
          "internalType": "uint256",
          "name": "tokenId",
          "type": "uint256"
        },
        {
          "indexed": true,
          "internalType": "uint256",
          "name": "tierId",
          "type": "uint256"
        },
        {
          "indexed": true,
          "internalType": "address",
          "name": "beneficiary",
          "type": "address"
        },
        {
          "indexed": false,
          "internalType": "address",
          "name": "caller",
          "type": "address"
        }
      ],
      "name": "MintReservedToken",
      "type": "event"
    },
    {
      "anonymous": false,
      "inputs": [
        {
          "indexed": true,
          "internalType": "address",
          "name": "previousOwner",
          "type": "address"
        },
        {
          "indexed": true,
          "internalType": "address",
          "name": "newOwner",
          "type": "address"
        }
      ],
      "name": "OwnershipTransferred",
      "type": "event"
    },
    {
      "anonymous": false,
      "inputs": [
        {
          "indexed": true,
          "internalType": "address",
          "name": "delegate",
          "type": "address"
        },
        {
          "indexed": true,
          "internalType": "uint256",
          "name": "tierId",
          "type": "uint256"
        },
        {
          "indexed": false,
          "internalType": "uint256",
          "name": "previousBalance",
          "type": "uint256"
        },
        {
          "indexed": false,
          "internalType": "uint256",
          "name": "newBalance",
          "type": "uint256"
        },
        {
          "indexed": false,
          "internalType": "address",
          "name": "caller",
          "type": "address"
        }
      ],
      "name": "TierDelegateVotesChanged",
      "type": "event"
    },
    {
      "anonymous": false,
      "inputs": [
        {
          "indexed": true,
          "internalType": "address",
          "name": "from",
          "type": "address"
        },
        {
          "indexed": true,
          "internalType": "address",
          "name": "to",
          "type": "address"
        },
        {
          "indexed": true,
          "internalType": "uint256",
          "name": "tokenId",
          "type": "uint256"
        }
      ],
      "name": "Transfer",
      "type": "event"
    },
    {
      "inputs": [],
      "name": "TOTAL_REDEMPTION_WEIGHT",
      "outputs": [
        {
          "internalType": "uint256",
          "name": "",
          "type": "uint256"
        }
      ],
      "stateMutability": "view",
      "type": "function"
    },
    {
      "inputs": [
        {
          "internalType": "address",
          "name": "to",
          "type": "address"
        },
        {
          "internalType": "uint256",
          "name": "tokenId",
          "type": "uint256"
        }
      ],
      "name": "approve",
      "outputs": [],
      "stateMutability": "nonpayable",
      "type": "function"
    },
    {
      "inputs": [
        {
          "internalType": "address",
          "name": "_owner",
          "type": "address"
        }
      ],
      "name": "balanceOf",
      "outputs": [
        {
          "internalType": "uint256",
          "name": "balance",
          "type": "uint256"
        }
      ],
      "stateMutability": "view",
      "type": "function"
    },
    {
      "inputs": [],
      "name": "baseURI",
      "outputs": [
        {
          "internalType": "string",
          "name": "",
          "type": "string"
        }
      ],
      "stateMutability": "view",
      "type": "function"
    },
    {
      "inputs": [],
      "name": "codeOrigin",
      "outputs": [
        {
          "internalType": "address",
          "name": "",
          "type": "address"
        }
      ],
      "stateMutability": "view",
      "type": "function"
    },
    {
      "inputs": [],
      "name": "contractURI",
      "outputs": [
        {
          "internalType": "string",
          "name": "",
          "type": "string"
        }
      ],
      "stateMutability": "view",
      "type": "function"
    },
    {
      "inputs": [],
      "name": "defaultVotingDelegate",
      "outputs": [
        {
          "internalType": "address",
          "name": "",
          "type": "address"
        }
      ],
      "stateMutability": "view",
      "type": "function"
    },
    {
      "inputs": [
        {
          "components": [
            {
              "internalType": "address",
              "name": "payer",
              "type": "address"
            },
            {
              "internalType": "uint256",
              "name": "projectId",
              "type": "uint256"
            },
            {
              "internalType": "uint256",
              "name": "currentFundingCycleConfiguration",
              "type": "uint256"
            },
            {
              "components": [
                {
                  "internalType": "address",
                  "name": "token",
                  "type": "address"
                },
                {
                  "internalType": "uint256",
                  "name": "value",
                  "type": "uint256"
                },
                {
                  "internalType": "uint256",
                  "name": "decimals",
                  "type": "uint256"
                },
                {
                  "internalType": "uint256",
                  "name": "currency",
                  "type": "uint256"
                }
              ],
              "internalType": "struct JBTokenAmount",
              "name": "amount",
              "type": "tuple"
            },
            {
              "components": [
                {
                  "internalType": "address",
                  "name": "token",
                  "type": "address"
                },
                {
                  "internalType": "uint256",
                  "name": "value",
                  "type": "uint256"
                },
                {
                  "internalType": "uint256",
                  "name": "decimals",
                  "type": "uint256"
                },
                {
                  "internalType": "uint256",
                  "name": "currency",
                  "type": "uint256"
                }
              ],
              "internalType": "struct JBTokenAmount",
              "name": "forwardedAmount",
              "type": "tuple"
            },
            {
              "internalType": "uint256",
              "name": "projectTokenCount",
              "type": "uint256"
            },
            {
              "internalType": "address",
              "name": "beneficiary",
              "type": "address"
            },
            {
              "internalType": "bool",
              "name": "preferClaimedTokens",
              "type": "bool"
            },
            {
              "internalType": "string",
              "name": "memo",
              "type": "string"
            },
            {
              "internalType": "bytes",
              "name": "metadata",
              "type": "bytes"
            }
          ],
          "internalType": "struct JBDidPayData",
          "name": "_data",
          "type": "tuple"
        }
      ],
      "name": "didPay",
      "outputs": [],
      "stateMutability": "payable",
      "type": "function"
    },
    {
      "inputs": [
        {
          "components": [
            {
              "internalType": "address",
              "name": "holder",
              "type": "address"
            },
            {
              "internalType": "uint256",
              "name": "projectId",
              "type": "uint256"
            },
            {
              "internalType": "uint256",
              "name": "currentFundingCycleConfiguration",
              "type": "uint256"
            },
            {
              "internalType": "uint256",
              "name": "projectTokenCount",
              "type": "uint256"
            },
            {
              "components": [
                {
                  "internalType": "address",
                  "name": "token",
                  "type": "address"
                },
                {
                  "internalType": "uint256",
                  "name": "value",
                  "type": "uint256"
                },
                {
                  "internalType": "uint256",
                  "name": "decimals",
                  "type": "uint256"
                },
                {
                  "internalType": "uint256",
                  "name": "currency",
                  "type": "uint256"
                }
              ],
              "internalType": "struct JBTokenAmount",
              "name": "reclaimedAmount",
              "type": "tuple"
            },
            {
              "components": [
                {
                  "internalType": "address",
                  "name": "token",
                  "type": "address"
                },
                {
                  "internalType": "uint256",
                  "name": "value",
                  "type": "uint256"
                },
                {
                  "internalType": "uint256",
                  "name": "decimals",
                  "type": "uint256"
                },
                {
                  "internalType": "uint256",
                  "name": "currency",
                  "type": "uint256"
                }
              ],
              "internalType": "struct JBTokenAmount",
              "name": "forwardedAmount",
              "type": "tuple"
            },
            {
              "internalType": "address payable",
              "name": "beneficiary",
              "type": "address"
            },
            {
              "internalType": "string",
              "name": "memo",
              "type": "string"
            },
            {
              "internalType": "bytes",
              "name": "metadata",
              "type": "bytes"
            }
          ],
          "internalType": "struct JBDidRedeemData",
          "name": "_data",
          "type": "tuple"
        }
      ],
      "name": "didRedeem",
      "outputs": [],
      "stateMutability": "payable",
      "type": "function"
    },
    {
      "inputs": [],
      "name": "directory",
      "outputs": [
        {
          "internalType": "contract IJBDirectory",
          "name": "",
          "type": "address"
        }
      ],
      "stateMutability": "view",
      "type": "function"
    },
    {
      "inputs": [
        {
          "internalType": "uint256",
          "name": "_tokenId",
          "type": "uint256"
        }
      ],
      "name": "firstOwnerOf",
      "outputs": [
        {
          "internalType": "address",
          "name": "",
          "type": "address"
        }
      ],
      "stateMutability": "view",
      "type": "function"
    },
    {
      "inputs": [],
      "name": "fundingCycleStore",
      "outputs": [
        {
          "internalType": "contract IJBFundingCycleStore",
          "name": "",
          "type": "address"
        }
      ],
      "stateMutability": "view",
      "type": "function"
    },
    {
      "inputs": [],
      "name": "gamePhaseReporter",
      "outputs": [
        {
          "internalType": "contract IDefifaGamePhaseReporter",
          "name": "",
          "type": "address"
        }
      ],
      "stateMutability": "view",
      "type": "function"
    },
    {
      "inputs": [
        {
          "internalType": "uint256",
          "name": "tokenId",
          "type": "uint256"
        }
      ],
      "name": "getApproved",
      "outputs": [
        {
          "internalType": "address",
          "name": "",
          "type": "address"
        }
      ],
      "stateMutability": "view",
      "type": "function"
    },
    {
      "inputs": [
        {
          "internalType": "uint256",
          "name": "_tier",
          "type": "uint256"
        },
        {
          "internalType": "uint256",
          "name": "_blockNumber",
          "type": "uint256"
        }
      ],
      "name": "getPastTierTotalVotes",
      "outputs": [
        {
          "internalType": "uint256",
          "name": "",
          "type": "uint256"
        }
      ],
      "stateMutability": "view",
      "type": "function"
    },
    {
      "inputs": [
        {
          "internalType": "address",
          "name": "_account",
          "type": "address"
        },
        {
          "internalType": "uint256",
          "name": "_tier",
          "type": "uint256"
        },
        {
          "internalType": "uint256",
          "name": "_blockNumber",
          "type": "uint256"
        }
      ],
      "name": "getPastTierVotes",
      "outputs": [
        {
          "internalType": "uint256",
          "name": "",
          "type": "uint256"
        }
      ],
      "stateMutability": "view",
      "type": "function"
    },
    {
      "inputs": [
        {
          "internalType": "address",
          "name": "_account",
          "type": "address"
        },
        {
          "internalType": "uint256",
          "name": "_tier",
          "type": "uint256"
        }
      ],
      "name": "getTierDelegate",
      "outputs": [
        {
          "internalType": "address",
          "name": "",
          "type": "address"
        }
      ],
      "stateMutability": "view",
      "type": "function"
    },
    {
      "inputs": [
        {
          "internalType": "uint256",
          "name": "_tier",
          "type": "uint256"
        }
      ],
      "name": "getTierTotalVotes",
      "outputs": [
        {
          "internalType": "uint256",
          "name": "",
          "type": "uint256"
        }
      ],
      "stateMutability": "view",
      "type": "function"
    },
    {
      "inputs": [
        {
          "internalType": "address",
          "name": "_account",
          "type": "address"
        },
        {
          "internalType": "uint256",
          "name": "_tier",
          "type": "uint256"
        }
      ],
      "name": "getTierVotes",
      "outputs": [
        {
          "internalType": "uint256",
          "name": "",
          "type": "uint256"
        }
      ],
      "stateMutability": "view",
      "type": "function"
    },
    {
      "inputs": [
        {
          "internalType": "uint256",
          "name": "_gameId",
          "type": "uint256"
        },
        {
          "internalType": "contract IJBDirectory",
          "name": "_directory",
          "type": "address"
        },
        {
          "internalType": "string",
          "name": "_name",
          "type": "string"
        },
        {
          "internalType": "string",
          "name": "_symbol",
          "type": "string"
        },
        {
          "internalType": "contract IJBFundingCycleStore",
          "name": "_fundingCycleStore",
          "type": "address"
        },
        {
          "internalType": "string",
          "name": "_baseUri",
          "type": "string"
        },
        {
          "internalType": "contract IJBTokenUriResolver",
          "name": "_tokenUriResolver",
          "type": "address"
        },
        {
          "internalType": "string",
          "name": "_contractUri",
          "type": "string"
        },
        {
          "components": [
            {
              "internalType": "uint104",
              "name": "price",
              "type": "uint104"
            },
            {
              "internalType": "uint32",
              "name": "initialQuantity",
              "type": "uint32"
            },
            {
              "internalType": "uint32",
              "name": "votingUnits",
              "type": "uint32"
            },
            {
              "internalType": "uint16",
              "name": "reservedRate",
              "type": "uint16"
            },
            {
              "internalType": "address",
              "name": "reservedTokenBeneficiary",
              "type": "address"
            },
            {
              "internalType": "bytes32",
              "name": "encodedIPFSUri",
              "type": "bytes32"
            },
            {
              "internalType": "uint24",
              "name": "category",
              "type": "uint24"
            },
            {
              "internalType": "bool",
              "name": "allowManualMint",
              "type": "bool"
            },
            {
              "internalType": "bool",
              "name": "shouldUseReservedTokenBeneficiaryAsDefault",
              "type": "bool"
            },
            {
              "internalType": "bool",
              "name": "transfersPausable",
              "type": "bool"
            },
            {
              "internalType": "bool",
              "name": "useVotingUnits",
              "type": "bool"
            }
          ],
          "internalType": "struct JB721TierParams[]",
          "name": "_tiers",
          "type": "tuple[]"
        },
        {
          "internalType": "uint48",
          "name": "_currency",
          "type": "uint48"
        },
        {
          "internalType": "contract IJBTiered721DelegateStore",
          "name": "_store",
          "type": "address"
        },
        {
          "components": [
            {
              "internalType": "bool",
              "name": "lockReservedTokenChanges",
              "type": "bool"
            },
            {
              "internalType": "bool",
              "name": "lockVotingUnitChanges",
              "type": "bool"
            },
            {
              "internalType": "bool",
              "name": "lockManualMintingChanges",
              "type": "bool"
            },
            {
              "internalType": "bool",
              "name": "preventOverspending",
              "type": "bool"
            }
          ],
          "internalType": "struct JBTiered721Flags",
          "name": "_flags",
          "type": "tuple"
        },
        {
          "internalType": "contract IDefifaGamePhaseReporter",
          "name": "_gamePhaseReporter",
          "type": "address"
        },
        {
          "internalType": "address",
          "name": "_defaultVotingDelegate",
          "type": "address"
        }
      ],
      "name": "initialize",
      "outputs": [],
      "stateMutability": "nonpayable",
      "type": "function"
    },
    {
      "inputs": [
        {
          "internalType": "address",
          "name": "owner",
          "type": "address"
        },
        {
          "internalType": "address",
          "name": "operator",
          "type": "address"
        }
      ],
      "name": "isApprovedForAll",
      "outputs": [
        {
          "internalType": "bool",
          "name": "",
          "type": "bool"
        }
      ],
      "stateMutability": "view",
      "type": "function"
    },
    {
      "inputs": [
        {
          "components": [
            {
              "internalType": "uint256",
              "name": "tierId",
              "type": "uint256"
            },
            {
              "internalType": "uint256",
              "name": "count",
              "type": "uint256"
            }
          ],
          "internalType": "struct JBTiered721MintReservesForTiersData[]",
          "name": "_mintReservesForTiersData",
          "type": "tuple[]"
        }
      ],
      "name": "mintReservesFor",
      "outputs": [],
      "stateMutability": "nonpayable",
      "type": "function"
    },
    {
      "inputs": [
        {
          "internalType": "uint256",
          "name": "_tierId",
          "type": "uint256"
        },
        {
          "internalType": "uint256",
          "name": "_count",
          "type": "uint256"
        }
      ],
      "name": "mintReservesFor",
      "outputs": [],
      "stateMutability": "nonpayable",
      "type": "function"
    },
    {
      "inputs": [],
      "name": "name",
      "outputs": [
        {
          "internalType": "string",
          "name": "",
          "type": "string"
        }
      ],
      "stateMutability": "view",
      "type": "function"
    },
    {
      "inputs": [],
      "name": "owner",
      "outputs": [
        {
          "internalType": "address",
          "name": "",
          "type": "address"
        }
      ],
      "stateMutability": "view",
      "type": "function"
    },
    {
      "inputs": [
        {
          "internalType": "uint256",
          "name": "tokenId",
          "type": "uint256"
        }
      ],
      "name": "ownerOf",
      "outputs": [
        {
          "internalType": "address",
          "name": "",
          "type": "address"
        }
      ],
      "stateMutability": "view",
      "type": "function"
    },
    {
      "inputs": [
        {
          "components": [
            {
              "internalType": "contract IJBPaymentTerminal",
              "name": "terminal",
              "type": "address"
            },
            {
              "internalType": "address",
              "name": "payer",
              "type": "address"
            },
            {
              "components": [
                {
                  "internalType": "address",
                  "name": "token",
                  "type": "address"
                },
                {
                  "internalType": "uint256",
                  "name": "value",
                  "type": "uint256"
                },
                {
                  "internalType": "uint256",
                  "name": "decimals",
                  "type": "uint256"
                },
                {
                  "internalType": "uint256",
                  "name": "currency",
                  "type": "uint256"
                }
              ],
              "internalType": "struct JBTokenAmount",
              "name": "amount",
              "type": "tuple"
            },
            {
              "internalType": "uint256",
              "name": "projectId",
              "type": "uint256"
            },
            {
              "internalType": "uint256",
              "name": "currentFundingCycleConfiguration",
              "type": "uint256"
            },
            {
              "internalType": "address",
              "name": "beneficiary",
              "type": "address"
            },
            {
              "internalType": "uint256",
              "name": "weight",
              "type": "uint256"
            },
            {
              "internalType": "uint256",
              "name": "reservedRate",
              "type": "uint256"
            },
            {
              "internalType": "string",
              "name": "memo",
              "type": "string"
            },
            {
              "internalType": "bytes",
              "name": "metadata",
              "type": "bytes"
            }
          ],
          "internalType": "struct JBPayParamsData",
          "name": "_data",
          "type": "tuple"
        }
      ],
      "name": "payParams",
      "outputs": [
        {
          "internalType": "uint256",
          "name": "weight",
          "type": "uint256"
        },
        {
          "internalType": "string",
          "name": "memo",
          "type": "string"
        },
        {
          "components": [
            {
              "internalType": "contract IJBPayDelegate",
              "name": "delegate",
              "type": "address"
            },
            {
              "internalType": "uint256",
              "name": "amount",
              "type": "uint256"
            }
          ],
          "internalType": "struct JBPayDelegateAllocation[]",
          "name": "delegateAllocations",
          "type": "tuple[]"
        }
      ],
      "stateMutability": "view",
      "type": "function"
    },
    {
      "inputs": [],
      "name": "pricingCurrency",
      "outputs": [
        {
          "internalType": "uint256",
          "name": "",
          "type": "uint256"
        }
      ],
      "stateMutability": "view",
      "type": "function"
    },
    {
      "inputs": [],
      "name": "projectId",
      "outputs": [
        {
          "internalType": "uint256",
          "name": "",
          "type": "uint256"
        }
      ],
      "stateMutability": "view",
      "type": "function"
    },
    {
      "inputs": [
        {
          "components": [
            {
              "internalType": "contract IJBPaymentTerminal",
              "name": "terminal",
              "type": "address"
            },
            {
              "internalType": "address",
              "name": "holder",
              "type": "address"
            },
            {
              "internalType": "uint256",
              "name": "projectId",
              "type": "uint256"
            },
            {
              "internalType": "uint256",
              "name": "currentFundingCycleConfiguration",
              "type": "uint256"
            },
            {
              "internalType": "uint256",
              "name": "tokenCount",
              "type": "uint256"
            },
            {
              "internalType": "uint256",
              "name": "totalSupply",
              "type": "uint256"
            },
            {
              "internalType": "uint256",
              "name": "overflow",
              "type": "uint256"
            },
            {
              "components": [
                {
                  "internalType": "address",
                  "name": "token",
                  "type": "address"
                },
                {
                  "internalType": "uint256",
                  "name": "value",
                  "type": "uint256"
                },
                {
                  "internalType": "uint256",
                  "name": "decimals",
                  "type": "uint256"
                },
                {
                  "internalType": "uint256",
                  "name": "currency",
                  "type": "uint256"
                }
              ],
              "internalType": "struct JBTokenAmount",
              "name": "reclaimAmount",
              "type": "tuple"
            },
            {
              "internalType": "bool",
              "name": "useTotalOverflow",
              "type": "bool"
            },
            {
              "internalType": "uint256",
              "name": "redemptionRate",
              "type": "uint256"
            },
            {
              "internalType": "string",
              "name": "memo",
              "type": "string"
            },
            {
              "internalType": "bytes",
              "name": "metadata",
              "type": "bytes"
            }
          ],
          "internalType": "struct JBRedeemParamsData",
          "name": "_data",
          "type": "tuple"
        }
      ],
      "name": "redeemParams",
      "outputs": [
        {
          "internalType": "uint256",
          "name": "reclaimAmount",
          "type": "uint256"
        },
        {
          "internalType": "string",
          "name": "memo",
          "type": "string"
        },
        {
          "components": [
            {
              "internalType": "contract IJBRedemptionDelegate",
              "name": "delegate",
              "type": "address"
            },
            {
              "internalType": "uint256",
              "name": "amount",
              "type": "uint256"
            }
          ],
          "internalType": "struct JBRedemptionDelegateAllocation[]",
          "name": "delegateAllocations",
          "type": "tuple[]"
        }
      ],
      "stateMutability": "view",
      "type": "function"
    },
    {
      "inputs": [],
      "name": "redemptionWeightIsSet",
      "outputs": [
        {
          "internalType": "bool",
          "name": "",
          "type": "bool"
        }
      ],
      "stateMutability": "view",
      "type": "function"
    },
    {
      "inputs": [
        {
          "internalType": "uint256",
          "name": "_tokenId",
          "type": "uint256"
        }
      ],
      "name": "redemptionWeightOf",
      "outputs": [
        {
          "internalType": "uint256",
          "name": "",
          "type": "uint256"
        }
      ],
      "stateMutability": "view",
      "type": "function"
    },
    {
      "inputs": [
        {
          "internalType": "uint256[]",
          "name": "_tokenIds",
          "type": "uint256[]"
        },
        {
          "components": [
            {
              "internalType": "contract IJBPaymentTerminal",
              "name": "terminal",
              "type": "address"
            },
            {
              "internalType": "address",
              "name": "holder",
              "type": "address"
            },
            {
              "internalType": "uint256",
              "name": "projectId",
              "type": "uint256"
            },
            {
              "internalType": "uint256",
              "name": "currentFundingCycleConfiguration",
              "type": "uint256"
            },
            {
              "internalType": "uint256",
              "name": "tokenCount",
              "type": "uint256"
            },
            {
              "internalType": "uint256",
              "name": "totalSupply",
              "type": "uint256"
            },
            {
              "internalType": "uint256",
              "name": "overflow",
              "type": "uint256"
            },
            {
              "components": [
                {
                  "internalType": "address",
                  "name": "token",
                  "type": "address"
                },
                {
                  "internalType": "uint256",
                  "name": "value",
                  "type": "uint256"
                },
                {
                  "internalType": "uint256",
                  "name": "decimals",
                  "type": "uint256"
                },
                {
                  "internalType": "uint256",
                  "name": "currency",
                  "type": "uint256"
                }
              ],
              "internalType": "struct JBTokenAmount",
              "name": "reclaimAmount",
              "type": "tuple"
            },
            {
              "internalType": "bool",
              "name": "useTotalOverflow",
              "type": "bool"
            },
            {
              "internalType": "uint256",
              "name": "redemptionRate",
              "type": "uint256"
            },
            {
              "internalType": "string",
              "name": "memo",
              "type": "string"
            },
            {
              "internalType": "bytes",
              "name": "metadata",
              "type": "bytes"
            }
          ],
          "internalType": "struct JBRedeemParamsData",
          "name": "",
          "type": "tuple"
        }
      ],
      "name": "redemptionWeightOf",
      "outputs": [
        {
          "internalType": "uint256",
          "name": "cumulativeWeight",
          "type": "uint256"
        }
      ],
      "stateMutability": "view",
      "type": "function"
    },
    {
      "inputs": [],
      "name": "renounceOwnership",
      "outputs": [],
      "stateMutability": "nonpayable",
      "type": "function"
    },
    {
      "inputs": [
        {
          "internalType": "address",
          "name": "from",
          "type": "address"
        },
        {
          "internalType": "address",
          "name": "to",
          "type": "address"
        },
        {
          "internalType": "uint256",
          "name": "tokenId",
          "type": "uint256"
        }
      ],
      "name": "safeTransferFrom",
      "outputs": [],
      "stateMutability": "nonpayable",
      "type": "function"
    },
    {
      "inputs": [
        {
          "internalType": "address",
          "name": "from",
          "type": "address"
        },
        {
          "internalType": "address",
          "name": "to",
          "type": "address"
        },
        {
          "internalType": "uint256",
          "name": "tokenId",
          "type": "uint256"
        },
        {
          "internalType": "bytes",
          "name": "data",
          "type": "bytes"
        }
      ],
      "name": "safeTransferFrom",
      "outputs": [],
      "stateMutability": "nonpayable",
      "type": "function"
    },
    {
      "inputs": [
        {
          "internalType": "address",
          "name": "operator",
          "type": "address"
        },
        {
          "internalType": "bool",
          "name": "approved",
          "type": "bool"
        }
      ],
      "name": "setApprovalForAll",
      "outputs": [],
      "stateMutability": "nonpayable",
      "type": "function"
    },
    {
      "inputs": [
        {
          "internalType": "address",
          "name": "_delegatee",
          "type": "address"
        },
        {
          "internalType": "uint256",
          "name": "_tierId",
          "type": "uint256"
        }
      ],
      "name": "setTierDelegate",
      "outputs": [],
      "stateMutability": "nonpayable",
      "type": "function"
    },
    {
      "inputs": [
        {
          "components": [
            {
              "internalType": "address",
              "name": "delegatee",
              "type": "address"
            },
            {
              "internalType": "uint256",
              "name": "tierId",
              "type": "uint256"
            }
          ],
          "internalType": "struct JBTiered721SetTierDelegatesData[]",
          "name": "_setTierDelegatesData",
          "type": "tuple[]"
        }
      ],
      "name": "setTierDelegates",
      "outputs": [],
      "stateMutability": "nonpayable",
      "type": "function"
    },
    {
      "inputs": [
        {
          "components": [
            {
              "internalType": "uint256",
              "name": "id",
              "type": "uint256"
            },
            {
              "internalType": "uint256",
              "name": "redemptionWeight",
              "type": "uint256"
            }
          ],
          "internalType": "struct DefifaTierRedemptionWeight[]",
          "name": "_tierWeights",
          "type": "tuple[]"
        }
      ],
      "name": "setTierRedemptionWeights",
      "outputs": [],
      "stateMutability": "nonpayable",
      "type": "function"
    },
    {
      "inputs": [],
      "name": "store",
      "outputs": [
        {
          "internalType": "contract IJBTiered721DelegateStore",
          "name": "",
          "type": "address"
        }
      ],
      "stateMutability": "view",
      "type": "function"
    },
    {
      "inputs": [
        {
          "internalType": "bytes4",
          "name": "_interfaceId",
          "type": "bytes4"
        }
      ],
      "name": "supportsInterface",
      "outputs": [
        {
          "internalType": "bool",
          "name": "",
          "type": "bool"
        }
      ],
      "stateMutability": "view",
      "type": "function"
    },
    {
      "inputs": [],
      "name": "symbol",
      "outputs": [
        {
          "internalType": "string",
          "name": "",
          "type": "string"
        }
      ],
      "stateMutability": "view",
      "type": "function"
    },
    {
      "inputs": [],
      "name": "tierRedemptionWeights",
      "outputs": [
        {
          "internalType": "uint256[128]",
          "name": "",
          "type": "uint256[128]"
        }
      ],
      "stateMutability": "view",
      "type": "function"
    },
    {
      "inputs": [
        {
          "internalType": "uint256",
          "name": "_tokenId",
          "type": "uint256"
        }
      ],
      "name": "tokenURI",
      "outputs": [
        {
          "internalType": "string",
          "name": "",
          "type": "string"
        }
      ],
      "stateMutability": "view",
      "type": "function"
    },
    {
      "inputs": [
        {
          "components": [
            {
              "internalType": "contract IJBPaymentTerminal",
              "name": "terminal",
              "type": "address"
            },
            {
              "internalType": "address",
              "name": "holder",
              "type": "address"
            },
            {
              "internalType": "uint256",
              "name": "projectId",
              "type": "uint256"
            },
            {
              "internalType": "uint256",
              "name": "currentFundingCycleConfiguration",
              "type": "uint256"
            },
            {
              "internalType": "uint256",
              "name": "tokenCount",
              "type": "uint256"
            },
            {
              "internalType": "uint256",
              "name": "totalSupply",
              "type": "uint256"
            },
            {
              "internalType": "uint256",
              "name": "overflow",
              "type": "uint256"
            },
            {
              "components": [
                {
                  "internalType": "address",
                  "name": "token",
                  "type": "address"
                },
                {
                  "internalType": "uint256",
                  "name": "value",
                  "type": "uint256"
                },
                {
                  "internalType": "uint256",
                  "name": "decimals",
                  "type": "uint256"
                },
                {
                  "internalType": "uint256",
                  "name": "currency",
                  "type": "uint256"
                }
              ],
              "internalType": "struct JBTokenAmount",
              "name": "reclaimAmount",
              "type": "tuple"
            },
            {
              "internalType": "bool",
              "name": "useTotalOverflow",
              "type": "bool"
            },
            {
              "internalType": "uint256",
              "name": "redemptionRate",
              "type": "uint256"
            },
            {
              "internalType": "string",
              "name": "memo",
              "type": "string"
            },
            {
              "internalType": "bytes",
              "name": "metadata",
              "type": "bytes"
            }
          ],
          "internalType": "struct JBRedeemParamsData",
          "name": "",
          "type": "tuple"
        }
      ],
      "name": "totalRedemptionWeight",
      "outputs": [
        {
          "internalType": "uint256",
          "name": "",
          "type": "uint256"
        }
      ],
      "stateMutability": "view",
      "type": "function"
    },
    {
      "inputs": [
        {
          "internalType": "address",
          "name": "from",
          "type": "address"
        },
        {
          "internalType": "address",
          "name": "to",
          "type": "address"
        },
        {
          "internalType": "uint256",
          "name": "tokenId",
          "type": "uint256"
        }
      ],
      "name": "transferFrom",
      "outputs": [],
      "stateMutability": "nonpayable",
      "type": "function"
    },
    {
      "inputs": [
        {
          "internalType": "address",
          "name": "newOwner",
          "type": "address"
        }
      ],
      "name": "transferOwnership",
      "outputs": [],
      "stateMutability": "nonpayable",
      "type": "function"
    }
  ],
  "bytecode": {
    "object": "0x60a0806040523461006e5760078054336001600160a01b0319821681179092556001600160a01b03167f8be0079c531659141344cd1fd0a4f28419497f9722a3daafe3b4186f6b6457e0600080a33060805261560590816200007482396080518181816107e00152612fc40152f35b600080fdfe6080604052600436101561001257600080fd5b60003560e01c806301ffc9a71461031757806306fdde0314610312578063081812fc1461030d578063095ea7b314610308578063174e3e05146103035780631d153ca4146102fe57806323b872dd146102f957806325bccd66146102f45780632a596e53146102ef5780632b13c58f146102ea5780632f441500146102e55780633fafa127146102e057806342842e0e146102db5780634f228e11146102d657806354c6d1f5146102d1578063557e7155146102cc5780636352211e146102c7578063640abacd146102c257806364640c1e146102bd5780636c0360eb146102b857806370a08231146102b3578063715018a6146102ae5780637ba62bf9146102a957806382732b6d146102a45780638da5cb5b1461029f5780639494bf721461029a57806394c5c5ca1461029557806395d89b4114610290578063975057e71461028b5780639df4546814610286578063a0b6490c14610281578063a22cb4651461027c578063a51cfd1814610277578063a8c15f4a14610272578063aa4fb15b1461026d578063ab951e3914610268578063b88d4fde14610263578063c41c2f241461025e578063c74b13d914610259578063c87b56dd14610254578063ca323efe1461024f578063d31cc52c1461024a578063d40e714614610245578063d46cf17114610240578063da9ee8b71461023b578063e8a3d48514610236578063e985e9c5146102315763f2fde38b1461022c57600080fd5b6120d5565b61206b565b611fc4565b611eac565b611df0565b611d35565b611d07565b611cb4565b611b8a565b611ad8565b611ab1565b611a49565b611a1f565b611a00565b6119dd565b611953565b611885565b61185e565b6117d9565b6117b2565b61170d565b6116d1565b6116b4565b61168d565b611640565b6115e9565b61152f565b611486565b6113df565b611387565b611368565b61134a565b611323565b611305565b6112df565b6112a5565b611287565b6111f4565b610de6565b610d27565b610c44565b610830565b6107c0565b610799565b6106ac565b610651565b610572565b610333565b6001600160e01b031981160361032e57565b600080fd5b3461032e57602060031936011261032e576103826001600160e01b031960043561035c8161031c565b16637cc3c5ed60e11b8114908115610386575b5060405190151581529081906020820190565b0390f35b7ffbb38e03000000000000000000000000000000000000000000000000000000008114915081156104e1575b81156104b7575b811561048d575b8115610463575b81156103d5575b503861036f565b7f80ac58cd00000000000000000000000000000000000000000000000000000000811491508115610439575b811561040f575b50386103ce565b7f01ffc9a70000000000000000000000000000000000000000000000000000000091501438610408565b7f5b5e139f0000000000000000000000000000000000000000000000000000000081149150610401565b7f2a55205a00000000000000000000000000000000000000000000000000000000811491506103c7565b7f2b13c58f00000000000000000000000000000000000000000000000000000000811491506103c0565b7fda9ee8b700000000000000000000000000000000000000000000000000000000811491506103b9565b7f71700c6900000000000000000000000000000000000000000000000000000000811491506103b2565b600091031261032e57565b60005b8381106105295750506000910152565b8181015183820152602001610519565b90601f19601f60209361055781518092818752878088019101610516565b0116010190565b90602061056f928181520190610539565b90565b3461032e5760008060031936011261064e5760405190808054610594816113a5565b8085529160019180831690811561062457506001146105ca575b610382856105be818703826108cc565b6040519182918261055e565b80809450527f290decd9548b62a8d60345a988386fc84ba6bc95484008f6362f93160ef3e5635b82841061060c5750505081016020016105be826103826105ae565b805460208587018101919091529093019281016105f1565b869550610382969350602092506105be94915060ff191682840152151560051b82010192936105ae565b80fd5b3461032e57602060031936011261032e57602061066f600435613d49565b6001600160a01b0360405191168152f35b6001600160a01b0381160361032e57565b610204359061069f82610680565b565b359061069f82610680565b3461032e57604060031936011261032e576004356106c981610680565b6024356001600160a01b03806106de83613cff565b16809184161461076f5780331415908161072d575b506107035761070191614751565b005b60046040517fe5fa0e35000000000000000000000000000000000000000000000000000000008152fd5b9050600052600460205261076961076561075e336040600020906001600160a01b0316600052602052604060002090565b5460ff1690565b1590565b386106f3565b60046040517f133f8be9000000000000000000000000000000000000000000000000000000008152fd5b3461032e57600060031936011261032e5760206001600160a01b0360965416604051908152f35b3461032e57600060031936011261032e5760206040516001600160a01b037f0000000000000000000000000000000000000000000000000000000000000000168152f35b600319606091011261032e5760043561081c81610680565b9060243561082981610680565b9060443590565b3461032e5761083e36610804565b906108498233613ddf565b1561070357610701926144a4565b6024359061069f82610680565b634e487b7160e01b600052604160045260246000fd5b6040810190811067ffffffffffffffff82111761089657604052565b610864565b67ffffffffffffffff811161089657604052565b611000810190811067ffffffffffffffff82111761089657604052565b90601f601f19910116810190811067ffffffffffffffff82111761089657604052565b60405190610160820182811067ffffffffffffffff82111761089657604052565b6040519061069f8261087a565b60405190610180820182811067ffffffffffffffff82111761089657604052565b60405190610120820182811067ffffffffffffffff82111761089657604052565b67ffffffffffffffff811161089657601f01601f191660200190565b9291926109878261095f565b9161099560405193846108cc565b82948184528183011161032e578281602093846000960137010152565b9080601f8301121561032e5781602061056f9335910161097b565b6084359061069f82610680565b60c4359061069f82610680565b67ffffffffffffffff81116108965760051b60200190565b35906cffffffffffffffffffffffffff8216820361032e57565b359063ffffffff8216820361032e57565b359061ffff8216820361032e57565b359062ffffff8216820361032e57565b8015150361032e57565b359061069f82610a49565b81601f8201121561032e57803590610a75826109e7565b92604090610a85825195866108cc565b83855260209182860191836101608097028601019481861161032e578401925b858410610ab6575050505050505090565b868483031261032e57848791610aca6108ef565b610ad3876109ff565b8152610ae0838801610a19565b83820152610aef868801610a19565b868201526060610b00818901610a2a565b908201526080610b118189016106a1565b9082015260a0808801359082015260c0610b2c818901610a39565b9082015260e0610b3d818901610a53565b90820152610100610b4f818901610a53565b90820152610120610b61818901610a53565b90820152610140610b73818901610a53565b90820152815201930192610aa5565b610124359065ffffffffffff8216820361032e57565b610144359061069f82610680565b7ffffffffffffffffffffffffffffffffffffffffffffffffffffffffffffffe9c608091011261032e57604051906080820182811067ffffffffffffffff821117610896576040528161016435610bfc81610a49565b815261018435610c0b81610a49565b60208201526101a435610c1d81610a49565b604082015260606101c43591610c3283610a49565b0152565b6101e4359061069f82610680565b3461032e5761022060031936011261032e57610c5e610857565b60443567ffffffffffffffff9182821161032e57610c81600492369084016109b2565b60643584811161032e57610c9890369085016109b2565b610ca06109cd565b60a43586811161032e57610cb790369087016109b2565b610cbf6109da565b60e43588811161032e57610cd690369089016109b2565b906101043598891161032e57610cf26107019936908a01610a5e565b92610cfb610b82565b94610d04610b98565b96610d0e36610ba6565b98610d17610c36565b9a610d20610691565b9c35612fac565b3461032e5760208060031936011261032e576004359067ffffffffffffffff9081831161032e573660238401121561032e57826004013591821161032e57602490600693368385871b8301011161032e5760005b848110610d8457005b600190610da6610d9a3687848b1b8701016111cc565b8581519101519061369c565b01610d7b565b90816101e091031261032e5790565b602060031982011261032e576004359067ffffffffffffffff821161032e5761056f91600401610dac565b610def36610dbb565b3415801590611123575b8015611113575b6110e95760a08101359081156110bf576101c081016024610e21828461259c565b9050108015611089575b61105f57610e3c610e44918361259c565b810190612690565b915050805191610e6b610e5f6091546001600160a01b031690565b6001600160a01b031690565b926005549360408051809263038ab08560e11b825260209384918180610e9a60049c8d83019190602083019252565b03915afa801561100557600391600091611032575b50610eb9816126e3565b149560005b848110610eea578888610ed089613c60565b610ed657005b610ee561070191608a546122ab565b608a55565b610ef4818861226e565b5190610f1a610f0d836000526002602052604060002090565b546001600160a01b031690565b6001600160a01b03610f2e610e5f8a61358d565b91160361100a578489610f40846142ca565b610f50575b506001915001610ebe565b610fa092610f69610e5f608f546001600160a01b031690565b865180809681947f42f9914b0000000000000000000000000000000000000000000000000000000083528983019190602083019252565b03915afa91821561100557600192610fcb91600091610fd8575b50600052608b602052604060002090565b8054600101905584610f45565b610ff89150873d8911610ffe575b610ff081836108cc565b8101906121ae565b38610fba565b503d610fe6565b6121bd565b8284517f075fd2b1000000000000000000000000000000000000000000000000000000008152fd5b6110529150843d8611611058575b61104a81836108cc565b8101906126cb565b38610eaf565b503d611040565b60046040517f2a84050f000000000000000000000000000000000000000000000000000000008152fd5b50637cc3c5ed60e11b6001600160e01b03196110b76110b16110ab858761259c565b906125ed565b9061260f565b161415610e2b565b60046040517f76914729000000000000000000000000000000000000000000000000000000008152fd5b60046040517f7df94b86000000000000000000000000000000000000000000000000000000008152fd5b5060055460208201351415610e00565b50611184602061113e610e5f6006546001600160a01b031690565b6005546040517f6e49181f000000000000000000000000000000000000000000000000000000008152600481019190915233602482015292839190829081906044820190565b03915afa9081156110055760009161119e575b5015610df9565b6111bf915060203d81116111c5575b6111b781836108cc565b810190613578565b38611197565b503d6111ad565b919082604091031261032e576040516111e48161087a565b6020808294803584520135910152565b3461032e5760208060031936011261032e576004359067ffffffffffffffff821161032e573660238301121561032e57816004013591611233836109e7565b91604093611243855194856108cc565b80845260248285019160061b8401019236841161032e57602401905b83821061126f57610701856132a7565b82869161127c36856111cc565b81520191019061125f565b3461032e57600060031936011261032e576020600554604051908152f35b3461032e576112b336610804565b60405191602083019383851067ffffffffffffffff861117610896576107019460405260008452613d88565b3461032e57602060031936011261032e5760206112fd60043561242e565b604051908152f35b3461032e57602060031936011261032e57602061066f60043561217c565b3461032e57600060031936011261032e5760206001600160a01b0360905416604051908152f35b3461032e57602060031936011261032e57602061066f600435613cff565b3461032e57600060031936011261032e576020604051633b9aca008152f35b3461032e57600060031936011261032e576020609254604051908152f35b90600182811c921680156113d5575b60208310146113bf57565b634e487b7160e01b600052602260045260246000fd5b91607f16916113b4565b3461032e5760008060031936011261064e576040519080609454611402816113a5565b80855291600191808316908115610624575060011461142b57610382856105be818703826108cc565b9250609483527f7047a3cc0a76edcee45792ca71527c753f6167484f14b94c4a3bd2997516725c5b82841061146e5750505081016020016105be826103826105ae565b80546020858701810191909152909301928101611453565b3461032e57602060031936011261032e576004356114a381610680565b60206001600160a01b03604481608f54169360405194859384927ff7888aec0000000000000000000000000000000000000000000000000000000084523060048501521660248301525afa80156110055761038291600091611511575b506040519081529081906020820190565b611529915060203d8111610ffe57610ff081836108cc565b38611500565b3461032e5760008060031936011261064e57611549615034565b806001600160a01b036007546001600160a01b03198116600755167f8be0079c531659141344cd1fd0a4f28419497f9722a3daafe3b4186f6b6457e08280a380f35b81601f8201121561032e578035916115a2836109e7565b926115b060405194856108cc565b808452602092838086019260051b82010192831161032e578301905b8282106115da575050505090565b813581529083019083016115cc565b3461032e57604060031936011261032e5767ffffffffffffffff60043581811161032e5761161b90369060040161158b565b9060243590811161032e5760209161163a6112fd923690600401610dac565b506122b8565b3461032e57604060031936011261032e57602060043561165f81610680565b6001600160a01b03809116600052608c82526040600020602435600052825260406000205416604051908152f35b3461032e57600060031936011261032e5760206001600160a01b0360075416604051908152f35b3461032e576116c236610dbb565b506020604051633b9aca008152f35b3461032e57602060031936011261032e57600435600052608e60205260206001600160e01b0361170460406000206152ab565b16604051908152f35b3461032e5760008060031936011261064e5760405190806001805491611732836113a5565b80865292828116908115610624575060011461175857610382856105be818703826108cc565b92508083527fb10e2d527612073b26eecdfd717e6a320cf44b4afac2b0732d9fcbe2b7fa0cf65b82841061179a5750505081016020016105be826103826105ae565b8054602085870181019190915290930192810161177f565b3461032e57600060031936011261032e5760206001600160a01b03608f5416604051908152f35b3461032e57600060031936011261032e576040516117f6816108af565b6110008091369037604051600a6000825b608082106118485750505061181b816108af565b60405190600090825b6080831061183157505050f35b600190825181526020809101920192019190611824565b6001602081928554815201930191019091611807565b3461032e57600060031936011261032e5760206001600160a01b0360915416604051908152f35b3461032e57604060031936011261032e576004356118a281610680565b6024356118ae81610a49565b6001600160a01b03821691823314611929576118ea903360005260046020526040600020906001600160a01b0316600052602052604060002090565b9015159060ff1981541660ff83161790556040519081527f17307eab39ab6107e8899845ad3d59bd9653f200f220920489ca2b5937696c3160203392a3005b60046040517f0df0273a000000000000000000000000000000000000000000000000000000008152fd5b3461032e5761196961196436610dbb565b612703565b60409291928051938493845261198b6020916060838701526060860190610539565b90848203838601528080855193848152019401926000905b8382106119b05786860387f35b845180516001600160a01b03168752830151868401528796509485019493820193600191909101906119a3565b3461032e57600060031936011261032e57602060ff609354166040519015158152f35b3461032e57604060031936011261032e5761070160243560043561369c565b3461032e57604060031936011261032e57610701600435611a3f81610680565b60243590336139b9565b3461032e57608060031936011261032e57600435611a6681610680565b602435611a7281610680565b6064359167ffffffffffffffff831161032e573660238401121561032e57611aa761070193369060248160040135910161097b565b9160443591613d88565b3461032e57600060031936011261032e5760206001600160a01b0360065416604051908152f35b3461032e5760208060031936011261032e576004359067ffffffffffffffff821161032e573660238301121561032e57816004013591611b17836109e7565b91604093611b27855194856108cc565b80845260248285019160061b8401019236841161032e57602401905b838210611b535761070185613597565b858236031261032e578286918251611b6a8161087a565b8435611b7581610680565b81528285013583820152815201910190611b43565b3461032e57602060031936011261032e57611bb0610e5f608f546001600160a01b031690565b6040517f0fab094700000000000000000000000000000000000000000000000000000000815230600482015290602090829060249082905afa90811561100557600091611c86575b50600060405180927fda0544aa000000000000000000000000000000000000000000000000000000008252816001600160a01b0381611c41600435600483019190602083019252565b0392165afa80156110055761038291600091611c65575b506040519182918261055e565b611c80913d8091833e611c7881836108cc565b810190612220565b38611c58565b611ca7915060203d8111611cad575b611c9f81836108cc565b8101906121c9565b38611bf8565b503d611c95565b3461032e57604060031936011261032e576001600160a01b03600435611cd981610680565b16600052608d602052604060002060243560005260205260206001600160e01b0361170460406000206152ab565b3461032e57604060031936011261032e57600435600052608e60205260206112fd60243560406000206150d4565b3461032e57606060031936011261032e576001600160a01b03600435611d5a81610680565b16600052608d602052604060002060243560005260205260206112fd60443560406000206150d4565b91908252611d9d6020916060838501526060840190610539565b90604092838184039101528080855193848152019401926000905b838210611dc757505050505090565b845180516001600160a01b03168752830151868401529485019493820193600190910190611db8565b3461032e576020600319818136011261032e576004359067ffffffffffffffff821161032e576101a090823603011261032e57611e3e611e3761016483018360040161259c565b369161097b565b60405190611e4b8261087a565b6001825260005b848110611e9657509061038291610124946000611e6d610910565b30815291820152611e7d8361225c565b52611e878261225c565b50604051948594013584611d83565b8490611ea061263b565b82828601015201611e52565b60031960208136011261032e576004359067ffffffffffffffff821161032e5761020090823603011261032e57600554341590811591611f38575b8115611f29575b50611eff5761070190600401614af2565b60046040517fc715ec6c000000000000000000000000000000000000000000000000000000008152fd5b90506024820135141538611eee565b9050611f4f610e5f6006546001600160a01b031690565b6040517f6e49181f0000000000000000000000000000000000000000000000000000000081526004810183905233602482015290602090829060449082905afa90811561100557600091611fa6575b501590611ee7565b611fbe915060203d81116111c5576111b781836108cc565b38611f9e565b3461032e5760008060031936011261064e576040519080609554611fe7816113a5565b80855291600191808316908115610624575060011461201057610382856105be818703826108cc565b9250609583527f947035e97d0f7e1937f791bc189f60c984ceaaa7a8494fc67f9f8f4de8ccf2c65b8284106120535750505081016020016105be826103826105ae565b80546020858701810191909152909301928101612038565b3461032e57604060031936011261032e57602060ff6120c960043561208f81610680565b6001600160a01b03602435916120a483610680565b16600052600484526040600020906001600160a01b0316600052602052604060002090565b54166040519015158152f35b3461032e57602060031936011261032e576004356120f281610680565b6120fa615034565b6001600160a01b03811615612112576107019061508c565b608460405162461bcd60e51b815260206004820152602660248201527f4f776e61626c653a206e6577206f776e657220697320746865207a65726f206160448201527f64647265737300000000000000000000000000000000000000000000000000006064820152fd5b60005260086020526001600160a01b038060406000205416806121a9575060026020526040600020541690565b905090565b9081602091031261032e575190565b6040513d6000823e3d90fd5b9081602091031261032e575161056f81610680565b81601f8201121561032e5780516121f48161095f565b9261220260405194856108cc565b8184526020828401011161032e5761056f9160208085019101610516565b9060208282031261032e57815167ffffffffffffffff811161032e5761056f92016121de565b634e487b7160e01b600052603260045260246000fd5b8051156122695760200190565b612246565b80518210156122695760209160051b010190565b634e487b7160e01b600052601160045260246000fd5b90600182018092116122a657565b612282565b919082018092116122a657565b9060009180516000915b8183106122ce57505050565b9091936122e46122de868461226e565b5161242e565b81018091116122a6579360010191906122c2565b519061069f82610680565b519061069f82610a49565b60208183031261032e57805167ffffffffffffffff9182821161032e57016101808184031261032e5761233f61091d565b92815184526020820151602085015260408201516040850152606082015160608501526080820151608085015260a082015160a085015261238260c083016122f8565b60c085015260e082015160e085015261010080830151908501526101206123aa818401612303565b908501526101406123bc818401612303565b90850152610160928383015190811161032e576123d992016121de565b9082015290565b9060001982019182116122a657565b919082039182116122a657565b608081101561226957600a0190600090565b8115612418570490565b634e487b7160e01b600052601260045260246000fd5b6124816020612448610e5f608f546001600160a01b031690565b92604051809381927f42f9914b000000000000000000000000000000000000000000000000000000008352600483019190602083019252565b0381855afa9081156110055760009161257e575b506040516364faa15960e01b8152306004820152602481018290526000604482018190529092839060649082905afa9182156110055760009261255b575b506124f26124e86124e3836123e0565b6123fc565b90549060031b1c90565b908115612553576060830190612510604083519501948551906123ef565b1561254a5761253d61252c61056f9561254494519051906123ef565b91600052608b602052604060002090565b54906122ab565b9061240e565b50505050600090565b505050600090565b61257791923d8091833e61256f81836108cc565b81019061230e565b90386124d3565b612596915060203d8111610ffe57610ff081836108cc565b38612495565b9035907fffffffffffffffffffffffffffffffffffffffffffffffffffffffffffffffe18136030182121561032e570180359067ffffffffffffffff821161032e5760200191813603831361032e57565b9060241161032e5760200190600490565b9060441161032e5760400190600490565b6001600160e01b0319903581811693926004811061262c57505050565b60040360031b82901b16169150565b604051906126488261087a565b60006020838281520152565b604051906126618261087a565b600182528160005b6020908181101561268b5760209161267f61263b565b90828501015201612669565b505050565b9160608383031261032e5782359260208101356126ac8161031c565b92604082013567ffffffffffffffff811161032e5761056f920161158b565b9081602091031261032e5751600681101561032e5790565b600611156126ed57565b634e487b7160e01b600052602160045260246000fd5b90600090816080840135612993576101c08401906024612723838761259c565b9050108015612969575b61105f57612739612654565b9361276e610e3c612748610910565b30815294602095848782015261275d8961225c565b526127678861225c565b508861259c565b94915050612787610e5f6091546001600160a01b031690565b91604088838251809663038ab08560e11b825281806127b28760049701358783019190602083019252565b03915afa94851561100557839561294a575b506127ce856126e3565b60019481868214918215612932575b821561291a575b8215612906575b505061283057505050505050611e3761282061282c9261281a612814608a5460c08a01356122ab565b916122b8565b9061552a565b946101a081019061259c565b9190565b9498959291908351938296612850610e5f608f546001600160a01b031690565b915b86891061287457505050505050505050611e37816101a061282c93019061259c565b90919293949596979b6128c2908661288c8f8561226e565b5187518094819263c44a8e6d60e01b83523089840160409060009294936001600160a01b03606083019616825260208201520152565b0381885afa918215611005578a92899189916128ec575b500151019c019796959493929190612852565b61290091503d808b833e61256f81836108cc565b386128d9565b909150612912816126e3565b1481386127eb565b80925061292791506126e3565b8160058214916127e4565b80925061293f91506126e3565b8160028214916127dd565b612962919550843d86116110585761104a81836108cc565b93386127c4565b50637cc3c5ed60e11b6001600160e01b031961298b6110b16110ab868a61259c565b16141561272d565b60046040517f4fc178d8000000000000000000000000000000000000000000000000000000008152fd5b601f81116129c9575050565b6000908180527f290decd9548b62a8d60345a988386fc84ba6bc95484008f6362f93160ef3e563906020601f850160051c83019410612a23575b601f0160051c01915b828110612a1857505050565b818155600101612a0c565b9092508290612a03565b601f8111612a39575050565b600090609482527f7047a3cc0a76edcee45792ca71527c753f6167484f14b94c4a3bd2997516725c906020601f850160051c83019410612a94575b601f0160051c01915b828110612a8957505050565b818155600101612a7d565b9092508290612a74565b601f8111612aaa575050565b600090609582527f947035e97d0f7e1937f791bc189f60c984ceaaa7a8494fc67f9f8f4de8ccf2c6906020601f850160051c83019410612b05575b601f0160051c01915b828110612afa57505050565b818155600101612aee565b9092508290612ae5565b90601f8211612b1c575050565b6001916000908382527fb10e2d527612073b26eecdfd717e6a320cf44b4afac2b0732d9fcbe2b7fa0cf6906020601f850160051c83019410612b79575b601f0160051c01915b828110612b6f5750505050565b8181558301612b62565b9092508290612b59565b90815167ffffffffffffffff811161089657612ba981612ba46094546113a5565b612a2d565b602080601f8311600114612be45750819293600092612bd9575b50506000198260011b9260031b1c191617609455565b015190503880612bc3565b90601f19831694612c1760946000527f7047a3cc0a76edcee45792ca71527c753f6167484f14b94c4a3bd2997516725c90565b926000905b878210612c54575050836001959610612c3b575b505050811b01609455565b015160001960f88460031b161c19169055388080612c30565b80600185968294968601518155019501930190612c1c565b90815167ffffffffffffffff811161089657612c9281612c8d6095546113a5565b612a9e565b602080601f8311600114612ccd5750819293600092612cc2575b50506000198260011b9260031b1c191617609555565b015190503880612cac565b90601f19831694612d0060956000527f947035e97d0f7e1937f791bc189f60c984ceaaa7a8494fc67f9f8f4de8ccf2c690565b926000905b878210612d3d575050836001959610612d24575b505050811b01609555565b015160001960f88460031b161c19169055388080612d19565b80600185968294968601518155019501930190612d05565b90815167ffffffffffffffff811161089657600190612d7d81612d7884546113a5565b612b0f565b602080601f8311600114612db7575081929394600092612dac575b505060001982841b9260031b1c1916179055565b015190503880612d98565b90601f19831695612dea60016000527fb10e2d527612073b26eecdfd717e6a320cf44b4afac2b0732d9fcbe2b7fa0cf690565b926000905b888210612e255750508385969710612e0c575b505050811b019055565b015160001960f88460031b161c19169055388080612e02565b808785968294968601518155019501930190612def565b81601f8201121561032e57805191612e53836109e7565b92612e6160405194856108cc565b808452602092838086019260051b82010192831161032e578301905b828210612e8b575050505090565b81518152908301908301612e7d565b9060208282031261032e57815167ffffffffffffffff811161032e5761056f9201612e3c565b60208082019080835283518092528060408094019401926000905b838210612eea57505050505090565b909192939483610160600192612f9f8951612f148382516cffffffffffffffffffffffffff169052565b8085015163ffffffff16838601528087015163ffffffff168388015260608181015161ffff16908401526080818101516001600160a01b03169084015260a0818101519084015260c08082015162ffffff169084015260e081810151151590840152610100818101511515908401526101208181015115159084015261014090810151151590830152565b0196019493920190612edb565b93959c9496979b92919099986001600160a01b039a8b7f000000000000000000000000000000000000000000000000000000000000000016301461032e578b613000610e5f608f546001600160a01b031690565b1661032e5761309f976130256130679565ffffffffffff95613041946130839a61491c565b6001600160a01b03166001600160a01b03196090541617609055565b6130618a6001600160a01b03166001600160a01b0319608f541617608f55565b16609255565b6001600160a01b03166001600160a01b03196091541617609155565b6001600160a01b03166001600160a01b03196096541617609655565b8051613298575b508051613289575b50818516613211575b6130f594501691604051907f8da5e32b0000000000000000000000000000000000000000000000000000000082528180600096879360048301612ec0565b038183875af18015611005576131ef575b508051151580156131e2575b80156131d5575b80156131c8575b613131575b50505061069f3361508c565b813b156131c457604080517fcb827e3200000000000000000000000000000000000000000000000000000000815282511515600482015260208301511515602482015290820151151560448201526060909101511515606482015291908290608490829084905af18015611005576131ab575b8080613125565b806131b86131be9261089b565b8061050b565b386131a4565b8280fd5b5060608101511515613120565b5060408101511515613119565b5060208101511515613112565b61320a903d8086833e61320281836108cc565b810190612e9a565b5038613106565b818116803b1561032e576040517fd84a72c00000000000000000000000000000000000000000000000000000000081526001600160a01b039690961660048701526000908690602490829084905af1948515611005576130f595613276575b506130b7565b806131b86132839261089b565b38613270565b61329290612c6c565b386130ae565b6132a190612b83565b386130a6565b6132af615034565b6132c4610e5f6091546001600160a01b031690565b600554916040918251809163038ab08560e11b8252602092839181806132f360049a8b83019190602083019252565b03915afa9081156110055760009161355b575b50613310816126e3565b600381036135325760935460ff166135095761332b816126e3565b84600582149182156134f5575b50506134cd57613353610e5f608f546001600160a01b031690565b9080845180937ff1bea54f000000000000000000000000000000000000000000000000000000008252818061339a308b83019190916001600160a01b036020820193169052565b03915afa918215611005576000926134ae575b50909160009181519183945b83861061340a5750505050633b9aca009150116133e457505061069f600160ff196093541617609355565b517f6ff44e97000000000000000000000000000000000000000000000000000000008152fd5b9091929381613419878561226e565b5151116134865761347a600191613466866134348a8861226e565b51015161344e6124e36134478c8a61226e565b51516123e0565b90919060001983549160031b92831b921b1916179055565b85613471898761226e565b510151906122ab565b950194939291906133b9565b8787517f52385374000000000000000000000000000000000000000000000000000000008152fd5b816134c69293503d8411610ffe57610ff081836108cc565b90386133ad565b5050517f6fb84075000000000000000000000000000000000000000000000000000000008152fd5b909150613501816126e3565b148438613338565b505050517f38101407000000000000000000000000000000000000000000000000000000008152fd5b505050517f03ce4502000000000000000000000000000000000000000000000000000000008152fd5b6135729150823d84116110585761104a81836108cc565b38613306565b9081602091031261032e575161056f81610a49565b3561056f81610680565b8051906135a261263b565b5060005b8281106135b257505050565b6135bc818361226e565b51906001600160a01b0380835116156135eb578260206135e592600195511691015190336139b9565b016135a6565b60046040517f53d304f4000000000000000000000000000000000000000000000000000000008152fd5b908161012091031261032e5761362961093e565b90805182526020810151602083015260408101516040830152606081015160608301526080810151608083015260a081015160a083015260c081015160c083015261367660e082016122f8565b60e0830152610100809101519082015290565b818102929181159184041417156122a657565b906136b2610e5f6090546001600160a01b031690565b916136e160055493604094855180926321d1336160e11b82528180610120968795600483019190602083019252565b03915afa918215611005576137129260ff926101009260009261398c575b5050015160f41c1660018091811c161490565b6139635761372b610e5f608f546001600160a01b031690565b83517f136e651c000000000000000000000000000000000000000000000000000000008152306004820152602481018390529290602090849060449082905afa92831561100557600093613943575b506001600160a01b0390816137b8610f0d856137a9886001600160a01b0316600052608c602052604060002090565b90600052602052604060002090565b1615613922575b6137d4610e5f608f546001600160a01b031690565b85517fbaa7e80e000000000000000000000000000000000000000000000000000000008152600481018590526024810183905292906000908490604490829084905af192831561100557600093613907575b5060005b8281106138b857505050600061384b610e5f608f546001600160a01b031690565b94516364faa15960e01b8152306004820152602481018490526000604482015294859060649082905afa9081156110055760806138999261069f9660009161389f575b500151905190613689565b91613aa1565b6138b2913d8091833e61256f81836108cc565b3861388e565b806138c56001928661226e565b516138d08189613e60565b88513381528489169188917f031e1988c95a91ec4d655ff63a8f87a80bc9daf28d95ae10ee08c0022cfb5c8b90602090a40161382a565b61391b91933d8091833e61320281836108cc565b9138613826565b61393e836139386096546001600160a01b031690565b866139b9565b6137bf565b61395c91935060203d8111611cad57611c9f81836108cc565b913861377a565b600483517fe96092b8000000000000000000000000000000000000000000000000000000008152fd5b6139ab9250803d106139b2575b6139a381836108cc565b810190613615565b38806136ff565b503d613999565b6001600160a01b039081166000818152608c602090815260408083208784528252822080548686166001600160a01b03198216811790925592969195919491939282169291869184847f3134e8a2e6d97e929a7e54011ea5485d7d196dd5f0ba4d4ef95803e8e3fc257f8b80a4608f5416916064604051809481937f2e4d0ea800000000000000000000000000000000000000000000000000000000835230600484015260248301528860448301525afa9485156110055761069f9695613a82575b5050613b32565b613a99929550803d10610ffe57610ff081836108cc565b923880613a7b565b9061069f92916000828152608e602052613abe84604083206151d4565b505060406001600160a01b039182841615613b17575b808052608c602052818120858252602052613b08838383205416946001600160a01b0316600052608c602052604060002090565b85825260205220541690613b32565b848152608e602052613b2b86838320615283565b5050613ad4565b9192906001600160a01b03928382169381168481148015613c58575b613c5057859181613bdd575b50505082613b69575b50505050565b7fed0c1e94c302bdbbd8bbd6a4fb7c3ed335c2292407cd816eadd075d019d0ce0491613bab613bbc926001600160a01b0316600052608d602052604060002090565b8560005260205260406000206151d4565b6040805192835260208301919091523390820152606090a338808080613b63565b613bfa906001600160a01b0316600052608d602052604060002090565b826000526020527fed0c1e94c302bdbbd8bbd6a4fb7c3ed335c2292407cd816eadd075d019d0ce04613c30856040600020615283565b6040805192835260208301919091523390820152606090a3833880613b5a565b505050505050565b508315613b4e565b6001600160a01b03608f5416803b1561032e5760405180927f86bc2be3000000000000000000000000000000000000000000000000000000008252602482016020908160048501528251809152816044850193019160005b828110613ce857505050509181600081819503925af1801561100557613cdb5750565b806131b861069f9261089b565b835185528795509381019392810192600101613cb8565b60005260026020526001600160a01b03604060002054168015613d1f5790565b60046040517fb49aa3b5000000000000000000000000000000000000000000000000000000008152fd5b613d698160005260026020526001600160a01b0360406000205416151590565b15613d1f5760005260036020526001600160a01b036040600020541690565b929190613d958233613ddf565b156107035783613da98383613dae976144a4565b61482f565b15613db557565b60046040517f6deaf836000000000000000000000000000000000000000000000000000000008152fd5b6001600160a01b0380613df184613cff565b169281831692848414948515613e27575b50508315613e11575b50505090565b613e1d91929350613d49565b1614388080613e0b565b60ff92955090613e569160005260046020526040600020906001600160a01b0316600052602052604060002090565b5416923880613e02565b9190916001600160a01b038116908115613fdd57613e948460005260026020526001600160a01b0360406000205416151590565b613fb357836000928184526002602052613ec78360408620906001600160a01b03166001600160a01b0319825416179055565b837fddf252ad1be2c89b69c2b068fc378daa952ba7f163c4a11628f55a4df523b3ef8180a4613f3482613f05610e5f608f546001600160a01b031690565b60405163c44a8e6d60e01b81523060048201526024810197909752600060448801529591829081906064820190565b0381885afa908115611005578391613f99575b505193803b156131c4576040516330b157e560e21b81526004810195909552600060248601526001600160a01b039190911660448501529192918290606490829084905af1801561100557613cdb5750565b613fad91503d8085833e61256f81836108cc565b38613f47565b60046040517fbad7c30c000000000000000000000000000000000000000000000000000000008152fd5b60046040517f7208af1e000000000000000000000000000000000000000000000000000000008152fd5b906140549291614022610e5f608f546001600160a01b031690565b60405163c44a8e6d60e01b81523060048201526024810193909352600060448401819052948590849081906064820190565b0381845afa9283156110055785936140d7575b508251813b156140d3576040516330b157e560e21b815260048101919091526001600160a01b0383166024820152600060448201529394908490606490829084905af19283156110055761069f936140c0575b506141e1565b806131b86140cd9261089b565b386140ba565b8580fd5b6140ec9193503d8087833e61256f81836108cc565b9138614067565b9061414193929161410f610e5f608f546001600160a01b031690565b60405163c44a8e6d60e01b81523060048201526024810194909452600060448501819052958690859081906064820190565b0381845afa9384156110055786946141c5575b508351813b156141c1576040516330b157e560e21b815260048101919091526001600160a01b038381166024830152841660448201529495908590606490829084905af19384156110055761069f946141ae575b5061424d565b806131b86141bb9261089b565b386141a8565b8680fd5b6141da9194503d8088833e61256f81836108cc565b9238614154565b6001600160a01b0380911691821561268b5761069f926080825192015192600091838352608e6020526142178560408520615283565b50508252608c60205260408220838352602052604081818420541692808052608c60205281812085825260205220541690613b32565b916001600160a01b03809316918215613b635761069f9360406080845194015194828416156142ad575b6000908152608c602052818120858252602052613b08838383205416946001600160a01b0316600052608c602052604060002090565b84600052608e6020526142c38683600020615283565b5050614277565b6142d381613cff565b906001600160a01b0382169182614338575b81600061069f946142f5836146fb565b8282526002602052604082206001600160a01b031981541690557fddf252ad1be2c89b69c2b068fc378daa952ba7f163c4a11628f55a4df523b3ef8280a4614007565b61434d610e5f608f546001600160a01b031690565b60405163c44a8e6d60e01b8152306004820152602481018490526000604482018190529091829060649082905afa9081156110055761439a916101409160009161448b575b500151151590565b614407575b81600061069f946143c0610e5f610f0d856000526008602052604060002090565b156143cf575b945050506142e5565b614402846143e7856000526008602052604060002090565b906001600160a01b03166001600160a01b0319825416179055565b6143c6565b61444992614420610e5f6090546001600160a01b031690565b9060055460405180936321d1336160e11b82528180610120998a95600483019190602083019252565b03915afa9081156110055761069f95859360009361446d575b50509450505061439f565b8161448392903d106139b2576139a381836108cc565b503880614462565b61449e913d8091833e61256f81836108cc565b38614392565b91906144af82613cff565b6001600160a01b03808516949181168590036146d15782169384156146a7578061453a575b61069f9484916144e3836146fb565b826000526002602052614510856040600020906001600160a01b03166001600160a01b0319825416179055565b7fddf252ad1be2c89b69c2b068fc378daa952ba7f163c4a11628f55a4df523b3ef600080a46140f3565b61454f610e5f608f546001600160a01b031690565b60405163c44a8e6d60e01b8152306004820152602481018690526000604482018190529091829060649082905afa9081156110055761459b916101409160009161448b57500151151590565b6145ec575b61069f9484916145c0610e5f610f0d856000526008602052604060002090565b156145cf575b915094506144d4565b6145e7846143e7856000526008602052604060002090565b6145c6565b61462c614604610e5f6090546001600160a01b031690565b60055460405180926321d1336160e11b82528180610120968795600483019190602083019252565b03915afa9182156110055761465b9260ff926101009260009261468a575b5050015160f41c1660018091161490565b156145a05760046040517f18cdaf97000000000000000000000000000000000000000000000000000000008152fd5b6146a09250803d106139b2576139a381836108cc565b388061464a565b60046040517f2c955427000000000000000000000000000000000000000000000000000000008152fd5b60046040517fa195bc53000000000000000000000000000000000000000000000000000000008152fd5b80600052600360205260406000206001600160a01b0319815416905560006001600160a01b0361472a83613cff565b167f8c5be1e5ebec7d5bd14f71427d1e84f3dd0314c0f7b2291e5b200ac8c7c3b9258280a4565b81600052600360205261477e816040600020906001600160a01b03166001600160a01b0319825416179055565b6001600160a01b038061479084613cff565b169116907f8c5be1e5ebec7d5bd14f71427d1e84f3dd0314c0f7b2291e5b200ac8c7c3b925600080a4565b9081602091031261032e575161056f8161031c565b909261056f94936080936001600160a01b03809216845216602083015260408201528160608201520190610539565b3d1561482a573d906148108261095f565b9161481e60405193846108cc565b82523d6000602084013e565b606090565b92909190823b15614913576148839260209260006001600160a01b036040518097819682957f150b7a02000000000000000000000000000000000000000000000000000000009b8c855233600486016147d0565b0393165af1600091816148e3575b506148d55761489e6147ff565b805190816148d05760046040517f6deaf836000000000000000000000000000000000000000000000000000000008152fd5b602001fd5b6001600160e01b0319161490565b61490591925060203d811161490c575b6148fd81836108cc565b8101906147bb565b9038614891565b503d6148f3565b50505050600190565b91929092805167ffffffffffffffff8111610896576000916149478261494285546113a5565b6129bd565b60209081601f84116001146149b3575092826149879361498c969361069f99989684926149a8575b50506000198260011b9260031b1c1916179055612d55565b600555565b6001600160a01b03166001600160a01b03196006541617600655565b01519050388061496f565b600080529190601f1984167f290decd9548b62a8d60345a988386fc84ba6bc95484008f6362f93160ef3e5639386905b828210614a2d5750509361498c969361069f99989693600193836149879810614a14575b505050811b019055612d55565b015160001960f88460031b161c19169055388080614a07565b806001869782949787015181550196019401906149e3565b9160a08383031261032e5782359260209182820135936040830135614a698161031c565b936060840135614a7881610680565b9360808101359067ffffffffffffffff821161032e57019180601f8401121561032e578235614aa6816109e7565b93614ab460405195866108cc565b818552838086019260051b82010192831161032e578301905b828210614adb575050505090565b838091614ae784610a2a565b815201910190614acd565b9060925460c083013503614e6f576101e082016044614b11828561259c565b90501180614e40575b614b2357509050565b614b30614b38918461259c565b810190614a45565b9250949250506001600160a01b03809416938415614e0e575b815115614de4576000808091845197825b898110614bbc57505050505050614b8c9293506080614b84610180840161358d565b920135614f1a565b614b9257565b60046040517f6d5e09a4000000000000000000000000000000000000000000000000000000008152fd5b8988614bdd614bd6614bce858c61226e565b5161ffff1690565b61ffff1690565b8503614d01575b90614c12610f0d866137a9614bf98b9661358d565b6001600160a01b0316600052608c602052604060002090565b88808616918b83159485158096614cf6575b614c38575b50505050505050600101614b62565b879a969791614c478b926123e0565b83109283614cd0575b505050600014614c7a5750505050600191614c6a916122ab565b935b905084388088818b8f614c29565b614ca1955083614cc3575b505050614cab575b8361389987614c9b8c61358d565b936122ab565b6001600093614c6c565b614cbe8484614cb98c61358d565b6139b9565b614c8d565b1614159050388881614c85565b61ffff929350614cec91614ce6614bce92612298565b9061226e565b1614888d8b614c50565b508383161515614c24565b5050935090614d16614bd6614bce868961226e565b10614dba57614d2b614bd6614bce858861226e565b90614d41610e5f608f546001600160a01b031690565b6040516364faa15960e01b815230600482015260248101849052600060448201819052909591869060649082905afa948515611005578a614c12610f0d866137a96080614bf99b8f97600091614da1575b5001519a505050505090614be4565b614db4913d8091833e61256f81836108cc565b38614d92565b60046040517f9fda363d000000000000000000000000000000000000000000000000000000008152fd5b60046040517f3d04bd1f000000000000000000000000000000000000000000000000000000008152fd5b9350614e226096546001600160a01b031690565b80851615614e31575b93614b51565b50614e3b8261358d565b614e2b565b50637cc3c5ed60e11b6001600160e01b0319614e686110b1614e62858861259c565b906125fe565b1614614b1a565b60046040517f79cf85c0000000000000000000000000000000000000000000000000000000008152fd5b919060408382031261032e57825167ffffffffffffffff811161032e57602091614ec4918501612e3c565b92015190565b929190606084019084526020906060828601528251809152816080860193019160005b828110614f0257505050506040600091930152565b835161ffff1685529381019392810192600101614eed565b929192614f32610e5f608f546001600160a01b031690565b9160409081519586947feaa19ab30000000000000000000000000000000000000000000000000000000086526000958691818381614f74888b60048401614eca565b03925af18015611005578597869161500c575b50968051955b868110614f9d5750505050505050565b80614faa6001928461226e565b51614fb58186613e60565b61ffff614fc5614bce848961226e565b88518a81523360208201526001600160a01b0388169391909216917f598baf7bf150ca2f42be9e9f8f55e81d45f5715c3ff22bf46d697fabec7f31d690604090a401614f8d565b905061502b9197503d8087833e61502381836108cc565b810190614e99565b96909638614f87565b6001600160a01b0360075416330361504857565b606460405162461bcd60e51b815260206004820152602060248201527f4f776e61626c653a2063616c6c6572206973206e6f7420746865206f776e65726044820152fd5b600754906001600160a01b0380911691826001600160a01b0319821617600755167f8be0079c531659141344cd1fd0a4f28419497f9722a3daafe3b4186f6b6457e0600080a3565b9043811015615190576150e6906154af565b90805491600063ffffffff8092165b84821061513c575050508161510c57506000919050565b615131615138916151246001600160e01b03946123e0565b9060005260206000200190565b5460201c90565b1690565b9091938083169080841860011c82018092116122a65784600052828661516d8460206000200163ffffffff90541690565b16111561517e5750935b91906150f5565b94925061518a90612298565b91615177565b606460405162461bcd60e51b815260206004820152602060248201527f436865636b706f696e74733a20626c6f636b206e6f7420796574206d696e65646044820152fd5b6001600160e01b039291836151e8836152ab565b169081018091116122a6576151fc436154af565b9184821161521957849283615212931691615395565b9316921690565b608460405162461bcd60e51b815260206004820152602760248201527f53616665436173743a2076616c756520646f65736e27742066697420696e203260448201527f32342062697473000000000000000000000000000000000000000000000000006064820152fd5b6001600160e01b03929183615297836152ab565b169081039081116122a6576151fc436154af565b8054600091816152bd57505050600090565b6000199282848101116122a65760209181522001015460201c90565b90815468010000000000000000811015610896576001810180845581101561226957600092835260209283902082519284015190931b63ffffffff191663ffffffff9290921691909117910155565b906040516153358161087a565b602081935463ffffffff81168352811c910152565b1561535157565b606460405162461bcd60e51b815260206004820152601760248201527f436865636b706f696e743a20696e76616c6964206b65790000000000000000006044820152fd5b90929192838254801515600014615484579260209291846153d06153cb6153be61282c986123e0565b8560005260206000200190565b615328565b936153df855163ffffffff1690565b6153f663ffffffff9182841692839116111561534a565b615410615407875163ffffffff1690565b63ffffffff1690565b0361544e575061544092615124615426926123e0565b9063ffffffff63ffffffff1983549260201b169116179055565b01516001600160e01b031690565b91505061547f9161546c615460610910565b63ffffffff9093168352565b6001600160e01b038816828601526152d9565b615440565b50506154a991615495615460610910565b6001600160e01b03851660208301526152d9565b60009190565b63ffffffff908181116154c0571690565b608460405162461bcd60e51b815260206004820152602660248201527f53616665436173743a2076616c756520646f65736e27742066697420696e203360448201527f32206269747300000000000000000000000000000000000000000000000000006064820152fd5b9190600019818409818402918280831092039180830392146155c257633b9aca00908183101561558b577f88f2cfb83100cb4e69e7c79c58b316e597157d372fb9787e8e47ce423a2e9c6d94950990828211900360f71b910360091c170290565b60448383604051917f773cc18c00000000000000000000000000000000000000000000000000000000835260048301526024820152fd5b5050633b9aca009004915056fea264697066735822122095ad4d015b292afb2c1bad9c13b720a4b39fd4feef3d115906140806c56eaa5564736f6c63430008140033",
    "linkReferences": {}
  },
  "methodIdentifiers": {
    "TOTAL_REDEMPTION_WEIGHT()": "640abacd",
    "approve(address,uint256)": "095ea7b3",
    "balanceOf(address)": "70a08231",
    "baseURI()": "6c0360eb",
    "codeOrigin()": "1d153ca4",
    "contractURI()": "e8a3d485",
    "defaultVotingDelegate()": "174e3e05",
    "didPay((address,uint256,uint256,(address,uint256,uint256,uint256),(address,uint256,uint256,uint256),uint256,address,bool,string,bytes))": "da9ee8b7",
    "didRedeem((address,uint256,uint256,uint256,(address,uint256,uint256,uint256),(address,uint256,uint256,uint256),address,string,bytes))": "2b13c58f",
    "directory()": "c41c2f24",
    "firstOwnerOf(uint256)": "54c6d1f5",
    "fundingCycleStore()": "557e7155",
    "gamePhaseReporter()": "a0b6490c",
    "getApproved(uint256)": "081812fc",
    "getPastTierTotalVotes(uint256,uint256)": "d31cc52c",
    "getPastTierVotes(address,uint256,uint256)": "d40e7146",
    "getTierDelegate(address,uint256)": "82732b6d",
    "getTierTotalVotes(uint256)": "94c5c5ca",
    "getTierVotes(address,uint256)": "ca323efe",
    "initialize(uint256,address,string,string,address,string,address,string,(uint104,uint32,uint32,uint16,address,bytes32,uint24,bool,bool,bool,bool)[],uint48,address,(bool,bool,bool,bool),address,address)": "25bccd66",
    "isApprovedForAll(address,address)": "e985e9c5",
    "mintReservesFor((uint256,uint256)[])": "2a596e53",
    "mintReservesFor(uint256,uint256)": "aa4fb15b",
    "name()": "06fdde03",
    "owner()": "8da5cb5b",
    "ownerOf(uint256)": "6352211e",
    "payParams((address,address,(address,uint256,uint256,uint256),uint256,uint256,address,uint256,uint256,string,bytes))": "d46cf171",
    "pricingCurrency()": "64640c1e",
    "projectId()": "3fafa127",
    "redeemParams((address,address,uint256,uint256,uint256,uint256,uint256,(address,uint256,uint256,uint256),bool,uint256,string,bytes))": "a51cfd18",
    "redemptionWeightIsSet()": "a8c15f4a",
    "redemptionWeightOf(uint256)": "4f228e11",
    "redemptionWeightOf(uint256[],(address,address,uint256,uint256,uint256,uint256,uint256,(address,uint256,uint256,uint256),bool,uint256,string,bytes))": "7ba62bf9",
    "renounceOwnership()": "715018a6",
    "safeTransferFrom(address,address,uint256)": "42842e0e",
    "safeTransferFrom(address,address,uint256,bytes)": "b88d4fde",
    "setApprovalForAll(address,bool)": "a22cb465",
    "setTierDelegate(address,uint256)": "ab951e39",
    "setTierDelegates((address,uint256)[])": "c74b13d9",
    "setTierRedemptionWeights((uint256,uint256)[])": "2f441500",
    "store()": "975057e7",
    "supportsInterface(bytes4)": "01ffc9a7",
    "symbol()": "95d89b41",
    "tierRedemptionWeights()": "9df45468",
    "tokenURI(uint256)": "c87b56dd",
    "totalRedemptionWeight((address,address,uint256,uint256,uint256,uint256,uint256,(address,uint256,uint256,uint256),bool,uint256,string,bytes))": "9494bf72",
    "transferFrom(address,address,uint256)": "23b872dd",
    "transferOwnership(address)": "f2fde38b"
  },
  "id": 0
}