{
  "abi": [
    {
      "inputs": [
        {
          "internalType": "contract IERC20",
          "name": "_defifaToken",
          "type": "address"
        }
      ],
      "stateMutability": "nonpayable",
      "type": "constructor"
    },
    {
      "inputs": [],
      "name": "ALEADY_MINTED",
      "type": "error"
    },
    {
      "inputs": [],
      "name": "APPROVAL_TO_CURRENT_OWNER",
      "type": "error"
    },
    {
      "inputs": [],
      "name": "APPROVE_TO_CALLER",
      "type": "error"
    },
    {
      "inputs": [],
      "name": "BAD_TIER_ORDER",
      "type": "error"
    },
    {
      "inputs": [],
      "name": "CALLER_NOT_OWNER_OR_APPROVED",
      "type": "error"
    },
    {
      "inputs": [],
      "name": "DELEGATE_ADDRESS_ZERO",
      "type": "error"
    },
    {
      "inputs": [],
      "name": "DELEGATE_CHANGES_UNAVAILABLE_IN_THIS_PHASE",
      "type": "error"
    },
    {
      "inputs": [],
      "name": "GAME_ISNT_SCORING_YET",
      "type": "error"
    },
    {
      "inputs": [],
      "name": "INCORRECT_OWNER",
      "type": "error"
    },
    {
      "inputs": [],
      "name": "INVALID_PAYMENT_EVENT",
      "type": "error"
    },
    {
      "inputs": [],
      "name": "INVALID_REDEMPTION_EVENT",
      "type": "error"
    },
    {
      "inputs": [],
      "name": "INVALID_REDEMPTION_METADATA",
      "type": "error"
    },
    {
      "inputs": [],
      "name": "INVALID_REDEMPTION_WEIGHTS",
      "type": "error"
    },
    {
      "inputs": [],
      "name": "INVALID_TIER_ID",
      "type": "error"
    },
    {
      "inputs": [],
      "name": "INVALID_TOKEN_ID",
      "type": "error"
    },
    {
      "inputs": [],
      "name": "MINT_TO_ZERO",
      "type": "error"
    },
    {
      "inputs": [],
      "name": "NOTHING_TO_CLAIM",
      "type": "error"
    },
    {
      "inputs": [],
      "name": "NOTHING_TO_MINT",
      "type": "error"
    },
    {
      "inputs": [],
      "name": "NO_CONTEST",
      "type": "error"
    },
    {
      "inputs": [],
      "name": "OVERSPENDING",
      "type": "error"
    },
    {
      "inputs": [
        {
          "internalType": "uint256",
          "name": "prod1",
          "type": "uint256"
        },
        {
          "internalType": "uint256",
          "name": "denominator",
          "type": "uint256"
        }
      ],
      "name": "PRBMath__MulDivOverflow",
      "type": "error"
    },
    {
      "inputs": [],
      "name": "REDEMPTION_WEIGHTS_ALREADY_SET",
      "type": "error"
    },
    {
      "inputs": [],
      "name": "RESERVED_TOKEN_MINTING_PAUSED",
      "type": "error"
    },
    {
      "inputs": [],
      "name": "TRANSFERS_PAUSED",
      "type": "error"
    },
    {
      "inputs": [],
      "name": "TRANSFER_TO_NON_IMPLEMENTER",
      "type": "error"
    },
    {
      "inputs": [],
      "name": "TRANSFER_TO_ZERO_ADDRESS",
      "type": "error"
    },
    {
      "inputs": [],
      "name": "UNAUTHORIZED",
      "type": "error"
    },
    {
      "inputs": [
        {
          "internalType": "uint256",
          "name": "_tokenId",
          "type": "uint256"
        }
      ],
      "name": "UNAUTHORIZED_TOKEN",
      "type": "error"
    },
    {
      "inputs": [],
      "name": "UNEXPECTED_TOKEN_REDEEMED",
      "type": "error"
    },
    {
      "inputs": [],
      "name": "WRONG_CURRENCY",
      "type": "error"
    },
    {
      "anonymous": false,
      "inputs": [
        {
          "indexed": true,
          "internalType": "address",
          "name": "owner",
          "type": "address"
        },
        {
          "indexed": true,
          "internalType": "address",
          "name": "approved",
          "type": "address"
        },
        {
          "indexed": true,
          "internalType": "uint256",
          "name": "tokenId",
          "type": "uint256"
        }
      ],
      "name": "Approval",
      "type": "event"
    },
    {
      "anonymous": false,
      "inputs": [
        {
          "indexed": true,
          "internalType": "address",
          "name": "owner",
          "type": "address"
        },
        {
          "indexed": true,
          "internalType": "address",
          "name": "operator",
          "type": "address"
        },
        {
          "indexed": false,
          "internalType": "bool",
          "name": "approved",
          "type": "bool"
        }
      ],
      "name": "ApprovalForAll",
      "type": "event"
    },
    {
      "anonymous": false,
      "inputs": [
        {
          "indexed": true,
          "internalType": "address",
          "name": "delegator",
          "type": "address"
        },
        {
          "indexed": true,
          "internalType": "address",
          "name": "fromDelegate",
          "type": "address"
        },
        {
          "indexed": true,
          "internalType": "address",
          "name": "toDelegate",
          "type": "address"
        }
      ],
      "name": "DelegateChanged",
      "type": "event"
    },
    {
      "anonymous": false,
      "inputs": [
        {
          "indexed": true,
          "internalType": "uint256",
          "name": "tokenId",
          "type": "uint256"
        },
        {
          "indexed": true,
          "internalType": "uint256",
          "name": "tierId",
          "type": "uint256"
        },
        {
          "indexed": true,
          "internalType": "address",
          "name": "beneficiary",
          "type": "address"
        },
        {
          "indexed": false,
          "internalType": "uint256",
          "name": "totalAmountContributed",
          "type": "uint256"
        },
        {
          "indexed": false,
          "internalType": "address",
          "name": "caller",
          "type": "address"
        }
      ],
      "name": "Mint",
      "type": "event"
    },
    {
      "anonymous": false,
      "inputs": [
        {
          "indexed": true,
          "internalType": "uint256",
          "name": "tokenId",
          "type": "uint256"
        },
        {
          "indexed": true,
          "internalType": "uint256",
          "name": "tierId",
          "type": "uint256"
        },
        {
          "indexed": true,
          "internalType": "address",
          "name": "beneficiary",
          "type": "address"
        },
        {
          "indexed": false,
          "internalType": "address",
          "name": "caller",
          "type": "address"
        }
      ],
      "name": "MintReservedToken",
      "type": "event"
    },
    {
      "anonymous": false,
      "inputs": [
        {
          "indexed": true,
          "internalType": "address",
          "name": "previousOwner",
          "type": "address"
        },
        {
          "indexed": true,
          "internalType": "address",
          "name": "newOwner",
          "type": "address"
        }
      ],
      "name": "OwnershipTransferred",
      "type": "event"
    },
    {
      "anonymous": false,
      "inputs": [
        {
          "indexed": true,
          "internalType": "address",
          "name": "delegate",
          "type": "address"
        },
        {
          "indexed": true,
          "internalType": "uint256",
          "name": "tierId",
          "type": "uint256"
        },
        {
          "indexed": false,
          "internalType": "uint256",
          "name": "previousBalance",
          "type": "uint256"
        },
        {
          "indexed": false,
          "internalType": "uint256",
          "name": "newBalance",
          "type": "uint256"
        },
        {
          "indexed": false,
          "internalType": "address",
          "name": "caller",
          "type": "address"
        }
      ],
      "name": "TierDelegateAttestationsChanged",
      "type": "event"
    },
    {
      "anonymous": false,
      "inputs": [
        {
          "indexed": true,
          "internalType": "address",
          "name": "from",
          "type": "address"
        },
        {
          "indexed": true,
          "internalType": "address",
          "name": "to",
          "type": "address"
        },
        {
          "indexed": true,
          "internalType": "uint256",
          "name": "tokenId",
          "type": "uint256"
        }
      ],
      "name": "Transfer",
      "type": "event"
    },
    {
      "inputs": [],
      "name": "TOTAL_REDEMPTION_WEIGHT",
      "outputs": [
        {
          "internalType": "uint256",
          "name": "",
          "type": "uint256"
        }
      ],
      "stateMutability": "view",
      "type": "function"
    },
    {
      "inputs": [],
      "name": "amountRedeemed",
      "outputs": [
        {
          "internalType": "uint256",
          "name": "",
          "type": "uint256"
        }
      ],
      "stateMutability": "view",
      "type": "function"
    },
    {
      "inputs": [
        {
          "internalType": "address",
          "name": "to",
          "type": "address"
        },
        {
          "internalType": "uint256",
          "name": "tokenId",
          "type": "uint256"
        }
      ],
      "name": "approve",
      "outputs": [],
      "stateMutability": "nonpayable",
      "type": "function"
    },
    {
      "inputs": [
        {
          "internalType": "address",
          "name": "_owner",
          "type": "address"
        }
      ],
      "name": "balanceOf",
      "outputs": [
        {
          "internalType": "uint256",
          "name": "balance",
          "type": "uint256"
        }
      ],
      "stateMutability": "view",
      "type": "function"
    },
    {
      "inputs": [],
      "name": "baseURI",
      "outputs": [
        {
          "internalType": "string",
          "name": "",
          "type": "string"
        }
      ],
      "stateMutability": "view",
      "type": "function"
    },
    {
      "inputs": [],
      "name": "codeOrigin",
      "outputs": [
        {
          "internalType": "address",
          "name": "",
          "type": "address"
        }
      ],
      "stateMutability": "view",
      "type": "function"
    },
    {
      "inputs": [],
      "name": "contractURI",
      "outputs": [
        {
          "internalType": "string",
          "name": "",
          "type": "string"
        }
      ],
      "stateMutability": "view",
      "type": "function"
    },
    {
      "inputs": [],
      "name": "defaultAttestationDelegate",
      "outputs": [
        {
          "internalType": "address",
          "name": "",
          "type": "address"
        }
      ],
      "stateMutability": "view",
      "type": "function"
    },
    {
      "inputs": [],
      "name": "defifaToken",
      "outputs": [
        {
          "internalType": "contract IERC20",
          "name": "",
          "type": "address"
        }
      ],
      "stateMutability": "view",
      "type": "function"
    },
    {
      "inputs": [],
      "name": "defifaTokenAllocation",
      "outputs": [
        {
          "internalType": "uint256",
          "name": "",
          "type": "uint256"
        }
      ],
      "stateMutability": "view",
      "type": "function"
    },
    {
      "inputs": [
        {
          "internalType": "uint256[]",
          "name": "_tokenIds",
          "type": "uint256[]"
        }
      ],
      "name": "defifaTokensClaimableFor",
      "outputs": [
        {
          "internalType": "uint256",
          "name": "amount",
          "type": "uint256"
        }
      ],
      "stateMutability": "view",
      "type": "function"
    },
    {
      "inputs": [
        {
          "components": [
            {
              "internalType": "address",
              "name": "payer",
              "type": "address"
            },
            {
              "internalType": "uint256",
              "name": "projectId",
              "type": "uint256"
            },
            {
              "internalType": "uint256",
              "name": "currentFundingCycleConfiguration",
              "type": "uint256"
            },
            {
              "components": [
                {
                  "internalType": "address",
                  "name": "token",
                  "type": "address"
                },
                {
                  "internalType": "uint256",
                  "name": "value",
                  "type": "uint256"
                },
                {
                  "internalType": "uint256",
                  "name": "decimals",
                  "type": "uint256"
                },
                {
                  "internalType": "uint256",
                  "name": "currency",
                  "type": "uint256"
                }
              ],
              "internalType": "struct JBTokenAmount",
              "name": "amount",
              "type": "tuple"
            },
            {
              "components": [
                {
                  "internalType": "address",
                  "name": "token",
                  "type": "address"
                },
                {
                  "internalType": "uint256",
                  "name": "value",
                  "type": "uint256"
                },
                {
                  "internalType": "uint256",
                  "name": "decimals",
                  "type": "uint256"
                },
                {
                  "internalType": "uint256",
                  "name": "currency",
                  "type": "uint256"
                }
              ],
              "internalType": "struct JBTokenAmount",
              "name": "forwardedAmount",
              "type": "tuple"
            },
            {
              "internalType": "uint256",
              "name": "projectTokenCount",
              "type": "uint256"
            },
            {
              "internalType": "address",
              "name": "beneficiary",
              "type": "address"
            },
            {
              "internalType": "bool",
              "name": "preferClaimedTokens",
              "type": "bool"
            },
            {
              "internalType": "string",
              "name": "memo",
              "type": "string"
            },
            {
              "internalType": "bytes",
              "name": "metadata",
              "type": "bytes"
            }
          ],
          "internalType": "struct JBDidPayData",
          "name": "_data",
          "type": "tuple"
        }
      ],
      "name": "didPay",
      "outputs": [],
      "stateMutability": "payable",
      "type": "function"
    },
    {
      "inputs": [
        {
          "components": [
            {
              "internalType": "address",
              "name": "holder",
              "type": "address"
            },
            {
              "internalType": "uint256",
              "name": "projectId",
              "type": "uint256"
            },
            {
              "internalType": "uint256",
              "name": "currentFundingCycleConfiguration",
              "type": "uint256"
            },
            {
              "internalType": "uint256",
              "name": "projectTokenCount",
              "type": "uint256"
            },
            {
              "components": [
                {
                  "internalType": "address",
                  "name": "token",
                  "type": "address"
                },
                {
                  "internalType": "uint256",
                  "name": "value",
                  "type": "uint256"
                },
                {
                  "internalType": "uint256",
                  "name": "decimals",
                  "type": "uint256"
                },
                {
                  "internalType": "uint256",
                  "name": "currency",
                  "type": "uint256"
                }
              ],
              "internalType": "struct JBTokenAmount",
              "name": "reclaimedAmount",
              "type": "tuple"
            },
            {
              "components": [
                {
                  "internalType": "address",
                  "name": "token",
                  "type": "address"
                },
                {
                  "internalType": "uint256",
                  "name": "value",
                  "type": "uint256"
                },
                {
                  "internalType": "uint256",
                  "name": "decimals",
                  "type": "uint256"
                },
                {
                  "internalType": "uint256",
                  "name": "currency",
                  "type": "uint256"
                }
              ],
              "internalType": "struct JBTokenAmount",
              "name": "forwardedAmount",
              "type": "tuple"
            },
            {
              "internalType": "address payable",
              "name": "beneficiary",
              "type": "address"
            },
            {
              "internalType": "string",
              "name": "memo",
              "type": "string"
            },
            {
              "internalType": "bytes",
              "name": "metadata",
              "type": "bytes"
            }
          ],
          "internalType": "struct JBDidRedeemData",
          "name": "_data",
          "type": "tuple"
        }
      ],
      "name": "didRedeem",
      "outputs": [],
      "stateMutability": "payable",
      "type": "function"
    },
    {
      "inputs": [],
      "name": "directory",
      "outputs": [
        {
          "internalType": "contract IJBDirectory",
          "name": "",
          "type": "address"
        }
      ],
      "stateMutability": "view",
      "type": "function"
    },
    {
      "inputs": [
        {
          "internalType": "uint256",
          "name": "_tokenId",
          "type": "uint256"
        }
      ],
      "name": "firstOwnerOf",
      "outputs": [
        {
          "internalType": "address",
          "name": "",
          "type": "address"
        }
      ],
      "stateMutability": "view",
      "type": "function"
    },
    {
      "inputs": [],
      "name": "fundingCycleStore",
      "outputs": [
        {
          "internalType": "contract IJBFundingCycleStore",
          "name": "",
          "type": "address"
        }
      ],
      "stateMutability": "view",
      "type": "function"
    },
    {
      "inputs": [],
      "name": "gamePhaseReporter",
      "outputs": [
        {
          "internalType": "contract IDefifaGamePhaseReporter",
          "name": "",
          "type": "address"
        }
      ],
      "stateMutability": "view",
      "type": "function"
    },
    {
      "inputs": [],
      "name": "gamePotReporter",
      "outputs": [
        {
          "internalType": "contract IDefifaGamePotReporter",
          "name": "",
          "type": "address"
        }
      ],
      "stateMutability": "view",
      "type": "function"
    },
    {
      "inputs": [
        {
          "internalType": "uint256",
          "name": "tokenId",
          "type": "uint256"
        }
      ],
      "name": "getApproved",
      "outputs": [
        {
          "internalType": "address",
          "name": "",
          "type": "address"
        }
      ],
      "stateMutability": "view",
      "type": "function"
    },
    {
      "inputs": [
        {
          "internalType": "address",
          "name": "_account",
          "type": "address"
        },
        {
          "internalType": "uint256",
          "name": "_tier",
          "type": "uint256"
        },
        {
          "internalType": "uint256",
          "name": "_blockNumber",
          "type": "uint256"
        }
      ],
      "name": "getPastTierAttestationUnitsOf",
      "outputs": [
        {
          "internalType": "uint256",
          "name": "",
          "type": "uint256"
        }
      ],
      "stateMutability": "view",
      "type": "function"
    },
    {
      "inputs": [
        {
          "internalType": "uint256",
          "name": "_tier",
          "type": "uint256"
        },
        {
          "internalType": "uint256",
          "name": "_blockNumber",
          "type": "uint256"
        }
      ],
      "name": "getPastTierTotalAttestationUnitsOf",
      "outputs": [
        {
          "internalType": "uint256",
          "name": "",
          "type": "uint256"
        }
      ],
      "stateMutability": "view",
      "type": "function"
    },
    {
      "inputs": [
        {
          "internalType": "address",
          "name": "_account",
          "type": "address"
        },
        {
          "internalType": "uint256",
          "name": "_tier",
          "type": "uint256"
        }
      ],
      "name": "getTierAttestationUnitsOf",
      "outputs": [
        {
          "internalType": "uint256",
          "name": "",
          "type": "uint256"
        }
      ],
      "stateMutability": "view",
      "type": "function"
    },
    {
      "inputs": [
        {
          "internalType": "address",
          "name": "_account",
          "type": "address"
        },
        {
          "internalType": "uint256",
          "name": "_tier",
          "type": "uint256"
        }
      ],
      "name": "getTierDelegateOf",
      "outputs": [
        {
          "internalType": "address",
          "name": "",
          "type": "address"
        }
      ],
      "stateMutability": "view",
      "type": "function"
    },
    {
      "inputs": [
        {
          "internalType": "uint256",
          "name": "_tier",
          "type": "uint256"
        }
      ],
      "name": "getTierTotalAttestationUnitsOf",
      "outputs": [
        {
          "internalType": "uint256",
          "name": "",
          "type": "uint256"
        }
      ],
      "stateMutability": "view",
      "type": "function"
    },
    {
      "inputs": [
        {
          "internalType": "uint256",
          "name": "_gameId",
          "type": "uint256"
        },
        {
          "internalType": "contract IJBDirectory",
          "name": "_directory",
          "type": "address"
        },
        {
          "internalType": "string",
          "name": "_name",
          "type": "string"
        },
        {
          "internalType": "string",
          "name": "_symbol",
          "type": "string"
        },
        {
          "internalType": "contract IJBFundingCycleStore",
          "name": "_fundingCycleStore",
          "type": "address"
        },
        {
          "internalType": "string",
          "name": "_baseUri",
          "type": "string"
        },
        {
          "internalType": "contract IJB721TokenUriResolver",
          "name": "_tokenUriResolver",
          "type": "address"
        },
        {
          "internalType": "string",
          "name": "_contractUri",
          "type": "string"
        },
        {
          "components": [
            {
              "internalType": "uint104",
              "name": "price",
              "type": "uint104"
            },
            {
              "internalType": "uint32",
              "name": "initialQuantity",
              "type": "uint32"
            },
            {
              "internalType": "uint32",
              "name": "votingUnits",
              "type": "uint32"
            },
            {
              "internalType": "uint16",
              "name": "reservedRate",
              "type": "uint16"
            },
            {
              "internalType": "address",
              "name": "reservedTokenBeneficiary",
              "type": "address"
            },
            {
              "internalType": "bytes32",
              "name": "encodedIPFSUri",
              "type": "bytes32"
            },
            {
              "internalType": "uint24",
              "name": "category",
              "type": "uint24"
            },
            {
              "internalType": "bool",
              "name": "allowManualMint",
              "type": "bool"
            },
            {
              "internalType": "bool",
              "name": "shouldUseReservedTokenBeneficiaryAsDefault",
              "type": "bool"
            },
            {
              "internalType": "bool",
              "name": "transfersPausable",
              "type": "bool"
            },
            {
              "internalType": "bool",
              "name": "useVotingUnits",
              "type": "bool"
            }
          ],
          "internalType": "struct JB721TierParams[]",
          "name": "_tiers",
          "type": "tuple[]"
        },
        {
          "internalType": "uint48",
          "name": "_currency",
          "type": "uint48"
        },
        {
          "internalType": "contract IJBTiered721DelegateStore",
          "name": "_store",
          "type": "address"
        },
        {
          "internalType": "contract IDefifaGamePhaseReporter",
          "name": "_gamePhaseReporter",
          "type": "address"
        },
        {
          "internalType": "contract IDefifaGamePotReporter",
          "name": "_gamePotReporter",
          "type": "address"
        },
        {
          "internalType": "address",
          "name": "_defaultAttestationDelegate",
          "type": "address"
        },
        {
          "internalType": "string[]",
          "name": "_tierNames",
          "type": "string[]"
        }
      ],
      "name": "initialize",
      "outputs": [],
      "stateMutability": "nonpayable",
      "type": "function"
    },
    {
      "inputs": [
        {
          "internalType": "address",
          "name": "owner",
          "type": "address"
        },
        {
          "internalType": "address",
          "name": "operator",
          "type": "address"
        }
      ],
      "name": "isApprovedForAll",
      "outputs": [
        {
          "internalType": "bool",
          "name": "",
          "type": "bool"
        }
      ],
      "stateMutability": "view",
      "type": "function"
    },
    {
      "inputs": [
        {
          "components": [
            {
              "internalType": "uint256",
              "name": "tierId",
              "type": "uint256"
            },
            {
              "internalType": "uint256",
              "name": "count",
              "type": "uint256"
            }
          ],
          "internalType": "struct JBTiered721MintReservesForTiersData[]",
          "name": "_mintReservesForTiersData",
          "type": "tuple[]"
        }
      ],
      "name": "mintReservesFor",
      "outputs": [],
      "stateMutability": "nonpayable",
      "type": "function"
    },
    {
      "inputs": [
        {
          "internalType": "uint256",
          "name": "_tierId",
          "type": "uint256"
        },
        {
          "internalType": "uint256",
          "name": "_count",
          "type": "uint256"
        }
      ],
      "name": "mintReservesFor",
      "outputs": [],
      "stateMutability": "nonpayable",
      "type": "function"
    },
    {
      "inputs": [],
      "name": "name",
      "outputs": [
        {
          "internalType": "string",
          "name": "",
          "type": "string"
        }
      ],
      "stateMutability": "view",
      "type": "function"
    },
    {
      "inputs": [],
      "name": "owner",
      "outputs": [
        {
          "internalType": "address",
          "name": "",
          "type": "address"
        }
      ],
      "stateMutability": "view",
      "type": "function"
    },
    {
      "inputs": [
        {
          "internalType": "uint256",
          "name": "tokenId",
          "type": "uint256"
        }
      ],
      "name": "ownerOf",
      "outputs": [
        {
          "internalType": "address",
          "name": "",
          "type": "address"
        }
      ],
      "stateMutability": "view",
      "type": "function"
    },
    {
      "inputs": [
        {
          "components": [
            {
              "internalType": "contract IJBPaymentTerminal",
              "name": "terminal",
              "type": "address"
            },
            {
              "internalType": "address",
              "name": "payer",
              "type": "address"
            },
            {
              "components": [
                {
                  "internalType": "address",
                  "name": "token",
                  "type": "address"
                },
                {
                  "internalType": "uint256",
                  "name": "value",
                  "type": "uint256"
                },
                {
                  "internalType": "uint256",
                  "name": "decimals",
                  "type": "uint256"
                },
                {
                  "internalType": "uint256",
                  "name": "currency",
                  "type": "uint256"
                }
              ],
              "internalType": "struct JBTokenAmount",
              "name": "amount",
              "type": "tuple"
            },
            {
              "internalType": "uint256",
              "name": "projectId",
              "type": "uint256"
            },
            {
              "internalType": "uint256",
              "name": "currentFundingCycleConfiguration",
              "type": "uint256"
            },
            {
              "internalType": "address",
              "name": "beneficiary",
              "type": "address"
            },
            {
              "internalType": "uint256",
              "name": "weight",
              "type": "uint256"
            },
            {
              "internalType": "uint256",
              "name": "reservedRate",
              "type": "uint256"
            },
            {
              "internalType": "string",
              "name": "memo",
              "type": "string"
            },
            {
              "internalType": "bytes",
              "name": "metadata",
              "type": "bytes"
            }
          ],
          "internalType": "struct JBPayParamsData",
          "name": "_data",
          "type": "tuple"
        }
      ],
      "name": "payParams",
      "outputs": [
        {
          "internalType": "uint256",
          "name": "weight",
          "type": "uint256"
        },
        {
          "internalType": "string",
          "name": "memo",
          "type": "string"
        },
        {
          "components": [
            {
              "internalType": "contract IJBPayDelegate",
              "name": "delegate",
              "type": "address"
            },
            {
              "internalType": "uint256",
              "name": "amount",
              "type": "uint256"
            }
          ],
          "internalType": "struct JBPayDelegateAllocation[]",
          "name": "delegateAllocations",
          "type": "tuple[]"
        }
      ],
      "stateMutability": "view",
      "type": "function"
    },
    {
      "inputs": [],
      "name": "pricingCurrency",
      "outputs": [
        {
          "internalType": "uint256",
          "name": "",
          "type": "uint256"
        }
      ],
      "stateMutability": "view",
      "type": "function"
    },
    {
      "inputs": [],
      "name": "projectId",
      "outputs": [
        {
          "internalType": "uint256",
          "name": "",
          "type": "uint256"
        }
      ],
      "stateMutability": "view",
      "type": "function"
    },
    {
      "inputs": [
        {
          "components": [
            {
              "internalType": "contract IJBPaymentTerminal",
              "name": "terminal",
              "type": "address"
            },
            {
              "internalType": "address",
              "name": "holder",
              "type": "address"
            },
            {
              "internalType": "uint256",
              "name": "projectId",
              "type": "uint256"
            },
            {
              "internalType": "uint256",
              "name": "currentFundingCycleConfiguration",
              "type": "uint256"
            },
            {
              "internalType": "uint256",
              "name": "tokenCount",
              "type": "uint256"
            },
            {
              "internalType": "uint256",
              "name": "totalSupply",
              "type": "uint256"
            },
            {
              "internalType": "uint256",
              "name": "overflow",
              "type": "uint256"
            },
            {
              "components": [
                {
                  "internalType": "address",
                  "name": "token",
                  "type": "address"
                },
                {
                  "internalType": "uint256",
                  "name": "value",
                  "type": "uint256"
                },
                {
                  "internalType": "uint256",
                  "name": "decimals",
                  "type": "uint256"
                },
                {
                  "internalType": "uint256",
                  "name": "currency",
                  "type": "uint256"
                }
              ],
              "internalType": "struct JBTokenAmount",
              "name": "reclaimAmount",
              "type": "tuple"
            },
            {
              "internalType": "bool",
              "name": "useTotalOverflow",
              "type": "bool"
            },
            {
              "internalType": "uint256",
              "name": "redemptionRate",
              "type": "uint256"
            },
            {
              "internalType": "string",
              "name": "memo",
              "type": "string"
            },
            {
              "internalType": "bytes",
              "name": "metadata",
              "type": "bytes"
            }
          ],
          "internalType": "struct JBRedeemParamsData",
          "name": "_data",
          "type": "tuple"
        }
      ],
      "name": "redeemParams",
      "outputs": [
        {
          "internalType": "uint256",
          "name": "reclaimAmount",
          "type": "uint256"
        },
        {
          "internalType": "string",
          "name": "memo",
          "type": "string"
        },
        {
          "components": [
            {
              "internalType": "contract IJBRedemptionDelegate",
              "name": "delegate",
              "type": "address"
            },
            {
              "internalType": "uint256",
              "name": "amount",
              "type": "uint256"
            }
          ],
          "internalType": "struct JBRedemptionDelegateAllocation[]",
          "name": "delegateAllocations",
          "type": "tuple[]"
        }
      ],
      "stateMutability": "view",
      "type": "function"
    },
    {
      "inputs": [],
      "name": "redemptionWeightIsSet",
      "outputs": [
        {
          "internalType": "bool",
          "name": "",
          "type": "bool"
        }
      ],
      "stateMutability": "view",
      "type": "function"
    },
    {
      "inputs": [
        {
          "internalType": "uint256",
          "name": "_tokenId",
          "type": "uint256"
        }
      ],
      "name": "redemptionWeightOf",
      "outputs": [
        {
          "internalType": "uint256",
          "name": "",
          "type": "uint256"
        }
      ],
      "stateMutability": "view",
      "type": "function"
    },
    {
      "inputs": [
        {
          "internalType": "uint256[]",
          "name": "_tokenIds",
          "type": "uint256[]"
        },
        {
          "components": [
            {
              "internalType": "contract IJBPaymentTerminal",
              "name": "terminal",
              "type": "address"
            },
            {
              "internalType": "address",
              "name": "holder",
              "type": "address"
            },
            {
              "internalType": "uint256",
              "name": "projectId",
              "type": "uint256"
            },
            {
              "internalType": "uint256",
              "name": "currentFundingCycleConfiguration",
              "type": "uint256"
            },
            {
              "internalType": "uint256",
              "name": "tokenCount",
              "type": "uint256"
            },
            {
              "internalType": "uint256",
              "name": "totalSupply",
              "type": "uint256"
            },
            {
              "internalType": "uint256",
              "name": "overflow",
              "type": "uint256"
            },
            {
              "components": [
                {
                  "internalType": "address",
                  "name": "token",
                  "type": "address"
                },
                {
                  "internalType": "uint256",
                  "name": "value",
                  "type": "uint256"
                },
                {
                  "internalType": "uint256",
                  "name": "decimals",
                  "type": "uint256"
                },
                {
                  "internalType": "uint256",
                  "name": "currency",
                  "type": "uint256"
                }
              ],
              "internalType": "struct JBTokenAmount",
              "name": "reclaimAmount",
              "type": "tuple"
            },
            {
              "internalType": "bool",
              "name": "useTotalOverflow",
              "type": "bool"
            },
            {
              "internalType": "uint256",
              "name": "redemptionRate",
              "type": "uint256"
            },
            {
              "internalType": "string",
              "name": "memo",
              "type": "string"
            },
            {
              "internalType": "bytes",
              "name": "metadata",
              "type": "bytes"
            }
          ],
          "internalType": "struct JBRedeemParamsData",
          "name": "",
          "type": "tuple"
        }
      ],
      "name": "redemptionWeightOf",
      "outputs": [
        {
          "internalType": "uint256",
          "name": "cumulativeWeight",
          "type": "uint256"
        }
      ],
      "stateMutability": "view",
      "type": "function"
    },
    {
      "inputs": [],
      "name": "renounceOwnership",
      "outputs": [],
      "stateMutability": "nonpayable",
      "type": "function"
    },
    {
      "inputs": [
        {
          "internalType": "address",
          "name": "from",
          "type": "address"
        },
        {
          "internalType": "address",
          "name": "to",
          "type": "address"
        },
        {
          "internalType": "uint256",
          "name": "tokenId",
          "type": "uint256"
        }
      ],
      "name": "safeTransferFrom",
      "outputs": [],
      "stateMutability": "nonpayable",
      "type": "function"
    },
    {
      "inputs": [
        {
          "internalType": "address",
          "name": "from",
          "type": "address"
        },
        {
          "internalType": "address",
          "name": "to",
          "type": "address"
        },
        {
          "internalType": "uint256",
          "name": "tokenId",
          "type": "uint256"
        },
        {
          "internalType": "bytes",
          "name": "data",
          "type": "bytes"
        }
      ],
      "name": "safeTransferFrom",
      "outputs": [],
      "stateMutability": "nonpayable",
      "type": "function"
    },
    {
      "inputs": [
        {
          "internalType": "address",
          "name": "operator",
          "type": "address"
        },
        {
          "internalType": "bool",
          "name": "approved",
          "type": "bool"
        }
      ],
      "name": "setApprovalForAll",
      "outputs": [],
      "stateMutability": "nonpayable",
      "type": "function"
    },
    {
      "inputs": [
        {
          "internalType": "address",
          "name": "_delegatee",
          "type": "address"
        },
        {
          "internalType": "uint256",
          "name": "_tierId",
          "type": "uint256"
        }
      ],
      "name": "setTierDelegateTo",
      "outputs": [],
      "stateMutability": "nonpayable",
      "type": "function"
    },
    {
      "inputs": [
        {
          "components": [
            {
              "internalType": "address",
              "name": "delegatee",
              "type": "address"
            },
            {
              "internalType": "uint256",
              "name": "tierId",
              "type": "uint256"
            }
          ],
          "internalType": "struct JBTiered721SetTierDelegatesData[]",
          "name": "_setTierDelegatesData",
          "type": "tuple[]"
        }
      ],
      "name": "setTierDelegatesTo",
      "outputs": [],
      "stateMutability": "nonpayable",
      "type": "function"
    },
    {
      "inputs": [
        {
          "components": [
            {
              "internalType": "uint256",
              "name": "id",
              "type": "uint256"
            },
            {
              "internalType": "uint256",
              "name": "redemptionWeight",
              "type": "uint256"
            }
          ],
          "internalType": "struct DefifaTierRedemptionWeight[]",
          "name": "_tierWeights",
          "type": "tuple[]"
        }
      ],
      "name": "setTierRedemptionWeightsTo",
      "outputs": [],
      "stateMutability": "nonpayable",
      "type": "function"
    },
    {
      "inputs": [],
      "name": "store",
      "outputs": [
        {
          "internalType": "contract IJBTiered721DelegateStore",
          "name": "",
          "type": "address"
        }
      ],
      "stateMutability": "view",
      "type": "function"
    },
    {
      "inputs": [
        {
          "internalType": "bytes4",
          "name": "_interfaceId",
          "type": "bytes4"
        }
      ],
      "name": "supportsInterface",
      "outputs": [
        {
          "internalType": "bool",
          "name": "",
          "type": "bool"
        }
      ],
      "stateMutability": "view",
      "type": "function"
    },
    {
      "inputs": [],
      "name": "symbol",
      "outputs": [
        {
          "internalType": "string",
          "name": "",
          "type": "string"
        }
      ],
      "stateMutability": "view",
      "type": "function"
    },
    {
      "inputs": [
        {
          "internalType": "uint256",
          "name": "_tierId",
          "type": "uint256"
        }
      ],
      "name": "tierNameOf",
      "outputs": [
        {
          "internalType": "string",
          "name": "",
          "type": "string"
        }
      ],
      "stateMutability": "view",
      "type": "function"
    },
    {
      "inputs": [],
      "name": "tierRedemptionWeights",
      "outputs": [
        {
          "internalType": "uint256[128]",
          "name": "",
          "type": "uint256[128]"
        }
      ],
      "stateMutability": "view",
      "type": "function"
    },
    {
      "inputs": [
        {
          "internalType": "uint256",
          "name": "_tokenId",
          "type": "uint256"
        }
      ],
      "name": "tokenURI",
      "outputs": [
        {
          "internalType": "string",
          "name": "",
          "type": "string"
        }
      ],
      "stateMutability": "view",
      "type": "function"
    },
    {
      "inputs": [
        {
          "internalType": "uint256",
          "name": "",
          "type": "uint256"
        }
      ],
      "name": "tokensRedeemedFrom",
      "outputs": [
        {
          "internalType": "uint256",
          "name": "",
          "type": "uint256"
        }
      ],
      "stateMutability": "view",
      "type": "function"
    },
    {
      "inputs": [
        {
          "components": [
            {
              "internalType": "contract IJBPaymentTerminal",
              "name": "terminal",
              "type": "address"
            },
            {
              "internalType": "address",
              "name": "holder",
              "type": "address"
            },
            {
              "internalType": "uint256",
              "name": "projectId",
              "type": "uint256"
            },
            {
              "internalType": "uint256",
              "name": "currentFundingCycleConfiguration",
              "type": "uint256"
            },
            {
              "internalType": "uint256",
              "name": "tokenCount",
              "type": "uint256"
            },
            {
              "internalType": "uint256",
              "name": "totalSupply",
              "type": "uint256"
            },
            {
              "internalType": "uint256",
              "name": "overflow",
              "type": "uint256"
            },
            {
              "components": [
                {
                  "internalType": "address",
                  "name": "token",
                  "type": "address"
                },
                {
                  "internalType": "uint256",
                  "name": "value",
                  "type": "uint256"
                },
                {
                  "internalType": "uint256",
                  "name": "decimals",
                  "type": "uint256"
                },
                {
                  "internalType": "uint256",
                  "name": "currency",
                  "type": "uint256"
                }
              ],
              "internalType": "struct JBTokenAmount",
              "name": "reclaimAmount",
              "type": "tuple"
            },
            {
              "internalType": "bool",
              "name": "useTotalOverflow",
              "type": "bool"
            },
            {
              "internalType": "uint256",
              "name": "redemptionRate",
              "type": "uint256"
            },
            {
              "internalType": "string",
              "name": "memo",
              "type": "string"
            },
            {
              "internalType": "bytes",
              "name": "metadata",
              "type": "bytes"
            }
          ],
          "internalType": "struct JBRedeemParamsData",
          "name": "",
          "type": "tuple"
        }
      ],
      "name": "totalRedemptionWeight",
      "outputs": [
        {
          "internalType": "uint256",
          "name": "",
          "type": "uint256"
        }
      ],
      "stateMutability": "view",
      "type": "function"
    },
    {
      "inputs": [
        {
          "internalType": "address",
          "name": "from",
          "type": "address"
        },
        {
          "internalType": "address",
          "name": "to",
          "type": "address"
        },
        {
          "internalType": "uint256",
          "name": "tokenId",
          "type": "uint256"
        }
      ],
      "name": "transferFrom",
      "outputs": [],
      "stateMutability": "nonpayable",
      "type": "function"
    },
    {
      "inputs": [
        {
          "internalType": "address",
          "name": "newOwner",
          "type": "address"
        }
      ],
      "name": "transferOwnership",
      "outputs": [],
      "stateMutability": "nonpayable",
      "type": "function"
    }
  ],
  "bytecode": {
    "object": "0x60c034620000d757601f6200614838819003918201601f19168301916001600160401b03831184841017620000dc57808492602094604052833981010312620000d757516001600160a01b03908181168103620000d75760078054336001600160a01b03198216811790925560405193167f8be0079c531659141344cd1fd0a4f28419497f9722a3daafe3b4186f6b6457e0600080a33060a0526080526160559081620000f3823960805181818161140e01528181612d970152818161459c0152614619015260a0518181816109dc01526137040152f35b600080fd5b634e487b7160e01b600052604160045260246000fdfe6080604052600436101561001257600080fd5b60003560e01c806301ffc9a71461038757806306fdde031461038257806307405b241461037d578063081812fc14610378578063095ea7b3146103735780631baabc3e1461036e5780631d153ca41461036957806323b872dd1461036457806327f6e9791461035f5780632a596e531461035a5780632b13c58f146103555780633900c6f9146103505780633b2b8a781461034b5780633fafa1271461034657806342842e0e146103415780634f228e111461033c57806354c6d1f514610337578063557e7155146103325780636352211e1461032d578063640abacd1461032857806364640c1e146103235780636c0360eb1461031e57806370a0823114610319578063715018a6146103145780637245d80c1461030f578063743682b51461030a57806374701b6a146103055780637ba62bf9146103005780637eac89cc146102fb5780637f989887146102f65780638da5cb5b146102f15780639494bf72146102ec57806395d89b41146102e7578063975057e7146102e25780639c8c6cd5146102dd5780639df45468146102d8578063a0b6490c146102d3578063a22cb465146102ce578063a51cfd18146102c9578063a8c15f4a146102c4578063aa4fb15b146102bf578063b88d4fde146102ba578063c3c69a96146102b5578063c41c2f24146102b0578063c87b56dd146102ab578063c90f5126146102a6578063d46cf171146102a1578063d9119f5f1461029c578063da9ee8b714610297578063e8a3d48514610292578063e985e9c51461028d578063ea1c1b2514610288578063f2fde38b14610283578063f7623b811461027e5763fadd72b71461027957600080fd5b6123ff565b6123a4565b6122fd565b6122af565b612245565b61219e565b612086565b612058565b611f9c565b611e7d565b611d54565b611d2d565b611cd1565b611c69565b611c4a565b611c27565b611b9d565b611acf565b611aa8565b611a23565b6119d6565b6119af565b61190a565b6118e9565b6118c2565b61189b565b611860565b611809565b61178d565b611761565b61173a565b6116de565b611635565b61158e565b611536565b611513565b6114f5565b6114ce565b6114b0565b61148a565b611450565b611432565b6113ee565b6112f3565b610b30565b610a71565b610a53565b610a2c565b6109bc565b6108ff565b610814565b6107e5565b6106ed565b6105e2565b6103a3565b6001600160e01b031981160361039e57565b600080fd5b3461039e57602060031936011261039e576103f26001600160e01b03196004356103cc8161038c565b1663b18e7c3960e01b81149081156103f6575b5060405190151581529081906020820190565b0390f35b7ffbb38e0300000000000000000000000000000000000000000000000000000000811491508115610551575b8115610527575b81156104fd575b81156104d3575b8115610445575b50386103df565b7f80ac58cd000000000000000000000000000000000000000000000000000000008114915081156104a9575b811561047f575b503861043e565b7f01ffc9a70000000000000000000000000000000000000000000000000000000091501438610478565b7f5b5e139f0000000000000000000000000000000000000000000000000000000081149150610471565b7f2a55205a0000000000000000000000000000000000000000000000000000000081149150610437565b7f2b13c58f0000000000000000000000000000000000000000000000000000000081149150610430565b7fda9ee8b70000000000000000000000000000000000000000000000000000000081149150610429565b7f71700c690000000000000000000000000000000000000000000000000000000081149150610422565b600091031261039e57565b60005b8381106105995750506000910152565b8181015183820152602001610589565b90601f19601f6020936105c781518092818752878088019101610586565b0116010190565b9060206105df9281815201906105a9565b90565b3461039e576000806003193601126106be576040519080805461060481611554565b80855291600191808316908115610694575060011461063a575b6103f28561062e81870382610f7c565b604051918291826105ce565b80809450527f290decd9548b62a8d60345a988386fc84ba6bc95484008f6362f93160ef3e5635b82841061067c57505050810160200161062e826103f261061e565b80546020858701810191909152909301928101610661565b8695506103f29693506020925061062e94915060ff191682840152151560051b820101929361061e565b80fd5b6001600160a01b0381160361039e57565b6101a435906106e0826106c1565b565b35906106e0826106c1565b3461039e57604060031936011261039e5760043561070a816106c1565b6107546020610730610724608f546001600160a01b031690565b6001600160a01b031690565b60055490604051808095819463038ab08560e11b8352600483019190602083019252565b03915afa80156107e0576001916000916107b2575b50610773816129f9565b03610788576107869060243590336141e5565b005b60046040517ff331f3c1000000000000000000000000000000000000000000000000000000008152fd5b6107d3915060203d81116107d9575b6107cb8183610f7c565b8101906129e1565b38610769565b503d6107c1565b6124d3565b3461039e57602060031936011261039e5760206108036004356146d5565b6001600160a01b0360405191168152f35b3461039e57604060031936011261039e57600435610831816106c1565b6024356001600160a01b03806108468361468b565b1680918416146108d557803314159081610893575b5061086957610786916150e1565b60046040517fe5fa0e35000000000000000000000000000000000000000000000000000000008152fd5b905060005260046020526108cf6108cb6108c4336040600020906001600160a01b0316600052602052604060002090565b5460ff1690565b1590565b3861085b565b60046040517f133f8be9000000000000000000000000000000000000000000000000000000008152fd5b3461039e5760208060031936011261039e576000906004358252600981526040822090604051918381549061093382611554565b80865292600192808416908115610998575060011461095d575b6103f28661062e818a0382610f7c565b9080949650528483205b82841061098557505050816103f29361062e9282010193388061094d565b8054858501870152928501928101610967565b60ff19168787015250505050151560051b820101915061062e816103f2388061094d565b3461039e57600060031936011261039e5760206040516001600160a01b037f0000000000000000000000000000000000000000000000000000000000000000168152f35b600319606091011261039e57600435610a18816106c1565b90602435610a25816106c1565b9060443590565b3461039e57610a3a36610a00565b90610a45823361476b565b156108695761078692614e34565b3461039e57600060031936011261039e576020609654604051908152f35b3461039e5760208060031936011261039e576004359067ffffffffffffffff9081831161039e573660238401121561039e57826004013591821161039e57602490600693368385871b8301011161039e5760005b848110610ace57005b600190610af0610ae43687848b1b8701016123d7565b85815191015190613a03565b01610ac5565b90816101e091031261039e5790565b602060031982011261039e576004359067ffffffffffffffff821161039e576105df91600401610af6565b610b3936610b05565b3415801590610e5e575b8015610e4e575b610e245760a08101358015610dfa576101c082016024610b6a82856128b2565b9050108015610dc4575b610d9a57610b85610b8d91846128b2565b8101906129a6565b929150508151610ba8610724608f546001600160a01b031690565b906005549160408051809263038ab08560e11b825260209384918180610bd760049a8b83019190602083019252565b03915afa80156107e0578591600091610d7d575b50610bf5816129f9565b149360005b848110610c3a575050505050610c0f8361448c565b610c1557005b61078692610c30610c2b610c35936096546125c1565b609655565b61409f565b61452b565b610c448189612584565b5190610c6a610c5d836000526002602052604060002090565b546001600160a01b031690565b6001600160a01b03610c7e6107248d61409f565b911603610d55578487610c9084614c5a565b610ca0575b506001915001610bfa565b610cf092610cb9610724608d546001600160a01b031690565b865180809681947f42f9914b0000000000000000000000000000000000000000000000000000000083528983019190602083019252565b03915afa9182156107e057600192610d1b91600091610d28575b506000526098602052604060002090565b8054600101905584610c95565b610d489150873d8911610d4e575b610d408183610f7c565b8101906124c4565b38610d0a565b503d610d36565b8284517f075fd2b1000000000000000000000000000000000000000000000000000000008152fd5b610d949150843d86116107d9576107cb8183610f7c565b38610beb565b60046040517f2a84050f000000000000000000000000000000000000000000000000000000008152fd5b5063b18e7c3960e01b6001600160e01b0319610df2610dec610de685886128b2565b90612903565b90612925565b161415610b74565b60046040517f76914729000000000000000000000000000000000000000000000000000000008152fd5b60046040517f7df94b86000000000000000000000000000000000000000000000000000000008152fd5b5060055460208201351415610b4a565b50610ebf6020610e796107246006546001600160a01b031690565b6005546040517f6e49181f000000000000000000000000000000000000000000000000000000008152600481019190915233602482015292839190829081906044820190565b03915afa9081156107e057600091610ed9575b5015610b43565b610efa915060203d8111610f00575b610ef28183610f7c565b81019061408a565b38610ed2565b503d610ee8565b602435906106e0826106c1565b634e487b7160e01b600052604160045260246000fd5b6040810190811067ffffffffffffffff821117610f4657604052565b610f14565b67ffffffffffffffff8111610f4657604052565b611000810190811067ffffffffffffffff821117610f4657604052565b90601f601f19910116810190811067ffffffffffffffff821117610f4657604052565b60405190610160820182811067ffffffffffffffff821117610f4657604052565b604051906106e082610f2a565b60405190610180820182811067ffffffffffffffff821117610f4657604052565b60405190610120820182811067ffffffffffffffff821117610f4657604052565b67ffffffffffffffff8111610f4657601f01601f191660200190565b9291926110378261100f565b916110456040519384610f7c565b82948184528183011161039e578281602093846000960137010152565b9080601f8301121561039e578160206105df9335910161102b565b608435906106e0826106c1565b60c435906106e0826106c1565b67ffffffffffffffff8111610f465760051b60200190565b35906cffffffffffffffffffffffffff8216820361039e57565b359063ffffffff8216820361039e57565b359061ffff8216820361039e57565b359062ffffff8216820361039e57565b8015150361039e57565b35906106e0826110f9565b81601f8201121561039e5780359061112582611097565b9260409061113582519586610f7c565b83855260209182860191836101608097028601019481861161039e578401925b858410611166575050505050505090565b868483031261039e5784879161117a610f9f565b611183876110af565b81526111908388016110c9565b8382015261119f8688016110c9565b8682015260606111b08189016110da565b9082015260806111c18189016106e2565b9082015260a0808801359082015260c06111dc8189016110e9565b9082015260e06111ed818901611103565b908201526101006111ff818901611103565b90820152610120611211818901611103565b90820152610140611223818901611103565b90820152815201930192611155565b610124359065ffffffffffff8216820361039e57565b61014435906106e0826106c1565b61016435906106e0826106c1565b61018435906106e0826106c1565b9080601f8301121561039e5781359061128a82611097565b926112986040519485610f7c565b828452602092838086019160051b8301019280841161039e57848301915b8483106112c65750505050505090565b823567ffffffffffffffff811161039e5786916112e884848094890101611062565b8152019201916112b6565b3461039e576101e060031936011261039e5761130d610f07565b60443567ffffffffffffffff9182821161039e5761133060049236908401611062565b60643584811161039e576113479036908501611062565b61134f61107d565b60a43586811161039e576113669036908701611062565b61136e61108a565b60e43588811161039e576113859036908901611062565b6101043589811161039e5761139d9036908a0161110e565b916113a6611232565b936113af611248565b956113b8611256565b976113c1611264565b996113ca6106d2565b9b6101c4359e8f1161039e576113e76107869f8f90369101611272565b9d356136ea565b3461039e57600060031936011261039e5760206040516001600160a01b037f0000000000000000000000000000000000000000000000000000000000000000168152f35b3461039e57600060031936011261039e576020600554604051908152f35b3461039e5761145e36610a00565b60405191602083019383851067ffffffffffffffff861117610f46576107869460405260008452614714565b3461039e57602060031936011261039e5760206114a8600435612744565b604051908152f35b3461039e57602060031936011261039e576020610803600435612492565b3461039e57600060031936011261039e5760206001600160a01b03608e5416604051908152f35b3461039e57602060031936011261039e57602061080360043561468b565b3461039e57600060031936011261039e576020604051670de0b6b3a76400008152f35b3461039e57600060031936011261039e576020609154604051908152f35b90600182811c92168015611584575b602083101461156e57565b634e487b7160e01b600052602260045260246000fd5b91607f1691611563565b3461039e576000806003193601126106be5760405190806093546115b181611554565b8085529160019180831690811561069457506001146115da576103f28561062e81870382610f7c565b9250609383527f28da5ca8143bfa5e9f642e58e5e87bef0a2eb0c00bcd4efdd01050293f5fac915b82841061161d57505050810160200161062e826103f261061e565b80546020858701810191909152909301928101611602565b3461039e57602060031936011261039e57600435611652816106c1565b60206001600160a01b03604481608d54169360405194859384927ff7888aec0000000000000000000000000000000000000000000000000000000084523060048501521660248301525afa80156107e0576103f2916000916116c0575b506040519081529081906020820190565b6116d8915060203d8111610d4e57610d408183610f7c565b386116af565b3461039e576000806003193601126106be576116f86159be565b806001600160a01b036007546001600160a01b03198116600755167f8be0079c531659141344cd1fd0a4f28419497f9722a3daafe3b4186f6b6457e08280a380f35b3461039e57600060031936011261039e5760206001600160a01b0360905416604051908152f35b3461039e57602060031936011261039e5760043560005260986020526020604060002054604051908152f35b3461039e57600060031936011261039e576020609754604051908152f35b81601f8201121561039e578035916117c283611097565b926117d06040519485610f7c565b808452602092838086019260051b82010192831161039e578301905b8282106117fa575050505090565b813581529083019083016117ec565b3461039e57604060031936011261039e5767ffffffffffffffff60043581811161039e5761183b9036906004016117ab565b9060243590811161039e5760209161185a6114a8923690600401610af6565b506125ce565b3461039e57602060031936011261039e5760043567ffffffffffffffff811161039e576114a861189660209236906004016117ab565b612d5a565b3461039e57600060031936011261039e5760206001600160a01b0360955416604051908152f35b3461039e57600060031936011261039e5760206001600160a01b0360075416604051908152f35b3461039e576118f736610b05565b506020604051670de0b6b3a76400008152f35b3461039e576000806003193601126106be576040519080600180549161192f83611554565b808652928281169081156106945750600114611955576103f28561062e81870382610f7c565b92508083527fb10e2d527612073b26eecdfd717e6a320cf44b4afac2b0732d9fcbe2b7fa0cf65b82841061199757505050810160200161062e826103f261061e565b8054602085870181019190915290930192810161197c565b3461039e57600060031936011261039e5760206001600160a01b03608d5416604051908152f35b3461039e57604060031936011261039e5760206004356119f5816106c1565b6001600160a01b03809116600052608a82526040600020602435600052825260406000205416604051908152f35b3461039e57600060031936011261039e57604051611a4081610f5f565b6110008091369037604051600a6000825b60808210611a9257505050611a6581610f5f565b60405190600090825b60808310611a7b57505050f35b600190825181526020809101920192019190611a6e565b6001602081928554815201930191019091611a51565b3461039e57600060031936011261039e5760206001600160a01b03608f5416604051908152f35b3461039e57604060031936011261039e57600435611aec816106c1565b602435611af8816110f9565b6001600160a01b03821691823314611b7357611b34903360005260046020526040600020906001600160a01b0316600052602052604060002090565b9015159060ff1981541660ff83161790556040519081527f17307eab39ab6107e8899845ad3d59bd9653f200f220920489ca2b5937696c3160203392a3005b60046040517f0df0273a000000000000000000000000000000000000000000000000000000008152fd5b3461039e57611bb3611bae36610b05565b612a19565b604092919280519384938452611bd560209160608387015260608601906105a9565b90848203838601528080855193848152019401926000905b838210611bfa5786860387f35b845180516001600160a01b0316875283015186840152879650948501949382019360019190910190611bed565b3461039e57600060031936011261039e57602060ff609254166040519015158152f35b3461039e57604060031936011261039e57610786602435600435613a03565b3461039e57608060031936011261039e57600435611c86816106c1565b602435611c92816106c1565b6064359167ffffffffffffffff831161039e573660238401121561039e57611cc761078693369060248160040135910161102b565b9160443591614714565b3461039e57604060031936011261039e576001600160a01b03600435611cf6816106c1565b16600052608b602052604060002060243560005260205260206001600160e01b03611d246040600020615c35565b16604051908152f35b3461039e57600060031936011261039e5760206001600160a01b0360065416604051908152f35b3461039e57602060031936011261039e57611d7a610724608d546001600160a01b031690565b6040517f0fab094700000000000000000000000000000000000000000000000000000000815230600482015290602090829060249082905afa9081156107e057600091611e4f575b506040517f5e703e710000000000000000000000000000000000000000000000000000000081523060048083019190915235602482015290600090829060449082906001600160a01b03165afa80156107e0576103f291600091611e2e575b50604051918291826105ce565b611e49913d8091833e611e418183610f7c565b810190612536565b38611e21565b611e70915060203d8111611e76575b611e688183610f7c565b8101906124df565b38611dc2565b503d611e5e565b3461039e5760208060031936011261039e576004359067ffffffffffffffff821161039e573660238301121561039e57816004013591611ebc83611097565b91604093611ecc85519485610f7c565b80845260248285019160061b8401019236841161039e57602401905b838210611ef857610786856140a9565b858236031261039e578286918251611f0f81610f2a565b8435611f1a816106c1565b81528285013583820152815201910190611ee8565b91908252611f4960209160608385015260608401906105a9565b90604092838184039101528080855193848152019401926000905b838210611f7357505050505090565b845180516001600160a01b03168752830151868401529485019493820193600190910190611f64565b3461039e576020600319818136011261039e576004359067ffffffffffffffff821161039e576101a090823603011261039e57611fea611fe36101648301836004016128b2565b369161102b565b60405190611ff782610f2a565b6001825260005b8481106120425750906103f291610124946000612019610fc0565b3081529182015261202983612572565b5261203382612572565b50604051948594013584611f2f565b849061204c612951565b82828601015201611ffe565b3461039e57604060031936011261039e57600435600052608c60205260206114a86024356040600020615a5e565b60031960208136011261039e576004359067ffffffffffffffff821161039e5761020090823603011261039e57600554341590811591612112575b8115612103575b506120d95761078690600401615482565b60046040517fc715ec6c000000000000000000000000000000000000000000000000000000008152fd5b905060248201351415386120c8565b90506121296107246006546001600160a01b031690565b6040517f6e49181f0000000000000000000000000000000000000000000000000000000081526004810183905233602482015290602090829060449082905afa9081156107e057600091612180575b5015906120c1565b612198915060203d8111610f0057610ef28183610f7c565b38612178565b3461039e576000806003193601126106be5760405190806094546121c181611554565b8085529160019180831690811561069457506001146121ea576103f28561062e81870382610f7c565b9250609483527f7047a3cc0a76edcee45792ca71527c753f6167484f14b94c4a3bd2997516725c5b82841061222d57505050810160200161062e826103f261061e565b80546020858701810191909152909301928101612212565b3461039e57604060031936011261039e57602060ff6122a3600435612269816106c1565b6001600160a01b036024359161227e836106c1565b16600052600484526040600020906001600160a01b0316600052602052604060002090565b54166040519015158152f35b3461039e57606060031936011261039e576001600160a01b036004356122d4816106c1565b16600052608b602052604060002060243560005260205260206114a86044356040600020615a5e565b3461039e57602060031936011261039e5760043561231a816106c1565b6123226159be565b6001600160a01b0381161561233a5761078690615a16565b608460405162461bcd60e51b815260206004820152602660248201527f4f776e61626c653a206e6577206f776e657220697320746865207a65726f206160448201527f64647265737300000000000000000000000000000000000000000000000000006064820152fd5b3461039e57602060031936011261039e57600435600052608c60205260206001600160e01b03611d246040600020615c35565b919082604091031261039e576040516123ef81610f2a565b6020808294803584520135910152565b3461039e5760208060031936011261039e576004359067ffffffffffffffff821161039e573660238301121561039e5781600401359161243e83611097565b9160409361244e85519485610f7c565b80845260248285019160061b8401019236841161039e57602401905b83821061247a5761078685613d2f565b82869161248736856123d7565b81520191019061246a565b60005260086020526001600160a01b038060406000205416806124bf575060026020526040600020541690565b905090565b9081602091031261039e575190565b6040513d6000823e3d90fd5b9081602091031261039e57516105df816106c1565b81601f8201121561039e57805161250a8161100f565b926125186040519485610f7c565b8184526020828401011161039e576105df9160208085019101610586565b9060208282031261039e57815167ffffffffffffffff811161039e576105df92016124f4565b634e487b7160e01b600052603260045260246000fd5b80511561257f5760200190565b61255c565b805182101561257f5760209160051b010190565b634e487b7160e01b600052601160045260246000fd5b90600182018092116125bc57565b612598565b919082018092116125bc57565b9060009180516000915b8183106125e457505050565b9091936125fa6125f48684612584565b51612744565b81018091116125bc579360010191906125d8565b51906106e0826106c1565b51906106e0826110f9565b60208183031261039e57805167ffffffffffffffff9182821161039e57016101808184031261039e57612655610fcd565b92815184526020820151602085015260408201516040850152606082015160608501526080820151608085015260a082015160a085015261269860c0830161260e565b60c085015260e082015160e085015261010080830151908501526101206126c0818401612619565b908501526101406126d2818401612619565b90850152610160928383015190811161039e576126ef92016124f4565b9082015290565b9060001982019182116125bc57565b919082039182116125bc57565b608081101561257f57600a0190600090565b811561272e570490565b634e487b7160e01b600052601260045260246000fd5b612797602061275e610724608d546001600160a01b031690565b92604051809381927f42f9914b000000000000000000000000000000000000000000000000000000008352600483019190602083019252565b0381855afa9081156107e057600091612894575b506040516364faa15960e01b8152306004820152602481018290526000604482018190529092839060649082905afa9182156107e057600092612871575b506128086127fe6127f9836126f6565b612712565b90549060031b1c90565b90811561286957606083019061282660408351950194855190612705565b15612860576128536128426105df9561285a9451905190612705565b916000526098602052604060002090565b54906125c1565b90612724565b50505050600090565b505050600090565b61288d91923d8091833e6128858183610f7c565b810190612624565b90386127e9565b6128ac915060203d8111610d4e57610d408183610f7c565b386127ab565b9035907fffffffffffffffffffffffffffffffffffffffffffffffffffffffffffffffe18136030182121561039e570180359067ffffffffffffffff821161039e5760200191813603831361039e57565b9060241161039e5760200190600490565b9060441161039e5760400190600490565b6001600160e01b0319903581811693926004811061294257505050565b60040360031b82901b16169150565b6040519061295e82610f2a565b60006020838281520152565b6040519061297782610f2a565b600182528160005b602090818110156129a157602091612995612951565b9082850101520161297f565b505050565b9160608383031261039e5782359260208101356129c28161038c565b92604082013567ffffffffffffffff811161039e576105df92016117ab565b9081602091031261039e5751600781101561039e5790565b60071115612a0357565b634e487b7160e01b600052602160045260246000fd5b90600090816080840135612ca1576101c08401906024612a3983876128b2565b9050108015612c77575b610d9a57612a4f61296a565b93612a84610b85612a5e610fc0565b308152946020958487820152612a7389612572565b52612a7d88612572565b50886128b2565b94915050612a9d610724608f546001600160a01b031690565b91604088838251809663038ab08560e11b82528180612ac88760049701358783019190602083019252565b03915afa9485156107e0578395612c58575b50612ae4856129f9565b600194858114908115612c43575b8115612c2e575b8115612c1a575b50612b4457505050505050611fe3612b34612b4092612b2e612b2860965460c08a01356125c1565b916125ce565b90615eb4565b946101a08101906128b2565b9190565b9498959291908351938296612b64610724608d546001600160a01b031690565b915b868910612b8857505050505050505050611fe3816101a0612b409301906128b2565b90919293949596979b612bd69086612ba08f85612584565b5187518094819263c44a8e6d60e01b83523089840160409060009294936001600160a01b03606083019616825260208201520152565b0381885afa9182156107e0578a9289918991612c00575b500151019c019796959493929190612b66565b612c1491503d808b833e6128858183610f7c565b38612bed565b60059150612c27816129f9565b1438612b00565b9050612c39816129f9565b6006811490612af9565b9050612c4e816129f9565b6002811490612af2565b612c70919550843d86116107d9576107cb8183610f7c565b9338612ada565b5063b18e7c3960e01b6001600160e01b0319612c99610dec610de6868a6128b2565b161415612a43565b60046040517f4fc178d8000000000000000000000000000000000000000000000000000000008152fd5b9081606091031261039e5780519160406020830151612ce9816106c1565b92015190565b60405190610180820182811067ffffffffffffffff821117610f4657604052606061016083600080825280602083015280604083015280848301528060808301528060a08301528060c08301528060e083015280610100830152806101208301526101408201520152565b604080517f70a0823100000000000000000000000000000000000000000000000000000000815230600480830191909152909290602080856024817f00000000000000000000000000000000000000000000000000000000000000006001600160a01b03165afa9485156107e057600095612fd4575b508415612fca576097548015612fc257925b612df76107246090546001600160a01b031690565b946005548151967fb4dfb08600000000000000000000000000000000000000000000000000000000885260608880612e3f858a83016020600191939293604081019481520152565b0381845afa9788156107e057600098612f88575b5082517ff2ae5f6e0000000000000000000000000000000000000000000000000000000081528681019283529185918391829081906020015b03915afa80156107e057612ea991600091612f6b575b5087612705565b612eb65750505050505090565b908094959796505190612ec7612cef565b506000948594612ee2610724608d546001600160a01b031690565b915b848710612f095750505050505050612f036105df9394609654906125c1565b91615f61565b90919293949596612f20906000612ba08a85612584565b0381885afa9081156107e05788612f4592600194600091612f52575b500151906125c1565b9701959493929190612ee4565b612f65913d8091833e6128858183610f7c565b38612f3c565b612f829150853d8711610d4e57610d408183610f7c565b38612ea2565b8591985091612fb0612e8c9360603d8111612fbb575b612fa88183610f7c565b810190612ccb565b505098915091612e53565b503d612f9e565b508492612de2565b5050505050600090565b81612fec9296503d8711610d4e57610d408183610f7c565b9338612dd0565b601f8111612fff575050565b6000908180527f290decd9548b62a8d60345a988386fc84ba6bc95484008f6362f93160ef3e563906020601f850160051c83019410613059575b601f0160051c01915b82811061304e57505050565b818155600101613042565b9092508290613039565b601f811161306f575050565b600090609382527f28da5ca8143bfa5e9f642e58e5e87bef0a2eb0c00bcd4efdd01050293f5fac91906020601f850160051c830194106130ca575b601f0160051c01915b8281106130bf57505050565b8181556001016130b3565b90925082906130aa565b601f81116130e0575050565b600090609482527f7047a3cc0a76edcee45792ca71527c753f6167484f14b94c4a3bd2997516725c906020601f850160051c8301941061313b575b601f0160051c01915b82811061313057505050565b818155600101613124565b909250829061311b565b90601f8211613152575050565b6001916000908382527fb10e2d527612073b26eecdfd717e6a320cf44b4afac2b0732d9fcbe2b7fa0cf6906020601f850160051c830194106131af575b601f0160051c01915b8281106131a55750505050565b8181558301613198565b909250829061318f565b90601f81116131c757505050565b600091825260208220906020601f850160051c83019410613203575b601f0160051c01915b8281106131f857505050565b8181556001016131ec565b90925082906131e3565b90815167ffffffffffffffff8111610f46576132338161322e609354611554565b613063565b602080601f831160011461326e5750819293600092613263575b50506000198260011b9260031b1c191617609355565b01519050388061324d565b90601f198316946132a160936000527f28da5ca8143bfa5e9f642e58e5e87bef0a2eb0c00bcd4efdd01050293f5fac9190565b926000905b8782106132de5750508360019596106132c5575b505050811b01609355565b015160001960f88460031b161c191690553880806132ba565b806001859682949686015181550195019301906132a6565b90815167ffffffffffffffff8111610f465761331c81613317609454611554565b6130d4565b602080601f8311600114613357575081929360009261334c575b50506000198260011b9260031b1c191617609455565b015190503880613336565b90601f1983169461338a60946000527f7047a3cc0a76edcee45792ca71527c753f6167484f14b94c4a3bd2997516725c90565b926000905b8782106133c75750508360019596106133ae575b505050811b01609455565b015160001960f88460031b161c191690553880806133a3565b8060018596829496860151815501950193019061338f565b90815167ffffffffffffffff8111610f4657600190613407816134028454611554565b613145565b602080601f8311600114613441575081929394600092613436575b505060001982841b9260031b1c1916179055565b015190503880613422565b90601f1983169561347460016000527fb10e2d527612073b26eecdfd717e6a320cf44b4afac2b0732d9fcbe2b7fa0cf690565b926000905b8882106134af5750508385969710613496575b505050811b019055565b015160001960f88460031b161c1916905538808061348c565b808785968294968601518155019501930190613479565b919091825167ffffffffffffffff8111610f46576134ee816134e88454611554565b846131b9565b602080601f831160011461352957508192939460009261351e575b50506000198260011b9260031b1c1916179055565b015190503880613509565b90601f1983169561353f85600052602060002090565b926000905b8882106135625750508360019596971061349657505050811b019055565b80600185968294968601518155019501930190613544565b81601f8201121561039e5780519161359183611097565b9261359f6040519485610f7c565b808452602092838086019260051b82010192831161039e578301905b8282106135c9575050505090565b815181529083019083016135bb565b9060208282031261039e57815167ffffffffffffffff811161039e576105df920161357a565b60208082019080835283518092528060408094019401926000905b83821061362857505050505090565b9091929394836101606001926136dd89516136528382516cffffffffffffffffffffffffff169052565b8085015163ffffffff16838601528087015163ffffffff168388015260608181015161ffff16908401526080818101516001600160a01b03169084015260a0818101519084015260c08082015162ffffff169084015260e081810151151590840152610100818101511515908401526101208181015115159084015261014090810151151590830152565b0196019493920190613619565b90929c95999b9394979a9196989c6001600160a01b039d8e7f000000000000000000000000000000000000000000000000000000000000000016301461039e578e613740610724608d546001600160a01b031690565b1661039e576137a48e6137886137e29961376c65ffffffffffff966137fe9e6137c69b6137aa9a6152ac565b6001600160a01b03166001600160a01b0319608e541617608e55565b6001600160a01b03166001600160a01b0319608d541617608d55565b16609155565b6001600160a01b03166001600160a01b0319608f541617608f55565b6001600160a01b03166001600160a01b03196090541617609055565b6001600160a01b03166001600160a01b03196095541617609555565b805161396d575b50805161395e575b508381166138d9575b5060009161385491836040519586809581947f8da5e32b000000000000000000000000000000000000000000000000000000008352600483016135fe565b0393165af180156107e0576138b6575b5080519060005b82811061387e575050506106e033615a16565b806138b061388e60019385612584565b516138ab61389b846125ae565b6000526009602052604060002090565b6134c6565b0161386b565b6138d2903d806000833e6138ca8183610f7c565b8101906135d8565b5038613864565b91838116803b1561039e576040517fd84a72c00000000000000000000000000000000000000000000000000000000081526001600160a01b039490941660048501526000908490602490829084905af19182156107e05760009361385493613945575b50915091613816565b8061395261395892610f4b565b8061057b565b3861393c565b613967906132f6565b3861380d565b6139769061320d565b38613805565b908161012091031261039e57613990610fee565b90805182526020810151602083015260408101516040830152606081015160608301526080810151608083015260a081015160a083015260c081015160c08301526139dd60e0820161260e565b60e0830152610100809101519082015290565b818102929181159184041417156125bc57565b90613a19610724608e546001600160a01b031690565b91613a4860055493604094855180926321d1336160e11b82528180610120968795600483019190602083019252565b03915afa9182156107e057613a799260ff9261010092600092613d02575b5050015160f41c1660018091811c161490565b613cd957613a92610724608d546001600160a01b031690565b83517f136e651c000000000000000000000000000000000000000000000000000000008152306004820152602481018390529290602090849060449082905afa9283156107e057600093613cb9575b506001600160a01b039081613b1f610c5d85613b10886001600160a01b0316600052608a602052604060002090565b90600052602052604060002090565b1615613c89575b613b3b610724608d546001600160a01b031690565b85517fbaa7e80e000000000000000000000000000000000000000000000000000000008152600481018590526024810183905292906000908490604490829084905af19283156107e057600093613c6e575b5060005b828110613c1f575050506000613bb2610724608d546001600160a01b031690565b94516364faa15960e01b8152306004820152602481018490526000604482015294859060649082905afa9081156107e0576080613c00926106e096600091613c06575b5001519051906139f0565b916142cd565b613c19913d8091833e6128858183610f7c565b38613bf5565b80613c2c60019286612584565b51613c3781896147ec565b88513381528489169188917f031e1988c95a91ec4d655ff63a8f87a80bc9daf28d95ae10ee08c0022cfb5c8b90602090a401613b91565b613c8291933d8091833e6138ca8183610f7c565b9138613b8d565b6095546001600160a01b03168381841615613cae57613ca9915b866141e5565b613b26565b613ca9915085613ca3565b613cd291935060203d8111611e7657611e688183610f7c565b9138613ae1565b600483517fe96092b8000000000000000000000000000000000000000000000000000000008152fd5b613d219250803d10613d28575b613d198183610f7c565b81019061397c565b3880613a66565b503d613d0f565b613d376159be565b613d4c610724608f546001600160a01b031690565b600554916040918251809163038ab08560e11b825260209283918180613d7b60049a8b83019190602083019252565b03915afa9081156107e05760009161406d575b50613d98816129f9565b600381036140445760925460ff1661401b57613db3816129f9565b60068114908115614007575b50613fdf57608d90613ddb61072483546001600160a01b031690565b9281855180957ff1bea54f0000000000000000000000000000000000000000000000000000000082528180613e22308c83019190916001600160a01b036020820193169052565b03915afa9384156107e057600094613fc0575b50919290600092805192613e47612cef565b5084955b848710613ea1575050505050670de0b6b3a7640000915011613e7b5750506106e0600160ff196092541617609255565b517f6ff44e97000000000000000000000000000000000000000000000000000000008152fd5b9091929394613efb6000613ebf61072485546001600160a01b031690565b613ec98a88612584565b51518b516364faa15960e01b815230818f01908152602081019290925260006040830152938492918391829160600190565b03915afa9081156107e057600091613fa7575b50610100810151613f7f5783815111613f7f57600191613f5e613f7292613f466127f98a613f3c8e8c612584565b51015192516126f6565b90919060001983549160031b92831b921b1916179055565b86613f698a88612584565b510151906125c1565b9601959493929190613e4b565b8989517f52385374000000000000000000000000000000000000000000000000000000008152fd5b613fba913d8091833e6128858183610f7c565b38613f0e565b613fd8919450823d8411610d4e57610d408183610f7c565b9238613e35565b5050517f6fb84075000000000000000000000000000000000000000000000000000000008152fd5b60059150614014816129f9565b1438613dbf565b505050517f38101407000000000000000000000000000000000000000000000000000000008152fd5b505050517f03ce4502000000000000000000000000000000000000000000000000000000008152fd5b6140849150823d84116107d9576107cb8183610f7c565b38613d8e565b9081602091031261039e57516105df816110f9565b356105df816106c1565b6140be610724608f546001600160a01b031690565b6005546040805163038ab08560e11b8152600480820193909352939290916020918290869060249082905afa9485156107e0576000956141c6575b50614103856129f9565b600180950361419f57835193614117612951565b5060005b85811061412b5750505050505050565b6141358183612584565b5161414a61072482516001600160a01b031690565b15614177579061417182866141678b95516001600160a01b031690565b91015190336141e5565b0161411b565b8386517f53d304f4000000000000000000000000000000000000000000000000000000008152fd5b82517ff331f3c1000000000000000000000000000000000000000000000000000000008152fd5b6141de919550823d84116107d9576107cb8183610f7c565b93386140f9565b6001600160a01b039081166000818152608a602090815260408083208784528252822080548686166001600160a01b03198216811790925592969195919491939282169291869184847f3134e8a2e6d97e929a7e54011ea5485d7d196dd5f0ba4d4ef95803e8e3fc257f8b80a4608d5416916064604051809481937f2e4d0ea800000000000000000000000000000000000000000000000000000000835230600484015260248301528860448301525afa9485156107e0576106e096956142ae575b505061435e565b6142c5929550803d10610d4e57610d408183610f7c565b9238806142a7565b906106e092916000828152608c6020526142ea8460408320615b5e565b505060406001600160a01b039182841615614343575b808052608a602052818120858252602052614334838383205416946001600160a01b0316600052608a602052604060002090565b8582526020522054169061435e565b848152608c60205261435786838320615c0d565b5050614300565b9192906001600160a01b03928382169381168481148015614484575b61447c57859181614409575b50505082614395575b50505050565b7f26abcd0483bf852c577c9beff4daa5920a203234050413150a0aa946fb598bfa916143d76143e8926001600160a01b0316600052608b602052604060002090565b856000526020526040600020615b5e565b6040805192835260208301919091523390820152606090a33880808061438f565b614426906001600160a01b0316600052608b602052604060002090565b826000526020527f26abcd0483bf852c577c9beff4daa5920a203234050413150a0aa946fb598bfa61445c856040600020615c0d565b6040805192835260208301919091523390820152606090a3833880614386565b505050505050565b50831561437a565b6001600160a01b03608d5416803b1561039e5760405180927f86bc2be3000000000000000000000000000000000000000000000000000000008252602482016020908160048501528251809152816044850193019160005b82811061451457505050509181600081819503925af180156107e0576145075750565b806139526106e092610f4b565b8351855287955093810193928101926001016144e4565b9190609754156145e5575b602061454461458e92612d5a565b6040517fa9059cbb0000000000000000000000000000000000000000000000000000000081526001600160a01b039095166004860152602485018190529391829081906044820190565b038160006001600160a01b037f0000000000000000000000000000000000000000000000000000000000000000165af180156107e0576145cb5750565b6145e29060203d8111610f0057610ef28183610f7c565b50565b6040517f70a082310000000000000000000000000000000000000000000000000000000081523060048201526020816024817f00000000000000000000000000000000000000000000000000000000000000006001600160a01b03165afa80156107e05761458e926146656145449260209460009161466e575b50609755565b92505050614536565b6146859150853d8111610d4e57610d408183610f7c565b3861465f565b60005260026020526001600160a01b036040600020541680156146ab5790565b60046040517fb49aa3b5000000000000000000000000000000000000000000000000000000008152fd5b6146f58160005260026020526001600160a01b0360406000205416151590565b156146ab5760005260036020526001600160a01b036040600020541690565b929190614721823361476b565b156108695783614735838361473a97614e34565b6151bf565b1561474157565b60046040517f6deaf836000000000000000000000000000000000000000000000000000000008152fd5b6001600160a01b038061477d8461468b565b1692818316928484149485156147b3575b5050831561479d575b50505090565b6147a9919293506146d5565b1614388080614797565b60ff929550906147e29160005260046020526040600020906001600160a01b0316600052602052604060002090565b541692388061478e565b9190916001600160a01b03811690811561496d576148208460005260026020526001600160a01b0360406000205416151590565b614943578360009281845260026020526148538360408620906001600160a01b03166001600160a01b0319825416179055565b837fddf252ad1be2c89b69c2b068fc378daa952ba7f163c4a11628f55a4df523b3ef8180a46148c082614891610724608d546001600160a01b031690565b60405163c44a8e6d60e01b81523060048201526024810197909752600060448801529591829081906064820190565b0381885afa9081156107e0578391614929575b505193803b15614925576040516330b157e560e21b81526004810195909552600060248601526001600160a01b039190911660448501529192918290606490829084905af180156107e0576145075750565b8280fd5b61493d91503d8085833e6128858183610f7c565b386148d3565b60046040517fbad7c30c000000000000000000000000000000000000000000000000000000008152fd5b60046040517f7208af1e000000000000000000000000000000000000000000000000000000008152fd5b906149e492916149b2610724608d546001600160a01b031690565b60405163c44a8e6d60e01b81523060048201526024810193909352600060448401819052948590849081906064820190565b0381845afa9283156107e0578593614a67575b508251813b15614a63576040516330b157e560e21b815260048101919091526001600160a01b0383166024820152600060448201529394908490606490829084905af19283156107e0576106e093614a50575b50614b71565b80613952614a5d92610f4b565b38614a4a565b8580fd5b614a7c9193503d8087833e6128858183610f7c565b91386149f7565b90614ad1939291614a9f610724608d546001600160a01b031690565b60405163c44a8e6d60e01b81523060048201526024810194909452600060448501819052958690859081906064820190565b0381845afa9384156107e0578694614b55575b508351813b15614b51576040516330b157e560e21b815260048101919091526001600160a01b038381166024830152841660448201529495908590606490829084905af19384156107e0576106e094614b3e575b50614bdd565b80613952614b4b92610f4b565b38614b38565b8680fd5b614b6a9194503d8088833e6128858183610f7c565b9238614ae4565b6001600160a01b038091169182156129a1576106e0926080825192015192600091838352608c602052614ba78560408520615c0d565b50508252608a60205260408220838352602052604081818420541692808052608a6020528181208582526020522054169061435e565b916001600160a01b0380931691821561438f576106e0936040608084519401519482841615614c3d575b6000908152608a602052818120858252602052614334838383205416946001600160a01b0316600052608a602052604060002090565b84600052608c602052614c538683600020615c0d565b5050614c07565b614c638161468b565b906001600160a01b0382169182614cc8575b8160006106e094614c858361508b565b8282526002602052604082206001600160a01b031981541690557fddf252ad1be2c89b69c2b068fc378daa952ba7f163c4a11628f55a4df523b3ef8280a4614997565b614cdd610724608d546001600160a01b031690565b60405163c44a8e6d60e01b8152306004820152602481018490526000604482018190529091829060649082905afa9081156107e057614d2a9161014091600091614e1b575b500151151590565b614d97575b8160006106e094614d50610724610c5d856000526008602052604060002090565b15614d5f575b94505050614c75565b614d9284614d77856000526008602052604060002090565b906001600160a01b03166001600160a01b0319825416179055565b614d56565b614dd992614db0610724608e546001600160a01b031690565b9060055460405180936321d1336160e11b82528180610120998a95600483019190602083019252565b03915afa9081156107e0576106e0958593600093614dfd575b505094505050614d2f565b81614e1392903d10613d2857613d198183610f7c565b503880614df2565b614e2e913d8091833e6128858183610f7c565b38614d22565b9190614e3f8261468b565b6001600160a01b03808516949181168590036150615782169384156150375780614eca575b6106e0948491614e738361508b565b826000526002602052614ea0856040600020906001600160a01b03166001600160a01b0319825416179055565b7fddf252ad1be2c89b69c2b068fc378daa952ba7f163c4a11628f55a4df523b3ef600080a4614a83565b614edf610724608d546001600160a01b031690565b60405163c44a8e6d60e01b8152306004820152602481018690526000604482018190529091829060649082905afa9081156107e057614f2b9161014091600091614e1b57500151151590565b614f7c575b6106e0948491614f50610724610c5d856000526008602052604060002090565b15614f5f575b91509450614e64565b614f7784614d77856000526008602052604060002090565b614f56565b614fbc614f94610724608e546001600160a01b031690565b60055460405180926321d1336160e11b82528180610120968795600483019190602083019252565b03915afa9182156107e057614feb9260ff926101009260009261501a575b5050015160f41c1660018091161490565b15614f305760046040517f18cdaf97000000000000000000000000000000000000000000000000000000008152fd5b6150309250803d10613d2857613d198183610f7c565b3880614fda565b60046040517f2c955427000000000000000000000000000000000000000000000000000000008152fd5b60046040517fa195bc53000000000000000000000000000000000000000000000000000000008152fd5b80600052600360205260406000206001600160a01b0319815416905560006001600160a01b036150ba8361468b565b167f8c5be1e5ebec7d5bd14f71427d1e84f3dd0314c0f7b2291e5b200ac8c7c3b9258280a4565b81600052600360205261510e816040600020906001600160a01b03166001600160a01b0319825416179055565b6001600160a01b03806151208461468b565b169116907f8c5be1e5ebec7d5bd14f71427d1e84f3dd0314c0f7b2291e5b200ac8c7c3b925600080a4565b9081602091031261039e57516105df8161038c565b90926105df94936080936001600160a01b038092168452166020830152604082015281606082015201906105a9565b3d156151ba573d906151a08261100f565b916151ae6040519384610f7c565b82523d6000602084013e565b606090565b92909190823b156152a3576152139260209260006001600160a01b036040518097819682957f150b7a02000000000000000000000000000000000000000000000000000000009b8c85523360048601615160565b0393165af160009181615273575b506152655761522e61518f565b805190816152605760046040517f6deaf836000000000000000000000000000000000000000000000000000000008152fd5b602001fd5b6001600160e01b0319161490565b61529591925060203d811161529c575b61528d8183610f7c565b81019061514b565b9038615221565b503d615283565b50505050600190565b91929092805167ffffffffffffffff8111610f46576000916152d7826152d28554611554565b612ff3565b60209081601f8411600114615343575092826153179361531c96936106e09998968492615338575b50506000198260011b9260031b1c19161790556133df565b600555565b6001600160a01b03166001600160a01b03196006541617600655565b0151905038806152ff565b600080529190601f1984167f290decd9548b62a8d60345a988386fc84ba6bc95484008f6362f93160ef3e5639386905b8282106153bd5750509361531c96936106e0999896936001938361531798106153a4575b505050811b0190556133df565b015160001960f88460031b161c19169055388080615397565b80600186978294978701518155019601940190615373565b9160a08383031261039e57823592602091828201359360408301356153f98161038c565b936060840135615408816106c1565b9360808101359067ffffffffffffffff821161039e57019180601f8401121561039e57823561543681611097565b936154446040519586610f7c565b818552838086019260051b82010192831161039e578301905b82821061546b575050505090565b838091615477846110da565b81520191019061545d565b9060915460c0830135036157ff576101e0820160446154a182856128b2565b905011806157d0575b6154b357509050565b6154c06154c891846128b2565b8101906153d5565b9250949250506001600160a01b0380941693841561579e575b815115615774576000808091845197825b89811061554c5750505050505061551c9293506080615514610180840161409f565b9201356158a4565b61552257565b60046040517f6d5e09a4000000000000000000000000000000000000000000000000000000008152fd5b898861556d61556661555e858c612584565b5161ffff1690565b61ffff1690565b8503615691575b906155a2610c5d86613b106155898b9661409f565b6001600160a01b0316600052608a602052604060002090565b88808616918b83159485158096615686575b6155c8575b505050505050506001016154f2565b879a9697916155d78b926126f6565b83109283615660575b50505060001461560a57505050506001916155fa916125c1565b935b905084388088818b8f6155b9565b615631955083615653575b50505061563b575b83613c008761562b8c61409f565b936125c1565b60016000936155fc565b61564e84846156498c61409f565b6141e5565b61561d565b1614159050388881615615565b61ffff92935061567c9161567661555e926125ae565b90612584565b1614888d8b6155e0565b5083831615156155b4565b50509350906156a661556661555e8689612584565b1061574a576156bb61556661555e8588612584565b906156d1610724608d546001600160a01b031690565b6040516364faa15960e01b815230600482015260248101849052600060448201819052909591869060649082905afa9485156107e0578a6155a2610c5d86613b1060806155899b8f97600091615731575b5001519a505050505090615574565b615744913d8091833e6128858183610f7c565b38615722565b60046040517f9fda363d000000000000000000000000000000000000000000000000000000008152fd5b60046040517f3d04bd1f000000000000000000000000000000000000000000000000000000008152fd5b93506157b26095546001600160a01b031690565b808516156157c1575b936154e1565b506157cb8261409f565b6157bb565b5063b18e7c3960e01b6001600160e01b03196157f8610dec6157f285886128b2565b90612914565b16146154aa565b60046040517f79cf85c0000000000000000000000000000000000000000000000000000000008152fd5b919060408382031261039e57825167ffffffffffffffff811161039e57602091612ce991850161357a565b929190606084019084526020906060828601528251809152816080860193019160005b82811061588c57505050506040600091930152565b835161ffff1685529381019392810192600101615877565b9291926158bc610724608d546001600160a01b031690565b9160409081519586947feaa19ab300000000000000000000000000000000000000000000000000000000865260009586918183816158fe888b60048401615854565b03925af180156107e05785978691615996575b50968051955b8681106159275750505050505050565b8061593460019284612584565b5161593f81866147ec565b61ffff61594f61555e8489612584565b88518a81523360208201526001600160a01b0388169391909216917f598baf7bf150ca2f42be9e9f8f55e81d45f5715c3ff22bf46d697fabec7f31d690604090a401615917565b90506159b59197503d8087833e6159ad8183610f7c565b810190615829565b96909638615911565b6001600160a01b036007541633036159d257565b606460405162461bcd60e51b815260206004820152602060248201527f4f776e61626c653a2063616c6c6572206973206e6f7420746865206f776e65726044820152fd5b600754906001600160a01b0380911691826001600160a01b0319821617600755167f8be0079c531659141344cd1fd0a4f28419497f9722a3daafe3b4186f6b6457e0600080a3565b9043811015615b1a57615a7090615e39565b90805491600063ffffffff8092165b848210615ac65750505081615a9657506000919050565b615abb615ac291615aae6001600160e01b03946126f6565b9060005260206000200190565b5460201c90565b1690565b9091938083169080841860011c82018092116125bc57846000528286615af78460206000200163ffffffff90541690565b161115615b085750935b9190615a7f565b949250615b14906125ae565b91615b01565b606460405162461bcd60e51b815260206004820152602060248201527f436865636b706f696e74733a20626c6f636b206e6f7420796574206d696e65646044820152fd5b6001600160e01b03929183615b7283615c35565b169081018091116125bc57615b8643615e39565b91848211615ba357849283615b9c931691615d1f565b9316921690565b608460405162461bcd60e51b815260206004820152602760248201527f53616665436173743a2076616c756520646f65736e27742066697420696e203260448201527f32342062697473000000000000000000000000000000000000000000000000006064820152fd5b6001600160e01b03929183615c2183615c35565b169081039081116125bc57615b8643615e39565b805460009181615c4757505050600090565b6000199282848101116125bc5760209181522001015460201c90565b90815468010000000000000000811015610f46576001810180845581101561257f57600092835260209283902082519284015190931b63ffffffff191663ffffffff9290921691909117910155565b90604051615cbf81610f2a565b602081935463ffffffff81168352811c910152565b15615cdb57565b606460405162461bcd60e51b815260206004820152601b60248201527f436865636b706f696e743a2064656372656173696e67206b65797300000000006044820152fd5b90929192838254801515600014615e0e57926020929184615d5a615d55615d48612b40986126f6565b8560005260206000200190565b615cb2565b93615d69855163ffffffff1690565b615d8063ffffffff91828416928391161115615cd4565b615d9a615d91875163ffffffff1690565b63ffffffff1690565b03615dd85750615dca92615aae615db0926126f6565b9063ffffffff63ffffffff1983549260201b169116179055565b01516001600160e01b031690565b915050615e0991615df6615dea610fc0565b63ffffffff9093168352565b6001600160e01b03881682860152615c63565b615dca565b5050615e3391615e1f615dea610fc0565b6001600160e01b0385166020830152615c63565b60009190565b63ffffffff90818111615e4a571690565b608460405162461bcd60e51b815260206004820152602660248201527f53616665436173743a2076616c756520646f65736e27742066697420696e203360448201527f32206269747300000000000000000000000000000000000000000000000000006064820152fd5b919060001981840981840291828083109203918083039214615f5057670de0b6b3a76400009081831015615f19577faccb18165bd6fe31ae1cf318dc5b51eee0e1ba569b88cd74c1773b91fac1066994950990828211900360ee1b910360121c170290565b60448383604051917f773cc18c00000000000000000000000000000000000000000000000000000000835260048301526024820152fd5b5050670de0b6b3a764000090049150565b909160001983830992808302928380861095039480860395146160125782851015615fd957908291096001821901821680920460028082600302188083028203028083028203028083028203028083028203028083028203028092029003029360018380600003040190848311900302920304170290565b6040517f773cc18c0000000000000000000000000000000000000000000000000000000081526004810186905260248101849052604490fd5b5050906105df925061272456fea26469706673582212203898971455080bbc5e758b4e9c9e8a0c380e40a40e0f5733253f3be5fdf2998164736f6c63430008140033",
    "linkReferences": {}
  },
  "methodIdentifiers": {
    "TOTAL_REDEMPTION_WEIGHT()": "640abacd",
    "amountRedeemed()": "27f6e979",
    "approve(address,uint256)": "095ea7b3",
    "balanceOf(address)": "70a08231",
    "baseURI()": "6c0360eb",
    "codeOrigin()": "1d153ca4",
    "contractURI()": "e8a3d485",
    "defaultAttestationDelegate()": "7f989887",
    "defifaToken()": "3b2b8a78",
    "defifaTokenAllocation()": "74701b6a",
    "defifaTokensClaimableFor(uint256[])": "7eac89cc",
    "didPay((address,uint256,uint256,(address,uint256,uint256,uint256),(address,uint256,uint256,uint256),uint256,address,bool,string,bytes))": "da9ee8b7",
    "didRedeem((address,uint256,uint256,uint256,(address,uint256,uint256,uint256),(address,uint256,uint256,uint256),address,string,bytes))": "2b13c58f",
    "directory()": "c41c2f24",
    "firstOwnerOf(uint256)": "54c6d1f5",
    "fundingCycleStore()": "557e7155",
    "gamePhaseReporter()": "a0b6490c",
    "gamePotReporter()": "7245d80c",
    "getApproved(uint256)": "081812fc",
    "getPastTierAttestationUnitsOf(address,uint256,uint256)": "ea1c1b25",
    "getPastTierTotalAttestationUnitsOf(uint256,uint256)": "d9119f5f",
    "getTierAttestationUnitsOf(address,uint256)": "c3c69a96",
    "getTierDelegateOf(address,uint256)": "9c8c6cd5",
    "getTierTotalAttestationUnitsOf(uint256)": "f7623b81",
    "initialize(uint256,address,string,string,address,string,address,string,(uint104,uint32,uint32,uint16,address,bytes32,uint24,bool,bool,bool,bool)[],uint48,address,address,address,address,string[])": "3900c6f9",
    "isApprovedForAll(address,address)": "e985e9c5",
    "mintReservesFor((uint256,uint256)[])": "2a596e53",
    "mintReservesFor(uint256,uint256)": "aa4fb15b",
    "name()": "06fdde03",
    "owner()": "8da5cb5b",
    "ownerOf(uint256)": "6352211e",
    "payParams((address,address,(address,uint256,uint256,uint256),uint256,uint256,address,uint256,uint256,string,bytes))": "d46cf171",
    "pricingCurrency()": "64640c1e",
    "projectId()": "3fafa127",
    "redeemParams((address,address,uint256,uint256,uint256,uint256,uint256,(address,uint256,uint256,uint256),bool,uint256,string,bytes))": "a51cfd18",
    "redemptionWeightIsSet()": "a8c15f4a",
    "redemptionWeightOf(uint256)": "4f228e11",
    "redemptionWeightOf(uint256[],(address,address,uint256,uint256,uint256,uint256,uint256,(address,uint256,uint256,uint256),bool,uint256,string,bytes))": "7ba62bf9",
    "renounceOwnership()": "715018a6",
    "safeTransferFrom(address,address,uint256)": "42842e0e",
    "safeTransferFrom(address,address,uint256,bytes)": "b88d4fde",
    "setApprovalForAll(address,bool)": "a22cb465",
    "setTierDelegateTo(address,uint256)": "07405b24",
    "setTierDelegatesTo((address,uint256)[])": "c90f5126",
    "setTierRedemptionWeightsTo((uint256,uint256)[])": "fadd72b7",
    "store()": "975057e7",
    "supportsInterface(bytes4)": "01ffc9a7",
    "symbol()": "95d89b41",
    "tierNameOf(uint256)": "1baabc3e",
    "tierRedemptionWeights()": "9df45468",
    "tokenURI(uint256)": "c87b56dd",
    "tokensRedeemedFrom(uint256)": "743682b5",
    "totalRedemptionWeight((address,address,uint256,uint256,uint256,uint256,uint256,(address,uint256,uint256,uint256),bool,uint256,string,bytes))": "9494bf72",
    "transferFrom(address,address,uint256)": "23b872dd",
    "transferOwnership(address)": "f2fde38b"
  },
  "id": 0
}