{
  "abi": [
    {
      "inputs": [],
      "stateMutability": "nonpayable",
      "type": "constructor"
    },
    {
      "inputs": [],
      "name": "DISABLED",
      "type": "error"
    },
    {
      "inputs": [],
      "name": "Empty",
      "type": "error"
    },
    {
      "inputs": [],
      "name": "INCORRECT_TIER_ORDER",
      "type": "error"
    },
    {
      "inputs": [
        {
          "internalType": "uint256",
          "name": "prod1",
          "type": "uint256"
        },
        {
          "internalType": "uint256",
          "name": "denominator",
          "type": "uint256"
        }
      ],
      "name": "PRBMath__MulDivOverflow",
      "type": "error"
    },
    {
      "inputs": [],
      "name": "UNOWNED_PROPOSED_REDEMPTION_VALUE",
      "type": "error"
    },
    {
      "anonymous": false,
      "inputs": [
        {
          "indexed": false,
          "internalType": "uint256",
          "name": "proposalId",
          "type": "uint256"
        }
      ],
      "name": "ProposalCanceled",
      "type": "event"
    },
    {
      "anonymous": false,
      "inputs": [
        {
          "indexed": false,
          "internalType": "uint256",
          "name": "proposalId",
          "type": "uint256"
        },
        {
          "indexed": false,
          "internalType": "address",
          "name": "proposer",
          "type": "address"
        },
        {
          "indexed": false,
          "internalType": "address[]",
          "name": "targets",
          "type": "address[]"
        },
        {
          "indexed": false,
          "internalType": "uint256[]",
          "name": "values",
          "type": "uint256[]"
        },
        {
          "indexed": false,
          "internalType": "string[]",
          "name": "signatures",
          "type": "string[]"
        },
        {
          "indexed": false,
          "internalType": "bytes[]",
          "name": "calldatas",
          "type": "bytes[]"
        },
        {
          "indexed": false,
          "internalType": "uint256",
          "name": "startBlock",
          "type": "uint256"
        },
        {
          "indexed": false,
          "internalType": "uint256",
          "name": "endBlock",
          "type": "uint256"
        },
        {
          "indexed": false,
          "internalType": "string",
          "name": "description",
          "type": "string"
        }
      ],
      "name": "ProposalCreated",
      "type": "event"
    },
    {
      "anonymous": false,
      "inputs": [
        {
          "indexed": false,
          "internalType": "uint256",
          "name": "proposalId",
          "type": "uint256"
        }
      ],
      "name": "ProposalExecuted",
      "type": "event"
    },
    {
      "anonymous": false,
      "inputs": [
        {
          "indexed": true,
          "internalType": "address",
          "name": "voter",
          "type": "address"
        },
        {
          "indexed": false,
          "internalType": "uint256",
          "name": "proposalId",
          "type": "uint256"
        },
        {
          "indexed": false,
          "internalType": "uint8",
          "name": "support",
          "type": "uint8"
        },
        {
          "indexed": false,
          "internalType": "uint256",
          "name": "weight",
          "type": "uint256"
        },
        {
          "indexed": false,
          "internalType": "string",
          "name": "reason",
          "type": "string"
        }
      ],
      "name": "VoteCast",
      "type": "event"
    },
    {
      "anonymous": false,
      "inputs": [
        {
          "indexed": true,
          "internalType": "address",
          "name": "voter",
          "type": "address"
        },
        {
          "indexed": false,
          "internalType": "uint256",
          "name": "proposalId",
          "type": "uint256"
        },
        {
          "indexed": false,
          "internalType": "uint8",
          "name": "support",
          "type": "uint8"
        },
        {
          "indexed": false,
          "internalType": "uint256",
          "name": "weight",
          "type": "uint256"
        },
        {
          "indexed": false,
          "internalType": "string",
          "name": "reason",
          "type": "string"
        },
        {
          "indexed": false,
          "internalType": "bytes",
          "name": "params",
          "type": "bytes"
        }
      ],
      "name": "VoteCastWithParams",
      "type": "event"
    },
    {
      "inputs": [],
      "name": "BALLOT_TYPEHASH",
      "outputs": [
        {
          "internalType": "bytes32",
          "name": "",
          "type": "bytes32"
        }
      ],
      "stateMutability": "view",
      "type": "function"
    },
    {
      "inputs": [],
      "name": "COUNTING_MODE",
      "outputs": [
        {
          "internalType": "string",
          "name": "",
          "type": "string"
        }
      ],
      "stateMutability": "pure",
      "type": "function"
    },
    {
      "inputs": [],
      "name": "EXTENDED_BALLOT_TYPEHASH",
      "outputs": [
        {
          "internalType": "bytes32",
          "name": "",
          "type": "bytes32"
        }
      ],
      "stateMutability": "view",
      "type": "function"
    },
    {
      "inputs": [],
      "name": "MAX_VOTING_POWER_TIER",
      "outputs": [
        {
          "internalType": "uint256",
          "name": "",
          "type": "uint256"
        }
      ],
      "stateMutability": "view",
      "type": "function"
    },
    {
      "inputs": [
        {
          "internalType": "uint256",
          "name": "_scorecardId",
          "type": "uint256"
        }
      ],
      "name": "attestToScorecard",
      "outputs": [],
      "stateMutability": "nonpayable",
      "type": "function"
    },
    {
      "inputs": [
        {
          "internalType": "uint256",
          "name": "_scorecardId",
          "type": "uint256"
        },
        {
          "internalType": "bytes",
          "name": "params",
          "type": "bytes"
        }
      ],
      "name": "attestToScorecardWithReasonAndParams",
      "outputs": [],
      "stateMutability": "nonpayable",
      "type": "function"
    },
    {
      "inputs": [
        {
          "internalType": "uint256",
          "name": "proposalId",
          "type": "uint256"
        },
        {
          "internalType": "uint8",
          "name": "support",
          "type": "uint8"
        }
      ],
      "name": "castVote",
      "outputs": [
        {
          "internalType": "uint256",
          "name": "",
          "type": "uint256"
        }
      ],
      "stateMutability": "nonpayable",
      "type": "function"
    },
    {
      "inputs": [
        {
          "internalType": "uint256",
          "name": "proposalId",
          "type": "uint256"
        },
        {
          "internalType": "uint8",
          "name": "support",
          "type": "uint8"
        },
        {
          "internalType": "uint8",
          "name": "v",
          "type": "uint8"
        },
        {
          "internalType": "bytes32",
          "name": "r",
          "type": "bytes32"
        },
        {
          "internalType": "bytes32",
          "name": "s",
          "type": "bytes32"
        }
      ],
      "name": "castVoteBySig",
      "outputs": [
        {
          "internalType": "uint256",
          "name": "",
          "type": "uint256"
        }
      ],
      "stateMutability": "nonpayable",
      "type": "function"
    },
    {
      "inputs": [
        {
          "internalType": "uint256",
          "name": "proposalId",
          "type": "uint256"
        },
        {
          "internalType": "uint8",
          "name": "support",
          "type": "uint8"
        },
        {
          "internalType": "string",
          "name": "reason",
          "type": "string"
        }
      ],
      "name": "castVoteWithReason",
      "outputs": [
        {
          "internalType": "uint256",
          "name": "",
          "type": "uint256"
        }
      ],
      "stateMutability": "nonpayable",
      "type": "function"
    },
    {
      "inputs": [
        {
          "internalType": "uint256",
          "name": "proposalId",
          "type": "uint256"
        },
        {
          "internalType": "uint8",
          "name": "support",
          "type": "uint8"
        },
        {
          "internalType": "string",
          "name": "reason",
          "type": "string"
        },
        {
          "internalType": "bytes",
          "name": "params",
          "type": "bytes"
        }
      ],
      "name": "castVoteWithReasonAndParams",
      "outputs": [
        {
          "internalType": "uint256",
          "name": "",
          "type": "uint256"
        }
      ],
      "stateMutability": "nonpayable",
      "type": "function"
    },
    {
      "inputs": [
        {
          "internalType": "uint256",
          "name": "proposalId",
          "type": "uint256"
        },
        {
          "internalType": "uint8",
          "name": "support",
          "type": "uint8"
        },
        {
          "internalType": "string",
          "name": "reason",
          "type": "string"
        },
        {
          "internalType": "bytes",
          "name": "params",
          "type": "bytes"
        },
        {
          "internalType": "uint8",
          "name": "v",
          "type": "uint8"
        },
        {
          "internalType": "bytes32",
          "name": "r",
          "type": "bytes32"
        },
        {
          "internalType": "bytes32",
          "name": "s",
          "type": "bytes32"
        }
      ],
      "name": "castVoteWithReasonAndParamsBySig",
      "outputs": [
        {
          "internalType": "uint256",
          "name": "",
          "type": "uint256"
        }
      ],
      "stateMutability": "nonpayable",
      "type": "function"
    },
    {
      "inputs": [],
      "name": "codeOrigin",
      "outputs": [
        {
          "internalType": "address",
          "name": "",
          "type": "address"
        }
      ],
      "stateMutability": "view",
      "type": "function"
    },
    {
      "inputs": [],
      "name": "delegate",
      "outputs": [
        {
          "internalType": "contract IDefifaDelegate",
          "name": "",
          "type": "address"
        }
      ],
      "stateMutability": "view",
      "type": "function"
    },
    {
      "inputs": [
        {
          "internalType": "address[]",
          "name": "targets",
          "type": "address[]"
        },
        {
          "internalType": "uint256[]",
          "name": "values",
          "type": "uint256[]"
        },
        {
          "internalType": "bytes[]",
          "name": "calldatas",
          "type": "bytes[]"
        },
        {
          "internalType": "bytes32",
          "name": "descriptionHash",
          "type": "bytes32"
        }
      ],
      "name": "execute",
      "outputs": [
        {
          "internalType": "uint256",
          "name": "",
          "type": "uint256"
        }
      ],
      "stateMutability": "payable",
      "type": "function"
    },
    {
      "inputs": [
        {
          "internalType": "address",
          "name": "account",
          "type": "address"
        },
        {
          "internalType": "uint256",
          "name": "blockNumber",
          "type": "uint256"
        }
      ],
      "name": "getVotes",
      "outputs": [
        {
          "internalType": "uint256",
          "name": "",
          "type": "uint256"
        }
      ],
      "stateMutability": "view",
      "type": "function"
    },
    {
      "inputs": [
        {
          "internalType": "address",
          "name": "account",
          "type": "address"
        },
        {
          "internalType": "uint256",
          "name": "blockNumber",
          "type": "uint256"
        },
        {
          "internalType": "bytes",
          "name": "params",
          "type": "bytes"
        }
      ],
      "name": "getVotesWithParams",
      "outputs": [
        {
          "internalType": "uint256",
          "name": "",
          "type": "uint256"
        }
      ],
      "stateMutability": "view",
      "type": "function"
    },
    {
      "inputs": [
        {
          "internalType": "uint256",
          "name": "proposalId",
          "type": "uint256"
        },
        {
          "internalType": "address",
          "name": "account",
          "type": "address"
        }
      ],
      "name": "hasVoted",
      "outputs": [
        {
          "internalType": "bool",
          "name": "",
          "type": "bool"
        }
      ],
      "stateMutability": "view",
      "type": "function"
    },
    {
      "inputs": [
        {
          "internalType": "address[]",
          "name": "targets",
          "type": "address[]"
        },
        {
          "internalType": "uint256[]",
          "name": "values",
          "type": "uint256[]"
        },
        {
          "internalType": "bytes[]",
          "name": "calldatas",
          "type": "bytes[]"
        },
        {
          "internalType": "bytes32",
          "name": "descriptionHash",
          "type": "bytes32"
        }
      ],
      "name": "hashProposal",
      "outputs": [
        {
          "internalType": "uint256",
          "name": "",
          "type": "uint256"
        }
      ],
      "stateMutability": "pure",
      "type": "function"
    },
    {
      "inputs": [
        {
          "internalType": "contract IDefifaDelegate",
          "name": "_delegate",
          "type": "address"
        },
        {
          "internalType": "uint256",
          "name": "_votingStartTime",
          "type": "uint256"
        },
        {
          "internalType": "uint256",
          "name": "__votingPeriod",
          "type": "uint256"
        }
      ],
      "name": "initialize",
      "outputs": [],
      "stateMutability": "nonpayable",
      "type": "function"
    },
    {
      "inputs": [],
      "name": "name",
      "outputs": [
        {
          "internalType": "string",
          "name": "",
          "type": "string"
        }
      ],
      "stateMutability": "view",
      "type": "function"
    },
    {
      "inputs": [
        {
          "internalType": "address",
          "name": "",
          "type": "address"
        },
        {
          "internalType": "address",
          "name": "",
          "type": "address"
        },
        {
          "internalType": "uint256[]",
          "name": "",
          "type": "uint256[]"
        },
        {
          "internalType": "uint256[]",
          "name": "",
          "type": "uint256[]"
        },
        {
          "internalType": "bytes",
          "name": "",
          "type": "bytes"
        }
      ],
      "name": "onERC1155BatchReceived",
      "outputs": [
        {
          "internalType": "bytes4",
          "name": "",
          "type": "bytes4"
        }
      ],
      "stateMutability": "nonpayable",
      "type": "function"
    },
    {
      "inputs": [
        {
          "internalType": "address",
          "name": "",
          "type": "address"
        },
        {
          "internalType": "address",
          "name": "",
          "type": "address"
        },
        {
          "internalType": "uint256",
          "name": "",
          "type": "uint256"
        },
        {
          "internalType": "uint256",
          "name": "",
          "type": "uint256"
        },
        {
          "internalType": "bytes",
          "name": "",
          "type": "bytes"
        }
      ],
      "name": "onERC1155Received",
      "outputs": [
        {
          "internalType": "bytes4",
          "name": "",
          "type": "bytes4"
        }
      ],
      "stateMutability": "nonpayable",
      "type": "function"
    },
    {
      "inputs": [
        {
          "internalType": "address",
          "name": "",
          "type": "address"
        },
        {
          "internalType": "address",
          "name": "",
          "type": "address"
        },
        {
          "internalType": "uint256",
          "name": "",
          "type": "uint256"
        },
        {
          "internalType": "bytes",
          "name": "",
          "type": "bytes"
        }
      ],
      "name": "onERC721Received",
      "outputs": [
        {
          "internalType": "bytes4",
          "name": "",
          "type": "bytes4"
        }
      ],
      "stateMutability": "nonpayable",
      "type": "function"
    },
    {
      "inputs": [
        {
          "internalType": "uint256",
          "name": "proposalId",
          "type": "uint256"
        }
      ],
      "name": "proposalDeadline",
      "outputs": [
        {
          "internalType": "uint256",
          "name": "",
          "type": "uint256"
        }
      ],
      "stateMutability": "view",
      "type": "function"
    },
    {
      "inputs": [
        {
          "internalType": "uint256",
          "name": "proposalId",
          "type": "uint256"
        }
      ],
      "name": "proposalSnapshot",
      "outputs": [
        {
          "internalType": "uint256",
          "name": "",
          "type": "uint256"
        }
      ],
      "stateMutability": "view",
      "type": "function"
    },
    {
      "inputs": [],
      "name": "proposalThreshold",
      "outputs": [
        {
          "internalType": "uint256",
          "name": "",
          "type": "uint256"
        }
      ],
      "stateMutability": "pure",
      "type": "function"
    },
    {
      "inputs": [
        {
          "internalType": "uint256",
          "name": "proposalId",
          "type": "uint256"
        }
      ],
      "name": "proposalVotes",
      "outputs": [
        {
          "internalType": "uint256",
          "name": "againstVotes",
          "type": "uint256"
        },
        {
          "internalType": "uint256",
          "name": "forVotes",
          "type": "uint256"
        },
        {
          "internalType": "uint256",
          "name": "abstainVotes",
          "type": "uint256"
        }
      ],
      "stateMutability": "view",
      "type": "function"
    },
    {
      "inputs": [
        {
          "internalType": "address[]",
          "name": "targets",
          "type": "address[]"
        },
        {
          "internalType": "uint256[]",
          "name": "values",
          "type": "uint256[]"
        },
        {
          "internalType": "bytes[]",
          "name": "calldatas",
          "type": "bytes[]"
        },
        {
          "internalType": "string",
          "name": "description",
          "type": "string"
        }
      ],
      "name": "propose",
      "outputs": [
        {
          "internalType": "uint256",
          "name": "",
          "type": "uint256"
        }
      ],
      "stateMutability": "nonpayable",
      "type": "function"
    },
    {
      "inputs": [
        {
          "internalType": "uint256",
          "name": "",
          "type": "uint256"
        }
      ],
      "name": "quorum",
      "outputs": [
        {
          "internalType": "uint256",
          "name": "",
          "type": "uint256"
        }
      ],
      "stateMutability": "view",
      "type": "function"
    },
    {
      "inputs": [
        {
          "components": [
            {
              "internalType": "uint256",
              "name": "id",
              "type": "uint256"
            },
            {
              "internalType": "uint256",
              "name": "redemptionWeight",
              "type": "uint256"
            }
          ],
          "internalType": "struct DefifaTierRedemptionWeight[]",
          "name": "_tierWeights",
          "type": "tuple[]"
        }
      ],
      "name": "ratifyScorecard",
      "outputs": [
        {
          "internalType": "uint256",
          "name": "",
          "type": "uint256"
        }
      ],
      "stateMutability": "nonpayable",
      "type": "function"
    },
    {
      "inputs": [
        {
          "internalType": "address",
          "name": "target",
          "type": "address"
        },
        {
          "internalType": "uint256",
          "name": "value",
          "type": "uint256"
        },
        {
          "internalType": "bytes",
          "name": "data",
          "type": "bytes"
        }
      ],
      "name": "relay",
      "outputs": [],
      "stateMutability": "payable",
      "type": "function"
    },
    {
      "inputs": [
        {
          "internalType": "uint256",
          "name": "proposalId",
          "type": "uint256"
        }
      ],
      "name": "state",
      "outputs": [
        {
          "internalType": "enum IGovernor.ProposalState",
          "name": "",
          "type": "uint8"
        }
      ],
      "stateMutability": "view",
      "type": "function"
    },
    {
      "inputs": [
        {
          "components": [
            {
              "internalType": "uint256",
              "name": "id",
              "type": "uint256"
            },
            {
              "internalType": "uint256",
              "name": "redemptionWeight",
              "type": "uint256"
            }
          ],
          "internalType": "struct DefifaTierRedemptionWeight[]",
          "name": "_tierWeights",
          "type": "tuple[]"
        }
      ],
      "name": "submitScorecard",
      "outputs": [
        {
          "internalType": "uint256",
          "name": "",
          "type": "uint256"
        }
      ],
      "stateMutability": "nonpayable",
      "type": "function"
    },
    {
      "inputs": [
        {
          "internalType": "bytes4",
          "name": "interfaceId",
          "type": "bytes4"
        }
      ],
      "name": "supportsInterface",
      "outputs": [
        {
          "internalType": "bool",
          "name": "",
          "type": "bool"
        }
      ],
      "stateMutability": "view",
      "type": "function"
    },
    {
      "inputs": [],
      "name": "version",
      "outputs": [
        {
          "internalType": "string",
          "name": "",
          "type": "string"
        }
      ],
      "stateMutability": "view",
      "type": "function"
    },
    {
      "inputs": [],
      "name": "votingDelay",
      "outputs": [
        {
          "internalType": "uint256",
          "name": "",
          "type": "uint256"
        }
      ],
      "stateMutability": "view",
      "type": "function"
    },
    {
      "inputs": [],
      "name": "votingPeriod",
      "outputs": [
        {
          "internalType": "uint256",
          "name": "",
          "type": "uint256"
        }
      ],
      "stateMutability": "view",
      "type": "function"
    },
    {
      "inputs": [],
      "name": "votingStartTime",
      "outputs": [
        {
          "internalType": "uint256",
          "name": "",
          "type": "uint256"
        }
      ],
      "stateMutability": "view",
      "type": "function"
    },
    {
      "stateMutability": "payable",
      "type": "receive"
    }
  ],
  "bytecode": {
    "object": "0x61016060409080825234620002855762000019816200028a565b600e8152602091828201916d2232b334b330a3b7bb32b93737b960911b835283825162000046816200028a565b60019181838093520194603160f81b86528351902094208460e052610100958187524660a052845191818301907f8b73c3c69bb8fe3d512ecc4cf759cc79239f7b179b0ffacaa9a75d522b39400f978883528785015260608401524660808401523060a084015260a0835260c083019260018060401b0393818110858211176200026f5787525190206080523060c05261012095865283519182116200026f5760009384548481811c9116801562000264575b838210146200025057601f811162000205575b5081601f84116001146200019d5750928293918392869462000191575b50501b916000199060031b1c19161790555b6101409030825251916130b99384620002a7853960805184612e51015260a05184612f06015260c05184612e22015260e05184612ea001525183612ec601525182612e7d015251818181610e6301526116430152f35b01519250388062000129565b919083601f1981168780528488209488905b88838310620001ea5750505010620001d0575b505050811b0190556200013b565b015160001960f88460031b161c19169055388080620001c2565b858701518855909601959485019487935090810190620001af565b858052828620601f850160051c81019184861062000245575b601f0160051c019085905b828110620002395750506200010c565b87815501859062000229565b90915081906200021e565b634e487b7160e01b86526022600452602486fd5b90607f1690620000f9565b634e487b7160e01b600052604160045260246000fd5b600080fd5b604081019081106001600160401b038211176200026f5760405256fe6080604081815260049081361015610022575b505050361561002057600080fd5b005b60009260e08435811c91826301ffc9a7146119345750816302a251a314611915578163034201811461180c57816306fdde03146116f6578163150b7a021461168657816319f82536146116675781631d153ca4146116235781632019a608146116045781632656227d146114625781632d63f693146114305781632fe3e261146113f55781633932abb1146113d85781633bccf4fd1461131f5781633e4f49e6146112da57816343859632146112915781634b501fbd14611272578163544ffc9c1461123457816354fd4d50146111d7578163567813881461119f5781635f398a141461112a57816364d87a6114610ed55781637a1ac61e14610e345781637b3c71d314610dd35781637c8bd0ed14610d875781637d5e81e2146109ee5781639a802a6d146109aa578163b58131b01461098f578163bc197c81146108ee578163c01f9e37146108b1578163c28bc2fa146107a0578163c59057e414610781578163c89e436114610759578163d8844e2f1461043757508063dd4e2ba5146103d6578063deaaa7cc1461039b578063eb9019d414610362578063f23a6e61146102f35763f8ce560a0361001257346102ef57602092836003193601126102ec576001600160a01b03806006541683519063975057e760e01b825286828781845afa9182156102e2579087929185926102b0575b506024908651948593849263f1bea54f60e01b84528a840152165afa9081156102a6578291610275575b5060011c92633b9aca009384810294818604149015171561026257505051908152f35b906011602492634e487b7160e01b835252fd5b90508481813d831161029f575b61028c8183611b1a565b8101031261029b57513861023f565b5080fd5b503d610282565b83513d84823e3d90fd5b60249192506102d490843d86116102db575b6102cc8183611b1a565b810190611e2f565b9190610215565b503d6102c2565b85513d86823e3d90fd5b80fd5b8280fd5b5082346102ec5760a06003193601126102ec5761030e611bee565b50610317611c04565b506084359067ffffffffffffffff82116102ec575060209261033b91369101611b90565b50517ff23a6e61000000000000000000000000000000000000000000000000000000008152f35b83823461029b578060031936011261029b57602090610394610382611bee565b61038a6120ad565b90602435906125aa565b9051908152f35b83823461029b578160031936011261029b57602090517f150214d74d59b7d1e90c73fc22ef3d991dd0a76b046543d4d80ab92d2a50328f8152f35b83823461029b578160031936011261029b578051610433916103f782611afe565b602082527f737570706f72743d627261766f2671756f72756d3d666f722c6162737461696e602083015251918291602083526020830190611bae565b0390f35b84929150346102ef5761044936611de2565b9184906001600160a01b038060065416925b85811061054357608088888b6104b5836104d86104c861047b8e8e611f83565b929188969196519a8b987f7d5e81e2000000000000000000000000000000000000000000000000000000008a528901526084880190611e95565b6003199586888303016024890152611ed2565b9084868303016044870152611f06565b838103928301606485015252602094858092018186305af1928315610538578093610506575b505051908152f35b909192508382813d8311610531575b61051f8183611b1a565b810103126102ec5750519083806104fe565b503d610515565b8251903d90823e3d90fd5b865163975057e760e01b815260209081818c81895afa90811561074f578a91610732575b5083610574848a8a611e4e565b35918a51907f7473c9a20000000000000000000000000000000000000000000000000000000082528d309083015260249384830152816044816101c0958694165afa928315610728578c93610625575b5050506060608082015191015114908161060e575b506105e65760010161045b565b8887517fd1f78be3000000000000000000000000000000000000000000000000000000008152fd5b905061061b828888611e4e565b013515158a6105d9565b909180935082813d8311610721575b61063e8183611b1a565b8101031261071d578a519283019083821067ffffffffffffffff83111761070c57508a52805182528281015183830152898101518a830152606080820151908301526080808201519083015260a0808201519083015260c080820151908301526106a9868201611e74565b8683015261010080820151908301526101206106c6818301611e74565b90830152610140808201519083015261016080820151908301526101806106ee818301611e88565b908301526107006101a0809201611e88565b908201528b80806105c4565b8c60418f634e487b7160e01b835252fd5b8b80fd5b503d610634565b8b513d8e823e3d90fd5b6107499150823d84116102db576102cc8183611b1a565b8b610567565b89513d8c823e3d90fd5b84833461029b578160031936011261029b576020906001600160a01b03600654169051908152f35b84833461029b5760209061039461079736611d7f565b92919091612230565b828585606060031936011261029b576107b7611bee565b9060443567ffffffffffffffff81116108ad576107d79036908301611a4a565b9130330361086a5750836108669383829388958651928392833781018481520391602435905af161080661257a565b907f206d65737361676500000000000000000000000000000000000000000000000083519361083485611ac6565b602885527f476f7665726e6f723a2072656c617920726576657274656420776974686f75746020860152840152612bc7565b5080f35b606490602087519162461bcd60e51b8352820152601860248201527f476f7665726e6f723a206f6e6c79476f7665726e616e636500000000000000006044820152fd5b8380fd5b505090346102ef5760206003193601126102ef576108e560018360209567ffffffffffffffff9435815282875220016124b6565b51169051908152f35b505082346102ec5760a06003193601126102ec5761090a611bee565b50610913611c04565b5067ffffffffffffffff9060443582811161029b576109359036908601611ca0565b5060643582811161029b5761094d9036908601611ca0565b506084359182116102ec575060209261096891369101611b90565b50517fbc197c81000000000000000000000000000000000000000000000000000000008152f35b84833461029b578160031936011261029b5751908152602090f35b505090346102ef5760606003193601126102ef576109c6611bee565b926044359067ffffffffffffffff82116102ec57509261038a61039492602095369101611b90565b8385843461029b57608060031936011261029b5767ffffffffffffffff83358181116108ad57610a219036908601611c32565b602435828111610d8357610a389036908701611ca0565b94604435838111610d7f57610a509036908301611cfe565b96606435848111610d7b5736602382011215610d7b57610a799036906024818601359101611b59565b92303303610d53576000194301438111610d4057610aa090610a996120ad565b90336125aa565b50835198610ab660209a8b870120828b85612230565b97610ac483518b51146124de565b610ad183518351146124de565b825115610cfe5788815260018b528781209487610aed876124b6565b5116610c965750610b16610b0043612f2c565b610b10610b0b61220c565b612f2c565b9061254f565b87610b2b610b25600554612f2c565b8361254f565b91169760017fffffffffffffffffffffffffffffffffffffffffffffffff0000000000000000978a898254161781550191168096825416179055610b908b845194610b7586611c1a565b95610b828c519788611b1a565b808752601f19938491611c1a565b01845b818110610c875750508b9c610bc3610bd1928d9e9d80519e8f908152338782015261012080928201520190611e95565b8c810360608e015290611ed2565b8a810360808c01528551928382528282019183808660051b830101980195935b858510610c5b575050505050505092869592610c3b83610c5296897f7d84a6263ae0d98d3329bd7b46bb4e8d6f98cd35a7adb45c274c8b7fd5ebd5e09b99960360a08a0152611f06565b9360c0870152850152838203610100850152611bae565b0390a151908152f35b80610c768a85856001969798999a9b9d030188528b51611bae565b99019401940192949391908f610bf1565b60608882018501528301610b93565b6084908c8a519162461bcd60e51b8352820152602160248201527f476f7665726e6f723a2070726f706f73616c20616c726561647920657869737460448201527f73000000000000000000000000000000000000000000000000000000000000006064820152fd5b6064858c8a519162461bcd60e51b8352820152601860248201527f476f7665726e6f723a20656d7074792070726f706f73616c00000000000000006044820152fd5b602488601186634e487b7160e01b835252fd5b8286517facb78998000000000000000000000000000000000000000000000000000000008152fd5b8680fd5b8580fd5b8480fd5b5050346102ef57806003193601126102ef576024359167ffffffffffffffff83116108ad57610dbc6108669336908301611b90565b915190610dc882611aaa565b8482523390356127ed565b505082346102ec5760606003193601126102ec57610def611a35565b906044359067ffffffffffffffff82116102ec57509261039491610e22610e1b60209636908501611a4a565b3691611b59565b90610e2b6120ad565b92339035612a20565b5050503461029b57606060031936011261029b57356001600160a01b03908181168091036102ef5760443591807f00000000000000000000000000000000000000000000000000000000000000001630146108ad576006549081166108ad577fffffffffffffffffffffffff0000000000000000000000000000000000000000161760065560243560075580610ed057506201881d5b60055580f35b610eca565b5050346102ef57610eee610ee836611de2565b90611f83565b9190948351956020968781019060808252610f6b610f0f60a0830187611e95565b82610f39610f29601f199384848203018d85015288611ed2565b838382030160608401528a611f06565b7fc5d2460186f7233c927e7db2dcc703c0e500b653ca82273b7bfad8045d85a470608083015203908101835282611b1a565b51902095610f7887612294565b60088110156111175781811490811561110c575b50156110a457508582526001938488526002868420018560ff198254161790557f712ae1383f79ac853f8d882153778e0260ef8f03b504e2866e0593e04d2b291f888751898152a1855193610fe085611ac6565b602785527f476f7665726e6f723a2063616c6c20726576657274656420776974686f757420898601527f6d65737361676500000000000000000000000000000000000000000000000000878601528884875b61103f575b508751898152f35b825181101561109f57611091878780611097956001600160a01b03611064878a611f6f565b5116611070878c611f6f565b5161107b888c611f6f565b5180519301915af161108b61257a565b90612bc7565b5061256b565b899087611032565b611037565b6084908887519162461bcd60e51b8352820152602160248201527f476f7665726e6f723a2070726f706f73616c206e6f742073756363657373667560448201527f6c000000000000000000000000000000000000000000000000000000000000006064820152fd5b600591501438610f8c565b602484602184634e487b7160e01b835252fd5b505090346102ef5760806003193601126102ef57611146611a35565b67ffffffffffffffff9360443585811161029b576111679036908501611a4a565b9590916064359182116102ec575091611196610394949261118e6020989536908601611b90565b943691611b59565b91339035612a20565b505090346102ef57816003193601126102ef57610394906020936111c1611a35565b8451916111cd83611aaa565b8252610e2b6120ad565b84833461029b578160031936011261029b578051610433916111f882611afe565b600182527f3100000000000000000000000000000000000000000000000000000000000000602083015251918291602083526020830190611bae565b505090346102ef5760206003193601126102ef5760609281839235825260205220805491600260018301549201549181519384526020840152820152f35b84833461029b578160031936011261029b5760209051633b9aca008152f35b505090346102ef57816003193601126102ef578160209360ff926112b3611c04565b908035835286526001600160a01b0360038484200191168252855220541690519015158152f35b8385843461029b57602060031936011261029b576112f88335612294565b905191600882101561130c57602083838152f35b80602185634e487b7160e01b6024945252fd5b505090346102ef5760a06003193601126102ef573561133c611a35565b60443560ff81168103610d83579361039492916113bc6113b46020978751898101917f150214d74d59b7d1e90c73fc22ef3d991dd0a76b046543d4d80ab92d2a50328f8352878a83015260ff861660608301526060825261139c82611ae2565b6113af6084359360643593519020612dcc565b612d3d565b919091612c0b565b8551926113c884611aaa565b83526113d26120ad565b93612a20565b84833461029b578160031936011261029b5760209061039461220c565b84833461029b578160031936011261029b57602090517fb3b3f3b703cd84ce352197dcff232b1b5d3cfb2025ce47cf04742d0651f1af888152f35b505090346102ef5760206003193601126102ef576108e58260209467ffffffffffffffff9335815260018652206124b6565b505061147d61147036611d7f565b8183859994969399612230565b9461148786612294565b60088110156115f1578181149081156115e6575b501561157d57508481526001926020968488526002868420018560ff198254161790557f712ae1383f79ac853f8d882153778e0260ef8f03b504e2866e0593e04d2b291f888751898152a18551936114f285611ac6565b602785527f476f7665726e6f723a2063616c6c20726576657274656420776974686f757420898601527f6d65737361676500000000000000000000000000000000000000000000000000878601528884875b61155057508751898152f35b825181101561109f57611091878780611575956001600160a01b03611064878a611f6f565b899087611544565b608490602086519162461bcd60e51b8352820152602160248201527f476f7665726e6f723a2070726f706f73616c206e6f742073756363657373667560448201527f6c000000000000000000000000000000000000000000000000000000000000006064820152fd5b60059150143861149b565b602483602184634e487b7160e01b835252fd5b84833461029b578160031936011261029b576020906007549051908152f35b84833461029b578160031936011261029b57602090516001600160a01b037f0000000000000000000000000000000000000000000000000000000000000000168152f35b5050346102ef5760206003193601126102ef5761086691610dbc6120ad565b505082346102ec5760806003193601126102ec576116a2611bee565b506116ab611c04565b506064359067ffffffffffffffff82116102ec57506020926116cf91369101611b90565b50517f150b7a02000000000000000000000000000000000000000000000000000000008152f35b505082346102ec57806003193601126102ec5781519181825492600184811c91818616958615611802575b60209687851081146117ef578899509688969785829a5291826000146117c857505060011461176d575b505050610433929161175e910385611b1a565b51928284938452830190611bae565b91908693508280527f290decd9548b62a8d60345a988386fc84ba6bc95484008f6362f93160ef3e5635b8284106117b0575050508201018161175e61043361174b565b8054848a018601528895508794909301928101611797565b60ff19168782015293151560051b8601909301935084925061175e9150610433905061174b565b60248360228c634e487b7160e01b835252fd5b92607f1692611721565b84939150346108ad576003193601126102ef5780359061182a611a35565b9067ffffffffffffffff604435818111610d7b5761184b9036908401611a4a565b9190926064359182116119115761186491369101611b90565b956084359060ff821682036102ec575061190b6103949593602098959361190389610e1b95611894368587611b59565b8d8151910120908a518e8c01208351928f8c908501957fb3b3f3b703cd84ce352197dcff232b1b5d3cfb2025ce47cf04742d0651f1af88875285015260ff8b166060850152608084015260a083015260a082526118f082611a78565b6113af60c4359360a43593519020612dcc565b949094612c0b565b92612a20565b8780fd5b84833461029b578160031936011261029b576020906005549051908152f35b859085346102ef5760206003193601126102ef57357fffffffff0000000000000000000000000000000000000000000000000000000081168091036102ef57602092507fbf26d897000000000000000000000000000000000000000000000000000000008114908115611a0b575b81156119e1575b81156119b7575b5015158152f35b7f01ffc9a700000000000000000000000000000000000000000000000000000000915014836119b0565b7f4e2312e000000000000000000000000000000000000000000000000000000000811491506119a9565b7f79dd796f00000000000000000000000000000000000000000000000000000000811491506119a2565b6024359060ff82168203611a4557565b600080fd5b9181601f84011215611a455782359167ffffffffffffffff8311611a455760208381860195010111611a4557565b60c0810190811067ffffffffffffffff821117611a9457604052565b634e487b7160e01b600052604160045260246000fd5b6020810190811067ffffffffffffffff821117611a9457604052565b6060810190811067ffffffffffffffff821117611a9457604052565b6080810190811067ffffffffffffffff821117611a9457604052565b6040810190811067ffffffffffffffff821117611a9457604052565b90601f601f19910116810190811067ffffffffffffffff821117611a9457604052565b67ffffffffffffffff8111611a9457601f01601f191660200190565b929192611b6582611b3d565b91611b736040519384611b1a565b829481845281830111611a45578281602093846000960137010152565b9080601f83011215611a4557816020611bab93359101611b59565b90565b919082519283825260005b848110611bda575050601f19601f8460006020809697860101520116010190565b602081830181015184830182015201611bb9565b600435906001600160a01b0382168203611a4557565b602435906001600160a01b0382168203611a4557565b67ffffffffffffffff8111611a945760051b60200190565b81601f82011215611a4557803591611c4983611c1a565b92611c576040519485611b1a565b808452602092838086019260051b820101928311611a45578301905b828210611c81575050505090565b81356001600160a01b0381168103611a45578152908301908301611c73565b81601f82011215611a4557803591611cb783611c1a565b92611cc56040519485611b1a565b808452602092838086019260051b820101928311611a45578301905b828210611cef575050505090565b81358152908301908301611ce1565b9080601f83011215611a4557813590611d1682611c1a565b92611d246040519485611b1a565b828452602092838086019160051b83010192808411611a4557848301915b848310611d525750505050505090565b823567ffffffffffffffff8111611a45578691611d7484848094890101611b90565b815201920191611d42565b6080600319820112611a455767ffffffffffffffff91600435838111611a455782611dac91600401611c32565b92602435818111611a455783611dc491600401611ca0565b92604435918211611a4557611ddb91600401611cfe565b9060643590565b906020600319830112611a455760043567ffffffffffffffff92838211611a455780602383011215611a45578160040135938411611a455760248460061b83010111611a45576024019190565b90816020910312611a4557516001600160a01b0381168103611a455790565b9190811015611e5e5760061b0190565b634e487b7160e01b600052603260045260246000fd5b51906001600160a01b0382168203611a4557565b51908115158203611a4557565b90815180825260208080930193019160005b828110611eb5575050505090565b83516001600160a01b031685529381019392810192600101611ea7565b90815180825260208080930193019160005b828110611ef2575050505090565b835185529381019392810192600101611ee4565b908082519081815260208091019281808460051b8301019501936000915b848310611f345750505050505090565b9091929394958480611f5283601f1986600196030187528a51611bae565b9801930193019194939290611f24565b805115611e5e5760200190565b8051821015611e5e5760209160051b010190565b9091604091825190611f9482611afe565b6001938483526020908136818601376001600160a01b0360065416611fb885611f62565b52805196611fc588611afe565b8688528236818a0137815180947f2f441500000000000000000000000000000000000000000000000000000000008583015282604483018660248501525260648201909260005b8a8683831061206d575050505061202c925003601f198101855284611b1a565b519461203786611afe565b855260005b81811061205e57505061204e84611f62565b5261205883611f62565b50929190565b6060868201830152810161203c565b86358552888701358986015295860195899550909301920161200c565b9190820180921161209757565b634e487b7160e01b600052601160045260246000fd5b6001600160a01b03806006541690604091825163975057e760e01b815260209160049083838381845afa928315612201579084916000946121e2575b50865193849163f1bea54f60e01b835284830152816024978892165afa9182156121d7576000926121a8575b5061211f82611c1a565b9161212c86519384611b1a565b808352601f19948561213d83611c1a565b01368686013760005b82811061217757505050509061216b611bab9392855195838794850152830190611ed2565b03908101835282611b1a565b60018101908181116121945761218e829187611f6f565b52612146565b82601186634e487b7160e01b600052526000fd5b90918382813d83116121d0575b6121bf8183611b1a565b810103126102ec5750519038612115565b503d6121b5565b85513d6000823e3d90fd5b6121fa919450823d84116102db576102cc8183611b1a565b92386120e9565b86513d6000823e3d90fd5b60075460004282111561222b575042810390811161209757600c900490565b905090565b929061227c9261228e9260405194859261226c612259602086019960808b5260a0870190611e95565b601f199687878303016040880152611ed2565b9085858303016060860152611f06565b90608083015203908101835282611b1a565b51902090565b60009080825260016020928184526040906002828220015460ff81166124ab5760081c60ff166124a15767ffffffffffffffff806122d38484206124b6565b5116801561245e574311156124555784825283865243906122f785858520016124b6565b5116101561244d578381526004948581528282208482526123198484206124b6565b506001600160a01b03806006541685519163975057e760e01b835284838b81855afa928315612443578592918b91889561241f575b50906024918951958694859363f1bea54f60e01b8552840152165afa9081156102e25784916123f2575b50851c90633b9aca00918281029281840414901517156123df57906123a8826002888b969501549101549061208a565b101595866123c7575b5050505050506000146123c15790565b50600390565b835252209081015490541090503880808481806123b1565b60248460118a634e487b7160e01b835252fd5b90508281813d8311612418575b6124098183611b1a565b810103126108ad575138612378565b503d6123ff565b60249291955061243b90853d87116102db576102cc8183611b1a565b94909161234e565b87513d88823e3d90fd5b505091505090565b50935050505090565b60648785519062461bcd60e51b82526004820152601d60248201527f476f7665726e6f723a20756e6b6e6f776e2070726f706f73616c2069640000006044820152fd5b5050505050600290565b505050505050600790565b906040516020810167ffffffffffffffff9082811082821117611a9457604052819354169052565b156124e557565b608460405162461bcd60e51b815260206004820152602160248201527f476f7665726e6f723a20696e76616c69642070726f706f73616c206c656e677460448201527f68000000000000000000000000000000000000000000000000000000000000006064820152fd5b91909167ffffffffffffffff8080941691160191821161209757565b60001981146120975760010190565b3d156125a5573d9061258b82611b3d565b916125996040519384611b1a565b82523d6000602084013e565b606090565b9092916000938151820191602081818501940312611a455760208101519067ffffffffffffffff8211611a4557019180603f84011215611a455760208301516125f281611c1a565b936126006040519586611b1a565b8185526040602086019260051b820101928311611a4557939493604001905b8282106127dd575050508251916000906000946001600160a01b0360065416955b8581106126505750505050505050565b61265a8183611f6f565b51938411156127b35783604051907fd40e7146000000000000000000000000000000000000000000000000000000008252886004916001600160a01b0387168385015260208460648160249585878301528d60448301525afa9384156127735760009461277f575b50836126db575b505050506126d69061256b565b612640565b6040517fd31cc52c000000000000000000000000000000000000000000000000000000008152928301528101879052919990916020816044818c5afa9081156127735760009161273f575b50612734906126d693612fab565b0198903880806126c9565b90506020813d60201161276b575b8161275a60209383611b1a565b81010312611a4557516126d6612726565b3d915061274d565b6040513d6000823e3d90fd5b9093506020813d6020116127ab575b8161279b60209383611b1a565b81010312611a45575192386126c2565b3d915061278e565b60046040517f0bdbcd96000000000000000000000000000000000000000000000000000000008152fd5b815181526020918201910161261f565b9291909160009380855260019160209280845260409182882061280f85612294565b6008811015612a0c5783036129a3578167ffffffffffffffff61283461283c936124b6565b5116896125aa565b9784815260048652838120906001600160a01b036003830199169889825280885260ff868320541661293a579185828695948c8e999895528a52208260ff198254161790550161288d85825461208a565b905580516128e2575091816128dc937fb8e138887d0aa13bab447e82de9d5c1777041ecd21ca36ba824ff1e6c07ddda49793519687968752860152840152608060608401526080830190611bae565b0390a290565b91956128dc938761292c937fe2babfbac5889a709b63bb7f598b324e08bc5a4fb9ec647fb3cbc9ec07eb87129951988998895288015286015260a0606086015260a0850190611bae565b908382036080850152611bae565b60848887519062461bcd60e51b82526004820152602760248201527f476f7665726e6f72566f74696e6753696d706c653a20766f746520616c72656160448201527f64792063617374000000000000000000000000000000000000000000000000006064820152fd5b60848685519062461bcd60e51b82526004820152602360248201527f476f7665726e6f723a20766f7465206e6f742063757272656e746c792061637460448201527f69766500000000000000000000000000000000000000000000000000000000006064820152fd5b60248a634e487b7160e01b81526021600452fd5b939092919360009181835260209260018452604091828220612a4185612294565b6008811015612bb3576001036129a3578167ffffffffffffffff612834612a67936124b6565b9784835260048652838320926001600160a01b036003850199169889825280885260ff868320541661293a578982528752849020805460ff1916600117905588939260ff909116919082612b0d5761288d85825461208a565b80516128e2575091816128dc937fb8e138887d0aa13bab447e82de9d5c1777041ecd21ca36ba824ff1e6c07ddda49793519687968752860152840152608060608401526080830190611bae565b60018303612b2a57600101612b2385825461208a565b9055612ac0565b929350909160028303612b4a579060028994939201612b2385825461208a565b60848685519062461bcd60e51b82526004820152603560248201527f476f7665726e6f72566f74696e6753696d706c653a20696e76616c696420766160448201527f6c756520666f7220656e756d20566f74655479706500000000000000000000006064820152fd5b602484634e487b7160e01b81526021600452fd5b90919015612bd3575090565b815115612be35750805190602001fd5b612c079060405191829162461bcd60e51b8352602060048401526024830190611bae565b0390fd5b6005811015612d275780612c1c5750565b60018103612c6857606460405162461bcd60e51b815260206004820152601860248201527f45434453413a20696e76616c6964207369676e617475726500000000000000006044820152fd5b60028103612cb457606460405162461bcd60e51b815260206004820152601f60248201527f45434453413a20696e76616c6964207369676e6174757265206c656e677468006044820152fd5b600314612cbd57565b608460405162461bcd60e51b815260206004820152602260248201527f45434453413a20696e76616c6964207369676e6174757265202773272076616c60448201527f75650000000000000000000000000000000000000000000000000000000000006064820152fd5b634e487b7160e01b600052602160045260246000fd5b9291907f7fffffffffffffffffffffffffffffff5d576e7357a4501ddfe92f46681b20a08311612dc05791608094939160ff602094604051948552168484015260408301526060820152600093849182805260015afa15612db35781516001600160a01b03811615612dad579190565b50600190565b50604051903d90823e3d90fd5b50505050600090600390565b612dd4612e18565b906040519060208201927f19010000000000000000000000000000000000000000000000000000000000008452602283015260428201526042815261228e81611ae2565b6001600160a01b037f000000000000000000000000000000000000000000000000000000000000000016301480612f03575b15612e73577f000000000000000000000000000000000000000000000000000000000000000090565b60405160208101907f000000000000000000000000000000000000000000000000000000000000000082527f000000000000000000000000000000000000000000000000000000000000000060408201527f000000000000000000000000000000000000000000000000000000000000000060608201524660808201523060a082015260a0815261228e81611a78565b507f00000000000000000000000000000000000000000000000000000000000000004614612e4a565b67ffffffffffffffff90818111612f41571690565b608460405162461bcd60e51b815260206004820152602660248201527f53616665436173743a2076616c756520646f65736e27742066697420696e203660448201527f34206269747300000000000000000000000000000000000000000000000000006064820152fd5b90633b9aca0090600019838309928083029283808610950394808603951461305f578285101561302857908291096001821901821680920460028082600302188083028203028083028203028083028203028083028203028083028203028092029003029360018380600003040190848311900302920304170290565b60448584604051917f773cc18c00000000000000000000000000000000000000000000000000000000835260048301526024820152fd5b50508092501561306d570490565b634e487b7160e01b600052601260045260246000fdfea264697066735822122012ba341b5011e808146e484dbee00e665a1e96714d05a72779870eab5144205e64736f6c63430008110033",
    "linkReferences": {}
  },
  "methodIdentifiers": {
    "BALLOT_TYPEHASH()": "deaaa7cc",
    "COUNTING_MODE()": "dd4e2ba5",
    "EXTENDED_BALLOT_TYPEHASH()": "2fe3e261",
    "MAX_VOTING_POWER_TIER()": "4b501fbd",
    "attestToScorecard(uint256)": "19f82536",
    "attestToScorecardWithReasonAndParams(uint256,bytes)": "7c8bd0ed",
    "castVote(uint256,uint8)": "56781388",
    "castVoteBySig(uint256,uint8,uint8,bytes32,bytes32)": "3bccf4fd",
    "castVoteWithReason(uint256,uint8,string)": "7b3c71d3",
    "castVoteWithReasonAndParams(uint256,uint8,string,bytes)": "5f398a14",
    "castVoteWithReasonAndParamsBySig(uint256,uint8,string,bytes,uint8,bytes32,bytes32)": "03420181",
    "codeOrigin()": "1d153ca4",
    "delegate()": "c89e4361",
    "execute(address[],uint256[],bytes[],bytes32)": "2656227d",
    "getVotes(address,uint256)": "eb9019d4",
    "getVotesWithParams(address,uint256,bytes)": "9a802a6d",
    "hasVoted(uint256,address)": "43859632",
    "hashProposal(address[],uint256[],bytes[],bytes32)": "c59057e4",
    "initialize(address,uint256,uint256)": "7a1ac61e",
    "name()": "06fdde03",
    "onERC1155BatchReceived(address,address,uint256[],uint256[],bytes)": "bc197c81",
    "onERC1155Received(address,address,uint256,uint256,bytes)": "f23a6e61",
    "onERC721Received(address,address,uint256,bytes)": "150b7a02",
    "proposalDeadline(uint256)": "c01f9e37",
    "proposalSnapshot(uint256)": "2d63f693",
    "proposalThreshold()": "b58131b0",
    "proposalVotes(uint256)": "544ffc9c",
    "propose(address[],uint256[],bytes[],string)": "7d5e81e2",
    "quorum(uint256)": "f8ce560a",
    "ratifyScorecard((uint256,uint256)[])": "64d87a61",
    "relay(address,uint256,bytes)": "c28bc2fa",
    "state(uint256)": "3e4f49e6",
    "submitScorecard((uint256,uint256)[])": "d8844e2f",
    "supportsInterface(bytes4)": "01ffc9a7",
    "version()": "54fd4d50",
    "votingDelay()": "3932abb1",
    "votingPeriod()": "02a251a3",
    "votingStartTime()": "2019a608"
  },
  "id": 2
}