{
  "abi": [
    {
      "inputs": [
        {
          "internalType": "contract IJBController3_1",
          "name": "_controller",
          "type": "address"
        },
        {
          "internalType": "uint256",
          "name": "__blockTime",
          "type": "uint256"
        }
      ],
      "stateMutability": "nonpayable",
      "type": "constructor"
    },
    {
      "inputs": [],
      "name": "ALREADY_ATTESTED",
      "type": "error"
    },
    {
      "inputs": [],
      "name": "ALREADY_RATIFIED",
      "type": "error"
    },
    {
      "inputs": [],
      "name": "DUPLICATE_SCORECARD",
      "type": "error"
    },
    {
      "inputs": [],
      "name": "GAME_NOT_FOUND",
      "type": "error"
    },
    {
      "inputs": [],
      "name": "INCORRECT_TIER_ORDER",
      "type": "error"
    },
    {
      "inputs": [],
      "name": "NOT_ALLOWED",
      "type": "error"
    },
    {
      "inputs": [
        {
          "internalType": "uint256",
          "name": "prod1",
          "type": "uint256"
        },
        {
          "internalType": "uint256",
          "name": "denominator",
          "type": "uint256"
        }
      ],
      "name": "PRBMath__MulDivOverflow",
      "type": "error"
    },
    {
      "inputs": [],
      "name": "UNKNOWN_PROPOSAL",
      "type": "error"
    },
    {
      "inputs": [],
      "name": "UNOWNED_PROPOSED_REDEMPTION_VALUE",
      "type": "error"
    },
    {
      "anonymous": false,
      "inputs": [
        {
          "indexed": true,
          "internalType": "address",
          "name": "previousOwner",
          "type": "address"
        },
        {
          "indexed": true,
          "internalType": "address",
          "name": "newOwner",
          "type": "address"
        }
      ],
      "name": "OwnershipTransferred",
      "type": "event"
    },
    {
      "anonymous": false,
      "inputs": [
        {
          "indexed": true,
          "internalType": "uint256",
          "name": "gameId",
          "type": "uint256"
        },
        {
          "indexed": true,
          "internalType": "uint256",
          "name": "scorecardId",
          "type": "uint256"
        },
        {
          "indexed": false,
          "internalType": "uint256",
          "name": "weight",
          "type": "uint256"
        },
        {
          "indexed": false,
          "internalType": "address",
          "name": "caller",
          "type": "address"
        }
      ],
      "name": "ScorecardAttested",
      "type": "event"
    },
    {
      "anonymous": false,
      "inputs": [
        {
          "indexed": true,
          "internalType": "uint256",
          "name": "gameId",
          "type": "uint256"
        },
        {
          "indexed": true,
          "internalType": "uint256",
          "name": "scorecardId",
          "type": "uint256"
        },
        {
          "indexed": false,
          "internalType": "address",
          "name": "caller",
          "type": "address"
        }
      ],
      "name": "ScorecardRatified",
      "type": "event"
    },
    {
      "anonymous": false,
      "inputs": [
        {
          "indexed": true,
          "internalType": "uint256",
          "name": "gameId",
          "type": "uint256"
        },
        {
          "indexed": true,
          "internalType": "uint256",
          "name": "scorecardId",
          "type": "uint256"
        },
        {
          "components": [
            {
              "internalType": "uint256",
              "name": "id",
              "type": "uint256"
            },
            {
              "internalType": "uint256",
              "name": "redemptionWeight",
              "type": "uint256"
            }
          ],
          "indexed": false,
          "internalType": "struct DefifaTierRedemptionWeight[]",
          "name": "tierWeights",
          "type": "tuple[]"
        },
        {
          "indexed": false,
          "internalType": "bool",
          "name": "isDefaultAttestationDelegate",
          "type": "bool"
        },
        {
          "indexed": false,
          "internalType": "address",
          "name": "caller",
          "type": "address"
        }
      ],
      "name": "ScorecardSubmitted",
      "type": "event"
    },
    {
      "inputs": [],
      "name": "MAX_VOTING_POWER_TIER",
      "outputs": [
        {
          "internalType": "uint256",
          "name": "",
          "type": "uint256"
        }
      ],
      "stateMutability": "view",
      "type": "function"
    },
    {
      "inputs": [
        {
          "internalType": "uint256",
          "name": "_gameId",
          "type": "uint256"
        },
        {
          "internalType": "uint256",
          "name": "_scorecardId",
          "type": "uint256"
        }
      ],
      "name": "attestToScorecardFrom",
      "outputs": [
        {
          "internalType": "uint256",
          "name": "weight",
          "type": "uint256"
        }
      ],
      "stateMutability": "nonpayable",
      "type": "function"
    },
    {
      "inputs": [
        {
          "internalType": "uint256",
          "name": "_gameId",
          "type": "uint256"
        }
      ],
      "name": "attestationGracePeriodOf",
      "outputs": [
        {
          "internalType": "uint256",
          "name": "",
          "type": "uint256"
        }
      ],
      "stateMutability": "view",
      "type": "function"
    },
    {
      "inputs": [
        {
          "internalType": "uint256",
          "name": "_gameId",
          "type": "uint256"
        }
      ],
      "name": "attestationStartTimeOf",
      "outputs": [
        {
          "internalType": "uint256",
          "name": "",
          "type": "uint256"
        }
      ],
      "stateMutability": "view",
      "type": "function"
    },
    {
      "inputs": [],
      "name": "controller",
      "outputs": [
        {
          "internalType": "contract IJBController3_1",
          "name": "",
          "type": "address"
        }
      ],
      "stateMutability": "view",
      "type": "function"
    },
    {
      "inputs": [
        {
          "internalType": "uint256",
          "name": "",
          "type": "uint256"
        }
      ],
      "name": "defaultAttestationDelegateProposalOf",
      "outputs": [
        {
          "internalType": "uint256",
          "name": "",
          "type": "uint256"
        }
      ],
      "stateMutability": "view",
      "type": "function"
    },
    {
      "inputs": [
        {
          "internalType": "uint256",
          "name": "_gameId",
          "type": "uint256"
        },
        {
          "internalType": "address",
          "name": "_account",
          "type": "address"
        },
        {
          "internalType": "uint256",
          "name": "_blockNumber",
          "type": "uint256"
        }
      ],
      "name": "getAttestationWeight",
      "outputs": [
        {
          "internalType": "uint256",
          "name": "votingPower",
          "type": "uint256"
        }
      ],
      "stateMutability": "view",
      "type": "function"
    },
    {
      "inputs": [
        {
          "internalType": "address",
          "name": "_gameDelegate",
          "type": "address"
        },
        {
          "internalType": "bytes",
          "name": "_calldata",
          "type": "bytes"
        }
      ],
      "name": "hashScorecardOf",
      "outputs": [
        {
          "internalType": "uint256",
          "name": "",
          "type": "uint256"
        }
      ],
      "stateMutability": "pure",
      "type": "function"
    },
    {
      "inputs": [
        {
          "internalType": "uint256",
          "name": "_gameId",
          "type": "uint256"
        },
        {
          "internalType": "uint256",
          "name": "_attestationStartTime",
          "type": "uint256"
        },
        {
          "internalType": "uint256",
          "name": "_attestationGracePeriod",
          "type": "uint256"
        }
      ],
      "name": "initializeGame",
      "outputs": [],
      "stateMutability": "nonpayable",
      "type": "function"
    },
    {
      "inputs": [],
      "name": "owner",
      "outputs": [
        {
          "internalType": "address",
          "name": "",
          "type": "address"
        }
      ],
      "stateMutability": "view",
      "type": "function"
    },
    {
      "inputs": [
        {
          "internalType": "uint256",
          "name": "_gameId",
          "type": "uint256"
        }
      ],
      "name": "quorum",
      "outputs": [
        {
          "internalType": "uint256",
          "name": "",
          "type": "uint256"
        }
      ],
      "stateMutability": "view",
      "type": "function"
    },
    {
      "inputs": [
        {
          "internalType": "uint256",
          "name": "",
          "type": "uint256"
        }
      ],
      "name": "ratifiedScorecardIdOf",
      "outputs": [
        {
          "internalType": "uint256",
          "name": "",
          "type": "uint256"
        }
      ],
      "stateMutability": "view",
      "type": "function"
    },
    {
      "inputs": [
        {
          "internalType": "uint256",
          "name": "_gameId",
          "type": "uint256"
        },
        {
          "components": [
            {
              "internalType": "uint256",
              "name": "id",
              "type": "uint256"
            },
            {
              "internalType": "uint256",
              "name": "redemptionWeight",
              "type": "uint256"
            }
          ],
          "internalType": "struct DefifaTierRedemptionWeight[]",
          "name": "_tierWeights",
          "type": "tuple[]"
        }
      ],
      "name": "ratifyScorecardFrom",
      "outputs": [
        {
          "internalType": "uint256",
          "name": "scorecardId",
          "type": "uint256"
        }
      ],
      "stateMutability": "nonpayable",
      "type": "function"
    },
    {
      "inputs": [],
      "name": "renounceOwnership",
      "outputs": [],
      "stateMutability": "nonpayable",
      "type": "function"
    },
    {
      "inputs": [
        {
          "internalType": "uint256",
          "name": "_gameId",
          "type": "uint256"
        },
        {
          "internalType": "uint256",
          "name": "_scorecardId",
          "type": "uint256"
        }
      ],
      "name": "stateOf",
      "outputs": [
        {
          "internalType": "enum DefifaScorecardState",
          "name": "",
          "type": "uint8"
        }
      ],
      "stateMutability": "view",
      "type": "function"
    },
    {
      "inputs": [
        {
          "internalType": "uint256",
          "name": "_gameId",
          "type": "uint256"
        },
        {
          "components": [
            {
              "internalType": "uint256",
              "name": "id",
              "type": "uint256"
            },
            {
              "internalType": "uint256",
              "name": "redemptionWeight",
              "type": "uint256"
            }
          ],
          "internalType": "struct DefifaTierRedemptionWeight[]",
          "name": "_tierWeights",
          "type": "tuple[]"
        }
      ],
      "name": "submitScorecardFor",
      "outputs": [
        {
          "internalType": "uint256",
          "name": "scorecardId",
          "type": "uint256"
        }
      ],
      "stateMutability": "nonpayable",
      "type": "function"
    },
    {
      "inputs": [
        {
          "internalType": "address",
          "name": "newOwner",
          "type": "address"
        }
      ],
      "name": "transferOwnership",
      "outputs": [],
      "stateMutability": "nonpayable",
      "type": "function"
    }
  ],
  "bytecode": {
    "object": "0x60c0346100d457601f611b8538819003918201601f19168301916001600160401b038311848410176100d95780849260409485528339810103126100d45780516001600160a01b039182821682036100d45760200151906000543360018060a01b0319821617600055604051933391167f8be0079c531659141344cd1fd0a4f28419497f9722a3daafe3b4186f6b6457e0600080a360a052608052611a9590816100f082396080518161069d015260a0518181816101910152818161031e015281816105b0015281816113f401526115970152f35b600080fd5b634e487b7160e01b600052604160045260246000fdfe608080604052600436101561001357600080fd5b60003560e01c908163222e143b14610e9a575080632511642914610d575780633d0908b414610d215780634b501fbd14610d02578063715018a614610c915780638da5cb5b14610c6a57806391fb2e9814610c35578063a42e6c7d14610bb8578063b7e8f6da14610553578063c543882f1461050c578063ce1e82d5146102d1578063f0a92a1e146102a5578063f2fde38b146101b5578063f77c479114610171578063f80c73a114610145578063f8ce560a1461011f5763f94633fb146100da57600080fd5b3461011a576100f16100eb36610eca565b9061100f565b6040516005821015610104576020918152f35b634e487b7160e01b600052602160045260246000fd5b600080fd5b3461011a57602060031936011261011a57602061013d6004356113cc565b604051908152f35b3461011a57602060031936011261011a5760043560005260046020526020604060002054604051908152f35b3461011a57600060031936011261011a5760206040516001600160a01b037f0000000000000000000000000000000000000000000000000000000000000000168152f35b3461011a57602060031936011261011a576101ce610ee0565b6101d6611902565b6001600160a01b0380911690811561023b57600054827fffffffffffffffffffffffff0000000000000000000000000000000000000000821617600055167f8be0079c531659141344cd1fd0a4f28419497f9722a3daafe3b4186f6b6457e0600080a3005b608460405162461bcd60e51b815260206004820152602660248201527f4f776e61626c653a206e6577206f776e657220697320746865207a65726f206160448201527f64647265737300000000000000000000000000000000000000000000000000006064820152fd5b3461011a57602060031936011261011a5760043560005260056020526020604060002054604051908152f35b3461011a576102df36610f35565b9180600052602092600584526040600020546104e25760405190638776c49960e01b82528260048301526103a0936001600160a01b03928581602481877f0000000000000000000000000000000000000000000000000000000000000000165afa9586156104d657600096610499575b50506102009161035e916118ba565b930161036d8483835116610fcd565b93610378858561100f565b60058110156101045760030361046f576000928392858452600588528660408520555116828783519301915af1903d15610468573d6103b681610f19565b906103c46040519283610ef6565b81523d60008683013e5b604051604081019181831067ffffffffffffffff84111761045257859461042093604052600d83527f4241445f53434f524543415244000000000000000000000000000000000000008884015261195a565b507f47c473fdeacbc61881306133d8e38075619b3cfed85b1a2c9552ddd3a788dc2f84604051338152a3604051908152f35b634e487b7160e01b600052604160045260246000fd5b60606103ce565b60046040517f95c31a56000000000000000000000000000000000000000000000000000000008152fd5b61035e9296506102009391816104c392903d106104cf575b6104bb8183610ef6565b81019061113b565b9050959181935061034f565b503d6104b1565b6040513d6000823e3d90fd5b60046040517fe63e1225000000000000000000000000000000000000000000000000000000008152fd5b3461011a57606060031936011261011a57602435610528611902565b801561054c575b600435600052600360205260443560301b17604060002055600080f35b504261052f565b3461011a5761056136610f35565b90918060005260056020526040600020546104e25780600052600360205260406000205415610b8e57604051638776c49960e01b81528160048201526103a09081816024816001600160a01b037f0000000000000000000000000000000000000000000000000000000000000000165afa9182156104d657600092610b6f575b505060005b8381106108ce575061020001916106116001600160a01b0384511661060b83876118ba565b90610fcd565b9282600052600160205260406000208460005260205260406000209081549165ffffffffffff8084166108a45785908160005260036020528060406000205416804211600014610846575091600494602094926bffffffffffffffffffffffff196bffffffffffff0000000000006107136106c36001600160a01b039861070e6000915b6106c96106c37f000000000000000000000000000000000000000000000000000000000000000080956113ac565b43611555565b1696877fffffffffffffffffffffffffffffffffffffffffffffffffffff0000000000008a16178a55600052600360205265ffffffffffff60406000205460301c1690565b6113ac565b60301b169216171790555116604051928380927f174e3e050000000000000000000000000000000000000000000000000000000082525afa9081156104d6576000916107d5575b506020948493926001600160a01b037fa8529171c1868e465ad2895d671a738ffb5f0764bd6dffd13339152af5c5f3a093163314806107c1575b6107ab60405193849360608552606085019161187b565b90888301523360408301520390a3604051908152f35b846000526004885285604060002055610794565b90506020929192813d60201161083e575b816107f360209383610ef6565b8101031261011a5760209484936001600160a01b036108327fa8529171c1868e465ad2895d671a738ffb5f0764bd6dffd13339152af5c5f3a094611127565b9350509293509461075a565b3d91506107e6565b9391509142840393841161088e57600494876bffffffffffffffffffffffff196bffffffffffff0000000000006107136106c36001600160a01b039861070e60209b91610695565b634e487b7160e01b600052601160045260246000fd5b60046040517f440a4570000000000000000000000000000000000000000000000000000000008152fd5b600460206001600160a01b03610200850151166040519283809263975057e760e01b82525afa9081156104d657600091610b40575b5060006001600160a01b0361020085015116606461092285898b611855565b35916001600160a01b0360405195869485937f64faa15900000000000000000000000000000000000000000000000000000000855260048501526024840152856044840152165afa9081156104d6576000916109d8575b506040606082015191015114806109c1575b610997576001016105e6565b60046040517fd1f78be3000000000000000000000000000000000000000000000000000000008152fd5b5060206109cf828688611855565b0135151561098b565b90503d806000833e6109ea8183610ef6565b602082828101031261011a5781519167ffffffffffffffff831161011a576101809283818301848401031261011a5760405193848181011067ffffffffffffffff8287011117610452578401604090815282820180518652602080820151908701528082015191860191909152606080820151908601526080808201519086015260a0808201519086015260c090610a83908201611127565b9085015281810160e08181015190860152610100808201519086015261012090610aae90820161111a565b90850152610140610ac2818385010161111a565b9085015261016081830101519167ffffffffffffffff831161011a57838101601f848484010101121561011a5782828201015191610aff83610f19565b94610b0d6040519687610ef6565b8386528201602084868486010101011161011a57610b349360209182870193010101610f85565b61016082015286610979565b610b62915060203d602011610b68575b610b5a8183610ef6565b81019061138d565b86610903565b503d610b50565b610b859250803d106104cf576104bb8183610ef6565b905084806105e1565b60046040517ffd176724000000000000000000000000000000000000000000000000000000008152fd5b3461011a57604060031936011261011a57610bd1610ee0565b60243567ffffffffffffffff811161011a573660238201121561011a57806004013591610bfd83610f19565b90610c0b6040519283610ef6565b838252366024858501011161011a5760006020858196602461013d97018387013784010152610fcd565b3461011a57602060031936011261011a57602061013d600435600052600360205265ffffffffffff60406000205460301c1690565b3461011a57600060031936011261011a5760206001600160a01b0360005416604051908152f35b3461011a57600060031936011261011a57610caa611902565b60006001600160a01b0381547fffffffffffffffffffffffff000000000000000000000000000000000000000081168355167f8be0079c531659141344cd1fd0a4f28419497f9722a3daafe3b4186f6b6457e08280a3005b3461011a57600060031936011261011a576020604051633b9aca008152f35b3461011a57606060031936011261011a576024356001600160a01b038116810361011a5761013d60209160443590600435611562565b3461011a57610d6536610eca565b9080600052602091600183526040600020816000528352604060002091610d8c828261100f565b60058110156101045760018114159081610e8e575b5061046f578060005260028452604060002082600052845260406000209260018401903360005281865260ff60406000205416610e645765ffffffffffff610dec9154163384611562565b93610df8858254611555565b9055336000528452604060002060017fffffffffffffffffffffffffffffffffffffffffffffffffffffffffffffff008254161790557fc49d39a4ac0db2fda0e72ce3ff9d5ee27f409cecd8fa183fd8bf36a05f9c788d604080518581523387820152a3604051908152f35b60046040517f944e4a31000000000000000000000000000000000000000000000000000000008152fd5b60039150141585610da1565b3461011a57602060031936011261011a576020906004356000526003825265ffffffffffff604060002054168152f35b600319604091011261011a576004359060243590565b600435906001600160a01b038216820361011a57565b90601f601f19910116810190811067ffffffffffffffff82111761045257604052565b67ffffffffffffffff811161045257601f01601f191660200190565b604060031982011261011a576004359160243567ffffffffffffffff9283821161011a578060238301121561011a57816004013593841161011a5760248460061b8301011161011a576024019190565b60005b838110610f985750506000910152565b8181015183820152602001610f88565b90601f19601f602093610fc681518092818752878088019101610f85565b0116010190565b90611009610ffb916040519283916001600160a01b0360208401961686526040808401526060830190610fa8565b03601f198101835282610ef6565b51902090565b600091818352602090600582526040918285205480611101575060018152828520828652815282852083519084820182811067ffffffffffffffff8211176110ed578552549065ffffffffffff90818316808252828583019460301c168452156110c4575181164311156110bb574391511610156110b157611090846113cc565b938552600281528285209185525290912054106110ac57600390565b600190565b5050505050600190565b50505050505090565b600486517feb24c39f000000000000000000000000000000000000000000000000000000008152fd5b602488634e487b7160e01b81526041600452fd5b935050929050501460001461111557600490565b600290565b5190811515820361011a57565b51906001600160a01b038216820361011a57565b80929103916103a0831261011a57610120831261011a576040805167ffffffffffffffff92919061012081018481118282101761045257825282518152602083015160208201528183015182820152606083015160608201526080830151608082015260a083015160a082015260c083015160c082015260e0830151906001600160a01b038216820361011a577ffffffffffffffffffffffffffffffffffffffffffffffffffffffffffffffee09160e08201526101008401516101008201529501610280811261011a578151936102409283860192868410838511176104525760601361011a576102a09186830190811184821017610452578152611244610120860161111a565b835261014061125486820161111a565b9361026094858901526101609081880161126d9061111a565b6102808a01528852610180918288015160208a01526101a09384890151908a01526101c0948589015160608b01526101e096878a016112ab9061111a565b60808c0152610200986112bf8b8b0161111a565b60a08d01526112d16102208c0161111a565b60c08d01528a016112e19061111a565b60e08c015289016112f19061111a565b6101008b01526113046102808a0161111a565b6101208b015288016113159061111a565b908901526113266102c0880161111a565b908801526113376102e0870161111a565b90870152611348610300860161111a565b90860152611359610320850161111a565b9085015261136a610340840161111a565b9084015261137b6103608301611127565b90830152610380015161022082015290565b9081602091031261011a57516001600160a01b038116810361011a5790565b81156113b6570490565b634e487b7160e01b600052601260045260246000fd5b6040805191638776c49960e01b835260048301526103a06001600160a01b03928181602481877f0000000000000000000000000000000000000000000000000000000000000000165afa91821561154a5790610200929160009261152b575b50500182815116908251809263975057e760e01b825281600460209586935afa908115611520579085849392600092611500575b50602491925116855196879384927ff1bea54f0000000000000000000000000000000000000000000000000000000084526004840152165afa9182156114f657506000916114c7575b50905060011c633b9aca009081810291818304149015171561088e5790565b82813d83116114ef575b6114db8183610ef6565b810103126114ec57505180386114a8565b80fd5b503d6114d1565b513d6000823e3d90fd5b6024925061151a90853d8711610b6857610b5a8183610ef6565b9161145f565b84513d6000823e3d90fd5b6115419250803d106104cf576104bb8183610ef6565b9050388061142b565b83513d6000823e3d90fd5b9190820180921161088e57565b92916000936000906040805194638776c49960e01b8652600492838701526103a0946024956001600160a01b0397818189818c7f0000000000000000000000000000000000000000000000000000000000000000165afa91821561184b57906102009291889261182c575b50500187815116918451809363975057e760e01b8252818860209687935afa9081156118225793809392918b9796958a91611805575b508a888551168851998a9384927ff1bea54f0000000000000000000000000000000000000000000000000000000084528d840152165afa9586156117fb5788966117c8575b50875b86811061165f575050505050505050505050565b60018101908181116117b6578b8451168751907f3fc751160000000000000000000000000000000000000000000000000000000082528d88168b830152838d830152868260648160449489868301525afa91821561177d578c92611787575b50816116de575b50501961164b57898960118a634e487b7160e01b835252fd5b90919e9186848f938f948c8f918a908c5116915197889586947fed94d1280000000000000000000000000000000000000000000000000000000086528501528301525afa91821561177d578c92611748575b50600019929161173f9161199e565b019d90386116c5565b9091508681813d8311611776575b6117608183610ef6565b8101031261177257519061173f611730565b8b80fd5b503d611756565b89513d8e823e3d90fd5b9091508681813d83116117af575b61179f8183610ef6565b81010312611772575190386116be565b503d611795565b8a8a60118b634e487b7160e01b835252fd5b9095508281813d83116117f4575b6117e08183610ef6565b810103126117f057519438611648565b8780fd5b503d6117d6565b85513d8a823e3d90fd5b61181c9150823d8411610b6857610b5a8183610ef6565b38611603565b86513d8a823e3d90fd5b6118429250803d106104cf576104bb8183610ef6565b905038806115cd565b85513d89823e3d90fd5b91908110156118655760061b0190565b634e487b7160e01b600052603260045260246000fd5b9190808252602080920192916000905b828210611899575050505090565b8335855283810135858201526040948501949093019260019091019061188b565b906118ff90610ffb6040519384927ffadd72b700000000000000000000000000000000000000000000000000000000602085015260206024850152604484019161187b565b90565b6001600160a01b0360005416330361191657565b606460405162461bcd60e51b815260206004820152602060248201527f4f776e61626c653a2063616c6c6572206973206e6f7420746865206f776e65726044820152fd5b90919015611966575090565b8151156119765750805190602001fd5b61199a9060405191829162461bcd60e51b8352602060048401526024830190610fa8565b0390fd5b90633b9aca00906000198383099280830292838086109503948086039514611a525782851015611a1b57908291096001821901821680920460028082600302188083028203028083028203028083028203028083028203028083028203028092029003029360018380600003040190848311900302920304170290565b60448584604051917f773cc18c00000000000000000000000000000000000000000000000000000000835260048301526024820152fd5b5050906118ff92506113ac56fea264697066735822122076c29a2927b48ed43c5546927eb36495c020f080428f1263f39f39c529155ed964736f6c63430008140033",
    "linkReferences": {}
  },
  "methodIdentifiers": {
    "MAX_VOTING_POWER_TIER()": "4b501fbd",
    "attestToScorecardFrom(uint256,uint256)": "25116429",
    "attestationGracePeriodOf(uint256)": "91fb2e98",
    "attestationStartTimeOf(uint256)": "222e143b",
    "controller()": "f77c4791",
    "defaultAttestationDelegateProposalOf(uint256)": "f80c73a1",
    "getAttestationWeight(uint256,address,uint256)": "3d0908b4",
    "hashScorecardOf(address,bytes)": "a42e6c7d",
    "initializeGame(uint256,uint256,uint256)": "c543882f",
    "owner()": "8da5cb5b",
    "quorum(uint256)": "f8ce560a",
    "ratifiedScorecardIdOf(uint256)": "f0a92a1e",
    "ratifyScorecardFrom(uint256,(uint256,uint256)[])": "ce1e82d5",
    "renounceOwnership()": "715018a6",
    "stateOf(uint256,uint256)": "f94633fb",
    "submitScorecardFor(uint256,(uint256,uint256)[])": "b7e8f6da",
    "transferOwnership(address)": "f2fde38b"
  },
  "id": 2
}