{
  "abi": [
    {
      "inputs": [
        {
          "internalType": "contract IJBController3_1",
          "name": "_controller",
          "type": "address"
        },
        {
          "internalType": "uint256",
          "name": "__blockTime",
          "type": "uint256"
        }
      ],
      "stateMutability": "nonpayable",
      "type": "constructor"
    },
    {
      "inputs": [],
      "name": "ALREADY_ATTESTED",
      "type": "error"
    },
    {
      "inputs": [],
      "name": "ALREADY_RATIFIED",
      "type": "error"
    },
    {
      "inputs": [],
      "name": "DUPLICATE_SCORECARD",
      "type": "error"
    },
    {
      "inputs": [],
      "name": "GAME_NOT_FOUND",
      "type": "error"
    },
    {
      "inputs": [],
      "name": "INCORRECT_TIER_ORDER",
      "type": "error"
    },
    {
      "inputs": [],
      "name": "NOT_ALLOWED",
      "type": "error"
    },
    {
      "inputs": [
        {
          "internalType": "uint256",
          "name": "prod1",
          "type": "uint256"
        },
        {
          "internalType": "uint256",
          "name": "denominator",
          "type": "uint256"
        }
      ],
      "name": "PRBMath__MulDivOverflow",
      "type": "error"
    },
    {
      "inputs": [],
      "name": "UNKNOWN_PROPOSAL",
      "type": "error"
    },
    {
      "inputs": [],
      "name": "UNOWNED_PROPOSED_REDEMPTION_VALUE",
      "type": "error"
    },
    {
      "anonymous": false,
      "inputs": [
        {
          "indexed": true,
          "internalType": "address",
          "name": "previousOwner",
          "type": "address"
        },
        {
          "indexed": true,
          "internalType": "address",
          "name": "newOwner",
          "type": "address"
        }
      ],
      "name": "OwnershipTransferred",
      "type": "event"
    },
    {
      "anonymous": false,
      "inputs": [
        {
          "indexed": true,
          "internalType": "uint256",
          "name": "gameId",
          "type": "uint256"
        },
        {
          "indexed": true,
          "internalType": "uint256",
          "name": "scorecardId",
          "type": "uint256"
        },
        {
          "indexed": false,
          "internalType": "uint256",
          "name": "weight",
          "type": "uint256"
        },
        {
          "indexed": false,
          "internalType": "address",
          "name": "caller",
          "type": "address"
        }
      ],
      "name": "ScorecardAttested",
      "type": "event"
    },
    {
      "anonymous": false,
      "inputs": [
        {
          "indexed": true,
          "internalType": "uint256",
          "name": "gameId",
          "type": "uint256"
        },
        {
          "indexed": true,
          "internalType": "uint256",
          "name": "scorecardId",
          "type": "uint256"
        },
        {
          "indexed": false,
          "internalType": "address",
          "name": "caller",
          "type": "address"
        }
      ],
      "name": "ScorecardRatified",
      "type": "event"
    },
    {
      "anonymous": false,
      "inputs": [
        {
          "indexed": true,
          "internalType": "uint256",
          "name": "gameId",
          "type": "uint256"
        },
        {
          "indexed": true,
          "internalType": "uint256",
          "name": "scorecardId",
          "type": "uint256"
        },
        {
          "components": [
            {
              "internalType": "uint256",
              "name": "id",
              "type": "uint256"
            },
            {
              "internalType": "uint256",
              "name": "redemptionWeight",
              "type": "uint256"
            }
          ],
          "indexed": false,
          "internalType": "struct DefifaTierRedemptionWeight[]",
          "name": "tierWeights",
          "type": "tuple[]"
        },
        {
          "indexed": false,
          "internalType": "bool",
          "name": "isDefaultAttestationDelegate",
          "type": "bool"
        },
        {
          "indexed": false,
          "internalType": "address",
          "name": "caller",
          "type": "address"
        }
      ],
      "name": "ScorecardSubmitted",
      "type": "event"
    },
    {
      "inputs": [],
      "name": "MAX_ATTESTATION_POWER_TIER",
      "outputs": [
        {
          "internalType": "uint256",
          "name": "",
          "type": "uint256"
        }
      ],
      "stateMutability": "view",
      "type": "function"
    },
    {
      "inputs": [
        {
          "internalType": "uint256",
          "name": "_gameId",
          "type": "uint256"
        },
        {
          "internalType": "uint256",
          "name": "_scorecardId",
          "type": "uint256"
        }
      ],
      "name": "attestToScorecardFrom",
      "outputs": [
        {
          "internalType": "uint256",
          "name": "weight",
          "type": "uint256"
        }
      ],
      "stateMutability": "nonpayable",
      "type": "function"
    },
    {
      "inputs": [
        {
          "internalType": "uint256",
          "name": "_gameId",
          "type": "uint256"
        },
        {
          "internalType": "uint256",
          "name": "_scorecardId",
          "type": "uint256"
        }
      ],
      "name": "attestationCountOf",
      "outputs": [
        {
          "internalType": "uint256",
          "name": "",
          "type": "uint256"
        }
      ],
      "stateMutability": "view",
      "type": "function"
    },
    {
      "inputs": [
        {
          "internalType": "uint256",
          "name": "_gameId",
          "type": "uint256"
        }
      ],
      "name": "attestationGracePeriodOf",
      "outputs": [
        {
          "internalType": "uint256",
          "name": "",
          "type": "uint256"
        }
      ],
      "stateMutability": "view",
      "type": "function"
    },
    {
      "inputs": [
        {
          "internalType": "uint256",
          "name": "_gameId",
          "type": "uint256"
        }
      ],
      "name": "attestationStartTimeOf",
      "outputs": [
        {
          "internalType": "uint256",
          "name": "",
          "type": "uint256"
        }
      ],
      "stateMutability": "view",
      "type": "function"
    },
    {
      "inputs": [],
      "name": "controller",
      "outputs": [
        {
          "internalType": "contract IJBController3_1",
          "name": "",
          "type": "address"
        }
      ],
      "stateMutability": "view",
      "type": "function"
    },
    {
      "inputs": [
        {
          "internalType": "uint256",
          "name": "",
          "type": "uint256"
        }
      ],
      "name": "defaultAttestationDelegateProposalOf",
      "outputs": [
        {
          "internalType": "uint256",
          "name": "",
          "type": "uint256"
        }
      ],
      "stateMutability": "view",
      "type": "function"
    },
    {
      "inputs": [
        {
          "internalType": "uint256",
          "name": "_gameId",
          "type": "uint256"
        },
        {
          "internalType": "address",
          "name": "_account",
          "type": "address"
        },
        {
          "internalType": "uint256",
          "name": "_blockNumber",
          "type": "uint256"
        }
      ],
      "name": "getAttestationWeight",
      "outputs": [
        {
          "internalType": "uint256",
          "name": "attestationPower",
          "type": "uint256"
        }
      ],
      "stateMutability": "view",
      "type": "function"
    },
    {
      "inputs": [
        {
          "internalType": "uint256",
          "name": "_gameId",
          "type": "uint256"
        },
        {
          "internalType": "uint256",
          "name": "_scorecardId",
          "type": "uint256"
        },
        {
          "internalType": "address",
          "name": "_account",
          "type": "address"
        }
      ],
      "name": "hasAttestedTo",
      "outputs": [
        {
          "internalType": "bool",
          "name": "",
          "type": "bool"
        }
      ],
      "stateMutability": "view",
      "type": "function"
    },
    {
      "inputs": [
        {
          "internalType": "address",
          "name": "_gameDelegate",
          "type": "address"
        },
        {
          "internalType": "bytes",
          "name": "_data",
          "type": "bytes"
        }
      ],
      "name": "hashScorecardOf",
      "outputs": [
        {
          "internalType": "uint256",
          "name": "",
          "type": "uint256"
        }
      ],
      "stateMutability": "pure",
      "type": "function"
    },
    {
      "inputs": [
        {
          "internalType": "uint256",
          "name": "_gameId",
          "type": "uint256"
        },
        {
          "internalType": "uint256",
          "name": "_attestationStartTime",
          "type": "uint256"
        },
        {
          "internalType": "uint256",
          "name": "_attestationGracePeriod",
          "type": "uint256"
        }
      ],
      "name": "initializeGame",
      "outputs": [],
      "stateMutability": "nonpayable",
      "type": "function"
    },
    {
      "inputs": [],
      "name": "owner",
      "outputs": [
        {
          "internalType": "address",
          "name": "",
          "type": "address"
        }
      ],
      "stateMutability": "view",
      "type": "function"
    },
    {
      "inputs": [
        {
          "internalType": "uint256",
          "name": "_gameId",
          "type": "uint256"
        }
      ],
      "name": "quorum",
      "outputs": [
        {
          "internalType": "uint256",
          "name": "",
          "type": "uint256"
        }
      ],
      "stateMutability": "view",
      "type": "function"
    },
    {
      "inputs": [
        {
          "internalType": "uint256",
          "name": "",
          "type": "uint256"
        }
      ],
      "name": "ratifiedScorecardIdOf",
      "outputs": [
        {
          "internalType": "uint256",
          "name": "",
          "type": "uint256"
        }
      ],
      "stateMutability": "view",
      "type": "function"
    },
    {
      "inputs": [
        {
          "internalType": "uint256",
          "name": "_gameId",
          "type": "uint256"
        },
        {
          "components": [
            {
              "internalType": "uint256",
              "name": "id",
              "type": "uint256"
            },
            {
              "internalType": "uint256",
              "name": "redemptionWeight",
              "type": "uint256"
            }
          ],
          "internalType": "struct DefifaTierRedemptionWeight[]",
          "name": "_tierWeights",
          "type": "tuple[]"
        }
      ],
      "name": "ratifyScorecardFrom",
      "outputs": [
        {
          "internalType": "uint256",
          "name": "scorecardId",
          "type": "uint256"
        }
      ],
      "stateMutability": "nonpayable",
      "type": "function"
    },
    {
      "inputs": [],
      "name": "renounceOwnership",
      "outputs": [],
      "stateMutability": "nonpayable",
      "type": "function"
    },
    {
      "inputs": [
        {
          "internalType": "uint256",
          "name": "_gameId",
          "type": "uint256"
        },
        {
          "internalType": "uint256",
          "name": "_scorecardId",
          "type": "uint256"
        }
      ],
      "name": "stateOf",
      "outputs": [
        {
          "internalType": "enum DefifaScorecardState",
          "name": "",
          "type": "uint8"
        }
      ],
      "stateMutability": "view",
      "type": "function"
    },
    {
      "inputs": [
        {
          "internalType": "uint256",
          "name": "_gameId",
          "type": "uint256"
        },
        {
          "components": [
            {
              "internalType": "uint256",
              "name": "id",
              "type": "uint256"
            },
            {
              "internalType": "uint256",
              "name": "redemptionWeight",
              "type": "uint256"
            }
          ],
          "internalType": "struct DefifaTierRedemptionWeight[]",
          "name": "_tierWeights",
          "type": "tuple[]"
        }
      ],
      "name": "submitScorecardFor",
      "outputs": [
        {
          "internalType": "uint256",
          "name": "scorecardId",
          "type": "uint256"
        }
      ],
      "stateMutability": "nonpayable",
      "type": "function"
    },
    {
      "inputs": [
        {
          "internalType": "address",
          "name": "newOwner",
          "type": "address"
        }
      ],
      "name": "transferOwnership",
      "outputs": [],
      "stateMutability": "nonpayable",
      "type": "function"
    }
  ],
  "bytecode": {
    "object": "0x60c0346100d457601f611f2238819003918201601f19168301916001600160401b038311848410176100d95780849260409485528339810103126100d45780516001600160a01b039182821682036100d45760200151906000543360018060a01b0319821617600055604051933391167f8be0079c531659141344cd1fd0a4f28419497f9722a3daafe3b4186f6b6457e0600080a360a052608052611e3290816100f082396080518161087a015260a0518181816101a70152818161034a015281816107840152818161169a01526119400152f35b600080fd5b634e487b7160e01b600052604160045260246000fdfe608080604052600436101561001357600080fd5b60003560e01c908163222e143b14610f94575080632511642914610e515780633d0908b414610e1b578063517a618014610dfc578063715018a614610d8b5780638da5cb5b14610d6457806391fb2e9814610d2f5780639234799114610ccd578063a42e6c7d14610c50578063b7e8f6da14610727578063c543882f146106e0578063ce1e82d51461031a578063d826e899146102e7578063f0a92a1e146102bb578063f2fde38b146101cb578063f77c479114610187578063f80c73a11461015b578063f8ce560a146101355763f94633fb146100f057600080fd5b346101305761010761010136610fc4565b9061113c565b604051600582101561011a576020918152f35b634e487b7160e01b600052602160045260246000fd5b600080fd5b3461013057602060031936011261013057602061015360043561166c565b604051908152f35b346101305760206003193601126101305760043560005260046020526020604060002054604051908152f35b346101305760006003193601126101305760206040516001600160a01b037f0000000000000000000000000000000000000000000000000000000000000000168152f35b34610130576020600319360112610130576101e4610fda565b6101ec611c81565b6001600160a01b0380911690811561025157600054827fffffffffffffffffffffffff0000000000000000000000000000000000000000821617600055167f8be0079c531659141344cd1fd0a4f28419497f9722a3daafe3b4186f6b6457e0600080a3005b608460405162461bcd60e51b815260206004820152602660248201527f4f776e61626c653a206e6577206f776e657220697320746865207a65726f206160448201527f64647265737300000000000000000000000000000000000000000000000000006064820152fd5b346101305760206003193601126101305760043560005260056020526020604060002054604051908152f35b34610130576102f536610fc4565b9060005260026020526040600020906000526020526020604060002054604051908152f35b346101305761032836611062565b919081600052602091600583526040600020546106b6576001600160a01b03807f0000000000000000000000000000000000000000000000000000000000000000169060405195638776c49960e01b87528360048801526103a09460249786818a81885afa9687156105a357600097610679575b5050610200916103ab91611c39565b9401936103bb81838751166110fa565b946103c6868661113c565b60058110156106645760030361063a5760009183839287845260058a528860408520555116828983519301915af13d15610632573d9061040582611046565b916104136040519384611023565b82523d60008884013e5b604051936040850167ffffffffffffffff958082108783111761061d576004948a9461047493604052600d83527f4241445f53434f5245434152440000000000000000000000000000000000000086840152611cd9565b50604051928380927f8b79543c0000000000000000000000000000000000000000000000000000000082525afa9081156105a357829187916000916105e4575b5088604051809481937f6352211e000000000000000000000000000000000000000000000000000000008352896004840152165afa9081156105a3576000916105af575b501690813b15610130576000809287604051809581937fb6674cde0000000000000000000000000000000000000000000000000000000083528860048401525af180156105a357610579575b505081907f47c473fdeacbc61881306133d8e38075619b3cfed85b1a2c9552ddd3a788dc2f84604051338152a3604051908152f35b811161058e5782939450604052839285610544565b84634e487b7160e01b60005260416004526000fd5b6040513d6000823e3d90fd5b90508581813d83116105dd575b6105c68183611023565b81010312610130576105d790611254565b876104f8565b503d6105bc565b92505081813d8311610616575b6105fb8183611023565b810103126101305751818116810361013057858291896104b4565b503d6105f1565b8a634e487b7160e01b60005260416004526000fd5b60609061041d565b60046040517f95c31a56000000000000000000000000000000000000000000000000000000008152fd5b88634e487b7160e01b60005260216004526000fd5b6103ab9297506102009391816106a392903d106106af575b61069b8183611023565b810190611268565b9050969181935061039c565b503d610691565b60046040517fe63e1225000000000000000000000000000000000000000000000000000000008152fd5b34610130576060600319360112610130576024356106fc611c81565b8015610720575b600435600052600360205260443560301b17604060002055600080f35b5042610703565b346101305761073536611062565b90918060005260056020526040600020546106b65780600052600360205260406000205415610c2657604051638776c49960e01b81528160048201526103a09081816024816001600160a01b037f0000000000000000000000000000000000000000000000000000000000000000165afa9182156105a357600092610c07575b50506107bf6114d9565b5060005b838110610aab575061020001916107ee6001600160a01b038451166107e88387611c39565b906110fa565b9282600052600160205260406000208460005260205260406000209081549165ffffffffffff808416610a815785908160005260036020528060406000205416804211600014610a23575091600494602094926bffffffffffffffffffffffff196bffffffffffff0000000000006108f06108a06001600160a01b03986108eb6000915b6108a66108a07f0000000000000000000000000000000000000000000000000000000000000000809561164c565b43611532565b1696877fffffffffffffffffffffffffffffffffffffffffffffffffffff0000000000008a16178a55600052600360205265ffffffffffff60406000205460301c1690565b61164c565b60301b169216171790555116604051928380927f7f9898870000000000000000000000000000000000000000000000000000000082525afa9081156105a3576000916109b2575b506020948493926001600160a01b037fa8529171c1868e465ad2895d671a738ffb5f0764bd6dffd13339152af5c5f3a0931633148061099e575b610988604051938493606085526060850191611bfa565b90888301523360408301520390a3604051908152f35b846000526004885285604060002055610971565b90506020929192813d602011610a1b575b816109d060209383611023565b810103126101305760209484936001600160a01b03610a0f7fa8529171c1868e465ad2895d671a738ffb5f0764bd6dffd13339152af5c5f3a094611254565b93505092935094610937565b3d91506109c3565b93915091428403938411610a6b57600494876bffffffffffffffffffffffff196bffffffffffff0000000000006108f06108a06001600160a01b03986108eb60209b91610872565b634e487b7160e01b600052601160045260246000fd5b60046040517f440a4570000000000000000000000000000000000000000000000000000000008152fd5b600460206001600160a01b03610200850151166040519283809263975057e760e01b82525afa9081156105a357600091610bd8575b5060006001600160a01b03610200850151166064610aff85898b611bd4565b35916001600160a01b0360405195869485937f64faa15900000000000000000000000000000000000000000000000000000000855260048501526024840152856044840152165afa9081156105a357600091610bb5575b50604060608201519101511480610b9e575b610b74576001016107c3565b60046040517fd1f78be3000000000000000000000000000000000000000000000000000000008152fd5b506020610bac828688611bd4565b01351515610b68565b610bd291503d806000833e610bca8183611023565b81019061153f565b86610b56565b610bfa915060203d602011610c00575b610bf28183611023565b8101906114ba565b86610ae0565b503d610be8565b610c1d9250803d106106af5761069b8183611023565b905084806107b5565b60046040517ffd176724000000000000000000000000000000000000000000000000000000008152fd5b3461013057604060031936011261013057610c69610fda565b60243567ffffffffffffffff8111610130573660238201121561013057806004013591610c9583611046565b90610ca36040519283611023565b838252366024858501011161013057600060208581966024610153970183870137840101526110fa565b34610130576060600319360112610130576044356001600160a01b0381168091036101305760043560005260026020526040600020602435600052602052600160406000200190600052602052602060ff604060002054166040519015158152f35b34610130576020600319360112610130576020610153600435600052600360205265ffffffffffff60406000205460301c1690565b346101305760006003193601126101305760206001600160a01b0360005416604051908152f35b3461013057600060031936011261013057610da4611c81565b60006001600160a01b0381547fffffffffffffffffffffffff000000000000000000000000000000000000000081168355167f8be0079c531659141344cd1fd0a4f28419497f9722a3daafe3b4186f6b6457e08280a3005b34610130576000600319360112610130576020604051633b9aca008152f35b34610130576060600319360112610130576024356001600160a01b03811681036101305761015360209160443590600435611909565b3461013057610e5f36610fc4565b9080600052602091600183526040600020816000528352604060002091610e86828261113c565b600581101561011a5760018114159081610f88575b5061063a578060005260028452604060002082600052845260406000209260018401903360005281865260ff60406000205416610f5e5765ffffffffffff610ee69154163384611909565b93610ef2858254611532565b9055336000528452604060002060017fffffffffffffffffffffffffffffffffffffffffffffffffffffffffffffff008254161790557fc49d39a4ac0db2fda0e72ce3ff9d5ee27f409cecd8fa183fd8bf36a05f9c788d604080518581523387820152a3604051908152f35b60046040517f944e4a31000000000000000000000000000000000000000000000000000000008152fd5b60039150141585610e9b565b34610130576020600319360112610130576020906004356000526003825265ffffffffffff604060002054168152f35b6003196040910112610130576004359060243590565b600435906001600160a01b038216820361013057565b610180810190811067ffffffffffffffff82111761100d57604052565b634e487b7160e01b600052604160045260246000fd5b90601f601f19910116810190811067ffffffffffffffff82111761100d57604052565b67ffffffffffffffff811161100d57601f01601f191660200190565b6040600319820112610130576004359160243567ffffffffffffffff9283821161013057806023830112156101305781600401359384116101305760248460061b83010111610130576024019190565b60005b8381106110c55750506000910152565b81810151838201526020016110b5565b90601f19601f6020936110f3815180928187528780880191016110b2565b0116010190565b90611136611128916040519283916001600160a01b03602084019616865260408084015260608301906110d5565b03601f198101835282611023565b51902090565b60009181835260209060058252604091828520548061122e575060018152828520828652815282852083519084820182811067ffffffffffffffff82111761121a578552549065ffffffffffff90818316808252828583019460301c168452156111f1575181164311156111e8574391511610156111de576111bd8461166c565b938552600281528285209185525290912054106111d957600390565b600190565b5050505050600190565b50505050505090565b600486517feb24c39f000000000000000000000000000000000000000000000000000000008152fd5b602488634e487b7160e01b81526041600452fd5b935050929050501460001461124257600490565b600290565b5190811515820361013057565b51906001600160a01b038216820361013057565b80929103916103a08312610130576101208312610130576040805167ffffffffffffffff92919061012081018481118282101761100d57825282518152602083015160208201528183015182820152606083015160608201526080830151608082015260a083015160a082015260c083015160c082015260e0830151906001600160a01b0382168203610130577ffffffffffffffffffffffffffffffffffffffffffffffffffffffffffffffee09160e0820152610100840151610100820152950161028081126101305781519361024092838601928684108385111761100d57606013610130576102a0918683019081118482101761100d5781526113716101208601611247565b8352610140611381868201611247565b9361026094858901526101609081880161139a90611247565b6102808a01528852610180918288015160208a01526101a09384890151908a01526101c0948589015160608b01526101e096878a016113d890611247565b60808c0152610200986113ec8b8b01611247565b60a08d01526113fe6102208c01611247565b60c08d01528a0161140e90611247565b60e08c0152890161141e90611247565b6101008b01526114316102808a01611247565b6101208b0152880161144290611247565b908901526114536102c08801611247565b908801526114646102e08701611247565b908701526114756103008601611247565b908601526114866103208501611247565b908501526114976103408401611247565b908401526114a86103608301611254565b90830152610380015161022082015290565b9081602091031261013057516001600160a01b03811681036101305790565b604051906114e682610ff0565b606061016083600080825280602083015280604083015280848301528060808301528060a08301528060c08301528060e083015280610100830152806101208301526101408201520152565b91908201809211610a6b57565b906020808383031261013057825167ffffffffffffffff9384821161013057019061018082840312610130576040519361157885610ff0565b82518552818301518286015260408301516040860152606083015160608601526080830151608086015260a083015160a08601526115b860c08401611254565b60c086015260e083015160e086015261010080840151908601526101206115e0818501611247565b908601526101406115f2818501611247565b908601526101609283810151918211610130570183601f820112156101305780519061161d82611046565b9461162b6040519687611023565b828652838383010111610130578261164693860191016110b2565b82015290565b8115611656570490565b634e487b7160e01b600052601260045260246000fd5b604090815190638776c49960e01b8252600490818301526103a0906024916001600160a01b039381818581887f0000000000000000000000000000000000000000000000000000000000000000165afa918215611849579061020092916000926118ea575b5050019383855116948151908163975057e760e01b97888252818660209586935afa9081156118df57928092918895946000916118c2575b50878684511686519a8b9384927ff1bea54f0000000000000000000000000000000000000000000000000000000084528b840152165afa9687156118b757600097611885575b506117586114d9565b50600097885b8881106117745750505050505050505060011c90565b8684878551168751928380928782525afa90811561184957600091611868575b5086845116906001830180931161185457899160648a8a600094878c5197889687957f64faa159000000000000000000000000000000000000000000000000000000008752860152840152856044840152165afa90811561184957600091611830575b50856060820151910151101561175e5798633b9aca00810180911161181c579861175e565b87601188634e487b7160e01b600052526000fd5b611843913d8091833e610bca8183611023565b386117f7565b86513d6000823e3d90fd5b8960118a634e487b7160e01b600052526000fd5b61187f9150853d8711610c0057610bf28183611023565b38611794565b90968282813d83116118b0575b61189c8183611023565b810103126118ad575051953861174f565b80fd5b503d611892565b83513d6000823e3d90fd5b6118d99150823d8411610c0057610bf28183611023565b38611709565b84513d6000823e3d90fd5b6119009250803d106106af5761069b8183611023565b905038806116d1565b929190600093600090604091825194638776c49960e01b8652600492838701526103a0926024936001600160a01b0397818187818c7f0000000000000000000000000000000000000000000000000000000000000000165afa918215611bca579061020092918692611bab575b5050019087825116928651809463975057e760e01b8252818460209788935afa908115611b84578a93929186918891611b8e575b5088858751168b519d8e9384927ff1bea54f00000000000000000000000000000000000000000000000000000000845288840152165afa998a15611b8457869a611b51575b50855b8a8110611a06575050505050505050505050565b60018101809111611b3f57838551168951907fea1c1b25000000000000000000000000000000000000000000000000000000008252858c1685830152828a830152878260648160449488868301525afa918215611b06578992611b10575b5081611a72575b50506119f2565b87839f9385928c918e8a8c5116905195869485937fd9119f5f0000000000000000000000000000000000000000000000000000000085528c8501528301525afa908115611b06578991611ad3575b50611aca91611d1d565b019b3880611a6b565b90508781813d8311611aff575b611aea8183611023565b81010312611afb5751611aca611ac0565b8880fd5b503d611ae0565b8b513d8b823e3d90fd5b9091508781813d8311611b38575b611b288183611023565b81010312611afb57519038611a64565b503d611b1e565b8787601185634e487b7160e01b835252fd5b9099508481813d8311611b7d575b611b698183611023565b81010312611b79575198386119ef565b8580fd5b503d611b5f565b88513d88823e3d90fd5b611ba59150823d8411610c0057610bf28183611023565b386119aa565b611bc19250803d106106af5761069b8183611023565b90503880611976565b87513d87823e3d90fd5b9190811015611be45760061b0190565b634e487b7160e01b600052603260045260246000fd5b9190808252602080920192916000905b828210611c18575050505090565b83358552838101358582015260409485019490930192600190910190611c0a565b90611c7e906111286040519384927ffadd72b7000000000000000000000000000000000000000000000000000000006020850152602060248501526044840191611bfa565b90565b6001600160a01b03600054163303611c9557565b606460405162461bcd60e51b815260206004820152602060248201527f4f776e61626c653a2063616c6c6572206973206e6f7420746865206f776e65726044820152fd5b90919015611ce5575090565b815115611cf55750805190602001fd5b611d199060405191829162461bcd60e51b83526020600484015260248301906110d5565b0390fd5b90633b9aca00907fffffffffffffffffffffffffffffffffffffffffffffffffffffffffffffffff8383099280830292838086109503948086039514611def5782851015611db857908291096001821901821680920460028082600302188083028203028083028203028083028203028083028203028083028203028092029003029360018380600003040190848311900302920304170290565b60448584604051917f773cc18c00000000000000000000000000000000000000000000000000000000835260048301526024820152fd5b505090611c7e925061164c56fea2646970667358221220f34b3b952692131875de2512cc85f53e79cca62a8e950e205b743ffa2808981164736f6c63430008140033",
    "linkReferences": {}
  },
  "methodIdentifiers": {
    "MAX_ATTESTATION_POWER_TIER()": "517a6180",
    "attestToScorecardFrom(uint256,uint256)": "25116429",
    "attestationCountOf(uint256,uint256)": "d826e899",
    "attestationGracePeriodOf(uint256)": "91fb2e98",
    "attestationStartTimeOf(uint256)": "222e143b",
    "controller()": "f77c4791",
    "defaultAttestationDelegateProposalOf(uint256)": "f80c73a1",
    "getAttestationWeight(uint256,address,uint256)": "3d0908b4",
    "hasAttestedTo(uint256,uint256,address)": "92347991",
    "hashScorecardOf(address,bytes)": "a42e6c7d",
    "initializeGame(uint256,uint256,uint256)": "c543882f",
    "owner()": "8da5cb5b",
    "quorum(uint256)": "f8ce560a",
    "ratifiedScorecardIdOf(uint256)": "f0a92a1e",
    "ratifyScorecardFrom(uint256,(uint256,uint256)[])": "ce1e82d5",
    "renounceOwnership()": "715018a6",
    "stateOf(uint256,uint256)": "f94633fb",
    "submitScorecardFor(uint256,(uint256,uint256)[])": "b7e8f6da",
    "transferOwnership(address)": "f2fde38b"
  },
  "id": 2
}