{
  "abi": [
    {
      "inputs": [
        {
          "internalType": "contract IJBController3_1",
          "name": "_controller",
          "type": "address"
        },
        {
          "internalType": "uint256",
          "name": "__blockTime",
          "type": "uint256"
        }
      ],
      "stateMutability": "nonpayable",
      "type": "constructor"
    },
    {
      "inputs": [],
      "name": "ALREADY_ATTESTED",
      "type": "error"
    },
    {
      "inputs": [],
      "name": "ALREADY_RATIFIED",
      "type": "error"
    },
    {
      "inputs": [],
      "name": "DUPLICATE_SCORECARD",
      "type": "error"
    },
    {
      "inputs": [],
      "name": "GAME_NOT_FOUND",
      "type": "error"
    },
    {
      "inputs": [],
      "name": "INCORRECT_TIER_ORDER",
      "type": "error"
    },
    {
      "inputs": [],
      "name": "NOT_ALLOWED",
      "type": "error"
    },
    {
      "inputs": [
        {
          "internalType": "uint256",
          "name": "prod1",
          "type": "uint256"
        },
        {
          "internalType": "uint256",
          "name": "denominator",
          "type": "uint256"
        }
      ],
      "name": "PRBMath__MulDivOverflow",
      "type": "error"
    },
    {
      "inputs": [],
      "name": "UNKNOWN_PROPOSAL",
      "type": "error"
    },
    {
      "inputs": [],
      "name": "UNOWNED_PROPOSED_REDEMPTION_VALUE",
      "type": "error"
    },
    {
      "anonymous": false,
      "inputs": [
        {
          "indexed": true,
          "internalType": "uint256",
          "name": "gameId",
          "type": "uint256"
        },
        {
          "indexed": false,
          "internalType": "uint256",
          "name": "attestationStartTime",
          "type": "uint256"
        },
        {
          "indexed": false,
          "internalType": "uint256",
          "name": "attestationGracePeriod",
          "type": "uint256"
        },
        {
          "indexed": false,
          "internalType": "address",
          "name": "caller",
          "type": "address"
        }
      ],
      "name": "GameInitialized",
      "type": "event"
    },
    {
      "anonymous": false,
      "inputs": [
        {
          "indexed": true,
          "internalType": "address",
          "name": "previousOwner",
          "type": "address"
        },
        {
          "indexed": true,
          "internalType": "address",
          "name": "newOwner",
          "type": "address"
        }
      ],
      "name": "OwnershipTransferred",
      "type": "event"
    },
    {
      "anonymous": false,
      "inputs": [
        {
          "indexed": true,
          "internalType": "uint256",
          "name": "gameId",
          "type": "uint256"
        },
        {
          "indexed": true,
          "internalType": "uint256",
          "name": "scorecardId",
          "type": "uint256"
        },
        {
          "indexed": false,
          "internalType": "uint256",
          "name": "weight",
          "type": "uint256"
        },
        {
          "indexed": false,
          "internalType": "address",
          "name": "caller",
          "type": "address"
        }
      ],
      "name": "ScorecardAttested",
      "type": "event"
    },
    {
      "anonymous": false,
      "inputs": [
        {
          "indexed": true,
          "internalType": "uint256",
          "name": "gameId",
          "type": "uint256"
        },
        {
          "indexed": true,
          "internalType": "uint256",
          "name": "scorecardId",
          "type": "uint256"
        },
        {
          "indexed": false,
          "internalType": "address",
          "name": "caller",
          "type": "address"
        }
      ],
      "name": "ScorecardRatified",
      "type": "event"
    },
    {
      "anonymous": false,
      "inputs": [
        {
          "indexed": true,
          "internalType": "uint256",
          "name": "gameId",
          "type": "uint256"
        },
        {
          "indexed": true,
          "internalType": "uint256",
          "name": "scorecardId",
          "type": "uint256"
        },
        {
          "components": [
            {
              "internalType": "uint256",
              "name": "id",
              "type": "uint256"
            },
            {
              "internalType": "uint256",
              "name": "redemptionWeight",
              "type": "uint256"
            }
          ],
          "indexed": false,
          "internalType": "struct DefifaTierRedemptionWeight[]",
          "name": "tierWeights",
          "type": "tuple[]"
        },
        {
          "indexed": false,
          "internalType": "bool",
          "name": "isDefaultAttestationDelegate",
          "type": "bool"
        },
        {
          "indexed": false,
          "internalType": "address",
          "name": "caller",
          "type": "address"
        }
      ],
      "name": "ScorecardSubmitted",
      "type": "event"
    },
    {
      "inputs": [],
      "name": "MAX_ATTESTATION_POWER_TIER",
      "outputs": [
        {
          "internalType": "uint256",
          "name": "",
          "type": "uint256"
        }
      ],
      "stateMutability": "view",
      "type": "function"
    },
    {
      "inputs": [
        {
          "internalType": "uint256",
          "name": "_gameId",
          "type": "uint256"
        },
        {
          "internalType": "uint256",
          "name": "_scorecardId",
          "type": "uint256"
        }
      ],
      "name": "attestToScorecardFrom",
      "outputs": [
        {
          "internalType": "uint256",
          "name": "weight",
          "type": "uint256"
        }
      ],
      "stateMutability": "nonpayable",
      "type": "function"
    },
    {
      "inputs": [
        {
          "internalType": "uint256",
          "name": "_gameId",
          "type": "uint256"
        },
        {
          "internalType": "uint256",
          "name": "_scorecardId",
          "type": "uint256"
        }
      ],
      "name": "attestationCountOf",
      "outputs": [
        {
          "internalType": "uint256",
          "name": "",
          "type": "uint256"
        }
      ],
      "stateMutability": "view",
      "type": "function"
    },
    {
      "inputs": [
        {
          "internalType": "uint256",
          "name": "_gameId",
          "type": "uint256"
        }
      ],
      "name": "attestationGracePeriodOf",
      "outputs": [
        {
          "internalType": "uint256",
          "name": "",
          "type": "uint256"
        }
      ],
      "stateMutability": "view",
      "type": "function"
    },
    {
      "inputs": [
        {
          "internalType": "uint256",
          "name": "_gameId",
          "type": "uint256"
        }
      ],
      "name": "attestationStartTimeOf",
      "outputs": [
        {
          "internalType": "uint256",
          "name": "",
          "type": "uint256"
        }
      ],
      "stateMutability": "view",
      "type": "function"
    },
    {
      "inputs": [],
      "name": "controller",
      "outputs": [
        {
          "internalType": "contract IJBController3_1",
          "name": "",
          "type": "address"
        }
      ],
      "stateMutability": "view",
      "type": "function"
    },
    {
      "inputs": [
        {
          "internalType": "uint256",
          "name": "",
          "type": "uint256"
        }
      ],
      "name": "defaultAttestationDelegateProposalOf",
      "outputs": [
        {
          "internalType": "uint256",
          "name": "",
          "type": "uint256"
        }
      ],
      "stateMutability": "view",
      "type": "function"
    },
    {
      "inputs": [
        {
          "internalType": "uint256",
          "name": "_gameId",
          "type": "uint256"
        },
        {
          "internalType": "address",
          "name": "_account",
          "type": "address"
        },
        {
          "internalType": "uint256",
          "name": "_blockNumber",
          "type": "uint256"
        }
      ],
      "name": "getAttestationWeight",
      "outputs": [
        {
          "internalType": "uint256",
          "name": "attestationPower",
          "type": "uint256"
        }
      ],
      "stateMutability": "view",
      "type": "function"
    },
    {
      "inputs": [
        {
          "internalType": "uint256",
          "name": "_gameId",
          "type": "uint256"
        },
        {
          "internalType": "uint256",
          "name": "_scorecardId",
          "type": "uint256"
        },
        {
          "internalType": "address",
          "name": "_account",
          "type": "address"
        }
      ],
      "name": "hasAttestedTo",
      "outputs": [
        {
          "internalType": "bool",
          "name": "",
          "type": "bool"
        }
      ],
      "stateMutability": "view",
      "type": "function"
    },
    {
      "inputs": [
        {
          "internalType": "uint256",
          "name": "_gameId",
          "type": "uint256"
        },
        {
          "internalType": "uint256",
          "name": "_attestationStartTime",
          "type": "uint256"
        },
        {
          "internalType": "uint256",
          "name": "_attestationGracePeriod",
          "type": "uint256"
        }
      ],
      "name": "initializeGame",
      "outputs": [],
      "stateMutability": "nonpayable",
      "type": "function"
    },
    {
      "inputs": [],
      "name": "owner",
      "outputs": [
        {
          "internalType": "address",
          "name": "",
          "type": "address"
        }
      ],
      "stateMutability": "view",
      "type": "function"
    },
    {
      "inputs": [
        {
          "internalType": "uint256",
          "name": "_gameId",
          "type": "uint256"
        }
      ],
      "name": "quorum",
      "outputs": [
        {
          "internalType": "uint256",
          "name": "",
          "type": "uint256"
        }
      ],
      "stateMutability": "view",
      "type": "function"
    },
    {
      "inputs": [
        {
          "internalType": "uint256",
          "name": "",
          "type": "uint256"
        }
      ],
      "name": "ratifiedScorecardIdOf",
      "outputs": [
        {
          "internalType": "uint256",
          "name": "",
          "type": "uint256"
        }
      ],
      "stateMutability": "view",
      "type": "function"
    },
    {
      "inputs": [
        {
          "internalType": "uint256",
          "name": "_gameId",
          "type": "uint256"
        },
        {
          "components": [
            {
              "internalType": "uint256",
              "name": "id",
              "type": "uint256"
            },
            {
              "internalType": "uint256",
              "name": "redemptionWeight",
              "type": "uint256"
            }
          ],
          "internalType": "struct DefifaTierRedemptionWeight[]",
          "name": "_tierWeights",
          "type": "tuple[]"
        }
      ],
      "name": "ratifyScorecardFrom",
      "outputs": [
        {
          "internalType": "uint256",
          "name": "scorecardId",
          "type": "uint256"
        }
      ],
      "stateMutability": "nonpayable",
      "type": "function"
    },
    {
      "inputs": [],
      "name": "renounceOwnership",
      "outputs": [],
      "stateMutability": "nonpayable",
      "type": "function"
    },
    {
      "inputs": [
        {
          "internalType": "address",
          "name": "_gameDelegate",
          "type": "address"
        },
        {
          "components": [
            {
              "internalType": "uint256",
              "name": "id",
              "type": "uint256"
            },
            {
              "internalType": "uint256",
              "name": "redemptionWeight",
              "type": "uint256"
            }
          ],
          "internalType": "struct DefifaTierRedemptionWeight[]",
          "name": "_tierWeights",
          "type": "tuple[]"
        }
      ],
      "name": "scorecardIdOf",
      "outputs": [
        {
          "internalType": "uint256",
          "name": "",
          "type": "uint256"
        }
      ],
      "stateMutability": "pure",
      "type": "function"
    },
    {
      "inputs": [
        {
          "internalType": "uint256",
          "name": "_gameId",
          "type": "uint256"
        },
        {
          "internalType": "uint256",
          "name": "_scorecardId",
          "type": "uint256"
        }
      ],
      "name": "stateOf",
      "outputs": [
        {
          "internalType": "enum DefifaScorecardState",
          "name": "",
          "type": "uint8"
        }
      ],
      "stateMutability": "view",
      "type": "function"
    },
    {
      "inputs": [
        {
          "internalType": "uint256",
          "name": "_gameId",
          "type": "uint256"
        },
        {
          "components": [
            {
              "internalType": "uint256",
              "name": "id",
              "type": "uint256"
            },
            {
              "internalType": "uint256",
              "name": "redemptionWeight",
              "type": "uint256"
            }
          ],
          "internalType": "struct DefifaTierRedemptionWeight[]",
          "name": "_tierWeights",
          "type": "tuple[]"
        }
      ],
      "name": "submitScorecardFor",
      "outputs": [
        {
          "internalType": "uint256",
          "name": "scorecardId",
          "type": "uint256"
        }
      ],
      "stateMutability": "nonpayable",
      "type": "function"
    },
    {
      "inputs": [
        {
          "internalType": "address",
          "name": "newOwner",
          "type": "address"
        }
      ],
      "name": "transferOwnership",
      "outputs": [],
      "stateMutability": "nonpayable",
      "type": "function"
    }
  ],
  "bytecode": {
    "object": "0x60c0346100d457601f611c9138819003918201601f19168301916001600160401b038311848410176100d95780849260409485528339810103126100d45780516001600160a01b039182821682036100d45760200151906000543360018060a01b0319821617600055604051933391167f8be0079c531659141344cd1fd0a4f28419497f9722a3daafe3b4186f6b6457e0600080a360a052608052611ba190816100f0823960805181610835015260a05181818161019d0152818161038c015281816107550152818161146f01526116e30152f35b600080fd5b634e487b7160e01b600052604160045260246000fdfe608080604052600436101561001357600080fd5b60003560e01c908163222e143b14610df2575080632511642914610ce55780633d0908b414610caf578063517a618014610c90578063715018a614610c375780638da5cb5b14610c0e57806391fb2e9814610bd95780639234799114610b76578063b7e8f6da146106ff578063c543882f14610682578063ce1e82d514610342578063d826e8991461030f578063deec0bb0146102c1578063f0a92a1e14610295578063f2fde38b146101cc578063f77c479114610187578063f80c73a11461015b578063f8ce560a146101355763f94633fb146100f057600080fd5b346101305761010761010136610e22565b90610f08565b604051600582101561011a576020918152f35b634e487b7160e01b600052602160045260246000fd5b600080fd5b3461013057602036600319011261013057602061015360043561143f565b604051908152f35b346101305760203660031901126101305760043560005260046020526020604060002054604051908152f35b34610130576000366003190112610130576040517f00000000000000000000000000000000000000000000000000000000000000006001600160a01b03168152602090f35b34610130576020366003190112610130576101e5610e38565b6101ed611a27565b6001600160a01b0390811690811561024157600054826bffffffffffffffffffffffff60a01b821617600055167f8be0079c531659141344cd1fd0a4f28419497f9722a3daafe3b4186f6b6457e0600080a3005b60405162461bcd60e51b815260206004820152602660248201527f4f776e61626c653a206e6577206f776e657220697320746865207a65726f206160448201526564647265737360d01b6064820152608490fd5b346101305760203660031901126101305760043560005260056020526020604060002054604051908152f35b34610130576040366003190112610130576102da610e38565b60243567ffffffffffffffff811161013057602091610309610303610153933690600401610e4e565b90611992565b906119f4565b346101305761031d36610e22565b9060005260026020526040600020906000526020526020604060002054604051908152f35b346101305761035036610e7f565b9190816000526020916005835260406000205461067057604051638776c49960e01b8152600481018290526024946103a0936001600160a01b037f00000000000000000000000000000000000000000000000000000000000000008116939092919086818a81885afa96871561057557600097610633575b5050610200916103d791611992565b9401936103e781838751166119f4565b946103f28686610f08565b600581101561061e5760030361060c5760009183839287845260058a528860408520555116828983519301915af13d15610604573d90610431826112d3565b9161043f6040519384610ee6565b82523d60008884013e5b604051936040850167ffffffffffffffff95808210878311176105ef576004948a9461049093604052600d83526c10905117d4d0d3d49150d05491609a1b86840152611a7f565b506040516322de550f60e21b815292839182905afa90811561057557829187916000916105b6575b5088604051809481936331a9108f60e11b8352896004840152165afa90811561057557600091610581575b501690813b1561013057600080928760405180958193635b33a66f60e11b83528860048401525af180156105755761054b575b505081907f47c473fdeacbc61881306133d8e38075619b3cfed85b1a2c9552ddd3a788dc2f84604051338152a3604051908152f35b81116105605782939450604052839285610516565b84634e487b7160e01b60005260416004526000fd5b6040513d6000823e3d90fd5b90508581813d83116105af575b6105988183610ee6565b81010312610130576105a990611008565b876104e3565b503d61058e565b92505081813d83116105e8575b6105cd8183610ee6565b810103126101305751818116810361013057858291896104b8565b503d6105c3565b8a634e487b7160e01b60005260416004526000fd5b606090610449565b604051634ae18d2b60e11b8152600490fd5b88634e487b7160e01b60005260216004526000fd5b6103d792975061020093918161065d92903d10610669575b6106558183610ee6565b81019061101c565b905096918193506103c8565b503d61064b565b60405163e63e122560e01b8152600490fd5b34610130576060366003190112610130576004357f8134704271052dad7aa04d6ab4df63250a5f2aa4639fcc0d0ddb74cb0edf864760606024356044356106c7611a27565b81156106f7575b8460005260036020528060301b82176040600020556040519182526020820152336040820152a2005b4291506106ce565b346101305761070d36610e7f565b90918060005260056020526040600020546106705780600052600360205260406000205415610b6457604051638776c49960e01b8152600481018290526103a09081816024817f00000000000000000000000000000000000000000000000000000000000000006001600160a01b03165afa91821561057557600092610b45575b505061079861126d565b5060005b838110610a1157506102000180519092906107c4906001600160a01b03166103098387611992565b9282600052600160205260406000208460005260205260406000209081549165ffffffffffff928381166109ff5785600052600360205283604060002054168042116000146109bd575090602092916004946bffffffffffff00000000000061089661085b6000935b61086161085b7f0000000000000000000000000000000000000000000000000000000000000000809761141f565b436112c6565b16938465ffffffffffff1987161787556108918c600052600360205265ffffffffffff60406000205460301c1690565b61141f565b60301b16916bffffffffffffffffffffffff19161717905560018060a01b0390511660405192838092637f98988760e01b82525afa90811561057557600091610955575b506020948493927fa8529171c1868e465ad2895d671a738ffb5f0764bd6dffd13339152af5c5f3a0926001600160a01b0316331480610941575b61092b604051938493606085526060850191611953565b90888301523360408301520390a3604051908152f35b846000526004885285604060002055610914565b90506020929192813d6020116109b5575b8161097360209383610ee6565b810103126101305760209484936109aa7fa8529171c1868e465ad2895d671a738ffb5f0764bd6dffd13339152af5c5f3a093611008565b9250929350946108da565b3d9150610966565b9291904284039384116109e9576004946bffffffffffff00000000000061089661085b6020979361082d565b634e487b7160e01b600052601160045260246000fd5b604051630440a45760e41b8152600490fd5b61020082015160405163975057e760e01b815290602090829060049082906001600160a01b03165afa90811561057557600091610b16575b506102008301516000906001600160a01b03166064610a6985898b61192d565b6040516364faa15960e01b8152600481019390935235602483015260448201839052909283919082906001600160a01b03165afa90811561057557600091610af3575b50604060608201519101511480610adc575b610aca5760010161079c565b60405163d1f78be360e01b8152600490fd5b506020610aea82868861192d565b01351515610abe565b610b1091503d806000833e610b088183610ee6565b810190611312565b86610aac565b610b38915060203d602011610b3e575b610b308183610ee6565b81019061124e565b86610a49565b503d610b26565b610b5b9250803d10610669576106558183610ee6565b9050848061078e565b604051633f45d9c960e21b8152600490fd5b34610130576060366003190112610130576044356001600160a01b038116908190036101305760043560005260026020526040600020602435600052602052600160406000200190600052602052602060ff604060002054166040519015158152f35b34610130576020366003190112610130576020610153600435600052600360205265ffffffffffff60406000205460301c1690565b34610130576000366003190112610130576000546040516001600160a01b039091168152602090f35b3461013057600036600319011261013057610c50611a27565b600080546001600160a01b0319811682556001600160a01b03167f8be0079c531659141344cd1fd0a4f28419497f9722a3daafe3b4186f6b6457e08280a3005b34610130576000366003190112610130576020604051633b9aca008152f35b34610130576060366003190112610130576024356001600160a01b038116810361013057610153602091604435906004356116ad565b3461013057610cf336610e22565b9080600052602091600183526040600020816000528352604060002091610d1a8282610f08565b600581101561011a5760018114159081610de6575b5061060c578060005260028452604060002082600052845260406000209260018401903360005281865260ff60406000205416610dd45765ffffffffffff610d7a91541633846116ad565b93610d868582546112c6565b90553360005284526040600020600160ff198254161790557fc49d39a4ac0db2fda0e72ce3ff9d5ee27f409cecd8fa183fd8bf36a05f9c788d604080518581523387820152a3604051908152f35b60405163944e4a3160e01b8152600490fd5b60039150141585610d2f565b34610130576020366003190112610130576020906004356000526003825265ffffffffffff604060002054168152f35b6040906003190112610130576004359060243590565b600435906001600160a01b038216820361013057565b9181601f840112156101305782359167ffffffffffffffff8311610130576020808501948460061b01011161013057565b90604060031983011261013057600435916024359067ffffffffffffffff821161013057610eaf91600401610e4e565b9091565b610180810190811067ffffffffffffffff821117610ed057604052565b634e487b7160e01b600052604160045260246000fd5b90601f8019910116810190811067ffffffffffffffff821117610ed057604052565b600091818352602090600582526040918285205480610fe2575060018152828520828652815282852083519084820182811067ffffffffffffffff821117610fce578552549065ffffffffffff90818316808252828583019460301c16845215610fbd57518116431115610fb457439151161015610faa57610f898461143f565b93855260028152828520918552529091205410610fa557600390565b600190565b5050505050600190565b50505050505090565b855163eb24c39f60e01b8152600490fd5b634e487b7160e01b88526041600452602488fd5b9350509290505014600014610ff657600490565b600290565b5190811515820361013057565b51906001600160a01b038216820361013057565b80929103916103a08312610130576101208312610130576040805167ffffffffffffffff929190610120810184811182821017610ed057825282518152602083015160208201528183015182820152606083015160608201526080830151608082015260a083015160a082015260c083015160c082015260e083015160018060a01b03811681036101305760e08201526101008301516101008201529461011f1901610280811261013057815193610240928386019286841083851117610ed057606013610130576102a09186830190811184821017610ed05781526111056101208601610ffb565b8352610140611115868201610ffb565b9361026094858901526101609081880161112e90610ffb565b6102808a01528852610180918288015160208a01526101a09384890151908a01526101c0948589015160608b01526101e096878a0161116c90610ffb565b60808c0152610200986111808b8b01610ffb565b60a08d01526111926102208c01610ffb565b60c08d01528a016111a290610ffb565b60e08c015289016111b290610ffb565b6101008b01526111c56102808a01610ffb565b6101208b015288016111d690610ffb565b908901526111e76102c08801610ffb565b908801526111f86102e08701610ffb565b908701526112096103008601610ffb565b9086015261121a6103208501610ffb565b9085015261122b6103408401610ffb565b9084015261123c6103608301611008565b90830152610380015161022082015290565b9081602091031261013057516001600160a01b03811681036101305790565b6040519061127a82610eb3565b606061016083600080825280602083015280604083015280848301528060808301528060a08301528060c08301528060e083015280610100830152806101208301526101408201520152565b919082018092116109e957565b67ffffffffffffffff8111610ed057601f01601f191660200190565b60005b8381106113025750506000910152565b81810151838201526020016112f2565b906020808383031261013057825167ffffffffffffffff9384821161013057019061018082840312610130576040519361134b85610eb3565b82518552818301518286015260408301516040860152606083015160608601526080830151608086015260a083015160a086015261138b60c08401611008565b60c086015260e083015160e086015261010080840151908601526101206113b3818501610ffb565b908601526101406113c5818501610ffb565b908601526101609283810151918211610130570183601f82011215610130578051906113f0826112d3565b946113fe6040519687610ee6565b828652838383010111610130578261141993860191016112ef565b82015290565b8115611429570490565b634e487b7160e01b600052601260045260246000fd5b60408051638776c49960e01b815260048082019390935290916001600160a01b0391602491906103a090818185817f000000000000000000000000000000000000000000000000000000000000000089165afa9182156115ed5790610200929160009261168e575b5050019383855116948151908163975057e760e01b97888252818660209586935afa9081156116835792809291889594600091611666575b50878684511686519a8b93849263f1bea54f60e01b84528b840152165afa96871561165b57600097611629575b5061151561126d565b50600097885b8881106115315750505050505050505060011c90565b8684878551168751928380928782525afa9081156115ed5760009161160c575b508684511690600183018093116115f857899160648a8a600094878c5197889687956364faa15960e01b8752860152840152856044840152165afa9081156115ed576000916115d4575b50856060820151910151101561151b5798633b9aca0081018091116115c0579861151b565b87601188634e487b7160e01b600052526000fd5b6115e7913d8091833e610b088183610ee6565b3861159b565b86513d6000823e3d90fd5b8960118a634e487b7160e01b600052526000fd5b6116239150853d8711610b3e57610b308183610ee6565b38611551565b90968282813d8311611654575b6116408183610ee6565b81010312611651575051953861150c565b80fd5b503d611636565b83513d6000823e3d90fd5b61167d9150823d8411610b3e57610b308183610ee6565b386114df565b84513d6000823e3d90fd5b6116a49250803d10610669576106558183610ee6565b905038806114a7565b60408051638776c49960e01b8152600480820193909352600095946001600160a01b039493602492889291906103a090818187817f00000000000000000000000000000000000000000000000000000000000000008d165afa918215611923579061020092918692611904575b5050019087825116928651809463975057e760e01b8252818460209788935afa9081156118dd578a939291869188916118e7575b5088858751168b519d8e93849263f1bea54f60e01b845288840152165afa998a156118dd57869a6118aa575b50855b8a8110611791575050505050505050505050565b60018101809111611898578385511689519063ea1c1b2560e01b8252858c1685830152828a830152878260648160449488868301525afa91821561185f578992611869575b50816117e4575b505061177d565b87839f9385928c918e8a8c51169051958694859363d9119f5f60e01b85528c8501528301525afa90811561185f57899161182c575b5061182391611ac3565b019b38806117dd565b90508781813d8311611858575b6118438183610ee6565b810103126118545751611823611819565b8880fd5b503d611839565b8b513d8b823e3d90fd5b9091508781813d8311611891575b6118818183610ee6565b81010312611854575190386117d6565b503d611877565b634e487b7160e01b8752601183528787fd5b9099508481813d83116118d6575b6118c28183610ee6565b810103126118d25751983861177a565b8580fd5b503d6118b8565b88513d88823e3d90fd5b6118fe9150823d8411610b3e57610b308183610ee6565b3861174e565b61191a9250803d10610669576106558183610ee6565b9050388061171a565b87513d87823e3d90fd5b919081101561193d5760061b0190565b634e487b7160e01b600052603260045260246000fd5b9190808252602080920192916000905b828210611971575050505090565b83358552838101358582015260409485019490930192600190910190611963565b906119cc906119be60405193849263fadd72b760e01b6020850152602060248501526044840191611953565b03601f198101835282610ee6565b90565b906020916119e8815180928185528580860191016112ef565b601f01601f1916010190565b90611a216119be91604051928391602083019560018060a01b0316865260408084015260608301906119cf565b51902090565b6000546001600160a01b03163303611a3b57565b606460405162461bcd60e51b815260206004820152602060248201527f4f776e61626c653a2063616c6c6572206973206e6f7420746865206f776e65726044820152fd5b90919015611a8b575090565b815115611a9b5750805190602001fd5b60405162461bcd60e51b815260206004820152908190611abf9060248301906119cf565b0390fd5b90633b9aca00906000198383099280830292838086109503948086039514611b5e5782851015611b4057908291096001821901821680920460028082600302188083028203028083028203028083028203028083028203028083028203028092029003029360018380600003040190848311900302920304170290565b6044858460405191631dcf306360e21b835260048301526024820152fd5b5050906119cc925061141f56fea26469706673582212203535c8b3a116bb6a459f58acbfac5f4f6c59d308aa924a74eee151ef19a3564164736f6c63430008140033",
    "linkReferences": {}
  },
  "methodIdentifiers": {
    "MAX_ATTESTATION_POWER_TIER()": "517a6180",
    "attestToScorecardFrom(uint256,uint256)": "25116429",
    "attestationCountOf(uint256,uint256)": "d826e899",
    "attestationGracePeriodOf(uint256)": "91fb2e98",
    "attestationStartTimeOf(uint256)": "222e143b",
    "controller()": "f77c4791",
    "defaultAttestationDelegateProposalOf(uint256)": "f80c73a1",
    "getAttestationWeight(uint256,address,uint256)": "3d0908b4",
    "hasAttestedTo(uint256,uint256,address)": "92347991",
    "initializeGame(uint256,uint256,uint256)": "c543882f",
    "owner()": "8da5cb5b",
    "quorum(uint256)": "f8ce560a",
    "ratifiedScorecardIdOf(uint256)": "f0a92a1e",
    "ratifyScorecardFrom(uint256,(uint256,uint256)[])": "ce1e82d5",
    "renounceOwnership()": "715018a6",
    "scorecardIdOf(address,(uint256,uint256)[])": "deec0bb0",
    "stateOf(uint256,uint256)": "f94633fb",
    "submitScorecardFor(uint256,(uint256,uint256)[])": "b7e8f6da",
    "transferOwnership(address)": "f2fde38b"
  },
  "id": 2
}