{
  "abi": [
    {
      "inputs": [
        {
          "internalType": "uint256",
          "name": "__blockTime",
          "type": "uint256"
        }
      ],
      "stateMutability": "nonpayable",
      "type": "constructor"
    },
    {
      "inputs": [],
      "name": "ALREADY_RATIFIED",
      "type": "error"
    },
    {
      "inputs": [],
      "name": "DISABLED",
      "type": "error"
    },
    {
      "inputs": [],
      "name": "Empty",
      "type": "error"
    },
    {
      "inputs": [],
      "name": "INCORRECT_TIER_ORDER",
      "type": "error"
    },
    {
      "inputs": [
        {
          "internalType": "uint256",
          "name": "prod1",
          "type": "uint256"
        },
        {
          "internalType": "uint256",
          "name": "denominator",
          "type": "uint256"
        }
      ],
      "name": "PRBMath__MulDivOverflow",
      "type": "error"
    },
    {
      "inputs": [],
      "name": "UNOWNED_PROPOSED_REDEMPTION_VALUE",
      "type": "error"
    },
    {
      "anonymous": false,
      "inputs": [
        {
          "indexed": false,
          "internalType": "uint256",
          "name": "proposalId",
          "type": "uint256"
        }
      ],
      "name": "ProposalCanceled",
      "type": "event"
    },
    {
      "anonymous": false,
      "inputs": [
        {
          "indexed": false,
          "internalType": "uint256",
          "name": "proposalId",
          "type": "uint256"
        },
        {
          "indexed": false,
          "internalType": "address",
          "name": "proposer",
          "type": "address"
        },
        {
          "indexed": false,
          "internalType": "address[]",
          "name": "targets",
          "type": "address[]"
        },
        {
          "indexed": false,
          "internalType": "uint256[]",
          "name": "values",
          "type": "uint256[]"
        },
        {
          "indexed": false,
          "internalType": "string[]",
          "name": "signatures",
          "type": "string[]"
        },
        {
          "indexed": false,
          "internalType": "bytes[]",
          "name": "calldatas",
          "type": "bytes[]"
        },
        {
          "indexed": false,
          "internalType": "uint256",
          "name": "startBlock",
          "type": "uint256"
        },
        {
          "indexed": false,
          "internalType": "uint256",
          "name": "endBlock",
          "type": "uint256"
        },
        {
          "indexed": false,
          "internalType": "string",
          "name": "description",
          "type": "string"
        }
      ],
      "name": "ProposalCreated",
      "type": "event"
    },
    {
      "anonymous": false,
      "inputs": [
        {
          "indexed": false,
          "internalType": "uint256",
          "name": "proposalId",
          "type": "uint256"
        }
      ],
      "name": "ProposalExecuted",
      "type": "event"
    },
    {
      "anonymous": false,
      "inputs": [
        {
          "indexed": false,
          "internalType": "uint256",
          "name": "proposalId",
          "type": "uint256"
        },
        {
          "components": [
            {
              "internalType": "uint256",
              "name": "id",
              "type": "uint256"
            },
            {
              "internalType": "uint256",
              "name": "redemptionWeight",
              "type": "uint256"
            }
          ],
          "indexed": false,
          "internalType": "struct DefifaTierRedemptionWeight[]",
          "name": "tierWeights",
          "type": "tuple[]"
        },
        {
          "indexed": false,
          "internalType": "bool",
          "name": "isDefaultVotingDelegate",
          "type": "bool"
        },
        {
          "indexed": false,
          "internalType": "address",
          "name": "caller",
          "type": "address"
        }
      ],
      "name": "ScorecardSubmitted",
      "type": "event"
    },
    {
      "anonymous": false,
      "inputs": [
        {
          "indexed": true,
          "internalType": "address",
          "name": "voter",
          "type": "address"
        },
        {
          "indexed": false,
          "internalType": "uint256",
          "name": "proposalId",
          "type": "uint256"
        },
        {
          "indexed": false,
          "internalType": "uint8",
          "name": "support",
          "type": "uint8"
        },
        {
          "indexed": false,
          "internalType": "uint256",
          "name": "weight",
          "type": "uint256"
        },
        {
          "indexed": false,
          "internalType": "string",
          "name": "reason",
          "type": "string"
        }
      ],
      "name": "VoteCast",
      "type": "event"
    },
    {
      "anonymous": false,
      "inputs": [
        {
          "indexed": true,
          "internalType": "address",
          "name": "voter",
          "type": "address"
        },
        {
          "indexed": false,
          "internalType": "uint256",
          "name": "proposalId",
          "type": "uint256"
        },
        {
          "indexed": false,
          "internalType": "uint8",
          "name": "support",
          "type": "uint8"
        },
        {
          "indexed": false,
          "internalType": "uint256",
          "name": "weight",
          "type": "uint256"
        },
        {
          "indexed": false,
          "internalType": "string",
          "name": "reason",
          "type": "string"
        },
        {
          "indexed": false,
          "internalType": "bytes",
          "name": "params",
          "type": "bytes"
        }
      ],
      "name": "VoteCastWithParams",
      "type": "event"
    },
    {
      "inputs": [],
      "name": "BALLOT_TYPEHASH",
      "outputs": [
        {
          "internalType": "bytes32",
          "name": "",
          "type": "bytes32"
        }
      ],
      "stateMutability": "view",
      "type": "function"
    },
    {
      "inputs": [],
      "name": "COUNTING_MODE",
      "outputs": [
        {
          "internalType": "string",
          "name": "",
          "type": "string"
        }
      ],
      "stateMutability": "pure",
      "type": "function"
    },
    {
      "inputs": [],
      "name": "EXTENDED_BALLOT_TYPEHASH",
      "outputs": [
        {
          "internalType": "bytes32",
          "name": "",
          "type": "bytes32"
        }
      ],
      "stateMutability": "view",
      "type": "function"
    },
    {
      "inputs": [],
      "name": "MAX_VOTING_POWER_TIER",
      "outputs": [
        {
          "internalType": "uint256",
          "name": "",
          "type": "uint256"
        }
      ],
      "stateMutability": "view",
      "type": "function"
    },
    {
      "inputs": [
        {
          "internalType": "uint256",
          "name": "_scorecardId",
          "type": "uint256"
        }
      ],
      "name": "attestToScorecard",
      "outputs": [],
      "stateMutability": "nonpayable",
      "type": "function"
    },
    {
      "inputs": [
        {
          "internalType": "uint256",
          "name": "_scorecardId",
          "type": "uint256"
        },
        {
          "internalType": "bytes",
          "name": "params",
          "type": "bytes"
        }
      ],
      "name": "attestToScorecardWithReasonAndParams",
      "outputs": [],
      "stateMutability": "nonpayable",
      "type": "function"
    },
    {
      "inputs": [
        {
          "internalType": "uint256",
          "name": "proposalId",
          "type": "uint256"
        },
        {
          "internalType": "uint8",
          "name": "support",
          "type": "uint8"
        }
      ],
      "name": "castVote",
      "outputs": [
        {
          "internalType": "uint256",
          "name": "",
          "type": "uint256"
        }
      ],
      "stateMutability": "nonpayable",
      "type": "function"
    },
    {
      "inputs": [
        {
          "internalType": "uint256",
          "name": "proposalId",
          "type": "uint256"
        },
        {
          "internalType": "uint8",
          "name": "support",
          "type": "uint8"
        },
        {
          "internalType": "uint8",
          "name": "v",
          "type": "uint8"
        },
        {
          "internalType": "bytes32",
          "name": "r",
          "type": "bytes32"
        },
        {
          "internalType": "bytes32",
          "name": "s",
          "type": "bytes32"
        }
      ],
      "name": "castVoteBySig",
      "outputs": [
        {
          "internalType": "uint256",
          "name": "",
          "type": "uint256"
        }
      ],
      "stateMutability": "nonpayable",
      "type": "function"
    },
    {
      "inputs": [
        {
          "internalType": "uint256",
          "name": "proposalId",
          "type": "uint256"
        },
        {
          "internalType": "uint8",
          "name": "support",
          "type": "uint8"
        },
        {
          "internalType": "string",
          "name": "reason",
          "type": "string"
        }
      ],
      "name": "castVoteWithReason",
      "outputs": [
        {
          "internalType": "uint256",
          "name": "",
          "type": "uint256"
        }
      ],
      "stateMutability": "nonpayable",
      "type": "function"
    },
    {
      "inputs": [
        {
          "internalType": "uint256",
          "name": "proposalId",
          "type": "uint256"
        },
        {
          "internalType": "uint8",
          "name": "support",
          "type": "uint8"
        },
        {
          "internalType": "string",
          "name": "reason",
          "type": "string"
        },
        {
          "internalType": "bytes",
          "name": "params",
          "type": "bytes"
        }
      ],
      "name": "castVoteWithReasonAndParams",
      "outputs": [
        {
          "internalType": "uint256",
          "name": "",
          "type": "uint256"
        }
      ],
      "stateMutability": "nonpayable",
      "type": "function"
    },
    {
      "inputs": [
        {
          "internalType": "uint256",
          "name": "proposalId",
          "type": "uint256"
        },
        {
          "internalType": "uint8",
          "name": "support",
          "type": "uint8"
        },
        {
          "internalType": "string",
          "name": "reason",
          "type": "string"
        },
        {
          "internalType": "bytes",
          "name": "params",
          "type": "bytes"
        },
        {
          "internalType": "uint8",
          "name": "v",
          "type": "uint8"
        },
        {
          "internalType": "bytes32",
          "name": "r",
          "type": "bytes32"
        },
        {
          "internalType": "bytes32",
          "name": "s",
          "type": "bytes32"
        }
      ],
      "name": "castVoteWithReasonAndParamsBySig",
      "outputs": [
        {
          "internalType": "uint256",
          "name": "",
          "type": "uint256"
        }
      ],
      "stateMutability": "nonpayable",
      "type": "function"
    },
    {
      "inputs": [],
      "name": "codeOrigin",
      "outputs": [
        {
          "internalType": "address",
          "name": "",
          "type": "address"
        }
      ],
      "stateMutability": "view",
      "type": "function"
    },
    {
      "inputs": [],
      "name": "defaultVotingDelegateProposal",
      "outputs": [
        {
          "internalType": "uint256",
          "name": "",
          "type": "uint256"
        }
      ],
      "stateMutability": "view",
      "type": "function"
    },
    {
      "inputs": [],
      "name": "delegate",
      "outputs": [
        {
          "internalType": "contract IDefifaDelegate",
          "name": "",
          "type": "address"
        }
      ],
      "stateMutability": "view",
      "type": "function"
    },
    {
      "inputs": [
        {
          "internalType": "address[]",
          "name": "_targets",
          "type": "address[]"
        },
        {
          "internalType": "uint256[]",
          "name": "_values",
          "type": "uint256[]"
        },
        {
          "internalType": "bytes[]",
          "name": "_calldatas",
          "type": "bytes[]"
        },
        {
          "internalType": "bytes32",
          "name": "_descriptionHash",
          "type": "bytes32"
        }
      ],
      "name": "execute",
      "outputs": [
        {
          "internalType": "uint256",
          "name": "",
          "type": "uint256"
        }
      ],
      "stateMutability": "payable",
      "type": "function"
    },
    {
      "inputs": [
        {
          "internalType": "address",
          "name": "account",
          "type": "address"
        },
        {
          "internalType": "uint256",
          "name": "blockNumber",
          "type": "uint256"
        }
      ],
      "name": "getVotes",
      "outputs": [
        {
          "internalType": "uint256",
          "name": "",
          "type": "uint256"
        }
      ],
      "stateMutability": "view",
      "type": "function"
    },
    {
      "inputs": [
        {
          "internalType": "address",
          "name": "account",
          "type": "address"
        },
        {
          "internalType": "uint256",
          "name": "blockNumber",
          "type": "uint256"
        },
        {
          "internalType": "bytes",
          "name": "params",
          "type": "bytes"
        }
      ],
      "name": "getVotesWithParams",
      "outputs": [
        {
          "internalType": "uint256",
          "name": "",
          "type": "uint256"
        }
      ],
      "stateMutability": "view",
      "type": "function"
    },
    {
      "inputs": [
        {
          "internalType": "uint256",
          "name": "proposalId",
          "type": "uint256"
        },
        {
          "internalType": "address",
          "name": "account",
          "type": "address"
        }
      ],
      "name": "hasVoted",
      "outputs": [
        {
          "internalType": "bool",
          "name": "",
          "type": "bool"
        }
      ],
      "stateMutability": "view",
      "type": "function"
    },
    {
      "inputs": [
        {
          "internalType": "address[]",
          "name": "targets",
          "type": "address[]"
        },
        {
          "internalType": "uint256[]",
          "name": "values",
          "type": "uint256[]"
        },
        {
          "internalType": "bytes[]",
          "name": "calldatas",
          "type": "bytes[]"
        },
        {
          "internalType": "bytes32",
          "name": "descriptionHash",
          "type": "bytes32"
        }
      ],
      "name": "hashProposal",
      "outputs": [
        {
          "internalType": "uint256",
          "name": "",
          "type": "uint256"
        }
      ],
      "stateMutability": "pure",
      "type": "function"
    },
    {
      "inputs": [
        {
          "internalType": "contract IDefifaDelegate",
          "name": "_delegate",
          "type": "address"
        },
        {
          "internalType": "uint256",
          "name": "_votingStartTime",
          "type": "uint256"
        },
        {
          "internalType": "uint256",
          "name": "_votingPeriod",
          "type": "uint256"
        }
      ],
      "name": "initialize",
      "outputs": [],
      "stateMutability": "nonpayable",
      "type": "function"
    },
    {
      "inputs": [],
      "name": "name",
      "outputs": [
        {
          "internalType": "string",
          "name": "",
          "type": "string"
        }
      ],
      "stateMutability": "view",
      "type": "function"
    },
    {
      "inputs": [
        {
          "internalType": "address",
          "name": "",
          "type": "address"
        },
        {
          "internalType": "address",
          "name": "",
          "type": "address"
        },
        {
          "internalType": "uint256[]",
          "name": "",
          "type": "uint256[]"
        },
        {
          "internalType": "uint256[]",
          "name": "",
          "type": "uint256[]"
        },
        {
          "internalType": "bytes",
          "name": "",
          "type": "bytes"
        }
      ],
      "name": "onERC1155BatchReceived",
      "outputs": [
        {
          "internalType": "bytes4",
          "name": "",
          "type": "bytes4"
        }
      ],
      "stateMutability": "nonpayable",
      "type": "function"
    },
    {
      "inputs": [
        {
          "internalType": "address",
          "name": "",
          "type": "address"
        },
        {
          "internalType": "address",
          "name": "",
          "type": "address"
        },
        {
          "internalType": "uint256",
          "name": "",
          "type": "uint256"
        },
        {
          "internalType": "uint256",
          "name": "",
          "type": "uint256"
        },
        {
          "internalType": "bytes",
          "name": "",
          "type": "bytes"
        }
      ],
      "name": "onERC1155Received",
      "outputs": [
        {
          "internalType": "bytes4",
          "name": "",
          "type": "bytes4"
        }
      ],
      "stateMutability": "nonpayable",
      "type": "function"
    },
    {
      "inputs": [
        {
          "internalType": "address",
          "name": "",
          "type": "address"
        },
        {
          "internalType": "address",
          "name": "",
          "type": "address"
        },
        {
          "internalType": "uint256",
          "name": "",
          "type": "uint256"
        },
        {
          "internalType": "bytes",
          "name": "",
          "type": "bytes"
        }
      ],
      "name": "onERC721Received",
      "outputs": [
        {
          "internalType": "bytes4",
          "name": "",
          "type": "bytes4"
        }
      ],
      "stateMutability": "nonpayable",
      "type": "function"
    },
    {
      "inputs": [
        {
          "internalType": "uint256",
          "name": "proposalId",
          "type": "uint256"
        }
      ],
      "name": "proposalDeadline",
      "outputs": [
        {
          "internalType": "uint256",
          "name": "",
          "type": "uint256"
        }
      ],
      "stateMutability": "view",
      "type": "function"
    },
    {
      "inputs": [
        {
          "internalType": "uint256",
          "name": "proposalId",
          "type": "uint256"
        }
      ],
      "name": "proposalSnapshot",
      "outputs": [
        {
          "internalType": "uint256",
          "name": "",
          "type": "uint256"
        }
      ],
      "stateMutability": "view",
      "type": "function"
    },
    {
      "inputs": [],
      "name": "proposalThreshold",
      "outputs": [
        {
          "internalType": "uint256",
          "name": "",
          "type": "uint256"
        }
      ],
      "stateMutability": "pure",
      "type": "function"
    },
    {
      "inputs": [
        {
          "internalType": "uint256",
          "name": "proposalId",
          "type": "uint256"
        }
      ],
      "name": "proposalVotes",
      "outputs": [
        {
          "internalType": "uint256",
          "name": "againstVotes",
          "type": "uint256"
        },
        {
          "internalType": "uint256",
          "name": "forVotes",
          "type": "uint256"
        },
        {
          "internalType": "uint256",
          "name": "abstainVotes",
          "type": "uint256"
        }
      ],
      "stateMutability": "view",
      "type": "function"
    },
    {
      "inputs": [
        {
          "internalType": "address[]",
          "name": "_targets",
          "type": "address[]"
        },
        {
          "internalType": "uint256[]",
          "name": "_values",
          "type": "uint256[]"
        },
        {
          "internalType": "bytes[]",
          "name": "_calldatas",
          "type": "bytes[]"
        },
        {
          "internalType": "string",
          "name": "_description",
          "type": "string"
        }
      ],
      "name": "propose",
      "outputs": [
        {
          "internalType": "uint256",
          "name": "",
          "type": "uint256"
        }
      ],
      "stateMutability": "nonpayable",
      "type": "function"
    },
    {
      "inputs": [
        {
          "internalType": "uint256",
          "name": "",
          "type": "uint256"
        }
      ],
      "name": "quorum",
      "outputs": [
        {
          "internalType": "uint256",
          "name": "",
          "type": "uint256"
        }
      ],
      "stateMutability": "view",
      "type": "function"
    },
    {
      "inputs": [],
      "name": "ratifiedProposal",
      "outputs": [
        {
          "internalType": "uint256",
          "name": "",
          "type": "uint256"
        }
      ],
      "stateMutability": "view",
      "type": "function"
    },
    {
      "inputs": [
        {
          "components": [
            {
              "internalType": "uint256",
              "name": "id",
              "type": "uint256"
            },
            {
              "internalType": "uint256",
              "name": "redemptionWeight",
              "type": "uint256"
            }
          ],
          "internalType": "struct DefifaTierRedemptionWeight[]",
          "name": "_tierWeights",
          "type": "tuple[]"
        }
      ],
      "name": "ratifyScorecard",
      "outputs": [
        {
          "internalType": "uint256",
          "name": "proposalId",
          "type": "uint256"
        }
      ],
      "stateMutability": "nonpayable",
      "type": "function"
    },
    {
      "inputs": [
        {
          "internalType": "address",
          "name": "target",
          "type": "address"
        },
        {
          "internalType": "uint256",
          "name": "value",
          "type": "uint256"
        },
        {
          "internalType": "bytes",
          "name": "data",
          "type": "bytes"
        }
      ],
      "name": "relay",
      "outputs": [],
      "stateMutability": "payable",
      "type": "function"
    },
    {
      "inputs": [
        {
          "internalType": "uint256",
          "name": "_proposalId",
          "type": "uint256"
        }
      ],
      "name": "state",
      "outputs": [
        {
          "internalType": "enum IGovernor.ProposalState",
          "name": "",
          "type": "uint8"
        }
      ],
      "stateMutability": "view",
      "type": "function"
    },
    {
      "inputs": [
        {
          "components": [
            {
              "internalType": "uint256",
              "name": "id",
              "type": "uint256"
            },
            {
              "internalType": "uint256",
              "name": "redemptionWeight",
              "type": "uint256"
            }
          ],
          "internalType": "struct DefifaTierRedemptionWeight[]",
          "name": "_tierWeights",
          "type": "tuple[]"
        }
      ],
      "name": "submitScorecard",
      "outputs": [
        {
          "internalType": "uint256",
          "name": "proposalId",
          "type": "uint256"
        }
      ],
      "stateMutability": "nonpayable",
      "type": "function"
    },
    {
      "inputs": [
        {
          "internalType": "bytes4",
          "name": "_interfaceId",
          "type": "bytes4"
        }
      ],
      "name": "supportsInterface",
      "outputs": [
        {
          "internalType": "bool",
          "name": "",
          "type": "bool"
        }
      ],
      "stateMutability": "view",
      "type": "function"
    },
    {
      "inputs": [],
      "name": "version",
      "outputs": [
        {
          "internalType": "string",
          "name": "",
          "type": "string"
        }
      ],
      "stateMutability": "view",
      "type": "function"
    },
    {
      "inputs": [],
      "name": "votingDelay",
      "outputs": [
        {
          "internalType": "uint256",
          "name": "",
          "type": "uint256"
        }
      ],
      "stateMutability": "view",
      "type": "function"
    },
    {
      "inputs": [],
      "name": "votingPeriod",
      "outputs": [
        {
          "internalType": "uint256",
          "name": "",
          "type": "uint256"
        }
      ],
      "stateMutability": "view",
      "type": "function"
    },
    {
      "inputs": [],
      "name": "votingStartTime",
      "outputs": [
        {
          "internalType": "uint256",
          "name": "",
          "type": "uint256"
        }
      ],
      "stateMutability": "view",
      "type": "function"
    },
    {
      "stateMutability": "payable",
      "type": "receive"
    }
  ],
  "bytecode": {
    "object": "0x61018034620002d4576001600160401b03601f196200339138819003601f81018316850192919085841085851117620002be5780869260409586528339602095869181010312620002d45751908251906200005a82620002d9565b600e8252858201946d2232b334b330a3b7bb32b93737b960911b86528685516200008481620002d9565b60019181838093520197603160f81b8952855190209720978760e05261010098808a524660a0528751828101917f8b73c3c69bb8fe3d512ecc4cf759cc79239f7b179b0ffacaa9a75d522b39400f9a8b84528a83015260608201524660808201523060a082015260a0815260c0810181811086821117620002be5789525190206080523060c0526101209788528451928311620002be5760009485548381811c91168015620002b3575b838210146200029f57601f811162000254575b5081601f8511600114620001ee5750839450908392918694620001e2575b50501b916000199060031b1c19161790555b61016091308352610140918252519261309b9485620002f6863960805185612e4a015260a05185612eff015260c05185612e1b015260e05185612e9901525184612ebf01525183612e76015251828181610539015281816118bd015261206a015251818181610f5901526115e60152f35b0151925038806200015f565b9294849081168780528488209488905b888383106200023957505050106200021f575b505050811b01905562000171565b015160001960f88460031b161c1916905538808062000211565b858701518855909601959485019487935090810190620001fe565b868052828720601f860160051c81019184871062000294575b601f0160051c019084905b8281106200028857505062000141565b88815501849062000278565b90915081906200026d565b634e487b7160e01b87526022600452602487fd5b90607f16906200012e565b634e487b7160e01b600052604160045260246000fd5b600080fd5b604081019081106001600160401b03821117620002be5760405256fe608080604052600436101561001d575b50361561001b57600080fd5b005b60003560e01c90816301ffc9a7146118e25750806302a251a3146118a2578063034201811461179e57806306fdde0314611694578063150b7a021461162657806319f825361461160a5780631d153ca4146115c65780632019a608146115a85780632656227d146115715780632d63f6931461153d5780632fe3e261146115025780633932abb1146114e75780633bccf4fd1461142b5780633e4f49e6146113fc57806343859632146113ab5780634b501fbd1461138c578063544ffc9c1461134957806354fd4d50146112eb57806356781388146112b557806356e258a5146112975780635f398a141461122757806364d87a6114610fbd5780637a1ac61e14610f305780637b3c71d314610ed55780637c8bd0ed14610e885780637d5e81e214610dcf5780639a802a6d14610d90578063b58131b014610d74578063bc197c8114610cd3578063c01f9e3714610c92578063c28bc2fa14610b89578063c59057e414610b6d578063c89e436114610b46578063d1fb9e0a14610b28578063d8844e2f14610440578063dd4e2ba5146103de578063deaaa7cc146103a3578063eb9019d41461036b578063f23a6e61146102fd5763f8ce560a146101e2573861000f565b346102b3576020806003193601126102b3576001600160a01b0380600654166040519063975057e760e01b82528382600481845afa9081156102bf5784926000926102cb575b50602490604051948593849263f1bea54f60e01b84526004840152165afa9081156102bf5760009161028d575b5060011c633b9aca009081810291818304149015171561027757604051908152f35b634e487b7160e01b600052601160045260246000fd5b90508181813d83116102b8575b6102a48183611af5565b810103126102b3575138610255565b600080fd5b503d61029a565b6040513d6000823e3d90fd5b60249192506102ef90843d86116102f6575b6102e78183611af5565b81019061208f565b9190610228565b503d6102dd565b346102b35760a06003193601126102b357610316611bd1565b5061031f611be7565b5060843567ffffffffffffffff81116102b357610340903690600401611b6b565b5060206040517ff23a6e61000000000000000000000000000000000000000000000000000000008152f35b346102b35760406003193601126102b357602061039b610389611bd1565b610391612272565b90602435906125c5565b604051908152f35b346102b35760006003193601126102b35760206040517f150214d74d59b7d1e90c73fc22ef3d991dd0a76b046543d4d80ab92d2a50328f8152f35b346102b35760006003193601126102b35761043c6040516103fe81611abd565b602081527f737570706f72743d627261766f2671756f72756d3d666f722c6162737461696e6020820152604051918291602083526020830190611bac565b0390f35b346102b35761044e36611dc5565b90600954610afe576006546001600160a01b031660005b8381106108ac5750506104788282612155565b6040939291935161048881611a85565b600081526000194301438111610277576104ab906104a4612272565b90336125c5565b506104be8151602083012083878661246d565b946104cc84518251146124f9565b6104d984518451146124f9565b83511561086857856000526001602052604060002067ffffffffffffffff9182610502836124d1565b51166107fe5761052a61051443612f25565b61052461051f61204c565b612f25565b9061256a565b9461056461055e61051f6005547f00000000000000000000000000000000000000000000000000000000000000009061202c565b8761256a565b9260017fffffffffffffffffffffffffffffffffffffffffffffffff000000000000000091868916838254161781550190858516908254161790558651916105c46105ae84611bfd565b936105bc6040519586611af5565b808552611bfd565b60005b601f19820181106107e8575050610607906105f9604051998c8b523360208c01526101208060408d01528b01906123d4565b9089820360608b015261223e565b8781036080890152825180825260208201916020808360051b8301019501926000915b8383106107bb57505050505092869592816106738461068e978a7f7d84a6263ae0d98d3329bd7b46bb4e8d6f98cd35a7adb45c274c8b7fd5ebd5e09c9a970360a08b0152612411565b941660c08701521660e0850152838203610100850152611bac565b0390a1600460206001600160a01b0360065416604051928380927f174e3e050000000000000000000000000000000000000000000000000000000082525afa9081156102bf57600091610750575b50906020936001600160a01b037f3d4a25cde9b27ef1284f243f985636582a92327dbbb0f27bf8d8d02026cf75cf9316331480610747575b61073060405193849387855260808986015260808501916120f5565b9060408301523360608301520390a1604051908152f35b84600855610714565b9190506020823d6020116107b3575b8161076c60209383611af5565b810103126102b3576020936001600160a01b036107a97f3d4a25cde9b27ef1284f243f985636582a92327dbbb0f27bf8d8d02026cf75cf946120d4565b92935050936106dc565b3d915061075f565b90919293956020806107d983601f1986600196030187528a51611bac565b9801930193019193929061062a565b602081606082601f1994890101520190506105c7565b608460405162461bcd60e51b815260206004820152602160248201527f476f7665726e6f723a2070726f706f73616c20616c726561647920657869737460448201527f73000000000000000000000000000000000000000000000000000000000000006064820152fd5b606460405162461bcd60e51b815260206004820152601860248201527f476f7665726e6f723a20656d7074792070726f706f73616c00000000000000006044820152fd5b60405163975057e760e01b81526020908181600481875afa80156102bf576001600160a01b0391600091610ae1575b5060006108e98589896120ae565b35916064604051809581937f64faa1590000000000000000000000000000000000000000000000000000000083528a600484015260249687840152856044840152165afa9182156102bf5760009261099e575b505060406060820151910151149081610987575b5061095d57600101610465565b60046040517fd1f78be3000000000000000000000000000000000000000000000000000000008152fd5b90506109948286866120ae565b0135151585610950565b9091503d806000833e6109b18183611af5565b81019083818303126102b357805167ffffffffffffffff918282116102b35701906101809384838503126102b3576040519485019085821083831117610acd575060405281518452848201518585015260408201516040850152606080830151908501526080808301519085015260a0808301519085015260c0610a368184016120d4565b9085015260e082015160e08501526101008083015190850152610120610a5d8184016120e8565b90850152610140610a6f8184016120e8565b9085015261016091828101519182116102b3570182601f820112156102b3578051610a9981611b18565b93610aa76040519586611af5565b8185528682840101116102b357610ac391868086019101611b89565b820152868061093c565b634e487b7160e01b60005260416004526000fd5b610af89150833d85116102f6576102e78183611af5565b876108db565b60046040517fe63e1225000000000000000000000000000000000000000000000000000000008152fd5b346102b35760006003193601126102b3576020600954604051908152f35b346102b35760006003193601126102b35760206001600160a01b0360065416604051908152f35b346102b357602061039b610b8036611d62565b9291909161246d565b60606003193601126102b357610b9d611bd1565b60443567ffffffffffffffff81116102b357610bbd903690600401611a25565b90303303610c4e5760008383829361001b95604051928392833781018481520391602435905af1610bec612595565b60405191610bf983611ad9565b602883527f476f7665726e6f723a2072656c617920726576657274656420776974686f757460208401527f206d6573736167650000000000000000000000000000000000000000000000006040840152612bd6565b606460405162461bcd60e51b815260206004820152601860248201527f476f7665726e6f723a206f6e6c79476f7665726e616e636500000000000000006044820152fd5b346102b35760206003193601126102b3576004356000526001602052602067ffffffffffffffff610cc960016040600020016124d1565b5116604051908152f35b346102b35760a06003193601126102b357610cec611bd1565b50610cf5611be7565b5067ffffffffffffffff6044358181116102b357610d17903690600401611c83565b506064358181116102b357610d30903690600401611c83565b506084359081116102b357610d49903690600401611b6b565b5060206040517fbc197c81000000000000000000000000000000000000000000000000000000008152f35b346102b35760006003193601126102b357602060405160008152f35b346102b35760606003193601126102b357610da9611bd1565b60443567ffffffffffffffff81116102b35760209161039161039b923690600401611b6b565b346102b35760806003193601126102b35767ffffffffffffffff6004358181116102b357610e01903690600401611c15565b506024358181116102b357610e1a903690600401611c83565b506044358181116102b357610e33903690600401611ce1565b506064359081116102b357366023820112156102b357610e5d903690602481600401359101611b34565b5060046040517facb78998000000000000000000000000000000000000000000000000000000008152fd5b346102b35760406003193601126102b35760243567ffffffffffffffff81116102b357610ebc61001b913690600401611b6b565b604051610ec881611a85565b60008152336004356127fc565b346102b35760606003193601126102b357610eee611a15565b60443567ffffffffffffffff81116102b357602091610f1e610f1761039b933690600401611a25565b3691611b34565b610f26612272565b9133600435612a2f565b346102b35760606003193601126102b3576004356001600160a01b038082168092036102b357807f00000000000000000000000000000000000000000000000000000000000000001630146102b3576006549081166102b3577fffffffffffffffffffffffff00000000000000000000000000000000000000001617600655602435600755604435600555005b346102b357610fcb36611dc5565b600954610afe57610fdb91612155565b604051926020938481019060808252611057610ffa60a08301856123d4565b82611025611015601f1993848482030160408501528a61223e565b8383820301606084015288612411565b7fc5d2460186f7233c927e7db2dcc703c0e500b653ca82273b7bfad8045d85a470608083015203908101835282611af5565b5190209261106484611e12565b60088110156112115760048114908115611206575b501561119c578360005260019283865260026040600020018460ff198254161790557f712ae1383f79ac853f8d882153778e0260ef8f03b504e2866e0593e04d2b291f86604051878152a1604051926110d184611ad9565b602784527f476f7665726e6f723a2063616c6c20726576657274656420776974686f757420878501527f6d6573736167650000000000000000000000000000000000000000000000000060408501526000855b611137575b878780600955604051908152f35b8151811015611197578061118b866000808c6001600160a01b0361115e611191988a612141565b511661116a878c612141565b51611175888c612141565b5180519301915af1611185612595565b90612bd6565b50612586565b85611124565b611129565b6084856040519062461bcd60e51b82526004820152602160248201527f476f7665726e6f723a2070726f706f73616c206e6f742073756363657373667560448201527f6c000000000000000000000000000000000000000000000000000000000000006064820152fd5b600591501486611079565b634e487b7160e01b600052602160045260246000fd5b346102b35760806003193601126102b357611240611a15565b67ffffffffffffffff906044358281116102b357611262903690600401611a25565b90916064359384116102b35761128d61039b936112856020963690600401611b6b565b933691611b34565b9033600435612a2f565b346102b35760006003193601126102b3576020600854604051908152f35b346102b35760406003193601126102b357602061039b6112d3611a15565b6040516112df81611a85565b60008152610f26612272565b346102b35760006003193601126102b35761043c60405161130b81611abd565b600181527f31000000000000000000000000000000000000000000000000000000000000006020820152604051918291602083526020830190611bac565b346102b35760206003193601126102b357600435600052600460205260606040600020805490600260018201549101549060405192835260208301526040820152f35b346102b35760006003193601126102b3576020604051633b9aca008152f35b346102b35760406003193601126102b3576113c4611be7565b60043560005260046020526001600160a01b0360036040600020019116600052602052602060ff604060002054166040519015158152f35b346102b35760206003193601126102b357611418600435611e12565b6040516008821015611211576020918152f35b346102b35760a06003193601126102b357600435611447611a15565b6044359160ff831683036102b3576114c861039b926114c0602095604051878101917f150214d74d59b7d1e90c73fc22ef3d991dd0a76b046543d4d80ab92d2a50328f835286604083015260ff85166060830152606082526114a882611aa1565b6114bb6084359360643593519020612dc5565b612d36565b929092612c1a565b604051916114d583611a85565b600083526114e1612272565b93612a2f565b346102b35760006003193601126102b357602061039b61204c565b346102b35760006003193601126102b35760206040517fb3b3f3b703cd84ce352197dcff232b1b5d3cfb2025ce47cf04742d0651f1af888152f35b346102b35760206003193601126102b3576004356000526001602052602067ffffffffffffffff610cc960406000206124d1565b61157a36611d62565b5050505060046040517facb78998000000000000000000000000000000000000000000000000000000008152fd5b346102b35760006003193601126102b3576020600754604051908152f35b346102b35760006003193601126102b35760206040516001600160a01b037f0000000000000000000000000000000000000000000000000000000000000000168152f35b346102b35760206003193601126102b35761001b610ebc612272565b346102b35760806003193601126102b35761163f611bd1565b50611648611be7565b5060643567ffffffffffffffff81116102b357611669903690600401611b6b565b5060206040517f150b7a02000000000000000000000000000000000000000000000000000000008152f35b346102b35760006003193601126102b3576040516000805490600182811c91818416918215611794575b602094858510841461177e57858794868652918260001461175e575050600114611704575b506116f092500383611af5565b61043c604051928284938452830190611bac565b6000808052859250907f290decd9548b62a8d60345a988386fc84ba6bc95484008f6362f93160ef3e5635b8583106117465750506116f09350820101856116e3565b8054838901850152879450869390920191810161172f565b60ff1916858201526116f095151560051b85010192508791506116e39050565b634e487b7160e01b600052602260045260246000fd5b92607f16926116be565b346102b35760e06003193601126102b3576004356117ba611a15565b67ffffffffffffffff906044358281116102b3576117dc903690600401611a25565b9390926064359081116102b3576117f7903690600401611b6b565b916084359460ff861686036102b35761189c61039b95610f1792611894602099611822368486611b34565b8b81519101209089518c8b012090604051918d8301937fb3b3f3b703cd84ce352197dcff232b1b5d3cfb2025ce47cf04742d0651f1af8885528b604085015260ff8b166060850152608084015260a083015260a0825261188182611a53565b6114bb60c4359360a43593519020612dc5565b949094612c1a565b92612a2f565b346102b35760006003193601126102b357602061039b6005547f00000000000000000000000000000000000000000000000000000000000000009061202c565b346102b35760206003193601126102b357600435907fffffffff0000000000000000000000000000000000000000000000000000000082168092036102b357817f9aee07540000000000000000000000000000000000000000000000000000000060209314908115611956575b5015158152f35b7fbf26d897000000000000000000000000000000000000000000000000000000008114915081156119eb575b81156119c1575b8115611997575b508361194f565b7f01ffc9a70000000000000000000000000000000000000000000000000000000091501483611990565b7f4e2312e00000000000000000000000000000000000000000000000000000000081149150611989565b7f79dd796f0000000000000000000000000000000000000000000000000000000081149150611982565b6024359060ff821682036102b357565b9181601f840112156102b35782359167ffffffffffffffff83116102b357602083818601950101116102b357565b60c0810190811067ffffffffffffffff821117611a6f57604052565b634e487b7160e01b600052604160045260246000fd5b6020810190811067ffffffffffffffff821117611a6f57604052565b6080810190811067ffffffffffffffff821117611a6f57604052565b6040810190811067ffffffffffffffff821117611a6f57604052565b6060810190811067ffffffffffffffff821117611a6f57604052565b90601f601f19910116810190811067ffffffffffffffff821117611a6f57604052565b67ffffffffffffffff8111611a6f57601f01601f191660200190565b929192611b4082611b18565b91611b4e6040519384611af5565b8294818452818301116102b3578281602093846000960137010152565b9080601f830112156102b357816020611b8693359101611b34565b90565b60005b838110611b9c5750506000910152565b8181015183820152602001611b8c565b90601f19601f602093611bca81518092818752878088019101611b89565b0116010190565b600435906001600160a01b03821682036102b357565b602435906001600160a01b03821682036102b357565b67ffffffffffffffff8111611a6f5760051b60200190565b81601f820112156102b357803591611c2c83611bfd565b92611c3a6040519485611af5565b808452602092838086019260051b8201019283116102b3578301905b828210611c64575050505090565b81356001600160a01b03811681036102b3578152908301908301611c56565b81601f820112156102b357803591611c9a83611bfd565b92611ca86040519485611af5565b808452602092838086019260051b8201019283116102b3578301905b828210611cd2575050505090565b81358152908301908301611cc4565b9080601f830112156102b357813590611cf982611bfd565b92611d076040519485611af5565b828452602092838086019160051b830101928084116102b357848301915b848310611d355750505050505090565b823567ffffffffffffffff81116102b3578691611d5784848094890101611b6b565b815201920191611d25565b60806003198201126102b35767ffffffffffffffff916004358381116102b35782611d8f91600401611c15565b926024358181116102b35783611da791600401611c83565b926044359182116102b357611dbe91600401611ce1565b9060643590565b9060206003198301126102b35760043567ffffffffffffffff928382116102b357806023830112156102b35781600401359384116102b35760248460061b830101116102b3576024019190565b6009548061201d575060009080825260019060209282845267ffffffffffffffff9060409180611e438484206124d1565b51168015611fda57431115611fd1578382528486524390611e6786858520016124d1565b51161015611fc957828152600494858152828220858252611e898484206124d1565b506001600160a01b03806006541685519163975057e760e01b835284838b81855afa928315611fbf578592918b918895611f9b575b50906024918951958694859363f1bea54f60e01b8552840152165afa908115611f91578491611f60575b50861c90633b9aca0091828102928184041490151715611f4d5790611f18826002898b9695015491015490612231565b10159485611f36575b5050505050600014611f31575090565b905090565b835252208281015490541090503880848180611f21565b60248460118a634e487b7160e01b835252fd5b90508281813d8311611f8a575b611f778183611af5565b81010312611f86575138611ee8565b8380fd5b503d611f6d565b85513d86823e3d90fd5b602492919550611fb790853d87116102f6576102e78183611af5565b949091611ebe565b87513d88823e3d90fd5b505050905090565b50935050505090565b60648785519062461bcd60e51b82526004820152601d60248201527f476f7665726e6f723a20756e6b6e6f776e2070726f706f73616c2069640000006044820152fd5b0361202757600490565b600390565b8115612036570490565b634e487b7160e01b600052601260045260246000fd5b600754600042821115611f31575042810390811161027757611b86907f00000000000000000000000000000000000000000000000000000000000000009061202c565b908160209103126102b357516001600160a01b03811681036102b35790565b91908110156120be5760061b0190565b634e487b7160e01b600052603260045260246000fd5b51906001600160a01b03821682036102b357565b519081151582036102b357565b9190808252602080920192916000905b828210612113575050505090565b83358552838101358582015260409485019490930192600190910190612105565b8051156120be5760200190565b80518210156120be5760209160051b010190565b909160405161216381611abd565b600181526020928336818401376001600160a01b036006541661218583612134565b526121ec6040519561219687611abd565b600187528536818901376121de6040519384927f2f441500000000000000000000000000000000000000000000000000000000008985015288602485015260448401916120f5565b03601f198101835282611af5565b604051936121f985611abd565b6001855260005b81811061222257505061221284612134565b5261221c83612134565b50929190565b60608682018301528101612200565b9190820180921161027757565b90815180825260208080930193019160005b82811061225e575050505090565b835185529381019392810192600101612250565b6001600160a01b03806006541690604091825163975057e760e01b815260209160049083838381845afa9283156123c9579084916000946123aa575b50865193849163f1bea54f60e01b835284830152816024978892165afa91821561239f5760009261236d575b506122e482611bfd565b916122f186519384611af5565b808352601f19948561230283611bfd565b01368686013760005b82811061233c575050505090612330611b86939285519583879485015283019061223e565b03908101835282611af5565b600181019081811161235957612353829187612141565b5261230b565b82601186634e487b7160e01b600052526000fd5b90918382813d8311612398575b6123848183611af5565b8101031261239557505190386122da565b80fd5b503d61237a565b85513d6000823e3d90fd5b6123c2919450823d84116102f6576102e78183611af5565b92386122ae565b86513d6000823e3d90fd5b90815180825260208080930193019160005b8281106123f4575050505090565b83516001600160a01b0316855293810193928101926001016123e6565b908082519081815260208091019281808460051b8301019501936000915b84831061243f5750505050505090565b909192939495848061245d83601f1986600196030187528a51611bac565b980193019301919493929061242f565b92906124b9926124cb926040519485926124a9612496602086019960808b5260a08701906123d4565b601f19968787830301604088015261223e565b9085858303016060860152612411565b90608083015203908101835282611af5565b51902090565b906040516020810167ffffffffffffffff9082811082821117611a6f57604052819354169052565b1561250057565b608460405162461bcd60e51b815260206004820152602160248201527f476f7665726e6f723a20696e76616c69642070726f706f73616c206c656e677460448201527f68000000000000000000000000000000000000000000000000000000000000006064820152fd5b91909167ffffffffffffffff8080941691160191821161027757565b60001981146102775760010190565b3d156125c0573d906125a682611b18565b916125b46040519384611af5565b82523d6000602084013e565b606090565b90929160009381518201916020818185019403126102b35760208101519067ffffffffffffffff82116102b357019180603f840112156102b357602083015161260d81611bfd565b9361261b6040519586611af5565b8185526040602086019260051b8201019283116102b357939493604001905b8282106127ec575050508251916000906000946001600160a01b0360065416955b85811061266b5750505050505050565b6126758183612141565b51938411156127c25783604051907fd40e7146000000000000000000000000000000000000000000000000000000008252886004916001600160a01b0387168385015260208460648160249585878301528d60448301525afa9384156102bf5760009461278e575b50836126f6575b505050506126f190612586565b61265b565b6040517fd31cc52c000000000000000000000000000000000000000000000000000000008152928301528101879052919990916020816044818c5afa9081156102bf5760009161275a575b5061274f906126f193612fa4565b0198903880806126e4565b90506020813d602011612786575b8161277560209383611af5565b810103126102b357516126f1612741565b3d9150612768565b9093506020813d6020116127ba575b816127aa60209383611af5565b810103126102b3575192386126dd565b3d915061279d565b60046040517f0bdbcd96000000000000000000000000000000000000000000000000000000008152fd5b815181526020918201910161263a565b9291909160009380855260019160209280845260409182882061281e85611e12565b6008811015612a1b5783036129b2578167ffffffffffffffff61284361284b936124d1565b5116896125c5565b9784815260048652838120906001600160a01b036003830199169889825280885260ff8683205416612949579185828695948c8e999895528a52208260ff198254161790550161289c858254612231565b905580516128f1575091816128eb937fb8e138887d0aa13bab447e82de9d5c1777041ecd21ca36ba824ff1e6c07ddda49793519687968752860152840152608060608401526080830190611bac565b0390a290565b91956128eb938761293b937fe2babfbac5889a709b63bb7f598b324e08bc5a4fb9ec647fb3cbc9ec07eb87129951988998895288015286015260a0606086015260a0850190611bac565b908382036080850152611bac565b60848887519062461bcd60e51b82526004820152602760248201527f476f7665726e6f72566f74696e6753696d706c653a20766f746520616c72656160448201527f64792063617374000000000000000000000000000000000000000000000000006064820152fd5b60848685519062461bcd60e51b82526004820152602360248201527f476f7665726e6f723a20766f7465206e6f742063757272656e746c792061637460448201527f69766500000000000000000000000000000000000000000000000000000000006064820152fd5b60248a634e487b7160e01b81526021600452fd5b939092919360009181835260209260018452604091828220612a5085611e12565b6008811015612bc2576001036129b2578167ffffffffffffffff612843612a76936124d1565b9784835260048652838320926001600160a01b036003850199169889825280885260ff8683205416612949578982528752849020805460ff1916600117905588939260ff909116919082612b1c5761289c858254612231565b80516128f1575091816128eb937fb8e138887d0aa13bab447e82de9d5c1777041ecd21ca36ba824ff1e6c07ddda49793519687968752860152840152608060608401526080830190611bac565b60018303612b3957600101612b32858254612231565b9055612acf565b929350909160028303612b59579060028994939201612b32858254612231565b60848685519062461bcd60e51b82526004820152603560248201527f476f7665726e6f72566f74696e6753696d706c653a20696e76616c696420766160448201527f6c756520666f7220656e756d20566f74655479706500000000000000000000006064820152fd5b602484634e487b7160e01b81526021600452fd5b90919015612be2575090565b815115612bf25750805190602001fd5b612c169060405191829162461bcd60e51b8352602060048401526024830190611bac565b0390fd5b60058110156112115780612c2b5750565b60018103612c7757606460405162461bcd60e51b815260206004820152601860248201527f45434453413a20696e76616c6964207369676e617475726500000000000000006044820152fd5b60028103612cc357606460405162461bcd60e51b815260206004820152601f60248201527f45434453413a20696e76616c6964207369676e6174757265206c656e677468006044820152fd5b600314612ccc57565b608460405162461bcd60e51b815260206004820152602260248201527f45434453413a20696e76616c6964207369676e6174757265202773272076616c60448201527f75650000000000000000000000000000000000000000000000000000000000006064820152fd5b9291907f7fffffffffffffffffffffffffffffff5d576e7357a4501ddfe92f46681b20a08311612db95791608094939160ff602094604051948552168484015260408301526060820152600093849182805260015afa15612dac5781516001600160a01b03811615612da6579190565b50600190565b50604051903d90823e3d90fd5b50505050600090600390565b612dcd612e11565b906040519060208201927f1901000000000000000000000000000000000000000000000000000000000000845260228301526042820152604281526124cb81611aa1565b6001600160a01b037f000000000000000000000000000000000000000000000000000000000000000016301480612efc575b15612e6c577f000000000000000000000000000000000000000000000000000000000000000090565b60405160208101907f000000000000000000000000000000000000000000000000000000000000000082527f000000000000000000000000000000000000000000000000000000000000000060408201527f000000000000000000000000000000000000000000000000000000000000000060608201524660808201523060a082015260a081526124cb81611a53565b507f00000000000000000000000000000000000000000000000000000000000000004614612e43565b67ffffffffffffffff90818111612f3a571690565b608460405162461bcd60e51b815260206004820152602660248201527f53616665436173743a2076616c756520646f65736e27742066697420696e203660448201527f34206269747300000000000000000000000000000000000000000000000000006064820152fd5b90633b9aca00906000198383099280830292838086109503948086039514613058578285101561302157908291096001821901821680920460028082600302188083028203028083028203028083028203028083028203028083028203028092029003029360018380600003040190848311900302920304170290565b60448584604051917f773cc18c00000000000000000000000000000000000000000000000000000000835260048301526024820152fd5b505090611b86925061202c56fea2646970667358221220965190fda5b49456530ea4725f056f5f087a9da1d30ee96aea0ecfd71b5810d064736f6c63430008140033",
    "linkReferences": {}
  },
  "methodIdentifiers": {
    "BALLOT_TYPEHASH()": "deaaa7cc",
    "COUNTING_MODE()": "dd4e2ba5",
    "EXTENDED_BALLOT_TYPEHASH()": "2fe3e261",
    "MAX_VOTING_POWER_TIER()": "4b501fbd",
    "attestToScorecard(uint256)": "19f82536",
    "attestToScorecardWithReasonAndParams(uint256,bytes)": "7c8bd0ed",
    "castVote(uint256,uint8)": "56781388",
    "castVoteBySig(uint256,uint8,uint8,bytes32,bytes32)": "3bccf4fd",
    "castVoteWithReason(uint256,uint8,string)": "7b3c71d3",
    "castVoteWithReasonAndParams(uint256,uint8,string,bytes)": "5f398a14",
    "castVoteWithReasonAndParamsBySig(uint256,uint8,string,bytes,uint8,bytes32,bytes32)": "03420181",
    "codeOrigin()": "1d153ca4",
    "defaultVotingDelegateProposal()": "56e258a5",
    "delegate()": "c89e4361",
    "execute(address[],uint256[],bytes[],bytes32)": "2656227d",
    "getVotes(address,uint256)": "eb9019d4",
    "getVotesWithParams(address,uint256,bytes)": "9a802a6d",
    "hasVoted(uint256,address)": "43859632",
    "hashProposal(address[],uint256[],bytes[],bytes32)": "c59057e4",
    "initialize(address,uint256,uint256)": "7a1ac61e",
    "name()": "06fdde03",
    "onERC1155BatchReceived(address,address,uint256[],uint256[],bytes)": "bc197c81",
    "onERC1155Received(address,address,uint256,uint256,bytes)": "f23a6e61",
    "onERC721Received(address,address,uint256,bytes)": "150b7a02",
    "proposalDeadline(uint256)": "c01f9e37",
    "proposalSnapshot(uint256)": "2d63f693",
    "proposalThreshold()": "b58131b0",
    "proposalVotes(uint256)": "544ffc9c",
    "propose(address[],uint256[],bytes[],string)": "7d5e81e2",
    "quorum(uint256)": "f8ce560a",
    "ratifiedProposal()": "d1fb9e0a",
    "ratifyScorecard((uint256,uint256)[])": "64d87a61",
    "relay(address,uint256,bytes)": "c28bc2fa",
    "state(uint256)": "3e4f49e6",
    "submitScorecard((uint256,uint256)[])": "d8844e2f",
    "supportsInterface(bytes4)": "01ffc9a7",
    "version()": "54fd4d50",
    "votingDelay()": "3932abb1",
    "votingPeriod()": "02a251a3",
    "votingStartTime()": "2019a608"
  },
  "id": 2
}