{
  "abi": [
    {
      "inputs": [],
      "stateMutability": "nonpayable",
      "type": "constructor"
    },
    {
      "inputs": [],
      "name": "DISABLED",
      "type": "error"
    },
    {
      "inputs": [],
      "name": "Empty",
      "type": "error"
    },
    {
      "inputs": [],
      "name": "INCORRECT_TIER_ORDER",
      "type": "error"
    },
    {
      "inputs": [
        {
          "internalType": "uint256",
          "name": "prod1",
          "type": "uint256"
        },
        {
          "internalType": "uint256",
          "name": "denominator",
          "type": "uint256"
        }
      ],
      "name": "PRBMath__MulDivOverflow",
      "type": "error"
    },
    {
      "anonymous": false,
      "inputs": [
        {
          "indexed": false,
          "internalType": "uint256",
          "name": "proposalId",
          "type": "uint256"
        }
      ],
      "name": "ProposalCanceled",
      "type": "event"
    },
    {
      "anonymous": false,
      "inputs": [
        {
          "indexed": false,
          "internalType": "uint256",
          "name": "proposalId",
          "type": "uint256"
        },
        {
          "indexed": false,
          "internalType": "address",
          "name": "proposer",
          "type": "address"
        },
        {
          "indexed": false,
          "internalType": "address[]",
          "name": "targets",
          "type": "address[]"
        },
        {
          "indexed": false,
          "internalType": "uint256[]",
          "name": "values",
          "type": "uint256[]"
        },
        {
          "indexed": false,
          "internalType": "string[]",
          "name": "signatures",
          "type": "string[]"
        },
        {
          "indexed": false,
          "internalType": "bytes[]",
          "name": "calldatas",
          "type": "bytes[]"
        },
        {
          "indexed": false,
          "internalType": "uint256",
          "name": "startBlock",
          "type": "uint256"
        },
        {
          "indexed": false,
          "internalType": "uint256",
          "name": "endBlock",
          "type": "uint256"
        },
        {
          "indexed": false,
          "internalType": "string",
          "name": "description",
          "type": "string"
        }
      ],
      "name": "ProposalCreated",
      "type": "event"
    },
    {
      "anonymous": false,
      "inputs": [
        {
          "indexed": false,
          "internalType": "uint256",
          "name": "proposalId",
          "type": "uint256"
        }
      ],
      "name": "ProposalExecuted",
      "type": "event"
    },
    {
      "anonymous": false,
      "inputs": [
        {
          "indexed": true,
          "internalType": "address",
          "name": "voter",
          "type": "address"
        },
        {
          "indexed": false,
          "internalType": "uint256",
          "name": "proposalId",
          "type": "uint256"
        },
        {
          "indexed": false,
          "internalType": "uint8",
          "name": "support",
          "type": "uint8"
        },
        {
          "indexed": false,
          "internalType": "uint256",
          "name": "weight",
          "type": "uint256"
        },
        {
          "indexed": false,
          "internalType": "string",
          "name": "reason",
          "type": "string"
        }
      ],
      "name": "VoteCast",
      "type": "event"
    },
    {
      "anonymous": false,
      "inputs": [
        {
          "indexed": true,
          "internalType": "address",
          "name": "voter",
          "type": "address"
        },
        {
          "indexed": false,
          "internalType": "uint256",
          "name": "proposalId",
          "type": "uint256"
        },
        {
          "indexed": false,
          "internalType": "uint8",
          "name": "support",
          "type": "uint8"
        },
        {
          "indexed": false,
          "internalType": "uint256",
          "name": "weight",
          "type": "uint256"
        },
        {
          "indexed": false,
          "internalType": "string",
          "name": "reason",
          "type": "string"
        },
        {
          "indexed": false,
          "internalType": "bytes",
          "name": "params",
          "type": "bytes"
        }
      ],
      "name": "VoteCastWithParams",
      "type": "event"
    },
    {
      "inputs": [],
      "name": "BALLOT_TYPEHASH",
      "outputs": [
        {
          "internalType": "bytes32",
          "name": "",
          "type": "bytes32"
        }
      ],
      "stateMutability": "view",
      "type": "function"
    },
    {
      "inputs": [],
      "name": "COUNTING_MODE",
      "outputs": [
        {
          "internalType": "string",
          "name": "",
          "type": "string"
        }
      ],
      "stateMutability": "pure",
      "type": "function"
    },
    {
      "inputs": [],
      "name": "EXTENDED_BALLOT_TYPEHASH",
      "outputs": [
        {
          "internalType": "bytes32",
          "name": "",
          "type": "bytes32"
        }
      ],
      "stateMutability": "view",
      "type": "function"
    },
    {
      "inputs": [],
      "name": "MAX_VOTING_POWER_TIER",
      "outputs": [
        {
          "internalType": "uint256",
          "name": "",
          "type": "uint256"
        }
      ],
      "stateMutability": "view",
      "type": "function"
    },
    {
      "inputs": [
        {
          "internalType": "uint256",
          "name": "_scorecardId",
          "type": "uint256"
        }
      ],
      "name": "attestToScorecard",
      "outputs": [],
      "stateMutability": "nonpayable",
      "type": "function"
    },
    {
      "inputs": [
        {
          "internalType": "uint256",
          "name": "_scorecardId",
          "type": "uint256"
        },
        {
          "internalType": "bytes",
          "name": "params",
          "type": "bytes"
        }
      ],
      "name": "attestToScorecardWithReasonAndParams",
      "outputs": [],
      "stateMutability": "nonpayable",
      "type": "function"
    },
    {
      "inputs": [
        {
          "internalType": "uint256",
          "name": "proposalId",
          "type": "uint256"
        },
        {
          "internalType": "uint8",
          "name": "support",
          "type": "uint8"
        }
      ],
      "name": "castVote",
      "outputs": [
        {
          "internalType": "uint256",
          "name": "",
          "type": "uint256"
        }
      ],
      "stateMutability": "nonpayable",
      "type": "function"
    },
    {
      "inputs": [
        {
          "internalType": "uint256",
          "name": "proposalId",
          "type": "uint256"
        },
        {
          "internalType": "uint8",
          "name": "support",
          "type": "uint8"
        },
        {
          "internalType": "uint8",
          "name": "v",
          "type": "uint8"
        },
        {
          "internalType": "bytes32",
          "name": "r",
          "type": "bytes32"
        },
        {
          "internalType": "bytes32",
          "name": "s",
          "type": "bytes32"
        }
      ],
      "name": "castVoteBySig",
      "outputs": [
        {
          "internalType": "uint256",
          "name": "",
          "type": "uint256"
        }
      ],
      "stateMutability": "nonpayable",
      "type": "function"
    },
    {
      "inputs": [
        {
          "internalType": "uint256",
          "name": "proposalId",
          "type": "uint256"
        },
        {
          "internalType": "uint8",
          "name": "support",
          "type": "uint8"
        },
        {
          "internalType": "string",
          "name": "reason",
          "type": "string"
        }
      ],
      "name": "castVoteWithReason",
      "outputs": [
        {
          "internalType": "uint256",
          "name": "",
          "type": "uint256"
        }
      ],
      "stateMutability": "nonpayable",
      "type": "function"
    },
    {
      "inputs": [
        {
          "internalType": "uint256",
          "name": "proposalId",
          "type": "uint256"
        },
        {
          "internalType": "uint8",
          "name": "support",
          "type": "uint8"
        },
        {
          "internalType": "string",
          "name": "reason",
          "type": "string"
        },
        {
          "internalType": "bytes",
          "name": "params",
          "type": "bytes"
        }
      ],
      "name": "castVoteWithReasonAndParams",
      "outputs": [
        {
          "internalType": "uint256",
          "name": "",
          "type": "uint256"
        }
      ],
      "stateMutability": "nonpayable",
      "type": "function"
    },
    {
      "inputs": [
        {
          "internalType": "uint256",
          "name": "proposalId",
          "type": "uint256"
        },
        {
          "internalType": "uint8",
          "name": "support",
          "type": "uint8"
        },
        {
          "internalType": "string",
          "name": "reason",
          "type": "string"
        },
        {
          "internalType": "bytes",
          "name": "params",
          "type": "bytes"
        },
        {
          "internalType": "uint8",
          "name": "v",
          "type": "uint8"
        },
        {
          "internalType": "bytes32",
          "name": "r",
          "type": "bytes32"
        },
        {
          "internalType": "bytes32",
          "name": "s",
          "type": "bytes32"
        }
      ],
      "name": "castVoteWithReasonAndParamsBySig",
      "outputs": [
        {
          "internalType": "uint256",
          "name": "",
          "type": "uint256"
        }
      ],
      "stateMutability": "nonpayable",
      "type": "function"
    },
    {
      "inputs": [],
      "name": "codeOrigin",
      "outputs": [
        {
          "internalType": "address",
          "name": "",
          "type": "address"
        }
      ],
      "stateMutability": "view",
      "type": "function"
    },
    {
      "inputs": [],
      "name": "delegate",
      "outputs": [
        {
          "internalType": "contract IDefifaDelegate",
          "name": "",
          "type": "address"
        }
      ],
      "stateMutability": "view",
      "type": "function"
    },
    {
      "inputs": [
        {
          "internalType": "address[]",
          "name": "targets",
          "type": "address[]"
        },
        {
          "internalType": "uint256[]",
          "name": "values",
          "type": "uint256[]"
        },
        {
          "internalType": "bytes[]",
          "name": "calldatas",
          "type": "bytes[]"
        },
        {
          "internalType": "bytes32",
          "name": "descriptionHash",
          "type": "bytes32"
        }
      ],
      "name": "execute",
      "outputs": [
        {
          "internalType": "uint256",
          "name": "",
          "type": "uint256"
        }
      ],
      "stateMutability": "payable",
      "type": "function"
    },
    {
      "inputs": [
        {
          "internalType": "address",
          "name": "account",
          "type": "address"
        },
        {
          "internalType": "uint256",
          "name": "blockNumber",
          "type": "uint256"
        }
      ],
      "name": "getVotes",
      "outputs": [
        {
          "internalType": "uint256",
          "name": "",
          "type": "uint256"
        }
      ],
      "stateMutability": "view",
      "type": "function"
    },
    {
      "inputs": [
        {
          "internalType": "address",
          "name": "account",
          "type": "address"
        },
        {
          "internalType": "uint256",
          "name": "blockNumber",
          "type": "uint256"
        },
        {
          "internalType": "bytes",
          "name": "params",
          "type": "bytes"
        }
      ],
      "name": "getVotesWithParams",
      "outputs": [
        {
          "internalType": "uint256",
          "name": "",
          "type": "uint256"
        }
      ],
      "stateMutability": "view",
      "type": "function"
    },
    {
      "inputs": [
        {
          "internalType": "uint256",
          "name": "proposalId",
          "type": "uint256"
        },
        {
          "internalType": "address",
          "name": "account",
          "type": "address"
        }
      ],
      "name": "hasVoted",
      "outputs": [
        {
          "internalType": "bool",
          "name": "",
          "type": "bool"
        }
      ],
      "stateMutability": "view",
      "type": "function"
    },
    {
      "inputs": [
        {
          "internalType": "address[]",
          "name": "targets",
          "type": "address[]"
        },
        {
          "internalType": "uint256[]",
          "name": "values",
          "type": "uint256[]"
        },
        {
          "internalType": "bytes[]",
          "name": "calldatas",
          "type": "bytes[]"
        },
        {
          "internalType": "bytes32",
          "name": "descriptionHash",
          "type": "bytes32"
        }
      ],
      "name": "hashProposal",
      "outputs": [
        {
          "internalType": "uint256",
          "name": "",
          "type": "uint256"
        }
      ],
      "stateMutability": "pure",
      "type": "function"
    },
    {
      "inputs": [
        {
          "internalType": "contract IDefifaDelegate",
          "name": "_delegate",
          "type": "address"
        },
        {
          "internalType": "uint256",
          "name": "_votingStartTime",
          "type": "uint256"
        },
        {
          "internalType": "uint256",
          "name": "__votingPeriod",
          "type": "uint256"
        }
      ],
      "name": "initialize",
      "outputs": [],
      "stateMutability": "nonpayable",
      "type": "function"
    },
    {
      "inputs": [],
      "name": "name",
      "outputs": [
        {
          "internalType": "string",
          "name": "",
          "type": "string"
        }
      ],
      "stateMutability": "view",
      "type": "function"
    },
    {
      "inputs": [
        {
          "internalType": "address",
          "name": "",
          "type": "address"
        },
        {
          "internalType": "address",
          "name": "",
          "type": "address"
        },
        {
          "internalType": "uint256[]",
          "name": "",
          "type": "uint256[]"
        },
        {
          "internalType": "uint256[]",
          "name": "",
          "type": "uint256[]"
        },
        {
          "internalType": "bytes",
          "name": "",
          "type": "bytes"
        }
      ],
      "name": "onERC1155BatchReceived",
      "outputs": [
        {
          "internalType": "bytes4",
          "name": "",
          "type": "bytes4"
        }
      ],
      "stateMutability": "nonpayable",
      "type": "function"
    },
    {
      "inputs": [
        {
          "internalType": "address",
          "name": "",
          "type": "address"
        },
        {
          "internalType": "address",
          "name": "",
          "type": "address"
        },
        {
          "internalType": "uint256",
          "name": "",
          "type": "uint256"
        },
        {
          "internalType": "uint256",
          "name": "",
          "type": "uint256"
        },
        {
          "internalType": "bytes",
          "name": "",
          "type": "bytes"
        }
      ],
      "name": "onERC1155Received",
      "outputs": [
        {
          "internalType": "bytes4",
          "name": "",
          "type": "bytes4"
        }
      ],
      "stateMutability": "nonpayable",
      "type": "function"
    },
    {
      "inputs": [
        {
          "internalType": "address",
          "name": "",
          "type": "address"
        },
        {
          "internalType": "address",
          "name": "",
          "type": "address"
        },
        {
          "internalType": "uint256",
          "name": "",
          "type": "uint256"
        },
        {
          "internalType": "bytes",
          "name": "",
          "type": "bytes"
        }
      ],
      "name": "onERC721Received",
      "outputs": [
        {
          "internalType": "bytes4",
          "name": "",
          "type": "bytes4"
        }
      ],
      "stateMutability": "nonpayable",
      "type": "function"
    },
    {
      "inputs": [
        {
          "internalType": "uint256",
          "name": "proposalId",
          "type": "uint256"
        }
      ],
      "name": "proposalDeadline",
      "outputs": [
        {
          "internalType": "uint256",
          "name": "",
          "type": "uint256"
        }
      ],
      "stateMutability": "view",
      "type": "function"
    },
    {
      "inputs": [
        {
          "internalType": "uint256",
          "name": "proposalId",
          "type": "uint256"
        }
      ],
      "name": "proposalSnapshot",
      "outputs": [
        {
          "internalType": "uint256",
          "name": "",
          "type": "uint256"
        }
      ],
      "stateMutability": "view",
      "type": "function"
    },
    {
      "inputs": [],
      "name": "proposalThreshold",
      "outputs": [
        {
          "internalType": "uint256",
          "name": "",
          "type": "uint256"
        }
      ],
      "stateMutability": "pure",
      "type": "function"
    },
    {
      "inputs": [
        {
          "internalType": "uint256",
          "name": "proposalId",
          "type": "uint256"
        }
      ],
      "name": "proposalVotes",
      "outputs": [
        {
          "internalType": "uint256",
          "name": "againstVotes",
          "type": "uint256"
        },
        {
          "internalType": "uint256",
          "name": "forVotes",
          "type": "uint256"
        },
        {
          "internalType": "uint256",
          "name": "abstainVotes",
          "type": "uint256"
        }
      ],
      "stateMutability": "view",
      "type": "function"
    },
    {
      "inputs": [
        {
          "internalType": "address[]",
          "name": "targets",
          "type": "address[]"
        },
        {
          "internalType": "uint256[]",
          "name": "values",
          "type": "uint256[]"
        },
        {
          "internalType": "bytes[]",
          "name": "calldatas",
          "type": "bytes[]"
        },
        {
          "internalType": "string",
          "name": "description",
          "type": "string"
        }
      ],
      "name": "propose",
      "outputs": [
        {
          "internalType": "uint256",
          "name": "",
          "type": "uint256"
        }
      ],
      "stateMutability": "nonpayable",
      "type": "function"
    },
    {
      "inputs": [
        {
          "internalType": "uint256",
          "name": "",
          "type": "uint256"
        }
      ],
      "name": "quorum",
      "outputs": [
        {
          "internalType": "uint256",
          "name": "",
          "type": "uint256"
        }
      ],
      "stateMutability": "view",
      "type": "function"
    },
    {
      "inputs": [
        {
          "components": [
            {
              "internalType": "uint256",
              "name": "id",
              "type": "uint256"
            },
            {
              "internalType": "uint256",
              "name": "redemptionWeight",
              "type": "uint256"
            }
          ],
          "internalType": "struct DefifaTierRedemptionWeight[]",
          "name": "_tierWeights",
          "type": "tuple[]"
        }
      ],
      "name": "ratifyScorecard",
      "outputs": [
        {
          "internalType": "uint256",
          "name": "",
          "type": "uint256"
        }
      ],
      "stateMutability": "nonpayable",
      "type": "function"
    },
    {
      "inputs": [
        {
          "internalType": "address",
          "name": "target",
          "type": "address"
        },
        {
          "internalType": "uint256",
          "name": "value",
          "type": "uint256"
        },
        {
          "internalType": "bytes",
          "name": "data",
          "type": "bytes"
        }
      ],
      "name": "relay",
      "outputs": [],
      "stateMutability": "payable",
      "type": "function"
    },
    {
      "inputs": [
        {
          "internalType": "uint256",
          "name": "proposalId",
          "type": "uint256"
        }
      ],
      "name": "state",
      "outputs": [
        {
          "internalType": "enum IGovernor.ProposalState",
          "name": "",
          "type": "uint8"
        }
      ],
      "stateMutability": "view",
      "type": "function"
    },
    {
      "inputs": [
        {
          "components": [
            {
              "internalType": "uint256",
              "name": "id",
              "type": "uint256"
            },
            {
              "internalType": "uint256",
              "name": "redemptionWeight",
              "type": "uint256"
            }
          ],
          "internalType": "struct DefifaTierRedemptionWeight[]",
          "name": "_tierWeights",
          "type": "tuple[]"
        }
      ],
      "name": "submitScorecards",
      "outputs": [
        {
          "internalType": "uint256",
          "name": "",
          "type": "uint256"
        }
      ],
      "stateMutability": "nonpayable",
      "type": "function"
    },
    {
      "inputs": [
        {
          "internalType": "bytes4",
          "name": "interfaceId",
          "type": "bytes4"
        }
      ],
      "name": "supportsInterface",
      "outputs": [
        {
          "internalType": "bool",
          "name": "",
          "type": "bool"
        }
      ],
      "stateMutability": "view",
      "type": "function"
    },
    {
      "inputs": [],
      "name": "version",
      "outputs": [
        {
          "internalType": "string",
          "name": "",
          "type": "string"
        }
      ],
      "stateMutability": "view",
      "type": "function"
    },
    {
      "inputs": [],
      "name": "votingDelay",
      "outputs": [
        {
          "internalType": "uint256",
          "name": "",
          "type": "uint256"
        }
      ],
      "stateMutability": "view",
      "type": "function"
    },
    {
      "inputs": [],
      "name": "votingPeriod",
      "outputs": [
        {
          "internalType": "uint256",
          "name": "",
          "type": "uint256"
        }
      ],
      "stateMutability": "view",
      "type": "function"
    },
    {
      "inputs": [],
      "name": "votingStartTime",
      "outputs": [
        {
          "internalType": "uint256",
          "name": "",
          "type": "uint256"
        }
      ],
      "stateMutability": "view",
      "type": "function"
    },
    {
      "stateMutability": "payable",
      "type": "receive"
    }
  ],
  "bytecode": {
    "object": "0x61016060409080825234620002855762000019816200028a565b600e8152602091828201916d2232b334b330a3b7bb32b93737b960911b835283825162000046816200028a565b60019181838093520194603160f81b86528351902094208460e052610100958187524660a052845191818301907f8b73c3c69bb8fe3d512ecc4cf759cc79239f7b179b0ffacaa9a75d522b39400f978883528785015260608401524660808401523060a084015260a0835260c083019260018060401b0393818110858211176200026f5787525190206080523060c05261012095865283519182116200026f5760009384548481811c9116801562000264575b838210146200025057601f811162000205575b5081601f84116001146200019d5750928293918392869462000191575b50501b916000199060031b1c19161790555b610140903082525191612b3d9384620002a7853960805184612905015260a051846129ba015260c051846128cf015260e051846129540152518361297a01525182612931015251818181610aa301526112a60152f35b01519250388062000129565b919083601f1981168780528488209488905b88838310620001ea5750505010620001d0575b505050811b0190556200013b565b015160001960f88460031b161c19169055388080620001c2565b858701518855909601959485019487935090810190620001af565b858052828620601f850160051c81019184861062000245575b601f0160051c019085905b828110620002395750506200010c565b87815501859062000229565b90915081906200021e565b634e487b7160e01b86526022600452602486fd5b90607f1690620000f9565b634e487b7160e01b600052604160045260246000fd5b600080fd5b604081019081106001600160401b038211176200026f5760405256fe6080604081815260049081361015610022575b505050361561002057600080fd5b005b600092833560e01c90816301ffc9a7146115885750806302a251a314611569578063034201811461145d57806306fdde0314611348578063150b7a02146112f357806319f82536146112d55780631d153ca4146112915780632019a608146112725780632656227d146111045780632d63f693146110d45780632fe3e261146110995780633932abb11461107c5780633bccf4fd14610fc45780633e4f49e614610f7f5780634385963214610f365780634b501fbd14610f17578063544ffc9c14610eda57806354fd4d5014610e995780635678138814610e6257806359f397bd14610d925780635f398a1414610d1f57806364d87a6114610afd5780637a1ac61e14610a745780637b3c71d314610a155780637c8bd0ed146109cb5780637d5e81e21461067c5780639a802a6d1461063a578063b58131b01461061f578063bc197c8114610599578063c01f9e371461055e578063c28bc2fa14610463578063c59057e414610444578063c89e43611461041b578063dd4e2ba5146103ba578063deaaa7cc1461037f578063eb9019d414610346578063f23a6e61146102f15763f8ce560a0361001257346102ed57602092836003193601126102ea57600654825163975057e760e01b81526001600160a01b0391821686828781845afa9182156102e0579087929185926102ae575b506024908651948593849263f1bea54f60e01b84528a840152165afa9081156102a4578291610273575b5060011c92633b9aca009384810294818604149015171561026057505051908152f35b634e487b7160e01b825260119052602490fd5b90508481813d831161029d575b61028a81836116eb565b8101031261029957513861023d565b5080fd5b503d610280565b83513d84823e3d90fd5b60249192506102d290843d86116102d9575b6102ca81836116eb565b810190611bea565b9190610213565b503d6102c0565b85513d86823e3d90fd5b80fd5b8280fd5b5082346102ea5760a03660031901126102ea5761030c6117bc565b506103156117d2565b50608435906001600160401b0382116102ea57506020926103389136910161175e565b505163f23a6e6160e01b8152f35b8382346102995780600319360112610299576020906103786103666117bc565b61036e611c2c565b906024359061210f565b9051908152f35b838234610299578160031936011261029957602090517f150214d74d59b7d1e90c73fc22ef3d991dd0a76b046543d4d80ab92d2a50328f8152f35b8382346102995781600319360112610299578051610417916103db826116d0565b602082527f737570706f72743d627261766f2671756f72756d3d666f722c6162737461696e60208301525191829160208352602083019061177c565b0390f35b83823461029957816003193601126102995760065490516001600160a01b039091168152602090f35b8382346102995760209061037861045a3661194b565b92919091611db0565b50919060603660031901126102995761047a6117bc565b906044356001600160401b03811161055a576104999036908301611621565b913033036105175750836105139383829388958651928392833781018481520391602435905af16104c86120df565b9067206d65737361676560c01b8351936104e18561169a565b602885527f476f7665726e6f723a2072656c617920726576657274656420776974686f757460208601528401526126ae565b5080f35b606490602087519162461bcd60e51b8352820152601860248201527f476f7665726e6f723a206f6e6c79476f7665726e616e636500000000000000006044820152fd5b8380fd5b5090346102ed5760203660031901126102ed576105906001836020956001600160401b03943581528287522001612038565b51169051908152f35b5082346102ea5760a03660031901126102ea576105b46117bc565b506105bd6117d2565b506001600160401b0390604435828111610299576105de903690860161186d565b50606435828111610299576105f6903690860161186d565b506084359182116102ea57506020926106119136910161175e565b505163bc197c8160e01b8152f35b83823461029957816003193601126102995751908152602090f35b5090346102ed5760603660031901126102ed576106556117bc565b92604435906001600160401b0382116102ea57509261036e6103789260209536910161175e565b5082346102ea5760803660031901126102ea576001600160401b039183358381116102ed576106ae90369086016117ff565b9260243581811161055a576106c6903690870161186d565b936044358281116109c7576106de90369088016118cb565b956064358381116109c357366023820112156109c3576107079036906024818501359101611727565b913033036109b45760001943014381116109a15761072e90610727611c2c565b903361210f565b508251976107446020998a860120828a85611db0565b9661075283518a511461205f565b61075f835183511461205f565b82511561095e57878152600190818b52878120948761077d87612038565b51166109115750906107a7610791436129e0565b6107a161079c611d8c565b6129e0565b906120b5565b876107bc6107b66005546129e0565b836120b5565b911697826001600160401b0319978a8982541617815501911680968254161790556108088b8551956107ed876117e8565b966107fa8c5198896116eb565b808852601f199384916117e8565b01855b8181106109025750508b9c61083b610849928d9e9d80519e8f9081523387820152610120809282015201906119f9565b8c810360608e015290611a36565b8a810360808c01528651928382528282019183808660051b830101990196935b8585106108d45793505050508b8b7f7d84a6263ae0d98d3329bd7b46bb4e8d6f98cd35a7adb45c274c8b7fd5ebd5e08c806108cb8e8e8e6108b28f8f87820360a0890152611a6a565b9260c086015260e085015283820361010085015261177c565b0390a151908152f35b806108f08b85858b9c9e9b969798999a9b030188528c5161177c565b9a01940194019295949391908f610869565b6060898201850152830161080b565b885162461bcd60e51b81529081018c9052602160248201527f476f7665726e6f723a2070726f706f73616c20616c72656164792065786973746044820152607360f81b6064820152608490fd5b865162461bcd60e51b81528085018b9052601860248201527f476f7665726e6f723a20656d7074792070726f706f73616c00000000000000006044820152606490fd5b634e487b7160e01b875260118352602487fd5b508351631596f13360e31b8152fd5b8580fd5b8480fd5b50346102ed57806003193601126102ed57602435916001600160401b03831161055a576109fe610513933690830161175e565b915190610a0a8261167f565b848252339035612309565b5082346102ea5760603660031901126102ea57610a3061160c565b90604435906001600160401b0382116102ea57509261037891610a62610a5b60209636908501611621565b3691611727565b90610a6b611c2c565b92339035612510565b505034610299576060366003190112610299576001600160a01b039035818116908190036102ed5760443591807f000000000000000000000000000000000000000000000000000000000000000016301461055a5760065490811661055a576001600160a01b0319161760065560243560075580610af857506201881d5b60055580f35b610af2565b50346102ed57610b15610b0f366119ad565b90611afd565b9190948351956020968781019060808252610b92610b3660a08301876119f9565b82610b60610b50601f199384848203018d85015288611a36565b838382030160608401528a611a6a565b7fc5d2460186f7233c927e7db2dcc703c0e500b653ca82273b7bfad8045d85a4706080830152039081018352826116eb565b51902095610b9f87611e14565b6008811015610d0c57818114908115610d01575b5015610cb457508582526001938488526002868420018560ff198254161790557f712ae1383f79ac853f8d882153778e0260ef8f03b504e2866e0593e04d2b291f888751898152a1855193610c078561169a565b602785527f476f7665726e6f723a2063616c6c20726576657274656420776974686f75742089860152666d65737361676560c81b878601528884875b610c50575b508751898152f35b8251811015610caf57610ca1878780610ca79560018060a01b03610c74878a611ae9565b5116610c80878c611ae9565b51610c8b888c611ae9565b5180519301915af1610c9b6120df565b906126ae565b506120d0565b899087610c43565b610c48565b855162461bcd60e51b8152908101889052602160248201527f476f7665726e6f723a2070726f706f73616c206e6f74207375636365737366756044820152601b60fa1b6064820152608490fd5b600591501438610bb3565b634e487b7160e01b845260218252602484fd5b5090346102ed5760803660031901126102ed57610d3a61160c565b6001600160401b039360443585811161029957610d5a9036908501611621565b9590916064359182116102ea575091610d896103789492610d81602098953690860161175e565b943691611727565b91339035612510565b5082903461029957608092610dd483610df7610de7610db3610b0f366119ad565b929188969196519a8b98633eaf40f160e11b8a5289015260848801906119f9565b6003199586888303016024890152611a36565b9084868303016044870152611a6a565b838103928301606485015252602094858092018186305af1928315610e57578093610e25575b505051908152f35b909192508382813d8311610e50575b610e3e81836116eb565b810103126102ea575051908380610e1d565b503d610e34565b8251903d90823e3d90fd5b5090346102ed57816003193601126102ed5761037890602093610e8361160c565b845191610e8f8361167f565b8252610a6b611c2c565b838234610299578160031936011261029957805161041791610eba826116d0565b60018252603160f81b60208301525191829160208352602083019061177c565b5090346102ed5760203660031901126102ed5760609281839235825260205220805491600260018301549201549181519384526020840152820152f35b83823461029957816003193601126102995760209051633b9aca008152f35b5090346102ed57816003193601126102ed578160209360ff92610f576117d2565b813583529086528282206001600160a01b039091168252600301855220549151911615158152f35b5082903461029957602036600319011261029957610f9d8335611e14565b9051916008821015610fb157602083838152f35b634e487b7160e01b815260218452602490fd5b5090346102ed5760a03660031901126102ed5735610fe061160c565b60443560ff811681036109c7579361037892916110606110586020978751898101917f150214d74d59b7d1e90c73fc22ef3d991dd0a76b046543d4d80ab92d2a50328f8352878a83015260ff8616606083015260608252611040826116b5565b611053608435936064359351902061289b565b61280c565b9190916126f2565b85519261106c8461167f565b8352611076611c2c565b93612510565b838234610299578160031936011261029957602090610378611d8c565b838234610299578160031936011261029957602090517fb3b3f3b703cd84ce352197dcff232b1b5d3cfb2025ce47cf04742d0651f1af888152f35b5090346102ed5760203660031901126102ed57610590826020946001600160401b03933581526001865220612038565b5061111e6111113661194b565b8183859994969399611db0565b9461112886611e14565b600881101561125f57818114908115611254575b501561120757508481526001926020968488526002868420018560ff198254161790557f712ae1383f79ac853f8d882153778e0260ef8f03b504e2866e0593e04d2b291f888751898152a18551936111938561169a565b602785527f476f7665726e6f723a2063616c6c20726576657274656420776974686f75742089860152666d65737361676560c81b878601528884875b6111db57508751898152f35b8251811015610caf57610ca18787806111ff9560018060a01b03610c74878a611ae9565b8990876111cf565b608490602086519162461bcd60e51b8352820152602160248201527f476f7665726e6f723a2070726f706f73616c206e6f74207375636365737366756044820152601b60fa1b6064820152fd5b60059150143861113c565b634e487b7160e01b835260218252602483fd5b8382346102995781600319360112610299576020906007549051908152f35b838234610299578160031936011261029957517f00000000000000000000000000000000000000000000000000000000000000006001600160a01b03168152602090f35b50346102ed5760203660031901126102ed57610513916109fe611c2c565b5082346102ea5760803660031901126102ea5761130e6117bc565b506113176117d2565b50606435906001600160401b0382116102ea575060209261133a9136910161175e565b5051630a85bd0160e11b8152f35b5082346102ea57806003193601126102ea5781519181825492600184811c91818616958615611453575b6020968785108114611440578899509688969785829a5291826000146114195750506001146113be575b50505061041792916113af9103856116eb565b5192828493845283019061177c565b91908693508280527f290decd9548b62a8d60345a988386fc84ba6bc95484008f6362f93160ef3e5635b82841061140157505050820101816113af61041761139c565b8054848a0186015288955087949093019281016113e8565b60ff19168782015293151560051b860190930193508492506113af9150610417905061139c565b634e487b7160e01b835260228a52602483fd5b92607f1692611372565b5090346102ed5760e03660031901126102ed5780359061147b61160c565b906001600160401b036044358181116115655761149b9036908401611621565b919092606435918211611561576114b49136910161175e565b956084359060ff821682036102ea575061155b6103789593602098959361155389610a5b956114e4368587611727565b8d8151910120908a518e8c01208351928f8c908501957fb3b3f3b703cd84ce352197dcff232b1b5d3cfb2025ce47cf04742d0651f1af88875285015260ff8b166060850152608084015260a083015260a082526115408261164e565b61105360c4359360a4359351902061289b565b9490946126f2565b92612510565b8780fd5b8680fd5b8382346102995781600319360112610299576020906005549051908152f35b849084346102ed5760203660031901126102ed573563ffffffff60e01b81168091036102ed576020925063bf26d89760e01b81149081156115fb575b81156115ea575b81156115d9575b5015158152f35b6301ffc9a760e01b149050836115d2565b630271189760e51b811491506115cb565b6379dd796f60e01b811491506115c4565b6024359060ff8216820361161c57565b600080fd5b9181601f8401121561161c578235916001600160401b03831161161c576020838186019501011161161c57565b60c081019081106001600160401b0382111761166957604052565b634e487b7160e01b600052604160045260246000fd5b602081019081106001600160401b0382111761166957604052565b606081019081106001600160401b0382111761166957604052565b608081019081106001600160401b0382111761166957604052565b604081019081106001600160401b0382111761166957604052565b90601f801991011681019081106001600160401b0382111761166957604052565b6001600160401b03811161166957601f01601f191660200190565b9291926117338261170c565b9161174160405193846116eb565b82948184528183011161161c578281602093846000960137010152565b9080601f8301121561161c5781602061177993359101611727565b90565b919082519283825260005b8481106117a8575050826000602080949584010152601f8019910116010190565b602081830181015184830182015201611787565b600435906001600160a01b038216820361161c57565b602435906001600160a01b038216820361161c57565b6001600160401b0381116116695760051b60200190565b81601f8201121561161c57803591611816836117e8565b9261182460405194856116eb565b808452602092838086019260051b82010192831161161c578301905b82821061184e575050505090565b81356001600160a01b038116810361161c578152908301908301611840565b81601f8201121561161c57803591611884836117e8565b9261189260405194856116eb565b808452602092838086019260051b82010192831161161c578301905b8282106118bc575050505090565b813581529083019083016118ae565b9080601f8301121561161c578135906118e3826117e8565b926118f160405194856116eb565b828452602092838086019160051b8301019280841161161c57848301915b84831061191f5750505050505090565b82356001600160401b03811161161c5786916119408484809489010161175e565b81520192019161190f565b608060031982011261161c576001600160401b039160043583811161161c5782611977916004016117ff565b9260243581811161161c578361198f9160040161186d565b9260443591821161161c576119a6916004016118cb565b9060643590565b90602060031983011261161c576004356001600160401b039283821161161c578060238301121561161c57816004013593841161161c5760248460061b8301011161161c576024019190565b90815180825260208080930193019160005b828110611a19575050505090565b83516001600160a01b031685529381019392810192600101611a0b565b90815180825260208080930193019160005b828110611a56575050505090565b835185529381019392810192600101611a48565b908082519081815260208091019281808460051b8301019501936000915b848310611a985750505050505090565b9091929394958480611ab6600193601f198682030187528a5161177c565b9801930193019194939290611a88565b805115611ad35760200190565b634e487b7160e01b600052603260045260246000fd5b8051821015611ad35760209160051b010190565b9091604091825190611b0e826116d0565b6001938483526020908136818601376006546001600160a01b0316611b3285611ac6565b52805196611b3f886116d0565b8688528236818a013781518094622f441560e81b8583015282604483018660248501525260648201909260005b8a86838310611bcd5750505050611b8c925003601f1981018552846116eb565b5194611b97866116d0565b855260005b818110611bbe575050611bae84611ac6565b52611bb883611ac6565b50929190565b60608682018301528101611b9c565b863585528887013589860152958601958995509093019201611b6c565b9081602091031261161c57516001600160a01b038116810361161c5790565b91908201809211611c1657565b634e487b7160e01b600052601160045260246000fd5b6006546040805163975057e760e01b815290916001600160a01b0391602091600490841683838381845afa928315611d8157908491600094611d62575b50865193849163f1bea54f60e01b835284830152816024978892165afa918215611d5757600092611d28575b50611c9f826117e8565b91611cac865193846116eb565b808352601f199485611cbd836117e8565b01368686013760005b828110611cf7575050505090611ceb6117799392855195838794850152830190611a36565b039081018352826116eb565b6001810190818111611d1457611d0e829187611ae9565b52611cc6565b82601186634e487b7160e01b600052526000fd5b90918382813d8311611d50575b611d3f81836116eb565b810103126102ea5750519038611c95565b503d611d35565b85513d6000823e3d90fd5b611d7a919450823d84116102d9576102ca81836116eb565b9238611c69565b86513d6000823e3d90fd5b600754600042821115611dab5750428103908111611c1657600c900490565b905090565b9290611dfc92611e0e92604051948592611dec611dd9602086019960808b5260a08701906119f9565b601f199687878303016040880152611a36565b9085858303016060860152611a6a565b906080830152039081018352826116eb565b51902090565b60009080825260016020928184526040906002828220015460ff811661202d5760081c60ff16612023576001600160401b0380611e52848420612038565b51168015611fdf57431115611fd6578482528386524390611e768585852001612038565b51161015611fce57838152600494858152828220848252611e98848420612038565b50600654845163975057e760e01b8152906001600160a01b039081169084838b81855afa928315611fc4578592918b918895611fa0575b50906024918951958694859363f1bea54f60e01b8552840152165afa9081156102e0578491611f73575b50851c90633b9aca0091828102928184041490151715611f605790611f29826002888b9695015491015490611c09565b10159586611f48575b505050505050600014611f425790565b50600390565b83525220908101549054109050388080848180611f32565b634e487b7160e01b845260118852602484fd5b90508281813d8311611f99575b611f8a81836116eb565b8101031261055a575138611ef9565b503d611f80565b602492919550611fbc90853d87116102d9576102ca81836116eb565b949091611ecf565b87513d88823e3d90fd5b505091505090565b50935050505090565b835162461bcd60e51b815260048101889052601d60248201527f476f7665726e6f723a20756e6b6e6f776e2070726f706f73616c2069640000006044820152606490fd5b5050505050600290565b505050505050600790565b90604051602081016001600160401b03908281108282111761166957604052819354169052565b1561206657565b60405162461bcd60e51b815260206004820152602160248201527f476f7665726e6f723a20696e76616c69642070726f706f73616c206c656e67746044820152600d60fb1b6064820152608490fd5b9190916001600160401b0380809416911601918211611c1657565b6000198114611c165760010190565b3d1561210a573d906120f08261170c565b916120fe60405193846116eb565b82523d6000602084013e565b606090565b909291600093815182019160208181850194031261161c576020810151906001600160401b03821161161c57019180603f8401121561161c576020830151612156816117e8565b9361216460405195866116eb565b8185526040602086019260051b82010192831161161c57939493604001905b8282106122f957505083516006546001600160a01b03169490936000925090825b8581106121b45750505050505050565b6121be8183611ae9565b51938411156122e757604051636a0738a360e11b81526001600160a01b038416600480830191909152602480830187905260448301889052866020846064818e5afa9384156122a7576000946122b3575b5083612228575b50505050612223906120d0565b6121a4565b6040516334c7314b60e21b8152928301528101879052919990916020816044818c5afa9081156122a757600091612273575b506122689061222393612a48565b019890388080612216565b90506020813d60201161229f575b8161228e602093836116eb565b8101031261161c575161222361225a565b3d9150612281565b6040513d6000823e3d90fd5b9093506020813d6020116122df575b816122cf602093836116eb565b8101031261161c5751923861220f565b3d91506122c2565b6040516305ede6cb60e11b8152600490fd5b8151815260209182019101612183565b9291909160009380855260019160209280845260409182882061232b85611e14565b60088110156124fc5783036124ac57816001600160401b0361234f61235793612038565b51168961210f565b848952600486528389206001600160a01b03909816808a5260038901808852858b2054929a91999260ff16612458579185828695948c8e999895528a52208260ff19825416179055016123ab858254611c09565b90558051612400575091816123fa937fb8e138887d0aa13bab447e82de9d5c1777041ecd21ca36ba824ff1e6c07ddda4979351968796875286015284015260806060840152608083019061177c565b0390a290565b91956123fa938761244a937fe2babfbac5889a709b63bb7f598b324e08bc5a4fb9ec647fb3cbc9ec07eb87129951988998895288015286015260a0606086015260a085019061177c565b90838203608085015261177c565b855162461bcd60e51b815260048101899052602760248201527f476f7665726e6f72566f74696e6753696d706c653a20766f746520616c726561604482015266191e4818d85cdd60ca1b6064820152608490fd5b835162461bcd60e51b815260048101879052602360248201527f476f7665726e6f723a20766f7465206e6f742063757272656e746c792061637460448201526269766560e81b6064820152608490fd5b634e487b7160e01b8a52602160045260248afd5b93909291936000918183526020926001845260409182822061253185611e14565b600881101561269a576001036124ac57816001600160401b0361234f61255693612038565b978483526004865283832092600384019860018060a01b03169889825280885260ff8683205416612458578982528752849020805460ff1916600117905588939260ff9091169190826125fb576123ab858254611c09565b8051612400575091816123fa937fb8e138887d0aa13bab447e82de9d5c1777041ecd21ca36ba824ff1e6c07ddda4979351968796875286015284015260806060840152608083019061177c565b6001830361261857600101612611858254611c09565b90556125ae565b929350909160028303612638579060028994939201612611858254611c09565b835162461bcd60e51b815260048101879052603560248201527f476f7665726e6f72566f74696e6753696d706c653a20696e76616c69642076616044820152746c756520666f7220656e756d20566f74655479706560581b6064820152608490fd5b634e487b7160e01b84526021600452602484fd5b909190156126ba575090565b8151156126ca5750805190602001fd5b60405162461bcd60e51b8152602060048201529081906126ee90602483019061177c565b0390fd5b60058110156127f657806127035750565b600181036127505760405162461bcd60e51b815260206004820152601860248201527f45434453413a20696e76616c6964207369676e617475726500000000000000006044820152606490fd5b6002810361279d5760405162461bcd60e51b815260206004820152601f60248201527f45434453413a20696e76616c6964207369676e6174757265206c656e677468006044820152606490fd5b6003146127a657565b60405162461bcd60e51b815260206004820152602260248201527f45434453413a20696e76616c6964207369676e6174757265202773272076616c604482015261756560f01b6064820152608490fd5b634e487b7160e01b600052602160045260246000fd5b9291907f7fffffffffffffffffffffffffffffff5d576e7357a4501ddfe92f46681b20a0831161288f5791608094939160ff602094604051948552168484015260408301526060820152600093849182805260015afa156128825781516001600160a01b0381161561287c579190565b50600190565b50604051903d90823e3d90fd5b50505050600090600390565b6128a36128cc565b9060405190602082019261190160f01b84526022830152604282015260428152611e0e816116b5565b307f00000000000000000000000000000000000000000000000000000000000000006001600160a01b031614806129b7575b15612927577f000000000000000000000000000000000000000000000000000000000000000090565b60405160208101907f000000000000000000000000000000000000000000000000000000000000000082527f000000000000000000000000000000000000000000000000000000000000000060408201527f000000000000000000000000000000000000000000000000000000000000000060608201524660808201523060a082015260a08152611e0e8161164e565b507f000000000000000000000000000000000000000000000000000000000000000046146128fe565b6001600160401b03908181116129f4571690565b60405162461bcd60e51b815260206004820152602660248201527f53616665436173743a2076616c756520646f65736e27742066697420696e203660448201526534206269747360d01b6064820152608490fd5b90633b9aca00906000198383099280830292838086109503948086039514612ae35782851015612ac557908291096001821901821680920460028082600302188083028203028083028203028083028203028083028203028083028203028092029003029360018380600003040190848311900302920304170290565b6044858460405191631dcf306360e21b835260048301526024820152fd5b505080925015612af1570490565b634e487b7160e01b600052601260045260246000fdfea26469706673582212205d639cc1f937baac4e90773908b0208f421da66ae39942ba0a20d0e8c066b8c264736f6c63430008110033",
    "linkReferences": {}
  },
  "methodIdentifiers": {
    "BALLOT_TYPEHASH()": "deaaa7cc",
    "COUNTING_MODE()": "dd4e2ba5",
    "EXTENDED_BALLOT_TYPEHASH()": "2fe3e261",
    "MAX_VOTING_POWER_TIER()": "4b501fbd",
    "attestToScorecard(uint256)": "19f82536",
    "attestToScorecardWithReasonAndParams(uint256,bytes)": "7c8bd0ed",
    "castVote(uint256,uint8)": "56781388",
    "castVoteBySig(uint256,uint8,uint8,bytes32,bytes32)": "3bccf4fd",
    "castVoteWithReason(uint256,uint8,string)": "7b3c71d3",
    "castVoteWithReasonAndParams(uint256,uint8,string,bytes)": "5f398a14",
    "castVoteWithReasonAndParamsBySig(uint256,uint8,string,bytes,uint8,bytes32,bytes32)": "03420181",
    "codeOrigin()": "1d153ca4",
    "delegate()": "c89e4361",
    "execute(address[],uint256[],bytes[],bytes32)": "2656227d",
    "getVotes(address,uint256)": "eb9019d4",
    "getVotesWithParams(address,uint256,bytes)": "9a802a6d",
    "hasVoted(uint256,address)": "43859632",
    "hashProposal(address[],uint256[],bytes[],bytes32)": "c59057e4",
    "initialize(address,uint256,uint256)": "7a1ac61e",
    "name()": "06fdde03",
    "onERC1155BatchReceived(address,address,uint256[],uint256[],bytes)": "bc197c81",
    "onERC1155Received(address,address,uint256,uint256,bytes)": "f23a6e61",
    "onERC721Received(address,address,uint256,bytes)": "150b7a02",
    "proposalDeadline(uint256)": "c01f9e37",
    "proposalSnapshot(uint256)": "2d63f693",
    "proposalThreshold()": "b58131b0",
    "proposalVotes(uint256)": "544ffc9c",
    "propose(address[],uint256[],bytes[],string)": "7d5e81e2",
    "quorum(uint256)": "f8ce560a",
    "ratifyScorecard((uint256,uint256)[])": "64d87a61",
    "relay(address,uint256,bytes)": "c28bc2fa",
    "state(uint256)": "3e4f49e6",
    "submitScorecards((uint256,uint256)[])": "59f397bd",
    "supportsInterface(bytes4)": "01ffc9a7",
    "version()": "54fd4d50",
    "votingDelay()": "3932abb1",
    "votingPeriod()": "02a251a3",
    "votingStartTime()": "2019a608"
  },
  "id": 2
}