{
  "abi": [
    {
      "inputs": [
        {
          "internalType": "contract IJBController3_1",
          "name": "_controller",
          "type": "address"
        },
        {
          "internalType": "uint256",
          "name": "__blockTime",
          "type": "uint256"
        }
      ],
      "stateMutability": "nonpayable",
      "type": "constructor"
    },
    {
      "inputs": [],
      "name": "ALREADY_ATTESTED",
      "type": "error"
    },
    {
      "inputs": [],
      "name": "ALREADY_RATIFIED",
      "type": "error"
    },
    {
      "inputs": [],
      "name": "DUPLICATE_SCORECARD",
      "type": "error"
    },
    {
      "inputs": [],
      "name": "GAME_NOT_FOUND",
      "type": "error"
    },
    {
      "inputs": [],
      "name": "INCORRECT_TIER_ORDER",
      "type": "error"
    },
    {
      "inputs": [],
      "name": "NOT_ALLOWED",
      "type": "error"
    },
    {
      "inputs": [
        {
          "internalType": "uint256",
          "name": "prod1",
          "type": "uint256"
        },
        {
          "internalType": "uint256",
          "name": "denominator",
          "type": "uint256"
        }
      ],
      "name": "PRBMath__MulDivOverflow",
      "type": "error"
    },
    {
      "inputs": [],
      "name": "UNKNOWN_PROPOSAL",
      "type": "error"
    },
    {
      "inputs": [],
      "name": "UNOWNED_PROPOSED_REDEMPTION_VALUE",
      "type": "error"
    },
    {
      "anonymous": false,
      "inputs": [
        {
          "indexed": true,
          "internalType": "address",
          "name": "previousOwner",
          "type": "address"
        },
        {
          "indexed": true,
          "internalType": "address",
          "name": "newOwner",
          "type": "address"
        }
      ],
      "name": "OwnershipTransferred",
      "type": "event"
    },
    {
      "anonymous": false,
      "inputs": [
        {
          "indexed": true,
          "internalType": "uint256",
          "name": "gameId",
          "type": "uint256"
        },
        {
          "indexed": true,
          "internalType": "uint256",
          "name": "scorecardId",
          "type": "uint256"
        },
        {
          "indexed": false,
          "internalType": "uint256",
          "name": "weight",
          "type": "uint256"
        },
        {
          "indexed": false,
          "internalType": "address",
          "name": "caller",
          "type": "address"
        }
      ],
      "name": "ScorecardAttested",
      "type": "event"
    },
    {
      "anonymous": false,
      "inputs": [
        {
          "indexed": true,
          "internalType": "uint256",
          "name": "gameId",
          "type": "uint256"
        },
        {
          "indexed": true,
          "internalType": "uint256",
          "name": "scorecardId",
          "type": "uint256"
        },
        {
          "indexed": false,
          "internalType": "address",
          "name": "caller",
          "type": "address"
        }
      ],
      "name": "ScorecardRatified",
      "type": "event"
    },
    {
      "anonymous": false,
      "inputs": [
        {
          "indexed": true,
          "internalType": "uint256",
          "name": "gameId",
          "type": "uint256"
        },
        {
          "indexed": true,
          "internalType": "uint256",
          "name": "scorecardId",
          "type": "uint256"
        },
        {
          "components": [
            {
              "internalType": "uint256",
              "name": "id",
              "type": "uint256"
            },
            {
              "internalType": "uint256",
              "name": "redemptionWeight",
              "type": "uint256"
            }
          ],
          "indexed": false,
          "internalType": "struct DefifaTierRedemptionWeight[]",
          "name": "tierWeights",
          "type": "tuple[]"
        },
        {
          "indexed": false,
          "internalType": "bool",
          "name": "isDefaultAttestationDelegate",
          "type": "bool"
        },
        {
          "indexed": false,
          "internalType": "address",
          "name": "caller",
          "type": "address"
        }
      ],
      "name": "ScorecardSubmitted",
      "type": "event"
    },
    {
      "inputs": [],
      "name": "MAX_VOTING_POWER_TIER",
      "outputs": [
        {
          "internalType": "uint256",
          "name": "",
          "type": "uint256"
        }
      ],
      "stateMutability": "view",
      "type": "function"
    },
    {
      "inputs": [
        {
          "internalType": "uint256",
          "name": "_gameId",
          "type": "uint256"
        },
        {
          "internalType": "uint256",
          "name": "_scorecardId",
          "type": "uint256"
        }
      ],
      "name": "attestToScorecardFrom",
      "outputs": [
        {
          "internalType": "uint256",
          "name": "weight",
          "type": "uint256"
        }
      ],
      "stateMutability": "nonpayable",
      "type": "function"
    },
    {
      "inputs": [
        {
          "internalType": "uint256",
          "name": "_gameId",
          "type": "uint256"
        }
      ],
      "name": "attestationGracePeriodOf",
      "outputs": [
        {
          "internalType": "uint256",
          "name": "",
          "type": "uint256"
        }
      ],
      "stateMutability": "view",
      "type": "function"
    },
    {
      "inputs": [
        {
          "internalType": "uint256",
          "name": "_gameId",
          "type": "uint256"
        }
      ],
      "name": "attestationStartTimeOf",
      "outputs": [
        {
          "internalType": "uint256",
          "name": "",
          "type": "uint256"
        }
      ],
      "stateMutability": "view",
      "type": "function"
    },
    {
      "inputs": [],
      "name": "controller",
      "outputs": [
        {
          "internalType": "contract IJBController3_1",
          "name": "",
          "type": "address"
        }
      ],
      "stateMutability": "view",
      "type": "function"
    },
    {
      "inputs": [
        {
          "internalType": "uint256",
          "name": "",
          "type": "uint256"
        }
      ],
      "name": "defaultAttestationDelegateProposalOf",
      "outputs": [
        {
          "internalType": "uint256",
          "name": "",
          "type": "uint256"
        }
      ],
      "stateMutability": "view",
      "type": "function"
    },
    {
      "inputs": [
        {
          "internalType": "address",
          "name": "_gameDelegate",
          "type": "address"
        },
        {
          "internalType": "bytes",
          "name": "_calldata",
          "type": "bytes"
        }
      ],
      "name": "hashScorecardOf",
      "outputs": [
        {
          "internalType": "uint256",
          "name": "",
          "type": "uint256"
        }
      ],
      "stateMutability": "pure",
      "type": "function"
    },
    {
      "inputs": [
        {
          "internalType": "uint256",
          "name": "_gameId",
          "type": "uint256"
        },
        {
          "internalType": "uint256",
          "name": "_attestationStartTime",
          "type": "uint256"
        },
        {
          "internalType": "uint256",
          "name": "_attestationGracePeriod",
          "type": "uint256"
        }
      ],
      "name": "initializeGame",
      "outputs": [],
      "stateMutability": "nonpayable",
      "type": "function"
    },
    {
      "inputs": [],
      "name": "owner",
      "outputs": [
        {
          "internalType": "address",
          "name": "",
          "type": "address"
        }
      ],
      "stateMutability": "view",
      "type": "function"
    },
    {
      "inputs": [
        {
          "internalType": "uint256",
          "name": "_gameId",
          "type": "uint256"
        }
      ],
      "name": "quorum",
      "outputs": [
        {
          "internalType": "uint256",
          "name": "",
          "type": "uint256"
        }
      ],
      "stateMutability": "view",
      "type": "function"
    },
    {
      "inputs": [
        {
          "internalType": "uint256",
          "name": "",
          "type": "uint256"
        }
      ],
      "name": "ratifiedScorecardIdOf",
      "outputs": [
        {
          "internalType": "uint256",
          "name": "",
          "type": "uint256"
        }
      ],
      "stateMutability": "view",
      "type": "function"
    },
    {
      "inputs": [
        {
          "internalType": "uint256",
          "name": "_gameId",
          "type": "uint256"
        },
        {
          "components": [
            {
              "internalType": "uint256",
              "name": "id",
              "type": "uint256"
            },
            {
              "internalType": "uint256",
              "name": "redemptionWeight",
              "type": "uint256"
            }
          ],
          "internalType": "struct DefifaTierRedemptionWeight[]",
          "name": "_tierWeights",
          "type": "tuple[]"
        }
      ],
      "name": "ratifyScorecardFrom",
      "outputs": [
        {
          "internalType": "uint256",
          "name": "scorecardId",
          "type": "uint256"
        }
      ],
      "stateMutability": "nonpayable",
      "type": "function"
    },
    {
      "inputs": [],
      "name": "renounceOwnership",
      "outputs": [],
      "stateMutability": "nonpayable",
      "type": "function"
    },
    {
      "inputs": [
        {
          "internalType": "uint256",
          "name": "_gameId",
          "type": "uint256"
        },
        {
          "internalType": "uint256",
          "name": "_scorecardId",
          "type": "uint256"
        }
      ],
      "name": "stateOf",
      "outputs": [
        {
          "internalType": "enum DefifaScorecardState",
          "name": "",
          "type": "uint8"
        }
      ],
      "stateMutability": "view",
      "type": "function"
    },
    {
      "inputs": [
        {
          "internalType": "uint256",
          "name": "_gameId",
          "type": "uint256"
        },
        {
          "components": [
            {
              "internalType": "uint256",
              "name": "id",
              "type": "uint256"
            },
            {
              "internalType": "uint256",
              "name": "redemptionWeight",
              "type": "uint256"
            }
          ],
          "internalType": "struct DefifaTierRedemptionWeight[]",
          "name": "_tierWeights",
          "type": "tuple[]"
        }
      ],
      "name": "submitScorecardFor",
      "outputs": [
        {
          "internalType": "uint256",
          "name": "scorecardId",
          "type": "uint256"
        }
      ],
      "stateMutability": "nonpayable",
      "type": "function"
    },
    {
      "inputs": [
        {
          "internalType": "address",
          "name": "newOwner",
          "type": "address"
        }
      ],
      "name": "transferOwnership",
      "outputs": [],
      "stateMutability": "nonpayable",
      "type": "function"
    }
  ],
  "bytecode": {
    "object": "0x60c0346100d457601f611b0738819003918201601f19168301916001600160401b038311848410176100d95780849260409485528339810103126100d45780516001600160a01b039182821682036100d45760200151906000543360018060a01b0319821617600055604051933391167f8be0079c531659141344cd1fd0a4f28419497f9722a3daafe3b4186f6b6457e0600080a360a052608052611a1790816100f0823960805181610686015260a05181818161018601528181610313015281816105a501528181610d8801526116690152f35b600080fd5b634e487b7160e01b600052604160045260246000fdfe608080604052600436101561001357600080fd5b60003560e01c908163222e143b1461110f575080632511642914610d075780634b501fbd14610ce8578063715018a614610c775780638da5cb5b14610c5057806391fb2e9814610c1b578063a42e6c7d14610b9e578063b7e8f6da14610548578063c543882f14610501578063ce1e82d5146102c6578063f0a92a1e1461029a578063f2fde38b146101aa578063f77c479114610166578063f80c73a11461013a578063f8ce560a146101145763f94633fb146100cf57600080fd5b3461010f576100e66100e03661113f565b90611284565b60405160058210156100f9576020918152f35b634e487b7160e01b600052602160045260246000fd5b600080fd5b3461010f57602060031936011261010f576020610132600435611641565b604051908152f35b3461010f57602060031936011261010f5760043560005260046020526020604060002054604051908152f35b3461010f57600060031936011261010f5760206040516001600160a01b037f0000000000000000000000000000000000000000000000000000000000000000168152f35b3461010f57602060031936011261010f576101c3611155565b6101cb611884565b6001600160a01b0380911690811561023057600054827fffffffffffffffffffffffff0000000000000000000000000000000000000000821617600055167f8be0079c531659141344cd1fd0a4f28419497f9722a3daafe3b4186f6b6457e0600080a3005b608460405162461bcd60e51b815260206004820152602660248201527f4f776e61626c653a206e6577206f776e657220697320746865207a65726f206160448201527f64647265737300000000000000000000000000000000000000000000000000006064820152fd5b3461010f57602060031936011261010f5760043560005260056020526020604060002054604051908152f35b3461010f576102d4366111aa565b9180600052602092600584526040600020546104d75760405190638776c49960e01b82528260048301526103a0936001600160a01b03928581602481877f0000000000000000000000000000000000000000000000000000000000000000165afa9586156104cb5760009661048e575b5050610200916103539161183c565b93016103628483835116611242565b9361036d8585611284565b60058110156100f957600303610464576000928392858452600588528660408520555116828783519301915af1903d1561045d573d6103ab8161118e565b906103b9604051928361116b565b81523d60008683013e5b604051604081019181831067ffffffffffffffff84111761044757859461041593604052600d83527f4241445f53434f52454341524400000000000000000000000000000000000000888401526118dc565b507f47c473fdeacbc61881306133d8e38075619b3cfed85b1a2c9552ddd3a788dc2f84604051338152a3604051908152f35b634e487b7160e01b600052604160045260246000fd5b60606103c3565b60046040517f95c31a56000000000000000000000000000000000000000000000000000000008152fd5b6103539296506102009391816104b892903d106104c4575b6104b0818361116b565b8101906113b0565b90509591819350610344565b503d6104a6565b6040513d6000823e3d90fd5b60046040517fe63e1225000000000000000000000000000000000000000000000000000000008152fd5b3461010f57606060031936011261010f5760243561051d611884565b8015610541575b600435600052600360205260443560301b17604060002055600080f35b5042610524565b3461010f57610556366111aa565b90918060005260056020526040600020546104d75780600052600360205260406000205415610b7457604051638776c49960e01b81528160048201526103a09081816024816001600160a01b037f0000000000000000000000000000000000000000000000000000000000000000165afa9182156104cb57600092610b55575b505060005b8381106108b4575061020001916106066001600160a01b03845116610600838761183c565b90611242565b928260005260016020526040600020846000526020526040600020805465ffffffffffff80821661088a5785600052600360205280604060002054168042116000146108335750926020926001600160a01b03926004956bffffffffffffffffffffffff196bffffffffffff00000000000061070042935b6106b26106ac7f00000000000000000000000000000000000000000000000000000000000000008097611621565b436117f0565b1693847fffffffffffffffffffffffffffffffffffffffffffffffffffff00000000000087161787556106fb8d600052600360205265ffffffffffff60406000205460301c1690565b611621565b60301b169216171790555116604051928380927f174e3e050000000000000000000000000000000000000000000000000000000082525afa9081156104cb576000916107c2575b506020948493926001600160a01b037fa8529171c1868e465ad2895d671a738ffb5f0764bd6dffd13339152af5c5f3a093163314806107ae575b6107986040519384936060855260608501916117fd565b90888301523360408301520390a3604051908152f35b846000526004885285604060002055610781565b90506020929192813d60201161082b575b816107e06020938361116b565b8101031261010f5760209484936001600160a01b0361081f7fa8529171c1868e465ad2895d671a738ffb5f0764bd6dffd13339152af5c5f3a09461139c565b93505092935094610747565b3d91506107d3565b91939092428303928311610874576004946020946bffffffffffffffffffffffff196bffffffffffff0000000000006107006001600160a01b03979361067e565b634e487b7160e01b600052601160045260246000fd5b60046040517f440a4570000000000000000000000000000000000000000000000000000000008152fd5b600460206001600160a01b03610200850151166040519283809263975057e760e01b82525afa9081156104cb57600091610b26575b5060006001600160a01b0361020085015116606461090885898b6117ca565b35916001600160a01b0360405195869485937f64faa15900000000000000000000000000000000000000000000000000000000855260048501526024840152856044840152165afa9081156104cb576000916109be575b506040606082015191015114806109a7575b61097d576001016105db565b60046040517fd1f78be3000000000000000000000000000000000000000000000000000000008152fd5b5060206109b58286886117ca565b01351515610971565b90503d806000833e6109d0818361116b565b602082828101031261010f5781519167ffffffffffffffff831161010f576101809283818301848401031261010f5760405193848181011067ffffffffffffffff8287011117610447578401604090815282820180518652602080820151908701528082015191860191909152606080820151908601526080808201519086015260a0808201519086015260c090610a6990820161139c565b9085015281810160e08181015190860152610100808201519086015261012090610a9490820161138f565b90850152610140610aa8818385010161138f565b9085015261016081830101519167ffffffffffffffff831161010f57838101601f848484010101121561010f5782828201015191610ae58361118e565b94610af3604051968761116b565b8386528201602084868486010101011161010f57610b1a93602091828701930101016111fa565b6101608201528661095f565b610b48915060203d602011610b4e575b610b40818361116b565b810190611602565b866108e9565b503d610b36565b610b6b9250803d106104c4576104b0818361116b565b905084806105d6565b60046040517ffd176724000000000000000000000000000000000000000000000000000000008152fd5b3461010f57604060031936011261010f57610bb7611155565b60243567ffffffffffffffff811161010f573660238201121561010f57806004013591610be38361118e565b90610bf1604051928361116b565b838252366024858501011161010f5760006020858196602461013297018387013784010152611242565b3461010f57602060031936011261010f576020610132600435600052600360205265ffffffffffff60406000205460301c1690565b3461010f57600060031936011261010f5760206001600160a01b0360005416604051908152f35b3461010f57600060031936011261010f57610c90611884565b60006001600160a01b0381547fffffffffffffffffffffffff000000000000000000000000000000000000000081168355167f8be0079c531659141344cd1fd0a4f28419497f9722a3daafe3b4186f6b6457e08280a3005b3461010f57600060031936011261010f576020604051633b9aca008152f35b3461010f57610d153661113f565b8160005260016020526040600020816000526020526040600020610d398284611284565b60058110156100f95760018114159081611103575b506104645765ffffffffffff9054169060009160405190638776c49960e01b82528460048301526103a09182816024816001600160a01b037f0000000000000000000000000000000000000000000000000000000000000000165afa9081156104cb576004936000926110e4575b505060206001600160a01b03610200830151166040519485809263975057e760e01b82525afa9283156104cb576001600160a01b03936020916000916110c7575b506024856102008501511660405196879384927ff1bea54f0000000000000000000000000000000000000000000000000000000084526004840152165afa9283156104cb57600093611093575b5060005b838110610f3257505050508260005260026020526040600020816000526020526040600020926001840193336000528460205260ff60406000205416610f0857602094336000528552604060002060017fffffffffffffffffffffffffffffffffffffffffffffffffffffffffffffff00825416179055610ed08482546117f0565b90557fc49d39a4ac0db2fda0e72ce3ff9d5ee27f409cecd8fa183fd8bf36a05f9c788d604080518581523387820152a3604051908152f35b60046040517f944e4a31000000000000000000000000000000000000000000000000000000008152fd5b60018101811161087457606460206001600160a01b0361020085015116604051928380927f3fc751160000000000000000000000000000000000000000000000000000000082523360048301526001870160248301528860448301525afa9081156104cb57600091611061575b5080610fb8575b50600019811461087457600101610e4e565b60449060206001600160a01b03610200869a959a015116604051938480927fed94d12800000000000000000000000000000000000000000000000000000000825260018d0160048301528960248301525afa9081156104cb5760009161102b575b6110239250611920565b019487610fa6565b90506020823d602011611059575b816110466020938361116b565b8101031261010f57611023915190611019565b3d9150611039565b90506020813d60201161108b575b8161107c6020938361116b565b8101031261010f575188610f9f565b3d915061106f565b9092506020813d6020116110bf575b816110af6020938361116b565b8101031261010f57519186610e4a565b3d91506110a2565b6110de9150823d8411610b4e57610b40818361116b565b88610dfd565b6110fa9250803d106104c4576104b0818361116b565b90508680610dbc565b60039150141584610d4e565b3461010f57602060031936011261010f576020906004356000526003825265ffffffffffff604060002054168152f35b600319604091011261010f576004359060243590565b600435906001600160a01b038216820361010f57565b90601f601f19910116810190811067ffffffffffffffff82111761044757604052565b67ffffffffffffffff811161044757601f01601f191660200190565b604060031982011261010f576004359160243567ffffffffffffffff9283821161010f578060238301121561010f57816004013593841161010f5760248460061b8301011161010f576024019190565b60005b83811061120d5750506000910152565b81810151838201526020016111fd565b90601f19601f60209361123b815180928187528780880191016111fa565b0116010190565b9061127e611270916040519283916001600160a01b036020840196168652604080840152606083019061121d565b03601f19810183528261116b565b51902090565b600091818352602090600582526040918285205480611376575060018152828520828652815282852083519084820182811067ffffffffffffffff821117611362578552549065ffffffffffff90818316808252828583019460301c1684521561133957518116431115611330574391511610156113265761130584611641565b9385526002815282852091855252909120541061132157600390565b600190565b5050505050600190565b50505050505090565b600486517feb24c39f000000000000000000000000000000000000000000000000000000008152fd5b602488634e487b7160e01b81526041600452fd5b935050929050501460001461138a57600490565b600290565b5190811515820361010f57565b51906001600160a01b038216820361010f57565b80929103916103a0831261010f57610120831261010f576040805167ffffffffffffffff92919061012081018481118282101761044757825282518152602083015160208201528183015182820152606083015160608201526080830151608082015260a083015160a082015260c083015160c082015260e0830151906001600160a01b038216820361010f577ffffffffffffffffffffffffffffffffffffffffffffffffffffffffffffffee09160e08201526101008401516101008201529501610280811261010f578151936102409283860192868410838511176104475760601361010f576102a091868301908111848210176104475781526114b9610120860161138f565b83526101406114c986820161138f565b936102609485890152610160908188016114e29061138f565b6102808a01528852610180918288015160208a01526101a09384890151908a01526101c0948589015160608b01526101e096878a016115209061138f565b60808c0152610200986115348b8b0161138f565b60a08d01526115466102208c0161138f565b60c08d01528a016115569061138f565b60e08c015289016115669061138f565b6101008b01526115796102808a0161138f565b6101208b0152880161158a9061138f565b9089015261159b6102c0880161138f565b908801526115ac6102e0870161138f565b908701526115bd610300860161138f565b908601526115ce610320850161138f565b908501526115df610340840161138f565b908401526115f0610360830161139c565b90830152610380015161022082015290565b9081602091031261010f57516001600160a01b038116810361010f5790565b811561162b570490565b634e487b7160e01b600052601260045260246000fd5b6040805191638776c49960e01b835260048301526103a06001600160a01b03928181602481877f0000000000000000000000000000000000000000000000000000000000000000165afa9182156117bf579061020092916000926117a0575b50500182815116908251809263975057e760e01b825281600460209586935afa908115611795579085849392600092611775575b50602491925116855196879384927ff1bea54f0000000000000000000000000000000000000000000000000000000084526004840152165afa91821561176b575060009161173c575b50905060011c633b9aca00908181029181830414901517156108745790565b82813d8311611764575b611750818361116b565b81010312611761575051803861171d565b80fd5b503d611746565b513d6000823e3d90fd5b6024925061178f90853d8711610b4e57610b40818361116b565b916116d4565b84513d6000823e3d90fd5b6117b69250803d106104c4576104b0818361116b565b905038806116a0565b83513d6000823e3d90fd5b91908110156117da5760061b0190565b634e487b7160e01b600052603260045260246000fd5b9190820180921161087457565b9190808252602080920192916000905b82821061181b575050505090565b8335855283810135858201526040948501949093019260019091019061180d565b90611881906112706040519384927ffadd72b70000000000000000000000000000000000000000000000000000000060208501526020602485015260448401916117fd565b90565b6001600160a01b0360005416330361189857565b606460405162461bcd60e51b815260206004820152602060248201527f4f776e61626c653a2063616c6c6572206973206e6f7420746865206f776e65726044820152fd5b909190156118e8575090565b8151156118f85750805190602001fd5b61191c9060405191829162461bcd60e51b835260206004840152602483019061121d565b0390fd5b90633b9aca009060001983830992808302928380861095039480860395146119d4578285101561199d57908291096001821901821680920460028082600302188083028203028083028203028083028203028083028203028083028203028092029003029360018380600003040190848311900302920304170290565b60448584604051917f773cc18c00000000000000000000000000000000000000000000000000000000835260048301526024820152fd5b505090611881925061162156fea26469706673582212200eb1111a481fa4dabe62435b25a8b58497f692db1a00f86f3d8b17dc2330e95264736f6c63430008140033",
    "linkReferences": {}
  },
  "methodIdentifiers": {
    "MAX_VOTING_POWER_TIER()": "4b501fbd",
    "attestToScorecardFrom(uint256,uint256)": "25116429",
    "attestationGracePeriodOf(uint256)": "91fb2e98",
    "attestationStartTimeOf(uint256)": "222e143b",
    "controller()": "f77c4791",
    "defaultAttestationDelegateProposalOf(uint256)": "f80c73a1",
    "hashScorecardOf(address,bytes)": "a42e6c7d",
    "initializeGame(uint256,uint256,uint256)": "c543882f",
    "owner()": "8da5cb5b",
    "quorum(uint256)": "f8ce560a",
    "ratifiedScorecardIdOf(uint256)": "f0a92a1e",
    "ratifyScorecardFrom(uint256,(uint256,uint256)[])": "ce1e82d5",
    "renounceOwnership()": "715018a6",
    "stateOf(uint256,uint256)": "f94633fb",
    "submitScorecardFor(uint256,(uint256,uint256)[])": "b7e8f6da",
    "transferOwnership(address)": "f2fde38b"
  },
  "id": 2
}