{
  "abi": [
    {
      "inputs": [
        {
          "internalType": "uint256",
          "name": "__blockTime",
          "type": "uint256"
        }
      ],
      "stateMutability": "nonpayable",
      "type": "constructor"
    },
    {
      "inputs": [],
      "name": "ALREADY_RATIFIED",
      "type": "error"
    },
    {
      "inputs": [],
      "name": "DISABLED",
      "type": "error"
    },
    {
      "inputs": [],
      "name": "Empty",
      "type": "error"
    },
    {
      "inputs": [],
      "name": "INCORRECT_TIER_ORDER",
      "type": "error"
    },
    {
      "inputs": [
        {
          "internalType": "uint256",
          "name": "prod1",
          "type": "uint256"
        },
        {
          "internalType": "uint256",
          "name": "denominator",
          "type": "uint256"
        }
      ],
      "name": "PRBMath__MulDivOverflow",
      "type": "error"
    },
    {
      "inputs": [],
      "name": "UNOWNED_PROPOSED_REDEMPTION_VALUE",
      "type": "error"
    },
    {
      "anonymous": false,
      "inputs": [
        {
          "indexed": false,
          "internalType": "uint256",
          "name": "proposalId",
          "type": "uint256"
        }
      ],
      "name": "ProposalCanceled",
      "type": "event"
    },
    {
      "anonymous": false,
      "inputs": [
        {
          "indexed": false,
          "internalType": "uint256",
          "name": "proposalId",
          "type": "uint256"
        },
        {
          "indexed": false,
          "internalType": "address",
          "name": "proposer",
          "type": "address"
        },
        {
          "indexed": false,
          "internalType": "address[]",
          "name": "targets",
          "type": "address[]"
        },
        {
          "indexed": false,
          "internalType": "uint256[]",
          "name": "values",
          "type": "uint256[]"
        },
        {
          "indexed": false,
          "internalType": "string[]",
          "name": "signatures",
          "type": "string[]"
        },
        {
          "indexed": false,
          "internalType": "bytes[]",
          "name": "calldatas",
          "type": "bytes[]"
        },
        {
          "indexed": false,
          "internalType": "uint256",
          "name": "startBlock",
          "type": "uint256"
        },
        {
          "indexed": false,
          "internalType": "uint256",
          "name": "endBlock",
          "type": "uint256"
        },
        {
          "indexed": false,
          "internalType": "string",
          "name": "description",
          "type": "string"
        }
      ],
      "name": "ProposalCreated",
      "type": "event"
    },
    {
      "anonymous": false,
      "inputs": [
        {
          "indexed": false,
          "internalType": "uint256",
          "name": "proposalId",
          "type": "uint256"
        }
      ],
      "name": "ProposalExecuted",
      "type": "event"
    },
    {
      "anonymous": false,
      "inputs": [
        {
          "indexed": false,
          "internalType": "uint256",
          "name": "proposalId",
          "type": "uint256"
        },
        {
          "components": [
            {
              "internalType": "uint256",
              "name": "id",
              "type": "uint256"
            },
            {
              "internalType": "uint256",
              "name": "redemptionWeight",
              "type": "uint256"
            }
          ],
          "indexed": false,
          "internalType": "struct DefifaTierRedemptionWeight[]",
          "name": "tierWeights",
          "type": "tuple[]"
        },
        {
          "indexed": false,
          "internalType": "bool",
          "name": "isDefaultVotingDelegate",
          "type": "bool"
        },
        {
          "indexed": false,
          "internalType": "address",
          "name": "caller",
          "type": "address"
        }
      ],
      "name": "ScorecardSubmitted",
      "type": "event"
    },
    {
      "anonymous": false,
      "inputs": [
        {
          "indexed": true,
          "internalType": "address",
          "name": "voter",
          "type": "address"
        },
        {
          "indexed": false,
          "internalType": "uint256",
          "name": "proposalId",
          "type": "uint256"
        },
        {
          "indexed": false,
          "internalType": "uint8",
          "name": "support",
          "type": "uint8"
        },
        {
          "indexed": false,
          "internalType": "uint256",
          "name": "weight",
          "type": "uint256"
        },
        {
          "indexed": false,
          "internalType": "string",
          "name": "reason",
          "type": "string"
        }
      ],
      "name": "VoteCast",
      "type": "event"
    },
    {
      "anonymous": false,
      "inputs": [
        {
          "indexed": true,
          "internalType": "address",
          "name": "voter",
          "type": "address"
        },
        {
          "indexed": false,
          "internalType": "uint256",
          "name": "proposalId",
          "type": "uint256"
        },
        {
          "indexed": false,
          "internalType": "uint8",
          "name": "support",
          "type": "uint8"
        },
        {
          "indexed": false,
          "internalType": "uint256",
          "name": "weight",
          "type": "uint256"
        },
        {
          "indexed": false,
          "internalType": "string",
          "name": "reason",
          "type": "string"
        },
        {
          "indexed": false,
          "internalType": "bytes",
          "name": "params",
          "type": "bytes"
        }
      ],
      "name": "VoteCastWithParams",
      "type": "event"
    },
    {
      "inputs": [],
      "name": "BALLOT_TYPEHASH",
      "outputs": [
        {
          "internalType": "bytes32",
          "name": "",
          "type": "bytes32"
        }
      ],
      "stateMutability": "view",
      "type": "function"
    },
    {
      "inputs": [],
      "name": "COUNTING_MODE",
      "outputs": [
        {
          "internalType": "string",
          "name": "",
          "type": "string"
        }
      ],
      "stateMutability": "pure",
      "type": "function"
    },
    {
      "inputs": [],
      "name": "EXTENDED_BALLOT_TYPEHASH",
      "outputs": [
        {
          "internalType": "bytes32",
          "name": "",
          "type": "bytes32"
        }
      ],
      "stateMutability": "view",
      "type": "function"
    },
    {
      "inputs": [],
      "name": "MAX_VOTING_POWER_TIER",
      "outputs": [
        {
          "internalType": "uint256",
          "name": "",
          "type": "uint256"
        }
      ],
      "stateMutability": "view",
      "type": "function"
    },
    {
      "inputs": [
        {
          "internalType": "uint256",
          "name": "_scorecardId",
          "type": "uint256"
        }
      ],
      "name": "attestToScorecard",
      "outputs": [],
      "stateMutability": "nonpayable",
      "type": "function"
    },
    {
      "inputs": [
        {
          "internalType": "uint256",
          "name": "_scorecardId",
          "type": "uint256"
        },
        {
          "internalType": "bytes",
          "name": "params",
          "type": "bytes"
        }
      ],
      "name": "attestToScorecardWithReasonAndParams",
      "outputs": [],
      "stateMutability": "nonpayable",
      "type": "function"
    },
    {
      "inputs": [
        {
          "internalType": "uint256",
          "name": "proposalId",
          "type": "uint256"
        },
        {
          "internalType": "uint8",
          "name": "support",
          "type": "uint8"
        }
      ],
      "name": "castVote",
      "outputs": [
        {
          "internalType": "uint256",
          "name": "",
          "type": "uint256"
        }
      ],
      "stateMutability": "nonpayable",
      "type": "function"
    },
    {
      "inputs": [
        {
          "internalType": "uint256",
          "name": "proposalId",
          "type": "uint256"
        },
        {
          "internalType": "uint8",
          "name": "support",
          "type": "uint8"
        },
        {
          "internalType": "uint8",
          "name": "v",
          "type": "uint8"
        },
        {
          "internalType": "bytes32",
          "name": "r",
          "type": "bytes32"
        },
        {
          "internalType": "bytes32",
          "name": "s",
          "type": "bytes32"
        }
      ],
      "name": "castVoteBySig",
      "outputs": [
        {
          "internalType": "uint256",
          "name": "",
          "type": "uint256"
        }
      ],
      "stateMutability": "nonpayable",
      "type": "function"
    },
    {
      "inputs": [
        {
          "internalType": "uint256",
          "name": "proposalId",
          "type": "uint256"
        },
        {
          "internalType": "uint8",
          "name": "support",
          "type": "uint8"
        },
        {
          "internalType": "string",
          "name": "reason",
          "type": "string"
        }
      ],
      "name": "castVoteWithReason",
      "outputs": [
        {
          "internalType": "uint256",
          "name": "",
          "type": "uint256"
        }
      ],
      "stateMutability": "nonpayable",
      "type": "function"
    },
    {
      "inputs": [
        {
          "internalType": "uint256",
          "name": "proposalId",
          "type": "uint256"
        },
        {
          "internalType": "uint8",
          "name": "support",
          "type": "uint8"
        },
        {
          "internalType": "string",
          "name": "reason",
          "type": "string"
        },
        {
          "internalType": "bytes",
          "name": "params",
          "type": "bytes"
        }
      ],
      "name": "castVoteWithReasonAndParams",
      "outputs": [
        {
          "internalType": "uint256",
          "name": "",
          "type": "uint256"
        }
      ],
      "stateMutability": "nonpayable",
      "type": "function"
    },
    {
      "inputs": [
        {
          "internalType": "uint256",
          "name": "proposalId",
          "type": "uint256"
        },
        {
          "internalType": "uint8",
          "name": "support",
          "type": "uint8"
        },
        {
          "internalType": "string",
          "name": "reason",
          "type": "string"
        },
        {
          "internalType": "bytes",
          "name": "params",
          "type": "bytes"
        },
        {
          "internalType": "uint8",
          "name": "v",
          "type": "uint8"
        },
        {
          "internalType": "bytes32",
          "name": "r",
          "type": "bytes32"
        },
        {
          "internalType": "bytes32",
          "name": "s",
          "type": "bytes32"
        }
      ],
      "name": "castVoteWithReasonAndParamsBySig",
      "outputs": [
        {
          "internalType": "uint256",
          "name": "",
          "type": "uint256"
        }
      ],
      "stateMutability": "nonpayable",
      "type": "function"
    },
    {
      "inputs": [],
      "name": "codeOrigin",
      "outputs": [
        {
          "internalType": "address",
          "name": "",
          "type": "address"
        }
      ],
      "stateMutability": "view",
      "type": "function"
    },
    {
      "inputs": [],
      "name": "defaultVotingDelegateProposal",
      "outputs": [
        {
          "internalType": "uint256",
          "name": "",
          "type": "uint256"
        }
      ],
      "stateMutability": "view",
      "type": "function"
    },
    {
      "inputs": [],
      "name": "delegate",
      "outputs": [
        {
          "internalType": "contract IDefifaDelegate",
          "name": "",
          "type": "address"
        }
      ],
      "stateMutability": "view",
      "type": "function"
    },
    {
      "inputs": [
        {
          "internalType": "address[]",
          "name": "_targets",
          "type": "address[]"
        },
        {
          "internalType": "uint256[]",
          "name": "_values",
          "type": "uint256[]"
        },
        {
          "internalType": "bytes[]",
          "name": "_calldatas",
          "type": "bytes[]"
        },
        {
          "internalType": "bytes32",
          "name": "_descriptionHash",
          "type": "bytes32"
        }
      ],
      "name": "execute",
      "outputs": [
        {
          "internalType": "uint256",
          "name": "",
          "type": "uint256"
        }
      ],
      "stateMutability": "payable",
      "type": "function"
    },
    {
      "inputs": [
        {
          "internalType": "address",
          "name": "account",
          "type": "address"
        },
        {
          "internalType": "uint256",
          "name": "blockNumber",
          "type": "uint256"
        }
      ],
      "name": "getVotes",
      "outputs": [
        {
          "internalType": "uint256",
          "name": "",
          "type": "uint256"
        }
      ],
      "stateMutability": "view",
      "type": "function"
    },
    {
      "inputs": [
        {
          "internalType": "address",
          "name": "account",
          "type": "address"
        },
        {
          "internalType": "uint256",
          "name": "blockNumber",
          "type": "uint256"
        },
        {
          "internalType": "bytes",
          "name": "params",
          "type": "bytes"
        }
      ],
      "name": "getVotesWithParams",
      "outputs": [
        {
          "internalType": "uint256",
          "name": "",
          "type": "uint256"
        }
      ],
      "stateMutability": "view",
      "type": "function"
    },
    {
      "inputs": [
        {
          "internalType": "uint256",
          "name": "proposalId",
          "type": "uint256"
        },
        {
          "internalType": "address",
          "name": "account",
          "type": "address"
        }
      ],
      "name": "hasVoted",
      "outputs": [
        {
          "internalType": "bool",
          "name": "",
          "type": "bool"
        }
      ],
      "stateMutability": "view",
      "type": "function"
    },
    {
      "inputs": [
        {
          "internalType": "address[]",
          "name": "targets",
          "type": "address[]"
        },
        {
          "internalType": "uint256[]",
          "name": "values",
          "type": "uint256[]"
        },
        {
          "internalType": "bytes[]",
          "name": "calldatas",
          "type": "bytes[]"
        },
        {
          "internalType": "bytes32",
          "name": "descriptionHash",
          "type": "bytes32"
        }
      ],
      "name": "hashProposal",
      "outputs": [
        {
          "internalType": "uint256",
          "name": "",
          "type": "uint256"
        }
      ],
      "stateMutability": "pure",
      "type": "function"
    },
    {
      "inputs": [
        {
          "internalType": "contract IDefifaDelegate",
          "name": "_delegate",
          "type": "address"
        },
        {
          "internalType": "uint256",
          "name": "_votingStartTime",
          "type": "uint256"
        },
        {
          "internalType": "uint256",
          "name": "_votingPeriod",
          "type": "uint256"
        }
      ],
      "name": "initialize",
      "outputs": [],
      "stateMutability": "nonpayable",
      "type": "function"
    },
    {
      "inputs": [],
      "name": "name",
      "outputs": [
        {
          "internalType": "string",
          "name": "",
          "type": "string"
        }
      ],
      "stateMutability": "view",
      "type": "function"
    },
    {
      "inputs": [
        {
          "internalType": "address",
          "name": "",
          "type": "address"
        },
        {
          "internalType": "address",
          "name": "",
          "type": "address"
        },
        {
          "internalType": "uint256[]",
          "name": "",
          "type": "uint256[]"
        },
        {
          "internalType": "uint256[]",
          "name": "",
          "type": "uint256[]"
        },
        {
          "internalType": "bytes",
          "name": "",
          "type": "bytes"
        }
      ],
      "name": "onERC1155BatchReceived",
      "outputs": [
        {
          "internalType": "bytes4",
          "name": "",
          "type": "bytes4"
        }
      ],
      "stateMutability": "nonpayable",
      "type": "function"
    },
    {
      "inputs": [
        {
          "internalType": "address",
          "name": "",
          "type": "address"
        },
        {
          "internalType": "address",
          "name": "",
          "type": "address"
        },
        {
          "internalType": "uint256",
          "name": "",
          "type": "uint256"
        },
        {
          "internalType": "uint256",
          "name": "",
          "type": "uint256"
        },
        {
          "internalType": "bytes",
          "name": "",
          "type": "bytes"
        }
      ],
      "name": "onERC1155Received",
      "outputs": [
        {
          "internalType": "bytes4",
          "name": "",
          "type": "bytes4"
        }
      ],
      "stateMutability": "nonpayable",
      "type": "function"
    },
    {
      "inputs": [
        {
          "internalType": "address",
          "name": "",
          "type": "address"
        },
        {
          "internalType": "address",
          "name": "",
          "type": "address"
        },
        {
          "internalType": "uint256",
          "name": "",
          "type": "uint256"
        },
        {
          "internalType": "bytes",
          "name": "",
          "type": "bytes"
        }
      ],
      "name": "onERC721Received",
      "outputs": [
        {
          "internalType": "bytes4",
          "name": "",
          "type": "bytes4"
        }
      ],
      "stateMutability": "nonpayable",
      "type": "function"
    },
    {
      "inputs": [
        {
          "internalType": "uint256",
          "name": "proposalId",
          "type": "uint256"
        }
      ],
      "name": "proposalDeadline",
      "outputs": [
        {
          "internalType": "uint256",
          "name": "",
          "type": "uint256"
        }
      ],
      "stateMutability": "view",
      "type": "function"
    },
    {
      "inputs": [
        {
          "internalType": "uint256",
          "name": "proposalId",
          "type": "uint256"
        }
      ],
      "name": "proposalSnapshot",
      "outputs": [
        {
          "internalType": "uint256",
          "name": "",
          "type": "uint256"
        }
      ],
      "stateMutability": "view",
      "type": "function"
    },
    {
      "inputs": [],
      "name": "proposalThreshold",
      "outputs": [
        {
          "internalType": "uint256",
          "name": "",
          "type": "uint256"
        }
      ],
      "stateMutability": "pure",
      "type": "function"
    },
    {
      "inputs": [
        {
          "internalType": "uint256",
          "name": "proposalId",
          "type": "uint256"
        }
      ],
      "name": "proposalVotes",
      "outputs": [
        {
          "internalType": "uint256",
          "name": "againstVotes",
          "type": "uint256"
        },
        {
          "internalType": "uint256",
          "name": "forVotes",
          "type": "uint256"
        },
        {
          "internalType": "uint256",
          "name": "abstainVotes",
          "type": "uint256"
        }
      ],
      "stateMutability": "view",
      "type": "function"
    },
    {
      "inputs": [
        {
          "internalType": "address[]",
          "name": "_targets",
          "type": "address[]"
        },
        {
          "internalType": "uint256[]",
          "name": "_values",
          "type": "uint256[]"
        },
        {
          "internalType": "bytes[]",
          "name": "_calldatas",
          "type": "bytes[]"
        },
        {
          "internalType": "string",
          "name": "_description",
          "type": "string"
        }
      ],
      "name": "propose",
      "outputs": [
        {
          "internalType": "uint256",
          "name": "",
          "type": "uint256"
        }
      ],
      "stateMutability": "nonpayable",
      "type": "function"
    },
    {
      "inputs": [
        {
          "internalType": "uint256",
          "name": "",
          "type": "uint256"
        }
      ],
      "name": "quorum",
      "outputs": [
        {
          "internalType": "uint256",
          "name": "",
          "type": "uint256"
        }
      ],
      "stateMutability": "view",
      "type": "function"
    },
    {
      "inputs": [],
      "name": "ratifiedProposal",
      "outputs": [
        {
          "internalType": "uint256",
          "name": "",
          "type": "uint256"
        }
      ],
      "stateMutability": "view",
      "type": "function"
    },
    {
      "inputs": [
        {
          "components": [
            {
              "internalType": "uint256",
              "name": "id",
              "type": "uint256"
            },
            {
              "internalType": "uint256",
              "name": "redemptionWeight",
              "type": "uint256"
            }
          ],
          "internalType": "struct DefifaTierRedemptionWeight[]",
          "name": "_tierWeights",
          "type": "tuple[]"
        }
      ],
      "name": "ratifyScorecard",
      "outputs": [
        {
          "internalType": "uint256",
          "name": "proposalId",
          "type": "uint256"
        }
      ],
      "stateMutability": "nonpayable",
      "type": "function"
    },
    {
      "inputs": [
        {
          "internalType": "address",
          "name": "target",
          "type": "address"
        },
        {
          "internalType": "uint256",
          "name": "value",
          "type": "uint256"
        },
        {
          "internalType": "bytes",
          "name": "data",
          "type": "bytes"
        }
      ],
      "name": "relay",
      "outputs": [],
      "stateMutability": "payable",
      "type": "function"
    },
    {
      "inputs": [
        {
          "internalType": "uint256",
          "name": "_proposalId",
          "type": "uint256"
        }
      ],
      "name": "state",
      "outputs": [
        {
          "internalType": "enum IGovernor.ProposalState",
          "name": "",
          "type": "uint8"
        }
      ],
      "stateMutability": "view",
      "type": "function"
    },
    {
      "inputs": [
        {
          "components": [
            {
              "internalType": "uint256",
              "name": "id",
              "type": "uint256"
            },
            {
              "internalType": "uint256",
              "name": "redemptionWeight",
              "type": "uint256"
            }
          ],
          "internalType": "struct DefifaTierRedemptionWeight[]",
          "name": "_tierWeights",
          "type": "tuple[]"
        }
      ],
      "name": "submitScorecard",
      "outputs": [
        {
          "internalType": "uint256",
          "name": "proposalId",
          "type": "uint256"
        }
      ],
      "stateMutability": "nonpayable",
      "type": "function"
    },
    {
      "inputs": [
        {
          "internalType": "bytes4",
          "name": "interfaceId",
          "type": "bytes4"
        }
      ],
      "name": "supportsInterface",
      "outputs": [
        {
          "internalType": "bool",
          "name": "",
          "type": "bool"
        }
      ],
      "stateMutability": "view",
      "type": "function"
    },
    {
      "inputs": [],
      "name": "version",
      "outputs": [
        {
          "internalType": "string",
          "name": "",
          "type": "string"
        }
      ],
      "stateMutability": "view",
      "type": "function"
    },
    {
      "inputs": [],
      "name": "votingDelay",
      "outputs": [
        {
          "internalType": "uint256",
          "name": "",
          "type": "uint256"
        }
      ],
      "stateMutability": "view",
      "type": "function"
    },
    {
      "inputs": [],
      "name": "votingPeriod",
      "outputs": [
        {
          "internalType": "uint256",
          "name": "",
          "type": "uint256"
        }
      ],
      "stateMutability": "view",
      "type": "function"
    },
    {
      "inputs": [],
      "name": "votingStartTime",
      "outputs": [
        {
          "internalType": "uint256",
          "name": "",
          "type": "uint256"
        }
      ],
      "stateMutability": "view",
      "type": "function"
    },
    {
      "stateMutability": "payable",
      "type": "receive"
    }
  ],
  "bytecode": {
    "object": "0x61018034620002d4576001600160401b03601f196200351c38819003601f81018316850192919085841085851117620002be5780869260409586528339602095869181010312620002d45751908251906200005a82620002d9565b600e8252858201946d2232b334b330a3b7bb32b93737b960911b86528685516200008481620002d9565b60019181838093520197603160f81b8952855190209720978760e05261010098808a524660a0528751828101917f8b73c3c69bb8fe3d512ecc4cf759cc79239f7b179b0ffacaa9a75d522b39400f9a8b84528a83015260608201524660808201523060a082015260a0815260c0810181811086821117620002be5789525190206080523060c0526101209788528451928311620002be5760009485548381811c91168015620002b3575b838210146200029f57601f811162000254575b5081601f8511600114620001ee5750839450908392918694620001e2575b50501b916000199060031b1c19161790555b6101609130835261014091825251926132269485620002f6863960805185612fd5015260a0518561308a015260c05185612fa6015260e051856130240152518461304a01525183613001015251828181610cc601528181611a5501526125b101525181818161102401526117660152f35b0151925038806200015f565b9294849081168780528488209488905b888383106200023957505050106200021f575b505050811b01905562000171565b015160001960f88460031b161c1916905538808062000211565b858701518855909601959485019487935090810190620001fe565b868052828720601f860160051c81019184871062000294575b601f0160051c019084905b8281106200028857505062000141565b88815501849062000278565b90915081906200026d565b634e487b7160e01b87526022600452602487fd5b90607f16906200012e565b634e487b7160e01b600052604160045260246000fd5b600080fd5b604081019081106001600160401b03821117620002be5760405256fe6080604081815260049081361015610022575b505050361561002057600080fd5b005b60009260e08435811c91826301ffc9a714611a7a5750816302a251a314611a38578163034201811461192f57816306fdde0314611819578163150b7a02146117a957816319f825361461178a5781631d153ca4146117465781632019a608146117275781632656227d1461151d5781632d63f693146114eb5781632fe3e261146114b05781633932abb1146114935781633bccf4fd146113da5781633e4f49e614611395578163438596321461134c5781634b501fbd1461132d578163544ffc9c146112ef57816354fd4d5014611292578163567813881461125a57816356e258a51461123b5781635f398a14146111c657816364d87a61146110895781637a1ac61e14610ffa5781637b3c71d314610f995781637c8bd0ed14610f4d5781637d5e81e214610b8f5781639a802a6d14610b4b578163b58131b014610b30578163bc197c8114610a8f578163c01f9e3714610a52578163c28bc2fa14610941578163c59057e414610922578163c89e4361146108fa578163d1fb9e0a146108db578163d8844e2f1461044d57508063dd4e2ba5146103ec578063deaaa7cc146103b1578063eb9019d414610378578063f23a6e61146103095763f8ce560a0361001257346103055760209283600319360112610302576001600160a01b03806006541683519063975057e760e01b825286828781845afa9182156102f8579087929185926102c6575b506024908651948593849263f1bea54f60e01b84528a840152165afa9081156102bc57829161028b575b5060011c92633b9aca009384810294818604149015171561027857505051908152f35b906011602492634e487b7160e01b835252fd5b90508481813d83116102b5575b6102a28183611c60565b810103126102b1575138610255565b5080fd5b503d610298565b83513d84823e3d90fd5b60249192506102ea90843d86116102f1575b6102e28183611c60565b810190611f7d565b919061022b565b503d6102d8565b85513d86823e3d90fd5b80fd5b8280fd5b5082346103025760a060031936011261030257610324611d3c565b5061032d611d52565b506084359067ffffffffffffffff8211610302575060209261035191369101611cd6565b50517ff23a6e61000000000000000000000000000000000000000000000000000000008152f35b8382346102b157806003193601126102b1576020906103aa610398611d3c565b6103a0612208565b906024359061272e565b9051908152f35b8382346102b157816003193601126102b157602090517f150214d74d59b7d1e90c73fc22ef3d991dd0a76b046543d4d80ab92d2a50328f8152f35b8382346102b157816003193601126102b15780516104499161040d82611c44565b602082527f737570706f72743d627261766f2671756f72756d3d666f722c6162737461696e602083015251918291602083526020830190611d17565b0390f35b84929150346103055761045f36611f30565b909184906001600160a01b03918260065416905b8481106106665750505084608495966104f561048f8587612109565b6104e56104d18b9d949d959395519d8e9d8e7f7d5e81e200000000000000000000000000000000000000000000000000000000815260808a8201520190611fe3565b600319958d60248882850301910152612020565b90848c83030160448d0152612054565b89810392830160648b015252602098898092018185305af196871561065c57829761062d575b508783600654168751928380927f174e3e050000000000000000000000000000000000000000000000000000000082525afa9182156106225780926105c3575b5050907f3d4a25cde9b27ef1284f243f985636582a92327dbbb0f27bf8d8d02026cf75cf939291163314806105ba575b6105a6855193849388855260808a86015260808501916120a9565b90858301523360608301520390a151908152f35b8560085561058b565b9091508782813d831161061b575b6105db8183611c60565b810103126103025750906106117f3d4a25cde9b27ef1284f243f985636582a92327dbbb0f27bf8d8d02026cf75cf949392611fc2565b909192938861055b565b503d6105d1565b8651903d90823e3d90fd5b9096508781813d8311610655575b6106458183611c60565b810103126102b15751958861051b565b503d61063b565b86513d84823e3d90fd5b865163975057e760e01b815260209081818c81875afa9081156108d1578a858d89878c8f968f9087996108a3575b50916106a4916064959493611f9c565b35955196879485937f64faa15900000000000000000000000000000000000000000000000000000000855284015260249687840152856044840152165afa918215610899578b9261074f575b5050886060820151910151149081610738575b5061071057600101610473565b8887517fd1f78be3000000000000000000000000000000000000000000000000000000008152fd5b9050610745828789611f9c565b013515158a610703565b9091503d808c833e6107618183611c60565b8101838282031261089557815167ffffffffffffffff9283821161087a57019161018093848484031261087a578c51948501908582108383111761088257508c528251845284830151858501528b8301518c850152606080840151908501526080808401519085015260a0808401519085015260c06107e1818501611fc2565b9085015287830151888501526101008084015190850152610120610806818501611fd6565b90850152610140610818818501611fd6565b90850152610160928381015191821161087a570181601f8201121561087e5790818c9392519161085361084a84611c83565b95519586611c60565b82855286838301011161087a579061087091868086019101611cf4565b8201528b806106f0565b8d80fd5b8c80fd5b8f8f90604190634e487b7160e01b835252fd5b8b80fd5b8a513d8d823e3d90fd5b6064959493919950916108c56106a4938c8d3d106102f1576102e28183611c60565b99919394955091610694565b89513d8c823e3d90fd5b8483346102b157816003193601126102b1576020906009549051908152f35b8483346102b157816003193601126102b1576020906001600160a01b03600654169051908152f35b8483346102b1576020906103aa61093836611ecd565b929190916125d6565b82858560606003193601126102b157610958611d3c565b9060443567ffffffffffffffff8111610a4e576109789036908301611b90565b91303303610a0b575083610a079383829388958651928392833781018481520391602435905af16109a76126fe565b907f206d6573736167650000000000000000000000000000000000000000000000008351936109d585611c0c565b602885527f476f7665726e6f723a2072656c617920726576657274656420776974686f75746020860152840152612d4b565b5080f35b606490602087519162461bcd60e51b8352820152601860248201527f476f7665726e6f723a206f6e6c79476f7665726e616e636500000000000000006044820152fd5b8380fd5b5050903461030557602060031936011261030557610a8660018360209567ffffffffffffffff94358152828752200161263a565b51169051908152f35b505082346103025760a060031936011261030257610aab611d3c565b50610ab4611d52565b5067ffffffffffffffff906044358281116102b157610ad69036908601611dee565b506064358281116102b157610aee9036908601611dee565b506084359182116103025750602092610b0991369101611cd6565b50517fbc197c81000000000000000000000000000000000000000000000000000000008152f35b8483346102b157816003193601126102b15751908152602090f35b5050903461030557606060031936011261030557610b67611d3c565b926044359067ffffffffffffffff82116103025750926103a06103aa92602095369101611cd6565b838584346102b15760806003193601126102b15767ffffffffffffffff8335818111610a4e57610bc29036908601611d80565b602435828111610f4957610bd99036908701611dee565b94604435838111610f4557610bf19036908301611e4c565b96606435848111610f415736602382011215610f4157610c1a9036906024818601359101611c9f565b92303303610f19576000194301438111610f0657610c4190610c3a612208565b903361272e565b50835198610c5760209a8b870120828b856125d6565b97610c6583518b5114612662565b610c728351835114612662565b825115610ec45788815260018b528781209487610c8e8761263a565b5116610e5c5750610cb7610ca1436130b0565b610cb1610cac612593565b6130b0565b906126d3565b87610cf1610ceb610cac6005547f000000000000000000000000000000000000000000000000000000000000000090612573565b836126d3565b91169760017fffffffffffffffffffffffffffffffffffffffffffffffff0000000000000000978a898254161781550191168096825416179055610d568b845194610d3b86611d68565b95610d488c519788611c60565b808752601f19938491611d68565b01845b818110610e4d5750508b9c610d89610d97928d9e9d80519e8f908152338782015261012080928201520190611fe3565b8c810360608e015290612020565b8a810360808c01528551928382528282019183808660051b830101980195935b858510610e21575050505050505092869592610e0183610e1896897f7d84a6263ae0d98d3329bd7b46bb4e8d6f98cd35a7adb45c274c8b7fd5ebd5e09b99960360a08a0152612054565b9360c0870152850152838203610100850152611d17565b0390a151908152f35b80610e3c8a85856001969798999a9b9d030188528b51611d17565b99019401940192949391908f610db7565b60608882018501528301610d59565b6084908c8a519162461bcd60e51b8352820152602160248201527f476f7665726e6f723a2070726f706f73616c20616c726561647920657869737460448201527f73000000000000000000000000000000000000000000000000000000000000006064820152fd5b6064858c8a519162461bcd60e51b8352820152601860248201527f476f7665726e6f723a20656d7074792070726f706f73616c00000000000000006044820152fd5b602488601186634e487b7160e01b835252fd5b8286517facb78998000000000000000000000000000000000000000000000000000000008152fd5b8680fd5b8580fd5b8480fd5b5050346103055780600319360112610305576024359167ffffffffffffffff8311610a4e57610f82610a079336908301611cd6565b915190610f8e82611bf0565b848252339035612971565b5050823461030257606060031936011261030257610fb5611b7b565b906044359067ffffffffffffffff82116103025750926103aa91610fe8610fe160209636908501611b90565b3691611c9f565b90610ff1612208565b92339035612ba4565b505050346102b15760606003193601126102b157356001600160a01b0380821680920361030557807f000000000000000000000000000000000000000000000000000000000000000016301461030557600654908116610305577fffffffffffffffffffffffff0000000000000000000000000000000000000000161760065560243560075560443560055580f35b505034610305576110a261109c36611f30565b90612109565b60099492945461119e57916111156080926020946111066110f38851998a9788977f2656227d0000000000000000000000000000000000000000000000000000000089528801526084870190611fe3565b6003199384878303016024880152612020565b91848303016044850152612054565b7fc5d2460186f7233c927e7db2dcc703c0e500b653ca82273b7bfad8045d85a4706064830152038186305af191821561119457839261115d575b602083838160095551908152f35b9091506020813d821161118c575b8161117860209383611c60565b81010312610305576020925051903861114f565b3d915061116b565b81513d85823e3d90fd5b8284517fe63e1225000000000000000000000000000000000000000000000000000000008152fd5b50509034610305576080600319360112610305576111e2611b7b565b67ffffffffffffffff936044358581116102b1576112039036908501611b90565b9590916064359182116103025750916112326103aa949261122a6020989536908601611cd6565b943691611c9f565b91339035612ba4565b8483346102b157816003193601126102b1576020906008549051908152f35b505090346103055781600319360112610305576103aa9060209361127c611b7b565b84519161128883611bf0565b8252610ff1612208565b8483346102b157816003193601126102b1578051610449916112b382611c44565b600182527f3100000000000000000000000000000000000000000000000000000000000000602083015251918291602083526020830190611d17565b505090346103055760206003193601126103055760609281839235825260205220805491600260018301549201549181519384526020840152820152f35b8483346102b157816003193601126102b15760209051633b9aca008152f35b505090346103055781600319360112610305578160209360ff9261136e611d52565b908035835286526001600160a01b0360038484200191168252855220541690519015158152f35b838584346102b15760206003193601126102b1576113b38335612367565b90519160088210156113c757602083838152f35b80602185634e487b7160e01b6024945252fd5b505090346103055760a060031936011261030557356113f7611b7b565b60443560ff81168103610f4957936103aa929161147761146f6020978751898101917f150214d74d59b7d1e90c73fc22ef3d991dd0a76b046543d4d80ab92d2a50328f8352878a83015260ff861660608301526060825261145782611c28565b61146a6084359360643593519020612f50565b612ec1565b919091612d8f565b85519261148384611bf0565b835261148d612208565b93612ba4565b8483346102b157816003193601126102b1576020906103aa612593565b8483346102b157816003193601126102b157602090517fb3b3f3b703cd84ce352197dcff232b1b5d3cfb2025ce47cf04742d0651f1af888152f35b5050903461030557602060031936011261030557610a868260209467ffffffffffffffff93358152600186522061263a565b83858461152936611ecd565b929190923033036116ff57611540908483856125d6565b9561154a87612367565b60088110156116ec578181149081156116e1575b501561167857508585526001927f712ae1383f79ac853f8d882153778e0260ef8f03b504e2866e0593e04d2b291f602080988682526002888a20018760ff198254161790558751908152a18451926115b584611c0c565b602784527f476f7665726e6f723a2063616c6c20726576657274656420776974686f757420888501527f6d657373616765000000000000000000000000000000000000000000000000008685015286855b611614575b88888851908152f35b81518110156116735780611667868a808d6001600160a01b0361163a61166d988a6120f5565b5116611646878c6120f5565b51611651888c6120f5565b5180519301915af16116616126fe565b90612d4b565b506126ef565b85611606565b61160b565b608490602086519162461bcd60e51b8352820152602160248201527f476f7665726e6f723a2070726f706f73616c206e6f742073756363657373667560448201527f6c000000000000000000000000000000000000000000000000000000000000006064820152fd5b60059150148861155e565b602487602184634e487b7160e01b835252fd5b8685517facb78998000000000000000000000000000000000000000000000000000000008152fd5b8483346102b157816003193601126102b1576020906007549051908152f35b8483346102b157816003193601126102b157602090516001600160a01b037f0000000000000000000000000000000000000000000000000000000000000000168152f35b50503461030557602060031936011261030557610a0791610f82612208565b50508234610302576080600319360112610302576117c5611d3c565b506117ce611d52565b506064359067ffffffffffffffff821161030257506020926117f291369101611cd6565b50517f150b7a02000000000000000000000000000000000000000000000000000000008152f35b5050823461030257806003193601126103025781519181825492600184811c91818616958615611925575b6020968785108114611912578899509688969785829a5291826000146118eb575050600114611890575b5050506104499291611881910385611c60565b51928284938452830190611d17565b91908693508280527f290decd9548b62a8d60345a988386fc84ba6bc95484008f6362f93160ef3e5635b8284106118d3575050508201018161188161044961186e565b8054848a0186015288955087949093019281016118ba565b60ff19168782015293151560051b860190930193508492506118819150610449905061186e565b60248360228c634e487b7160e01b835252fd5b92607f1692611844565b8493915034610a4e576003193601126103055780359061194d611b7b565b9067ffffffffffffffff604435818111610f415761196e9036908401611b90565b919092606435918211611a345761198791369101611cd6565b956084359060ff821682036103025750611a2e6103aa95936020989593611a2689610fe1956119b7368587611c9f565b8d8151910120908a518e8c01208351928f8c908501957fb3b3f3b703cd84ce352197dcff232b1b5d3cfb2025ce47cf04742d0651f1af88875285015260ff8b166060850152608084015260a083015260a08252611a1382611bbe565b61146a60c4359360a43593519020612f50565b949094612d8f565b92612ba4565b8780fd5b8483346102b157816003193601126102b1576020906103aa6005547f000000000000000000000000000000000000000000000000000000000000000090612573565b8590853461030557602060031936011261030557357fffffffff00000000000000000000000000000000000000000000000000000000811680910361030557602092507fbf26d897000000000000000000000000000000000000000000000000000000008114908115611b51575b8115611b27575b8115611afd575b5015158152f35b7f01ffc9a70000000000000000000000000000000000000000000000000000000091501483611af6565b7f4e2312e00000000000000000000000000000000000000000000000000000000081149150611aef565b7f79dd796f0000000000000000000000000000000000000000000000000000000081149150611ae8565b6024359060ff82168203611b8b57565b600080fd5b9181601f84011215611b8b5782359167ffffffffffffffff8311611b8b5760208381860195010111611b8b57565b60c0810190811067ffffffffffffffff821117611bda57604052565b634e487b7160e01b600052604160045260246000fd5b6020810190811067ffffffffffffffff821117611bda57604052565b6060810190811067ffffffffffffffff821117611bda57604052565b6080810190811067ffffffffffffffff821117611bda57604052565b6040810190811067ffffffffffffffff821117611bda57604052565b90601f601f19910116810190811067ffffffffffffffff821117611bda57604052565b67ffffffffffffffff8111611bda57601f01601f191660200190565b929192611cab82611c83565b91611cb96040519384611c60565b829481845281830111611b8b578281602093846000960137010152565b9080601f83011215611b8b57816020611cf193359101611c9f565b90565b60005b838110611d075750506000910152565b8181015183820152602001611cf7565b90601f19601f602093611d3581518092818752878088019101611cf4565b0116010190565b600435906001600160a01b0382168203611b8b57565b602435906001600160a01b0382168203611b8b57565b67ffffffffffffffff8111611bda5760051b60200190565b81601f82011215611b8b57803591611d9783611d68565b92611da56040519485611c60565b808452602092838086019260051b820101928311611b8b578301905b828210611dcf575050505090565b81356001600160a01b0381168103611b8b578152908301908301611dc1565b81601f82011215611b8b57803591611e0583611d68565b92611e136040519485611c60565b808452602092838086019260051b820101928311611b8b578301905b828210611e3d575050505090565b81358152908301908301611e2f565b9080601f83011215611b8b57813590611e6482611d68565b92611e726040519485611c60565b828452602092838086019160051b83010192808411611b8b57848301915b848310611ea05750505050505090565b823567ffffffffffffffff8111611b8b578691611ec284848094890101611cd6565b815201920191611e90565b6080600319820112611b8b5767ffffffffffffffff91600435838111611b8b5782611efa91600401611d80565b92602435818111611b8b5783611f1291600401611dee565b92604435918211611b8b57611f2991600401611e4c565b9060643590565b906020600319830112611b8b5760043567ffffffffffffffff92838211611b8b5780602383011215611b8b578160040135938411611b8b5760248460061b83010111611b8b576024019190565b90816020910312611b8b57516001600160a01b0381168103611b8b5790565b9190811015611fac5760061b0190565b634e487b7160e01b600052603260045260246000fd5b51906001600160a01b0382168203611b8b57565b51908115158203611b8b57565b90815180825260208080930193019160005b828110612003575050505090565b83516001600160a01b031685529381019392810192600101611ff5565b90815180825260208080930193019160005b828110612040575050505090565b835185529381019392810192600101612032565b90815180825260208092019182818360051b85019501936000915b84831061207f5750505050505090565b909192939495848061209983856001950387528a51611d17565b980193019301919493929061206f565b9190808252602080920192916000905b8282106120c7575050505090565b833585528381013585820152604094850194909301926001909101906120b9565b805115611fac5760200190565b8051821015611fac5760209160051b010190565b909160405161211781611c44565b600181526020928336818401376001600160a01b0360065416612139836120e8565b526121a06040519561214a87611c44565b600187528536818901376121926040519384927f2f441500000000000000000000000000000000000000000000000000000000008985015288602485015260448401916120a9565b03601f198101835282611c60565b604051936121ad85611c44565b6001855260005b8181106121d65750506121c6846120e8565b526121d0836120e8565b50929190565b606086820183015281016121b4565b919082018092116121f257565b634e487b7160e01b600052601160045260246000fd5b6001600160a01b03806006541690604091825163975057e760e01b815260209160049083838381845afa92831561235c5790849160009461233d575b50865193849163f1bea54f60e01b835284830152816024978892165afa91821561233257600092612303575b5061227a82611d68565b9161228786519384611c60565b808352601f19948561229883611d68565b01368686013760005b8281106122d25750505050906122c6611cf19392855195838794850152830190612020565b03908101835282611c60565b60018101908181116122ef576122e98291876120f5565b526122a1565b82601186634e487b7160e01b600052526000fd5b90918382813d831161232b575b61231a8183611c60565b810103126103025750519038612270565b503d612310565b85513d6000823e3d90fd5b612355919450823d84116102f1576102e28183611c60565b9238612244565b86513d6000823e3d90fd5b60095480612564575060009080825260019060209282845267ffffffffffffffff906040918061239884842061263a565b51168015612521574311156125185783825284865243906123bc868585200161263a565b51161015612510578281526004948581528282208582526123de84842061263a565b506001600160a01b03806006541685519163975057e760e01b835284838b81855afa928315612506578592918b9188956124e2575b50906024918951958694859363f1bea54f60e01b8552840152165afa9081156102f85784916124b5575b50861c90633b9aca00918281029281840414901517156124a2579061246d826002898b96950154910154906121e5565b1015948561248b575b5050505050600014612486575090565b905090565b835252208281015490541090503880848180612476565b60248460118a634e487b7160e01b835252fd5b90508281813d83116124db575b6124cc8183611c60565b81010312610a4e57513861243d565b503d6124c2565b6024929195506124fe90853d87116102f1576102e28183611c60565b949091612413565b87513d88823e3d90fd5b505050905090565b50935050505090565b60648785519062461bcd60e51b82526004820152601d60248201527f476f7665726e6f723a20756e6b6e6f776e2070726f706f73616c2069640000006044820152fd5b0361256e57600490565b600390565b811561257d570490565b634e487b7160e01b600052601260045260246000fd5b60075460004282111561248657504281039081116121f257611cf1907f000000000000000000000000000000000000000000000000000000000000000090612573565b929061262292612634926040519485926126126125ff602086019960808b5260a0870190611fe3565b601f199687878303016040880152612020565b9085858303016060860152612054565b90608083015203908101835282611c60565b51902090565b906040516020810167ffffffffffffffff9082811082821117611bda57604052819354169052565b1561266957565b608460405162461bcd60e51b815260206004820152602160248201527f476f7665726e6f723a20696e76616c69642070726f706f73616c206c656e677460448201527f68000000000000000000000000000000000000000000000000000000000000006064820152fd5b91909167ffffffffffffffff808094169116019182116121f257565b60001981146121f25760010190565b3d15612729573d9061270f82611c83565b9161271d6040519384611c60565b82523d6000602084013e565b606090565b9092916000938151820191602081818501940312611b8b5760208101519067ffffffffffffffff8211611b8b57019180603f84011215611b8b57602083015161277681611d68565b936127846040519586611c60565b8185526040602086019260051b820101928311611b8b57939493604001905b828210612961575050508251916000906000946001600160a01b0360065416955b8581106127d45750505050505050565b6127de81836120f5565b51938411156129375783604051907fd40e7146000000000000000000000000000000000000000000000000000000008252886004916001600160a01b0387168385015260208460648160249585878301528d60448301525afa9384156128f757600094612903575b508361285f575b5050505061285a906126ef565b6127c4565b6040517fd31cc52c000000000000000000000000000000000000000000000000000000008152928301528101879052919990916020816044818c5afa9081156128f7576000916128c3575b506128b89061285a9361312f565b01989038808061284d565b90506020813d6020116128ef575b816128de60209383611c60565b81010312611b8b575161285a6128aa565b3d91506128d1565b6040513d6000823e3d90fd5b9093506020813d60201161292f575b8161291f60209383611c60565b81010312611b8b57519238612846565b3d9150612912565b60046040517f0bdbcd96000000000000000000000000000000000000000000000000000000008152fd5b81518152602091820191016127a3565b9291909160009380855260019160209280845260409182882061299385612367565b6008811015612b90578303612b27578167ffffffffffffffff6129b86129c09361263a565b51168961272e565b9784815260048652838120906001600160a01b036003830199169889825280885260ff8683205416612abe579185828695948c8e999895528a52208260ff1982541617905501612a118582546121e5565b90558051612a6657509181612a60937fb8e138887d0aa13bab447e82de9d5c1777041ecd21ca36ba824ff1e6c07ddda49793519687968752860152840152608060608401526080830190611d17565b0390a290565b9195612a609387612ab0937fe2babfbac5889a709b63bb7f598b324e08bc5a4fb9ec647fb3cbc9ec07eb87129951988998895288015286015260a0606086015260a0850190611d17565b908382036080850152611d17565b60848887519062461bcd60e51b82526004820152602760248201527f476f7665726e6f72566f74696e6753696d706c653a20766f746520616c72656160448201527f64792063617374000000000000000000000000000000000000000000000000006064820152fd5b60848685519062461bcd60e51b82526004820152602360248201527f476f7665726e6f723a20766f7465206e6f742063757272656e746c792061637460448201527f69766500000000000000000000000000000000000000000000000000000000006064820152fd5b60248a634e487b7160e01b81526021600452fd5b939092919360009181835260209260018452604091828220612bc585612367565b6008811015612d3757600103612b27578167ffffffffffffffff6129b8612beb9361263a565b9784835260048652838320926001600160a01b036003850199169889825280885260ff8683205416612abe578982528752849020805460ff1916600117905588939260ff909116919082612c9157612a118582546121e5565b8051612a6657509181612a60937fb8e138887d0aa13bab447e82de9d5c1777041ecd21ca36ba824ff1e6c07ddda49793519687968752860152840152608060608401526080830190611d17565b60018303612cae57600101612ca78582546121e5565b9055612c44565b929350909160028303612cce579060028994939201612ca78582546121e5565b60848685519062461bcd60e51b82526004820152603560248201527f476f7665726e6f72566f74696e6753696d706c653a20696e76616c696420766160448201527f6c756520666f7220656e756d20566f74655479706500000000000000000000006064820152fd5b602484634e487b7160e01b81526021600452fd5b90919015612d57575090565b815115612d675750805190602001fd5b612d8b9060405191829162461bcd60e51b8352602060048401526024830190611d17565b0390fd5b6005811015612eab5780612da05750565b60018103612dec57606460405162461bcd60e51b815260206004820152601860248201527f45434453413a20696e76616c6964207369676e617475726500000000000000006044820152fd5b60028103612e3857606460405162461bcd60e51b815260206004820152601f60248201527f45434453413a20696e76616c6964207369676e6174757265206c656e677468006044820152fd5b600314612e4157565b608460405162461bcd60e51b815260206004820152602260248201527f45434453413a20696e76616c6964207369676e6174757265202773272076616c60448201527f75650000000000000000000000000000000000000000000000000000000000006064820152fd5b634e487b7160e01b600052602160045260246000fd5b9291907f7fffffffffffffffffffffffffffffff5d576e7357a4501ddfe92f46681b20a08311612f445791608094939160ff602094604051948552168484015260408301526060820152600093849182805260015afa15612f375781516001600160a01b03811615612f31579190565b50600190565b50604051903d90823e3d90fd5b50505050600090600390565b612f58612f9c565b906040519060208201927f19010000000000000000000000000000000000000000000000000000000000008452602283015260428201526042815261263481611c28565b6001600160a01b037f000000000000000000000000000000000000000000000000000000000000000016301480613087575b15612ff7577f000000000000000000000000000000000000000000000000000000000000000090565b60405160208101907f000000000000000000000000000000000000000000000000000000000000000082527f000000000000000000000000000000000000000000000000000000000000000060408201527f000000000000000000000000000000000000000000000000000000000000000060608201524660808201523060a082015260a0815261263481611bbe565b507f00000000000000000000000000000000000000000000000000000000000000004614612fce565b67ffffffffffffffff908181116130c5571690565b608460405162461bcd60e51b815260206004820152602660248201527f53616665436173743a2076616c756520646f65736e27742066697420696e203660448201527f34206269747300000000000000000000000000000000000000000000000000006064820152fd5b90633b9aca009060001983830992808302928380861095039480860395146131e357828510156131ac57908291096001821901821680920460028082600302188083028203028083028203028083028203028083028203028083028203028092029003029360018380600003040190848311900302920304170290565b60448584604051917f773cc18c00000000000000000000000000000000000000000000000000000000835260048301526024820152fd5b505090611cf1925061257356fea2646970667358221220d827aab4b76af4a0b7873192e4454a489c4c2a523b7eb8760dfa01f3a00491a664736f6c63430008140033",
    "linkReferences": {}
  },
  "methodIdentifiers": {
    "BALLOT_TYPEHASH()": "deaaa7cc",
    "COUNTING_MODE()": "dd4e2ba5",
    "EXTENDED_BALLOT_TYPEHASH()": "2fe3e261",
    "MAX_VOTING_POWER_TIER()": "4b501fbd",
    "attestToScorecard(uint256)": "19f82536",
    "attestToScorecardWithReasonAndParams(uint256,bytes)": "7c8bd0ed",
    "castVote(uint256,uint8)": "56781388",
    "castVoteBySig(uint256,uint8,uint8,bytes32,bytes32)": "3bccf4fd",
    "castVoteWithReason(uint256,uint8,string)": "7b3c71d3",
    "castVoteWithReasonAndParams(uint256,uint8,string,bytes)": "5f398a14",
    "castVoteWithReasonAndParamsBySig(uint256,uint8,string,bytes,uint8,bytes32,bytes32)": "03420181",
    "codeOrigin()": "1d153ca4",
    "defaultVotingDelegateProposal()": "56e258a5",
    "delegate()": "c89e4361",
    "execute(address[],uint256[],bytes[],bytes32)": "2656227d",
    "getVotes(address,uint256)": "eb9019d4",
    "getVotesWithParams(address,uint256,bytes)": "9a802a6d",
    "hasVoted(uint256,address)": "43859632",
    "hashProposal(address[],uint256[],bytes[],bytes32)": "c59057e4",
    "initialize(address,uint256,uint256)": "7a1ac61e",
    "name()": "06fdde03",
    "onERC1155BatchReceived(address,address,uint256[],uint256[],bytes)": "bc197c81",
    "onERC1155Received(address,address,uint256,uint256,bytes)": "f23a6e61",
    "onERC721Received(address,address,uint256,bytes)": "150b7a02",
    "proposalDeadline(uint256)": "c01f9e37",
    "proposalSnapshot(uint256)": "2d63f693",
    "proposalThreshold()": "b58131b0",
    "proposalVotes(uint256)": "544ffc9c",
    "propose(address[],uint256[],bytes[],string)": "7d5e81e2",
    "quorum(uint256)": "f8ce560a",
    "ratifiedProposal()": "d1fb9e0a",
    "ratifyScorecard((uint256,uint256)[])": "64d87a61",
    "relay(address,uint256,bytes)": "c28bc2fa",
    "state(uint256)": "3e4f49e6",
    "submitScorecard((uint256,uint256)[])": "d8844e2f",
    "supportsInterface(bytes4)": "01ffc9a7",
    "version()": "54fd4d50",
    "votingDelay()": "3932abb1",
    "votingPeriod()": "02a251a3",
    "votingStartTime()": "2019a608"
  },
  "id": 2
}