{
  "abi": [
    {
      "inputs": [],
      "stateMutability": "nonpayable",
      "type": "constructor"
    },
    {
      "inputs": [],
      "name": "DISABLED",
      "type": "error"
    },
    {
      "inputs": [],
      "name": "Empty",
      "type": "error"
    },
    {
      "inputs": [],
      "name": "INCORRECT_TIER_ORDER",
      "type": "error"
    },
    {
      "inputs": [
        {
          "internalType": "uint256",
          "name": "prod1",
          "type": "uint256"
        },
        {
          "internalType": "uint256",
          "name": "denominator",
          "type": "uint256"
        }
      ],
      "name": "PRBMath__MulDivOverflow",
      "type": "error"
    },
    {
      "anonymous": false,
      "inputs": [
        {
          "indexed": false,
          "internalType": "uint256",
          "name": "proposalId",
          "type": "uint256"
        }
      ],
      "name": "ProposalCanceled",
      "type": "event"
    },
    {
      "anonymous": false,
      "inputs": [
        {
          "indexed": false,
          "internalType": "uint256",
          "name": "proposalId",
          "type": "uint256"
        },
        {
          "indexed": false,
          "internalType": "address",
          "name": "proposer",
          "type": "address"
        },
        {
          "indexed": false,
          "internalType": "address[]",
          "name": "targets",
          "type": "address[]"
        },
        {
          "indexed": false,
          "internalType": "uint256[]",
          "name": "values",
          "type": "uint256[]"
        },
        {
          "indexed": false,
          "internalType": "string[]",
          "name": "signatures",
          "type": "string[]"
        },
        {
          "indexed": false,
          "internalType": "bytes[]",
          "name": "calldatas",
          "type": "bytes[]"
        },
        {
          "indexed": false,
          "internalType": "uint256",
          "name": "startBlock",
          "type": "uint256"
        },
        {
          "indexed": false,
          "internalType": "uint256",
          "name": "endBlock",
          "type": "uint256"
        },
        {
          "indexed": false,
          "internalType": "string",
          "name": "description",
          "type": "string"
        }
      ],
      "name": "ProposalCreated",
      "type": "event"
    },
    {
      "anonymous": false,
      "inputs": [
        {
          "indexed": false,
          "internalType": "uint256",
          "name": "proposalId",
          "type": "uint256"
        }
      ],
      "name": "ProposalExecuted",
      "type": "event"
    },
    {
      "anonymous": false,
      "inputs": [
        {
          "indexed": true,
          "internalType": "address",
          "name": "voter",
          "type": "address"
        },
        {
          "indexed": false,
          "internalType": "uint256",
          "name": "proposalId",
          "type": "uint256"
        },
        {
          "indexed": false,
          "internalType": "uint8",
          "name": "support",
          "type": "uint8"
        },
        {
          "indexed": false,
          "internalType": "uint256",
          "name": "weight",
          "type": "uint256"
        },
        {
          "indexed": false,
          "internalType": "string",
          "name": "reason",
          "type": "string"
        }
      ],
      "name": "VoteCast",
      "type": "event"
    },
    {
      "anonymous": false,
      "inputs": [
        {
          "indexed": true,
          "internalType": "address",
          "name": "voter",
          "type": "address"
        },
        {
          "indexed": false,
          "internalType": "uint256",
          "name": "proposalId",
          "type": "uint256"
        },
        {
          "indexed": false,
          "internalType": "uint8",
          "name": "support",
          "type": "uint8"
        },
        {
          "indexed": false,
          "internalType": "uint256",
          "name": "weight",
          "type": "uint256"
        },
        {
          "indexed": false,
          "internalType": "string",
          "name": "reason",
          "type": "string"
        },
        {
          "indexed": false,
          "internalType": "bytes",
          "name": "params",
          "type": "bytes"
        }
      ],
      "name": "VoteCastWithParams",
      "type": "event"
    },
    {
      "inputs": [],
      "name": "BALLOT_TYPEHASH",
      "outputs": [
        {
          "internalType": "bytes32",
          "name": "",
          "type": "bytes32"
        }
      ],
      "stateMutability": "view",
      "type": "function"
    },
    {
      "inputs": [],
      "name": "COUNTING_MODE",
      "outputs": [
        {
          "internalType": "string",
          "name": "",
          "type": "string"
        }
      ],
      "stateMutability": "pure",
      "type": "function"
    },
    {
      "inputs": [],
      "name": "EXTENDED_BALLOT_TYPEHASH",
      "outputs": [
        {
          "internalType": "bytes32",
          "name": "",
          "type": "bytes32"
        }
      ],
      "stateMutability": "view",
      "type": "function"
    },
    {
      "inputs": [],
      "name": "MAX_VOTING_POWER_TIER",
      "outputs": [
        {
          "internalType": "uint256",
          "name": "",
          "type": "uint256"
        }
      ],
      "stateMutability": "view",
      "type": "function"
    },
    {
      "inputs": [
        {
          "internalType": "uint256",
          "name": "_scorecardId",
          "type": "uint256"
        }
      ],
      "name": "attestToScorecard",
      "outputs": [],
      "stateMutability": "nonpayable",
      "type": "function"
    },
    {
      "inputs": [
        {
          "internalType": "uint256",
          "name": "_scorecardId",
          "type": "uint256"
        },
        {
          "internalType": "bytes",
          "name": "params",
          "type": "bytes"
        }
      ],
      "name": "attestToScorecardWithReasonAndParams",
      "outputs": [],
      "stateMutability": "nonpayable",
      "type": "function"
    },
    {
      "inputs": [
        {
          "internalType": "uint256",
          "name": "proposalId",
          "type": "uint256"
        },
        {
          "internalType": "uint8",
          "name": "support",
          "type": "uint8"
        }
      ],
      "name": "castVote",
      "outputs": [
        {
          "internalType": "uint256",
          "name": "",
          "type": "uint256"
        }
      ],
      "stateMutability": "nonpayable",
      "type": "function"
    },
    {
      "inputs": [
        {
          "internalType": "uint256",
          "name": "proposalId",
          "type": "uint256"
        },
        {
          "internalType": "uint8",
          "name": "support",
          "type": "uint8"
        },
        {
          "internalType": "uint8",
          "name": "v",
          "type": "uint8"
        },
        {
          "internalType": "bytes32",
          "name": "r",
          "type": "bytes32"
        },
        {
          "internalType": "bytes32",
          "name": "s",
          "type": "bytes32"
        }
      ],
      "name": "castVoteBySig",
      "outputs": [
        {
          "internalType": "uint256",
          "name": "",
          "type": "uint256"
        }
      ],
      "stateMutability": "nonpayable",
      "type": "function"
    },
    {
      "inputs": [
        {
          "internalType": "uint256",
          "name": "proposalId",
          "type": "uint256"
        },
        {
          "internalType": "uint8",
          "name": "support",
          "type": "uint8"
        },
        {
          "internalType": "string",
          "name": "reason",
          "type": "string"
        }
      ],
      "name": "castVoteWithReason",
      "outputs": [
        {
          "internalType": "uint256",
          "name": "",
          "type": "uint256"
        }
      ],
      "stateMutability": "nonpayable",
      "type": "function"
    },
    {
      "inputs": [
        {
          "internalType": "uint256",
          "name": "proposalId",
          "type": "uint256"
        },
        {
          "internalType": "uint8",
          "name": "support",
          "type": "uint8"
        },
        {
          "internalType": "string",
          "name": "reason",
          "type": "string"
        },
        {
          "internalType": "bytes",
          "name": "params",
          "type": "bytes"
        }
      ],
      "name": "castVoteWithReasonAndParams",
      "outputs": [
        {
          "internalType": "uint256",
          "name": "",
          "type": "uint256"
        }
      ],
      "stateMutability": "nonpayable",
      "type": "function"
    },
    {
      "inputs": [
        {
          "internalType": "uint256",
          "name": "proposalId",
          "type": "uint256"
        },
        {
          "internalType": "uint8",
          "name": "support",
          "type": "uint8"
        },
        {
          "internalType": "string",
          "name": "reason",
          "type": "string"
        },
        {
          "internalType": "bytes",
          "name": "params",
          "type": "bytes"
        },
        {
          "internalType": "uint8",
          "name": "v",
          "type": "uint8"
        },
        {
          "internalType": "bytes32",
          "name": "r",
          "type": "bytes32"
        },
        {
          "internalType": "bytes32",
          "name": "s",
          "type": "bytes32"
        }
      ],
      "name": "castVoteWithReasonAndParamsBySig",
      "outputs": [
        {
          "internalType": "uint256",
          "name": "",
          "type": "uint256"
        }
      ],
      "stateMutability": "nonpayable",
      "type": "function"
    },
    {
      "inputs": [],
      "name": "codeOrigin",
      "outputs": [
        {
          "internalType": "address",
          "name": "",
          "type": "address"
        }
      ],
      "stateMutability": "view",
      "type": "function"
    },
    {
      "inputs": [],
      "name": "delegate",
      "outputs": [
        {
          "internalType": "contract IDefifaDelegate",
          "name": "",
          "type": "address"
        }
      ],
      "stateMutability": "view",
      "type": "function"
    },
    {
      "inputs": [
        {
          "internalType": "address[]",
          "name": "targets",
          "type": "address[]"
        },
        {
          "internalType": "uint256[]",
          "name": "values",
          "type": "uint256[]"
        },
        {
          "internalType": "bytes[]",
          "name": "calldatas",
          "type": "bytes[]"
        },
        {
          "internalType": "bytes32",
          "name": "descriptionHash",
          "type": "bytes32"
        }
      ],
      "name": "execute",
      "outputs": [
        {
          "internalType": "uint256",
          "name": "",
          "type": "uint256"
        }
      ],
      "stateMutability": "payable",
      "type": "function"
    },
    {
      "inputs": [
        {
          "internalType": "address",
          "name": "account",
          "type": "address"
        },
        {
          "internalType": "uint256",
          "name": "blockNumber",
          "type": "uint256"
        }
      ],
      "name": "getVotes",
      "outputs": [
        {
          "internalType": "uint256",
          "name": "",
          "type": "uint256"
        }
      ],
      "stateMutability": "view",
      "type": "function"
    },
    {
      "inputs": [
        {
          "internalType": "address",
          "name": "account",
          "type": "address"
        },
        {
          "internalType": "uint256",
          "name": "blockNumber",
          "type": "uint256"
        },
        {
          "internalType": "bytes",
          "name": "params",
          "type": "bytes"
        }
      ],
      "name": "getVotesWithParams",
      "outputs": [
        {
          "internalType": "uint256",
          "name": "",
          "type": "uint256"
        }
      ],
      "stateMutability": "view",
      "type": "function"
    },
    {
      "inputs": [
        {
          "internalType": "uint256",
          "name": "proposalId",
          "type": "uint256"
        },
        {
          "internalType": "address",
          "name": "account",
          "type": "address"
        }
      ],
      "name": "hasVoted",
      "outputs": [
        {
          "internalType": "bool",
          "name": "",
          "type": "bool"
        }
      ],
      "stateMutability": "view",
      "type": "function"
    },
    {
      "inputs": [
        {
          "internalType": "address[]",
          "name": "targets",
          "type": "address[]"
        },
        {
          "internalType": "uint256[]",
          "name": "values",
          "type": "uint256[]"
        },
        {
          "internalType": "bytes[]",
          "name": "calldatas",
          "type": "bytes[]"
        },
        {
          "internalType": "bytes32",
          "name": "descriptionHash",
          "type": "bytes32"
        }
      ],
      "name": "hashProposal",
      "outputs": [
        {
          "internalType": "uint256",
          "name": "",
          "type": "uint256"
        }
      ],
      "stateMutability": "pure",
      "type": "function"
    },
    {
      "inputs": [
        {
          "internalType": "contract IDefifaDelegate",
          "name": "_delegate",
          "type": "address"
        },
        {
          "internalType": "uint256",
          "name": "_votingStartTime",
          "type": "uint256"
        },
        {
          "internalType": "uint256",
          "name": "__votingPeriod",
          "type": "uint256"
        }
      ],
      "name": "initialize",
      "outputs": [],
      "stateMutability": "nonpayable",
      "type": "function"
    },
    {
      "inputs": [],
      "name": "name",
      "outputs": [
        {
          "internalType": "string",
          "name": "",
          "type": "string"
        }
      ],
      "stateMutability": "view",
      "type": "function"
    },
    {
      "inputs": [
        {
          "internalType": "address",
          "name": "",
          "type": "address"
        },
        {
          "internalType": "address",
          "name": "",
          "type": "address"
        },
        {
          "internalType": "uint256[]",
          "name": "",
          "type": "uint256[]"
        },
        {
          "internalType": "uint256[]",
          "name": "",
          "type": "uint256[]"
        },
        {
          "internalType": "bytes",
          "name": "",
          "type": "bytes"
        }
      ],
      "name": "onERC1155BatchReceived",
      "outputs": [
        {
          "internalType": "bytes4",
          "name": "",
          "type": "bytes4"
        }
      ],
      "stateMutability": "nonpayable",
      "type": "function"
    },
    {
      "inputs": [
        {
          "internalType": "address",
          "name": "",
          "type": "address"
        },
        {
          "internalType": "address",
          "name": "",
          "type": "address"
        },
        {
          "internalType": "uint256",
          "name": "",
          "type": "uint256"
        },
        {
          "internalType": "uint256",
          "name": "",
          "type": "uint256"
        },
        {
          "internalType": "bytes",
          "name": "",
          "type": "bytes"
        }
      ],
      "name": "onERC1155Received",
      "outputs": [
        {
          "internalType": "bytes4",
          "name": "",
          "type": "bytes4"
        }
      ],
      "stateMutability": "nonpayable",
      "type": "function"
    },
    {
      "inputs": [
        {
          "internalType": "address",
          "name": "",
          "type": "address"
        },
        {
          "internalType": "address",
          "name": "",
          "type": "address"
        },
        {
          "internalType": "uint256",
          "name": "",
          "type": "uint256"
        },
        {
          "internalType": "bytes",
          "name": "",
          "type": "bytes"
        }
      ],
      "name": "onERC721Received",
      "outputs": [
        {
          "internalType": "bytes4",
          "name": "",
          "type": "bytes4"
        }
      ],
      "stateMutability": "nonpayable",
      "type": "function"
    },
    {
      "inputs": [
        {
          "internalType": "uint256",
          "name": "proposalId",
          "type": "uint256"
        }
      ],
      "name": "proposalDeadline",
      "outputs": [
        {
          "internalType": "uint256",
          "name": "",
          "type": "uint256"
        }
      ],
      "stateMutability": "view",
      "type": "function"
    },
    {
      "inputs": [
        {
          "internalType": "uint256",
          "name": "proposalId",
          "type": "uint256"
        }
      ],
      "name": "proposalSnapshot",
      "outputs": [
        {
          "internalType": "uint256",
          "name": "",
          "type": "uint256"
        }
      ],
      "stateMutability": "view",
      "type": "function"
    },
    {
      "inputs": [],
      "name": "proposalThreshold",
      "outputs": [
        {
          "internalType": "uint256",
          "name": "",
          "type": "uint256"
        }
      ],
      "stateMutability": "pure",
      "type": "function"
    },
    {
      "inputs": [
        {
          "internalType": "uint256",
          "name": "proposalId",
          "type": "uint256"
        }
      ],
      "name": "proposalVotes",
      "outputs": [
        {
          "internalType": "uint256",
          "name": "againstVotes",
          "type": "uint256"
        },
        {
          "internalType": "uint256",
          "name": "forVotes",
          "type": "uint256"
        },
        {
          "internalType": "uint256",
          "name": "abstainVotes",
          "type": "uint256"
        }
      ],
      "stateMutability": "view",
      "type": "function"
    },
    {
      "inputs": [
        {
          "internalType": "address[]",
          "name": "targets",
          "type": "address[]"
        },
        {
          "internalType": "uint256[]",
          "name": "values",
          "type": "uint256[]"
        },
        {
          "internalType": "bytes[]",
          "name": "calldatas",
          "type": "bytes[]"
        },
        {
          "internalType": "string",
          "name": "description",
          "type": "string"
        }
      ],
      "name": "propose",
      "outputs": [
        {
          "internalType": "uint256",
          "name": "",
          "type": "uint256"
        }
      ],
      "stateMutability": "nonpayable",
      "type": "function"
    },
    {
      "inputs": [
        {
          "internalType": "uint256",
          "name": "",
          "type": "uint256"
        }
      ],
      "name": "quorum",
      "outputs": [
        {
          "internalType": "uint256",
          "name": "",
          "type": "uint256"
        }
      ],
      "stateMutability": "view",
      "type": "function"
    },
    {
      "inputs": [
        {
          "components": [
            {
              "internalType": "uint256",
              "name": "id",
              "type": "uint256"
            },
            {
              "internalType": "uint256",
              "name": "redemptionWeight",
              "type": "uint256"
            }
          ],
          "internalType": "struct DefifaTierRedemptionWeight[]",
          "name": "_tierWeights",
          "type": "tuple[]"
        }
      ],
      "name": "ratifyScorecard",
      "outputs": [
        {
          "internalType": "uint256",
          "name": "",
          "type": "uint256"
        }
      ],
      "stateMutability": "nonpayable",
      "type": "function"
    },
    {
      "inputs": [
        {
          "internalType": "address",
          "name": "target",
          "type": "address"
        },
        {
          "internalType": "uint256",
          "name": "value",
          "type": "uint256"
        },
        {
          "internalType": "bytes",
          "name": "data",
          "type": "bytes"
        }
      ],
      "name": "relay",
      "outputs": [],
      "stateMutability": "payable",
      "type": "function"
    },
    {
      "inputs": [
        {
          "internalType": "uint256",
          "name": "proposalId",
          "type": "uint256"
        }
      ],
      "name": "state",
      "outputs": [
        {
          "internalType": "enum IGovernor.ProposalState",
          "name": "",
          "type": "uint8"
        }
      ],
      "stateMutability": "view",
      "type": "function"
    },
    {
      "inputs": [
        {
          "components": [
            {
              "internalType": "uint256",
              "name": "id",
              "type": "uint256"
            },
            {
              "internalType": "uint256",
              "name": "redemptionWeight",
              "type": "uint256"
            }
          ],
          "internalType": "struct DefifaTierRedemptionWeight[]",
          "name": "_tierWeights",
          "type": "tuple[]"
        }
      ],
      "name": "submitScorecards",
      "outputs": [
        {
          "internalType": "uint256",
          "name": "",
          "type": "uint256"
        }
      ],
      "stateMutability": "nonpayable",
      "type": "function"
    },
    {
      "inputs": [
        {
          "internalType": "bytes4",
          "name": "interfaceId",
          "type": "bytes4"
        }
      ],
      "name": "supportsInterface",
      "outputs": [
        {
          "internalType": "bool",
          "name": "",
          "type": "bool"
        }
      ],
      "stateMutability": "view",
      "type": "function"
    },
    {
      "inputs": [],
      "name": "version",
      "outputs": [
        {
          "internalType": "string",
          "name": "",
          "type": "string"
        }
      ],
      "stateMutability": "view",
      "type": "function"
    },
    {
      "inputs": [],
      "name": "votingDelay",
      "outputs": [
        {
          "internalType": "uint256",
          "name": "",
          "type": "uint256"
        }
      ],
      "stateMutability": "view",
      "type": "function"
    },
    {
      "inputs": [],
      "name": "votingPeriod",
      "outputs": [
        {
          "internalType": "uint256",
          "name": "",
          "type": "uint256"
        }
      ],
      "stateMutability": "view",
      "type": "function"
    },
    {
      "inputs": [],
      "name": "votingStartTime",
      "outputs": [
        {
          "internalType": "uint256",
          "name": "",
          "type": "uint256"
        }
      ],
      "stateMutability": "view",
      "type": "function"
    },
    {
      "stateMutability": "payable",
      "type": "receive"
    }
  ],
  "bytecode": {
    "object": "0x61016060409080825234620002855762000019816200028a565b600e8152602091828201916d2232b334b330a3b7bb32b93737b960911b835283825162000046816200028a565b60019181838093520194603160f81b86528351902094208460e052610100958187524660a052845191818301907f8b73c3c69bb8fe3d512ecc4cf759cc79239f7b179b0ffacaa9a75d522b39400f978883528785015260608401524660808401523060a084015260a0835260c083019260018060401b0393818110858211176200026f5787525190206080523060c05261012095865283519182116200026f5760009384548481811c9116801562000264575b838210146200025057601f811162000205575b5081601f84116001146200019d5750928293918392869462000191575b50501b916000199060031b1c19161790555b610140903082525191612af69384620002a78539608051846127fe015260a051846128b3015260c051846127c8015260e0518461284d015251836128730152518261282a015251818181610a8801526111fe0152f35b01519250388062000129565b919083601f1981168780528488209488905b88838310620001ea5750505010620001d0575b505050811b0190556200013b565b015160001960f88460031b161c19169055388080620001c2565b858701518855909601959485019487935090810190620001af565b858052828620601f850160051c81019184861062000245575b601f0160051c019085905b828110620002395750506200010c565b87815501859062000229565b90915081906200021e565b634e487b7160e01b86526022600452602486fd5b90607f1690620000f9565b634e487b7160e01b600052604160045260246000fd5b600080fd5b604081019081106001600160401b038211176200026f5760405256fe6080604081815260049081361015610022575b505050361561002057600080fd5b005b600092833560e01c90816301ffc9a7146114b05750806302a251a314611491578063034201811461139757806306fdde03146112a0578063150b7a021461124b57806319f825361461122d5780631d153ca4146111e95780632019a608146111ca5780632656227d146110925780632d63f6931461105f5780632fe3e261146110365780633932abb1146110195780633bccf4fd14610f735780633e4f49e614610f2e5780634385963214610ee55780634b501fbd14610ec6578063544ffc9c14610e8957806354fd4d5014610e485780635678138814610e1157806359f397bd14610d415780635f398a1414610cce57806364d87a6114610ae25780637a1ac61e14610a595780637b3c71d3146109fa5780637c8bd0ed146109b05780637d5e81e2146106675780639a802a6d14610625578063b58131b01461060a578063bc197c8114610584578063c01f9e3714610547578063c28bc2fa14610451578063c59057e414610432578063c89e436114610409578063dd4e2ba5146103a8578063deaaa7cc1461037f578063eb9019d414610346578063f23a6e61146102f15763f8ce560a0361001257346102ed57602092836003193601126102ea57600654825163975057e760e01b81526001600160a01b0391821686828781845afa9182156102e0579087929185926102ae575b506024908651948593849263f1bea54f60e01b84528a840152165afa9081156102a4578291610273575b5060011c92633b9aca009384810294818604149015171561026057505051908152f35b634e487b7160e01b825260119052602490fd5b90508481813d831161029d575b61028a8183611613565b8101031261029957513861023d565b5080fd5b503d610280565b83513d84823e3d90fd5b60249192506102d290843d86116102d9575b6102ca8183611613565b810190611b0e565b9190610213565b503d6102c0565b85513d86823e3d90fd5b80fd5b8280fd5b5082346102ea5760a03660031901126102ea5761030c6116e6565b506103156116fc565b50608435906001600160401b0382116102ea575060209261033891369101611688565b505163f23a6e6160e01b8152f35b8382346102995780600319360112610299576020906103786103666116e6565b61036e611b50565b9060243590612035565b9051908152f35b83823461029957816003193601126102995760209051600080516020612a018339815191528152f35b8382346102995781600319360112610299578051610405916103c9826115f8565b602082527f737570706f72743d627261766f2671756f72756d3d666f722c6162737461696e6020830152519182916020835260208301906116a6565b0390f35b83823461029957816003193601126102995760065490516001600160a01b039091168152602090f35b8382346102995760209061037861044836611875565b92919091611cd4565b5091906060366003190112610299576104686116e6565b906044356001600160401b038111610543576104879036908301611549565b913033036105055750836105019383829388958651928392833781018481520391602435905af16104b6612005565b9067206d65737361676560c01b8351936104cf856115c2565b602885527f476f7665726e6f723a2072656c617920726576657274656420776974686f757460208601528401526125b6565b5080f35b606490602087519162461bcd60e51b83528201526018602482015277476f7665726e6f723a206f6e6c79476f7665726e616e636560401b6044820152fd5b8380fd5b5090346102ed5760203660031901126102ed5735825260016020818152928290206001600160401b039161057b9101611f5f565b51169051908152f35b5082346102ea5760a03660031901126102ea5761059f6116e6565b506105a86116fc565b506001600160401b0390604435828111610299576105c99036908601611797565b50606435828111610299576105e19036908601611797565b506084359182116102ea57506020926105fc91369101611688565b505163bc197c8160e01b8152f35b83823461029957816003193601126102995751908152602090f35b5090346102ed5760603660031901126102ed576106406116e6565b92604435906001600160401b0382116102ea57509261036e61037892602095369101611688565b5082346102ea5760803660031901126102ea576001600160401b039183358381116102ed576106999036908601611729565b92602435818111610543576106b19036908701611797565b936044358281116109ac576106c990369088016117f5565b956064358381116109a857366023820112156109a8576106f29036906024818501359101611651565b913033036109995760001943014381116109865761071990610712611b50565b9033612035565b5082519761072f6020998a860120828a85611cd4565b9661073d83518a5114611f87565b61074a8351835114611f87565b82511561094857878152600190818b52878120948761076887611f5f565b51166108fb57509061079261077c436128d9565b61078c610787611cb0565b6128d9565b90611fdd565b876107a76107a16005546128d9565b83611fdd565b9116978260018060401b0319978a8982541617815501911680968254161790556107f28b8551956107d787611712565b966107e48c519889611613565b808852601f19938491611712565b01855b8181106108ec5750508b9c610825610833928d9e9d80519e8f908152338782015261012080928201520190611924565b8c810360608e015290611961565b8a810360808c01528651928382528282019183808660051b830101990196935b8585106108be5793505050508b8b7f7d84a6263ae0d98d3329bd7b46bb4e8d6f98cd35a7adb45c274c8b7fd5ebd5e08c806108b58e8e8e61089c8f8f87820360a0890152611995565b9260c086015260e08501528382036101008501526116a6565b0390a151908152f35b806108da8b85858b9c9e9b969798999a9b030188528c516116a6565b9a01940194019295949391908f610853565b606089820185015283016107f5565b885162461bcd60e51b81529081018c9052602160248201527f476f7665726e6f723a2070726f706f73616c20616c72656164792065786973746044820152607360f81b6064820152608490fd5b865162461bcd60e51b81528085018b9052601860248201527711dbdd995c9b9bdc8e88195b5c1d1e481c1c9bdc1bdcd85b60421b6044820152606490fd5b634e487b7160e01b875260118352602487fd5b508351631596f13360e31b8152fd5b8580fd5b8480fd5b50346102ed57806003193601126102ed57602435916001600160401b038311610543576109e36105019336908301611688565b9151906109ef826115a7565b84825233903561222f565b5082346102ea5760603660031901126102ea57610a15611534565b90604435906001600160401b0382116102ea57509261037891610a47610a4060209636908501611549565b3691611651565b90610a50611b50565b92339035612427565b505034610299576060366003190112610299576001600160a01b039035818116908190036102ed5760443591807f000000000000000000000000000000000000000000000000000000000000000016301461054357600654908116610543576001600160a01b0319161760065560243560075580610add57506201881d5b60055580f35b610ad7565b50346102ed57610afa610af4366118d7565b90611a21565b9190948351956020968781019060808252610b77610b1b60a0830187611924565b82610b45610b35601f199384848203018d85015288611961565b838382030160608401528a611995565b7fc5d2460186f7233c927e7db2dcc703c0e500b653ca82273b7bfad8045d85a470608083015203908101835282611613565b51902095610b8487611d38565b6008811015610cbb57818114908115610cb0575b5015610c7557508582526001938488526002868420018560ff19825416179055600080516020612a61833981519152888751898152a1855193610bda856115c2565b60278552600080516020612a4183398151915289860152666d65737361676560c81b878601528884875b610c11575b508751898152f35b8251811015610c7057610c62878780610c689560018060a01b03610c35878a611a0d565b5116610c41878c611a0d565b51610c4c888c611a0d565b5180519301915af1610c5c612005565b906125b6565b50611ff6565b899087610c04565b610c09565b855162461bcd60e51b815290810188905260216024820152600080516020612a818339815191526044820152601b60fa1b6064820152608490fd5b600591501438610b98565b634e487b7160e01b845260218252602484fd5b5090346102ed5760803660031901126102ed57610ce9611534565b6001600160401b039360443585811161029957610d099036908501611549565b9590916064359182116102ea575091610d386103789492610d306020989536908601611688565b943691611651565b91339035612427565b5082903461029957608092610d8383610da6610d96610d62610af4366118d7565b929188969196519a8b98633eaf40f160e11b8a528901526084880190611924565b6003199586888303016024890152611961565b9084868303016044870152611995565b838103928301606485015252602094858092018186305af1928315610e06578093610dd4575b505051908152f35b909192508382813d8311610dff575b610ded8183611613565b810103126102ea575051908380610dcc565b503d610de3565b8251903d90823e3d90fd5b5090346102ed57816003193601126102ed5761037890602093610e32611534565b845191610e3e836115a7565b8252610a50611b50565b838234610299578160031936011261029957805161040591610e69826115f8565b60018252603160f81b6020830152519182916020835260208301906116a6565b5090346102ed5760203660031901126102ed5760609281839235825260205220805491600260018301549201549181519384526020840152820152f35b83823461029957816003193601126102995760209051633b9aca008152f35b5090346102ed57816003193601126102ed578160209360ff92610f066116fc565b813583529086528282206001600160a01b039091168252600301855220549151911615158152f35b5082903461029957602036600319011261029957610f4c8335611d38565b9051916008821015610f6057602083838152f35b634e487b7160e01b815260218452602490fd5b5090346102ed5760a03660031901126102ed5735610f8f611534565b60443560ff811681036109ac57936103789291610ffd610ff5602097875189810191600080516020612a018339815191528352878a83015260ff8616606083015260608252610fdd826115dd565b610ff06084359360643593519020612794565b61270f565b9190916125fa565b855192611009846115a7565b8352611013611b50565b93612427565b838234610299578160031936011261029957602090610378611cb0565b83823461029957816003193601126102995760209051600080516020612a218339815191528152f35b5090346102ed5760203660031901126102ed5735825260016020908152918190206001600160401b039061057b90611f5f565b506110ac61109f36611875565b8183859994969399611cd4565b946110b686611d38565b60088110156111b7578181149081156111ac575b501561117157508481526001926020968488526002868420018560ff19825416179055600080516020612a61833981519152888751898152a185519361110f856115c2565b60278552600080516020612a4183398151915289860152666d65737361676560c81b878601528884875b61114557508751898152f35b8251811015610c7057610c628787806111699560018060a01b03610c35878a611a0d565b899087611139565b608490602086519162461bcd60e51b835282015260216024820152600080516020612a818339815191526044820152601b60fa1b6064820152fd5b6005915014386110ca565b634e487b7160e01b835260218252602483fd5b8382346102995781600319360112610299576020906007549051908152f35b838234610299578160031936011261029957517f00000000000000000000000000000000000000000000000000000000000000006001600160a01b03168152602090f35b50346102ed5760203660031901126102ed57610501916109e3611b50565b5082346102ea5760803660031901126102ea576112666116e6565b5061126f6116fc565b50606435906001600160401b0382116102ea575060209261129291369101611688565b5051630a85bd0160e11b8152f35b5082346102ea57806003193601126102ea5781519181825492600184811c9181861695861561138d575b602096878510811461137a578899509688969785829a529182600014611353575050600114611316575b5050506104059291611307910385611613565b519282849384528301906116a6565b91908693508280528383205b82841061133b57505050820101816113076104056112f4565b8054848a018601528895508794909301928101611322565b60ff19168782015293151560051b86019093019350849250611307915061040590506112f4565b634e487b7160e01b835260228a52602483fd5b92607f16926112ca565b5090346102ed5760e03660031901126102ed578035906113b5611534565b906001600160401b0360443581811161148d576113d59036908401611549565b919092606435918211611489576113ee91369101611688565b956084359060ff821682036102ea57506114836103789593602098959361147b89610a409561141e368587611651565b8d8151910120908a518e8c01208351928f8c90850195600080516020612a21833981519152875285015260ff8b166060850152608084015260a083015260a0825261146882611576565b610ff060c4359360a43593519020612794565b9490946125fa565b92612427565b8780fd5b8680fd5b8382346102995781600319360112610299576020906005549051908152f35b849084346102ed5760203660031901126102ed573563ffffffff60e01b81168091036102ed576020925063bf26d89760e01b8114908115611523575b8115611512575b8115611501575b5015158152f35b6301ffc9a760e01b149050836114fa565b630271189760e51b811491506114f3565b6379dd796f60e01b811491506114ec565b6024359060ff8216820361154457565b600080fd5b9181601f84011215611544578235916001600160401b038311611544576020838186019501011161154457565b60c081019081106001600160401b0382111761159157604052565b634e487b7160e01b600052604160045260246000fd5b602081019081106001600160401b0382111761159157604052565b606081019081106001600160401b0382111761159157604052565b608081019081106001600160401b0382111761159157604052565b604081019081106001600160401b0382111761159157604052565b601f909101601f19168101906001600160401b0382119082101761159157604052565b6001600160401b03811161159157601f01601f191660200190565b92919261165d82611636565b9161166b6040519384611613565b829481845281830111611544578281602093846000960137010152565b9080601f83011215611544578160206116a393359101611651565b90565b919082519283825260005b8481106116d2575050826000602080949584010152601f8019910116010190565b6020818301810151848301820152016116b1565b600435906001600160a01b038216820361154457565b602435906001600160a01b038216820361154457565b6001600160401b0381116115915760051b60200190565b81601f820112156115445780359161174083611712565b9261174e6040519485611613565b808452602092838086019260051b820101928311611544578301905b828210611778575050505090565b81356001600160a01b038116810361154457815290830190830161176a565b81601f82011215611544578035916117ae83611712565b926117bc6040519485611613565b808452602092838086019260051b820101928311611544578301905b8282106117e6575050505090565b813581529083019083016117d8565b9080601f830112156115445781359061180d82611712565b9261181b6040519485611613565b828452602092838086019160051b8301019280841161154457848301915b8483106118495750505050505090565b82356001600160401b03811161154457869161186a84848094890101611688565b815201920191611839565b6080600319820112611544576001600160401b039160043583811161154457826118a191600401611729565b9260243581811161154457836118b991600401611797565b92604435918211611544576118d0916004016117f5565b9060643590565b906020600319830112611544576001600160401b03916004359083821161154457806023830112156115445781600401359384116115445760248460061b83010111611544576024019190565b90815180825260208080930193019160005b828110611944575050505090565b83516001600160a01b031685529381019392810192600101611936565b90815180825260208080930193019160005b828110611981575050505090565b835185529381019392810192600101611973565b90815180825260208092019182818360051b85019501936000915b8483106119c05750505050505090565b90919293949584806119da83856001950387528a516116a6565b98019301930191949392906119b0565b8051156119f75760200190565b634e487b7160e01b600052603260045260246000fd5b80518210156119f75760209160051b010190565b9091604091825190611a32826115f8565b6001938483526020908136818601376006546001600160a01b0316611a56856119ea565b52805196611a63886115f8565b8688528236818a013781518094622f441560e81b8583015282604483018660248501525260648201909260005b8a86838310611af15750505050611ab0925003601f198101855284611613565b5194611abb866115f8565b855260005b818110611ae2575050611ad2846119ea565b52611adc836119ea565b50929190565b60608682018301528101611ac0565b863585528887013589860152958601958995509093019201611a90565b9081602091031261154457516001600160a01b03811681036115445790565b91908201809211611b3a57565b634e487b7160e01b600052601160045260246000fd5b6006546040805163975057e760e01b815290916001600160a01b0391602091600490841683838381845afa928315611ca557908491600094611c86575b50865193849163f1bea54f60e01b835284830152816024978892165afa918215611c7b57600092611c4c575b50611bc382611712565b91611bd086519384611613565b808352601f199485611be183611712565b01368686013760005b828110611c1b575050505090611c0f6116a39392855195838794850152830190611961565b03908101835282611613565b6001810190818111611c3857611c32829187611a0d565b52611bea565b82601186634e487b7160e01b600052526000fd5b90918382813d8311611c74575b611c638183611613565b810103126102ea5750519038611bb9565b503d611c59565b85513d6000823e3d90fd5b611c9e919450823d84116102d9576102ca8183611613565b9238611b8d565b86513d6000823e3d90fd5b600754600042821115611ccf5750428103908111611b3a57600c900490565b905090565b9290611d2092611d3292604051948592611d10611cfd602086019960808b5260a0870190611924565b601f199687878303016040880152611961565b9085858303016060860152611995565b90608083015203908101835282611613565b51902090565b6000908082526001602092818452604090818120600281015460ff8116611f535760081c60ff16611f48576001600160401b03908190611d7790611f5f565b51168015611f0457431115611efb578482528386524390611d9b8585852001611f5f565b51161015611ef357838152600494858152828220848252611dbd848420611f5f565b50600654845163975057e760e01b8152906001600160a01b039081169084838b81855afa928315611ee9578592918b918895611ec5575b50906024918951958694859363f1bea54f60e01b8552840152165afa9081156102e0578491611e98575b50851c90633b9aca0091828102928184041490151715611e855790611e4e826002888b9695015491015490611b2d565b10159586611e6d575b505050505050600014611e675790565b50600390565b83525220908101549054109050388080848180611e57565b634e487b7160e01b845260118852602484fd5b90508281813d8311611ebe575b611eaf8183611613565b81010312610543575138611e1e565b503d611ea5565b602492919550611ee190853d87116102d9576102ca8183611613565b949091611df4565b87513d88823e3d90fd5b505091505090565b50935050505090565b835162461bcd60e51b815260048101889052601d60248201527f476f7665726e6f723a20756e6b6e6f776e2070726f706f73616c2069640000006044820152606490fd5b505050505050600290565b50505050505050600790565b6040519091906001600160401b03602082018181118382101761159157604052819354169052565b15611f8e57565b60405162461bcd60e51b815260206004820152602160248201527f476f7665726e6f723a20696e76616c69642070726f706f73616c206c656e67746044820152600d60fb1b6064820152608490fd5b6001600160401b039182169082160191908211611b3a57565b6000198114611b3a5760010190565b3d15612030573d9061201682611636565b916120246040519384611613565b82523d6000602084013e565b606090565b9092916000938151820191602081818501940312611544576020810151906001600160401b03821161154457019180603f8401121561154457602083015161207c81611712565b9361208a6040519586611613565b8185526040602086019260051b82010192831161154457939493604001905b82821061221f57505083516006546001600160a01b03169490936000925090825b8581106120da5750505050505050565b6120e48183611a0d565b519384111561220d57604051636a0738a360e11b81526001600160a01b038416600480830191909152602480830187905260448301889052866020846064818e5afa9384156121cd576000946121d9575b508361214e575b5050505061214990611ff6565b6120ca565b6040516334c7314b60e21b8152928301528101879052919990916020816044818c5afa9081156121cd57600091612199575b5061218e9061214993612941565b01989038808061213c565b90506020813d6020116121c5575b816121b460209383611613565b810103126115445751612149612180565b3d91506121a7565b6040513d6000823e3d90fd5b9093506020813d602011612205575b816121f560209383611613565b8101031261154457519238612135565b3d91506121e8565b6040516305ede6cb60e11b8152600490fd5b81518152602091820191016120a9565b9291909160009380855260019160209280845260409182882061225185611d38565b60088110156124135783036123c3576122809082906001600160401b039061227890611f5f565b511689612035565b848952600486528389206001600160a01b03909816808a5260038901808852858b2054929a91999260ff1661236f579185828695948c8e999895528a52208260ff19825416179055016122d4858254611b2d565b905580516123175750918161231193600080516020612aa183398151915297935196879687528601528401526080606084015260808301906116a6565b0390a290565b91956123119387612361937fe2babfbac5889a709b63bb7f598b324e08bc5a4fb9ec647fb3cbc9ec07eb87129951988998895288015286015260a0606086015260a08501906116a6565b9083820360808501526116a6565b855162461bcd60e51b815260048101899052602760248201527f476f7665726e6f72566f74696e6753696d706c653a20766f746520616c726561604482015266191e4818d85cdd60ca1b6064820152608490fd5b835162461bcd60e51b815260048101879052602360248201527f476f7665726e6f723a20766f7465206e6f742063757272656e746c792061637460448201526269766560e81b6064820152608490fd5b634e487b7160e01b8a52602160045260248afd5b93909291936000918183526020926001845260409182822061244885611d38565b60088110156125a2576001036123c3576124709082906001600160401b039061227890611f5f565b978483526004865283832092600384019860018060a01b03169889825280885260ff868320541661236f578982528752849020805460ff1916600117905588939260ff909116919082612503576122d4858254611b2d565b80516123175750918161231193600080516020612aa183398151915297935196879687528601528401526080606084015260808301906116a6565b6001830361252057600101612519858254611b2d565b90556124c8565b929350909160028303612540579060028994939201612519858254611b2d565b835162461bcd60e51b815260048101879052603560248201527f476f7665726e6f72566f74696e6753696d706c653a20696e76616c69642076616044820152746c756520666f7220656e756d20566f74655479706560581b6064820152608490fd5b634e487b7160e01b84526021600452602484fd5b909190156125c2575090565b8151156125d25750805190602001fd5b60405162461bcd60e51b8152602060048201529081906125f69060248301906116a6565b0390fd5b60058110156126f9578061260b5750565b600181036126535760405162461bcd60e51b815260206004820152601860248201527745434453413a20696e76616c6964207369676e617475726560401b6044820152606490fd5b600281036126a05760405162461bcd60e51b815260206004820152601f60248201527f45434453413a20696e76616c6964207369676e6174757265206c656e677468006044820152606490fd5b6003146126a957565b60405162461bcd60e51b815260206004820152602260248201527f45434453413a20696e76616c6964207369676e6174757265202773272076616c604482015261756560f01b6064820152608490fd5b634e487b7160e01b600052602160045260246000fd5b9291906fa2a8918ca85bafe22016d0b997e4df60600160ff1b0383116127885791608094939160ff602094604051948552168484015260408301526060820152600093849182805260015afa1561277b5781516001600160a01b03811615612775579190565b50600190565b50604051903d90823e3d90fd5b50505050600090600390565b61279c6127c5565b9060405190602082019261190160f01b84526022830152604282015260428152611d32816115dd565b307f00000000000000000000000000000000000000000000000000000000000000006001600160a01b031614806128b0575b15612820577f000000000000000000000000000000000000000000000000000000000000000090565b60405160208101907f000000000000000000000000000000000000000000000000000000000000000082527f000000000000000000000000000000000000000000000000000000000000000060408201527f000000000000000000000000000000000000000000000000000000000000000060608201524660808201523060a082015260a08152611d3281611576565b507f000000000000000000000000000000000000000000000000000000000000000046146127f7565b6001600160401b03908181116128ed571690565b60405162461bcd60e51b815260206004820152602660248201527f53616665436173743a2076616c756520646f65736e27742066697420696e203660448201526534206269747360d01b6064820152608490fd5b90633b9aca009060001983830992808302928380861095039480860395146129dc57828510156129be57908291096001821901821680920460028082600302188083028203028083028203028083028203028083028203028083028203028092029003029360018380600003040190848311900302920304170290565b6044858460405191631dcf306360e21b835260048301526024820152fd5b5050809250156129ea570490565b634e487b7160e01b600052601260045260246000fdfe150214d74d59b7d1e90c73fc22ef3d991dd0a76b046543d4d80ab92d2a50328fb3b3f3b703cd84ce352197dcff232b1b5d3cfb2025ce47cf04742d0651f1af88476f7665726e6f723a2063616c6c20726576657274656420776974686f757420712ae1383f79ac853f8d882153778e0260ef8f03b504e2866e0593e04d2b291f476f7665726e6f723a2070726f706f73616c206e6f7420737563636573736675b8e138887d0aa13bab447e82de9d5c1777041ecd21ca36ba824ff1e6c07ddda4a26469706673582212203304fd9e656da1667eefc8fce0cce850cbf0e1f4e1193b80ae50975c88ecb3c564736f6c63430008120033",
    "linkReferences": {}
  },
  "methodIdentifiers": {
    "BALLOT_TYPEHASH()": "deaaa7cc",
    "COUNTING_MODE()": "dd4e2ba5",
    "EXTENDED_BALLOT_TYPEHASH()": "2fe3e261",
    "MAX_VOTING_POWER_TIER()": "4b501fbd",
    "attestToScorecard(uint256)": "19f82536",
    "attestToScorecardWithReasonAndParams(uint256,bytes)": "7c8bd0ed",
    "castVote(uint256,uint8)": "56781388",
    "castVoteBySig(uint256,uint8,uint8,bytes32,bytes32)": "3bccf4fd",
    "castVoteWithReason(uint256,uint8,string)": "7b3c71d3",
    "castVoteWithReasonAndParams(uint256,uint8,string,bytes)": "5f398a14",
    "castVoteWithReasonAndParamsBySig(uint256,uint8,string,bytes,uint8,bytes32,bytes32)": "03420181",
    "codeOrigin()": "1d153ca4",
    "delegate()": "c89e4361",
    "execute(address[],uint256[],bytes[],bytes32)": "2656227d",
    "getVotes(address,uint256)": "eb9019d4",
    "getVotesWithParams(address,uint256,bytes)": "9a802a6d",
    "hasVoted(uint256,address)": "43859632",
    "hashProposal(address[],uint256[],bytes[],bytes32)": "c59057e4",
    "initialize(address,uint256,uint256)": "7a1ac61e",
    "name()": "06fdde03",
    "onERC1155BatchReceived(address,address,uint256[],uint256[],bytes)": "bc197c81",
    "onERC1155Received(address,address,uint256,uint256,bytes)": "f23a6e61",
    "onERC721Received(address,address,uint256,bytes)": "150b7a02",
    "proposalDeadline(uint256)": "c01f9e37",
    "proposalSnapshot(uint256)": "2d63f693",
    "proposalThreshold()": "b58131b0",
    "proposalVotes(uint256)": "544ffc9c",
    "propose(address[],uint256[],bytes[],string)": "7d5e81e2",
    "quorum(uint256)": "f8ce560a",
    "ratifyScorecard((uint256,uint256)[])": "64d87a61",
    "relay(address,uint256,bytes)": "c28bc2fa",
    "state(uint256)": "3e4f49e6",
    "submitScorecards((uint256,uint256)[])": "59f397bd",
    "supportsInterface(bytes4)": "01ffc9a7",
    "version()": "54fd4d50",
    "votingDelay()": "3932abb1",
    "votingPeriod()": "02a251a3",
    "votingStartTime()": "2019a608"
  },
  "id": 2
}