{
  "abi": [
    {
      "inputs": [
        {
          "internalType": "contract IJBController3_1",
          "name": "_controller",
          "type": "address"
        },
        {
          "internalType": "uint256",
          "name": "__blockTime",
          "type": "uint256"
        }
      ],
      "stateMutability": "nonpayable",
      "type": "constructor"
    },
    {
      "inputs": [],
      "name": "ALREADY_ATTESTED",
      "type": "error"
    },
    {
      "inputs": [],
      "name": "ALREADY_RATIFIED",
      "type": "error"
    },
    {
      "inputs": [],
      "name": "DUPLICATE_SCORECARD",
      "type": "error"
    },
    {
      "inputs": [],
      "name": "GAME_NOT_FOUND",
      "type": "error"
    },
    {
      "inputs": [],
      "name": "INCORRECT_TIER_ORDER",
      "type": "error"
    },
    {
      "inputs": [],
      "name": "NOT_ALLOWED",
      "type": "error"
    },
    {
      "inputs": [
        {
          "internalType": "uint256",
          "name": "prod1",
          "type": "uint256"
        },
        {
          "internalType": "uint256",
          "name": "denominator",
          "type": "uint256"
        }
      ],
      "name": "PRBMath__MulDivOverflow",
      "type": "error"
    },
    {
      "inputs": [],
      "name": "UNKNOWN_PROPOSAL",
      "type": "error"
    },
    {
      "inputs": [],
      "name": "UNOWNED_PROPOSED_REDEMPTION_VALUE",
      "type": "error"
    },
    {
      "anonymous": false,
      "inputs": [
        {
          "indexed": true,
          "internalType": "address",
          "name": "previousOwner",
          "type": "address"
        },
        {
          "indexed": true,
          "internalType": "address",
          "name": "newOwner",
          "type": "address"
        }
      ],
      "name": "OwnershipTransferred",
      "type": "event"
    },
    {
      "anonymous": false,
      "inputs": [
        {
          "indexed": true,
          "internalType": "uint256",
          "name": "gameId",
          "type": "uint256"
        },
        {
          "indexed": true,
          "internalType": "uint256",
          "name": "scorecardId",
          "type": "uint256"
        },
        {
          "indexed": false,
          "internalType": "uint256",
          "name": "weight",
          "type": "uint256"
        },
        {
          "indexed": false,
          "internalType": "address",
          "name": "caller",
          "type": "address"
        }
      ],
      "name": "ScorecardAttested",
      "type": "event"
    },
    {
      "anonymous": false,
      "inputs": [
        {
          "indexed": true,
          "internalType": "uint256",
          "name": "gameId",
          "type": "uint256"
        },
        {
          "indexed": true,
          "internalType": "uint256",
          "name": "scorecardId",
          "type": "uint256"
        },
        {
          "indexed": false,
          "internalType": "address",
          "name": "caller",
          "type": "address"
        }
      ],
      "name": "ScorecardRatified",
      "type": "event"
    },
    {
      "anonymous": false,
      "inputs": [
        {
          "indexed": true,
          "internalType": "uint256",
          "name": "gameId",
          "type": "uint256"
        },
        {
          "indexed": true,
          "internalType": "uint256",
          "name": "scorecardId",
          "type": "uint256"
        },
        {
          "components": [
            {
              "internalType": "uint256",
              "name": "id",
              "type": "uint256"
            },
            {
              "internalType": "uint256",
              "name": "redemptionWeight",
              "type": "uint256"
            }
          ],
          "indexed": false,
          "internalType": "struct DefifaTierRedemptionWeight[]",
          "name": "tierWeights",
          "type": "tuple[]"
        },
        {
          "indexed": false,
          "internalType": "bool",
          "name": "isDefaultAttestationDelegate",
          "type": "bool"
        },
        {
          "indexed": false,
          "internalType": "address",
          "name": "caller",
          "type": "address"
        }
      ],
      "name": "ScorecardSubmitted",
      "type": "event"
    },
    {
      "inputs": [],
      "name": "MAX_ATTESTATION_POWER_TIER",
      "outputs": [
        {
          "internalType": "uint256",
          "name": "",
          "type": "uint256"
        }
      ],
      "stateMutability": "view",
      "type": "function"
    },
    {
      "inputs": [
        {
          "internalType": "uint256",
          "name": "_gameId",
          "type": "uint256"
        },
        {
          "internalType": "uint256",
          "name": "_scorecardId",
          "type": "uint256"
        }
      ],
      "name": "attestToScorecardFrom",
      "outputs": [
        {
          "internalType": "uint256",
          "name": "weight",
          "type": "uint256"
        }
      ],
      "stateMutability": "nonpayable",
      "type": "function"
    },
    {
      "inputs": [
        {
          "internalType": "uint256",
          "name": "_gameId",
          "type": "uint256"
        },
        {
          "internalType": "uint256",
          "name": "_scorecardId",
          "type": "uint256"
        }
      ],
      "name": "attestationCountOf",
      "outputs": [
        {
          "internalType": "uint256",
          "name": "",
          "type": "uint256"
        }
      ],
      "stateMutability": "view",
      "type": "function"
    },
    {
      "inputs": [
        {
          "internalType": "uint256",
          "name": "_gameId",
          "type": "uint256"
        }
      ],
      "name": "attestationGracePeriodOf",
      "outputs": [
        {
          "internalType": "uint256",
          "name": "",
          "type": "uint256"
        }
      ],
      "stateMutability": "view",
      "type": "function"
    },
    {
      "inputs": [
        {
          "internalType": "uint256",
          "name": "_gameId",
          "type": "uint256"
        }
      ],
      "name": "attestationStartTimeOf",
      "outputs": [
        {
          "internalType": "uint256",
          "name": "",
          "type": "uint256"
        }
      ],
      "stateMutability": "view",
      "type": "function"
    },
    {
      "inputs": [],
      "name": "controller",
      "outputs": [
        {
          "internalType": "contract IJBController3_1",
          "name": "",
          "type": "address"
        }
      ],
      "stateMutability": "view",
      "type": "function"
    },
    {
      "inputs": [
        {
          "internalType": "uint256",
          "name": "",
          "type": "uint256"
        }
      ],
      "name": "defaultAttestationDelegateProposalOf",
      "outputs": [
        {
          "internalType": "uint256",
          "name": "",
          "type": "uint256"
        }
      ],
      "stateMutability": "view",
      "type": "function"
    },
    {
      "inputs": [
        {
          "internalType": "uint256",
          "name": "_gameId",
          "type": "uint256"
        },
        {
          "internalType": "address",
          "name": "_account",
          "type": "address"
        },
        {
          "internalType": "uint256",
          "name": "_blockNumber",
          "type": "uint256"
        }
      ],
      "name": "getAttestationWeight",
      "outputs": [
        {
          "internalType": "uint256",
          "name": "attestationPower",
          "type": "uint256"
        }
      ],
      "stateMutability": "view",
      "type": "function"
    },
    {
      "inputs": [
        {
          "internalType": "uint256",
          "name": "_gameId",
          "type": "uint256"
        },
        {
          "internalType": "uint256",
          "name": "_scorecardId",
          "type": "uint256"
        },
        {
          "internalType": "address",
          "name": "_account",
          "type": "address"
        }
      ],
      "name": "hasAttestedTo",
      "outputs": [
        {
          "internalType": "bool",
          "name": "",
          "type": "bool"
        }
      ],
      "stateMutability": "view",
      "type": "function"
    },
    {
      "inputs": [
        {
          "internalType": "address",
          "name": "_gameDelegate",
          "type": "address"
        },
        {
          "internalType": "bytes",
          "name": "_data",
          "type": "bytes"
        }
      ],
      "name": "hashScorecardOf",
      "outputs": [
        {
          "internalType": "uint256",
          "name": "",
          "type": "uint256"
        }
      ],
      "stateMutability": "pure",
      "type": "function"
    },
    {
      "inputs": [
        {
          "internalType": "uint256",
          "name": "_gameId",
          "type": "uint256"
        },
        {
          "internalType": "uint256",
          "name": "_attestationStartTime",
          "type": "uint256"
        },
        {
          "internalType": "uint256",
          "name": "_attestationGracePeriod",
          "type": "uint256"
        }
      ],
      "name": "initializeGame",
      "outputs": [],
      "stateMutability": "nonpayable",
      "type": "function"
    },
    {
      "inputs": [],
      "name": "owner",
      "outputs": [
        {
          "internalType": "address",
          "name": "",
          "type": "address"
        }
      ],
      "stateMutability": "view",
      "type": "function"
    },
    {
      "inputs": [
        {
          "internalType": "uint256",
          "name": "_gameId",
          "type": "uint256"
        }
      ],
      "name": "quorum",
      "outputs": [
        {
          "internalType": "uint256",
          "name": "",
          "type": "uint256"
        }
      ],
      "stateMutability": "view",
      "type": "function"
    },
    {
      "inputs": [
        {
          "internalType": "uint256",
          "name": "",
          "type": "uint256"
        }
      ],
      "name": "ratifiedScorecardIdOf",
      "outputs": [
        {
          "internalType": "uint256",
          "name": "",
          "type": "uint256"
        }
      ],
      "stateMutability": "view",
      "type": "function"
    },
    {
      "inputs": [
        {
          "internalType": "uint256",
          "name": "_gameId",
          "type": "uint256"
        },
        {
          "components": [
            {
              "internalType": "uint256",
              "name": "id",
              "type": "uint256"
            },
            {
              "internalType": "uint256",
              "name": "redemptionWeight",
              "type": "uint256"
            }
          ],
          "internalType": "struct DefifaTierRedemptionWeight[]",
          "name": "_tierWeights",
          "type": "tuple[]"
        }
      ],
      "name": "ratifyScorecardFrom",
      "outputs": [
        {
          "internalType": "uint256",
          "name": "scorecardId",
          "type": "uint256"
        }
      ],
      "stateMutability": "nonpayable",
      "type": "function"
    },
    {
      "inputs": [],
      "name": "renounceOwnership",
      "outputs": [],
      "stateMutability": "nonpayable",
      "type": "function"
    },
    {
      "inputs": [
        {
          "internalType": "uint256",
          "name": "_gameId",
          "type": "uint256"
        },
        {
          "internalType": "uint256",
          "name": "_scorecardId",
          "type": "uint256"
        }
      ],
      "name": "stateOf",
      "outputs": [
        {
          "internalType": "enum DefifaScorecardState",
          "name": "",
          "type": "uint8"
        }
      ],
      "stateMutability": "view",
      "type": "function"
    },
    {
      "inputs": [
        {
          "internalType": "uint256",
          "name": "_gameId",
          "type": "uint256"
        },
        {
          "components": [
            {
              "internalType": "uint256",
              "name": "id",
              "type": "uint256"
            },
            {
              "internalType": "uint256",
              "name": "redemptionWeight",
              "type": "uint256"
            }
          ],
          "internalType": "struct DefifaTierRedemptionWeight[]",
          "name": "_tierWeights",
          "type": "tuple[]"
        }
      ],
      "name": "submitScorecardFor",
      "outputs": [
        {
          "internalType": "uint256",
          "name": "scorecardId",
          "type": "uint256"
        }
      ],
      "stateMutability": "nonpayable",
      "type": "function"
    },
    {
      "inputs": [
        {
          "internalType": "address",
          "name": "newOwner",
          "type": "address"
        }
      ],
      "name": "transferOwnership",
      "outputs": [],
      "stateMutability": "nonpayable",
      "type": "function"
    }
  ],
  "bytecode": {
    "object": "0x60c0346100d457601f611c3038819003918201601f19168301916001600160401b038311848410176100d95780849260409485528339810103126100d45780516001600160a01b039182821682036100d45760200151906000543360018060a01b0319821617600055604051933391167f8be0079c531659141344cd1fd0a4f28419497f9722a3daafe3b4186f6b6457e0600080a360a052608052611b4090816100f08239608051816106e6015260a0518181816101a701528181610367015281816105f90152818161149f01526116420152f35b600080fd5b634e487b7160e01b600052604160045260246000fdfe608080604052600436101561001357600080fd5b60003560e01c908163222e143b14610f45575080632511642914610e025780633d0908b414610dcc578063517a618014610dad578063715018a614610d3c5780638da5cb5b14610d1557806391fb2e9814610ce05780639234799114610c7e578063a42e6c7d14610c01578063b7e8f6da1461059c578063c543882f14610555578063ce1e82d51461031a578063d826e899146102e7578063f0a92a1e146102bb578063f2fde38b146101cb578063f77c479114610187578063f80c73a11461015b578063f8ce560a146101355763f94633fb146100f057600080fd5b346101305761010761010136610f75565b906110ba565b604051600582101561011a576020918152f35b634e487b7160e01b600052602160045260246000fd5b600080fd5b34610130576020600319360112610130576020610153600435611477565b604051908152f35b346101305760206003193601126101305760043560005260046020526020604060002054604051908152f35b346101305760006003193601126101305760206040516001600160a01b037f0000000000000000000000000000000000000000000000000000000000000000168152f35b34610130576020600319360112610130576101e4610f8b565b6101ec6119ad565b6001600160a01b0380911690811561025157600054827fffffffffffffffffffffffff0000000000000000000000000000000000000000821617600055167f8be0079c531659141344cd1fd0a4f28419497f9722a3daafe3b4186f6b6457e0600080a3005b608460405162461bcd60e51b815260206004820152602660248201527f4f776e61626c653a206e6577206f776e657220697320746865207a65726f206160448201527f64647265737300000000000000000000000000000000000000000000000000006064820152fd5b346101305760206003193601126101305760043560005260056020526020604060002054604051908152f35b34610130576102f536610f75565b9060005260026020526040600020906000526020526020604060002054604051908152f35b346101305761032836610fe0565b91806000526020926005845260406000205461052b5760405190638776c49960e01b82528260048301526103a0936001600160a01b03928581602481877f0000000000000000000000000000000000000000000000000000000000000000165afa95861561051f576000966104e2575b5050610200916103a791611965565b93016103b68483835116611078565b936103c185856110ba565b600581101561011a576003036104b8576000928392858452600588528660408520555116828783519301915af1903d156104b1573d6103ff81610fc4565b9061040d6040519283610fa1565b81523d60008683013e5b604051604081019181831067ffffffffffffffff84111761049b57859461046993604052600d83527f4241445f53434f5245434152440000000000000000000000000000000000000088840152611a05565b507f47c473fdeacbc61881306133d8e38075619b3cfed85b1a2c9552ddd3a788dc2f84604051338152a3604051908152f35b634e487b7160e01b600052604160045260246000fd5b6060610417565b60046040517f95c31a56000000000000000000000000000000000000000000000000000000008152fd5b6103a792965061020093918161050c92903d10610518575b6105048183610fa1565b8101906111e6565b90509591819350610398565b503d6104fa565b6040513d6000823e3d90fd5b60046040517fe63e1225000000000000000000000000000000000000000000000000000000008152fd5b34610130576060600319360112610130576024356105716119ad565b8015610595575b600435600052600360205260443560301b17604060002055600080f35b5042610578565b34610130576105aa36610fe0565b909180600052600560205260406000205461052b5780600052600360205260406000205415610bd757604051638776c49960e01b81528160048201526103a09081816024816001600160a01b037f0000000000000000000000000000000000000000000000000000000000000000165afa91821561051f57600092610bb8575b505060005b8381106109175750610200019161065a6001600160a01b038451166106548387611965565b90611078565b9282600052600160205260406000208460005260205260406000209081549165ffffffffffff8084166108ed578590816000526003602052806040600020541680421160001461088f575091600494602094926bffffffffffffffffffffffff196bffffffffffff00000000000061075c61070c6001600160a01b03986107576000915b61071261070c7f00000000000000000000000000000000000000000000000000000000000000008095611457565b43611600565b1696877fffffffffffffffffffffffffffffffffffffffffffffffffffff0000000000008a16178a55600052600360205265ffffffffffff60406000205460301c1690565b611457565b60301b169216171790555116604051928380927f7f9898870000000000000000000000000000000000000000000000000000000082525afa90811561051f5760009161081e575b506020948493926001600160a01b037fa8529171c1868e465ad2895d671a738ffb5f0764bd6dffd13339152af5c5f3a0931633148061080a575b6107f4604051938493606085526060850191611926565b90888301523360408301520390a3604051908152f35b8460005260048852856040600020556107dd565b90506020929192813d602011610887575b8161083c60209383610fa1565b810103126101305760209484936001600160a01b0361087b7fa8529171c1868e465ad2895d671a738ffb5f0764bd6dffd13339152af5c5f3a0946111d2565b935050929350946107a3565b3d915061082f565b939150914284039384116108d757600494876bffffffffffffffffffffffff196bffffffffffff00000000000061075c61070c6001600160a01b039861075760209b916106de565b634e487b7160e01b600052601160045260246000fd5b60046040517f440a4570000000000000000000000000000000000000000000000000000000008152fd5b600460206001600160a01b03610200850151166040519283809263975057e760e01b82525afa90811561051f57600091610b89575b5060006001600160a01b0361020085015116606461096b85898b611900565b35916001600160a01b0360405195869485937f64faa15900000000000000000000000000000000000000000000000000000000855260048501526024840152856044840152165afa90811561051f57600091610a21575b50604060608201519101511480610a0a575b6109e05760010161062f565b60046040517fd1f78be3000000000000000000000000000000000000000000000000000000008152fd5b506020610a18828688611900565b013515156109d4565b90503d806000833e610a338183610fa1565b60208282810103126101305781519167ffffffffffffffff831161013057610180928381830184840103126101305760405193848181011067ffffffffffffffff828701111761049b578401604090815282820180518652602080820151908701528082015191860191909152606080820151908601526080808201519086015260a0808201519086015260c090610acc9082016111d2565b9085015281810160e08181015190860152610100808201519086015261012090610af79082016111c5565b90850152610140610b0b81838501016111c5565b9085015261016081830101519167ffffffffffffffff831161013057838101601f84848401010112156101305782828201015191610b4883610fc4565b94610b566040519687610fa1565b8386528201602084868486010101011161013057610b7d9360209182870193010101611030565b610160820152866109c2565b610bab915060203d602011610bb1575b610ba38183610fa1565b810190611438565b8661094c565b503d610b99565b610bce9250803d10610518576105048183610fa1565b9050848061062a565b60046040517ffd176724000000000000000000000000000000000000000000000000000000008152fd5b3461013057604060031936011261013057610c1a610f8b565b60243567ffffffffffffffff8111610130573660238201121561013057806004013591610c4683610fc4565b90610c546040519283610fa1565b83825236602485850101116101305760006020858196602461015397018387013784010152611078565b34610130576060600319360112610130576044356001600160a01b0381168091036101305760043560005260026020526040600020602435600052602052600160406000200190600052602052602060ff604060002054166040519015158152f35b34610130576020600319360112610130576020610153600435600052600360205265ffffffffffff60406000205460301c1690565b346101305760006003193601126101305760206001600160a01b0360005416604051908152f35b3461013057600060031936011261013057610d556119ad565b60006001600160a01b0381547fffffffffffffffffffffffff000000000000000000000000000000000000000081168355167f8be0079c531659141344cd1fd0a4f28419497f9722a3daafe3b4186f6b6457e08280a3005b34610130576000600319360112610130576020604051633b9aca008152f35b34610130576060600319360112610130576024356001600160a01b0381168103610130576101536020916044359060043561160d565b3461013057610e1036610f75565b9080600052602091600183526040600020816000528352604060002091610e3782826110ba565b600581101561011a5760018114159081610f39575b506104b8578060005260028452604060002082600052845260406000209260018401903360005281865260ff60406000205416610f0f5765ffffffffffff610e97915416338461160d565b93610ea3858254611600565b9055336000528452604060002060017fffffffffffffffffffffffffffffffffffffffffffffffffffffffffffffff008254161790557fc49d39a4ac0db2fda0e72ce3ff9d5ee27f409cecd8fa183fd8bf36a05f9c788d604080518581523387820152a3604051908152f35b60046040517f944e4a31000000000000000000000000000000000000000000000000000000008152fd5b60039150141585610e4c565b34610130576020600319360112610130576020906004356000526003825265ffffffffffff604060002054168152f35b6003196040910112610130576004359060243590565b600435906001600160a01b038216820361013057565b90601f601f19910116810190811067ffffffffffffffff82111761049b57604052565b67ffffffffffffffff811161049b57601f01601f191660200190565b6040600319820112610130576004359160243567ffffffffffffffff9283821161013057806023830112156101305781600401359384116101305760248460061b83010111610130576024019190565b60005b8381106110435750506000910152565b8181015183820152602001611033565b90601f19601f60209361107181518092818752878088019101611030565b0116010190565b906110b46110a6916040519283916001600160a01b0360208401961686526040808401526060830190611053565b03601f198101835282610fa1565b51902090565b6000918183526020906005825260409182852054806111ac575060018152828520828652815282852083519084820182811067ffffffffffffffff821117611198578552549065ffffffffffff90818316808252828583019460301c1684521561116f575181164311156111665743915116101561115c5761113b84611477565b9385526002815282852091855252909120541061115757600390565b600190565b5050505050600190565b50505050505090565b600486517feb24c39f000000000000000000000000000000000000000000000000000000008152fd5b602488634e487b7160e01b81526041600452fd5b93505092905050146000146111c057600490565b600290565b5190811515820361013057565b51906001600160a01b038216820361013057565b80929103916103a08312610130576101208312610130576040805167ffffffffffffffff92919061012081018481118282101761049b57825282518152602083015160208201528183015182820152606083015160608201526080830151608082015260a083015160a082015260c083015160c082015260e0830151906001600160a01b0382168203610130577ffffffffffffffffffffffffffffffffffffffffffffffffffffffffffffffee09160e0820152610100840151610100820152950161028081126101305781519361024092838601928684108385111761049b57606013610130576102a0918683019081118482101761049b5781526112ef61012086016111c5565b83526101406112ff8682016111c5565b93610260948589015261016090818801611318906111c5565b6102808a01528852610180918288015160208a01526101a09384890151908a01526101c0948589015160608b01526101e096878a01611356906111c5565b60808c01526102009861136a8b8b016111c5565b60a08d015261137c6102208c016111c5565b60c08d01528a0161138c906111c5565b60e08c0152890161139c906111c5565b6101008b01526113af6102808a016111c5565b6101208b015288016113c0906111c5565b908901526113d16102c088016111c5565b908801526113e26102e087016111c5565b908701526113f361030086016111c5565b9086015261140461032085016111c5565b9085015261141561034084016111c5565b9084015261142661036083016111d2565b90830152610380015161022082015290565b9081602091031261013057516001600160a01b03811681036101305790565b8115611461570490565b634e487b7160e01b600052601260045260246000fd5b6040805191638776c49960e01b835260048301526103a06001600160a01b03928181602481877f0000000000000000000000000000000000000000000000000000000000000000165afa9182156115f5579061020092916000926115d6575b50500182815116908251809263975057e760e01b825281600460209586935afa9081156115cb5790858493926000926115ab575b50602491925116855196879384927ff1bea54f0000000000000000000000000000000000000000000000000000000084526004840152165afa9182156115a15750600091611572575b50905060011c633b9aca00908181029181830414901517156108d75790565b82813d831161159a575b6115868183610fa1565b810103126115975750518038611553565b80fd5b503d61157c565b513d6000823e3d90fd5b602492506115c590853d8711610bb157610ba38183610fa1565b9161150a565b84513d6000823e3d90fd5b6115ec9250803d10610518576105048183610fa1565b905038806114d6565b83513d6000823e3d90fd5b919082018092116108d757565b92916000936000906040805194638776c49960e01b8652600492838701526103a0946024956001600160a01b0397818189818c7f0000000000000000000000000000000000000000000000000000000000000000165afa9182156118f65790610200929188926118d7575b50500187815116918451809363975057e760e01b8252818860209687935afa9081156118cd5793809392918b9796958a916118b0575b508a888551168851998a9384927ff1bea54f0000000000000000000000000000000000000000000000000000000084528d840152165afa9586156118a6578896611873575b50875b86811061170a575050505050505050505050565b6001810190818111611861578b8451168751907fea1c1b250000000000000000000000000000000000000000000000000000000082528d88168b830152838d830152868260648160449489868301525afa918215611828578c92611832575b5081611789575b5050196116f657898960118a634e487b7160e01b835252fd5b90919e9186848f938f948c8f918a908c5116915197889586947fd9119f5f0000000000000000000000000000000000000000000000000000000086528501528301525afa918215611828578c926117f3575b5060001992916117ea91611a49565b019d9038611770565b9091508681813d8311611821575b61180b8183610fa1565b8101031261181d5751906117ea6117db565b8b80fd5b503d611801565b89513d8e823e3d90fd5b9091508681813d831161185a575b61184a8183610fa1565b8101031261181d57519038611769565b503d611840565b8a8a60118b634e487b7160e01b835252fd5b9095508281813d831161189f575b61188b8183610fa1565b8101031261189b575194386116f3565b8780fd5b503d611881565b85513d8a823e3d90fd5b6118c79150823d8411610bb157610ba38183610fa1565b386116ae565b86513d8a823e3d90fd5b6118ed9250803d10610518576105048183610fa1565b90503880611678565b85513d89823e3d90fd5b91908110156119105760061b0190565b634e487b7160e01b600052603260045260246000fd5b9190808252602080920192916000905b828210611944575050505090565b83358552838101358582015260409485019490930192600190910190611936565b906119aa906110a66040519384927ffadd72b7000000000000000000000000000000000000000000000000000000006020850152602060248501526044840191611926565b90565b6001600160a01b036000541633036119c157565b606460405162461bcd60e51b815260206004820152602060248201527f4f776e61626c653a2063616c6c6572206973206e6f7420746865206f776e65726044820152fd5b90919015611a11575090565b815115611a215750805190602001fd5b611a459060405191829162461bcd60e51b8352602060048401526024830190611053565b0390fd5b90633b9aca00906000198383099280830292838086109503948086039514611afd5782851015611ac657908291096001821901821680920460028082600302188083028203028083028203028083028203028083028203028083028203028092029003029360018380600003040190848311900302920304170290565b60448584604051917f773cc18c00000000000000000000000000000000000000000000000000000000835260048301526024820152fd5b5050906119aa925061145756fea2646970667358221220f71f37734ebf0be15b49c158607e3a6463232314b24833f8b9fdf6757ebbce9e64736f6c63430008140033",
    "linkReferences": {}
  },
  "methodIdentifiers": {
    "MAX_ATTESTATION_POWER_TIER()": "517a6180",
    "attestToScorecardFrom(uint256,uint256)": "25116429",
    "attestationCountOf(uint256,uint256)": "d826e899",
    "attestationGracePeriodOf(uint256)": "91fb2e98",
    "attestationStartTimeOf(uint256)": "222e143b",
    "controller()": "f77c4791",
    "defaultAttestationDelegateProposalOf(uint256)": "f80c73a1",
    "getAttestationWeight(uint256,address,uint256)": "3d0908b4",
    "hasAttestedTo(uint256,uint256,address)": "92347991",
    "hashScorecardOf(address,bytes)": "a42e6c7d",
    "initializeGame(uint256,uint256,uint256)": "c543882f",
    "owner()": "8da5cb5b",
    "quorum(uint256)": "f8ce560a",
    "ratifiedScorecardIdOf(uint256)": "f0a92a1e",
    "ratifyScorecardFrom(uint256,(uint256,uint256)[])": "ce1e82d5",
    "renounceOwnership()": "715018a6",
    "stateOf(uint256,uint256)": "f94633fb",
    "submitScorecardFor(uint256,(uint256,uint256)[])": "b7e8f6da",
    "transferOwnership(address)": "f2fde38b"
  },
  "id": 2
}