{
  "abi": [
    {
      "inputs": [
        {
          "internalType": "contract IJBController3_1",
          "name": "_controller",
          "type": "address"
        },
        {
          "internalType": "uint256",
          "name": "__blockTime",
          "type": "uint256"
        }
      ],
      "stateMutability": "nonpayable",
      "type": "constructor"
    },
    {
      "inputs": [],
      "name": "ALREADY_ATTESTED",
      "type": "error"
    },
    {
      "inputs": [],
      "name": "ALREADY_RATIFIED",
      "type": "error"
    },
    {
      "inputs": [],
      "name": "DUPLICATE_SCORECARD",
      "type": "error"
    },
    {
      "inputs": [],
      "name": "GAME_NOT_FOUND",
      "type": "error"
    },
    {
      "inputs": [],
      "name": "INCORRECT_TIER_ORDER",
      "type": "error"
    },
    {
      "inputs": [],
      "name": "NOT_ALLOWED",
      "type": "error"
    },
    {
      "inputs": [
        {
          "internalType": "uint256",
          "name": "prod1",
          "type": "uint256"
        },
        {
          "internalType": "uint256",
          "name": "denominator",
          "type": "uint256"
        }
      ],
      "name": "PRBMath__MulDivOverflow",
      "type": "error"
    },
    {
      "inputs": [],
      "name": "UNKNOWN_PROPOSAL",
      "type": "error"
    },
    {
      "inputs": [],
      "name": "UNOWNED_PROPOSED_REDEMPTION_VALUE",
      "type": "error"
    },
    {
      "anonymous": false,
      "inputs": [
        {
          "indexed": true,
          "internalType": "address",
          "name": "previousOwner",
          "type": "address"
        },
        {
          "indexed": true,
          "internalType": "address",
          "name": "newOwner",
          "type": "address"
        }
      ],
      "name": "OwnershipTransferred",
      "type": "event"
    },
    {
      "anonymous": false,
      "inputs": [
        {
          "indexed": true,
          "internalType": "uint256",
          "name": "gameId",
          "type": "uint256"
        },
        {
          "indexed": true,
          "internalType": "uint256",
          "name": "scorecardId",
          "type": "uint256"
        },
        {
          "indexed": false,
          "internalType": "uint256",
          "name": "weight",
          "type": "uint256"
        },
        {
          "indexed": false,
          "internalType": "address",
          "name": "caller",
          "type": "address"
        }
      ],
      "name": "ScorecardAttested",
      "type": "event"
    },
    {
      "anonymous": false,
      "inputs": [
        {
          "indexed": true,
          "internalType": "uint256",
          "name": "gameId",
          "type": "uint256"
        },
        {
          "indexed": true,
          "internalType": "uint256",
          "name": "scorecardId",
          "type": "uint256"
        },
        {
          "indexed": false,
          "internalType": "address",
          "name": "caller",
          "type": "address"
        }
      ],
      "name": "ScorecardRatified",
      "type": "event"
    },
    {
      "anonymous": false,
      "inputs": [
        {
          "indexed": true,
          "internalType": "uint256",
          "name": "gameId",
          "type": "uint256"
        },
        {
          "indexed": true,
          "internalType": "uint256",
          "name": "scorecardId",
          "type": "uint256"
        },
        {
          "components": [
            {
              "internalType": "uint256",
              "name": "id",
              "type": "uint256"
            },
            {
              "internalType": "uint256",
              "name": "redemptionWeight",
              "type": "uint256"
            }
          ],
          "indexed": false,
          "internalType": "struct DefifaTierRedemptionWeight[]",
          "name": "tierWeights",
          "type": "tuple[]"
        },
        {
          "indexed": false,
          "internalType": "bool",
          "name": "isDefaultAttestationDelegate",
          "type": "bool"
        },
        {
          "indexed": false,
          "internalType": "address",
          "name": "caller",
          "type": "address"
        }
      ],
      "name": "ScorecardSubmitted",
      "type": "event"
    },
    {
      "inputs": [],
      "name": "MAX_ATTESTATION_POWER_TIER",
      "outputs": [
        {
          "internalType": "uint256",
          "name": "",
          "type": "uint256"
        }
      ],
      "stateMutability": "view",
      "type": "function"
    },
    {
      "inputs": [
        {
          "internalType": "uint256",
          "name": "_gameId",
          "type": "uint256"
        },
        {
          "internalType": "uint256",
          "name": "_scorecardId",
          "type": "uint256"
        }
      ],
      "name": "attestToScorecardFrom",
      "outputs": [
        {
          "internalType": "uint256",
          "name": "weight",
          "type": "uint256"
        }
      ],
      "stateMutability": "nonpayable",
      "type": "function"
    },
    {
      "inputs": [
        {
          "internalType": "uint256",
          "name": "_gameId",
          "type": "uint256"
        },
        {
          "internalType": "uint256",
          "name": "_scorecardId",
          "type": "uint256"
        }
      ],
      "name": "attestationCountOf",
      "outputs": [
        {
          "internalType": "uint256",
          "name": "",
          "type": "uint256"
        }
      ],
      "stateMutability": "view",
      "type": "function"
    },
    {
      "inputs": [
        {
          "internalType": "uint256",
          "name": "_gameId",
          "type": "uint256"
        }
      ],
      "name": "attestationGracePeriodOf",
      "outputs": [
        {
          "internalType": "uint256",
          "name": "",
          "type": "uint256"
        }
      ],
      "stateMutability": "view",
      "type": "function"
    },
    {
      "inputs": [
        {
          "internalType": "uint256",
          "name": "_gameId",
          "type": "uint256"
        }
      ],
      "name": "attestationStartTimeOf",
      "outputs": [
        {
          "internalType": "uint256",
          "name": "",
          "type": "uint256"
        }
      ],
      "stateMutability": "view",
      "type": "function"
    },
    {
      "inputs": [],
      "name": "controller",
      "outputs": [
        {
          "internalType": "contract IJBController3_1",
          "name": "",
          "type": "address"
        }
      ],
      "stateMutability": "view",
      "type": "function"
    },
    {
      "inputs": [
        {
          "internalType": "uint256",
          "name": "",
          "type": "uint256"
        }
      ],
      "name": "defaultAttestationDelegateProposalOf",
      "outputs": [
        {
          "internalType": "uint256",
          "name": "",
          "type": "uint256"
        }
      ],
      "stateMutability": "view",
      "type": "function"
    },
    {
      "inputs": [
        {
          "internalType": "uint256",
          "name": "_gameId",
          "type": "uint256"
        },
        {
          "internalType": "address",
          "name": "_account",
          "type": "address"
        },
        {
          "internalType": "uint256",
          "name": "_blockNumber",
          "type": "uint256"
        }
      ],
      "name": "getAttestationWeight",
      "outputs": [
        {
          "internalType": "uint256",
          "name": "attestationPower",
          "type": "uint256"
        }
      ],
      "stateMutability": "view",
      "type": "function"
    },
    {
      "inputs": [
        {
          "internalType": "uint256",
          "name": "_gameId",
          "type": "uint256"
        },
        {
          "internalType": "uint256",
          "name": "_scorecardId",
          "type": "uint256"
        },
        {
          "internalType": "address",
          "name": "_account",
          "type": "address"
        }
      ],
      "name": "hasAttestedTo",
      "outputs": [
        {
          "internalType": "bool",
          "name": "",
          "type": "bool"
        }
      ],
      "stateMutability": "view",
      "type": "function"
    },
    {
      "inputs": [
        {
          "internalType": "uint256",
          "name": "_gameId",
          "type": "uint256"
        },
        {
          "internalType": "uint256",
          "name": "_attestationStartTime",
          "type": "uint256"
        },
        {
          "internalType": "uint256",
          "name": "_attestationGracePeriod",
          "type": "uint256"
        }
      ],
      "name": "initializeGame",
      "outputs": [],
      "stateMutability": "nonpayable",
      "type": "function"
    },
    {
      "inputs": [],
      "name": "owner",
      "outputs": [
        {
          "internalType": "address",
          "name": "",
          "type": "address"
        }
      ],
      "stateMutability": "view",
      "type": "function"
    },
    {
      "inputs": [
        {
          "internalType": "uint256",
          "name": "_gameId",
          "type": "uint256"
        }
      ],
      "name": "quorum",
      "outputs": [
        {
          "internalType": "uint256",
          "name": "",
          "type": "uint256"
        }
      ],
      "stateMutability": "view",
      "type": "function"
    },
    {
      "inputs": [
        {
          "internalType": "uint256",
          "name": "",
          "type": "uint256"
        }
      ],
      "name": "ratifiedScorecardIdOf",
      "outputs": [
        {
          "internalType": "uint256",
          "name": "",
          "type": "uint256"
        }
      ],
      "stateMutability": "view",
      "type": "function"
    },
    {
      "inputs": [
        {
          "internalType": "uint256",
          "name": "_gameId",
          "type": "uint256"
        },
        {
          "components": [
            {
              "internalType": "uint256",
              "name": "id",
              "type": "uint256"
            },
            {
              "internalType": "uint256",
              "name": "redemptionWeight",
              "type": "uint256"
            }
          ],
          "internalType": "struct DefifaTierRedemptionWeight[]",
          "name": "_tierWeights",
          "type": "tuple[]"
        }
      ],
      "name": "ratifyScorecardFrom",
      "outputs": [
        {
          "internalType": "uint256",
          "name": "scorecardId",
          "type": "uint256"
        }
      ],
      "stateMutability": "nonpayable",
      "type": "function"
    },
    {
      "inputs": [],
      "name": "renounceOwnership",
      "outputs": [],
      "stateMutability": "nonpayable",
      "type": "function"
    },
    {
      "inputs": [
        {
          "internalType": "address",
          "name": "_gameDelegate",
          "type": "address"
        },
        {
          "components": [
            {
              "internalType": "uint256",
              "name": "id",
              "type": "uint256"
            },
            {
              "internalType": "uint256",
              "name": "redemptionWeight",
              "type": "uint256"
            }
          ],
          "internalType": "struct DefifaTierRedemptionWeight[]",
          "name": "_tierWeights",
          "type": "tuple[]"
        }
      ],
      "name": "scorecardIdOf",
      "outputs": [
        {
          "internalType": "uint256",
          "name": "",
          "type": "uint256"
        }
      ],
      "stateMutability": "pure",
      "type": "function"
    },
    {
      "inputs": [
        {
          "internalType": "uint256",
          "name": "_gameId",
          "type": "uint256"
        },
        {
          "internalType": "uint256",
          "name": "_scorecardId",
          "type": "uint256"
        }
      ],
      "name": "stateOf",
      "outputs": [
        {
          "internalType": "enum DefifaScorecardState",
          "name": "",
          "type": "uint8"
        }
      ],
      "stateMutability": "view",
      "type": "function"
    },
    {
      "inputs": [
        {
          "internalType": "uint256",
          "name": "_gameId",
          "type": "uint256"
        },
        {
          "components": [
            {
              "internalType": "uint256",
              "name": "id",
              "type": "uint256"
            },
            {
              "internalType": "uint256",
              "name": "redemptionWeight",
              "type": "uint256"
            }
          ],
          "internalType": "struct DefifaTierRedemptionWeight[]",
          "name": "_tierWeights",
          "type": "tuple[]"
        }
      ],
      "name": "submitScorecardFor",
      "outputs": [
        {
          "internalType": "uint256",
          "name": "scorecardId",
          "type": "uint256"
        }
      ],
      "stateMutability": "nonpayable",
      "type": "function"
    },
    {
      "inputs": [
        {
          "internalType": "address",
          "name": "newOwner",
          "type": "address"
        }
      ],
      "name": "transferOwnership",
      "outputs": [],
      "stateMutability": "nonpayable",
      "type": "function"
    }
  ],
  "bytecode": {
    "object": "0x60c0346100d457601f611f0238819003918201601f19168301916001600160401b038311848410176100d95780849260409485528339810103126100d45780516001600160a01b039182821682036100d45760200151906000543360018060a01b0319821617600055604051933391167f8be0079c531659141344cd1fd0a4f28419497f9722a3daafe3b4186f6b6457e0600080a360a052608052611e1290816100f08239608051816108c2015260a0518181816101a701528181610398015281816107d20152818161161301526118b90152f35b600080fd5b634e487b7160e01b600052604160045260246000fdfe608080604052600436101561001357600080fd5b60003560e01c908163222e143b14610f5f575080632511642914610e1c5780633d0908b414610de6578063517a618014610dc7578063715018a614610d565780638da5cb5b14610d2f57806391fb2e9814610cfa5780639234799114610c98578063b7e8f6da14610775578063c543882f1461072e578063ce1e82d514610368578063d826e89914610335578063deec0bb0146102e7578063f0a92a1e146102bb578063f2fde38b146101cb578063f77c479114610187578063f80c73a11461015b578063f8ce560a146101355763f94633fb146100f057600080fd5b346101305761010761010136610f8f565b90611076565b604051600582101561011a576020918152f35b634e487b7160e01b600052602160045260246000fd5b600080fd5b346101305760206003193601126101305760206101536004356115e5565b604051908152f35b346101305760206003193601126101305760043560005260046020526020604060002054604051908152f35b346101305760006003193601126101305760206040516001600160a01b037f0000000000000000000000000000000000000000000000000000000000000000168152f35b34610130576020600319360112610130576101e4610fa5565b6101ec611c61565b6001600160a01b0380911690811561025157600054827fffffffffffffffffffffffff0000000000000000000000000000000000000000821617600055167f8be0079c531659141344cd1fd0a4f28419497f9722a3daafe3b4186f6b6457e0600080a3005b608460405162461bcd60e51b815260206004820152602660248201527f4f776e61626c653a206e6577206f776e657220697320746865207a65726f206160448201527f64647265737300000000000000000000000000000000000000000000000000006064820152fd5b346101305760206003193601126101305760043560005260056020526020604060002054604051908152f35b3461013057604060031936011261013057610300610fa5565b60243567ffffffffffffffff81116101305760209161032f610329610153933690600401610fbb565b90611bb2565b90611c2d565b346101305761034336610f8f565b9060005260026020526040600020906000526020526020604060002054604051908152f35b346101305761037636610fec565b91908160005260209160058352604060002054610704576001600160a01b03807f0000000000000000000000000000000000000000000000000000000000000000169060405195638776c49960e01b87528360048801526103a09460249786818a81885afa9687156105f1576000976106c7575b5050610200916103f991611bb2565b9401936104098183875116611c2d565b946104148686611076565b60058110156106b2576003036106885760009183839287845260058a528860408520555116828983519301915af13d15610680573d9061045382611479565b916104616040519384611053565b82523d60008884013e5b604051936040850167ffffffffffffffff958082108783111761066b576004948a946104c293604052600d83527f4241445f53434f5245434152440000000000000000000000000000000000000086840152611cb9565b50604051928380927f8b79543c0000000000000000000000000000000000000000000000000000000082525afa9081156105f15782918791600091610632575b5088604051809481937f6352211e000000000000000000000000000000000000000000000000000000008352896004840152165afa9081156105f1576000916105fd575b501690813b15610130576000809287604051809581937fb6674cde0000000000000000000000000000000000000000000000000000000083528860048401525af180156105f1576105c7575b505081907f47c473fdeacbc61881306133d8e38075619b3cfed85b1a2c9552ddd3a788dc2f84604051338152a3604051908152f35b81116105dc5782939450604052839285610592565b84634e487b7160e01b60005260416004526000fd5b6040513d6000823e3d90fd5b90508581813d831161062b575b6106148183611053565b81010312610130576106259061118e565b87610546565b503d61060a565b92505081813d8311610664575b6106498183611053565b81010312610130575181811681036101305785829189610502565b503d61063f565b8a634e487b7160e01b60005260416004526000fd5b60609061046b565b60046040517f95c31a56000000000000000000000000000000000000000000000000000000008152fd5b88634e487b7160e01b60005260216004526000fd5b6103f99297506102009391816106f192903d106106fd575b6106e98183611053565b8101906111a2565b905096918193506103ea565b503d6106df565b60046040517fe63e1225000000000000000000000000000000000000000000000000000000008152fd5b346101305760606003193601126101305760243561074a611c61565b801561076e575b600435600052600360205260443560301b17604060002055600080f35b5042610751565b346101305761078336610fec565b90918060005260056020526040600020546107045780600052600360205260406000205415610c6e57604051638776c49960e01b81528160048201526103a09081816024816001600160a01b037f0000000000000000000000000000000000000000000000000000000000000000165afa9182156105f157600092610c4f575b505061080d611413565b5060005b838110610af3575061020001916108366001600160a01b0384511661032f8387611bb2565b9282600052600160205260406000208460005260205260406000209081549165ffffffffffff808416610ac95785908160005260036020528060406000205416804211600014610a6b575091600494602094926bffffffffffffffffffffffff196bffffffffffff0000000000006109386108e86001600160a01b03986109336000915b6108ee6108e87f000000000000000000000000000000000000000000000000000000000000000080956115c5565b4361146c565b1696877fffffffffffffffffffffffffffffffffffffffffffffffffffff0000000000008a16178a55600052600360205265ffffffffffff60406000205460301c1690565b6115c5565b60301b169216171790555116604051928380927f7f9898870000000000000000000000000000000000000000000000000000000082525afa9081156105f1576000916109fa575b506020948493926001600160a01b037fa8529171c1868e465ad2895d671a738ffb5f0764bd6dffd13339152af5c5f3a093163314806109e6575b6109d0604051938493606085526060850191611b73565b90888301523360408301520390a3604051908152f35b8460005260048852856040600020556109b9565b90506020929192813d602011610a63575b81610a1860209383611053565b810103126101305760209484936001600160a01b03610a577fa8529171c1868e465ad2895d671a738ffb5f0764bd6dffd13339152af5c5f3a09461118e565b9350509293509461097f565b3d9150610a0b565b93915091428403938411610ab357600494876bffffffffffffffffffffffff196bffffffffffff0000000000006109386108e86001600160a01b039861093360209b916108ba565b634e487b7160e01b600052601160045260246000fd5b60046040517f440a4570000000000000000000000000000000000000000000000000000000008152fd5b600460206001600160a01b03610200850151166040519283809263975057e760e01b82525afa9081156105f157600091610c20575b5060006001600160a01b03610200850151166064610b4785898b611b4d565b35916001600160a01b0360405195869485937f64faa15900000000000000000000000000000000000000000000000000000000855260048501526024840152856044840152165afa9081156105f157600091610bfd575b50604060608201519101511480610be6575b610bbc57600101610811565b60046040517fd1f78be3000000000000000000000000000000000000000000000000000000008152fd5b506020610bf4828688611b4d565b01351515610bb0565b610c1a91503d806000833e610c128183611053565b8101906114b8565b86610b9e565b610c42915060203d602011610c48575b610c3a8183611053565b8101906113f4565b86610b28565b503d610c30565b610c659250803d106106fd576106e98183611053565b90508480610803565b60046040517ffd176724000000000000000000000000000000000000000000000000000000008152fd5b34610130576060600319360112610130576044356001600160a01b0381168091036101305760043560005260026020526040600020602435600052602052600160406000200190600052602052602060ff604060002054166040519015158152f35b34610130576020600319360112610130576020610153600435600052600360205265ffffffffffff60406000205460301c1690565b346101305760006003193601126101305760206001600160a01b0360005416604051908152f35b3461013057600060031936011261013057610d6f611c61565b60006001600160a01b0381547fffffffffffffffffffffffff000000000000000000000000000000000000000081168355167f8be0079c531659141344cd1fd0a4f28419497f9722a3daafe3b4186f6b6457e08280a3005b34610130576000600319360112610130576020604051633b9aca008152f35b34610130576060600319360112610130576024356001600160a01b03811681036101305761015360209160443590600435611882565b3461013057610e2a36610f8f565b9080600052602091600183526040600020816000528352604060002091610e518282611076565b600581101561011a5760018114159081610f53575b50610688578060005260028452604060002082600052845260406000209260018401903360005281865260ff60406000205416610f295765ffffffffffff610eb19154163384611882565b93610ebd85825461146c565b9055336000528452604060002060017fffffffffffffffffffffffffffffffffffffffffffffffffffffffffffffff008254161790557fc49d39a4ac0db2fda0e72ce3ff9d5ee27f409cecd8fa183fd8bf36a05f9c788d604080518581523387820152a3604051908152f35b60046040517f944e4a31000000000000000000000000000000000000000000000000000000008152fd5b60039150141585610e66565b34610130576020600319360112610130576020906004356000526003825265ffffffffffff604060002054168152f35b6003196040910112610130576004359060243590565b600435906001600160a01b038216820361013057565b9181601f840112156101305782359167ffffffffffffffff8311610130576020808501948460061b01011161013057565b90604060031983011261013057600435916024359067ffffffffffffffff82116101305761101c91600401610fbb565b9091565b610180810190811067ffffffffffffffff82111761103d57604052565b634e487b7160e01b600052604160045260246000fd5b90601f601f19910116810190811067ffffffffffffffff82111761103d57604052565b600091818352602090600582526040918285205480611168575060018152828520828652815282852083519084820182811067ffffffffffffffff821117611154578552549065ffffffffffff90818316808252828583019460301c1684521561112b5751811643111561112257439151161015611118576110f7846115e5565b9385526002815282852091855252909120541061111357600390565b600190565b5050505050600190565b50505050505090565b600486517feb24c39f000000000000000000000000000000000000000000000000000000008152fd5b602488634e487b7160e01b81526041600452fd5b935050929050501460001461117c57600490565b600290565b5190811515820361013057565b51906001600160a01b038216820361013057565b80929103916103a08312610130576101208312610130576040805167ffffffffffffffff92919061012081018481118282101761103d57825282518152602083015160208201528183015182820152606083015160608201526080830151608082015260a083015160a082015260c083015160c082015260e0830151906001600160a01b0382168203610130577ffffffffffffffffffffffffffffffffffffffffffffffffffffffffffffffee09160e0820152610100840151610100820152950161028081126101305781519361024092838601928684108385111761103d57606013610130576102a0918683019081118482101761103d5781526112ab6101208601611181565b83526101406112bb868201611181565b936102609485890152610160908188016112d490611181565b6102808a01528852610180918288015160208a01526101a09384890151908a01526101c0948589015160608b01526101e096878a0161131290611181565b60808c0152610200986113268b8b01611181565b60a08d01526113386102208c01611181565b60c08d01528a0161134890611181565b60e08c0152890161135890611181565b6101008b015261136b6102808a01611181565b6101208b0152880161137c90611181565b9089015261138d6102c08801611181565b9088015261139e6102e08701611181565b908701526113af6103008601611181565b908601526113c06103208501611181565b908501526113d16103408401611181565b908401526113e2610360830161118e565b90830152610380015161022082015290565b9081602091031261013057516001600160a01b03811681036101305790565b6040519061142082611020565b606061016083600080825280602083015280604083015280848301528060808301528060a08301528060c08301528060e083015280610100830152806101208301526101408201520152565b91908201809211610ab357565b67ffffffffffffffff811161103d57601f01601f191660200190565b60005b8381106114a85750506000910152565b8181015183820152602001611498565b906020808383031261013057825167ffffffffffffffff938482116101305701906101808284031261013057604051936114f185611020565b82518552818301518286015260408301516040860152606083015160608601526080830151608086015260a083015160a086015261153160c0840161118e565b60c086015260e083015160e08601526101008084015190860152610120611559818501611181565b9086015261014061156b818501611181565b908601526101609283810151918211610130570183601f820112156101305780519061159682611479565b946115a46040519687611053565b82865283838301011161013057826115bf9386019101611495565b82015290565b81156115cf570490565b634e487b7160e01b600052601260045260246000fd5b604090815190638776c49960e01b8252600490818301526103a0906024916001600160a01b039381818581887f0000000000000000000000000000000000000000000000000000000000000000165afa9182156117c257906102009291600092611863575b5050019383855116948151908163975057e760e01b97888252818660209586935afa908115611858579280929188959460009161183b575b50878684511686519a8b9384927ff1bea54f0000000000000000000000000000000000000000000000000000000084528b840152165afa968715611830576000976117fe575b506116d1611413565b50600097885b8881106116ed5750505050505050505060011c90565b8684878551168751928380928782525afa9081156117c2576000916117e1575b508684511690600183018093116117cd57899160648a8a600094878c5197889687957f64faa159000000000000000000000000000000000000000000000000000000008752860152840152856044840152165afa9081156117c2576000916117a9575b5085606082015191015110156116d75798633b9aca00810180911161179557986116d7565b87601188634e487b7160e01b600052526000fd5b6117bc913d8091833e610c128183611053565b38611770565b86513d6000823e3d90fd5b8960118a634e487b7160e01b600052526000fd5b6117f89150853d8711610c4857610c3a8183611053565b3861170d565b90968282813d8311611829575b6118158183611053565b8101031261182657505195386116c8565b80fd5b503d61180b565b83513d6000823e3d90fd5b6118529150823d8411610c4857610c3a8183611053565b38611682565b84513d6000823e3d90fd5b6118799250803d106106fd576106e98183611053565b9050388061164a565b929190600093600090604091825194638776c49960e01b8652600492838701526103a0926024936001600160a01b0397818187818c7f0000000000000000000000000000000000000000000000000000000000000000165afa918215611b43579061020092918692611b24575b5050019087825116928651809463975057e760e01b8252818460209788935afa908115611afd578a93929186918891611b07575b5088858751168b519d8e9384927ff1bea54f00000000000000000000000000000000000000000000000000000000845288840152165afa998a15611afd57869a611aca575b50855b8a811061197f575050505050505050505050565b60018101809111611ab857838551168951907fea1c1b25000000000000000000000000000000000000000000000000000000008252858c1685830152828a830152878260648160449488868301525afa918215611a7f578992611a89575b50816119eb575b505061196b565b87839f9385928c918e8a8c5116905195869485937fd9119f5f0000000000000000000000000000000000000000000000000000000085528c8501528301525afa908115611a7f578991611a4c575b50611a4391611cfd565b019b38806119e4565b90508781813d8311611a78575b611a638183611053565b81010312611a745751611a43611a39565b8880fd5b503d611a59565b8b513d8b823e3d90fd5b9091508781813d8311611ab1575b611aa18183611053565b81010312611a74575190386119dd565b503d611a97565b8787601185634e487b7160e01b835252fd5b9099508481813d8311611af6575b611ae28183611053565b81010312611af257519838611968565b8580fd5b503d611ad8565b88513d88823e3d90fd5b611b1e9150823d8411610c4857610c3a8183611053565b38611923565b611b3a9250803d106106fd576106e98183611053565b905038806118ef565b87513d87823e3d90fd5b9190811015611b5d5760061b0190565b634e487b7160e01b600052603260045260246000fd5b9190808252602080920192916000905b828210611b91575050505090565b83358552838101358582015260409485019490930192600190910190611b83565b90611c0590611bf76040519384927ffadd72b7000000000000000000000000000000000000000000000000000000006020850152602060248501526044840191611b73565b03601f198101835282611053565b90565b90601f19601f602093611c2681518092818752878088019101611495565b0116010190565b90611c5b611bf7916040519283916001600160a01b0360208401961686526040808401526060830190611c08565b51902090565b6001600160a01b03600054163303611c7557565b606460405162461bcd60e51b815260206004820152602060248201527f4f776e61626c653a2063616c6c6572206973206e6f7420746865206f776e65726044820152fd5b90919015611cc5575090565b815115611cd55750805190602001fd5b611cf99060405191829162461bcd60e51b8352602060048401526024830190611c08565b0390fd5b90633b9aca00907fffffffffffffffffffffffffffffffffffffffffffffffffffffffffffffffff8383099280830292838086109503948086039514611dcf5782851015611d9857908291096001821901821680920460028082600302188083028203028083028203028083028203028083028203028083028203028092029003029360018380600003040190848311900302920304170290565b60448584604051917f773cc18c00000000000000000000000000000000000000000000000000000000835260048301526024820152fd5b505090611c0592506115c556fea264697066735822122022653bc94175edd8f998e55ecf91513dfdebb89e8a484c2a69f26ba97e0e7eda64736f6c63430008140033",
    "linkReferences": {}
  },
  "methodIdentifiers": {
    "MAX_ATTESTATION_POWER_TIER()": "517a6180",
    "attestToScorecardFrom(uint256,uint256)": "25116429",
    "attestationCountOf(uint256,uint256)": "d826e899",
    "attestationGracePeriodOf(uint256)": "91fb2e98",
    "attestationStartTimeOf(uint256)": "222e143b",
    "controller()": "f77c4791",
    "defaultAttestationDelegateProposalOf(uint256)": "f80c73a1",
    "getAttestationWeight(uint256,address,uint256)": "3d0908b4",
    "hasAttestedTo(uint256,uint256,address)": "92347991",
    "initializeGame(uint256,uint256,uint256)": "c543882f",
    "owner()": "8da5cb5b",
    "quorum(uint256)": "f8ce560a",
    "ratifiedScorecardIdOf(uint256)": "f0a92a1e",
    "ratifyScorecardFrom(uint256,(uint256,uint256)[])": "ce1e82d5",
    "renounceOwnership()": "715018a6",
    "scorecardIdOf(address,(uint256,uint256)[])": "deec0bb0",
    "stateOf(uint256,uint256)": "f94633fb",
    "submitScorecardFor(uint256,(uint256,uint256)[])": "b7e8f6da",
    "transferOwnership(address)": "f2fde38b"
  },
  "id": 2
}