{
  "abi": [
    {
      "inputs": [
        {
          "internalType": "uint256",
          "name": "__blockTime",
          "type": "uint256"
        }
      ],
      "stateMutability": "nonpayable",
      "type": "constructor"
    },
    {
      "inputs": [],
      "name": "DISABLED",
      "type": "error"
    },
    {
      "inputs": [],
      "name": "Empty",
      "type": "error"
    },
    {
      "inputs": [],
      "name": "INCORRECT_TIER_ORDER",
      "type": "error"
    },
    {
      "inputs": [
        {
          "internalType": "uint256",
          "name": "prod1",
          "type": "uint256"
        },
        {
          "internalType": "uint256",
          "name": "denominator",
          "type": "uint256"
        }
      ],
      "name": "PRBMath__MulDivOverflow",
      "type": "error"
    },
    {
      "inputs": [],
      "name": "UNOWNED_PROPOSED_REDEMPTION_VALUE",
      "type": "error"
    },
    {
      "anonymous": false,
      "inputs": [
        {
          "indexed": false,
          "internalType": "uint256",
          "name": "proposalId",
          "type": "uint256"
        }
      ],
      "name": "ProposalCanceled",
      "type": "event"
    },
    {
      "anonymous": false,
      "inputs": [
        {
          "indexed": false,
          "internalType": "uint256",
          "name": "proposalId",
          "type": "uint256"
        },
        {
          "indexed": false,
          "internalType": "address",
          "name": "proposer",
          "type": "address"
        },
        {
          "indexed": false,
          "internalType": "address[]",
          "name": "targets",
          "type": "address[]"
        },
        {
          "indexed": false,
          "internalType": "uint256[]",
          "name": "values",
          "type": "uint256[]"
        },
        {
          "indexed": false,
          "internalType": "string[]",
          "name": "signatures",
          "type": "string[]"
        },
        {
          "indexed": false,
          "internalType": "bytes[]",
          "name": "calldatas",
          "type": "bytes[]"
        },
        {
          "indexed": false,
          "internalType": "uint256",
          "name": "startBlock",
          "type": "uint256"
        },
        {
          "indexed": false,
          "internalType": "uint256",
          "name": "endBlock",
          "type": "uint256"
        },
        {
          "indexed": false,
          "internalType": "string",
          "name": "description",
          "type": "string"
        }
      ],
      "name": "ProposalCreated",
      "type": "event"
    },
    {
      "anonymous": false,
      "inputs": [
        {
          "indexed": false,
          "internalType": "uint256",
          "name": "proposalId",
          "type": "uint256"
        }
      ],
      "name": "ProposalExecuted",
      "type": "event"
    },
    {
      "anonymous": false,
      "inputs": [
        {
          "indexed": false,
          "internalType": "uint256",
          "name": "proposalId",
          "type": "uint256"
        },
        {
          "components": [
            {
              "internalType": "uint256",
              "name": "id",
              "type": "uint256"
            },
            {
              "internalType": "uint256",
              "name": "redemptionWeight",
              "type": "uint256"
            }
          ],
          "indexed": false,
          "internalType": "struct DefifaTierRedemptionWeight[]",
          "name": "tierWeights",
          "type": "tuple[]"
        },
        {
          "indexed": false,
          "internalType": "bool",
          "name": "isDefaultVotingDelegate",
          "type": "bool"
        },
        {
          "indexed": false,
          "internalType": "address",
          "name": "caller",
          "type": "address"
        }
      ],
      "name": "ScorecardSubmitted",
      "type": "event"
    },
    {
      "anonymous": false,
      "inputs": [
        {
          "indexed": true,
          "internalType": "address",
          "name": "voter",
          "type": "address"
        },
        {
          "indexed": false,
          "internalType": "uint256",
          "name": "proposalId",
          "type": "uint256"
        },
        {
          "indexed": false,
          "internalType": "uint8",
          "name": "support",
          "type": "uint8"
        },
        {
          "indexed": false,
          "internalType": "uint256",
          "name": "weight",
          "type": "uint256"
        },
        {
          "indexed": false,
          "internalType": "string",
          "name": "reason",
          "type": "string"
        }
      ],
      "name": "VoteCast",
      "type": "event"
    },
    {
      "anonymous": false,
      "inputs": [
        {
          "indexed": true,
          "internalType": "address",
          "name": "voter",
          "type": "address"
        },
        {
          "indexed": false,
          "internalType": "uint256",
          "name": "proposalId",
          "type": "uint256"
        },
        {
          "indexed": false,
          "internalType": "uint8",
          "name": "support",
          "type": "uint8"
        },
        {
          "indexed": false,
          "internalType": "uint256",
          "name": "weight",
          "type": "uint256"
        },
        {
          "indexed": false,
          "internalType": "string",
          "name": "reason",
          "type": "string"
        },
        {
          "indexed": false,
          "internalType": "bytes",
          "name": "params",
          "type": "bytes"
        }
      ],
      "name": "VoteCastWithParams",
      "type": "event"
    },
    {
      "inputs": [],
      "name": "BALLOT_TYPEHASH",
      "outputs": [
        {
          "internalType": "bytes32",
          "name": "",
          "type": "bytes32"
        }
      ],
      "stateMutability": "view",
      "type": "function"
    },
    {
      "inputs": [],
      "name": "COUNTING_MODE",
      "outputs": [
        {
          "internalType": "string",
          "name": "",
          "type": "string"
        }
      ],
      "stateMutability": "pure",
      "type": "function"
    },
    {
      "inputs": [],
      "name": "EXTENDED_BALLOT_TYPEHASH",
      "outputs": [
        {
          "internalType": "bytes32",
          "name": "",
          "type": "bytes32"
        }
      ],
      "stateMutability": "view",
      "type": "function"
    },
    {
      "inputs": [],
      "name": "MAX_VOTING_POWER_TIER",
      "outputs": [
        {
          "internalType": "uint256",
          "name": "",
          "type": "uint256"
        }
      ],
      "stateMutability": "view",
      "type": "function"
    },
    {
      "inputs": [
        {
          "internalType": "uint256",
          "name": "_scorecardId",
          "type": "uint256"
        }
      ],
      "name": "attestToScorecard",
      "outputs": [],
      "stateMutability": "nonpayable",
      "type": "function"
    },
    {
      "inputs": [
        {
          "internalType": "uint256",
          "name": "_scorecardId",
          "type": "uint256"
        },
        {
          "internalType": "bytes",
          "name": "params",
          "type": "bytes"
        }
      ],
      "name": "attestToScorecardWithReasonAndParams",
      "outputs": [],
      "stateMutability": "nonpayable",
      "type": "function"
    },
    {
      "inputs": [
        {
          "internalType": "uint256",
          "name": "proposalId",
          "type": "uint256"
        },
        {
          "internalType": "uint8",
          "name": "support",
          "type": "uint8"
        }
      ],
      "name": "castVote",
      "outputs": [
        {
          "internalType": "uint256",
          "name": "",
          "type": "uint256"
        }
      ],
      "stateMutability": "nonpayable",
      "type": "function"
    },
    {
      "inputs": [
        {
          "internalType": "uint256",
          "name": "proposalId",
          "type": "uint256"
        },
        {
          "internalType": "uint8",
          "name": "support",
          "type": "uint8"
        },
        {
          "internalType": "uint8",
          "name": "v",
          "type": "uint8"
        },
        {
          "internalType": "bytes32",
          "name": "r",
          "type": "bytes32"
        },
        {
          "internalType": "bytes32",
          "name": "s",
          "type": "bytes32"
        }
      ],
      "name": "castVoteBySig",
      "outputs": [
        {
          "internalType": "uint256",
          "name": "",
          "type": "uint256"
        }
      ],
      "stateMutability": "nonpayable",
      "type": "function"
    },
    {
      "inputs": [
        {
          "internalType": "uint256",
          "name": "proposalId",
          "type": "uint256"
        },
        {
          "internalType": "uint8",
          "name": "support",
          "type": "uint8"
        },
        {
          "internalType": "string",
          "name": "reason",
          "type": "string"
        }
      ],
      "name": "castVoteWithReason",
      "outputs": [
        {
          "internalType": "uint256",
          "name": "",
          "type": "uint256"
        }
      ],
      "stateMutability": "nonpayable",
      "type": "function"
    },
    {
      "inputs": [
        {
          "internalType": "uint256",
          "name": "proposalId",
          "type": "uint256"
        },
        {
          "internalType": "uint8",
          "name": "support",
          "type": "uint8"
        },
        {
          "internalType": "string",
          "name": "reason",
          "type": "string"
        },
        {
          "internalType": "bytes",
          "name": "params",
          "type": "bytes"
        }
      ],
      "name": "castVoteWithReasonAndParams",
      "outputs": [
        {
          "internalType": "uint256",
          "name": "",
          "type": "uint256"
        }
      ],
      "stateMutability": "nonpayable",
      "type": "function"
    },
    {
      "inputs": [
        {
          "internalType": "uint256",
          "name": "proposalId",
          "type": "uint256"
        },
        {
          "internalType": "uint8",
          "name": "support",
          "type": "uint8"
        },
        {
          "internalType": "string",
          "name": "reason",
          "type": "string"
        },
        {
          "internalType": "bytes",
          "name": "params",
          "type": "bytes"
        },
        {
          "internalType": "uint8",
          "name": "v",
          "type": "uint8"
        },
        {
          "internalType": "bytes32",
          "name": "r",
          "type": "bytes32"
        },
        {
          "internalType": "bytes32",
          "name": "s",
          "type": "bytes32"
        }
      ],
      "name": "castVoteWithReasonAndParamsBySig",
      "outputs": [
        {
          "internalType": "uint256",
          "name": "",
          "type": "uint256"
        }
      ],
      "stateMutability": "nonpayable",
      "type": "function"
    },
    {
      "inputs": [],
      "name": "codeOrigin",
      "outputs": [
        {
          "internalType": "address",
          "name": "",
          "type": "address"
        }
      ],
      "stateMutability": "view",
      "type": "function"
    },
    {
      "inputs": [],
      "name": "defaultVotingDelegateProposal",
      "outputs": [
        {
          "internalType": "uint256",
          "name": "",
          "type": "uint256"
        }
      ],
      "stateMutability": "view",
      "type": "function"
    },
    {
      "inputs": [],
      "name": "delegate",
      "outputs": [
        {
          "internalType": "contract IDefifaDelegate",
          "name": "",
          "type": "address"
        }
      ],
      "stateMutability": "view",
      "type": "function"
    },
    {
      "inputs": [
        {
          "internalType": "address[]",
          "name": "targets",
          "type": "address[]"
        },
        {
          "internalType": "uint256[]",
          "name": "values",
          "type": "uint256[]"
        },
        {
          "internalType": "bytes[]",
          "name": "calldatas",
          "type": "bytes[]"
        },
        {
          "internalType": "bytes32",
          "name": "descriptionHash",
          "type": "bytes32"
        }
      ],
      "name": "execute",
      "outputs": [
        {
          "internalType": "uint256",
          "name": "",
          "type": "uint256"
        }
      ],
      "stateMutability": "payable",
      "type": "function"
    },
    {
      "inputs": [
        {
          "internalType": "address",
          "name": "account",
          "type": "address"
        },
        {
          "internalType": "uint256",
          "name": "blockNumber",
          "type": "uint256"
        }
      ],
      "name": "getVotes",
      "outputs": [
        {
          "internalType": "uint256",
          "name": "",
          "type": "uint256"
        }
      ],
      "stateMutability": "view",
      "type": "function"
    },
    {
      "inputs": [
        {
          "internalType": "address",
          "name": "account",
          "type": "address"
        },
        {
          "internalType": "uint256",
          "name": "blockNumber",
          "type": "uint256"
        },
        {
          "internalType": "bytes",
          "name": "params",
          "type": "bytes"
        }
      ],
      "name": "getVotesWithParams",
      "outputs": [
        {
          "internalType": "uint256",
          "name": "",
          "type": "uint256"
        }
      ],
      "stateMutability": "view",
      "type": "function"
    },
    {
      "inputs": [
        {
          "internalType": "uint256",
          "name": "proposalId",
          "type": "uint256"
        },
        {
          "internalType": "address",
          "name": "account",
          "type": "address"
        }
      ],
      "name": "hasVoted",
      "outputs": [
        {
          "internalType": "bool",
          "name": "",
          "type": "bool"
        }
      ],
      "stateMutability": "view",
      "type": "function"
    },
    {
      "inputs": [
        {
          "internalType": "address[]",
          "name": "targets",
          "type": "address[]"
        },
        {
          "internalType": "uint256[]",
          "name": "values",
          "type": "uint256[]"
        },
        {
          "internalType": "bytes[]",
          "name": "calldatas",
          "type": "bytes[]"
        },
        {
          "internalType": "bytes32",
          "name": "descriptionHash",
          "type": "bytes32"
        }
      ],
      "name": "hashProposal",
      "outputs": [
        {
          "internalType": "uint256",
          "name": "",
          "type": "uint256"
        }
      ],
      "stateMutability": "pure",
      "type": "function"
    },
    {
      "inputs": [
        {
          "internalType": "contract IDefifaDelegate",
          "name": "_delegate",
          "type": "address"
        },
        {
          "internalType": "uint256",
          "name": "_votingStartTime",
          "type": "uint256"
        },
        {
          "internalType": "uint256",
          "name": "_votingPeriod",
          "type": "uint256"
        }
      ],
      "name": "initialize",
      "outputs": [],
      "stateMutability": "nonpayable",
      "type": "function"
    },
    {
      "inputs": [],
      "name": "name",
      "outputs": [
        {
          "internalType": "string",
          "name": "",
          "type": "string"
        }
      ],
      "stateMutability": "view",
      "type": "function"
    },
    {
      "inputs": [
        {
          "internalType": "address",
          "name": "",
          "type": "address"
        },
        {
          "internalType": "address",
          "name": "",
          "type": "address"
        },
        {
          "internalType": "uint256[]",
          "name": "",
          "type": "uint256[]"
        },
        {
          "internalType": "uint256[]",
          "name": "",
          "type": "uint256[]"
        },
        {
          "internalType": "bytes",
          "name": "",
          "type": "bytes"
        }
      ],
      "name": "onERC1155BatchReceived",
      "outputs": [
        {
          "internalType": "bytes4",
          "name": "",
          "type": "bytes4"
        }
      ],
      "stateMutability": "nonpayable",
      "type": "function"
    },
    {
      "inputs": [
        {
          "internalType": "address",
          "name": "",
          "type": "address"
        },
        {
          "internalType": "address",
          "name": "",
          "type": "address"
        },
        {
          "internalType": "uint256",
          "name": "",
          "type": "uint256"
        },
        {
          "internalType": "uint256",
          "name": "",
          "type": "uint256"
        },
        {
          "internalType": "bytes",
          "name": "",
          "type": "bytes"
        }
      ],
      "name": "onERC1155Received",
      "outputs": [
        {
          "internalType": "bytes4",
          "name": "",
          "type": "bytes4"
        }
      ],
      "stateMutability": "nonpayable",
      "type": "function"
    },
    {
      "inputs": [
        {
          "internalType": "address",
          "name": "",
          "type": "address"
        },
        {
          "internalType": "address",
          "name": "",
          "type": "address"
        },
        {
          "internalType": "uint256",
          "name": "",
          "type": "uint256"
        },
        {
          "internalType": "bytes",
          "name": "",
          "type": "bytes"
        }
      ],
      "name": "onERC721Received",
      "outputs": [
        {
          "internalType": "bytes4",
          "name": "",
          "type": "bytes4"
        }
      ],
      "stateMutability": "nonpayable",
      "type": "function"
    },
    {
      "inputs": [
        {
          "internalType": "uint256",
          "name": "proposalId",
          "type": "uint256"
        }
      ],
      "name": "proposalDeadline",
      "outputs": [
        {
          "internalType": "uint256",
          "name": "",
          "type": "uint256"
        }
      ],
      "stateMutability": "view",
      "type": "function"
    },
    {
      "inputs": [
        {
          "internalType": "uint256",
          "name": "proposalId",
          "type": "uint256"
        }
      ],
      "name": "proposalSnapshot",
      "outputs": [
        {
          "internalType": "uint256",
          "name": "",
          "type": "uint256"
        }
      ],
      "stateMutability": "view",
      "type": "function"
    },
    {
      "inputs": [],
      "name": "proposalThreshold",
      "outputs": [
        {
          "internalType": "uint256",
          "name": "",
          "type": "uint256"
        }
      ],
      "stateMutability": "pure",
      "type": "function"
    },
    {
      "inputs": [
        {
          "internalType": "uint256",
          "name": "proposalId",
          "type": "uint256"
        }
      ],
      "name": "proposalVotes",
      "outputs": [
        {
          "internalType": "uint256",
          "name": "againstVotes",
          "type": "uint256"
        },
        {
          "internalType": "uint256",
          "name": "forVotes",
          "type": "uint256"
        },
        {
          "internalType": "uint256",
          "name": "abstainVotes",
          "type": "uint256"
        }
      ],
      "stateMutability": "view",
      "type": "function"
    },
    {
      "inputs": [
        {
          "internalType": "address[]",
          "name": "targets",
          "type": "address[]"
        },
        {
          "internalType": "uint256[]",
          "name": "values",
          "type": "uint256[]"
        },
        {
          "internalType": "bytes[]",
          "name": "calldatas",
          "type": "bytes[]"
        },
        {
          "internalType": "string",
          "name": "description",
          "type": "string"
        }
      ],
      "name": "propose",
      "outputs": [
        {
          "internalType": "uint256",
          "name": "",
          "type": "uint256"
        }
      ],
      "stateMutability": "nonpayable",
      "type": "function"
    },
    {
      "inputs": [
        {
          "internalType": "uint256",
          "name": "",
          "type": "uint256"
        }
      ],
      "name": "quorum",
      "outputs": [
        {
          "internalType": "uint256",
          "name": "",
          "type": "uint256"
        }
      ],
      "stateMutability": "view",
      "type": "function"
    },
    {
      "inputs": [
        {
          "components": [
            {
              "internalType": "uint256",
              "name": "id",
              "type": "uint256"
            },
            {
              "internalType": "uint256",
              "name": "redemptionWeight",
              "type": "uint256"
            }
          ],
          "internalType": "struct DefifaTierRedemptionWeight[]",
          "name": "_tierWeights",
          "type": "tuple[]"
        }
      ],
      "name": "ratifyScorecard",
      "outputs": [
        {
          "internalType": "uint256",
          "name": "",
          "type": "uint256"
        }
      ],
      "stateMutability": "nonpayable",
      "type": "function"
    },
    {
      "inputs": [
        {
          "internalType": "address",
          "name": "target",
          "type": "address"
        },
        {
          "internalType": "uint256",
          "name": "value",
          "type": "uint256"
        },
        {
          "internalType": "bytes",
          "name": "data",
          "type": "bytes"
        }
      ],
      "name": "relay",
      "outputs": [],
      "stateMutability": "payable",
      "type": "function"
    },
    {
      "inputs": [
        {
          "internalType": "uint256",
          "name": "proposalId",
          "type": "uint256"
        }
      ],
      "name": "state",
      "outputs": [
        {
          "internalType": "enum IGovernor.ProposalState",
          "name": "",
          "type": "uint8"
        }
      ],
      "stateMutability": "view",
      "type": "function"
    },
    {
      "inputs": [
        {
          "components": [
            {
              "internalType": "uint256",
              "name": "id",
              "type": "uint256"
            },
            {
              "internalType": "uint256",
              "name": "redemptionWeight",
              "type": "uint256"
            }
          ],
          "internalType": "struct DefifaTierRedemptionWeight[]",
          "name": "_tierWeights",
          "type": "tuple[]"
        }
      ],
      "name": "submitScorecard",
      "outputs": [
        {
          "internalType": "uint256",
          "name": "proposalId",
          "type": "uint256"
        }
      ],
      "stateMutability": "nonpayable",
      "type": "function"
    },
    {
      "inputs": [
        {
          "internalType": "bytes4",
          "name": "interfaceId",
          "type": "bytes4"
        }
      ],
      "name": "supportsInterface",
      "outputs": [
        {
          "internalType": "bool",
          "name": "",
          "type": "bool"
        }
      ],
      "stateMutability": "view",
      "type": "function"
    },
    {
      "inputs": [],
      "name": "version",
      "outputs": [
        {
          "internalType": "string",
          "name": "",
          "type": "string"
        }
      ],
      "stateMutability": "view",
      "type": "function"
    },
    {
      "inputs": [],
      "name": "votingDelay",
      "outputs": [
        {
          "internalType": "uint256",
          "name": "",
          "type": "uint256"
        }
      ],
      "stateMutability": "view",
      "type": "function"
    },
    {
      "inputs": [],
      "name": "votingPeriod",
      "outputs": [
        {
          "internalType": "uint256",
          "name": "",
          "type": "uint256"
        }
      ],
      "stateMutability": "view",
      "type": "function"
    },
    {
      "inputs": [],
      "name": "votingStartTime",
      "outputs": [
        {
          "internalType": "uint256",
          "name": "",
          "type": "uint256"
        }
      ],
      "stateMutability": "view",
      "type": "function"
    },
    {
      "stateMutability": "payable",
      "type": "receive"
    }
  ],
  "bytecode": {
    "object": "0x61018034620002d4576001600160401b03601f19620035d238819003601f81018316850192919085841085851117620002be5780869260409586528339602095869181010312620002d45751908251906200005a82620002d9565b600e8252858201946d2232b334b330a3b7bb32b93737b960911b86528685516200008481620002d9565b60019181838093520197603160f81b8952855190209720978760e05261010098808a524660a0528751828101917f8b73c3c69bb8fe3d512ecc4cf759cc79239f7b179b0ffacaa9a75d522b39400f9a8b84528a83015260608201524660808201523060a082015260a0815260c0810181811086821117620002be5789525190206080523060c0526101209788528451928311620002be5760009485548381811c91168015620002b3575b838210146200029f57601f811162000254575b5081601f8511600114620001ee5750839450908392918694620001e2575b50501b916000199060031b1c19161790555b6101609130835261014091825251926132dc9485620002f686396080518561308b015260a05185613140015260c0518561305c015260e051856130da01525184613100015251836130b7015251828181610c9c01528181611aed015261243d015251818181610fff01526117fe0152f35b0151925038806200015f565b9294849081168780528488209488905b888383106200023957505050106200021f575b505050811b01905562000171565b015160001960f88460031b161c1916905538808062000211565b858701518855909601959485019487935090810190620001fe565b868052828720601f860160051c81019184871062000294575b601f0160051c019084905b8281106200028857505062000141565b88815501849062000278565b90915081906200026d565b634e487b7160e01b87526022600452602487fd5b90607f16906200012e565b634e487b7160e01b600052604160045260246000fd5b600080fd5b604081019081106001600160401b03821117620002be5760405256fe6080604081815260049081361015610022575b505050361561002057600080fd5b005b60009260e08435811c91826301ffc9a714611b125750816302a251a314611ad057816303420181146119c757816306fdde03146118b1578163150b7a021461184157816319f82536146118225781631d153ca4146117de5781632019a608146117bf5781632656227d1461161d5781632d63f693146115eb5781632fe3e261146115b05781633932abb1146115935781633bccf4fd146114da5781633e4f49e614611495578163438596321461144c5781634b501fbd1461142d578163544ffc9c146113ef57816354fd4d5014611392578163567813881461135a57816356e258a51461133b5781635f398a14146112c657816364d87a61146110715781637a1ac61e14610fd05781637b3c71d314610f6f5781637c8bd0ed14610f235781637d5e81e214610b655781639a802a6d14610b21578163b58131b014610b06578163bc197c8114610a65578163c01f9e3714610a28578163c28bc2fa14610917578163c59057e4146108f8578163c89e4361146108d0578163d8844e2f1461044257508063dd4e2ba5146103e1578063deaaa7cc146103a6578063eb9019d41461036d578063f23a6e61146102fe5763f8ce560a0361001257346102fa57602092836003193601126102f7576001600160a01b03806006541683519063975057e760e01b825286828781845afa9182156102ed579087929185926102bb575b506024908651948593849263f1bea54f60e01b84528a840152165afa9081156102b1578291610280575b5060011c92633b9aca009384810294818604149015171561026d57505051908152f35b906011602492634e487b7160e01b835252fd5b90508481813d83116102aa575b6102978183611cf8565b810103126102a657513861024a565b5080fd5b503d61028d565b83513d84823e3d90fd5b60249192506102df90843d86116102e6575b6102d78183611cf8565b810190612015565b9190610220565b503d6102cd565b85513d86823e3d90fd5b80fd5b8280fd5b5082346102f75760a06003193601126102f757610319611dd4565b50610322611dea565b506084359067ffffffffffffffff82116102f7575060209261034691369101611d6e565b50517ff23a6e61000000000000000000000000000000000000000000000000000000008152f35b8382346102a657806003193601126102a65760209061039f61038d611dd4565b6103956122a0565b90602435906127e4565b9051908152f35b8382346102a657816003193601126102a657602090517f150214d74d59b7d1e90c73fc22ef3d991dd0a76b046543d4d80ab92d2a50328f8152f35b8382346102a657816003193601126102a657805161043e9161040282611cdc565b602082527f737570706f72743d627261766f2671756f72756d3d666f722c6162737461696e602083015251918291602083526020830190611daf565b0390f35b84929150346102fa5761045436611fc8565b909184906001600160a01b03918260065416905b84811061065b5750505084608495966104ea61048485876121a1565b6104da6104c68b9d949d959395519d8e9d8e7f7d5e81e200000000000000000000000000000000000000000000000000000000815260808a820152019061207b565b600319958d602488828503019101526120b8565b90848c83030160448d01526120ec565b89810392830160648b015252602098898092018185305af1968715610651578297610622575b508783600654168751928380927f174e3e050000000000000000000000000000000000000000000000000000000082525afa9182156106175780926105b8575b5050907f3d4a25cde9b27ef1284f243f985636582a92327dbbb0f27bf8d8d02026cf75cf939291163314806105af575b61059b855193849388855260808a8601526080850191612141565b90858301523360608301520390a151908152f35b85600855610580565b9091508782813d8311610610575b6105d08183611cf8565b810103126102f75750906106067f3d4a25cde9b27ef1284f243f985636582a92327dbbb0f27bf8d8d02026cf75cf94939261205a565b9091929388610550565b503d6105c6565b8651903d90823e3d90fd5b9096508781813d831161064a575b61063a8183611cf8565b810103126102a657519588610510565b503d610630565b86513d84823e3d90fd5b865163975057e760e01b815260209081818c81875afa9081156108c6578a858d89878c8f968f908799610898575b5091610699916064959493612034565b35955196879485937f64faa15900000000000000000000000000000000000000000000000000000000855284015260249687840152856044840152165afa91821561088e578b92610744575b505088606082015191015114908161072d575b5061070557600101610468565b8887517fd1f78be3000000000000000000000000000000000000000000000000000000008152fd5b905061073a828789612034565b013515158a6106f8565b9091503d808c833e6107568183611cf8565b8101838282031261088a57815167ffffffffffffffff9283821161086f57019161018093848484031261086f578c51948501908582108383111761087757508c528251845284830151858501528b8301518c850152606080840151908501526080808401519085015260a0808401519085015260c06107d681850161205a565b90850152878301518885015261010080840151908501526101206107fb81850161206e565b9085015261014061080d81850161206e565b90850152610160928381015191821161086f570181601f820112156108735790818c9392519161084861083f84611d1b565b95519586611cf8565b82855286838301011161086f579061086591868086019101611d8c565b8201528b806106e5565b8d80fd5b8c80fd5b8f8f90604190634e487b7160e01b835252fd5b8b80fd5b8a513d8d823e3d90fd5b6064959493919950916108ba610699938c8d3d106102e6576102d78183611cf8565b99919394955091610689565b89513d8c823e3d90fd5b8483346102a657816003193601126102a6576020906001600160a01b03600654169051908152f35b8483346102a65760209061039f61090e36611f65565b92919091612467565b82858560606003193601126102a65761092e611dd4565b9060443567ffffffffffffffff8111610a245761094e9036908301611c28565b913033036109e15750836109dd9383829388958651928392833781018481520391602435905af161097d6127b4565b907f206d6573736167650000000000000000000000000000000000000000000000008351936109ab85611ca4565b602885527f476f7665726e6f723a2072656c617920726576657274656420776974686f75746020860152840152612e01565b5080f35b606490602087519162461bcd60e51b8352820152601860248201527f476f7665726e6f723a206f6e6c79476f7665726e616e636500000000000000006044820152fd5b8380fd5b505090346102fa5760206003193601126102fa57610a5c60018360209567ffffffffffffffff9435815282875220016126f0565b51169051908152f35b505082346102f75760a06003193601126102f757610a81611dd4565b50610a8a611dea565b5067ffffffffffffffff906044358281116102a657610aac9036908601611e86565b506064358281116102a657610ac49036908601611e86565b506084359182116102f75750602092610adf91369101611d6e565b50517fbc197c81000000000000000000000000000000000000000000000000000000008152f35b8483346102a657816003193601126102a65751908152602090f35b505090346102fa5760606003193601126102fa57610b3d611dd4565b926044359067ffffffffffffffff82116102f757509261039561039f92602095369101611d6e565b838584346102a65760806003193601126102a65767ffffffffffffffff8335818111610a2457610b989036908601611e18565b602435828111610f1f57610baf9036908701611e86565b94604435838111610f1b57610bc79036908301611ee4565b96606435848111610f175736602382011215610f1757610bf09036906024818601359101611d37565b92303303610eef576000194301438111610edc57610c1790610c106122a0565b90336127e4565b50835198610c2d60209a8b870120828b85612467565b97610c3b83518b5114612718565b610c488351835114612718565b825115610e9a5788815260018b528781209487610c64876126f0565b5116610e325750610c8d610c7743613166565b610c87610c8261241f565b613166565b90612789565b87610cc7610cc1610c826005547f0000000000000000000000000000000000000000000000000000000000000000906123ff565b83612789565b91169760017fffffffffffffffffffffffffffffffffffffffffffffffff0000000000000000978a898254161781550191168096825416179055610d2c8b845194610d1186611e00565b95610d1e8c519788611cf8565b808752601f19938491611e00565b01845b818110610e235750508b9c610d5f610d6d928d9e9d80519e8f90815233878201526101208092820152019061207b565b8c810360608e0152906120b8565b8a810360808c01528551928382528282019183808660051b830101980195935b858510610df7575050505050505092869592610dd783610dee96897f7d84a6263ae0d98d3329bd7b46bb4e8d6f98cd35a7adb45c274c8b7fd5ebd5e09b99960360a08a01526120ec565b9360c0870152850152838203610100850152611daf565b0390a151908152f35b80610e128a85856001969798999a9b9d030188528b51611daf565b99019401940192949391908f610d8d565b60608882018501528301610d2f565b6084908c8a519162461bcd60e51b8352820152602160248201527f476f7665726e6f723a2070726f706f73616c20616c726561647920657869737460448201527f73000000000000000000000000000000000000000000000000000000000000006064820152fd5b6064858c8a519162461bcd60e51b8352820152601860248201527f476f7665726e6f723a20656d7074792070726f706f73616c00000000000000006044820152fd5b602488601186634e487b7160e01b835252fd5b8286517facb78998000000000000000000000000000000000000000000000000000000008152fd5b8680fd5b8580fd5b8480fd5b5050346102fa57806003193601126102fa576024359167ffffffffffffffff8311610a2457610f586109dd9336908301611d6e565b915190610f6482611c88565b848252339035612a27565b505082346102f75760606003193601126102f757610f8b611c13565b906044359067ffffffffffffffff82116102f757509261039f91610fbe610fb760209636908501611c28565b3691611d37565b90610fc76122a0565b92339035612c5a565b505050346102a65760606003193601126102a657356001600160a01b03908181168091036102fa5760443591807f0000000000000000000000000000000000000000000000000000000000000000163014610a2457600654908116610a24577fffffffffffffffffffffffff000000000000000000000000000000000000000016176006556024356007558061106c575062093a805b60055580f35b611066565b5050346102fa5761108a61108436611fc8565b906121a1565b91909483519560209687810190608082526111076110ab60a083018761207b565b826110d56110c5601f199384848203018d850152886120b8565b838382030160608401528a6120ec565b7fc5d2460186f7233c927e7db2dcc703c0e500b653ca82273b7bfad8045d85a470608083015203908101835282611cf8565b51902095611114876124cb565b60088110156112b3578181149081156112a8575b501561124057508582526001938488526002868420018560ff198254161790557f712ae1383f79ac853f8d882153778e0260ef8f03b504e2866e0593e04d2b291f888751898152a185519361117c85611ca4565b602785527f476f7665726e6f723a2063616c6c20726576657274656420776974686f757420898601527f6d65737361676500000000000000000000000000000000000000000000000000878601528884875b6111db575b508751898152f35b825181101561123b5761122d878780611233956001600160a01b03611200878a61218d565b511661120c878c61218d565b51611217888c61218d565b5180519301915af16112276127b4565b90612e01565b506127a5565b8990876111ce565b6111d3565b6084908887519162461bcd60e51b8352820152602160248201527f476f7665726e6f723a2070726f706f73616c206e6f742073756363657373667560448201527f6c000000000000000000000000000000000000000000000000000000000000006064820152fd5b600591501438611128565b602484602184634e487b7160e01b835252fd5b505090346102fa5760806003193601126102fa576112e2611c13565b67ffffffffffffffff936044358581116102a6576113039036908501611c28565b9590916064359182116102f757509161133261039f949261132a6020989536908601611d6e565b943691611d37565b91339035612c5a565b8483346102a657816003193601126102a6576020906008549051908152f35b505090346102fa57816003193601126102fa5761039f9060209361137c611c13565b84519161138883611c88565b8252610fc76122a0565b8483346102a657816003193601126102a657805161043e916113b382611cdc565b600182527f3100000000000000000000000000000000000000000000000000000000000000602083015251918291602083526020830190611daf565b505090346102fa5760206003193601126102fa5760609281839235825260205220805491600260018301549201549181519384526020840152820152f35b8483346102a657816003193601126102a65760209051633b9aca008152f35b505090346102fa57816003193601126102fa578160209360ff9261146e611dea565b908035835286526001600160a01b0360038484200191168252855220541690519015158152f35b838584346102a65760206003193601126102a6576114b383356124cb565b90519160088210156114c757602083838152f35b80602185634e487b7160e01b6024945252fd5b505090346102fa5760a06003193601126102fa57356114f7611c13565b60443560ff81168103610f1f579361039f929161157761156f6020978751898101917f150214d74d59b7d1e90c73fc22ef3d991dd0a76b046543d4d80ab92d2a50328f8352878a83015260ff861660608301526060825261155782611cc0565b61156a6084359360643593519020613006565b612f77565b919091612e45565b85519261158384611c88565b835261158d6122a0565b93612c5a565b8483346102a657816003193601126102a65760209061039f61241f565b8483346102a657816003193601126102a657602090517fb3b3f3b703cd84ce352197dcff232b1b5d3cfb2025ce47cf04742d0651f1af888152f35b505090346102fa5760206003193601126102fa57610a5c8260209467ffffffffffffffff9335815260018652206126f0565b505061163861162b36611f65565b8183859994969399612467565b94611642866124cb565b60088110156117ac578181149081156117a1575b501561173857508481526001926020968488526002868420018560ff198254161790557f712ae1383f79ac853f8d882153778e0260ef8f03b504e2866e0593e04d2b291f888751898152a18551936116ad85611ca4565b602785527f476f7665726e6f723a2063616c6c20726576657274656420776974686f757420898601527f6d65737361676500000000000000000000000000000000000000000000000000878601528884875b61170b57508751898152f35b825181101561123b5761122d878780611730956001600160a01b03611200878a61218d565b8990876116ff565b608490602086519162461bcd60e51b8352820152602160248201527f476f7665726e6f723a2070726f706f73616c206e6f742073756363657373667560448201527f6c000000000000000000000000000000000000000000000000000000000000006064820152fd5b600591501438611656565b602483602184634e487b7160e01b835252fd5b8483346102a657816003193601126102a6576020906007549051908152f35b8483346102a657816003193601126102a657602090516001600160a01b037f0000000000000000000000000000000000000000000000000000000000000000168152f35b5050346102fa5760206003193601126102fa576109dd91610f586122a0565b505082346102f75760806003193601126102f75761185d611dd4565b50611866611dea565b506064359067ffffffffffffffff82116102f7575060209261188a91369101611d6e565b50517f150b7a02000000000000000000000000000000000000000000000000000000008152f35b505082346102f757806003193601126102f75781519181825492600184811c918186169586156119bd575b60209687851081146119aa578899509688969785829a529182600014611983575050600114611928575b50505061043e9291611919910385611cf8565b51928284938452830190611daf565b91908693508280527f290decd9548b62a8d60345a988386fc84ba6bc95484008f6362f93160ef3e5635b82841061196b575050508201018161191961043e611906565b8054848a018601528895508794909301928101611952565b60ff19168782015293151560051b86019093019350849250611919915061043e9050611906565b60248360228c634e487b7160e01b835252fd5b92607f16926118dc565b8493915034610a24576003193601126102fa578035906119e5611c13565b9067ffffffffffffffff604435818111610f1757611a069036908401611c28565b919092606435918211611acc57611a1f91369101611d6e565b956084359060ff821682036102f75750611ac661039f95936020989593611abe89610fb795611a4f368587611d37565b8d8151910120908a518e8c01208351928f8c908501957fb3b3f3b703cd84ce352197dcff232b1b5d3cfb2025ce47cf04742d0651f1af88875285015260ff8b166060850152608084015260a083015260a08252611aab82611c56565b61156a60c4359360a43593519020613006565b949094612e45565b92612c5a565b8780fd5b8483346102a657816003193601126102a65760209061039f6005547f0000000000000000000000000000000000000000000000000000000000000000906123ff565b859085346102fa5760206003193601126102fa57357fffffffff0000000000000000000000000000000000000000000000000000000081168091036102fa57602092507fbf26d897000000000000000000000000000000000000000000000000000000008114908115611be9575b8115611bbf575b8115611b95575b5015158152f35b7f01ffc9a70000000000000000000000000000000000000000000000000000000091501483611b8e565b7f4e2312e00000000000000000000000000000000000000000000000000000000081149150611b87565b7f79dd796f0000000000000000000000000000000000000000000000000000000081149150611b80565b6024359060ff82168203611c2357565b600080fd5b9181601f84011215611c235782359167ffffffffffffffff8311611c235760208381860195010111611c2357565b60c0810190811067ffffffffffffffff821117611c7257604052565b634e487b7160e01b600052604160045260246000fd5b6020810190811067ffffffffffffffff821117611c7257604052565b6060810190811067ffffffffffffffff821117611c7257604052565b6080810190811067ffffffffffffffff821117611c7257604052565b6040810190811067ffffffffffffffff821117611c7257604052565b90601f601f19910116810190811067ffffffffffffffff821117611c7257604052565b67ffffffffffffffff8111611c7257601f01601f191660200190565b929192611d4382611d1b565b91611d516040519384611cf8565b829481845281830111611c23578281602093846000960137010152565b9080601f83011215611c2357816020611d8993359101611d37565b90565b60005b838110611d9f5750506000910152565b8181015183820152602001611d8f565b90601f19601f602093611dcd81518092818752878088019101611d8c565b0116010190565b600435906001600160a01b0382168203611c2357565b602435906001600160a01b0382168203611c2357565b67ffffffffffffffff8111611c725760051b60200190565b81601f82011215611c2357803591611e2f83611e00565b92611e3d6040519485611cf8565b808452602092838086019260051b820101928311611c23578301905b828210611e67575050505090565b81356001600160a01b0381168103611c23578152908301908301611e59565b81601f82011215611c2357803591611e9d83611e00565b92611eab6040519485611cf8565b808452602092838086019260051b820101928311611c23578301905b828210611ed5575050505090565b81358152908301908301611ec7565b9080601f83011215611c2357813590611efc82611e00565b92611f0a6040519485611cf8565b828452602092838086019160051b83010192808411611c2357848301915b848310611f385750505050505090565b823567ffffffffffffffff8111611c23578691611f5a84848094890101611d6e565b815201920191611f28565b6080600319820112611c235767ffffffffffffffff91600435838111611c235782611f9291600401611e18565b92602435818111611c235783611faa91600401611e86565b92604435918211611c2357611fc191600401611ee4565b9060643590565b906020600319830112611c235760043567ffffffffffffffff92838211611c235780602383011215611c23578160040135938411611c235760248460061b83010111611c23576024019190565b90816020910312611c2357516001600160a01b0381168103611c235790565b91908110156120445760061b0190565b634e487b7160e01b600052603260045260246000fd5b51906001600160a01b0382168203611c2357565b51908115158203611c2357565b90815180825260208080930193019160005b82811061209b575050505090565b83516001600160a01b03168552938101939281019260010161208d565b90815180825260208080930193019160005b8281106120d8575050505090565b8351855293810193928101926001016120ca565b90815180825260208092019182818360051b85019501936000915b8483106121175750505050505090565b909192939495848061213183856001950387528a51611daf565b9801930193019194939290612107565b9190808252602080920192916000905b82821061215f575050505090565b83358552838101358582015260409485019490930192600190910190612151565b8051156120445760200190565b80518210156120445760209160051b010190565b90916040516121af81611cdc565b600181526020928336818401376001600160a01b03600654166121d183612180565b52612238604051956121e287611cdc565b6001875285368189013761222a6040519384927f2f44150000000000000000000000000000000000000000000000000000000000898501528860248501526044840191612141565b03601f198101835282611cf8565b6040519361224585611cdc565b6001855260005b81811061226e57505061225e84612180565b5261226883612180565b50929190565b6060868201830152810161224c565b9190820180921161228a57565b634e487b7160e01b600052601160045260246000fd5b6001600160a01b03806006541690604091825163975057e760e01b815260209160049083838381845afa9283156123f4579084916000946123d5575b50865193849163f1bea54f60e01b835284830152816024978892165afa9182156123ca5760009261239b575b5061231282611e00565b9161231f86519384611cf8565b808352601f19948561233083611e00565b01368686013760005b82811061236a57505050509061235e611d8993928551958387948501528301906120b8565b03908101835282611cf8565b60018101908181116123875761238182918761218d565b52612339565b82601186634e487b7160e01b600052526000fd5b90918382813d83116123c3575b6123b28183611cf8565b810103126102f75750519038612308565b503d6123a8565b85513d6000823e3d90fd5b6123ed919450823d84116102e6576102d78183611cf8565b92386122dc565b86513d6000823e3d90fd5b8115612409570490565b634e487b7160e01b600052601260045260246000fd5b600754600042821115612462575042810390811161228a57611d89907f0000000000000000000000000000000000000000000000000000000000000000906123ff565b905090565b92906124b3926124c5926040519485926124a3612490602086019960808b5260a087019061207b565b601f1996878783030160408801526120b8565b90858583030160608601526120ec565b90608083015203908101835282611cf8565b51902090565b6000908082526001602092818452604090818120600281015460ff81166126e45760081c60ff166126d95761250b9067ffffffffffffffff9182916126f0565b511680156126965743111561268d57848252838652439061252f85858520016126f0565b51161015612685578381526004948581528282208482526125518484206126f0565b506001600160a01b03806006541685519163975057e760e01b835284838b81855afa92831561267b578592918b918895612657575b50906024918951958694859363f1bea54f60e01b8552840152165afa9081156102ed57849161262a575b50851c90633b9aca009182810292818404149015171561261757906125e0826002888b969501549101549061227d565b101595866125ff575b5050505050506000146125f95790565b50600390565b835252209081015490541090503880808481806125e9565b60248460118a634e487b7160e01b835252fd5b90508281813d8311612650575b6126418183611cf8565b81010312610a245751386125b0565b503d612637565b60249291955061267390853d87116102e6576102d78183611cf8565b949091612586565b87513d88823e3d90fd5b505091505090565b50935050505090565b60648785519062461bcd60e51b82526004820152601d60248201527f476f7665726e6f723a20756e6b6e6f776e2070726f706f73616c2069640000006044820152fd5b505050505050600290565b50505050505050600790565b906040516020810167ffffffffffffffff9082811082821117611c7257604052819354169052565b1561271f57565b608460405162461bcd60e51b815260206004820152602160248201527f476f7665726e6f723a20696e76616c69642070726f706f73616c206c656e677460448201527f68000000000000000000000000000000000000000000000000000000000000006064820152fd5b91909167ffffffffffffffff8080941691160191821161228a57565b600019811461228a5760010190565b3d156127df573d906127c582611d1b565b916127d36040519384611cf8565b82523d6000602084013e565b606090565b9092916000938151820191602081818501940312611c235760208101519067ffffffffffffffff8211611c2357019180603f84011215611c2357602083015161282c81611e00565b9361283a6040519586611cf8565b8185526040602086019260051b820101928311611c2357939493604001905b828210612a17575050508251916000906000946001600160a01b0360065416955b85811061288a5750505050505050565b612894818361218d565b51938411156129ed5783604051907fd40e7146000000000000000000000000000000000000000000000000000000008252886004916001600160a01b0387168385015260208460648160249585878301528d60448301525afa9384156129ad576000946129b9575b5083612915575b50505050612910906127a5565b61287a565b6040517fd31cc52c000000000000000000000000000000000000000000000000000000008152928301528101879052919990916020816044818c5afa9081156129ad57600091612979575b5061296e90612910936131e5565b019890388080612903565b90506020813d6020116129a5575b8161299460209383611cf8565b81010312611c235751612910612960565b3d9150612987565b6040513d6000823e3d90fd5b9093506020813d6020116129e5575b816129d560209383611cf8565b81010312611c23575192386128fc565b3d91506129c8565b60046040517f0bdbcd96000000000000000000000000000000000000000000000000000000008152fd5b8151815260209182019101612859565b92919091600093808552600191602092808452604091828820612a49856124cb565b6008811015612c46578303612bdd578167ffffffffffffffff612a6e612a76936126f0565b5116896127e4565b9784815260048652838120906001600160a01b036003830199169889825280885260ff8683205416612b74579185828695948c8e999895528a52208260ff1982541617905501612ac785825461227d565b90558051612b1c57509181612b16937fb8e138887d0aa13bab447e82de9d5c1777041ecd21ca36ba824ff1e6c07ddda49793519687968752860152840152608060608401526080830190611daf565b0390a290565b9195612b169387612b66937fe2babfbac5889a709b63bb7f598b324e08bc5a4fb9ec647fb3cbc9ec07eb87129951988998895288015286015260a0606086015260a0850190611daf565b908382036080850152611daf565b60848887519062461bcd60e51b82526004820152602760248201527f476f7665726e6f72566f74696e6753696d706c653a20766f746520616c72656160448201527f64792063617374000000000000000000000000000000000000000000000000006064820152fd5b60848685519062461bcd60e51b82526004820152602360248201527f476f7665726e6f723a20766f7465206e6f742063757272656e746c792061637460448201527f69766500000000000000000000000000000000000000000000000000000000006064820152fd5b60248a634e487b7160e01b81526021600452fd5b939092919360009181835260209260018452604091828220612c7b856124cb565b6008811015612ded57600103612bdd578167ffffffffffffffff612a6e612ca1936126f0565b9784835260048652838320926001600160a01b036003850199169889825280885260ff8683205416612b74578982528752849020805460ff1916600117905588939260ff909116919082612d4757612ac785825461227d565b8051612b1c57509181612b16937fb8e138887d0aa13bab447e82de9d5c1777041ecd21ca36ba824ff1e6c07ddda49793519687968752860152840152608060608401526080830190611daf565b60018303612d6457600101612d5d85825461227d565b9055612cfa565b929350909160028303612d84579060028994939201612d5d85825461227d565b60848685519062461bcd60e51b82526004820152603560248201527f476f7665726e6f72566f74696e6753696d706c653a20696e76616c696420766160448201527f6c756520666f7220656e756d20566f74655479706500000000000000000000006064820152fd5b602484634e487b7160e01b81526021600452fd5b90919015612e0d575090565b815115612e1d5750805190602001fd5b612e419060405191829162461bcd60e51b8352602060048401526024830190611daf565b0390fd5b6005811015612f615780612e565750565b60018103612ea257606460405162461bcd60e51b815260206004820152601860248201527f45434453413a20696e76616c6964207369676e617475726500000000000000006044820152fd5b60028103612eee57606460405162461bcd60e51b815260206004820152601f60248201527f45434453413a20696e76616c6964207369676e6174757265206c656e677468006044820152fd5b600314612ef757565b608460405162461bcd60e51b815260206004820152602260248201527f45434453413a20696e76616c6964207369676e6174757265202773272076616c60448201527f75650000000000000000000000000000000000000000000000000000000000006064820152fd5b634e487b7160e01b600052602160045260246000fd5b9291907f7fffffffffffffffffffffffffffffff5d576e7357a4501ddfe92f46681b20a08311612ffa5791608094939160ff602094604051948552168484015260408301526060820152600093849182805260015afa15612fed5781516001600160a01b03811615612fe7579190565b50600190565b50604051903d90823e3d90fd5b50505050600090600390565b61300e613052565b906040519060208201927f1901000000000000000000000000000000000000000000000000000000000000845260228301526042820152604281526124c581611cc0565b6001600160a01b037f00000000000000000000000000000000000000000000000000000000000000001630148061313d575b156130ad577f000000000000000000000000000000000000000000000000000000000000000090565b60405160208101907f000000000000000000000000000000000000000000000000000000000000000082527f000000000000000000000000000000000000000000000000000000000000000060408201527f000000000000000000000000000000000000000000000000000000000000000060608201524660808201523060a082015260a081526124c581611c56565b507f00000000000000000000000000000000000000000000000000000000000000004614613084565b67ffffffffffffffff9081811161317b571690565b608460405162461bcd60e51b815260206004820152602660248201527f53616665436173743a2076616c756520646f65736e27742066697420696e203660448201527f34206269747300000000000000000000000000000000000000000000000000006064820152fd5b90633b9aca00906000198383099280830292838086109503948086039514613299578285101561326257908291096001821901821680920460028082600302188083028203028083028203028083028203028083028203028083028203028092029003029360018380600003040190848311900302920304170290565b60448584604051917f773cc18c00000000000000000000000000000000000000000000000000000000835260048301526024820152fd5b505090611d8992506123ff56fea2646970667358221220550c2006f318ef9302bf975ccf4b34ea4be5ffb81f38b3d74c8d30949ceafbfd64736f6c63430008140033",
    "linkReferences": {}
  },
  "methodIdentifiers": {
    "BALLOT_TYPEHASH()": "deaaa7cc",
    "COUNTING_MODE()": "dd4e2ba5",
    "EXTENDED_BALLOT_TYPEHASH()": "2fe3e261",
    "MAX_VOTING_POWER_TIER()": "4b501fbd",
    "attestToScorecard(uint256)": "19f82536",
    "attestToScorecardWithReasonAndParams(uint256,bytes)": "7c8bd0ed",
    "castVote(uint256,uint8)": "56781388",
    "castVoteBySig(uint256,uint8,uint8,bytes32,bytes32)": "3bccf4fd",
    "castVoteWithReason(uint256,uint8,string)": "7b3c71d3",
    "castVoteWithReasonAndParams(uint256,uint8,string,bytes)": "5f398a14",
    "castVoteWithReasonAndParamsBySig(uint256,uint8,string,bytes,uint8,bytes32,bytes32)": "03420181",
    "codeOrigin()": "1d153ca4",
    "defaultVotingDelegateProposal()": "56e258a5",
    "delegate()": "c89e4361",
    "execute(address[],uint256[],bytes[],bytes32)": "2656227d",
    "getVotes(address,uint256)": "eb9019d4",
    "getVotesWithParams(address,uint256,bytes)": "9a802a6d",
    "hasVoted(uint256,address)": "43859632",
    "hashProposal(address[],uint256[],bytes[],bytes32)": "c59057e4",
    "initialize(address,uint256,uint256)": "7a1ac61e",
    "name()": "06fdde03",
    "onERC1155BatchReceived(address,address,uint256[],uint256[],bytes)": "bc197c81",
    "onERC1155Received(address,address,uint256,uint256,bytes)": "f23a6e61",
    "onERC721Received(address,address,uint256,bytes)": "150b7a02",
    "proposalDeadline(uint256)": "c01f9e37",
    "proposalSnapshot(uint256)": "2d63f693",
    "proposalThreshold()": "b58131b0",
    "proposalVotes(uint256)": "544ffc9c",
    "propose(address[],uint256[],bytes[],string)": "7d5e81e2",
    "quorum(uint256)": "f8ce560a",
    "ratifyScorecard((uint256,uint256)[])": "64d87a61",
    "relay(address,uint256,bytes)": "c28bc2fa",
    "state(uint256)": "3e4f49e6",
    "submitScorecard((uint256,uint256)[])": "d8844e2f",
    "supportsInterface(bytes4)": "01ffc9a7",
    "version()": "54fd4d50",
    "votingDelay()": "3932abb1",
    "votingPeriod()": "02a251a3",
    "votingStartTime()": "2019a608"
  },
  "id": 2
}