{
  "abi": [
    {
      "inputs": [],
      "stateMutability": "nonpayable",
      "type": "constructor"
    },
    {
      "inputs": [],
      "name": "DISABLED",
      "type": "error"
    },
    {
      "inputs": [],
      "name": "Empty",
      "type": "error"
    },
    {
      "inputs": [],
      "name": "INCORRECT_TIER_ORDER",
      "type": "error"
    },
    {
      "inputs": [
        {
          "internalType": "uint256",
          "name": "prod1",
          "type": "uint256"
        },
        {
          "internalType": "uint256",
          "name": "denominator",
          "type": "uint256"
        }
      ],
      "name": "PRBMath__MulDivOverflow",
      "type": "error"
    },
    {
      "inputs": [],
      "name": "UNOWNED_PROPOSED_REDEMPTION_VALUE",
      "type": "error"
    },
    {
      "anonymous": false,
      "inputs": [
        {
          "indexed": false,
          "internalType": "uint256",
          "name": "proposalId",
          "type": "uint256"
        }
      ],
      "name": "ProposalCanceled",
      "type": "event"
    },
    {
      "anonymous": false,
      "inputs": [
        {
          "indexed": false,
          "internalType": "uint256",
          "name": "proposalId",
          "type": "uint256"
        },
        {
          "indexed": false,
          "internalType": "address",
          "name": "proposer",
          "type": "address"
        },
        {
          "indexed": false,
          "internalType": "address[]",
          "name": "targets",
          "type": "address[]"
        },
        {
          "indexed": false,
          "internalType": "uint256[]",
          "name": "values",
          "type": "uint256[]"
        },
        {
          "indexed": false,
          "internalType": "string[]",
          "name": "signatures",
          "type": "string[]"
        },
        {
          "indexed": false,
          "internalType": "bytes[]",
          "name": "calldatas",
          "type": "bytes[]"
        },
        {
          "indexed": false,
          "internalType": "uint256",
          "name": "startBlock",
          "type": "uint256"
        },
        {
          "indexed": false,
          "internalType": "uint256",
          "name": "endBlock",
          "type": "uint256"
        },
        {
          "indexed": false,
          "internalType": "string",
          "name": "description",
          "type": "string"
        }
      ],
      "name": "ProposalCreated",
      "type": "event"
    },
    {
      "anonymous": false,
      "inputs": [
        {
          "indexed": false,
          "internalType": "uint256",
          "name": "proposalId",
          "type": "uint256"
        }
      ],
      "name": "ProposalExecuted",
      "type": "event"
    },
    {
      "anonymous": false,
      "inputs": [
        {
          "indexed": false,
          "internalType": "uint256",
          "name": "proposalId",
          "type": "uint256"
        },
        {
          "components": [
            {
              "internalType": "uint256",
              "name": "id",
              "type": "uint256"
            },
            {
              "internalType": "uint256",
              "name": "redemptionWeight",
              "type": "uint256"
            }
          ],
          "indexed": false,
          "internalType": "struct DefifaTierRedemptionWeight[]",
          "name": "tierWeights",
          "type": "tuple[]"
        },
        {
          "indexed": false,
          "internalType": "bool",
          "name": "isDefaultVotingDelegate",
          "type": "bool"
        },
        {
          "indexed": false,
          "internalType": "address",
          "name": "caller",
          "type": "address"
        }
      ],
      "name": "ScorecardSubmitted",
      "type": "event"
    },
    {
      "anonymous": false,
      "inputs": [
        {
          "indexed": true,
          "internalType": "address",
          "name": "voter",
          "type": "address"
        },
        {
          "indexed": false,
          "internalType": "uint256",
          "name": "proposalId",
          "type": "uint256"
        },
        {
          "indexed": false,
          "internalType": "uint8",
          "name": "support",
          "type": "uint8"
        },
        {
          "indexed": false,
          "internalType": "uint256",
          "name": "weight",
          "type": "uint256"
        },
        {
          "indexed": false,
          "internalType": "string",
          "name": "reason",
          "type": "string"
        }
      ],
      "name": "VoteCast",
      "type": "event"
    },
    {
      "anonymous": false,
      "inputs": [
        {
          "indexed": true,
          "internalType": "address",
          "name": "voter",
          "type": "address"
        },
        {
          "indexed": false,
          "internalType": "uint256",
          "name": "proposalId",
          "type": "uint256"
        },
        {
          "indexed": false,
          "internalType": "uint8",
          "name": "support",
          "type": "uint8"
        },
        {
          "indexed": false,
          "internalType": "uint256",
          "name": "weight",
          "type": "uint256"
        },
        {
          "indexed": false,
          "internalType": "string",
          "name": "reason",
          "type": "string"
        },
        {
          "indexed": false,
          "internalType": "bytes",
          "name": "params",
          "type": "bytes"
        }
      ],
      "name": "VoteCastWithParams",
      "type": "event"
    },
    {
      "inputs": [],
      "name": "BALLOT_TYPEHASH",
      "outputs": [
        {
          "internalType": "bytes32",
          "name": "",
          "type": "bytes32"
        }
      ],
      "stateMutability": "view",
      "type": "function"
    },
    {
      "inputs": [],
      "name": "COUNTING_MODE",
      "outputs": [
        {
          "internalType": "string",
          "name": "",
          "type": "string"
        }
      ],
      "stateMutability": "pure",
      "type": "function"
    },
    {
      "inputs": [],
      "name": "EXTENDED_BALLOT_TYPEHASH",
      "outputs": [
        {
          "internalType": "bytes32",
          "name": "",
          "type": "bytes32"
        }
      ],
      "stateMutability": "view",
      "type": "function"
    },
    {
      "inputs": [],
      "name": "MAX_VOTING_POWER_TIER",
      "outputs": [
        {
          "internalType": "uint256",
          "name": "",
          "type": "uint256"
        }
      ],
      "stateMutability": "view",
      "type": "function"
    },
    {
      "inputs": [
        {
          "internalType": "uint256",
          "name": "_scorecardId",
          "type": "uint256"
        }
      ],
      "name": "attestToScorecard",
      "outputs": [],
      "stateMutability": "nonpayable",
      "type": "function"
    },
    {
      "inputs": [
        {
          "internalType": "uint256",
          "name": "_scorecardId",
          "type": "uint256"
        },
        {
          "internalType": "bytes",
          "name": "params",
          "type": "bytes"
        }
      ],
      "name": "attestToScorecardWithReasonAndParams",
      "outputs": [],
      "stateMutability": "nonpayable",
      "type": "function"
    },
    {
      "inputs": [
        {
          "internalType": "uint256",
          "name": "proposalId",
          "type": "uint256"
        },
        {
          "internalType": "uint8",
          "name": "support",
          "type": "uint8"
        }
      ],
      "name": "castVote",
      "outputs": [
        {
          "internalType": "uint256",
          "name": "",
          "type": "uint256"
        }
      ],
      "stateMutability": "nonpayable",
      "type": "function"
    },
    {
      "inputs": [
        {
          "internalType": "uint256",
          "name": "proposalId",
          "type": "uint256"
        },
        {
          "internalType": "uint8",
          "name": "support",
          "type": "uint8"
        },
        {
          "internalType": "uint8",
          "name": "v",
          "type": "uint8"
        },
        {
          "internalType": "bytes32",
          "name": "r",
          "type": "bytes32"
        },
        {
          "internalType": "bytes32",
          "name": "s",
          "type": "bytes32"
        }
      ],
      "name": "castVoteBySig",
      "outputs": [
        {
          "internalType": "uint256",
          "name": "",
          "type": "uint256"
        }
      ],
      "stateMutability": "nonpayable",
      "type": "function"
    },
    {
      "inputs": [
        {
          "internalType": "uint256",
          "name": "proposalId",
          "type": "uint256"
        },
        {
          "internalType": "uint8",
          "name": "support",
          "type": "uint8"
        },
        {
          "internalType": "string",
          "name": "reason",
          "type": "string"
        }
      ],
      "name": "castVoteWithReason",
      "outputs": [
        {
          "internalType": "uint256",
          "name": "",
          "type": "uint256"
        }
      ],
      "stateMutability": "nonpayable",
      "type": "function"
    },
    {
      "inputs": [
        {
          "internalType": "uint256",
          "name": "proposalId",
          "type": "uint256"
        },
        {
          "internalType": "uint8",
          "name": "support",
          "type": "uint8"
        },
        {
          "internalType": "string",
          "name": "reason",
          "type": "string"
        },
        {
          "internalType": "bytes",
          "name": "params",
          "type": "bytes"
        }
      ],
      "name": "castVoteWithReasonAndParams",
      "outputs": [
        {
          "internalType": "uint256",
          "name": "",
          "type": "uint256"
        }
      ],
      "stateMutability": "nonpayable",
      "type": "function"
    },
    {
      "inputs": [
        {
          "internalType": "uint256",
          "name": "proposalId",
          "type": "uint256"
        },
        {
          "internalType": "uint8",
          "name": "support",
          "type": "uint8"
        },
        {
          "internalType": "string",
          "name": "reason",
          "type": "string"
        },
        {
          "internalType": "bytes",
          "name": "params",
          "type": "bytes"
        },
        {
          "internalType": "uint8",
          "name": "v",
          "type": "uint8"
        },
        {
          "internalType": "bytes32",
          "name": "r",
          "type": "bytes32"
        },
        {
          "internalType": "bytes32",
          "name": "s",
          "type": "bytes32"
        }
      ],
      "name": "castVoteWithReasonAndParamsBySig",
      "outputs": [
        {
          "internalType": "uint256",
          "name": "",
          "type": "uint256"
        }
      ],
      "stateMutability": "nonpayable",
      "type": "function"
    },
    {
      "inputs": [],
      "name": "codeOrigin",
      "outputs": [
        {
          "internalType": "address",
          "name": "",
          "type": "address"
        }
      ],
      "stateMutability": "view",
      "type": "function"
    },
    {
      "inputs": [],
      "name": "defaultVotingDelegateProposal",
      "outputs": [
        {
          "internalType": "uint256",
          "name": "",
          "type": "uint256"
        }
      ],
      "stateMutability": "view",
      "type": "function"
    },
    {
      "inputs": [],
      "name": "delegate",
      "outputs": [
        {
          "internalType": "contract IDefifaDelegate",
          "name": "",
          "type": "address"
        }
      ],
      "stateMutability": "view",
      "type": "function"
    },
    {
      "inputs": [
        {
          "internalType": "address[]",
          "name": "targets",
          "type": "address[]"
        },
        {
          "internalType": "uint256[]",
          "name": "values",
          "type": "uint256[]"
        },
        {
          "internalType": "bytes[]",
          "name": "calldatas",
          "type": "bytes[]"
        },
        {
          "internalType": "bytes32",
          "name": "descriptionHash",
          "type": "bytes32"
        }
      ],
      "name": "execute",
      "outputs": [
        {
          "internalType": "uint256",
          "name": "",
          "type": "uint256"
        }
      ],
      "stateMutability": "payable",
      "type": "function"
    },
    {
      "inputs": [
        {
          "internalType": "address",
          "name": "account",
          "type": "address"
        },
        {
          "internalType": "uint256",
          "name": "blockNumber",
          "type": "uint256"
        }
      ],
      "name": "getVotes",
      "outputs": [
        {
          "internalType": "uint256",
          "name": "",
          "type": "uint256"
        }
      ],
      "stateMutability": "view",
      "type": "function"
    },
    {
      "inputs": [
        {
          "internalType": "address",
          "name": "account",
          "type": "address"
        },
        {
          "internalType": "uint256",
          "name": "blockNumber",
          "type": "uint256"
        },
        {
          "internalType": "bytes",
          "name": "params",
          "type": "bytes"
        }
      ],
      "name": "getVotesWithParams",
      "outputs": [
        {
          "internalType": "uint256",
          "name": "",
          "type": "uint256"
        }
      ],
      "stateMutability": "view",
      "type": "function"
    },
    {
      "inputs": [
        {
          "internalType": "uint256",
          "name": "proposalId",
          "type": "uint256"
        },
        {
          "internalType": "address",
          "name": "account",
          "type": "address"
        }
      ],
      "name": "hasVoted",
      "outputs": [
        {
          "internalType": "bool",
          "name": "",
          "type": "bool"
        }
      ],
      "stateMutability": "view",
      "type": "function"
    },
    {
      "inputs": [
        {
          "internalType": "address[]",
          "name": "targets",
          "type": "address[]"
        },
        {
          "internalType": "uint256[]",
          "name": "values",
          "type": "uint256[]"
        },
        {
          "internalType": "bytes[]",
          "name": "calldatas",
          "type": "bytes[]"
        },
        {
          "internalType": "bytes32",
          "name": "descriptionHash",
          "type": "bytes32"
        }
      ],
      "name": "hashProposal",
      "outputs": [
        {
          "internalType": "uint256",
          "name": "",
          "type": "uint256"
        }
      ],
      "stateMutability": "pure",
      "type": "function"
    },
    {
      "inputs": [
        {
          "internalType": "contract IDefifaDelegate",
          "name": "_delegate",
          "type": "address"
        },
        {
          "internalType": "uint256",
          "name": "_votingStartTime",
          "type": "uint256"
        },
        {
          "internalType": "uint256",
          "name": "_votingPeriod",
          "type": "uint256"
        }
      ],
      "name": "initialize",
      "outputs": [],
      "stateMutability": "nonpayable",
      "type": "function"
    },
    {
      "inputs": [],
      "name": "name",
      "outputs": [
        {
          "internalType": "string",
          "name": "",
          "type": "string"
        }
      ],
      "stateMutability": "view",
      "type": "function"
    },
    {
      "inputs": [
        {
          "internalType": "address",
          "name": "",
          "type": "address"
        },
        {
          "internalType": "address",
          "name": "",
          "type": "address"
        },
        {
          "internalType": "uint256[]",
          "name": "",
          "type": "uint256[]"
        },
        {
          "internalType": "uint256[]",
          "name": "",
          "type": "uint256[]"
        },
        {
          "internalType": "bytes",
          "name": "",
          "type": "bytes"
        }
      ],
      "name": "onERC1155BatchReceived",
      "outputs": [
        {
          "internalType": "bytes4",
          "name": "",
          "type": "bytes4"
        }
      ],
      "stateMutability": "nonpayable",
      "type": "function"
    },
    {
      "inputs": [
        {
          "internalType": "address",
          "name": "",
          "type": "address"
        },
        {
          "internalType": "address",
          "name": "",
          "type": "address"
        },
        {
          "internalType": "uint256",
          "name": "",
          "type": "uint256"
        },
        {
          "internalType": "uint256",
          "name": "",
          "type": "uint256"
        },
        {
          "internalType": "bytes",
          "name": "",
          "type": "bytes"
        }
      ],
      "name": "onERC1155Received",
      "outputs": [
        {
          "internalType": "bytes4",
          "name": "",
          "type": "bytes4"
        }
      ],
      "stateMutability": "nonpayable",
      "type": "function"
    },
    {
      "inputs": [
        {
          "internalType": "address",
          "name": "",
          "type": "address"
        },
        {
          "internalType": "address",
          "name": "",
          "type": "address"
        },
        {
          "internalType": "uint256",
          "name": "",
          "type": "uint256"
        },
        {
          "internalType": "bytes",
          "name": "",
          "type": "bytes"
        }
      ],
      "name": "onERC721Received",
      "outputs": [
        {
          "internalType": "bytes4",
          "name": "",
          "type": "bytes4"
        }
      ],
      "stateMutability": "nonpayable",
      "type": "function"
    },
    {
      "inputs": [
        {
          "internalType": "uint256",
          "name": "proposalId",
          "type": "uint256"
        }
      ],
      "name": "proposalDeadline",
      "outputs": [
        {
          "internalType": "uint256",
          "name": "",
          "type": "uint256"
        }
      ],
      "stateMutability": "view",
      "type": "function"
    },
    {
      "inputs": [
        {
          "internalType": "uint256",
          "name": "proposalId",
          "type": "uint256"
        }
      ],
      "name": "proposalSnapshot",
      "outputs": [
        {
          "internalType": "uint256",
          "name": "",
          "type": "uint256"
        }
      ],
      "stateMutability": "view",
      "type": "function"
    },
    {
      "inputs": [],
      "name": "proposalThreshold",
      "outputs": [
        {
          "internalType": "uint256",
          "name": "",
          "type": "uint256"
        }
      ],
      "stateMutability": "pure",
      "type": "function"
    },
    {
      "inputs": [
        {
          "internalType": "uint256",
          "name": "proposalId",
          "type": "uint256"
        }
      ],
      "name": "proposalVotes",
      "outputs": [
        {
          "internalType": "uint256",
          "name": "againstVotes",
          "type": "uint256"
        },
        {
          "internalType": "uint256",
          "name": "forVotes",
          "type": "uint256"
        },
        {
          "internalType": "uint256",
          "name": "abstainVotes",
          "type": "uint256"
        }
      ],
      "stateMutability": "view",
      "type": "function"
    },
    {
      "inputs": [
        {
          "internalType": "address[]",
          "name": "targets",
          "type": "address[]"
        },
        {
          "internalType": "uint256[]",
          "name": "values",
          "type": "uint256[]"
        },
        {
          "internalType": "bytes[]",
          "name": "calldatas",
          "type": "bytes[]"
        },
        {
          "internalType": "string",
          "name": "description",
          "type": "string"
        }
      ],
      "name": "propose",
      "outputs": [
        {
          "internalType": "uint256",
          "name": "",
          "type": "uint256"
        }
      ],
      "stateMutability": "nonpayable",
      "type": "function"
    },
    {
      "inputs": [
        {
          "internalType": "uint256",
          "name": "",
          "type": "uint256"
        }
      ],
      "name": "quorum",
      "outputs": [
        {
          "internalType": "uint256",
          "name": "",
          "type": "uint256"
        }
      ],
      "stateMutability": "view",
      "type": "function"
    },
    {
      "inputs": [
        {
          "components": [
            {
              "internalType": "uint256",
              "name": "id",
              "type": "uint256"
            },
            {
              "internalType": "uint256",
              "name": "redemptionWeight",
              "type": "uint256"
            }
          ],
          "internalType": "struct DefifaTierRedemptionWeight[]",
          "name": "_tierWeights",
          "type": "tuple[]"
        }
      ],
      "name": "ratifyScorecard",
      "outputs": [
        {
          "internalType": "uint256",
          "name": "",
          "type": "uint256"
        }
      ],
      "stateMutability": "nonpayable",
      "type": "function"
    },
    {
      "inputs": [
        {
          "internalType": "address",
          "name": "target",
          "type": "address"
        },
        {
          "internalType": "uint256",
          "name": "value",
          "type": "uint256"
        },
        {
          "internalType": "bytes",
          "name": "data",
          "type": "bytes"
        }
      ],
      "name": "relay",
      "outputs": [],
      "stateMutability": "payable",
      "type": "function"
    },
    {
      "inputs": [
        {
          "internalType": "uint256",
          "name": "proposalId",
          "type": "uint256"
        }
      ],
      "name": "state",
      "outputs": [
        {
          "internalType": "enum IGovernor.ProposalState",
          "name": "",
          "type": "uint8"
        }
      ],
      "stateMutability": "view",
      "type": "function"
    },
    {
      "inputs": [
        {
          "components": [
            {
              "internalType": "uint256",
              "name": "id",
              "type": "uint256"
            },
            {
              "internalType": "uint256",
              "name": "redemptionWeight",
              "type": "uint256"
            }
          ],
          "internalType": "struct DefifaTierRedemptionWeight[]",
          "name": "_tierWeights",
          "type": "tuple[]"
        }
      ],
      "name": "submitScorecard",
      "outputs": [
        {
          "internalType": "uint256",
          "name": "proposalId",
          "type": "uint256"
        }
      ],
      "stateMutability": "nonpayable",
      "type": "function"
    },
    {
      "inputs": [
        {
          "internalType": "bytes4",
          "name": "interfaceId",
          "type": "bytes4"
        }
      ],
      "name": "supportsInterface",
      "outputs": [
        {
          "internalType": "bool",
          "name": "",
          "type": "bool"
        }
      ],
      "stateMutability": "view",
      "type": "function"
    },
    {
      "inputs": [],
      "name": "version",
      "outputs": [
        {
          "internalType": "string",
          "name": "",
          "type": "string"
        }
      ],
      "stateMutability": "view",
      "type": "function"
    },
    {
      "inputs": [],
      "name": "votingDelay",
      "outputs": [
        {
          "internalType": "uint256",
          "name": "",
          "type": "uint256"
        }
      ],
      "stateMutability": "view",
      "type": "function"
    },
    {
      "inputs": [],
      "name": "votingPeriod",
      "outputs": [
        {
          "internalType": "uint256",
          "name": "",
          "type": "uint256"
        }
      ],
      "stateMutability": "view",
      "type": "function"
    },
    {
      "inputs": [],
      "name": "votingStartTime",
      "outputs": [
        {
          "internalType": "uint256",
          "name": "",
          "type": "uint256"
        }
      ],
      "stateMutability": "view",
      "type": "function"
    },
    {
      "stateMutability": "payable",
      "type": "receive"
    }
  ],
  "bytecode": {
    "object": "0x61016060409080825234620002855762000019816200028a565b600e8152602091828201916d2232b334b330a3b7bb32b93737b960911b835283825162000046816200028a565b60019181838093520194603160f81b86528351902094208460e052610100958187524660a052845191818301907f8b73c3c69bb8fe3d512ecc4cf759cc79239f7b179b0ffacaa9a75d522b39400f978883528785015260608401524660808401523060a084015260a0835260c083019260018060401b0393818110858211176200026f5787525190206080523060c05261012095865283519182116200026f5760009384548481811c9116801562000264575b838210146200025057601f811162000205575b5081601f84116001146200019d5750928293918392869462000191575b50501b916000199060031b1c19161790555b6101409030825251916132669384620002a7853960805184612ffe015260a051846130b3015260c05184612fcf015260e0518461304d015251836130730152518261302a015251818181610fda01526117d80152f35b01519250388062000129565b919083601f1981168780528488209488905b88838310620001ea5750505010620001d0575b505050811b0190556200013b565b015160001960f88460031b161c19169055388080620001c2565b858701518855909601959485019487935090810190620001af565b858052828620601f850160051c81019184861062000245575b601f0160051c019085905b828110620002395750506200010c565b87815501859062000229565b90915081906200021e565b634e487b7160e01b86526022600452602486fd5b90607f1690620000f9565b634e487b7160e01b600052604160045260246000fd5b600080fd5b604081019081106001600160401b038211176200026f5760405256fe6080604081815260049081361015610022575b505050361561002057600080fd5b005b60009260e08435811c91826301ffc9a714611ac95750816302a251a314611aaa57816303420181146119a157816306fdde031461188b578163150b7a021461181b57816319f82536146117fc5781631d153ca4146117b85781632019a608146117995781632656227d146115f75781632d63f693146115c55781632fe3e2611461158a5781633932abb11461156d5781633bccf4fd146114b45781633e4f49e61461146f57816343859632146114265781634b501fbd14611407578163544ffc9c146113c957816354fd4d501461136c578163567813881461133457816356e258a5146113155781635f398a14146112a057816364d87a611461104b5781637a1ac61e14610fab5781637b3c71d314610f4a5781637c8bd0ed14610efe5781637d5e81e214610b655781639a802a6d14610b21578163b58131b014610b06578163bc197c8114610a65578163c01f9e3714610a28578163c28bc2fa14610917578163c59057e4146108f8578163c89e4361146108d0578163d8844e2f1461044257508063dd4e2ba5146103e1578063deaaa7cc146103a6578063eb9019d41461036d578063f23a6e61146102fe5763f8ce560a0361001257346102fa57602092836003193601126102f7576001600160a01b03806006541683519063975057e760e01b825286828781845afa9182156102ed579087929185926102bb575b506024908651948593849263f1bea54f60e01b84528a840152165afa9081156102b1578291610280575b5060011c92633b9aca009384810294818604149015171561026d57505051908152f35b906011602492634e487b7160e01b835252fd5b90508481813d83116102aa575b6102978183611caf565b810103126102a657513861024a565b5080fd5b503d61028d565b83513d84823e3d90fd5b60249192506102df90843d86116102e6575b6102d78183611caf565b810190611fcc565b9190610220565b503d6102cd565b85513d86823e3d90fd5b80fd5b8280fd5b5082346102f75760a06003193601126102f757610319611d8b565b50610322611da1565b506084359067ffffffffffffffff82116102f7575060209261034691369101611d25565b50517ff23a6e61000000000000000000000000000000000000000000000000000000008152f35b8382346102a657806003193601126102a65760209061039f61038d611d8b565b610395612257565b9060243590612757565b9051908152f35b8382346102a657816003193601126102a657602090517f150214d74d59b7d1e90c73fc22ef3d991dd0a76b046543d4d80ab92d2a50328f8152f35b8382346102a657816003193601126102a657805161043e9161040282611c93565b602082527f737570706f72743d627261766f2671756f72756d3d666f722c6162737461696e602083015251918291602083526020830190611d66565b0390f35b84929150346102fa5761045436611f7f565b909184906001600160a01b03918260065416905b84811061065b5750505084608495966104ea6104848587612158565b6104da6104c68b9d949d959395519d8e9d8e7f7d5e81e200000000000000000000000000000000000000000000000000000000815260808a8201520190612032565b600319958d6024888285030191015261206f565b90848c83030160448d01526120a3565b89810392830160648b015252602098898092018185305af1968715610651578297610622575b508783600654168751928380927f174e3e050000000000000000000000000000000000000000000000000000000082525afa9182156106175780926105b8575b5050907f3d4a25cde9b27ef1284f243f985636582a92327dbbb0f27bf8d8d02026cf75cf939291163314806105af575b61059b855193849388855260808a86015260808501916120f8565b90858301523360608301520390a151908152f35b85600855610580565b9091508782813d8311610610575b6105d08183611caf565b810103126102f75750906106067f3d4a25cde9b27ef1284f243f985636582a92327dbbb0f27bf8d8d02026cf75cf949392612011565b9091929388610550565b503d6105c6565b8651903d90823e3d90fd5b9096508781813d831161064a575b61063a8183611caf565b810103126102a657519588610510565b503d610630565b86513d84823e3d90fd5b865163975057e760e01b815260209081818c81875afa9081156108c6578a858d89878c8f968f908799610898575b5091610699916064959493611feb565b35955196879485937f64faa15900000000000000000000000000000000000000000000000000000000855284015260249687840152856044840152165afa91821561088e578b92610744575b505088606082015191015114908161072d575b5061070557600101610468565b8887517fd1f78be3000000000000000000000000000000000000000000000000000000008152fd5b905061073a828789611feb565b013515158a6106f8565b9091503d808c833e6107568183611caf565b8101838282031261088a57815167ffffffffffffffff9283821161086f57019161018093848484031261086f578c51948501908582108383111761087757508c528251845284830151858501528b8301518c850152606080840151908501526080808401519085015260a0808401519085015260c06107d6818501612011565b90850152878301518885015261010080840151908501526101206107fb818501612025565b9085015261014061080d818501612025565b90850152610160928381015191821161086f570181601f820112156108735790818c9392519161084861083f84611cd2565b95519586611caf565b82855286838301011161086f579061086591868086019101611d43565b8201528b806106e5565b8d80fd5b8c80fd5b8f8f90604190634e487b7160e01b835252fd5b8b80fd5b8a513d8d823e3d90fd5b6064959493919950916108ba610699938c8d3d106102e6576102d78183611caf565b99919394955091610689565b89513d8c823e3d90fd5b8483346102a657816003193601126102a6576020906001600160a01b03600654169051908152f35b8483346102a65760209061039f61090e36611f1c565b929190916123da565b82858560606003193601126102a65761092e611d8b565b9060443567ffffffffffffffff8111610a245761094e9036908301611bdf565b913033036109e15750836109dd9383829388958651928392833781018481520391602435905af161097d612727565b907f206d6573736167650000000000000000000000000000000000000000000000008351936109ab85611c5b565b602885527f476f7665726e6f723a2072656c617920726576657274656420776974686f75746020860152840152612d74565b5080f35b606490602087519162461bcd60e51b8352820152601860248201527f476f7665726e6f723a206f6e6c79476f7665726e616e636500000000000000006044820152fd5b8380fd5b505090346102fa5760206003193601126102fa57610a5c60018360209567ffffffffffffffff943581528287522001612663565b51169051908152f35b505082346102f75760a06003193601126102f757610a81611d8b565b50610a8a611da1565b5067ffffffffffffffff906044358281116102a657610aac9036908601611e3d565b506064358281116102a657610ac49036908601611e3d565b506084359182116102f75750602092610adf91369101611d25565b50517fbc197c81000000000000000000000000000000000000000000000000000000008152f35b8483346102a657816003193601126102a65751908152602090f35b505090346102fa5760606003193601126102fa57610b3d611d8b565b926044359067ffffffffffffffff82116102f757509261039561039f92602095369101611d25565b838584346102a65760806003193601126102a65767ffffffffffffffff8335818111610a2457610b989036908601611dcf565b602435828111610efa57610baf9036908701611e3d565b94604435838111610ef657610bc79036908301611e9b565b96606435848111610ef25736602382011215610ef257610bf09036906024818601359101611cee565b92303303610eca576000194301438111610eb757610c1790610c10612257565b9033612757565b50835198610c2d60209a8b870120828b856123da565b97610c3b83518b511461268b565b610c48835183511461268b565b825115610e755788815260018b528781209487610c6487612663565b5116610e0d5750610c8d610c77436130d9565b610c87610c826123b6565b6130d9565b906126fc565b87610ca2610c9c6005546130d9565b836126fc565b91169760017fffffffffffffffffffffffffffffffffffffffffffffffff0000000000000000978a898254161781550191168096825416179055610d078b845194610cec86611db7565b95610cf98c519788611caf565b808752601f19938491611db7565b01845b818110610dfe5750508b9c610d3a610d48928d9e9d80519e8f908152338782015261012080928201520190612032565b8c810360608e01529061206f565b8a810360808c01528551928382528282019183808660051b830101980195935b858510610dd2575050505050505092869592610db283610dc996897f7d84a6263ae0d98d3329bd7b46bb4e8d6f98cd35a7adb45c274c8b7fd5ebd5e09b99960360a08a01526120a3565b9360c0870152850152838203610100850152611d66565b0390a151908152f35b80610ded8a85856001969798999a9b9d030188528b51611d66565b99019401940192949391908f610d68565b60608882018501528301610d0a565b6084908c8a519162461bcd60e51b8352820152602160248201527f476f7665726e6f723a2070726f706f73616c20616c726561647920657869737460448201527f73000000000000000000000000000000000000000000000000000000000000006064820152fd5b6064858c8a519162461bcd60e51b8352820152601860248201527f476f7665726e6f723a20656d7074792070726f706f73616c00000000000000006044820152fd5b602488601186634e487b7160e01b835252fd5b8286517facb78998000000000000000000000000000000000000000000000000000000008152fd5b8680fd5b8580fd5b8480fd5b5050346102fa57806003193601126102fa576024359167ffffffffffffffff8311610a2457610f336109dd9336908301611d25565b915190610f3f82611c3f565b84825233903561299a565b505082346102f75760606003193601126102f757610f66611bca565b906044359067ffffffffffffffff82116102f757509261039f91610f99610f9260209636908501611bdf565b3691611cee565b90610fa2612257565b92339035612bcd565b505050346102a65760606003193601126102a657356001600160a01b03908181168091036102fa5760443591807f0000000000000000000000000000000000000000000000000000000000000000163014610a2457600654908116610a24577fffffffffffffffffffffffff0000000000000000000000000000000000000000161760065560243560075580611046575061c40f5b60055580f35b611040565b5050346102fa5761106461105e36611f7f565b90612158565b91909483519560209687810190608082526110e161108560a0830187612032565b826110af61109f601f199384848203018d8501528861206f565b838382030160608401528a6120a3565b7fc5d2460186f7233c927e7db2dcc703c0e500b653ca82273b7bfad8045d85a470608083015203908101835282611caf565b519020956110ee8761243e565b600881101561128d57818114908115611282575b501561121a57508582526001938488526002868420018560ff198254161790557f712ae1383f79ac853f8d882153778e0260ef8f03b504e2866e0593e04d2b291f888751898152a185519361115685611c5b565b602785527f476f7665726e6f723a2063616c6c20726576657274656420776974686f757420898601527f6d65737361676500000000000000000000000000000000000000000000000000878601528884875b6111b5575b508751898152f35b82518110156112155761120787878061120d956001600160a01b036111da878a612144565b51166111e6878c612144565b516111f1888c612144565b5180519301915af1611201612727565b90612d74565b50612718565b8990876111a8565b6111ad565b6084908887519162461bcd60e51b8352820152602160248201527f476f7665726e6f723a2070726f706f73616c206e6f742073756363657373667560448201527f6c000000000000000000000000000000000000000000000000000000000000006064820152fd5b600591501438611102565b602484602184634e487b7160e01b835252fd5b505090346102fa5760806003193601126102fa576112bc611bca565b67ffffffffffffffff936044358581116102a6576112dd9036908501611bdf565b9590916064359182116102f757509161130c61039f94926113046020989536908601611d25565b943691611cee565b91339035612bcd565b8483346102a657816003193601126102a6576020906008549051908152f35b505090346102fa57816003193601126102fa5761039f90602093611356611bca565b84519161136283611c3f565b8252610fa2612257565b8483346102a657816003193601126102a657805161043e9161138d82611c93565b600182527f3100000000000000000000000000000000000000000000000000000000000000602083015251918291602083526020830190611d66565b505090346102fa5760206003193601126102fa5760609281839235825260205220805491600260018301549201549181519384526020840152820152f35b8483346102a657816003193601126102a65760209051633b9aca008152f35b505090346102fa57816003193601126102fa578160209360ff92611448611da1565b908035835286526001600160a01b0360038484200191168252855220541690519015158152f35b838584346102a65760206003193601126102a65761148d833561243e565b90519160088210156114a157602083838152f35b80602185634e487b7160e01b6024945252fd5b505090346102fa5760a06003193601126102fa57356114d1611bca565b60443560ff81168103610efa579361039f92916115516115496020978751898101917f150214d74d59b7d1e90c73fc22ef3d991dd0a76b046543d4d80ab92d2a50328f8352878a83015260ff861660608301526060825261153182611c77565b6115446084359360643593519020612f79565b612eea565b919091612db8565b85519261155d84611c3f565b8352611567612257565b93612bcd565b8483346102a657816003193601126102a65760209061039f6123b6565b8483346102a657816003193601126102a657602090517fb3b3f3b703cd84ce352197dcff232b1b5d3cfb2025ce47cf04742d0651f1af888152f35b505090346102fa5760206003193601126102fa57610a5c8260209467ffffffffffffffff933581526001865220612663565b505061161261160536611f1c565b81838599949693996123da565b9461161c8661243e565b60088110156117865781811490811561177b575b501561171257508481526001926020968488526002868420018560ff198254161790557f712ae1383f79ac853f8d882153778e0260ef8f03b504e2866e0593e04d2b291f888751898152a185519361168785611c5b565b602785527f476f7665726e6f723a2063616c6c20726576657274656420776974686f757420898601527f6d65737361676500000000000000000000000000000000000000000000000000878601528884875b6116e557508751898152f35b82518110156112155761120787878061170a956001600160a01b036111da878a612144565b8990876116d9565b608490602086519162461bcd60e51b8352820152602160248201527f476f7665726e6f723a2070726f706f73616c206e6f742073756363657373667560448201527f6c000000000000000000000000000000000000000000000000000000000000006064820152fd5b600591501438611630565b602483602184634e487b7160e01b835252fd5b8483346102a657816003193601126102a6576020906007549051908152f35b8483346102a657816003193601126102a657602090516001600160a01b037f0000000000000000000000000000000000000000000000000000000000000000168152f35b5050346102fa5760206003193601126102fa576109dd91610f33612257565b505082346102f75760806003193601126102f757611837611d8b565b50611840611da1565b506064359067ffffffffffffffff82116102f7575060209261186491369101611d25565b50517f150b7a02000000000000000000000000000000000000000000000000000000008152f35b505082346102f757806003193601126102f75781519181825492600184811c91818616958615611997575b6020968785108114611984578899509688969785829a52918260001461195d575050600114611902575b50505061043e92916118f3910385611caf565b51928284938452830190611d66565b91908693508280527f290decd9548b62a8d60345a988386fc84ba6bc95484008f6362f93160ef3e5635b82841061194557505050820101816118f361043e6118e0565b8054848a01860152889550879490930192810161192c565b60ff19168782015293151560051b860190930193508492506118f3915061043e90506118e0565b60248360228c634e487b7160e01b835252fd5b92607f16926118b6565b8493915034610a24576003193601126102fa578035906119bf611bca565b9067ffffffffffffffff604435818111610ef2576119e09036908401611bdf565b919092606435918211611aa6576119f991369101611d25565b956084359060ff821682036102f75750611aa061039f95936020989593611a9889610f9295611a29368587611cee565b8d8151910120908a518e8c01208351928f8c908501957fb3b3f3b703cd84ce352197dcff232b1b5d3cfb2025ce47cf04742d0651f1af88875285015260ff8b166060850152608084015260a083015260a08252611a8582611c0d565b61154460c4359360a43593519020612f79565b949094612db8565b92612bcd565b8780fd5b8483346102a657816003193601126102a6576020906005549051908152f35b859085346102fa5760206003193601126102fa57357fffffffff0000000000000000000000000000000000000000000000000000000081168091036102fa57602092507fbf26d897000000000000000000000000000000000000000000000000000000008114908115611ba0575b8115611b76575b8115611b4c575b5015158152f35b7f01ffc9a70000000000000000000000000000000000000000000000000000000091501483611b45565b7f4e2312e00000000000000000000000000000000000000000000000000000000081149150611b3e565b7f79dd796f0000000000000000000000000000000000000000000000000000000081149150611b37565b6024359060ff82168203611bda57565b600080fd5b9181601f84011215611bda5782359167ffffffffffffffff8311611bda5760208381860195010111611bda57565b60c0810190811067ffffffffffffffff821117611c2957604052565b634e487b7160e01b600052604160045260246000fd5b6020810190811067ffffffffffffffff821117611c2957604052565b6060810190811067ffffffffffffffff821117611c2957604052565b6080810190811067ffffffffffffffff821117611c2957604052565b6040810190811067ffffffffffffffff821117611c2957604052565b90601f601f19910116810190811067ffffffffffffffff821117611c2957604052565b67ffffffffffffffff8111611c2957601f01601f191660200190565b929192611cfa82611cd2565b91611d086040519384611caf565b829481845281830111611bda578281602093846000960137010152565b9080601f83011215611bda57816020611d4093359101611cee565b90565b60005b838110611d565750506000910152565b8181015183820152602001611d46565b90601f19601f602093611d8481518092818752878088019101611d43565b0116010190565b600435906001600160a01b0382168203611bda57565b602435906001600160a01b0382168203611bda57565b67ffffffffffffffff8111611c295760051b60200190565b81601f82011215611bda57803591611de683611db7565b92611df46040519485611caf565b808452602092838086019260051b820101928311611bda578301905b828210611e1e575050505090565b81356001600160a01b0381168103611bda578152908301908301611e10565b81601f82011215611bda57803591611e5483611db7565b92611e626040519485611caf565b808452602092838086019260051b820101928311611bda578301905b828210611e8c575050505090565b81358152908301908301611e7e565b9080601f83011215611bda57813590611eb382611db7565b92611ec16040519485611caf565b828452602092838086019160051b83010192808411611bda57848301915b848310611eef5750505050505090565b823567ffffffffffffffff8111611bda578691611f1184848094890101611d25565b815201920191611edf565b6080600319820112611bda5767ffffffffffffffff91600435838111611bda5782611f4991600401611dcf565b92602435818111611bda5783611f6191600401611e3d565b92604435918211611bda57611f7891600401611e9b565b9060643590565b906020600319830112611bda5760043567ffffffffffffffff92838211611bda5780602383011215611bda578160040135938411611bda5760248460061b83010111611bda576024019190565b90816020910312611bda57516001600160a01b0381168103611bda5790565b9190811015611ffb5760061b0190565b634e487b7160e01b600052603260045260246000fd5b51906001600160a01b0382168203611bda57565b51908115158203611bda57565b90815180825260208080930193019160005b828110612052575050505090565b83516001600160a01b031685529381019392810192600101612044565b90815180825260208080930193019160005b82811061208f575050505090565b835185529381019392810192600101612081565b90815180825260208092019182818360051b85019501936000915b8483106120ce5750505050505090565b90919293949584806120e883856001950387528a51611d66565b98019301930191949392906120be565b9190808252602080920192916000905b828210612116575050505090565b83358552838101358582015260409485019490930192600190910190612108565b805115611ffb5760200190565b8051821015611ffb5760209160051b010190565b909160405161216681611c93565b600181526020928336818401376001600160a01b036006541661218883612137565b526121ef6040519561219987611c93565b600187528536818901376121e16040519384927f2f441500000000000000000000000000000000000000000000000000000000008985015288602485015260448401916120f8565b03601f198101835282611caf565b604051936121fc85611c93565b6001855260005b81811061222557505061221584612137565b5261221f83612137565b50929190565b60608682018301528101612203565b9190820180921161224157565b634e487b7160e01b600052601160045260246000fd5b6001600160a01b03806006541690604091825163975057e760e01b815260209160049083838381845afa9283156123ab5790849160009461238c575b50865193849163f1bea54f60e01b835284830152816024978892165afa91821561238157600092612352575b506122c982611db7565b916122d686519384611caf565b808352601f1994856122e783611db7565b01368686013760005b828110612321575050505090612315611d40939285519583879485015283019061206f565b03908101835282611caf565b600181019081811161233e57612338829187612144565b526122f0565b82601186634e487b7160e01b600052526000fd5b90918382813d831161237a575b6123698183611caf565b810103126102f757505190386122bf565b503d61235f565b85513d6000823e3d90fd5b6123a4919450823d84116102e6576102d78183611caf565b9238612293565b86513d6000823e3d90fd5b6007546000428211156123d5575042810390811161224157600c900490565b905090565b92906124269261243892604051948592612416612403602086019960808b5260a0870190612032565b601f19968787830301604088015261206f565b90858583030160608601526120a3565b90608083015203908101835282611caf565b51902090565b6000908082526001602092818452604090818120600281015460ff81166126575760081c60ff1661264c5761247e9067ffffffffffffffff918291612663565b51168015612609574311156126005784825283865243906124a28585852001612663565b511610156125f8578381526004948581528282208482526124c4848420612663565b506001600160a01b03806006541685519163975057e760e01b835284838b81855afa9283156125ee578592918b9188956125ca575b50906024918951958694859363f1bea54f60e01b8552840152165afa9081156102ed57849161259d575b50851c90633b9aca009182810292818404149015171561258a5790612553826002888b9695015491015490612234565b10159586612572575b50505050505060001461256c5790565b50600390565b8352522090810154905410905038808084818061255c565b60248460118a634e487b7160e01b835252fd5b90508281813d83116125c3575b6125b48183611caf565b81010312610a24575138612523565b503d6125aa565b6024929195506125e690853d87116102e6576102d78183611caf565b9490916124f9565b87513d88823e3d90fd5b505091505090565b50935050505090565b60648785519062461bcd60e51b82526004820152601d60248201527f476f7665726e6f723a20756e6b6e6f776e2070726f706f73616c2069640000006044820152fd5b505050505050600290565b50505050505050600790565b906040516020810167ffffffffffffffff9082811082821117611c2957604052819354169052565b1561269257565b608460405162461bcd60e51b815260206004820152602160248201527f476f7665726e6f723a20696e76616c69642070726f706f73616c206c656e677460448201527f68000000000000000000000000000000000000000000000000000000000000006064820152fd5b91909167ffffffffffffffff8080941691160191821161224157565b60001981146122415760010190565b3d15612752573d9061273882611cd2565b916127466040519384611caf565b82523d6000602084013e565b606090565b9092916000938151820191602081818501940312611bda5760208101519067ffffffffffffffff8211611bda57019180603f84011215611bda57602083015161279f81611db7565b936127ad6040519586611caf565b8185526040602086019260051b820101928311611bda57939493604001905b82821061298a575050508251916000906000946001600160a01b0360065416955b8581106127fd5750505050505050565b6128078183612144565b51938411156129605783604051907fd40e7146000000000000000000000000000000000000000000000000000000008252886004916001600160a01b0387168385015260208460648160249585878301528d60448301525afa9384156129205760009461292c575b5083612888575b5050505061288390612718565b6127ed565b6040517fd31cc52c000000000000000000000000000000000000000000000000000000008152928301528101879052919990916020816044818c5afa908115612920576000916128ec575b506128e19061288393613158565b019890388080612876565b90506020813d602011612918575b8161290760209383611caf565b81010312611bda57516128836128d3565b3d91506128fa565b6040513d6000823e3d90fd5b9093506020813d602011612958575b8161294860209383611caf565b81010312611bda5751923861286f565b3d915061293b565b60046040517f0bdbcd96000000000000000000000000000000000000000000000000000000008152fd5b81518152602091820191016127cc565b929190916000938085526001916020928084526040918288206129bc8561243e565b6008811015612bb9578303612b50578167ffffffffffffffff6129e16129e993612663565b511689612757565b9784815260048652838120906001600160a01b036003830199169889825280885260ff8683205416612ae7579185828695948c8e999895528a52208260ff1982541617905501612a3a858254612234565b90558051612a8f57509181612a89937fb8e138887d0aa13bab447e82de9d5c1777041ecd21ca36ba824ff1e6c07ddda49793519687968752860152840152608060608401526080830190611d66565b0390a290565b9195612a899387612ad9937fe2babfbac5889a709b63bb7f598b324e08bc5a4fb9ec647fb3cbc9ec07eb87129951988998895288015286015260a0606086015260a0850190611d66565b908382036080850152611d66565b60848887519062461bcd60e51b82526004820152602760248201527f476f7665726e6f72566f74696e6753696d706c653a20766f746520616c72656160448201527f64792063617374000000000000000000000000000000000000000000000000006064820152fd5b60848685519062461bcd60e51b82526004820152602360248201527f476f7665726e6f723a20766f7465206e6f742063757272656e746c792061637460448201527f69766500000000000000000000000000000000000000000000000000000000006064820152fd5b60248a634e487b7160e01b81526021600452fd5b939092919360009181835260209260018452604091828220612bee8561243e565b6008811015612d6057600103612b50578167ffffffffffffffff6129e1612c1493612663565b9784835260048652838320926001600160a01b036003850199169889825280885260ff8683205416612ae7578982528752849020805460ff1916600117905588939260ff909116919082612cba57612a3a858254612234565b8051612a8f57509181612a89937fb8e138887d0aa13bab447e82de9d5c1777041ecd21ca36ba824ff1e6c07ddda49793519687968752860152840152608060608401526080830190611d66565b60018303612cd757600101612cd0858254612234565b9055612c6d565b929350909160028303612cf7579060028994939201612cd0858254612234565b60848685519062461bcd60e51b82526004820152603560248201527f476f7665726e6f72566f74696e6753696d706c653a20696e76616c696420766160448201527f6c756520666f7220656e756d20566f74655479706500000000000000000000006064820152fd5b602484634e487b7160e01b81526021600452fd5b90919015612d80575090565b815115612d905750805190602001fd5b612db49060405191829162461bcd60e51b8352602060048401526024830190611d66565b0390fd5b6005811015612ed45780612dc95750565b60018103612e1557606460405162461bcd60e51b815260206004820152601860248201527f45434453413a20696e76616c6964207369676e617475726500000000000000006044820152fd5b60028103612e6157606460405162461bcd60e51b815260206004820152601f60248201527f45434453413a20696e76616c6964207369676e6174757265206c656e677468006044820152fd5b600314612e6a57565b608460405162461bcd60e51b815260206004820152602260248201527f45434453413a20696e76616c6964207369676e6174757265202773272076616c60448201527f75650000000000000000000000000000000000000000000000000000000000006064820152fd5b634e487b7160e01b600052602160045260246000fd5b9291907f7fffffffffffffffffffffffffffffff5d576e7357a4501ddfe92f46681b20a08311612f6d5791608094939160ff602094604051948552168484015260408301526060820152600093849182805260015afa15612f605781516001600160a01b03811615612f5a579190565b50600190565b50604051903d90823e3d90fd5b50505050600090600390565b612f81612fc5565b906040519060208201927f19010000000000000000000000000000000000000000000000000000000000008452602283015260428201526042815261243881611c77565b6001600160a01b037f0000000000000000000000000000000000000000000000000000000000000000163014806130b0575b15613020577f000000000000000000000000000000000000000000000000000000000000000090565b60405160208101907f000000000000000000000000000000000000000000000000000000000000000082527f000000000000000000000000000000000000000000000000000000000000000060408201527f000000000000000000000000000000000000000000000000000000000000000060608201524660808201523060a082015260a0815261243881611c0d565b507f00000000000000000000000000000000000000000000000000000000000000004614612ff7565b67ffffffffffffffff908181116130ee571690565b608460405162461bcd60e51b815260206004820152602660248201527f53616665436173743a2076616c756520646f65736e27742066697420696e203660448201527f34206269747300000000000000000000000000000000000000000000000000006064820152fd5b90633b9aca0090600019838309928083029283808610950394808603951461320c57828510156131d557908291096001821901821680920460028082600302188083028203028083028203028083028203028083028203028083028203028092029003029360018380600003040190848311900302920304170290565b60448584604051917f773cc18c00000000000000000000000000000000000000000000000000000000835260048301526024820152fd5b50508092501561321a570490565b634e487b7160e01b600052601260045260246000fdfea2646970667358221220d7b6c8461595a9d7c2abeedccdd3b52c2df8c6806dcd8734f7086cf4b84a43b664736f6c63430008140033",
    "linkReferences": {}
  },
  "methodIdentifiers": {
    "BALLOT_TYPEHASH()": "deaaa7cc",
    "COUNTING_MODE()": "dd4e2ba5",
    "EXTENDED_BALLOT_TYPEHASH()": "2fe3e261",
    "MAX_VOTING_POWER_TIER()": "4b501fbd",
    "attestToScorecard(uint256)": "19f82536",
    "attestToScorecardWithReasonAndParams(uint256,bytes)": "7c8bd0ed",
    "castVote(uint256,uint8)": "56781388",
    "castVoteBySig(uint256,uint8,uint8,bytes32,bytes32)": "3bccf4fd",
    "castVoteWithReason(uint256,uint8,string)": "7b3c71d3",
    "castVoteWithReasonAndParams(uint256,uint8,string,bytes)": "5f398a14",
    "castVoteWithReasonAndParamsBySig(uint256,uint8,string,bytes,uint8,bytes32,bytes32)": "03420181",
    "codeOrigin()": "1d153ca4",
    "defaultVotingDelegateProposal()": "56e258a5",
    "delegate()": "c89e4361",
    "execute(address[],uint256[],bytes[],bytes32)": "2656227d",
    "getVotes(address,uint256)": "eb9019d4",
    "getVotesWithParams(address,uint256,bytes)": "9a802a6d",
    "hasVoted(uint256,address)": "43859632",
    "hashProposal(address[],uint256[],bytes[],bytes32)": "c59057e4",
    "initialize(address,uint256,uint256)": "7a1ac61e",
    "name()": "06fdde03",
    "onERC1155BatchReceived(address,address,uint256[],uint256[],bytes)": "bc197c81",
    "onERC1155Received(address,address,uint256,uint256,bytes)": "f23a6e61",
    "onERC721Received(address,address,uint256,bytes)": "150b7a02",
    "proposalDeadline(uint256)": "c01f9e37",
    "proposalSnapshot(uint256)": "2d63f693",
    "proposalThreshold()": "b58131b0",
    "proposalVotes(uint256)": "544ffc9c",
    "propose(address[],uint256[],bytes[],string)": "7d5e81e2",
    "quorum(uint256)": "f8ce560a",
    "ratifyScorecard((uint256,uint256)[])": "64d87a61",
    "relay(address,uint256,bytes)": "c28bc2fa",
    "state(uint256)": "3e4f49e6",
    "submitScorecard((uint256,uint256)[])": "d8844e2f",
    "supportsInterface(bytes4)": "01ffc9a7",
    "version()": "54fd4d50",
    "votingDelay()": "3932abb1",
    "votingPeriod()": "02a251a3",
    "votingStartTime()": "2019a608"
  },
  "id": 2
}