{
  "abi": [
    {
      "inputs": [
        {
          "internalType": "contract IERC20Metadata",
          "name": "_token",
          "type": "address"
        },
        {
          "internalType": "uint256",
          "name": "_currency",
          "type": "uint256"
        },
        {
          "internalType": "uint256",
          "name": "_baseWeightCurrency",
          "type": "uint256"
        },
        {
          "internalType": "uint256",
          "name": "_payoutSplitsGroup",
          "type": "uint256"
        },
        {
          "internalType": "contract IJBOperatorStore",
          "name": "_operatorStore",
          "type": "address"
        },
        {
          "internalType": "contract IJBProjects",
          "name": "_projects",
          "type": "address"
        },
        {
          "internalType": "contract IJBDirectory",
          "name": "_directory",
          "type": "address"
        },
        {
          "internalType": "contract IJBSplitsStore",
          "name": "_splitsStore",
          "type": "address"
        },
        {
          "internalType": "contract IJBPrices",
          "name": "_prices",
          "type": "address"
        },
        {
          "internalType": "contract IJBSingleTokenPaymentTerminalStore",
          "name": "_store",
          "type": "address"
        },
        {
          "internalType": "address",
          "name": "_owner",
          "type": "address"
        }
      ],
      "stateMutability": "nonpayable",
      "type": "constructor"
    },
    {
      "inputs": [],
      "name": "FEE_TOO_HIGH",
      "type": "error"
    },
    {
      "inputs": [],
      "name": "INADEQUATE_DISTRIBUTION_AMOUNT",
      "type": "error"
    },
    {
      "inputs": [],
      "name": "INADEQUATE_RECLAIM_AMOUNT",
      "type": "error"
    },
    {
      "inputs": [],
      "name": "INADEQUATE_TOKEN_COUNT",
      "type": "error"
    },
    {
      "inputs": [],
      "name": "NO_MSG_VALUE_ALLOWED",
      "type": "error"
    },
    {
      "inputs": [],
      "name": "PAY_TO_ZERO_ADDRESS",
      "type": "error"
    },
    {
      "inputs": [
        {
          "internalType": "uint256",
          "name": "prod1",
          "type": "uint256"
        },
        {
          "internalType": "uint256",
          "name": "denominator",
          "type": "uint256"
        }
      ],
      "name": "PRBMath__MulDivOverflow",
      "type": "error"
    },
    {
      "inputs": [],
      "name": "PROJECT_TERMINAL_MISMATCH",
      "type": "error"
    },
    {
      "inputs": [],
      "name": "REDEEM_TO_ZERO_ADDRESS",
      "type": "error"
    },
    {
      "inputs": [],
      "name": "TERMINAL_IN_SPLIT_ZERO_ADDRESS",
      "type": "error"
    },
    {
      "inputs": [],
      "name": "TERMINAL_TOKENS_INCOMPATIBLE",
      "type": "error"
    },
    {
      "inputs": [],
      "name": "UNAUTHORIZED",
      "type": "error"
    },
    {
      "anonymous": false,
      "inputs": [
        {
          "indexed": true,
          "internalType": "uint256",
          "name": "projectId",
          "type": "uint256"
        },
        {
          "indexed": false,
          "internalType": "uint256",
          "name": "amount",
          "type": "uint256"
        },
        {
          "indexed": false,
          "internalType": "uint256",
          "name": "refundedFees",
          "type": "uint256"
        },
        {
          "indexed": false,
          "internalType": "string",
          "name": "memo",
          "type": "string"
        },
        {
          "indexed": false,
          "internalType": "bytes",
          "name": "metadata",
          "type": "bytes"
        },
        {
          "indexed": false,
          "internalType": "address",
          "name": "caller",
          "type": "address"
        }
      ],
      "name": "AddToBalance",
      "type": "event"
    },
    {
      "anonymous": false,
      "inputs": [
        {
          "indexed": true,
          "internalType": "contract IJBPayDelegate",
          "name": "delegate",
          "type": "address"
        },
        {
          "components": [
            {
              "internalType": "address",
              "name": "payer",
              "type": "address"
            },
            {
              "internalType": "uint256",
              "name": "projectId",
              "type": "uint256"
            },
            {
              "internalType": "uint256",
              "name": "currentFundingCycleConfiguration",
              "type": "uint256"
            },
            {
              "components": [
                {
                  "internalType": "address",
                  "name": "token",
                  "type": "address"
                },
                {
                  "internalType": "uint256",
                  "name": "value",
                  "type": "uint256"
                },
                {
                  "internalType": "uint256",
                  "name": "decimals",
                  "type": "uint256"
                },
                {
                  "internalType": "uint256",
                  "name": "currency",
                  "type": "uint256"
                }
              ],
              "internalType": "struct JBTokenAmount",
              "name": "amount",
              "type": "tuple"
            },
            {
              "components": [
                {
                  "internalType": "address",
                  "name": "token",
                  "type": "address"
                },
                {
                  "internalType": "uint256",
                  "name": "value",
                  "type": "uint256"
                },
                {
                  "internalType": "uint256",
                  "name": "decimals",
                  "type": "uint256"
                },
                {
                  "internalType": "uint256",
                  "name": "currency",
                  "type": "uint256"
                }
              ],
              "internalType": "struct JBTokenAmount",
              "name": "forwardedAmount",
              "type": "tuple"
            },
            {
              "internalType": "uint256",
              "name": "projectTokenCount",
              "type": "uint256"
            },
            {
              "internalType": "address",
              "name": "beneficiary",
              "type": "address"
            },
            {
              "internalType": "bool",
              "name": "preferClaimedTokens",
              "type": "bool"
            },
            {
              "internalType": "string",
              "name": "memo",
              "type": "string"
            },
            {
              "internalType": "bytes",
              "name": "metadata",
              "type": "bytes"
            }
          ],
          "indexed": false,
          "internalType": "struct JBDidPayData",
          "name": "data",
          "type": "tuple"
        },
        {
          "indexed": false,
          "internalType": "uint256",
          "name": "delegatedAmount",
          "type": "uint256"
        },
        {
          "indexed": false,
          "internalType": "address",
          "name": "caller",
          "type": "address"
        }
      ],
      "name": "DelegateDidPay",
      "type": "event"
    },
    {
      "anonymous": false,
      "inputs": [
        {
          "indexed": true,
          "internalType": "contract IJBRedemptionDelegate",
          "name": "delegate",
          "type": "address"
        },
        {
          "components": [
            {
              "internalType": "address",
              "name": "holder",
              "type": "address"
            },
            {
              "internalType": "uint256",
              "name": "projectId",
              "type": "uint256"
            },
            {
              "internalType": "uint256",
              "name": "currentFundingCycleConfiguration",
              "type": "uint256"
            },
            {
              "internalType": "uint256",
              "name": "projectTokenCount",
              "type": "uint256"
            },
            {
              "components": [
                {
                  "internalType": "address",
                  "name": "token",
                  "type": "address"
                },
                {
                  "internalType": "uint256",
                  "name": "value",
                  "type": "uint256"
                },
                {
                  "internalType": "uint256",
                  "name": "decimals",
                  "type": "uint256"
                },
                {
                  "internalType": "uint256",
                  "name": "currency",
                  "type": "uint256"
                }
              ],
              "internalType": "struct JBTokenAmount",
              "name": "reclaimedAmount",
              "type": "tuple"
            },
            {
              "components": [
                {
                  "internalType": "address",
                  "name": "token",
                  "type": "address"
                },
                {
                  "internalType": "uint256",
                  "name": "value",
                  "type": "uint256"
                },
                {
                  "internalType": "uint256",
                  "name": "decimals",
                  "type": "uint256"
                },
                {
                  "internalType": "uint256",
                  "name": "currency",
                  "type": "uint256"
                }
              ],
              "internalType": "struct JBTokenAmount",
              "name": "forwardedAmount",
              "type": "tuple"
            },
            {
              "internalType": "address payable",
              "name": "beneficiary",
              "type": "address"
            },
            {
              "internalType": "string",
              "name": "memo",
              "type": "string"
            },
            {
              "internalType": "bytes",
              "name": "metadata",
              "type": "bytes"
            }
          ],
          "indexed": false,
          "internalType": "struct JBDidRedeemData",
          "name": "data",
          "type": "tuple"
        },
        {
          "indexed": false,
          "internalType": "uint256",
          "name": "delegatedAmount",
          "type": "uint256"
        },
        {
          "indexed": false,
          "internalType": "address",
          "name": "caller",
          "type": "address"
        }
      ],
      "name": "DelegateDidRedeem",
      "type": "event"
    },
    {
      "anonymous": false,
      "inputs": [
        {
          "indexed": true,
          "internalType": "uint256",
          "name": "fundingCycleConfiguration",
          "type": "uint256"
        },
        {
          "indexed": true,
          "internalType": "uint256",
          "name": "fundingCycleNumber",
          "type": "uint256"
        },
        {
          "indexed": true,
          "internalType": "uint256",
          "name": "projectId",
          "type": "uint256"
        },
        {
          "indexed": false,
          "internalType": "address",
          "name": "beneficiary",
          "type": "address"
        },
        {
          "indexed": false,
          "internalType": "uint256",
          "name": "amount",
          "type": "uint256"
        },
        {
          "indexed": false,
          "internalType": "uint256",
          "name": "distributedAmount",
          "type": "uint256"
        },
        {
          "indexed": false,
          "internalType": "uint256",
          "name": "fee",
          "type": "uint256"
        },
        {
          "indexed": false,
          "internalType": "uint256",
          "name": "beneficiaryDistributionAmount",
          "type": "uint256"
        },
        {
          "indexed": false,
          "internalType": "string",
          "name": "memo",
          "type": "string"
        },
        {
          "indexed": false,
          "internalType": "address",
          "name": "caller",
          "type": "address"
        }
      ],
      "name": "DistributePayouts",
      "type": "event"
    },
    {
      "anonymous": false,
      "inputs": [
        {
          "indexed": true,
          "internalType": "uint256",
          "name": "projectId",
          "type": "uint256"
        },
        {
          "indexed": true,
          "internalType": "uint256",
          "name": "domain",
          "type": "uint256"
        },
        {
          "indexed": true,
          "internalType": "uint256",
          "name": "group",
          "type": "uint256"
        },
        {
          "components": [
            {
              "internalType": "bool",
              "name": "preferClaimed",
              "type": "bool"
            },
            {
              "internalType": "bool",
              "name": "preferAddToBalance",
              "type": "bool"
            },
            {
              "internalType": "uint256",
              "name": "percent",
              "type": "uint256"
            },
            {
              "internalType": "uint256",
              "name": "projectId",
              "type": "uint256"
            },
            {
              "internalType": "address payable",
              "name": "beneficiary",
              "type": "address"
            },
            {
              "internalType": "uint256",
              "name": "lockedUntil",
              "type": "uint256"
            },
            {
              "internalType": "contract IJBSplitAllocator",
              "name": "allocator",
              "type": "address"
            }
          ],
          "indexed": false,
          "internalType": "struct JBSplit",
          "name": "split",
          "type": "tuple"
        },
        {
          "indexed": false,
          "internalType": "uint256",
          "name": "amount",
          "type": "uint256"
        },
        {
          "indexed": false,
          "internalType": "address",
          "name": "caller",
          "type": "address"
        }
      ],
      "name": "DistributeToPayoutSplit",
      "type": "event"
    },
    {
      "anonymous": false,
      "inputs": [
        {
          "indexed": true,
          "internalType": "uint256",
          "name": "projectId",
          "type": "uint256"
        },
        {
          "indexed": true,
          "internalType": "uint256",
          "name": "amount",
          "type": "uint256"
        },
        {
          "indexed": true,
          "internalType": "uint256",
          "name": "fee",
          "type": "uint256"
        },
        {
          "indexed": false,
          "internalType": "uint256",
          "name": "feeDiscount",
          "type": "uint256"
        },
        {
          "indexed": false,
          "internalType": "address",
          "name": "beneficiary",
          "type": "address"
        },
        {
          "indexed": false,
          "internalType": "address",
          "name": "caller",
          "type": "address"
        }
      ],
      "name": "HoldFee",
      "type": "event"
    },
    {
      "anonymous": false,
      "inputs": [
        {
          "indexed": true,
          "internalType": "uint256",
          "name": "projectId",
          "type": "uint256"
        },
        {
          "indexed": true,
          "internalType": "contract IJBPaymentTerminal",
          "name": "to",
          "type": "address"
        },
        {
          "indexed": false,
          "internalType": "uint256",
          "name": "amount",
          "type": "uint256"
        },
        {
          "indexed": false,
          "internalType": "address",
          "name": "caller",
          "type": "address"
        }
      ],
      "name": "Migrate",
      "type": "event"
    },
    {
      "anonymous": false,
      "inputs": [
        {
          "indexed": true,
          "internalType": "address",
          "name": "previousOwner",
          "type": "address"
        },
        {
          "indexed": true,
          "internalType": "address",
          "name": "newOwner",
          "type": "address"
        }
      ],
      "name": "OwnershipTransferred",
      "type": "event"
    },
    {
      "anonymous": false,
      "inputs": [
        {
          "indexed": true,
          "internalType": "uint256",
          "name": "fundingCycleConfiguration",
          "type": "uint256"
        },
        {
          "indexed": true,
          "internalType": "uint256",
          "name": "fundingCycleNumber",
          "type": "uint256"
        },
        {
          "indexed": true,
          "internalType": "uint256",
          "name": "projectId",
          "type": "uint256"
        },
        {
          "indexed": false,
          "internalType": "address",
          "name": "payer",
          "type": "address"
        },
        {
          "indexed": false,
          "internalType": "address",
          "name": "beneficiary",
          "type": "address"
        },
        {
          "indexed": false,
          "internalType": "uint256",
          "name": "amount",
          "type": "uint256"
        },
        {
          "indexed": false,
          "internalType": "uint256",
          "name": "beneficiaryTokenCount",
          "type": "uint256"
        },
        {
          "indexed": false,
          "internalType": "string",
          "name": "memo",
          "type": "string"
        },
        {
          "indexed": false,
          "internalType": "bytes",
          "name": "metadata",
          "type": "bytes"
        },
        {
          "indexed": false,
          "internalType": "address",
          "name": "caller",
          "type": "address"
        }
      ],
      "name": "Pay",
      "type": "event"
    },
    {
      "anonymous": false,
      "inputs": [
        {
          "indexed": true,
          "internalType": "uint256",
          "name": "projectId",
          "type": "uint256"
        },
        {
          "indexed": true,
          "internalType": "uint256",
          "name": "amount",
          "type": "uint256"
        },
        {
          "indexed": true,
          "internalType": "bool",
          "name": "wasHeld",
          "type": "bool"
        },
        {
          "indexed": false,
          "internalType": "address",
          "name": "beneficiary",
          "type": "address"
        },
        {
          "indexed": false,
          "internalType": "address",
          "name": "caller",
          "type": "address"
        }
      ],
      "name": "ProcessFee",
      "type": "event"
    },
    {
      "anonymous": false,
      "inputs": [
        {
          "indexed": true,
          "internalType": "uint256",
          "name": "fundingCycleConfiguration",
          "type": "uint256"
        },
        {
          "indexed": true,
          "internalType": "uint256",
          "name": "fundingCycleNumber",
          "type": "uint256"
        },
        {
          "indexed": true,
          "internalType": "uint256",
          "name": "projectId",
          "type": "uint256"
        },
        {
          "indexed": false,
          "internalType": "address",
          "name": "holder",
          "type": "address"
        },
        {
          "indexed": false,
          "internalType": "address",
          "name": "beneficiary",
          "type": "address"
        },
        {
          "indexed": false,
          "internalType": "uint256",
          "name": "tokenCount",
          "type": "uint256"
        },
        {
          "indexed": false,
          "internalType": "uint256",
          "name": "reclaimedAmount",
          "type": "uint256"
        },
        {
          "indexed": false,
          "internalType": "string",
          "name": "memo",
          "type": "string"
        },
        {
          "indexed": false,
          "internalType": "bytes",
          "name": "metadata",
          "type": "bytes"
        },
        {
          "indexed": false,
          "internalType": "address",
          "name": "caller",
          "type": "address"
        }
      ],
      "name": "RedeemTokens",
      "type": "event"
    },
    {
      "anonymous": false,
      "inputs": [
        {
          "indexed": true,
          "internalType": "uint256",
          "name": "projectId",
          "type": "uint256"
        },
        {
          "indexed": true,
          "internalType": "uint256",
          "name": "amount",
          "type": "uint256"
        },
        {
          "indexed": true,
          "internalType": "uint256",
          "name": "refundedFees",
          "type": "uint256"
        },
        {
          "indexed": false,
          "internalType": "uint256",
          "name": "leftoverAmount",
          "type": "uint256"
        },
        {
          "indexed": false,
          "internalType": "address",
          "name": "caller",
          "type": "address"
        }
      ],
      "name": "RefundHeldFees",
      "type": "event"
    },
    {
      "anonymous": false,
      "inputs": [
        {
          "indexed": false,
          "internalType": "uint256",
          "name": "fee",
          "type": "uint256"
        },
        {
          "indexed": false,
          "internalType": "address",
          "name": "caller",
          "type": "address"
        }
      ],
      "name": "SetFee",
      "type": "event"
    },
    {
      "anonymous": false,
      "inputs": [
        {
          "indexed": true,
          "internalType": "contract IJBFeeGauge",
          "name": "feeGauge",
          "type": "address"
        },
        {
          "indexed": false,
          "internalType": "address",
          "name": "caller",
          "type": "address"
        }
      ],
      "name": "SetFeeGauge",
      "type": "event"
    },
    {
      "anonymous": false,
      "inputs": [
        {
          "indexed": true,
          "internalType": "address",
          "name": "addrs",
          "type": "address"
        },
        {
          "indexed": true,
          "internalType": "bool",
          "name": "flag",
          "type": "bool"
        },
        {
          "indexed": false,
          "internalType": "address",
          "name": "caller",
          "type": "address"
        }
      ],
      "name": "SetFeelessAddress",
      "type": "event"
    },
    {
      "anonymous": false,
      "inputs": [
        {
          "indexed": true,
          "internalType": "uint256",
          "name": "fundingCycleConfiguration",
          "type": "uint256"
        },
        {
          "indexed": true,
          "internalType": "uint256",
          "name": "fundingCycleNumber",
          "type": "uint256"
        },
        {
          "indexed": true,
          "internalType": "uint256",
          "name": "projectId",
          "type": "uint256"
        },
        {
          "indexed": false,
          "internalType": "address",
          "name": "beneficiary",
          "type": "address"
        },
        {
          "indexed": false,
          "internalType": "uint256",
          "name": "amount",
          "type": "uint256"
        },
        {
          "indexed": false,
          "internalType": "uint256",
          "name": "distributedAmount",
          "type": "uint256"
        },
        {
          "indexed": false,
          "internalType": "uint256",
          "name": "netDistributedamount",
          "type": "uint256"
        },
        {
          "indexed": false,
          "internalType": "string",
          "name": "memo",
          "type": "string"
        },
        {
          "indexed": false,
          "internalType": "address",
          "name": "caller",
          "type": "address"
        }
      ],
      "name": "UseAllowance",
      "type": "event"
    },
    {
      "inputs": [
        {
          "internalType": "address",
          "name": "_token",
          "type": "address"
        },
        {
          "internalType": "uint256",
          "name": "_projectId",
          "type": "uint256"
        }
      ],
      "name": "acceptsToken",
      "outputs": [
        {
          "internalType": "bool",
          "name": "",
          "type": "bool"
        }
      ],
      "stateMutability": "view",
      "type": "function"
    },
    {
      "inputs": [
        {
          "internalType": "uint256",
          "name": "_projectId",
          "type": "uint256"
        },
        {
          "internalType": "uint256",
          "name": "_amount",
          "type": "uint256"
        },
        {
          "internalType": "address",
          "name": "_token",
          "type": "address"
        },
        {
          "internalType": "string",
          "name": "_memo",
          "type": "string"
        },
        {
          "internalType": "bytes",
          "name": "_metadata",
          "type": "bytes"
        }
      ],
      "name": "addToBalanceOf",
      "outputs": [],
      "stateMutability": "payable",
      "type": "function"
    },
    {
      "inputs": [],
      "name": "baseWeightCurrency",
      "outputs": [
        {
          "internalType": "uint256",
          "name": "",
          "type": "uint256"
        }
      ],
      "stateMutability": "view",
      "type": "function"
    },
    {
      "inputs": [],
      "name": "currency",
      "outputs": [
        {
          "internalType": "uint256",
          "name": "",
          "type": "uint256"
        }
      ],
      "stateMutability": "view",
      "type": "function"
    },
    {
      "inputs": [
        {
          "internalType": "address",
          "name": "_token",
          "type": "address"
        }
      ],
      "name": "currencyForToken",
      "outputs": [
        {
          "internalType": "uint256",
          "name": "",
          "type": "uint256"
        }
      ],
      "stateMutability": "view",
      "type": "function"
    },
    {
      "inputs": [
        {
          "internalType": "uint256",
          "name": "_projectId",
          "type": "uint256"
        }
      ],
      "name": "currentEthOverflowOf",
      "outputs": [
        {
          "internalType": "uint256",
          "name": "",
          "type": "uint256"
        }
      ],
      "stateMutability": "view",
      "type": "function"
    },
    {
      "inputs": [],
      "name": "decimals",
      "outputs": [
        {
          "internalType": "uint256",
          "name": "",
          "type": "uint256"
        }
      ],
      "stateMutability": "view",
      "type": "function"
    },
    {
      "inputs": [
        {
          "internalType": "address",
          "name": "_token",
          "type": "address"
        }
      ],
      "name": "decimalsForToken",
      "outputs": [
        {
          "internalType": "uint256",
          "name": "",
          "type": "uint256"
        }
      ],
      "stateMutability": "view",
      "type": "function"
    },
    {
      "inputs": [],
      "name": "directory",
      "outputs": [
        {
          "internalType": "contract IJBDirectory",
          "name": "",
          "type": "address"
        }
      ],
      "stateMutability": "view",
      "type": "function"
    },
    {
      "inputs": [
        {
          "internalType": "uint256",
          "name": "_projectId",
          "type": "uint256"
        },
        {
          "internalType": "uint256",
          "name": "_amount",
          "type": "uint256"
        },
        {
          "internalType": "uint256",
          "name": "_currency",
          "type": "uint256"
        },
        {
          "internalType": "address",
          "name": "_token",
          "type": "address"
        },
        {
          "internalType": "uint256",
          "name": "_minReturnedTokens",
          "type": "uint256"
        },
        {
          "internalType": "string",
          "name": "_memo",
          "type": "string"
        }
      ],
      "name": "distributePayoutsOf",
      "outputs": [
        {
          "internalType": "uint256",
          "name": "netLeftoverDistributionAmount",
          "type": "uint256"
        }
      ],
      "stateMutability": "nonpayable",
      "type": "function"
    },
    {
      "inputs": [],
      "name": "fee",
      "outputs": [
        {
          "internalType": "uint256",
          "name": "",
          "type": "uint256"
        }
      ],
      "stateMutability": "view",
      "type": "function"
    },
    {
      "inputs": [],
      "name": "feeGauge",
      "outputs": [
        {
          "internalType": "contract IJBFeeGauge",
          "name": "",
          "type": "address"
        }
      ],
      "stateMutability": "view",
      "type": "function"
    },
    {
      "inputs": [
        {
          "internalType": "uint256",
          "name": "_projectId",
          "type": "uint256"
        }
      ],
      "name": "heldFeesOf",
      "outputs": [
        {
          "components": [
            {
              "internalType": "uint256",
              "name": "amount",
              "type": "uint256"
            },
            {
              "internalType": "uint32",
              "name": "fee",
              "type": "uint32"
            },
            {
              "internalType": "uint32",
              "name": "feeDiscount",
              "type": "uint32"
            },
            {
              "internalType": "address",
              "name": "beneficiary",
              "type": "address"
            }
          ],
          "internalType": "struct JBFee[]",
          "name": "",
          "type": "tuple[]"
        }
      ],
      "stateMutability": "view",
      "type": "function"
    },
    {
      "inputs": [
        {
          "internalType": "address",
          "name": "",
          "type": "address"
        }
      ],
      "name": "isFeelessAddress",
      "outputs": [
        {
          "internalType": "bool",
          "name": "",
          "type": "bool"
        }
      ],
      "stateMutability": "view",
      "type": "function"
    },
    {
      "inputs": [
        {
          "internalType": "uint256",
          "name": "_projectId",
          "type": "uint256"
        },
        {
          "internalType": "contract IJBPaymentTerminal",
          "name": "_to",
          "type": "address"
        }
      ],
      "name": "migrate",
      "outputs": [
        {
          "internalType": "uint256",
          "name": "balance",
          "type": "uint256"
        }
      ],
      "stateMutability": "nonpayable",
      "type": "function"
    },
    {
      "inputs": [],
      "name": "operatorStore",
      "outputs": [
        {
          "internalType": "contract IJBOperatorStore",
          "name": "",
          "type": "address"
        }
      ],
      "stateMutability": "view",
      "type": "function"
    },
    {
      "inputs": [],
      "name": "owner",
      "outputs": [
        {
          "internalType": "address",
          "name": "",
          "type": "address"
        }
      ],
      "stateMutability": "view",
      "type": "function"
    },
    {
      "inputs": [
        {
          "internalType": "uint256",
          "name": "_projectId",
          "type": "uint256"
        },
        {
          "internalType": "uint256",
          "name": "_amount",
          "type": "uint256"
        },
        {
          "internalType": "address",
          "name": "_token",
          "type": "address"
        },
        {
          "internalType": "address",
          "name": "_beneficiary",
          "type": "address"
        },
        {
          "internalType": "uint256",
          "name": "_minReturnedTokens",
          "type": "uint256"
        },
        {
          "internalType": "bool",
          "name": "_preferClaimedTokens",
          "type": "bool"
        },
        {
          "internalType": "string",
          "name": "_memo",
          "type": "string"
        },
        {
          "internalType": "bytes",
          "name": "_metadata",
          "type": "bytes"
        }
      ],
      "name": "pay",
      "outputs": [
        {
          "internalType": "uint256",
          "name": "",
          "type": "uint256"
        }
      ],
      "stateMutability": "payable",
      "type": "function"
    },
    {
      "inputs": [],
      "name": "payoutSplitsGroup",
      "outputs": [
        {
          "internalType": "uint256",
          "name": "",
          "type": "uint256"
        }
      ],
      "stateMutability": "view",
      "type": "function"
    },
    {
      "inputs": [],
      "name": "prices",
      "outputs": [
        {
          "internalType": "contract IJBPrices",
          "name": "",
          "type": "address"
        }
      ],
      "stateMutability": "view",
      "type": "function"
    },
    {
      "inputs": [
        {
          "internalType": "uint256",
          "name": "_projectId",
          "type": "uint256"
        }
      ],
      "name": "processFees",
      "outputs": [],
      "stateMutability": "nonpayable",
      "type": "function"
    },
    {
      "inputs": [],
      "name": "projects",
      "outputs": [
        {
          "internalType": "contract IJBProjects",
          "name": "",
          "type": "address"
        }
      ],
      "stateMutability": "view",
      "type": "function"
    },
    {
      "inputs": [
        {
          "internalType": "address",
          "name": "_holder",
          "type": "address"
        },
        {
          "internalType": "uint256",
          "name": "_projectId",
          "type": "uint256"
        },
        {
          "internalType": "uint256",
          "name": "_tokenCount",
          "type": "uint256"
        },
        {
          "internalType": "address",
          "name": "_token",
          "type": "address"
        },
        {
          "internalType": "uint256",
          "name": "_minReturnedTokens",
          "type": "uint256"
        },
        {
          "internalType": "address payable",
          "name": "_beneficiary",
          "type": "address"
        },
        {
          "internalType": "string",
          "name": "_memo",
          "type": "string"
        },
        {
          "internalType": "bytes",
          "name": "_metadata",
          "type": "bytes"
        }
      ],
      "name": "redeemTokensOf",
      "outputs": [
        {
          "internalType": "uint256",
          "name": "reclaimAmount",
          "type": "uint256"
        }
      ],
      "stateMutability": "nonpayable",
      "type": "function"
    },
    {
      "inputs": [],
      "name": "renounceOwnership",
      "outputs": [],
      "stateMutability": "nonpayable",
      "type": "function"
    },
    {
      "inputs": [
        {
          "internalType": "uint256",
          "name": "_fee",
          "type": "uint256"
        }
      ],
      "name": "setFee",
      "outputs": [],
      "stateMutability": "nonpayable",
      "type": "function"
    },
    {
      "inputs": [
        {
          "internalType": "contract IJBFeeGauge",
          "name": "_feeGauge",
          "type": "address"
        }
      ],
      "name": "setFeeGauge",
      "outputs": [],
      "stateMutability": "nonpayable",
      "type": "function"
    },
    {
      "inputs": [
        {
          "internalType": "address",
          "name": "_address",
          "type": "address"
        },
        {
          "internalType": "bool",
          "name": "_flag",
          "type": "bool"
        }
      ],
      "name": "setFeelessAddress",
      "outputs": [],
      "stateMutability": "nonpayable",
      "type": "function"
    },
    {
      "inputs": [],
      "name": "splitsStore",
      "outputs": [
        {
          "internalType": "contract IJBSplitsStore",
          "name": "",
          "type": "address"
        }
      ],
      "stateMutability": "view",
      "type": "function"
    },
    {
      "inputs": [],
      "name": "store",
      "outputs": [
        {
          "internalType": "contract IJBSingleTokenPaymentTerminalStore",
          "name": "",
          "type": "address"
        }
      ],
      "stateMutability": "view",
      "type": "function"
    },
    {
      "inputs": [
        {
          "internalType": "bytes4",
          "name": "_interfaceId",
          "type": "bytes4"
        }
      ],
      "name": "supportsInterface",
      "outputs": [
        {
          "internalType": "bool",
          "name": "",
          "type": "bool"
        }
      ],
      "stateMutability": "view",
      "type": "function"
    },
    {
      "inputs": [],
      "name": "token",
      "outputs": [
        {
          "internalType": "address",
          "name": "",
          "type": "address"
        }
      ],
      "stateMutability": "view",
      "type": "function"
    },
    {
      "inputs": [
        {
          "internalType": "address",
          "name": "newOwner",
          "type": "address"
        }
      ],
      "name": "transferOwnership",
      "outputs": [],
      "stateMutability": "nonpayable",
      "type": "function"
    },
    {
      "inputs": [
        {
          "internalType": "uint256",
          "name": "_projectId",
          "type": "uint256"
        },
        {
          "internalType": "uint256",
          "name": "_amount",
          "type": "uint256"
        },
        {
          "internalType": "uint256",
          "name": "_currency",
          "type": "uint256"
        },
        {
          "internalType": "address",
          "name": "_token",
          "type": "address"
        },
        {
          "internalType": "uint256",
          "name": "_minReturnedTokens",
          "type": "uint256"
        },
        {
          "internalType": "address payable",
          "name": "_beneficiary",
          "type": "address"
        },
        {
          "internalType": "string",
          "name": "_memo",
          "type": "string"
        }
      ],
      "name": "useAllowanceOf",
      "outputs": [
        {
          "internalType": "uint256",
          "name": "netDistributedAmount",
          "type": "uint256"
        }
      ],
      "stateMutability": "nonpayable",
      "type": "function"
    }
  ],
  "bytecode": {
    "object": "0x6101e080604052346200057b5761016081620064f5803803809162000025828562000580565b8339810103126200057b5780516001600160a01b03811681036200057b576020820151604083015191606084015191608085015160018060a01b03811681036200057b5760a08601516001600160a01b03811681036200057b5760c0870151906001600160a01b03821682036200057b5760e0880151926001600160a01b03841684036200057b57610100890151946001600160a01b03861686036200057b576101208a0151996001600160a01b038b168b036200057b576101400151966001600160a01b03881688036200057b5760405163313ce56760e01b81526020816004816001600160a01b0386165afa9081156200056f5760009162000524575b506001600160a01b0390911660805260ff1660a05260c05260e0526200014a33620005ba565b63017d78406002556101a09687526101c095865261010052610120526101405261016052610180938452600054336001600160a01b0390911603620004e0576001600160a01b038116156200048c57620001a490620005ba565b60405191615ef393846200060285396080518481816103cc0152818161045d0152818161056f01528181610ad301528181610c4101528181611c36015281816123e40152818161260b0152818161287901528181612a8001528181612b8f01528181612f2101528181612fe1015281816130a401528181613637015281816136dc015281816138de015281816139f101528181613f100152818161470c015281816147e30152818161486c0152818161493d01528181614f480152818161501b015281816151f601528181615309015281816156940152818161571001526158fa015260a0518481816103f7015281816104870152818161117c015281816112ad01528181611fcd01528181612411015281816128a501528181612aaa0152818161370801528181613908015281816150470152615220015260c05184818161041d015281816104ad01528181610bf4015281816112dc015281816128ce01528181612ad0015281816137310152818161392e01528181613e14015281816150700152615246015260e05184818161098f01528181610a4201528181611032015281816110d0015281816111fe01528181611804015281816118a401528181611e8c0152611f2a015261010051848181610d8b015281816114970152818161161601528181611bc401526121660152610120518481816106b901528181610d110152818161264401528181612cb0015281816135f301528181613b3f01528181613ed201528181614f7d0152818161542b015261592a01526101405184818161204b0152612231015261016051848181610ccd015261135f0152518381816102c101528181610e3f015281816112790152818161142c01528181611cc0015281816120fa015281816126f40152818161275d01528181612997015281816137fc015281816140290152615127015251828181612008015281816129300152818161379501526150d3015251818181611ae0015281816121e801528181612315015261243f0152f35b60405162461bcd60e51b815260206004820152602660248201527f4f776e61626c653a206e6577206f776e657220697320746865207a65726f206160448201526564647265737360d01b6064820152608490fd5b606460405162461bcd60e51b815260206004820152602060248201527f4f776e61626c653a2063616c6c6572206973206e6f7420746865206f776e65726044820152fd5b6020813d60201162000566575b81620005406020938362000580565b810103126200056257519060ff821682036200055f575060ff62000124565b80fd5b5080fd5b3d915062000531565b6040513d6000823e3d90fd5b600080fd5b601f909101601f19168101906001600160401b03821190821017620005a457604052565b634e487b7160e01b600052604160045260246000fd5b600080546001600160a01b039283166001600160a01b03198216811783559216907f8be0079c531659141344cd1fd0a4f28419497f9722a3daafe3b4186f6b6457e09080a356fe60e080604052600436101561001357600080fd5b60003560e01c90816301ffc9a7146142f8575080630cf8e85814613e375780631982d67914613df35780631ebc263f146135455780632b267b4e1461206f5780632bdfe0041461202b5780632d1a590314611ff0578063313ce56714611fb5578063405b84fa14611b7b578063637913ac14611b0357806366248b8614611ac857806369fe0e2d14611a40578063715018a6146119da5780637258002c1461193c57806389701db5146115db5780638af56094146114bb5780638b79543c146114775780638da5cb5b14611450578063975057e71461140c578063a32e1e9614611222578063ad007d63146111de578063b631b5001461119f578063b7bad1b11461115b578063bc8926e914610d35578063c41c2f2414610cf1578063d3419bf314610cad578063d6dacc5314610c86578063ddca3f4314610c68578063df21a7dd14610c17578063e5a6b10f14610bdc578063f2fde38b14610af7578063fc0c546a14610ab35763fe663f0f1461018a57600080fd5b3461068357610100600319360112610683576101a46144d4565b6101ac6144ea565b506101b561452e565b9060c43567ffffffffffffffff8111610683576101d690369060040161465c565b9060e43567ffffffffffffffff8111610683573660238201121561068357610208903690602481600401359101614625565b926001600160a01b03821633141580610a00575b8061094e575b610924576001600160a01b038116156108fa5760006102a26102b494610246614b61565b5060405195869283927fa2df1f950000000000000000000000000000000000000000000000000000000084526001600160a01b03881660048501526024356024850152604435604485015260a0606485015260a48401906148d3565b600319838203016084840152886148d3565b0381836001600160a01b037f0000000000000000000000000000000000000000000000000000000000000000165af18015610677576000906000946000906000926107d7575b5060843586106107ad57604435610694575b80516103b5575b5061038e6020966103807f2be10f2a0203c77d0fcaa9fd6484a8a1d6904de31cd820587f60c1c8c338c81493886103a5575b6001600160a01b038a870151965197816040519a168a52168a890152604435604089015288606089015260e0608089015260e08801906148d3565b9086820360a08801526148d3565b933360c082015280602435950390a4604051908152f35b6103b0898830614771565b610345565b604051906103c282614558565b6001600160a01b037f0000000000000000000000000000000000000000000000000000000000000000168252600060208301527f000000000000000000000000000000000000000000000000000000000000000060408301527f0000000000000000000000000000000000000000000000000000000000000000606083015260208401519160405161045381614558565b6001600160a01b037f00000000000000000000000000000000000000000000000000000000000000001681528860208201527f000000000000000000000000000000000000000000000000000000000000000060408201527f00000000000000000000000000000000000000000000000000000000000000006060820152604051936104de85614590565b6001600160a01b0389168552602435602086015260408501526044356060850152608084015260a08301526001600160a01b03851660c08301528260e08301528761010083015280519060005b82811061053a57505050610313565b6105448183614b37565b519061055f6001600160a01b03835116602084015190614932565b60009161eeee6001600160a01b037f00000000000000000000000000000000000000000000000000000000000000001614610688575b6020810151602060a088015101526001600160a01b0381511692833b1561068357600090604051948580927f2b13c58f00000000000000000000000000000000000000000000000000000000825260206004830152816105f8602482018d614c69565b03925af192831561067757600193610668575b507f54b3744c489f40987dd2726ca12131243334e8292f567389f761c5a432d813e460206001600160a01b03835116920151604051809160608252610653606083018b614c69565b9060208301523360408301520390a20161052b565b61067190614544565b3861060b565b6040513d6000823e3d90fd5b600080fd5b60208101519250610595565b604051632eec7b5560e11b815260243560048201526020816024816001600160a01b037f0000000000000000000000000000000000000000000000000000000000000000165afa8015610677576001600160a01b039160009161077f575b5016803b15610683576000809160c4604051809481937f1665bc0f0000000000000000000000000000000000000000000000000000000083526001600160a01b038c1660048401526024356024840152604435604484015260a060648401528160a48401528160848401525af1801561067757610770575b5061030c565b61077990614544565b3861076a565b6107a0915060203d81116107a6575b61079881836145e6565b810190614891565b386106f2565b503d61078e565b60046040517ff896960b000000000000000000000000000000000000000000000000000000008152fd5b95505050503d806000853e6107ec81856145e6565b6101808482810103126106835761080581850185614ba6565b610120850151916101408601519567ffffffffffffffff871161068357818101601f88830101121561068357868101519661083f8861469e565b9761084d604051998a6145e6565b808952602089019184840160208360061b8387010101116106835791602083850101925b60208360061b828701010184106108b1575050505061016081015167ffffffffffffffff8111610683576108a89282019101614c27565b909194386102fa565b6040848787010312610683576040516108c981614574565b84516001600160a01b0381168103610683576020938285926040945282880151838201528152019401939150610871565b60046040517ff74a1b66000000000000000000000000000000000000000000000000000000008152fd5b60046040517f075fd2b1000000000000000000000000000000000000000000000000000000008152fd5b5060405163c161c93f60e01b81523360048201526001600160a01b038316602482015260006044820152600260648201526020816084816001600160a01b037f0000000000000000000000000000000000000000000000000000000000000000165afa908115610677576000916109c7575b5015610222565b90506020813d82116109f8575b816109e1602093836145e6565b81010312610683576109f2906146b6565b386109c0565b3d91506109d4565b5060405163c161c93f60e01b81523360048201526001600160a01b03831660248201526024356044820152600260648201526020816084816001600160a01b037f0000000000000000000000000000000000000000000000000000000000000000165afa90811561067757600091610a7a575b501561021c565b90506020813d8211610aab575b81610a94602093836145e6565b8101031261068357610aa5906146b6565b38610a73565b3d9150610a87565b346106835760006003193601126106835760206040516001600160a01b037f0000000000000000000000000000000000000000000000000000000000000000168152f35b3461068357602060031936011261068357610b106144d4565b610b18615acd565b6001600160a01b03809116908115610b72576000548273ffffffffffffffffffffffffffffffffffffffff19821617600055167f8be0079c531659141344cd1fd0a4f28419497f9722a3daafe3b4186f6b6457e0600080a3005b608460405162461bcd60e51b815260206004820152602660248201527f4f776e61626c653a206e6577206f776e657220697320746865207a65726f206160448201527f64647265737300000000000000000000000000000000000000000000000000006064820152fd5b346106835760006003193601126106835760206040517f00000000000000000000000000000000000000000000000000000000000000008152f35b34610683576040600319360112610683576020610c326144d4565b604051906001600160a01b03807f0000000000000000000000000000000000000000000000000000000000000000169116148152f35b34610683576000600319360112610683576020600254604051908152f35b346106835760006003193601126106835760206001600160a01b0360035416604051908152f35b346106835760006003193601126106835760206040516001600160a01b037f0000000000000000000000000000000000000000000000000000000000000000168152f35b346106835760006003193601126106835760206040516001600160a01b037f0000000000000000000000000000000000000000000000000000000000000000168152f35b346106835760e060031936011261068357600435602435610d546144ea565b50610d5d61452e565b9160c43567ffffffffffffffff811161068357610d7e90369060040161465c565b916001600160a01b0393847f00000000000000000000000000000000000000000000000000000000000000001693604051956331a9108f60e11b9283885285600489015260209788816024818b5afa801561067757839160009161113e575b50168033141590816110a0575b81611001575b50610924576040517f25386715000000000000000000000000000000000000000000000000000000008152600481018790526024810186905260448035908201529661014094858960648160007f000000000000000000000000000000000000000000000000000000000000000089165af19889156106775760009660009a610fca575b50506084358910610fa057899060246040518094819382528b60048301525afa938415610677577f8657a0c05a68a912c23c1bd00124afaa8c669063b046bd9bfd22b21d573c5e6d94610f2b92600091610f83575b50600254158015610f6c575b15610f5e57633b9aca005b633b9aca008103610f4c5750506000985b9889039889610f3c575b8a8701519651976040519586951685528b850152604084015288606084015260c0608084015260c08301906148d3565b3360a08301520390a4604051908152f35b610f478a8530614771565b610efb565b610f58918b898c614e1b565b98610ef1565b610f67896158db565b610ee0565b503360005260048b5260ff60406000205416610ed5565b610f9a91508b3d8d116107a65761079881836145e6565b8b610ec9565b60046040517fb01493c1000000000000000000000000000000000000000000000000000000008152fd5b8091929a50610fef939750903d10610ffa575b610fe781836145e6565b810190614d47565b949094978a80610e74565b503d610fdd565b90506040519063c161c93f60e01b8252336004830152602482015260006044820152601160648201528881608481867f0000000000000000000000000000000000000000000000000000000000000000165afa9081156106775760009161106b575b501589610df0565b90508881813d8311611099575b61108281836145e6565b8101031261068357611093906146b6565b89611063565b503d611078565b905060405163c161c93f60e01b8152336004820152816024820152876044820152601160648201528981608481877f0000000000000000000000000000000000000000000000000000000000000000165afa90811561067757600091611109575b501590610dea565b90508981813d8311611137575b61112081836145e6565b8101031261068357611131906146b6565b8a611101565b503d611116565b61115591508a3d8c116107a65761079881836145e6565b8a610ddd565b34610683576020600319360112610683576111746144d4565b5060206040517f00000000000000000000000000000000000000000000000000000000000000008152f35b34610683576020600319360112610683576001600160a01b036111c06144d4565b166000526004602052602060ff604060002054166040519015158152f35b346106835760006003193601126106835760206040516001600160a01b037f0000000000000000000000000000000000000000000000000000000000000000168152f35b3461068357602080600319360112610683576040517fd49031c000000000000000000000000000000000000000000000000000000000815230600482015260043560248201526001600160a01b03908281604481857f0000000000000000000000000000000000000000000000000000000000000000165afa908115610677576000916113df575b507f00000000000000000000000000000000000000000000000000000000000000009081601281036113d05750905b837f000000000000000000000000000000000000000000000000000000000000000091600183146000146113155750505090505b604051908152f35b60646113208261467a565b9360405196879384927fa4d0caf200000000000000000000000000000000000000000000000000000000845260048401526001602484015260448301527f0000000000000000000000000000000000000000000000000000000000000000165afa9182156106775760009261139f575b61139a9350615e45565b61130d565b91508383813d83116113c9575b6113b681836145e6565b810103126106835761139a925191611390565b503d6113ac565b6113d991615a50565b906112d9565b90508281813d8311611405575b6113f681836145e6565b810103126106835751836112aa565b503d6113ec565b346106835760006003193601126106835760206040516001600160a01b037f0000000000000000000000000000000000000000000000000000000000000000168152f35b346106835760006003193601126106835760206001600160a01b0360005416604051908152f35b346106835760006003193601126106835760206040516001600160a01b037f0000000000000000000000000000000000000000000000000000000000000000168152f35b3461068357602080600319360112610683576004356000526001908181526040600020918254916114eb8361469e565b926114f960405194856145e6565b8084528184018095600052826000206000915b838310611583575050505060405192818401908285525180915260408401949160005b82811061153c5785870386f35b8351805188528281015163ffffffff908116848a0152604080830151909116908901526060908101516001600160a01b03169088015260809096019592810192840161152f565b9460028582999760409997995161159981614558565b855481526001600160a01b038587015463ffffffff8082168685015281861c16604084015260401c16606082015281520192019201919096949695939561150c565b34610683576020806003193601126106835760043590604051906331a9108f60e11b82528260048301526001600160a01b03918181602481867f0000000000000000000000000000000000000000000000000000000000000000165afa9081156106775760009161191f575b5082600054163314159081611912575b81611872575b816117d1575b50610924578260005260019283825260406000209081546116838161469e565b9261169160405194856145e6565b8184526000908152848120878686015b8785851061178b57505050505050806000528483526116c36040600020614ab9565b81519360005b8581106116d257005b80876117106116e2829488614b37565b515163ffffffff808a6116f5878c614b37565b51015116906040611706878c614b37565b51015116916158b0565b857fcf0c92a2c6d7c42f488326b0cb900104b99984b6b218db81cd29371364a352516117828786611753828d6117496060948592614b37565b5101511687614f27565b61175d888d614b37565b51015160408051929091166001600160a01b0316825233602083015290918291820190565b0390a4016116c9565b60029160405161179a81614558565b855481528b8587015463ffffffff8082168685015281861c16604084015260401c16606082015281520192019201919088906116a1565b9050826040519163c161c93f60e01b835233600484015216602482015260006044820152600560648201528181608481867f0000000000000000000000000000000000000000000000000000000000000000165afa9081156106775760009161183d575b501584611663565b90508181813d831161186b575b61185481836145e6565b8101031261068357611865906146b6565b84611835565b503d61184a565b905060405163c161c93f60e01b81523360048201528382166024820152846044820152600560648201528281608481877f0000000000000000000000000000000000000000000000000000000000000000165afa908115610677576000916118dd575b50159061165d565b90508281813d831161190b575b6118f481836145e6565b8101031261068357611905906146b6565b856118d5565b503d6118ea565b3384821614159150611657565b6119369150823d84116107a65761079881836145e6565b84611647565b34610683576040600319360112610683576119556144d4565b60243590811515809203610683576001600160a01b0390611974615acd565b1680600052600460205260406000207fffffffffffffffffffffffffffffffffffffffffffffffffffffffffffffff0081541660ff84161790557fa2653e25a502c023a5830d0de847ef6f458387865b1f4f575d7594f9f2c0d71e6020604051338152a3005b34610683576000600319360112610683576119f3615acd565b60006001600160a01b03815473ffffffffffffffffffffffffffffffffffffffff1981168355167f8be0079c531659141344cd1fd0a4f28419497f9722a3daafe3b4186f6b6457e08280a3005b3461068357602060031936011261068357600435611a5c615acd565b6302faf0808111611a9e576002819055604080519182523360208301527fd7414e590e1cb532989ab2a34c8f4c2c17f7ab6f006efeeaef2e87cd5008c20291a1005b60046040517f45fbd9c1000000000000000000000000000000000000000000000000000000008152fd5b346106835760006003193601126106835760206040517f00000000000000000000000000000000000000000000000000000000000000008152f35b34610683576020600319360112610683576004356001600160a01b03811680910361068357611b30615acd565b8073ffffffffffffffffffffffffffffffffffffffff1960035416176003557f0a9a80fe9716605b3e52abb3d792d6a4e7816d6afc02a5a4ef023081feaf9f606020604051338152a2005b34610683576040600319360112610683576004356024356001600160a01b039081811680910361068357604051926331a9108f60e11b84528060048501526020938481602481877f0000000000000000000000000000000000000000000000000000000000000000165afa8015610677578491600091611f98575b5016803314159081611efa575b81611e5b575b50610924576040517fdf21a7dd0000000000000000000000000000000000000000000000000000000081527f00000000000000000000000000000000000000000000000000000000000000006001600160a01b038116600483015260248201839052908581604481875afa90811561067757600091611e26575b5015611dfc57604051937f6bb6a5ad00000000000000000000000000000000000000000000000000000000855282600486015285856024816000857f0000000000000000000000000000000000000000000000000000000000000000165af194851561067757600095611dcd575b5084611d33575b5050604080518481523360208201527fa7519e5f94697b7f53e97c5eb46a0c730a296ab686ab8fd333835c5f735784eb9190a3604051908152f35b61eeee90611d418686614932565b821603611dc55783905b604051611d57816145ca565b60008152843b1561068357611da0926000926040518095819482937f0cf8e8580000000000000000000000000000000000000000000000000000000084528b8a600486016148f8565b0391875af1801561067757611db6575b80611cf8565b611dbf90614544565b84611db0565b600090611d4b565b9094508581813d8311611df5575b611de581836145e6565b8101031261068357519386611cf1565b503d611ddb565b60046040517f581010ed000000000000000000000000000000000000000000000000000000008152fd5b90508581813d8311611e54575b611e3d81836145e6565b8101031261068357611e4e906146b6565b86611c83565b503d611e33565b90506040519063c161c93f60e01b8252336004830152602482015260006044820152600460648201528481608481877f0000000000000000000000000000000000000000000000000000000000000000165afa90811561067757600091611ec5575b501585611c09565b90508481813d8311611ef3575b611edc81836145e6565b8101031261068357611eed906146b6565b85611ebd565b503d611ed2565b905060405163c161c93f60e01b8152336004820152816024820152826044820152600460648201528581608481887f0000000000000000000000000000000000000000000000000000000000000000165afa90811561067757600091611f63575b501590611c03565b90508581813d8311611f91575b611f7a81836145e6565b8101031261068357611f8b906146b6565b86611f5b565b503d611f70565b611faf9150863d88116107a65761079881836145e6565b86611bf6565b346106835760006003193601126106835760206040517f00000000000000000000000000000000000000000000000000000000000000008152f35b346106835760006003193601126106835760206040517f00000000000000000000000000000000000000000000000000000000000000008152f35b346106835760006003193601126106835760206040516001600160a01b037f0000000000000000000000000000000000000000000000000000000000000000168152f35b346106835760c0600319360112610683576120886144ea565b5060a43567ffffffffffffffff8111610683576120a9903690600401614500565b60a0919091526040517fc664459700000000000000000000000000000000000000000000000000000000815260048035908201526024803590820152604480359082015260009161014082606481867f00000000000000000000000000000000000000000000000000000000000000006001600160a01b03165af19182156106775760009060009361351f575b506084358310610fa057604051926331a9108f60e11b845260043560048501526020846024816001600160a01b037f0000000000000000000000000000000000000000000000000000000000000000165afa938415610677576000946134fe575b506002546134ee57633b9aca005b60208301519260006080528296633b9aca0095604051927f69e11cc5000000000000000000000000000000000000000000000000000000008452600084806122257f00000000000000000000000000000000000000000000000000000000000000008b600435600485016040919493926060820195825260208201520152565b03816001600160a01b037f0000000000000000000000000000000000000000000000000000000000000000165afa9384156106775760009461339a575b5060005b845181101561325b576122798186614b37565b51612299604082019a8b5181811460001461324b57508d9b5b51906146c3565b99600060c05280612364575b5090600191612303604051809260c0908051151583526020810151151560208401526040810151604084015260608101516060840152816001600160a01b039182608082015116608086015260a081015160a0860152015116910152565b60c05160e082015233610100820152897f0000000000000000000000000000000000000000000000000000000000000000917f2a1f2df21da49f011c6165709ae4b279f8d6d7cffe9043c582352882d8c9698b61012060043592a401612266565b60c0820151919c92916001600160a01b0316156125dc57633b9aca0088148d81156125b6575b5015612590578060c0525b6123ae8d6001600160a01b0360c0805192015116614932565b604051928360c081011067ffffffffffffffff60c08601111761257a578360c08f950160405261eeee6001600160a01b0360c0817f00000000000000000000000000000000000000000000000000000000000000001697888552815160208601527f0000000000000000000000000000000000000000000000000000000000000000604086015260043560608601527f000000000000000000000000000000000000000000000000000000000000000060808601528060a086015201511695146000146125735760c0515b853b156106835761018460009260a09261254898604051998a9586947f9d740bfa0000000000000000000000000000000000000000000000000000000086526001600160a01b03815116600487015260208101516024870152604081015160448701526060810151606487015260808101516084870152015160a485019060c0908051151583526020810151151560208401526040810151604084015260608101516060840152816001600160a01b039182608082015116608086015260a081015160a0860152015116910152565b5af193841561067757600194612564575b505b039b90916122a5565b61256d90614544565b8e612559565b6000612479565b634e487b7160e01b600052604160045260246000fd5b61259d88600254836158b0565b810360c0526125ae81608051614d67565b608052612395565b6001600160a01b03915060c0015116600052600460205260ff604060002054168d61238a565b60608d01518d90156131e55760600151604051630862026560e41b815260048101919091526001600160a01b037f0000000000000000000000000000000000000000000000000000000000000000166024820152602081806044810103816001600160a01b037f0000000000000000000000000000000000000000000000000000000000000000165afa908115610677576000916131c6575b506001600160a01b0381161561319c576001600160a01b0381163003612ef157508060c05260206040516126a881614574565b8181528136910137604051926004356020850152602084526126c984614574565b60208e01518e90156128055760600151604051946126e6866145ca565b600086526001600160a01b037f0000000000000000000000000000000000000000000000000000000000000000163b15610683576040517fe7c8e3e3000000000000000000000000000000000000000000000000000000008152826004820152846024820152600081604481836001600160a01b037f0000000000000000000000000000000000000000000000000000000000000000165af1968715610677576127e77f9ecaf7fc3dfffd6867c175d6e684b1f1e3aef019398ba8db2c1ffab4a09db253936127d99360019a6127f6575b506040519384938985526000602086015260a0604086015260a08501906148d3565b9083820360608501526148d3565b3360808301520390a25b61255b565b6127ff90614544565b386127b7565b909192936060820151916001600160a01b03608082015116801515600014612ee957905b511515906040519261283a846145ca565b600084526000936001600160a01b03831615612ebf5761298a9061285c614b61565b5060006129776040519261286f84614558565b6001600160a01b037f000000000000000000000000000000000000000000000000000000000000000081168552602085018d81527f000000000000000000000000000000000000000000000000000000000000000060408088019182527f0000000000000000000000000000000000000000000000000000000000000000606089019081529051632fa1b39160e01b8152306004820152885190941660248501529151604484015251606483015251608482015294859283928c60a48501527f000000000000000000000000000000000000000000000000000000000000000060c48501526001600160a01b038a1660e48501526101406101048501526101448401906148d3565b60031983820301610124840152876148d3565b0381836001600160a01b037f0000000000000000000000000000000000000000000000000000000000000000165af19182156106775760009560008092600095612d9b575b5080612c8a575b508151612a6a575b5050508392612a5c7f133161f1c9161488f777ab9a26aae91d47c0d9a3fafb398960f138db02c7379793612a4e6001600160a01b0394602060019e9d9c9b9a9901519751986040519687963088521660208701528c6040870152606086015260e0608086015260e08501906148d3565b9083820360a08501526148d3565b3360c08301520390a461255b565b604051612a7681614558565b6001600160a01b037f00000000000000000000000000000000000000000000000000000000000000001681528b60208201527f000000000000000000000000000000000000000000000000000000000000000060408201527f0000000000000000000000000000000000000000000000000000000000000000606082015260208801519360405194612b07866145ad565b3086528b60208701526040860152606085015260808401528760a08401526001600160a01b03861660c084015260e0830152826101008301528361012083015280519060005b828110612b5a57506129de565b612b648183614b37565b5190612b7f6001600160a01b03835116602084015190614932565b60009161eeee6001600160a01b037f00000000000000000000000000000000000000000000000000000000000000001614612c7e575b60208101516020608088015101526001600160a01b0381511692833b15610683576000906040519485809263da9ee8b760e01b82526020600483015281612bff602482018d6157c8565b03925af192831561067757600193612c6f575b507f16112c26e14efc4be6c690149aa5a1ba75160de245f60d2273e28adb277b9e1260206001600160a01b03835116920151604051809160608252612c5a606083018b6157c8565b9060208301523360408301520390a201612b4d565b612c7890614544565b38612c12565b60208101519250612bb5565b909750604051632eec7b5560e11b81528960048201526020816024816001600160a01b037f0000000000000000000000000000000000000000000000000000000000000000165afa9182156106775760e48b60006001600160a01b038b968e6020978492612d7c575b5082604051998a988997638ae9c07b60e01b89526004890152602488015216604486015260c060648601528360c48601526084850152600160a4850152165af190811561067757600091612d4a575b5096386129d6565b90506020813d602011612d74575b81612d65602093836145e6565b81010312610683575138612d42565b3d9150612d58565b612d94919250883d8a116107a65761079881836145e6565b9038612cf3565b9450509550503d94856000843e612db286846145e6565b61018083878101031261068357612dcb86840184614ba6565b90610120840151966101408501519467ffffffffffffffff861161068357818101601f878301011215610683578581015195612e068761469e565b96612e1460405198896145e6565b8088526020880184840160208360061b85870101011161068357602083850101905b60208360061b85870101018210612e78575050505061016081015167ffffffffffffffff811161068357612e6d9282019101614c27565b9196939193386129cf565b60408287870103126106835760405190612e9182614574565b8251906001600160a01b03821682036106835782602092604094528285015183820152815201910190612e36565b60046040517fa7622513000000000000000000000000000000000000000000000000000000008152fd5b503390612829565b92633b9aca008914801561317b575b15613155578160c0525b612f1f60c0516001600160a01b038616614932565b7f00000000000000000000000000000000000000000000000000000000000000006001600160a01b031661eeee0361314d5760c0518e5b6020604051612f6481614574565b818152813691013760405190600435602083015260208252612f8582614574565b6020810151156130375760600151956001600160a01b0381163b156106835761300e966000936001600160a01b03604051809a819682957f0cf8e8580000000000000000000000000000000000000000000000000000000084527f00000000000000000000000000000000000000000000000000000000000000009060c05190600486016148f8565b0393165af193841561067757600194613028575b5061255b565b61303190614544565b8e613022565b95866020936001600160a01b0360608195979a015181608085015116801515600014613142576130fe90945b51151598604051998a98899788957f1ebc263f000000000000000000000000000000000000000000000000000000008752600487015260c0516024870152817f00000000000000000000000000000000000000000000000000000000000000001660448701521660648501526000608485015260a484015261010060c4840152600061010484015261012060e48401526101248301906148d3565b0393165af1801561067757613117575b5060019261255b565b602090813d831161313b575b61312d81836145e6565b81010312610683578d61310e565b503d613123565b506130fe3394613063565b60008e612f56565b61316289600254846158b0565b820360c05261317382608051614d67565b608052612f0a565b506001600160a01b038416600052600460205260ff60406000205416612f00565b60046040517f69212343000000000000000000000000000000000000000000000000000000008152fd5b6131df915060203d6020116107a65761079881836145e6565b8e612675565b60800151600193906001600160a01b03168015613241576127f1905b633b9aca008b0361321b578360c0525b60c0519030614771565b6132288b600254866158b0565b840360c05261323984608051614d67565b608052613211565b506127f133613201565b613255908b615ce0565b9b612292565b5060209350859089868c60805181633b9aca008403613393575b5082811561338957613295916001600160a01b0386169087600435614e1b565b915b81613330575b5050907f24352f49df447b14e0e08a323625c663d865ce20c343c4638af12e1dc48aa76091878401519351946001600160a01b0360405193168352602435898401526040830152606082015285608082015260e060a08201528460e082015260a05185610100918284013760008187840101523360c083015281601f19601f6004359801168101030190a4604051908152f35b7f24352f49df447b14e0e08a323625c663d865ce20c343c4638af12e1dc48aa760939297509061336661336c92600254836158b0565b906146c3565b95613381876001600160a01b03841630614771565b90918861329d565b5050600091613297565b0181613275565b9093503d806000833e6133ad81836145e6565b60208282810103126106835781519067ffffffffffffffff821161068357808301601f8385010112156106835781830151906133e88261469e565b936133f660405195866145e6565b8285526020850193828201602060e086028385010101116106835793602085830101945b602060e086028285010101861061343857505050505050928a612262565b60e086858501031261068357604051918260e081011067ffffffffffffffff60e08501111761257a5760e08301604052613471876146b6565b835261347f602088016146b6565b6020840152604087015160408401526060808801519084015260808701516001600160a01b038116810361068357608084015260a087015160a084015260c0870151926001600160a01b038416840361068357602060e09282829660c08695015281520197019692505061341a565b6134f96004356158db565b6121a5565b61351891945060203d6020116107a65761079881836145e6565b9285612197565b905061353d9192506101403d61014011610ffa57610fe781836145e6565b919084612136565b6101006003193601126106835761355a6144be565b506135636144ea565b60a4359081151582036106835760c43567ffffffffffffffff811161068357613590903690600401614500565b60e49291923567ffffffffffffffff8111610683576135b3903690600401614500565b6040517f6e49181f0000000000000000000000000000000000000000000000000000000081526004803590820152306024820152909491906020816044817f00000000000000000000000000000000000000000000000000000000000000006001600160a01b03165afa90811561067757600091613db9575b5015613d8f576024357f00000000000000000000000000000000000000000000000000000000000000006001600160a01b031661eeee14613d805734613d56576136a0926136976136979261368a6136826146d0565b913033614771565b6136926146d0565b6146c3565b945b3691614625565b936000936001600160a01b03841615612ebf576137ef906136bf614b61565b5060006137dc604051926136d284614558565b6001600160a01b037f000000000000000000000000000000000000000000000000000000000000000081168552602085018881527f000000000000000000000000000000000000000000000000000000000000000060408088019182527f0000000000000000000000000000000000000000000000000000000000000000606089019081529051632fa1b39160e01b81523360048201528851909416602485015291516044840152516064830152516084820152948592839260043560a48501527f000000000000000000000000000000000000000000000000000000000000000060c48501526001600160a01b038b1660e48501526101406101048501526101448401906148d3565b600319838203016101248401528b6148d3565b0381836001600160a01b037f0000000000000000000000000000000000000000000000000000000000000000165af19182156106775760009360008092600095613c2e575b5080613b16575b506084358810613aec5781516138c8575b5050506138b16020966103807f133161f1c9161488f777ab9a26aae91d47c0d9a3fafb398960f138db02c7379793898601519551966001600160a01b0360405199338b52168b8a0152604089015288606089015260e0608089015260e08801906148d3565b933360c082015280600435950390a4604051908152f35b6040516138d481614558565b6001600160a01b037f00000000000000000000000000000000000000000000000000000000000000001681528660208201527f000000000000000000000000000000000000000000000000000000000000000060408201527f0000000000000000000000000000000000000000000000000000000000000000606082015260208601519360405194613965866145ad565b33865260043560208701526040860152606085015260808401528760a08401526001600160a01b03871660c0840152151560e0830152826101008301528761012083015280519060005b8281106139bc575061384c565b6139c68183614b37565b51906139e16001600160a01b03835116602084015190614932565b60009161eeee6001600160a01b037f00000000000000000000000000000000000000000000000000000000000000001614613ae0575b60208101516020608088015101526001600160a01b0381511692833b15610683576000906040519485809263da9ee8b760e01b82526020600483015281613a61602482018d6157c8565b03925af192831561067757600193613ad1575b507f16112c26e14efc4be6c690149aa5a1ba75160de245f60d2273e28adb277b9e1260206001600160a01b03835116920151604051809160608252613abc606083018b6157c8565b9060208301523360408301520390a2016139af565b613ada90614544565b8c613a74565b60208101519250613a17565b60046040517f7b946126000000000000000000000000000000000000000000000000000000008152fd5b90975060405190632eec7b5560e11b825260043560048301526020826024816001600160a01b037f0000000000000000000000000000000000000000000000000000000000000000165afa80156106775760e460209260006001600160a01b038c948e82988492613c0f575b506040519889978896638ae9c07b60e01b88526004356004890152602488015216604486015260c060648601528360c486015215156084850152600160a4850152165af190811561067757600091613bdd575b50968961383b565b90506020813d602011613c07575b81613bf8602093836145e6565b81010312610683575189613bd5565b3d9150613beb565b613c27919250883d8a116107a65761079881836145e6565b9038613b82565b9450509350503d92836000843e613c4584846145e6565b61018083858101031261068357613c5e84840184614ba6565b90610120840151946101408501519467ffffffffffffffff861161068357818101601f878301011215610683578581015195613c998761469e565b96613ca760405198896145e6565b808852602088019184840160208360061b8387010101116106835791602083850101925b60208360061b82870101018410613d0d575050505061016081015167ffffffffffffffff811161068357613d029282019101614c27565b91949391938a613834565b604084878701031261068357604051613d2581614574565b84516001600160a01b0381168103610683576020938285926040945282880151838201528152019401939150613ccb565b60046040517fbcfd35be000000000000000000000000000000000000000000000000000000008152fd5b506136976136a0923494613699565b60046040517fd8ead2c8000000000000000000000000000000000000000000000000000000008152fd5b90506020813d602011613deb575b81613dd4602093836145e6565b8101031261068357613de5906146b6565b8761362c565b3d9150613dc7565b3461068357602060031936011261068357613e0c6144d4565b5060206040517f00000000000000000000000000000000000000000000000000000000000000008152f35b60a060031936011261068357600435613e4e6144be565b5067ffffffffffffffff60643581811161068357613e70903690600401614500565b9160843590811161068357613e89903690600401614500565b6040517f6e49181f000000000000000000000000000000000000000000000000000000008152600481018690523060248201526001600160a01b039460209493909185816044817f00000000000000000000000000000000000000000000000000000000000000008b165afa908115610677576000916142c3575b5015613d8f57602435907f0000000000000000000000000000000000000000000000000000000000000000871661eeee146142b45734613d5657613f6f613f53613f779361368a6136826146d0565b955b336000526004885260ff6040600020541615943691614625565b933691614625565b90156142ac57600086600052808488600180895260406000209081548b613f9d8261469e565b93613fab60405195866145e6565b8285528c8501906000528c80600020916000935b8585106142525750505050505082600052808a52613fe06040600020614ab9565b8151849260005b828110614107575050604080519384523360208501527f59860d79d97c1fce2be7f987915c631471f4b08f671200463cc40a3380194ffb939092509050a4945b7f000000000000000000000000000000000000000000000000000000000000000016916140548685614d67565b833b15610683576000936044859260405196879384927fe7c8e3e30000000000000000000000000000000000000000000000000000000084528d600485015260248401525af1908115610677577f9ecaf7fc3dfffd6867c175d6e684b1f1e3aef019398ba8db2c1ffab4a09db253966140ed946127d9936140f8575b50604051968796875286015260a0604086015260a08501906148d3565b3360808301520390a2005b61410190614544565b896140d0565b929550929550925084156000146141495783908c600052818b5261413a60406000206141338386614b37565b5190614d74565b01919288938695928d94613fe7565b94936141558683614b37565b515181106141a65783906141698784614b37565b515190039461419f61417b8885614b37565b515163ffffffff808e61418e8c89614b37565b510151169060406117068c89614b37565b019561413a565b614247908c60009796939752848b528b61422a8c6040600020846141ca8b8d614b37565b515103918a8c63ffffffff9687846141e28585614b37565b51015116908860406141f48686614b37565b51015116926142066060958692614b37565b51015116936040519661421888614558565b87528601526040850152830152614d74565b808c614236898b614b37565b51015116906040611706898b614b37565b01938260009461413a565b909192959850600293969950889497506040519061426f82614558565b865482528587015463ffffffff8082168685015281861c16604084015260401c16606082015281520192019201928c938796938c8c97948f613fbf565b600094614027565b613f779150613f6f3495613f55565b90508581813d83116142f1575b6142da81836145e6565b81010312610683576142eb906146b6565b88613f04565b503d6142d0565b3461068357602060031936011261068357600435907fffffffff00000000000000000000000000000000000000000000000000000000821680920361068357817fedb527eb0000000000000000000000000000000000000000000000000000000060209314908115614494575b811561446a575b8115614440575b8115614416575b8115614388575b5015158152f35b7fc07370e4000000000000000000000000000000000000000000000000000000008114915081156143ec575b81156143c2575b5083614381565b7f01ffc9a700000000000000000000000000000000000000000000000000000000915014836143bb565b7f2896000200000000000000000000000000000000000000000000000000000000811491506143b4565b7fad007d63000000000000000000000000000000000000000000000000000000008114915061437a565b7ffe663f0f0000000000000000000000000000000000000000000000000000000081149150614373565b7fbc8926e9000000000000000000000000000000000000000000000000000000008114915061436c565b7f2b267b4e0000000000000000000000000000000000000000000000000000000081149150614365565b604435906001600160a01b038216820361068357565b600435906001600160a01b038216820361068357565b606435906001600160a01b038216820361068357565b9181601f840112156106835782359167ffffffffffffffff8311610683576020838186019501011161068357565b60a435906001600160a01b038216820361068357565b67ffffffffffffffff811161257a57604052565b6080810190811067ffffffffffffffff82111761257a57604052565b6040810190811067ffffffffffffffff82111761257a57604052565b610120810190811067ffffffffffffffff82111761257a57604052565b610140810190811067ffffffffffffffff82111761257a57604052565b6020810190811067ffffffffffffffff82111761257a57604052565b90601f601f19910116810190811067ffffffffffffffff82111761257a57604052565b67ffffffffffffffff811161257a57601f01601f191660200190565b92919261463182614609565b9161463f60405193846145e6565b829481845281830111610683578281602093846000960137010152565b9080601f830112156106835781602061467793359101614625565b90565b604d811161468857600a0a90565b634e487b7160e01b600052601160045260246000fd5b67ffffffffffffffff811161257a5760051b60200190565b5190811515820361068357565b9190820391821161468857565b6040517f70a082310000000000000000000000000000000000000000000000000000000081523060048201526020816024816001600160a01b037f0000000000000000000000000000000000000000000000000000000000000000165afa90811561067757600091614740575090565b906020823d8211614769575b81614759602093836145e6565b8101031261476657505190565b80fd5b3d915061474c565b90916001600160a01b0391821630810361480a57506040517fa9059cbb0000000000000000000000000000000000000000000000000000000060208201529282166001600160a01b03166024840152604483015261480891906147e182606481015b03601f1981018452836145e6565b7f000000000000000000000000000000000000000000000000000000000000000016615b25565b565b918093604051937f23b872dd000000000000000000000000000000000000000000000000000000006020860152602485015216604483015260648201526064815260a081019181831067ffffffffffffffff84111761257a57614808926040527f000000000000000000000000000000000000000000000000000000000000000016615b25565b9081602091031261068357516001600160a01b03811681036106835790565b60005b8381106148c35750506000910152565b81810151838201526020016148b3565b90601f19601f6020936148f1815180928187528780880191016148b0565b0116010190565b90614677949360c0936001600160a01b03928452602084015216604082015260a06060820152600060a082015281608082015201906148d3565b906001600160a01b037f00000000000000000000000000000000000000000000000000000000000000001681158015614a2d575b156149c3576040517f095ea7b30000000000000000000000000000000000000000000000000000000060208201526001600160a01b039093166024840152604483019190915261480891906149be82606481016147d3565b615b25565b608460405162461bcd60e51b815260206004820152603660248201527f5361666545524332303a20617070726f76652066726f6d206e6f6e2d7a65726f60448201527f20746f206e6f6e2d7a65726f20616c6c6f77616e6365000000000000000000006064820152fd5b506040517fdd62ed3e0000000000000000000000000000000000000000000000000000000081523060048201526001600160a01b0384166024820152602081604481855afa90811561067757600091614a88575b5015614966565b906020823d8211614ab1575b81614aa1602093836145e6565b8101031261476657505138614a81565b3d9150614a94565b80549060009081815582614acc57505050565b7f7fffffffffffffffffffffffffffffffffffffffffffffffffffffffffffffff83168303614b235781526020812091600190811b8301925b838110614b125750505050565b808360029255838382015501614b05565b602482634e487b7160e01b81526011600452fd5b8051821015614b4b5760209160051b010190565b634e487b7160e01b600052603260045260246000fd5b60405190614b6e82614590565b816101006000918281528260208201528260408201528260608201528260808201528260a08201528260c08201528260e08201520152565b91908261012091031261068357604051614bbf81614590565b8092805182526020810151602083015260408101516040830152606081015160608301526080810151608083015260a081015160a083015260c081015160c083015260e08101516001600160a01b03811681036106835760e083015261010080910151910152565b81601f82011215610683578051614c3d81614609565b92614c4b60405194856145e6565b818452602082840101116106835761467791602080850191016148b0565b614677916001600160a01b03808351168252602083015160208301526040830151604083015260608301516060830152614cd260808401516080840190606080916001600160a01b03815116845260208101516020850152604081015160408501520151910152565b60a083015190614d0f6101009283850190606080916001600160a01b03815116845260208101516020850152604081015160408501520151910152565b60c084015116610180830152614d3560e08401516101e0806101a08601528401906148d3565b920151906101c08184039101526148d3565b91906101408382031261068357614d616101209184614ba6565b92015190565b9190820180921161468857565b80546801000000000000000081101561257a5760018101808355811015614b4b57600191600052602060002090821b0182518155019063ffffffff602082015116908254917fffffffff000000000000000000000000000000000000000000000000000000007bffffffffffffffffffffffffffffffffffffffff0000000000000000606067ffffffff00000000604086015160201b1694015160401b1693161717179055565b90936101009594600180614e3284600254886158b0565b9889930151604f1c1614600014614ece575060607f77813be0661650ddc1a5193ff2837df4162b251cb432651e2c060c3fc39756be91836000526001602052614eb66040600020966001600160a01b0363ffffffff9182600254169260405193614e9b85614558565b8a855260208501528516604084015216978885830152614d74565b600254956040519182526020820152336040820152a4565b9250507fcf0c92a2c6d7c42f488326b0cb900104b99984b6b218db81cd29371364a35251614f2284614f0260009686614f27565b604080516001600160a01b03909216825233602083015290918291820190565b0390a4565b919091604051630862026560e41b8152600160048201526001600160a01b037f00000000000000000000000000000000000000000000000000000000000000001660248201526020816044816001600160a01b037f0000000000000000000000000000000000000000000000000000000000000000165afa8015610677576001600160a01b03916000916157a9575b50163081036156785750604051614fcc816145ca565b6000815260405190614fdd826145ca565b600082526000916001600160a01b03861615612ebf5761511a92614fff614b61565b50806129776040519361501185614558565b6001600160a01b037f000000000000000000000000000000000000000000000000000000000000000081168652602086018981527f000000000000000000000000000000000000000000000000000000000000000060408089019182527f000000000000000000000000000000000000000000000000000000000000000060608a019081529051632fa1b39160e01b815230600482015289519094166024850152915160448401525160648301525160848201529687928392600160a48501527f000000000000000000000000000000000000000000000000000000000000000060c48501526001600160a01b038d1660e48501526101406101048501526101448401906148d3565b0381836001600160a01b037f0000000000000000000000000000000000000000000000000000000000000000165af191821561566b5781948283918495615530575b5080615404575b5080516151e0575b5050956151d57f133161f1c9161488f777ab9a26aae91d47c0d9a3fafb398960f138db02c7379793612a4e6001600160a01b03946001999a60208901519851996040519788973089521660208801526040870152606086015260e0608086015260e08501906148d3565b3360c08301520390a4565b6040516151ec81614558565b6001600160a01b037f00000000000000000000000000000000000000000000000000000000000000001681528760208201527f000000000000000000000000000000000000000000000000000000000000000060408201527f000000000000000000000000000000000000000000000000000000000000000060608201526020870151926040519361527d856145ad565b308552600160208601526040850152606084015260808301528260a08301526001600160a01b03891660c0830152600060e0830152836101008301528461012083015280519060005b8281106152d457505061516b565b6152de8183614b37565b51906152f96001600160a01b03835116602084015190614932565b60009161eeee6001600160a01b037f000000000000000000000000000000000000000000000000000000000000000016146153f8575b60208101516020608088015101526001600160a01b0381511692833b15610683576000906040519485809263da9ee8b760e01b82526020600483015281615379602482018d6157c8565b03925af1928315610677576001936153e9575b507f16112c26e14efc4be6c690149aa5a1ba75160de245f60d2273e28adb277b9e1260206001600160a01b038351169201516040518091606082526153d4606083018b6157c8565b9060208301523360408301520390a2016152c6565b6153f290614544565b3861538c565b6020810151925061532f565b604093919351632eec7b5560e11b8152600160048201526020816024816001600160a01b037f0000000000000000000000000000000000000000000000000000000000000000165afa9081156155255760e46001600160a01b039385858f94956020968391615508575b506040519788968795638ae9c07b60e01b875260016004880152602487015216604485015260c060648501528260c4850152826084850152600160a4850152165af19182156154fc5780926154c7575b50509138615163565b9091506020823d6020116154f4575b816154e3602093836145e6565b8101031261476657505138806154be565b3d91506154d6565b604051903d90823e3d90fd5b61551f9150873d89116107a65761079881836145e6565b3861546e565b6040513d85823e3d90fd5b9650505091503d918282863e61554683866145e6565b6101808584810103126156675761555f83860186614ba6565b610120860151956101408101519467ffffffffffffffff861161566357808201601f8784010112156156635785820151956155998761469e565b966155a760405198896145e6565b808852602088019183850160208360061b83880101011161565f57602081860101925b60208360061b8388010101841061561257505050506101608201519067ffffffffffffffff821161560e57615603929081019101614c27565b90959390933861515c565b8580fd5b604084868801031261565b5760405161562a81614574565b84516001600160a01b038116810361565757815260208581015181830152908252604090940193016155ca565b8a80fd5b8880fd5b8780fd5b8480fd5b5080fd5b50604051903d90823e3d90fd5b808293946156906020946001600160a01b0394614932565b60007f0000000000000000000000000000000000000000000000000000000000000000841661eeee036157a45750845b604051956156cd876145ca565b6000875261576c604051978896879586947f1ebc263f000000000000000000000000000000000000000000000000000000008652600160048701526024860152817f000000000000000000000000000000000000000000000000000000000000000016604486015216606484015260006084840152600060a484015261010060c4840152600061010484015261012060e48401526101248301906148d3565b03925af180156106775761577d5750565b602090813d831161579d575b61579381836145e6565b8101031261068357565b503d615789565b6156c0565b6157c2915060203d6020116107a65761079881836145e6565b38614fb6565b614677916001600160a01b03808351168252602083015160208301526040830151604083015261582760608401516060840190606080916001600160a01b03815116845260208101516020850152604081015160408501520151910152565b608083015180516001600160a01b031660e0840152602081015161010084015260408101516101208401526060015161014083015260a083015161016083015260c08301511661018082015260e082015115156101a082015261012061589e610100840151610200806101c08601528401906148d3565b920151906101e08184039101526148d3565b91906133666158bf9282615ce0565b90633b9aca008201809211614688576133666146779282615d85565b604051630862026560e41b8152600160048201526001600160a01b03807f00000000000000000000000000000000000000000000000000000000000000001660248301526020918281604481857f0000000000000000000000000000000000000000000000000000000000000000165afa8015610677578291600091615a13575b501615615a0857600354169182615976575b505050600090565b81906024604051809581937f7769589600000000000000000000000000000000000000000000000000000000835260048301525afa9182916000936159d7575b50506159c25750600090565b633b9aca00811115614677575038808061596e565b8181949293943d8311615a01575b6159ef81836145e6565b810103126147665750519038806159b6565b503d6159e5565b505050633b9aca0090565b615a2a9150843d86116107a65761079881836145e6565b3861595c565b8115615a3a570490565b634e487b7160e01b600052601260045260246000fd5b9060128103615a5d575090565b80601211600014615a90576012036012811161468857615a7c9061467a565b908181029181830414901517156146885790565b907fffffffffffffffffffffffffffffffffffffffffffffffffffffffffffffffee820191821161468857615ac76146779261467a565b90615a30565b6001600160a01b03600054163303615ae157565b606460405162461bcd60e51b815260206004820152602060248201527f4f776e61626c653a2063616c6c6572206973206e6f7420746865206f776e65726044820152fd5b6001600160a01b031690615ba3604051615b3e81614574565b6020938482527f5361666545524332303a206c6f772d6c6576656c2063616c6c206661696c6564858301526000808587829751910182855af13d15615c40573d91615b8883614609565b92615b9660405194856145e6565b83523d868885013e615c44565b90815180615bb2575b50505050565b82849181010312614766575081615bc991016146b6565b15615bd657808080615bac565b6084906040519062461bcd60e51b82526004820152602a60248201527f5361666545524332303a204552433230206f7065726174696f6e20646964206e60448201527f6f742073756363656564000000000000000000000000000000000000000000006064820152fd5b6060915b91929015615ca55750815115615c58575090565b3b15615c615790565b606460405162461bcd60e51b815260206004820152601d60248201527f416464726573733a2063616c6c20746f206e6f6e2d636f6e74726163740000006044820152fd5b825190915015615cb85750805190602001fd5b615cdc9060405191829162461bcd60e51b83526020600484015260248301906148d3565b0390fd5b919060001981840981840291828083109203918083039214615d7857633b9aca009081831015615d41577f88f2cfb83100cb4e69e7c79c58b316e597157d372fb9787e8e47ce423a2e9c6d94950990828211900360f71b910360091c170290565b60448383604051917f773cc18c00000000000000000000000000000000000000000000000000000000835260048301526024820152fd5b5050633b9aca0090049150565b633b9aca00916000198383099280830292838086109503948086039514615e385782851015615e0157908291096001821901821680920460028082600302188083028203028083028203028083028203028083028203028083028203028092029003029360018380600003040190848311900302920304170290565b60448584604051917f773cc18c00000000000000000000000000000000000000000000000000000000835260048301526024820152fd5b5050906146779250615a30565b90916000198383099280830292838086109503948086039514615e385782851015615e015790829109600182190182168092046002808260030218808302820302808302820302808302820302808302820302808302820302809202900302936001838060000304019084831190030292030417029056fea26469706673582212206cc57bc6eb8e217b721e66e56f2d5284a7f627605f58c723f95fa2b1a8e76e6964736f6c63430008140033",
    "linkReferences": {}
  },
  "methodIdentifiers": {
    "acceptsToken(address,uint256)": "df21a7dd",
    "addToBalanceOf(uint256,uint256,address,string,bytes)": "0cf8e858",
    "baseWeightCurrency()": "2d1a5903",
    "currency()": "e5a6b10f",
    "currencyForToken(address)": "1982d679",
    "currentEthOverflowOf(uint256)": "a32e1e96",
    "decimals()": "313ce567",
    "decimalsForToken(address)": "b7bad1b1",
    "directory()": "c41c2f24",
    "distributePayoutsOf(uint256,uint256,uint256,address,uint256,string)": "2b267b4e",
    "fee()": "ddca3f43",
    "feeGauge()": "d6dacc53",
    "heldFeesOf(uint256)": "8af56094",
    "isFeelessAddress(address)": "b631b500",
    "migrate(uint256,address)": "405b84fa",
    "operatorStore()": "ad007d63",
    "owner()": "8da5cb5b",
    "pay(uint256,uint256,address,address,uint256,bool,string,bytes)": "1ebc263f",
    "payoutSplitsGroup()": "66248b86",
    "prices()": "d3419bf3",
    "processFees(uint256)": "89701db5",
    "projects()": "8b79543c",
    "redeemTokensOf(address,uint256,uint256,address,uint256,address,string,bytes)": "fe663f0f",
    "renounceOwnership()": "715018a6",
    "setFee(uint256)": "69fe0e2d",
    "setFeeGauge(address)": "637913ac",
    "setFeelessAddress(address,bool)": "7258002c",
    "splitsStore()": "2bdfe004",
    "store()": "975057e7",
    "supportsInterface(bytes4)": "01ffc9a7",
    "token()": "fc0c546a",
    "transferOwnership(address)": "f2fde38b",
    "useAllowanceOf(uint256,uint256,uint256,address,uint256,address,string)": "bc8926e9"
  },
  "id": 69
}