{
  "abi": [
    {
      "inputs": [
        {
          "internalType": "contract IERC20Metadata",
          "name": "_token",
          "type": "address"
        },
        {
          "internalType": "uint256",
          "name": "_currency",
          "type": "uint256"
        },
        {
          "internalType": "uint256",
          "name": "_baseWeightCurrency",
          "type": "uint256"
        },
        {
          "internalType": "uint256",
          "name": "_payoutSplitsGroup",
          "type": "uint256"
        },
        {
          "internalType": "contract IJBOperatorStore",
          "name": "_operatorStore",
          "type": "address"
        },
        {
          "internalType": "contract IJBProjects",
          "name": "_projects",
          "type": "address"
        },
        {
          "internalType": "contract IJBDirectory",
          "name": "_directory",
          "type": "address"
        },
        {
          "internalType": "contract IJBSplitsStore",
          "name": "_splitsStore",
          "type": "address"
        },
        {
          "internalType": "contract IJBPrices",
          "name": "_prices",
          "type": "address"
        },
        {
          "internalType": "contract IJBSingleTokenPaymentTerminalStore",
          "name": "_store",
          "type": "address"
        },
        {
          "internalType": "address",
          "name": "_owner",
          "type": "address"
        }
      ],
      "stateMutability": "nonpayable",
      "type": "constructor"
    },
    {
      "inputs": [],
      "name": "FEE_TOO_HIGH",
      "type": "error"
    },
    {
      "inputs": [],
      "name": "INADEQUATE_DISTRIBUTION_AMOUNT",
      "type": "error"
    },
    {
      "inputs": [],
      "name": "INADEQUATE_RECLAIM_AMOUNT",
      "type": "error"
    },
    {
      "inputs": [],
      "name": "INADEQUATE_TOKEN_COUNT",
      "type": "error"
    },
    {
      "inputs": [],
      "name": "NO_MSG_VALUE_ALLOWED",
      "type": "error"
    },
    {
      "inputs": [],
      "name": "PAY_TO_ZERO_ADDRESS",
      "type": "error"
    },
    {
      "inputs": [
        {
          "internalType": "uint256",
          "name": "prod1",
          "type": "uint256"
        },
        {
          "internalType": "uint256",
          "name": "denominator",
          "type": "uint256"
        }
      ],
      "name": "PRBMath__MulDivOverflow",
      "type": "error"
    },
    {
      "inputs": [],
      "name": "PROJECT_TERMINAL_MISMATCH",
      "type": "error"
    },
    {
      "inputs": [],
      "name": "REDEEM_TO_ZERO_ADDRESS",
      "type": "error"
    },
    {
      "inputs": [],
      "name": "TERMINAL_IN_SPLIT_ZERO_ADDRESS",
      "type": "error"
    },
    {
      "inputs": [],
      "name": "TERMINAL_TOKENS_INCOMPATIBLE",
      "type": "error"
    },
    {
      "inputs": [],
      "name": "UNAUTHORIZED",
      "type": "error"
    },
    {
      "anonymous": false,
      "inputs": [
        {
          "indexed": true,
          "internalType": "uint256",
          "name": "projectId",
          "type": "uint256"
        },
        {
          "indexed": false,
          "internalType": "uint256",
          "name": "amount",
          "type": "uint256"
        },
        {
          "indexed": false,
          "internalType": "uint256",
          "name": "refundedFees",
          "type": "uint256"
        },
        {
          "indexed": false,
          "internalType": "string",
          "name": "memo",
          "type": "string"
        },
        {
          "indexed": false,
          "internalType": "bytes",
          "name": "metadata",
          "type": "bytes"
        },
        {
          "indexed": false,
          "internalType": "address",
          "name": "caller",
          "type": "address"
        }
      ],
      "name": "AddToBalance",
      "type": "event"
    },
    {
      "anonymous": false,
      "inputs": [
        {
          "indexed": true,
          "internalType": "contract IJBPayDelegate",
          "name": "delegate",
          "type": "address"
        },
        {
          "components": [
            {
              "internalType": "address",
              "name": "payer",
              "type": "address"
            },
            {
              "internalType": "uint256",
              "name": "projectId",
              "type": "uint256"
            },
            {
              "internalType": "uint256",
              "name": "currentFundingCycleConfiguration",
              "type": "uint256"
            },
            {
              "components": [
                {
                  "internalType": "address",
                  "name": "token",
                  "type": "address"
                },
                {
                  "internalType": "uint256",
                  "name": "value",
                  "type": "uint256"
                },
                {
                  "internalType": "uint256",
                  "name": "decimals",
                  "type": "uint256"
                },
                {
                  "internalType": "uint256",
                  "name": "currency",
                  "type": "uint256"
                }
              ],
              "internalType": "struct JBTokenAmount",
              "name": "amount",
              "type": "tuple"
            },
            {
              "components": [
                {
                  "internalType": "address",
                  "name": "token",
                  "type": "address"
                },
                {
                  "internalType": "uint256",
                  "name": "value",
                  "type": "uint256"
                },
                {
                  "internalType": "uint256",
                  "name": "decimals",
                  "type": "uint256"
                },
                {
                  "internalType": "uint256",
                  "name": "currency",
                  "type": "uint256"
                }
              ],
              "internalType": "struct JBTokenAmount",
              "name": "forwardedAmount",
              "type": "tuple"
            },
            {
              "internalType": "uint256",
              "name": "projectTokenCount",
              "type": "uint256"
            },
            {
              "internalType": "address",
              "name": "beneficiary",
              "type": "address"
            },
            {
              "internalType": "bool",
              "name": "preferClaimedTokens",
              "type": "bool"
            },
            {
              "internalType": "string",
              "name": "memo",
              "type": "string"
            },
            {
              "internalType": "bytes",
              "name": "metadata",
              "type": "bytes"
            }
          ],
          "indexed": false,
          "internalType": "struct JBDidPayData",
          "name": "data",
          "type": "tuple"
        },
        {
          "indexed": false,
          "internalType": "uint256",
          "name": "delegatedAmount",
          "type": "uint256"
        },
        {
          "indexed": false,
          "internalType": "address",
          "name": "caller",
          "type": "address"
        }
      ],
      "name": "DelegateDidPay",
      "type": "event"
    },
    {
      "anonymous": false,
      "inputs": [
        {
          "indexed": true,
          "internalType": "contract IJBRedemptionDelegate",
          "name": "delegate",
          "type": "address"
        },
        {
          "components": [
            {
              "internalType": "address",
              "name": "holder",
              "type": "address"
            },
            {
              "internalType": "uint256",
              "name": "projectId",
              "type": "uint256"
            },
            {
              "internalType": "uint256",
              "name": "currentFundingCycleConfiguration",
              "type": "uint256"
            },
            {
              "internalType": "uint256",
              "name": "projectTokenCount",
              "type": "uint256"
            },
            {
              "components": [
                {
                  "internalType": "address",
                  "name": "token",
                  "type": "address"
                },
                {
                  "internalType": "uint256",
                  "name": "value",
                  "type": "uint256"
                },
                {
                  "internalType": "uint256",
                  "name": "decimals",
                  "type": "uint256"
                },
                {
                  "internalType": "uint256",
                  "name": "currency",
                  "type": "uint256"
                }
              ],
              "internalType": "struct JBTokenAmount",
              "name": "reclaimedAmount",
              "type": "tuple"
            },
            {
              "components": [
                {
                  "internalType": "address",
                  "name": "token",
                  "type": "address"
                },
                {
                  "internalType": "uint256",
                  "name": "value",
                  "type": "uint256"
                },
                {
                  "internalType": "uint256",
                  "name": "decimals",
                  "type": "uint256"
                },
                {
                  "internalType": "uint256",
                  "name": "currency",
                  "type": "uint256"
                }
              ],
              "internalType": "struct JBTokenAmount",
              "name": "forwardedAmount",
              "type": "tuple"
            },
            {
              "internalType": "address payable",
              "name": "beneficiary",
              "type": "address"
            },
            {
              "internalType": "string",
              "name": "memo",
              "type": "string"
            },
            {
              "internalType": "bytes",
              "name": "metadata",
              "type": "bytes"
            }
          ],
          "indexed": false,
          "internalType": "struct JBDidRedeemData",
          "name": "data",
          "type": "tuple"
        },
        {
          "indexed": false,
          "internalType": "uint256",
          "name": "delegatedAmount",
          "type": "uint256"
        },
        {
          "indexed": false,
          "internalType": "address",
          "name": "caller",
          "type": "address"
        }
      ],
      "name": "DelegateDidRedeem",
      "type": "event"
    },
    {
      "anonymous": false,
      "inputs": [
        {
          "indexed": true,
          "internalType": "uint256",
          "name": "fundingCycleConfiguration",
          "type": "uint256"
        },
        {
          "indexed": true,
          "internalType": "uint256",
          "name": "fundingCycleNumber",
          "type": "uint256"
        },
        {
          "indexed": true,
          "internalType": "uint256",
          "name": "projectId",
          "type": "uint256"
        },
        {
          "indexed": false,
          "internalType": "address",
          "name": "beneficiary",
          "type": "address"
        },
        {
          "indexed": false,
          "internalType": "uint256",
          "name": "amount",
          "type": "uint256"
        },
        {
          "indexed": false,
          "internalType": "uint256",
          "name": "distributedAmount",
          "type": "uint256"
        },
        {
          "indexed": false,
          "internalType": "uint256",
          "name": "fee",
          "type": "uint256"
        },
        {
          "indexed": false,
          "internalType": "uint256",
          "name": "beneficiaryDistributionAmount",
          "type": "uint256"
        },
        {
          "indexed": false,
          "internalType": "string",
          "name": "memo",
          "type": "string"
        },
        {
          "indexed": false,
          "internalType": "address",
          "name": "caller",
          "type": "address"
        }
      ],
      "name": "DistributePayouts",
      "type": "event"
    },
    {
      "anonymous": false,
      "inputs": [
        {
          "indexed": true,
          "internalType": "uint256",
          "name": "projectId",
          "type": "uint256"
        },
        {
          "indexed": true,
          "internalType": "uint256",
          "name": "domain",
          "type": "uint256"
        },
        {
          "indexed": true,
          "internalType": "uint256",
          "name": "group",
          "type": "uint256"
        },
        {
          "components": [
            {
              "internalType": "bool",
              "name": "preferClaimed",
              "type": "bool"
            },
            {
              "internalType": "bool",
              "name": "preferAddToBalance",
              "type": "bool"
            },
            {
              "internalType": "uint256",
              "name": "percent",
              "type": "uint256"
            },
            {
              "internalType": "uint256",
              "name": "projectId",
              "type": "uint256"
            },
            {
              "internalType": "address payable",
              "name": "beneficiary",
              "type": "address"
            },
            {
              "internalType": "uint256",
              "name": "lockedUntil",
              "type": "uint256"
            },
            {
              "internalType": "contract IJBSplitAllocator",
              "name": "allocator",
              "type": "address"
            }
          ],
          "indexed": false,
          "internalType": "struct JBSplit",
          "name": "split",
          "type": "tuple"
        },
        {
          "indexed": false,
          "internalType": "uint256",
          "name": "amount",
          "type": "uint256"
        },
        {
          "indexed": false,
          "internalType": "address",
          "name": "caller",
          "type": "address"
        }
      ],
      "name": "DistributeToPayoutSplit",
      "type": "event"
    },
    {
      "anonymous": false,
      "inputs": [
        {
          "indexed": true,
          "internalType": "uint256",
          "name": "projectId",
          "type": "uint256"
        },
        {
          "indexed": true,
          "internalType": "uint256",
          "name": "amount",
          "type": "uint256"
        },
        {
          "indexed": true,
          "internalType": "uint256",
          "name": "fee",
          "type": "uint256"
        },
        {
          "indexed": false,
          "internalType": "uint256",
          "name": "feeDiscount",
          "type": "uint256"
        },
        {
          "indexed": false,
          "internalType": "address",
          "name": "beneficiary",
          "type": "address"
        },
        {
          "indexed": false,
          "internalType": "address",
          "name": "caller",
          "type": "address"
        }
      ],
      "name": "HoldFee",
      "type": "event"
    },
    {
      "anonymous": false,
      "inputs": [
        {
          "indexed": true,
          "internalType": "uint256",
          "name": "projectId",
          "type": "uint256"
        },
        {
          "indexed": true,
          "internalType": "contract IJBPaymentTerminal",
          "name": "to",
          "type": "address"
        },
        {
          "indexed": false,
          "internalType": "uint256",
          "name": "amount",
          "type": "uint256"
        },
        {
          "indexed": false,
          "internalType": "address",
          "name": "caller",
          "type": "address"
        }
      ],
      "name": "Migrate",
      "type": "event"
    },
    {
      "anonymous": false,
      "inputs": [
        {
          "indexed": true,
          "internalType": "address",
          "name": "previousOwner",
          "type": "address"
        },
        {
          "indexed": true,
          "internalType": "address",
          "name": "newOwner",
          "type": "address"
        }
      ],
      "name": "OwnershipTransferred",
      "type": "event"
    },
    {
      "anonymous": false,
      "inputs": [
        {
          "indexed": true,
          "internalType": "uint256",
          "name": "fundingCycleConfiguration",
          "type": "uint256"
        },
        {
          "indexed": true,
          "internalType": "uint256",
          "name": "fundingCycleNumber",
          "type": "uint256"
        },
        {
          "indexed": true,
          "internalType": "uint256",
          "name": "projectId",
          "type": "uint256"
        },
        {
          "indexed": false,
          "internalType": "address",
          "name": "payer",
          "type": "address"
        },
        {
          "indexed": false,
          "internalType": "address",
          "name": "beneficiary",
          "type": "address"
        },
        {
          "indexed": false,
          "internalType": "uint256",
          "name": "amount",
          "type": "uint256"
        },
        {
          "indexed": false,
          "internalType": "uint256",
          "name": "beneficiaryTokenCount",
          "type": "uint256"
        },
        {
          "indexed": false,
          "internalType": "string",
          "name": "memo",
          "type": "string"
        },
        {
          "indexed": false,
          "internalType": "bytes",
          "name": "metadata",
          "type": "bytes"
        },
        {
          "indexed": false,
          "internalType": "address",
          "name": "caller",
          "type": "address"
        }
      ],
      "name": "Pay",
      "type": "event"
    },
    {
      "anonymous": false,
      "inputs": [
        {
          "indexed": true,
          "internalType": "uint256",
          "name": "projectId",
          "type": "uint256"
        },
        {
          "indexed": true,
          "internalType": "uint256",
          "name": "amount",
          "type": "uint256"
        },
        {
          "indexed": true,
          "internalType": "bool",
          "name": "wasHeld",
          "type": "bool"
        },
        {
          "indexed": false,
          "internalType": "address",
          "name": "beneficiary",
          "type": "address"
        },
        {
          "indexed": false,
          "internalType": "address",
          "name": "caller",
          "type": "address"
        }
      ],
      "name": "ProcessFee",
      "type": "event"
    },
    {
      "anonymous": false,
      "inputs": [
        {
          "indexed": true,
          "internalType": "uint256",
          "name": "fundingCycleConfiguration",
          "type": "uint256"
        },
        {
          "indexed": true,
          "internalType": "uint256",
          "name": "fundingCycleNumber",
          "type": "uint256"
        },
        {
          "indexed": true,
          "internalType": "uint256",
          "name": "projectId",
          "type": "uint256"
        },
        {
          "indexed": false,
          "internalType": "address",
          "name": "holder",
          "type": "address"
        },
        {
          "indexed": false,
          "internalType": "address",
          "name": "beneficiary",
          "type": "address"
        },
        {
          "indexed": false,
          "internalType": "uint256",
          "name": "tokenCount",
          "type": "uint256"
        },
        {
          "indexed": false,
          "internalType": "uint256",
          "name": "reclaimedAmount",
          "type": "uint256"
        },
        {
          "indexed": false,
          "internalType": "string",
          "name": "memo",
          "type": "string"
        },
        {
          "indexed": false,
          "internalType": "bytes",
          "name": "metadata",
          "type": "bytes"
        },
        {
          "indexed": false,
          "internalType": "address",
          "name": "caller",
          "type": "address"
        }
      ],
      "name": "RedeemTokens",
      "type": "event"
    },
    {
      "anonymous": false,
      "inputs": [
        {
          "indexed": true,
          "internalType": "uint256",
          "name": "projectId",
          "type": "uint256"
        },
        {
          "indexed": true,
          "internalType": "uint256",
          "name": "amount",
          "type": "uint256"
        },
        {
          "indexed": true,
          "internalType": "uint256",
          "name": "refundedFees",
          "type": "uint256"
        },
        {
          "indexed": false,
          "internalType": "uint256",
          "name": "leftoverAmount",
          "type": "uint256"
        },
        {
          "indexed": false,
          "internalType": "address",
          "name": "caller",
          "type": "address"
        }
      ],
      "name": "RefundHeldFees",
      "type": "event"
    },
    {
      "anonymous": false,
      "inputs": [
        {
          "indexed": false,
          "internalType": "uint256",
          "name": "fee",
          "type": "uint256"
        },
        {
          "indexed": false,
          "internalType": "address",
          "name": "caller",
          "type": "address"
        }
      ],
      "name": "SetFee",
      "type": "event"
    },
    {
      "anonymous": false,
      "inputs": [
        {
          "indexed": true,
          "internalType": "contract IJBFeeGauge",
          "name": "feeGauge",
          "type": "address"
        },
        {
          "indexed": false,
          "internalType": "address",
          "name": "caller",
          "type": "address"
        }
      ],
      "name": "SetFeeGauge",
      "type": "event"
    },
    {
      "anonymous": false,
      "inputs": [
        {
          "indexed": true,
          "internalType": "address",
          "name": "addrs",
          "type": "address"
        },
        {
          "indexed": true,
          "internalType": "bool",
          "name": "flag",
          "type": "bool"
        },
        {
          "indexed": false,
          "internalType": "address",
          "name": "caller",
          "type": "address"
        }
      ],
      "name": "SetFeelessAddress",
      "type": "event"
    },
    {
      "anonymous": false,
      "inputs": [
        {
          "indexed": true,
          "internalType": "uint256",
          "name": "fundingCycleConfiguration",
          "type": "uint256"
        },
        {
          "indexed": true,
          "internalType": "uint256",
          "name": "fundingCycleNumber",
          "type": "uint256"
        },
        {
          "indexed": true,
          "internalType": "uint256",
          "name": "projectId",
          "type": "uint256"
        },
        {
          "indexed": false,
          "internalType": "address",
          "name": "beneficiary",
          "type": "address"
        },
        {
          "indexed": false,
          "internalType": "uint256",
          "name": "amount",
          "type": "uint256"
        },
        {
          "indexed": false,
          "internalType": "uint256",
          "name": "distributedAmount",
          "type": "uint256"
        },
        {
          "indexed": false,
          "internalType": "uint256",
          "name": "netDistributedamount",
          "type": "uint256"
        },
        {
          "indexed": false,
          "internalType": "string",
          "name": "memo",
          "type": "string"
        },
        {
          "indexed": false,
          "internalType": "address",
          "name": "caller",
          "type": "address"
        }
      ],
      "name": "UseAllowance",
      "type": "event"
    },
    {
      "inputs": [
        {
          "internalType": "address",
          "name": "_token",
          "type": "address"
        },
        {
          "internalType": "uint256",
          "name": "_projectId",
          "type": "uint256"
        }
      ],
      "name": "acceptsToken",
      "outputs": [
        {
          "internalType": "bool",
          "name": "",
          "type": "bool"
        }
      ],
      "stateMutability": "view",
      "type": "function"
    },
    {
      "inputs": [
        {
          "internalType": "uint256",
          "name": "_projectId",
          "type": "uint256"
        },
        {
          "internalType": "uint256",
          "name": "_amount",
          "type": "uint256"
        },
        {
          "internalType": "address",
          "name": "_token",
          "type": "address"
        },
        {
          "internalType": "string",
          "name": "_memo",
          "type": "string"
        },
        {
          "internalType": "bytes",
          "name": "_metadata",
          "type": "bytes"
        }
      ],
      "name": "addToBalanceOf",
      "outputs": [],
      "stateMutability": "payable",
      "type": "function"
    },
    {
      "inputs": [],
      "name": "baseWeightCurrency",
      "outputs": [
        {
          "internalType": "uint256",
          "name": "",
          "type": "uint256"
        }
      ],
      "stateMutability": "view",
      "type": "function"
    },
    {
      "inputs": [],
      "name": "currency",
      "outputs": [
        {
          "internalType": "uint256",
          "name": "",
          "type": "uint256"
        }
      ],
      "stateMutability": "view",
      "type": "function"
    },
    {
      "inputs": [
        {
          "internalType": "address",
          "name": "_token",
          "type": "address"
        }
      ],
      "name": "currencyForToken",
      "outputs": [
        {
          "internalType": "uint256",
          "name": "",
          "type": "uint256"
        }
      ],
      "stateMutability": "view",
      "type": "function"
    },
    {
      "inputs": [
        {
          "internalType": "uint256",
          "name": "_projectId",
          "type": "uint256"
        }
      ],
      "name": "currentEthOverflowOf",
      "outputs": [
        {
          "internalType": "uint256",
          "name": "",
          "type": "uint256"
        }
      ],
      "stateMutability": "view",
      "type": "function"
    },
    {
      "inputs": [],
      "name": "decimals",
      "outputs": [
        {
          "internalType": "uint256",
          "name": "",
          "type": "uint256"
        }
      ],
      "stateMutability": "view",
      "type": "function"
    },
    {
      "inputs": [
        {
          "internalType": "address",
          "name": "_token",
          "type": "address"
        }
      ],
      "name": "decimalsForToken",
      "outputs": [
        {
          "internalType": "uint256",
          "name": "",
          "type": "uint256"
        }
      ],
      "stateMutability": "view",
      "type": "function"
    },
    {
      "inputs": [],
      "name": "directory",
      "outputs": [
        {
          "internalType": "contract IJBDirectory",
          "name": "",
          "type": "address"
        }
      ],
      "stateMutability": "view",
      "type": "function"
    },
    {
      "inputs": [
        {
          "internalType": "uint256",
          "name": "_projectId",
          "type": "uint256"
        },
        {
          "internalType": "uint256",
          "name": "_amount",
          "type": "uint256"
        },
        {
          "internalType": "uint256",
          "name": "_currency",
          "type": "uint256"
        },
        {
          "internalType": "address",
          "name": "_token",
          "type": "address"
        },
        {
          "internalType": "uint256",
          "name": "_minReturnedTokens",
          "type": "uint256"
        },
        {
          "internalType": "string",
          "name": "_memo",
          "type": "string"
        }
      ],
      "name": "distributePayoutsOf",
      "outputs": [
        {
          "internalType": "uint256",
          "name": "netLeftoverDistributionAmount",
          "type": "uint256"
        }
      ],
      "stateMutability": "nonpayable",
      "type": "function"
    },
    {
      "inputs": [],
      "name": "fee",
      "outputs": [
        {
          "internalType": "uint256",
          "name": "",
          "type": "uint256"
        }
      ],
      "stateMutability": "view",
      "type": "function"
    },
    {
      "inputs": [],
      "name": "feeGauge",
      "outputs": [
        {
          "internalType": "contract IJBFeeGauge",
          "name": "",
          "type": "address"
        }
      ],
      "stateMutability": "view",
      "type": "function"
    },
    {
      "inputs": [
        {
          "internalType": "uint256",
          "name": "_projectId",
          "type": "uint256"
        }
      ],
      "name": "heldFeesOf",
      "outputs": [
        {
          "components": [
            {
              "internalType": "uint256",
              "name": "amount",
              "type": "uint256"
            },
            {
              "internalType": "uint32",
              "name": "fee",
              "type": "uint32"
            },
            {
              "internalType": "uint32",
              "name": "feeDiscount",
              "type": "uint32"
            },
            {
              "internalType": "address",
              "name": "beneficiary",
              "type": "address"
            }
          ],
          "internalType": "struct JBFee[]",
          "name": "",
          "type": "tuple[]"
        }
      ],
      "stateMutability": "view",
      "type": "function"
    },
    {
      "inputs": [
        {
          "internalType": "address",
          "name": "",
          "type": "address"
        }
      ],
      "name": "isFeelessAddress",
      "outputs": [
        {
          "internalType": "bool",
          "name": "",
          "type": "bool"
        }
      ],
      "stateMutability": "view",
      "type": "function"
    },
    {
      "inputs": [
        {
          "internalType": "uint256",
          "name": "_projectId",
          "type": "uint256"
        },
        {
          "internalType": "contract IJBPaymentTerminal",
          "name": "_to",
          "type": "address"
        }
      ],
      "name": "migrate",
      "outputs": [
        {
          "internalType": "uint256",
          "name": "balance",
          "type": "uint256"
        }
      ],
      "stateMutability": "nonpayable",
      "type": "function"
    },
    {
      "inputs": [],
      "name": "operatorStore",
      "outputs": [
        {
          "internalType": "contract IJBOperatorStore",
          "name": "",
          "type": "address"
        }
      ],
      "stateMutability": "view",
      "type": "function"
    },
    {
      "inputs": [],
      "name": "owner",
      "outputs": [
        {
          "internalType": "address",
          "name": "",
          "type": "address"
        }
      ],
      "stateMutability": "view",
      "type": "function"
    },
    {
      "inputs": [
        {
          "internalType": "uint256",
          "name": "_projectId",
          "type": "uint256"
        },
        {
          "internalType": "uint256",
          "name": "_amount",
          "type": "uint256"
        },
        {
          "internalType": "address",
          "name": "_token",
          "type": "address"
        },
        {
          "internalType": "address",
          "name": "_beneficiary",
          "type": "address"
        },
        {
          "internalType": "uint256",
          "name": "_minReturnedTokens",
          "type": "uint256"
        },
        {
          "internalType": "bool",
          "name": "_preferClaimedTokens",
          "type": "bool"
        },
        {
          "internalType": "string",
          "name": "_memo",
          "type": "string"
        },
        {
          "internalType": "bytes",
          "name": "_metadata",
          "type": "bytes"
        }
      ],
      "name": "pay",
      "outputs": [
        {
          "internalType": "uint256",
          "name": "",
          "type": "uint256"
        }
      ],
      "stateMutability": "payable",
      "type": "function"
    },
    {
      "inputs": [],
      "name": "payoutSplitsGroup",
      "outputs": [
        {
          "internalType": "uint256",
          "name": "",
          "type": "uint256"
        }
      ],
      "stateMutability": "view",
      "type": "function"
    },
    {
      "inputs": [],
      "name": "prices",
      "outputs": [
        {
          "internalType": "contract IJBPrices",
          "name": "",
          "type": "address"
        }
      ],
      "stateMutability": "view",
      "type": "function"
    },
    {
      "inputs": [
        {
          "internalType": "uint256",
          "name": "_projectId",
          "type": "uint256"
        }
      ],
      "name": "processFees",
      "outputs": [],
      "stateMutability": "nonpayable",
      "type": "function"
    },
    {
      "inputs": [],
      "name": "projects",
      "outputs": [
        {
          "internalType": "contract IJBProjects",
          "name": "",
          "type": "address"
        }
      ],
      "stateMutability": "view",
      "type": "function"
    },
    {
      "inputs": [
        {
          "internalType": "address",
          "name": "_holder",
          "type": "address"
        },
        {
          "internalType": "uint256",
          "name": "_projectId",
          "type": "uint256"
        },
        {
          "internalType": "uint256",
          "name": "_tokenCount",
          "type": "uint256"
        },
        {
          "internalType": "address",
          "name": "_token",
          "type": "address"
        },
        {
          "internalType": "uint256",
          "name": "_minReturnedTokens",
          "type": "uint256"
        },
        {
          "internalType": "address payable",
          "name": "_beneficiary",
          "type": "address"
        },
        {
          "internalType": "string",
          "name": "_memo",
          "type": "string"
        },
        {
          "internalType": "bytes",
          "name": "_metadata",
          "type": "bytes"
        }
      ],
      "name": "redeemTokensOf",
      "outputs": [
        {
          "internalType": "uint256",
          "name": "reclaimAmount",
          "type": "uint256"
        }
      ],
      "stateMutability": "nonpayable",
      "type": "function"
    },
    {
      "inputs": [],
      "name": "renounceOwnership",
      "outputs": [],
      "stateMutability": "nonpayable",
      "type": "function"
    },
    {
      "inputs": [
        {
          "internalType": "uint256",
          "name": "_fee",
          "type": "uint256"
        }
      ],
      "name": "setFee",
      "outputs": [],
      "stateMutability": "nonpayable",
      "type": "function"
    },
    {
      "inputs": [
        {
          "internalType": "contract IJBFeeGauge",
          "name": "_feeGauge",
          "type": "address"
        }
      ],
      "name": "setFeeGauge",
      "outputs": [],
      "stateMutability": "nonpayable",
      "type": "function"
    },
    {
      "inputs": [
        {
          "internalType": "address",
          "name": "_address",
          "type": "address"
        },
        {
          "internalType": "bool",
          "name": "_flag",
          "type": "bool"
        }
      ],
      "name": "setFeelessAddress",
      "outputs": [],
      "stateMutability": "nonpayable",
      "type": "function"
    },
    {
      "inputs": [],
      "name": "splitsStore",
      "outputs": [
        {
          "internalType": "contract IJBSplitsStore",
          "name": "",
          "type": "address"
        }
      ],
      "stateMutability": "view",
      "type": "function"
    },
    {
      "inputs": [],
      "name": "store",
      "outputs": [
        {
          "internalType": "contract IJBSingleTokenPaymentTerminalStore",
          "name": "",
          "type": "address"
        }
      ],
      "stateMutability": "view",
      "type": "function"
    },
    {
      "inputs": [
        {
          "internalType": "bytes4",
          "name": "_interfaceId",
          "type": "bytes4"
        }
      ],
      "name": "supportsInterface",
      "outputs": [
        {
          "internalType": "bool",
          "name": "",
          "type": "bool"
        }
      ],
      "stateMutability": "view",
      "type": "function"
    },
    {
      "inputs": [],
      "name": "token",
      "outputs": [
        {
          "internalType": "address",
          "name": "",
          "type": "address"
        }
      ],
      "stateMutability": "view",
      "type": "function"
    },
    {
      "inputs": [
        {
          "internalType": "address",
          "name": "newOwner",
          "type": "address"
        }
      ],
      "name": "transferOwnership",
      "outputs": [],
      "stateMutability": "nonpayable",
      "type": "function"
    },
    {
      "inputs": [
        {
          "internalType": "uint256",
          "name": "_projectId",
          "type": "uint256"
        },
        {
          "internalType": "uint256",
          "name": "_amount",
          "type": "uint256"
        },
        {
          "internalType": "uint256",
          "name": "_currency",
          "type": "uint256"
        },
        {
          "internalType": "address",
          "name": "_token",
          "type": "address"
        },
        {
          "internalType": "uint256",
          "name": "_minReturnedTokens",
          "type": "uint256"
        },
        {
          "internalType": "address payable",
          "name": "_beneficiary",
          "type": "address"
        },
        {
          "internalType": "string",
          "name": "_memo",
          "type": "string"
        }
      ],
      "name": "useAllowanceOf",
      "outputs": [
        {
          "internalType": "uint256",
          "name": "netDistributedAmount",
          "type": "uint256"
        }
      ],
      "stateMutability": "nonpayable",
      "type": "function"
    }
  ],
  "bytecode": {
    "object": "0x6101e0806040523462000582576101608162005ed3803803809162000025828562000587565b833981010312620005825780516001600160a01b038116810362000582576020820151604083015191606084015191608085015160018060a01b0381168103620005825760a08601516001600160a01b0381168103620005825760c0870151906001600160a01b0382168203620005825760e0880151926001600160a01b03841684036200058257610100890151946001600160a01b038616860362000582576101208a0151996001600160a01b038b168b0362000582576101400151966001600160a01b0388168803620005825760405163313ce56760e01b81526020816004816001600160a01b0386165afa90811562000576576000916200052b575b506001600160a01b0390911660805260ff1660a05260c05260e0526200014a33620005c1565b63017d78406002556101a09687526101c095865261010052610120526101405261016052610180938452600054336001600160a01b0390911603620004e7576001600160a01b038116156200049357620001a490620005c1565b604051916158ca93846200060985396080518481816103b5015281816104450152818161054c01528181610a3201528181610b7401528181611a7501528181612136015281816121d50152818161232b015281816125620152818161274a0152818161284f01528181612bca01528181612c6901528181612d1f0152818161326601528181613303015281816134e6015281816135f301528181613ab2015281816141aa01528181614265015281816142d8015281816143bb0152818161496301528181614a2f01528181614bea01528181614cf30152818161507a015281816150e7015261528c015260a0518481816103e00152818161046f0152818161107f0152818161119a01528181611dbe015281816121620152818161259501528181612774015281816133360152818161351001528181614a620152614c14015260c0518481816104060152818161049501528181610b28015281816111c9015281816125bf0152818161279a0152818161336001528181613536015281816139cc01528181614a8c0152614c3a015260e0518481816108f9015281816109ab01528181610f3501528181610fd3015281816110f7015281816116b60152818161175701528181611c7d0152611d1b015261010051848181610cd601528181611364015281816114ed01528181611a1b0152611f3201526101205184818161068001528181610c3d0152818161235801528181612961015281816132220152818161371901528181613a740152818161499901528181614e0601526152bc015261014051848181611e320152611fd3015261016051848181610bf8015261123301525183818161029e01528181610d5b01528181611165015281816112f601528181611ade01528181611ece015281816124080152818161245a0152818161266e0152818161341001528181613bce0152614b28015251828181611df90152818161260f015281816133b10152614adc01525181818161194101528181611fa30152818161207201526121900152f35b60405162461bcd60e51b815260206004820152602660248201527f4f776e61626c653a206e6577206f776e657220697320746865207a65726f206160448201526564647265737360d01b6064820152608490fd5b606460405162461bcd60e51b815260206004820152602060248201527f4f776e61626c653a2063616c6c6572206973206e6f7420746865206f776e65726044820152fd5b6020813d6020116200056d575b81620005476020938362000587565b810103126200056957519060ff8216820362000566575060ff62000124565b80fd5b5080fd5b3d915062000538565b6040513d6000823e3d90fd5b600080fd5b601f909101601f19168101906001600160401b03821190821017620005ab57604052565b634e487b7160e01b600052604160045260246000fd5b600080546001600160a01b039283166001600160a01b03198216811783559216907f8be0079c531659141344cd1fd0a4f28419497f9722a3daafe3b4186f6b6457e09080a356fe60e080604052600436101561001357600080fd5b60003560e01c90816301ffc9a714613e72575080630cf8e858146139ef5780631982d679146139ab5780631ebc263f1461318f5780632b267b4e14611e615780632bdfe00414611e1c5780632d1a590314611de1578063313ce56714611da6578063405b84fa146119d2578063637913ac1461196457806366248b861461192957806369fe0e2d146118b4578063715018a61461186d5780637258002c146117ef57806389701db5146114b35780638af56094146113935780638b79543c1461134e5780638da5cb5b14611325578063975057e7146112e0578063a32e1e9614611126578063ad007d63146110e1578063b631b500146110a2578063b7bad1b11461105e578063bc8926e914610c6c578063c41c2f2414610c27578063d3419bf314610be2578063d6dacc5314610bb9578063ddca3f4314610b9b578063df21a7dd14610b4b578063e5a6b10f14610b10578063f2fde38b14610a61578063fc0c546a14610a1c5763fe663f0f1461018a57600080fd5b3461065157610100366003190112610651576101a4613f6d565b6101ac613f83565b506101b5613fc6565b9060c4356001600160401b038111610651576101d59036906004016140ed565b9060e4356001600160401b0381116106515736602382011215610651576102069036906024816004013591016140b6565b92336001600160a01b03831614158061096a575b806108bb575b6108a9576001600160a01b0381161561089757600061028761029994610244614595565b5060405163a2df1f9560e01b81526001600160a01b03861660048201526024803590820152604480359082015260a06064820152958692839260a484019061435a565b8281036003190160848401528861435a565b0381837f00000000000000000000000000000000000000000000000000000000000000006001600160a01b03165af1801561064557600090600094600090600092610774575b50608435861061076257604435610662575b805161039f575b5061037860209661036a7f2be10f2a0203c77d0fcaa9fd6484a8a1d6904de31cd820587f60c1c8c338c814938861038f575b898601519551966040519860018060a01b0316895260018060a01b03168a890152604435604089015288606089015260e0608089015260e088019061435a565b9086820360a088015261435a565b933360c082015280602435950390a4604051908152f35b61039a898830614217565b61032a565b604051906103ac82613fef565b60018060a01b037f0000000000000000000000000000000000000000000000000000000000000000168252600060208301527f000000000000000000000000000000000000000000000000000000000000000060408301527f0000000000000000000000000000000000000000000000000000000000000000606083015260208401519160405161043c81613fef565b60018060a01b037f00000000000000000000000000000000000000000000000000000000000000001681528860208201527f000000000000000000000000000000000000000000000000000000000000000060408201527f00000000000000000000000000000000000000000000000000000000000000006060820152604051936104c685614025565b60018060a01b0389168552602435602086015260408501526044356060850152608084015260a083015260018060a01b03851660c08301528260e08301528761010083015280519060005b828110610520575050506102f8565b61052a8183614551565b5180516020820151919291610547916001600160a01b03166143b8565b6000917f00000000000000000000000000000000000000000000000000000000000000006001600160a01b031661eeee14610656575b60208181015160a08801519091015280516001600160a01b031692833b156106515760009060405194858092632b13c58f60e01b825260206004830152816105c8602482018d6146d9565b03925af192831561064557600193610636575b507f54b3744c489f40987dd2726ca12131243334e8292f567389f761c5a432d813e46020848060a01b03835116920151604051809160608252610621606083018b6146d9565b9060208301523360408301520390a201610511565b61063f90613fdc565b386105db565b6040513d6000823e3d90fd5b600080fd5b6020810151925061057d565b604051632eec7b5560e11b81526024803560048301526020908290817f00000000000000000000000000000000000000000000000000000000000000006001600160a01b03165afa90811561064557600091610734575b506001600160a01b0316803b15610651576000809160c460405180948193631665bc0f60e01b835260018060a01b038c1660048401526024356024840152604435604484015260a060648401528160a48401528160848401525af1801561064557610725575b506102f1565b61072e90613fdc565b3861071f565b610755915060203d811161075b575b61074d8183614078565b8101906142fd565b386106b9565b503d610743565b60405163f896960b60e01b8152600490fd5b95505050503d806000853e6107898185614078565b610180848281010312610651576107a2818501856145da565b610120850151610140860151959092906001600160401b03871161065157818101601f8883010112156106515786810151966107dd88614145565b976107eb604051998a614078565b808952602089019184840160208360061b8387010101116106515791602083850101925b60208360061b8287010101841061084e57505050506101608101516001600160401b03811161065157610845928201910161466b565b909194386102df565b6040848787010312610651576040516108668161400a565b84516001600160a01b038116810361065157602093828592604094528288015183820152815201940193915061080f565b604051637ba50db360e11b8152600490fd5b60405163075fd2b160e01b8152600490fd5b5060405163c161c93f60e01b81523360048201526001600160a01b0383811660248301526000604483015260026064830152602090829060849082907f0000000000000000000000000000000000000000000000000000000000000000165afa90811561064557600091610931575b5015610220565b90506020813d8211610962575b8161094b60209383614078565b810103126106515761095c9061415c565b3861092a565b3d915061093e565b5060405163c161c93f60e01b81523360048201526001600160a01b0383811660248084019190915235604483015260026064830152602090829060849082907f0000000000000000000000000000000000000000000000000000000000000000165afa908115610645576000916109e3575b501561021a565b90506020813d8211610a14575b816109fd60209383614078565b8101031261065157610a0e9061415c565b386109dc565b3d91506109f0565b34610651576000366003190112610651576040517f00000000000000000000000000000000000000000000000000000000000000006001600160a01b03168152602090f35b3461065157602036600319011261065157610a7a613f6d565b610a82615429565b6001600160a01b03908116908115610abc576000548260018060a01b031982161760005516600080516020615815833981519152600080a3005b60405162461bcd60e51b815260206004820152602660248201527f4f776e61626c653a206e6577206f776e657220697320746865207a65726f206160448201526564647265737360d01b6064820152608490fd5b346106515760003660031901126106515760206040517f00000000000000000000000000000000000000000000000000000000000000008152f35b34610651576040366003190112610651576020610b66613f6d565b6040519060018060a01b03807f0000000000000000000000000000000000000000000000000000000000000000169116148152f35b34610651576000366003190112610651576020600254604051908152f35b34610651576000366003190112610651576003546040516001600160a01b039091168152602090f35b34610651576000366003190112610651576040517f00000000000000000000000000000000000000000000000000000000000000006001600160a01b03168152602090f35b34610651576000366003190112610651576040517f00000000000000000000000000000000000000000000000000000000000000006001600160a01b03168152602090f35b346106515760e036600319011261065157600435602435610c8b613f83565b50610c94613fc6565b9160c4356001600160401b03811161065157610cb49036906004016140ed565b6040516331a9108f60e11b808252600482018490526020956001600160a01b037f000000000000000000000000000000000000000000000000000000000000000081169694929390919088816024818b5afa8015610645578391600091611041575b5016803314159081610fa3575b81610f04575b506108a957604051632538671560e01b81529661014094858980610d546044358b8d6004850161412f565b03816000887f0000000000000000000000000000000000000000000000000000000000000000165af19889156106455760009660009a610ecd575b50506084358910610ebb57899060246040518094819382528b60048301525afa938415610645577f8657a0c05a68a912c23c1bd00124afaa8c669063b046bd9bfd22b21d573c5e6d94610e4692600091610e9e575b50600254158015610e87575b15610e7957633b9aca005b633b9aca008103610e675750506000985b9889039889610e57575b8a8701519651976040519586951685528b850152604084015288606084015260c0608084015260c083019061435a565b3360a08301520390a4604051908152f35b610e628a8530614217565b610e16565b610e73918b898c61485c565b98610e0c565b610e828961526e565b610dfb565b503360005260048b5260ff60406000205416610df0565b610eb591508b3d8d1161075b5761074d8183614078565b8b610de4565b60405163b01493c160e01b8152600490fd5b8091929a50610ef2939750903d10610efd575b610eea8183614078565b810190614768565b949094978a80610d8f565b503d610ee0565b90506040519063c161c93f60e01b8252336004830152602482015260006044820152601160648201528881608481867f0000000000000000000000000000000000000000000000000000000000000000165afa90811561064557600091610f6e575b501589610d29565b90508881813d8311610f9c575b610f858183614078565b8101031261065157610f969061415c565b89610f66565b503d610f7b565b905060405163c161c93f60e01b8152336004820152816024820152876044820152601160648201528981608481877f0000000000000000000000000000000000000000000000000000000000000000165afa9081156106455760009161100c575b501590610d23565b90508981813d831161103a575b6110238183614078565b81010312610651576110349061415c565b8a611004565b503d611019565b61105891508a3d8c1161075b5761074d8183614078565b8a610d16565b3461065157602036600319011261065157611077613f6d565b5060206040517f00000000000000000000000000000000000000000000000000000000000000008152f35b34610651576020366003190112610651576001600160a01b036110c3613f6d565b166000526004602052602060ff604060002054166040519015158152f35b34610651576000366003190112610651576040517f00000000000000000000000000000000000000000000000000000000000000006001600160a01b03168152602090f35b34610651576020806003193601126106515760405163035240c760e61b8152306004808301919091523560248201526001600160a01b039082816044817f000000000000000000000000000000000000000000000000000000000000000086165afa908115610645576000916112b3575b507f00000000000000000000000000000000000000000000000000000000000000009081601281036112a45750905b837f000000000000000000000000000000000000000000000000000000000000000091600183146000146112025750505090505b604051908152f35b606461120d8261410b565b936040519687938492635268657960e11b845260048401526001602484015260448301527f0000000000000000000000000000000000000000000000000000000000000000165afa91821561064557600092611273575b61126e935061575c565b6111fa565b91508383813d831161129d575b61128a8183614078565b810103126106515761126e925191611264565b503d611280565b6112ad916153ca565b906111c6565b90508281813d83116112d9575b6112ca8183614078565b81010312610651575183611197565b503d6112c0565b34610651576000366003190112610651576040517f00000000000000000000000000000000000000000000000000000000000000006001600160a01b03168152602090f35b34610651576000366003190112610651576000546040516001600160a01b039091168152602090f35b34610651576000366003190112610651576040517f00000000000000000000000000000000000000000000000000000000000000006001600160a01b03168152602090f35b3461065157602080600319360112610651576004356000526001908181526040600020918254916113c383614145565b926113d16040519485614078565b8084528184018095600052826000206000915b83831061145b575050505060405192818401908285525180915260408401949160005b8281106114145785870386f35b8351805188528281015163ffffffff908116848a0152604080830151909116908901526060908101516001600160a01b031690880152608090960195928101928401611407565b9460028582999760409997995161147181613fef565b855481528486015463ffffffff8082168584015281851c16604083015260018060a01b039060401c1660608201528152019201920191909694969593956113e4565b3461065157602080600319360112610651576040516331a9108f60e11b815260048035908201819052916001600160a01b039181816024817f000000000000000000000000000000000000000000000000000000000000000087165afa908115610645576000916117d2575b50826000541633141590816117c5575b81611725575b81611684575b506108a95782600052600192838252604060002090815461155b81614145565b926115696040519485614078565b8184526000908152848120878686015b8785851061163e575050505050508060005284835261159b60406000206144ec565b81519360005b8581106115aa57005b80876115e86115ba829488614551565b515163ffffffff808a6115cd878c614551565b510151169060406115de878c614551565b5101511691615243565b856000805160206158558339815191526116358786611619828d61160f6060948592614551565b5101511687614945565b611623888d614551565b5101511660405191829133908361457b565b0390a4016115a1565b60029160405161164d81613fef565b855481528b8587015463ffffffff8082168685015281861c16604084015260401c1660608201528152019201920191908890611579565b60405163c161c93f60e01b815233600482015290841660248201526000604482015260056064820152905081816084817f000000000000000000000000000000000000000000000000000000000000000087165afa908115610645576000916116f0575b50158461153b565b90508181813d831161171e575b6117078183614078565b81010312610651576117189061415c565b846116e8565b503d6116fd565b905060405163c161c93f60e01b81523360048201528382166024820152846044820152600560648201528281608481877f0000000000000000000000000000000000000000000000000000000000000000165afa90811561064557600091611790575b501590611535565b90508281813d83116117be575b6117a78183614078565b81010312610651576117b89061415c565b85611788565b503d61179d565b338482161415915061152f565b6117e99150823d841161075b5761074d8183614078565b8461151f565b3461065157604036600319011261065157611808613f6d565b602435908115158092036106515761181e615429565b60018060a01b0316806000526004602052604060002060ff1981541660ff84161790557fa2653e25a502c023a5830d0de847ef6f458387865b1f4f575d7594f9f2c0d71e6020604051338152a3005b3461065157600036600319011261065157611886615429565b600080546001600160a01b0319811682556001600160a01b03166000805160206158158339815191528280a3005b34610651576020366003190112610651576004356118d0615429565b6302faf080811161191757611912817fd7414e590e1cb532989ab2a34c8f4c2c17f7ab6f006efeeaef2e87cd5008c20292600255604051918291339083614169565b0390a1005b6040516345fbd9c160e01b8152600490fd5b346106515760003660031901126106515760206040517f00000000000000000000000000000000000000000000000000000000000000008152f35b34610651576020366003190112610651576004356001600160a01b0381169081900361065157611992615429565b600380546001600160a01b031916821790556040513381527f0a9a80fe9716605b3e52abb3d792d6a4e7816d6afc02a5a4ef023081feaf9f6090602090a2005b34610651576040366003190112610651576004356001600160a01b0360243581811690819003610651576040516331a9108f60e11b8152600481018490526020939084816024817f000000000000000000000000000000000000000000000000000000000000000088165afa8015610645578491600091611d89575b5016803314159081611ceb575b81611c4c575b506108a95760405163df21a7dd60e01b81527f000000000000000000000000000000000000000000000000000000000000000090858180611aa686866004840161431c565b0381875afa90811561064557600091611c17575b5015611c0557604051636bb6a5ad60e01b81526004810183905293858560248160007f000000000000000000000000000000000000000000000000000000000000000086165af194851561064557600095611bd6575b5084611b54575b50507fa7519e5f94697b7f53e97c5eb46a0c730a296ab686ab8fd333835c5f735784eb60405180611b49338783614169565b0390a3604051908152f35b61eeee90611b6286866143b8565b821603611bce5783905b604051611b788161405d565b60008152843b156106515760405163019f1d0b60e31b815292600092849283918291611ba9918b8a6004860161437f565b0391875af1801561064557611bbf575b80611b17565b611bc890613fdc565b84611bb9565b600090611b6c565b9094508581813d8311611bfe575b611bee8183614078565b8101031261065157519386611b10565b503d611be4565b60405163581010ed60e01b8152600490fd5b90508581813d8311611c45575b611c2e8183614078565b8101031261065157611c3f9061415c565b86611aba565b503d611c24565b90506040519063c161c93f60e01b8252336004830152602482015260006044820152600460648201528481608481877f0000000000000000000000000000000000000000000000000000000000000000165afa90811561064557600091611cb6575b501585611a61565b90508481813d8311611ce4575b611ccd8183614078565b8101031261065157611cde9061415c565b85611cae565b503d611cc3565b905060405163c161c93f60e01b8152336004820152816024820152826044820152600460648201528581608481887f0000000000000000000000000000000000000000000000000000000000000000165afa90811561064557600091611d54575b501590611a5b565b90508581813d8311611d82575b611d6b8183614078565b8101031261065157611d7c9061415c565b86611d4c565b503d611d61565b611da09150863d881161075b5761074d8183614078565b86611a4e565b346106515760003660031901126106515760206040517f00000000000000000000000000000000000000000000000000000000000000008152f35b346106515760003660031901126106515760206040517f00000000000000000000000000000000000000000000000000000000000000008152f35b34610651576000366003190112610651576040517f00000000000000000000000000000000000000000000000000000000000000006001600160a01b03168152602090f35b346106515760c036600319011261065157611e7a613f83565b5060a4356001600160401b03811161065157611e9a903690600401613f99565b9060a05260009060405163c664459760e01b81526101408180611ec86044356024356004356004850161412f565b038160007f00000000000000000000000000000000000000000000000000000000000000006001600160a01b03165af19081156106455760009060009261316b575b506084358210610ebb576040516331a9108f60e11b81526004803590820152926020846024817f00000000000000000000000000000000000000000000000000000000000000006001600160a01b03165afa9384156106455760009461314a575b5060025461313a57633b9aca005b602083015192600060c0528496633b9aca0093604051926369e11cc560e01b845260008480611fcf7f00000000000000000000000000000000000000000000000000000000000000008b6004356004850161412f565b03817f00000000000000000000000000000000000000000000000000000000000000006001600160a01b03165afa93841561064557600094612fe9575b5060005b8451811015612ece576120238186614551565b516040810151888103612ebb57506120428c985b604083015190614182565b976000608052806120c1575b50906001916120606040518092614795565b60805160e082015233610100820152897f0000000000000000000000000000000000000000000000000000000000000000917f2a1f2df21da49f011c6165709ae4b279f8d6d7cffe9043c582352882d8c9698b61012060043592a401612010565b60c0820151919c92916001600160a01b03161561230257633b9aca00881480156122dc575b156122b657806080525b60805160c08e015161210b91906001600160a01b03166143b8565b604051926001600160401b0360c08501908111908511176122a05760c0840160405260018060a01b037f000000000000000000000000000000000000000000000000000000000000000016845260805160208501527f0000000000000000000000000000000000000000000000000000000000000000604085015260043560608501527f000000000000000000000000000000000000000000000000000000000000000060808501528d60a08501528d60c060018060a01b03910151169361eeee60018060a01b037f00000000000000000000000000000000000000000000000000000000000000001614600014612299576080515b853b156106515760408051634eba05fd60e11b815283516001600160a01b0316600482015260208401516024820152908301516044820152606083015160648201526080830151608482015260a0909201519195600092879261018492849261226e9060a4850190614795565b5af19384156106455760019461228a575b505b039b909161204e565b61229390613fdc565b8e61227f565b6000612201565b634e487b7160e01b600052604160045260246000fd5b6122c38860025483615243565b81036080526122d48160c051614788565b60c0526120f0565b5060c08d01516001600160a01b031660009081526004602052604090205460ff166120e6565b60608d01518d9015612e55576020606061235492015160405180938192630862026560e41b83527f00000000000000000000000000000000000000000000000000000000000000009060048401614169565b03817f00000000000000000000000000000000000000000000000000000000000000006001600160a01b03165afa90811561064557600091612e36575b506001600160a01b03811615612e24576001600160a01b0381163003612b9957508060805260206040516123c48161400a565b8181528136910137604051926004356020850152602084526123e58461400a565b60208e01518e90156124f85760600151604051946124028661405d565b600086527f00000000000000000000000000000000000000000000000000000000000000006001600160a01b03163b156106515760405163e7c8e3e360e01b81526004810183905260248101859052600081604481837f00000000000000000000000000000000000000000000000000000000000000006001600160a01b03165af1968715610645576124da6000805160206157f5833981519152936124cc9360019a6124e9575b506040519384938985526000602086015260a0604086015260a085019061435a565b90838203606085015261435a565b3360808301520390a25b612281565b6124f290613fdc565b386124aa565b6060810151608082015194959394929390926001600160a01b03168015612b9157915b511515906040519261252c8461405d565b6000808552916001600160a01b03821615612b7f576126699461254d614595565b5060006126566040519261256084613fef565b7f00000000000000000000000000000000000000000000000000000000000000006001600160a01b03168452602084018c90527f00000000000000000000000000000000000000000000000000000000000000006040808601919091527f0000000000000000000000000000000000000000000000000000000000000000606086015251632fa1b39160e01b8152306004820152988992839261260660248501886146ad565b60a484018d90527f000000000000000000000000000000000000000000000000000000000000000060c48501526001600160a01b03891660e485015261014061010485015261014484019061435a565b828103600319016101248401528661435a565b0381837f00000000000000000000000000000000000000000000000000000000000000006001600160a01b03165af19586156106455760009560008092600099612a60575b5080612942575b508151612735575b50505091600080516020615875833981519152916127278594612719602060019d9c9b9a999801519651976040519586953087528f8060a01b031660208701528c6040870152606086015260e0608086015260e085019061435a565b9083820360a085015261435a565b3360c08301520390a4612281565b60405161274181613fef565b60018060a01b037f00000000000000000000000000000000000000000000000000000000000000001681528b60208201527f000000000000000000000000000000000000000000000000000000000000000060408201527f00000000000000000000000000000000000000000000000000000000000000006060820152602088015193604051946127d186614041565b3086528b60208701526040860152606085015260808401528560a084015260018060a01b03851660c084015260e0830152866101008301528261012083015280519060005b82811061282357506126bd565b61282d8183614551565b518051602082015191929161284a916001600160a01b03166143b8565b6000917f00000000000000000000000000000000000000000000000000000000000000006001600160a01b031661eeee14612936575b60208181015160808801519091015280516001600160a01b031692833b15610651576000906040519485809263da9ee8b760e01b825260206004830152816128cb602482018d6151a6565b03925af192831561064557600193612927575b506000805160206158358339815191526020848060a01b03835116920151604051809160608252612912606083018b6151a6565b9060208301523360408301520390a201612816565b61293090613fdc565b386128de565b60208101519250612880565b604051632eec7b5560e11b8152600481018b90529196506020826024817f00000000000000000000000000000000000000000000000000000000000000006001600160a01b03165afa91821561064557600092612a3e575b50604051638ae9c07b60e01b8152600481018b905260248101919091526001600160a01b03868116604483015260c06064830152600060c4830181905260848301899052600160a48401529192602092849260e492849291165af190811561064557600091612a0c575b5094386126b5565b90506020813d602011612a36575b81612a2760209383614078565b81010312610651575138612a04565b3d9150612a1a565b6020919250612a5990823d841161075b5761074d8183614078565b919061299a565b9850509550503d94856000883e612a778688614078565b61018087878101031261065157612a90868801886145da565b90610120880151966101408901519860018060401b038a1161065157818101601f8b8301011215610651578981015199612ac98b614145565b9a612ad76040519c8d614078565b808c5260208c0184840160208360061b85870101011161065157602083850101905b60208360061b85870101018210612b3857505050506101608101516001600160401b03811161065157612b2f928201910161466b565b979196386126ae565b60408287870103126106515760405190612b518261400a565b8251906001600160a01b03821682036106515782602092604094528285015183820152815201910190612af9565b60405163a762251360e01b8152600490fd5b50339161251b565b92633b9aca0089148015612e02575b15612ddc57816080525b608051612bc8906001600160a01b0386166143b8565b7f00000000000000000000000000000000000000000000000000000000000000006001600160a01b031661eeee03612dd4576080518e5b6020604051612c0d8161400a565b818152813691013760405190600435602083015260208252612c2e8261400a565b602081015115612cc75760600151956001600160a01b0381163b1561065157612c969660009360405180998195829463019f1d0b60e31b84527f000000000000000000000000000000000000000000000000000000000000000090608051906004860161437f565b03926001600160a01b03165af193841561064557600194612cb8575b50612281565b612cc190613fdc565b8e612cb2565b606081015160808201519497929460209491939291906001600160a01b03168015612dcc57915b51151593612d8060405197889687958694631ebc263f60e01b86526004860152608051602486015260018060a01b037f000000000000000000000000000000000000000000000000000000000000000016604486015260018060a01b031660648501526000608485015260a484015261010060c4840152600061010484015261012060e484015261012483019061435a565b03926001600160a01b03165af1801561064557612da1575b50600192612281565b602090813d8311612dc5575b612db78183614078565b81010312610651578d612d98565b503d612dad565b503391612cee565b60008e612bff565b612de98960025484615243565b8203608052612dfa8260c051614788565b60c052612bb2565b506001600160a01b03841660009081526004602052604090205460ff16612ba8565b604051636921234360e01b8152600490fd5b612e4f915060203d60201161075b5761074d8183614078565b8e612391565b60800151600193906001600160a01b03168015612eb1576124e4905b633b9aca008b03612e8b57836080525b6080519030614217565b612e988b60025486615243565b8403608052612ea98460c051614788565b60c052612e81565b506124e433612e71565b612ec8612042918c615629565b98612037565b5060209350879089868c60c05181633b9aca008403612fe2575b50828115612fd857612f08916001600160a01b038616908760043561485c565b915b81612f91575b5050906000805160206157d583398151915291878401519351946040519260018060a01b03168352602435898401526040830152606082015285608082015260e060a08201528460e082015260a05185610100918284013760008287018201523360c083015260043595601f01601f191682018290030190a4604051908152f35b6000805160206157d58339815191529392975090612fb5612fbb9260025483615243565b90614182565b95612fd0876001600160a01b03841630614217565b909188612f10565b5050600091612f0a565b0181612ee8565b9093503d806000833e612ffc8183614078565b6020828281010312610651578151906001600160401b03821161065157808301601f83850101121561065157818301519061303682614145565b936130446040519586614078565b8285526020850193828201602060e086028385010101116106515793602085830101945b602060e086028285010101861061308657505050505050928a61200c565b60e086858501031261065157604051916001600160401b0360e08401908111908411176122a05760e083016040526130bd8761415c565b83526130cb6020880161415c565b6020840152604087810151908401526060808801519084015260808701516001600160a01b038116810361065157608084015260a0878101519084015260c0870151926001600160a01b038416840361065157602060e09282829660c086950152815201970196925050613068565b61314560043561526e565b611f79565b61316491945060203d60201161075b5761074d8183614078565b9285611f6b565b905061318891506101403d61014011610efd57610eea8183614078565b9084611f0a565b610100366003190112610651576131a4613f57565b506131ad613f83565b60a4359081151582036106515760c4356001600160401b038111610651576131d9903690600401613f99565b90919060e4356001600160401b038111610651576131fb903690600401613f99565b9390604051636e49181f60e01b81526020818061321e3060043560048401614169565b03817f00000000000000000000000000000000000000000000000000000000000000006001600160a01b03165afa90811561064557600091613971575b501561395f576024357f00000000000000000000000000000000000000000000000000000000000000006001600160a01b031661eeee14613950573461393e576132cf926132c66132c6926132b96132b161418f565b913033614217565b6132c161418f565b614182565b945b36916140b6565b936000936001600160a01b03841615612b7f5761340b906132ee614595565b5060006133f86040519261330184613fef565b7f00000000000000000000000000000000000000000000000000000000000000006001600160a01b03168452602084018790527f00000000000000000000000000000000000000000000000000000000000000006040808601919091527f0000000000000000000000000000000000000000000000000000000000000000606086015251632fa1b39160e01b815233600482015294859283926133a760248501886146ad565b60043560a48501527f000000000000000000000000000000000000000000000000000000000000000060c48501526001600160a01b038b1660e485015261014061010485015261014484019061435a565b828103600319016101248401528b61435a565b0381837f00000000000000000000000000000000000000000000000000000000000000006001600160a01b03165af19182156106455760009360008092600095613819575b50806136f8575b5060843588106136e65781516134d1575b5050506134ba60209661036a600080516020615875833981519152938986015195519660405198338a5260018060a01b03168b8a0152604089015288606089015260e0608089015260e088019061435a565b933360c082015280600435950390a4604051908152f35b6040516134dd81613fef565b60018060a01b037f00000000000000000000000000000000000000000000000000000000000000001681528660208201527f000000000000000000000000000000000000000000000000000000000000000060408201527f000000000000000000000000000000000000000000000000000000000000000060608201526020860151936040519461356d86614041565b338652600435602087015260408601526060850152608084015260a083018890526001600160a01b03871660c0840152151560e08301526101008201839052610120820188905280519060005b8281106135c75750613468565b6135d18183614551565b51805160208201519192916135ee916001600160a01b03166143b8565b6000917f00000000000000000000000000000000000000000000000000000000000000006001600160a01b031661eeee146136da575b60208181015160808801519091015280516001600160a01b031692833b15610651576000906040519485809263da9ee8b760e01b8252602060048301528161366f602482018d6151a6565b03925af1928315610645576001936136cb575b506000805160206158358339815191526020848060a01b038351169201516040518091606082526136b6606083018b6151a6565b9060208301523360408301520390a2016135ba565b6136d490613fdc565b8c613682565b60208101519250613624565b604051633dca309360e11b8152600490fd5b604051632eec7b5560e11b81526004803590820152919850906020816024817f00000000000000000000000000000000000000000000000000000000000000006001600160a01b03165afa80156106455760009260209284926137f7575b50604051638ae9c07b60e01b8152600480359082015260248101919091526001600160a01b038a8116604483015260c0606483015260c482018590528b15156084830152600160a48301529093849260e492849291165af1908115610645576000916137c5575b509689613457565b90506020813d6020116137ef575b816137e060209383614078565b810103126106515751896137bd565b3d91506137d3565b60e491925061381290843d861161075b5761074d8183614078565b9190613756565b9450509350503d92836000843e6138308484614078565b61018083858101031261065157613849848401846145da565b90610120840151946101408501519460018060401b03861161065157818101601f87830101121561065157858101519561388287614145565b966138906040519889614078565b808852602088019184840160208360061b8387010101116106515791602083850101925b60208360061b828701010184106138f557505050506101608101516001600160401b038111610651576138ea928201910161466b565b91949391938a613450565b60408487870103126106515760405161390d8161400a565b84516001600160a01b03811681036106515760209382859260409452828801518382015281520194019391506138b4565b604051635e7e9adf60e11b8152600490fd5b506132c66132cf9234946132c8565b604051631b1d5a5960e31b8152600490fd5b90506020813d6020116139a3575b8161398c60209383614078565b810103126106515761399d9061415c565b8761325b565b3d915061397f565b34610651576020366003190112610651576139c4613f6d565b5060206040517f00000000000000000000000000000000000000000000000000000000000000008152f35b60a036600319011261065157600435613a06613f57565b506001600160401b0360643581811161065157613a27903690600401613f99565b9160843590811161065157613a40903690600401613f99565b604051636e49181f60e01b8152936020939285613a61308960048401614169565b6001600160a01b039791879183919003817f00000000000000000000000000000000000000000000000000000000000000008b165afa90811561064557600091613e3d575b501561395f57602435907f0000000000000000000000000000000000000000000000000000000000000000871661eeee14613e2e573461393e57613b11613af5613b19936132b96132b161418f565b955b336000526004885260ff60406000205416159436916140b6565b9336916140b6565b9015613e2657600086600052808488600180895260406000209081548b613b3f82614145565b93613b4d6040519586614078565b8285528c8501906000528c80600020916000935b858510613dcc5750505050505082600052808a52613b8260406000206144ec565b8151849260005b828110613c815750505050613bc77f59860d79d97c1fce2be7f987915c631471f4b08f671200463cc40a3380194ffb91604051918291339083614169565b0390a4945b7f00000000000000000000000000000000000000000000000000000000000000001691613bf98685614788565b833b156106515760009360448592604051968793849263e7c8e3e360e01b84528d600485015260248401525af1908115610645576000805160206157f583398151915296613c67946124cc93613c72575b50604051968796875286015260a0604086015260a085019061435a565b3360808301520390a2005b613c7b90613fdc565b89613c4a565b92955092955092508415600014613cc35783908c600052818b52613cb46040600020613cad8386614551565b51906147e5565b01919288938695928d94613b89565b9493613ccf8683614551565b51518110613d20578390613ce38784614551565b5151900394613d19613cf58885614551565b515163ffffffff808e613d088c89614551565b510151169060406115de8c89614551565b0195613cb4565b613dc1908c60009796939752848b528b613da48c604060002084613d448b8d614551565b515103918a8c63ffffffff968784613d5c8585614551565b5101511690886040613d6e8686614551565b5101511692613d806060958692614551565b510151169360405196613d9288613fef565b875286015260408501528301526147e5565b808c613db0898b614551565b510151169060406115de898b614551565b019382600094613cb4565b9091929598506002939699508894975060405190613de982613fef565b865482528587015463ffffffff8082168685015281861c16604084015260401c16606082015281520192019201928c938796938c8c97948f613b61565b600094613bcc565b613b199150613b113495613af7565b90508581813d8311613e6b575b613e548183614078565b8101031261065157613e659061415c565b88613aa6565b503d613e4a565b34610651576020366003190112610651576004359063ffffffff60e01b82168092036106515760209163edb527eb60e01b8114908115613f46575b8115613f35575b8115613f24575b8115613f13575b8115613ed0575b5015158152f35b63301cdc3960e21b811491508115613f02575b8115613ef1575b5083613ec9565b6301ffc9a760e01b14905083613eea565b63144b000160e11b81149150613ee3565b63ad007d6360e01b81149150613ec2565b63fe663f0f60e01b81149150613ebb565b63bc8926e960e01b81149150613eb4565b6315933da760e11b81149150613ead565b604435906001600160a01b038216820361065157565b600435906001600160a01b038216820361065157565b606435906001600160a01b038216820361065157565b9181601f84011215610651578235916001600160401b038311610651576020838186019501011161065157565b60a435906001600160a01b038216820361065157565b6001600160401b0381116122a057604052565b608081019081106001600160401b038211176122a057604052565b604081019081106001600160401b038211176122a057604052565b61012081019081106001600160401b038211176122a057604052565b61014081019081106001600160401b038211176122a057604052565b602081019081106001600160401b038211176122a057604052565b601f909101601f19168101906001600160401b038211908210176122a057604052565b6001600160401b0381116122a057601f01601f191660200190565b9291926140c28261409b565b916140d06040519384614078565b829481845281830111610651578281602093846000960137010152565b9080601f8301121561065157816020614108933591016140b6565b90565b604d811161411957600a0a90565b634e487b7160e01b600052601160045260246000fd5b6040919493926060820195825260208201520152565b6001600160401b0381116122a05760051b60200190565b5190811515820361065157565b9081526001600160a01b03909116602082015260400190565b9190820391821161411957565b6040516370a0823160e01b81523060048201526020816024817f00000000000000000000000000000000000000000000000000000000000000006001600160a01b03165afa908115610645576000916141e6575090565b906020823d821161420f575b816141ff60209383614078565b8101031261420c57505190565b80fd5b3d91506141f2565b90916001600160a01b0391821630810361428c575061426361428a93614255849360405195869363a9059cbb60e01b6020860152166024840161431c565b03601f198101845283614078565b7f000000000000000000000000000000000000000000000000000000000000000016615481565b565b6040516323b872dd60e01b602082015260248101919091529282166044840152606480840191909152825260a0820191906001600160401b038311828410176122a05761428a926040527f000000000000000000000000000000000000000000000000000000000000000016615481565b9081602091031261065157516001600160a01b03811681036106515790565b6001600160a01b039091168152602081019190915260400190565b60005b83811061434a5750506000910152565b818101518382015260200161433a565b9060209161437381518092818552858086019101614337565b601f01601f1916010190565b909260c09261410895948352602083015260018060a01b0316604082015260a06060820152600060a0820152816080820152019061435a565b907f00000000000000000000000000000000000000000000000000000000000000006001600160a01b031681158015614480575b1561441c5761441761428a9361425560405194859263095ea7b360e01b60208501526024840161431c565b615481565b60405162461bcd60e51b815260206004820152603660248201527f5361666545524332303a20617070726f76652066726f6d206e6f6e2d7a65726f60448201527520746f206e6f6e2d7a65726f20616c6c6f77616e636560501b6064820152608490fd5b50604051636eb1769f60e11b8152602081806144a087306004840161457b565b0381855afa908115610645576000916144bb575b50156143ec565b906020823d82116144e4575b816144d460209383614078565b8101031261420c575051386144b4565b3d91506144c7565b805490600090818155826144ff57505050565b6001600160ff1b038316830361453d5781526020812091600190811b8301925b83811061452c5750505050565b80836002925583838201550161451f565b634e487b7160e01b82526011600452602482fd5b80518210156145655760209160051b010190565b634e487b7160e01b600052603260045260246000fd5b6001600160a01b0391821681529116602082015260400190565b604051906145a282614025565b816101006000918281528260208201528260408201528260608201528260808201528260a08201528260c08201528260e08201520152565b8092916101209182910312610651576040519081016001600160401b038111828210176122a0576040528092805182526020810151602083015260408101516040830152606081015160608301526080810151608083015260a081015160a083015260c081015160c083015260e081015160018060a01b03811681036106515760e083015261010080910151910152565b81601f820112156106515780516146818161409b565b9261468f6040519485614078565b81845260208284010111610651576141089160208085019101614337565b80516001600160a01b031682526020808201519083015260408082015190830152606090810151910152565b6141089160018060a01b0380835116825260208301516020830152604083015160408301526060830151606083015261471a608084015160808401906146ad565b60a08301519061473061010092838501906146ad565b60c08401511661018083015261475660e08401516101e0806101a086015284019061435a565b920151906101c081840391015261435a565b9190610140838203126106515761478261012091846145da565b92015190565b9190820180921161411957565b60c09080511515835260208101511515602084015260408101516040840152606081015160608401528160018060a01b039182608082015116608086015260a081015160a0860152015116910152565b8054600160401b8110156122a0576001810180835581101561456557600191600052602060002090821b0182518155019063ffffffff6020820151169082549163ffffffff60201b604083015160201b16916060600160401b600160e01b0391015160401b169263ffffffff60e01b161717179055565b909361010095946001806148738460025488615243565b9889930151604f1c1614600014614910575060607f77813be0661650ddc1a5193ff2837df4162b251cb432651e2c060c3fc39756be918360005260016020526148f860406000209663ffffffff90816002541691604051926148d484613fef565b8984526020840152841660408301526001600160a01b0316848201819052976147e5565b600254956040519182526020820152336040820152a4565b9250506000805160206158558339815191526149408461493260009686614945565b60405191829133908361457b565b0390a4565b604051630862026560e41b8152600160048201526001600160a01b037f00000000000000000000000000000000000000000000000000000000000000008116602483015291939291602090829060449082907f0000000000000000000000000000000000000000000000000000000000000000165afa90811561064557600091615187575b506001600160a01b03163081036150635750604051906149e98261405d565b60008252604051906149fa8261405d565b6000808352926001600160a01b03821615612b7f57614b2392614a1b614595565b508461265660405192614a2d84613fef565b7f00000000000000000000000000000000000000000000000000000000000000006001600160a01b03168452602084018a90527f00000000000000000000000000000000000000000000000000000000000000006040808601919091527f0000000000000000000000000000000000000000000000000000000000000000606086015251632fa1b39160e01b81523060048201529687928392614ad360248501886146ad565b600160a48501527f000000000000000000000000000000000000000000000000000000000000000060c48501526001600160a01b03891660e485015261014061010485015261014484019061435a565b0381837f00000000000000000000000000000000000000000000000000000000000000006001600160a01b03165af19081156150585785948687918894614f1d575b5080614de6575b508051614bd5575b505091614bca60019697926127196000805160206158758339815191529560208801519751986040519687963088528c8060a01b031660208801526040870152606086015260e0608086015260e085019061435a565b3360c08301520390a4565b604051614be181613fef565b60018060a01b037f00000000000000000000000000000000000000000000000000000000000000001681528960208201527f000000000000000000000000000000000000000000000000000000000000000060408201527f0000000000000000000000000000000000000000000000000000000000000000606082015260208701519260405193614c7185614041565b308552600160208601526040850152606084015260808301528660a083015260018060a01b03851660c0830152600060e0830152826101008301528361012083015280519060005b828110614cc7575050614b74565b614cd18183614551565b5180516020820151919291614cee916001600160a01b03166143b8565b6000917f00000000000000000000000000000000000000000000000000000000000000006001600160a01b031661eeee14614dda575b60208181015160808801519091015280516001600160a01b031692833b15610651576000906040519485809263da9ee8b760e01b82526020600483015281614d6f602482018d6151a6565b03925af192831561064557600193614dcb575b506000805160206158358339815191526020848060a01b03835116920151604051809160608252614db6606083018b6151a6565b9060208301523360408301520390a201614cb9565b614dd490613fdc565b38614d82565b60208101519250614d24565b604051632eec7b5560e11b815260016004820152919791906020826024817f00000000000000000000000000000000000000000000000000000000000000006001600160a01b03165afa918215614f12579160209184938492614ef0575b5060e4906040519485938492638ae9c07b60e01b845260016004850152602484015260018060a01b038c16604484015260c060648401528160c4840152816084840152600160a484015260018060a01b03165af1918215614ee4578092614eaf575b50509538614b6c565b9091506020823d602011614edc575b81614ecb60209383614078565b8101031261420c5750513880614ea6565b3d9150614ebe565b604051903d90823e3d90fd5b60e4919250614f0b90843d861161075b5761074d8183614078565b9190614e44565b6040513d85823e3d90fd5b9650505090503d908186863e614f338286614078565b61018085838101031261505457614f4c828601866145da565b610120860151610140870151909690936001600160401b03851161505057808201601f868401011215615050578482015194614f8786614145565b95614f956040519788614078565b808752602087019183850160208360061b83880101011161504c57602081860101925b60208360061b83880101018410614fff5750505050610160820151906001600160401b038211614ffb57614ff092908101910161466b565b909592909238614b65565b8980fd5b6040848688010312615048576040516150178161400a565b84516001600160a01b03811681036150445781526020858101518183015290825260409094019301614fb8565b8e80fd5b8c80fd5b8b80fd5b8880fd5b8580fd5b6040513d87823e3d90fd5b92836020926150768361514a96976143b8565b60007f00000000000000000000000000000000000000000000000000000000000000006001600160a01b031661eeee036151825750825b604051936150ba8561405d565b6000855260405196879586948593631ebc263f60e01b855260016004860152602485015260018060a01b037f000000000000000000000000000000000000000000000000000000000000000016604485015260018060a01b0316606484015260006084840152600060a484015261010060c4840152600061010484015261012060e484015261012483019061435a565b03925af180156106455761515b5750565b602090813d831161517b575b6151718183614078565b8101031261065157565b503d615167565b6150ad565b6151a0915060203d60201161075b5761074d8183614078565b386149ca565b6141089160018060a01b0380835116825260208301516020830152604083015160408301526151dd606084015160608401906146ad565b6151ef608084015160e08401906146ad565b60a083015161016083015260c08301511661018082015260e082015115156101a0820152610120615231610100840151610200806101c086015284019061435a565b920151906101e081840391015261435a565b9190612fb56152529282615629565b90633b9aca00820180921161411957612fb561410892826156b5565b604051630862026560e41b8152600160048201526001600160a01b037f00000000000000000000000000000000000000000000000000000000000000008116602483015260209182816044817f000000000000000000000000000000000000000000000000000000000000000086165afa801561064557829160009161538d575b50161561538257600354169182615309575b505050600090565b8190602460405180958193633bb4ac4b60e11b835260048301525afa918291600093615351575b505061533c5750600090565b633b9aca008111156141085750388080615301565b8181949293943d831161537b575b6153698183614078565b8101031261420c575051903880615330565b503d61535f565b505050633b9aca0090565b6153a49150843d861161075b5761074d8183614078565b386152ef565b81156153b4570490565b634e487b7160e01b600052601260045260246000fd5b90601281036153d7575090565b8060121160001461540a5760120360128111614119576153f69061410b565b908181029181830414901517156141195790565b601119810191908211614119576154236141089261410b565b906153aa565b6000546001600160a01b0316330361543d57565b606460405162461bcd60e51b815260206004820152602060248201527f4f776e61626c653a2063616c6c6572206973206e6f7420746865206f776e65726044820152fd5b60018060a01b0316906154fe6040516154998161400a565b6020938482527f5361666545524332303a206c6f772d6c6576656c2063616c6c206661696c6564858301526000808587829751910182855af13d15615588573d916154e38361409b565b926154f16040519485614078565b83523d868885013e61558c565b9081518061550d575b50505050565b8284918101031261420c575081615524910161415c565b1561553157808080615507565b6084906040519062461bcd60e51b82526004820152602a60248201527f5361666545524332303a204552433230206f7065726174696f6e20646964206e6044820152691bdd081cdd58d8d9595960b21b6064820152fd5b6060915b919290156155ee57508151156155a0575090565b3b156155a95790565b60405162461bcd60e51b815260206004820152601d60248201527f416464726573733a2063616c6c20746f206e6f6e2d636f6e74726163740000006044820152606490fd5b8251909150156156015750805190602001fd5b60405162461bcd60e51b81526020600482015290819061562590602483019061435a565b0390fd5b9190600019818409818402918280831092039180830392146156a857633b9aca00908183101561568a577f88f2cfb83100cb4e69e7c79c58b316e597157d372fb9787e8e47ce423a2e9c6d94950990828211900360f71b910360091c170290565b6044838360405191631dcf306360e21b835260048301526024820152fd5b5050633b9aca0090049150565b633b9aca0091600019838309928083029283808610950394808603951461574f578285101561573157908291096001821901821680920460028082600302188083028203028083028203028083028203028083028203028083028203028092029003029360018380600003040190848311900302920304170290565b6044858460405191631dcf306360e21b835260048301526024820152fd5b50509061410892506153aa565b9091600019838309928083029283808610950394808603951461574f57828510156157315790829109600182190182168092046002808260030218808302820302808302820302808302820302808302820302808302820302809202900302936001838060000304019084831190030292030417029056fe24352f49df447b14e0e08a323625c663d865ce20c343c4638af12e1dc48aa7609ecaf7fc3dfffd6867c175d6e684b1f1e3aef019398ba8db2c1ffab4a09db2538be0079c531659141344cd1fd0a4f28419497f9722a3daafe3b4186f6b6457e016112c26e14efc4be6c690149aa5a1ba75160de245f60d2273e28adb277b9e12cf0c92a2c6d7c42f488326b0cb900104b99984b6b218db81cd29371364a35251133161f1c9161488f777ab9a26aae91d47c0d9a3fafb398960f138db02c73797a2646970667358221220e6f32ba0a1fdecf12fe48e0975ad0f2cf1a03392ac6f4dcee1b8cdc7b45f4a1e64736f6c63430008110033",
    "linkReferences": {}
  },
  "methodIdentifiers": {
    "acceptsToken(address,uint256)": "df21a7dd",
    "addToBalanceOf(uint256,uint256,address,string,bytes)": "0cf8e858",
    "baseWeightCurrency()": "2d1a5903",
    "currency()": "e5a6b10f",
    "currencyForToken(address)": "1982d679",
    "currentEthOverflowOf(uint256)": "a32e1e96",
    "decimals()": "313ce567",
    "decimalsForToken(address)": "b7bad1b1",
    "directory()": "c41c2f24",
    "distributePayoutsOf(uint256,uint256,uint256,address,uint256,string)": "2b267b4e",
    "fee()": "ddca3f43",
    "feeGauge()": "d6dacc53",
    "heldFeesOf(uint256)": "8af56094",
    "isFeelessAddress(address)": "b631b500",
    "migrate(uint256,address)": "405b84fa",
    "operatorStore()": "ad007d63",
    "owner()": "8da5cb5b",
    "pay(uint256,uint256,address,address,uint256,bool,string,bytes)": "1ebc263f",
    "payoutSplitsGroup()": "66248b86",
    "prices()": "d3419bf3",
    "processFees(uint256)": "89701db5",
    "projects()": "8b79543c",
    "redeemTokensOf(address,uint256,uint256,address,uint256,address,string,bytes)": "fe663f0f",
    "renounceOwnership()": "715018a6",
    "setFee(uint256)": "69fe0e2d",
    "setFeeGauge(address)": "637913ac",
    "setFeelessAddress(address,bool)": "7258002c",
    "splitsStore()": "2bdfe004",
    "store()": "975057e7",
    "supportsInterface(bytes4)": "01ffc9a7",
    "token()": "fc0c546a",
    "transferOwnership(address)": "f2fde38b",
    "useAllowanceOf(uint256,uint256,uint256,address,uint256,address,string)": "bc8926e9"
  },
  "id": 71
}