{
  "abi": [
    {
      "inputs": [
        {
          "internalType": "address",
          "name": "_owner",
          "type": "address"
        }
      ],
      "stateMutability": "nonpayable",
      "type": "constructor"
    },
    {
      "inputs": [
        {
          "internalType": "uint256",
          "name": "prod1",
          "type": "uint256"
        },
        {
          "internalType": "uint256",
          "name": "denominator",
          "type": "uint256"
        }
      ],
      "name": "PRBMath__MulDivOverflow",
      "type": "error"
    },
    {
      "inputs": [],
      "name": "PRICE_FEED_ALREADY_EXISTS",
      "type": "error"
    },
    {
      "inputs": [],
      "name": "PRICE_FEED_NOT_FOUND",
      "type": "error"
    },
    {
      "anonymous": false,
      "inputs": [
        {
          "indexed": true,
          "internalType": "uint256",
          "name": "currency",
          "type": "uint256"
        },
        {
          "indexed": true,
          "internalType": "uint256",
          "name": "base",
          "type": "uint256"
        },
        {
          "indexed": false,
          "internalType": "contract IJBPriceFeed",
          "name": "feed",
          "type": "address"
        }
      ],
      "name": "AddFeed",
      "type": "event"
    },
    {
      "anonymous": false,
      "inputs": [
        {
          "indexed": true,
          "internalType": "address",
          "name": "previousOwner",
          "type": "address"
        },
        {
          "indexed": true,
          "internalType": "address",
          "name": "newOwner",
          "type": "address"
        }
      ],
      "name": "OwnershipTransferred",
      "type": "event"
    },
    {
      "inputs": [
        {
          "internalType": "uint256",
          "name": "_currency",
          "type": "uint256"
        },
        {
          "internalType": "uint256",
          "name": "_base",
          "type": "uint256"
        },
        {
          "internalType": "contract IJBPriceFeed",
          "name": "_feed",
          "type": "address"
        }
      ],
      "name": "addFeedFor",
      "outputs": [],
      "stateMutability": "nonpayable",
      "type": "function"
    },
    {
      "inputs": [
        {
          "internalType": "uint256",
          "name": "",
          "type": "uint256"
        },
        {
          "internalType": "uint256",
          "name": "",
          "type": "uint256"
        }
      ],
      "name": "feedFor",
      "outputs": [
        {
          "internalType": "contract IJBPriceFeed",
          "name": "",
          "type": "address"
        }
      ],
      "stateMutability": "view",
      "type": "function"
    },
    {
      "inputs": [],
      "name": "owner",
      "outputs": [
        {
          "internalType": "address",
          "name": "",
          "type": "address"
        }
      ],
      "stateMutability": "view",
      "type": "function"
    },
    {
      "inputs": [
        {
          "internalType": "uint256",
          "name": "_currency",
          "type": "uint256"
        },
        {
          "internalType": "uint256",
          "name": "_base",
          "type": "uint256"
        },
        {
          "internalType": "uint256",
          "name": "_decimals",
          "type": "uint256"
        }
      ],
      "name": "priceFor",
      "outputs": [
        {
          "internalType": "uint256",
          "name": "",
          "type": "uint256"
        }
      ],
      "stateMutability": "view",
      "type": "function"
    },
    {
      "inputs": [],
      "name": "renounceOwnership",
      "outputs": [],
      "stateMutability": "nonpayable",
      "type": "function"
    },
    {
      "inputs": [
        {
          "internalType": "address",
          "name": "newOwner",
          "type": "address"
        }
      ],
      "name": "transferOwnership",
      "outputs": [],
      "stateMutability": "nonpayable",
      "type": "function"
    }
  ],
  "bytecode": {
    "object": "0x60803461011b57601f61091438819003918201601f19168301916001600160401b038311848410176101205780849260209460405283398101031261011b57516001600160a01b038082169081830361011b5761005b33610136565b339060005416036100d757156100835761007490610136565b604051610796908161017e8239f35b60405162461bcd60e51b815260206004820152602660248201527f4f776e61626c653a206e6577206f776e657220697320746865207a65726f206160448201526564647265737360d01b6064820152608490fd5b606460405162461bcd60e51b815260206004820152602060248201527f4f776e61626c653a2063616c6c6572206973206e6f7420746865206f776e65726044820152fd5b600080fd5b634e487b7160e01b600052604160045260246000fd5b600080546001600160a01b039283166001600160a01b03198216811783559216907f8be0079c531659141344cd1fd0a4f28419497f9722a3daafe3b4186f6b6457e09080a356fe608060408181526004908136101561001657600080fd5b600092833560e01c90816315d63a911461036557508063715018a6146102f25780638da5cb5b146102bb57806396364e6d146101ad578063a4d0caf21461017b5763f2fde38b1461006657600080fd5b346101775760206003193601126101775781359173ffffffffffffffffffffffffffffffffffffffff91828416809403610173576100a26105f0565b83156100f057505082548273ffffffffffffffffffffffffffffffffffffffff198216178455167f8be0079c531659141344cd1fd0a4f28419497f9722a3daafe3b4186f6b6457e08380a380f35b90602060849251917f08c379a0000000000000000000000000000000000000000000000000000000008352820152602660248201527f4f776e61626c653a206e6577206f776e657220697320746865207a65726f206160448201527f64647265737300000000000000000000000000000000000000000000000000006064820152fd5b8480fd5b8280fd5b5082346101aa5760606003193601126101aa57506101a3602092604435906024359035610428565b9051908152f35b80fd5b50903461017757606060031936011261017757803590602435926044359073ffffffffffffffffffffffffffffffffffffffff928383168093036102b7576101f36105f0565b848752602093600185528288208789528552808389205416159081159161029c575b506102755750838652600183528086208587528352808620805473ffffffffffffffffffffffffffffffffffffffff191683179055519081527f2809ef679fa4c20b88a6467f2660840ad173b5205fef76c270c5d7ba44cb70579190a380f35b90517fd28d564f000000000000000000000000000000000000000000000000000000008152fd5b90506001855282882086895285528288205416151538610215565b8680fd5b8382346102ee57816003193601126102ee5773ffffffffffffffffffffffffffffffffffffffff60209254169051908152f35b5080fd5b83346101aa57806003193601126101aa5761030b6105f0565b8073ffffffffffffffffffffffffffffffffffffffff815473ffffffffffffffffffffffffffffffffffffffff1981168355167f8be0079c531659141344cd1fd0a4f28419497f9722a3daafe3b4186f6b6457e08280a380f35b929050346103a957816003193601126103a957358352600160209081528184206024358552815292205473ffffffffffffffffffffffffffffffffffffffff168152f35b8380fd5b604d81116103bb57600a0a90565b634e487b7160e01b600052601160045260246000fd5b90601f7fffffffffffffffffffffffffffffffffffffffffffffffffffffffffffffffe0910116810190811067ffffffffffffffff82111761041257604052565b634e487b7160e01b600052604160045260246000fd5b919290928383146105e35760009383855260209060018252604094858720828852835273ffffffffffffffffffffffffffffffffffffffff9182878920541680610557575087526001835285872090875282528486205416806104ae57600485517f75c9d5ca000000000000000000000000000000000000000000000000000000008152fd5b6104ba839594956103ad565b91806104c5856103ad565b9460248751809581937f7a3c4c1700000000000000000000000000000000000000000000000000000000835260048301525afa94851561054e57508694610517575b505061051493945061066f565b90565b9080929450813d8311610547575b61052f81836103d1565b81010312610173576105149394505191849338610507565b503d610525565b513d88823e3d90fd5b95979491505082915060248651809681937f7a3c4c1700000000000000000000000000000000000000000000000000000000835260048301525afa9384156105d8575081936105a7575b50505090565b9091809350813d83116105d1575b6105bf81836103d1565b810103126101aa5750513880806105a1565b503d6105b5565b51913d9150823e3d90fd5b90925061051491506103ad565b73ffffffffffffffffffffffffffffffffffffffff60005416330361061157565b60646040517f08c379a000000000000000000000000000000000000000000000000000000000815260206004820152602060248201527f4f776e61626c653a2063616c6c6572206973206e6f7420746865206f776e65726044820152fd5b90917fffffffffffffffffffffffffffffffffffffffffffffffffffffffffffffffff838309928083029283808610950394808603951461073c578285101561070557908291096001821901821680920460028082600302188083028203028083028203028083028203028083028203028083028203028092029003029360018380600003040190848311900302920304170290565b60448584604051917f773cc18c00000000000000000000000000000000000000000000000000000000835260048301526024820152fd5b50508092501561074a570490565b634e487b7160e01b600052601260045260246000fdfea264697066735822122055d234e439f3affb74967e14b46516c734a756e96b62c1b13ff5d460cb8ce5dc64736f6c63430008140033",
    "linkReferences": {}
  },
  "methodIdentifiers": {
    "addFeedFor(uint256,uint256,address)": "96364e6d",
    "feedFor(uint256,uint256)": "15d63a91",
    "owner()": "8da5cb5b",
    "priceFor(uint256,uint256,uint256)": "a4d0caf2",
    "renounceOwnership()": "715018a6",
    "transferOwnership(address)": "f2fde38b"
  },
  "id": 76
}