{
  "abi": [
    {
      "inputs": [],
      "name": "ALEADY_MINTED",
      "type": "error"
    },
    {
      "inputs": [],
      "name": "APPROVAL_TO_CURRENT_OWNER",
      "type": "error"
    },
    {
      "inputs": [],
      "name": "APPROVE_TO_CALLER",
      "type": "error"
    },
    {
      "inputs": [],
      "name": "BLOCK_NOT_YET_MINED",
      "type": "error"
    },
    {
      "inputs": [],
      "name": "CALLER_NOT_OWNER_OR_APPROVED",
      "type": "error"
    },
    {
      "inputs": [],
      "name": "DELEGATE_ADDRESS_ZERO",
      "type": "error"
    },
    {
      "inputs": [],
      "name": "INCORRECT_OWNER",
      "type": "error"
    },
    {
      "inputs": [],
      "name": "INVALID_PAYMENT_EVENT",
      "type": "error"
    },
    {
      "inputs": [],
      "name": "INVALID_REDEMPTION_EVENT",
      "type": "error"
    },
    {
      "inputs": [],
      "name": "INVALID_REDEMPTION_METADATA",
      "type": "error"
    },
    {
      "inputs": [],
      "name": "INVALID_TOKEN_ID",
      "type": "error"
    },
    {
      "inputs": [],
      "name": "MINT_TO_ZERO",
      "type": "error"
    },
    {
      "inputs": [],
      "name": "NOT_AVAILABLE",
      "type": "error"
    },
    {
      "inputs": [],
      "name": "OVERSPENDING",
      "type": "error"
    },
    {
      "inputs": [
        {
          "internalType": "uint256",
          "name": "prod1",
          "type": "uint256"
        },
        {
          "internalType": "uint256",
          "name": "denominator",
          "type": "uint256"
        }
      ],
      "name": "PRBMath__MulDivOverflow",
      "type": "error"
    },
    {
      "inputs": [],
      "name": "PRICING_RESOLVER_CHANGES_PAUSED",
      "type": "error"
    },
    {
      "inputs": [],
      "name": "RESERVED_TOKEN_MINTING_PAUSED",
      "type": "error"
    },
    {
      "inputs": [],
      "name": "TRANSFERS_PAUSED",
      "type": "error"
    },
    {
      "inputs": [],
      "name": "TRANSFER_TO_NON_IMPLEMENTER",
      "type": "error"
    },
    {
      "inputs": [],
      "name": "TRANSFER_TO_ZERO_ADDRESS",
      "type": "error"
    },
    {
      "inputs": [],
      "name": "UNAUTHORIZED",
      "type": "error"
    },
    {
      "inputs": [],
      "name": "UNEXPECTED_TOKEN_REDEEMED",
      "type": "error"
    },
    {
      "anonymous": false,
      "inputs": [
        {
          "indexed": true,
          "internalType": "uint256",
          "name": "changeAmount",
          "type": "uint256"
        },
        {
          "indexed": true,
          "internalType": "uint256",
          "name": "newTotalCredits",
          "type": "uint256"
        },
        {
          "indexed": true,
          "internalType": "address",
          "name": "account",
          "type": "address"
        },
        {
          "indexed": false,
          "internalType": "address",
          "name": "caller",
          "type": "address"
        }
      ],
      "name": "AddCredits",
      "type": "event"
    },
    {
      "anonymous": false,
      "inputs": [
        {
          "indexed": true,
          "internalType": "uint256",
          "name": "tierId",
          "type": "uint256"
        },
        {
          "components": [
            {
              "internalType": "uint80",
              "name": "contributionFloor",
              "type": "uint80"
            },
            {
              "internalType": "uint48",
              "name": "lockedUntil",
              "type": "uint48"
            },
            {
              "internalType": "uint40",
              "name": "initialQuantity",
              "type": "uint40"
            },
            {
              "internalType": "uint16",
              "name": "votingUnits",
              "type": "uint16"
            },
            {
              "internalType": "uint16",
              "name": "reservedRate",
              "type": "uint16"
            },
            {
              "internalType": "address",
              "name": "reservedTokenBeneficiary",
              "type": "address"
            },
            {
              "internalType": "uint8",
              "name": "royaltyRate",
              "type": "uint8"
            },
            {
              "internalType": "address",
              "name": "royaltyBeneficiary",
              "type": "address"
            },
            {
              "internalType": "bytes32",
              "name": "encodedIPFSUri",
              "type": "bytes32"
            },
            {
              "internalType": "uint8",
              "name": "category",
              "type": "uint8"
            },
            {
              "internalType": "bool",
              "name": "allowManualMint",
              "type": "bool"
            },
            {
              "internalType": "bool",
              "name": "shouldUseReservedTokenBeneficiaryAsDefault",
              "type": "bool"
            },
            {
              "internalType": "bool",
              "name": "shouldUseRoyaltyBeneficiaryAsDefault",
              "type": "bool"
            },
            {
              "internalType": "bool",
              "name": "transfersPausable",
              "type": "bool"
            }
          ],
          "indexed": false,
          "internalType": "struct JB721TierParams",
          "name": "data",
          "type": "tuple"
        },
        {
          "indexed": false,
          "internalType": "address",
          "name": "caller",
          "type": "address"
        }
      ],
      "name": "AddTier",
      "type": "event"
    },
    {
      "anonymous": false,
      "inputs": [
        {
          "indexed": true,
          "internalType": "address",
          "name": "owner",
          "type": "address"
        },
        {
          "indexed": true,
          "internalType": "address",
          "name": "approved",
          "type": "address"
        },
        {
          "indexed": true,
          "internalType": "uint256",
          "name": "tokenId",
          "type": "uint256"
        }
      ],
      "name": "Approval",
      "type": "event"
    },
    {
      "anonymous": false,
      "inputs": [
        {
          "indexed": true,
          "internalType": "address",
          "name": "owner",
          "type": "address"
        },
        {
          "indexed": true,
          "internalType": "address",
          "name": "operator",
          "type": "address"
        },
        {
          "indexed": false,
          "internalType": "bool",
          "name": "approved",
          "type": "bool"
        }
      ],
      "name": "ApprovalForAll",
      "type": "event"
    },
    {
      "anonymous": false,
      "inputs": [
        {
          "indexed": true,
          "internalType": "address",
          "name": "delegator",
          "type": "address"
        },
        {
          "indexed": true,
          "internalType": "address",
          "name": "fromDelegate",
          "type": "address"
        },
        {
          "indexed": true,
          "internalType": "address",
          "name": "toDelegate",
          "type": "address"
        }
      ],
      "name": "DelegateChanged",
      "type": "event"
    },
    {
      "anonymous": false,
      "inputs": [
        {
          "indexed": true,
          "internalType": "uint256",
          "name": "tokenId",
          "type": "uint256"
        },
        {
          "indexed": true,
          "internalType": "uint256",
          "name": "tierId",
          "type": "uint256"
        },
        {
          "indexed": true,
          "internalType": "address",
          "name": "beneficiary",
          "type": "address"
        },
        {
          "indexed": false,
          "internalType": "uint256",
          "name": "totalAmountContributed",
          "type": "uint256"
        },
        {
          "indexed": false,
          "internalType": "address",
          "name": "caller",
          "type": "address"
        }
      ],
      "name": "Mint",
      "type": "event"
    },
    {
      "anonymous": false,
      "inputs": [
        {
          "indexed": true,
          "internalType": "uint256",
          "name": "tokenId",
          "type": "uint256"
        },
        {
          "indexed": true,
          "internalType": "uint256",
          "name": "tierId",
          "type": "uint256"
        },
        {
          "indexed": true,
          "internalType": "address",
          "name": "beneficiary",
          "type": "address"
        },
        {
          "indexed": false,
          "internalType": "address",
          "name": "caller",
          "type": "address"
        }
      ],
      "name": "MintReservedToken",
      "type": "event"
    },
    {
      "anonymous": false,
      "inputs": [
        {
          "indexed": true,
          "internalType": "address",
          "name": "previousOwner",
          "type": "address"
        },
        {
          "indexed": true,
          "internalType": "address",
          "name": "newOwner",
          "type": "address"
        }
      ],
      "name": "OwnershipTransferred",
      "type": "event"
    },
    {
      "anonymous": false,
      "inputs": [
        {
          "indexed": true,
          "internalType": "uint256",
          "name": "tierId",
          "type": "uint256"
        },
        {
          "indexed": false,
          "internalType": "address",
          "name": "caller",
          "type": "address"
        }
      ],
      "name": "RemoveTier",
      "type": "event"
    },
    {
      "anonymous": false,
      "inputs": [
        {
          "indexed": true,
          "internalType": "string",
          "name": "baseUri",
          "type": "string"
        },
        {
          "indexed": false,
          "internalType": "address",
          "name": "caller",
          "type": "address"
        }
      ],
      "name": "SetBaseUri",
      "type": "event"
    },
    {
      "anonymous": false,
      "inputs": [
        {
          "indexed": true,
          "internalType": "string",
          "name": "contractUri",
          "type": "string"
        },
        {
          "indexed": false,
          "internalType": "address",
          "name": "caller",
          "type": "address"
        }
      ],
      "name": "SetContractUri",
      "type": "event"
    },
    {
      "anonymous": false,
      "inputs": [
        {
          "indexed": true,
          "internalType": "address",
          "name": "beneficiary",
          "type": "address"
        },
        {
          "indexed": false,
          "internalType": "address",
          "name": "caller",
          "type": "address"
        }
      ],
      "name": "SetDefaultReservedTokenBeneficiary",
      "type": "event"
    },
    {
      "anonymous": false,
      "inputs": [
        {
          "indexed": true,
          "internalType": "uint256",
          "name": "tierId",
          "type": "uint256"
        },
        {
          "indexed": false,
          "internalType": "bytes32",
          "name": "encodedIPFSUri",
          "type": "bytes32"
        },
        {
          "indexed": false,
          "internalType": "address",
          "name": "caller",
          "type": "address"
        }
      ],
      "name": "SetEncodedIPFSUri",
      "type": "event"
    },
    {
      "anonymous": false,
      "inputs": [
        {
          "indexed": true,
          "internalType": "contract IJBTokenUriResolver",
          "name": "newResolver",
          "type": "address"
        },
        {
          "indexed": false,
          "internalType": "address",
          "name": "caller",
          "type": "address"
        }
      ],
      "name": "SetTokenUriResolver",
      "type": "event"
    },
    {
      "anonymous": false,
      "inputs": [
        {
          "indexed": true,
          "internalType": "address",
          "name": "delegator",
          "type": "address"
        },
        {
          "indexed": true,
          "internalType": "address",
          "name": "fromDelegate",
          "type": "address"
        },
        {
          "indexed": true,
          "internalType": "address",
          "name": "toDelegate",
          "type": "address"
        },
        {
          "indexed": false,
          "internalType": "uint256",
          "name": "tierId",
          "type": "uint256"
        },
        {
          "indexed": false,
          "internalType": "address",
          "name": "caller",
          "type": "address"
        }
      ],
      "name": "TierDelegateChanged",
      "type": "event"
    },
    {
      "anonymous": false,
      "inputs": [
        {
          "indexed": true,
          "internalType": "address",
          "name": "delegate",
          "type": "address"
        },
        {
          "indexed": true,
          "internalType": "uint256",
          "name": "tierId",
          "type": "uint256"
        },
        {
          "indexed": false,
          "internalType": "uint256",
          "name": "previousBalance",
          "type": "uint256"
        },
        {
          "indexed": false,
          "internalType": "uint256",
          "name": "newBalance",
          "type": "uint256"
        },
        {
          "indexed": false,
          "internalType": "address",
          "name": "caller",
          "type": "address"
        }
      ],
      "name": "TierDelegateVotesChanged",
      "type": "event"
    },
    {
      "anonymous": false,
      "inputs": [
        {
          "indexed": true,
          "internalType": "address",
          "name": "from",
          "type": "address"
        },
        {
          "indexed": true,
          "internalType": "address",
          "name": "to",
          "type": "address"
        },
        {
          "indexed": true,
          "internalType": "uint256",
          "name": "tokenId",
          "type": "uint256"
        }
      ],
      "name": "Transfer",
      "type": "event"
    },
    {
      "anonymous": false,
      "inputs": [
        {
          "indexed": true,
          "internalType": "uint256",
          "name": "changeAmount",
          "type": "uint256"
        },
        {
          "indexed": true,
          "internalType": "uint256",
          "name": "newTotalCredits",
          "type": "uint256"
        },
        {
          "indexed": true,
          "internalType": "address",
          "name": "account",
          "type": "address"
        },
        {
          "indexed": false,
          "internalType": "address",
          "name": "caller",
          "type": "address"
        }
      ],
      "name": "UseCredits",
      "type": "event"
    },
    {
      "inputs": [
        {
          "components": [
            {
              "internalType": "uint80",
              "name": "contributionFloor",
              "type": "uint80"
            },
            {
              "internalType": "uint48",
              "name": "lockedUntil",
              "type": "uint48"
            },
            {
              "internalType": "uint40",
              "name": "initialQuantity",
              "type": "uint40"
            },
            {
              "internalType": "uint16",
              "name": "votingUnits",
              "type": "uint16"
            },
            {
              "internalType": "uint16",
              "name": "reservedRate",
              "type": "uint16"
            },
            {
              "internalType": "address",
              "name": "reservedTokenBeneficiary",
              "type": "address"
            },
            {
              "internalType": "uint8",
              "name": "royaltyRate",
              "type": "uint8"
            },
            {
              "internalType": "address",
              "name": "royaltyBeneficiary",
              "type": "address"
            },
            {
              "internalType": "bytes32",
              "name": "encodedIPFSUri",
              "type": "bytes32"
            },
            {
              "internalType": "uint8",
              "name": "category",
              "type": "uint8"
            },
            {
              "internalType": "bool",
              "name": "allowManualMint",
              "type": "bool"
            },
            {
              "internalType": "bool",
              "name": "shouldUseReservedTokenBeneficiaryAsDefault",
              "type": "bool"
            },
            {
              "internalType": "bool",
              "name": "shouldUseRoyaltyBeneficiaryAsDefault",
              "type": "bool"
            },
            {
              "internalType": "bool",
              "name": "transfersPausable",
              "type": "bool"
            }
          ],
          "internalType": "struct JB721TierParams[]",
          "name": "_tiersToAdd",
          "type": "tuple[]"
        },
        {
          "internalType": "uint256[]",
          "name": "_tierIdsToRemove",
          "type": "uint256[]"
        }
      ],
      "name": "adjustTiers",
      "outputs": [],
      "stateMutability": "nonpayable",
      "type": "function"
    },
    {
      "inputs": [
        {
          "internalType": "address",
          "name": "to",
          "type": "address"
        },
        {
          "internalType": "uint256",
          "name": "tokenId",
          "type": "uint256"
        }
      ],
      "name": "approve",
      "outputs": [],
      "stateMutability": "nonpayable",
      "type": "function"
    },
    {
      "inputs": [
        {
          "internalType": "address",
          "name": "_owner",
          "type": "address"
        }
      ],
      "name": "balanceOf",
      "outputs": [
        {
          "internalType": "uint256",
          "name": "balance",
          "type": "uint256"
        }
      ],
      "stateMutability": "view",
      "type": "function"
    },
    {
      "inputs": [],
      "name": "codeOrigin",
      "outputs": [
        {
          "internalType": "address",
          "name": "",
          "type": "address"
        }
      ],
      "stateMutability": "view",
      "type": "function"
    },
    {
      "inputs": [],
      "name": "contractURI",
      "outputs": [
        {
          "internalType": "string",
          "name": "",
          "type": "string"
        }
      ],
      "stateMutability": "view",
      "type": "function"
    },
    {
      "inputs": [
        {
          "internalType": "address",
          "name": "",
          "type": "address"
        }
      ],
      "name": "creditsOf",
      "outputs": [
        {
          "internalType": "uint256",
          "name": "",
          "type": "uint256"
        }
      ],
      "stateMutability": "view",
      "type": "function"
    },
    {
      "inputs": [
        {
          "components": [
            {
              "internalType": "address",
              "name": "payer",
              "type": "address"
            },
            {
              "internalType": "uint256",
              "name": "projectId",
              "type": "uint256"
            },
            {
              "internalType": "uint256",
              "name": "currentFundingCycleConfiguration",
              "type": "uint256"
            },
            {
              "components": [
                {
                  "internalType": "address",
                  "name": "token",
                  "type": "address"
                },
                {
                  "internalType": "uint256",
                  "name": "value",
                  "type": "uint256"
                },
                {
                  "internalType": "uint256",
                  "name": "decimals",
                  "type": "uint256"
                },
                {
                  "internalType": "uint256",
                  "name": "currency",
                  "type": "uint256"
                }
              ],
              "internalType": "struct JBTokenAmount",
              "name": "amount",
              "type": "tuple"
            },
            {
              "components": [
                {
                  "internalType": "address",
                  "name": "token",
                  "type": "address"
                },
                {
                  "internalType": "uint256",
                  "name": "value",
                  "type": "uint256"
                },
                {
                  "internalType": "uint256",
                  "name": "decimals",
                  "type": "uint256"
                },
                {
                  "internalType": "uint256",
                  "name": "currency",
                  "type": "uint256"
                }
              ],
              "internalType": "struct JBTokenAmount",
              "name": "forwardedAmount",
              "type": "tuple"
            },
            {
              "internalType": "uint256",
              "name": "projectTokenCount",
              "type": "uint256"
            },
            {
              "internalType": "address",
              "name": "beneficiary",
              "type": "address"
            },
            {
              "internalType": "bool",
              "name": "preferClaimedTokens",
              "type": "bool"
            },
            {
              "internalType": "string",
              "name": "memo",
              "type": "string"
            },
            {
              "internalType": "bytes",
              "name": "metadata",
              "type": "bytes"
            }
          ],
          "internalType": "struct JBDidPayData",
          "name": "_data",
          "type": "tuple"
        }
      ],
      "name": "didPay",
      "outputs": [],
      "stateMutability": "payable",
      "type": "function"
    },
    {
      "inputs": [
        {
          "components": [
            {
              "internalType": "address",
              "name": "holder",
              "type": "address"
            },
            {
              "internalType": "uint256",
              "name": "projectId",
              "type": "uint256"
            },
            {
              "internalType": "uint256",
              "name": "currentFundingCycleConfiguration",
              "type": "uint256"
            },
            {
              "internalType": "uint256",
              "name": "projectTokenCount",
              "type": "uint256"
            },
            {
              "components": [
                {
                  "internalType": "address",
                  "name": "token",
                  "type": "address"
                },
                {
                  "internalType": "uint256",
                  "name": "value",
                  "type": "uint256"
                },
                {
                  "internalType": "uint256",
                  "name": "decimals",
                  "type": "uint256"
                },
                {
                  "internalType": "uint256",
                  "name": "currency",
                  "type": "uint256"
                }
              ],
              "internalType": "struct JBTokenAmount",
              "name": "reclaimedAmount",
              "type": "tuple"
            },
            {
              "components": [
                {
                  "internalType": "address",
                  "name": "token",
                  "type": "address"
                },
                {
                  "internalType": "uint256",
                  "name": "value",
                  "type": "uint256"
                },
                {
                  "internalType": "uint256",
                  "name": "decimals",
                  "type": "uint256"
                },
                {
                  "internalType": "uint256",
                  "name": "currency",
                  "type": "uint256"
                }
              ],
              "internalType": "struct JBTokenAmount",
              "name": "forwardedAmount",
              "type": "tuple"
            },
            {
              "internalType": "address payable",
              "name": "beneficiary",
              "type": "address"
            },
            {
              "internalType": "string",
              "name": "memo",
              "type": "string"
            },
            {
              "internalType": "bytes",
              "name": "metadata",
              "type": "bytes"
            }
          ],
          "internalType": "struct JBDidRedeemData",
          "name": "_data",
          "type": "tuple"
        }
      ],
      "name": "didRedeem",
      "outputs": [],
      "stateMutability": "payable",
      "type": "function"
    },
    {
      "inputs": [],
      "name": "directory",
      "outputs": [
        {
          "internalType": "contract IJBDirectory",
          "name": "",
          "type": "address"
        }
      ],
      "stateMutability": "view",
      "type": "function"
    },
    {
      "inputs": [
        {
          "internalType": "uint256",
          "name": "_tokenId",
          "type": "uint256"
        }
      ],
      "name": "firstOwnerOf",
      "outputs": [
        {
          "internalType": "address",
          "name": "",
          "type": "address"
        }
      ],
      "stateMutability": "view",
      "type": "function"
    },
    {
      "inputs": [],
      "name": "fundingCycleStore",
      "outputs": [
        {
          "internalType": "contract IJBFundingCycleStore",
          "name": "",
          "type": "address"
        }
      ],
      "stateMutability": "view",
      "type": "function"
    },
    {
      "inputs": [
        {
          "internalType": "uint256",
          "name": "tokenId",
          "type": "uint256"
        }
      ],
      "name": "getApproved",
      "outputs": [
        {
          "internalType": "address",
          "name": "",
          "type": "address"
        }
      ],
      "stateMutability": "view",
      "type": "function"
    },
    {
      "inputs": [
        {
          "internalType": "uint256",
          "name": "_tier",
          "type": "uint256"
        },
        {
          "internalType": "uint256",
          "name": "_blockNumber",
          "type": "uint256"
        }
      ],
      "name": "getPastTierTotalVotes",
      "outputs": [
        {
          "internalType": "uint256",
          "name": "",
          "type": "uint256"
        }
      ],
      "stateMutability": "view",
      "type": "function"
    },
    {
      "inputs": [
        {
          "internalType": "address",
          "name": "_account",
          "type": "address"
        },
        {
          "internalType": "uint256",
          "name": "_tier",
          "type": "uint256"
        },
        {
          "internalType": "uint256",
          "name": "_blockNumber",
          "type": "uint256"
        }
      ],
      "name": "getPastTierVotes",
      "outputs": [
        {
          "internalType": "uint256",
          "name": "",
          "type": "uint256"
        }
      ],
      "stateMutability": "view",
      "type": "function"
    },
    {
      "inputs": [
        {
          "internalType": "address",
          "name": "_account",
          "type": "address"
        },
        {
          "internalType": "uint256",
          "name": "_tier",
          "type": "uint256"
        }
      ],
      "name": "getTierDelegate",
      "outputs": [
        {
          "internalType": "address",
          "name": "",
          "type": "address"
        }
      ],
      "stateMutability": "view",
      "type": "function"
    },
    {
      "inputs": [
        {
          "internalType": "uint256",
          "name": "_tier",
          "type": "uint256"
        }
      ],
      "name": "getTierTotalVotes",
      "outputs": [
        {
          "internalType": "uint256",
          "name": "",
          "type": "uint256"
        }
      ],
      "stateMutability": "view",
      "type": "function"
    },
    {
      "inputs": [
        {
          "internalType": "address",
          "name": "_account",
          "type": "address"
        },
        {
          "internalType": "uint256",
          "name": "_tier",
          "type": "uint256"
        }
      ],
      "name": "getTierVotes",
      "outputs": [
        {
          "internalType": "uint256",
          "name": "",
          "type": "uint256"
        }
      ],
      "stateMutability": "view",
      "type": "function"
    },
    {
      "inputs": [
        {
          "internalType": "uint256",
          "name": "_projectId",
          "type": "uint256"
        },
        {
          "internalType": "contract IJBDirectory",
          "name": "_directory",
          "type": "address"
        },
        {
          "internalType": "string",
          "name": "_name",
          "type": "string"
        },
        {
          "internalType": "string",
          "name": "_symbol",
          "type": "string"
        },
        {
          "internalType": "contract IJBFundingCycleStore",
          "name": "_fundingCycleStore",
          "type": "address"
        },
        {
          "internalType": "string",
          "name": "_baseUri",
          "type": "string"
        },
        {
          "internalType": "contract IJBTokenUriResolver",
          "name": "_tokenUriResolver",
          "type": "address"
        },
        {
          "internalType": "string",
          "name": "_contractUri",
          "type": "string"
        },
        {
          "components": [
            {
              "components": [
                {
                  "internalType": "uint80",
                  "name": "contributionFloor",
                  "type": "uint80"
                },
                {
                  "internalType": "uint48",
                  "name": "lockedUntil",
                  "type": "uint48"
                },
                {
                  "internalType": "uint40",
                  "name": "initialQuantity",
                  "type": "uint40"
                },
                {
                  "internalType": "uint16",
                  "name": "votingUnits",
                  "type": "uint16"
                },
                {
                  "internalType": "uint16",
                  "name": "reservedRate",
                  "type": "uint16"
                },
                {
                  "internalType": "address",
                  "name": "reservedTokenBeneficiary",
                  "type": "address"
                },
                {
                  "internalType": "uint8",
                  "name": "royaltyRate",
                  "type": "uint8"
                },
                {
                  "internalType": "address",
                  "name": "royaltyBeneficiary",
                  "type": "address"
                },
                {
                  "internalType": "bytes32",
                  "name": "encodedIPFSUri",
                  "type": "bytes32"
                },
                {
                  "internalType": "uint8",
                  "name": "category",
                  "type": "uint8"
                },
                {
                  "internalType": "bool",
                  "name": "allowManualMint",
                  "type": "bool"
                },
                {
                  "internalType": "bool",
                  "name": "shouldUseReservedTokenBeneficiaryAsDefault",
                  "type": "bool"
                },
                {
                  "internalType": "bool",
                  "name": "shouldUseRoyaltyBeneficiaryAsDefault",
                  "type": "bool"
                },
                {
                  "internalType": "bool",
                  "name": "transfersPausable",
                  "type": "bool"
                }
              ],
              "internalType": "struct JB721TierParams[]",
              "name": "tiers",
              "type": "tuple[]"
            },
            {
              "internalType": "uint256",
              "name": "currency",
              "type": "uint256"
            },
            {
              "internalType": "uint256",
              "name": "decimals",
              "type": "uint256"
            },
            {
              "internalType": "contract IJBPrices",
              "name": "prices",
              "type": "address"
            }
          ],
          "internalType": "struct JB721PricingParams",
          "name": "_pricing",
          "type": "tuple"
        },
        {
          "internalType": "contract IJBTiered721DelegateStore",
          "name": "_store",
          "type": "address"
        },
        {
          "components": [
            {
              "internalType": "bool",
              "name": "lockReservedTokenChanges",
              "type": "bool"
            },
            {
              "internalType": "bool",
              "name": "lockVotingUnitChanges",
              "type": "bool"
            },
            {
              "internalType": "bool",
              "name": "lockManualMintingChanges",
              "type": "bool"
            },
            {
              "internalType": "bool",
              "name": "preventOverspending",
              "type": "bool"
            }
          ],
          "internalType": "struct JBTiered721Flags",
          "name": "_flags",
          "type": "tuple"
        }
      ],
      "name": "initialize",
      "outputs": [],
      "stateMutability": "nonpayable",
      "type": "function"
    },
    {
      "inputs": [
        {
          "internalType": "address",
          "name": "owner",
          "type": "address"
        },
        {
          "internalType": "address",
          "name": "operator",
          "type": "address"
        }
      ],
      "name": "isApprovedForAll",
      "outputs": [
        {
          "internalType": "bool",
          "name": "",
          "type": "bool"
        }
      ],
      "stateMutability": "view",
      "type": "function"
    },
    {
      "inputs": [
        {
          "components": [
            {
              "internalType": "uint16[]",
              "name": "tierIds",
              "type": "uint16[]"
            },
            {
              "internalType": "address",
              "name": "beneficiary",
              "type": "address"
            }
          ],
          "internalType": "struct JBTiered721MintForTiersData[]",
          "name": "_mintForTiersData",
          "type": "tuple[]"
        }
      ],
      "name": "mintFor",
      "outputs": [],
      "stateMutability": "nonpayable",
      "type": "function"
    },
    {
      "inputs": [
        {
          "internalType": "uint16[]",
          "name": "_tierIds",
          "type": "uint16[]"
        },
        {
          "internalType": "address",
          "name": "_beneficiary",
          "type": "address"
        }
      ],
      "name": "mintFor",
      "outputs": [
        {
          "internalType": "uint256[]",
          "name": "tokenIds",
          "type": "uint256[]"
        }
      ],
      "stateMutability": "nonpayable",
      "type": "function"
    },
    {
      "inputs": [
        {
          "components": [
            {
              "internalType": "uint256",
              "name": "tierId",
              "type": "uint256"
            },
            {
              "internalType": "uint256",
              "name": "count",
              "type": "uint256"
            }
          ],
          "internalType": "struct JBTiered721MintReservesForTiersData[]",
          "name": "_mintReservesForTiersData",
          "type": "tuple[]"
        }
      ],
      "name": "mintReservesFor",
      "outputs": [],
      "stateMutability": "nonpayable",
      "type": "function"
    },
    {
      "inputs": [
        {
          "internalType": "uint256",
          "name": "_tierId",
          "type": "uint256"
        },
        {
          "internalType": "uint256",
          "name": "_count",
          "type": "uint256"
        }
      ],
      "name": "mintReservesFor",
      "outputs": [],
      "stateMutability": "nonpayable",
      "type": "function"
    },
    {
      "inputs": [],
      "name": "name",
      "outputs": [
        {
          "internalType": "string",
          "name": "",
          "type": "string"
        }
      ],
      "stateMutability": "view",
      "type": "function"
    },
    {
      "inputs": [],
      "name": "owner",
      "outputs": [
        {
          "internalType": "address",
          "name": "",
          "type": "address"
        }
      ],
      "stateMutability": "view",
      "type": "function"
    },
    {
      "inputs": [
        {
          "internalType": "uint256",
          "name": "tokenId",
          "type": "uint256"
        }
      ],
      "name": "ownerOf",
      "outputs": [
        {
          "internalType": "address",
          "name": "",
          "type": "address"
        }
      ],
      "stateMutability": "view",
      "type": "function"
    },
    {
      "inputs": [
        {
          "components": [
            {
              "internalType": "contract IJBPaymentTerminal",
              "name": "terminal",
              "type": "address"
            },
            {
              "internalType": "address",
              "name": "payer",
              "type": "address"
            },
            {
              "components": [
                {
                  "internalType": "address",
                  "name": "token",
                  "type": "address"
                },
                {
                  "internalType": "uint256",
                  "name": "value",
                  "type": "uint256"
                },
                {
                  "internalType": "uint256",
                  "name": "decimals",
                  "type": "uint256"
                },
                {
                  "internalType": "uint256",
                  "name": "currency",
                  "type": "uint256"
                }
              ],
              "internalType": "struct JBTokenAmount",
              "name": "amount",
              "type": "tuple"
            },
            {
              "internalType": "uint256",
              "name": "projectId",
              "type": "uint256"
            },
            {
              "internalType": "uint256",
              "name": "currentFundingCycleConfiguration",
              "type": "uint256"
            },
            {
              "internalType": "address",
              "name": "beneficiary",
              "type": "address"
            },
            {
              "internalType": "uint256",
              "name": "weight",
              "type": "uint256"
            },
            {
              "internalType": "uint256",
              "name": "reservedRate",
              "type": "uint256"
            },
            {
              "internalType": "string",
              "name": "memo",
              "type": "string"
            },
            {
              "internalType": "bytes",
              "name": "metadata",
              "type": "bytes"
            }
          ],
          "internalType": "struct JBPayParamsData",
          "name": "_data",
          "type": "tuple"
        }
      ],
      "name": "payParams",
      "outputs": [
        {
          "internalType": "uint256",
          "name": "weight",
          "type": "uint256"
        },
        {
          "internalType": "string",
          "name": "memo",
          "type": "string"
        },
        {
          "components": [
            {
              "internalType": "contract IJBPayDelegate",
              "name": "delegate",
              "type": "address"
            },
            {
              "internalType": "uint256",
              "name": "amount",
              "type": "uint256"
            }
          ],
          "internalType": "struct JBPayDelegateAllocation[]",
          "name": "delegateAllocations",
          "type": "tuple[]"
        }
      ],
      "stateMutability": "view",
      "type": "function"
    },
    {
      "inputs": [],
      "name": "prices",
      "outputs": [
        {
          "internalType": "contract IJBPrices",
          "name": "",
          "type": "address"
        }
      ],
      "stateMutability": "view",
      "type": "function"
    },
    {
      "inputs": [],
      "name": "pricingCurrency",
      "outputs": [
        {
          "internalType": "uint256",
          "name": "",
          "type": "uint256"
        }
      ],
      "stateMutability": "view",
      "type": "function"
    },
    {
      "inputs": [],
      "name": "pricingDecimals",
      "outputs": [
        {
          "internalType": "uint256",
          "name": "",
          "type": "uint256"
        }
      ],
      "stateMutability": "view",
      "type": "function"
    },
    {
      "inputs": [],
      "name": "projectId",
      "outputs": [
        {
          "internalType": "uint256",
          "name": "",
          "type": "uint256"
        }
      ],
      "stateMutability": "view",
      "type": "function"
    },
    {
      "inputs": [
        {
          "components": [
            {
              "internalType": "contract IJBPaymentTerminal",
              "name": "terminal",
              "type": "address"
            },
            {
              "internalType": "address",
              "name": "holder",
              "type": "address"
            },
            {
              "internalType": "uint256",
              "name": "projectId",
              "type": "uint256"
            },
            {
              "internalType": "uint256",
              "name": "currentFundingCycleConfiguration",
              "type": "uint256"
            },
            {
              "internalType": "uint256",
              "name": "tokenCount",
              "type": "uint256"
            },
            {
              "internalType": "uint256",
              "name": "totalSupply",
              "type": "uint256"
            },
            {
              "internalType": "uint256",
              "name": "overflow",
              "type": "uint256"
            },
            {
              "components": [
                {
                  "internalType": "address",
                  "name": "token",
                  "type": "address"
                },
                {
                  "internalType": "uint256",
                  "name": "value",
                  "type": "uint256"
                },
                {
                  "internalType": "uint256",
                  "name": "decimals",
                  "type": "uint256"
                },
                {
                  "internalType": "uint256",
                  "name": "currency",
                  "type": "uint256"
                }
              ],
              "internalType": "struct JBTokenAmount",
              "name": "reclaimAmount",
              "type": "tuple"
            },
            {
              "internalType": "bool",
              "name": "useTotalOverflow",
              "type": "bool"
            },
            {
              "internalType": "uint256",
              "name": "redemptionRate",
              "type": "uint256"
            },
            {
              "internalType": "string",
              "name": "memo",
              "type": "string"
            },
            {
              "internalType": "bytes",
              "name": "metadata",
              "type": "bytes"
            }
          ],
          "internalType": "struct JBRedeemParamsData",
          "name": "_data",
          "type": "tuple"
        }
      ],
      "name": "redeemParams",
      "outputs": [
        {
          "internalType": "uint256",
          "name": "reclaimAmount",
          "type": "uint256"
        },
        {
          "internalType": "string",
          "name": "memo",
          "type": "string"
        },
        {
          "components": [
            {
              "internalType": "contract IJBRedemptionDelegate",
              "name": "delegate",
              "type": "address"
            },
            {
              "internalType": "uint256",
              "name": "amount",
              "type": "uint256"
            }
          ],
          "internalType": "struct JBRedemptionDelegateAllocation[]",
          "name": "delegateAllocations",
          "type": "tuple[]"
        }
      ],
      "stateMutability": "view",
      "type": "function"
    },
    {
      "inputs": [
        {
          "internalType": "uint256[]",
          "name": "_tokenIds",
          "type": "uint256[]"
        },
        {
          "components": [
            {
              "internalType": "contract IJBPaymentTerminal",
              "name": "terminal",
              "type": "address"
            },
            {
              "internalType": "address",
              "name": "holder",
              "type": "address"
            },
            {
              "internalType": "uint256",
              "name": "projectId",
              "type": "uint256"
            },
            {
              "internalType": "uint256",
              "name": "currentFundingCycleConfiguration",
              "type": "uint256"
            },
            {
              "internalType": "uint256",
              "name": "tokenCount",
              "type": "uint256"
            },
            {
              "internalType": "uint256",
              "name": "totalSupply",
              "type": "uint256"
            },
            {
              "internalType": "uint256",
              "name": "overflow",
              "type": "uint256"
            },
            {
              "components": [
                {
                  "internalType": "address",
                  "name": "token",
                  "type": "address"
                },
                {
                  "internalType": "uint256",
                  "name": "value",
                  "type": "uint256"
                },
                {
                  "internalType": "uint256",
                  "name": "decimals",
                  "type": "uint256"
                },
                {
                  "internalType": "uint256",
                  "name": "currency",
                  "type": "uint256"
                }
              ],
              "internalType": "struct JBTokenAmount",
              "name": "reclaimAmount",
              "type": "tuple"
            },
            {
              "internalType": "bool",
              "name": "useTotalOverflow",
              "type": "bool"
            },
            {
              "internalType": "uint256",
              "name": "redemptionRate",
              "type": "uint256"
            },
            {
              "internalType": "string",
              "name": "memo",
              "type": "string"
            },
            {
              "internalType": "bytes",
              "name": "metadata",
              "type": "bytes"
            }
          ],
          "internalType": "struct JBRedeemParamsData",
          "name": "",
          "type": "tuple"
        }
      ],
      "name": "redemptionWeightOf",
      "outputs": [
        {
          "internalType": "uint256",
          "name": "",
          "type": "uint256"
        }
      ],
      "stateMutability": "view",
      "type": "function"
    },
    {
      "inputs": [],
      "name": "renounceOwnership",
      "outputs": [],
      "stateMutability": "nonpayable",
      "type": "function"
    },
    {
      "inputs": [
        {
          "internalType": "uint256",
          "name": "_tokenId",
          "type": "uint256"
        },
        {
          "internalType": "uint256",
          "name": "_salePrice",
          "type": "uint256"
        }
      ],
      "name": "royaltyInfo",
      "outputs": [
        {
          "internalType": "address",
          "name": "",
          "type": "address"
        },
        {
          "internalType": "uint256",
          "name": "",
          "type": "uint256"
        }
      ],
      "stateMutability": "view",
      "type": "function"
    },
    {
      "inputs": [
        {
          "internalType": "address",
          "name": "from",
          "type": "address"
        },
        {
          "internalType": "address",
          "name": "to",
          "type": "address"
        },
        {
          "internalType": "uint256",
          "name": "tokenId",
          "type": "uint256"
        }
      ],
      "name": "safeTransferFrom",
      "outputs": [],
      "stateMutability": "nonpayable",
      "type": "function"
    },
    {
      "inputs": [
        {
          "internalType": "address",
          "name": "from",
          "type": "address"
        },
        {
          "internalType": "address",
          "name": "to",
          "type": "address"
        },
        {
          "internalType": "uint256",
          "name": "tokenId",
          "type": "uint256"
        },
        {
          "internalType": "bytes",
          "name": "data",
          "type": "bytes"
        }
      ],
      "name": "safeTransferFrom",
      "outputs": [],
      "stateMutability": "nonpayable",
      "type": "function"
    },
    {
      "inputs": [
        {
          "internalType": "address",
          "name": "operator",
          "type": "address"
        },
        {
          "internalType": "bool",
          "name": "approved",
          "type": "bool"
        }
      ],
      "name": "setApprovalForAll",
      "outputs": [],
      "stateMutability": "nonpayable",
      "type": "function"
    },
    {
      "inputs": [
        {
          "internalType": "string",
          "name": "_baseUri",
          "type": "string"
        }
      ],
      "name": "setBaseUri",
      "outputs": [],
      "stateMutability": "nonpayable",
      "type": "function"
    },
    {
      "inputs": [
        {
          "internalType": "string",
          "name": "_contractUri",
          "type": "string"
        }
      ],
      "name": "setContractUri",
      "outputs": [],
      "stateMutability": "nonpayable",
      "type": "function"
    },
    {
      "inputs": [
        {
          "internalType": "address",
          "name": "_beneficiary",
          "type": "address"
        }
      ],
      "name": "setDefaultReservedTokenBeneficiary",
      "outputs": [],
      "stateMutability": "nonpayable",
      "type": "function"
    },
    {
      "inputs": [
        {
          "internalType": "uint256",
          "name": "_tierId",
          "type": "uint256"
        },
        {
          "internalType": "bytes32",
          "name": "_encodedIPFSUri",
          "type": "bytes32"
        }
      ],
      "name": "setEncodedIPFSUriOf",
      "outputs": [],
      "stateMutability": "nonpayable",
      "type": "function"
    },
    {
      "inputs": [
        {
          "internalType": "address",
          "name": "_delegatee",
          "type": "address"
        },
        {
          "internalType": "uint256",
          "name": "_tierId",
          "type": "uint256"
        }
      ],
      "name": "setTierDelegate",
      "outputs": [],
      "stateMutability": "nonpayable",
      "type": "function"
    },
    {
      "inputs": [
        {
          "components": [
            {
              "internalType": "address",
              "name": "delegatee",
              "type": "address"
            },
            {
              "internalType": "uint256",
              "name": "tierId",
              "type": "uint256"
            }
          ],
          "internalType": "struct JBTiered721SetTierDelegatesData[]",
          "name": "_setTierDelegatesData",
          "type": "tuple[]"
        }
      ],
      "name": "setTierDelegates",
      "outputs": [],
      "stateMutability": "nonpayable",
      "type": "function"
    },
    {
      "inputs": [
        {
          "internalType": "contract IJBTokenUriResolver",
          "name": "_tokenUriResolver",
          "type": "address"
        }
      ],
      "name": "setTokenUriResolver",
      "outputs": [],
      "stateMutability": "nonpayable",
      "type": "function"
    },
    {
      "inputs": [],
      "name": "store",
      "outputs": [
        {
          "internalType": "contract IJBTiered721DelegateStore",
          "name": "",
          "type": "address"
        }
      ],
      "stateMutability": "view",
      "type": "function"
    },
    {
      "inputs": [
        {
          "internalType": "bytes4",
          "name": "_interfaceId",
          "type": "bytes4"
        }
      ],
      "name": "supportsInterface",
      "outputs": [
        {
          "internalType": "bool",
          "name": "",
          "type": "bool"
        }
      ],
      "stateMutability": "view",
      "type": "function"
    },
    {
      "inputs": [],
      "name": "symbol",
      "outputs": [
        {
          "internalType": "string",
          "name": "",
          "type": "string"
        }
      ],
      "stateMutability": "view",
      "type": "function"
    },
    {
      "inputs": [
        {
          "internalType": "uint256",
          "name": "_tokenId",
          "type": "uint256"
        }
      ],
      "name": "tokenURI",
      "outputs": [
        {
          "internalType": "string",
          "name": "",
          "type": "string"
        }
      ],
      "stateMutability": "view",
      "type": "function"
    },
    {
      "inputs": [
        {
          "components": [
            {
              "internalType": "contract IJBPaymentTerminal",
              "name": "terminal",
              "type": "address"
            },
            {
              "internalType": "address",
              "name": "holder",
              "type": "address"
            },
            {
              "internalType": "uint256",
              "name": "projectId",
              "type": "uint256"
            },
            {
              "internalType": "uint256",
              "name": "currentFundingCycleConfiguration",
              "type": "uint256"
            },
            {
              "internalType": "uint256",
              "name": "tokenCount",
              "type": "uint256"
            },
            {
              "internalType": "uint256",
              "name": "totalSupply",
              "type": "uint256"
            },
            {
              "internalType": "uint256",
              "name": "overflow",
              "type": "uint256"
            },
            {
              "components": [
                {
                  "internalType": "address",
                  "name": "token",
                  "type": "address"
                },
                {
                  "internalType": "uint256",
                  "name": "value",
                  "type": "uint256"
                },
                {
                  "internalType": "uint256",
                  "name": "decimals",
                  "type": "uint256"
                },
                {
                  "internalType": "uint256",
                  "name": "currency",
                  "type": "uint256"
                }
              ],
              "internalType": "struct JBTokenAmount",
              "name": "reclaimAmount",
              "type": "tuple"
            },
            {
              "internalType": "bool",
              "name": "useTotalOverflow",
              "type": "bool"
            },
            {
              "internalType": "uint256",
              "name": "redemptionRate",
              "type": "uint256"
            },
            {
              "internalType": "string",
              "name": "memo",
              "type": "string"
            },
            {
              "internalType": "bytes",
              "name": "metadata",
              "type": "bytes"
            }
          ],
          "internalType": "struct JBRedeemParamsData",
          "name": "",
          "type": "tuple"
        }
      ],
      "name": "totalRedemptionWeight",
      "outputs": [
        {
          "internalType": "uint256",
          "name": "",
          "type": "uint256"
        }
      ],
      "stateMutability": "view",
      "type": "function"
    },
    {
      "inputs": [
        {
          "internalType": "address",
          "name": "from",
          "type": "address"
        },
        {
          "internalType": "address",
          "name": "to",
          "type": "address"
        },
        {
          "internalType": "uint256",
          "name": "tokenId",
          "type": "uint256"
        }
      ],
      "name": "transferFrom",
      "outputs": [],
      "stateMutability": "nonpayable",
      "type": "function"
    },
    {
      "inputs": [
        {
          "internalType": "address",
          "name": "newOwner",
          "type": "address"
        }
      ],
      "name": "transferOwnership",
      "outputs": [],
      "stateMutability": "nonpayable",
      "type": "function"
    }
  ],
  "bytecode": {
    "object": "0x608080604052346100665760078054336001600160a01b03198083168217909355906001600160a01b03167f8be0079c531659141344cd1fd0a4f28419497f9722a3daafe3b4186f6b6457e0600080a3309060085416176008556157a490816200006c8239f35b600080fdfe6080604052600436101561001257600080fd5b60003560e01c806301ffc9a71461035757806306fdde0314610352578063081812fc1461034d578063095ea7b3146103485780631d153ca41461034357806323b872dd1461033e5780632407497e14610339578063245a45b51461033457806325eb91ee1461032f5780632a55205a1461032a5780632a596e53146103255780632b13c58f1461032057806336c1a93b1461031b5780633fafa1271461031657806342842e0e146103115780634ecba6251461030c578063525350ba1461030757806354c6d1f514610302578063557e7155146102fd5780636352211e146102f857806364640c1e146102f35780636ac6d941146102ee57806370a08231146102e9578063715018a6146102e45780637ba62bf9146102df57806382732b6d146102da5780638da5cb5b146102d55780639494bf72146102d057806394c5c5ca146102cb57806395d89b41146102c6578063975057e7146102c1578063a0bcfc7f146102bc578063a22cb465146102b7578063a51cfd18146102b2578063aa4fb15b146102ad578063ab951e39146102a8578063b88d4fde146102a3578063c41c2f241461029e578063c74b13d914610299578063c87b56dd14610294578063ca323efe1461028f578063ccb4807b1461028a578063d1704baf14610285578063d31cc52c14610280578063d3419bf31461027b578063d40e714614610276578063d46cf17114610271578063da9ee8b71461026c578063df487e2614610267578063e8a3d48514610262578063e985e9c51461025d5763f2fde38b1461025857600080fd5b6120cd565b612065565b611fdd565b611f2e565b611e47565b611d8c565b611cd2565b611ca9565b611c7b565b611bb3565b61185d565b61180a565b6117d7565b611726565b6116fd565b611696565b61161a565b6115fb565b611571565b6114c2565b611401565b61138f565b6112ea565b6112af565b611296565b61126d565b611221565b6111c3565b610fe8565b610f46565b610eea565b610e98565b610e7a565b610e51565b610e33565b610d74565b610d56565b610d2e565b610d10565b610c65565b610a82565b6109aa565b6108ff565b61088d565b610820565b610740565b61070c565b6106b7565b610616565b6105c8565b6104e9565b610373565b6001600160e01b031981160361036e57565b600080fd5b3461036e57602036600319011261036e576103c16004356103938161035c565b63ffffffff60e01b166306decc2d60e21b81149081156103c5575b5060405190151581529081906020820190565b0390f35b63b3bcbb7960e01b811491508115610471575b8115610460575b811561044f575b811561043e575b81156103fb575b50386103ae565b6380ac58cd60e01b81149150811561042d575b811561041c575b50386103f4565b6301ffc9a760e01b14905038610415565b635b5e139f60e01b8114915061040e565b63152a902d60e11b811491506103ed565b632b13c58f60e01b811491506103e6565b63da9ee8b760e01b811491506103df565b6371700c6960e01b811491506103d8565b600091031261036e57565b60005b8381106104a05750506000910152565b8181015183820152602001610490565b906020916104c98151809281855285808601910161048d565b601f01601f1916010190565b9060206104e69281815201906104b0565b90565b3461036e576000806003193601126105c5576040519080805461050b81613481565b8085529160019180831690811561059b5750600114610541575b6103c185610535818703826110e0565b604051918291826104d5565b80809450527f290decd9548b62a8d60345a988386fc84ba6bc95484008f6362f93160ef3e5635b828410610583575050508101602001610535826103c1610525565b80546020858701810191909152909301928101610568565b8695506103c19693506020925061053594915060ff191682840152151560051b8201019293610525565b80fd5b3461036e57602036600319011261036e5760206105e66004356134bb565b6040516001600160a01b039091168152f35b6001600160a01b0381160361036e57565b3590610614826105f8565b565b3461036e57604036600319011261036e57600435610633816105f8565b6024356001600160a01b03806106488361344e565b1680918416146106a55780331415908161067f575b5061066d5761066b91613ed2565b005b60405163e5fa0e3560e01b8152600490fd5b600090815260046020908152604080832033845290915290205460ff161590503861065d565b60405163133f8be960e01b8152600490fd5b3461036e57600036600319011261036e576008546040516001600160a01b039091168152602090f35b606090600319011261036e576004356106f8816105f8565b90602435610705816105f8565b9060443590565b3461036e5761071a366106e0565b906107258233613532565b1561066d5761066b92613be7565b60c43590610614826105f8565b3461036e57600060203660031901126105c55760043561075f816105f8565b61076761517e565b6009546001600160a01b03908116803b1561081c5760405163036129cb60e61b81526001600160a01b03841660048201529084908290602490829084905af18015610817576107e4575b506040513381529116907fe7784d93cfbfa4408e19577e6cc0436f4dbb51214b70e100905dfce9def88c1690602090a280f35b926108107fe7784d93cfbfa4408e19577e6cc0436f4dbb51214b70e100905dfce9def88c16929461105c565b92906107b1565b6122fa565b8380fd5b3461036e57602036600319011261036e5760043561083d816105f8565b60018060a01b0316600052600e6020526020604060002054604051908152f35b9181601f8401121561036e578235916001600160401b03831161036e576020808501948460051b01011161036e57565b3461036e57604036600319011261036e576004356001600160401b0380821161036e573660238301121561036e5781600401359181831161036e573660246101c085028301011161036e5760243591821161036e5761066b926108f6602493369060040161085d565b93909201612c75565b3461036e5760408060031936011261036e5760648160018060a01b03600954168151928380926329c5eaf560e11b8252306004830152600435602483015260243560448301525afa918215610817576000918293610975575b50516001600160a01b039190911681526020810191909152604090f35b8161099b9294506103c193503d85116109a3575b61099381836110e0565b810190612539565b929091610958565b503d610989565b3461036e5760208060031936011261036e57600435906001600160401b039081831161036e573660238401121561036e57826004013591821161036e576024926006368585831b8401011161036e5760005b848110610a0557005b80821b83019060409182602319823603011261036e5785610a439160019451610a2d81611074565b60448b83013592838352013592839101526130cf565b016109fc565b90816101e091031261036e5790565b602060031982011261036e57600435906001600160401b03821161036e576104e691600401610a49565b610a8b36610a58565b3415801590610bd3575b8015610bc3575b610bb1576101c081016024610ab18284614068565b9050108015610b79575b610b6757610acc610ad49183614068565b810190614124565b915050805160005b818110610aec5761066b83614ba9565b610af6818461219f565b5190610b1c610b0f836000526002602052604060002090565b546001600160a01b031690565b610b34610b2887612c6b565b6001600160a01b031690565b6001600160a01b0390911603610b5557610b4f600192614c04565b01610adc565b60405163075fd2b160e01b8152600490fd5b604051632a84050f60e01b8152600490fd5b50610b8d610b878284614068565b9061409a565b63b3bcbb7960e01b916001600160e01b031991610ba9916140bc565b161415610abb565b604051633efca5c360e11b8152600490fd5b5060055460208201351415610a9c565b50600654610c1d90602090610bf0906001600160a01b0316610b28565b600554604051636e49181f60e01b8152600481019190915233602482015292839190829081906044820190565b03915afa90811561081757600091610c37575b5015610a95565b610c58915060203d8111610c5e575b610c5081836110e0565b810190614589565b38610c30565b503d610c46565b3461036e5760208060031936011261036e576001600160401b039060043582811161036e57610c9890369060040161085d565b9190610ca261517e565b60005b838110610cae57005b60059080821b830135603e198436030181121561036e5783018035601e198236030181121561036e5781019283359388851161036e5786859101911b3603811361036e57600193610d0387610d099401612c6b565b916132bc565b5001610ca5565b3461036e57600036600319011261036e576020600554604051908152f35b3461036e5761066b610d3f366106e0565b9060405192610d4d846110aa565b600084526134f3565b3461036e57600036600319011261036e576020600d54604051908152f35b3461036e57604036600319011261036e57600435602435610d9361517e565b6009546001600160a01b031690813b1561036e57600080926044604051809581936324de8d6360e11b83528860048401528660248401525af1908115610817577f677da4fed654db8e604791fa2582f342e2001aa217e27f6985eb3e0f67e5a7fc92610e1592610e1a575b506040805191825233602083015290918291820190565b0390a2005b80610e27610e2d9261105c565b80610482565b38610dfe565b3461036e57602036600319011261036e5760206105e660043561249f565b3461036e57600036600319011261036e57600a546040516001600160a01b039091168152602090f35b3461036e57602036600319011261036e5760206105e660043561344e565b3461036e57600036600319011261036e576020600c54604051908152f35b90815180825260208080930193019160005b828110610ed6575050505090565b835185529381019392810192600101610ec8565b3461036e57604036600319011261036e576004356001600160401b03811161036e57610f32610f206103c192369060040161085d565b60243591610f2d836105f8565b6132bc565b604051918291602083526020830190610eb6565b3461036e57602036600319011261036e57600435610f63816105f8565b600954604051633de222bb60e21b81523060048201526001600160a01b0392831660248201529160209183916044918391165afa8015610817576103c191600091610fba575b506040519081529081906020820190565b610fdb915060203d8111610fe1575b610fd381836110e0565b8101906122eb565b38610fa9565b503d610fc9565b3461036e576000806003193601126105c55761100261517e565b600780546001600160a01b0319811690915581906001600160a01b03167f8be0079c531659141344cd1fd0a4f28419497f9722a3daafe3b4186f6b6457e08280a380f35b634e487b7160e01b600052604160045260246000fd5b6001600160401b03811161106f57604052565b611046565b604081019081106001600160401b0382111761106f57604052565b608081019081106001600160401b0382111761106f57604052565b602081019081106001600160401b0382111761106f57604052565b606081019081106001600160401b0382111761106f57604052565b90601f801991011681019081106001600160401b0382111761106f57604052565b604051906101c082018281106001600160401b0382111761106f57604052565b6040519061061482611074565b6040519061012082018281106001600160401b0382111761106f57604052565b6001600160401b03811161106f5760051b60200190565b81601f8201121561036e5780359161117c8361114e565b9261118a60405194856110e0565b808452602092838086019260051b82010192831161036e578301905b8282106111b4575050505090565b813581529083019083016111a6565b3461036e57604036600319011261036e576001600160401b0360043581811161036e576111f4903690600401611165565b9060243590811161036e57602091611213611219923690600401610a49565b50612725565b604051908152f35b3461036e57604036600319011261036e576020600435611240816105f8565b60018060a01b03809116600052600f82526040600020602435600052825260406000205416604051908152f35b3461036e57600036600319011261036e576007546040516001600160a01b039091168152602090f35b3461036e576112a436610a58565b50602061121961278d565b3461036e57602036600319011261036e576004356000526011602052602060018060e01b036112e160406000206153da565b16604051908152f35b3461036e576000806003193601126105c5576040519080600180549161130f83613481565b8086529282811690811561059b5750600114611335576103c185610535818703826110e0565b92508083527fb10e2d527612073b26eecdfd717e6a320cf44b4afac2b0732d9fcbe2b7fa0cf65b828410611377575050508101602001610535826103c1610525565b8054602085870181019190915290930192810161135c565b3461036e57600036600319011261036e576009546040516001600160a01b039091168152602090f35b90602060031983011261036e576004356001600160401b039283821161036e578060238301121561036e57816004013593841161036e576024848301011161036e576024019190565b3461036e5761140f366113b8565b61141761517e565b600954600091906001600160a01b0316803b156114a9578260405180926331315e5960e11b825281838161144f888b6004840161301e565b03925af1801561081757611496575b506114699192613046565b7f7bc9110d5de090dd59e07912d2b93a5a27ac70a60c8d8e324db4f9ee8b8b5c136020604051338152a280f35b916114a36114699361105c565b9161145e565b8280fd5b8015150361036e57565b3590610614826114ad565b3461036e57604036600319011261036e576004356114df816105f8565b6024356114eb816114ad565b6001600160a01b0382169133831461155f573360009081526004602090815260408083206001600160a01b039094168352929052209015159060ff1981541660ff83161790556040519081527f17307eab39ab6107e8899845ad3d59bd9653f200f220920489ca2b5937696c3160203392a3005b6040516306f8139d60e11b8152600490fd5b3461036e5761158761158236610a58565b61415e565b6040929192805193849384526115a960209160608387015260608601906104b0565b90848203838601528080855193848152019401926000905b8382106115ce5786860387f35b845180516001600160a01b03168752830151868401528796509485019493820193600191909101906115c1565b3461036e57604036600319011261036e5761066b6024356004356130cf565b3461036e57604036600319011261036e5761066b60043561163a816105f8565b602435903361221c565b6001600160401b03811161106f57601f01601f191660200190565b92919261166b82611644565b9161167960405193846110e0565b82948184528183011161036e578281602093846000960137010152565b3461036e57608036600319011261036e576004356116b3816105f8565b6024356116bf816105f8565b606435916001600160401b03831161036e573660238401121561036e576116f361066b93369060248160040135910161165f565b91604435916134f3565b3461036e57600036600319011261036e576006546040516001600160a01b039091168152602090f35b3461036e5760208060031936011261036e57600435906001600160401b03821161036e573660238301121561036e578160040135916117648361114e565b91604093611774855194856110e0565b80845260248285019160061b8401019236841161036e57602401905b8382106117a05761066b856121b3565b858236031261036e5782869182516117b781611074565b84356117c2816105f8565b81528285013583820152815201910190611790565b3461036e57602036600319011261036e576103c16117f66004356125b6565b6040519182916020835260208301906104b0565b3461036e57604036600319011261036e57600435611827816105f8565b6001600160a01b03166000908152601060209081526040808320602435845282529091206001600160e01b03906112e1906153da565b3461036e5761186b366113b8565b61187361517e565b600954600091906001600160a01b0316803b156114a95782604051809263d67b78fd60e01b82528183816118ab888b6004840161301e565b03925af18015610817576118f2575b506118c59192613046565b7fd36dc0c1a06103fdcaf15f3f6fb797d1a97997514c78de073640c8b5005454b86020604051338152a280f35b916118ff6118c59361105c565b916118ba565b60243590610614826105f8565b9080601f8301121561036e578160206104e69335910161165f565b60843590610614826105f8565b359069ffffffffffffffffffff8216820361036e57565b359065ffffffffffff8216820361036e57565b359064ffffffffff8216820361036e57565b61ffff81160361036e57565b359061061482611976565b359060ff8216820361036e57565b919091608090818185031261036e5760408051926119b88461108f565b839583356001600160401b03811161036e57840181601f8201121561036e578035906119e38261114e565b926119f0865194856110e0565b82845260209485850191866101c08096028501019381851161036e578701925b848410611a435750505092875250505080830135908401528082013590830152606090611a3e908201610609565b910152565b858483031261036e57878691611a57611101565b611a608761193a565b8152611a6d838801611951565b83820152611a7c8c8801611964565b8c8201526060611a8d818901611982565b90820152611a9c868801611982565b8682015260a0611aad818901610609565b9082015260c0611abe81890161198d565b9082015260e0611acf818901610609565b908201526101008088013590820152610120611aec81890161198d565b90820152610140611afe8189016114b7565b90820152610160611b108189016114b7565b90820152610180611b228189016114b7565b908201526101a0611b348189016114b7565b90820152815201930192611a10565b6101243590610614826105f8565b60809061014319011261036e5760405190611b6b8261108f565b8161014435611b79816114ad565b815261016435611b88816114ad565b602082015261018435611b9a816114ad565b604082015260606101a43591611baf836114ad565b0152565b3461036e576101c036600319011261036e57611bcd611905565b6044356001600160401b039182821161036e57611bef60049236908401611912565b60643584811161036e57611c069036908501611912565b611c0e61192d565b60a43586811161036e57611c259036908701611912565b611c2d610733565b9160e43588811161036e57611c459036908901611912565b936101043598891161036e57611c6161066b9936908a0161199b565b95611c6a611b43565b97611c7436611b51565b9935612969565b3461036e57604036600319011261036e5760043560005260116020526020611219602435604060002061521f565b3461036e57600036600319011261036e57600b546040516001600160a01b039091168152602090f35b3461036e57606036600319011261036e57600435611cef816105f8565b60018060a01b0316600052601060205260406000206024356000526020526020611219604435604060002061521f565b91908252611d3960209160608385015260608401906104b0565b90604092838184039101528080855193848152019401926000905b838210611d6357505050505090565b845180516001600160a01b03168752830151868401529485019493820193600190910190611d54565b3461036e576020600319818136011261036e57600435906001600160401b03821161036e576101a090823603011261036e57611dd9611dd2610164830183600401614068565b369161165f565b60405190611de682611074565b6001825260005b848110611e315750906103c191610124946000611e08611121565b30815291820152611e188361218d565b52611e228261218d565b50604051948594013584611d1f565b8490611e3b61215e565b82828601015201611ded565b60031960203682011261036e57600435906001600160401b03821161036e5761020090823603011261036e57600554341590811591611eba575b8115611eab575b50611e995761066b906004016146ba565b6040516331c57b1b60e21b8152600490fd5b90506024820135141538611e88565b600654909150611ed2906001600160a01b0316610b28565b604051636e49181f60e01b81526004810183905233602482015290602090829060449082905afa90811561081757600091611f10575b501590611e81565b611f28915060203d8111610c5e57610c5081836110e0565b38611f08565b3461036e57602036600319011261036e57600435611f4b816105f8565b611f5361517e565b6009546001600160a01b0390811691823b1561036e576000916024839260405194859384926317161f7d60e01b845216968760048401525af1801561081757611fca575b506040513381527fab0014d4c7a642a02a31b303a318908c22b0fb2001f107278fc6076b4c671b65908060208101610e15565b80610e27611fd79261105c565b38611f97565b3461036e576000806003193601126105c557600954604051630155619b60e71b8152306004820152908290829060249082906001600160a01b03165afa90811561081757826103c19392612042575b50506040519182916020835260208301906104b0565b61205e92503d8091833e61205681836110e0565b810190612558565b388061202c565b3461036e57604036600319011261036e57602060ff6120c1600435612089816105f8565b60243590612096826105f8565b60018060a01b03166000526004845260406000209060018060a01b0316600052602052604060002090565b54166040519015158152f35b3461036e57602036600319011261036e576004356120ea816105f8565b6120f261517e565b6001600160a01b0381161561210a5761066b906151d6565b60405162461bcd60e51b815260206004820152602660248201527f4f776e61626c653a206e6577206f776e657220697320746865207a65726f206160448201526564647265737360d01b6064820152608490fd5b6040519061216b82611074565b60006020838281520152565b634e487b7160e01b600052603260045260246000fd5b80511561219a5760200190565b612177565b805182101561219a5760209160051b010190565b8051906121be61215e565b5060005b8281106121ce57505050565b6121d8818361219f565b5180519091906001600160a01b039081161561220a57826020612204926001955116910151903361221c565b016121c2565b6040516314f4c13d60e21b8152600490fd5b6001600160a01b039081166000818152600f602090815260408083208784528252822080548686166001600160a01b03198216811790925592969195919491939282169291869184847f3134e8a2e6d97e929a7e54011ea5485d7d196dd5f0ba4d4ef95803e8e3fc257f8b80a460095416916064604051809481936305c9a1d560e31b835230600484015260248301528860448301525afa9485156108175761061496956122cc575b5050612306565b6122e3929550803d10610fe157610fd381836110e0565b9238806122c5565b9081602091031261036e575190565b6040513d6000823e3d90fd5b91926001600160a01b03808316939192919081168085148015612423575b61241b578591816123ae575b5050508261233f575b50505050565b6001600160a01b031660009081526010602052604090207fed0c1e94c302bdbbd8bbd6a4fb7c3ed335c2292407cd816eadd075d019d0ce049161238d918560005260205260406000206153b2565b6040805192835260208301919091523390820152606090a338808080612339565b6001600160a01b03166000908152601060205260409020826000526020527fed0c1e94c302bdbbd8bbd6a4fb7c3ed335c2292407cd816eadd075d019d0ce046123fb856040600020615318565b6040805192835260208301919091523390820152606090a3833880612330565b505050505050565b508315612324565b634e487b7160e01b600052601160045260246000fd5b9190820180921161244e57565b61242b565b9061271091820391821161244e57565b60001981019190821161244e57565b9190820391821161244e57565b5190610614826105f8565b9081602091031261036e57516104e6816105f8565b6009546040516308ed6c0160e41b8152306004820152602481018390526001600160a01b0392916020908290604490829087165afa9081156108175760009161250b575b508281166125055750612500906000526002602052604060002090565b541690565b91505090565b61252c915060203d8111612532575b61252481836110e0565b81019061248a565b386124e3565b503d61251a565b919082604091031261036e5760208251612552816105f8565b92015190565b60208183031261036e578051906001600160401b03821161036e570181601f8201121561036e57805161258a81611644565b9261259860405194856110e0565b8184526020828401011161036e576104e6916020808501910161048d565b6009546125cb906001600160a01b0316610b28565b604051630fab094760e01b8152306004820152602092908381602481865afa90811561081757600091612708575b506001600160a01b0316806126be575060405163f682eeaf60e01b8152306004820152600081602481865afa918215610817576126669385926000946126a3575b50604051630c8df17160e41b815230600482015260248101929092529093849190829081906044820190565b03915afa918215610817576104e693600093612684575b5050614de1565b61269b929350803d10610fe157610fd381836110e0565b90388061267d565b6126b791943d8091833e61205681836110e0565b923861263a565b604051636d02a25560e11b8152600481019290925290925060009150829060249082905afa908115610817576000916126f5575090565b6104e6913d8091833e61205681836110e0565b61271f9150843d86116125325761252481836110e0565b386125f9565b602061275f9160018060a01b0360095416604051808095819463051330b560e21b8352306004840152604060248401526044830190610eb6565b03915afa90811561081757600091612775575090565b6104e6915060203d8111610fe157610fd381836110e0565b600954604051631572f24960e11b815230600482015290602090829060249082906001600160a01b03165afa90811561081757600091612775575090565b81601f8201121561036e578051916127e28361114e565b926127f060405194856110e0565b808452602092838086019260051b82010192831161036e578301905b82821061281a575050505090565b8151815290830190830161280c565b9060208282031261036e5781516001600160401b03811161036e576104e692016127cb565b60208082019080835283518092528060408094019401926000905b83821061287857505050505090565b9091929394836101c060019261295c895161289f83825169ffffffffffffffffffff169052565b8085015165ffffffffffff16838601528087015164ffffffffff168388015260608181015161ffff169084015260808181015161ffff169084015260a0818101516001600160a01b03169084015260c08181015160ff169084015260e0818101516001600160a01b03169084015261010081810151908401526101208082015160ff16908401526101408181015115159084015261016081810151151590840152610180818101511515908401526101a090810151151590830152565b0196019493920190612869565b9092999896939197959499612988610b2860085460018060a01b031690565b301461036e576009546001600160a01b0399908a906129a8908216610b28565b1661036e576129dc946129ba9361428f565b60018060a01b03166bffffffffffffffffffffffff60a01b600a541617600a55565b600980546001600160a01b0319166001600160a01b038616179055612a046020840151600c55565b604096612a1388850151600d55565b6060840151600b80546001600160a01b0319166001600160a01b039092169190911790558051612c1a575b508051612bc9575b50838116612b76575b50518051612b21575b50825115158015612b14575b8015612b08575b8015612afb575b612a84575b50505050610614336151d6565b1691823b1561036e57516365c13f1960e11b815281511515600482015260208201511515602482015260408201511515604482015260609091015115156064820152906000908290608490829084905af1801561081757612ae8575b808080612a77565b80610e27612af59261105c565b38612ae0565b5060608301511515612a72565b50828401511515612a6b565b5060208301511515612a64565b6000612b409186518093819263229dad5f60e11b83526004830161284e565b0381838787165af180156108175715612a5857612b6f903d806000833e612b6781836110e0565b810190612829565b5038612a58565b838316803b1561036e57865163036129cb60e61b81526001600160a01b039290921660048301526000908290602490829084905af180156108175715612a4f5780610e27612bc39261105c565b38612a4f565b848416803b1561036e57875163d67b78fd60e01b8152916000918391829084908290612bf890600483016104d5565b03925af180156108175715612a465780610e27612c149261105c565b38612a46565b858516803b1561036e5788516331315e5960e11b8152916000918391829084908290612c4990600483016104d5565b03925af180156108175715612a3e5780610e27612c659261105c565b38612a3e565b356104e6816105f8565b919092612c8061517e565b80612d5e575b505081612c91575050565b600954612ca6906001600160a01b0316610b28565b9160409060008251809563229dad5f60e11b8252818381612ccb878a60048401612fab565b03925af193841561081757600094612d43575b5060005b818110612cf0575050505050565b80612cfd6001928761219f565b517f8aa4a03deb8db10032373886aa0376c918ccf36bcdb59ca4da2a807ac7ff1a04612d3a612d2d84878a612fe9565b8751918291339083612ffa565b0390a201612ce2565b612d5791943d8091833e612b6781836110e0565b9238612cde565b600954612d73906001600160a01b0316610b28565b90813b1561036e576040916000835180926320512ba160e01b8252818381612d9f888b60048401612e15565b03925af1801561081757612e02575b5060005b818110612dc0575050612c86565b80612dce6001928487612e3e565b84513381529035907f832d89d991be5351d793c20faf4b7dd44f8aa9ce39e3cb160c6317de6fbba72990602090a201612db2565b80610e27612e0f9261105c565b38612dae565b602080825281018390526001600160fb1b03831161036e5760409260051b809284830137010190565b919081101561219a5760051b0190565b9061061491612e7082612e608361193a565b69ffffffffffffffffffff169052565b612e8e612e7f60208301611951565b65ffffffffffff166020840152565b612eab612e9d60408301611964565b64ffffffffff166040840152565b612ec5612eba60608301611982565b61ffff166060840152565b612edf612ed460808301611982565b61ffff166080840152565b612efe612eee60a08301610609565b6001600160a01b031660a0840152565b612f17612f0d60c0830161198d565b60ff1660c0840152565b612f36612f2660e08301610609565b6001600160a01b031660e0840152565b6101008082013590830152612f5b610120612f5281840161198d565b60ff1690840152565b612f74610140612f6c8184016114b7565b151590840152565b612f85610160612f6c8184016114b7565b612f96610180612f6c8184016114b7565b612fa46101a08092016114b7565b1515910152565b602080825281018390526040019160005b818110612fc95750505090565b90919280612fd960019286612e4e565b6101c09081019401929101612fbc565b919081101561219a576101c0020190565b9092916101c090613010836101e0810196612e4e565b6001600160a01b0316910152565b90918060409360208452816020850152848401376000828201840152601f01601f1916010190565b81604051928392833781016000815203902090565b908161012091031261036e5761306f61112e565b90805182526020810151602083015260408101516040830152606081015160608301526080810151608083015260a081015160a083015260c081015160c08301526130bc60e0820161247f565b60e0830152610100809101519082015290565b600a546130e4906001600160a01b0316610b28565b600554604080516321d1336160e11b81526004810192909252929161012091908290829060249082905afa9182156108175761313c9260ff926101009260009261328f575b5050015160f41c1660018091811c161490565b61327e57600954613155906001600160a01b0316610b28565b8251635d53f40760e11b8152600481018390526024810185905292906000908490604490829084905af192831561081757600093613263575b506009546131a4906001600160a01b0316610b28565b81516304db994760e21b8152306004820152602481018490529390602090859060449082905afa93841561081757600094613243575b5060005b8581106131ed57505050505050565b806131fa6001928461219f565b5161320581886135aa565b845133815260a084901b84900388169187917f031e1988c95a91ec4d655ff63a8f87a80bc9daf28d95ae10ee08c0022cfb5c8b90602090a4016131de565b61325c91945060203d81116125325761252481836110e0565b92386131da565b61327791933d8091833e612b6781836110e0565b913861318e565b8151631d2c125760e31b8152600490fd5b6132ae9250803d106132b5575b6132a681836110e0565b81019061305b565b3880613129565b503d61329c565b916132c561517e565b6009546132da906001600160a01b0316610b28565b9260409060008251809663eaa19ab360e01b82528183816132ff8a88600484016133e9565b03925af19485156108175760009561339b575b5060005b84811061332557505050505090565b806133326001928861219f565b5161333d81876135aa565b61ffff61335361334e848a88612e3e565b613444565b86516000815233602082015260a086901b86900389169391909216917f598baf7bf150ca2f42be9e9f8f55e81d45f5715c3ff22bf46d697fabec7f31d690604090a401613316565b6133b791953d8091833e6133af81836110e0565b8101906133bf565b509338613312565b919060408382031261036e5782516001600160401b03811161036e576020916125529185016127cb565b929160608401906000198552806020926060848801525260808501929160005b82811061341e57505050506040600191930152565b90919293828060019261ffff883561343581611976565b16815201950193929101613409565b356104e681611976565b6000908152600260205260409020546001600160a01b0316801561346f5790565b60405163b49aa3b560e01b8152600490fd5b90600182811c921680156134b1575b602083101461349b57565b634e487b7160e01b600052602260045260246000fd5b91607f1691613490565b6000818152600260205260409020546001600160a01b03161561346f576000908152600360205260409020546001600160a01b031690565b9291906135008233613532565b1561066d5783613514838361351997613be7565b613fac565b1561352057565b6040516336f57c1b60e11b8152600490fd5b6001600160a01b03806135448461344e565b16928183169284841494851561357a575b50508315613564575b50505090565b613570919293506134bb565b161438808061355e565b60009081526004602090815260408083206001600160a01b03949094168352929052205460ff1693503880613555565b6001600160a01b0381169291908315613736576000828152600260205260409020546001600160a01b031661372457600082815260026020526040812080546001600160a01b0319166001600160a01b0384161790559361367192908190867fddf252ad1be2c89b69c2b068fc378daa952ba7f163c4a11628f55a4df523b3ef8180a4600954613642906001600160a01b0316610b28565b60405163b67cb04760e01b815230600482015260248101929092526101c0939091908490829081906044820190565b0381855afa9384156108175786946136f5575b50508251813b156136f1576040516330b157e560e21b81526004810191909152600060248201526001600160a01b03831660448201529394908490606490829084905af192831561081757610614936136de575b506139e5565b80610e276136eb9261105c565b386136d8565b8580fd5b613715929450803d1061371d575b61370d81836110e0565b810190613753565b913880613684565b503d613703565b604051632eb5f0c360e21b8152600490fd5b604051633904578f60e11b8152600490fd5b5190610614826114ad565b90816101c091031261036e57613767611101565b90805182526020810151602083015260408101516040830152606081015160608301526080810151608083015260a081015160a083015260c081015160c08301526137b460e0820161247f565b60e083015261010080820151908301526101206137d281830161247f565b90830152610140808201519083015261016080820151908301526101806137fa818301613748565b9083015261380c6101a0809201613748565b9082015290565b60095461385a919061382d906001600160a01b0316610b28565b60405163b67cb04760e01b81523060048201526024810194909452926101c0928390829081906044820190565b0381875afa928315610817576000936138dc575b5050815192803b1561036e576040516330b157e560e21b815260048101949094526001600160a01b0382166024850152600060448501819052908490606490829084905af192831561081757610614936138c9575b50613a86565b80610e276138d69261105c565b386138c3565b6138f3929350803d1061371d5761370d81836110e0565b90388061386e565b600954613943929190613916906001600160a01b0316610b28565b60405163b67cb04760e01b81523060048201526024810195909552936101c0938490829081906044820190565b0381885afa938415610817576000946139c6575b5050825193803b1561036e576040516330b157e560e21b815260048101959095526001600160a01b038281166024870152831660448601526000908590606490829084905af193841561081757610614946139b3575b50613b1b565b80610e276139c09261105c565b386139ad565b6139dd929450803d1061371d5761370d81836110e0565b913880613957565b60a082015190816139f557505050565b61061492519060008281526011602052613a1284604083206153b2565b506001600160a01b03916040915083831615613a6b575b808052600f602052818120858252602052613a5c8383832054169460018060a01b0316600052600f602052604060002090565b85825260205220541690612306565b8481526011602052613a7f86838320615318565b5050613a29565b60a08201519081613a9657505050565b9151610614926001600160a01b03908116908115613afd575b6000918383526011602052613ac78560408520615318565b50508252600f60205260408220838352602052604081818420541692808052600f60205281812085825260205220541690612306565b826000526011602052613b148460406000206153b2565b5050613aaf565b9160a08101519182613b2d5750505050565b613b9c610b0f613ba295613b8d945194859160018060a01b038091168015613bc9575b81871615613bab575b600052600f602052604060002083600052602052604060002054169460018060a01b0316600052600f602052604060002090565b90600052602052604060002090565b90612306565b38808080612339565b836000526011602052613bc2896040600020615318565b5050613b59565b836000526011602052613be08960406000206153b2565b5050613b50565b9190613bf28261344e565b6001600160a01b039390848216908516819003613e6c57848316948515613e5a5781613c7a575b50610614948491613c2983613e7e565b600083815260026020526040902080546001600160a01b0319166001600160a01b0387161790557fddf252ad1be2c89b69c2b068fc378daa952ba7f163c4a11628f55a4df523b3ef600080a46138fb565b600954613c8f906001600160a01b0316610b28565b60405163b67cb04760e01b8152306004820152602481018790529091906101c08082604481875afa801561081757613cd6926101a092600092613e3d575b50500151151590565b613d99575b6040516308ed6c0160e41b815230600482015260248101879052602081604481865afa90811561081757600091613d7b575b5016613c195794853b1561036e57604051638cec7d3960e01b8152600481018690526001600160a01b0384166024820152956000908790604490829084905af191821561081757610614968693613d68575b50915094613c19565b80610e27613d759261105c565b38613d5f565b613d93915060203d81116125325761252481836110e0565b38613d0d565b600a54613dda90613db2906001600160a01b0316610b28565b60055460405180926321d1336160e11b82528180610120968795600483019190602083019252565b03915afa91821561081757613e099260ff9261010092600092613e20575b5050015160f41c1660018091161490565b15613cdb576040516318cdaf9760e01b8152600490fd5b613e369250803d106132b5576132a681836110e0565b3880613df8565b613e539250803d1061371d5761370d81836110e0565b3880613ccd565b604051632c95542760e01b8152600490fd5b60405163a195bc5360e01b8152600490fd5b600081815260036020526040812080546001600160a01b03191690556001600160a01b03613eab8361344e565b167f8c5be1e5ebec7d5bd14f71427d1e84f3dd0314c0f7b2291e5b200ac8c7c3b9258280a4565b600082815260036020526040902080546001600160a01b0319166001600160a01b0383161790556001600160a01b0380613f0b8461344e565b169116907f8c5be1e5ebec7d5bd14f71427d1e84f3dd0314c0f7b2291e5b200ac8c7c3b925600080a4565b9081602091031261036e57516104e68161035c565b6001600160a01b0391821681529116602082015260408101919091526080606082018190526104e6929101906104b0565b3d15613fa7573d90613f8d82611644565b91613f9b60405193846110e0565b82523d6000602084013e565b606090565b92909190823b1561405f57613fdf926020926000604051809681958294630a85bd0160e11b9a8b85523360048601613f4b565b03926001600160a01b03165af16000918161402f575b5061402157614002613f7c565b8051908161401c576040516336f57c1b60e11b8152600490fd5b602001fd5b6001600160e01b0319161490565b61405191925060203d8111614058575b61404981836110e0565b810190613f36565b9038613ff5565b503d61403f565b50505050600190565b903590601e198136030182121561036e57018035906001600160401b03821161036e5760200191813603831361036e57565b9060241161036e5760200190600490565b9060441161036e5760400190600490565b6001600160e01b031990358181169392600481106140d957505050565b60040360031b82901b16169150565b604051906140f582611074565b600182528160005b6020908181101561411f5760209161411361215e565b908285010152016140fd565b505050565b9160608383031261036e5782359260208101356141408161035c565b9260408201356001600160401b03811161036e576104e69201611165565b90608082013561427d576101c0820190602461417a8385614068565b905010801561424b575b610b67576141ce6141c6610acc6141996140e8565b946141a2611121565b308152600060208201526141b58761218d565b526141bf8661218d565b5086614068565b915050612725565b6141d661278d565b906141e6828260c08801356156c9565b91610180860135916127108314614235579261421f836142196142259461423197614213611dd298612453565b906156c9565b90612441565b90615641565b946101a0810190614068565b9190565b50505092611dd2816101a0614231930190614068565b50614259610b878385614068565b63b3bcbb7960e01b916001600160e01b031991614275916140bc565b161415614184565b6040516309f82f1b60e31b8152600490fd5b9192909280516001600160401b03811161106f576000916142b9826142b48554613481565b6143be565b60209081601f841160011461432c575092826142fa936142ff96936106149998968492614321575b50508160011b916000199060031b1c19161790556144a2565b600555565b60018060a01b03166bffffffffffffffffffffffff60a01b6006541617600655565b0151905038806142e1565b600080529190601f1984167f290decd9548b62a8d60345a988386fc84ba6bc95484008f6362f93160ef3e5639386905b8282106143a6575050936142ff969361061499989693600193836142fa981061438d575b505050811b0190556144a2565b015160001960f88460031b161c19169055388080614380565b8060018697829497870151815501960194019061435c565b601f81116143ca575050565b6000908180527f290decd9548b62a8d60345a988386fc84ba6bc95484008f6362f93160ef3e563906020601f850160051c83019410614424575b601f0160051c01915b82811061441957505050565b81815560010161440d565b9092508290614404565b90601f821161443b575050565b6001916000908382527fb10e2d527612073b26eecdfd717e6a320cf44b4afac2b0732d9fcbe2b7fa0cf6906020601f850160051c83019410614498575b601f0160051c01915b82811061448e5750505050565b8181558301614481565b9092508290614478565b9081516001600160401b03811161106f576001906144c9816144c48454613481565b61442e565b602080601f83116001146145045750819293946000926144f9575b5050600019600383901b1c191690821b179055565b0151905038806144e4565b90601f1983169561453760016000527fb10e2d527612073b26eecdfd717e6a320cf44b4afac2b0732d9fcbe2b7fa0cf690565b926000905b8882106145725750508385969710614559575b505050811b019055565b015160001960f88460031b161c1916905538808061454f565b80878596829496860151815501950193019061453c565b9081602091031261036e57516104e6816114ad565b604d811161244e57600a0a90565b9160a08383031261036e57823592602091828201359360408301356145d08161035c565b9360608401356145df816114ad565b936080810135906001600160401b03821161036e57019180601f8401121561036e57823561460c8161114e565b9361461a60405195866110e0565b818552838086019260051b82010192831161036e578301905b828210614641575050505090565b838091833561464f81611976565b815201910190614633565b9081608091031261036e576060604051916146748361108f565b805161467f816114ad565b8352602081015161468f816114ad565b602084015260408101516146a2816114ad565b604084015201516146b2816114ad565b606082015290565b600060c0820135600c548082146000146149b45750505060808101355b6101808201916147036146e984612c6b565b6001600160a01b03166000908152600e6020526040902090565b5492829360009361471384612c6b565b95614720610b2885612c6b565b6001600160a01b03978816036149a957508101925b6000906101e0810190604461474a8383614068565b90501180614972575b614891575b505083156148255715614813576147be936146e9930180958282116000146147c1577f2fb2733fb01b76e3290fa8b695d18e026ddd19c0a265ab90e95152e57da303366147a485612c6b565b60405133815292169383039180602081015b0390a4612c6b565b55565b8183116147d1575b505050612c6b565b7fe0e7c81cf67a96dd0e39bcf11521b1f4c0098cc1dbe8c30750a11d9ebfc3ed4d826147fc86612c6b565b6040513381529316940391602090a43884816147c9565b604051631b57826960e21b8152600490fd5b5091508282949394036148385750505050565b614887928461484a816146e995612472565b7fe0e7c81cf67a96dd0e39bcf11521b1f4c0098cc1dbe8c30750a11d9ebfc3ed4d61487485612c6b565b60405133815294169380602081016147b6565b5538808080612339565b6148a89250906148a091614068565b8101906145ac565b925092505081806148eb575b6148e2575b80516148c6575b80614758565b936148db91946148d585612c6b565b91614aa8565b92386148c0565b600091506148b9565b50600954614901906001600160a01b0316610b28565b604051634228826f60e11b815230600482015290608090829060249082905afa9081156108175761493f91606091600091614944575b500151151590565b6148b4565b614965915060803d811161496b575b61495d81836110e0565b81019061465a565b38614937565b503d614953565b506149866149808383614068565b906140ab565b63b3bcbb7960e01b916001600160e01b0319916149a2916140bc565b1614614753565b939450508093614735565b600b546001600160a01b03168015614a5157614a0c926020916149d8600d5461459e565b93604051809681948293635268657960e11b845260a08c013591600485016040919493926060820195825260208201520152565b03915afa91821561081757614a2c9392614a31575b5060808401356156c9565b6146d7565b614a4a91925060203d8111610fe157610fd381836110e0565b9038614a21565b5050505050565b929190606084019084526020906060828601528251809152816080860193019160005b828110614a9057505050506040600091930152565b835161ffff1685529381019392810192600101614a7b565b600954929392614ac0906001600160a01b0316610b28565b6040805163eaa19ab360e01b815295600094919285908890818381614ae9888b60048401614a58565b03925af180156108175785978691614b89575b50968051955b868110614b125750505050505050565b80614b1f6001928461219f565b51614b2a81866135aa565b61ffff614b42614b3a848961219f565b5161ffff1690565b88518a815233602082015260a086901b86900388169391909216917f598baf7bf150ca2f42be9e9f8f55e81d45f5715c3ff22bf46d697fabec7f31d690604090a401614b02565b9050614ba09197503d8087833e6133af81836110e0565b96909638614afc565b6009546001600160a01b0316803b1561036e576040516386bc2be360e01b815260206004820152916000918391829084908290614bea906024830190610eb6565b03925af1801561081757614bfb5750565b6106149061105c565b614c0d8161344e565b6001600160a01b0380821692919083614c75575b5081600061061494614c3283613e7e565b82825260026020526040822080546001600160a01b03191690557fddf252ad1be2c89b69c2b068fc378daa952ba7f163c4a11628f55a4df523b3ef8280a4613813565b600954614c8a906001600160a01b0316610b28565b60405163b67cb04760e01b8152306004820152602481018590529091906101c08082604481875afa801561081757614cd0926101a092600092613e3d5750500151151590565b614d94575b6040516308ed6c0160e41b815230600482015260248101859052602081604481865afa90811561081757600091614d76575b5016614c2157803b1561036e57604051638cec7d3960e01b8152600481018490526001600160a01b0383166024820152906000908290604490829084905af1801561081757610614948492600092614d63575b50945050614c21565b80610e27614d709261105c565b38614d5a565b614d8e915060203d81116125325761252481836110e0565b38614d07565b600a54614dad90613db2906001600160a01b0316610b28565b03915afa801561081757614dc3575b5050614cd5565b81614dd992903d106132b5576132a681836110e0565b503880614dbc565b906104e690614e0f604051602092609160f51b84830152602282015260228152614e0a816110c5565b614ef0565b926040519381614e28869351809286808701910161048d565b8201614e3c8251809386808501910161048d565b010380845201826110e0565b604051614e54816110aa565b60008152906000368137565b604051906105e082018281106001600160401b0382111761106f57604052602e82526105c0366020840137565b90614e978261114e565b614ea460405191826110e0565b8281528092614eb5601f199161114e565b0190602036910137565b90815181101561219a570160200190565b8115614eda570490565b634e487b7160e01b600052601260045260246000fd5b9081511561500f57614f00614e60565b9160009081614f0e8561218d565b5260019181519181925b808410614f3e5750505050614f34614f39916104e69394615019565b61505c565b6150a3565b90919294614f6f614f69614f63614f558987614ebf565b516001600160f81b03191690565b60f81c90565b60ff1690565b9184925b60ff9089828916861015614fce5760019291614219614fa2614f69614f9b8a614fa89661219f565b5160ff1690565b60081b90565b614fc58b614fbd88603a95868606169261219f565b9060ff169052565b04930192614f73565b50919594935050809691965b614fe8575060010192614f18565b9460ff6001603a9261500583858b0616614fbd8d8685169061219f565b0116950480614fda565b90506104e6614e48565b9060ff8091169061502982614e8d565b9260005b83811061503b575050505090565b80836150496001938561219f565b5116615055828861219f565b520161502d565b90815161506881614e8d565b9060005b81811061507a575090925050565b60019060ff61509060001983895103018861219f565b511661509c828661219f565b520161506c565b80516150ae81611644565b916040906150be825194856110e0565b828452601f196150cd84611644565b016020903682870137600092835b8581106150eb5750505050505090565b60019082516150f9816110c5565b603a81527f31323334353637383941424344454647484a4b4c4d4e50515253545556575859858201527f5a6162636465666768696a6b6d6e6f707172737475767778797a000000000000848201526001600160f81b0319906151699060ff615161858a61219f565b511690614ebf565b5116861a615177828a614ebf565b53016150db565b6007546001600160a01b0316330361519257565b606460405162461bcd60e51b815260206004820152602060248201527f4f776e61626c653a2063616c6c6572206973206e6f7420746865206f776e65726044820152fd5b600780546001600160a01b039283166001600160a01b0319821681179092559091167f8be0079c531659141344cd1fd0a4f28419497f9722a3daafe3b4186f6b6457e0600080a3565b90438110156152d457615231906155dc565b815490600063ffffffff8092165b838210615288575050508061525f57505060005b6001600160e01b031690565b6152839161526f61527c92612463565b9060005260206000200190565b5460201c90565b615253565b909192808316906001818518811c830180931161244e57866000528386846020600020015416116000146152c1575050925b919061523f565b90949350810180911161244e57916152ba565b606460405162461bcd60e51b815260206004820152602060248201527f436865636b706f696e74733a20626c6f636b206e6f7420796574206d696e65646044820152fd5b6001600160e01b0392918361532c836153da565b1690810390811161244e57615340436155dc565b9184821161535d578492836153569316916154c5565b9316921690565b60405162461bcd60e51b815260206004820152602760248201527f53616665436173743a2076616c756520646f65736e27742066697420696e20326044820152663234206269747360c81b6064820152608490fd5b6001600160e01b039291836153c6836153da565b1690810180911161244e57615340436155dc565b8054600091816153ec57505050600090565b60001992828481011161244e5760209181522001015460201c90565b9081546801000000000000000081101561106f576001810180845581101561219a57600092835260209283902082519284015190931b63ffffffff191663ffffffff9290921691909117910155565b9060405161546481611074565b602081935463ffffffff81168352811c910152565b1561548057565b60405162461bcd60e51b815260206004820152601760248201527f436865636b706f696e743a20696e76616c6964206b65790000000000000000006044820152606490fd5b909291928382548015156000146155b1579260209291846155006154fb6154ee61423198612463565b8560005260206000200190565b615457565b9361550f855163ffffffff1690565b61552663ffffffff91828416928391161115615479565b615540615537875163ffffffff1690565b63ffffffff1690565b0361557b575061556d9261526f61555692612463565b9063ffffffff82549181199060201b169116179055565b01516001600160e01b031690565b9150506155ac9161559961558d611121565b63ffffffff9093168352565b6001600160e01b03881682860152615408565b61556d565b50506155d6916155c261558d611121565b6001600160e01b0385166020830152615408565b60009190565b63ffffffff908181116155ed571690565b60405162461bcd60e51b815260206004820152602660248201527f53616665436173743a2076616c756520646f65736e27742066697420696e203360448201526532206269747360d01b6064820152608490fd5b9190600019818409818402918280831092039180830392146156be5761271090818310156156a0577fbc01a36e2eb1c432ca57a786c226809d495182a9930be0ded288ce703afb7e9194950990828211900360fc1b910360041c170290565b6044838360405191631dcf306360e21b835260048301526024820152fd5b505061271090049150565b90916000198383099280830292838086109503948086039514615761578285101561574157908291096001821901821680920460028082600302188083028203028083028203028083028203028083028203028083028203028092029003029360018380600003040190848311900302920304170290565b604051631dcf306360e21b81526004810186905260248101849052604490fd5b5050906104e69250614ed056fea2646970667358221220928ce9e11e8aa01fcda8e610423b5d0d9860621a14436a51a53d3d5afa5ca48464736f6c63430008120033",
    "linkReferences": {}
  },
  "methodIdentifiers": {
    "adjustTiers((uint80,uint48,uint40,uint16,uint16,address,uint8,address,bytes32,uint8,bool,bool,bool,bool)[],uint256[])": "25eb91ee",
    "approve(address,uint256)": "095ea7b3",
    "balanceOf(address)": "70a08231",
    "codeOrigin()": "1d153ca4",
    "contractURI()": "e8a3d485",
    "creditsOf(address)": "245a45b5",
    "didPay((address,uint256,uint256,(address,uint256,uint256,uint256),(address,uint256,uint256,uint256),uint256,address,bool,string,bytes))": "da9ee8b7",
    "didRedeem((address,uint256,uint256,uint256,(address,uint256,uint256,uint256),(address,uint256,uint256,uint256),address,string,bytes))": "2b13c58f",
    "directory()": "c41c2f24",
    "firstOwnerOf(uint256)": "54c6d1f5",
    "fundingCycleStore()": "557e7155",
    "getApproved(uint256)": "081812fc",
    "getPastTierTotalVotes(uint256,uint256)": "d31cc52c",
    "getPastTierVotes(address,uint256,uint256)": "d40e7146",
    "getTierDelegate(address,uint256)": "82732b6d",
    "getTierTotalVotes(uint256)": "94c5c5ca",
    "getTierVotes(address,uint256)": "ca323efe",
    "initialize(uint256,address,string,string,address,string,address,string,((uint80,uint48,uint40,uint16,uint16,address,uint8,address,bytes32,uint8,bool,bool,bool,bool)[],uint256,uint256,address),address,(bool,bool,bool,bool))": "d1704baf",
    "isApprovedForAll(address,address)": "e985e9c5",
    "mintFor((uint16[],address)[])": "36c1a93b",
    "mintFor(uint16[],address)": "6ac6d941",
    "mintReservesFor((uint256,uint256)[])": "2a596e53",
    "mintReservesFor(uint256,uint256)": "aa4fb15b",
    "name()": "06fdde03",
    "owner()": "8da5cb5b",
    "ownerOf(uint256)": "6352211e",
    "payParams((address,address,(address,uint256,uint256,uint256),uint256,uint256,address,uint256,uint256,string,bytes))": "d46cf171",
    "prices()": "d3419bf3",
    "pricingCurrency()": "64640c1e",
    "pricingDecimals()": "4ecba625",
    "projectId()": "3fafa127",
    "redeemParams((address,address,uint256,uint256,uint256,uint256,uint256,(address,uint256,uint256,uint256),bool,uint256,string,bytes))": "a51cfd18",
    "redemptionWeightOf(uint256[],(address,address,uint256,uint256,uint256,uint256,uint256,(address,uint256,uint256,uint256),bool,uint256,string,bytes))": "7ba62bf9",
    "renounceOwnership()": "715018a6",
    "royaltyInfo(uint256,uint256)": "2a55205a",
    "safeTransferFrom(address,address,uint256)": "42842e0e",
    "safeTransferFrom(address,address,uint256,bytes)": "b88d4fde",
    "setApprovalForAll(address,bool)": "a22cb465",
    "setBaseUri(string)": "a0bcfc7f",
    "setContractUri(string)": "ccb4807b",
    "setDefaultReservedTokenBeneficiary(address)": "df487e26",
    "setEncodedIPFSUriOf(uint256,bytes32)": "525350ba",
    "setTierDelegate(address,uint256)": "ab951e39",
    "setTierDelegates((address,uint256)[])": "c74b13d9",
    "setTokenUriResolver(address)": "2407497e",
    "store()": "975057e7",
    "supportsInterface(bytes4)": "01ffc9a7",
    "symbol()": "95d89b41",
    "tokenURI(uint256)": "c87b56dd",
    "totalRedemptionWeight((address,address,uint256,uint256,uint256,uint256,uint256,(address,uint256,uint256,uint256),bool,uint256,string,bytes))": "9494bf72",
    "transferFrom(address,address,uint256)": "23b872dd",
    "transferOwnership(address)": "f2fde38b"
  },
  "id": 39
}