{
  "abi": [
    {
      "inputs": [],
      "name": "ALEADY_MINTED",
      "type": "error"
    },
    {
      "inputs": [],
      "name": "APPROVAL_TO_CURRENT_OWNER",
      "type": "error"
    },
    {
      "inputs": [],
      "name": "APPROVE_TO_CALLER",
      "type": "error"
    },
    {
      "inputs": [],
      "name": "BLOCK_NOT_YET_MINED",
      "type": "error"
    },
    {
      "inputs": [],
      "name": "CALLER_NOT_OWNER_OR_APPROVED",
      "type": "error"
    },
    {
      "inputs": [],
      "name": "DELEGATE_ADDRESS_ZERO",
      "type": "error"
    },
    {
      "inputs": [],
      "name": "INCORRECT_OWNER",
      "type": "error"
    },
    {
      "inputs": [],
      "name": "INVALID_PAYMENT_EVENT",
      "type": "error"
    },
    {
      "inputs": [],
      "name": "INVALID_REDEMPTION_EVENT",
      "type": "error"
    },
    {
      "inputs": [],
      "name": "INVALID_REDEMPTION_METADATA",
      "type": "error"
    },
    {
      "inputs": [],
      "name": "INVALID_TOKEN_ID",
      "type": "error"
    },
    {
      "inputs": [],
      "name": "MINT_TO_ZERO",
      "type": "error"
    },
    {
      "inputs": [],
      "name": "NOT_AVAILABLE",
      "type": "error"
    },
    {
      "inputs": [],
      "name": "OVERSPENDING",
      "type": "error"
    },
    {
      "inputs": [
        {
          "internalType": "uint256",
          "name": "prod1",
          "type": "uint256"
        },
        {
          "internalType": "uint256",
          "name": "denominator",
          "type": "uint256"
        }
      ],
      "name": "PRBMath__MulDivOverflow",
      "type": "error"
    },
    {
      "inputs": [],
      "name": "PRICING_RESOLVER_CHANGES_PAUSED",
      "type": "error"
    },
    {
      "inputs": [],
      "name": "RESERVED_TOKEN_MINTING_PAUSED",
      "type": "error"
    },
    {
      "inputs": [],
      "name": "TRANSFERS_PAUSED",
      "type": "error"
    },
    {
      "inputs": [],
      "name": "TRANSFER_TO_NON_IMPLEMENTER",
      "type": "error"
    },
    {
      "inputs": [],
      "name": "TRANSFER_TO_ZERO_ADDRESS",
      "type": "error"
    },
    {
      "inputs": [],
      "name": "UNAUTHORIZED",
      "type": "error"
    },
    {
      "inputs": [],
      "name": "UNEXPECTED_TOKEN_REDEEMED",
      "type": "error"
    },
    {
      "anonymous": false,
      "inputs": [
        {
          "indexed": true,
          "internalType": "uint256",
          "name": "changeAmount",
          "type": "uint256"
        },
        {
          "indexed": true,
          "internalType": "uint256",
          "name": "newTotalCredits",
          "type": "uint256"
        },
        {
          "indexed": true,
          "internalType": "address",
          "name": "account",
          "type": "address"
        },
        {
          "indexed": false,
          "internalType": "address",
          "name": "caller",
          "type": "address"
        }
      ],
      "name": "AddCredits",
      "type": "event"
    },
    {
      "anonymous": false,
      "inputs": [
        {
          "indexed": true,
          "internalType": "uint256",
          "name": "tierId",
          "type": "uint256"
        },
        {
          "components": [
            {
              "internalType": "uint80",
              "name": "contributionFloor",
              "type": "uint80"
            },
            {
              "internalType": "uint48",
              "name": "lockedUntil",
              "type": "uint48"
            },
            {
              "internalType": "uint40",
              "name": "initialQuantity",
              "type": "uint40"
            },
            {
              "internalType": "uint16",
              "name": "votingUnits",
              "type": "uint16"
            },
            {
              "internalType": "uint16",
              "name": "reservedRate",
              "type": "uint16"
            },
            {
              "internalType": "address",
              "name": "reservedTokenBeneficiary",
              "type": "address"
            },
            {
              "internalType": "uint8",
              "name": "royaltyRate",
              "type": "uint8"
            },
            {
              "internalType": "address",
              "name": "royaltyBeneficiary",
              "type": "address"
            },
            {
              "internalType": "bytes32",
              "name": "encodedIPFSUri",
              "type": "bytes32"
            },
            {
              "internalType": "uint8",
              "name": "category",
              "type": "uint8"
            },
            {
              "internalType": "bool",
              "name": "allowManualMint",
              "type": "bool"
            },
            {
              "internalType": "bool",
              "name": "shouldUseReservedTokenBeneficiaryAsDefault",
              "type": "bool"
            },
            {
              "internalType": "bool",
              "name": "shouldUseRoyaltyBeneficiaryAsDefault",
              "type": "bool"
            },
            {
              "internalType": "bool",
              "name": "transfersPausable",
              "type": "bool"
            }
          ],
          "indexed": false,
          "internalType": "struct JB721TierParams",
          "name": "data",
          "type": "tuple"
        },
        {
          "indexed": false,
          "internalType": "address",
          "name": "caller",
          "type": "address"
        }
      ],
      "name": "AddTier",
      "type": "event"
    },
    {
      "anonymous": false,
      "inputs": [
        {
          "indexed": true,
          "internalType": "address",
          "name": "owner",
          "type": "address"
        },
        {
          "indexed": true,
          "internalType": "address",
          "name": "approved",
          "type": "address"
        },
        {
          "indexed": true,
          "internalType": "uint256",
          "name": "tokenId",
          "type": "uint256"
        }
      ],
      "name": "Approval",
      "type": "event"
    },
    {
      "anonymous": false,
      "inputs": [
        {
          "indexed": true,
          "internalType": "address",
          "name": "owner",
          "type": "address"
        },
        {
          "indexed": true,
          "internalType": "address",
          "name": "operator",
          "type": "address"
        },
        {
          "indexed": false,
          "internalType": "bool",
          "name": "approved",
          "type": "bool"
        }
      ],
      "name": "ApprovalForAll",
      "type": "event"
    },
    {
      "anonymous": false,
      "inputs": [
        {
          "indexed": true,
          "internalType": "address",
          "name": "delegator",
          "type": "address"
        },
        {
          "indexed": true,
          "internalType": "address",
          "name": "fromDelegate",
          "type": "address"
        },
        {
          "indexed": true,
          "internalType": "address",
          "name": "toDelegate",
          "type": "address"
        }
      ],
      "name": "DelegateChanged",
      "type": "event"
    },
    {
      "anonymous": false,
      "inputs": [
        {
          "indexed": true,
          "internalType": "uint256",
          "name": "tokenId",
          "type": "uint256"
        },
        {
          "indexed": true,
          "internalType": "uint256",
          "name": "tierId",
          "type": "uint256"
        },
        {
          "indexed": true,
          "internalType": "address",
          "name": "beneficiary",
          "type": "address"
        },
        {
          "indexed": false,
          "internalType": "uint256",
          "name": "totalAmountContributed",
          "type": "uint256"
        },
        {
          "indexed": false,
          "internalType": "address",
          "name": "caller",
          "type": "address"
        }
      ],
      "name": "Mint",
      "type": "event"
    },
    {
      "anonymous": false,
      "inputs": [
        {
          "indexed": true,
          "internalType": "uint256",
          "name": "tokenId",
          "type": "uint256"
        },
        {
          "indexed": true,
          "internalType": "uint256",
          "name": "tierId",
          "type": "uint256"
        },
        {
          "indexed": true,
          "internalType": "address",
          "name": "beneficiary",
          "type": "address"
        },
        {
          "indexed": false,
          "internalType": "address",
          "name": "caller",
          "type": "address"
        }
      ],
      "name": "MintReservedToken",
      "type": "event"
    },
    {
      "anonymous": false,
      "inputs": [
        {
          "indexed": true,
          "internalType": "address",
          "name": "previousOwner",
          "type": "address"
        },
        {
          "indexed": true,
          "internalType": "address",
          "name": "newOwner",
          "type": "address"
        }
      ],
      "name": "OwnershipTransferred",
      "type": "event"
    },
    {
      "anonymous": false,
      "inputs": [
        {
          "indexed": true,
          "internalType": "uint256",
          "name": "tierId",
          "type": "uint256"
        },
        {
          "indexed": false,
          "internalType": "address",
          "name": "caller",
          "type": "address"
        }
      ],
      "name": "RemoveTier",
      "type": "event"
    },
    {
      "anonymous": false,
      "inputs": [
        {
          "indexed": true,
          "internalType": "string",
          "name": "baseUri",
          "type": "string"
        },
        {
          "indexed": false,
          "internalType": "address",
          "name": "caller",
          "type": "address"
        }
      ],
      "name": "SetBaseUri",
      "type": "event"
    },
    {
      "anonymous": false,
      "inputs": [
        {
          "indexed": true,
          "internalType": "string",
          "name": "contractUri",
          "type": "string"
        },
        {
          "indexed": false,
          "internalType": "address",
          "name": "caller",
          "type": "address"
        }
      ],
      "name": "SetContractUri",
      "type": "event"
    },
    {
      "anonymous": false,
      "inputs": [
        {
          "indexed": true,
          "internalType": "address",
          "name": "beneficiary",
          "type": "address"
        },
        {
          "indexed": false,
          "internalType": "address",
          "name": "caller",
          "type": "address"
        }
      ],
      "name": "SetDefaultReservedTokenBeneficiary",
      "type": "event"
    },
    {
      "anonymous": false,
      "inputs": [
        {
          "indexed": true,
          "internalType": "uint256",
          "name": "tierId",
          "type": "uint256"
        },
        {
          "indexed": false,
          "internalType": "bytes32",
          "name": "encodedIPFSUri",
          "type": "bytes32"
        },
        {
          "indexed": false,
          "internalType": "address",
          "name": "caller",
          "type": "address"
        }
      ],
      "name": "SetEncodedIPFSUri",
      "type": "event"
    },
    {
      "anonymous": false,
      "inputs": [
        {
          "indexed": true,
          "internalType": "contract IJBTokenUriResolver",
          "name": "newResolver",
          "type": "address"
        },
        {
          "indexed": false,
          "internalType": "address",
          "name": "caller",
          "type": "address"
        }
      ],
      "name": "SetTokenUriResolver",
      "type": "event"
    },
    {
      "anonymous": false,
      "inputs": [
        {
          "indexed": true,
          "internalType": "address",
          "name": "delegator",
          "type": "address"
        },
        {
          "indexed": true,
          "internalType": "address",
          "name": "fromDelegate",
          "type": "address"
        },
        {
          "indexed": true,
          "internalType": "address",
          "name": "toDelegate",
          "type": "address"
        },
        {
          "indexed": false,
          "internalType": "uint256",
          "name": "tierId",
          "type": "uint256"
        },
        {
          "indexed": false,
          "internalType": "address",
          "name": "caller",
          "type": "address"
        }
      ],
      "name": "TierDelegateChanged",
      "type": "event"
    },
    {
      "anonymous": false,
      "inputs": [
        {
          "indexed": true,
          "internalType": "address",
          "name": "delegate",
          "type": "address"
        },
        {
          "indexed": true,
          "internalType": "uint256",
          "name": "tierId",
          "type": "uint256"
        },
        {
          "indexed": false,
          "internalType": "uint256",
          "name": "previousBalance",
          "type": "uint256"
        },
        {
          "indexed": false,
          "internalType": "uint256",
          "name": "newBalance",
          "type": "uint256"
        },
        {
          "indexed": false,
          "internalType": "address",
          "name": "caller",
          "type": "address"
        }
      ],
      "name": "TierDelegateVotesChanged",
      "type": "event"
    },
    {
      "anonymous": false,
      "inputs": [
        {
          "indexed": true,
          "internalType": "address",
          "name": "from",
          "type": "address"
        },
        {
          "indexed": true,
          "internalType": "address",
          "name": "to",
          "type": "address"
        },
        {
          "indexed": true,
          "internalType": "uint256",
          "name": "tokenId",
          "type": "uint256"
        }
      ],
      "name": "Transfer",
      "type": "event"
    },
    {
      "anonymous": false,
      "inputs": [
        {
          "indexed": true,
          "internalType": "uint256",
          "name": "changeAmount",
          "type": "uint256"
        },
        {
          "indexed": true,
          "internalType": "uint256",
          "name": "newTotalCredits",
          "type": "uint256"
        },
        {
          "indexed": true,
          "internalType": "address",
          "name": "account",
          "type": "address"
        },
        {
          "indexed": false,
          "internalType": "address",
          "name": "caller",
          "type": "address"
        }
      ],
      "name": "UseCredits",
      "type": "event"
    },
    {
      "inputs": [
        {
          "components": [
            {
              "internalType": "uint80",
              "name": "contributionFloor",
              "type": "uint80"
            },
            {
              "internalType": "uint48",
              "name": "lockedUntil",
              "type": "uint48"
            },
            {
              "internalType": "uint40",
              "name": "initialQuantity",
              "type": "uint40"
            },
            {
              "internalType": "uint16",
              "name": "votingUnits",
              "type": "uint16"
            },
            {
              "internalType": "uint16",
              "name": "reservedRate",
              "type": "uint16"
            },
            {
              "internalType": "address",
              "name": "reservedTokenBeneficiary",
              "type": "address"
            },
            {
              "internalType": "uint8",
              "name": "royaltyRate",
              "type": "uint8"
            },
            {
              "internalType": "address",
              "name": "royaltyBeneficiary",
              "type": "address"
            },
            {
              "internalType": "bytes32",
              "name": "encodedIPFSUri",
              "type": "bytes32"
            },
            {
              "internalType": "uint8",
              "name": "category",
              "type": "uint8"
            },
            {
              "internalType": "bool",
              "name": "allowManualMint",
              "type": "bool"
            },
            {
              "internalType": "bool",
              "name": "shouldUseReservedTokenBeneficiaryAsDefault",
              "type": "bool"
            },
            {
              "internalType": "bool",
              "name": "shouldUseRoyaltyBeneficiaryAsDefault",
              "type": "bool"
            },
            {
              "internalType": "bool",
              "name": "transfersPausable",
              "type": "bool"
            }
          ],
          "internalType": "struct JB721TierParams[]",
          "name": "_tiersToAdd",
          "type": "tuple[]"
        },
        {
          "internalType": "uint256[]",
          "name": "_tierIdsToRemove",
          "type": "uint256[]"
        }
      ],
      "name": "adjustTiers",
      "outputs": [],
      "stateMutability": "nonpayable",
      "type": "function"
    },
    {
      "inputs": [
        {
          "internalType": "address",
          "name": "to",
          "type": "address"
        },
        {
          "internalType": "uint256",
          "name": "tokenId",
          "type": "uint256"
        }
      ],
      "name": "approve",
      "outputs": [],
      "stateMutability": "nonpayable",
      "type": "function"
    },
    {
      "inputs": [
        {
          "internalType": "address",
          "name": "_owner",
          "type": "address"
        }
      ],
      "name": "balanceOf",
      "outputs": [
        {
          "internalType": "uint256",
          "name": "balance",
          "type": "uint256"
        }
      ],
      "stateMutability": "view",
      "type": "function"
    },
    {
      "inputs": [],
      "name": "codeOrigin",
      "outputs": [
        {
          "internalType": "address",
          "name": "",
          "type": "address"
        }
      ],
      "stateMutability": "view",
      "type": "function"
    },
    {
      "inputs": [],
      "name": "contractURI",
      "outputs": [
        {
          "internalType": "string",
          "name": "",
          "type": "string"
        }
      ],
      "stateMutability": "view",
      "type": "function"
    },
    {
      "inputs": [
        {
          "internalType": "address",
          "name": "",
          "type": "address"
        }
      ],
      "name": "creditsOf",
      "outputs": [
        {
          "internalType": "uint256",
          "name": "",
          "type": "uint256"
        }
      ],
      "stateMutability": "view",
      "type": "function"
    },
    {
      "inputs": [
        {
          "components": [
            {
              "internalType": "address",
              "name": "payer",
              "type": "address"
            },
            {
              "internalType": "uint256",
              "name": "projectId",
              "type": "uint256"
            },
            {
              "internalType": "uint256",
              "name": "currentFundingCycleConfiguration",
              "type": "uint256"
            },
            {
              "components": [
                {
                  "internalType": "address",
                  "name": "token",
                  "type": "address"
                },
                {
                  "internalType": "uint256",
                  "name": "value",
                  "type": "uint256"
                },
                {
                  "internalType": "uint256",
                  "name": "decimals",
                  "type": "uint256"
                },
                {
                  "internalType": "uint256",
                  "name": "currency",
                  "type": "uint256"
                }
              ],
              "internalType": "struct JBTokenAmount",
              "name": "amount",
              "type": "tuple"
            },
            {
              "components": [
                {
                  "internalType": "address",
                  "name": "token",
                  "type": "address"
                },
                {
                  "internalType": "uint256",
                  "name": "value",
                  "type": "uint256"
                },
                {
                  "internalType": "uint256",
                  "name": "decimals",
                  "type": "uint256"
                },
                {
                  "internalType": "uint256",
                  "name": "currency",
                  "type": "uint256"
                }
              ],
              "internalType": "struct JBTokenAmount",
              "name": "forwardedAmount",
              "type": "tuple"
            },
            {
              "internalType": "uint256",
              "name": "projectTokenCount",
              "type": "uint256"
            },
            {
              "internalType": "address",
              "name": "beneficiary",
              "type": "address"
            },
            {
              "internalType": "bool",
              "name": "preferClaimedTokens",
              "type": "bool"
            },
            {
              "internalType": "string",
              "name": "memo",
              "type": "string"
            },
            {
              "internalType": "bytes",
              "name": "metadata",
              "type": "bytes"
            }
          ],
          "internalType": "struct JBDidPayData",
          "name": "_data",
          "type": "tuple"
        }
      ],
      "name": "didPay",
      "outputs": [],
      "stateMutability": "payable",
      "type": "function"
    },
    {
      "inputs": [
        {
          "components": [
            {
              "internalType": "address",
              "name": "holder",
              "type": "address"
            },
            {
              "internalType": "uint256",
              "name": "projectId",
              "type": "uint256"
            },
            {
              "internalType": "uint256",
              "name": "currentFundingCycleConfiguration",
              "type": "uint256"
            },
            {
              "internalType": "uint256",
              "name": "projectTokenCount",
              "type": "uint256"
            },
            {
              "components": [
                {
                  "internalType": "address",
                  "name": "token",
                  "type": "address"
                },
                {
                  "internalType": "uint256",
                  "name": "value",
                  "type": "uint256"
                },
                {
                  "internalType": "uint256",
                  "name": "decimals",
                  "type": "uint256"
                },
                {
                  "internalType": "uint256",
                  "name": "currency",
                  "type": "uint256"
                }
              ],
              "internalType": "struct JBTokenAmount",
              "name": "reclaimedAmount",
              "type": "tuple"
            },
            {
              "components": [
                {
                  "internalType": "address",
                  "name": "token",
                  "type": "address"
                },
                {
                  "internalType": "uint256",
                  "name": "value",
                  "type": "uint256"
                },
                {
                  "internalType": "uint256",
                  "name": "decimals",
                  "type": "uint256"
                },
                {
                  "internalType": "uint256",
                  "name": "currency",
                  "type": "uint256"
                }
              ],
              "internalType": "struct JBTokenAmount",
              "name": "forwardedAmount",
              "type": "tuple"
            },
            {
              "internalType": "address payable",
              "name": "beneficiary",
              "type": "address"
            },
            {
              "internalType": "string",
              "name": "memo",
              "type": "string"
            },
            {
              "internalType": "bytes",
              "name": "metadata",
              "type": "bytes"
            }
          ],
          "internalType": "struct JBDidRedeemData",
          "name": "_data",
          "type": "tuple"
        }
      ],
      "name": "didRedeem",
      "outputs": [],
      "stateMutability": "payable",
      "type": "function"
    },
    {
      "inputs": [],
      "name": "directory",
      "outputs": [
        {
          "internalType": "contract IJBDirectory",
          "name": "",
          "type": "address"
        }
      ],
      "stateMutability": "view",
      "type": "function"
    },
    {
      "inputs": [
        {
          "internalType": "uint256",
          "name": "_tokenId",
          "type": "uint256"
        }
      ],
      "name": "firstOwnerOf",
      "outputs": [
        {
          "internalType": "address",
          "name": "",
          "type": "address"
        }
      ],
      "stateMutability": "view",
      "type": "function"
    },
    {
      "inputs": [],
      "name": "fundingCycleStore",
      "outputs": [
        {
          "internalType": "contract IJBFundingCycleStore",
          "name": "",
          "type": "address"
        }
      ],
      "stateMutability": "view",
      "type": "function"
    },
    {
      "inputs": [
        {
          "internalType": "uint256",
          "name": "tokenId",
          "type": "uint256"
        }
      ],
      "name": "getApproved",
      "outputs": [
        {
          "internalType": "address",
          "name": "",
          "type": "address"
        }
      ],
      "stateMutability": "view",
      "type": "function"
    },
    {
      "inputs": [
        {
          "internalType": "uint256",
          "name": "_tier",
          "type": "uint256"
        },
        {
          "internalType": "uint256",
          "name": "_blockNumber",
          "type": "uint256"
        }
      ],
      "name": "getPastTierTotalVotes",
      "outputs": [
        {
          "internalType": "uint256",
          "name": "",
          "type": "uint256"
        }
      ],
      "stateMutability": "view",
      "type": "function"
    },
    {
      "inputs": [
        {
          "internalType": "address",
          "name": "_account",
          "type": "address"
        },
        {
          "internalType": "uint256",
          "name": "_tier",
          "type": "uint256"
        },
        {
          "internalType": "uint256",
          "name": "_blockNumber",
          "type": "uint256"
        }
      ],
      "name": "getPastTierVotes",
      "outputs": [
        {
          "internalType": "uint256",
          "name": "",
          "type": "uint256"
        }
      ],
      "stateMutability": "view",
      "type": "function"
    },
    {
      "inputs": [
        {
          "internalType": "address",
          "name": "_account",
          "type": "address"
        },
        {
          "internalType": "uint256",
          "name": "_tier",
          "type": "uint256"
        }
      ],
      "name": "getTierDelegate",
      "outputs": [
        {
          "internalType": "address",
          "name": "",
          "type": "address"
        }
      ],
      "stateMutability": "view",
      "type": "function"
    },
    {
      "inputs": [
        {
          "internalType": "uint256",
          "name": "_tier",
          "type": "uint256"
        }
      ],
      "name": "getTierTotalVotes",
      "outputs": [
        {
          "internalType": "uint256",
          "name": "",
          "type": "uint256"
        }
      ],
      "stateMutability": "view",
      "type": "function"
    },
    {
      "inputs": [
        {
          "internalType": "address",
          "name": "_account",
          "type": "address"
        },
        {
          "internalType": "uint256",
          "name": "_tier",
          "type": "uint256"
        }
      ],
      "name": "getTierVotes",
      "outputs": [
        {
          "internalType": "uint256",
          "name": "",
          "type": "uint256"
        }
      ],
      "stateMutability": "view",
      "type": "function"
    },
    {
      "inputs": [
        {
          "internalType": "uint256",
          "name": "_projectId",
          "type": "uint256"
        },
        {
          "internalType": "contract IJBDirectory",
          "name": "_directory",
          "type": "address"
        },
        {
          "internalType": "string",
          "name": "_name",
          "type": "string"
        },
        {
          "internalType": "string",
          "name": "_symbol",
          "type": "string"
        },
        {
          "internalType": "contract IJBFundingCycleStore",
          "name": "_fundingCycleStore",
          "type": "address"
        },
        {
          "internalType": "string",
          "name": "_baseUri",
          "type": "string"
        },
        {
          "internalType": "contract IJBTokenUriResolver",
          "name": "_tokenUriResolver",
          "type": "address"
        },
        {
          "internalType": "string",
          "name": "_contractUri",
          "type": "string"
        },
        {
          "components": [
            {
              "components": [
                {
                  "internalType": "uint80",
                  "name": "contributionFloor",
                  "type": "uint80"
                },
                {
                  "internalType": "uint48",
                  "name": "lockedUntil",
                  "type": "uint48"
                },
                {
                  "internalType": "uint40",
                  "name": "initialQuantity",
                  "type": "uint40"
                },
                {
                  "internalType": "uint16",
                  "name": "votingUnits",
                  "type": "uint16"
                },
                {
                  "internalType": "uint16",
                  "name": "reservedRate",
                  "type": "uint16"
                },
                {
                  "internalType": "address",
                  "name": "reservedTokenBeneficiary",
                  "type": "address"
                },
                {
                  "internalType": "uint8",
                  "name": "royaltyRate",
                  "type": "uint8"
                },
                {
                  "internalType": "address",
                  "name": "royaltyBeneficiary",
                  "type": "address"
                },
                {
                  "internalType": "bytes32",
                  "name": "encodedIPFSUri",
                  "type": "bytes32"
                },
                {
                  "internalType": "uint8",
                  "name": "category",
                  "type": "uint8"
                },
                {
                  "internalType": "bool",
                  "name": "allowManualMint",
                  "type": "bool"
                },
                {
                  "internalType": "bool",
                  "name": "shouldUseReservedTokenBeneficiaryAsDefault",
                  "type": "bool"
                },
                {
                  "internalType": "bool",
                  "name": "shouldUseRoyaltyBeneficiaryAsDefault",
                  "type": "bool"
                },
                {
                  "internalType": "bool",
                  "name": "transfersPausable",
                  "type": "bool"
                }
              ],
              "internalType": "struct JB721TierParams[]",
              "name": "tiers",
              "type": "tuple[]"
            },
            {
              "internalType": "uint256",
              "name": "currency",
              "type": "uint256"
            },
            {
              "internalType": "uint256",
              "name": "decimals",
              "type": "uint256"
            },
            {
              "internalType": "contract IJBPrices",
              "name": "prices",
              "type": "address"
            }
          ],
          "internalType": "struct JB721PricingParams",
          "name": "_pricing",
          "type": "tuple"
        },
        {
          "internalType": "contract IJBTiered721DelegateStore",
          "name": "_store",
          "type": "address"
        },
        {
          "components": [
            {
              "internalType": "bool",
              "name": "lockReservedTokenChanges",
              "type": "bool"
            },
            {
              "internalType": "bool",
              "name": "lockVotingUnitChanges",
              "type": "bool"
            },
            {
              "internalType": "bool",
              "name": "lockManualMintingChanges",
              "type": "bool"
            },
            {
              "internalType": "bool",
              "name": "preventOverspending",
              "type": "bool"
            }
          ],
          "internalType": "struct JBTiered721Flags",
          "name": "_flags",
          "type": "tuple"
        }
      ],
      "name": "initialize",
      "outputs": [],
      "stateMutability": "nonpayable",
      "type": "function"
    },
    {
      "inputs": [
        {
          "internalType": "address",
          "name": "owner",
          "type": "address"
        },
        {
          "internalType": "address",
          "name": "operator",
          "type": "address"
        }
      ],
      "name": "isApprovedForAll",
      "outputs": [
        {
          "internalType": "bool",
          "name": "",
          "type": "bool"
        }
      ],
      "stateMutability": "view",
      "type": "function"
    },
    {
      "inputs": [
        {
          "components": [
            {
              "internalType": "uint16[]",
              "name": "tierIds",
              "type": "uint16[]"
            },
            {
              "internalType": "address",
              "name": "beneficiary",
              "type": "address"
            }
          ],
          "internalType": "struct JBTiered721MintForTiersData[]",
          "name": "_mintForTiersData",
          "type": "tuple[]"
        }
      ],
      "name": "mintFor",
      "outputs": [],
      "stateMutability": "nonpayable",
      "type": "function"
    },
    {
      "inputs": [
        {
          "internalType": "uint16[]",
          "name": "_tierIds",
          "type": "uint16[]"
        },
        {
          "internalType": "address",
          "name": "_beneficiary",
          "type": "address"
        }
      ],
      "name": "mintFor",
      "outputs": [
        {
          "internalType": "uint256[]",
          "name": "tokenIds",
          "type": "uint256[]"
        }
      ],
      "stateMutability": "nonpayable",
      "type": "function"
    },
    {
      "inputs": [
        {
          "components": [
            {
              "internalType": "uint256",
              "name": "tierId",
              "type": "uint256"
            },
            {
              "internalType": "uint256",
              "name": "count",
              "type": "uint256"
            }
          ],
          "internalType": "struct JBTiered721MintReservesForTiersData[]",
          "name": "_mintReservesForTiersData",
          "type": "tuple[]"
        }
      ],
      "name": "mintReservesFor",
      "outputs": [],
      "stateMutability": "nonpayable",
      "type": "function"
    },
    {
      "inputs": [
        {
          "internalType": "uint256",
          "name": "_tierId",
          "type": "uint256"
        },
        {
          "internalType": "uint256",
          "name": "_count",
          "type": "uint256"
        }
      ],
      "name": "mintReservesFor",
      "outputs": [],
      "stateMutability": "nonpayable",
      "type": "function"
    },
    {
      "inputs": [],
      "name": "name",
      "outputs": [
        {
          "internalType": "string",
          "name": "",
          "type": "string"
        }
      ],
      "stateMutability": "view",
      "type": "function"
    },
    {
      "inputs": [],
      "name": "owner",
      "outputs": [
        {
          "internalType": "address",
          "name": "",
          "type": "address"
        }
      ],
      "stateMutability": "view",
      "type": "function"
    },
    {
      "inputs": [
        {
          "internalType": "uint256",
          "name": "tokenId",
          "type": "uint256"
        }
      ],
      "name": "ownerOf",
      "outputs": [
        {
          "internalType": "address",
          "name": "",
          "type": "address"
        }
      ],
      "stateMutability": "view",
      "type": "function"
    },
    {
      "inputs": [
        {
          "components": [
            {
              "internalType": "contract IJBPaymentTerminal",
              "name": "terminal",
              "type": "address"
            },
            {
              "internalType": "address",
              "name": "payer",
              "type": "address"
            },
            {
              "components": [
                {
                  "internalType": "address",
                  "name": "token",
                  "type": "address"
                },
                {
                  "internalType": "uint256",
                  "name": "value",
                  "type": "uint256"
                },
                {
                  "internalType": "uint256",
                  "name": "decimals",
                  "type": "uint256"
                },
                {
                  "internalType": "uint256",
                  "name": "currency",
                  "type": "uint256"
                }
              ],
              "internalType": "struct JBTokenAmount",
              "name": "amount",
              "type": "tuple"
            },
            {
              "internalType": "uint256",
              "name": "projectId",
              "type": "uint256"
            },
            {
              "internalType": "uint256",
              "name": "currentFundingCycleConfiguration",
              "type": "uint256"
            },
            {
              "internalType": "address",
              "name": "beneficiary",
              "type": "address"
            },
            {
              "internalType": "uint256",
              "name": "weight",
              "type": "uint256"
            },
            {
              "internalType": "uint256",
              "name": "reservedRate",
              "type": "uint256"
            },
            {
              "internalType": "string",
              "name": "memo",
              "type": "string"
            },
            {
              "internalType": "bytes",
              "name": "metadata",
              "type": "bytes"
            }
          ],
          "internalType": "struct JBPayParamsData",
          "name": "_data",
          "type": "tuple"
        }
      ],
      "name": "payParams",
      "outputs": [
        {
          "internalType": "uint256",
          "name": "weight",
          "type": "uint256"
        },
        {
          "internalType": "string",
          "name": "memo",
          "type": "string"
        },
        {
          "components": [
            {
              "internalType": "contract IJBPayDelegate",
              "name": "delegate",
              "type": "address"
            },
            {
              "internalType": "uint256",
              "name": "amount",
              "type": "uint256"
            }
          ],
          "internalType": "struct JBPayDelegateAllocation[]",
          "name": "delegateAllocations",
          "type": "tuple[]"
        }
      ],
      "stateMutability": "view",
      "type": "function"
    },
    {
      "inputs": [],
      "name": "prices",
      "outputs": [
        {
          "internalType": "contract IJBPrices",
          "name": "",
          "type": "address"
        }
      ],
      "stateMutability": "view",
      "type": "function"
    },
    {
      "inputs": [],
      "name": "pricingCurrency",
      "outputs": [
        {
          "internalType": "uint256",
          "name": "",
          "type": "uint256"
        }
      ],
      "stateMutability": "view",
      "type": "function"
    },
    {
      "inputs": [],
      "name": "pricingDecimals",
      "outputs": [
        {
          "internalType": "uint256",
          "name": "",
          "type": "uint256"
        }
      ],
      "stateMutability": "view",
      "type": "function"
    },
    {
      "inputs": [],
      "name": "projectId",
      "outputs": [
        {
          "internalType": "uint256",
          "name": "",
          "type": "uint256"
        }
      ],
      "stateMutability": "view",
      "type": "function"
    },
    {
      "inputs": [
        {
          "components": [
            {
              "internalType": "contract IJBPaymentTerminal",
              "name": "terminal",
              "type": "address"
            },
            {
              "internalType": "address",
              "name": "holder",
              "type": "address"
            },
            {
              "internalType": "uint256",
              "name": "projectId",
              "type": "uint256"
            },
            {
              "internalType": "uint256",
              "name": "currentFundingCycleConfiguration",
              "type": "uint256"
            },
            {
              "internalType": "uint256",
              "name": "tokenCount",
              "type": "uint256"
            },
            {
              "internalType": "uint256",
              "name": "totalSupply",
              "type": "uint256"
            },
            {
              "internalType": "uint256",
              "name": "overflow",
              "type": "uint256"
            },
            {
              "components": [
                {
                  "internalType": "address",
                  "name": "token",
                  "type": "address"
                },
                {
                  "internalType": "uint256",
                  "name": "value",
                  "type": "uint256"
                },
                {
                  "internalType": "uint256",
                  "name": "decimals",
                  "type": "uint256"
                },
                {
                  "internalType": "uint256",
                  "name": "currency",
                  "type": "uint256"
                }
              ],
              "internalType": "struct JBTokenAmount",
              "name": "reclaimAmount",
              "type": "tuple"
            },
            {
              "internalType": "bool",
              "name": "useTotalOverflow",
              "type": "bool"
            },
            {
              "internalType": "uint256",
              "name": "redemptionRate",
              "type": "uint256"
            },
            {
              "internalType": "string",
              "name": "memo",
              "type": "string"
            },
            {
              "internalType": "bytes",
              "name": "metadata",
              "type": "bytes"
            }
          ],
          "internalType": "struct JBRedeemParamsData",
          "name": "_data",
          "type": "tuple"
        }
      ],
      "name": "redeemParams",
      "outputs": [
        {
          "internalType": "uint256",
          "name": "reclaimAmount",
          "type": "uint256"
        },
        {
          "internalType": "string",
          "name": "memo",
          "type": "string"
        },
        {
          "components": [
            {
              "internalType": "contract IJBRedemptionDelegate",
              "name": "delegate",
              "type": "address"
            },
            {
              "internalType": "uint256",
              "name": "amount",
              "type": "uint256"
            }
          ],
          "internalType": "struct JBRedemptionDelegateAllocation[]",
          "name": "delegateAllocations",
          "type": "tuple[]"
        }
      ],
      "stateMutability": "view",
      "type": "function"
    },
    {
      "inputs": [
        {
          "internalType": "uint256[]",
          "name": "_tokenIds",
          "type": "uint256[]"
        },
        {
          "components": [
            {
              "internalType": "contract IJBPaymentTerminal",
              "name": "terminal",
              "type": "address"
            },
            {
              "internalType": "address",
              "name": "holder",
              "type": "address"
            },
            {
              "internalType": "uint256",
              "name": "projectId",
              "type": "uint256"
            },
            {
              "internalType": "uint256",
              "name": "currentFundingCycleConfiguration",
              "type": "uint256"
            },
            {
              "internalType": "uint256",
              "name": "tokenCount",
              "type": "uint256"
            },
            {
              "internalType": "uint256",
              "name": "totalSupply",
              "type": "uint256"
            },
            {
              "internalType": "uint256",
              "name": "overflow",
              "type": "uint256"
            },
            {
              "components": [
                {
                  "internalType": "address",
                  "name": "token",
                  "type": "address"
                },
                {
                  "internalType": "uint256",
                  "name": "value",
                  "type": "uint256"
                },
                {
                  "internalType": "uint256",
                  "name": "decimals",
                  "type": "uint256"
                },
                {
                  "internalType": "uint256",
                  "name": "currency",
                  "type": "uint256"
                }
              ],
              "internalType": "struct JBTokenAmount",
              "name": "reclaimAmount",
              "type": "tuple"
            },
            {
              "internalType": "bool",
              "name": "useTotalOverflow",
              "type": "bool"
            },
            {
              "internalType": "uint256",
              "name": "redemptionRate",
              "type": "uint256"
            },
            {
              "internalType": "string",
              "name": "memo",
              "type": "string"
            },
            {
              "internalType": "bytes",
              "name": "metadata",
              "type": "bytes"
            }
          ],
          "internalType": "struct JBRedeemParamsData",
          "name": "",
          "type": "tuple"
        }
      ],
      "name": "redemptionWeightOf",
      "outputs": [
        {
          "internalType": "uint256",
          "name": "",
          "type": "uint256"
        }
      ],
      "stateMutability": "view",
      "type": "function"
    },
    {
      "inputs": [],
      "name": "renounceOwnership",
      "outputs": [],
      "stateMutability": "nonpayable",
      "type": "function"
    },
    {
      "inputs": [
        {
          "internalType": "uint256",
          "name": "_tokenId",
          "type": "uint256"
        },
        {
          "internalType": "uint256",
          "name": "_salePrice",
          "type": "uint256"
        }
      ],
      "name": "royaltyInfo",
      "outputs": [
        {
          "internalType": "address",
          "name": "",
          "type": "address"
        },
        {
          "internalType": "uint256",
          "name": "",
          "type": "uint256"
        }
      ],
      "stateMutability": "view",
      "type": "function"
    },
    {
      "inputs": [
        {
          "internalType": "address",
          "name": "from",
          "type": "address"
        },
        {
          "internalType": "address",
          "name": "to",
          "type": "address"
        },
        {
          "internalType": "uint256",
          "name": "tokenId",
          "type": "uint256"
        }
      ],
      "name": "safeTransferFrom",
      "outputs": [],
      "stateMutability": "nonpayable",
      "type": "function"
    },
    {
      "inputs": [
        {
          "internalType": "address",
          "name": "from",
          "type": "address"
        },
        {
          "internalType": "address",
          "name": "to",
          "type": "address"
        },
        {
          "internalType": "uint256",
          "name": "tokenId",
          "type": "uint256"
        },
        {
          "internalType": "bytes",
          "name": "data",
          "type": "bytes"
        }
      ],
      "name": "safeTransferFrom",
      "outputs": [],
      "stateMutability": "nonpayable",
      "type": "function"
    },
    {
      "inputs": [
        {
          "internalType": "address",
          "name": "operator",
          "type": "address"
        },
        {
          "internalType": "bool",
          "name": "approved",
          "type": "bool"
        }
      ],
      "name": "setApprovalForAll",
      "outputs": [],
      "stateMutability": "nonpayable",
      "type": "function"
    },
    {
      "inputs": [
        {
          "internalType": "string",
          "name": "_baseUri",
          "type": "string"
        }
      ],
      "name": "setBaseUri",
      "outputs": [],
      "stateMutability": "nonpayable",
      "type": "function"
    },
    {
      "inputs": [
        {
          "internalType": "string",
          "name": "_contractUri",
          "type": "string"
        }
      ],
      "name": "setContractUri",
      "outputs": [],
      "stateMutability": "nonpayable",
      "type": "function"
    },
    {
      "inputs": [
        {
          "internalType": "address",
          "name": "_beneficiary",
          "type": "address"
        }
      ],
      "name": "setDefaultReservedTokenBeneficiary",
      "outputs": [],
      "stateMutability": "nonpayable",
      "type": "function"
    },
    {
      "inputs": [
        {
          "internalType": "uint256",
          "name": "_tierId",
          "type": "uint256"
        },
        {
          "internalType": "bytes32",
          "name": "_encodedIPFSUri",
          "type": "bytes32"
        }
      ],
      "name": "setEncodedIPFSUriOf",
      "outputs": [],
      "stateMutability": "nonpayable",
      "type": "function"
    },
    {
      "inputs": [
        {
          "internalType": "address",
          "name": "_delegatee",
          "type": "address"
        },
        {
          "internalType": "uint256",
          "name": "_tierId",
          "type": "uint256"
        }
      ],
      "name": "setTierDelegate",
      "outputs": [],
      "stateMutability": "nonpayable",
      "type": "function"
    },
    {
      "inputs": [
        {
          "components": [
            {
              "internalType": "address",
              "name": "delegatee",
              "type": "address"
            },
            {
              "internalType": "uint256",
              "name": "tierId",
              "type": "uint256"
            }
          ],
          "internalType": "struct JBTiered721SetTierDelegatesData[]",
          "name": "_setTierDelegatesData",
          "type": "tuple[]"
        }
      ],
      "name": "setTierDelegates",
      "outputs": [],
      "stateMutability": "nonpayable",
      "type": "function"
    },
    {
      "inputs": [
        {
          "internalType": "contract IJBTokenUriResolver",
          "name": "_tokenUriResolver",
          "type": "address"
        }
      ],
      "name": "setTokenUriResolver",
      "outputs": [],
      "stateMutability": "nonpayable",
      "type": "function"
    },
    {
      "inputs": [],
      "name": "store",
      "outputs": [
        {
          "internalType": "contract IJBTiered721DelegateStore",
          "name": "",
          "type": "address"
        }
      ],
      "stateMutability": "view",
      "type": "function"
    },
    {
      "inputs": [
        {
          "internalType": "bytes4",
          "name": "_interfaceId",
          "type": "bytes4"
        }
      ],
      "name": "supportsInterface",
      "outputs": [
        {
          "internalType": "bool",
          "name": "",
          "type": "bool"
        }
      ],
      "stateMutability": "view",
      "type": "function"
    },
    {
      "inputs": [],
      "name": "symbol",
      "outputs": [
        {
          "internalType": "string",
          "name": "",
          "type": "string"
        }
      ],
      "stateMutability": "view",
      "type": "function"
    },
    {
      "inputs": [
        {
          "internalType": "uint256",
          "name": "_tokenId",
          "type": "uint256"
        }
      ],
      "name": "tokenURI",
      "outputs": [
        {
          "internalType": "string",
          "name": "",
          "type": "string"
        }
      ],
      "stateMutability": "view",
      "type": "function"
    },
    {
      "inputs": [
        {
          "components": [
            {
              "internalType": "contract IJBPaymentTerminal",
              "name": "terminal",
              "type": "address"
            },
            {
              "internalType": "address",
              "name": "holder",
              "type": "address"
            },
            {
              "internalType": "uint256",
              "name": "projectId",
              "type": "uint256"
            },
            {
              "internalType": "uint256",
              "name": "currentFundingCycleConfiguration",
              "type": "uint256"
            },
            {
              "internalType": "uint256",
              "name": "tokenCount",
              "type": "uint256"
            },
            {
              "internalType": "uint256",
              "name": "totalSupply",
              "type": "uint256"
            },
            {
              "internalType": "uint256",
              "name": "overflow",
              "type": "uint256"
            },
            {
              "components": [
                {
                  "internalType": "address",
                  "name": "token",
                  "type": "address"
                },
                {
                  "internalType": "uint256",
                  "name": "value",
                  "type": "uint256"
                },
                {
                  "internalType": "uint256",
                  "name": "decimals",
                  "type": "uint256"
                },
                {
                  "internalType": "uint256",
                  "name": "currency",
                  "type": "uint256"
                }
              ],
              "internalType": "struct JBTokenAmount",
              "name": "reclaimAmount",
              "type": "tuple"
            },
            {
              "internalType": "bool",
              "name": "useTotalOverflow",
              "type": "bool"
            },
            {
              "internalType": "uint256",
              "name": "redemptionRate",
              "type": "uint256"
            },
            {
              "internalType": "string",
              "name": "memo",
              "type": "string"
            },
            {
              "internalType": "bytes",
              "name": "metadata",
              "type": "bytes"
            }
          ],
          "internalType": "struct JBRedeemParamsData",
          "name": "",
          "type": "tuple"
        }
      ],
      "name": "totalRedemptionWeight",
      "outputs": [
        {
          "internalType": "uint256",
          "name": "",
          "type": "uint256"
        }
      ],
      "stateMutability": "view",
      "type": "function"
    },
    {
      "inputs": [
        {
          "internalType": "address",
          "name": "from",
          "type": "address"
        },
        {
          "internalType": "address",
          "name": "to",
          "type": "address"
        },
        {
          "internalType": "uint256",
          "name": "tokenId",
          "type": "uint256"
        }
      ],
      "name": "transferFrom",
      "outputs": [],
      "stateMutability": "nonpayable",
      "type": "function"
    },
    {
      "inputs": [
        {
          "internalType": "address",
          "name": "newOwner",
          "type": "address"
        }
      ],
      "name": "transferOwnership",
      "outputs": [],
      "stateMutability": "nonpayable",
      "type": "function"
    }
  ],
  "bytecode": {
    "object": "0x608080604052346100665760078054336001600160a01b03198083168217909355906001600160a01b03167f8be0079c531659141344cd1fd0a4f28419497f9722a3daafe3b4186f6b6457e0600080a330906008541617600855615c4c90816200006c8239f35b600080fdfe60806040526004361015610013575b600080fd5b60003560e01c806301ffc9a71461042357806306fdde031461041a578063081812fc14610411578063095ea7b3146104085780631d153ca4146103ff57806323b872dd146103f65780632407497e146103ed578063245a45b5146103e457806325eb91ee146103db5780632a55205a146103d25780632a596e53146103c95780632b13c58f146103c057806336c1a93b146103b75780633fafa127146103ae57806342842e0e146103a55780634ecba6251461039c578063525350ba1461039357806354c6d1f51461038a578063557e7155146103815780636352211e1461037857806364640c1e1461036f5780636ac6d9411461036657806370a082311461035d578063715018a6146103545780637ba62bf91461034b57806382732b6d146103425780638da5cb5b146103395780639494bf721461033057806394c5c5ca1461032757806395d89b411461031e578063975057e714610315578063a0bcfc7f1461030c578063a22cb46514610303578063a51cfd18146102fa578063aa4fb15b146102f1578063ab951e39146102e8578063b88d4fde146102df578063c41c2f24146102d6578063c74b13d9146102cd578063c87b56dd146102c4578063ca323efe146102bb578063ccb4807b146102b2578063d1704baf146102a9578063d31cc52c146102a0578063d3419bf314610297578063d40e71461461028e578063d46cf17114610285578063da9ee8b71461027c578063df487e2614610273578063e8a3d4851461026a578063e985e9c5146102615763f2fde38b1461025957600080fd5b61000e612291565b5061000e612228565b5061000e612191565b5061000e6120d3565b5061000e611fdd565b5061000e611f21565b5061000e611e66565b5061000e611e3c565b5061000e611e0d565b5061000e611d44565b5061000e6119df565b5061000e61198b565b5061000e611957565b5061000e6118a5565b5061000e61187b565b5061000e611813565b5061000e611787565b5061000e611767565b5061000e6116dc565b5061000e61162c565b5061000e61155c565b5061000e6114e9565b5061000e611443565b5061000e611407565b5061000e6113ed565b5061000e6113c3565b5061000e611376565b5061000e611317565b5061000e61113e565b5061000e61108d565b5061000e611030565b5061000e610fdd565b5061000e610fbe565b5061000e610f94565b5061000e610f75565b5061000e610eaa565b5061000e610e8b565b5061000e610e44565b5061000e610e25565b5061000e610d79565b5061000e610b87565b5061000e610a96565b5061000e6109dc565b5061000e610969565b5061000e6108fb565b5061000e610811565b5061000e6107dc565b5061000e610786565b5061000e6106e4565b5061000e610695565b5061000e6105b5565b5061000e61043e565b6001600160e01b031981160361000e57565b503461000e57602036600319011261000e5761048d60043561045f8161042c565b63ffffffff60e01b166306decc2d60e21b8114908115610491575b5060405190151581529081906020820190565b0390f35b63b3bcbb7960e01b81149150811561053d575b811561052c575b811561051b575b811561050a575b81156104c7575b503861047a565b6380ac58cd60e01b8114915081156104f9575b81156104e8575b50386104c0565b6301ffc9a760e01b149050386104e1565b635b5e139f60e01b811491506104da565b63152a902d60e11b811491506104b9565b632b13c58f60e01b811491506104b2565b63da9ee8b760e01b811491506104ab565b6371700c6960e01b811491506104a4565b600091031261000e57565b60005b83811061056c5750506000910152565b818101518382015260200161055c565b9060209161059581518092818552858086019101610559565b601f01601f1916010190565b9060206105b292818152019061057c565b90565b503461000e5760008060031936011261069257604051908080546105d881613775565b80855291600191808316908115610668575060011461060e575b61048d8561060281870382611225565b604051918291826105a1565b80809450527f290decd9548b62a8d60345a988386fc84ba6bc95484008f6362f93160ef3e5635b8284106106505750505081016020016106028261048d6105f2565b80546020858701810191909152909301928101610635565b86955061048d9693506020925061060294915060ff191682840152151560051b82010192936105f2565b80fd5b503461000e57602036600319011261000e5760206106b46004356137af565b6040516001600160a01b039091168152f35b6001600160a01b0381160361000e57565b35906106e2826106c6565b565b503461000e57604036600319011261000e57600435610702816106c6565b6024356001600160a01b038061071783613742565b1680918416146107745780331415908161074e575b5061073c5761073a9161424e565b005b60405163e5fa0e3560e01b8152600490fd5b600090815260046020908152604080832033845290915290205460ff161590503861072c565b60405163133f8be960e01b8152600490fd5b503461000e57600036600319011261000e576008546040516001600160a01b039091168152602090f35b606090600319011261000e576004356107c8816106c6565b906024356107d5816106c6565b9060443590565b503461000e576107eb366107b0565b906107f68233613826565b1561073c5761073a92613f29565b60c435906106e2826106c6565b503461000e576000602036600319011261069257600435610831816106c6565b6108396155cf565b6009546001600160a01b03908116803b156108f75760405163036129cb60e61b81526001600160a01b03841660048201529084908290602490829084905af180156108ea575b6108b7575b506040513381529116907fe7784d93cfbfa4408e19577e6cc0436f4dbb51214b70e100905dfce9def88c1690602090a280f35b926108e37fe7784d93cfbfa4408e19577e6cc0436f4dbb51214b70e100905dfce9def88c1692946111b4565b9290610884565b6108f26124e6565b61087f565b8380fd5b503461000e57602036600319011261000e57600435610919816106c6565b60018060a01b0316600052600e6020526020604060002054604051908152f35b9181601f8401121561000e578235916001600160401b03831161000e576020808501948460051b01011161000e57565b503461000e57604036600319011261000e576004356001600160401b0380821161000e573660238301121561000e5781600401359181831161000e573660246101c085028301011161000e5760243591821161000e5761073a926109d36024933690600401610939565b93909201612efb565b503461000e5760408060031936011261000e5760648160018060a01b03600954168151928380926329c5eaf560e11b8252306004830152600435602483015260243560448301525afa918215610a89575b6000918293610a54575b50516001600160a01b039190911681526020810191909152604090f35b81610a7a92945061048d93503d8511610a82575b610a728183611225565b810190612738565b929091610a37565b503d610a68565b610a916124e6565b610a2d565b503461000e5760208060031936011261000e576001600160401b039060043582811161000e573660238201121561000e5780600401359183831161000e576024916006368486831b8401011161000e5760005b858110610af257005b80821b83019060409182602319823603011261000e5785610b3b91846001955190808201908d83831090831117610b41575b5260448a8301359283835201359283910152613386565b01610ae9565b610b4961119d565b610b24565b90816101e091031261000e5790565b602060031982011261000e57600435906001600160401b03821161000e576105b291600401610b4e565b50610b9136610b5d565b3415801590610cd9575b8015610cc9575b610cb7576101c081016024610bb782846143e4565b9050108015610c7f575b610c6d57610bd2610bda91836143e4565b8101906144a0565b915050805160005b818110610bf25761073a83614f98565b610bfc818461236d565b5190610c22610c15836000526002602052604060002090565b546001600160a01b031690565b610c3a610c2e87612ef1565b6001600160a01b031690565b6001600160a01b0390911603610c5b57610c55600192615001565b01610be2565b60405163075fd2b160e01b8152600490fd5b604051632a84050f60e01b8152600490fd5b50610c93610c8d82846143e4565b90614416565b63b3bcbb7960e01b916001600160e01b031991610caf91614438565b161415610bc1565b604051633efca5c360e11b8152600490fd5b5060055460208201351415610ba2565b50600654610d2390602090610cf6906001600160a01b0316610c2e565b600554604051636e49181f60e01b8152600481019190915233602482015292839190829081906044820190565b03915afa908115610d6c575b600091610d3e575b5015610b9b565b610d5f915060203d8111610d65575b610d578183611225565b810190614921565b38610d37565b503d610d4d565b610d746124e6565b610d2f565b503461000e5760208060031936011261000e576001600160401b039060043582811161000e57610dad903690600401610939565b9190610db76155cf565b60005b838110610dc357005b60059080821b830135603e198436030181121561000e5783018035601e198236030181121561000e5781019283359388851161000e5786859101911b3603811361000e57600193610e1887610e1e9401612ef1565b916135a2565b5001610dba565b503461000e57600036600319011261000e576020600554604051908152f35b503461000e5761073a610e56366107b0565b9060405192602084018481106001600160401b03821117610e7e575b604052600084526137e7565b610e8661119d565b610e72565b503461000e57600036600319011261000e576020600d54604051908152f35b503461000e57604036600319011261000e57600435602435610eca6155cf565b6009546001600160a01b0316803b1561000e577f677da4fed654db8e604791fa2582f342e2001aa217e27f6985eb3e0f67e5a7fc91600080610f4a936044604051809481936324de8d6360e11b83528a60048401528760248401525af18015610f68575b610f4f575b506040805191825233602083015290918291820190565b0390a2005b80610f5c610f62926111b4565b8061054e565b38610f33565b610f706124e6565b610f2e565b503461000e57602036600319011261000e5760206106b4600435612690565b503461000e57600036600319011261000e57600a546040516001600160a01b039091168152602090f35b503461000e57602036600319011261000e5760206106b4600435613742565b503461000e57600036600319011261000e576020600c54604051908152f35b90815180825260208080930193019160005b82811061101c575050505090565b83518552938101939281019260010161100e565b503461000e57604036600319011261000e576004356001600160401b03811161000e5761107961106761048d923690600401610939565b60243591611074836106c6565b6135a2565b604051918291602083526020830190610ffc565b503461000e57602036600319011261000e5761048d6004356110ae816106c6565b600954604051633de222bb60e21b81523060048201526001600160a01b0392831660248201529160209183916044918391165afa908115611131575b600091611103575b506040519081529081906020820190565b611124915060203d811161112a575b61111c8183611225565b8101906124d7565b386110f2565b503d611112565b6111396124e6565b6110ea565b503461000e57600080600319360112610692576111596155cf565b600780546001600160a01b0319811690915581906001600160a01b03167f8be0079c531659141344cd1fd0a4f28419497f9722a3daafe3b4186f6b6457e08280a380f35b50634e487b7160e01b600052604160045260246000fd5b6001600160401b0381116111c757604052565b6111cf61119d565b604052565b604081019081106001600160401b038211176111c757604052565b608081019081106001600160401b038211176111c757604052565b606081019081106001600160401b038211176111c757604052565b90601f801991011681019081106001600160401b038211176111c757604052565b604051906101c082018281106001600160401b038211176111c757604052565b604051906106e2826111d4565b6040519061012082018281106001600160401b038211176111c757604052565b6020906001600160401b0381116112ac575b60051b0190565b6112b461119d565b6112a5565b81601f8201121561000e578035916112d083611293565b926112de6040519485611225565b808452602092838086019260051b82010192831161000e578301905b828210611308575050505090565b813581529083019083016112fa565b503461000e57604036600319011261000e576001600160401b0360043581811161000e576113499036906004016112b9565b9060243590811161000e5760209161136861136e923690600401610b4e565b50612957565b604051908152f35b503461000e57604036600319011261000e576020600435611396816106c6565b60018060a01b03809116600052600f82526040600020602435600052825260406000205416604051908152f35b503461000e57600036600319011261000e576007546040516001600160a01b039091168152602090f35b503461000e576113fc36610b5d565b50602061136e6129cd565b503461000e57602036600319011261000e576004356000526011602052602060018060e01b0361143a6040600020615855565b16604051908152f35b503461000e57600080600319360112610692576040519080600180549161146983613775565b80865292828116908115610668575060011461148f5761048d8561060281870382611225565b92508083527fb10e2d527612073b26eecdfd717e6a320cf44b4afac2b0732d9fcbe2b7fa0cf65b8284106114d15750505081016020016106028261048d6105f2565b805460208587018101919091529093019281016114b6565b503461000e57600036600319011261000e576009546040516001600160a01b039091168152602090f35b90602060031983011261000e576004356001600160401b039283821161000e578060238301121561000e57816004013593841161000e576024848301011161000e576024019190565b503461000e5761156b36611513565b6115736155cf565b600954600091906001600160a01b0316803b15611613578260405180926331315e5960e11b82528183816115ab888b600484016132d5565b03925af18015611606575b6115f3575b506115c691926132fd565b7f7bc9110d5de090dd59e07912d2b93a5a27ac70a60c8d8e324db4f9ee8b8b5c136020604051338152a280f35b916116006115c6936111b4565b916115bb565b61160e6124e6565b6115b6565b8280fd5b8015150361000e57565b35906106e282611617565b503461000e57604036600319011261000e5760043561164a816106c6565b60243561165681611617565b6001600160a01b038216913383146116ca573360009081526004602090815260408083206001600160a01b039094168352929052209015159060ff1981541660ff83161790556040519081527f17307eab39ab6107e8899845ad3d59bd9653f200f220920489ca2b5937696c3160203392a3005b6040516306f8139d60e11b8152600490fd5b503461000e576116f36116ee36610b5d565b6144da565b604092919280519384938452611715602091606083870152606086019061057c565b90848203838601528080855193848152019401926000905b83821061173a5786860387f35b845180516001600160a01b031687528301518684015287965094850194938201936001919091019061172d565b503461000e57604036600319011261000e5761073a602435600435613386565b503461000e57604036600319011261000e5761073a6004356117a8816106c6565b60243590336123f8565b6020906001600160401b0381116117cf575b601f01601f19160190565b6117d761119d565b6117c4565b9291926117e8826117b2565b916117f66040519384611225565b82948184528183011161000e578281602093846000960137010152565b503461000e57608036600319011261000e57600435611831816106c6565b60243561183d816106c6565b606435916001600160401b03831161000e573660238401121561000e5761187161073a9336906024816004013591016117dc565b91604435916137e7565b503461000e57600036600319011261000e576006546040516001600160a01b039091168152602090f35b503461000e5760208060031936011261000e57600435906001600160401b03821161000e573660238301121561000e578160040135916118e483611293565b916040936118f485519485611225565b80845260248285019160061b8401019236841161000e57602401905b8382106119205761073a8561238f565b858236031261000e578286918251611937816111d4565b8435611942816106c6565b81528285013583820152815201910190611910565b503461000e57602036600319011261000e5761048d6119776004356127b5565b60405191829160208352602083019061057c565b503461000e57604036600319011261000e576004356119a9816106c6565b6001600160a01b03166000908152601060209081526040808320602435845282529091206001600160e01b039061143a90615855565b503461000e576119ee36611513565b6119f66155cf565b600954600091906001600160a01b0316803b156116135782604051809263d67b78fd60e01b8252818381611a2e888b600484016132d5565b03925af18015611a89575b611a76575b50611a4991926132fd565b7fd36dc0c1a06103fdcaf15f3f6fb797d1a97997514c78de073640c8b5005454b86020604051338152a280f35b91611a83611a49936111b4565b91611a3e565b611a916124e6565b611a39565b602435906106e2826106c6565b9080601f8301121561000e578160206105b2933591016117dc565b608435906106e2826106c6565b359069ffffffffffffffffffff8216820361000e57565b359065ffffffffffff8216820361000e57565b359064ffffffffff8216820361000e57565b61ffff81160361000e57565b35906106e282611b07565b359060ff8216820361000e57565b919091608090818185031261000e576040805192611b49846111ef565b839583356001600160401b03811161000e57840181601f8201121561000e57803590611b7482611293565b92611b8186519485611225565b82845260209485850191866101c08096028501019381851161000e578701925b848410611bd45750505092875250505080830135908401528082013590830152606090611bcf9082016106d7565b910152565b858483031261000e57878691611be8611246565b611bf187611acb565b8152611bfe838801611ae2565b83820152611c0d8c8801611af5565b8c8201526060611c1e818901611b13565b90820152611c2d868801611b13565b8682015260a0611c3e8189016106d7565b9082015260c0611c4f818901611b1e565b9082015260e0611c608189016106d7565b908201526101008088013590820152610120611c7d818901611b1e565b90820152610140611c8f818901611621565b90820152610160611ca1818901611621565b90820152610180611cb3818901611621565b908201526101a0611cc5818901611621565b90820152815201930192611ba1565b61012435906106e2826106c6565b60809061014319011261000e5760405190611cfc826111ef565b8161014435611d0a81611617565b815261016435611d1981611617565b602082015261018435611d2b81611617565b604082015260606101a43591611d4083611617565b0152565b503461000e576101c036600319011261000e57611d5f611a96565b6044356001600160401b039182821161000e57611d8160049236908401611aa3565b60643584811161000e57611d989036908501611aa3565b611da0611abe565b60a43586811161000e57611db79036908701611aa3565b611dbf610804565b9160e43588811161000e57611dd79036908901611aa3565b936101043598891161000e57611df361073a9936908a01611b2c565b95611dfc611cd4565b97611e0636611ce2565b9935612ba9565b503461000e57604036600319011261000e576004356000526011602052602061136e6024356040600020615670565b503461000e57600036600319011261000e57600b546040516001600160a01b039091168152602090f35b503461000e57606036600319011261000e57600435611e84816106c6565b60018060a01b031660005260106020526040600020602435600052602052602061136e6044356040600020615670565b91908252611ece602091606083850152606084019061057c565b90604092838184039101528080855193848152019401926000905b838210611ef857505050505090565b845180516001600160a01b03168752830151868401529485019493820193600190910190611ee9565b503461000e576020600319818136011261000e57600435906001600160401b03821161000e576101a090823603011261000e57611f6f611f686101648301836004016143e4565b36916117dc565b60405190611f7c826111d4565b6001825260005b848110611fc757509061048d91610124946000611f9e611266565b30815291820152611fae83612353565b52611fb882612353565b50604051948594013584611eb4565b8490611fd1612323565b82828601015201611f83565b5060031960203682011261000e57600435906001600160401b03821161000e5761020090823603011261000e57600554341590811591612051575b8115612042575b506120305761073a90600401614a7e565b6040516331c57b1b60e21b8152600490fd5b9050602482013514153861201f565b600654909150612069906001600160a01b0316610c2e565b604051636e49181f60e01b81526004810183905233602482015290602090829060449082905afa9081156120c6575b6000916120a8575b501590612018565b6120c0915060203d8111610d6557610d578183611225565b386120a0565b6120ce6124e6565b612098565b503461000e57602036600319011261000e576004356120f1816106c6565b6120f96155cf565b6009546001600160a01b0390811691823b1561000e576000916024839260405194859384926317161f7d60e01b845216968760048401525af18015612184575b612171575b506040513381527fab0014d4c7a642a02a31b303a318908c22b0fb2001f107278fc6076b4c671b65908060208101610f4a565b80610f5c61217e926111b4565b3861213e565b61218c6124e6565b612139565b503461000e5760008060031936011261069257600954604051630155619b60e71b815230600482015261048d92918290829060249082906001600160a01b03165afa91821561221b575b80926121f8575b505060405191829160208352602083019061057c565b61221492503d8091833e61220c8183611225565b810190612757565b38806121e2565b6122236124e6565b6121db565b503461000e57604036600319011261000e57602060ff61228560043561224d816106c6565b6024359061225a826106c6565b60018060a01b03166000526004845260406000209060018060a01b0316600052602052604060002090565b54166040519015158152f35b503461000e57602036600319011261000e576004356122af816106c6565b6122b76155cf565b6001600160a01b038116156122cf5761073a90615627565b60405162461bcd60e51b815260206004820152602660248201527f4f776e61626c653a206e6577206f776e657220697320746865207a65726f206160448201526564647265737360d01b6064820152608490fd5b60405190612330826111d4565b60006020838281520152565b50634e487b7160e01b600052603260045260246000fd5b602090805115612361570190565b61236961233c565b0190565b6020918151811015612382575b60051b010190565b61238a61233c565b61237a565b80519061239a612323565b5060005b8281106123aa57505050565b6123b4818361236d565b5180519091906001600160a01b03908116156123e6578260206123e092600195511691015190336123f8565b0161239e565b6040516314f4c13d60e21b8152600490fd5b6001600160a01b039081166000818152600f602090815260408083208784528252822080548686166001600160a01b03198216179091556106e29692959294929390831692909190819080861685857f3134e8a2e6d97e929a7e54011ea5485d7d196dd5f0ba4d4ef95803e8e3fc257f8b80a460095416926064604051809581936305c9a1d560e31b835230600484015260248301528960448301525afa9586156124ca575b956124ab575b50506124f3565b6124c2929550803d1061112a5761111c8183611225565b9238806124a4565b6124d26124e6565b61249e565b9081602091031261000e575190565b506040513d6000823e3d90fd5b91926001600160a01b03808316939192919081168085148015612610575b6126085785918161259b575b5050508261252c575b50505050565b6001600160a01b031660009081526010602052604090207fed0c1e94c302bdbbd8bbd6a4fb7c3ed335c2292407cd816eadd075d019d0ce049161257a9185600052602052604060002061582d565b6040805192835260208301919091523390820152606090a338808080612526565b6001600160a01b03166000908152601060205260409020826000526020527fed0c1e94c302bdbbd8bbd6a4fb7c3ed335c2292407cd816eadd075d019d0ce046125e8856040600020615785565b6040805192835260208301919091523390820152606090a383388061251d565b505050505050565b508315612511565b50634e487b7160e01b600052601160045260246000fd5b9190820180921161263c57565b6106e2612618565b9061271091820391821161263c57565b60001981019190821161263c57565b9190820391821161263c57565b51906106e2826106c6565b9081602091031261000e57516105b2816106c6565b6009546040516308ed6c0160e41b8152306004820152602481018390526001600160a01b0392916020908290604490829087165afa90811561272b575b6000916126fd575b508281166126f757506126f2906000526002602052604060002090565b541690565b91505090565b61271e915060203d8111612724575b6127168183611225565b81019061267b565b386126d5565b503d61270c565b6127336124e6565b6126cd565b919082604091031261000e5760208251612751816106c6565b92015190565b60208183031261000e578051906001600160401b03821161000e570181601f8201121561000e578051612789816117b2565b926127976040519485611225565b8184526020828401011161000e576105b29160208085019101610559565b6009546127ca906001600160a01b0316610c2e565b604051630fab094760e01b815230600482015290916020918281602481875afa90811561294a575b60009161292d575b506001600160a01b0316806128d5575060405163f682eeaf60e01b81523060048201526105b293918390600083602481875afa9283156128c8575b6000936128ab575b50604051630c8df17160e41b81523060048201526024810191909152919282908180604481015b03915afa92831561289e575b60009361287f575b50506151f8565b612896929350803d1061112a5761111c8183611225565b903880612878565b6128a66124e6565b612870565b6128c290612864943d8091833e61220c8183611225565b9261283d565b6128d06124e6565b612835565b604051636d02a25560e11b8152600481019290925290925060009150829060249082905afa908115612920575b60009161290d575090565b6105b2913d8091833e61220c8183611225565b6129286124e6565b612902565b6129449150833d8511612724576127168183611225565b386127fa565b6129526124e6565b6127f2565b60206129919160018060a01b0360095416604051808095819463051330b560e21b8352306004840152604060248401526044830190610ffc565b03915afa9081156129c0575b6000916129a8575090565b6105b2915060203d811161112a5761111c8183611225565b6129c86124e6565b61299d565b600954604051631572f24960e11b815230600482015290602090829060249082906001600160a01b03165afa9081156129c0576000916129a8575090565b81601f8201121561000e57805191612a2283611293565b92612a306040519485611225565b808452602092838086019260051b82010192831161000e578301905b828210612a5a575050505090565b81518152908301908301612a4c565b9060208282031261000e5781516001600160401b03811161000e576105b29201612a0b565b60208082019080835283518092528060408094019401926000905b838210612ab857505050505090565b9091929394836101c0600192612b9c8951612adf83825169ffffffffffffffffffff169052565b8085015165ffffffffffff16838601528087015164ffffffffff168388015260608181015161ffff169084015260808181015161ffff169084015260a0818101516001600160a01b03169084015260c08181015160ff169084015260e0818101516001600160a01b03169084015261010081810151908401526101208082015160ff16908401526101408181015115159084015261016081810151151590840152610180818101511515908401526101a090810151151590830152565b0196019493920190612aa9565b9092999896939197959499612bc8610c2e60085460018060a01b031690565b301461000e576009546001600160a01b0399908a90612be8908216610c2e565b1661000e57612c1c94612bfa9361460b565b60018060a01b03166bffffffffffffffffffffffff60a01b600a541617600a55565b600980546001600160a01b0319166001600160a01b038616179055612c446020840151600c55565b604096612c5388850151600d55565b6060840151600b80546001600160a01b0319166001600160a01b039092169190911790558051612e92575b508051612e33575b50838116612dd2575b50518051612d6f575b50825115158015612d62575b8015612d56575b8015612d49575b612cc4575b505050506106e233615627565b1691823b1561000e57516365c13f1960e11b815281511515600482015260208201511515602482015260408201511515604482015260609091015115156064820152906000908290608490829084905af18015612d3c575b612d29575b808080612cb7565b80610f5c612d36926111b4565b38612d21565b612d446124e6565b612d1c565b5060608301511515612cb2565b50828401511515612cab565b5060208301511515612ca4565b6000612d8e9186518093819263229dad5f60e11b835260048301612a8e565b0381838787165af18015612dc5575b15612c9857612dbe903d806000833e612db68183611225565b810190612a69565b5038612c98565b612dcd6124e6565b612d9d565b838316803b1561000e57865163036129cb60e61b81526001600160a01b039290921660048301526000908290602490829084905af18015612e26575b15612c8f5780610f5c612e20926111b4565b38612c8f565b612e2e6124e6565b612e0e565b848416803b1561000e57875163d67b78fd60e01b8152916000918391829084908290612e6290600483016105a1565b03925af18015612e85575b15612c865780610f5c612e7f926111b4565b38612c86565b612e8d6124e6565b612e6d565b858516803b1561000e5788516331315e5960e11b8152916000918391829084908290612ec190600483016105a1565b03925af18015612ee4575b15612c7e5780610f5c612ede926111b4565b38612c7e565b612eec6124e6565b612ecc565b356105b2816106c6565b919092612f066155cf565b80612ff2575b505081612f17575050565b600954612f2c906001600160a01b0316610c2e565b9160409060008251809563229dad5f60e11b8252818381612f51878a60048401613255565b03925af1938415612fe5575b600094612fca575b5060005b818110612f77575050505050565b80612f846001928761236d565b517f8aa4a03deb8db10032373886aa0376c918ccf36bcdb59ca4da2a807ac7ff1a04612fc1612fb484878a613293565b87519182913390836132b1565b0390a201612f69565b612fde91943d8091833e612db68183611225565b9238612f65565b612fed6124e6565b612f5d565b600954613007906001600160a01b0316610c2e565b90813b1561000e576040916000835180926320512ba160e01b8252818381613033888b600484016130b7565b03925af180156130aa575b613097575b5060005b818110613055575050612f0c565b8061306360019284876130e0565b84513381529035907f832d89d991be5351d793c20faf4b7dd44f8aa9ce39e3cb160c6317de6fbba72990602090a201613047565b80610f5c6130a4926111b4565b38613043565b6130b26124e6565b61303e565b602080825281018390526001600160fb1b03831161000e5760409260051b809284830137010190565b91908110156130f05760051b0190565b6112b461233c565b906106e29161311a8261310a83611acb565b69ffffffffffffffffffff169052565b61313861312960208301611ae2565b65ffffffffffff166020840152565b61315561314760408301611af5565b64ffffffffff166040840152565b61316f61316460608301611b13565b61ffff166060840152565b61318961317e60808301611b13565b61ffff166080840152565b6131a861319860a083016106d7565b6001600160a01b031660a0840152565b6131c16131b760c08301611b1e565b60ff1660c0840152565b6131e06131d060e083016106d7565b6001600160a01b031660e0840152565b61010080820135908301526132056101206131fc818401611b1e565b60ff1690840152565b61321e610140613216818401611621565b151590840152565b61322f610160613216818401611621565b613240610180613216818401611621565b61324e6101a0809201611621565b1515910152565b602080825281018390526040019160005b8181106132735750505090565b90919280613283600192866130f8565b6101c09081019401929101613266565b916101c0918110156132a457020190565b6132ac61233c565b020190565b9092916101c0906132c7836101e08101966130f8565b6001600160a01b0316910152565b90918060409360208452816020850152848401376000828201840152601f01601f1916010190565b81604051928392833781016000815203902090565b908161012091031261000e57613326611273565b90805182526020810151602083015260408101516040830152606081015160608301526080810151608083015260a081015160a083015260c081015160c083015261337360e08201612670565b60e0830152610100809101519082015290565b600a5461339b906001600160a01b0316610c2e565b906133f960ff6101006133d260055495604096875180926321d1336160e11b82528180610120968795600483019190602083019252565b03915afa918215613595575b600092613568575b5050015160f41c1660018091811c161490565b61355757600954613412906001600160a01b0316610c2e565b8251635d53f40760e11b8152600481018390526024810185905292906000908490604490829084905af192831561354a575b60009361352f575b50600954613462906001600160a01b0316610c2e565b81516304db994760e21b8152306004820152602481018490529390602090859060449082905afa938415613522575b600094613502575b5060005b8581106134ac57505050505050565b806134b96001928461236d565b516134c4818861389e565b845133815260a084901b84900388169187917f031e1988c95a91ec4d655ff63a8f87a80bc9daf28d95ae10ee08c0022cfb5c8b90602090a40161349d565b61351b91945060203d8111612724576127168183611225565b9238613499565b61352a6124e6565b613491565b61354391933d8091833e612db68183611225565b913861344c565b6135526124e6565b613444565b8151631d2c125760e31b8152600490fd5b6135879250803d1061358e575b61357f8183611225565b810190613312565b38806133e6565b503d613575565b61359d6124e6565b6133de565b916135ab6155cf565b6009546135c0906001600160a01b0316610c2e565b9260409060008251809663eaa19ab360e01b82528183816135e58a88600484016136dd565b03925af19485156136a6575b600095613682575b5060005b84811061360c57505050505090565b806136196001928861236d565b51613624818761389e565b61ffff61363a613635848a886130e0565b613738565b86516000815233602082015260a086901b86900389169391909216917f598baf7bf150ca2f42be9e9f8f55e81d45f5715c3ff22bf46d697fabec7f31d690604090a4016135fd565b61369e91953d8091833e6136968183611225565b8101906136b3565b5093386135f9565b6136ae6124e6565b6135f1565b919060408382031261000e5782516001600160401b03811161000e57602091612751918501612a0b565b929160608401906000198552806020926060848801525260808501929160005b82811061371257505050506040600191930152565b90919293828060019261ffff883561372981611b07565b168152019501939291016136fd565b356105b281611b07565b6000908152600260205260409020546001600160a01b031680156137635790565b60405163b49aa3b560e01b8152600490fd5b90600182811c921680156137a5575b602083101461378f57565b634e487b7160e01b600052602260045260246000fd5b91607f1691613784565b6000818152600260205260409020546001600160a01b031615613763576000908152600360205260409020546001600160a01b031690565b9291906137f48233613826565b1561073c5783613808838361380d97613f29565b614328565b1561381457565b6040516336f57c1b60e11b8152600490fd5b6001600160a01b038061383884613742565b16928183169284841494851561386e575b50508315613858575b50505090565b613864919293506137af565b1614388080613852565b60009081526004602090815260408083206001600160a01b03949094168352929052205460ff1693503880613849565b6001600160a01b0381169291908315613a45576000828152600260205260409020546001600160a01b0316613a3357600082815260026020526040812080546001600160a01b0319166001600160a01b0384161790559361396592908190867fddf252ad1be2c89b69c2b068fc378daa952ba7f163c4a11628f55a4df523b3ef8180a4600954613936906001600160a01b0316610c2e565b60405163b67cb04760e01b815230600482015260248101929092526101c0939091908490829081906044820190565b0381855afa938415613a26575b86946139f7575b50508251813b156139f3576040516330b157e560e21b81526004810191909152600060248201526001600160a01b038316604482015293946106e294918290606490829084905af180156139e6575b6139d3575b50613d27565b80610f5c6139e0926111b4565b386139cd565b6139ee6124e6565b6139c8565b8580fd5b613a17929450803d10613a1f575b613a0f8183611225565b810190613a62565b913880613979565b503d613a05565b613a2e6124e6565b613972565b604051632eb5f0c360e21b8152600490fd5b604051633904578f60e11b8152600490fd5b51906106e282611617565b90816101c091031261000e57613a76611246565b90805182526020810151602083015260408101516040830152606081015160608301526080810151608083015260a081015160a083015260c081015160c0830152613ac360e08201612670565b60e08301526101008082015190830152610120613ae1818301612670565b9083015261014080820151908301526101608082015190830152610180613b09818301613a57565b90830152613b1b6101a0809201613a57565b9082015290565b600954613b699190613b3c906001600160a01b0316610c2e565b60405163b67cb04760e01b81523060048201526024810194909452926101c0928390829081906044820190565b0381875afa928315613c16575b600093613bf7575b50508151833b1561000e576040516330b157e560e21b815260048101919091526001600160a01b03821660248201526000604482018190526106e2948290606490829084905af18015613bea575b613bd7575b50613dc8565b80610f5c613be4926111b4565b38613bd1565b613bf26124e6565b613bcc565b613c0e929350803d10613a1f57613a0f8183611225565b903880613b7e565b613c1e6124e6565b613b76565b600954613c6b929190613c3e906001600160a01b0316610c2e565b60405163b67cb04760e01b81523060048201526024810195909552936101c0938490829081906044820190565b0381885afa938415613d1a575b600094613cfb575b50508251843b1561000e576040516330b157e560e21b815260048101919091526001600160a01b038281166024830152831660448201526106e2946000908290606490829084905af18015613cee575b613cdb575b50613e5d565b80610f5c613ce8926111b4565b38613cd5565b613cf66124e6565b613cd0565b613d12929450803d10613a1f57613a0f8183611225565b913880613c80565b613d226124e6565b613c78565b60a08201519081613d3757505050565b6106e292519060008281526011602052613d54846040832061582d565b506001600160a01b03916040915083831615613dad575b808052600f602052818120858252602052613d9e8383832054169460018060a01b0316600052600f602052604060002090565b858252602052205416906124f3565b8481526011602052613dc186838320615785565b5050613d6b565b60a08201519081613dd857505050565b91516106e2926001600160a01b03908116908115613e3f575b6000918383526011602052613e098560408520615785565b50508252600f60205260408220838352602052604081818420541692808052600f602052818120858252602052205416906124f3565b826000526011602052613e5684604060002061582d565b5050613df1565b9160a08101519182613e6f5750505050565b613ede610c15613ee495613ecf945194859160018060a01b038091168015613f0b575b81871615613eed575b600052600f602052604060002083600052602052604060002054169460018060a01b0316600052600f602052604060002090565b90600052602052604060002090565b906124f3565b38808080612526565b836000526011602052613f04896040600020615785565b5050613e9b565b836000526011602052613f2289604060002061582d565b5050613e92565b9190613f3482613742565b6001600160a01b03808516949181168590036141e8578083169081156141d65785613fbb575b5083906106e295613f6a836141fa565b600083815260026020526040902080546001600160a01b0319166001600160a01b0387161790557fddf252ad1be2c89b69c2b068fc378daa952ba7f163c4a11628f55a4df523b3ef600080a4613c23565b600954613fd0906001600160a01b0316610c2e565b60405163b67cb04760e01b81523060048201526024810187905290919061401f906101a0906101c090818180604481015b0381895afa9182156141c9575b6000926141ac575b50500151151590565b6140ff575b6040516308ed6c0160e41b815230600482015260248101879052602081604481865afa9081156140f2575b6000916140d4575b5016613f5a5790813b1561000e57604051638cec7d3960e01b8152600481018690526001600160a01b03841660248201526106e29686939091906000908290604490829084905af180156140c7575b6140b4575b50955090613f5a565b80610f5c6140c1926111b4565b386140ab565b6140cf6124e6565b6140a6565b6140ec915060203d8111612724576127168183611225565b38614057565b6140fa6124e6565b61404f565b61416b60ff61010061414661411e610c2e600a5460018060a01b031690565b60055460405180926321d1336160e11b82528180610120968795600483019190602083019252565b03915afa91821561419f575b600092614182575b5050015160f41c1660018091161490565b15614024576040516318cdaf9760e01b8152600490fd5b6141989250803d1061358e5761357f8183611225565b388061415a565b6141a76124e6565b614152565b6141c29250803d10613a1f57613a0f8183611225565b3880614016565b6141d16124e6565b61400e565b604051632c95542760e01b8152600490fd5b60405163a195bc5360e01b8152600490fd5b600081815260036020526040812080546001600160a01b03191690556001600160a01b0361422783613742565b167f8c5be1e5ebec7d5bd14f71427d1e84f3dd0314c0f7b2291e5b200ac8c7c3b9258280a4565b600082815260036020526040902080546001600160a01b0319166001600160a01b0383161790556001600160a01b038061428784613742565b169116907f8c5be1e5ebec7d5bd14f71427d1e84f3dd0314c0f7b2291e5b200ac8c7c3b925600080a4565b9081602091031261000e57516105b28161042c565b6001600160a01b0391821681529116602082015260408101919091526080606082018190526105b29291019061057c565b3d15614323573d90614309826117b2565b916143176040519384611225565b82523d6000602084013e565b606090565b92909190823b156143db5761435b926020926000604051809681958294630a85bd0160e11b9a8b855233600486016142c7565b03926001600160a01b03165af1600091816143ab575b5061439d5761437e6142f8565b80519081614398576040516336f57c1b60e11b8152600490fd5b602001fd5b6001600160e01b0319161490565b6143cd91925060203d81116143d4575b6143c58183611225565b8101906142b2565b9038614371565b503d6143bb565b50505050600190565b903590601e198136030182121561000e57018035906001600160401b03821161000e5760200191813603831361000e57565b9060241161000e5760200190600490565b9060441161000e5760400190600490565b6001600160e01b0319903581811693926004811061445557505050565b60040360031b82901b16169150565b60405190614471826111d4565b600182528160005b6020908181101561449b5760209161448f612323565b90828501015201614479565b505050565b9160608383031261000e5782359260208101356144bc8161042c565b9260408201356001600160401b03811161000e576105b292016112b9565b9060808201356145f9576101c082019060246144f683856143e4565b90501080156145c7575b610c6d5761454a614542610bd2614515614464565b9461451e611266565b3081526000602082015261453187612353565b5261453b86612353565b50866143e4565b915050612957565b6145526129cd565b90614562828260c0880135615b71565b916101808601359161271083146145b1579261459b836145956145a1946145ad9761458f611f6898612644565b90615b71565b9061262f565b90615ae9565b946101a08101906143e4565b9190565b50505092611f68816101a06145ad9301906143e4565b506145d5610c8d83856143e4565b63b3bcbb7960e01b916001600160e01b0319916145f191614438565b161415614500565b6040516309f82f1b60e31b8152600490fd5b9192909280516001600160401b03811161473b575b600091614636826146318554613775565b614748565b60209081601f84116001146146a9575092826146779361467c96936106e2999896849261469e575b50508160011b916000199060031b1c191617905561482c565b600555565b60018060a01b03166bffffffffffffffffffffffff60a01b6006541617600655565b01519050388061465e565b600080529190601f1984167f290decd9548b62a8d60345a988386fc84ba6bc95484008f6362f93160ef3e5639386905b8282106147235750509361467c96936106e29998969360019383614677981061470a575b505050811b01905561482c565b015160001960f88460031b161c191690553880806146fd565b806001869782949787015181550196019401906146d9565b61474361119d565b614620565b601f8111614754575050565b6000908180527f290decd9548b62a8d60345a988386fc84ba6bc95484008f6362f93160ef3e563906020601f850160051c830194106147ae575b601f0160051c01915b8281106147a357505050565b818155600101614797565b909250829061478e565b90601f82116147c5575050565b6001916000908382527fb10e2d527612073b26eecdfd717e6a320cf44b4afac2b0732d9fcbe2b7fa0cf6906020601f850160051c83019410614822575b601f0160051c01915b8281106148185750505050565b818155830161480b565b9092508290614802565b9081516001600160401b038111614914575b6001906148548161484f8454613775565b6147b8565b602080601f831160011461488f575081929394600092614884575b5050600019600383901b1c191690821b179055565b01519050388061486f565b90601f198316956148c260016000527fb10e2d527612073b26eecdfd717e6a320cf44b4afac2b0732d9fcbe2b7fa0cf690565b926000905b8882106148fd57505083859697106148e4575b505050811b019055565b015160001960f88460031b161c191690553880806148da565b8087859682949686015181550195019301906148c7565b61491c61119d565b61483e565b9081602091031261000e57516105b281611617565b604d8111614945575b600a0a90565b61494d612618565b61493f565b9160a08383031261000e57823592602091828201359360408301356149768161042c565b93606084013561498581611617565b936080810135906001600160401b03821161000e57019180601f8401121561000e5782356149b281611293565b936149c06040519586611225565b818552838086019260051b82010192831161000e578301905b8282106149e7575050505090565b83809183356149f581611b07565b8152019101906149d9565b9081608091031261000e57606060405191608083018381106001600160401b03821117614a71575b6040528051614a3681611617565b83526020810151614a4681611617565b60208401526040810151614a5981611617565b60408401520151614a6981611617565b606082015290565b614a7961119d565b614a28565b600060c082013590600c54808314600014614d875750505060808101355b610180820191614ac8614aae84612ef1565b6001600160a01b03166000908152600e6020526040902090565b54928293600093614ad884612ef1565b95614ae5610c2e85612ef1565b6001600160a01b0397881603614d7c57508101925b6000906101e08101906044614b0f83836143e4565b90501180614d45575b614c56575b50508315614bea5715614bd857614b8393614aae93018095828211600014614b86577f2fb2733fb01b76e3290fa8b695d18e026ddd19c0a265ab90e95152e57da30336614b6985612ef1565b60405133815292169383039180602081015b0390a4612ef1565b55565b818311614b96575b505050612ef1565b7fe0e7c81cf67a96dd0e39bcf11521b1f4c0098cc1dbe8c30750a11d9ebfc3ed4d82614bc186612ef1565b6040513381529316940391602090a4388481614b8e565b604051631b57826960e21b8152600490fd5b509150828294939403614bfd5750505050565b614c4c9284614c0f81614aae95612663565b7fe0e7c81cf67a96dd0e39bcf11521b1f4c0098cc1dbe8c30750a11d9ebfc3ed4d614c3985612ef1565b6040513381529416938060208101614b7b565b5538808080612526565b614c6d925090614c65916143e4565b810190614952565b92509250508180614cb0575b614ca7575b8051614c8b575b80614b1d565b93614ca09194614c9a85612ef1565b91614e89565b9238614c85565b60009150614c7e565b50600954614d0590606090614ccd906001600160a01b0316610c2e565b604051634228826f60e11b815230600482015290608090829060249082905afa908115614d38575b600091614d0a575b500151151590565b614c79565b614d2b915060803d8111614d31575b614d238183611225565b810190614a00565b38614cfd565b503d614d19565b614d406124e6565b614cf5565b50614d59614d5383836143e4565b90614427565b63b3bcbb7960e01b916001600160e01b031991614d7591614438565b1614614b18565b939450508093614afa565b600b546001600160a01b0316928315614e32576020614de391614e0095614daf600d54614936565b94604051809581948293635268657960e11b845260a08d013591600485016040919493926060820195825260208201520152565b03915afa928315614e25575b92614e05575b506080840135615b71565b614a9c565b614e1e91925060203d811161112a5761111c8183611225565b9038614df5565b614e2d6124e6565b614def565b5050505050565b929190606084019084526020906060828601528251809152816080860193019160005b828110614e7157505050506040600091930152565b835161ffff1685529381019392810192600101614e5c565b600954929392614ea1906001600160a01b0316610c2e565b6040805163eaa19ab360e01b815295600094919285908890818381614eca888b60048401614e39565b03925af18015614f8b575b85978691614f6b575b50968051955b868110614ef45750505050505050565b80614f016001928461236d565b51614f0c818661389e565b61ffff614f24614f1c848961236d565b5161ffff1690565b88518a815233602082015260a086901b86900388169391909216917f598baf7bf150ca2f42be9e9f8f55e81d45f5715c3ff22bf46d697fabec7f31d690604090a401614ee4565b9050614f829197503d8087833e6136968183611225565b96909638614ede565b614f936124e6565b614ed5565b6009546001600160a01b0316803b1561000e576040516386bc2be360e01b815260206004820152916000918391829084908290614fd9906024830190610ffc565b03925af18015614ff4575b614feb5750565b6106e2906111b4565b614ffc6124e6565b614fe4565b61500a81613742565b6001600160a01b0380821692919083615072575b508160006106e29461502f836141fa565b82825260026020526040822080546001600160a01b03191690557fddf252ad1be2c89b69c2b068fc378daa952ba7f163c4a11628f55a4df523b3ef8280a4613b22565b600954615087906001600160a01b0316610c2e565b60405163b67cb04760e01b8152306004820152602481018590529091906150bc906101a0906101c09081818060448101614001565b61519d575b6040516308ed6c0160e41b815230600482015260248101859052602081604481865afa908115615190575b600091615172575b501661501e5792833b1561000e57604051638cec7d3960e01b8152600481018490526001600160a01b03831660248201526106e2948492600092909183908290604490829084905af18015615165575b615152575b5094505061501e565b80610f5c61515f926111b4565b38615149565b61516d6124e6565b615144565b61518a915060203d8111612724576127168183611225565b386150f4565b6151986124e6565b6150ec565b600a546151b69061411e906001600160a01b0316610c2e565b03915afa80156151eb575b6151cd575b50506150c1565b816151e392903d1061358e5761357f8183611225565b5038806151c6565b6151f36124e6565b6151c1565b906105b290615226604051602092609160f51b848301526022820152602281526152218161120a565b615341565b92604051938161523f8693518092868087019101610559565b820161525382518093868085019101610559565b01038084520182611225565b604051602081018181106001600160401b03821117615288575b60405260008152906000368137565b61529061119d565b615279565b604051906105e082018281106001600160401b038211176152c3575b604052602e82526105c0366020840137565b6152cb61119d565b6152b1565b906152da82611293565b6152e76040519182611225565b82815280926152f8601f1991611293565b0190602036910137565b90602091805182101561531457010190565b61531c61233c565b010190565b811561532b570490565b634e487b7160e01b600052601260045260246000fd5b9081511561546057615351615295565b916000908161535f85612353565b5260019181519181925b80841061538f575050505061538561538a916105b2939461546a565b6154ad565b6154f4565b909192946153c06153ba6153b46153a68987615302565b516001600160f81b03191690565b60f81c90565b60ff1690565b9184925b60ff908982891686101561541f57600192916145956153f36153ba6153ec8a6153f99661236d565b5160ff1690565b60081b90565b6154168b61540e88603a95868606169261236d565b9060ff169052565b049301926153c4565b50919594935050809691965b615439575060010192615369565b9460ff6001603a9261545683858b061661540e8d8685169061236d565b011695048061542b565b90506105b261525f565b9060ff8091169061547a826152d0565b9260005b83811061548c575050505090565b808361549a6001938561236d565b51166154a6828861236d565b520161547e565b9081516154b9816152d0565b9060005b8181106154cb575090925050565b60019060ff6154e160001983895103018861236d565b51166154ed828661236d565b52016154bd565b80516154ff816117b2565b9160409061550f82519485611225565b828452601f1961551e846117b2565b016020903682870137600092835b85811061553c5750505050505090565b600190825161554a8161120a565b603a81527f31323334353637383941424344454647484a4b4c4d4e50515253545556575859858201527f5a6162636465666768696a6b6d6e6f707172737475767778797a000000000000848201526001600160f81b0319906155ba9060ff6155b2858a61236d565b511690615302565b5116861a6155c8828a615302565b530161552c565b6007546001600160a01b031633036155e357565b606460405162461bcd60e51b815260206004820152602060248201527f4f776e61626c653a2063616c6c6572206973206e6f7420746865206f776e65726044820152fd5b600780546001600160a01b039283166001600160a01b0319821681179092559091167f8be0079c531659141344cd1fd0a4f28419497f9722a3daafe3b4186f6b6457e0600080a3565b90438110156157415761568290615a84565b815490600063ffffffff8092165b8382106156d957505050806156b057505060005b6001600160e01b031690565b6156d4916156c06156cd92612654565b9060005260206000200190565b5460201c90565b6156a4565b909192808316906001818518811c8301809311615734575b86600052838684602060002001541611600014615713575050925b9190615690565b909493508101809111615727575b9161570c565b61572f612618565b615721565b61573c612618565b6156f1565b606460405162461bcd60e51b815260206004820152602060248201527f436865636b706f696e74733a20626c6f636b206e6f7420796574206d696e65646044820152fd5b6001600160e01b0392918361579983615855565b16908103908111615820575b6157ae43615a84565b918482116157cb578492836157c493169161596d565b9316921690565b60405162461bcd60e51b815260206004820152602760248201527f53616665436173743a2076616c756520646f65736e27742066697420696e20326044820152663234206269747360c81b6064820152608490fd5b615828612618565b6157a5565b6001600160e01b0392918361584183615855565b16908101809111615820576157ae43615a84565b805460008161586657505050600090565b602090600019938385810111615883575b81522001015460201c90565b61588b612618565b615877565b80546106e29291680100000000000000008210156158f2575b600182018082558210156158e5575b600090815260209081902083519382015190911b63ffffffff191663ffffffff9390931692909217910155565b6158ed61233c565b6158b8565b6158fa61119d565b6158a9565b9060405161590c816111d4565b602081935463ffffffff81168352811c910152565b1561592857565b60405162461bcd60e51b815260206004820152601760248201527f436865636b706f696e743a20696e76616c6964206b65790000000000000000006044820152606490fd5b90929192838254801515600014615a59579260209291846159a86159a36159966145ad98612654565b8560005260206000200190565b6158ff565b936159b7855163ffffffff1690565b6159ce63ffffffff91828416928391161115615921565b6159e86159df875163ffffffff1690565b63ffffffff1690565b03615a235750615a15926156c06159fe92612654565b9063ffffffff82549181199060201b169116179055565b01516001600160e01b031690565b915050615a5491615a41615a35611266565b63ffffffff9093168352565b6001600160e01b03881682860152615890565b615a15565b5050615a7e91615a6a615a35611266565b6001600160e01b0385166020830152615890565b60009190565b63ffffffff90818111615a95571690565b60405162461bcd60e51b815260206004820152602660248201527f53616665436173743a2076616c756520646f65736e27742066697420696e203360448201526532206269747360d01b6064820152608490fd5b919060001981840981840291828083109203918083039214615b66576127109081831015615b48577fbc01a36e2eb1c432ca57a786c226809d495182a9930be0ded288ce703afb7e9194950990828211900360fc1b910360041c170290565b6044838360405191631dcf306360e21b835260048301526024820152fd5b505061271090049150565b90916000198383099280830292838086109503948086039514615c095782851015615be957908291096001821901821680920460028082600302188083028203028083028203028083028203028083028203028083028203028092029003029360018380600003040190848311900302920304170290565b604051631dcf306360e21b81526004810186905260248101849052604490fd5b5050906105b2925061532156fea264697066735822122026096f6ce61426ccbe6d669b4f2bb899930186b16948b336e679d96c7468ab3464736f6c63430008110033",
    "linkReferences": {}
  },
  "methodIdentifiers": {
    "adjustTiers((uint80,uint48,uint40,uint16,uint16,address,uint8,address,bytes32,uint8,bool,bool,bool,bool)[],uint256[])": "25eb91ee",
    "approve(address,uint256)": "095ea7b3",
    "balanceOf(address)": "70a08231",
    "codeOrigin()": "1d153ca4",
    "contractURI()": "e8a3d485",
    "creditsOf(address)": "245a45b5",
    "didPay((address,uint256,uint256,(address,uint256,uint256,uint256),(address,uint256,uint256,uint256),uint256,address,bool,string,bytes))": "da9ee8b7",
    "didRedeem((address,uint256,uint256,uint256,(address,uint256,uint256,uint256),(address,uint256,uint256,uint256),address,string,bytes))": "2b13c58f",
    "directory()": "c41c2f24",
    "firstOwnerOf(uint256)": "54c6d1f5",
    "fundingCycleStore()": "557e7155",
    "getApproved(uint256)": "081812fc",
    "getPastTierTotalVotes(uint256,uint256)": "d31cc52c",
    "getPastTierVotes(address,uint256,uint256)": "d40e7146",
    "getTierDelegate(address,uint256)": "82732b6d",
    "getTierTotalVotes(uint256)": "94c5c5ca",
    "getTierVotes(address,uint256)": "ca323efe",
    "initialize(uint256,address,string,string,address,string,address,string,((uint80,uint48,uint40,uint16,uint16,address,uint8,address,bytes32,uint8,bool,bool,bool,bool)[],uint256,uint256,address),address,(bool,bool,bool,bool))": "d1704baf",
    "isApprovedForAll(address,address)": "e985e9c5",
    "mintFor((uint16[],address)[])": "36c1a93b",
    "mintFor(uint16[],address)": "6ac6d941",
    "mintReservesFor((uint256,uint256)[])": "2a596e53",
    "mintReservesFor(uint256,uint256)": "aa4fb15b",
    "name()": "06fdde03",
    "owner()": "8da5cb5b",
    "ownerOf(uint256)": "6352211e",
    "payParams((address,address,(address,uint256,uint256,uint256),uint256,uint256,address,uint256,uint256,string,bytes))": "d46cf171",
    "prices()": "d3419bf3",
    "pricingCurrency()": "64640c1e",
    "pricingDecimals()": "4ecba625",
    "projectId()": "3fafa127",
    "redeemParams((address,address,uint256,uint256,uint256,uint256,uint256,(address,uint256,uint256,uint256),bool,uint256,string,bytes))": "a51cfd18",
    "redemptionWeightOf(uint256[],(address,address,uint256,uint256,uint256,uint256,uint256,(address,uint256,uint256,uint256),bool,uint256,string,bytes))": "7ba62bf9",
    "renounceOwnership()": "715018a6",
    "royaltyInfo(uint256,uint256)": "2a55205a",
    "safeTransferFrom(address,address,uint256)": "42842e0e",
    "safeTransferFrom(address,address,uint256,bytes)": "b88d4fde",
    "setApprovalForAll(address,bool)": "a22cb465",
    "setBaseUri(string)": "a0bcfc7f",
    "setContractUri(string)": "ccb4807b",
    "setDefaultReservedTokenBeneficiary(address)": "df487e26",
    "setEncodedIPFSUriOf(uint256,bytes32)": "525350ba",
    "setTierDelegate(address,uint256)": "ab951e39",
    "setTierDelegates((address,uint256)[])": "c74b13d9",
    "setTokenUriResolver(address)": "2407497e",
    "store()": "975057e7",
    "supportsInterface(bytes4)": "01ffc9a7",
    "symbol()": "95d89b41",
    "tokenURI(uint256)": "c87b56dd",
    "totalRedemptionWeight((address,address,uint256,uint256,uint256,uint256,uint256,(address,uint256,uint256,uint256),bool,uint256,string,bytes))": "9494bf72",
    "transferFrom(address,address,uint256)": "23b872dd",
    "transferOwnership(address)": "f2fde38b"
  },
  "id": 36
}