{
  "abi": [
    {
      "inputs": [],
      "name": "MAX_DISCOUNT_RATE",
      "outputs": [
        {
          "internalType": "uint256",
          "name": "",
          "type": "uint256"
        }
      ],
      "stateMutability": "view",
      "type": "function"
    },
    {
      "inputs": [],
      "name": "MAX_FEE",
      "outputs": [
        {
          "internalType": "uint256",
          "name": "",
          "type": "uint256"
        }
      ],
      "stateMutability": "view",
      "type": "function"
    },
    {
      "inputs": [],
      "name": "MAX_FEE_DISCOUNT",
      "outputs": [
        {
          "internalType": "uint256",
          "name": "",
          "type": "uint256"
        }
      ],
      "stateMutability": "view",
      "type": "function"
    },
    {
      "inputs": [],
      "name": "MAX_REDEMPTION_RATE",
      "outputs": [
        {
          "internalType": "uint256",
          "name": "",
          "type": "uint256"
        }
      ],
      "stateMutability": "view",
      "type": "function"
    },
    {
      "inputs": [],
      "name": "MAX_RESERVED_RATE",
      "outputs": [
        {
          "internalType": "uint256",
          "name": "",
          "type": "uint256"
        }
      ],
      "stateMutability": "view",
      "type": "function"
    },
    {
      "inputs": [],
      "name": "SPLITS_TOTAL_PERCENT",
      "outputs": [
        {
          "internalType": "uint256",
          "name": "",
          "type": "uint256"
        }
      ],
      "stateMutability": "view",
      "type": "function"
    }
  ],
  "bytecode": {
    "object": "0x608080604052346100195760ca908161001f823930815050f35b600080fdfe60806040526004361015601157600080fd5b60003560e01c806319a9f94114605f5780634bb9704214605b5780635d14fef814605b578063870bc1fd146057578063bc063e1a1460575763d3c4fca914605757600080fd5b605f565b607d565b60003660031901126078576020604051633b9aca008152f35b600080fd5b600036600319011260785760206040516127108152f3fea26469706673582212201deea9b31a6d08801b8116c6a6f72622302ef16534aaa05e1d6d2bfd690e2af264736f6c63430008140033",
    "linkReferences": {}
  },
  "methodIdentifiers": {
    "MAX_DISCOUNT_RATE()": "870bc1fd",
    "MAX_FEE()": "bc063e1a",
    "MAX_FEE_DISCOUNT()": "19a9f941",
    "MAX_REDEMPTION_RATE()": "4bb97042",
    "MAX_RESERVED_RATE()": "5d14fef8",
    "SPLITS_TOTAL_PERCENT()": "d3c4fca9"
  },
  "id": 123
}