{
  "abi": [
    {
      "inputs": [],
      "name": "PERMISSION_INDEX_OUT_OF_BOUNDS",
      "type": "error"
    },
    {
      "anonymous": false,
      "inputs": [
        {
          "indexed": true,
          "internalType": "address",
          "name": "operator",
          "type": "address"
        },
        {
          "indexed": true,
          "internalType": "address",
          "name": "account",
          "type": "address"
        },
        {
          "indexed": true,
          "internalType": "uint256",
          "name": "domain",
          "type": "uint256"
        },
        {
          "indexed": false,
          "internalType": "uint256[]",
          "name": "permissionIndexes",
          "type": "uint256[]"
        },
        {
          "indexed": false,
          "internalType": "uint256",
          "name": "packed",
          "type": "uint256"
        }
      ],
      "name": "SetOperator",
      "type": "event"
    },
    {
      "inputs": [
        {
          "internalType": "address",
          "name": "_operator",
          "type": "address"
        },
        {
          "internalType": "address",
          "name": "_account",
          "type": "address"
        },
        {
          "internalType": "uint256",
          "name": "_domain",
          "type": "uint256"
        },
        {
          "internalType": "uint256",
          "name": "_permissionIndex",
          "type": "uint256"
        }
      ],
      "name": "hasPermission",
      "outputs": [
        {
          "internalType": "bool",
          "name": "",
          "type": "bool"
        }
      ],
      "stateMutability": "view",
      "type": "function"
    },
    {
      "inputs": [
        {
          "internalType": "address",
          "name": "_operator",
          "type": "address"
        },
        {
          "internalType": "address",
          "name": "_account",
          "type": "address"
        },
        {
          "internalType": "uint256",
          "name": "_domain",
          "type": "uint256"
        },
        {
          "internalType": "uint256[]",
          "name": "_permissionIndexes",
          "type": "uint256[]"
        }
      ],
      "name": "hasPermissions",
      "outputs": [
        {
          "internalType": "bool",
          "name": "",
          "type": "bool"
        }
      ],
      "stateMutability": "view",
      "type": "function"
    },
    {
      "inputs": [
        {
          "internalType": "address",
          "name": "",
          "type": "address"
        },
        {
          "internalType": "address",
          "name": "",
          "type": "address"
        },
        {
          "internalType": "uint256",
          "name": "",
          "type": "uint256"
        }
      ],
      "name": "permissionsOf",
      "outputs": [
        {
          "internalType": "uint256",
          "name": "",
          "type": "uint256"
        }
      ],
      "stateMutability": "view",
      "type": "function"
    },
    {
      "inputs": [
        {
          "components": [
            {
              "internalType": "address",
              "name": "operator",
              "type": "address"
            },
            {
              "internalType": "uint256",
              "name": "domain",
              "type": "uint256"
            },
            {
              "internalType": "uint256[]",
              "name": "permissionIndexes",
              "type": "uint256[]"
            }
          ],
          "internalType": "struct JBOperatorData",
          "name": "_operatorData",
          "type": "tuple"
        }
      ],
      "name": "setOperator",
      "outputs": [],
      "stateMutability": "nonpayable",
      "type": "function"
    },
    {
      "inputs": [
        {
          "components": [
            {
              "internalType": "address",
              "name": "operator",
              "type": "address"
            },
            {
              "internalType": "uint256",
              "name": "domain",
              "type": "uint256"
            },
            {
              "internalType": "uint256[]",
              "name": "permissionIndexes",
              "type": "uint256[]"
            }
          ],
          "internalType": "struct JBOperatorData[]",
          "name": "_operatorData",
          "type": "tuple[]"
        }
      ],
      "name": "setOperators",
      "outputs": [],
      "stateMutability": "nonpayable",
      "type": "function"
    }
  ],
  "bytecode": {
    "object": "0x60808060405234610016576106ac908161001c8239f35b600080fdfe6040608081526004908136101561001557600080fd5b6000803560e01c80630f5932f01461036d578063529cdd2e1461029357806380deb2301461022f5780638d5f697f146100f75763c161c93f1461005757600080fd5b346100f45760806003193601126100f4576100706103ce565b6100786103f6565b906064359460ff86116100cd57509383600193849360209773ffffffffffffffffffffffffffffffffffffffff8091168352828952838320911682528752818120604435825287522054901c16149051908152f35b84517f8e9503a9000000000000000000000000000000000000000000000000000000008152fd5b80fd5b50913461022b57602090816003193601126102275780359067ffffffffffffffff82116102235761012a91369101610419565b919092845b83811061013a578580f35b808561015e61015861014f60019589856105f6565b86810190610536565b90610636565b73ffffffffffffffffffffffffffffffffffffffff9081610188610183868b876105f6565b61058a565b168a52898752858a20338b528752858a20876101a5868b876105f6565b01358b52875280868b20557f9dee2ffb464e2d0198cd20321be1ae3f79ed49f7ed4abfaa7ee4fe982bbeb32061021a6101e2610183878c886105f6565b936102086101ff888d8d6101f783838d6105f6565b0135996105f6565b8a810190610536565b9290948a5193849333981696846105ab565b0390a40161012f565b8480fd5b8380fd5b8280fd5b50903461028f57606060031936011261028f578060209261024e6103ce565b6102566103f6565b73ffffffffffffffffffffffffffffffffffffffff91821683528286528383209116825284528181206044358252845220549051908152f35b5080fd5b5091903461022b57600319906020823601126102275782359267ffffffffffffffff8411610223578360609101928436030112610227577f9dee2ffb464e2d0198cd20321be1ae3f79ed49f7ed4abfaa7ee4fe982bbeb320604484016102fc6101588286610536565b9061036761035673ffffffffffffffffffffffffffffffffffffffff92836103238961058a565b168a5289602052868a20338b526020526024878b2099013598898b5260205284878b20556103508861058a565b97610536565b9390955193849333981696846105ab565b0390a480f35b50346100f45760806003193601126100f4576103876103ce565b926103906103f6565b916064359067ffffffffffffffff82116100f45750916103b9602095926103c594369101610419565b92909160443591610489565b90519015158152f35b6004359073ffffffffffffffffffffffffffffffffffffffff821682036103f157565b600080fd5b6024359073ffffffffffffffffffffffffffffffffffffffff821682036103f157565b9181601f840112156103f15782359167ffffffffffffffff83116103f1576020808501948460051b0101116103f157565b919081101561045a5760051b0190565b7f4e487b7100000000000000000000000000000000000000000000000000000000600052603260045260246000fd5b91909360005b8181106104a157505050505050600190565b6104ac81838761044a565b359060ff821161050c5773ffffffffffffffffffffffffffffffffffffffff858116600090815260208181526040808320938b168352928152828220878352905220546001921c821615610500570161048f565b50505050505050600090565b60046040517f8e9503a9000000000000000000000000000000000000000000000000000000008152fd5b9035907fffffffffffffffffffffffffffffffffffffffffffffffffffffffffffffffe1813603018212156103f1570180359067ffffffffffffffff82116103f157602001918160051b360383136103f157565b3573ffffffffffffffffffffffffffffffffffffffff811681036103f15790565b939291604085528060408601527f07ffffffffffffffffffffffffffffffffffffffffffffffffffffffffffffff81116103f15760209160609160051b809183880137850101930152565b919081101561045a5760051b810135907fffffffffffffffffffffffffffffffffffffffffffffffffffffffffffffffa1813603018212156103f1570190565b91906000926000915b80831061064b57505050565b9092919361065a85838661044a565b359060ff821161050c57600180921b179401909290919261063f56fea26469706673582212202be516ca4d0501fcc090ac9cd704cbdf76d3aaab95ab21f056661b26074c3a9f64736f6c63430008140033",
    "linkReferences": {}
  },
  "methodIdentifiers": {
    "hasPermission(address,address,uint256,uint256)": "c161c93f",
    "hasPermissions(address,address,uint256,uint256[])": "0f5932f0",
    "permissionsOf(address,address,uint256)": "80deb230",
    "setOperator((address,uint256,uint256[]))": "529cdd2e",
    "setOperators((address,uint256,uint256[])[])": "8d5f697f"
  },
  "id": 74
}