{
  "abi": [
    {
      "inputs": [],
      "name": "PERMISSION_INDEX_OUT_OF_BOUNDS",
      "type": "error"
    },
    {
      "anonymous": false,
      "inputs": [
        {
          "indexed": true,
          "internalType": "address",
          "name": "operator",
          "type": "address"
        },
        {
          "indexed": true,
          "internalType": "address",
          "name": "account",
          "type": "address"
        },
        {
          "indexed": true,
          "internalType": "uint256",
          "name": "domain",
          "type": "uint256"
        },
        {
          "indexed": false,
          "internalType": "uint256[]",
          "name": "permissionIndexes",
          "type": "uint256[]"
        },
        {
          "indexed": false,
          "internalType": "uint256",
          "name": "packed",
          "type": "uint256"
        }
      ],
      "name": "SetOperator",
      "type": "event"
    },
    {
      "inputs": [
        {
          "internalType": "address",
          "name": "_operator",
          "type": "address"
        },
        {
          "internalType": "address",
          "name": "_account",
          "type": "address"
        },
        {
          "internalType": "uint256",
          "name": "_domain",
          "type": "uint256"
        },
        {
          "internalType": "uint256",
          "name": "_permissionIndex",
          "type": "uint256"
        }
      ],
      "name": "hasPermission",
      "outputs": [
        {
          "internalType": "bool",
          "name": "",
          "type": "bool"
        }
      ],
      "stateMutability": "view",
      "type": "function"
    },
    {
      "inputs": [
        {
          "internalType": "address",
          "name": "_operator",
          "type": "address"
        },
        {
          "internalType": "address",
          "name": "_account",
          "type": "address"
        },
        {
          "internalType": "uint256",
          "name": "_domain",
          "type": "uint256"
        },
        {
          "internalType": "uint256[]",
          "name": "_permissionIndexes",
          "type": "uint256[]"
        }
      ],
      "name": "hasPermissions",
      "outputs": [
        {
          "internalType": "bool",
          "name": "",
          "type": "bool"
        }
      ],
      "stateMutability": "view",
      "type": "function"
    },
    {
      "inputs": [
        {
          "internalType": "address",
          "name": "",
          "type": "address"
        },
        {
          "internalType": "address",
          "name": "",
          "type": "address"
        },
        {
          "internalType": "uint256",
          "name": "",
          "type": "uint256"
        }
      ],
      "name": "permissionsOf",
      "outputs": [
        {
          "internalType": "uint256",
          "name": "",
          "type": "uint256"
        }
      ],
      "stateMutability": "view",
      "type": "function"
    },
    {
      "inputs": [
        {
          "components": [
            {
              "internalType": "address",
              "name": "operator",
              "type": "address"
            },
            {
              "internalType": "uint256",
              "name": "domain",
              "type": "uint256"
            },
            {
              "internalType": "uint256[]",
              "name": "permissionIndexes",
              "type": "uint256[]"
            }
          ],
          "internalType": "struct JBOperatorData",
          "name": "_operatorData",
          "type": "tuple"
        }
      ],
      "name": "setOperator",
      "outputs": [],
      "stateMutability": "nonpayable",
      "type": "function"
    },
    {
      "inputs": [
        {
          "components": [
            {
              "internalType": "address",
              "name": "operator",
              "type": "address"
            },
            {
              "internalType": "uint256",
              "name": "domain",
              "type": "uint256"
            },
            {
              "internalType": "uint256[]",
              "name": "permissionIndexes",
              "type": "uint256[]"
            }
          ],
          "internalType": "struct JBOperatorData[]",
          "name": "_operatorData",
          "type": "tuple[]"
        }
      ],
      "name": "setOperators",
      "outputs": [],
      "stateMutability": "nonpayable",
      "type": "function"
    }
  ],
  "bytecode": {
    "object": "0x608080604052346100165761059e908161001c8239f35b600080fdfe6040608081526004908136101561001557600080fd5b6000803560e01c80630f5932f0146102fc578063529cdd2e1461024057806380deb230146101e95780638d5f697f146100d35763c161c93f1461005757600080fd5b346100d05760803660031901126100d05761007061035c565b610078610377565b906064359460ff86116100c257506001600160a01b0390811683526020838152848420919092168352815282822060443583528152908290205491519190921c6001908116148152f35b8451638e9503a960e01b8152fd5b80fd5b5091346101e557602090816003193601126101e1578035906001600160401b0382116101dd576101059136910161038d565b919092845b838110610115578580f35b808561013961013361012a60019589856104e6565b8681019061046b565b90610508565b838060a01b03908161015461014f868b876104e6565b6104a0565b168a52898752858a20338b528752858a2087610171868b876104e6565b01358b52875280868b20556000805160206105498339815191526101d461019c61014f878c886104e6565b936101c26101b9888d8d6101b183838d6104e6565b0135996104e6565b8a81019061046b565b9290948a5193849333981696846104b4565b0390a40161010a565b8480fd5b8380fd5b8280fd5b50903461023c57606036600319011261023c578060209261020861035c565b610210610377565b6001600160a01b0391821683528286528383209116825284528181206044358252845220549051908152f35b5080fd5b509190346101e557600319906020368301126101e1578235926001600160401b0384116101dd5783606091019284360301126101e15760008051602061054983398151915260448401610296610133828661046b565b906001600160a01b03906102f6906102e590836102b2896104a0565b168a5289602052868a20338b526020526024878b2099013598898b5260205284878b20556102df886104a0565b9761046b565b9390955193849333981696846104b4565b0390a480f35b50346100d05760803660031901126100d05761031661035c565b9261031f610377565b91606435906001600160401b0382116100d0575091610347602095926103539436910161038d565b929091604435916103e3565b90519015158152f35b600435906001600160a01b038216820361037257565b600080fd5b602435906001600160a01b038216820361037257565b9181601f84011215610372578235916001600160401b038311610372576020808501948460051b01011161037257565b91908110156103cd5760051b0190565b634e487b7160e01b600052603260045260246000fd5b91909360005b8181106103fb57505050505050600190565b6104068183876103bd565b359060ff8211610459576001600160a01b03858116600090815260208181526040808320938b168352928152828220878352905220546001921c82161561044d57016103e9565b50505050505050600090565b604051638e9503a960e01b8152600490fd5b903590601e198136030182121561037257018035906001600160401b03821161037257602001918160051b3603831361037257565b356001600160a01b03811681036103725790565b604080825281018390529392916001600160fb1b0381116103725760209160609160051b809183880137850101930152565b91908110156103cd5760051b81013590605e1981360301821215610372570190565b91906000926000915b80831061051d57505050565b9092919361052c8583866103bd565b359060ff821161045957600180921b179401909290919261051156fe9dee2ffb464e2d0198cd20321be1ae3f79ed49f7ed4abfaa7ee4fe982bbeb320a2646970667358221220f60cceb8c357669d0560ee4dee8ab7e4e03bf47bf81594f84a4aefa1e69d0d5764736f6c63430008110033",
    "linkReferences": {}
  },
  "methodIdentifiers": {
    "hasPermission(address,address,uint256,uint256)": "c161c93f",
    "hasPermissions(address,address,uint256,uint256[])": "0f5932f0",
    "permissionsOf(address,address,uint256)": "80deb230",
    "setOperator((address,uint256,uint256[]))": "529cdd2e",
    "setOperators((address,uint256,uint256[])[])": "8d5f697f"
  },
  "id": 74
}