{
  "abi": [
    {
      "inputs": [
        {
          "internalType": "contract ITypeface",
          "name": "_typeface",
          "type": "address"
        }
      ],
      "stateMutability": "nonpayable",
      "type": "constructor"
    },
    {
      "inputs": [
        {
          "internalType": "uint256",
          "name": "prod1",
          "type": "uint256"
        },
        {
          "internalType": "uint256",
          "name": "denominator",
          "type": "uint256"
        }
      ],
      "name": "PRBMath__MulDivOverflow",
      "type": "error"
    },
    {
      "inputs": [],
      "name": "codeOrigin",
      "outputs": [
        {
          "internalType": "address",
          "name": "",
          "type": "address"
        }
      ],
      "stateMutability": "view",
      "type": "function"
    },
    {
      "inputs": [],
      "name": "delegate",
      "outputs": [
        {
          "internalType": "contract IDefifaDelegate",
          "name": "",
          "type": "address"
        }
      ],
      "stateMutability": "view",
      "type": "function"
    },
    {
      "inputs": [
        {
          "internalType": "uint256",
          "name": "_tokenId",
          "type": "uint256"
        }
      ],
      "name": "getUri",
      "outputs": [
        {
          "internalType": "string",
          "name": "",
          "type": "string"
        }
      ],
      "stateMutability": "view",
      "type": "function"
    },
    {
      "inputs": [
        {
          "internalType": "contract IDefifaDelegate",
          "name": "_delegate",
          "type": "address"
        }
      ],
      "name": "initialize",
      "outputs": [],
      "stateMutability": "nonpayable",
      "type": "function"
    },
    {
      "inputs": [],
      "name": "typeface",
      "outputs": [
        {
          "internalType": "contract ITypeface",
          "name": "",
          "type": "address"
        }
      ],
      "stateMutability": "view",
      "type": "function"
    }
  ],
  "bytecode": {
    "object": "0x60c03461008557601f62002db438819003918201601f19168301916001600160401b0383118484101761008a5780849260209460405283398101031261008557516001600160a01b0381168103610085573060805260a052604051612d139081620000a1823960805181818160c5015261012c015260a05181818160840152610f780152f35b600080fd5b634e487b7160e01b600052604160045260246000fdfe6080604052600436101561001257600080fd5b6000803560e01c9081631d153ca4146100ab5781634d5a1d111461006557508063c4d66de814610060578063c89e43611461005b5763da0544aa1461005657600080fd5b6101fd565b61018e565b610104565b346100a857806003193601126100a85760206040516001600160a01b037f0000000000000000000000000000000000000000000000000000000000000000168152f35b80fd5b346100a857806003193601126100a8576001600160a01b037f00000000000000000000000000000000000000000000000000000000000000001660805260206080f35b6001600160a01b038116036100ff57565b600080fd5b346100ff5760206003193601126100ff57600435610121816100ee565b6001600160a01b03807f00000000000000000000000000000000000000000000000000000000000000001630146100ff5760009182549180831661018a577fffffffffffffffffffffffff00000000000000000000000000000000000000009116911617815580f35b8380fd5b346100ff5760006003193601126100ff5760206001600160a01b0360005416604051908152f35b60005b8381106101c85750506000910152565b81810151838201526020016101b8565b90601f19601f6020936101f6815180928187528780880191016101b5565b0116010190565b346100ff5760206003193601126100ff5761023061021c600435610936565b6040519182916020835260208301906101d8565b0390f35b634e487b7160e01b600052604160045260246000fd5b6040810190811067ffffffffffffffff82111761026657604052565b610234565b6020810190811067ffffffffffffffff82111761026657604052565b6060810190811067ffffffffffffffff82111761026657604052565b90601f601f19910116810190811067ffffffffffffffff82111761026657604052565b908160209103126100ff575190565b6040513d6000823e3d90fd5b60405190610180820182811067ffffffffffffffff82111761026657604052565b67ffffffffffffffff811161026657601f01601f191660200190565b9092919261032b81610302565b9161033960405193846102a3565b8294828452828201116100ff5760206103539301906101b5565b565b9080601f830112156100ff57815161036f9260200161031e565b90565b906020828203126100ff57815167ffffffffffffffff81116100ff5761036f9201610355565b67ffffffffffffffff81116102665760051b60200190565b6040519060a0820182811067ffffffffffffffff82111761026657604052600482528160005b608081106103e2575050565b8060606020809385010152016103d6565b908160209103126100ff575161036f816100ee565b5190610353826100ee565b519081151582036100ff57565b6020818303126100ff57805167ffffffffffffffff918282116100ff5701610180818403126100ff576104516102e1565b92815184526020820151602085015260408201516040850152606082015160608501526080820151608085015260a082015160a085015261049460c08301610408565b60c085015260e082015160e085015261010080830151908501526101206104bc818401610413565b908501526101406104ce818401610413565b9085015261016092838301519081116100ff576104eb9201610355565b9082015290565b604051906104ff8261026b565b60008252565b604051906105128261024a565b601d82527f646174613a6170706c69636174696f6e2f6a736f6e3b6261736536342c0000006020830152565b634e487b7160e01b600052603260045260246000fd5b8051156105615760200190565b61053e565b8051600110156105615760400190565b8051600210156105615760600190565b8051600310156105615760800190565b80518210156105615760209160051b010190565b906105bd602092828151948592016101b5565b0190565b908160209103126100ff575160078110156100ff5790565b908160609103126100ff57805191604060208301516105f7816100ee565b92015190565b634e487b7160e01b600052601160045260246000fd5b906002820180921161062157565b6105fd565b906020820180921161062157565b9190820180921161062157565b6007111561064b57565b634e487b7160e01b600052602160045260246000fd5b6040519061066e82610287565b602982527f6d207265776172642e00000000000000000000000000000000000000000000006040837f53636f72656361726420617070726f7665642e204275726e20746f20636c616960208201520152565b604051906106cd8261024a565b601c82527f4177616974696e672073636f72656361726420617070726f76616c2e000000006020830152565b6040519061070682610287565b602482527f696e672e000000000000000000000000000000000000000000000000000000006040837f4d696e74696e67206973206f7665722e20526566756e64732061726520656e6460208201520152565b604051906107658261024a565b601d82527f4d696e74696e6720616e6420726566756e647320617265206f70656e2e0000006020830152565b6040519061079e8261024a565b601482527f4d696e74696e672073746172747320736f6f6e2e0000000000000000000000006020830152565b604051906107d782610287565b602482527f70656e2e000000000000000000000000000000000000000000000000000000006040837f4e6f20636f6e7465737420696e6576697461626c652e20526566756e6473206f60208201520152565b604051906108368261024a565b601982527f4e6f20636f6e746573742e20526566756e6473206f70656e2e000000000000006020830152565b9190820391821161062157565b908160209103126100ff5761036f90610413565b604051906108908261024a565b601582527f4177616974696e672073636f7265636172642e2e2e00000000000000000000006020830152565b604051906108c98261024a565b600282527f227d0000000000000000000000000000000000000000000000000000000000006020830152565b602061035391939293604051948161091687935180928680870191016101b5565b820161092a825180938680850191016101b5565b010380855201836102a3565b61095761094b6000546001600160a01b031690565b6001600160a01b031690565b90604051907f3fafa127000000000000000000000000000000000000000000000000000000008252602082600481865afa918215611ba357600092611f04575b506040517f06fdde03000000000000000000000000000000000000000000000000000000008152906060600083600481885afa928315611ba357600093611ee7575b506109e26103b0565b94604051927f975057e7000000000000000000000000000000000000000000000000000000008452602084600481855afa938415611ba357600094611ec6575b50600060405180957fc44a8e6d000000000000000000000000000000000000000000000000000000008252816001600160a01b0381610a8187896004840160409060009294936001600160a01b03606083019616825260208201520152565b0392165afa938415611ba357600094611ea1575b5083516040517f1baabc3e0000000000000000000000000000000000000000000000000000000081526004810191909152600081602481865afa908115611ba357600091611e86575b5060e085018051611e0b5750610af2610505565b610afb89610554565b52610b0588610554565b50610b9c610c51610b168751612acf565b610c43610bf4610b268a51612acf565b610b6d610bcb610bc5604051988997610b6d610b738d610b6d60208d016009907f7b226e616d65223a22000000000000000000000000000000000000000000000081520190565b906105aa565b7f222c20226964223a2022000000000000000000000000000000000000000000008152600a0190565b7f222c226465736372697074696f6e223a225465616d3a20000000000000000000815260170190565b896105aa565b7f2c2049443a200000000000000000000000000000000000000000000000000000815260060190565b7f2e222c22696d616765223a22646174613a696d6167652f7376672b786d6c3b6281527f61736536342c0000000000000000000000000000000000000000000000000000602082015260260190565b03601f1981018352826102a3565b610c5a89610566565b52610c6488610566565b50604051937fa0b6490c000000000000000000000000000000000000000000000000000000008552602085600481875afa8015611ba357610cee6020916001600160a01b0397600091611dee575b508a6040519889809481937f0715610a000000000000000000000000000000000000000000000000000000008352600483019190602083019252565b0392165afa948515611ba357600095611dbd575b506040517f7245d80c000000000000000000000000000000000000000000000000000000008152602081600481885afa8015611ba357610d8a83916001600160a01b0393600091611d9e575b508b6040519485809481937f3af76f34000000000000000000000000000000000000000000000000000000008352600483019190602083019252565b0392165afa8015611ba35760008092600092611d6c575b50604051907f27f6e9790000000000000000000000000000000000000000000000000000000082526020826004818b5afa908115611ba357610deb92600092611d4b575b50610634565b610df68284836122eb565b93610e0089610641565b60068903611ca95750610e11610829565b985b6003610e286060830151604084015190610862565b610e318b610641565b60018b03611c6b57610e84610e48610e5b92612acf565b610c4360405193849260208401906105aa565b7f206d696e74656420736f206661720000000000000000000000000000000000008152600e0190565b995b610e8f81610641565b03611c5657506040517f4f228e1100000000000000000000000000000000000000000000000000000000815260048101879052906020826024818b5afa918215611ba357600092611c35575b50604051917f640abacd0000000000000000000000000000000000000000000000000000000083526020836004818c5afa918215611ba357610f2593600093611c14575b50612c1f565b916040517fa8c15f4a0000000000000000000000000000000000000000000000000000000081526020816004818b5afa908115611ba357600091611be5575b50611bd757505050610f74610883565b955b7f000000000000000000000000000000000000000000000000000000000000000097610fb3610fad610fa78b6124d2565b9a612565565b9a612acf565b95604051907f975057e7000000000000000000000000000000000000000000000000000000008252602082600481845afa918215611ba3576001600160a01b039260209261104992600092611ba8575b506040519485809481937fe4dc2aa4000000000000000000000000000000000000000000000000000000008352600483019190916001600160a01b036020820193169052565b0392165afa8015611ba35761106691600091611b74575b50612acf565b9161107961107383611f97565b92612066565b9261108386612105565b51151580611b62575b15611b545761109a86612243565b945b6110a587612105565b5115611b23576110d76110b7886121a4565b975b6110c281612105565b5115611afd576110d190612105565b98612acf565b986040519d8e9d60208f0161113690603e907f3c7376672076696577426f783d2230203020353030203530302220786d6c6e7381527f3d22687474703a2f2f7777772e77332e6f72672f323030302f737667223e000060208201520190565b7f3c7374796c653e40666f6e742d666163657b666f6e742d66616d696c793a224381527f617073756c65732d353030223b7372633a75726c28646174613a666f6e742f7460208201527f727565747970653b636861727365743d7574662d383b6261736536342c0000006040820152605d016111b1916105aa565b7f293b666f726d617428226f70656e7479706522293b7d0000000000000000000081526016017f40666f6e742d666163657b666f6e742d66616d696c793a2243617073756c657381527f2d373030223b7372633a75726c28646174613a666f6e742f747275657479706560208201527f3b636861727365743d7574662d383b6261736536342c000000000000000000006040820152605601611252916105aa565b7f293b666f726d617428226f70656e7479706522293b7d0000000000000000000081526016017f746578747b77686974652d73706163653a7072652d777261703b20776964746881527f3a313030253b207d3c2f7374796c653e0000000000000000000000000000000060208201526030017f3c726563742077696474683d223130302522206865696768743d22313030252281527f2066696c6c3d2223313831343234222f3e00000000000000000000000000000060208201526031017f3c7465787420783d2231302220793d22333022207374796c653d22666f6e742d81527f73697a653a313670783b20666f6e742d66616d696c793a2043617073756c657360208201527f2d3530303b20666f6e742d7765696768743a3530303b2066696c6c3a2023633060408201527f623366313b223e47414d453a20000000000000000000000000000000000000006060820152606d016113b1916105aa565b7f207c20504f543a2000000000000000000000000000000000000000000000000081526008016113e0916105aa565b7f207c20504c41594552533a2000000000000000000000000000000000000000008152600c0161140f916105aa565b661e17ba32bc3a1f60c91b81526007017f3c7465787420783d2231302220793d22353022207374796c653d22666f6e742d81527f73697a653a313670783b20666f6e742d66616d696c793a2043617073756c657360208201527f2d3530303b20666f6e742d7765696768743a3530303b2066696c6c3a2023656460408201527f303137633b223e0000000000000000000000000000000000000000000000000060608201526067016114c0916105aa565b661e17ba32bc3a1f60c91b81526007017f3c7465787420783d2231302220793d22383522207374796c653d22666f6e742d81527f73697a653a323670783b20666f6e742d66616d696c793a2043617073756c657360208201527f2d3530303b20666f6e742d7765696768743a3530303b2066696c6c3a2023633060408201527f623366313b223e000000000000000000000000000000000000000000000000006060820152606701611571916105aa565b661e17ba32bc3a1f60c91b81526007017f3c7465787420783d2231302220793d2231323022207374796c653d22666f6e7481527f2d73697a653a323670783b20666f6e742d66616d696c793a2043617073756c6560208201527f732d3530303b20666f6e742d7765696768743a3530303b2066696c6c3a20236360408201527f30623366313b223e0000000000000000000000000000000000000000000000006060820152606801611622916105aa565b661e17ba32bc3a1f60c91b81526007017f3c7465787420783d2231302220793d2232303522207374796c653d22666f6e7481527f2d73697a653a383070783b20666f6e742d66616d696c793a2043617073756c6560208201527f732d3730303b20666f6e742d7765696768743a3730303b2066696c6c3a20236660408201526732b0991c191d911f60c11b60608201526068016116be916105aa565b661e17ba32bc3a1f60c91b81526007017f3c7465787420783d2231302220793d2232393522207374796c653d22666f6e7481527f2d73697a653a383070783b20666f6e742d66616d696c793a2043617073756c6560208201527f732d3730303b20666f6e742d7765696768743a3730303b2066696c6c3a20236660408201526732b0991c191d911f60c11b606082015260680161175a916105aa565b661e17ba32bc3a1f60c91b81526007017f3c7465787420783d2231302220793d2233383522207374796c653d22666f6e7481527f2d73697a653a383070783b20666f6e742d66616d696c793a2043617073756c6560208201527f732d3730303b20666f6e742d7765696768743a3730303b2066696c6c3a20236660408201526732b0991c191d911f60c11b60608201526068016117f6916105aa565b661e17ba32bc3a1f60c91b81526007017f3c7465787420783d2231302220793d2234333022207374796c653d22666f6e7481527f2d73697a653a313670783b20666f6e742d66616d696c793a2043617073756c6560208201527f732d3530303b20666f6e742d7765696768743a3530303b2066696c6c3a20236360408201527f30623366313b223e544f4b454e2049443a20000000000000000000000000000060608201526072016118a7916105aa565b661e17ba32bc3a1f60c91b81526007017f3c7465787420783d2231302220793d2234353522207374796c653d22666f6e7481527f2d73697a653a313670783b20666f6e742d66616d696c793a2043617073756c6560208201527f732d3530303b20666f6e742d7765696768743a3530303b2066696c6c3a20236360408201527f30623366313b223e5241524954593a20000000000000000000000000000000006060820152607001611958916105aa565b661e17ba32bc3a1f60c91b81526007017f3c7465787420783d2231302220793d2234383022207374796c653d22666f6e7481527f2d73697a653a313670783b20666f6e742d66616d696c793a2043617073756c6560208201527f732d3530303b20666f6e742d7765696768743a3530303b2066696c6c3a20236360408201527f30623366313b223e56414c55453a2000000000000000000000000000000000006060820152606f01611a09916105aa565b661e17ba32bc3a1f60c91b81526007017f3c2f7376673e0000000000000000000000000000000000000000000000000000815260060103601f1981018252611a5190826102a3565b611a5a90612658565b611a6382610576565b52611a6d81610576565b50611a766108bc565b611a7f82610586565b52611a8981610586565b50611a9381610554565b5190611a9e81610566565b51611aa882610576565b5191611ab390610586565b5160405192839260208401611ac7916105aa565b611ad0916105aa565b611ad9916105aa565b03601f1981018252611aeb90826102a3565b611af490612658565b61036f916108f5565b611b06816121a4565b5115611b15576110d1906121a4565b611b1e90612243565b6110d1565b611b2c876121a4565b5115611b44576110d7611b3e88612243565b976110b9565b6110d7611b4f6104f2565b611b3e565b611b5c6104f2565b9461109c565b50611b6c866121a4565b51151561108c565b611b96915060203d602011611b9c575b611b8e81836102a3565b8101906102c6565b38611060565b503d611b84565b6102d5565b611bc9919250843d8611611bd0575b611bc181836102a3565b8101906103f3565b9038611003565b503d611bb7565b611be0926122eb565b610f74565b611c07915060203d602011611c0d575b611bff81836102a3565b81019061086f565b38610f64565b503d611bf5565b611c2e91935060203d602011611b9c57611b8e81836102a3565b9138610f1f565b611c4f91925060203d602011611b9c57611b8e81836102a3565b9038610edb565b611c65939150602001516122eb565b95610f76565b611ca3610e48611c7a92612acf565b7f20696e206578697374656e6365000000000000000000000000000000000000008152600d0190565b99610e86565b611cb289610641565b60058903611cca5750611cc36107ca565b985b610e13565b611cd389610641565b88611ce15750611cc3610791565b611cea89610641565b60018903611cfb5750611cc3610758565b611d0489610641565b60028903611d155750611cc36106f9565b611d1e89610641565b60038903611d2f5750611cc36106c0565b98611d3989610641565b60048903611cc5579850611cc3610661565b611d6591925060203d602011611b9c57611b8e81836102a3565b9038610de5565b915050611d8f9150823d8411611d97575b611d8781836102a3565b8101906105d9565b909138610da1565b503d611d7d565b611db7915060203d602011611bd057611bc181836102a3565b38610d4e565b611de091955060203d602011611de7575b611dd881836102a3565b8101906105c1565b9338610d02565b503d611dce565b611e059150833d8511611bd057611bc181836102a3565b38610cb2565b965050509150506004935060009150604051938480927f6c0360eb0000000000000000000000000000000000000000000000000000000082525afa908115611ba35761036f92600092611e61575b50519061278f565b611e7f9192503d806000833e611e7781836102a3565b810190610372565b9038611e59565b611e9b91503d806000833e611e7781836102a3565b38610ade565b611ebf9194503d806000833e611eb781836102a3565b810190610420565b9238610a95565b611ee091945060203d602011611bd057611bc181836102a3565b9238610a22565b611efd9193503d806000833e611e7781836102a3565b91386109d9565b611f1e91925060203d602011611b9c57611b8e81836102a3565b9038610997565b8051601e101561056157603e0190565b8051601410156105615760340190565b8051600a101561056157602a0190565b908151811015610561570160200190565b90611f7082610302565b611f7d60405191826102a3565b828152601f19611f8d8294610302565b0190602036910137565b90601e82511561205b578251808211612053575b50600160fd1b6001600160f81b0319611fd4611fc686610554565b516001600160f81b03191690565b16149060009160001461204d576001915b8183101561204057611fff611ffa8484610862565b611f66565b92805b8381106120125750929450505050565b80612022611fc66001938a611f55565b61203961202f8584610862565b91861a9188611f55565b5301612002565b505050905061036f6104f2565b81611fe5565b905038611fab565b50905061036f6104f2565b90603c8251601e101561205b5782518082116120fd575b50600160fd1b6001600160f81b0319612098611fc686611f25565b1614906000916000146120f557601f915b81831015612040576120be611ffa8484610862565b92805b8381106120d15750929450505050565b806120e1611fc66001938a611f55565b6120ee61202f8584610862565b53016120c1565b601e916120a9565b90503861207d565b90601e82516014101561205b57825180821161219c575b50600160fd1b6001600160f81b0319612137611fc686611f35565b161490600091600014612194576015915b818310156120405761215d611ffa8484610862565b92805b8381106121705750929450505050565b80612180611fc66001938a611f55565b61218d61202f8584610862565b5301612160565b601491612148565b90503861211c565b9060148251600a101561205b57825180821161223b575b50600160fd1b6001600160f81b03196121d6611fc686611f45565b16149060009160001461223357600b915b81831015612040576121fc611ffa8484610862565b92805b83811061220f5750929450505050565b8061221f611fc66001938a611f55565b61222c61202f8584610862565b53016121ff565b600a916121e7565b9050386121bb565b90600a82511561205b5782518082116122d5575b50600160fd1b6001600160f81b0319612272611fc686610554565b1614906000916000146122cf576001915b8183101561204057612298611ffa8484610862565b92805b8381106122ab5750929450505050565b806122bb611fc66001938a611f55565b6122c861202f8584610862565b530161229b565b81612283565b905038612257565b604d811161062157600a0a90565b906123196123056001600160a01b0361232c9316946122dd565b6103e86123248261231e6123198289612601565b612acf565b96612867565b910490612601565b9160009061eeee81036123a957505061036f90610c4361238093610b6d604051958694610b6d602087016002907fce9e00000000000000000000000000000000000000000000000000000000000081520190565b7f2e00000000000000000000000000000000000000000000000000000000000000815260010190565b908060049392604051948580927f95d89b410000000000000000000000000000000000000000000000000000000082525afa8015611ba3576123809461036f9483610c43949361241d575b5050612410610b6d91610b6d60405198899760208901906105aa565b600160fd1b815260010190565b610b6d9293506124109161243a913d8091833e611e7781836102a3565b92916123f4565b6040519061244e8261024a565b600682527f6e6f726d616c00000000000000000000000000000000000000000000000000006020830152565b6020818303126100ff5780519067ffffffffffffffff82116100ff57019080601f830112156100ff57815161036f9260200161031e565b6060602061036f9381845280518285015201519160408082015201906101d8565b60006125336001600160a01b03926040516124ec8161024a565b6101f481526124f9612441565b60208201526040519485809481937fbf6519ad000000000000000000000000000000000000000000000000000000008352600483016124b1565b0392165afa908115611ba35760009161254a575090565b61036f913d8091833e61255d81836102a3565b81019061247a565b60006125336001600160a01b039260405161257f8161024a565b6102bc81526124f9612441565b6040519061259982610287565b604082527f6768696a6b6c6d6e6f707172737475767778797a303132333435363738392b2f6040837f4142434445464748494a4b4c4d4e4f505152535455565758595a61626364656660208201520152565b634e487b7160e01b600052601260045260246000fd5b811561260b570490565b6125eb565b908160021b917f3fffffffffffffffffffffffffffffffffffffffffffffffffffffffffffffff81160361062157565b60405161264c8161026b565b60008152906000368137565b8051156127865761266761258c565b61268361267e6126778451610613565b6003900490565b612610565b91612690611ffa84610626565b92835280815182019060208501935b828210612734575050506003905106806001146126eb576002146126c1575090565b6000197f3d0000000000000000000000000000000000000000000000000000000000000091015290565b507ffffffffffffffffffffffffffffffffffffffffffffffffffffffffffffffffe7f3d3d00000000000000000000000000000000000000000000000000000000000091015290565b9091936004906003809401938451600190603f9082828260121c16880101518553828282600c1c16880101518386015382828260061c168801015160028601531685010151908201530193919061269f565b5061036f6104f2565b9061036f906127d96040516020927f1220000000000000000000000000000000000000000000000000000000000000848301526022820152602281526127d481610287565b612871565b9260405193816127f286935180928680870191016101b5565b8201612806825180938680850191016101b5565b010380845201826102a3565b604051906105e0820182811067ffffffffffffffff82111761026657604052602e82526105c0366020840137565b9061284a82610398565b61285760405191826102a3565b828152601f19611f8d8294610398565b811561260b570690565b9081511561298857612881612812565b916000908161288f85610554565b5260019181519181925b8084106128bf57505050506128b56128ba9161036f9394612992565b6129d5565b612a1c565b909192946128e26128dc6128d6611fc68987611f55565b60f81c90565b60ff1690565b9184925b60ff9089828916861015612947576001929161291b6129156128dc61290e8a61292196610596565b5160ff1690565b60081b90565b90610634565b61293e8b61293688603a958686061692610596565b9060ff169052565b049301926128e6565b50919594935050809691965b612961575060010192612899565b9460ff6001603a9261297e83858b06166129368d86851690610596565b0116950480612953565b905061036f612640565b9060ff809116906129a282612840565b9260005b8381106129b4575050505090565b80836129c260019385610596565b51166129ce8288610596565b52016129a6565b9081516129e181612840565b9060005b8181106129f3575090925050565b8060ff612a096000196001948951030188610596565b5116612a158286610596565b52016129e5565b8051612a2781611f66565b91600090815b838110612a3b575050505090565b6001906001600160f81b0319612aba60407f5a6162636465666768696a6b6d6e6f707172737475767778797a000000000000815191612a7983610287565b603a83527f31323334353637383941424344454647484a4b4c4d4e50515253545556575859602084015282015260ff612ab28588610596565b511690611f55565b5116841a612ac88288611f55565b5301612a2d565b806000917a184f03e93ff9f4daa797ed6e38ed64bf6a1f01000000000000000080821015612c11575b506d04ee2d6d415b85acef810000000080831015612c02575b50662386f26fc1000080831015612bf3575b506305f5e10080831015612be4575b5061271080831015612bd5575b506064821015612bc5575b600a80921015612bbb575b600190816021612b66828701611f66565b95860101905b612b78575b5050505090565b600019849101917f30313233343536373839616263646566000000000000000000000000000000008282061a835304918215612bb657919082612b6c565b612b71565b9160010191612b55565b9190606460029104910191612b4a565b60049193920491019138612b3f565b60089193920491019138612b32565b60109193920491019138612b23565b60209193920491019138612b11565b604093508104915038612af8565b90916000198383099280830292838086109503948086039514612cd05782851015612c9757908291096001821901821680920460028082600302188083028203028083028203028083028203028083028203028083028203028092029003029360018380600003040190848311900302920304170290565b6040517f773cc18c0000000000000000000000000000000000000000000000000000000081526004810186905260248101849052604490fd5b50509061036f925061260156fea2646970667358221220a901ba11c125a6675818c7bc26be05a3d3191c245a3f19c4b88c9ba50fc050c864736f6c63430008140033",
    "linkReferences": {}
  },
  "methodIdentifiers": {
    "codeOrigin()": "1d153ca4",
    "delegate()": "c89e4361",
    "getUri(uint256)": "da0544aa",
    "initialize(address)": "c4d66de8",
    "typeface()": "4d5a1d11"
  },
  "id": 4
}