{
  "abi": [
    {
      "inputs": [
        {
          "internalType": "contract ITypeface",
          "name": "_typeface",
          "type": "address"
        }
      ],
      "stateMutability": "nonpayable",
      "type": "constructor"
    },
    {
      "inputs": [
        {
          "internalType": "uint256",
          "name": "prod1",
          "type": "uint256"
        },
        {
          "internalType": "uint256",
          "name": "denominator",
          "type": "uint256"
        }
      ],
      "name": "PRBMath__MulDivOverflow",
      "type": "error"
    },
    {
      "inputs": [],
      "name": "codeOrigin",
      "outputs": [
        {
          "internalType": "address",
          "name": "",
          "type": "address"
        }
      ],
      "stateMutability": "view",
      "type": "function"
    },
    {
      "inputs": [],
      "name": "delegate",
      "outputs": [
        {
          "internalType": "contract IDefifaDelegate",
          "name": "",
          "type": "address"
        }
      ],
      "stateMutability": "view",
      "type": "function"
    },
    {
      "inputs": [
        {
          "internalType": "uint256",
          "name": "_tokenId",
          "type": "uint256"
        }
      ],
      "name": "getUri",
      "outputs": [
        {
          "internalType": "string",
          "name": "",
          "type": "string"
        }
      ],
      "stateMutability": "view",
      "type": "function"
    },
    {
      "inputs": [
        {
          "internalType": "contract IDefifaDelegate",
          "name": "_delegate",
          "type": "address"
        },
        {
          "internalType": "string[]",
          "name": "_tierNames",
          "type": "string[]"
        }
      ],
      "name": "initialize",
      "outputs": [],
      "stateMutability": "nonpayable",
      "type": "function"
    },
    {
      "inputs": [
        {
          "internalType": "uint256",
          "name": "_tierId",
          "type": "uint256"
        }
      ],
      "name": "tierNameOf",
      "outputs": [
        {
          "internalType": "string",
          "name": "",
          "type": "string"
        }
      ],
      "stateMutability": "view",
      "type": "function"
    },
    {
      "inputs": [],
      "name": "typeface",
      "outputs": [
        {
          "internalType": "contract ITypeface",
          "name": "",
          "type": "address"
        }
      ],
      "stateMutability": "view",
      "type": "function"
    }
  ],
  "bytecode": {
    "object": "0x60c03461008757601f6200322e38819003918201601f19168301916001600160401b0383118484101761008c5780849260209460405283398101031261008757516001600160a01b0381168103610087573060805260a05260405161318b9081620000a3823960805181818161020501526106b9015260a051818181610249015261136e0152f35b600080fd5b634e487b7160e01b600052604160045260246000fdfe6080604052600436101561001257600080fd5b6000803560e01c9081631baabc3e1461007a575080631d153ca4146100755780634d5a1d111461007057806394e6f56f1461006b578063c89e4361146100665763da0544aa1461006157600080fd5b61049c565b610475565b610389565b610229565b6101e5565b3461013c576100883661013f565b815260208181526040822080548361009f826104c9565b9283608052600192838116908160001461011357506001146100da575b6100c9607f198701610294565b604051806100d68161019e565b0390f35b90809550528284205b8285106101015750505050607f1960a06100c99201918380806100bc565b805460a08601529383019381016100e3565b9150506100c99550607f19945060a093925060ff199150168252151560051b01918380806100bc565b80fd5b60031960209101126101515760043590565b600080fd5b60005b8381106101695750506000910152565b8181015183820152602001610159565b90601f19601f60209361019781518092818752878088019101610156565b0116010190565b9060209182815260805192838183015260005b8481106101d2575050601f19601f8460006040809697860101520116010190565b60a08101518382016040015281016101b1565b346101515760006003193601126101515760206040516001600160a01b037f0000000000000000000000000000000000000000000000000000000000000000168152f35b346101515760006003193601126101515760206040516001600160a01b037f0000000000000000000000000000000000000000000000000000000000000000168152f35b6001600160a01b0381160361015157565b634e487b7160e01b600052604160045260246000fd5b601f601f199101166080016080811067ffffffffffffffff8211176102b857604052565b61027e565b6040810190811067ffffffffffffffff8211176102b857604052565b6020810190811067ffffffffffffffff8211176102b857604052565b6060810190811067ffffffffffffffff8211176102b857604052565b90601f601f19910116810190811067ffffffffffffffff8211176102b857604052565b60405190610180820182811067ffffffffffffffff8211176102b857604052565b67ffffffffffffffff81116102b85760051b60200190565b67ffffffffffffffff81116102b857601f01601f191660200190565b346101515760408060031936011261015157600435906103a88261026d565b602491823567ffffffffffffffff9384821161015157366023830112156101515781600401356103d781610355565b946103e481519687610311565b818652602096838888019360051b8601019436861161015157848101935b8685106104155761041389896106ae565b005b8435838111610151578201903660438301121561015157868201359061043a8261036d565b61044687519182610311565b82815260449336858583010111610151578d848196958296600094018386013783010152815201940193610402565b346101515760006003193601126101515760206001600160a01b0360015416604051908152f35b34610151576100d66104b56104b03661013f565b610d59565b604051918291602083526020830190610179565b90600182811c921680156104f9575b60208310146104e357565b634e487b7160e01b600052602260045260246000fd5b91607f16916104d8565b9060405191826000825492610517846104c9565b9081845260019485811690816000146105865750600114610543575b505061054192500383610311565b565b9093915060005260209081600020936000915b81831061056e57505061054193508201013880610533565b85548884018501529485019487945091830191610556565b905061054195506020935060ff1991501682840152151560051b8201013880610533565b634e487b7160e01b600052603260045260246000fd5b8051156105cd5760200190565b6105aa565b8051600110156105cd5760400190565b8051600210156105cd5760600190565b8051600310156105cd5760800190565b80518210156105cd5760209160051b010190565b634e487b7160e01b600052601160045260246000fd5b906002820180921161063a57565b610616565b906020820180921161063a57565b9190820180921161063a57565b90601f811161066857505050565b600091825260208220906020601f850160051c830194106106a4575b601f0160051c01915b82811061069957505050565b81815560010161068d565b9092508290610684565b6001600160a01b03807f000000000000000000000000000000000000000000000000000000000000000016301461015157600191825491808316610151577fffffffffffffffffffffffff00000000000000000000000000000000000000009116911617815581519160005b8381106107275750505050565b6107318183610602565b5183820180921161063a578160005260206000815260406000209180519167ffffffffffffffff83116102b85782916107748361076e87546104c9565b8761065a565b81601f84116001146107ab57506000926107a0575b505060001982871b9260031b1c191617905561071a565b015190503880610789565b9190601f198995166107c287600052602060002090565b936000905b8282106107fd57505084116107e4575b505050811b01905561071a565b015160001960f88460031b161c191690553880806107d7565b8484015186558b979095019493840193908101906107c7565b90816020910312610151575190565b6040513d6000823e3d90fd5b9092919261083e8161036d565b9161084c6040519384610311565b829482845282820111610151576020610541930190610156565b9080601f8301121561015157815161088092602001610831565b90565b9060208282031261015157815167ffffffffffffffff8111610151576108809201610866565b6040519060a0820182811067ffffffffffffffff8211176102b857604052600482528160005b608081106108db575050565b8060606020809385010152016108cf565b9081602091031261015157516108808161026d565b51906105418261026d565b5190811515820361015157565b60208183031261015157805167ffffffffffffffff918282116101515701610180818403126101515761094a610334565b92815184526020820151602085015260408201516040850152606082015160608501526080820151608085015260a082015160a085015261098d60c08301610901565b60c085015260e082015160e085015261010080830151908501526101206109b581840161090c565b908501526101406109c781840161090c565b908501526101609283830151908111610151576109e49201610866565b9082015290565b604051906109f8826102d9565b60008252565b60405190610a0b826102bd565b601d82527f646174613a6170706c69636174696f6e2f6a736f6e3b6261736536342c0000006020830152565b90610a4a60209282815194859201610156565b0190565b90816020910312610151575160078110156101515790565b908160609103126101515780519160406020830151610a848161026d565b92015190565b60071115610a9457565b634e487b7160e01b600052602160045260246000fd5b60405190610ab7826102bd565b602082527f53636f72656361726420617070726f7665642e20436c61696d73206f70656e2e6020830152565b60405190610af0826102bd565b601c82527f4177616974696e672073636f72656361726420617070726f76616c2e000000006020830152565b60405190610b29826102f5565b602482527f696e672e000000000000000000000000000000000000000000000000000000006040837f4d696e74696e67206973206f7665722e20526566756e64732061726520656e6460208201520152565b60405190610b88826102bd565b601d82527f4d696e74696e6720616e6420726566756e647320617265206f70656e2e0000006020830152565b60405190610bc1826102bd565b601482527f4d696e74696e672073746172747320736f6f6e2e0000000000000000000000006020830152565b60405190610bfa826102f5565b602482527f70656e2e000000000000000000000000000000000000000000000000000000006040837f4e6f20636f6e7465737420696e6576697461626c652e20526566756e6473206f60208201520152565b60405190610c59826102bd565b601982527f4e6f20636f6e746573742e20526566756e6473206f70656e2e000000000000006020830152565b9190820391821161063a57565b90816020910312610151576108809061090c565b60405190610cb3826102bd565b601582527f4177616974696e672073636f7265636172642e2e2e00000000000000000000006020830152565b60405190610cec826102bd565b600282527f227d0000000000000000000000000000000000000000000000000000000000006020830152565b6020610541919392936040519481610d398793518092868087019101610156565b8201610d4d82518093868085019101610156565b01038085520183610311565b610d7a610d6e6001546001600160a01b031690565b6001600160a01b031690565b604051907f3fafa127000000000000000000000000000000000000000000000000000000008252602082600481845afa918215611fa55760009261237c575b506060600090604051927f06fdde030000000000000000000000000000000000000000000000000000000084528284600481845afa938415611fa5578394612360575b50610e056108a9565b95604051927f975057e7000000000000000000000000000000000000000000000000000000008452602084600481865afa938415611fa557859461233f575b508460405180957fc44a8e6d000000000000000000000000000000000000000000000000000000008252816001600160a01b0381610ea2888a6004840160409060009294936001600160a01b03606083019616825260208201520152565b0392165afa938415611fa557859461231b575b50610ed3610ece85516000526000602052604060002090565b610503565b9060e0850180516122a15750610ee76109fe565b610ef08a6105c0565b52610efa896105c0565b50610f6a6110488361103a610feb89610f64610fc2610fbc610f93610f29610f228651612f47565b9551612f47565b94610f646040519b8c9a610f6460208d016009907f7b226e616d65223a22000000000000000000000000000000000000000000000081520190565b90610a37565b7f222c20226964223a2022000000000000000000000000000000000000000000008152600a0190565b7f222c226465736372697074696f6e223a225465616d3a20000000000000000000815260170190565b8a610a37565b7f2c2049443a200000000000000000000000000000000000000000000000000000815260060190565b7f2e222c22696d616765223a22646174613a696d6167652f7376672b786d6c3b6281527f61736536342c0000000000000000000000000000000000000000000000000000602082015260260190565b03601f198101835282610311565b6110518a6105d2565b5261105b896105d2565b50604051947fa0b6490c000000000000000000000000000000000000000000000000000000008652602086600481885afa8015611fa5576110e46020916001600160a01b03988a91612284575b508b604051998a809481937f0715610a000000000000000000000000000000000000000000000000000000008352600483019190602083019252565b0392165afa958615611fa5578796612253575b50604051907f7245d80c000000000000000000000000000000000000000000000000000000008252602082600481895afa8015611fa55761117f84916001600160a01b03948b91612234575b508c6040519586809481937f3af76f34000000000000000000000000000000000000000000000000000000008352600483019190602083019252565b0392165afa908115611fa5578889938a936121ff575b50604051907f27f6e9790000000000000000000000000000000000000000000000000000000082526020826004818c5afa908115611fa5576111de928c926121de575b5061064d565b906111ea838584612763565b946111f48a610a8a565b60068a0361213c5750611205610c4c565b995b61121a6060830151604084015190610c85565b906112248b610a8a565b60018b0361206d575061125161127a61123e600393612f47565b61103a6040519384926020840190610a37565b7f206d696e74656420736f206661720000000000000000000000000000000000008152600e0190565b995b61128581610a8a565b0361205857506040517f4f228e1100000000000000000000000000000000000000000000000000000000815260048101879052906020826024818b5afa918215611fa557600092612037575b50604051917f640abacd0000000000000000000000000000000000000000000000000000000083526020836004818c5afa918215611fa55761131b93600093612016575b50613097565b916040517fa8c15f4a0000000000000000000000000000000000000000000000000000000081526020816004818b5afa908115611fa557600091611fe7575b50611fd95750505061136a610ca6565b955b7f0000000000000000000000000000000000000000000000000000000000000000976113a96113a361139d8b61294a565b9a6129dd565b9a612f47565b95604051907f975057e7000000000000000000000000000000000000000000000000000000008252602082600481845afa918215611fa5576001600160a01b039260209261143f92600092611faa575b506040519485809481937fe4dc2aa4000000000000000000000000000000000000000000000000000000008352600483019190916001600160a01b036020820193169052565b0392165afa8015611fa55761145c91600091611f76575b50612f47565b9161146f6114698361240f565b926124de565b926114798661257d565b51151580611f64575b15611f5657611490866126bb565b945b61149b8761257d565b5160009015611f2357506114d56114b18861261c565b975b6114bc8161257d565b5160009015611efb57506114cf9061257d565b98612f47565b986040519d8e9d60208f0161153490603e907f3c7376672076696577426f783d2230203020353030203530302220786d6c6e7381527f3d22687474703a2f2f7777772e77332e6f72672f323030302f737667223e000060208201520190565b7f3c7374796c653e40666f6e742d666163657b666f6e742d66616d696c793a224381527f617073756c65732d353030223b7372633a75726c28646174613a666f6e742f7460208201527f727565747970653b636861727365743d7574662d383b6261736536342c0000006040820152605d016115af91610a37565b7f293b666f726d617428226f70656e7479706522293b7d0000000000000000000081526016017f40666f6e742d666163657b666f6e742d66616d696c793a2243617073756c657381527f2d373030223b7372633a75726c28646174613a666f6e742f747275657479706560208201527f3b636861727365743d7574662d383b6261736536342c00000000000000000000604082015260560161165091610a37565b7f293b666f726d617428226f70656e7479706522293b7d0000000000000000000081526016017f746578747b77686974652d73706163653a7072652d777261703b20776964746881527f3a313030253b207d3c2f7374796c653e0000000000000000000000000000000060208201526030017f3c726563742077696474683d223130302522206865696768743d22313030252281527f2066696c6c3d2223313831343234222f3e00000000000000000000000000000060208201526031017f3c7465787420783d2231302220793d22333022207374796c653d22666f6e742d81527f73697a653a313670783b20666f6e742d66616d696c793a2043617073756c657360208201527f2d3530303b20666f6e742d7765696768743a3530303b2066696c6c3a2023633060408201527f623366313b223e47414d452049443a200000000000000000000000000000000060608201526070016117af91610a37565b7f207c20504f543a2000000000000000000000000000000000000000000000000081526008016117de91610a37565b7f207c20504c41594552533a2000000000000000000000000000000000000000008152600c0161180d91610a37565b661e17ba32bc3a1f60c91b81526007017f3c7465787420783d2231302220793d22353022207374796c653d22666f6e742d81527f73697a653a313670783b20666f6e742d66616d696c793a2043617073756c657360208201527f2d3530303b20666f6e742d7765696768743a3530303b2066696c6c3a2023656460408201527f303137633b223e0000000000000000000000000000000000000000000000000060608201526067016118be91610a37565b661e17ba32bc3a1f60c91b81526007017f3c7465787420783d2231302220793d22383522207374796c653d22666f6e742d81527f73697a653a323670783b20666f6e742d66616d696c793a2043617073756c657360208201527f2d3530303b20666f6e742d7765696768743a3530303b2066696c6c3a2023633060408201527f623366313b223e00000000000000000000000000000000000000000000000000606082015260670161196f91610a37565b661e17ba32bc3a1f60c91b81526007017f3c7465787420783d2231302220793d2231323022207374796c653d22666f6e7481527f2d73697a653a323670783b20666f6e742d66616d696c793a2043617073756c6560208201527f732d3530303b20666f6e742d7765696768743a3530303b2066696c6c3a20236360408201527f30623366313b223e0000000000000000000000000000000000000000000000006060820152606801611a2091610a37565b661e17ba32bc3a1f60c91b81526007017f3c7465787420783d2231302220793d2232303522207374796c653d22666f6e7481527f2d73697a653a383070783b20666f6e742d66616d696c793a2043617073756c6560208201527f732d3730303b20666f6e742d7765696768743a3730303b2066696c6c3a20236660408201526732b0991c191d911f60c11b6060820152606801611abc91610a37565b661e17ba32bc3a1f60c91b81526007017f3c7465787420783d2231302220793d2232393522207374796c653d22666f6e7481527f2d73697a653a383070783b20666f6e742d66616d696c793a2043617073756c6560208201527f732d3730303b20666f6e742d7765696768743a3730303b2066696c6c3a20236660408201526732b0991c191d911f60c11b6060820152606801611b5891610a37565b661e17ba32bc3a1f60c91b81526007017f3c7465787420783d2231302220793d2233383522207374796c653d22666f6e7481527f2d73697a653a383070783b20666f6e742d66616d696c793a2043617073756c6560208201527f732d3730303b20666f6e742d7765696768743a3730303b2066696c6c3a20236660408201526732b0991c191d911f60c11b6060820152606801611bf491610a37565b661e17ba32bc3a1f60c91b81526007017f3c7465787420783d2231302220793d2234333022207374796c653d22666f6e7481527f2d73697a653a313670783b20666f6e742d66616d696c793a2043617073756c6560208201527f732d3530303b20666f6e742d7765696768743a3530303b2066696c6c3a20236360408201527f30623366313b223e544f4b454e2049443a2000000000000000000000000000006060820152607201611ca591610a37565b661e17ba32bc3a1f60c91b81526007017f3c7465787420783d2231302220793d2234353522207374796c653d22666f6e7481527f2d73697a653a313670783b20666f6e742d66616d696c793a2043617073756c6560208201527f732d3530303b20666f6e742d7765696768743a3530303b2066696c6c3a20236360408201527f30623366313b223e5241524954593a20000000000000000000000000000000006060820152607001611d5691610a37565b661e17ba32bc3a1f60c91b81526007017f3c7465787420783d2231302220793d2234383022207374796c653d22666f6e7481527f2d73697a653a313670783b20666f6e742d66616d696c793a2043617073756c6560208201527f732d3530303b20666f6e742d7765696768743a3530303b2066696c6c3a20236360408201527f30623366313b223e56414c55453a2000000000000000000000000000000000006060820152606f01611e0791610a37565b661e17ba32bc3a1f60c91b81526007017f3c2f7376673e0000000000000000000000000000000000000000000000000000815260060103601f1981018252611e4f9082610311565b611e5890612ad0565b611e61826105e2565b52611e6b816105e2565b50611e74610cdf565b611e7d826105f2565b52611e87816105f2565b50611e91816105c0565b5190611e9c816105d2565b51611ea6826105e2565b5191611eb1906105f2565b5160405192839260208401611ec591610a37565b611ece91610a37565b611ed791610a37565b03601f1981018252611ee99082610311565b611ef290612ad0565b61088091610d18565b611f048261261c565b51159050611f15576114cf9061261c565b611f1e906126bb565b6114cf565b611f2c8861261c565b51159050611f46576114d5611f40886126bb565b976114b3565b6114d5611f516109eb565b611f40565b611f5e6109eb565b94611492565b50611f6e8661261c565b511515611482565b611f98915060203d602011611f9e575b611f908183610311565b810190610816565b38611456565b503d611f86565b610825565b611fcb919250843d8611611fd2575b611fc38183610311565b8101906108ec565b90386113f9565b503d611fb9565b611fe292612763565b61136a565b612009915060203d60201161200f575b6120018183610311565b810190610c92565b3861135a565b503d611ff7565b61203091935060203d602011611f9e57611f908183610311565b9138611315565b61205191925060203d602011611f9e57611f908183610311565b90386112d1565b61206793915060200151612763565b9561136c565b906120778b610a8a565b60038b14806120d7575b60039250156120c8576120c261123e61209992612f47565b7f20696e206578697374656e6365000000000000000000000000000000000000008152600d0190565b9961127c565b6120c261123e61209992612f47565b506040517fa8c15f4a0000000000000000000000000000000000000000000000000000000081526020816004818e5afa908115611fa5576003939161211d575b50612081565b612136915060203d60201161200f576120018183610311565b38612117565b6121458a610a8a565b60058a0361215d5750612156610bed565b995b611207565b6121668a610a8a565b896121745750612156610bb4565b61217d8a610a8a565b60018a0361218e5750612156610b7b565b6121978a610a8a565b60028a036121a85750612156610b1c565b6121b18a610a8a565b60038a036121c25750612156610ae3565b996121cc8a610a8a565b60048a03612158579950612156610aaa565b6121f891925060203d602011611f9e57611f908183610311565b90386111d8565b919350506122239150833d851161222d575b61221b8183610311565b810190610a66565b9290929138611195565b503d612211565b61224d915060203d602011611fd257611fc38183610311565b38611143565b61227691965060203d60201161227d575b61226e8183610311565b810190610a4e565b94386110f7565b503d612264565b61229b9150833d8511611fd257611fc38183610311565b386110a8565b9650505050905081945060049350604051938480927f6c0360eb0000000000000000000000000000000000000000000000000000000082525afa918215611fa5578361088094936122f6575b50505190612c07565b6123139293503d8091833e61230b8183610311565b810190610883565b9038806122ed565b6123389194503d8087833e6123308183610311565b810190610919565b9238610eb5565b61235991945060203d602011611fd257611fc38183610311565b9238610e44565b6123759194503d8085833e61230b8183610311565b9238610dfc565b61239691925060203d602011611f9e57611f908183610311565b9038610db9565b8051601e10156105cd57603e0190565b8051601410156105cd5760340190565b8051600a10156105cd57602a0190565b9081518110156105cd570160200190565b906123e88261036d565b6123f56040519182610311565b828152601f19612405829461036d565b0190602036910137565b90601e8251156124d35782518082116124cb575b50600160fd1b6001600160f81b031961244c61243e866105c0565b516001600160f81b03191690565b1614906000916000146124c5576001915b818310156124b8576124776124728484610c85565b6123de565b92805b83811061248a5750929450505050565b8061249a61243e6001938a6123cd565b6124b16124a78584610c85565b91861a91886123cd565b530161247a565b50505090506108806109eb565b8161245d565b905038612423565b5090506108806109eb565b90603c8251601e10156124d3578251808211612575575b50600160fd1b6001600160f81b031961251061243e8661239d565b16149060009160001461256d57601f915b818310156124b8576125366124728484610c85565b92805b8381106125495750929450505050565b8061255961243e6001938a6123cd565b6125666124a78584610c85565b5301612539565b601e91612521565b9050386124f5565b90601e8251601410156124d3578251808211612614575b50600160fd1b6001600160f81b03196125af61243e866123ad565b16149060009160001461260c576015915b818310156124b8576125d56124728484610c85565b92805b8381106125e85750929450505050565b806125f861243e6001938a6123cd565b6126056124a78584610c85565b53016125d8565b6014916125c0565b905038612594565b9060148251600a10156124d35782518082116126b3575b50600160fd1b6001600160f81b031961264e61243e866123bd565b1614906000916000146126ab57600b915b818310156124b8576126746124728484610c85565b92805b8381106126875750929450505050565b8061269761243e6001938a6123cd565b6126a46124a78584610c85565b5301612677565b600a9161265f565b905038612633565b90600a8251156124d357825180821161274d575b50600160fd1b6001600160f81b03196126ea61243e866105c0565b161490600091600014612747576001915b818310156124b8576127106124728484610c85565b92805b8381106127235750929450505050565b8061273361243e6001938a6123cd565b6127406124a78584610c85565b5301612713565b816126fb565b9050386126cf565b604d811161063a57600a0a90565b9061279161277d6001600160a01b036127a4931694612755565b6103e861279c826127966127918289612a79565b612f47565b96612cdf565b910490612a79565b9160009061eeee81036128215750506108809061103a6127f893610f64604051958694610f64602087016002907fce9e00000000000000000000000000000000000000000000000000000000000081520190565b7f2e00000000000000000000000000000000000000000000000000000000000000815260010190565b908060049392604051948580927f95d89b410000000000000000000000000000000000000000000000000000000082525afa8015611fa5576127f894610880948361103a9493612895575b5050612888610f6491610f646040519889976020890190610a37565b600160fd1b815260010190565b610f64929350612888916128b2913d8091833e61230b8183610311565b929161286c565b604051906128c6826102bd565b600682527f6e6f726d616c00000000000000000000000000000000000000000000000000006020830152565b6020818303126101515780519067ffffffffffffffff821161015157019080601f8301121561015157815161088092602001610831565b60606020610880938184528051828501520151916040808201520190610179565b60006129ab6001600160a01b0392604051612964816102bd565b6101f481526129716128b9565b60208201526040519485809481937fbf6519ad00000000000000000000000000000000000000000000000000000000835260048301612929565b0392165afa908115611fa5576000916129c2575090565b610880913d8091833e6129d58183610311565b8101906128f2565b60006129ab6001600160a01b03926040516129f7816102bd565b6102bc81526129716128b9565b60405190612a11826102f5565b604082527f6768696a6b6c6d6e6f707172737475767778797a303132333435363738392b2f6040837f4142434445464748494a4b4c4d4e4f505152535455565758595a61626364656660208201520152565b634e487b7160e01b600052601260045260246000fd5b8115612a83570490565b612a63565b908160021b917f3fffffffffffffffffffffffffffffffffffffffffffffffffffffffffffffff81160361063a57565b604051612ac4816102d9565b60008152906000368137565b805115612bfe57612adf612a04565b612afb612af6612aef845161062c565b6003900490565b612a88565b91612b086124728461063f565b92835280815182019060208501935b828210612bac57505050600390510680600114612b6357600214612b39575090565b6000197f3d0000000000000000000000000000000000000000000000000000000000000091015290565b507ffffffffffffffffffffffffffffffffffffffffffffffffffffffffffffffffe7f3d3d00000000000000000000000000000000000000000000000000000000000091015290565b9091936004906003809401938451600190603f9082828260121c16880101518553828282600c1c16880101518386015382828260061c1688010151600286015316850101519082015301939190612b17565b506108806109eb565b9061088090612c516040516020927f122000000000000000000000000000000000000000000000000000000000000084830152602282015260228152612c4c816102f5565b612ce9565b926040519381612c6a8693518092868087019101610156565b8201612c7e82518093868085019101610156565b01038084520182610311565b604051906105e0820182811067ffffffffffffffff8211176102b857604052602e82526105c0366020840137565b90612cc282610355565b612ccf6040519182610311565b828152601f196124058294610355565b8115612a83570690565b90815115612e0057612cf9612c8a565b9160009081612d07856105c0565b5260019181519181925b808410612d375750505050612d2d612d32916108809394612e0a565b612e4d565b612e94565b90919294612d5a612d54612d4e61243e89876123cd565b60f81c90565b60ff1690565b9184925b60ff9089828916861015612dbf5760019291612d93612d8d612d54612d868a612d9996610602565b5160ff1690565b60081b90565b9061064d565b612db68b612dae88603a958686061692610602565b9060ff169052565b04930192612d5e565b50919594935050809691965b612dd9575060010192612d11565b9460ff6001603a92612df683858b0616612dae8d86851690610602565b0116950480612dcb565b9050610880612ab8565b9060ff80911690612e1a82612cb8565b9260005b838110612e2c575050505090565b8083612e3a60019385610602565b5116612e468288610602565b5201612e1e565b908151612e5981612cb8565b9060005b818110612e6b575090925050565b8060ff612e816000196001948951030188610602565b5116612e8d8286610602565b5201612e5d565b8051612e9f816123de565b91600090815b838110612eb3575050505090565b6001906001600160f81b0319612f3260407f5a6162636465666768696a6b6d6e6f707172737475767778797a000000000000815191612ef1836102f5565b603a83527f31323334353637383941424344454647484a4b4c4d4e50515253545556575859602084015282015260ff612f2a8588610602565b5116906123cd565b5116841a612f4082886123cd565b5301612ea5565b806000917a184f03e93ff9f4daa797ed6e38ed64bf6a1f01000000000000000080821015613089575b506d04ee2d6d415b85acef81000000008083101561307a575b50662386f26fc100008083101561306b575b506305f5e1008083101561305c575b506127108083101561304d575b50606482101561303d575b600a80921015613033575b600190816021612fde8287016123de565b95860101905b612ff0575b5050505090565b600019849101917f30313233343536373839616263646566000000000000000000000000000000008282061a83530491821561302e57919082612fe4565b612fe9565b9160010191612fcd565b9190606460029104910191612fc2565b60049193920491019138612fb7565b60089193920491019138612faa565b60109193920491019138612f9b565b60209193920491019138612f89565b604093508104915038612f70565b90916000198383099280830292838086109503948086039514613148578285101561310f57908291096001821901821680920460028082600302188083028203028083028203028083028203028083028203028083028203028092029003029360018380600003040190848311900302920304170290565b6040517f773cc18c0000000000000000000000000000000000000000000000000000000081526004810186905260248101849052604490fd5b5050906108809250612a7956fea2646970667358221220e725a25b24f3fc22d16144ec5fac35cbe9c99f82e9f5a1200b0f79e8aa469ec864736f6c63430008140033",
    "linkReferences": {}
  },
  "methodIdentifiers": {
    "codeOrigin()": "1d153ca4",
    "delegate()": "c89e4361",
    "getUri(uint256)": "da0544aa",
    "initialize(address,string[])": "94e6f56f",
    "tierNameOf(uint256)": "1baabc3e",
    "typeface()": "4d5a1d11"
  },
  "id": 4
}