{
  "abi": [
    {
      "inputs": [
        {
          "internalType": "contract ITypeface",
          "name": "_typeface",
          "type": "address"
        }
      ],
      "stateMutability": "nonpayable",
      "type": "constructor"
    },
    {
      "inputs": [
        {
          "internalType": "uint256",
          "name": "prod1",
          "type": "uint256"
        },
        {
          "internalType": "uint256",
          "name": "denominator",
          "type": "uint256"
        }
      ],
      "name": "PRBMath__MulDivOverflow",
      "type": "error"
    },
    {
      "inputs": [
        {
          "internalType": "address",
          "name": "_nft",
          "type": "address"
        },
        {
          "internalType": "uint256",
          "name": "_tokenId",
          "type": "uint256"
        }
      ],
      "name": "tokenUriOf",
      "outputs": [
        {
          "internalType": "string",
          "name": "",
          "type": "string"
        }
      ],
      "stateMutability": "view",
      "type": "function"
    },
    {
      "inputs": [],
      "name": "typeface",
      "outputs": [
        {
          "internalType": "contract ITypeface",
          "name": "",
          "type": "address"
        }
      ],
      "stateMutability": "view",
      "type": "function"
    }
  ],
  "bytecode": {
    "object": "0x60a03461007257601f62002d6138819003918201601f19168301916001600160401b038311848410176100775780849260209460405283398101031261007257516001600160a01b038116810361007257608052604051612cd390816200008e823960805181818160950152610e990152f35b600080fd5b634e487b7160e01b600052604160045260246000fdfe6080604052600436101561001257600080fd5b6000803560e01c80634d5a1d111461007a57635e703e711461003357600080fd5b346100775760406003193601126100775761007361005f600435610056816100be565b6024359061081e565b6040519182916020835260208301906100f7565b0390f35b80fd5b50346100775780600319360112610077576001600160a01b037f00000000000000000000000000000000000000000000000000000000000000001660805260206080f35b6001600160a01b038116036100cf57565b600080fd5b60005b8381106100e75750506000910152565b81810151838201526020016100d7565b90601f19601f602093610115815180928187528780880191016100d4565b0116010190565b634e487b7160e01b600052604160045260246000fd5b6040810190811067ffffffffffffffff82111761014e57604052565b61011c565b6020810190811067ffffffffffffffff82111761014e57604052565b6060810190811067ffffffffffffffff82111761014e57604052565b90601f601f19910116810190811067ffffffffffffffff82111761014e57604052565b908160209103126100cf575190565b6040513d6000823e3d90fd5b60405190610180820182811067ffffffffffffffff82111761014e57604052565b67ffffffffffffffff811161014e57601f01601f191660200190565b90929192610213816101ea565b91610221604051938461018b565b8294828452828201116100cf57602061023b9301906100d4565b565b9080601f830112156100cf57815161025792602001610206565b90565b906020828203126100cf57815167ffffffffffffffff81116100cf57610257920161023d565b67ffffffffffffffff811161014e5760051b60200190565b6040519060a0820182811067ffffffffffffffff82111761014e57604052600482528160005b608081106102ca575050565b8060606020809385010152016102be565b908160209103126100cf5751610257816100be565b519061023b826100be565b519081151582036100cf57565b6020818303126100cf57805167ffffffffffffffff918282116100cf5701610180818403126100cf576103396101c9565b92815184526020820151602085015260408201516040850152606082015160608501526080820151608085015260a082015160a085015261037c60c083016102f0565b60c085015260e082015160e085015261010080830151908501526101206103a48184016102fb565b908501526101406103b68184016102fb565b9085015261016092838301519081116100cf576103d3920161023d565b9082015290565b604051906103e782610153565b60008252565b604051906103fa82610132565b601d82527f646174613a6170706c69636174696f6e2f6a736f6e3b6261736536342c0000006020830152565b634e487b7160e01b600052603260045260246000fd5b8051156104495760200190565b610426565b8051600110156104495760400190565b8051600210156104495760600190565b8051600310156104495760800190565b80518210156104495760209160051b010190565b906104a5602092828151948592016100d4565b0190565b908160209103126100cf575160078110156100cf5790565b908160609103126100cf57805191604060208301516104df816100be565b92015190565b634e487b7160e01b600052601160045260246000fd5b906002820180921161050957565b6104e5565b906020820180921161050957565b9190820180921161050957565b6007111561053357565b634e487b7160e01b600052602160045260246000fd5b604051906105568261016f565b602a82527f696d207265776172642e000000000000000000000000000000000000000000006040837f53636f726563617264206c6f636b656420696e2e204275726e20746f20636c6160208201520152565b604051906105b582610132565b601c82527f4177616974696e672073636f72656361726420617070726f76616c2e000000006020830152565b604051906105ee8261016f565b602482527f696e672e000000000000000000000000000000000000000000000000000000006040837f4d696e74696e67206973206f7665722e20526566756e64732061726520656e6460208201520152565b6040519061064d82610132565b601d82527f4d696e74696e6720616e6420726566756e647320617265206f70656e2e0000006020830152565b6040519061068682610132565b601482527f4d696e74696e672073746172747320736f6f6e2e0000000000000000000000006020830152565b604051906106bf8261016f565b602482527f70656e2e000000000000000000000000000000000000000000000000000000006040837f4e6f20636f6e7465737420696e6576697461626c652e20526566756e6473206f60208201520152565b6040519061071e82610132565b601982527f4e6f20636f6e746573742e20526566756e6473206f70656e2e000000000000006020830152565b9190820391821161050957565b908160209103126100cf57610257906102fb565b6040519061077882610132565b601582527f4177616974696e672073636f7265636172642e2e2e00000000000000000000006020830152565b604051906107b182610132565b600282527f227d0000000000000000000000000000000000000000000000000000000000006020830152565b602061023b9193929360405194816107fe87935180928680870191016100d4565b8201610812825180938680850191016100d4565b0103808552018361018b565b604051907f3fafa1270000000000000000000000000000000000000000000000000000000082526020826004816001600160a01b0385165afa918215611adb57600092611e5f575b5060606000604051927f06fdde0300000000000000000000000000000000000000000000000000000000845281846004816001600160a01b0385165afa938415611adb578294611e43575b506108ba610298565b95604051937f975057e70000000000000000000000000000000000000000000000000000000085526020856004816001600160a01b0387165afa948515611adb578495611e22575b506040517fc44a8e6d0000000000000000000000000000000000000000000000000000000081526001600160a01b03848116600483015260248201849052600060448301529095859187916064918391165afa948515611adb578495611dfa575b5084516040517f1baabc3e000000000000000000000000000000000000000000000000000000008152600481019190915290848280602481015b03816001600160a01b0388165afa918215611adb578592611dde575b5060e086018051611d5a57506109cd6103ed565b6109d68a61043c565b526109e08961043c565b50610a50610b2e83610b20610ad18a610a4a610aa8610aa2610a79610a0f610a088651612a8f565b9551612a8f565b94610a4a6040519b8c9a610a4a60208d016009907f7b226e616d65223a22000000000000000000000000000000000000000000000081520190565b90610492565b7f222c20226964223a2022000000000000000000000000000000000000000000008152600a0190565b7f222c226465736372697074696f6e223a225465616d3a20000000000000000000815260170190565b8a610492565b7f2c2049443a200000000000000000000000000000000000000000000000000000815260060190565b7f2e222c22696d616765223a22646174613a696d6167652f7376672b786d6c3b6281527f61736536342c0000000000000000000000000000000000000000000000000000602082015260260190565b03601f19810183528261018b565b610b378a61044e565b52610b418961044e565b50604051947fa0b6490c0000000000000000000000000000000000000000000000000000000086526020866004816001600160a01b0389165afa8015611adb57610bd36020916001600160a01b03988491611d3d575b508b604051998a809481937f0715610a000000000000000000000000000000000000000000000000000000008352600483019190602083019252565b0392165afa958615611adb578196611d0c575b50604051907f7245d80c0000000000000000000000000000000000000000000000000000000082526020826004816001600160a01b038a165afa8015611adb57610c7f84916001600160a01b03948491611ced575b506040517fb4dfb086000000000000000000000000000000000000000000000000000000008152600481018e90526000602482015294859283919082906044820190565b0392165afa908115611adb578081938293611cb8575b50604051907f27f6e9790000000000000000000000000000000000000000000000000000000082526020826004816001600160a01b038d165afa918215611adb57610ce69392611c97575b5061051c565b610cf1828483612246565b93610cfb89610529565b60068903611bf55750610d0c610711565b985b610d21606082015160408301519061074a565b610d2a8a610529565b60018a03611bb757610d7d610d41610d5492612a8f565b610b206040519384926020840190610492565b7f206d696e74656420736f206661720000000000000000000000000000000000008152600e0190565b985b610d8881610529565b60038114908115611ba3575b5015611b8e57506040517f4f228e1100000000000000000000000000000000000000000000000000000000815260048101879052906020826024816001600160a01b038c165afa918215611adb57600092611b6d575b50604051917f640abacd0000000000000000000000000000000000000000000000000000000083526020836004816001600160a01b038d165afa918215611adb57610e3d93600093611b4c575b50612bdf565b916040517fa8c15f4a0000000000000000000000000000000000000000000000000000000081526020816004816001600160a01b038c165afa908115611adb57600091611b1d575b50611b0f57505050610e9561076b565b955b7f000000000000000000000000000000000000000000000000000000000000000097610ed4610ece610ec88b61247b565b9a61250e565b9a612a8f565b95604051907f975057e70000000000000000000000000000000000000000000000000000000082526020826004816001600160a01b0385165afa918215611adb57610f75926020926001600160a01b0392600092611ae0575b50826040518096819582947fcf9530d000000000000000000000000000000000000000000000000000000000845216600483019190916001600160a01b036020820193169052565b0392165afa8015611adb57610f9291600091611aac575b50612a8f565b91610fa5610f9f83611ef2565b92611fc1565b92610faf86612060565b51151580611a9a575b15611a8c57610fc68661219e565b945b610fd187612060565b5160009015611a59575061100b610fe7886120ff565b975b610ff281612060565b5160009015611a31575061100590612060565b98612a8f565b986040519d8e9d60208f0161106a90603e907f3c7376672076696577426f783d2230203020353030203530302220786d6c6e7381527f3d22687474703a2f2f7777772e77332e6f72672f323030302f737667223e000060208201520190565b7f3c7374796c653e40666f6e742d666163657b666f6e742d66616d696c793a224381527f617073756c65732d353030223b7372633a75726c28646174613a666f6e742f7460208201527f727565747970653b636861727365743d7574662d383b6261736536342c0000006040820152605d016110e591610492565b7f293b666f726d617428226f70656e7479706522293b7d0000000000000000000081526016017f40666f6e742d666163657b666f6e742d66616d696c793a2243617073756c657381527f2d373030223b7372633a75726c28646174613a666f6e742f747275657479706560208201527f3b636861727365743d7574662d383b6261736536342c00000000000000000000604082015260560161118691610492565b7f293b666f726d617428226f70656e7479706522293b7d0000000000000000000081526016017f746578747b77686974652d73706163653a7072652d777261703b20776964746881527f3a313030253b207d3c2f7374796c653e0000000000000000000000000000000060208201526030017f3c726563742077696474683d223130302522206865696768743d22313030252281527f2066696c6c3d2223313831343234222f3e00000000000000000000000000000060208201526031017f3c7465787420783d2231302220793d22333022207374796c653d22666f6e742d81527f73697a653a313670783b20666f6e742d66616d696c793a2043617073756c657360208201527f2d3530303b20666f6e742d7765696768743a3530303b2066696c6c3a2023633060408201527f623366313b223e47414d453a20000000000000000000000000000000000000006060820152606d016112e591610492565b7f207c20504f543a20000000000000000000000000000000000000000000000000815260080161131491610492565b7f207c204d494e54533a20000000000000000000000000000000000000000000008152600a0161134391610492565b661e17ba32bc3a1f60c91b81526007017f3c7465787420783d2231302220793d22353022207374796c653d22666f6e742d81527f73697a653a313670783b20666f6e742d66616d696c793a2043617073756c657360208201527f2d3530303b20666f6e742d7765696768743a3530303b2066696c6c3a2023656460408201527f303137633b223e0000000000000000000000000000000000000000000000000060608201526067016113f491610492565b661e17ba32bc3a1f60c91b81526007017f3c7465787420783d2231302220793d22383522207374796c653d22666f6e742d81527f73697a653a323670783b20666f6e742d66616d696c793a2043617073756c657360208201527f2d3530303b20666f6e742d7765696768743a3530303b2066696c6c3a2023633060408201527f623366313b223e0000000000000000000000000000000000000000000000000060608201526067016114a591610492565b661e17ba32bc3a1f60c91b81526007017f3c7465787420783d2231302220793d2231323022207374796c653d22666f6e7481527f2d73697a653a323670783b20666f6e742d66616d696c793a2043617073756c6560208201527f732d3530303b20666f6e742d7765696768743a3530303b2066696c6c3a20236360408201527f30623366313b223e000000000000000000000000000000000000000000000000606082015260680161155691610492565b661e17ba32bc3a1f60c91b81526007017f3c7465787420783d2231302220793d2232303522207374796c653d22666f6e7481527f2d73697a653a383070783b20666f6e742d66616d696c793a2043617073756c6560208201527f732d3730303b20666f6e742d7765696768743a3730303b2066696c6c3a20236660408201526732b0991c191d911f60c11b60608201526068016115f291610492565b661e17ba32bc3a1f60c91b81526007017f3c7465787420783d2231302220793d2232393522207374796c653d22666f6e7481527f2d73697a653a383070783b20666f6e742d66616d696c793a2043617073756c6560208201527f732d3730303b20666f6e742d7765696768743a3730303b2066696c6c3a20236660408201526732b0991c191d911f60c11b606082015260680161168e91610492565b661e17ba32bc3a1f60c91b81526007017f3c7465787420783d2231302220793d2233383522207374796c653d22666f6e7481527f2d73697a653a383070783b20666f6e742d66616d696c793a2043617073756c6560208201527f732d3730303b20666f6e742d7765696768743a3730303b2066696c6c3a20236660408201526732b0991c191d911f60c11b606082015260680161172a91610492565b661e17ba32bc3a1f60c91b81526007017f3c7465787420783d2231302220793d2234333022207374796c653d22666f6e7481527f2d73697a653a313670783b20666f6e742d66616d696c793a2043617073756c6560208201527f732d3530303b20666f6e742d7765696768743a3530303b2066696c6c3a20236360408201527f30623366313b223e544f4b454e2049443a20000000000000000000000000000060608201526072016117db91610492565b661e17ba32bc3a1f60c91b81526007017f3c7465787420783d2231302220793d2234353522207374796c653d22666f6e7481527f2d73697a653a313670783b20666f6e742d66616d696c793a2043617073756c6560208201527f732d3530303b20666f6e742d7765696768743a3530303b2066696c6c3a20236360408201527f30623366313b223e5241524954593a2000000000000000000000000000000000606082015260700161188c91610492565b661e17ba32bc3a1f60c91b81526007017f3c7465787420783d2231302220793d2234383022207374796c653d22666f6e7481527f2d73697a653a313670783b20666f6e742d66616d696c793a2043617073756c6560208201527f732d3530303b20666f6e742d7765696768743a3530303b2066696c6c3a20236360408201527f30623366313b223e4241434b45442042593a2000000000000000000000000000606082015260730161193d91610492565b661e17ba32bc3a1f60c91b81526007017f3c2f7376673e0000000000000000000000000000000000000000000000000000815260060103601f1981018252611985908261018b565b61198e90612618565b6119978261045e565b526119a18161045e565b506119aa6107a4565b6119b38261046e565b526119bd8161046e565b506119c78161043c565b51906119d28161044e565b516119dc8261045e565b51916119e79061046e565b51604051928392602084016119fb91610492565b611a0491610492565b611a0d91610492565b03601f1981018252611a1f908261018b565b611a2890612618565b610257916107dd565b611a3a826120ff565b51159050611a4b57611005906120ff565b611a549061219e565b611005565b611a62886120ff565b51159050611a7c5761100b611a768861219e565b97610fe9565b61100b611a876103da565b611a76565b611a946103da565b94610fc8565b50611aa4866120ff565b511515610fb8565b611ace915060203d602011611ad4575b611ac6818361018b565b8101906101ae565b38610f8c565b503d611abc565b6101bd565b611b01919250843d8611611b08575b611af9818361018b565b8101906102db565b9038610f2d565b503d611aef565b611b1892612246565b610e95565b611b3f915060203d602011611b45575b611b37818361018b565b810190610757565b38610e85565b503d611b2d565b611b6691935060203d602011611ad457611ac6818361018b565b9138610e37565b611b8791925060203d602011611ad457611ac6818361018b565b9038610dea565b611b9d93915060200151612246565b95610e97565b60049150611bb081610529565b1438610d94565b611bef610d41611bc692612a8f565b7f20696e206578697374656e6365000000000000000000000000000000000000008152600d0190565b98610d7f565b611bfe89610529565b60058903611c165750611c0f6106b2565b985b610d0e565b611c1f89610529565b88611c2d5750611c0f610679565b611c3689610529565b60018903611c475750611c0f610640565b611c5089610529565b60028903611c615750611c0f6105e1565b611c6a89610529565b60038903611c7b5750611c0f6105a8565b98611c8589610529565b60048903611c11579850611c0f610549565b611cb191925060203d602011611ad457611ac6818361018b565b9038610ce0565b91935050611cdc9150833d8511611ce6575b611cd4818361018b565b8101906104c1565b9290929138610c95565b503d611cca565b611d06915060203d602011611b0857611af9818361018b565b38610c3b565b611d2f91965060203d602011611d36575b611d27818361018b565b8101906104a9565b9438610be6565b503d611d1d565b611d549150833d8511611b0857611af9818361018b565b38610b97565b96505050509094506001600160a01b0393508491506004604051809581937f6c0360eb000000000000000000000000000000000000000000000000000000008352165afa918215611adb57836102579493611db9575b5050519061274f565b611dd69293503d8091833e611dce818361018b565b81019061025a565b903880611db0565b611df39192503d8087833e611dce818361018b565b90386109b9565b61099d919550611e1b903d8087833e611e13818361018b565b810190610308565b9490610963565b611e3c91955060203d602011611b0857611af9818361018b565b9338610902565b611e589194503d8084833e611dce818361018b565b92386108b1565b611e7991925060203d602011611ad457611ac6818361018b565b9038610866565b8051601e101561044957603e0190565b8051601410156104495760340190565b8051600a101561044957602a0190565b908151811015610449570160200190565b90611ecb826101ea565b611ed8604051918261018b565b828152601f19611ee882946101ea565b0190602036910137565b90601e825115611fb6578251808211611fae575b50600160fd1b6001600160f81b0319611f2f611f218661043c565b516001600160f81b03191690565b161490600091600014611fa8576001915b81831015611f9b57611f5a611f55848461074a565b611ec1565b92805b838110611f6d5750929450505050565b80611f7d611f216001938a611eb0565b611f94611f8a858461074a565b91861a9188611eb0565b5301611f5d565b50505090506102576103da565b81611f40565b905038611f06565b5090506102576103da565b90603c8251601e1015611fb6578251808211612058575b50600160fd1b6001600160f81b0319611ff3611f2186611e80565b16149060009160001461205057601f915b81831015611f9b57612019611f55848461074a565b92805b83811061202c5750929450505050565b8061203c611f216001938a611eb0565b612049611f8a858461074a565b530161201c565b601e91612004565b905038611fd8565b90601e825160141015611fb65782518082116120f7575b50600160fd1b6001600160f81b0319612092611f2186611e90565b1614906000916000146120ef576015915b81831015611f9b576120b8611f55848461074a565b92805b8381106120cb5750929450505050565b806120db611f216001938a611eb0565b6120e8611f8a858461074a565b53016120bb565b6014916120a3565b905038612077565b9060148251600a1015611fb6578251808211612196575b50600160fd1b6001600160f81b0319612131611f2186611ea0565b16149060009160001461218e57600b915b81831015611f9b57612157611f55848461074a565b92805b83811061216a5750929450505050565b8061217a611f216001938a611eb0565b612187611f8a858461074a565b530161215a565b600a91612142565b905038612116565b90600a825115611fb6578251808211612230575b50600160fd1b6001600160f81b03196121cd611f218661043c565b16149060009160001461222a576001915b81831015611f9b576121f3611f55848461074a565b92805b8381106122065750929450505050565b80612216611f216001938a611eb0565b612223611f8a858461074a565b53016121f6565b816121de565b9050386121b2565b604d811161050957600a0a90565b906122746122606001600160a01b03612289931694612238565b61228461227f8261227961227482896125aa565b612a8f565b96612827565b6125e9565b6125aa565b6003815110156122d5576040517f30000000000000000000000000000000000000000000000000000000000000006020820152906122d0908290610b209060218301610a4a565b612289565b9160009061eeee810361235257505061025790610b2061232993610a4a604051958694610a4a602087016002907fce9e00000000000000000000000000000000000000000000000000000000000081520190565b7f2e00000000000000000000000000000000000000000000000000000000000000815260010190565b908060049392604051948580927f95d89b410000000000000000000000000000000000000000000000000000000082525afa8015611adb57612329946102579483610b2094936123c6575b50506123b9610a4a91610a4a6040519889976020890190610492565b600160fd1b815260010190565b610a4a9293506123b9916123e3913d8091833e611dce818361018b565b929161239d565b604051906123f782610132565b600682527f6e6f726d616c00000000000000000000000000000000000000000000000000006020830152565b6020818303126100cf5780519067ffffffffffffffff82116100cf57019080601f830112156100cf57815161025792602001610206565b606060206102579381845280518285015201519160408082015201906100f7565b60006124dc6001600160a01b039260405161249581610132565b6101f481526124a26123ea565b60208201526040519485809481937fbf6519ad0000000000000000000000000000000000000000000000000000000083526004830161245a565b0392165afa908115611adb576000916124f3575090565b610257913d8091833e612506818361018b565b810190612423565b60006124dc6001600160a01b039260405161252881610132565b6102bc81526124a26123ea565b604051906125428261016f565b604082527f6768696a6b6c6d6e6f707172737475767778797a303132333435363738392b2f6040837f4142434445464748494a4b4c4d4e4f505152535455565758595a61626364656660208201520152565b634e487b7160e01b600052601260045260246000fd5b81156125b4570490565b612594565b908160021b917f3fffffffffffffffffffffffffffffffffffffffffffffffffffffffffffffff81160361050957565b906103e89182810292818404149015171561050957565b60405161260c81610153565b60008152906000368137565b80511561274657612627612535565b61264361263e61263784516104fb565b6003900490565b6125b9565b91612650611f558461050e565b92835280815182019060208501935b8282106126f4575050506003905106806001146126ab57600214612681575090565b6000197f3d0000000000000000000000000000000000000000000000000000000000000091015290565b507ffffffffffffffffffffffffffffffffffffffffffffffffffffffffffffffffe7f3d3d00000000000000000000000000000000000000000000000000000000000091015290565b9091936004906003809401938451600190603f9082828260121c16880101518553828282600c1c16880101518386015382828260061c168801015160028601531685010151908201530193919061265f565b506102576103da565b90610257906127996040516020927f1220000000000000000000000000000000000000000000000000000000000000848301526022820152602281526127948161016f565b612831565b9260405193816127b286935180928680870191016100d4565b82016127c6825180938680850191016100d4565b0103808452018261018b565b604051906105e0820182811067ffffffffffffffff82111761014e57604052602e82526105c0366020840137565b9061280a82610280565b612817604051918261018b565b828152601f19611ee88294610280565b81156125b4570690565b90815115612948576128416127d2565b916000908161284f8561043c565b5260019181519181925b80841061287f575050505061287561287a916102579394612952565b612995565b6129dc565b909192946128a261289c612896611f218987611eb0565b60f81c90565b60ff1690565b9184925b60ff908982891686101561290757600192916128db6128d561289c6128ce8a6128e19661047e565b5160ff1690565b60081b90565b9061051c565b6128fe8b6128f688603a95868606169261047e565b9060ff169052565b049301926128a6565b50919594935050809691965b612921575060010192612859565b9460ff6001603a9261293e83858b06166128f68d8685169061047e565b0116950480612913565b9050610257612600565b9060ff8091169061296282612800565b9260005b838110612974575050505090565b80836129826001938561047e565b511661298e828861047e565b5201612966565b9081516129a181612800565b9060005b8181106129b3575090925050565b8060ff6129c9600019600194895103018861047e565b51166129d5828661047e565b52016129a5565b80516129e781611ec1565b91600090815b8381106129fb575050505090565b6001906001600160f81b0319612a7a60407f5a6162636465666768696a6b6d6e6f707172737475767778797a000000000000815191612a398361016f565b603a83527f31323334353637383941424344454647484a4b4c4d4e50515253545556575859602084015282015260ff612a72858861047e565b511690611eb0565b5116841a612a888288611eb0565b53016129ed565b806000917a184f03e93ff9f4daa797ed6e38ed64bf6a1f01000000000000000080821015612bd1575b506d04ee2d6d415b85acef810000000080831015612bc2575b50662386f26fc1000080831015612bb3575b506305f5e10080831015612ba4575b5061271080831015612b95575b506064821015612b85575b600a80921015612b7b575b600190816021612b26828701611ec1565b95860101905b612b38575b5050505090565b600019849101917f30313233343536373839616263646566000000000000000000000000000000008282061a835304918215612b7657919082612b2c565b612b31565b9160010191612b15565b9190606460029104910191612b0a565b60049193920491019138612aff565b60089193920491019138612af2565b60109193920491019138612ae3565b60209193920491019138612ad1565b604093508104915038612ab8565b90916000198383099280830292838086109503948086039514612c905782851015612c5757908291096001821901821680920460028082600302188083028203028083028203028083028203028083028203028083028203028092029003029360018380600003040190848311900302920304170290565b6040517f773cc18c0000000000000000000000000000000000000000000000000000000081526004810186905260248101849052604490fd5b50509061025792506125aa56fea26469706673582212205c7d3187ed0f6230f98f648047d4679d818efb492d58aff05ff7a41c97af6a5e64736f6c63430008140033",
    "linkReferences": {}
  },
  "methodIdentifiers": {
    "tokenUriOf(address,uint256)": "5e703e71",
    "typeface()": "4d5a1d11"
  },
  "id": 4
}