{
  "abi": [
    {
      "inputs": [],
      "stateMutability": "nonpayable",
      "type": "constructor"
    },
    {
      "inputs": [],
      "name": "codeOrigin",
      "outputs": [
        {
          "internalType": "address",
          "name": "",
          "type": "address"
        }
      ],
      "stateMutability": "view",
      "type": "function"
    },
    {
      "inputs": [],
      "name": "delegate",
      "outputs": [
        {
          "internalType": "contract IDefifaDelegate",
          "name": "",
          "type": "address"
        }
      ],
      "stateMutability": "view",
      "type": "function"
    },
    {
      "inputs": [
        {
          "internalType": "uint256",
          "name": "_tokenId",
          "type": "uint256"
        }
      ],
      "name": "getUri",
      "outputs": [
        {
          "internalType": "string",
          "name": "",
          "type": "string"
        }
      ],
      "stateMutability": "view",
      "type": "function"
    },
    {
      "inputs": [
        {
          "internalType": "contract IDefifaDelegate",
          "name": "_delegate",
          "type": "address"
        },
        {
          "internalType": "string[]",
          "name": "_tierNames",
          "type": "string[]"
        }
      ],
      "name": "initialize",
      "outputs": [],
      "stateMutability": "nonpayable",
      "type": "function"
    },
    {
      "inputs": [
        {
          "internalType": "uint256",
          "name": "_tierId",
          "type": "uint256"
        }
      ],
      "name": "tierNameOf",
      "outputs": [
        {
          "internalType": "string",
          "name": "",
          "type": "string"
        }
      ],
      "stateMutability": "view",
      "type": "function"
    }
  ],
  "bytecode": {
    "object": "0x60a0806040523461002a5730608052612275908161003082396080518181816101e401526106560152f35b600080fdfe6080604052600436101561001257600080fd5b6000803560e01c9081631baabc3e1461006a575080631d153ca41461006557806394e6f56f14610060578063c89e43611461005b5763da0544aa1461005657600080fd5b610439565b610410565b610325565b6101ce565b346101265761007836610129565b8152602090808252604081208181549061009182610466565b9283608052600192838116908160001461010357506001146100cc575b6100bb607f19860161023a565b604051806100c881610188565b0390f35b9080959450528284205b8285106100f1575050505060a06100bb9101828080806100ae565b805460a08601529383019381016100d6565b93505050506100bb935060a0925060ff19168252151560051b01828080806100ae565b80fd5b602090600319011261013b5760043590565b600080fd5b60005b8381106101535750506000910152565b8181015183820152602001610143565b9060209161017c81518092818552858086019101610140565b601f01601f1916010190565b90602091828152608051808483015260005b8181106101bb575060409293506000838284010152601f8019910116010190565b60a081015183820160400152840161019a565b3461013b57600036600319011261013b576040517f00000000000000000000000000000000000000000000000000000000000000006001600160a01b03168152602090f35b6001600160a01b0381160361013b57565b634e487b7160e01b600052604160045260246000fd5b601f8019910116608001608081106001600160401b0382111761025c57604052565b610224565b604081019081106001600160401b0382111761025c57604052565b602081019081106001600160401b0382111761025c57604052565b606081019081106001600160401b0382111761025c57604052565b90601f801991011681019081106001600160401b0382111761025c57604052565b604051906101c082018281106001600160401b0382111761025c57604052565b6001600160401b03811161025c5760051b60200190565b6001600160401b03811161025c57601f01601f191660200190565b3461013b5760408060031936011261013b576004359061034482610213565b60249182356001600160401b039384821161013b573660238301121561013b578160040135610372816102f3565b9461037f815196876102b2565b818652602096838888019360051b8601019436861161013b57848101935b8685106103b0576103ae898961064a565b005b843583811161013b578201903660438301121561013b5786820135906103d58261030a565b6103e1875191826102b2565b8281526044933685858301011161013b578d84819695829660009401838601378301015281520194019361039d565b3461013b57600036600319011261013b576001546040516001600160a01b039091168152602090f35b3461013b576100c861045261044d36610129565b610bdc565b604051918291602083526020830190610163565b90600182811c92168015610496575b602083101461048057565b634e487b7160e01b600052602260045260246000fd5b91607f1691610475565b90604051918260008254926104b484610466565b90818452600194858116908160001461052357506001146104e0575b50506104de925003836102b2565b565b9093915060005260209081600020936000915b81831061050b5750506104de935082010138806104d0565b855488840185015294850194879450918301916104f3565b9150506104de94506020925060ff191682840152151560051b82010138806104d0565b634e487b7160e01b600052603260045260246000fd5b8051156105695760200190565b610546565b8051600110156105695760400190565b8051600210156105695760600190565b8051600310156105695760800190565b80518210156105695760209160051b010190565b634e487b7160e01b600052601160045260246000fd5b90600282018092116105d657565b6105b2565b90602082018092116105d657565b919082018092116105d657565b90601f811161060457505050565b600091825260208220906020601f850160051c83019410610640575b601f0160051c01915b82811061063557505050565b818155600101610629565b9092508290610620565b6001600160a01b0390307f000000000000000000000000000000000000000000000000000000000000000083161461013b5760019182549181831661013b5716906bffffffffffffffffffffffff60a01b1617815581519160005b8381106106b25750505050565b6106bc818361059e565b518382018092116105d657816000526020600081526040600020918051916001600160401b03831161025c5782916106fe836106f88754610466565b876105f6565b81601f8411600114610736575060009261072b575b5050600019600383901b1c191690851b1790556106a5565b015190503880610713565b9190889450601f19841661074f87600052602060002090565b936000905b82821061078a5750508411610771575b505050811b0190556106a5565b015160001960f88460031b161c19169055388080610764565b8484015186558b97909501949384019390810190610754565b9081602091031261013b57516107b881610213565b90565b6040513d6000823e3d90fd5b51906104de82610213565b5190811515820361013b57565b90816101c091031261013b576107f36102d3565b90805182526020810151602083015260408101516040830152606081015160608301526080810151608083015260a081015160a083015260c081015160c083015261084060e082016107c7565b60e0830152610100808201519083015261012061085e8183016107c7565b90830152610140808201519083015261016080820151908301526101806108868183016107d2565b908301526108986101a08092016107d2565b9082015290565b60208183031261013b578051906001600160401b03821161013b570181601f8201121561013b5780516108d18161030a565b926108df60405194856102b2565b8184526020828401011161013b576107b89160208085019101610140565b9081602091031261013b575190565b6040519060a082018281106001600160401b0382111761025c57604052600482528160005b6080811061093d575050565b806060602080938501015201610931565b6040519061095b8261027c565b60008252565b6040519061096e82610261565b601d82527f646174613a6170706c69636174696f6e2f6a736f6e3b6261736536342c0000006020830152565b906109ad60209282815194859201610140565b0190565b604051906109be82610261565b6002825261032360f41b6020830152565b604051906109dc82610261565b60028252610c8d60f21b6020830152565b604051906109fa82610261565b6002825261189b60f11b6020830152565b60405190610a1882610261565b6002825261033360f41b6020830152565b60405190610a3682610261565b6002825261034360f41b6020830152565b60405190610a5482610261565b6002825261036360f41b6020830152565b60405190610a7282610261565b6002825261038360f41b6020830152565b60405190610a9082610261565b6002825261039360f41b6020830152565b60405190610aae82610261565b600382526203134360ec1b6020830152565b60405190610acd82610261565b600382526203230360ec1b6020830152565b60405190610aec82610261565b600382526203234360ec1b6020830152565b60405190610b0b82610297565b603a82527f2e206c617374206368616e636520666f7220726566756e64732e0000000000006040837f47616d65207374617274696e672c206d696e74696e6720697320636c6f73656460208201520152565b919082039182116105d657565b661e17ba32bc3a1f60c91b815260070190565b60405190610b8a82610261565b6002825261227d60f01b6020830152565b60206104de919392936040519481610bbc8793518092868087019101610140565b8201610bd082518093868085019101610140565b010380855201836102b2565b6001546001600160a01b03166040805163975057e760e01b808252919390926004926020929083868681865afa9586156116ec57600096611978575b50865163b67cb04760e01b81526001600160a01b03848116878301908152602081018590526101c098919291899183919082900360400190829086165afa9788156116ec57600098611949575b50506101408701516117fa575050610c7b61090c565b94610c84610961565b610c8d8761055c565b52610c978661055c565b5086516306fdde0360e01b8152906000828781875afa9182156116ec576000926117d7575b508051610cd3906000526000602052604060002090565b610cdc906104a0565b918151610ce8906120fc565b8951683d913730b6b2911d1160b91b8882019081529098918991600901610d0f908561099a565b7f222c226465736372697074696f6e223a225465616d3a200000000000000000008152601701610d3f908761099a565b650161024a21d160d51b8152600601610d579161099a565b7f222c22696d616765223a22646174613a696d6167652f7376672b786d6c3b62618152641cd94d8d0b60da1b60208201526025010397601f19988981018252610da090826102b2565b610da98a61056e565b52610db38961056e565b508151602311156117c957610dc66109cf565b945b8451600381101561172d5750610ddc610adf565b935b8b51634f228e1160e01b81528381018381528a908290819060200103818c5afa9081156116ec57600091611710575b508c5163640abacd60e01b8152908a8286818d5afa9081156116ec57610e3b926000926116f1575b50611aca565b508b610e61610e5c610e4b610afe565b936060608082015191015190610b5d565b6120fc565b94610e9e8b610e92610e798551998a9384019061099a565b6c20696e206578697374656e636560981b8152600d0190565b038d81018852876102b2565b610ea66119da565b988b610eb0611a55565b9b610eb9612099565b9451633fafa12760e01b815297889182905afa9586156116ec578f96610ee9918e6000926116bf575b50506120fc565b94610ef3906120fc565b95519a8b9a8d8c01610f75906059907f3c7376672077696474683d2235303022206865696768743d223530302220766981527f6577426f783d22302030203130302520313030252220786d6c6e733d2268747460208201527f703a2f2f7777772e77332e6f72672f323030302f737667223e0000000000000060408201520190565b7f3c7374796c653e40666f6e742d666163657b666f6e742d66616d696c793a224381527f617073756c65732d333030223b7372633a75726c28646174613a666f6e742f7460208201527f727565747970653b636861727365743d7574662d383b6261736536342c0000006040820152605d01610ff09161099a565b75293b666f726d617428226f70656e7479706522293b7d60501b81526016017f40666f6e742d666163657b666f6e742d66616d696c793a2243617073756c657381527f2d373030223b7372633a75726c28646174613a666f6e742f74727565747970656020820152750ed8da185c9cd95d0f5d5d198b4e0ed8985cd94d8d0b60521b60408201526056016110839161099a565b75293b666f726d617428226f70656e7479706522293b7d60501b81526016017f746578747b77686974652d73706163653a7072652d777261703b20776964746881526f1d189818129d903e9e17b9ba3cb6329f60811b60208201526030017f3c726563742077696474683d22313030767722206865696768743d22313030768152723411103334b6361e9111989c189a191a11179f60691b60208201526033017f3c7465787420783d2231302220793d22343022207374796c653d22666f6e742d81526439b4bd329d60d91b60208201526025016111609161099a565b7f70783b20666f6e742d66616d696c793a2043617073756c65732d3330303b206681527f6f6e742d7765696768743a3330303b2066696c6c3a20236665613238323b223e60208201526040016111b59161099a565b6111be90610b6a565b7f3c7465787420783d2231302220793d22363022207374796c653d22666f6e742d81527f73697a653a313670783b20666f6e742d66616d696c793a2043617073756c657360208201527f2d3330303b20666f6e742d7765696768743a3330303b2066696c6c3a2023633060408201527f623366313b223e47414d452050524f47524553533a20506861736520000000006060820152607c0161125f9161099a565b64081bd9880d60da1b815260050161127690610b6a565b7f3c7465787420783d2231302220793d22383022207374796c653d22666f6e742d81527f73697a653a313670783b20666f6e742d66616d696c793a2043617073756c657360208201527f2d3330303b20666f6e742d7765696768743a3330303b2066696c6c3a2023656460408201526618189bb19d911f60c91b60608201526067016113019161099a565b61130a90610b6a565b7f3c7465787420783d2231302220793d2234343022207374796c653d22666f6e7481527f2d73697a653a313670783b20666f6e742d66616d696c793a2043617073756c6560208201527f732d3330303b20666f6e742d7765696768743a3330303b2066696c6c3a20236360408201527f30623366313b223e4445464946412047414d452049443a20000000000000000060608201526078016113ab9161099a565b6113b490610b6a565b7f3c7465787420783d2231302220793d2234363022207374796c653d22666f6e7481527f2d73697a653a313670783b20666f6e742d66616d696c793a2043617073756c6560208201527f732d3330303b20666f6e742d7765696768743a3330303b2066696c6c3a2023636040820152710183119b3189d911f2a27a5a2a71024a21d160751b606082015260720161144a9161099a565b61145390610b6a565b7f3c7465787420783d2231302220793d2234383022207374796c653d22666f6e7481527f2d73697a653a313670783b20666f6e742d66616d696c793a2043617073756c6560208201527f732d3330303b20666f6e742d7765696768743a3330303b2066696c6c3a20236360408201526f0183119b3189d911f2920a924aa2c9d160851b60608201526070016114e79161099a565b6114f090610b6a565b7f3c7465787420746578744c656e6774683d2235303022206c656e67746841646a81527f7573743d2273706163696e672220783d223530252220793d223530252220737460208201526e3cb6329e913337b73a16b9b4bd329d60891b6040820152604f0161155d9161099a565b7f70783b20666f6e742d66616d696c793a2043617073756c65732d3730303b206681527f6f6e742d7765696768743a3730303b2066696c6c3a236665613238323b20746560208201527f78742d616e63686f723a6d6964646c653b20646f6d696e616e742d626173656c60408201526d34b7329d36b4b23236329d90111f60911b6060820152606e016115ef9161099a565b6115f890610b6a565b651e17b9bb339f60d11b815260060103838101825261161790826102b2565b61162090611c4f565b6116298461057e565b526116338361057e565b5061163c610b7d565b6116458461058e565b5261164f8361058e565b506116598361055c565b51936116648461056e565b519361166f8161057e565b519061167a9061058e565b519151948593840161168b9161099a565b6116949161099a565b61169d9161099a565b0390810182526116ad90826102b2565b6116b690611c4f565b6107b891610b9b565b6116de9250803d106116e5575b6116d681836102b2565b8101906108fd565b388e610ee2565b503d6116cc565b6107bb565b6117099192508c8d3d106116e5576116d681836102b2565b9038610e35565b61172791508a3d8c116116e5576116d681836102b2565b38610e0d565b6005811015611745575061173f610ac0565b93610dde565b6008811015611757575061173f610aa1565b600a811015611769575061173f610a83565b600c81101561177b575061173f610a65565b601081101561178d575061173f610a47565b601781101561179f575061173f610a29565b601e8110156117b1575061173f610a0b565b602311156117c15761173f6109b1565b61173f6109ed565b6117d16109b1565b94610dc8565b6117f391923d8091833e6117eb81836102b2565b81019061089f565b9038610cbc565b919293968096509490945185815287818381885afa9081156116ec5760009161192c575b50865163f682eeaf60e01b815230838201908152909160009183919082900360200190829087165afa9586156116ec578891600097611911575b508288518097819382525afa9182156116ec576118a49688956000946118e2575b5051630c8df17160e41b81523092810192835260208301949094529295869384929091839160400190565b0392165afa9182156116ec576107b8936000936118c3575b5050611d38565b6118da929350803d106116e5576116d681836102b2565b9038806118bc565b611903919450863d881161190a575b6118fb81836102b2565b8101906107a3565b9238611879565b503d6118f1565b61192591973d8091833e6117eb81836102b2565b9538611858565b6119439150883d8a1161190a576118fb81836102b2565b3861181e565b611969929850803d10611971575b61196181836102b2565b8101906107df565b953880610c65565b503d611957565b611990919650843d861161190a576118fb81836102b2565b9438610c18565b604051906119a482610261565b60068252651b9bdc9b585b60d21b6020830152565b606060206107b8938184528051828501520151916040808201520190610163565b611a1760006040516119eb81610261565b61012c81526119f8611997565b60208201526040518093819263bf6519ad60e01b8352600483016119b9565b038173a77b7d93e79f1e6b4f77fab29d9ef85733a3d44a5afa9081156116ec57600091611a42575090565b6107b8913d8091833e6117eb81836102b2565b611a176000604051611a6681610261565b6102bc81526119f8611997565b600281901b91906001600160fe1b038116036105d657565b908160011b91808304600214901517156105d657565b818102929181159184041417156105d657565b634e487b7160e01b600052601260045260246000fd5b611ad782611adc92611aa1565b611a8b565b8115611ba15704611afb612710611af48184046120fc565b92066120fc565b80515b60088110611b565750611b2891611b48611b3b6107b893611b35604051968795602087019061099a565b601760f91b815260010190565b9061099a565b602560f81b815260010190565b03601f1981018352826102b2565b90611b8f6040519182602091600360fc1b83830152611b7f815180926021958686019101610140565b81010360018101845201826102b2565b9060001981146105d657600101611afe565b611ab4565b60405190611bb382610297565b604082527f6768696a6b6c6d6e6f707172737475767778797a303132333435363738392b2f6040837f4142434445464748494a4b4c4d4e4f505152535455565758595a61626364656660208201520152565b604051611c118161027c565b60008152906000368137565b90611c278261030a565b611c3460405191826102b2565b8281528092611c45601f199161030a565b0190602036910137565b805115611d2f57611c5e611ba6565b611c7a611c75611c6e84516105c8565b6003900490565b611a73565b91611c8c611c87846105db565b611c1d565b92835280815182019060208501935b828210611cdd57505050600390510680600114611ccc57600214611cbd575090565b603d60f81b6000199091015290565b50613d3d60f01b6001199091015290565b9091936004906003809401938451600190603f9082828260121c16880101518553828282600c1c16880101518386015382828260061c1688010151600286015316850101519082015301939190611c9b565b506107b861094e565b906107b890611d66604051602092609160f51b84830152602282015260228152611d6181610297565b611e05565b926040519381611d7f8693518092868087019101610140565b8201611d9382518093868085019101610140565b010380845201826102b2565b604051906105e082018281106001600160401b0382111761025c57604052602e82526105c0366020840137565b90611dd6826102f3565b611de360405191826102b2565b8281528092611c45601f19916102f3565b908151811015610569570160200190565b90815115611f2a57611e15611d9f565b9160009081611e238561055c565b5260019181519181925b808410611e535750505050611e49611e4e916107b89394611f34565b611f77565b611fbe565b90919294611e84611e7e611e78611e6a8987611df4565b516001600160f81b03191690565b60f81c90565b60ff1690565b9184925b60ff9089828916861015611ee95760019291611ebd611eb7611e7e611eb08a611ec39661059e565b5160ff1690565b60081b90565b906105e9565b611ee08b611ed888603a95868606169261059e565b9060ff169052565b04930192611e88565b50919594935050809691965b611f03575060010192611e2d565b9460ff6001603a92611f2083858b0616611ed88d8685169061059e565b0116950480611ef5565b90506107b8611c05565b9060ff80911690611f4482611dcc565b9260005b838110611f56575050505090565b8083611f646001938561059e565b5116611f70828861059e565b5201611f48565b908151611f8381611dcc565b9060005b818110611f95575090925050565b60019060ff611fab60001983895103018861059e565b5116611fb7828661059e565b5201611f87565b8051611fc98161030a565b91604090611fd9825194856102b2565b828452601f19611fe88461030a565b016020903682870137600092835b8581106120065750505050505090565b600190825161201481610297565b603a81527f31323334353637383941424344454647484a4b4c4d4e50515253545556575859858201527f5a6162636465666768696a6b6d6e6f707172737475767778797a000000000000848201526001600160f81b0319906120849060ff61207c858a61059e565b511690611df4565b5116861a612092828a611df4565b5301611ff6565b60405160026120a782610261565b6001908183526020368185013760218301825b6120c5575b50505090565b6000190190600a906f181899199a1a9b1b9c1cb0b131b232b360811b8282061a8353049182156120f7579190826120ba565b6120bf565b806000917a184f03e93ff9f4daa797ed6e38ed64bf6a1f01000000000000000080821015612231575b506d04ee2d6d415b85acef810000000080831015612222575b50662386f26fc1000080831015612213575b506305f5e10080831015612204575b50612710808310156121f5575b5060648210156121e5575b600a809210156121db575b600190816021612193828701611c1d565b95860101905b6121a5575b5050505090565b600019019083906f181899199a1a9b1b9c1cb0b131b232b360811b8282061a8353049182156121d657919082612199565b61219e565b9160010191612182565b9190606460029104910191612177565b6004919392049101913861216c565b6008919392049101913861215f565b60109193920491019138612150565b6020919392049101913861213e565b60409350810491503861212556fea26469706673582212205fdd86f87a4666833707d35a202d0284ebed2285f17060fb11e2f58770f7cf3464736f6c63430008120033",
    "linkReferences": {}
  },
  "methodIdentifiers": {
    "codeOrigin()": "1d153ca4",
    "delegate()": "c89e4361",
    "getUri(uint256)": "da0544aa",
    "initialize(address,string[])": "94e6f56f",
    "tierNameOf(uint256)": "1baabc3e"
  },
  "id": 4
}