{
  "abi": [
    {
      "inputs": [
        {
          "internalType": "contract ITypeface",
          "name": "_typeface",
          "type": "address"
        }
      ],
      "stateMutability": "nonpayable",
      "type": "constructor"
    },
    {
      "inputs": [
        {
          "internalType": "uint256",
          "name": "prod1",
          "type": "uint256"
        },
        {
          "internalType": "uint256",
          "name": "denominator",
          "type": "uint256"
        }
      ],
      "name": "PRBMath__MulDivOverflow",
      "type": "error"
    },
    {
      "inputs": [],
      "name": "codeOrigin",
      "outputs": [
        {
          "internalType": "address",
          "name": "",
          "type": "address"
        }
      ],
      "stateMutability": "view",
      "type": "function"
    },
    {
      "inputs": [],
      "name": "delegate",
      "outputs": [
        {
          "internalType": "contract IDefifaDelegate",
          "name": "",
          "type": "address"
        }
      ],
      "stateMutability": "view",
      "type": "function"
    },
    {
      "inputs": [
        {
          "internalType": "uint256",
          "name": "_tokenId",
          "type": "uint256"
        }
      ],
      "name": "getUri",
      "outputs": [
        {
          "internalType": "string",
          "name": "",
          "type": "string"
        }
      ],
      "stateMutability": "view",
      "type": "function"
    },
    {
      "inputs": [
        {
          "internalType": "contract IDefifaDelegate",
          "name": "_delegate",
          "type": "address"
        },
        {
          "internalType": "string[]",
          "name": "_tierNames",
          "type": "string[]"
        }
      ],
      "name": "initialize",
      "outputs": [],
      "stateMutability": "nonpayable",
      "type": "function"
    },
    {
      "inputs": [
        {
          "internalType": "uint256",
          "name": "_tierId",
          "type": "uint256"
        }
      ],
      "name": "tierNameOf",
      "outputs": [
        {
          "internalType": "string",
          "name": "",
          "type": "string"
        }
      ],
      "stateMutability": "view",
      "type": "function"
    },
    {
      "inputs": [],
      "name": "typeface",
      "outputs": [
        {
          "internalType": "contract ITypeface",
          "name": "",
          "type": "address"
        }
      ],
      "stateMutability": "view",
      "type": "function"
    }
  ],
  "bytecode": {
    "object": "0x60c03461008757601f6200316138819003918201601f19168301916001600160401b0383118484101761008c5780849260209460405283398101031261008757516001600160a01b0381168103610087573060805260a0526040516130be9081620000a3823960805181818161020501526106b9015260a05181818161024901526111880152f35b600080fd5b634e487b7160e01b600052604160045260246000fdfe6080604052600436101561001257600080fd5b6000803560e01c9081631baabc3e1461007a575080631d153ca4146100755780634d5a1d111461007057806394e6f56f1461006b578063c89e4361146100665763da0544aa1461006157600080fd5b61049c565b610475565b610389565b610229565b6101e5565b3461013c576100883661013f565b815260208181526040822080548361009f826104c9565b9283608052600192838116908160001461011357506001146100da575b6100c9607f198701610294565b604051806100d68161019e565b0390f35b90809550528284205b8285106101015750505050607f1960a06100c99201918380806100bc565b805460a08601529383019381016100e3565b9150506100c99550607f19945060a093925060ff199150168252151560051b01918380806100bc565b80fd5b60031960209101126101515760043590565b600080fd5b60005b8381106101695750506000910152565b8181015183820152602001610159565b90601f19601f60209361019781518092818752878088019101610156565b0116010190565b9060209182815260805192838183015260005b8481106101d2575050601f19601f8460006040809697860101520116010190565b60a08101518382016040015281016101b1565b346101515760006003193601126101515760206040516001600160a01b037f0000000000000000000000000000000000000000000000000000000000000000168152f35b346101515760006003193601126101515760206040516001600160a01b037f0000000000000000000000000000000000000000000000000000000000000000168152f35b6001600160a01b0381160361015157565b634e487b7160e01b600052604160045260246000fd5b601f601f199101166080016080811067ffffffffffffffff8211176102b857604052565b61027e565b6040810190811067ffffffffffffffff8211176102b857604052565b6020810190811067ffffffffffffffff8211176102b857604052565b6060810190811067ffffffffffffffff8211176102b857604052565b90601f601f19910116810190811067ffffffffffffffff8211176102b857604052565b60405190610180820182811067ffffffffffffffff8211176102b857604052565b67ffffffffffffffff81116102b85760051b60200190565b67ffffffffffffffff81116102b857601f01601f191660200190565b346101515760408060031936011261015157600435906103a88261026d565b602491823567ffffffffffffffff9384821161015157366023830112156101515781600401356103d781610355565b946103e481519687610311565b818652602096838888019360051b8601019436861161015157848101935b8685106104155761041389896106ae565b005b8435838111610151578201903660438301121561015157868201359061043a8261036d565b61044687519182610311565b82815260449336858583010111610151578d848196958296600094018386013783010152815201940193610402565b346101515760006003193601126101515760206001600160a01b0360015416604051908152f35b34610151576100d66104b56104b03661013f565b610cd4565b604051918291602083526020830190610179565b90600182811c921680156104f9575b60208310146104e357565b634e487b7160e01b600052602260045260246000fd5b91607f16916104d8565b9060405191826000825492610517846104c9565b9081845260019485811690816000146105865750600114610543575b505061054192500383610311565b565b9093915060005260209081600020936000915b81831061056e57505061054193508201013880610533565b85548884018501529485019487945091830191610556565b905061054195506020935060ff1991501682840152151560051b8201013880610533565b634e487b7160e01b600052603260045260246000fd5b8051156105cd5760200190565b6105aa565b8051600110156105cd5760400190565b8051600210156105cd5760600190565b8051600310156105cd5760800190565b80518210156105cd5760209160051b010190565b634e487b7160e01b600052601160045260246000fd5b906002820180921161063a57565b610616565b906020820180921161063a57565b9190820180921161063a57565b90601f811161066857505050565b600091825260208220906020601f850160051c830194106106a4575b601f0160051c01915b82811061069957505050565b81815560010161068d565b9092508290610684565b6001600160a01b03807f000000000000000000000000000000000000000000000000000000000000000016301461015157600191825491808316610151577fffffffffffffffffffffffff00000000000000000000000000000000000000009116911617815581519160005b8381106107275750505050565b6107318183610602565b5183820180921161063a578160005260206000815260406000209180519167ffffffffffffffff83116102b85782916107748361076e87546104c9565b8761065a565b81601f84116001146107ab57506000926107a0575b505060001982871b9260031b1c191617905561071a565b015190503880610789565b9190601f198995166107c287600052602060002090565b936000905b8282106107fd57505084116107e4575b505050811b01905561071a565b015160001960f88460031b161c191690553880806107d7565b8484015186558b979095019493840193908101906107c7565b90816020910312610151575190565b6040513d6000823e3d90fd5b9092919261083e8161036d565b9161084c6040519384610311565b829482845282820111610151576020610541930190610156565b9080601f8301121561015157815161088092602001610831565b90565b9060208282031261015157815167ffffffffffffffff8111610151576108809201610866565b6040519060a0820182811067ffffffffffffffff8211176102b857604052600482528160005b608081106108db575050565b8060606020809385010152016108cf565b9081602091031261015157516108808161026d565b51906105418261026d565b5190811515820361015157565b60208183031261015157805167ffffffffffffffff918282116101515701610180818403126101515761094a610334565b92815184526020820151602085015260408201516040850152606082015160608501526080820151608085015260a082015160a085015261098d60c08301610901565b60c085015260e082015160e085015261010080830151908501526101206109b581840161090c565b908501526101406109c781840161090c565b908501526101609283830151908111610151576109e49201610866565b9082015290565b604051906109f8826102d9565b60008252565b60405190610a0b826102bd565b601d82527f646174613a6170706c69636174696f6e2f6a736f6e3b6261736536342c0000006020830152565b90610a4a60209282815194859201610156565b0190565b90816020910312610151575160068110156101515790565b908160609103126101515780519160406020830151610a848161026d565b92015190565b60061115610a9457565b634e487b7160e01b600052602160045260246000fd5b90816020910312610151576108809061090c565b60405190610acb826102f5565b603782527f617374206368616e636520666f7220726566756e64732e0000000000000000006040837f47616d65207374617274696e672c206d696e74696e6720636c6f7365642e204c60208201520152565b60405190610b2a826102f5565b602f82527f6d652073746172747320736f6f6e2e00000000000000000000000000000000006040837f4d696e74696e6720616e6420726566756e647320617265206f70656e2e20476160208201520152565b60405190610b89826102bd565b601482527f4d696e74696e672073746172747320736f6f6e2e0000000000000000000000006020830152565b60405190610bc2826102f5565b602482527f70656e2e000000000000000000000000000000000000000000000000000000006040837f4e6f20636f6e7465737420696e6576697461626c652e20526566756e6473206f60208201520152565b60405190610c21826102bd565b601982527f4e6f20636f6e746573742e20526566756e6473206f70656e2e000000000000006020830152565b9190820391821161063a57565b60405190610c67826102bd565b600282527f227d0000000000000000000000000000000000000000000000000000000000006020830152565b6020610541919392936040519481610cb48793518092868087019101610156565b8201610cc882518093868085019101610156565b01038085520183610311565b610cf5610ce96001546001600160a01b031690565b6001600160a01b031690565b604051907f3fafa127000000000000000000000000000000000000000000000000000000008252602082600481845afa918215611def57600092612233575b5060006040517f06fdde030000000000000000000000000000000000000000000000000000000081528181600481865afa908115611def578291612219575b50610d7c6108a9565b946040517f975057e7000000000000000000000000000000000000000000000000000000008152602081600481885afa908115611def5784916121fa575b506040517fc44a8e6d0000000000000000000000000000000000000000000000000000000081526001600160a01b03861660048201526024810183905260006044820152948486806064810103816001600160a01b038096165afa958615611def5785966121d6575b50610e41610e3c87516000526000602052604060002090565b610503565b9460e08701805161215b5750610e556109fe565b610e5e8a6105c0565b52610e68896105c0565b50610f05610fb4610e798951612e7a565b610fa6610f57610e898c51612e7a565b610eff610f2e8d610eff604051998a98610eff610ed6610ed060208d016009907f7b226e616d65223a22000000000000000000000000000000000000000000000081520190565b86610a37565b7f222c20226964223a2022000000000000000000000000000000000000000000008152600a0190565b90610a37565b7f222c226465736372697074696f6e223a225465616d3a20000000000000000000815260170190565b7f2c2049443a200000000000000000000000000000000000000000000000000000815260060190565b7f2e222c22696d616765223a22646174613a696d6167652f7376672b786d6c3b6281527f61736536342c0000000000000000000000000000000000000000000000000000602082015260260190565b03601f198101835282610311565b610fbd8a6105d2565b52610fc7896105d2565b50604051917fa0b6490c000000000000000000000000000000000000000000000000000000008352602083600481845afa8015611def576110496020918695859161213e575b508b6040519788809481937f0715610a000000000000000000000000000000000000000000000000000000008352600483019190602083019252565b0392165afa938415611def57829461210d575b506040517f7245d80c000000000000000000000000000000000000000000000000000000008152602081600481855afa908115611def576060916110dd9185916120de575b508b6040519687809481937f596d07e4000000000000000000000000000000000000000000000000000000008352600483019190602083019252565b0392165afa8015611def5782809481926120a7575b506110fc86610a8a565b60058603611ec85750611122611110610c14565b995b6040606082015191015190610c4d565b9461112c81610a8a565b60018103611c8357505050505061118461114861115b92612e7a565b610fa66040519384926020840190610a37565b7f206d696e74656420736f206661720000000000000000000000000000000000008152600e0190565b925b7f0000000000000000000000000000000000000000000000000000000000000000946111c36111bd6111b78861287d565b97612910565b97612e7a565b936111cd816122d6565b906111e06111da8261239c565b9161243a565b916111ea856124d8565b51151580611c71575b15611c635761120185612614565b935b61120c866124d8565b5160009015611c30575061124061122287612576565b965b61122d816124d8565b5160009015611c0857506111bd906124d8565b976040519b8c9b60208d0161129f90603e907f3c7376672076696577426f783d2230203020353030203530302220786d6c6e7381527f3d22687474703a2f2f7777772e77332e6f72672f323030302f737667223e000060208201520190565b7f3c7374796c653e40666f6e742d666163657b666f6e742d66616d696c793a224381527f617073756c65732d353030223b7372633a75726c28646174613a666f6e742f7460208201527f727565747970653b636861727365743d7574662d383b6261736536342c0000006040820152605d0161131a91610a37565b7f293b666f726d617428226f70656e7479706522293b7d0000000000000000000081526016017f40666f6e742d666163657b666f6e742d66616d696c793a2243617073756c657381527f2d373030223b7372633a75726c28646174613a666f6e742f747275657479706560208201527f3b636861727365743d7574662d383b6261736536342c0000000000000000000060408201526056016113bb91610a37565b7f293b666f726d617428226f70656e7479706522293b7d0000000000000000000081526016017f746578747b77686974652d73706163653a7072652d777261703b20776964746881527f3a313030253b207d3c2f7374796c653e0000000000000000000000000000000060208201526030017f3c726563742077696474683d223130302522206865696768743d22313030252281527f2066696c6c3d2223313831343234222f3e00000000000000000000000000000060208201526031017f3c7465787420783d2231302220793d22333022207374796c653d22666f6e742d81527f73697a653a313670783b20666f6e742d66616d696c793a2043617073756c657360208201527f2d3530303b20666f6e742d7765696768743a3530303b2066696c6c3a2023633060408201527f623366313b223e47414d452049443a2000000000000000000000000000000000606082015260700161151a91610a37565b661e17ba32bc3a1f60c91b81526007017f3c7465787420783d2231302220793d22353022207374796c653d22666f6e742d81527f73697a653a313670783b20666f6e742d66616d696c793a2043617073756c657360208201527f2d3530303b20666f6e742d7765696768743a3530303b2066696c6c3a2023656460408201527f303137633b223e0000000000000000000000000000000000000000000000000060608201526067016115cb91610a37565b661e17ba32bc3a1f60c91b81526007017f3c7465787420783d2231302220793d22383022207374796c653d22666f6e742d81527f73697a653a323670783b20666f6e742d66616d696c793a2043617073756c657360208201527f2d3530303b20666f6e742d7765696768743a3530303b2066696c6c3a2023633060408201527f623366313b223e00000000000000000000000000000000000000000000000000606082015260670161167c91610a37565b661e17ba32bc3a1f60c91b81526007017f3c7465787420783d2231302220793d2231313522207374796c653d22666f6e7481527f2d73697a653a323670783b20666f6e742d66616d696c793a2043617073756c6560208201527f732d3530303b20666f6e742d7765696768743a3530303b2066696c6c3a20236360408201527f30623366313b223e000000000000000000000000000000000000000000000000606082015260680161172d91610a37565b661e17ba32bc3a1f60c91b81526007017f3c7465787420783d2231302220793d2231353022207374796c653d22666f6e7481527f2d73697a653a323670783b20666f6e742d66616d696c793a2043617073756c6560208201527f732d3530303b20666f6e742d7765696768743a3530303b2066696c6c3a20236360408201527f30623366313b223e00000000000000000000000000000000000000000000000060608201526068016117de91610a37565b661e17ba32bc3a1f60c91b81526007017f3c7465787420783d2231302220793d2232333022207374796c653d22666f6e7481527f2d73697a653a383070783b20666f6e742d66616d696c793a2043617073756c6560208201527f732d3730303b20666f6e742d7765696768743a3730303b2066696c6c3a20236660408201526732b0991c191d911f60c11b606082015260680161187a91610a37565b661e17ba32bc3a1f60c91b81526007017f3c7465787420783d2231302220793d2233323022207374796c653d22666f6e7481527f2d73697a653a383070783b20666f6e742d66616d696c793a2043617073756c6560208201527f732d3730303b20666f6e742d7765696768743a3730303b2066696c6c3a20236660408201526732b0991c191d911f60c11b606082015260680161191691610a37565b661e17ba32bc3a1f60c91b81526007017f3c7465787420783d2231302220793d2234313022207374796c653d22666f6e7481527f2d73697a653a383070783b20666f6e742d66616d696c793a2043617073756c6560208201527f732d3730303b20666f6e742d7765696768743a3730303b2066696c6c3a20236660408201526732b0991c191d911f60c11b60608201526068016119b291610a37565b661e17ba32bc3a1f60c91b81526007017f3c7465787420783d2231302220793d2234353522207374796c653d22666f6e7481527f2d73697a653a313670783b20666f6e742d66616d696c793a2043617073756c6560208201527f732d3530303b20666f6e742d7765696768743a3530303b2066696c6c3a20236360408201527f30623366313b223e544f4b454e2049443a2000000000000000000000000000006060820152607201611a6391610a37565b661e17ba32bc3a1f60c91b81526007017f3c7465787420783d2231302220793d2234383022207374796c653d22666f6e7481527f2d73697a653a313670783b20666f6e742d66616d696c793a2043617073756c6560208201527f732d3530303b20666f6e742d7765696768743a3530303b2066696c6c3a20236360408201527f30623366313b223e5241524954593a20000000000000000000000000000000006060820152607001611b1491610a37565b661e17ba32bc3a1f60c91b81526007017f3c2f7376673e0000000000000000000000000000000000000000000000000000815260060103601f1981018252611b5c9082610311565b611b6590612a03565b611b6e826105e2565b52611b78816105e2565b50611b81610c5a565b611b8a826105f2565b52611b94816105f2565b50611b9e816105c0565b5190611ba9816105d2565b51611bb3826105e2565b5191611bbe906105f2565b5160405192839260208401611bd291610a37565b611bdb91610a37565b611be491610a37565b03601f1981018252611bf69082610311565b611bff90612a03565b61088091610c93565b611c1182612576565b51159050611c22576111bd90612576565b611c2b90612614565b6111bd565b611c3987612576565b51159050611c5357611240611c4d87612614565b96611224565b611240611c5e6109eb565b611c4d565b611c6b6109eb565b93611203565b50611c7b85612576565b5115156111f3565b80611c9360039297959697610a8a565b1480611e54575b15611e16576040517f4f228e110000000000000000000000000000000000000000000000000000000081526004810187905291602083602481845afa908115611def57600493600092611df4575b50602090604051948580927f640abacd0000000000000000000000000000000000000000000000000000000082525afa918215611def57611d6696611d4d611d47611d8f95611d5395611db89a610fa699600093611dbe575b50612fca565b96612e7a565b956126be565b610eff6040519687956020870190610a37565b7f20696e206578697374656e636520776f727468207e0000000000000000000000815260150190565b7f2065616368000000000000000000000000000000000000000000000000000000815260050190565b92611186565b611de191935060203d602011611de8575b611dd98183610311565b810190610816565b9138611d41565b503d611dcf565b610825565b6020919250611e0f90823d8411611de857611dd98183610311565b9190611ce8565b5050611e2b9250611db8915061114890612e7a565b7f20696e206578697374656e6365000000000000000000000000000000000000008152600d0190565b506040517fa8c15f4a000000000000000000000000000000000000000000000000000000008152602081600481865afa908115611def57600091611e99575b50611c9a565b611ebb915060203d602011611ec1575b611eb38183610311565b810190610aaa565b38611e93565b503d611ea9565b611ed186610a8a565b60048603611eeb5750611122611ee5610bb5565b99611112565b611ef486610a8a565b85611f055750611122611ee5610b7c565b611f0e86610a8a565b60018603611f225750611122611ee5610b1d565b611f2b86610a8a565b60028603611f3f5750611122611ee5610abe565b611f4886610a8a565b600386149081612042575b5015611fce57611122611fa5611ee5611f6d8488886126be565b604080517f4177616974696e672073636f7265636172642e2047616d6520706f74206973206020820152938492610fa6928401610eff565b7f2e00000000000000000000000000000000000000000000000000000000000000815260010190565b611122611fa5611ee5611fe28488886126be565b610fa6604051938492610eff602085016024907f53636f72656361726420617070726f7665642e20546f74616c2061776172647381527f206f66200000000000000000000000000000000000000000000000000000000060208201520190565b90506040517fa8c15f4a000000000000000000000000000000000000000000000000000000008152602081600481875afa918215611def5791612088575b501538611f53565b6120a1915060203d602011611ec157611eb38183610311565b38612080565b915092506120cd91935060603d81116120d7575b6120c58183610311565b810190610a66565b90939192386110f2565b503d6120bb565b612100915060203d602011612106575b6120f88183610311565b8101906108ec565b386110a1565b503d6120ee565b61213091945060203d602011612137575b6121288183610311565b810190610a4e565b923861105c565b503d61211e565b6121559150833d8511612106576120f88183610311565b3861100d565b965097509250505060049350849150604051938480927f6c0360eb0000000000000000000000000000000000000000000000000000000082525afa918215611def578361088094936121b1575b50505190612b3a565b6121ce9293503d8091833e6121c68183610311565b810190610883565b9038806121a8565b6121f39196503d8087833e6121eb8183610311565b810190610919565b9438610e23565b612213915060203d602011612106576120f88183610311565b38610dba565b61222d91503d8084833e6121c68183610311565b38610d73565b61224d91925060203d602011611de857611dd98183610311565b9038610d34565b8051601e10156105cd57603e0190565b8051603c10156105cd57605c0190565b8051601410156105cd5760340190565b8051600a10156105cd57602a0190565b9081518110156105cd570160200190565b906122af8261036d565b6122bc6040519182610311565b828152601f196122cc829461036d565b0190602036910137565b90601e600160fd1b6001600160f81b03196123016122f3866105c0565b516001600160f81b03191690565b161490600091600014612396576001915b845183101561238157845180831161238e575b50818310156123815761234061233b8484610c4d565b6122a5565b92805b8381106123535750929450505050565b806123636122f36001938a612294565b61237a6123708584610c4d565b91861a9188612294565b5301612343565b50505090506108806109eb565b915038612325565b81612312565b90603c600160fd1b6001600160f81b03196123b96122f386612254565b16149060009160001461243257601f915b845183101561238157845180831161242a575b5081831015612381576123f361233b8484610c4d565b92805b8381106124065750929450505050565b806124166122f36001938a612294565b6124236123708584610c4d565b53016123f6565b9150386123dd565b601e916123ca565b90605a600160fd1b6001600160f81b03196124576122f386612264565b1614906000916000146124d057603d915b84518310156123815784518083116124c8575b50818310156123815761249161233b8484610c4d565b92805b8381106124a45750929450505050565b806124b46122f36001938a612294565b6124c16123708584610c4d565b5301612494565b91503861247b565b603c91612468565b90601e600160fd1b6001600160f81b03196124f56122f386612274565b16149060009160001461256e576015915b8451831015612381578451808311612566575b50818310156123815761252f61233b8484610c4d565b92805b8381106125425750929450505050565b806125526122f36001938a612294565b61255f6123708584610c4d565b5301612532565b915038612519565b601491612506565b906014600160fd1b6001600160f81b03196125936122f386612284565b16149060009160001461260c57600b915b8451831015612381578451808311612604575b5081831015612381576125cd61233b8484610c4d565b92805b8381106125e05750929450505050565b806125f06122f36001938a612294565b6125fd6123708584610c4d565b53016125d0565b9150386125b7565b600a916125a4565b90600a600160fd1b6001600160f81b03196126316122f3866105c0565b1614906000916000146126aa576001915b84518310156123815784518083116126a2575b50818310156123815761266b61233b8484610c4d565b92805b83811061267e5750929450505050565b8061268e6122f36001938a612294565b61269b6123708584610c4d565b530161266e565b915038612655565b81612642565b604d811161063a57600a0a90565b906126ed6126d86001600160a01b036127009316946126b0565b620186a06126f8826126f26126ed82896129ac565b612e7a565b96612c12565b9104906129ac565b9160009061eeee810361275457505061088090610fa6611fa593610eff604051958694610eff602087016002907fce9e00000000000000000000000000000000000000000000000000000000000081520190565b908060049392604051948580927f95d89b410000000000000000000000000000000000000000000000000000000082525afa8015611def57611fa5946108809483610fa694936127c8575b50506127bb610eff91610eff6040519889976020890190610a37565b600160fd1b815260010190565b610eff9293506127bb916127e5913d8091833e6121c68183610311565b929161279f565b604051906127f9826102bd565b600682527f6e6f726d616c00000000000000000000000000000000000000000000000000006020830152565b6020818303126101515780519067ffffffffffffffff821161015157019080601f8301121561015157815161088092602001610831565b60606020610880938184528051828501520151916040808201520190610179565b60006128de6001600160a01b0392604051612897816102bd565b6101f481526128a46127ec565b60208201526040519485809481937fbf6519ad0000000000000000000000000000000000000000000000000000000083526004830161285c565b0392165afa908115611def576000916128f5575090565b610880913d8091833e6129088183610311565b810190612825565b60006128de6001600160a01b039260405161292a816102bd565b6102bc81526128a46127ec565b60405190612944826102f5565b604082527f6768696a6b6c6d6e6f707172737475767778797a303132333435363738392b2f6040837f4142434445464748494a4b4c4d4e4f505152535455565758595a61626364656660208201520152565b634e487b7160e01b600052601260045260246000fd5b81156129b6570490565b612996565b908160021b917f3fffffffffffffffffffffffffffffffffffffffffffffffffffffffffffffff81160361063a57565b6040516129f7816102d9565b60008152906000368137565b805115612b3157612a12612937565b612a2e612a29612a22845161062c565b6003900490565b6129bb565b91612a3b61233b8461063f565b92835280815182019060208501935b828210612adf57505050600390510680600114612a9657600214612a6c575090565b6000197f3d0000000000000000000000000000000000000000000000000000000000000091015290565b507ffffffffffffffffffffffffffffffffffffffffffffffffffffffffffffffffe7f3d3d00000000000000000000000000000000000000000000000000000000000091015290565b9091936004906003809401938451600190603f9082828260121c16880101518553828282600c1c16880101518386015382828260061c1688010151600286015316850101519082015301939190612a4a565b506108806109eb565b9061088090612b846040516020927f122000000000000000000000000000000000000000000000000000000000000084830152602282015260228152612b7f816102f5565b612c1c565b926040519381612b9d8693518092868087019101610156565b8201612bb182518093868085019101610156565b01038084520182610311565b604051906105e0820182811067ffffffffffffffff8211176102b857604052602e82526105c0366020840137565b90612bf582610355565b612c026040519182610311565b828152601f196122cc8294610355565b81156129b6570690565b90815115612d3357612c2c612bbd565b9160009081612c3a856105c0565b5260019181519181925b808410612c6a5750505050612c60612c65916108809394612d3d565b612d80565b612dc7565b90919294612c8d612c87612c816122f38987612294565b60f81c90565b60ff1690565b9184925b60ff9089828916861015612cf25760019291612cc6612cc0612c87612cb98a612ccc96610602565b5160ff1690565b60081b90565b9061064d565b612ce98b612ce188603a958686061692610602565b9060ff169052565b04930192612c91565b50919594935050809691965b612d0c575060010192612c44565b9460ff6001603a92612d2983858b0616612ce18d86851690610602565b0116950480612cfe565b90506108806129eb565b9060ff80911690612d4d82612beb565b9260005b838110612d5f575050505090565b8083612d6d60019385610602565b5116612d798288610602565b5201612d51565b908151612d8c81612beb565b9060005b818110612d9e575090925050565b8060ff612db46000196001948951030188610602565b5116612dc08286610602565b5201612d90565b8051612dd2816122a5565b91600090815b838110612de6575050505090565b6001906001600160f81b0319612e6560407f5a6162636465666768696a6b6d6e6f707172737475767778797a000000000000815191612e24836102f5565b603a83527f31323334353637383941424344454647484a4b4c4d4e50515253545556575859602084015282015260ff612e5d8588610602565b511690612294565b5116841a612e738288612294565b5301612dd8565b806000917a184f03e93ff9f4daa797ed6e38ed64bf6a1f01000000000000000080821015612fbc575b506d04ee2d6d415b85acef810000000080831015612fad575b50662386f26fc1000080831015612f9e575b506305f5e10080831015612f8f575b5061271080831015612f80575b506064821015612f70575b600a80921015612f66575b600190816021612f118287016122a5565b95860101905b612f23575b5050505090565b600019849101917f30313233343536373839616263646566000000000000000000000000000000008282061a835304918215612f6157919082612f17565b612f1c565b9160010191612f00565b9190606460029104910191612ef5565b60049193920491019138612eea565b60089193920491019138612edd565b60109193920491019138612ece565b60209193920491019138612ebc565b604093508104915038612ea3565b9091600019838309928083029283808610950394808603951461307b578285101561304257908291096001821901821680920460028082600302188083028203028083028203028083028203028083028203028083028203028092029003029360018380600003040190848311900302920304170290565b6040517f773cc18c0000000000000000000000000000000000000000000000000000000081526004810186905260248101849052604490fd5b50509061088092506129ac56fea26469706673582212201341d6c359c7da239afdedf9955b46a247892111ff528aea12f490861a7ec83a64736f6c63430008140033",
    "linkReferences": {}
  },
  "methodIdentifiers": {
    "codeOrigin()": "1d153ca4",
    "delegate()": "c89e4361",
    "getUri(uint256)": "da0544aa",
    "initialize(address,string[])": "94e6f56f",
    "tierNameOf(uint256)": "1baabc3e",
    "typeface()": "4d5a1d11"
  },
  "id": 4
}