{
  "abi": [
    {
      "inputs": [],
      "stateMutability": "nonpayable",
      "type": "constructor"
    },
    {
      "inputs": [],
      "name": "codeOrigin",
      "outputs": [
        {
          "internalType": "address",
          "name": "",
          "type": "address"
        }
      ],
      "stateMutability": "view",
      "type": "function"
    },
    {
      "inputs": [],
      "name": "delegate",
      "outputs": [
        {
          "internalType": "contract IDefifaDelegate",
          "name": "",
          "type": "address"
        }
      ],
      "stateMutability": "view",
      "type": "function"
    },
    {
      "inputs": [
        {
          "internalType": "uint256",
          "name": "_tokenId",
          "type": "uint256"
        }
      ],
      "name": "getUri",
      "outputs": [
        {
          "internalType": "string",
          "name": "",
          "type": "string"
        }
      ],
      "stateMutability": "view",
      "type": "function"
    },
    {
      "inputs": [
        {
          "internalType": "contract IDefifaDelegate",
          "name": "_delegate",
          "type": "address"
        },
        {
          "internalType": "string[]",
          "name": "_tierNames",
          "type": "string[]"
        }
      ],
      "name": "initialize",
      "outputs": [],
      "stateMutability": "nonpayable",
      "type": "function"
    },
    {
      "inputs": [
        {
          "internalType": "uint256",
          "name": "_tierId",
          "type": "uint256"
        }
      ],
      "name": "tierNameOf",
      "outputs": [
        {
          "internalType": "string",
          "name": "",
          "type": "string"
        }
      ],
      "stateMutability": "view",
      "type": "function"
    }
  ],
  "bytecode": {
    "object": "0x60a0806040523461002a57306080526123a2908161003082396080518181816101f001526106aa0152f35b600080fdfe60806040526004361015610013575b600080fd5b6000803560e01c9081631baabc3e1461007a575080631d153ca41461007157806394e6f56f14610068578063c89e43611461005f5763da0544aa1461005757600080fd5b61000e61046e565b5061000e610444565b5061000e610358565b5061000e6101d9565b346101365761008836610139565b815260209080825260408120818154906100a18261049c565b9283608052600192838116908160001461011357506001146100dc575b6100cb607f198601610247565b604051806100d881610193565b0390f35b9080959450528284205b828510610101575050505060a06100cb9101828080806100be565b805460a08601529383019381016100e6565b93505050506100cb935060a0925060ff19168252151560051b01828080806100be565b80fd5b602090600319011261000e5760043590565b60005b83811061015e5750506000910152565b818101518382015260200161014e565b906020916101878151809281855285808601910161014b565b601f01601f1916010190565b90602091828152608051808483015260005b8181106101c6575060409293506000838284010152601f8019910116010190565b60a08101518382016040015284016101a5565b503461000e57600036600319011261000e576040517f00000000000000000000000000000000000000000000000000000000000000006001600160a01b03168152602090f35b6001600160a01b0381160361000e57565b50634e487b7160e01b600052604160045260246000fd5b601f8019910116608001608081106001600160401b0382111761026957604052565b610271610230565b604052565b604081019081106001600160401b0382111761026957604052565b602081019081106001600160401b0382111761026957604052565b606081019081106001600160401b0382111761026957604052565b90601f801991011681019081106001600160401b0382111761026957604052565b604051906101c082018281106001600160401b0382111761026957604052565b6020906001600160401b038111610321575b60051b0190565b610329610230565b61031a565b6020906001600160401b03811161034b575b601f01601f19160190565b610353610230565b610340565b503461000e5760408060031936011261000e57600435906103788261021f565b60249182356001600160401b039384821161000e573660238301121561000e5781600401356103a681610308565b946103b3815196876102c7565b818652602096838888019360051b8601019436861161000e57848101935b8685106103e4576103e2898961069e565b005b843583811161000e578201903660438301121561000e5786820135906104098261032e565b610415875191826102c7565b8281526044933685858301011161000e578d8481969582966000940183860137830101528152019401936103d1565b503461000e57600036600319011261000e576001546040516001600160a01b039091168152602090f35b503461000e576100d861048861048336610139565b610c41565b60405191829160208352602083019061016e565b90600182811c921680156104cc575b60208310146104b657565b634e487b7160e01b600052602260045260246000fd5b91607f16916104ab565b90604051918260008254926104ea8461049c565b9081845260019485811690816000146105595750600114610516575b5050610514925003836102c7565b565b9093915060005260209081600020936000915b81831061054157505061051493508201013880610506565b85548884018501529485019487945091830191610529565b91505061051494506020925060ff191682840152151560051b8201013880610506565b50634e487b7160e01b600052603260045260246000fd5b6020908051156105a1570190565b6105a961057c565b0190565b6040908051600110156105a1570190565b6060908051600210156105a1570190565b6080908051600310156105a1570190565b60209181518110156105f5575b60051b010190565b6105fd61057c565b6105ed565b50634e487b7160e01b600052601160045260246000fd5b906002820180921161062757565b610514610602565b906020820180921161062757565b9190820180921161062757565b90601f811161065857505050565b600091825260208220906020601f850160051c83019410610694575b601f0160051c01915b82811061068957505050565b81815560010161067d565b9092508290610674565b6001600160a01b0390307f000000000000000000000000000000000000000000000000000000000000000083161461000e5760019182549181831661000e5716906bffffffffffffffffffffffff60a01b1617815581519160005b8381106107065750505050565b61071081836105e0565b51838201809211610806575b8160005260206000815260406000209180519182916001600160401b0383116107f9575b6107548361074e875461049c565b8761064a565b81601f841160011461078c5750600092610781575b5050600019600383901b1c191690851b1790556106f9565b015190503880610769565b9190889450601f1984166107a587600052602060002090565b936000905b8282106107e057505084116107c7575b505050811b0190556106f9565b015160001960f88460031b161c191690553880806107ba565b8484015186558b979095019493840193908101906107aa565b610801610230565b610740565b61080e610602565b61071c565b9081602091031261000e57516108288161021f565b90565b506040513d6000823e3d90fd5b51906105148261021f565b5190811515820361000e57565b90816101c091031261000e576108646102e8565b90805182526020810151602083015260408101516040830152606081015160608301526080810151608083015260a081015160a083015260c081015160c08301526108b160e08201610838565b60e083015261010080820151908301526101206108cf818301610838565b90830152610140808201519083015261016080820151908301526101806108f7818301610843565b908301526109096101a0809201610843565b9082015290565b60208183031261000e578051906001600160401b03821161000e570181601f8201121561000e5780516109428161032e565b9261095060405194856102c7565b8184526020828401011161000e57610828916020808501910161014b565b9081602091031261000e575190565b6040519060a082018281106001600160401b038211176109c0575b604052600482528160005b608081106109af575050565b8060606020809385010152016109a3565b6109c8610230565b610998565b604051906109da82610291565b60008252565b604051906109ed82610276565b601d82527f646174613a6170706c69636174696f6e2f6a736f6e3b6261736536342c0000006020830152565b906105a96020928281519485920161014b565b60405190610a3982610276565b6002825261032360f41b6020830152565b60405190610a5782610276565b60028252610c8d60f21b6020830152565b60405190610a7582610276565b6002825261189b60f11b6020830152565b60405190610a9382610276565b6002825261033360f41b6020830152565b60405190610ab182610276565b6002825261034360f41b6020830152565b60405190610acf82610276565b6002825261036360f41b6020830152565b60405190610aed82610276565b6002825261038360f41b6020830152565b60405190610b0b82610276565b6002825261039360f41b6020830152565b60405190610b2982610276565b600382526203134360ec1b6020830152565b60405190610b4882610276565b600382526203230360ec1b6020830152565b60405190610b6782610276565b600382526203234360ec1b6020830152565b60405190610b86826102ac565b602782526632b33ab732399760c91b6040837f47616d65207374617274696e672e204c617374206368616e636520666f72207260208201520152565b9190820391821161062757565b661e17ba32bc3a1f60c91b815260070190565b60405190610bef82610276565b6002825261227d60f01b6020830152565b6020610514919392936040519481610c21879351809286808701910161014b565b8201610c358251809386808501910161014b565b010380855201836102c7565b6001546001600160a01b0316604091825163975057e760e01b80825260209160049183828481895afa918215611a75575b600092611a56575b50865163b67cb04760e01b81526001600160a01b03878116858301908152602081018890526101c094919291859183919082900360400190829086165afa938415611a49575b600094611a1a575b505061014083015161188e575050610cde61097d565b94610ce76109e0565b610cf087610593565b52610cfa86610593565b5086516306fdde0360e01b8152906000828581845afa918215611881575b60009261185e575b508251610d37906000526000602052604060002090565b610d40906104d6565b91888451610d4d90612229565b8151683d913730b6b2911d1160b91b8982019081529099918a91600901610d749086610a19565b7f222c226465736372697074696f6e223a225465616d3a200000000000000000008152601701610da49088610a19565b650161024a21d160d51b8152600601610dbc91610a19565b7f222c22696d616765223a22646174613a696d6167652f7376672b786d6c3b62618152641cd94d8d0b60da1b60208201526025010398601f19998a81018252610e0590826102c7565b610e0e8b6105ad565b52610e188a6105ad565b5082516023111561185057610e2b610a4a565b955b855160038110156117b45750610e41610b5a565b945b8351634f228e1160e01b8152808a01848152610ea391908c90829081906020010381865afa9081156117a7575b60009161178a575b50855163640abacd60e01b8152908c828d81875afa91821561177d575b60009261175e575b50611bc4565b50610ec8610ec3610eb2610b79565b936060608082015191015190610bc2565b612229565b94610f058b610ef9610ee08851998a93840190610a19565b6c20696e206578697374656e636560981b8152600d0190565b038d81018852876102c7565b610f0d611ac5565b98610f4e8c610f1a611b4e565b9c81610f246121c6565b968a5192838092633fafa12760e01b82525afa918215611751575b600092611724575b5050612229565b94610f5890612229565b95519a8b9a8d8c01610fda906059907f3c7376672077696474683d2235303022206865696768743d223530302220766981527f6577426f783d22302030203130302520313030252220786d6c6e733d2268747460208201527f703a2f2f7777772e77332e6f72672f323030302f737667223e0000000000000060408201520190565b7f3c7374796c653e40666f6e742d666163657b666f6e742d66616d696c793a224381527f617073756c65732d333030223b7372633a75726c28646174613a666f6e742f7460208201527f727565747970653b636861727365743d7574662d383b6261736536342c0000006040820152605d0161105591610a19565b75293b666f726d617428226f70656e7479706522293b7d60501b81526016017f40666f6e742d666163657b666f6e742d66616d696c793a2243617073756c657381527f2d373030223b7372633a75726c28646174613a666f6e742f74727565747970656020820152750ed8da185c9cd95d0f5d5d198b4e0ed8985cd94d8d0b60521b60408201526056016110e891610a19565b75293b666f726d617428226f70656e7479706522293b7d60501b81526016017f746578747b77686974652d73706163653a7072652d777261703b20776964746881526f1d189818129d903e9e17b9ba3cb6329f60811b60208201526030017f3c726563742077696474683d22313030767722206865696768743d22313030768152723411103334b6361e9111989c189a191a11179f60691b60208201526033017f3c7465787420783d2231302220793d22343022207374796c653d22666f6e742d81526439b4bd329d60d91b60208201526025016111c591610a19565b7f70783b20666f6e742d66616d696c793a2043617073756c65732d3330303b206681527f6f6e742d7765696768743a3330303b2066696c6c3a20236665613238323b223e602082015260400161121a91610a19565b61122390610bcf565b7f3c7465787420783d2231302220793d22363022207374796c653d22666f6e742d81527f73697a653a313670783b20666f6e742d66616d696c793a2043617073756c657360208201527f2d3330303b20666f6e742d7765696768743a3330303b2066696c6c3a2023633060408201527f623366313b223e47414d452050524f47524553533a20506861736520000000006060820152607c016112c491610a19565b64081bd9880d60da1b81526005016112db90610bcf565b7f3c7465787420783d2231302220793d22383022207374796c653d22666f6e742d81527f73697a653a313670783b20666f6e742d66616d696c793a2043617073756c657360208201527f2d3330303b20666f6e742d7765696768743a3330303b2066696c6c3a2023656460408201526618189bb19d911f60c91b606082015260670161136691610a19565b61136f90610bcf565b7f3c7465787420783d2231302220793d2234343022207374796c653d22666f6e7481527f2d73697a653a313670783b20666f6e742d66616d696c793a2043617073756c6560208201527f732d3330303b20666f6e742d7765696768743a3330303b2066696c6c3a20236360408201527f30623366313b223e4445464946412047414d452049443a200000000000000000606082015260780161141091610a19565b61141990610bcf565b7f3c7465787420783d2231302220793d2234363022207374796c653d22666f6e7481527f2d73697a653a313670783b20666f6e742d66616d696c793a2043617073756c6560208201527f732d3330303b20666f6e742d7765696768743a3330303b2066696c6c3a2023636040820152710183119b3189d911f2a27a5a2a71024a21d160751b60608201526072016114af91610a19565b6114b890610bcf565b7f3c7465787420783d2231302220793d2234383022207374796c653d22666f6e7481527f2d73697a653a313670783b20666f6e742d66616d696c793a2043617073756c6560208201527f732d3330303b20666f6e742d7765696768743a3330303b2066696c6c3a20236360408201526f0183119b3189d911f2920a924aa2c9d160851b606082015260700161154c91610a19565b61155590610bcf565b7f3c7465787420746578744c656e6774683d2235303022206c656e67746841646a81527f7573743d2273706163696e672220783d223530252220793d223530252220737460208201526e3cb6329e913337b73a16b9b4bd329d60891b6040820152604f016115c291610a19565b7f70783b20666f6e742d66616d696c793a2043617073756c65732d3730303b206681527f6f6e742d7765696768743a3730303b2066696c6c3a236665613238323b20746560208201527f78742d616e63686f723a6d6964646c653b20646f6d696e616e742d626173656c60408201526d34b7329d36b4b23236329d90111f60911b6060820152606e0161165491610a19565b61165d90610bcf565b651e17b9bb339f60d11b815260060103838101825261167c90826102c7565b61168590611d60565b61168e846105be565b52611698836105be565b506116a1610be2565b6116aa846105cf565b526116b4836105cf565b506116be83610593565b51936116c9846105ad565b51936116d4816105be565b51906116df906105cf565b51915194859384016116f091610a19565b6116f991610a19565b61170291610a19565b03908101825261171290826102c7565b61171b90611d60565b61082891610c00565b6117439250803d1061174a575b61173b81836102c7565b81019061096e565b388e610f47565b503d611731565b61175961082b565b610f3f565b6117769192508d803d1061174a5761173b81836102c7565b9038610e9d565b61178561082b565b610e95565b6117a191508c8d3d1061174a5761173b81836102c7565b38610e78565b6117af61082b565b610e70565b60058110156117cc57506117c6610b3b565b94610e43565b60088110156117de57506117c6610b1c565b600a8110156117f057506117c6610afe565b600c81101561180257506117c6610ae0565b601081101561181457506117c6610ac2565b601781101561182657506117c6610aa4565b601e81101561183857506117c6610a86565b60231115611848576117c6610a2c565b6117c6610a68565b611858610a2c565b95610e2d565b61187a91923d8091833e61187281836102c7565b810190610910565b9038610d20565b61188961082b565b610d18565b8496919592509287949361082898519587875285878481875afa968715611a0d575b6000976119ee575b50805163f682eeaf60e01b815230848201908152909760009189919082900360200190829086165afa9687156119e1575b6000976119c2575b508561193e97988483518097819382525afa9384156119b5575b600094611986575b5051630c8df17160e41b81523092810192835260208301949094529294859384929091839160400190565b0392165afa928315611979575b60009361195a575b5050611e49565b611971929350803d1061174a5761173b81836102c7565b903880611953565b61198161082b565b61194b565b6119a7919450863d88116119ae575b61199f81836102c7565b810190610813565b9238611913565b503d611995565b6119bd61082b565b61190b565b6119da879161193e993d8091833e61187281836102c7565b97506118f1565b6119e961082b565b6118e9565b611a06919750863d88116119ae5761199f81836102c7565b95386118b8565b611a1561082b565b6118b0565b611a3a929450803d10611a42575b611a3281836102c7565b810190610850565b913880610cc8565b503d611a28565b611a5161082b565b610cc0565b611a6e919250843d86116119ae5761199f81836102c7565b9038610c7a565b611a7d61082b565b610c72565b60405190611a8f82610276565b60068252651b9bdc9b585b60d21b6020830152565b6060602061082893818452805182850152015191604080820152019061016e565b611b026000604051611ad681610276565b61012c8152611ae3611a82565b60208201526040518093819263bf6519ad60e01b835260048301611aa4565b038173a77b7d93e79f1e6b4f77fab29d9ef85733a3d44a5afa908115611b41575b600091611b2e575090565b610828913d8091833e61187281836102c7565b611b4961082b565b611b23565b611b026000604051611b5f81610276565b6102bc8152611ae3611a82565b600281901b91906001600160fe1b0381160361062757565b908160011b918083046002149015171561062757565b8181029291811591840414171561062757565b50634e487b7160e01b600052601260045260246000fd5b611bd182611bd692611b9a565b611b84565b8115611caa575b04611bf6612710611bef818404612229565b9206612229565b80515b60088110611c515750611c2391611c43611c3661082893611c306040519687956020870190610a19565b601760f91b815260010190565b90610a19565b602560f81b815260010190565b03601f1981018352826102c7565b90600190611c8c6040519182602091600360fc1b83830152611c7d81518092602195868601910161014b565b810103848101845201826102c7565b916000198114611c9d575b01611bf9565b611ca5610602565b611c97565b611cb2611bad565b611bdd565b60405190611cc4826102ac565b604082527f6768696a6b6c6d6e6f707172737475767778797a303132333435363738392b2f6040837f4142434445464748494a4b4c4d4e4f505152535455565758595a61626364656660208201520152565b604051611d2281610291565b60008152906000368137565b90611d388261032e565b611d4560405191826102c7565b8281528092611d56601f199161032e565b0190602036910137565b805115611e4057611d6f611cb7565b611d8b611d86611d7f8451610619565b6003900490565b611b6c565b91611d9d611d988461062f565b611d2e565b92835280815182019060208501935b828210611dee57505050600390510680600114611ddd57600214611dce575090565b603d60f81b6000199091015290565b50613d3d60f01b6001199091015290565b9091936004906003809401938451600190603f9082828260121c16880101518553828282600c1c16880101518386015382828260061c1688010151600286015316850101519082015301939190611dac565b506108286109cd565b9061082890611e77604051602092609160f51b84830152602282015260228152611e72816102ac565b611f32565b926040519381611e90869351809286808701910161014b565b8201611ea48251809386808501910161014b565b010380845201826102c7565b604051906105e082018281106001600160401b03821117611ede575b604052602e82526105c0366020840137565b611ee6610230565b611ecc565b90611ef582610308565b611f0260405191826102c7565b8281528092611d56601f1991610308565b906020918051821015611f2557010190565b611f2d61057c565b010190565b9081511561205757611f42611eb0565b9160009081611f5085610593565b5260019181519181925b808410611f805750505050611f76611f7b916108289394612061565b6120a4565b6120eb565b90919294611fb1611fab611fa5611f978987611f13565b516001600160f81b03191690565b60f81c90565b60ff1690565b9184925b60ff90898289168610156120165760019291611fea611fe4611fab611fdd8a611ff0966105e0565b5160ff1690565b60081b90565b9061063d565b61200d8b61200588603a9586860616926105e0565b9060ff169052565b04930192611fb5565b50919594935050809691965b612030575060010192611f5a565b9460ff6001603a9261204d83858b06166120058d868516906105e0565b0116950480612022565b9050610828611d16565b9060ff8091169061207182611eeb565b9260005b838110612083575050505090565b8083612091600193856105e0565b511661209d82886105e0565b5201612075565b9081516120b081611eeb565b9060005b8181106120c2575090925050565b60019060ff6120d86000198389510301886105e0565b51166120e482866105e0565b52016120b4565b80516120f68161032e565b91604090612106825194856102c7565b828452601f196121158461032e565b016020903682870137600092835b8581106121335750505050505090565b6001908251612141816102ac565b603a81527f31323334353637383941424344454647484a4b4c4d4e50515253545556575859858201527f5a6162636465666768696a6b6d6e6f707172737475767778797a000000000000848201526001600160f81b0319906121b19060ff6121a9858a6105e0565b511690611f13565b5116861a6121bf828a611f13565b5301612123565b60405160026121d482610276565b6001908183526020368185013760218301825b6121f2575b50505090565b6000190190600a906f181899199a1a9b1b9c1cb0b131b232b360811b8282061a835304918215612224579190826121e7565b6121ec565b806000917a184f03e93ff9f4daa797ed6e38ed64bf6a1f0100000000000000008082101561235e575b506d04ee2d6d415b85acef81000000008083101561234f575b50662386f26fc1000080831015612340575b506305f5e10080831015612331575b5061271080831015612322575b506064821015612312575b600a80921015612308575b6001908160216122c0828701611d2e565b95860101905b6122d2575b5050505090565b600019019083906f181899199a1a9b1b9c1cb0b131b232b360811b8282061a835304918215612303579190826122c6565b6122cb565b91600101916122af565b91906064600291049101916122a4565b60049193920491019138612299565b6008919392049101913861228c565b6010919392049101913861227d565b6020919392049101913861226b565b60409350810491503861225256fea264697066735822122077eefa3927c509422c5fe5c9e9304376a705671b238ebf0bb3d802d79babbff264736f6c63430008110033",
    "linkReferences": {}
  },
  "methodIdentifiers": {
    "codeOrigin()": "1d153ca4",
    "delegate()": "c89e4361",
    "getUri(uint256)": "da0544aa",
    "initialize(address,string[])": "94e6f56f",
    "tierNameOf(uint256)": "1baabc3e"
  },
  "id": 4
}