{
  "abi": [
    {
      "inputs": [
        {
          "internalType": "contract ITypeface",
          "name": "_typeface",
          "type": "address"
        }
      ],
      "stateMutability": "nonpayable",
      "type": "constructor"
    },
    {
      "inputs": [
        {
          "internalType": "uint256",
          "name": "prod1",
          "type": "uint256"
        },
        {
          "internalType": "uint256",
          "name": "denominator",
          "type": "uint256"
        }
      ],
      "name": "PRBMath__MulDivOverflow",
      "type": "error"
    },
    {
      "inputs": [
        {
          "internalType": "address",
          "name": "_nft",
          "type": "address"
        },
        {
          "internalType": "uint256",
          "name": "_tokenId",
          "type": "uint256"
        }
      ],
      "name": "tokenUriOf",
      "outputs": [
        {
          "internalType": "string",
          "name": "",
          "type": "string"
        }
      ],
      "stateMutability": "view",
      "type": "function"
    },
    {
      "inputs": [],
      "name": "typeface",
      "outputs": [
        {
          "internalType": "contract ITypeface",
          "name": "",
          "type": "address"
        }
      ],
      "stateMutability": "view",
      "type": "function"
    }
  ],
  "bytecode": {
    "object": "0x60a03461007057601f61292b38819003918201601f19168301916001600160401b038311848410176100755780849260209460405283398101031261007057516001600160a01b03811681036100705760805260405161289f908161008c8239608051818181608d0152610d400152f35b600080fd5b634e487b7160e01b600052604160045260246000fdfe6080604052600436101561001257600080fd5b6000803560e01c80634d5a1d111461007a57635e703e711461003357600080fd5b346100775760403660031901126100775761007361005f600435610056816100bf565b6024359061086e565b6040519182916020835260208301906100f8565b0390f35b80fd5b50346100775780600319360112610077577f00000000000000000000000000000000000000000000000000000000000000006001600160a01b03166080908152602090f35b6001600160a01b038116036100d057565b600080fd5b60005b8381106100e85750506000910152565b81810151838201526020016100d8565b90602091610111815180928185528580860191016100d5565b601f01601f1916010190565b634e487b7160e01b600052604160045260246000fd5b6040810190811067ffffffffffffffff82111761014f57604052565b61011d565b6020810190811067ffffffffffffffff82111761014f57604052565b6060810190811067ffffffffffffffff82111761014f57604052565b90601f8019910116810190811067ffffffffffffffff82111761014f57604052565b908160209103126100d0575190565b6040513d6000823e3d90fd5b60405190610180820182811067ffffffffffffffff82111761014f57604052565b67ffffffffffffffff811161014f57601f01601f191660200190565b90929192610213816101ea565b91610221604051938461018c565b8294828452828201116100d057602061023b9301906100d5565b565b9080601f830112156100d057815161025792602001610206565b90565b906020828203126100d057815167ffffffffffffffff81116100d057610257920161023d565b67ffffffffffffffff811161014f5760051b60200190565b6040519060a0820182811067ffffffffffffffff82111761014f57604052600482528160005b608081106102ca575050565b8060606020809385010152016102be565b908160209103126100d05751610257816100bf565b519061023b826100bf565b519081151582036100d057565b6020818303126100d057805167ffffffffffffffff918282116100d05701610180818403126100d0576103396101c9565b92815184526020820151602085015260408201516040850152606082015160608501526080820151608085015260a082015160a085015261037c60c083016102f0565b60c085015260e082015160e085015261010080830151908501526101206103a48184016102fb565b908501526101406103b68184016102fb565b9085015261016092838301519081116100d0576103d3920161023d565b9082015290565b604051906103e782610154565b60008252565b604051906103fa82610133565b601d82527f646174613a6170706c69636174696f6e2f6a736f6e3b6261736536342c0000006020830152565b634e487b7160e01b600052603260045260246000fd5b8051156104495760200190565b610426565b8051600110156104495760400190565b8051600210156104495760600190565b8051600310156104495760800190565b80518210156104495760209160051b010190565b906104a5602092828151948592016100d5565b0190565b908160209103126100d0575160078110156100d05790565b908160609103126100d057805191604060208301516104df816100bf565b92015190565b634e487b7160e01b600052601160045260246000fd5b906002820180921161050957565b6104e5565b906020820180921161050957565b9190820180921161050957565b6007111561053357565b634e487b7160e01b600052602160045260246000fd5b6040519061055682610170565b602a82526934b6903932bbb0b9321760b11b6040837f53636f726563617264206c6f636b656420696e2e204275726e20746f20636c6160208201520152565b604051906105a282610133565b601c82527f4177616974696e672073636f72656361726420617070726f76616c2e000000006020830152565b604051906105db82610170565b602482526334b7339760e11b6040837f4d696e74696e67206973206f7665722e20526566756e64732061726520656e6460208201520152565b6040519061062182610133565b601d82527f4d696e74696e6720616e6420726566756e647320617265206f70656e2e0000006020830152565b6040519061065a82610133565b601482527326b4b73a34b7339039ba30b93a399039b7b7b71760611b6020830152565b6040519061068a82610170565b60248252633832b71760e11b6040837f4e6f20636f6e7465737420696e6576697461626c652e20526566756e6473206f60208201520152565b604051906106d082610133565b601982527f4e6f20636f6e746573742e20526566756e6473206f70656e2e000000000000006020830152565b9190820391821161050957565b6040519061071682610133565b601382527220636172647320696e206578697374656e636560681b6020830152565b6040519061074582610133565b6012825271206361726420696e206578697374656e636560701b6020830152565b6040519061077382610133565b600d82526c1031b0b932399039b7903330b960991b6020830152565b6040519061079c82610133565b600c82526b1031b0b9321039b7903330b960a11b6020830152565b908160209103126100d057610257906102fb565b604051906107d882610133565b601582527420bbb0b4ba34b7339039b1b7b932b1b0b93217171760591b6020830152565b661e17ba32bc3a1f60c91b815260070190565b6040519061081c82610133565b6002825261227d60f01b6020830152565b602061023b91939293604051948161084e87935180928680870191016100d5565b8201610862825180938680850191016100d5565b0103808552018361018c565b604051633fafa12760e01b8152906020826004816001600160a01b0385165afa9182156117e157600092611b56575b506040516306fdde0360e01b81529060009060609082846004816001600160a01b0385165afa9384156117e1578394611b3a575b506108da610298565b60405163975057e760e01b8152909690926020846004816001600160a01b0387165afa9384156117e1578594611b19575b5060405163c44a8e6d60e01b81526001600160a01b03848116600483015260248201849052600060448301529094869186916064918391165afa9384156117e1578594611af1575b508351604051630dd55e1f60e11b8152600481019190915290858280602481015b03816001600160a01b0388165afa9182156117e1578692611ad5575b5060e085018051611a6657506109a46103ed565b6109ad8a61043c565b526109b78961043c565b50610a13610ab083610aa2610a6a89610a0d610a58610a52610a296109e66109df8651612661565b9551612661565b94610a0d6040519b8c9a610a0d60208d01600990683d913730b6b2911d1160b91b81520190565b90610492565b691116101134b2111d101160b11b8152600a0190565b7f222c226465736372697074696f6e223a225465616d3a20000000000000000000815260170190565b8a610492565b650161024a21d160d51b815260060190565b7f2e222c22696d616765223a22646174613a696d6167652f7376672b786d6c3b62815265185cd94d8d0b60d21b602082015260260190565b03601f19810183528261018c565b610ab98a61044e565b52610ac38961044e565b5060405163282d924360e21b8152946020866004816001600160a01b0389165afa80156117e15789602091610b1a988a91611a49575b5060405180809a819463038ab08560e11b8352600483019190602083019252565b03916001600160a01b03165afa9586156117e1578796611a18575b50604051631c91760360e21b8152906020826004816001600160a01b038a165afa80156117e1578a8491610b94948b916119f9575b506040518080968194635a6fd84360e11b8352600483016020600091939293604081019481520152565b03916001600160a01b03165afa9081156117e1578889938a936119c4575b506040516327f6e97960e01b8152906020826004816001600160a01b038d165afa9081156117e157610beb928c926119a3575b5061051c565b90610bf7838584611f3e565b94610c018a610529565b60068a036119015750610c126106c3565b995b610c2760608301516040840151906106fc565b90610c318b610529565b60018b036118cb5750610c6d816001610c4c610a0d94612661565b91036118bb57610aa2610c5d61078f565b6040519485936020850190610492565b985b610c7881610529565b600381149081156118a7575b50156118925750604051634f228e1160e01b815260048101879052906020826024816001600160a01b038c165afa9182156117e157600092611871575b5060405163640abacd60e01b8152916020836004816001600160a01b038d165afa9182156117e157610cfb93600093611850575b506127a4565b604051635460afa560e11b81529092906020816004816001600160a01b038c165afa9081156117e157600091611821575b5061181357505050610d3c6107cb565b955b7f000000000000000000000000000000000000000000000000000000000000000097610d7b610d75610d6f8b6120f1565b9a61216b565b9a612661565b60405163975057e760e01b81529096906020816004816001600160a01b0386165afa9182156117e157610de1926020926000916117e6575b50604051630cf9530d60e41b81526001600160a01b0390921660048301529092839190829081906024820190565b03916001600160a01b03165afa80156117e157610e06916000916117b2575b50612661565b91610e19610e1383611bea565b92611cb9565b92610e2386611d58565b511515806117a0575b1561179257610e3a86611e96565b945b610e4587611d58565b516000901561175f5750610e7f610e5b88611df7565b975b610e6681611d58565b51600090156117375750610e7990611d58565b98612661565b986040519d8e9d60208f01610ede90603e907f3c7376672076696577426f783d2230203020353030203530302220786d6c6e7381527f3d22687474703a2f2f7777772e77332e6f72672f323030302f737667223e000060208201520190565b7f3c7374796c653e40666f6e742d666163657b666f6e742d66616d696c793a224381527f617073756c65732d353030223b7372633a75726c28646174613a666f6e742f7460208201527f727565747970653b636861727365743d7574662d383b6261736536342c0000006040820152605d01610f5991610492565b75293b666f726d617428226f70656e7479706522293b7d60501b81526016017f40666f6e742d666163657b666f6e742d66616d696c793a2243617073756c657381527f2d373030223b7372633a75726c28646174613a666f6e742f74727565747970656020820152750ed8da185c9cd95d0f5d5d198b4e0ed8985cd94d8d0b60521b6040820152605601610fec91610492565b75293b666f726d617428226f70656e7479706522293b7d60501b81526016017f746578747b77686974652d73706163653a7072652d777261703b20776964746881526f1d189818129d903e9e17b9ba3cb6329f60811b60208201526030017f3c726563742077696474683d223130302522206865696768743d223130302522815270103334b6361e9111989c189a191a11179f60791b60208201526031017f3c7465787420783d2231302220793d22333022207374796c653d22666f6e742d81527f73697a653a313670783b20666f6e742d66616d696c793a2043617073756c657360208201527f2d3530303b20666f6e742d7765696768743a3530303b2066696c6c3a2023633060408201526c03119b3189d911f23a0a6a29d1609d1b6060820152606d0161111b91610492565b670103e102827aa1d160c51b815260080161113591610492565b690103e1021a0a922299d160b51b8152600a0161115191610492565b61115a906107fc565b7f3c7465787420783d2231302220793d22353022207374796c653d22666f6e742d81527f73697a653a313670783b20666f6e742d66616d696c793a2043617073756c657360208201527f2d3530303b20666f6e742d7765696768743a3530303b2066696c6c3a2023656460408201526618189bb19d911f60c91b60608201526067016111e591610492565b6111ee906107fc565b7f3c7465787420783d2231302220793d22383522207374796c653d22666f6e742d81527f73697a653a323670783b20666f6e742d66616d696c793a2043617073756c657360208201527f2d3530303b20666f6e742d7765696768743a3530303b2066696c6c3a202363306040820152663119b3189d911f60c91b606082015260670161127991610492565b611282906107fc565b7f3c7465787420783d2231302220793d2231323022207374796c653d22666f6e7481527f2d73697a653a323670783b20666f6e742d66616d696c793a2043617073756c65602082015260008051602061284a833981519152604082015267183119b3189d911f60c11b60608201526068016112fc91610492565b611305906107fc565b7f3c7465787420783d2231302220793d2232303522207374796c653d22666f6e7481527f2d73697a653a383070783b20666f6e742d66616d696c793a2043617073756c6560208201527f732d3730303b20666f6e742d7765696768743a3730303b2066696c6c3a20236660408201526732b0991c191d911f60c11b606082015260680161139191610492565b61139a906107fc565b7f3c7465787420783d2231302220793d2232393522207374796c653d22666f6e7481527f2d73697a653a383070783b20666f6e742d66616d696c793a2043617073756c6560208201527f732d3730303b20666f6e742d7765696768743a3730303b2066696c6c3a20236660408201526732b0991c191d911f60c11b606082015260680161142691610492565b61142f906107fc565b7f3c7465787420783d2231302220793d2233383522207374796c653d22666f6e7481527f2d73697a653a383070783b20666f6e742d66616d696c793a2043617073756c6560208201527f732d3730303b20666f6e742d7765696768743a3730303b2066696c6c3a20236660408201526732b0991c191d911f60c11b60608201526068016114bb91610492565b6114c4906107fc565b7f3c7465787420783d2231302220793d2234333022207374796c653d22666f6e7481527f2d73697a653a313670783b20666f6e742d66616d696c793a2043617073756c65602082015260008051602061284a8339815191526040820152710183119b3189d911f2a27a5a2a71024a21d160751b606082015260720161154891610492565b611551906107fc565b7f3c7465787420783d2231302220793d2234353522207374796c653d22666f6e7481527f2d73697a653a313670783b20666f6e742d66616d696c793a2043617073756c65602082015260008051602061284a83398151915260408201526f0183119b3189d911f2920a924aa2c9d160851b60608201526070016115d391610492565b6115dc906107fc565b7f3c7465787420783d2231302220793d2234383022207374796c653d22666f6e7481527f2d73697a653a313670783b20666f6e742d66616d696c793a2043617073756c65602082015260008051602061284a8339815191526040820152720183119b3189d911f2120a1a5a2a210212c9d1606d1b606082015260730161166191610492565b61166a906107fc565b651e17b9bb339f60d11b815260060103601f198101825261168b908261018c565b61169490612256565b61169d8261045e565b526116a78161045e565b506116b061080f565b6116b98261046e565b526116c38161046e565b506116cd8161043c565b51906116d88161044e565b516116e28261045e565b51916116ed9061046e565b516040519283926020840161170191610492565b61170a91610492565b61171391610492565b03601f1981018252611725908261018c565b61172e90612256565b6102579161082d565b61174082611df7565b5115905061175157610e7990611df7565b61175a90611e96565b610e79565b61176888611df7565b5115905061178257610e7f61177c88611e96565b97610e5d565b610e7f61178d6103da565b61177c565b61179a6103da565b94610e3c565b506117aa86611df7565b511515610e2c565b6117d4915060203d6020116117da575b6117cc818361018c565b8101906101ae565b38610e00565b503d6117c2565b6101bd565b6118069150833d851161180c575b6117fe818361018c565b8101906102db565b38610db3565b503d6117f4565b61181c92611f3e565b610d3c565b611843915060203d602011611849575b61183b818361018c565b8101906107b7565b38610d2c565b503d611831565b61186a91935060203d6020116117da576117cc818361018c565b9138610cf5565b61188b91925060203d6020116117da576117cc818361018c565b9038610cc1565b6118a193915060200151611f3e565b95610d3e565b600491506118b481610529565b1438610c84565b610aa26118c6610766565b610c5d565b6118f0906001836118de610a0d95612661565b9250036118f657610aa2610c5d610738565b98610c6f565b610aa26118c6610709565b61190a8a610529565b60058a03611922575061191b61067d565b995b610c14565b61192b8a610529565b89611939575061191b61064d565b6119428a610529565b60018a03611953575061191b610614565b61195c8a610529565b60028a0361196d575061191b6105ce565b6119768a610529565b60038a03611987575061191b610595565b996119918a610529565b60048a0361191d57995061191b610549565b6119bd91925060203d6020116117da576117cc818361018c565b9038610be5565b919350506119e89150833d85116119f2575b6119e0818361018c565b8101906104c1565b9290929138610bb2565b503d6119d6565b611a12915060203d60201161180c576117fe818361018c565b38610b6a565b611a3b91965060203d602011611a42575b611a33818361018c565b8101906104a9565b9438610b35565b503d611a29565b611a609150833d851161180c576117fe818361018c565b38610af9565b604051636c0360eb60e01b81529699509597509495508794508693506004928492506001600160a01b031690505afa9182156117e157836102579493611ab0575b5050519061233a565b611acd9293503d8091833e611ac5818361018c565b81019061025a565b903880611aa7565b611aea9192503d8088833e611ac5818361018c565b9038610990565b610974919450611b12903d8088833e611b0a818361018c565b810190610308565b9390610953565b611b3391945060203d60201161180c576117fe818361018c565b923861090b565b611b4f9194503d8085833e611ac5818361018c565b92386108d1565b611b7091925060203d6020116117da576117cc818361018c565b903861089d565b8051601e101561044957603e0190565b8051601410156104495760340190565b8051600a101561044957602a0190565b908151811015610449570160200190565b90611bc2826101ea565b611bcf604051918261018c565b8281528092611be0601f19916101ea565b0190602036910137565b90601e825115611cae578251808211611ca6575b50600160fd1b6001600160f81b0319611c27611c198661043c565b516001600160f81b03191690565b161490600091600014611ca0576001915b81831015611c9357611c52611c4d84846106fc565b611bb8565b92805b838110611c655750929450505050565b80611c75611c196001938a611ba7565b611c8c611c8285846106fc565b91861a9188611ba7565b5301611c55565b50505090506102576103da565b81611c38565b905038611bfe565b5090506102576103da565b90603c8251601e1015611cae578251808211611d50575b50600160fd1b6001600160f81b0319611ceb611c1986611b77565b161490600091600014611d4857601f915b81831015611c9357611d11611c4d84846106fc565b92805b838110611d245750929450505050565b80611d34611c196001938a611ba7565b611d41611c8285846106fc565b5301611d14565b601e91611cfc565b905038611cd0565b90601e825160141015611cae578251808211611def575b50600160fd1b6001600160f81b0319611d8a611c1986611b87565b161490600091600014611de7576015915b81831015611c9357611db0611c4d84846106fc565b92805b838110611dc35750929450505050565b80611dd3611c196001938a611ba7565b611de0611c8285846106fc565b5301611db3565b601491611d9b565b905038611d6f565b9060148251600a1015611cae578251808211611e8e575b50600160fd1b6001600160f81b0319611e29611c1986611b97565b161490600091600014611e8657600b915b81831015611c9357611e4f611c4d84846106fc565b92805b838110611e625750929450505050565b80611e72611c196001938a611ba7565b611e7f611c8285846106fc565b5301611e52565b600a91611e3a565b905038611e0e565b90600a825115611cae578251808211611f28575b50600160fd1b6001600160f81b0319611ec5611c198661043c565b161490600091600014611f22576001915b81831015611c9357611eeb611c4d84846106fc565b92805b838110611efe5750929450505050565b80611f0e611c196001938a611ba7565b611f1b611c8285846106fc565b5301611eee565b81611ed6565b905038611eaa565b604d811161050957600a0a90565b6001600160a01b0390911691611f8490611f6f90611f5b90611f30565b611f7f611f7a82611f74611f6f8289612200565b612661565b966123f7565b612227565b612200565b600381511015611fb457604051600360fc1b602082015290611faf908290610aa29060218301610a0d565b611f84565b9160009061eeee8103611ff857505060405161674f60f11b602082015291610257918391610aa291610a0d90611feb906022860183565b601760f91b815260010190565b908060049392604051948580926395d89b4160e01b82525afa80156117e157611feb946102579483610aa29493612053575b5050612046610a0d91610a0d6040519889976020890190610492565b600160fd1b815260010190565b610a0d92935061204691612070913d8091833e611ac5818361018c565b929161202a565b6040519061208482610133565b60068252651b9bdc9b585b60d21b6020830152565b6020818303126100d05780519067ffffffffffffffff82116100d057019080601f830112156100d057815161025792602001610206565b606060206102579381845280518285015201519160408082015201906100f8565b6000612131916040519061210482610133565b6101f48252612111612077565b6020830152604051808095819463bf6519ad60e01b8352600483016120d0565b03916001600160a01b03165afa9081156117e157600091612150575090565b610257913d8091833e612163818361018c565b810190612099565b6000612131916040519061217e82610133565b6102bc8252612111612077565b6040519061219882610170565b604082527f6768696a6b6c6d6e6f707172737475767778797a303132333435363738392b2f6040837f4142434445464748494a4b4c4d4e4f505152535455565758595a61626364656660208201520152565b634e487b7160e01b600052601260045260246000fd5b811561220a570490565b6121ea565b600281901b91906001600160fe1b0381160361050957565b906103e89182810292818404149015171561050957565b60405161224a81610154565b60008152906000368137565b8051156123315761226561218b565b61228161227c61227584516104fb565b6003900490565b61220f565b9161228e611c4d8461050e565b92835280815182019060208501935b8282106122df575050506003905106806001146122ce576002146122bf575090565b603d60f81b6000199091015290565b50613d3d60f01b6001199091015290565b9091936004906003809401938451600190603f9082828260121c16880101518553828282600c1c16880101518386015382828260061c168801015160028601531685010151908201530193919061229d565b506102576103da565b9061025790612368604051602092609160f51b8483015260228201526022815261236381610170565b612401565b92604051938161238186935180928680870191016100d5565b8201612395825180938680850191016100d5565b0103808452018261018c565b604051906105e0820182811067ffffffffffffffff82111761014f57604052602e82526105c0366020840137565b906123d982610280565b6123e6604051918261018c565b8281528092611be0601f1991610280565b811561220a570690565b90815115612518576124116123a1565b916000908161241f8561043c565b5260019181519181925b80841061244f575050505061244561244a916102579394612522565b612565565b6125ac565b9091929461247261246c612466611c198987611ba7565b60f81c90565b60ff1690565b9184925b60ff90898289168610156124d757600192916124ab6124a561246c61249e8a6124b19661047e565b5160ff1690565b60081b90565b9061051c565b6124ce8b6124c688603a95868606169261047e565b9060ff169052565b04930192612476565b50919594935050809691965b6124f1575060010192612429565b9460ff6001603a9261250e83858b06166124c68d8685169061047e565b01169504806124e3565b905061025761223e565b9060ff80911690612532826123cf565b9260005b838110612544575050505090565b80836125526001938561047e565b511661255e828861047e565b5201612536565b908151612571816123cf565b9060005b818110612583575090925050565b60019060ff61259960001983895103018861047e565b51166125a5828661047e565b5201612575565b80516125b781611bb8565b91600090815b8381106125cb575050505090565b60019060407f5a6162636465666768696a6b6d6e6f707172737475767778797a0000000000008151916125fd83610170565b603a83527f31323334353637383941424344454647484a4b4c4d4e5051525354555657585960208401528201526001600160f81b03199061264c9060ff612644858861047e565b511690611ba7565b5116841a61265a8288611ba7565b53016125bd565b806000917a184f03e93ff9f4daa797ed6e38ed64bf6a1f01000000000000000080821015612796575b506d04ee2d6d415b85acef810000000080831015612787575b50662386f26fc1000080831015612778575b506305f5e10080831015612769575b506127108083101561275a575b50606482101561274a575b600a80921015612740575b6001908160216126f8828701611bb8565b95860101905b61270a575b5050505090565b600019019083906f181899199a1a9b1b9c1cb0b131b232b360811b8282061a83530491821561273b579190826126fe565b612703565b91600101916126e7565b91906064600291049101916126dc565b600491939204910191386126d1565b600891939204910191386126c4565b601091939204910191386126b5565b602091939204910191386126a3565b60409350810491503861268a565b9091600019838309928083029283808610950394808603951461283c578285101561281c57908291096001821901821680920460028082600302188083028203028083028203028083028203028083028203028083028203028092029003029360018380600003040190848311900302920304170290565b604051631dcf306360e21b81526004810186905260248101849052604490fd5b505090610257925061220056fe732d3530303b20666f6e742d7765696768743a3530303b2066696c6c3a202363a26469706673582212206e5dee11401ac59ba91b3442c6768a2d199ce6d5449819d06974f843f1fcf94f64736f6c63430008140033",
    "linkReferences": {}
  },
  "methodIdentifiers": {
    "tokenUriOf(address,uint256)": "5e703e71",
    "typeface()": "4d5a1d11"
  },
  "id": 5
}