{
  "abi": [
    {
      "inputs": [
        {
          "internalType": "contract IJBDirectory",
          "name": "_directory",
          "type": "address"
        }
      ],
      "stateMutability": "nonpayable",
      "type": "constructor"
    },
    {
      "inputs": [],
      "name": "CONTROLLER_UNAUTHORIZED",
      "type": "error"
    },
    {
      "inputs": [],
      "name": "INVALID_BALLOT",
      "type": "error"
    },
    {
      "inputs": [],
      "name": "INVALID_DISCOUNT_RATE",
      "type": "error"
    },
    {
      "inputs": [],
      "name": "INVALID_DURATION",
      "type": "error"
    },
    {
      "inputs": [],
      "name": "INVALID_TIMEFRAME",
      "type": "error"
    },
    {
      "inputs": [],
      "name": "INVALID_WEIGHT",
      "type": "error"
    },
    {
      "inputs": [],
      "name": "NO_SAME_BLOCK_RECONFIGURATION",
      "type": "error"
    },
    {
      "inputs": [
        {
          "internalType": "uint256",
          "name": "prod1",
          "type": "uint256"
        },
        {
          "internalType": "uint256",
          "name": "denominator",
          "type": "uint256"
        }
      ],
      "name": "PRBMath__MulDivOverflow",
      "type": "error"
    },
    {
      "anonymous": false,
      "inputs": [
        {
          "indexed": true,
          "internalType": "uint256",
          "name": "configuration",
          "type": "uint256"
        },
        {
          "indexed": true,
          "internalType": "uint256",
          "name": "projectId",
          "type": "uint256"
        },
        {
          "components": [
            {
              "internalType": "uint256",
              "name": "duration",
              "type": "uint256"
            },
            {
              "internalType": "uint256",
              "name": "weight",
              "type": "uint256"
            },
            {
              "internalType": "uint256",
              "name": "discountRate",
              "type": "uint256"
            },
            {
              "internalType": "contract IJBFundingCycleBallot",
              "name": "ballot",
              "type": "address"
            }
          ],
          "indexed": false,
          "internalType": "struct JBFundingCycleData",
          "name": "data",
          "type": "tuple"
        },
        {
          "indexed": false,
          "internalType": "uint256",
          "name": "metadata",
          "type": "uint256"
        },
        {
          "indexed": false,
          "internalType": "uint256",
          "name": "mustStartAtOrAfter",
          "type": "uint256"
        },
        {
          "indexed": false,
          "internalType": "address",
          "name": "caller",
          "type": "address"
        }
      ],
      "name": "Configure",
      "type": "event"
    },
    {
      "anonymous": false,
      "inputs": [
        {
          "indexed": true,
          "internalType": "uint256",
          "name": "configuration",
          "type": "uint256"
        },
        {
          "indexed": true,
          "internalType": "uint256",
          "name": "projectId",
          "type": "uint256"
        },
        {
          "indexed": true,
          "internalType": "uint256",
          "name": "basedOn",
          "type": "uint256"
        }
      ],
      "name": "Init",
      "type": "event"
    },
    {
      "inputs": [
        {
          "internalType": "uint256",
          "name": "_projectId",
          "type": "uint256"
        },
        {
          "components": [
            {
              "internalType": "uint256",
              "name": "duration",
              "type": "uint256"
            },
            {
              "internalType": "uint256",
              "name": "weight",
              "type": "uint256"
            },
            {
              "internalType": "uint256",
              "name": "discountRate",
              "type": "uint256"
            },
            {
              "internalType": "contract IJBFundingCycleBallot",
              "name": "ballot",
              "type": "address"
            }
          ],
          "internalType": "struct JBFundingCycleData",
          "name": "_data",
          "type": "tuple"
        },
        {
          "internalType": "uint256",
          "name": "_metadata",
          "type": "uint256"
        },
        {
          "internalType": "uint256",
          "name": "_mustStartAtOrAfter",
          "type": "uint256"
        }
      ],
      "name": "configureFor",
      "outputs": [
        {
          "components": [
            {
              "internalType": "uint256",
              "name": "number",
              "type": "uint256"
            },
            {
              "internalType": "uint256",
              "name": "configuration",
              "type": "uint256"
            },
            {
              "internalType": "uint256",
              "name": "basedOn",
              "type": "uint256"
            },
            {
              "internalType": "uint256",
              "name": "start",
              "type": "uint256"
            },
            {
              "internalType": "uint256",
              "name": "duration",
              "type": "uint256"
            },
            {
              "internalType": "uint256",
              "name": "weight",
              "type": "uint256"
            },
            {
              "internalType": "uint256",
              "name": "discountRate",
              "type": "uint256"
            },
            {
              "internalType": "contract IJBFundingCycleBallot",
              "name": "ballot",
              "type": "address"
            },
            {
              "internalType": "uint256",
              "name": "metadata",
              "type": "uint256"
            }
          ],
          "internalType": "struct JBFundingCycle",
          "name": "",
          "type": "tuple"
        }
      ],
      "stateMutability": "nonpayable",
      "type": "function"
    },
    {
      "inputs": [
        {
          "internalType": "uint256",
          "name": "_projectId",
          "type": "uint256"
        }
      ],
      "name": "currentBallotStateOf",
      "outputs": [
        {
          "internalType": "enum JBBallotState",
          "name": "",
          "type": "uint8"
        }
      ],
      "stateMutability": "view",
      "type": "function"
    },
    {
      "inputs": [
        {
          "internalType": "uint256",
          "name": "_projectId",
          "type": "uint256"
        }
      ],
      "name": "currentOf",
      "outputs": [
        {
          "components": [
            {
              "internalType": "uint256",
              "name": "number",
              "type": "uint256"
            },
            {
              "internalType": "uint256",
              "name": "configuration",
              "type": "uint256"
            },
            {
              "internalType": "uint256",
              "name": "basedOn",
              "type": "uint256"
            },
            {
              "internalType": "uint256",
              "name": "start",
              "type": "uint256"
            },
            {
              "internalType": "uint256",
              "name": "duration",
              "type": "uint256"
            },
            {
              "internalType": "uint256",
              "name": "weight",
              "type": "uint256"
            },
            {
              "internalType": "uint256",
              "name": "discountRate",
              "type": "uint256"
            },
            {
              "internalType": "contract IJBFundingCycleBallot",
              "name": "ballot",
              "type": "address"
            },
            {
              "internalType": "uint256",
              "name": "metadata",
              "type": "uint256"
            }
          ],
          "internalType": "struct JBFundingCycle",
          "name": "fundingCycle",
          "type": "tuple"
        }
      ],
      "stateMutability": "view",
      "type": "function"
    },
    {
      "inputs": [],
      "name": "directory",
      "outputs": [
        {
          "internalType": "contract IJBDirectory",
          "name": "",
          "type": "address"
        }
      ],
      "stateMutability": "view",
      "type": "function"
    },
    {
      "inputs": [
        {
          "internalType": "uint256",
          "name": "_projectId",
          "type": "uint256"
        },
        {
          "internalType": "uint256",
          "name": "_configuration",
          "type": "uint256"
        }
      ],
      "name": "get",
      "outputs": [
        {
          "components": [
            {
              "internalType": "uint256",
              "name": "number",
              "type": "uint256"
            },
            {
              "internalType": "uint256",
              "name": "configuration",
              "type": "uint256"
            },
            {
              "internalType": "uint256",
              "name": "basedOn",
              "type": "uint256"
            },
            {
              "internalType": "uint256",
              "name": "start",
              "type": "uint256"
            },
            {
              "internalType": "uint256",
              "name": "duration",
              "type": "uint256"
            },
            {
              "internalType": "uint256",
              "name": "weight",
              "type": "uint256"
            },
            {
              "internalType": "uint256",
              "name": "discountRate",
              "type": "uint256"
            },
            {
              "internalType": "contract IJBFundingCycleBallot",
              "name": "ballot",
              "type": "address"
            },
            {
              "internalType": "uint256",
              "name": "metadata",
              "type": "uint256"
            }
          ],
          "internalType": "struct JBFundingCycle",
          "name": "fundingCycle",
          "type": "tuple"
        }
      ],
      "stateMutability": "view",
      "type": "function"
    },
    {
      "inputs": [
        {
          "internalType": "uint256",
          "name": "",
          "type": "uint256"
        }
      ],
      "name": "latestConfigurationOf",
      "outputs": [
        {
          "internalType": "uint256",
          "name": "",
          "type": "uint256"
        }
      ],
      "stateMutability": "view",
      "type": "function"
    },
    {
      "inputs": [
        {
          "internalType": "uint256",
          "name": "_projectId",
          "type": "uint256"
        }
      ],
      "name": "latestConfiguredOf",
      "outputs": [
        {
          "components": [
            {
              "internalType": "uint256",
              "name": "number",
              "type": "uint256"
            },
            {
              "internalType": "uint256",
              "name": "configuration",
              "type": "uint256"
            },
            {
              "internalType": "uint256",
              "name": "basedOn",
              "type": "uint256"
            },
            {
              "internalType": "uint256",
              "name": "start",
              "type": "uint256"
            },
            {
              "internalType": "uint256",
              "name": "duration",
              "type": "uint256"
            },
            {
              "internalType": "uint256",
              "name": "weight",
              "type": "uint256"
            },
            {
              "internalType": "uint256",
              "name": "discountRate",
              "type": "uint256"
            },
            {
              "internalType": "contract IJBFundingCycleBallot",
              "name": "ballot",
              "type": "address"
            },
            {
              "internalType": "uint256",
              "name": "metadata",
              "type": "uint256"
            }
          ],
          "internalType": "struct JBFundingCycle",
          "name": "fundingCycle",
          "type": "tuple"
        },
        {
          "internalType": "enum JBBallotState",
          "name": "ballotState",
          "type": "uint8"
        }
      ],
      "stateMutability": "view",
      "type": "function"
    },
    {
      "inputs": [
        {
          "internalType": "uint256",
          "name": "_projectId",
          "type": "uint256"
        }
      ],
      "name": "queuedOf",
      "outputs": [
        {
          "components": [
            {
              "internalType": "uint256",
              "name": "number",
              "type": "uint256"
            },
            {
              "internalType": "uint256",
              "name": "configuration",
              "type": "uint256"
            },
            {
              "internalType": "uint256",
              "name": "basedOn",
              "type": "uint256"
            },
            {
              "internalType": "uint256",
              "name": "start",
              "type": "uint256"
            },
            {
              "internalType": "uint256",
              "name": "duration",
              "type": "uint256"
            },
            {
              "internalType": "uint256",
              "name": "weight",
              "type": "uint256"
            },
            {
              "internalType": "uint256",
              "name": "discountRate",
              "type": "uint256"
            },
            {
              "internalType": "contract IJBFundingCycleBallot",
              "name": "ballot",
              "type": "address"
            },
            {
              "internalType": "uint256",
              "name": "metadata",
              "type": "uint256"
            }
          ],
          "internalType": "struct JBFundingCycle",
          "name": "fundingCycle",
          "type": "tuple"
        }
      ],
      "stateMutability": "view",
      "type": "function"
    }
  ],
  "bytecode": {
    "object": "0x60a03461007157601f6111cb38819003918201601f19168301916001600160401b038311848410176100765780849260209460405283398101031261007157516001600160a01b03811681036100715760805260405161113e908161008d823960805181818161014c01526101d60152f35b600080fd5b634e487b7160e01b600052604160045260246000fdfe6080604081815260048036101561001557600080fd5b600092833560e01c9081632cee6deb1461054d5750806343a266c2146105295780635c55007814610505578063669e48aa146104d5578063a249d4251461017f578063c41c2f2414610137578063c55f571c146100ea5763ebc8ca1f1461007b57600080fd5b346100e65760203660031901126100e657816100d96100d06100ba61014096956100e49535966100a961064d565b508781526003602052205486610fc5565b9460208601516060870151908588015192610f17565b91518094610577565b6101208301906105d5565bf35b8280fd5b50346100e65760203660031901126100e65761012e60209361011b846100e494359283815260038852205482610fc5565b8581015185606083015192015192610f17565b915180926105d5565b50503461017b578160031936011261017b57517f00000000000000000000000000000000000000000000000000000000000000006001600160a01b03168152602090f35b5080fd5b50346100e65760e03660031901126100e65780359260803660231901126103155760a43560c435916101af61064d565b508451632eec7b5560e11b81528481018790526020946001600160a01b03929186816024817f000000000000000000000000000000000000000000000000000000000000000088165afa9081156104cb578391610495575b50833391160361048757846024359663ffffffff88116104775760643592633b9aca00841161046957604435926001600160581b03841161045a574211610452575b66ffffffffffffff61025b8a8a610914565b116104445785610269610937565b1661036f575b5061027c8783428d610952565b84610285610937565b1615801590610366575b801561035d575b610331575b85610318575b8851978852870152868601526084359182168092036103155750948361030c9382936101209860606100e4980152608083015260a08201523360c08201527f1175572e9e7787125bbb2c1175e626d6fa90191342319fa2c35d8bd194a8a1b660e04292a34290610fc5565b91518092610577565b80fd5b89845260028152888420428552815285898520556102a1565b8461033a610937565b168a855284825289852042865282528360c01b908960a01b17178985205561029b565b50821515610296565b5087151561028f565b99979695949392919084610381610937565b163b156104345784610391610937565b8b516301ffc9a760e01b8152637ba3dfb360e01b818f015291839183916024918391165afa8591816103f8575b506103d3578a51635401398160e01b81528c90fd5b9a9091929394959697989a156103ea57503861026f565b8951635401398160e01b8152fd5b9091508281813d831161042d575b610410818361062a565b81010312610429575180151581036104295790386103be565b8580fd5b503d610406565b8951635401398160e01b81528b90fd5b8951630ac6115360e41b8152fd5b429750610249565b50895163698f22ad60e01b8152fd5b8951632459513560e01b8152fd5b8851630c51c95b60e21b81528390fd5b8651632adfdd0560e21b8152fd5b90508681813d83116104c4575b6104ac818361062a565b810103126100e6575183811681036100e65738610207565b503d6104a2565b88513d85823e3d90fd5b509134610315578160031936011261031557506100e461030c610120936104fa61064d565b506024359035610fc5565b50913461031557602036600319011261031557506100e461030c6101209335610692565b50913461031557602036600319011261031557506100e461030c610120933561077f565b929190503461057357602036600319011261057357926020933581526003845220548152f35b8380fd5b805182526020810151602083015260408101516040830152606081015160608301526080810151608083015260a081015160a083015260c081015160c083015260018060a01b0360e08201511660e083015261010080910151910152565b9060038210156105e25752565b634e487b7160e01b600052602160045260246000fd5b61012081019081106001600160401b0382111761061457604052565b634e487b7160e01b600052604160045260246000fd5b601f909101601f19168101906001600160401b0382119082101761061457604052565b6040519061065a826105f8565b816101006000918281528260208201528260408201528260608201528260808201528260a08201528260c08201528260e08201520152565b61069a61064d565b5080600052600360205260406000205415610722576106b881610b9e565b8015610744576106c89082610fc5565b6106d28183610eef565b61073f5760406106e491015182610fc5565b905b608082015115610735576106fa8282610eef565b61072b57604061070c92015190610fc5565b6080810151156107225761071f90610cc5565b90565b5061071f61064d565b5061071f90610cc5565b505061071f61064d565b905090565b5080600052600360205261075d60406000205482610fc5565b9060608201514210156106e65790604061077991015182610fc5565b906106e6565b61078761064d565b5060009080825260036020526040908183205415610909576107a881610c1e565b6107b061064d565b5080156108bb576107c19082610fc5565b6107cb8183610eef565b6108b4578201515b80156108a8576107e291610fc5565b60808101928351156108a1576107f661064d565b50610802845142610b91565b906001820180921161088d57506108199082610d5e565b916108248383610eab565b9360208301519382840151915161083b8286610dec565b9160c08601519360018060a01b0360e08801511695610100809801519881519a6108648c6105f8565b8b5260208b01528901526060880152608087015260a086015260c085015260e084015282015290565b634e487b7160e01b81526011600452602490fd5b5091505090565b5050505061071f61064d565b9250505090565b50808352600360205281832054826108d38284610fc5565b6108dd8185610eef565b1580156108fc575b6108f1575b50506107d3565b0151905082386108ea565b50606081015142106108e5565b50505061071f61064d565b9190820180921161092157565b634e487b7160e01b600052601160045260246000fd5b6084356001600160a01b038116810361094d5790565b600080fd5b909392936000828152602090600382526040968782205415610a9f5761097785610c1e565b8015610a8e575b6109889086610fc5565b92886109948588610eef565b158015610a81575b610a6d575b50848185015114610a5c5760e08401516001600160a01b0316806109e35750506109d9969750815b50808211156109db575092610ab3565b565b905092610ab3565b90806004928b51938480926303ed69ad60e21b82525afa998a15610a5357508399610a1f575b5050610a196109d9979885610914565b916109c9565b90809950813d8311610a4c575b610a36818361062a565b8101031261017b57965196610a196109d9610a09565b503d610a2c565b513d85823e3d90fd5b885163215da85760e11b8152600490fd5b610a7a9194015186610fc5565b92886109a1565b506060850151421061099c565b50848252600383528782205461097e565b939150506109d9949550610ab161064d565b905b9260209294825115600014610b28578383015160581b1784600052600184526040600020866000528452600160c81b9160901b17176040600020555b8260005260038252836040600020550151917ff1bd4f3fcb4e0b193abc7e4002c0284e25086269a02de2e4c52045a91f647037600080a4565b90610b339083610d5e565b908015610b865760018103610b81575060005b610b508284610eab565b908484015160581b17908560005260018552604060002087600052855260c81b9160901b1717604060002055610aef565b610b46565b50610b818183610dec565b9190820391821161092157565b9081600052600360205260406000205491610bb98382610fc5565b9060608201918251421015610c15576001815114610c10576080916040610be292015190610fc5565b01518015159182610bfc575b5050610bf657565b60009150565b610c07925051610b91565b42103880610bee565b505050565b50600093505050565b806000526003602052610c3660406000205482610fc5565b60808101518015159081610cad575b50610ca6576060810151421015610c9d576040610c66910191825190610fc5565b60808101518015159182610c85575b5050610c7f575190565b50600090565b610c93925060600151610914565b4210153880610c75565b60209150015190565b5050600090565b610cbc91506060830151610914565b42101538610c45565b610ccd61064d565b506001420180421161092157610ce39082610d5e565b610ced8183610eab565b916020810151916040820151906080830151610d098285610dec565b9060c08501519260018060a01b0360e08701511694610100809701519760405199610d338b6105f8565b8a5260208a015260408901526060880152608087015260a086015260c085015260e084015282015290565b91909160808101908151908115610c1057906060610d7d920151610914565b83811015610ddd57610d8f9084610b91565b81518015610dc757610da5919492940682610b91565b925b838211610db2575050565b9092610dc090825190610914565b9290610da7565b634e487b7160e01b600052601260045260246000fd5b925050565b8115610dc7570490565b91909160808101805115610e855760a08201519360c0830192835115610e3457610e2792916060610e1f92015190610b91565b905190610de2565b600080925b828410610e3a575b50505050565b90919294815190633b9aca00918203918211610e715790610e5a9161107c565b948515610e6c57600101929190610e2c565b610e34565b634e487b7160e01b84526011600452602484fd5b5090915060c060a0820151910151633b9aca009081039081116109215761071f9161107c565b906080820190815115610ede5782610ece610ed892606061071f96015190610b91565b9051925190610de2565b90610914565b505051600181018091116109215790565b610f089160208101516040606083015192015192610f17565b60038110156105e25760011490565b91928015610fbc576001600160a01b039060e090610f359085610fc5565b0151168015610fbc576020926064916040519586948593637416790760e01b85526004850152602484015260448301525afa908115610fb057600091610f79575090565b6020813d8211610fa8575b81610f916020938361062a565b8101031261017b5751906003821015610315575090565b3d9150610f84565b6040513d6000823e3d90fd5b50505050600190565b919091610fd061064d565b9280156110785760209080828601526000918383526001815260409384842083855282528484205460018060581b03811660a089015266ffffffffffffff808260581c16878a01528160901c16606089015260c81c875280845283825284842083855282528484205460018060a01b03811660e089015263ffffffff90818160a01c1660808a015260c01c1660c0880152835260028152838320918352522054610100830152565b5050565b9190600019818409818402918280831092039180830392146110fb57633b9aca0090818310156110dd577f88f2cfb83100cb4e69e7c79c58b316e597157d372fb9787e8e47ce423a2e9c6d94950990828211900360f71b910360091c170290565b6044838360405191631dcf306360e21b835260048301526024820152fd5b5050633b9aca009004915056fea2646970667358221220f3845983e2779ef739f5f9ad6440cc80cc05753fab2c7c16ebc8bf92a6b9ac7f64736f6c63430008110033",
    "linkReferences": {}
  },
  "methodIdentifiers": {
    "configureFor(uint256,(uint256,uint256,uint256,address),uint256,uint256)": "a249d425",
    "currentBallotStateOf(uint256)": "c55f571c",
    "currentOf(uint256)": "43a266c2",
    "directory()": "c41c2f24",
    "get(uint256,uint256)": "669e48aa",
    "latestConfigurationOf(uint256)": "2cee6deb",
    "latestConfiguredOf(uint256)": "ebc8ca1f",
    "queuedOf(uint256)": "5c550078"
  },
  "id": 73
}