{
  "abi": [
    {
      "inputs": [
        {
          "internalType": "contract IJBDirectory",
          "name": "_directory",
          "type": "address"
        }
      ],
      "stateMutability": "nonpayable",
      "type": "constructor"
    },
    {
      "inputs": [],
      "name": "CONTROLLER_UNAUTHORIZED",
      "type": "error"
    },
    {
      "inputs": [],
      "name": "INVALID_BALLOT",
      "type": "error"
    },
    {
      "inputs": [],
      "name": "INVALID_DISCOUNT_RATE",
      "type": "error"
    },
    {
      "inputs": [],
      "name": "INVALID_DURATION",
      "type": "error"
    },
    {
      "inputs": [],
      "name": "INVALID_TIMEFRAME",
      "type": "error"
    },
    {
      "inputs": [],
      "name": "INVALID_WEIGHT",
      "type": "error"
    },
    {
      "inputs": [],
      "name": "NO_SAME_BLOCK_RECONFIGURATION",
      "type": "error"
    },
    {
      "inputs": [
        {
          "internalType": "uint256",
          "name": "prod1",
          "type": "uint256"
        },
        {
          "internalType": "uint256",
          "name": "denominator",
          "type": "uint256"
        }
      ],
      "name": "PRBMath__MulDivOverflow",
      "type": "error"
    },
    {
      "anonymous": false,
      "inputs": [
        {
          "indexed": true,
          "internalType": "uint256",
          "name": "configuration",
          "type": "uint256"
        },
        {
          "indexed": true,
          "internalType": "uint256",
          "name": "projectId",
          "type": "uint256"
        },
        {
          "components": [
            {
              "internalType": "uint256",
              "name": "duration",
              "type": "uint256"
            },
            {
              "internalType": "uint256",
              "name": "weight",
              "type": "uint256"
            },
            {
              "internalType": "uint256",
              "name": "discountRate",
              "type": "uint256"
            },
            {
              "internalType": "contract IJBFundingCycleBallot",
              "name": "ballot",
              "type": "address"
            }
          ],
          "indexed": false,
          "internalType": "struct JBFundingCycleData",
          "name": "data",
          "type": "tuple"
        },
        {
          "indexed": false,
          "internalType": "uint256",
          "name": "metadata",
          "type": "uint256"
        },
        {
          "indexed": false,
          "internalType": "uint256",
          "name": "mustStartAtOrAfter",
          "type": "uint256"
        },
        {
          "indexed": false,
          "internalType": "address",
          "name": "caller",
          "type": "address"
        }
      ],
      "name": "Configure",
      "type": "event"
    },
    {
      "anonymous": false,
      "inputs": [
        {
          "indexed": true,
          "internalType": "uint256",
          "name": "configuration",
          "type": "uint256"
        },
        {
          "indexed": true,
          "internalType": "uint256",
          "name": "projectId",
          "type": "uint256"
        },
        {
          "indexed": true,
          "internalType": "uint256",
          "name": "basedOn",
          "type": "uint256"
        }
      ],
      "name": "Init",
      "type": "event"
    },
    {
      "inputs": [
        {
          "internalType": "uint256",
          "name": "_projectId",
          "type": "uint256"
        },
        {
          "components": [
            {
              "internalType": "uint256",
              "name": "duration",
              "type": "uint256"
            },
            {
              "internalType": "uint256",
              "name": "weight",
              "type": "uint256"
            },
            {
              "internalType": "uint256",
              "name": "discountRate",
              "type": "uint256"
            },
            {
              "internalType": "contract IJBFundingCycleBallot",
              "name": "ballot",
              "type": "address"
            }
          ],
          "internalType": "struct JBFundingCycleData",
          "name": "_data",
          "type": "tuple"
        },
        {
          "internalType": "uint256",
          "name": "_metadata",
          "type": "uint256"
        },
        {
          "internalType": "uint256",
          "name": "_mustStartAtOrAfter",
          "type": "uint256"
        }
      ],
      "name": "configureFor",
      "outputs": [
        {
          "components": [
            {
              "internalType": "uint256",
              "name": "number",
              "type": "uint256"
            },
            {
              "internalType": "uint256",
              "name": "configuration",
              "type": "uint256"
            },
            {
              "internalType": "uint256",
              "name": "basedOn",
              "type": "uint256"
            },
            {
              "internalType": "uint256",
              "name": "start",
              "type": "uint256"
            },
            {
              "internalType": "uint256",
              "name": "duration",
              "type": "uint256"
            },
            {
              "internalType": "uint256",
              "name": "weight",
              "type": "uint256"
            },
            {
              "internalType": "uint256",
              "name": "discountRate",
              "type": "uint256"
            },
            {
              "internalType": "contract IJBFundingCycleBallot",
              "name": "ballot",
              "type": "address"
            },
            {
              "internalType": "uint256",
              "name": "metadata",
              "type": "uint256"
            }
          ],
          "internalType": "struct JBFundingCycle",
          "name": "",
          "type": "tuple"
        }
      ],
      "stateMutability": "nonpayable",
      "type": "function"
    },
    {
      "inputs": [
        {
          "internalType": "uint256",
          "name": "_projectId",
          "type": "uint256"
        }
      ],
      "name": "currentBallotStateOf",
      "outputs": [
        {
          "internalType": "enum JBBallotState",
          "name": "",
          "type": "uint8"
        }
      ],
      "stateMutability": "view",
      "type": "function"
    },
    {
      "inputs": [
        {
          "internalType": "uint256",
          "name": "_projectId",
          "type": "uint256"
        }
      ],
      "name": "currentOf",
      "outputs": [
        {
          "components": [
            {
              "internalType": "uint256",
              "name": "number",
              "type": "uint256"
            },
            {
              "internalType": "uint256",
              "name": "configuration",
              "type": "uint256"
            },
            {
              "internalType": "uint256",
              "name": "basedOn",
              "type": "uint256"
            },
            {
              "internalType": "uint256",
              "name": "start",
              "type": "uint256"
            },
            {
              "internalType": "uint256",
              "name": "duration",
              "type": "uint256"
            },
            {
              "internalType": "uint256",
              "name": "weight",
              "type": "uint256"
            },
            {
              "internalType": "uint256",
              "name": "discountRate",
              "type": "uint256"
            },
            {
              "internalType": "contract IJBFundingCycleBallot",
              "name": "ballot",
              "type": "address"
            },
            {
              "internalType": "uint256",
              "name": "metadata",
              "type": "uint256"
            }
          ],
          "internalType": "struct JBFundingCycle",
          "name": "fundingCycle",
          "type": "tuple"
        }
      ],
      "stateMutability": "view",
      "type": "function"
    },
    {
      "inputs": [],
      "name": "directory",
      "outputs": [
        {
          "internalType": "contract IJBDirectory",
          "name": "",
          "type": "address"
        }
      ],
      "stateMutability": "view",
      "type": "function"
    },
    {
      "inputs": [
        {
          "internalType": "uint256",
          "name": "_projectId",
          "type": "uint256"
        },
        {
          "internalType": "uint256",
          "name": "_configuration",
          "type": "uint256"
        }
      ],
      "name": "get",
      "outputs": [
        {
          "components": [
            {
              "internalType": "uint256",
              "name": "number",
              "type": "uint256"
            },
            {
              "internalType": "uint256",
              "name": "configuration",
              "type": "uint256"
            },
            {
              "internalType": "uint256",
              "name": "basedOn",
              "type": "uint256"
            },
            {
              "internalType": "uint256",
              "name": "start",
              "type": "uint256"
            },
            {
              "internalType": "uint256",
              "name": "duration",
              "type": "uint256"
            },
            {
              "internalType": "uint256",
              "name": "weight",
              "type": "uint256"
            },
            {
              "internalType": "uint256",
              "name": "discountRate",
              "type": "uint256"
            },
            {
              "internalType": "contract IJBFundingCycleBallot",
              "name": "ballot",
              "type": "address"
            },
            {
              "internalType": "uint256",
              "name": "metadata",
              "type": "uint256"
            }
          ],
          "internalType": "struct JBFundingCycle",
          "name": "fundingCycle",
          "type": "tuple"
        }
      ],
      "stateMutability": "view",
      "type": "function"
    },
    {
      "inputs": [
        {
          "internalType": "uint256",
          "name": "",
          "type": "uint256"
        }
      ],
      "name": "latestConfigurationOf",
      "outputs": [
        {
          "internalType": "uint256",
          "name": "",
          "type": "uint256"
        }
      ],
      "stateMutability": "view",
      "type": "function"
    },
    {
      "inputs": [
        {
          "internalType": "uint256",
          "name": "_projectId",
          "type": "uint256"
        }
      ],
      "name": "latestConfiguredOf",
      "outputs": [
        {
          "components": [
            {
              "internalType": "uint256",
              "name": "number",
              "type": "uint256"
            },
            {
              "internalType": "uint256",
              "name": "configuration",
              "type": "uint256"
            },
            {
              "internalType": "uint256",
              "name": "basedOn",
              "type": "uint256"
            },
            {
              "internalType": "uint256",
              "name": "start",
              "type": "uint256"
            },
            {
              "internalType": "uint256",
              "name": "duration",
              "type": "uint256"
            },
            {
              "internalType": "uint256",
              "name": "weight",
              "type": "uint256"
            },
            {
              "internalType": "uint256",
              "name": "discountRate",
              "type": "uint256"
            },
            {
              "internalType": "contract IJBFundingCycleBallot",
              "name": "ballot",
              "type": "address"
            },
            {
              "internalType": "uint256",
              "name": "metadata",
              "type": "uint256"
            }
          ],
          "internalType": "struct JBFundingCycle",
          "name": "fundingCycle",
          "type": "tuple"
        },
        {
          "internalType": "enum JBBallotState",
          "name": "ballotState",
          "type": "uint8"
        }
      ],
      "stateMutability": "view",
      "type": "function"
    },
    {
      "inputs": [
        {
          "internalType": "uint256",
          "name": "_projectId",
          "type": "uint256"
        }
      ],
      "name": "queuedOf",
      "outputs": [
        {
          "components": [
            {
              "internalType": "uint256",
              "name": "number",
              "type": "uint256"
            },
            {
              "internalType": "uint256",
              "name": "configuration",
              "type": "uint256"
            },
            {
              "internalType": "uint256",
              "name": "basedOn",
              "type": "uint256"
            },
            {
              "internalType": "uint256",
              "name": "start",
              "type": "uint256"
            },
            {
              "internalType": "uint256",
              "name": "duration",
              "type": "uint256"
            },
            {
              "internalType": "uint256",
              "name": "weight",
              "type": "uint256"
            },
            {
              "internalType": "uint256",
              "name": "discountRate",
              "type": "uint256"
            },
            {
              "internalType": "contract IJBFundingCycleBallot",
              "name": "ballot",
              "type": "address"
            },
            {
              "internalType": "uint256",
              "name": "metadata",
              "type": "uint256"
            }
          ],
          "internalType": "struct JBFundingCycle",
          "name": "fundingCycle",
          "type": "tuple"
        }
      ],
      "stateMutability": "view",
      "type": "function"
    }
  ],
  "bytecode": {
    "object": "0x60a03461007157601f6111d438819003918201601f19168301916001600160401b038311848410176100765780849260209460405283398101031261007157516001600160a01b038116810361007157608052604051611147908161008d823960805181818161014c01526101d60152f35b600080fd5b634e487b7160e01b600052604160045260246000fdfe6080604081815260048036101561001557600080fd5b600092833560e01c9081632cee6deb146105515750806343a266c21461052d5780635c55007814610509578063669e48aa146104d9578063a249d4251461017f578063c41c2f2414610137578063c55f571c146100ea5763ebc8ca1f1461007b57600080fd5b346100e65760203660031901126100e657816100d96100d06100ba61014096956100e49535966100a9610651565b508781526003602052205486610fc9565b9460208601516060870151908588015192610f1b565b9151809461057b565b6101208301906105d9565bf35b8280fd5b50346100e65760203660031901126100e65761012e60209361011b846100e494359283815260038852205482610fc9565b8581015185606083015192015192610f1b565b915180926105d9565b50503461017b578160031936011261017b57517f00000000000000000000000000000000000000000000000000000000000000006001600160a01b03168152602090f35b5080fd5b50346100e65760e03660031901126100e65780359260803660231901126103195760a43560c435916101af610651565b508451632eec7b5560e11b81528481018790526020946001600160a01b03929186816024817f000000000000000000000000000000000000000000000000000000000000000088165afa9081156104cf578391610499575b50833391160361048b57846024359663ffffffff881161047b5760643592633b9aca00841161046d57604435926affffffffffffffffffffff841161045e574211610456575b66ffffffffffffff61025f8a8a610918565b11610448578561026d61093b565b16610373575b506102808783428d610956565b8461028961093b565b161580159061036a575b8015610361575b610335575b8561031c575b885197885287015286860152608435918216809203610319575094836103109382936101209860606100e4980152608083015260a08201523360c08201527f1175572e9e7787125bbb2c1175e626d6fa90191342319fa2c35d8bd194a8a1b660e04292a34290610fc9565b9151809261057b565b80fd5b89845260028152888420428552815285898520556102a5565b8461033e61093b565b168a855284825289852042865282528360c01b908960a01b17178985205561029f565b5082151561029a565b50871515610293565b9997969594939291908461038561093b565b163b15610438578461039561093b565b8b516301ffc9a760e01b8152637ba3dfb360e01b818f015291839183916024918391165afa8591816103fc575b506103d7578a51635401398160e01b81528c90fd5b9a9091929394959697989a156103ee575038610273565b8951635401398160e01b8152fd5b9091508281813d8311610431575b610414818361062f565b8101031261042d5751801515810361042d5790386103c2565b8580fd5b503d61040a565b8951635401398160e01b81528b90fd5b8951630ac6115360e41b8152fd5b42975061024d565b50895163698f22ad60e01b8152fd5b8951632459513560e01b8152fd5b8851630c51c95b60e21b81528390fd5b8651632adfdd0560e21b8152fd5b90508681813d83116104c8575b6104b0818361062f565b810103126100e6575183811681036100e65738610207565b503d6104a6565b88513d85823e3d90fd5b509134610319578160031936011261031957506100e4610310610120936104fe610651565b506024359035610fc9565b50913461031957602036600319011261031957506100e46103106101209335610696565b50913461031957602036600319011261031957506100e46103106101209335610783565b929190503461057757602036600319011261057757926020933581526003845220548152f35b8380fd5b805182526020810151602083015260408101516040830152606081015160608301526080810151608083015260a081015160a083015260c081015160c083015260018060a01b0360e08201511660e083015261010080910151910152565b9060038210156105e65752565b634e487b7160e01b600052602160045260246000fd5b610120810190811067ffffffffffffffff82111761061957604052565b634e487b7160e01b600052604160045260246000fd5b90601f8019910116810190811067ffffffffffffffff82111761061957604052565b6040519061065e826105fc565b816101006000918281528260208201528260408201528260608201528260808201528260a08201528260c08201528260e08201520152565b61069e610651565b5080600052600360205260406000205415610726576106bc81610ba2565b8015610748576106cc9082610fc9565b6106d68183610ef3565b6107435760406106e891015182610fc9565b905b608082015115610739576106fe8282610ef3565b61072f57604061071092015190610fc9565b6080810151156107265761072390610cc9565b90565b50610723610651565b5061072390610cc9565b5050610723610651565b905090565b5080600052600360205261076160406000205482610fc9565b9060608201514210156106ea5790604061077d91015182610fc9565b906106ea565b61078b610651565b506000908082526003602052604090818320541561090d576107ac81610c22565b6107b4610651565b5080156108bf576107c59082610fc9565b6107cf8183610ef3565b6108b8578201515b80156108ac576107e691610fc9565b60808101928351156108a5576107fa610651565b50610806845142610b95565b9060018201809211610891575061081d9082610d62565b916108288383610eaf565b9360208301519382840151915161083f8286610df0565b9160c08601519360018060a01b0360e08801511695610100809801519881519a6108688c6105fc565b8b5260208b01528901526060880152608087015260a086015260c085015260e084015282015290565b634e487b7160e01b81526011600452602490fd5b5091505090565b50505050610723610651565b9250505090565b50808352600360205281832054826108d78284610fc9565b6108e18185610ef3565b158015610900575b6108f5575b50506107d7565b0151905082386108ee565b50606081015142106108e9565b505050610723610651565b9190820180921161092557565b634e487b7160e01b600052601160045260246000fd5b6084356001600160a01b03811681036109515790565b600080fd5b909392936000828152602090600382526040968782205415610aa35761097b85610c22565b8015610a92575b61098c9086610fc9565b92886109988588610ef3565b158015610a85575b610a71575b50848185015114610a605760e08401516001600160a01b0316806109e75750506109dd969750815b50808211156109df575092610ab7565b565b905092610ab7565b90806004928b51938480926303ed69ad60e21b82525afa998a15610a5757508399610a23575b5050610a1d6109dd979885610918565b916109cd565b90809950813d8311610a50575b610a3a818361062f565b8101031261017b57965196610a1d6109dd610a0d565b503d610a30565b513d85823e3d90fd5b885163215da85760e11b8152600490fd5b610a7e9194015186610fc9565b92886109a5565b50606085015142106109a0565b508482526003835287822054610982565b939150506109dd949550610ab5610651565b905b9260209294825115600014610b2c578383015160581b1784600052600184526040600020866000528452600160c81b9160901b17176040600020555b8260005260038252836040600020550151917ff1bd4f3fcb4e0b193abc7e4002c0284e25086269a02de2e4c52045a91f647037600080a4565b90610b379083610d62565b908015610b8a5760018103610b85575060005b610b548284610eaf565b908484015160581b17908560005260018552604060002087600052855260c81b9160901b1717604060002055610af3565b610b4a565b50610b858183610df0565b9190820391821161092557565b9081600052600360205260406000205491610bbd8382610fc9565b9060608201918251421015610c19576001815114610c14576080916040610be692015190610fc9565b01518015159182610c00575b5050610bfa57565b60009150565b610c0b925051610b95565b42103880610bf2565b505050565b50600093505050565b806000526003602052610c3a60406000205482610fc9565b60808101518015159081610cb1575b50610caa576060810151421015610ca1576040610c6a910191825190610fc9565b60808101518015159182610c89575b5050610c83575190565b50600090565b610c97925060600151610918565b4210153880610c79565b60209150015190565b5050600090565b610cc091506060830151610918565b42101538610c49565b610cd1610651565b506001420180421161092557610ce79082610d62565b610cf18183610eaf565b916020810151916040820151906080830151610d0d8285610df0565b9060c08501519260018060a01b0360e08701511694610100809701519760405199610d378b6105fc565b8a5260208a015260408901526060880152608087015260a086015260c085015260e084015282015290565b91909160808101908151908115610c1457906060610d81920151610918565b83811015610de157610d939084610b95565b81518015610dcb57610da9919492940682610b95565b925b838211610db6575050565b9092610dc490825190610918565b9290610dab565b634e487b7160e01b600052601260045260246000fd5b925050565b8115610dcb570490565b91909160808101805115610e895760a08201519360c0830192835115610e3857610e2b92916060610e2392015190610b95565b905190610de6565b600080925b828410610e3e575b50505050565b90919294815190633b9aca00918203918211610e755790610e5e91611085565b948515610e7057600101929190610e30565b610e38565b634e487b7160e01b84526011600452602484fd5b5090915060c060a0820151910151633b9aca009081039081116109255761072391611085565b906080820190815115610ee25782610ed2610edc92606061072396015190610b95565b9051925190610de6565b90610918565b505051600181018091116109255790565b610f0c9160208101516040606083015192015192610f1b565b60038110156105e65760011490565b91928015610fc0576001600160a01b039060e090610f399085610fc9565b0151168015610fc0576020926064916040519586948593637416790760e01b85526004850152602484015260448301525afa908115610fb457600091610f7d575090565b6020813d8211610fac575b81610f956020938361062f565b8101031261017b5751906003821015610319575090565b3d9150610f88565b6040513d6000823e3d90fd5b50505050600190565b919091610fd4610651565b928015611081576020908082860152600091838352600181526040938484208385528252848420546affffffffffffffffffffff811660a089015266ffffffffffffff808260581c16878a01528160901c16606089015260c81c875280845283825284842083855282528484205460018060a01b03811660e089015263ffffffff90818160a01c1660808a015260c01c1660c0880152835260028152838320918352522054610100830152565b5050565b91906000198184098184029182808310920391808303921461110457633b9aca0090818310156110e6577f88f2cfb83100cb4e69e7c79c58b316e597157d372fb9787e8e47ce423a2e9c6d94950990828211900360f71b910360091c170290565b6044838360405191631dcf306360e21b835260048301526024820152fd5b5050633b9aca009004915056fea2646970667358221220eef825e44b5e78e5ec9a03f16da652378c01ba31f5b111ebcde10541858cafb364736f6c63430008140033",
    "linkReferences": {}
  },
  "methodIdentifiers": {
    "configureFor(uint256,(uint256,uint256,uint256,address),uint256,uint256)": "a249d425",
    "currentBallotStateOf(uint256)": "c55f571c",
    "currentOf(uint256)": "43a266c2",
    "directory()": "c41c2f24",
    "get(uint256,uint256)": "669e48aa",
    "latestConfigurationOf(uint256)": "2cee6deb",
    "latestConfiguredOf(uint256)": "ebc8ca1f",
    "queuedOf(uint256)": "5c550078"
  },
  "id": 76
}