{
  "abi": [
    {
      "inputs": [
        {
          "internalType": "contract IJBDirectory",
          "name": "_directory",
          "type": "address"
        }
      ],
      "stateMutability": "nonpayable",
      "type": "constructor"
    },
    {
      "inputs": [],
      "name": "CONTROLLER_UNAUTHORIZED",
      "type": "error"
    },
    {
      "inputs": [],
      "name": "INVALID_BALLOT",
      "type": "error"
    },
    {
      "inputs": [],
      "name": "INVALID_DISCOUNT_RATE",
      "type": "error"
    },
    {
      "inputs": [],
      "name": "INVALID_DURATION",
      "type": "error"
    },
    {
      "inputs": [],
      "name": "INVALID_TIMEFRAME",
      "type": "error"
    },
    {
      "inputs": [],
      "name": "INVALID_WEIGHT",
      "type": "error"
    },
    {
      "inputs": [],
      "name": "NO_SAME_BLOCK_RECONFIGURATION",
      "type": "error"
    },
    {
      "inputs": [
        {
          "internalType": "uint256",
          "name": "prod1",
          "type": "uint256"
        },
        {
          "internalType": "uint256",
          "name": "denominator",
          "type": "uint256"
        }
      ],
      "name": "PRBMath__MulDivOverflow",
      "type": "error"
    },
    {
      "anonymous": false,
      "inputs": [
        {
          "indexed": true,
          "internalType": "uint256",
          "name": "configuration",
          "type": "uint256"
        },
        {
          "indexed": true,
          "internalType": "uint256",
          "name": "projectId",
          "type": "uint256"
        },
        {
          "components": [
            {
              "internalType": "uint256",
              "name": "duration",
              "type": "uint256"
            },
            {
              "internalType": "uint256",
              "name": "weight",
              "type": "uint256"
            },
            {
              "internalType": "uint256",
              "name": "discountRate",
              "type": "uint256"
            },
            {
              "internalType": "contract IJBFundingCycleBallot",
              "name": "ballot",
              "type": "address"
            }
          ],
          "indexed": false,
          "internalType": "struct JBFundingCycleData",
          "name": "data",
          "type": "tuple"
        },
        {
          "indexed": false,
          "internalType": "uint256",
          "name": "metadata",
          "type": "uint256"
        },
        {
          "indexed": false,
          "internalType": "uint256",
          "name": "mustStartAtOrAfter",
          "type": "uint256"
        },
        {
          "indexed": false,
          "internalType": "address",
          "name": "caller",
          "type": "address"
        }
      ],
      "name": "Configure",
      "type": "event"
    },
    {
      "anonymous": false,
      "inputs": [
        {
          "indexed": true,
          "internalType": "uint256",
          "name": "configuration",
          "type": "uint256"
        },
        {
          "indexed": true,
          "internalType": "uint256",
          "name": "projectId",
          "type": "uint256"
        },
        {
          "indexed": true,
          "internalType": "uint256",
          "name": "basedOn",
          "type": "uint256"
        }
      ],
      "name": "Init",
      "type": "event"
    },
    {
      "inputs": [
        {
          "internalType": "uint256",
          "name": "_projectId",
          "type": "uint256"
        },
        {
          "components": [
            {
              "internalType": "uint256",
              "name": "duration",
              "type": "uint256"
            },
            {
              "internalType": "uint256",
              "name": "weight",
              "type": "uint256"
            },
            {
              "internalType": "uint256",
              "name": "discountRate",
              "type": "uint256"
            },
            {
              "internalType": "contract IJBFundingCycleBallot",
              "name": "ballot",
              "type": "address"
            }
          ],
          "internalType": "struct JBFundingCycleData",
          "name": "_data",
          "type": "tuple"
        },
        {
          "internalType": "uint256",
          "name": "_metadata",
          "type": "uint256"
        },
        {
          "internalType": "uint256",
          "name": "_mustStartAtOrAfter",
          "type": "uint256"
        }
      ],
      "name": "configureFor",
      "outputs": [
        {
          "components": [
            {
              "internalType": "uint256",
              "name": "number",
              "type": "uint256"
            },
            {
              "internalType": "uint256",
              "name": "configuration",
              "type": "uint256"
            },
            {
              "internalType": "uint256",
              "name": "basedOn",
              "type": "uint256"
            },
            {
              "internalType": "uint256",
              "name": "start",
              "type": "uint256"
            },
            {
              "internalType": "uint256",
              "name": "duration",
              "type": "uint256"
            },
            {
              "internalType": "uint256",
              "name": "weight",
              "type": "uint256"
            },
            {
              "internalType": "uint256",
              "name": "discountRate",
              "type": "uint256"
            },
            {
              "internalType": "contract IJBFundingCycleBallot",
              "name": "ballot",
              "type": "address"
            },
            {
              "internalType": "uint256",
              "name": "metadata",
              "type": "uint256"
            }
          ],
          "internalType": "struct JBFundingCycle",
          "name": "",
          "type": "tuple"
        }
      ],
      "stateMutability": "nonpayable",
      "type": "function"
    },
    {
      "inputs": [
        {
          "internalType": "uint256",
          "name": "_projectId",
          "type": "uint256"
        }
      ],
      "name": "currentBallotStateOf",
      "outputs": [
        {
          "internalType": "enum JBBallotState",
          "name": "",
          "type": "uint8"
        }
      ],
      "stateMutability": "view",
      "type": "function"
    },
    {
      "inputs": [
        {
          "internalType": "uint256",
          "name": "_projectId",
          "type": "uint256"
        }
      ],
      "name": "currentOf",
      "outputs": [
        {
          "components": [
            {
              "internalType": "uint256",
              "name": "number",
              "type": "uint256"
            },
            {
              "internalType": "uint256",
              "name": "configuration",
              "type": "uint256"
            },
            {
              "internalType": "uint256",
              "name": "basedOn",
              "type": "uint256"
            },
            {
              "internalType": "uint256",
              "name": "start",
              "type": "uint256"
            },
            {
              "internalType": "uint256",
              "name": "duration",
              "type": "uint256"
            },
            {
              "internalType": "uint256",
              "name": "weight",
              "type": "uint256"
            },
            {
              "internalType": "uint256",
              "name": "discountRate",
              "type": "uint256"
            },
            {
              "internalType": "contract IJBFundingCycleBallot",
              "name": "ballot",
              "type": "address"
            },
            {
              "internalType": "uint256",
              "name": "metadata",
              "type": "uint256"
            }
          ],
          "internalType": "struct JBFundingCycle",
          "name": "fundingCycle",
          "type": "tuple"
        }
      ],
      "stateMutability": "view",
      "type": "function"
    },
    {
      "inputs": [],
      "name": "directory",
      "outputs": [
        {
          "internalType": "contract IJBDirectory",
          "name": "",
          "type": "address"
        }
      ],
      "stateMutability": "view",
      "type": "function"
    },
    {
      "inputs": [
        {
          "internalType": "uint256",
          "name": "_projectId",
          "type": "uint256"
        },
        {
          "internalType": "uint256",
          "name": "_configuration",
          "type": "uint256"
        }
      ],
      "name": "get",
      "outputs": [
        {
          "components": [
            {
              "internalType": "uint256",
              "name": "number",
              "type": "uint256"
            },
            {
              "internalType": "uint256",
              "name": "configuration",
              "type": "uint256"
            },
            {
              "internalType": "uint256",
              "name": "basedOn",
              "type": "uint256"
            },
            {
              "internalType": "uint256",
              "name": "start",
              "type": "uint256"
            },
            {
              "internalType": "uint256",
              "name": "duration",
              "type": "uint256"
            },
            {
              "internalType": "uint256",
              "name": "weight",
              "type": "uint256"
            },
            {
              "internalType": "uint256",
              "name": "discountRate",
              "type": "uint256"
            },
            {
              "internalType": "contract IJBFundingCycleBallot",
              "name": "ballot",
              "type": "address"
            },
            {
              "internalType": "uint256",
              "name": "metadata",
              "type": "uint256"
            }
          ],
          "internalType": "struct JBFundingCycle",
          "name": "fundingCycle",
          "type": "tuple"
        }
      ],
      "stateMutability": "view",
      "type": "function"
    },
    {
      "inputs": [
        {
          "internalType": "uint256",
          "name": "",
          "type": "uint256"
        }
      ],
      "name": "latestConfigurationOf",
      "outputs": [
        {
          "internalType": "uint256",
          "name": "",
          "type": "uint256"
        }
      ],
      "stateMutability": "view",
      "type": "function"
    },
    {
      "inputs": [
        {
          "internalType": "uint256",
          "name": "_projectId",
          "type": "uint256"
        }
      ],
      "name": "latestConfiguredOf",
      "outputs": [
        {
          "components": [
            {
              "internalType": "uint256",
              "name": "number",
              "type": "uint256"
            },
            {
              "internalType": "uint256",
              "name": "configuration",
              "type": "uint256"
            },
            {
              "internalType": "uint256",
              "name": "basedOn",
              "type": "uint256"
            },
            {
              "internalType": "uint256",
              "name": "start",
              "type": "uint256"
            },
            {
              "internalType": "uint256",
              "name": "duration",
              "type": "uint256"
            },
            {
              "internalType": "uint256",
              "name": "weight",
              "type": "uint256"
            },
            {
              "internalType": "uint256",
              "name": "discountRate",
              "type": "uint256"
            },
            {
              "internalType": "contract IJBFundingCycleBallot",
              "name": "ballot",
              "type": "address"
            },
            {
              "internalType": "uint256",
              "name": "metadata",
              "type": "uint256"
            }
          ],
          "internalType": "struct JBFundingCycle",
          "name": "fundingCycle",
          "type": "tuple"
        },
        {
          "internalType": "enum JBBallotState",
          "name": "ballotState",
          "type": "uint8"
        }
      ],
      "stateMutability": "view",
      "type": "function"
    },
    {
      "inputs": [
        {
          "internalType": "uint256",
          "name": "_projectId",
          "type": "uint256"
        }
      ],
      "name": "queuedOf",
      "outputs": [
        {
          "components": [
            {
              "internalType": "uint256",
              "name": "number",
              "type": "uint256"
            },
            {
              "internalType": "uint256",
              "name": "configuration",
              "type": "uint256"
            },
            {
              "internalType": "uint256",
              "name": "basedOn",
              "type": "uint256"
            },
            {
              "internalType": "uint256",
              "name": "start",
              "type": "uint256"
            },
            {
              "internalType": "uint256",
              "name": "duration",
              "type": "uint256"
            },
            {
              "internalType": "uint256",
              "name": "weight",
              "type": "uint256"
            },
            {
              "internalType": "uint256",
              "name": "discountRate",
              "type": "uint256"
            },
            {
              "internalType": "contract IJBFundingCycleBallot",
              "name": "ballot",
              "type": "address"
            },
            {
              "internalType": "uint256",
              "name": "metadata",
              "type": "uint256"
            }
          ],
          "internalType": "struct JBFundingCycle",
          "name": "fundingCycle",
          "type": "tuple"
        }
      ],
      "stateMutability": "view",
      "type": "function"
    }
  ],
  "bytecode": {
    "object": "0x60a03461007157601f6113c338819003918201601f19168301916001600160401b038311848410176100765780849260209460405283398101031261007157516001600160a01b038116810361007157608052604051611336908161008d82396080518181816101b101526102670152f35b600080fd5b634e487b7160e01b600052604160045260246000fdfe6080604081815260048036101561001557600080fd5b600092833560e01c9081632cee6deb146106e65750806343a266c2146106c25780635c5500781461069e578063669e48aa1461066e578063a249d425146101d9578063c41c2f2414610191578063c55f571c146101445763ebc8ca1f1461007b57600080fd5b3461014057602060031936011261014057816101336100d06100ba610140969561013e9535966100a96107a7565b508781526003602052205486611180565b94602086015160608701519085880151926110bb565b91518094805182526020810151602083015260408101516040830152606081015160608301526080810151608083015260a081015160a083015260c081015160c08301526001600160a01b0360e08201511660e083015261010080910151910152565b610120830190610710565bf35b8280fd5b5034610140576020600319360112610140576101886020936101758461013e94359283815260038852205482611180565b85810151856060830151920151926110bb565b91518092610710565b5050346101d557816003193601126101d557602090516001600160a01b037f0000000000000000000000000000000000000000000000000000000000000000168152f35b5080fd5b50346101405760e06003193601126101405780359260807fffffffffffffffffffffffffffffffffffffffffffffffffffffffffffffffdc3601126104035760a43560c435916102276107a7565b508451907f5dd8f6aa00000000000000000000000000000000000000000000000000000000825286858301526020946001600160a01b03928681602481877f0000000000000000000000000000000000000000000000000000000000000000165afa90811561066457839161062e575b50833391160361060757846024359663ffffffff88116105df5760643592633b9aca0084116105b857604435926affffffffffffffffffffff8411610590574211610588575b66ffffffffffffff6102ef8a8a610a6f565b1161056157856102fd610a92565b1661045d575b506103108783428d610aad565b84610319610a92565b1615801590610454575b801561044b575b61041f575b85610406575b885197885287015286860152608435918216809203610403575094836103a093829361012098606061013e980152608083015260a08201523360c08201527f1175572e9e7787125bbb2c1175e626d6fa90191342319fa2c35d8bd194a8a1b660e04292a34290611180565b91518092805182526020810151602083015260408101516040830152606081015160608301526080810151608083015260a081015160a083015260c081015160c08301526001600160a01b0360e08201511660e083015261010080910151910152565b80fd5b8984526002815288842042855281528589852055610335565b84610428610a92565b168a855284825289852042865282528360c01b908960a01b17178985205561032f565b5082151561032a565b50871515610323565b999796959493929190898b86610471610a92565b163b15610553577f7ba3dfb30000000000000000000000000000000000000000000000000000000060248492896104a6610a92565b16945194859384927f01ffc9a70000000000000000000000000000000000000000000000000000000084528301525afa859181610517575b506104f2578b8b51635401398160e01b8152fd5b9a9091929394959697989a15610509575038610303565b8951635401398160e01b8152fd5b9091508281813d831161054c575b61052f8183610766565b81010312610548575180151581036105485790386104de565b8580fd5b503d610525565b9051635401398160e01b8152fd5b89517fac611530000000000000000000000000000000000000000000000000000000008152fd5b4297506102dd565b5089517f698f22ad000000000000000000000000000000000000000000000000000000008152fd5b89517f24595135000000000000000000000000000000000000000000000000000000008152fd5b8289517f3147256c000000000000000000000000000000000000000000000000000000008152fd5b86517fab7f7414000000000000000000000000000000000000000000000000000000008152fd5b90508681813d831161065d575b6106458183610766565b81010312610140575183811681036101405738610297565b503d61063b565b88513d85823e3d90fd5b5091346104035781600319360112610403575061013e6103a0610120936106936107a7565b506024359035611180565b509134610403576020600319360112610403575061013e6103a061012093356107ec565b509134610403576020600319360112610403575061013e6103a061012093356108d9565b929190503461070c57602060031936011261070c57926020933581526003845220548152f35b8380fd5b90600382101561071d5752565b634e487b7160e01b600052602160045260246000fd5b610120810190811067ffffffffffffffff82111761075057604052565b634e487b7160e01b600052604160045260246000fd5b90601f7fffffffffffffffffffffffffffffffffffffffffffffffffffffffffffffffe0910116810190811067ffffffffffffffff82111761075057604052565b604051906107b482610733565b816101006000918281528260208201528260408201528260608201528260808201528260a08201528260c08201528260e08201520152565b6107f46107a7565b508060005260036020526040600020541561087c5761081281610d41565b801561089e576108229082611180565b61082c8183611093565b61089957604061083e91015182611180565b905b60808201511561088f576108548282611093565b61088557604061086692015190611180565b60808101511561087c5761087990610e68565b90565b506108796107a7565b5061087990610e68565b50506108796107a7565b905090565b508060005260036020526108b760406000205482611180565b906060820151421015610840579060406108d391015182611180565b90610840565b6108e16107a7565b5060009080825260036020526040908183205415610a645761090281610dc1565b61090a6107a7565b508015610a165761091b9082611180565b6109258183611093565b610a0f578201515b8015610a035761093c91611180565b60808101928351156109fc576109506107a7565b5061095c845142610d34565b90600182018092116109e857506109739082610f02565b9161097e838361104f565b936020830151938284015191516109958286610f90565b9160c0860151936001600160a01b0360e08801511695610100809801519881519a6109bf8c610733565b8b5260208b01528901526060880152608087015260a086015260c085015260e084015282015290565b80634e487b7160e01b602492526011600452fd5b5091505090565b505050506108796107a7565b9250505090565b5080835260036020528183205482610a2e8284611180565b610a388185611093565b158015610a57575b610a4c575b505061092d565b015190508238610a45565b5060608101514210610a40565b5050506108796107a7565b91908201809211610a7c57565b634e487b7160e01b600052601160045260246000fd5b6084356001600160a01b0381168103610aa85790565b600080fd5b909392936000828152602090600382526040968782205415610c2b57610ad285610dc1565b8015610c1a575b610ae39086611180565b9288610aef8588611093565b158015610c0d575b610bf9575b50848185015114610bd05760e08401516001600160a01b031680610b3e575050610b34969750815b5080821115610b36575092610c3f565b565b905092610c3f565b90806004928b51938480927f0fb5a6b40000000000000000000000000000000000000000000000000000000082525afa998a15610bc757508399610b93575b5050610b8d610b34979885610a6f565b91610b24565b90809950813d8311610bc0575b610baa8183610766565b810103126101d557965196610b8d610b34610b7d565b503d610ba0565b513d85823e3d90fd5b600489517f42bb50ae000000000000000000000000000000000000000000000000000000008152fd5b610c069194015186611180565b9288610afc565b5060608501514210610af7565b508482526003835287822054610ad9565b93915050610b34949550610c3d6107a7565b905b929360209294825115600014610ccc57790100000000000000000000000000000000000000000000000000918484015160581b17908560005260018552604060002087600052855260901b17176040600020555b8260005260038252836040600020550151917ff1bd4f3fcb4e0b193abc7e4002c0284e25086269a02de2e4c52045a91f647037600080a4565b610cd69083610f02565b908015610d295760018103610d24575060005b610cf3828461104f565b908484015160581b17908560005260018552604060002087600052855260c81b9160901b1717604060002055610c93565b610ce9565b50610d248183610f90565b91908203918211610a7c57565b9081600052600360205260406000205491610d5c8382611180565b9060608201918251421015610db8576001815114610db3576080916040610d8592015190611180565b01518015159182610d9f575b5050610d9957565b60009150565b610daa925051610d34565b42103880610d91565b505050565b50600093505050565b806000526003602052610dd960406000205482611180565b60808101518015159081610e50575b50610e49576060810151421015610e40576040610e09910191825190611180565b60808101518015159182610e28575b5050610e22575190565b50600090565b610e36925060600151610a6f565b4210153880610e18565b60209150015190565b5050600090565b610e5f91506060830151610a6f565b42101538610de8565b610e706107a7565b5060014201804211610a7c57610e869082610f02565b610e90818361104f565b916020810151916040820151906080830151610eac8285610f90565b9060c0850151926001600160a01b0360e08701511694610100809701519760405199610ed78b610733565b8a5260208a015260408901526060880152608087015260a086015260c085015260e084015282015290565b91909160808101908151908115610db357906060610f21920151610a6f565b83811015610f8157610f339084610d34565b81518015610f6b57610f49919492940682610d34565b925b838211610f56575050565b9092610f6490825190610a6f565b9290610f4b565b634e487b7160e01b600052601260045260246000fd5b925050565b8115610f6b570490565b919091608081018051156110295760a08201519360c0830192835115610fd857610fcb92916060610fc392015190610d34565b905190610f86565b600080925b828410610fde575b50505050565b90919294815190633b9aca009182039182116110155790610ffe9161123d565b94851561101057600101929190610fd0565b610fd8565b602484634e487b7160e01b81526011600452fd5b5090915060c060a0820151910151633b9aca00908103908111610a7c576108799161123d565b906080820190815115611082578261107261107c92606061087996015190610d34565b9051925190610f86565b90610a6f565b50505160018101809111610a7c5790565b6110ac91602081015160406060830151920151926110bb565b600381101561071d5760011490565b919280156111775760e06110d76001600160a01b039285611180565b01511680156111775760209260649160405195869485937f741679070000000000000000000000000000000000000000000000000000000085526004850152602484015260448301525afa90811561116b57600091611134575090565b6020813d8211611163575b8161114c60209383610766565b810103126101d55751906003821015610403575090565b3d915061113f565b6040513d6000823e3d90fd5b50505050600190565b91909161118b6107a7565b928015611239576020908082860152600091838352600181526040938484208385528252848420546affffffffffffffffffffff811660a089015266ffffffffffffff808260581c16878a01528160901c16606089015260c81c87528084528382528484208385528252848420546001600160a01b03811660e089015263ffffffff90818160a01c1660808a015260c01c1660c0880152835260028152838320918352522054610100830152565b5050565b91907fffffffffffffffffffffffffffffffffffffffffffffffffffffffffffffffff818409818402918280831092039180830392146112f357633b9aca0090818310156112bc577f88f2cfb83100cb4e69e7c79c58b316e597157d372fb9787e8e47ce423a2e9c6d94950990828211900360f71b910360091c170290565b60448383604051917f773cc18c00000000000000000000000000000000000000000000000000000000835260048301526024820152fd5b5050633b9aca009004915056fea264697066735822122056f236be9178b8dbf0077487d8fe48a97d8f30becc11ec853ba29c838670f3e564736f6c63430008140033",
    "linkReferences": {}
  },
  "methodIdentifiers": {
    "configureFor(uint256,(uint256,uint256,uint256,address),uint256,uint256)": "a249d425",
    "currentBallotStateOf(uint256)": "c55f571c",
    "currentOf(uint256)": "43a266c2",
    "directory()": "c41c2f24",
    "get(uint256,uint256)": "669e48aa",
    "latestConfigurationOf(uint256)": "2cee6deb",
    "latestConfiguredOf(uint256)": "ebc8ca1f",
    "queuedOf(uint256)": "5c550078"
  },
  "id": 71
}