{
  "abi": [
    {
      "inputs": [
        {
          "internalType": "contract ITypeface",
          "name": "_typeface",
          "type": "address"
        }
      ],
      "stateMutability": "nonpayable",
      "type": "constructor"
    },
    {
      "inputs": [],
      "name": "BUFFER_SIZE",
      "outputs": [
        {
          "internalType": "uint256",
          "name": "",
          "type": "uint256"
        }
      ],
      "stateMutability": "view",
      "type": "function"
    },
    {
      "inputs": [],
      "name": "codeOrigin",
      "outputs": [
        {
          "internalType": "address",
          "name": "",
          "type": "address"
        }
      ],
      "stateMutability": "view",
      "type": "function"
    },
    {
      "inputs": [],
      "name": "delegate",
      "outputs": [
        {
          "internalType": "contract IDefifaDelegate",
          "name": "",
          "type": "address"
        }
      ],
      "stateMutability": "view",
      "type": "function"
    },
    {
      "inputs": [
        {
          "internalType": "uint256",
          "name": "_tokenId",
          "type": "uint256"
        }
      ],
      "name": "getUri",
      "outputs": [
        {
          "internalType": "string",
          "name": "",
          "type": "string"
        }
      ],
      "stateMutability": "view",
      "type": "function"
    },
    {
      "inputs": [
        {
          "internalType": "contract IDefifaDelegate",
          "name": "_delegate",
          "type": "address"
        },
        {
          "internalType": "string[]",
          "name": "_tierNames",
          "type": "string[]"
        }
      ],
      "name": "initialize",
      "outputs": [],
      "stateMutability": "nonpayable",
      "type": "function"
    },
    {
      "inputs": [
        {
          "internalType": "uint256",
          "name": "_tierId",
          "type": "uint256"
        }
      ],
      "name": "tierNameOf",
      "outputs": [
        {
          "internalType": "string",
          "name": "",
          "type": "string"
        }
      ],
      "stateMutability": "view",
      "type": "function"
    },
    {
      "inputs": [],
      "name": "typeface",
      "outputs": [
        {
          "internalType": "contract ITypeface",
          "name": "",
          "type": "address"
        }
      ],
      "stateMutability": "view",
      "type": "function"
    }
  ],
  "bytecode": {
    "object": "0x60a0346200008e57601f62003b2538819003918201601f19168301916001600160401b0383118484101762000093578084926020946040528339810103126200008e57516001600160a01b038116908190036200008e5730608052600280546001600160a01b031916919091179055604051613a7b9081620000aa823960805181818161020301526127970152f35b600080fd5b634e487b7160e01b600052604160045260246000fdfe6080604052600436101561001257600080fd5b6000803560e01c9081624e394e14610089575080631baabc3e146100845780631d153ca41461007f5780634d5a1d111461007a57806394e6f56f14610075578063c89e4361146100705763da0544aa1461006b57600080fd5b610496565b61046f565b610383565b610227565b6101e3565b61011c565b346100a657806003193601126100a657620f424060805260206080f35b80fd5b60031960209101126100bb5760043590565b600080fd5b60005b8381106100d35750506000910152565b81810151838201526020016100c3565b90601f19601f602093610101815180928187528780880191016100c0565b0116010190565b9060206101199281815201906100e3565b90565b346100bb5761012a366100a9565b600090815260208181526040822090604051918381549061014a826125a6565b808652926001928084169081156101bf5750600114610184575b61018086610174818a03826102ea565b60405191829182610108565b0390f35b9080949650528483205b8284106101ac57505050816101809361017492820101933880610164565b805485850187015292850192810161018e565b60ff19168787015250505050151560051b8201019150610174816101803880610164565b346100bb5760006003193601126100bb5760206040516001600160a01b037f0000000000000000000000000000000000000000000000000000000000000000168152f35b346100bb5760006003193601126100bb5760206001600160a01b0360025416604051908152f35b6001600160a01b038116036100bb57565b634e487b7160e01b600052604160045260246000fd5b60e0810190811067ffffffffffffffff82111761029157604052565b61025f565b6020810190811067ffffffffffffffff82111761029157604052565b6040810190811067ffffffffffffffff82111761029157604052565b6060810190811067ffffffffffffffff82111761029157604052565b90601f601f19910116810190811067ffffffffffffffff82111761029157604052565b60405190610180820182811067ffffffffffffffff82111761029157604052565b60405190610120820182811067ffffffffffffffff82111761029157604052565b67ffffffffffffffff81116102915760051b60200190565b67ffffffffffffffff811161029157601f01601f191660200190565b346100bb576040806003193601126100bb57600435906103a28261024e565b602491823567ffffffffffffffff938482116100bb57366023830112156100bb5781600401356103d18161034f565b946103de815196876102ea565b818652602096838888019360051b860101943686116100bb57848101935b86851061040f5761040d898961278c565b005b84358381116100bb57820190366043830112156100bb57868201359061043482610367565b610440875191826102ea565b828152604493368585830101116100bb578d8481969582966000940183860137830101528152019401936103fc565b346100bb5760006003193601126100bb5760206001600160a01b0360015416604051908152f35b346100bb576104a4366100a9565b6104c56104b96001546001600160a01b031690565b6001600160a01b031690565b6040517f975057e7000000000000000000000000000000000000000000000000000000008152602081600481855afa90811561225d57600091612587575b50600060405180927fc44a8e6d000000000000000000000000000000000000000000000000000000008252816001600160a01b038161056289896004840160409060009294936001600160a01b03606083019616825260208201520152565b0392165afa90811561225d57600091612566575b5061057f612a4e565b926105898461269d565b51610592612adf565b90526105aa60606105a28661269d565b510160029052565b6105d360206105b88661269d565b510173fc7453da7bf4d0c739c1c53da57b3636dab0e11e9052565b6105dc846126af565b516105e5612b18565b90526105fd60606105f5866126af565b510160019052565b61060b60206105b8866126af565b6000936040517f06fdde030000000000000000000000000000000000000000000000000000000081528581600481885afa95861561225d578096612549575b505061066961066484516000526000602052604060002090565b6125e0565b93602386511060001461253c5761067e612bb0565b855160038110156124a05750610692612c22565b915b6040517f557e7155000000000000000000000000000000000000000000000000000000008152602081600481855afa90811561225d57600091612481575b50604051907f3fafa127000000000000000000000000000000000000000000000000000000008252602082600481865afa801561225d5761075c92600091612462575b5060405180927f43a266c2000000000000000000000000000000000000000000000000000000008252816001600160a01b0381610120978896600483019190602083019252565b0392165afa91821561225d57600092612435575b5050519160006040517f4f228e11000000000000000000000000000000000000000000000000000000008152602081806107b28b600483019190602083019252565b0381875afa90811561225d578291612416575b50604051907f640abacd000000000000000000000000000000000000000000000000000000008252602082600481885afa90811561225d5761080e9284926123f5575b50613249565b908461232257505061081e612eb4565b935b610833606089015160408a015190612eed565b600185036122e45761089461084a61085d926138f5565b6108866040519384926020840190612cf2565b7f206d696e74656420736f206661720000000000000000000000000000000000008152600e0190565b03601f1981018352826102ea565b925b604051907f975057e7000000000000000000000000000000000000000000000000000000008252602082600481845afa801561225d5761092f6020916001600160a01b03946000916122b7575b506040517fc8df17100000000000000000000000000000000000000000000000000000000081526001600160a01b0385166004820152602481018d905294859283919082906044820190565b0392165afa90811561225d57600492600092612283575b50600090604051938480927f6c0360eb0000000000000000000000000000000000000000000000000000000082525afa801561225d5761098e92600091612262575b50613549565b94610997612efa565b976109a0612f59565b956109aa906138f5565b906109b4906138f5565b938c6002546109c9906001600160a01b031690565b6109d2906130f6565b6040517f6c657420617274576f726b536f75726365203d2200000000000000000000000060208201529b8c9a91999160348c01610a0e91612cf2565b61223b60f01b81526002017f6c65742073636f72654361726449504653203d220000000000000000000000008152601401610a4891612cf2565b61223b60f01b81526002017f6c657420627574746f6e496d61676549504653203d22000000000000000000008152601601610a8291612cf2565b61223b60f01b81526002017f6c6574207478745f31203d2200000000000000000000000000000000000000008152600c01610abc91612cf2565b7f222e746f55707065724361736528293b6c6574207478745f3153697a65203d008152601f01610aeb91612cf2565b7f3b6c6574207478745f31436f6c6f72203d202223313765346631223b6c65742081527f7478745f315f78203d2034303b6c6574207478745f315f79203d2038303b00006020820152603e017f6c6574207478745f32203d2247414d45205048415345200000000000000000008152601701610b6691612cf2565b7f206f66203400000000000000000000000000000000000000000000000000000081526005017f223b6c6574207478745f3253697a65203d2032303b6c6574207478745f32436f81527f6c6f72203d202223313765346631223b6c6574207478745f325f78203d20343060208201527f3b6c6574207478745f325f79203d203232303b0000000000000000000000000060408201526053017f6c6574207478745f33203d2200000000000000000000000000000000000000008152600c01610c2d91612cf2565b7f223b6c6574207478745f3353697a65203d2032303b6c6574207478745f33436f81527f6c6f72203d202223666561323832223b6c6574207478745f335f78203d20343060208201527f3b6c6574207478745f335f79203d203235303b0000000000000000000000000060408201526053017f6c6574207478745f34203d2200000000000000000000000000000000000000008152600c01610ccf908a612cf2565b7f223b6c6574207478745f3453697a65203d0000000000000000000000000000008152601101610cfe91612cf2565b7f3b6c6574207478745f34436f6c6f72203d202223666561323832223b6c65742081527f7478745f345f78203d2034303b6c6574207478745f345f79203d203133303b006020820152603f017f6c6574207478745f35203d22544f4b454e2049443a20000000000000000000008152601601610d7991612cf2565b7f223b6c6574207478745f3553697a65203d2031363b6c6574207478745f35436f81527f6c6f72203d202223464646464646223b6c6574207478745f355f78203d20343060208201527f3b6c6574207478745f355f79203d203337303b0000000000000000000000000060408201526053017f6c6574207478745f36203d225241524954593a200000000000000000000000008152601401610e1a91612cf2565b7f223b6c6574207478745f3653697a65203d2031363b6c6574207478745f36436f81527f6c6f72203d202223464646464646223b6c6574207478745f365f78203d20343060208201527f3b6c6574207478745f365f79203d203430303b0000000000000000000000000060408201526053017f6c657420666f6e74203d2022646174613a666f6e742f74727565747970653b6381527f6861727365743d7574662d383b6261736536342c0000000000000000000000006020820152603401610ee191612cf2565b61223b60f01b81526002017f6c657420706167652c63616d4c6f632c627574744c2c62757474522c74696d6581527f722c627574746f6e496d672c70616765733d5b5d2c6e756d4f6650616765733d60208201527f322c6d6f76696e6752696768743d21312c6d6f76696e674c6566743d21312c6960408201527f735061757365643d21312c617274576f726b50616e656c3d2268747470733a2f60608201527f2f6a626d2e696e667572612d697066732e696f2f697066732f222c73636f726560808201527f4361726450616e656c3d2268747470733a2f2f6a626d2e696e667572612d697060a08201527f66732e696f2f697066732f222b73636f726543617264495046532c627574746f60c08201527f6e496d6167653d2268747470733a2f2f6a626d2e696e667572612d697066732e60e08201527f696f2f697066732f222b627574746f6e496d616765495046532c6465666966616101008201527f426c75653d5b31392c3232382c3234305d2c747874313d5b5b7478745f312c746101208201527f78745f31436f6c6f722c7478745f3153697a655d5d2c747874323d5b5b7478746101408201527f5f322c7478745f32436f6c6f722c7478745f3253697a655d5d2c747874333d5b6101608201527f5b7478745f332c7478745f33436f6c6f722c7478745f3353697a655d5d2c74786101808201527f74343d5b5b7478745f342c7478745f34436f6c6f722c7478745f3453697a655d6101a08201527f5d2c747874353d5b5b7478745f352c7478745f35436f6c6f722c7478745f35536101c08201527f697a655d5d2c747874363d5b5b7478745f362c7478745f36436f6c6f722c74786101e08201527f745f3653697a655d5d2c70616765496d673d5b5d3b66756e6374696f6e2070726102008201527f656c6f616428297b6173796e632066756e6374696f6e20612861297b6c6574206102208201527f633d6177616974206665746368282268747470733a2f2f6a626d2e696e6675726102408201527f612d697066732e696f2f697066732f222b61293b636f6e736f6c652e6c6f67286102608201527f62293b636f6e737420643d632e686561646572732e6765742822636f6e74656e6102808201527f742d7479706522293b636f6e736f6c652e6c6f672864292c6426262d31213d3d6102a08201527f642e696e6465784f6628226170706c69636174696f6e2f6a736f6e22293f28626102c08201527f3d617761697420632e6a736f6e28292c70616765496d675b305d3d6c6f6164496102e08201527f6d61676528622e696d61676529293a28617274576f726b50616e656c3d2268746103008201527f7470733a2f2f6a626d2e696e667572612d697066732e696f2f697066732f222b6103208201527f612c70616765496d675b305d3d6c6f6164496d61676528617274576f726b50616103408201527f6e656c292c636f6e736f6c652e6c6f6728617274576f726b50616e656c29297d6103608201527f6c657420623b6128617274576f726b536f75726365292c70616765496d675b316103808201527f5d3d6c6f6164496d6167652873636f72654361726450616e656c292c627574746103a08201527f6f6e496d673d6c6f6164496d61676528627574746f6e496d616765297d66756e6103c08201527f6374696f6e20736574757028297b6d79466f6e743d6c6f6164466f6e7428666f6103e08201527f6e74292c63726561746543616e766173283530302c353030292c63616d4c6f636104008201527f3d637265617465566563746f7228302c30293b666f72286c657420613d303b616104208201527f3c6e756d4f6650616765733b612b2b2970616765735b615d3d6e6577205061676104408201527f652863616e7661732e77696474682f322a612c302c612c70616765496d675b616104608201527f5d293b74696d65723d63616e7661732e77696474682f322c627574744c3d6e656104808201527f7720427574746f6e2863616e7661732e77696474682f322d39302c352c37352c6104a08201527f37352c627574746f6e496d67292c62757474523d6e657720427574746f6e28636104c08201527f616e7661732e77696474682f322d39302c352c37352c37352c627574746f6e496104e08201527f6d67297d66756e6374696f6e206472617728297b6261636b67726f756e6428326105008201527f3230292c736c69646528292c7075736828292c7472616e736c6174652863616d6105208201527f4c6f632e782c63616d4c6f632e79293b666f72286c657420613d303b613c6e756105408201527f6d4f6650616765733b612b2b2970616765735b615d2e72756e28293b706f70286105608201527f292c627574744c2e72756e28292c62757474522e72756e28297d66756e6374696105808201527f6f6e20676f526967687428297b6d6f76696e674c6566747c7c697350617573656105a08201527f647c7c286d6f76696e6752696768743d2130297d66756e6374696f6e20676f4c6105c08201527f65667428297b6d6f76696e6752696768747c7c69735061757365647c7c286d6f6105e08201527f76696e674c6566743d2130297d66756e6374696f6e20736c69646528297b6d6f6106008201527f76696e6752696768742626216d6f76696e674c6566742626303c3d74696d65726106208201527f26262863616d4c6f632e782d3d32302c74696d65722d3d3230292c6d6f76696e6106408201527f674c6566742626216d6f76696e6752696768742626303c3d74696d65722626286106608201527f63616d4c6f632e782b3d32302c74696d65722d3d3230292c303d3d74696d65726106808201527f2626286d6f76696e6752696768743d21312c6d6f76696e674c6566743d21312c6106a08201527f74696d65723d63616e7661732e77696474682f32292c303e3d2d63616d4c6f636106c08201527f2e783f2863616d4c6f632e783d302c627574744c2e6c6f632e783d2d313030296106e08201527f3a627574744c2e6c6f632e783d63616e7661732e6865696768742f322d37352c6107008201527f2d63616d4c6f632e783e3d70616765735b70616765732e6c656e6774682d315d6107208201527f2e6c6f632e783f2874696d65723d63616e7661732e77696474682f322c6d6f766107408201527f696e6752696768743d21312c6d6f76696e674c6566743d21312c63616d4c6f636107608201527f2e783d2d70616765735b70616765732e6c656e6774682d315d2e6c6f632e782c6107808201527f62757474522e6c6f632e783d2d313030293a62757474522e6c6f632e783d63616107a08201527f6e7661732e6865696768742f322d37357d66756e6374696f6e206472617774656107c08201527f787428612c622c64297b666f722876617220653d612c663d303b663c642e6c656107e08201527f6e6774683b2b2b66297b76617220673d645b665d2c683d675b305d2c6a3d675b6108008201527f315d2c633d675b325d2c6b3d7465787457696474682868293b66696c6c286a296108208201527f2c7465787453697a652863292c7465787428682c652c62292c652b3d6b7d7d666108408201527f756e6374696f6e206d6f7573655072657373656428297b6d6f757365583e62756108608201527f74744c2e6c6f632e7826266d6f757365583c627574744c2e6c6f632e782b62756108808201527f74744c2e7726266d6f757365593e627574744c2e6c6f632e7926266d6f7573656108a08201527f593c627574744c2e6c6f632e792b627574744c2e682626676f4c65667428292c6108c08201527f6d6f757365583e62757474522e6c6f632e7826266d6f757365583c62757474526108e08201527f2e6c6f632e782b62757474522e7726266d6f757365593e62757474522e6c6f636109008201527f2e7926266d6f757365593c62757474522e6c6f632e792b62757474522e6826266109208201527f676f526967687428297d636c61737320506167657b636f6e7374727563746f726109408201527f28612c622c632c64297b746869732e6c6f633d637265617465566563746f72286109608201527f612c62292c746869732e773d63616e7661732e77696474682f322c746869732e6109808201527f683d63616e7661732e6865696768742f322c746869732e706167654e756d3d636109a08201527f2b312c746869732e696d673d647d72756e28297b696d61676528746869732e696109c08201527f6d672c746869732e6c6f632e782c746869732e6c6f632e792c3530302c3530306109e08201527f292c74657874416c69676e284c454654292c74657874466f6e74286d79466f6e610a008201527f74292c323d3d746869732e706167654e756d2626286472617774657874287468610a208201527f69732e6c6f632e782b7478745f315f782c746869732e6c6f632e792b7478745f610a408201527f315f792c74787431292c647261777465787428746869732e6c6f632e782b7478610a608201527f745f325f782c746869732e6c6f632e792b7478745f325f792c74787432292c64610a808201527f7261777465787428746869732e6c6f632e782b7478745f335f782c746869732e610aa08201527f6c6f632e792b7478745f335f792c74787433292c647261777465787428746869610ac08201527f732e6c6f632e782b7478745f345f782c746869732e6c6f632e792b7478745f34610ae08201527f5f792c74787434292c647261777465787428746869732e6c6f632e782b747874610b008201527f5f355f782c746869732e6c6f632e792b7478745f355f792c74787435292c6472610b208201527f61777465787428746869732e6c6f632e782b7478745f365f782c746869732e6c610b408201527f6f632e792b7478745f365f792c7478743629293b333d3d746869732e70616765610b608201527f4e756d2c6c696e6528746869732e6c6f632e782c746869732e6c6f632e792c74610b808201527f6869732e6c6f632e782b746869732e772c746869732e6c6f632e79292c6c696e610ba08201527f6528746869732e6c6f632e782c746869732e6c6f632e792c746869732e6c6f63610bc08201527f2e782c746869732e6c6f632e792b746869732e68292c6c696e6528746869732e610be08201527f6c6f632e782c746869732e6c6f632e792b746869732e682c746869732e6c6f63610c008201527f2e782b746869732e772c746869732e6c6f632e792b746869732e68292c6c696e610c208201527f6528746869732e6c6f632e782b746869732e772c746869732e6c6f632e792c74610c408201527f6869732e6c6f632e782b746869732e772c746869732e68297d7d636c61737320610c608201527f427574746f6e7b636f6e7374727563746f7228612c622c632c642c65297b7468610c808201527f69732e6c6f633d6e657720637265617465566563746f7228612c62292c746869610ca08201527f732e773d632c746869732e683d642c746869732e636c723d227768697465222c610cc08201527f746869732e696d673d657d72756e28297b746869732e72656e64657228292c74610ce08201527f6869732e636865636b4d6f75736528297d72656e64657228297b66696c6c2874610d008201527f6869732e636c72292c7374726f6b65283230292c7374726f6b65576569676874610d208201527f2830292c66696c6c2822626c61636b22292c6e6f5374726f6b6528292c746578610d408201527f7453697a65283135292c696d61676528746869732e696d672c746869732e6c6f610d608201527f632e782c746869732e6c6f632e792c746869732e772c746869732e68297d6368610d808201527f65636b4d6f75736528297b746869732e636c723d6d6f757365583e746869732e610da08201527f6c6f632e7826266d6f757365583c746869732e6c6f632e782b746869732e7726610dc08201527f266d6f757365593e746869732e6c6f632e7926266d6f757365593c746869732e610de08201527f6c6f632e792b746869732e683f2267726179223a227768697465227d7d000000610e00820152610e1d010391601f1992838101825261203190826102ea565b8061203b836126bf565b5160c001525161204a906126f9565b60405180809381937f34c3c9d5000000000000000000000000000000000000000000000000000000008352600483019161208392612fef565b035a927316b727a2fc9322c724f4bc562910c99a5eda5084600094fa801561225d576121d460206121c861219f61211e946101809a61220e9a6101749a6121d99960009461221a575b509161211e61214d6121769361211e6121246120eb61211e98516138f5565b956040519e8f9d8e016009907f7b226e616d65223a22000000000000000000000000000000000000000000000081520190565b90612cf2565b7f222c226465736372697074696f6e223a225465616d3a20000000000000000000815260170190565b7f2c2049443a200000000000000000000000000000000000000000000000000000815260060190565b7f222c22616e696d6174696f6e5f75726c223a2200000000000000000000000000815260130190565b7f227d000000000000000000000000000000000000000000000000000000000000815260020190565b038481018352826102ea565b61340d565b6040517f646174613a6170706c69636174696f6e2f6a736f6e3b6261736536342c0000006020820152938491603d830161211e565b039081018352826102ea565b61214d6121769361211e6121246120eb61224e61211e9661211e9a989b3d8091833e61224681836102ea565b810190612fb8565b999698505050509350506120cc565b612909565b61227d913d8091833e61227581836102ea565b810190612b51565b38610988565b60009192506122a99060203d6020116122b0575b6122a181836102ea565b810190612c5b565b9190610946565b503d612297565b6122d79150833d85116122dd575b6122cf81836102ea565b8101906128f4565b386108e3565b503d6122c5565b61231c61084a6122f3926138f5565b7f20696e206578697374656e6365000000000000000000000000000000000000008152600d0190565b92610896565b6001850361233a575050612334612e55565b93610820565b6002850361234c575050612334612df6565b6003850361235e575050612334612dbd565b600485149081612381575b50156123785750612334612d84565b61233490612d09565b90506040517fa8c15f4a000000000000000000000000000000000000000000000000000000008152602081600481885afa91821561225d57916123c6575b5038612369565b6123e8915060203d6020116123ee575b6123e081836102ea565b810190612cde565b386123bf565b503d6123d6565b61240f91925060203d6020116122b0576122a181836102ea565b9038610808565b61242f915060203d6020116122b0576122a181836102ea565b386107c5565b6124549250803d1061245b575b61244c81836102ea565b810190612c6a565b3880610770565b503d612442565b61247b915060203d6020116122b0576122a181836102ea565b38610715565b61249a915060203d6020116122dd576122cf81836102ea565b386106d2565b60058110156124b857506124b2612c22565b91610694565b60088110156124ca57506124b2612c22565b600a8110156124dc57506124b2612c22565b600c8110156124ee57506124b2612c22565b601081101561250057506124b2612c22565b601781101561251257506124b2612c22565b601e81101561252457506124b2612be9565b60231115612534576124b2612bb0565b6124b2612b77565b612544612b77565b61067e565b61255e9296503d8091833e61227581836102ea565b93388061064a565b612581913d8091833e61257981836102ea565b81019061297c565b38610576565b6125a0915060203d6020116122dd576122cf81836102ea565b38610503565b90600182811c921680156125d6575b60208310146125c057565b634e487b7160e01b600052602260045260246000fd5b91607f16916125b5565b90604051918260008254926125f4846125a6565b9081845260019485811690816000146126635750600114612620575b505061261e925003836102ea565b565b9093915060005260209081600020936000915b81831061264b57505061261e93508201013880612610565b85548884018501529485019487945091830191612633565b905061261e95506020935060ff1991501682840152151560051b8201013880612610565b634e487b7160e01b600052603260045260246000fd5b8051156126aa5760200190565b612687565b8051600110156126aa5760400190565b8051600210156126aa5760600190565b80518210156126aa5760209160051b010190565b634e487b7160e01b600052601160045260246000fd5b90620f424091820180921161270a57565b6126e3565b906002820180921161270a57565b906020820180921161270a57565b9190820180921161270a57565b90601f811161274657505050565b600091825260208220906020601f850160051c83019410612782575b601f0160051c01915b82811061277757505050565b81815560010161276b565b9092508290612762565b6001600160a01b03807f00000000000000000000000000000000000000000000000000000000000000001630146100bb576001918254918083166100bb577fffffffffffffffffffffffff00000000000000000000000000000000000000009116911617815581519160005b8381106128055750505050565b61280f81836126cf565b5183820180921161270a578160005260206000815260406000209180519167ffffffffffffffff83116102915782916128528361284c87546125a6565b87612738565b81601f8411600114612889575060009261287e575b505060001982871b9260031b1c19161790556127f8565b015190503880612867565b9190601f198995166128a087600052602060002090565b936000905b8282106128db57505084116128c2575b505050811b0190556127f8565b015160001960f88460031b161c191690553880806128b5565b8484015186558b979095019493840193908101906128a5565b908160209103126100bb57516101198161024e565b6040513d6000823e3d90fd5b519061261e8261024e565b519081151582036100bb57565b9092919261293a81610367565b9161294860405193846102ea565b8294828452828201116100bb57602061261e9301906100c0565b9080601f830112156100bb5781516101199260200161292d565b6020818303126100bb57805167ffffffffffffffff918282116100bb5701610180818403126100bb576129ad61030d565b92815184526020820151602085015260408201516040850152606082015160608501526080820151608085015260a082015160a08501526129f060c08301612915565b60c085015260e082015160e08501526101008083015190850152610120612a18818401612920565b90850152610140612a2a818401612920565b9085015261016092838301519081116100bb57612a479201612962565b9082015290565b60409081519160809081840184811067ffffffffffffffff821117610291578152600384528392600092835b606080821015612ac257845160209291612a9382610275565b808252839088828401528088840152888184015280868401528060a084015260c0830152828a01015201612a7a565b5050509293505050565b60405190612ad982610296565b60008252565b60405190612aec826102b2565b601382527f70352d76312e352e302e6d696e2e6a732e677a000000000000000000000000006020830152565b60405190612b25826102b2565b601682527f67756e7a6970536372697074732d302e302e312e6a73000000000000000000006020830152565b906020828203126100bb57815167ffffffffffffffff81116100bb576101199201612962565b60405190612b84826102b2565b600282527f31360000000000000000000000000000000000000000000000000000000000006020830152565b60405190612bbd826102b2565b600282527f32300000000000000000000000000000000000000000000000000000000000006020830152565b60405190612bf6826102b2565b600282527f33300000000000000000000000000000000000000000000000000000000000006020830152565b60405190612c2f826102b2565b600282527f34300000000000000000000000000000000000000000000000000000000000006020830152565b908160209103126100bb575190565b90816101209103126100bb57612c7e61032e565b90805182526020810151602083015260408101516040830152606081015160608301526080810151608083015260a081015160a083015260c081015160c0830152612ccb60e08201612915565b60e0830152610100809101519082015290565b908160209103126100bb5761011990612920565b90612d05602092828151948592016100c0565b0190565b9061261e603760405180947f52656465656d20666f72200000000000000000000000000000000000000000006020830152612d4e815180926020602b860191016100c0565b81017f206f662074686520706f742e0000000000000000000000000000000000000000602b8201520360178101855201836102ea565b60405190612d91826102b2565b601c82527f53636f726563617264206177616974696e6720617070726f76616c2e000000006020830152565b60405190612dca826102b2565b601182527f47616d6520696e2070726f67726573732e0000000000000000000000000000006020830152565b60405190612e03826102ce565b602482527f756e642e000000000000000000000000000000000000000000000000000000006040837f53746172747320736f6f6e2e204c617374206368616e636520666f722072656660208201520152565b60405190612e62826102ce565b602c82527f647320617265206f70656e2e00000000000000000000000000000000000000006040837f5374617274696e6720736f6f6e2c206d696e74696e6720616e6420726566756e60208201520152565b60405190612ec1826102b2565b601482527f4d696e74696e672073746172747320736f6f6e2e0000000000000000000000006020830152565b9190820391821161270a57565b60405190612f07826102ce565b602e82527f6a3966784c7231464d33767a4d6f0000000000000000000000000000000000006040837f516d654234374b6662486574485070517250676d44394378434462396532553960208201520152565b60405190612f66826102ce565b602e82527f3550667554546270563442624a560000000000000000000000000000000000006040837f516d64704c31784e346341485177345031465a7a773950336f516f664138683460208201520152565b6020818303126100bb5780519067ffffffffffffffff82116100bb57019080601f830112156100bb5781516101199260200161292d565b929190604080850190808652825180925260609182870192808260051b890101936020809601936000925b878b868610613030575050505050505050930152565b6130e6897fffffffffffffffffffffffffffffffffffffffffffffffffffffffffffffffa084936001969798999a9b9c030188528a516130d36130c06130a2613081845160e08088528701906100e3565b6001600160a01b038886015116888701528b8501518682038d8801526100e3565b838a015160ff16858b015260808085015190868303908701526100e3565b60a08084015190858303908601526100e3565b9160c080920151918184039101526100e3565b980194019401929493919061301a565b6040908151918083019183831067ffffffffffffffff841117610291576131b093600093835261012c81526001600160a01b03835191613135836102b2565b600683527f6e6f726d616c00000000000000000000000000000000000000000000000000006020840152602081019283528451968795869485937fbf6519ad000000000000000000000000000000000000000000000000000000008552602060048601525160248501525190604484015260648301906100e3565b0392165afa90811561225d576000916131c7575090565b610119913d8091833e61224681836102ea565b908160021b917f3fffffffffffffffffffffffffffffffffffffffffffffffffffffffffffffff81160361270a57565b90600e820291808304600e149015171561270a57565b8181029291811591840414171561270a57565b634e487b7160e01b600052601260045260246000fd5b6132568261325b92613220565b61320a565b8115613360570461327a6127106132738184046138f5565b92066138f5565b80515b600481106132f957506132a7916108866132d06101199361211e6040519687956020870190612cf2565b7f2e00000000000000000000000000000000000000000000000000000000000000815260010190565b7f2500000000000000000000000000000000000000000000000000000000000000815260010190565b9061334e60405191826020917f30000000000000000000000000000000000000000000000000000000000000008383015261333e8151809260219586860191016100c0565b81010360018101845201826102ea565b90600019811461270a5760010161327d565b613233565b60405190613372826102ce565b604082527f6768696a6b6c6d6e6f707172737475767778797a303132333435363738392b2f6040837f4142434445464748494a4b4c4d4e4f505152535455565758595a61626364656660208201520152565b6040516133d081610296565b60008152906000368137565b906133e682610367565b6133f360405191826102ea565b828152601f196134038294610367565b0190602036910137565b8051156135405761341c613365565b61343861343361342c845161270f565b6003900490565b6131da565b9161344a6134458461271d565b6133dc565b92835280815182019060208501935b8282106134ee575050506003905106806001146134a55760021461347b575090565b6000197f3d0000000000000000000000000000000000000000000000000000000000000091015290565b507ffffffffffffffffffffffffffffffffffffffffffffffffffffffffffffffffe7f3d3d00000000000000000000000000000000000000000000000000000000000091015290565b9091936004906003809401938451600190603f9082828260121c16880101518553828282600c1c16880101518386015382828260061c1688010151600286015316850101519082015301939190613459565b50610119612acc565b90610119906135936040516020927f12200000000000000000000000000000000000000000000000000000000000008483015260228201526022815261358e816102ce565b613632565b9260405193816135ac86935180928680870191016100c0565b82016135c0825180938680850191016100c0565b010380845201826102ea565b604051906105e0820182811067ffffffffffffffff82111761029157604052602e82526105c0366020840137565b906136048261034f565b61361160405191826102ea565b828152601f19613403829461034f565b9081518110156126aa570160200190565b9081511561376f576136426135cc565b91600090816136508561269d565b5260019181519181925b808410613680575050505061367661367b916101199394613779565b6137bc565b613803565b909192946136c96136c36136bd6136978987613621565b517fff000000000000000000000000000000000000000000000000000000000000001690565b60f81c90565b60ff1690565b9184925b60ff908982891686101561372e57600192916137026136fc6136c36136f58a613708966126cf565b5160ff1690565b60081b90565b9061272b565b6137258b61371d88603a9586860616926126cf565b9060ff169052565b049301926136cd565b50919594935050809691965b61374857506001019261365a565b9460ff6001603a9261376583858b061661371d8d868516906126cf565b011695048061373a565b90506101196133c4565b9060ff80911690613789826135fa565b9260005b83811061379b575050505090565b80836137a9600193856126cf565b51166137b582886126cf565b520161378d565b9081516137c8816135fa565b9060005b8181106137da575090925050565b8060ff6137f060001960019489510301886126cf565b51166137fc82866126cf565b52016137cc565b805161380e81610367565b9160409061381e825194856102ea565b828452601f1961382d84610367565b01906020913683870137600092835b85811061384c5750505050505090565b6001907fff000000000000000000000000000000000000000000000000000000000000006138e0845161387e816102ce565b603a81527f31323334353637383941424344454647484a4b4c4d4e50515253545556575859888201527f5a6162636465666768696a6b6d6e6f707172737475767778797a0000000000008682015260ff6138d885896126cf565b511690613621565b5116861a6138ee828a613621565b530161383c565b806000917a184f03e93ff9f4daa797ed6e38ed64bf6a1f01000000000000000080821015613a37575b506d04ee2d6d415b85acef810000000080831015613a28575b50662386f26fc1000080831015613a19575b506305f5e10080831015613a0a575b50612710808310156139fb575b5060648210156139eb575b600a809210156139e1575b60019081602161398c8287016133dc565b95860101905b61399e575b5050505090565b600019849101917f30313233343536373839616263646566000000000000000000000000000000008282061a8353049182156139dc57919082613992565b613997565b916001019161397b565b9190606460029104910191613970565b60049193920491019138613965565b60089193920491019138613958565b60109193920491019138613949565b60209193920491019138613937565b60409350810491503861391e56fea2646970667358221220549e092ac83b0842eb427b2a900025ae326154ed6cf9e28bf79c03c7d76c88ba64736f6c63430008140033",
    "linkReferences": {}
  },
  "methodIdentifiers": {
    "BUFFER_SIZE()": "004e394e",
    "codeOrigin()": "1d153ca4",
    "delegate()": "c89e4361",
    "getUri(uint256)": "da0544aa",
    "initialize(address,string[])": "94e6f56f",
    "tierNameOf(uint256)": "1baabc3e",
    "typeface()": "4d5a1d11"
  },
  "id": 3
}