{
  "abi": [
    {
      "inputs": [
        {
          "internalType": "contract ITypeface",
          "name": "_typeface",
          "type": "address"
        }
      ],
      "stateMutability": "nonpayable",
      "type": "constructor"
    },
    {
      "inputs": [],
      "name": "BUFFER_SIZE",
      "outputs": [
        {
          "internalType": "uint256",
          "name": "",
          "type": "uint256"
        }
      ],
      "stateMutability": "view",
      "type": "function"
    },
    {
      "inputs": [],
      "name": "codeOrigin",
      "outputs": [
        {
          "internalType": "address",
          "name": "",
          "type": "address"
        }
      ],
      "stateMutability": "view",
      "type": "function"
    },
    {
      "inputs": [],
      "name": "delegate",
      "outputs": [
        {
          "internalType": "contract IDefifaDelegate",
          "name": "",
          "type": "address"
        }
      ],
      "stateMutability": "view",
      "type": "function"
    },
    {
      "inputs": [
        {
          "internalType": "uint256",
          "name": "_tokenId",
          "type": "uint256"
        }
      ],
      "name": "getUri",
      "outputs": [
        {
          "internalType": "string",
          "name": "",
          "type": "string"
        }
      ],
      "stateMutability": "view",
      "type": "function"
    },
    {
      "inputs": [
        {
          "internalType": "contract IDefifaDelegate",
          "name": "_delegate",
          "type": "address"
        },
        {
          "internalType": "string[]",
          "name": "_tierNames",
          "type": "string[]"
        }
      ],
      "name": "initialize",
      "outputs": [],
      "stateMutability": "nonpayable",
      "type": "function"
    },
    {
      "inputs": [
        {
          "internalType": "uint256",
          "name": "_tierId",
          "type": "uint256"
        }
      ],
      "name": "tierNameOf",
      "outputs": [
        {
          "internalType": "string",
          "name": "",
          "type": "string"
        }
      ],
      "stateMutability": "view",
      "type": "function"
    },
    {
      "inputs": [],
      "name": "typeface",
      "outputs": [
        {
          "internalType": "contract ITypeface",
          "name": "",
          "type": "address"
        }
      ],
      "stateMutability": "view",
      "type": "function"
    }
  ],
  "bytecode": {
    "object": "0x60a0346200008e57601f62003c6d38819003918201601f19168301916001600160401b0383118484101762000093578084926020946040528339810103126200008e57516001600160a01b038116908190036200008e5730608052600280546001600160a01b031916919091179055604051613bc39081620000aa823960805181818161021801526128ca0152f35b600080fd5b634e487b7160e01b600052604160045260246000fdfe60806040526004361015610013575b600080fd5b6000803560e01c9081624e394e146100a1575080631baabc3e146100985780631d153ca41461008f5780634d5a1d111461008657806394e6f56f1461007d578063c89e4361146100745763da0544aa1461006c57600080fd5b61000e6104d5565b5061000e6104ad565b5061000e6103c0565b5061000e61023c565b5061000e6101f7565b5061000e61012f565b346100be57806003193601126100be57620f424060805260206080f35b80fd5b600319602091011261000e5760043590565b60005b8381106100e65750506000910152565b81810151838201526020016100d6565b90601f19601f602093610114815180928187528780880191016100d3565b0116010190565b90602061012c9281815201906100f6565b90565b503461000e5761013e366100c1565b600090815260208181526040822090604051918381549061015e826126bc565b808652926001928084169081156101d35750600114610198575b61019486610188818a0382610309565b6040519182918261011b565b0390f35b9080949650528483205b8284106101c057505050816101949361018892820101933880610178565b80548585018701529285019281016101a2565b60ff19168787015250505050151560051b8201019150610188816101943880610178565b503461000e57600060031936011261000e5760206040516001600160a01b037f0000000000000000000000000000000000000000000000000000000000000000168152f35b503461000e57600060031936011261000e5760206001600160a01b0360025416604051908152f35b6001600160a01b0381160361000e57565b50634e487b7160e01b600052604160045260246000fd5b60e0810190811067ffffffffffffffff8211176102a857604052565b6102b0610275565b604052565b6020810190811067ffffffffffffffff8211176102a857604052565b6040810190811067ffffffffffffffff8211176102a857604052565b6060810190811067ffffffffffffffff8211176102a857604052565b90601f601f19910116810190811067ffffffffffffffff8211176102a857604052565b604051906101c0820182811067ffffffffffffffff8211176102a857604052565b60405190610120820182811067ffffffffffffffff8211176102a857604052565b60209067ffffffffffffffff8111610388575b60051b0190565b610390610275565b610381565b601f19601f60209267ffffffffffffffff81116103b3575b01160190565b6103bb610275565b6103ad565b503461000e5760408060031936011261000e57600435906103e082610264565b602491823567ffffffffffffffff9384821161000e573660238301121561000e57816004013561040f8161036e565b9461041c81519687610309565b818652602096838888019360051b8601019436861161000e57848101935b86851061044d5761044b89896128bf565b005b843583811161000e578201903660438301121561000e57868201359061047282610395565b61047e87519182610309565b8281526044933685858301011161000e578d84819695829660009401838601378301015281520194019361043a565b503461000e57600060031936011261000e5760206001600160a01b0360015416604051908152f35b503461000e576104e4366100c1565b6105056104f96001546001600160a01b031690565b6001600160a01b031690565b60408080517f975057e700000000000000000000000000000000000000000000000000000000808252602095869182846004818a5afa9384156126af575b600094612690575b5084517fb67cb0470000000000000000000000000000000000000000000000000000000081526001600160a01b0388166004820152602481018390526101c0908181806044810103816001600160a01b03809a165afa918215612683575b600092612656575b505083866105bd612b3d565b996105c78b6127b4565b516105d0612bdc565b90526105e860606105e08d6127b4565b510160029052565b610610836105f58d6127b4565b510173fc7453da7bf4d0c739c1c53da57b3636dab0e11e9052565b6106198b6127ce565b51610622612c15565b905261063a60606106328d6127ce565b510160019052565b610647836105f58d6127ce565b60009482517f06fdde030000000000000000000000000000000000000000000000000000000081528681600481865afa968715612649575b809761262c575b50506106a56106a086516000526000602052604060002090565b6126f6565b96602387511060001461261e576106ba612ce6565b995b8851600381101561258257506106d0612d58565b915b6109c961079287517f557e715500000000000000000000000000000000000000000000000000000000815289816004818b5afa908115612575575b600091612558575b5088517f3fafa1270000000000000000000000000000000000000000000000000000000081528a816004818c5afa90811561254b575b60009161252e575b50895180927f43a266c2000000000000000000000000000000000000000000000000000000008252818881610120978896600483019190602083019252565b0392165afa918215612521575b6000926124f4575b50505194600061084360048a517f4f228e110000000000000000000000000000000000000000000000000000000081528c818c81806107ed8c8883019190602083019252565b03915afa9081156124e7575b84916124ca575b508c8b8d51938480927f640abacd0000000000000000000000000000000000000000000000000000000082525afa9182156124bd575b849261249e575b5061335e565b90876123c1575050610853612fe6565b935b8961086a8c606060808201519101519061301f565b60018903612383576108c961088161089292613a3d565b6108bb8d5193849286840190612e28565b7f206d696e74656420736f206661720000000000000000000000000000000000008152600e0190565b03601f198101835282610309565b985b8a51938085528285600481855afa948515612376575b600095612357575b508b517fc8df17100000000000000000000000000000000000000000000000000000000081526001600160a01b0383166004820152602481018890529483908690604490829088165afa94851561234a575b600095612310575b50916109ae916000938d519081528281600481855afa928315612303575b85936122d4575b50508c519485809481937ff682eeaf000000000000000000000000000000000000000000000000000000008352600483019190916001600160a01b036020820193169052565b0392165afa9081156122c7575b6000916122ae575b50613675565b9b6109d261302c565b946109db61308b565b906109e590613a3d565b926109ef90613a3d565b95600254610a03906001600160a01b031690565b610a0c906131f1565b98517f6c657420617274576f726b536f75726365203d220000000000000000000000009a81019a8b529e8f9a601401610a4491612e28565b61223b60f01b81526002017f6c65742073636f72654361726449504653203d220000000000000000000000008152601401610a7e91612e28565b61223b60f01b81526002017f6c657420627574746f6e496d61676549504653203d22000000000000000000008152601601610ab891612e28565b61223b60f01b81526002017f6c6574207478745f31203d2200000000000000000000000000000000000000008152600c01610af3908b612e28565b7f222e746f55707065724361736528293b6c6574207478745f3153697a65203d008152601f01610b2291612e28565b7f3b6c6574207478745f31436f6c6f72203d202223313765346631223b6c65742081527f7478745f315f78203d2034303b6c6574207478745f315f79203d2038303b00006020820152603e017f6c6574207478745f32203d2247414d45205048415345200000000000000000008152601701610b9d91612e28565b7f206f66203400000000000000000000000000000000000000000000000000000081526005017f223b6c6574207478745f3253697a65203d2032303b6c6574207478745f32436f81527f6c6f72203d202223313765346631223b6c6574207478745f325f78203d20343060208201527f3b6c6574207478745f325f79203d203232303b0000000000000000000000000060408201526053017f6c6574207478745f33203d2200000000000000000000000000000000000000008152600c01610c6491612e28565b7f223b6c6574207478745f3353697a65203d2032303b6c6574207478745f33436f81527f6c6f72203d202223666561323832223b6c6574207478745f335f78203d20343060208201527f3b6c6574207478745f335f79203d203235303b0000000000000000000000000060408201526053017f6c6574207478745f34203d2200000000000000000000000000000000000000008152600c01610d069089612e28565b7f223b6c6574207478745f3453697a65203d0000000000000000000000000000008152601101610d3591612e28565b7f3b6c6574207478745f34436f6c6f72203d202223666561323832223b6c65742081527f7478745f345f78203d2034303b6c6574207478745f345f79203d203133303b006020820152603f017f6c6574207478745f35203d22544f4b454e2049443a20000000000000000000008152601601610db091612e28565b7f223b6c6574207478745f3553697a65203d2031363b6c6574207478745f35436f81527f6c6f72203d202223464646464646223b6c6574207478745f355f78203d20343060208201527f3b6c6574207478745f355f79203d203337303b0000000000000000000000000060408201526053017f6c6574207478745f36203d225241524954593a200000000000000000000000008152601401610e5191612e28565b7f223b6c6574207478745f3653697a65203d2031363b6c6574207478745f36436f81527f6c6f72203d202223464646464646223b6c6574207478745f365f78203d20343060208201527f3b6c6574207478745f365f79203d203430303b0000000000000000000000000060408201526053017f6c657420666f6e74203d2022646174613a666f6e742f74727565747970653b6381527f6861727365743d7574662d383b6261736536342c0000000000000000000000006020820152603401610f1891612e28565b61223b60f01b81526002017f6c657420706167652c63616d4c6f632c627574744c2c62757474522c74696d6581527f722c627574746f6e496d672c70616765733d5b5d2c6e756d4f6650616765733d60208201527f322c6d6f76696e6752696768743d21312c6d6f76696e674c6566743d21312c6960408201527f735061757365643d21312c617274576f726b50616e656c3d2268747470733a2f60608201527f2f6a626d2e696e667572612d697066732e696f2f697066732f222c73636f726560808201527f4361726450616e656c3d2268747470733a2f2f6a626d2e696e667572612d697060a08201527f66732e696f2f697066732f222b73636f726543617264495046532c627574746f60c08201527f6e496d6167653d2268747470733a2f2f6a626d2e696e667572612d697066732e60e08201527f696f2f697066732f222b627574746f6e496d616765495046532c6465666966616101008201527f426c75653d5b31392c3232382c3234305d2c747874313d5b5b7478745f312c746101208201527f78745f31436f6c6f722c7478745f3153697a655d5d2c747874323d5b5b7478746101408201527f5f322c7478745f32436f6c6f722c7478745f3253697a655d5d2c747874333d5b6101608201527f5b7478745f332c7478745f33436f6c6f722c7478745f3353697a655d5d2c74786101808201527f74343d5b5b7478745f342c7478745f34436f6c6f722c7478745f3453697a655d6101a08201527f5d2c747874353d5b5b7478745f352c7478745f35436f6c6f722c7478745f35536101c08201527f697a655d5d2c747874363d5b5b7478745f362c7478745f36436f6c6f722c74786101e08201527f745f3653697a655d5d2c70616765496d673d5b5d3b66756e6374696f6e2070726102008201527f656c6f616428297b6173796e632066756e6374696f6e20612861297b6c6574206102208201527f633d6177616974206665746368282268747470733a2f2f6a626d2e696e6675726102408201527f612d697066732e696f2f697066732f222b61293b636f6e736f6c652e6c6f67286102608201527f62293b636f6e737420643d632e686561646572732e6765742822636f6e74656e6102808201527f742d7479706522293b636f6e736f6c652e6c6f672864292c6426262d31213d3d6102a08201527f642e696e6465784f6628226170706c69636174696f6e2f6a736f6e22293f28626102c08201527f3d617761697420632e6a736f6e28292c70616765496d675b305d3d6c6f6164496102e08201527f6d61676528622e696d61676529293a28617274576f726b50616e656c3d2268746103008201527f7470733a2f2f6a626d2e696e667572612d697066732e696f2f697066732f222b6103208201527f612c70616765496d675b305d3d6c6f6164496d61676528617274576f726b50616103408201527f6e656c292c636f6e736f6c652e6c6f6728617274576f726b50616e656c29297d6103608201527f6c657420623b6128617274576f726b536f75726365292c70616765496d675b316103808201527f5d3d6c6f6164496d6167652873636f72654361726450616e656c292c627574746103a08201527f6f6e496d673d6c6f6164496d61676528627574746f6e496d616765297d66756e6103c08201527f6374696f6e20736574757028297b6d79466f6e743d6c6f6164466f6e7428666f6103e08201527f6e74292c63726561746543616e766173283530302c353030292c63616d4c6f636104008201527f3d637265617465566563746f7228302c30293b666f72286c657420613d303b616104208201527f3c6e756d4f6650616765733b612b2b2970616765735b615d3d6e6577205061676104408201527f652863616e7661732e77696474682f322a612c302c612c70616765496d675b616104608201527f5d293b74696d65723d63616e7661732e77696474682f322c627574744c3d6e656104808201527f7720427574746f6e2863616e7661732e77696474682f322d39302c352c37352c6104a08201527f37352c627574746f6e496d67292c62757474523d6e657720427574746f6e28636104c08201527f616e7661732e77696474682f322d39302c352c37352c37352c627574746f6e496104e08201527f6d67297d66756e6374696f6e206472617728297b6261636b67726f756e6428326105008201527f3230292c736c69646528292c7075736828292c7472616e736c6174652863616d6105208201527f4c6f632e782c63616d4c6f632e79293b666f72286c657420613d303b613c6e756105408201527f6d4f6650616765733b612b2b2970616765735b615d2e72756e28293b706f70286105608201527f292c627574744c2e72756e28292c62757474522e72756e28297d66756e6374696105808201527f6f6e20676f526967687428297b6d6f76696e674c6566747c7c697350617573656105a08201527f647c7c286d6f76696e6752696768743d2130297d66756e6374696f6e20676f4c6105c08201527f65667428297b6d6f76696e6752696768747c7c69735061757365647c7c286d6f6105e08201527f76696e674c6566743d2130297d66756e6374696f6e20736c69646528297b6d6f6106008201527f76696e6752696768742626216d6f76696e674c6566742626303c3d74696d65726106208201527f26262863616d4c6f632e782d3d32302c74696d65722d3d3230292c6d6f76696e6106408201527f674c6566742626216d6f76696e6752696768742626303c3d74696d65722626286106608201527f63616d4c6f632e782b3d32302c74696d65722d3d3230292c303d3d74696d65726106808201527f2626286d6f76696e6752696768743d21312c6d6f76696e674c6566743d21312c6106a08201527f74696d65723d63616e7661732e77696474682f32292c303e3d2d63616d4c6f636106c08201527f2e783f2863616d4c6f632e783d302c627574744c2e6c6f632e783d2d313030296106e08201527f3a627574744c2e6c6f632e783d63616e7661732e6865696768742f322d37352c6107008201527f2d63616d4c6f632e783e3d70616765735b70616765732e6c656e6774682d315d6107208201527f2e6c6f632e783f2874696d65723d63616e7661732e77696474682f322c6d6f766107408201527f696e6752696768743d21312c6d6f76696e674c6566743d21312c63616d4c6f636107608201527f2e783d2d70616765735b70616765732e6c656e6774682d315d2e6c6f632e782c6107808201527f62757474522e6c6f632e783d2d313030293a62757474522e6c6f632e783d63616107a08201527f6e7661732e6865696768742f322d37357d66756e6374696f6e206472617774656107c08201527f787428612c622c64297b666f722876617220653d612c663d303b663c642e6c656107e08201527f6e6774683b2b2b66297b76617220673d645b665d2c683d675b305d2c6a3d675b6108008201527f315d2c633d675b325d2c6b3d7465787457696474682868293b66696c6c286a296108208201527f2c7465787453697a652863292c7465787428682c652c62292c652b3d6b7d7d666108408201527f756e6374696f6e206d6f7573655072657373656428297b6d6f757365583e62756108608201527f74744c2e6c6f632e7826266d6f757365583c627574744c2e6c6f632e782b62756108808201527f74744c2e7726266d6f757365593e627574744c2e6c6f632e7926266d6f7573656108a08201527f593c627574744c2e6c6f632e792b627574744c2e682626676f4c65667428292c6108c08201527f6d6f757365583e62757474522e6c6f632e7826266d6f757365583c62757474526108e08201527f2e6c6f632e782b62757474522e7726266d6f757365593e62757474522e6c6f636109008201527f2e7926266d6f757365593c62757474522e6c6f632e792b62757474522e6826266109208201527f676f526967687428297d636c61737320506167657b636f6e7374727563746f726109408201527f28612c622c632c64297b746869732e6c6f633d637265617465566563746f72286109608201527f612c62292c746869732e773d63616e7661732e77696474682f322c746869732e6109808201527f683d63616e7661732e6865696768742f322c746869732e706167654e756d3d636109a08201527f2b312c746869732e696d673d647d72756e28297b696d61676528746869732e696109c08201527f6d672c746869732e6c6f632e782c746869732e6c6f632e792c3530302c3530306109e08201527f292c74657874416c69676e284c454654292c74657874466f6e74286d79466f6e610a008201527f74292c323d3d746869732e706167654e756d2626286472617774657874287468610a208201527f69732e6c6f632e782b7478745f315f782c746869732e6c6f632e792b7478745f610a408201527f315f792c74787431292c647261777465787428746869732e6c6f632e782b7478610a608201527f745f325f782c746869732e6c6f632e792b7478745f325f792c74787432292c64610a808201527f7261777465787428746869732e6c6f632e782b7478745f335f782c746869732e610aa08201527f6c6f632e792b7478745f335f792c74787433292c647261777465787428746869610ac08201527f732e6c6f632e782b7478745f345f782c746869732e6c6f632e792b7478745f34610ae08201527f5f792c74787434292c647261777465787428746869732e6c6f632e782b747874610b008201527f5f355f782c746869732e6c6f632e792b7478745f355f792c74787435292c6472610b208201527f61777465787428746869732e6c6f632e782b7478745f365f782c746869732e6c610b408201527f6f632e792b7478745f365f792c7478743629293b333d3d746869732e70616765610b608201527f4e756d2c6c696e6528746869732e6c6f632e782c746869732e6c6f632e792c74610b808201527f6869732e6c6f632e782b746869732e772c746869732e6c6f632e79292c6c696e610ba08201527f6528746869732e6c6f632e782c746869732e6c6f632e792c746869732e6c6f63610bc08201527f2e782c746869732e6c6f632e792b746869732e68292c6c696e6528746869732e610be08201527f6c6f632e782c746869732e6c6f632e792b746869732e682c746869732e6c6f63610c008201527f2e782b746869732e772c746869732e6c6f632e792b746869732e68292c6c696e610c208201527f6528746869732e6c6f632e782b746869732e772c746869732e6c6f632e792c74610c408201527f6869732e6c6f632e782b746869732e772c746869732e68297d7d636c61737320610c608201527f427574746f6e7b636f6e7374727563746f7228612c622c632c642c65297b7468610c808201527f69732e6c6f633d6e657720637265617465566563746f7228612c62292c746869610ca08201527f732e773d632c746869732e683d642c746869732e636c723d227768697465222c610cc08201527f746869732e696d673d657d72756e28297b746869732e72656e64657228292c74610ce08201527f6869732e636865636b4d6f75736528297d72656e64657228297b66696c6c2874610d008201527f6869732e636c72292c7374726f6b65283230292c7374726f6b65576569676874610d208201527f2830292c66696c6c2822626c61636b22292c6e6f5374726f6b6528292c746578610d408201527f7453697a65283135292c696d61676528746869732e696d672c746869732e6c6f610d608201527f632e782c746869732e6c6f632e792c746869732e772c746869732e68297d6368610d808201527f65636b4d6f75736528297b746869732e636c723d6d6f757365583e746869732e610da08201527f6c6f632e7826266d6f757365583c746869732e6c6f632e782b746869732e7726610dc08201527f266d6f757365593e746869732e6c6f632e7926266d6f757365593c746869732e610de08201527f6c6f632e792b746869732e683f2267726179223a227768697465227d7d000000610e00820152610e1d010394601f199586810182526120689082610309565b806120728a6127df565b5160c001525161208190612829565b865180809a81937f34c3c9d500000000000000000000000000000000000000000000000000000000835260048301916120b9926130ea565b035a927316b727a2fc9322c724f4bc562910c99a5eda5084600094fa978815996122046121db61215a9b6122529a612246986101949f9861215a98612210986122159b6122a1575b60009561225c575b506121896121b29361215a61216061215a979561212961215a9651613a3d565b96519e8f9d8e016009907f7b226e616d65223a22000000000000000000000000000000000000000000000081520190565b90612e28565b7f222c226465736372697074696f6e223a225465616d3a20000000000000000000815260170190565b7f2c2049443a200000000000000000000000000000000000000000000000000000815260060190565b7f222c22616e696d6174696f6e5f75726c223a2200000000000000000000000000815260130190565b7f227d000000000000000000000000000000000000000000000000000000000000815260020190565b03868101835282610309565b613539565b85519687938401601d907f646174613a6170706c69636174696f6e2f6a736f6e3b6261736536342c00000081520190565b03908101845283610309565b519182918261011b565b6121b29361215a61216061215a97956121296122916121899661215a989c3d8091833e6122898183610309565b810190612c4e565b9a96505095975050509350612109565b6122a9612a58565b612101565b6122c1913d8091833e6122898183610309565b386109c3565b6122cf612a58565b6109bb565b6122f4929350803d106122fc575b6122ec8183610309565b810190612a43565b90388e610968565b503d6122e2565b61230b612a58565b610961565b83919550916123396109ae936000953d8511612343575b6123318183610309565b810190612d91565b9591935091610943565b503d612327565b612352612a58565b61093b565b61236f919550833d85116122fc576122ec8183610309565b93386108e9565b61237e612a58565b6108e1565b6123bb61088161239292613a3d565b7f20696e206578697374656e6365000000000000000000000000000000000000008152600d0190565b986108cb565b600188036123d95750506123d3612f87565b93610855565b600288036123eb5750506123d3612f28565b600388036123fd5750506123d3612eef565b600488149081612420575b501561241757506123d3612eb6565b6123d390612e3b565b905089517fa8c15f4a0000000000000000000000000000000000000000000000000000000081528b816004818d5afa918215612491575b91612464575b5038612408565b61248491508b3d8d1161248a575b61247c8183610309565b810190612e14565b3861245d565b503d612472565b612499612a58565b612457565b6124b69192508d803d10612343576123318183610309565b903861083d565b6124c5612a58565b610836565b6124e191508d803d10612343576123318183610309565b38610800565b6124ef612a58565b6107f9565b6125139250803d1061251a575b61250b8183610309565b810190612da0565b38806107a7565b503d612501565b612529612a58565b61079f565b61254591508b3d8d11612343576123318183610309565b38610753565b612553612a58565b61074b565b61256f91508a3d8c116122fc576122ec8183610309565b38610715565b61257d612a58565b61070d565b600581101561259a5750612594612d58565b916106d2565b60088110156125ac5750612594612d58565b600a8110156125be5750612594612d58565b600c8110156125d05750612594612d58565b60108110156125e25750612594612d58565b60178110156125f45750612594612d58565b601e8110156126065750612594612d1f565b6023111561261657612594612ce6565b612594612cad565b612626612cad565b996106bc565b6126419297503d8091833e6122898183610309565b943880610686565b612651612a58565b61067f565b6126759250803d1061267c575b61266d8183610309565b810190612a7d565b38806105b1565b503d612663565b61268b612a58565b6105a9565b6126a8919450833d85116122fc576122ec8183610309565b923861054b565b6126b7612a58565b610543565b90600182811c921680156126ec575b60208310146126d657565b634e487b7160e01b600052602260045260246000fd5b91607f16916126cb565b906040519182600082549261270a846126bc565b9081845260019485811690816000146127795750600114612736575b505061273492500383610309565b565b9093915060005260209081600020936000915b81831061276157505061273493508201013880612726565b85548884018501529485019487945091830191612749565b905061273495506020935060ff1991501682840152151560051b8201013880612726565b50634e487b7160e01b600052603260045260246000fd5b6020908051156127c2570190565b6127ca61279d565b0190565b6040908051600110156127c2570190565b6060908051600210156127c2570190565b6020918151811015612805575b60051b010190565b61280d61279d565b6127fd565b50634e487b7160e01b600052601160045260246000fd5b90620f424091820180921161283a57565b612734612812565b906002820180921161283a57565b906020820180921161283a57565b9190820180921161283a57565b90601f811161287957505050565b600091825260208220906020601f850160051c830194106128b5575b601f0160051c01915b8281106128aa57505050565b81815560010161289e565b9092508290612895565b6001600160a01b03807f000000000000000000000000000000000000000000000000000000000000000016301461000e5760019182549180831661000e577fffffffffffffffffffffffff00000000000000000000000000000000000000009116911617815581519160005b8381106129385750505050565b61294281836127f0565b51838201809211612a36575b81600052602060008152604060002091805191829167ffffffffffffffff8311612a29575b6129878361298187546126bc565b8761286b565b81601f84116001146129be57506000926129b3575b505060001982871b9260031b1c191617905561292b565b01519050388061299c565b9190601f198995166129d587600052602060002090565b936000905b828210612a1057505084116129f7575b505050811b01905561292b565b015160001960f88460031b161c191690553880806129ea565b8484015186558b979095019493840193908101906129da565b612a31610275565b612973565b612a3e612812565b61294e565b9081602091031261000e575161012c81610264565b506040513d6000823e3d90fd5b519061273482610264565b5190811515820361000e57565b90816101c091031261000e57612a9161032c565b90805182526020810151602083015260408101516040830152606081015160608301526080810151608083015260a081015160a083015260c081015160c0830152612ade60e08201612a65565b60e08301526101008082015190830152610120612afc818301612a65565b9083015261014080820151908301526101608082015190830152610180612b24818301612a70565b90830152612b366101a0809201612a70565b9082015290565b60409081519160809081840184811067ffffffffffffffff821117612bbc575b8152600384528392600092835b606080821015612bb257845160209291612b838261028c565b808252839088828401528088840152888184015280868401528060a084015260c0830152828a01015201612b6a565b5050509293505050565b612bc4610275565b612b5d565b60405190612bd6826102b5565b60008252565b60405190612be9826102d1565b601382527f70352d76312e352e302e6d696e2e6a732e677a000000000000000000000000006020830152565b60405190612c22826102d1565b601682527f67756e7a6970536372697074732d302e302e312e6a73000000000000000000006020830152565b60208183031261000e5780519067ffffffffffffffff821161000e570181601f8201121561000e578051612c8181610395565b92612c8f6040519485610309565b8184526020828401011161000e5761012c91602080850191016100d3565b60405190612cba826102d1565b600282527f31360000000000000000000000000000000000000000000000000000000000006020830152565b60405190612cf3826102d1565b600282527f32300000000000000000000000000000000000000000000000000000000000006020830152565b60405190612d2c826102d1565b600282527f33300000000000000000000000000000000000000000000000000000000000006020830152565b60405190612d65826102d1565b600282527f34300000000000000000000000000000000000000000000000000000000000006020830152565b9081602091031261000e575190565b908161012091031261000e57612db461034d565b90805182526020810151602083015260408101516040830152606081015160608301526080810151608083015260a081015160a083015260c081015160c0830152612e0160e08201612a65565b60e0830152610100809101519082015290565b9081602091031261000e5761012c90612a70565b906127ca602092828151948592016100d3565b90612734603760405180947f52656465656d20666f72200000000000000000000000000000000000000000006020830152612e80815180926020602b860191016100d3565b81017f206f662074686520706f742e0000000000000000000000000000000000000000602b820152036017810185520183610309565b60405190612ec3826102d1565b601c82527f53636f726563617264206177616974696e6720617070726f76616c2e000000006020830152565b60405190612efc826102d1565b601182527f47616d6520696e2070726f67726573732e0000000000000000000000000000006020830152565b60405190612f35826102ed565b602482527f756e642e000000000000000000000000000000000000000000000000000000006040837f53746172747320736f6f6e2e204c617374206368616e636520666f722072656660208201520152565b60405190612f94826102ed565b602c82527f647320617265206f70656e2e00000000000000000000000000000000000000006040837f5374617274696e6720736f6f6e2c206d696e74696e6720616e6420726566756e60208201520152565b60405190612ff3826102d1565b601482527f4d696e74696e672073746172747320736f6f6e2e0000000000000000000000006020830152565b9190820391821161283a57565b60405190613039826102ed565b602e82527f6a3966784c7231464d33767a4d6f0000000000000000000000000000000000006040837f516d654234374b6662486574485070517250676d44394378434462396532553960208201520152565b60405190613098826102ed565b602e82527f3550667554546270563442624a560000000000000000000000000000000000006040837f516d64704c31784e346341485177345031465a7a773950336f516f664138683460208201520152565b929190604080850190808652825180925260609182870192808260051b890101936020809601936000925b878b86861061312b575050505050505050930152565b6131e1897fffffffffffffffffffffffffffffffffffffffffffffffffffffffffffffffa084936001969798999a9b9c030188528a516131ce6131bb61319d61317c845160e08088528701906100f6565b6001600160a01b038886015116888701528b8501518682038d8801526100f6565b838a015160ff16858b015260808085015190868303908701526100f6565b60a08084015190858303908601526100f6565b9160c080920151918184039101526100f6565b9801940194019294939190613115565b60006132a991604090815182810181811067ffffffffffffffff8211176132e1575b835261012c81526001600160a01b0383519161322e836102d1565b600683527f6e6f726d616c00000000000000000000000000000000000000000000000000006020840152602081019283528451968795869485937fbf6519ad000000000000000000000000000000000000000000000000000000008552602060048601525160248501525190604484015260648301906100f6565b0392165afa9081156132d4575b6000916132c1575090565b61012c913d8091833e6122898183610309565b6132dc612a58565b6132b6565b6132e9610275565b613213565b908160021b917f3fffffffffffffffffffffffffffffffffffffffffffffffffffffffffffffff81160361283a57565b90600e820291808304600e149015171561283a57565b8181029291811591840414171561283a57565b50634e487b7160e01b600052601260045260246000fd5b61336b8261337092613334565b61331e565b8115613484575b04613390612710613389818404613a3d565b9206613a3d565b80515b6004811061340f57506133bd916108bb6133e661012c9361215a6040519687956020870190612e28565b7f2e00000000000000000000000000000000000000000000000000000000000000815260010190565b7f2500000000000000000000000000000000000000000000000000000000000000815260010190565b9060019061346660405191826020917f3000000000000000000000000000000000000000000000000000000000000000838301526134578151809260219586860191016100d3565b81010384810184520182610309565b916000198114613477575b01613393565b61347f612812565b613471565b61348c613347565b613377565b6040519061349e826102ed565b604082527f6768696a6b6c6d6e6f707172737475767778797a303132333435363738392b2f6040837f4142434445464748494a4b4c4d4e4f505152535455565758595a61626364656660208201520152565b6040516134fc816102b5565b60008152906000368137565b9061351282610395565b61351f6040519182610309565b828152601f1961352f8294610395565b0190602036910137565b80511561366c57613548613491565b61356461355f6135588451612842565b6003900490565b6132ee565b9161357661357184612850565b613508565b92835280815182019060208501935b82821061361a575050506003905106806001146135d1576002146135a7575090565b6000197f3d0000000000000000000000000000000000000000000000000000000000000091015290565b507ffffffffffffffffffffffffffffffffffffffffffffffffffffffffffffffffe7f3d3d00000000000000000000000000000000000000000000000000000000000091015290565b9091936004906003809401938451600190603f9082828260121c16880101518553828282600c1c16880101518386015382828260061c1688010151600286015316850101519082015301939190613585565b5061012c612bc9565b9061012c906136bf6040516020927f1220000000000000000000000000000000000000000000000000000000000000848301526022820152602281526136ba816102ed565b61377a565b9260405193816136d886935180928680870191016100d3565b82016136ec825180938680850191016100d3565b01038084520182610309565b604051906105e0820182811067ffffffffffffffff821117613727575b604052602e82526105c0366020840137565b61372f610275565b613715565b9061373e8261036e565b61374b6040519182610309565b828152601f1961352f829461036e565b90602091805182101561376d57010190565b61377561279d565b010190565b908151156138b75761378a6136f8565b9160009081613798856127b4565b5260019181519181925b8084106137c857505050506137be6137c39161012c93946138c1565b613904565b61394b565b9091929461381161380b6138056137df898761375b565b517fff000000000000000000000000000000000000000000000000000000000000001690565b60f81c90565b60ff1690565b9184925b60ff9089828916861015613876576001929161384a61384461380b61383d8a613850966127f0565b5160ff1690565b60081b90565b9061285e565b61386d8b61386588603a9586860616926127f0565b9060ff169052565b04930192613815565b50919594935050809691965b6138905750600101926137a2565b9460ff6001603a926138ad83858b06166138658d868516906127f0565b0116950480613882565b905061012c6134f0565b9060ff809116906138d182613734565b9260005b8381106138e3575050505090565b80836138f1600193856127f0565b51166138fd82886127f0565b52016138d5565b90815161391081613734565b9060005b818110613922575090925050565b8060ff61393860001960019489510301886127f0565b511661394482866127f0565b5201613914565b805161395681610395565b9160409061396682519485610309565b828452601f1961397584610395565b01906020913683870137600092835b8581106139945750505050505090565b6001907fff00000000000000000000000000000000000000000000000000000000000000613a2884516139c6816102ed565b603a81527f31323334353637383941424344454647484a4b4c4d4e50515253545556575859888201527f5a6162636465666768696a6b6d6e6f707172737475767778797a0000000000008682015260ff613a2085896127f0565b51169061375b565b5116861a613a36828a61375b565b5301613984565b806000917a184f03e93ff9f4daa797ed6e38ed64bf6a1f01000000000000000080821015613b7f575b506d04ee2d6d415b85acef810000000080831015613b70575b50662386f26fc1000080831015613b61575b506305f5e10080831015613b52575b5061271080831015613b43575b506064821015613b33575b600a80921015613b29575b600190816021613ad4828701613508565b95860101905b613ae6575b5050505090565b600019849101917f30313233343536373839616263646566000000000000000000000000000000008282061a835304918215613b2457919082613ada565b613adf565b9160010191613ac3565b9190606460029104910191613ab8565b60049193920491019138613aad565b60089193920491019138613aa0565b60109193920491019138613a91565b60209193920491019138613a7f565b604093508104915038613a6656fea2646970667358221220c737e8849d0f542fb84caf6fa596fb18437d0411fc1349653a6c06e7e7ebd9b764736f6c63430008110033",
    "linkReferences": {}
  },
  "methodIdentifiers": {
    "BUFFER_SIZE()": "004e394e",
    "codeOrigin()": "1d153ca4",
    "delegate()": "c89e4361",
    "getUri(uint256)": "da0544aa",
    "initialize(address,string[])": "94e6f56f",
    "tierNameOf(uint256)": "1baabc3e",
    "typeface()": "4d5a1d11"
  },
  "id": 3
}