{
  "abi": [
    {
      "inputs": [],
      "stateMutability": "nonpayable",
      "type": "constructor"
    },
    {
      "inputs": [],
      "name": "BUFFER_SIZE",
      "outputs": [
        {
          "internalType": "uint256",
          "name": "",
          "type": "uint256"
        }
      ],
      "stateMutability": "view",
      "type": "function"
    },
    {
      "inputs": [],
      "name": "codeOrigin",
      "outputs": [
        {
          "internalType": "address",
          "name": "",
          "type": "address"
        }
      ],
      "stateMutability": "view",
      "type": "function"
    },
    {
      "inputs": [],
      "name": "delegate",
      "outputs": [
        {
          "internalType": "contract IDefifaDelegate",
          "name": "",
          "type": "address"
        }
      ],
      "stateMutability": "view",
      "type": "function"
    },
    {
      "inputs": [
        {
          "internalType": "uint256",
          "name": "_tokenId",
          "type": "uint256"
        }
      ],
      "name": "getUri",
      "outputs": [
        {
          "internalType": "string",
          "name": "",
          "type": "string"
        }
      ],
      "stateMutability": "view",
      "type": "function"
    },
    {
      "inputs": [
        {
          "internalType": "contract IDefifaDelegate",
          "name": "_delegate",
          "type": "address"
        },
        {
          "internalType": "string[]",
          "name": "_tierNames",
          "type": "string[]"
        }
      ],
      "name": "initialize",
      "outputs": [],
      "stateMutability": "nonpayable",
      "type": "function"
    },
    {
      "inputs": [
        {
          "internalType": "uint256",
          "name": "_tierId",
          "type": "uint256"
        }
      ],
      "name": "tierNameOf",
      "outputs": [
        {
          "internalType": "string",
          "name": "",
          "type": "string"
        }
      ],
      "stateMutability": "view",
      "type": "function"
    },
    {
      "inputs": [
        {
          "internalType": "string",
          "name": "str",
          "type": "string"
        },
        {
          "internalType": "uint256",
          "name": "start",
          "type": "uint256"
        },
        {
          "internalType": "uint256",
          "name": "end",
          "type": "uint256"
        }
      ],
      "name": "trim",
      "outputs": [
        {
          "internalType": "string",
          "name": "",
          "type": "string"
        }
      ],
      "stateMutability": "view",
      "type": "function"
    }
  ],
  "bytecode": {
    "object": "0x60a0806040523461002a5730608052613661908161003082396080518181816101f601526124c50152f35b600080fdfe6080604052600436101561001257600080fd5b6000803560e01c9081624e394e14610089575080631baabc3e146100845780631d153ca41461007f57806394e6f56f1461007a578063c89e436114610075578063da0544aa146100705763e14c63f51461006b57600080fd5b612256565b61044f565b610428565b610365565b6101d6565b610105565b346100a657806003193601126100a657620f424060805260206080f35b80fd5b60005b8381106100bc5750506000910152565b81810151838201526020016100ac565b90601f19601f6020936100ea815180928187528780880191016100a9565b0116010190565b9060206101029281815201906100cc565b90565b346101d1576020806003193601126101d157600090600435825281815260408220906040519183815490610138826122b4565b808652926001928084169081156101ad5750600114610172575b61016e86610162818a03826102b6565b604051918291826100f1565b0390f35b9080949650528483205b82841061019a575050508161016e9361016292820101933880610152565b805485850187015292850192810161017c565b60ff19168787015250505050151560051b82010191506101628161016e3880610152565b600080fd5b346101d15760006003193601126101d15760206040516001600160a01b037f0000000000000000000000000000000000000000000000000000000000000000168152f35b6001600160a01b038116036101d157565b634e487b7160e01b600052604160045260246000fd5b60e0810190811067ffffffffffffffff82111761025d57604052565b61022b565b6020810190811067ffffffffffffffff82111761025d57604052565b6040810190811067ffffffffffffffff82111761025d57604052565b6060810190811067ffffffffffffffff82111761025d57604052565b90601f601f19910116810190811067ffffffffffffffff82111761025d57604052565b604051906101c0820182811067ffffffffffffffff82111761025d57604052565b67ffffffffffffffff811161025d5760051b60200190565b67ffffffffffffffff811161025d57601f01601f191660200190565b92919261033a82610312565b9161034860405193846102b6565b8294818452818301116101d1578281602093846000960137010152565b346101d15760406003193601126101d1576004356103828161021a565b602480359167ffffffffffffffff928381116101d157366023820112156101d1578060040135926103b2846102fa565b936103c060405195866102b6565b808552602095828787019260051b850101933685116101d157838101925b8584106103f1576103ef88886124ba565b005b83358381116101d1578201366043820112156101d157899161041d8392369060448a820135910161032e565b8152019301926103de565b346101d15760006003193601126101d15760206001600160a01b0360015416604051908152f35b346101d15760206003193601126101d1576004356104846104786001546001600160a01b031690565b6001600160a01b031690565b60405163975057e760e01b8152602081600481855afa90811561201657600091612237575b506040517fb67cb0470000000000000000000000000000000000000000000000000000000081526001600160a01b038381166004830152602482018590526101c092839183916044918391165afa9182156120165760009261220a575b505061051061271b565b9261051a846123cb565b516105236127ac565b905261053b6060610533866123cb565b510160029052565b6105646020610549866123cb565b510173fc7453da7bf4d0c739c1c53da57b3636dab0e11e9052565b61056d846123dd565b516105766127e5565b905261058e6060610586866123dd565b510160019052565b61059c6020610549866123dd565b6000936040517f06fdde030000000000000000000000000000000000000000000000000000000081528581600481885afa9586156120165780966121ed575b50506105fa6105f584516000526000602052604060002090565b6122ee565b9360238651106000146121df5761060f6128b6565b905b855160038110156121435750610625612928565b935b6040517f4f228e1100000000000000000000000000000000000000000000000000000000815260048101829052602081602481865afa90811561201657600091612124575b50604051907f640abacd000000000000000000000000000000000000000000000000000000008252602082600481875afa908115612016576106b692600092612103575b50612db1565b604051907f9df4546800000000000000000000000000000000000000000000000000000000825261100082600481875afa9081156120165761073092610701926120d2575b506129e6565b9361071d61071860808a015160608b015190612a61565b6134db565b61075960405193849260208401906129cf565b7f20696e206578697374656e6365000000000000000000000000000000000000008152600d0190565b039661076d601f19988981018552846102b6565b6040519463975057e760e01b8652602086600481845afa958615612016576000966120b1575b50602060405180977fc8df1710000000000000000000000000000000000000000000000000000000008252816001600160a01b03816107ec8b8860048401602090939291936001600160a01b0360408201951681520152565b0392165afa95861561201657600096612080575b506040519063975057e760e01b8252602082600481845afa918215612016576001600160a01b039260009261087c92849261204f575b506040519485809481937ff682eeaf000000000000000000000000000000000000000000000000000000008352600483019190916001600160a01b036020820193169052565b0392165afa908115612016576108d3966000926108a0928491612036575b506130bf565b604051809781927fe14c63f500000000000000000000000000000000000000000000000000000000835260048301612a6e565b0381305afa9485156120165760009561201b575b506108f0612a92565b956108f9612af1565b9461090261346b565b9061090c906134db565b938d610916612c57565b6040517f6c657420617274576f726b49504653203d22000000000000000000000000000060208201529a8b9a91999160328c01610952916129cf565b61223b60f01b81526002017f6c65742073636f72654361726449504653203d22000000000000000000000000815260140161098c916129cf565b61223b60f01b81526002017f6c657420627574746f6e496d61676549504653203d220000000000000000000081526016016109c6916129cf565b61223b60f01b81526002017f6c6574207478745f31203d2200000000000000000000000000000000000000008152600c01610a00916129cf565b7f222e746f55707065724361736528293b6c6574207478745f3153697a65203d008152601f01610a2f916129cf565b7f3b6c6574207478745f31436f6c6f72203d202223313765346631223b6c65742081527f7478745f315f78203d2034303b6c6574207478745f315f79203d2038303b00006020820152603e017f6c6574207478745f32203d2247414d45205048415345200000000000000000008152601701610aaa916129cf565b7f206f66203400000000000000000000000000000000000000000000000000000081526005017f223b6c6574207478745f3253697a65203d2032303b6c6574207478745f32436f81527f6c6f72203d202223313765346631223b6c6574207478745f325f78203d20343060208201527f3b6c6574207478745f325f79203d203232303b0000000000000000000000000060408201526053017f6c6574207478745f33203d2200000000000000000000000000000000000000008152600c01610b71916129cf565b7f223b6c6574207478745f3353697a65203d2032303b6c6574207478745f33436f81527f6c6f72203d202223666561323832223b6c6574207478745f335f78203d20343060208201527f3b6c6574207478745f335f79203d203235303b0000000000000000000000000060408201526053017f6c6574207478745f34203d2200000000000000000000000000000000000000008152600c01610c13908b6129cf565b7f223b6c6574207478745f3453697a65203d0000000000000000000000000000008152601101610c42916129cf565b7f3b6c6574207478745f34436f6c6f72203d202223666561323832223b6c65742081527f7478745f345f78203d2034303b6c6574207478745f345f79203d203133303b006020820152603f017f6c6574207478745f35203d22544f4b454e2049443a20000000000000000000008152601601610cbd916129cf565b7f223b6c6574207478745f3553697a65203d2031363b6c6574207478745f35436f81527f6c6f72203d202223464646464646223b6c6574207478745f355f78203d20343060208201527f3b6c6574207478745f355f79203d203337303b0000000000000000000000000060408201526053017f6c6574207478745f36203d225241524954593a200000000000000000000000008152601401610d5e916129cf565b7f223b6c6574207478745f3653697a65203d2031363b6c6574207478745f36436f81527f6c6f72203d202223464646464646223b6c6574207478745f365f78203d20343060208201527f3b6c6574207478745f365f79203d203430303b0000000000000000000000000060408201526053017f6c657420666f6e74203d2022646174613a666f6e742f74727565747970653b6381527f6861727365743d7574662d383b6261736536342c0000000000000000000000006020820152603401610e25916129cf565b61223b60f01b81526002017f6c657420706167652c63616d4c6f632c627574744c2c62757474522c74696d6581527f722c627574746f6e496d672c70616765733d5b5d2c6e756d4f6650616765733d60208201527f322c6d6f76696e6752696768743d21312c6d6f76696e674c6566743d21312c6960408201527f735061757365643d21312c617274576f726b50616e656c3d2268747470733a2f60608201527f2f6a626d2e696e667572612d697066732e696f2f697066732f222b617274576f60808201527f726b495046532c73636f72654361726450616e656c3d2268747470733a2f2f6a60a08201527f626d2e696e667572612d697066732e696f2f697066732f222b73636f7265436160c08201527f7264495046532c627574746f6e496d6167653d2268747470733a2f2f6a626d2e60e08201527f696e667572612d697066732e696f2f697066732f222b627574746f6e496d61676101008201527f65495046532c646566696661426c75653d5b31392c3232382c3234305d2c74786101208201527f74313d5b5b7478745f312c7478745f31436f6c6f722c7478745f3153697a655d6101408201527f5d2c747874323d5b5b7478745f322c7478745f32436f6c6f722c7478745f32536101608201527f697a655d5d2c747874333d5b5b7478745f332c7478745f33436f6c6f722c74786101808201527f745f3353697a655d5d2c747874343d5b5b7478745f342c7478745f34436f6c6f6101a08201527f722c7478745f3453697a655d5d2c747874353d5b5b7478745f352c7478745f356101c08201527f436f6c6f722c7478745f3553697a655d5d2c747874363d5b5b7478745f362c746101e08201527f78745f36436f6c6f722c7478745f3653697a655d5d2c70616765496d673d5b5d6102008201527f3b66756e6374696f6e207072656c6f616428297b70616765496d675b305d3d6c6102208201527f6f6164496d61676528617274576f726b50616e656c292c70616765496d675b316102408201527f5d3d6c6f6164496d6167652873636f72654361726450616e656c292c627574746102608201527f6f6e496d673d6c6f6164496d61676528627574746f6e496d616765297d66756e6102808201527f6374696f6e20736574757028297b6d79466f6e743d6c6f6164466f6e7428666f6102a08201527f6e74292c63726561746543616e766173283530302c353030292c63616d4c6f636102c08201527f3d637265617465566563746f7228302c30293b666f72286c657420613d303b616102e08201527f3c6e756d4f6650616765733b612b2b2970616765735b615d3d6e6577205061676103008201527f652863616e7661732e77696474682f322a612c302c612c70616765496d675b616103208201527f5d293b74696d65723d63616e7661732e77696474682f322c627574744c3d6e656103408201527f7720427574746f6e2863616e7661732e77696474682f322d39302c352c37352c6103608201527f37352c627574746f6e496d67292c62757474523d6e657720427574746f6e28636103808201527f616e7661732e77696474682f322d39302c352c37352c37352c627574746f6e496103a08201527f6d67297d66756e6374696f6e206472617728297b6261636b67726f756e6428326103c08201527f3230292c736c69646528292c7075736828292c7472616e736c6174652863616d6103e08201527f4c6f632e782c63616d4c6f632e79293b666f72286c657420613d303b613c6e756104008201527f6d4f6650616765733b612b2b2970616765735b615d2e72756e28293b706f70286104208201527f292c627574744c2e72756e28292c62757474522e72756e28297d66756e6374696104408201527f6f6e20676f526967687428297b6d6f76696e674c6566747c7c697350617573656104608201527f647c7c286d6f76696e6752696768743d2130297d66756e6374696f6e20676f4c6104808201527f65667428297b6d6f76696e6752696768747c7c69735061757365647c7c286d6f6104a08201527f76696e674c6566743d2130297d66756e6374696f6e20736c69646528297b6d6f6104c08201527f76696e6752696768742626216d6f76696e674c6566742626303c3d74696d65726104e08201527f26262863616d4c6f632e782d3d32302c74696d65722d3d3230292c6d6f76696e6105008201527f674c6566742626216d6f76696e6752696768742626303c3d74696d65722626286105208201527f63616d4c6f632e782b3d32302c74696d65722d3d3230292c303d3d74696d65726105408201527f2626286d6f76696e6752696768743d21312c6d6f76696e674c6566743d21312c6105608201527f74696d65723d63616e7661732e77696474682f32292c303e3d2d63616d4c6f636105808201527f2e783f2863616d4c6f632e783d302c627574744c2e6c6f632e783d2d313030296105a08201527f3a627574744c2e6c6f632e783d63616e7661732e6865696768742f322d37352c6105c08201527f2d63616d4c6f632e783e3d70616765735b70616765732e6c656e6774682d315d6105e08201527f2e6c6f632e783f2874696d65723d63616e7661732e77696474682f322c6d6f766106008201527f696e6752696768743d21312c6d6f76696e674c6566743d21312c63616d4c6f636106208201527f2e783d2d70616765735b70616765732e6c656e6774682d315d2e6c6f632e782c6106408201527f62757474522e6c6f632e783d2d313030293a62757474522e6c6f632e783d63616106608201527f6e7661732e6865696768742f322d37357d66756e6374696f6e206472617774656106808201527f787428612c622c64297b666f722876617220653d612c663d303b663c642e6c656106a08201527f6e6774683b2b2b66297b76617220673d645b665d2c683d675b305d2c6a3d675b6106c08201527f315d2c633d675b325d2c6b3d7465787457696474682868293b66696c6c286a296106e08201527f2c7465787453697a652863292c7465787428682c652c62292c652b3d6b7d7d666107008201527f756e6374696f6e206d6f7573655072657373656428297b6d6f757365583e62756107208201527f74744c2e6c6f632e7826266d6f757365583c627574744c2e6c6f632e782b62756107408201527f74744c2e7726266d6f757365593e627574744c2e6c6f632e7926266d6f7573656107608201527f593c627574744c2e6c6f632e792b627574744c2e682626676f4c65667428292c6107808201527f6d6f757365583e62757474522e6c6f632e7826266d6f757365583c62757474526107a08201527f2e6c6f632e782b62757474522e7726266d6f757365593e62757474522e6c6f636107c08201527f2e7926266d6f757365593c62757474522e6c6f632e792b62757474522e6826266107e08201527f676f526967687428297d636c61737320506167657b636f6e7374727563746f726108008201527f28612c622c632c64297b746869732e6c6f633d637265617465566563746f72286108208201527f612c62292c746869732e773d63616e7661732e77696474682f322c746869732e6108408201527f683d63616e7661732e6865696768742f322c746869732e706167654e756d3d636108608201527f2b312c746869732e696d673d647d72756e28297b696d61676528746869732e696108808201527f6d672c746869732e6c6f632e782c746869732e6c6f632e792c3530302c3530306108a08201527f292c74657874416c69676e284c454654292c74657874466f6e74286d79466f6e6108c08201527f74292c323d3d746869732e706167654e756d26262864726177746578742874686108e08201527f69732e6c6f632e782b7478745f315f782c746869732e6c6f632e792b7478745f6109008201527f315f792c74787431292c647261777465787428746869732e6c6f632e782b74786109208201527f745f325f782c746869732e6c6f632e792b7478745f325f792c74787432292c646109408201527f7261777465787428746869732e6c6f632e782b7478745f335f782c746869732e6109608201527f6c6f632e792b7478745f335f792c74787433292c6472617774657874287468696109808201527f732e6c6f632e782b7478745f345f782c746869732e6c6f632e792b7478745f346109a08201527f5f792c74787434292c647261777465787428746869732e6c6f632e782b7478746109c08201527f5f355f782c746869732e6c6f632e792b7478745f355f792c74787435292c64726109e08201527f61777465787428746869732e6c6f632e782b7478745f365f782c746869732e6c610a008201527f6f632e792b7478745f365f792c7478743629293b333d3d746869732e70616765610a208201527f4e756d2c6c696e6528746869732e6c6f632e782c746869732e6c6f632e792c74610a408201527f6869732e6c6f632e782b746869732e772c746869732e6c6f632e79292c6c696e610a608201527f6528746869732e6c6f632e782c746869732e6c6f632e792c746869732e6c6f63610a808201527f2e782c746869732e6c6f632e792b746869732e68292c6c696e6528746869732e610aa08201527f6c6f632e782c746869732e6c6f632e792b746869732e682c746869732e6c6f63610ac08201527f2e782b746869732e772c746869732e6c6f632e792b746869732e68292c6c696e610ae08201527f6528746869732e6c6f632e782b746869732e772c746869732e6c6f632e792c74610b008201527f6869732e6c6f632e782b746869732e772c746869732e68297d7d636c61737320610b208201527f427574746f6e7b636f6e7374727563746f7228612c622c632c642c65297b7468610b408201527f69732e6c6f633d6e657720637265617465566563746f7228612c62292c746869610b608201527f732e773d632c746869732e683d642c746869732e636c723d227768697465222c610b808201527f746869732e696d673d657d72756e28297b746869732e72656e64657228292c74610ba08201527f6869732e636865636b4d6f75736528297d72656e64657228297b66696c6c2874610bc08201527f6869732e636c72292c7374726f6b65283230292c7374726f6b65576569676874610be08201527f2830292c66696c6c2822626c61636b22292c6e6f5374726f6b6528292c746578610c008201527f7453697a65283135292c696d61676528746869732e696d672c746869732e6c6f610c208201527f632e782c746869732e6c6f632e792c746869732e772c746869732e68297d6368610c408201527f65636b4d6f75736528297b746869732e636c723d6d6f757365583e746869732e610c608201527f6c6f632e7826266d6f757365583c746869732e6c6f632e782b746869732e7726610c808201527f266d6f757365593e746869732e6c6f632e7926266d6f757365593c746869732e610ca08201527f6c6f632e792b746869732e683f2267726179223a227768697465227d7d000000610cc0820152610cdd01038381018252611dea90826102b6565b80611df4836123ed565b5160c0015251611e0390612427565b60405180809381937f34c3c9d50000000000000000000000000000000000000000000000000000000083526004830191611e3c92612b50565b035a927316b727a2fc9322c724f4bc562910c99a5eda5084600094fa801561201657611f8d6020611f81611f58611ed79461016e9a611fc79a6101629a611f9299600094611fd3575b5091611ed7611f06611f2f93611ed7611edd611ea4611ed798516134db565b956040519e8f9d8e016009907f7b226e616d65223a22000000000000000000000000000000000000000000000081520190565b906129cf565b7f222c226465736372697074696f6e223a225465616d3a20000000000000000000815260170190565b7f2c2049443a200000000000000000000000000000000000000000000000000000815260060190565b7f222c22616e696d6174696f6e5f75726c223a2200000000000000000000000000815260130190565b7f227d000000000000000000000000000000000000000000000000000000000000815260020190565b038481018352826102b6565b612f83565b6040517f646174613a6170706c69636174696f6e2f6a736f6e3b6261736536342c0000006020820152938491603d8301611ed7565b039081018352826102b6565b611f06611f2f93611ed7611edd611ea4612007611ed796611ed79a989b3d8091833e611fff81836102b6565b81019061281e565b99969850505050935050611e85565b612637565b61202f91953d8091833e611fff81836102b6565b93386108e7565b612049913d8091833e611fff81836102b6565b3861089a565b61207291925060203d602011612079575b61206a81836102b6565b810190612622565b9038610836565b503d612060565b6120a391965060203d6020116120aa575b61209b81836102b6565b810190612961565b9438610800565b503d612091565b6120cb91965060203d6020116120795761206a81836102b6565b9438610793565b6120f5906110003d611000116120fc575b6120ed81836102b6565b810190612970565b50386106fb565b503d6120e3565b61211d91925060203d6020116120aa5761209b81836102b6565b90386106b0565b61213d915060203d6020116120aa5761209b81836102b6565b3861066c565b600581101561215b5750612155612928565b93610627565b600881101561216d5750612155612928565b600a81101561217f5750612155612928565b600c8110156121915750612155612928565b60108110156121a35750612155612928565b60178110156121b55750612155612928565b601e8110156121c757506121556128ef565b602311156121d7576121556128b6565b61215561287d565b6121e761287d565b90610611565b6122029296503d8091833e611fff81836102b6565b9338806105db565b6122299250803d10612230575b61222181836102b6565b81019061265b565b3880610506565b503d612217565b612250915060203d6020116120795761206a81836102b6565b386104a9565b346101d15760606003193601126101d15767ffffffffffffffff6004358181116101d157366023820112156101d15780600401359182116101d15736602483830101116101d15761016e916101629160443591602480359201612395565b90600182811c921680156122e4575b60208310146122ce57565b634e487b7160e01b600052602260045260246000fd5b91607f16916122c3565b9060405191826000825492612302846122b4565b908184526001948581169081600014612371575060011461232e575b505061232c925003836102b6565b565b9093915060005260209081600020936000915b81831061235957505061232c9350820101388061231e565b85548884018501529485019487945091830191612341565b905061232c95506020935060ff1991501682840152151560051b820101388061231e565b909291928284116101d15782116101d1578261010293369303910161032e565b634e487b7160e01b600052603260045260246000fd5b8051156123d85760200190565b6123b5565b8051600110156123d85760400190565b8051600210156123d85760600190565b80518210156123d85760209160051b010190565b634e487b7160e01b600052601160045260246000fd5b90620f424091820180921161243857565b612411565b906002820180921161243857565b906020820180921161243857565b9190820180921161243857565b90601f811161247457505050565b600091825260208220906020601f850160051c830194106124b0575b601f0160051c01915b8281106124a557505050565b818155600101612499565b9092508290612490565b6001600160a01b03807f00000000000000000000000000000000000000000000000000000000000000001630146101d1576001918254918083166101d1577fffffffffffffffffffffffff00000000000000000000000000000000000000009116911617815581519160005b8381106125335750505050565b61253d81836123fd565b51838201809211612438578160005260206000815260406000209180519167ffffffffffffffff831161025d5782916125808361257a87546122b4565b87612466565b81601f84116001146125b757506000926125ac575b505060001982871b9260031b1c1916179055612526565b015190503880612595565b9190601f198995166125ce87600052602060002090565b936000905b82821061260957505084116125f0575b505050811b019055612526565b015160001960f88460031b161c191690553880806125e3565b8484015186558b979095019493840193908101906125d3565b908160209103126101d157516101028161021a565b6040513d6000823e3d90fd5b519061232c8261021a565b519081151582036101d157565b90816101c09103126101d15761266f6102d9565b90805182526020810151602083015260408101516040830152606081015160608301526080810151608083015260a081015160a083015260c081015160c08301526126bc60e08201612643565b60e083015261010080820151908301526101206126da818301612643565b908301526101408082015190830152610160808201519083015261018061270281830161264e565b908301526127146101a080920161264e565b9082015290565b60409081519160809081840184811067ffffffffffffffff82111761025d578152600384528392600092835b60608082101561278f5784516020929161276082610241565b808252839088828401528088840152888184015280868401528060a084015260c0830152828a01015201612747565b5050509293505050565b604051906127a682610262565b60008252565b604051906127b98261027e565b601382527f70352d76312e352e302e6d696e2e6a732e677a000000000000000000000000006020830152565b604051906127f28261027e565b601682527f67756e7a6970536372697074732d302e302e312e6a73000000000000000000006020830152565b6020818303126101d15780519067ffffffffffffffff82116101d1570181601f820112156101d157805161285181610312565b9261285f60405194856102b6565b818452602082840101116101d15761010291602080850191016100a9565b6040519061288a8261027e565b600282527f31360000000000000000000000000000000000000000000000000000000000006020830152565b604051906128c38261027e565b600282527f32300000000000000000000000000000000000000000000000000000000000006020830152565b604051906128fc8261027e565b600282527f33300000000000000000000000000000000000000000000000000000000000006020830152565b604051906129358261027e565b600282527f34300000000000000000000000000000000000000000000000000000000000006020830152565b908160209103126101d1575190565b9061100080838303126101d15781601f840112156101d1576040519281840184811067ffffffffffffffff82111761025d57604052839181019283116101d157905b8282106129bf5750505090565b81518152602091820191016129b2565b906129e2602092828151948592016100a9565b0190565b9061232c603760405180947f52656465656d20666f72200000000000000000000000000000000000000000006020830152612a2b815180926020602b860191016100a9565b81017f206f662074686520706f742e0000000000000000000000000000000000000000602b8201520360178101855201836102b6565b9190820391821161243857565b91906040612a866035926060865260608601906100cc565b93600760208201520152565b60405190612a9f8261029a565b602e82527f6a3966784c7231464d33767a4d6f0000000000000000000000000000000000006040837f516d654234374b6662486574485070517250676d44394378434462396532553960208201520152565b60405190612afe8261029a565b602e82527f3550667554546270563442624a560000000000000000000000000000000000006040837f516d64704c31784e346341485177345031465a7a773950336f516f664138683460208201520152565b929190604080850190808652825180925260609182870192808260051b890101936020809601936000925b878b868610612b91575050505050505050930152565b612c47897fffffffffffffffffffffffffffffffffffffffffffffffffffffffffffffffa084936001969798999a9b9c030188528a51612c34612c21612c03612be2845160e08088528701906100cc565b6001600160a01b038886015116888701528b8501518682038d8801526100cc565b838a015160ff16858b015260808085015190868303908701526100cc565b60a08084015190858303908601526100cc565b9160c080920151918184039101526100cc565b9801940194019294939190612b7b565b604080518181019080821067ffffffffffffffff83111761025d57600091835261012c8152825190612c888261027e565b600682527f6e6f726d616c0000000000000000000000000000000000000000000000000000602083015260208101918252612d04845194859384937fbf6519ad000000000000000000000000000000000000000000000000000000008552602060048601525160248501525190604484015260648301906100cc565b038173a77b7d93e79f1e6b4f77fab29d9ef85733a3d44a5afa90811561201657600091612d2f575090565b610102913d8091833e611fff81836102b6565b908160021b917f3fffffffffffffffffffffffffffffffffffffffffffffffffffffffffffffff81160361243857565b90600e820291808304600e149015171561243857565b8181029291811591840414171561243857565b634e487b7160e01b600052601260045260246000fd5b612dbe82612dc392612d88565b612d72565b8115612ed65704612de2612710612ddb8184046134db565b92066134db565b80515b60048110612e6f5750612e0f91612e61612e3861010293611ed760405196879560208701906129cf565b7f2e00000000000000000000000000000000000000000000000000000000000000815260010190565b7f2500000000000000000000000000000000000000000000000000000000000000815260010190565b03601f1981018352826102b6565b90612ec460405191826020917f300000000000000000000000000000000000000000000000000000000000000083830152612eb48151809260219586860191016100a9565b81010360018101845201826102b6565b90600019811461243857600101612de5565b612d9b565b60405190612ee88261029a565b604082527f6768696a6b6c6d6e6f707172737475767778797a303132333435363738392b2f6040837f4142434445464748494a4b4c4d4e4f505152535455565758595a61626364656660208201520152565b604051612f4681610262565b60008152906000368137565b90612f5c82610312565b612f6960405191826102b6565b828152601f19612f798294610312565b0190602036910137565b8051156130b657612f92612edb565b612fae612fa9612fa2845161243d565b6003900490565b612d42565b91612fc0612fbb8461244b565b612f52565b92835280815182019060208501935b8282106130645750505060039051068060011461301b57600214612ff1575090565b6000197f3d0000000000000000000000000000000000000000000000000000000000000091015290565b507ffffffffffffffffffffffffffffffffffffffffffffffffffffffffffffffffe7f3d3d00000000000000000000000000000000000000000000000000000000000091015290565b9091936004906003809401938451600190603f9082828260121c16880101518553828282600c1c16880101518386015382828260061c1688010151600286015316850101519082015301939190612fcf565b50610102612799565b90610102906131096040516020927f1220000000000000000000000000000000000000000000000000000000000000848301526022820152602281526131048161029a565b6131a8565b92604051938161312286935180928680870191016100a9565b8201613136825180938680850191016100a9565b010380845201826102b6565b604051906105e0820182811067ffffffffffffffff82111761025d57604052602e82526105c0366020840137565b9061317a826102fa565b61318760405191826102b6565b828152601f19612f7982946102fa565b9081518110156123d8570160200190565b908151156132e5576131b8613142565b91600090816131c6856123cb565b5260019181519181925b8084106131f657505050506131ec6131f19161010293946132ef565b613332565b613379565b9091929461323f61323961323361320d8987613197565b517fff000000000000000000000000000000000000000000000000000000000000001690565b60f81c90565b60ff1690565b9184925b60ff90898289168610156132a4576001929161327861327261323961326b8a61327e966123fd565b5160ff1690565b60081b90565b90612459565b61329b8b61329388603a9586860616926123fd565b9060ff169052565b04930192613243565b50919594935050809691965b6132be5750600101926131d0565b9460ff6001603a926132db83858b06166132938d868516906123fd565b01169504806132b0565b9050610102612f3a565b9060ff809116906132ff82613170565b9260005b838110613311575050505090565b808361331f600193856123fd565b511661332b82886123fd565b5201613303565b90815161333e81613170565b9060005b818110613350575090925050565b8060ff61336660001960019489510301886123fd565b511661337282866123fd565b5201613342565b805161338481610312565b91604090613394825194856102b6565b828452601f196133a384610312565b01906020913683870137600092835b8581106133c25750505050505090565b6001907fff0000000000000000000000000000000000000000000000000000000000000061345684516133f48161029a565b603a81527f31323334353637383941424344454647484a4b4c4d4e50515253545556575859888201527f5a6162636465666768696a6b6d6e6f707172737475767778797a0000000000008682015260ff61344e85896123fd565b511690613197565b5116861a613464828a613197565b53016133b2565b60405160046134798261027e565b6001908183526020368185013760218301825b613497575b50505090565b6000190190600a907f30313233343536373839616263646566000000000000000000000000000000008282061a8353049182156134d65791908261348c565b613491565b806000917a184f03e93ff9f4daa797ed6e38ed64bf6a1f0100000000000000008082101561361d575b506d04ee2d6d415b85acef81000000008083101561360e575b50662386f26fc10000808310156135ff575b506305f5e100808310156135f0575b50612710808310156135e1575b5060648210156135d1575b600a809210156135c7575b600190816021613572828701612f52565b95860101905b613584575b5050505090565b600019849101917f30313233343536373839616263646566000000000000000000000000000000008282061a8353049182156135c257919082613578565b61357d565b9160010191613561565b9190606460029104910191613556565b6004919392049101913861354b565b6008919392049101913861353e565b6010919392049101913861352f565b6020919392049101913861351d565b60409350810491503861350456fea26469706673582212205616fb145bad52702770067c459f9268b2a229755391344d7409eebca87f0dfe64736f6c63430008120033",
    "linkReferences": {}
  },
  "methodIdentifiers": {
    "BUFFER_SIZE()": "004e394e",
    "codeOrigin()": "1d153ca4",
    "delegate()": "c89e4361",
    "getUri(uint256)": "da0544aa",
    "initialize(address,string[])": "94e6f56f",
    "tierNameOf(uint256)": "1baabc3e",
    "trim(string,uint256,uint256)": "e14c63f5"
  },
  "id": 1
}