{
  "abi": [
    {
      "inputs": [],
      "stateMutability": "nonpayable",
      "type": "constructor"
    },
    {
      "inputs": [],
      "name": "BUFFER_SIZE",
      "outputs": [
        {
          "internalType": "uint256",
          "name": "",
          "type": "uint256"
        }
      ],
      "stateMutability": "view",
      "type": "function"
    },
    {
      "inputs": [],
      "name": "codeOrigin",
      "outputs": [
        {
          "internalType": "address",
          "name": "",
          "type": "address"
        }
      ],
      "stateMutability": "view",
      "type": "function"
    },
    {
      "inputs": [],
      "name": "delegate",
      "outputs": [
        {
          "internalType": "contract IDefifaDelegate",
          "name": "",
          "type": "address"
        }
      ],
      "stateMutability": "view",
      "type": "function"
    },
    {
      "inputs": [
        {
          "internalType": "uint256",
          "name": "_tokenId",
          "type": "uint256"
        }
      ],
      "name": "getUri",
      "outputs": [
        {
          "internalType": "string",
          "name": "",
          "type": "string"
        }
      ],
      "stateMutability": "view",
      "type": "function"
    },
    {
      "inputs": [
        {
          "internalType": "contract IDefifaDelegate",
          "name": "_delegate",
          "type": "address"
        },
        {
          "internalType": "string[]",
          "name": "_tierNames",
          "type": "string[]"
        }
      ],
      "name": "initialize",
      "outputs": [],
      "stateMutability": "nonpayable",
      "type": "function"
    },
    {
      "inputs": [
        {
          "internalType": "uint256",
          "name": "_tierId",
          "type": "uint256"
        }
      ],
      "name": "tierNameOf",
      "outputs": [
        {
          "internalType": "string",
          "name": "",
          "type": "string"
        }
      ],
      "stateMutability": "view",
      "type": "function"
    }
  ],
  "bytecode": {
    "object": "0x60a0806040523461002a573060805261325c9081610030823960805181818161020401526124740152f35b600080fdfe60806040526004361015610013575b600080fd5b6000803560e01c9081624e394e1461014b5781631baabc3e14610084575080631d153ca41461007b57806394e6f56f14610072578063c89e4361146100695763da0544aa1461006157600080fd5b61000e610476565b5061000e610441565b5061000e610354565b5061000e6101d6565b346101485761009236610168565b81526020818152604082209060405191838154906100af8261219d565b8086529260019280841690811561012457506001146100e9575b6100e5866100d9818a03826102be565b604051918291826101c2565b0390f35b9080949650528483205b82841061011157505050816100e5936100d9928201019385806100c9565b80548585018701529285019281016100f3565b60ff19168787015250505050151560051b82010191506100d9816100e585806100c9565b80fd5b34610148578060031936011261014857620f424060805260206080f35b600319602091011261000e5760043590565b60005b83811061018d5750506000910152565b818101518382015260200161017d565b90601f19601f6020936101bb8151809281875287808801910161017a565b0116010190565b9060206101d392818152019061019d565b90565b503461000e57600060031936011261000e57602060405173ffffffffffffffffffffffffffffffffffffffff7f0000000000000000000000000000000000000000000000000000000000000000168152f35b73ffffffffffffffffffffffffffffffffffffffff81160361000e57565b50634e487b7160e01b600052604160045260246000fd5b60e0810190811067ffffffffffffffff82111761027957604052565b610281610246565b604052565b6040810190811067ffffffffffffffff82111761027957604052565b6060810190811067ffffffffffffffff82111761027957604052565b90601f601f19910116810190811067ffffffffffffffff82111761027957604052565b604051906101c0820182811067ffffffffffffffff82111761027957604052565b60209067ffffffffffffffff811161031c575b60051b0190565b610324610246565b610315565b601f19601f60209267ffffffffffffffff8111610347575b01160190565b61034f610246565b610341565b503461000e5760408060031936011261000e576004359061037482610228565b602491823567ffffffffffffffff9384821161000e573660238301121561000e5781600401356103a381610302565b946103b0815196876102be565b818652602096838888019360051b8601019436861161000e57848101935b8685106103e1576103df898961245b565b005b843583811161000e578201903660438301121561000e57868201359061040682610329565b610412875191826102be565b8281526044933685858301011161000e578d8481969582966000940183860137830101528152019401936103ce565b503461000e57600060031936011261000e57602073ffffffffffffffffffffffffffffffffffffffff60015416604051908152f35b503461000e5761048536610168565b6104c06104a760015473ffffffffffffffffffffffffffffffffffffffff1690565b73ffffffffffffffffffffffffffffffffffffffff1690565b6040908151917f975057e7000000000000000000000000000000000000000000000000000000008352816020809560049582818881875afa908115612190575b600091612163575b5086855180927fb67cb0470000000000000000000000000000000000000000000000000000000082528173ffffffffffffffffffffffffffffffffffffffff8161057c886101c09d8e9884016020909392919373ffffffffffffffffffffffffffffffffffffffff60408201951681520152565b0392165afa958615612156575b600096612125575b505083949561059e612629565b966105a888612295565b516105b16126e7565b90526105c960606105c18a612295565b510160029052565b6105f1846105d68a612295565b510173fc7453da7bf4d0c739c1c53da57b3636dab0e11e9052565b6105fa886122af565b51610603612720565b905261061b60606106138a6122af565b510160019052565b610628846105d68a6122af565b60009186517f06fdde03000000000000000000000000000000000000000000000000000000008152838183818a5afa938415612118575b80946120fb575b505061068561068083516000526000602052604060002090565b6121d7565b9360238451106000146120eb57858861069c6127f1565b985b8751600381101561203457506107916106b5612863565b915b61074c84517f4f228e110000000000000000000000000000000000000000000000000000000081528681806106f38b8d83019190602083019252565b0381865afa908115612027575b60009161200a575b508551907f640abacd00000000000000000000000000000000000000000000000000000000825287828b81875afa918215611ffd575b600092611fce575b50612d59565b90845180917f9df45468000000000000000000000000000000000000000000000000000000008252818a6110009485935afa8015611fc1575b611f93575b505061292b565b99608087015160608801516107a5916129a6565b6107ae906130d6565b91835180938682016107bf91612918565b7f20696e206578697374656e6365000000000000000000000000000000000000008152600d01039b601f199c8d810185526107fa90856102be565b6108026129b3565b9661080b612a12565b93610814612a71565b61081c613066565b92610826906130d6565b9561082f612be4565b98517f6c657420617274576f726b49504653203d2200000000000000000000000000009a81019a8b529a8b9a60120161086791612918565b61223b60f01b81526002017f6c65742073636f72654361726449504653203d2200000000000000000000000081526014016108a191612918565b61223b60f01b81526002017f6c657420627574746f6e496d61676549504653203d220000000000000000000081526016016108db91612918565b61223b60f01b81526002017f6c6574207478745f31203d2200000000000000000000000000000000000000008152600c01610916908d612918565b7f222e746f55707065724361736528293b6c6574207478745f3153697a65203d008152601f0161094591612918565b7f3b6c6574207478745f31436f6c6f72203d202223313765346631223b6c65742081527f7478745f315f78203d2034303b6c6574207478745f315f79203d2038303b00006020820152603e017f6c6574207478745f32203d2247414d452050484153452000000000000000000081526017016109c091612918565b7f206f66203400000000000000000000000000000000000000000000000000000081526005017f223b6c6574207478745f3253697a65203d2032303b6c6574207478745f32436f81527f6c6f72203d202223313765346631223b6c6574207478745f325f78203d20343060208201527f3b6c6574207478745f325f79203d203232303b0000000000000000000000000060408201526053017f6c6574207478745f33203d2200000000000000000000000000000000000000008152600c01610a8791612918565b7f223b6c6574207478745f3353697a65203d2032303b6c6574207478745f33436f81527f6c6f72203d202223666561323832223b6c6574207478745f335f78203d20343060208201527f3b6c6574207478745f335f79203d203235303b0000000000000000000000000060408201526053017f6c6574207478745f34203d2200000000000000000000000000000000000000008152600c01610b29908b612918565b7f223b6c6574207478745f3453697a65203d0000000000000000000000000000008152601101610b5891612918565b7f3b6c6574207478745f34436f6c6f72203d202223666561323832223b6c65742081527f7478745f345f78203d2034303b6c6574207478745f345f79203d203133303b006020820152603f017f6c6574207478745f35203d22544f4b454e2049443a20000000000000000000008152601601610bd391612918565b7f223b6c6574207478745f3553697a65203d2031363b6c6574207478745f35436f81527f6c6f72203d202223464646464646223b6c6574207478745f355f78203d20343060208201527f3b6c6574207478745f355f79203d203337303b0000000000000000000000000060408201526053017f6c6574207478745f36203d225241524954593a200000000000000000000000008152601401610c7491612918565b7f223b6c6574207478745f3653697a65203d2031363b6c6574207478745f36436f81527f6c6f72203d202223464646464646223b6c6574207478745f365f78203d20343060208201527f3b6c6574207478745f365f79203d203430303b0000000000000000000000000060408201526053017f6c657420666f6e74203d2022646174613a666f6e742f74727565747970653b6381527f6861727365743d7574662d383b6261736536342c0000000000000000000000006020820152603401610d3b91612918565b61223b60f01b81526002017f6c657420706167652c63616d4c6f632c627574744c2c62757474522c74696d6581527f722c627574746f6e496d672c70616765733d5b5d2c6e756d4f6650616765733d60208201527f322c6d6f76696e6752696768743d21312c6d6f76696e674c6566743d21312c6960408201527f735061757365643d21312c617274576f726b50616e656c3d2268747470733a2f60608201527f2f74616e2d68696464656e2d776869707065742d3234392e6d7970696e61746160808201527f2e636c6f75642f697066732f222b617274576f726b495046532c73636f72654360a08201527f61726450616e656c3d2268747470733a2f2f74616e2d68696464656e2d77686960c08201527f707065742d3234392e6d7970696e6174612e636c6f75642f697066732f222b7360e08201527f636f726543617264495046532c627574746f6e496d6167653d2268747470733a6101008201527f2f2f74616e2d68696464656e2d776869707065742d3234392e6d7970696e61746101208201527f612e636c6f75642f697066732f222b627574746f6e496d616765495046532c646101408201527f6566696661426c75653d5b31392c3232382c3234305d2c747874313d5b5b74786101608201527f745f312c7478745f31436f6c6f722c7478745f3153697a655d5d2c747874323d6101808201527f5b5b7478745f322c7478745f32436f6c6f722c7478745f3253697a655d5d2c746101a08201527f7874333d5b5b7478745f332c7478745f33436f6c6f722c7478745f3353697a656101c08201527f5d5d2c747874343d5b5b7478745f342c7478745f34436f6c6f722c7478745f346101e08201527f53697a655d5d2c747874353d5b5b7478745f352c7478745f35436f6c6f722c746102008201527f78745f3553697a655d5d2c747874363d5b5b7478745f362c7478745f36436f6c6102208201527f6f722c7478745f3653697a655d5d2c70616765496d673d5b5d3b66756e6374696102408201527f6f6e207072656c6f616428297b70616765496d675b305d3d6c6f6164496d61676102608201527f6528617274576f726b50616e656c292c70616765496d675b315d3d6c6f6164496102808201527f6d6167652873636f72654361726450616e656c292c627574746f6e496d673d6c6102a08201527f6f6164496d61676528627574746f6e496d616765297d66756e6374696f6e20736102c08201527f6574757028297b6d79466f6e743d6c6f6164466f6e7428666f6e74292c6372656102e08201527f61746543616e766173283530302c353030292c63616d4c6f633d6372656174656103008201527f566563746f7228302c30293b666f72286c657420613d303b613c6e756d4f66506103208201527f616765733b612b2b2970616765735b615d3d6e657720506167652863616e76616103408201527f732e77696474682f322a612c302c612c70616765496d675b615d293b74696d656103608201527f723d63616e7661732e77696474682f322c627574744c3d6e657720427574746f6103808201527f6e2863616e7661732e77696474682f322d39302c352c37352c37352c627574746103a08201527f6f6e496d67292c62757474523d6e657720427574746f6e2863616e7661732e776103c08201527f696474682f322d39302c352c37352c37352c627574746f6e496d67297d66756e6103e08201527f6374696f6e206472617728297b6261636b67726f756e6428323230292c736c696104008201527f646528292c7075736828292c7472616e736c6174652863616d4c6f632e782c636104208201527f616d4c6f632e79293b666f72286c657420613d303b613c6e756d4f66506167656104408201527f733b612b2b2970616765735b615d2e72756e28293b706f7028292c627574744c6104608201527f2e72756e28292c62757474522e72756e28297d66756e6374696f6e20676f52696104808201527f67687428297b6d6f76696e674c6566747c7c69735061757365647c7c286d6f766104a08201527f696e6752696768743d2130297d66756e6374696f6e20676f4c65667428297b6d6104c08201527f6f76696e6752696768747c7c69735061757365647c7c286d6f76696e674c65666104e08201527f743d2130297d66756e6374696f6e20736c69646528297b6d6f76696e675269676105008201527f68742626216d6f76696e674c6566742626303c3d74696d657226262863616d4c6105208201527f6f632e782d3d32302c74696d65722d3d3230292c6d6f76696e674c65667426266105408201527f216d6f76696e6752696768742626303c3d74696d657226262863616d4c6f632e6105608201527f782b3d32302c74696d65722d3d3230292c303d3d74696d65722626286d6f76696105808201527f6e6752696768743d21312c6d6f76696e674c6566743d21312c74696d65723d636105a08201527f616e7661732e77696474682f32292c303e3d2d63616d4c6f632e783f2863616d6105c08201527f4c6f632e783d302c627574744c2e6c6f632e783d2d313030293a627574744c2e6105e08201527f6c6f632e783d63616e7661732e6865696768742f322d37352c2d63616d4c6f636106008201527f2e783e3d70616765735b70616765732e6c656e6774682d315d2e6c6f632e783f6106208201527f2874696d65723d63616e7661732e77696474682f322c6d6f76696e67526967686106408201527f743d21312c6d6f76696e674c6566743d21312c63616d4c6f632e783d2d7061676106608201527f65735b70616765732e6c656e6774682d315d2e6c6f632e782c62757474522e6c6106808201527f6f632e783d2d313030293a62757474522e6c6f632e783d63616e7661732e68656106a08201527f696768742f322d37357d66756e6374696f6e20647261777465787428612c622c6106c08201527f64297b666f722876617220653d612c663d303b663c642e6c656e6774683b2b2b6106e08201527f66297b76617220673d645b665d2c683d675b305d2c6a3d675b315d2c633d675b6107008201527f325d2c6b3d7465787457696474682868293b66696c6c286a292c7465787453696107208201527f7a652863292c7465787428682c652c62292c652b3d6b7d7d66756e6374696f6e6107408201527f206d6f7573655072657373656428297b6d6f757365583e627574744c2e6c6f636107608201527f2e7826266d6f757365583c627574744c2e6c6f632e782b627574744c2e7726266107808201527f6d6f757365593e627574744c2e6c6f632e7926266d6f757365593c627574744c6107a08201527f2e6c6f632e792b627574744c2e682626676f4c65667428292c6d6f757365583e6107c08201527f62757474522e6c6f632e7826266d6f757365583c62757474522e6c6f632e782b6107e08201527f62757474522e7726266d6f757365593e62757474522e6c6f632e7926266d6f756108008201527f7365593c62757474522e6c6f632e792b62757474522e682626676f52696768746108208201527f28297d636c61737320506167657b636f6e7374727563746f7228612c622c632c6108408201527f64297b746869732e6c6f633d637265617465566563746f7228612c62292c74686108608201527f69732e773d63616e7661732e77696474682f322c746869732e683d63616e76616108808201527f732e6865696768742f322c746869732e706167654e756d3d632b312c746869736108a08201527f2e696d673d647d72756e28297b696d61676528746869732e696d672c746869736108c08201527f2e6c6f632e782c746869732e6c6f632e792c3530302c353030292c74657874416108e08201527f6c69676e284c454654292c74657874466f6e74286d79466f6e74292c323d3d746109008201527f6869732e706167654e756d262628647261777465787428746869732e6c6f632e6109208201527f782b7478745f315f782c746869732e6c6f632e792b7478745f315f792c7478746109408201527f31292c647261777465787428746869732e6c6f632e782b7478745f325f782c746109608201527f6869732e6c6f632e792b7478745f325f792c74787432292c64726177746578746109808201527f28746869732e6c6f632e782b7478745f335f782c746869732e6c6f632e792b746109a08201527f78745f335f792c74787433292c647261777465787428746869732e6c6f632e786109c08201527f2b7478745f345f782c746869732e6c6f632e792b7478745f345f792c747874346109e08201527f292c647261777465787428746869732e6c6f632e782b7478745f355f782c7468610a008201527f69732e6c6f632e792b7478745f355f792c74787435292c647261777465787428610a208201527f746869732e6c6f632e782b7478745f365f782c746869732e6c6f632e792b7478610a408201527f745f365f792c7478743629293b333d3d746869732e706167654e756d2c6c696e610a608201527f6528746869732e6c6f632e782c746869732e6c6f632e792c746869732e6c6f63610a808201527f2e782b746869732e772c746869732e6c6f632e79292c6c696e6528746869732e610aa08201527f6c6f632e782c746869732e6c6f632e792c746869732e6c6f632e782c74686973610ac08201527f2e6c6f632e792b746869732e68292c6c696e6528746869732e6c6f632e782c74610ae08201527f6869732e6c6f632e792b746869732e682c746869732e6c6f632e782b74686973610b008201527f2e772c746869732e6c6f632e792b746869732e68292c6c696e6528746869732e610b208201527f6c6f632e782b746869732e772c746869732e6c6f632e792c746869732e6c6f63610b408201527f2e782b746869732e772c746869732e68297d7d636c61737320427574746f6e7b610b608201527f636f6e7374727563746f7228612c622c632c642c65297b746869732e6c6f633d610b808201527f6e657720637265617465566563746f7228612c62292c746869732e773d632c74610ba08201527f6869732e683d642c746869732e636c723d227768697465222c746869732e696d610bc08201527f673d657d72756e28297b746869732e72656e64657228292c746869732e636865610be08201527f636b4d6f75736528297d72656e64657228297b66696c6c28746869732e636c72610c008201527f292c7374726f6b65283230292c7374726f6b655765696768742830292c66696c610c208201527f6c2822626c61636b22292c6e6f5374726f6b6528292c7465787453697a652831610c408201527f35292c696d61676528746869732e696d672c746869732e6c6f632e782c746869610c608201527f732e6c6f632e792c746869732e772c746869732e68297d636865636b4d6f7573610c808201527f6528297b746869732e636c723d6d6f757365583e746869732e6c6f632e782626610ca08201527f6d6f757365583c746869732e6c6f632e782b746869732e7726266d6f75736559610cc08201527f3e746869732e6c6f632e7926266d6f757365593c746869732e6c6f632e792b74610ce08201527f6869732e683f2267726179223a227768697465227d7d00000000000000000000610d00820152610d1601038781018252611d4e90826102be565b80611d588b6122c0565b5160c0015251611d67906122e8565b87517f34c3c9d5000000000000000000000000000000000000000000000000000000008152998a9283928392611d9e928401612ad0565b035a927316b727a2fc9322c724f4bc562910c99a5eda5084600094fa97881599611ee9611ec0611e3f9b611f379a611f2b986100e59f98611e3f98611ef598611efa9b611f86575b600095611f41575b50611e6e611e9793611e3f611e45611e3f9795611e0e611e3f96516130d6565b96519e8f9d8e016009907f7b226e616d65223a22000000000000000000000000000000000000000000000081520190565b90612918565b7f222c226465736372697074696f6e223a225465616d3a20000000000000000000815260170190565b7f2c2049443a200000000000000000000000000000000000000000000000000000815260060190565b7f222c22616e696d6174696f6e5f75726c223a2200000000000000000000000000815260130190565b7f227d000000000000000000000000000000000000000000000000000000000000815260020190565b038681018352826102be565b612f2a565b85519687938401601d907f646174613a6170706c69636174696f6e2f6a736f6e3b6261736536342c00000081520190565b039081018452836102be565b51918291826101c2565b611e9793611e3f611e45611e3f9795611e0e611f76611e6e96611e3f989c3d8091833e611f6e81836102be565b810190612759565b9a96505095975050509350611dee565b611f8e612544565b611de6565b81611fb292903d10611fba575b611faa81836102be565b8101906128ab565b50388061078a565b503d611fa0565b611fc9612544565b610785565b611fef919250883d8a11611ff6575b611fe781836102be565b81019061289c565b9038610746565b503d611fdd565b612005612544565b61073e565b6120219150873d8911611ff657611fe781836102be565b38610708565b61202f612544565b610700565b600581101561204f5750610791612049612863565b916106b7565b60088110156120645750610791612049612863565b600a8110156120795750610791612049612863565b600c81101561208e5750610791612049612863565b60108110156120a35750610791612049612863565b60178110156120b85750610791612049612863565b601e8110156120cd575061079161204961282a565b602311156120e0576107916120496127f1565b6107916120496127b8565b85886120f56127b8565b9861069e565b6121109294503d8091833e611f6e81836102be565b913880610666565b612120612544565b61065f565b859650908161214892903d1061214f575b61214081836102be565b810190612569565b9438610591565b503d612136565b61215e612544565b610589565b6121839150833d8511612189575b61217b81836102be565b81019061252f565b38610508565b503d612171565b612198612544565b610500565b90600182811c921680156121cd575b60208310146121b757565b634e487b7160e01b600052602260045260246000fd5b91607f16916121ac565b90604051918260008254926121eb8461219d565b90818452600194858116908160001461225a5750600114612217575b5050612215925003836102be565b565b9093915060005260209081600020936000915b81831061224257505061221593508201013880612207565b8554888401850152948501948794509183019161222a565b905061221595506020935060ff1991501682840152151560051b8201013880612207565b50634e487b7160e01b600052603260045260246000fd5b6020908051156122a3570190565b6122ab61227e565b0190565b6040908051600110156122a3570190565b6060908051600210156122a3570190565b50634e487b7160e01b600052601160045260246000fd5b90620f42409182018092116122f957565b6122156122d1565b90600182018092116122f957565b90600282018092116122f957565b90602082018092116122f957565b90601f811161233957505050565b600091825260208220906020601f850160051c83019410612375575b601f0160051c01915b82811061236a57505050565b81815560010161235e565b9092508290612355565b919091825167ffffffffffffffff811161244e575b6123a8816123a2845461219d565b8461232b565b602080601f83116001146123e35750819293946000926123d8575b50506000198260011b9260031b1c1916179055565b0151905038806123c3565b90601f198316956123f985600052602060002090565b926000905b8882106124365750508360019596971061241d575b505050811b019055565b015160001960f88460031b161c19169055388080612413565b806001859682949686015181550195019301906123fe565b612456610246565b612394565b9073ffffffffffffffffffffffffffffffffffffffff807f000000000000000000000000000000000000000000000000000000000000000016301461000e5760019283549180831661000e577fffffffffffffffffffffffff00000000000000000000000000000000000000009116911617825580519060005b8281106124e25750505050565b83908251811015612522575b61251c60208260051b8501015161251761250784612301565b6000526000602052604060002090565b61237f565b016124d5565b61252a61227e565b6124ee565b9081602091031261000e57516101d381610228565b506040513d6000823e3d90fd5b519061221582610228565b5190811515820361000e57565b90816101c091031261000e5761257d6102e1565b90805182526020810151602083015260408101516040830152606081015160608301526080810151608083015260a081015160a083015260c081015160c08301526125ca60e08201612551565b60e083015261010080820151908301526101206125e8818301612551565b908301526101408082015190830152610160808201519083015261018061261081830161255c565b908301526126226101a080920161255c565b9082015290565b60409081519160809081840184811067ffffffffffffffff8211176126a8575b8152600384528392600092835b60608082101561269e5784516020929161266f8261025d565b808252839088828401528088840152888184015280868401528060a084015260c0830152828a01015201612656565b5050509293505050565b6126b0610246565b612649565b604051906020820182811067ffffffffffffffff8211176126da575b60405260008252565b6126e2610246565b6126d1565b604051906126f482610286565b601382527f70352d76312e352e302e6d696e2e6a732e677a000000000000000000000000006020830152565b6040519061272d82610286565b601682527f67756e7a6970536372697074732d302e302e312e6a73000000000000000000006020830152565b60208183031261000e5780519067ffffffffffffffff821161000e570181601f8201121561000e57805161278c81610329565b9261279a60405194856102be565b8184526020828401011161000e576101d3916020808501910161017a565b604051906127c582610286565b600282527f31360000000000000000000000000000000000000000000000000000000000006020830152565b604051906127fe82610286565b600282527f32300000000000000000000000000000000000000000000000000000000000006020830152565b6040519061283782610286565b600282527f33300000000000000000000000000000000000000000000000000000000000006020830152565b6040519061287082610286565b600282527f34300000000000000000000000000000000000000000000000000000000000006020830152565b9081602091031261000e575190565b90611000808383031261000e5781601f8401121561000e576040519281840184811067ffffffffffffffff82111761290b575b6040528391810192831161000e57905b8282106128fb5750505090565b81518152602091820191016128ee565b612913610246565b6128de565b906122ab6020928281519485920161017a565b90612215603760405180947f52656465656d20666f72200000000000000000000000000000000000000000006020830152612970815180926020602b8601910161017a565b81017f206f662074686520706f742e0000000000000000000000000000000000000000602b8201520360178101855201836102be565b919082039182116122f957565b604051906129c0826102a2565b602e82527f727052333642796a5258664c72610000000000000000000000000000000000006040837f516d5358316b74425769545831424a7338684445564e39337652564a7136694e60208201520152565b60405190612a1f826102a2565b602e82527f6a3966784c7231464d33767a4d6f0000000000000000000000000000000000006040837f516d654234374b6662486574485070517250676d44394378434462396532553960208201520152565b60405190612a7e826102a2565b602e82527f3550667554546270563442624a560000000000000000000000000000000000006040837f516d64704c31784e346341485177345031465a7a773950336f516f664138683460208201520152565b929190604080850190808652825180925260609182870192808260051b890101936020809601936000925b878b868610612b11575050505050505050930152565b612bd4897fffffffffffffffffffffffffffffffffffffffffffffffffffffffffffffffa084936001969798999a9b9c030188528a51612bc1612bae612b90612b62845160e080885287019061019d565b73ffffffffffffffffffffffffffffffffffffffff8886015116888701528b8501518682038d88015261019d565b838a015160ff16858b0152608080850151908683039087015261019d565b60a080840151908583039086015261019d565b9160c0809201519181840391015261019d565b9801940194019294939190612afb565b60406000815182810181811067ffffffffffffffff821117612cdc575b835261012c8152825190612c1482610286565b600682527f6e6f726d616c0000000000000000000000000000000000000000000000000000602083015260208101918252612c90845194859384937fbf6519ad0000000000000000000000000000000000000000000000000000000085526020600486015251602485015251906044840152606483019061019d565b038173a77b7d93e79f1e6b4f77fab29d9ef85733a3d44a5afa908115612ccf575b600091612cbc575090565b6101d3913d8091833e611f6e81836102be565b612cd7612544565b612cb1565b612ce4610246565b612c01565b908160021b917f3fffffffffffffffffffffffffffffffffffffffffffffffffffffffffffffff8116036122f957565b90600e820291808304600e14901517156122f957565b818102929181159184041417156122f957565b50634e487b7160e01b600052601260045260246000fd5b612d6682612d6b92612d2f565b612d19565b8115612e8d575b04612d8b612710612d848184046130d6565b92066130d6565b80515b60048110612e185750612db891612e0a612de16101d393611e3f6040519687956020870190612918565b7f2e00000000000000000000000000000000000000000000000000000000000000815260010190565b7f2500000000000000000000000000000000000000000000000000000000000000815260010190565b03601f1981018352826102be565b90600190612e6f60405191826020917f300000000000000000000000000000000000000000000000000000000000000083830152612e6081518092602195868601910161017a565b810103848101845201826102be565b916000198114612e80575b01612d8e565b612e886122d1565b612e7a565b612e95612d42565b612d72565b60405190612ea7826102a2565b604082527f6768696a6b6c6d6e6f707172737475767778797a303132333435363738392b2f6040837f4142434445464748494a4b4c4d4e4f505152535455565758595a61626364656660208201520152565b90612f0382610329565b612f1060405191826102be565b828152601f19612f208294610329565b0190602036910137565b80511561305d57612f39612e9a565b612f55612f50612f49845161230f565b6003900490565b612ce9565b91612f67612f628461231d565b612ef9565b92835280815182019060208501935b82821061300b57505050600390510680600114612fc257600214612f98575090565b6000197f3d0000000000000000000000000000000000000000000000000000000000000091015290565b507ffffffffffffffffffffffffffffffffffffffffffffffffffffffffffffffffe7f3d3d00000000000000000000000000000000000000000000000000000000000091015290565b9091936004906003809401938451600190603f9082828260121c16880101518553828282600c1c16880101518386015382828260061c1688010151600286015316850101519082015301939190612f76565b506101d36126b5565b604051600461307482610286565b6001908183526020368185013760218301825b613092575b50505090565b6000190190600a907f30313233343536373839616263646566000000000000000000000000000000008282061a8353049182156130d157919082613087565b61308c565b806000917a184f03e93ff9f4daa797ed6e38ed64bf6a1f01000000000000000080821015613218575b506d04ee2d6d415b85acef810000000080831015613209575b50662386f26fc10000808310156131fa575b506305f5e100808310156131eb575b50612710808310156131dc575b5060648210156131cc575b600a809210156131c2575b60019081602161316d828701612ef9565b95860101905b61317f575b5050505090565b600019849101917f30313233343536373839616263646566000000000000000000000000000000008282061a8353049182156131bd57919082613173565b613178565b916001019161315c565b9190606460029104910191613151565b60049193920491019138613146565b60089193920491019138613139565b6010919392049101913861312a565b60209193920491019138613118565b6040935081049150386130ff56fea2646970667358221220d5206aa8651153046e0b310e17160ba5f21d14a9b435e7be389c491c5863966e64736f6c63430008110033",
    "linkReferences": {}
  },
  "methodIdentifiers": {
    "BUFFER_SIZE()": "004e394e",
    "codeOrigin()": "1d153ca4",
    "delegate()": "c89e4361",
    "getUri(uint256)": "da0544aa",
    "initialize(address,string[])": "94e6f56f",
    "tierNameOf(uint256)": "1baabc3e"
  },
  "id": 3
}