{
  "abi": [
    {
      "inputs": [],
      "stateMutability": "nonpayable",
      "type": "constructor"
    },
    {
      "inputs": [],
      "name": "BUFFER_SIZE",
      "outputs": [
        {
          "internalType": "uint256",
          "name": "",
          "type": "uint256"
        }
      ],
      "stateMutability": "view",
      "type": "function"
    },
    {
      "inputs": [],
      "name": "codeOrigin",
      "outputs": [
        {
          "internalType": "address",
          "name": "",
          "type": "address"
        }
      ],
      "stateMutability": "view",
      "type": "function"
    },
    {
      "inputs": [],
      "name": "delegate",
      "outputs": [
        {
          "internalType": "contract IDefifaDelegate",
          "name": "",
          "type": "address"
        }
      ],
      "stateMutability": "view",
      "type": "function"
    },
    {
      "inputs": [
        {
          "internalType": "uint256",
          "name": "_tokenId",
          "type": "uint256"
        }
      ],
      "name": "getUri",
      "outputs": [
        {
          "internalType": "string",
          "name": "",
          "type": "string"
        }
      ],
      "stateMutability": "view",
      "type": "function"
    },
    {
      "inputs": [
        {
          "internalType": "contract IDefifaDelegate",
          "name": "_delegate",
          "type": "address"
        },
        {
          "internalType": "string[]",
          "name": "_tierNames",
          "type": "string[]"
        }
      ],
      "name": "initialize",
      "outputs": [],
      "stateMutability": "nonpayable",
      "type": "function"
    },
    {
      "inputs": [
        {
          "internalType": "uint256",
          "name": "_tierId",
          "type": "uint256"
        }
      ],
      "name": "tierNameOf",
      "outputs": [
        {
          "internalType": "string",
          "name": "",
          "type": "string"
        }
      ],
      "stateMutability": "view",
      "type": "function"
    },
    {
      "inputs": [
        {
          "internalType": "string",
          "name": "str",
          "type": "string"
        },
        {
          "internalType": "uint256",
          "name": "start",
          "type": "uint256"
        },
        {
          "internalType": "uint256",
          "name": "end",
          "type": "uint256"
        }
      ],
      "name": "trim",
      "outputs": [
        {
          "internalType": "string",
          "name": "",
          "type": "string"
        }
      ],
      "stateMutability": "view",
      "type": "function"
    }
  ],
  "bytecode": {
    "object": "0x60a0806040523461002a5730608052613273908161003082396080518181816101f601526124db0152f35b600080fdfe6080604052600436101561001257600080fd5b6000803560e01c9081624e394e14610089575080631baabc3e146100845780631d153ca41461007f57806394e6f56f1461007a578063c89e436114610075578063da0544aa146100705763e14c63f51461006b57600080fd5b6121b0565b610433565b61040c565b610349565b6101d6565b610105565b346100a657806003193601126100a657620f424060805260206080f35b80fd5b60005b8381106100bc5750506000910152565b81810151838201526020016100ac565b90601f19601f6020936100ea815180928187528780880191016100a9565b0116010190565b9060206101029281815201906100cc565b90565b346101d1576020806003193601126101d1576000906004358252818152604082209060405191838154906101388261220e565b808652926001928084169081156101ad5750600114610172575b61016e86610162818a038261029a565b604051918291826100f1565b0390f35b9080949650528483205b82841061019a575050508161016e9361016292820101933880610152565b805485850187015292850192810161017c565b60ff19168787015250505050151560051b82010191506101628161016e3880610152565b600080fd5b346101d15760006003193601126101d15760206040516001600160a01b037f0000000000000000000000000000000000000000000000000000000000000000168152f35b6001600160a01b038116036101d157565b634e487b7160e01b600052604160045260246000fd5b60e0810190811067ffffffffffffffff82111761025d57604052565b61022b565b6040810190811067ffffffffffffffff82111761025d57604052565b6060810190811067ffffffffffffffff82111761025d57604052565b90601f601f19910116810190811067ffffffffffffffff82111761025d57604052565b604051906101c0820182811067ffffffffffffffff82111761025d57604052565b67ffffffffffffffff811161025d5760051b60200190565b67ffffffffffffffff811161025d57601f01601f191660200190565b92919261031e826102f6565b9161032c604051938461029a565b8294818452818301116101d1578281602093846000960137010152565b346101d15760406003193601126101d1576004356103668161021a565b602480359167ffffffffffffffff928381116101d157366023820112156101d157806004013592610396846102de565b936103a4604051958661029a565b808552602095828787019260051b850101933685116101d157838101925b8584106103d5576103d388886124cf565b005b83358381116101d1578201366043820112156101d15789916104018392369060448a8201359101610312565b8152019301926103c2565b346101d15760006003193601126101d15760206001600160a01b0360015416604051908152f35b346101d15760206003193601126101d1576104656104596001546001600160a01b031690565b6001600160a01b031690565b6040517f975057e70000000000000000000000000000000000000000000000000000000081526004906020818381865afa908115611fb057600091612191575b5060405180917fb67cb0470000000000000000000000000000000000000000000000000000000082526101c0928391816001600160a01b038161050289358b8b8401602090939291936001600160a01b0360408201951681520152565b0392165afa918215611fb057600092612164575b5050610520612681565b9261052a84612325565b51610533612723565b905261054b606061054386612325565b510160029052565b610574602061055986612325565b510173fc7453da7bf4d0c739c1c53da57b3636dab0e11e9052565b61057d84612337565b5161058661275c565b905261059e606061059686612337565b510160019052565b6105ac602061055986612337565b6000936040517f06fdde0300000000000000000000000000000000000000000000000000000000815285818681865afa958615611fb0578096612147575b505061060961060484516000526000602052604060002090565b612248565b93602386511060001461213a5761061e61282d565b8551600381101561209f575061063261289f565b6040517f4f228e110000000000000000000000000000000000000000000000000000000081526020818061066e87358883019190602083019252565b0381895afa908115611fb057600091612080575b50604051907f640abacd00000000000000000000000000000000000000000000000000000000825260208286818a5afa908115611fb0576106cb9260009261205f575b50612d87565b604051907f9df454680000000000000000000000000000000000000000000000000000000082526110008286818a5afa918215611fb0576107119261202e575b5061295d565b9161074361073061072b60808a015160608b0151906129d8565b6130ed565b61076c6040519283926020840190612946565b7f20696e206578697374656e6365000000000000000000000000000000000000008152600d0190565b0396610780601f199889810184528361029a565b604051907f975057e70000000000000000000000000000000000000000000000000000000082526020828881845afa918215611fb05761081c926020928992600092611fff575b506001600160a01b036040518096819582947fc8df17100000000000000000000000000000000000000000000000000000000084528135918401602090939291936001600160a01b0360408201951681520152565b0392165afa8015611fb057611fd0575b5061086c600061083a6129e5565b604051809381927fe14c63f50000000000000000000000000000000000000000000000000000000083528a8301612a44565b0381305afa938415611fb0578b91600095611fb5575b5061088b612a68565b95610894612ac7565b9461089d61307d565b906108a88a356130ed565b946108b1612c2d565b6040517f6c657420617274576f726b49504653203d22000000000000000000000000000060208201529a8b9a91999160328c016108ed91612946565b61223b60f01b81526002017f6c65742073636f72654361726449504653203d22000000000000000000000000815260140161092791612946565b61223b60f01b81526002017f6c657420627574746f6e496d61676549504653203d2200000000000000000000815260160161096191612946565b61223b60f01b81526002017f6c6574207478745f31203d2200000000000000000000000000000000000000008152600c0161099b91612946565b7f222e746f55707065724361736528293b6c6574207478745f3153697a65203d008152601f016109ca91612946565b7f3b6c6574207478745f31436f6c6f72203d202223313765346631223b6c65742081527f7478745f315f78203d2034303b6c6574207478745f315f79203d2038303b00006020820152603e017f6c6574207478745f32203d2247414d45205048415345200000000000000000008152601701610a4591612946565b7f206f66203400000000000000000000000000000000000000000000000000000081526005017f223b6c6574207478745f3253697a65203d2032303b6c6574207478745f32436f81527f6c6f72203d202223313765346631223b6c6574207478745f325f78203d20343060208201527f3b6c6574207478745f325f79203d203232303b0000000000000000000000000060408201526053017f6c6574207478745f33203d2200000000000000000000000000000000000000008152600c01610b0c91612946565b7f223b6c6574207478745f3353697a65203d2032303b6c6574207478745f33436f81527f6c6f72203d202223666561323832223b6c6574207478745f335f78203d20343060208201527f3b6c6574207478745f335f79203d203235303b0000000000000000000000000060408201526053017f6c6574207478745f34203d2200000000000000000000000000000000000000008152600c01610bae908c612946565b7f223b6c6574207478745f3453697a65203d0000000000000000000000000000008152601101610bdd91612946565b7f3b6c6574207478745f34436f6c6f72203d202223666561323832223b6c65742081527f7478745f345f78203d2034303b6c6574207478745f345f79203d203133303b006020820152603f017f6c6574207478745f35203d22544f4b454e2049443a20000000000000000000008152601601610c5891612946565b7f223b6c6574207478745f3553697a65203d2031363b6c6574207478745f35436f81527f6c6f72203d202223464646464646223b6c6574207478745f355f78203d20343060208201527f3b6c6574207478745f355f79203d203337303b0000000000000000000000000060408201526053017f6c6574207478745f36203d225241524954593a200000000000000000000000008152601401610cf991612946565b7f223b6c6574207478745f3653697a65203d2031363b6c6574207478745f36436f81527f6c6f72203d202223464646464646223b6c6574207478745f365f78203d20343060208201527f3b6c6574207478745f365f79203d203430303b0000000000000000000000000060408201526053017f6c657420666f6e74203d2022646174613a666f6e742f74727565747970653b6381527f6861727365743d7574662d383b6261736536342c0000000000000000000000006020820152603401610dc091612946565b61223b60f01b81526002017f6c657420706167652c63616d4c6f632c627574744c2c62757474522c74696d6581527f722c627574746f6e496d672c70616765733d5b5d2c6e756d4f6650616765733d60208201527f322c6d6f76696e6752696768743d21312c6d6f76696e674c6566743d21312c6960408201527f735061757365643d21312c617274576f726b50616e656c3d2268747470733a2f60608201527f2f6a626d2e696e667572612d697066732e696f2f697066732f222b617274576f60808201527f726b495046532c73636f72654361726450616e656c3d2268747470733a2f2f6a60a08201527f626d2e696e667572612d697066732e696f2f697066732f222b73636f7265436160c08201527f7264495046532c627574746f6e496d6167653d2268747470733a2f2f6a626d2e60e08201527f696e667572612d697066732e696f2f697066732f222b627574746f6e496d61676101008201527f65495046532c646566696661426c75653d5b31392c3232382c3234305d2c74786101208201527f74313d5b5b7478745f312c7478745f31436f6c6f722c7478745f3153697a655d6101408201527f5d2c747874323d5b5b7478745f322c7478745f32436f6c6f722c7478745f32536101608201527f697a655d5d2c747874333d5b5b7478745f332c7478745f33436f6c6f722c74786101808201527f745f3353697a655d5d2c747874343d5b5b7478745f342c7478745f34436f6c6f6101a08201527f722c7478745f3453697a655d5d2c747874353d5b5b7478745f352c7478745f356101c08201527f436f6c6f722c7478745f3553697a655d5d2c747874363d5b5b7478745f362c746101e08201527f78745f36436f6c6f722c7478745f3653697a655d5d2c70616765496d673d5b5d6102008201527f3b66756e6374696f6e207072656c6f616428297b70616765496d675b305d3d6c6102208201527f6f6164496d61676528617274576f726b50616e656c292c70616765496d675b316102408201527f5d3d6c6f6164496d6167652873636f72654361726450616e656c292c627574746102608201527f6f6e496d673d6c6f6164496d61676528627574746f6e496d616765297d66756e6102808201527f6374696f6e20736574757028297b6d79466f6e743d6c6f6164466f6e7428666f6102a08201527f6e74292c63726561746543616e766173283530302c353030292c63616d4c6f636102c08201527f3d637265617465566563746f7228302c30293b666f72286c657420613d303b616102e08201527f3c6e756d4f6650616765733b612b2b2970616765735b615d3d6e6577205061676103008201527f652863616e7661732e77696474682f322a612c302c612c70616765496d675b616103208201527f5d293b74696d65723d63616e7661732e77696474682f322c627574744c3d6e656103408201527f7720427574746f6e2863616e7661732e77696474682f322d39302c352c37352c6103608201527f37352c627574746f6e496d67292c62757474523d6e657720427574746f6e28636103808201527f616e7661732e77696474682f322d39302c352c37352c37352c627574746f6e496103a08201527f6d67297d66756e6374696f6e206472617728297b6261636b67726f756e6428326103c08201527f3230292c736c69646528292c7075736828292c7472616e736c6174652863616d6103e08201527f4c6f632e782c63616d4c6f632e79293b666f72286c657420613d303b613c6e756104008201527f6d4f6650616765733b612b2b2970616765735b615d2e72756e28293b706f70286104208201527f292c627574744c2e72756e28292c62757474522e72756e28297d66756e6374696104408201527f6f6e20676f526967687428297b6d6f76696e674c6566747c7c697350617573656104608201527f647c7c286d6f76696e6752696768743d2130297d66756e6374696f6e20676f4c6104808201527f65667428297b6d6f76696e6752696768747c7c69735061757365647c7c286d6f6104a08201527f76696e674c6566743d2130297d66756e6374696f6e20736c69646528297b6d6f6104c08201527f76696e6752696768742626216d6f76696e674c6566742626303c3d74696d65726104e08201527f26262863616d4c6f632e782d3d32302c74696d65722d3d3230292c6d6f76696e6105008201527f674c6566742626216d6f76696e6752696768742626303c3d74696d65722626286105208201527f63616d4c6f632e782b3d32302c74696d65722d3d3230292c303d3d74696d65726105408201527f2626286d6f76696e6752696768743d21312c6d6f76696e674c6566743d21312c6105608201527f74696d65723d63616e7661732e77696474682f32292c303e3d2d63616d4c6f636105808201527f2e783f2863616d4c6f632e783d302c627574744c2e6c6f632e783d2d313030296105a08201527f3a627574744c2e6c6f632e783d63616e7661732e6865696768742f322d37352c6105c08201527f2d63616d4c6f632e783e3d70616765735b70616765732e6c656e6774682d315d6105e08201527f2e6c6f632e783f2874696d65723d63616e7661732e77696474682f322c6d6f766106008201527f696e6752696768743d21312c6d6f76696e674c6566743d21312c63616d4c6f636106208201527f2e783d2d70616765735b70616765732e6c656e6774682d315d2e6c6f632e782c6106408201527f62757474522e6c6f632e783d2d313030293a62757474522e6c6f632e783d63616106608201527f6e7661732e6865696768742f322d37357d66756e6374696f6e206472617774656106808201527f787428612c622c64297b666f722876617220653d612c663d303b663c642e6c656106a08201527f6e6774683b2b2b66297b76617220673d645b665d2c683d675b305d2c6a3d675b6106c08201527f315d2c633d675b325d2c6b3d7465787457696474682868293b66696c6c286a296106e08201527f2c7465787453697a652863292c7465787428682c652c62292c652b3d6b7d7d666107008201527f756e6374696f6e206d6f7573655072657373656428297b6d6f757365583e62756107208201527f74744c2e6c6f632e7826266d6f757365583c627574744c2e6c6f632e782b62756107408201527f74744c2e7726266d6f757365593e627574744c2e6c6f632e7926266d6f7573656107608201527f593c627574744c2e6c6f632e792b627574744c2e682626676f4c65667428292c6107808201527f6d6f757365583e62757474522e6c6f632e7826266d6f757365583c62757474526107a08201527f2e6c6f632e782b62757474522e7726266d6f757365593e62757474522e6c6f636107c08201527f2e7926266d6f757365593c62757474522e6c6f632e792b62757474522e6826266107e08201527f676f526967687428297d636c61737320506167657b636f6e7374727563746f726108008201527f28612c622c632c64297b746869732e6c6f633d637265617465566563746f72286108208201527f612c62292c746869732e773d63616e7661732e77696474682f322c746869732e6108408201527f683d63616e7661732e6865696768742f322c746869732e706167654e756d3d636108608201527f2b312c746869732e696d673d647d72756e28297b696d61676528746869732e696108808201527f6d672c746869732e6c6f632e782c746869732e6c6f632e792c3530302c3530306108a08201527f292c74657874416c69676e284c454654292c74657874466f6e74286d79466f6e6108c08201527f74292c323d3d746869732e706167654e756d26262864726177746578742874686108e08201527f69732e6c6f632e782b7478745f315f782c746869732e6c6f632e792b7478745f6109008201527f315f792c74787431292c647261777465787428746869732e6c6f632e782b74786109208201527f745f325f782c746869732e6c6f632e792b7478745f325f792c74787432292c646109408201527f7261777465787428746869732e6c6f632e782b7478745f335f782c746869732e6109608201527f6c6f632e792b7478745f335f792c74787433292c6472617774657874287468696109808201527f732e6c6f632e782b7478745f345f782c746869732e6c6f632e792b7478745f346109a08201527f5f792c74787434292c647261777465787428746869732e6c6f632e782b7478746109c08201527f5f355f782c746869732e6c6f632e792b7478745f355f792c74787435292c64726109e08201527f61777465787428746869732e6c6f632e782b7478745f365f782c746869732e6c610a008201527f6f632e792b7478745f365f792c7478743629293b333d3d746869732e70616765610a208201527f4e756d2c6c696e6528746869732e6c6f632e782c746869732e6c6f632e792c74610a408201527f6869732e6c6f632e782b746869732e772c746869732e6c6f632e79292c6c696e610a608201527f6528746869732e6c6f632e782c746869732e6c6f632e792c746869732e6c6f63610a808201527f2e782c746869732e6c6f632e792b746869732e68292c6c696e6528746869732e610aa08201527f6c6f632e782c746869732e6c6f632e792b746869732e682c746869732e6c6f63610ac08201527f2e782b746869732e772c746869732e6c6f632e792b746869732e68292c6c696e610ae08201527f6528746869732e6c6f632e782b746869732e772c746869732e6c6f632e792c74610b008201527f6869732e6c6f632e782b746869732e772c746869732e68297d7d636c61737320610b208201527f427574746f6e7b636f6e7374727563746f7228612c622c632c642c65297b7468610b408201527f69732e6c6f633d6e657720637265617465566563746f7228612c62292c746869610b608201527f732e773d632c746869732e683d642c746869732e636c723d227768697465222c610b808201527f746869732e696d673d657d72756e28297b746869732e72656e64657228292c74610ba08201527f6869732e636865636b4d6f75736528297d72656e64657228297b66696c6c2874610bc08201527f6869732e636c72292c7374726f6b65283230292c7374726f6b65576569676874610be08201527f2830292c66696c6c2822626c61636b22292c6e6f5374726f6b6528292c746578610c008201527f7453697a65283135292c696d61676528746869732e696d672c746869732e6c6f610c208201527f632e782c746869732e6c6f632e792c746869732e772c746869732e68297d6368610c408201527f65636b4d6f75736528297b746869732e636c723d6d6f757365583e746869732e610c608201527f6c6f632e7826266d6f757365583c746869732e6c6f632e782b746869732e7726610c808201527f266d6f757365593e746869732e6c6f632e7926266d6f757365593c746869732e610ca08201527f6c6f632e792b746869732e683f2267726179223a227768697465227d7d000000610cc0820152610cdd01038481018252611d85908261029a565b80611d8f84612347565b5160c0015251611d9e9061236d565b6040517f34c3c9d500000000000000000000000000000000000000000000000000000000815292839283928392611dd6928401612b26565b035a927316b727a2fc9322c724f4bc562910c99a5eda5084600094fa8015611fb057611f276020611f1b611ef2611e719461016e9a611f619a6101629a611f2c99600094611f6d575b5091611e71611ea0611ec993611e71611e77611e3e611e7198516130ed565b956040519e8f9d8e016009907f7b226e616d65223a22000000000000000000000000000000000000000000000081520190565b90612946565b7f222c226465736372697074696f6e223a225465616d3a20000000000000000000815260170190565b7f2c2049443a200000000000000000000000000000000000000000000000000000815260060190565b7f222c22616e696d6174696f6e5f75726c223a2200000000000000000000000000815260130190565b7f227d000000000000000000000000000000000000000000000000000000000000815260020190565b0384810183528261029a565b612f41565b6040517f646174613a6170706c69636174696f6e2f6a736f6e3b6261736536342c0000006020820152938491603d8301611e71565b0390810183528261029a565b611ea0611ec993611e71611e77611e3e611fa1611e7196611e719a989b3d8091833e611f99818361029a565b810190612795565b99969850505050935050611e1f565b61259d565b611fc991953d8091833e611f99818361029a565b9338610882565b611ff19060203d602011611ff8575b611fe9818361029a565b8101906128d8565b503861082c565b503d611fdf565b612020919250843d8611612027575b612018818361029a565b810190612588565b90386107c7565b503d61200e565b612051906110003d61100011612058575b612049818361029a565b8101906128e7565b503861070b565b503d61203f565b61207991925060203d602011611ff857611fe9818361029a565b90386106c5565b612099915060203d602011611ff857611fe9818361029a565b38610682565b60058110156120b657506120b161289f565b610632565b60088110156120c857506120b161289f565b600a8110156120da57506120b161289f565b600c8110156120ec57506120b161289f565b60108110156120fe57506120b161289f565b601781101561211057506120b161289f565b601e81101561212257506120b1612866565b60231115612132576120b161282d565b6120b16127f4565b6121426127f4565b61061e565b61215c9296503d8091833e611f99818361029a565b9338806105ea565b6121839250803d1061218a575b61217b818361029a565b8101906125c1565b3880610516565b503d612171565b6121aa915060203d60201161202757612018818361029a565b386104a5565b346101d15760606003193601126101d15767ffffffffffffffff6004358181116101d157366023820112156101d15780600401359182116101d15736602483830101116101d15761016e9161016291604435916024803592016122ef565b90600182811c9216801561223e575b602083101461222857565b634e487b7160e01b600052602260045260246000fd5b91607f169161221d565b906040519182600082549261225c8461220e565b9081845260019485811690816000146122cb5750600114612288575b50506122869250038361029a565b565b9093915060005260209081600020936000915b8183106122b357505061228693508201013880612278565b8554888401850152948501948794509183019161229b565b905061228695506020935060ff1991501682840152151560051b8201013880612278565b909291928284116101d15782116101d15782610102933693039101610312565b634e487b7160e01b600052603260045260246000fd5b8051156123325760200190565b61230f565b8051600110156123325760400190565b8051600210156123325760600190565b634e487b7160e01b600052601160045260246000fd5b90620f424091820180921161237e57565b612357565b906001820180921161237e57565b906002820180921161237e57565b906020820180921161237e57565b90601f81116123bb57505050565b600091825260208220906020601f850160051c830194106123f7575b601f0160051c01915b8281106123ec57505050565b8181556001016123e0565b90925082906123d7565b919091825167ffffffffffffffff811161025d5761242981612423845461220e565b846123ad565b602080601f8311600114612464575081929394600092612459575b50506000198260011b9260031b1c1916179055565b015190503880612444565b90601f1983169561247a85600052602060002090565b926000905b8882106124b75750508360019596971061249e575b505050811b019055565b015160001960f88460031b161c19169055388080612494565b8060018596829496860151815501950193019061247f565b906001600160a01b03807f00000000000000000000000000000000000000000000000000000000000000001630146101d1576001928354918083166101d1577fffffffffffffffffffffffff00000000000000000000000000000000000000009116911617825580519060005b8281106125495750505050565b815181101561233257806125826020869360051b8501015161257d61256d84612383565b6000526000602052604060002090565b612401565b0161253c565b908160209103126101d157516101028161021a565b6040513d6000823e3d90fd5b51906122868261021a565b519081151582036101d157565b90816101c09103126101d1576125d56102bd565b90805182526020810151602083015260408101516040830152606081015160608301526080810151608083015260a081015160a083015260c081015160c083015261262260e082016125a9565b60e083015261010080820151908301526101206126408183016125a9565b90830152610140808201519083015261016080820151908301526101806126688183016125b4565b9083015261267a6101a08092016125b4565b9082015290565b60409081519160809081840184811067ffffffffffffffff82111761025d578152600384528392600092835b6060808210156126f5578451602092916126c682610241565b808252839088828401528088840152888184015280868401528060a084015260c0830152828a010152016126ad565b5050509293505050565b604051906020820182811067ffffffffffffffff82111761025d5760405260008252565b6040519061273082610262565b601382527f70352d76312e352e302e6d696e2e6a732e677a000000000000000000000000006020830152565b6040519061276982610262565b601682527f67756e7a6970536372697074732d302e302e312e6a73000000000000000000006020830152565b6020818303126101d15780519067ffffffffffffffff82116101d1570181601f820112156101d15780516127c8816102f6565b926127d6604051948561029a565b818452602082840101116101d15761010291602080850191016100a9565b6040519061280182610262565b600282527f31360000000000000000000000000000000000000000000000000000000000006020830152565b6040519061283a82610262565b600282527f32300000000000000000000000000000000000000000000000000000000000006020830152565b6040519061287382610262565b600282527f33300000000000000000000000000000000000000000000000000000000000006020830152565b604051906128ac82610262565b600282527f34300000000000000000000000000000000000000000000000000000000000006020830152565b908160209103126101d1575190565b9061100080838303126101d15781601f840112156101d1576040519281840184811067ffffffffffffffff82111761025d57604052839181019283116101d157905b8282106129365750505090565b8151815260209182019101612929565b90612959602092828151948592016100a9565b0190565b90612286603760405180947f52656465656d20666f722000000000000000000000000000000000000000000060208301526129a2815180926020602b860191016100a9565b81017f206f662074686520706f742e0000000000000000000000000000000000000000602b82015203601781018552018361029a565b9190820391821161237e57565b604051906129f28261027e565b603582527f686a564c4e454862366e70374469594e37755a797800000000000000000000006040837f697066733a2f2f516d503565576e5854735243574265447248626f4c7446657560208201520152565b91906040612a5c6035926060865260608601906100cc565b93600760208201520152565b60405190612a758261027e565b602e82527f6a3966784c7231464d33767a4d6f0000000000000000000000000000000000006040837f516d654234374b6662486574485070517250676d44394378434462396532553960208201520152565b60405190612ad48261027e565b602e82527f3550667554546270563442624a560000000000000000000000000000000000006040837f516d64704c31784e346341485177345031465a7a773950336f516f664138683460208201520152565b929190604080850190808652825180925260609182870192808260051b890101936020809601936000925b878b868610612b67575050505050505050930152565b612c1d897fffffffffffffffffffffffffffffffffffffffffffffffffffffffffffffffa084936001969798999a9b9c030188528a51612c0a612bf7612bd9612bb8845160e08088528701906100cc565b6001600160a01b038886015116888701528b8501518682038d8801526100cc565b838a015160ff16858b015260808085015190868303908701526100cc565b60a08084015190858303908601526100cc565b9160c080920151918184039101526100cc565b9801940194019294939190612b51565b604080518181019080821067ffffffffffffffff83111761025d57600091835261012c8152825190612c5e82610262565b600682527f6e6f726d616c0000000000000000000000000000000000000000000000000000602083015260208101918252612cda845194859384937fbf6519ad000000000000000000000000000000000000000000000000000000008552602060048601525160248501525190604484015260648301906100cc565b038173a77b7d93e79f1e6b4f77fab29d9ef85733a3d44a5afa908115611fb057600091612d05575090565b610102913d8091833e611f99818361029a565b908160021b917f3fffffffffffffffffffffffffffffffffffffffffffffffffffffffffffffff81160361237e57565b90600e820291808304600e149015171561237e57565b8181029291811591840414171561237e57565b634e487b7160e01b600052601260045260246000fd5b612d9482612d9992612d5e565b612d48565b8115612eac5704612db8612710612db18184046130ed565b92066130ed565b80515b60048110612e455750612de591612e37612e0e61010293611e716040519687956020870190612946565b7f2e00000000000000000000000000000000000000000000000000000000000000815260010190565b7f2500000000000000000000000000000000000000000000000000000000000000815260010190565b03601f19810183528261029a565b90612e9a60405191826020917f300000000000000000000000000000000000000000000000000000000000000083830152612e8a8151809260219586860191016100a9565b810103600181018452018261029a565b90600019811461237e57600101612dbb565b612d71565b60405190612ebe8261027e565b604082527f6768696a6b6c6d6e6f707172737475767778797a303132333435363738392b2f6040837f4142434445464748494a4b4c4d4e4f505152535455565758595a61626364656660208201520152565b90612f1a826102f6565b612f27604051918261029a565b828152601f19612f3782946102f6565b0190602036910137565b80511561307457612f50612eb1565b612f6c612f67612f608451612391565b6003900490565b612d18565b91612f7e612f798461239f565b612f10565b92835280815182019060208501935b82821061302257505050600390510680600114612fd957600214612faf575090565b6000197f3d0000000000000000000000000000000000000000000000000000000000000091015290565b507ffffffffffffffffffffffffffffffffffffffffffffffffffffffffffffffffe7f3d3d00000000000000000000000000000000000000000000000000000000000091015290565b9091936004906003809401938451600190603f9082828260121c16880101518553828282600c1c16880101518386015382828260061c1688010151600286015316850101519082015301939190612f8d565b506101026126ff565b604051600461308b82610262565b6001908183526020368185013760218301825b6130a9575b50505090565b6000190190600a907f30313233343536373839616263646566000000000000000000000000000000008282061a8353049182156130e85791908261309e565b6130a3565b806000917a184f03e93ff9f4daa797ed6e38ed64bf6a1f0100000000000000008082101561322f575b506d04ee2d6d415b85acef810000000080831015613220575b50662386f26fc1000080831015613211575b506305f5e10080831015613202575b50612710808310156131f3575b5060648210156131e3575b600a809210156131d9575b600190816021613184828701612f10565b95860101905b613196575b5050505090565b600019849101917f30313233343536373839616263646566000000000000000000000000000000008282061a8353049182156131d45791908261318a565b61318f565b9160010191613173565b9190606460029104910191613168565b6004919392049101913861315d565b60089193920491019138613150565b60109193920491019138613141565b6020919392049101913861312f565b60409350810491503861311656fea2646970667358221220977db0a47d23940bdbe591755aa5f26d618e5a5916894587d17942c864a4a74664736f6c63430008120033",
    "linkReferences": {}
  },
  "methodIdentifiers": {
    "BUFFER_SIZE()": "004e394e",
    "codeOrigin()": "1d153ca4",
    "delegate()": "c89e4361",
    "getUri(uint256)": "da0544aa",
    "initialize(address,string[])": "94e6f56f",
    "tierNameOf(uint256)": "1baabc3e",
    "trim(string,uint256,uint256)": "e14c63f5"
  },
  "id": 1
}