{
  "abi": [
    {
      "inputs": [
        {
          "internalType": "contract ITypeface",
          "name": "_typeface",
          "type": "address"
        }
      ],
      "stateMutability": "nonpayable",
      "type": "constructor"
    },
    {
      "inputs": [],
      "name": "BUFFER_SIZE",
      "outputs": [
        {
          "internalType": "uint256",
          "name": "",
          "type": "uint256"
        }
      ],
      "stateMutability": "view",
      "type": "function"
    },
    {
      "inputs": [],
      "name": "codeOrigin",
      "outputs": [
        {
          "internalType": "address",
          "name": "",
          "type": "address"
        }
      ],
      "stateMutability": "view",
      "type": "function"
    },
    {
      "inputs": [],
      "name": "delegate",
      "outputs": [
        {
          "internalType": "contract IDefifaDelegate",
          "name": "",
          "type": "address"
        }
      ],
      "stateMutability": "view",
      "type": "function"
    },
    {
      "inputs": [
        {
          "internalType": "uint256",
          "name": "_tokenId",
          "type": "uint256"
        }
      ],
      "name": "getUri",
      "outputs": [
        {
          "internalType": "string",
          "name": "",
          "type": "string"
        }
      ],
      "stateMutability": "view",
      "type": "function"
    },
    {
      "inputs": [
        {
          "internalType": "contract IDefifaDelegate",
          "name": "_delegate",
          "type": "address"
        },
        {
          "internalType": "string[]",
          "name": "_tierNames",
          "type": "string[]"
        }
      ],
      "name": "initialize",
      "outputs": [],
      "stateMutability": "nonpayable",
      "type": "function"
    },
    {
      "inputs": [
        {
          "internalType": "uint256",
          "name": "_tierId",
          "type": "uint256"
        }
      ],
      "name": "tierNameOf",
      "outputs": [
        {
          "internalType": "string",
          "name": "",
          "type": "string"
        }
      ],
      "stateMutability": "view",
      "type": "function"
    }
  ],
  "bytecode": {
    "object": "0x60a0346200008e57601f62003c2438819003918201601f19168301916001600160401b0383118484101762000093578084926020946040528339810103126200008e57516001600160a01b038116908190036200008e5730608052600280546001600160a01b031916919091179055604051613b7a9081620000aa82396080518181816101f701526128810152f35b600080fd5b634e487b7160e01b600052604160045260246000fdfe60806040526004361015610013575b600080fd5b6000803560e01c9081624e394e1461014b5781631baabc3e14610084575080631d153ca41461007b57806394e6f56f14610072578063c89e4361146100695763da0544aa1461006157600080fd5b61000e61048c565b5061000e610464565b5061000e610377565b5061000e6101d6565b346101485761009236610168565b81526020818152604082209060405191838154906100af82612673565b8086529260019280841690811561012457506001146100e9575b6100e5866100d9818a03826102c0565b604051918291826101c2565b0390f35b9080949650528483205b82841061011157505050816100e5936100d9928201019385806100c9565b80548585018701529285019281016100f3565b60ff19168787015250505050151560051b82010191506100d9816100e585806100c9565b80fd5b34610148578060031936011261014857620f424060805260206080f35b600319602091011261000e5760043590565b60005b83811061018d5750506000910152565b818101518382015260200161017d565b90601f19601f6020936101bb8151809281875287808801910161017a565b0116010190565b9060206101d392818152019061019d565b90565b503461000e57600060031936011261000e5760206040516001600160a01b037f0000000000000000000000000000000000000000000000000000000000000000168152f35b6001600160a01b0381160361000e57565b50634e487b7160e01b600052604160045260246000fd5b60e0810190811067ffffffffffffffff82111761025f57604052565b61026761022c565b604052565b6020810190811067ffffffffffffffff82111761025f57604052565b6040810190811067ffffffffffffffff82111761025f57604052565b6060810190811067ffffffffffffffff82111761025f57604052565b90601f601f19910116810190811067ffffffffffffffff82111761025f57604052565b604051906101c0820182811067ffffffffffffffff82111761025f57604052565b60405190610120820182811067ffffffffffffffff82111761025f57604052565b60209067ffffffffffffffff811161033f575b60051b0190565b61034761022c565b610338565b601f19601f60209267ffffffffffffffff811161036a575b01160190565b61037261022c565b610364565b503461000e5760408060031936011261000e57600435906103978261021b565b602491823567ffffffffffffffff9384821161000e573660238301121561000e5781600401356103c681610325565b946103d3815196876102c0565b818652602096838888019360051b8601019436861161000e57848101935b868510610404576104028989612876565b005b843583811161000e578201903660438301121561000e5786820135906104298261034c565b610435875191826102c0565b8281526044933685858301011161000e578d8481969582966000940183860137830101528152019401936103f1565b503461000e57600060031936011261000e5760206001600160a01b0360015416604051908152f35b503461000e5761049b36610168565b6104bc6104b06001546001600160a01b031690565b6001600160a01b031690565b60408080517f975057e700000000000000000000000000000000000000000000000000000000808252602095869182846004818a5afa938415612666575b600094612647575b5084517fb67cb0470000000000000000000000000000000000000000000000000000000081526001600160a01b0388166004820152602481018390526101c0908181806044810103816001600160a01b03809a165afa91821561263a575b60009261260d575b50508386610574612af4565b9961057e8b61276b565b51610587612b93565b905261059f60606105978d61276b565b510160029052565b6105c7836105ac8d61276b565b510173fc7453da7bf4d0c739c1c53da57b3636dab0e11e9052565b6105d08b612785565b516105d9612bcc565b90526105f160606105e98d612785565b510160019052565b6105fe836105ac8d612785565b60009482517f06fdde030000000000000000000000000000000000000000000000000000000081528681600481865afa968715612600575b80976125e3575b505061065c61065786516000526000602052604060002090565b6126ad565b9660238751106000146125d557610671612c9d565b995b885160038110156125395750610687612d0f565b915b61098061074987517f557e715500000000000000000000000000000000000000000000000000000000815289816004818b5afa90811561252c575b60009161250f575b5088517f3fafa1270000000000000000000000000000000000000000000000000000000081528a816004818c5afa908115612502575b6000916124e5575b50895180927f43a266c2000000000000000000000000000000000000000000000000000000008252818881610120978896600483019190602083019252565b0392165afa9182156124d8575b6000926124ab575b5050519460006107fa60048a517f4f228e110000000000000000000000000000000000000000000000000000000081528c818c81806107a48c8883019190602083019252565b03915afa90811561249e575b8491612481575b508c8b8d51938480927f640abacd0000000000000000000000000000000000000000000000000000000082525afa918215612474575b8492612455575b50613315565b908761237857505061080a612f9d565b935b896108218c6060608082015191015190612fd6565b6001890361233a57610880610838610849926139f4565b6108728d5193849286840190612ddf565b7f206d696e74656420736f206661720000000000000000000000000000000000008152600e0190565b03601f1981018352826102c0565b985b8a51938085528285600481855afa94851561232d575b60009561230e575b508b517fc8df17100000000000000000000000000000000000000000000000000000000081526001600160a01b0383166004820152602481018890529483908690604490829088165afa948515612301575b6000956122c7575b5091610965916000938d519081528281600481855afa9283156122ba575b859361228b575b50508c519485809481937ff682eeaf000000000000000000000000000000000000000000000000000000008352600483019190916001600160a01b036020820193169052565b0392165afa90811561227e575b600091612265575b5061362c565b9b610989612fe3565b94610992613042565b9061099c906139f4565b926109a6906139f4565b956002546109ba906001600160a01b031690565b6109c3906131a8565b98517f6c657420617274576f726b536f75726365203d220000000000000000000000009a81019a8b529e8f9a6014016109fb91612ddf565b61223b60f01b81526002017f6c65742073636f72654361726449504653203d220000000000000000000000008152601401610a3591612ddf565b61223b60f01b81526002017f6c657420627574746f6e496d61676549504653203d22000000000000000000008152601601610a6f91612ddf565b61223b60f01b81526002017f6c6574207478745f31203d2200000000000000000000000000000000000000008152600c01610aaa908b612ddf565b7f222e746f55707065724361736528293b6c6574207478745f3153697a65203d008152601f01610ad991612ddf565b7f3b6c6574207478745f31436f6c6f72203d202223313765346631223b6c65742081527f7478745f315f78203d2034303b6c6574207478745f315f79203d2038303b00006020820152603e017f6c6574207478745f32203d2247414d45205048415345200000000000000000008152601701610b5491612ddf565b7f206f66203400000000000000000000000000000000000000000000000000000081526005017f223b6c6574207478745f3253697a65203d2032303b6c6574207478745f32436f81527f6c6f72203d202223313765346631223b6c6574207478745f325f78203d20343060208201527f3b6c6574207478745f325f79203d203232303b0000000000000000000000000060408201526053017f6c6574207478745f33203d2200000000000000000000000000000000000000008152600c01610c1b91612ddf565b7f223b6c6574207478745f3353697a65203d2032303b6c6574207478745f33436f81527f6c6f72203d202223666561323832223b6c6574207478745f335f78203d20343060208201527f3b6c6574207478745f335f79203d203235303b0000000000000000000000000060408201526053017f6c6574207478745f34203d2200000000000000000000000000000000000000008152600c01610cbd9089612ddf565b7f223b6c6574207478745f3453697a65203d0000000000000000000000000000008152601101610cec91612ddf565b7f3b6c6574207478745f34436f6c6f72203d202223666561323832223b6c65742081527f7478745f345f78203d2034303b6c6574207478745f345f79203d203133303b006020820152603f017f6c6574207478745f35203d22544f4b454e2049443a20000000000000000000008152601601610d6791612ddf565b7f223b6c6574207478745f3553697a65203d2031363b6c6574207478745f35436f81527f6c6f72203d202223464646464646223b6c6574207478745f355f78203d20343060208201527f3b6c6574207478745f355f79203d203337303b0000000000000000000000000060408201526053017f6c6574207478745f36203d225241524954593a200000000000000000000000008152601401610e0891612ddf565b7f223b6c6574207478745f3653697a65203d2031363b6c6574207478745f36436f81527f6c6f72203d202223464646464646223b6c6574207478745f365f78203d20343060208201527f3b6c6574207478745f365f79203d203430303b0000000000000000000000000060408201526053017f6c657420666f6e74203d2022646174613a666f6e742f74727565747970653b6381527f6861727365743d7574662d383b6261736536342c0000000000000000000000006020820152603401610ecf91612ddf565b61223b60f01b81526002017f6c657420706167652c63616d4c6f632c627574744c2c62757474522c74696d6581527f722c627574746f6e496d672c70616765733d5b5d2c6e756d4f6650616765733d60208201527f322c6d6f76696e6752696768743d21312c6d6f76696e674c6566743d21312c6960408201527f735061757365643d21312c617274576f726b50616e656c3d2268747470733a2f60608201527f2f6a626d2e696e667572612d697066732e696f2f697066732f222c73636f726560808201527f4361726450616e656c3d2268747470733a2f2f6a626d2e696e667572612d697060a08201527f66732e696f2f697066732f222b73636f726543617264495046532c627574746f60c08201527f6e496d6167653d2268747470733a2f2f6a626d2e696e667572612d697066732e60e08201527f696f2f697066732f222b627574746f6e496d616765495046532c6465666966616101008201527f426c75653d5b31392c3232382c3234305d2c747874313d5b5b7478745f312c746101208201527f78745f31436f6c6f722c7478745f3153697a655d5d2c747874323d5b5b7478746101408201527f5f322c7478745f32436f6c6f722c7478745f3253697a655d5d2c747874333d5b6101608201527f5b7478745f332c7478745f33436f6c6f722c7478745f3353697a655d5d2c74786101808201527f74343d5b5b7478745f342c7478745f34436f6c6f722c7478745f3453697a655d6101a08201527f5d2c747874353d5b5b7478745f352c7478745f35436f6c6f722c7478745f35536101c08201527f697a655d5d2c747874363d5b5b7478745f362c7478745f36436f6c6f722c74786101e08201527f745f3653697a655d5d2c70616765496d673d5b5d3b66756e6374696f6e2070726102008201527f656c6f616428297b6173796e632066756e6374696f6e20612861297b6c6574206102208201527f633d6177616974206665746368282268747470733a2f2f6a626d2e696e6675726102408201527f612d697066732e696f2f697066732f222b61293b636f6e736f6c652e6c6f67286102608201527f62293b636f6e737420643d632e686561646572732e6765742822636f6e74656e6102808201527f742d7479706522293b636f6e736f6c652e6c6f672864292c6426262d31213d3d6102a08201527f642e696e6465784f6628226170706c69636174696f6e2f6a736f6e22293f28626102c08201527f3d617761697420632e6a736f6e28292c70616765496d675b305d3d6c6f6164496102e08201527f6d61676528622e696d61676529293a28617274576f726b50616e656c3d2268746103008201527f7470733a2f2f6a626d2e696e667572612d697066732e696f2f697066732f222b6103208201527f612c70616765496d675b305d3d6c6f6164496d61676528617274576f726b50616103408201527f6e656c292c636f6e736f6c652e6c6f6728617274576f726b50616e656c29297d6103608201527f6c657420623b6128617274576f726b536f75726365292c70616765496d675b316103808201527f5d3d6c6f6164496d6167652873636f72654361726450616e656c292c627574746103a08201527f6f6e496d673d6c6f6164496d61676528627574746f6e496d616765297d66756e6103c08201527f6374696f6e20736574757028297b6d79466f6e743d6c6f6164466f6e7428666f6103e08201527f6e74292c63726561746543616e766173283530302c353030292c63616d4c6f636104008201527f3d637265617465566563746f7228302c30293b666f72286c657420613d303b616104208201527f3c6e756d4f6650616765733b612b2b2970616765735b615d3d6e6577205061676104408201527f652863616e7661732e77696474682f322a612c302c612c70616765496d675b616104608201527f5d293b74696d65723d63616e7661732e77696474682f322c627574744c3d6e656104808201527f7720427574746f6e2863616e7661732e77696474682f322d39302c352c37352c6104a08201527f37352c627574746f6e496d67292c62757474523d6e657720427574746f6e28636104c08201527f616e7661732e77696474682f322d39302c352c37352c37352c627574746f6e496104e08201527f6d67297d66756e6374696f6e206472617728297b6261636b67726f756e6428326105008201527f3230292c736c69646528292c7075736828292c7472616e736c6174652863616d6105208201527f4c6f632e782c63616d4c6f632e79293b666f72286c657420613d303b613c6e756105408201527f6d4f6650616765733b612b2b2970616765735b615d2e72756e28293b706f70286105608201527f292c627574744c2e72756e28292c62757474522e72756e28297d66756e6374696105808201527f6f6e20676f526967687428297b6d6f76696e674c6566747c7c697350617573656105a08201527f647c7c286d6f76696e6752696768743d2130297d66756e6374696f6e20676f4c6105c08201527f65667428297b6d6f76696e6752696768747c7c69735061757365647c7c286d6f6105e08201527f76696e674c6566743d2130297d66756e6374696f6e20736c69646528297b6d6f6106008201527f76696e6752696768742626216d6f76696e674c6566742626303c3d74696d65726106208201527f26262863616d4c6f632e782d3d32302c74696d65722d3d3230292c6d6f76696e6106408201527f674c6566742626216d6f76696e6752696768742626303c3d74696d65722626286106608201527f63616d4c6f632e782b3d32302c74696d65722d3d3230292c303d3d74696d65726106808201527f2626286d6f76696e6752696768743d21312c6d6f76696e674c6566743d21312c6106a08201527f74696d65723d63616e7661732e77696474682f32292c303e3d2d63616d4c6f636106c08201527f2e783f2863616d4c6f632e783d302c627574744c2e6c6f632e783d2d313030296106e08201527f3a627574744c2e6c6f632e783d63616e7661732e6865696768742f322d37352c6107008201527f2d63616d4c6f632e783e3d70616765735b70616765732e6c656e6774682d315d6107208201527f2e6c6f632e783f2874696d65723d63616e7661732e77696474682f322c6d6f766107408201527f696e6752696768743d21312c6d6f76696e674c6566743d21312c63616d4c6f636107608201527f2e783d2d70616765735b70616765732e6c656e6774682d315d2e6c6f632e782c6107808201527f62757474522e6c6f632e783d2d313030293a62757474522e6c6f632e783d63616107a08201527f6e7661732e6865696768742f322d37357d66756e6374696f6e206472617774656107c08201527f787428612c622c64297b666f722876617220653d612c663d303b663c642e6c656107e08201527f6e6774683b2b2b66297b76617220673d645b665d2c683d675b305d2c6a3d675b6108008201527f315d2c633d675b325d2c6b3d7465787457696474682868293b66696c6c286a296108208201527f2c7465787453697a652863292c7465787428682c652c62292c652b3d6b7d7d666108408201527f756e6374696f6e206d6f7573655072657373656428297b6d6f757365583e62756108608201527f74744c2e6c6f632e7826266d6f757365583c627574744c2e6c6f632e782b62756108808201527f74744c2e7726266d6f757365593e627574744c2e6c6f632e7926266d6f7573656108a08201527f593c627574744c2e6c6f632e792b627574744c2e682626676f4c65667428292c6108c08201527f6d6f757365583e62757474522e6c6f632e7826266d6f757365583c62757474526108e08201527f2e6c6f632e782b62757474522e7726266d6f757365593e62757474522e6c6f636109008201527f2e7926266d6f757365593c62757474522e6c6f632e792b62757474522e6826266109208201527f676f526967687428297d636c61737320506167657b636f6e7374727563746f726109408201527f28612c622c632c64297b746869732e6c6f633d637265617465566563746f72286109608201527f612c62292c746869732e773d63616e7661732e77696474682f322c746869732e6109808201527f683d63616e7661732e6865696768742f322c746869732e706167654e756d3d636109a08201527f2b312c746869732e696d673d647d72756e28297b696d61676528746869732e696109c08201527f6d672c746869732e6c6f632e782c746869732e6c6f632e792c3530302c3530306109e08201527f292c74657874416c69676e284c454654292c74657874466f6e74286d79466f6e610a008201527f74292c323d3d746869732e706167654e756d2626286472617774657874287468610a208201527f69732e6c6f632e782b7478745f315f782c746869732e6c6f632e792b7478745f610a408201527f315f792c74787431292c647261777465787428746869732e6c6f632e782b7478610a608201527f745f325f782c746869732e6c6f632e792b7478745f325f792c74787432292c64610a808201527f7261777465787428746869732e6c6f632e782b7478745f335f782c746869732e610aa08201527f6c6f632e792b7478745f335f792c74787433292c647261777465787428746869610ac08201527f732e6c6f632e782b7478745f345f782c746869732e6c6f632e792b7478745f34610ae08201527f5f792c74787434292c647261777465787428746869732e6c6f632e782b747874610b008201527f5f355f782c746869732e6c6f632e792b7478745f355f792c74787435292c6472610b208201527f61777465787428746869732e6c6f632e782b7478745f365f782c746869732e6c610b408201527f6f632e792b7478745f365f792c7478743629293b333d3d746869732e70616765610b608201527f4e756d2c6c696e6528746869732e6c6f632e782c746869732e6c6f632e792c74610b808201527f6869732e6c6f632e782b746869732e772c746869732e6c6f632e79292c6c696e610ba08201527f6528746869732e6c6f632e782c746869732e6c6f632e792c746869732e6c6f63610bc08201527f2e782c746869732e6c6f632e792b746869732e68292c6c696e6528746869732e610be08201527f6c6f632e782c746869732e6c6f632e792b746869732e682c746869732e6c6f63610c008201527f2e782b746869732e772c746869732e6c6f632e792b746869732e68292c6c696e610c208201527f6528746869732e6c6f632e782b746869732e772c746869732e6c6f632e792c74610c408201527f6869732e6c6f632e782b746869732e772c746869732e68297d7d636c61737320610c608201527f427574746f6e7b636f6e7374727563746f7228612c622c632c642c65297b7468610c808201527f69732e6c6f633d6e657720637265617465566563746f7228612c62292c746869610ca08201527f732e773d632c746869732e683d642c746869732e636c723d227768697465222c610cc08201527f746869732e696d673d657d72756e28297b746869732e72656e64657228292c74610ce08201527f6869732e636865636b4d6f75736528297d72656e64657228297b66696c6c2874610d008201527f6869732e636c72292c7374726f6b65283230292c7374726f6b65576569676874610d208201527f2830292c66696c6c2822626c61636b22292c6e6f5374726f6b6528292c746578610d408201527f7453697a65283135292c696d61676528746869732e696d672c746869732e6c6f610d608201527f632e782c746869732e6c6f632e792c746869732e772c746869732e68297d6368610d808201527f65636b4d6f75736528297b746869732e636c723d6d6f757365583e746869732e610da08201527f6c6f632e7826266d6f757365583c746869732e6c6f632e782b746869732e7726610dc08201527f266d6f757365593e746869732e6c6f632e7926266d6f757365593c746869732e610de08201527f6c6f632e792b746869732e683f2267726179223a227768697465227d7d000000610e00820152610e1d010394601f1995868101825261201f90826102c0565b806120298a612796565b5160c0015251612038906127e0565b865180809a81937f34c3c9d50000000000000000000000000000000000000000000000000000000083526004830191612070926130a1565b035a927316b727a2fc9322c724f4bc562910c99a5eda5084600094fa978815996121bb6121926121119b6122099a6121fd986100e59f98612111986121c7986121cc9b612258575b600095612213575b506121406121699361211161211761211197956120e061211196516139f4565b96519e8f9d8e016009907f7b226e616d65223a22000000000000000000000000000000000000000000000081520190565b90612ddf565b7f222c226465736372697074696f6e223a225465616d3a20000000000000000000815260170190565b7f2c2049443a200000000000000000000000000000000000000000000000000000815260060190565b7f222c22616e696d6174696f6e5f75726c223a2200000000000000000000000000815260130190565b7f227d000000000000000000000000000000000000000000000000000000000000815260020190565b038681018352826102c0565b6134f0565b85519687938401601d907f646174613a6170706c69636174696f6e2f6a736f6e3b6261736536342c00000081520190565b039081018452836102c0565b51918291826101c2565b6121699361211161211761211197956120e061224861214096612111989c3d8091833e61224081836102c0565b810190612c05565b9a965050959750505093506120c0565b612260612a0f565b6120b8565b612278913d8091833e61224081836102c0565b3861097a565b612286612a0f565b610972565b6122ab929350803d106122b3575b6122a381836102c0565b8101906129fa565b90388e61091f565b503d612299565b6122c2612a0f565b610918565b83919550916122f0610965936000953d85116122fa575b6122e881836102c0565b810190612d48565b95919350916108fa565b503d6122de565b612309612a0f565b6108f2565b612326919550833d85116122b3576122a381836102c0565b93386108a0565b612335612a0f565b610898565b612372610838612349926139f4565b7f20696e206578697374656e6365000000000000000000000000000000000000008152600d0190565b98610882565b6001880361239057505061238a612f3e565b9361080c565b600288036123a257505061238a612edf565b600388036123b457505061238a612ea6565b6004881490816123d7575b50156123ce575061238a612e6d565b61238a90612df2565b905089517fa8c15f4a0000000000000000000000000000000000000000000000000000000081528b816004818d5afa918215612448575b9161241b575b50386123bf565b61243b91508b3d8d11612441575b61243381836102c0565b810190612dcb565b38612414565b503d612429565b612450612a0f565b61240e565b61246d9192508d803d106122fa576122e881836102c0565b90386107f4565b61247c612a0f565b6107ed565b61249891508d803d106122fa576122e881836102c0565b386107b7565b6124a6612a0f565b6107b0565b6124ca9250803d106124d1575b6124c281836102c0565b810190612d57565b388061075e565b503d6124b8565b6124e0612a0f565b610756565b6124fc91508b3d8d116122fa576122e881836102c0565b3861070a565b61250a612a0f565b610702565b61252691508a3d8c116122b3576122a381836102c0565b386106cc565b612534612a0f565b6106c4565b6005811015612551575061254b612d0f565b91610689565b6008811015612563575061254b612d0f565b600a811015612575575061254b612d0f565b600c811015612587575061254b612d0f565b6010811015612599575061254b612d0f565b60178110156125ab575061254b612d0f565b601e8110156125bd575061254b612cd6565b602311156125cd5761254b612c9d565b61254b612c64565b6125dd612c64565b99610673565b6125f89297503d8091833e61224081836102c0565b94388061063d565b612608612a0f565b610636565b61262c9250803d10612633575b61262481836102c0565b810190612a34565b3880610568565b503d61261a565b612642612a0f565b610560565b61265f919450833d85116122b3576122a381836102c0565b9238610502565b61266e612a0f565b6104fa565b90600182811c921680156126a3575b602083101461268d57565b634e487b7160e01b600052602260045260246000fd5b91607f1691612682565b90604051918260008254926126c184612673565b90818452600194858116908160001461273057506001146126ed575b50506126eb925003836102c0565b565b9093915060005260209081600020936000915b8183106127185750506126eb935082010138806126dd565b85548884018501529485019487945091830191612700565b90506126eb95506020935060ff1991501682840152151560051b82010138806126dd565b50634e487b7160e01b600052603260045260246000fd5b602090805115612779570190565b612781612754565b0190565b604090805160011015612779570190565b606090805160021015612779570190565b60209181518110156127bc575b60051b010190565b6127c4612754565b6127b4565b50634e487b7160e01b600052601160045260246000fd5b90620f42409182018092116127f157565b6126eb6127c9565b90600282018092116127f157565b90602082018092116127f157565b919082018092116127f157565b90601f811161283057505050565b600091825260208220906020601f850160051c8301941061286c575b601f0160051c01915b82811061286157505050565b818155600101612855565b909250829061284c565b6001600160a01b03807f000000000000000000000000000000000000000000000000000000000000000016301461000e5760019182549180831661000e577fffffffffffffffffffffffff00000000000000000000000000000000000000009116911617815581519160005b8381106128ef5750505050565b6128f981836127a7565b518382018092116129ed575b81600052602060008152604060002091805191829167ffffffffffffffff83116129e0575b61293e836129388754612673565b87612822565b81601f8411600114612975575060009261296a575b505060001982871b9260031b1c19161790556128e2565b015190503880612953565b9190601f1989951661298c87600052602060002090565b936000905b8282106129c757505084116129ae575b505050811b0190556128e2565b015160001960f88460031b161c191690553880806129a1565b8484015186558b97909501949384019390810190612991565b6129e861022c565b61292a565b6129f56127c9565b612905565b9081602091031261000e57516101d38161021b565b506040513d6000823e3d90fd5b51906126eb8261021b565b5190811515820361000e57565b90816101c091031261000e57612a486102e3565b90805182526020810151602083015260408101516040830152606081015160608301526080810151608083015260a081015160a083015260c081015160c0830152612a9560e08201612a1c565b60e08301526101008082015190830152610120612ab3818301612a1c565b9083015261014080820151908301526101608082015190830152610180612adb818301612a27565b90830152612aed6101a0809201612a27565b9082015290565b60409081519160809081840184811067ffffffffffffffff821117612b73575b8152600384528392600092835b606080821015612b6957845160209291612b3a82610243565b808252839088828401528088840152888184015280868401528060a084015260c0830152828a01015201612b21565b5050509293505050565b612b7b61022c565b612b14565b60405190612b8d8261026c565b60008252565b60405190612ba082610288565b601382527f70352d76312e352e302e6d696e2e6a732e677a000000000000000000000000006020830152565b60405190612bd982610288565b601682527f67756e7a6970536372697074732d302e302e312e6a73000000000000000000006020830152565b60208183031261000e5780519067ffffffffffffffff821161000e570181601f8201121561000e578051612c388161034c565b92612c4660405194856102c0565b8184526020828401011161000e576101d3916020808501910161017a565b60405190612c7182610288565b600282527f31360000000000000000000000000000000000000000000000000000000000006020830152565b60405190612caa82610288565b600282527f32300000000000000000000000000000000000000000000000000000000000006020830152565b60405190612ce382610288565b600282527f33300000000000000000000000000000000000000000000000000000000000006020830152565b60405190612d1c82610288565b600282527f34300000000000000000000000000000000000000000000000000000000000006020830152565b9081602091031261000e575190565b908161012091031261000e57612d6b610304565b90805182526020810151602083015260408101516040830152606081015160608301526080810151608083015260a081015160a083015260c081015160c0830152612db860e08201612a1c565b60e0830152610100809101519082015290565b9081602091031261000e576101d390612a27565b906127816020928281519485920161017a565b906126eb603760405180947f52656465656d20666f72200000000000000000000000000000000000000000006020830152612e37815180926020602b8601910161017a565b81017f206f662074686520706f742e0000000000000000000000000000000000000000602b8201520360178101855201836102c0565b60405190612e7a82610288565b601c82527f53636f726563617264206177616974696e6720617070726f76616c2e000000006020830152565b60405190612eb382610288565b601182527f47616d6520696e2070726f67726573732e0000000000000000000000000000006020830152565b60405190612eec826102a4565b602482527f756e642e000000000000000000000000000000000000000000000000000000006040837f53746172747320736f6f6e2e204c617374206368616e636520666f722072656660208201520152565b60405190612f4b826102a4565b602c82527f647320617265206f70656e2e00000000000000000000000000000000000000006040837f5374617274696e6720736f6f6e2c206d696e74696e6720616e6420726566756e60208201520152565b60405190612faa82610288565b601482527f4d696e74696e672073746172747320736f6f6e2e0000000000000000000000006020830152565b919082039182116127f157565b60405190612ff0826102a4565b602e82527f6a3966784c7231464d33767a4d6f0000000000000000000000000000000000006040837f516d654234374b6662486574485070517250676d44394378434462396532553960208201520152565b6040519061304f826102a4565b602e82527f3550667554546270563442624a560000000000000000000000000000000000006040837f516d64704c31784e346341485177345031465a7a773950336f516f664138683460208201520152565b929190604080850190808652825180925260609182870192808260051b890101936020809601936000925b878b8686106130e2575050505050505050930152565b613198897fffffffffffffffffffffffffffffffffffffffffffffffffffffffffffffffa084936001969798999a9b9c030188528a51613185613172613154613133845160e080885287019061019d565b6001600160a01b038886015116888701528b8501518682038d88015261019d565b838a015160ff16858b0152608080850151908683039087015261019d565b60a080840151908583039086015261019d565b9160c0809201519181840391015261019d565b98019401940192949391906130cc565b600061326091604090815182810181811067ffffffffffffffff821117613298575b835261012c81526001600160a01b038351916131e583610288565b600683527f6e6f726d616c00000000000000000000000000000000000000000000000000006020840152602081019283528451968795869485937fbf6519ad0000000000000000000000000000000000000000000000000000000085526020600486015251602485015251906044840152606483019061019d565b0392165afa90811561328b575b600091613278575090565b6101d3913d8091833e61224081836102c0565b613293612a0f565b61326d565b6132a061022c565b6131ca565b908160021b917f3fffffffffffffffffffffffffffffffffffffffffffffffffffffffffffffff8116036127f157565b90600e820291808304600e14901517156127f157565b818102929181159184041417156127f157565b50634e487b7160e01b600052601260045260246000fd5b61332282613327926132eb565b6132d5565b811561343b575b046133476127106133408184046139f4565b92066139f4565b80515b600481106133c657506133749161087261339d6101d3936121116040519687956020870190612ddf565b7f2e00000000000000000000000000000000000000000000000000000000000000815260010190565b7f2500000000000000000000000000000000000000000000000000000000000000815260010190565b9060019061341d60405191826020917f30000000000000000000000000000000000000000000000000000000000000008383015261340e81518092602195868601910161017a565b810103848101845201826102c0565b91600019811461342e575b0161334a565b6134366127c9565b613428565b6134436132fe565b61332e565b60405190613455826102a4565b604082527f6768696a6b6c6d6e6f707172737475767778797a303132333435363738392b2f6040837f4142434445464748494a4b4c4d4e4f505152535455565758595a61626364656660208201520152565b6040516134b38161026c565b60008152906000368137565b906134c98261034c565b6134d660405191826102c0565b828152601f196134e6829461034c565b0190602036910137565b805115613623576134ff613448565b61351b61351661350f84516127f9565b6003900490565b6132a5565b9161352d61352884612807565b6134bf565b92835280815182019060208501935b8282106135d1575050506003905106806001146135885760021461355e575090565b6000197f3d0000000000000000000000000000000000000000000000000000000000000091015290565b507ffffffffffffffffffffffffffffffffffffffffffffffffffffffffffffffffe7f3d3d00000000000000000000000000000000000000000000000000000000000091015290565b9091936004906003809401938451600190603f9082828260121c16880101518553828282600c1c16880101518386015382828260061c168801015160028601531685010151908201530193919061353c565b506101d3612b80565b906101d3906136766040516020927f122000000000000000000000000000000000000000000000000000000000000084830152602282015260228152613671816102a4565b613731565b92604051938161368f869351809286808701910161017a565b82016136a38251809386808501910161017a565b010380845201826102c0565b604051906105e0820182811067ffffffffffffffff8211176136de575b604052602e82526105c0366020840137565b6136e661022c565b6136cc565b906136f582610325565b61370260405191826102c0565b828152601f196134e68294610325565b90602091805182101561372457010190565b61372c612754565b010190565b9081511561386e576137416136af565b916000908161374f8561276b565b5260019181519181925b80841061377f575050505061377561377a916101d39394613878565b6138bb565b613902565b909192946137c86137c26137bc6137968987613712565b517fff000000000000000000000000000000000000000000000000000000000000001690565b60f81c90565b60ff1690565b9184925b60ff908982891686101561382d57600192916138016137fb6137c26137f48a613807966127a7565b5160ff1690565b60081b90565b90612815565b6138248b61381c88603a9586860616926127a7565b9060ff169052565b049301926137cc565b50919594935050809691965b613847575060010192613759565b9460ff6001603a9261386483858b061661381c8d868516906127a7565b0116950480613839565b90506101d36134a7565b9060ff80911690613888826136eb565b9260005b83811061389a575050505090565b80836138a8600193856127a7565b51166138b482886127a7565b520161388c565b9081516138c7816136eb565b9060005b8181106138d9575090925050565b8060ff6138ef60001960019489510301886127a7565b51166138fb82866127a7565b52016138cb565b805161390d8161034c565b9160409061391d825194856102c0565b828452601f1961392c8461034c565b01906020913683870137600092835b85811061394b5750505050505090565b6001907fff000000000000000000000000000000000000000000000000000000000000006139df845161397d816102a4565b603a81527f31323334353637383941424344454647484a4b4c4d4e50515253545556575859888201527f5a6162636465666768696a6b6d6e6f707172737475767778797a0000000000008682015260ff6139d785896127a7565b511690613712565b5116861a6139ed828a613712565b530161393b565b806000917a184f03e93ff9f4daa797ed6e38ed64bf6a1f01000000000000000080821015613b36575b506d04ee2d6d415b85acef810000000080831015613b27575b50662386f26fc1000080831015613b18575b506305f5e10080831015613b09575b5061271080831015613afa575b506064821015613aea575b600a80921015613ae0575b600190816021613a8b8287016134bf565b95860101905b613a9d575b5050505090565b600019849101917f30313233343536373839616263646566000000000000000000000000000000008282061a835304918215613adb57919082613a91565b613a96565b9160010191613a7a565b9190606460029104910191613a6f565b60049193920491019138613a64565b60089193920491019138613a57565b60109193920491019138613a48565b60209193920491019138613a36565b604093508104915038613a1d56fea2646970667358221220182b3d8b5e440efc84ccb868e5630a964fbdc5502a8a3b5303da38ebadf820bb64736f6c63430008110033",
    "linkReferences": {}
  },
  "methodIdentifiers": {
    "BUFFER_SIZE()": "004e394e",
    "codeOrigin()": "1d153ca4",
    "delegate()": "c89e4361",
    "getUri(uint256)": "da0544aa",
    "initialize(address,string[])": "94e6f56f",
    "tierNameOf(uint256)": "1baabc3e"
  },
  "id": 3
}