{
  "abi": [
    {
      "inputs": [],
      "name": "ETH",
      "outputs": [
        {
          "internalType": "uint256",
          "name": "",
          "type": "uint256"
        }
      ],
      "stateMutability": "view",
      "type": "function"
    },
    {
      "inputs": [],
      "name": "USD",
      "outputs": [
        {
          "internalType": "uint256",
          "name": "",
          "type": "uint256"
        }
      ],
      "stateMutability": "view",
      "type": "function"
    }
  ],
  "bytecode": {
    "object": "0x6080806040523461001957609b908161001f823930815050f35b600080fdfe6080806040526004361015601257600080fd5b600090813560e01c9081631bf6c21b14604c5750638322fff214603457600080fd5b80600319360112604957602060405160018152f35b80fd5b90508160031936011260615780600260209252f35b5080fdfea26469706673582212203ba5bc2a87a0be952b6e6ad198500080f2a8b8214114a6d2d57baecc8ba3149e64736f6c63430008140033",
    "linkReferences": {}
  },
  "methodIdentifiers": {
    "ETH()": "8322fff2",
    "USD()": "1bf6c21b"
  },
  "id": 124
}