{
  "abi": [
    {
      "inputs": [
        {
          "internalType": "contract IJBDirectory",
          "name": "_directory",
          "type": "address"
        },
        {
          "internalType": "contract IJBFundingCycleStore",
          "name": "_fundingCycleStore",
          "type": "address"
        },
        {
          "internalType": "contract IJBPrices",
          "name": "_prices",
          "type": "address"
        }
      ],
      "stateMutability": "nonpayable",
      "type": "constructor"
    },
    {
      "inputs": [],
      "name": "CURRENCY_MISMATCH",
      "type": "error"
    },
    {
      "inputs": [],
      "name": "DISTRIBUTION_AMOUNT_LIMIT_REACHED",
      "type": "error"
    },
    {
      "inputs": [],
      "name": "FUNDING_CYCLE_DISTRIBUTION_PAUSED",
      "type": "error"
    },
    {
      "inputs": [],
      "name": "FUNDING_CYCLE_PAYMENT_PAUSED",
      "type": "error"
    },
    {
      "inputs": [],
      "name": "FUNDING_CYCLE_REDEEM_PAUSED",
      "type": "error"
    },
    {
      "inputs": [],
      "name": "INADEQUATE_CONTROLLER_ALLOWANCE",
      "type": "error"
    },
    {
      "inputs": [],
      "name": "INADEQUATE_PAYMENT_TERMINAL_STORE_BALANCE",
      "type": "error"
    },
    {
      "inputs": [],
      "name": "INSUFFICIENT_TOKENS",
      "type": "error"
    },
    {
      "inputs": [],
      "name": "INVALID_AMOUNT_TO_SEND_DELEGATE",
      "type": "error"
    },
    {
      "inputs": [],
      "name": "INVALID_FUNDING_CYCLE",
      "type": "error"
    },
    {
      "inputs": [],
      "name": "PAYMENT_TERMINAL_MIGRATION_NOT_ALLOWED",
      "type": "error"
    },
    {
      "inputs": [
        {
          "internalType": "uint256",
          "name": "prod1",
          "type": "uint256"
        },
        {
          "internalType": "uint256",
          "name": "denominator",
          "type": "uint256"
        }
      ],
      "name": "PRBMath__MulDivOverflow",
      "type": "error"
    },
    {
      "inputs": [
        {
          "internalType": "contract IJBSingleTokenPaymentTerminal",
          "name": "",
          "type": "address"
        },
        {
          "internalType": "uint256",
          "name": "",
          "type": "uint256"
        }
      ],
      "name": "balanceOf",
      "outputs": [
        {
          "internalType": "uint256",
          "name": "",
          "type": "uint256"
        }
      ],
      "stateMutability": "view",
      "type": "function"
    },
    {
      "inputs": [
        {
          "internalType": "contract IJBSingleTokenPaymentTerminal",
          "name": "_terminal",
          "type": "address"
        },
        {
          "internalType": "uint256",
          "name": "_projectId",
          "type": "uint256"
        }
      ],
      "name": "currentOverflowOf",
      "outputs": [
        {
          "internalType": "uint256",
          "name": "",
          "type": "uint256"
        }
      ],
      "stateMutability": "view",
      "type": "function"
    },
    {
      "inputs": [
        {
          "internalType": "uint256",
          "name": "_projectId",
          "type": "uint256"
        },
        {
          "internalType": "uint256",
          "name": "_tokenCount",
          "type": "uint256"
        },
        {
          "internalType": "uint256",
          "name": "_totalSupply",
          "type": "uint256"
        },
        {
          "internalType": "uint256",
          "name": "_overflow",
          "type": "uint256"
        }
      ],
      "name": "currentReclaimableOverflowOf",
      "outputs": [
        {
          "internalType": "uint256",
          "name": "",
          "type": "uint256"
        }
      ],
      "stateMutability": "view",
      "type": "function"
    },
    {
      "inputs": [
        {
          "internalType": "contract IJBSingleTokenPaymentTerminal",
          "name": "_terminal",
          "type": "address"
        },
        {
          "internalType": "uint256",
          "name": "_projectId",
          "type": "uint256"
        },
        {
          "internalType": "uint256",
          "name": "_tokenCount",
          "type": "uint256"
        },
        {
          "internalType": "bool",
          "name": "_useTotalOverflow",
          "type": "bool"
        }
      ],
      "name": "currentReclaimableOverflowOf",
      "outputs": [
        {
          "internalType": "uint256",
          "name": "",
          "type": "uint256"
        }
      ],
      "stateMutability": "view",
      "type": "function"
    },
    {
      "inputs": [
        {
          "internalType": "uint256",
          "name": "_projectId",
          "type": "uint256"
        },
        {
          "internalType": "uint256",
          "name": "_decimals",
          "type": "uint256"
        },
        {
          "internalType": "uint256",
          "name": "_currency",
          "type": "uint256"
        }
      ],
      "name": "currentTotalOverflowOf",
      "outputs": [
        {
          "internalType": "uint256",
          "name": "",
          "type": "uint256"
        }
      ],
      "stateMutability": "view",
      "type": "function"
    },
    {
      "inputs": [],
      "name": "directory",
      "outputs": [
        {
          "internalType": "contract IJBDirectory",
          "name": "",
          "type": "address"
        }
      ],
      "stateMutability": "view",
      "type": "function"
    },
    {
      "inputs": [],
      "name": "fundingCycleStore",
      "outputs": [
        {
          "internalType": "contract IJBFundingCycleStore",
          "name": "",
          "type": "address"
        }
      ],
      "stateMutability": "view",
      "type": "function"
    },
    {
      "inputs": [],
      "name": "prices",
      "outputs": [
        {
          "internalType": "contract IJBPrices",
          "name": "",
          "type": "address"
        }
      ],
      "stateMutability": "view",
      "type": "function"
    },
    {
      "inputs": [
        {
          "internalType": "uint256",
          "name": "_projectId",
          "type": "uint256"
        },
        {
          "internalType": "uint256",
          "name": "_amount",
          "type": "uint256"
        }
      ],
      "name": "recordAddedBalanceFor",
      "outputs": [],
      "stateMutability": "nonpayable",
      "type": "function"
    },
    {
      "inputs": [
        {
          "internalType": "uint256",
          "name": "_projectId",
          "type": "uint256"
        },
        {
          "internalType": "uint256",
          "name": "_amount",
          "type": "uint256"
        },
        {
          "internalType": "uint256",
          "name": "_currency",
          "type": "uint256"
        }
      ],
      "name": "recordDistributionFor",
      "outputs": [
        {
          "components": [
            {
              "internalType": "uint256",
              "name": "number",
              "type": "uint256"
            },
            {
              "internalType": "uint256",
              "name": "configuration",
              "type": "uint256"
            },
            {
              "internalType": "uint256",
              "name": "basedOn",
              "type": "uint256"
            },
            {
              "internalType": "uint256",
              "name": "start",
              "type": "uint256"
            },
            {
              "internalType": "uint256",
              "name": "duration",
              "type": "uint256"
            },
            {
              "internalType": "uint256",
              "name": "weight",
              "type": "uint256"
            },
            {
              "internalType": "uint256",
              "name": "discountRate",
              "type": "uint256"
            },
            {
              "internalType": "contract IJBFundingCycleBallot",
              "name": "ballot",
              "type": "address"
            },
            {
              "internalType": "uint256",
              "name": "metadata",
              "type": "uint256"
            }
          ],
          "internalType": "struct JBFundingCycle",
          "name": "fundingCycle",
          "type": "tuple"
        },
        {
          "internalType": "uint256",
          "name": "distributedAmount",
          "type": "uint256"
        }
      ],
      "stateMutability": "nonpayable",
      "type": "function"
    },
    {
      "inputs": [
        {
          "internalType": "uint256",
          "name": "_projectId",
          "type": "uint256"
        }
      ],
      "name": "recordMigration",
      "outputs": [
        {
          "internalType": "uint256",
          "name": "balance",
          "type": "uint256"
        }
      ],
      "stateMutability": "nonpayable",
      "type": "function"
    },
    {
      "inputs": [
        {
          "internalType": "address",
          "name": "_payer",
          "type": "address"
        },
        {
          "components": [
            {
              "internalType": "address",
              "name": "token",
              "type": "address"
            },
            {
              "internalType": "uint256",
              "name": "value",
              "type": "uint256"
            },
            {
              "internalType": "uint256",
              "name": "decimals",
              "type": "uint256"
            },
            {
              "internalType": "uint256",
              "name": "currency",
              "type": "uint256"
            }
          ],
          "internalType": "struct JBTokenAmount",
          "name": "_amount",
          "type": "tuple"
        },
        {
          "internalType": "uint256",
          "name": "_projectId",
          "type": "uint256"
        },
        {
          "internalType": "uint256",
          "name": "_baseWeightCurrency",
          "type": "uint256"
        },
        {
          "internalType": "address",
          "name": "_beneficiary",
          "type": "address"
        },
        {
          "internalType": "string",
          "name": "_memo",
          "type": "string"
        },
        {
          "internalType": "bytes",
          "name": "_metadata",
          "type": "bytes"
        }
      ],
      "name": "recordPaymentFrom",
      "outputs": [
        {
          "components": [
            {
              "internalType": "uint256",
              "name": "number",
              "type": "uint256"
            },
            {
              "internalType": "uint256",
              "name": "configuration",
              "type": "uint256"
            },
            {
              "internalType": "uint256",
              "name": "basedOn",
              "type": "uint256"
            },
            {
              "internalType": "uint256",
              "name": "start",
              "type": "uint256"
            },
            {
              "internalType": "uint256",
              "name": "duration",
              "type": "uint256"
            },
            {
              "internalType": "uint256",
              "name": "weight",
              "type": "uint256"
            },
            {
              "internalType": "uint256",
              "name": "discountRate",
              "type": "uint256"
            },
            {
              "internalType": "contract IJBFundingCycleBallot",
              "name": "ballot",
              "type": "address"
            },
            {
              "internalType": "uint256",
              "name": "metadata",
              "type": "uint256"
            }
          ],
          "internalType": "struct JBFundingCycle",
          "name": "fundingCycle",
          "type": "tuple"
        },
        {
          "internalType": "uint256",
          "name": "tokenCount",
          "type": "uint256"
        },
        {
          "components": [
            {
              "internalType": "contract IJBPayDelegate",
              "name": "delegate",
              "type": "address"
            },
            {
              "internalType": "uint256",
              "name": "amount",
              "type": "uint256"
            }
          ],
          "internalType": "struct JBPayDelegateAllocation[]",
          "name": "delegateAllocations",
          "type": "tuple[]"
        },
        {
          "internalType": "string",
          "name": "memo",
          "type": "string"
        }
      ],
      "stateMutability": "nonpayable",
      "type": "function"
    },
    {
      "inputs": [
        {
          "internalType": "address",
          "name": "_holder",
          "type": "address"
        },
        {
          "internalType": "uint256",
          "name": "_projectId",
          "type": "uint256"
        },
        {
          "internalType": "uint256",
          "name": "_tokenCount",
          "type": "uint256"
        },
        {
          "internalType": "string",
          "name": "_memo",
          "type": "string"
        },
        {
          "internalType": "bytes",
          "name": "_metadata",
          "type": "bytes"
        }
      ],
      "name": "recordRedemptionFor",
      "outputs": [
        {
          "components": [
            {
              "internalType": "uint256",
              "name": "number",
              "type": "uint256"
            },
            {
              "internalType": "uint256",
              "name": "configuration",
              "type": "uint256"
            },
            {
              "internalType": "uint256",
              "name": "basedOn",
              "type": "uint256"
            },
            {
              "internalType": "uint256",
              "name": "start",
              "type": "uint256"
            },
            {
              "internalType": "uint256",
              "name": "duration",
              "type": "uint256"
            },
            {
              "internalType": "uint256",
              "name": "weight",
              "type": "uint256"
            },
            {
              "internalType": "uint256",
              "name": "discountRate",
              "type": "uint256"
            },
            {
              "internalType": "contract IJBFundingCycleBallot",
              "name": "ballot",
              "type": "address"
            },
            {
              "internalType": "uint256",
              "name": "metadata",
              "type": "uint256"
            }
          ],
          "internalType": "struct JBFundingCycle",
          "name": "fundingCycle",
          "type": "tuple"
        },
        {
          "internalType": "uint256",
          "name": "reclaimAmount",
          "type": "uint256"
        },
        {
          "components": [
            {
              "internalType": "contract IJBRedemptionDelegate",
              "name": "delegate",
              "type": "address"
            },
            {
              "internalType": "uint256",
              "name": "amount",
              "type": "uint256"
            }
          ],
          "internalType": "struct JBRedemptionDelegateAllocation[]",
          "name": "delegateAllocations",
          "type": "tuple[]"
        },
        {
          "internalType": "string",
          "name": "memo",
          "type": "string"
        }
      ],
      "stateMutability": "nonpayable",
      "type": "function"
    },
    {
      "inputs": [
        {
          "internalType": "uint256",
          "name": "_projectId",
          "type": "uint256"
        },
        {
          "internalType": "uint256",
          "name": "_amount",
          "type": "uint256"
        },
        {
          "internalType": "uint256",
          "name": "_currency",
          "type": "uint256"
        }
      ],
      "name": "recordUsedAllowanceOf",
      "outputs": [
        {
          "components": [
            {
              "internalType": "uint256",
              "name": "number",
              "type": "uint256"
            },
            {
              "internalType": "uint256",
              "name": "configuration",
              "type": "uint256"
            },
            {
              "internalType": "uint256",
              "name": "basedOn",
              "type": "uint256"
            },
            {
              "internalType": "uint256",
              "name": "start",
              "type": "uint256"
            },
            {
              "internalType": "uint256",
              "name": "duration",
              "type": "uint256"
            },
            {
              "internalType": "uint256",
              "name": "weight",
              "type": "uint256"
            },
            {
              "internalType": "uint256",
              "name": "discountRate",
              "type": "uint256"
            },
            {
              "internalType": "contract IJBFundingCycleBallot",
              "name": "ballot",
              "type": "address"
            },
            {
              "internalType": "uint256",
              "name": "metadata",
              "type": "uint256"
            }
          ],
          "internalType": "struct JBFundingCycle",
          "name": "fundingCycle",
          "type": "tuple"
        },
        {
          "internalType": "uint256",
          "name": "usedAmount",
          "type": "uint256"
        }
      ],
      "stateMutability": "nonpayable",
      "type": "function"
    },
    {
      "inputs": [
        {
          "internalType": "contract IJBSingleTokenPaymentTerminal",
          "name": "",
          "type": "address"
        },
        {
          "internalType": "uint256",
          "name": "",
          "type": "uint256"
        },
        {
          "internalType": "uint256",
          "name": "",
          "type": "uint256"
        }
      ],
      "name": "usedDistributionLimitOf",
      "outputs": [
        {
          "internalType": "uint256",
          "name": "",
          "type": "uint256"
        }
      ],
      "stateMutability": "view",
      "type": "function"
    },
    {
      "inputs": [
        {
          "internalType": "contract IJBSingleTokenPaymentTerminal",
          "name": "",
          "type": "address"
        },
        {
          "internalType": "uint256",
          "name": "",
          "type": "uint256"
        },
        {
          "internalType": "uint256",
          "name": "",
          "type": "uint256"
        }
      ],
      "name": "usedOverflowAllowanceOf",
      "outputs": [
        {
          "internalType": "uint256",
          "name": "",
          "type": "uint256"
        }
      ],
      "stateMutability": "view",
      "type": "function"
    }
  ],
  "bytecode": {
    "object": "0x60e0346200014257601f620032b338819003918201601f19168301916001600160401b038311848410176200014757808492606094604052833981010312620001425780516001600160a01b03919082811681036200014257602082015191838316830362000142576040015192831683036200014257600160005560805260a05260c05260405161315590816200015e823960805181818161040f0152818161085001528181610ad30152818161166701528181611d57015281816128db0152612b94015260a0518181816102060152818161037c0152818161099701528181610be9015281816112f5015281816113e4015281816115e301528181611c7e01528181611fa20152818161213f01526127cb015260c05181818161030f015281816106690152818161188c0152818161243b01528181612a2d0152612cd20152f35b600080fd5b634e487b7160e01b600052604160045260246000fdfe608080604052600436101561001357600080fd5b60003560e01c908162fdd58e146119df5750806325386715146115985780632fa1b39114611408578063557e7155146113c45780636bb6a5ad146112b2578063a2df1f95146108ee578063a57c7f59146108c7578063b753d7e9146108ae578063c294b2f414610874578063c41c2f2414610830578063c664459714610333578063d3419bf3146102ef578063d49031c0146101c2578063d4c3a8d214610178578063e7c8e3e31461011d5763e8ba563a146100ce57600080fd5b34610118576001600160a01b036100e436611b83565b9290911660005260026020526040600020906000526020526040600020906000526020526020604060002054604051908152f35b600080fd5b34610118576040600319360112610118576004353360005260016020526040600020816000526020526101576024356040600020546120f2565b90336000526001602052604060002090600052602052604060002055600080f35b34610118576001600160a01b0361018e36611b83565b9290911660005260036020526040600020906000526020526040600020906000526020526020604060002054604051908152f35b34610118576040600319360112610118576101db611a22565b602435906040516321d1336160e11b8152826004820152610120916001600160a01b038383602481847f0000000000000000000000000000000000000000000000000000000000000000165afa9283156102af576004946000946102bb575b50506020906040519485809263e5a6b10f60e01b825285165afa9283156102af57600093610279575b60206102718585888661288e565b604051908152f35b9250906020833d82116102a7575b8161029460209383611aa7565b8101031261011857915191906020610263565b3d9150610287565b6040513d6000823e3d90fd5b602092945090816102e092903d106102e8575b6102d88183611aa7565b810190611bad565b92908661023a565b503d6102ce565b346101185760006003193601126101185760206040516001600160a01b037f0000000000000000000000000000000000000000000000000000000000000000168152f35b346101185761034136611a38565b9161034a612006565b50610353612ed3565b604051916321d1336160e11b8352816004840152610120906001600160a01b03908285602481857f0000000000000000000000000000000000000000000000000000000000000000165afa9485156102af57600095610811575b50600191828061010088015160491c16146107e757336000526020916002835260406000208660005283526040600020875160005283526103f3816040600020546120f2565b97604051632eec7b5560e11b81528760048201528481602481877f0000000000000000000000000000000000000000000000000000000000000000165afa9081156102af576000916107ca575b50848901519060405190637e062a3560e11b82528682600481335afa9081156102af578a876104cb9560409560009561079b575b5085517fe8db2130000000000000000000000000000000000000000000000000000000008152600481019390935260248301523360448301526001600160a01b039093166064820152938492839182906084820190565b0392165afa9081156102af57600090600092610769575b50808b11908115610760575b5061073657810361070c576040519063e5a6b10f60e01b82528482600481335afa9081156102af5785926000926106db575b50808203610641575050509050935b336000528282526040600020816000528252604060002054851161061757610140963360005260028352604060002082600052835260406000208751600052835260406000205533600052828252604060002081600052825284604060002054039133600052838152604060002091600052526040600020556000556106126040518094805182526020810151602083015260408101516040830152606081015160608301526080810151608083015260a081015160a083015260c081015160c08301526001600160a01b0360e08201511660e083015261010080910151910152565b820152f35b60046040517f2fca7ece000000000000000000000000000000000000000000000000000000008152fd5b6064906040519586938492635268657960e11b845260048401526024830152601260448301527f0000000000000000000000000000000000000000000000000000000000000000165afa9081156102af576000916106aa575b6106a49250612f42565b9361052f565b90508282813d83116106d4575b6106c18183611aa7565b81010312610118576106a491519061069a565b503d6106b7565b8381949293503d8311610705575b6106f38183611aa7565b8101031261011857849151908b610520565b503d6106e9565b60046040517fe56ea4e7000000000000000000000000000000000000000000000000000000008152fd5b60046040517f08dae4ac000000000000000000000000000000000000000000000000000000008152fd5b9050158b6104ee565b905061078d915060403d604011610794575b6107858183611aa7565b81019061276f565b908b6104e2565b503d61077b565b6107bc9195508b3d8d116107c3575b6107b48183611aa7565b810190611c2e565b9338610474565b503d6107aa565b6107e19150853d87116107c3576107b48183611aa7565b8a610440565b60046040517f861e9dcd000000000000000000000000000000000000000000000000000000008152fd5b610829919550833d85116102e8576102d88183611aa7565b93866103ad565b346101185760006003193601126101185760206040516001600160a01b037f0000000000000000000000000000000000000000000000000000000000000000168152f35b346101185760806003193601126101185761088d611a22565b60643590811515820361011857602091610271916044359060243590611c4d565b346101185760206102716108c136611a38565b91612b4b565b34610118576080600319360112610118576020610271606435604435602435600435611f6c565b346101185760a060031936011261011857610907611a22565b60643567ffffffffffffffff8111610118573660238201121561011857610938903690602481600401359101611ae6565b60843567ffffffffffffffff811161011857610958903690600401611b1d565b90610961612006565b5061096a612ed3565b600091606093604051936321d1336160e11b85526024356004860152610120856024816001600160a01b037f0000000000000000000000000000000000000000000000000000000000000000165afa9485156102af5760009561128f575b50600180610100870151604a1c1614611265576000866040516109ea81611a52565b828152826020820152826040820152015260405192637e062a3560e11b8452602084600481335afa9384156102af57600094611244575b50604051947f313ce567000000000000000000000000000000000000000000000000000000008652602086600481335afa9586156102af57600096611210575b506040519263e5a6b10f60e01b8452602084600481335afa9384156102af576000946111dc575b506001806101008a015160511c16146000146111c857610aab8488602435612b4b565b935b60405197632eec7b5560e11b895260243560048a01526020896024816001600160a01b037f0000000000000000000000000000000000000000000000000000000000000000165afa9889156102af576001600160a01b03996020916000916111ab575b506024604051809c81937fc18f2d3100000000000000000000000000000000000000000000000000000000835283356004840152165afa9889156102af57600099611177575b50886044351161114d5785611134575b6001600160a01b0360405198610b7b8a611a52565b1688528260208901526040880152898701526101008801516001808260531c1614908161111e575b50156111105750604051947fc55f571c00000000000000000000000000000000000000000000000000000000865260243560048701526020866024816001600160a01b037f0000000000000000000000000000000000000000000000000000000000000000165afa9586156102af576000966110df575b506020880151956001806101008b015160511c16149060038110156110c9576110ba57610c4689612eb7565b915b604051958661018081011067ffffffffffffffff610180890111176110a4576000998a996001600160a01b03610de79a6101808b01604052338b521660208a015260243560408a01528d890152604435608089015260a088015260c087015260e08601526101008501526101208401526101408301526101608201526001600160a01b0361010086015160541c16906040519485809481937fa51cfd18000000000000000000000000000000000000000000000000000000008352602060048401526001600160a01b0381511660248401526001600160a01b036020820151166044840152604081015160648401528a8101516084840152608081015160a484015260a081015160c484015260c081015160e4840152610d9860e0820151610104850190606080916001600160a01b03815116845260208101516020850152604081015160408501520151910152565b61010081015115156101848401526101208101516101a4840152610160610dd26101408301516101e06101c4870152610204860190611b5e565b910151602319848303016101e4850152611b5e565b03925af180156102af57600091600094600092610fa1575b50509290915b828451610f55575b336000526001602052604060002060243560005260205260406000205481116106175780610f14575b5060016000556040519261018090610eab8583810194805182526020810151602083015260408101516040830152606081015160608301526080810151608083015260a081015160a083015260c081015160c08301526001600160a01b0360e08201511660e083015261010080910151910152565b610120850152610140840152835180915260206101a0840194019060005b818110610ee9578480610ee58887838203610160850152611b5e565b0390f35b825180516001600160a01b031687526020908101518188015260409096019590920191600101610ec9565b336000526001602052604060002060243560005260205260406000205403336000526001602052604060002060243560005260205260406000205584610e36565b9160009391935b8551811015610f97576020610f7182886120a5565b51015180610f83575b50600101610f5c565b610f9090600192956120f2565b9390610f7a565b5091929092610e0d565b92509350503d90816000853e610fb78285611aa7565b838281010312610118578251602084015167ffffffffffffffff811161011857610fe69083860190860161204b565b91604085015167ffffffffffffffff811161011857818601601f8288010112156101185780860151916110188361208d565b966110266040519889611aa7565b83885260208089019460061b8483010101928282018411610118578101602001935b83851061105d57505050505090928480610dff565b6040858484010312610118576040519061107682611a6e565b8551906001600160a01b03821682036101185782602092604094528288015183820152815201940193611048565b634e487b7160e01b600052604160045260246000fd5b6110c389612e9b565b91610c48565b634e487b7160e01b600052602160045260246000fd5b61110291965060203d602011611109575b6110fa8183611aa7565b810190612757565b9489610c1a565b503d6110f0565b969550935050505090610e05565b6001600160a01b03915060541c1615158a610ba3565b915061114785896044358c602435612785565b91610b66565b60046040517fb8af2200000000000000000000000000000000000000000000000000000000008152fd5b9098506020813d6020116111a3575b8161119360209383611aa7565b810103126101185751978b610b56565b3d9150611186565b6111c29150823d84116107c3576107b48183611aa7565b8d610b10565b6111d684896024353361288e565b93610aad565b9093506020813d602011611208575b816111f860209383611aa7565b8101031261011857519289610a88565b3d91506111eb565b9095506020813d60201161123c575b8161122c60209383611aa7565b8101031261011857519488610a61565b3d915061121f565b61125e91945060203d6020116107c3576107b48183611aa7565b9287610a21565b60046040517fa97cf58f000000000000000000000000000000000000000000000000000000008152fd5b6112ab9195506101203d610120116102e8576102d88183611aa7565b93866109c8565b3461011857602080600319360112610118576004356112cf612ed3565b6040516321d1336160e11b81528160048201526101209081816024816001600160a01b037f0000000000000000000000000000000000000000000000000000000000000000165afa9182156102af576001928392610100926000926113a7575b50500151604d1c160361137d57336000526001825260406000208160005282526040600020549033600052600183526040600020906000528252600060408120556001600055604051908152f35b60046040517fe7c9e0be000000000000000000000000000000000000000000000000000000008152fd5b6113bd9250803d106102e8576102d88183611aa7565b868061132f565b346101185760006003193601126101185760206040516001600160a01b037f0000000000000000000000000000000000000000000000000000000000000000168152f35b34610118576101408060031936011261011857611423611a22565b6080602319360112610118576001600160a01b039060e435828116810361011857610104359067ffffffffffffffff92838311610118573660238401121561011857826004013591848311610118573660248486010111610118576101243594851161011857602461149c6114bd963690600401611b1d565b946114a5612006565b506114ae612ed3565b019160c4359060a4359061210d565b9060019593929580600055604051968795610180916115398884810198805182526020810151602083015260408101516040830152606081015160608301526080810151608083015260a081015160a083015260c081015160c08301526001600160a01b0360e08201511660e083015261010080910151910152565b61012088015286015281518094526101a08501936020809301926000975b828910611573578780610ee58989838203610160850152611b5e565b8451805182168852820151828801529783019789975060409096019593810193611557565b34610118576115a636611a38565b6115b1929192612006565b506115ba612ed3565b604051916321d1336160e11b8352806004840152610120906001600160a01b03908285602481857f0000000000000000000000000000000000000000000000000000000000000000165afa9485156102af576000956119c0575b5033600052602091600383526040600020826000528352604060002096838701978851600052845261164b816040600020546120f2565b91604051632eec7b5560e11b81528460048201528581602481857f0000000000000000000000000000000000000000000000000000000000000000165afa9081156102af576000916119a3575b5089519060405190637e062a3560e11b82528782600481335afa9081156102af57878561172195604095600095611984575b5085517f7a81b562000000000000000000000000000000000000000000000000000000008152600481019390935260248301523360448301526001600160a01b039093166064820152938492839182906084820190565b0392165afa9081156102af57600090600092611962575b50808511908115611959575b5061192f57870361070c576040519663e5a6b10f60e01b88528588600481335afa9788156102af57600098611900575b5085908881036118655750505061178f90955b87843361288e565b8511610617576101409633600052600384526040600020836000528452604060002090516000528352604060002055336000526001825260406000208160005282526117e0846040600020546120cf565b9133600052600181526040600020916000525260406000205560016000556106126040518094805182526020810151602083015260408101516040830152606081015160608301526080810151608083015260a081015160a083015260c081015160c08301526001600160a01b0360e08201511660e083015261010080910151910152565b606460405180948193635268657960e11b835260048301528b6024830152601260448301527f0000000000000000000000000000000000000000000000000000000000000000165afa9081156102af576000916118d1575b506118cb9061178f92612f42565b95611787565b90508481813d83116118f9575b6118e88183611aa7565b81010312610118575161178f6118bd565b503d6118de565b9097508581813d8311611928575b6119188183611aa7565b8101031261011857519685611774565b503d61190e565b60046040517fb6ecab12000000000000000000000000000000000000000000000000000000008152fd5b9050158b611744565b905061197d915060403d604011610794576107858183611aa7565b908b611738565b61199c9195508c8d3d106107c3576107b48183611aa7565b93386116ca565b6119ba9150863d88116107c3576107b48183611aa7565b8a611698565b6119d8919550833d85116102e8576102d88183611aa7565b9386611614565b34610118576040600319360112610118576020906001600160a01b03611a03611a22565b1660005260018252604060002060243560005282526040600020548152f35b600435906001600160a01b038216820361011857565b600319606091011261011857600435906024359060443590565b6080810190811067ffffffffffffffff8211176110a457604052565b6040810190811067ffffffffffffffff8211176110a457604052565b610120810190811067ffffffffffffffff8211176110a457604052565b90601f601f19910116810190811067ffffffffffffffff8211176110a457604052565b67ffffffffffffffff81116110a457601f01601f191660200190565b929192611af282611aca565b91611b006040519384611aa7565b829481845281830111610118578281602093846000960137010152565b9080601f8301121561011857816020611b3893359101611ae6565b90565b60005b838110611b4e5750506000910152565b8181015183820152602001611b3e565b90601f19601f602093611b7c81518092818752878088019101611b3b565b0116010190565b6003196060910112610118576004356001600160a01b038116810361011857906024359060443590565b90816101209103126101185760405190611bc682611a8a565b805182526020810151602083015260408101516040830152606081015160608301526080810151608083015260a081015160a083015260c081015160c083015260e08101516001600160a01b03811681036101185760e0830152610100809101519082015290565b9081602091031261011857516001600160a01b03811681036101185790565b919290926040918251936321d1336160e11b85526004948686820152610120916001600160a01b03918381602481867f0000000000000000000000000000000000000000000000000000000000000000165afa938415611e5057600094611f4b575b5050819293600090600014611eca5750168451907f313ce56700000000000000000000000000000000000000000000000000000000825260209081838981845afa928315611e5057908891600094611e98575b50829088519283809263e5a6b10f60e01b82525afa918215611e5057600092611e67575b5050611d329188612b4b565b945b8515611e5b57845190632eec7b5560e11b825287818301526020908183602481877f0000000000000000000000000000000000000000000000000000000000000000165afa928315611e5057908991600094611e2c575b50602490839495895196879485937fc18f2d31000000000000000000000000000000000000000000000000000000008552840152165afa948515611e225750600094611dee575b5050828211611de457611b3894612785565b5050505050600090565b8181959293953d8311611e1b575b611e068183611aa7565b81010312611e18575051913880611dd2565b80fd5b503d611dfc565b513d6000823e3d90fd5b83945090611e48602492853d87116107c3576107b48183611aa7565b945090611d8b565b87513d6000823e3d90fd5b50505050505050600090565b81819392933d8311611e91575b611e7e8183611aa7565b81010312611e18575051611d3238611d26565b503d611e74565b9150928282813d8311611ec3575b611eb08183611aa7565b81010312611e1857505191879082611d02565b503d611ea6565b909150855163e5a6b10f60e01b815260208189818787165afa918215611f40578591818b9294611f06575b5050611f009361288e565b94611d34565b92509250506020823d8211611f38575b81611f2360209383611aa7565b81010312611e185750518388611f0038611ef5565b3d9150611f16565b8751903d90823e3d90fd5b8394509081611f6592903d106102e8576102d88183611aa7565b9238611caf565b9291908215611ffd57818111611ffd576040516321d1336160e11b81528460048201526101209485826024816001600160a01b037f0000000000000000000000000000000000000000000000000000000000000000165afa9182156102af57611b3896600093611fde575b5050612785565b611ff5929350803d106102e8576102d88183611aa7565b903880611fd7565b50505050600090565b6040519061201382611a8a565b816101006000918281528260208201528260408201528260608201528260808201528260a08201528260c08201528260e08201520152565b81601f8201121561011857805161206181611aca565b9261206f6040519485611aa7565b8184526020828401011161011857611b389160208085019101611b3b565b67ffffffffffffffff81116110a45760051b60200190565b80518210156120b95760209160051b010190565b634e487b7160e01b600052603260045260246000fd5b919082039182116120dc57565b634e487b7160e01b600052601160045260246000fd5b919082018092116120dc57565b604d81116120dc57600a0a90565b92969596949394919091606095604051946321d1336160e11b8652846004870152610120866024816001600160a01b037f0000000000000000000000000000000000000000000000000000000000000000165afa9586156102af57600096612734575b50859986511561270a5760018061010089015160481c16146126e0576101008701516001808260521c161490816126ca575b50156126af5760208701519260a08801519061ffff6101008a015160181c1699604051948561014081011067ffffffffffffffff610140880111176110a45761014086016040523386526001600160a01b031660208601526080366023190112610118576040519a6122138c611a52565b602435936001600160a01b0385168503610118576001600160a01b0360009d998f998f9b61239f9b8f9161227e9a8152604435602082015260643560408201526084358282015260408d01528b015260808a01521660a088015260c087015260e08601523691611ae6565b6101008301526101208201526001600160a01b0361010087015160541c16906040519788809481937fd46cf171000000000000000000000000000000000000000000000000000000008352602060048401526001600160a01b0381511660248401526001600160a01b03602082015116604484015261232c60408201516064850190606080916001600160a01b03815116845260208101516020850152604081015160408501520151910152565b8c81015160e484015260808101516101048401526001600160a01b0360a08201511661012484015260c081015161014484015260e081015161016484015261012061238a6101008301516101a06101848701526101c4860190611b5e565b910151602319848303016101a4850152611b5e565b03925af180156102af576000948596869261259c575b50509493915b60443580948751612516575b85156125095750806124c2575b505081156124b9576064359060843560009180821460001461240a575050509061240161240793926120ff565b916130a7565b92565b6040939192935192635268657960e11b84526004840152602483015260448201526020816064816001600160a01b037f0000000000000000000000000000000000000000000000000000000000000000165afa9182156124ad578092612477575b505090612407926130a7565b9091506020823d82116124a5575b8161249260209383611aa7565b81010312611e185750516124073861246b565b3d9150612485565b604051903d90823e3d90fd5b50600094915050565b6124e6903360005260016020526040600020836000526020526040600020546120f2565b9033600052600160205260406000209060005260205260406000205538806123d4565b9850600097945050505050565b979492909895939160005b885181101561258e576020612536828b6120a5565b51015180612548575b50600101612521565b909a8082116125645760019161255d916120cf565b9a9061253f565b60046040517f6d51b526000000000000000000000000000000000000000000000000000000008152fd5b5091939598909294976123c7565b915095503d908186883e6125b08288611aa7565b8682810103126126ab57855190602087015167ffffffffffffffff81116126a7576125e09082890190890161204b565b9560408801519067ffffffffffffffff8211611e1857828901601f838b01011215611e185781890151926126138461208d565b996126216040519b8c611aa7565b848b526020808c019560061b85830101019382820185116126a3578101602001945b84861061265957505050505050939438806123b5565b60408684840103126126a35760405161267181611a6e565b86516001600160a01b038116810361269f579181604093602093528289015183820152815201950194612643565b8580fd5b8380fd5b8680fd5b8480fd5b505060a085015193956126c492503691611ae6565b936123bb565b6001600160a01b03915060541c161515386121a2565b60046040517fa3bb9133000000000000000000000000000000000000000000000000000000008152fd5b60046040517f2e96671a000000000000000000000000000000000000000000000000000000008152fd5b6127509196506101203d610120116102e8576102d88183611aa7565b9438612170565b90816020910312610118575160038110156101185790565b9190826040910312610118576020825192015190565b93929384831461285957604051907fc55f571c00000000000000000000000000000000000000000000000000000000825260048201526020816024816001600160a01b037f0000000000000000000000000000000000000000000000000000000000000000165afa9081156102af57600091612870575b5060038110156110c9576128615761281390612eb7565b915b8215611ffd578382612826926130a7565b9161271091828214612859578183039283116120dc57611b38946128539361284d926130a7565b906120f2565b90613006565b505050905090565b61286a90612e9b565b91612815565b612888915060203d8111611109576110fa8183611aa7565b386127fc565b9192906001600160a01b038084169460009386855260209160018352604094858720818852845285872054978815612b3e57865190632eec7b5560e11b825282600483015285826024818a7f0000000000000000000000000000000000000000000000000000000000000000165afa918215612b345790600492918a92612b15575b5086850151878d8b5195868092637e062a3560e11b82525afa938415612b0b5791898b949261299e989796948e95612aec575b508551988995869485937fe8db21300000000000000000000000000000000000000000000000000000000085528a60048601929094936060926080850196855260208501526001600160a01b03809216604085015216910152565b0392165afa998a15612ae2578893899b612ab7575b508852600285528688209088528452858720905187528352848620546129d8916120cf565b9687151580612aad575b612a01575b50505050508282116000146129fb57500390565b91505090565b906064839286999799519586938492635268657960e11b845260048401526024830152601260448301527f0000000000000000000000000000000000000000000000000000000000000000165afa928315612aa457508592612a74575b5050612a6991612f42565b9138808080806129e7565b90809250813d8311612a9d575b612a8b8183611aa7565b810103126126a35751612a6938612a5e565b503d612a81565b513d87823e3d90fd5b50818114156129e2565b612ad7919b506129d89450889392933d8a11610794576107858183611aa7565b9a90939192916129b3565b87513d8a823e3d90fd5b612b049195508b3d8d116107c3576107b48183611aa7565b9338612943565b8a513d8d823e3d90fd5b612b2d919250873d89116107c3576107b48183611aa7565b9038612910565b88513d8b823e3d90fd5b5050505050505091505090565b9290926040918251917fd1754153000000000000000000000000000000000000000000000000000000008352600481818501526000926024946001600160a01b039185828881867f0000000000000000000000000000000000000000000000000000000000000000165afa918215612df6578692612d4f575b508599869a5b83518c1015612c775784612bde8d866120a5565b51168a5180917fa32e1e960000000000000000000000000000000000000000000000000000000082528989830152818c60209485935afa918215612c6d578a92612c39575b5050612c31906001926120f2565b9b019a612bca565b90809250813d8311612c66575b612c508183611aa7565b81010312612c62575181612c31612c23565b8880fd5b503d612c46565b8c513d8c823e3d90fd5b9795509795989150985060018114600014612ca9575050505050915b5060128103612ca0575090565b611b3891612e20565b60209260019260649287519687958694635268657960e11b8652850152830152601260448301527f0000000000000000000000000000000000000000000000000000000000000000165afa918215612d4657508491612d13575b50612d0d91612f42565b91612c93565b90506020813d8211612d3e575b81612d2d60209383611aa7565b810103126126a35751612d0d612d03565b3d9150612d20565b513d86823e3d90fd5b9091503d8087833e612d618183611aa7565b8101906020908181840312612df25780519067ffffffffffffffff8211612c6257019180601f84011215612df2578251612d9a8161208d565b93612da78c519586611aa7565b818552838086019260051b820101928311612dee578301905b828210612dd257505050509038612bc4565b81518781168103612dea578152908301908301612dc0565b8a80fd5b8980fd5b8780fd5b88513d88823e3d90fd5b8115612e0a570490565b634e487b7160e01b600052601260045260246000fd5b9060128103612e2d575090565b6012811115612e7d577fffffffffffffffffffffffffffffffffffffffffffffffffffffffffffffffee81019081116120dc57612e69906120ff565b908181029181830414901517156120dc5790565b60120390601282116120dc57612e95611b38926120ff565b90612e00565b610100015160281c61ffff166127109081039081116120dc5790565b610100015160381c61ffff166127109081039081116120dc5790565b600260005414612ee4576002600055565b60646040517f08c379a000000000000000000000000000000000000000000000000000000000815260206004820152601f60248201527f5265656e7472616e637947756172643a207265656e7472616e742063616c6c006044820152fd5b670de0b6b3a7640000916000198383099280830292838086109503948086039514612ff95782851015612fc257908291096001821901821680920460028082600302188083028203028083028203028083028203028083028203028083028203028092029003029360018380600003040190848311900302920304170290565b60448584604051917f773cc18c00000000000000000000000000000000000000000000000000000000835260048301526024820152fd5b505090611b389250612e00565b91906000198184098184029182808310920391808303921461309c576127109081831015613065577fbc01a36e2eb1c432ca57a786c226809d495182a9930be0ded288ce703afb7e9194950990828211900360fc1b910360041c170290565b60448383604051917f773cc18c00000000000000000000000000000000000000000000000000000000835260048301526024820152fd5b505061271090049150565b90916000198383099280830292838086109503948086039514612ff95782851015612fc25790829109600182190182168092046002808260030218808302820302808302820302808302820302808302820302808302820302809202900302936001838060000304019084831190030292030417029056fea2646970667358221220ee0d9de0a4500aecf16b7b9fbe93e9d59ae82be8b6c3b152a2c8d303a3f50c5364736f6c63430008140033",
    "linkReferences": {}
  },
  "methodIdentifiers": {
    "balanceOf(address,uint256)": "00fdd58e",
    "currentOverflowOf(address,uint256)": "d49031c0",
    "currentReclaimableOverflowOf(address,uint256,uint256,bool)": "c294b2f4",
    "currentReclaimableOverflowOf(uint256,uint256,uint256,uint256)": "a57c7f59",
    "currentTotalOverflowOf(uint256,uint256,uint256)": "b753d7e9",
    "directory()": "c41c2f24",
    "fundingCycleStore()": "557e7155",
    "prices()": "d3419bf3",
    "recordAddedBalanceFor(uint256,uint256)": "e7c8e3e3",
    "recordDistributionFor(uint256,uint256,uint256)": "c6644597",
    "recordMigration(uint256)": "6bb6a5ad",
    "recordPaymentFrom(address,(address,uint256,uint256,uint256),uint256,uint256,address,string,bytes)": "2fa1b391",
    "recordRedemptionFor(address,uint256,uint256,string,bytes)": "a2df1f95",
    "recordUsedAllowanceOf(uint256,uint256,uint256)": "25386715",
    "usedDistributionLimitOf(address,uint256,uint256)": "e8ba563a",
    "usedOverflowAllowanceOf(address,uint256,uint256)": "d4c3a8d2"
  },
  "id": 75
}