{
  "abi": [
    {
      "inputs": [
        {
          "internalType": "contract IJBDirectory",
          "name": "_directory",
          "type": "address"
        },
        {
          "internalType": "contract IJBFundingCycleStore",
          "name": "_fundingCycleStore",
          "type": "address"
        },
        {
          "internalType": "contract IJBPrices",
          "name": "_prices",
          "type": "address"
        }
      ],
      "stateMutability": "nonpayable",
      "type": "constructor"
    },
    {
      "inputs": [],
      "name": "CURRENCY_MISMATCH",
      "type": "error"
    },
    {
      "inputs": [],
      "name": "DISTRIBUTION_AMOUNT_LIMIT_REACHED",
      "type": "error"
    },
    {
      "inputs": [],
      "name": "FUNDING_CYCLE_DISTRIBUTION_PAUSED",
      "type": "error"
    },
    {
      "inputs": [],
      "name": "FUNDING_CYCLE_PAYMENT_PAUSED",
      "type": "error"
    },
    {
      "inputs": [],
      "name": "FUNDING_CYCLE_REDEEM_PAUSED",
      "type": "error"
    },
    {
      "inputs": [],
      "name": "INADEQUATE_CONTROLLER_ALLOWANCE",
      "type": "error"
    },
    {
      "inputs": [],
      "name": "INADEQUATE_PAYMENT_TERMINAL_STORE_BALANCE",
      "type": "error"
    },
    {
      "inputs": [],
      "name": "INSUFFICIENT_TOKENS",
      "type": "error"
    },
    {
      "inputs": [],
      "name": "INVALID_AMOUNT_TO_SEND_DELEGATE",
      "type": "error"
    },
    {
      "inputs": [],
      "name": "INVALID_FUNDING_CYCLE",
      "type": "error"
    },
    {
      "inputs": [],
      "name": "PAYMENT_TERMINAL_MIGRATION_NOT_ALLOWED",
      "type": "error"
    },
    {
      "inputs": [
        {
          "internalType": "uint256",
          "name": "prod1",
          "type": "uint256"
        },
        {
          "internalType": "uint256",
          "name": "denominator",
          "type": "uint256"
        }
      ],
      "name": "PRBMath__MulDivOverflow",
      "type": "error"
    },
    {
      "inputs": [
        {
          "internalType": "contract IJBSingleTokenPaymentTerminal",
          "name": "",
          "type": "address"
        },
        {
          "internalType": "uint256",
          "name": "",
          "type": "uint256"
        }
      ],
      "name": "balanceOf",
      "outputs": [
        {
          "internalType": "uint256",
          "name": "",
          "type": "uint256"
        }
      ],
      "stateMutability": "view",
      "type": "function"
    },
    {
      "inputs": [
        {
          "internalType": "contract IJBSingleTokenPaymentTerminal",
          "name": "_terminal",
          "type": "address"
        },
        {
          "internalType": "uint256",
          "name": "_projectId",
          "type": "uint256"
        }
      ],
      "name": "currentOverflowOf",
      "outputs": [
        {
          "internalType": "uint256",
          "name": "",
          "type": "uint256"
        }
      ],
      "stateMutability": "view",
      "type": "function"
    },
    {
      "inputs": [
        {
          "internalType": "uint256",
          "name": "_projectId",
          "type": "uint256"
        },
        {
          "internalType": "uint256",
          "name": "_tokenCount",
          "type": "uint256"
        },
        {
          "internalType": "uint256",
          "name": "_totalSupply",
          "type": "uint256"
        },
        {
          "internalType": "uint256",
          "name": "_overflow",
          "type": "uint256"
        }
      ],
      "name": "currentReclaimableOverflowOf",
      "outputs": [
        {
          "internalType": "uint256",
          "name": "",
          "type": "uint256"
        }
      ],
      "stateMutability": "view",
      "type": "function"
    },
    {
      "inputs": [
        {
          "internalType": "contract IJBSingleTokenPaymentTerminal",
          "name": "_terminal",
          "type": "address"
        },
        {
          "internalType": "uint256",
          "name": "_projectId",
          "type": "uint256"
        },
        {
          "internalType": "uint256",
          "name": "_tokenCount",
          "type": "uint256"
        },
        {
          "internalType": "bool",
          "name": "_useTotalOverflow",
          "type": "bool"
        }
      ],
      "name": "currentReclaimableOverflowOf",
      "outputs": [
        {
          "internalType": "uint256",
          "name": "",
          "type": "uint256"
        }
      ],
      "stateMutability": "view",
      "type": "function"
    },
    {
      "inputs": [
        {
          "internalType": "uint256",
          "name": "_projectId",
          "type": "uint256"
        },
        {
          "internalType": "uint256",
          "name": "_decimals",
          "type": "uint256"
        },
        {
          "internalType": "uint256",
          "name": "_currency",
          "type": "uint256"
        }
      ],
      "name": "currentTotalOverflowOf",
      "outputs": [
        {
          "internalType": "uint256",
          "name": "",
          "type": "uint256"
        }
      ],
      "stateMutability": "view",
      "type": "function"
    },
    {
      "inputs": [],
      "name": "directory",
      "outputs": [
        {
          "internalType": "contract IJBDirectory",
          "name": "",
          "type": "address"
        }
      ],
      "stateMutability": "view",
      "type": "function"
    },
    {
      "inputs": [],
      "name": "fundingCycleStore",
      "outputs": [
        {
          "internalType": "contract IJBFundingCycleStore",
          "name": "",
          "type": "address"
        }
      ],
      "stateMutability": "view",
      "type": "function"
    },
    {
      "inputs": [],
      "name": "prices",
      "outputs": [
        {
          "internalType": "contract IJBPrices",
          "name": "",
          "type": "address"
        }
      ],
      "stateMutability": "view",
      "type": "function"
    },
    {
      "inputs": [
        {
          "internalType": "uint256",
          "name": "_projectId",
          "type": "uint256"
        },
        {
          "internalType": "uint256",
          "name": "_amount",
          "type": "uint256"
        }
      ],
      "name": "recordAddedBalanceFor",
      "outputs": [],
      "stateMutability": "nonpayable",
      "type": "function"
    },
    {
      "inputs": [
        {
          "internalType": "uint256",
          "name": "_projectId",
          "type": "uint256"
        },
        {
          "internalType": "uint256",
          "name": "_amount",
          "type": "uint256"
        },
        {
          "internalType": "uint256",
          "name": "_currency",
          "type": "uint256"
        }
      ],
      "name": "recordDistributionFor",
      "outputs": [
        {
          "components": [
            {
              "internalType": "uint256",
              "name": "number",
              "type": "uint256"
            },
            {
              "internalType": "uint256",
              "name": "configuration",
              "type": "uint256"
            },
            {
              "internalType": "uint256",
              "name": "basedOn",
              "type": "uint256"
            },
            {
              "internalType": "uint256",
              "name": "start",
              "type": "uint256"
            },
            {
              "internalType": "uint256",
              "name": "duration",
              "type": "uint256"
            },
            {
              "internalType": "uint256",
              "name": "weight",
              "type": "uint256"
            },
            {
              "internalType": "uint256",
              "name": "discountRate",
              "type": "uint256"
            },
            {
              "internalType": "contract IJBFundingCycleBallot",
              "name": "ballot",
              "type": "address"
            },
            {
              "internalType": "uint256",
              "name": "metadata",
              "type": "uint256"
            }
          ],
          "internalType": "struct JBFundingCycle",
          "name": "fundingCycle",
          "type": "tuple"
        },
        {
          "internalType": "uint256",
          "name": "distributedAmount",
          "type": "uint256"
        }
      ],
      "stateMutability": "nonpayable",
      "type": "function"
    },
    {
      "inputs": [
        {
          "internalType": "uint256",
          "name": "_projectId",
          "type": "uint256"
        }
      ],
      "name": "recordMigration",
      "outputs": [
        {
          "internalType": "uint256",
          "name": "balance",
          "type": "uint256"
        }
      ],
      "stateMutability": "nonpayable",
      "type": "function"
    },
    {
      "inputs": [
        {
          "internalType": "address",
          "name": "_payer",
          "type": "address"
        },
        {
          "components": [
            {
              "internalType": "address",
              "name": "token",
              "type": "address"
            },
            {
              "internalType": "uint256",
              "name": "value",
              "type": "uint256"
            },
            {
              "internalType": "uint256",
              "name": "decimals",
              "type": "uint256"
            },
            {
              "internalType": "uint256",
              "name": "currency",
              "type": "uint256"
            }
          ],
          "internalType": "struct JBTokenAmount",
          "name": "_amount",
          "type": "tuple"
        },
        {
          "internalType": "uint256",
          "name": "_projectId",
          "type": "uint256"
        },
        {
          "internalType": "uint256",
          "name": "_baseWeightCurrency",
          "type": "uint256"
        },
        {
          "internalType": "address",
          "name": "_beneficiary",
          "type": "address"
        },
        {
          "internalType": "string",
          "name": "_memo",
          "type": "string"
        },
        {
          "internalType": "bytes",
          "name": "_metadata",
          "type": "bytes"
        }
      ],
      "name": "recordPaymentFrom",
      "outputs": [
        {
          "components": [
            {
              "internalType": "uint256",
              "name": "number",
              "type": "uint256"
            },
            {
              "internalType": "uint256",
              "name": "configuration",
              "type": "uint256"
            },
            {
              "internalType": "uint256",
              "name": "basedOn",
              "type": "uint256"
            },
            {
              "internalType": "uint256",
              "name": "start",
              "type": "uint256"
            },
            {
              "internalType": "uint256",
              "name": "duration",
              "type": "uint256"
            },
            {
              "internalType": "uint256",
              "name": "weight",
              "type": "uint256"
            },
            {
              "internalType": "uint256",
              "name": "discountRate",
              "type": "uint256"
            },
            {
              "internalType": "contract IJBFundingCycleBallot",
              "name": "ballot",
              "type": "address"
            },
            {
              "internalType": "uint256",
              "name": "metadata",
              "type": "uint256"
            }
          ],
          "internalType": "struct JBFundingCycle",
          "name": "fundingCycle",
          "type": "tuple"
        },
        {
          "internalType": "uint256",
          "name": "tokenCount",
          "type": "uint256"
        },
        {
          "components": [
            {
              "internalType": "contract IJBPayDelegate",
              "name": "delegate",
              "type": "address"
            },
            {
              "internalType": "uint256",
              "name": "amount",
              "type": "uint256"
            }
          ],
          "internalType": "struct JBPayDelegateAllocation[]",
          "name": "delegateAllocations",
          "type": "tuple[]"
        },
        {
          "internalType": "string",
          "name": "memo",
          "type": "string"
        }
      ],
      "stateMutability": "nonpayable",
      "type": "function"
    },
    {
      "inputs": [
        {
          "internalType": "address",
          "name": "_holder",
          "type": "address"
        },
        {
          "internalType": "uint256",
          "name": "_projectId",
          "type": "uint256"
        },
        {
          "internalType": "uint256",
          "name": "_tokenCount",
          "type": "uint256"
        },
        {
          "internalType": "string",
          "name": "_memo",
          "type": "string"
        },
        {
          "internalType": "bytes",
          "name": "_metadata",
          "type": "bytes"
        }
      ],
      "name": "recordRedemptionFor",
      "outputs": [
        {
          "components": [
            {
              "internalType": "uint256",
              "name": "number",
              "type": "uint256"
            },
            {
              "internalType": "uint256",
              "name": "configuration",
              "type": "uint256"
            },
            {
              "internalType": "uint256",
              "name": "basedOn",
              "type": "uint256"
            },
            {
              "internalType": "uint256",
              "name": "start",
              "type": "uint256"
            },
            {
              "internalType": "uint256",
              "name": "duration",
              "type": "uint256"
            },
            {
              "internalType": "uint256",
              "name": "weight",
              "type": "uint256"
            },
            {
              "internalType": "uint256",
              "name": "discountRate",
              "type": "uint256"
            },
            {
              "internalType": "contract IJBFundingCycleBallot",
              "name": "ballot",
              "type": "address"
            },
            {
              "internalType": "uint256",
              "name": "metadata",
              "type": "uint256"
            }
          ],
          "internalType": "struct JBFundingCycle",
          "name": "fundingCycle",
          "type": "tuple"
        },
        {
          "internalType": "uint256",
          "name": "reclaimAmount",
          "type": "uint256"
        },
        {
          "components": [
            {
              "internalType": "contract IJBRedemptionDelegate",
              "name": "delegate",
              "type": "address"
            },
            {
              "internalType": "uint256",
              "name": "amount",
              "type": "uint256"
            }
          ],
          "internalType": "struct JBRedemptionDelegateAllocation[]",
          "name": "delegateAllocations",
          "type": "tuple[]"
        },
        {
          "internalType": "string",
          "name": "memo",
          "type": "string"
        }
      ],
      "stateMutability": "nonpayable",
      "type": "function"
    },
    {
      "inputs": [
        {
          "internalType": "uint256",
          "name": "_projectId",
          "type": "uint256"
        },
        {
          "internalType": "uint256",
          "name": "_amount",
          "type": "uint256"
        },
        {
          "internalType": "uint256",
          "name": "_currency",
          "type": "uint256"
        }
      ],
      "name": "recordUsedAllowanceOf",
      "outputs": [
        {
          "components": [
            {
              "internalType": "uint256",
              "name": "number",
              "type": "uint256"
            },
            {
              "internalType": "uint256",
              "name": "configuration",
              "type": "uint256"
            },
            {
              "internalType": "uint256",
              "name": "basedOn",
              "type": "uint256"
            },
            {
              "internalType": "uint256",
              "name": "start",
              "type": "uint256"
            },
            {
              "internalType": "uint256",
              "name": "duration",
              "type": "uint256"
            },
            {
              "internalType": "uint256",
              "name": "weight",
              "type": "uint256"
            },
            {
              "internalType": "uint256",
              "name": "discountRate",
              "type": "uint256"
            },
            {
              "internalType": "contract IJBFundingCycleBallot",
              "name": "ballot",
              "type": "address"
            },
            {
              "internalType": "uint256",
              "name": "metadata",
              "type": "uint256"
            }
          ],
          "internalType": "struct JBFundingCycle",
          "name": "fundingCycle",
          "type": "tuple"
        },
        {
          "internalType": "uint256",
          "name": "usedAmount",
          "type": "uint256"
        }
      ],
      "stateMutability": "nonpayable",
      "type": "function"
    },
    {
      "inputs": [
        {
          "internalType": "contract IJBSingleTokenPaymentTerminal",
          "name": "",
          "type": "address"
        },
        {
          "internalType": "uint256",
          "name": "",
          "type": "uint256"
        },
        {
          "internalType": "uint256",
          "name": "",
          "type": "uint256"
        }
      ],
      "name": "usedDistributionLimitOf",
      "outputs": [
        {
          "internalType": "uint256",
          "name": "",
          "type": "uint256"
        }
      ],
      "stateMutability": "view",
      "type": "function"
    },
    {
      "inputs": [
        {
          "internalType": "contract IJBSingleTokenPaymentTerminal",
          "name": "",
          "type": "address"
        },
        {
          "internalType": "uint256",
          "name": "",
          "type": "uint256"
        },
        {
          "internalType": "uint256",
          "name": "",
          "type": "uint256"
        }
      ],
      "name": "usedOverflowAllowanceOf",
      "outputs": [
        {
          "internalType": "uint256",
          "name": "",
          "type": "uint256"
        }
      ],
      "stateMutability": "view",
      "type": "function"
    }
  ],
  "bytecode": {
    "object": "0x60e0346200014257601f62002fba38819003918201601f19168301916001600160401b038311848410176200014757808492606094604052833981010312620001425780516001600160a01b03919082811681036200014257602082015191838316830362000142576040015192831683036200014257600160005560805260a05260c052604051612e5c90816200015e823960805181818161040f015281816107ba01528181610a2c0152818161148001528181611b6d0152818161264d015261291d015260a0518181816102030152818161037b0152818161090601528181610b16015281816111770152818161124c015281816113fb01528181611aac01528181611d9a01528181611f370152612537015260c051818181610303015281816106080152818161165c01528181612208015281816127b10152612a430152f35b600080fd5b634e487b7160e01b600052604160045260246000fdfe608080604052600436101561001357600080fd5b60003560e01c908162fdd58e146117b45750806325386715146113b05780632fa1b3911461127b578063557e7155146112365780636bb6a5ad1461113b578063a2df1f9514610863578063a57c7f591461083c578063b753d7e914610823578063c294b2f4146107e9578063c41c2f24146107a4578063c664459714610332578063d3419bf3146102ed578063d49031c0146101bc578063d4c3a8d214610175578063e7c8e3e31461011a5763e8ba563a146100ce57600080fd5b34610115576100dc366119b0565b9160018060a01b031660005260026020526040600020906000526020526040600020906000526020526020604060002054604051908152f35b600080fd5b3461011557604036600319011261011557600435336000526001602052604060002081600052602052610154602435604060002054611ef1565b90336000526001602052604060002090600052602052604060002055600080f35b3461011557610183366119b0565b9160018060a01b031660005260036020526040600020906000526020526040600020906000526020526020604060002054604051908152f35b34610115576040366003190112610115576101d56117f7565b6040516321d1336160e11b815260248035600483018190529261012092916001600160a01b039084908490817f000000000000000000000000000000000000000000000000000000000000000085165afa9283156102ad576004946000946102b9575b50506020906040519485809263e5a6b10f60e01b825285165afa9283156102ad57600093610277575b602061026f85858886612602565b604051908152f35b9250906020833d82116102a5575b81610292602093836118d7565b8101031261011557915191906020610261565b3d9150610285565b6040513d6000823e3d90fd5b602092945090816102de92903d106102e6575b6102d681836118d7565b8101906119da565b929086610238565b503d6102cc565b34610115576000366003190112610115576040517f00000000000000000000000000000000000000000000000000000000000000006001600160a01b03168152602090f35b34610115576103403661180d565b91610349611e06565b50610352612c25565b6040516321d1336160e11b81526004810182905291610120906001600160a01b039082856024817f000000000000000000000000000000000000000000000000000000000000000086165afa9485156102ad57600095610785575b50600191828061010088015160491c161461077357336000526020916002835260406000208660005283526040600020875160005283526103f381604060002054611ef1565b97604051632eec7b5560e11b81528760048201528481602481877f0000000000000000000000000000000000000000000000000000000000000000165afa9081156102ad5784918691600091610756575b506004604051809481936328a69a0560e21b8352165afa9081156102ad57600091610739575b5088850151604051637e062a3560e11b815290918682600481335afa9081156102ad578a876104dc9560409560009561070a575b508551630e8db21360e41b8152600481019390935260248301523360448301526001600160a01b039093166064820152938492839182906084820190565b0392165afa9081156102ad576000906000926106d8575b50808b119081156106cf575b506106bd5781036106ab5760405163e5a6b10f60e01b8152908482600481335afa9081156102ad57859260009261067a575b508082036105e0575050509050935b33600052828252604060002081600052825260406000205485116105ce57610140963360005260028352604060002082600052835260406000208751600052835260406000205533600052828252604060002081600052825284604060002054039133600052838152604060002091600052526040600020556000556105c96040518094611827565b820152f35b6040516317e53f6760e11b8152600490fd5b6064906040519586938492635268657960e11b845260048401526024830152601260448301527f0000000000000000000000000000000000000000000000000000000000000000165afa9081156102ad57600091610649575b6106439250612c7b565b93610540565b90508282813d8311610673575b61066081836118d7565b8101031261011557610643915190610639565b503d610656565b8381949293503d83116106a4575b61069281836118d7565b8101031261011557849151908b610531565b503d610688565b60405163e56ea4e760e01b8152600490fd5b604051630236b92b60e21b8152600490fd5b9050158b6104ff565b90506106fc915060403d604011610703575b6106f481836118d7565b8101906124fa565b908b6104f3565b503d6106ea565b61072b9195508b3d8d11610732575b61072381836118d7565b810190611a5a565b933861049e565b503d610719565b6107509150853d87116107325761072381836118d7565b8a61046a565b61076d9150823d84116107325761072381836118d7565b8c610444565b60405163861e9dcd60e01b8152600490fd5b61079d919550833d85116102e6576102d681836118d7565b93866103ad565b34610115576000366003190112610115576040517f00000000000000000000000000000000000000000000000000000000000000006001600160a01b03168152602090f35b34610115576080366003190112610115576108026117f7565b6064359081151582036101155760209161026f916044359060243590611a79565b3461011557602061026f6108363661180d565b916128ec565b3461011557608036600319011261011557602061026f606435604435602435600435611d6b565b346101155760a03660031901126101155761087c6117f7565b6064356001600160401b0381116101155736602382011215610115576108ac903690602481600401359101611913565b6084356001600160401b038111610115576108cb90369060040161194a565b906108d4611e06565b506108dd612c25565b6040516321d1336160e11b815260248035600483015260609491939190600090610120908690817f00000000000000000000000000000000000000000000000000000000000000006001600160a01b03165afa9485156102ad57600095611118575b50600180610100870151604a1c16146111065760008660405161096181611885565b828152826020820152826040820152015260405192637e062a3560e11b8452602084600481335afa9384156102ad576000946110e5575b5060405163313ce56760e01b815294602086600481335afa9586156102ad576000966110b1575b5060405163e5a6b10f60e01b815292602084600481335afa9384156102ad5760009461107d575b506001806101008a015160511c161460001461106957610a0984886024356128ec565b935b604051632eec7b5560e11b81526024803560048301529098906020908a90817f00000000000000000000000000000000000000000000000000000000000000006001600160a01b03165afa9889156102ad5760249960209160009161104c575b5060405163c18f2d3160e01b81528b3560048201529a8b9182906001600160a01b03165afa9889156102ad57600099611018575b5088604435116110075785610fee575b60405197610abc89611885565b6001600160a01b03168852602088018390526040880152898701526101008801516001605382901c8116149081610fd8575b5015610fca5750604051633157d5c760e21b81526024803560048301529095906020908790817f00000000000000000000000000000000000000000000000000000000000000006001600160a01b03165afa9586156102ad57600096610f99575b506020880151956001806101008b015160511c1614906003811015610f8357610f7457610b7b89612c09565b915b60405195866101808101106001600160401b0361018089011117610f5e576000998a99610cfd996101808a01604052338a5260018060a01b031660208a015260243560408a01528d890152604435608089015260a088015260c087015260e086015261010085015261012084015261014083015261016082015260018060a01b0361010086015160541c16906040519485809481936314a39fa360e31b83526020600484015260018060a01b03815116602484015260018060a01b036020820151166044840152604081015160648401528a8101516084840152608081015160a484015260a081015160c484015260c081015160e4840152610cae60e08201516101048501906060809160018060a01b03815116845260208101516020850152604081015160408501520151910152565b61010081015115156101848401526101208101516101a4840152610160610ce86101408301516101e06101c487015261020486019061198b565b910151838203602319016101e485015261198b565b03925af180156102ad57600091600094600092610e5d575b50509290915b828451610e11575b336000526001602052604060002060243560005260205260406000205481116105ce5780610dd0575b5060016000556040519261018090610d678583810194611827565b610120850152610140840152835180915260206101a0840194019060005b818110610da5578480610da1888783820361016085015261198b565b0390f35b825180516001600160a01b031687526020908101518188015260409096019590920191600101610d85565b336000526001602052604060002060243560005260205260406000205403336000526001602052604060002060243560005260205260406000205584610d4c565b9160009391935b8551811015610e53576020610e2d8288611ea4565b51015180610e3f575b50600101610e18565b610e4c9060019295611ef1565b9390610e36565b5091929092610d23565b92509350503d90816000853e610e7382856118d7565b83828101031261011557825160208401516001600160401b03811161011557610ea190838601908601611e4b565b9160408501516001600160401b03811161011557818601601f828801011215610115578086015191610ed283611e8d565b96610ee060405198896118d7565b83885260208089019460061b8483010101928282018411610115578101602001935b838510610f1757505050505090928480610d15565b60408584840103126101155760405190610f30826118a0565b8551906001600160a01b03821682036101155782602092604094528288015183820152815201940193610f02565b634e487b7160e01b600052604160045260246000fd5b610f7d89612bed565b91610b7d565b634e487b7160e01b600052602160045260246000fd5b610fbc91965060203d602011610fc3575b610fb481836118d7565b8101906124e2565b9489610b4f565b503d610faa565b969550935050505090610d1b565b60541c6001600160a01b0316151590508a610aee565b915061100185896044358c602435612510565b91610aaf565b604051625c579160e91b8152600490fd5b9098506020813d602011611044575b81611034602093836118d7565b810103126101155751978b610a9f565b3d9150611027565b6110639150823d84116107325761072381836118d7565b8d610a6b565b611077848960243533612602565b93610a0b565b9093506020813d6020116110a9575b81611099602093836118d7565b81010312610115575192896109e6565b3d915061108c565b9095506020813d6020116110dd575b816110cd602093836118d7565b81010312610115575194886109bf565b3d91506110c0565b6110ff91945060203d6020116107325761072381836118d7565b9287610998565b60405163a97cf58f60e01b8152600490fd5b6111349195506101203d610120116102e6576102d681836118d7565b938661093f565b346101155760208060031936011261011557600435611158612c25565b6040516321d1336160e11b8152600481018290526101209081816024817f00000000000000000000000000000000000000000000000000000000000000006001600160a01b03165afa9182156102ad57600192839261010092600092611219575b50500151604d1c160361120757336000526001825260406000208160005282526040600020549033600052600183526040600020906000528252600060408120556001600055604051908152f35b6040516373e4f05f60e11b8152600490fd5b61122f9250803d106102e6576102d681836118d7565b86806111b9565b34610115576000366003190112610115576040517f00000000000000000000000000000000000000000000000000000000000000006001600160a01b03168152602090f35b346101155761014080600319360112610115576112966117f7565b6080366023190112610115576001600160a01b039060e43582811681036101155761010435906001600160401b0392838311610115573660238401121561011557826004013591848311610115573660248486010111610115576101243594851161011557602461130e61132f96369060040161194a565b94611317611e06565b50611320612c25565b019160c4359060a43590611f0c565b9060019593929580600055604051968795610180916113518884810198611827565b61012088015286015281518094526101a08501936020809301926000975b82891061138b578780610da1898983820361016085015261198b565b845180518216885282015182880152978301978997506040909601959381019361136f565b34610115576113be3661180d565b6113c9929192611e06565b506113d2612c25565b6040516321d1336160e11b81526004810183905291610120906001600160a01b039082856024817f000000000000000000000000000000000000000000000000000000000000000086165afa9485156102ad57600095611795575b5033600052602091600383526040600020826000528352604060002096838701978851600052845261146481604060002054611ef1565b91604051632eec7b5560e11b81528460048201528581602481857f0000000000000000000000000000000000000000000000000000000000000000165afa9081156102ad5782918791600091611778575b506004604051809481936328a69a0560e21b8352165afa9081156102ad5760009161175b575b508951604051637e062a3560e11b815290918782600481335afa9081156102ad57878561154b9560409560009561173c575b508551633d40dab160e11b8152600481019390935260248301523360448301526001600160a01b039093166064820152938492839182906084820190565b0392165afa9081156102ad5760009060009261171a575b50808511908115611711575b506116ff5787036106ab5760405163e5a6b10f60e01b8152968588600481335afa9788156102ad576000986116d0575b508590888103611635575050506115b990955b878433612602565b85116105ce5761014096336000526003845260406000208360005284526040600020905160005283526040600020553360005260018252604060002081600052825261160a84604060002054611ece565b9133600052600181526040600020916000525260406000205560016000556105c96040518094611827565b606460405180948193635268657960e11b835260048301528b6024830152601260448301527f0000000000000000000000000000000000000000000000000000000000000000165afa9081156102ad576000916116a1575b5061169b906115b992612c7b565b956115b1565b90508481813d83116116c9575b6116b881836118d7565b8101031261011557516115b961168d565b503d6116ae565b9097508581813d83116116f8575b6116e881836118d7565b810103126101155751968561159e565b503d6116de565b604051635b76558960e11b8152600490fd5b9050158b61156e565b9050611735915060403d604011610703576106f481836118d7565b908b611562565b6117549195508c8d3d106107325761072381836118d7565b933861150d565b6117729150863d88116107325761072381836118d7565b8a6114db565b61178f9150823d84116107325761072381836118d7565b8c6114b5565b6117ad919550833d85116102e6576102d681836118d7565b938661142d565b34610115576040366003190112610115576020906001600160a01b036117d86117f7565b1660005260018252604060002060243560005282526040600020548152f35b600435906001600160a01b038216820361011557565b606090600319011261011557600435906024359060443590565b805182526020810151602083015260408101516040830152606081015160608301526080810151608083015260a081015160a083015260c081015160c083015260018060a01b0360e08201511660e083015261010080910151910152565b608081019081106001600160401b03821117610f5e57604052565b604081019081106001600160401b03821117610f5e57604052565b61012081019081106001600160401b03821117610f5e57604052565b90601f801991011681019081106001600160401b03821117610f5e57604052565b6001600160401b038111610f5e57601f01601f191660200190565b92919261191f826118f8565b9161192d60405193846118d7565b829481845281830111610115578281602093846000960137010152565b9080601f830112156101155781602061196593359101611913565b90565b60005b83811061197b5750506000910152565b818101518382015260200161196b565b906020916119a481518092818552858086019101611968565b601f01601f1916010190565b6060906003190112610115576004356001600160a01b038116810361011557906024359060443590565b908161012091031261011557604051906119f3826118bb565b805182526020810151602083015260408101516040830152606081015160608301526080810151608083015260a081015160a083015260c081015160c083015260e081015160018060a01b03811681036101155760e0830152610100809101519082015290565b9081602091031261011557516001600160a01b03811681036101155790565b604080516321d1336160e11b815260048082018590529395939491939192610120916001600160a01b03919083816024817f000000000000000000000000000000000000000000000000000000000000000087165afa938415611c4e57600094611d4a575b5050819293600090600014611cc85750855163313ce56760e01b8152916020911681838981845afa928315611c4e57908891600094611c96575b50829088519283809263e5a6b10f60e01b82525afa918215611c4e57600092611c65575b5050611b4891886128ec565b945b8515611c59578451632eec7b5560e11b81528181018890529060209081836024817f000000000000000000000000000000000000000000000000000000000000000088165afa928315611c4e57908991600094611c2a575b506024908394958951968794859363c18f2d3160e01b8552840152165afa948515611c205750600094611bec575b5050828211611be25761196594612510565b5050505050600090565b8181959293953d8311611c19575b611c0481836118d7565b81010312611c16575051913880611bd0565b80fd5b503d611bfa565b513d6000823e3d90fd5b83945090611c46602492853d87116107325761072381836118d7565b945090611ba2565b87513d6000823e3d90fd5b50505050505050600090565b81819392933d8311611c8f575b611c7c81836118d7565b81010312611c16575051611b4838611b3c565b503d611c72565b9150928282813d8311611cc1575b611cae81836118d7565b81010312611c1657505191879082611b18565b503d611ca4565b865163e5a6b10f60e01b81529192509060208189818787165afa918215611d3f578591818b9294611d05575b5050611cff93612602565b94611b4a565b92509250506020823d8211611d37575b81611d22602093836118d7565b81010312611c165750518388611cff38611cf4565b3d9150611d15565b8751903d90823e3d90fd5b8394509081611d6492903d106102e6576102d681836118d7565b9238611ade565b9291908215611dfd57818111611dfd576040516321d1336160e11b8152600481018590526101209485826024817f00000000000000000000000000000000000000000000000000000000000000006001600160a01b03165afa9182156102ad5761196596600093611dde575b5050612510565b611df5929350803d106102e6576102d681836118d7565b903880611dd7565b50505050600090565b60405190611e13826118bb565b816101006000918281528260208201528260408201528260608201528260808201528260a08201528260c08201528260e08201520152565b81601f82011215610115578051611e61816118f8565b92611e6f60405194856118d7565b81845260208284010111610115576119659160208085019101611968565b6001600160401b038111610f5e5760051b60200190565b8051821015611eb85760209160051b010190565b634e487b7160e01b600052603260045260246000fd5b91908203918211611edb57565b634e487b7160e01b600052601160045260246000fd5b91908201809211611edb57565b604d8111611edb57600a0a90565b6040516321d1336160e11b8152600481018390529697966060969495909492939291610120866024817f00000000000000000000000000000000000000000000000000000000000000006001600160a01b03165afa9586156102ad576000966124bf575b5085998651156124ad5760018061010089015160481c161461249b576101008701516001808260521c16149081612485575b501561246a5760208701519360a08801519361ffff6101008a015160181c169160405194856101408101106001600160401b0361014088011117610f5e5761014086016040523386526001600160a01b031660208601526080366023190112610115576040519261201284611885565b602435966001600160a01b03881688036101155760009c8d998f8d90886121729c61207a9a52604435602082015260643560408201526084358282015260408c01528a0152608089015260018060a01b031660a088015260c087015260e08601523691611913565b610100838101919091526101208301919091528601516040805163d46cf17160e01b815260206004820181905284516001600160a01b0390811660248401528186015181166044840152838601518051821660648501529182015160848401529281015160a48301526060015160c482015298899460549390931c9091169284928391808d015160e4840152608081015161010484015260a08101516001600160a01b031661012484015260c081015161014484015260e08101516101648401526101008101516101a06101848501526101209061215d906101c486019061198b565b910151838203602319016101a485015261198b565b03925af180156102ad5760009485968692612359575b50509493915b604435809487516122eb575b85156122de575080612297575b5050811561228e57606435906084356000918082146000146121dd57505050906121d46121da9392611efe565b91612dae565b92565b604051635268657960e11b8152600481019290925260248201526044810192909252906020816064817f00000000000000000000000000000000000000000000000000000000000000006001600160a01b03165afa91821561228257809261224c575b5050906121da92612dae565b9091506020823d821161227a575b81612267602093836118d7565b81010312611c165750516121da38612240565b3d915061225a565b604051903d90823e3d90fd5b50600094915050565b6122bb90336000526001602052604060002083600052602052604060002054611ef1565b9033600052600160205260406000209060005260205260406000205538806121a7565b9850600097945050505050565b979492909895939160005b885181101561234b57602061230b828b611ea4565b5101518061231d575b506001016122f6565b909a8082116123395760019161233291611ece565b9a90612314565b6040516336a8da9360e11b8152600490fd5b50919395989092949761219a565b915095503d908186883e61236d82886118d7565b8682810103126124665785519060208701516001600160401b0381116124625761239c90828901908901611e4b565b956040880151906001600160401b038211611c1657828901601f838b01011215611c165781890151926123ce84611e8d565b996123dc6040519b8c6118d7565b848b526020808c019560061b858301010193828201851161245e578101602001945b8486106124145750505050505093943880612188565b604086848401031261245e5760405161242c816118a0565b86516001600160a01b038116810361245a5791816040936020935282890151838201528152019501946123fe565b8580fd5b8380fd5b8680fd5b8480fd5b505060a085015193955061247f913691611913565b9361218e565b60541c6001600160a01b03161515905038611fa2565b60405163a3bb913360e01b8152600490fd5b60405163174b338d60e11b8152600490fd5b6124db9196506101203d610120116102e6576102d681836118d7565b9438611f70565b90816020910312610115575160038110156101155790565b9190826040910312610115576020825192015190565b9392938483146125cd57604051633157d5c760e21b815260048101919091526020816024817f00000000000000000000000000000000000000000000000000000000000000006001600160a01b03165afa9081156102ad576000916125e4575b506003811015610f83576125d55761258790612c09565b915b8215611dfd57838261259a92612dae565b91612710918282146125cd57818303928311611edb57611965946125c7936125c192612dae565b90611ef1565b90612d26565b505050905090565b6125de90612bed565b91612589565b6125fc915060203d8111610fc357610fb481836118d7565b38612570565b91929060018060a01b0380841694600093868552602091600183526040948587208188528452858720549788156128df578651632eec7b5560e11b81526004810183905285816024817f00000000000000000000000000000000000000000000000000000000000000008b165afa9081156128b85787929187918b916128c2575b5060048a51809581936328a69a0560e21b8352165afa9182156128b85790600492918a92612899575b5086850151878d8b5195868092637e062a3560e11b82525afa93841561288f5791898b9492612722989796948e95612870575b508551630e8db21360e41b81526004810188905260248101919091526001600160a01b039283166044820152919093166064820152958692839182906084820190565b0392165afa998a15612866578893899b61283b575b5088526002855286882090885284528587209051875283528486205461275c91611ece565b9687151580612831575b612785575b505050505082821160001461277f57500390565b91505090565b906064839286999799519586938492635268657960e11b845260048401526024830152601260448301527f0000000000000000000000000000000000000000000000000000000000000000165afa928315612828575085926127f8575b50506127ed91612c7b565b91388080808061276b565b90809250813d8311612821575b61280f81836118d7565b8101031261245e57516127ed386127e2565b503d612805565b513d87823e3d90fd5b5081811415612766565b61285b919b5061275c9450889392933d8a11610703576106f481836118d7565b9a9093919291612737565b87513d8a823e3d90fd5b6128889195508b3d8d116107325761072381836118d7565b93386126df565b8a513d8d823e3d90fd5b6128b1919250873d89116107325761072381836118d7565b90386126ac565b88513d8b823e3d90fd5b6128d99150823d84116107325761072381836118d7565b38612683565b5050505050505091505090565b6040805163d175415360e01b815260048082018490529395919360249360009390926001600160a01b0391858288817f000000000000000000000000000000000000000000000000000000000000000087165afa918215612b66578692612ac0575b508599869a5b83518c10156129e857846129688d86611ea4565b51168a5180916351970f4b60e11b82528989830152818c60209485935afa9182156129de578a926129aa575b50506129a290600192611ef1565b9b019a612954565b90809250813d83116129d7575b6129c181836118d7565b810103126129d35751816129a2612994565b8880fd5b503d6129b7565b8c513d8c823e3d90fd5b9795509795989150985060018114600014612a1a575050505050915b5060128103612a11575090565b61196591612b90565b60209260019260649287519687958694635268657960e11b8652850152830152601260448301527f0000000000000000000000000000000000000000000000000000000000000000165afa918215612ab757508491612a84575b50612a7e91612c7b565b91612a04565b90506020813d8211612aaf575b81612a9e602093836118d7565b8101031261245e5751612a7e612a74565b3d9150612a91565b513d86823e3d90fd5b9091503d8087833e612ad281836118d7565b8101906020908181840312612b62578051906001600160401b0382116129d357019180601f84011215612b62578251612b0a81611e8d565b93612b178c5195866118d7565b818552838086019260051b820101928311612b5e578301905b828210612b425750505050903861294e565b81518781168103612b5a578152908301908301612b30565b8a80fd5b8980fd5b8780fd5b88513d88823e3d90fd5b8115612b7a570490565b634e487b7160e01b600052601260045260246000fd5b9060128103612b9d575090565b6012811115612bcf576011198101908111611edb57612bbb90611efe565b90818102918183041490151715611edb5790565b6012039060128211611edb57612be761196592611efe565b90612b70565b610100015160281c61ffff16612710908103908111611edb5790565b610100015160381c61ffff16612710908103908111611edb5790565b600260005414612c36576002600055565b60405162461bcd60e51b815260206004820152601f60248201527f5265656e7472616e637947756172643a207265656e7472616e742063616c6c006044820152606490fd5b670de0b6b3a7640000916000198383099280830292838086109503948086039514612d195782851015612cfb57908291096001821901821680920460028082600302188083028203028083028203028083028203028083028203028083028203028092029003029360018380600003040190848311900302920304170290565b6044858460405191631dcf306360e21b835260048301526024820152fd5b5050906119659250612b70565b919060001981840981840291828083109203918083039214612da3576127109081831015612d85577fbc01a36e2eb1c432ca57a786c226809d495182a9930be0ded288ce703afb7e9194950990828211900360fc1b910360041c170290565b6044838360405191631dcf306360e21b835260048301526024820152fd5b505061271090049150565b90916000198383099280830292838086109503948086039514612d195782851015612cfb5790829109600182190182168092046002808260030218808302820302808302820302808302820302808302820302808302820302809202900302936001838060000304019084831190030292030417029056fea264697066735822122011539c04f5697d2a0ef2170ee862b56af62bcbd4939f7467f992a2ee582fdcea64736f6c63430008140033",
    "linkReferences": {}
  },
  "methodIdentifiers": {
    "balanceOf(address,uint256)": "00fdd58e",
    "currentOverflowOf(address,uint256)": "d49031c0",
    "currentReclaimableOverflowOf(address,uint256,uint256,bool)": "c294b2f4",
    "currentReclaimableOverflowOf(uint256,uint256,uint256,uint256)": "a57c7f59",
    "currentTotalOverflowOf(uint256,uint256,uint256)": "b753d7e9",
    "directory()": "c41c2f24",
    "fundingCycleStore()": "557e7155",
    "prices()": "d3419bf3",
    "recordAddedBalanceFor(uint256,uint256)": "e7c8e3e3",
    "recordDistributionFor(uint256,uint256,uint256)": "c6644597",
    "recordMigration(uint256)": "6bb6a5ad",
    "recordPaymentFrom(address,(address,uint256,uint256,uint256),uint256,uint256,address,string,bytes)": "2fa1b391",
    "recordRedemptionFor(address,uint256,uint256,string,bytes)": "a2df1f95",
    "recordUsedAllowanceOf(uint256,uint256,uint256)": "25386715",
    "usedDistributionLimitOf(address,uint256,uint256)": "e8ba563a",
    "usedOverflowAllowanceOf(address,uint256,uint256)": "d4c3a8d2"
  },
  "id": 80
}