{
  "abi": [
    {
      "inputs": [],
      "name": "BURN",
      "outputs": [
        {
          "internalType": "uint256",
          "name": "",
          "type": "uint256"
        }
      ],
      "stateMutability": "view",
      "type": "function"
    },
    {
      "inputs": [],
      "name": "CLAIM",
      "outputs": [
        {
          "internalType": "uint256",
          "name": "",
          "type": "uint256"
        }
      ],
      "stateMutability": "view",
      "type": "function"
    },
    {
      "inputs": [],
      "name": "ISSUE",
      "outputs": [
        {
          "internalType": "uint256",
          "name": "",
          "type": "uint256"
        }
      ],
      "stateMutability": "view",
      "type": "function"
    },
    {
      "inputs": [],
      "name": "MIGRATE_CONTROLLER",
      "outputs": [
        {
          "internalType": "uint256",
          "name": "",
          "type": "uint256"
        }
      ],
      "stateMutability": "view",
      "type": "function"
    },
    {
      "inputs": [],
      "name": "MIGRATE_TERMINAL",
      "outputs": [
        {
          "internalType": "uint256",
          "name": "",
          "type": "uint256"
        }
      ],
      "stateMutability": "view",
      "type": "function"
    },
    {
      "inputs": [],
      "name": "MINT",
      "outputs": [
        {
          "internalType": "uint256",
          "name": "",
          "type": "uint256"
        }
      ],
      "stateMutability": "view",
      "type": "function"
    },
    {
      "inputs": [],
      "name": "PROCESS_FEES",
      "outputs": [
        {
          "internalType": "uint256",
          "name": "",
          "type": "uint256"
        }
      ],
      "stateMutability": "view",
      "type": "function"
    },
    {
      "inputs": [],
      "name": "RECONFIGURE",
      "outputs": [
        {
          "internalType": "uint256",
          "name": "",
          "type": "uint256"
        }
      ],
      "stateMutability": "view",
      "type": "function"
    },
    {
      "inputs": [],
      "name": "REDEEM",
      "outputs": [
        {
          "internalType": "uint256",
          "name": "",
          "type": "uint256"
        }
      ],
      "stateMutability": "view",
      "type": "function"
    },
    {
      "inputs": [],
      "name": "REQUIRE_CLAIM",
      "outputs": [
        {
          "internalType": "uint256",
          "name": "",
          "type": "uint256"
        }
      ],
      "stateMutability": "view",
      "type": "function"
    },
    {
      "inputs": [],
      "name": "SET_CONTROLLER",
      "outputs": [
        {
          "internalType": "uint256",
          "name": "",
          "type": "uint256"
        }
      ],
      "stateMutability": "view",
      "type": "function"
    },
    {
      "inputs": [],
      "name": "SET_METADATA",
      "outputs": [
        {
          "internalType": "uint256",
          "name": "",
          "type": "uint256"
        }
      ],
      "stateMutability": "view",
      "type": "function"
    },
    {
      "inputs": [],
      "name": "SET_PRIMARY_TERMINAL",
      "outputs": [
        {
          "internalType": "uint256",
          "name": "",
          "type": "uint256"
        }
      ],
      "stateMutability": "view",
      "type": "function"
    },
    {
      "inputs": [],
      "name": "SET_SPLITS",
      "outputs": [
        {
          "internalType": "uint256",
          "name": "",
          "type": "uint256"
        }
      ],
      "stateMutability": "view",
      "type": "function"
    },
    {
      "inputs": [],
      "name": "SET_TERMINALS",
      "outputs": [
        {
          "internalType": "uint256",
          "name": "",
          "type": "uint256"
        }
      ],
      "stateMutability": "view",
      "type": "function"
    },
    {
      "inputs": [],
      "name": "SET_TOKEN",
      "outputs": [
        {
          "internalType": "uint256",
          "name": "",
          "type": "uint256"
        }
      ],
      "stateMutability": "view",
      "type": "function"
    },
    {
      "inputs": [],
      "name": "TRANSFER",
      "outputs": [
        {
          "internalType": "uint256",
          "name": "",
          "type": "uint256"
        }
      ],
      "stateMutability": "view",
      "type": "function"
    },
    {
      "inputs": [],
      "name": "USE_ALLOWANCE",
      "outputs": [
        {
          "internalType": "uint256",
          "name": "",
          "type": "uint256"
        }
      ],
      "stateMutability": "view",
      "type": "function"
    }
  ],
  "bytecode": {
    "object": "0x6080806040523461001a576102ad9081610020823930815050f35b600080fdfe60806040818152600436101561001457600080fd5b600091823560e01c9081631d4b9a43146102615750806332235cdf1461024b5780633e36f4c7146102355780636c1943be1461021f57806373b6dec61461020957806373d74876146101f3578063757616e1146101dd57806376190b60146101c757806376420e1d146101b15780639694c99a1461019b578063a264ed7814610185578063aae781031461016f578063af0c22a014610159578063b56dcf9e14610143578063c0a2526c1461012d578063c577af3014610117578063ef1b4f3b146101015763f5edee14146100e857600080fd5b816003193601126100fd5760209051600e8152f35b5080fd5b50816003193601126100fd576020905160128152f35b50816003193601126100fd576020905160028152f35b50816003193601126100fd5760209051600a8152f35b50816003193601126100fd576020905160048152f35b50816003193601126100fd576020905160068152f35b50816003193601126100fd576020905160108152f35b50816003193601126100fd576020905160038152f35b50816003193601126100fd576020905160058152f35b50816003193601126100fd5760209051600c8152f35b50816003193601126100fd576020905160088152f35b50816003193601126100fd5760209051600d8152f35b50816003193601126100fd5760209051600b8152f35b50816003193601126100fd576020905160118152f35b50816003193601126100fd5760209051600f8152f35b50816003193601126100fd576020905160098152f35b50816003193601126100fd576020905160078152f35b8390816003193601126100fd5780600160209252f3fea264697066735822122052f329566abb8e32c953e5fcccabdeb425738a4a9e30949d6976ab40150dc6a564736f6c63430008140033",
    "linkReferences": {}
  },
  "methodIdentifiers": {
    "BURN()": "c0a2526c",
    "CLAIM()": "73d74876",
    "ISSUE()": "32235cdf",
    "MIGRATE_CONTROLLER()": "a264ed78",
    "MIGRATE_TERMINAL()": "b56dcf9e",
    "MINT()": "3e36f4c7",
    "PROCESS_FEES()": "9694c99a",
    "RECONFIGURE()": "1d4b9a43",
    "REDEEM()": "c577af30",
    "REQUIRE_CLAIM()": "757616e1",
    "SET_CONTROLLER()": "f5edee14",
    "SET_METADATA()": "af0c22a0",
    "SET_PRIMARY_TERMINAL()": "aae78103",
    "SET_SPLITS()": "ef1b4f3b",
    "SET_TERMINALS()": "6c1943be",
    "SET_TOKEN()": "76190b60",
    "TRANSFER()": "76420e1d",
    "USE_ALLOWANCE()": "73b6dec6"
  },
  "id": 118
}