{
  "abi": [
    {
      "inputs": [
        {
          "internalType": "address",
          "name": "_delegateCodeOrigin",
          "type": "address"
        },
        {
          "internalType": "address",
          "name": "_governorCodeOrigin",
          "type": "address"
        },
        {
          "internalType": "address",
          "name": "_tokenUriResolverCodeOrigin",
          "type": "address"
        },
        {
          "internalType": "contract IJBController3_1",
          "name": "_controller",
          "type": "address"
        },
        {
          "internalType": "contract IJBDelegatesRegistry",
          "name": "_delegatesRegistry",
          "type": "address"
        },
        {
          "internalType": "address",
          "name": "_protocolFeeProjectTokenAccount",
          "type": "address"
        },
        {
          "internalType": "uint256",
          "name": "_ballkidzProjectId",
          "type": "uint256"
        },
        {
          "internalType": "address",
          "name": "_owner",
          "type": "address"
        }
      ],
      "stateMutability": "nonpayable",
      "type": "constructor"
    },
    {
      "inputs": [],
      "name": "GAME_OVER",
      "type": "error"
    },
    {
      "inputs": [],
      "name": "INVALID_FEE_PERCENT",
      "type": "error"
    },
    {
      "inputs": [],
      "name": "INVALID_GAME_CONFIGURATION",
      "type": "error"
    },
    {
      "inputs": [],
      "name": "PHASE_ALREADY_QUEUED",
      "type": "error"
    },
    {
      "inputs": [],
      "name": "SPLITS_DONT_ADD_UP",
      "type": "error"
    },
    {
      "inputs": [],
      "name": "UNEXPECTED_TERMINAL_CURRENCY",
      "type": "error"
    },
    {
      "anonymous": false,
      "inputs": [
        {
          "indexed": true,
          "internalType": "uint256",
          "name": "gameId",
          "type": "uint256"
        },
        {
          "indexed": true,
          "internalType": "contract IDefifaDelegate",
          "name": "delegate",
          "type": "address"
        },
        {
          "indexed": true,
          "internalType": "contract IDefifaGovernor",
          "name": "governor",
          "type": "address"
        },
        {
          "indexed": false,
          "internalType": "contract IJBTokenUriResolver",
          "name": "tokenUriResolver",
          "type": "address"
        },
        {
          "indexed": false,
          "internalType": "address",
          "name": "caller",
          "type": "address"
        }
      ],
      "name": "LaunchGame",
      "type": "event"
    },
    {
      "anonymous": false,
      "inputs": [
        {
          "indexed": true,
          "internalType": "address",
          "name": "previousOwner",
          "type": "address"
        },
        {
          "indexed": true,
          "internalType": "address",
          "name": "newOwner",
          "type": "address"
        }
      ],
      "name": "OwnershipTransferred",
      "type": "event"
    },
    {
      "inputs": [],
      "name": "SPLIT_DOMAIN",
      "outputs": [
        {
          "internalType": "uint256",
          "name": "",
          "type": "uint256"
        }
      ],
      "stateMutability": "view",
      "type": "function"
    },
    {
      "inputs": [],
      "name": "ballkidzProjectId",
      "outputs": [
        {
          "internalType": "uint256",
          "name": "",
          "type": "uint256"
        }
      ],
      "stateMutability": "view",
      "type": "function"
    },
    {
      "inputs": [
        {
          "internalType": "uint256",
          "name": "_percent",
          "type": "uint256"
        }
      ],
      "name": "changeFee",
      "outputs": [],
      "stateMutability": "nonpayable",
      "type": "function"
    },
    {
      "inputs": [],
      "name": "claimProtocolProjectToken",
      "outputs": [],
      "stateMutability": "nonpayable",
      "type": "function"
    },
    {
      "inputs": [],
      "name": "controller",
      "outputs": [
        {
          "internalType": "contract IJBController3_1",
          "name": "",
          "type": "address"
        }
      ],
      "stateMutability": "view",
      "type": "function"
    },
    {
      "inputs": [
        {
          "internalType": "uint256",
          "name": "_gameId",
          "type": "uint256"
        }
      ],
      "name": "currentGamePhaseOf",
      "outputs": [
        {
          "internalType": "enum DefifaGamePhase",
          "name": "",
          "type": "uint8"
        }
      ],
      "stateMutability": "view",
      "type": "function"
    },
    {
      "inputs": [
        {
          "internalType": "uint256",
          "name": "_gameId",
          "type": "uint256"
        }
      ],
      "name": "currentGamePotOf",
      "outputs": [
        {
          "internalType": "uint256",
          "name": "",
          "type": "uint256"
        },
        {
          "internalType": "address",
          "name": "",
          "type": "address"
        },
        {
          "internalType": "uint256",
          "name": "",
          "type": "uint256"
        }
      ],
      "stateMutability": "view",
      "type": "function"
    },
    {
      "inputs": [],
      "name": "delegateCodeOrigin",
      "outputs": [
        {
          "internalType": "address",
          "name": "",
          "type": "address"
        }
      ],
      "stateMutability": "view",
      "type": "function"
    },
    {
      "inputs": [],
      "name": "delegatesRegistry",
      "outputs": [
        {
          "internalType": "contract IJBDelegatesRegistry",
          "name": "",
          "type": "address"
        }
      ],
      "stateMutability": "view",
      "type": "function"
    },
    {
      "inputs": [
        {
          "internalType": "uint256",
          "name": "_gameId",
          "type": "uint256"
        }
      ],
      "name": "distributionOpsOf",
      "outputs": [
        {
          "components": [
            {
              "internalType": "contract IJBPaymentTerminal",
              "name": "terminal",
              "type": "address"
            },
            {
              "internalType": "address",
              "name": "token",
              "type": "address"
            },
            {
              "internalType": "uint88",
              "name": "distributionLimit",
              "type": "uint88"
            }
          ],
          "internalType": "struct DefifaDistributionOpsData",
          "name": "",
          "type": "tuple"
        }
      ],
      "stateMutability": "view",
      "type": "function"
    },
    {
      "inputs": [],
      "name": "feeDivisor",
      "outputs": [
        {
          "internalType": "uint256",
          "name": "",
          "type": "uint256"
        }
      ],
      "stateMutability": "view",
      "type": "function"
    },
    {
      "inputs": [],
      "name": "governorCodeOrigin",
      "outputs": [
        {
          "internalType": "address",
          "name": "",
          "type": "address"
        }
      ],
      "stateMutability": "view",
      "type": "function"
    },
    {
      "inputs": [
        {
          "components": [
            {
              "internalType": "string",
              "name": "name",
              "type": "string"
            },
            {
              "components": [
                {
                  "internalType": "string",
                  "name": "content",
                  "type": "string"
                },
                {
                  "internalType": "uint256",
                  "name": "domain",
                  "type": "uint256"
                }
              ],
              "internalType": "struct JBProjectMetadata",
              "name": "projectMetadata",
              "type": "tuple"
            },
            {
              "internalType": "string",
              "name": "contractUri",
              "type": "string"
            },
            {
              "internalType": "string",
              "name": "baseUri",
              "type": "string"
            },
            {
              "components": [
                {
                  "internalType": "string",
                  "name": "name",
                  "type": "string"
                },
                {
                  "internalType": "uint80",
                  "name": "price",
                  "type": "uint80"
                },
                {
                  "internalType": "uint16",
                  "name": "reservedRate",
                  "type": "uint16"
                },
                {
                  "internalType": "address",
                  "name": "reservedTokenBeneficiary",
                  "type": "address"
                },
                {
                  "internalType": "bytes32",
                  "name": "encodedIPFSUri",
                  "type": "bytes32"
                },
                {
                  "internalType": "bool",
                  "name": "shouldUseReservedTokenBeneficiaryAsDefault",
                  "type": "bool"
                }
              ],
              "internalType": "struct DefifaTierParams[]",
              "name": "tiers",
              "type": "tuple[]"
            },
            {
              "internalType": "address",
              "name": "token",
              "type": "address"
            },
            {
              "internalType": "uint48",
              "name": "mintDuration",
              "type": "uint48"
            },
            {
              "internalType": "uint48",
              "name": "refundDuration",
              "type": "uint48"
            },
            {
              "internalType": "uint48",
              "name": "start",
              "type": "uint48"
            },
            {
              "components": [
                {
                  "internalType": "bool",
                  "name": "preferClaimed",
                  "type": "bool"
                },
                {
                  "internalType": "bool",
                  "name": "preferAddToBalance",
                  "type": "bool"
                },
                {
                  "internalType": "uint256",
                  "name": "percent",
                  "type": "uint256"
                },
                {
                  "internalType": "uint256",
                  "name": "projectId",
                  "type": "uint256"
                },
                {
                  "internalType": "address payable",
                  "name": "beneficiary",
                  "type": "address"
                },
                {
                  "internalType": "uint256",
                  "name": "lockedUntil",
                  "type": "uint256"
                },
                {
                  "internalType": "contract IJBSplitAllocator",
                  "name": "allocator",
                  "type": "address"
                }
              ],
              "internalType": "struct JBSplit[]",
              "name": "splits",
              "type": "tuple[]"
            },
            {
              "internalType": "uint88",
              "name": "distributionLimit",
              "type": "uint88"
            },
            {
              "internalType": "address payable",
              "name": "ballkidzFeeProjectTokenAccount",
              "type": "address"
            },
            {
              "internalType": "uint256",
              "name": "votingStartTime",
              "type": "uint256"
            },
            {
              "internalType": "uint256",
              "name": "votingPeriod",
              "type": "uint256"
            },
            {
              "internalType": "address",
              "name": "defaultVotingDelegate",
              "type": "address"
            },
            {
              "internalType": "contract IJBTokenUriResolver",
              "name": "defaultTokenUriResolver",
              "type": "address"
            },
            {
              "internalType": "contract IJBPaymentTerminal",
              "name": "terminal",
              "type": "address"
            },
            {
              "internalType": "contract IJBTiered721DelegateStore",
              "name": "store",
              "type": "address"
            }
          ],
          "internalType": "struct DefifaLaunchProjectData",
          "name": "_launchProjectData",
          "type": "tuple"
        }
      ],
      "name": "launchGameWith",
      "outputs": [
        {
          "internalType": "uint256",
          "name": "gameId",
          "type": "uint256"
        },
        {
          "internalType": "contract IDefifaGovernor",
          "name": "governor",
          "type": "address"
        }
      ],
      "stateMutability": "nonpayable",
      "type": "function"
    },
    {
      "inputs": [
        {
          "internalType": "uint256",
          "name": "_gameId",
          "type": "uint256"
        }
      ],
      "name": "nextPhaseNeedsQueueing",
      "outputs": [
        {
          "internalType": "bool",
          "name": "",
          "type": "bool"
        }
      ],
      "stateMutability": "view",
      "type": "function"
    },
    {
      "inputs": [
        {
          "internalType": "address",
          "name": "",
          "type": "address"
        },
        {
          "internalType": "address",
          "name": "",
          "type": "address"
        },
        {
          "internalType": "uint256",
          "name": "",
          "type": "uint256"
        },
        {
          "internalType": "bytes",
          "name": "",
          "type": "bytes"
        }
      ],
      "name": "onERC721Received",
      "outputs": [
        {
          "internalType": "bytes4",
          "name": "",
          "type": "bytes4"
        }
      ],
      "stateMutability": "pure",
      "type": "function"
    },
    {
      "inputs": [],
      "name": "owner",
      "outputs": [
        {
          "internalType": "address",
          "name": "",
          "type": "address"
        }
      ],
      "stateMutability": "view",
      "type": "function"
    },
    {
      "inputs": [],
      "name": "protocolFeeProjectTokenAccount",
      "outputs": [
        {
          "internalType": "address",
          "name": "",
          "type": "address"
        }
      ],
      "stateMutability": "view",
      "type": "function"
    },
    {
      "inputs": [
        {
          "internalType": "uint256",
          "name": "_gameId",
          "type": "uint256"
        }
      ],
      "name": "queueNextPhaseOf",
      "outputs": [
        {
          "internalType": "uint256",
          "name": "configuration",
          "type": "uint256"
        }
      ],
      "stateMutability": "nonpayable",
      "type": "function"
    },
    {
      "inputs": [],
      "name": "renounceOwnership",
      "outputs": [],
      "stateMutability": "nonpayable",
      "type": "function"
    },
    {
      "inputs": [
        {
          "internalType": "uint256",
          "name": "_gameId",
          "type": "uint256"
        }
      ],
      "name": "timesFor",
      "outputs": [
        {
          "components": [
            {
              "internalType": "uint48",
              "name": "mintDuration",
              "type": "uint48"
            },
            {
              "internalType": "uint48",
              "name": "refundDuration",
              "type": "uint48"
            },
            {
              "internalType": "uint48",
              "name": "start",
              "type": "uint48"
            }
          ],
          "internalType": "struct DefifaTimeData",
          "name": "",
          "type": "tuple"
        }
      ],
      "stateMutability": "view",
      "type": "function"
    },
    {
      "inputs": [],
      "name": "tokenUriResolverCodeOrigin",
      "outputs": [
        {
          "internalType": "address",
          "name": "",
          "type": "address"
        }
      ],
      "stateMutability": "view",
      "type": "function"
    },
    {
      "inputs": [
        {
          "internalType": "address",
          "name": "newOwner",
          "type": "address"
        }
      ],
      "name": "transferOwnership",
      "outputs": [],
      "stateMutability": "nonpayable",
      "type": "function"
    }
  ],
  "bytecode": {
    "object": "0x61016034620001e1576200453d38819003601f8101601f191683016001600160401b03811184821017620001e65783928291604052833961010092839181010312620001e1576200005081620001fc565b906200005f60208201620001fc565b916200006e60408301620001fc565b60608301516001600160a01b0393919291908481168103620001e15760808201519485168503620001e157620000f693620000ac60a08401620001fc565b96620000c060e060c08601519501620001fc565b94620000cc3362000211565b6001600355601460055560a05260c05260e052865261012094855261014093845260805262000211565b604051916142e49384620002598539608051848181612004015281816121420152818161296101526138f7015260a051848181610fff01526129e9015260c05184818161013201526118cb015260e0518481816108200152611e37015251838181610195015281816103010152818161060b01528181610d2f015281816110830152818161124001528181611890015281816120c401528181612ed2015281816132b20152818161334e015281816136b80152818161388c01528181613b1301528181613f55015261412601525182818161041c01526126140152518181816102c001526119aa0152f35b600080fd5b634e487b7160e01b600052604160045260246000fd5b51906001600160a01b0382168203620001e157565b600080546001600160a01b039283166001600160a01b03198216811783559216907f8be0079c531659141344cd1fd0a4f28419497f9722a3daafe3b4186f6b6457e09080a356fe608080604052600436101561001357600080fd5b600090813560e01c90816306b552b5146129ca575080630715610a146129845780630d75b3aa14612949578063150b7a02146128bd5780631c069dbb146128965780633af76f34146126385780633f3090d9146125f457806353292c681461256f5780635dc1a1d01461091d5780636a1db1bf146108ab578063715018a61461084457806380f079541461080057806381312a14146105c55780638da5cb5b1461059f5780639a36f93214610581578063b07925d31461050b578063ca449a25146102e4578063d574ff04146102a0578063f2fde38b146101b9578063f77c479114610175578063ff16a2f2146101595763ff2a43cc1461011357600080fd5b3461015657806003193601126101565760206040516001600160a01b037f0000000000000000000000000000000000000000000000000000000000000000168152f35b80fd5b5034610156578060031936011261015657602090604051908152f35b503461015657806003193601126101565760206040516001600160a01b037f0000000000000000000000000000000000000000000000000000000000000000168152f35b5034610156576020600319360112610156576101d3612a0d565b6101db6141bc565b6001600160a01b03809116908115610236576000548273ffffffffffffffffffffffffffffffffffffffff19821617600055167f8be0079c531659141344cd1fd0a4f28419497f9722a3daafe3b4186f6b6457e0600080a380f35b608460405162461bcd60e51b815260206004820152602660248201527f4f776e61626c653a206e6577206f776e657220697320746865207a65726f206160448201527f64647265737300000000000000000000000000000000000000000000000000006064820152fd5b503461015657806003193601126101565760206040516001600160a01b037f0000000000000000000000000000000000000000000000000000000000000000168152f35b5034610156578060031936011261015657806001600160a01b03807f000000000000000000000000000000000000000000000000000000000000000016906040517f6193063000000000000000000000000000000000000000000000000000000000928382526020918281600481855afa908115610500578391859188916104e3575b50169460046040518094819382525afa9081156104ab578391839187916104b6575b506044604051809481937f5287af3700000000000000000000000000000000000000000000000000000000835230600484015260016024840152165afa9182156104ab578592610475575b5050823b1561047057608484928360405195869485937fac689bcd000000000000000000000000000000000000000000000000000000008552306004860152600160248601527f000000000000000000000000000000000000000000000000000000000000000016604485015260648401525af18015610465576104555750f35b61045e90612ada565b6101565780f35b6040513d84823e3d90fd5b505050fd5b8195508092503d83116104a4575b61048d8183612b43565b8101031261049f5783925138806103d4565b600080fd5b503d610483565b6040513d87823e3d90fd5b6104d69150823d84116104dc575b6104ce8183612b43565b810190613074565b38610389565b503d6104c4565b6104fa9150833d85116104dc576104ce8183612b43565b38610367565b6040513d88823e3d90fd5b503461015657602060031936011261015657604060609161052a612c01565b5060043581526001602052206040519061054382612a37565b5465ffffffffffff9081808216938481528160406020830192828660301c1684520193871c1683526040519485525116602084015251166040820152f35b50346101565780600319360112610156576020600554604051908152f35b50346101565780600319360112610156576001600160a01b036020915416604051908152f35b50346101565760209081600319360112610156576040517f557e715500000000000000000000000000000000000000000000000000000000808252916001600160a01b037f0000000000000000000000000000000000000000000000000000000000000000811660048035908790869081855afa9485156107f55784956107d4575b5082939495604051967f43a266c200000000000000000000000000000000000000000000000000000000885282600489015287602481610120988994165afa968715610500579088918798610794575b5060046040518095819382525afa9182156104ab57908492918692610772575b5060249060405194859384927f5c5500780000000000000000000000000000000000000000000000000000000084526004840152165afa92831561076657809361072a575b50505082608083015115159283610719575b506040518315158152f35b81015191015114905038828161070e565b90918093503d841161075f575b6107418184612b43565b8201928284031261015657509061075791612c34565b3880806106fc565b503d610737565b604051903d90823e3d90fd5b602491925061078d90893d8b116104dc576104ce8183612b43565b91906106b7565b91509650843d86116107cd575b6107ab8183612b43565b81019085818303126107c95788916107c291612c34565b9638610697565b8680fd5b503d6107a1565b839495506107ee90883d8a116104dc576104ce8183612b43565b9493610647565b6040513d86823e3d90fd5b503461015657806003193601126101565760206040516001600160a01b037f0000000000000000000000000000000000000000000000000000000000000000168152f35b503461015657806003193601126101565761085d6141bc565b60006001600160a01b03815473ffffffffffffffffffffffffffffffffffffffff1981168355167f8be0079c531659141344cd1fd0a4f28419497f9722a3daafe3b4186f6b6457e08280a380f35b5034610156576020600319360112610156576004356108c86141bc565b600581116108f35780156108df5760640460055580f35b602482634e487b7160e01b81526012600452fd5b60046040517f42c9b523000000000000000000000000000000000000000000000000000000008152fd5b50346101565760206003193601126101565767ffffffffffffffff600435116101565761024060031960043536030112610156576040519061095e82612a69565b6004356004013567ffffffffffffffff8111611b8757610985906004369181350101612b82565b82526024600435013567ffffffffffffffff8111611b87576004350160406003198236030112611b8757604051906109bc82612a86565b600481013567ffffffffffffffff811161244a57906109e360249260043691840101612b82565b83520135602082015260208301526044600435013567ffffffffffffffff8111611b8757610a18906004369181350101612b82565b60408301526064600435013567ffffffffffffffff8111611b8757610a44906004369181350101612b82565b60608301526084600435013567ffffffffffffffff8111611b87573660238260043501011215611b8757600481813501013590610a8082612bc9565b91610a8e6040519384612b43565b80835260208301913660248360051b8360043501010111612446576024816004350101925b60248360051b83600435010101841061244e57505050506080830152610add60a460043501612a23565b60a0830152610af060c460043501612bee565b60c0830152610b0360e460043501612bee565b60e0830152610b1761010460043501612bee565b61010083015267ffffffffffffffff610124600435013511610156573660043561012481013501602301121561015657610b5c60048035610124810135010135612bc9565b610b696040519182612b43565b60048035610124810135019081013580835260208301913660e09092020160240111611ab25760043561012481013501602401905b60048035610124810135019081013560e0020160240182106123b557505061012083015260043561014401356affffffffffffffffffffff81169003610156576101446004350135610140830152610bfb61016460043501612a23565b6101608301526004356101848101356101808401526101a48101356101a0840152610c29906101c401612a23565b6101c08301526004356101e401356001600160a01b0381169003610156576004356101e48101356101e084015261020401356001600160a01b03811690036101565760043561020481013561020084015261022401356001600160a01b038116900361015657600435610224013561022083015261010082015165ffffffffffff1680612328575065ffffffffffff610cd8610ccb8260c08601511642613093565b8260e08601511690613093565b166101008301525b65ffffffffffff60c0830151161580156122e7575b6122bd576040517f8b79543c0000000000000000000000000000000000000000000000000000000081526020816004816001600160a01b037f0000000000000000000000000000000000000000000000000000000000000000165afa90811561046557829161227a575b509060206001600160a01b03926004604051809581937f06661abd000000000000000000000000000000000000000000000000000000008352165afa91821561226d578192612239575b50600182018211611a8a5765ffffffffffff60c08401511665ffffffffffff60e08501511665ffffffffffff6101008601511660405192610de984612a37565b83526020830191825260408301908152600185018452600160205265ffffffffffff604085209351167fffffffffffffffffffffffffffff00000000000000000000000000000000000071ffffffffffff0000000000000000000000006bffffffffffff0000000000008654955160301b16935160601b16931617171790556001600160a01b03610200840151166affffffffffffffffffffff610140850151166001600160a01b0360018160a0880151169360405190610ea982612a37565b8152602081019485526040810193845281870186526002602052826040872091511673ffffffffffffffffffffffffffffffffffffffff19825416178155019251167fff000000000000000000000000000000000000000000000000000000000000007effffffffffffffffffffff00000000000000000000000000000000000000008454935160a01b169216171790556101208301515180611fa2575b509060808301515192610f5984612bc9565b93610f676040519586612b43565b808552610f7381612bc9565b845b601f1982018110611f4157505060808201515190610fab610f9583612bc9565b92610fa36040519485612b43565b808452612bc9565b855b601f1982018110611f2b5750508460a0604051610fc981612aa2565b606081528260208201528260408201528260608201528260808201520152845b818110611e625750506001600160a01b036110237f0000000000000000000000000000000000000000000000000000000000000000614214565b6101e0840151911694906001600160a01b031615611e2a576001600160a01b036101e084015116915b604051967fc41c2f240000000000000000000000000000000000000000000000000000000088526020886004816001600160a01b037f0000000000000000000000000000000000000000000000000000000000000000165afa978815611e1f578398611ddb575b5084518360018801807a184f03e93ff9f4daa797ed6e38ed64bf6a1f01000000000000000080821015611dca575b506d04ee2d6d415b85acef810000000080821015611dbd575b50662386f26fc1000080821015611db0575b506305f5e10080821015611da3575b50612710811015611d94575b6064811015611d86575b600a80911015611d7c575b6001830191816000196021601f1961116c61115688612b66565b97611164604051998a612b43565b808952612b66565b019660208701973689378601015b01917f30313233343536373839616263646566000000000000000000000000000000008282061a8353049081156111b557600019839161117a565b505050602761120a916111fa936040519485927f444546494641200000000000000000000000000000000000000000000000000060208501525180928585019061322c565b8101036007810184520182612b43565b6040517f557e71550000000000000000000000000000000000000000000000000000000081526020816004816001600160a01b037f0000000000000000000000000000000000000000000000000000000000000000165afa908115610500578691611d5d575b506060880151906040890151926001600160a01b036102008b0151169460206001600160a01b0360a08d0151166024604051809981937f1982d67900000000000000000000000000000000000000000000000000000000835260048301525afa958615611d5257918b9593918e9795938b96611d17575b506001600160a01b036101c0816102208a01511698015116973b15611d1357928f999693928e9895928c9a97946040519c8d9b7f3900c6f9000000000000000000000000000000000000000000000000000000008d5260010160048d01526001600160a01b031660248c015260448b016101e090526101e48b0161136a9161324f565b8a81036003190160648c015261137f9161324f565b906001600160a01b031660848a01528881036003190160a48a01526113a39161324f565b6001600160a01b038c1660c48901528781036003190160e48901526113c79161324f565b868103600319016101048801528451908181526020019460200190885b818110611c4f5750505065ffffffffffff1661012486015261014485015230610164850152306101848501526101a4840152600319838203016101c4840152815180825260208201916020808360051b83010194019286915b838310611c1e57505050505081900381838a5af1801561046557908291611c0a575b50506001600160a01b036101e08401511615611b93575b61020083015160a08401516040517fdf21a7dd0000000000000000000000000000000000000000000000000000000081526001600160a01b0391821660048201526001870160248201529160209183916044918391165afa908115610465578291611b55575b5015611b2b576103e060246040516114f381612a86565b60018152602036818301376001600160a01b0361020087015116611516826130b6565b52611820602087015161180d65ffffffffffff60c08a015116916040519261153d84612b0b565b835287602084015287604084015287606084015260405161155d81612a37565b88815288602082015288604082015261158a60405161157b81612a86565b8a815260016020820152614197565b6040519161159783612a69565b8252896020830152612710604083015261271060608301528960808301528960a08301528960c08301528960e08301528961010083015289610120830152896101408301528961016083015289610180830152896101a083015260016101c083015260016101e08301528d61020083015261022082015265ffffffffffff61163e8c8260e061163482610100850151168360c08601511690614050565b9201511690614050565b6117f46040519361164e85612b27565b600085526116eb604051986116628a612b27565b60008a526040519d8e9d8e7fb3c5267300000000000000000000000000000000000000000000000000000000815230600482015201528c61040460206116b68b5160406103e486015261042485019061324f565b9a0151910152805160448e0152602081015160648e0152604081015160848e0152606001516001600160a01b031660a48d0152565b80518051151560c48d0152602080820151151560e48e015260409182015115156101048e01528201516101248d01528101516101448c015260608101516101648c0152608081015115156101848c015260a081015115156101a48c015260c081015115156101c48c015260e081015115156101e48c015261010081015115156102048c015261012081015115156102248c015261014081015115156102448c015261016081015115156102648c015261018081015115156102848c01526101a081015115156102a48c01526101c081015115156102c48c01526101e081015115156102e48c01526102008101516001600160a01b03166103048c015261022001516103248b0152565b166103448801526003198783030161036488015261313d565b9060031985830301610384860152614068565b600319838203016103a484015260208083519283815201920190855b818110611b0957505050906040827f446566696661206d696e742070686173652e00000000000000000000000000006020848196039260031984016103c48701526012815201520181856001600160a01b037f0000000000000000000000000000000000000000000000000000000000000000165af1801561046557611ade575b506001600160a01b036118ef7f0000000000000000000000000000000000000000000000000000000000000000614214565b16926101a0610180820151910151843b15611ab257604051917f7a1ac61e00000000000000000000000000000000000000000000000000000000835287600484015260248301526044820152818160648183885af1801561046557908291611aca575b5050843b15610156576040517ff2fde38b0000000000000000000000000000000000000000000000000000000081528360048201528181602481838a5af1801561046557908291611ab6575b50506001600160a01b037f000000000000000000000000000000000000000000000000000000000000000016600354813b15611ab2576040517f5bcfd21200000000000000000000000000000000000000000000000000000000815230600482015260248101919091529082908290604490829084905af1801561046557908291611a9e575b50506003549060038201809211611a8a57509382916040956003556001600160a01b038651911681523360208201527f3082991f3dda023098e5849ea3903c6fbfd657dc6f9232f5eb81ad8a7ba161d6866001870192a460018351920182526020820152f35b80634e487b7160e01b602492526011600452fd5b611aa790612ada565b610156578086611a24565b8280fd5b611abf90612ada565b61015657808661199e565b611ad390612ada565b610156578086611952565b602090813d8311611b02575b611af48183612b43565b8101031261049f57856118bd565b503d611aea565b82516001600160a01b031684528594506020938401939092019160010161183c565b60046040517f3727b396000000000000000000000000000000000000000000000000000000008152fd5b90506020813d602011611b8b575b81611b7060209383612b43565b81010312611b8757611b8190612cc7565b866114dc565b5080fd5b3d9150611b63565b6001600160a01b0382163b15610156576040517fc4d66de80000000000000000000000000000000000000000000000000000000081528560048201528181602481836001600160a01b0388165af1801561046557908291611bf6575b5050611476565b611bff90612ada565b610156578086611bef565b611c1390612ada565b61015657808661145f565b92955092955092602080611c3e83601f198660019603018752895161324f565b97019301930187959387959261143d565b92949698509294819750610160602091610140600194516cffffffffffffffffffffffffff815116835263ffffffff80868301511686850152604082015116604084015261ffff60608201511660608401526001600160a01b03608082015116608084015260a081015160a084015262ffffff60c08201511660c084015260e0810151151560e08401526101008101511515610100840152610120810151151561012084015201511515610140820152019701910190889694928a989694926113e4565b8a80fd5b9650945095506020853d602011611d4a575b81611d3660209383612b43565b8101031261049f578c958b955194386112e7565b3d9150611d29565b6040513d8b823e3d90fd5b611d76915060203d6020116104dc576104ce8183612b43565b38611270565b916001019161113c565b606460029104920191611131565b61271060049104920191611127565b600891049201913861111b565b601091049201913861110c565b60209104920191386110fa565b6040935060018b01049050386110e1565b9097506020813d602011611e17575b81611df760209383612b43565b81010312611ab257516001600160a01b0381168103611ab25796386110b3565b3d9150611dea565b6040513d85823e3d90fd5b6001600160a01b03611e5b7f0000000000000000000000000000000000000000000000000000000000000000614214565b169161104c565b80611e7360019260808701516130d9565b5169ffffffffffffffffffff60208201511661ffff6040830151166001600160a01b0360608401511660808401519060a085015115159260405194611eb786612aee565b8552633b9ac9ff60208601528760408601526060850152608084015260a08301528960c08301528960e08301526101008201528861012082015283610140820152611f02838b6130d9565b52611f0d828a6130d9565b5051611f1982866130d9565b52611f2481856130d9565b5001610fe9565b602081606082601f199488010152019050610fad565b6020601f1991604051611f5381612aee565b88815288838201528860408201528860608201528860808201528860a08201528860c08201528860e082015288610100820152886101208201528861014082015282828b010152019050610f75565b60055490811561222557829083905b8082106121fb575050633b9aca00908282048203908282116121e757036121bd57612052916001600160a01b03610160870151169060405192611ff384612abe565b8584528560208501520460408301527f0000000000000000000000000000000000000000000000000000000000000000606083015260808201528260a08201528260c082015261012085015180519161204c83836130d9565b526130d9565b5061205b6130ed565b6101208401516040519061206e82612a86565b6001850182526020820152612082826130b6565b5261208c816130b6565b50604051907f2bdfe0040000000000000000000000000000000000000000000000000000000082526020826004816001600160a01b037f0000000000000000000000000000000000000000000000000000000000000000165afa918215611e1f57839261219c575b506001600160a01b0382163b15611ab25761217d6001600160a01b03928492836040519586809581947ff2da44b60000000000000000000000000000000000000000000000000000000083527f0000000000000000000000000000000000000000000000000000000000000000600484015284602484015260606044840152606483019061313d565b0393165af180156104655715610f475761219690612ada565b38610f47565b6121b691925060203d6020116104dc576104ce8183612b43565b90386120f4565b60046040517f48270162000000000000000000000000000000000000000000000000000000008152fd5b602485634e487b7160e01b81526011600452fd5b909161221d6001916040612214866101208c01516130d9565b51015190613093565b920190611fb1565b602483634e487b7160e01b81526012600452fd5b9091506020813d602011612265575b8161225560209383612b43565b81010312611b8757519038610da9565b3d9150612248565b50604051903d90823e3d90fd5b90506020813d6020116122b5575b8161229560209383612b43565b81010312611b8757516001600160a01b0381168103611b87576020610d5f565b3d9150612288565b60046040517f74f88142000000000000000000000000000000000000000000000000000000008152fd5b5065ffffffffffff6101008301511661232261230f65ffffffffffff60e08601511642613093565b65ffffffffffff60c08601511690613093565b10610cf5565b65ffffffffffff60c084015116159081612396575b5015610ce05765ffffffffffff6101008301511661236765ffffffffffff60e08501511642613093565b81039081116123825765ffffffffffff1660c0830152610ce0565b602482634e487b7160e01b81526011600452fd5b90506123ae65ffffffffffff60e08501511642613093565b103861233d565b60e08236031261244a576040516123cb81612abe565b6123d483612be1565b81526123e260208401612be1565b6020820152604083013560408201526060830135606082015261240760808401612a23565b608082015260a0838101359082015260c08301356001600160a01b03811690036124465760e09160209160c085013560c0820152815201910190610b9e565b8480fd5b8380fd5b833567ffffffffffffffff81116107c95760c07fffffffffffffffffffffffffffffffffffffffffffffffffffffffffffffffdc82856004350101360301126107c9576040519061249e82612aa2565b67ffffffffffffffff60248286600435010101351161256b576124cf36602460043587018401818101350101612b82565b8252600435840181016044013569ffffffffffffffffffff8116900361256b5760043584018101604481013560208401526064013561ffff8116900361256b5760249260209261255960c484606487968a60043501010135604085015261253e6084828b600435010101612a23565b606085015260043589010160a4810135608085015201612be1565b60a08201528152019401939050610ab3565b8780fd5b503461015657602060031936011261015657604060609161258e612c01565b5060043581526002602052206040516125a681612a37565b6001600160a01b03906001828454169384835201549160406020830192828516845201916affffffffffffffffffffff809460a01c1683526040519485525116602084015251166040820152f35b503461015657806003193601126101565760206040516001600160a01b037f0000000000000000000000000000000000000000000000000000000000000000168152f35b503461015657602080600319360112611b8757600435908183526002815260408320906040519261266884612a37565b6001600160a01b039360406affffffffffffffffffffff6001878754169687855201548781168685015260a01c169101526040517f975057e70000000000000000000000000000000000000000000000000000000081528281600481875afa801561050057859284928892612857575b5060449060405197889384927fd49031c00000000000000000000000000000000000000000000000000000000084528960048501526024840152165afa9384156104ab578594612828575b50604051927ffc0c546a0000000000000000000000000000000000000000000000000000000084528284600481845afa9384156105005786946127ef575b509282600494604051958680927f313ce5670000000000000000000000000000000000000000000000000000000082525afa9384156105005786946127b8575b506060955060405194855216908301526040820152f35b9093508281813d83116127e8575b6127d08183612b43565b810103126127e457606095505192386127a1565b8580fd5b503d6127c6565b93508284813d8311612821575b6128068183612b43565b810103126127e4578261281a600495612c20565b9450612761565b503d6127fc565b9093508181813d8311612850575b6128408183612b43565b8101031261244657519238612723565b503d612836565b92839194508092503d831161288f575b6128718183612b43565b810103126127e4575184811681036127e457849183919060446126d8565b503d612867565b50346101565760206003193601126101565760206128b5600435613274565b604051908152f35b5034610156576080600319360112610156576128d7612a0d565b506024356001600160a01b038116036101565760643567ffffffffffffffff808211611ab25736602383011215611ab2578160040135908111611ab257369101602401116101565760206040517f150b7a02000000000000000000000000000000000000000000000000000000008152f35b503461015657806003193601126101565760206040517f00000000000000000000000000000000000000000000000000000000000000008152f35b5034610156576020600319360112610156576129a1600435612e90565b6040519060078110156129b657602092508152f35b602483634e487b7160e01b81526021600452fd5b905034611b875781600319360112611b87576020906001600160a01b037f0000000000000000000000000000000000000000000000000000000000000000168152f35b600435906001600160a01b038216820361049f57565b35906001600160a01b038216820361049f57565b6060810190811067ffffffffffffffff821117612a5357604052565b634e487b7160e01b600052604160045260246000fd5b610240810190811067ffffffffffffffff821117612a5357604052565b6040810190811067ffffffffffffffff821117612a5357604052565b60c0810190811067ffffffffffffffff821117612a5357604052565b60e0810190811067ffffffffffffffff821117612a5357604052565b67ffffffffffffffff8111612a5357604052565b610160810190811067ffffffffffffffff821117612a5357604052565b6080810190811067ffffffffffffffff821117612a5357604052565b6020810190811067ffffffffffffffff821117612a5357604052565b90601f601f19910116810190811067ffffffffffffffff821117612a5357604052565b67ffffffffffffffff8111612a5357601f01601f191660200190565b81601f8201121561049f57803590612b9982612b66565b92612ba76040519485612b43565b8284526020838301011161049f57816000926020809301838601378301015290565b67ffffffffffffffff8111612a535760051b60200190565b3590811515820361049f57565b359065ffffffffffff8216820361049f57565b60405190612c0e82612a37565b60006040838281528260208201520152565b51906001600160a01b038216820361049f57565b809291610120918291031261049f5760405190810181811067ffffffffffffffff821117612a53576040528092805182526020810151602083015260408101516040830152606081015160608301526080810151608083015260a081015160a083015260c081015160c083015260e08101516001600160a01b038116810361049f5760e083015261010080910151910152565b5190811515820361049f57565b80820392916103a0841261049f57612d0d7ffffffffffffffffffffffffffffffffffffffffffffffffffffffffffffffee09183612c34565b9301906102809081831261049f57606060405193612d2a85612a69565b1261049f57604051612d3b81612a37565b61012090612d4a838301612cc7565b815261014090612d5b848301612cc7565b602082015261016090612d6f858301612cc7565b604082015286526101808085015160208801526101a0908186015160408901526101c0928387015160608a01526101e094858801612dac90612cc7565b60808b015261020096612dc0898901612cc7565b60a08c015261022099612dd48a8c01612cc7565b60c08d0152612de66102408b01612cc7565b60e08d0152612df86102608b01612cc7565b6101008d01528901612e0990612cc7565b908b0152612e1a6102a08901612cc7565b908a0152612e2b6102c08801612cc7565b90890152612e3c6102e08701612cc7565b90880152612e4d6103008601612cc7565b90870152612e5e6103208501612cc7565b90860152612e6f6103408401612cc7565b90850152612e806103608301612c20565b9084015261038001519082015290565b604080517f8776c4990000000000000000000000000000000000000000000000000000000081528260048201526103a0906001600160a01b03938282602481887f0000000000000000000000000000000000000000000000000000000000000000165afa918215613069576000938493613035575b50508251801561302a5760011461302057806000526020926004845260ff85600020541661301557612f3781836140dc565b61300a57516002149081612fe9575b50612fe05760049361020083920151168351948580927fa8c15f4a0000000000000000000000000000000000000000000000000000000082525afa918215612fd65750600091612fa2575b509050612f9d57600390565b600490565b82813d8311612fcf575b612fb68183612b43565b810103126101565750612fc890612cc7565b8038612f91565b503d612fac565b513d6000823e3d90fd5b50505050600290565b90506000526001825265ffffffffffff836000205460301c16151538612f46565b505050505050600590565b505050505050600690565b5050505050600190565b505050505050600090565b80919294506130599350903d10613062575b6130518183612b43565b810190612cd4565b90913880612f05565b503d613047565b84513d6000823e3d90fd5b9081602091031261049f57516001600160a01b038116810361049f5790565b919082018092116130a057565b634e487b7160e01b600052601160045260246000fd5b8051156130c35760200190565b634e487b7160e01b600052603260045260246000fd5b80518210156130c35760209160051b010190565b6040908151916130fc83612a86565b600183528291600091825b6020808210156131345782516020929161312082612a86565b868252606081830152828901015201613107565b50505091925050565b908082519081815260208091019281808460051b830101950193600080925b85841061316d575050505050505090565b9091929387601f19838398999a0301855288519060408381830193805184520151928185840152835180915284606080940194019287925b8284106131c7575050505050908060019299019401940192959493919061315c565b91939560e06001929496885180511515825283810151151584830152858101518683015286810151878301526001600160a01b0360808181840151169084015260a0808301519084015260c08092015116908201520196019401918a959493916131a5565b60005b83811061323f5750506000910152565b818101518382015260200161322f565b90601f19601f60209361326d8151809281875287808801910161322c565b0116010190565b604051907f8776c4990000000000000000000000000000000000000000000000000000000082528060048301526103a0826024816001600160a01b037f0000000000000000000000000000000000000000000000000000000000000000165afa91821561371b57600090819361402a575b5081600052600460205260ff60406000205416801561401e575b613ff45761330d81836140dc565b613db8576040517f12b37b140000000000000000000000000000000000000000000000000000000081528260048201526103a0816024816001600160a01b037f0000000000000000000000000000000000000000000000000000000000000000165afa90811561371b57600091613d96575b5060208083015191015103613d6c575160011480613d4a575b156137275760209060406001600160a01b036102008095015116826000526001845281600020948251956133cb87612a37565b54958365ffffffffffff8089168352808960301c1698898985015260601c169101528251956133f987612b0b565b86526000858701526000838701526000606087015282519161341a83612a37565b60008352600086840152600084840152613447845161343881612a86565b60008152600188820152614197565b9184519361345485612a69565b84526000878501526127108086860152606085015260016080850152600060a0850152600060c0850152600060e08501526000610100850152600061012085015260006101408501526000610160850152600061018085015260006101a085015260016101c085015260016101e08501528301526102208201527f44656669666120726566756e642070686173652e00000000000000000000000084613698613684855161350181612b27565b6000815261366887519661351488612b27565b6000885261356089519c8d9b63175b7be560e31b8d5260048d015260248c01906001600160a01b0360608092805185526020810151602086015260408101516040860152015116910152565b80518051151560a48c0152602080820151151560c48d0152604091820151151560e48d01528201516101048c01528101516101248b015260608101516101448b0152608081015115156101648b015260a081015115156101848b015260c081015115156101a48b015260e081015115156101c48b015261010081015115156101e48b015261012081015115156102048b015261014081015115156102248b015261016081015115156102448b015261018081015115156102648b01526101a081015115156102848b01526101c081015115156102a48b01526101e081015115156102c48b01526102008101516001600160a01b03166102e48b015261022001516103048a0152565b60006103248901526103a06103448901526103a488019061313d565b600319948588830301610364890152614068565b858103938401610384870152601481520152018160006001600160a01b037f0000000000000000000000000000000000000000000000000000000000000000165af190811561371b576000916136ec575090565b906020823d602011613713575b8161370660209383612b43565b8101031261015657505190565b3d91506136f9565b6040513d6000823e3d90fd5b906102006001600160a01b03910151169080600052600260205260406000206affffffffffffffffffffff60016040519261376184612a37565b6001600160a01b03815416845201546001600160a01b038116602084015260a01c1660408201526040519061379582612a86565b6001825260005b60208110613d0957506001600160a01b038151166001600160a01b036020830151166affffffffffffffffffffff604084015116604051917f1982d679000000000000000000000000000000000000000000000000000000008352806004840152602083602481875afa92831561371b57600093613cd5575b506040519361382385612aa2565b845260208401526040830152606082015260006080820152600060a082015261384b836130b6565b52613855826130b6565b506040517f2bdfe0040000000000000000000000000000000000000000000000000000000081526020816004816001600160a01b037f0000000000000000000000000000000000000000000000000000000000000000165afa90811561371b576001600160a01b03916000918291613cb6575b506064604051809481937f69e11cc50000000000000000000000000000000000000000000000000000000083527f00000000000000000000000000000000000000000000000000000000000000006004840152856024840152896044840152165afa90811561371b57600091613b63575b50917f4465666966612073636f72696e672070686173652e00000000000000000000006020613af3613684604095839897600081511515600014613b4d57506001600160a01b03856139896130ed565b9301511661eeee8103613b4757506001905b8851916139a783612a86565b8252858201526139b6826130b6565b526139c0816130b6565b505b61366887519a6139d18c612b0b565b60008c526000868d01526000898d0152600060608d01528851906139f482612a37565b6000825260008783015260008a830152613a218a51613a1281612a86565b60008152600089820152614197565b908a5192613a2e84612a69565b8352600088840152612710808c850152606084015260016080840152600060a0840152600060c0840152600060e08401526000610100840152600061012084015260006101408401526000610160840152600061018084015260006101a084015260016101c084015260016101e084015261020083015261022082015261356089519c8d9b63175b7be560e31b8d5260048d015260248c01906001600160a01b0360608092805185526020810151602086015260408101516040860152015116910152565b858103938401610384870152601581520152018160006001600160a01b037f0000000000000000000000000000000000000000000000000000000000000000165af190811561371b576000916136ec575090565b9061399b565b915050865190613b5c82612b27565b81526139c2565b903d8082843e613b738184612b43565b6020838281010312611b875782519167ffffffffffffffff831161015657818401601f848601011215610156578284015191613bae83612bc9565b94613bbc6040519687612b43565b8386526020860194828201602060e0870283850101011161244a57602081830101955b602060e0870283850101018710613c1f57507f4465666966612073636f72696e672070686173652e00000000000000000000009550613939945050505050565b60e087858501031261244657604051613c3781612abe565b613c4088612cc7565b8152613c4e60208901612cc7565b6020820152604088015160408201526060880151606082015260808801516001600160a01b03811681036107c957608082015260a088015160a082015260c08801516001600160a01b03811681036107c95760c0820152815260e09690960195602001613bdf565b613ccf915060203d6020116104dc576104ce8183612b43565b386138c8565b90926020823d602011613d01575b81613cf060209383612b43565b810103126101565750519138613815565b3d9150613ce3565b602090604051613d1881612aa2565b60008152600083820152600060408201526000606082015260006080820152600060a08201528282860101520161379c565b5080600052600160205265ffffffffffff60406000205460301c161515613398565b60046040517f11f43385000000000000000000000000000000000000000000000000000000008152fd5b613db191506103a03d6103a011613062576130518183612b43565b503861337f565b5060206135609260406001600160a01b036102008093015116815192613ddd84612b0b565b6000845260008585015260008385015260006060850152825191613e0083612a37565b60008352600086840152600084840152613e1e845161343881612a86565b91845193613e2b85612a69565b84526000878501526127108086860152606085015260016080850152600060a0850152600060c0850152600060e08501526000610100850152600061012085015260006101408501526000610160850152600061018085015260006101a085015260016101c085015260016101e08501528301526102208201527f446566696661206e6f20636f6e746573742e000000000000000000000000000084613f356136848551613ed881612b27565b60008152613668875196613eeb88612b27565b6000885288519c8d9a63175b7be560e31b8c528d60048d015260248c01906001600160a01b0360608092805185526020810151602086015260408101516040860152015116910152565b858103938401610384870152601281520152018160006001600160a01b037f0000000000000000000000000000000000000000000000000000000000000000165af191821561371b57600092613fc0575b506000526004602052604060002060017fffffffffffffffffffffffffffffffffffffffffffffffffffffffffffffff0082541617905590565b90916020823d602011613fec575b81613fdb60209383612b43565b810103126101565750519038613f86565b3d9150613fce565b60046040517fdc7a2515000000000000000000000000000000000000000000000000000000008152fd5b506080810151156132ff565b90506140489192506103a03d6103a011613062576130518183612b43565b9190386132e5565b65ffffffffffff91821690821603919082116130a057565b90815180825260208080930193019160005b828110614088575050505090565b835180516001600160a01b03908116875281840151168684015260408082015190870152606080820151908701526080808201519087015260a0908101519086015260c0909401939281019260010161407a565b906040810151604051927fa40bb9c7000000000000000000000000000000000000000000000000000000008452600484015260248301526103a09182816044816001600160a01b037f0000000000000000000000000000000000000000000000000000000000000000165afa92831561371b57600093614177575b505051905190600182018092116130a0570361417257600090565b600190565b61418e929350803d10613062576130518183612b43565b50903880614157565b9060009180516141b3575b602001516141ac57565b9060021790565b600192506141a2565b6001600160a01b036000541633036141d057565b606460405162461bcd60e51b815260206004820152602060248201527f4f776e61626c653a2063616c6c6572206973206e6f7420746865206f776e65726044820152fd5b6e5af43d82803e903d91602b57fd5bf390763d602d80600a3d3981f3363d3d373d3d3d363d7300000062ffffff8260881c161760005260781b17602052603760096000f0906001600160a01b0382161561426a57565b606460405162461bcd60e51b815260206004820152601660248201527f455243313136373a20637265617465206661696c6564000000000000000000006044820152fdfea2646970667358221220ba12449d672dd5eeebf389fd9b990bcc3b5dbaf44971250051b0261dd066a5bd64736f6c63430008140033",
    "linkReferences": {}
  },
  "methodIdentifiers": {
    "SPLIT_DOMAIN()": "ff16a2f2",
    "ballkidzProjectId()": "0d75b3aa",
    "changeFee(uint256)": "6a1db1bf",
    "claimProtocolProjectToken()": "ca449a25",
    "controller()": "f77c4791",
    "currentGamePhaseOf(uint256)": "0715610a",
    "currentGamePotOf(uint256)": "3af76f34",
    "delegateCodeOrigin()": "06b552b5",
    "delegatesRegistry()": "d574ff04",
    "distributionOpsOf(uint256)": "53292c68",
    "feeDivisor()": "9a36f932",
    "governorCodeOrigin()": "ff2a43cc",
    "launchGameWith((string,(string,uint256),string,string,(string,uint80,uint16,address,bytes32,bool)[],address,uint48,uint48,uint48,(bool,bool,uint256,uint256,address,uint256,address)[],uint88,address,uint256,uint256,address,address,address,address))": "5dc1a1d0",
    "nextPhaseNeedsQueueing(uint256)": "81312a14",
    "onERC721Received(address,address,uint256,bytes)": "150b7a02",
    "owner()": "8da5cb5b",
    "protocolFeeProjectTokenAccount()": "3f3090d9",
    "queueNextPhaseOf(uint256)": "1c069dbb",
    "renounceOwnership()": "715018a6",
    "timesFor(uint256)": "b07925d3",
    "tokenUriResolverCodeOrigin()": "80f07954",
    "transferOwnership(address)": "f2fde38b"
  },
  "id": 1
}