{
  "abi": [
    {
      "inputs": [
        {
          "internalType": "address",
          "name": "_delegateCodeOrigin",
          "type": "address"
        },
        {
          "internalType": "contract IJB721TokenUriResolver",
          "name": "_tokenUriResolver",
          "type": "address"
        },
        {
          "internalType": "contract IDefifaGovernor",
          "name": "_governor",
          "type": "address"
        },
        {
          "internalType": "contract IJBController3_1",
          "name": "_controller",
          "type": "address"
        },
        {
          "internalType": "contract IJBDelegatesRegistry",
          "name": "_delegatesRegistry",
          "type": "address"
        },
        {
          "internalType": "address",
          "name": "_protocolFeeProjectTokenAccount",
          "type": "address"
        },
        {
          "internalType": "uint256",
          "name": "_ballkidzProjectId",
          "type": "uint256"
        },
        {
          "internalType": "address",
          "name": "_owner",
          "type": "address"
        }
      ],
      "stateMutability": "nonpayable",
      "type": "constructor"
    },
    {
      "inputs": [],
      "name": "CANT_FULFILL_YET",
      "type": "error"
    },
    {
      "inputs": [],
      "name": "GAME_OVER",
      "type": "error"
    },
    {
      "inputs": [],
      "name": "INCORRECT_DECIMAL_AMOUNT",
      "type": "error"
    },
    {
      "inputs": [],
      "name": "INVALID_FEE_PERCENT",
      "type": "error"
    },
    {
      "inputs": [],
      "name": "INVALID_GAME_CONFIGURATION",
      "type": "error"
    },
    {
      "inputs": [],
      "name": "PHASE_ALREADY_QUEUED",
      "type": "error"
    },
    {
      "inputs": [
        {
          "internalType": "uint256",
          "name": "prod1",
          "type": "uint256"
        },
        {
          "internalType": "uint256",
          "name": "denominator",
          "type": "uint256"
        }
      ],
      "name": "PRBMath__MulDivOverflow",
      "type": "error"
    },
    {
      "inputs": [],
      "name": "SPLITS_DONT_ADD_UP",
      "type": "error"
    },
    {
      "inputs": [],
      "name": "TERMINAL_NOT_FOUND",
      "type": "error"
    },
    {
      "inputs": [],
      "name": "UNEXPECTED_TERMINAL_CURRENCY",
      "type": "error"
    },
    {
      "anonymous": false,
      "inputs": [
        {
          "components": [
            {
              "internalType": "bool",
              "name": "preferClaimed",
              "type": "bool"
            },
            {
              "internalType": "bool",
              "name": "preferAddToBalance",
              "type": "bool"
            },
            {
              "internalType": "uint256",
              "name": "percent",
              "type": "uint256"
            },
            {
              "internalType": "uint256",
              "name": "projectId",
              "type": "uint256"
            },
            {
              "internalType": "address payable",
              "name": "beneficiary",
              "type": "address"
            },
            {
              "internalType": "uint256",
              "name": "lockedUntil",
              "type": "uint256"
            },
            {
              "internalType": "contract IJBSplitAllocator",
              "name": "allocator",
              "type": "address"
            }
          ],
          "indexed": false,
          "internalType": "struct JBSplit",
          "name": "split",
          "type": "tuple"
        },
        {
          "indexed": false,
          "internalType": "uint256",
          "name": "amount",
          "type": "uint256"
        },
        {
          "indexed": false,
          "internalType": "address",
          "name": "defaultBeneficiary",
          "type": "address"
        },
        {
          "indexed": false,
          "internalType": "address",
          "name": "caller",
          "type": "address"
        }
      ],
      "name": "DistributeToSplit",
      "type": "event"
    },
    {
      "anonymous": false,
      "inputs": [
        {
          "indexed": true,
          "internalType": "uint256",
          "name": "gameId",
          "type": "uint256"
        },
        {
          "indexed": true,
          "internalType": "contract IDefifaDelegate",
          "name": "delegate",
          "type": "address"
        },
        {
          "indexed": true,
          "internalType": "contract IDefifaGovernor",
          "name": "governor",
          "type": "address"
        },
        {
          "indexed": false,
          "internalType": "contract IJB721TokenUriResolver",
          "name": "tokenUriResolver",
          "type": "address"
        },
        {
          "indexed": false,
          "internalType": "address",
          "name": "caller",
          "type": "address"
        }
      ],
      "name": "LaunchGame",
      "type": "event"
    },
    {
      "anonymous": false,
      "inputs": [
        {
          "indexed": true,
          "internalType": "address",
          "name": "previousOwner",
          "type": "address"
        },
        {
          "indexed": true,
          "internalType": "address",
          "name": "newOwner",
          "type": "address"
        }
      ],
      "name": "OwnershipTransferred",
      "type": "event"
    },
    {
      "inputs": [],
      "name": "ballkidzProjectId",
      "outputs": [
        {
          "internalType": "uint256",
          "name": "",
          "type": "uint256"
        }
      ],
      "stateMutability": "view",
      "type": "function"
    },
    {
      "inputs": [
        {
          "internalType": "uint256",
          "name": "_percent",
          "type": "uint256"
        }
      ],
      "name": "changeFee",
      "outputs": [],
      "stateMutability": "nonpayable",
      "type": "function"
    },
    {
      "inputs": [],
      "name": "claimProtocolProjectToken",
      "outputs": [],
      "stateMutability": "nonpayable",
      "type": "function"
    },
    {
      "inputs": [],
      "name": "controller",
      "outputs": [
        {
          "internalType": "contract IJBController3_1",
          "name": "",
          "type": "address"
        }
      ],
      "stateMutability": "view",
      "type": "function"
    },
    {
      "inputs": [
        {
          "internalType": "uint256",
          "name": "_gameId",
          "type": "uint256"
        }
      ],
      "name": "currentGamePhaseOf",
      "outputs": [
        {
          "internalType": "enum DefifaGamePhase",
          "name": "",
          "type": "uint8"
        }
      ],
      "stateMutability": "view",
      "type": "function"
    },
    {
      "inputs": [
        {
          "internalType": "uint256",
          "name": "_gameId",
          "type": "uint256"
        }
      ],
      "name": "currentGamePotOf",
      "outputs": [
        {
          "internalType": "uint256",
          "name": "",
          "type": "uint256"
        },
        {
          "internalType": "address",
          "name": "",
          "type": "address"
        },
        {
          "internalType": "uint256",
          "name": "",
          "type": "uint256"
        }
      ],
      "stateMutability": "view",
      "type": "function"
    },
    {
      "inputs": [],
      "name": "delegateCodeOrigin",
      "outputs": [
        {
          "internalType": "address",
          "name": "",
          "type": "address"
        }
      ],
      "stateMutability": "view",
      "type": "function"
    },
    {
      "inputs": [],
      "name": "delegatesRegistry",
      "outputs": [
        {
          "internalType": "contract IJBDelegatesRegistry",
          "name": "",
          "type": "address"
        }
      ],
      "stateMutability": "view",
      "type": "function"
    },
    {
      "inputs": [],
      "name": "feeDivisor",
      "outputs": [
        {
          "internalType": "uint256",
          "name": "",
          "type": "uint256"
        }
      ],
      "stateMutability": "view",
      "type": "function"
    },
    {
      "inputs": [
        {
          "internalType": "uint256",
          "name": "_gameId",
          "type": "uint256"
        }
      ],
      "name": "fulfillCommitmentsOf",
      "outputs": [],
      "stateMutability": "nonpayable",
      "type": "function"
    },
    {
      "inputs": [],
      "name": "governor",
      "outputs": [
        {
          "internalType": "contract IDefifaGovernor",
          "name": "",
          "type": "address"
        }
      ],
      "stateMutability": "view",
      "type": "function"
    },
    {
      "inputs": [
        {
          "internalType": "uint256",
          "name": "",
          "type": "uint256"
        }
      ],
      "name": "hasFulfilledCommitments",
      "outputs": [
        {
          "internalType": "bool",
          "name": "",
          "type": "bool"
        }
      ],
      "stateMutability": "view",
      "type": "function"
    },
    {
      "inputs": [
        {
          "components": [
            {
              "internalType": "string",
              "name": "name",
              "type": "string"
            },
            {
              "components": [
                {
                  "internalType": "string",
                  "name": "content",
                  "type": "string"
                },
                {
                  "internalType": "uint256",
                  "name": "domain",
                  "type": "uint256"
                }
              ],
              "internalType": "struct JBProjectMetadata",
              "name": "projectMetadata",
              "type": "tuple"
            },
            {
              "internalType": "string",
              "name": "contractUri",
              "type": "string"
            },
            {
              "internalType": "string",
              "name": "baseUri",
              "type": "string"
            },
            {
              "components": [
                {
                  "internalType": "string",
                  "name": "name",
                  "type": "string"
                },
                {
                  "internalType": "uint80",
                  "name": "price",
                  "type": "uint80"
                },
                {
                  "internalType": "uint16",
                  "name": "reservedRate",
                  "type": "uint16"
                },
                {
                  "internalType": "address",
                  "name": "reservedTokenBeneficiary",
                  "type": "address"
                },
                {
                  "internalType": "bytes32",
                  "name": "encodedIPFSUri",
                  "type": "bytes32"
                },
                {
                  "internalType": "bool",
                  "name": "shouldUseReservedTokenBeneficiaryAsDefault",
                  "type": "bool"
                }
              ],
              "internalType": "struct DefifaTierParams[]",
              "name": "tiers",
              "type": "tuple[]"
            },
            {
              "internalType": "address",
              "name": "token",
              "type": "address"
            },
            {
              "internalType": "uint24",
              "name": "mintPeriodDuration",
              "type": "uint24"
            },
            {
              "internalType": "uint24",
              "name": "refundPeriodDuration",
              "type": "uint24"
            },
            {
              "internalType": "uint48",
              "name": "start",
              "type": "uint48"
            },
            {
              "components": [
                {
                  "internalType": "bool",
                  "name": "preferClaimed",
                  "type": "bool"
                },
                {
                  "internalType": "bool",
                  "name": "preferAddToBalance",
                  "type": "bool"
                },
                {
                  "internalType": "uint256",
                  "name": "percent",
                  "type": "uint256"
                },
                {
                  "internalType": "uint256",
                  "name": "projectId",
                  "type": "uint256"
                },
                {
                  "internalType": "address payable",
                  "name": "beneficiary",
                  "type": "address"
                },
                {
                  "internalType": "uint256",
                  "name": "lockedUntil",
                  "type": "uint256"
                },
                {
                  "internalType": "contract IJBSplitAllocator",
                  "name": "allocator",
                  "type": "address"
                }
              ],
              "internalType": "struct JBSplit[]",
              "name": "splits",
              "type": "tuple[]"
            },
            {
              "internalType": "address payable",
              "name": "ballkidzFeeProjectTokenAccount",
              "type": "address"
            },
            {
              "internalType": "contract IJBSplitAllocator",
              "name": "ballkidzFeeProjectTokenAllocator",
              "type": "address"
            },
            {
              "internalType": "uint256",
              "name": "attestationStartTime",
              "type": "uint256"
            },
            {
              "internalType": "uint256",
              "name": "attestationGracePeriod",
              "type": "uint256"
            },
            {
              "internalType": "address",
              "name": "defaultAttestationDelegate",
              "type": "address"
            },
            {
              "internalType": "contract IJB721TokenUriResolver",
              "name": "defaultTokenUriResolver",
              "type": "address"
            },
            {
              "internalType": "contract IJBPaymentTerminal",
              "name": "terminal",
              "type": "address"
            },
            {
              "internalType": "contract IJBTiered721DelegateStore",
              "name": "store",
              "type": "address"
            }
          ],
          "internalType": "struct DefifaLaunchProjectData",
          "name": "_launchProjectData",
          "type": "tuple"
        }
      ],
      "name": "launchGameWith",
      "outputs": [
        {
          "internalType": "uint256",
          "name": "gameId",
          "type": "uint256"
        }
      ],
      "stateMutability": "nonpayable",
      "type": "function"
    },
    {
      "inputs": [
        {
          "internalType": "uint256",
          "name": "_gameId",
          "type": "uint256"
        }
      ],
      "name": "nextPhaseNeedsQueueing",
      "outputs": [
        {
          "internalType": "bool",
          "name": "",
          "type": "bool"
        }
      ],
      "stateMutability": "view",
      "type": "function"
    },
    {
      "inputs": [
        {
          "internalType": "address",
          "name": "",
          "type": "address"
        },
        {
          "internalType": "address",
          "name": "",
          "type": "address"
        },
        {
          "internalType": "uint256",
          "name": "",
          "type": "uint256"
        },
        {
          "internalType": "bytes",
          "name": "",
          "type": "bytes"
        }
      ],
      "name": "onERC721Received",
      "outputs": [
        {
          "internalType": "bytes4",
          "name": "",
          "type": "bytes4"
        }
      ],
      "stateMutability": "pure",
      "type": "function"
    },
    {
      "inputs": [],
      "name": "owner",
      "outputs": [
        {
          "internalType": "address",
          "name": "",
          "type": "address"
        }
      ],
      "stateMutability": "view",
      "type": "function"
    },
    {
      "inputs": [],
      "name": "protocolFeeProjectTokenAccount",
      "outputs": [
        {
          "internalType": "address",
          "name": "",
          "type": "address"
        }
      ],
      "stateMutability": "view",
      "type": "function"
    },
    {
      "inputs": [
        {
          "internalType": "uint256",
          "name": "_gameId",
          "type": "uint256"
        }
      ],
      "name": "queueNextPhaseOf",
      "outputs": [
        {
          "internalType": "uint256",
          "name": "configuration",
          "type": "uint256"
        }
      ],
      "stateMutability": "nonpayable",
      "type": "function"
    },
    {
      "inputs": [],
      "name": "renounceOwnership",
      "outputs": [],
      "stateMutability": "nonpayable",
      "type": "function"
    },
    {
      "inputs": [],
      "name": "splitGroup",
      "outputs": [
        {
          "internalType": "uint256",
          "name": "",
          "type": "uint256"
        }
      ],
      "stateMutability": "view",
      "type": "function"
    },
    {
      "inputs": [
        {
          "internalType": "uint256",
          "name": "_gameId",
          "type": "uint256"
        }
      ],
      "name": "timesFor",
      "outputs": [
        {
          "internalType": "uint48",
          "name": "",
          "type": "uint48"
        },
        {
          "internalType": "uint24",
          "name": "",
          "type": "uint24"
        },
        {
          "internalType": "uint24",
          "name": "",
          "type": "uint24"
        }
      ],
      "stateMutability": "view",
      "type": "function"
    },
    {
      "inputs": [
        {
          "internalType": "uint256",
          "name": "_gameId",
          "type": "uint256"
        }
      ],
      "name": "tokenOf",
      "outputs": [
        {
          "internalType": "address",
          "name": "",
          "type": "address"
        }
      ],
      "stateMutability": "view",
      "type": "function"
    },
    {
      "inputs": [],
      "name": "tokenUriResolver",
      "outputs": [
        {
          "internalType": "contract IJB721TokenUriResolver",
          "name": "",
          "type": "address"
        }
      ],
      "stateMutability": "view",
      "type": "function"
    },
    {
      "inputs": [
        {
          "internalType": "address",
          "name": "newOwner",
          "type": "address"
        }
      ],
      "name": "transferOwnership",
      "outputs": [],
      "stateMutability": "nonpayable",
      "type": "function"
    }
  ],
  "bytecode": {
    "object": "0x610180346200020457620059aa38819003601f8101601f191683016001600160401b03811184821017620002095783928291604052833961010092839181010312620002045762000050816200021f565b60208201516001600160a01b0391828216820362000204576040840151908382168203620002045760608501519484861686036200020457608081015194851685036200020457620000f692620000aa60a083016200021f565b94620000be60e060c085015194016200021f565b93620000ca3362000234565b601460045560c05260e052875261012095865261014093845261016094855260a0523060805262000234565b6040519261572e94856200027c863960805185818161063901528181610fd70152613e3d015260a051858181610f59015281816110c6015281816126720152613e10015260c0518581816111cf015261273e015260e0518581816102b40152611dd501525184818161197701526126b501525183818161014801528181610339015281816106d101528181610da301528181611049015281816112640152818161132e015281816118d20152818161237701528181612c1b01528181612f6201528181613db601528181613ebd0152614ee00152518281816104540152818161230f0152818161421f01528181614858015281816149e90152614abc0152518181816102f80152611a550152f35b600080fd5b634e487b7160e01b600052604160045260246000fd5b51906001600160a01b03821682036200020457565b600080546001600160a01b039283166001600160a01b03198216811783559216907f8be0079c531659141344cd1fd0a4f28419497f9722a3daafe3b4186f6b6457e09080a356fe608080604052600436101561001357600080fd5b600090813560e01c90816306b552b51461271f575080630715610a146126d95780630c340a24146126955780630d75b3aa1461265a578063150b7a02146125ce5780631c069dbb146125a75780633af76f34146123335780633f3090d9146122ef57806363bf482e146109aa5780636a1db1bf14610938578063715018a6146108c657806381312a141461068b578063850976b21461065c578063859bb4b2146106215780638da5cb5b146105fb5780639a36f932146105dd578063b07925d314610563578063b6674cde14610543578063ca449a251461031c578063d574ff04146102d8578063e131fc0c14610294578063ea78803f14610261578063f2fde38b1461016f5763f77c47911461012957600080fd5b3461016c578060031936011261016c5760206040516001600160a01b037f0000000000000000000000000000000000000000000000000000000000000000168152f35b80fd5b503461016c57602060031936011261016c57610189612762565b61019161516d565b6001600160a01b038091169081156101f757600054827fffffffffffffffffffffffff0000000000000000000000000000000000000000821617600055167f8be0079c531659141344cd1fd0a4f28419497f9722a3daafe3b4186f6b6457e0600080a380f35b608460405162461bcd60e51b815260206004820152602660248201527f4f776e61626c653a206e6577206f776e657220697320746865207a65726f206160448201527f64647265737300000000000000000000000000000000000000000000000000006064820152fd5b503461016c57602060031936011261016c576001600160a01b036040602092600435815260018452205416604051908152f35b503461016c578060031936011261016c5760206040516001600160a01b037f0000000000000000000000000000000000000000000000000000000000000000168152f35b503461016c578060031936011261016c5760206040516001600160a01b037f0000000000000000000000000000000000000000000000000000000000000000168152f35b503461016c578060031936011261016c57806001600160a01b03807f000000000000000000000000000000000000000000000000000000000000000016906040517f6193063000000000000000000000000000000000000000000000000000000000928382526020918281600481855afa9081156105385783918591889161051b575b50169460046040518094819382525afa9081156104e3578391839187916104ee575b506044604051809481937f5287af3700000000000000000000000000000000000000000000000000000000835230600484015260016024840152165afa9182156104e35785926104ad575b5050823b156104a857608484928360405195869485937fac689bcd000000000000000000000000000000000000000000000000000000008552306004860152600160248601527f000000000000000000000000000000000000000000000000000000000000000016604485015260648401525af1801561049d5761048d5750f35b6104969061282f565b61016c5780f35b6040513d84823e3d90fd5b505050fd5b8195508092503d83116104dc575b6104c58183612898565b810103126104d757839251388061040c565b600080fd5b503d6104bb565b6040513d87823e3d90fd5b61050e9150823d8411610514575b6105068183612898565b810190612953565b386103c1565b503d6104fc565b6105329150833d8511610514576105068183612898565b3861039f565b6040513d88823e3d90fd5b503461016c57602060031936011261016c57610560600435613d2c565b80f35b503461016c57602060031936011261016c5760406060916004358152600160205220816040519161059383612813565b546001600160a01b038116835265ffffffffffff8160a01c169283602082015262ffffff8260d01c169182604083015260e81c928391015260405192835260208301526040820152f35b503461016c578060031936011261016c576020600454604051908152f35b503461016c578060031936011261016c576001600160a01b036020915416604051908152f35b503461016c578060031936011261016c5760206040517f00000000000000000000000000000000000000000000000000000000000000008152f35b503461016c57602060031936011261016c5760ff60406020926004358152600584522054166040519015158152f35b503461016c576020908160031936011261016c576040517f557e715500000000000000000000000000000000000000000000000000000000808252916001600160a01b037f0000000000000000000000000000000000000000000000000000000000000000811660048035908790869081855afa9485156108bb57849561089a575b5082939495604051967f43a266c200000000000000000000000000000000000000000000000000000000885282600489015287602481610120988994165afa96871561053857908891879861085a575b5060046040518095819382525afa9182156104e357908492918692610838575b5060249060405194859384927f5c5500780000000000000000000000000000000000000000000000000000000084526004840152165afa92831561082c5780936107f0575b505050826080830151151592836107df575b506040518315158152f35b8101519101511490503882816107d4565b90918093503d8411610825575b6108078184612898565b8201928284031261016c57509061081d91612972565b3880806107c2565b503d6107fd565b604051903d90823e3d90fd5b602491925061085390893d8b11610514576105068183612898565b919061077d565b91509650843d8611610893575b6108718183612898565b810190858183031261088f57889161088891612972565b963861075d565b8680fd5b503d610867565b839495506108b490883d8a11610514576105068183612898565b949361070d565b6040513d86823e3d90fd5b503461016c578060031936011261016c576108df61516d565b60006001600160a01b0381547fffffffffffffffffffffffff000000000000000000000000000000000000000081168355167f8be0079c531659141344cd1fd0a4f28419497f9722a3daafe3b4186f6b6457e08280a380f35b503461016c57602060031936011261016c5760043561095561516d565b600a811161098057801561096c5760640460045580f35b602482634e487b7160e01b81526012600452fd5b60046040517f42c9b523000000000000000000000000000000000000000000000000000000008152fd5b503461016c57602060031936011261016c5767ffffffffffffffff6004351161016c576102406003196004353603011261016c576040516109ea8161278c565b6004356004013567ffffffffffffffff8111611b4357610a119060043691813501016128d7565b81526024600435013567ffffffffffffffff8111611b43576004350160406003198236030112611b435760405190610a48826127bf565b60048101359067ffffffffffffffff8211611b3f57610a6f602492600436918401016128d7565b83520135602082015260208201526044600435013567ffffffffffffffff8111611b4357610aa49060043691813501016128d7565b60408201526064600435013567ffffffffffffffff8111611b4357610ad09060043691813501016128d7565b60608201526084600435013567ffffffffffffffff8111611b43573660238260043501011215611b4357610b0a600482813501013561291e565b90610b186040519283612898565b600480358201908101358084526020840192913660059290921b0160240111611b3f576024816004350101915b6004803583019081013560051b0160240183106121d0575050506080820152610b7260a460043501612778565b60a0820152610b8560c460043501612943565b60c0820152610b9860e460043501612943565b60e0820152610104600435013565ffffffffffff81168103611b4357610100820152610124600435013567ffffffffffffffff8111611b43573660238260043501011215611b4357610bf0600482813501013561291e565b90610bfe6040519283612898565b600480358201908101358084526020840192913660e09092020160240111611b3f576024816004350101915b6004803583019081013560e00201602401831061214c57505050610120820152610c5961014460043501612778565b610140820152610c6e61016460043501612778565b6101608201526004356101848101356101808301526101a48101356101a0830152610c9c906101c401612778565b6101c08201526004356101e401356001600160a01b0381169003611f91576004356101e48101356101e083015261020401356001600160a01b0381169003611f915760043561020481013561020083015261022401356001600160a01b0381169003611f9157600435610224013561022082015261010081015165ffffffffffff16806120e0575065ffffffffffff610d4f62ffffff610d428160c08601511642612db5565b9060e08501511690612db5565b166101008201525b62ffffff60c0820151161580156120a5575b61207b576040517f8b79543c0000000000000000000000000000000000000000000000000000000081526020816004816001600160a01b037f0000000000000000000000000000000000000000000000000000000000000000165afa908115611d9b578391612036575b509060206001600160a01b03926004604051809581937f06661abd000000000000000000000000000000000000000000000000000000008352165afa918215611d9b578392612002575b50600182018211611fee576001600160a01b0360a08201511662ffffff60c08301511662ffffff60e08401511665ffffffffffff610100850151169160405193610e6685612813565b845260208401928352604084019081526060840191825260018601875260016020527fffffff00000000000000000000000000000000000000000000000000000000007cffffff000000000000000000000000000000000000000000000000000079ffffffffffff00000000000000000000000000000000000000006001600160a01b0360408b20975116955160a01b16925160d01b16925160e81b169217171790556004548015611fda57610fa6906001600160a01b03610140840151166001600160a01b03610160850151169060405192610f42846127f7565b60018452876020850152633b9aca000460408401527f0000000000000000000000000000000000000000000000000000000000000000606084015260808301528560a083015260c0820152610120830151805191610fa08383612e08565b52612e08565b50604051610fb3816127bf565b60018152835b60208110611fb6575061012082015160405190610fd5826127bf565b7f00000000000000000000000000000000000000000000000000000000000000008252602082015261100682612de5565b5261101081612de5565b5083604051917f2bdfe0040000000000000000000000000000000000000000000000000000000083526020836004816001600160a01b037f0000000000000000000000000000000000000000000000000000000000000000165afa92831561049d578293611f95575b506001600160a01b0383163b15611f91576001600160a01b039261110491836040519586809581947ff2da44b60000000000000000000000000000000000000000000000000000000083527f0000000000000000000000000000000000000000000000000000000000000000600484015260018c016024840152606060448401526064830190612e1c565b0393165af180156108bb57611f7e575b506080810151516111248161291e565b906111326040519283612898565b80825261113e8161291e565b855b601f1982018110611f1d575050608083015151906111766111608361291e565b9261116e6040519485612898565b80845261291e565b865b601f1982018110611f075750508560a0604051611194816127db565b606081528260208201528260408201528260608201528260808201520152855b818110611e3e5750506e5af43d82803e903d91602b57fd5bf37f0000000000000000000000000000000000000000000000000000000000000000763d602d80600a3d3981f3363d3d373d3d3d363d7300000062ffffff8260881c1617875260781b176020526001600160a01b036037600987f016918215611dfa576101e08401516001600160a01b03168015611dd257915b604051916331070bc960e21b83526020836004816001600160a01b037f0000000000000000000000000000000000000000000000000000000000000000165afa928315611dc7578893611da6575b508551886112a460018a016154df565b6112f7602760405180937f444546494641200000000000000000000000000000000000000000000000000060208301526112e78151809260208686019101612f0e565b8101036007810184520182612898565b604051907f557e71550000000000000000000000000000000000000000000000000000000082526020826004816001600160a01b037f0000000000000000000000000000000000000000000000000000000000000000165afa8015611d9b578a928491611d7c575b5060608301519060408401519260206001600160a01b0360a0816102008901511697015116602460405180988193631982d67960e01b835260048301525afa948515610538578d9695611d45575b506001600160a01b036101c0816102208901511697015116968c3b15611d4157908f9a918f9a99989796959493926040519b7f3900c6f9000000000000000000000000000000000000000000000000000000008d5260010160048d01526001600160a01b031660248c015260448b016101e090526101e48b0161142f91612f31565b8a81036003190160648c015261144491612f31565b906001600160a01b031660848a01528881036003190160a48a015261146891612f31565b6001600160a01b038a1660c48901528781036003190160e489015261148c91612f31565b868103600319016101048801528451908181526020019460200190885b818110611c7f5750505065ffffffffffff1661012486015261014485015230610164850152306101848501526101a4840152600319838203016101c4840152815180825260208201916020808360051b83010194019286915b838310611c4c57505050505081808492038183885af1801561049d57611c38575b50506103e06024604051611536816127bf565b60018152602036818301376001600160a01b036102008701511661155982612de5565b52611862602087015161184f62ffffff60c08a015116916040519261157d84612813565b83528b60208401528b60408401528b606084015260405161159d81612860565b8c81528c60208201528c60408201526115cb8d604051906115bd826127bf565b815260016020820152615148565b604051916115d88361278c565b82528d602083015261271080604084015260608301528d60808301528d60a08301528d60c08301528d60e08301528d6101008301528d6101208301528d6101408301528d6101608301528d6101808301528d6101a083015260016101c083015260016101e08301528a61020083015261022082015265ffffffffffff6116808c62ffffff60e061167685610100850151168360c08601511690614e0a565b9201511690614e0a565b611836604051936116908561287c565b6000855261172d604051986116a48a61287c565b60008a526040519d8e9d8e7fb3c5267300000000000000000000000000000000000000000000000000000000815230600482015201528c61040460206116f88b5160406103e4860152610424850190612f31565b9a0151910152805160448e0152602081015160648e0152604081015160848e0152606001516001600160a01b031660a48d0152565b80518051151560c48d0152602080820151151560e48e015260409182015115156101048e01528201516101248d01528101516101448c015260608101516101648c0152608081015115156101848c015260a081015115156101a48c015260c081015115156101c48c015260e081015115156101e48c015261010081015115156102048c015261012081015115156102248c015261014081015115156102448c015261016081015115156102648c015261018081015115156102848c01526101a081015115156102a48c01526101c081015115156102c48c01526101e081015115156102e48c01526102008101516001600160a01b03166103048c015261022001516103248b0152565b1661034488015260031987830301610364880152612e1c565b9060031985830301610384860152614e22565b600319838203016103a484015260208083519283815201920190895b818110611c1657505050906040827f446566696661206d696e742070686173652e00000000000000000000000000006020848196039260031984016103c48701526012815201520181896001600160a01b037f0000000000000000000000000000000000000000000000000000000000000000165af1801561053857611beb575b5061020083015160a08401516040517fdf21a7dd0000000000000000000000000000000000000000000000000000000081526001600160a01b0391821660048201526001870160248201529160209183916044918391165afa908115610538578691611bad575b5015611b8357846001600160a01b037f000000000000000000000000000000000000000000000000000000000000000016936101a061018082015191015190853b15611b43576040517fc543882f00000000000000000000000000000000000000000000000000000000815260018801600482015260248101919091526044810191909152818160648183895af1801561049d57611b6f575b5050813b15611b3f57846040517ff2fde38b000000000000000000000000000000000000000000000000000000008152846004820152818160248183885af1801561049d57611b5b575b50506001600160a01b037f0000000000000000000000000000000000000000000000000000000000000000166002546000198114611b475790600187920180600255813b15611b43576040517f5bcfd212000000000000000000000000000000000000000000000000000000008152306004820152602481019190915291908290604490829084905af1801561053857611b2b575b50602094506001600160a01b036040519116815233858201527f3082991f3dda023098e5849ea3903c6fbfd657dc6f9232f5eb81ad8a7ba161d660406001860192a4600160405191018152f35b611b35869161282f565b611b3f5784611ade565b8480fd5b8280fd5b602487634e487b7160e01b81526011600452fd5b611b649061282f565b611b3f578438611a49565b611b789061282f565b611b3f5784386119ff565b60046040517f3727b396000000000000000000000000000000000000000000000000000000008152fd5b90506020813d602011611be3575b81611bc860209383612898565b81010312611bdf57611bd990612a05565b38611966565b8580fd5b3d9150611bbb565b602090813d8311611c0f575b611c018183612898565b810103126104d757386118ff565b503d611bf7565b82516001600160a01b031684528594506020938401939092019160010161187e565b611c419061282f565b611b3f578438611523565b91939596509193602080611c6c83601f1986600196030187528951612f31565b97019301930190928b9695949293611502565b91969798509192939460206101606001926101408a516cffffffffffffffffffffffffff815116835263ffffffff80868301511686850152604082015116604084015261ffff60608201511660608401526001600160a01b03608082015116608084015260a081015160a084015262ffffff60c08201511660c084015260e0810151151560e084015261010081015115156101008401526101208101511515610120840152015115156101408201520197019101918d989796959493926114a9565b8f80fd5b955093506020853d602011611d74575b81611d6260209383612898565b810103126104d7578b945193386113ad565b3d9150611d55565b611d95915060203d602011610514576105068183612898565b3861135f565b6040513d85823e3d90fd5b611dc091935060203d602011610514576105068183612898565b9138611294565b6040513d8a823e3d90fd5b507f000000000000000000000000000000000000000000000000000000000000000091611246565b606460405162461bcd60e51b815260206004820152601660248201527f455243313136373a20637265617465206661696c6564000000000000000000006044820152fd5b80611e4f6001926080880151612e08565b5169ffffffffffffffffffff60208201511661ffff6040830151166001600160a01b0360608401511660808401519060a085015115159260405194611e9386612843565b8552633b9ac9ff60208601528760408601526060850152608084015260a08301528a60c08301528a60e08301526101008201528961012082015283610140820152611ede8388612e08565b52611ee98287612e08565b5051611ef58286612e08565b52611f008185612e08565b50016111b4565b602081606082601f199488010152019050611178565b6020601f1991604051611f2f81612843565b89815289838201528960408201528960608201528960808201528960a08201528960c08201528960e0820152896101008201528961012082015289610140820152828288010152019050611140565b611f8a9093919361282f565b9138611114565b5080fd5b611faf91935060203d602011610514576105068183612898565b9138611079565b602090604051611fc5816127bf565b86815260608382015282828501015201610fb9565b602484634e487b7160e01b81526012600452fd5b602483634e487b7160e01b81526011600452fd5b9091506020813d60201161202e575b8161201e60209383612898565b81010312611b4357519038610e1d565b3d9150612011565b90506020813d602011612073575b8161205160209383612898565b81010312611b435751906001600160a01b0382168203611b4357906020610dd3565b3d9150612044565b60046040517f74f88142000000000000000000000000000000000000000000000000000000008152fd5b5065ffffffffffff610100820151166120da6120ca62ffffff60e08501511642612db5565b62ffffff60c08501511690612db5565b11610d69565b62ffffff908160c084015116159081612133575b50612100575b50610d57565b61212765ffffffffffff610100840151166121218360e08601511642612db5565b90612dd8565b1660c0820152386120fa565b90506121458260e08501511642612db5565b10386120f4565b60e083360312611bdf5760e06020602492604051612169816127f7565b61217287612936565b815261217f838801612936565b8382015260408701356040820152606087013560608201526121a360808801612778565b608082015260a087013560a08201526121be60c08801612778565b60c08201528152019301929050610c2a565b823567ffffffffffffffff811161088f5760c07fffffffffffffffffffffffffffffffffffffffffffffffffffffffffffffffdc828560043501013603011261088f5760405191612220836127db565b602482856004350101013567ffffffffffffffff81116122eb5761225090602436918588600435010101016128d7565b8352600435840182016044013569ffffffffffffffffffff811690036122e75760043584018201604481013560208501526064013561ffff811690036122e7576020926122d760c48460648796896004350101013560408501526122bc6084828a600435010101612778565b606085015260043588010160a4810135608085015201612936565b60a0820152815201920191610b45565b8780fd5b8880fd5b503461016c578060031936011261016c5760206040516001600160a01b037f0000000000000000000000000000000000000000000000000000000000000000168152f35b503461016c57602080600319360112611f915760043590818352600181526001600160a01b039081604085205416906040516331070bc960e21b81528181600481877f0000000000000000000000000000000000000000000000000000000000000000165afa90811561053857869161258a575b50604051630862026560e41b8152600481018690526001600160a01b03841660248201529082908290604490829088165afa8015610538578491879161256d575b5016936040517f975057e70000000000000000000000000000000000000000000000000000000081528281600481895afa8015612562578392612479928992612543575b506040519687809481937fd49031c00000000000000000000000000000000000000000000000000000000083528b60048401602090939291936001600160a01b0360408201951681520152565b0392165afa9283156104e3578593612514575b508060049394604051948580927f313ce5670000000000000000000000000000000000000000000000000000000082525afa9283156104e35785936124e1575b50606094506040519384528301526040820152f35b9080935081813d831161250d575b6124f98183612898565b81010312611b3f57606094505191386124cc565b503d6124ef565b92508083813d831161253c575b61252b8183612898565b81010312611b3f579151918061248c565b503d612521565b61255b919250843d8611610514576105068183612898565b903861242c565b6040513d89823e3d90fd5b6125849150833d8511610514576105068183612898565b386123e8565b6125a19150823d8411610514576105068183612898565b386123a7565b503461016c57602060031936011261016c5760206125c6600435612f56565b604051908152f35b503461016c57608060031936011261016c576125e8612762565b506024356001600160a01b0381160361016c5760643567ffffffffffffffff808211611b435736602383011215611b43578160040135908111611b43573691016024011161016c5760206040517f150b7a02000000000000000000000000000000000000000000000000000000008152f35b503461016c578060031936011261016c5760206040517f00000000000000000000000000000000000000000000000000000000000000008152f35b503461016c578060031936011261016c5760206040516001600160a01b037f0000000000000000000000000000000000000000000000000000000000000000168152f35b503461016c57602060031936011261016c576126f6600435612bd9565b60405190600781101561270b57602092508152f35b602483634e487b7160e01b81526021600452fd5b905034611f915781600319360112611f91576020906001600160a01b037f0000000000000000000000000000000000000000000000000000000000000000168152f35b600435906001600160a01b03821682036104d757565b35906001600160a01b03821682036104d757565b610240810190811067ffffffffffffffff8211176127a957604052565b634e487b7160e01b600052604160045260246000fd5b6040810190811067ffffffffffffffff8211176127a957604052565b60c0810190811067ffffffffffffffff8211176127a957604052565b60e0810190811067ffffffffffffffff8211176127a957604052565b6080810190811067ffffffffffffffff8211176127a957604052565b67ffffffffffffffff81116127a957604052565b610160810190811067ffffffffffffffff8211176127a957604052565b6060810190811067ffffffffffffffff8211176127a957604052565b6020810190811067ffffffffffffffff8211176127a957604052565b90601f601f19910116810190811067ffffffffffffffff8211176127a957604052565b67ffffffffffffffff81116127a957601f01601f191660200190565b81601f820112156104d7578035906128ee826128bb565b926128fc6040519485612898565b828452602083830101116104d757816000926020809301838601378301015290565b67ffffffffffffffff81116127a95760051b60200190565b359081151582036104d757565b359062ffffff821682036104d757565b908160209103126104d757516001600160a01b03811681036104d75790565b80929161012091829103126104d75760405190810181811067ffffffffffffffff8211176127a9576040528092805182526020810151602083015260408101516040830152606081015160608301526080810151608083015260a081015160a083015260c081015160c083015260e08101516001600160a01b03811681036104d75760e083015261010080910151910152565b519081151582036104d757565b80820392916103a084126104d757612a4b7ffffffffffffffffffffffffffffffffffffffffffffffffffffffffffffffee09183612972565b9301906102808083126104d757606060405193612a678561278c565b126104d757612b1891604051612a7c81612860565b61012090612a8b828401612a05565b815261014090612a9c828501612a05565b602082015261016090612ab0828601612a05565b604082015287526101808085015160208901526101a0918286015160408a01526101c0938487015160608b01526101e095612aec878901612a05565b60808c0152612b49610200998c60a0612b068d8d01612a05565b9101528c60c06102209d8e8d01612a05565b9101528c60e0612b2b6102408d01612a05565b9101528c610100612b3f6102608d01612a05565b9101528901612a05565b908b0152612b5a6102a08801612a05565b908a0152612b6b6102c08701612a05565b90890152612b7c6102e08601612a05565b90880152612b8d6103008501612a05565b90870152612b9e6103208401612a05565b90860152612baf6103408301612a05565b908501526103608101516001600160a01b03811681036104d7576103809285015201519082015290565b604080517f8776c4990000000000000000000000000000000000000000000000000000000081528260048201526103a0906001600160a01b03938282602481887f0000000000000000000000000000000000000000000000000000000000000000165afa918215612daa576000938493612d76575b505082518015612d6b57600114612d6157806000526020926003845260ff856000205416612d5657612c808183614e96565b612d4b57516002149081612d32575b50612d295760049361020083920151168351948580927fa8c15f4a0000000000000000000000000000000000000000000000000000000082525afa918215612d1f5750600091612ceb575b509050612ce657600390565b600490565b82813d8311612d18575b612cff8183612898565b8101031261016c5750612d1190612a05565b8038612cda565b503d612cf5565b513d6000823e3d90fd5b50505050600290565b905060005260018252826000205460e81c151538612c8f565b505050505050600590565b505050505050600690565b5050505050600190565b505050505050600090565b8091929450612d9a9350903d10612da3575b612d928183612898565b810190612a12565b90913880612c4e565b503d612d88565b84513d6000823e3d90fd5b91908201809211612dc257565b634e487b7160e01b600052601160045260246000fd5b91908203918211612dc257565b805115612df25760200190565b634e487b7160e01b600052603260045260246000fd5b8051821015612df25760209160051b010190565b908082519081815260208091019281808460051b830101950193600080925b858410612e4c575050505050505090565b9091929387601f19838398999a0301855288518260606040938285820194805183520151948382015284518094520192019085905b808210612ea1575050509080600192990194019401929594939190612e3b565b919360e084612f0060019496885160c0908051151583526020810151151560208401526040810151604084015260608101516060840152816001600160a01b039182608082015116608086015260a081015160a0860152015116910152565b019401920188939291612e81565b60005b838110612f215750506000910152565b8181015183820152602001612f11565b90601f19601f602093612f4f81518092818752878088019101612f0e565b0116010190565b6001600160a01b0390817f0000000000000000000000000000000000000000000000000000000000000000166040918251917f8776c499000000000000000000000000000000000000000000000000000000008352600482818501526103a09560249680868981875afa908115613ccb576000968792613ca9575b50856000526020966003885260ff8960002054168015613c9d575b613c755787878a612ffd8483614e96565b61393257915050517f12b37b14000000000000000000000000000000000000000000000000000000008152878682015282818c818a5afa90811561392757600091613909575b508880830151910151036138e157918796959493918993600180915114806138ca575b156133c2579088929184610200809401511689600052818552866000209587519661309088612813565b5490811687528060a01c65ffffffffffff16868801528060d01c62ffffff168888015260e81c6060819701528651956130c887612813565b8652600085870181905287870181905260608701528651936130e985612860565b6000808652868601819052888601528751613103816127bf565b60008152838782015261311590615148565b928851956131228761278c565b865286860160009052612710808a880152606087015280608087015260a086016000905260c086016000905260e08601600090526101008601600090526101208601600090526101408601600090526101608601600090526101808601600090526101a0860160009052806101c08701526101e08601528401526102208301528451916131ae8361287c565b600083528551946131be8661287c565b6000865286519d8e9a8b9963175b7be560e31b8b528a01528801613208916001600160a01b0360608092805185526020810151602086015260408101516040860152015116910152565b80518051151560a4890152602080820151151560c48a0152604091820151151560e48a015282015161010489015281015161012488015260608101516101448801526080810151151561016488015260a0810151151561018488015260c081015115156101a488015260e081015115156101c488015261010081015115156101e488015261012081015115156102048801526101408101511515610224880152610160810151151561024488015261018081015115156102648801526101a081015115156102848801526101c081015115156102a48801526101e081015115156102c48801526102008101516001600160a01b03166102e488015261022001516103048701526103248601600090526103448601526103a4850161332b91612e1c565b9160031992838682030161036487015261334491614e22565b84810392830161038486015260148152017f44656669666120726566756e642070686173652e000000000000000000000000905201915a90600091f1918215612d1f5750600091613396575b50905090565b82813d83116133bb575b6133aa8183612898565b8101031261016c5750518038613390565b503d6133a0565b9192949596975092508361020080930151169387600052818952808a6000205416908a516331070bc960e21b81528a8189818c5afa9081156138a0578383928c8f958f946134499c9b9a9998978e916000956138ab575b50519c8d9586948593630862026560e41b855284019092916001600160a01b036020916040840195845216910152565b0392165afa9687156138a057600097613881575b508c908c978c89519961346f8b6127bf565b868b526000905b82821061383b5750505016918b8d518093631982d67960e01b8252838c83015281865afa91821561383057918d979593918d9c9b9a999795936000926137e5575b50908c9695949392918951926134cc846127db565b835287830152600089830181905260608301527cffffffffffffffffffffffffffffffffffffffffffffffffffffffffff608083015260a082015261351087612de5565b5261351a86612de5565b5086519361352785612813565b6000808652868601819052888601819052606086015287519261354984612860565b6000808552878501819052898501528851613563816127bf565b60008082528882015261357590615148565b928951946135828661278c565b855287850160009052612710808b870152606086015280608086015260a085016000905260c085016000905260e08501600090526101008501600090526101208501600090526101408501600090526101608501600090526101808501600090526101a0850160009052806101c08601526101e085015283015261022082015285519261360e8461287c565b6000845286519d8e9a8b9963175b7be560e31b8b528a01528801613658916001600160a01b0360608092805185526020810151602086015260408101516040860152015116910152565b80518051151560a4890152602080820151151560c48a0152604091820151151560e48a015282015161010489015281015161012488015260608101516101448801526080810151151561016488015260a0810151151561018488015260c081015115156101a488015260e081015115156101c488015261010081015115156101e488015261012081015115156102048801526101408101511515610224880152610160810151151561024488015261018081015115156102648801526101a081015115156102848801526101c081015115156102a48801526101e081015115156102c48801526102008101516001600160a01b03166102e488015261022001516103048701526103248601600090526103448601526103a4850161377b91612e1c565b9160031992838682030161036487015261379491614e22565b84810392830161038486015260158152017f4465666966612073636f72696e672070686173652e0000000000000000000000905201915a90600091f1918215612d1f57506000916133965750905090565b8093959799508d919496989a9b9c9d3d8311613829575b6138068183612898565b8101031261016c5750928b9a99989795928b95928e9895519192939495966134b7565b503d6137fc565b8d513d6000823e3d90fd5b909192939450600081519161384f836127db565b81835281858401528201526000606082015260006080820152600060a082015282828c01015201908c8f93928f613476565b6138999197508b3d8d11610514576105068183612898565b953861345d565b8c513d6000823e3d90fd5b6138c3919550873d8911610514576105068183612898565b9338613419565b5087600052808952846000205460e81c1515613066565b8489517f11f43385000000000000000000000000000000000000000000000000000000008152fd5b6139209150833d8511612da357612d928183612898565b5038613043565b8a513d6000823e3d90fd5b93909694925081979561020080940151169084519361395085612813565b6000808652848601819052868601819052606086015285519261397284612860565b600080855285850181905287850152865161398c816127bf565b6000815260018682015261399f90615148565b918751946139ac8661278c565b85528585016000905261271080898701526060860152608085016001905260a085016000905260c085016000905260e08501600090526101008501600090526101208501600090526101408501600090526101608501600090526101808501600090526101a08501600090526101c08501600190526101e0850160019052840152610220830152845191613a3f8361287c565b60008352855194613a4f8661287c565b6000865286519e8f9a8b9963175b7be560e31b8b528a01528801613a99916001600160a01b0360608092805185526020810151602086015260408101516040860152015116910152565b80518051151560a4890152602080820151151560c48a0152604091820151151560e48a015282015161010489015281015161012488015260608101516101448801526080810151151561016488015260a0810151151561018488015260c081015115156101a488015260e081015115156101c488015261010081015115156101e488015261012081015115156102048801526101408101511515610224880152610160810151151561024488015261018081015115156102648801526101a081015115156102848801526101c081015115156102a48801526101e081015115156102c48801526102008101516001600160a01b03166102e488015261022001516103048701526103248601600090526103448601526103a48501613bbc91612e1c565b91600319928386820301610364870152613bd591614e22565b84810392830161038486015260128152017f446566696661206e6f20636f6e746573742e0000000000000000000000000000905201915a90600091f1938415613c6a57600094613c3a575b509060039160005252600020600160ff1982541617905590565b90938282813d8311613c63575b613c518183612898565b8101031261016c575051926003613c20565b503d613c47565b83513d6000823e3d90fd5b8489517fdc7a2515000000000000000000000000000000000000000000000000000000008152fd5b50608081015115612fec565b90809750613cc392503d8811612da357612d928183612898565b909538612fd1565b87513d6000823e3d90fd5b90613d2a603960405180947f5061796f75742066726f6d204465666966612067616d652023000000000000006020830152613d1a8151809260208686019101612f0e565b8101036019810185520183612898565b565b9081600052600560205260ff60406000205416614e0657613d4c82612bd9565b6007811015614df05760038114159081614de4575b50614dba578160005260056020526040600020600160ff19825416179055604051907f2bdfe0040000000000000000000000000000000000000000000000000000000082526020826004816001600160a01b037f0000000000000000000000000000000000000000000000000000000000000000165afa91821561442057600092614d99575b506040517f69e11cc50000000000000000000000000000000000000000000000000000000081527f00000000000000000000000000000000000000000000000000000000000000006004820152602481018490527f0000000000000000000000000000000000000000000000000000000000000000604482015291600090839060649082906001600160a01b03165afa91821561442057600092614c69575b508260005260016020526001600160a01b0360406000205416604051916331070bc960e21b83526020836004816001600160a01b037f0000000000000000000000000000000000000000000000000000000000000000165afa92831561442057600093614c48575b50604051630862026560e41b8152600481018690526001600160a01b038316602482015294602086806044810103816001600160a01b0388165afa95861561442057600096614c27575b50604051957f975057e70000000000000000000000000000000000000000000000000000000087526020876004816001600160a01b0385165afa96871561442057600097614c06575b506040517fd49031c00000000000000000000000000000000000000000000000000000000081526001600160a01b03828116600483015260248201849052909760209189916044918391165afa96871561442057600097614bd2575b50604051957f313ce5670000000000000000000000000000000000000000000000000000000087526020876004816001600160a01b0386165afa96871561442057600097614b9e575b50604051631982d67960e01b81528560048201526020816024816001600160a01b0387165afa90811561442057600091614b6c575b50602089614068866154df565b926140ba603660405180967f536574746c696e67204465666966612067616d65202300000000000000000000878301526140aa81518092898686019101612f0e565b8101036016810187520185612898565b6141426040516140c98161287c565b6000815261413060405196879586957fa02f801c0000000000000000000000000000000000000000000000000000000087528c600488015281602488015260448701528d606487015260848601523060a486015261010060c4860152610104850190612f31565b906003198483030160e4850152612f31565b038160006001600160a01b0388165af190811561442057600091614b3a575b509360005b8251811015614ae0576141798184612e08565b5161418860408201518c615653565b80614253575b610140600193927ff44ffe151def7bd57d653ffdd625b5cfff3e6992ad5b8eb1f021cdaca659954492614210604051809360c0908051151583526020810151151560208401526040810151604084015260608101516060840152816001600160a01b039182608082015116608086015260a081015160a0860152015116910152565b60e08201526001600160a01b037f00000000000000000000000000000000000000000000000000000000000000001661010082015233610120820152a101614166565b60c082015190979291906001600160a01b031615614485576040519263b7bad1b160e01b84528960048501526020846024816001600160a01b038b165afa93841561442057600094614451575b50604051936142ae856127db565b8a85528960208601526040850152876060850152600060808501528160a085015261eeee8a03614434575b61eeee8a0361442c5788935b6001600160a01b0360c08401511694853b156104d75761018460009260a0926143c398604051998a9586947f9d740bfa0000000000000000000000000000000000000000000000000000000086526001600160a01b03815116600487015260208101516024870152604081015160448701526060810151606487015260808101516084870152015160a485019060c0908051151583526020810151151560208401526040810151604084015260608101516060840152816001600160a01b039182608082015116608086015260a081015160a0860152015116910152565b5af1918215614420576144058a610140936001977ff44ffe151def7bd57d653ffdd625b5cfff3e6992ad5b8eb1f021cdaca659954496614411575b505b612dd8565b9992509293505061418e565b61441a9061282f565b386143fe565b6040513d6000823e3d90fd5b6000936142e5565b61444c896001600160a01b0360c0850151168c6151c5565b6142d9565b9093506020813d60201161447d575b8161446d60209383612898565b810103126104d7575192386142a0565b3d9150614460565b606081018051919391156148b45760208401511561457657519060405163b7bad1b160e01b81528a60048201526020816024816001600160a01b038c165afa928315614420578a938c8b8f94600093614536575b50600198946144059488947ff44ffe151def7bd57d653ffdd625b5cfff3e6992ad5b8eb1f021cdaca659954499610140999561451f61451a614400976154df565b613cd6565b936040519561452d8761287c565b60008752614f51565b98945050505092506020853d60201161456e575b8161455760209383612898565b810103126104d757935189928c918c8b60016144d9565b3d915061454a565b9290925160405163b7bad1b160e01b81528a60048201526020816024816001600160a01b038c165afa918215614420578b9160009361487d575b5060808401516001600160a01b03168d8b821561484c576001600160a01b0392955b602061462c6145e761451a8b511515956154df565b94604051986145f58a61287c565b60008a52604051978880948193630862026560e41b83528c600484019092916001600160a01b036020916040840195845216910152565b0392165afa9384156144205760009461482b575b506001600160a01b03841615614801578f6040519063b7bad1b160e01b825260048201526020816024816001600160a01b0389165afa908115614420576000916147cf575b50036147a5576001600160a01b038f948f936020976141306147199261eeee8a03614793575b61eeee8a0361478b5787965b866040519d8e9c8d9b8c997f1ebc263f000000000000000000000000000000000000000000000000000000008b5260048b015260248a015260448901521660648701526000608487015260a486015261010060c4860152610104850190612f31565b0393165af190811561442057899161475e575b507ff44ffe151def7bd57d653ffdd625b5cfff3e6992ad5b8eb1f021cdaca65995449161440561014092600196612dd8565b60208092503d8311614784575b6147758183612898565b810103126104d757873861472c565b503d61476b565b6000966146b7565b6147a088878b168c6151c5565b6146ab565b60046040517fb9725924000000000000000000000000000000000000000000000000000000008152fd5b90506020813d6020116147f9575b816147ea60209383612898565b810103126104d7575138614685565b3d91506147dd565b60046040517ffba10dd6000000000000000000000000000000000000000000000000000000008152fd5b61484591945060203d602011610514576105068183612898565b9238614640565b6001600160a01b0392507f0000000000000000000000000000000000000000000000000000000000000000956145d2565b915091506020813d6020116148ac575b8161489a60209383612898565b810103126104d7578a905191386145b0565b3d915061488d565b5091878961eeee8103614a0e57505060808101516001600160a01b031680156149de575b88471061499a57600080808b6001600160a01b038295165af16148f9615413565b5015614930576101407ff44ffe151def7bd57d653ffdd625b5cfff3e6992ad5b8eb1f021cdaca6599544916144058a600196612dd8565b608460405162461bcd60e51b815260206004820152603a60248201527f416464726573733a20756e61626c6520746f2073656e642076616c75652c207260448201527f6563697069656e74206d617920686176652072657665727465640000000000006064820152fd5b606460405162461bcd60e51b815260206004820152601d60248201527f416464726573733a20696e73756666696369656e742062616c616e63650000006044820152fd5b506001600160a01b037f0000000000000000000000000000000000000000000000000000000000000000166148d8565b9161440582600196614400610140957ff44ffe151def7bd57d653ffdd625b5cfff3e6992ad5b8eb1f021cdaca6599544976001600160a01b03608088015116801515600014614ab657614ab1905b6040517fa9059cbb0000000000000000000000000000000000000000000000000000000060208201526001600160a01b039091166024820152604481019390935282606481015b03601f198101845283612898565b615321565b50614ab17f0000000000000000000000000000000000000000000000000000000000000000614a5c565b5097505050929190613d2a949160405194614afa8661287c565b6000865260405194614b0b866127bf565b600386527f506f7400000000000000000000000000000000000000000000000000000000006020870152614f51565b90506020813d602011614b64575b81614b5560209383612898565b810103126104d7575138614161565b3d9150614b48565b90506020813d602011614b96575b81614b8760209383612898565b810103126104d757513861405b565b3d9150614b7a565b9096506020813d602011614bca575b81614bba60209383612898565b810103126104d757519538614026565b3d9150614bad565b9096506020813d602011614bfe575b81614bee60209383612898565b810103126104d757519538613fdd565b3d9150614be1565b614c2091975060203d602011610514576105068183612898565b9538613f81565b614c4191965060203d602011610514576105068183612898565b9438613f38565b614c6291935060203d602011610514576105068183612898565b9138613eee565b9091503d806000833e614c7c8183612898565b60208282810103126104d757815167ffffffffffffffff81116104d757820190808301601f830112156104d757815190614cb58261291e565b93614cc36040519586612898565b8285526020850193828201602060e08602830101116104d7579360208501945b602060e086028201018610614cff575050505050509038613e86565b60e08685850103126104d757604051614d17816127f7565b614d2087612a05565b8152614d2e60208801612a05565b60208201526040870151604082015260608088015190820152608080880151906001600160a01b03821682036104d75782015260a0808801519082015260c080880151906001600160a01b03821682036104d757820152825260e09590950194602090910190614ce3565b614db391925060203d602011610514576105068183612898565b9038613de7565b60046040517f66954d0b000000000000000000000000000000000000000000000000000000008152fd5b60049150141538613d61565b634e487b7160e01b600052602160045260246000fd5b9050565b65ffffffffffff9182169082160391908211612dc257565b90815180825260208080930193019160005b828110614e42575050505090565b835180516001600160a01b03908116875281840151168684015260408082015190870152606080820151908701526080808201519087015260a0908101519086015260c09094019392810192600101614e34565b906040810151604051927fa40bb9c7000000000000000000000000000000000000000000000000000000008452600484015260248301526103a09182816044816001600160a01b037f0000000000000000000000000000000000000000000000000000000000000000165afa92831561442057600093614f31575b50505190519060018201809211612dc25703614f2c57600090565b600190565b614f48929350803d10612da357612d928183612898565b50903880614f11565b60408051630862026560e41b8152600481018490526001600160a01b0385166024820152969790969095602095929492939290918681806044810103816001600160a01b03809a165afa9081156150f75790869160009161512b575b50169485156151025788519163b7bad1b160e01b835216958660048301528082602481895afa9081156150f7576000916150cb575b509050036150a25761eeee84148015615092575b6000901561508c575081905b833b156104d75761507060009661505e89519a8b98899788967f0cf8e85800000000000000000000000000000000000000000000000000000000885260048801526024870152604486015260a0606486015260a4850190612f31565b90600319848303016084850152612f31565b03925af1908115612d1f57506150835750565b613d2a9061282f565b90615002565b61509d8385876151c5565b614ff6565b600486517fb9725924000000000000000000000000000000000000000000000000000000008152fd5b82813d83116150f0575b6150df8183612898565b8101031261016c5750518038614fe2565b503d6150d5565b89513d6000823e3d90fd5b600489517ffba10dd6000000000000000000000000000000000000000000000000000000008152fd5b6151429150883d8a11610514576105068183612898565b38614fad565b906000918051615164575b6020015161515d57565b9060021790565b60019250615153565b6001600160a01b0360005416330361518157565b606460405162461bcd60e51b815260206004820152602060248201527f4f776e61626c653a2063616c6c6572206973206e6f7420746865206f776e65726044820152fd5b91909181158015615293575b15615229576040517f095ea7b30000000000000000000000000000000000000000000000000000000060208201526001600160a01b0390931660248401526044830191909152613d2a9190614ab18260648101614aa3565b608460405162461bcd60e51b815260206004820152603660248201527f5361666545524332303a20617070726f76652066726f6d206e6f6e2d7a65726f60448201527f20746f206e6f6e2d7a65726f20616c6c6f77616e6365000000000000000000006064820152fd5b506040517fdd62ed3e0000000000000000000000000000000000000000000000000000000081523060048201526020816044816001600160a01b03808916602483015286165afa908115614420576000916152f0575b50156151d1565b906020823d8211615319575b8161530960209383612898565b8101031261016c575051386152e9565b3d91506152fc565b60405161537f916001600160a01b031661533a826127bf565b6000806020958685527f5361666545524332303a206c6f772d6c6576656c2063616c6c206661696c656487860152868151910182855af1615379615413565b91615443565b80518061538b57505050565b818391810103126104d757816153a19101612a05565b156153a95750565b6084906040519062461bcd60e51b82526004820152602a60248201527f5361666545524332303a204552433230206f7065726174696f6e20646964206e60448201527f6f742073756363656564000000000000000000000000000000000000000000006064820152fd5b3d1561543e573d90615424826128bb565b916154326040519384612898565b82523d6000602084013e565b606090565b919290156154a45750815115615457575090565b3b156154605790565b606460405162461bcd60e51b815260206004820152601d60248201527f416464726573733a2063616c6c20746f206e6f6e2d636f6e74726163740000006044820152fd5b8251909150156154b75750805190602001fd5b6154db9060405191829162461bcd60e51b8352602060048401526024830190612f31565b0390fd5b806000917a184f03e93ff9f4daa797ed6e38ed64bf6a1f01000000000000000080821015615645575b506d04ee2d6d415b85acef810000000080831015615636575b50662386f26fc1000080831015615627575b506305f5e10080831015615618575b5061271080831015615609575b5060648210156155f9575b600a809210156155ef575b60019081602181860195601f1961559461557e896128bb565b9861558c6040519a8b612898565b808a526128bb565b01366020890137860101905b6155ac575b5050505090565b600019849101917f30313233343536373839616263646566000000000000000000000000000000008282061a8353049182156155ea579190826155a0565b6155a5565b9160010191615565565b919060646002910491019161555a565b6004919392049101913861554f565b60089193920491019138615542565b60109193920491019138615533565b60209193920491019138615521565b604093508104915038615508565b9190600019818409818402918280831092039180830392146156eb57633b9aca0090818310156156b4577f88f2cfb83100cb4e69e7c79c58b316e597157d372fb9787e8e47ce423a2e9c6d94950990828211900360f71b910360091c170290565b60448383604051917f773cc18c00000000000000000000000000000000000000000000000000000000835260048301526024820152fd5b5050633b9aca009004915056fea264697066735822122065ba8b07348da1b7f58f14498f8b0bf0f35e61e8ef21cd67d53e2ecb131fb12b64736f6c63430008140033",
    "linkReferences": {}
  },
  "methodIdentifiers": {
    "ballkidzProjectId()": "0d75b3aa",
    "changeFee(uint256)": "6a1db1bf",
    "claimProtocolProjectToken()": "ca449a25",
    "controller()": "f77c4791",
    "currentGamePhaseOf(uint256)": "0715610a",
    "currentGamePotOf(uint256)": "3af76f34",
    "delegateCodeOrigin()": "06b552b5",
    "delegatesRegistry()": "d574ff04",
    "feeDivisor()": "9a36f932",
    "fulfillCommitmentsOf(uint256)": "b6674cde",
    "governor()": "0c340a24",
    "hasFulfilledCommitments(uint256)": "850976b2",
    "launchGameWith((string,(string,uint256),string,string,(string,uint80,uint16,address,bytes32,bool)[],address,uint24,uint24,uint48,(bool,bool,uint256,uint256,address,uint256,address)[],address,address,uint256,uint256,address,address,address,address))": "63bf482e",
    "nextPhaseNeedsQueueing(uint256)": "81312a14",
    "onERC721Received(address,address,uint256,bytes)": "150b7a02",
    "owner()": "8da5cb5b",
    "protocolFeeProjectTokenAccount()": "3f3090d9",
    "queueNextPhaseOf(uint256)": "1c069dbb",
    "renounceOwnership()": "715018a6",
    "splitGroup()": "859bb4b2",
    "timesFor(uint256)": "b07925d3",
    "tokenOf(uint256)": "ea78803f",
    "tokenUriResolver()": "e131fc0c",
    "transferOwnership(address)": "f2fde38b"
  },
  "id": 1
}