{
  "abi": [
    {
      "inputs": [
        {
          "internalType": "address",
          "name": "_delegateCodeOrigin",
          "type": "address"
        },
        {
          "internalType": "address",
          "name": "_governorCodeOrigin",
          "type": "address"
        },
        {
          "internalType": "address",
          "name": "_tokenUriResolverCodeOrigin",
          "type": "address"
        },
        {
          "internalType": "contract IJBController3_1",
          "name": "_controller",
          "type": "address"
        },
        {
          "internalType": "contract IJBDelegatesRegistry",
          "name": "_delegatesRegistry",
          "type": "address"
        },
        {
          "internalType": "address",
          "name": "_protocolFeeProjectTokenAccount",
          "type": "address"
        },
        {
          "internalType": "uint256",
          "name": "_ballkidzProjectId",
          "type": "uint256"
        },
        {
          "internalType": "address",
          "name": "_owner",
          "type": "address"
        }
      ],
      "stateMutability": "nonpayable",
      "type": "constructor"
    },
    {
      "inputs": [],
      "name": "GAME_OVER",
      "type": "error"
    },
    {
      "inputs": [],
      "name": "INVALID_FEE_PERCENT",
      "type": "error"
    },
    {
      "inputs": [],
      "name": "INVALID_GAME_CONFIGURATION",
      "type": "error"
    },
    {
      "inputs": [],
      "name": "PHASE_ALREADY_QUEUED",
      "type": "error"
    },
    {
      "inputs": [],
      "name": "SPLITS_DONT_ADD_UP",
      "type": "error"
    },
    {
      "inputs": [],
      "name": "UNEXPECTED_TERMINAL_CURRENCY",
      "type": "error"
    },
    {
      "anonymous": false,
      "inputs": [
        {
          "indexed": true,
          "internalType": "uint256",
          "name": "gameId",
          "type": "uint256"
        },
        {
          "indexed": true,
          "internalType": "contract IDefifaDelegate",
          "name": "delegate",
          "type": "address"
        },
        {
          "indexed": true,
          "internalType": "contract IDefifaGovernor",
          "name": "governor",
          "type": "address"
        },
        {
          "indexed": false,
          "internalType": "contract IJBTokenUriResolver",
          "name": "tokenUriResolver",
          "type": "address"
        },
        {
          "indexed": false,
          "internalType": "address",
          "name": "caller",
          "type": "address"
        }
      ],
      "name": "LaunchGame",
      "type": "event"
    },
    {
      "anonymous": false,
      "inputs": [
        {
          "indexed": true,
          "internalType": "address",
          "name": "previousOwner",
          "type": "address"
        },
        {
          "indexed": true,
          "internalType": "address",
          "name": "newOwner",
          "type": "address"
        }
      ],
      "name": "OwnershipTransferred",
      "type": "event"
    },
    {
      "inputs": [],
      "name": "SPLIT_DOMAIN",
      "outputs": [
        {
          "internalType": "uint256",
          "name": "",
          "type": "uint256"
        }
      ],
      "stateMutability": "view",
      "type": "function"
    },
    {
      "inputs": [],
      "name": "ballkidzProjectId",
      "outputs": [
        {
          "internalType": "uint256",
          "name": "",
          "type": "uint256"
        }
      ],
      "stateMutability": "view",
      "type": "function"
    },
    {
      "inputs": [
        {
          "internalType": "uint256",
          "name": "_percent",
          "type": "uint256"
        }
      ],
      "name": "changeFee",
      "outputs": [],
      "stateMutability": "nonpayable",
      "type": "function"
    },
    {
      "inputs": [],
      "name": "claimProtocolProjectToken",
      "outputs": [],
      "stateMutability": "nonpayable",
      "type": "function"
    },
    {
      "inputs": [],
      "name": "controller",
      "outputs": [
        {
          "internalType": "contract IJBController3_1",
          "name": "",
          "type": "address"
        }
      ],
      "stateMutability": "view",
      "type": "function"
    },
    {
      "inputs": [
        {
          "internalType": "uint256",
          "name": "_gameId",
          "type": "uint256"
        }
      ],
      "name": "currentGamePhaseOf",
      "outputs": [
        {
          "internalType": "enum DefifaGamePhase",
          "name": "",
          "type": "uint8"
        }
      ],
      "stateMutability": "view",
      "type": "function"
    },
    {
      "inputs": [],
      "name": "delegateCodeOrigin",
      "outputs": [
        {
          "internalType": "address",
          "name": "",
          "type": "address"
        }
      ],
      "stateMutability": "view",
      "type": "function"
    },
    {
      "inputs": [],
      "name": "delegatesRegistry",
      "outputs": [
        {
          "internalType": "contract IJBDelegatesRegistry",
          "name": "",
          "type": "address"
        }
      ],
      "stateMutability": "view",
      "type": "function"
    },
    {
      "inputs": [
        {
          "internalType": "uint256",
          "name": "_gameId",
          "type": "uint256"
        }
      ],
      "name": "distributionOpsOf",
      "outputs": [
        {
          "components": [
            {
              "internalType": "contract IJBPaymentTerminal",
              "name": "terminal",
              "type": "address"
            },
            {
              "internalType": "address",
              "name": "token",
              "type": "address"
            },
            {
              "internalType": "uint88",
              "name": "distributionLimit",
              "type": "uint88"
            }
          ],
          "internalType": "struct DefifaDistributionOpsData",
          "name": "",
          "type": "tuple"
        }
      ],
      "stateMutability": "view",
      "type": "function"
    },
    {
      "inputs": [],
      "name": "feeDivisor",
      "outputs": [
        {
          "internalType": "uint256",
          "name": "",
          "type": "uint256"
        }
      ],
      "stateMutability": "view",
      "type": "function"
    },
    {
      "inputs": [],
      "name": "governorCodeOrigin",
      "outputs": [
        {
          "internalType": "address",
          "name": "",
          "type": "address"
        }
      ],
      "stateMutability": "view",
      "type": "function"
    },
    {
      "inputs": [
        {
          "components": [
            {
              "internalType": "string",
              "name": "name",
              "type": "string"
            },
            {
              "components": [
                {
                  "internalType": "string",
                  "name": "content",
                  "type": "string"
                },
                {
                  "internalType": "uint256",
                  "name": "domain",
                  "type": "uint256"
                }
              ],
              "internalType": "struct JBProjectMetadata",
              "name": "projectMetadata",
              "type": "tuple"
            },
            {
              "internalType": "string",
              "name": "contractUri",
              "type": "string"
            },
            {
              "internalType": "string",
              "name": "baseUri",
              "type": "string"
            },
            {
              "components": [
                {
                  "internalType": "uint80",
                  "name": "price",
                  "type": "uint80"
                },
                {
                  "internalType": "uint16",
                  "name": "reservedRate",
                  "type": "uint16"
                },
                {
                  "internalType": "address",
                  "name": "reservedTokenBeneficiary",
                  "type": "address"
                },
                {
                  "internalType": "bytes32",
                  "name": "encodedIPFSUri",
                  "type": "bytes32"
                },
                {
                  "internalType": "bool",
                  "name": "shouldUseReservedTokenBeneficiaryAsDefault",
                  "type": "bool"
                },
                {
                  "internalType": "string",
                  "name": "name",
                  "type": "string"
                }
              ],
              "internalType": "struct DefifaTierParams[]",
              "name": "tiers",
              "type": "tuple[]"
            },
            {
              "internalType": "address",
              "name": "token",
              "type": "address"
            },
            {
              "internalType": "uint48",
              "name": "mintDuration",
              "type": "uint48"
            },
            {
              "internalType": "uint48",
              "name": "refundDuration",
              "type": "uint48"
            },
            {
              "internalType": "uint48",
              "name": "start",
              "type": "uint48"
            },
            {
              "components": [
                {
                  "internalType": "bool",
                  "name": "preferClaimed",
                  "type": "bool"
                },
                {
                  "internalType": "bool",
                  "name": "preferAddToBalance",
                  "type": "bool"
                },
                {
                  "internalType": "uint256",
                  "name": "percent",
                  "type": "uint256"
                },
                {
                  "internalType": "uint256",
                  "name": "projectId",
                  "type": "uint256"
                },
                {
                  "internalType": "address payable",
                  "name": "beneficiary",
                  "type": "address"
                },
                {
                  "internalType": "uint256",
                  "name": "lockedUntil",
                  "type": "uint256"
                },
                {
                  "internalType": "contract IJBSplitAllocator",
                  "name": "allocator",
                  "type": "address"
                }
              ],
              "internalType": "struct JBSplit[]",
              "name": "splits",
              "type": "tuple[]"
            },
            {
              "internalType": "uint88",
              "name": "distributionLimit",
              "type": "uint88"
            },
            {
              "internalType": "address payable",
              "name": "ballkidzFeeProjectTokenAccount",
              "type": "address"
            },
            {
              "internalType": "uint256",
              "name": "votingStartTime",
              "type": "uint256"
            },
            {
              "internalType": "uint256",
              "name": "votingPeriod",
              "type": "uint256"
            },
            {
              "internalType": "contract IJBTokenUriResolver",
              "name": "defaultTokenUriResolver",
              "type": "address"
            },
            {
              "internalType": "contract IJBPaymentTerminal",
              "name": "terminal",
              "type": "address"
            },
            {
              "internalType": "contract IJBTiered721DelegateStore",
              "name": "store",
              "type": "address"
            }
          ],
          "internalType": "struct DefifaLaunchProjectData",
          "name": "_launchProjectData",
          "type": "tuple"
        }
      ],
      "name": "launchGameWith",
      "outputs": [
        {
          "internalType": "uint256",
          "name": "gameId",
          "type": "uint256"
        },
        {
          "internalType": "contract IDefifaGovernor",
          "name": "governor",
          "type": "address"
        }
      ],
      "stateMutability": "nonpayable",
      "type": "function"
    },
    {
      "inputs": [
        {
          "internalType": "uint256",
          "name": "_gameId",
          "type": "uint256"
        }
      ],
      "name": "nextPhaseNeedsQueueing",
      "outputs": [
        {
          "internalType": "bool",
          "name": "",
          "type": "bool"
        }
      ],
      "stateMutability": "view",
      "type": "function"
    },
    {
      "inputs": [
        {
          "internalType": "address",
          "name": "",
          "type": "address"
        },
        {
          "internalType": "address",
          "name": "",
          "type": "address"
        },
        {
          "internalType": "uint256",
          "name": "",
          "type": "uint256"
        },
        {
          "internalType": "bytes",
          "name": "",
          "type": "bytes"
        }
      ],
      "name": "onERC721Received",
      "outputs": [
        {
          "internalType": "bytes4",
          "name": "",
          "type": "bytes4"
        }
      ],
      "stateMutability": "pure",
      "type": "function"
    },
    {
      "inputs": [],
      "name": "owner",
      "outputs": [
        {
          "internalType": "address",
          "name": "",
          "type": "address"
        }
      ],
      "stateMutability": "view",
      "type": "function"
    },
    {
      "inputs": [],
      "name": "protocolFeeProjectTokenAccount",
      "outputs": [
        {
          "internalType": "address",
          "name": "",
          "type": "address"
        }
      ],
      "stateMutability": "view",
      "type": "function"
    },
    {
      "inputs": [
        {
          "internalType": "uint256",
          "name": "_gameId",
          "type": "uint256"
        }
      ],
      "name": "queueNextPhaseOf",
      "outputs": [
        {
          "internalType": "uint256",
          "name": "configuration",
          "type": "uint256"
        }
      ],
      "stateMutability": "nonpayable",
      "type": "function"
    },
    {
      "inputs": [],
      "name": "renounceOwnership",
      "outputs": [],
      "stateMutability": "nonpayable",
      "type": "function"
    },
    {
      "inputs": [
        {
          "internalType": "uint256",
          "name": "_gameId",
          "type": "uint256"
        }
      ],
      "name": "timesFor",
      "outputs": [
        {
          "components": [
            {
              "internalType": "uint48",
              "name": "mintDuration",
              "type": "uint48"
            },
            {
              "internalType": "uint48",
              "name": "refundDuration",
              "type": "uint48"
            },
            {
              "internalType": "uint48",
              "name": "start",
              "type": "uint48"
            }
          ],
          "internalType": "struct DefifaTimeData",
          "name": "",
          "type": "tuple"
        }
      ],
      "stateMutability": "view",
      "type": "function"
    },
    {
      "inputs": [],
      "name": "tokenUriResolverCodeOrigin",
      "outputs": [
        {
          "internalType": "address",
          "name": "",
          "type": "address"
        }
      ],
      "stateMutability": "view",
      "type": "function"
    },
    {
      "inputs": [
        {
          "internalType": "address",
          "name": "newOwner",
          "type": "address"
        }
      ],
      "name": "transferOwnership",
      "outputs": [],
      "stateMutability": "nonpayable",
      "type": "function"
    }
  ],
  "bytecode": {
    "object": "0x61016034620001e1576200420a38819003601f8101601f191683016001600160401b03811184821017620001e65783928291604052833961010092839181010312620001e1576200005081620001fc565b906200005f60208201620001fc565b916200006e60408301620001fc565b60608301516001600160a01b0393919291908481168103620001e15760808201519485168503620001e157620000f693620000ac60a08401620001fc565b96620000c060e060c08601519501620001fc565b94620000cc3362000211565b6001600355601460055560a05260c05260e052865261012094855261014093845260805262000211565b60405191613fb193846200025985396080518481816120df0152818161221d0152818161267c01526135cc015260a0518481816110a00152612704015260c051848181610127015261195f015260e0518481816107fc0152611f1301525183818161018a015281816102f6015281816105e701528181610dd101528181611124015281816112c8015281816119240152818161219f01528181612a0c01528181612f87015281816130230152818161338d01528181613561015281816137e801528181613c3a0152613df3015251828181610411015261099e0152518181816102b50152611a3e0152f35b600080fd5b634e487b7160e01b600052604160045260246000fd5b51906001600160a01b0382168203620001e157565b600080546001600160a01b039283166001600160a01b03198216811783559216907f8be0079c531659141344cd1fd0a4f28419497f9722a3daafe3b4186f6b6457e09080a356fe608080604052600436101561001357600080fd5b600090813560e01c90816306b552b5146126e5575080630715610a1461269f5780630d75b3aa14612664578063150b7a02146125d85780631c069dbb146125b15780631c984202146109c25780633f3090d91461097e57806353292c68146108f95780636a1db1bf14610887578063715018a61461082057806380f07954146107dc57806381312a14146105ba5780638da5cb5b146105945780639a36f93214610576578063b07925d314610500578063ca449a25146102d9578063d574ff0414610295578063f2fde38b146101ae578063f77c47911461016a578063ff16a2f21461014e5763ff2a43cc1461010857600080fd5b3461014b578060031936011261014b5760206040516001600160a01b037f0000000000000000000000000000000000000000000000000000000000000000168152f35b80fd5b503461014b578060031936011261014b57602090604051908152f35b503461014b578060031936011261014b5760206040516001600160a01b037f0000000000000000000000000000000000000000000000000000000000000000168152f35b503461014b57602060031936011261014b576101c8612728565b6101d0613e89565b6001600160a01b0380911690811561022b576000548273ffffffffffffffffffffffffffffffffffffffff19821617600055167f8be0079c531659141344cd1fd0a4f28419497f9722a3daafe3b4186f6b6457e0600080a380f35b608460405162461bcd60e51b815260206004820152602660248201527f4f776e61626c653a206e6577206f776e657220697320746865207a65726f206160448201527f64647265737300000000000000000000000000000000000000000000000000006064820152fd5b503461014b578060031936011261014b5760206040516001600160a01b037f0000000000000000000000000000000000000000000000000000000000000000168152f35b503461014b578060031936011261014b57806001600160a01b03807f000000000000000000000000000000000000000000000000000000000000000016906040517f6193063000000000000000000000000000000000000000000000000000000000928382526020918281600481855afa9081156104f5578391859188916104d8575b50169460046040518094819382525afa9081156104a0578391839187916104ab575b506044604051809481937f5287af3700000000000000000000000000000000000000000000000000000000835230600484015260016024840152165afa9182156104a057859261046a575b5050823b1561046557608484928360405195869485937fac689bcd000000000000000000000000000000000000000000000000000000008552306004860152600160248601527f000000000000000000000000000000000000000000000000000000000000000016604485015260648401525af1801561045a5761044a5750f35b610453906127d8565b61014b5780f35b6040513d84823e3d90fd5b505050fd5b8195508092503d8311610499575b610482818361285e565b810103126104945783925138806103c9565b600080fd5b503d610478565b6040513d87823e3d90fd5b6104cb9150823d84116104d1575b6104c3818361285e565b81019061293b565b3861037e565b503d6104b9565b6104ef9150833d85116104d1576104c3818361285e565b3861035c565b6040513d88823e3d90fd5b503461014b57602060031936011261014b57604060609161051f61291c565b50600435815260016020522060405190610538826127bc565b5465ffffffffffff9081808216938481528160406020830192828660301c1684520193871c1683526040519485525116602084015251166040820152f35b503461014b578060031936011261014b576020600554604051908152f35b503461014b578060031936011261014b576001600160a01b036020915416604051908152f35b503461014b576020908160031936011261014b5760405163557e715560e01b808252916001600160a01b037f0000000000000000000000000000000000000000000000000000000000000000811660048035908790869081855afa9485156107d15784956107b0575b5082939495604051967f43a266c200000000000000000000000000000000000000000000000000000000885282600489015287602481610120988994165afa9687156104f5579088918798610770575b5060046040518095819382525afa9182156104a05790849291869261074e575b5060249060405194859384927f5c5500780000000000000000000000000000000000000000000000000000000084526004840152165afa928315610742578093610706575b505050826080830151151592836106f5575b506040518315158152f35b8101519101511490503882816106ea565b90918093503d841161073b575b61071d818461285e565b8201928284031261014b5750906107339161295a565b3880806106d8565b503d610713565b604051903d90823e3d90fd5b602491925061076990893d8b116104d1576104c3818361285e565b9190610693565b91509650843d86116107a9575b610787818361285e565b81019085818303126107a557889161079e9161295a565b9638610673565b8680fd5b503d61077d565b839495506107ca90883d8a116104d1576104c3818361285e565b9493610623565b6040513d86823e3d90fd5b503461014b578060031936011261014b5760206040516001600160a01b037f0000000000000000000000000000000000000000000000000000000000000000168152f35b503461014b578060031936011261014b57610839613e89565b60006001600160a01b03815473ffffffffffffffffffffffffffffffffffffffff1981168355167f8be0079c531659141344cd1fd0a4f28419497f9722a3daafe3b4186f6b6457e08280a380f35b503461014b57602060031936011261014b576004356108a4613e89565b600581116108cf5780156108bb5760640460055580f35b602482634e487b7160e01b81526012600452fd5b60046040517f42c9b523000000000000000000000000000000000000000000000000000000008152fd5b503461014b57602060031936011261014b57604060609161091861291c565b506004358152600260205220604051610930816127bc565b6001600160a01b03906001828454169384835201549160406020830192828516845201916affffffffffffffffffffff809460a01c1683526040519485525116602084015251166040820152f35b503461014b578060031936011261014b5760206040516001600160a01b037f0000000000000000000000000000000000000000000000000000000000000000168152f35b503461014b57602060031936011261014b5767ffffffffffffffff6004351161014b576102206003196004353603011261014b5760405190610220820182811067ffffffffffffffff82111761259d576040526004356004013567ffffffffffffffff8111611c1b57610a3c90600436918135010161289d565b82526024600435013567ffffffffffffffff8111611c1b576004350160406003198236030112611c1b5760405190610a7382612752565b600481013567ffffffffffffffff811161247a5790610a9a6024926004369184010161289d565b83520135602082015260208301526044600435013567ffffffffffffffff8111611c1b57610acf90600436918135010161289d565b60408301526064600435013567ffffffffffffffff8111611c1b57610afb90600436918135010161289d565b60608301526084600435013567ffffffffffffffff8111611c1b573660238260043501011215611c1b57600481813501013590610b37826128e4565b91610b45604051938461285e565b80835260208301913660248360051b8360043501010111612476576024816004350101925b60248360051b83600435010101841061247e57505050506080830152610b9460a46004350161273e565b60a0830152610ba760c460043501612909565b60c0830152610bba60e460043501612909565b60e0830152610bce61010460043501612909565b61010083015267ffffffffffffffff61012460043501351161014b573660043561012481013501602301121561014b57610c13600480356101248101350101356128e4565b610c20604051918261285e565b60048035610124810135019081013580835260208301913660e09092020160240111611b465760043561012481013501602401905b60048035610124810135019081013560e0020160240182106123e557505061012083015260043561014401356affffffffffffffffffffff8116900361014b576101446004350135610140830152610cb26101646004350161273e565b6101608301526004356101848101356101808401526101a48101356101a08401526101c401356001600160a01b038116900361014b576004356101c48101356101c08401526101e401356001600160a01b038116900361014b576004356101e48101356101e084015261020401356001600160a01b038116900361014b57610204600435013561020083015265ffffffffffff61010083015116156123c2575b610d8c610d7965ffffffffffff6101008501511665ffffffffffff60e08601511690612b9f565b65ffffffffffff60c08501511690612b9f565b65ffffffffffff42911610612398576040517f8b79543c0000000000000000000000000000000000000000000000000000000081526020816004816001600160a01b037f0000000000000000000000000000000000000000000000000000000000000000165afa90811561045a578291612355575b509060206001600160a01b03926004604051809581937f06661abd000000000000000000000000000000000000000000000000000000008352165afa918215612348578192612314575b50600182018211611b1e5765ffffffffffff60c08401511665ffffffffffff60e08501511665ffffffffffff6101008601511660405192610e8b846127bc565b83526020830191825260408301908152600185018452600160205265ffffffffffff604085209351167fffffffffffffffffffffffffffff00000000000000000000000000000000000071ffffffffffff0000000000000000000000006bffffffffffff0000000000008654955160301b16935160601b16931617171790556001600160a01b036101e0840151166affffffffffffffffffffff610140850151166001600160a01b0360018160a0880151169360405190610f4b826127bc565b8152602081019485526040810193845281870186526002602052826040872091511673ffffffffffffffffffffffffffffffffffffffff19825416178155019251167fff000000000000000000000000000000000000000000000000000000000000007effffffffffffffffffffff00000000000000000000000000000000000000008454935160a01b16921617179055610120830151518061207d575b509060808301515192610ffb846128e4565b93611009604051958661285e565b808552611015816128e4565b845b601f198201811061201c5750506080820151519061104d611037836128e4565b92611045604051948561285e565b8084526128e4565b855b601f1982018110612006575050606060a060405161106c81612784565b87815287602082015287604082015287838201528760808201520152845b818110611f3e5750506001600160a01b036110c47f0000000000000000000000000000000000000000000000000000000000000000613ee1565b6101c0840151911694906001600160a01b031615611f06576001600160a01b036101c084015116915b604051967fc41c2f240000000000000000000000000000000000000000000000000000000088526020886004816001600160a01b037f0000000000000000000000000000000000000000000000000000000000000000165afa978815611d31578398611ec2575b5084518360018801807a184f03e93ff9f4daa797ed6e38ed64bf6a1f01000000000000000080821015611eb1575b506d04ee2d6d415b85acef810000000080821015611ea4575b50662386f26fc1000080821015611e97575b506305f5e10080821015611e8a575b50612710811015611e7b575b6064811015611e6d575b600a80911015611e63575b6001830191816000196021601f1961120d6111f788612881565b97611205604051998a61285e565b808952612881565b019660208701973689378601015b01917f30313233343536373839616263646566000000000000000000000000000000008282061a83530490811561125657600019839161121b565b50505060276112ab9161129b936040519485927f4445464946412000000000000000000000000000000000000000000000000000602085015251809285850190612d2d565b810103600781018452018261285e565b60405163557e715560e01b81526020816004816001600160a01b037f0000000000000000000000000000000000000000000000000000000000000000165afa9081156104f5578691611e44575b5060608801516040890151916001600160a01b036101e08b0151169360206001600160a01b0360a08d0151166024604051809881937f1982d67900000000000000000000000000000000000000000000000000000000835260048301525afa948515611e3957908d9695949392918a95611e02575b506001600160a01b036102008d015116956040519761138b89612809565b8b89528b60208a01528b60408a0152600160608a01523b15611dfe57928f989491928b97938f9799956040519b8c997ff78c488b000000000000000000000000000000000000000000000000000000008b5260010160048b01526001600160a01b031660248a0152604489016102009052610204890161140a91612d50565b8881036003190160648a015261141f91612d50565b906001600160a01b031660848801528681036003190160a488015261144391612d50565b6001600160a01b038c1660c48701528581036003190160e487015261146791612d50565b848103600319016101048601528351908181526020019360200190865b818110611d3c575050509060609165ffffffffffff859697166101248601526101448501528051151561016485015260208101511515610184850152604081015115156101a4850152015115156101c4830152306101e48301520381838b5af18015611d3157908391611d1d575b50506001600160a01b036101c08501511615611c27575b506101e083015160a08401516040517fdf21a7dd0000000000000000000000000000000000000000000000000000000081526001600160a01b0391821660048201526001870160248201529160209183916044918391165afa90811561045a578291611be9575b5015611bbf576103e0602460405161158781612752565b60018152602036818301376001600160a01b036101e0870151166115aa82612bb7565b526118b460208701516118a165ffffffffffff60c08a01511691604051926115d184612809565b83528760208401528760408401528760608401526040516115f1816127bc565b88815288602082015288604082015261161e60405161160f81612752565b8a815260016020820152613e64565b6040519161162b83612825565b8252896020830152612710604083015261271060608301528960808301528960a08301528960c08301528960e08301528961010083015289610120830152896101408301528961016083015289610180830152896101a083015260016101c083015260016101e08301528d61020083015261022082015265ffffffffffff6116d28c8260e06116c882610100850151168360c08601511690612b9f565b9201511690612b9f565b611888604051936116e285612842565b6000855261177f604051986116f68a612842565b60008a526040519d8e9d8e7fb3c5267300000000000000000000000000000000000000000000000000000000815230600482015201528c610404602061174a8b5160406103e4860152610424850190612d50565b9a0151910152805160448e0152602081015160648e0152604081015160848e0152606001516001600160a01b031660a48d0152565b80518051151560c48d0152602080820151151560e48e015260409182015115156101048e01528201516101248d01528101516101448c015260608101516101648c0152608081015115156101848c015260a081015115156101a48c015260c081015115156101c48c015260e081015115156101e48c015261010081015115156102048c015261012081015115156102248c015261014081015115156102448c015261016081015115156102648c015261018081015115156102848c01526101a081015115156102a48c01526101c081015115156102c48c01526101e081015115156102e48c01526102008101516001600160a01b03166103048c015261022001516103248b0152565b1661034488015260031987830301610364880152612c3e565b9060031985830301610384860152613d35565b600319838203016103a484015260208083519283815201920190855b818110611b9d57505050906040827f446566696661206d696e742070686173652e00000000000000000000000000006020848196039260031984016103c48701526012815201520181856001600160a01b037f0000000000000000000000000000000000000000000000000000000000000000165af1801561045a57611b72575b506001600160a01b036119837f0000000000000000000000000000000000000000000000000000000000000000613ee1565b16926101a0610180820151910151843b15611b4657604051917f7a1ac61e00000000000000000000000000000000000000000000000000000000835287600484015260248301526044820152818160648183885af1801561045a57908291611b5e575b5050843b1561014b576040517ff2fde38b0000000000000000000000000000000000000000000000000000000081528360048201528181602481838a5af1801561045a57908291611b4a575b50506001600160a01b037f000000000000000000000000000000000000000000000000000000000000000016600354813b15611b46576040517f5bcfd21200000000000000000000000000000000000000000000000000000000815230600482015260248101919091529082908290604490829084905af1801561045a57908291611b32575b50506003549060038201809211611b1e57509382916040956003556001600160a01b038651911681523360208201527f3082991f3dda023098e5849ea3903c6fbfd657dc6f9232f5eb81ad8a7ba161d6866001870192a460018351920182526020820152f35b80634e487b7160e01b602492526011600452fd5b611b3b906127d8565b61014b578086611ab8565b8280fd5b611b53906127d8565b61014b578086611a32565b611b67906127d8565b61014b5780866119e6565b602090813d8311611b96575b611b88818361285e565b810103126104945785611951565b503d611b7e565b82516001600160a01b03168452859450602093840193909201916001016118d0565b60046040517f3727b396000000000000000000000000000000000000000000000000000000008152fd5b90506020813d602011611c1f575b81611c046020938361285e565b81010312611c1b57611c1590612d75565b86611570565b5080fd5b3d9150611bf7565b6001600160a01b0383163b15611c1b578160405180927f94e6f56f000000000000000000000000000000000000000000000000000000008252604482018960048401526040602484015281518091526064830190602060648260051b86010193019185905b828210611cd0575050505081900381836001600160a01b0388165af1801561045a57908291611cbc575b50611509565b611cc5906127d8565b61014b578086611cb6565b929550926020611d0c827fffffffffffffffffffffffffffffffffffffffffffffffffffffffffffffff9c600195988495030186528851612d50565b960192019201928593879593611c8c565b611d26906127d8565b611c1b5781876114f2565b6040513d85823e3d90fd5b929550929550959260206101606001926101408a516cffffffffffffffffffffffffff815116835263ffffffff80868301511686850152604082015116604084015261ffff60608201511660608401526001600160a01b03608082015116608084015260a081015160a084015262ffffff60c08201511660c084015260e0810151151560e08401526101008101511515610100840152610120810151151561012084015201511515610140820152019701910190899592889592979497611484565b8a80fd5b965093506020863d602011611e31575b81611e1f6020938361285e565b81010312610494578c9551933861136d565b3d9150611e12565b6040513d8b823e3d90fd5b611e5d915060203d6020116104d1576104c3818361285e565b386112f8565b91600101916111dd565b6064600291049201916111d2565b612710600491049201916111c8565b60089104920191386111bc565b60109104920191386111ad565b602091049201913861119b565b6040935060018b0104905038611182565b9097506020813d602011611efe575b81611ede6020938361285e565b81010312611b4657516001600160a01b0381168103611b46579638611154565b3d9150611ed1565b6001600160a01b03611f377f0000000000000000000000000000000000000000000000000000000000000000613ee1565b16916110ed565b8060a0611f516001936080880151612bda565b5169ffffffffffffffffffff81511661ffff6020830151166001600160a01b03604084015116606084015190608085015115159260405194611f92866127ec565b8552633b9ac9ff602086015288604086015260608501526080840152848301528a60c08301528a60e08301526101008201528961012082015284610140820152611fdc848c612bda565b52611fe7838b612bda565b500151611ff48286612bda565b52611fff8185612bda565b500161108a565b602081606082601f19948801015201905061104f565b6020601f199160405161202e816127ec565b88815288838201528860408201528860608201528860808201528860a08201528860c08201528860e082015288610100820152886101208201528861014082015282828b010152019050611017565b60055490811561230057829083905b8082106122d6575050633b9aca00908282048203908282116122c257036122985761212d916001600160a01b036101608701511690604051926120ce846127a0565b8584528560208501520460408301527f0000000000000000000000000000000000000000000000000000000000000000606083015260808201528260a08201528260c08201526101208501518051916121278383612bda565b52612bda565b50612136612bee565b6101208401516040519061214982612752565b600185018252602082015261215d82612bb7565b5261216781612bb7565b50604051907f2bdfe0040000000000000000000000000000000000000000000000000000000082526020826004816001600160a01b037f0000000000000000000000000000000000000000000000000000000000000000165afa918215611d31578392612277575b506001600160a01b0382163b15611b46576122586001600160a01b03928492836040519586809581947ff2da44b60000000000000000000000000000000000000000000000000000000083527f00000000000000000000000000000000000000000000000000000000000000006004840152846024840152606060448401526064830190612c3e565b0393165af1801561045a5715610fe957612271906127d8565b38610fe9565b61229191925060203d6020116104d1576104c3818361285e565b90386121cf565b60046040517f48270162000000000000000000000000000000000000000000000000000000008152fd5b602485634e487b7160e01b81526011600452fd5b90916122f860019160406122ef866101208c0151612bda565b51015190612b7c565b92019061208c565b602483634e487b7160e01b81526012600452fd5b9091506020813d602011612340575b816123306020938361285e565b81010312611c1b57519038610e4b565b3d9150612323565b50604051903d90823e3d90fd5b90506020813d602011612390575b816123706020938361285e565b81010312611c1b57516001600160a01b0381168103611c1b576020610e01565b3d9150612363565b60046040517f74f88142000000000000000000000000000000000000000000000000000000008152fd5b65ffffffffffff6123d98160c08501511642612b7c565b16610100830152610d52565b60e08236031261247a576040516123fb816127a0565b612404836128fc565b8152612412602084016128fc565b602082015260408301356040820152606083013560608201526124376080840161273e565b608082015260a0838101359082015260c08301356001600160a01b03811690036124765760e09160209160c085013560c0820152815201910190610c55565b8480fd5b8380fd5b833567ffffffffffffffff81116107a55760c07fffffffffffffffffffffffffffffffffffffffffffffffffffffffffffffffdc82856004350101360301126107a557604051906124ce82612784565b600435840181016024013569ffffffffffffffffffff811690036125995760043584018101602481013583526044013561ffff811690036125995760043584018101604481013560208401526125269060640161273e565b604083015260043584018101608481013560608401526125489060a4016128fc565b608083015267ffffffffffffffff60c48286600435010101351161259957602492602092839261258790369060043589010160c481013501870161289d565b60a08201528152019401939050610b6a565b8780fd5b602482634e487b7160e01b81526041600452fd5b503461014b57602060031936011261014b5760206125d0600435612f49565b604051908152f35b503461014b57608060031936011261014b576125f2612728565b506024356001600160a01b0381160361014b5760643567ffffffffffffffff808211611b465736602383011215611b46578160040135908111611b46573691016024011161014b5760206040517f150b7a02000000000000000000000000000000000000000000000000000000008152f35b503461014b578060031936011261014b5760206040517f00000000000000000000000000000000000000000000000000000000000000008152f35b503461014b57602060031936011261014b576126bc6004356129ed565b6040519060068110156126d157602092508152f35b602483634e487b7160e01b81526021600452fd5b905034611c1b5781600319360112611c1b576020906001600160a01b037f0000000000000000000000000000000000000000000000000000000000000000168152f35b600435906001600160a01b038216820361049457565b35906001600160a01b038216820361049457565b6040810190811067ffffffffffffffff82111761276e57604052565b634e487b7160e01b600052604160045260246000fd5b60c0810190811067ffffffffffffffff82111761276e57604052565b60e0810190811067ffffffffffffffff82111761276e57604052565b6060810190811067ffffffffffffffff82111761276e57604052565b67ffffffffffffffff811161276e57604052565b610160810190811067ffffffffffffffff82111761276e57604052565b6080810190811067ffffffffffffffff82111761276e57604052565b610240810190811067ffffffffffffffff82111761276e57604052565b6020810190811067ffffffffffffffff82111761276e57604052565b90601f601f19910116810190811067ffffffffffffffff82111761276e57604052565b67ffffffffffffffff811161276e57601f01601f191660200190565b81601f82011215610494578035906128b482612881565b926128c2604051948561285e565b8284526020838301011161049457816000926020809301838601378301015290565b67ffffffffffffffff811161276e5760051b60200190565b3590811515820361049457565b359065ffffffffffff8216820361049457565b60405190612929826127bc565b60006040838281528260208201520152565b9081602091031261049457516001600160a01b03811681036104945790565b80929161012091829103126104945760405190810181811067ffffffffffffffff82111761276e576040528092805182526020810151602083015260408101516040830152606081015160608301526080810151608083015260a081015160a083015260c081015160c083015260e08101516001600160a01b03811681036104945760e083015261010080910151910152565b6040805163557e715560e01b81526001600160a01b03602082600481847f0000000000000000000000000000000000000000000000000000000000000000165afa918215612b5157600092612b5c575b508251917f43a266c200000000000000000000000000000000000000000000000000000000835284600484015282602481610120948594165afa918215612b5157600092612b18575b505080518015612b0f57600114612b075782600052600460205260ff826000205416612aff57612ab68184613da9565b612af757516002149182612ad5575b5050612ad057600390565b600290565b65ffffffffffff925060005260016020526000205460301c1615153880612ac5565b505050600490565b505050600590565b505050600190565b50505050600090565b9091823d8411612b4a575b612b2d818461285e565b8201928284031261014b575090612b439161295a565b3880612a86565b503d612b23565b83513d6000823e3d90fd5b612b7591925060203d81116104d1576104c3818361285e565b9038612a3d565b91908201809211612b8957565b634e487b7160e01b600052601160045260246000fd5b65ffffffffffff9182169082160391908211612b8957565b805115612bc45760200190565b634e487b7160e01b600052603260045260246000fd5b8051821015612bc45760209160051b010190565b604090815191612bfd83612752565b600183528291600091825b602080821015612c3557825160209291612c2182612752565b868252606081830152828901015201612c08565b50505091925050565b908082519081815260208091019281808460051b830101950193600080925b858410612c6e575050505050505090565b9091929387601f19838398999a0301855288519060408381830193805184520151928185840152835180915284606080940194019287925b828410612cc85750505050509080600192990194019401929594939190612c5d565b91939560e06001929496885180511515825283810151151584830152858101518683015286810151878301526001600160a01b0360808181840151169084015260a0808301519084015260c08092015116908201520196019401918a95949391612ca6565b60005b838110612d405750506000910152565b8181015183820152602001612d30565b90601f19601f602093612d6e81518092818752878088019101612d2d565b0116010190565b5190811515820361049457565b80820392916103a0841261049457612dbb7ffffffffffffffffffffffffffffffffffffffffffffffffffffffffffffffee0918361295a565b93019061028080831261049457606060405193612dd785612825565b1261049457612e8891604051612dec816127bc565b61012090612dfb828401612d75565b815261014090612e0c828501612d75565b602082015261016090612e20828601612d75565b604082015287526101808085015160208901526101a0918286015160408a01526101c0938487015160608b01526101e095612e5c878901612d75565b60808c0152612eb9610200998c60a0612e768d8d01612d75565b9101528c60c06102209d8e8d01612d75565b9101528c60e0612e9b6102408d01612d75565b9101528c610100612eaf6102608d01612d75565b9101528901612d75565b908b0152612eca6102a08801612d75565b908a0152612edb6102c08701612d75565b90890152612eec6102e08601612d75565b90880152612efd6103008501612d75565b90870152612f0e6103208401612d75565b90860152612f1f6103408301612d75565b908501526103608101516001600160a01b0381168103610494576103809285015201519082015290565b604051907f8776c4990000000000000000000000000000000000000000000000000000000082528060048301526103a0826024816001600160a01b037f0000000000000000000000000000000000000000000000000000000000000000165afa9182156133f0576000908193613d0f575b5081600052600460205260ff604060002054168015613d03575b613cd957612fe28183613da9565b613a9d576040517f12b37b140000000000000000000000000000000000000000000000000000000081528260048201526103a0816024816001600160a01b037f0000000000000000000000000000000000000000000000000000000000000000165afa9081156133f057600091613a6b575b5060208083015191015103613a41575160011480613a1f575b156133fc5760209060406001600160a01b036102008095015116826000526001845281600020948251956130a0876127bc565b54958365ffffffffffff8089168352808960301c1698898985015260601c169101528251956130ce87612809565b8652600085870152600083870152600060608701528251916130ef836127bc565b6000835260008684015260008484015261311c845161310d81612752565b60008152600188820152613e64565b9184519361312985612825565b84526000878501526127108086860152606085015260016080850152600060a0850152600060c0850152600060e08501526000610100850152600061012085015260006101408501526000610160850152600061018085015260006101a085015260016101c085015260016101e08501528301526102208201527f44656669666120726566756e642070686173652e0000000000000000000000008461336d61335985516131d681612842565b6000815261333d8751966131e988612842565b6000885261323589519c8d9b63175b7be560e31b8d5260048d015260248c01906001600160a01b0360608092805185526020810151602086015260408101516040860152015116910152565b80518051151560a48c0152602080820151151560c48d0152604091820151151560e48d01528201516101048c01528101516101248b015260608101516101448b0152608081015115156101648b015260a081015115156101848b015260c081015115156101a48b015260e081015115156101c48b015261010081015115156101e48b015261012081015115156102048b015261014081015115156102248b015261016081015115156102448b015261018081015115156102648b01526101a081015115156102848b01526101c081015115156102a48b01526101e081015115156102c48b01526102008101516001600160a01b03166102e48b015261022001516103048a0152565b60006103248901526103a06103448901526103a4880190612c3e565b600319948588830301610364890152613d35565b858103938401610384870152601481520152018160006001600160a01b037f0000000000000000000000000000000000000000000000000000000000000000165af19081156133f0576000916133c1575090565b906020823d6020116133e8575b816133db6020938361285e565b8101031261014b57505190565b3d91506133ce565b6040513d6000823e3d90fd5b906102006001600160a01b03910151169080600052600260205260406000206affffffffffffffffffffff600160405192613436846127bc565b6001600160a01b03815416845201546001600160a01b038116602084015260a01c1660408201526040519061346a82612752565b6001825260005b602081106139de57506001600160a01b038151166001600160a01b036020830151166affffffffffffffffffffff604084015116604051917f1982d679000000000000000000000000000000000000000000000000000000008352806004840152602083602481875afa9283156133f0576000936139aa575b50604051936134f885612784565b845260208401526040830152606082015260006080820152600060a082015261352083612bb7565b5261352a82612bb7565b506040517f2bdfe0040000000000000000000000000000000000000000000000000000000081526020816004816001600160a01b037f0000000000000000000000000000000000000000000000000000000000000000165afa9081156133f0576001600160a01b0391600091829161398b575b506064604051809481937f69e11cc50000000000000000000000000000000000000000000000000000000083527f00000000000000000000000000000000000000000000000000000000000000006004840152856024840152896044840152165afa9081156133f057600091613838575b50917f4465666966612073636f72696e672070686173652e000000000000000000000060206137c861335960409583989760008151151560001461382257506001600160a01b038561365e612bee565b9301511661eeee810361381c57506001905b88519161367c83612752565b82528582015261368b82612bb7565b5261369581612bb7565b505b61333d87519a6136a68c612809565b60008c526000868d01526000898d0152600060608d01528851906136c9826127bc565b6000825260008783015260008a8301526136f68a516136e781612752565b60008152600089820152613e64565b908a519261370384612825565b8352600088840152612710808c850152606084015260016080840152600060a0840152600060c0840152600060e08401526000610100840152600061012084015260006101408401526000610160840152600061018084015260006101a084015260016101c084015260016101e084015261020083015261022082015261323589519c8d9b63175b7be560e31b8d5260048d015260248c01906001600160a01b0360608092805185526020810151602086015260408101516040860152015116910152565b858103938401610384870152601581520152018160006001600160a01b037f0000000000000000000000000000000000000000000000000000000000000000165af19081156133f0576000916133c1575090565b90613670565b91505086519061383182612842565b8152613697565b903d8082843e613848818461285e565b6020838281010312611c1b5782519167ffffffffffffffff831161014b57818401601f84860101121561014b578284015191613883836128e4565b94613891604051968761285e565b8386526020860194828201602060e0870283850101011161247a57602081830101955b602060e08702838501010187106138f457507f4465666966612073636f72696e672070686173652e0000000000000000000000955061360e945050505050565b60e08785850103126124765760405161390c816127a0565b61391588612d75565b815261392360208901612d75565b6020820152604088015160408201526060880151606082015260808801516001600160a01b03811681036107a557608082015260a088015160a082015260c08801516001600160a01b03811681036107a55760c0820152815260e096909601956020016138b4565b6139a4915060203d6020116104d1576104c3818361285e565b3861359d565b90926020823d6020116139d6575b816139c56020938361285e565b8101031261014b57505191386134ea565b3d91506139b8565b6020906040516139ed81612784565b60008152600083820152600060408201526000606082015260006080820152600060a082015282828601015201613471565b5080600052600160205265ffffffffffff60406000205460301c16151561306d565b60046040517f11f43385000000000000000000000000000000000000000000000000000000008152fd5b613a8f91506103a03d6103a011613a96575b613a87818361285e565b810190612d82565b5038613054565b503d613a7d565b5060206132359260406001600160a01b036102008093015116815192613ac284612809565b6000845260008585015260008385015260006060850152825191613ae5836127bc565b60008352600086840152600084840152613b03845161310d81612752565b91845193613b1085612825565b84526000878501526127108086860152606085015260016080850152600060a0850152600060c0850152600060e08501526000610100850152600061012085015260006101408501526000610160850152600061018085015260006101a085015260016101c085015260016101e08501528301526102208201527f446566696661206e6f20636f6e746573742e000000000000000000000000000084613c1a6133598551613bbd81612842565b6000815261333d875196613bd088612842565b6000885288519c8d9a63175b7be560e31b8c528d60048d015260248c01906001600160a01b0360608092805185526020810151602086015260408101516040860152015116910152565b858103938401610384870152601281520152018160006001600160a01b037f0000000000000000000000000000000000000000000000000000000000000000165af19182156133f057600092613ca5575b506000526004602052604060002060017fffffffffffffffffffffffffffffffffffffffffffffffffffffffffffffff0082541617905590565b90916020823d602011613cd1575b81613cc06020938361285e565b8101031261014b5750519038613c6b565b3d9150613cb3565b60046040517fdc7a2515000000000000000000000000000000000000000000000000000000008152fd5b50608081015115612fd4565b9050613d2d9192506103a03d6103a011613a9657613a87818361285e565b919038612fba565b90815180825260208080930193019160005b828110613d55575050505090565b835180516001600160a01b03908116875281840151168684015260408082015190870152606080820151908701526080808201519087015260a0908101519086015260c09094019392810192600101613d47565b906040810151604051927fa40bb9c7000000000000000000000000000000000000000000000000000000008452600484015260248301526103a09182816044816001600160a01b037f0000000000000000000000000000000000000000000000000000000000000000165afa9283156133f057600093613e44575b50505190519060018201809211612b895703613e3f57600090565b600190565b613e5b929350803d10613a9657613a87818361285e565b50903880613e24565b906000918051613e80575b60200151613e7957565b9060021790565b60019250613e6f565b6001600160a01b03600054163303613e9d57565b606460405162461bcd60e51b815260206004820152602060248201527f4f776e61626c653a2063616c6c6572206973206e6f7420746865206f776e65726044820152fd5b6e5af43d82803e903d91602b57fd5bf390763d602d80600a3d3981f3363d3d373d3d3d363d7300000062ffffff8260881c161760005260781b17602052603760096000f0906001600160a01b03821615613f3757565b606460405162461bcd60e51b815260206004820152601660248201527f455243313136373a20637265617465206661696c6564000000000000000000006044820152fdfea264697066735822122008b8ed1c7e590622057d15420e3e721c655321ab74fc5181b2393cfb78f756f064736f6c63430008140033",
    "linkReferences": {}
  },
  "methodIdentifiers": {
    "SPLIT_DOMAIN()": "ff16a2f2",
    "ballkidzProjectId()": "0d75b3aa",
    "changeFee(uint256)": "6a1db1bf",
    "claimProtocolProjectToken()": "ca449a25",
    "controller()": "f77c4791",
    "currentGamePhaseOf(uint256)": "0715610a",
    "delegateCodeOrigin()": "06b552b5",
    "delegatesRegistry()": "d574ff04",
    "distributionOpsOf(uint256)": "53292c68",
    "feeDivisor()": "9a36f932",
    "governorCodeOrigin()": "ff2a43cc",
    "launchGameWith((string,(string,uint256),string,string,(uint80,uint16,address,bytes32,bool,string)[],address,uint48,uint48,uint48,(bool,bool,uint256,uint256,address,uint256,address)[],uint88,address,uint256,uint256,address,address,address))": "1c984202",
    "nextPhaseNeedsQueueing(uint256)": "81312a14",
    "onERC721Received(address,address,uint256,bytes)": "150b7a02",
    "owner()": "8da5cb5b",
    "protocolFeeProjectTokenAccount()": "3f3090d9",
    "queueNextPhaseOf(uint256)": "1c069dbb",
    "renounceOwnership()": "715018a6",
    "timesFor(uint256)": "b07925d3",
    "tokenUriResolverCodeOrigin()": "80f07954",
    "transferOwnership(address)": "f2fde38b"
  },
  "id": 1
}