{
  "abi": [
    {
      "inputs": [
        {
          "internalType": "address",
          "name": "_delegateCodeOrigin",
          "type": "address"
        },
        {
          "internalType": "address",
          "name": "_governorCodeOrigin",
          "type": "address"
        },
        {
          "internalType": "address",
          "name": "_tokenUriResolverCodeOrigin",
          "type": "address"
        },
        {
          "internalType": "contract IJBController3_1",
          "name": "_controller",
          "type": "address"
        },
        {
          "internalType": "contract IJBDelegatesRegistry",
          "name": "_delegatesRegistry",
          "type": "address"
        },
        {
          "internalType": "address",
          "name": "_protocolFeeProjectTokenAccount",
          "type": "address"
        },
        {
          "internalType": "uint256",
          "name": "_ballkidzProjectId",
          "type": "uint256"
        },
        {
          "internalType": "address",
          "name": "_owner",
          "type": "address"
        }
      ],
      "stateMutability": "nonpayable",
      "type": "constructor"
    },
    {
      "inputs": [],
      "name": "GAME_OVER",
      "type": "error"
    },
    {
      "inputs": [],
      "name": "INVALID_FEE_PERCENT",
      "type": "error"
    },
    {
      "inputs": [],
      "name": "INVALID_GAME_CONFIGURATION",
      "type": "error"
    },
    {
      "inputs": [],
      "name": "PHASE_ALREADY_QUEUED",
      "type": "error"
    },
    {
      "inputs": [],
      "name": "SPLITS_DONT_ADD_UP",
      "type": "error"
    },
    {
      "inputs": [],
      "name": "UNEXPECTED_TERMINAL_CURRENCY",
      "type": "error"
    },
    {
      "anonymous": false,
      "inputs": [
        {
          "indexed": true,
          "internalType": "uint256",
          "name": "gameId",
          "type": "uint256"
        },
        {
          "indexed": true,
          "internalType": "contract IDefifaDelegate",
          "name": "delegate",
          "type": "address"
        },
        {
          "indexed": true,
          "internalType": "contract IDefifaGovernor",
          "name": "governor",
          "type": "address"
        },
        {
          "indexed": false,
          "internalType": "contract IJBTokenUriResolver",
          "name": "tokenUriResolver",
          "type": "address"
        },
        {
          "indexed": false,
          "internalType": "address",
          "name": "caller",
          "type": "address"
        }
      ],
      "name": "LaunchGame",
      "type": "event"
    },
    {
      "anonymous": false,
      "inputs": [
        {
          "indexed": true,
          "internalType": "address",
          "name": "previousOwner",
          "type": "address"
        },
        {
          "indexed": true,
          "internalType": "address",
          "name": "newOwner",
          "type": "address"
        }
      ],
      "name": "OwnershipTransferred",
      "type": "event"
    },
    {
      "inputs": [],
      "name": "SPLIT_DOMAIN",
      "outputs": [
        {
          "internalType": "uint256",
          "name": "",
          "type": "uint256"
        }
      ],
      "stateMutability": "view",
      "type": "function"
    },
    {
      "inputs": [],
      "name": "ballkidzProjectId",
      "outputs": [
        {
          "internalType": "uint256",
          "name": "",
          "type": "uint256"
        }
      ],
      "stateMutability": "view",
      "type": "function"
    },
    {
      "inputs": [
        {
          "internalType": "uint256",
          "name": "_percent",
          "type": "uint256"
        }
      ],
      "name": "changeFee",
      "outputs": [],
      "stateMutability": "nonpayable",
      "type": "function"
    },
    {
      "inputs": [],
      "name": "claimProtocolProjectToken",
      "outputs": [],
      "stateMutability": "nonpayable",
      "type": "function"
    },
    {
      "inputs": [],
      "name": "controller",
      "outputs": [
        {
          "internalType": "contract IJBController3_1",
          "name": "",
          "type": "address"
        }
      ],
      "stateMutability": "view",
      "type": "function"
    },
    {
      "inputs": [
        {
          "internalType": "uint256",
          "name": "_gameId",
          "type": "uint256"
        }
      ],
      "name": "currentGamePhaseOf",
      "outputs": [
        {
          "internalType": "uint256",
          "name": "",
          "type": "uint256"
        }
      ],
      "stateMutability": "view",
      "type": "function"
    },
    {
      "inputs": [],
      "name": "delegateCodeOrigin",
      "outputs": [
        {
          "internalType": "address",
          "name": "",
          "type": "address"
        }
      ],
      "stateMutability": "view",
      "type": "function"
    },
    {
      "inputs": [],
      "name": "delegatesRegistry",
      "outputs": [
        {
          "internalType": "contract IJBDelegatesRegistry",
          "name": "",
          "type": "address"
        }
      ],
      "stateMutability": "view",
      "type": "function"
    },
    {
      "inputs": [
        {
          "internalType": "uint256",
          "name": "_gameId",
          "type": "uint256"
        }
      ],
      "name": "distributionLimit",
      "outputs": [
        {
          "internalType": "uint256",
          "name": "",
          "type": "uint256"
        }
      ],
      "stateMutability": "view",
      "type": "function"
    },
    {
      "inputs": [
        {
          "internalType": "uint256",
          "name": "_gameId",
          "type": "uint256"
        }
      ],
      "name": "endOf",
      "outputs": [
        {
          "internalType": "uint256",
          "name": "",
          "type": "uint256"
        }
      ],
      "stateMutability": "view",
      "type": "function"
    },
    {
      "inputs": [],
      "name": "feeDivisor",
      "outputs": [
        {
          "internalType": "uint256",
          "name": "",
          "type": "uint256"
        }
      ],
      "stateMutability": "view",
      "type": "function"
    },
    {
      "inputs": [],
      "name": "governorCodeOrigin",
      "outputs": [
        {
          "internalType": "address",
          "name": "",
          "type": "address"
        }
      ],
      "stateMutability": "view",
      "type": "function"
    },
    {
      "inputs": [
        {
          "components": [
            {
              "internalType": "string",
              "name": "name",
              "type": "string"
            },
            {
              "components": [
                {
                  "internalType": "string",
                  "name": "content",
                  "type": "string"
                },
                {
                  "internalType": "uint256",
                  "name": "domain",
                  "type": "uint256"
                }
              ],
              "internalType": "struct JBProjectMetadata",
              "name": "projectMetadata",
              "type": "tuple"
            },
            {
              "internalType": "string",
              "name": "contractUri",
              "type": "string"
            },
            {
              "internalType": "string",
              "name": "baseUri",
              "type": "string"
            },
            {
              "components": [
                {
                  "internalType": "uint80",
                  "name": "price",
                  "type": "uint80"
                },
                {
                  "internalType": "uint16",
                  "name": "reservedRate",
                  "type": "uint16"
                },
                {
                  "internalType": "address",
                  "name": "reservedTokenBeneficiary",
                  "type": "address"
                },
                {
                  "internalType": "bytes32",
                  "name": "encodedIPFSUri",
                  "type": "bytes32"
                },
                {
                  "internalType": "bool",
                  "name": "shouldUseReservedTokenBeneficiaryAsDefault",
                  "type": "bool"
                },
                {
                  "internalType": "string",
                  "name": "name",
                  "type": "string"
                }
              ],
              "internalType": "struct DefifaTierParams[]",
              "name": "tiers",
              "type": "tuple[]"
            },
            {
              "internalType": "address",
              "name": "token",
              "type": "address"
            },
            {
              "internalType": "uint48",
              "name": "mintDuration",
              "type": "uint48"
            },
            {
              "internalType": "uint48",
              "name": "refundPeriodDuration",
              "type": "uint48"
            },
            {
              "internalType": "uint48",
              "name": "start",
              "type": "uint48"
            },
            {
              "internalType": "uint48",
              "name": "end",
              "type": "uint48"
            },
            {
              "components": [
                {
                  "internalType": "bool",
                  "name": "preferClaimed",
                  "type": "bool"
                },
                {
                  "internalType": "bool",
                  "name": "preferAddToBalance",
                  "type": "bool"
                },
                {
                  "internalType": "uint256",
                  "name": "percent",
                  "type": "uint256"
                },
                {
                  "internalType": "uint256",
                  "name": "projectId",
                  "type": "uint256"
                },
                {
                  "internalType": "address payable",
                  "name": "beneficiary",
                  "type": "address"
                },
                {
                  "internalType": "uint256",
                  "name": "lockedUntil",
                  "type": "uint256"
                },
                {
                  "internalType": "contract IJBSplitAllocator",
                  "name": "allocator",
                  "type": "address"
                }
              ],
              "internalType": "struct JBSplit[]",
              "name": "splits",
              "type": "tuple[]"
            },
            {
              "internalType": "uint88",
              "name": "distributionLimit",
              "type": "uint88"
            },
            {
              "internalType": "address payable",
              "name": "ballkidzFeeProjectTokenAccount",
              "type": "address"
            },
            {
              "internalType": "uint256",
              "name": "votingPeriod",
              "type": "uint256"
            },
            {
              "internalType": "contract IJBTokenUriResolver",
              "name": "defaultTokenUriResolver",
              "type": "address"
            },
            {
              "internalType": "contract IJBPaymentTerminal",
              "name": "terminal",
              "type": "address"
            },
            {
              "internalType": "contract IJBTiered721DelegateStore",
              "name": "store",
              "type": "address"
            }
          ],
          "internalType": "struct DefifaLaunchProjectData",
          "name": "_launchProjectData",
          "type": "tuple"
        }
      ],
      "name": "launchGameWith",
      "outputs": [
        {
          "internalType": "uint256",
          "name": "gameId",
          "type": "uint256"
        },
        {
          "internalType": "contract IDefifaGovernor",
          "name": "governor",
          "type": "address"
        }
      ],
      "stateMutability": "nonpayable",
      "type": "function"
    },
    {
      "inputs": [
        {
          "internalType": "uint256",
          "name": "_gameId",
          "type": "uint256"
        }
      ],
      "name": "mintDurationOf",
      "outputs": [
        {
          "internalType": "uint256",
          "name": "",
          "type": "uint256"
        }
      ],
      "stateMutability": "view",
      "type": "function"
    },
    {
      "inputs": [
        {
          "internalType": "uint256",
          "name": "_gameId",
          "type": "uint256"
        }
      ],
      "name": "nextPhaseNeedsQueueing",
      "outputs": [
        {
          "internalType": "bool",
          "name": "",
          "type": "bool"
        }
      ],
      "stateMutability": "view",
      "type": "function"
    },
    {
      "inputs": [
        {
          "internalType": "address",
          "name": "",
          "type": "address"
        },
        {
          "internalType": "address",
          "name": "",
          "type": "address"
        },
        {
          "internalType": "uint256",
          "name": "",
          "type": "uint256"
        },
        {
          "internalType": "bytes",
          "name": "",
          "type": "bytes"
        }
      ],
      "name": "onERC721Received",
      "outputs": [
        {
          "internalType": "bytes4",
          "name": "",
          "type": "bytes4"
        }
      ],
      "stateMutability": "pure",
      "type": "function"
    },
    {
      "inputs": [],
      "name": "owner",
      "outputs": [
        {
          "internalType": "address",
          "name": "",
          "type": "address"
        }
      ],
      "stateMutability": "view",
      "type": "function"
    },
    {
      "inputs": [],
      "name": "protocolFeeProjectTokenAccount",
      "outputs": [
        {
          "internalType": "address",
          "name": "",
          "type": "address"
        }
      ],
      "stateMutability": "view",
      "type": "function"
    },
    {
      "inputs": [
        {
          "internalType": "uint256",
          "name": "_gameId",
          "type": "uint256"
        }
      ],
      "name": "queueNextPhaseOf",
      "outputs": [
        {
          "internalType": "uint256",
          "name": "configuration",
          "type": "uint256"
        }
      ],
      "stateMutability": "nonpayable",
      "type": "function"
    },
    {
      "inputs": [
        {
          "internalType": "uint256",
          "name": "_gameId",
          "type": "uint256"
        }
      ],
      "name": "refundPeriodDurationOf",
      "outputs": [
        {
          "internalType": "uint256",
          "name": "",
          "type": "uint256"
        }
      ],
      "stateMutability": "view",
      "type": "function"
    },
    {
      "inputs": [],
      "name": "renounceOwnership",
      "outputs": [],
      "stateMutability": "nonpayable",
      "type": "function"
    },
    {
      "inputs": [
        {
          "internalType": "uint256",
          "name": "_gameId",
          "type": "uint256"
        }
      ],
      "name": "startOf",
      "outputs": [
        {
          "internalType": "uint256",
          "name": "",
          "type": "uint256"
        }
      ],
      "stateMutability": "view",
      "type": "function"
    },
    {
      "inputs": [
        {
          "internalType": "uint256",
          "name": "_gameId",
          "type": "uint256"
        }
      ],
      "name": "terminalOf",
      "outputs": [
        {
          "internalType": "contract IJBPaymentTerminal",
          "name": "",
          "type": "address"
        }
      ],
      "stateMutability": "view",
      "type": "function"
    },
    {
      "inputs": [
        {
          "internalType": "uint256",
          "name": "_gameId",
          "type": "uint256"
        }
      ],
      "name": "timesFor",
      "outputs": [
        {
          "components": [
            {
              "internalType": "uint48",
              "name": "mintDuration",
              "type": "uint48"
            },
            {
              "internalType": "uint48",
              "name": "refundPeriodDuration",
              "type": "uint48"
            },
            {
              "internalType": "uint48",
              "name": "start",
              "type": "uint48"
            },
            {
              "internalType": "uint48",
              "name": "end",
              "type": "uint48"
            }
          ],
          "internalType": "struct DefifaTimeData",
          "name": "",
          "type": "tuple"
        }
      ],
      "stateMutability": "view",
      "type": "function"
    },
    {
      "inputs": [],
      "name": "tokenUriResolverCodeOrigin",
      "outputs": [
        {
          "internalType": "address",
          "name": "",
          "type": "address"
        }
      ],
      "stateMutability": "view",
      "type": "function"
    },
    {
      "inputs": [
        {
          "internalType": "address",
          "name": "newOwner",
          "type": "address"
        }
      ],
      "name": "transferOwnership",
      "outputs": [],
      "stateMutability": "nonpayable",
      "type": "function"
    }
  ],
  "bytecode": {
    "object": "0x61016034620001cc57620040b838819003601f8101601f191683016001600160401b03811184821017620001d15783928291604052833961010092839181010312620001cc576200005081620001e7565b906200005f60208201620001e7565b916200006e60408301620001e7565b60608301516001600160a01b0393919291908481168103620001cc5760808201519485168503620001cc57620000f693620000ac60a08401620001e7565b96620000c060e060c08601519501620001e7565b94620000cc33620001fc565b6001600355601460045560a05260c05260e0528652610120948552610140938452608052620001fc565b60405191613e749384620002448539608051848181611a4401528181611b82015281816127e30152613669015260a0518481816109d90152612939015260c05184818161015e0152611291015260e05184818161187801526125330152518381816101c1015281816106d601528181610a5d01528181610c010152818161125601528181611b0401528181611fde0152818161232e015281816128380152818161301f0152818161309a0152818161342301526135fe0152518281816120f901526126820152518181816113780152611f9d0152f35b600080fd5b634e487b7160e01b600052604160045260246000fd5b51906001600160a01b0382168203620001cc57565b600080546001600160a01b039283166001600160a01b03198216811783559216907f8be0079c531659141344cd1fd0a4f28419497f9722a3daafe3b4186f6b6457e09080a356fe608080604052600436101561001357600080fd5b600090813560e01c9081630589d2921461295d5750806306b552b5146129195780630715610a146128065780630d75b3aa146127cb5780631109fff214612796578063150b7a021461270a5780631c069dbb146126e357806327655cfd146126a65780633f3090d9146126625780634fe0eced1461262f5780636a1db1bf146125bd578063715018a61461255757806380f079541461251357806381312a14146123015780638da5cb5b146122db5780639a36f932146122bd578063b07925d31461221e578063b41e7f47146121e9578063b965933e146121b4578063ca449a2514611fc1578063d574ff0414611f7d578063e75107a3146102cc578063f2fde38b146101e5578063f77c4791146101a1578063ff16a2f2146101855763ff2a43cc1461013f57600080fd5b3461018257806003193601126101825760206040516001600160a01b037f0000000000000000000000000000000000000000000000000000000000000000168152f35b80fd5b5034610182578060031936011261018257602090604051908152f35b503461018257806003193601126101825760206040516001600160a01b037f0000000000000000000000000000000000000000000000000000000000000000168152f35b5034610182576020600319360112610182576101ff61298c565b610207613d4c565b6001600160a01b03809116908115610262576000548273ffffffffffffffffffffffffffffffffffffffff19821617600055167f8be0079c531659141344cd1fd0a4f28419497f9722a3daafe3b4186f6b6457e0600080a380f35b608460405162461bcd60e51b815260206004820152602660248201527f4f776e61626c653a206e6577206f776e657220697320746865207a65726f206160448201527f64647265737300000000000000000000000000000000000000000000000000006064820152fd5b50346101825760206003193601126101825767ffffffffffffffff6004351161018257610220600319600435360301126101825760405190610220820182811067ffffffffffffffff821117611f63576040526004356004013567ffffffffffffffff811161156557610346906004369181350101612aeb565b82526024600435013567ffffffffffffffff8111611565576004350160406003198236030112611565576040519061037d826129e6565b600481013567ffffffffffffffff8111611bea57906103a460249260043691840101612aeb565b83520135602082015260208301526044600435013567ffffffffffffffff8111611565576103d9906004369181350101612aeb565b60408301526064600435013567ffffffffffffffff811161156557610405906004369181350101612aeb565b60608301526084600435013567ffffffffffffffff81116115655736602382600435010112156115655760048181350101359061044182612b32565b9161044f6040519384612aac565b80835260208301913660248360051b8360043501010111611e29576024816004350101925b60248360051b836004350101018410611e2d5750505050608083015261049e60a4600435016129a2565b60a08301526104b160c460043501612b57565b60c08301526104c460e460043501612b57565b60e08301526104d861010460043501612b57565b6101008301526104ed61012460043501612b57565b610120830152610144600435013567ffffffffffffffff8111611565573660238260043501011215611565576105296004828135010135612b32565b906105376040519283612aac565b600480358201908101358084526020840192913660e09092020160240111611bea576024816004350101915b6004803583019081013560e002016024018310611d955750505061014083015260043561016401356affffffffffffffffffffff811690036101825761016460043501356101608301526105bc610184600435016129a2565b6101808301526004356101a48101356101a08401526101c401356001600160a01b0381169003610182576004356101c48101356101c08401526101e401356001600160a01b0381169003610182576004356101e48101356101e084015261020401356001600160a01b038116900361018257610204600435013561020083015265ffffffffffff6101008301511615611d81575b61068a61067765ffffffffffff6101008501511665ffffffffffff60e08601511690612c1c565b65ffffffffffff60c08501511690612c1c565b65ffffffffffff429116108015611d5e575b611d34576040517f8b79543c0000000000000000000000000000000000000000000000000000000081526020816004816001600160a01b037f0000000000000000000000000000000000000000000000000000000000000000165afa908115611480578291611cf1575b5060206001600160a01b03916004604051809481937f06661abd000000000000000000000000000000000000000000000000000000008352165afa908115611480578291611cbf575b50600181018111611cab5765ffffffffffff60c08401511665ffffffffffff60e08501511665ffffffffffff6101008601511665ffffffffffff61012087015116906040519361079e856129b6565b8452602084019283526040840190815260608401918252600185018652600160205265ffffffffffff604087209451167fffffffffffffffff00000000000000000000000000000000000000000000000077ffffffffffff00000000000000000000000000000000000071ffffffffffff0000000000000000000000006bffffffffffff0000000000008854975160301b16945160601b16945160901b1694161717171790556001600160a01b036101e0840151166affffffffffffffffffffff610160850151166001600160a01b0360018160a088015116936040519061088582612a1e565b8152602081019485526040810193845281860187526002602052826040882091511673ffffffffffffffffffffffffffffffffffffffff19825416178155019251167fff000000000000000000000000000000000000000000000000000000000000007effffffffffffffffffffff00000000000000000000000000000000000000008454935160a01b1692161717905561014083015151806119e2575b506080830151519261093484612b32565b936109426040519586612aac565b80855261094e81612b32565b845b601f19820181106119815750506080820151519061098661097083612b32565b9261097e6040519485612aac565b808452612b32565b855b601f198201811061196b575050606060a06040516109a581612a57565b87815287602082015287604082015287838201528760808201520152845b8181106118a35750506001600160a01b036109fd7f0000000000000000000000000000000000000000000000000000000000000000613da4565b6101c0840151911694906001600160a01b03161561186b576001600160a01b036101c084015116915b604051967fc41c2f240000000000000000000000000000000000000000000000000000000088526020886004816001600160a01b037f0000000000000000000000000000000000000000000000000000000000000000165afa97881561167b578398611827575b5084518360018801807a184f03e93ff9f4daa797ed6e38ed64bf6a1f01000000000000000080821015611816575b506d04ee2d6d415b85acef810000000080821015611809575b50662386f26fc10000808210156117fc575b506305f5e100808210156117ef575b506127108110156117e0575b60648110156117d2575b600a809110156117c8575b6001830191816000196021601f19610b46610b3088612acf565b97610b3e604051998a612aac565b808952612acf565b019660208701973689378601015b01917f30313233343536373839616263646566000000000000000000000000000000008282061a835304908115610b8f576000198391610b54565b5050506027610be491610bd4936040519485927f4445464946412000000000000000000000000000000000000000000000000000602085015251809285850190612daa565b8101036007810184520182612aac565b60405163557e715560e01b81526020816004816001600160a01b037f0000000000000000000000000000000000000000000000000000000000000000165afa9081156117bd57869161178e575b5060608801516040890151916001600160a01b036101e08b0151169360206001600160a01b0360a08d0151166024604051809881937f1982d67900000000000000000000000000000000000000000000000000000000835260048301525afa94851561178357908d9695949392918a9561174c575b506001600160a01b036102008d0151169560405197610cc4896129b6565b8b89528b60208a01528b60408a0152600160608a01523b1561174857928f989491928b97938f9799956040519b8c997fc7223686000000000000000000000000000000000000000000000000000000008b5260010160048b01526001600160a01b031660248a0152604489016101e090526101e48901610d4391612dcd565b8881036003190160648a0152610d5891612dcd565b906001600160a01b031660848801528681036003190160a4880152610d7c91612dcd565b6001600160a01b038c1660c48701528581036003190160e4870152610da091612dcd565b848103600319016101048601528351908181526020019360200190865b818110611686575050509060609165ffffffffffff859697166101248601526101448501528051151561016485015260208101511515610184850152604081015115156101a4850152015115156101c48301520381838b5af1801561167b57908391611667575b50506001600160a01b036101c08501511615611571575b506101e083015160a08401516040517fdf21a7dd0000000000000000000000000000000000000000000000000000000081526001600160a01b0391821660048201526001870160248201529160209183916044918391165afa908115611480578291611533575b5015611509576103e06024604051610eb9816129e6565b60018152602036818301376001600160a01b036101e087015116610edc82612c34565b526111e660208701516111d365ffffffffffff60c08a0151169160405192610f03846129b6565b8352876020840152876040840152876060840152604051610f2381612a1e565b888152886020820152886040820152610f50604051610f41816129e6565b8a815260016020820152613d27565b60405191610f5d83612a73565b8252896020830152612710604083015261271060608301528960808301528960a08301528960c08301528960e08301528961010083015289610120830152896101408301528961016083015289610180830152896101a083015260016101c083015260016101e08301528d61020083015261022082015265ffffffffffff6110048c8260e0610ffa82610100850151168360c08601511690612c1c565b9201511690612c1c565b6111ba6040519361101485612a90565b600085526110b1604051986110288a612a90565b60008a526040519d8e9d8e7fb3c5267300000000000000000000000000000000000000000000000000000000815230600482015201528c610404602061107c8b5160406103e4860152610424850190612dcd565b9a0151910152805160448e0152602081015160648e0152604081015160848e0152606001516001600160a01b031660a48d0152565b80518051151560c48d0152602080820151151560e48e015260409182015115156101048e01528201516101248d01528101516101448c015260608101516101648c0152608081015115156101848c015260a081015115156101a48c015260c081015115156101c48c015260e081015115156101e48c015261010081015115156102048c015261012081015115156102248c015261014081015115156102448c015261016081015115156102648c015261018081015115156102848c01526101a081015115156102a48c01526101c081015115156102c48c01526101e081015115156102e48c01526102008101516001600160a01b03166103048c015261022001516103248b0152565b1661034488015260031987830301610364880152612cbb565b9060031985830301610384860152613cb3565b600319838203016103a484015260208083519283815201920190855b8181106114e757505050906040827f4465666966612067616d6520706861736520312e0000000000000000000000006020848196039260031984016103c48701526014815201520181856001600160a01b037f0000000000000000000000000000000000000000000000000000000000000000165af18015611480576114b7575b506001600160a01b036112b57f0000000000000000000000000000000000000000000000000000000000000000613da4565b16926101a065ffffffffffff61012083015116910151843b1561148b57604051917f7a1ac61e00000000000000000000000000000000000000000000000000000000835287600484015260248301526044820152818160648183885af18015611480579082916114a3575b5050843b15610182576040517ff2fde38b0000000000000000000000000000000000000000000000000000000081528360048201528181602481838a5af180156114805790829161148f575b50506001600160a01b037f000000000000000000000000000000000000000000000000000000000000000016600354813b1561148b576040517f5bcfd21200000000000000000000000000000000000000000000000000000000815230600482015260248101919091529082908290604490829084905af180156114805790829161146c575b5050600354906003820180921161145857509382916040956003556001600160a01b038651911681523360208201527f3082991f3dda023098e5849ea3903c6fbfd657dc6f9232f5eb81ad8a7ba161d6866001870192a460018351920182526020820152f35b80634e487b7160e01b602492526011600452fd5b611475906129d2565b6101825780866113f2565b6040513d84823e3d90fd5b8280fd5b611498906129d2565b61018257808661136c565b6114ac906129d2565b610182578086611320565b602090813d83116114e0575b6114cd8183612aac565b810103126114db5785611283565b600080fd5b503d6114c3565b82516001600160a01b0316845285945060209384019390920191600101611202565b60046040517f3727b396000000000000000000000000000000000000000000000000000000008152fd5b90506020813d602011611569575b8161154e60209383612aac565b810103126115655761155f90612df2565b86610ea2565b5080fd5b3d9150611541565b6001600160a01b0383163b15611565578160405180927f94e6f56f000000000000000000000000000000000000000000000000000000008252604482018960048401526040602484015281518091526064830190602060648260051b86010193019185905b82821061161a575050505081900381836001600160a01b0388165af1801561148057908291611606575b50610e3b565b61160f906129d2565b610182578086611600565b929550926020611656827fffffffffffffffffffffffffffffffffffffffffffffffffffffffffffffff9c600195988495030186528851612dcd565b9601920192019285938795936115d6565b611670906129d2565b611565578187610e24565b6040513d85823e3d90fd5b929550929550959260206101606001926101408a516cffffffffffffffffffffffffff815116835263ffffffff80868301511686850152604082015116604084015261ffff60608201511660608401526001600160a01b03608082015116608084015260a081015160a084015262ffffff60c08201511660c084015260e0810151151560e08401526101008101511515610100840152610120810151151561012084015201511515610140820152019701910190899592889592979497610dbd565b8a80fd5b965093506020863d60201161177b575b8161176960209383612aac565b810103126114db578c95519338610ca6565b3d915061175c565b6040513d8b823e3d90fd5b6117b0915060203d6020116117b6575b6117a88183612aac565b810190612b6a565b38610c31565b503d61179e565b6040513d88823e3d90fd5b9160010191610b16565b606460029104920191610b0b565b61271060049104920191610b01565b6008910492019138610af5565b6010910492019138610ae6565b6020910492019138610ad4565b6040935060018b0104905038610abb565b9097506020813d602011611863575b8161184360209383612aac565b8101031261148b57516001600160a01b038116810361148b579638610a8d565b3d9150611836565b6001600160a01b0361189c7f0000000000000000000000000000000000000000000000000000000000000000613da4565b1691610a26565b8060a06118b66001936080880151612c57565b5169ffffffffffffffffffff81511661ffff6020830151166001600160a01b036040840151166060840151906080850151151592604051946118f786612a3a565b8552633b9ac9ff602086015288604086015260608501526080840152848301528a60c08301528a60e08301526101008201528961012082015284610140820152611941848c612c57565b5261194c838b612c57565b5001516119598286612c57565b526119648185612c57565b50016109c3565b602081606082601f199488010152019050610988565b6020601f199160405161199381612a3a565b88815288838201528860408201528860608201528860808201528860a08201528860c08201528860e082015288610100820152886101208201528861014082015282828b010152019050610950565b600454908115611c9757839084905b808210611c58575050633b9aca0090828204820390828211611c445703611c1a57611a92916001600160a01b03610180870151169060405192611a3384612a02565b8684528660208501520460408301527f0000000000000000000000000000000000000000000000000000000000000000606083015260808201528360a08201528360c0820152610140850151805191611a8c8383612c57565b52612c57565b50611a9b612c6b565b61014084015160405190611aae826129e6565b6001840182526020820152611ac282612c34565b52611acc81612c34565b50604051907f2bdfe0040000000000000000000000000000000000000000000000000000000082526020826004816001600160a01b037f0000000000000000000000000000000000000000000000000000000000000000165afa918215611c0f578492611bee575b506001600160a01b0382163b15611bea57611bbd6001600160a01b03928592836040519586809581947ff2da44b60000000000000000000000000000000000000000000000000000000083527f00000000000000000000000000000000000000000000000000000000000000006004840152846024840152606060448401526064830190612cbb565b0393165af1801561167b57908391611bd6575b50610923565b611bdf906129d2565b611565578138611bd0565b8380fd5b611c0891925060203d6020116117b6576117a88183612aac565b9038611b34565b6040513d86823e3d90fd5b60046040517f48270162000000000000000000000000000000000000000000000000000000008152fd5b602486634e487b7160e01b81526011600452fd5b90916040611c6b846101408a0151612c57565b5101518101809111611c815791600101906119f1565b634e487b7160e01b600052601160045260246000fd5b602484634e487b7160e01b81526012600452fd5b602482634e487b7160e01b81526011600452fd5b90506020813d602011611ce9575b81611cda60209383612aac565b810103126114db57513861074f565b3d9150611ccd565b90506020813d602011611d2c575b81611d0c60209383612aac565b8101031261156557516001600160a01b0381168103611565576020610706565b3d9150611cff565b60046040517f74f88142000000000000000000000000000000000000000000000000000000008152fd5b5065ffffffffffff6101208301511665ffffffffffff610100840151161161069c565b65ffffffffffff4216610100830152610650565b60e083360312611e2957604051611dab81612a02565b611db484612b4a565b8152611dc260208501612b4a565b60208201526040840135604082015260608401356060820152611de7608085016129a2565b608082015260a0848101359082015260c08401356001600160a01b0381169003611e255760c08481013590820152815260e090920191602001610563565b8580fd5b8480fd5b833567ffffffffffffffff8111611f795760c07fffffffffffffffffffffffffffffffffffffffffffffffffffffffffffffffdc8285600435010136030112611f7957604051908160c081011067ffffffffffffffff60c084011117611f635760c08201604052600435840181016024013569ffffffffffffffffffff81169003611f5f5760043584018101602481013583526044013561ffff81169003611f5f576004358401810160448101356020840152611eec906064016129a2565b60408301526004358401810160848101356060840152611f0e9060a401612b4a565b608083015267ffffffffffffffff60c482866004350101013511611f5f576024926020928392611f4d90369060043589010160c4810135018701612aeb565b60a08201528152019401939050610474565b8780fd5b634e487b7160e01b600052604160045260246000fd5b8680fd5b503461018257806003193601126101825760206040516001600160a01b037f0000000000000000000000000000000000000000000000000000000000000000168152f35b50346101825780600319360112610182576001600160a01b0381817f00000000000000000000000000000000000000000000000000000000000000001691604051907f6193063000000000000000000000000000000000000000000000000000000000938483526020928381600481855afa9081156121a95784918491879161218c575b50169560046040518094819382525afa908115611c0f5782918491869161216f575b506044604051809481937f5287af3700000000000000000000000000000000000000000000000000000000835230600484015260016024840152165afa928315611c0f57849361213f575b5050833b1561148b576084908360405195869485937fac689bcd000000000000000000000000000000000000000000000000000000008552306004860152600160248601527f000000000000000000000000000000000000000000000000000000000000000016604485015260648401525af1801561148057612133575080f35b61213c906129d2565b80f35b9080929350813d8311612168575b6121578183612aac565b8101031261148b57519038806120b2565b503d61214d565b6121869150823d84116117b6576117a88183612aac565b38612067565b6121a39150833d85116117b6576117a88183612aac565b38612045565b6040513d87823e3d90fd5b50346101825760206003193601126101825765ffffffffffff6040602092600435815260018452205460901c16604051908152f35b50346101825760206003193601126101825765ffffffffffff6040602092600435815260018452205460601c16604051908152f35b50346101825760206003193601126101825760408160809260608351612243816129b6565b8281528260208201528285820152015260043581526001602052206040519061226b826129b6565b5465ffffffffffff9081808216938481528160208201818560301c16815281606060408501948288831c168652019560901c168552604051968752511660208601525116604084015251166060820152f35b50346101825780600319360112610182576020600454604051908152f35b50346101825780600319360112610182576001600160a01b036020915416604051908152f35b503461018257602090816003193601126101825760405163557e715560e01b808252916001600160a01b037f0000000000000000000000000000000000000000000000000000000000000000811660048035908790869081855afa948515611c0f5784956124f2575b5082939495604051967f43a266c200000000000000000000000000000000000000000000000000000000885282600489015287602481610120988994165afa9687156117bd5790889187986124b6575b5060046040518095819382525afa9182156121a957908492918692612494575b5060249060405194859384927f5c5500780000000000000000000000000000000000000000000000000000000084526004840152165afa92831561248857809361244c575b50505082600483511415928361243b575b506040518315158152f35b810151910151149050388281612430565b90918093503d8411612481575b6124638184612aac565b8201928284031261018257509061247991612b89565b38808061241f565b503d612459565b604051903d90823e3d90fd5b60249192506124af90893d8b116117b6576117a88183612aac565b91906123da565b91509650843d86116124eb575b6124cd8183612aac565b8101908581830312611f795788916124e491612b89565b96386123ba565b503d6124c3565b8394955061250c90883d8a116117b6576117a88183612aac565b949361236a565b503461018257806003193601126101825760206040516001600160a01b037f0000000000000000000000000000000000000000000000000000000000000000168152f35b5034610182578060031936011261018257612570613d4c565b806001600160a01b03815473ffffffffffffffffffffffffffffffffffffffff1981168355167f8be0079c531659141344cd1fd0a4f28419497f9722a3daafe3b4186f6b6457e08280a380f35b5034610182576020600319360112610182576004356125da613d4c565b600581116126055780156125f15760640460045580f35b602482634e487b7160e01b81526012600452fd5b60046040517f42c9b523000000000000000000000000000000000000000000000000000000008152fd5b5034610182576020600319360112610182576001600160a01b036040602092600435815260028452205416604051908152f35b503461018257806003193601126101825760206040516001600160a01b037f0000000000000000000000000000000000000000000000000000000000000000168152f35b5034610182576020600319360112610182576affffffffffffffffffffff6001604060209360043581526002855220015460a01c16604051908152f35b5034610182576020600319360112610182576020612702600435612fe2565b604051908152f35b50346101825760806003193601126101825761272461298c565b506024356001600160a01b038116036101825760643567ffffffffffffffff80821161148b573660238301121561148b57816004013590811161148b57369101602401116101825760206040517f150b7a02000000000000000000000000000000000000000000000000000000008152f35b50346101825760206003193601126101825765ffffffffffff6040602092600435815260018452205460301c16604051908152f35b503461018257806003193601126101825760206040517f00000000000000000000000000000000000000000000000000000000000000008152f35b5034610182576020600319360112610182576040519063557e715560e01b82526001600160a01b0391602081600481867f0000000000000000000000000000000000000000000000000000000000000000165afa9081156114805782916128fb575b50604051907f43a266c2000000000000000000000000000000000000000000000000000000008252600435600483015281602481610120968794165afa9182156124885780926128bf575b60208351604051908152f35b909150823d84116128f4575b6128d58184612aac565b8201928284031261018257506020916128ed91612b89565b38806128b3565b503d6128cb565b612913915060203d81116117b6576117a88183612aac565b38612868565b503461018257806003193601126101825760206040516001600160a01b037f0000000000000000000000000000000000000000000000000000000000000000168152f35b9050346115655760206003193601126115655765ffffffffffff60406020936004358152600185522054168152f35b600435906001600160a01b03821682036114db57565b35906001600160a01b03821682036114db57565b6080810190811067ffffffffffffffff821117611f6357604052565b67ffffffffffffffff8111611f6357604052565b6040810190811067ffffffffffffffff821117611f6357604052565b60e0810190811067ffffffffffffffff821117611f6357604052565b6060810190811067ffffffffffffffff821117611f6357604052565b610160810190811067ffffffffffffffff821117611f6357604052565b60c0810190811067ffffffffffffffff821117611f6357604052565b610240810190811067ffffffffffffffff821117611f6357604052565b6020810190811067ffffffffffffffff821117611f6357604052565b90601f601f19910116810190811067ffffffffffffffff821117611f6357604052565b67ffffffffffffffff8111611f6357601f01601f191660200190565b81601f820112156114db57803590612b0282612acf565b92612b106040519485612aac565b828452602083830101116114db57816000926020809301838601378301015290565b67ffffffffffffffff8111611f635760051b60200190565b359081151582036114db57565b359065ffffffffffff821682036114db57565b908160209103126114db57516001600160a01b03811681036114db5790565b80929161012091829103126114db5760405190810181811067ffffffffffffffff821117611f63576040528092805182526020810151602083015260408101516040830152606081015160608301526080810151608083015260a081015160a083015260c081015160c083015260e08101516001600160a01b03811681036114db5760e083015261010080910151910152565b65ffffffffffff9182169082160391908211611c8157565b805115612c415760200190565b634e487b7160e01b600052603260045260246000fd5b8051821015612c415760209160051b010190565b604090815191612c7a836129e6565b600183528291600091825b602080821015612cb257825160209291612c9e826129e6565b868252606081830152828901015201612c85565b50505091925050565b90808183519182825260208080809401958560051b0101950193600080925b858410612ceb575050505050505090565b9091929387601f19838398999a0301855288519060408381830193805184520151928185840152835180915284606080940194019287925b828410612d455750505050509080600192990194019401929594939190612cda565b91939560e06001929496885180511515825283810151151584830152858101518683015286810151878301526001600160a01b0360808181840151169084015260a0808301519084015260c08092015116908201520196019401918a95949391612d23565b60005b838110612dbd5750506000910152565b8181015183820152602001612dad565b90601f19601f602093612deb81518092818752878088019101612daa565b0116010190565b519081151582036114db57565b80820392916103a084126114db57612e387ffffffffffffffffffffffffffffffffffffffffffffffffffffffffffffffee09183612b89565b9301610280908181126114db5760405192610240928385019267ffffffffffffffff9086851082861117611f63576060136114db576102a09086820190811185821017611f635760405261012090612e91848301612df2565b8552610140612ea1858201612df2565b9561026096878a015261016090818701612eba90612df2565b868b01528952610180918287015160208b01526101a0938488015160408c01526101c0958689015160608d01526101e0978c898b01612ef890612df2565b90608001528c6102009b8c8c01612f0e90612df2565b60a08301526102209d8e8d01612f2390612df2565b60c08401528c01612f3390612df2565b60e08301528b01612f4390612df2565b9061010001528901612f5490612df2565b908c01528701612f6390612df2565b908a0152612f746102c08701612df2565b90890152612f856102e08601612df2565b90880152612f966103008501612df2565b90870152612fa76103208401612df2565b90860152612fb86103408301612df2565b908501526103608101516001600160a01b03811681036114db576103809285015201519082015290565b6040517f8776c4990000000000000000000000000000000000000000000000000000000081528160048201526103a0816024816001600160a01b037f0000000000000000000000000000000000000000000000000000000000000000165afa908115613486576000908192613c8f575b50600481511015613c65576040517f12b37b140000000000000000000000000000000000000000000000000000000081528360048201526103a0816024816001600160a01b037f0000000000000000000000000000000000000000000000000000000000000000165afa90811561348657600091613c33575b5060208083015191015103613c0957516001810361349257509060209060406001600160a01b03610200809501511682600052600184528160002094825195613113876129b6565b5495606065ffffffffffff8089168352808960301c169889898501528181841c168785015260901c1691015282519561314b876129b6565b86526000858701526000838701526000606087015282519161316c83612a1e565b60008352600086840152600084840152613199845161318a816129e6565b60008152600188820152613d27565b918451936131a685612a73565b84526000878501526127108086860152606085015260016080850152600060a0850152600060c0850152600060e08501526000610100850152600061012085015260006101408501526000610160850152600061018085015260006101a085015260016101c085015260016101e08501528301526102208201527f4465666966612067616d6520706861736520322e000000000000000000000000846134036133ef855161325381612a90565b600081526133d387519661326688612a90565b600088526132cb89519c8d9b7fbadbdf28000000000000000000000000000000000000000000000000000000008d5260048d015260248c01906001600160a01b0360608092805185526020810151602086015260408101516040860152015116910152565b80518051151560a48c0152602080820151151560c48d0152604091820151151560e48d01528201516101048c01528101516101248b015260608101516101448b0152608081015115156101648b015260a081015115156101848b015260c081015115156101a48b015260e081015115156101c48b015261010081015115156101e48b015261012081015115156102048b015261014081015115156102248b015261016081015115156102448b015261018081015115156102648b01526101a081015115156102848b01526101c081015115156102a48b01526101e081015115156102c48b01526102008101516001600160a01b03166102e48b015261022001516103048a0152565b60006103248901526103a06103448901526103a4880190612cbb565b600319948588830301610364890152613cb3565b858103938401610384870152601481520152018160006001600160a01b037f0000000000000000000000000000000000000000000000000000000000000000165af190811561348657600091613457575090565b906020823d60201161347e575b8161347160209383612aac565b8101031261018257505190565b3d9150613464565b6040513d6000823e3d90fd5b600203613add576102006001600160a01b03910151168160005260026020526040600020906affffffffffffffffffffff6001604051936134d285612a1e565b6001600160a01b03815416855201546001600160a01b038116602085015260a01c16604083015260405191613506836129e6565b6001835260005b60208110613a9c57506001600160a01b038151166001600160a01b036020830151166affffffffffffffffffffff604084015116604051917f1982d679000000000000000000000000000000000000000000000000000000008352806004840152602083602481875afa92831561348657600093613a68575b506040519361359485612a57565b845260208401526040830152606082015260006080820152600060a08201526135bc84612c34565b526135c683612c34565b50604051917f2bdfe0040000000000000000000000000000000000000000000000000000000083526020836004816001600160a01b037f0000000000000000000000000000000000000000000000000000000000000000165afa928315613486576001600160a01b03936000918291613a49575b506064604051809681937f69e11cc50000000000000000000000000000000000000000000000000000000083527f000000000000000000000000000000000000000000000000000000000000000060048401528560248401528a6044840152165afa928315613486576000936138f2575b50927f4465666966612067616d6520706861736520332e00000000000000000000000060206134036133ef61379798966040968499600092805115156000146138d7576133d39293506001600160a01b0387613705612c6b565b9501511661eeee81036138d157506001905b8a5191613723836129e6565b82528782015261373284612c34565b5261373c83612c34565b505b89600052600186528860002061378e8a5191613759836129b6565b54606065ffffffffffff938483168152848360301c168b820152848084841c16938f859084015260901c169182910152612c1c565b8a519d8e6129b6565b168c526000868d01526000898d0152600060608d01528851906137b982612a1e565b6000825260008783015260008a8301526137e68a516137d7816129e6565b60008152600089820152613d27565b908a51926137f384612a73565b835260008884015260008b8401526000606084015260016080840152600060a0840152600160c0840152600060e08401526000610100840152600061012084015260006101408401526000610160840152600061018084015260006101a084015260016101c084015260016101e08401526102008301526102208201526132cb89519c8d9b7fbadbdf28000000000000000000000000000000000000000000000000000000008d5260048d015260248c01906001600160a01b0360608092805185526020810151602086015260408101516040860152015116910152565b90613717565b50916133d391508851906138ea82612a90565b81529161373e565b90923d8082843e6139038184612aac565b60208382810103126115655782519167ffffffffffffffff831161018257818401601f84860101121561018257828401519161393e83612b32565b9461394c6040519687612aac565b8386526020860194828201602060e08702838501010111611bea57602081830101955b602060e08702838501010187106139b25750959795507f4465666966612067616d6520706861736520332e00000000000000000000000094506136ab9350505050565b60e0878585010312611e29576040516139ca81612a02565b6139d388612df2565b81526139e160208901612df2565b6020820152604088015160408201526060880151606082015260808801516001600160a01b0381168103611f7957608082015260a088015160a082015260c08801516001600160a01b0381168103611f795760c0820152815260e0969096019560200161396f565b613a62915060203d6020116117b6576117a88183612aac565b3861363a565b90926020823d602011613a94575b81613a8360209383612aac565b810103126101825750519138613586565b3d9150613a76565b602090604051613aab81612a57565b60008152600083820152600060408201526000606082015260006080820152600060a08201528282870101520161350d565b9060209060406001600160a01b036102008095015116815194613aff866129b6565b6000865260008587015260008387015260006060870152825191613b2283612a1e565b60008352600086840152600084840152613b4f8451613b40816129e6565b60008152600088820152613d27565b91845193613b5c85612a73565b84526000878501526127108086860152606085015260016080850152600060a0850152600060c0850152600060e08501526000610100850152600061012085015260006101408501526000610160850152600061018085015260006101a085015260016101c085015260016101e08501528301526102208201527f4465666966612067616d6520706861736520342e000000000000000000000000846134036133ef855161325381612a90565b60046040517f11f43385000000000000000000000000000000000000000000000000000000008152fd5b613c5791506103a03d6103a011613c5e575b613c4f8183612aac565b810190612dff565b50386130cb565b503d613c45565b60046040517fdc7a2515000000000000000000000000000000000000000000000000000000008152fd5b9050613cac91506103a03d6103a011613c5e57613c4f8183612aac565b9038613052565b90815180825260208080930193019160005b828110613cd3575050505090565b835180516001600160a01b03908116875281840151168684015260408082015190870152606080820151908701526080808201519087015260a0908101519086015260c09094019392810192600101613cc5565b906000918051613d43575b60200151613d3c57565b9060021790565b60019250613d32565b6001600160a01b03600054163303613d6057565b606460405162461bcd60e51b815260206004820152602060248201527f4f776e61626c653a2063616c6c6572206973206e6f7420746865206f776e65726044820152fd5b6e5af43d82803e903d91602b57fd5bf390763d602d80600a3d3981f3363d3d373d3d3d363d7300000062ffffff8260881c161760005260781b17602052603760096000f0906001600160a01b03821615613dfa57565b606460405162461bcd60e51b815260206004820152601660248201527f455243313136373a20637265617465206661696c6564000000000000000000006044820152fdfea2646970667358221220e8203509f96fa453010383027950b2d65819ae776a1d44e431bac6159066c55b64736f6c63430008110033",
    "linkReferences": {}
  },
  "methodIdentifiers": {
    "SPLIT_DOMAIN()": "ff16a2f2",
    "ballkidzProjectId()": "0d75b3aa",
    "changeFee(uint256)": "6a1db1bf",
    "claimProtocolProjectToken()": "ca449a25",
    "controller()": "f77c4791",
    "currentGamePhaseOf(uint256)": "0715610a",
    "delegateCodeOrigin()": "06b552b5",
    "delegatesRegistry()": "d574ff04",
    "distributionLimit(uint256)": "27655cfd",
    "endOf(uint256)": "b965933e",
    "feeDivisor()": "9a36f932",
    "governorCodeOrigin()": "ff2a43cc",
    "launchGameWith((string,(string,uint256),string,string,(uint80,uint16,address,bytes32,bool,string)[],address,uint48,uint48,uint48,uint48,(bool,bool,uint256,uint256,address,uint256,address)[],uint88,address,uint256,address,address,address))": "e75107a3",
    "mintDurationOf(uint256)": "0589d292",
    "nextPhaseNeedsQueueing(uint256)": "81312a14",
    "onERC721Received(address,address,uint256,bytes)": "150b7a02",
    "owner()": "8da5cb5b",
    "protocolFeeProjectTokenAccount()": "3f3090d9",
    "queueNextPhaseOf(uint256)": "1c069dbb",
    "refundPeriodDurationOf(uint256)": "1109fff2",
    "renounceOwnership()": "715018a6",
    "startOf(uint256)": "b41e7f47",
    "terminalOf(uint256)": "4fe0eced",
    "timesFor(uint256)": "b07925d3",
    "tokenUriResolverCodeOrigin()": "80f07954",
    "transferOwnership(address)": "f2fde38b"
  },
  "id": 1
}