{
  "abi": [
    {
      "inputs": [
        {
          "internalType": "address",
          "name": "_delegateCodeOrigin",
          "type": "address"
        },
        {
          "internalType": "address",
          "name": "_governorCodeOrigin",
          "type": "address"
        },
        {
          "internalType": "address",
          "name": "_tokenUriResolverCodeOrigin",
          "type": "address"
        },
        {
          "internalType": "contract IJBController3_1",
          "name": "_controller",
          "type": "address"
        },
        {
          "internalType": "contract IJBDelegatesRegistry",
          "name": "_delegatesRegistry",
          "type": "address"
        },
        {
          "internalType": "address",
          "name": "_protocolFeeProjectTokenAccount",
          "type": "address"
        },
        {
          "internalType": "uint256",
          "name": "_ballkidzProjectId",
          "type": "uint256"
        },
        {
          "internalType": "address",
          "name": "_owner",
          "type": "address"
        }
      ],
      "stateMutability": "nonpayable",
      "type": "constructor"
    },
    {
      "inputs": [],
      "name": "GAME_OVER",
      "type": "error"
    },
    {
      "inputs": [],
      "name": "INVALID_FEE_PERCENT",
      "type": "error"
    },
    {
      "inputs": [],
      "name": "INVALID_GAME_CONFIGURATION",
      "type": "error"
    },
    {
      "inputs": [],
      "name": "PHASE_ALREADY_QUEUED",
      "type": "error"
    },
    {
      "inputs": [],
      "name": "SPLITS_DONT_ADD_UP",
      "type": "error"
    },
    {
      "inputs": [],
      "name": "UNEXPECTED_TERMINAL_CURRENCY",
      "type": "error"
    },
    {
      "anonymous": false,
      "inputs": [
        {
          "indexed": true,
          "internalType": "uint256",
          "name": "gameId",
          "type": "uint256"
        },
        {
          "indexed": true,
          "internalType": "contract IDefifaDelegate",
          "name": "delegate",
          "type": "address"
        },
        {
          "indexed": true,
          "internalType": "contract IDefifaGovernor",
          "name": "governor",
          "type": "address"
        },
        {
          "indexed": false,
          "internalType": "contract IJBTokenUriResolver",
          "name": "tokenUriResolver",
          "type": "address"
        },
        {
          "indexed": false,
          "internalType": "address",
          "name": "caller",
          "type": "address"
        }
      ],
      "name": "LaunchGame",
      "type": "event"
    },
    {
      "anonymous": false,
      "inputs": [
        {
          "indexed": true,
          "internalType": "address",
          "name": "previousOwner",
          "type": "address"
        },
        {
          "indexed": true,
          "internalType": "address",
          "name": "newOwner",
          "type": "address"
        }
      ],
      "name": "OwnershipTransferred",
      "type": "event"
    },
    {
      "inputs": [],
      "name": "SPLIT_DOMAIN",
      "outputs": [
        {
          "internalType": "uint256",
          "name": "",
          "type": "uint256"
        }
      ],
      "stateMutability": "view",
      "type": "function"
    },
    {
      "inputs": [],
      "name": "ballkidzProjectId",
      "outputs": [
        {
          "internalType": "uint256",
          "name": "",
          "type": "uint256"
        }
      ],
      "stateMutability": "view",
      "type": "function"
    },
    {
      "inputs": [
        {
          "internalType": "uint256",
          "name": "_percent",
          "type": "uint256"
        }
      ],
      "name": "changeFee",
      "outputs": [],
      "stateMutability": "nonpayable",
      "type": "function"
    },
    {
      "inputs": [],
      "name": "claimProtocolProjectToken",
      "outputs": [],
      "stateMutability": "nonpayable",
      "type": "function"
    },
    {
      "inputs": [],
      "name": "controller",
      "outputs": [
        {
          "internalType": "contract IJBController3_1",
          "name": "",
          "type": "address"
        }
      ],
      "stateMutability": "view",
      "type": "function"
    },
    {
      "inputs": [
        {
          "internalType": "uint256",
          "name": "_gameId",
          "type": "uint256"
        }
      ],
      "name": "currentGamePhaseOf",
      "outputs": [
        {
          "internalType": "uint256",
          "name": "",
          "type": "uint256"
        }
      ],
      "stateMutability": "view",
      "type": "function"
    },
    {
      "inputs": [],
      "name": "delegateCodeOrigin",
      "outputs": [
        {
          "internalType": "address",
          "name": "",
          "type": "address"
        }
      ],
      "stateMutability": "view",
      "type": "function"
    },
    {
      "inputs": [],
      "name": "delegatesRegistry",
      "outputs": [
        {
          "internalType": "contract IJBDelegatesRegistry",
          "name": "",
          "type": "address"
        }
      ],
      "stateMutability": "view",
      "type": "function"
    },
    {
      "inputs": [
        {
          "internalType": "uint256",
          "name": "_gameId",
          "type": "uint256"
        }
      ],
      "name": "distributionLimit",
      "outputs": [
        {
          "internalType": "uint256",
          "name": "",
          "type": "uint256"
        }
      ],
      "stateMutability": "view",
      "type": "function"
    },
    {
      "inputs": [],
      "name": "feeDivisor",
      "outputs": [
        {
          "internalType": "uint256",
          "name": "",
          "type": "uint256"
        }
      ],
      "stateMutability": "view",
      "type": "function"
    },
    {
      "inputs": [],
      "name": "governorCodeOrigin",
      "outputs": [
        {
          "internalType": "address",
          "name": "",
          "type": "address"
        }
      ],
      "stateMutability": "view",
      "type": "function"
    },
    {
      "inputs": [
        {
          "internalType": "uint256",
          "name": "_gameId",
          "type": "uint256"
        }
      ],
      "name": "isNoContest",
      "outputs": [
        {
          "internalType": "bool",
          "name": "",
          "type": "bool"
        }
      ],
      "stateMutability": "view",
      "type": "function"
    },
    {
      "inputs": [
        {
          "components": [
            {
              "internalType": "string",
              "name": "name",
              "type": "string"
            },
            {
              "components": [
                {
                  "internalType": "string",
                  "name": "content",
                  "type": "string"
                },
                {
                  "internalType": "uint256",
                  "name": "domain",
                  "type": "uint256"
                }
              ],
              "internalType": "struct JBProjectMetadata",
              "name": "projectMetadata",
              "type": "tuple"
            },
            {
              "internalType": "string",
              "name": "contractUri",
              "type": "string"
            },
            {
              "internalType": "string",
              "name": "baseUri",
              "type": "string"
            },
            {
              "components": [
                {
                  "internalType": "uint80",
                  "name": "price",
                  "type": "uint80"
                },
                {
                  "internalType": "uint16",
                  "name": "reservedRate",
                  "type": "uint16"
                },
                {
                  "internalType": "address",
                  "name": "reservedTokenBeneficiary",
                  "type": "address"
                },
                {
                  "internalType": "bytes32",
                  "name": "encodedIPFSUri",
                  "type": "bytes32"
                },
                {
                  "internalType": "bool",
                  "name": "shouldUseReservedTokenBeneficiaryAsDefault",
                  "type": "bool"
                },
                {
                  "internalType": "string",
                  "name": "name",
                  "type": "string"
                }
              ],
              "internalType": "struct DefifaTierParams[]",
              "name": "tiers",
              "type": "tuple[]"
            },
            {
              "internalType": "address",
              "name": "token",
              "type": "address"
            },
            {
              "internalType": "uint48",
              "name": "mintDuration",
              "type": "uint48"
            },
            {
              "internalType": "uint48",
              "name": "refundPeriodDuration",
              "type": "uint48"
            },
            {
              "internalType": "uint48",
              "name": "start",
              "type": "uint48"
            },
            {
              "internalType": "uint48",
              "name": "end",
              "type": "uint48"
            },
            {
              "components": [
                {
                  "internalType": "bool",
                  "name": "preferClaimed",
                  "type": "bool"
                },
                {
                  "internalType": "bool",
                  "name": "preferAddToBalance",
                  "type": "bool"
                },
                {
                  "internalType": "uint256",
                  "name": "percent",
                  "type": "uint256"
                },
                {
                  "internalType": "uint256",
                  "name": "projectId",
                  "type": "uint256"
                },
                {
                  "internalType": "address payable",
                  "name": "beneficiary",
                  "type": "address"
                },
                {
                  "internalType": "uint256",
                  "name": "lockedUntil",
                  "type": "uint256"
                },
                {
                  "internalType": "contract IJBSplitAllocator",
                  "name": "allocator",
                  "type": "address"
                }
              ],
              "internalType": "struct JBSplit[]",
              "name": "splits",
              "type": "tuple[]"
            },
            {
              "internalType": "uint88",
              "name": "distributionLimit",
              "type": "uint88"
            },
            {
              "internalType": "address payable",
              "name": "ballkidzFeeProjectTokenAccount",
              "type": "address"
            },
            {
              "internalType": "uint256",
              "name": "votingPeriod",
              "type": "uint256"
            },
            {
              "internalType": "contract IJBTokenUriResolver",
              "name": "defaultTokenUriResolver",
              "type": "address"
            },
            {
              "internalType": "contract IJBPaymentTerminal",
              "name": "terminal",
              "type": "address"
            },
            {
              "internalType": "contract IJBTiered721DelegateStore",
              "name": "store",
              "type": "address"
            }
          ],
          "internalType": "struct DefifaLaunchProjectData",
          "name": "_launchProjectData",
          "type": "tuple"
        }
      ],
      "name": "launchGameWith",
      "outputs": [
        {
          "internalType": "uint256",
          "name": "gameId",
          "type": "uint256"
        },
        {
          "internalType": "contract IDefifaGovernor",
          "name": "governor",
          "type": "address"
        }
      ],
      "stateMutability": "nonpayable",
      "type": "function"
    },
    {
      "inputs": [
        {
          "internalType": "uint256",
          "name": "_gameId",
          "type": "uint256"
        }
      ],
      "name": "mintDurationOf",
      "outputs": [
        {
          "internalType": "uint256",
          "name": "",
          "type": "uint256"
        }
      ],
      "stateMutability": "view",
      "type": "function"
    },
    {
      "inputs": [
        {
          "internalType": "uint256",
          "name": "_gameId",
          "type": "uint256"
        }
      ],
      "name": "nextPhaseNeedsQueueing",
      "outputs": [
        {
          "internalType": "bool",
          "name": "",
          "type": "bool"
        }
      ],
      "stateMutability": "view",
      "type": "function"
    },
    {
      "inputs": [
        {
          "internalType": "address",
          "name": "",
          "type": "address"
        },
        {
          "internalType": "address",
          "name": "",
          "type": "address"
        },
        {
          "internalType": "uint256",
          "name": "",
          "type": "uint256"
        },
        {
          "internalType": "bytes",
          "name": "",
          "type": "bytes"
        }
      ],
      "name": "onERC721Received",
      "outputs": [
        {
          "internalType": "bytes4",
          "name": "",
          "type": "bytes4"
        }
      ],
      "stateMutability": "pure",
      "type": "function"
    },
    {
      "inputs": [],
      "name": "owner",
      "outputs": [
        {
          "internalType": "address",
          "name": "",
          "type": "address"
        }
      ],
      "stateMutability": "view",
      "type": "function"
    },
    {
      "inputs": [],
      "name": "protocolFeeProjectTokenAccount",
      "outputs": [
        {
          "internalType": "address",
          "name": "",
          "type": "address"
        }
      ],
      "stateMutability": "view",
      "type": "function"
    },
    {
      "inputs": [
        {
          "internalType": "uint256",
          "name": "_gameId",
          "type": "uint256"
        }
      ],
      "name": "queueNextPhaseOf",
      "outputs": [
        {
          "internalType": "uint256",
          "name": "configuration",
          "type": "uint256"
        }
      ],
      "stateMutability": "nonpayable",
      "type": "function"
    },
    {
      "inputs": [
        {
          "internalType": "uint256",
          "name": "_gameId",
          "type": "uint256"
        }
      ],
      "name": "refundPeriodDurationOf",
      "outputs": [
        {
          "internalType": "uint256",
          "name": "",
          "type": "uint256"
        }
      ],
      "stateMutability": "view",
      "type": "function"
    },
    {
      "inputs": [],
      "name": "renounceOwnership",
      "outputs": [],
      "stateMutability": "nonpayable",
      "type": "function"
    },
    {
      "inputs": [
        {
          "internalType": "uint256",
          "name": "_gameId",
          "type": "uint256"
        }
      ],
      "name": "startOf",
      "outputs": [
        {
          "internalType": "uint256",
          "name": "",
          "type": "uint256"
        }
      ],
      "stateMutability": "view",
      "type": "function"
    },
    {
      "inputs": [
        {
          "internalType": "uint256",
          "name": "_gameId",
          "type": "uint256"
        }
      ],
      "name": "terminalOf",
      "outputs": [
        {
          "internalType": "contract IJBPaymentTerminal",
          "name": "",
          "type": "address"
        }
      ],
      "stateMutability": "view",
      "type": "function"
    },
    {
      "inputs": [
        {
          "internalType": "uint256",
          "name": "_gameId",
          "type": "uint256"
        }
      ],
      "name": "timesFor",
      "outputs": [
        {
          "components": [
            {
              "internalType": "uint48",
              "name": "mintDuration",
              "type": "uint48"
            },
            {
              "internalType": "uint48",
              "name": "refundPeriodDuration",
              "type": "uint48"
            },
            {
              "internalType": "uint48",
              "name": "start",
              "type": "uint48"
            }
          ],
          "internalType": "struct DefifaTimeData",
          "name": "",
          "type": "tuple"
        }
      ],
      "stateMutability": "view",
      "type": "function"
    },
    {
      "inputs": [],
      "name": "tokenUriResolverCodeOrigin",
      "outputs": [
        {
          "internalType": "address",
          "name": "",
          "type": "address"
        }
      ],
      "stateMutability": "view",
      "type": "function"
    },
    {
      "inputs": [
        {
          "internalType": "address",
          "name": "newOwner",
          "type": "address"
        }
      ],
      "name": "transferOwnership",
      "outputs": [],
      "stateMutability": "nonpayable",
      "type": "function"
    }
  ],
  "bytecode": {
    "object": "0x61016034620001e1576200420c38819003601f8101601f191683016001600160401b03811184821017620001e65783928291604052833961010092839181010312620001e1576200005081620001fc565b906200005f60208201620001fc565b916200006e60408301620001fc565b60608301516001600160a01b0393919291908481168103620001e15760808201519485168503620001e157620000f693620000ac60a08401620001fc565b96620000c060e060c08601519501620001fc565b94620000cc3362000211565b6001600355601460055560a05260c05260e052865261012094855261014093845260805262000211565b60405191613fb39384620002598539608051848181611a2301528181611b610152818161277701526136ce015260a0518481816109b101526128cd015260c05184818161015e0152611270015260e051848181611857015261249e0152518381816101c1015281816106e401528181610a3501528181610bd90152818161123501528181611ae301528181611f9701528181612298015281816127cc01528181612df5015281816130830152818161311f0152818161349b0152818161366301528181613ca70152613df50152518281816120b201526126160152518181816113570152611f560152f35b600080fd5b634e487b7160e01b600052604160045260246000fd5b51906001600160a01b0382168203620001e157565b600080546001600160a01b039283166001600160a01b03198216811783559216907f8be0079c531659141344cd1fd0a4f28419497f9722a3daafe3b4186f6b6457e09080a356fe608080604052600436101561001357600080fd5b600090813560e01c9081630589d292146128f15750806306b552b5146128ad5780630715610a1461279a5780630d75b3aa1461275f5780631109fff21461272a578063150b7a021461269e5780631c069dbb1461267757806327655cfd1461263a5780633f3090d9146125f65780634fe0eced146125c357806367cb9c991461259a5780636a1db1bf14612528578063715018a6146124c257806380f079541461247e57806381312a141461226b5780638da5cb5b146122455780639a36f93214612227578063b07925d3146121a2578063b41e7f471461216d578063ca449a2514611f7a578063d574ff0414611f36578063e75107a3146102cc578063f2fde38b146101e5578063f77c4791146101a1578063ff16a2f2146101855763ff2a43cc1461013f57600080fd5b3461018257806003193601126101825760206040516001600160a01b037f0000000000000000000000000000000000000000000000000000000000000000168152f35b80fd5b5034610182578060031936011261018257602090604051908152f35b503461018257806003193601126101825760206040516001600160a01b037f0000000000000000000000000000000000000000000000000000000000000000168152f35b5034610182576020600319360112610182576101ff612920565b610207613e8b565b6001600160a01b03809116908115610262576000548273ffffffffffffffffffffffffffffffffffffffff19821617600055167f8be0079c531659141344cd1fd0a4f28419497f9722a3daafe3b4186f6b6457e0600080a380f35b608460405162461bcd60e51b815260206004820152602660248201527f4f776e61626c653a206e6577206f776e657220697320746865207a65726f206160448201527f64647265737300000000000000000000000000000000000000000000000000006064820152fd5b50346101825760206003193601126101825767ffffffffffffffff6004351161018257610220600319600435360301126101825760405190610220820182811067ffffffffffffffff821117611f1c576040526004356004013567ffffffffffffffff811161154457610346906004369181350101612a7f565b82526024600435013567ffffffffffffffff8111611544576004350160406003198236030112611544576040519061037d8261297a565b600481013567ffffffffffffffff8111611bc957906103a460249260043691840101612a7f565b83520135602082015260208301526044600435013567ffffffffffffffff8111611544576103d9906004369181350101612a7f565b60408301526064600435013567ffffffffffffffff811161154457610405906004369181350101612a7f565b60608301526084600435013567ffffffffffffffff81116115445736602382600435010112156115445760048181350101359061044182612ac6565b9161044f6040519384612a40565b80835260208301913660248360051b8360043501010111611de2576024816004350101925b60248360051b836004350101018410611de65750505050608083015261049e60a460043501612936565b60a08301526104b160c460043501612aeb565b60c08301526104c460e460043501612aeb565b60e08301526104d861010460043501612aeb565b6101008301526104ed61012460043501612aeb565b61012083015267ffffffffffffffff61014460043501351161018257366004356101448101350160230112156101825761053260048035610144810135010135612ac6565b61053f6040519182612a40565b60048035610144810135019081013580835260208301913660e0909202016024011161146a5760043561014481013501602401905b60048035610144810135019081013560e002016024018210611d5157505061014083015260043561016401356affffffffffffffffffffff811690036101825761016460043501356101608301526105d161018460043501612936565b6101808301526004356101a48101356101a08401526101c401356001600160a01b0381169003610182576004356101c48101356101c08401526101e401356001600160a01b0381169003610182576004356101e48101356101e084015261020401356001600160a01b038116900361018257610204600435013561020083015265ffffffffffff6101008301511615611d3d575b61069f61068c65ffffffffffff6101008501511665ffffffffffff60e08601511690612e76565b65ffffffffffff60c08501511690612e76565b65ffffffffffff42911610611d13576040517f8b79543c0000000000000000000000000000000000000000000000000000000081526020816004816001600160a01b037f0000000000000000000000000000000000000000000000000000000000000000165afa90811561145f578291611cd0575b5060206001600160a01b03916004604051809481937f06661abd000000000000000000000000000000000000000000000000000000008352165afa90811561145f578291611c9e575b50600181018111611c8a5765ffffffffffff60c08401511665ffffffffffff60e08501511665ffffffffffff610100860151166040519261079d8461294a565b83526020830191825260408301908152600184018552600160205265ffffffffffff604086209351167fffffffffffffffffffffffffffff00000000000000000000000000000000000071ffffffffffff0000000000000000000000006bffffffffffff0000000000008654955160301b16935160601b16931617171790556001600160a01b036101e0840151166affffffffffffffffffffff610160850151166001600160a01b0360018160a088015116936040519061085d8261294a565b8152602081019485526040810193845281860187526002602052826040882091511673ffffffffffffffffffffffffffffffffffffffff19825416178155019251167fff000000000000000000000000000000000000000000000000000000000000007effffffffffffffffffffff00000000000000000000000000000000000000008454935160a01b1692161717905561014083015151806119c1575b506080830151519261090c84612ac6565b9361091a6040519586612a40565b80855261092681612ac6565b845b601f19820181106119605750506080820151519061095e61094883612ac6565b926109566040519485612a40565b808452612ac6565b855b601f198201811061194a575050606060a060405161097d816129cf565b87815287602082015287604082015287838201528760808201520152845b8181106118825750506001600160a01b036109d57f0000000000000000000000000000000000000000000000000000000000000000613ee3565b6101c0840151911694906001600160a01b03161561184a576001600160a01b036101c084015116915b604051967fc41c2f240000000000000000000000000000000000000000000000000000000088526020886004816001600160a01b037f0000000000000000000000000000000000000000000000000000000000000000165afa97881561165a578398611806575b5084518360018801807a184f03e93ff9f4daa797ed6e38ed64bf6a1f010000000000000000808210156117f5575b506d04ee2d6d415b85acef8100000000808210156117e8575b50662386f26fc10000808210156117db575b506305f5e100808210156117ce575b506127108110156117bf575b60648110156117b1575b600a809110156117a7575b6001830191816000196021601f19610b1e610b0888612a63565b97610b16604051998a612a40565b808952612a63565b019660208701973689378601015b01917f30313233343536373839616263646566000000000000000000000000000000008282061a835304908115610b67576000198391610b2c565b5050506027610bbc91610bac936040519485927f4445464946412000000000000000000000000000000000000000000000000000602085015251809285850190612ffd565b8101036007810184520182612a40565b60405163557e715560e01b81526020816004816001600160a01b037f0000000000000000000000000000000000000000000000000000000000000000165afa90811561179c57869161176d575b5060608801516040890151916001600160a01b036101e08b0151169360206001600160a01b0360a08d0151166024604051809881937f1982d67900000000000000000000000000000000000000000000000000000000835260048301525afa94851561176257908d9695949392918a9561172b575b506001600160a01b036102008d0151169560405197610c9c896129eb565b8b89528b60208a01528b60408a0152600160608a01523b1561172757928f989491928b97938f9799956040519b8c997ff78c488b000000000000000000000000000000000000000000000000000000008b5260010160048b01526001600160a01b031660248a01526044890161020090526102048901610d1b91613020565b8881036003190160648a0152610d3091613020565b906001600160a01b031660848801528681036003190160a4880152610d5491613020565b6001600160a01b038c1660c48701528581036003190160e4870152610d7891613020565b848103600319016101048601528351908181526020019360200190865b818110611665575050509060609165ffffffffffff859697166101248601526101448501528051151561016485015260208101511515610184850152604081015115156101a4850152015115156101c4830152306101e48301520381838b5af1801561165a57908391611646575b50506001600160a01b036101c08501511615611550575b506101e083015160a08401516040517fdf21a7dd0000000000000000000000000000000000000000000000000000000081526001600160a01b0391821660048201526001870160248201529160209183916044918391165afa90811561145f578291611512575b50156114e8576103e06024604051610e988161297a565b60018152602036818301376001600160a01b036101e087015116610ebb82612e8e565b526111c560208701516111b265ffffffffffff60c08a0151169160405192610ee2846129eb565b8352876020840152876040840152876060840152604051610f028161294a565b888152886020820152886040820152610f2f604051610f208161297a565b8a815260016020820152613e66565b60405191610f3c83612a07565b8252896020830152612710604083015261271060608301528960808301528960a08301528960c08301528960e08301528961010083015289610120830152896101408301528961016083015289610180830152896101a083015260016101c083015260016101e08301528d61020083015261022082015265ffffffffffff610fe38c8260e0610fd982610100850151168360c08601511690612e76565b9201511690612e76565b61119960405193610ff385612a24565b60008552611090604051986110078a612a24565b60008a526040519d8e9d8e7fb3c5267300000000000000000000000000000000000000000000000000000000815230600482015201528c610404602061105b8b5160406103e4860152610424850190613020565b9a0151910152805160448e0152602081015160648e0152604081015160848e0152606001516001600160a01b031660a48d0152565b80518051151560c48d0152602080820151151560e48e015260409182015115156101048e01528201516101248d01528101516101448c015260608101516101648c0152608081015115156101848c015260a081015115156101a48c015260c081015115156101c48c015260e081015115156101e48c015261010081015115156102048c015261012081015115156102248c015261014081015115156102448c015261016081015115156102648c015261018081015115156102848c01526101a081015115156102a48c01526101c081015115156102c48c01526101e081015115156102e48c01526102008101516001600160a01b03166103048c015261022001516103248b0152565b1661034488015260031987830301610364880152612f15565b9060031985830301610384860152613d37565b600319838203016103a484015260208083519283815201920190855b8181106114c657505050906040827f4465666966612067616d6520706861736520312e0000000000000000000000006020848196039260031984016103c48701526014815201520181856001600160a01b037f0000000000000000000000000000000000000000000000000000000000000000165af1801561145f57611496575b506001600160a01b036112947f0000000000000000000000000000000000000000000000000000000000000000613ee3565b16926101a065ffffffffffff61012083015116910151843b1561146a57604051917f7a1ac61e00000000000000000000000000000000000000000000000000000000835287600484015260248301526044820152818160648183885af1801561145f57908291611482575b5050843b15610182576040517ff2fde38b0000000000000000000000000000000000000000000000000000000081528360048201528181602481838a5af1801561145f5790829161146e575b50506001600160a01b037f000000000000000000000000000000000000000000000000000000000000000016600354813b1561146a576040517f5bcfd21200000000000000000000000000000000000000000000000000000000815230600482015260248101919091529082908290604490829084905af1801561145f5790829161144b575b5050600354906003820180921161143757509382916040956003556001600160a01b038651911681523360208201527f3082991f3dda023098e5849ea3903c6fbfd657dc6f9232f5eb81ad8a7ba161d6866001870192a460018351920182526020820152f35b80634e487b7160e01b602492526011600452fd5b61145490612966565b6101825780866113d1565b6040513d84823e3d90fd5b8280fd5b61147790612966565b61018257808661134b565b61148b90612966565b6101825780866112ff565b602090813d83116114bf575b6114ac8183612a40565b810103126114ba5785611262565b600080fd5b503d6114a2565b82516001600160a01b03168452859450602093840193909201916001016111e1565b60046040517f3727b396000000000000000000000000000000000000000000000000000000008152fd5b90506020813d602011611548575b8161152d60209383612a40565b810103126115445761153e90612bb0565b86610e81565b5080fd5b3d9150611520565b6001600160a01b0383163b15611544578160405180927f94e6f56f000000000000000000000000000000000000000000000000000000008252604482018960048401526040602484015281518091526064830190602060648260051b86010193019185905b8282106115f9575050505081900381836001600160a01b0388165af1801561145f579082916115e5575b50610e1a565b6115ee90612966565b6101825780866115df565b929550926020611635827fffffffffffffffffffffffffffffffffffffffffffffffffffffffffffffff9c600195988495030186528851613020565b9601920192019285938795936115b5565b61164f90612966565b611544578187610e03565b6040513d85823e3d90fd5b929550929550959260206101606001926101408a516cffffffffffffffffffffffffff815116835263ffffffff80868301511686850152604082015116604084015261ffff60608201511660608401526001600160a01b03608082015116608084015260a081015160a084015262ffffff60c08201511660c084015260e0810151151560e08401526101008101511515610100840152610120810151151561012084015201511515610140820152019701910190899592889592979497610d95565b8a80fd5b965093506020863d60201161175a575b8161174860209383612a40565b810103126114ba578c95519338610c7e565b3d915061173b565b6040513d8b823e3d90fd5b61178f915060203d602011611795575b6117878183612a40565b810190612afe565b38610c09565b503d61177d565b6040513d88823e3d90fd5b9160010191610aee565b606460029104920191610ae3565b61271060049104920191610ad9565b6008910492019138610acd565b6010910492019138610abe565b6020910492019138610aac565b6040935060018b0104905038610a93565b9097506020813d602011611842575b8161182260209383612a40565b8101031261146a57516001600160a01b038116810361146a579638610a65565b3d9150611815565b6001600160a01b0361187b7f0000000000000000000000000000000000000000000000000000000000000000613ee3565b16916109fe565b8060a06118956001936080880151612eb1565b5169ffffffffffffffffffff81511661ffff6020830151166001600160a01b036040840151166060840151906080850151151592604051946118d6866129b2565b8552633b9ac9ff602086015288604086015260608501526080840152848301528a60c08301528a60e08301526101008201528961012082015284610140820152611920848c612eb1565b5261192b838b612eb1565b5001516119388286612eb1565b526119438185612eb1565b500161099b565b602081606082601f199488010152019050610960565b6020601f1991604051611972816129b2565b88815288838201528860408201528860608201528860808201528860a08201528860c08201528860e082015288610100820152886101208201528861014082015282828b010152019050610928565b600554908115611c7657839084905b808210611c37575050633b9aca0090828204820390828211611c235703611bf957611a71916001600160a01b03610180870151169060405192611a1284612996565b8684528660208501520460408301527f0000000000000000000000000000000000000000000000000000000000000000606083015260808201528360a08201528360c0820152610140850151805191611a6b8383612eb1565b52612eb1565b50611a7a612ec5565b61014084015160405190611a8d8261297a565b6001840182526020820152611aa182612e8e565b52611aab81612e8e565b50604051907f2bdfe0040000000000000000000000000000000000000000000000000000000082526020826004816001600160a01b037f0000000000000000000000000000000000000000000000000000000000000000165afa918215611bee578492611bcd575b506001600160a01b0382163b15611bc957611b9c6001600160a01b03928592836040519586809581947ff2da44b60000000000000000000000000000000000000000000000000000000083527f00000000000000000000000000000000000000000000000000000000000000006004840152846024840152606060448401526064830190612f15565b0393165af1801561165a57908391611bb5575b506108fb565b611bbe90612966565b611544578138611baf565b8380fd5b611be791925060203d602011611795576117878183612a40565b9038611b13565b6040513d86823e3d90fd5b60046040517f48270162000000000000000000000000000000000000000000000000000000008152fd5b602486634e487b7160e01b81526011600452fd5b90916040611c4a846101408a0151612eb1565b5101518101809111611c605791600101906119d0565b634e487b7160e01b600052601160045260246000fd5b602484634e487b7160e01b81526012600452fd5b602482634e487b7160e01b81526011600452fd5b90506020813d602011611cc8575b81611cb960209383612a40565b810103126114ba57513861075d565b3d9150611cac565b90506020813d602011611d0b575b81611ceb60209383612a40565b8101031261154457516001600160a01b0381168103611544576020610714565b3d9150611cde565b60046040517f74f88142000000000000000000000000000000000000000000000000000000008152fd5b65ffffffffffff4216610100830152610665565b60e082360312611bc957604051611d6781612996565b611d7083612ade565b8152611d7e60208401612ade565b60208201526040830135604082015260608301356060820152611da360808401612936565b608082015260a0838101359082015260c08301356001600160a01b0381169003611de25760e09160209160c085013560c0820152815201910190610574565b8480fd5b833567ffffffffffffffff8111611f325760c07fffffffffffffffffffffffffffffffffffffffffffffffffffffffffffffffdc8285600435010136030112611f3257604051908160c081011067ffffffffffffffff60c084011117611f1c5760c08201604052600435840181016024013569ffffffffffffffffffff81169003611f185760043584018101602481013583526044013561ffff81169003611f18576004358401810160448101356020840152611ea590606401612936565b60408301526004358401810160848101356060840152611ec79060a401612ade565b608083015267ffffffffffffffff60c482866004350101013511611f18576024926020928392611f0690369060043589010160c4810135018701612a7f565b60a08201528152019401939050610474565b8780fd5b634e487b7160e01b600052604160045260246000fd5b8680fd5b503461018257806003193601126101825760206040516001600160a01b037f0000000000000000000000000000000000000000000000000000000000000000168152f35b50346101825780600319360112610182576001600160a01b0381817f00000000000000000000000000000000000000000000000000000000000000001691604051907f6193063000000000000000000000000000000000000000000000000000000000938483526020928381600481855afa90811561216257849184918791612145575b50169560046040518094819382525afa908115611bee57829184918691612128575b506044604051809481937f5287af3700000000000000000000000000000000000000000000000000000000835230600484015260016024840152165afa928315611bee5784936120f8575b5050833b1561146a576084908360405195869485937fac689bcd000000000000000000000000000000000000000000000000000000008552306004860152600160248601527f000000000000000000000000000000000000000000000000000000000000000016604485015260648401525af1801561145f576120ec575080f35b6120f590612966565b80f35b9080929350813d8311612121575b6121108183612a40565b8101031261146a575190388061206b565b503d612106565b61213f9150823d8411611795576117878183612a40565b38612020565b61215c9150833d8511611795576117878183612a40565b38611ffe565b6040513d87823e3d90fd5b50346101825760206003193601126101825765ffffffffffff6040602092600435815260018452205460601c16604051908152f35b5034610182576020600319360112610182576040816060928280516121c68161294a565b82815282602082015201526004358152600160205220604051906121e98261294a565b5465ffffffffffff9081808216938481528160406020830192828660301c1684520193871c1683526040519485525116602084015251166040820152f35b50346101825780600319360112610182576020600554604051908152f35b50346101825780600319360112610182576001600160a01b036020915416604051908152f35b503461018257602090816003193601126101825760405163557e715560e01b808252916001600160a01b037f0000000000000000000000000000000000000000000000000000000000000000811660048035908790869081855afa948515611bee57849561245d575b5082939495604051967f43a266c200000000000000000000000000000000000000000000000000000000885282600489015287602481610120988994165afa96871561179c579088918798612421575b5060046040518095819382525afa918215612162579084929186926123ff575b5060249060405194859384927f5c5500780000000000000000000000000000000000000000000000000000000084526004840152165afa9283156123f35780936123b7575b505050826080830151151592836123a6575b506040518315158152f35b81015191015114905038828161239b565b90918093503d84116123ec575b6123ce8184612a40565b820192828403126101825750906123e491612b1d565b388080612389565b503d6123c4565b604051903d90823e3d90fd5b602491925061241a90893d8b11611795576117878183612a40565b9190612344565b91509650843d8611612456575b6124388183612a40565b8101908581830312611f3257889161244f91612b1d565b9638612324565b503d61242e565b8394955061247790883d8a11611795576117878183612a40565b94936122d4565b503461018257806003193601126101825760206040516001600160a01b037f0000000000000000000000000000000000000000000000000000000000000000168152f35b50346101825780600319360112610182576124db613e8b565b806001600160a01b03815473ffffffffffffffffffffffffffffffffffffffff1981168355167f8be0079c531659141344cd1fd0a4f28419497f9722a3daafe3b4186f6b6457e08280a380f35b503461018257602060031936011261018257600435612545613e8b565b6005811161257057801561255c5760640460055580f35b602482634e487b7160e01b81526012600452fd5b60046040517f42c9b523000000000000000000000000000000000000000000000000000000008152fd5b50346101825760206003193601126101825760206125b9600435612da0565b6040519015158152f35b5034610182576020600319360112610182576001600160a01b036040602092600435815260028452205416604051908152f35b503461018257806003193601126101825760206040516001600160a01b037f0000000000000000000000000000000000000000000000000000000000000000168152f35b5034610182576020600319360112610182576affffffffffffffffffffff6001604060209360043581526002855220015460a01c16604051908152f35b5034610182576020600319360112610182576020612696600435613045565b604051908152f35b5034610182576080600319360112610182576126b8612920565b506024356001600160a01b038116036101825760643567ffffffffffffffff80821161146a573660238301121561146a57816004013590811161146a57369101602401116101825760206040517f150b7a02000000000000000000000000000000000000000000000000000000008152f35b50346101825760206003193601126101825765ffffffffffff6040602092600435815260018452205460301c16604051908152f35b503461018257806003193601126101825760206040517f00000000000000000000000000000000000000000000000000000000000000008152f35b5034610182576020600319360112610182576040519063557e715560e01b82526001600160a01b0391602081600481867f0000000000000000000000000000000000000000000000000000000000000000165afa90811561145f57829161288f575b50604051907f43a266c2000000000000000000000000000000000000000000000000000000008252600435600483015281602481610120968794165afa9182156123f3578092612853575b60208351604051908152f35b909150823d8411612888575b6128698184612a40565b82019282840312610182575060209161288191612b1d565b3880612847565b503d61285f565b6128a7915060203d8111611795576117878183612a40565b386127fc565b503461018257806003193601126101825760206040516001600160a01b037f0000000000000000000000000000000000000000000000000000000000000000168152f35b9050346115445760206003193601126115445765ffffffffffff60406020936004358152600185522054168152f35b600435906001600160a01b03821682036114ba57565b35906001600160a01b03821682036114ba57565b6060810190811067ffffffffffffffff821117611f1c57604052565b67ffffffffffffffff8111611f1c57604052565b6040810190811067ffffffffffffffff821117611f1c57604052565b60e0810190811067ffffffffffffffff821117611f1c57604052565b610160810190811067ffffffffffffffff821117611f1c57604052565b60c0810190811067ffffffffffffffff821117611f1c57604052565b6080810190811067ffffffffffffffff821117611f1c57604052565b610240810190811067ffffffffffffffff821117611f1c57604052565b6020810190811067ffffffffffffffff821117611f1c57604052565b90601f601f19910116810190811067ffffffffffffffff821117611f1c57604052565b67ffffffffffffffff8111611f1c57601f01601f191660200190565b81601f820112156114ba57803590612a9682612a63565b92612aa46040519485612a40565b828452602083830101116114ba57816000926020809301838601378301015290565b67ffffffffffffffff8111611f1c5760051b60200190565b359081151582036114ba57565b359065ffffffffffff821682036114ba57565b908160209103126114ba57516001600160a01b03811681036114ba5790565b80929161012091829103126114ba5760405190810181811067ffffffffffffffff821117611f1c576040528092805182526020810151602083015260408101516040830152606081015160608301526080810151608083015260a081015160a083015260c081015160c083015260e08101516001600160a01b03811681036114ba5760e083015261010080910151910152565b519081151582036114ba57565b80820392916103a084126114ba57612bf67ffffffffffffffffffffffffffffffffffffffffffffffffffffffffffffffee09183612b1d565b9301610280908181126114ba5760405192610240928385019267ffffffffffffffff9086851082861117611f1c576060136114ba576102a09086820190811185821017611f1c5760405261012090612c4f848301612bb0565b8552610140612c5f858201612bb0565b9561026096878a015261016090818701612c7890612bb0565b868b01528952610180918287015160208b01526101a0938488015160408c01526101c0958689015160608d01526101e0978c898b01612cb690612bb0565b90608001528c6102009b8c8c01612ccc90612bb0565b60a08301526102209d8e8d01612ce190612bb0565b60c08401528c01612cf190612bb0565b60e08301528b01612d0190612bb0565b9061010001528901612d1290612bb0565b908c01528701612d2190612bb0565b908a0152612d326102c08701612bb0565b90890152612d436102e08601612bb0565b90880152612d546103008501612bb0565b90870152612d656103208401612bb0565b90860152612d766103408301612bb0565b908501526103608101516001600160a01b03811681036114ba576103809285015201519082015290565b80600052600460205260ff60406000205416612e70576040517f8776c4990000000000000000000000000000000000000000000000000000000081528160048201526103a09182826024816001600160a01b037f0000000000000000000000000000000000000000000000000000000000000000165afa918215612e6457612e3193600093612e34575b5050613dab565b90565b612e54929350803d10612e5d575b612e4c8183612a40565b810190612bbd565b50903880612e2a565b503d612e42565b6040513d6000823e3d90fd5b50600190565b65ffffffffffff9182169082160391908211611c6057565b805115612e9b5760200190565b634e487b7160e01b600052603260045260246000fd5b8051821015612e9b5760209160051b010190565b604090815191612ed48361297a565b600183528291600091825b602080821015612f0c57825160209291612ef88261297a565b868252606081830152828901015201612edf565b50505091925050565b90815180825260208092019182818360051b8501950193600080925b858410612f42575050505050505090565b9091929387828297989903855288519060408381830193805184520151928185840152835180915284606080940194019287925b828410612f985750505050509080600192990194019401929594939190612f31565b91939560e06001929496885180511515825283810151151584830152858101518683015286810151878301526001600160a01b0360808181840151169084015260a0808301519084015260c08092015116908201520196019401918a95949391612f76565b60005b8381106130105750506000910152565b8181015183820152602001613000565b90601f19601f60209361303e81518092818752878088019101612ffd565b0116010190565b604051907f8776c4990000000000000000000000000000000000000000000000000000000082528060048301526103a0826024816001600160a01b037f0000000000000000000000000000000000000000000000000000000000000000165afa918215612e64576000908193613d11575b5081600052600460205260ff604060002054168015613d05575b613cdb576130de8183613dab565b613b6a576040517f12b37b140000000000000000000000000000000000000000000000000000000081528260048201526103a0816024816001600160a01b037f0000000000000000000000000000000000000000000000000000000000000000165afa908115612e6457600091613b48575b5060208083015191015103613b1e57516001036134fe5760209060406001600160a01b036102008095015116826000526001845281600020948251956131958761294a565b54958365ffffffffffff8089168352808960301c1698898985015260601c169101528251956131c3876129eb565b8652600085870152600083870152600060608701528251916131e48361294a565b6000835260008684015260008484015261321184516132028161297a565b60008152600188820152613e66565b9184519361321e85612a07565b84526000878501526127108086860152606085015260016080850152600060a0850152600060c0850152600060e08501526000610100850152600061012085015260006101408501526000610160850152600061018085015260006101a085015260016101c085015260016101e08501528301526102208201527f4465666966612067616d6520706861736520322e0000000000000000000000008461347b61346785516132cb81612a24565b6000815261344b8751966132de88612a24565b6000885261334389519c8d9b7fbadbdf28000000000000000000000000000000000000000000000000000000008d5260048d015260248c01906001600160a01b0360608092805185526020810151602086015260408101516040860152015116910152565b80518051151560a48c0152602080820151151560c48d0152604091820151151560e48d01528201516101048c01528101516101248b015260608101516101448b0152608081015115156101648b015260a081015115156101848b015260c081015115156101a48b015260e081015115156101c48b015261010081015115156101e48b015261012081015115156102048b015261014081015115156102248b015261016081015115156102448b015261018081015115156102648b01526101a081015115156102848b01526101c081015115156102a48b01526101e081015115156102c48b01526102008101516001600160a01b03166102e48b015261022001516103048a0152565b60006103248901526103a06103448901526103a4880190612f15565b600319948588830301610364890152613d37565b858103938401610384870152601481520152018160006001600160a01b037f0000000000000000000000000000000000000000000000000000000000000000165af1908115612e64576000916134cf575090565b906020823d6020116134f6575b816134e960209383612a40565b8101031261018257505190565b3d91506134dc565b906102006001600160a01b03910151169080600052600260205260406000206affffffffffffffffffffff6001604051926135388461294a565b6001600160a01b03815416845201546001600160a01b038116602084015260a01c1660408201526040519061356c8261297a565b6001825260005b60208110613add57506001600160a01b038151166001600160a01b036020830151166affffffffffffffffffffff604084015116604051917f1982d679000000000000000000000000000000000000000000000000000000008352806004840152602083602481875afa928315612e6457600093613aa9575b50604051936135fa856129cf565b845260208401526040830152606082015260006080820152600060a082015261362283612e8e565b5261362c82612e8e565b506040517f2bdfe0040000000000000000000000000000000000000000000000000000000081526020816004816001600160a01b037f0000000000000000000000000000000000000000000000000000000000000000165afa908115612e64576001600160a01b03916000918291613a8a575b506064604051809481937f69e11cc50000000000000000000000000000000000000000000000000000000083527f00000000000000000000000000000000000000000000000000000000000000006004840152856024840152896044840152165afa908115612e6457600091613937575b50917f4465666966612067616d6520706861736520332e000000000000000000000000602061347b61346760409583989760008151151560001461392157506001600160a01b0385613760612ec5565b9301511661eeee810361391b57506001905b88519161377e8361297a565b82528582015261378d82612e8e565b5261379781612e8e565b505b876000526001845286600020878051916137b28361294a565b5465ffffffffffff908181168452818160301c168885015260601c1691015261344b87519a6137e08c6129eb565b60008c526000868d01526000898d0152600060608d01528851906138038261294a565b6000825260008783015260008a8301526138308a516138218161297a565b60008152600089820152613e66565b908a519261383d84612a07565b8352600088840152612710808c850152606084015260016080840152600060a0840152600060c0840152600060e08401526000610100840152600061012084015260006101408401526000610160840152600061018084015260006101a084015260016101c084015260016101e084015261020083015261022082015261334389519c8d9b7fbadbdf28000000000000000000000000000000000000000000000000000000008d5260048d015260248c01906001600160a01b0360608092805185526020810151602086015260408101516040860152015116910152565b90613772565b91505086519061393082612a24565b8152613799565b903d8082843e6139478184612a40565b60208382810103126115445782519167ffffffffffffffff831161018257818401601f84860101121561018257828401519161398283612ac6565b946139906040519687612a40565b8386526020860194828201602060e08702838501010111611bc957602081830101955b602060e08702838501010187106139f357507f4465666966612067616d6520706861736520332e0000000000000000000000009550613710945050505050565b60e0878585010312611de257604051613a0b81612996565b613a1488612bb0565b8152613a2260208901612bb0565b6020820152604088015160408201526060880151606082015260808801516001600160a01b0381168103611f3257608082015260a088015160a082015260c08801516001600160a01b0381168103611f325760c0820152815260e096909601956020016139b3565b613aa3915060203d602011611795576117878183612a40565b3861369f565b90926020823d602011613ad5575b81613ac460209383612a40565b8101031261018257505191386135ec565b3d9150613ab7565b602090604051613aec816129cf565b60008152600083820152600060408201526000606082015260006080820152600060a082015282828601015201613573565b60046040517f11f43385000000000000000000000000000000000000000000000000000000008152fd5b613b6391506103a03d6103a011612e5d57612e4c8183612a40565b5038613150565b5060209060406001600160a01b036102008095015116815194613b8c866129eb565b6000865260008587015260008387015260006060870152825191613baf8361294a565b60008352600086840152600084840152613bcd84516132028161297a565b91845193613bda85612a07565b84526000878501526127108086860152606085015260016080850152600060a0850152600060c0850152600060e08501526000610100850152600061012085015260006101408501526000610160850152600061018085015260006101a085015260016101c085015260016101e08501528301526102208201527f446566696661206e6f20636f6e746573742e000000000000000000000000000084613c8761346785516132cb81612a24565b858103938401610384870152601281520152018160006001600160a01b037f0000000000000000000000000000000000000000000000000000000000000000165af1908115612e64576000916134cf575090565b60046040517fdc7a2515000000000000000000000000000000000000000000000000000000008152fd5b506080810151156130d0565b9050613d2f9192506103a03d6103a011612e5d57612e4c8183612a40565b9190386130b6565b90815180825260208080930193019160005b828110613d57575050505090565b835180516001600160a01b03908116875281840151168684015260408082015190870152606080820151908701526080808201519087015260a0908101519086015260c09094019392810192600101613d49565b906040810151604051927fa40bb9c7000000000000000000000000000000000000000000000000000000008452600484015260248301526103a09182816044816001600160a01b037f0000000000000000000000000000000000000000000000000000000000000000165afa928315612e6457600093613e46575b50505190519060018201809211611c605703613e4157600090565b600190565b613e5d929350803d10612e5d57612e4c8183612a40565b50903880613e26565b906000918051613e82575b60200151613e7b57565b9060021790565b60019250613e71565b6001600160a01b03600054163303613e9f57565b606460405162461bcd60e51b815260206004820152602060248201527f4f776e61626c653a2063616c6c6572206973206e6f7420746865206f776e65726044820152fd5b6e5af43d82803e903d91602b57fd5bf390763d602d80600a3d3981f3363d3d373d3d3d363d7300000062ffffff8260881c161760005260781b17602052603760096000f0906001600160a01b03821615613f3957565b606460405162461bcd60e51b815260206004820152601660248201527f455243313136373a20637265617465206661696c6564000000000000000000006044820152fdfea2646970667358221220c43992b2807f40d022b1c70b86965f1de93c66cf8b0b93a0a656649f28ba7fbb64736f6c63430008110033",
    "linkReferences": {}
  },
  "methodIdentifiers": {
    "SPLIT_DOMAIN()": "ff16a2f2",
    "ballkidzProjectId()": "0d75b3aa",
    "changeFee(uint256)": "6a1db1bf",
    "claimProtocolProjectToken()": "ca449a25",
    "controller()": "f77c4791",
    "currentGamePhaseOf(uint256)": "0715610a",
    "delegateCodeOrigin()": "06b552b5",
    "delegatesRegistry()": "d574ff04",
    "distributionLimit(uint256)": "27655cfd",
    "feeDivisor()": "9a36f932",
    "governorCodeOrigin()": "ff2a43cc",
    "isNoContest(uint256)": "67cb9c99",
    "launchGameWith((string,(string,uint256),string,string,(uint80,uint16,address,bytes32,bool,string)[],address,uint48,uint48,uint48,uint48,(bool,bool,uint256,uint256,address,uint256,address)[],uint88,address,uint256,address,address,address))": "e75107a3",
    "mintDurationOf(uint256)": "0589d292",
    "nextPhaseNeedsQueueing(uint256)": "81312a14",
    "onERC721Received(address,address,uint256,bytes)": "150b7a02",
    "owner()": "8da5cb5b",
    "protocolFeeProjectTokenAccount()": "3f3090d9",
    "queueNextPhaseOf(uint256)": "1c069dbb",
    "refundPeriodDurationOf(uint256)": "1109fff2",
    "renounceOwnership()": "715018a6",
    "startOf(uint256)": "b41e7f47",
    "terminalOf(uint256)": "4fe0eced",
    "timesFor(uint256)": "b07925d3",
    "tokenUriResolverCodeOrigin()": "80f07954",
    "transferOwnership(address)": "f2fde38b"
  },
  "id": 1
}