{
  "abi": [
    {
      "inputs": [
        {
          "internalType": "address",
          "name": "_delegateCodeOrigin",
          "type": "address"
        },
        {
          "internalType": "address",
          "name": "_governorCodeOrigin",
          "type": "address"
        },
        {
          "internalType": "address",
          "name": "_tokenUriResolverCodeOrigin",
          "type": "address"
        },
        {
          "internalType": "contract IJBController3_1",
          "name": "_controller",
          "type": "address"
        },
        {
          "internalType": "contract IJBDelegatesRegistry",
          "name": "_delegatesRegistry",
          "type": "address"
        },
        {
          "internalType": "address",
          "name": "_protocolFeeProjectTokenAccount",
          "type": "address"
        },
        {
          "internalType": "uint256",
          "name": "_ballkidzProjectId",
          "type": "uint256"
        },
        {
          "internalType": "address",
          "name": "_owner",
          "type": "address"
        }
      ],
      "stateMutability": "nonpayable",
      "type": "constructor"
    },
    {
      "inputs": [],
      "name": "GAME_OVER",
      "type": "error"
    },
    {
      "inputs": [],
      "name": "INVALID_FEE_PERCENT",
      "type": "error"
    },
    {
      "inputs": [],
      "name": "INVALID_GAME_CONFIGURATION",
      "type": "error"
    },
    {
      "inputs": [],
      "name": "PHASE_ALREADY_QUEUED",
      "type": "error"
    },
    {
      "inputs": [],
      "name": "SPLITS_DONT_ADD_UP",
      "type": "error"
    },
    {
      "inputs": [],
      "name": "UNEXPECTED_TERMINAL_CURRENCY",
      "type": "error"
    },
    {
      "anonymous": false,
      "inputs": [
        {
          "indexed": true,
          "internalType": "uint256",
          "name": "gameId",
          "type": "uint256"
        },
        {
          "indexed": true,
          "internalType": "contract IDefifaDelegate",
          "name": "delegate",
          "type": "address"
        },
        {
          "indexed": true,
          "internalType": "contract IDefifaGovernor",
          "name": "governor",
          "type": "address"
        },
        {
          "indexed": false,
          "internalType": "contract IJBTokenUriResolver",
          "name": "tokenUriResolver",
          "type": "address"
        },
        {
          "indexed": false,
          "internalType": "address",
          "name": "caller",
          "type": "address"
        }
      ],
      "name": "LaunchGame",
      "type": "event"
    },
    {
      "anonymous": false,
      "inputs": [
        {
          "indexed": true,
          "internalType": "address",
          "name": "previousOwner",
          "type": "address"
        },
        {
          "indexed": true,
          "internalType": "address",
          "name": "newOwner",
          "type": "address"
        }
      ],
      "name": "OwnershipTransferred",
      "type": "event"
    },
    {
      "inputs": [],
      "name": "SPLIT_DOMAIN",
      "outputs": [
        {
          "internalType": "uint256",
          "name": "",
          "type": "uint256"
        }
      ],
      "stateMutability": "view",
      "type": "function"
    },
    {
      "inputs": [],
      "name": "ballkidzProjectId",
      "outputs": [
        {
          "internalType": "uint256",
          "name": "",
          "type": "uint256"
        }
      ],
      "stateMutability": "view",
      "type": "function"
    },
    {
      "inputs": [
        {
          "internalType": "uint256",
          "name": "_percent",
          "type": "uint256"
        }
      ],
      "name": "changeFee",
      "outputs": [],
      "stateMutability": "nonpayable",
      "type": "function"
    },
    {
      "inputs": [],
      "name": "claimProtocolProjectToken",
      "outputs": [],
      "stateMutability": "nonpayable",
      "type": "function"
    },
    {
      "inputs": [],
      "name": "controller",
      "outputs": [
        {
          "internalType": "contract IJBController3_1",
          "name": "",
          "type": "address"
        }
      ],
      "stateMutability": "view",
      "type": "function"
    },
    {
      "inputs": [
        {
          "internalType": "uint256",
          "name": "_gameId",
          "type": "uint256"
        }
      ],
      "name": "currentGamePhaseOf",
      "outputs": [
        {
          "internalType": "enum DefifaGamePhase",
          "name": "",
          "type": "uint8"
        }
      ],
      "stateMutability": "view",
      "type": "function"
    },
    {
      "inputs": [
        {
          "internalType": "uint256",
          "name": "_gameId",
          "type": "uint256"
        }
      ],
      "name": "currentGamePotOf",
      "outputs": [
        {
          "internalType": "uint256",
          "name": "",
          "type": "uint256"
        },
        {
          "internalType": "address",
          "name": "",
          "type": "address"
        },
        {
          "internalType": "uint256",
          "name": "",
          "type": "uint256"
        }
      ],
      "stateMutability": "view",
      "type": "function"
    },
    {
      "inputs": [],
      "name": "delegateCodeOrigin",
      "outputs": [
        {
          "internalType": "address",
          "name": "",
          "type": "address"
        }
      ],
      "stateMutability": "view",
      "type": "function"
    },
    {
      "inputs": [],
      "name": "delegatesRegistry",
      "outputs": [
        {
          "internalType": "contract IJBDelegatesRegistry",
          "name": "",
          "type": "address"
        }
      ],
      "stateMutability": "view",
      "type": "function"
    },
    {
      "inputs": [
        {
          "internalType": "uint256",
          "name": "_gameId",
          "type": "uint256"
        }
      ],
      "name": "distributionOpsOf",
      "outputs": [
        {
          "components": [
            {
              "internalType": "contract IJBPaymentTerminal",
              "name": "terminal",
              "type": "address"
            },
            {
              "internalType": "address",
              "name": "token",
              "type": "address"
            },
            {
              "internalType": "uint88",
              "name": "distributionLimit",
              "type": "uint88"
            }
          ],
          "internalType": "struct DefifaDistributionOpsData",
          "name": "",
          "type": "tuple"
        }
      ],
      "stateMutability": "view",
      "type": "function"
    },
    {
      "inputs": [],
      "name": "feeDivisor",
      "outputs": [
        {
          "internalType": "uint256",
          "name": "",
          "type": "uint256"
        }
      ],
      "stateMutability": "view",
      "type": "function"
    },
    {
      "inputs": [],
      "name": "governorCodeOrigin",
      "outputs": [
        {
          "internalType": "address",
          "name": "",
          "type": "address"
        }
      ],
      "stateMutability": "view",
      "type": "function"
    },
    {
      "inputs": [
        {
          "components": [
            {
              "internalType": "string",
              "name": "name",
              "type": "string"
            },
            {
              "components": [
                {
                  "internalType": "string",
                  "name": "content",
                  "type": "string"
                },
                {
                  "internalType": "uint256",
                  "name": "domain",
                  "type": "uint256"
                }
              ],
              "internalType": "struct JBProjectMetadata",
              "name": "projectMetadata",
              "type": "tuple"
            },
            {
              "internalType": "string",
              "name": "contractUri",
              "type": "string"
            },
            {
              "internalType": "string",
              "name": "baseUri",
              "type": "string"
            },
            {
              "components": [
                {
                  "internalType": "uint80",
                  "name": "price",
                  "type": "uint80"
                },
                {
                  "internalType": "uint16",
                  "name": "reservedRate",
                  "type": "uint16"
                },
                {
                  "internalType": "address",
                  "name": "reservedTokenBeneficiary",
                  "type": "address"
                },
                {
                  "internalType": "bytes32",
                  "name": "encodedIPFSUri",
                  "type": "bytes32"
                },
                {
                  "internalType": "bool",
                  "name": "shouldUseReservedTokenBeneficiaryAsDefault",
                  "type": "bool"
                },
                {
                  "internalType": "string",
                  "name": "name",
                  "type": "string"
                }
              ],
              "internalType": "struct DefifaTierParams[]",
              "name": "tiers",
              "type": "tuple[]"
            },
            {
              "internalType": "address",
              "name": "token",
              "type": "address"
            },
            {
              "internalType": "uint48",
              "name": "mintDuration",
              "type": "uint48"
            },
            {
              "internalType": "uint48",
              "name": "refundDuration",
              "type": "uint48"
            },
            {
              "internalType": "uint48",
              "name": "start",
              "type": "uint48"
            },
            {
              "components": [
                {
                  "internalType": "bool",
                  "name": "preferClaimed",
                  "type": "bool"
                },
                {
                  "internalType": "bool",
                  "name": "preferAddToBalance",
                  "type": "bool"
                },
                {
                  "internalType": "uint256",
                  "name": "percent",
                  "type": "uint256"
                },
                {
                  "internalType": "uint256",
                  "name": "projectId",
                  "type": "uint256"
                },
                {
                  "internalType": "address payable",
                  "name": "beneficiary",
                  "type": "address"
                },
                {
                  "internalType": "uint256",
                  "name": "lockedUntil",
                  "type": "uint256"
                },
                {
                  "internalType": "contract IJBSplitAllocator",
                  "name": "allocator",
                  "type": "address"
                }
              ],
              "internalType": "struct JBSplit[]",
              "name": "splits",
              "type": "tuple[]"
            },
            {
              "internalType": "uint88",
              "name": "distributionLimit",
              "type": "uint88"
            },
            {
              "internalType": "address payable",
              "name": "ballkidzFeeProjectTokenAccount",
              "type": "address"
            },
            {
              "internalType": "uint256",
              "name": "votingStartTime",
              "type": "uint256"
            },
            {
              "internalType": "uint256",
              "name": "votingPeriod",
              "type": "uint256"
            },
            {
              "internalType": "address",
              "name": "defaultVotingDelegate",
              "type": "address"
            },
            {
              "internalType": "contract IJBTokenUriResolver",
              "name": "defaultTokenUriResolver",
              "type": "address"
            },
            {
              "internalType": "contract IJBPaymentTerminal",
              "name": "terminal",
              "type": "address"
            },
            {
              "internalType": "contract IJBTiered721DelegateStore",
              "name": "store",
              "type": "address"
            }
          ],
          "internalType": "struct DefifaLaunchProjectData",
          "name": "_launchProjectData",
          "type": "tuple"
        }
      ],
      "name": "launchGameWith",
      "outputs": [
        {
          "internalType": "uint256",
          "name": "gameId",
          "type": "uint256"
        },
        {
          "internalType": "contract IDefifaGovernor",
          "name": "governor",
          "type": "address"
        }
      ],
      "stateMutability": "nonpayable",
      "type": "function"
    },
    {
      "inputs": [
        {
          "internalType": "uint256",
          "name": "_gameId",
          "type": "uint256"
        }
      ],
      "name": "nextPhaseNeedsQueueing",
      "outputs": [
        {
          "internalType": "bool",
          "name": "",
          "type": "bool"
        }
      ],
      "stateMutability": "view",
      "type": "function"
    },
    {
      "inputs": [
        {
          "internalType": "address",
          "name": "",
          "type": "address"
        },
        {
          "internalType": "address",
          "name": "",
          "type": "address"
        },
        {
          "internalType": "uint256",
          "name": "",
          "type": "uint256"
        },
        {
          "internalType": "bytes",
          "name": "",
          "type": "bytes"
        }
      ],
      "name": "onERC721Received",
      "outputs": [
        {
          "internalType": "bytes4",
          "name": "",
          "type": "bytes4"
        }
      ],
      "stateMutability": "pure",
      "type": "function"
    },
    {
      "inputs": [],
      "name": "owner",
      "outputs": [
        {
          "internalType": "address",
          "name": "",
          "type": "address"
        }
      ],
      "stateMutability": "view",
      "type": "function"
    },
    {
      "inputs": [],
      "name": "protocolFeeProjectTokenAccount",
      "outputs": [
        {
          "internalType": "address",
          "name": "",
          "type": "address"
        }
      ],
      "stateMutability": "view",
      "type": "function"
    },
    {
      "inputs": [
        {
          "internalType": "uint256",
          "name": "_gameId",
          "type": "uint256"
        }
      ],
      "name": "queueNextPhaseOf",
      "outputs": [
        {
          "internalType": "uint256",
          "name": "configuration",
          "type": "uint256"
        }
      ],
      "stateMutability": "nonpayable",
      "type": "function"
    },
    {
      "inputs": [],
      "name": "renounceOwnership",
      "outputs": [],
      "stateMutability": "nonpayable",
      "type": "function"
    },
    {
      "inputs": [
        {
          "internalType": "uint256",
          "name": "_gameId",
          "type": "uint256"
        }
      ],
      "name": "timesFor",
      "outputs": [
        {
          "components": [
            {
              "internalType": "uint48",
              "name": "mintDuration",
              "type": "uint48"
            },
            {
              "internalType": "uint48",
              "name": "refundDuration",
              "type": "uint48"
            },
            {
              "internalType": "uint48",
              "name": "start",
              "type": "uint48"
            }
          ],
          "internalType": "struct DefifaTimeData",
          "name": "",
          "type": "tuple"
        }
      ],
      "stateMutability": "view",
      "type": "function"
    },
    {
      "inputs": [],
      "name": "tokenUriResolverCodeOrigin",
      "outputs": [
        {
          "internalType": "address",
          "name": "",
          "type": "address"
        }
      ],
      "stateMutability": "view",
      "type": "function"
    },
    {
      "inputs": [
        {
          "internalType": "address",
          "name": "newOwner",
          "type": "address"
        }
      ],
      "name": "transferOwnership",
      "outputs": [],
      "stateMutability": "nonpayable",
      "type": "function"
    }
  ],
  "bytecode": {
    "object": "0x61016034620001e1576200451438819003601f8101601f191683016001600160401b03811184821017620001e65783928291604052833961010092839181010312620001e1576200005081620001fc565b906200005f60208201620001fc565b916200006e60408301620001fc565b60608301516001600160a01b0393919291908481168103620001e15760808201519485168503620001e157620000f693620000ac60a08401620001fc565b96620000c060e060c08601519501620001fc565b94620000cc3362000211565b6001600355601460055560a05260c05260e052865261012094855261014093845260805262000211565b604051916142bb9384620002598539608051848181612102015281816122400152818161293801526138e6015260a05184818161106f01526129c0015260c051848181610132015261195d015260e0518481816108200152611f36015251838181610195015281816103010152818161060b01528181610da1015281816110f2015281816112ae01528181611922015281816121c301528181612ea9015281816132a10152818161333d015281816136a70152818161387b01528181613b0201528181613f4401526140fd01525182818161041c01526125ef0152518181816102c00152611a3c0152f35b600080fd5b634e487b7160e01b600052604160045260246000fd5b51906001600160a01b0382168203620001e157565b600080546001600160a01b039283166001600160a01b03198216811783559216907f8be0079c531659141344cd1fd0a4f28419497f9722a3daafe3b4186f6b6457e09080a356fe608080604052600436101561001357600080fd5b600090813560e01c90816306b552b5146129a1575080630715610a1461295b5780630d75b3aa14612920578063150b7a02146128945780631c069dbb1461286d5780633af76f34146126135780633f3090d9146125cf57806347d110bc146109a257806353292c681461091d5780636a1db1bf146108ab578063715018a61461084457806380f079541461080057806381312a14146105c55780638da5cb5b1461059f5780639a36f93214610581578063b07925d31461050b578063ca449a25146102e4578063d574ff04146102a0578063f2fde38b146101b9578063f77c479114610175578063ff16a2f2146101595763ff2a43cc1461011357600080fd5b3461015657806003193601126101565760206040516001600160a01b037f0000000000000000000000000000000000000000000000000000000000000000168152f35b80fd5b5034610156578060031936011261015657602090604051908152f35b503461015657806003193601126101565760206040516001600160a01b037f0000000000000000000000000000000000000000000000000000000000000000168152f35b5034610156576020600319360112610156576101d36129e4565b6101db614193565b6001600160a01b03809116908115610236576000548273ffffffffffffffffffffffffffffffffffffffff19821617600055167f8be0079c531659141344cd1fd0a4f28419497f9722a3daafe3b4186f6b6457e0600080a380f35b608460405162461bcd60e51b815260206004820152602660248201527f4f776e61626c653a206e6577206f776e657220697320746865207a65726f206160448201527f64647265737300000000000000000000000000000000000000000000000000006064820152fd5b503461015657806003193601126101565760206040516001600160a01b037f0000000000000000000000000000000000000000000000000000000000000000168152f35b5034610156578060031936011261015657806001600160a01b03807f000000000000000000000000000000000000000000000000000000000000000016906040517f6193063000000000000000000000000000000000000000000000000000000000928382526020918281600481855afa908115610500578391859188916104e3575b50169460046040518094819382525afa9081156104ab578391839187916104b6575b506044604051809481937f5287af3700000000000000000000000000000000000000000000000000000000835230600484015260016024840152165afa9182156104ab578592610475575b5050823b1561047057608484928360405195869485937fac689bcd000000000000000000000000000000000000000000000000000000008552306004860152600160248601527f000000000000000000000000000000000000000000000000000000000000000016604485015260648401525af18015610465576104555750f35b61045e90612ab1565b6101565780f35b6040513d84823e3d90fd5b505050fd5b8195508092503d83116104a4575b61048d8183612b1a565b8101031261049f5783925138806103d4565b600080fd5b503d610483565b6040513d87823e3d90fd5b6104d69150823d84116104dc575b6104ce8183612b1a565b81019061304b565b38610389565b503d6104c4565b6104fa9150833d85116104dc576104ce8183612b1a565b38610367565b6040513d88823e3d90fd5b503461015657602060031936011261015657604060609161052a612bd8565b5060043581526001602052206040519061054382612a0e565b5465ffffffffffff9081808216938481528160406020830192828660301c1684520193871c1683526040519485525116602084015251166040820152f35b50346101565780600319360112610156576020600554604051908152f35b50346101565780600319360112610156576001600160a01b036020915416604051908152f35b50346101565760209081600319360112610156576040517f557e715500000000000000000000000000000000000000000000000000000000808252916001600160a01b037f0000000000000000000000000000000000000000000000000000000000000000811660048035908790869081855afa9485156107f55784956107d4575b5082939495604051967f43a266c200000000000000000000000000000000000000000000000000000000885282600489015287602481610120988994165afa968715610500579088918798610794575b5060046040518095819382525afa9182156104ab57908492918692610772575b5060249060405194859384927f5c5500780000000000000000000000000000000000000000000000000000000084526004840152165afa92831561076657809361072a575b50505082608083015115159283610719575b506040518315158152f35b81015191015114905038828161070e565b90918093503d841161075f575b6107418184612b1a565b8201928284031261015657509061075791612c0b565b3880806106fc565b503d610737565b604051903d90823e3d90fd5b602491925061078d90893d8b116104dc576104ce8183612b1a565b91906106b7565b91509650843d86116107cd575b6107ab8183612b1a565b81019085818303126107c95788916107c291612c0b565b9638610697565b8680fd5b503d6107a1565b839495506107ee90883d8a116104dc576104ce8183612b1a565b9493610647565b6040513d86823e3d90fd5b503461015657806003193601126101565760206040516001600160a01b037f0000000000000000000000000000000000000000000000000000000000000000168152f35b503461015657806003193601126101565761085d614193565b60006001600160a01b03815473ffffffffffffffffffffffffffffffffffffffff1981168355167f8be0079c531659141344cd1fd0a4f28419497f9722a3daafe3b4186f6b6457e08280a380f35b5034610156576020600319360112610156576004356108c8614193565b600581116108f35780156108df5760640460055580f35b602482634e487b7160e01b81526012600452fd5b60046040517f42c9b523000000000000000000000000000000000000000000000000000000008152fd5b503461015657602060031936011261015657604060609161093c612bd8565b50600435815260026020522060405161095481612a0e565b6001600160a01b03906001828454169384835201549160406020830192828516845201916affffffffffffffffffffff809460a01c1683526040519485525116602084015251166040820152f35b50346101565760206003193601126101565767ffffffffffffffff600435116101565761024060031960043536030112610156576040516109e281612a40565b6004356004013567ffffffffffffffff8111611b4457610a09906004369181350101612b59565b81526024600435013567ffffffffffffffff8111611b44576004350160406003198236030112611b445760405190610a4082612a5d565b60048101359067ffffffffffffffff82116125cb57610a6760249260043691840101612b59565b83520135602082015260208201526044600435013567ffffffffffffffff8111611b4457610a9c906004369181350101612b59565b60408201526064600435013567ffffffffffffffff8111611b4457610ac8906004369181350101612b59565b60608201526084600435013567ffffffffffffffff8111611b44573660238260043501011215611b4457610b026004828135010135612ba0565b90610b106040519283612b1a565b600480358201908101358084526020840192913660059290921b01602401116125cb576024816004350101915b6004803583019081013560051b0160240183106124b4575050506080820152610b6a60a4600435016129fa565b60a0820152610b7d60c460043501612bc5565b60c0820152610b9060e460043501612bc5565b60e0820152610ba461010460043501612bc5565b610100820152610124600435013567ffffffffffffffff8111611b44573660238260043501011215611b4457600481813501013590610be282612ba0565b91610bf06040519384612b1a565b808352602083019136602460e0840283600435010101116124b057916024836004350101925b602460e08402826004350101018410612415575050505061012082015260043561014401356affffffffffffffffffffff81169003611c19576101446004350135610140820152610c6c610164600435016129fa565b6101608201526004356101848101356101808301526101a48101356101a0830152610c9a906101c4016129fa565b6101c08201526004356101e401356001600160a01b0381169003611c19576004356101e48101356101e083015261020401356001600160a01b0381169003611c195760043561020481013561020083015261022401356001600160a01b0381169003611c1957610224600435013561022082015265ffffffffffff61010082015116156123f2575b610d5c610d4965ffffffffffff6101008401511665ffffffffffff60e0850151169061308d565b65ffffffffffff60c0840151169061308d565b65ffffffffffff429116106123c8576040517f8b79543c0000000000000000000000000000000000000000000000000000000081526020816004816001600160a01b037f0000000000000000000000000000000000000000000000000000000000000000165afa908115611d2f578391612383575b509060206001600160a01b03926004604051809581937f06661abd000000000000000000000000000000000000000000000000000000008352165afa918215611d2f57839261234f575b5060018201821161233b5765ffffffffffff60c08201511665ffffffffffff60e08301511665ffffffffffff6101008401511660405192610e5b84612a0e565b83526020830191825260408301908152600185018652600160205265ffffffffffff604087209351167fffffffffffffffffffffffffffff00000000000000000000000000000000000071ffffffffffff0000000000000000000000006bffffffffffff0000000000008654955160301b16935160601b16931617171790556001600160a01b03610200820151166affffffffffffffffffffff610140830151166001600160a01b0360018160a0860151169360405190610f1b82612a0e565b8152602081019485526040810193845281870188526002602052826040892091511673ffffffffffffffffffffffffffffffffffffffff19825416178155019251167fff000000000000000000000000000000000000000000000000000000000000007effffffffffffffffffffff00000000000000000000000000000000000000008454935160a01b1692161717905561012081015151806120a0575b5060808101515192610fca84612ba0565b90610fd86040519283612b1a565b848252610fe485612ba0565b815b601f198201811061203f5750506080830151519461101c61100687612ba0565b966110146040519889612b1a565b808852612ba0565b825b601f1982018110612029575050606060a060405161103b81612a79565b84815284602082015284604082015284838201528460808201520152815b818110611f615750506001600160a01b036110937f00000000000000000000000000000000000000000000000000000000000000006141eb565b6101e0850151911695906001600160a01b031615611f29576001600160a01b036101e085015116925b6040517fc41c2f240000000000000000000000000000000000000000000000000000000081526020816004816001600160a01b037f0000000000000000000000000000000000000000000000000000000000000000165afa9081156107f5578491611ee3575b5085518460018901807a184f03e93ff9f4daa797ed6e38ed64bf6a1f01000000000000000080821015611ed1575b50600a906d04ee2d6d415b85acef810000000080821015611ec4575b50662386f26fc1000080821015611eb7575b506305f5e10080821015611eaa575b50612710811015611e9b575b6064811015611e8d575b1015611e82575b600a60001960216001850194601f196111db6111c588612b3d565b976111d3604051998a612b1a565b808952612b3d565b013660208801378501015b01917f30313233343536373839616263646566000000000000000000000000000000008282061a835304801561122257600019600a91926111e6565b5050611277602760405180937f44454649464120000000000000000000000000000000000000000000000000006020830152611267815180926020868601910161321b565b8101036007810184520182612b1a565b604051907f557e71550000000000000000000000000000000000000000000000000000000082526020826004816001600160a01b037f0000000000000000000000000000000000000000000000000000000000000000165afa918215611e77579089949392918892611e56575b5060608501519260408601519460206001600160a01b0360a0816102008b015116990151166024604051809a81937f1982d67900000000000000000000000000000000000000000000000000000000835260048301525afa968715611e4b57928a95928f9794928e9996938897611e02575b506001600160a01b036101c08b8261022060209d9e0151169a806040519d8e61137e81612ae2565b828152015260408d0152600160608d0152015116993b15611dfe579995928f979995928d9995926040519c8d9a7f795e9c9d000000000000000000000000000000000000000000000000000000008c5260010160048c01526001600160a01b031660248b015260448a0161024090526102448a016113fb9161323e565b8981036003190160648b01526114109161323e565b906001600160a01b031660848901528781036003190160a48901526114349161323e565b6001600160a01b038d1660c48801528681036003190160e48801526114589161323e565b858103600319016101048701528451908181526020019460200190875b818110611d3a575050509084959665ffffffffffff606093166101248701526101448601528051151561016486015260208101511515610184860152604081015115156101a4860152015115156101c4840152306101e4840152306102048401526102248301520381838b5af18015611d2f57908391611d1b575b50506001600160a01b036101e08501511615611c25575b5061020083015160a08401516040517fdf21a7dd0000000000000000000000000000000000000000000000000000000081526001600160a01b0391821660048201526001870160248201529160209183916044918391165afa908115610465578291611be7575b5015611bbd576103e0602460405161158581612a5d565b60018152602036818301376001600160a01b03610200870151166115a8826130a5565b526118b2602087015161189f65ffffffffffff60c08a01511691604051926115cf84612ae2565b83528760208401528760408401528760608401526040516115ef81612a0e565b88815288602082015288604082015261161c60405161160d81612a5d565b8a81526001602082015261416e565b6040519161162983612a40565b8252896020830152612710604083015261271060608301528960808301528960a08301528960c08301528960e08301528961010083015289610120830152896101408301528961016083015289610180830152896101a083015260016101c083015260016101e08301528d61020083015261022082015265ffffffffffff6116d08c8260e06116c682610100850151168360c0860151169061308d565b920151169061308d565b611886604051936116e085612afe565b6000855261177d604051986116f48a612afe565b60008a526040519d8e9d8e7fb3c5267300000000000000000000000000000000000000000000000000000000815230600482015201528c61040460206117488b5160406103e486015261042485019061323e565b9a0151910152805160448e0152602081015160648e0152604081015160848e0152606001516001600160a01b031660a48d0152565b80518051151560c48d0152602080820151151560e48e015260409182015115156101048e01528201516101248d01528101516101448c015260608101516101648c0152608081015115156101848c015260a081015115156101a48c015260c081015115156101c48c015260e081015115156101e48c015261010081015115156102048c015261012081015115156102248c015261014081015115156102448c015261016081015115156102648c015261018081015115156102848c01526101a081015115156102a48c01526101c081015115156102c48c01526101e081015115156102e48c01526102008101516001600160a01b03166103048c015261022001516103248b0152565b166103448801526003198783030161036488015261312c565b906003198583030161038486015261403f565b600319838203016103a484015260208083519283815201920190855b818110611b9b57505050906040827f446566696661206d696e742070686173652e00000000000000000000000000006020848196039260031984016103c48701526012815201520181856001600160a01b037f0000000000000000000000000000000000000000000000000000000000000000165af1801561046557611b70575b506001600160a01b036119817f00000000000000000000000000000000000000000000000000000000000000006141eb565b16926101a0610180820151910151843b15611b4457604051917f7a1ac61e00000000000000000000000000000000000000000000000000000000835287600484015260248301526044820152818160648183885af1801561046557908291611b5c575b5050843b15610156576040517ff2fde38b0000000000000000000000000000000000000000000000000000000081528360048201528181602481838a5af1801561046557908291611b48575b50506001600160a01b037f000000000000000000000000000000000000000000000000000000000000000016600354813b15611b44576040517f5bcfd21200000000000000000000000000000000000000000000000000000000815230600482015260248101919091529082908290604490829084905af1801561046557908291611b30575b50506003549060038201809211611b1c57509382916040956003556001600160a01b038651911681523360208201527f3082991f3dda023098e5849ea3903c6fbfd657dc6f9232f5eb81ad8a7ba161d6866001870192a460018351920182526020820152f35b80634e487b7160e01b602492526011600452fd5b611b3990612ab1565b610156578038611ab6565b8280fd5b611b5190612ab1565b610156578038611a30565b611b6590612ab1565b6101565780386119e4565b602090813d8311611b94575b611b868183612b1a565b8101031261049f573861194f565b503d611b7c565b82516001600160a01b03168452859450602093840193909201916001016118ce565b60046040517f3727b396000000000000000000000000000000000000000000000000000000008152fd5b90506020813d602011611c1d575b81611c0260209383612b1a565b81010312611c1957611c1390612c9e565b3861156e565b5080fd5b3d9150611bf5565b6001600160a01b0383163b15611c19578160405180927f94e6f56f000000000000000000000000000000000000000000000000000000008252604482018960048401526040602484015281518091526064830190602060648260051b86010193019185905b828210611cce575050505081900381836001600160a01b0388165af1801561046557908291611cba575b50611507565b611cc390612ab1565b610156578038611cb4565b929550926020611d0a827fffffffffffffffffffffffffffffffffffffffffffffffffffffffffffffff9c60019598849503018652885161323e565b960192019201928593879593611c8a565b611d2490612ab1565b611c195781386114f0565b6040513d85823e3d90fd5b92949750929550969360206101606001926101408b516cffffffffffffffffffffffffff815116835263ffffffff80868301511686850152604082015116604084015261ffff60608201511660608401526001600160a01b03608082015116608084015260a081015160a084015262ffffff60c08201511660c084015260e0810151151560e084015261010081015115156101008401526101208101511515610120840152015115156101408201520198019101908895928b979492989598611475565b8c80fd5b96509650965096506020843d602011611e43575b81611e2360209383612b1a565b8101031261049f5792518b968e968b969295926001600160a01b03611356565b3d9150611e16565b6040513d8c823e3d90fd5b611e7091925060203d6020116104dc576104ce8183612b1a565b90386112e4565b6040513d89823e3d90fd5b6001909101906111aa565b6064600291049301926111a3565b61271060049104930192611199565b600891049301923861118d565b601091049301923861117e565b602091049301923861116c565b6040935060018c01049050600a611150565b90506020813d602011611f21575b81611efe60209383612b1a565b81010312611f1d57516001600160a01b0381168103611f1d5738611122565b8380fd5b3d9150611ef1565b6001600160a01b03611f5a7f00000000000000000000000000000000000000000000000000000000000000006141eb565b16926110bc565b8060a0611f7460019360808901516130c8565b5169ffffffffffffffffffff81511661ffff6020830151166001600160a01b03604084015116606084015190608085015115159260405194611fb586612ac5565b8552633b9ac9ff602086015288604086015260608501526080840152848301528760c08301528760e08301526101008201528661012082015284610140820152611fff84896130c8565b5261200a83886130c8565b500151612017828a6130c8565b5261202281896130c8565b5001611059565b602081606082601f19948c01015201905061101e565b6020601f199160405161205181612ac5565b85815285838201528560408201528560608201528560808201528560a08201528560c08201528560e0820152856101008201528561012082015285610140820152828288010152019050610fe6565b60055490811561232757849085905b8082106122fd575050633b9aca00908282048203908282116122e957036122bf57612150916001600160a01b036101608501511690604051926120f184612a95565b8784528760208501520460408301527f0000000000000000000000000000000000000000000000000000000000000000606083015260808201528460a08201528460c082015261012083015180519161214a83836130c8565b526130c8565b506121596130dc565b6101208201516040519061216c82612a5d565b6001850182526020820152612180826130a5565b5261218a816130a5565b5083604051917f2bdfe0040000000000000000000000000000000000000000000000000000000083526020836004816001600160a01b037f0000000000000000000000000000000000000000000000000000000000000000165afa92831561046557829361229e575b506001600160a01b0383163b15611c19576001600160a01b039261227b91836040519586809581947ff2da44b60000000000000000000000000000000000000000000000000000000083527f0000000000000000000000000000000000000000000000000000000000000000600484015284602484015260606044840152606483019061312c565b0393165af180156107f55715610fb95761229790939193612ab1565b9138610fb9565b6122b891935060203d6020116104dc576104ce8183612b1a565b91386121f3565b60046040517f48270162000000000000000000000000000000000000000000000000000000008152fd5b602487634e487b7160e01b81526011600452fd5b909161231f6001916040612316866101208a01516130c8565b5101519061306a565b9201906120af565b602485634e487b7160e01b81526012600452fd5b602483634e487b7160e01b81526011600452fd5b9091506020813d60201161237b575b8161236b60209383612b1a565b81010312611b4457519038610e1b565b3d915061235e565b90506020813d6020116123c0575b8161239e60209383612b1a565b81010312611b445751906001600160a01b0382168203611b4457906020610dd1565b3d9150612391565b60046040517f74f88142000000000000000000000000000000000000000000000000000000008152fd5b65ffffffffffff6124098160c0840151164261306a565b16610100820152610d22565b60e0843603126107c95760405161242b81612a95565b61243485612bb8565b815261244260208601612bb8565b60208201526040850135604082015260608501356060820152612467608086016129fa565b608082015260a0858101359082015260c08501356001600160a01b03811690036124ac5760e06020602494829360c089013560c0820152815201950194925050610c16565b8780fd5b8580fd5b823567ffffffffffffffff81116107c95760c07fffffffffffffffffffffffffffffffffffffffffffffffffffffffffffffffdc82856004350101360301126107c9576040519161250483612a79565b600435840182016024013569ffffffffffffffffffff811690036124ac5760043584018201602481013584526044013561ffff811690036124ac57600435840182016044810135602085015261255c906064016129fa565b6040840152600435840182016084810135606085015261257e9060a401612bb8565b608084015267ffffffffffffffff60c4838660043501010135116124ac5760209283926125bb90369060043588010160c481013501602401612b59565b60a0820152815201920191610b3d565b8480fd5b503461015657806003193601126101565760206040516001600160a01b037f0000000000000000000000000000000000000000000000000000000000000000168152f35b503461015657602080600319360112611c1957600435908183526002815260408320906040519261264384612a0e565b6001600160a01b039360406affffffffffffffffffffff6001878754169687855201548781168685015260a01c169101526040517f975057e70000000000000000000000000000000000000000000000000000000081528281600481875afa80156105005785928492889261282e575b5060449060405197889384927fd49031c00000000000000000000000000000000000000000000000000000000084528960048501526024840152165afa9384156104ab5785946127ff575b50604051927ffc0c546a0000000000000000000000000000000000000000000000000000000084528284600481845afa9384156105005786946127c6575b509282600494604051958680927f313ce5670000000000000000000000000000000000000000000000000000000082525afa938415610500578694612793575b506060955060405194855216908301526040820152f35b9093508281813d83116127bf575b6127ab8183612b1a565b810103126124b0576060955051923861277c565b503d6127a1565b93508284813d83116127f8575b6127dd8183612b1a565b810103126124b057826127f1600495612bf7565b945061273c565b503d6127d3565b9093508181813d8311612827575b6128178183612b1a565b810103126125cb575192386126fe565b503d61280d565b92839194508092503d8311612866575b6128488183612b1a565b810103126124b0575184811681036124b057849183919060446126b3565b503d61283e565b503461015657602060031936011261015657602061288c600435613263565b604051908152f35b5034610156576080600319360112610156576128ae6129e4565b506024356001600160a01b038116036101565760643567ffffffffffffffff808211611b445736602383011215611b44578160040135908111611b4457369101602401116101565760206040517f150b7a02000000000000000000000000000000000000000000000000000000008152f35b503461015657806003193601126101565760206040517f00000000000000000000000000000000000000000000000000000000000000008152f35b503461015657602060031936011261015657612978600435612e67565b60405190600781101561298d57602092508152f35b602483634e487b7160e01b81526021600452fd5b905034611c195781600319360112611c19576020906001600160a01b037f0000000000000000000000000000000000000000000000000000000000000000168152f35b600435906001600160a01b038216820361049f57565b35906001600160a01b038216820361049f57565b6060810190811067ffffffffffffffff821117612a2a57604052565b634e487b7160e01b600052604160045260246000fd5b610240810190811067ffffffffffffffff821117612a2a57604052565b6040810190811067ffffffffffffffff821117612a2a57604052565b60c0810190811067ffffffffffffffff821117612a2a57604052565b60e0810190811067ffffffffffffffff821117612a2a57604052565b67ffffffffffffffff8111612a2a57604052565b610160810190811067ffffffffffffffff821117612a2a57604052565b6080810190811067ffffffffffffffff821117612a2a57604052565b6020810190811067ffffffffffffffff821117612a2a57604052565b90601f601f19910116810190811067ffffffffffffffff821117612a2a57604052565b67ffffffffffffffff8111612a2a57601f01601f191660200190565b81601f8201121561049f57803590612b7082612b3d565b92612b7e6040519485612b1a565b8284526020838301011161049f57816000926020809301838601378301015290565b67ffffffffffffffff8111612a2a5760051b60200190565b3590811515820361049f57565b359065ffffffffffff8216820361049f57565b60405190612be582612a0e565b60006040838281528260208201520152565b51906001600160a01b038216820361049f57565b809291610120918291031261049f5760405190810181811067ffffffffffffffff821117612a2a576040528092805182526020810151602083015260408101516040830152606081015160608301526080810151608083015260a081015160a083015260c081015160c083015260e08101516001600160a01b038116810361049f5760e083015261010080910151910152565b5190811515820361049f57565b80820392916103a0841261049f57612ce47ffffffffffffffffffffffffffffffffffffffffffffffffffffffffffffffee09183612c0b565b9301906102809081831261049f57606060405193612d0185612a40565b1261049f57604051612d1281612a0e565b61012090612d21838301612c9e565b815261014090612d32848301612c9e565b602082015261016090612d46858301612c9e565b604082015286526101808085015160208801526101a0908186015160408901526101c0928387015160608a01526101e094858801612d8390612c9e565b60808b015261020096612d97898901612c9e565b60a08c015261022099612dab8a8c01612c9e565b60c08d0152612dbd6102408b01612c9e565b60e08d0152612dcf6102608b01612c9e565b6101008d01528901612de090612c9e565b908b0152612df16102a08901612c9e565b908a0152612e026102c08801612c9e565b90890152612e136102e08701612c9e565b90880152612e246103008601612c9e565b90870152612e356103208501612c9e565b90860152612e466103408401612c9e565b90850152612e576103608301612bf7565b9084015261038001519082015290565b604080517f8776c4990000000000000000000000000000000000000000000000000000000081528260048201526103a0906001600160a01b03938282602481887f0000000000000000000000000000000000000000000000000000000000000000165afa91821561304057600093849361300c575b50508251801561300157600114612ff757806000526020926004845260ff856000205416612fec57612f0e81836140b3565b612fe157516002149081612fc0575b50612fb75760049361020083920151168351948580927fa8c15f4a0000000000000000000000000000000000000000000000000000000082525afa918215612fad5750600091612f79575b509050612f7457600390565b600490565b82813d8311612fa6575b612f8d8183612b1a565b810103126101565750612f9f90612c9e565b8038612f68565b503d612f83565b513d6000823e3d90fd5b50505050600290565b90506000526001825265ffffffffffff836000205460301c16151538612f1d565b505050505050600590565b505050505050600690565b5050505050600190565b505050505050600090565b80919294506130309350903d10613039575b6130288183612b1a565b810190612cab565b90913880612edc565b503d61301e565b84513d6000823e3d90fd5b9081602091031261049f57516001600160a01b038116810361049f5790565b9190820180921161307757565b634e487b7160e01b600052601160045260246000fd5b65ffffffffffff918216908216039190821161307757565b8051156130b25760200190565b634e487b7160e01b600052603260045260246000fd5b80518210156130b25760209160051b010190565b6040908151916130eb83612a5d565b600183528291600091825b6020808210156131235782516020929161310f82612a5d565b8682526060818301528289010152016130f6565b50505091925050565b908082519081815260208091019281808460051b830101950193600080925b85841061315c575050505050505090565b9091929387601f19838398999a0301855288519060408381830193805184520151928185840152835180915284606080940194019287925b8284106131b6575050505050908060019299019401940192959493919061314b565b91939560e06001929496885180511515825283810151151584830152858101518683015286810151878301526001600160a01b0360808181840151169084015260a0808301519084015260c08092015116908201520196019401918a95949391613194565b60005b83811061322e5750506000910152565b818101518382015260200161321e565b90601f19601f60209361325c8151809281875287808801910161321b565b0116010190565b604051907f8776c4990000000000000000000000000000000000000000000000000000000082528060048301526103a0826024816001600160a01b037f0000000000000000000000000000000000000000000000000000000000000000165afa91821561370a576000908193614019575b5081600052600460205260ff60406000205416801561400d575b613fe3576132fc81836140b3565b613da7576040517f12b37b140000000000000000000000000000000000000000000000000000000081528260048201526103a0816024816001600160a01b037f0000000000000000000000000000000000000000000000000000000000000000165afa90811561370a57600091613d85575b5060208083015191015103613d5b575160011480613d39575b156137165760209060406001600160a01b036102008095015116826000526001845281600020948251956133ba87612a0e565b54958365ffffffffffff8089168352808960301c1698898985015260601c169101528251956133e887612ae2565b86526000858701526000838701526000606087015282519161340983612a0e565b60008352600086840152600084840152613436845161342781612a5d565b6000815260018882015261416e565b9184519361344385612a40565b84526000878501526127108086860152606085015260016080850152600060a0850152600060c0850152600060e08501526000610100850152600061012085015260006101408501526000610160850152600061018085015260006101a085015260016101c085015260016101e08501528301526102208201527f44656669666120726566756e642070686173652e0000000000000000000000008461368761367385516134f081612afe565b6000815261365787519661350388612afe565b6000885261354f89519c8d9b63175b7be560e31b8d5260048d015260248c01906001600160a01b0360608092805185526020810151602086015260408101516040860152015116910152565b80518051151560a48c0152602080820151151560c48d0152604091820151151560e48d01528201516101048c01528101516101248b015260608101516101448b0152608081015115156101648b015260a081015115156101848b015260c081015115156101a48b015260e081015115156101c48b015261010081015115156101e48b015261012081015115156102048b015261014081015115156102248b015261016081015115156102448b015261018081015115156102648b01526101a081015115156102848b01526101c081015115156102a48b01526101e081015115156102c48b01526102008101516001600160a01b03166102e48b015261022001516103048a0152565b60006103248901526103a06103448901526103a488019061312c565b60031994858883030161036489015261403f565b858103938401610384870152601481520152018160006001600160a01b037f0000000000000000000000000000000000000000000000000000000000000000165af190811561370a576000916136db575090565b906020823d602011613702575b816136f560209383612b1a565b8101031261015657505190565b3d91506136e8565b6040513d6000823e3d90fd5b906102006001600160a01b03910151169080600052600260205260406000206affffffffffffffffffffff60016040519261375084612a0e565b6001600160a01b03815416845201546001600160a01b038116602084015260a01c1660408201526040519061378482612a5d565b6001825260005b60208110613cf857506001600160a01b038151166001600160a01b036020830151166affffffffffffffffffffff604084015116604051917f1982d679000000000000000000000000000000000000000000000000000000008352806004840152602083602481875afa92831561370a57600093613cc4575b506040519361381285612a79565b845260208401526040830152606082015260006080820152600060a082015261383a836130a5565b52613844826130a5565b506040517f2bdfe0040000000000000000000000000000000000000000000000000000000081526020816004816001600160a01b037f0000000000000000000000000000000000000000000000000000000000000000165afa90811561370a576001600160a01b03916000918291613ca5575b506064604051809481937f69e11cc50000000000000000000000000000000000000000000000000000000083527f00000000000000000000000000000000000000000000000000000000000000006004840152856024840152896044840152165afa90811561370a57600091613b52575b50917f4465666966612073636f72696e672070686173652e00000000000000000000006020613ae2613673604095839897600081511515600014613b3c57506001600160a01b03856139786130dc565b9301511661eeee8103613b3657506001905b88519161399683612a5d565b8252858201526139a5826130a5565b526139af816130a5565b505b61365787519a6139c08c612ae2565b60008c526000868d01526000898d0152600060608d01528851906139e382612a0e565b6000825260008783015260008a830152613a108a51613a0181612a5d565b6000815260008982015261416e565b908a5192613a1d84612a40565b8352600088840152612710808c850152606084015260016080840152600060a0840152600060c0840152600060e08401526000610100840152600061012084015260006101408401526000610160840152600061018084015260006101a084015260016101c084015260016101e084015261020083015261022082015261354f89519c8d9b63175b7be560e31b8d5260048d015260248c01906001600160a01b0360608092805185526020810151602086015260408101516040860152015116910152565b858103938401610384870152601581520152018160006001600160a01b037f0000000000000000000000000000000000000000000000000000000000000000165af190811561370a576000916136db575090565b9061398a565b915050865190613b4b82612afe565b81526139b1565b903d8082843e613b628184612b1a565b6020838281010312611c195782519167ffffffffffffffff831161015657818401601f848601011215610156578284015191613b9d83612ba0565b94613bab6040519687612b1a565b8386526020860194828201602060e08702838501010111611f1d57602081830101955b602060e0870283850101018710613c0e57507f4465666966612073636f72696e672070686173652e00000000000000000000009550613928945050505050565b60e08785850103126125cb57604051613c2681612a95565b613c2f88612c9e565b8152613c3d60208901612c9e565b6020820152604088015160408201526060880151606082015260808801516001600160a01b03811681036107c957608082015260a088015160a082015260c08801516001600160a01b03811681036107c95760c0820152815260e09690960195602001613bce565b613cbe915060203d6020116104dc576104ce8183612b1a565b386138b7565b90926020823d602011613cf0575b81613cdf60209383612b1a565b810103126101565750519138613804565b3d9150613cd2565b602090604051613d0781612a79565b60008152600083820152600060408201526000606082015260006080820152600060a08201528282860101520161378b565b5080600052600160205265ffffffffffff60406000205460301c161515613387565b60046040517f11f43385000000000000000000000000000000000000000000000000000000008152fd5b613da091506103a03d6103a011613039576130288183612b1a565b503861336e565b50602061354f9260406001600160a01b036102008093015116815192613dcc84612ae2565b6000845260008585015260008385015260006060850152825191613def83612a0e565b60008352600086840152600084840152613e0d845161342781612a5d565b91845193613e1a85612a40565b84526000878501526127108086860152606085015260016080850152600060a0850152600060c0850152600060e08501526000610100850152600061012085015260006101408501526000610160850152600061018085015260006101a085015260016101c085015260016101e08501528301526102208201527f446566696661206e6f20636f6e746573742e000000000000000000000000000084613f246136738551613ec781612afe565b60008152613657875196613eda88612afe565b6000885288519c8d9a63175b7be560e31b8c528d60048d015260248c01906001600160a01b0360608092805185526020810151602086015260408101516040860152015116910152565b858103938401610384870152601281520152018160006001600160a01b037f0000000000000000000000000000000000000000000000000000000000000000165af191821561370a57600092613faf575b506000526004602052604060002060017fffffffffffffffffffffffffffffffffffffffffffffffffffffffffffffff0082541617905590565b90916020823d602011613fdb575b81613fca60209383612b1a565b810103126101565750519038613f75565b3d9150613fbd565b60046040517fdc7a2515000000000000000000000000000000000000000000000000000000008152fd5b506080810151156132ee565b90506140379192506103a03d6103a011613039576130288183612b1a565b9190386132d4565b90815180825260208080930193019160005b82811061405f575050505090565b835180516001600160a01b03908116875281840151168684015260408082015190870152606080820151908701526080808201519087015260a0908101519086015260c09094019392810192600101614051565b906040810151604051927fa40bb9c7000000000000000000000000000000000000000000000000000000008452600484015260248301526103a09182816044816001600160a01b037f0000000000000000000000000000000000000000000000000000000000000000165afa92831561370a5760009361414e575b50505190519060018201809211613077570361414957600090565b600190565b614165929350803d10613039576130288183612b1a565b5090388061412e565b90600091805161418a575b6020015161418357565b9060021790565b60019250614179565b6001600160a01b036000541633036141a757565b606460405162461bcd60e51b815260206004820152602060248201527f4f776e61626c653a2063616c6c6572206973206e6f7420746865206f776e65726044820152fd5b6e5af43d82803e903d91602b57fd5bf390763d602d80600a3d3981f3363d3d373d3d3d363d7300000062ffffff8260881c161760005260781b17602052603760096000f0906001600160a01b0382161561424157565b606460405162461bcd60e51b815260206004820152601660248201527f455243313136373a20637265617465206661696c6564000000000000000000006044820152fdfea26469706673582212201c3cf5cc079998fae3dc58322e6946d6caf8b73759a59d3161cc362d80db3eaf64736f6c63430008140033",
    "linkReferences": {}
  },
  "methodIdentifiers": {
    "SPLIT_DOMAIN()": "ff16a2f2",
    "ballkidzProjectId()": "0d75b3aa",
    "changeFee(uint256)": "6a1db1bf",
    "claimProtocolProjectToken()": "ca449a25",
    "controller()": "f77c4791",
    "currentGamePhaseOf(uint256)": "0715610a",
    "currentGamePotOf(uint256)": "3af76f34",
    "delegateCodeOrigin()": "06b552b5",
    "delegatesRegistry()": "d574ff04",
    "distributionOpsOf(uint256)": "53292c68",
    "feeDivisor()": "9a36f932",
    "governorCodeOrigin()": "ff2a43cc",
    "launchGameWith((string,(string,uint256),string,string,(uint80,uint16,address,bytes32,bool,string)[],address,uint48,uint48,uint48,(bool,bool,uint256,uint256,address,uint256,address)[],uint88,address,uint256,uint256,address,address,address,address))": "47d110bc",
    "nextPhaseNeedsQueueing(uint256)": "81312a14",
    "onERC721Received(address,address,uint256,bytes)": "150b7a02",
    "owner()": "8da5cb5b",
    "protocolFeeProjectTokenAccount()": "3f3090d9",
    "queueNextPhaseOf(uint256)": "1c069dbb",
    "renounceOwnership()": "715018a6",
    "timesFor(uint256)": "b07925d3",
    "tokenUriResolverCodeOrigin()": "80f07954",
    "transferOwnership(address)": "f2fde38b"
  },
  "id": 1
}