{
  "abi": [
    {
      "inputs": [
        {
          "internalType": "address",
          "name": "_delegateCodeOrigin",
          "type": "address"
        },
        {
          "internalType": "contract IJB721TokenUriResolver",
          "name": "_tokenUriResolver",
          "type": "address"
        },
        {
          "internalType": "contract IDefifaGovernor",
          "name": "_governor",
          "type": "address"
        },
        {
          "internalType": "contract IJBController3_1",
          "name": "_controller",
          "type": "address"
        },
        {
          "internalType": "contract IJBDelegatesRegistry",
          "name": "_delegatesRegistry",
          "type": "address"
        },
        {
          "internalType": "address",
          "name": "_protocolFeeProjectTokenAccount",
          "type": "address"
        },
        {
          "internalType": "uint256",
          "name": "_ballkidzProjectId",
          "type": "uint256"
        },
        {
          "internalType": "address",
          "name": "_owner",
          "type": "address"
        }
      ],
      "stateMutability": "nonpayable",
      "type": "constructor"
    },
    {
      "inputs": [],
      "name": "GAME_OVER",
      "type": "error"
    },
    {
      "inputs": [],
      "name": "INVALID_FEE_PERCENT",
      "type": "error"
    },
    {
      "inputs": [],
      "name": "INVALID_GAME_CONFIGURATION",
      "type": "error"
    },
    {
      "inputs": [],
      "name": "PHASE_ALREADY_QUEUED",
      "type": "error"
    },
    {
      "inputs": [],
      "name": "SPLITS_DONT_ADD_UP",
      "type": "error"
    },
    {
      "inputs": [],
      "name": "UNEXPECTED_TERMINAL_CURRENCY",
      "type": "error"
    },
    {
      "anonymous": false,
      "inputs": [
        {
          "indexed": true,
          "internalType": "uint256",
          "name": "gameId",
          "type": "uint256"
        },
        {
          "indexed": true,
          "internalType": "contract IDefifaDelegate",
          "name": "delegate",
          "type": "address"
        },
        {
          "indexed": true,
          "internalType": "contract IDefifaGovernor",
          "name": "governor",
          "type": "address"
        },
        {
          "indexed": false,
          "internalType": "contract IJB721TokenUriResolver",
          "name": "tokenUriResolver",
          "type": "address"
        },
        {
          "indexed": false,
          "internalType": "address",
          "name": "caller",
          "type": "address"
        }
      ],
      "name": "LaunchGame",
      "type": "event"
    },
    {
      "anonymous": false,
      "inputs": [
        {
          "indexed": true,
          "internalType": "address",
          "name": "previousOwner",
          "type": "address"
        },
        {
          "indexed": true,
          "internalType": "address",
          "name": "newOwner",
          "type": "address"
        }
      ],
      "name": "OwnershipTransferred",
      "type": "event"
    },
    {
      "inputs": [],
      "name": "SPLIT_DOMAIN",
      "outputs": [
        {
          "internalType": "uint256",
          "name": "",
          "type": "uint256"
        }
      ],
      "stateMutability": "view",
      "type": "function"
    },
    {
      "inputs": [],
      "name": "ballkidzProjectId",
      "outputs": [
        {
          "internalType": "uint256",
          "name": "",
          "type": "uint256"
        }
      ],
      "stateMutability": "view",
      "type": "function"
    },
    {
      "inputs": [
        {
          "internalType": "uint256",
          "name": "_percent",
          "type": "uint256"
        }
      ],
      "name": "changeFee",
      "outputs": [],
      "stateMutability": "nonpayable",
      "type": "function"
    },
    {
      "inputs": [],
      "name": "claimProtocolProjectToken",
      "outputs": [],
      "stateMutability": "nonpayable",
      "type": "function"
    },
    {
      "inputs": [],
      "name": "controller",
      "outputs": [
        {
          "internalType": "contract IJBController3_1",
          "name": "",
          "type": "address"
        }
      ],
      "stateMutability": "view",
      "type": "function"
    },
    {
      "inputs": [
        {
          "internalType": "uint256",
          "name": "_gameId",
          "type": "uint256"
        }
      ],
      "name": "currentGamePhaseOf",
      "outputs": [
        {
          "internalType": "enum DefifaGamePhase",
          "name": "",
          "type": "uint8"
        }
      ],
      "stateMutability": "view",
      "type": "function"
    },
    {
      "inputs": [
        {
          "internalType": "uint256",
          "name": "_gameId",
          "type": "uint256"
        }
      ],
      "name": "currentGamePotOf",
      "outputs": [
        {
          "internalType": "uint256",
          "name": "",
          "type": "uint256"
        },
        {
          "internalType": "address",
          "name": "",
          "type": "address"
        },
        {
          "internalType": "uint256",
          "name": "",
          "type": "uint256"
        }
      ],
      "stateMutability": "view",
      "type": "function"
    },
    {
      "inputs": [],
      "name": "delegateCodeOrigin",
      "outputs": [
        {
          "internalType": "address",
          "name": "",
          "type": "address"
        }
      ],
      "stateMutability": "view",
      "type": "function"
    },
    {
      "inputs": [],
      "name": "delegatesRegistry",
      "outputs": [
        {
          "internalType": "contract IJBDelegatesRegistry",
          "name": "",
          "type": "address"
        }
      ],
      "stateMutability": "view",
      "type": "function"
    },
    {
      "inputs": [
        {
          "internalType": "uint256",
          "name": "_gameId",
          "type": "uint256"
        }
      ],
      "name": "distributionOpsOf",
      "outputs": [
        {
          "components": [
            {
              "internalType": "contract IJBPaymentTerminal",
              "name": "terminal",
              "type": "address"
            },
            {
              "internalType": "address",
              "name": "token",
              "type": "address"
            },
            {
              "internalType": "uint88",
              "name": "distributionLimit",
              "type": "uint88"
            }
          ],
          "internalType": "struct DefifaDistributionOpsData",
          "name": "",
          "type": "tuple"
        }
      ],
      "stateMutability": "view",
      "type": "function"
    },
    {
      "inputs": [],
      "name": "feeDivisor",
      "outputs": [
        {
          "internalType": "uint256",
          "name": "",
          "type": "uint256"
        }
      ],
      "stateMutability": "view",
      "type": "function"
    },
    {
      "inputs": [],
      "name": "governor",
      "outputs": [
        {
          "internalType": "contract IDefifaGovernor",
          "name": "",
          "type": "address"
        }
      ],
      "stateMutability": "view",
      "type": "function"
    },
    {
      "inputs": [
        {
          "components": [
            {
              "internalType": "string",
              "name": "name",
              "type": "string"
            },
            {
              "components": [
                {
                  "internalType": "string",
                  "name": "content",
                  "type": "string"
                },
                {
                  "internalType": "uint256",
                  "name": "domain",
                  "type": "uint256"
                }
              ],
              "internalType": "struct JBProjectMetadata",
              "name": "projectMetadata",
              "type": "tuple"
            },
            {
              "internalType": "string",
              "name": "contractUri",
              "type": "string"
            },
            {
              "internalType": "string",
              "name": "baseUri",
              "type": "string"
            },
            {
              "components": [
                {
                  "internalType": "string",
                  "name": "name",
                  "type": "string"
                },
                {
                  "internalType": "uint80",
                  "name": "price",
                  "type": "uint80"
                },
                {
                  "internalType": "uint16",
                  "name": "reservedRate",
                  "type": "uint16"
                },
                {
                  "internalType": "address",
                  "name": "reservedTokenBeneficiary",
                  "type": "address"
                },
                {
                  "internalType": "bytes32",
                  "name": "encodedIPFSUri",
                  "type": "bytes32"
                },
                {
                  "internalType": "bool",
                  "name": "shouldUseReservedTokenBeneficiaryAsDefault",
                  "type": "bool"
                }
              ],
              "internalType": "struct DefifaTierParams[]",
              "name": "tiers",
              "type": "tuple[]"
            },
            {
              "internalType": "address",
              "name": "token",
              "type": "address"
            },
            {
              "internalType": "uint48",
              "name": "mintDuration",
              "type": "uint48"
            },
            {
              "internalType": "uint48",
              "name": "refundDuration",
              "type": "uint48"
            },
            {
              "internalType": "uint48",
              "name": "start",
              "type": "uint48"
            },
            {
              "components": [
                {
                  "internalType": "bool",
                  "name": "preferClaimed",
                  "type": "bool"
                },
                {
                  "internalType": "bool",
                  "name": "preferAddToBalance",
                  "type": "bool"
                },
                {
                  "internalType": "uint256",
                  "name": "percent",
                  "type": "uint256"
                },
                {
                  "internalType": "uint256",
                  "name": "projectId",
                  "type": "uint256"
                },
                {
                  "internalType": "address payable",
                  "name": "beneficiary",
                  "type": "address"
                },
                {
                  "internalType": "uint256",
                  "name": "lockedUntil",
                  "type": "uint256"
                },
                {
                  "internalType": "contract IJBSplitAllocator",
                  "name": "allocator",
                  "type": "address"
                }
              ],
              "internalType": "struct JBSplit[]",
              "name": "splits",
              "type": "tuple[]"
            },
            {
              "internalType": "uint88",
              "name": "distributionLimit",
              "type": "uint88"
            },
            {
              "internalType": "address payable",
              "name": "ballkidzFeeProjectTokenAccount",
              "type": "address"
            },
            {
              "internalType": "uint256",
              "name": "votingStartTime",
              "type": "uint256"
            },
            {
              "internalType": "uint256",
              "name": "votingPeriod",
              "type": "uint256"
            },
            {
              "internalType": "address",
              "name": "defaultVotingDelegate",
              "type": "address"
            },
            {
              "internalType": "contract IJB721TokenUriResolver",
              "name": "defaultTokenUriResolver",
              "type": "address"
            },
            {
              "internalType": "contract IJBPaymentTerminal",
              "name": "terminal",
              "type": "address"
            },
            {
              "internalType": "contract IJBTiered721DelegateStore",
              "name": "store",
              "type": "address"
            }
          ],
          "internalType": "struct DefifaLaunchProjectData",
          "name": "_launchProjectData",
          "type": "tuple"
        }
      ],
      "name": "launchGameWith",
      "outputs": [
        {
          "internalType": "uint256",
          "name": "gameId",
          "type": "uint256"
        }
      ],
      "stateMutability": "nonpayable",
      "type": "function"
    },
    {
      "inputs": [
        {
          "internalType": "uint256",
          "name": "_gameId",
          "type": "uint256"
        }
      ],
      "name": "nextPhaseNeedsQueueing",
      "outputs": [
        {
          "internalType": "bool",
          "name": "",
          "type": "bool"
        }
      ],
      "stateMutability": "view",
      "type": "function"
    },
    {
      "inputs": [
        {
          "internalType": "address",
          "name": "",
          "type": "address"
        },
        {
          "internalType": "address",
          "name": "",
          "type": "address"
        },
        {
          "internalType": "uint256",
          "name": "",
          "type": "uint256"
        },
        {
          "internalType": "bytes",
          "name": "",
          "type": "bytes"
        }
      ],
      "name": "onERC721Received",
      "outputs": [
        {
          "internalType": "bytes4",
          "name": "",
          "type": "bytes4"
        }
      ],
      "stateMutability": "pure",
      "type": "function"
    },
    {
      "inputs": [],
      "name": "owner",
      "outputs": [
        {
          "internalType": "address",
          "name": "",
          "type": "address"
        }
      ],
      "stateMutability": "view",
      "type": "function"
    },
    {
      "inputs": [],
      "name": "protocolFeeProjectTokenAccount",
      "outputs": [
        {
          "internalType": "address",
          "name": "",
          "type": "address"
        }
      ],
      "stateMutability": "view",
      "type": "function"
    },
    {
      "inputs": [
        {
          "internalType": "uint256",
          "name": "_gameId",
          "type": "uint256"
        }
      ],
      "name": "queueNextPhaseOf",
      "outputs": [
        {
          "internalType": "uint256",
          "name": "configuration",
          "type": "uint256"
        }
      ],
      "stateMutability": "nonpayable",
      "type": "function"
    },
    {
      "inputs": [],
      "name": "renounceOwnership",
      "outputs": [],
      "stateMutability": "nonpayable",
      "type": "function"
    },
    {
      "inputs": [
        {
          "internalType": "uint256",
          "name": "_gameId",
          "type": "uint256"
        }
      ],
      "name": "timesFor",
      "outputs": [
        {
          "components": [
            {
              "internalType": "uint48",
              "name": "mintDuration",
              "type": "uint48"
            },
            {
              "internalType": "uint48",
              "name": "refundDuration",
              "type": "uint48"
            },
            {
              "internalType": "uint48",
              "name": "start",
              "type": "uint48"
            }
          ],
          "internalType": "struct DefifaTimeData",
          "name": "",
          "type": "tuple"
        }
      ],
      "stateMutability": "view",
      "type": "function"
    },
    {
      "inputs": [],
      "name": "tokenUriResolver",
      "outputs": [
        {
          "internalType": "contract IJB721TokenUriResolver",
          "name": "",
          "type": "address"
        }
      ],
      "stateMutability": "view",
      "type": "function"
    },
    {
      "inputs": [
        {
          "internalType": "address",
          "name": "newOwner",
          "type": "address"
        }
      ],
      "name": "transferOwnership",
      "outputs": [],
      "stateMutability": "nonpayable",
      "type": "function"
    }
  ],
  "bytecode": {
    "object": "0x61016034620001da576200442e38819003601f8101601f191683016001600160401b03811184821017620001df5783928291604052833961010092839181010312620001da576200005081620001f5565b6020820151916001600160a01b03918284168403620001da576040820151918383168303620001da5760608101518481168103620001da5760808201519485168503620001da57620000ef93620000aa60a08401620001f5565b96620000be60e060c08601519501620001f5565b94620000ca336200020a565b601460055560a05260c05260e05286526101209485526101409384526080526200020a565b604051916141dc9384620002528539608051848181611f6b015281816120a9015281816128ab0152613885015260a051848181610fa10152612977015260c05184818161027c0152611d60015260e05184818161187801526128ee015251838181610151015281816103010152818161060b01528181610cce0152818161104f015281816112140152818161183f0152818161202c01528181612e6001528181613240015281816132dc015281816136460152818161381a01528181613aa101528181613ee701526140b801525182818161041c01526125620152518181816102c001526119500152f35b600080fd5b634e487b7160e01b600052604160045260246000fd5b51906001600160a01b0382168203620001da57565b600080546001600160a01b039283166001600160a01b03198216811783559216907f8be0079c531659141344cd1fd0a4f28419497f9722a3daafe3b4186f6b6457e09080a356fe608080604052600436101561001357600080fd5b600090813560e01c90816306b552b514612958575080630715610a146129125780630c340a24146128ce5780630d75b3aa14612893578063150b7a02146128075780631c069dbb146127e05780633af76f34146125865780633f3090d91461254257806353292c68146124bd5780635dc1a1d0146108d95780636a1db1bf14610867578063715018a61461080057806381312a14146105c55780638da5cb5b1461059f5780639a36f93214610581578063b07925d31461050b578063ca449a25146102e4578063d574ff04146102a0578063e131fc0c1461025c578063f2fde38b14610175578063f77c4791146101315763ff16a2f21461011357600080fd5b3461012e578060031936011261012e57602090604051908152f35b80fd5b503461012e578060031936011261012e5760206040516001600160a01b037f0000000000000000000000000000000000000000000000000000000000000000168152f35b503461012e57602060031936011261012e5761018f61299b565b61019761414e565b6001600160a01b038091169081156101f2576000548273ffffffffffffffffffffffffffffffffffffffff19821617600055167f8be0079c531659141344cd1fd0a4f28419497f9722a3daafe3b4186f6b6457e0600080a380f35b608460405162461bcd60e51b815260206004820152602660248201527f4f776e61626c653a206e6577206f776e657220697320746865207a65726f206160448201527f64647265737300000000000000000000000000000000000000000000000000006064820152fd5b503461012e578060031936011261012e5760206040516001600160a01b037f0000000000000000000000000000000000000000000000000000000000000000168152f35b503461012e578060031936011261012e5760206040516001600160a01b037f0000000000000000000000000000000000000000000000000000000000000000168152f35b503461012e578060031936011261012e57806001600160a01b03807f000000000000000000000000000000000000000000000000000000000000000016906040517f6193063000000000000000000000000000000000000000000000000000000000928382526020918281600481855afa908115610500578391859188916104e3575b50169460046040518094819382525afa9081156104ab578391839187916104b6575b506044604051809481937f5287af3700000000000000000000000000000000000000000000000000000000835230600484015260016024840152165afa9182156104ab578592610475575b5050823b1561047057608484928360405195869485937fac689bcd000000000000000000000000000000000000000000000000000000008552306004860152600160248601527f000000000000000000000000000000000000000000000000000000000000000016604485015260648401525af18015610465576104555750f35b61045e90612a68565b61012e5780f35b6040513d84823e3d90fd5b505050fd5b8195508092503d83116104a4575b61048d8183612ad1565b8101031261049f5783925138806103d4565b600080fd5b503d610483565b6040513d87823e3d90fd5b6104d69150823d84116104dc575b6104ce8183612ad1565b810190613002565b38610389565b503d6104c4565b6104fa9150833d85116104dc576104ce8183612ad1565b38610367565b6040513d88823e3d90fd5b503461012e57602060031936011261012e57604060609161052a612b8f565b50600435815260016020522060405190610543826129c5565b5465ffffffffffff9081808216938481528160406020830192828660301c1684520193871c1683526040519485525116602084015251166040820152f35b503461012e578060031936011261012e576020600554604051908152f35b503461012e578060031936011261012e576001600160a01b036020915416604051908152f35b503461012e576020908160031936011261012e576040517f557e715500000000000000000000000000000000000000000000000000000000808252916001600160a01b037f0000000000000000000000000000000000000000000000000000000000000000811660048035908790869081855afa9485156107f55784956107d4575b5082939495604051967f43a266c200000000000000000000000000000000000000000000000000000000885282600489015287602481610120988994165afa968715610500579088918798610794575b5060046040518095819382525afa9182156104ab57908492918692610772575b5060249060405194859384927f5c5500780000000000000000000000000000000000000000000000000000000084526004840152165afa92831561076657809361072a575b50505082608083015115159283610719575b506040518315158152f35b81015191015114905038828161070e565b90918093503d841161075f575b6107418184612ad1565b8201928284031261012e57509061075791612bc2565b3880806106fc565b503d610737565b604051903d90823e3d90fd5b602491925061078d90893d8b116104dc576104ce8183612ad1565b91906106b7565b91509650843d86116107cd575b6107ab8183612ad1565b81019085818303126107c95788916107c291612bc2565b9638610697565b8680fd5b503d6107a1565b839495506107ee90883d8a116104dc576104ce8183612ad1565b9493610647565b6040513d86823e3d90fd5b503461012e578060031936011261012e5761081961414e565b60006001600160a01b03815473ffffffffffffffffffffffffffffffffffffffff1981168355167f8be0079c531659141344cd1fd0a4f28419497f9722a3daafe3b4186f6b6457e08280a380f35b503461012e57602060031936011261012e5760043561088461414e565b600581116108af57801561089b5760640460055580f35b602482634e487b7160e01b81526012600452fd5b60046040517f42c9b523000000000000000000000000000000000000000000000000000000008152fd5b503461012e57602060031936011261012e5767ffffffffffffffff6004351161012e576102406003196004353603011261012e57604051610919816129f7565b6004356004013567ffffffffffffffff8111611a3e57610940906004369181350101612b10565b81526024600435013567ffffffffffffffff8111611a3e576004350160406003198236030112611a3e576040519061097782612a14565b60048101359067ffffffffffffffff8211611a3a5761099e60249260043691840101612b10565b83520135602082015260208201526044600435013567ffffffffffffffff8111611a3e576109d3906004369181350101612b10565b60408201526064600435013567ffffffffffffffff8111611a3e576109ff906004369181350101612b10565b60608201526084600435013567ffffffffffffffff8111611a3e573660238260043501011215611a3e57600481813501013590610a3b82612b57565b91610a496040519384612ad1565b80835260208301913660248360051b8360043501010111611b27576024816004350101925b60248360051b83600435010101841061239c57505050506080820152610a9860a4600435016129b1565b60a0820152610aab60c460043501612b7c565b60c0820152610abe60e460043501612b7c565b60e0820152610ad261010460043501612b7c565b610100820152610124600435013567ffffffffffffffff8111611a3e573660238260043501011215611a3e57600481813501013590610b1082612b57565b91610b1e6040519384612ad1565b808352602083019136602460e084028360043501010111611b2757916024836004350101925b602460e08402826004350101018410612305575050505061012082015260043561014401356affffffffffffffffffffff81169003612107576101446004350135610140820152610b9a610164600435016129b1565b6101608201526004356101848101356101808301526101a48101356101a0830152610bc8906101c4016129b1565b6101c08201526004356101e401356001600160a01b0381169003612107576004356101e48101356101e083015261020401356001600160a01b03811690036121075760043561020481013561020083015261022401356001600160a01b038116900361210757600435610224013561022082015261010081015165ffffffffffff168061228c575065ffffffffffff610c77610c6a8260c08501511642613021565b8260e08501511690613021565b166101008201525b65ffffffffffff60c08201511615801561224b575b612221576040517f8b79543c0000000000000000000000000000000000000000000000000000000081526020816004816001600160a01b037f0000000000000000000000000000000000000000000000000000000000000000165afa908115611c965783916121dc575b509060206001600160a01b03926004604051809581937f06661abd000000000000000000000000000000000000000000000000000000008352165afa918215611c965783926121a8575b506001820182116121945765ffffffffffff60c08201511665ffffffffffff60e08301511665ffffffffffff6101008401511660405192610d88846129c5565b83526020830191825260408301908152600185018652600160205265ffffffffffff604087209351167fffffffffffffffffffffffffffff00000000000000000000000000000000000071ffffffffffff0000000000000000000000006bffffffffffff0000000000008654955160301b16935160601b16931617171790556001600160a01b03610200820151166affffffffffffffffffffff610140830151166001600160a01b0360018160a0860151169360405190610e48826129c5565b8152602081019485526040810193845281870188526002602052826040892091511673ffffffffffffffffffffffffffffffffffffffff19825416178155019251167fff000000000000000000000000000000000000000000000000000000000000007effffffffffffffffffffff00000000000000000000000000000000000000008454935160a01b169216171790556101208101515180611f09575b50608081015151610ef681612b57565b90610f046040519283612ad1565b808252610f1081612b57565b855b601f1982018110611ea857505060808301515190610f48610f3283612b57565b92610f406040519485612ad1565b808452612b57565b865b601f1982018110611e925750508560a0604051610f6681612a30565b606081528260208201528260408201528260608201528260808201520152855b818110611dc95750506e5af43d82803e903d91602b57fd5bf37f0000000000000000000000000000000000000000000000000000000000000000763d602d80600a3d3981f3363d3d373d3d3d363d7300000062ffffff8260881c1617875260781b176020526001600160a01b036037600987f016918215611d85576101e08401516001600160a01b03168015611d5d57915b604051917fc41c2f240000000000000000000000000000000000000000000000000000000083526020836004816001600160a01b037f0000000000000000000000000000000000000000000000000000000000000000165afa928315611d52578893611d0a575b508551888060018a01807a184f03e93ff9f4daa797ed6e38ed64bf6a1f01000000000000000080821015611cf9575b506d04ee2d6d415b85acef810000000080831015611cea575b50662386f26fc1000080831015611cdb575b506305f5e10080831015611ccc575b50612710821015611cbb575b6064821015611cab575b600a80921015611ca1575b8160001960216001870196601f196111396111238a612af4565b996111316040519b8c612ad1565b808b52612af4565b01966020890197368937508701015b01917f30313233343536373839616263646566000000000000000000000000000000008282061a835304908d821561118557506000198391611148565b9490506111dd9250602791506111cd936040519485927f44454649464120000000000000000000000000000000000000000000000000006020850152518092858501906131ba565b8101036007810184520182612ad1565b604051907f557e71550000000000000000000000000000000000000000000000000000000082526020826004816001600160a01b037f0000000000000000000000000000000000000000000000000000000000000000165afa8015611c96578a928491611c77575b5060608301519060408401519260206001600160a01b0360a08161020089015116970151166024604051809881937f1982d67900000000000000000000000000000000000000000000000000000000835260048301525afa948515610500578d9695611c40575b506001600160a01b036101c0816102208901511697015116968c3b15611c3c57908f9a918f9a99989796959493926040519b7f3900c6f9000000000000000000000000000000000000000000000000000000008d5260010160048d01526001600160a01b031660248c015260448b016101e090526101e48b0161132e916131dd565b8a81036003190160648c0152611343916131dd565b906001600160a01b031660848a01528881036003190160a48a0152611367916131dd565b6001600160a01b038a1660c48901528781036003190160e489015261138b916131dd565b868103600319016101048801528451908181526020019460200190885b818110611b7a5750505065ffffffffffff1661012486015261014485015230610164850152306101848501526101a4840152600319838203016101c4840152815180825260208201916020808360051b83010194019286915b838310611b4757505050505081808492038183885af1801561046557611b33575b505061020083015160a08401516040517fdf21a7dd0000000000000000000000000000000000000000000000000000000081526001600160a01b0391821660048201526001870160248201529160209183916044918391165afa908115610500578691611af5575b5015611acb576103e060246040516114a181612a14565b60018152602036818301376001600160a01b03610200870151166114c482613044565b526117cf60208701516117bc65ffffffffffff60c08a01511691604051926114eb84612a99565b83528b60208401528b60408401528b606084015260405161150b816129c5565b8c81528c60208201528c60408201526115398d6040519061152b82612a14565b815260016020820152614129565b60405191611546836129f7565b82528d6020830152612710604083015261271060608301528d60808301528d60a08301528d60c08301528d60e08301528d6101008301528d6101208301528d6101408301528d6101608301528d6101808301528d6101a083015260016101c083015260016101e08301528a61020083015261022082015265ffffffffffff6115ed8c8260e06115e382610100850151168360c08601511690613fe2565b9201511690613fe2565b6117a3604051936115fd85612ab5565b6000855261169a604051986116118a612ab5565b60008a526040519d8e9d8e7fb3c5267300000000000000000000000000000000000000000000000000000000815230600482015201528c61040460206116658b5160406103e48601526104248501906131dd565b9a0151910152805160448e0152602081015160648e0152604081015160848e0152606001516001600160a01b031660a48d0152565b80518051151560c48d0152602080820151151560e48e015260409182015115156101048e01528201516101248d01528101516101448c015260608101516101648c0152608081015115156101848c015260a081015115156101a48c015260c081015115156101c48c015260e081015115156101e48c015261010081015115156102048c015261012081015115156102248c015261014081015115156102448c015261016081015115156102648c015261018081015115156102848c01526101a081015115156102a48c01526101c081015115156102c48c01526101e081015115156102e48c01526102008101516001600160a01b03166103048c015261022001516103248b0152565b16610344880152600319878303016103648801526130cb565b9060031985830301610384860152613ffa565b600319838203016103a484015260208083519283815201920190895b818110611aa957505050906040827f446566696661206d696e742070686173652e00000000000000000000000000006020848196039260031984016103c48701526012815201520181896001600160a01b037f0000000000000000000000000000000000000000000000000000000000000000165af1801561050057611a7e575b50846001600160a01b037f000000000000000000000000000000000000000000000000000000000000000016936101a0610180820151910151853b15611a3e57604051917fc543882f00000000000000000000000000000000000000000000000000000000835260018801600484015260248301526044820152818160648183895af1801561046557611a6a575b5050813b15611a3a57846040517ff2fde38b000000000000000000000000000000000000000000000000000000008152846004820152818160248183885af1801561046557611a56575b50506001600160a01b037f0000000000000000000000000000000000000000000000000000000000000000166003546000198114611a425790600187920180600355813b15611a3e576040517f5bcfd212000000000000000000000000000000000000000000000000000000008152306004820152602481019190915291908290604490829084905af1801561050057611a26575b50602094506001600160a01b036040519116815233858201527f3082991f3dda023098e5849ea3903c6fbfd657dc6f9232f5eb81ad8a7ba161d660406001860192a4600160405191018152f35b611a308691612a68565b611a3a57846119d9565b8480fd5b8280fd5b602487634e487b7160e01b81526011600452fd5b611a5f90612a68565b611a3a578438611944565b611a7390612a68565b611a3a5784386118fa565b602090813d8311611aa2575b611a948183612ad1565b8101031261049f573861186c565b503d611a8a565b82516001600160a01b03168452859450602093840193909201916001016117eb565b60046040517f3727b396000000000000000000000000000000000000000000000000000000008152fd5b90506020813d602011611b2b575b81611b1060209383612ad1565b81010312611b2757611b2190612c55565b3861148a565b8580fd5b3d9150611b03565b611b3c90612a68565b611a3a578438611422565b91939596509193602080611b6783601f19866001960301875289516131dd565b97019301930190928b9695949293611401565b91969798509192939460206101606001926101408a516cffffffffffffffffffffffffff815116835263ffffffff80868301511686850152604082015116604084015261ffff60608201511660608401526001600160a01b03608082015116608084015260a081015160a084015262ffffff60c08201511660c084015260e0810151151560e084015261010081015115156101008401526101208101511515610120840152015115156101408201520197019101918d989796959493926113a8565b8f80fd5b955093506020853d602011611c6f575b81611c5d60209383612ad1565b8101031261049f578b945193386112ac565b3d9150611c50565b611c90915060203d6020116104dc576104ce8183612ad1565b38611245565b6040513d85823e3d90fd5b9260010192611109565b92906064600291049101926110fe565b9290612710600491049101926110f4565b600891949204910192386110e8565b601091949204910192386110d9565b602091949204910192386110c7565b6040945060018d01049150386110ae565b9092506020813d602011611d4a575b81611d2660209383612ad1565b81010312611d4657516001600160a01b0381168103611d4657913861107f565b8780fd5b3d9150611d19565b6040513d8a823e3d90fd5b507f000000000000000000000000000000000000000000000000000000000000000091611018565b606460405162461bcd60e51b815260206004820152601660248201527f455243313136373a20637265617465206661696c6564000000000000000000006044820152fd5b80611dda6001926080880151613067565b5169ffffffffffffffffffff60208201511661ffff6040830151166001600160a01b0360608401511660808401519060a085015115159260405194611e1e86612a7c565b8552633b9ac9ff60208601528760408601526060850152608084015260a08301528a60c08301528a60e08301526101008201528961012082015283610140820152611e698388613067565b52611e748287613067565b5051611e808286613067565b52611e8b8185613067565b5001610f86565b602081606082601f199488010152019050610f4a565b6020601f1991604051611eba81612a7c565b89815289838201528960408201528960608201528960808201528960a08201528960c08201528960e0820152896101008201528961012082015289610140820152828288010152019050610f12565b60055490811561218057849085905b808210612156575050633b9aca0090828204820390828211611a42570361212c57611fb9916001600160a01b03610160850151169060405192611f5a84612a4c565b8784528760208501520460408301527f0000000000000000000000000000000000000000000000000000000000000000606083015260808201528460a08201528460c0820152610120830151805191611fb38383613067565b52613067565b50611fc261307b565b61012082015160405190611fd582612a14565b6001850182526020820152611fe982613044565b52611ff381613044565b5083604051917f2bdfe0040000000000000000000000000000000000000000000000000000000083526020836004816001600160a01b037f0000000000000000000000000000000000000000000000000000000000000000165afa92831561046557829361210b575b506001600160a01b0383163b15612107576001600160a01b03926120e491836040519586809581947ff2da44b60000000000000000000000000000000000000000000000000000000083527f000000000000000000000000000000000000000000000000000000000000000060048401528460248401526060604484015260648301906130cb565b0393165af180156107f55715610ee65761210090939193612a68565b9138610ee6565b5080fd5b61212591935060203d6020116104dc576104ce8183612ad1565b913861205c565b60046040517f48270162000000000000000000000000000000000000000000000000000000008152fd5b9091612178600191604061216f866101208a0151613067565b51015190613021565b920190611f18565b602485634e487b7160e01b81526012600452fd5b602483634e487b7160e01b81526011600452fd5b9091506020813d6020116121d4575b816121c460209383612ad1565b81010312611a3e57519038610d48565b3d91506121b7565b90506020813d602011612219575b816121f760209383612ad1565b81010312611a3e5751906001600160a01b0382168203611a3e57906020610cfe565b3d91506121ea565b60046040517f74f88142000000000000000000000000000000000000000000000000000000008152fd5b5065ffffffffffff6101008201511661228661227365ffffffffffff60e08501511642613021565b65ffffffffffff60c08501511690613021565b11610c94565b65ffffffffffff60c0830151161590816122e6575b5015610c7f5765ffffffffffff610100820151166122cb65ffffffffffff60e08401511642613021565b81039081116121945765ffffffffffff1660c0820152610c7f565b90506122fe65ffffffffffff60e08401511642613021565b10386122a1565b60e0843603126107c95760405161231b81612a4c565b61232485612b6f565b815261233260208601612b6f565b60208201526040850135604082015260608501356060820152612357608086016129b1565b608082015260a0858101359082015260c08501356001600160a01b0381169003611d465760e06020602494829360c089013560c0820152815201950194925050610b44565b833567ffffffffffffffff8111611d465760c07fffffffffffffffffffffffffffffffffffffffffffffffffffffffffffffffdc8285600435010136030112611d4657604051906123ec82612a30565b67ffffffffffffffff6024828660043501010135116124b95761241d36602460043587018401818101350101612b10565b8252600435840181016044013569ffffffffffffffffffff811690036124b95760043584018101604481013560208401526064013561ffff811690036124b9576024926020926124a760c484606487968a60043501010135604085015261248c6084828b6004350101016129b1565b606085015260043589010160a4810135608085015201612b6f565b60a08201528152019401939050610a6e565b8880fd5b503461012e57602060031936011261012e5760406060916124dc612b8f565b5060043581526002602052206040516124f4816129c5565b6001600160a01b03906001828454169384835201549160406020830192828516845201916affffffffffffffffffffff809460a01c1683526040519485525116602084015251166040820152f35b503461012e578060031936011261012e5760206040516001600160a01b037f0000000000000000000000000000000000000000000000000000000000000000168152f35b503461012e576020806003193601126121075760043590818352600281526040832090604051926125b6846129c5565b6001600160a01b039360406affffffffffffffffffffff6001878754169687855201548781168685015260a01c169101526040517f975057e70000000000000000000000000000000000000000000000000000000081528281600481875afa8015610500578592849288926127a1575b5060449060405197889384927fd49031c00000000000000000000000000000000000000000000000000000000084528960048501526024840152165afa9384156104ab578594612772575b50604051927ffc0c546a0000000000000000000000000000000000000000000000000000000084528284600481845afa938415610500578694612739575b509282600494604051958680927f313ce5670000000000000000000000000000000000000000000000000000000082525afa938415610500578694612706575b506060955060405194855216908301526040820152f35b9093508281813d8311612732575b61271e8183612ad1565b81010312611b2757606095505192386126ef565b503d612714565b93508284813d831161276b575b6127508183612ad1565b81010312611b275782612764600495612bae565b94506126af565b503d612746565b9093508181813d831161279a575b61278a8183612ad1565b81010312611a3a57519238612671565b503d612780565b92839194508092503d83116127d9575b6127bb8183612ad1565b81010312611b2757518481168103611b275784918391906044612626565b503d6127b1565b503461012e57602060031936011261012e5760206127ff600435613202565b604051908152f35b503461012e57608060031936011261012e5761282161299b565b506024356001600160a01b0381160361012e5760643567ffffffffffffffff808211611a3e5736602383011215611a3e578160040135908111611a3e573691016024011161012e5760206040517f150b7a02000000000000000000000000000000000000000000000000000000008152f35b503461012e578060031936011261012e5760206040517f00000000000000000000000000000000000000000000000000000000000000008152f35b503461012e578060031936011261012e5760206040516001600160a01b037f0000000000000000000000000000000000000000000000000000000000000000168152f35b503461012e57602060031936011261012e5761292f600435612e1e565b60405190600781101561294457602092508152f35b602483634e487b7160e01b81526021600452fd5b9050346121075781600319360112612107576020906001600160a01b037f0000000000000000000000000000000000000000000000000000000000000000168152f35b600435906001600160a01b038216820361049f57565b35906001600160a01b038216820361049f57565b6060810190811067ffffffffffffffff8211176129e157604052565b634e487b7160e01b600052604160045260246000fd5b610240810190811067ffffffffffffffff8211176129e157604052565b6040810190811067ffffffffffffffff8211176129e157604052565b60c0810190811067ffffffffffffffff8211176129e157604052565b60e0810190811067ffffffffffffffff8211176129e157604052565b67ffffffffffffffff81116129e157604052565b610160810190811067ffffffffffffffff8211176129e157604052565b6080810190811067ffffffffffffffff8211176129e157604052565b6020810190811067ffffffffffffffff8211176129e157604052565b90601f601f19910116810190811067ffffffffffffffff8211176129e157604052565b67ffffffffffffffff81116129e157601f01601f191660200190565b81601f8201121561049f57803590612b2782612af4565b92612b356040519485612ad1565b8284526020838301011161049f57816000926020809301838601378301015290565b67ffffffffffffffff81116129e15760051b60200190565b3590811515820361049f57565b359065ffffffffffff8216820361049f57565b60405190612b9c826129c5565b60006040838281528260208201520152565b51906001600160a01b038216820361049f57565b809291610120918291031261049f5760405190810181811067ffffffffffffffff8211176129e1576040528092805182526020810151602083015260408101516040830152606081015160608301526080810151608083015260a081015160a083015260c081015160c083015260e08101516001600160a01b038116810361049f5760e083015261010080910151910152565b5190811515820361049f57565b80820392916103a0841261049f57612c9b7ffffffffffffffffffffffffffffffffffffffffffffffffffffffffffffffee09183612bc2565b9301906102809081831261049f57606060405193612cb8856129f7565b1261049f57604051612cc9816129c5565b61012090612cd8838301612c55565b815261014090612ce9848301612c55565b602082015261016090612cfd858301612c55565b604082015286526101808085015160208801526101a0908186015160408901526101c0928387015160608a01526101e094858801612d3a90612c55565b60808b015261020096612d4e898901612c55565b60a08c015261022099612d628a8c01612c55565b60c08d0152612d746102408b01612c55565b60e08d0152612d866102608b01612c55565b6101008d01528901612d9790612c55565b908b0152612da86102a08901612c55565b908a0152612db96102c08801612c55565b90890152612dca6102e08701612c55565b90880152612ddb6103008601612c55565b90870152612dec6103208501612c55565b90860152612dfd6103408401612c55565b90850152612e0e6103608301612bae565b9084015261038001519082015290565b604080517f8776c4990000000000000000000000000000000000000000000000000000000081528260048201526103a0906001600160a01b03938282602481887f0000000000000000000000000000000000000000000000000000000000000000165afa918215612ff7576000938493612fc3575b505082518015612fb857600114612fae57806000526020926004845260ff856000205416612fa357612ec5818361406e565b612f9857516002149081612f77575b50612f6e5760049361020083920151168351948580927fa8c15f4a0000000000000000000000000000000000000000000000000000000082525afa918215612f645750600091612f30575b509050612f2b57600390565b600490565b82813d8311612f5d575b612f448183612ad1565b8101031261012e5750612f5690612c55565b8038612f1f565b503d612f3a565b513d6000823e3d90fd5b50505050600290565b90506000526001825265ffffffffffff836000205460301c16151538612ed4565b505050505050600590565b505050505050600690565b5050505050600190565b505050505050600090565b8091929450612fe79350903d10612ff0575b612fdf8183612ad1565b810190612c62565b90913880612e93565b503d612fd5565b84513d6000823e3d90fd5b9081602091031261049f57516001600160a01b038116810361049f5790565b9190820180921161302e57565b634e487b7160e01b600052601160045260246000fd5b8051156130515760200190565b634e487b7160e01b600052603260045260246000fd5b80518210156130515760209160051b010190565b60409081519161308a83612a14565b600183528291600091825b6020808210156130c2578251602092916130ae82612a14565b868252606081830152828901015201613095565b50505091925050565b908082519081815260208091019281808460051b830101950193600080925b8584106130fb575050505050505090565b9091929387601f19838398999a0301855288519060408381830193805184520151928185840152835180915284606080940194019287925b82841061315557505050505090806001929901940194019295949391906130ea565b91939560e06001929496885180511515825283810151151584830152858101518683015286810151878301526001600160a01b0360808181840151169084015260a0808301519084015260c08092015116908201520196019401918a95949391613133565b60005b8381106131cd5750506000910152565b81810151838201526020016131bd565b90601f19601f6020936131fb815180928187528780880191016131ba565b0116010190565b604051907f8776c4990000000000000000000000000000000000000000000000000000000082528060048301526103a0826024816001600160a01b037f0000000000000000000000000000000000000000000000000000000000000000165afa9182156136a9576000908193613fbc575b5081600052600460205260ff604060002054168015613fb0575b613f865761329b818361406e565b613d4a576040517f12b37b140000000000000000000000000000000000000000000000000000000081528260048201526103a0816024816001600160a01b037f0000000000000000000000000000000000000000000000000000000000000000165afa9081156136a957600091613d28575b5060208083015191015103613cfe575160011480613cdc575b156136b55760209060406001600160a01b03610200809501511682600052600184528160002094825195613359876129c5565b54958365ffffffffffff8089168352808960301c1698898985015260601c1691015282519561338787612a99565b8652600085870152600083870152600060608701528251916133a8836129c5565b600083526000868401526000848401526133d584516133c681612a14565b60008152600188820152614129565b918451936133e2856129f7565b84526000878501526127108086860152606085015260016080850152600060a0850152600060c0850152600060e08501526000610100850152600061012085015260006101408501526000610160850152600061018085015260006101a085015260016101c085015260016101e08501528301526102208201527f44656669666120726566756e642070686173652e00000000000000000000000084613626613612855161348f81612ab5565b600081526135f68751966134a288612ab5565b600088526134ee89519c8d9b63175b7be560e31b8d5260048d015260248c01906001600160a01b0360608092805185526020810151602086015260408101516040860152015116910152565b80518051151560a48c0152602080820151151560c48d0152604091820151151560e48d01528201516101048c01528101516101248b015260608101516101448b0152608081015115156101648b015260a081015115156101848b015260c081015115156101a48b015260e081015115156101c48b015261010081015115156101e48b015261012081015115156102048b015261014081015115156102248b015261016081015115156102448b015261018081015115156102648b01526101a081015115156102848b01526101c081015115156102a48b01526101e081015115156102c48b01526102008101516001600160a01b03166102e48b015261022001516103048a0152565b60006103248901526103a06103448901526103a48801906130cb565b600319948588830301610364890152613ffa565b858103938401610384870152601481520152018160006001600160a01b037f0000000000000000000000000000000000000000000000000000000000000000165af19081156136a95760009161367a575090565b906020823d6020116136a1575b8161369460209383612ad1565b8101031261012e57505190565b3d9150613687565b6040513d6000823e3d90fd5b906102006001600160a01b03910151169080600052600260205260406000206affffffffffffffffffffff6001604051926136ef846129c5565b6001600160a01b03815416845201546001600160a01b038116602084015260a01c1660408201526040519061372382612a14565b6001825260005b60208110613c9b57506001600160a01b038151166001600160a01b036020830151166affffffffffffffffffffff604084015116604051917f1982d679000000000000000000000000000000000000000000000000000000008352806004840152602083602481875afa9283156136a957600093613c67575b50604051936137b185612a30565b845260208401526040830152606082015260006080820152600060a08201526137d983613044565b526137e382613044565b506040517f2bdfe0040000000000000000000000000000000000000000000000000000000081526020816004816001600160a01b037f0000000000000000000000000000000000000000000000000000000000000000165afa9081156136a9576001600160a01b03916000918291613c48575b506064604051809481937f69e11cc50000000000000000000000000000000000000000000000000000000083527f00000000000000000000000000000000000000000000000000000000000000006004840152856024840152896044840152165afa9081156136a957600091613af1575b50917f4465666966612073636f72696e672070686173652e00000000000000000000006020613a81613612604095839897600081511515600014613adb57506001600160a01b038561391761307b565b9301511661eeee8103613ad557506001905b88519161393583612a14565b82528582015261394482613044565b5261394e81613044565b505b6135f687519a61395f8c612a99565b60008c526000868d01526000898d0152600060608d0152885190613982826129c5565b6000825260008783015260008a8301526139af8a516139a081612a14565b60008152600089820152614129565b908a51926139bc846129f7565b8352600088840152612710808c850152606084015260016080840152600060a0840152600060c0840152600060e08401526000610100840152600061012084015260006101408401526000610160840152600061018084015260006101a084015260016101c084015260016101e08401526102008301526102208201526134ee89519c8d9b63175b7be560e31b8d5260048d015260248c01906001600160a01b0360608092805185526020810151602086015260408101516040860152015116910152565b858103938401610384870152601581520152018160006001600160a01b037f0000000000000000000000000000000000000000000000000000000000000000165af19081156136a95760009161367a575090565b90613929565b915050865190613aea82612ab5565b8152613950565b903d8082843e613b018184612ad1565b60208382810103126121075782519167ffffffffffffffff831161012e57818401601f84860101121561012e578284015191613b3c83612b57565b94613b4a6040519687612ad1565b8386526020860194828201602060e08702838501010111613c4457602081830101955b602060e0870283850101018710613bad57507f4465666966612073636f72696e672070686173652e000000000000000000000095506138c7945050505050565b60e0878585010312611a3a57604051613bc581612a4c565b613bce88612c55565b8152613bdc60208901612c55565b6020820152604088015160408201526060880151606082015260808801516001600160a01b03811681036107c957608082015260a088015160a082015260c08801516001600160a01b03811681036107c95760c0820152815260e09690960195602001613b6d565b8380fd5b613c61915060203d6020116104dc576104ce8183612ad1565b38613856565b90926020823d602011613c93575b81613c8260209383612ad1565b8101031261012e57505191386137a3565b3d9150613c75565b602090604051613caa81612a30565b60008152600083820152600060408201526000606082015260006080820152600060a08201528282860101520161372a565b5080600052600160205265ffffffffffff60406000205460301c161515613326565b60046040517f11f43385000000000000000000000000000000000000000000000000000000008152fd5b613d4391506103a03d6103a011612ff057612fdf8183612ad1565b503861330d565b5060206134ee9260406001600160a01b036102008093015116815192613d6f84612a99565b6000845260008585015260008385015260006060850152825191613d92836129c5565b60008352600086840152600084840152613db084516133c681612a14565b91845193613dbd856129f7565b84526000878501526127108086860152606085015260016080850152600060a0850152600060c0850152600060e08501526000610100850152600061012085015260006101408501526000610160850152600061018085015260006101a085015260016101c085015260016101e08501528301526102208201527f446566696661206e6f20636f6e746573742e000000000000000000000000000084613ec76136128551613e6a81612ab5565b600081526135f6875196613e7d88612ab5565b6000885288519c8d9a63175b7be560e31b8c528d60048d015260248c01906001600160a01b0360608092805185526020810151602086015260408101516040860152015116910152565b858103938401610384870152601281520152018160006001600160a01b037f0000000000000000000000000000000000000000000000000000000000000000165af19182156136a957600092613f52575b506000526004602052604060002060017fffffffffffffffffffffffffffffffffffffffffffffffffffffffffffffff0082541617905590565b90916020823d602011613f7e575b81613f6d60209383612ad1565b8101031261012e5750519038613f18565b3d9150613f60565b60046040517fdc7a2515000000000000000000000000000000000000000000000000000000008152fd5b5060808101511561328d565b9050613fda9192506103a03d6103a011612ff057612fdf8183612ad1565b919038613273565b65ffffffffffff918216908216039190821161302e57565b90815180825260208080930193019160005b82811061401a575050505090565b835180516001600160a01b03908116875281840151168684015260408082015190870152606080820151908701526080808201519087015260a0908101519086015260c0909401939281019260010161400c565b906040810151604051927fa40bb9c7000000000000000000000000000000000000000000000000000000008452600484015260248301526103a09182816044816001600160a01b037f0000000000000000000000000000000000000000000000000000000000000000165afa9283156136a957600093614109575b5050519051906001820180921161302e570361410457600090565b600190565b614120929350803d10612ff057612fdf8183612ad1565b509038806140e9565b906000918051614145575b6020015161413e57565b9060021790565b60019250614134565b6001600160a01b0360005416330361416257565b606460405162461bcd60e51b815260206004820152602060248201527f4f776e61626c653a2063616c6c6572206973206e6f7420746865206f776e65726044820152fdfea2646970667358221220afa434dd61506abd5956960c5a6929bcd41d4fe9da55279fc664c84dfeaebb2064736f6c63430008140033",
    "linkReferences": {}
  },
  "methodIdentifiers": {
    "SPLIT_DOMAIN()": "ff16a2f2",
    "ballkidzProjectId()": "0d75b3aa",
    "changeFee(uint256)": "6a1db1bf",
    "claimProtocolProjectToken()": "ca449a25",
    "controller()": "f77c4791",
    "currentGamePhaseOf(uint256)": "0715610a",
    "currentGamePotOf(uint256)": "3af76f34",
    "delegateCodeOrigin()": "06b552b5",
    "delegatesRegistry()": "d574ff04",
    "distributionOpsOf(uint256)": "53292c68",
    "feeDivisor()": "9a36f932",
    "governor()": "0c340a24",
    "launchGameWith((string,(string,uint256),string,string,(string,uint80,uint16,address,bytes32,bool)[],address,uint48,uint48,uint48,(bool,bool,uint256,uint256,address,uint256,address)[],uint88,address,uint256,uint256,address,address,address,address))": "5dc1a1d0",
    "nextPhaseNeedsQueueing(uint256)": "81312a14",
    "onERC721Received(address,address,uint256,bytes)": "150b7a02",
    "owner()": "8da5cb5b",
    "protocolFeeProjectTokenAccount()": "3f3090d9",
    "queueNextPhaseOf(uint256)": "1c069dbb",
    "renounceOwnership()": "715018a6",
    "timesFor(uint256)": "b07925d3",
    "tokenUriResolver()": "e131fc0c",
    "transferOwnership(address)": "f2fde38b"
  },
  "id": 1
}