{
  "abi": [
    {
      "inputs": [
        {
          "internalType": "address",
          "name": "_delegateCodeOrigin",
          "type": "address"
        },
        {
          "internalType": "contract IJB721TokenUriResolver",
          "name": "_tokenUriResolver",
          "type": "address"
        },
        {
          "internalType": "contract IDefifaGovernor",
          "name": "_governor",
          "type": "address"
        },
        {
          "internalType": "contract IJBController3_1",
          "name": "_controller",
          "type": "address"
        },
        {
          "internalType": "contract IJBDelegatesRegistry",
          "name": "_delegatesRegistry",
          "type": "address"
        },
        {
          "internalType": "address",
          "name": "_protocolFeeProjectTokenAccount",
          "type": "address"
        },
        {
          "internalType": "uint256",
          "name": "_ballkidzProjectId",
          "type": "uint256"
        },
        {
          "internalType": "address",
          "name": "_owner",
          "type": "address"
        }
      ],
      "stateMutability": "nonpayable",
      "type": "constructor"
    },
    {
      "inputs": [],
      "name": "GAME_OVER",
      "type": "error"
    },
    {
      "inputs": [],
      "name": "INVALID_FEE_PERCENT",
      "type": "error"
    },
    {
      "inputs": [],
      "name": "INVALID_GAME_CONFIGURATION",
      "type": "error"
    },
    {
      "inputs": [],
      "name": "PHASE_ALREADY_QUEUED",
      "type": "error"
    },
    {
      "inputs": [],
      "name": "SPLITS_DONT_ADD_UP",
      "type": "error"
    },
    {
      "inputs": [],
      "name": "UNEXPECTED_TERMINAL_CURRENCY",
      "type": "error"
    },
    {
      "anonymous": false,
      "inputs": [
        {
          "indexed": true,
          "internalType": "uint256",
          "name": "gameId",
          "type": "uint256"
        },
        {
          "indexed": true,
          "internalType": "contract IDefifaDelegate",
          "name": "delegate",
          "type": "address"
        },
        {
          "indexed": true,
          "internalType": "contract IDefifaGovernor",
          "name": "governor",
          "type": "address"
        },
        {
          "indexed": false,
          "internalType": "contract IJB721TokenUriResolver",
          "name": "tokenUriResolver",
          "type": "address"
        },
        {
          "indexed": false,
          "internalType": "address",
          "name": "caller",
          "type": "address"
        }
      ],
      "name": "LaunchGame",
      "type": "event"
    },
    {
      "anonymous": false,
      "inputs": [
        {
          "indexed": true,
          "internalType": "address",
          "name": "previousOwner",
          "type": "address"
        },
        {
          "indexed": true,
          "internalType": "address",
          "name": "newOwner",
          "type": "address"
        }
      ],
      "name": "OwnershipTransferred",
      "type": "event"
    },
    {
      "inputs": [],
      "name": "SPLIT_DOMAIN",
      "outputs": [
        {
          "internalType": "uint256",
          "name": "",
          "type": "uint256"
        }
      ],
      "stateMutability": "view",
      "type": "function"
    },
    {
      "inputs": [],
      "name": "ballkidzProjectId",
      "outputs": [
        {
          "internalType": "uint256",
          "name": "",
          "type": "uint256"
        }
      ],
      "stateMutability": "view",
      "type": "function"
    },
    {
      "inputs": [
        {
          "internalType": "uint256",
          "name": "_percent",
          "type": "uint256"
        }
      ],
      "name": "changeFee",
      "outputs": [],
      "stateMutability": "nonpayable",
      "type": "function"
    },
    {
      "inputs": [],
      "name": "claimProtocolProjectToken",
      "outputs": [],
      "stateMutability": "nonpayable",
      "type": "function"
    },
    {
      "inputs": [],
      "name": "controller",
      "outputs": [
        {
          "internalType": "contract IJBController3_1",
          "name": "",
          "type": "address"
        }
      ],
      "stateMutability": "view",
      "type": "function"
    },
    {
      "inputs": [
        {
          "internalType": "uint256",
          "name": "_gameId",
          "type": "uint256"
        }
      ],
      "name": "currentGamePhaseOf",
      "outputs": [
        {
          "internalType": "enum DefifaGamePhase",
          "name": "",
          "type": "uint8"
        }
      ],
      "stateMutability": "view",
      "type": "function"
    },
    {
      "inputs": [
        {
          "internalType": "uint256",
          "name": "_gameId",
          "type": "uint256"
        }
      ],
      "name": "currentGamePotOf",
      "outputs": [
        {
          "internalType": "uint256",
          "name": "",
          "type": "uint256"
        },
        {
          "internalType": "address",
          "name": "",
          "type": "address"
        },
        {
          "internalType": "uint256",
          "name": "",
          "type": "uint256"
        }
      ],
      "stateMutability": "view",
      "type": "function"
    },
    {
      "inputs": [],
      "name": "delegateCodeOrigin",
      "outputs": [
        {
          "internalType": "address",
          "name": "",
          "type": "address"
        }
      ],
      "stateMutability": "view",
      "type": "function"
    },
    {
      "inputs": [],
      "name": "delegatesRegistry",
      "outputs": [
        {
          "internalType": "contract IJBDelegatesRegistry",
          "name": "",
          "type": "address"
        }
      ],
      "stateMutability": "view",
      "type": "function"
    },
    {
      "inputs": [
        {
          "internalType": "uint256",
          "name": "_gameId",
          "type": "uint256"
        }
      ],
      "name": "distributionOpsOf",
      "outputs": [
        {
          "components": [
            {
              "internalType": "contract IJBPaymentTerminal",
              "name": "terminal",
              "type": "address"
            },
            {
              "internalType": "address",
              "name": "token",
              "type": "address"
            },
            {
              "internalType": "uint88",
              "name": "distributionLimit",
              "type": "uint88"
            }
          ],
          "internalType": "struct DefifaDistributionOpsData",
          "name": "",
          "type": "tuple"
        }
      ],
      "stateMutability": "view",
      "type": "function"
    },
    {
      "inputs": [],
      "name": "feeDivisor",
      "outputs": [
        {
          "internalType": "uint256",
          "name": "",
          "type": "uint256"
        }
      ],
      "stateMutability": "view",
      "type": "function"
    },
    {
      "inputs": [],
      "name": "governor",
      "outputs": [
        {
          "internalType": "contract IDefifaGovernor",
          "name": "",
          "type": "address"
        }
      ],
      "stateMutability": "view",
      "type": "function"
    },
    {
      "inputs": [
        {
          "components": [
            {
              "internalType": "string",
              "name": "name",
              "type": "string"
            },
            {
              "components": [
                {
                  "internalType": "string",
                  "name": "content",
                  "type": "string"
                },
                {
                  "internalType": "uint256",
                  "name": "domain",
                  "type": "uint256"
                }
              ],
              "internalType": "struct JBProjectMetadata",
              "name": "projectMetadata",
              "type": "tuple"
            },
            {
              "internalType": "string",
              "name": "contractUri",
              "type": "string"
            },
            {
              "internalType": "string",
              "name": "baseUri",
              "type": "string"
            },
            {
              "components": [
                {
                  "internalType": "string",
                  "name": "name",
                  "type": "string"
                },
                {
                  "internalType": "uint80",
                  "name": "price",
                  "type": "uint80"
                },
                {
                  "internalType": "uint16",
                  "name": "reservedRate",
                  "type": "uint16"
                },
                {
                  "internalType": "address",
                  "name": "reservedTokenBeneficiary",
                  "type": "address"
                },
                {
                  "internalType": "bytes32",
                  "name": "encodedIPFSUri",
                  "type": "bytes32"
                },
                {
                  "internalType": "bool",
                  "name": "shouldUseReservedTokenBeneficiaryAsDefault",
                  "type": "bool"
                }
              ],
              "internalType": "struct DefifaTierParams[]",
              "name": "tiers",
              "type": "tuple[]"
            },
            {
              "internalType": "address",
              "name": "token",
              "type": "address"
            },
            {
              "internalType": "uint48",
              "name": "mintDuration",
              "type": "uint48"
            },
            {
              "internalType": "uint48",
              "name": "refundDuration",
              "type": "uint48"
            },
            {
              "internalType": "uint48",
              "name": "start",
              "type": "uint48"
            },
            {
              "components": [
                {
                  "internalType": "bool",
                  "name": "preferClaimed",
                  "type": "bool"
                },
                {
                  "internalType": "bool",
                  "name": "preferAddToBalance",
                  "type": "bool"
                },
                {
                  "internalType": "uint256",
                  "name": "percent",
                  "type": "uint256"
                },
                {
                  "internalType": "uint256",
                  "name": "projectId",
                  "type": "uint256"
                },
                {
                  "internalType": "address payable",
                  "name": "beneficiary",
                  "type": "address"
                },
                {
                  "internalType": "uint256",
                  "name": "lockedUntil",
                  "type": "uint256"
                },
                {
                  "internalType": "contract IJBSplitAllocator",
                  "name": "allocator",
                  "type": "address"
                }
              ],
              "internalType": "struct JBSplit[]",
              "name": "splits",
              "type": "tuple[]"
            },
            {
              "internalType": "uint88",
              "name": "distributionLimit",
              "type": "uint88"
            },
            {
              "internalType": "address payable",
              "name": "ballkidzFeeProjectTokenAccount",
              "type": "address"
            },
            {
              "internalType": "uint256",
              "name": "votingStartTime",
              "type": "uint256"
            },
            {
              "internalType": "uint256",
              "name": "votingPeriod",
              "type": "uint256"
            },
            {
              "internalType": "address",
              "name": "defaultVotingDelegate",
              "type": "address"
            },
            {
              "internalType": "contract IJB721TokenUriResolver",
              "name": "defaultTokenUriResolver",
              "type": "address"
            },
            {
              "internalType": "contract IJBPaymentTerminal",
              "name": "terminal",
              "type": "address"
            },
            {
              "internalType": "contract IJBTiered721DelegateStore",
              "name": "store",
              "type": "address"
            }
          ],
          "internalType": "struct DefifaLaunchProjectData",
          "name": "_launchProjectData",
          "type": "tuple"
        }
      ],
      "name": "launchGameWith",
      "outputs": [
        {
          "internalType": "uint256",
          "name": "gameId",
          "type": "uint256"
        }
      ],
      "stateMutability": "nonpayable",
      "type": "function"
    },
    {
      "inputs": [
        {
          "internalType": "uint256",
          "name": "_gameId",
          "type": "uint256"
        }
      ],
      "name": "nextPhaseNeedsQueueing",
      "outputs": [
        {
          "internalType": "bool",
          "name": "",
          "type": "bool"
        }
      ],
      "stateMutability": "view",
      "type": "function"
    },
    {
      "inputs": [
        {
          "internalType": "address",
          "name": "",
          "type": "address"
        },
        {
          "internalType": "address",
          "name": "",
          "type": "address"
        },
        {
          "internalType": "uint256",
          "name": "",
          "type": "uint256"
        },
        {
          "internalType": "bytes",
          "name": "",
          "type": "bytes"
        }
      ],
      "name": "onERC721Received",
      "outputs": [
        {
          "internalType": "bytes4",
          "name": "",
          "type": "bytes4"
        }
      ],
      "stateMutability": "pure",
      "type": "function"
    },
    {
      "inputs": [],
      "name": "owner",
      "outputs": [
        {
          "internalType": "address",
          "name": "",
          "type": "address"
        }
      ],
      "stateMutability": "view",
      "type": "function"
    },
    {
      "inputs": [],
      "name": "protocolFeeProjectTokenAccount",
      "outputs": [
        {
          "internalType": "address",
          "name": "",
          "type": "address"
        }
      ],
      "stateMutability": "view",
      "type": "function"
    },
    {
      "inputs": [
        {
          "internalType": "uint256",
          "name": "_gameId",
          "type": "uint256"
        }
      ],
      "name": "queueNextPhaseOf",
      "outputs": [
        {
          "internalType": "uint256",
          "name": "configuration",
          "type": "uint256"
        }
      ],
      "stateMutability": "nonpayable",
      "type": "function"
    },
    {
      "inputs": [],
      "name": "renounceOwnership",
      "outputs": [],
      "stateMutability": "nonpayable",
      "type": "function"
    },
    {
      "inputs": [
        {
          "internalType": "uint256",
          "name": "_gameId",
          "type": "uint256"
        }
      ],
      "name": "timesFor",
      "outputs": [
        {
          "components": [
            {
              "internalType": "uint48",
              "name": "mintDuration",
              "type": "uint48"
            },
            {
              "internalType": "uint48",
              "name": "refundDuration",
              "type": "uint48"
            },
            {
              "internalType": "uint48",
              "name": "start",
              "type": "uint48"
            }
          ],
          "internalType": "struct DefifaTimeData",
          "name": "",
          "type": "tuple"
        }
      ],
      "stateMutability": "view",
      "type": "function"
    },
    {
      "inputs": [],
      "name": "tokenUriResolver",
      "outputs": [
        {
          "internalType": "contract IJB721TokenUriResolver",
          "name": "",
          "type": "address"
        }
      ],
      "stateMutability": "view",
      "type": "function"
    },
    {
      "inputs": [
        {
          "internalType": "address",
          "name": "newOwner",
          "type": "address"
        }
      ],
      "name": "transferOwnership",
      "outputs": [],
      "stateMutability": "nonpayable",
      "type": "function"
    }
  ],
  "bytecode": {
    "object": "0x61016034620001df576200444538819003601f8101601f191683016001600160401b03811184821017620001e45783928291604052833961010092839181010312620001df576200005081620001fa565b6020820151916001600160a01b03918284168403620001df576040820151918383168303620001df5760608101518481168103620001df5760808201519485168503620001df57620000f493620000aa60a08401620001fa565b96620000be60e060c08601519501620001fa565b94620000ca336200020f565b6001600355601460055560a05260c05260e05286526101209485526101409384526080526200020f565b604051916141ee9384620002578539608051848181611f69015281816120a7015281816128bd0152613897015260a051848181610fa10152612989015260c05184818161027c0152611d5e015260e0518481816118780152612900015251838181610151015281816103010152818161060b01528181610cce0152818161104f015281816112140152818161183f0152818161202a01528181612e7201528181613252015281816132ee015281816136580152818161382c01528181613ab301528181613ef901526140ca01525182818161041c01526125740152518181816102c0015261194a0152f35b600080fd5b634e487b7160e01b600052604160045260246000fd5b51906001600160a01b0382168203620001df57565b600080546001600160a01b039283166001600160a01b03198216811783559216907f8be0079c531659141344cd1fd0a4f28419497f9722a3daafe3b4186f6b6457e09080a356fe608080604052600436101561001357600080fd5b600090813560e01c90816306b552b51461296a575080630715610a146129245780630c340a24146128e05780630d75b3aa146128a5578063150b7a02146128195780631c069dbb146127f25780633af76f34146125985780633f3090d91461255457806353292c68146124cf5780635dc1a1d0146108d95780636a1db1bf14610867578063715018a61461080057806381312a14146105c55780638da5cb5b1461059f5780639a36f93214610581578063b07925d31461050b578063ca449a25146102e4578063d574ff04146102a0578063e131fc0c1461025c578063f2fde38b14610175578063f77c4791146101315763ff16a2f21461011357600080fd5b3461012e578060031936011261012e57602090604051908152f35b80fd5b503461012e578060031936011261012e5760206040516001600160a01b037f0000000000000000000000000000000000000000000000000000000000000000168152f35b503461012e57602060031936011261012e5761018f6129ad565b610197614160565b6001600160a01b038091169081156101f2576000548273ffffffffffffffffffffffffffffffffffffffff19821617600055167f8be0079c531659141344cd1fd0a4f28419497f9722a3daafe3b4186f6b6457e0600080a380f35b608460405162461bcd60e51b815260206004820152602660248201527f4f776e61626c653a206e6577206f776e657220697320746865207a65726f206160448201527f64647265737300000000000000000000000000000000000000000000000000006064820152fd5b503461012e578060031936011261012e5760206040516001600160a01b037f0000000000000000000000000000000000000000000000000000000000000000168152f35b503461012e578060031936011261012e5760206040516001600160a01b037f0000000000000000000000000000000000000000000000000000000000000000168152f35b503461012e578060031936011261012e57806001600160a01b03807f000000000000000000000000000000000000000000000000000000000000000016906040517f6193063000000000000000000000000000000000000000000000000000000000928382526020918281600481855afa908115610500578391859188916104e3575b50169460046040518094819382525afa9081156104ab578391839187916104b6575b506044604051809481937f5287af3700000000000000000000000000000000000000000000000000000000835230600484015260016024840152165afa9182156104ab578592610475575b5050823b1561047057608484928360405195869485937fac689bcd000000000000000000000000000000000000000000000000000000008552306004860152600160248601527f000000000000000000000000000000000000000000000000000000000000000016604485015260648401525af18015610465576104555750f35b61045e90612a7a565b61012e5780f35b6040513d84823e3d90fd5b505050fd5b8195508092503d83116104a4575b61048d8183612ae3565b8101031261049f5783925138806103d4565b600080fd5b503d610483565b6040513d87823e3d90fd5b6104d69150823d84116104dc575b6104ce8183612ae3565b810190613014565b38610389565b503d6104c4565b6104fa9150833d85116104dc576104ce8183612ae3565b38610367565b6040513d88823e3d90fd5b503461012e57602060031936011261012e57604060609161052a612ba1565b50600435815260016020522060405190610543826129d7565b5465ffffffffffff9081808216938481528160406020830192828660301c1684520193871c1683526040519485525116602084015251166040820152f35b503461012e578060031936011261012e576020600554604051908152f35b503461012e578060031936011261012e576001600160a01b036020915416604051908152f35b503461012e576020908160031936011261012e576040517f557e715500000000000000000000000000000000000000000000000000000000808252916001600160a01b037f0000000000000000000000000000000000000000000000000000000000000000811660048035908790869081855afa9485156107f55784956107d4575b5082939495604051967f43a266c200000000000000000000000000000000000000000000000000000000885282600489015287602481610120988994165afa968715610500579088918798610794575b5060046040518095819382525afa9182156104ab57908492918692610772575b5060249060405194859384927f5c5500780000000000000000000000000000000000000000000000000000000084526004840152165afa92831561076657809361072a575b50505082608083015115159283610719575b506040518315158152f35b81015191015114905038828161070e565b90918093503d841161075f575b6107418184612ae3565b8201928284031261012e57509061075791612bd4565b3880806106fc565b503d610737565b604051903d90823e3d90fd5b602491925061078d90893d8b116104dc576104ce8183612ae3565b91906106b7565b91509650843d86116107cd575b6107ab8183612ae3565b81019085818303126107c95788916107c291612bd4565b9638610697565b8680fd5b503d6107a1565b839495506107ee90883d8a116104dc576104ce8183612ae3565b9493610647565b6040513d86823e3d90fd5b503461012e578060031936011261012e57610819614160565b60006001600160a01b03815473ffffffffffffffffffffffffffffffffffffffff1981168355167f8be0079c531659141344cd1fd0a4f28419497f9722a3daafe3b4186f6b6457e08280a380f35b503461012e57602060031936011261012e57600435610884614160565b600581116108af57801561089b5760640460055580f35b602482634e487b7160e01b81526012600452fd5b60046040517f42c9b523000000000000000000000000000000000000000000000000000000008152fd5b503461012e57602060031936011261012e5767ffffffffffffffff6004351161012e576102406003196004353603011261012e5760405161091981612a09565b6004356004013567ffffffffffffffff8111611a5057610940906004369181350101612b22565b81526024600435013567ffffffffffffffff8111611a50576004350160406003198236030112611a50576040519061097782612a26565b60048101359067ffffffffffffffff8211611a4c5761099e60249260043691840101612b22565b83520135602082015260208201526044600435013567ffffffffffffffff8111611a50576109d3906004369181350101612b22565b60408201526064600435013567ffffffffffffffff8111611a50576109ff906004369181350101612b22565b60608201526084600435013567ffffffffffffffff8111611a50573660238260043501011215611a5057600481813501013590610a3b82612b69565b91610a496040519384612ae3565b80835260208301913660248360051b8360043501010111611b25576024816004350101925b60248360051b8360043501010184106123ae57505050506080820152610a9860a4600435016129c3565b60a0820152610aab60c460043501612b8e565b60c0820152610abe60e460043501612b8e565b60e0820152610ad261010460043501612b8e565b610100820152610124600435013567ffffffffffffffff8111611a50573660238260043501011215611a5057600481813501013590610b1082612b69565b91610b1e6040519384612ae3565b808352602083019136602460e084028360043501010111611b2557916024836004350101925b602460e08402826004350101018410612317575050505061012082015260043561014401356affffffffffffffffffffff81169003612105576101446004350135610140820152610b9a610164600435016129c3565b6101608201526004356101848101356101808301526101a48101356101a0830152610bc8906101c4016129c3565b6101c08201526004356101e401356001600160a01b0381169003612105576004356101e48101356101e083015261020401356001600160a01b03811690036121055760043561020481013561020083015261022401356001600160a01b038116900361210557600435610224013561022082015261010081015165ffffffffffff168061229e575065ffffffffffff610c77610c6a8260c08501511642613033565b8260e08501511690613033565b166101008201525b65ffffffffffff60c08201511615801561225d575b612233576040517f8b79543c0000000000000000000000000000000000000000000000000000000081526020816004816001600160a01b037f0000000000000000000000000000000000000000000000000000000000000000165afa908115611c945783916121ee575b509060206001600160a01b03926004604051809581937f06661abd000000000000000000000000000000000000000000000000000000008352165afa918215611c945783926121ba575b506001820182116121a65765ffffffffffff60c08201511665ffffffffffff60e08301511665ffffffffffff6101008401511660405192610d88846129d7565b83526020830191825260408301908152600185018652600160205265ffffffffffff604087209351167fffffffffffffffffffffffffffff00000000000000000000000000000000000071ffffffffffff0000000000000000000000006bffffffffffff0000000000008654955160301b16935160601b16931617171790556001600160a01b03610200820151166affffffffffffffffffffff610140830151166001600160a01b0360018160a0860151169360405190610e48826129d7565b8152602081019485526040810193845281870188526002602052826040892091511673ffffffffffffffffffffffffffffffffffffffff19825416178155019251167fff000000000000000000000000000000000000000000000000000000000000007effffffffffffffffffffff00000000000000000000000000000000000000008454935160a01b169216171790556101208101515180611f07575b50608081015151610ef681612b69565b90610f046040519283612ae3565b808252610f1081612b69565b855b601f1982018110611ea657505060808301515190610f48610f3283612b69565b92610f406040519485612ae3565b808452612b69565b865b601f1982018110611e905750508560a0604051610f6681612a42565b606081528260208201528260408201528260608201528260808201520152855b818110611dc75750506e5af43d82803e903d91602b57fd5bf37f0000000000000000000000000000000000000000000000000000000000000000763d602d80600a3d3981f3363d3d373d3d3d363d7300000062ffffff8260881c1617875260781b176020526001600160a01b036037600987f016918215611d83576101e08401516001600160a01b03168015611d5b57915b604051917fc41c2f240000000000000000000000000000000000000000000000000000000083526020836004816001600160a01b037f0000000000000000000000000000000000000000000000000000000000000000165afa928315611d50578893611d08575b508551888060018a01807a184f03e93ff9f4daa797ed6e38ed64bf6a1f01000000000000000080821015611cf7575b506d04ee2d6d415b85acef810000000080831015611ce8575b50662386f26fc1000080831015611cd9575b506305f5e10080831015611cca575b50612710821015611cb9575b6064821015611ca9575b600a80921015611c9f575b8160001960216001870196601f196111396111238a612b06565b996111316040519b8c612ae3565b808b52612b06565b01966020890197368937508701015b01917f30313233343536373839616263646566000000000000000000000000000000008282061a835304908d821561118557506000198391611148565b9490506111dd9250602791506111cd936040519485927f44454649464120000000000000000000000000000000000000000000000000006020850152518092858501906131cc565b8101036007810184520182612ae3565b604051907f557e71550000000000000000000000000000000000000000000000000000000082526020826004816001600160a01b037f0000000000000000000000000000000000000000000000000000000000000000165afa8015611c94578a928491611c75575b5060608301519060408401519260206001600160a01b0360a08161020089015116970151166024604051809881937f1982d67900000000000000000000000000000000000000000000000000000000835260048301525afa948515610500578d9695611c3e575b506001600160a01b036101c0816102208901511697015116968c3b15611c3a57908f9a918f9a99989796959493926040519b7f3900c6f9000000000000000000000000000000000000000000000000000000008d5260010160048d01526001600160a01b031660248c015260448b016101e090526101e48b0161132e916131ef565b8a81036003190160648c0152611343916131ef565b906001600160a01b031660848a01528881036003190160a48a0152611367916131ef565b6001600160a01b038a1660c48901528781036003190160e489015261138b916131ef565b868103600319016101048801528451908181526020019460200190885b818110611b785750505065ffffffffffff1661012486015261014485015230610164850152306101848501526101a4840152600319838203016101c4840152815180825260208201916020808360051b83010194019286915b838310611b4557505050505081808492038183885af1801561046557611b31575b505061020083015160a08401516040517fdf21a7dd0000000000000000000000000000000000000000000000000000000081526001600160a01b0391821660048201526001870160248201529160209183916044918391165afa908115610500578691611af3575b5015611ac9576103e060246040516114a181612a26565b60018152602036818301376001600160a01b03610200870151166114c482613056565b526117cf60208701516117bc65ffffffffffff60c08a01511691604051926114eb84612aab565b83528b60208401528b60408401528b606084015260405161150b816129d7565b8c81528c60208201528c60408201526115398d6040519061152b82612a26565b81526001602082015261413b565b6040519161154683612a09565b82528d6020830152612710604083015261271060608301528d60808301528d60a08301528d60c08301528d60e08301528d6101008301528d6101208301528d6101408301528d6101608301528d6101808301528d6101a083015260016101c083015260016101e08301528a61020083015261022082015265ffffffffffff6115ed8c8260e06115e382610100850151168360c08601511690613ff4565b9201511690613ff4565b6117a3604051936115fd85612ac7565b6000855261169a604051986116118a612ac7565b60008a526040519d8e9d8e7fb3c5267300000000000000000000000000000000000000000000000000000000815230600482015201528c61040460206116658b5160406103e48601526104248501906131ef565b9a0151910152805160448e0152602081015160648e0152604081015160848e0152606001516001600160a01b031660a48d0152565b80518051151560c48d0152602080820151151560e48e015260409182015115156101048e01528201516101248d01528101516101448c015260608101516101648c0152608081015115156101848c015260a081015115156101a48c015260c081015115156101c48c015260e081015115156101e48c015261010081015115156102048c015261012081015115156102248c015261014081015115156102448c015261016081015115156102648c015261018081015115156102848c01526101a081015115156102a48c01526101c081015115156102c48c01526101e081015115156102e48c01526102008101516001600160a01b03166103048c015261022001516103248b0152565b16610344880152600319878303016103648801526130dd565b906003198583030161038486015261400c565b600319838203016103a484015260208083519283815201920190895b818110611aa757505050906040827f446566696661206d696e742070686173652e00000000000000000000000000006020848196039260031984016103c48701526012815201520181896001600160a01b037f0000000000000000000000000000000000000000000000000000000000000000165af1801561050057611a7c575b50846001600160a01b037f000000000000000000000000000000000000000000000000000000000000000016936101a0610180820151910151853b15611a5057604051917fc543882f00000000000000000000000000000000000000000000000000000000835260018801600484015260248301526044820152818160648183895af1801561046557611a68575b5050813b15611a4c57846040517ff2fde38b000000000000000000000000000000000000000000000000000000008152846004820152818160248183885af1801561046557611a54575b506003547f00000000000000000000000000000000000000000000000000000000000000006001600160a01b0316803b15611a50576040517f5bcfd212000000000000000000000000000000000000000000000000000000008152306004820152602481019290925282908290604490829084905af1801561046557611a38575b505060035460038101809111611a2457602095506003556001600160a01b036040519116815233858201527f3082991f3dda023098e5849ea3903c6fbfd657dc6f9232f5eb81ad8a7ba161d660406001860192a4600160405191018152f35b602486634e487b7160e01b81526011600452fd5b611a4190612a7a565b611a4c5784386119c5565b8480fd5b8280fd5b611a5d90612a7a565b611a4c578438611944565b611a7190612a7a565b611a4c5784386118fa565b602090813d8311611aa0575b611a928183612ae3565b8101031261049f573861186c565b503d611a88565b82516001600160a01b03168452859450602093840193909201916001016117eb565b60046040517f3727b396000000000000000000000000000000000000000000000000000000008152fd5b90506020813d602011611b29575b81611b0e60209383612ae3565b81010312611b2557611b1f90612c67565b3861148a565b8580fd5b3d9150611b01565b611b3a90612a7a565b611a4c578438611422565b91939596509193602080611b6583601f19866001960301875289516131ef565b97019301930190928b9695949293611401565b91969798509192939460206101606001926101408a516cffffffffffffffffffffffffff815116835263ffffffff80868301511686850152604082015116604084015261ffff60608201511660608401526001600160a01b03608082015116608084015260a081015160a084015262ffffff60c08201511660c084015260e0810151151560e084015261010081015115156101008401526101208101511515610120840152015115156101408201520197019101918d989796959493926113a8565b8f80fd5b955093506020853d602011611c6d575b81611c5b60209383612ae3565b8101031261049f578b945193386112ac565b3d9150611c4e565b611c8e915060203d6020116104dc576104ce8183612ae3565b38611245565b6040513d85823e3d90fd5b9260010192611109565b92906064600291049101926110fe565b9290612710600491049101926110f4565b600891949204910192386110e8565b601091949204910192386110d9565b602091949204910192386110c7565b6040945060018d01049150386110ae565b9092506020813d602011611d48575b81611d2460209383612ae3565b81010312611d4457516001600160a01b0381168103611d4457913861107f565b8780fd5b3d9150611d17565b6040513d8a823e3d90fd5b507f000000000000000000000000000000000000000000000000000000000000000091611018565b606460405162461bcd60e51b815260206004820152601660248201527f455243313136373a20637265617465206661696c6564000000000000000000006044820152fd5b80611dd86001926080880151613079565b5169ffffffffffffffffffff60208201511661ffff6040830151166001600160a01b0360608401511660808401519060a085015115159260405194611e1c86612a8e565b8552633b9ac9ff60208601528760408601526060850152608084015260a08301528a60c08301528a60e08301526101008201528961012082015283610140820152611e678388613079565b52611e728287613079565b5051611e7e8286613079565b52611e898185613079565b5001610f86565b602081606082601f199488010152019050610f4a565b6020601f1991604051611eb881612a8e565b89815289838201528960408201528960608201528960808201528960a08201528960c08201528960e0820152896101008201528961012082015289610140820152828288010152019050610f12565b60055490811561219257849085905b808210612168575050633b9aca0090828204820390828211612154570361212a57611fb7916001600160a01b03610160850151169060405192611f5884612a5e565b8784528760208501520460408301527f0000000000000000000000000000000000000000000000000000000000000000606083015260808201528460a08201528460c0820152610120830151805191611fb18383613079565b52613079565b50611fc061308d565b61012082015160405190611fd382612a26565b6001850182526020820152611fe782613056565b52611ff181613056565b5083604051917f2bdfe0040000000000000000000000000000000000000000000000000000000083526020836004816001600160a01b037f0000000000000000000000000000000000000000000000000000000000000000165afa928315610465578293612109575b506001600160a01b0383163b15612105576001600160a01b03926120e291836040519586809581947ff2da44b60000000000000000000000000000000000000000000000000000000083527f000000000000000000000000000000000000000000000000000000000000000060048401528460248401526060604484015260648301906130dd565b0393165af180156107f55715610ee6576120fe90939193612a7a565b9138610ee6565b5080fd5b61212391935060203d6020116104dc576104ce8183612ae3565b913861205a565b60046040517f48270162000000000000000000000000000000000000000000000000000000008152fd5b602487634e487b7160e01b81526011600452fd5b909161218a6001916040612181866101208a0151613079565b51015190613033565b920190611f16565b602485634e487b7160e01b81526012600452fd5b602483634e487b7160e01b81526011600452fd5b9091506020813d6020116121e6575b816121d660209383612ae3565b81010312611a5057519038610d48565b3d91506121c9565b90506020813d60201161222b575b8161220960209383612ae3565b81010312611a505751906001600160a01b0382168203611a5057906020610cfe565b3d91506121fc565b60046040517f74f88142000000000000000000000000000000000000000000000000000000008152fd5b5065ffffffffffff6101008201511661229861228565ffffffffffff60e08501511642613033565b65ffffffffffff60c08501511690613033565b11610c94565b65ffffffffffff60c0830151161590816122f8575b5015610c7f5765ffffffffffff610100820151166122dd65ffffffffffff60e08401511642613033565b81039081116121a65765ffffffffffff1660c0820152610c7f565b905061231065ffffffffffff60e08401511642613033565b10386122b3565b60e0843603126107c95760405161232d81612a5e565b61233685612b81565b815261234460208601612b81565b60208201526040850135604082015260608501356060820152612369608086016129c3565b608082015260a0858101359082015260c08501356001600160a01b0381169003611d445760e06020602494829360c089013560c0820152815201950194925050610b44565b833567ffffffffffffffff8111611d445760c07fffffffffffffffffffffffffffffffffffffffffffffffffffffffffffffffdc8285600435010136030112611d4457604051906123fe82612a42565b67ffffffffffffffff6024828660043501010135116124cb5761242f36602460043587018401818101350101612b22565b8252600435840181016044013569ffffffffffffffffffff811690036124cb5760043584018101604481013560208401526064013561ffff811690036124cb576024926020926124b960c484606487968a60043501010135604085015261249e6084828b6004350101016129c3565b606085015260043589010160a4810135608085015201612b81565b60a08201528152019401939050610a6e565b8880fd5b503461012e57602060031936011261012e5760406060916124ee612ba1565b506004358152600260205220604051612506816129d7565b6001600160a01b03906001828454169384835201549160406020830192828516845201916affffffffffffffffffffff809460a01c1683526040519485525116602084015251166040820152f35b503461012e578060031936011261012e5760206040516001600160a01b037f0000000000000000000000000000000000000000000000000000000000000000168152f35b503461012e576020806003193601126121055760043590818352600281526040832090604051926125c8846129d7565b6001600160a01b039360406affffffffffffffffffffff6001878754169687855201548781168685015260a01c169101526040517f975057e70000000000000000000000000000000000000000000000000000000081528281600481875afa8015610500578592849288926127b3575b5060449060405197889384927fd49031c00000000000000000000000000000000000000000000000000000000084528960048501526024840152165afa9384156104ab578594612784575b50604051927ffc0c546a0000000000000000000000000000000000000000000000000000000084528284600481845afa93841561050057869461274b575b509282600494604051958680927f313ce5670000000000000000000000000000000000000000000000000000000082525afa938415610500578694612718575b506060955060405194855216908301526040820152f35b9093508281813d8311612744575b6127308183612ae3565b81010312611b255760609550519238612701565b503d612726565b93508284813d831161277d575b6127628183612ae3565b81010312611b255782612776600495612bc0565b94506126c1565b503d612758565b9093508181813d83116127ac575b61279c8183612ae3565b81010312611a4c57519238612683565b503d612792565b92839194508092503d83116127eb575b6127cd8183612ae3565b81010312611b2557518481168103611b255784918391906044612638565b503d6127c3565b503461012e57602060031936011261012e576020612811600435613214565b604051908152f35b503461012e57608060031936011261012e576128336129ad565b506024356001600160a01b0381160361012e5760643567ffffffffffffffff808211611a505736602383011215611a50578160040135908111611a50573691016024011161012e5760206040517f150b7a02000000000000000000000000000000000000000000000000000000008152f35b503461012e578060031936011261012e5760206040517f00000000000000000000000000000000000000000000000000000000000000008152f35b503461012e578060031936011261012e5760206040516001600160a01b037f0000000000000000000000000000000000000000000000000000000000000000168152f35b503461012e57602060031936011261012e57612941600435612e30565b60405190600781101561295657602092508152f35b602483634e487b7160e01b81526021600452fd5b9050346121055781600319360112612105576020906001600160a01b037f0000000000000000000000000000000000000000000000000000000000000000168152f35b600435906001600160a01b038216820361049f57565b35906001600160a01b038216820361049f57565b6060810190811067ffffffffffffffff8211176129f357604052565b634e487b7160e01b600052604160045260246000fd5b610240810190811067ffffffffffffffff8211176129f357604052565b6040810190811067ffffffffffffffff8211176129f357604052565b60c0810190811067ffffffffffffffff8211176129f357604052565b60e0810190811067ffffffffffffffff8211176129f357604052565b67ffffffffffffffff81116129f357604052565b610160810190811067ffffffffffffffff8211176129f357604052565b6080810190811067ffffffffffffffff8211176129f357604052565b6020810190811067ffffffffffffffff8211176129f357604052565b90601f601f19910116810190811067ffffffffffffffff8211176129f357604052565b67ffffffffffffffff81116129f357601f01601f191660200190565b81601f8201121561049f57803590612b3982612b06565b92612b476040519485612ae3565b8284526020838301011161049f57816000926020809301838601378301015290565b67ffffffffffffffff81116129f35760051b60200190565b3590811515820361049f57565b359065ffffffffffff8216820361049f57565b60405190612bae826129d7565b60006040838281528260208201520152565b51906001600160a01b038216820361049f57565b809291610120918291031261049f5760405190810181811067ffffffffffffffff8211176129f3576040528092805182526020810151602083015260408101516040830152606081015160608301526080810151608083015260a081015160a083015260c081015160c083015260e08101516001600160a01b038116810361049f5760e083015261010080910151910152565b5190811515820361049f57565b80820392916103a0841261049f57612cad7ffffffffffffffffffffffffffffffffffffffffffffffffffffffffffffffee09183612bd4565b9301906102809081831261049f57606060405193612cca85612a09565b1261049f57604051612cdb816129d7565b61012090612cea838301612c67565b815261014090612cfb848301612c67565b602082015261016090612d0f858301612c67565b604082015286526101808085015160208801526101a0908186015160408901526101c0928387015160608a01526101e094858801612d4c90612c67565b60808b015261020096612d60898901612c67565b60a08c015261022099612d748a8c01612c67565b60c08d0152612d866102408b01612c67565b60e08d0152612d986102608b01612c67565b6101008d01528901612da990612c67565b908b0152612dba6102a08901612c67565b908a0152612dcb6102c08801612c67565b90890152612ddc6102e08701612c67565b90880152612ded6103008601612c67565b90870152612dfe6103208501612c67565b90860152612e0f6103408401612c67565b90850152612e206103608301612bc0565b9084015261038001519082015290565b604080517f8776c4990000000000000000000000000000000000000000000000000000000081528260048201526103a0906001600160a01b03938282602481887f0000000000000000000000000000000000000000000000000000000000000000165afa918215613009576000938493612fd5575b505082518015612fca57600114612fc057806000526020926004845260ff856000205416612fb557612ed78183614080565b612faa57516002149081612f89575b50612f805760049361020083920151168351948580927fa8c15f4a0000000000000000000000000000000000000000000000000000000082525afa918215612f765750600091612f42575b509050612f3d57600390565b600490565b82813d8311612f6f575b612f568183612ae3565b8101031261012e5750612f6890612c67565b8038612f31565b503d612f4c565b513d6000823e3d90fd5b50505050600290565b90506000526001825265ffffffffffff836000205460301c16151538612ee6565b505050505050600590565b505050505050600690565b5050505050600190565b505050505050600090565b8091929450612ff99350903d10613002575b612ff18183612ae3565b810190612c74565b90913880612ea5565b503d612fe7565b84513d6000823e3d90fd5b9081602091031261049f57516001600160a01b038116810361049f5790565b9190820180921161304057565b634e487b7160e01b600052601160045260246000fd5b8051156130635760200190565b634e487b7160e01b600052603260045260246000fd5b80518210156130635760209160051b010190565b60409081519161309c83612a26565b600183528291600091825b6020808210156130d4578251602092916130c082612a26565b8682526060818301528289010152016130a7565b50505091925050565b908082519081815260208091019281808460051b830101950193600080925b85841061310d575050505050505090565b9091929387601f19838398999a0301855288519060408381830193805184520151928185840152835180915284606080940194019287925b82841061316757505050505090806001929901940194019295949391906130fc565b91939560e06001929496885180511515825283810151151584830152858101518683015286810151878301526001600160a01b0360808181840151169084015260a0808301519084015260c08092015116908201520196019401918a95949391613145565b60005b8381106131df5750506000910152565b81810151838201526020016131cf565b90601f19601f60209361320d815180928187528780880191016131cc565b0116010190565b604051907f8776c4990000000000000000000000000000000000000000000000000000000082528060048301526103a0826024816001600160a01b037f0000000000000000000000000000000000000000000000000000000000000000165afa9182156136bb576000908193613fce575b5081600052600460205260ff604060002054168015613fc2575b613f98576132ad8183614080565b613d5c576040517f12b37b140000000000000000000000000000000000000000000000000000000081528260048201526103a0816024816001600160a01b037f0000000000000000000000000000000000000000000000000000000000000000165afa9081156136bb57600091613d3a575b5060208083015191015103613d10575160011480613cee575b156136c75760209060406001600160a01b0361020080950151168260005260018452816000209482519561336b876129d7565b54958365ffffffffffff8089168352808960301c1698898985015260601c1691015282519561339987612aab565b8652600085870152600083870152600060608701528251916133ba836129d7565b600083526000868401526000848401526133e784516133d881612a26565b6000815260018882015261413b565b918451936133f485612a09565b84526000878501526127108086860152606085015260016080850152600060a0850152600060c0850152600060e08501526000610100850152600061012085015260006101408501526000610160850152600061018085015260006101a085015260016101c085015260016101e08501528301526102208201527f44656669666120726566756e642070686173652e0000000000000000000000008461363861362485516134a181612ac7565b600081526136088751966134b488612ac7565b6000885261350089519c8d9b63175b7be560e31b8d5260048d015260248c01906001600160a01b0360608092805185526020810151602086015260408101516040860152015116910152565b80518051151560a48c0152602080820151151560c48d0152604091820151151560e48d01528201516101048c01528101516101248b015260608101516101448b0152608081015115156101648b015260a081015115156101848b015260c081015115156101a48b015260e081015115156101c48b015261010081015115156101e48b015261012081015115156102048b015261014081015115156102248b015261016081015115156102448b015261018081015115156102648b01526101a081015115156102848b01526101c081015115156102a48b01526101e081015115156102c48b01526102008101516001600160a01b03166102e48b015261022001516103048a0152565b60006103248901526103a06103448901526103a48801906130dd565b60031994858883030161036489015261400c565b858103938401610384870152601481520152018160006001600160a01b037f0000000000000000000000000000000000000000000000000000000000000000165af19081156136bb5760009161368c575090565b906020823d6020116136b3575b816136a660209383612ae3565b8101031261012e57505190565b3d9150613699565b6040513d6000823e3d90fd5b906102006001600160a01b03910151169080600052600260205260406000206affffffffffffffffffffff600160405192613701846129d7565b6001600160a01b03815416845201546001600160a01b038116602084015260a01c1660408201526040519061373582612a26565b6001825260005b60208110613cad57506001600160a01b038151166001600160a01b036020830151166affffffffffffffffffffff604084015116604051917f1982d679000000000000000000000000000000000000000000000000000000008352806004840152602083602481875afa9283156136bb57600093613c79575b50604051936137c385612a42565b845260208401526040830152606082015260006080820152600060a08201526137eb83613056565b526137f582613056565b506040517f2bdfe0040000000000000000000000000000000000000000000000000000000081526020816004816001600160a01b037f0000000000000000000000000000000000000000000000000000000000000000165afa9081156136bb576001600160a01b03916000918291613c5a575b506064604051809481937f69e11cc50000000000000000000000000000000000000000000000000000000083527f00000000000000000000000000000000000000000000000000000000000000006004840152856024840152896044840152165afa9081156136bb57600091613b03575b50917f4465666966612073636f72696e672070686173652e00000000000000000000006020613a93613624604095839897600081511515600014613aed57506001600160a01b038561392961308d565b9301511661eeee8103613ae757506001905b88519161394783612a26565b82528582015261395682613056565b5261396081613056565b505b61360887519a6139718c612aab565b60008c526000868d01526000898d0152600060608d0152885190613994826129d7565b6000825260008783015260008a8301526139c18a516139b281612a26565b6000815260008982015261413b565b908a51926139ce84612a09565b8352600088840152612710808c850152606084015260016080840152600060a0840152600060c0840152600060e08401526000610100840152600061012084015260006101408401526000610160840152600061018084015260006101a084015260016101c084015260016101e084015261020083015261022082015261350089519c8d9b63175b7be560e31b8d5260048d015260248c01906001600160a01b0360608092805185526020810151602086015260408101516040860152015116910152565b858103938401610384870152601581520152018160006001600160a01b037f0000000000000000000000000000000000000000000000000000000000000000165af19081156136bb5760009161368c575090565b9061393b565b915050865190613afc82612ac7565b8152613962565b903d8082843e613b138184612ae3565b60208382810103126121055782519167ffffffffffffffff831161012e57818401601f84860101121561012e578284015191613b4e83612b69565b94613b5c6040519687612ae3565b8386526020860194828201602060e08702838501010111613c5657602081830101955b602060e0870283850101018710613bbf57507f4465666966612073636f72696e672070686173652e000000000000000000000095506138d9945050505050565b60e0878585010312611a4c57604051613bd781612a5e565b613be088612c67565b8152613bee60208901612c67565b6020820152604088015160408201526060880151606082015260808801516001600160a01b03811681036107c957608082015260a088015160a082015260c08801516001600160a01b03811681036107c95760c0820152815260e09690960195602001613b7f565b8380fd5b613c73915060203d6020116104dc576104ce8183612ae3565b38613868565b90926020823d602011613ca5575b81613c9460209383612ae3565b8101031261012e57505191386137b5565b3d9150613c87565b602090604051613cbc81612a42565b60008152600083820152600060408201526000606082015260006080820152600060a08201528282860101520161373c565b5080600052600160205265ffffffffffff60406000205460301c161515613338565b60046040517f11f43385000000000000000000000000000000000000000000000000000000008152fd5b613d5591506103a03d6103a01161300257612ff18183612ae3565b503861331f565b5060206135009260406001600160a01b036102008093015116815192613d8184612aab565b6000845260008585015260008385015260006060850152825191613da4836129d7565b60008352600086840152600084840152613dc284516133d881612a26565b91845193613dcf85612a09565b84526000878501526127108086860152606085015260016080850152600060a0850152600060c0850152600060e08501526000610100850152600061012085015260006101408501526000610160850152600061018085015260006101a085015260016101c085015260016101e08501528301526102208201527f446566696661206e6f20636f6e746573742e000000000000000000000000000084613ed96136248551613e7c81612ac7565b60008152613608875196613e8f88612ac7565b6000885288519c8d9a63175b7be560e31b8c528d60048d015260248c01906001600160a01b0360608092805185526020810151602086015260408101516040860152015116910152565b858103938401610384870152601281520152018160006001600160a01b037f0000000000000000000000000000000000000000000000000000000000000000165af19182156136bb57600092613f64575b506000526004602052604060002060017fffffffffffffffffffffffffffffffffffffffffffffffffffffffffffffff0082541617905590565b90916020823d602011613f90575b81613f7f60209383612ae3565b8101031261012e5750519038613f2a565b3d9150613f72565b60046040517fdc7a2515000000000000000000000000000000000000000000000000000000008152fd5b5060808101511561329f565b9050613fec9192506103a03d6103a01161300257612ff18183612ae3565b919038613285565b65ffffffffffff918216908216039190821161304057565b90815180825260208080930193019160005b82811061402c575050505090565b835180516001600160a01b03908116875281840151168684015260408082015190870152606080820151908701526080808201519087015260a0908101519086015260c0909401939281019260010161401e565b906040810151604051927fa40bb9c7000000000000000000000000000000000000000000000000000000008452600484015260248301526103a09182816044816001600160a01b037f0000000000000000000000000000000000000000000000000000000000000000165afa9283156136bb5760009361411b575b50505190519060018201809211613040570361411657600090565b600190565b614132929350803d1061300257612ff18183612ae3565b509038806140fb565b906000918051614157575b6020015161415057565b9060021790565b60019250614146565b6001600160a01b0360005416330361417457565b606460405162461bcd60e51b815260206004820152602060248201527f4f776e61626c653a2063616c6c6572206973206e6f7420746865206f776e65726044820152fdfea26469706673582212203c5de038fb1826e6c6eeb95ad6c58df4b0ef6d554e53a08e1049e9d03eb28e4964736f6c63430008140033",
    "linkReferences": {}
  },
  "methodIdentifiers": {
    "SPLIT_DOMAIN()": "ff16a2f2",
    "ballkidzProjectId()": "0d75b3aa",
    "changeFee(uint256)": "6a1db1bf",
    "claimProtocolProjectToken()": "ca449a25",
    "controller()": "f77c4791",
    "currentGamePhaseOf(uint256)": "0715610a",
    "currentGamePotOf(uint256)": "3af76f34",
    "delegateCodeOrigin()": "06b552b5",
    "delegatesRegistry()": "d574ff04",
    "distributionOpsOf(uint256)": "53292c68",
    "feeDivisor()": "9a36f932",
    "governor()": "0c340a24",
    "launchGameWith((string,(string,uint256),string,string,(string,uint80,uint16,address,bytes32,bool)[],address,uint48,uint48,uint48,(bool,bool,uint256,uint256,address,uint256,address)[],uint88,address,uint256,uint256,address,address,address,address))": "5dc1a1d0",
    "nextPhaseNeedsQueueing(uint256)": "81312a14",
    "onERC721Received(address,address,uint256,bytes)": "150b7a02",
    "owner()": "8da5cb5b",
    "protocolFeeProjectTokenAccount()": "3f3090d9",
    "queueNextPhaseOf(uint256)": "1c069dbb",
    "renounceOwnership()": "715018a6",
    "timesFor(uint256)": "b07925d3",
    "tokenUriResolver()": "e131fc0c",
    "transferOwnership(address)": "f2fde38b"
  },
  "id": 1
}