{
  "abi": [
    {
      "inputs": [
        {
          "internalType": "address",
          "name": "_delegateCodeOrigin",
          "type": "address"
        },
        {
          "internalType": "address",
          "name": "_governorCodeOrigin",
          "type": "address"
        },
        {
          "internalType": "address",
          "name": "_tokenUriResolverCodeOrigin",
          "type": "address"
        },
        {
          "internalType": "contract IJBController3_1",
          "name": "_controller",
          "type": "address"
        },
        {
          "internalType": "contract IJBDelegatesRegistry",
          "name": "_delegatesRegistry",
          "type": "address"
        },
        {
          "internalType": "address",
          "name": "_protocolFeeProjectTokenAccount",
          "type": "address"
        },
        {
          "internalType": "uint256",
          "name": "_ballkidzProjectId",
          "type": "uint256"
        },
        {
          "internalType": "address",
          "name": "_owner",
          "type": "address"
        }
      ],
      "stateMutability": "nonpayable",
      "type": "constructor"
    },
    {
      "inputs": [],
      "name": "GAME_OVER",
      "type": "error"
    },
    {
      "inputs": [],
      "name": "INVALID_FEE_PERCENT",
      "type": "error"
    },
    {
      "inputs": [],
      "name": "INVALID_GAME_CONFIGURATION",
      "type": "error"
    },
    {
      "inputs": [],
      "name": "PHASE_ALREADY_QUEUED",
      "type": "error"
    },
    {
      "inputs": [],
      "name": "SPLITS_DONT_ADD_UP",
      "type": "error"
    },
    {
      "inputs": [],
      "name": "UNEXPECTED_TERMINAL_CURRENCY",
      "type": "error"
    },
    {
      "anonymous": false,
      "inputs": [
        {
          "indexed": true,
          "internalType": "uint256",
          "name": "gameId",
          "type": "uint256"
        },
        {
          "indexed": true,
          "internalType": "contract IDefifaDelegate",
          "name": "delegate",
          "type": "address"
        },
        {
          "indexed": true,
          "internalType": "contract IDefifaGovernor",
          "name": "governor",
          "type": "address"
        },
        {
          "indexed": false,
          "internalType": "contract IJBTokenUriResolver",
          "name": "tokenUriResolver",
          "type": "address"
        },
        {
          "indexed": false,
          "internalType": "address",
          "name": "caller",
          "type": "address"
        }
      ],
      "name": "LaunchGame",
      "type": "event"
    },
    {
      "anonymous": false,
      "inputs": [
        {
          "indexed": true,
          "internalType": "address",
          "name": "previousOwner",
          "type": "address"
        },
        {
          "indexed": true,
          "internalType": "address",
          "name": "newOwner",
          "type": "address"
        }
      ],
      "name": "OwnershipTransferred",
      "type": "event"
    },
    {
      "inputs": [],
      "name": "SPLIT_DOMAIN",
      "outputs": [
        {
          "internalType": "uint256",
          "name": "",
          "type": "uint256"
        }
      ],
      "stateMutability": "view",
      "type": "function"
    },
    {
      "inputs": [],
      "name": "ballkidzProjectId",
      "outputs": [
        {
          "internalType": "uint256",
          "name": "",
          "type": "uint256"
        }
      ],
      "stateMutability": "view",
      "type": "function"
    },
    {
      "inputs": [
        {
          "internalType": "uint256",
          "name": "_percent",
          "type": "uint256"
        }
      ],
      "name": "changeFee",
      "outputs": [],
      "stateMutability": "nonpayable",
      "type": "function"
    },
    {
      "inputs": [],
      "name": "claimProtocolProjectToken",
      "outputs": [],
      "stateMutability": "nonpayable",
      "type": "function"
    },
    {
      "inputs": [],
      "name": "controller",
      "outputs": [
        {
          "internalType": "contract IJBController3_1",
          "name": "",
          "type": "address"
        }
      ],
      "stateMutability": "view",
      "type": "function"
    },
    {
      "inputs": [
        {
          "internalType": "uint256",
          "name": "_gameId",
          "type": "uint256"
        }
      ],
      "name": "currentGamePhaseOf",
      "outputs": [
        {
          "internalType": "enum DefifaGamePhase",
          "name": "",
          "type": "uint8"
        }
      ],
      "stateMutability": "view",
      "type": "function"
    },
    {
      "inputs": [],
      "name": "delegateCodeOrigin",
      "outputs": [
        {
          "internalType": "address",
          "name": "",
          "type": "address"
        }
      ],
      "stateMutability": "view",
      "type": "function"
    },
    {
      "inputs": [],
      "name": "delegatesRegistry",
      "outputs": [
        {
          "internalType": "contract IJBDelegatesRegistry",
          "name": "",
          "type": "address"
        }
      ],
      "stateMutability": "view",
      "type": "function"
    },
    {
      "inputs": [
        {
          "internalType": "uint256",
          "name": "_gameId",
          "type": "uint256"
        }
      ],
      "name": "distributionOpsOf",
      "outputs": [
        {
          "components": [
            {
              "internalType": "contract IJBPaymentTerminal",
              "name": "terminal",
              "type": "address"
            },
            {
              "internalType": "address",
              "name": "token",
              "type": "address"
            },
            {
              "internalType": "uint88",
              "name": "distributionLimit",
              "type": "uint88"
            }
          ],
          "internalType": "struct DefifaDistributionOpsData",
          "name": "",
          "type": "tuple"
        }
      ],
      "stateMutability": "view",
      "type": "function"
    },
    {
      "inputs": [],
      "name": "feeDivisor",
      "outputs": [
        {
          "internalType": "uint256",
          "name": "",
          "type": "uint256"
        }
      ],
      "stateMutability": "view",
      "type": "function"
    },
    {
      "inputs": [
        {
          "internalType": "uint256",
          "name": "_gameId",
          "type": "uint256"
        }
      ],
      "name": "gamePotOf",
      "outputs": [
        {
          "internalType": "uint256",
          "name": "",
          "type": "uint256"
        },
        {
          "internalType": "address",
          "name": "",
          "type": "address"
        },
        {
          "internalType": "uint256",
          "name": "",
          "type": "uint256"
        }
      ],
      "stateMutability": "view",
      "type": "function"
    },
    {
      "inputs": [],
      "name": "governorCodeOrigin",
      "outputs": [
        {
          "internalType": "address",
          "name": "",
          "type": "address"
        }
      ],
      "stateMutability": "view",
      "type": "function"
    },
    {
      "inputs": [
        {
          "components": [
            {
              "internalType": "string",
              "name": "name",
              "type": "string"
            },
            {
              "components": [
                {
                  "internalType": "string",
                  "name": "content",
                  "type": "string"
                },
                {
                  "internalType": "uint256",
                  "name": "domain",
                  "type": "uint256"
                }
              ],
              "internalType": "struct JBProjectMetadata",
              "name": "projectMetadata",
              "type": "tuple"
            },
            {
              "internalType": "string",
              "name": "contractUri",
              "type": "string"
            },
            {
              "internalType": "string",
              "name": "baseUri",
              "type": "string"
            },
            {
              "components": [
                {
                  "internalType": "uint80",
                  "name": "price",
                  "type": "uint80"
                },
                {
                  "internalType": "uint16",
                  "name": "reservedRate",
                  "type": "uint16"
                },
                {
                  "internalType": "address",
                  "name": "reservedTokenBeneficiary",
                  "type": "address"
                },
                {
                  "internalType": "bytes32",
                  "name": "encodedIPFSUri",
                  "type": "bytes32"
                },
                {
                  "internalType": "bool",
                  "name": "shouldUseReservedTokenBeneficiaryAsDefault",
                  "type": "bool"
                },
                {
                  "internalType": "string",
                  "name": "name",
                  "type": "string"
                }
              ],
              "internalType": "struct DefifaTierParams[]",
              "name": "tiers",
              "type": "tuple[]"
            },
            {
              "internalType": "address",
              "name": "token",
              "type": "address"
            },
            {
              "internalType": "uint48",
              "name": "mintDuration",
              "type": "uint48"
            },
            {
              "internalType": "uint48",
              "name": "refundDuration",
              "type": "uint48"
            },
            {
              "internalType": "uint48",
              "name": "start",
              "type": "uint48"
            },
            {
              "components": [
                {
                  "internalType": "bool",
                  "name": "preferClaimed",
                  "type": "bool"
                },
                {
                  "internalType": "bool",
                  "name": "preferAddToBalance",
                  "type": "bool"
                },
                {
                  "internalType": "uint256",
                  "name": "percent",
                  "type": "uint256"
                },
                {
                  "internalType": "uint256",
                  "name": "projectId",
                  "type": "uint256"
                },
                {
                  "internalType": "address payable",
                  "name": "beneficiary",
                  "type": "address"
                },
                {
                  "internalType": "uint256",
                  "name": "lockedUntil",
                  "type": "uint256"
                },
                {
                  "internalType": "contract IJBSplitAllocator",
                  "name": "allocator",
                  "type": "address"
                }
              ],
              "internalType": "struct JBSplit[]",
              "name": "splits",
              "type": "tuple[]"
            },
            {
              "internalType": "uint88",
              "name": "distributionLimit",
              "type": "uint88"
            },
            {
              "internalType": "address payable",
              "name": "ballkidzFeeProjectTokenAccount",
              "type": "address"
            },
            {
              "internalType": "uint256",
              "name": "votingStartTime",
              "type": "uint256"
            },
            {
              "internalType": "uint256",
              "name": "votingPeriod",
              "type": "uint256"
            },
            {
              "internalType": "address",
              "name": "defaultVotingDelegate",
              "type": "address"
            },
            {
              "internalType": "contract IJBTokenUriResolver",
              "name": "defaultTokenUriResolver",
              "type": "address"
            },
            {
              "internalType": "contract IJBPaymentTerminal",
              "name": "terminal",
              "type": "address"
            },
            {
              "internalType": "contract IJBTiered721DelegateStore",
              "name": "store",
              "type": "address"
            }
          ],
          "internalType": "struct DefifaLaunchProjectData",
          "name": "_launchProjectData",
          "type": "tuple"
        }
      ],
      "name": "launchGameWith",
      "outputs": [
        {
          "internalType": "uint256",
          "name": "gameId",
          "type": "uint256"
        },
        {
          "internalType": "contract IDefifaGovernor",
          "name": "governor",
          "type": "address"
        }
      ],
      "stateMutability": "nonpayable",
      "type": "function"
    },
    {
      "inputs": [
        {
          "internalType": "uint256",
          "name": "_gameId",
          "type": "uint256"
        }
      ],
      "name": "nextPhaseNeedsQueueing",
      "outputs": [
        {
          "internalType": "bool",
          "name": "",
          "type": "bool"
        }
      ],
      "stateMutability": "view",
      "type": "function"
    },
    {
      "inputs": [
        {
          "internalType": "address",
          "name": "",
          "type": "address"
        },
        {
          "internalType": "address",
          "name": "",
          "type": "address"
        },
        {
          "internalType": "uint256",
          "name": "",
          "type": "uint256"
        },
        {
          "internalType": "bytes",
          "name": "",
          "type": "bytes"
        }
      ],
      "name": "onERC721Received",
      "outputs": [
        {
          "internalType": "bytes4",
          "name": "",
          "type": "bytes4"
        }
      ],
      "stateMutability": "pure",
      "type": "function"
    },
    {
      "inputs": [],
      "name": "owner",
      "outputs": [
        {
          "internalType": "address",
          "name": "",
          "type": "address"
        }
      ],
      "stateMutability": "view",
      "type": "function"
    },
    {
      "inputs": [],
      "name": "protocolFeeProjectTokenAccount",
      "outputs": [
        {
          "internalType": "address",
          "name": "",
          "type": "address"
        }
      ],
      "stateMutability": "view",
      "type": "function"
    },
    {
      "inputs": [
        {
          "internalType": "uint256",
          "name": "_gameId",
          "type": "uint256"
        }
      ],
      "name": "queueNextPhaseOf",
      "outputs": [
        {
          "internalType": "uint256",
          "name": "configuration",
          "type": "uint256"
        }
      ],
      "stateMutability": "nonpayable",
      "type": "function"
    },
    {
      "inputs": [],
      "name": "renounceOwnership",
      "outputs": [],
      "stateMutability": "nonpayable",
      "type": "function"
    },
    {
      "inputs": [
        {
          "internalType": "uint256",
          "name": "_gameId",
          "type": "uint256"
        }
      ],
      "name": "timesFor",
      "outputs": [
        {
          "components": [
            {
              "internalType": "uint48",
              "name": "mintDuration",
              "type": "uint48"
            },
            {
              "internalType": "uint48",
              "name": "refundDuration",
              "type": "uint48"
            },
            {
              "internalType": "uint48",
              "name": "start",
              "type": "uint48"
            }
          ],
          "internalType": "struct DefifaTimeData",
          "name": "",
          "type": "tuple"
        }
      ],
      "stateMutability": "view",
      "type": "function"
    },
    {
      "inputs": [],
      "name": "tokenUriResolverCodeOrigin",
      "outputs": [
        {
          "internalType": "address",
          "name": "",
          "type": "address"
        }
      ],
      "stateMutability": "view",
      "type": "function"
    },
    {
      "inputs": [
        {
          "internalType": "address",
          "name": "newOwner",
          "type": "address"
        }
      ],
      "name": "transferOwnership",
      "outputs": [],
      "stateMutability": "nonpayable",
      "type": "function"
    }
  ],
  "bytecode": {
    "object": "0x61016034620001e1576200452a38819003601f8101601f191683016001600160401b03811184821017620001e65783928291604052833961010092839181010312620001e1576200005081620001fc565b906200005f60208201620001fc565b916200006e60408301620001fc565b60608301516001600160a01b0393919291908481168103620001e15760808201519485168503620001e157620000f693620000ac60a08401620001fc565b96620000c060e060c08601519501620001fc565b94620000cc3362000211565b6001600355601460065560a05260c05260e052865261012094855261014093845260805262000211565b604051916142d1938462000259853960805184818161223901528181612377015281816128150152613770015260a0518481816111c3015261289d015260c0518481816101320152611a98015260e051848181610807015261206d01525183818161019501528181610301015281816105f201528181610ef501528181611246015281816113e901528181611a5d015281816122fa01528181612bb901528181613129015281816131c50152818161352f015281816137050152818161398e01528181613f5a015261411301525182818161041c01526127260152518181816102c00152611b770152f35b600080fd5b634e487b7160e01b600052604160045260246000fd5b51906001600160a01b0382168203620001e157565b600080546001600160a01b039283166001600160a01b03198216811783559216907f8be0079c531659141344cd1fd0a4f28419497f9722a3daafe3b4186f6b6457e09080a356fe608080604052600436101561001357600080fd5b600090813560e01c90816306b552b51461287e575080630715610a146128385780630d75b3aa146127fd578063150b7a02146127715780631c069dbb1461274a5780633f3090d91461270657806347d110bc14610af657806353292c6814610a71578063596d07e4146109045780636a1db1bf14610892578063715018a61461082b57806380f07954146107e757806381312a14146105c55780638da5cb5b1461059f5780639a36f93214610581578063b07925d31461050b578063ca449a25146102e4578063d574ff04146102a0578063f2fde38b146101b9578063f77c479114610175578063ff16a2f2146101595763ff2a43cc1461011357600080fd5b3461015657806003193601126101565760206040516001600160a01b037f0000000000000000000000000000000000000000000000000000000000000000168152f35b80fd5b5034610156578060031936011261015657602090604051908152f35b503461015657806003193601126101565760206040516001600160a01b037f0000000000000000000000000000000000000000000000000000000000000000168152f35b5034610156576020600319360112610156576101d36128c1565b6101db6141a9565b6001600160a01b03809116908115610236576000548273ffffffffffffffffffffffffffffffffffffffff19821617600055167f8be0079c531659141344cd1fd0a4f28419497f9722a3daafe3b4186f6b6457e0600080a380f35b608460405162461bcd60e51b815260206004820152602660248201527f4f776e61626c653a206e6577206f776e657220697320746865207a65726f206160448201527f64647265737300000000000000000000000000000000000000000000000000006064820152fd5b503461015657806003193601126101565760206040516001600160a01b037f0000000000000000000000000000000000000000000000000000000000000000168152f35b5034610156578060031936011261015657806001600160a01b03807f000000000000000000000000000000000000000000000000000000000000000016906040517f6193063000000000000000000000000000000000000000000000000000000000928382526020918281600481855afa908115610500578391859188916104e3575b50169460046040518094819382525afa9081156104ab578391839187916104b6575b506044604051809481937f5287af3700000000000000000000000000000000000000000000000000000000835230600484015260016024840152165afa9182156104ab578592610475575b5050823b1561047057608484928360405195869485937fac689bcd000000000000000000000000000000000000000000000000000000008552306004860152600160248601527f000000000000000000000000000000000000000000000000000000000000000016604485015260648401525af18015610465576104555750f35b61045e9061298e565b6101565780f35b6040513d84823e3d90fd5b505050fd5b8195508092503d83116104a4575b61048d81836129f7565b8101031261049f5783925138806103d4565b600080fd5b503d610483565b6040513d87823e3d90fd5b6104d69150823d84116104dc575b6104ce81836129f7565b810190612ae8565b38610389565b503d6104c4565b6104fa9150833d85116104dc576104ce81836129f7565b38610367565b6040513d88823e3d90fd5b503461015657602060031936011261015657604060609161052a612ab5565b5060043581526001602052206040519061054382612972565b5465ffffffffffff9081808216938481528160406020830192828660301c1684520193871c1683526040519485525116602084015251166040820152f35b50346101565780600319360112610156576020600654604051908152f35b50346101565780600319360112610156576001600160a01b036020915416604051908152f35b503461015657602090816003193601126101565760405163557e715560e01b808252916001600160a01b037f0000000000000000000000000000000000000000000000000000000000000000811660048035908790869081855afa9485156107dc5784956107bb575b5082939495604051967f43a266c200000000000000000000000000000000000000000000000000000000885282600489015287602481610120988994165afa96871561050057908891879861077b575b5060046040518095819382525afa9182156104ab57908492918692610759575b5060249060405194859384927f5c5500780000000000000000000000000000000000000000000000000000000084526004840152165afa92831561074d578093610711575b50505082608083015115159283610700575b506040518315158152f35b8101519101511490503882816106f5565b90918093503d8411610746575b61072881846129f7565b8201928284031261015657509061073e91612b07565b3880806106e3565b503d61071e565b604051903d90823e3d90fd5b602491925061077490893d8b116104dc576104ce81836129f7565b919061069e565b91509650843d86116107b4575b61079281836129f7565b81019085818303126107b05788916107a991612b07565b963861067e565b8680fd5b503d610788565b839495506107d590883d8a116104dc576104ce81836129f7565b949361062e565b6040513d86823e3d90fd5b503461015657806003193601126101565760206040516001600160a01b037f0000000000000000000000000000000000000000000000000000000000000000168152f35b50346101565780600319360112610156576108446141a9565b60006001600160a01b03815473ffffffffffffffffffffffffffffffffffffffff1981168355167f8be0079c531659141344cd1fd0a4f28419497f9722a3daafe3b4186f6b6457e08280a380f35b5034610156576020600319360112610156576004356108af6141a9565b600581116108da5780156108c65760640460065580f35b602482634e487b7160e01b81526012600452fd5b60046040517f42c9b523000000000000000000000000000000000000000000000000000000008152fd5b5034610156576020908160031936011261015657600435908181526002835260408120926040519261093584612972565b6001600160a01b039360406affffffffffffffffffffff6001878954169889855201548781168685015260a01c16910152825260058152604082205492604051947ffc0c546a0000000000000000000000000000000000000000000000000000000086528286600481845afa9586156107dc578496610a34575b509482600496604051978880927f313ce5670000000000000000000000000000000000000000000000000000000082525afa93841561074d5793610a04575b6060955060405194855216908301526040820152f35b92508185813d8311610a2d575b610a1b81836129f7565b8101031261049f5760609451926109ee565b503d610a11565b95508286813d8311610a6a575b610a4b81836129f7565b81010312610a665782610a5f600497612ad4565b96506109af565b8380fd5b503d610a41565b5034610156576020600319360112610156576040606091610a90612ab5565b506004358152600260205220604051610aa881612972565b6001600160a01b03906001828454169384835201549160406020830192828516845201916affffffffffffffffffffff809460a01c1683526040519485525116602084015251166040820152f35b50346101565760206003193601126101565767ffffffffffffffff60043511610156576102406003196004353603011261015657604051610b36816128eb565b6004356004013567ffffffffffffffff8111611c7f57610b5d906004369181350101612a36565b81526024600435013567ffffffffffffffff8111611c7f576004350160406003198236030112611c7f5760405190610b948261291e565b60048101359067ffffffffffffffff821161270257610bbb60249260043691840101612a36565b83520135602082015260208201526044600435013567ffffffffffffffff8111611c7f57610bf0906004369181350101612a36565b60408201526064600435013567ffffffffffffffff8111611c7f57610c1c906004369181350101612a36565b60608201526084600435013567ffffffffffffffff8111611c7f573660238260043501011215611c7f57610c566004828135010135612a7d565b90610c6460405192836129f7565b600480358201908101358084526020840192913660059290921b0160240111612702576024816004350101915b6004803583019081013560051b0160240183106125eb575050506080820152610cbe60a4600435016128d7565b60a0820152610cd160c460043501612aa2565b60c0820152610ce460e460043501612aa2565b60e0820152610cf861010460043501612aa2565b610100820152610124600435013567ffffffffffffffff8111611c7f573660238260043501011215611c7f57600481813501013590610d3682612a7d565b91610d4460405193846129f7565b808352602083019136602460e0840283600435010101116125e757916024836004350101925b602460e0840282600435010101841061254c575050505061012082015260043561014401356affffffffffffffffffffff81169003611d54576101446004350135610140820152610dc0610164600435016128d7565b6101608201526004356101848101356101808301526101a48101356101a0830152610dee906101c4016128d7565b6101c08201526004356101e401356001600160a01b0381169003611d54576004356101e48101356101e083015261020401356001600160a01b0381169003611d545760043561020481013561020083015261022401356001600160a01b0381169003611d5457610224600435013561022082015265ffffffffffff6101008201511615612529575b610eb0610e9d65ffffffffffff6101008401511665ffffffffffff60e08501511690612d4c565b65ffffffffffff60c08401511690612d4c565b65ffffffffffff429116106124ff576040517f8b79543c0000000000000000000000000000000000000000000000000000000081526020816004816001600160a01b037f0000000000000000000000000000000000000000000000000000000000000000165afa908115611e6a5783916124ba575b509060206001600160a01b03926004604051809581937f06661abd000000000000000000000000000000000000000000000000000000008352165afa918215611e6a578392612486575b506001820182116124725765ffffffffffff60c08201511665ffffffffffff60e08301511665ffffffffffff6101008401511660405192610faf84612972565b83526020830191825260408301908152600185018652600160205265ffffffffffff604087209351167fffffffffffffffffffffffffffff00000000000000000000000000000000000071ffffffffffff0000000000000000000000006bffffffffffff0000000000008654955160301b16935160601b16931617171790556001600160a01b03610200820151166affffffffffffffffffffff610140830151166001600160a01b0360018160a086015116936040519061106f82612972565b8152602081019485526040810193845281870188526002602052826040892091511673ffffffffffffffffffffffffffffffffffffffff19825416178155019251167fff000000000000000000000000000000000000000000000000000000000000007effffffffffffffffffffff00000000000000000000000000000000000000008454935160a01b1692161717905561012081015151806121d7575b506080810151519261111e84612a7d565b9061112c60405192836129f7565b84825261113885612a7d565b815b601f19820181106121765750506080830151519461117061115a87612a7d565b9661116860405198896129f7565b808852612a7d565b825b601f1982018110612160575050606060a060405161118f8161293a565b84815284602082015284604082015284838201528460808201520152815b8181106120985750506001600160a01b036111e77f0000000000000000000000000000000000000000000000000000000000000000614201565b6101e0850151911695906001600160a01b031615612060576001600160a01b036101e085015116925b6040517fc41c2f240000000000000000000000000000000000000000000000000000000081526020816004816001600160a01b037f0000000000000000000000000000000000000000000000000000000000000000165afa9081156107dc57849161201e575b5085518460018901807a184f03e93ff9f4daa797ed6e38ed64bf6a1f0100000000000000008082101561200c575b50600a906d04ee2d6d415b85acef810000000080821015611fff575b50662386f26fc1000080821015611ff2575b506305f5e10080821015611fe5575b50612710811015611fd6575b6064811015611fc8575b1015611fbd575b600a60001960216001850194601f1961132f61131988612a1a565b97611327604051998a6129f7565b808952612a1a565b013660208801378501015b01917f30313233343536373839616263646566000000000000000000000000000000008282061a835304801561137657600019600a919261133a565b50506113cb602760405180937f444546494641200000000000000000000000000000000000000000000000000060208301526113bb8151809260208686019101612eda565b81010360078101845201826129f7565b6040519063557e715560e01b82526020826004816001600160a01b037f0000000000000000000000000000000000000000000000000000000000000000165afa918215611fb2579089949392918892611f91575b5060608501519260408601519460206001600160a01b0360a0816102008b015116990151166024604051809a81937f1982d67900000000000000000000000000000000000000000000000000000000835260048301525afa968715611f8657928a95928f9794928e9996938897611f3d575b506001600160a01b036101c08b8261022060209d9e0151169a806040519d8e6114b9816129bf565b828152015260408d0152600160608d0152015116993b15611f39579995928f979995928d9995926040519c8d9a7f795e9c9d000000000000000000000000000000000000000000000000000000008c5260010160048c01526001600160a01b031660248b015260448a0161024090526102448a0161153691612efd565b8981036003190160648b015261154b91612efd565b906001600160a01b031660848901528781036003190160a489015261156f91612efd565b6001600160a01b038d1660c48801528681036003190160e488015261159391612efd565b858103600319016101048701528451908181526020019460200190875b818110611e75575050509084959665ffffffffffff606093166101248701526101448601528051151561016486015260208101511515610184860152604081015115156101a4860152015115156101c4840152306101e4840152306102048401526102248301520381838b5af18015611e6a57908391611e56575b50506001600160a01b036101e08501511615611d60575b5061020083015160a08401516040517fdf21a7dd0000000000000000000000000000000000000000000000000000000081526001600160a01b0391821660048201526001870160248201529160209183916044918391165afa908115610465578291611d22575b5015611cf8576103e060246040516116c08161291e565b60018152602036818301376001600160a01b03610200870151166116e382612d64565b526119ed60208701516119da65ffffffffffff60c08a015116916040519261170a846129bf565b835287602084015287604084015287606084015260405161172a81612972565b8881528860208201528860408201526117576040516117488161291e565b8a815260016020820152614184565b60405191611764836128eb565b8252896020830152612710604083015261271060608301528960808301528960a08301528960c08301528960e08301528961010083015289610120830152896101408301528961016083015289610180830152896101a083015260016101c083015260016101e08301528d61020083015261022082015265ffffffffffff61180b8c8260e061180182610100850151168360c08601511690612d4c565b9201511690612d4c565b6119c16040519361181b856129db565b600085526118b86040519861182f8a6129db565b60008a526040519d8e9d8e7fb3c5267300000000000000000000000000000000000000000000000000000000815230600482015201528c61040460206118838b5160406103e4860152610424850190612efd565b9a0151910152805160448e0152602081015160648e0152604081015160848e0152606001516001600160a01b031660a48d0152565b80518051151560c48d0152602080820151151560e48e015260409182015115156101048e01528201516101248d01528101516101448c015260608101516101648c0152608081015115156101848c015260a081015115156101a48c015260c081015115156101c48c015260e081015115156101e48c015261010081015115156102048c015261012081015115156102248c015261014081015115156102448c015261016081015115156102648c015261018081015115156102848c01526101a081015115156102a48c01526101c081015115156102c48c01526101e081015115156102e48c01526102008101516001600160a01b03166103048c015261022001516103248b0152565b1661034488015260031987830301610364880152612deb565b9060031985830301610384860152614055565b600319838203016103a484015260208083519283815201920190855b818110611cd657505050906040827f446566696661206d696e742070686173652e00000000000000000000000000006020848196039260031984016103c48701526012815201520181856001600160a01b037f0000000000000000000000000000000000000000000000000000000000000000165af1801561046557611cab575b506001600160a01b03611abc7f0000000000000000000000000000000000000000000000000000000000000000614201565b16926101a0610180820151910151843b15611c7f57604051917f7a1ac61e00000000000000000000000000000000000000000000000000000000835287600484015260248301526044820152818160648183885af1801561046557908291611c97575b5050843b15610156576040517ff2fde38b0000000000000000000000000000000000000000000000000000000081528360048201528181602481838a5af1801561046557908291611c83575b50506001600160a01b037f000000000000000000000000000000000000000000000000000000000000000016600354813b15611c7f576040517f5bcfd21200000000000000000000000000000000000000000000000000000000815230600482015260248101919091529082908290604490829084905af1801561046557908291611c6b575b50506003549060038201809211611c5757509382916040956003556001600160a01b038651911681523360208201527f3082991f3dda023098e5849ea3903c6fbfd657dc6f9232f5eb81ad8a7ba161d6866001870192a460018351920182526020820152f35b80634e487b7160e01b602492526011600452fd5b611c749061298e565b610156578038611bf1565b8280fd5b611c8c9061298e565b610156578038611b6b565b611ca09061298e565b610156578038611b1f565b602090813d8311611ccf575b611cc181836129f7565b8101031261049f5738611a8a565b503d611cb7565b82516001600160a01b0316845285945060209384019390920191600101611a09565b60046040517f3727b396000000000000000000000000000000000000000000000000000000008152fd5b90506020813d602011611d58575b81611d3d602093836129f7565b81010312611d5457611d4e90612f22565b386116a9565b5080fd5b3d9150611d30565b6001600160a01b0383163b15611d54578160405180927f94e6f56f000000000000000000000000000000000000000000000000000000008252604482018960048401526040602484015281518091526064830190602060648260051b86010193019185905b828210611e09575050505081900381836001600160a01b0388165af1801561046557908291611df5575b50611642565b611dfe9061298e565b610156578038611def565b929550926020611e45827fffffffffffffffffffffffffffffffffffffffffffffffffffffffffffffff9c600195988495030186528851612efd565b960192019201928593879593611dc5565b611e5f9061298e565b611d5457813861162b565b6040513d85823e3d90fd5b92949750929550969360206101606001926101408b516cffffffffffffffffffffffffff815116835263ffffffff80868301511686850152604082015116604084015261ffff60608201511660608401526001600160a01b03608082015116608084015260a081015160a084015262ffffff60c08201511660c084015260e0810151151560e084015261010081015115156101008401526101208101511515610120840152015115156101408201520198019101908895928b9794929895986115b0565b8c80fd5b96509650965096506020843d602011611f7e575b81611f5e602093836129f7565b8101031261049f5792518b968e968b969295926001600160a01b03611491565b3d9150611f51565b6040513d8c823e3d90fd5b611fab91925060203d6020116104dc576104ce81836129f7565b903861141f565b6040513d89823e3d90fd5b6001909101906112fe565b6064600291049301926112f7565b612710600491049301926112ed565b60089104930192386112e1565b60109104930192386112d2565b60209104930192386112c0565b6040935060018c01049050600a6112a4565b90506020813d602011612058575b81612039602093836129f7565b81010312610a6657516001600160a01b0381168103610a665738611276565b3d915061202c565b6001600160a01b036120917f0000000000000000000000000000000000000000000000000000000000000000614201565b1692611210565b8060a06120ab6001936080890151612d87565b5169ffffffffffffffffffff81511661ffff6020830151166001600160a01b036040840151166060840151906080850151151592604051946120ec866129a2565b8552633b9ac9ff602086015288604086015260608501526080840152848301528760c08301528760e083015261010082015286610120820152846101408201526121368489612d87565b526121418388612d87565b50015161214e828a612d87565b526121598189612d87565b50016111ad565b602081606082601f19948c010152019050611172565b6020601f1991604051612188816129a2565b85815285838201528560408201528560608201528560808201528560a08201528560c08201528560e082015285610100820152856101208201528561014082015282828801015201905061113a565b60065490811561245e57849085905b808210612434575050633b9aca009082820482039082821161242057036123f657612287916001600160a01b0361016085015116906040519261222884612956565b8784528760208501520460408301527f0000000000000000000000000000000000000000000000000000000000000000606083015260808201528460a08201528460c08201526101208301518051916122818383612d87565b52612d87565b50612290612d9b565b610120820151604051906122a38261291e565b60018501825260208201526122b782612d64565b526122c181612d64565b5083604051917f2bdfe0040000000000000000000000000000000000000000000000000000000083526020836004816001600160a01b037f0000000000000000000000000000000000000000000000000000000000000000165afa9283156104655782936123d5575b506001600160a01b0383163b15611d54576001600160a01b03926123b291836040519586809581947ff2da44b60000000000000000000000000000000000000000000000000000000083527f00000000000000000000000000000000000000000000000000000000000000006004840152846024840152606060448401526064830190612deb565b0393165af180156107dc571561110d576123ce9093919361298e565b913861110d565b6123ef91935060203d6020116104dc576104ce81836129f7565b913861232a565b60046040517f48270162000000000000000000000000000000000000000000000000000000008152fd5b602487634e487b7160e01b81526011600452fd5b9091612456600191604061244d866101208a0151612d87565b51015190612d29565b9201906121e6565b602485634e487b7160e01b81526012600452fd5b602483634e487b7160e01b81526011600452fd5b9091506020813d6020116124b2575b816124a2602093836129f7565b81010312611c7f57519038610f6f565b3d9150612495565b90506020813d6020116124f7575b816124d5602093836129f7565b81010312611c7f5751906001600160a01b0382168203611c7f57906020610f25565b3d91506124c8565b60046040517f74f88142000000000000000000000000000000000000000000000000000000008152fd5b65ffffffffffff6125408160c08401511642612d29565b16610100820152610e76565b60e0843603126107b05760405161256281612956565b61256b85612a95565b815261257960208601612a95565b6020820152604085013560408201526060850135606082015261259e608086016128d7565b608082015260a0858101359082015260c08501356001600160a01b03811690036125e35760e06020602494829360c089013560c0820152815201950194925050610d6a565b8780fd5b8580fd5b823567ffffffffffffffff81116107b05760c07fffffffffffffffffffffffffffffffffffffffffffffffffffffffffffffffdc82856004350101360301126107b0576040519161263b8361293a565b600435840182016024013569ffffffffffffffffffff811690036125e35760043584018201602481013584526044013561ffff811690036125e3576004358401820160448101356020850152612693906064016128d7565b604084015260043584018201608481013560608501526126b59060a401612a95565b608084015267ffffffffffffffff60c4838660043501010135116125e35760209283926126f290369060043588010160c481013501602401612a36565b60a0820152815201920191610c91565b8480fd5b503461015657806003193601126101565760206040516001600160a01b037f0000000000000000000000000000000000000000000000000000000000000000168152f35b50346101565760206003193601126101565760206127696004356130eb565b604051908152f35b50346101565760806003193601126101565761278b6128c1565b506024356001600160a01b038116036101565760643567ffffffffffffffff808211611c7f5736602383011215611c7f578160040135908111611c7f57369101602401116101565760206040517f150b7a02000000000000000000000000000000000000000000000000000000008152f35b503461015657806003193601126101565760206040517f00000000000000000000000000000000000000000000000000000000000000008152f35b503461015657602060031936011261015657612855600435612b9a565b60405190600681101561286a57602092508152f35b602483634e487b7160e01b81526021600452fd5b905034611d545781600319360112611d54576020906001600160a01b037f0000000000000000000000000000000000000000000000000000000000000000168152f35b600435906001600160a01b038216820361049f57565b35906001600160a01b038216820361049f57565b610240810190811067ffffffffffffffff82111761290857604052565b634e487b7160e01b600052604160045260246000fd5b6040810190811067ffffffffffffffff82111761290857604052565b60c0810190811067ffffffffffffffff82111761290857604052565b60e0810190811067ffffffffffffffff82111761290857604052565b6060810190811067ffffffffffffffff82111761290857604052565b67ffffffffffffffff811161290857604052565b610160810190811067ffffffffffffffff82111761290857604052565b6080810190811067ffffffffffffffff82111761290857604052565b6020810190811067ffffffffffffffff82111761290857604052565b90601f601f19910116810190811067ffffffffffffffff82111761290857604052565b67ffffffffffffffff811161290857601f01601f191660200190565b81601f8201121561049f57803590612a4d82612a1a565b92612a5b60405194856129f7565b8284526020838301011161049f57816000926020809301838601378301015290565b67ffffffffffffffff81116129085760051b60200190565b3590811515820361049f57565b359065ffffffffffff8216820361049f57565b60405190612ac282612972565b60006040838281528260208201520152565b51906001600160a01b038216820361049f57565b9081602091031261049f57516001600160a01b038116810361049f5790565b809291610120918291031261049f5760405190810181811067ffffffffffffffff821117612908576040528092805182526020810151602083015260408101516040830152606081015160608301526080810151608083015260a081015160a083015260c081015160c083015260e08101516001600160a01b038116810361049f5760e083015261010080910151910152565b6040805163557e715560e01b81526001600160a01b03602082600481847f0000000000000000000000000000000000000000000000000000000000000000165afa918215612cfe57600092612d09575b508251917f43a266c200000000000000000000000000000000000000000000000000000000835284600484015282602481610120948594165afa918215612cfe57600092612cc5575b505080518015612cbc57600114612cb45782600052600460205260ff826000205416612cac57612c6381846140c9565b612ca457516002149182612c82575b5050612c7d57600390565b600290565b65ffffffffffff925060005260016020526000205460301c1615153880612c72565b505050600490565b505050600590565b505050600190565b50505050600090565b9091823d8411612cf7575b612cda81846129f7565b82019282840312610156575090612cf091612b07565b3880612c33565b503d612cd0565b83513d6000823e3d90fd5b612d2291925060203d81116104dc576104ce81836129f7565b9038612bea565b91908201809211612d3657565b634e487b7160e01b600052601160045260246000fd5b65ffffffffffff9182169082160391908211612d3657565b805115612d715760200190565b634e487b7160e01b600052603260045260246000fd5b8051821015612d715760209160051b010190565b604090815191612daa8361291e565b600183528291600091825b602080821015612de257825160209291612dce8261291e565b868252606081830152828901015201612db5565b50505091925050565b908082519081815260208091019281808460051b830101950193600080925b858410612e1b575050505050505090565b9091929387601f19838398999a0301855288519060408381830193805184520151928185840152835180915284606080940194019287925b828410612e755750505050509080600192990194019401929594939190612e0a565b91939560e06001929496885180511515825283810151151584830152858101518683015286810151878301526001600160a01b0360808181840151169084015260a0808301519084015260c08092015116908201520196019401918a95949391612e53565b60005b838110612eed5750506000910152565b8181015183820152602001612edd565b90601f19601f602093612f1b81518092818752878088019101612eda565b0116010190565b5190811515820361049f57565b80820392916103a0841261049f57612f687ffffffffffffffffffffffffffffffffffffffffffffffffffffffffffffffee09183612b07565b9301906102809081831261049f57606060405193612f85856128eb565b1261049f57604051612f9681612972565b61012090612fa5838301612f22565b815261014090612fb6848301612f22565b602082015261016090612fca858301612f22565b604082015286526101808085015160208801526101a0908186015160408901526101c0928387015160608a01526101e09485880161300790612f22565b60808b01526102009661301b898901612f22565b60a08c01526102209961302f8a8c01612f22565b60c08d01526130416102408b01612f22565b60e08d01526130536102608b01612f22565b6101008d0152890161306490612f22565b908b01526130756102a08901612f22565b908a01526130866102c08801612f22565b908901526130976102e08701612f22565b908801526130a86103008601612f22565b908701526130b96103208501612f22565b908601526130ca6103408401612f22565b908501526130db6103608301612ad4565b9084015261038001519082015290565b604051907f8776c4990000000000000000000000000000000000000000000000000000000082528060048301526103a0826024816001600160a01b037f0000000000000000000000000000000000000000000000000000000000000000165afa91821561359257600090819361402f575b5081600052600460205260ff604060002054168015614023575b613ff95761318481836140c9565b613dbd576040517f12b37b140000000000000000000000000000000000000000000000000000000081528260048201526103a0816024816001600160a01b037f0000000000000000000000000000000000000000000000000000000000000000165afa90811561359257600091613d8b575b5060208083015191015103613d61575160011480613d3f575b1561359e5760209060406001600160a01b0361020080950151168260005260018452816000209482519561324287612972565b54958365ffffffffffff8089168352808960301c1698898985015260601c16910152825195613270876129bf565b86526000858701526000838701526000606087015282519161329183612972565b600083526000868401526000848401526132be84516132af8161291e565b60008152600188820152614184565b918451936132cb856128eb565b84526000878501526127108086860152606085015260016080850152600060a0850152600060c0850152600060e08501526000610100850152600061012085015260006101408501526000610160850152600061018085015260006101a085015260016101c085015260016101e08501528301526102208201527f44656669666120726566756e642070686173652e0000000000000000000000008461350f6134fb8551613378816129db565b600081526134df87519661338b886129db565b600088526133d789519c8d9b63175b7be560e31b8d5260048d015260248c01906001600160a01b0360608092805185526020810151602086015260408101516040860152015116910152565b80518051151560a48c0152602080820151151560c48d0152604091820151151560e48d01528201516101048c01528101516101248b015260608101516101448b0152608081015115156101648b015260a081015115156101848b015260c081015115156101a48b015260e081015115156101c48b015261010081015115156101e48b015261012081015115156102048b015261014081015115156102248b015261016081015115156102448b015261018081015115156102648b01526101a081015115156102848b01526101c081015115156102a48b01526101e081015115156102c48b01526102008101516001600160a01b03166102e48b015261022001516103048a0152565b60006103248901526103a06103448901526103a4880190612deb565b600319948588830301610364890152614055565b858103938401610384870152601481520152018160006001600160a01b037f0000000000000000000000000000000000000000000000000000000000000000165af190811561359257600091613563575090565b906020823d60201161358a575b8161357d602093836129f7565b8101031261015657505190565b3d9150613570565b6040513d6000823e3d90fd5b91906102006001600160a01b03910151169180600052600260205260406000206affffffffffffffffffffff6001604051926135d984612972565b6001600160a01b03815416845201546001600160a01b038116602084015260a01c1660408201526040519361360d8561291e565b6001855260005b60208110613cfe57506001600160a01b038251166001600160a01b036020840151166affffffffffffffffffffff604085015116604051917f1982d679000000000000000000000000000000000000000000000000000000008352806004840152602083602481875afa92831561359257600093613cca575b506040519361369b8561293a565b845260208401526040830152606082015260006080820152600060a08201526136c386612d64565b526136cd85612d64565b50604051907f2bdfe0040000000000000000000000000000000000000000000000000000000082526020826004816001600160a01b037f0000000000000000000000000000000000000000000000000000000000000000165afa918215613592576001600160a01b03926000918291613cab575b506064604051809581937f69e11cc50000000000000000000000000000000000000000000000000000000083527f00000000000000000000000000000000000000000000000000000000000000006004840152856024840152896044840152165afa91821561359257600092613b73575b506040606095967f4465666966612073636f72696e672070686173652e0000000000000000000000602061396e6134fb8297898b9860009280511515600014613b58576134df9293506001600160a01b038761380c612d9b565b9501511661eeee8103613b5257506001905b8a519161382a8361291e565b82528782015261383984612d64565b5261384383612d64565b505b600089519e8f613854816129bf565b8281528289820152828c820152015288519061386f82612972565b6000825260008783015260008a83015261389c8a5161388d8161291e565b60008152600089820152614184565b908a51926138a9846128eb565b8352600088840152612710808c850152606084015260016080840152600060a0840152600060c0840152600060e08401526000610100840152600061012084015260006101408401526000610160840152600061018084015260006101a084015260016101c084015260016101e08401526102008301526102208201526133d789519e8f9b63175b7be560e31b8d5260048d015260248c01906001600160a01b0360608092805185526020810151602086015260408101516040860152015116910152565b858103938401610384870152601581520152018160006001600160a01b037f0000000000000000000000000000000000000000000000000000000000000000165af192831561359257600093613b1e575b50600460206001600160a01b03835116604051928380927f975057e70000000000000000000000000000000000000000000000000000000082525afa90811561359257600091613adb575b509060206001600160a01b039260448484511660405195869384927efdd58e0000000000000000000000000000000000000000000000000000000084526004840152886024840152165afa91821561359257600092613aa6575b50604001516affffffffffffffffffffff16600081831115613a9d57508103908111612d3657905b600052600560205260406000205590565b91505090613a8c565b90916020823d602011613ad3575b81613ac1602093836129f7565b81010312610156575051906040613a64565b3d9150613ab4565b6020813d602011613b16575b81613af4602093836129f7565b81010312611d545751906001600160a01b038216820361015657506020613a0a565b3d9150613ae7565b90926020823d602011613b4a575b81613b39602093836129f7565b8101031261015657505191386139bf565b3d9150613b2c565b9061381e565b50916134df9150885190613b6b826129db565b815291613845565b90913d8082843e613b8481846129f7565b6020838281010312611d545782519167ffffffffffffffff831161015657818401601f848601011215610156578284015191613bbf83612a7d565b94613bcd60405196876129f7565b8386526020860194828201602060e08702838501010111610a6657602081830101955b602060e0870283850101018710613c14575095969550604094506137b29350505050565b60e087858501031261270257604051613c2c81612956565b613c3588612f22565b8152613c4360208901612f22565b6020820152604088015160408201526060880151606082015260808801516001600160a01b03811681036107b057608082015260a088015160a082015260c08801516001600160a01b03811681036107b05760c0820152815260e09690960195602001613bf0565b613cc4915060203d6020116104dc576104ce81836129f7565b38613741565b90926020823d602011613cf6575b81613ce5602093836129f7565b81010312610156575051913861368d565b3d9150613cd8565b602090604051613d0d8161293a565b60008152600083820152600060408201526000606082015260006080820152600060a082015282828901015201613614565b5080600052600160205265ffffffffffff60406000205460301c16151561320f565b60046040517f11f43385000000000000000000000000000000000000000000000000000000008152fd5b613daf91506103a03d6103a011613db6575b613da781836129f7565b810190612f2f565b50386131f6565b503d613d9d565b5060206133d79260406001600160a01b036102008093015116815192613de2846129bf565b6000845260008585015260008385015260006060850152825191613e0583612972565b60008352600086840152600084840152613e2384516132af8161291e565b91845193613e30856128eb565b84526000878501526127108086860152606085015260016080850152600060a0850152600060c0850152600060e08501526000610100850152600061012085015260006101408501526000610160850152600061018085015260006101a085015260016101c085015260016101e08501528301526102208201527f446566696661206e6f20636f6e746573742e000000000000000000000000000084613f3a6134fb8551613edd816129db565b600081526134df875196613ef0886129db565b6000885288519c8d9a63175b7be560e31b8c528d60048d015260248c01906001600160a01b0360608092805185526020810151602086015260408101516040860152015116910152565b858103938401610384870152601281520152018160006001600160a01b037f0000000000000000000000000000000000000000000000000000000000000000165af191821561359257600092613fc5575b506000526004602052604060002060017fffffffffffffffffffffffffffffffffffffffffffffffffffffffffffffff0082541617905590565b90916020823d602011613ff1575b81613fe0602093836129f7565b810103126101565750519038613f8b565b3d9150613fd3565b60046040517fdc7a2515000000000000000000000000000000000000000000000000000000008152fd5b50608081015115613176565b905061404d9192506103a03d6103a011613db657613da781836129f7565b91903861315c565b90815180825260208080930193019160005b828110614075575050505090565b835180516001600160a01b03908116875281840151168684015260408082015190870152606080820151908701526080808201519087015260a0908101519086015260c09094019392810192600101614067565b906040810151604051927fa40bb9c7000000000000000000000000000000000000000000000000000000008452600484015260248301526103a09182816044816001600160a01b037f0000000000000000000000000000000000000000000000000000000000000000165afa92831561359257600093614164575b50505190519060018201809211612d36570361415f57600090565b600190565b61417b929350803d10613db657613da781836129f7565b50903880614144565b9060009180516141a0575b6020015161419957565b9060021790565b6001925061418f565b6001600160a01b036000541633036141bd57565b606460405162461bcd60e51b815260206004820152602060248201527f4f776e61626c653a2063616c6c6572206973206e6f7420746865206f776e65726044820152fd5b6e5af43d82803e903d91602b57fd5bf390763d602d80600a3d3981f3363d3d373d3d3d363d7300000062ffffff8260881c161760005260781b17602052603760096000f0906001600160a01b0382161561425757565b606460405162461bcd60e51b815260206004820152601660248201527f455243313136373a20637265617465206661696c6564000000000000000000006044820152fdfea264697066735822122084783e3aca4f38c2bd0ff04157e2af52a5574c2ec66c6fb7ed703bc6ee16f0eb64736f6c63430008140033",
    "linkReferences": {}
  },
  "methodIdentifiers": {
    "SPLIT_DOMAIN()": "ff16a2f2",
    "ballkidzProjectId()": "0d75b3aa",
    "changeFee(uint256)": "6a1db1bf",
    "claimProtocolProjectToken()": "ca449a25",
    "controller()": "f77c4791",
    "currentGamePhaseOf(uint256)": "0715610a",
    "delegateCodeOrigin()": "06b552b5",
    "delegatesRegistry()": "d574ff04",
    "distributionOpsOf(uint256)": "53292c68",
    "feeDivisor()": "9a36f932",
    "gamePotOf(uint256)": "596d07e4",
    "governorCodeOrigin()": "ff2a43cc",
    "launchGameWith((string,(string,uint256),string,string,(uint80,uint16,address,bytes32,bool,string)[],address,uint48,uint48,uint48,(bool,bool,uint256,uint256,address,uint256,address)[],uint88,address,uint256,uint256,address,address,address,address))": "47d110bc",
    "nextPhaseNeedsQueueing(uint256)": "81312a14",
    "onERC721Received(address,address,uint256,bytes)": "150b7a02",
    "owner()": "8da5cb5b",
    "protocolFeeProjectTokenAccount()": "3f3090d9",
    "queueNextPhaseOf(uint256)": "1c069dbb",
    "renounceOwnership()": "715018a6",
    "timesFor(uint256)": "b07925d3",
    "tokenUriResolverCodeOrigin()": "80f07954",
    "transferOwnership(address)": "f2fde38b"
  },
  "id": 1
}