{
  "abi": [
    {
      "inputs": [
        {
          "internalType": "address",
          "name": "_delegateCodeOrigin",
          "type": "address"
        },
        {
          "internalType": "contract IJB721TokenUriResolver",
          "name": "_tokenUriResolver",
          "type": "address"
        },
        {
          "internalType": "contract IDefifaGovernor",
          "name": "_governor",
          "type": "address"
        },
        {
          "internalType": "contract IJBController3_1",
          "name": "_controller",
          "type": "address"
        },
        {
          "internalType": "contract IJBDelegatesRegistry",
          "name": "_delegatesRegistry",
          "type": "address"
        },
        {
          "internalType": "uint256",
          "name": "_defifaProjectId",
          "type": "uint256"
        },
        {
          "internalType": "uint256",
          "name": "_baseProtocolProjectId",
          "type": "uint256"
        }
      ],
      "stateMutability": "nonpayable",
      "type": "constructor"
    },
    {
      "inputs": [],
      "name": "CANT_FULFILL_YET",
      "type": "error"
    },
    {
      "inputs": [],
      "name": "GAME_OVER",
      "type": "error"
    },
    {
      "inputs": [],
      "name": "INCORRECT_DECIMAL_AMOUNT",
      "type": "error"
    },
    {
      "inputs": [],
      "name": "INVALID_FEE_PERCENT",
      "type": "error"
    },
    {
      "inputs": [],
      "name": "INVALID_GAME_CONFIGURATION",
      "type": "error"
    },
    {
      "inputs": [],
      "name": "PHASE_ALREADY_QUEUED",
      "type": "error"
    },
    {
      "inputs": [
        {
          "internalType": "uint256",
          "name": "prod1",
          "type": "uint256"
        },
        {
          "internalType": "uint256",
          "name": "denominator",
          "type": "uint256"
        }
      ],
      "name": "PRBMath__MulDivOverflow",
      "type": "error"
    },
    {
      "inputs": [],
      "name": "SPLITS_DONT_ADD_UP",
      "type": "error"
    },
    {
      "inputs": [],
      "name": "TERMINAL_NOT_FOUND",
      "type": "error"
    },
    {
      "inputs": [],
      "name": "UNEXPECTED_TERMINAL_CURRENCY",
      "type": "error"
    },
    {
      "anonymous": false,
      "inputs": [
        {
          "components": [
            {
              "internalType": "bool",
              "name": "preferClaimed",
              "type": "bool"
            },
            {
              "internalType": "bool",
              "name": "preferAddToBalance",
              "type": "bool"
            },
            {
              "internalType": "uint256",
              "name": "percent",
              "type": "uint256"
            },
            {
              "internalType": "uint256",
              "name": "projectId",
              "type": "uint256"
            },
            {
              "internalType": "address payable",
              "name": "beneficiary",
              "type": "address"
            },
            {
              "internalType": "uint256",
              "name": "lockedUntil",
              "type": "uint256"
            },
            {
              "internalType": "contract IJBSplitAllocator",
              "name": "allocator",
              "type": "address"
            }
          ],
          "indexed": false,
          "internalType": "struct JBSplit",
          "name": "split",
          "type": "tuple"
        },
        {
          "indexed": false,
          "internalType": "uint256",
          "name": "amount",
          "type": "uint256"
        },
        {
          "indexed": false,
          "internalType": "address",
          "name": "caller",
          "type": "address"
        }
      ],
      "name": "DistributeToSplit",
      "type": "event"
    },
    {
      "anonymous": false,
      "inputs": [
        {
          "indexed": true,
          "internalType": "uint256",
          "name": "gameId",
          "type": "uint256"
        },
        {
          "indexed": false,
          "internalType": "uint256",
          "name": "pot",
          "type": "uint256"
        },
        {
          "components": [
            {
              "internalType": "bool",
              "name": "preferClaimed",
              "type": "bool"
            },
            {
              "internalType": "bool",
              "name": "preferAddToBalance",
              "type": "bool"
            },
            {
              "internalType": "uint256",
              "name": "percent",
              "type": "uint256"
            },
            {
              "internalType": "uint256",
              "name": "projectId",
              "type": "uint256"
            },
            {
              "internalType": "address payable",
              "name": "beneficiary",
              "type": "address"
            },
            {
              "internalType": "uint256",
              "name": "lockedUntil",
              "type": "uint256"
            },
            {
              "internalType": "contract IJBSplitAllocator",
              "name": "allocator",
              "type": "address"
            }
          ],
          "indexed": false,
          "internalType": "struct JBSplit[]",
          "name": "splits",
          "type": "tuple[]"
        },
        {
          "indexed": false,
          "internalType": "uint256",
          "name": "leftoverAmount",
          "type": "uint256"
        },
        {
          "indexed": false,
          "internalType": "uint256",
          "name": "defifaTokenBalance",
          "type": "uint256"
        },
        {
          "indexed": false,
          "internalType": "uint256",
          "name": "baseProtocolBalance",
          "type": "uint256"
        },
        {
          "indexed": false,
          "internalType": "address",
          "name": "caller",
          "type": "address"
        }
      ],
      "name": "FulfilledCommitments",
      "type": "event"
    },
    {
      "anonymous": false,
      "inputs": [
        {
          "indexed": true,
          "internalType": "uint256",
          "name": "gameId",
          "type": "uint256"
        },
        {
          "indexed": true,
          "internalType": "contract IDefifaDelegate",
          "name": "delegate",
          "type": "address"
        },
        {
          "indexed": true,
          "internalType": "contract IDefifaGovernor",
          "name": "governor",
          "type": "address"
        },
        {
          "indexed": false,
          "internalType": "contract IJB721TokenUriResolver",
          "name": "tokenUriResolver",
          "type": "address"
        },
        {
          "indexed": false,
          "internalType": "address",
          "name": "caller",
          "type": "address"
        }
      ],
      "name": "LaunchGame",
      "type": "event"
    },
    {
      "inputs": [],
      "name": "baseProtocolProjectId",
      "outputs": [
        {
          "internalType": "uint256",
          "name": "",
          "type": "uint256"
        }
      ],
      "stateMutability": "view",
      "type": "function"
    },
    {
      "inputs": [],
      "name": "controller",
      "outputs": [
        {
          "internalType": "contract IJBController3_1",
          "name": "",
          "type": "address"
        }
      ],
      "stateMutability": "view",
      "type": "function"
    },
    {
      "inputs": [
        {
          "internalType": "uint256",
          "name": "_gameId",
          "type": "uint256"
        }
      ],
      "name": "currentGamePhaseOf",
      "outputs": [
        {
          "internalType": "enum DefifaGamePhase",
          "name": "",
          "type": "uint8"
        }
      ],
      "stateMutability": "view",
      "type": "function"
    },
    {
      "inputs": [
        {
          "internalType": "uint256",
          "name": "_gameId",
          "type": "uint256"
        },
        {
          "internalType": "bool",
          "name": "_includeCommitments",
          "type": "bool"
        }
      ],
      "name": "currentGamePotOf",
      "outputs": [
        {
          "internalType": "uint256",
          "name": "",
          "type": "uint256"
        },
        {
          "internalType": "address",
          "name": "",
          "type": "address"
        },
        {
          "internalType": "uint256",
          "name": "",
          "type": "uint256"
        }
      ],
      "stateMutability": "view",
      "type": "function"
    },
    {
      "inputs": [],
      "name": "defifaProjectId",
      "outputs": [
        {
          "internalType": "uint256",
          "name": "",
          "type": "uint256"
        }
      ],
      "stateMutability": "view",
      "type": "function"
    },
    {
      "inputs": [],
      "name": "delegateCodeOrigin",
      "outputs": [
        {
          "internalType": "address",
          "name": "",
          "type": "address"
        }
      ],
      "stateMutability": "view",
      "type": "function"
    },
    {
      "inputs": [],
      "name": "delegatesRegistry",
      "outputs": [
        {
          "internalType": "contract IJBDelegatesRegistry",
          "name": "",
          "type": "address"
        }
      ],
      "stateMutability": "view",
      "type": "function"
    },
    {
      "inputs": [],
      "name": "feeDivisor",
      "outputs": [
        {
          "internalType": "uint256",
          "name": "",
          "type": "uint256"
        }
      ],
      "stateMutability": "view",
      "type": "function"
    },
    {
      "inputs": [
        {
          "internalType": "uint256",
          "name": "_gameId",
          "type": "uint256"
        }
      ],
      "name": "fulfillCommitmentsOf",
      "outputs": [],
      "stateMutability": "nonpayable",
      "type": "function"
    },
    {
      "inputs": [
        {
          "internalType": "uint256",
          "name": "",
          "type": "uint256"
        }
      ],
      "name": "fulfilledCommitmentsOf",
      "outputs": [
        {
          "internalType": "uint256",
          "name": "",
          "type": "uint256"
        }
      ],
      "stateMutability": "view",
      "type": "function"
    },
    {
      "inputs": [],
      "name": "governor",
      "outputs": [
        {
          "internalType": "contract IDefifaGovernor",
          "name": "",
          "type": "address"
        }
      ],
      "stateMutability": "view",
      "type": "function"
    },
    {
      "inputs": [
        {
          "components": [
            {
              "internalType": "string",
              "name": "name",
              "type": "string"
            },
            {
              "components": [
                {
                  "internalType": "string",
                  "name": "content",
                  "type": "string"
                },
                {
                  "internalType": "uint256",
                  "name": "domain",
                  "type": "uint256"
                }
              ],
              "internalType": "struct JBProjectMetadata",
              "name": "projectMetadata",
              "type": "tuple"
            },
            {
              "internalType": "string",
              "name": "contractUri",
              "type": "string"
            },
            {
              "internalType": "string",
              "name": "baseUri",
              "type": "string"
            },
            {
              "components": [
                {
                  "internalType": "string",
                  "name": "name",
                  "type": "string"
                },
                {
                  "internalType": "uint80",
                  "name": "price",
                  "type": "uint80"
                },
                {
                  "internalType": "uint16",
                  "name": "reservedRate",
                  "type": "uint16"
                },
                {
                  "internalType": "address",
                  "name": "reservedTokenBeneficiary",
                  "type": "address"
                },
                {
                  "internalType": "bytes32",
                  "name": "encodedIPFSUri",
                  "type": "bytes32"
                },
                {
                  "internalType": "bool",
                  "name": "shouldUseReservedTokenBeneficiaryAsDefault",
                  "type": "bool"
                }
              ],
              "internalType": "struct DefifaTierParams[]",
              "name": "tiers",
              "type": "tuple[]"
            },
            {
              "internalType": "address",
              "name": "token",
              "type": "address"
            },
            {
              "internalType": "uint24",
              "name": "mintPeriodDuration",
              "type": "uint24"
            },
            {
              "internalType": "uint24",
              "name": "refundPeriodDuration",
              "type": "uint24"
            },
            {
              "internalType": "uint48",
              "name": "start",
              "type": "uint48"
            },
            {
              "components": [
                {
                  "internalType": "bool",
                  "name": "preferClaimed",
                  "type": "bool"
                },
                {
                  "internalType": "bool",
                  "name": "preferAddToBalance",
                  "type": "bool"
                },
                {
                  "internalType": "uint256",
                  "name": "percent",
                  "type": "uint256"
                },
                {
                  "internalType": "uint256",
                  "name": "projectId",
                  "type": "uint256"
                },
                {
                  "internalType": "address payable",
                  "name": "beneficiary",
                  "type": "address"
                },
                {
                  "internalType": "uint256",
                  "name": "lockedUntil",
                  "type": "uint256"
                },
                {
                  "internalType": "contract IJBSplitAllocator",
                  "name": "allocator",
                  "type": "address"
                }
              ],
              "internalType": "struct JBSplit[]",
              "name": "splits",
              "type": "tuple[]"
            },
            {
              "internalType": "uint256",
              "name": "attestationStartTime",
              "type": "uint256"
            },
            {
              "internalType": "uint256",
              "name": "attestationGracePeriod",
              "type": "uint256"
            },
            {
              "internalType": "address",
              "name": "defaultAttestationDelegate",
              "type": "address"
            },
            {
              "internalType": "contract IJB721TokenUriResolver",
              "name": "defaultTokenUriResolver",
              "type": "address"
            },
            {
              "internalType": "contract IJBPaymentTerminal",
              "name": "terminal",
              "type": "address"
            },
            {
              "internalType": "contract IJBTiered721DelegateStore",
              "name": "store",
              "type": "address"
            }
          ],
          "internalType": "struct DefifaLaunchProjectData",
          "name": "_launchProjectData",
          "type": "tuple"
        }
      ],
      "name": "launchGameWith",
      "outputs": [
        {
          "internalType": "uint256",
          "name": "gameId",
          "type": "uint256"
        }
      ],
      "stateMutability": "nonpayable",
      "type": "function"
    },
    {
      "inputs": [
        {
          "internalType": "uint256",
          "name": "_gameId",
          "type": "uint256"
        }
      ],
      "name": "nextPhaseNeedsQueueing",
      "outputs": [
        {
          "internalType": "bool",
          "name": "",
          "type": "bool"
        }
      ],
      "stateMutability": "view",
      "type": "function"
    },
    {
      "inputs": [
        {
          "internalType": "address",
          "name": "",
          "type": "address"
        },
        {
          "internalType": "address",
          "name": "",
          "type": "address"
        },
        {
          "internalType": "uint256",
          "name": "",
          "type": "uint256"
        },
        {
          "internalType": "bytes",
          "name": "",
          "type": "bytes"
        }
      ],
      "name": "onERC721Received",
      "outputs": [
        {
          "internalType": "bytes4",
          "name": "",
          "type": "bytes4"
        }
      ],
      "stateMutability": "pure",
      "type": "function"
    },
    {
      "inputs": [
        {
          "internalType": "uint256",
          "name": "_gameId",
          "type": "uint256"
        }
      ],
      "name": "queueNextPhaseOf",
      "outputs": [
        {
          "internalType": "uint256",
          "name": "configuration",
          "type": "uint256"
        }
      ],
      "stateMutability": "nonpayable",
      "type": "function"
    },
    {
      "inputs": [],
      "name": "splitGroup",
      "outputs": [
        {
          "internalType": "uint256",
          "name": "",
          "type": "uint256"
        }
      ],
      "stateMutability": "view",
      "type": "function"
    },
    {
      "inputs": [
        {
          "internalType": "uint256",
          "name": "_gameId",
          "type": "uint256"
        }
      ],
      "name": "timesFor",
      "outputs": [
        {
          "internalType": "uint48",
          "name": "",
          "type": "uint48"
        },
        {
          "internalType": "uint24",
          "name": "",
          "type": "uint24"
        },
        {
          "internalType": "uint24",
          "name": "",
          "type": "uint24"
        }
      ],
      "stateMutability": "view",
      "type": "function"
    },
    {
      "inputs": [
        {
          "internalType": "uint256",
          "name": "_gameId",
          "type": "uint256"
        }
      ],
      "name": "tokenOf",
      "outputs": [
        {
          "internalType": "address",
          "name": "",
          "type": "address"
        }
      ],
      "stateMutability": "view",
      "type": "function"
    },
    {
      "inputs": [],
      "name": "tokenUriResolver",
      "outputs": [
        {
          "internalType": "contract IJB721TokenUriResolver",
          "name": "",
          "type": "address"
        }
      ],
      "stateMutability": "view",
      "type": "function"
    },
    {
      "stateMutability": "payable",
      "type": "receive"
    }
  ],
  "bytecode": {
    "object": "0x61018034620001d257601f620053ef38819003918201601f19168301916001600160401b03831184841017620001d75780849260e094604052833981010312620001d25780516001600160a01b038082168203620001d2576020830151928184168403620001d2576040810151928284168403620001d2576060820151918383168303620001d25760808101519384168403620001d25760c060a082015191015191601460035560e05261010095865261012094855261014092835261016093845260a05260c05230608052604051926152019485620001ee8639608051858181610573015281816119de0152613396015260a05185818161196b01528181611a92015281816120a60152613367015260c05185818161206c01528181613fdc01526142aa015260e051858181610d1c01526120250152518481816101b0015261175201525183818161135e0152611f9a01525182818161010c01528181610297015281816105c301528181610b4501528181610dba01528181610e56015281816112ce01528181611a2e0152818161254b0152818161286d015281816133260152818161341f01528181613ec601528181613f8d0152818161424b0152614b460152518181816101f501526114030152f35b600080fd5b634e487b7160e01b600052604160045260246000fdfe608080604052600436101561001d575b50361561001b57600080fd5b005b600090813560e01c9081630134a03d1461208f575080630549cb321461205457806306b552b51461200f5780630715610a14611fc95780630c340a2414611f84578063150b7a0214611f0e5780631c069dbb14611ee7578063290457281461077a57806381312a1414610596578063859bb4b21461055b5780639a36f9321461053d578063b07925d3146104c5578063b4dfb08614610244578063b6674cde14610224578063d574ff04146101df578063e131fc0c1461019a578063ea78803f14610168578063f2ae5f6e1461013e5763f77c47910361000f573461013b578060031936011261013b576040517f00000000000000000000000000000000000000000000000000000000000000006001600160a01b03168152602090f35b80fd5b503461013b57602036600319011261013b5760406020916004358152600483522054604051908152f35b503461013b57602036600319011261013b576020906004358152808252604060018060a01b0391205416604051908152f35b503461013b578060031936011261013b576040517f00000000000000000000000000000000000000000000000000000000000000006001600160a01b03168152602090f35b503461013b578060031936011261013b576040517f00000000000000000000000000000000000000000000000000000000000000006001600160a01b03168152602090f35b503461013b57602036600319011261013b576102416004356132c1565b80f35b503461013b57604036600319011261013b57600435906024359081151582036103dc57828152602081815260408083205490516331070bc960e21b81526001600160a01b039591861692919082816004817f00000000000000000000000000000000000000000000000000000000000000008b165afa9081156104445785916104a8575b50604051630862026560e41b8152600481018390526001600160a01b0385166024820152908390829060449082908b165afa90811561044457908791869161048b575b5016906040519663975057e760e01b88528388600481865afa97881561048057869861044f575b50604051627eeac760e11b81526001600160a01b03841660048201526024810183905297849189916044918391165afa908115610444578591610414575b6004975081966103f4575b505081906040519687809263313ce56760e01b82525afa9283156103e857926103b3575b606094506040519384528301526040820152f35b80925084813d83116103e1575b6103ca81836121e0565b810103126103dc57606093519161039f565b600080fd5b503d6103c0565b604051903d90823e3d90fd5b85528683526040852054919550829161040c916122b6565b94903861037b565b90508287813d831161043d575b61042b81836121e0565b810103126103dc576004965190610370565b503d610421565b6040513d87823e3d90fd5b8491985061047290823d8411610479575b61046a81836121e0565b810190612297565b9790610332565b503d610460565b6040513d88823e3d90fd5b6104a29150843d86116104795761046a81836121e0565b3861030b565b6104bf9150833d85116104795761046a81836121e0565b386102c8565b503461013b57602036600319011261013b5760406060916004358152806020522081604051916104f483612144565b5460018060a01b038116835265ffffffffffff8160a01c169283602082015262ffffff8260d01c169182604083015260e81c928391015260405192835260208301526040820152f35b503461013b578060031936011261013b576020600354604051908152f35b503461013b578060031936011261013b5760206040517f00000000000000000000000000000000000000000000000000000000000000008152f35b503461013b576020908160031936011261013b5760405163557e715560e01b808252916001600160a01b037f0000000000000000000000000000000000000000000000000000000000000000811660048035908790869081855afa94851561076f57849561074e575b5082939495604051966321d1336160e11b885282600489015287602481610120988994165afa96871561048057908891879861070e575b5060046040518095819382525afa918215610444579084929186926106ec575b506024906040519485938492630b8aa00f60e31b84526004840152165afa9283156103e85780936106b0575b5050508260808301511515928361069f575b506040518315158152f35b810151910151149050388281610694565b90918093503d84116106e5575b6106c781846121e0565b8201928284031261013b5750906106dd916122d9565b388080610682565b503d6106bd565b602491925061070790893d8b116104795761046a81836121e0565b9190610656565b91509650843d8611610747575b61072581836121e0565b810190858183031261074357889161073c916122d9565b9638610636565b8680fd5b503d61071b565b8394955061076890883d8a116104795761046a81836121e0565b94936105ff565b6040513d86823e3d90fd5b503461013b57602036600319011261013b576001600160401b036004351161013b576102006004353603600319011261013b5760405161020081018181106001600160401b03821117611ed357604052600435600401356001600160401b0381116114dd576107f090600436918135010161221c565b8152602460043501356001600160401b0381116114dd5760043501604060031982360301126114dd5760405190610826826120dd565b6004810135906001600160401b0382116114d95761084c6024926004369184010161221c565b8352013560208201526020820152604460043501356001600160401b0381116114dd5761088090600436918135010161221c565b6040820152606460043501356001600160401b0381116114dd576108ab90600436918135010161221c565b6060820152608460043501356001600160401b0381116114dd5736602382600435010112156114dd576004818135010135906108e682612263565b916108f460405193846121e0565b80835260208301913660248360051b836004350101011161156c576024816004350101925b60248360051b836004350101018410611dd25750505050608082015261094360a4600435016120c9565b60a082015261095660c460043501612287565b60c082015261096960e460043501612287565b60e0820152600435610104013565ffffffffffff81169003611d305761010460043501356101008201526001600160401b03610124600435013511611d305736600435610124810135016023011215611d30576109d160048035610124810135010135612263565b6109de60405191826121e0565b60048035610124810135019081013580835260208301913660e09092020160240111611dce5760043561012481013501602401905b60048035610124810135019081013560e002016024018210611d34575050610120820152600435610144810135610140830152610164810135610160830152610a5f90610184016120c9565b6101808201526004356101a401356001600160a01b0381169003611d30576004356101a48101356101a08301526101c401356001600160a01b0381169003611d30576004356101c48101356101c08301526101e401356001600160a01b0381169003611d30576004356101e401356101e082015261010081015165ffffffffffff1680611cc4575065ffffffffffff610b1262ffffff610b058160c086015116426122b6565b9060e085015116906122b6565b166101008201525b62ffffff60c082015116158015611c89575b611c77576040516322de550f60e21b81526020816004817f00000000000000000000000000000000000000000000000000000000000000006001600160a01b03165afa908115611b1c578391611c32575b506040516306661abd60e01b81529190602090839060049082906001600160a01b03165afa918215611b1c578392611bfe575b50600182018211611bea5760018060a01b0360a08201511662ffffff60c08301511662ffffff60e08401511665ffffffffffff6101008501511660405193610bf785612144565b84526020808501918252604080860194855260608601938452600188018952908890528720935190519251915160a09390931b65ffffffffffff60a01b166001600160a01b03919091161760d09190911b62ffffff60d01b161760e89190911b6001600160e81b03191617905561012081015151806118e9575b50608081015151610c8181612263565b90610c8f60405192836121e0565b808252610c9b81612263565b855b601f198201811061188d57505060808301515190610cd3610cbd83612263565b92610ccb60405194856121e0565b808452612263565b865b601f198201811061187c5750508560a0604051610cf18161210e565b606081528260208201528260408201528260608201528260808201520152855b8181106117b55750507f0000000000000000000000000000000000000000000000000000000000000000608881901c62ffffff16763d602d80600a3d3981f3363d3d373d3d3d363d7300000017865260781b6e5af43d82803e903d91602b57fd5bf3176020526001600160a01b036037600987f016918215611777576101a08401516001600160a01b0316801561174f57915b6040516331070bc960e21b8152916020836004817f00000000000000000000000000000000000000000000000000000000000000006001600160a01b03165afa928315611744578893611723575b508551610e0160018901614fb7565b610e3f6028604051809367444546494641202360c01b6020830152610e2f8151809260208686019101612801565b81010360088101845201826121e0565b60405163557e715560e01b81528a906020816004817f00000000000000000000000000000000000000000000000000000000000000006001600160a01b03165afa908115611509578291611704575b5060608a01516040808c01516101c08d015160a08e01519251631982d67960e01b81526001600160a01b03938416600482015291949260209183916024918391165afa9485156103e857946116d0575b506101e08c01516101808d01516001600160a01b0390811697911695908c3b156116cc57908f9a918f9a99989796959493926040519b633900c6f960e01b8d5260010160048d0152600160a01b600190031660248c015260448b016101e090526101e48b01610f4c91612824565b8a81036003190160648c0152610f6191612824565b6001600160a01b0390911660848a01528881036003190160a48a0152610f8691612824565b6001600160a01b038a1660c48901528781036003190160e4890152610faa91612824565b600319878203016101048801528451908181526020019460200190885b81811061160c5750505065ffffffffffff1661012486015261014485015230610164850152306101848501526101a4840152600319838203016101c4840152815180825260208201916020808360051b83010194019286915b8383106115d957505050505081808492038183885af18015611509576115c5575b50506103e06024604051611054816120dd565b60018152602036818301376101c08601516001600160a01b0316611077826126db565b52611268602087015161125562ffffff60c08a015116916040519261109b84612144565b83528b60208401528b60408401528b60608401526040516110bb8161218e565b8c81528c60208201528c60408201526110e98d604051906110db826120dd565b815260016020820152614bbf565b604051916110f6836121a9565b82528d602083015261271080604084015260608301528d60808301528d60a08301528d60c08301528d60e08301528d6101008301528d6101208301528d6101408301528d6101608301528d6101808301528d6101a083015260016101c083015260016101e08301528a61020083015261022082015265ffffffffffff61119e8c62ffffff60e061119485610100850151168360c0860151169061498d565b920151169061498d565b61123c604051936111ae856121c5565b60008552611232604051986111c28a6121c5565b60008a526040519d8e9d8e63b3c5267360e01b815230600482015201528c61040460206111fd8b5160406103e4860152610424850190612824565b9a0151910152805160448e0152602081015160648e0152604081015160848e0152606001516001600160a01b031660a48d0152565b60c48b01906149a5565b1661034488015286820360031901610364880152612762565b8481036003190161038486015290614aa7565b600319838203016103a484015260208083519283815201920190895b8181106115a35750505081810360031981016103c484015260128252712232b334b3309036b4b73a10383430b9b29760711b60209283015290919060400181896001600160a01b037f0000000000000000000000000000000000000000000000000000000000000000165af1801561048057611578575b506101c083015160a084015160405163df21a7dd60e01b81526001600160a01b0391821660048201526001870160248201529160209183916044918391165afa90811561048057869161153a575b501561152857610140830151610160909301517f00000000000000000000000000000000000000000000000000000000000000006001600160a01b031693869190853b156114dd5760405163c543882f60e01b815260018801600482015260248101919091526044810191909152818160648183895af1801561150957611514575b5050813b156114d9578460405163f2fde38b60e01b8152846004820152818160248183885af18015611509576114f5575b50506001547f00000000000000000000000000000000000000000000000000000000000000006001600160a01b03169060001981146114e15790600187920180600155813b156114dd57604051632de7e90960e11b8152306004820152602481019190915291908290604490829084905af18015610480576114c5575b50602094506040519060018060a01b0316815233858201527f3082991f3dda023098e5849ea3903c6fbfd657dc6f9232f5eb81ad8a7ba161d660406001860192a4600160405191018152f35b6114cf869161215f565b6114d95784611479565b8480fd5b8280fd5b634e487b7160e01b87526011600452602487fd5b6114fe9061215f565b6114d95784386113fc565b6040513d84823e3d90fd5b61151d9061215f565b6114d95784386113cb565b604051631b93d9cb60e11b8152600490fd5b90506020813d602011611570575b81611555602093836121e0565b8101031261156c576115669061236a565b38611349565b8580fd5b3d9150611548565b602090813d831161159c575b61158e81836121e0565b810103126103dc57386112fb565b503d611584565b82516001600160a01b0316845285945060209384019390920191600101611284565b6115ce9061215f565b6114d9578438611041565b919395965091936020806115f9600193601f198682030187528951612824565b97019301930190928b9695949293611020565b91969798509192939460206101606001926101408a516cffffffffffffffffffffffffff815116835263ffffffff80868301511686850152604082015116604084015261ffff6060820151166060840152858060a01b03608082015116608084015260a081015160a084015262ffffff60c08201511660c084015260e0810151151560e084015261010081015115156101008401526101208101511515610120840152015115156101408201520197019101918d98979695949392610fc7565b8f80fd5b9093506020813d6020116116fc575b816116ec602093836121e0565b810103126103dc57519238610ede565b3d91506116df565b61171d915060203d6020116104795761046a81836121e0565b38610e8e565b61173d91935060203d6020116104795761046a81836121e0565b9138610df2565b6040513d8a823e3d90fd5b507f000000000000000000000000000000000000000000000000000000000000000091610da4565b60405162461bcd60e51b8152602060048201526016602482015275115490cc4c4d8dce8818dc99585d194819985a5b195960521b6044820152606490fd5b806117c660019260808801516126fe565b5169ffffffffffffffffffff60208201511661ffff604083015116848060a01b0360608401511660808401519060a08501511515926040519461180886612172565b8552633b9ac9ff60208601528760408601526060850152608084015260a08301528a60c08301528a60e0830152610100820152896101208201528361014082015261185383886126fe565b5261185e82876126fe565b505161186a82866126fe565b5261187581856126fe565b5001610d11565b806060602080938701015201610cd5565b60209060405161189c81612172565b88815288838201528860408201528860608201528860808201528860a08201528860c08201528860e082015288610100820152886101208201528861014082015282828701015201610c9d565b600181018111611bd6576118ff60018201612263565b9061190d60405192836121e0565b60018101808352601f199061192190612263565b01855b818110611b95575050845b818110611b6657506003548015611b52578592916119b2916040519061195482612129565b60018252856020830152633b9aca000460408201527f000000000000000000000000000000000000000000000000000000000000000060608201523060808201528460a08201528460c08201526119ab82856126fe565b52826126fe565b50604051906119c0826120dd565b60018252825b60208110611b275750604051906119dc826120dd565b7f000000000000000000000000000000000000000000000000000000000000000082526020820152611a0d826126db565b52611a17816126db565b50604051630af7f80160e21b8152906020826004817f00000000000000000000000000000000000000000000000000000000000000006001600160a01b03165afa918215611b1c578392611afb575b506001600160a01b0382163b156114dd578291611ad09160405194858094819363796d225b60e11b83527f0000000000000000000000000000000000000000000000000000000000000000600484015260018b016024840152606060448401526064830190612762565b03926001600160a01b03165af1801561076f5715610c7157611af49093919361215f565b9138610c71565b611b1591925060203d6020116104795761046a81836121e0565b9038611a66565b6040513d85823e3d90fd5b602091929350604051611b39816120dd565b87815260608382015282828601015201908592916119c6565b634e487b7160e01b86526012600452602486fd5b80611b786001926101208701516126fe565b51611b8382866126fe565b52611b8e81856126fe565b500161192f565b602090604051611ba481612129565b88815288838201528860408201528860608201528860808201528860a08201528860c082015282828701015201611924565b634e487b7160e01b84526011600452602484fd5b634e487b7160e01b83526011600452602483fd5b9091506020813d602011611c2a575b81611c1a602093836121e0565b810103126114dd57519038610bb0565b3d9150611c0d565b90506020813d602011611c6f575b81611c4d602093836121e0565b810103126114dd5751906001600160a01b03821682036114dd57906020610b7d565b3d9150611c40565b604051633a7c40a160e11b8152600490fd5b5065ffffffffffff61010082015116611cbe611cae62ffffff60e085015116426122b6565b62ffffff60c085015116906122b6565b11610b2c565b62ffffff908160c084015116159081611d17575b50611ce4575b50610b1a565b611d0b65ffffffffffff61010084015116611d058360e086015116426122b6565b906126ce565b1660c082015238611cde565b9050611d298260e085015116426122b6565b1038611cd8565b5080fd5b60e0823603126114d957604051611d4a81612129565b611d538361227a565b8152611d616020840161227a565b602082015260408381013590820152606080840135908201526001600160a01b0360808401358181168103611dca57608083015260a084013560a083015260c08401351660c08401350361156c5760e09160209160c085013560c0820152815201910190610a13565b8780fd5b8380fd5b83356001600160401b038111611dca5760c06004358401820136036023190112611dca5760405190611e038261210e565b6001600160401b03602482866004350101013511611ecf57611e333660246004358701840181810135010161221c565b8252600435840181016044013569ffffffffffffffffffff81169003611ecf5760043584018101604481013560208401526064013561ffff81169003611ecf57602492602092611ebd60c484606487968a600435010101356040850152611ea26084828b6004350101016120c9565b606085015260043589010160a481013560808501520161227a565b60a08201528152019401939050610919565b8880fd5b634e487b7160e01b83526041600452602483fd5b503461013b57602036600319011261013b576020611f06600435612849565b604051908152f35b503461013b57608036600319011261013b576001600160a01b0360043581811603611d30576024359081160361013b576064356001600160401b038082116114dd57366023830112156114dd5781600401359081116114dd573691016024011161013b57604051630a85bd0160e11b8152602090f35b503461013b578060031936011261013b576040517f00000000000000000000000000000000000000000000000000000000000000006001600160a01b03168152602090f35b503461013b57602036600319011261013b57611fe6600435612521565b604051906007811015611ffb57602092508152f35b634e487b7160e01b83526021600452602483fd5b503461013b578060031936011261013b576040517f00000000000000000000000000000000000000000000000000000000000000006001600160a01b03168152602090f35b503461013b578060031936011261013b5760206040517f00000000000000000000000000000000000000000000000000000000000000008152f35b905034611d305781600319360112611d30576020907f00000000000000000000000000000000000000000000000000000000000000008152f35b35906001600160a01b03821682036103dc57565b604081019081106001600160401b038211176120f857604052565b634e487b7160e01b600052604160045260246000fd5b60c081019081106001600160401b038211176120f857604052565b60e081019081106001600160401b038211176120f857604052565b608081019081106001600160401b038211176120f857604052565b6001600160401b0381116120f857604052565b61016081019081106001600160401b038211176120f857604052565b606081019081106001600160401b038211176120f857604052565b61024081019081106001600160401b038211176120f857604052565b602081019081106001600160401b038211176120f857604052565b90601f801991011681019081106001600160401b038211176120f857604052565b6001600160401b0381116120f857601f01601f191660200190565b81601f820112156103dc5780359061223382612201565b9261224160405194856121e0565b828452602083830101116103dc57816000926020809301838601378301015290565b6001600160401b0381116120f85760051b60200190565b359081151582036103dc57565b359062ffffff821682036103dc57565b908160209103126103dc57516001600160a01b03811681036103dc5790565b919082018092116122c357565b634e487b7160e01b600052601160045260246000fd5b80929161012091829103126103dc576040519081018181106001600160401b038211176120f8576040528092805182526020810151602083015260408101516040830152606081015160608301526080810151608083015260a081015160a083015260c081015160c083015260e081015160018060a01b03811681036103dc5760e083015261010080910151910152565b519081151582036103dc57565b80820392916103a084126103dc5761238f90826122d9565b9261011f1901906102808083126103dc576060604051936123af856121a9565b126103dc57612460916040516123c48161218e565b610120906123d382840161236a565b8152610140906123e482850161236a565b6020820152610160906123f882860161236a565b604082015287526101808085015160208901526101a0918286015160408a01526101c0938487015160608b01526101e09561243487890161236a565b60808c0152612491610200998c60a061244e8d8d0161236a565b9101528c60c06102209d8e8d0161236a565b9101528c60e06124736102408d0161236a565b9101528c6101006124876102608d0161236a565b910152890161236a565b908b01526124a26102a0880161236a565b908a01526124b36102c0870161236a565b908901526124c46102e0860161236a565b908801526124d5610300850161236a565b908701526124e6610320840161236a565b908601526124f7610340830161236a565b908501526103608101516001600160a01b03811681036103dc576103809285015201519082015290565b60408051638776c49960e01b8152600481018390526001600160a01b03926103a0919082826024817f000000000000000000000000000000000000000000000000000000000000000089165afa9182156126c357600093849361268f575b5050825180156126845760011461267a57806000526020926002845260ff85600020541661266f576125b18183614b1b565b6126645751600214908161264b575b506126425761020001518251635460afa560e11b815293829185916004918391165afa9182156126385750600091612604575b5090506125ff57600390565b600490565b82813d8311612631575b61261881836121e0565b8101031261013b575061262a9061236a565b80386125f3565b503d61260e565b513d6000823e3d90fd5b50505050600290565b905060005260008252826000205460e81c1515386125c0565b505050505050600590565b505050505050600690565b5050505050600190565b505050505050600090565b80919294506126b39350903d106126bc575b6126ab81836121e0565b810190612377565b9091388061257f565b503d6126a1565b84513d6000823e3d90fd5b919082039182116122c357565b8051156126e85760200190565b634e487b7160e01b600052603260045260246000fd5b80518210156126e85760209160051b010190565b60c09080511515835260208101511515602084015260408101516040840152606081015160608401528160018060a01b039182608082015116608086015260a081015160a0860152015116910152565b90815180825260208092019182818360051b8501950193600080925b85841061278f575050505050505090565b9091929387828297989903855288518260606040938285820194805183520151948382015284518094520192019085905b8082106127e057505050908060019299019401940192959493919061277e565b919360e0846127f3600194968851612712565b0194019201889392916127c0565b60005b8381106128145750506000910152565b8181015183820152602001612804565b9060209161283d81518092818552858086019101612801565b601f01601f1916010190565b60408051638776c49960e01b81526004808201849052602493906001600160a01b037f0000000000000000000000000000000000000000000000000000000000000000811691906103a080868981875afa908115613244576000968792613222575b50856000526020966002885260ff8960002054168015613216575b6132065787878a6128d78483614b1b565b612fc757915050516304acdec560e21b8152878682015282818c818a5afa908115612fbc57600091612f9e575b50888083015191015103612f8e5791879695949391899360018091511480612f76575b15612b8257908892918461020080940151168960005260008552866000209587519661295288612144565b5490811687528060a01c65ffffffffffff16868801528060d01c62ffffff168888015260e81c60608197015286519561298a87612144565b8652600085870181905287870181905260608701528651936129ab8561218e565b60008086528686018190528886015287516129c5816120dd565b6000815283878201526129d790614bbf565b928851956129e4876121a9565b865286860160009052612710808a880152606087015280608087015260a086016000905260c086016000905260e08601600090526101008601600090526101208601600090526101408601600090526101608601600090526101808601600090526101a0860160009052806101c08701526101e0860152840152610220830152845191612a70836121c5565b60008352855194612a80866121c5565b6000865286519d8e9a8b9963175b7be560e31b8b528a01528801612aca916060908051835260208101516020840152604081015160408401528160018060a01b0391015116910152565b60a48701612ad7916149a5565b6103248601600090526103448601526103a48501612af491612762565b91600319928386820301610364870152612b0d91614aa7565b8481039283016103848601526014815201732232b334b330903932b33ab73210383430b9b29760611b905201915a90600091f19182156126385750600091612b56575b50905090565b82813d8311612b7b575b612b6a81836121e0565b8101031261013b5750518038612b50565b503d612b60565b919294959697509250836102008093015116938760005260008952808a6000205416908a516331070bc960e21b81528a8189818c5afa908115612f4c578383928c8f958f94612c0c9c9b9a9998978e91600095612f57575b5051630862026560e41b81529081019283526001600160a01b039094166020830152929a8b9384929091839160400190565b0392165afa968715612f4c57600097612f2d575b508c908c978c895199612c328b6120dd565b868b526000905b828210612ee75750505016918b8d518093631982d67960e01b8252838c83015281865afa918215612edc57918d979593918d9c9b9a99979593600092612e91575b50908c969594939291895192612c8f8461210e565b835287830152600089830181905260608301526001600160e81b03608083015260a0820152612cbd876126db565b52612cc7866126db565b50865193612cd485612144565b60008086528686018190528886018190526060860152875192612cf68461218e565b6000808552878501819052898501528851612d10816120dd565b600080825288820152612d2290614bbf565b92895194612d2f866121a9565b855287850160009052612710808b870152606086015280608086015260a085016000905260c085016000905260e08501600090526101008501600090526101208501600090526101408501600090526101608501600090526101808501600090526101a0850160009052806101c08601526101e0850152830152610220820152855192612dbb846121c5565b6000845286519d8e9a8b9963175b7be560e31b8b528a01528801612e05916060908051835260208101516020840152604081015160408401528160018060a01b0391015116910152565b60a48701612e12916149a5565b6103248601600090526103448601526103a48501612e2f91612762565b91600319928386820301610364870152612e4891614aa7565b8481039283016103848601526015815201742232b334b3309039b1b7b934b73390383430b9b29760591b905201915a90600091f19182156126385750600091612b565750905090565b8093959799508d919496989a9b9c9d3d8311612ed5575b612eb281836121e0565b8101031261013b5750928b9a99989795928b95928e989551919293949596612c7a565b503d612ea8565b8d513d6000823e3d90fd5b9091929394506000815191612efb8361210e565b81835281858401528201526000606082015260006080820152600060a082015282828c01015201908c8f93928f612c39565b612f459197508b3d8d116104795761046a81836121e0565b9538612c20565b8c513d6000823e3d90fd5b612f6f919550873d89116104795761046a81836121e0565b9338612bda565b508760005260008952846000205460e81c1515612927565b88516311f4338560e01b81528590fd5b612fb59150833d85116126bc576126ab81836121e0565b5038612904565b8a513d6000823e3d90fd5b939096949250819795610200809401511690845193612fe585612144565b600080865284860181905286860181905260608601528551926130078461218e565b6000808552858501819052878501528651613021816120dd565b6000815260018682015261303490614bbf565b91875194613041866121a9565b85528585016000905261271080898701526060860152608085016001905260a085016000905260c085016000905260e08501600090526101008501600090526101208501600090526101408501600090526101608501600090526101808501600090526101a08501600090526101c08501600190526101e08501600190528401526102208301528451916130d4836121c5565b600083528551946130e4866121c5565b6000865286519e8f9a8b9963175b7be560e31b8b528a0152880161312e916060908051835260208101516020840152604081015160408401528160018060a01b0391015116910152565b60a4870161313b916149a5565b6103248601600090526103448601526103a4850161315891612762565b9160031992838682030161036487015261317191614aa7565b8481039283016103848601526012815201712232b334b3309037379031b7b73a32b9ba1760711b905201915a90600091f19384156131fb576000946131cb575b509060029160005252600020600160ff1982541617905590565b90938282813d83116131f4575b6131e281836121e0565b8101031261013b5750519260026131b1565b503d6131d8565b83513d6000823e3d90fd5b885163dc7a251560e01b81528590fd5b506080810151156128c6565b9080975061323c92503d88116126bc576126ab81836121e0565b9095386128ab565b87513d6000823e3d90fd5b3d1561327a573d9061326082612201565b9161326e60405193846121e0565b82523d6000602084013e565b606090565b9390926132b0926132be96948652602086015260018060a01b0316604085015260a0606085015260a0840190612824565b916080818403910152612824565b90565b90816000526004602052604060002054614989576132de82612521565b60078110156149735760038114159081614967575b5061495557816000526004602052600160406000205560405191630af7f80160e21b835260208360048160018060a01b037f0000000000000000000000000000000000000000000000000000000000000000165afa9283156138c557600093614934575b506040516369e11cc560e01b81527f000000000000000000000000000000000000000000000000000000000000000060048201819052602482018390527f000000000000000000000000000000000000000000000000000000000000000060448301529093600090859060649082906001600160a01b03165afa9384156138c557600094614814575b50835115614738575b50600081815260208181526040918290205491516331070bc960e21b815294916001600160a01b039081169190869060049082907f0000000000000000000000000000000000000000000000000000000000000000165afa9485156138c557600095614717575b50604051630862026560e41b8152600481018490526001600160a01b038216602482015291602083806044810103816001600160a01b038a165afa9283156138c5576000936146f6575b5060405163975057e760e01b8152936020856004816001600160a01b0388165afa9485156138c5576000956146d5575b50604051627eeac760e11b81526001600160a01b03858116600483015260248201839052909560209187916044918391165afa9485156138c5576000956146a1575b5060405163313ce56760e01b81526020816004816001600160a01b0389165afa9081156138c55760009161466f575b50604051631982d67960e01b8152600481018590526020816024816001600160a01b038a165afa9081156138c55760009161463d575b50602061357d84614fb7565b916135d36037604051809575536574746c696e67204465666966612067616d65202360501b868301526135b98151809288603686019101612801565b8101601760f91b60368201520360178101865201846121e0565b886136436040516135e3816121c5565b60008152613631604051968795869563280be00760e21b87528b6004880152602487015260448601528b60648601528d60848601523060a486015261010060c4860152610104850190612824565b8381036003190160e485015290612824565b038160006001600160a01b038b165af19081156138c55760009161460b575b509260005b8151811015613e955761367a81836126fe565b5161368960408201518a61511f565b806136c6575b610120600193926000805160206151ac833981519152926136b36040518093612712565b60e082015233610100820152a101613667565b60c08201516001600160a01b0316156138d15760405163b7bad1b160e01b8152600481018990526020816024816001600160a01b038e165afa9081156138c557600091613893575b506040519061371c8261210e565b8982528260208301526040820152866060820152600060808201528260a082015261eeee8903613874575b61eeee890361386c5781905b60c08401516001600160a01b031691823b156103dc5760408051634eba05fd60e11b815283516001600160a01b0316600482015260208401516024820152908301516044820152606083015160648201526080830151608482015260a090920151919260009284926101849284926137cf9060a4850190612712565b5af1908161385d575b5061383c57610120600193926000805160206151ac833981519152926137fc61324f565b5061eeee8b03613820575b506138146000809a6126ce565b9892509293505061368f565b61383690868060a01b0360c0840151168c614d15565b38613807565b9561012060019392613814896000805160206151ac833981519152946126ce565b6138669061215f565b386137d8565b600090613753565b60c083015161388e9083906001600160a01b03168b614be4565b613747565b90506020813d6020116138bd575b816138ae602093836121e0565b810103126103dc57513861370e565b3d91506138a1565b6040513d6000823e3d90fd5b606082015188908d9015613cdd576060840151604051630862026560e41b815260048101919091526001600160a01b039283166024820152929160209184916044918391165afa9182156138c557600092613cbc575b506001600160a01b038216158015613c48575b15613963575050906000805160206151ac8339815191526101206001936138146000809a6126ce565b6020604051613971816120dd565b81815281369101376040518760208201526020815261398f816120dd565b61eeee8a03613c2f575b61eeee8a03613c275781905b6020850151899015613af2575060608501516139c08a614fb7565b92613a1f603b60405180967f4465706f7369742066726f6d204465666966612067616d6520230000000000006020830152601760f91b8151613a0b81603a9460208688019101612801565b83019182015203601b8101875201856121e0565b6001600160a01b0386163b156103dc57848d92613a556000956040519788968795869563019f1d0b60e31b87526004870161327f565b03916001600160a01b0388165af19081613ae3575b50613ac057600193926000805160206151ac8339815191529261012092613a8f61324f565b5061eeee8c03613aa8575b50506138146000809a6126ce565b613ab991878060a01b03168c614d15565b3880613a9a565b966000805160206151ac83398151915291506001939261381489610120936126ce565b613aec9061215f565b38613a6a565b91906020918c6060880151613bc360018060a01b0360808b01511694613631613b1e8c51151599614fb7565b613b7b603a60405180937f5061796f75742066726f6d204465666966612067616d652023000000000000008d830152601760f91b8151613b678160399460208688019101612801565b83019182015203601a8101845201826121e0565b604051998a9889978897631ebc263f60e01b895260048901528d6024890152604488015260648701526000608487015260a486015261010060c4860152610104850190612824565b03916001600160a01b0388165af19081613bfc5750613ac057600193926000805160206151ac8339815191529261012092613a8f61324f565b602090813d8311613c20575b613c1281836121e0565b810103126103dc5738613a6a565b503d613c08565b6000906139a5565b613c43826001600160a01b0385168c614be4565b613999565b5060405163b7bad1b160e01b8152600481018a90526020816024816001600160a01b0387165afa80156138c5578791600091613c87575b50141561393a565b9150506020813d602011613cb4575b81613ca3602093836121e0565b810103126103dc5786905138613c7f565b3d9150613c96565b613cd691925060203d6020116104795761046a81836121e0565b9038613927565b5050608082018051919793929189906001600160a01b03168015613e6e5789919061eeee8203613e0357505090516001600160a01b03169050478811613dbe57600080808a81945af1613d2e61324f565b5015613d53576101206000805160206151ac83398151915291613814896001966126ce565b60405162461bcd60e51b815260206004820152603a60248201527f416464726573733a20756e61626c6520746f2073656e642076616c75652c207260448201527f6563697069656e74206d617920686176652072657665727465640000000000006064820152608490fd5b60405162461bcd60e51b815260206004820152601d60248201527f416464726573733a20696e73756666696369656e742062616c616e63650000006044820152606490fd5b60405163a9059cbb60e01b60208201526001600160a01b039091166024820152604481018390526001966000805160206151ac83398151915295610120955093613814939092613e6991613e6482606481015b03601f1981018452836121e0565b614e2d565b6126ce565b50505060019296506101206000805160206151ac833981519152916138146000809a6126ce565b509492939196975050826144fa575b5050604051638776c49960e01b8152600481018590526103a0919082816024817f00000000000000000000000000000000000000000000000000000000000000006001600160a01b03165afa9283156138c5576000936144d4575b5050610200820151604051630765714f60e31b81529190602090839060049082906001600160a01b03165afa9182156138c5576000926144b3575b506040516370a0823160e01b8152306004820152916020836024816001600160a01b0385165afa9283156138c55760009361447f575b508261437a575b50604051630619306360e41b81526020816004817f00000000000000000000000000000000000000000000000000000000000000006001600160a01b03165afa9081156138c55760009161435b575b50604051635287af3760e01b81523060048201527f0000000000000000000000000000000000000000000000000000000000000000602482015290602090829060449082906001600160a01b03165afa9081156138c557600091614329575b5080614235575b50610200830151604051630a0bfcfb60e11b815290602090829060049082906001600160a01b03165afa9081156138c557600091614216575b506040516370a0823160e01b8152306004820152936001600160a01b039190911690602085602481855afa9485156138c5576000956141e2575b508480614154575b5050506140b481866126ce565b8660005260046020526040600020556040519460c0860190865260c06020870152845180915260e09060208288019601916000905b82821061413357505050506040850152606084015260808301523360a08301527fcdaef79c6f93c7c926c9634f64404f73a776f14615ab57102d65d75effb6b700919081900390a2565b90919296602082826141486001948c51612712565b019801939201906140e9565b61020091909101516040516323b872dd60e01b81523060048201526001600160a01b039091166024820152604481019190915290602090829060649082906000905af180156138c5576141a9575b80846140a7565b6020813d6020116141da575b816141c2602093836121e0565b810103126103dc576141d39061236a565b50386141a2565b3d91506141b5565b9094506020813d60201161420e575b816141fe602093836121e0565b810103126103dc5751933861409f565b3d91506141f1565b61422f915060203d6020116104795761046a81836121e0565b38614065565b604051630619306360e41b8152906020826004817f00000000000000000000000000000000000000000000000000000000000000006001600160a01b03165afa9182156138c557600092614308575b506001600160a01b0382163b156103dc57604051636607955d60e01b81523060048201527f000000000000000000000000000000000000000000000000000000000000000060248201526044810191909152906000908290606490829084906001600160a01b03165af180156138c5571561402c576143029061215f565b3861402c565b61432291925060203d6020116104795761046a81836121e0565b9038614284565b90506020813d602011614353575b81614344602093836121e0565b810103126103dc575138614025565b3d9150614337565b614374915060203d6020116104795761046a81836121e0565b38613fc6565b6102008401516040516370a0823160e01b8152306004820152906001600160a01b03908116906020908390602490829087165afa9182156138c557600092614449575b506040516323b872dd60e01b81523060048201526001600160a01b039091166024820152604481019190915290602090829081600081606481015b03926001600160a01b03165af180156138c55715613f77576020813d602011614441575b81614429602093836121e0565b810103126103dc5761443a9061236a565b5038613f77565b3d915061441c565b91506020823d602011614477575b81614464602093836121e0565b810103126103dc579051906143f86143bd565b3d9150614457565b9092506020813d6020116144ab575b8161449b602093836121e0565b810103126103dc57519138613f70565b3d915061448e565b6144cd91925060203d6020116104795761046a81836121e0565b9038613f3a565b600492935090816144f092903d106126bc576126ab81836121e0565b9050919038613eff565b61eeee811480156145f2575b156145ea5782905b61451787614fb7565b92614577603f60405180966c4465666966612067616d65202360981b602083015261454c815180926020602d86019101612801565b810171103430b9903132b2b71039b2ba3a3632b21760711b602d82015203601f8101875201856121e0565b604051614583816121c5565b600081526001600160a01b0382163b156103dc57600093896145bd88936040519889978896879563019f1d0b60e31b87526004870161327f565b03926001600160a01b03165af180156138c5576145db575b80613ea4565b6145e49061215f565b386145d5565b60009061450e565b614606846001600160a01b03851684614be4565b614506565b90506020813d602011614635575b81614626602093836121e0565b810103126103dc575138613662565b3d9150614619565b90506020813d602011614667575b81614658602093836121e0565b810103126103dc575138613571565b3d915061464b565b90506020813d602011614699575b8161468a602093836121e0565b810103126103dc57513861353b565b3d915061467d565b9094506020813d6020116146cd575b816146bd602093836121e0565b810103126103dc5751933861350c565b3d91506146b0565b6146ef91955060203d6020116104795761046a81836121e0565b93386134ca565b61471091935060203d6020116104795761046a81836121e0565b913861349a565b61473191955060203d6020116104795761046a81836121e0565b9338613450565b6040519350614746846120dd565b6001845260005b602081106147cc57508360035480156147b6576147af926040519161477183612129565b6001835260006020840152633b9aca000460408301526060820152306080820152600060a0820152600060c08201526147a9826126db565b526126db565b50386133e9565b634e487b7160e01b600052601260045260246000fd5b6020906040516147db81612129565b60008152600083820152600060408201526000606082015260006080820152600060a0820152600060c08201528282880101520161474d565b9093503d806000833e61482781836121e0565b8101906020818303126103dc578051906001600160401b0382116103dc570181601f820112156103dc5780519061485d82612263565b9261486b60405194856121e0565b8284526020840190602060e0809502840101928184116103dc57602001915b83831061489d57505050505092386133e0565b84838303126103dc57604051906148b382612129565b6148bc8461236a565b82526148ca6020850161236a565b60208301526040848101519083015260608085015190830152608080850151906001600160a01b03821682036103dc5783015260a0848101519083015260c080850151929091906001600160a01b03841684036103dc57879360209382015281520192019161488a565b61494e91935060203d6020116104795761046a81836121e0565b9138613357565b6040516366954d0b60e01b8152600490fd5b600491501415386132f3565b634e487b7160e01b600052602160045260246000fd5b9050565b65ffffffffffff91821690821603919082116122c357565b61026090604081518051151585526020810151151560208601520151151560408401526020810151606084015260408101516080840152606081015160a08401526080810151151560c084015260a0810151151560e084015260c0810151151590610100918285015260e081015115159161012092838601528101511515916101409283860152810151151591610160928386015281015115159161018092838601528101511515916101a092838601528101511515916101c092838601528101511515916101e092838601528101511515916102009283860152810151151591610220928386015260018060a01b0390820151166102408501520151910152565b90815180825260208080930193019160005b828110614ac7575050505090565b835180516001600160a01b03908116875281840151168684015260408082015190870152606080820151908701526080808201519087015260a0908101519086015260c09094019392810192600101614ab9565b604080830151905163a40bb9c760e01b8152600481019290925260248201526103a0919082816044817f00000000000000000000000000000000000000000000000000000000000000006001600160a01b03165afa9283156138c557600093614b9f575b505051905190600182018092116122c35703614b9a57600090565b600190565b614bb6929350803d106126bc576126ab81836121e0565b50903880614b7f565b906000918051614bdb575b60200151614bd457565b9060021790565b60019250614bca565b91909181158015614c95575b15614c315760405163095ea7b360e01b60208201526001600160a01b0390931660248401526044830191909152614c2f9190613e648260648101613e56565b565b60405162461bcd60e51b815260206004820152603660248201527f5361666545524332303a20617070726f76652066726f6d206e6f6e2d7a65726f60448201527520746f206e6f6e2d7a65726f20616c6c6f77616e636560501b6064820152608490fd5b50604051636eb1769f60e11b81523060048201526001600160a01b0384166024820152602081806044810103816001600160a01b0386165afa9081156138c557600091614ce4575b5015614bf0565b906020823d8211614d0d575b81614cfd602093836121e0565b8101031261013b57505138614cdd565b3d9150614cf0565b604051636eb1769f60e11b81523060048201526001600160a01b0383166024820152602094939092908584806044810103816001600160a01b0387165afa9384156138c557600094614dfe575b50808410614da75760405163095ea7b360e01b968101969096526001600160a01b03909116602486015290910360448401529091614c2f91613e648260648101613e56565b60405162461bcd60e51b815260048101879052602960248201527f5361666545524332303a2064656372656173656420616c6c6f77616e63652062604482015268656c6f77207a65726f60b81b6064820152608490fd5b90938682813d8311614e26575b614e1581836121e0565b8101031261013b5750519238614d62565b503d614e0b565b604051614e8b916001600160a01b0316614e46826120dd565b6000806020958685527f5361666545524332303a206c6f772d6c6576656c2063616c6c206661696c656487860152868151910182855af1614e8561324f565b91614f1a565b8051828115918215614efb575b5050905015614ea45750565b6084906040519062461bcd60e51b82526004820152602a60248201527f5361666545524332303a204552433230206f7065726174696f6e20646964206e6044820152691bdd081cdd58d8d9595960b21b6064820152fd5b83809293500103126103dc5781614f12910161236a565b808238614e98565b91929015614f7c5750815115614f2e575090565b3b15614f375790565b60405162461bcd60e51b815260206004820152601d60248201527f416464726573733a2063616c6c20746f206e6f6e2d636f6e74726163740000006044820152606490fd5b825190915015614f8f5750805190602001fd5b60405162461bcd60e51b815260206004820152908190614fb3906024830190612824565b0390fd5b806000917a184f03e93ff9f4daa797ed6e38ed64bf6a1f01000000000000000080821015615111575b506d04ee2d6d415b85acef810000000080831015615102575b50662386f26fc10000808310156150f3575b506305f5e100808310156150e4575b50612710808310156150d5575b5060648210156150c5575b600a809210156150bb575b6001908160218186019561505087612201565b9661505e60405198896121e0565b80885261506d601f1991612201565b01366020890137860101905b615085575b5050505090565b600019019083906f181899199a1a9b1b9c1cb0b131b232b360811b8282061a8353049182156150b657919082615079565b61507e565b916001019161503d565b9190606460029104910191615032565b60049193920491019138615027565b6008919392049101913861501a565b6010919392049101913861500b565b60209193920491019138614ff9565b604093508104915038614fe0565b91906000198184098184029182808310920391808303921461519e57633b9aca009081831015615180577f88f2cfb83100cb4e69e7c79c58b316e597157d372fb9787e8e47ce423a2e9c6d94950990828211900360f71b910360091c170290565b6044838360405191631dcf306360e21b835260048301526024820152fd5b5050633b9aca009004915056fe840060ef23ca0ed289d5a8ad1b5fe10697027c885fe9adb64d80b9294baf14b3a264697066735822122009807c79e542f8c0d13b34df1d8cdb2f70a7a58606d872a2eed2726d5020a1b964736f6c63430008140033",
    "linkReferences": {}
  },
  "methodIdentifiers": {
    "baseProtocolProjectId()": "0549cb32",
    "controller()": "f77c4791",
    "currentGamePhaseOf(uint256)": "0715610a",
    "currentGamePotOf(uint256,bool)": "b4dfb086",
    "defifaProjectId()": "0134a03d",
    "delegateCodeOrigin()": "06b552b5",
    "delegatesRegistry()": "d574ff04",
    "feeDivisor()": "9a36f932",
    "fulfillCommitmentsOf(uint256)": "b6674cde",
    "fulfilledCommitmentsOf(uint256)": "f2ae5f6e",
    "governor()": "0c340a24",
    "launchGameWith((string,(string,uint256),string,string,(string,uint80,uint16,address,bytes32,bool)[],address,uint24,uint24,uint48,(bool,bool,uint256,uint256,address,uint256,address)[],uint256,uint256,address,address,address,address))": "29045728",
    "nextPhaseNeedsQueueing(uint256)": "81312a14",
    "onERC721Received(address,address,uint256,bytes)": "150b7a02",
    "queueNextPhaseOf(uint256)": "1c069dbb",
    "splitGroup()": "859bb4b2",
    "timesFor(uint256)": "b07925d3",
    "tokenOf(uint256)": "ea78803f",
    "tokenUriResolver()": "e131fc0c"
  },
  "id": 1
}