{
  "abi": [
    {
      "inputs": [
        {
          "internalType": "address",
          "name": "_delegateCodeOrigin",
          "type": "address"
        },
        {
          "internalType": "contract IJB721TokenUriResolver",
          "name": "_tokenUriResolver",
          "type": "address"
        },
        {
          "internalType": "contract IDefifaGovernor",
          "name": "_governor",
          "type": "address"
        },
        {
          "internalType": "contract IJBController3_1",
          "name": "_controller",
          "type": "address"
        },
        {
          "internalType": "contract IJBDelegatesRegistry",
          "name": "_delegatesRegistry",
          "type": "address"
        },
        {
          "internalType": "address",
          "name": "_protocolFeeProjectTokenAccount",
          "type": "address"
        },
        {
          "internalType": "uint256",
          "name": "_defifaProjectId",
          "type": "uint256"
        },
        {
          "internalType": "address",
          "name": "_owner",
          "type": "address"
        }
      ],
      "stateMutability": "nonpayable",
      "type": "constructor"
    },
    {
      "inputs": [],
      "name": "CANT_FULFILL_YET",
      "type": "error"
    },
    {
      "inputs": [],
      "name": "GAME_OVER",
      "type": "error"
    },
    {
      "inputs": [],
      "name": "INCORRECT_DECIMAL_AMOUNT",
      "type": "error"
    },
    {
      "inputs": [],
      "name": "INVALID_FEE_PERCENT",
      "type": "error"
    },
    {
      "inputs": [],
      "name": "INVALID_GAME_CONFIGURATION",
      "type": "error"
    },
    {
      "inputs": [],
      "name": "PHASE_ALREADY_QUEUED",
      "type": "error"
    },
    {
      "inputs": [
        {
          "internalType": "uint256",
          "name": "prod1",
          "type": "uint256"
        },
        {
          "internalType": "uint256",
          "name": "denominator",
          "type": "uint256"
        }
      ],
      "name": "PRBMath__MulDivOverflow",
      "type": "error"
    },
    {
      "inputs": [],
      "name": "SPLITS_DONT_ADD_UP",
      "type": "error"
    },
    {
      "inputs": [],
      "name": "TERMINAL_NOT_FOUND",
      "type": "error"
    },
    {
      "inputs": [],
      "name": "UNEXPECTED_TERMINAL_CURRENCY",
      "type": "error"
    },
    {
      "anonymous": false,
      "inputs": [
        {
          "components": [
            {
              "internalType": "bool",
              "name": "preferClaimed",
              "type": "bool"
            },
            {
              "internalType": "bool",
              "name": "preferAddToBalance",
              "type": "bool"
            },
            {
              "internalType": "uint256",
              "name": "percent",
              "type": "uint256"
            },
            {
              "internalType": "uint256",
              "name": "projectId",
              "type": "uint256"
            },
            {
              "internalType": "address payable",
              "name": "beneficiary",
              "type": "address"
            },
            {
              "internalType": "uint256",
              "name": "lockedUntil",
              "type": "uint256"
            },
            {
              "internalType": "contract IJBSplitAllocator",
              "name": "allocator",
              "type": "address"
            }
          ],
          "indexed": false,
          "internalType": "struct JBSplit",
          "name": "split",
          "type": "tuple"
        },
        {
          "indexed": false,
          "internalType": "uint256",
          "name": "amount",
          "type": "uint256"
        },
        {
          "indexed": false,
          "internalType": "address",
          "name": "defaultBeneficiary",
          "type": "address"
        },
        {
          "indexed": false,
          "internalType": "address",
          "name": "caller",
          "type": "address"
        }
      ],
      "name": "DistributeToSplit",
      "type": "event"
    },
    {
      "anonymous": false,
      "inputs": [
        {
          "indexed": true,
          "internalType": "uint256",
          "name": "gameId",
          "type": "uint256"
        },
        {
          "indexed": true,
          "internalType": "contract IDefifaDelegate",
          "name": "delegate",
          "type": "address"
        },
        {
          "indexed": true,
          "internalType": "contract IDefifaGovernor",
          "name": "governor",
          "type": "address"
        },
        {
          "indexed": false,
          "internalType": "contract IJB721TokenUriResolver",
          "name": "tokenUriResolver",
          "type": "address"
        },
        {
          "indexed": false,
          "internalType": "address",
          "name": "caller",
          "type": "address"
        }
      ],
      "name": "LaunchGame",
      "type": "event"
    },
    {
      "anonymous": false,
      "inputs": [
        {
          "indexed": true,
          "internalType": "address",
          "name": "previousOwner",
          "type": "address"
        },
        {
          "indexed": true,
          "internalType": "address",
          "name": "newOwner",
          "type": "address"
        }
      ],
      "name": "OwnershipTransferred",
      "type": "event"
    },
    {
      "inputs": [],
      "name": "controller",
      "outputs": [
        {
          "internalType": "contract IJBController3_1",
          "name": "",
          "type": "address"
        }
      ],
      "stateMutability": "view",
      "type": "function"
    },
    {
      "inputs": [
        {
          "internalType": "uint256",
          "name": "_gameId",
          "type": "uint256"
        }
      ],
      "name": "currentGamePhaseOf",
      "outputs": [
        {
          "internalType": "enum DefifaGamePhase",
          "name": "",
          "type": "uint8"
        }
      ],
      "stateMutability": "view",
      "type": "function"
    },
    {
      "inputs": [
        {
          "internalType": "uint256",
          "name": "_gameId",
          "type": "uint256"
        },
        {
          "internalType": "bool",
          "name": "_includeCommitments",
          "type": "bool"
        }
      ],
      "name": "currentGamePotOf",
      "outputs": [
        {
          "internalType": "uint256",
          "name": "",
          "type": "uint256"
        },
        {
          "internalType": "address",
          "name": "",
          "type": "address"
        },
        {
          "internalType": "uint256",
          "name": "",
          "type": "uint256"
        }
      ],
      "stateMutability": "view",
      "type": "function"
    },
    {
      "inputs": [],
      "name": "defifaProjectId",
      "outputs": [
        {
          "internalType": "uint256",
          "name": "",
          "type": "uint256"
        }
      ],
      "stateMutability": "view",
      "type": "function"
    },
    {
      "inputs": [],
      "name": "delegateCodeOrigin",
      "outputs": [
        {
          "internalType": "address",
          "name": "",
          "type": "address"
        }
      ],
      "stateMutability": "view",
      "type": "function"
    },
    {
      "inputs": [],
      "name": "delegatesRegistry",
      "outputs": [
        {
          "internalType": "contract IJBDelegatesRegistry",
          "name": "",
          "type": "address"
        }
      ],
      "stateMutability": "view",
      "type": "function"
    },
    {
      "inputs": [],
      "name": "feeDivisor",
      "outputs": [
        {
          "internalType": "uint256",
          "name": "",
          "type": "uint256"
        }
      ],
      "stateMutability": "view",
      "type": "function"
    },
    {
      "inputs": [
        {
          "internalType": "uint256",
          "name": "_gameId",
          "type": "uint256"
        }
      ],
      "name": "fulfillCommitmentsOf",
      "outputs": [],
      "stateMutability": "nonpayable",
      "type": "function"
    },
    {
      "inputs": [
        {
          "internalType": "uint256",
          "name": "",
          "type": "uint256"
        }
      ],
      "name": "fulfilledCommitmentsOf",
      "outputs": [
        {
          "internalType": "uint256",
          "name": "",
          "type": "uint256"
        }
      ],
      "stateMutability": "view",
      "type": "function"
    },
    {
      "inputs": [],
      "name": "governor",
      "outputs": [
        {
          "internalType": "contract IDefifaGovernor",
          "name": "",
          "type": "address"
        }
      ],
      "stateMutability": "view",
      "type": "function"
    },
    {
      "inputs": [
        {
          "components": [
            {
              "internalType": "string",
              "name": "name",
              "type": "string"
            },
            {
              "components": [
                {
                  "internalType": "string",
                  "name": "content",
                  "type": "string"
                },
                {
                  "internalType": "uint256",
                  "name": "domain",
                  "type": "uint256"
                }
              ],
              "internalType": "struct JBProjectMetadata",
              "name": "projectMetadata",
              "type": "tuple"
            },
            {
              "internalType": "string",
              "name": "contractUri",
              "type": "string"
            },
            {
              "internalType": "string",
              "name": "baseUri",
              "type": "string"
            },
            {
              "components": [
                {
                  "internalType": "string",
                  "name": "name",
                  "type": "string"
                },
                {
                  "internalType": "uint80",
                  "name": "price",
                  "type": "uint80"
                },
                {
                  "internalType": "uint16",
                  "name": "reservedRate",
                  "type": "uint16"
                },
                {
                  "internalType": "address",
                  "name": "reservedTokenBeneficiary",
                  "type": "address"
                },
                {
                  "internalType": "bytes32",
                  "name": "encodedIPFSUri",
                  "type": "bytes32"
                },
                {
                  "internalType": "bool",
                  "name": "shouldUseReservedTokenBeneficiaryAsDefault",
                  "type": "bool"
                }
              ],
              "internalType": "struct DefifaTierParams[]",
              "name": "tiers",
              "type": "tuple[]"
            },
            {
              "internalType": "address",
              "name": "token",
              "type": "address"
            },
            {
              "internalType": "uint24",
              "name": "mintPeriodDuration",
              "type": "uint24"
            },
            {
              "internalType": "uint24",
              "name": "refundPeriodDuration",
              "type": "uint24"
            },
            {
              "internalType": "uint48",
              "name": "start",
              "type": "uint48"
            },
            {
              "components": [
                {
                  "internalType": "bool",
                  "name": "preferClaimed",
                  "type": "bool"
                },
                {
                  "internalType": "bool",
                  "name": "preferAddToBalance",
                  "type": "bool"
                },
                {
                  "internalType": "uint256",
                  "name": "percent",
                  "type": "uint256"
                },
                {
                  "internalType": "uint256",
                  "name": "projectId",
                  "type": "uint256"
                },
                {
                  "internalType": "address payable",
                  "name": "beneficiary",
                  "type": "address"
                },
                {
                  "internalType": "uint256",
                  "name": "lockedUntil",
                  "type": "uint256"
                },
                {
                  "internalType": "contract IJBSplitAllocator",
                  "name": "allocator",
                  "type": "address"
                }
              ],
              "internalType": "struct JBSplit[]",
              "name": "splits",
              "type": "tuple[]"
            },
            {
              "internalType": "uint256",
              "name": "attestationStartTime",
              "type": "uint256"
            },
            {
              "internalType": "uint256",
              "name": "attestationGracePeriod",
              "type": "uint256"
            },
            {
              "internalType": "address",
              "name": "defaultAttestationDelegate",
              "type": "address"
            },
            {
              "internalType": "contract IJB721TokenUriResolver",
              "name": "defaultTokenUriResolver",
              "type": "address"
            },
            {
              "internalType": "contract IJBPaymentTerminal",
              "name": "terminal",
              "type": "address"
            },
            {
              "internalType": "contract IJBTiered721DelegateStore",
              "name": "store",
              "type": "address"
            }
          ],
          "internalType": "struct DefifaLaunchProjectData",
          "name": "_launchProjectData",
          "type": "tuple"
        }
      ],
      "name": "launchGameWith",
      "outputs": [
        {
          "internalType": "uint256",
          "name": "gameId",
          "type": "uint256"
        }
      ],
      "stateMutability": "nonpayable",
      "type": "function"
    },
    {
      "inputs": [
        {
          "internalType": "uint256",
          "name": "_gameId",
          "type": "uint256"
        }
      ],
      "name": "nextPhaseNeedsQueueing",
      "outputs": [
        {
          "internalType": "bool",
          "name": "",
          "type": "bool"
        }
      ],
      "stateMutability": "view",
      "type": "function"
    },
    {
      "inputs": [
        {
          "internalType": "address",
          "name": "",
          "type": "address"
        },
        {
          "internalType": "address",
          "name": "",
          "type": "address"
        },
        {
          "internalType": "uint256",
          "name": "",
          "type": "uint256"
        },
        {
          "internalType": "bytes",
          "name": "",
          "type": "bytes"
        }
      ],
      "name": "onERC721Received",
      "outputs": [
        {
          "internalType": "bytes4",
          "name": "",
          "type": "bytes4"
        }
      ],
      "stateMutability": "pure",
      "type": "function"
    },
    {
      "inputs": [],
      "name": "owner",
      "outputs": [
        {
          "internalType": "address",
          "name": "",
          "type": "address"
        }
      ],
      "stateMutability": "view",
      "type": "function"
    },
    {
      "inputs": [],
      "name": "protocolFeeProjectTokenAccount",
      "outputs": [
        {
          "internalType": "address",
          "name": "",
          "type": "address"
        }
      ],
      "stateMutability": "view",
      "type": "function"
    },
    {
      "inputs": [
        {
          "internalType": "uint256",
          "name": "_gameId",
          "type": "uint256"
        }
      ],
      "name": "queueNextPhaseOf",
      "outputs": [
        {
          "internalType": "uint256",
          "name": "configuration",
          "type": "uint256"
        }
      ],
      "stateMutability": "nonpayable",
      "type": "function"
    },
    {
      "inputs": [],
      "name": "renounceOwnership",
      "outputs": [],
      "stateMutability": "nonpayable",
      "type": "function"
    },
    {
      "inputs": [],
      "name": "splitGroup",
      "outputs": [
        {
          "internalType": "uint256",
          "name": "",
          "type": "uint256"
        }
      ],
      "stateMutability": "view",
      "type": "function"
    },
    {
      "inputs": [
        {
          "internalType": "uint256",
          "name": "_gameId",
          "type": "uint256"
        }
      ],
      "name": "timesFor",
      "outputs": [
        {
          "internalType": "uint48",
          "name": "",
          "type": "uint48"
        },
        {
          "internalType": "uint24",
          "name": "",
          "type": "uint24"
        },
        {
          "internalType": "uint24",
          "name": "",
          "type": "uint24"
        }
      ],
      "stateMutability": "view",
      "type": "function"
    },
    {
      "inputs": [
        {
          "internalType": "uint256",
          "name": "_gameId",
          "type": "uint256"
        }
      ],
      "name": "tokenOf",
      "outputs": [
        {
          "internalType": "address",
          "name": "",
          "type": "address"
        }
      ],
      "stateMutability": "view",
      "type": "function"
    },
    {
      "inputs": [],
      "name": "tokenUriResolver",
      "outputs": [
        {
          "internalType": "contract IJB721TokenUriResolver",
          "name": "",
          "type": "address"
        }
      ],
      "stateMutability": "view",
      "type": "function"
    },
    {
      "inputs": [
        {
          "internalType": "address",
          "name": "newOwner",
          "type": "address"
        }
      ],
      "name": "transferOwnership",
      "outputs": [],
      "stateMutability": "nonpayable",
      "type": "function"
    },
    {
      "stateMutability": "payable",
      "type": "receive"
    }
  ],
  "bytecode": {
    "object": "0x61018034620001fd5762005eeb38819003601f8101601f191683016001600160401b03811184821017620002025783928291604052833961010092839181010312620001fd57620000508162000218565b60208201516001600160a01b03918282168203620001fd576040840151908382168203620001fd576060850151948486168603620001fd5760808101519485168503620001fd57620000f692620000aa60a0830162000218565b94620000be60e060c0850151940162000218565b93620000ca336200022d565b601460045560c05260e052875261012095865261014093845261016094855260a052306080526200022d565b60405192615c7694856200027586396080518581816106f701528181611ecf0152613ca5015260a051858181611e5c01528181611fbe015281816125ca0152613c4d015260c051858181611022015261258f015260e0518581816102cd0152611c330152518481816117ca0152612505015251838181610137015281816103a80152818161076001528181610df4015281816110b7015281816111810152818161172501528181611f4101528181612ab001528181612dcd01528181613c1901528181613d340152818161499201526153200152518281816109db01528181614095015281816146ce0152818161485f015261493201525181818161031101526118a80152f35b600080fd5b634e487b7160e01b600052604160045260246000fd5b51906001600160a01b0382168203620001fd57565b600080546001600160a01b039283166001600160a01b03198216811783559216907f8be0079c531659141344cd1fd0a4f28419497f9722a3daafe3b4186f6b6457e09080a356fe608080604052600436101561001d575b50361561001b57600080fd5b005b600090813560e01c9081630134a03d146125b35750806306b552b51461256f5780630715610a146125295780630c340a24146124e5578063150b7a02146124595780631c069dbb1461243257806329045728146109ff5780633f3090d9146109bb578063715018a61461094957806381312a141461071a578063859bb4b2146106df5780638da5cb5b146106b95780639a36f9321461069b578063b07925d314610621578063b4dfb08614610355578063b6674cde14610335578063d574ff04146102f1578063e131fc0c146102ad578063ea78803f1461027a578063f2ae5f6e14610250578063f2fde38b1461015e5763f77c47910361000f573461015b578060031936011261015b5760206040516001600160a01b037f0000000000000000000000000000000000000000000000000000000000000000168152f35b80fd5b503461015b57602060031936011261015b576101786125ed565b6101806156a7565b6001600160a01b038091169081156101e657600054827fffffffffffffffffffffffff0000000000000000000000000000000000000000821617600055167f8be0079c531659141344cd1fd0a4f28419497f9722a3daafe3b4186f6b6457e0600080a380f35b608460405162461bcd60e51b815260206004820152602660248201527f4f776e61626c653a206e6577206f776e657220697320746865207a65726f206160448201527f64647265737300000000000000000000000000000000000000000000000000006064820152fd5b503461015b57602060031936011261015b5760406020916004358152600583522054604051908152f35b503461015b57602060031936011261015b576001600160a01b036040602092600435815260018452205416604051908152f35b503461015b578060031936011261015b5760206040516001600160a01b037f0000000000000000000000000000000000000000000000000000000000000000168152f35b503461015b578060031936011261015b5760206040516001600160a01b037f0000000000000000000000000000000000000000000000000000000000000000168152f35b503461015b57602060031936011261015b57610352600435613b9a565b80f35b503461015b57604060031936011261015b576004359060243590811515820361053757828152602092600184526001600160a01b039384604084205416916040516331070bc960e21b815282816004818a7f0000000000000000000000000000000000000000000000000000000000000000165afa9081156105a0578591610604575b50604051630862026560e41b8152600481018390526001600160a01b0385166024820152908390829060449082908b165afa9081156105a05790879186916105e7575b501690604051967f975057e70000000000000000000000000000000000000000000000000000000088528388600481865afa9788156105dc5786986105ab575b506040517efdd58e0000000000000000000000000000000000000000000000000000000081526001600160a01b03841660048201526024810183905297849189916044918391165afa9081156105a0578591610570575b60049750819661054f575b50508190604051968780927f313ce5670000000000000000000000000000000000000000000000000000000082525afa928315610543579261050e575b606094506040519384528301526040820152f35b80925084813d831161053c575b6105258183612723565b810103126105375760609351916104fa565b600080fd5b503d61051b565b604051903d90823e3d90fd5b85526005835260408520549195508291610568916127fd565b9490386104bd565b90508287813d8311610599575b6105878183612723565b810103126105375760049651906104b2565b503d61057d565b6040513d87823e3d90fd5b849198506105ce90823d84116105d5575b6105c68183612723565b8101906127de565b979061045b565b503d6105bc565b6040513d88823e3d90fd5b6105fe9150843d86116105d5576105c68183612723565b3861041b565b61061b9150833d85116105d5576105c68183612723565b386103d8565b503461015b57602060031936011261015b5760406060916004358152600160205220816040519161065183612681565b546001600160a01b038116835265ffffffffffff8160a01c169283602082015262ffffff8260d01c169182604083015260e81c928391015260405192835260208301526040820152f35b503461015b578060031936011261015b576020600454604051908152f35b503461015b578060031936011261015b576001600160a01b036020915416604051908152f35b503461015b578060031936011261015b5760206040517f00000000000000000000000000000000000000000000000000000000000000008152f35b503461015b576020908160031936011261015b576040517f557e715500000000000000000000000000000000000000000000000000000000808252916001600160a01b037f0000000000000000000000000000000000000000000000000000000000000000811660048035908790869081855afa94851561093e57849561091d575b5082939495604051967f43a266c200000000000000000000000000000000000000000000000000000000885282600489015287602481610120988994165afa9687156105dc5790889187986108dd575b5060046040518095819382525afa9182156105a0579084929186926108bb575b5060249060405194859384927f5c5500780000000000000000000000000000000000000000000000000000000084526004840152165afa92831561054357809361087f575b5050508260808301511515928361086e575b506040518315158152f35b810151910151149050388281610863565b90918093503d84116108b4575b6108968184612723565b8201928284031261015b5750906108ac91612820565b388080610851565b503d61088c565b60249192506108d690893d8b116105d5576105c68183612723565b919061080c565b91509650843d8611610916575b6108f48183612723565b810190858183031261091257889161090b91612820565b96386107ec565b8680fd5b503d6108ea565b8394955061093790883d8a116105d5576105c68183612723565b949361079c565b6040513d86823e3d90fd5b503461015b578060031936011261015b576109626156a7565b60006001600160a01b0381547fffffffffffffffffffffffff000000000000000000000000000000000000000081168355167f8be0079c531659141344cd1fd0a4f28419497f9722a3daafe3b4186f6b6457e08280a380f35b503461015b578060031936011261015b5760206040516001600160a01b037f0000000000000000000000000000000000000000000000000000000000000000168152f35b503461015b57602060031936011261015b5767ffffffffffffffff6004351161015b576102006003196004353603011261015b57604051610200810181811067ffffffffffffffff82111761241e576040526004356004013567ffffffffffffffff811161199657610a78906004369181350101612762565b81526024600435013567ffffffffffffffff81116119965760043501604060031982360301126119965760405190610aaf82612617565b60048101359067ffffffffffffffff821161199257610ad660249260043691840101612762565b83520135602082015260208201526044600435013567ffffffffffffffff811161199657610b0b906004369181350101612762565b60408201526064600435013567ffffffffffffffff811161199657610b37906004369181350101612762565b60608201526084600435013567ffffffffffffffff811161199657366023826004350101121561199657600481813501013590610b73826127a9565b91610b816040519384612723565b80835260208301913660248360051b8360043501010111611a3d576024816004350101925b60248360051b8360043501010184106122fd57505050506080820152610bd060a460043501612603565b60a0820152610be360c4600435016127ce565b60c0820152610bf660e4600435016127ce565b60e0820152600435610104013565ffffffffffff8116900361201f57610104600435013561010082015267ffffffffffffffff61012460043501351161201f573660043561012481013501602301121561201f57610c5f600480356101248101350101356127a9565b610c6c6040519182612723565b60048035610124810135019081013580835260208301913660e090920201602401116122f95760043561012481013501602401905b60048035610124810135019081013560e00201602401821061225e575050610120820152600435610144810135610140830152610164810135610160830152610ced9061018401612603565b6101808201526004356101a401356001600160a01b038116900361201f576004356101a48101356101a08301526101c401356001600160a01b038116900361201f576004356101c48101356101c08301526101e401356001600160a01b038116900361201f576004356101e401356101e082015261010081015165ffffffffffff16806121f2575065ffffffffffff610da062ffffff610d938160c086015116426127fd565b9060e085015116906127fd565b166101008201525b62ffffff60c0820151161580156121b7575b61218d576040517f8b79543c0000000000000000000000000000000000000000000000000000000081526020816004816001600160a01b037f0000000000000000000000000000000000000000000000000000000000000000165afa908115611bf9578391612148575b509060206001600160a01b03926004604051809581937f06661abd000000000000000000000000000000000000000000000000000000008352165afa918215611bf9578392612114575b50600182018211612100576001600160a01b0360a08201511662ffffff60c08301511662ffffff60e08401511665ffffffffffff610100850151169160405193610eb785612681565b845260208401928352604084019081526060840191825260018601875260016020527fffffff00000000000000000000000000000000000000000000000000000000007cffffff000000000000000000000000000000000000000000000000000079ffffffffffff00000000000000000000000000000000000000006001600160a01b0360408b20975116955160a01b16925160d01b16925160e81b169217171790556101208101515180611ddc575b50608081015151610f77816127a9565b90610f856040519283612723565b808252610f91816127a9565b855b601f1982018110611d7b57505060808301515190610fc9610fb3836127a9565b92610fc16040519485612723565b8084526127a9565b865b601f1982018110611d655750508560a0604051610fe781612649565b606081528260208201528260408201528260608201528260808201520152855b818110611c9c5750506e5af43d82803e903d91602b57fd5bf37f0000000000000000000000000000000000000000000000000000000000000000763d602d80600a3d3981f3363d3d373d3d3d363d7300000062ffffff8260881c1617875260781b176020526001600160a01b036037600987f016918215611c58576101a08401516001600160a01b03168015611c3057915b604051916331070bc960e21b83526020836004816001600160a01b037f0000000000000000000000000000000000000000000000000000000000000000165afa928315611c25578893611c04575b508551886110f760018a01615a27565b61114a602760405180937f4445464946412000000000000000000000000000000000000000000000000000602083015261113a8151809260208686019101612d79565b8101036007810184520182612723565b604051907f557e71550000000000000000000000000000000000000000000000000000000082526020826004816001600160a01b037f0000000000000000000000000000000000000000000000000000000000000000165afa8015611bf9578a928491611bda575b5060608301519060408401519260206001600160a01b0360a0816101c08901511697015116602460405180988193631982d67960e01b835260048301525afa9485156105dc578d9695611ba3575b506001600160a01b03610180816101e08901511697015116968c3b15611b9f57908f9a918f9a99989796959493926040519b7f3900c6f9000000000000000000000000000000000000000000000000000000008d5260010160048d01526001600160a01b031660248c015260448b016101e090526101e48b0161128291612d9c565b8a81036003190160648c015261129791612d9c565b906001600160a01b031660848a01528881036003190160a48a01526112bb91612d9c565b6001600160a01b038a1660c48901528781036003190160e48901526112df91612d9c565b868103600319016101048801528451908181526020019460200190885b818110611add5750505065ffffffffffff1661012486015261014485015230610164850152306101848501526101a4840152600319838203016101c4840152815180825260208201916020808360051b83010194019286915b838310611aaa57505050505081808492038183885af180156119c257611a96575b50506103e0602460405161138981612617565b60018152602036818301376001600160a01b036101c0870151166113ac82612c57565b526116b560208701516116a262ffffff60c08a01511691604051926113d084612681565b83528b60208401528b60408401528b60608401526040516113f0816126ce565b8c81528c60208201528c604082015261141e8d6040519061141082612617565b815260016020820152615682565b6040519161142b836126ea565b82528d602083015261271080604084015260608301528d60808301528d60a08301528d60c08301528d60e08301528d6101008301528d6101208301528d6101408301528d6101608301528d6101808301528d6101a083015260016101c083015260016101e08301528a61020083015261022082015265ffffffffffff6114d38c62ffffff60e06114c985610100850151168360c0860151169061524a565b920151169061524a565b611689604051936114e385612707565b60008552611580604051986114f78a612707565b60008a526040519d8e9d8e7fb3c5267300000000000000000000000000000000000000000000000000000000815230600482015201528c610404602061154b8b5160406103e4860152610424850190612d9c565b9a0151910152805160448e0152602081015160648e0152604081015160848e0152606001516001600160a01b031660a48d0152565b80518051151560c48d0152602080820151151560e48e015260409182015115156101048e01528201516101248d01528101516101448c015260608101516101648c0152608081015115156101848c015260a081015115156101a48c015260c081015115156101c48c015260e081015115156101e48c015261010081015115156102048c015261012081015115156102248c015261014081015115156102448c015261016081015115156102648c015261018081015115156102848c01526101a081015115156102a48c01526101c081015115156102c48c01526101e081015115156102e48c01526102008101516001600160a01b03166103048c015261022001516103248b0152565b1661034488015260031987830301610364880152612c8e565b9060031985830301610384860152615262565b600319838203016103a484015260208083519283815201920190895b818110611a7457505050906040827f446566696661206d696e742070686173652e00000000000000000000000000006020848196039260031984016103c48701526012815201520181896001600160a01b037f0000000000000000000000000000000000000000000000000000000000000000165af180156105dc57611a49575b506101c083015160a08401516040517fdf21a7dd0000000000000000000000000000000000000000000000000000000081526001600160a01b0391821660048201526001870160248201529160209183916044918391165afa9081156105dc578691611a0b575b50156119e157846001600160a01b037f0000000000000000000000000000000000000000000000000000000000000000169361016061014082015191015190853b15611996576040517fc543882f00000000000000000000000000000000000000000000000000000000815260018801600482015260248101919091526044810191909152818160648183895af180156119c2576119cd575b5050813b1561199257846040517ff2fde38b000000000000000000000000000000000000000000000000000000008152846004820152818160248183885af180156119c2576119ae575b50506001600160a01b037f000000000000000000000000000000000000000000000000000000000000000016600254600019811461199a5790600187920180600255813b15611996576040517f5bcfd212000000000000000000000000000000000000000000000000000000008152306004820152602481019190915291908290604490829084905af180156105dc5761197e575b50602094506001600160a01b036040519116815233858201527f3082991f3dda023098e5849ea3903c6fbfd657dc6f9232f5eb81ad8a7ba161d660406001860192a4600160405191018152f35b611988869161269d565b6119925784611931565b8480fd5b8280fd5b602487634e487b7160e01b81526011600452fd5b6119b79061269d565b61199257843861189c565b6040513d84823e3d90fd5b6119d69061269d565b611992578438611852565b60046040517f3727b396000000000000000000000000000000000000000000000000000000008152fd5b90506020813d602011611a41575b81611a2660209383612723565b81010312611a3d57611a37906128b3565b386117b9565b8580fd5b3d9150611a19565b602090813d8311611a6d575b611a5f8183612723565b810103126105375738611752565b503d611a55565b82516001600160a01b03168452859450602093840193909201916001016116d1565b611a9f9061269d565b611992578438611376565b91939596509193602080611aca83601f1986600196030187528951612d9c565b97019301930190928b9695949293611355565b91969798509192939460206101606001926101408a516cffffffffffffffffffffffffff815116835263ffffffff80868301511686850152604082015116604084015261ffff60608201511660608401526001600160a01b03608082015116608084015260a081015160a084015262ffffff60c08201511660c084015260e0810151151560e084015261010081015115156101008401526101208101511515610120840152015115156101408201520197019101918d989796959493926112fc565b8f80fd5b955093506020853d602011611bd2575b81611bc060209383612723565b81010312610537578b94519338611200565b3d9150611bb3565b611bf3915060203d6020116105d5576105c68183612723565b386111b2565b6040513d85823e3d90fd5b611c1e91935060203d6020116105d5576105c68183612723565b91386110e7565b6040513d8a823e3d90fd5b507f000000000000000000000000000000000000000000000000000000000000000091611099565b606460405162461bcd60e51b815260206004820152601660248201527f455243313136373a20637265617465206661696c6564000000000000000000006044820152fd5b80611cad6001926080880151612c7a565b5169ffffffffffffffffffff60208201511661ffff6040830151166001600160a01b0360608401511660808401519060a085015115159260405194611cf1866126b1565b8552633b9ac9ff60208601528760408601526060850152608084015260a08301528a60c08301528a60e08301526101008201528961012082015283610140820152611d3c8388612c7a565b52611d478287612c7a565b5051611d538286612c7a565b52611d5e8185612c7a565b5001611007565b602081606082601f199488010152019050610fcb565b6020601f1991604051611d8d816126b1565b89815289838201528960408201528960608201528960808201528960a08201528960c08201528960e0820152896101008201528961012082015289610140820152828288010152019050610f93565b6001810181116120ec57611df2600182016127a9565b90611e006040519283612723565b600181018252601f19611e15600183016127a9565b01855b8181106120ab575050845b81811061207c5750600454801561206857604051611ea39291611e4582612665565b60018252876020830152633b9aca000460408201527f000000000000000000000000000000000000000000000000000000000000000060608201523060808201528660a08201528660c0820152611e9c8285612c7a565b5282612c7a565b5060405190611eb182612617565b60018252845b60208110612044575060405190611ecd82612617565b7f000000000000000000000000000000000000000000000000000000000000000082526020820152611efe82612c57565b52611f0881612c57565b5083604051917f2bdfe0040000000000000000000000000000000000000000000000000000000083526020836004816001600160a01b037f0000000000000000000000000000000000000000000000000000000000000000165afa9283156119c2578293612023575b506001600160a01b0383163b1561201f576001600160a01b0392611ffc91836040519586809581947ff2da44b60000000000000000000000000000000000000000000000000000000083527f0000000000000000000000000000000000000000000000000000000000000000600484015260018c016024840152606060448401526064830190612c8e565b0393165af1801561093e5715610f67576120189093919361269d565b9138610f67565b5080fd5b61203d91935060203d6020116105d5576105c68183612723565b9138611f71565b60209060405161205381612617565b87815260608382015282828601015201611eb7565b602486634e487b7160e01b81526012600452fd5b8061208e600192610120870151612c7a565b516120998286612c7a565b526120a48185612c7a565b5001611e23565b6020906040516120ba81612665565b88815288838201528860408201528860608201528860808201528860a08201528860c082015282828701015201611e18565b602484634e487b7160e01b81526011600452fd5b602483634e487b7160e01b81526011600452fd5b9091506020813d602011612140575b8161213060209383612723565b8101031261199657519038610e6e565b3d9150612123565b90506020813d602011612185575b8161216360209383612723565b810103126119965751906001600160a01b038216820361199657906020610e24565b3d9150612156565b60046040517f74f88142000000000000000000000000000000000000000000000000000000008152fd5b5065ffffffffffff610100820151166121ec6121dc62ffffff60e085015116426127fd565b62ffffff60c085015116906127fd565b11610dba565b62ffffff908160c084015116159081612245575b50612212575b50610da8565b61223965ffffffffffff610100840151166122338360e086015116426127fd565b90612c4a565b1660c08201523861220c565b90506122578260e085015116426127fd565b1038612206565b60e0823603126119925760405161227481612665565b61227d836127c1565b815261228b602084016127c1565b6020820152604083013560408201526060830135606082015260808301356001600160a01b039081811681036122f557608083015260a084013560a083015260c08401351660c084013503611a3d5760e09160209160c085013560c0820152815201910190610ca1565b8780fd5b8380fd5b833567ffffffffffffffff81116122f55760c07fffffffffffffffffffffffffffffffffffffffffffffffffffffffffffffffdc82856004350101360301126122f5576040519061234d82612649565b67ffffffffffffffff60248286600435010101351161241a5761237e36602460043587018401818101350101612762565b8252600435840181016044013569ffffffffffffffffffff8116900361241a5760043584018101604481013560208401526064013561ffff8116900361241a5760249260209261240860c484606487968a6004350101013560408501526123ed6084828b600435010101612603565b606085015260043589010160a48101356080850152016127c1565b60a08201528152019401939050610ba6565b8880fd5b602483634e487b7160e01b81526041600452fd5b503461015b57602060031936011261015b576020612451600435612dc1565b604051908152f35b503461015b57608060031936011261015b576124736125ed565b506024356001600160a01b0381160361015b5760643567ffffffffffffffff8082116119965736602383011215611996578160040135908111611996573691016024011161015b5760206040517f150b7a02000000000000000000000000000000000000000000000000000000008152f35b503461015b578060031936011261015b5760206040516001600160a01b037f0000000000000000000000000000000000000000000000000000000000000000168152f35b503461015b57602060031936011261015b57612546600435612a87565b60405190600781101561255b57602092508152f35b602483634e487b7160e01b81526021600452fd5b503461015b578060031936011261015b5760206040516001600160a01b037f0000000000000000000000000000000000000000000000000000000000000000168152f35b90503461201f578160031936011261201f576020907f00000000000000000000000000000000000000000000000000000000000000008152f35b600435906001600160a01b038216820361053757565b35906001600160a01b038216820361053757565b6040810190811067ffffffffffffffff82111761263357604052565b634e487b7160e01b600052604160045260246000fd5b60c0810190811067ffffffffffffffff82111761263357604052565b60e0810190811067ffffffffffffffff82111761263357604052565b6080810190811067ffffffffffffffff82111761263357604052565b67ffffffffffffffff811161263357604052565b610160810190811067ffffffffffffffff82111761263357604052565b6060810190811067ffffffffffffffff82111761263357604052565b610240810190811067ffffffffffffffff82111761263357604052565b6020810190811067ffffffffffffffff82111761263357604052565b90601f601f19910116810190811067ffffffffffffffff82111761263357604052565b67ffffffffffffffff811161263357601f01601f191660200190565b81601f820112156105375780359061277982612746565b926127876040519485612723565b8284526020838301011161053757816000926020809301838601378301015290565b67ffffffffffffffff81116126335760051b60200190565b3590811515820361053757565b359062ffffff8216820361053757565b9081602091031261053757516001600160a01b03811681036105375790565b9190820180921161280a57565b634e487b7160e01b600052601160045260246000fd5b80929161012091829103126105375760405190810181811067ffffffffffffffff821117612633576040528092805182526020810151602083015260408101516040830152606081015160608301526080810151608083015260a081015160a083015260c081015160c083015260e08101516001600160a01b03811681036105375760e083015261010080910151910152565b5190811515820361053757565b80820392916103a08412610537576128f97ffffffffffffffffffffffffffffffffffffffffffffffffffffffffffffffee09183612820565b93019061028080831261053757606060405193612915856126ea565b12610537576129c69160405161292a816126ce565b610120906129398284016128b3565b81526101409061294a8285016128b3565b60208201526101609061295e8286016128b3565b604082015287526101808085015160208901526101a0918286015160408a01526101c0938487015160608b01526101e09561299a8789016128b3565b60808c01526129f7610200998c60a06129b48d8d016128b3565b9101528c60c06102209d8e8d016128b3565b9101528c60e06129d96102408d016128b3565b9101528c6101006129ed6102608d016128b3565b91015289016128b3565b908b0152612a086102a088016128b3565b908a0152612a196102c087016128b3565b90890152612a2a6102e086016128b3565b90880152612a3b61030085016128b3565b90870152612a4c61032084016128b3565b90860152612a5d61034083016128b3565b908501526103608101516001600160a01b0381168103610537576103809285015201519082015290565b60408051638776c49960e01b81528260048201526103a0906001600160a01b03938282602481887f0000000000000000000000000000000000000000000000000000000000000000165afa918215612c3f576000938493612c0b575b505082518015612c0057600114612bf657806000526020926003845260ff856000205416612beb57612b1581836152d6565b612be057516002149081612bc7575b50612bbe5760049361020083920151168351948580927fa8c15f4a0000000000000000000000000000000000000000000000000000000082525afa918215612bb45750600091612b80575b509050612b7b57600390565b600490565b82813d8311612bad575b612b948183612723565b8101031261015b5750612ba6906128b3565b8038612b6f565b503d612b8a565b513d6000823e3d90fd5b50505050600290565b905060005260018252826000205460e81c151538612b24565b505050505050600590565b505050505050600690565b5050505050600190565b505050505050600090565b8091929450612c2f9350903d10612c38575b612c278183612723565b8101906128c0565b90913880612ae3565b503d612c1d565b84513d6000823e3d90fd5b9190820391821161280a57565b805115612c645760200190565b634e487b7160e01b600052603260045260246000fd5b8051821015612c645760209160051b010190565b90815180825260208092019182818360051b8501950193600080925b858410612cbb575050505050505090565b9091929387828297989903855288518260606040938285820194805183520151948382015284518094520192019085905b808210612d0c575050509080600192990194019401929594939190612caa565b919360e084612d6b60019496885160c0908051151583526020810151151560208401526040810151604084015260608101516060840152816001600160a01b039182608082015116608086015260a081015160a0860152015116910152565b019401920188939291612cec565b60005b838110612d8c5750506000910152565b8181015183820152602001612d7c565b90601f19601f602093612dba81518092818752878088019101612d79565b0116010190565b6001600160a01b0390817f000000000000000000000000000000000000000000000000000000000000000016604091825191638776c49960e01b8352600482818501526103a09560249680868981875afa908115613b39576000968792613b17575b50856000526020966003885260ff8960002054168015613b0b575b613ae35787878a612e4f84836152d6565b61378257915050517f12b37b14000000000000000000000000000000000000000000000000000000008152878682015282818c818a5afa90811561377757600091613759575b50888083015191015103613731579187969594939189936001809151148061371a575b156132145790889291846102008094015116896000528185528660002095875196612ee288612681565b5490811687528060a01c65ffffffffffff16868801528060d01c62ffffff168888015260e81c606081970152865195612f1a87612681565b865260008587018190528787018190526060870152865193612f3b856126ce565b6000808652868601819052888601528751612f5581612617565b600081528387820152612f6790615682565b92885195612f74876126ea565b865286860160009052612710808a880152606087015280608087015260a086016000905260c086016000905260e08601600090526101008601600090526101208601600090526101408601600090526101608601600090526101808601600090526101a0860160009052806101c08701526101e086015284015261022083015284519161300083612707565b6000835285519461301086612707565b6000865286519d8e9a8b9963175b7be560e31b8b528a0152880161305a916001600160a01b0360608092805185526020810151602086015260408101516040860152015116910152565b80518051151560a4890152602080820151151560c48a0152604091820151151560e48a015282015161010489015281015161012488015260608101516101448801526080810151151561016488015260a0810151151561018488015260c081015115156101a488015260e081015115156101c488015261010081015115156101e488015261012081015115156102048801526101408101511515610224880152610160810151151561024488015261018081015115156102648801526101a081015115156102848801526101c081015115156102a48801526101e081015115156102c48801526102008101516001600160a01b03166102e488015261022001516103048701526103248601600090526103448601526103a4850161317d91612c8e565b9160031992838682030161036487015261319691615262565b84810392830161038486015260148152017f44656669666120726566756e642070686173652e000000000000000000000000905201915a90600091f1918215612bb457506000916131e8575b50905090565b82813d831161320d575b6131fc8183612723565b8101031261015b57505180386131e2565b503d6131f2565b9192949596975092508361020080930151169387600052818952808a6000205416908a516331070bc960e21b81528a8189818c5afa9081156136f0578383928c8f958f9461329b9c9b9a9998978e916000956136fb575b50519c8d9586948593630862026560e41b855284019092916001600160a01b036020916040840195845216910152565b0392165afa9687156136f0576000976136d1575b508c908c978c8951996132c18b612617565b868b526000905b82821061368b5750505016918b8d518093631982d67960e01b8252838c83015281865afa91821561368057918d979593918d9c9b9a99979593600092613635575b50908c96959493929189519261331e84612649565b835287830152600089830181905260608301527cffffffffffffffffffffffffffffffffffffffffffffffffffffffffff608083015260a082015261336287612c57565b5261336c86612c57565b5086519361337985612681565b6000808652868601819052888601819052606086015287519261339b846126ce565b60008085528785018190528985015288516133b581612617565b6000808252888201526133c790615682565b928951946133d4866126ea565b855287850160009052612710808b870152606086015280608086015260a085016000905260c085016000905260e0850160009052610100850160009052610120850160009052610140850160009052806101608601526101808501600090526101a0850160009052806101c08601526101e085015283015261022082015285519261345e84612707565b6000845286519d8e9a8b9963175b7be560e31b8b528a015288016134a8916001600160a01b0360608092805185526020810151602086015260408101516040860152015116910152565b80518051151560a4890152602080820151151560c48a0152604091820151151560e48a015282015161010489015281015161012488015260608101516101448801526080810151151561016488015260a0810151151561018488015260c081015115156101a488015260e081015115156101c488015261010081015115156101e488015261012081015115156102048801526101408101511515610224880152610160810151151561024488015261018081015115156102648801526101a081015115156102848801526101c081015115156102a48801526101e081015115156102c48801526102008101516001600160a01b03166102e488015261022001516103048701526103248601600090526103448601526103a485016135cb91612c8e565b916003199283868203016103648701526135e491615262565b84810392830161038486015260158152017f4465666966612073636f72696e672070686173652e0000000000000000000000905201915a90600091f1918215612bb457506000916131e85750905090565b8093959799508d919496989a9b9c9d3d8311613679575b6136568183612723565b8101031261015b5750928b9a99989795928b95928e989551919293949596613309565b503d61364c565b8d513d6000823e3d90fd5b909192939450600081519161369f83612649565b81835281858401528201526000606082015260006080820152600060a082015282828c01015201908c8f93928f6132c8565b6136e99197508b3d8d116105d5576105c68183612723565b95386132af565b8c513d6000823e3d90fd5b613713919550873d89116105d5576105c68183612723565b933861326b565b5087600052808952846000205460e81c1515612eb8565b8489517f11f43385000000000000000000000000000000000000000000000000000000008152fd5b6137709150833d8511612c3857612c278183612723565b5038612e95565b8a513d6000823e3d90fd5b9390969492508197956102008094015116908451936137a085612681565b600080865284860181905286860181905260608601528551926137c2846126ce565b60008085528585018190528785015286516137dc81612617565b600081526001868201526137ef90615682565b918751946137fc866126ea565b85528585016000905261271080898701526060860152608085016001905260a085016000905260c085016000905260e08501600090526101008501600090526101208501600090526101408501600090526101608501600090526101808501600090526101a08501600090526101c08501600190526101e085016001905284015261022083015284519161388f83612707565b6000835285519461389f86612707565b6000865286519e8f9a8b9963175b7be560e31b8b528a015288016138e9916001600160a01b0360608092805185526020810151602086015260408101516040860152015116910152565b80518051151560a4890152602080820151151560c48a0152604091820151151560e48a015282015161010489015281015161012488015260608101516101448801526080810151151561016488015260a0810151151561018488015260c081015115156101a488015260e081015115156101c488015261010081015115156101e488015261012081015115156102048801526101408101511515610224880152610160810151151561024488015261018081015115156102648801526101a081015115156102848801526101c081015115156102a48801526101e081015115156102c48801526102008101516001600160a01b03166102e488015261022001516103048701526103248601600090526103448601526103a48501613a0c91612c8e565b91600319928386820301610364870152613a2591615262565b84810392830161038486015260128152017f446566696661206e6f20636f6e746573742e0000000000000000000000000000905201915a90600091f1938415613ad857600094613aa8575b50906003916000525260002060017fffffffffffffffffffffffffffffffffffffffffffffffffffffffffffffff0082541617905590565b90938282813d8311613ad1575b613abf8183612723565b8101031261015b575051926003613a70565b503d613ab5565b83513d6000823e3d90fd5b8489517fdc7a2515000000000000000000000000000000000000000000000000000000008152fd5b50608081015115612e3e565b90809750613b3192503d8811612c3857612c278183612723565b909538612e23565b87513d6000823e3d90fd5b90613b98603960405180947f5061796f75742066726f6d204465666966612067616d652023000000000000006020830152613b888151809260208686019101612d79565b8101036019810185520183612723565b565b9081600052600560205260406000205461524657613bb782612a87565b60078110156152305760038114159081615224575b506151fa578160005260056020526001604060002055604051907f2bdfe0040000000000000000000000000000000000000000000000000000000082526020826004816001600160a01b037f0000000000000000000000000000000000000000000000000000000000000000165afa918215614296576000926151d9575b507f0000000000000000000000000000000000000000000000000000000000000000600060405180947f69e11cc5000000000000000000000000000000000000000000000000000000008252816001600160a01b0381613ce07f00000000000000000000000000000000000000000000000000000000000000008b89600485016040919493926060820195825260208201520152565b0392165afa928315614296576000936150ba575b50825115614fde575b508260005260016020526001600160a01b0360406000205416604051916331070bc960e21b83526020836004816001600160a01b037f0000000000000000000000000000000000000000000000000000000000000000165afa92831561429657600093614fbd575b50604051630862026560e41b8152600481018690526001600160a01b038316602482015294602086806044810103816001600160a01b0388165afa95861561429657600096614f9c575b50604051957f975057e70000000000000000000000000000000000000000000000000000000087526020876004816001600160a01b0385165afa96871561429657600097614f7b575b506040517efdd58e0000000000000000000000000000000000000000000000000000000081526001600160a01b03828116600483015260248201849052909760209189916044918391165afa96871561429657600097614f47575b50604051957f313ce5670000000000000000000000000000000000000000000000000000000087526020876004816001600160a01b0386165afa96871561429657600097614f13575b50604051631982d67960e01b81528560048201526020816024816001600160a01b0387165afa90811561429657600091614ee1575b50602089613ede86615a27565b92613f30603660405180967f536574746c696e67204465666966612067616d6520230000000000000000000087830152613f2081518092898686019101612d79565b8101036016810187520185612723565b613fb8604051613f3f81612707565b60008152613fa660405196879586957fa02f801c0000000000000000000000000000000000000000000000000000000087528c600488015281602488015260448701528d606487015260848601523060a486015261010060c4860152610104850190612d9c565b906003198483030160e4850152612d9c565b038160006001600160a01b0388165af190811561429657600091614eaf575b509360005b825181101561495657613fef8184612c7a565b51613ffe60408201518c615b9b565b806140c9575b610140600193927ff44ffe151def7bd57d653ffdd625b5cfff3e6992ad5b8eb1f021cdaca659954492614086604051809360c0908051151583526020810151151560208401526040810151604084015260608101516060840152816001600160a01b039182608082015116608086015260a081015160a0860152015116910152565b60e08201526001600160a01b037f00000000000000000000000000000000000000000000000000000000000000001661010082015233610120820152a101613fdc565b60c082015190979291906001600160a01b0316156142fb576040519263b7bad1b160e01b84528960048501526020846024816001600160a01b038b165afa938415614296576000946142c7575b506040519361412485612649565b8a85528960208601526040850152876060850152600060808501528160a085015261eeee8a036142aa575b61eeee8a036142a25788935b6001600160a01b0360c08401511694853b156105375761018460009260a09261423998604051998a9586947f9d740bfa0000000000000000000000000000000000000000000000000000000086526001600160a01b03815116600487015260208101516024870152604081015160448701526060810151606487015260808101516084870152015160a485019060c0908051151583526020810151151560208401526040810151604084015260608101516060840152816001600160a01b039182608082015116608086015260a081015160a0860152015116910152565b5af19182156142965761427b8a610140936001977ff44ffe151def7bd57d653ffdd625b5cfff3e6992ad5b8eb1f021cdaca659954496614287575b505b612c4a565b99925092935050614004565b6142909061269d565b38614274565b6040513d6000823e3d90fd5b60009361415b565b6142c2896001600160a01b0360c0850151168c6156ff565b61414f565b9093506020813d6020116142f3575b816142e360209383612723565b8101031261053757519238614116565b3d91506142d6565b6060810180519193911561472a576020840151156143ec57519060405163b7bad1b160e01b81528a60048201526020816024816001600160a01b038c165afa928315614296578a938c8b8f946000936143ac575b506001989461427b9488947ff44ffe151def7bd57d653ffdd625b5cfff3e6992ad5b8eb1f021cdaca659954499610140999561439561439061427697615a27565b613b44565b93604051956143a387612707565b60008752615391565b98945050505092506020853d6020116143e4575b816143cd60209383612723565b8101031261053757935189928c918c8b600161434f565b3d91506143c0565b9290925160405163b7bad1b160e01b81528a60048201526020816024816001600160a01b038c165afa918215614296578b916000936146f3575b5060808401516001600160a01b03168d8b82156146c2576001600160a01b0392955b60206144a261445d6143908b51151595615a27565b946040519861446b8a612707565b60008a52604051978880948193630862026560e41b83528c600484019092916001600160a01b036020916040840195845216910152565b0392165afa938415614296576000946146a1575b506001600160a01b03841615614677578f6040519063b7bad1b160e01b825260048201526020816024816001600160a01b0389165afa90811561429657600091614645575b500361461b576001600160a01b038f948f93602097613fa661458f9261eeee8a03614609575b61eeee8a036146015787965b866040519d8e9c8d9b8c997f1ebc263f000000000000000000000000000000000000000000000000000000008b5260048b015260248a015260448901521660648701526000608487015260a486015261010060c4860152610104850190612d9c565b0393165af19081156142965789916145d4575b507ff44ffe151def7bd57d653ffdd625b5cfff3e6992ad5b8eb1f021cdaca65995449161427b61014092600196612c4a565b60208092503d83116145fa575b6145eb8183612723565b810103126105375787386145a2565b503d6145e1565b60009661452d565b61461688878b168c6156ff565b614521565b60046040517fb9725924000000000000000000000000000000000000000000000000000000008152fd5b90506020813d60201161466f575b8161466060209383612723565b810103126105375751386144fb565b3d9150614653565b60046040517ffba10dd6000000000000000000000000000000000000000000000000000000008152fd5b6146bb91945060203d6020116105d5576105c68183612723565b92386144b6565b6001600160a01b0392507f000000000000000000000000000000000000000000000000000000000000000095614448565b915091506020813d602011614722575b8161471060209383612723565b81010312610537578a90519138614426565b3d9150614703565b5091878961eeee810361488457505060808101516001600160a01b03168015614854575b88471061481057600080808b6001600160a01b038295165af161476f61595b565b50156147a6576101407ff44ffe151def7bd57d653ffdd625b5cfff3e6992ad5b8eb1f021cdaca65995449161427b8a600196612c4a565b608460405162461bcd60e51b815260206004820152603a60248201527f416464726573733a20756e61626c6520746f2073656e642076616c75652c207260448201527f6563697069656e74206d617920686176652072657665727465640000000000006064820152fd5b606460405162461bcd60e51b815260206004820152601d60248201527f416464726573733a20696e73756666696369656e742062616c616e63650000006044820152fd5b506001600160a01b037f00000000000000000000000000000000000000000000000000000000000000001661474e565b9161427b82600196614276610140957ff44ffe151def7bd57d653ffdd625b5cfff3e6992ad5b8eb1f021cdaca6599544976001600160a01b0360808801511680151560001461492c57614927905b6040517fa9059cbb0000000000000000000000000000000000000000000000000000000060208201526001600160a01b039091166024820152604481019390935282606481015b03601f198101845283612723565b61585b565b506149277f00000000000000000000000000000000000000000000000000000000000000006148d2565b50979590509591959390929384614de8575b50505050604051638776c49960e01b81528360048201526103a09081816024816001600160a01b037f0000000000000000000000000000000000000000000000000000000000000000165afa9081156142965761020092600092614dc9575b50500191600460206001600160a01b03855116604051928380927f3b2b8a780000000000000000000000000000000000000000000000000000000082525afa801561429657600491600091614daa575b5060206001600160a01b03865116604051938480927fc96073970000000000000000000000000000000000000000000000000000000082525afa91821561429657600092614d80575b506001600160a01b0316604051917f70a082310000000000000000000000000000000000000000000000000000000092838152306004820152602081602481865afa90811561429657600091614d4e575b50614c45575b6001600160a01b0391501693604051828152306004820152602081602481895afa90811561429657600091614c13575b50614b0a575b5050614af99250612c4a565b906000526005602052604060002055565b516040519182523060048301526001600160a01b0316602082602481885afa91821561429657600092614bdd575b506040517f23b872dd0000000000000000000000000000000000000000000000000000000081523360048201526001600160a01b039091166024820152604481019190915292602090849081600081606481015b03925af1801561429657614ba2575b8280614aed565b6020833d602011614bd5575b81614bbb60209383612723565b8101031261053757614bcf614af9936128b3565b50614b9b565b3d9150614bae565b91506020823d602011614c0b575b81614bf860209383612723565b8101031261053757905190614b8c614b38565b3d9150614beb565b90506020813d602011614c3d575b81614c2e60209383612723565b81010312610537575138614ae7565b3d9150614c21565b6001600160a01b0386511660405190848252306004830152602082602481875afa91821561429657600092614d18575b506040517f23b872dd0000000000000000000000000000000000000000000000000000000081523360048201526001600160a01b039091166024820152604481019190915291602090839081600081606481015b03925af180156142965715614ab7576020823d602011614d10575b81614cf160209383612723565b8101031261053757614d0a6001600160a01b03926128b3565b50614ab7565b3d9150614ce4565b91506020823d602011614d46575b81614d3360209383612723565b8101031261053757905190614cc9614c75565b3d9150614d26565b90506020813d602011614d78575b81614d6960209383612723565b81010312610537575138614ab1565b3d9150614d5c565b6001600160a01b03919250614da39060203d6020116105d5576105c68183612723565b9190614a60565b614dc3915060203d6020116105d5576105c68183612723565b38614a17565b614ddf9250803d10612c3857612c278183612723565b905038806149c7565b614e3b928560405193614dfa85612707565b600085528960405194614e0c86612617565b600886527f47616d6520706f740000000000000000000000000000000000000000000000006020870152615391565b6001600160a01b0381163b156105375760006001600160a01b036024829360405194859384927f89701db50000000000000000000000000000000000000000000000000000000084528a6004850152165af1801561429657614ea0575b808080614968565b614ea99061269d565b38614e98565b90506020813d602011614ed9575b81614eca60209383612723565b81010312610537575138613fd7565b3d9150614ebd565b90506020813d602011614f0b575b81614efc60209383612723565b81010312610537575138613ed1565b3d9150614eef565b9096506020813d602011614f3f575b81614f2f60209383612723565b8101031261053757519538613e9c565b3d9150614f22565b9096506020813d602011614f73575b81614f6360209383612723565b8101031261053757519538613e53565b3d9150614f56565b614f9591975060203d6020116105d5576105c68183612723565b9538613df8565b614fb691965060203d6020116105d5576105c68183612723565b9438613daf565b614fd791935060203d6020116105d5576105c68183612723565b9138613d65565b6040519250614fec83612617565b6001835260005b60208110615072575082600454801561505c57615055926040519161501783612665565b6001835260006020840152633b9aca000460408301526060820152306080820152600060a0820152600060c082015261504f82612c57565b52612c57565b5038613cfd565b634e487b7160e01b600052601260045260246000fd5b60209060405161508181612665565b60008152600083820152600060408201526000606082015260006080820152600060a0820152600060c082015282828701015201614ff3565b9092503d806000833e6150cd8183612723565b8101906020818303126105375780519067ffffffffffffffff8211610537570181601f8201121561053757805190615104826127a9565b926151126040519485612723565b8284526020840190602060e08095028401019281841161053757602001915b8383106151445750505050509138613cf4565b8483830312610537576040519061515a82612665565b615163846128b3565b8252615171602085016128b3565b60208301526040840151604083015260608085015190830152608080850151906001600160a01b03821682036105375783015260a0808501519083015260c09081850151926001600160a01b0384168403610537578793602093820152815201920191615131565b6151f391925060203d6020116105d5576105c68183612723565b9038613c4a565b60046040517f66954d0b000000000000000000000000000000000000000000000000000000008152fd5b60049150141538613bcc565b634e487b7160e01b600052602160045260246000fd5b9050565b65ffffffffffff918216908216039190821161280a57565b90815180825260208080930193019160005b828110615282575050505090565b835180516001600160a01b03908116875281840151168684015260408082015190870152606080820151908701526080808201519087015260a0908101519086015260c09094019392810192600101615274565b906040810151604051927fa40bb9c7000000000000000000000000000000000000000000000000000000008452600484015260248301526103a09182816044816001600160a01b037f0000000000000000000000000000000000000000000000000000000000000000165afa92831561429657600093615371575b5050519051906001820180921161280a570361536c57600090565b600190565b615388929350803d10612c3857612c278183612723565b50903880615351565b919394909295604095865192630862026560e41b84526020916004948381806153d38c8c8b84019092916001600160a01b036020916040840195845216910152565b03816001600160a01b03809b165afa90811561377757908791600091615665575b501695861561563d5789519863b7bad1b160e01b8a521697888682015283816024818a5afa90811561377757600091615610575b50036155e85761eeee871480156155d8575b600090156155d2575088925b88517f01ffc9a70000000000000000000000000000000000000000000000000000000081527fc715967a0000000000000000000000000000000000000000000000000000000093848783015280826024818b5afa9081156155c757600091615593575b5015905061552057853b15610537576154f2615504926000998b519c8d9a8b998a988952880152602487015260448601526001606486015260c0608486015260c4850190612d9c565b906003198483030160a4850152612d9c565b03925af1908115612bb457506155175750565b613b989061269d565b969895939150843b1561053757600096615581615504928a519b8c998a9889977f0cf8e8580000000000000000000000000000000000000000000000000000000089528801526024870152604486015260a0606486015260a4850190612d9c565b90600319848303016084850152612d9c565b82813d83116155c0575b6155a78183612723565b8101031261015b57506155b9906128b3565b80386154a9565b503d61559d565b8b513d6000823e3d90fd5b92615446565b6155e38a878a6156ff565b61543a565b8388517fb9725924000000000000000000000000000000000000000000000000000000008152fd5b908482813d8311615636575b6156268183612723565b8101031261015b57505138615428565b503d61561c565b858a517ffba10dd6000000000000000000000000000000000000000000000000000000008152fd5b61567c9150853d87116105d5576105c68183612723565b386153f4565b90600091805161569e575b6020015161569757565b9060021790565b6001925061568d565b6001600160a01b036000541633036156bb57565b606460405162461bcd60e51b815260206004820152602060248201527f4f776e61626c653a2063616c6c6572206973206e6f7420746865206f776e65726044820152fd5b919091811580156157cd575b15615763576040517f095ea7b30000000000000000000000000000000000000000000000000000000060208201526001600160a01b0390931660248401526044830191909152613b9891906149278260648101614919565b608460405162461bcd60e51b815260206004820152603660248201527f5361666545524332303a20617070726f76652066726f6d206e6f6e2d7a65726f60448201527f20746f206e6f6e2d7a65726f20616c6c6f77616e6365000000000000000000006064820152fd5b506040517fdd62ed3e0000000000000000000000000000000000000000000000000000000081523060048201526020816044816001600160a01b03808916602483015286165afa9081156142965760009161582a575b501561570b565b906020823d8211615853575b8161584360209383612723565b8101031261015b57505138615823565b3d9150615836565b6040516158b9916001600160a01b031661587482612617565b6000806020958685527f5361666545524332303a206c6f772d6c6576656c2063616c6c206661696c656487860152868151910182855af16158b361595b565b9161598b565b805182811591821561593c575b50509050156158d25750565b6084906040519062461bcd60e51b82526004820152602a60248201527f5361666545524332303a204552433230206f7065726174696f6e20646964206e60448201527f6f742073756363656564000000000000000000000000000000000000000000006064820152fd5b8380929350010312610537578161595391016128b3565b8082386158c6565b3d15615986573d9061596c82612746565b9161597a6040519384612723565b82523d6000602084013e565b606090565b919290156159ec575081511561599f575090565b3b156159a85790565b606460405162461bcd60e51b815260206004820152601d60248201527f416464726573733a2063616c6c20746f206e6f6e2d636f6e74726163740000006044820152fd5b8251909150156159ff5750805190602001fd5b615a239060405191829162461bcd60e51b8352602060048401526024830190612d9c565b0390fd5b806000917a184f03e93ff9f4daa797ed6e38ed64bf6a1f01000000000000000080821015615b8d575b506d04ee2d6d415b85acef810000000080831015615b7e575b50662386f26fc1000080831015615b6f575b506305f5e10080831015615b60575b5061271080831015615b51575b506064821015615b41575b600a80921015615b37575b60019081602181860195601f19615adc615ac689612746565b98615ad46040519a8b612723565b808a52612746565b01366020890137860101905b615af4575b5050505090565b600019849101917f30313233343536373839616263646566000000000000000000000000000000008282061a835304918215615b3257919082615ae8565b615aed565b9160010191615aad565b9190606460029104910191615aa2565b60049193920491019138615a97565b60089193920491019138615a8a565b60109193920491019138615a7b565b60209193920491019138615a69565b604093508104915038615a50565b919060001981840981840291828083109203918083039214615c3357633b9aca009081831015615bfc577f88f2cfb83100cb4e69e7c79c58b316e597157d372fb9787e8e47ce423a2e9c6d94950990828211900360f71b910360091c170290565b60448383604051917f773cc18c00000000000000000000000000000000000000000000000000000000835260048301526024820152fd5b5050633b9aca009004915056fea26469706673582212204f40fc137bc3df1f2beec0055e32ecb48fbb7c1b83e06b507a1ea179e9b774ee64736f6c63430008140033",
    "linkReferences": {}
  },
  "methodIdentifiers": {
    "controller()": "f77c4791",
    "currentGamePhaseOf(uint256)": "0715610a",
    "currentGamePotOf(uint256,bool)": "b4dfb086",
    "defifaProjectId()": "0134a03d",
    "delegateCodeOrigin()": "06b552b5",
    "delegatesRegistry()": "d574ff04",
    "feeDivisor()": "9a36f932",
    "fulfillCommitmentsOf(uint256)": "b6674cde",
    "fulfilledCommitmentsOf(uint256)": "f2ae5f6e",
    "governor()": "0c340a24",
    "launchGameWith((string,(string,uint256),string,string,(string,uint80,uint16,address,bytes32,bool)[],address,uint24,uint24,uint48,(bool,bool,uint256,uint256,address,uint256,address)[],uint256,uint256,address,address,address,address))": "29045728",
    "nextPhaseNeedsQueueing(uint256)": "81312a14",
    "onERC721Received(address,address,uint256,bytes)": "150b7a02",
    "owner()": "8da5cb5b",
    "protocolFeeProjectTokenAccount()": "3f3090d9",
    "queueNextPhaseOf(uint256)": "1c069dbb",
    "renounceOwnership()": "715018a6",
    "splitGroup()": "859bb4b2",
    "timesFor(uint256)": "b07925d3",
    "tokenOf(uint256)": "ea78803f",
    "tokenUriResolver()": "e131fc0c",
    "transferOwnership(address)": "f2fde38b"
  },
  "id": 1
}