{
  "abi": [
    {
      "inputs": [
        {
          "internalType": "address",
          "name": "_delegateCodeOrigin",
          "type": "address"
        },
        {
          "internalType": "address",
          "name": "_governorCodeOrigin",
          "type": "address"
        },
        {
          "internalType": "address",
          "name": "_tokenUriResolverCodeOrigin",
          "type": "address"
        },
        {
          "internalType": "contract IJBController3_1",
          "name": "_controller",
          "type": "address"
        },
        {
          "internalType": "address",
          "name": "_protocolFeeProjectTokenAccount",
          "type": "address"
        },
        {
          "internalType": "contract IJBDelegatesRegistry",
          "name": "_delegatesRegistry",
          "type": "address"
        }
      ],
      "stateMutability": "nonpayable",
      "type": "constructor"
    },
    {
      "inputs": [],
      "name": "GAME_OVER",
      "type": "error"
    },
    {
      "inputs": [],
      "name": "INVALID_GAME_CONFIGURATION",
      "type": "error"
    },
    {
      "inputs": [],
      "name": "PHASE_ALREADY_QUEUED",
      "type": "error"
    },
    {
      "inputs": [],
      "name": "UNEXPECTED_TERMINAL_CURRENCY",
      "type": "error"
    },
    {
      "inputs": [],
      "name": "BALLKIDZ_PROJECT_ID",
      "outputs": [
        {
          "internalType": "uint256",
          "name": "",
          "type": "uint256"
        }
      ],
      "stateMutability": "view",
      "type": "function"
    },
    {
      "inputs": [],
      "name": "SPLIT_DOMAIN",
      "outputs": [
        {
          "internalType": "uint256",
          "name": "",
          "type": "uint256"
        }
      ],
      "stateMutability": "view",
      "type": "function"
    },
    {
      "inputs": [],
      "name": "claimProtocolProjectToken",
      "outputs": [],
      "stateMutability": "nonpayable",
      "type": "function"
    },
    {
      "inputs": [],
      "name": "controller",
      "outputs": [
        {
          "internalType": "contract IJBController3_1",
          "name": "",
          "type": "address"
        }
      ],
      "stateMutability": "view",
      "type": "function"
    },
    {
      "inputs": [
        {
          "internalType": "uint256",
          "name": "_gameId",
          "type": "uint256"
        }
      ],
      "name": "currentGamePhaseOf",
      "outputs": [
        {
          "internalType": "uint256",
          "name": "",
          "type": "uint256"
        }
      ],
      "stateMutability": "view",
      "type": "function"
    },
    {
      "inputs": [],
      "name": "delegateCodeOrigin",
      "outputs": [
        {
          "internalType": "address",
          "name": "",
          "type": "address"
        }
      ],
      "stateMutability": "view",
      "type": "function"
    },
    {
      "inputs": [],
      "name": "delegatesRegistry",
      "outputs": [
        {
          "internalType": "contract IJBDelegatesRegistry",
          "name": "",
          "type": "address"
        }
      ],
      "stateMutability": "view",
      "type": "function"
    },
    {
      "inputs": [
        {
          "internalType": "uint256",
          "name": "_gameId",
          "type": "uint256"
        }
      ],
      "name": "distributionLimit",
      "outputs": [
        {
          "internalType": "uint256",
          "name": "",
          "type": "uint256"
        }
      ],
      "stateMutability": "view",
      "type": "function"
    },
    {
      "inputs": [
        {
          "internalType": "uint256",
          "name": "_gameId",
          "type": "uint256"
        }
      ],
      "name": "endOf",
      "outputs": [
        {
          "internalType": "uint256",
          "name": "",
          "type": "uint256"
        }
      ],
      "stateMutability": "view",
      "type": "function"
    },
    {
      "inputs": [],
      "name": "governorCodeOrigin",
      "outputs": [
        {
          "internalType": "address",
          "name": "",
          "type": "address"
        }
      ],
      "stateMutability": "view",
      "type": "function"
    },
    {
      "inputs": [
        {
          "components": [
            {
              "internalType": "string",
              "name": "name",
              "type": "string"
            },
            {
              "components": [
                {
                  "internalType": "string",
                  "name": "content",
                  "type": "string"
                },
                {
                  "internalType": "uint256",
                  "name": "domain",
                  "type": "uint256"
                }
              ],
              "internalType": "struct JBProjectMetadata",
              "name": "projectMetadata",
              "type": "tuple"
            },
            {
              "internalType": "string",
              "name": "contractUri",
              "type": "string"
            },
            {
              "internalType": "string",
              "name": "baseUri",
              "type": "string"
            },
            {
              "components": [
                {
                  "internalType": "uint80",
                  "name": "price",
                  "type": "uint80"
                },
                {
                  "internalType": "uint16",
                  "name": "reservedRate",
                  "type": "uint16"
                },
                {
                  "internalType": "address",
                  "name": "reservedTokenBeneficiary",
                  "type": "address"
                },
                {
                  "internalType": "uint8",
                  "name": "royaltyRate",
                  "type": "uint8"
                },
                {
                  "internalType": "address",
                  "name": "royaltyBeneficiary",
                  "type": "address"
                },
                {
                  "internalType": "bytes32",
                  "name": "encodedIPFSUri",
                  "type": "bytes32"
                },
                {
                  "internalType": "bool",
                  "name": "shouldUseReservedTokenBeneficiaryAsDefault",
                  "type": "bool"
                },
                {
                  "internalType": "string",
                  "name": "name",
                  "type": "string"
                }
              ],
              "internalType": "struct DefifaTierParams[]",
              "name": "tiers",
              "type": "tuple[]"
            },
            {
              "internalType": "address",
              "name": "token",
              "type": "address"
            },
            {
              "internalType": "uint48",
              "name": "mintDuration",
              "type": "uint48"
            },
            {
              "internalType": "uint48",
              "name": "refundPeriodDuration",
              "type": "uint48"
            },
            {
              "internalType": "uint48",
              "name": "start",
              "type": "uint48"
            },
            {
              "internalType": "uint48",
              "name": "end",
              "type": "uint48"
            },
            {
              "components": [
                {
                  "internalType": "bool",
                  "name": "preferClaimed",
                  "type": "bool"
                },
                {
                  "internalType": "bool",
                  "name": "preferAddToBalance",
                  "type": "bool"
                },
                {
                  "internalType": "uint256",
                  "name": "percent",
                  "type": "uint256"
                },
                {
                  "internalType": "uint256",
                  "name": "projectId",
                  "type": "uint256"
                },
                {
                  "internalType": "address payable",
                  "name": "beneficiary",
                  "type": "address"
                },
                {
                  "internalType": "uint256",
                  "name": "lockedUntil",
                  "type": "uint256"
                },
                {
                  "internalType": "contract IJBSplitAllocator",
                  "name": "allocator",
                  "type": "address"
                }
              ],
              "internalType": "struct JBSplit[]",
              "name": "splits",
              "type": "tuple[]"
            },
            {
              "internalType": "uint88",
              "name": "distributionLimit",
              "type": "uint88"
            },
            {
              "internalType": "address payable",
              "name": "ballkidzFeeProjectTokenAccount",
              "type": "address"
            },
            {
              "internalType": "uint256",
              "name": "votingPeriod",
              "type": "uint256"
            },
            {
              "internalType": "contract IJBTokenUriResolver",
              "name": "defaultTokenUriResolver",
              "type": "address"
            },
            {
              "internalType": "contract IJBPaymentTerminal",
              "name": "terminal",
              "type": "address"
            },
            {
              "internalType": "contract IJBTiered721DelegateStore",
              "name": "store",
              "type": "address"
            }
          ],
          "internalType": "struct DefifaLaunchProjectData",
          "name": "_launchProjectData",
          "type": "tuple"
        }
      ],
      "name": "launchGameWith",
      "outputs": [
        {
          "internalType": "uint256",
          "name": "gameId",
          "type": "uint256"
        },
        {
          "internalType": "contract IDefifaGovernor",
          "name": "governor",
          "type": "address"
        }
      ],
      "stateMutability": "nonpayable",
      "type": "function"
    },
    {
      "inputs": [
        {
          "internalType": "uint256",
          "name": "_gameId",
          "type": "uint256"
        }
      ],
      "name": "mintDurationOf",
      "outputs": [
        {
          "internalType": "uint256",
          "name": "",
          "type": "uint256"
        }
      ],
      "stateMutability": "view",
      "type": "function"
    },
    {
      "inputs": [
        {
          "internalType": "uint256",
          "name": "_gameId",
          "type": "uint256"
        }
      ],
      "name": "nextPhaseNeedsQueueing",
      "outputs": [
        {
          "internalType": "bool",
          "name": "",
          "type": "bool"
        }
      ],
      "stateMutability": "view",
      "type": "function"
    },
    {
      "inputs": [
        {
          "internalType": "address",
          "name": "",
          "type": "address"
        },
        {
          "internalType": "address",
          "name": "",
          "type": "address"
        },
        {
          "internalType": "uint256",
          "name": "",
          "type": "uint256"
        },
        {
          "internalType": "bytes",
          "name": "",
          "type": "bytes"
        }
      ],
      "name": "onERC721Received",
      "outputs": [
        {
          "internalType": "bytes4",
          "name": "",
          "type": "bytes4"
        }
      ],
      "stateMutability": "pure",
      "type": "function"
    },
    {
      "inputs": [],
      "name": "protocolFeeProjectTokenAccount",
      "outputs": [
        {
          "internalType": "address",
          "name": "",
          "type": "address"
        }
      ],
      "stateMutability": "view",
      "type": "function"
    },
    {
      "inputs": [
        {
          "internalType": "uint256",
          "name": "_gameId",
          "type": "uint256"
        }
      ],
      "name": "queueNextPhaseOf",
      "outputs": [
        {
          "internalType": "uint256",
          "name": "configuration",
          "type": "uint256"
        }
      ],
      "stateMutability": "nonpayable",
      "type": "function"
    },
    {
      "inputs": [
        {
          "internalType": "uint256",
          "name": "_gameId",
          "type": "uint256"
        }
      ],
      "name": "refundPeriodDurationOf",
      "outputs": [
        {
          "internalType": "uint256",
          "name": "",
          "type": "uint256"
        }
      ],
      "stateMutability": "view",
      "type": "function"
    },
    {
      "inputs": [
        {
          "internalType": "uint256",
          "name": "_gameId",
          "type": "uint256"
        }
      ],
      "name": "startOf",
      "outputs": [
        {
          "internalType": "uint256",
          "name": "",
          "type": "uint256"
        }
      ],
      "stateMutability": "view",
      "type": "function"
    },
    {
      "inputs": [
        {
          "internalType": "uint256",
          "name": "_gameId",
          "type": "uint256"
        }
      ],
      "name": "terminalOf",
      "outputs": [
        {
          "internalType": "contract IJBPaymentTerminal",
          "name": "",
          "type": "address"
        }
      ],
      "stateMutability": "view",
      "type": "function"
    },
    {
      "inputs": [
        {
          "internalType": "uint256",
          "name": "_gameId",
          "type": "uint256"
        }
      ],
      "name": "timesFor",
      "outputs": [
        {
          "components": [
            {
              "internalType": "uint48",
              "name": "mintDuration",
              "type": "uint48"
            },
            {
              "internalType": "uint48",
              "name": "refundPeriodDuration",
              "type": "uint48"
            },
            {
              "internalType": "uint48",
              "name": "start",
              "type": "uint48"
            },
            {
              "internalType": "uint48",
              "name": "end",
              "type": "uint48"
            }
          ],
          "internalType": "struct DefifaTimeData",
          "name": "",
          "type": "tuple"
        }
      ],
      "stateMutability": "view",
      "type": "function"
    },
    {
      "inputs": [],
      "name": "tokenUriResolverCodeOrigin",
      "outputs": [
        {
          "internalType": "address",
          "name": "",
          "type": "address"
        }
      ],
      "stateMutability": "view",
      "type": "function"
    }
  ],
  "bytecode": {
    "object": "0x610140346200017957601f62003e1a38819003918201601f19168301916001600160401b038311848410176200017e5780849260c09460405283398101031262000179576200004e8162000194565b6200005c6020830162000194565b6200006a6040840162000194565b60608401516001600160a01b03939092908484168403620001795760a0620000956080880162000194565b96015194851685036200017957600160025560805260a05260c05260e05261010091825261012090815260405190613c709283620001aa8439608051838181610ff00152612792015260a0518381816101270152611865015260c05183818161077d0152611df4015260e05183818161018a0152818161020f0152818161056901528181610bdd01528181611074015281816112200152818161182a015281816120f60152818161269101528181612e7701528181612ef20152818161327b015261345601525182818161032a01526125150152518181816101ce01526119450152f35b600080fd5b634e487b7160e01b600052604160045260246000fd5b51906001600160a01b0382168203620001795756fe608080604052600436101561001357600080fd5b600090813560e01c9081630589d292146127b65750806306b552b5146127725780630715610a1461265f5780631109fff21461262b578063150b7a021461259c5780631c069dbb1461257557806327655cfd146125395780633f3090d9146124f5578063492f1ef2146107d45780634fe0eced146107a157806380f079541461075d57806381312a141461053c578063af9fbd191461051f578063b07925d314610481578063b41e7f471461044d578063b965933e14610419578063ca449a25146101f2578063d574ff04146101ae578063f77c47911461016a578063ff16a2f21461014e5763ff2a43cc1461010857600080fd5b3461014b578060031936011261014b5760206040516001600160a01b037f0000000000000000000000000000000000000000000000000000000000000000168152f35b80fd5b503461014b578060031936011261014b57602090604051908152f35b503461014b578060031936011261014b5760206040516001600160a01b037f0000000000000000000000000000000000000000000000000000000000000000168152f35b503461014b578060031936011261014b5760206040516001600160a01b037f0000000000000000000000000000000000000000000000000000000000000000168152f35b503461014b578060031936011261014b57806001600160a01b03807f000000000000000000000000000000000000000000000000000000000000000016906040517f6193063000000000000000000000000000000000000000000000000000000000928382526020918281600481855afa90811561040e578391859188916103f1575b50169460046040518094819382525afa9081156103b9578391839187916103c4575b506044604051809481937f5287af3700000000000000000000000000000000000000000000000000000000835230600484015260016024840152165afa9182156103b9578592610383575b5050823b1561037e57608484928360405195869485937fac689bcd000000000000000000000000000000000000000000000000000000008552306004860152600160248601527f000000000000000000000000000000000000000000000000000000000000000016604485015260648401525af18015610373576103635750f35b61036c90612868565b61014b5780f35b6040513d84823e3d90fd5b505050fd5b8195508092503d83116103b2575b61039b81836128ee565b810103126103ad5783925138806102e2565b600080fd5b503d610391565b6040513d87823e3d90fd5b6103e49150823d84116103ea575b6103dc81836128ee565b8101906129ac565b38610297565b503d6103d2565b6104089150833d85116103ea576103dc81836128ee565b38610275565b6040513d88823e3d90fd5b503461014b57602060031936011261014b5765ffffffffffff60406020926004358152808452205460901c16604051908152f35b503461014b57602060031936011261014b5765ffffffffffff60406020926004358152808452205460601c16604051908152f35b503461014b57602060031936011261014b57604081608092606083516104a681612830565b8281528260208201528285820152015260043581528060205220604051906104cd82612830565b5465ffffffffffff9081808216938481528160208201818560301c16815281606060408501948288831c168652019560901c168552604051968752511660208601525116604084015251166060820152f35b503461014b578060031936011261014b5760206040516101718152f35b503461014b576020908160031936011261014b5760405163557e715560e01b808252916001600160a01b037f0000000000000000000000000000000000000000000000000000000000000000811660048035908790869081855afa948515610752578495610731575b5082939495604051967f43a266c200000000000000000000000000000000000000000000000000000000885282600489015287602481610120988994165afa96871561040e5790889187986106f1575b5060046040518095819382525afa9182156103b9579084929186926106cf575b5060249060405194859384927f5c5500780000000000000000000000000000000000000000000000000000000084526004840152165afa9283156106c3578093610687575b505050826004835114159283610676575b506040518315158152f35b81015191015114905038828161066b565b90918093503d84116106bc575b61069e81846128ee565b8201928284031261014b5750906106b4916129cb565b38808061065a565b503d610694565b604051903d90823e3d90fd5b60249192506106ea90893d8b116103ea576103dc81836128ee565b9190610615565b91509650843d861161072a575b61070881836128ee565b810190858183031261072657889161071f916129cb565b96386105f5565b8680fd5b503d6106fe565b8394955061074b90883d8a116103ea576103dc81836128ee565b94936105a5565b6040513d86823e3d90fd5b503461014b578060031936011261014b5760206040516001600160a01b037f0000000000000000000000000000000000000000000000000000000000000000168152f35b503461014b57602060031936011261014b576001600160a01b036040602092600435815260018452205416604051908152f35b503461014b57602060031936011261014b5767ffffffffffffffff6004351161014b576102206003196004353603011261014b57604051610220810181811067ffffffffffffffff8211176124e1576040526004356004013567ffffffffffffffff8111611a0e5761084d90600436918135010161292d565b81526024600435013567ffffffffffffffff8111611a0e576004350160406003198236030112611a0e5760405190610884826127f8565b60048101359067ffffffffffffffff8211611afa576108ab6024926004369184010161292d565b83520135602082015260208201526044600435013567ffffffffffffffff8111611a0e576108e090600436918135010161292d565b60408201526064600435013567ffffffffffffffff8111611a0e5761090c90600436918135010161292d565b60608201526084600435013567ffffffffffffffff8111611a0e573660238260043501011215611a0e5760048181350101359061094882612974565b9161095660405193846128ee565b80835260208301913660248360051b8360043501010111611bfb576024816004350101925b60248360051b83600435010101841061235a575050505060808201526109a560a4600435016127e4565b60a08201526109b860c460043501612999565b60c08201526109cb60e460043501612999565b60e08201526109df61010460043501612999565b6101008201526109f461012460043501612999565b610120820152610144600435013567ffffffffffffffff8111611a0e573660238260043501011215611a0e57610a306004828135010135612974565b90610a3e60405192836128ee565b600480358201908101358084526020840192913660e09092020160240111611afa576024816004350101915b6004803583019081013560e0020160240183106122c85750505061014082015260043561016401356affffffffffffffffffffff81169003611a26576101646004350135610160820152610ac3610184600435016127e4565b6101808201526004356101a48101356101a08301526101c401356001600160a01b0381169003611a26576004356101c48101356101c08301526101e401356001600160a01b0381169003611a26576004356101e48101356101e083015261020401356001600160a01b0381169003611a2657610204600435013561020082015265ffffffffffff61010082015116156122b4575b610b91610b7e65ffffffffffff6101008401511665ffffffffffff60e08501511690612a5e565b65ffffffffffff60c08401511690612a5e565b65ffffffffffff429116108015612291575b612267576040517f8b79543c0000000000000000000000000000000000000000000000000000000081526020816004816001600160a01b037f0000000000000000000000000000000000000000000000000000000000000000165afa908115611a3e578391612222575b509060206001600160a01b03926004604051809581937f06661abd000000000000000000000000000000000000000000000000000000008352165afa918215611a3e5783926121ee575b506001820182116121da5765ffffffffffff60c08201511665ffffffffffff60e08301511665ffffffffffff6101008401511665ffffffffffff610120850151169060405193610ca685612830565b84526020840192835260408401908152606084019182526001860187528660205265ffffffffffff604088209451167fffffffffffffffff00000000000000000000000000000000000000000000000077ffffffffffff00000000000000000000000000000000000071ffffffffffff0000000000000000000000006bffffffffffff0000000000008854975160301b16945160601b16945160901b1694161717171790556001600160a01b036101e0820151166affffffffffffffffffffff610160830151166001600160a01b0360018160a0860151169360405190610d8c8261284c565b8152602081019485526040810193845281870188528160205282604089209151167fffffffffffffffffffffffff0000000000000000000000000000000000000000825416178155019251167fff000000000000000000000000000000000000000000000000000000000000007effffffffffffffffffffff00000000000000000000000000000000000000008454935160a01b169216171790556101408101515161201f575b608081015151610e4281612974565b90610e5060405192836128ee565b808252601f19610e5f82612974565b01855b818110611fae57505060808301515190610e94610e7e83612974565b92610e8c60405194856128ee565b808452612974565b865b601f1982018110611f985750506040518061010081011067ffffffffffffffff61010083011117611f825760e0816101006060930160405288815288602082015288604082015288838201528860808201528860a08201528860c08201520152855b818110611e905750506001600160a01b036101e08401511660206001600160a01b0360a0860151166024604051809481937f1982d67900000000000000000000000000000000000000000000000000000000835260048301525afa90811561040e578691611e5e575b506001600160a01b036101e0850151169060206001600160a01b0360a0870151166024604051809581937fb7bad1b100000000000000000000000000000000000000000000000000000000835260048301525afa918215611e53578792611e1f575b5060405193610fd185612830565b8452602084015260408301528460608301526001600160a01b036110147f0000000000000000000000000000000000000000000000000000000000000000613b86565b6101c0850151911692906001600160a01b031615611de7576001600160a01b036101c085015116905b604051907fc41c2f240000000000000000000000000000000000000000000000000000000082526020826004816001600160a01b037f0000000000000000000000000000000000000000000000000000000000000000165afa918215611ddc578892611d94575b50855188908160018a01807a184f03e93ff9f4daa797ed6e38ed64bf6a1f01000000000000000080821015611d83575b506d04ee2d6d415b85acef810000000080831015611d74575b50662386f26fc1000080831015611d65575b506305f5e10080831015611d56575b50612710821015611d45575b6064821015611d35575b600a80921015611d2b575b816000196021600188019761115c6111468a612911565b996111546040519b8c6128ee565b808b52612911565b96601f1960208b019801368937508801015b01917f30313233343536373839616263646566000000000000000000000000000000008282061a835304908d82156111ab5750600019839161116e565b9590506112039250602791506111f3936040519485927f4445464946412000000000000000000000000000000000000000000000000000602085015251809285850190612c02565b81010360078101845201826128ee565b60405163557e715560e01b81526020816004816001600160a01b037f0000000000000000000000000000000000000000000000000000000000000000165afa908115610752578491611d0c575b5060608a01519060408b0151926001600160a01b036102008d015116946040519661127a88612830565b8088528060208901526040880152600160608801528b3b15611d0857908d979695949392918f99604051997fd1704baf000000000000000000000000000000000000000000000000000000008b5260010160048b01526001600160a01b031660248a0152604489016101c090526101c489016112f591612c25565b8881036003190160648a015261130a91612c25565b906001600160a01b031660848801528681036003190160a488015261132e91612c25565b6001600160a01b03881660c48701528581036003190160e487015261135291612c25565b848103600319016101048601528351936080825260808201855180915260a083019560200190885b818110611c13575050508593849388969360606001600160a01b038186602082980151602086015260408101516040860152015116910152610124850152805115156101448501526020810151151561016485015260408101511515610184850152015115156101a4830152038183895af1801561037357611bff575b50506001600160a01b036101c08501511615611b06575b50506101e082015160a08301516040517fdf21a7dd0000000000000000000000000000000000000000000000000000000081526001600160a01b0391821660048201526001860160248201529160209183916044918391165afa9081156103b9578591611ac8575b5015611a9e578390602460405161148c816127f8565b60018152602036818301376001600160a01b036101e0860151166114af82612adc565b526117ba60208601516117a765ffffffffffff60c08901511691604051926114d684612830565b83528760208401528760408401528760608401526040516114f68161284c565b888152886020820152886040820152611523604051611514816127f8565b8a815260016020820152613b61565b6040519161153083612899565b8252896020830152612710604083015261271060608301528960808301528960a08301528960c08301528960e08301528961010083015289610120830152896101408301528961016083015289610180830152896101a083015260016101c083015260016101e08301528861020083015261022082015265ffffffffffff6115d78b8260e06115cd82610100850151168360c08601511690612a5e565b9201511690612a5e565b61178e604051936115e7856128d2565b60008552611685604051986115fb8a6128d2565b60008a526103e06040519d8e7fb3c5267300000000000000000000000000000000000000000000000000000000815230600482015201528c61040460206116508b5160406103e4860152610424850190612c25565b9a0151910152805160448e0152602081015160648e0152604081015160848e0152606001516001600160a01b031660a48d0152565b80518051151560c48d0152602080820151151560e48e015260409182015115156101048e01528201516101248d01528101516101448c015260608101516101648c0152608081015115156101848c015260a081015115156101a48c015260c081015115156101c48c015260e081015115156101e48c015261010081015115156102048c015261012081015115156102248c015261014081015115156102448c015261016081015115156102648c015261018081015115156102848c01526101a081015115156102a48c01526101c081015115156102c48c01526101e081015115156102e48c01526102008101516001600160a01b03166103048c015261022001516103248b0152565b1661034488015260031987830301610364880152612b13565b9060031985830301610384860152613aed565b600319838203016103a484015260208083519283815201920190855b818110611a7c57505050816040827f4465666966612067616d6520706861736520312e0000000000000000000000006020848196039260031984016103c48701526014815201520181866001600160a01b037f0000000000000000000000000000000000000000000000000000000000000000165af18015611a3e57611a4d575b506001600160a01b036118897f0000000000000000000000000000000000000000000000000000000000000000613b86565b16926101a065ffffffffffff61012083015116910151843b15611a4957604051917f7a1ac61e00000000000000000000000000000000000000000000000000000000835283600484015260248301526044820152828160648183885af1908115611a3e578391611a2a575b5050803b15611a26578180916024604051809481937ff2fde38b0000000000000000000000000000000000000000000000000000000083528860048401525af1801561037357611a12575b506002547f00000000000000000000000000000000000000000000000000000000000000006001600160a01b0316803b15611a0e576040517f5bcfd212000000000000000000000000000000000000000000000000000000008152306004820152602481019290925282908290604490829084905af18015610373576119fa575b5050600254600381018091116119e6576040935060025560018351920182526020820152f35b602484634e487b7160e01b81526011600452fd5b611a0390612868565b611a0e5782386119c0565b8280fd5b611a1b90612868565b611a0e57823861193f565b5080fd5b611a3390612868565b611a265781386118f4565b6040513d85823e3d90fd5b8380fd5b6020809293503d8311611a75575b611a6581836128ee565b810103126103ad57839038611857565b503d611a5b565b82516001600160a01b03168452899650602093840193909201916001016117d6565b60046040517f3727b396000000000000000000000000000000000000000000000000000000008152fd5b90506020813d602011611afe575b81611ae3602093836128ee565b81010312611afa57611af490612c4a565b38611476565b8480fd5b3d9150611ad6565b6001600160a01b0381163b15611bfb57908591604051917f94e6f56f000000000000000000000000000000000000000000000000000000008352604483018560048501526040602485015281518091526064840190602060648260051b87010193019186905b828210611baa5750505050839183836001600160a01b038280950393165af18015610373571561140e57611b9f90612868565b611a4957833861140e565b91938697506020611be9827fffffffffffffffffffffffffffffffffffffffffffffffffffffffffffffff9c60019597999a8495030186528851612c25565b9601920192018a969594939192611b6c565b8580fd5b611c0890612868565b611bfb5785386113f7565b91979850919293949560206101c06001926101a08b5169ffffffffffffffffffff815116835265ffffffffffff85820151168584015264ffffffffff604082015116604084015261ffff80606083015116606085015260808201511660808401526001600160a01b0360a08201511660a084015260ff8060c08301511660c08501526001600160a01b0360e08301511660e085015261010082015161010085015261012082015116610120840152610140810151151561014084015261016081015115156101608401526101808101511515610180840152015115156101a08201520198019101918e9897969594939261137a565b8e80fd5b611d25915060203d6020116103ea576103dc81836128ee565b38611250565b936001019361112f565b9390606460029104910193611124565b93906127106004910491019361111a565b6008919592049101933861110e565b601091959204910193386110ff565b602091959204910193386110ed565b6040955060018d01049150386110d4565b9091506020813d602011611dd4575b81611db0602093836128ee565b81010312611dd057516001600160a01b0381168103611dd05790386110a4565b8780fd5b3d9150611da3565b6040513d8a823e3d90fd5b6001600160a01b03611e187f0000000000000000000000000000000000000000000000000000000000000000613b86565b169061103d565b9091506020813d602011611e4b575b81611e3b602093836128ee565b810103126103ad57519038610fc3565b3d9150611e2e565b6040513d89823e3d90fd5b90506020813d602011611e88575b81611e79602093836128ee565b810103126103ad575138610f61565b3d9150611e6c565b8060e0611ea36001936080890151612aff565b5169ffffffffffffffffffff8151168a61ffff6020840151166001600160a01b0360408501511660ff6060860151166001600160a01b036080870151169160a08701519360c088015115159560405197611efc8961287c565b88526020880152633b9ac9ff60408801528a6060880152608087015260a086015260c085015285840152610100830152856101208301528b6101408301526101608201528a6101808201528a6101a0820152611f588489612aff565b52611f638388612aff565b500151611f708286612aff565b52611f7b8185612aff565b5001610ef8565b634e487b7160e01b600052604160045260246000fd5b602081606082601f199488010152019050610e96565b602090604051611fbd8161287c565b88815288838201528860408201528860608201528860808201528860a08201528860c08201528860e08201528861010082015288610120820152886101408201528861016082015288610180820152886101a082015282828701015201610e62565b612027612a8c565b61208b6001600160a01b03610180840151166040519061204682612814565b8682528660208301526302faf0806040830152610171606083015260808201528560a08201528560c08201526101408401518051916120858383612aff565b52612aff565b506101408201516040519061209f826127f8565b60018501825260208201526120b382612adc565b526120bd81612adc565b5083604051917f2bdfe0040000000000000000000000000000000000000000000000000000000083526020836004816001600160a01b037f0000000000000000000000000000000000000000000000000000000000000000165afa9283156103735782936121b9575b506001600160a01b0383163b15611a26576001600160a01b039261219091836040519586809581947ff2da44b60000000000000000000000000000000000000000000000000000000083526101716004840152846024840152606060448401526064830190612b13565b0393165af18015610752576121a6575b50610e33565b6121b290939193612868565b91386121a0565b6121d391935060203d6020116103ea576103dc81836128ee565b9138612126565b602483634e487b7160e01b81526011600452fd5b9091506020813d60201161221a575b8161220a602093836128ee565b81010312611a0e57519038610c57565b3d91506121fd565b90506020813d60201161225f575b8161223d602093836128ee565b81010312611a0e5751906001600160a01b0382168203611a0e57906020610c0d565b3d9150612230565b60046040517f74f88142000000000000000000000000000000000000000000000000000000008152fd5b5065ffffffffffff6101208201511665ffffffffffff6101008301511611610ba3565b65ffffffffffff4216610100820152610b57565b60e083360312611bfb57604051906122df82612814565b6122e88461298c565b82526122f66020850161298c565b6020830152604084013560408301526060840135606083015261231b608085016127e4565b608083015260a0848101359083015260c08401356001600160a01b03811690036107265760c0848101359083015290815260e090920191602001610a6a565b833567ffffffffffffffff8111611dd0576101007fffffffffffffffffffffffffffffffffffffffffffffffffffffffffffffffdc8285600435010136030112611dd057604051908161010081011067ffffffffffffffff610100840111176124cd576101008201604052600435840181016024013569ffffffffffffffffffff811690036124c95760043584018101602481013583526044013561ffff811690036124c957600435840181016044810135602084015261241d906064016127e4565b6040830152600435840181016084013560ff811690036124c95760043584018101608481013560608401526124549060a4016127e4565b60808301526004358401810160c481013560a08401526124769060e40161298c565b60c083015267ffffffffffffffff610104828660043501010135116124c95760249260209283926124b790369060043589010161010481013501870161292d565b60e0820152815201940193905061097b565b8880fd5b602489634e487b7160e01b81526041600452fd5b602483634e487b7160e01b81526041600452fd5b503461014b578060031936011261014b5760206040516001600160a01b037f0000000000000000000000000000000000000000000000000000000000000000168152f35b503461014b57602060031936011261014b576affffffffffffffffffffff60016040602093600435815282855220015460a01c16604051908152f35b503461014b57602060031936011261014b576020612594600435612e3a565b604051908152f35b503461014b57608060031936011261014b576001600160a01b0360043581811603611a26576024359081160361014b5760643567ffffffffffffffff808211611a0e5736602383011215611a0e578160040135908111611a0e573691016024011161014b5760206040517f150b7a02000000000000000000000000000000000000000000000000000000008152f35b503461014b57602060031936011261014b5765ffffffffffff60406020926004358152808452205460301c16604051908152f35b503461014b57602060031936011261014b576040519063557e715560e01b82526001600160a01b0391602081600481867f0000000000000000000000000000000000000000000000000000000000000000165afa908115610373578291612754575b50604051907f43a266c2000000000000000000000000000000000000000000000000000000008252600435600483015281602481610120968794165afa9182156106c3578092612718575b60208351604051908152f35b909150823d841161274d575b61272e81846128ee565b8201928284031261014b5750602091612746916129cb565b388061270c565b503d612724565b61276c915060203d81116103ea576103dc81836128ee565b386126c1565b503461014b578060031936011261014b5760206040516001600160a01b037f0000000000000000000000000000000000000000000000000000000000000000168152f35b905034611a26576020600319360112611a265765ffffffffffff604060209360043581528085522054168152f35b35906001600160a01b03821682036103ad57565b6040810190811067ffffffffffffffff821117611f8257604052565b60e0810190811067ffffffffffffffff821117611f8257604052565b6080810190811067ffffffffffffffff821117611f8257604052565b6060810190811067ffffffffffffffff821117611f8257604052565b67ffffffffffffffff8111611f8257604052565b6101c0810190811067ffffffffffffffff821117611f8257604052565b610240810190811067ffffffffffffffff821117611f8257604052565b60c0810190811067ffffffffffffffff821117611f8257604052565b6020810190811067ffffffffffffffff821117611f8257604052565b90601f601f19910116810190811067ffffffffffffffff821117611f8257604052565b67ffffffffffffffff8111611f8257601f01601f191660200190565b81601f820112156103ad5780359061294482612911565b9261295260405194856128ee565b828452602083830101116103ad57816000926020809301838601378301015290565b67ffffffffffffffff8111611f825760051b60200190565b359081151582036103ad57565b359065ffffffffffff821682036103ad57565b908160209103126103ad57516001600160a01b03811681036103ad5790565b80929161012091829103126103ad5760405190810181811067ffffffffffffffff821117611f82576040528092805182526020810151602083015260408101516040830152606081015160608301526080810151608083015260a081015160a083015260c081015160c083015260e08101516001600160a01b03811681036103ad5760e083015261010080910151910152565b65ffffffffffff9182169082160391908211612a7657565b634e487b7160e01b600052601160045260246000fd5b604090815191612a9b836127f8565b600183528291600091825b602080821015612ad357825160209291612abf826127f8565b868252606081830152828901015201612aa6565b50505091925050565b805115612ae95760200190565b634e487b7160e01b600052603260045260246000fd5b8051821015612ae95760209160051b010190565b908082519081815260208091019281808460051b830101950193600080925b858410612b43575050505050505090565b9091929387601f19838398999a0301855288519060408381830193805184520151928185840152835180915284606080940194019287925b828410612b9d5750505050509080600192990194019401929594939190612b32565b91939560e06001929496885180511515825283810151151584830152858101518683015286810151878301526001600160a01b0360808181840151169084015260a0808301519084015260c08092015116908201520196019401918a95949391612b7b565b60005b838110612c155750506000910152565b8181015183820152602001612c05565b90601f19601f602093612c4381518092818752878088019101612c02565b0116010190565b519081151582036103ad57565b80820392916103a084126103ad57612c907ffffffffffffffffffffffffffffffffffffffffffffffffffffffffffffffee091836129cb565b9301610280908181126103ad5760405192610240928385019267ffffffffffffffff9086851082861117611f82576060136103ad576102a09086820190811185821017611f825760405261012090612ce9848301612c4a565b8552610140612cf9858201612c4a565b9561026096878a015261016090818701612d1290612c4a565b868b01528952610180918287015160208b01526101a0938488015160408c01526101c0958689015160608d01526101e0978c898b01612d5090612c4a565b90608001528c6102009b8c8c01612d6690612c4a565b60a08301526102209d8e8d01612d7b90612c4a565b60c08401528c01612d8b90612c4a565b60e08301528b01612d9b90612c4a565b9061010001528901612dac90612c4a565b908c01528701612dbb90612c4a565b908a0152612dcc6102c08701612c4a565b90890152612ddd6102e08601612c4a565b90880152612dee6103008501612c4a565b90870152612dff6103208401612c4a565b90860152612e106103408301612c4a565b908501526103608101516001600160a01b03811681036103ad576103809285015201519082015290565b6040517f8776c4990000000000000000000000000000000000000000000000000000000081528160048201526103a0816024816001600160a01b037f0000000000000000000000000000000000000000000000000000000000000000165afa9081156132de576000908192613ac9575b50600481511015613a9f576040517f12b37b140000000000000000000000000000000000000000000000000000000081528360048201526103a0816024816001600160a01b037f0000000000000000000000000000000000000000000000000000000000000000165afa9081156132de57600091613a6d575b5060208083015191015103613a435751600181036132ea57509060209060406001600160a01b03610200809501511682600052600084528160002094825195612f6b87612830565b5495606065ffffffffffff8089168352808960301c169889898501528181841c168785015260901c16910152825195612fa387612830565b865260008587015260008387015260006060870152825191612fc48361284c565b60008352600086840152600084840152612ff18451612fe2816127f8565b60008152600188820152613b61565b91845193612ffe85612899565b84526000878501526127108086860152606085015260016080850152600060a0850152600060c0850152600060e08501526000610100850152600061012085015260006101408501526000610160850152600061018085015260006101a085015260016101c085015260016101e08501528301526102208201527f4465666966612067616d6520706861736520322e0000000000000000000000008461325b61324785516130ab816128d2565b6000815261322b8751966130be886128d2565b6000885261312389519c8d9b7fbadbdf28000000000000000000000000000000000000000000000000000000008d5260048d015260248c01906001600160a01b0360608092805185526020810151602086015260408101516040860152015116910152565b80518051151560a48c0152602080820151151560c48d0152604091820151151560e48d01528201516101048c01528101516101248b015260608101516101448b0152608081015115156101648b015260a081015115156101848b015260c081015115156101a48b015260e081015115156101c48b015261010081015115156101e48b015261012081015115156102048b015261014081015115156102248b015261016081015115156102448b015261018081015115156102648b01526101a081015115156102848b01526101c081015115156102a48b01526101e081015115156102c48b01526102008101516001600160a01b03166102e48b015261022001516103048a0152565b60006103248901526103a06103448901526103a4880190612b13565b600319948588830301610364890152613aed565b858103938401610384870152601481520152018160006001600160a01b037f0000000000000000000000000000000000000000000000000000000000000000165af19081156132de576000916132af575090565b906020823d6020116132d6575b816132c9602093836128ee565b8101031261014b57505190565b3d91506132bc565b6040513d6000823e3d90fd5b600203613917576102006001600160a01b03910151168160005260016020526040600020906affffffffffffffffffffff60016040519361332a8561284c565b6001600160a01b03815416855201546001600160a01b038116602085015260a01c1660408301526040519161335e836127f8565b6001835260005b602081106138d657506001600160a01b038151166001600160a01b036020830151166affffffffffffffffffffff604084015116604051917f1982d679000000000000000000000000000000000000000000000000000000008352806004840152602083602481875afa9283156132de576000936138a2575b50604051936133ec856128b6565b845260208401526040830152606082015260006080820152600060a082015261341484612adc565b5261341e83612adc565b50604051917f2bdfe0040000000000000000000000000000000000000000000000000000000083526020836004816001600160a01b037f0000000000000000000000000000000000000000000000000000000000000000165afa9283156132de576001600160a01b03936000918291613883575b506064604051809681937f69e11cc500000000000000000000000000000000000000000000000000000000835261017160048401528560248401528a6044840152165afa9283156132de5760009361372c575b50927f4465666966612067616d6520706861736520332e000000000000000000000000602061325b6132476135d198966040968499600092805115156000146137115761322b9293506001600160a01b038761353f612a8c565b9501511661eeee810361370b57506001905b8a519161355d836127f8565b82528782015261356c84612adc565b5261357683612adc565b505b8960005260008652886000206135c88a519161359383612830565b54606065ffffffffffff938483168152848360301c168b820152848084841c16938f859084015260901c169182910152612a5e565b8a519d8e612830565b168c526000868d01526000898d0152600060608d01528851906135f38261284c565b6000825260008783015260008a8301526136208a51613611816127f8565b60008152600089820152613b61565b908a519261362d84612899565b835260008884015260008b8401526000606084015260016080840152600060a0840152600160c0840152600060e08401526000610100840152600061012084015260006101408401526000610160840152600061018084015260006101a084015260016101c084015260016101e084015261020083015261022082015261312389519c8d9b7fbadbdf28000000000000000000000000000000000000000000000000000000008d5260048d015260248c01906001600160a01b0360608092805185526020810151602086015260408101516040860152015116910152565b90613551565b509161322b9150885190613724826128d2565b815291613578565b90923d8082843e61373d81846128ee565b6020838281010312611a265782519167ffffffffffffffff831161014b57818401601f84860101121561014b57828401519161377883612974565b9461378660405196876128ee565b8386526020860194828201602060e08702838501010111611a4957602081830101955b602060e08702838501010187106137ec5750959795507f4465666966612067616d6520706861736520332e00000000000000000000000094506134e59350505050565b60e0878585010312611afa5760405161380481612814565b61380d88612c4a565b815261381b60208901612c4a565b6020820152604088015160408201526060880151606082015260808801516001600160a01b038116810361072657608082015260a088015160a082015260c08801516001600160a01b03811681036107265760c0820152815260e096909601956020016137a9565b61389c915060203d6020116103ea576103dc81836128ee565b38613492565b90926020823d6020116138ce575b816138bd602093836128ee565b8101031261014b57505191386133de565b3d91506138b0565b6020906040516138e5816128b6565b60008152600083820152600060408201526000606082015260006080820152600060a082015282828701015201613365565b9060209060406001600160a01b03610200809501511681519461393986612830565b600086526000858701526000838701526000606087015282519161395c8361284c565b60008352600086840152600084840152613989845161397a816127f8565b60008152600088820152613b61565b9184519361399685612899565b84526000878501526127108086860152606085015260016080850152600060a0850152600060c0850152600060e08501526000610100850152600061012085015260006101408501526000610160850152600061018085015260006101a085015260016101c085015260016101e08501528301526102208201527f4465666966612067616d6520706861736520342e0000000000000000000000008461325b61324785516130ab816128d2565b60046040517f11f43385000000000000000000000000000000000000000000000000000000008152fd5b613a9191506103a03d6103a011613a98575b613a8981836128ee565b810190612c57565b5038612f23565b503d613a7f565b60046040517fdc7a2515000000000000000000000000000000000000000000000000000000008152fd5b9050613ae691506103a03d6103a011613a9857613a8981836128ee565b9038612eaa565b90815180825260208080930193019160005b828110613b0d575050505090565b835180516001600160a01b03908116875281840151168684015260408082015190870152606080820151908701526080808201519087015260a0908101519086015260c09094019392810192600101613aff565b906000918051613b7d575b60200151613b7657565b9060021790565b60019250613b6c565b6e5af43d82803e903d91602b57fd5bf390763d602d80600a3d3981f3363d3d373d3d3d363d7300000062ffffff8260881c161760005260781b17602052603760096000f0906001600160a01b03821615613bdc57565b60646040517f08c379a000000000000000000000000000000000000000000000000000000000815260206004820152601660248201527f455243313136373a20637265617465206661696c6564000000000000000000006044820152fdfea2646970667358221220505b63a072b1886786278e9ae6ba156abe7d8db6e46e54da39ed8e3fb5f1413764736f6c63430008110033",
    "linkReferences": {}
  },
  "methodIdentifiers": {
    "BALLKIDZ_PROJECT_ID()": "af9fbd19",
    "SPLIT_DOMAIN()": "ff16a2f2",
    "claimProtocolProjectToken()": "ca449a25",
    "controller()": "f77c4791",
    "currentGamePhaseOf(uint256)": "0715610a",
    "delegateCodeOrigin()": "06b552b5",
    "delegatesRegistry()": "d574ff04",
    "distributionLimit(uint256)": "27655cfd",
    "endOf(uint256)": "b965933e",
    "governorCodeOrigin()": "ff2a43cc",
    "launchGameWith((string,(string,uint256),string,string,(uint80,uint16,address,uint8,address,bytes32,bool,string)[],address,uint48,uint48,uint48,uint48,(bool,bool,uint256,uint256,address,uint256,address)[],uint88,address,uint256,address,address,address))": "492f1ef2",
    "mintDurationOf(uint256)": "0589d292",
    "nextPhaseNeedsQueueing(uint256)": "81312a14",
    "onERC721Received(address,address,uint256,bytes)": "150b7a02",
    "protocolFeeProjectTokenAccount()": "3f3090d9",
    "queueNextPhaseOf(uint256)": "1c069dbb",
    "refundPeriodDurationOf(uint256)": "1109fff2",
    "startOf(uint256)": "b41e7f47",
    "terminalOf(uint256)": "4fe0eced",
    "timesFor(uint256)": "b07925d3",
    "tokenUriResolverCodeOrigin()": "80f07954"
  },
  "id": 1
}