{
  "abi": [
    {
      "inputs": [
        {
          "internalType": "address",
          "name": "_delegateCodeOrigin",
          "type": "address"
        },
        {
          "internalType": "contract IJB721TokenUriResolver",
          "name": "_tokenUriResolver",
          "type": "address"
        },
        {
          "internalType": "contract IDefifaGovernor",
          "name": "_governor",
          "type": "address"
        },
        {
          "internalType": "contract IJBController3_1",
          "name": "_controller",
          "type": "address"
        },
        {
          "internalType": "contract IJBDelegatesRegistry",
          "name": "_delegatesRegistry",
          "type": "address"
        },
        {
          "internalType": "address",
          "name": "_protocolFeeProjectTokenAccount",
          "type": "address"
        },
        {
          "internalType": "uint256",
          "name": "_defifaProjectId",
          "type": "uint256"
        },
        {
          "internalType": "address",
          "name": "_owner",
          "type": "address"
        }
      ],
      "stateMutability": "nonpayable",
      "type": "constructor"
    },
    {
      "inputs": [],
      "name": "CANT_FULFILL_YET",
      "type": "error"
    },
    {
      "inputs": [],
      "name": "GAME_OVER",
      "type": "error"
    },
    {
      "inputs": [],
      "name": "INCORRECT_DECIMAL_AMOUNT",
      "type": "error"
    },
    {
      "inputs": [],
      "name": "INVALID_FEE_PERCENT",
      "type": "error"
    },
    {
      "inputs": [],
      "name": "INVALID_GAME_CONFIGURATION",
      "type": "error"
    },
    {
      "inputs": [],
      "name": "PHASE_ALREADY_QUEUED",
      "type": "error"
    },
    {
      "inputs": [
        {
          "internalType": "uint256",
          "name": "prod1",
          "type": "uint256"
        },
        {
          "internalType": "uint256",
          "name": "denominator",
          "type": "uint256"
        }
      ],
      "name": "PRBMath__MulDivOverflow",
      "type": "error"
    },
    {
      "inputs": [],
      "name": "SPLITS_DONT_ADD_UP",
      "type": "error"
    },
    {
      "inputs": [],
      "name": "TERMINAL_NOT_FOUND",
      "type": "error"
    },
    {
      "inputs": [],
      "name": "UNEXPECTED_TERMINAL_CURRENCY",
      "type": "error"
    },
    {
      "anonymous": false,
      "inputs": [
        {
          "components": [
            {
              "internalType": "bool",
              "name": "preferClaimed",
              "type": "bool"
            },
            {
              "internalType": "bool",
              "name": "preferAddToBalance",
              "type": "bool"
            },
            {
              "internalType": "uint256",
              "name": "percent",
              "type": "uint256"
            },
            {
              "internalType": "uint256",
              "name": "projectId",
              "type": "uint256"
            },
            {
              "internalType": "address payable",
              "name": "beneficiary",
              "type": "address"
            },
            {
              "internalType": "uint256",
              "name": "lockedUntil",
              "type": "uint256"
            },
            {
              "internalType": "contract IJBSplitAllocator",
              "name": "allocator",
              "type": "address"
            }
          ],
          "indexed": false,
          "internalType": "struct JBSplit",
          "name": "split",
          "type": "tuple"
        },
        {
          "indexed": false,
          "internalType": "uint256",
          "name": "amount",
          "type": "uint256"
        },
        {
          "indexed": false,
          "internalType": "address",
          "name": "defaultBeneficiary",
          "type": "address"
        },
        {
          "indexed": false,
          "internalType": "address",
          "name": "caller",
          "type": "address"
        }
      ],
      "name": "DistributeToSplit",
      "type": "event"
    },
    {
      "anonymous": false,
      "inputs": [
        {
          "indexed": true,
          "internalType": "uint256",
          "name": "gameId",
          "type": "uint256"
        },
        {
          "indexed": true,
          "internalType": "contract IDefifaDelegate",
          "name": "delegate",
          "type": "address"
        },
        {
          "indexed": true,
          "internalType": "contract IDefifaGovernor",
          "name": "governor",
          "type": "address"
        },
        {
          "indexed": false,
          "internalType": "contract IJB721TokenUriResolver",
          "name": "tokenUriResolver",
          "type": "address"
        },
        {
          "indexed": false,
          "internalType": "address",
          "name": "caller",
          "type": "address"
        }
      ],
      "name": "LaunchGame",
      "type": "event"
    },
    {
      "anonymous": false,
      "inputs": [
        {
          "indexed": true,
          "internalType": "address",
          "name": "previousOwner",
          "type": "address"
        },
        {
          "indexed": true,
          "internalType": "address",
          "name": "newOwner",
          "type": "address"
        }
      ],
      "name": "OwnershipTransferred",
      "type": "event"
    },
    {
      "inputs": [
        {
          "internalType": "uint256",
          "name": "_percent",
          "type": "uint256"
        }
      ],
      "name": "changeFee",
      "outputs": [],
      "stateMutability": "nonpayable",
      "type": "function"
    },
    {
      "inputs": [],
      "name": "claimProtocolProjectToken",
      "outputs": [],
      "stateMutability": "nonpayable",
      "type": "function"
    },
    {
      "inputs": [],
      "name": "controller",
      "outputs": [
        {
          "internalType": "contract IJBController3_1",
          "name": "",
          "type": "address"
        }
      ],
      "stateMutability": "view",
      "type": "function"
    },
    {
      "inputs": [
        {
          "internalType": "uint256",
          "name": "_gameId",
          "type": "uint256"
        }
      ],
      "name": "currentGamePhaseOf",
      "outputs": [
        {
          "internalType": "enum DefifaGamePhase",
          "name": "",
          "type": "uint8"
        }
      ],
      "stateMutability": "view",
      "type": "function"
    },
    {
      "inputs": [
        {
          "internalType": "uint256",
          "name": "_gameId",
          "type": "uint256"
        },
        {
          "internalType": "bool",
          "name": "_includeCommitments",
          "type": "bool"
        }
      ],
      "name": "currentGamePotOf",
      "outputs": [
        {
          "internalType": "uint256",
          "name": "",
          "type": "uint256"
        },
        {
          "internalType": "address",
          "name": "",
          "type": "address"
        },
        {
          "internalType": "uint256",
          "name": "",
          "type": "uint256"
        }
      ],
      "stateMutability": "view",
      "type": "function"
    },
    {
      "inputs": [],
      "name": "defifaProjectId",
      "outputs": [
        {
          "internalType": "uint256",
          "name": "",
          "type": "uint256"
        }
      ],
      "stateMutability": "view",
      "type": "function"
    },
    {
      "inputs": [],
      "name": "delegateCodeOrigin",
      "outputs": [
        {
          "internalType": "address",
          "name": "",
          "type": "address"
        }
      ],
      "stateMutability": "view",
      "type": "function"
    },
    {
      "inputs": [],
      "name": "delegatesRegistry",
      "outputs": [
        {
          "internalType": "contract IJBDelegatesRegistry",
          "name": "",
          "type": "address"
        }
      ],
      "stateMutability": "view",
      "type": "function"
    },
    {
      "inputs": [],
      "name": "feeDivisor",
      "outputs": [
        {
          "internalType": "uint256",
          "name": "",
          "type": "uint256"
        }
      ],
      "stateMutability": "view",
      "type": "function"
    },
    {
      "inputs": [
        {
          "internalType": "uint256",
          "name": "_gameId",
          "type": "uint256"
        }
      ],
      "name": "fulfillCommitmentsOf",
      "outputs": [],
      "stateMutability": "nonpayable",
      "type": "function"
    },
    {
      "inputs": [
        {
          "internalType": "uint256",
          "name": "",
          "type": "uint256"
        }
      ],
      "name": "fulfilledCommitmentsOf",
      "outputs": [
        {
          "internalType": "uint256",
          "name": "",
          "type": "uint256"
        }
      ],
      "stateMutability": "view",
      "type": "function"
    },
    {
      "inputs": [],
      "name": "governor",
      "outputs": [
        {
          "internalType": "contract IDefifaGovernor",
          "name": "",
          "type": "address"
        }
      ],
      "stateMutability": "view",
      "type": "function"
    },
    {
      "inputs": [
        {
          "components": [
            {
              "internalType": "string",
              "name": "name",
              "type": "string"
            },
            {
              "components": [
                {
                  "internalType": "string",
                  "name": "content",
                  "type": "string"
                },
                {
                  "internalType": "uint256",
                  "name": "domain",
                  "type": "uint256"
                }
              ],
              "internalType": "struct JBProjectMetadata",
              "name": "projectMetadata",
              "type": "tuple"
            },
            {
              "internalType": "string",
              "name": "contractUri",
              "type": "string"
            },
            {
              "internalType": "string",
              "name": "baseUri",
              "type": "string"
            },
            {
              "components": [
                {
                  "internalType": "string",
                  "name": "name",
                  "type": "string"
                },
                {
                  "internalType": "uint80",
                  "name": "price",
                  "type": "uint80"
                },
                {
                  "internalType": "uint16",
                  "name": "reservedRate",
                  "type": "uint16"
                },
                {
                  "internalType": "address",
                  "name": "reservedTokenBeneficiary",
                  "type": "address"
                },
                {
                  "internalType": "bytes32",
                  "name": "encodedIPFSUri",
                  "type": "bytes32"
                },
                {
                  "internalType": "bool",
                  "name": "shouldUseReservedTokenBeneficiaryAsDefault",
                  "type": "bool"
                }
              ],
              "internalType": "struct DefifaTierParams[]",
              "name": "tiers",
              "type": "tuple[]"
            },
            {
              "internalType": "address",
              "name": "token",
              "type": "address"
            },
            {
              "internalType": "uint24",
              "name": "mintPeriodDuration",
              "type": "uint24"
            },
            {
              "internalType": "uint24",
              "name": "refundPeriodDuration",
              "type": "uint24"
            },
            {
              "internalType": "uint48",
              "name": "start",
              "type": "uint48"
            },
            {
              "components": [
                {
                  "internalType": "bool",
                  "name": "preferClaimed",
                  "type": "bool"
                },
                {
                  "internalType": "bool",
                  "name": "preferAddToBalance",
                  "type": "bool"
                },
                {
                  "internalType": "uint256",
                  "name": "percent",
                  "type": "uint256"
                },
                {
                  "internalType": "uint256",
                  "name": "projectId",
                  "type": "uint256"
                },
                {
                  "internalType": "address payable",
                  "name": "beneficiary",
                  "type": "address"
                },
                {
                  "internalType": "uint256",
                  "name": "lockedUntil",
                  "type": "uint256"
                },
                {
                  "internalType": "contract IJBSplitAllocator",
                  "name": "allocator",
                  "type": "address"
                }
              ],
              "internalType": "struct JBSplit[]",
              "name": "splits",
              "type": "tuple[]"
            },
            {
              "internalType": "address payable",
              "name": "ballkidzFeeProjectTokenAccount",
              "type": "address"
            },
            {
              "internalType": "contract IJBSplitAllocator",
              "name": "ballkidzFeeProjectTokenAllocator",
              "type": "address"
            },
            {
              "internalType": "uint256",
              "name": "attestationStartTime",
              "type": "uint256"
            },
            {
              "internalType": "uint256",
              "name": "attestationGracePeriod",
              "type": "uint256"
            },
            {
              "internalType": "address",
              "name": "defaultAttestationDelegate",
              "type": "address"
            },
            {
              "internalType": "contract IJB721TokenUriResolver",
              "name": "defaultTokenUriResolver",
              "type": "address"
            },
            {
              "internalType": "contract IJBPaymentTerminal",
              "name": "terminal",
              "type": "address"
            },
            {
              "internalType": "contract IJBTiered721DelegateStore",
              "name": "store",
              "type": "address"
            }
          ],
          "internalType": "struct DefifaLaunchProjectData",
          "name": "_launchProjectData",
          "type": "tuple"
        }
      ],
      "name": "launchGameWith",
      "outputs": [
        {
          "internalType": "uint256",
          "name": "gameId",
          "type": "uint256"
        }
      ],
      "stateMutability": "nonpayable",
      "type": "function"
    },
    {
      "inputs": [
        {
          "internalType": "uint256",
          "name": "_gameId",
          "type": "uint256"
        }
      ],
      "name": "nextPhaseNeedsQueueing",
      "outputs": [
        {
          "internalType": "bool",
          "name": "",
          "type": "bool"
        }
      ],
      "stateMutability": "view",
      "type": "function"
    },
    {
      "inputs": [
        {
          "internalType": "address",
          "name": "",
          "type": "address"
        },
        {
          "internalType": "address",
          "name": "",
          "type": "address"
        },
        {
          "internalType": "uint256",
          "name": "",
          "type": "uint256"
        },
        {
          "internalType": "bytes",
          "name": "",
          "type": "bytes"
        }
      ],
      "name": "onERC721Received",
      "outputs": [
        {
          "internalType": "bytes4",
          "name": "",
          "type": "bytes4"
        }
      ],
      "stateMutability": "pure",
      "type": "function"
    },
    {
      "inputs": [],
      "name": "owner",
      "outputs": [
        {
          "internalType": "address",
          "name": "",
          "type": "address"
        }
      ],
      "stateMutability": "view",
      "type": "function"
    },
    {
      "inputs": [],
      "name": "protocolFeeProjectTokenAccount",
      "outputs": [
        {
          "internalType": "address",
          "name": "",
          "type": "address"
        }
      ],
      "stateMutability": "view",
      "type": "function"
    },
    {
      "inputs": [
        {
          "internalType": "uint256",
          "name": "_gameId",
          "type": "uint256"
        }
      ],
      "name": "queueNextPhaseOf",
      "outputs": [
        {
          "internalType": "uint256",
          "name": "configuration",
          "type": "uint256"
        }
      ],
      "stateMutability": "nonpayable",
      "type": "function"
    },
    {
      "inputs": [],
      "name": "renounceOwnership",
      "outputs": [],
      "stateMutability": "nonpayable",
      "type": "function"
    },
    {
      "inputs": [],
      "name": "splitGroup",
      "outputs": [
        {
          "internalType": "uint256",
          "name": "",
          "type": "uint256"
        }
      ],
      "stateMutability": "view",
      "type": "function"
    },
    {
      "inputs": [
        {
          "internalType": "uint256",
          "name": "_gameId",
          "type": "uint256"
        }
      ],
      "name": "timesFor",
      "outputs": [
        {
          "internalType": "uint48",
          "name": "",
          "type": "uint48"
        },
        {
          "internalType": "uint24",
          "name": "",
          "type": "uint24"
        },
        {
          "internalType": "uint24",
          "name": "",
          "type": "uint24"
        }
      ],
      "stateMutability": "view",
      "type": "function"
    },
    {
      "inputs": [
        {
          "internalType": "uint256",
          "name": "_gameId",
          "type": "uint256"
        }
      ],
      "name": "tokenOf",
      "outputs": [
        {
          "internalType": "address",
          "name": "",
          "type": "address"
        }
      ],
      "stateMutability": "view",
      "type": "function"
    },
    {
      "inputs": [],
      "name": "tokenUriResolver",
      "outputs": [
        {
          "internalType": "contract IJB721TokenUriResolver",
          "name": "",
          "type": "address"
        }
      ],
      "stateMutability": "view",
      "type": "function"
    },
    {
      "inputs": [
        {
          "internalType": "address",
          "name": "newOwner",
          "type": "address"
        }
      ],
      "name": "transferOwnership",
      "outputs": [],
      "stateMutability": "nonpayable",
      "type": "function"
    },
    {
      "stateMutability": "payable",
      "type": "receive"
    }
  ],
  "bytecode": {
    "object": "0x610180346200020b5762005e3638819003601f8101601f191683016001600160401b038111848210176200021057839282916040528339610100928391810103126200020b57620000508162000226565b60208201516001600160a01b039182821682036200020b5760408401519083821682036200020b5760608501519484861686036200020b57608081015194851685036200020b57620000f692620000aa60a0830162000226565b94620000be60e060c0850151940162000226565b93620000ca336200023b565b601460045560c05260e052875261012095865261014093845261016094855260a052306080526200023b565b60405192615bb39485620002838639608051858181610909015281816121250152613f14015260a0518581816120b201528181612214015281816128300152613ebc015260c05185818161128301526127f5015260e0518581816102e30152611e89015251848181611a2b015261276b01525183818161014d01528181610368015281816105e5015281816109720152818161105501528181611318015281816113e2015281816119860152818161219701528181612d160152818161303a01528181613e8801528181613fa301528181614c03015261535701525182818161048301528181612674015281816143040152818161494201528181614ad20152614ba50152518181816103270152611b090152f35b600080fd5b634e487b7160e01b600052604160045260246000fd5b51906001600160a01b03821682036200020b57565b600080546001600160a01b039283166001600160a01b03198216811783559216907f8be0079c531659141344cd1fd0a4f28419497f9722a3daafe3b4186f6b6457e09080a356fe608080604052600436101561001d575b50361561001b57600080fd5b005b600090813560e01c9081630134a03d146128195750806306b552b5146127d55780630715610a1461278f5780630c340a241461274b578063150b7a02146126bf5780631c069dbb146126985780633f3090d91461265457806363bf482e14610c3f5780636a1db1bf14610bcd578063715018a614610b5b57806381312a141461092c578063859bb4b2146108f15780638da5cb5b146108cb5780639a36f932146108ad578063b07925d314610833578063b4dfb08614610592578063b6674cde14610572578063ca449a251461034b578063d574ff0414610307578063e131fc0c146102c3578063ea78803f14610290578063f2ae5f6e14610266578063f2fde38b146101745763f77c47910361000f573461017157806003193601126101715760206040516001600160a01b037f0000000000000000000000000000000000000000000000000000000000000000168152f35b80fd5b50346101715760206003193601126101715761018e612853565b6101966155e4565b6001600160a01b038091169081156101fc57600054827fffffffffffffffffffffffff0000000000000000000000000000000000000000821617600055167f8be0079c531659141344cd1fd0a4f28419497f9722a3daafe3b4186f6b6457e0600080a380f35b608460405162461bcd60e51b815260206004820152602660248201527f4f776e61626c653a206e6577206f776e657220697320746865207a65726f206160448201527f64647265737300000000000000000000000000000000000000000000000000006064820152fd5b50346101715760206003193601126101715760406020916004358152600583522054604051908152f35b5034610171576020600319360112610171576001600160a01b036040602092600435815260018452205416604051908152f35b503461017157806003193601126101715760206040516001600160a01b037f0000000000000000000000000000000000000000000000000000000000000000168152f35b503461017157806003193601126101715760206040516001600160a01b037f0000000000000000000000000000000000000000000000000000000000000000168152f35b5034610171578060031936011261017157806001600160a01b03807f000000000000000000000000000000000000000000000000000000000000000016906040517f6193063000000000000000000000000000000000000000000000000000000000928382526020918281600481855afa9081156105675783918591889161054a575b50169460046040518094819382525afa9081156105125783918391879161051d575b506044604051809481937f5287af3700000000000000000000000000000000000000000000000000000000835230600484015260016024840152165afa9182156105125785926104dc575b5050823b156104d757608484928360405195869485937fac689bcd000000000000000000000000000000000000000000000000000000008552306004860152600160248601527f000000000000000000000000000000000000000000000000000000000000000016604485015260648401525af180156104cc576104bc5750f35b6104c590612920565b6101715780f35b6040513d84823e3d90fd5b505050fd5b8195508092503d831161050b575b6104f48183612989565b8101031261050657839251388061043b565b600080fd5b503d6104ea565b6040513d87823e3d90fd5b61053d9150823d8411610543575b6105358183612989565b810190612a44565b386103f0565b503d61052b565b6105619150833d8511610543576105358183612989565b386103ce565b6040513d88823e3d90fd5b50346101715760206003193601126101715761058f600435613e09565b80f35b5034610171576040600319360112610171576004359060243590811515820361050657828152602092600184526001600160a01b039384604084205416916040516331070bc960e21b815282816004818a7f0000000000000000000000000000000000000000000000000000000000000000165afa908115610512578591610816575b50604051630862026560e41b8152600481018390526001600160a01b0385166024820152908390829060449082908b165afa9081156105125790879186916107f9575b501690604051967f975057e70000000000000000000000000000000000000000000000000000000088528388600481865afa9788156105675786986107d8575b506040517efdd58e0000000000000000000000000000000000000000000000000000000081526001600160a01b03841660048201526024810183905297849189916044918391165afa9081156105125785916107a8575b600497508196610787575b50508190604051968780927f313ce5670000000000000000000000000000000000000000000000000000000082525afa92831561077b579261074b575b606094506040519384528301526040820152f35b80925084813d8311610774575b6107628183612989565b81010312610506576060935191610737565b503d610758565b604051903d90823e3d90fd5b855260058352604085205491955082916107a091612a63565b9490386106fa565b90508287813d83116107d1575b6107bf8183612989565b810103126105065760049651906106ef565b503d6107b5565b849198506107f290823d8411610543576105358183612989565b9790610698565b6108109150843d8611610543576105358183612989565b38610658565b61082d9150833d8511610543576105358183612989565b38610615565b50346101715760206003193601126101715760406060916004358152600160205220816040519161086383612904565b546001600160a01b038116835265ffffffffffff8160a01c169283602082015262ffffff8260d01c169182604083015260e81c928391015260405192835260208301526040820152f35b50346101715780600319360112610171576020600454604051908152f35b50346101715780600319360112610171576001600160a01b036020915416604051908152f35b503461017157806003193601126101715760206040517f00000000000000000000000000000000000000000000000000000000000000008152f35b50346101715760209081600319360112610171576040517f557e715500000000000000000000000000000000000000000000000000000000808252916001600160a01b037f0000000000000000000000000000000000000000000000000000000000000000811660048035908790869081855afa948515610b50578495610b2f575b5082939495604051967f43a266c200000000000000000000000000000000000000000000000000000000885282600489015287602481610120988994165afa968715610567579088918798610aef575b5060046040518095819382525afa91821561051257908492918692610acd575b5060249060405194859384927f5c5500780000000000000000000000000000000000000000000000000000000084526004840152165afa92831561077b578093610a91575b50505082608083015115159283610a80575b506040518315158152f35b810151910151149050388281610a75565b90918093503d8411610ac6575b610aa88184612989565b82019282840312610171575090610abe91612a86565b388080610a63565b503d610a9e565b6024919250610ae890893d8b11610543576105358183612989565b9190610a1e565b91509650843d8611610b28575b610b068183612989565b8101908581830312610b24578891610b1d91612a86565b96386109fe565b8680fd5b503d610afc565b83949550610b4990883d8a11610543576105358183612989565b94936109ae565b6040513d86823e3d90fd5b5034610171578060031936011261017157610b746155e4565b60006001600160a01b0381547fffffffffffffffffffffffff000000000000000000000000000000000000000081168355167f8be0079c531659141344cd1fd0a4f28419497f9722a3daafe3b4186f6b6457e08280a380f35b503461017157602060031936011261017157600435610bea6155e4565b600a8111610c15578015610c015760640460045580f35b602482634e487b7160e01b81526012600452fd5b60046040517f42c9b523000000000000000000000000000000000000000000000000000000008152fd5b50346101715760206003193601126101715767ffffffffffffffff60043511610171576102406003196004353603011261017157604051610c7f8161287d565b6004356004013567ffffffffffffffff8111611bf757610ca69060043691813501016129c8565b81526024600435013567ffffffffffffffff8111611bf7576004350160406003198236030112611bf75760405190610cdd826128b0565b60048101359067ffffffffffffffff8211611bf357610d04602492600436918401016129c8565b83520135602082015260208201526044600435013567ffffffffffffffff8111611bf757610d399060043691813501016129c8565b60408201526064600435013567ffffffffffffffff8111611bf757610d659060043691813501016129c8565b60608201526084600435013567ffffffffffffffff8111611bf7573660238260043501011215611bf757610d9f6004828135010135612a0f565b90610dad6040519283612989565b600480358201908101358084526020840192913660059290921b0160240111611bf3576024816004350101915b6004803583019081013560051b016024018310612538575050506080820152610e0760a460043501612869565b60a0820152610e1a60c460043501612a34565b60c0820152610e2d60e460043501612a34565b60e0820152600435610104013565ffffffffffff8116900361227557610104600435013561010082015267ffffffffffffffff610124600435013511612275573660043561012481013501602301121561227557610e9660048035610124810135010135612a0f565b610ea36040519182612989565b60048035610124810135019081013580835260208301913660e090920201602401116125345760043561012481013501602401905b60048035610124810135019081013560e0020160240182106124b4575050610120820152610f0b61014460043501612869565b610140820152610f2061016460043501612869565b6101608201526004356101848101356101808301526101a48101356101a0830152610f4e906101c401612869565b6101c08201526004356101e401356001600160a01b0381169003612275576004356101e48101356101e083015261020401356001600160a01b03811690036122755760043561020481013561020083015261022401356001600160a01b038116900361227557600435610224013561022082015261010081015165ffffffffffff1680612448575065ffffffffffff61100162ffffff610ff48160c08601511642612a63565b9060e08501511690612a63565b166101008201525b62ffffff60c08201511615801561240d575b6123e3576040517f8b79543c0000000000000000000000000000000000000000000000000000000081526020816004816001600160a01b037f0000000000000000000000000000000000000000000000000000000000000000165afa908115611e4f57839161239e575b509060206001600160a01b03926004604051809581937f06661abd000000000000000000000000000000000000000000000000000000008352165afa918215611e4f57839261236a575b50600182018211612356576001600160a01b0360a08201511662ffffff60c08301511662ffffff60e08401511665ffffffffffff61010085015116916040519361111885612904565b845260208401928352604084019081526060840191825260018601875260016020527fffffff00000000000000000000000000000000000000000000000000000000007cffffff000000000000000000000000000000000000000000000000000079ffffffffffff00000000000000000000000000000000000000006001600160a01b0360408b20975116955160a01b16925160d01b16925160e81b169217171790556101208101515180612032575b506080810151516111d881612a0f565b906111e66040519283612989565b8082526111f281612a0f565b855b601f1982018110611fd15750506080830151519061122a61121483612a0f565b926112226040519485612989565b808452612a0f565b865b601f1982018110611fbb5750508560a0604051611248816128cc565b606081528260208201528260408201528260608201528260808201520152855b818110611ef25750506e5af43d82803e903d91602b57fd5bf37f0000000000000000000000000000000000000000000000000000000000000000763d602d80600a3d3981f3363d3d373d3d3d363d7300000062ffffff8260881c1617875260781b176020526001600160a01b036037600987f016918215611eae576101e08401516001600160a01b03168015611e8657915b604051916331070bc960e21b83526020836004816001600160a01b037f0000000000000000000000000000000000000000000000000000000000000000165afa928315611e7b578893611e5a575b5085518861135860018a01615964565b6113ab602760405180937f4445464946412000000000000000000000000000000000000000000000000000602083015261139b8151809260208686019101612fe6565b8101036007810184520182612989565b604051907f557e71550000000000000000000000000000000000000000000000000000000082526020826004816001600160a01b037f0000000000000000000000000000000000000000000000000000000000000000165afa8015611e4f578a928491611e30575b5060608301519060408401519260206001600160a01b0360a0816102008901511697015116602460405180988193631982d67960e01b835260048301525afa948515610567578d9695611df9575b506001600160a01b036101c0816102208901511697015116968c3b15611df557908f9a918f9a99989796959493926040519b7f3900c6f9000000000000000000000000000000000000000000000000000000008d5260010160048d01526001600160a01b031660248c015260448b016101e090526101e48b016114e391613009565b8a81036003190160648c01526114f891613009565b906001600160a01b031660848a01528881036003190160a48a015261151c91613009565b6001600160a01b038a1660c48901528781036003190160e489015261154091613009565b868103600319016101048801528451908181526020019460200190885b818110611d335750505065ffffffffffff1661012486015261014485015230610164850152306101848501526101a4840152600319838203016101c4840152815180825260208201916020808360051b83010194019286915b838310611d0057505050505081808492038183885af180156104cc57611cec575b50506103e060246040516115ea816128b0565b60018152602036818301376001600160a01b036102008701511661160d82612ebd565b52611916602087015161190362ffffff60c08a015116916040519261163184612904565b83528b60208401528b60408401528b606084015260405161165181612951565b8c81528c60208201528c604082015261167f8d60405190611671826128b0565b8152600160208201526155bf565b6040519161168c8361287d565b82528d602083015261271080604084015260608301528d60808301528d60a08301528d60c08301528d60e08301528d6101008301528d6101208301528d6101408301528d6101608301528d6101808301528d6101a083015260016101c083015260016101e08301528a61020083015261022082015265ffffffffffff6117348c62ffffff60e061172a85610100850151168360c08601511690615281565b9201511690615281565b6118ea604051936117448561296d565b600085526117e1604051986117588a61296d565b60008a526040519d8e9d8e7fb3c5267300000000000000000000000000000000000000000000000000000000815230600482015201528c61040460206117ac8b5160406103e4860152610424850190613009565b9a0151910152805160448e0152602081015160648e0152604081015160848e0152606001516001600160a01b031660a48d0152565b80518051151560c48d0152602080820151151560e48e015260409182015115156101048e01528201516101248d01528101516101448c015260608101516101648c0152608081015115156101848c015260a081015115156101a48c015260c081015115156101c48c015260e081015115156101e48c015261010081015115156102048c015261012081015115156102248c015261014081015115156102448c015261016081015115156102648c015261018081015115156102848c01526101a081015115156102a48c01526101c081015115156102c48c01526101e081015115156102e48c01526102008101516001600160a01b03166103048c015261022001516103248b0152565b1661034488015260031987830301610364880152612ef4565b9060031985830301610384860152615299565b600319838203016103a484015260208083519283815201920190895b818110611cca57505050906040827f446566696661206d696e742070686173652e00000000000000000000000000006020848196039260031984016103c48701526012815201520181896001600160a01b037f0000000000000000000000000000000000000000000000000000000000000000165af1801561056757611c9f575b5061020083015160a08401516040517fdf21a7dd0000000000000000000000000000000000000000000000000000000081526001600160a01b0391821660048201526001870160248201529160209183916044918391165afa908115610567578691611c61575b5015611c3757846001600160a01b037f000000000000000000000000000000000000000000000000000000000000000016936101a061018082015191015190853b15611bf7576040517fc543882f00000000000000000000000000000000000000000000000000000000815260018801600482015260248101919091526044810191909152818160648183895af180156104cc57611c23575b5050813b15611bf357846040517ff2fde38b000000000000000000000000000000000000000000000000000000008152846004820152818160248183885af180156104cc57611c0f575b50506001600160a01b037f0000000000000000000000000000000000000000000000000000000000000000166002546000198114611bfb5790600187920180600255813b15611bf7576040517f5bcfd212000000000000000000000000000000000000000000000000000000008152306004820152602481019190915291908290604490829084905af1801561056757611bdf575b50602094506001600160a01b036040519116815233858201527f3082991f3dda023098e5849ea3903c6fbfd657dc6f9232f5eb81ad8a7ba161d660406001860192a4600160405191018152f35b611be98691612920565b611bf35784611b92565b8480fd5b8280fd5b602487634e487b7160e01b81526011600452fd5b611c1890612920565b611bf3578438611afd565b611c2c90612920565b611bf3578438611ab3565b60046040517f3727b396000000000000000000000000000000000000000000000000000000008152fd5b90506020813d602011611c97575b81611c7c60209383612989565b81010312611c9357611c8d90612b19565b38611a1a565b8580fd5b3d9150611c6f565b602090813d8311611cc3575b611cb58183612989565b8101031261050657386119b3565b503d611cab565b82516001600160a01b0316845285945060209384019390920191600101611932565b611cf590612920565b611bf35784386115d7565b91939596509193602080611d2083601f1986600196030187528951613009565b97019301930190928b96959492936115b6565b91969798509192939460206101606001926101408a516cffffffffffffffffffffffffff815116835263ffffffff80868301511686850152604082015116604084015261ffff60608201511660608401526001600160a01b03608082015116608084015260a081015160a084015262ffffff60c08201511660c084015260e0810151151560e084015261010081015115156101008401526101208101511515610120840152015115156101408201520197019101918d9897969594939261155d565b8f80fd5b955093506020853d602011611e28575b81611e1660209383612989565b81010312610506578b94519338611461565b3d9150611e09565b611e49915060203d602011610543576105358183612989565b38611413565b6040513d85823e3d90fd5b611e7491935060203d602011610543576105358183612989565b9138611348565b6040513d8a823e3d90fd5b507f0000000000000000000000000000000000000000000000000000000000000000916112fa565b606460405162461bcd60e51b815260206004820152601660248201527f455243313136373a20637265617465206661696c6564000000000000000000006044820152fd5b80611f036001926080880151612ee0565b5169ffffffffffffffffffff60208201511661ffff6040830151166001600160a01b0360608401511660808401519060a085015115159260405194611f4786612934565b8552633b9ac9ff60208601528760408601526060850152608084015260a08301528a60c08301528a60e08301526101008201528961012082015283610140820152611f928388612ee0565b52611f9d8287612ee0565b5051611fa98286612ee0565b52611fb48185612ee0565b5001611268565b602081606082601f19948801015201905061122c565b6020601f1991604051611fe381612934565b89815289838201528960408201528960608201528960808201528960a08201528960c08201528960e08201528961010082015289610120820152896101408201528282880101520190506111f4565b6001810181116123425761204860018201612a0f565b906120566040519283612989565b600181018252601f1961206b60018301612a0f565b01855b818110612301575050845b8181106122d2575060045480156122be576040516120f9929161209b826128e8565b60018252876020830152633b9aca000460408201527f000000000000000000000000000000000000000000000000000000000000000060608201523060808201528660a08201528660c08201526120f28285612ee0565b5282612ee0565b5060405190612107826128b0565b60018252845b6020811061229a575060405190612123826128b0565b7f00000000000000000000000000000000000000000000000000000000000000008252602082015261215482612ebd565b5261215e81612ebd565b5083604051917f2bdfe0040000000000000000000000000000000000000000000000000000000083526020836004816001600160a01b037f0000000000000000000000000000000000000000000000000000000000000000165afa9283156104cc578293612279575b506001600160a01b0383163b15612275576001600160a01b039261225291836040519586809581947ff2da44b60000000000000000000000000000000000000000000000000000000083527f0000000000000000000000000000000000000000000000000000000000000000600484015260018c016024840152606060448401526064830190612ef4565b0393165af18015610b5057156111c85761226e90939193612920565b91386111c8565b5080fd5b61229391935060203d602011610543576105358183612989565b91386121c7565b6020906040516122a9816128b0565b8781526060838201528282860101520161210d565b602486634e487b7160e01b81526012600452fd5b806122e4600192610120870151612ee0565b516122ef8286612ee0565b526122fa8185612ee0565b5001612079565b602090604051612310816128e8565b88815288838201528860408201528860608201528860808201528860a08201528860c08201528282870101520161206e565b602484634e487b7160e01b81526011600452fd5b602483634e487b7160e01b81526011600452fd5b9091506020813d602011612396575b8161238660209383612989565b81010312611bf7575190386110cf565b3d9150612379565b90506020813d6020116123db575b816123b960209383612989565b81010312611bf75751906001600160a01b0382168203611bf757906020611085565b3d91506123ac565b60046040517f74f88142000000000000000000000000000000000000000000000000000000008152fd5b5065ffffffffffff6101008201511661244261243262ffffff60e08501511642612a63565b62ffffff60c08501511690612a63565b1161101b565b62ffffff908160c08401511615908161249b575b50612468575b50611009565b61248f65ffffffffffff610100840151166124898360e08601511642612a63565b90612eb0565b1660c082015238612462565b90506124ad8260e08501511642612a63565b103861245c565b60e082360312611bf357602060e0916040516124cf816128e8565b6124d885612a27565b81526124e5838601612a27565b83820152604085013560408201526060850135606082015261250960808601612869565b608082015260a085013560a082015261252460c08601612869565b60c0820152815201910190610ed8565b8380fd5b823567ffffffffffffffff8111610b245760c07fffffffffffffffffffffffffffffffffffffffffffffffffffffffffffffffdc8285600435010136030112610b245760405191612588836128cc565b67ffffffffffffffff602483866004350101013511612650576125b9366024600435870185018181013501016129c8565b8352600435840182016044013569ffffffffffffffffffff811690036126505760043584018201604481013560208501526064013561ffff811690036126505760209261264060c48460648796896004350101013560408501526126256084828a600435010101612869565b606085015260043588010160a4810135608085015201612a27565b60a0820152815201920191610dda565b8780fd5b503461017157806003193601126101715760206040516001600160a01b037f0000000000000000000000000000000000000000000000000000000000000000168152f35b50346101715760206003193601126101715760206126b760043561302e565b604051908152f35b5034610171576080600319360112610171576126d9612853565b506024356001600160a01b038116036101715760643567ffffffffffffffff808211611bf75736602383011215611bf7578160040135908111611bf757369101602401116101715760206040517f150b7a02000000000000000000000000000000000000000000000000000000008152f35b503461017157806003193601126101715760206040516001600160a01b037f0000000000000000000000000000000000000000000000000000000000000000168152f35b5034610171576020600319360112610171576127ac600435612ced565b6040519060078110156127c157602092508152f35b602483634e487b7160e01b81526021600452fd5b503461017157806003193601126101715760206040516001600160a01b037f0000000000000000000000000000000000000000000000000000000000000000168152f35b9050346122755781600319360112612275576020907f00000000000000000000000000000000000000000000000000000000000000008152f35b600435906001600160a01b038216820361050657565b35906001600160a01b038216820361050657565b610240810190811067ffffffffffffffff82111761289a57604052565b634e487b7160e01b600052604160045260246000fd5b6040810190811067ffffffffffffffff82111761289a57604052565b60c0810190811067ffffffffffffffff82111761289a57604052565b60e0810190811067ffffffffffffffff82111761289a57604052565b6080810190811067ffffffffffffffff82111761289a57604052565b67ffffffffffffffff811161289a57604052565b610160810190811067ffffffffffffffff82111761289a57604052565b6060810190811067ffffffffffffffff82111761289a57604052565b6020810190811067ffffffffffffffff82111761289a57604052565b90601f601f19910116810190811067ffffffffffffffff82111761289a57604052565b67ffffffffffffffff811161289a57601f01601f191660200190565b81601f82011215610506578035906129df826129ac565b926129ed6040519485612989565b8284526020838301011161050657816000926020809301838601378301015290565b67ffffffffffffffff811161289a5760051b60200190565b3590811515820361050657565b359062ffffff8216820361050657565b9081602091031261050657516001600160a01b03811681036105065790565b91908201809211612a7057565b634e487b7160e01b600052601160045260246000fd5b80929161012091829103126105065760405190810181811067ffffffffffffffff82111761289a576040528092805182526020810151602083015260408101516040830152606081015160608301526080810151608083015260a081015160a083015260c081015160c083015260e08101516001600160a01b03811681036105065760e083015261010080910151910152565b5190811515820361050657565b80820392916103a0841261050657612b5f7ffffffffffffffffffffffffffffffffffffffffffffffffffffffffffffffee09183612a86565b93019061028080831261050657606060405193612b7b8561287d565b1261050657612c2c91604051612b9081612951565b61012090612b9f828401612b19565b815261014090612bb0828501612b19565b602082015261016090612bc4828601612b19565b604082015287526101808085015160208901526101a0918286015160408a01526101c0938487015160608b01526101e095612c00878901612b19565b60808c0152612c5d610200998c60a0612c1a8d8d01612b19565b9101528c60c06102209d8e8d01612b19565b9101528c60e0612c3f6102408d01612b19565b9101528c610100612c536102608d01612b19565b9101528901612b19565b908b0152612c6e6102a08801612b19565b908a0152612c7f6102c08701612b19565b90890152612c906102e08601612b19565b90880152612ca16103008501612b19565b90870152612cb26103208401612b19565b90860152612cc36103408301612b19565b908501526103608101516001600160a01b0381168103610506576103809285015201519082015290565b60408051638776c49960e01b81528260048201526103a0906001600160a01b03938282602481887f0000000000000000000000000000000000000000000000000000000000000000165afa918215612ea5576000938493612e71575b505082518015612e6657600114612e5c57806000526020926003845260ff856000205416612e5157612d7b818361530d565b612e4657516002149081612e2d575b50612e245760049361020083920151168351948580927fa8c15f4a0000000000000000000000000000000000000000000000000000000082525afa918215612e1a5750600091612de6575b509050612de157600390565b600490565b82813d8311612e13575b612dfa8183612989565b810103126101715750612e0c90612b19565b8038612dd5565b503d612df0565b513d6000823e3d90fd5b50505050600290565b905060005260018252826000205460e81c151538612d8a565b505050505050600590565b505050505050600690565b5050505050600190565b505050505050600090565b8091929450612e959350903d10612e9e575b612e8d8183612989565b810190612b26565b90913880612d49565b503d612e83565b84513d6000823e3d90fd5b91908203918211612a7057565b805115612eca5760200190565b634e487b7160e01b600052603260045260246000fd5b8051821015612eca5760209160051b010190565b908082519081815260208091019281808460051b830101950193600080925b858410612f24575050505050505090565b9091929387601f19838398999a0301855288518260606040938285820194805183520151948382015284518094520192019085905b808210612f79575050509080600192990194019401929594939190612f13565b919360e084612fd860019496885160c0908051151583526020810151151560208401526040810151604084015260608101516060840152816001600160a01b039182608082015116608086015260a081015160a0860152015116910152565b019401920188939291612f59565b60005b838110612ff95750506000910152565b8181015183820152602001612fe9565b90601f19601f60209361302781518092818752878088019101612fe6565b0116010190565b6001600160a01b0390817f000000000000000000000000000000000000000000000000000000000000000016604091825191638776c49960e01b8352600482818501526103a09560249680868981875afa908115613da8576000968792613d86575b50856000526020966003885260ff8960002054168015613d7a575b613d525787878a6130bc848361530d565b6139f157915050517f12b37b14000000000000000000000000000000000000000000000000000000008152878682015282818c818a5afa9081156139e6576000916139c8575b508880830151910151036139a05791879695949391899360018091511480613989575b15613481579088929184610200809401511689600052818552866000209587519661314f88612904565b5490811687528060a01c65ffffffffffff16868801528060d01c62ffffff168888015260e81c60608197015286519561318787612904565b8652600085870181905287870181905260608701528651936131a885612951565b60008086528686018190528886015287516131c2816128b0565b6000815283878201526131d4906155bf565b928851956131e18761287d565b865286860160009052612710808a880152606087015280608087015260a086016000905260c086016000905260e08601600090526101008601600090526101208601600090526101408601600090526101608601600090526101808601600090526101a0860160009052806101c08701526101e086015284015261022083015284519161326d8361296d565b6000835285519461327d8661296d565b6000865286519d8e9a8b9963175b7be560e31b8b528a015288016132c7916001600160a01b0360608092805185526020810151602086015260408101516040860152015116910152565b80518051151560a4890152602080820151151560c48a0152604091820151151560e48a015282015161010489015281015161012488015260608101516101448801526080810151151561016488015260a0810151151561018488015260c081015115156101a488015260e081015115156101c488015261010081015115156101e488015261012081015115156102048801526101408101511515610224880152610160810151151561024488015261018081015115156102648801526101a081015115156102848801526101c081015115156102a48801526101e081015115156102c48801526102008101516001600160a01b03166102e488015261022001516103048701526103248601600090526103448601526103a485016133ea91612ef4565b9160031992838682030161036487015261340391615299565b84810392830161038486015260148152017f44656669666120726566756e642070686173652e000000000000000000000000905201915a90600091f1918215612e1a5750600091613455575b50905090565b82813d831161347a575b6134698183612989565b81010312610171575051803861344f565b503d61345f565b9192949596975092508361020080930151169387600052818952808a6000205416908a516331070bc960e21b81528a8189818c5afa90811561395f578383928c8f958f946135089c9b9a9998978e9160009561396a575b50519c8d9586948593630862026560e41b855284019092916001600160a01b036020916040840195845216910152565b0392165afa96871561395f57600097613940575b508c908c978c89519961352e8b6128b0565b868b526000905b8282106138fa5750505016918b8d518093631982d67960e01b8252838c83015281865afa9182156138ef57918d979593918d9c9b9a999795936000926138a4575b50908c96959493929189519261358b846128cc565b835287830152600089830181905260608301527cffffffffffffffffffffffffffffffffffffffffffffffffffffffffff608083015260a08201526135cf87612ebd565b526135d986612ebd565b508651936135e685612904565b6000808652868601819052888601819052606086015287519261360884612951565b6000808552878501819052898501528851613622816128b0565b600080825288820152613634906155bf565b928951946136418661287d565b855287850160009052612710808b870152606086015280608086015260a085016000905260c085016000905260e08501600090526101008501600090526101208501600090526101408501600090526101608501600090526101808501600090526101a0850160009052806101c08601526101e08501528301526102208201528551926136cd8461296d565b6000845286519d8e9a8b9963175b7be560e31b8b528a01528801613717916001600160a01b0360608092805185526020810151602086015260408101516040860152015116910152565b80518051151560a4890152602080820151151560c48a0152604091820151151560e48a015282015161010489015281015161012488015260608101516101448801526080810151151561016488015260a0810151151561018488015260c081015115156101a488015260e081015115156101c488015261010081015115156101e488015261012081015115156102048801526101408101511515610224880152610160810151151561024488015261018081015115156102648801526101a081015115156102848801526101c081015115156102a48801526101e081015115156102c48801526102008101516001600160a01b03166102e488015261022001516103048701526103248601600090526103448601526103a4850161383a91612ef4565b9160031992838682030161036487015261385391615299565b84810392830161038486015260158152017f4465666966612073636f72696e672070686173652e0000000000000000000000905201915a90600091f1918215612e1a57506000916134555750905090565b8093959799508d919496989a9b9c9d3d83116138e8575b6138c58183612989565b810103126101715750928b9a99989795928b95928e989551919293949596613576565b503d6138bb565b8d513d6000823e3d90fd5b909192939450600081519161390e836128cc565b81835281858401528201526000606082015260006080820152600060a082015282828c01015201908c8f93928f613535565b6139589197508b3d8d11610543576105358183612989565b953861351c565b8c513d6000823e3d90fd5b613982919550873d8911610543576105358183612989565b93386134d8565b5087600052808952846000205460e81c1515613125565b8489517f11f43385000000000000000000000000000000000000000000000000000000008152fd5b6139df9150833d8511612e9e57612e8d8183612989565b5038613102565b8a513d6000823e3d90fd5b939096949250819795610200809401511690845193613a0f85612904565b60008086528486018190528686018190526060860152855192613a3184612951565b6000808552858501819052878501528651613a4b816128b0565b60008152600186820152613a5e906155bf565b91875194613a6b8661287d565b85528585016000905261271080898701526060860152608085016001905260a085016000905260c085016000905260e08501600090526101008501600090526101208501600090526101408501600090526101608501600090526101808501600090526101a08501600090526101c08501600190526101e0850160019052840152610220830152845191613afe8361296d565b60008352855194613b0e8661296d565b6000865286519e8f9a8b9963175b7be560e31b8b528a01528801613b58916001600160a01b0360608092805185526020810151602086015260408101516040860152015116910152565b80518051151560a4890152602080820151151560c48a0152604091820151151560e48a015282015161010489015281015161012488015260608101516101448801526080810151151561016488015260a0810151151561018488015260c081015115156101a488015260e081015115156101c488015261010081015115156101e488015261012081015115156102048801526101408101511515610224880152610160810151151561024488015261018081015115156102648801526101a081015115156102848801526101c081015115156102a48801526101e081015115156102c48801526102008101516001600160a01b03166102e488015261022001516103048701526103248601600090526103448601526103a48501613c7b91612ef4565b91600319928386820301610364870152613c9491615299565b84810392830161038486015260128152017f446566696661206e6f20636f6e746573742e0000000000000000000000000000905201915a90600091f1938415613d4757600094613d17575b50906003916000525260002060017fffffffffffffffffffffffffffffffffffffffffffffffffffffffffffffff0082541617905590565b90938282813d8311613d40575b613d2e8183612989565b81010312610171575051926003613cdf565b503d613d24565b83513d6000823e3d90fd5b8489517fdc7a2515000000000000000000000000000000000000000000000000000000008152fd5b506080810151156130ab565b90809750613da092503d8811612e9e57612e8d8183612989565b909538613090565b87513d6000823e3d90fd5b90613e07603960405180947f5061796f75742066726f6d204465666966612067616d652023000000000000006020830152613df78151809260208686019101612fe6565b8101036019810185520183612989565b565b9081600052600560205260406000205461527d57613e2682612ced565b6007811015615267576003811415908161525b575b50615231578160005260056020526001604060002055604051907f2bdfe0040000000000000000000000000000000000000000000000000000000082526020826004816001600160a01b037f0000000000000000000000000000000000000000000000000000000000000000165afa91821561450557600092615210575b507f0000000000000000000000000000000000000000000000000000000000000000600060405180947f69e11cc5000000000000000000000000000000000000000000000000000000008252816001600160a01b0381613f4f7f00000000000000000000000000000000000000000000000000000000000000008b89600485016040919493926060820195825260208201520152565b0392165afa928315614505576000936150f1575b50825115615015575b508260005260016020526001600160a01b0360406000205416604051916331070bc960e21b83526020836004816001600160a01b037f0000000000000000000000000000000000000000000000000000000000000000165afa92831561450557600093614ff4575b50604051630862026560e41b8152600481018690526001600160a01b038316602482015294602086806044810103816001600160a01b0388165afa95861561450557600096614fd3575b50604051957f975057e70000000000000000000000000000000000000000000000000000000087526020876004816001600160a01b0385165afa96871561450557600097614fb2575b506040517efdd58e0000000000000000000000000000000000000000000000000000000081526001600160a01b03828116600483015260248201849052909760209189916044918391165afa96871561450557600097614f7e575b50604051957f313ce5670000000000000000000000000000000000000000000000000000000087526020876004816001600160a01b0386165afa96871561450557600097614f4a575b50604051631982d67960e01b81528560048201526020816024816001600160a01b0387165afa90811561450557600091614f18575b5060208961414d86615964565b9261419f603660405180967f536574746c696e67204465666966612067616d652023000000000000000000008783015261418f81518092898686019101612fe6565b8101036016810187520185612989565b6142276040516141ae8161296d565b6000815261421560405196879586957fa02f801c0000000000000000000000000000000000000000000000000000000087528c600488015281602488015260448701528d606487015260848601523060a486015261010060c4860152610104850190613009565b906003198483030160e4850152613009565b038160006001600160a01b0388165af190811561450557600091614ee6575b509360005b8251811015614bc95761425e8184612ee0565b5161426d60408201518c615ad8565b80614338575b610140600193927ff44ffe151def7bd57d653ffdd625b5cfff3e6992ad5b8eb1f021cdaca6599544926142f5604051809360c0908051151583526020810151151560208401526040810151604084015260608101516060840152816001600160a01b039182608082015116608086015260a081015160a0860152015116910152565b60e08201526001600160a01b037f00000000000000000000000000000000000000000000000000000000000000001661010082015233610120820152a10161424b565b60c082015190979291906001600160a01b03161561456a576040519263b7bad1b160e01b84528960048501526020846024816001600160a01b038b165afa93841561450557600094614536575b5060405193614393856128cc565b8a85528960208601526040850152876060850152600060808501528160a085015261eeee8a03614519575b61eeee8a036145115788935b6001600160a01b0360c08401511694853b156105065761018460009260a0926144a898604051998a9586947f9d740bfa0000000000000000000000000000000000000000000000000000000086526001600160a01b03815116600487015260208101516024870152604081015160448701526060810151606487015260808101516084870152015160a485019060c0908051151583526020810151151560208401526040810151604084015260608101516060840152816001600160a01b039182608082015116608086015260a081015160a0860152015116910152565b5af1918215614505576144ea8a610140936001977ff44ffe151def7bd57d653ffdd625b5cfff3e6992ad5b8eb1f021cdaca6599544966144f6575b505b612eb0565b99925092935050614273565b6144ff90612920565b386144e3565b6040513d6000823e3d90fd5b6000936143ca565b614531896001600160a01b0360c0850151168c61563c565b6143be565b9093506020813d602011614562575b8161455260209383612989565b8101031261050657519238614385565b3d9150614545565b60608101519092901561499e5760208301511561465e5760608301519060405163b7bad1b160e01b81528a60048201526020816024816001600160a01b038c165afa928315614505578a938c8b8f9460009361461e575b50600198946144ea9488947ff44ffe151def7bd57d653ffdd625b5cfff3e6992ad5b8eb1f021cdaca65995449961014099956146076146026144e597615964565b613db3565b93604051956146158761296d565b600087526153c8565b98945050505092506020853d602011614656575b8161463f60209383612989565b8101031261050657935189928c918c8b60016145c1565b3d9150614632565b91606081015160405163b7bad1b160e01b81528a60048201526020816024816001600160a01b038c165afa918215614505578b91600093614967575b5060808401516001600160a01b03168d8b8215614936576001600160a01b0392955b60206147166146d16146028b51151595615964565b94604051986146df8a61296d565b60008a52604051978880948193630862026560e41b83528c600484019092916001600160a01b036020916040840195845216910152565b0392165afa93841561450557600094614915575b506001600160a01b038416156148eb578f6040519063b7bad1b160e01b825260048201526020816024816001600160a01b0389165afa908115614505576000916148b9575b500361488f576001600160a01b038f948f936020976142156148039261eeee8a0361487d575b61eeee8a036148755787965b866040519d8e9c8d9b8c997f1ebc263f000000000000000000000000000000000000000000000000000000008b5260048b015260248a015260448901521660648701526000608487015260a486015261010060c4860152610104850190613009565b0393165af1908115614505578991614848575b507ff44ffe151def7bd57d653ffdd625b5cfff3e6992ad5b8eb1f021cdaca6599544916144ea61014092600196612eb0565b60208092503d831161486e575b61485f8183612989565b81010312610506578738614816565b503d614855565b6000966147a1565b61488a88878b168c61563c565b614795565b60046040517fb9725924000000000000000000000000000000000000000000000000000000008152fd5b90506020813d6020116148e3575b816148d460209383612989565b8101031261050657513861476f565b3d91506148c7565b60046040517ffba10dd6000000000000000000000000000000000000000000000000000000008152fd5b61492f91945060203d602011610543576105358183612989565b923861472a565b6001600160a01b0392507f0000000000000000000000000000000000000000000000000000000000000000956146bc565b915091506020813d602011614996575b8161498460209383612989565b81010312610506578a9051913861469a565b3d9150614977565b91878961eeee8103614af757505060808101516001600160a01b03168015614ac7575b884710614a8357600080808b6001600160a01b038295165af16149e2615898565b5015614a19576101407ff44ffe151def7bd57d653ffdd625b5cfff3e6992ad5b8eb1f021cdaca6599544916144ea8a600196612eb0565b608460405162461bcd60e51b815260206004820152603a60248201527f416464726573733a20756e61626c6520746f2073656e642076616c75652c207260448201527f6563697069656e74206d617920686176652072657665727465640000000000006064820152fd5b606460405162461bcd60e51b815260206004820152601d60248201527f416464726573733a20696e73756666696369656e742062616c616e63650000006044820152fd5b506001600160a01b037f0000000000000000000000000000000000000000000000000000000000000000166149c1565b916144ea826001966144e5610140957ff44ffe151def7bd57d653ffdd625b5cfff3e6992ad5b8eb1f021cdaca6599544976001600160a01b03608088015116801515600014614b9f57614b9a905b6040517fa9059cbb0000000000000000000000000000000000000000000000000000000060208201526001600160a01b039091166024820152604481019390935282606481015b03601f198101845283612989565b615798565b50614b9a7f0000000000000000000000000000000000000000000000000000000000000000614b45565b509795915050949192909483614e8b575b505050604051638776c49960e01b81528360048201526103a09081816024816001600160a01b037f0000000000000000000000000000000000000000000000000000000000000000165afa9081156145055761020092600092614e6c575b50500191600460206001600160a01b03855116604051928380927f3b2b8a780000000000000000000000000000000000000000000000000000000082525afa801561450557600090614e23575b6001600160a01b0391501692604051907f70a082310000000000000000000000000000000000000000000000000000000091828152306004820152602081602481895afa90811561450557600091614df1575b50614cfb575b5050614cea9250612eb0565b906000526005602052604060002055565b516040519182523060048301526001600160a01b0316602082602481885afa91821561450557600092614dbc575b50906064602092600060405197889485937f23b872dd000000000000000000000000000000000000000000000000000000008552336004860152602485015260448401525af1801561450557614d81575b8280614cde565b6020833d602011614db4575b81614d9a60209383612989565b8101031261050657614dae614cea93612b19565b50614d7a565b3d9150614d8d565b91506020823d602011614de9575b81614dd760209383612989565b81010312610506579051906064614d29565b3d9150614dca565b90506020813d602011614e1b575b81614e0c60209383612989565b81010312610506575138614cd8565b3d9150614dff565b506020813d602011614e64575b81614e3d60209383612989565b8101031261050657516001600160a01b0381168103610506576001600160a01b0390614c85565b3d9150614e30565b614e829250803d10612e9e57612e8d8183612989565b90503880614c38565b614ede928460405193614e9d8561296d565b600085528860405194614eaf866128b0565b600386527f506f74000000000000000000000000000000000000000000000000000000000060208701526153c8565b388080614bda565b90506020813d602011614f10575b81614f0160209383612989565b81010312610506575138614246565b3d9150614ef4565b90506020813d602011614f42575b81614f3360209383612989565b81010312610506575138614140565b3d9150614f26565b9096506020813d602011614f76575b81614f6660209383612989565b810103126105065751953861410b565b3d9150614f59565b9096506020813d602011614faa575b81614f9a60209383612989565b81010312610506575195386140c2565b3d9150614f8d565b614fcc91975060203d602011610543576105358183612989565b9538614067565b614fed91965060203d602011610543576105358183612989565b943861401e565b61500e91935060203d602011610543576105358183612989565b9138613fd4565b6040519250615023836128b0565b6001835260005b602081106150a957508260045480156150935761508c926040519161504e836128e8565b6001835260006020840152633b9aca000460408301526060820152306080820152600060a0820152600060c082015261508682612ebd565b52612ebd565b5038613f6c565b634e487b7160e01b600052601260045260246000fd5b6020906040516150b8816128e8565b60008152600083820152600060408201526000606082015260006080820152600060a0820152600060c08201528282870101520161502a565b9092503d806000833e6151048183612989565b8101906020818303126105065780519067ffffffffffffffff8211610506570181601f820112156105065780519061513b82612a0f565b926151496040519485612989565b8284526020840190602060e08095028401019281841161050657602001915b83831061517b5750505050509138613f63565b84838303126105065760405190615191826128e8565b61519a84612b19565b82526151a860208501612b19565b60208301526040840151604083015260608085015190830152608080850151906001600160a01b03821682036105065783015260a0808501519083015260c09081850151926001600160a01b0384168403610506578793602093820152815201920191615168565b61522a91925060203d602011610543576105358183612989565b9038613eb9565b60046040517f66954d0b000000000000000000000000000000000000000000000000000000008152fd5b60049150141538613e3b565b634e487b7160e01b600052602160045260246000fd5b9050565b65ffffffffffff9182169082160391908211612a7057565b90815180825260208080930193019160005b8281106152b9575050505090565b835180516001600160a01b03908116875281840151168684015260408082015190870152606080820151908701526080808201519087015260a0908101519086015260c090940193928101926001016152ab565b906040810151604051927fa40bb9c7000000000000000000000000000000000000000000000000000000008452600484015260248301526103a09182816044816001600160a01b037f0000000000000000000000000000000000000000000000000000000000000000165afa928315614505576000936153a8575b50505190519060018201809211612a7057036153a357600090565b600190565b6153bf929350803d10612e9e57612e8d8183612989565b50903880615388565b60408051630862026560e41b8152600481018490526001600160a01b0385166024820152969790969095602095929492939290918681806044810103816001600160a01b03809a165afa90811561556e579086916000916155a2575b50169485156155795788519163b7bad1b160e01b835216958660048301528082602481895afa90811561556e57600091615542575b509050036155195761eeee84148015615509575b60009015615503575081905b833b15610506576154e76000966154d589519a8b98899788967f0cf8e85800000000000000000000000000000000000000000000000000000000885260048801526024870152604486015260a0606486015260a4850190613009565b90600319848303016084850152613009565b03925af1908115612e1a57506154fa5750565b613e0790612920565b90615479565b61551483858761563c565b61546d565b600486517fb9725924000000000000000000000000000000000000000000000000000000008152fd5b82813d8311615567575b6155568183612989565b810103126101715750518038615459565b503d61554c565b89513d6000823e3d90fd5b600489517ffba10dd6000000000000000000000000000000000000000000000000000000008152fd5b6155b99150883d8a11610543576105358183612989565b38615424565b9060009180516155db575b602001516155d457565b9060021790565b600192506155ca565b6001600160a01b036000541633036155f857565b606460405162461bcd60e51b815260206004820152602060248201527f4f776e61626c653a2063616c6c6572206973206e6f7420746865206f776e65726044820152fd5b9190918115801561570a575b156156a0576040517f095ea7b30000000000000000000000000000000000000000000000000000000060208201526001600160a01b0390931660248401526044830191909152613e079190614b9a8260648101614b8c565b608460405162461bcd60e51b815260206004820152603660248201527f5361666545524332303a20617070726f76652066726f6d206e6f6e2d7a65726f60448201527f20746f206e6f6e2d7a65726f20616c6c6f77616e6365000000000000000000006064820152fd5b506040517fdd62ed3e0000000000000000000000000000000000000000000000000000000081523060048201526020816044816001600160a01b03808916602483015286165afa90811561450557600091615767575b5015615648565b906020823d8211615790575b8161578060209383612989565b8101031261017157505138615760565b3d9150615773565b6040516157f6916001600160a01b03166157b1826128b0565b6000806020958685527f5361666545524332303a206c6f772d6c6576656c2063616c6c206661696c656487860152868151910182855af16157f0615898565b916158c8565b8051828115918215615879575b505090501561580f5750565b6084906040519062461bcd60e51b82526004820152602a60248201527f5361666545524332303a204552433230206f7065726174696f6e20646964206e60448201527f6f742073756363656564000000000000000000000000000000000000000000006064820152fd5b838092935001031261050657816158909101612b19565b808238615803565b3d156158c3573d906158a9826129ac565b916158b76040519384612989565b82523d6000602084013e565b606090565b9192901561592957508151156158dc575090565b3b156158e55790565b606460405162461bcd60e51b815260206004820152601d60248201527f416464726573733a2063616c6c20746f206e6f6e2d636f6e74726163740000006044820152fd5b82519091501561593c5750805190602001fd5b6159609060405191829162461bcd60e51b8352602060048401526024830190613009565b0390fd5b806000917a184f03e93ff9f4daa797ed6e38ed64bf6a1f01000000000000000080821015615aca575b506d04ee2d6d415b85acef810000000080831015615abb575b50662386f26fc1000080831015615aac575b506305f5e10080831015615a9d575b5061271080831015615a8e575b506064821015615a7e575b600a80921015615a74575b60019081602181860195601f19615a19615a03896129ac565b98615a116040519a8b612989565b808a526129ac565b01366020890137860101905b615a31575b5050505090565b600019849101917f30313233343536373839616263646566000000000000000000000000000000008282061a835304918215615a6f57919082615a25565b615a2a565b91600101916159ea565b91906064600291049101916159df565b600491939204910191386159d4565b600891939204910191386159c7565b601091939204910191386159b8565b602091939204910191386159a6565b60409350810491503861598d565b919060001981840981840291828083109203918083039214615b7057633b9aca009081831015615b39577f88f2cfb83100cb4e69e7c79c58b316e597157d372fb9787e8e47ce423a2e9c6d94950990828211900360f71b910360091c170290565b60448383604051917f773cc18c00000000000000000000000000000000000000000000000000000000835260048301526024820152fd5b5050633b9aca009004915056fea26469706673582212203afe91f212309f19bfac07d736b53a73bdf1a6dd9655186ce448a9e62e361e4064736f6c63430008140033",
    "linkReferences": {}
  },
  "methodIdentifiers": {
    "changeFee(uint256)": "6a1db1bf",
    "claimProtocolProjectToken()": "ca449a25",
    "controller()": "f77c4791",
    "currentGamePhaseOf(uint256)": "0715610a",
    "currentGamePotOf(uint256,bool)": "b4dfb086",
    "defifaProjectId()": "0134a03d",
    "delegateCodeOrigin()": "06b552b5",
    "delegatesRegistry()": "d574ff04",
    "feeDivisor()": "9a36f932",
    "fulfillCommitmentsOf(uint256)": "b6674cde",
    "fulfilledCommitmentsOf(uint256)": "f2ae5f6e",
    "governor()": "0c340a24",
    "launchGameWith((string,(string,uint256),string,string,(string,uint80,uint16,address,bytes32,bool)[],address,uint24,uint24,uint48,(bool,bool,uint256,uint256,address,uint256,address)[],address,address,uint256,uint256,address,address,address,address))": "63bf482e",
    "nextPhaseNeedsQueueing(uint256)": "81312a14",
    "onERC721Received(address,address,uint256,bytes)": "150b7a02",
    "owner()": "8da5cb5b",
    "protocolFeeProjectTokenAccount()": "3f3090d9",
    "queueNextPhaseOf(uint256)": "1c069dbb",
    "renounceOwnership()": "715018a6",
    "splitGroup()": "859bb4b2",
    "timesFor(uint256)": "b07925d3",
    "tokenOf(uint256)": "ea78803f",
    "tokenUriResolver()": "e131fc0c",
    "transferOwnership(address)": "f2fde38b"
  },
  "id": 1
}