{
  "abi": [
    {
      "inputs": [
        {
          "internalType": "address",
          "name": "_delegateCodeOrigin",
          "type": "address"
        },
        {
          "internalType": "address",
          "name": "_governorCodeOrigin",
          "type": "address"
        },
        {
          "internalType": "address",
          "name": "_tokenUriResolverCodeOrigin",
          "type": "address"
        },
        {
          "internalType": "contract IJBController3_1",
          "name": "_controller",
          "type": "address"
        },
        {
          "internalType": "contract IJBDelegatesRegistry",
          "name": "_delegatesRegistry",
          "type": "address"
        },
        {
          "internalType": "address",
          "name": "_protocolFeeProjectTokenAccount",
          "type": "address"
        },
        {
          "internalType": "uint256",
          "name": "_ballkidzProjectId",
          "type": "uint256"
        },
        {
          "internalType": "address",
          "name": "_owner",
          "type": "address"
        }
      ],
      "stateMutability": "nonpayable",
      "type": "constructor"
    },
    {
      "inputs": [],
      "name": "GAME_OVER",
      "type": "error"
    },
    {
      "inputs": [],
      "name": "INVALID_FEE_PERCENT",
      "type": "error"
    },
    {
      "inputs": [],
      "name": "INVALID_GAME_CONFIGURATION",
      "type": "error"
    },
    {
      "inputs": [],
      "name": "PHASE_ALREADY_QUEUED",
      "type": "error"
    },
    {
      "inputs": [],
      "name": "SPLITS_DONT_ADD_UP",
      "type": "error"
    },
    {
      "inputs": [],
      "name": "UNEXPECTED_TERMINAL_CURRENCY",
      "type": "error"
    },
    {
      "anonymous": false,
      "inputs": [
        {
          "indexed": true,
          "internalType": "uint256",
          "name": "gameId",
          "type": "uint256"
        },
        {
          "indexed": true,
          "internalType": "contract IDefifaDelegate",
          "name": "delegate",
          "type": "address"
        },
        {
          "indexed": true,
          "internalType": "contract IDefifaGovernor",
          "name": "governor",
          "type": "address"
        },
        {
          "indexed": false,
          "internalType": "contract IJBTokenUriResolver",
          "name": "tokenUriResolver",
          "type": "address"
        },
        {
          "indexed": false,
          "internalType": "address",
          "name": "caller",
          "type": "address"
        }
      ],
      "name": "LaunchGame",
      "type": "event"
    },
    {
      "anonymous": false,
      "inputs": [
        {
          "indexed": true,
          "internalType": "address",
          "name": "previousOwner",
          "type": "address"
        },
        {
          "indexed": true,
          "internalType": "address",
          "name": "newOwner",
          "type": "address"
        }
      ],
      "name": "OwnershipTransferred",
      "type": "event"
    },
    {
      "inputs": [],
      "name": "SPLIT_DOMAIN",
      "outputs": [
        {
          "internalType": "uint256",
          "name": "",
          "type": "uint256"
        }
      ],
      "stateMutability": "view",
      "type": "function"
    },
    {
      "inputs": [],
      "name": "ballkidzProjectId",
      "outputs": [
        {
          "internalType": "uint256",
          "name": "",
          "type": "uint256"
        }
      ],
      "stateMutability": "view",
      "type": "function"
    },
    {
      "inputs": [
        {
          "internalType": "uint256",
          "name": "_percent",
          "type": "uint256"
        }
      ],
      "name": "changeFee",
      "outputs": [],
      "stateMutability": "nonpayable",
      "type": "function"
    },
    {
      "inputs": [],
      "name": "claimProtocolProjectToken",
      "outputs": [],
      "stateMutability": "nonpayable",
      "type": "function"
    },
    {
      "inputs": [],
      "name": "controller",
      "outputs": [
        {
          "internalType": "contract IJBController3_1",
          "name": "",
          "type": "address"
        }
      ],
      "stateMutability": "view",
      "type": "function"
    },
    {
      "inputs": [
        {
          "internalType": "uint256",
          "name": "_gameId",
          "type": "uint256"
        }
      ],
      "name": "currentGamePhaseOf",
      "outputs": [
        {
          "internalType": "uint256",
          "name": "",
          "type": "uint256"
        }
      ],
      "stateMutability": "view",
      "type": "function"
    },
    {
      "inputs": [],
      "name": "delegateCodeOrigin",
      "outputs": [
        {
          "internalType": "address",
          "name": "",
          "type": "address"
        }
      ],
      "stateMutability": "view",
      "type": "function"
    },
    {
      "inputs": [],
      "name": "delegatesRegistry",
      "outputs": [
        {
          "internalType": "contract IJBDelegatesRegistry",
          "name": "",
          "type": "address"
        }
      ],
      "stateMutability": "view",
      "type": "function"
    },
    {
      "inputs": [
        {
          "internalType": "uint256",
          "name": "_gameId",
          "type": "uint256"
        }
      ],
      "name": "distributionLimit",
      "outputs": [
        {
          "internalType": "uint256",
          "name": "",
          "type": "uint256"
        }
      ],
      "stateMutability": "view",
      "type": "function"
    },
    {
      "inputs": [],
      "name": "feeDivisor",
      "outputs": [
        {
          "internalType": "uint256",
          "name": "",
          "type": "uint256"
        }
      ],
      "stateMutability": "view",
      "type": "function"
    },
    {
      "inputs": [],
      "name": "governorCodeOrigin",
      "outputs": [
        {
          "internalType": "address",
          "name": "",
          "type": "address"
        }
      ],
      "stateMutability": "view",
      "type": "function"
    },
    {
      "inputs": [
        {
          "internalType": "uint256",
          "name": "_gameId",
          "type": "uint256"
        }
      ],
      "name": "isNoContest",
      "outputs": [
        {
          "internalType": "bool",
          "name": "",
          "type": "bool"
        }
      ],
      "stateMutability": "view",
      "type": "function"
    },
    {
      "inputs": [
        {
          "components": [
            {
              "internalType": "string",
              "name": "name",
              "type": "string"
            },
            {
              "components": [
                {
                  "internalType": "string",
                  "name": "content",
                  "type": "string"
                },
                {
                  "internalType": "uint256",
                  "name": "domain",
                  "type": "uint256"
                }
              ],
              "internalType": "struct JBProjectMetadata",
              "name": "projectMetadata",
              "type": "tuple"
            },
            {
              "internalType": "string",
              "name": "contractUri",
              "type": "string"
            },
            {
              "internalType": "string",
              "name": "baseUri",
              "type": "string"
            },
            {
              "components": [
                {
                  "internalType": "uint80",
                  "name": "price",
                  "type": "uint80"
                },
                {
                  "internalType": "uint16",
                  "name": "reservedRate",
                  "type": "uint16"
                },
                {
                  "internalType": "address",
                  "name": "reservedTokenBeneficiary",
                  "type": "address"
                },
                {
                  "internalType": "bytes32",
                  "name": "encodedIPFSUri",
                  "type": "bytes32"
                },
                {
                  "internalType": "bool",
                  "name": "shouldUseReservedTokenBeneficiaryAsDefault",
                  "type": "bool"
                },
                {
                  "internalType": "string",
                  "name": "name",
                  "type": "string"
                }
              ],
              "internalType": "struct DefifaTierParams[]",
              "name": "tiers",
              "type": "tuple[]"
            },
            {
              "internalType": "address",
              "name": "token",
              "type": "address"
            },
            {
              "internalType": "uint48",
              "name": "mintDuration",
              "type": "uint48"
            },
            {
              "internalType": "uint48",
              "name": "refundPeriodDuration",
              "type": "uint48"
            },
            {
              "internalType": "uint48",
              "name": "start",
              "type": "uint48"
            },
            {
              "internalType": "uint48",
              "name": "end",
              "type": "uint48"
            },
            {
              "components": [
                {
                  "internalType": "bool",
                  "name": "preferClaimed",
                  "type": "bool"
                },
                {
                  "internalType": "bool",
                  "name": "preferAddToBalance",
                  "type": "bool"
                },
                {
                  "internalType": "uint256",
                  "name": "percent",
                  "type": "uint256"
                },
                {
                  "internalType": "uint256",
                  "name": "projectId",
                  "type": "uint256"
                },
                {
                  "internalType": "address payable",
                  "name": "beneficiary",
                  "type": "address"
                },
                {
                  "internalType": "uint256",
                  "name": "lockedUntil",
                  "type": "uint256"
                },
                {
                  "internalType": "contract IJBSplitAllocator",
                  "name": "allocator",
                  "type": "address"
                }
              ],
              "internalType": "struct JBSplit[]",
              "name": "splits",
              "type": "tuple[]"
            },
            {
              "internalType": "uint88",
              "name": "distributionLimit",
              "type": "uint88"
            },
            {
              "internalType": "address payable",
              "name": "ballkidzFeeProjectTokenAccount",
              "type": "address"
            },
            {
              "internalType": "uint256",
              "name": "votingStartTime",
              "type": "uint256"
            },
            {
              "internalType": "uint256",
              "name": "votingPeriod",
              "type": "uint256"
            },
            {
              "internalType": "contract IJBTokenUriResolver",
              "name": "defaultTokenUriResolver",
              "type": "address"
            },
            {
              "internalType": "contract IJBPaymentTerminal",
              "name": "terminal",
              "type": "address"
            },
            {
              "internalType": "contract IJBTiered721DelegateStore",
              "name": "store",
              "type": "address"
            }
          ],
          "internalType": "struct DefifaLaunchProjectData",
          "name": "_launchProjectData",
          "type": "tuple"
        }
      ],
      "name": "launchGameWith",
      "outputs": [
        {
          "internalType": "uint256",
          "name": "gameId",
          "type": "uint256"
        },
        {
          "internalType": "contract IDefifaGovernor",
          "name": "governor",
          "type": "address"
        }
      ],
      "stateMutability": "nonpayable",
      "type": "function"
    },
    {
      "inputs": [
        {
          "internalType": "uint256",
          "name": "_gameId",
          "type": "uint256"
        }
      ],
      "name": "mintDurationOf",
      "outputs": [
        {
          "internalType": "uint256",
          "name": "",
          "type": "uint256"
        }
      ],
      "stateMutability": "view",
      "type": "function"
    },
    {
      "inputs": [
        {
          "internalType": "uint256",
          "name": "_gameId",
          "type": "uint256"
        }
      ],
      "name": "nextPhaseNeedsQueueing",
      "outputs": [
        {
          "internalType": "bool",
          "name": "",
          "type": "bool"
        }
      ],
      "stateMutability": "view",
      "type": "function"
    },
    {
      "inputs": [
        {
          "internalType": "address",
          "name": "",
          "type": "address"
        },
        {
          "internalType": "address",
          "name": "",
          "type": "address"
        },
        {
          "internalType": "uint256",
          "name": "",
          "type": "uint256"
        },
        {
          "internalType": "bytes",
          "name": "",
          "type": "bytes"
        }
      ],
      "name": "onERC721Received",
      "outputs": [
        {
          "internalType": "bytes4",
          "name": "",
          "type": "bytes4"
        }
      ],
      "stateMutability": "pure",
      "type": "function"
    },
    {
      "inputs": [],
      "name": "owner",
      "outputs": [
        {
          "internalType": "address",
          "name": "",
          "type": "address"
        }
      ],
      "stateMutability": "view",
      "type": "function"
    },
    {
      "inputs": [],
      "name": "protocolFeeProjectTokenAccount",
      "outputs": [
        {
          "internalType": "address",
          "name": "",
          "type": "address"
        }
      ],
      "stateMutability": "view",
      "type": "function"
    },
    {
      "inputs": [
        {
          "internalType": "uint256",
          "name": "_gameId",
          "type": "uint256"
        }
      ],
      "name": "queueNextPhaseOf",
      "outputs": [
        {
          "internalType": "uint256",
          "name": "configuration",
          "type": "uint256"
        }
      ],
      "stateMutability": "nonpayable",
      "type": "function"
    },
    {
      "inputs": [
        {
          "internalType": "uint256",
          "name": "_gameId",
          "type": "uint256"
        }
      ],
      "name": "refundPeriodDurationOf",
      "outputs": [
        {
          "internalType": "uint256",
          "name": "",
          "type": "uint256"
        }
      ],
      "stateMutability": "view",
      "type": "function"
    },
    {
      "inputs": [],
      "name": "renounceOwnership",
      "outputs": [],
      "stateMutability": "nonpayable",
      "type": "function"
    },
    {
      "inputs": [
        {
          "internalType": "uint256",
          "name": "_gameId",
          "type": "uint256"
        }
      ],
      "name": "startOf",
      "outputs": [
        {
          "internalType": "uint256",
          "name": "",
          "type": "uint256"
        }
      ],
      "stateMutability": "view",
      "type": "function"
    },
    {
      "inputs": [
        {
          "internalType": "uint256",
          "name": "_gameId",
          "type": "uint256"
        }
      ],
      "name": "terminalOf",
      "outputs": [
        {
          "internalType": "contract IJBPaymentTerminal",
          "name": "",
          "type": "address"
        }
      ],
      "stateMutability": "view",
      "type": "function"
    },
    {
      "inputs": [
        {
          "internalType": "uint256",
          "name": "_gameId",
          "type": "uint256"
        }
      ],
      "name": "timesFor",
      "outputs": [
        {
          "components": [
            {
              "internalType": "uint48",
              "name": "mintDuration",
              "type": "uint48"
            },
            {
              "internalType": "uint48",
              "name": "refundPeriodDuration",
              "type": "uint48"
            },
            {
              "internalType": "uint48",
              "name": "start",
              "type": "uint48"
            }
          ],
          "internalType": "struct DefifaTimeData",
          "name": "",
          "type": "tuple"
        }
      ],
      "stateMutability": "view",
      "type": "function"
    },
    {
      "inputs": [],
      "name": "tokenUriResolverCodeOrigin",
      "outputs": [
        {
          "internalType": "address",
          "name": "",
          "type": "address"
        }
      ],
      "stateMutability": "view",
      "type": "function"
    },
    {
      "inputs": [
        {
          "internalType": "address",
          "name": "newOwner",
          "type": "address"
        }
      ],
      "name": "transferOwnership",
      "outputs": [],
      "stateMutability": "nonpayable",
      "type": "function"
    }
  ],
  "bytecode": {
    "object": "0x61016034620001e157620041bc38819003601f8101601f191683016001600160401b03811184821017620001e65783928291604052833961010092839181010312620001e1576200005081620001fc565b906200005f60208201620001fc565b916200006e60408301620001fc565b60608301516001600160a01b0393919291908481168103620001e15760808201519485168503620001e157620000f693620000ac60a08401620001fc565b96620000c060e060c08601519501620001fc565b94620000cc3362000211565b6001600355601460055560a05260c05260e052865261012094855261014093845260805262000211565b60405191613f63938462000259853960805184818161187e015281816119bc0152818161272d015261367e015260a0518481816108110152612883015260c0518481816110d00152611d81015260e0518481816116b201526124540152518381816105440152818161089501528181610a39015281816110950152818161193e01528181611de101528181611f4d0152818161224e0152818161278201528181612da501528181613033015281816130cf0152818161344b0152818161361301528181613c570152613da501525182818161206801526125cc0152518181816111af0152611f0c0152f35b600080fd5b634e487b7160e01b600052604160045260246000fd5b51906001600160a01b0382168203620001e157565b600080546001600160a01b039283166001600160a01b03198216811783559216907f8be0079c531659141344cd1fd0a4f28419497f9722a3daafe3b4186f6b6457e09080a356fe608080604052600436101561001357600080fd5b600090813560e01c9081630589d292146128a75750806306b552b5146128635780630715610a146127505780630d75b3aa146127155780631109fff2146126e0578063150b7a02146126545780631c069dbb1461262d57806327655cfd146125f05780633f3090d9146125ac5780634fe0eced1461257957806367cb9c99146125505780636a1db1bf146124de578063715018a61461247857806380f079541461243457806381312a14146122215780638da5cb5b146121fb5780639a36f932146121dd578063b07925d314612158578063b41e7f4714612123578063ca449a2514611f30578063d574ff0414611eec578063f2fde38b14611e05578063f77c479114611dc1578063ff16a2f214611da5578063ff2a43cc14611d615763ff7e9a401461013f57600080fd5b346112b75760206003193601126112b75767ffffffffffffffff600435116112b757610240600319600435360301126112b7576040519061017f82612946565b6004356004013567ffffffffffffffff811161139f576101a6906004369181350101612a4b565b82526024600435013567ffffffffffffffff811161139f57600435016040600319823603011261139f57604051906101dd82612963565b600481013567ffffffffffffffff8111611a24579061020460249260043691840101612a4b565b83520135602082015260208301526044600435013567ffffffffffffffff811161139f57610239906004369181350101612a4b565b60408301526064600435013567ffffffffffffffff811161139f57610265906004369181350101612a4b565b60608301526084600435013567ffffffffffffffff811161139f57366023826004350101121561139f5761029f6004828135010135612a92565b906102ad6040519283612a0c565b600480358201908101358084526020840192913660059290921b0160240111611a24576024816004350101915b6004803583019081013560051b016024018310611c4457505050608083015261030760a4600435016128ec565b60a083015261031a60c460043501612ab7565b60c083015261032d60e460043501612ab7565b60e083015261034161010460043501612ab7565b61010083015261035661012460043501612ab7565b610120830152610144600435013567ffffffffffffffff811161139f57366023826004350101121561139f576103926004828135010135612a92565b906103a06040519283612a0c565b600480358201908101358084526020840192913660e09092020160240111611a24576024816004350101915b6004803583019081013560e002016024018310611bac5750505061014083015260043561016401356affffffffffffffffffffff811690036112b7576101646004350135610160830152610425610184600435016128ec565b6101808301526004356101a48101356101a08401526101c48101356101c08401526101e401356001600160a01b03811690036112b7576004356101e48101356101e084015261020401356001600160a01b03811690036112b75760043561020481013561020084015261022401356001600160a01b03811690036112b757610224600435013561022083015265ffffffffffff6101008301511615611b98575b6104ff6104ec65ffffffffffff6101008501511665ffffffffffff60e08601511690612e26565b65ffffffffffff60c08501511690612e26565b65ffffffffffff42911610611b6e576040517f8b79543c0000000000000000000000000000000000000000000000000000000081526020816004816001600160a01b037f0000000000000000000000000000000000000000000000000000000000000000165afa9081156112ba578291611b2b575b5060206001600160a01b03916004604051809481937f06661abd000000000000000000000000000000000000000000000000000000008352165afa9081156112ba578291611af9575b50600181018111611ae55765ffffffffffff60c08401511665ffffffffffff60e08501511665ffffffffffff61010086015116604051926105fd84612900565b83526020830191825260408301908152600184018552600160205265ffffffffffff604086209351167fffffffffffffffffffffffffffff00000000000000000000000000000000000071ffffffffffff0000000000000000000000006bffffffffffff0000000000008654955160301b16935160601b16931617171790556001600160a01b03610200840151166affffffffffffffffffffff610160850151166001600160a01b0360018160a08801511693604051906106bd82612900565b8152602081019485526040810193845281860187526002602052826040882091511673ffffffffffffffffffffffffffffffffffffffff19825416178155019251167fff000000000000000000000000000000000000000000000000000000000000007effffffffffffffffffffff00000000000000000000000000000000000000008454935160a01b16921617179055610140830151518061181c575b506080830151519261076c84612a92565b9361077a6040519586612a0c565b80855261078681612a92565b845b601f19820181106117bb575050608082015151906107be6107a883612a92565b926107b66040519485612a0c565b808452612a92565b855b601f19820181106117a5575050606060a06040516107dd8161297f565b87815287602082015287604082015287838201528760808201520152845b8181106116dd5750506001600160a01b036108357f0000000000000000000000000000000000000000000000000000000000000000613e93565b6101e0840151911694906001600160a01b0316156116a5576001600160a01b036101e084015116915b604051967fc41c2f240000000000000000000000000000000000000000000000000000000088526020886004816001600160a01b037f0000000000000000000000000000000000000000000000000000000000000000165afa9788156114b5578398611661575b5084518360018801807a184f03e93ff9f4daa797ed6e38ed64bf6a1f01000000000000000080821015611650575b506d04ee2d6d415b85acef810000000080821015611643575b50662386f26fc1000080821015611636575b506305f5e10080821015611629575b5061271081101561161a575b606481101561160c575b600a80911015611602575b6001830191816000196021601f1961097e61096888612a2f565b97610976604051998a612a0c565b808952612a2f565b019660208701973689378601015b01917f30313233343536373839616263646566000000000000000000000000000000008282061a8353049081156109c757600019839161098c565b5050506027610a1c91610a0c936040519485927f4445464946412000000000000000000000000000000000000000000000000000602085015251809285850190612fad565b8101036007810184520182612a0c565b60405163557e715560e01b81526020816004816001600160a01b037f0000000000000000000000000000000000000000000000000000000000000000165afa9081156115f75786916115c8575b5060608801516040890151916001600160a01b036102008b0151169360206001600160a01b0360a08d0151166024604051809881937f1982d67900000000000000000000000000000000000000000000000000000000835260048301525afa9485156115bd57908d9695949392918a95611586575b506001600160a01b036102208d0151169560405197610afc896129d4565b8b89528b60208a01528b60408a0152600160608a01523b1561158257928f989491928b97938f9799956040519b8c997ff78c488b000000000000000000000000000000000000000000000000000000008b5260010160048b01526001600160a01b031660248a01526044890161020090526102048901610b7b91612fd0565b8881036003190160648a0152610b9091612fd0565b906001600160a01b031660848801528681036003190160a4880152610bb491612fd0565b6001600160a01b038c1660c48701528581036003190160e4870152610bd891612fd0565b848103600319016101048601528351908181526020019360200190865b8181106114c0575050509060609165ffffffffffff859697166101248601526101448501528051151561016485015260208101511515610184850152604081015115156101a4850152015115156101c4830152306101e48301520381838b5af180156114b5579083916114a1575b50506001600160a01b036101e085015116156113ab575b5061020083015160a08401516040517fdf21a7dd0000000000000000000000000000000000000000000000000000000081526001600160a01b0391821660048201526001870160248201529160209183916044918391165afa9081156112ba57829161136d575b5015611343576103e06024604051610cf881612963565b60018152602036818301376001600160a01b0361020087015116610d1b82612e3e565b52611025602087015161101265ffffffffffff60c08a0151169160405192610d42846129d4565b8352876020840152876040840152876060840152604051610d6281612900565b888152886020820152886040820152610d8f604051610d8081612963565b8a815260016020820152613e16565b60405191610d9c83612946565b8252896020830152612710604083015261271060608301528960808301528960a08301528960c08301528960e08301528961010083015289610120830152896101408301528961016083015289610180830152896101a083015260016101c083015260016101e08301528d61020083015261022082015265ffffffffffff610e438c8260e0610e3982610100850151168360c08601511690612e26565b9201511690612e26565b610ff960405193610e53856129f0565b60008552610ef060405198610e678a6129f0565b60008a526040519d8e9d8e7fb3c5267300000000000000000000000000000000000000000000000000000000815230600482015201528c6104046020610ebb8b5160406103e4860152610424850190612fd0565b9a0151910152805160448e0152602081015160648e0152604081015160848e0152606001516001600160a01b031660a48d0152565b80518051151560c48d0152602080820151151560e48e015260409182015115156101048e01528201516101248d01528101516101448c015260608101516101648c0152608081015115156101848c015260a081015115156101a48c015260c081015115156101c48c015260e081015115156101e48c015261010081015115156102048c015261012081015115156102248c015261014081015115156102448c015261016081015115156102648c015261018081015115156102848c01526101a081015115156102a48c01526101c081015115156102c48c01526101e081015115156102e48c01526102008101516001600160a01b03166103048c015261022001516103248b0152565b1661034488015260031987830301610364880152612ec5565b9060031985830301610384860152613ce7565b600319838203016103a484015260208083519283815201920190855b81811061132157505050906040827f4465666966612067616d6520706861736520312e0000000000000000000000006020848196039260031984016103c48701526014815201520181856001600160a01b037f0000000000000000000000000000000000000000000000000000000000000000165af180156112ba576112f1575b506001600160a01b036110f47f0000000000000000000000000000000000000000000000000000000000000000613e93565b16926101c06101a0820151910151843b156112c557604051917f7a1ac61e00000000000000000000000000000000000000000000000000000000835287600484015260248301526044820152818160648183885af180156112ba579082916112dd575b5050843b156112b7576040517ff2fde38b0000000000000000000000000000000000000000000000000000000081528360048201528181602481838a5af180156112ba579082916112c9575b50506001600160a01b037f000000000000000000000000000000000000000000000000000000000000000016600354813b156112c5576040517f5bcfd21200000000000000000000000000000000000000000000000000000000815230600482015260248101919091529082908290604490829084905af180156112ba579082916112a3575b5050600354906003820180921161128f57509382916040956003556001600160a01b038651911681523360208201527f3082991f3dda023098e5849ea3903c6fbfd657dc6f9232f5eb81ad8a7ba161d6866001870192a460018351920182526020820152f35b80634e487b7160e01b602492526011600452fd5b6112ac90612932565b6112b7578086611229565b80fd5b6040513d84823e3d90fd5b8280fd5b6112d290612932565b6112b75780866111a3565b6112e690612932565b6112b7578086611157565b602090813d831161131a575b6113078183612a0c565b8101031261131557856110c2565b600080fd5b503d6112fd565b82516001600160a01b0316845285945060209384019390920191600101611041565b60046040517f3727b396000000000000000000000000000000000000000000000000000000008152fd5b90506020813d6020116113a3575b8161138860209383612a0c565b8101031261139f5761139990612b7c565b86610ce1565b5080fd5b3d915061137b565b6001600160a01b0383163b1561139f578160405180927f94e6f56f000000000000000000000000000000000000000000000000000000008252604482018960048401526040602484015281518091526064830190602060648260051b86010193019185905b828210611454575050505081900381836001600160a01b0388165af180156112ba57908291611440575b50610c7a565b61144990612932565b6112b757808661143a565b929550926020611490827fffffffffffffffffffffffffffffffffffffffffffffffffffffffffffffff9c600195988495030186528851612fd0565b960192019201928593879593611410565b6114aa90612932565b61139f578187610c63565b6040513d85823e3d90fd5b929550929550959260206101606001926101408a516cffffffffffffffffffffffffff815116835263ffffffff80868301511686850152604082015116604084015261ffff60608201511660608401526001600160a01b03608082015116608084015260a081015160a084015262ffffff60c08201511660c084015260e0810151151560e08401526101008101511515610100840152610120810151151561012084015201511515610140820152019701910190899592889592979497610bf5565b8a80fd5b965093506020863d6020116115b5575b816115a360209383612a0c565b81010312611315578c95519338610ade565b3d9150611596565b6040513d8b823e3d90fd5b6115ea915060203d6020116115f0575b6115e28183612a0c565b810190612aca565b38610a69565b503d6115d8565b6040513d88823e3d90fd5b916001019161094e565b606460029104920191610943565b61271060049104920191610939565b600891049201913861092d565b601091049201913861091e565b602091049201913861090c565b6040935060018b01049050386108f3565b9097506020813d60201161169d575b8161167d60209383612a0c565b810103126112c557516001600160a01b03811681036112c55796386108c5565b3d9150611670565b6001600160a01b036116d67f0000000000000000000000000000000000000000000000000000000000000000613e93565b169161085e565b8060a06116f06001936080880151612e61565b5169ffffffffffffffffffff81511661ffff6020830151166001600160a01b03604084015116606084015190608085015115159260405194611731866129b7565b8552633b9ac9ff602086015288604086015260608501526080840152848301528a60c08301528a60e0830152610100820152896101208201528461014082015261177b848c612e61565b52611786838b612e61565b5001516117938286612e61565b5261179e8185612e61565b50016107fb565b602081606082601f1994880101520190506107c0565b6020601f19916040516117cd816129b7565b88815288838201528860408201528860608201528860808201528860a08201528860c08201528860e082015288610100820152886101208201528861014082015282828b010152019050610788565b600554908115611ad157839084905b808210611a92575050633b9aca0090828204820390828211611a7e5703611a54576118cc916001600160a01b0361018087015116906040519261186d8461299b565b8684528660208501520460408301527f0000000000000000000000000000000000000000000000000000000000000000606083015260808201528360a08201528360c08201526101408501518051916118c68383612e61565b52612e61565b506118d5612e75565b610140840151604051906118e882612963565b60018401825260208201526118fc82612e3e565b5261190681612e3e565b50604051907f2bdfe0040000000000000000000000000000000000000000000000000000000082526020826004816001600160a01b037f0000000000000000000000000000000000000000000000000000000000000000165afa918215611a49578492611a28575b506001600160a01b0382163b15611a24576119f76001600160a01b03928592836040519586809581947ff2da44b60000000000000000000000000000000000000000000000000000000083527f00000000000000000000000000000000000000000000000000000000000000006004840152846024840152606060448401526064830190612ec5565b0393165af180156114b557908391611a10575b5061075b565b611a1990612932565b61139f578138611a0a565b8380fd5b611a4291925060203d6020116115f0576115e28183612a0c565b903861196e565b6040513d86823e3d90fd5b60046040517f48270162000000000000000000000000000000000000000000000000000000008152fd5b602486634e487b7160e01b81526011600452fd5b90916040611aa5846101408a0151612e61565b5101518101809111611abb57916001019061182b565b634e487b7160e01b600052601160045260246000fd5b602484634e487b7160e01b81526012600452fd5b602482634e487b7160e01b81526011600452fd5b90506020813d602011611b23575b81611b1460209383612a0c565b810103126113155751386105bd565b3d9150611b07565b90506020813d602011611b66575b81611b4660209383612a0c565b8101031261139f57516001600160a01b038116810361139f576020610574565b3d9150611b39565b60046040517f74f88142000000000000000000000000000000000000000000000000000000008152fd5b65ffffffffffff42166101008301526104c5565b60e083360312611c4057604051611bc28161299b565b611bcb84612aaa565b8152611bd960208501612aaa565b60208201526040840135604082015260608401356060820152611bfe608085016128ec565b608082015260a0848101359082015260c08401356001600160a01b0381169003611c3c5760c08481013590820152815260e0909201916020016103cc565b8580fd5b8480fd5b823567ffffffffffffffff8111611c3c5760c07fffffffffffffffffffffffffffffffffffffffffffffffffffffffffffffffdc8285600435010136030112611c3c5760405190611c948261297f565b600435840181016024013569ffffffffffffffffffff81169003611d5d5760043584018101602481013583526044013561ffff81169003611d5d576004358401810160448101356020840152611cec906064016128ec565b60408301526004358401810160848101356060840152611d0e9060a401612aaa565b608083015267ffffffffffffffff60c482866004350101013511611d5d5760209283929091611d4d90369060043588010160c481013501602401612a4b565b60a08201528152019201916102da565b8680fd5b50346112b757806003193601126112b75760206040516001600160a01b037f0000000000000000000000000000000000000000000000000000000000000000168152f35b50346112b757806003193601126112b757602090604051908152f35b50346112b757806003193601126112b75760206040516001600160a01b037f0000000000000000000000000000000000000000000000000000000000000000168152f35b50346112b75760206003193601126112b757611e1f6128d6565b611e27613e3b565b6001600160a01b03809116908115611e82576000548273ffffffffffffffffffffffffffffffffffffffff19821617600055167f8be0079c531659141344cd1fd0a4f28419497f9722a3daafe3b4186f6b6457e0600080a380f35b608460405162461bcd60e51b815260206004820152602660248201527f4f776e61626c653a206e6577206f776e657220697320746865207a65726f206160448201527f64647265737300000000000000000000000000000000000000000000000000006064820152fd5b50346112b757806003193601126112b75760206040516001600160a01b037f0000000000000000000000000000000000000000000000000000000000000000168152f35b50346112b757806003193601126112b7576001600160a01b0381817f00000000000000000000000000000000000000000000000000000000000000001691604051907f6193063000000000000000000000000000000000000000000000000000000000938483526020928381600481855afa908115612118578491849187916120fb575b50169560046040518094819382525afa908115611a49578291849186916120de575b506044604051809481937f5287af3700000000000000000000000000000000000000000000000000000000835230600484015260016024840152165afa928315611a495784936120ae575b5050833b156112c5576084908360405195869485937fac689bcd000000000000000000000000000000000000000000000000000000008552306004860152600160248601527f000000000000000000000000000000000000000000000000000000000000000016604485015260648401525af180156112ba576120a2575080f35b6120ab90612932565b80f35b9080929350813d83116120d7575b6120c68183612a0c565b810103126112c55751903880612021565b503d6120bc565b6120f59150823d84116115f0576115e28183612a0c565b38611fd6565b6121129150833d85116115f0576115e28183612a0c565b38611fb4565b6040513d87823e3d90fd5b50346112b75760206003193601126112b75765ffffffffffff6040602092600435815260018452205460601c16604051908152f35b50346112b75760206003193601126112b75760408160609282805161217c81612900565b828152826020820152015260043581526001602052206040519061219f82612900565b5465ffffffffffff9081808216938481528160406020830192828660301c1684520193871c1683526040519485525116602084015251166040820152f35b50346112b757806003193601126112b7576020600554604051908152f35b50346112b757806003193601126112b7576001600160a01b036020915416604051908152f35b50346112b757602090816003193601126112b75760405163557e715560e01b808252916001600160a01b037f0000000000000000000000000000000000000000000000000000000000000000811660048035908790869081855afa948515611a49578495612413575b5082939495604051967f43a266c200000000000000000000000000000000000000000000000000000000885282600489015287602481610120988994165afa9687156115f75790889187986123d7575b5060046040518095819382525afa918215612118579084929186926123b5575b5060249060405194859384927f5c5500780000000000000000000000000000000000000000000000000000000084526004840152165afa9283156123a957809361236d575b5050508260808301511515928361235c575b506040518315158152f35b810151910151149050388281612351565b90918093503d84116123a2575b6123848184612a0c565b820192828403126112b757509061239a91612ae9565b38808061233f565b503d61237a565b604051903d90823e3d90fd5b60249192506123d090893d8b116115f0576115e28183612a0c565b91906122fa565b91509650843d861161240c575b6123ee8183612a0c565b8101908581830312611d5d57889161240591612ae9565b96386122da565b503d6123e4565b8394955061242d90883d8a116115f0576115e28183612a0c565b949361228a565b50346112b757806003193601126112b75760206040516001600160a01b037f0000000000000000000000000000000000000000000000000000000000000000168152f35b50346112b757806003193601126112b757612491613e3b565b806001600160a01b03815473ffffffffffffffffffffffffffffffffffffffff1981168355167f8be0079c531659141344cd1fd0a4f28419497f9722a3daafe3b4186f6b6457e08280a380f35b50346112b75760206003193601126112b7576004356124fb613e3b565b600581116125265780156125125760640460055580f35b602482634e487b7160e01b81526012600452fd5b60046040517f42c9b523000000000000000000000000000000000000000000000000000000008152fd5b50346112b75760206003193601126112b757602061256f600435612d50565b6040519015158152f35b50346112b75760206003193601126112b7576001600160a01b036040602092600435815260028452205416604051908152f35b50346112b757806003193601126112b75760206040516001600160a01b037f0000000000000000000000000000000000000000000000000000000000000000168152f35b50346112b75760206003193601126112b7576affffffffffffffffffffff6001604060209360043581526002855220015460a01c16604051908152f35b50346112b75760206003193601126112b757602061264c600435612ff5565b604051908152f35b50346112b75760806003193601126112b75761266e6128d6565b506024356001600160a01b038116036112b75760643567ffffffffffffffff8082116112c557366023830112156112c55781600401359081116112c557369101602401116112b75760206040517f150b7a02000000000000000000000000000000000000000000000000000000008152f35b50346112b75760206003193601126112b75765ffffffffffff6040602092600435815260018452205460301c16604051908152f35b50346112b757806003193601126112b75760206040517f00000000000000000000000000000000000000000000000000000000000000008152f35b50346112b75760206003193601126112b7576040519063557e715560e01b82526001600160a01b0391602081600481867f0000000000000000000000000000000000000000000000000000000000000000165afa9081156112ba578291612845575b50604051907f43a266c2000000000000000000000000000000000000000000000000000000008252600435600483015281602481610120968794165afa9182156123a9578092612809575b60208351604051908152f35b909150823d841161283e575b61281f8184612a0c565b820192828403126112b7575060209161283791612ae9565b38806127fd565b503d612815565b61285d915060203d81116115f0576115e28183612a0c565b386127b2565b50346112b757806003193601126112b75760206040516001600160a01b037f0000000000000000000000000000000000000000000000000000000000000000168152f35b90503461139f57602060031936011261139f5765ffffffffffff60406020936004358152600185522054168152f35b600435906001600160a01b038216820361131557565b35906001600160a01b038216820361131557565b6060810190811067ffffffffffffffff82111761291c57604052565b634e487b7160e01b600052604160045260246000fd5b67ffffffffffffffff811161291c57604052565b610240810190811067ffffffffffffffff82111761291c57604052565b6040810190811067ffffffffffffffff82111761291c57604052565b60c0810190811067ffffffffffffffff82111761291c57604052565b60e0810190811067ffffffffffffffff82111761291c57604052565b610160810190811067ffffffffffffffff82111761291c57604052565b6080810190811067ffffffffffffffff82111761291c57604052565b6020810190811067ffffffffffffffff82111761291c57604052565b90601f601f19910116810190811067ffffffffffffffff82111761291c57604052565b67ffffffffffffffff811161291c57601f01601f191660200190565b81601f8201121561131557803590612a6282612a2f565b92612a706040519485612a0c565b8284526020838301011161131557816000926020809301838601378301015290565b67ffffffffffffffff811161291c5760051b60200190565b3590811515820361131557565b359065ffffffffffff8216820361131557565b9081602091031261131557516001600160a01b03811681036113155790565b80929161012091829103126113155760405190810181811067ffffffffffffffff82111761291c576040528092805182526020810151602083015260408101516040830152606081015160608301526080810151608083015260a081015160a083015260c081015160c083015260e08101516001600160a01b03811681036113155760e083015261010080910151910152565b5190811515820361131557565b80820392916103a0841261131557612bc27ffffffffffffffffffffffffffffffffffffffffffffffffffffffffffffffee09183612ae9565b93019061028080831261131557606060405193612bde85612946565b1261131557612c8f91604051612bf381612900565b61012090612c02828401612b7c565b815261014090612c13828501612b7c565b602082015261016090612c27828601612b7c565b604082015287526101808085015160208901526101a0918286015160408a01526101c0938487015160608b01526101e095612c63878901612b7c565b60808c0152612cc0610200998c60a0612c7d8d8d01612b7c565b9101528c60c06102209d8e8d01612b7c565b9101528c60e0612ca26102408d01612b7c565b9101528c610100612cb66102608d01612b7c565b9101528901612b7c565b908b0152612cd16102a08801612b7c565b908a0152612ce26102c08701612b7c565b90890152612cf36102e08601612b7c565b90880152612d046103008501612b7c565b90870152612d156103208401612b7c565b90860152612d266103408301612b7c565b908501526103608101516001600160a01b0381168103611315576103809285015201519082015290565b80600052600460205260ff60406000205416612e20576040517f8776c4990000000000000000000000000000000000000000000000000000000081528160048201526103a09182826024816001600160a01b037f0000000000000000000000000000000000000000000000000000000000000000165afa918215612e1457612de193600093612de4575b5050613d5b565b90565b612e04929350803d10612e0d575b612dfc8183612a0c565b810190612b89565b50903880612dda565b503d612df2565b6040513d6000823e3d90fd5b50600190565b65ffffffffffff9182169082160391908211611abb57565b805115612e4b5760200190565b634e487b7160e01b600052603260045260246000fd5b8051821015612e4b5760209160051b010190565b604090815191612e8483612963565b600183528291600091825b602080821015612ebc57825160209291612ea882612963565b868252606081830152828901015201612e8f565b50505091925050565b90815180825260208092019182818360051b8501950193600080925b858410612ef2575050505050505090565b9091929387828297989903855288519060408381830193805184520151928185840152835180915284606080940194019287925b828410612f485750505050509080600192990194019401929594939190612ee1565b91939560e06001929496885180511515825283810151151584830152858101518683015286810151878301526001600160a01b0360808181840151169084015260a0808301519084015260c08092015116908201520196019401918a95949391612f26565b60005b838110612fc05750506000910152565b8181015183820152602001612fb0565b90601f19601f602093612fee81518092818752878088019101612fad565b0116010190565b604051907f8776c4990000000000000000000000000000000000000000000000000000000082528060048301526103a0826024816001600160a01b037f0000000000000000000000000000000000000000000000000000000000000000165afa918215612e14576000908193613cc1575b5081600052600460205260ff604060002054168015613cb5575b613c8b5761308e8183613d5b565b613b1a576040517f12b37b140000000000000000000000000000000000000000000000000000000081528260048201526103a0816024816001600160a01b037f0000000000000000000000000000000000000000000000000000000000000000165afa908115612e1457600091613af8575b5060208083015191015103613ace57516001036134ae5760209060406001600160a01b0361020080950151168260005260018452816000209482519561314587612900565b54958365ffffffffffff8089168352808960301c1698898985015260601c16910152825195613173876129d4565b86526000858701526000838701526000606087015282519161319483612900565b600083526000868401526000848401526131c184516131b281612963565b60008152600188820152613e16565b918451936131ce85612946565b84526000878501526127108086860152606085015260016080850152600060a0850152600060c0850152600060e08501526000610100850152600061012085015260006101408501526000610160850152600061018085015260006101a085015260016101c085015260016101e08501528301526102208201527f4465666966612067616d6520706861736520322e0000000000000000000000008461342b613417855161327b816129f0565b600081526133fb87519661328e886129f0565b600088526132f389519c8d9b7fbadbdf28000000000000000000000000000000000000000000000000000000008d5260048d015260248c01906001600160a01b0360608092805185526020810151602086015260408101516040860152015116910152565b80518051151560a48c0152602080820151151560c48d0152604091820151151560e48d01528201516101048c01528101516101248b015260608101516101448b0152608081015115156101648b015260a081015115156101848b015260c081015115156101a48b015260e081015115156101c48b015261010081015115156101e48b015261012081015115156102048b015261014081015115156102248b015261016081015115156102448b015261018081015115156102648b01526101a081015115156102848b01526101c081015115156102a48b01526101e081015115156102c48b01526102008101516001600160a01b03166102e48b015261022001516103048a0152565b60006103248901526103a06103448901526103a4880190612ec5565b600319948588830301610364890152613ce7565b858103938401610384870152601481520152018160006001600160a01b037f0000000000000000000000000000000000000000000000000000000000000000165af1908115612e145760009161347f575090565b906020823d6020116134a6575b8161349960209383612a0c565b810103126112b757505190565b3d915061348c565b906102006001600160a01b03910151169080600052600260205260406000206affffffffffffffffffffff6001604051926134e884612900565b6001600160a01b03815416845201546001600160a01b038116602084015260a01c1660408201526040519061351c82612963565b6001825260005b60208110613a8d57506001600160a01b038151166001600160a01b036020830151166affffffffffffffffffffff604084015116604051917f1982d679000000000000000000000000000000000000000000000000000000008352806004840152602083602481875afa928315612e1457600093613a59575b50604051936135aa8561297f565b845260208401526040830152606082015260006080820152600060a08201526135d283612e3e565b526135dc82612e3e565b506040517f2bdfe0040000000000000000000000000000000000000000000000000000000081526020816004816001600160a01b037f0000000000000000000000000000000000000000000000000000000000000000165afa908115612e14576001600160a01b03916000918291613a3a575b506064604051809481937f69e11cc50000000000000000000000000000000000000000000000000000000083527f00000000000000000000000000000000000000000000000000000000000000006004840152856024840152896044840152165afa908115612e14576000916138e7575b50917f4465666966612067616d6520706861736520332e000000000000000000000000602061342b6134176040958398976000815115156000146138d157506001600160a01b0385613710612e75565b9301511661eeee81036138cb57506001905b88519161372e83612963565b82528582015261373d82612e3e565b5261374781612e3e565b505b8760005260018452866000208780519161376283612900565b5465ffffffffffff908181168452818160301c168885015260601c169101526133fb87519a6137908c6129d4565b60008c526000868d01526000898d0152600060608d01528851906137b382612900565b6000825260008783015260008a8301526137e08a516137d181612963565b60008152600089820152613e16565b908a51926137ed84612946565b8352600088840152612710808c850152606084015260016080840152600060a0840152600060c0840152600060e08401526000610100840152600061012084015260006101408401526000610160840152600061018084015260006101a084015260016101c084015260016101e08401526102008301526102208201526132f389519c8d9b7fbadbdf28000000000000000000000000000000000000000000000000000000008d5260048d015260248c01906001600160a01b0360608092805185526020810151602086015260408101516040860152015116910152565b90613722565b9150508651906138e0826129f0565b8152613749565b903d8082843e6138f78184612a0c565b602083828101031261139f5782519167ffffffffffffffff83116112b757818401601f8486010112156112b757828401519161393283612a92565b946139406040519687612a0c565b8386526020860194828201602060e08702838501010111611a2457602081830101955b602060e08702838501010187106139a357507f4465666966612067616d6520706861736520332e00000000000000000000000095506136c0945050505050565b60e0878585010312611c40576040516139bb8161299b565b6139c488612b7c565b81526139d260208901612b7c565b6020820152604088015160408201526060880151606082015260808801516001600160a01b0381168103611d5d57608082015260a088015160a082015260c08801516001600160a01b0381168103611d5d5760c0820152815260e09690960195602001613963565b613a53915060203d6020116115f0576115e28183612a0c565b3861364f565b90926020823d602011613a85575b81613a7460209383612a0c565b810103126112b7575051913861359c565b3d9150613a67565b602090604051613a9c8161297f565b60008152600083820152600060408201526000606082015260006080820152600060a082015282828601015201613523565b60046040517f11f43385000000000000000000000000000000000000000000000000000000008152fd5b613b1391506103a03d6103a011612e0d57612dfc8183612a0c565b5038613100565b5060209060406001600160a01b036102008095015116815194613b3c866129d4565b6000865260008587015260008387015260006060870152825191613b5f83612900565b60008352600086840152600084840152613b7d84516131b281612963565b91845193613b8a85612946565b84526000878501526127108086860152606085015260016080850152600060a0850152600060c0850152600060e08501526000610100850152600061012085015260006101408501526000610160850152600061018085015260006101a085015260016101c085015260016101e08501528301526102208201527f446566696661206e6f20636f6e746573742e000000000000000000000000000084613c37613417855161327b816129f0565b858103938401610384870152601281520152018160006001600160a01b037f0000000000000000000000000000000000000000000000000000000000000000165af1908115612e145760009161347f575090565b60046040517fdc7a2515000000000000000000000000000000000000000000000000000000008152fd5b50608081015115613080565b9050613cdf9192506103a03d6103a011612e0d57612dfc8183612a0c565b919038613066565b90815180825260208080930193019160005b828110613d07575050505090565b835180516001600160a01b03908116875281840151168684015260408082015190870152606080820151908701526080808201519087015260a0908101519086015260c09094019392810192600101613cf9565b906040810151604051927fa40bb9c7000000000000000000000000000000000000000000000000000000008452600484015260248301526103a09182816044816001600160a01b037f0000000000000000000000000000000000000000000000000000000000000000165afa928315612e1457600093613df6575b50505190519060018201809211611abb5703613df157600090565b600190565b613e0d929350803d10612e0d57612dfc8183612a0c565b50903880613dd6565b906000918051613e32575b60200151613e2b57565b9060021790565b60019250613e21565b6001600160a01b03600054163303613e4f57565b606460405162461bcd60e51b815260206004820152602060248201527f4f776e61626c653a2063616c6c6572206973206e6f7420746865206f776e65726044820152fd5b6e5af43d82803e903d91602b57fd5bf390763d602d80600a3d3981f3363d3d373d3d3d363d7300000062ffffff8260881c161760005260781b17602052603760096000f0906001600160a01b03821615613ee957565b606460405162461bcd60e51b815260206004820152601660248201527f455243313136373a20637265617465206661696c6564000000000000000000006044820152fdfea26469706673582212204208697be28131f3de21bc707244085444b502b31d49f29d39a93b790df988cd64736f6c63430008140033",
    "linkReferences": {}
  },
  "methodIdentifiers": {
    "SPLIT_DOMAIN()": "ff16a2f2",
    "ballkidzProjectId()": "0d75b3aa",
    "changeFee(uint256)": "6a1db1bf",
    "claimProtocolProjectToken()": "ca449a25",
    "controller()": "f77c4791",
    "currentGamePhaseOf(uint256)": "0715610a",
    "delegateCodeOrigin()": "06b552b5",
    "delegatesRegistry()": "d574ff04",
    "distributionLimit(uint256)": "27655cfd",
    "feeDivisor()": "9a36f932",
    "governorCodeOrigin()": "ff2a43cc",
    "isNoContest(uint256)": "67cb9c99",
    "launchGameWith((string,(string,uint256),string,string,(uint80,uint16,address,bytes32,bool,string)[],address,uint48,uint48,uint48,uint48,(bool,bool,uint256,uint256,address,uint256,address)[],uint88,address,uint256,uint256,address,address,address))": "ff7e9a40",
    "mintDurationOf(uint256)": "0589d292",
    "nextPhaseNeedsQueueing(uint256)": "81312a14",
    "onERC721Received(address,address,uint256,bytes)": "150b7a02",
    "owner()": "8da5cb5b",
    "protocolFeeProjectTokenAccount()": "3f3090d9",
    "queueNextPhaseOf(uint256)": "1c069dbb",
    "refundPeriodDurationOf(uint256)": "1109fff2",
    "renounceOwnership()": "715018a6",
    "startOf(uint256)": "b41e7f47",
    "terminalOf(uint256)": "4fe0eced",
    "timesFor(uint256)": "b07925d3",
    "tokenUriResolverCodeOrigin()": "80f07954",
    "transferOwnership(address)": "f2fde38b"
  },
  "id": 1
}