{
  "abi": [
    {
      "inputs": [
        {
          "internalType": "address",
          "name": "_delegateCodeOrigin",
          "type": "address"
        },
        {
          "internalType": "address",
          "name": "_governorCodeOrigin",
          "type": "address"
        },
        {
          "internalType": "address",
          "name": "_tokenUriResolverCodeOrigin",
          "type": "address"
        },
        {
          "internalType": "contract IJBController3_1",
          "name": "_controller",
          "type": "address"
        },
        {
          "internalType": "contract IJBDelegatesRegistry",
          "name": "_delegatesRegistry",
          "type": "address"
        },
        {
          "internalType": "address",
          "name": "_protocolFeeProjectTokenAccount",
          "type": "address"
        },
        {
          "internalType": "uint256",
          "name": "_ballkidzProjectId",
          "type": "uint256"
        },
        {
          "internalType": "address",
          "name": "_owner",
          "type": "address"
        }
      ],
      "stateMutability": "nonpayable",
      "type": "constructor"
    },
    {
      "inputs": [],
      "name": "GAME_OVER",
      "type": "error"
    },
    {
      "inputs": [],
      "name": "INVALID_FEE_PERCENT",
      "type": "error"
    },
    {
      "inputs": [],
      "name": "INVALID_GAME_CONFIGURATION",
      "type": "error"
    },
    {
      "inputs": [],
      "name": "PHASE_ALREADY_QUEUED",
      "type": "error"
    },
    {
      "inputs": [],
      "name": "SPLITS_DONT_ADD_UP",
      "type": "error"
    },
    {
      "inputs": [],
      "name": "UNEXPECTED_TERMINAL_CURRENCY",
      "type": "error"
    },
    {
      "anonymous": false,
      "inputs": [
        {
          "indexed": true,
          "internalType": "uint256",
          "name": "gameId",
          "type": "uint256"
        },
        {
          "indexed": true,
          "internalType": "contract IDefifaDelegate",
          "name": "delegate",
          "type": "address"
        },
        {
          "indexed": true,
          "internalType": "contract IDefifaGovernor",
          "name": "governor",
          "type": "address"
        },
        {
          "indexed": false,
          "internalType": "contract IJBTokenUriResolver",
          "name": "tokenUriResolver",
          "type": "address"
        },
        {
          "indexed": false,
          "internalType": "address",
          "name": "caller",
          "type": "address"
        }
      ],
      "name": "LaunchGame",
      "type": "event"
    },
    {
      "anonymous": false,
      "inputs": [
        {
          "indexed": true,
          "internalType": "address",
          "name": "previousOwner",
          "type": "address"
        },
        {
          "indexed": true,
          "internalType": "address",
          "name": "newOwner",
          "type": "address"
        }
      ],
      "name": "OwnershipTransferred",
      "type": "event"
    },
    {
      "inputs": [],
      "name": "SPLIT_DOMAIN",
      "outputs": [
        {
          "internalType": "uint256",
          "name": "",
          "type": "uint256"
        }
      ],
      "stateMutability": "view",
      "type": "function"
    },
    {
      "inputs": [],
      "name": "ballkidzProjectId",
      "outputs": [
        {
          "internalType": "uint256",
          "name": "",
          "type": "uint256"
        }
      ],
      "stateMutability": "view",
      "type": "function"
    },
    {
      "inputs": [
        {
          "internalType": "uint256",
          "name": "_percent",
          "type": "uint256"
        }
      ],
      "name": "changeFee",
      "outputs": [],
      "stateMutability": "nonpayable",
      "type": "function"
    },
    {
      "inputs": [],
      "name": "claimProtocolProjectToken",
      "outputs": [],
      "stateMutability": "nonpayable",
      "type": "function"
    },
    {
      "inputs": [],
      "name": "controller",
      "outputs": [
        {
          "internalType": "contract IJBController3_1",
          "name": "",
          "type": "address"
        }
      ],
      "stateMutability": "view",
      "type": "function"
    },
    {
      "inputs": [
        {
          "internalType": "uint256",
          "name": "_gameId",
          "type": "uint256"
        }
      ],
      "name": "currentGamePhaseOf",
      "outputs": [
        {
          "internalType": "enum DefifaGamePhase",
          "name": "",
          "type": "uint8"
        }
      ],
      "stateMutability": "view",
      "type": "function"
    },
    {
      "inputs": [],
      "name": "delegateCodeOrigin",
      "outputs": [
        {
          "internalType": "address",
          "name": "",
          "type": "address"
        }
      ],
      "stateMutability": "view",
      "type": "function"
    },
    {
      "inputs": [],
      "name": "delegatesRegistry",
      "outputs": [
        {
          "internalType": "contract IJBDelegatesRegistry",
          "name": "",
          "type": "address"
        }
      ],
      "stateMutability": "view",
      "type": "function"
    },
    {
      "inputs": [
        {
          "internalType": "uint256",
          "name": "_gameId",
          "type": "uint256"
        }
      ],
      "name": "distributionOpsOf",
      "outputs": [
        {
          "components": [
            {
              "internalType": "contract IJBPaymentTerminal",
              "name": "terminal",
              "type": "address"
            },
            {
              "internalType": "address",
              "name": "token",
              "type": "address"
            },
            {
              "internalType": "uint88",
              "name": "distributionLimit",
              "type": "uint88"
            }
          ],
          "internalType": "struct DefifaDistributionOpsData",
          "name": "",
          "type": "tuple"
        }
      ],
      "stateMutability": "view",
      "type": "function"
    },
    {
      "inputs": [],
      "name": "feeDivisor",
      "outputs": [
        {
          "internalType": "uint256",
          "name": "",
          "type": "uint256"
        }
      ],
      "stateMutability": "view",
      "type": "function"
    },
    {
      "inputs": [],
      "name": "governorCodeOrigin",
      "outputs": [
        {
          "internalType": "address",
          "name": "",
          "type": "address"
        }
      ],
      "stateMutability": "view",
      "type": "function"
    },
    {
      "inputs": [
        {
          "components": [
            {
              "internalType": "string",
              "name": "name",
              "type": "string"
            },
            {
              "components": [
                {
                  "internalType": "string",
                  "name": "content",
                  "type": "string"
                },
                {
                  "internalType": "uint256",
                  "name": "domain",
                  "type": "uint256"
                }
              ],
              "internalType": "struct JBProjectMetadata",
              "name": "projectMetadata",
              "type": "tuple"
            },
            {
              "internalType": "string",
              "name": "contractUri",
              "type": "string"
            },
            {
              "internalType": "string",
              "name": "baseUri",
              "type": "string"
            },
            {
              "components": [
                {
                  "internalType": "uint80",
                  "name": "price",
                  "type": "uint80"
                },
                {
                  "internalType": "uint16",
                  "name": "reservedRate",
                  "type": "uint16"
                },
                {
                  "internalType": "address",
                  "name": "reservedTokenBeneficiary",
                  "type": "address"
                },
                {
                  "internalType": "bytes32",
                  "name": "encodedIPFSUri",
                  "type": "bytes32"
                },
                {
                  "internalType": "bool",
                  "name": "shouldUseReservedTokenBeneficiaryAsDefault",
                  "type": "bool"
                },
                {
                  "internalType": "string",
                  "name": "name",
                  "type": "string"
                }
              ],
              "internalType": "struct DefifaTierParams[]",
              "name": "tiers",
              "type": "tuple[]"
            },
            {
              "internalType": "address",
              "name": "token",
              "type": "address"
            },
            {
              "internalType": "uint48",
              "name": "mintDuration",
              "type": "uint48"
            },
            {
              "internalType": "uint48",
              "name": "refundDuration",
              "type": "uint48"
            },
            {
              "internalType": "uint48",
              "name": "start",
              "type": "uint48"
            },
            {
              "components": [
                {
                  "internalType": "bool",
                  "name": "preferClaimed",
                  "type": "bool"
                },
                {
                  "internalType": "bool",
                  "name": "preferAddToBalance",
                  "type": "bool"
                },
                {
                  "internalType": "uint256",
                  "name": "percent",
                  "type": "uint256"
                },
                {
                  "internalType": "uint256",
                  "name": "projectId",
                  "type": "uint256"
                },
                {
                  "internalType": "address payable",
                  "name": "beneficiary",
                  "type": "address"
                },
                {
                  "internalType": "uint256",
                  "name": "lockedUntil",
                  "type": "uint256"
                },
                {
                  "internalType": "contract IJBSplitAllocator",
                  "name": "allocator",
                  "type": "address"
                }
              ],
              "internalType": "struct JBSplit[]",
              "name": "splits",
              "type": "tuple[]"
            },
            {
              "internalType": "uint88",
              "name": "distributionLimit",
              "type": "uint88"
            },
            {
              "internalType": "address payable",
              "name": "ballkidzFeeProjectTokenAccount",
              "type": "address"
            },
            {
              "internalType": "uint256",
              "name": "votingStartTime",
              "type": "uint256"
            },
            {
              "internalType": "uint256",
              "name": "votingPeriod",
              "type": "uint256"
            },
            {
              "internalType": "address",
              "name": "defaultVotingDelegate",
              "type": "address"
            },
            {
              "internalType": "contract IJBTokenUriResolver",
              "name": "defaultTokenUriResolver",
              "type": "address"
            },
            {
              "internalType": "contract IJBPaymentTerminal",
              "name": "terminal",
              "type": "address"
            },
            {
              "internalType": "contract IJBTiered721DelegateStore",
              "name": "store",
              "type": "address"
            }
          ],
          "internalType": "struct DefifaLaunchProjectData",
          "name": "_launchProjectData",
          "type": "tuple"
        }
      ],
      "name": "launchGameWith",
      "outputs": [
        {
          "internalType": "uint256",
          "name": "gameId",
          "type": "uint256"
        },
        {
          "internalType": "contract IDefifaGovernor",
          "name": "governor",
          "type": "address"
        }
      ],
      "stateMutability": "nonpayable",
      "type": "function"
    },
    {
      "inputs": [
        {
          "internalType": "uint256",
          "name": "_gameId",
          "type": "uint256"
        }
      ],
      "name": "nextPhaseNeedsQueueing",
      "outputs": [
        {
          "internalType": "bool",
          "name": "",
          "type": "bool"
        }
      ],
      "stateMutability": "view",
      "type": "function"
    },
    {
      "inputs": [
        {
          "internalType": "address",
          "name": "",
          "type": "address"
        },
        {
          "internalType": "address",
          "name": "",
          "type": "address"
        },
        {
          "internalType": "uint256",
          "name": "",
          "type": "uint256"
        },
        {
          "internalType": "bytes",
          "name": "",
          "type": "bytes"
        }
      ],
      "name": "onERC721Received",
      "outputs": [
        {
          "internalType": "bytes4",
          "name": "",
          "type": "bytes4"
        }
      ],
      "stateMutability": "pure",
      "type": "function"
    },
    {
      "inputs": [],
      "name": "owner",
      "outputs": [
        {
          "internalType": "address",
          "name": "",
          "type": "address"
        }
      ],
      "stateMutability": "view",
      "type": "function"
    },
    {
      "inputs": [],
      "name": "protocolFeeProjectTokenAccount",
      "outputs": [
        {
          "internalType": "address",
          "name": "",
          "type": "address"
        }
      ],
      "stateMutability": "view",
      "type": "function"
    },
    {
      "inputs": [
        {
          "internalType": "uint256",
          "name": "_gameId",
          "type": "uint256"
        }
      ],
      "name": "queueNextPhaseOf",
      "outputs": [
        {
          "internalType": "uint256",
          "name": "configuration",
          "type": "uint256"
        }
      ],
      "stateMutability": "nonpayable",
      "type": "function"
    },
    {
      "inputs": [],
      "name": "renounceOwnership",
      "outputs": [],
      "stateMutability": "nonpayable",
      "type": "function"
    },
    {
      "inputs": [
        {
          "internalType": "uint256",
          "name": "_gameId",
          "type": "uint256"
        }
      ],
      "name": "timesFor",
      "outputs": [
        {
          "components": [
            {
              "internalType": "uint48",
              "name": "mintDuration",
              "type": "uint48"
            },
            {
              "internalType": "uint48",
              "name": "refundDuration",
              "type": "uint48"
            },
            {
              "internalType": "uint48",
              "name": "start",
              "type": "uint48"
            }
          ],
          "internalType": "struct DefifaTimeData",
          "name": "",
          "type": "tuple"
        }
      ],
      "stateMutability": "view",
      "type": "function"
    },
    {
      "inputs": [],
      "name": "tokenUriResolverCodeOrigin",
      "outputs": [
        {
          "internalType": "address",
          "name": "",
          "type": "address"
        }
      ],
      "stateMutability": "view",
      "type": "function"
    },
    {
      "inputs": [
        {
          "internalType": "address",
          "name": "newOwner",
          "type": "address"
        }
      ],
      "name": "transferOwnership",
      "outputs": [],
      "stateMutability": "nonpayable",
      "type": "function"
    }
  ],
  "bytecode": {
    "object": "0x61016034620001e1576200422938819003601f8101601f191683016001600160401b03811184821017620001e65783928291604052833961010092839181010312620001e1576200005081620001fc565b906200005f60208201620001fc565b916200006e60408301620001fc565b60608301516001600160a01b0393919291908481168103620001e15760808201519485168503620001e157620000f693620000ac60a08401620001fc565b96620000c060e060c08601519501620001fc565b94620000cc3362000211565b6001600355601460055560a05260c05260e052865261012094855261014093845260805262000211565b60405191613fd093846200025985396080518481816120bc015281816121fa0152818161269b01526135eb015260a0518481816110490152612723015260c0518481816101270152611917015260e0518481816107fc0152611ef001525183818161018a015281816102f6015281816105e701528181610d7b015281816110cc0152818161126f015281816118dc0152818161217d01528181612a2b01528181612fa601528181613042015281816133ac015281816135800152818161380701528181613c590152613e1201525182818161041101526125ac0152518181816102b501526119f60152f35b600080fd5b634e487b7160e01b600052604160045260246000fd5b51906001600160a01b0382168203620001e157565b600080546001600160a01b039283166001600160a01b03198216811783559216907f8be0079c531659141344cd1fd0a4f28419497f9722a3daafe3b4186f6b6457e09080a356fe608080604052600436101561001357600080fd5b600090813560e01c90816306b552b514612704575080630715610a146126be5780630d75b3aa14612683578063150b7a02146125f75780631c069dbb146125d05780633f3090d91461258c57806347d110bc1461097e57806353292c68146108f95780636a1db1bf14610887578063715018a61461082057806380f07954146107dc57806381312a14146105ba5780638da5cb5b146105945780639a36f93214610576578063b07925d314610500578063ca449a25146102d9578063d574ff0414610295578063f2fde38b146101ae578063f77c47911461016a578063ff16a2f21461014e5763ff2a43cc1461010857600080fd5b3461014b578060031936011261014b5760206040516001600160a01b037f0000000000000000000000000000000000000000000000000000000000000000168152f35b80fd5b503461014b578060031936011261014b57602090604051908152f35b503461014b578060031936011261014b5760206040516001600160a01b037f0000000000000000000000000000000000000000000000000000000000000000168152f35b503461014b57602060031936011261014b576101c8612747565b6101d0613ea8565b6001600160a01b0380911690811561022b576000548273ffffffffffffffffffffffffffffffffffffffff19821617600055167f8be0079c531659141344cd1fd0a4f28419497f9722a3daafe3b4186f6b6457e0600080a380f35b608460405162461bcd60e51b815260206004820152602660248201527f4f776e61626c653a206e6577206f776e657220697320746865207a65726f206160448201527f64647265737300000000000000000000000000000000000000000000000000006064820152fd5b503461014b578060031936011261014b5760206040516001600160a01b037f0000000000000000000000000000000000000000000000000000000000000000168152f35b503461014b578060031936011261014b57806001600160a01b03807f000000000000000000000000000000000000000000000000000000000000000016906040517f6193063000000000000000000000000000000000000000000000000000000000928382526020918281600481855afa9081156104f5578391859188916104d8575b50169460046040518094819382525afa9081156104a0578391839187916104ab575b506044604051809481937f5287af3700000000000000000000000000000000000000000000000000000000835230600484015260016024840152165afa9182156104a057859261046a575b5050823b1561046557608484928360405195869485937fac689bcd000000000000000000000000000000000000000000000000000000008552306004860152600160248601527f000000000000000000000000000000000000000000000000000000000000000016604485015260648401525af1801561045a5761044a5750f35b61045390612814565b61014b5780f35b6040513d84823e3d90fd5b505050fd5b8195508092503d8311610499575b610482818361287d565b810103126104945783925138806103c9565b600080fd5b503d610478565b6040513d87823e3d90fd5b6104cb9150823d84116104d1575b6104c3818361287d565b81019061295a565b3861037e565b503d6104b9565b6104ef9150833d85116104d1576104c3818361287d565b3861035c565b6040513d88823e3d90fd5b503461014b57602060031936011261014b57604060609161051f61293b565b50600435815260016020522060405190610538826127f8565b5465ffffffffffff9081808216938481528160406020830192828660301c1684520193871c1683526040519485525116602084015251166040820152f35b503461014b578060031936011261014b576020600554604051908152f35b503461014b578060031936011261014b576001600160a01b036020915416604051908152f35b503461014b576020908160031936011261014b5760405163557e715560e01b808252916001600160a01b037f0000000000000000000000000000000000000000000000000000000000000000811660048035908790869081855afa9485156107d15784956107b0575b5082939495604051967f43a266c200000000000000000000000000000000000000000000000000000000885282600489015287602481610120988994165afa9687156104f5579088918798610770575b5060046040518095819382525afa9182156104a05790849291869261074e575b5060249060405194859384927f5c5500780000000000000000000000000000000000000000000000000000000084526004840152165afa928315610742578093610706575b505050826080830151151592836106f5575b506040518315158152f35b8101519101511490503882816106ea565b90918093503d841161073b575b61071d818461287d565b8201928284031261014b57509061073391612979565b3880806106d8565b503d610713565b604051903d90823e3d90fd5b602491925061076990893d8b116104d1576104c3818361287d565b9190610693565b91509650843d86116107a9575b610787818361287d565b81019085818303126107a557889161079e91612979565b9638610673565b8680fd5b503d61077d565b839495506107ca90883d8a116104d1576104c3818361287d565b9493610623565b6040513d86823e3d90fd5b503461014b578060031936011261014b5760206040516001600160a01b037f0000000000000000000000000000000000000000000000000000000000000000168152f35b503461014b578060031936011261014b57610839613ea8565b60006001600160a01b03815473ffffffffffffffffffffffffffffffffffffffff1981168355167f8be0079c531659141344cd1fd0a4f28419497f9722a3daafe3b4186f6b6457e08280a380f35b503461014b57602060031936011261014b576004356108a4613ea8565b600581116108cf5780156108bb5760640460055580f35b602482634e487b7160e01b81526012600452fd5b60046040517f42c9b523000000000000000000000000000000000000000000000000000000008152fd5b503461014b57602060031936011261014b57604060609161091861293b565b506004358152600260205220604051610930816127f8565b6001600160a01b03906001828454169384835201549160406020830192828516845201916affffffffffffffffffffff809460a01c1683526040519485525116602084015251166040820152f35b503461014b57602060031936011261014b5767ffffffffffffffff6004351161014b576102406003196004353603011261014b576040516109be81612771565b6004356004013567ffffffffffffffff8111611afe576109e59060043691813501016128bc565b81526024600435013567ffffffffffffffff8111611afe576004350160406003198236030112611afe5760405190610a1c826127a4565b60048101359067ffffffffffffffff821161246557610a43602492600436918401016128bc565b83520135602082015260208201526044600435013567ffffffffffffffff8111611afe57610a789060043691813501016128bc565b60408201526064600435013567ffffffffffffffff8111611afe57610aa49060043691813501016128bc565b60608201526084600435013567ffffffffffffffff8111611afe573660238260043501011215611afe57600481813501013590610ae082612903565b91610aee604051938461287d565b80835260208301913660248360051b8360043501010111612461576024816004350101925b60248360051b83600435010101841061246957505050506080820152610b3d60a46004350161275d565b60a0820152610b5060c460043501612928565b60c0820152610b6360e460043501612928565b60e0820152610b7761010460043501612928565b610100820152610124600435013567ffffffffffffffff8111611afe573660238260043501011215611afe57610bb36004828135010135612903565b90610bc1604051928361287d565b600480358201908101358084526020840192913660e09092020160240111612465576024816004350101915b6004803583019081013560e0020160240183106123cf5750505061012082015260043561014401356affffffffffffffffffffff81169003611bd3576101446004350135610140820152610c466101646004350161275d565b6101608201526004356101848101356101808301526101a48101356101a0830152610c74906101c40161275d565b6101c08201526004356101e401356001600160a01b0381169003611bd3576004356101e48101356101e083015261020401356001600160a01b0381169003611bd35760043561020481013561020083015261022401356001600160a01b0381169003611bd357610224600435013561022082015265ffffffffffff61010082015116156123ac575b610d36610d2365ffffffffffff6101008401511665ffffffffffff60e08501511690612bbe565b65ffffffffffff60c08401511690612bbe565b65ffffffffffff42911610612382576040517f8b79543c0000000000000000000000000000000000000000000000000000000081526020816004816001600160a01b037f0000000000000000000000000000000000000000000000000000000000000000165afa908115611ce957839161233d575b509060206001600160a01b03926004604051809581937f06661abd000000000000000000000000000000000000000000000000000000008352165afa918215611ce9578392612309575b506001820182116122f55765ffffffffffff60c08201511665ffffffffffff60e08301511665ffffffffffff6101008401511660405192610e35846127f8565b83526020830191825260408301908152600185018652600160205265ffffffffffff604087209351167fffffffffffffffffffffffffffff00000000000000000000000000000000000071ffffffffffff0000000000000000000000006bffffffffffff0000000000008654955160301b16935160601b16931617171790556001600160a01b03610200820151166affffffffffffffffffffff610140830151166001600160a01b0360018160a0860151169360405190610ef5826127f8565b8152602081019485526040810193845281870188526002602052826040892091511673ffffffffffffffffffffffffffffffffffffffff19825416178155019251167fff000000000000000000000000000000000000000000000000000000000000007effffffffffffffffffffff00000000000000000000000000000000000000008454935160a01b16921617179055610120810151518061205a575b5060808101515192610fa484612903565b90610fb2604051928361287d565b848252610fbe85612903565b815b601f1982018110611ff957505060808301515194610ff6610fe087612903565b96610fee604051988961287d565b808852612903565b825b601f1982018110611fe3575050606060a0604051611015816127c0565b84815284602082015284604082015284838201528460808201520152815b818110611f1b5750506001600160a01b0361106d7f0000000000000000000000000000000000000000000000000000000000000000613f00565b6101e0850151911695906001600160a01b031615611ee3576001600160a01b036101e085015116925b6040517fc41c2f240000000000000000000000000000000000000000000000000000000081526020816004816001600160a01b037f0000000000000000000000000000000000000000000000000000000000000000165afa9081156107d1578491611e9d575b5085518460018901807a184f03e93ff9f4daa797ed6e38ed64bf6a1f01000000000000000080821015611e8b575b50600a906d04ee2d6d415b85acef810000000080821015611e7e575b50662386f26fc1000080821015611e71575b506305f5e10080821015611e64575b50612710811015611e55575b6064811015611e47575b1015611e3c575b600a60001960216001850194601f196111b561119f886128a0565b976111ad604051998a61287d565b8089526128a0565b013660208801378501015b01917f30313233343536373839616263646566000000000000000000000000000000008282061a83530480156111fc57600019600a91926111c0565b5050611251602760405180937f444546494641200000000000000000000000000000000000000000000000000060208301526112418151809260208686019101612d4c565b810103600781018452018261287d565b6040519063557e715560e01b82526020826004816001600160a01b037f0000000000000000000000000000000000000000000000000000000000000000165afa918215611e31579089949392918892611e10575b5060608501519260408601519460206001600160a01b0360a0816102008b015116990151166024604051809a81937f1982d67900000000000000000000000000000000000000000000000000000000835260048301525afa968715611e0557928a95928f9794928e9996938897611dbc575b506001600160a01b036101c08b8261022060209d9e0151169a806040519d8e61133f81612845565b828152015260408d0152600160608d0152015116993b15611db8579995928f979995928d9995926040519c8d9a7f25bccd66000000000000000000000000000000000000000000000000000000008c5260010160048c01526001600160a01b031660248b015260448a0161022090526102248a016113bc91612d6f565b8981036003190160648b01526113d191612d6f565b906001600160a01b031660848901528781036003190160a48901526113f591612d6f565b6001600160a01b038d1660c48801528681036003190160e488015261141991612d6f565b858103600319016101048701528451908181526020019460200190875b818110611cf4575050509084959665ffffffffffff606093166101248701526101448601528051151561016486015260208101511515610184860152604081015115156101a4860152015115156101c4840152306101e48401526102048301520381838b5af18015611ce957908391611cd5575b50506001600160a01b036101e08501511615611bdf575b5061020083015160a08401516040517fdf21a7dd0000000000000000000000000000000000000000000000000000000081526001600160a01b0391821660048201526001870160248201529160209183916044918391165afa90811561045a578291611ba1575b5015611b77576103e0602460405161153f816127a4565b60018152602036818301376001600160a01b036102008701511661156282612bd6565b5261186c602087015161185965ffffffffffff60c08a015116916040519261158984612845565b83528760208401528760408401528760608401526040516115a9816127f8565b8881528860208201528860408201526115d66040516115c7816127a4565b8a815260016020820152613e83565b604051916115e383612771565b8252896020830152612710604083015261271060608301528960808301528960a08301528960c08301528960e08301528961010083015289610120830152896101408301528961016083015289610180830152896101a083015260016101c083015260016101e08301528d61020083015261022082015265ffffffffffff61168a8c8260e061168082610100850151168360c08601511690612bbe565b9201511690612bbe565b6118406040519361169a85612861565b60008552611737604051986116ae8a612861565b60008a526040519d8e9d8e7fb3c5267300000000000000000000000000000000000000000000000000000000815230600482015201528c61040460206117028b5160406103e4860152610424850190612d6f565b9a0151910152805160448e0152602081015160648e0152604081015160848e0152606001516001600160a01b031660a48d0152565b80518051151560c48d0152602080820151151560e48e015260409182015115156101048e01528201516101248d01528101516101448c015260608101516101648c0152608081015115156101848c015260a081015115156101a48c015260c081015115156101c48c015260e081015115156101e48c015261010081015115156102048c015261012081015115156102248c015261014081015115156102448c015261016081015115156102648c015261018081015115156102848c01526101a081015115156102a48c01526101c081015115156102c48c01526101e081015115156102e48c01526102008101516001600160a01b03166103048c015261022001516103248b0152565b1661034488015260031987830301610364880152612c5d565b9060031985830301610384860152613d54565b600319838203016103a484015260208083519283815201920190855b818110611b5557505050906040827f446566696661206d696e742070686173652e00000000000000000000000000006020848196039260031984016103c48701526012815201520181856001600160a01b037f0000000000000000000000000000000000000000000000000000000000000000165af1801561045a57611b2a575b506001600160a01b0361193b7f0000000000000000000000000000000000000000000000000000000000000000613f00565b16926101a0610180820151910151843b15611afe57604051917f7a1ac61e00000000000000000000000000000000000000000000000000000000835287600484015260248301526044820152818160648183885af1801561045a57908291611b16575b5050843b1561014b576040517ff2fde38b0000000000000000000000000000000000000000000000000000000081528360048201528181602481838a5af1801561045a57908291611b02575b50506001600160a01b037f000000000000000000000000000000000000000000000000000000000000000016600354813b15611afe576040517f5bcfd21200000000000000000000000000000000000000000000000000000000815230600482015260248101919091529082908290604490829084905af1801561045a57908291611aea575b50506003549060038201809211611ad657509382916040956003556001600160a01b038651911681523360208201527f3082991f3dda023098e5849ea3903c6fbfd657dc6f9232f5eb81ad8a7ba161d6866001870192a460018351920182526020820152f35b80634e487b7160e01b602492526011600452fd5b611af390612814565b61014b578038611a70565b8280fd5b611b0b90612814565b61014b5780386119ea565b611b1f90612814565b61014b57803861199e565b602090813d8311611b4e575b611b40818361287d565b810103126104945738611909565b503d611b36565b82516001600160a01b0316845285945060209384019390920191600101611888565b60046040517f3727b396000000000000000000000000000000000000000000000000000000008152fd5b90506020813d602011611bd7575b81611bbc6020938361287d565b81010312611bd357611bcd90612d94565b38611528565b5080fd5b3d9150611baf565b6001600160a01b0383163b15611bd3578160405180927f94e6f56f000000000000000000000000000000000000000000000000000000008252604482018960048401526040602484015281518091526064830190602060648260051b86010193019185905b828210611c88575050505081900381836001600160a01b0388165af1801561045a57908291611c74575b506114c1565b611c7d90612814565b61014b578038611c6e565b929550926020611cc4827fffffffffffffffffffffffffffffffffffffffffffffffffffffffffffffff9c600195988495030186528851612d6f565b960192019201928593879593611c44565b611cde90612814565b611bd35781386114aa565b6040513d85823e3d90fd5b92949750929550969360206101606001926101408b516cffffffffffffffffffffffffff815116835263ffffffff80868301511686850152604082015116604084015261ffff60608201511660608401526001600160a01b03608082015116608084015260a081015160a084015262ffffff60c08201511660c084015260e0810151151560e084015261010081015115156101008401526101208101511515610120840152015115156101408201520198019101908895928b979492989598611436565b8c80fd5b96509650965096506020843d602011611dfd575b81611ddd6020938361287d565b810103126104945792518b968e968b969295926001600160a01b03611317565b3d9150611dd0565b6040513d8c823e3d90fd5b611e2a91925060203d6020116104d1576104c3818361287d565b90386112a5565b6040513d89823e3d90fd5b600190910190611184565b60646002910493019261117d565b61271060049104930192611173565b6008910493019238611167565b6010910493019238611158565b6020910493019238611146565b6040935060018c01049050600a61112a565b90506020813d602011611edb575b81611eb86020938361287d565b81010312611ed757516001600160a01b0381168103611ed757386110fc565b8380fd5b3d9150611eab565b6001600160a01b03611f147f0000000000000000000000000000000000000000000000000000000000000000613f00565b1692611096565b8060a0611f2e6001936080890151612bf9565b5169ffffffffffffffffffff81511661ffff6020830151166001600160a01b03604084015116606084015190608085015115159260405194611f6f86612828565b8552633b9ac9ff602086015288604086015260608501526080840152848301528760c08301528760e08301526101008201528661012082015284610140820152611fb98489612bf9565b52611fc48388612bf9565b500151611fd1828a612bf9565b52611fdc8189612bf9565b5001611033565b602081606082601f19948c010152019050610ff8565b6020601f199160405161200b81612828565b85815285838201528560408201528560608201528560808201528560a08201528560c08201528560e0820152856101008201528561012082015285610140820152828288010152019050610fc0565b6005549081156122e157849085905b8082106122b7575050633b9aca00908282048203908282116122a357036122795761210a916001600160a01b036101608501511690604051926120ab846127dc565b8784528760208501520460408301527f0000000000000000000000000000000000000000000000000000000000000000606083015260808201528460a08201528460c08201526101208301518051916121048383612bf9565b52612bf9565b50612113612c0d565b61012082015160405190612126826127a4565b600185018252602082015261213a82612bd6565b5261214481612bd6565b5083604051917f2bdfe0040000000000000000000000000000000000000000000000000000000083526020836004816001600160a01b037f0000000000000000000000000000000000000000000000000000000000000000165afa92831561045a578293612258575b506001600160a01b0383163b15611bd3576001600160a01b039261223591836040519586809581947ff2da44b60000000000000000000000000000000000000000000000000000000083527f00000000000000000000000000000000000000000000000000000000000000006004840152846024840152606060448401526064830190612c5d565b0393165af180156107d15715610f935761225190939193612814565b9138610f93565b61227291935060203d6020116104d1576104c3818361287d565b91386121ad565b60046040517f48270162000000000000000000000000000000000000000000000000000000008152fd5b602487634e487b7160e01b81526011600452fd5b90916122d960019160406122d0866101208a0151612bf9565b51015190612b9b565b920190612069565b602485634e487b7160e01b81526012600452fd5b602483634e487b7160e01b81526011600452fd5b9091506020813d602011612335575b816123256020938361287d565b81010312611afe57519038610df5565b3d9150612318565b90506020813d60201161237a575b816123586020938361287d565b81010312611afe5751906001600160a01b0382168203611afe57906020610dab565b3d915061234b565b60046040517f74f88142000000000000000000000000000000000000000000000000000000008152fd5b65ffffffffffff6123c38160c08401511642612b9b565b16610100820152610cfc565b60e08336031261246157604051906123e6826127dc565b6123ef8461291b565b82526123fd6020850161291b565b602083015260408401356040830152606084013560608301526124226080850161275d565b608083015260a0848101359083015260c08401356001600160a01b03811690036107a55760c0848101359083015290815260e090920191602001610bed565b8580fd5b8480fd5b833567ffffffffffffffff81116125885760c07fffffffffffffffffffffffffffffffffffffffffffffffffffffffffffffffdc828560043501013603011261258857604051906124b9826127c0565b600435840181016024013569ffffffffffffffffffff811690036125845760043584018101602481013583526044013561ffff811690036125845760043584018101604481013560208401526125119060640161275d565b604083015260043584018101608481013560608401526125339060a40161291b565b608083015267ffffffffffffffff60c48286600435010101351161258457602492602092839261257290369060043589010160c48101350187016128bc565b60a08201528152019401939050610b13565b8880fd5b8780fd5b503461014b578060031936011261014b5760206040516001600160a01b037f0000000000000000000000000000000000000000000000000000000000000000168152f35b503461014b57602060031936011261014b5760206125ef600435612f68565b604051908152f35b503461014b57608060031936011261014b57612611612747565b506024356001600160a01b0381160361014b5760643567ffffffffffffffff808211611afe5736602383011215611afe578160040135908111611afe573691016024011161014b5760206040517f150b7a02000000000000000000000000000000000000000000000000000000008152f35b503461014b578060031936011261014b5760206040517f00000000000000000000000000000000000000000000000000000000000000008152f35b503461014b57602060031936011261014b576126db600435612a0c565b6040519060068110156126f057602092508152f35b602483634e487b7160e01b81526021600452fd5b905034611bd35781600319360112611bd3576020906001600160a01b037f0000000000000000000000000000000000000000000000000000000000000000168152f35b600435906001600160a01b038216820361049457565b35906001600160a01b038216820361049457565b610240810190811067ffffffffffffffff82111761278e57604052565b634e487b7160e01b600052604160045260246000fd5b6040810190811067ffffffffffffffff82111761278e57604052565b60c0810190811067ffffffffffffffff82111761278e57604052565b60e0810190811067ffffffffffffffff82111761278e57604052565b6060810190811067ffffffffffffffff82111761278e57604052565b67ffffffffffffffff811161278e57604052565b610160810190811067ffffffffffffffff82111761278e57604052565b6080810190811067ffffffffffffffff82111761278e57604052565b6020810190811067ffffffffffffffff82111761278e57604052565b90601f601f19910116810190811067ffffffffffffffff82111761278e57604052565b67ffffffffffffffff811161278e57601f01601f191660200190565b81601f82011215610494578035906128d3826128a0565b926128e1604051948561287d565b8284526020838301011161049457816000926020809301838601378301015290565b67ffffffffffffffff811161278e5760051b60200190565b3590811515820361049457565b359065ffffffffffff8216820361049457565b60405190612948826127f8565b60006040838281528260208201520152565b9081602091031261049457516001600160a01b03811681036104945790565b80929161012091829103126104945760405190810181811067ffffffffffffffff82111761278e576040528092805182526020810151602083015260408101516040830152606081015160608301526080810151608083015260a081015160a083015260c081015160c083015260e08101516001600160a01b03811681036104945760e083015261010080910151910152565b6040805163557e715560e01b81526001600160a01b03602082600481847f0000000000000000000000000000000000000000000000000000000000000000165afa918215612b7057600092612b7b575b508251917f43a266c200000000000000000000000000000000000000000000000000000000835284600484015282602481610120948594165afa918215612b7057600092612b37575b505080518015612b2e57600114612b265782600052600460205260ff826000205416612b1e57612ad58184613dc8565b612b1657516002149182612af4575b5050612aef57600390565b600290565b65ffffffffffff925060005260016020526000205460301c1615153880612ae4565b505050600490565b505050600590565b505050600190565b50505050600090565b9091823d8411612b69575b612b4c818461287d565b8201928284031261014b575090612b6291612979565b3880612aa5565b503d612b42565b83513d6000823e3d90fd5b612b9491925060203d81116104d1576104c3818361287d565b9038612a5c565b91908201809211612ba857565b634e487b7160e01b600052601160045260246000fd5b65ffffffffffff9182169082160391908211612ba857565b805115612be35760200190565b634e487b7160e01b600052603260045260246000fd5b8051821015612be35760209160051b010190565b604090815191612c1c836127a4565b600183528291600091825b602080821015612c5457825160209291612c40826127a4565b868252606081830152828901015201612c27565b50505091925050565b908082519081815260208091019281808460051b830101950193600080925b858410612c8d575050505050505090565b9091929387601f19838398999a0301855288519060408381830193805184520151928185840152835180915284606080940194019287925b828410612ce75750505050509080600192990194019401929594939190612c7c565b91939560e06001929496885180511515825283810151151584830152858101518683015286810151878301526001600160a01b0360808181840151169084015260a0808301519084015260c08092015116908201520196019401918a95949391612cc5565b60005b838110612d5f5750506000910152565b8181015183820152602001612d4f565b90601f19601f602093612d8d81518092818752878088019101612d4c565b0116010190565b5190811515820361049457565b80820392916103a0841261049457612dda7ffffffffffffffffffffffffffffffffffffffffffffffffffffffffffffffee09183612979565b93019061028080831261049457606060405193612df685612771565b1261049457612ea791604051612e0b816127f8565b61012090612e1a828401612d94565b815261014090612e2b828501612d94565b602082015261016090612e3f828601612d94565b604082015287526101808085015160208901526101a0918286015160408a01526101c0938487015160608b01526101e095612e7b878901612d94565b60808c0152612ed8610200998c60a0612e958d8d01612d94565b9101528c60c06102209d8e8d01612d94565b9101528c60e0612eba6102408d01612d94565b9101528c610100612ece6102608d01612d94565b9101528901612d94565b908b0152612ee96102a08801612d94565b908a0152612efa6102c08701612d94565b90890152612f0b6102e08601612d94565b90880152612f1c6103008501612d94565b90870152612f2d6103208401612d94565b90860152612f3e6103408301612d94565b908501526103608101516001600160a01b0381168103610494576103809285015201519082015290565b604051907f8776c4990000000000000000000000000000000000000000000000000000000082528060048301526103a0826024816001600160a01b037f0000000000000000000000000000000000000000000000000000000000000000165afa91821561340f576000908193613d2e575b5081600052600460205260ff604060002054168015613d22575b613cf8576130018183613dc8565b613abc576040517f12b37b140000000000000000000000000000000000000000000000000000000081528260048201526103a0816024816001600160a01b037f0000000000000000000000000000000000000000000000000000000000000000165afa90811561340f57600091613a8a575b5060208083015191015103613a60575160011480613a3e575b1561341b5760209060406001600160a01b036102008095015116826000526001845281600020948251956130bf876127f8565b54958365ffffffffffff8089168352808960301c1698898985015260601c169101528251956130ed87612845565b86526000858701526000838701526000606087015282519161310e836127f8565b6000835260008684015260008484015261313b845161312c816127a4565b60008152600188820152613e83565b9184519361314885612771565b84526000878501526127108086860152606085015260016080850152600060a0850152600060c0850152600060e08501526000610100850152600061012085015260006101408501526000610160850152600061018085015260006101a085015260016101c085015260016101e08501528301526102208201527f44656669666120726566756e642070686173652e0000000000000000000000008461338c61337885516131f581612861565b6000815261335c87519661320888612861565b6000885261325489519c8d9b63175b7be560e31b8d5260048d015260248c01906001600160a01b0360608092805185526020810151602086015260408101516040860152015116910152565b80518051151560a48c0152602080820151151560c48d0152604091820151151560e48d01528201516101048c01528101516101248b015260608101516101448b0152608081015115156101648b015260a081015115156101848b015260c081015115156101a48b015260e081015115156101c48b015261010081015115156101e48b015261012081015115156102048b015261014081015115156102248b015261016081015115156102448b015261018081015115156102648b01526101a081015115156102848b01526101c081015115156102a48b01526101e081015115156102c48b01526102008101516001600160a01b03166102e48b015261022001516103048a0152565b60006103248901526103a06103448901526103a4880190612c5d565b600319948588830301610364890152613d54565b858103938401610384870152601481520152018160006001600160a01b037f0000000000000000000000000000000000000000000000000000000000000000165af190811561340f576000916133e0575090565b906020823d602011613407575b816133fa6020938361287d565b8101031261014b57505190565b3d91506133ed565b6040513d6000823e3d90fd5b906102006001600160a01b03910151169080600052600260205260406000206affffffffffffffffffffff600160405192613455846127f8565b6001600160a01b03815416845201546001600160a01b038116602084015260a01c16604082015260405190613489826127a4565b6001825260005b602081106139fd57506001600160a01b038151166001600160a01b036020830151166affffffffffffffffffffff604084015116604051917f1982d679000000000000000000000000000000000000000000000000000000008352806004840152602083602481875afa92831561340f576000936139c9575b5060405193613517856127c0565b845260208401526040830152606082015260006080820152600060a082015261353f83612bd6565b5261354982612bd6565b506040517f2bdfe0040000000000000000000000000000000000000000000000000000000081526020816004816001600160a01b037f0000000000000000000000000000000000000000000000000000000000000000165afa90811561340f576001600160a01b039160009182916139aa575b506064604051809481937f69e11cc50000000000000000000000000000000000000000000000000000000083527f00000000000000000000000000000000000000000000000000000000000000006004840152856024840152896044840152165afa90811561340f57600091613857575b50917f4465666966612073636f72696e672070686173652e000000000000000000000060206137e761337860409583989760008151151560001461384157506001600160a01b038561367d612c0d565b9301511661eeee810361383b57506001905b88519161369b836127a4565b8252858201526136aa82612bd6565b526136b481612bd6565b505b61335c87519a6136c58c612845565b60008c526000868d01526000898d0152600060608d01528851906136e8826127f8565b6000825260008783015260008a8301526137158a51613706816127a4565b60008152600089820152613e83565b908a519261372284612771565b8352600088840152612710808c850152606084015260016080840152600060a0840152600060c0840152600060e08401526000610100840152600061012084015260006101408401526000610160840152600061018084015260006101a084015260016101c084015260016101e084015261020083015261022082015261325489519c8d9b63175b7be560e31b8d5260048d015260248c01906001600160a01b0360608092805185526020810151602086015260408101516040860152015116910152565b858103938401610384870152601581520152018160006001600160a01b037f0000000000000000000000000000000000000000000000000000000000000000165af190811561340f576000916133e0575090565b9061368f565b91505086519061385082612861565b81526136b6565b903d8082843e613867818461287d565b6020838281010312611bd35782519167ffffffffffffffff831161014b57818401601f84860101121561014b5782840151916138a283612903565b946138b0604051968761287d565b8386526020860194828201602060e08702838501010111611ed757602081830101955b602060e087028385010101871061391357507f4465666966612073636f72696e672070686173652e0000000000000000000000955061362d945050505050565b60e08785850103126124655760405161392b816127dc565b61393488612d94565b815261394260208901612d94565b6020820152604088015160408201526060880151606082015260808801516001600160a01b03811681036107a557608082015260a088015160a082015260c08801516001600160a01b03811681036107a55760c0820152815260e096909601956020016138d3565b6139c3915060203d6020116104d1576104c3818361287d565b386135bc565b90926020823d6020116139f5575b816139e46020938361287d565b8101031261014b5750519138613509565b3d91506139d7565b602090604051613a0c816127c0565b60008152600083820152600060408201526000606082015260006080820152600060a082015282828601015201613490565b5080600052600160205265ffffffffffff60406000205460301c16151561308c565b60046040517f11f43385000000000000000000000000000000000000000000000000000000008152fd5b613aae91506103a03d6103a011613ab5575b613aa6818361287d565b810190612da1565b5038613073565b503d613a9c565b5060206132549260406001600160a01b036102008093015116815192613ae184612845565b6000845260008585015260008385015260006060850152825191613b04836127f8565b60008352600086840152600084840152613b22845161312c816127a4565b91845193613b2f85612771565b84526000878501526127108086860152606085015260016080850152600060a0850152600060c0850152600060e08501526000610100850152600061012085015260006101408501526000610160850152600061018085015260006101a085015260016101c085015260016101e08501528301526102208201527f446566696661206e6f20636f6e746573742e000000000000000000000000000084613c396133788551613bdc81612861565b6000815261335c875196613bef88612861565b6000885288519c8d9a63175b7be560e31b8c528d60048d015260248c01906001600160a01b0360608092805185526020810151602086015260408101516040860152015116910152565b858103938401610384870152601281520152018160006001600160a01b037f0000000000000000000000000000000000000000000000000000000000000000165af191821561340f57600092613cc4575b506000526004602052604060002060017fffffffffffffffffffffffffffffffffffffffffffffffffffffffffffffff0082541617905590565b90916020823d602011613cf0575b81613cdf6020938361287d565b8101031261014b5750519038613c8a565b3d9150613cd2565b60046040517fdc7a2515000000000000000000000000000000000000000000000000000000008152fd5b50608081015115612ff3565b9050613d4c9192506103a03d6103a011613ab557613aa6818361287d565b919038612fd9565b90815180825260208080930193019160005b828110613d74575050505090565b835180516001600160a01b03908116875281840151168684015260408082015190870152606080820151908701526080808201519087015260a0908101519086015260c09094019392810192600101613d66565b906040810151604051927fa40bb9c7000000000000000000000000000000000000000000000000000000008452600484015260248301526103a09182816044816001600160a01b037f0000000000000000000000000000000000000000000000000000000000000000165afa92831561340f57600093613e63575b50505190519060018201809211612ba85703613e5e57600090565b600190565b613e7a929350803d10613ab557613aa6818361287d565b50903880613e43565b906000918051613e9f575b60200151613e9857565b9060021790565b60019250613e8e565b6001600160a01b03600054163303613ebc57565b606460405162461bcd60e51b815260206004820152602060248201527f4f776e61626c653a2063616c6c6572206973206e6f7420746865206f776e65726044820152fd5b6e5af43d82803e903d91602b57fd5bf390763d602d80600a3d3981f3363d3d373d3d3d363d7300000062ffffff8260881c161760005260781b17602052603760096000f0906001600160a01b03821615613f5657565b606460405162461bcd60e51b815260206004820152601660248201527f455243313136373a20637265617465206661696c6564000000000000000000006044820152fdfea264697066735822122071bd406f7c2e2abd78df5a414b9bead0f62ac9a99f6275d152205579dba580a464736f6c63430008140033",
    "linkReferences": {}
  },
  "methodIdentifiers": {
    "SPLIT_DOMAIN()": "ff16a2f2",
    "ballkidzProjectId()": "0d75b3aa",
    "changeFee(uint256)": "6a1db1bf",
    "claimProtocolProjectToken()": "ca449a25",
    "controller()": "f77c4791",
    "currentGamePhaseOf(uint256)": "0715610a",
    "delegateCodeOrigin()": "06b552b5",
    "delegatesRegistry()": "d574ff04",
    "distributionOpsOf(uint256)": "53292c68",
    "feeDivisor()": "9a36f932",
    "governorCodeOrigin()": "ff2a43cc",
    "launchGameWith((string,(string,uint256),string,string,(uint80,uint16,address,bytes32,bool,string)[],address,uint48,uint48,uint48,(bool,bool,uint256,uint256,address,uint256,address)[],uint88,address,uint256,uint256,address,address,address,address))": "47d110bc",
    "nextPhaseNeedsQueueing(uint256)": "81312a14",
    "onERC721Received(address,address,uint256,bytes)": "150b7a02",
    "owner()": "8da5cb5b",
    "protocolFeeProjectTokenAccount()": "3f3090d9",
    "queueNextPhaseOf(uint256)": "1c069dbb",
    "renounceOwnership()": "715018a6",
    "timesFor(uint256)": "b07925d3",
    "tokenUriResolverCodeOrigin()": "80f07954",
    "transferOwnership(address)": "f2fde38b"
  },
  "id": 1
}