{
  "abi": [
    {
      "inputs": [
        {
          "internalType": "address",
          "name": "_delegateCodeOrigin",
          "type": "address"
        },
        {
          "internalType": "contract IJB721TokenUriResolver",
          "name": "_tokenUriResolver",
          "type": "address"
        },
        {
          "internalType": "contract IDefifaGovernor",
          "name": "_governor",
          "type": "address"
        },
        {
          "internalType": "contract IJBController3_1",
          "name": "_controller",
          "type": "address"
        },
        {
          "internalType": "contract IJBDelegatesRegistry",
          "name": "_delegatesRegistry",
          "type": "address"
        },
        {
          "internalType": "uint256",
          "name": "_defifaProjectId",
          "type": "uint256"
        }
      ],
      "stateMutability": "nonpayable",
      "type": "constructor"
    },
    {
      "inputs": [],
      "name": "CANT_FULFILL_YET",
      "type": "error"
    },
    {
      "inputs": [],
      "name": "GAME_OVER",
      "type": "error"
    },
    {
      "inputs": [],
      "name": "INCORRECT_DECIMAL_AMOUNT",
      "type": "error"
    },
    {
      "inputs": [],
      "name": "INVALID_FEE_PERCENT",
      "type": "error"
    },
    {
      "inputs": [],
      "name": "INVALID_GAME_CONFIGURATION",
      "type": "error"
    },
    {
      "inputs": [],
      "name": "PHASE_ALREADY_QUEUED",
      "type": "error"
    },
    {
      "inputs": [
        {
          "internalType": "uint256",
          "name": "prod1",
          "type": "uint256"
        },
        {
          "internalType": "uint256",
          "name": "denominator",
          "type": "uint256"
        }
      ],
      "name": "PRBMath__MulDivOverflow",
      "type": "error"
    },
    {
      "inputs": [],
      "name": "SPLITS_DONT_ADD_UP",
      "type": "error"
    },
    {
      "inputs": [],
      "name": "TERMINAL_NOT_FOUND",
      "type": "error"
    },
    {
      "inputs": [],
      "name": "UNEXPECTED_TERMINAL_CURRENCY",
      "type": "error"
    },
    {
      "anonymous": false,
      "inputs": [
        {
          "components": [
            {
              "internalType": "bool",
              "name": "preferClaimed",
              "type": "bool"
            },
            {
              "internalType": "bool",
              "name": "preferAddToBalance",
              "type": "bool"
            },
            {
              "internalType": "uint256",
              "name": "percent",
              "type": "uint256"
            },
            {
              "internalType": "uint256",
              "name": "projectId",
              "type": "uint256"
            },
            {
              "internalType": "address payable",
              "name": "beneficiary",
              "type": "address"
            },
            {
              "internalType": "uint256",
              "name": "lockedUntil",
              "type": "uint256"
            },
            {
              "internalType": "contract IJBSplitAllocator",
              "name": "allocator",
              "type": "address"
            }
          ],
          "indexed": false,
          "internalType": "struct JBSplit",
          "name": "split",
          "type": "tuple"
        },
        {
          "indexed": false,
          "internalType": "uint256",
          "name": "amount",
          "type": "uint256"
        },
        {
          "indexed": false,
          "internalType": "address",
          "name": "caller",
          "type": "address"
        }
      ],
      "name": "DistributeToSplit",
      "type": "event"
    },
    {
      "anonymous": false,
      "inputs": [
        {
          "indexed": true,
          "internalType": "uint256",
          "name": "gameId",
          "type": "uint256"
        },
        {
          "indexed": true,
          "internalType": "contract IDefifaDelegate",
          "name": "delegate",
          "type": "address"
        },
        {
          "indexed": true,
          "internalType": "contract IDefifaGovernor",
          "name": "governor",
          "type": "address"
        },
        {
          "indexed": false,
          "internalType": "contract IJB721TokenUriResolver",
          "name": "tokenUriResolver",
          "type": "address"
        },
        {
          "indexed": false,
          "internalType": "address",
          "name": "caller",
          "type": "address"
        }
      ],
      "name": "LaunchGame",
      "type": "event"
    },
    {
      "inputs": [],
      "name": "controller",
      "outputs": [
        {
          "internalType": "contract IJBController3_1",
          "name": "",
          "type": "address"
        }
      ],
      "stateMutability": "view",
      "type": "function"
    },
    {
      "inputs": [
        {
          "internalType": "uint256",
          "name": "_gameId",
          "type": "uint256"
        }
      ],
      "name": "currentGamePhaseOf",
      "outputs": [
        {
          "internalType": "enum DefifaGamePhase",
          "name": "",
          "type": "uint8"
        }
      ],
      "stateMutability": "view",
      "type": "function"
    },
    {
      "inputs": [
        {
          "internalType": "uint256",
          "name": "_gameId",
          "type": "uint256"
        },
        {
          "internalType": "bool",
          "name": "_includeCommitments",
          "type": "bool"
        }
      ],
      "name": "currentGamePotOf",
      "outputs": [
        {
          "internalType": "uint256",
          "name": "",
          "type": "uint256"
        },
        {
          "internalType": "address",
          "name": "",
          "type": "address"
        },
        {
          "internalType": "uint256",
          "name": "",
          "type": "uint256"
        }
      ],
      "stateMutability": "view",
      "type": "function"
    },
    {
      "inputs": [],
      "name": "defifaProjectId",
      "outputs": [
        {
          "internalType": "uint256",
          "name": "",
          "type": "uint256"
        }
      ],
      "stateMutability": "view",
      "type": "function"
    },
    {
      "inputs": [],
      "name": "delegateCodeOrigin",
      "outputs": [
        {
          "internalType": "address",
          "name": "",
          "type": "address"
        }
      ],
      "stateMutability": "view",
      "type": "function"
    },
    {
      "inputs": [],
      "name": "delegatesRegistry",
      "outputs": [
        {
          "internalType": "contract IJBDelegatesRegistry",
          "name": "",
          "type": "address"
        }
      ],
      "stateMutability": "view",
      "type": "function"
    },
    {
      "inputs": [],
      "name": "feeDivisor",
      "outputs": [
        {
          "internalType": "uint256",
          "name": "",
          "type": "uint256"
        }
      ],
      "stateMutability": "view",
      "type": "function"
    },
    {
      "inputs": [
        {
          "internalType": "uint256",
          "name": "_gameId",
          "type": "uint256"
        }
      ],
      "name": "fulfillCommitmentsOf",
      "outputs": [],
      "stateMutability": "nonpayable",
      "type": "function"
    },
    {
      "inputs": [
        {
          "internalType": "uint256",
          "name": "",
          "type": "uint256"
        }
      ],
      "name": "fulfilledCommitmentsOf",
      "outputs": [
        {
          "internalType": "uint256",
          "name": "",
          "type": "uint256"
        }
      ],
      "stateMutability": "view",
      "type": "function"
    },
    {
      "inputs": [],
      "name": "governor",
      "outputs": [
        {
          "internalType": "contract IDefifaGovernor",
          "name": "",
          "type": "address"
        }
      ],
      "stateMutability": "view",
      "type": "function"
    },
    {
      "inputs": [
        {
          "components": [
            {
              "internalType": "string",
              "name": "name",
              "type": "string"
            },
            {
              "components": [
                {
                  "internalType": "string",
                  "name": "content",
                  "type": "string"
                },
                {
                  "internalType": "uint256",
                  "name": "domain",
                  "type": "uint256"
                }
              ],
              "internalType": "struct JBProjectMetadata",
              "name": "projectMetadata",
              "type": "tuple"
            },
            {
              "internalType": "string",
              "name": "contractUri",
              "type": "string"
            },
            {
              "internalType": "string",
              "name": "baseUri",
              "type": "string"
            },
            {
              "components": [
                {
                  "internalType": "string",
                  "name": "name",
                  "type": "string"
                },
                {
                  "internalType": "uint80",
                  "name": "price",
                  "type": "uint80"
                },
                {
                  "internalType": "uint16",
                  "name": "reservedRate",
                  "type": "uint16"
                },
                {
                  "internalType": "address",
                  "name": "reservedTokenBeneficiary",
                  "type": "address"
                },
                {
                  "internalType": "bytes32",
                  "name": "encodedIPFSUri",
                  "type": "bytes32"
                },
                {
                  "internalType": "bool",
                  "name": "shouldUseReservedTokenBeneficiaryAsDefault",
                  "type": "bool"
                }
              ],
              "internalType": "struct DefifaTierParams[]",
              "name": "tiers",
              "type": "tuple[]"
            },
            {
              "internalType": "address",
              "name": "token",
              "type": "address"
            },
            {
              "internalType": "uint24",
              "name": "mintPeriodDuration",
              "type": "uint24"
            },
            {
              "internalType": "uint24",
              "name": "refundPeriodDuration",
              "type": "uint24"
            },
            {
              "internalType": "uint48",
              "name": "start",
              "type": "uint48"
            },
            {
              "components": [
                {
                  "internalType": "bool",
                  "name": "preferClaimed",
                  "type": "bool"
                },
                {
                  "internalType": "bool",
                  "name": "preferAddToBalance",
                  "type": "bool"
                },
                {
                  "internalType": "uint256",
                  "name": "percent",
                  "type": "uint256"
                },
                {
                  "internalType": "uint256",
                  "name": "projectId",
                  "type": "uint256"
                },
                {
                  "internalType": "address payable",
                  "name": "beneficiary",
                  "type": "address"
                },
                {
                  "internalType": "uint256",
                  "name": "lockedUntil",
                  "type": "uint256"
                },
                {
                  "internalType": "contract IJBSplitAllocator",
                  "name": "allocator",
                  "type": "address"
                }
              ],
              "internalType": "struct JBSplit[]",
              "name": "splits",
              "type": "tuple[]"
            },
            {
              "internalType": "uint256",
              "name": "attestationStartTime",
              "type": "uint256"
            },
            {
              "internalType": "uint256",
              "name": "attestationGracePeriod",
              "type": "uint256"
            },
            {
              "internalType": "address",
              "name": "defaultAttestationDelegate",
              "type": "address"
            },
            {
              "internalType": "contract IJB721TokenUriResolver",
              "name": "defaultTokenUriResolver",
              "type": "address"
            },
            {
              "internalType": "contract IJBPaymentTerminal",
              "name": "terminal",
              "type": "address"
            },
            {
              "internalType": "contract IJBTiered721DelegateStore",
              "name": "store",
              "type": "address"
            }
          ],
          "internalType": "struct DefifaLaunchProjectData",
          "name": "_launchProjectData",
          "type": "tuple"
        }
      ],
      "name": "launchGameWith",
      "outputs": [
        {
          "internalType": "uint256",
          "name": "gameId",
          "type": "uint256"
        }
      ],
      "stateMutability": "nonpayable",
      "type": "function"
    },
    {
      "inputs": [
        {
          "internalType": "uint256",
          "name": "_gameId",
          "type": "uint256"
        }
      ],
      "name": "nextPhaseNeedsQueueing",
      "outputs": [
        {
          "internalType": "bool",
          "name": "",
          "type": "bool"
        }
      ],
      "stateMutability": "view",
      "type": "function"
    },
    {
      "inputs": [
        {
          "internalType": "address",
          "name": "",
          "type": "address"
        },
        {
          "internalType": "address",
          "name": "",
          "type": "address"
        },
        {
          "internalType": "uint256",
          "name": "",
          "type": "uint256"
        },
        {
          "internalType": "bytes",
          "name": "",
          "type": "bytes"
        }
      ],
      "name": "onERC721Received",
      "outputs": [
        {
          "internalType": "bytes4",
          "name": "",
          "type": "bytes4"
        }
      ],
      "stateMutability": "pure",
      "type": "function"
    },
    {
      "inputs": [
        {
          "internalType": "uint256",
          "name": "_gameId",
          "type": "uint256"
        }
      ],
      "name": "queueNextPhaseOf",
      "outputs": [
        {
          "internalType": "uint256",
          "name": "configuration",
          "type": "uint256"
        }
      ],
      "stateMutability": "nonpayable",
      "type": "function"
    },
    {
      "inputs": [],
      "name": "splitGroup",
      "outputs": [
        {
          "internalType": "uint256",
          "name": "",
          "type": "uint256"
        }
      ],
      "stateMutability": "view",
      "type": "function"
    },
    {
      "inputs": [
        {
          "internalType": "uint256",
          "name": "_gameId",
          "type": "uint256"
        }
      ],
      "name": "timesFor",
      "outputs": [
        {
          "internalType": "uint48",
          "name": "",
          "type": "uint48"
        },
        {
          "internalType": "uint24",
          "name": "",
          "type": "uint24"
        },
        {
          "internalType": "uint24",
          "name": "",
          "type": "uint24"
        }
      ],
      "stateMutability": "view",
      "type": "function"
    },
    {
      "inputs": [
        {
          "internalType": "uint256",
          "name": "_gameId",
          "type": "uint256"
        }
      ],
      "name": "tokenOf",
      "outputs": [
        {
          "internalType": "address",
          "name": "",
          "type": "address"
        }
      ],
      "stateMutability": "view",
      "type": "function"
    },
    {
      "inputs": [],
      "name": "tokenUriResolver",
      "outputs": [
        {
          "internalType": "contract IJB721TokenUriResolver",
          "name": "",
          "type": "address"
        }
      ],
      "stateMutability": "view",
      "type": "function"
    },
    {
      "stateMutability": "payable",
      "type": "receive"
    }
  ],
  "bytecode": {
    "object": "0x61016034620001b257601f62005d8538819003918201601f19168301916001600160401b03831184841017620001b75780849260c094604052833981010312620001b2578051906001600160a01b038083168303620001b2576020820151928184168403620001b2576040830151938285168503620001b2576060840151938385168503620001b25760808101519384168403620001b25760a0015191601460035560c05260e05261010093845261012092835261014091825260a0523060805260405191615bb79384620001ce85396080518481816105af01528181611ccf0152613aba015260a051848181611c5c01528181611dbe015281816123cd0152613a62015260c051848181610e220152612392015260e0518481816101ae0152611a330152518381816115ca015261230801525182818161010b015281816102880152818161061801528181610bf601528181610eb701528181610f810152818161152501528181611d410152818161289d01528181612bc101528181613a2e01528181613b490152818161493001528181614a2301528181614c8a01526154da0152518181816101f201526116a80152f35b600080fd5b634e487b7160e01b600052604160045260246000fdfe608080604052600436101561001d575b50361561001b57600080fd5b005b600090813560e01c9081630134a03d146123b65750806306b552b5146123725780630715610a1461232c5780630c340a24146122e8578063150b7a02146122595780631c069dbb14612232578063290457281461080157806381312a14146105d2578063859bb4b2146105975780639a36f93214610579578063b07925d314610500578063b4dfb08614610236578063b6674cde14610216578063d574ff04146101d2578063e131fc0c1461018e578063ea78803f1461015c578063f2ae5f6e146101325763f77c47910361000f573461012f578060031936011261012f5760206040516001600160a01b037f0000000000000000000000000000000000000000000000000000000000000000168152f35b80fd5b503461012f57602060031936011261012f5760406020916004358152600483522054604051908152f35b503461012f57602060031936011261012f576001600160a01b0360406020926004358152808452205416604051908152f35b503461012f578060031936011261012f5760206040516001600160a01b037f0000000000000000000000000000000000000000000000000000000000000000168152f35b503461012f578060031936011261012f5760206040516001600160a01b037f0000000000000000000000000000000000000000000000000000000000000000168152f35b503461012f57602060031936011261012f576102336004356139b0565b80f35b503461012f57604060031936011261012f5760043590602435908115158203610417578281526020928184526001600160a01b039384604084205416916040516331070bc960e21b815282816004818a7f0000000000000000000000000000000000000000000000000000000000000000165afa90811561047f5785916104e3575b50604051630862026560e41b8152600481018390526001600160a01b0385166024820152908390829060449082908b165afa90811561047f5790879186916104c6575b501690604051967f975057e70000000000000000000000000000000000000000000000000000000088528388600481865afa9788156104bb57869861048a575b506040517efdd58e0000000000000000000000000000000000000000000000000000000081526001600160a01b03841660048201526024810183905297849189916044918391165afa90811561047f57859161044f575b60049750819661042f575b50508190604051968780927f313ce5670000000000000000000000000000000000000000000000000000000082525afa92831561042357926103ee575b606094506040519384528301526040820152f35b80925084813d831161041c575b6104058183612510565b810103126104175760609351916103da565b600080fd5b503d6103fb565b604051903d90823e3d90fd5b855286835260408520549195508291610447916125ea565b94903861039d565b90508287813d8311610478575b6104668183612510565b81010312610417576004965190610392565b503d61045c565b6040513d87823e3d90fd5b849198506104ad90823d84116104b4575b6104a58183612510565b8101906125cb565b979061033b565b503d61049b565b6040513d88823e3d90fd5b6104dd9150843d86116104b4576104a58183612510565b386102fb565b6104fa9150833d85116104b4576104a58183612510565b386102b8565b503461012f57602060031936011261012f57604060609160043581528060205220816040519161052f8361246e565b546001600160a01b038116835265ffffffffffff8160a01c169283602082015262ffffff8260d01c169182604083015260e81c928391015260405192835260208301526040820152f35b503461012f578060031936011261012f576020600354604051908152f35b503461012f578060031936011261012f5760206040517f00000000000000000000000000000000000000000000000000000000000000008152f35b503461012f576020908160031936011261012f576040517f557e715500000000000000000000000000000000000000000000000000000000808252916001600160a01b037f0000000000000000000000000000000000000000000000000000000000000000811660048035908790869081855afa9485156107f65784956107d5575b5082939495604051967f43a266c200000000000000000000000000000000000000000000000000000000885282600489015287602481610120988994165afa9687156104bb579088918798610795575b5060046040518095819382525afa91821561047f57908492918692610773575b5060249060405194859384927f5c5500780000000000000000000000000000000000000000000000000000000084526004840152165afa928315610423578093610737575b50505082608083015115159283610726575b506040518315158152f35b81015191015114905038828161071b565b90918093503d841161076c575b61074e8184612510565b8201928284031261012f5750906107649161260d565b388080610709565b503d610744565b602491925061078e90893d8b116104b4576104a58183612510565b91906106c4565b91509650843d86116107ce575b6107ac8183612510565b81019085818303126107ca5788916107c39161260d565b96386106a4565b8680fd5b503d6107a2565b839495506107ef90883d8a116104b4576104a58183612510565b9493610654565b6040513d86823e3d90fd5b503461012f57602060031936011261012f5767ffffffffffffffff6004351161012f576102006003196004353603011261012f57604051610200810181811067ffffffffffffffff82111761221e576040526004356004013567ffffffffffffffff81116117965761087a90600436918135010161254f565b81526024600435013567ffffffffffffffff811161179657600435016040600319823603011261179657604051906108b182612404565b60048101359067ffffffffffffffff8211611792576108d86024926004369184010161254f565b83520135602082015260208201526044600435013567ffffffffffffffff81116117965761090d90600436918135010161254f565b60408201526064600435013567ffffffffffffffff81116117965761093990600436918135010161254f565b60608201526084600435013567ffffffffffffffff81116117965736602382600435010112156117965760048181350101359061097582612596565b916109836040519384612510565b80835260208301913660248360051b836004350101011161183d576024816004350101925b60248360051b8360043501010184106120fd575050505060808201526109d260a4600435016123f0565b60a08201526109e560c4600435016125bb565b60c08201526109f860e4600435016125bb565b60e0820152600435610104013565ffffffffffff81169003611e1f57610104600435013561010082015267ffffffffffffffff610124600435013511611e1f5736600435610124810135016023011215611e1f57610a6160048035610124810135010135612596565b610a6e6040519182612510565b60048035610124810135019081013580835260208301913660e090920201602401116120f95760043561012481013501602401905b60048035610124810135019081013560e00201602401821061205e575050610120820152600435610144810135610140830152610164810135610160830152610aef90610184016123f0565b6101808201526004356101a401356001600160a01b0381169003611e1f576004356101a48101356101a08301526101c401356001600160a01b0381169003611e1f576004356101c48101356101c08301526101e401356001600160a01b0381169003611e1f576004356101e401356101e082015261010081015165ffffffffffff1680611ff2575065ffffffffffff610ba262ffffff610b958160c086015116426125ea565b9060e085015116906125ea565b166101008201525b62ffffff60c082015116158015611fb7575b611f8d576040517f8b79543c0000000000000000000000000000000000000000000000000000000081526020816004816001600160a01b037f0000000000000000000000000000000000000000000000000000000000000000165afa9081156119f9578391611f48575b509060206001600160a01b03926004604051809581937f06661abd000000000000000000000000000000000000000000000000000000008352165afa9182156119f9578392611f14575b50600182018211611f00576001600160a01b0360a08201511662ffffff60c08301511662ffffff60e08401511665ffffffffffff6101008501511660405193610cb88561246e565b8452602084019081526040840192835260608401918252600186018752866020527fffffff00000000000000000000000000000000000000000000000000000000007cffffff000000000000000000000000000000000000000000000000000079ffffffffffff00000000000000000000000000000000000000006001600160a01b0360408b20975116935160a01b16945160d01b16925160e81b169217171790556101208101515180611bdc575b50608081015151610d7781612596565b90610d856040519283612510565b808252610d9181612596565b855b601f1982018110611b7b57505060808301515190610dc9610db383612596565b92610dc16040519485612510565b808452612596565b865b601f1982018110611b655750508560a0604051610de781612436565b606081528260208201528260408201528260608201528260808201520152855b818110611a9c5750506e5af43d82803e903d91602b57fd5bf37f0000000000000000000000000000000000000000000000000000000000000000763d602d80600a3d3981f3363d3d373d3d3d363d7300000062ffffff8260881c1617875260781b176020526001600160a01b036037600987f016918215611a58576101a08401516001600160a01b03168015611a3057915b604051916331070bc960e21b83526020836004816001600160a01b037f0000000000000000000000000000000000000000000000000000000000000000165afa928315611a25578893611a04575b50855188610ef760018a01615968565b610f4a602860405180937f44454649464120230000000000000000000000000000000000000000000000006020830152610f3a8151809260208686019101612b6d565b8101036008810184520182612510565b604051907f557e71550000000000000000000000000000000000000000000000000000000082526020826004816001600160a01b037f0000000000000000000000000000000000000000000000000000000000000000165afa80156119f9578a9284916119da575b5060608301519060408401519260206001600160a01b0360a0816101c08901511697015116602460405180988193631982d67960e01b835260048301525afa9485156104bb578d96956119a3575b506001600160a01b03610180816101e08901511697015116968c3b1561199f57908f9a918f9a99989796959493926040519b7f3900c6f9000000000000000000000000000000000000000000000000000000008d5260010160048d01526001600160a01b031660248c015260448b016101e090526101e48b0161108291612b90565b8a81036003190160648c015261109791612b90565b906001600160a01b031660848a01528881036003190160a48a01526110bb91612b90565b6001600160a01b038a1660c48901528781036003190160e48901526110df91612b90565b868103600319016101048801528451908181526020019460200190885b8181106118dd5750505065ffffffffffff1661012486015261014485015230610164850152306101848501526101a4840152600319838203016101c4840152815180825260208201916020808360051b83010194019286915b8383106118aa57505050505081808492038183885af180156117c257611896575b50506103e0602460405161118981612404565b60018152602036818301376001600160a01b036101c0870151166111ac82612a44565b526114b560208701516114a262ffffff60c08a01511691604051926111d08461246e565b83528b60208401528b60408401528b60608401526040516111f0816124bb565b8c81528c60208201528c604082015261121e8d6040519061121082612404565b81526001602082015261554b565b6040519161122b836124d7565b82528d602083015261271080604084015260608301528d60808301528d60a08301528d60c08301528d60e08301528d6101008301528d6101208301528d6101408301528d6101608301528d6101808301528d6101a083015260016101c083015260016101e08301528a61020083015261022082015265ffffffffffff6112d38c62ffffff60e06112c985610100850151168360c08601511690615404565b9201511690615404565b611489604051936112e3856124f4565b60008552611380604051986112f78a6124f4565b60008a526040519d8e9d8e7fb3c5267300000000000000000000000000000000000000000000000000000000815230600482015201528c610404602061134b8b5160406103e4860152610424850190612b90565b9a0151910152805160448e0152602081015160648e0152604081015160848e0152606001516001600160a01b031660a48d0152565b80518051151560c48d0152602080820151151560e48e015260409182015115156101048e01528201516101248d01528101516101448c015260608101516101648c0152608081015115156101848c015260a081015115156101a48c015260c081015115156101c48c015260e081015115156101e48c015261010081015115156102048c015261012081015115156102248c015261014081015115156102448c015261016081015115156102648c015261018081015115156102848c01526101a081015115156102a48c01526101c081015115156102c48c01526101e081015115156102e48c01526102008101516001600160a01b03166103048c015261022001516103248b0152565b1661034488015260031987830301610364880152612a7b565b906003198583030161038486015261541c565b600319838203016103a484015260208083519283815201920190895b81811061187457505050906040827f446566696661206d696e742070686173652e00000000000000000000000000006020848196039260031984016103c48701526012815201520181896001600160a01b037f0000000000000000000000000000000000000000000000000000000000000000165af180156104bb57611849575b506101c083015160a08401516040517fdf21a7dd0000000000000000000000000000000000000000000000000000000081526001600160a01b0391821660048201526001870160248201529160209183916044918391165afa9081156104bb57869161180b575b50156117e157846001600160a01b037f0000000000000000000000000000000000000000000000000000000000000000169361016061014082015191015190853b15611796576040517fc543882f00000000000000000000000000000000000000000000000000000000815260018801600482015260248101919091526044810191909152818160648183895af180156117c2576117cd575b5050813b1561179257846040517ff2fde38b000000000000000000000000000000000000000000000000000000008152846004820152818160248183885af180156117c2576117ae575b50506001600160a01b037f000000000000000000000000000000000000000000000000000000000000000016600154600019811461179a5790600187920180600155813b15611796576040517f5bcfd212000000000000000000000000000000000000000000000000000000008152306004820152602481019190915291908290604490829084905af180156104bb5761177e575b50602094506001600160a01b036040519116815233858201527f3082991f3dda023098e5849ea3903c6fbfd657dc6f9232f5eb81ad8a7ba161d660406001860192a4600160405191018152f35b611788869161248a565b6117925784611731565b8480fd5b8280fd5b602487634e487b7160e01b81526011600452fd5b6117b79061248a565b61179257843861169c565b6040513d84823e3d90fd5b6117d69061248a565b611792578438611652565b60046040517f3727b396000000000000000000000000000000000000000000000000000000008152fd5b90506020813d602011611841575b8161182660209383612510565b8101031261183d57611837906126a0565b386115b9565b8580fd5b3d9150611819565b602090813d831161186d575b61185f8183612510565b810103126104175738611552565b503d611855565b82516001600160a01b03168452859450602093840193909201916001016114d1565b61189f9061248a565b611792578438611176565b919395965091936020806118ca83601f1986600196030187528951612b90565b97019301930190928b9695949293611155565b91969798509192939460206101606001926101408a516cffffffffffffffffffffffffff815116835263ffffffff80868301511686850152604082015116604084015261ffff60608201511660608401526001600160a01b03608082015116608084015260a081015160a084015262ffffff60c08201511660c084015260e0810151151560e084015261010081015115156101008401526101208101511515610120840152015115156101408201520197019101918d989796959493926110fc565b8f80fd5b955093506020853d6020116119d2575b816119c060209383612510565b81010312610417578b94519338611000565b3d91506119b3565b6119f3915060203d6020116104b4576104a58183612510565b38610fb2565b6040513d85823e3d90fd5b611a1e91935060203d6020116104b4576104a58183612510565b9138610ee7565b6040513d8a823e3d90fd5b507f000000000000000000000000000000000000000000000000000000000000000091610e99565b606460405162461bcd60e51b815260206004820152601660248201527f455243313136373a20637265617465206661696c6564000000000000000000006044820152fd5b80611aad6001926080880151612a67565b5169ffffffffffffffffffff60208201511661ffff6040830151166001600160a01b0360608401511660808401519060a085015115159260405194611af18661249e565b8552633b9ac9ff60208601528760408601526060850152608084015260a08301528a60c08301528a60e08301526101008201528961012082015283610140820152611b3c8388612a67565b52611b478287612a67565b5051611b538286612a67565b52611b5e8185612a67565b5001610e07565b602081606082601f199488010152019050610dcb565b6020601f1991604051611b8d8161249e565b89815289838201528960408201528960608201528960808201528960a08201528960c08201528960e0820152896101008201528961012082015289610140820152828288010152019050610d93565b600181018111611eec57611bf260018201612596565b90611c006040519283612510565b600181018252601f19611c1560018301612596565b01855b818110611eab575050845b818110611e7c57506003548015611e6857604051611ca39291611c4582612452565b60018252876020830152633b9aca000460408201527f000000000000000000000000000000000000000000000000000000000000000060608201523060808201528660a08201528660c0820152611c9c8285612a67565b5282612a67565b5060405190611cb182612404565b60018252845b60208110611e44575060405190611ccd82612404565b7f000000000000000000000000000000000000000000000000000000000000000082526020820152611cfe82612a44565b52611d0881612a44565b5083604051917f2bdfe0040000000000000000000000000000000000000000000000000000000083526020836004816001600160a01b037f0000000000000000000000000000000000000000000000000000000000000000165afa9283156117c2578293611e23575b506001600160a01b0383163b15611e1f576001600160a01b0392611dfc91836040519586809581947ff2da44b60000000000000000000000000000000000000000000000000000000083527f0000000000000000000000000000000000000000000000000000000000000000600484015260018c016024840152606060448401526064830190612a7b565b0393165af180156107f65715610d6757611e189093919361248a565b9138610d67565b5080fd5b611e3d91935060203d6020116104b4576104a58183612510565b9138611d71565b602090604051611e5381612404565b87815260608382015282828601015201611cb7565b602486634e487b7160e01b81526012600452fd5b80611e8e600192610120870151612a67565b51611e998286612a67565b52611ea48185612a67565b5001611c23565b602090604051611eba81612452565b88815288838201528860408201528860608201528860808201528860a08201528860c082015282828701015201611c18565b602484634e487b7160e01b81526011600452fd5b602483634e487b7160e01b81526011600452fd5b9091506020813d602011611f40575b81611f3060209383612510565b8101031261179657519038610c70565b3d9150611f23565b90506020813d602011611f85575b81611f6360209383612510565b810103126117965751906001600160a01b038216820361179657906020610c26565b3d9150611f56565b60046040517f74f88142000000000000000000000000000000000000000000000000000000008152fd5b5065ffffffffffff61010082015116611fec611fdc62ffffff60e085015116426125ea565b62ffffff60c085015116906125ea565b11610bbc565b62ffffff908160c084015116159081612045575b50612012575b50610baa565b61203965ffffffffffff610100840151166120338360e086015116426125ea565b90612a37565b1660c08201523861200c565b90506120578260e085015116426125ea565b1038612006565b60e0823603126117925760405161207481612452565b61207d836125ae565b815261208b602084016125ae565b6020820152604083013560408201526060830135606082015260808301356001600160a01b039081811681036120f557608083015260a084013560a083015260c08401351660c08401350361183d5760e09160209160c085013560c0820152815201910190610aa3565b8780fd5b8380fd5b833567ffffffffffffffff81116120f55760c07fffffffffffffffffffffffffffffffffffffffffffffffffffffffffffffffdc82856004350101360301126120f5576040519061214d82612436565b67ffffffffffffffff60248286600435010101351161221a5761217e3660246004358701840181810135010161254f565b8252600435840181016044013569ffffffffffffffffffff8116900361221a5760043584018101604481013560208401526064013561ffff8116900361221a5760249260209261220860c484606487968a6004350101013560408501526121ed6084828b6004350101016123f0565b606085015260043589010160a48101356080850152016125ae565b60a082015281520194019390506109a8565b8880fd5b602483634e487b7160e01b81526041600452fd5b503461012f57602060031936011261012f576020612251600435612bb5565b604051908152f35b503461012f57608060031936011261012f576001600160a01b0360043581811603611e1f576024359081160361012f5760643567ffffffffffffffff8082116117965736602383011215611796578160040135908111611796573691016024011161012f5760206040517f150b7a02000000000000000000000000000000000000000000000000000000008152f35b503461012f578060031936011261012f5760206040516001600160a01b037f0000000000000000000000000000000000000000000000000000000000000000168152f35b503461012f57602060031936011261012f57612349600435612874565b60405190600781101561235e57602092508152f35b602483634e487b7160e01b81526021600452fd5b503461012f578060031936011261012f5760206040516001600160a01b037f0000000000000000000000000000000000000000000000000000000000000000168152f35b905034611e1f5781600319360112611e1f576020907f00000000000000000000000000000000000000000000000000000000000000008152f35b35906001600160a01b038216820361041757565b6040810190811067ffffffffffffffff82111761242057604052565b634e487b7160e01b600052604160045260246000fd5b60c0810190811067ffffffffffffffff82111761242057604052565b60e0810190811067ffffffffffffffff82111761242057604052565b6080810190811067ffffffffffffffff82111761242057604052565b67ffffffffffffffff811161242057604052565b610160810190811067ffffffffffffffff82111761242057604052565b6060810190811067ffffffffffffffff82111761242057604052565b610240810190811067ffffffffffffffff82111761242057604052565b6020810190811067ffffffffffffffff82111761242057604052565b90601f601f19910116810190811067ffffffffffffffff82111761242057604052565b67ffffffffffffffff811161242057601f01601f191660200190565b81601f820112156104175780359061256682612533565b926125746040519485612510565b8284526020838301011161041757816000926020809301838601378301015290565b67ffffffffffffffff81116124205760051b60200190565b3590811515820361041757565b359062ffffff8216820361041757565b9081602091031261041757516001600160a01b03811681036104175790565b919082018092116125f757565b634e487b7160e01b600052601160045260246000fd5b80929161012091829103126104175760405190810181811067ffffffffffffffff821117612420576040528092805182526020810151602083015260408101516040830152606081015160608301526080810151608083015260a081015160a083015260c081015160c083015260e08101516001600160a01b03811681036104175760e083015261010080910151910152565b5190811515820361041757565b80820392916103a08412610417576126e67ffffffffffffffffffffffffffffffffffffffffffffffffffffffffffffffee0918361260d565b93019061028080831261041757606060405193612702856124d7565b12610417576127b391604051612717816124bb565b610120906127268284016126a0565b8152610140906127378285016126a0565b60208201526101609061274b8286016126a0565b604082015287526101808085015160208901526101a0918286015160408a01526101c0938487015160608b01526101e0956127878789016126a0565b60808c01526127e4610200998c60a06127a18d8d016126a0565b9101528c60c06102209d8e8d016126a0565b9101528c60e06127c66102408d016126a0565b9101528c6101006127da6102608d016126a0565b91015289016126a0565b908b01526127f56102a088016126a0565b908a01526128066102c087016126a0565b908901526128176102e086016126a0565b9088015261282861030085016126a0565b9087015261283961032084016126a0565b9086015261284a61034083016126a0565b908501526103608101516001600160a01b0381168103610417576103809285015201519082015290565b60408051638776c49960e01b81528260048201526103a0906001600160a01b03938282602481887f0000000000000000000000000000000000000000000000000000000000000000165afa918215612a2c5760009384936129f8575b5050825180156129ed576001146129e357806000526020926002845260ff8560002054166129d8576129028183615490565b6129cd575160021490816129b4575b506129ab5760049361020083920151168351948580927fa8c15f4a0000000000000000000000000000000000000000000000000000000082525afa9182156129a1575060009161296d575b50905061296857600390565b600490565b82813d831161299a575b6129818183612510565b8101031261012f5750612993906126a0565b803861295c565b503d612977565b513d6000823e3d90fd5b50505050600290565b905060005260008252826000205460e81c151538612911565b505050505050600590565b505050505050600690565b5050505050600190565b505050505050600090565b8091929450612a1c9350903d10612a25575b612a148183612510565b8101906126ad565b909138806128d0565b503d612a0a565b84513d6000823e3d90fd5b919082039182116125f757565b805115612a515760200190565b634e487b7160e01b600052603260045260246000fd5b8051821015612a515760209160051b010190565b908082519081815260208091019281808460051b830101950193600080925b858410612aab575050505050505090565b9091929387601f19838398999a0301855288518260606040938285820194805183520151948382015284518094520192019085905b808210612b00575050509080600192990194019401929594939190612a9a565b919360e084612b5f60019496885160c0908051151583526020810151151560208401526040810151604084015260608101516060840152816001600160a01b039182608082015116608086015260a081015160a0860152015116910152565b019401920188939291612ae0565b60005b838110612b805750506000910152565b8181015183820152602001612b70565b90601f19601f602093612bae81518092818752878088019101612b6d565b0116010190565b6001600160a01b0390817f000000000000000000000000000000000000000000000000000000000000000016604091825191638776c49960e01b8352600482818501526103a09560249680868981875afa908115613932576000968792613910575b50856000526020966002885260ff8960002054168015613904575b6138dc5787878a612c438483615490565b61357b57915050517f12b37b14000000000000000000000000000000000000000000000000000000008152878682015282818c818a5afa90811561357057600091613552575b5088808301519101510361352a5791879695949391899360018091511480613512575b15613009579088929184610200809401511689600052600085528660002095875196612cd78861246e565b5490811687528060a01c65ffffffffffff16868801528060d01c62ffffff168888015260e81c606081970152865195612d0f8761246e565b865260008587018190528787018190526060870152865193612d30856124bb565b6000808652868601819052888601528751612d4a81612404565b600081528387820152612d5c9061554b565b92885195612d69876124d7565b865286860160009052612710808a880152606087015280608087015260a086016000905260c086016000905260e08601600090526101008601600090526101208601600090526101408601600090526101608601600090526101808601600090526101a0860160009052806101c08701526101e0860152840152610220830152845191612df5836124f4565b60008352855194612e05866124f4565b6000865286519d8e9a8b9963175b7be560e31b8b528a01528801612e4f916001600160a01b0360608092805185526020810151602086015260408101516040860152015116910152565b80518051151560a4890152602080820151151560c48a0152604091820151151560e48a015282015161010489015281015161012488015260608101516101448801526080810151151561016488015260a0810151151561018488015260c081015115156101a488015260e081015115156101c488015261010081015115156101e488015261012081015115156102048801526101408101511515610224880152610160810151151561024488015261018081015115156102648801526101a081015115156102848801526101c081015115156102a48801526101e081015115156102c48801526102008101516001600160a01b03166102e488015261022001516103048701526103248601600090526103448601526103a48501612f7291612a7b565b91600319928386820301610364870152612f8b9161541c565b84810392830161038486015260148152017f44656669666120726566756e642070686173652e000000000000000000000000905201915a90600091f19182156129a15750600091612fdd575b50905090565b82813d8311613002575b612ff18183612510565b8101031261012f5750518038612fd7565b503d612fe7565b919294959697509250836102008093015116938760005260008952808a6000205416908a516331070bc960e21b81528a8189818c5afa9081156134e8578383928c8f958f946130919c9b9a9998978e916000956134f3575b50519c8d9586948593630862026560e41b855284019092916001600160a01b036020916040840195845216910152565b0392165afa9687156134e8576000976134c9575b508c908c978c8951996130b78b612404565b868b526000905b8282106134835750505016918b8d518093631982d67960e01b8252838c83015281865afa91821561347857918d979593918d9c9b9a9997959360009261342d575b50908c96959493929189519261311484612436565b835287830152600089830181905260608301527cffffffffffffffffffffffffffffffffffffffffffffffffffffffffff608083015260a082015261315887612a44565b5261316286612a44565b5086519361316f8561246e565b60008086528686018190528886018190526060860152875192613191846124bb565b60008085528785018190528985015288516131ab81612404565b6000808252888201526131bd9061554b565b928951946131ca866124d7565b855287850160009052612710808b870152606086015280608086015260a085016000905260c085016000905260e08501600090526101008501600090526101208501600090526101408501600090526101608501600090526101808501600090526101a0850160009052806101c08601526101e0850152830152610220820152855192613256846124f4565b6000845286519d8e9a8b9963175b7be560e31b8b528a015288016132a0916001600160a01b0360608092805185526020810151602086015260408101516040860152015116910152565b80518051151560a4890152602080820151151560c48a0152604091820151151560e48a015282015161010489015281015161012488015260608101516101448801526080810151151561016488015260a0810151151561018488015260c081015115156101a488015260e081015115156101c488015261010081015115156101e488015261012081015115156102048801526101408101511515610224880152610160810151151561024488015261018081015115156102648801526101a081015115156102848801526101c081015115156102a48801526101e081015115156102c48801526102008101516001600160a01b03166102e488015261022001516103048701526103248601600090526103448601526103a485016133c391612a7b565b916003199283868203016103648701526133dc9161541c565b84810392830161038486015260158152017f4465666966612073636f72696e672070686173652e0000000000000000000000905201915a90600091f19182156129a15750600091612fdd5750905090565b8093959799508d919496989a9b9c9d3d8311613471575b61344e8183612510565b8101031261012f5750928b9a99989795928b95928e9895519192939495966130ff565b503d613444565b8d513d6000823e3d90fd5b909192939450600081519161349783612436565b81835281858401528201526000606082015260006080820152600060a082015282828c01015201908c8f93928f6130be565b6134e19197508b3d8d116104b4576104a58183612510565b95386130a5565b8c513d6000823e3d90fd5b61350b919550873d89116104b4576104a58183612510565b9338613061565b508760005260008952846000205460e81c1515612cac565b8489517f11f43385000000000000000000000000000000000000000000000000000000008152fd5b6135699150833d8511612a2557612a148183612510565b5038612c89565b8a513d6000823e3d90fd5b9390969492508197956102008094015116908451936135998561246e565b600080865284860181905286860181905260608601528551926135bb846124bb565b60008085528585018190528785015286516135d581612404565b600081526001868201526135e89061554b565b918751946135f5866124d7565b85528585016000905261271080898701526060860152608085016001905260a085016000905260c085016000905260e08501600090526101008501600090526101208501600090526101408501600090526101608501600090526101808501600090526101a08501600090526101c08501600190526101e0850160019052840152610220830152845191613688836124f4565b60008352855194613698866124f4565b6000865286519e8f9a8b9963175b7be560e31b8b528a015288016136e2916001600160a01b0360608092805185526020810151602086015260408101516040860152015116910152565b80518051151560a4890152602080820151151560c48a0152604091820151151560e48a015282015161010489015281015161012488015260608101516101448801526080810151151561016488015260a0810151151561018488015260c081015115156101a488015260e081015115156101c488015261010081015115156101e488015261012081015115156102048801526101408101511515610224880152610160810151151561024488015261018081015115156102648801526101a081015115156102848801526101c081015115156102a48801526101e081015115156102c48801526102008101516001600160a01b03166102e488015261022001516103048701526103248601600090526103448601526103a4850161380591612a7b565b9160031992838682030161036487015261381e9161541c565b84810392830161038486015260128152017f446566696661206e6f20636f6e746573742e0000000000000000000000000000905201915a90600091f19384156138d1576000946138a1575b50906002916000525260002060017fffffffffffffffffffffffffffffffffffffffffffffffffffffffffffffff0082541617905590565b90938282813d83116138ca575b6138b88183612510565b8101031261012f575051926002613869565b503d6138ae565b83513d6000823e3d90fd5b8489517fdc7a2515000000000000000000000000000000000000000000000000000000008152fd5b50608081015115612c32565b9080975061392a92503d8811612a2557612a148183612510565b909538612c17565b87513d6000823e3d90fd5b3d15613968573d9061394e82612533565b9161395c6040519384612510565b82523d6000602084013e565b606090565b93906139ad959361399f936001600160a01b03928752602087015216604085015260a0606085015260a0840190612b90565b916080818403910152612b90565b90565b90816000526004602052604060002054615400576139cd82612874565b60078110156153ea57600381141590816153de575b506153b45781600052600460205260016040600020556040517f2bdfe0040000000000000000000000000000000000000000000000000000000081526020816004816001600160a01b037f0000000000000000000000000000000000000000000000000000000000000000165afa9081156141ac57600091615395575b507f0000000000000000000000000000000000000000000000000000000000000000600060405180937f69e11cc5000000000000000000000000000000000000000000000000000000008252816001600160a01b0381613af57f00000000000000000000000000000000000000000000000000000000000000008b89600485016040919493926060820195825260208201520152565b0392165afa9182156141ac57600092615276575b5081511561519a575b508260005260006020526001600160a01b0360406000205416604051916331070bc960e21b83526020836004816001600160a01b037f0000000000000000000000000000000000000000000000000000000000000000165afa9283156141ac57600093615179575b50604051630862026560e41b8152600481018690526001600160a01b038316602482015294602086806044810103816001600160a01b0388165afa9586156141ac57600096615158575b50604051957f975057e70000000000000000000000000000000000000000000000000000000087526020876004816001600160a01b0385165afa9687156141ac57600097615137575b506040517efdd58e0000000000000000000000000000000000000000000000000000000081526001600160a01b03828116600483015260248201849052909760209189916044918391165afa9687156141ac57600097615103575b506040517f313ce5670000000000000000000000000000000000000000000000000000000081526020816004816001600160a01b0386165afa9081156141ac576000916150d1575b50604051631982d67960e01b81528560048201526020816024816001600160a01b0387165afa9081156141ac5760009161509f575b50602089613cf286615968565b92613d4f603760405180967f536574746c696e67204465666966612067616d6520230000000000000000000087830152613d358151809289603686019101612b6d565b8101601760f91b6036820152036017810187520185612510565b613dd7604051613d5e816124f4565b60008152613dc560405196879586957fa02f801c0000000000000000000000000000000000000000000000000000000087528c600488015281602488015260448701528d606487015260848601523060a486015261010060c4860152610104850190612b90565b906003198483030160e4850152612b90565b038160006001600160a01b0388165af19081156141ac5760009161506d575b509360005b81518110156148f757613e0e8183612a67565b5190613e1e60408301518c615adc565b80613eb8575b6101206001937f840060ef23ca0ed289d5a8ad1b5fe10697027c885fe9adb64d80b9294baf14b392613ea5604051809360c0908051151583526020810151151560208401526040810151604084015260608101516060840152816001600160a01b039182608082015116608086015260a081015160a0860152015116910152565b60e082015233610100820152a101613dfb565b60c08301516001600160a01b031615614250576040517fb7bad1b10000000000000000000000000000000000000000000000000000000081528960048201526020816024816001600160a01b038b165afa9081156141ac5760009161421e575b5060405190613f2682612436565b8a82528260208301526040820152876060820152600060808201528360a082015261eeee8a03614201575b61eeee8a036141f95781905b6001600160a01b0360c08601511691823b156104175761018460009260a09261403b9560405196879586947f9d740bfa0000000000000000000000000000000000000000000000000000000086526001600160a01b03815116600487015260208101516024870152604081015160448701526060810151606487015260808101516084870152015160a485019060c0908051151583526020810151151560208401526040810151604084015260608101516060840152816001600160a01b039182608082015116608086015260a081015160a0860152015116910152565b5af190816141ea575b506141b8575061405261393d565b506000809761eeee8a0361409d575b6001936140927f840060ef23ca0ed289d5a8ad1b5fe10697027c885fe9adb64d80b9294baf14b39361012093612a37565b999250935050613e24565b60c0840151604051636eb1769f60e11b81523060048201526001600160a01b039091166024820181905292506020816044818e5afa9081156141ac578a938c9160009361416f575b509361012093614163600198946140929461415e7f840060ef23ca0ed289d5a8ad1b5fe10697027c885fe9adb64d80b9294baf14b39961415060405194859263095ea7b360e01b602085015260248401602090939291936001600160a01b0360408201951681520152565b03601f198101845283612510565b6157cc565b93509350509350614061565b9692509350506020853d6020116141a4575b8161418e60209383612510565b8101031261041757935189928b906101206140e5565b3d9150614181565b6040513d6000823e3d90fd5b966101206001936140928a7f840060ef23ca0ed289d5a8ad1b5fe10697027c885fe9adb64d80b9294baf14b394612a37565b6141f39061248a565b38614044565b600090613f5d565b614219826001600160a01b0360c0870151168c615570565b613f51565b90506020813d602011614248575b8161423960209383612510565b81010312610417575138613f18565b3d915061422c565b606083015191929115614703576142a49060208a8c60608601516001600160a01b03604051809781958294630862026560e41b8452600484019092916001600160a01b036020916040840195845216910152565b0392165afa9182156141ac576000926146e2575b506001600160a01b038216158015614656575b15614306575050907f840060ef23ca0ed289d5a8ad1b5fe10697027c885fe9adb64d80b9294baf14b36101206001936140926000809b612a37565b602060405161431481612404565b81815281369101376040518860208201526020815261433281612404565b61eeee8b0361463d575b61eeee8b036146355781905b60208501518a90156144d4575060608501516143638b615968565b926143c2603b60405180967f4465706f7369742066726f6d204465666966612067616d6520230000000000006020830152601760f91b81516143ae81603a9460208688019101612b6d565b83019182015203601b810187520185612510565b6001600160a01b0386163b1561041757848e92614411600095604051978896879586957f0cf8e8580000000000000000000000000000000000000000000000000000000087526004870161396d565b03916001600160a01b0388165af190816144c5575b5061449057600193927f840060ef23ca0ed289d5a8ad1b5fe10697027c885fe9adb64d80b9294baf14b3926101209261445d61393d565b5061eeee8d03614476575b50506140926000809b612a37565b6001600160a01b0361448992168d6156a7565b3880614468565b977f840060ef23ca0ed289d5a8ad1b5fe10697027c885fe9adb64d80b9294baf14b39150600193926140928a61012093612a37565b6144ce9061248a565b38614426565b91906020918d60608801516145bf6001600160a01b0360808b01511694613dc56145018c51151599615968565b61455e603a60405180937f5061796f75742066726f6d204465666966612067616d652023000000000000008d830152601760f91b815161454a8160399460208688019101612b6d565b83019182015203601a810184520182612510565b604051998a98899788977f1ebc263f00000000000000000000000000000000000000000000000000000000895260048901528d6024890152604488015260648701526000608487015260a486015261010060c4860152610104850190612b90565b03916001600160a01b0388165af1908161460a575061449057600193927f840060ef23ca0ed289d5a8ad1b5fe10697027c885fe9adb64d80b9294baf14b3926101209261445d61393d565b602090813d831161462e575b6146208183612510565b810103126104175738614426565b503d614616565b600090614348565b614651826001600160a01b0385168d615570565b61433c565b506040517fb7bad1b10000000000000000000000000000000000000000000000000000000081528a60048201526020816024816001600160a01b0387165afa80156141ac5787916000916146ad575b5014156142cb565b9150506020813d6020116146da575b816146c960209383612510565b8101031261041757869051386146a5565b3d91506146bc565b6146fc91925060203d6020116104b4576104a58183612510565b90386142b8565b96919060808101896001600160a01b038251168015156000146148be578a919061eeee8203614837575050506001600160a01b039051168847106147f357600080808b81945af161475261393d565b5015614789576101207f840060ef23ca0ed289d5a8ad1b5fe10697027c885fe9adb64d80b9294baf14b3916140928a600196612a37565b608460405162461bcd60e51b815260206004820152603a60248201527f416464726573733a20756e61626c6520746f2073656e642076616c75652c207260448201527f6563697069656e74206d617920686176652072657665727465640000000000006064820152fd5b606460405162461bcd60e51b815260206004820152601d60248201527f416464726573733a20696e73756666696369656e742062616c616e63650000006044820152fd5b6040517fa9059cbb0000000000000000000000000000000000000000000000000000000060208201526001600160a01b039091166024820152604481018390526001967f840060ef23ca0ed289d5a8ad1b5fe10697027c885fe9adb64d80b9294baf14b3956101209550936140929390926148b99161415e8260648101614150565b612a37565b50505060019297506101207f840060ef23ca0ed289d5a8ad1b5fe10697027c885fe9adb64d80b9294baf14b3916140926000809b612a37565b5050509192909495935082614f28575b505060405191638776c49960e01b83528360048401526103a09283816024816001600160a01b037f0000000000000000000000000000000000000000000000000000000000000000165afa9384156141ac57600094614f07575b5050600460206001600160a01b0361020086015116604051928380927f3b2b8a780000000000000000000000000000000000000000000000000000000082525afa9081156141ac57600091614ee8575b506040516370a0823160e01b81523060048201526020816024816001600160a01b0386165afa9081156141ac57600091614eb6575b50614d9b575b506040517f619306300000000000000000000000000000000000000000000000000000000081526020816004816001600160a01b037f0000000000000000000000000000000000000000000000000000000000000000165afa9081156141ac576001600160a01b0391602091600091614d7e575b506044604051809481937f5287af3700000000000000000000000000000000000000000000000000000000835230600484015260016024840152165afa9081156141ac57600091614d4c575b5080614c54575b50600460206001600160a01b0361020086015116604051928380927fc96073970000000000000000000000000000000000000000000000000000000082525afa80156141ac576001600160a01b0391600091614c35575b5016604051936370a0823160e01b8552306004860152602085602481855afa9485156141ac57600095614c01575b5084614b5c575b5050614b4b9250612a37565b906000526004602052604060002055565b61020001516040517f23b872dd0000000000000000000000000000000000000000000000000000000081523360048201526001600160a01b0390911660248201526044810194909452602090849060649082906000905af180156141ac57614bc6575b8280614b3f565b6020833d602011614bf9575b81614bdf60209383612510565b8101031261041757614bf3614b4b936126a0565b50614bbf565b3d9150614bd2565b9094506020813d602011614c2d575b81614c1d60209383612510565b8101031261041757519338614b38565b3d9150614c10565b614c4e915060203d6020116104b4576104a58183612510565b38614b0a565b6040517f619306300000000000000000000000000000000000000000000000000000000081526020816004816001600160a01b037f0000000000000000000000000000000000000000000000000000000000000000165afa80156141ac576001600160a01b0391600091614d2d575b501690813b15610417576000916064839260405194859384927f6607955d0000000000000000000000000000000000000000000000000000000084523060048501526001602485015260448401525af180156141ac5715614ab357614d279061248a565b38614ab3565b614d46915060203d6020116104b4576104a58183612510565b38614cc3565b90506020813d602011614d76575b81614d6760209383612510565b81010312610417575138614aac565b3d9150614d5a565b614d959150823d84116104b4576104a58183612510565b38614a60565b6001600160a01b0361020085015116604051906370a0823160e01b82523060048301526020826024816001600160a01b0387165afa9182156141ac57600092614e80575b506040517f23b872dd0000000000000000000000000000000000000000000000000000000081523360048201526001600160a01b03918216602482015260448101929092529091602091839190829060009082606481015b0393165af180156141ac57156149ec576020813d602011614e78575b81614e6060209383612510565b8101031261041757614e71906126a0565b50386149ec565b3d9150614e53565b91506020823d602011614eae575b81614e9b60209383612510565b8101031261041757905190614e37614ddf565b3d9150614e8e565b90506020813d602011614ee0575b81614ed160209383612510565b810103126104175751386149e6565b3d9150614ec4565b614f01915060203d6020116104b4576104a58183612510565b386149b1565b614f1e929450803d10612a2557612a148183612510565b9050913880614961565b61eeee81148015615054575b1561504c5782905b614f4586615968565b92614fc0603f60405180967f4465666966612067616d652023000000000000000000000000000000000000006020830152614f8a815180926020602d86019101612b6d565b81017f20686173206265656e20736574746c65642e0000000000000000000000000000602d82015203601f810187520185612510565b604051614fcc816124f4565b600081526001600160a01b0382163b15610417576000936001600160a01b03896150278994604051998a98899788957f0cf8e8580000000000000000000000000000000000000000000000000000000087526004870161396d565b0393165af180156141ac5761503d575b80614907565b6150469061248a565b38615037565b600090614f3c565b615068846001600160a01b03851684615570565b614f34565b90506020813d602011615097575b8161508860209383612510565b81010312610417575138613df6565b3d915061507b565b90506020813d6020116150c9575b816150ba60209383612510565b81010312610417575138613ce5565b3d91506150ad565b90506020813d6020116150fb575b816150ec60209383612510565b81010312610417575138613cb0565b3d91506150df565b9096506020813d60201161512f575b8161511f60209383612510565b8101031261041757519538613c68565b3d9150615112565b61515191975060203d6020116104b4576104a58183612510565b9538613c0d565b61517291965060203d6020116104b4576104a58183612510565b9438613bc4565b61519391935060203d6020116104b4576104a58183612510565b9138613b7a565b60405191506151a882612404565b6001825260005b6020811061522e57508160035480156152185761521192604051916151d383612452565b6001835260006020840152633b9aca000460408301526060820152306080820152600060a0820152600060c082015261520b82612a44565b52612a44565b5038613b12565b634e487b7160e01b600052601260045260246000fd5b60209060405161523d81612452565b60008152600083820152600060408201526000606082015260006080820152600060a0820152600060c0820152828286010152016151af565b9091503d806000833e6152898183612510565b8101906020818303126104175780519067ffffffffffffffff8211610417570181601f82011215610417578051906152c082612596565b926152ce6040519485612510565b8284526020840190602060e08095028401019281841161041757602001915b8383106153005750505050509038613b09565b8483830312610417576040519061531682612452565b61531f846126a0565b825261532d602085016126a0565b60208301526040840151604083015260608085015190830152608080850151906001600160a01b03821682036104175783015260a0808501519083015260c09081850151926001600160a01b03841684036104175787936020938201528152019201916152ed565b6153ae915060203d6020116104b4576104a58183612510565b38613a5f565b60046040517f66954d0b000000000000000000000000000000000000000000000000000000008152fd5b600491501415386139e2565b634e487b7160e01b600052602160045260246000fd5b9050565b65ffffffffffff91821690821603919082116125f757565b90815180825260208080930193019160005b82811061543c575050505090565b835180516001600160a01b03908116875281840151168684015260408082015190870152606080820151908701526080808201519087015260a0908101519086015260c0909401939281019260010161542e565b906040810151604051927fa40bb9c7000000000000000000000000000000000000000000000000000000008452600484015260248301526103a09182816044816001600160a01b037f0000000000000000000000000000000000000000000000000000000000000000165afa9283156141ac5760009361552b575b505051905190600182018092116125f7570361552657600090565b600190565b615542929350803d10612a2557612a148183612510565b5090388061550b565b906000918051615567575b6020015161556057565b9060021790565b60019250615556565b91909181158015615627575b156155bd5760405163095ea7b360e01b60208201526001600160a01b03909316602484015260448301919091526155bb919061415e8260648101614150565b565b608460405162461bcd60e51b815260206004820152603660248201527f5361666545524332303a20617070726f76652066726f6d206e6f6e2d7a65726f60448201527f20746f206e6f6e2d7a65726f20616c6c6f77616e6365000000000000000000006064820152fd5b50604051636eb1769f60e11b81523060048201526001600160a01b0384166024820152602081806044810103816001600160a01b0386165afa9081156141ac57600091615676575b501561557c565b906020823d821161569f575b8161568f60209383612510565b8101031261012f5750513861566f565b3d9150615682565b604051636eb1769f60e11b81523060048201526001600160a01b03831660248201529092602092918381806044810103816001600160a01b0389165afa9081156141ac5760009161579f575b508181106157355760405163095ea7b360e01b948101949094526001600160a01b039092166024840152900360448201526155bb9161415e8260648101614150565b6084846040519062461bcd60e51b82526004820152602960248201527f5361666545524332303a2064656372656173656420616c6c6f77616e6365206260448201527f656c6f77207a65726f00000000000000000000000000000000000000000000006064820152fd5b908482813d83116157c5575b6157b58183612510565b8101031261012f575051386156f3565b503d6157ab565b60405161582a916001600160a01b03166157e582612404565b6000806020958685527f5361666545524332303a206c6f772d6c6576656c2063616c6c206661696c656487860152868151910182855af161582461393d565b916158cc565b80518281159182156158ad575b50509050156158435750565b6084906040519062461bcd60e51b82526004820152602a60248201527f5361666545524332303a204552433230206f7065726174696f6e20646964206e60448201527f6f742073756363656564000000000000000000000000000000000000000000006064820152fd5b838092935001031261041757816158c491016126a0565b808238615837565b9192901561592d57508151156158e0575090565b3b156158e95790565b606460405162461bcd60e51b815260206004820152601d60248201527f416464726573733a2063616c6c20746f206e6f6e2d636f6e74726163740000006044820152fd5b8251909150156159405750805190602001fd5b6159649060405191829162461bcd60e51b8352602060048401526024830190612b90565b0390fd5b806000917a184f03e93ff9f4daa797ed6e38ed64bf6a1f01000000000000000080821015615ace575b506d04ee2d6d415b85acef810000000080831015615abf575b50662386f26fc1000080831015615ab0575b506305f5e10080831015615aa1575b5061271080831015615a92575b506064821015615a82575b600a80921015615a78575b60019081602181860195601f19615a1d615a0789612533565b98615a156040519a8b612510565b808a52612533565b01366020890137860101905b615a35575b5050505090565b600019849101917f30313233343536373839616263646566000000000000000000000000000000008282061a835304918215615a7357919082615a29565b615a2e565b91600101916159ee565b91906064600291049101916159e3565b600491939204910191386159d8565b600891939204910191386159cb565b601091939204910191386159bc565b602091939204910191386159aa565b604093508104915038615991565b919060001981840981840291828083109203918083039214615b7457633b9aca009081831015615b3d577f88f2cfb83100cb4e69e7c79c58b316e597157d372fb9787e8e47ce423a2e9c6d94950990828211900360f71b910360091c170290565b60448383604051917f773cc18c00000000000000000000000000000000000000000000000000000000835260048301526024820152fd5b5050633b9aca009004915056fea2646970667358221220c2cf15e16f2dce7e4f09afb6aa88dd339340f82c1280e452181d685a7697b8d164736f6c63430008140033",
    "linkReferences": {}
  },
  "methodIdentifiers": {
    "controller()": "f77c4791",
    "currentGamePhaseOf(uint256)": "0715610a",
    "currentGamePotOf(uint256,bool)": "b4dfb086",
    "defifaProjectId()": "0134a03d",
    "delegateCodeOrigin()": "06b552b5",
    "delegatesRegistry()": "d574ff04",
    "feeDivisor()": "9a36f932",
    "fulfillCommitmentsOf(uint256)": "b6674cde",
    "fulfilledCommitmentsOf(uint256)": "f2ae5f6e",
    "governor()": "0c340a24",
    "launchGameWith((string,(string,uint256),string,string,(string,uint80,uint16,address,bytes32,bool)[],address,uint24,uint24,uint48,(bool,bool,uint256,uint256,address,uint256,address)[],uint256,uint256,address,address,address,address))": "29045728",
    "nextPhaseNeedsQueueing(uint256)": "81312a14",
    "onERC721Received(address,address,uint256,bytes)": "150b7a02",
    "queueNextPhaseOf(uint256)": "1c069dbb",
    "splitGroup()": "859bb4b2",
    "timesFor(uint256)": "b07925d3",
    "tokenOf(uint256)": "ea78803f",
    "tokenUriResolver()": "e131fc0c"
  },
  "id": 1
}