{
  "abi": [
    {
      "inputs": [
        {
          "internalType": "address",
          "name": "_delegateCodeOrigin",
          "type": "address"
        },
        {
          "internalType": "address",
          "name": "_governorCodeOrigin",
          "type": "address"
        },
        {
          "internalType": "address",
          "name": "_tokenUriResolverCodeOrigin",
          "type": "address"
        },
        {
          "internalType": "contract IJBController3_1",
          "name": "_controller",
          "type": "address"
        },
        {
          "internalType": "contract IJBDelegatesRegistry",
          "name": "_delegatesRegistry",
          "type": "address"
        },
        {
          "internalType": "address",
          "name": "_protocolFeeProjectTokenAccount",
          "type": "address"
        },
        {
          "internalType": "uint256",
          "name": "_ballkidzProjectId",
          "type": "uint256"
        },
        {
          "internalType": "address",
          "name": "_owner",
          "type": "address"
        }
      ],
      "stateMutability": "nonpayable",
      "type": "constructor"
    },
    {
      "inputs": [],
      "name": "GAME_OVER",
      "type": "error"
    },
    {
      "inputs": [],
      "name": "INVALID_FEE_PERCENT",
      "type": "error"
    },
    {
      "inputs": [],
      "name": "INVALID_GAME_CONFIGURATION",
      "type": "error"
    },
    {
      "inputs": [],
      "name": "PHASE_ALREADY_QUEUED",
      "type": "error"
    },
    {
      "inputs": [],
      "name": "SPLITS_DONT_ADD_UP",
      "type": "error"
    },
    {
      "inputs": [],
      "name": "UNEXPECTED_TERMINAL_CURRENCY",
      "type": "error"
    },
    {
      "anonymous": false,
      "inputs": [
        {
          "indexed": true,
          "internalType": "contract IDefifaDelegate",
          "name": "delegate",
          "type": "address"
        },
        {
          "indexed": true,
          "internalType": "contract IDefifaGovernor",
          "name": "governor",
          "type": "address"
        },
        {
          "indexed": true,
          "internalType": "contract IJBTokenUriResolver",
          "name": "tokenUriResolver",
          "type": "address"
        },
        {
          "indexed": false,
          "internalType": "address",
          "name": "caller",
          "type": "address"
        }
      ],
      "name": "LaunchGame",
      "type": "event"
    },
    {
      "anonymous": false,
      "inputs": [
        {
          "indexed": true,
          "internalType": "address",
          "name": "previousOwner",
          "type": "address"
        },
        {
          "indexed": true,
          "internalType": "address",
          "name": "newOwner",
          "type": "address"
        }
      ],
      "name": "OwnershipTransferred",
      "type": "event"
    },
    {
      "inputs": [],
      "name": "SPLIT_DOMAIN",
      "outputs": [
        {
          "internalType": "uint256",
          "name": "",
          "type": "uint256"
        }
      ],
      "stateMutability": "view",
      "type": "function"
    },
    {
      "inputs": [],
      "name": "ballkidzProjectId",
      "outputs": [
        {
          "internalType": "uint256",
          "name": "",
          "type": "uint256"
        }
      ],
      "stateMutability": "view",
      "type": "function"
    },
    {
      "inputs": [
        {
          "internalType": "uint256",
          "name": "_percent",
          "type": "uint256"
        }
      ],
      "name": "changeFee",
      "outputs": [],
      "stateMutability": "nonpayable",
      "type": "function"
    },
    {
      "inputs": [],
      "name": "claimProtocolProjectToken",
      "outputs": [],
      "stateMutability": "nonpayable",
      "type": "function"
    },
    {
      "inputs": [],
      "name": "controller",
      "outputs": [
        {
          "internalType": "contract IJBController3_1",
          "name": "",
          "type": "address"
        }
      ],
      "stateMutability": "view",
      "type": "function"
    },
    {
      "inputs": [
        {
          "internalType": "uint256",
          "name": "_gameId",
          "type": "uint256"
        }
      ],
      "name": "currentGamePhaseOf",
      "outputs": [
        {
          "internalType": "uint256",
          "name": "",
          "type": "uint256"
        }
      ],
      "stateMutability": "view",
      "type": "function"
    },
    {
      "inputs": [],
      "name": "delegateCodeOrigin",
      "outputs": [
        {
          "internalType": "address",
          "name": "",
          "type": "address"
        }
      ],
      "stateMutability": "view",
      "type": "function"
    },
    {
      "inputs": [],
      "name": "delegatesRegistry",
      "outputs": [
        {
          "internalType": "contract IJBDelegatesRegistry",
          "name": "",
          "type": "address"
        }
      ],
      "stateMutability": "view",
      "type": "function"
    },
    {
      "inputs": [
        {
          "internalType": "uint256",
          "name": "_gameId",
          "type": "uint256"
        }
      ],
      "name": "distributionLimit",
      "outputs": [
        {
          "internalType": "uint256",
          "name": "",
          "type": "uint256"
        }
      ],
      "stateMutability": "view",
      "type": "function"
    },
    {
      "inputs": [
        {
          "internalType": "uint256",
          "name": "_gameId",
          "type": "uint256"
        }
      ],
      "name": "endOf",
      "outputs": [
        {
          "internalType": "uint256",
          "name": "",
          "type": "uint256"
        }
      ],
      "stateMutability": "view",
      "type": "function"
    },
    {
      "inputs": [],
      "name": "feeDivisor",
      "outputs": [
        {
          "internalType": "uint256",
          "name": "",
          "type": "uint256"
        }
      ],
      "stateMutability": "view",
      "type": "function"
    },
    {
      "inputs": [],
      "name": "governorCodeOrigin",
      "outputs": [
        {
          "internalType": "address",
          "name": "",
          "type": "address"
        }
      ],
      "stateMutability": "view",
      "type": "function"
    },
    {
      "inputs": [
        {
          "components": [
            {
              "internalType": "string",
              "name": "name",
              "type": "string"
            },
            {
              "components": [
                {
                  "internalType": "string",
                  "name": "content",
                  "type": "string"
                },
                {
                  "internalType": "uint256",
                  "name": "domain",
                  "type": "uint256"
                }
              ],
              "internalType": "struct JBProjectMetadata",
              "name": "projectMetadata",
              "type": "tuple"
            },
            {
              "internalType": "string",
              "name": "contractUri",
              "type": "string"
            },
            {
              "internalType": "string",
              "name": "baseUri",
              "type": "string"
            },
            {
              "components": [
                {
                  "internalType": "uint80",
                  "name": "price",
                  "type": "uint80"
                },
                {
                  "internalType": "uint16",
                  "name": "reservedRate",
                  "type": "uint16"
                },
                {
                  "internalType": "address",
                  "name": "reservedTokenBeneficiary",
                  "type": "address"
                },
                {
                  "internalType": "uint8",
                  "name": "royaltyRate",
                  "type": "uint8"
                },
                {
                  "internalType": "address",
                  "name": "royaltyBeneficiary",
                  "type": "address"
                },
                {
                  "internalType": "bytes32",
                  "name": "encodedIPFSUri",
                  "type": "bytes32"
                },
                {
                  "internalType": "bool",
                  "name": "shouldUseReservedTokenBeneficiaryAsDefault",
                  "type": "bool"
                },
                {
                  "internalType": "string",
                  "name": "name",
                  "type": "string"
                }
              ],
              "internalType": "struct DefifaTierParams[]",
              "name": "tiers",
              "type": "tuple[]"
            },
            {
              "internalType": "address",
              "name": "token",
              "type": "address"
            },
            {
              "internalType": "uint48",
              "name": "mintDuration",
              "type": "uint48"
            },
            {
              "internalType": "uint48",
              "name": "refundPeriodDuration",
              "type": "uint48"
            },
            {
              "internalType": "uint48",
              "name": "start",
              "type": "uint48"
            },
            {
              "internalType": "uint48",
              "name": "end",
              "type": "uint48"
            },
            {
              "components": [
                {
                  "internalType": "bool",
                  "name": "preferClaimed",
                  "type": "bool"
                },
                {
                  "internalType": "bool",
                  "name": "preferAddToBalance",
                  "type": "bool"
                },
                {
                  "internalType": "uint256",
                  "name": "percent",
                  "type": "uint256"
                },
                {
                  "internalType": "uint256",
                  "name": "projectId",
                  "type": "uint256"
                },
                {
                  "internalType": "address payable",
                  "name": "beneficiary",
                  "type": "address"
                },
                {
                  "internalType": "uint256",
                  "name": "lockedUntil",
                  "type": "uint256"
                },
                {
                  "internalType": "contract IJBSplitAllocator",
                  "name": "allocator",
                  "type": "address"
                }
              ],
              "internalType": "struct JBSplit[]",
              "name": "splits",
              "type": "tuple[]"
            },
            {
              "internalType": "uint88",
              "name": "distributionLimit",
              "type": "uint88"
            },
            {
              "internalType": "address payable",
              "name": "ballkidzFeeProjectTokenAccount",
              "type": "address"
            },
            {
              "internalType": "uint256",
              "name": "votingPeriod",
              "type": "uint256"
            },
            {
              "internalType": "contract IJBTokenUriResolver",
              "name": "defaultTokenUriResolver",
              "type": "address"
            },
            {
              "internalType": "contract IJBPaymentTerminal",
              "name": "terminal",
              "type": "address"
            },
            {
              "internalType": "contract IJBTiered721DelegateStore",
              "name": "store",
              "type": "address"
            }
          ],
          "internalType": "struct DefifaLaunchProjectData",
          "name": "_launchProjectData",
          "type": "tuple"
        }
      ],
      "name": "launchGameWith",
      "outputs": [
        {
          "internalType": "uint256",
          "name": "gameId",
          "type": "uint256"
        },
        {
          "internalType": "contract IDefifaGovernor",
          "name": "governor",
          "type": "address"
        }
      ],
      "stateMutability": "nonpayable",
      "type": "function"
    },
    {
      "inputs": [
        {
          "internalType": "uint256",
          "name": "_gameId",
          "type": "uint256"
        }
      ],
      "name": "mintDurationOf",
      "outputs": [
        {
          "internalType": "uint256",
          "name": "",
          "type": "uint256"
        }
      ],
      "stateMutability": "view",
      "type": "function"
    },
    {
      "inputs": [
        {
          "internalType": "uint256",
          "name": "_gameId",
          "type": "uint256"
        }
      ],
      "name": "nextPhaseNeedsQueueing",
      "outputs": [
        {
          "internalType": "bool",
          "name": "",
          "type": "bool"
        }
      ],
      "stateMutability": "view",
      "type": "function"
    },
    {
      "inputs": [
        {
          "internalType": "address",
          "name": "",
          "type": "address"
        },
        {
          "internalType": "address",
          "name": "",
          "type": "address"
        },
        {
          "internalType": "uint256",
          "name": "",
          "type": "uint256"
        },
        {
          "internalType": "bytes",
          "name": "",
          "type": "bytes"
        }
      ],
      "name": "onERC721Received",
      "outputs": [
        {
          "internalType": "bytes4",
          "name": "",
          "type": "bytes4"
        }
      ],
      "stateMutability": "pure",
      "type": "function"
    },
    {
      "inputs": [],
      "name": "owner",
      "outputs": [
        {
          "internalType": "address",
          "name": "",
          "type": "address"
        }
      ],
      "stateMutability": "view",
      "type": "function"
    },
    {
      "inputs": [],
      "name": "protocolFeeProjectTokenAccount",
      "outputs": [
        {
          "internalType": "address",
          "name": "",
          "type": "address"
        }
      ],
      "stateMutability": "view",
      "type": "function"
    },
    {
      "inputs": [
        {
          "internalType": "uint256",
          "name": "_gameId",
          "type": "uint256"
        }
      ],
      "name": "queueNextPhaseOf",
      "outputs": [
        {
          "internalType": "uint256",
          "name": "configuration",
          "type": "uint256"
        }
      ],
      "stateMutability": "nonpayable",
      "type": "function"
    },
    {
      "inputs": [
        {
          "internalType": "uint256",
          "name": "_gameId",
          "type": "uint256"
        }
      ],
      "name": "refundPeriodDurationOf",
      "outputs": [
        {
          "internalType": "uint256",
          "name": "",
          "type": "uint256"
        }
      ],
      "stateMutability": "view",
      "type": "function"
    },
    {
      "inputs": [],
      "name": "renounceOwnership",
      "outputs": [],
      "stateMutability": "nonpayable",
      "type": "function"
    },
    {
      "inputs": [
        {
          "internalType": "uint256",
          "name": "_gameId",
          "type": "uint256"
        }
      ],
      "name": "startOf",
      "outputs": [
        {
          "internalType": "uint256",
          "name": "",
          "type": "uint256"
        }
      ],
      "stateMutability": "view",
      "type": "function"
    },
    {
      "inputs": [
        {
          "internalType": "uint256",
          "name": "_gameId",
          "type": "uint256"
        }
      ],
      "name": "terminalOf",
      "outputs": [
        {
          "internalType": "contract IJBPaymentTerminal",
          "name": "",
          "type": "address"
        }
      ],
      "stateMutability": "view",
      "type": "function"
    },
    {
      "inputs": [
        {
          "internalType": "uint256",
          "name": "_gameId",
          "type": "uint256"
        }
      ],
      "name": "timesFor",
      "outputs": [
        {
          "components": [
            {
              "internalType": "uint48",
              "name": "mintDuration",
              "type": "uint48"
            },
            {
              "internalType": "uint48",
              "name": "refundPeriodDuration",
              "type": "uint48"
            },
            {
              "internalType": "uint48",
              "name": "start",
              "type": "uint48"
            },
            {
              "internalType": "uint48",
              "name": "end",
              "type": "uint48"
            }
          ],
          "internalType": "struct DefifaTimeData",
          "name": "",
          "type": "tuple"
        }
      ],
      "stateMutability": "view",
      "type": "function"
    },
    {
      "inputs": [],
      "name": "tokenUriResolverCodeOrigin",
      "outputs": [
        {
          "internalType": "address",
          "name": "",
          "type": "address"
        }
      ],
      "stateMutability": "view",
      "type": "function"
    },
    {
      "inputs": [
        {
          "internalType": "address",
          "name": "newOwner",
          "type": "address"
        }
      ],
      "name": "transferOwnership",
      "outputs": [],
      "stateMutability": "nonpayable",
      "type": "function"
    }
  ],
  "bytecode": {
    "object": "0x61016034620001cc576200427438819003601f8101601f191683016001600160401b03811184821017620001d15783928291604052833961010092839181010312620001cc576200005081620001e7565b906200005f60208201620001e7565b916200006e60408301620001e7565b60608301516001600160a01b0393919291908481168103620001cc5760808201519485168503620001cc57620000f693620000ac60a08401620001e7565b96620000c060e060c08601519501620001e7565b94620000cc33620001fc565b6001600355601460045560a05260c05260e0528652610120948552610140938452608052620001fc565b6040519161403093846200024485396080518481816122bb015281816123f9015281816129890152613825015260a0518481816112220152612adf015260c05184818161015e0152611a93015260e0518481816108c501526120390152518381816101c10152818161032d015281816106b101528181610e14015281816112a60152818161144a01528181611a580152818161237b015281816129de015281816131db01528181613256015281816135df01526137ba01525182818161044801526128280152518181816102ec0152611b7a0152f35b600080fd5b634e487b7160e01b600052604160045260246000fd5b51906001600160a01b0382168203620001cc57565b600080546001600160a01b039283166001600160a01b03198216811783559216907f8be0079c531659141344cd1fd0a4f28419497f9722a3daafe3b4186f6b6457e09080a356fe608080604052600436101561001357600080fd5b600090813560e01c9081630589d29214612b035750806306b552b514612abf5780630715610a146129ac5780630d75b3aa146129715780631109fff21461293c578063150b7a02146128b05780631c069dbb1461288957806327655cfd1461284c5780633f3090d914612808578063492f1ef2146109f55780634fe0eced146109c25780636a1db1bf14610950578063715018a6146108e957806380f07954146108a557806381312a14146106845780638da5cb5b1461065e5780639a36f93214610640578063b07925d3146105a1578063b41e7f471461056c578063b965933e14610537578063ca449a2514610310578063d574ff04146102cc578063f2fde38b146101e5578063f77c4791146101a1578063ff16a2f2146101855763ff2a43cc1461013f57600080fd5b3461018257806003193601126101825760206040516001600160a01b037f0000000000000000000000000000000000000000000000000000000000000000168152f35b80fd5b5034610182578060031936011261018257602090604051908152f35b503461018257806003193601126101825760206040516001600160a01b037f0000000000000000000000000000000000000000000000000000000000000000168152f35b5034610182576020600319360112610182576101ff612b32565b610207613f08565b6001600160a01b03809116908115610262576000548273ffffffffffffffffffffffffffffffffffffffff19821617600055167f8be0079c531659141344cd1fd0a4f28419497f9722a3daafe3b4186f6b6457e0600080a380f35b608460405162461bcd60e51b815260206004820152602660248201527f4f776e61626c653a206e6577206f776e657220697320746865207a65726f206160448201527f64647265737300000000000000000000000000000000000000000000000000006064820152fd5b503461018257806003193601126101825760206040516001600160a01b037f0000000000000000000000000000000000000000000000000000000000000000168152f35b5034610182578060031936011261018257806001600160a01b03807f000000000000000000000000000000000000000000000000000000000000000016906040517f6193063000000000000000000000000000000000000000000000000000000000928382526020918281600481855afa90811561052c5783918591889161050f575b50169460046040518094819382525afa9081156104d7578391839187916104e2575b506044604051809481937f5287af3700000000000000000000000000000000000000000000000000000000835230600484015260016024840152165afa9182156104d75785926104a1575b5050823b1561049c57608484928360405195869485937fac689bcd000000000000000000000000000000000000000000000000000000008552306004860152600160248601527f000000000000000000000000000000000000000000000000000000000000000016604485015260648401525af18015610491576104815750f35b61048a90612bcc565b6101825780f35b6040513d84823e3d90fd5b505050fd5b8195508092503d83116104d0575b6104b98183612c52565b810103126104cb578392513880610400565b600080fd5b503d6104af565b6040513d87823e3d90fd5b6105029150823d8411610508575b6104fa8183612c52565b810190612d10565b386103b5565b503d6104f0565b6105269150833d8511610508576104fa8183612c52565b38610393565b6040513d88823e3d90fd5b50346101825760206003193601126101825765ffffffffffff6040602092600435815260018452205460901c16604051908152f35b50346101825760206003193601126101825765ffffffffffff6040602092600435815260018452205460601c16604051908152f35b503461018257602060031936011261018257604081608092606083516105c681612b94565b828152826020820152828582015201526004358152600160205220604051906105ee82612b94565b5465ffffffffffff9081808216938481528160208201818560301c16815281606060408501948288831c168652019560901c168552604051968752511660208601525116604084015251166060820152f35b50346101825780600319360112610182576020600454604051908152f35b50346101825780600319360112610182576001600160a01b036020915416604051908152f35b503461018257602090816003193601126101825760405163557e715560e01b808252916001600160a01b037f0000000000000000000000000000000000000000000000000000000000000000811660048035908790869081855afa94851561089a578495610879575b5082939495604051967f43a266c200000000000000000000000000000000000000000000000000000000885282600489015287602481610120988994165afa96871561052c579088918798610839575b5060046040518095819382525afa9182156104d757908492918692610817575b5060249060405194859384927f5c5500780000000000000000000000000000000000000000000000000000000084526004840152165afa92831561080b5780936107cf575b5050508260048351141592836107be575b506040518315158152f35b8101519101511490503882816107b3565b90918093503d8411610804575b6107e68184612c52565b820192828403126101825750906107fc91612d2f565b3880806107a2565b503d6107dc565b604051903d90823e3d90fd5b602491925061083290893d8b11610508576104fa8183612c52565b919061075d565b91509650843d8611610872575b6108508183612c52565b810190858183031261086e57889161086791612d2f565b963861073d565b8680fd5b503d610846565b8394955061089390883d8a11610508576104fa8183612c52565b94936106ed565b6040513d86823e3d90fd5b503461018257806003193601126101825760206040516001600160a01b037f0000000000000000000000000000000000000000000000000000000000000000168152f35b5034610182578060031936011261018257610902613f08565b60006001600160a01b03815473ffffffffffffffffffffffffffffffffffffffff1981168355167f8be0079c531659141344cd1fd0a4f28419497f9722a3daafe3b4186f6b6457e08280a380f35b50346101825760206003193601126101825760043561096d613f08565b600581116109985780156109845760640460045580f35b602482634e487b7160e01b81526012600452fd5b60046040517f42c9b523000000000000000000000000000000000000000000000000000000008152fd5b5034610182576020600319360112610182576001600160a01b036040602092600435815260028452205416604051908152f35b50346101825760206003193601126101825767ffffffffffffffff6004351161018257610220600319600435360301126101825760405190610220820182811067ffffffffffffffff8211176127f4576040526004356004013567ffffffffffffffff8111611d4e57610a6f906004369181350101612c91565b82526024600435013567ffffffffffffffff8111611d4e576004350160406003198236030112611d4e5760405190610aa682612b5c565b600481013567ffffffffffffffff81116126695790610acd60249260043691840101612c91565b83520135602082015260208301526044600435013567ffffffffffffffff8111611d4e57610b02906004369181350101612c91565b60408301526064600435013567ffffffffffffffff8111611d4e57610b2e906004369181350101612c91565b60608301526084600435013567ffffffffffffffff8111611d4e573660238260043501011215611d4e57600481813501013590610b6a82612cd8565b91610b786040519384612c52565b80835260208301913660248360051b8360043501010111612665576024816004350101925b60248360051b83600435010101841061266d57505050506080830152610bc760a460043501612b48565b60a0830152610bda60c460043501612cfd565b60c0830152610bed60e460043501612cfd565b60e0830152610c0161010460043501612cfd565b610100830152610c1661012460043501612cfd565b61012083015267ffffffffffffffff610144600435013511610182573660043561014481013501602301121561018257610c5b60048035610144810135010135612cd8565b610c686040519182612c52565b60048035610144810135019081013580835260208301913660e09092020160240111611c795760043561014481013501602401905b60048035610144810135019081013560e0020160240182106125d457505061014083015260043561016401356affffffffffffffffffffff81169003610182576101646004350135610160830152610cfa61018460043501612b48565b6101808301526004356101a48101356101a08401526101c401356001600160a01b0381169003610182576004356101c48101356101c08401526101e401356001600160a01b0381169003610182576004356101e48101356101e084015261020401356001600160a01b038116900361018257610204600435013561020083015265ffffffffffff61010083015116156125c0575b610dc8610db565ffffffffffff6101008501511665ffffffffffff60e08601511690612dc2565b65ffffffffffff60c08501511690612dc2565b65ffffffffffff42911610801561259d575b612573576040517f8b79543c0000000000000000000000000000000000000000000000000000000081526020816004816001600160a01b037f0000000000000000000000000000000000000000000000000000000000000000165afa908115610491578291612530575b509060206001600160a01b03926004604051809581937f06661abd000000000000000000000000000000000000000000000000000000008352165afa9182156125235781926124ef575b50600182018211611c515765ffffffffffff60c08401511665ffffffffffff60e08501511665ffffffffffff6101008601511665ffffffffffff610120870151169060405193610edd85612b94565b8452602084019283526040840190815260608401918252600186018552600160205265ffffffffffff604086209451167fffffffffffffffff00000000000000000000000000000000000000000000000077ffffffffffff00000000000000000000000000000000000071ffffffffffff0000000000000000000000006bffffffffffff0000000000008854975160301b16945160601b16945160901b1694161717171790556001600160a01b036101e0840151166affffffffffffffffffffff610160850151166001600160a01b0360018160a0880151169360405190610fc482612bb0565b8152602081019485526040810193845281870186526002602052826040872091511673ffffffffffffffffffffffffffffffffffffffff19825416178155019251167fff000000000000000000000000000000000000000000000000000000000000007effffffffffffffffffffff00000000000000000000000000000000000000008454935160a01b169216171790556101408301515180612259575b50906080830151519261107484612cd8565b936110826040519586612c52565b808552601f1961109182612cd8565b01845b8181106121e8575050608082015151906110c66110b083612cd8565b926110be6040519485612c52565b808452612cd8565b855b601f19820181106121d25750506040518061010081011067ffffffffffffffff610100830111176121bc5760e0816101006060930160405287815287602082015287604082015287838201528760808201528760a08201528760c08201520152845b8181106120ca5750506001600160a01b036101e08301511660206001600160a01b0360a0850151166024604051809481937f1982d67900000000000000000000000000000000000000000000000000000000835260048301525afa9081156104d7578591612098575b506001600160a01b036101e0840151169060206001600160a01b0360a0860151166024604051809581937fb7bad1b100000000000000000000000000000000000000000000000000000000835260048301525afa91821561052c578692612064575b506040519661120388612b94565b8752602087015260408601528360608601526001600160a01b036112467f0000000000000000000000000000000000000000000000000000000000000000613f60565b6101c0840151911694906001600160a01b03161561202c576001600160a01b036101c084015116915b604051967fc41c2f240000000000000000000000000000000000000000000000000000000088526020886004816001600160a01b037f0000000000000000000000000000000000000000000000000000000000000000165afa978815611e64578398611fe8575b5084518360018801807a184f03e93ff9f4daa797ed6e38ed64bf6a1f01000000000000000080821015611fd7575b506d04ee2d6d415b85acef810000000080821015611fca575b50662386f26fc1000080821015611fbd575b506305f5e10080821015611fb0575b50612710811015611fa1575b6064811015611f93575b600a80911015611f89575b600183019181600019602161138c61137687612c75565b966113846040519889612c52565b808852612c75565b96601f196020880198013689378601015b01917f30313233343536373839616263646566000000000000000000000000000000008282061a8353049081156113d857600019839161139d565b505050602761142d9161141d936040519485927f4445464946412000000000000000000000000000000000000000000000000000602085015251809285850190612f66565b8101036007810184520182612c52565b60405163557e715560e01b81526020816004816001600160a01b037f0000000000000000000000000000000000000000000000000000000000000000165afa90811561052c578691611f6a575b5060608801516040890151916001600160a01b036102008b01511693604051956114a387612b94565b898752896020880152896040880152600160608801528d3b15611f665792899596928f9894928e96936040519a8b987fd1704baf000000000000000000000000000000000000000000000000000000008a5260010160048a01526001600160a01b03166024890152604488016101c090526101c4880161152291612f89565b87810360031901606489015261153791612f89565b906001600160a01b031660848701528581036003190160a487015261155b91612f89565b6001600160a01b038b1660c48601528481036003190160e486015261157f91612f89565b94838603600319016101048501528251926080875260808701845180915260a088019460200190875b818110611e6f575050509084959660606001600160a01b03818560208298970151602086015260408101516040860152015116910152610124850152805115156101448501526020810151151561016485015260408101511515610184850152015115156101a48301520381838b5af18015611e6457908391611e50575b50506001600160a01b036101c08501511615611d5a575b506101e083015160a08401516040517fdf21a7dd0000000000000000000000000000000000000000000000000000000081526001600160a01b0391821660048201526001870160248201529160209183916044918391165afa908115610491578291611d1c575b5015611cf2576103e060246040516116bb81612b5c565b60018152602036818301376001600160a01b036101e0870151166116de82612df0565b526119e860208701516119d565ffffffffffff60c08a015116916040519261170584612b94565b835287602084015287604084015287606084015260405161172581612bb0565b88815288602082015288604082015261175260405161174381612b5c565b8a815260016020820152613ee3565b6040519161175f83612bfd565b8252896020830152612710604083015261271060608301528960808301528960a08301528960c08301528960e08301528961010083015289610120830152896101408301528961016083015289610180830152896101a083015260016101c083015260016101e08301528d61020083015261022082015265ffffffffffff6118068c8260e06117fc82610100850151168360c08601511690612dc2565b9201511690612dc2565b6119bc6040519361181685612c36565b600085526118b36040519861182a8a612c36565b60008a526040519d8e9d8e7fb3c5267300000000000000000000000000000000000000000000000000000000815230600482015201528c610404602061187e8b5160406103e4860152610424850190612f89565b9a0151910152805160448e0152602081015160648e0152604081015160848e0152606001516001600160a01b031660a48d0152565b80518051151560c48d0152602080820151151560e48e015260409182015115156101048e01528201516101248d01528101516101448c015260608101516101648c0152608081015115156101848c015260a081015115156101a48c015260c081015115156101c48c015260e081015115156101e48c015261010081015115156102048c015261012081015115156102248c015261014081015115156102448c015261016081015115156102648c015261018081015115156102848c01526101a081015115156102a48c01526101c081015115156102c48c01526101e081015115156102e48c01526102008101516001600160a01b03166103048c015261022001516103248b0152565b1661034488015260031987830301610364880152612e77565b9060031985830301610384860152613e6f565b600319838203016103a484015260208083519283815201920190855b818110611cd057505050906040827f4465666966612067616d6520706861736520312e0000000000000000000000006020848196039260031984016103c48701526014815201520181856001600160a01b037f0000000000000000000000000000000000000000000000000000000000000000165af1801561049157611ca5575b506001600160a01b03611ab77f0000000000000000000000000000000000000000000000000000000000000000613f60565b16926101a065ffffffffffff61012083015116910151843b15611c7957604051917f7a1ac61e00000000000000000000000000000000000000000000000000000000835287600484015260248301526044820152818160648183885af1801561049157908291611c91575b5050843b15610182576040517ff2fde38b0000000000000000000000000000000000000000000000000000000081528360048201528181602481838a5af1801561049157908291611c7d575b50506001600160a01b037f000000000000000000000000000000000000000000000000000000000000000016600354813b15611c79576040517f5bcfd21200000000000000000000000000000000000000000000000000000000815230600482015260248101919091529082908290604490829084905af1801561049157908291611c65575b50506003549060038201809211611c51575060409483916003557f17736fe72fa48efaaaa7721305b159812cf84c9b70e752357642d22210b6c64260206001600160a01b038851953387521694a460018351920182526020820152f35b80634e487b7160e01b602492526011600452fd5b611c6e90612bcc565b610182578086611bf4565b8280fd5b611c8690612bcc565b610182578086611b6e565b611c9a90612bcc565b610182578086611b22565b602090813d8311611cc9575b611cbb8183612c52565b810103126104cb5785611a85565b503d611cb1565b82516001600160a01b0316845285945060209384019390920191600101611a04565b60046040517f3727b396000000000000000000000000000000000000000000000000000000008152fd5b90506020813d602011611d52575b81611d3760209383612c52565b81010312611d4e57611d4890612fae565b866116a4565b5080fd5b3d9150611d2a565b6001600160a01b0383163b15611d4e578160405180927f94e6f56f000000000000000000000000000000000000000000000000000000008252604482018960048401526040602484015281518091526064830190602060648260051b86010193019185905b828210611e03575050505081900381836001600160a01b0388165af1801561049157908291611def575b5061163d565b611df890612bcc565b610182578086611de9565b929550926020611e3f827fffffffffffffffffffffffffffffffffffffffffffffffffffffffffffffff9c600195988495030186528851612f89565b960192019201928593879593611dbf565b611e5990612bcc565b611d4e578187611626565b6040513d85823e3d90fd5b92949750929550969360206101c06001926101a08b5169ffffffffffffffffffff815116835265ffffffffffff85820151168584015264ffffffffff604082015116604084015261ffff80606083015116606085015260808201511660808401526001600160a01b0360a08201511660a084015260ff8060c08301511660c08501526001600160a01b0360e08301511660e085015261010082015161010085015261012082015116610120840152610140810151151561014084015261016081015115156101608401526101808101511515610180840152015115156101a08201520198019101908895928b9794929895986115a8565b8980fd5b611f83915060203d602011610508576104fa8183612c52565b3861147a565b916001019161135f565b606460029104920191611354565b6127106004910492019161134a565b600891049201913861133e565b601091049201913861132f565b602091049201913861131d565b6040935060018b0104905038611304565b9097506020813d602011612024575b8161200460209383612c52565b81010312611c7957516001600160a01b0381168103611c795796386112d6565b3d9150611ff7565b6001600160a01b0361205d7f0000000000000000000000000000000000000000000000000000000000000000613f60565b169161126f565b9091506020813d602011612090575b8161208060209383612c52565b810103126104cb575190386111f5565b3d9150612073565b90506020813d6020116120c2575b816120b360209383612c52565b810103126104cb575138611193565b3d91506120a6565b8060e06120dd6001936080880151612e13565b5169ffffffffffffffffffff8151168961ffff6020840151166001600160a01b0360408501511660ff6060860151166001600160a01b036080870151169160a08701519360c08801511515956040519761213689612be0565b88526020880152633b9ac9ff60408801528a6060880152608087015260a086015260c085015285840152610100830152856101208301528a61014083015261016082015289610180820152896101a0820152612192848c612e13565b5261219d838b612e13565b5001516121aa8286612e13565b526121b58185612e13565b500161112a565b634e487b7160e01b600052604160045260246000fd5b602081606082601f1994880101520190506110c8565b6020906040516121f781612be0565b87815287838201528760408201528760608201528760808201528760a08201528760c08201528760e08201528761010082015287610120820152876101408201528761016082015287610180820152876101a082015282828a01015201611094565b6004549081156124db57829083905b8082106124b2575050633b9aca009082820482039082821161249e570361247457612309916001600160a01b036101808701511690604051926122aa84612b78565b8584528560208501520460408301527f0000000000000000000000000000000000000000000000000000000000000000606083015260808201528260a08201528260c08201526101408501518051916123038383612e13565b52612e13565b50612312612e27565b6101408401516040519061232582612b5c565b600185018252602082015261233982612df0565b5261234381612df0565b50604051907f2bdfe0040000000000000000000000000000000000000000000000000000000082526020826004816001600160a01b037f0000000000000000000000000000000000000000000000000000000000000000165afa918215611e64578392612453575b506001600160a01b0382163b15611c79576124346001600160a01b03928492836040519586809581947ff2da44b60000000000000000000000000000000000000000000000000000000083527f00000000000000000000000000000000000000000000000000000000000000006004840152846024840152606060448401526064830190612e77565b0393165af1801561049157156110625761244d90612bcc565b38611062565b61246d91925060203d602011610508576104fa8183612c52565b90386123ab565b60046040517f48270162000000000000000000000000000000000000000000000000000000008152fd5b602485634e487b7160e01b81526011600452fd5b909160406124c5846101408a0151612e13565b510151810180911161249e579160010190612268565b602483634e487b7160e01b81526012600452fd5b9091506020813d60201161251b575b8161250b60209383612c52565b81010312611d4e57519038610e8e565b3d91506124fe565b50604051903d90823e3d90fd5b90506020813d60201161256b575b8161254b60209383612c52565b81010312611d4e57516001600160a01b0381168103611d4e576020610e44565b3d915061253e565b60046040517f74f88142000000000000000000000000000000000000000000000000000000008152fd5b5065ffffffffffff6101208301511665ffffffffffff6101008401511611610dda565b65ffffffffffff4216610100830152610d8e565b60e082360312612669576040516125ea81612b78565b6125f383612cf0565b815261260160208401612cf0565b6020820152604083013560408201526060830135606082015261262660808401612b48565b608082015260a0838101359082015260c08301356001600160a01b03811690036126655760e09160209160c085013560c0820152815201910190610c9d565b8480fd5b8380fd5b833567ffffffffffffffff811161086e576101007fffffffffffffffffffffffffffffffffffffffffffffffffffffffffffffffdc828560043501013603011261086e57604051908161010081011067ffffffffffffffff610100840111176127e0576101008201604052600435840181016024013569ffffffffffffffffffff811690036127dc5760043584018101602481013583526044013561ffff811690036127dc57600435840181016044810135602084015261273090606401612b48565b6040830152600435840181016084013560ff811690036127dc5760043584018101608481013560608401526127679060a401612b48565b60808301526004358401810160c481013560a08401526127899060e401612cf0565b60c083015267ffffffffffffffff610104828660043501010135116127dc5760249260209283926127ca903690600435890101610104810135018701612c91565b60e08201528152019401939050610b9d565b8780fd5b602488634e487b7160e01b81526041600452fd5b602482634e487b7160e01b81526041600452fd5b503461018257806003193601126101825760206040516001600160a01b037f0000000000000000000000000000000000000000000000000000000000000000168152f35b5034610182576020600319360112610182576affffffffffffffffffffff6001604060209360043581526002855220015460a01c16604051908152f35b50346101825760206003193601126101825760206128a860043561319e565b604051908152f35b5034610182576080600319360112610182576128ca612b32565b506024356001600160a01b038116036101825760643567ffffffffffffffff808211611c795736602383011215611c79578160040135908111611c7957369101602401116101825760206040517f150b7a02000000000000000000000000000000000000000000000000000000008152f35b50346101825760206003193601126101825765ffffffffffff6040602092600435815260018452205460301c16604051908152f35b503461018257806003193601126101825760206040517f00000000000000000000000000000000000000000000000000000000000000008152f35b5034610182576020600319360112610182576040519063557e715560e01b82526001600160a01b0391602081600481867f0000000000000000000000000000000000000000000000000000000000000000165afa908115610491578291612aa1575b50604051907f43a266c2000000000000000000000000000000000000000000000000000000008252600435600483015281602481610120968794165afa91821561080b578092612a65575b60208351604051908152f35b909150823d8411612a9a575b612a7b8184612c52565b820192828403126101825750602091612a9391612d2f565b3880612a59565b503d612a71565b612ab9915060203d8111610508576104fa8183612c52565b38612a0e565b503461018257806003193601126101825760206040516001600160a01b037f0000000000000000000000000000000000000000000000000000000000000000168152f35b905034611d4e576020600319360112611d4e5765ffffffffffff60406020936004358152600185522054168152f35b600435906001600160a01b03821682036104cb57565b35906001600160a01b03821682036104cb57565b6040810190811067ffffffffffffffff8211176121bc57604052565b60e0810190811067ffffffffffffffff8211176121bc57604052565b6080810190811067ffffffffffffffff8211176121bc57604052565b6060810190811067ffffffffffffffff8211176121bc57604052565b67ffffffffffffffff81116121bc57604052565b6101c0810190811067ffffffffffffffff8211176121bc57604052565b610240810190811067ffffffffffffffff8211176121bc57604052565b60c0810190811067ffffffffffffffff8211176121bc57604052565b6020810190811067ffffffffffffffff8211176121bc57604052565b90601f601f19910116810190811067ffffffffffffffff8211176121bc57604052565b67ffffffffffffffff81116121bc57601f01601f191660200190565b81601f820112156104cb57803590612ca882612c75565b92612cb66040519485612c52565b828452602083830101116104cb57816000926020809301838601378301015290565b67ffffffffffffffff81116121bc5760051b60200190565b359081151582036104cb57565b359065ffffffffffff821682036104cb57565b908160209103126104cb57516001600160a01b03811681036104cb5790565b80929161012091829103126104cb5760405190810181811067ffffffffffffffff8211176121bc576040528092805182526020810151602083015260408101516040830152606081015160608301526080810151608083015260a081015160a083015260c081015160c083015260e08101516001600160a01b03811681036104cb5760e083015261010080910151910152565b65ffffffffffff9182169082160391908211612dda57565b634e487b7160e01b600052601160045260246000fd5b805115612dfd5760200190565b634e487b7160e01b600052603260045260246000fd5b8051821015612dfd5760209160051b010190565b604090815191612e3683612b5c565b600183528291600091825b602080821015612e6e57825160209291612e5a82612b5c565b868252606081830152828901015201612e41565b50505091925050565b908082519081815260208091019281808460051b830101950193600080925b858410612ea7575050505050505090565b9091929387601f19838398999a0301855288519060408381830193805184520151928185840152835180915284606080940194019287925b828410612f015750505050509080600192990194019401929594939190612e96565b91939560e06001929496885180511515825283810151151584830152858101518683015286810151878301526001600160a01b0360808181840151169084015260a0808301519084015260c08092015116908201520196019401918a95949391612edf565b60005b838110612f795750506000910152565b8181015183820152602001612f69565b90601f19601f602093612fa781518092818752878088019101612f66565b0116010190565b519081151582036104cb57565b80820392916103a084126104cb57612ff47ffffffffffffffffffffffffffffffffffffffffffffffffffffffffffffffee09183612d2f565b9301610280908181126104cb5760405192610240928385019267ffffffffffffffff90868510828611176121bc576060136104cb576102a090868201908111858210176121bc576040526101209061304d848301612fae565b855261014061305d858201612fae565b9561026096878a01526101609081870161307690612fae565b868b01528952610180918287015160208b01526101a0938488015160408c01526101c0958689015160608d01526101e0978c898b016130b490612fae565b90608001528c6102009b8c8c016130ca90612fae565b60a08301526102209d8e8d016130df90612fae565b60c08401528c016130ef90612fae565b60e08301528b016130ff90612fae565b906101000152890161311090612fae565b908c0152870161311f90612fae565b908a01526131306102c08701612fae565b908901526131416102e08601612fae565b908801526131526103008501612fae565b908701526131636103208401612fae565b908601526131746103408301612fae565b908501526103608101516001600160a01b03811681036104cb576103809285015201519082015290565b6040517f8776c4990000000000000000000000000000000000000000000000000000000081528160048201526103a0816024816001600160a01b037f0000000000000000000000000000000000000000000000000000000000000000165afa908115613642576000908192613e4b575b50600481511015613e21576040517f12b37b140000000000000000000000000000000000000000000000000000000081528360048201526103a0816024816001600160a01b037f0000000000000000000000000000000000000000000000000000000000000000165afa90811561364257600091613def575b5060208083015191015103613dc557516001810361364e57509060209060406001600160a01b036102008095015116826000526001845281600020948251956132cf87612b94565b5495606065ffffffffffff8089168352808960301c169889898501528181841c168785015260901c1691015282519561330787612b94565b86526000858701526000838701526000606087015282519161332883612bb0565b60008352600086840152600084840152613355845161334681612b5c565b60008152600188820152613ee3565b9184519361336285612bfd565b84526000878501526127108086860152606085015260016080850152600060a0850152600060c0850152600060e08501526000610100850152600061012085015260006101408501526000610160850152600061018085015260006101a085015260016101c085015260016101e08501528301526102208201527f4465666966612067616d6520706861736520322e000000000000000000000000846135bf6135ab855161340f81612c36565b6000815261358f87519661342288612c36565b6000885261348789519c8d9b7fbadbdf28000000000000000000000000000000000000000000000000000000008d5260048d015260248c01906001600160a01b0360608092805185526020810151602086015260408101516040860152015116910152565b80518051151560a48c0152602080820151151560c48d0152604091820151151560e48d01528201516101048c01528101516101248b015260608101516101448b0152608081015115156101648b015260a081015115156101848b015260c081015115156101a48b015260e081015115156101c48b015261010081015115156101e48b015261012081015115156102048b015261014081015115156102248b015261016081015115156102448b015261018081015115156102648b01526101a081015115156102848b01526101c081015115156102a48b01526101e081015115156102c48b01526102008101516001600160a01b03166102e48b015261022001516103048a0152565b60006103248901526103a06103448901526103a4880190612e77565b600319948588830301610364890152613e6f565b858103938401610384870152601481520152018160006001600160a01b037f0000000000000000000000000000000000000000000000000000000000000000165af190811561364257600091613613575090565b906020823d60201161363a575b8161362d60209383612c52565b8101031261018257505190565b3d9150613620565b6040513d6000823e3d90fd5b600203613c99576102006001600160a01b03910151168160005260026020526040600020906affffffffffffffffffffff60016040519361368e85612bb0565b6001600160a01b03815416855201546001600160a01b038116602085015260a01c166040830152604051916136c283612b5c565b6001835260005b60208110613c5857506001600160a01b038151166001600160a01b036020830151166affffffffffffffffffffff604084015116604051917f1982d679000000000000000000000000000000000000000000000000000000008352806004840152602083602481875afa92831561364257600093613c24575b506040519361375085612c1a565b845260208401526040830152606082015260006080820152600060a082015261377884612df0565b5261378283612df0565b50604051917f2bdfe0040000000000000000000000000000000000000000000000000000000083526020836004816001600160a01b037f0000000000000000000000000000000000000000000000000000000000000000165afa928315613642576001600160a01b03936000918291613c05575b506064604051809681937f69e11cc50000000000000000000000000000000000000000000000000000000083527f000000000000000000000000000000000000000000000000000000000000000060048401528560248401528a6044840152165afa92831561364257600093613aae575b50927f4465666966612067616d6520706861736520332e00000000000000000000000060206135bf6135ab6139539896604096849960009280511515600014613a935761358f9293506001600160a01b03876138c1612e27565b9501511661eeee8103613a8d57506001905b8a51916138df83612b5c565b8252878201526138ee84612df0565b526138f883612df0565b505b89600052600186528860002061394a8a519161391583612b94565b54606065ffffffffffff938483168152848360301c168b820152848084841c16938f859084015260901c169182910152612dc2565b8a519d8e612b94565b168c526000868d01526000898d0152600060608d015288519061397582612bb0565b6000825260008783015260008a8301526139a28a5161399381612b5c565b60008152600089820152613ee3565b908a51926139af84612bfd565b835260008884015260008b8401526000606084015260016080840152600060a0840152600160c0840152600060e08401526000610100840152600061012084015260006101408401526000610160840152600061018084015260006101a084015260016101c084015260016101e084015261020083015261022082015261348789519c8d9b7fbadbdf28000000000000000000000000000000000000000000000000000000008d5260048d015260248c01906001600160a01b0360608092805185526020810151602086015260408101516040860152015116910152565b906138d3565b509161358f9150885190613aa682612c36565b8152916138fa565b90923d8082843e613abf8184612c52565b6020838281010312611d4e5782519167ffffffffffffffff831161018257818401601f848601011215610182578284015191613afa83612cd8565b94613b086040519687612c52565b8386526020860194828201602060e0870283850101011161266957602081830101955b602060e0870283850101018710613b6e5750959795507f4465666966612067616d6520706861736520332e00000000000000000000000094506138679350505050565b60e087858501031261266557604051613b8681612b78565b613b8f88612fae565b8152613b9d60208901612fae565b6020820152604088015160408201526060880151606082015260808801516001600160a01b038116810361086e57608082015260a088015160a082015260c08801516001600160a01b038116810361086e5760c0820152815260e09690960195602001613b2b565b613c1e915060203d602011610508576104fa8183612c52565b386137f6565b90926020823d602011613c50575b81613c3f60209383612c52565b810103126101825750519138613742565b3d9150613c32565b602090604051613c6781612c1a565b60008152600083820152600060408201526000606082015260006080820152600060a0820152828287010152016136c9565b9060209060406001600160a01b036102008095015116815194613cbb86612b94565b6000865260008587015260008387015260006060870152825191613cde83612bb0565b60008352600086840152600084840152613d0b8451613cfc81612b5c565b60008152600088820152613ee3565b91845193613d1885612bfd565b84526000878501526127108086860152606085015260016080850152600060a0850152600060c0850152600060e08501526000610100850152600061012085015260006101408501526000610160850152600061018085015260006101a085015260016101c085015260016101e08501528301526102208201527f4465666966612067616d6520706861736520342e000000000000000000000000846135bf6135ab855161340f81612c36565b60046040517f11f43385000000000000000000000000000000000000000000000000000000008152fd5b613e1391506103a03d6103a011613e1a575b613e0b8183612c52565b810190612fbb565b5038613287565b503d613e01565b60046040517fdc7a2515000000000000000000000000000000000000000000000000000000008152fd5b9050613e6891506103a03d6103a011613e1a57613e0b8183612c52565b903861320e565b90815180825260208080930193019160005b828110613e8f575050505090565b835180516001600160a01b03908116875281840151168684015260408082015190870152606080820151908701526080808201519087015260a0908101519086015260c09094019392810192600101613e81565b906000918051613eff575b60200151613ef857565b9060021790565b60019250613eee565b6001600160a01b03600054163303613f1c57565b606460405162461bcd60e51b815260206004820152602060248201527f4f776e61626c653a2063616c6c6572206973206e6f7420746865206f776e65726044820152fd5b6e5af43d82803e903d91602b57fd5bf390763d602d80600a3d3981f3363d3d373d3d3d363d7300000062ffffff8260881c161760005260781b17602052603760096000f0906001600160a01b03821615613fb657565b606460405162461bcd60e51b815260206004820152601660248201527f455243313136373a20637265617465206661696c6564000000000000000000006044820152fdfea264697066735822122079a3ff2023842dca4b5b878f4835d69ed9bea454f5b90ec5baba228c7bb5dcf064736f6c63430008110033",
    "linkReferences": {}
  },
  "methodIdentifiers": {
    "SPLIT_DOMAIN()": "ff16a2f2",
    "ballkidzProjectId()": "0d75b3aa",
    "changeFee(uint256)": "6a1db1bf",
    "claimProtocolProjectToken()": "ca449a25",
    "controller()": "f77c4791",
    "currentGamePhaseOf(uint256)": "0715610a",
    "delegateCodeOrigin()": "06b552b5",
    "delegatesRegistry()": "d574ff04",
    "distributionLimit(uint256)": "27655cfd",
    "endOf(uint256)": "b965933e",
    "feeDivisor()": "9a36f932",
    "governorCodeOrigin()": "ff2a43cc",
    "launchGameWith((string,(string,uint256),string,string,(uint80,uint16,address,uint8,address,bytes32,bool,string)[],address,uint48,uint48,uint48,uint48,(bool,bool,uint256,uint256,address,uint256,address)[],uint88,address,uint256,address,address,address))": "492f1ef2",
    "mintDurationOf(uint256)": "0589d292",
    "nextPhaseNeedsQueueing(uint256)": "81312a14",
    "onERC721Received(address,address,uint256,bytes)": "150b7a02",
    "owner()": "8da5cb5b",
    "protocolFeeProjectTokenAccount()": "3f3090d9",
    "queueNextPhaseOf(uint256)": "1c069dbb",
    "refundPeriodDurationOf(uint256)": "1109fff2",
    "renounceOwnership()": "715018a6",
    "startOf(uint256)": "b41e7f47",
    "terminalOf(uint256)": "4fe0eced",
    "timesFor(uint256)": "b07925d3",
    "tokenUriResolverCodeOrigin()": "80f07954",
    "transferOwnership(address)": "f2fde38b"
  },
  "id": 1
}