{
  "abi": [
    {
      "inputs": [
        {
          "internalType": "address",
          "name": "_delegateCodeOrigin",
          "type": "address"
        },
        {
          "internalType": "contract IJB721TokenUriResolver",
          "name": "_tokenUriResolver",
          "type": "address"
        },
        {
          "internalType": "contract IDefifaGovernor",
          "name": "_governor",
          "type": "address"
        },
        {
          "internalType": "contract IJBController3_1",
          "name": "_controller",
          "type": "address"
        },
        {
          "internalType": "contract IJBDelegatesRegistry",
          "name": "_delegatesRegistry",
          "type": "address"
        },
        {
          "internalType": "address",
          "name": "_protocolFeeProjectTokenAccount",
          "type": "address"
        },
        {
          "internalType": "uint256",
          "name": "_ballkidzProjectId",
          "type": "uint256"
        },
        {
          "internalType": "address",
          "name": "_owner",
          "type": "address"
        }
      ],
      "stateMutability": "nonpayable",
      "type": "constructor"
    },
    {
      "inputs": [],
      "name": "CANT_FULFILL_YET",
      "type": "error"
    },
    {
      "inputs": [],
      "name": "GAME_OVER",
      "type": "error"
    },
    {
      "inputs": [],
      "name": "INCORRECT_DECIMAL_AMOUNT",
      "type": "error"
    },
    {
      "inputs": [],
      "name": "INVALID_FEE_PERCENT",
      "type": "error"
    },
    {
      "inputs": [],
      "name": "INVALID_GAME_CONFIGURATION",
      "type": "error"
    },
    {
      "inputs": [],
      "name": "PHASE_ALREADY_QUEUED",
      "type": "error"
    },
    {
      "inputs": [
        {
          "internalType": "uint256",
          "name": "prod1",
          "type": "uint256"
        },
        {
          "internalType": "uint256",
          "name": "denominator",
          "type": "uint256"
        }
      ],
      "name": "PRBMath__MulDivOverflow",
      "type": "error"
    },
    {
      "inputs": [],
      "name": "SPLITS_DONT_ADD_UP",
      "type": "error"
    },
    {
      "inputs": [],
      "name": "TERMINAL_NOT_FOUND",
      "type": "error"
    },
    {
      "inputs": [],
      "name": "UNEXPECTED_TERMINAL_CURRENCY",
      "type": "error"
    },
    {
      "anonymous": false,
      "inputs": [
        {
          "components": [
            {
              "internalType": "bool",
              "name": "preferClaimed",
              "type": "bool"
            },
            {
              "internalType": "bool",
              "name": "preferAddToBalance",
              "type": "bool"
            },
            {
              "internalType": "uint256",
              "name": "percent",
              "type": "uint256"
            },
            {
              "internalType": "uint256",
              "name": "projectId",
              "type": "uint256"
            },
            {
              "internalType": "address payable",
              "name": "beneficiary",
              "type": "address"
            },
            {
              "internalType": "uint256",
              "name": "lockedUntil",
              "type": "uint256"
            },
            {
              "internalType": "contract IJBSplitAllocator",
              "name": "allocator",
              "type": "address"
            }
          ],
          "indexed": false,
          "internalType": "struct JBSplit",
          "name": "split",
          "type": "tuple"
        },
        {
          "indexed": false,
          "internalType": "uint256",
          "name": "amount",
          "type": "uint256"
        },
        {
          "indexed": false,
          "internalType": "address",
          "name": "defaultBeneficiary",
          "type": "address"
        },
        {
          "indexed": false,
          "internalType": "address",
          "name": "caller",
          "type": "address"
        }
      ],
      "name": "DistributeToSplit",
      "type": "event"
    },
    {
      "anonymous": false,
      "inputs": [
        {
          "indexed": true,
          "internalType": "uint256",
          "name": "gameId",
          "type": "uint256"
        },
        {
          "indexed": true,
          "internalType": "contract IDefifaDelegate",
          "name": "delegate",
          "type": "address"
        },
        {
          "indexed": true,
          "internalType": "contract IDefifaGovernor",
          "name": "governor",
          "type": "address"
        },
        {
          "indexed": false,
          "internalType": "contract IJB721TokenUriResolver",
          "name": "tokenUriResolver",
          "type": "address"
        },
        {
          "indexed": false,
          "internalType": "address",
          "name": "caller",
          "type": "address"
        }
      ],
      "name": "LaunchGame",
      "type": "event"
    },
    {
      "anonymous": false,
      "inputs": [
        {
          "indexed": true,
          "internalType": "address",
          "name": "previousOwner",
          "type": "address"
        },
        {
          "indexed": true,
          "internalType": "address",
          "name": "newOwner",
          "type": "address"
        }
      ],
      "name": "OwnershipTransferred",
      "type": "event"
    },
    {
      "inputs": [],
      "name": "ballkidzProjectId",
      "outputs": [
        {
          "internalType": "uint256",
          "name": "",
          "type": "uint256"
        }
      ],
      "stateMutability": "view",
      "type": "function"
    },
    {
      "inputs": [
        {
          "internalType": "uint256",
          "name": "_percent",
          "type": "uint256"
        }
      ],
      "name": "changeFee",
      "outputs": [],
      "stateMutability": "nonpayable",
      "type": "function"
    },
    {
      "inputs": [],
      "name": "claimProtocolProjectToken",
      "outputs": [],
      "stateMutability": "nonpayable",
      "type": "function"
    },
    {
      "inputs": [],
      "name": "controller",
      "outputs": [
        {
          "internalType": "contract IJBController3_1",
          "name": "",
          "type": "address"
        }
      ],
      "stateMutability": "view",
      "type": "function"
    },
    {
      "inputs": [
        {
          "internalType": "uint256",
          "name": "_gameId",
          "type": "uint256"
        }
      ],
      "name": "currentGamePhaseOf",
      "outputs": [
        {
          "internalType": "enum DefifaGamePhase",
          "name": "",
          "type": "uint8"
        }
      ],
      "stateMutability": "view",
      "type": "function"
    },
    {
      "inputs": [
        {
          "internalType": "uint256",
          "name": "_gameId",
          "type": "uint256"
        }
      ],
      "name": "currentGamePotOf",
      "outputs": [
        {
          "internalType": "uint256",
          "name": "",
          "type": "uint256"
        },
        {
          "internalType": "address",
          "name": "",
          "type": "address"
        },
        {
          "internalType": "uint256",
          "name": "",
          "type": "uint256"
        }
      ],
      "stateMutability": "view",
      "type": "function"
    },
    {
      "inputs": [],
      "name": "delegateCodeOrigin",
      "outputs": [
        {
          "internalType": "address",
          "name": "",
          "type": "address"
        }
      ],
      "stateMutability": "view",
      "type": "function"
    },
    {
      "inputs": [],
      "name": "delegatesRegistry",
      "outputs": [
        {
          "internalType": "contract IJBDelegatesRegistry",
          "name": "",
          "type": "address"
        }
      ],
      "stateMutability": "view",
      "type": "function"
    },
    {
      "inputs": [],
      "name": "feeDivisor",
      "outputs": [
        {
          "internalType": "uint256",
          "name": "",
          "type": "uint256"
        }
      ],
      "stateMutability": "view",
      "type": "function"
    },
    {
      "inputs": [
        {
          "internalType": "uint256",
          "name": "_gameId",
          "type": "uint256"
        }
      ],
      "name": "fulfillCommitmentsOf",
      "outputs": [],
      "stateMutability": "nonpayable",
      "type": "function"
    },
    {
      "inputs": [],
      "name": "governor",
      "outputs": [
        {
          "internalType": "contract IDefifaGovernor",
          "name": "",
          "type": "address"
        }
      ],
      "stateMutability": "view",
      "type": "function"
    },
    {
      "inputs": [
        {
          "internalType": "uint256",
          "name": "",
          "type": "uint256"
        }
      ],
      "name": "hasFulfilledCommitments",
      "outputs": [
        {
          "internalType": "bool",
          "name": "",
          "type": "bool"
        }
      ],
      "stateMutability": "view",
      "type": "function"
    },
    {
      "inputs": [
        {
          "components": [
            {
              "internalType": "string",
              "name": "name",
              "type": "string"
            },
            {
              "components": [
                {
                  "internalType": "string",
                  "name": "content",
                  "type": "string"
                },
                {
                  "internalType": "uint256",
                  "name": "domain",
                  "type": "uint256"
                }
              ],
              "internalType": "struct JBProjectMetadata",
              "name": "projectMetadata",
              "type": "tuple"
            },
            {
              "internalType": "string",
              "name": "contractUri",
              "type": "string"
            },
            {
              "internalType": "string",
              "name": "baseUri",
              "type": "string"
            },
            {
              "components": [
                {
                  "internalType": "string",
                  "name": "name",
                  "type": "string"
                },
                {
                  "internalType": "uint80",
                  "name": "price",
                  "type": "uint80"
                },
                {
                  "internalType": "uint16",
                  "name": "reservedRate",
                  "type": "uint16"
                },
                {
                  "internalType": "address",
                  "name": "reservedTokenBeneficiary",
                  "type": "address"
                },
                {
                  "internalType": "bytes32",
                  "name": "encodedIPFSUri",
                  "type": "bytes32"
                },
                {
                  "internalType": "bool",
                  "name": "shouldUseReservedTokenBeneficiaryAsDefault",
                  "type": "bool"
                }
              ],
              "internalType": "struct DefifaTierParams[]",
              "name": "tiers",
              "type": "tuple[]"
            },
            {
              "internalType": "address",
              "name": "token",
              "type": "address"
            },
            {
              "internalType": "uint24",
              "name": "mintPeriodDuration",
              "type": "uint24"
            },
            {
              "internalType": "uint24",
              "name": "refundPeriodDuration",
              "type": "uint24"
            },
            {
              "internalType": "uint48",
              "name": "start",
              "type": "uint48"
            },
            {
              "components": [
                {
                  "internalType": "bool",
                  "name": "preferClaimed",
                  "type": "bool"
                },
                {
                  "internalType": "bool",
                  "name": "preferAddToBalance",
                  "type": "bool"
                },
                {
                  "internalType": "uint256",
                  "name": "percent",
                  "type": "uint256"
                },
                {
                  "internalType": "uint256",
                  "name": "projectId",
                  "type": "uint256"
                },
                {
                  "internalType": "address payable",
                  "name": "beneficiary",
                  "type": "address"
                },
                {
                  "internalType": "uint256",
                  "name": "lockedUntil",
                  "type": "uint256"
                },
                {
                  "internalType": "contract IJBSplitAllocator",
                  "name": "allocator",
                  "type": "address"
                }
              ],
              "internalType": "struct JBSplit[]",
              "name": "splits",
              "type": "tuple[]"
            },
            {
              "internalType": "address payable",
              "name": "ballkidzFeeProjectTokenAccount",
              "type": "address"
            },
            {
              "internalType": "contract IJBSplitAllocator",
              "name": "ballkidzFeeProjectTokenAllocator",
              "type": "address"
            },
            {
              "internalType": "uint256",
              "name": "attestationStartTime",
              "type": "uint256"
            },
            {
              "internalType": "uint256",
              "name": "attestationGracePeriod",
              "type": "uint256"
            },
            {
              "internalType": "address",
              "name": "defaultAttestationDelegate",
              "type": "address"
            },
            {
              "internalType": "contract IJB721TokenUriResolver",
              "name": "defaultTokenUriResolver",
              "type": "address"
            },
            {
              "internalType": "contract IJBPaymentTerminal",
              "name": "terminal",
              "type": "address"
            },
            {
              "internalType": "contract IJBTiered721DelegateStore",
              "name": "store",
              "type": "address"
            }
          ],
          "internalType": "struct DefifaLaunchProjectData",
          "name": "_launchProjectData",
          "type": "tuple"
        }
      ],
      "name": "launchGameWith",
      "outputs": [
        {
          "internalType": "uint256",
          "name": "gameId",
          "type": "uint256"
        }
      ],
      "stateMutability": "nonpayable",
      "type": "function"
    },
    {
      "inputs": [
        {
          "internalType": "uint256",
          "name": "_gameId",
          "type": "uint256"
        }
      ],
      "name": "nextPhaseNeedsQueueing",
      "outputs": [
        {
          "internalType": "bool",
          "name": "",
          "type": "bool"
        }
      ],
      "stateMutability": "view",
      "type": "function"
    },
    {
      "inputs": [
        {
          "internalType": "address",
          "name": "",
          "type": "address"
        },
        {
          "internalType": "address",
          "name": "",
          "type": "address"
        },
        {
          "internalType": "uint256",
          "name": "",
          "type": "uint256"
        },
        {
          "internalType": "bytes",
          "name": "",
          "type": "bytes"
        }
      ],
      "name": "onERC721Received",
      "outputs": [
        {
          "internalType": "bytes4",
          "name": "",
          "type": "bytes4"
        }
      ],
      "stateMutability": "pure",
      "type": "function"
    },
    {
      "inputs": [],
      "name": "owner",
      "outputs": [
        {
          "internalType": "address",
          "name": "",
          "type": "address"
        }
      ],
      "stateMutability": "view",
      "type": "function"
    },
    {
      "inputs": [],
      "name": "protocolFeeProjectTokenAccount",
      "outputs": [
        {
          "internalType": "address",
          "name": "",
          "type": "address"
        }
      ],
      "stateMutability": "view",
      "type": "function"
    },
    {
      "inputs": [
        {
          "internalType": "uint256",
          "name": "_gameId",
          "type": "uint256"
        }
      ],
      "name": "queueNextPhaseOf",
      "outputs": [
        {
          "internalType": "uint256",
          "name": "configuration",
          "type": "uint256"
        }
      ],
      "stateMutability": "nonpayable",
      "type": "function"
    },
    {
      "inputs": [],
      "name": "renounceOwnership",
      "outputs": [],
      "stateMutability": "nonpayable",
      "type": "function"
    },
    {
      "inputs": [],
      "name": "splitGroup",
      "outputs": [
        {
          "internalType": "uint256",
          "name": "",
          "type": "uint256"
        }
      ],
      "stateMutability": "view",
      "type": "function"
    },
    {
      "inputs": [
        {
          "internalType": "uint256",
          "name": "_gameId",
          "type": "uint256"
        }
      ],
      "name": "timesFor",
      "outputs": [
        {
          "internalType": "uint48",
          "name": "",
          "type": "uint48"
        },
        {
          "internalType": "uint24",
          "name": "",
          "type": "uint24"
        },
        {
          "internalType": "uint24",
          "name": "",
          "type": "uint24"
        }
      ],
      "stateMutability": "view",
      "type": "function"
    },
    {
      "inputs": [
        {
          "internalType": "uint256",
          "name": "_gameId",
          "type": "uint256"
        }
      ],
      "name": "tokenOf",
      "outputs": [
        {
          "internalType": "address",
          "name": "",
          "type": "address"
        }
      ],
      "stateMutability": "view",
      "type": "function"
    },
    {
      "inputs": [],
      "name": "tokenUriResolver",
      "outputs": [
        {
          "internalType": "contract IJB721TokenUriResolver",
          "name": "",
          "type": "address"
        }
      ],
      "stateMutability": "view",
      "type": "function"
    },
    {
      "inputs": [
        {
          "internalType": "address",
          "name": "newOwner",
          "type": "address"
        }
      ],
      "name": "transferOwnership",
      "outputs": [],
      "stateMutability": "nonpayable",
      "type": "function"
    },
    {
      "stateMutability": "payable",
      "type": "receive"
    }
  ],
  "bytecode": {
    "object": "0x61018034620002045762005a7738819003601f8101601f191683016001600160401b03811184821017620002095783928291604052833961010092839181010312620002045762000050816200021f565b60208201516001600160a01b0391828216820362000204576040840151908382168203620002045760608501519484861686036200020457608081015194851685036200020457620000f692620000aa60a083016200021f565b94620000be60e060c085015194016200021f565b93620000ca3362000234565b601460045560c05260e052875261012095865261014093845261016094855260a0523060805262000234565b604051926157fb94856200027c863960805185818161063e0152818161101c0152613f0a015260a051858181610fab0152818161110b015281816127460152613edd015260c0518581816112140152612812015260e0518581816102b90152611e1a0152518481816119bc015261278901525183818161014d0152818161033e015281816106d601528181610d9e0152818161108e015281816112a901528181611373015281816119170152818161244b01528181612cef0152818161302f01528181613e8301528181613f8a0152614fad015251828181610459015281816123e3015281816142ec0152818161492501528181614ab60152614b890152518181816102fd0152611a9a0152f35b600080fd5b634e487b7160e01b600052604160045260246000fd5b51906001600160a01b03821682036200020457565b600080546001600160a01b039283166001600160a01b03198216811783559216907f8be0079c531659141344cd1fd0a4f28419497f9722a3daafe3b4186f6b6457e09080a356fe608080604052600436101561001d575b50361561001b57600080fd5b005b600090813560e01c90816306b552b5146127f3575080630715610a146127ad5780630c340a24146127695780630d75b3aa1461272e578063150b7a02146126a25780631c069dbb1461267b5780633af76f34146124075780633f3090d9146123c357806363bf482e146109af5780636a1db1bf1461093d578063715018a6146108cb57806381312a1414610690578063850976b214610661578063859bb4b2146106265780638da5cb5b146106005780639a36f932146105e2578063b07925d314610568578063b6674cde14610548578063ca449a2514610321578063d574ff04146102dd578063e131fc0c14610299578063ea78803f14610266578063f2fde38b146101745763f77c47910361000f573461017157806003193601126101715760206040516001600160a01b037f0000000000000000000000000000000000000000000000000000000000000000168152f35b80fd5b50346101715760206003193601126101715761018e612836565b61019661523a565b6001600160a01b038091169081156101fc57600054827fffffffffffffffffffffffff0000000000000000000000000000000000000000821617600055167f8be0079c531659141344cd1fd0a4f28419497f9722a3daafe3b4186f6b6457e0600080a380f35b608460405162461bcd60e51b815260206004820152602660248201527f4f776e61626c653a206e6577206f776e657220697320746865207a65726f206160448201527f64647265737300000000000000000000000000000000000000000000000000006064820152fd5b5034610171576020600319360112610171576001600160a01b036040602092600435815260018452205416604051908152f35b503461017157806003193601126101715760206040516001600160a01b037f0000000000000000000000000000000000000000000000000000000000000000168152f35b503461017157806003193601126101715760206040516001600160a01b037f0000000000000000000000000000000000000000000000000000000000000000168152f35b5034610171578060031936011261017157806001600160a01b03807f000000000000000000000000000000000000000000000000000000000000000016906040517f6193063000000000000000000000000000000000000000000000000000000000928382526020918281600481855afa90811561053d57839185918891610520575b50169460046040518094819382525afa9081156104e8578391839187916104f3575b506044604051809481937f5287af3700000000000000000000000000000000000000000000000000000000835230600484015260016024840152165afa9182156104e85785926104b2575b5050823b156104ad57608484928360405195869485937fac689bcd000000000000000000000000000000000000000000000000000000008552306004860152600160248601527f000000000000000000000000000000000000000000000000000000000000000016604485015260648401525af180156104a2576104925750f35b61049b90612903565b6101715780f35b6040513d84823e3d90fd5b505050fd5b8195508092503d83116104e1575b6104ca818361296c565b810103126104dc578392513880610411565b600080fd5b503d6104c0565b6040513d87823e3d90fd5b6105139150823d8411610519575b61050b818361296c565b810190612a27565b386103c6565b503d610501565b6105379150833d85116105195761050b818361296c565b386103a4565b6040513d88823e3d90fd5b503461017157602060031936011261017157610565600435613df9565b80f35b503461017157602060031936011261017157604060609160043581526001602052208160405191610598836128e7565b546001600160a01b038116835265ffffffffffff8160a01c169283602082015262ffffff8260d01c169182604083015260e81c928391015260405192835260208301526040820152f35b50346101715780600319360112610171576020600454604051908152f35b50346101715780600319360112610171576001600160a01b036020915416604051908152f35b503461017157806003193601126101715760206040517f00000000000000000000000000000000000000000000000000000000000000008152f35b50346101715760206003193601126101715760ff60406020926004358152600584522054166040519015158152f35b50346101715760209081600319360112610171576040517f557e715500000000000000000000000000000000000000000000000000000000808252916001600160a01b037f0000000000000000000000000000000000000000000000000000000000000000811660048035908790869081855afa9485156108c057849561089f575b5082939495604051967f43a266c200000000000000000000000000000000000000000000000000000000885282600489015287602481610120988994165afa96871561053d57908891879861085f575b5060046040518095819382525afa9182156104e85790849291869261083d575b5060249060405194859384927f5c5500780000000000000000000000000000000000000000000000000000000084526004840152165afa9283156108315780936107f5575b505050826080830151151592836107e4575b506040518315158152f35b8101519101511490503882816107d9565b90918093503d841161082a575b61080c818461296c565b8201928284031261017157509061082291612a46565b3880806107c7565b503d610802565b604051903d90823e3d90fd5b602491925061085890893d8b116105195761050b818361296c565b9190610782565b91509650843d8611610898575b610876818361296c565b810190858183031261089457889161088d91612a46565b9638610762565b8680fd5b503d61086c565b839495506108b990883d8a116105195761050b818361296c565b9493610712565b6040513d86823e3d90fd5b50346101715780600319360112610171576108e461523a565b60006001600160a01b0381547fffffffffffffffffffffffff000000000000000000000000000000000000000081168355167f8be0079c531659141344cd1fd0a4f28419497f9722a3daafe3b4186f6b6457e08280a380f35b50346101715760206003193601126101715760043561095a61523a565b600a81116109855780156109715760640460045580f35b602482634e487b7160e01b81526012600452fd5b60046040517f42c9b523000000000000000000000000000000000000000000000000000000008152fd5b50346101715760206003193601126101715767ffffffffffffffff600435116101715761024060031960043536030112610171576040516109ef81612860565b6004356004013567ffffffffffffffff8111611b8857610a169060043691813501016129ab565b81526024600435013567ffffffffffffffff8111611b88576004350160406003198236030112611b885760405190610a4d82612893565b60048101359067ffffffffffffffff8211611b8457610a74602492600436918401016129ab565b83520135602082015260208201526044600435013567ffffffffffffffff8111611b8857610aa99060043691813501016129ab565b60408201526064600435013567ffffffffffffffff8111611b8857610ad59060043691813501016129ab565b60608201526084600435013567ffffffffffffffff8111611b88573660238260043501011215611b8857600481813501013590610b11826129f2565b91610b1f604051938461296c565b80835260208301913660248360051b8360043501010111611c24576024816004350101925b60248360051b83600435010101841061229b57505050506080820152610b6e60a46004350161284c565b60a0820152610b8160c460043501612a17565b60c0820152610b9460e460043501612a17565b60e0820152600435610104013565ffffffffffff81169003611fd657600435610104810135610100830152610124013567ffffffffffffffff8111611b88573660238260043501011215611b8857600481813501013590610bf4826129f2565b91610c02604051938461296c565b808352602083019136602460e084028360043501010111611c2457916024836004350101925b602460e084028260043501010184106122155750505050610120820152610c546101446004350161284c565b610140820152610c696101646004350161284c565b6101608201526004356101848101356101808301526101a48101356101a0830152610c97906101c40161284c565b6101c08201526004356101e401356001600160a01b0381169003611fd6576004356101e48101356101e083015261020401356001600160a01b0381169003611fd65760043561020481013561020083015261022401356001600160a01b0381169003611fd657600435610224013561022082015261010081015165ffffffffffff16806121a9575065ffffffffffff610d4a62ffffff610d3d8160c08601511642612e89565b9060e08501511690612e89565b166101008201525b62ffffff60c08201511615801561216e575b612144576040517f8b79543c0000000000000000000000000000000000000000000000000000000081526020816004816001600160a01b037f0000000000000000000000000000000000000000000000000000000000000000165afa908115611de05783916120ff575b509060206001600160a01b03926004604051809581937f06661abd000000000000000000000000000000000000000000000000000000008352165afa918215611de05783926120cb575b506001820182116120b7576001600160a01b0360a08201511662ffffff60c08301511662ffffff60e08401511665ffffffffffff610100850151169160405193610e61856128e7565b845260208401928352604084019081526060840191825260018601875260016020527fffffff00000000000000000000000000000000000000000000000000000000007cffffff000000000000000000000000000000000000000000000000000079ffffffffffff00000000000000000000000000000000000000006001600160a01b0360408b20975116955160a01b16925160d01b16925160e81b1692171717905560045480156120a3576101208201515160018101811161208f57610f2a600182016129f2565b91610f38604051938461296c565b600182018352601f19610f4d600184016129f2565b01865b81811061204e575050855b82811061201f575090610ff0916001600160a01b03610140860151166001600160a01b03610160870151169060405192610f94846128cb565b60018452896020850152633b9aca000460408401527f0000000000000000000000000000000000000000000000000000000000000000606084015260808301528760a083015260c0820152610fe98285612edc565b5282612edc565b5060405190610ffe82612893565b60018252845b60208110611ffb57506040519061101a82612893565b7f00000000000000000000000000000000000000000000000000000000000000008252602082015261104b82612eb9565b5261105581612eb9565b5083604051917f2bdfe0040000000000000000000000000000000000000000000000000000000083526020836004816001600160a01b037f0000000000000000000000000000000000000000000000000000000000000000165afa9283156104a2578293611fda575b506001600160a01b0383163b15611fd6576001600160a01b039261114991836040519586809581947ff2da44b60000000000000000000000000000000000000000000000000000000083527f0000000000000000000000000000000000000000000000000000000000000000600484015260018c016024840152606060448401526064830190612ef0565b0393165af180156108c057611fc3575b50608081015151611169816129f2565b90611177604051928361296c565b808252611183816129f2565b855b601f1982018110611f62575050608083015151906111bb6111a5836129f2565b926111b3604051948561296c565b8084526129f2565b865b601f1982018110611f4c5750508560a06040516111d9816128af565b606081528260208201528260408201528260608201528260808201520152855b818110611e835750506e5af43d82803e903d91602b57fd5bf37f0000000000000000000000000000000000000000000000000000000000000000763d602d80600a3d3981f3363d3d373d3d3d363d7300000062ffffff8260881c1617875260781b176020526001600160a01b036037600987f016918215611e3f576101e08401516001600160a01b03168015611e1757915b604051916331070bc960e21b83526020836004816001600160a01b037f0000000000000000000000000000000000000000000000000000000000000000165afa928315611e0c578893611deb575b508551886112e960018a016155ac565b61133c602760405180937f4445464946412000000000000000000000000000000000000000000000000000602083015261132c8151809260208686019101612fdb565b810103600781018452018261296c565b604051907f557e71550000000000000000000000000000000000000000000000000000000082526020826004816001600160a01b037f0000000000000000000000000000000000000000000000000000000000000000165afa8015611de0578a928491611dc1575b5060608301519060408401519260206001600160a01b0360a0816102008901511697015116602460405180988193631982d67960e01b835260048301525afa94851561053d578d9695611d8a575b506001600160a01b036101c0816102208901511697015116968c3b15611d8657908f9a918f9a99989796959493926040519b7f3900c6f9000000000000000000000000000000000000000000000000000000008d5260010160048d01526001600160a01b031660248c015260448b016101e090526101e48b0161147491612ffe565b8a81036003190160648c015261148991612ffe565b906001600160a01b031660848a01528881036003190160a48a01526114ad91612ffe565b6001600160a01b038a1660c48901528781036003190160e48901526114d191612ffe565b868103600319016101048801528451908181526020019460200190885b818110611cc45750505065ffffffffffff1661012486015261014485015230610164850152306101848501526101a4840152600319838203016101c4840152815180825260208201916020808360051b83010194019286915b838310611c9157505050505081808492038183885af180156104a257611c7d575b50506103e0602460405161157b81612893565b60018152602036818301376001600160a01b036102008701511661159e82612eb9565b526118a7602087015161189462ffffff60c08a01511691604051926115c2846128e7565b83528b60208401528b60408401528b60608401526040516115e281612934565b8c81528c60208201528c60408201526116108d6040519061160282612893565b815260016020820152615215565b6040519161161d83612860565b82528d602083015261271080604084015260608301528d60808301528d60a08301528d60c08301528d60e08301528d6101008301528d6101208301528d6101408301528d6101608301528d6101808301528d6101a083015260016101c083015260016101e08301528a61020083015261022082015265ffffffffffff6116c58c62ffffff60e06116bb85610100850151168360c08601511690614ed7565b9201511690614ed7565b61187b604051936116d585612950565b60008552611772604051986116e98a612950565b60008a526040519d8e9d8e7fb3c5267300000000000000000000000000000000000000000000000000000000815230600482015201528c610404602061173d8b5160406103e4860152610424850190612ffe565b9a0151910152805160448e0152602081015160648e0152604081015160848e0152606001516001600160a01b031660a48d0152565b80518051151560c48d0152602080820151151560e48e015260409182015115156101048e01528201516101248d01528101516101448c015260608101516101648c0152608081015115156101848c015260a081015115156101a48c015260c081015115156101c48c015260e081015115156101e48c015261010081015115156102048c015261012081015115156102248c015261014081015115156102448c015261016081015115156102648c015261018081015115156102848c01526101a081015115156102a48c01526101c081015115156102c48c01526101e081015115156102e48c01526102008101516001600160a01b03166103048c015261022001516103248b0152565b1661034488015260031987830301610364880152612ef0565b9060031985830301610384860152614eef565b600319838203016103a484015260208083519283815201920190895b818110611c5b57505050906040827f446566696661206d696e742070686173652e00000000000000000000000000006020848196039260031984016103c48701526012815201520181896001600160a01b037f0000000000000000000000000000000000000000000000000000000000000000165af1801561053d57611c30575b5061020083015160a08401516040517fdf21a7dd0000000000000000000000000000000000000000000000000000000081526001600160a01b0391821660048201526001870160248201529160209183916044918391165afa90811561053d578691611bf2575b5015611bc857846001600160a01b037f000000000000000000000000000000000000000000000000000000000000000016936101a061018082015191015190853b15611b88576040517fc543882f00000000000000000000000000000000000000000000000000000000815260018801600482015260248101919091526044810191909152818160648183895af180156104a257611bb4575b5050813b15611b8457846040517ff2fde38b000000000000000000000000000000000000000000000000000000008152846004820152818160248183885af180156104a257611ba0575b50506001600160a01b037f0000000000000000000000000000000000000000000000000000000000000000166002546000198114611b8c5790600187920180600255813b15611b88576040517f5bcfd212000000000000000000000000000000000000000000000000000000008152306004820152602481019190915291908290604490829084905af1801561053d57611b70575b50602094506001600160a01b036040519116815233858201527f3082991f3dda023098e5849ea3903c6fbfd657dc6f9232f5eb81ad8a7ba161d660406001860192a4600160405191018152f35b611b7a8691612903565b611b845784611b23565b8480fd5b8280fd5b602487634e487b7160e01b81526011600452fd5b611ba990612903565b611b84578438611a8e565b611bbd90612903565b611b84578438611a44565b60046040517f3727b396000000000000000000000000000000000000000000000000000000008152fd5b90506020813d602011611c28575b81611c0d6020938361296c565b81010312611c2457611c1e90612ad9565b386119ab565b8580fd5b3d9150611c00565b602090813d8311611c54575b611c46818361296c565b810103126104dc5738611944565b503d611c3c565b82516001600160a01b03168452859450602093840193909201916001016118c3565b611c8690612903565b611b84578438611568565b91939596509193602080611cb183601f1986600196030187528951612ffe565b97019301930190928b9695949293611547565b91969798509192939460206101606001926101408a516cffffffffffffffffffffffffff815116835263ffffffff80868301511686850152604082015116604084015261ffff60608201511660608401526001600160a01b03608082015116608084015260a081015160a084015262ffffff60c08201511660c084015260e0810151151560e084015261010081015115156101008401526101208101511515610120840152015115156101408201520197019101918d989796959493926114ee565b8f80fd5b955093506020853d602011611db9575b81611da76020938361296c565b810103126104dc578b945193386113f2565b3d9150611d9a565b611dda915060203d6020116105195761050b818361296c565b386113a4565b6040513d85823e3d90fd5b611e0591935060203d6020116105195761050b818361296c565b91386112d9565b6040513d8a823e3d90fd5b507f00000000000000000000000000000000000000000000000000000000000000009161128b565b606460405162461bcd60e51b815260206004820152601660248201527f455243313136373a20637265617465206661696c6564000000000000000000006044820152fd5b80611e946001926080880151612edc565b5169ffffffffffffffffffff60208201511661ffff6040830151166001600160a01b0360608401511660808401519060a085015115159260405194611ed886612917565b8552633b9ac9ff60208601528760408601526060850152608084015260a08301528a60c08301528a60e08301526101008201528961012082015283610140820152611f238388612edc565b52611f2e8287612edc565b5051611f3a8286612edc565b52611f458185612edc565b50016111f9565b602081606082601f1994880101520190506111bd565b6020601f1991604051611f7481612917565b89815289838201528960408201528960608201528960808201528960a08201528960c08201528960e0820152896101008201528961012082015289610140820152828288010152019050611185565b611fcf90939193612903565b9138611159565b5080fd5b611ff491935060203d6020116105195761050b818361296c565b91386110be565b60209060405161200a81612893565b87815260608382015282828601015201611004565b80612031600192610120880151612edc565b5161203c8287612edc565b526120478186612edc565b5001610f5b565b60209060405161205d816128cb565b89815289838201528960408201528960608201528960808201528960a08201528960c082015282828801015201610f50565b602485634e487b7160e01b81526011600452fd5b602484634e487b7160e01b81526012600452fd5b602483634e487b7160e01b81526011600452fd5b9091506020813d6020116120f7575b816120e76020938361296c565b81010312611b8857519038610e18565b3d91506120da565b90506020813d60201161213c575b8161211a6020938361296c565b81010312611b885751906001600160a01b0382168203611b8857906020610dce565b3d915061210d565b60046040517f74f88142000000000000000000000000000000000000000000000000000000008152fd5b5065ffffffffffff610100820151166121a361219362ffffff60e08501511642612e89565b62ffffff60c08501511690612e89565b11610d64565b62ffffff908160c0840151161590816121fc575b506121c9575b50610d52565b6121f065ffffffffffff610100840151166121ea8360e08601511642612e89565b90612eac565b1660c0820152386121c3565b905061220e8260e08501511642612e89565b10386121bd565b60e0843603126108945760e0806020602494604051612233816128cb565b61223c89612a0a565b8152612249838a01612a0a565b83820152604089013560408201526060890135606082015261226d60808a0161284c565b608082015260a089013560a082015261228860c08a0161284c565b60c0820152815201950194925050610c28565b833567ffffffffffffffff81116123bf5760c07fffffffffffffffffffffffffffffffffffffffffffffffffffffffffffffffdc82856004350101360301126123bf57604051906122eb826128af565b602481856004350101013567ffffffffffffffff81116123bb5761231b90602436918488600435010101016129ab565b8252600435840181016044013569ffffffffffffffffffff811690036123b75760043584018101604481013560208401526064013561ffff811690036123b7576024926020926123a560c484606487968a60043501010135604085015261238a6084828b60043501010161284c565b606085015260043589010160a4810135608085015201612a0a565b60a08201528152019401939050610b44565b8880fd5b8980fd5b8780fd5b503461017157806003193601126101715760206040516001600160a01b037f0000000000000000000000000000000000000000000000000000000000000000168152f35b503461017157602080600319360112611fd65760043590818352600181526001600160a01b039081604085205416906040516331070bc960e21b81528181600481877f0000000000000000000000000000000000000000000000000000000000000000165afa90811561053d57869161265e575b50604051630862026560e41b8152600481018690526001600160a01b03841660248201529082908290604490829088165afa801561053d5784918791612641575b5016936040517f975057e70000000000000000000000000000000000000000000000000000000081528281600481895afa801561263657839261254d928992612617575b506040519687809481937fd49031c00000000000000000000000000000000000000000000000000000000083528b60048401602090939291936001600160a01b0360408201951681520152565b0392165afa9283156104e85785936125e8575b508060049394604051948580927f313ce5670000000000000000000000000000000000000000000000000000000082525afa9283156104e85785936125b5575b50606094506040519384528301526040820152f35b9080935081813d83116125e1575b6125cd818361296c565b81010312611b8457606094505191386125a0565b503d6125c3565b92508083813d8311612610575b6125ff818361296c565b81010312611b845791519180612560565b503d6125f5565b61262f919250843d86116105195761050b818361296c565b9038612500565b6040513d89823e3d90fd5b6126589150833d85116105195761050b818361296c565b386124bc565b6126759150823d84116105195761050b818361296c565b3861247b565b503461017157602060031936011261017157602061269a600435613023565b604051908152f35b5034610171576080600319360112610171576126bc612836565b506024356001600160a01b038116036101715760643567ffffffffffffffff808211611b885736602383011215611b88578160040135908111611b8857369101602401116101715760206040517f150b7a02000000000000000000000000000000000000000000000000000000008152f35b503461017157806003193601126101715760206040517f00000000000000000000000000000000000000000000000000000000000000008152f35b503461017157806003193601126101715760206040516001600160a01b037f0000000000000000000000000000000000000000000000000000000000000000168152f35b5034610171576020600319360112610171576127ca600435612cad565b6040519060078110156127df57602092508152f35b602483634e487b7160e01b81526021600452fd5b905034611fd65781600319360112611fd6576020906001600160a01b037f0000000000000000000000000000000000000000000000000000000000000000168152f35b600435906001600160a01b03821682036104dc57565b35906001600160a01b03821682036104dc57565b610240810190811067ffffffffffffffff82111761287d57604052565b634e487b7160e01b600052604160045260246000fd5b6040810190811067ffffffffffffffff82111761287d57604052565b60c0810190811067ffffffffffffffff82111761287d57604052565b60e0810190811067ffffffffffffffff82111761287d57604052565b6080810190811067ffffffffffffffff82111761287d57604052565b67ffffffffffffffff811161287d57604052565b610160810190811067ffffffffffffffff82111761287d57604052565b6060810190811067ffffffffffffffff82111761287d57604052565b6020810190811067ffffffffffffffff82111761287d57604052565b90601f601f19910116810190811067ffffffffffffffff82111761287d57604052565b67ffffffffffffffff811161287d57601f01601f191660200190565b81601f820112156104dc578035906129c28261298f565b926129d0604051948561296c565b828452602083830101116104dc57816000926020809301838601378301015290565b67ffffffffffffffff811161287d5760051b60200190565b359081151582036104dc57565b359062ffffff821682036104dc57565b908160209103126104dc57516001600160a01b03811681036104dc5790565b80929161012091829103126104dc5760405190810181811067ffffffffffffffff82111761287d576040528092805182526020810151602083015260408101516040830152606081015160608301526080810151608083015260a081015160a083015260c081015160c083015260e08101516001600160a01b03811681036104dc5760e083015261010080910151910152565b519081151582036104dc57565b80820392916103a084126104dc57612b1f7ffffffffffffffffffffffffffffffffffffffffffffffffffffffffffffffee09183612a46565b9301906102808083126104dc57606060405193612b3b85612860565b126104dc57612bec91604051612b5081612934565b61012090612b5f828401612ad9565b815261014090612b70828501612ad9565b602082015261016090612b84828601612ad9565b604082015287526101808085015160208901526101a0918286015160408a01526101c0938487015160608b01526101e095612bc0878901612ad9565b60808c0152612c1d610200998c60a0612bda8d8d01612ad9565b9101528c60c06102209d8e8d01612ad9565b9101528c60e0612bff6102408d01612ad9565b9101528c610100612c136102608d01612ad9565b9101528901612ad9565b908b0152612c2e6102a08801612ad9565b908a0152612c3f6102c08701612ad9565b90890152612c506102e08601612ad9565b90880152612c616103008501612ad9565b90870152612c726103208401612ad9565b90860152612c836103408301612ad9565b908501526103608101516001600160a01b03811681036104dc576103809285015201519082015290565b604080517f8776c4990000000000000000000000000000000000000000000000000000000081528260048201526103a0906001600160a01b03938282602481887f0000000000000000000000000000000000000000000000000000000000000000165afa918215612e7e576000938493612e4a575b505082518015612e3f57600114612e3557806000526020926003845260ff856000205416612e2a57612d548183614f63565b612e1f57516002149081612e06575b50612dfd5760049361020083920151168351948580927fa8c15f4a0000000000000000000000000000000000000000000000000000000082525afa918215612df35750600091612dbf575b509050612dba57600390565b600490565b82813d8311612dec575b612dd3818361296c565b810103126101715750612de590612ad9565b8038612dae565b503d612dc9565b513d6000823e3d90fd5b50505050600290565b905060005260018252826000205460e81c151538612d63565b505050505050600590565b505050505050600690565b5050505050600190565b505050505050600090565b8091929450612e6e9350903d10612e77575b612e66818361296c565b810190612ae6565b90913880612d22565b503d612e5c565b84513d6000823e3d90fd5b91908201809211612e9657565b634e487b7160e01b600052601160045260246000fd5b91908203918211612e9657565b805115612ec65760200190565b634e487b7160e01b600052603260045260246000fd5b8051821015612ec65760209160051b010190565b90815180825260208092019182818360051b8501950193600080925b858410612f1d575050505050505090565b9091929387828297989903855288518260606040938285820194805183520151948382015284518094520192019085905b808210612f6e575050509080600192990194019401929594939190612f0c565b919360e084612fcd60019496885160c0908051151583526020810151151560208401526040810151604084015260608101516060840152816001600160a01b039182608082015116608086015260a081015160a0860152015116910152565b019401920188939291612f4e565b60005b838110612fee5750506000910152565b8181015183820152602001612fde565b90601f19601f60209361301c81518092818752878088019101612fdb565b0116010190565b6001600160a01b0390817f0000000000000000000000000000000000000000000000000000000000000000166040918251917f8776c499000000000000000000000000000000000000000000000000000000008352600482818501526103a09560249680868981875afa908115613d98576000968792613d76575b50856000526020966003885260ff8960002054168015613d6a575b613d425787878a6130ca8483614f63565b6139ff57915050517f12b37b14000000000000000000000000000000000000000000000000000000008152878682015282818c818a5afa9081156139f4576000916139d6575b508880830151910151036139ae5791879695949391899360018091511480613997575b1561348f579088929184610200809401511689600052818552866000209587519661315d886128e7565b5490811687528060a01c65ffffffffffff16868801528060d01c62ffffff168888015260e81c606081970152865195613195876128e7565b8652600085870181905287870181905260608701528651936131b685612934565b60008086528686018190528886015287516131d081612893565b6000815283878201526131e290615215565b928851956131ef87612860565b865286860160009052612710808a880152606087015280608087015260a086016000905260c086016000905260e08601600090526101008601600090526101208601600090526101408601600090526101608601600090526101808601600090526101a0860160009052806101c08701526101e086015284015261022083015284519161327b83612950565b6000835285519461328b86612950565b6000865286519d8e9a8b9963175b7be560e31b8b528a015288016132d5916001600160a01b0360608092805185526020810151602086015260408101516040860152015116910152565b80518051151560a4890152602080820151151560c48a0152604091820151151560e48a015282015161010489015281015161012488015260608101516101448801526080810151151561016488015260a0810151151561018488015260c081015115156101a488015260e081015115156101c488015261010081015115156101e488015261012081015115156102048801526101408101511515610224880152610160810151151561024488015261018081015115156102648801526101a081015115156102848801526101c081015115156102a48801526101e081015115156102c48801526102008101516001600160a01b03166102e488015261022001516103048701526103248601600090526103448601526103a485016133f891612ef0565b9160031992838682030161036487015261341191614eef565b84810392830161038486015260148152017f44656669666120726566756e642070686173652e000000000000000000000000905201915a90600091f1918215612df35750600091613463575b50905090565b82813d8311613488575b613477818361296c565b81010312610171575051803861345d565b503d61346d565b9192949596975092508361020080930151169387600052818952808a6000205416908a516331070bc960e21b81528a8189818c5afa90811561396d578383928c8f958f946135169c9b9a9998978e91600095613978575b50519c8d9586948593630862026560e41b855284019092916001600160a01b036020916040840195845216910152565b0392165afa96871561396d5760009761394e575b508c908c978c89519961353c8b612893565b868b526000905b8282106139085750505016918b8d518093631982d67960e01b8252838c83015281865afa9182156138fd57918d979593918d9c9b9a999795936000926138b2575b50908c969594939291895192613599846128af565b835287830152600089830181905260608301527cffffffffffffffffffffffffffffffffffffffffffffffffffffffffff608083015260a08201526135dd87612eb9565b526135e786612eb9565b508651936135f4856128e7565b6000808652868601819052888601819052606086015287519261361684612934565b600080855287850181905289850152885161363081612893565b60008082528882015261364290615215565b9289519461364f86612860565b855287850160009052612710808b870152606086015280608086015260a085016000905260c085016000905260e08501600090526101008501600090526101208501600090526101408501600090526101608501600090526101808501600090526101a0850160009052806101c08601526101e08501528301526102208201528551926136db84612950565b6000845286519d8e9a8b9963175b7be560e31b8b528a01528801613725916001600160a01b0360608092805185526020810151602086015260408101516040860152015116910152565b80518051151560a4890152602080820151151560c48a0152604091820151151560e48a015282015161010489015281015161012488015260608101516101448801526080810151151561016488015260a0810151151561018488015260c081015115156101a488015260e081015115156101c488015261010081015115156101e488015261012081015115156102048801526101408101511515610224880152610160810151151561024488015261018081015115156102648801526101a081015115156102848801526101c081015115156102a48801526101e081015115156102c48801526102008101516001600160a01b03166102e488015261022001516103048701526103248601600090526103448601526103a4850161384891612ef0565b9160031992838682030161036487015261386191614eef565b84810392830161038486015260158152017f4465666966612073636f72696e672070686173652e0000000000000000000000905201915a90600091f1918215612df357506000916134635750905090565b8093959799508d919496989a9b9c9d3d83116138f6575b6138d3818361296c565b810103126101715750928b9a99989795928b95928e989551919293949596613584565b503d6138c9565b8d513d6000823e3d90fd5b909192939450600081519161391c836128af565b81835281858401528201526000606082015260006080820152600060a082015282828c01015201908c8f93928f613543565b6139669197508b3d8d116105195761050b818361296c565b953861352a565b8c513d6000823e3d90fd5b613990919550873d89116105195761050b818361296c565b93386134e6565b5087600052808952846000205460e81c1515613133565b8489517f11f43385000000000000000000000000000000000000000000000000000000008152fd5b6139ed9150833d8511612e7757612e66818361296c565b5038613110565b8a513d6000823e3d90fd5b939096949250819795610200809401511690845193613a1d856128e7565b60008086528486018190528686018190526060860152855192613a3f84612934565b6000808552858501819052878501528651613a5981612893565b60008152600186820152613a6c90615215565b91875194613a7986612860565b85528585016000905261271080898701526060860152608085016001905260a085016000905260c085016000905260e08501600090526101008501600090526101208501600090526101408501600090526101608501600090526101808501600090526101a08501600090526101c08501600190526101e0850160019052840152610220830152845191613b0c83612950565b60008352855194613b1c86612950565b6000865286519e8f9a8b9963175b7be560e31b8b528a01528801613b66916001600160a01b0360608092805185526020810151602086015260408101516040860152015116910152565b80518051151560a4890152602080820151151560c48a0152604091820151151560e48a015282015161010489015281015161012488015260608101516101448801526080810151151561016488015260a0810151151561018488015260c081015115156101a488015260e081015115156101c488015261010081015115156101e488015261012081015115156102048801526101408101511515610224880152610160810151151561024488015261018081015115156102648801526101a081015115156102848801526101c081015115156102a48801526101e081015115156102c48801526102008101516001600160a01b03166102e488015261022001516103048701526103248601600090526103448601526103a48501613c8991612ef0565b91600319928386820301610364870152613ca291614eef565b84810392830161038486015260128152017f446566696661206e6f20636f6e746573742e0000000000000000000000000000905201915a90600091f1938415613d3757600094613d07575b509060039160005252600020600160ff1982541617905590565b90938282813d8311613d30575b613d1e818361296c565b81010312610171575051926003613ced565b503d613d14565b83513d6000823e3d90fd5b8489517fdc7a2515000000000000000000000000000000000000000000000000000000008152fd5b506080810151156130b9565b90809750613d9092503d8811612e7757612e66818361296c565b90953861309e565b87513d6000823e3d90fd5b90613df7603960405180947f5061796f75742066726f6d204465666966612067616d652023000000000000006020830152613de78151809260208686019101612fdb565b810103601981018552018361296c565b565b9081600052600560205260ff60406000205416614ed357613e1982612cad565b6007811015614ebd5760038114159081614eb1575b50614e87578160005260056020526040600020600160ff19825416179055604051907f2bdfe0040000000000000000000000000000000000000000000000000000000082526020826004816001600160a01b037f0000000000000000000000000000000000000000000000000000000000000000165afa9182156144ed57600092614e66575b506040517f69e11cc50000000000000000000000000000000000000000000000000000000081527f00000000000000000000000000000000000000000000000000000000000000006004820152602481018490527f0000000000000000000000000000000000000000000000000000000000000000604482015291600090839060649082906001600160a01b03165afa9182156144ed57600092614d36575b508260005260016020526001600160a01b0360406000205416604051916331070bc960e21b83526020836004816001600160a01b037f0000000000000000000000000000000000000000000000000000000000000000165afa9283156144ed57600093614d15575b50604051630862026560e41b8152600481018690526001600160a01b038316602482015294602086806044810103816001600160a01b0388165afa9586156144ed57600096614cf4575b50604051957f975057e70000000000000000000000000000000000000000000000000000000087526020876004816001600160a01b0385165afa9687156144ed57600097614cd3575b506040517fd49031c00000000000000000000000000000000000000000000000000000000081526001600160a01b03828116600483015260248201849052909760209189916044918391165afa9687156144ed57600097614c9f575b50604051957f313ce5670000000000000000000000000000000000000000000000000000000087526020876004816001600160a01b0386165afa9687156144ed57600097614c6b575b50604051631982d67960e01b81528560048201526020816024816001600160a01b0387165afa9081156144ed57600091614c39575b50602089614135866155ac565b92614187603660405180967f536574746c696e67204465666966612067616d652023000000000000000000008783015261417781518092898686019101612fdb565b810103601681018752018561296c565b61420f60405161419681612950565b600081526141fd60405196879586957fa02f801c0000000000000000000000000000000000000000000000000000000087528c600488015281602488015260448701528d606487015260848601523060a486015261010060c4860152610104850190612ffe565b906003198483030160e4850152612ffe565b038160006001600160a01b0388165af19081156144ed57600091614c07575b509360005b8251811015614bad576142468184612edc565b5161425560408201518c615720565b80614320575b610140600193927ff44ffe151def7bd57d653ffdd625b5cfff3e6992ad5b8eb1f021cdaca6599544926142dd604051809360c0908051151583526020810151151560208401526040810151604084015260608101516060840152816001600160a01b039182608082015116608086015260a081015160a0860152015116910152565b60e08201526001600160a01b037f00000000000000000000000000000000000000000000000000000000000000001661010082015233610120820152a101614233565b60c082015190979291906001600160a01b031615614552576040519263b7bad1b160e01b84528960048501526020846024816001600160a01b038b165afa9384156144ed5760009461451e575b506040519361437b856128af565b8a85528960208601526040850152876060850152600060808501528160a085015261eeee8a03614501575b61eeee8a036144f95788935b6001600160a01b0360c08401511694853b156104dc5761018460009260a09261449098604051998a9586947f9d740bfa0000000000000000000000000000000000000000000000000000000086526001600160a01b03815116600487015260208101516024870152604081015160448701526060810151606487015260808101516084870152015160a485019060c0908051151583526020810151151560208401526040810151604084015260608101516060840152816001600160a01b039182608082015116608086015260a081015160a0860152015116910152565b5af19182156144ed576144d28a610140936001977ff44ffe151def7bd57d653ffdd625b5cfff3e6992ad5b8eb1f021cdaca6599544966144de575b505b612eac565b9992509293505061425b565b6144e790612903565b386144cb565b6040513d6000823e3d90fd5b6000936143b2565b614519896001600160a01b0360c0850151168c615292565b6143a6565b9093506020813d60201161454a575b8161453a6020938361296c565b810103126104dc5751923861436d565b3d915061452d565b606081018051919391156149815760208401511561464357519060405163b7bad1b160e01b81528a60048201526020816024816001600160a01b038c165afa9283156144ed578a938c8b8f94600093614603575b50600198946144d29488947ff44ffe151def7bd57d653ffdd625b5cfff3e6992ad5b8eb1f021cdaca65995449961014099956145ec6145e76144cd976155ac565b613da3565b93604051956145fa87612950565b6000875261501e565b98945050505092506020853d60201161463b575b816146246020938361296c565b810103126104dc57935189928c918c8b60016145a6565b3d9150614617565b9290925160405163b7bad1b160e01b81528a60048201526020816024816001600160a01b038c165afa9182156144ed578b9160009361494a575b5060808401516001600160a01b03168d8b8215614919576001600160a01b0392955b60206146f96146b46145e78b511515956155ac565b94604051986146c28a612950565b60008a52604051978880948193630862026560e41b83528c600484019092916001600160a01b036020916040840195845216910152565b0392165afa9384156144ed576000946148f8575b506001600160a01b038416156148ce578f6040519063b7bad1b160e01b825260048201526020816024816001600160a01b0389165afa9081156144ed5760009161489c575b5003614872576001600160a01b038f948f936020976141fd6147e69261eeee8a03614860575b61eeee8a036148585787965b866040519d8e9c8d9b8c997f1ebc263f000000000000000000000000000000000000000000000000000000008b5260048b015260248a015260448901521660648701526000608487015260a486015261010060c4860152610104850190612ffe565b0393165af19081156144ed57899161482b575b507ff44ffe151def7bd57d653ffdd625b5cfff3e6992ad5b8eb1f021cdaca6599544916144d261014092600196612eac565b60208092503d8311614851575b614842818361296c565b810103126104dc5787386147f9565b503d614838565b600096614784565b61486d88878b168c615292565b614778565b60046040517fb9725924000000000000000000000000000000000000000000000000000000008152fd5b90506020813d6020116148c6575b816148b76020938361296c565b810103126104dc575138614752565b3d91506148aa565b60046040517ffba10dd6000000000000000000000000000000000000000000000000000000008152fd5b61491291945060203d6020116105195761050b818361296c565b923861470d565b6001600160a01b0392507f00000000000000000000000000000000000000000000000000000000000000009561469f565b915091506020813d602011614979575b816149676020938361296c565b810103126104dc578a9051913861467d565b3d915061495a565b5091878961eeee8103614adb57505060808101516001600160a01b03168015614aab575b884710614a6757600080808b6001600160a01b038295165af16149c66154e0565b50156149fd576101407ff44ffe151def7bd57d653ffdd625b5cfff3e6992ad5b8eb1f021cdaca6599544916144d28a600196612eac565b608460405162461bcd60e51b815260206004820152603a60248201527f416464726573733a20756e61626c6520746f2073656e642076616c75652c207260448201527f6563697069656e74206d617920686176652072657665727465640000000000006064820152fd5b606460405162461bcd60e51b815260206004820152601d60248201527f416464726573733a20696e73756666696369656e742062616c616e63650000006044820152fd5b506001600160a01b037f0000000000000000000000000000000000000000000000000000000000000000166149a5565b916144d2826001966144cd610140957ff44ffe151def7bd57d653ffdd625b5cfff3e6992ad5b8eb1f021cdaca6599544976001600160a01b03608088015116801515600014614b8357614b7e905b6040517fa9059cbb0000000000000000000000000000000000000000000000000000000060208201526001600160a01b039091166024820152604481019390935282606481015b03601f19810184528361296c565b6153ee565b50614b7e7f0000000000000000000000000000000000000000000000000000000000000000614b29565b5097505050929190613df7949160405194614bc786612950565b6000865260405194614bd886612893565b600386527f506f740000000000000000000000000000000000000000000000000000000000602087015261501e565b90506020813d602011614c31575b81614c226020938361296c565b810103126104dc57513861422e565b3d9150614c15565b90506020813d602011614c63575b81614c546020938361296c565b810103126104dc575138614128565b3d9150614c47565b9096506020813d602011614c97575b81614c876020938361296c565b810103126104dc575195386140f3565b3d9150614c7a565b9096506020813d602011614ccb575b81614cbb6020938361296c565b810103126104dc575195386140aa565b3d9150614cae565b614ced91975060203d6020116105195761050b818361296c565b953861404e565b614d0e91965060203d6020116105195761050b818361296c565b9438614005565b614d2f91935060203d6020116105195761050b818361296c565b9138613fbb565b9091503d806000833e614d49818361296c565b60208282810103126104dc57815167ffffffffffffffff81116104dc57820190808301601f830112156104dc57815190614d82826129f2565b93614d90604051958661296c565b8285526020850193828201602060e08602830101116104dc579360208501945b602060e086028201018610614dcc575050505050509038613f53565b60e08685850103126104dc57604051614de4816128cb565b614ded87612ad9565b8152614dfb60208801612ad9565b60208201526040870151604082015260608088015190820152608080880151906001600160a01b03821682036104dc5782015260a0808801519082015260c080880151906001600160a01b03821682036104dc57820152825260e09590950194602090910190614db0565b614e8091925060203d6020116105195761050b818361296c565b9038613eb4565b60046040517f66954d0b000000000000000000000000000000000000000000000000000000008152fd5b60049150141538613e2e565b634e487b7160e01b600052602160045260246000fd5b9050565b65ffffffffffff9182169082160391908211612e9657565b90815180825260208080930193019160005b828110614f0f575050505090565b835180516001600160a01b03908116875281840151168684015260408082015190870152606080820151908701526080808201519087015260a0908101519086015260c09094019392810192600101614f01565b906040810151604051927fa40bb9c7000000000000000000000000000000000000000000000000000000008452600484015260248301526103a09182816044816001600160a01b037f0000000000000000000000000000000000000000000000000000000000000000165afa9283156144ed57600093614ffe575b50505190519060018201809211612e965703614ff957600090565b600190565b615015929350803d10612e7757612e66818361296c565b50903880614fde565b60408051630862026560e41b8152600481018490526001600160a01b0385166024820152969790969095602095929492939290918681806044810103816001600160a01b03809a165afa9081156151c4579086916000916151f8575b50169485156151cf5788519163b7bad1b160e01b835216958660048301528082602481895afa9081156151c457600091615198575b5090500361516f5761eeee8414801561515f575b60009015615159575081905b833b156104dc5761513d60009661512b89519a8b98899788967f0cf8e85800000000000000000000000000000000000000000000000000000000885260048801526024870152604486015260a0606486015260a4850190612ffe565b90600319848303016084850152612ffe565b03925af1908115612df357506151505750565b613df790612903565b906150cf565b61516a838587615292565b6150c3565b600486517fb9725924000000000000000000000000000000000000000000000000000000008152fd5b82813d83116151bd575b6151ac818361296c565b8101031261017157505180386150af565b503d6151a2565b89513d6000823e3d90fd5b600489517ffba10dd6000000000000000000000000000000000000000000000000000000008152fd5b61520f9150883d8a116105195761050b818361296c565b3861507a565b906000918051615231575b6020015161522a57565b9060021790565b60019250615220565b6001600160a01b0360005416330361524e57565b606460405162461bcd60e51b815260206004820152602060248201527f4f776e61626c653a2063616c6c6572206973206e6f7420746865206f776e65726044820152fd5b91909181158015615360575b156152f6576040517f095ea7b30000000000000000000000000000000000000000000000000000000060208201526001600160a01b0390931660248401526044830191909152613df79190614b7e8260648101614b70565b608460405162461bcd60e51b815260206004820152603660248201527f5361666545524332303a20617070726f76652066726f6d206e6f6e2d7a65726f60448201527f20746f206e6f6e2d7a65726f20616c6c6f77616e6365000000000000000000006064820152fd5b506040517fdd62ed3e0000000000000000000000000000000000000000000000000000000081523060048201526020816044816001600160a01b03808916602483015286165afa9081156144ed576000916153bd575b501561529e565b906020823d82116153e6575b816153d66020938361296c565b81010312610171575051386153b6565b3d91506153c9565b60405161544c916001600160a01b031661540782612893565b6000806020958685527f5361666545524332303a206c6f772d6c6576656c2063616c6c206661696c656487860152868151910182855af16154466154e0565b91615510565b80518061545857505050565b818391810103126104dc578161546e9101612ad9565b156154765750565b6084906040519062461bcd60e51b82526004820152602a60248201527f5361666545524332303a204552433230206f7065726174696f6e20646964206e60448201527f6f742073756363656564000000000000000000000000000000000000000000006064820152fd5b3d1561550b573d906154f18261298f565b916154ff604051938461296c565b82523d6000602084013e565b606090565b919290156155715750815115615524575090565b3b1561552d5790565b606460405162461bcd60e51b815260206004820152601d60248201527f416464726573733a2063616c6c20746f206e6f6e2d636f6e74726163740000006044820152fd5b8251909150156155845750805190602001fd5b6155a89060405191829162461bcd60e51b8352602060048401526024830190612ffe565b0390fd5b806000917a184f03e93ff9f4daa797ed6e38ed64bf6a1f01000000000000000080821015615712575b506d04ee2d6d415b85acef810000000080831015615703575b50662386f26fc10000808310156156f4575b506305f5e100808310156156e5575b50612710808310156156d6575b5060648210156156c6575b600a809210156156bc575b60019081602181860195601f1961566161564b8961298f565b986156596040519a8b61296c565b808a5261298f565b01366020890137860101905b615679575b5050505090565b600019849101917f30313233343536373839616263646566000000000000000000000000000000008282061a8353049182156156b75791908261566d565b615672565b9160010191615632565b9190606460029104910191615627565b6004919392049101913861561c565b6008919392049101913861560f565b60109193920491019138615600565b602091939204910191386155ee565b6040935081049150386155d5565b9190600019818409818402918280831092039180830392146157b857633b9aca009081831015615781577f88f2cfb83100cb4e69e7c79c58b316e597157d372fb9787e8e47ce423a2e9c6d94950990828211900360f71b910360091c170290565b60448383604051917f773cc18c00000000000000000000000000000000000000000000000000000000835260048301526024820152fd5b5050633b9aca009004915056fea2646970667358221220cc3bb2ef9b25211873061dfba29f63e36723cd143c702bc1ef8845e806a792db64736f6c63430008140033",
    "linkReferences": {}
  },
  "methodIdentifiers": {
    "ballkidzProjectId()": "0d75b3aa",
    "changeFee(uint256)": "6a1db1bf",
    "claimProtocolProjectToken()": "ca449a25",
    "controller()": "f77c4791",
    "currentGamePhaseOf(uint256)": "0715610a",
    "currentGamePotOf(uint256)": "3af76f34",
    "delegateCodeOrigin()": "06b552b5",
    "delegatesRegistry()": "d574ff04",
    "feeDivisor()": "9a36f932",
    "fulfillCommitmentsOf(uint256)": "b6674cde",
    "governor()": "0c340a24",
    "hasFulfilledCommitments(uint256)": "850976b2",
    "launchGameWith((string,(string,uint256),string,string,(string,uint80,uint16,address,bytes32,bool)[],address,uint24,uint24,uint48,(bool,bool,uint256,uint256,address,uint256,address)[],address,address,uint256,uint256,address,address,address,address))": "63bf482e",
    "nextPhaseNeedsQueueing(uint256)": "81312a14",
    "onERC721Received(address,address,uint256,bytes)": "150b7a02",
    "owner()": "8da5cb5b",
    "protocolFeeProjectTokenAccount()": "3f3090d9",
    "queueNextPhaseOf(uint256)": "1c069dbb",
    "renounceOwnership()": "715018a6",
    "splitGroup()": "859bb4b2",
    "timesFor(uint256)": "b07925d3",
    "tokenOf(uint256)": "ea78803f",
    "tokenUriResolver()": "e131fc0c",
    "transferOwnership(address)": "f2fde38b"
  },
  "id": 1
}