{
  "abi": [
    {
      "inputs": [
        {
          "internalType": "address",
          "name": "_delegateCodeOrigin",
          "type": "address"
        },
        {
          "internalType": "address",
          "name": "_tokenUriResolverCodeOrigin",
          "type": "address"
        },
        {
          "internalType": "contract IDefifaGovernor",
          "name": "_governor",
          "type": "address"
        },
        {
          "internalType": "contract IJBController3_1",
          "name": "_controller",
          "type": "address"
        },
        {
          "internalType": "contract IJBDelegatesRegistry",
          "name": "_delegatesRegistry",
          "type": "address"
        },
        {
          "internalType": "address",
          "name": "_protocolFeeProjectTokenAccount",
          "type": "address"
        },
        {
          "internalType": "uint256",
          "name": "_ballkidzProjectId",
          "type": "uint256"
        },
        {
          "internalType": "address",
          "name": "_owner",
          "type": "address"
        }
      ],
      "stateMutability": "nonpayable",
      "type": "constructor"
    },
    {
      "inputs": [],
      "name": "GAME_OVER",
      "type": "error"
    },
    {
      "inputs": [],
      "name": "INVALID_FEE_PERCENT",
      "type": "error"
    },
    {
      "inputs": [],
      "name": "INVALID_GAME_CONFIGURATION",
      "type": "error"
    },
    {
      "inputs": [],
      "name": "PHASE_ALREADY_QUEUED",
      "type": "error"
    },
    {
      "inputs": [],
      "name": "SPLITS_DONT_ADD_UP",
      "type": "error"
    },
    {
      "inputs": [],
      "name": "UNEXPECTED_TERMINAL_CURRENCY",
      "type": "error"
    },
    {
      "anonymous": false,
      "inputs": [
        {
          "indexed": true,
          "internalType": "uint256",
          "name": "gameId",
          "type": "uint256"
        },
        {
          "indexed": true,
          "internalType": "contract IDefifaDelegate",
          "name": "delegate",
          "type": "address"
        },
        {
          "indexed": true,
          "internalType": "contract IDefifaGovernor",
          "name": "governor",
          "type": "address"
        },
        {
          "indexed": false,
          "internalType": "contract IJBTokenUriResolver",
          "name": "tokenUriResolver",
          "type": "address"
        },
        {
          "indexed": false,
          "internalType": "address",
          "name": "caller",
          "type": "address"
        }
      ],
      "name": "LaunchGame",
      "type": "event"
    },
    {
      "anonymous": false,
      "inputs": [
        {
          "indexed": true,
          "internalType": "address",
          "name": "previousOwner",
          "type": "address"
        },
        {
          "indexed": true,
          "internalType": "address",
          "name": "newOwner",
          "type": "address"
        }
      ],
      "name": "OwnershipTransferred",
      "type": "event"
    },
    {
      "inputs": [],
      "name": "SPLIT_DOMAIN",
      "outputs": [
        {
          "internalType": "uint256",
          "name": "",
          "type": "uint256"
        }
      ],
      "stateMutability": "view",
      "type": "function"
    },
    {
      "inputs": [],
      "name": "ballkidzProjectId",
      "outputs": [
        {
          "internalType": "uint256",
          "name": "",
          "type": "uint256"
        }
      ],
      "stateMutability": "view",
      "type": "function"
    },
    {
      "inputs": [
        {
          "internalType": "uint256",
          "name": "_percent",
          "type": "uint256"
        }
      ],
      "name": "changeFee",
      "outputs": [],
      "stateMutability": "nonpayable",
      "type": "function"
    },
    {
      "inputs": [],
      "name": "claimProtocolProjectToken",
      "outputs": [],
      "stateMutability": "nonpayable",
      "type": "function"
    },
    {
      "inputs": [],
      "name": "controller",
      "outputs": [
        {
          "internalType": "contract IJBController3_1",
          "name": "",
          "type": "address"
        }
      ],
      "stateMutability": "view",
      "type": "function"
    },
    {
      "inputs": [
        {
          "internalType": "uint256",
          "name": "_gameId",
          "type": "uint256"
        }
      ],
      "name": "currentGamePhaseOf",
      "outputs": [
        {
          "internalType": "enum DefifaGamePhase",
          "name": "",
          "type": "uint8"
        }
      ],
      "stateMutability": "view",
      "type": "function"
    },
    {
      "inputs": [
        {
          "internalType": "uint256",
          "name": "_gameId",
          "type": "uint256"
        }
      ],
      "name": "currentGamePotOf",
      "outputs": [
        {
          "internalType": "uint256",
          "name": "",
          "type": "uint256"
        },
        {
          "internalType": "address",
          "name": "",
          "type": "address"
        },
        {
          "internalType": "uint256",
          "name": "",
          "type": "uint256"
        }
      ],
      "stateMutability": "view",
      "type": "function"
    },
    {
      "inputs": [],
      "name": "delegateCodeOrigin",
      "outputs": [
        {
          "internalType": "address",
          "name": "",
          "type": "address"
        }
      ],
      "stateMutability": "view",
      "type": "function"
    },
    {
      "inputs": [],
      "name": "delegatesRegistry",
      "outputs": [
        {
          "internalType": "contract IJBDelegatesRegistry",
          "name": "",
          "type": "address"
        }
      ],
      "stateMutability": "view",
      "type": "function"
    },
    {
      "inputs": [
        {
          "internalType": "uint256",
          "name": "_gameId",
          "type": "uint256"
        }
      ],
      "name": "distributionOpsOf",
      "outputs": [
        {
          "components": [
            {
              "internalType": "contract IJBPaymentTerminal",
              "name": "terminal",
              "type": "address"
            },
            {
              "internalType": "address",
              "name": "token",
              "type": "address"
            },
            {
              "internalType": "uint88",
              "name": "distributionLimit",
              "type": "uint88"
            }
          ],
          "internalType": "struct DefifaDistributionOpsData",
          "name": "",
          "type": "tuple"
        }
      ],
      "stateMutability": "view",
      "type": "function"
    },
    {
      "inputs": [],
      "name": "feeDivisor",
      "outputs": [
        {
          "internalType": "uint256",
          "name": "",
          "type": "uint256"
        }
      ],
      "stateMutability": "view",
      "type": "function"
    },
    {
      "inputs": [],
      "name": "governor",
      "outputs": [
        {
          "internalType": "contract IDefifaGovernor",
          "name": "",
          "type": "address"
        }
      ],
      "stateMutability": "view",
      "type": "function"
    },
    {
      "inputs": [
        {
          "components": [
            {
              "internalType": "string",
              "name": "name",
              "type": "string"
            },
            {
              "components": [
                {
                  "internalType": "string",
                  "name": "content",
                  "type": "string"
                },
                {
                  "internalType": "uint256",
                  "name": "domain",
                  "type": "uint256"
                }
              ],
              "internalType": "struct JBProjectMetadata",
              "name": "projectMetadata",
              "type": "tuple"
            },
            {
              "internalType": "string",
              "name": "contractUri",
              "type": "string"
            },
            {
              "internalType": "string",
              "name": "baseUri",
              "type": "string"
            },
            {
              "components": [
                {
                  "internalType": "string",
                  "name": "name",
                  "type": "string"
                },
                {
                  "internalType": "uint80",
                  "name": "price",
                  "type": "uint80"
                },
                {
                  "internalType": "uint16",
                  "name": "reservedRate",
                  "type": "uint16"
                },
                {
                  "internalType": "address",
                  "name": "reservedTokenBeneficiary",
                  "type": "address"
                },
                {
                  "internalType": "bytes32",
                  "name": "encodedIPFSUri",
                  "type": "bytes32"
                },
                {
                  "internalType": "bool",
                  "name": "shouldUseReservedTokenBeneficiaryAsDefault",
                  "type": "bool"
                }
              ],
              "internalType": "struct DefifaTierParams[]",
              "name": "tiers",
              "type": "tuple[]"
            },
            {
              "internalType": "address",
              "name": "token",
              "type": "address"
            },
            {
              "internalType": "uint48",
              "name": "mintDuration",
              "type": "uint48"
            },
            {
              "internalType": "uint48",
              "name": "refundDuration",
              "type": "uint48"
            },
            {
              "internalType": "uint48",
              "name": "start",
              "type": "uint48"
            },
            {
              "components": [
                {
                  "internalType": "bool",
                  "name": "preferClaimed",
                  "type": "bool"
                },
                {
                  "internalType": "bool",
                  "name": "preferAddToBalance",
                  "type": "bool"
                },
                {
                  "internalType": "uint256",
                  "name": "percent",
                  "type": "uint256"
                },
                {
                  "internalType": "uint256",
                  "name": "projectId",
                  "type": "uint256"
                },
                {
                  "internalType": "address payable",
                  "name": "beneficiary",
                  "type": "address"
                },
                {
                  "internalType": "uint256",
                  "name": "lockedUntil",
                  "type": "uint256"
                },
                {
                  "internalType": "contract IJBSplitAllocator",
                  "name": "allocator",
                  "type": "address"
                }
              ],
              "internalType": "struct JBSplit[]",
              "name": "splits",
              "type": "tuple[]"
            },
            {
              "internalType": "uint88",
              "name": "distributionLimit",
              "type": "uint88"
            },
            {
              "internalType": "address payable",
              "name": "ballkidzFeeProjectTokenAccount",
              "type": "address"
            },
            {
              "internalType": "uint256",
              "name": "votingStartTime",
              "type": "uint256"
            },
            {
              "internalType": "uint256",
              "name": "votingPeriod",
              "type": "uint256"
            },
            {
              "internalType": "address",
              "name": "defaultVotingDelegate",
              "type": "address"
            },
            {
              "internalType": "contract IJBTokenUriResolver",
              "name": "defaultTokenUriResolver",
              "type": "address"
            },
            {
              "internalType": "contract IJBPaymentTerminal",
              "name": "terminal",
              "type": "address"
            },
            {
              "internalType": "contract IJBTiered721DelegateStore",
              "name": "store",
              "type": "address"
            }
          ],
          "internalType": "struct DefifaLaunchProjectData",
          "name": "_launchProjectData",
          "type": "tuple"
        }
      ],
      "name": "launchGameWith",
      "outputs": [
        {
          "internalType": "uint256",
          "name": "gameId",
          "type": "uint256"
        }
      ],
      "stateMutability": "nonpayable",
      "type": "function"
    },
    {
      "inputs": [
        {
          "internalType": "uint256",
          "name": "_gameId",
          "type": "uint256"
        }
      ],
      "name": "nextPhaseNeedsQueueing",
      "outputs": [
        {
          "internalType": "bool",
          "name": "",
          "type": "bool"
        }
      ],
      "stateMutability": "view",
      "type": "function"
    },
    {
      "inputs": [
        {
          "internalType": "address",
          "name": "",
          "type": "address"
        },
        {
          "internalType": "address",
          "name": "",
          "type": "address"
        },
        {
          "internalType": "uint256",
          "name": "",
          "type": "uint256"
        },
        {
          "internalType": "bytes",
          "name": "",
          "type": "bytes"
        }
      ],
      "name": "onERC721Received",
      "outputs": [
        {
          "internalType": "bytes4",
          "name": "",
          "type": "bytes4"
        }
      ],
      "stateMutability": "pure",
      "type": "function"
    },
    {
      "inputs": [],
      "name": "owner",
      "outputs": [
        {
          "internalType": "address",
          "name": "",
          "type": "address"
        }
      ],
      "stateMutability": "view",
      "type": "function"
    },
    {
      "inputs": [],
      "name": "protocolFeeProjectTokenAccount",
      "outputs": [
        {
          "internalType": "address",
          "name": "",
          "type": "address"
        }
      ],
      "stateMutability": "view",
      "type": "function"
    },
    {
      "inputs": [
        {
          "internalType": "uint256",
          "name": "_gameId",
          "type": "uint256"
        }
      ],
      "name": "queueNextPhaseOf",
      "outputs": [
        {
          "internalType": "uint256",
          "name": "configuration",
          "type": "uint256"
        }
      ],
      "stateMutability": "nonpayable",
      "type": "function"
    },
    {
      "inputs": [],
      "name": "renounceOwnership",
      "outputs": [],
      "stateMutability": "nonpayable",
      "type": "function"
    },
    {
      "inputs": [
        {
          "internalType": "uint256",
          "name": "_gameId",
          "type": "uint256"
        }
      ],
      "name": "timesFor",
      "outputs": [
        {
          "components": [
            {
              "internalType": "uint48",
              "name": "mintDuration",
              "type": "uint48"
            },
            {
              "internalType": "uint48",
              "name": "refundDuration",
              "type": "uint48"
            },
            {
              "internalType": "uint48",
              "name": "start",
              "type": "uint48"
            }
          ],
          "internalType": "struct DefifaTimeData",
          "name": "",
          "type": "tuple"
        }
      ],
      "stateMutability": "view",
      "type": "function"
    },
    {
      "inputs": [],
      "name": "tokenUriResolverCodeOrigin",
      "outputs": [
        {
          "internalType": "address",
          "name": "",
          "type": "address"
        }
      ],
      "stateMutability": "view",
      "type": "function"
    },
    {
      "inputs": [
        {
          "internalType": "address",
          "name": "newOwner",
          "type": "address"
        }
      ],
      "name": "transferOwnership",
      "outputs": [],
      "stateMutability": "nonpayable",
      "type": "function"
    }
  ],
  "bytecode": {
    "object": "0x61016034620001df576200451c38819003601f8101601f191683016001600160401b03811184821017620001e45783928291604052833961010092839181010312620001df576200005081620001fa565b906200005f60208201620001fa565b604082015190926001600160a01b03928383168303620001df5760608101518481168103620001df5760808201519485168503620001df57620000f493620000aa60a08401620001fa565b96620000be60e060c08601519501620001fa565b94620000ca336200020f565b6001600355601460055560a05260e05260c05286526101209485526101409384526080526200020f565b604051916142c59384620002578539608051848181611fac015281816120ea015281816128fe01526138d8015260a051848181610fb801526129ca015260c05184818161187a0152612941015260e0518481816107dc0152611ddf015251838181610151015281816102bd015281816105c701528181610cea0152818161103c01528181611201015281816118410152818161206d01528181612eb3015281816132930152818161332f015281816136990152818161386d01528181613af401528181613f3601526141070152518281816103d801526125b501525181818161027c015261194c0152f35b600080fd5b634e487b7160e01b600052604160045260246000fd5b51906001600160a01b0382168203620001df57565b600080546001600160a01b039283166001600160a01b03198216811783559216907f8be0079c531659141344cd1fd0a4f28419497f9722a3daafe3b4186f6b6457e09080a356fe608080604052600436101561001357600080fd5b600090813560e01c90816306b552b5146129ab575080630715610a146129655780630c340a24146129215780630d75b3aa146128e6578063150b7a021461285a5780631c069dbb146128335780633af76f34146125d95780633f3090d91461259557806353292c68146125105780635dc1a1d0146108d95780636a1db1bf14610867578063715018a61461080057806380f07954146107bc57806381312a14146105815780638da5cb5b1461055b5780639a36f9321461053d578063b07925d3146104c7578063ca449a25146102a0578063d574ff041461025c578063f2fde38b14610175578063f77c4791146101315763ff16a2f21461011357600080fd5b3461012e578060031936011261012e57602090604051908152f35b80fd5b503461012e578060031936011261012e5760206040516001600160a01b037f0000000000000000000000000000000000000000000000000000000000000000168152f35b503461012e57602060031936011261012e5761018f6129ee565b61019761419d565b6001600160a01b038091169081156101f2576000548273ffffffffffffffffffffffffffffffffffffffff19821617600055167f8be0079c531659141344cd1fd0a4f28419497f9722a3daafe3b4186f6b6457e0600080a380f35b608460405162461bcd60e51b815260206004820152602660248201527f4f776e61626c653a206e6577206f776e657220697320746865207a65726f206160448201527f64647265737300000000000000000000000000000000000000000000000000006064820152fd5b503461012e578060031936011261012e5760206040516001600160a01b037f0000000000000000000000000000000000000000000000000000000000000000168152f35b503461012e578060031936011261012e57806001600160a01b03807f000000000000000000000000000000000000000000000000000000000000000016906040517f6193063000000000000000000000000000000000000000000000000000000000928382526020918281600481855afa9081156104bc5783918591889161049f575b50169460046040518094819382525afa90811561046757839183918791610472575b506044604051809481937f5287af3700000000000000000000000000000000000000000000000000000000835230600484015260016024840152165afa918215610467578592610431575b5050823b1561042c57608484928360405195869485937fac689bcd000000000000000000000000000000000000000000000000000000008552306004860152600160248601527f000000000000000000000000000000000000000000000000000000000000000016604485015260648401525af18015610421576104115750f35b61041a90612abb565b61012e5780f35b6040513d84823e3d90fd5b505050fd5b8195508092503d8311610460575b6104498183612b24565b8101031261045b578392513880610390565b600080fd5b503d61043f565b6040513d87823e3d90fd5b6104929150823d8411610498575b61048a8183612b24565b810190613055565b38610345565b503d610480565b6104b69150833d85116104985761048a8183612b24565b38610323565b6040513d88823e3d90fd5b503461012e57602060031936011261012e5760406060916104e6612be2565b506004358152600160205220604051906104ff82612a18565b5465ffffffffffff9081808216938481528160406020830192828660301c1684520193871c1683526040519485525116602084015251166040820152f35b503461012e578060031936011261012e576020600554604051908152f35b503461012e578060031936011261012e576001600160a01b036020915416604051908152f35b503461012e576020908160031936011261012e576040517f557e715500000000000000000000000000000000000000000000000000000000808252916001600160a01b037f0000000000000000000000000000000000000000000000000000000000000000811660048035908790869081855afa9485156107b1578495610790575b5082939495604051967f43a266c200000000000000000000000000000000000000000000000000000000885282600489015287602481610120988994165afa9687156104bc579088918798610750575b5060046040518095819382525afa9182156104675790849291869261072e575b5060249060405194859384927f5c5500780000000000000000000000000000000000000000000000000000000084526004840152165afa9283156107225780936106e6575b505050826080830151151592836106d5575b506040518315158152f35b8101519101511490503882816106ca565b90918093503d841161071b575b6106fd8184612b24565b8201928284031261012e57509061071391612c15565b3880806106b8565b503d6106f3565b604051903d90823e3d90fd5b602491925061074990893d8b116104985761048a8183612b24565b9190610673565b91509650843d8611610789575b6107678183612b24565b810190858183031261078557889161077e91612c15565b9638610653565b8680fd5b503d61075d565b839495506107aa90883d8a116104985761048a8183612b24565b9493610603565b6040513d86823e3d90fd5b503461012e578060031936011261012e5760206040516001600160a01b037f0000000000000000000000000000000000000000000000000000000000000000168152f35b503461012e578060031936011261012e5761081961419d565b60006001600160a01b03815473ffffffffffffffffffffffffffffffffffffffff1981168355167f8be0079c531659141344cd1fd0a4f28419497f9722a3daafe3b4186f6b6457e08280a380f35b503461012e57602060031936011261012e5760043561088461419d565b600581116108af57801561089b5760640460055580f35b602482634e487b7160e01b81526012600452fd5b60046040517f42c9b523000000000000000000000000000000000000000000000000000000008152fd5b503461012e57602060031936011261012e5767ffffffffffffffff6004351161012e576102406003196004353603011261012e5760405161091981612a4a565b6004356004013567ffffffffffffffff8111611a5257610940906004369181350101612b63565b81526024600435013567ffffffffffffffff8111611a52576004350160406003198236030112611a52576040519061097782612a67565b60048101359067ffffffffffffffff8211611a4e5761099e60249260043691840101612b63565b83520135602082015260208201526044600435013567ffffffffffffffff8111611a52576109d3906004369181350101612b63565b60408201526064600435013567ffffffffffffffff8111611a52576109ff906004369181350101612b63565b60608201526084600435013567ffffffffffffffff8111611a52573660238260043501011215611a5257600481813501013590610a3b82612baa565b91610a496040519384612b24565b80835260208301913660248360051b8360043501010111611b27576024816004350101925b60248360051b8360043501010184106123ef57505050506080820152610a9860a460043501612a04565b60a0820152610aab60c460043501612bcf565b60c0820152610abe60e460043501612bcf565b60e0820152610ad261010460043501612bcf565b61010082015267ffffffffffffffff610124600435013511612148573660043561012481013501602301121561214857610b1760048035610124810135010135612baa565b610b246040519182612b24565b60048035610124810135019081013580835260208301913660e090920201602401116123eb5760043561012481013501602401905b60048035610124810135019081013560e00201602401821061235a57505061012082015260043561014401356affffffffffffffffffffff81169003612148576101446004350135610140820152610bb661016460043501612a04565b6101608201526004356101848101356101808301526101a48101356101a0830152610be4906101c401612a04565b6101c08201526004356101e401356001600160a01b0381169003612148576004356101e48101356101e083015261020401356001600160a01b03811690036121485760043561020481013561020083015261022401356001600160a01b038116900361214857600435610224013561022082015261010081015165ffffffffffff16806122e1575065ffffffffffff610c93610c868260c08501511642613074565b8260e08501511690613074565b166101008201525b65ffffffffffff60c0820151161580156122a0575b612276576040517f8b79543c0000000000000000000000000000000000000000000000000000000081526020816004816001600160a01b037f0000000000000000000000000000000000000000000000000000000000000000165afa908115611d0b578391612231575b509060206001600160a01b03926004604051809581937f06661abd000000000000000000000000000000000000000000000000000000008352165afa918215611d0b5783926121fd575b506001820182116121e95765ffffffffffff60c08201511665ffffffffffff60e08301511665ffffffffffff6101008401511660405192610da484612a18565b83526020830191825260408301908152600185018652600160205265ffffffffffff604087209351167fffffffffffffffffffffffffffff00000000000000000000000000000000000071ffffffffffff0000000000000000000000006bffffffffffff0000000000008654955160301b16935160601b16931617171790556001600160a01b03610200820151166affffffffffffffffffffff610140830151166001600160a01b0360018160a0860151169360405190610e6482612a18565b8152602081019485526040810193845281870188526002602052826040892091511673ffffffffffffffffffffffffffffffffffffffff19825416178155019251167fff000000000000000000000000000000000000000000000000000000000000007effffffffffffffffffffff00000000000000000000000000000000000000008454935160a01b169216171790556101208101515180611f4a575b50608081015151610f1281612baa565b90610f206040519283612b24565b808252610f2c81612baa565b855b601f1982018110611ee957505060808301515190610f64610f4e83612baa565b92610f5c6040519485612b24565b808452612baa565b865b601f1982018110611ed35750508560a0604051610f8281612a83565b606081528260208201528260408201528260608201528260808201520152855b818110611e0a5750506001600160a01b03610fdc7f00000000000000000000000000000000000000000000000000000000000000006141f5565b6101e0850151911692906001600160a01b031615611dd2576001600160a01b036101e085015116915b604051917fc41c2f240000000000000000000000000000000000000000000000000000000083526020836004816001600160a01b037f0000000000000000000000000000000000000000000000000000000000000000165afa928315611dc7578893611d7f575b508551888060018a01807a184f03e93ff9f4daa797ed6e38ed64bf6a1f01000000000000000080821015611d6e575b506d04ee2d6d415b85acef810000000080831015611d5f575b50662386f26fc1000080831015611d50575b506305f5e10080831015611d41575b50612710821015611d30575b6064821015611d20575b600a80921015611d16575b8160001960216001870196601f196111266111108a612b47565b9961111e6040519b8c612b24565b808b52612b47565b01966020890197368937508701015b01917f30313233343536373839616263646566000000000000000000000000000000008282061a835304908d821561117257506000198391611135565b9490506111ca9250602791506111ba936040519485927f444546494641200000000000000000000000000000000000000000000000000060208501525180928585019061320d565b8101036007810184520182612b24565b604051907f557e71550000000000000000000000000000000000000000000000000000000082526020826004816001600160a01b037f0000000000000000000000000000000000000000000000000000000000000000165afa8015611d0b578a928491611cec575b5060608301519060408401519260206001600160a01b0360a08161020089015116970151166024604051809881937f1982d67900000000000000000000000000000000000000000000000000000000835260048301525afa9485156104bc578d9695611cb5575b506001600160a01b036101c0816102208901511697015116968c3b15611cb157908f9a918f9a99989796959493926040519b7f3900c6f9000000000000000000000000000000000000000000000000000000008d5260010160048d01526001600160a01b031660248c015260448b016101e090526101e48b0161131b91613230565b8a81036003190160648c015261133091613230565b906001600160a01b031660848a01528881036003190160a48a015261135491613230565b6001600160a01b038a1660c48901528781036003190160e489015261137891613230565b868103600319016101048801528451908181526020019460200190885b818110611bef5750505065ffffffffffff1661012486015261014485015230610164850152306101848501526101a4840152600319838203016101c4840152815180825260208201916020808360051b83010194019286915b838310611bbc57505050505081808492038183885af1801561042157611ba8575b50506001600160a01b036101e08401511615611b33575b61020083015160a08401516040517fdf21a7dd0000000000000000000000000000000000000000000000000000000081526001600160a01b0391821660048201526001870160248201529160209183916044918391165afa9081156104bc578691611af5575b5015611acb576103e060246040516114a381612a67565b60018152602036818301376001600160a01b03610200870151166114c682613097565b526117d160208701516117be65ffffffffffff60c08a01511691604051926114ed84612aec565b83528b60208401528b60408401528b606084015260405161150d81612a18565b8c81528c60208201528c604082015261153b8d6040519061152d82612a67565b815260016020820152614178565b6040519161154883612a4a565b82528d6020830152612710604083015261271060608301528d60808301528d60a08301528d60c08301528d60e08301528d6101008301528d6101208301528d6101408301528d6101608301528d6101808301528d6101a083015260016101c083015260016101e08301528a61020083015261022082015265ffffffffffff6115ef8c8260e06115e582610100850151168360c08601511690614031565b9201511690614031565b6117a5604051936115ff85612b08565b6000855261169c604051986116138a612b08565b60008a526040519d8e9d8e7fb3c5267300000000000000000000000000000000000000000000000000000000815230600482015201528c61040460206116678b5160406103e4860152610424850190613230565b9a0151910152805160448e0152602081015160648e0152604081015160848e0152606001516001600160a01b031660a48d0152565b80518051151560c48d0152602080820151151560e48e015260409182015115156101048e01528201516101248d01528101516101448c015260608101516101648c0152608081015115156101848c015260a081015115156101a48c015260c081015115156101c48c015260e081015115156101e48c015261010081015115156102048c015261012081015115156102248c015261014081015115156102448c015261016081015115156102648c015261018081015115156102848c01526101a081015115156102a48c01526101c081015115156102c48c01526101e081015115156102e48c01526102008101516001600160a01b03166103048c015261022001516103248b0152565b166103448801526003198783030161036488015261311e565b9060031985830301610384860152614049565b600319838203016103a484015260208083519283815201920190895b818110611aa957505050906040827f446566696661206d696e742070686173652e00000000000000000000000000006020848196039260031984016103c48701526012815201520181896001600160a01b037f0000000000000000000000000000000000000000000000000000000000000000165af180156104bc57611a7e575b50846001600160a01b037f000000000000000000000000000000000000000000000000000000000000000016936101a0610180820151910151853b15611a5257604051917fc543882f00000000000000000000000000000000000000000000000000000000835260018801600484015260248301526044820152818160648183895af1801561042157611a6a575b5050813b15611a4e57846040517ff2fde38b000000000000000000000000000000000000000000000000000000008152846004820152818160248183885af1801561042157611a56575b506003547f00000000000000000000000000000000000000000000000000000000000000006001600160a01b0316803b15611a52576040517f5bcfd212000000000000000000000000000000000000000000000000000000008152306004820152602481019290925282908290604490829084905af1801561042157611a3a575b505060035460038101809111611a2657602095506003556001600160a01b036040519116815233858201527f3082991f3dda023098e5849ea3903c6fbfd657dc6f9232f5eb81ad8a7ba161d660406001860192a4600160405191018152f35b602486634e487b7160e01b81526011600452fd5b611a4390612abb565b611a4e5784386119c7565b8480fd5b8280fd5b611a5f90612abb565b611a4e578438611946565b611a7390612abb565b611a4e5784386118fc565b602090813d8311611aa2575b611a948183612b24565b8101031261045b573861186e565b503d611a8a565b82516001600160a01b03168452859450602093840193909201916001016117ed565b60046040517f3727b396000000000000000000000000000000000000000000000000000000008152fd5b90506020813d602011611b2b575b81611b1060209383612b24565b81010312611b2757611b2190612ca8565b3861148c565b8580fd5b3d9150611b03565b6001600160a01b0381163b15611a4e57846040517fc4d66de80000000000000000000000000000000000000000000000000000000081528360048201528181602481836001600160a01b0388165af1801561042157611b94575b5050611426565b611b9d90612abb565b611a4e578438611b8d565b611bb190612abb565b611a4e57843861140f565b91939596509193602080611bdc83601f1986600196030187528951613230565b97019301930190928b96959492936113ee565b91969798509192939460206101606001926101408a516cffffffffffffffffffffffffff815116835263ffffffff80868301511686850152604082015116604084015261ffff60608201511660608401526001600160a01b03608082015116608084015260a081015160a084015262ffffff60c08201511660c084015260e0810151151560e084015261010081015115156101008401526101208101511515610120840152015115156101408201520197019101918d98979695949392611395565b8f80fd5b955093506020853d602011611ce4575b81611cd260209383612b24565b8101031261045b578b94519338611299565b3d9150611cc5565b611d05915060203d6020116104985761048a8183612b24565b38611232565b6040513d85823e3d90fd5b92600101926110f6565b92906064600291049101926110eb565b9290612710600491049101926110e1565b600891949204910192386110d5565b601091949204910192386110c6565b602091949204910192386110b4565b6040945060018d010491503861109b565b9092506020813d602011611dbf575b81611d9b60209383612b24565b81010312611dbb57516001600160a01b0381168103611dbb57913861106c565b8780fd5b3d9150611d8e565b6040513d8a823e3d90fd5b6001600160a01b03611e037f00000000000000000000000000000000000000000000000000000000000000006141f5565b1691611005565b80611e1b60019260808801516130ba565b5169ffffffffffffffffffff60208201511661ffff6040830151166001600160a01b0360608401511660808401519060a085015115159260405194611e5f86612acf565b8552633b9ac9ff60208601528760408601526060850152608084015260a08301528a60c08301528a60e08301526101008201528961012082015283610140820152611eaa83886130ba565b52611eb582876130ba565b5051611ec182866130ba565b52611ecc81856130ba565b5001610fa2565b602081606082601f199488010152019050610f66565b6020601f1991604051611efb81612acf565b89815289838201528960408201528960608201528960808201528960a08201528960c08201528960e0820152896101008201528961012082015289610140820152828288010152019050610f2e565b6005549081156121d557849085905b8082106121ab575050633b9aca0090828204820390828211612197570361216d57611ffa916001600160a01b03610160850151169060405192611f9b84612a9f565b8784528760208501520460408301527f0000000000000000000000000000000000000000000000000000000000000000606083015260808201528460a08201528460c0820152610120830151805191611ff483836130ba565b526130ba565b506120036130ce565b6101208201516040519061201682612a67565b600185018252602082015261202a82613097565b5261203481613097565b5083604051917f2bdfe0040000000000000000000000000000000000000000000000000000000083526020836004816001600160a01b037f0000000000000000000000000000000000000000000000000000000000000000165afa92831561042157829361214c575b506001600160a01b0383163b15612148576001600160a01b039261212591836040519586809581947ff2da44b60000000000000000000000000000000000000000000000000000000083527f0000000000000000000000000000000000000000000000000000000000000000600484015284602484015260606044840152606483019061311e565b0393165af180156107b15715610f025761214190939193612abb565b9138610f02565b5080fd5b61216691935060203d6020116104985761048a8183612b24565b913861209d565b60046040517f48270162000000000000000000000000000000000000000000000000000000008152fd5b602487634e487b7160e01b81526011600452fd5b90916121cd60019160406121c4866101208a01516130ba565b51015190613074565b920190611f59565b602485634e487b7160e01b81526012600452fd5b602483634e487b7160e01b81526011600452fd5b9091506020813d602011612229575b8161221960209383612b24565b81010312611a5257519038610d64565b3d915061220c565b90506020813d60201161226e575b8161224c60209383612b24565b81010312611a525751906001600160a01b0382168203611a5257906020610d1a565b3d915061223f565b60046040517f74f88142000000000000000000000000000000000000000000000000000000008152fd5b5065ffffffffffff610100820151166122db6122c865ffffffffffff60e08501511642613074565b65ffffffffffff60c08501511690613074565b10610cb0565b65ffffffffffff60c08301511615908161233b575b5015610c9b5765ffffffffffff6101008201511661232065ffffffffffff60e08401511642613074565b81039081116121e95765ffffffffffff1660c0820152610c9b565b905061235365ffffffffffff60e08401511642613074565b10386122f6565b60e082360312611a4e5760405161237081612a9f565b61237983612bc2565b815261238760208401612bc2565b602082015260408301356040820152606083013560608201526123ac60808401612a04565b608082015260a0838101359082015260c08301356001600160a01b0381169003611b275760e09160209160c085013560c0820152815201910190610b59565b8380fd5b833567ffffffffffffffff8111611dbb5760c07fffffffffffffffffffffffffffffffffffffffffffffffffffffffffffffffdc8285600435010136030112611dbb576040519061243f82612a83565b67ffffffffffffffff60248286600435010101351161250c5761247036602460043587018401818101350101612b63565b8252600435840181016044013569ffffffffffffffffffff8116900361250c5760043584018101604481013560208401526064013561ffff8116900361250c576024926020926124fa60c484606487968a6004350101013560408501526124df6084828b600435010101612a04565b606085015260043589010160a4810135608085015201612bc2565b60a08201528152019401939050610a6e565b8880fd5b503461012e57602060031936011261012e57604060609161252f612be2565b50600435815260026020522060405161254781612a18565b6001600160a01b03906001828454169384835201549160406020830192828516845201916affffffffffffffffffffff809460a01c1683526040519485525116602084015251166040820152f35b503461012e578060031936011261012e5760206040516001600160a01b037f0000000000000000000000000000000000000000000000000000000000000000168152f35b503461012e5760208060031936011261214857600435908183526002815260408320906040519261260984612a18565b6001600160a01b039360406affffffffffffffffffffff6001878754169687855201548781168685015260a01c169101526040517f975057e70000000000000000000000000000000000000000000000000000000081528281600481875afa80156104bc578592849288926127f4575b5060449060405197889384927fd49031c00000000000000000000000000000000000000000000000000000000084528960048501526024840152165afa9384156104675785946127c5575b50604051927ffc0c546a0000000000000000000000000000000000000000000000000000000084528284600481845afa9384156104bc57869461278c575b509282600494604051958680927f313ce5670000000000000000000000000000000000000000000000000000000082525afa9384156104bc578694612759575b506060955060405194855216908301526040820152f35b9093508281813d8311612785575b6127718183612b24565b81010312611b275760609550519238612742565b503d612767565b93508284813d83116127be575b6127a38183612b24565b81010312611b2757826127b7600495612c01565b9450612702565b503d612799565b9093508181813d83116127ed575b6127dd8183612b24565b81010312611a4e575192386126c4565b503d6127d3565b92839194508092503d831161282c575b61280e8183612b24565b81010312611b2757518481168103611b275784918391906044612679565b503d612804565b503461012e57602060031936011261012e576020612852600435613255565b604051908152f35b503461012e57608060031936011261012e576128746129ee565b506024356001600160a01b0381160361012e5760643567ffffffffffffffff808211611a525736602383011215611a52578160040135908111611a52573691016024011161012e5760206040517f150b7a02000000000000000000000000000000000000000000000000000000008152f35b503461012e578060031936011261012e5760206040517f00000000000000000000000000000000000000000000000000000000000000008152f35b503461012e578060031936011261012e5760206040516001600160a01b037f0000000000000000000000000000000000000000000000000000000000000000168152f35b503461012e57602060031936011261012e57612982600435612e71565b60405190600781101561299757602092508152f35b602483634e487b7160e01b81526021600452fd5b9050346121485781600319360112612148576020906001600160a01b037f0000000000000000000000000000000000000000000000000000000000000000168152f35b600435906001600160a01b038216820361045b57565b35906001600160a01b038216820361045b57565b6060810190811067ffffffffffffffff821117612a3457604052565b634e487b7160e01b600052604160045260246000fd5b610240810190811067ffffffffffffffff821117612a3457604052565b6040810190811067ffffffffffffffff821117612a3457604052565b60c0810190811067ffffffffffffffff821117612a3457604052565b60e0810190811067ffffffffffffffff821117612a3457604052565b67ffffffffffffffff8111612a3457604052565b610160810190811067ffffffffffffffff821117612a3457604052565b6080810190811067ffffffffffffffff821117612a3457604052565b6020810190811067ffffffffffffffff821117612a3457604052565b90601f601f19910116810190811067ffffffffffffffff821117612a3457604052565b67ffffffffffffffff8111612a3457601f01601f191660200190565b81601f8201121561045b57803590612b7a82612b47565b92612b886040519485612b24565b8284526020838301011161045b57816000926020809301838601378301015290565b67ffffffffffffffff8111612a345760051b60200190565b3590811515820361045b57565b359065ffffffffffff8216820361045b57565b60405190612bef82612a18565b60006040838281528260208201520152565b51906001600160a01b038216820361045b57565b809291610120918291031261045b5760405190810181811067ffffffffffffffff821117612a34576040528092805182526020810151602083015260408101516040830152606081015160608301526080810151608083015260a081015160a083015260c081015160c083015260e08101516001600160a01b038116810361045b5760e083015261010080910151910152565b5190811515820361045b57565b80820392916103a0841261045b57612cee7ffffffffffffffffffffffffffffffffffffffffffffffffffffffffffffffee09183612c15565b9301906102809081831261045b57606060405193612d0b85612a4a565b1261045b57604051612d1c81612a18565b61012090612d2b838301612ca8565b815261014090612d3c848301612ca8565b602082015261016090612d50858301612ca8565b604082015286526101808085015160208801526101a0908186015160408901526101c0928387015160608a01526101e094858801612d8d90612ca8565b60808b015261020096612da1898901612ca8565b60a08c015261022099612db58a8c01612ca8565b60c08d0152612dc76102408b01612ca8565b60e08d0152612dd96102608b01612ca8565b6101008d01528901612dea90612ca8565b908b0152612dfb6102a08901612ca8565b908a0152612e0c6102c08801612ca8565b90890152612e1d6102e08701612ca8565b90880152612e2e6103008601612ca8565b90870152612e3f6103208501612ca8565b90860152612e506103408401612ca8565b90850152612e616103608301612c01565b9084015261038001519082015290565b604080517f8776c4990000000000000000000000000000000000000000000000000000000081528260048201526103a0906001600160a01b03938282602481887f0000000000000000000000000000000000000000000000000000000000000000165afa91821561304a576000938493613016575b50508251801561300b5760011461300157806000526020926004845260ff856000205416612ff657612f1881836140bd565b612feb57516002149081612fca575b50612fc15760049361020083920151168351948580927fa8c15f4a0000000000000000000000000000000000000000000000000000000082525afa918215612fb75750600091612f83575b509050612f7e57600390565b600490565b82813d8311612fb0575b612f978183612b24565b8101031261012e5750612fa990612ca8565b8038612f72565b503d612f8d565b513d6000823e3d90fd5b50505050600290565b90506000526001825265ffffffffffff836000205460301c16151538612f27565b505050505050600590565b505050505050600690565b5050505050600190565b505050505050600090565b809192945061303a9350903d10613043575b6130328183612b24565b810190612cb5565b90913880612ee6565b503d613028565b84513d6000823e3d90fd5b9081602091031261045b57516001600160a01b038116810361045b5790565b9190820180921161308157565b634e487b7160e01b600052601160045260246000fd5b8051156130a45760200190565b634e487b7160e01b600052603260045260246000fd5b80518210156130a45760209160051b010190565b6040908151916130dd83612a67565b600183528291600091825b6020808210156131155782516020929161310182612a67565b8682526060818301528289010152016130e8565b50505091925050565b908082519081815260208091019281808460051b830101950193600080925b85841061314e575050505050505090565b9091929387601f19838398999a0301855288519060408381830193805184520151928185840152835180915284606080940194019287925b8284106131a8575050505050908060019299019401940192959493919061313d565b91939560e06001929496885180511515825283810151151584830152858101518683015286810151878301526001600160a01b0360808181840151169084015260a0808301519084015260c08092015116908201520196019401918a95949391613186565b60005b8381106132205750506000910152565b8181015183820152602001613210565b90601f19601f60209361324e8151809281875287808801910161320d565b0116010190565b604051907f8776c4990000000000000000000000000000000000000000000000000000000082528060048301526103a0826024816001600160a01b037f0000000000000000000000000000000000000000000000000000000000000000165afa9182156136fc57600090819361400b575b5081600052600460205260ff604060002054168015613fff575b613fd5576132ee81836140bd565b613d99576040517f12b37b140000000000000000000000000000000000000000000000000000000081528260048201526103a0816024816001600160a01b037f0000000000000000000000000000000000000000000000000000000000000000165afa9081156136fc57600091613d77575b5060208083015191015103613d4d575160011480613d2b575b156137085760209060406001600160a01b036102008095015116826000526001845281600020948251956133ac87612a18565b54958365ffffffffffff8089168352808960301c1698898985015260601c169101528251956133da87612aec565b8652600085870152600083870152600060608701528251916133fb83612a18565b60008352600086840152600084840152613428845161341981612a67565b60008152600188820152614178565b9184519361343585612a4a565b84526000878501526127108086860152606085015260016080850152600060a0850152600060c0850152600060e08501526000610100850152600061012085015260006101408501526000610160850152600061018085015260006101a085015260016101c085015260016101e08501528301526102208201527f44656669666120726566756e642070686173652e0000000000000000000000008461367961366585516134e281612b08565b600081526136498751966134f588612b08565b6000885261354189519c8d9b63175b7be560e31b8d5260048d015260248c01906001600160a01b0360608092805185526020810151602086015260408101516040860152015116910152565b80518051151560a48c0152602080820151151560c48d0152604091820151151560e48d01528201516101048c01528101516101248b015260608101516101448b0152608081015115156101648b015260a081015115156101848b015260c081015115156101a48b015260e081015115156101c48b015261010081015115156101e48b015261012081015115156102048b015261014081015115156102248b015261016081015115156102448b015261018081015115156102648b01526101a081015115156102848b01526101c081015115156102a48b01526101e081015115156102c48b01526102008101516001600160a01b03166102e48b015261022001516103048a0152565b60006103248901526103a06103448901526103a488019061311e565b600319948588830301610364890152614049565b858103938401610384870152601481520152018160006001600160a01b037f0000000000000000000000000000000000000000000000000000000000000000165af19081156136fc576000916136cd575090565b906020823d6020116136f4575b816136e760209383612b24565b8101031261012e57505190565b3d91506136da565b6040513d6000823e3d90fd5b906102006001600160a01b03910151169080600052600260205260406000206affffffffffffffffffffff60016040519261374284612a18565b6001600160a01b03815416845201546001600160a01b038116602084015260a01c1660408201526040519061377682612a67565b6001825260005b60208110613cea57506001600160a01b038151166001600160a01b036020830151166affffffffffffffffffffff604084015116604051917f1982d679000000000000000000000000000000000000000000000000000000008352806004840152602083602481875afa9283156136fc57600093613cb6575b506040519361380485612a83565b845260208401526040830152606082015260006080820152600060a082015261382c83613097565b5261383682613097565b506040517f2bdfe0040000000000000000000000000000000000000000000000000000000081526020816004816001600160a01b037f0000000000000000000000000000000000000000000000000000000000000000165afa9081156136fc576001600160a01b03916000918291613c97575b506064604051809481937f69e11cc50000000000000000000000000000000000000000000000000000000083527f00000000000000000000000000000000000000000000000000000000000000006004840152856024840152896044840152165afa9081156136fc57600091613b44575b50917f4465666966612073636f72696e672070686173652e00000000000000000000006020613ad4613665604095839897600081511515600014613b2e57506001600160a01b038561396a6130ce565b9301511661eeee8103613b2857506001905b88519161398883612a67565b82528582015261399782613097565b526139a181613097565b505b61364987519a6139b28c612aec565b60008c526000868d01526000898d0152600060608d01528851906139d582612a18565b6000825260008783015260008a830152613a028a516139f381612a67565b60008152600089820152614178565b908a5192613a0f84612a4a565b8352600088840152612710808c850152606084015260016080840152600060a0840152600060c0840152600060e08401526000610100840152600061012084015260006101408401526000610160840152600061018084015260006101a084015260016101c084015260016101e084015261020083015261022082015261354189519c8d9b63175b7be560e31b8d5260048d015260248c01906001600160a01b0360608092805185526020810151602086015260408101516040860152015116910152565b858103938401610384870152601581520152018160006001600160a01b037f0000000000000000000000000000000000000000000000000000000000000000165af19081156136fc576000916136cd575090565b9061397c565b915050865190613b3d82612b08565b81526139a3565b903d8082843e613b548184612b24565b60208382810103126121485782519167ffffffffffffffff831161012e57818401601f84860101121561012e578284015191613b8f83612baa565b94613b9d6040519687612b24565b8386526020860194828201602060e087028385010101116123eb57602081830101955b602060e0870283850101018710613c0057507f4465666966612073636f72696e672070686173652e0000000000000000000000955061391a945050505050565b60e0878585010312611a4e57604051613c1881612a9f565b613c2188612ca8565b8152613c2f60208901612ca8565b6020820152604088015160408201526060880151606082015260808801516001600160a01b038116810361078557608082015260a088015160a082015260c08801516001600160a01b03811681036107855760c0820152815260e09690960195602001613bc0565b613cb0915060203d6020116104985761048a8183612b24565b386138a9565b90926020823d602011613ce2575b81613cd160209383612b24565b8101031261012e57505191386137f6565b3d9150613cc4565b602090604051613cf981612a83565b60008152600083820152600060408201526000606082015260006080820152600060a08201528282860101520161377d565b5080600052600160205265ffffffffffff60406000205460301c161515613379565b60046040517f11f43385000000000000000000000000000000000000000000000000000000008152fd5b613d9291506103a03d6103a011613043576130328183612b24565b5038613360565b5060206135419260406001600160a01b036102008093015116815192613dbe84612aec565b6000845260008585015260008385015260006060850152825191613de183612a18565b60008352600086840152600084840152613dff845161341981612a67565b91845193613e0c85612a4a565b84526000878501526127108086860152606085015260016080850152600060a0850152600060c0850152600060e08501526000610100850152600061012085015260006101408501526000610160850152600061018085015260006101a085015260016101c085015260016101e08501528301526102208201527f446566696661206e6f20636f6e746573742e000000000000000000000000000084613f166136658551613eb981612b08565b60008152613649875196613ecc88612b08565b6000885288519c8d9a63175b7be560e31b8c528d60048d015260248c01906001600160a01b0360608092805185526020810151602086015260408101516040860152015116910152565b858103938401610384870152601281520152018160006001600160a01b037f0000000000000000000000000000000000000000000000000000000000000000165af19182156136fc57600092613fa1575b506000526004602052604060002060017fffffffffffffffffffffffffffffffffffffffffffffffffffffffffffffff0082541617905590565b90916020823d602011613fcd575b81613fbc60209383612b24565b8101031261012e5750519038613f67565b3d9150613faf565b60046040517fdc7a2515000000000000000000000000000000000000000000000000000000008152fd5b506080810151156132e0565b90506140299192506103a03d6103a011613043576130328183612b24565b9190386132c6565b65ffffffffffff918216908216039190821161308157565b90815180825260208080930193019160005b828110614069575050505090565b835180516001600160a01b03908116875281840151168684015260408082015190870152606080820151908701526080808201519087015260a0908101519086015260c0909401939281019260010161405b565b906040810151604051927fa40bb9c7000000000000000000000000000000000000000000000000000000008452600484015260248301526103a09182816044816001600160a01b037f0000000000000000000000000000000000000000000000000000000000000000165afa9283156136fc57600093614158575b50505190519060018201809211613081570361415357600090565b600190565b61416f929350803d10613043576130328183612b24565b50903880614138565b906000918051614194575b6020015161418d57565b9060021790565b60019250614183565b6001600160a01b036000541633036141b157565b606460405162461bcd60e51b815260206004820152602060248201527f4f776e61626c653a2063616c6c6572206973206e6f7420746865206f776e65726044820152fd5b6e5af43d82803e903d91602b57fd5bf390763d602d80600a3d3981f3363d3d373d3d3d363d7300000062ffffff8260881c161760005260781b17602052603760096000f0906001600160a01b0382161561424b57565b606460405162461bcd60e51b815260206004820152601660248201527f455243313136373a20637265617465206661696c6564000000000000000000006044820152fdfea26469706673582212204119b038badd394bc3852784608c0f9961cc3ca611f1042d70b4270e0277a18b64736f6c63430008140033",
    "linkReferences": {}
  },
  "methodIdentifiers": {
    "SPLIT_DOMAIN()": "ff16a2f2",
    "ballkidzProjectId()": "0d75b3aa",
    "changeFee(uint256)": "6a1db1bf",
    "claimProtocolProjectToken()": "ca449a25",
    "controller()": "f77c4791",
    "currentGamePhaseOf(uint256)": "0715610a",
    "currentGamePotOf(uint256)": "3af76f34",
    "delegateCodeOrigin()": "06b552b5",
    "delegatesRegistry()": "d574ff04",
    "distributionOpsOf(uint256)": "53292c68",
    "feeDivisor()": "9a36f932",
    "governor()": "0c340a24",
    "launchGameWith((string,(string,uint256),string,string,(string,uint80,uint16,address,bytes32,bool)[],address,uint48,uint48,uint48,(bool,bool,uint256,uint256,address,uint256,address)[],uint88,address,uint256,uint256,address,address,address,address))": "5dc1a1d0",
    "nextPhaseNeedsQueueing(uint256)": "81312a14",
    "onERC721Received(address,address,uint256,bytes)": "150b7a02",
    "owner()": "8da5cb5b",
    "protocolFeeProjectTokenAccount()": "3f3090d9",
    "queueNextPhaseOf(uint256)": "1c069dbb",
    "renounceOwnership()": "715018a6",
    "timesFor(uint256)": "b07925d3",
    "tokenUriResolverCodeOrigin()": "80f07954",
    "transferOwnership(address)": "f2fde38b"
  },
  "id": 1
}