{
  "abi": [
    {
      "inputs": [
        {
          "internalType": "address",
          "name": "_delegateCodeOrigin",
          "type": "address"
        },
        {
          "internalType": "address",
          "name": "_governorCodeOrigin",
          "type": "address"
        },
        {
          "internalType": "address",
          "name": "_tokenUriResolverCodeOrigin",
          "type": "address"
        },
        {
          "internalType": "contract IJBController3_1",
          "name": "_controller",
          "type": "address"
        },
        {
          "internalType": "address",
          "name": "_protocolFeeProjectTokenAccount",
          "type": "address"
        },
        {
          "internalType": "contract IJBDelegatesRegistry",
          "name": "_delegatesRegistry",
          "type": "address"
        }
      ],
      "stateMutability": "nonpayable",
      "type": "constructor"
    },
    {
      "inputs": [],
      "name": "GAME_OVER",
      "type": "error"
    },
    {
      "inputs": [],
      "name": "INVALID_GAME_CONFIGURATION",
      "type": "error"
    },
    {
      "inputs": [],
      "name": "PHASE_ALREADY_QUEUED",
      "type": "error"
    },
    {
      "inputs": [],
      "name": "UNEXPECTED_TERMINAL_CURRENCY",
      "type": "error"
    },
    {
      "inputs": [],
      "name": "BALLKIDZ_PROJECT_ID",
      "outputs": [
        {
          "internalType": "uint256",
          "name": "",
          "type": "uint256"
        }
      ],
      "stateMutability": "view",
      "type": "function"
    },
    {
      "inputs": [],
      "name": "SPLIT_DOMAIN",
      "outputs": [
        {
          "internalType": "uint256",
          "name": "",
          "type": "uint256"
        }
      ],
      "stateMutability": "view",
      "type": "function"
    },
    {
      "inputs": [],
      "name": "claimProtocolProjectToken",
      "outputs": [],
      "stateMutability": "nonpayable",
      "type": "function"
    },
    {
      "inputs": [],
      "name": "controller",
      "outputs": [
        {
          "internalType": "contract IJBController3_1",
          "name": "",
          "type": "address"
        }
      ],
      "stateMutability": "view",
      "type": "function"
    },
    {
      "inputs": [
        {
          "internalType": "uint256",
          "name": "_gameId",
          "type": "uint256"
        }
      ],
      "name": "currentGamePhaseOf",
      "outputs": [
        {
          "internalType": "uint256",
          "name": "",
          "type": "uint256"
        }
      ],
      "stateMutability": "view",
      "type": "function"
    },
    {
      "inputs": [],
      "name": "delegateCodeOrigin",
      "outputs": [
        {
          "internalType": "address",
          "name": "",
          "type": "address"
        }
      ],
      "stateMutability": "view",
      "type": "function"
    },
    {
      "inputs": [],
      "name": "delegatesRegistry",
      "outputs": [
        {
          "internalType": "contract IJBDelegatesRegistry",
          "name": "",
          "type": "address"
        }
      ],
      "stateMutability": "view",
      "type": "function"
    },
    {
      "inputs": [
        {
          "internalType": "uint256",
          "name": "_gameId",
          "type": "uint256"
        }
      ],
      "name": "distributionLimit",
      "outputs": [
        {
          "internalType": "uint256",
          "name": "",
          "type": "uint256"
        }
      ],
      "stateMutability": "view",
      "type": "function"
    },
    {
      "inputs": [
        {
          "internalType": "uint256",
          "name": "_gameId",
          "type": "uint256"
        }
      ],
      "name": "endOf",
      "outputs": [
        {
          "internalType": "uint256",
          "name": "",
          "type": "uint256"
        }
      ],
      "stateMutability": "view",
      "type": "function"
    },
    {
      "inputs": [],
      "name": "governorCodeOrigin",
      "outputs": [
        {
          "internalType": "address",
          "name": "",
          "type": "address"
        }
      ],
      "stateMutability": "view",
      "type": "function"
    },
    {
      "inputs": [
        {
          "components": [
            {
              "internalType": "string",
              "name": "name",
              "type": "string"
            },
            {
              "components": [
                {
                  "internalType": "string",
                  "name": "content",
                  "type": "string"
                },
                {
                  "internalType": "uint256",
                  "name": "domain",
                  "type": "uint256"
                }
              ],
              "internalType": "struct JBProjectMetadata",
              "name": "projectMetadata",
              "type": "tuple"
            },
            {
              "internalType": "string",
              "name": "contractUri",
              "type": "string"
            },
            {
              "internalType": "string",
              "name": "baseUri",
              "type": "string"
            },
            {
              "components": [
                {
                  "internalType": "uint80",
                  "name": "price",
                  "type": "uint80"
                },
                {
                  "internalType": "uint16",
                  "name": "reservedRate",
                  "type": "uint16"
                },
                {
                  "internalType": "address",
                  "name": "reservedTokenBeneficiary",
                  "type": "address"
                },
                {
                  "internalType": "uint8",
                  "name": "royaltyRate",
                  "type": "uint8"
                },
                {
                  "internalType": "address",
                  "name": "royaltyBeneficiary",
                  "type": "address"
                },
                {
                  "internalType": "bytes32",
                  "name": "encodedIPFSUri",
                  "type": "bytes32"
                },
                {
                  "internalType": "bool",
                  "name": "shouldUseReservedTokenBeneficiaryAsDefault",
                  "type": "bool"
                },
                {
                  "internalType": "string",
                  "name": "name",
                  "type": "string"
                }
              ],
              "internalType": "struct DefifaTierParams[]",
              "name": "tiers",
              "type": "tuple[]"
            },
            {
              "internalType": "address",
              "name": "token",
              "type": "address"
            },
            {
              "internalType": "uint48",
              "name": "mintDuration",
              "type": "uint48"
            },
            {
              "internalType": "uint48",
              "name": "refundPeriodDuration",
              "type": "uint48"
            },
            {
              "internalType": "uint48",
              "name": "start",
              "type": "uint48"
            },
            {
              "internalType": "uint48",
              "name": "end",
              "type": "uint48"
            },
            {
              "components": [
                {
                  "internalType": "bool",
                  "name": "preferClaimed",
                  "type": "bool"
                },
                {
                  "internalType": "bool",
                  "name": "preferAddToBalance",
                  "type": "bool"
                },
                {
                  "internalType": "uint256",
                  "name": "percent",
                  "type": "uint256"
                },
                {
                  "internalType": "uint256",
                  "name": "projectId",
                  "type": "uint256"
                },
                {
                  "internalType": "address payable",
                  "name": "beneficiary",
                  "type": "address"
                },
                {
                  "internalType": "uint256",
                  "name": "lockedUntil",
                  "type": "uint256"
                },
                {
                  "internalType": "contract IJBSplitAllocator",
                  "name": "allocator",
                  "type": "address"
                }
              ],
              "internalType": "struct JBSplit[]",
              "name": "splits",
              "type": "tuple[]"
            },
            {
              "internalType": "uint88",
              "name": "distributionLimit",
              "type": "uint88"
            },
            {
              "internalType": "address payable",
              "name": "ballkidzFeeProjectTokenAccount",
              "type": "address"
            },
            {
              "internalType": "uint256",
              "name": "votingPeriod",
              "type": "uint256"
            },
            {
              "internalType": "contract IJBPaymentTerminal",
              "name": "terminal",
              "type": "address"
            },
            {
              "internalType": "contract IJBTiered721DelegateStore",
              "name": "store",
              "type": "address"
            }
          ],
          "internalType": "struct DefifaLaunchProjectData",
          "name": "_launchProjectData",
          "type": "tuple"
        }
      ],
      "name": "launchGameWith",
      "outputs": [
        {
          "internalType": "uint256",
          "name": "gameId",
          "type": "uint256"
        },
        {
          "internalType": "contract IDefifaGovernor",
          "name": "governor",
          "type": "address"
        }
      ],
      "stateMutability": "nonpayable",
      "type": "function"
    },
    {
      "inputs": [
        {
          "internalType": "uint256",
          "name": "_gameId",
          "type": "uint256"
        }
      ],
      "name": "mintDurationOf",
      "outputs": [
        {
          "internalType": "uint256",
          "name": "",
          "type": "uint256"
        }
      ],
      "stateMutability": "view",
      "type": "function"
    },
    {
      "inputs": [
        {
          "internalType": "uint256",
          "name": "_gameId",
          "type": "uint256"
        }
      ],
      "name": "nextPhaseNeedsQueueing",
      "outputs": [
        {
          "internalType": "bool",
          "name": "",
          "type": "bool"
        }
      ],
      "stateMutability": "view",
      "type": "function"
    },
    {
      "inputs": [
        {
          "internalType": "address",
          "name": "",
          "type": "address"
        },
        {
          "internalType": "address",
          "name": "",
          "type": "address"
        },
        {
          "internalType": "uint256",
          "name": "",
          "type": "uint256"
        },
        {
          "internalType": "bytes",
          "name": "",
          "type": "bytes"
        }
      ],
      "name": "onERC721Received",
      "outputs": [
        {
          "internalType": "bytes4",
          "name": "",
          "type": "bytes4"
        }
      ],
      "stateMutability": "pure",
      "type": "function"
    },
    {
      "inputs": [],
      "name": "protocolFeeProjectTokenAccount",
      "outputs": [
        {
          "internalType": "address",
          "name": "",
          "type": "address"
        }
      ],
      "stateMutability": "view",
      "type": "function"
    },
    {
      "inputs": [
        {
          "internalType": "uint256",
          "name": "_gameId",
          "type": "uint256"
        }
      ],
      "name": "queueNextPhaseOf",
      "outputs": [
        {
          "internalType": "uint256",
          "name": "configuration",
          "type": "uint256"
        }
      ],
      "stateMutability": "nonpayable",
      "type": "function"
    },
    {
      "inputs": [
        {
          "internalType": "uint256",
          "name": "_gameId",
          "type": "uint256"
        }
      ],
      "name": "refundPeriodDurationOf",
      "outputs": [
        {
          "internalType": "uint256",
          "name": "",
          "type": "uint256"
        }
      ],
      "stateMutability": "view",
      "type": "function"
    },
    {
      "inputs": [
        {
          "internalType": "uint256",
          "name": "_gameId",
          "type": "uint256"
        }
      ],
      "name": "startOf",
      "outputs": [
        {
          "internalType": "uint256",
          "name": "",
          "type": "uint256"
        }
      ],
      "stateMutability": "view",
      "type": "function"
    },
    {
      "inputs": [
        {
          "internalType": "uint256",
          "name": "_gameId",
          "type": "uint256"
        }
      ],
      "name": "terminalOf",
      "outputs": [
        {
          "internalType": "contract IJBPaymentTerminal",
          "name": "",
          "type": "address"
        }
      ],
      "stateMutability": "view",
      "type": "function"
    },
    {
      "inputs": [
        {
          "internalType": "uint256",
          "name": "_gameId",
          "type": "uint256"
        }
      ],
      "name": "timesFor",
      "outputs": [
        {
          "components": [
            {
              "internalType": "uint48",
              "name": "mintDuration",
              "type": "uint48"
            },
            {
              "internalType": "uint48",
              "name": "refundPeriodDuration",
              "type": "uint48"
            },
            {
              "internalType": "uint48",
              "name": "start",
              "type": "uint48"
            },
            {
              "internalType": "uint48",
              "name": "end",
              "type": "uint48"
            }
          ],
          "internalType": "struct DefifaTimeData",
          "name": "",
          "type": "tuple"
        }
      ],
      "stateMutability": "view",
      "type": "function"
    },
    {
      "inputs": [],
      "name": "tokenUriResolverCodeOrigin",
      "outputs": [
        {
          "internalType": "address",
          "name": "",
          "type": "address"
        }
      ],
      "stateMutability": "view",
      "type": "function"
    }
  ],
  "bytecode": {
    "object": "0x610140346200017457601f620037aa38819003918201601f19168301916001600160401b03831184841017620001795780849260c09460405283398101031262000174576200004e816200018f565b6200005c602083016200018f565b6200006a604084016200018f565b60608401516001600160a01b03939092908484168403620001745760a062000095608088016200018f565b9601519485168503620001745760805260a05260c05260e052610100918252610120908152604051906136059283620001a58439608051838181610ae40152612257015260a05183818161011d01526111f6015260c051838181610b170152611f97015260e05183818161018101528181610224015281816107a801528181610b5301528181610cd3015281816111bb015281816118fe01528181611dce01528181612178015281816129300152818161299301528181612bd50152612d750152518281816102e3015261200f0152518181816101c601526112a40152f35b600080fd5b634e487b7160e01b600052604160045260246000fd5b51906001600160a01b0382168203620001745756fe608080604052600436101561001357600080fd5b600090813560e01c9081630589d292146122865750806306b552b5146122415780630715610a146121475780631109fff214612113578063150b7a021461209d5780631c069dbb1461207657806327655cfd1461203e5780633f3090d914611ff95780634fe0eced14611fc657806380f0795414611f8157806381312a1414611da1578063af9fbd1914611d84578063b07925d314611ce6578063b41e7f4714611cb2578063b965933e14611c7e578063c47c437c146103d2578063ca449a25146101f5578063d574ff04146101b0578063f77c47911461016b578063ff16a2f21461014f5763ff2a43cc1461010857600080fd5b3461014c578060031936011261014c576040517f00000000000000000000000000000000000000000000000000000000000000006001600160a01b03168152602090f35b80fd5b503461014c578060031936011261014c57602090604051908152f35b503461014c578060031936011261014c576040517f00000000000000000000000000000000000000000000000000000000000000006001600160a01b03168152602090f35b503461014c578060031936011261014c576040517f00000000000000000000000000000000000000000000000000000000000000006001600160a01b03168152602090f35b503461014c578060031936011261014c57604051630619306360e41b80825282916001600160a01b03906020907f00000000000000000000000000000000000000000000000000000000000000008316908281600481855afa9081156103c7578391859188916103aa575b50169460046040518094819382525afa9081156103725783918391879161037d575b50604460405180948193635287af3760e01b835230600484015260016024840152165afa91821561037257859261033c575b5050823b15610337576084849283604051958694859363ac689bcd60e01b8552306004860152600160248601527f000000000000000000000000000000000000000000000000000000000000000016604485015260648401525af1801561032c5761031c5750f35b61032590612366565b61014c5780f35b6040513d84823e3d90fd5b505050fd5b8195508092503d831161036b575b61035481836123e7565b810103126103665783925138806102b4565b600080fd5b503d61034a565b6040513d87823e3d90fd5b61039d9150823d84116103a3575b61039581836123e7565b8101906124a3565b38610282565b503d61038b565b6103c19150833d85116103a35761039581836123e7565b38610260565b6040513d88823e3d90fd5b503461014c57602036600319011261014c576001600160401b036004351161014c576102006004353603600319011261014c5760405161020081016001600160401b03811182821017611c6a576040526004803501356001600160401b03811161135657610447906004369181350101612425565b8152600435602401356001600160401b038111611356576004350160406003198236030112611356576040519061047d826122f9565b6004810135906001600160401b03821161142a576104a360249260043691840101612425565b83520135602080830191909152820152600435604401356001600160401b038111611356576104d9906004369181350101612425565b6040820152600435606401356001600160401b03811161135657610504906004369181350101612425565b6060820152600435608401356001600160401b0381116113565736602382600435010112156113565761053d600482813501013561246c565b9061054b60405192836123e7565b600480358201908101358084526020840192913660059290921b016024011161142a576024816004350101915b6004803583019081013560051b016024018310611b385750505060808201526105a560a4600435016122b4565b60a08201526105b860c460043501612490565b60c08201526105cb60e460043501612490565b60e08201526105df61010460043501612490565b6101008201526105f461012460043501612490565b6101208201526001600160401b0360043561014401351161136e573660043561014481013501602301121561136e576106386004803561014481013501013561246c565b61064560405191826123e7565b60048035610144810135019081013580835260208301913660e090920201602401116113915760043561014481013501602401905b60048035610144810135019081013560e002016024018210611aa757505061014082015260043561016401356001600160581b038116900361136e5761016460043501356101608201526106d3610184600435016122b4565b6101808201526004356101a48101356101a08301526101c401356001600160a01b038116900361136e576004356101c48101356101c08301526101e401356001600160a01b038116900361136e576101e460043501356101e082015265ffffffffffff6101008201511615611a93575b61077d61076a65ffffffffffff6101008401511665ffffffffffff60e08501511690612553565b65ffffffffffff60c08401511690612553565b65ffffffffffff429116108015611a70575b611a5e576040516322de550f60e21b81526020816004817f00000000000000000000000000000000000000000000000000000000000000006001600160a01b03165afa908115611386578391611a19575b506040516306661abd60e01b81529190602090839060049082906001600160a01b03165afa9182156113865783926119e5575b506001820182116119d15765ffffffffffff60c08201511665ffffffffffff60e08301511665ffffffffffff6101008401511665ffffffffffff610120850151169060405193610862856122c8565b84526020840192835260408401908152606084019182526001860187528660205265ffffffffffff6040882094511684549365ffffffffffff60301b905160301b169165ffffffffffff60601b905160601b169265ffffffffffff60901b905160901b169360018060c01b03191617171717905560018060a01b036101c08201511660018060581b03610160830151166001808060a01b0360a085015116926040519061090e8261234b565b815260208101938452604081019283528186018752816020526040872090828060a01b03905116828060a01b0319825416178155019160018060a01b03905116825491600160a01b600160f81b03905160a01b169160ff60f81b161717905561014081015151611848575b6080810151516109888161246c565b9061099660405192836123e7565b808252601f196109a58261246c565b01855b8181106117d7575050608083015151906109da6109c48361246c565b926109d260405194856123e7565b80845261246c565b865b601f19820181106117c6575050606060e06040516109f981612314565b88815288602082015288604082015288838201528860808201528860a08201528860c08201520152855b8181106116dc5750506101c083015160a0840151604051631982d67960e01b81526001600160a01b0391821660048201529160209183916024918391165afa9081156103c75786916116aa575b506101c084015160a085015160405163b7bad1b160e01b81526001600160a01b039182166004820152929160209184916024918391165afa91821561169f57879261166b575b5060405193610ac4856122c8565b845260208401526040830152606082018590526001600160a01b03610b087f000000000000000000000000000000000000000000000000000000000000000061353b565b16916001600160a01b03610b3b7f000000000000000000000000000000000000000000000000000000000000000061353b565b6040516331070bc960e21b81529116916020826004817f00000000000000000000000000000000000000000000000000000000000000006001600160a01b03165afa918215611660578892611618575b50855188908160018a018072184f03e93ff9f4daa797ed6e38ed64bf6a1f0160401b80821015611607575b506904ee2d6d415b85acef8160201b808310156115f8575b50662386f26fc10000808310156115e9575b506305f5e100808310156115da575b506127108210156115c9575b60648210156115b9575b600a809210156115af575b8160216001870196610c3a610c248961240a565b98610c326040519a8b6123e7565b808a5261240a565b602089019690601f1901368837508701015b60001901916f181899199a1a9b1b9c1cb0b131b232b360811b8282061a835304908d8215610c7c57508290610c4c565b959050610cbe925060279150610cae936040519485926602222a324a320960cd1b6020850152518092858501906126f9565b81010360078101845201826123e7565b60405163557e715560e01b81526020816004817f00000000000000000000000000000000000000000000000000000000000000006001600160a01b03165afa9081156115a4578491611585575b5060608a01519060408b01519260018060a01b036101e08d0151169460405196610d34886122c8565b8088528060208901526040880152600160608801528b3b156115815760405163d1704baf60e01b815260018f0160048201526001600160a01b0390991660248a01526101c060448a01528e989796959493929190610d97906101c48a019061271c565b8881036003190160648a0152610dac9161271c565b6001600160a01b0390911660848801528681036003190160a4880152610dd19161271c565b8760c48701526003198682030160e4870152610dec9161271c565b600319858203016101048601528351936080825260808201855180915260a083019560200190885b81811061149557505050859384938896936060846020829601516020840152604081015160408401528160018060a01b0391015116910152610124850152805115156101448501526020810151151561016485015260408101511515610184850152015115156101a4830152038183895af1801561032c57611481575b5050803b1561147d57908591604051916394e6f56f60e01b8352604483018560048501526040602485015281518091526064840190602060648260051b87010193019186905b82821061144a57505050508391838381809403925af1801561032c57611436575b50506101c082015160a083015160405163df21a7dd60e01b81529160209183916001600160a01b039081169183918291610f3b9160018c0191166004840161274e565b03915afa9081156103725785916113f8575b50156113e65783906024604051610f63816122f9565b60018152602036818301376101c08501516001600160a01b0316610f86826125d1565b52611154602086015161114165ffffffffffff60c0890151169160405192610fad846122c8565b8352876020840152876040840152876060840152604051610fcd8161234b565b888152886020820152886040820152610ffa604051610feb816122f9565b8a815260016020820152613516565b6040519161100783612395565b8252896020830152612710604083015261271060608301528960808301528960a08301528960c08301528960e08301528961010083015289610120830152896101408301528961016083015289610180830152896101a083015260016101c083015260016101e08301528861020083015261022082015265ffffffffffff6110ae8b8260e06110a482610100850151168360c08601511690612553565b9201511690612553565b611128604051936110be856123cc565b6000855261111e604051986110d28a6123cc565b60008a526103e06040519d8e63b3c5267360e01b815230600482015201528c610404602061110e8b5160406103e486015261042485019061271c565b9a015191015260448d0190613374565b60c48b01906133a0565b1661034488015286820360031901610364880152612608565b84810360031901610384860152906134a2565b600319838203016103a484015260208083519283815201920190855b8181106113c45750505081810360031981016103c484015260148252732232b334b3309033b0b6b290383430b9b290189760611b602092830152829060400181866001600160a01b037f0000000000000000000000000000000000000000000000000000000000000000165af1801561138657611395575b506001600160a01b0361121a7f000000000000000000000000000000000000000000000000000000000000000061353b565b16926101a065ffffffffffff61012083015116910151843b156113915760405191633d0d630f60e11b835283600484015260248301526044820152828160648183885af1908115611386578391611372575b5050803b1561136e5781809160246040518094819363f2fde38b60e01b83528860048401525af1801561032c5761135a575b506002547f00000000000000000000000000000000000000000000000000000000000000006001600160a01b0316803b1561135657604051632de7e90960e11b815291839183918290849082906112f990306004840161274e565b03925af1801561032c57611342575b50506002546003810180911161132e576040935060025560018351920182526020820152f35b634e487b7160e01b84526011600452602484fd5b61134b90612366565b611356578238611308565b8280fd5b61136390612366565b61135657823861129e565b5080fd5b61137b90612366565b61136e57813861126c565b6040513d85823e3d90fd5b8380fd5b6020809293503d83116113bd575b6113ad81836123e7565b81010312610366578390386111e8565b503d6113a3565b82516001600160a01b0316845289965060209384019390920191600101611170565b604051631b93d9cb60e11b8152600490fd5b90506020813d60201161142e575b81611413602093836123e7565b8101031261142a5761142490612741565b38610f4d565b8480fd5b3d9150611406565b61143f90612366565b611391578338610ef8565b91936001919395969750602061146b81926063198b8203018652885161271c565b9601920192018a969594939192610ed7565b8580fd5b61148a90612366565b61147d578538610e91565b91979850919293949560206101c06001926101a08b51858060501b03815116835265ffffffffffff85820151168584015264ffffffffff604082015116604084015261ffff8060608301511660608501526080820151166080840152858060a01b0360a08201511660a084015260ff8060c08301511660c0850152868060a01b0360e08301511660e085015261010082015161010085015261012082015116610120840152610140810151151561014084015261016081015115156101608401526101808101511515610180840152015115156101a08201520198019101918e98979695949392610e14565b8e80fd5b61159e915060203d6020116103a35761039581836123e7565b38610d0b565b6040513d86823e3d90fd5b9360010193610c10565b9390606460029104910193610c05565b939061271060049104910193610bfb565b60089195920491019338610bef565b60109195920491019338610be0565b60209195920491019338610bce565b6040955060018d0104915038610bb6565b9091506020813d602011611658575b81611634602093836123e7565b8101031261165457516001600160a01b0381168103611654579038610b8b565b8780fd5b3d9150611627565b6040513d8a823e3d90fd5b9091506020813d602011611697575b81611687602093836123e7565b8101031261036657519038610ab6565b3d915061167a565b6040513d89823e3d90fd5b90506020813d6020116116d4575b816116c5602093836123e7565b81010312610366575138610a70565b3d91506116b8565b8060e06116ef60019360808901516125f4565b51838060501b038151168a61ffff602084015116868060a01b0360408501511660ff606086015116888060a01b036080870151169160a08701519360c08801511515956040519761173f89612379565b8852602088015264ffffffffff60408801528a6060880152608087015260a086015260c085015285840152610100830152856101208301528b6101408301526101608201528a6101808201528a6101a082015261179c84896125f4565b526117a783886125f4565b5001516117b482866125f4565b526117bf81856125f4565b5001610a23565b8060606020809387010152016109dc565b6020906040516117e681612379565b88815288838201528860408201528860608201528860808201528860a08201528860c08201528860e08201528861010082015288610120820152886101408201528861016082015288610180820152886101a0820152828287010152016109a8565b82611851612581565b6101808301516040516118b5916001600160a01b031661187082612330565b8482528460208301526302faf0806040830152610171606083015260808201528360a08201528360c08201526101408501518051916118af83836125f4565b526125f4565b50610140830151604051906118c9826122f9565b60018601825260208201526118dd826125d1565b526118e7816125d1565b50604051630af7f80160e21b8152906020826004817f00000000000000000000000000000000000000000000000000000000000000006001600160a01b03165afa9182156113865783926119b0575b506001600160a01b0382163b1561135657829161197f9160405194858094819363796d225b60e11b83526101716004840152836024840152606060448401526064830190612608565b03926001600160a01b03165af180156115a45761199d575b50610979565b6119a990939193612366565b9138611997565b6119ca91925060203d6020116103a35761039581836123e7565b9038611936565b634e487b7160e01b83526011600452602483fd5b9091506020813d602011611a11575b81611a01602093836123e7565b8101031261135657519038610813565b3d91506119f4565b90506020813d602011611a56575b81611a34602093836123e7565b810103126113565751906001600160a01b0382168203611356579060206107e0565b3d9150611a27565b604051633a7c40a160e11b8152600490fd5b5065ffffffffffff6101208201511665ffffffffffff610100830151161161078f565b65ffffffffffff4216610100820152610743565b60e08236031261142a57604051611abd81612330565b611ac683612483565b8152611ad460208401612483565b60208201526040830135604082015260608301356060820152611af9608084016122b4565b608082015260a0838101359082015260c08301356001600160a01b038116900361147d5760e09160209160c085013560c082015281520191019061067a565b82356001600160401b038111611c66576101006004358401820136036023190112611c665760405191611b6a83612314565b60043584018201602401356001600160501b03811690036116545760043584018201602481013584526044013561ffff81169003611654576004358401820160448101356020850152611bbf906064016122b4565b6040840152600435840182016084013560ff81169003611654576004358401820160848101356060850152611bf69060a4016122b4565b60808401526004358401820160c481013560a0850152611c189060e401612483565b60c08401526001600160401b0360043585018301610104013511611654576020928392611c5690369060043588010161010481013501602401612425565b60e0820152815201920191610578565b8680fd5b634e487b7160e01b83526041600452602483fd5b503461014c57602036600319011261014c5765ffffffffffff60406020926004358152808452205460901c16604051908152f35b503461014c57602036600319011261014c5765ffffffffffff60406020926004358152808452205460601c16604051908152f35b503461014c57602036600319011261014c5760408160809260608351611d0b816122c8565b828152826020820152828582015201526004358152806020522060405190611d32826122c8565b5465ffffffffffff9081808216938481528160208201818560301c16815281606060408501948288831c168652019560901c168552604051968752511660208601525116604084015251166060820152f35b503461014c578060031936011261014c5760206040516101718152f35b503461014c576020908160031936011261014c5760405163557e715560e01b808252916001600160a01b037f0000000000000000000000000000000000000000000000000000000000000000811660048035908790869081855afa9485156115a4578495611f60575b5082939495604051966321d1336160e11b885282600489015287602481610120988994165afa9687156103c7579088918798611f24575b5060046040518095819382525afa91821561037257908492918692611f02575b506024906040519485938492630b8aa00f60e31b84526004840152165afa928315611ef6578093611eba575b505050826004835114159283611ea9575b506040518315158152f35b810151910151149050388281611e9e565b90918093503d8411611eef575b611ed181846123e7565b8201928284031261014c575090611ee7916124c2565b388080611e8d565b503d611ec7565b604051903d90823e3d90fd5b6024919250611f1d90893d8b116103a35761039581836123e7565b9190611e61565b91509650843d8611611f59575b611f3b81836123e7565b8101908581830312611c66578891611f52916124c2565b9638611e41565b503d611f31565b83949550611f7a90883d8a116103a35761039581836123e7565b9493611e0a565b503461014c578060031936011261014c576040517f00000000000000000000000000000000000000000000000000000000000000006001600160a01b03168152602090f35b503461014c57602036600319011261014c57602090600435815260018252604060018060a01b0391205416604051908152f35b503461014c578060031936011261014c576040517f00000000000000000000000000000000000000000000000000000000000000006001600160a01b03168152602090f35b503461014c57602036600319011261014c5760209060043581526001825260016040818060581b039220015460a01c16604051908152f35b503461014c57602036600319011261014c576020612095600435612913565b604051908152f35b503461014c57608036600319011261014c576001600160a01b036004358181160361136e576024359081160361014c576064356001600160401b038082116113565736602383011215611356578160040135908111611356573691016024011161014c57604051630a85bd0160e11b8152602090f35b503461014c57602036600319011261014c5765ffffffffffff60406020926004358152808452205460301c16604051908152f35b503461014c57602036600319011261014c5760405163557e715560e01b81526001600160a01b0391906020816004817f000000000000000000000000000000000000000000000000000000000000000087165afa90811561032c578291612223575b50604051906321d1336160e11b8252600435600483015281602481610120968794165afa918215611ef65780926121e7575b60208351604051908152f35b909150823d841161221c575b6121fd81846123e7565b8201928284031261014c5750602091612215916124c2565b38806121db565b503d6121f3565b61223b915060203d81116103a35761039581836123e7565b386121a9565b503461014c578060031936011261014c576040517f00000000000000000000000000000000000000000000000000000000000000006001600160a01b03168152602090f35b90503461136e57602036600319011261136e5765ffffffffffff604060209360043581528085522054168152f35b35906001600160a01b038216820361036657565b608081019081106001600160401b038211176122e357604052565b634e487b7160e01b600052604160045260246000fd5b604081019081106001600160401b038211176122e357604052565b61010081019081106001600160401b038211176122e357604052565b60e081019081106001600160401b038211176122e357604052565b606081019081106001600160401b038211176122e357604052565b6001600160401b0381116122e357604052565b6101c081019081106001600160401b038211176122e357604052565b61024081019081106001600160401b038211176122e357604052565b60c081019081106001600160401b038211176122e357604052565b602081019081106001600160401b038211176122e357604052565b601f909101601f19168101906001600160401b038211908210176122e357604052565b6001600160401b0381116122e357601f01601f191660200190565b81601f820112156103665780359061243c8261240a565b9261244a60405194856123e7565b8284526020838301011161036657816000926020809301838601378301015290565b6001600160401b0381116122e35760051b60200190565b3590811515820361036657565b359065ffffffffffff8216820361036657565b9081602091031261036657516001600160a01b03811681036103665790565b8092916101209182910312610366576040519081016001600160401b038111828210176122e3576040528092805182526020810151602083015260408101516040830152606081015160608301526080810151608083015260a081015160a083015260c081015160c083015260e081015160018060a01b03811681036103665760e083015261010080910151910152565b65ffffffffffff918216908216039190821161256b57565b634e487b7160e01b600052601160045260246000fd5b604090815191612590836122f9565b600183528291600091825b6020808210156125c8578251602092916125b4826122f9565b86825260608183015282890101520161259b565b50505091925050565b8051156125de5760200190565b634e487b7160e01b600052603260045260246000fd5b80518210156125de5760209160051b010190565b908082519081815260208091019281808460051b830101950193600080925b858410612638575050505050505090565b9091929380959697601f1983820301855288519060408381830193805184520151928185840152835180915284606080940194019287925b8284106126925750505050509080600192990194019401929594939190612627565b845180511515875287810151151588880152818101518288015282810151838801526080808201516001600160a01b039081169189019190915260a0808301519089015260c09182015116908701528b9660e0909601959094019360019390930192612670565b60005b83811061270c5750506000910152565b81810151838201526020016126fc565b90602091612735815180928185528580860191016126f9565b601f01601f1916010190565b5190811515820361036657565b6001600160a01b039091168152602081019190915260400190565b80820392916103a084126103665761278190826124c2565b9261011f190190610280808312610366576060604051936127a185612395565b1261036657612852916040516127b68161234b565b610120906127c5828401612741565b8152610140906127d6828501612741565b6020820152610160906127ea828601612741565b604082015287526101808085015160208901526101a0918286015160408a01526101c0938487015160608b01526101e095612826878901612741565b60808c0152612883610200998c60a06128408d8d01612741565b9101528c60c06102209d8e8d01612741565b9101528c60e06128656102408d01612741565b9101528c6101006128796102608d01612741565b9101528901612741565b908b01526128946102a08801612741565b908a01526128a56102c08701612741565b908901526128b66102e08601612741565b908801526128c76103008501612741565b908701526128d86103208401612741565b908601526128e96103408301612741565b908501526103608101516001600160a01b0381168103610366576103809285015201519082015290565b604051638776c49960e01b8152600481018290526103a0816024817f00000000000000000000000000000000000000000000000000000000000000006001600160a01b03165afa908115612c40576000908192613350575b5060048151101561333e576040516304acdec560e21b8152600481018490526103a0816024817f00000000000000000000000000000000000000000000000000000000000000006001600160a01b03165afa908115612c405760009161330c575b50602080830151910151036132fa575160018103612c4c5750906020906040610200938460018060a01b039101511682600052600084528160002094825195612a14876122c8565b5495606065ffffffffffff8089168352808960301c169889898501528181841c168785015260901c16910152825195612a4c876122c8565b865260008587015260008387015260006060870152825191612a6d8361234b565b60008352600086840152600084840152612a9a8451612a8b816122f9565b60008152600188820152613516565b91845193612aa785612395565b84526000878501526127108086860152606085015260016080850152600060a0850152600060c0850152600060e08501526000610100850152600061012085015260006101408501526000610160850152600061018085015260006101a085015260016101c085015260016101e0850152830152610220820152732232b334b3309033b0b6b290383430b9b290191760611b84612bbd612ba98551612b4b816123cc565b60008152612b8d875196612b5e886123cc565b60008852612b8389519c8d9b63175b7be560e31b8d5260048d015260248c0190613374565b60a48a01906133a0565b60006103248901526103a06103448901526103a4880190612608565b6003199485888303016103648901526134a2565b858103938401610384870152601481520152018160007f00000000000000000000000000000000000000000000000000000000000000006001600160a01b03165af1908115612c4057600091612c11575090565b906020823d602011612c38575b81612c2b602093836123e7565b8101031261014c57505190565b3d9150612c1e565b6040513d6000823e3d90fd5b6002036131d55761020001516000828152600160208190526040918290209151926001600160a01b031691612c808461234b565b818060a01b038154168452015460018060a01b038116602084015260018060581b039060a01c16604083015260405191612cb9836122f9565b6001835260005b60208110613194575080516020808301516040808501519051631982d67960e01b81526001600160a01b03928316600482018190529290941693926001600160581b03909116919083602481875afa928315612c4057600093613160575b5060405193612d2c856123b1565b845260208401526040830152606082015260006080820152600060a0820152612d54846125d1565b52612d5e836125d1565b50604051630af7f80160e21b8152916020836004817f00000000000000000000000000000000000000000000000000000000000000006001600160a01b03165afa928315612c40576064936000918291613141575b506040516369e11cc560e01b81526101716004820152602481018390526044810188905294859182906001600160a01b03165afa928315612c4057600093612ff4575b5092732232b334b3309033b0b6b290383430b9b290199760611b6020612bbd612ba9612ed99896604096849960009280511515600014612fd957612b8d929350612e3e612581565b938701516001600160a01b031661eeee8103612fd357506001905b8a5191612e65836122f9565b825287820152612e74846125d1565b52612e7e836125d1565b505b896000526000865288600020612ed08a5191612e9b836122c8565b54606065ffffffffffff938483168152848360301c168b820152848084841c16938f859084015260901c169182910152612553565b8a519d8e6122c8565b168c526000868d01526000898d0152600060608d0152885190612efb8261234b565b6000825260008783015260008a830152612f288a51612f19816122f9565b60008152600089820152613516565b908a5192612f3584612395565b835260008884015260008b8401526000606084015260016080840152600060a0840152600160c0840152600060e08401526000610100840152600061012084015260006101408401526000610160840152600061018084015260006101a084015260016101c084015260016101e0840152610200830152610220820152612b8389519c8d9b63175b7be560e31b8d5260048d015260248c0190613374565b90612e59565b5091612b8d9150885190612fec826123cc565b815291612e80565b90923d8082843e61300581846123e7565b602083828101031261136e578251916001600160401b03831161014c57818401601f84860101121561014c57828401519161303f8361246c565b9461304d60405196876123e7565b8386526020860194828201602060e0870283850101011161139157602081830101955b602060e08702838501010187106130aa575095979550732232b334b3309033b0b6b290383430b9b290199760611b9450612df69350505050565b60e087858501031261142a576040516130c281612330565b6130cb88612741565b81526130d960208901612741565b6020820152604088810151908201526060808901519082015260808801516001600160a01b0381168103611c6657608082015260a0888101519082015260c08801516001600160a01b0381168103611c665760c0820152815260e09690960195602001613070565b61315a915060203d6020116103a35761039581836123e7565b38612db3565b90926020823d60201161318c575b8161317b602093836123e7565b8101031261014c5750519138612d1e565b3d915061316e565b6020906040516131a3816123b1565b60008152600083820152600060408201526000606082015260006080820152600060a082015282828701015201612cc0565b61020090810151604080519360209390926001600160a01b0316906131f9866122c8565b600086526000858701526000838701526000606087015282519161321c8361234b565b60008352600086840152600084840152613249845161323a816122f9565b60008152600088820152613516565b9184519361325685612395565b84526000878501526127108086860152606085015260016080850152600060a0850152600060c0850152600060e08501526000610100850152600061012085015260006101408501526000610160850152600061018085015260006101a085015260016101c085015260016101e0850152830152610220820152732232b334b3309033b0b6b290383430b9b2901a1760611b84612bbd612ba98551612b4b816123cc565b6040516311f4338560e01b8152600490fd5b61333091506103a03d6103a011613337575b61332881836123e7565b810190612769565b50386129cc565b503d61331e565b60405163dc7a251560e01b8152600490fd5b905061336d91506103a03d6103a0116133375761332881836123e7565b903861296b565b8051825260208082015190830152604080820151908301526060908101516001600160a01b0316910152565b61026090604081518051151585526020810151151560208601520151151560408401526020810151606084015260408101516080840152606081015160a08401526080810151151560c084015260a0810151151560e084015260c0810151151590610100918285015260e081015115159161012092838601528101511515916101409283860152810151151591610160928386015281015115159161018092838601528101511515916101a092838601528101511515916101c092838601528101511515916101e092838601528101511515916102009283860152810151151591610220928386015260018060a01b0390820151166102408501520151910152565b90815180825260208080930193019160005b8281106134c2575050505090565b835180516001600160a01b03908116875281840151168684015260408082015190870152606080820151908701526080808201519087015260a0908101519086015260c090940193928101926001016134b4565b906000918051613532575b6020015161352b57565b9060021790565b60019250613521565b6e5af43d82803e903d91602b57fd5bf390763d602d80600a3d3981f3363d3d373d3d3d363d7300000062ffffff8260881c161760005260781b17602052603760096000f0906001600160a01b0382161561359157565b60405162461bcd60e51b8152602060048201526016602482015275115490cc4c4d8dce8818dc99585d194819985a5b195960521b6044820152606490fdfea2646970667358221220eefd5af35314d4b0a174bdea6e64d391090e2e527118e1d2df9c2aa17c09225664736f6c63430008120033",
    "linkReferences": {}
  },
  "methodIdentifiers": {
    "BALLKIDZ_PROJECT_ID()": "af9fbd19",
    "SPLIT_DOMAIN()": "ff16a2f2",
    "claimProtocolProjectToken()": "ca449a25",
    "controller()": "f77c4791",
    "currentGamePhaseOf(uint256)": "0715610a",
    "delegateCodeOrigin()": "06b552b5",
    "delegatesRegistry()": "d574ff04",
    "distributionLimit(uint256)": "27655cfd",
    "endOf(uint256)": "b965933e",
    "governorCodeOrigin()": "ff2a43cc",
    "launchGameWith((string,(string,uint256),string,string,(uint80,uint16,address,uint8,address,bytes32,bool,string)[],address,uint48,uint48,uint48,uint48,(bool,bool,uint256,uint256,address,uint256,address)[],uint88,address,uint256,address,address))": "c47c437c",
    "mintDurationOf(uint256)": "0589d292",
    "nextPhaseNeedsQueueing(uint256)": "81312a14",
    "onERC721Received(address,address,uint256,bytes)": "150b7a02",
    "protocolFeeProjectTokenAccount()": "3f3090d9",
    "queueNextPhaseOf(uint256)": "1c069dbb",
    "refundPeriodDurationOf(uint256)": "1109fff2",
    "startOf(uint256)": "b41e7f47",
    "terminalOf(uint256)": "4fe0eced",
    "timesFor(uint256)": "b07925d3",
    "tokenUriResolverCodeOrigin()": "80f07954"
  },
  "id": 1
}